{
    "create2InitCodes" : {
        "_info" : {
            "comment" : "testing different byte opcodes inside create2 init code",
            "filling-rpc-server" : "evm version 1.10.4-unstable-966ee3ae-20210528",
            "filling-tool-version" : "retesteth-0.1.1-eip1559+commit.658fc3a8.Linux.g++",
            "lllcversion" : "Version: 0.5.14-develop.2021.5.18+commit.14c9d5de.mod.Linux.g++",
            "source" : "src/GeneralStateTestsFiller/stCreate2/create2InitCodesFiller.json",
            "sourceHash" : "0f0967bc483d9d1abd269f8a5f546b105dda60e23ea812db73785c3007ba0602"
        },
        "env" : {
            "currentCoinbase" : "0x2adc25665018aa1fe0e6bc666dac8fc2697ff9ba",
            "currentDifficulty" : "0x020000",
            "currentNumber" : "0x01",
            "currentTimestamp" : "0x03e8",
            "previousHash" : "0x5e20a0453cecd065ea59c37ac63e079ee08998b6045136a8ce6635c7912ec0b6",
            "currentGasLimit" : "0x0f4240"
        },
        "post" : {
            "Berlin" : [
                {
                    "indexes" : {
                        "data" : 0,
                        "gas" : 0,
                        "value" : 0
                    },
                    "hash" : "0xec608831620fa7e9648e01c721c645b245b3104f452ac0e99e03afd43f560849",
                    "txbytes" : "0xf85e800a830c350080019260006000536000600160006000f5600055001ca0ec952454f70a7c63e779da20bd59c018ed443218c2a5076fb877f8a0315eb9b2a077ff7b142ee7d77de473e7fc8f5a68a66abba5f956fb0041a692671de6cf25dc",
                    "logs" : "0x1dcc4de8dec75d7aab85b567b6ccd41ad312451b948a7413f0a142fd40d49347"
                },
                {
                    "indexes" : {
                        "data" : 1,
                        "gas" : 0,
                        "value" : 0
                    },
                    "hash" : "0xd009e4fce783afbd5cf8d80ec7441790966233a717a71b58ee74fdbd09ebbb2a",
                    "txbytes" : "0xf85e800a830c350080019260566000536000600160006000f5600055001ba0a2a32f4240c43866b18b20c422d852cfa76c3b1c38481946153ad74095edf200a03250350c68295f013883bf7f4f59aacb7a84e1b5c234c948430c15a7d63c6472",
                    "logs" : "0x1dcc4de8dec75d7aab85b567b6ccd41ad312451b948a7413f0a142fd40d49347"
                },
                {
                    "indexes" : {
                        "data" : 2,
                        "gas" : 0,
                        "value" : 0
                    },
                    "hash" : "0xd009e4fce783afbd5cf8d80ec7441790966233a717a71b58ee74fdbd09ebbb2a",
                    "txbytes" : "0xf85e800a830c350080019260016000536000600160006000f5600055001ba0331ab70acd3913442936323ca8f14202f23be5e3bb2becedc1f8e614eb6ca2b3a05e8cf615f6105d56d21157556b36f0b448c5780394f9bfe0a1155efde9552ed1",
                    "logs" : "0x1dcc4de8dec75d7aab85b567b6ccd41ad312451b948a7413f0a142fd40d49347"
                },
                {
                    "indexes" : {
                        "data" : 3,
                        "gas" : 0,
                        "value" : 0
                    },
                    "hash" : "0xd009e4fce783afbd5cf8d80ec7441790966233a717a71b58ee74fdbd09ebbb2a",
                    "txbytes" : "0xf85e800a830c350080019260f46000536000600160006000f5600055001ba0bedd53804c09a2215ca2cddbcd7fdbb53bb297634eb1a467a1fae2ea444f3311a07a03f2012a00e61d7c668adb5300c74e884888133a394f8fed7a4f999570bfad",
                    "logs" : "0x1dcc4de8dec75d7aab85b567b6ccd41ad312451b948a7413f0a142fd40d49347"
                },
                {
                    "indexes" : {
                        "data" : 4,
                        "gas" : 0,
                        "value" : 0
                    },
                    "hash" : "0x0cba1e92a02967c82fcfb63cc2a86a99e76c251eb19087d02c7d3ccab84dba25",
                    "txbytes" : "0xf868800a830c350080019c6a60016001556001546002556000526000600b60156000f5600055001ba05a6950ae2a71d5c1a47bcad7d0eee41f0e9a820bb09a7c2463704d6d8e40a1ada0607853e80708d47965966b01eea325d65f49889ab505daf6630deb23cc759d97",
                    "logs" : "0x1dcc4de8dec75d7aab85b567b6ccd41ad312451b948a7413f0a142fd40d49347"
                },
                {
                    "indexes" : {
                        "data" : 5,
                        "gas" : 0,
                        "value" : 0
                    },
                    "hash" : "0xc5744587f29b10544b08ed891beedaa6c0a0611557f92263299990cbb0ab8095",
                    "txbytes" : "0xf860800a830c3500800194626001ff60005260006003601d6000f5600055001ca0cabbd6d608a077e1539d7bf623d544e35d9b27e0d5c14c2d1c9ca5bc854a88c3a028962488304e3e4aedbbbf101c5a6e5bf593659c396ca358d83ecc92d13f64ca",
                    "logs" : "0x1dcc4de8dec75d7aab85b567b6ccd41ad312451b948a7413f0a142fd40d49347"
                },
                {
                    "indexes" : {
                        "data" : 6,
                        "gas" : 0,
                        "value" : 0
                    },
                    "hash" : "0x8a942f240cecf4a2437111a1fb57bba61d4c3176a005793f0c98de7534432dbb",
                    "txbytes" : "0xf860800a830c3500800194626001ff60005260006003601d6001f5600055001ca0b98aabe195dafad3021326e2481f039c48ac605e293efdc96eddcafa975fad2ca035c5513d4e25d488ec1f9899e3babf726210b744b8d028a13eb8a26e0f2dc495",
                    "logs" : "0x1dcc4de8dec75d7aab85b567b6ccd41ad312451b948a7413f0a142fd40d49347"
                },
                {
                    "indexes" : {
                        "data" : 7,
                        "gas" : 0,
                        "value" : 0
                    },
                    "hash" : "0x1d2f683dbd78ff706518c341b533ef2cdad391333d2ebdccff430ec47bc55162",
                    "txbytes" : "0xf859800a830c350080018d60006003601d6000f5600055001ba07523847b87133dd8ea10bde95a93cd8a7050211e86669234f9f8a000ce7a0b1fa0460a697b1211b642780abb1d3a16163b40c18882089e7f14cda0820af1853ccb",
                    "logs" : "0x1dcc4de8dec75d7aab85b567b6ccd41ad312451b948a7413f0a142fd40d49347"
                },
                {
                    "indexes" : {
                        "data" : 8,
                        "gas" : 0,
                        "value" : 0
                    },
                    "hash" : "0x834b1b2a705f790b361434063480dbf14d16da5bb324da34b9413910b63f5d27",
                    "txbytes" : "0xf85f800a830c35008001936160a960005260006002601e6001f5600055001ba017022c81c7c76212076cb021228d09a74f59eb7e960b48e66765f313f545ae55a06856c8af523a57306bb6ceb61dd42883a65c20301487f78f2297b98d6f6b32c1",
                    "logs" : "0x1dcc4de8dec75d7aab85b567b6ccd41ad312451b948a7413f0a142fd40d49347"
                }
            ],
            "Istanbul" : [
                {
                    "indexes" : {
                        "data" : 0,
                        "gas" : 0,
                        "value" : 0
                    },
                    "hash" : "0xe27488521f48dc5ee78c00488443c7e83713f02b7f57e5b95f74822c0a11a29b",
                    "txbytes" : "0xf85e800a830c350080019260006000536000600160006000f5600055001ca0ec952454f70a7c63e779da20bd59c018ed443218c2a5076fb877f8a0315eb9b2a077ff7b142ee7d77de473e7fc8f5a68a66abba5f956fb0041a692671de6cf25dc",
                    "logs" : "0x1dcc4de8dec75d7aab85b567b6ccd41ad312451b948a7413f0a142fd40d49347"
                },
                {
                    "indexes" : {
                        "data" : 1,
                        "gas" : 0,
                        "value" : 0
                    },
                    "hash" : "0x7600f868dd188afe1ab83d9530bbcd91b3004c210a2db87ab0ce044f2ae270ed",
                    "txbytes" : "0xf85e800a830c350080019260566000536000600160006000f5600055001ba0a2a32f4240c43866b18b20c422d852cfa76c3b1c38481946153ad74095edf200a03250350c68295f013883bf7f4f59aacb7a84e1b5c234c948430c15a7d63c6472",
                    "logs" : "0x1dcc4de8dec75d7aab85b567b6ccd41ad312451b948a7413f0a142fd40d49347"
                },
                {
                    "indexes" : {
                        "data" : 2,
                        "gas" : 0,
                        "value" : 0
                    },
                    "hash" : "0x7600f868dd188afe1ab83d9530bbcd91b3004c210a2db87ab0ce044f2ae270ed",
                    "txbytes" : "0xf85e800a830c350080019260016000536000600160006000f5600055001ba0331ab70acd3913442936323ca8f14202f23be5e3bb2becedc1f8e614eb6ca2b3a05e8cf615f6105d56d21157556b36f0b448c5780394f9bfe0a1155efde9552ed1",
                    "logs" : "0x1dcc4de8dec75d7aab85b567b6ccd41ad312451b948a7413f0a142fd40d49347"
                },
                {
                    "indexes" : {
                        "data" : 3,
                        "gas" : 0,
                        "value" : 0
                    },
                    "hash" : "0x7600f868dd188afe1ab83d9530bbcd91b3004c210a2db87ab0ce044f2ae270ed",
                    "txbytes" : "0xf85e800a830c350080019260f46000536000600160006000f5600055001ba0bedd53804c09a2215ca2cddbcd7fdbb53bb297634eb1a467a1fae2ea444f3311a07a03f2012a00e61d7c668adb5300c74e884888133a394f8fed7a4f999570bfad",
                    "logs" : "0x1dcc4de8dec75d7aab85b567b6ccd41ad312451b948a7413f0a142fd40d49347"
                },
                {
                    "indexes" : {
                        "data" : 4,
                        "gas" : 0,
                        "value" : 0
                    },
                    "hash" : "0x77b87e2b2d5951ba983a3cec0ca7f381268992737ba2b90d123004ecd63376d6",
                    "txbytes" : "0xf868800a830c350080019c6a60016001556001546002556000526000600b60156000f5600055001ba05a6950ae2a71d5c1a47bcad7d0eee41f0e9a820bb09a7c2463704d6d8e40a1ada0607853e80708d47965966b01eea325d65f49889ab505daf6630deb23cc759d97",
                    "logs" : "0x1dcc4de8dec75d7aab85b567b6ccd41ad312451b948a7413f0a142fd40d49347"
                },
                {
                    "indexes" : {
                        "data" : 5,
                        "gas" : 0,
                        "value" : 0
                    },
                    "hash" : "0x7809038eb6c83a779f8aee9640f4ada394f7f647721c7a7d41367f9a85264d51",
                    "txbytes" : "0xf860800a830c3500800194626001ff60005260006003601d6000f5600055001ca0cabbd6d608a077e1539d7bf623d544e35d9b27e0d5c14c2d1c9ca5bc854a88c3a028962488304e3e4aedbbbf101c5a6e5bf593659c396ca358d83ecc92d13f64ca",
                    "logs" : "0x1dcc4de8dec75d7aab85b567b6ccd41ad312451b948a7413f0a142fd40d49347"
                },
                {
                    "indexes" : {
                        "data" : 6,
                        "gas" : 0,
                        "value" : 0
                    },
                    "hash" : "0xfad7d4c27343d08bdbad0e8395537b7d2c897b30ef956b5c233d382a5514538f",
                    "txbytes" : "0xf860800a830c3500800194626001ff60005260006003601d6001f5600055001ca0b98aabe195dafad3021326e2481f039c48ac605e293efdc96eddcafa975fad2ca035c5513d4e25d488ec1f9899e3babf726210b744b8d028a13eb8a26e0f2dc495",
                    "logs" : "0x1dcc4de8dec75d7aab85b567b6ccd41ad312451b948a7413f0a142fd40d49347"
                },
                {
                    "indexes" : {
                        "data" : 7,
                        "gas" : 0,
                        "value" : 0
                    },
                    "hash" : "0xb40d33594418eca0dd32b53d03e8dac9ed974013fcce45acac0aff17d59345d8",
                    "txbytes" : "0xf859800a830c350080018d60006003601d6000f5600055001ba07523847b87133dd8ea10bde95a93cd8a7050211e86669234f9f8a000ce7a0b1fa0460a697b1211b642780abb1d3a16163b40c18882089e7f14cda0820af1853ccb",
                    "logs" : "0x1dcc4de8dec75d7aab85b567b6ccd41ad312451b948a7413f0a142fd40d49347"
                },
                {
                    "indexes" : {
                        "data" : 8,
                        "gas" : 0,
                        "value" : 0
                    },
                    "hash" : "0xada2e35c08eccfff11d968a4c404e890de1ac02846f5e5f3fe8aa844874d692a",
                    "txbytes" : "0xf85f800a830c35008001936160a960005260006002601e6001f5600055001ba017022c81c7c76212076cb021228d09a74f59eb7e960b48e66765f313f545ae55a06856c8af523a57306bb6ceb61dd42883a65c20301487f78f2297b98d6f6b32c1",
                    "logs" : "0x1dcc4de8dec75d7aab85b567b6ccd41ad312451b948a7413f0a142fd40d49347"
                }
            ],
            "London" : [
                {
                    "indexes" : {
                        "data" : 0,
                        "gas" : 0,
                        "value" : 0
                    },
                    "hash" : "0x0b45a71bc6fb6dcd62a209121a43269087bbae0e737ea6d92f011a9c40df24c1",
                    "txbytes" : "0xf85e800a830c350080019260006000536000600160006000f5600055001ca0ec952454f70a7c63e779da20bd59c018ed443218c2a5076fb877f8a0315eb9b2a077ff7b142ee7d77de473e7fc8f5a68a66abba5f956fb0041a692671de6cf25dc",
                    "logs" : "0x1dcc4de8dec75d7aab85b567b6ccd41ad312451b948a7413f0a142fd40d49347"
                },
                {
                    "indexes" : {
                        "data" : 1,
                        "gas" : 0,
                        "value" : 0
                    },
                    "hash" : "0x31f58ab7647727616c804a8adce1c8660b56074daffb74b2bc7741ad84d049c6",
                    "txbytes" : "0xf85e800a830c350080019260566000536000600160006000f5600055001ba0a2a32f4240c43866b18b20c422d852cfa76c3b1c38481946153ad74095edf200a03250350c68295f013883bf7f4f59aacb7a84e1b5c234c948430c15a7d63c6472",
                    "logs" : "0x1dcc4de8dec75d7aab85b567b6ccd41ad312451b948a7413f0a142fd40d49347"
                },
                {
                    "indexes" : {
                        "data" : 2,
                        "gas" : 0,
                        "value" : 0
                    },
                    "hash" : "0x31f58ab7647727616c804a8adce1c8660b56074daffb74b2bc7741ad84d049c6",
                    "txbytes" : "0xf85e800a830c350080019260016000536000600160006000f5600055001ba0331ab70acd3913442936323ca8f14202f23be5e3bb2becedc1f8e614eb6ca2b3a05e8cf615f6105d56d21157556b36f0b448c5780394f9bfe0a1155efde9552ed1",
                    "logs" : "0x1dcc4de8dec75d7aab85b567b6ccd41ad312451b948a7413f0a142fd40d49347"
                },
                {
                    "indexes" : {
                        "data" : 3,
                        "gas" : 0,
                        "value" : 0
                    },
                    "hash" : "0x31f58ab7647727616c804a8adce1c8660b56074daffb74b2bc7741ad84d049c6",
                    "txbytes" : "0xf85e800a830c350080019260f46000536000600160006000f5600055001ba0bedd53804c09a2215ca2cddbcd7fdbb53bb297634eb1a467a1fae2ea444f3311a07a03f2012a00e61d7c668adb5300c74e884888133a394f8fed7a4f999570bfad",
                    "logs" : "0x1dcc4de8dec75d7aab85b567b6ccd41ad312451b948a7413f0a142fd40d49347"
                },
                {
                    "indexes" : {
                        "data" : 4,
                        "gas" : 0,
                        "value" : 0
                    },
                    "hash" : "0x49cc9f2d4c5a5cc260b1521ecbb3e12947720b46e5ecec789ac77738ecd5c234",
                    "txbytes" : "0xf868800a830c350080019c6a60016001556001546002556000526000600b60156000f5600055001ba05a6950ae2a71d5c1a47bcad7d0eee41f0e9a820bb09a7c2463704d6d8e40a1ada0607853e80708d47965966b01eea325d65f49889ab505daf6630deb23cc759d97",
                    "logs" : "0x1dcc4de8dec75d7aab85b567b6ccd41ad312451b948a7413f0a142fd40d49347"
                },
                {
                    "indexes" : {
                        "data" : 5,
                        "gas" : 0,
                        "value" : 0
                    },
                    "hash" : "0x820b67e04ea6277dcdfb7d4c7c7dffe3865dc55b47c8dc865932bc5e82fb70df",
                    "txbytes" : "0xf860800a830c3500800194626001ff60005260006003601d6000f5600055001ca0cabbd6d608a077e1539d7bf623d544e35d9b27e0d5c14c2d1c9ca5bc854a88c3a028962488304e3e4aedbbbf101c5a6e5bf593659c396ca358d83ecc92d13f64ca",
                    "logs" : "0x1dcc4de8dec75d7aab85b567b6ccd41ad312451b948a7413f0a142fd40d49347"
                },
                {
                    "indexes" : {
                        "data" : 6,
                        "gas" : 0,
                        "value" : 0
                    },
                    "hash" : "0x23a19612a952a7d6d5e7a596a8bd2883f8b6e8b7cfdfd07a84d856ff9c04625f",
                    "txbytes" : "0xf860800a830c3500800194626001ff60005260006003601d6001f5600055001ca0b98aabe195dafad3021326e2481f039c48ac605e293efdc96eddcafa975fad2ca035c5513d4e25d488ec1f9899e3babf726210b744b8d028a13eb8a26e0f2dc495",
                    "logs" : "0x1dcc4de8dec75d7aab85b567b6ccd41ad312451b948a7413f0a142fd40d49347"
                },
                {
                    "indexes" : {
                        "data" : 7,
                        "gas" : 0,
                        "value" : 0
                    },
                    "hash" : "0x4674ce396649161f161b0d895609519de87ffb40b9a9681be7c3e1c40144a7ab",
                    "txbytes" : "0xf859800a830c350080018d60006003601d6000f5600055001ba07523847b87133dd8ea10bde95a93cd8a7050211e86669234f9f8a000ce7a0b1fa0460a697b1211b642780abb1d3a16163b40c18882089e7f14cda0820af1853ccb",
                    "logs" : "0x1dcc4de8dec75d7aab85b567b6ccd41ad312451b948a7413f0a142fd40d49347"
                },
                {
                    "indexes" : {
                        "data" : 8,
                        "gas" : 0,
                        "value" : 0
                    },
                    "hash" : "0x09e6bef78480ce2dcd06861cc02849f8b71f03d6d692ba05376db09ac7ccf360",
                    "txbytes" : "0xf85f800a830c35008001936160a960005260006002601e6001f5600055001ba017022c81c7c76212076cb021228d09a74f59eb7e960b48e66765f313f545ae55a06856c8af523a57306bb6ceb61dd42883a65c20301487f78f2297b98d6f6b32c1",
                    "logs" : "0x1dcc4de8dec75d7aab85b567b6ccd41ad312451b948a7413f0a142fd40d49347"
                }
            ]
        },
        "pre" : {
            "0xa94f5374fce5edbc8e2a8697c15331677e6ebf0b" : {
                "balance" : "0x0de0b6b3a7640000",
                "code" : "0x",
                "nonce" : "0x00",
                "storage" : {
                }
            }
        },
        "transaction" : {
            "data" : [
                "0x60006000536000600160006000f560005500",
                "0x60566000536000600160006000f560005500",
                "0x60016000536000600160006000f560005500",
                "0x60f46000536000600160006000f560005500",
                "0x6a60016001556001546002556000526000600b60156000f560005500",
                "0x626001ff60005260006003601d6000f560005500",
                "0x626001ff60005260006003601d6001f560005500",
                "0x60006003601d6000f560005500",
                "0x6160a960005260006002601e6001f560005500"
            ],
            "gasPrice" : "0x0a",
            "gasLimit" : [
                "0x0c3500"
            ],
            "nonce" : "0x00",
            "secretKey" : "0x45a915e4d060149eb4365960e6a7a45f334393093061116b197e3240065ff2d8",
            "to" : "",
            "value" : [
                "0x01"
            ]
        }
    }
}