{
    "Create2Recursive" : {
        "_info" : {
            "comment" : "Create2 inside Create2 inside Create2....",
            "filling-rpc-server" : "evm version 1.10.4-unstable-966ee3ae-20210528",
            "filling-tool-version" : "retesteth-0.1.1-eip1559+commit.658fc3a8.Linux.g++",
            "lllcversion" : "Version: 0.5.14-develop.2021.5.18+commit.14c9d5de.mod.Linux.g++",
            "source" : "src/GeneralStateTestsFiller/stCreate2/Create2RecursiveFiller.json",
            "sourceHash" : "975e03d62d68e1cab296bb84dcc51af356db609ffebce3dfe0420e0cf9549ff2"
        },
        "env" : {
            "currentCoinbase" : "0x2adc25665018aa1fe0e6bc666dac8fc2697ff9ba",
            "currentDifficulty" : "0x020000",
            "currentNumber" : "0x01",
            "currentTimestamp" : "0x03e8",
            "previousHash" : "0x5e20a0453cecd065ea59c37ac63e079ee08998b6045136a8ce6635c7912ec0b6",
            "currentGasLimit" : "0x7fffffffffffffff"
        },
        "post" : {
            "Berlin" : [
                {
                    "indexes" : {
                        "data" : 0,
                        "gas" : 0,
                        "value" : 0
                    },
                    "hash" : "0xe0f166a10e57f456de6bb400f0efda1b1d78a36cafe2067880f03bc8f8a7be6f",
                    "txbytes" : "0xf865800a887effffffffffffff94b94f5374fce5edbc8e2a8697c15331677e6ebf0b80801ca01b3723e67ea5f55055160a3e79141aec6f26c742cd9811b91f791f258427510ea0453d5c97c4ed49afd959cd0773650ca8e252e5376abeceed2b0645174e6bae54",
                    "logs" : "0x1dcc4de8dec75d7aab85b567b6ccd41ad312451b948a7413f0a142fd40d49347"
                },
                {
                    "indexes" : {
                        "data" : 0,
                        "gas" : 1,
                        "value" : 0
                    },
                    "hash" : "0x93bd66b7d9d83fda1ba273bc4d2a0532c97711c1b7c908d669b903fa59a183a0",
                    "txbytes" : "0xf863800a861240e9387c0094b94f5374fce5edbc8e2a8697c15331677e6ebf0b80801ca0fe4bf9834be661357a7a524f0f71b153f6fcd08ae530430bb80705d09f359c00a003de6668f8181ff230fcc1005c7e245a794dc575068d63c9e17f1f8c7cce56be",
                    "logs" : "0x1dcc4de8dec75d7aab85b567b6ccd41ad312451b948a7413f0a142fd40d49347"
                }
            ],
            "Istanbul" : [
                {
                    "indexes" : {
                        "data" : 0,
                        "gas" : 0,
                        "value" : 0
                    },
                    "hash" : "0xe0f166a10e57f456de6bb400f0efda1b1d78a36cafe2067880f03bc8f8a7be6f",
                    "txbytes" : "0xf865800a887effffffffffffff94b94f5374fce5edbc8e2a8697c15331677e6ebf0b80801ca01b3723e67ea5f55055160a3e79141aec6f26c742cd9811b91f791f258427510ea0453d5c97c4ed49afd959cd0773650ca8e252e5376abeceed2b0645174e6bae54",
                    "logs" : "0x1dcc4de8dec75d7aab85b567b6ccd41ad312451b948a7413f0a142fd40d49347"
                },
                {
                    "indexes" : {
                        "data" : 0,
                        "gas" : 1,
                        "value" : 0
                    },
                    "hash" : "0x93bd66b7d9d83fda1ba273bc4d2a0532c97711c1b7c908d669b903fa59a183a0",
                    "txbytes" : "0xf863800a861240e9387c0094b94f5374fce5edbc8e2a8697c15331677e6ebf0b80801ca0fe4bf9834be661357a7a524f0f71b153f6fcd08ae530430bb80705d09f359c00a003de6668f8181ff230fcc1005c7e245a794dc575068d63c9e17f1f8c7cce56be",
                    "logs" : "0x1dcc4de8dec75d7aab85b567b6ccd41ad312451b948a7413f0a142fd40d49347"
                }
            ],
            "London" : [
                {
                    "indexes" : {
                        "data" : 0,
                        "gas" : 0,
                        "value" : 0
                    },
                    "hash" : "0x23cf306a5c3d4ba320bbdae28f7bd4e59037b888810dcf506ccc19c1908ad008",
                    "txbytes" : "0xf865800a887effffffffffffff94b94f5374fce5edbc8e2a8697c15331677e6ebf0b80801ca01b3723e67ea5f55055160a3e79141aec6f26c742cd9811b91f791f258427510ea0453d5c97c4ed49afd959cd0773650ca8e252e5376abeceed2b0645174e6bae54",
                    "logs" : "0x1dcc4de8dec75d7aab85b567b6ccd41ad312451b948a7413f0a142fd40d49347"
                },
                {
                    "indexes" : {
                        "data" : 0,
                        "gas" : 1,
                        "value" : 0
                    },
                    "hash" : "0x8c2ece9b717243b11f1b0e2dbdadfe1f3b720b23fe041ba6814de7b206249dbe",
                    "txbytes" : "0xf863800a861240e9387c0094b94f5374fce5edbc8e2a8697c15331677e6ebf0b80801ca0fe4bf9834be661357a7a524f0f71b153f6fcd08ae530430bb80705d09f359c00a003de6668f8181ff230fcc1005c7e245a794dc575068d63c9e17f1f8c7cce56be",
                    "logs" : "0x1dcc4de8dec75d7aab85b567b6ccd41ad312451b948a7413f0a142fd40d49347"
                }
            ]
        },
        "pre" : {
            "0xa94f5374fce5edbc8e2a8697c15331677e6ebf0b" : {
                "balance" : "0xffffffffffffffffffffffffffffffffffffffffffffffffffffffffffffff",
                "code" : "0x",
                "nonce" : "0x00",
                "storage" : {
                }
            },
            "0xb94f5374fce5edbc8e2a8697c15331677e6ebf0b" : {
                "balance" : "0x00",
                "code" : "0x7d606460006000396103e85a10601b576000606460006000f5601d565b5a5b6000526000601e60026000f500",
                "nonce" : "0x00",
                "storage" : {
                }
            }
        },
        "transaction" : {
            "data" : [
                "0x"
            ],
            "gasPrice" : "0x0a",
            "gasLimit" : [
                "0x7effffffffffffff",
                "0x1240e9387c00"
            ],
            "nonce" : "0x00",
            "secretKey" : "0x45a915e4d060149eb4365960e6a7a45f334393093061116b197e3240065ff2d8",
            "to" : "0xb94f5374fce5edbc8e2a8697c15331677e6ebf0b",
            "value" : [
                "0x00"
            ]
        }
    }
}