{
    "Create2OOGafterInitCode" : {
        "_info" : {
            "comment" : "",
            "filling-rpc-server" : "evm version 1.10.4-unstable-966ee3ae-20210528",
            "filling-tool-version" : "retesteth-0.1.1-eip1559+commit.658fc3a8.Linux.g++",
            "lllcversion" : "Version: 0.5.14-develop.2021.5.18+commit.14c9d5de.mod.Linux.g++",
            "source" : "src/GeneralStateTestsFiller/stCreate2/Create2OOGafterInitCodeFiller.json",
            "sourceHash" : "f20aef8c338a0ca323faaa6d2e149a0c4f597a060b5e7d400ac58909be69d2f3"
        },
        "env" : {
            "currentCoinbase" : "0x2adc25665018aa1fe0e6bc666dac8fc2697ff9ba",
            "currentDifficulty" : "0x020000",
            "currentNumber" : "0x01",
            "currentTimestamp" : "0x03e8",
            "previousHash" : "0x5e20a0453cecd065ea59c37ac63e079ee08998b6045136a8ce6635c7912ec0b6",
            "currentGasLimit" : "0x989680"
        },
        "post" : {
            "Berlin" : [
                {
                    "indexes" : {
                        "data" : 0,
                        "gas" : 0,
                        "value" : 0
                    },
                    "hash" : "0x99885acc280a182ada4759539cf36fa802a0fc71b53a2e156f132049f9570ae1",
                    "txbytes" : "0xf85f800a82d2f094b94f5374fce5edbc8e2a8697c15331677e6ebf0b80801ca04110d91c8d222752e43bb98f811ccf151dfd7ef10cf8dd5888369fece4112983a00752c4ac643358117ead0ac6abdeed2c936ebe3d64524ab6dc41e19aba7e2d21",
                    "logs" : "0x1dcc4de8dec75d7aab85b567b6ccd41ad312451b948a7413f0a142fd40d49347"
                },
                {
                    "indexes" : {
                        "data" : 0,
                        "gas" : 1,
                        "value" : 0
                    },
                    "hash" : "0xeadfff5065d5be58b739399565a1f0e50b3fc4ade4a58d9553381593593d425b",
                    "txbytes" : "0xf85f800a82d6d894b94f5374fce5edbc8e2a8697c15331677e6ebf0b80801ca03eaf11cd8a231db8431618bf811491b92e01dc244f69c773cd0ab190d0982a31a07bb6c9d4a24e9ece0bd5bf2ecd86963398a16547e3eb36cfd203de19a79c328b",
                    "logs" : "0x1dcc4de8dec75d7aab85b567b6ccd41ad312451b948a7413f0a142fd40d49347"
                }
            ],
            "Istanbul" : [
                {
                    "indexes" : {
                        "data" : 0,
                        "gas" : 0,
                        "value" : 0
                    },
                    "hash" : "0x99885acc280a182ada4759539cf36fa802a0fc71b53a2e156f132049f9570ae1",
                    "txbytes" : "0xf85f800a82d2f094b94f5374fce5edbc8e2a8697c15331677e6ebf0b80801ca04110d91c8d222752e43bb98f811ccf151dfd7ef10cf8dd5888369fece4112983a00752c4ac643358117ead0ac6abdeed2c936ebe3d64524ab6dc41e19aba7e2d21",
                    "logs" : "0x1dcc4de8dec75d7aab85b567b6ccd41ad312451b948a7413f0a142fd40d49347"
                },
                {
                    "indexes" : {
                        "data" : 0,
                        "gas" : 1,
                        "value" : 0
                    },
                    "hash" : "0xeadfff5065d5be58b739399565a1f0e50b3fc4ade4a58d9553381593593d425b",
                    "txbytes" : "0xf85f800a82d6d894b94f5374fce5edbc8e2a8697c15331677e6ebf0b80801ca03eaf11cd8a231db8431618bf811491b92e01dc244f69c773cd0ab190d0982a31a07bb6c9d4a24e9ece0bd5bf2ecd86963398a16547e3eb36cfd203de19a79c328b",
                    "logs" : "0x1dcc4de8dec75d7aab85b567b6ccd41ad312451b948a7413f0a142fd40d49347"
                }
            ],
            "London" : [
                {
                    "indexes" : {
                        "data" : 0,
                        "gas" : 0,
                        "value" : 0
                    },
                    "hash" : "0x2945ee79d5e63c055a2631fe1b71184060b9ae9c2c45daa9161608b5d7d3aa44",
                    "txbytes" : "0xf85f800a82d2f094b94f5374fce5edbc8e2a8697c15331677e6ebf0b80801ca04110d91c8d222752e43bb98f811ccf151dfd7ef10cf8dd5888369fece4112983a00752c4ac643358117ead0ac6abdeed2c936ebe3d64524ab6dc41e19aba7e2d21",
                    "logs" : "0x1dcc4de8dec75d7aab85b567b6ccd41ad312451b948a7413f0a142fd40d49347"
                },
                {
                    "indexes" : {
                        "data" : 0,
                        "gas" : 1,
                        "value" : 0
                    },
                    "hash" : "0x8da5356e6b5e4e4878b8c030ec7934f161a95ad80f76aad5f19300028d4ef0ff",
                    "txbytes" : "0xf85f800a82d6d894b94f5374fce5edbc8e2a8697c15331677e6ebf0b80801ca03eaf11cd8a231db8431618bf811491b92e01dc244f69c773cd0ab190d0982a31a07bb6c9d4a24e9ece0bd5bf2ecd86963398a16547e3eb36cfd203de19a79c328b",
                    "logs" : "0x1dcc4de8dec75d7aab85b567b6ccd41ad312451b948a7413f0a142fd40d49347"
                }
            ]
        },
        "pre" : {
            "0xa94f5374fce5edbc8e2a8697c15331677e6ebf0b" : {
                "balance" : "0xe8d4a51000",
                "code" : "0x",
                "nonce" : "0x00",
                "storage" : {
                }
            },
            "0xb94f5374fce5edbc8e2a8697c15331677e6ebf0b" : {
                "balance" : "0x00",
                "code" : "0x6d6460016001556000526005601bf36000526000600e60126000f500",
                "nonce" : "0x00",
                "storage" : {
                }
            }
        },
        "transaction" : {
            "data" : [
                "0x"
            ],
            "gasPrice" : "0x0a",
            "gasLimit" : [
                "0xd2f0",
                "0xd6d8"
            ],
            "nonce" : "0x00",
            "secretKey" : "0x45a915e4d060149eb4365960e6a7a45f334393093061116b197e3240065ff2d8",
            "to" : "0xb94f5374fce5edbc8e2a8697c15331677e6ebf0b",
            "value" : [
                "0x00"
            ]
        }
    }
}