{
    "RevertDepthCreateAddressCollisionBerlin" : {
        "_info" : {
            "comment" : "copy of this test for CREATE2",
            "filling-rpc-server" : "evm version 1.10.4-unstable-966ee3ae-20210528",
            "filling-tool-version" : "retesteth-0.1.1-eip1559+commit.658fc3a8.Linux.g++",
            "lllcversion" : "Version: 0.5.14-develop.2021.5.18+commit.14c9d5de.mod.Linux.g++",
            "source" : "src/GeneralStateTestsFiller/stCreate2/RevertDepthCreateAddressCollisionBerlinFiller.json",
            "sourceHash" : "69a3ef7d957b3ac8c567b297dc7d98186b0a6b6e6848bec44ced8359bcaa6828"
        },
        "env" : {
            "currentCoinbase" : "0x2adc25665018aa1fe0e6bc666dac8fc2697ff9ba",
            "currentDifficulty" : "0x020000",
            "currentNumber" : "0x01",
            "currentTimestamp" : "0x03e8",
            "previousHash" : "0x5e20a0453cecd065ea59c37ac63e079ee08998b6045136a8ce6635c7912ec0b6",
            "currentGasLimit" : "0x989680"
        },
        "post" : {
            "Berlin" : [
                {
                    "indexes" : {
                        "data" : 1,
                        "gas" : 1,
                        "value" : 0
                    },
                    "hash" : "0xe99b782205ba2a1e32bad75a8ad66414b82748cef732b7542e13a4147d603584",
                    "txbytes" : "0xf880800a83029810943e180b1862f9d158abb5e519a6d8605540c2368201a0000000000000000000000000000000000000000000000000000000000001ea601ba094c27d77e39daa90983ba836bf8a5342b1cfe5a10abe9e80318076843b6c1c20a05d6fe7651dd74a6d7222e461084f722326c72a3512b462233370b520c208fa2c",
                    "logs" : "0x1dcc4de8dec75d7aab85b567b6ccd41ad312451b948a7413f0a142fd40d49347"
                },
                {
                    "indexes" : {
                        "data" : 1,
                        "gas" : 1,
                        "value" : 1
                    },
                    "hash" : "0x322ce03ede227ee3210123da92d86869e4fb6f78df5eace064f6c2b759b09b38",
                    "txbytes" : "0xf880800a83029810943e180b1862f9d158abb5e519a6d8605540c2368280a0000000000000000000000000000000000000000000000000000000000001ea601ca098a95b0fa1be119f9b64b30c60219414b31cee828309044064c4c8c45166dd37a00952ec4111e5ef0dd21bbadb12d8a356cd123b023a9891f0d943e56541d9cd3e",
                    "logs" : "0x1dcc4de8dec75d7aab85b567b6ccd41ad312451b948a7413f0a142fd40d49347"
                },
                {
                    "indexes" : {
                        "data" : 0,
                        "gas" : 1,
                        "value" : 0
                    },
                    "hash" : "0x9202d397845eafb8fefbb09a1882418e62df6e80becadccc0cc6a0d2c5fffa8b",
                    "txbytes" : "0xf880800a83029810943e180b1862f9d158abb5e519a6d8605540c2368201a0000000000000000000000000000000000000000000000000000000000000ea601ba0f0ada45af941e3d90bb2a4730e0705c1866e62c2903487809896fb2318d5a4b1a00c3004d182aef4cd01a9ba6f35e21191f2d26a068b09faf0f859a9f1e1c37d4c",
                    "logs" : "0x1dcc4de8dec75d7aab85b567b6ccd41ad312451b948a7413f0a142fd40d49347"
                },
                {
                    "indexes" : {
                        "data" : 0,
                        "gas" : 1,
                        "value" : 1
                    },
                    "hash" : "0xef2c8d660e1718caf2ca56c06d064fccbd475f72fcfc9bc5b619eefad11c8a74",
                    "txbytes" : "0xf880800a83029810943e180b1862f9d158abb5e519a6d8605540c2368280a0000000000000000000000000000000000000000000000000000000000000ea601ca008b5b3467d301a46ddca211455b800fa660c1dc49dda22b73b8e692687688b27a042a372e0392954d46a44d395c94ace9e3379315c1c910b3f6c601dc0620b4329",
                    "logs" : "0x1dcc4de8dec75d7aab85b567b6ccd41ad312451b948a7413f0a142fd40d49347"
                },
                {
                    "indexes" : {
                        "data" : 1,
                        "gas" : 0,
                        "value" : 0
                    },
                    "hash" : "0x0b9a366fca8bb954334a3585d8286b7e7ca8ac872df2808ac099cd3dddf3d80d",
                    "txbytes" : "0xf880800a8301adb0943e180b1862f9d158abb5e519a6d8605540c2368201a0000000000000000000000000000000000000000000000000000000000001ea601ca0523cd1fbeb8c991c610157b7f2033b7e199fcbae3fe069ecaca55afcc2a5352aa0466960dc82c3a086e8f7567088aff10688d65036e4df9c8c8301cb1dfb5728fa",
                    "logs" : "0x1dcc4de8dec75d7aab85b567b6ccd41ad312451b948a7413f0a142fd40d49347"
                },
                {
                    "indexes" : {
                        "data" : 1,
                        "gas" : 0,
                        "value" : 1
                    },
                    "hash" : "0x0b9a366fca8bb954334a3585d8286b7e7ca8ac872df2808ac099cd3dddf3d80d",
                    "txbytes" : "0xf880800a8301adb0943e180b1862f9d158abb5e519a6d8605540c2368280a0000000000000000000000000000000000000000000000000000000000001ea601ba0f51fec31fb51356069d31ff5573774161979d8c22c4633e3a15dcb4b1d14c1ada02d3ebeae4186f0d3f5dea9d2134b33f1e7f787e27c026e898c4b3c09b6775825",
                    "logs" : "0x1dcc4de8dec75d7aab85b567b6ccd41ad312451b948a7413f0a142fd40d49347"
                },
                {
                    "indexes" : {
                        "data" : 0,
                        "gas" : 0,
                        "value" : 0
                    },
                    "hash" : "0x0b9a366fca8bb954334a3585d8286b7e7ca8ac872df2808ac099cd3dddf3d80d",
                    "txbytes" : "0xf880800a8301adb0943e180b1862f9d158abb5e519a6d8605540c2368201a0000000000000000000000000000000000000000000000000000000000000ea601ca0518c79367a18d73d4e47fbb1611e86e4f335118b81e270cc9e42bc63f4ed5fcfa017d1c19eaa017ff25d40aad9caa897b3e273392a0a872bba7eefef384a38d9a1",
                    "logs" : "0x1dcc4de8dec75d7aab85b567b6ccd41ad312451b948a7413f0a142fd40d49347"
                },
                {
                    "indexes" : {
                        "data" : 0,
                        "gas" : 0,
                        "value" : 1
                    },
                    "hash" : "0x0b9a366fca8bb954334a3585d8286b7e7ca8ac872df2808ac099cd3dddf3d80d",
                    "txbytes" : "0xf880800a8301adb0943e180b1862f9d158abb5e519a6d8605540c2368280a0000000000000000000000000000000000000000000000000000000000000ea601ba0217eb4240037e38d93f6cedce218cdf7dc22b920c2084c6a4ece1f0467b559aca031dc37042bd3190bfeb02b819f333b926cb01d8005f30a611655ec615fcc8e88",
                    "logs" : "0x1dcc4de8dec75d7aab85b567b6ccd41ad312451b948a7413f0a142fd40d49347"
                }
            ],
            "London" : [
                {
                    "indexes" : {
                        "data" : 1,
                        "gas" : 1,
                        "value" : 0
                    },
                    "hash" : "0xac0658578dfd77d89726b35f3e64027afbd8ec40e4c97620a719409a52632c85",
                    "txbytes" : "0xf880800a83029810943e180b1862f9d158abb5e519a6d8605540c2368201a0000000000000000000000000000000000000000000000000000000000001ea601ba094c27d77e39daa90983ba836bf8a5342b1cfe5a10abe9e80318076843b6c1c20a05d6fe7651dd74a6d7222e461084f722326c72a3512b462233370b520c208fa2c",
                    "logs" : "0x1dcc4de8dec75d7aab85b567b6ccd41ad312451b948a7413f0a142fd40d49347"
                },
                {
                    "indexes" : {
                        "data" : 1,
                        "gas" : 1,
                        "value" : 1
                    },
                    "hash" : "0x32205597c4d9f1c84901aa05961e83b3085d0d75239cf80d1ac3711b706f3e29",
                    "txbytes" : "0xf880800a83029810943e180b1862f9d158abb5e519a6d8605540c2368280a0000000000000000000000000000000000000000000000000000000000001ea601ca098a95b0fa1be119f9b64b30c60219414b31cee828309044064c4c8c45166dd37a00952ec4111e5ef0dd21bbadb12d8a356cd123b023a9891f0d943e56541d9cd3e",
                    "logs" : "0x1dcc4de8dec75d7aab85b567b6ccd41ad312451b948a7413f0a142fd40d49347"
                },
                {
                    "indexes" : {
                        "data" : 0,
                        "gas" : 1,
                        "value" : 0
                    },
                    "hash" : "0xa9922d3f0376ed8c4e58d3d94fadf9d554ff4bbb8f62102895655bca28f5e3f5",
                    "txbytes" : "0xf880800a83029810943e180b1862f9d158abb5e519a6d8605540c2368201a0000000000000000000000000000000000000000000000000000000000000ea601ba0f0ada45af941e3d90bb2a4730e0705c1866e62c2903487809896fb2318d5a4b1a00c3004d182aef4cd01a9ba6f35e21191f2d26a068b09faf0f859a9f1e1c37d4c",
                    "logs" : "0x1dcc4de8dec75d7aab85b567b6ccd41ad312451b948a7413f0a142fd40d49347"
                },
                {
                    "indexes" : {
                        "data" : 0,
                        "gas" : 1,
                        "value" : 1
                    },
                    "hash" : "0x05da6bf9f171a7de1c75111f2166ba46252dc48c5c363586f9dbedae5946437a",
                    "txbytes" : "0xf880800a83029810943e180b1862f9d158abb5e519a6d8605540c2368280a0000000000000000000000000000000000000000000000000000000000000ea601ca008b5b3467d301a46ddca211455b800fa660c1dc49dda22b73b8e692687688b27a042a372e0392954d46a44d395c94ace9e3379315c1c910b3f6c601dc0620b4329",
                    "logs" : "0x1dcc4de8dec75d7aab85b567b6ccd41ad312451b948a7413f0a142fd40d49347"
                },
                {
                    "indexes" : {
                        "data" : 1,
                        "gas" : 0,
                        "value" : 0
                    },
                    "hash" : "0x5e008341cd04141517c4b5568d1b50a824318f37c4a1de811fe298baf094fbf5",
                    "txbytes" : "0xf880800a8301adb0943e180b1862f9d158abb5e519a6d8605540c2368201a0000000000000000000000000000000000000000000000000000000000001ea601ca0523cd1fbeb8c991c610157b7f2033b7e199fcbae3fe069ecaca55afcc2a5352aa0466960dc82c3a086e8f7567088aff10688d65036e4df9c8c8301cb1dfb5728fa",
                    "logs" : "0x1dcc4de8dec75d7aab85b567b6ccd41ad312451b948a7413f0a142fd40d49347"
                },
                {
                    "indexes" : {
                        "data" : 1,
                        "gas" : 0,
                        "value" : 1
                    },
                    "hash" : "0x5e008341cd04141517c4b5568d1b50a824318f37c4a1de811fe298baf094fbf5",
                    "txbytes" : "0xf880800a8301adb0943e180b1862f9d158abb5e519a6d8605540c2368280a0000000000000000000000000000000000000000000000000000000000001ea601ba0f51fec31fb51356069d31ff5573774161979d8c22c4633e3a15dcb4b1d14c1ada02d3ebeae4186f0d3f5dea9d2134b33f1e7f787e27c026e898c4b3c09b6775825",
                    "logs" : "0x1dcc4de8dec75d7aab85b567b6ccd41ad312451b948a7413f0a142fd40d49347"
                },
                {
                    "indexes" : {
                        "data" : 0,
                        "gas" : 0,
                        "value" : 0
                    },
                    "hash" : "0x5e008341cd04141517c4b5568d1b50a824318f37c4a1de811fe298baf094fbf5",
                    "txbytes" : "0xf880800a8301adb0943e180b1862f9d158abb5e519a6d8605540c2368201a0000000000000000000000000000000000000000000000000000000000000ea601ca0518c79367a18d73d4e47fbb1611e86e4f335118b81e270cc9e42bc63f4ed5fcfa017d1c19eaa017ff25d40aad9caa897b3e273392a0a872bba7eefef384a38d9a1",
                    "logs" : "0x1dcc4de8dec75d7aab85b567b6ccd41ad312451b948a7413f0a142fd40d49347"
                },
                {
                    "indexes" : {
                        "data" : 0,
                        "gas" : 0,
                        "value" : 1
                    },
                    "hash" : "0x5e008341cd04141517c4b5568d1b50a824318f37c4a1de811fe298baf094fbf5",
                    "txbytes" : "0xf880800a8301adb0943e180b1862f9d158abb5e519a6d8605540c2368280a0000000000000000000000000000000000000000000000000000000000000ea601ba0217eb4240037e38d93f6cedce218cdf7dc22b920c2084c6a4ece1f0467b559aca031dc37042bd3190bfeb02b819f333b926cb01d8005f30a611655ec615fcc8e88",
                    "logs" : "0x1dcc4de8dec75d7aab85b567b6ccd41ad312451b948a7413f0a142fd40d49347"
                }
            ]
        },
        "pre" : {
            "0x3e180b1862f9d158abb5e519a6d8605540c23682" : {
                "balance" : "0x05",
                "code" : "0x60016000556000600060006000600073b000000000000000000000000000000000000000600035f1600155600c60045500",
                "nonce" : "0x36",
                "storage" : {
                }
            },
            "0xa94f5374fce5edbc8e2a8697c15331677e6ebf0b" : {
                "balance" : "0xe8d4a51000",
                "code" : "0x",
                "nonce" : "0x00",
                "storage" : {
                }
            },
            "0xb000000000000000000000000000000000000000" : {
                "balance" : "0x00",
                "code" : "0x60086002556000600060006000f550600c60035500",
                "nonce" : "0x00",
                "storage" : {
                }
            }
        },
        "transaction" : {
            "data" : [
                "0x000000000000000000000000000000000000000000000000000000000000ea60",
                "0x000000000000000000000000000000000000000000000000000000000001ea60"
            ],
            "gasPrice" : "0x0a",
            "gasLimit" : [
                "0x01adb0",
                "0x029810"
            ],
            "nonce" : "0x00",
            "secretKey" : "0x45a915e4d060149eb4365960e6a7a45f334393093061116b197e3240065ff2d8",
            "to" : "0x3e180b1862f9d158abb5e519a6d8605540c23682",
            "value" : [
                "0x01",
                "0x00"
            ]
        }
    }
}