{
    "TransactionGasHigherThanLimit2p63m1_2_Berlin" : {
        "_info" : {
            "comment" : "",
            "filling-rpc-server" : "evm version 1.10.4-unstable-966ee3ae-20210528",
            "filling-tool-version" : "retesteth-0.1.1-eip1559+commit.658fc3a8.Linux.g++",
            "lllcversion" : "Version: 0.5.14-develop.2021.5.18+commit.14c9d5de.mod.Linux.g++",
            "source" : "src/BlockchainTestsFiller/ValidBlocks/bcBlockGasLimitTest/TransactionGasHigherThanLimit2p63m1_2Filler.json",
            "sourceHash" : "9c36a2ef14438d36daa18fbae83ca0eb470dd5a6d085e86c4fdc111d35e84242"
        },
        "sealEngine" : "NoProof",
        "network" : "Berlin",
        "pre" : {
            "0xa94f5374fce5edbc8e2a8697c15331677e6ebf0b" : {
                "balance" : "0x4a723dc6b40b8a9a000000",
                "code" : "0x",
                "nonce" : "0x00",
                "storage" : {
                }
            },
            "0xaaaf5374fce5edbc8e2a8697c15331677e6ebf0b" : {
                "balance" : "0x00",
                "code" : "0x",
                "nonce" : "0x00",
                "storage" : {
                }
            }
        },
        "genesisBlockHeader" : {
            "bloom" : "0x00000000000000000000000000000000000000000000000000000000000000000000000000000000000000000000000000000000000000000000000000000000000000000000000000000000000000000000000000000000000000000000000000000000000000000000000000000000000000000000000000000000000000000000000000000000000000000000000000000000000000000000000000000000000000000000000000000000000000000000000000000000000000000000000000000000000000000000000000000000000000000000000000000000000000000000000000000000000000000000000000000000000000000000000000000000",
            "coinbase" : "0x8888f1f195afa192cfee860698584c030f4c9db1",
            "difficulty" : "0x020000",
            "extraData" : "0x42",
            "gasLimit" : "0x7fffffffffffffff",
            "gasUsed" : "0x00",
            "hash" : "0x28f2ddab5d8edf0133a1ca2c1114c69ea03047453ff660d186304a180c534e38",
            "mixHash" : "0x0000000000000000000000000000000000000000000000000000000000000000",
            "nonce" : "0x0000000000000000",
            "number" : "0x00",
            "parentHash" : "0x0000000000000000000000000000000000000000000000000000000000000000",
            "receiptTrie" : "0x56e81f171bcc55a6ff8345e692c0f86e5b48e01b996cadc001622fb5e363b421",
            "stateRoot" : "0x767083c42d099d13254c2287c98e48b8582c223795f44e04fd93083b6729d3b8",
            "timestamp" : "0x54c98c81",
            "transactionsTrie" : "0x56e81f171bcc55a6ff8345e692c0f86e5b48e01b996cadc001622fb5e363b421",
            "uncleHash" : "0x1dcc4de8dec75d7aab85b567b6ccd41ad312451b948a7413f0a142fd40d49347"
        },
        "genesisRLP" : "0xf90201f901fca00000000000000000000000000000000000000000000000000000000000000000a01dcc4de8dec75d7aab85b567b6ccd41ad312451b948a7413f0a142fd40d49347948888f1f195afa192cfee860698584c030f4c9db1a0767083c42d099d13254c2287c98e48b8582c223795f44e04fd93083b6729d3b8a056e81f171bcc55a6ff8345e692c0f86e5b48e01b996cadc001622fb5e363b421a056e81f171bcc55a6ff8345e692c0f86e5b48e01b996cadc001622fb5e363b421b90100000000000000000000000000000000000000000000000000000000000000000000000000000000000000000000000000000000000000000000000000000000000000000000000000000000000000000000000000000000000000000000000000000000000000000000000000000000000000000000000000000000000000000000000000000000000000000000000000000000000000000000000000000000000000000000000000000000000000000000000000000000000000000000000000000000000000000000000000000000000000000000000000000000000000000000000000000000000000000000000000000000000000000000000000000000008302000080887fffffffffffffff808454c98c8142a00000000000000000000000000000000000000000000000000000000000000000880000000000000000c0c0",
        "blocks" : [
            {
                "chainname" : "default",
                "blocknumber" : "1",
                "uncleHeaders" : [
                ],
                "blockHeader" : {
                    "bloom" : "0x00000000000000000000000000000000000000000000000000000000000000000000000000000000000000000000000000000000000000000000000000000000000000000000000000000000000000000000000000000000000000000000000000000000000000000000000000000000000000000000000000000000000000000000000000000000000000000000000000000000000000000000000000000000000000000000000000000000000000000000000000000000000000000000000000000000000000000000000000000000000000000000000000000000000000000000000000000000000000000000000000000000000000000000000000000000",
                    "coinbase" : "0x8888f1f195afa192cfee860698584c030f4c9db1",
                    "difficulty" : "0x020000",
                    "extraData" : "0x42",
                    "gasLimit" : "0x7fffffffffffffff",
                    "gasUsed" : "0x01ec30",
                    "hash" : "0x2189bae33436ec07321e8f0fd81a883dae3bbdf04ecb9a1d61e1e8d862d529d2",
                    "mixHash" : "0x0000000000000000000000000000000000000000000000000000000000000000",
                    "nonce" : "0x0000000000000000",
                    "number" : "0x01",
                    "parentHash" : "0x28f2ddab5d8edf0133a1ca2c1114c69ea03047453ff660d186304a180c534e38",
                    "receiptTrie" : "0x920700c34e8d1d2d631eaaff52b71c1d8a632199b7c1fad316cb836dee972a46",
                    "stateRoot" : "0x366d4fdf7ee3c8258f11409ab67bd81fece858142df5930ac60e43f95573f3a5",
                    "timestamp" : "0x54c99069",
                    "transactionsTrie" : "0xe635904c86b016dfe6afbd8cca17476a72e961edf8436db49b9408bdcee0f7bb",
                    "uncleHash" : "0x1dcc4de8dec75d7aab85b567b6ccd41ad312451b948a7413f0a142fd40d49347"
                },
                "transactions" : [
                    {
                        "data" : "0x",
                        "gasLimit" : "0x1999999999999999",
                        "gasPrice" : "0x03e8",
                        "nonce" : "0x00",
                        "r" : "0x8956111f06df323b59c3f6e0f13cae20e0971f08a9ff564f519d7c77952489b9",
                        "s" : "0x0f1e7504b08e4deb93bcf4d51c76c881fc6a80aa0dbd9297022f43ecc4cdd1cc",
                        "to" : "0xaaaf5374fce5edbc8e2a8697c15331677e6ebf0b",
                        "v" : "0x1c",
                        "value" : "0x0a"
                    },
                    {
                        "data" : "0x",
                        "gasLimit" : "0x1999999999999999",
                        "gasPrice" : "0x03e8",
                        "nonce" : "0x01",
                        "r" : "0xff77dfbe0dd9fe8ba30a6f32bea244f7147597d6ad9bad7985b3c0b7daa25f70",
                        "s" : "0x111584c4e93b74e2180c4afb2f67d545eb4ff09ac160d8704e2361aee9aa22fc",
                        "to" : "0xaaaf5374fce5edbc8e2a8697c15331677e6ebf0b",
                        "v" : "0x1b",
                        "value" : "0x0a"
                    },
                    {
                        "data" : "0x",
                        "gasLimit" : "0x1999999999999999",
                        "gasPrice" : "0x03e8",
                        "nonce" : "0x02",
                        "r" : "0xacf38f1819e3cde57ae3c30c69b5d9d9966dbe057d5a774029e5633827fb8b0f",
                        "s" : "0xb1fad558ce2da5b030787cf658249b44a1ac20a5860c61049b3eb4cb47c786",
                        "to" : "0xaaaf5374fce5edbc8e2a8697c15331677e6ebf0b",
                        "v" : "0x1b",
                        "value" : "0x0a"
                    },
                    {
                        "data" : "0x",
                        "gasLimit" : "0x1999999999999999",
                        "gasPrice" : "0x03e8",
                        "nonce" : "0x03",
                        "r" : "0xd34d8f7f3eece3c61c5f40d338306d40a09ff2ba8ac79f2a522229c2150e294d",
                        "s" : "0x6e0144aea16ff6a86a647bc0ea9fc7d33d8f16548a3600b6cecc7bba59628428",
                        "to" : "0xaaaf5374fce5edbc8e2a8697c15331677e6ebf0b",
                        "v" : "0x1c",
                        "value" : "0x0a"
                    },
                    {
                        "data" : "0x",
                        "gasLimit" : "0x1999999999999999",
                        "gasPrice" : "0x03e8",
                        "nonce" : "0x04",
                        "r" : "0xf58a4c7c9cafe24891ae8c16f6e80bec813e1dfa1e663e80ad9df116b1479f7e",
                        "s" : "0x05489de5b6775e28344623d527ee734090e3901ad64927ef0e7601fcad73929d",
                        "to" : "0xaaaf5374fce5edbc8e2a8697c15331677e6ebf0b",
                        "v" : "0x1b",
                        "value" : "0x0a"
                    },
                    {
                        "data" : "0x",
                        "gasLimit" : "0x5208",
                        "gasPrice" : "0x03e8",
                        "nonce" : "0x05",
                        "r" : "0xfddae6ee2a489ba7e3dee84b5e902534b521932ba7d1d8d92bae92f281b9e04a",
                        "s" : "0x2d80fce6d912659ecf1c94c8633a3db4b28c1baa3be9d6f18763bfe25dbffb01",
                        "to" : "0xaaaf5374fce5edbc8e2a8697c15331677e6ebf0b",
                        "v" : "0x1b",
                        "value" : "0x0a"
                    }
                ],
                "rlp" : "0xf90475f901ffa028f2ddab5d8edf0133a1ca2c1114c69ea03047453ff660d186304a180c534e38a01dcc4de8dec75d7aab85b567b6ccd41ad312451b948a7413f0a142fd40d49347948888f1f195afa192cfee860698584c030f4c9db1a0366d4fdf7ee3c8258f11409ab67bd81fece858142df5930ac60e43f95573f3a5a0e635904c86b016dfe6afbd8cca17476a72e961edf8436db49b9408bdcee0f7bba0920700c34e8d1d2d631eaaff52b71c1d8a632199b7c1fad316cb836dee972a46b90100000000000000000000000000000000000000000000000000000000000000000000000000000000000000000000000000000000000000000000000000000000000000000000000000000000000000000000000000000000000000000000000000000000000000000000000000000000000000000000000000000000000000000000000000000000000000000000000000000000000000000000000000000000000000000000000000000000000000000000000000000000000000000000000000000000000000000000000000000000000000000000000000000000000000000000000000000000000000000000000000000000000000000000000000000000008302000001887fffffffffffffff8301ec308454c9906942a00000000000000000000000000000000000000000000000000000000000000000880000000000000000f9026ff867808203e888199999999999999994aaaf5374fce5edbc8e2a8697c15331677e6ebf0b0a801ca08956111f06df323b59c3f6e0f13cae20e0971f08a9ff564f519d7c77952489b9a00f1e7504b08e4deb93bcf4d51c76c881fc6a80aa0dbd9297022f43ecc4cdd1ccf867018203e888199999999999999994aaaf5374fce5edbc8e2a8697c15331677e6ebf0b0a801ba0ff77dfbe0dd9fe8ba30a6f32bea244f7147597d6ad9bad7985b3c0b7daa25f70a0111584c4e93b74e2180c4afb2f67d545eb4ff09ac160d8704e2361aee9aa22fcf866028203e888199999999999999994aaaf5374fce5edbc8e2a8697c15331677e6ebf0b0a801ba0acf38f1819e3cde57ae3c30c69b5d9d9966dbe057d5a774029e5633827fb8b0f9fb1fad558ce2da5b030787cf658249b44a1ac20a5860c61049b3eb4cb47c786f867038203e888199999999999999994aaaf5374fce5edbc8e2a8697c15331677e6ebf0b0a801ca0d34d8f7f3eece3c61c5f40d338306d40a09ff2ba8ac79f2a522229c2150e294da06e0144aea16ff6a86a647bc0ea9fc7d33d8f16548a3600b6cecc7bba59628428f867048203e888199999999999999994aaaf5374fce5edbc8e2a8697c15331677e6ebf0b0a801ba0f58a4c7c9cafe24891ae8c16f6e80bec813e1dfa1e663e80ad9df116b1479f7ea005489de5b6775e28344623d527ee734090e3901ad64927ef0e7601fcad73929df861058203e882520894aaaf5374fce5edbc8e2a8697c15331677e6ebf0b0a801ba0fddae6ee2a489ba7e3dee84b5e902534b521932ba7d1d8d92bae92f281b9e04aa02d80fce6d912659ecf1c94c8633a3db4b28c1baa3be9d6f18763bfe25dbffb01c0"
            }
        ],
        "postState" : {
            "0x8888f1f195afa192cfee860698584c030f4c9db1" : {
                "code" : "0x",
                "nonce" : "0x00",
                "balance" : "0x1bc16d67564a9b80",
                "storage" : {
                }
            },
            "0xa94f5374fce5edbc8e2a8697c15331677e6ebf0b" : {
                "code" : "0x",
                "nonce" : "0x06",
                "balance" : "0x4a723dc6b40b8a927d6444",
                "storage" : {
                }
            },
            "0xaaaf5374fce5edbc8e2a8697c15331677e6ebf0b" : {
                "code" : "0x",
                "nonce" : "0x00",
                "balance" : "0x3c",
                "storage" : {
                }
            }
        },
        "lastblockhash" : "0x2189bae33436ec07321e8f0fd81a883dae3bbdf04ecb9a1d61e1e8d862d529d2"
    },
    "TransactionGasHigherThanLimit2p63m1_2_Istanbul" : {
        "_info" : {
            "comment" : "",
            "filling-rpc-server" : "evm version 1.10.4-unstable-966ee3ae-20210528",
            "filling-tool-version" : "retesteth-0.1.1-eip1559+commit.658fc3a8.Linux.g++",
            "lllcversion" : "Version: 0.5.14-develop.2021.5.18+commit.14c9d5de.mod.Linux.g++",
            "source" : "src/BlockchainTestsFiller/ValidBlocks/bcBlockGasLimitTest/TransactionGasHigherThanLimit2p63m1_2Filler.json",
            "sourceHash" : "9c36a2ef14438d36daa18fbae83ca0eb470dd5a6d085e86c4fdc111d35e84242"
        },
        "sealEngine" : "NoProof",
        "network" : "Istanbul",
        "pre" : {
            "0xa94f5374fce5edbc8e2a8697c15331677e6ebf0b" : {
                "balance" : "0x4a723dc6b40b8a9a000000",
                "code" : "0x",
                "nonce" : "0x00",
                "storage" : {
                }
            },
            "0xaaaf5374fce5edbc8e2a8697c15331677e6ebf0b" : {
                "balance" : "0x00",
                "code" : "0x",
                "nonce" : "0x00",
                "storage" : {
                }
            }
        },
        "genesisBlockHeader" : {
            "bloom" : "0x00000000000000000000000000000000000000000000000000000000000000000000000000000000000000000000000000000000000000000000000000000000000000000000000000000000000000000000000000000000000000000000000000000000000000000000000000000000000000000000000000000000000000000000000000000000000000000000000000000000000000000000000000000000000000000000000000000000000000000000000000000000000000000000000000000000000000000000000000000000000000000000000000000000000000000000000000000000000000000000000000000000000000000000000000000000",
            "coinbase" : "0x8888f1f195afa192cfee860698584c030f4c9db1",
            "difficulty" : "0x020000",
            "extraData" : "0x42",
            "gasLimit" : "0x7fffffffffffffff",
            "gasUsed" : "0x00",
            "hash" : "0x28f2ddab5d8edf0133a1ca2c1114c69ea03047453ff660d186304a180c534e38",
            "mixHash" : "0x0000000000000000000000000000000000000000000000000000000000000000",
            "nonce" : "0x0000000000000000",
            "number" : "0x00",
            "parentHash" : "0x0000000000000000000000000000000000000000000000000000000000000000",
            "receiptTrie" : "0x56e81f171bcc55a6ff8345e692c0f86e5b48e01b996cadc001622fb5e363b421",
            "stateRoot" : "0x767083c42d099d13254c2287c98e48b8582c223795f44e04fd93083b6729d3b8",
            "timestamp" : "0x54c98c81",
            "transactionsTrie" : "0x56e81f171bcc55a6ff8345e692c0f86e5b48e01b996cadc001622fb5e363b421",
            "uncleHash" : "0x1dcc4de8dec75d7aab85b567b6ccd41ad312451b948a7413f0a142fd40d49347"
        },
        "genesisRLP" : "0xf90201f901fca00000000000000000000000000000000000000000000000000000000000000000a01dcc4de8dec75d7aab85b567b6ccd41ad312451b948a7413f0a142fd40d49347948888f1f195afa192cfee860698584c030f4c9db1a0767083c42d099d13254c2287c98e48b8582c223795f44e04fd93083b6729d3b8a056e81f171bcc55a6ff8345e692c0f86e5b48e01b996cadc001622fb5e363b421a056e81f171bcc55a6ff8345e692c0f86e5b48e01b996cadc001622fb5e363b421b90100000000000000000000000000000000000000000000000000000000000000000000000000000000000000000000000000000000000000000000000000000000000000000000000000000000000000000000000000000000000000000000000000000000000000000000000000000000000000000000000000000000000000000000000000000000000000000000000000000000000000000000000000000000000000000000000000000000000000000000000000000000000000000000000000000000000000000000000000000000000000000000000000000000000000000000000000000000000000000000000000000000000000000000000000000000008302000080887fffffffffffffff808454c98c8142a00000000000000000000000000000000000000000000000000000000000000000880000000000000000c0c0",
        "blocks" : [
            {
                "chainname" : "default",
                "blocknumber" : "1",
                "uncleHeaders" : [
                ],
                "blockHeader" : {
                    "bloom" : "0x00000000000000000000000000000000000000000000000000000000000000000000000000000000000000000000000000000000000000000000000000000000000000000000000000000000000000000000000000000000000000000000000000000000000000000000000000000000000000000000000000000000000000000000000000000000000000000000000000000000000000000000000000000000000000000000000000000000000000000000000000000000000000000000000000000000000000000000000000000000000000000000000000000000000000000000000000000000000000000000000000000000000000000000000000000000",
                    "coinbase" : "0x8888f1f195afa192cfee860698584c030f4c9db1",
                    "difficulty" : "0x020000",
                    "extraData" : "0x42",
                    "gasLimit" : "0x7fffffffffffffff",
                    "gasUsed" : "0x01ec30",
                    "hash" : "0x2189bae33436ec07321e8f0fd81a883dae3bbdf04ecb9a1d61e1e8d862d529d2",
                    "mixHash" : "0x0000000000000000000000000000000000000000000000000000000000000000",
                    "nonce" : "0x0000000000000000",
                    "number" : "0x01",
                    "parentHash" : "0x28f2ddab5d8edf0133a1ca2c1114c69ea03047453ff660d186304a180c534e38",
                    "receiptTrie" : "0x920700c34e8d1d2d631eaaff52b71c1d8a632199b7c1fad316cb836dee972a46",
                    "stateRoot" : "0x366d4fdf7ee3c8258f11409ab67bd81fece858142df5930ac60e43f95573f3a5",
                    "timestamp" : "0x54c99069",
                    "transactionsTrie" : "0xe635904c86b016dfe6afbd8cca17476a72e961edf8436db49b9408bdcee0f7bb",
                    "uncleHash" : "0x1dcc4de8dec75d7aab85b567b6ccd41ad312451b948a7413f0a142fd40d49347"
                },
                "transactions" : [
                    {
                        "data" : "0x",
                        "gasLimit" : "0x1999999999999999",
                        "gasPrice" : "0x03e8",
                        "nonce" : "0x00",
                        "r" : "0x8956111f06df323b59c3f6e0f13cae20e0971f08a9ff564f519d7c77952489b9",
                        "s" : "0x0f1e7504b08e4deb93bcf4d51c76c881fc6a80aa0dbd9297022f43ecc4cdd1cc",
                        "to" : "0xaaaf5374fce5edbc8e2a8697c15331677e6ebf0b",
                        "v" : "0x1c",
                        "value" : "0x0a"
                    },
                    {
                        "data" : "0x",
                        "gasLimit" : "0x1999999999999999",
                        "gasPrice" : "0x03e8",
                        "nonce" : "0x01",
                        "r" : "0xff77dfbe0dd9fe8ba30a6f32bea244f7147597d6ad9bad7985b3c0b7daa25f70",
                        "s" : "0x111584c4e93b74e2180c4afb2f67d545eb4ff09ac160d8704e2361aee9aa22fc",
                        "to" : "0xaaaf5374fce5edbc8e2a8697c15331677e6ebf0b",
                        "v" : "0x1b",
                        "value" : "0x0a"
                    },
                    {
                        "data" : "0x",
                        "gasLimit" : "0x1999999999999999",
                        "gasPrice" : "0x03e8",
                        "nonce" : "0x02",
                        "r" : "0xacf38f1819e3cde57ae3c30c69b5d9d9966dbe057d5a774029e5633827fb8b0f",
                        "s" : "0xb1fad558ce2da5b030787cf658249b44a1ac20a5860c61049b3eb4cb47c786",
                        "to" : "0xaaaf5374fce5edbc8e2a8697c15331677e6ebf0b",
                        "v" : "0x1b",
                        "value" : "0x0a"
                    },
                    {
                        "data" : "0x",
                        "gasLimit" : "0x1999999999999999",
                        "gasPrice" : "0x03e8",
                        "nonce" : "0x03",
                        "r" : "0xd34d8f7f3eece3c61c5f40d338306d40a09ff2ba8ac79f2a522229c2150e294d",
                        "s" : "0x6e0144aea16ff6a86a647bc0ea9fc7d33d8f16548a3600b6cecc7bba59628428",
                        "to" : "0xaaaf5374fce5edbc8e2a8697c15331677e6ebf0b",
                        "v" : "0x1c",
                        "value" : "0x0a"
                    },
                    {
                        "data" : "0x",
                        "gasLimit" : "0x1999999999999999",
                        "gasPrice" : "0x03e8",
                        "nonce" : "0x04",
                        "r" : "0xf58a4c7c9cafe24891ae8c16f6e80bec813e1dfa1e663e80ad9df116b1479f7e",
                        "s" : "0x05489de5b6775e28344623d527ee734090e3901ad64927ef0e7601fcad73929d",
                        "to" : "0xaaaf5374fce5edbc8e2a8697c15331677e6ebf0b",
                        "v" : "0x1b",
                        "value" : "0x0a"
                    },
                    {
                        "data" : "0x",
                        "gasLimit" : "0x5208",
                        "gasPrice" : "0x03e8",
                        "nonce" : "0x05",
                        "r" : "0xfddae6ee2a489ba7e3dee84b5e902534b521932ba7d1d8d92bae92f281b9e04a",
                        "s" : "0x2d80fce6d912659ecf1c94c8633a3db4b28c1baa3be9d6f18763bfe25dbffb01",
                        "to" : "0xaaaf5374fce5edbc8e2a8697c15331677e6ebf0b",
                        "v" : "0x1b",
                        "value" : "0x0a"
                    }
                ],
                "rlp" : "0xf90475f901ffa028f2ddab5d8edf0133a1ca2c1114c69ea03047453ff660d186304a180c534e38a01dcc4de8dec75d7aab85b567b6ccd41ad312451b948a7413f0a142fd40d49347948888f1f195afa192cfee860698584c030f4c9db1a0366d4fdf7ee3c8258f11409ab67bd81fece858142df5930ac60e43f95573f3a5a0e635904c86b016dfe6afbd8cca17476a72e961edf8436db49b9408bdcee0f7bba0920700c34e8d1d2d631eaaff52b71c1d8a632199b7c1fad316cb836dee972a46b90100000000000000000000000000000000000000000000000000000000000000000000000000000000000000000000000000000000000000000000000000000000000000000000000000000000000000000000000000000000000000000000000000000000000000000000000000000000000000000000000000000000000000000000000000000000000000000000000000000000000000000000000000000000000000000000000000000000000000000000000000000000000000000000000000000000000000000000000000000000000000000000000000000000000000000000000000000000000000000000000000000000000000000000000000000000008302000001887fffffffffffffff8301ec308454c9906942a00000000000000000000000000000000000000000000000000000000000000000880000000000000000f9026ff867808203e888199999999999999994aaaf5374fce5edbc8e2a8697c15331677e6ebf0b0a801ca08956111f06df323b59c3f6e0f13cae20e0971f08a9ff564f519d7c77952489b9a00f1e7504b08e4deb93bcf4d51c76c881fc6a80aa0dbd9297022f43ecc4cdd1ccf867018203e888199999999999999994aaaf5374fce5edbc8e2a8697c15331677e6ebf0b0a801ba0ff77dfbe0dd9fe8ba30a6f32bea244f7147597d6ad9bad7985b3c0b7daa25f70a0111584c4e93b74e2180c4afb2f67d545eb4ff09ac160d8704e2361aee9aa22fcf866028203e888199999999999999994aaaf5374fce5edbc8e2a8697c15331677e6ebf0b0a801ba0acf38f1819e3cde57ae3c30c69b5d9d9966dbe057d5a774029e5633827fb8b0f9fb1fad558ce2da5b030787cf658249b44a1ac20a5860c61049b3eb4cb47c786f867038203e888199999999999999994aaaf5374fce5edbc8e2a8697c15331677e6ebf0b0a801ca0d34d8f7f3eece3c61c5f40d338306d40a09ff2ba8ac79f2a522229c2150e294da06e0144aea16ff6a86a647bc0ea9fc7d33d8f16548a3600b6cecc7bba59628428f867048203e888199999999999999994aaaf5374fce5edbc8e2a8697c15331677e6ebf0b0a801ba0f58a4c7c9cafe24891ae8c16f6e80bec813e1dfa1e663e80ad9df116b1479f7ea005489de5b6775e28344623d527ee734090e3901ad64927ef0e7601fcad73929df861058203e882520894aaaf5374fce5edbc8e2a8697c15331677e6ebf0b0a801ba0fddae6ee2a489ba7e3dee84b5e902534b521932ba7d1d8d92bae92f281b9e04aa02d80fce6d912659ecf1c94c8633a3db4b28c1baa3be9d6f18763bfe25dbffb01c0"
            }
        ],
        "postState" : {
            "0x8888f1f195afa192cfee860698584c030f4c9db1" : {
                "code" : "0x",
                "nonce" : "0x00",
                "balance" : "0x1bc16d67564a9b80",
                "storage" : {
                }
            },
            "0xa94f5374fce5edbc8e2a8697c15331677e6ebf0b" : {
                "code" : "0x",
                "nonce" : "0x06",
                "balance" : "0x4a723dc6b40b8a927d6444",
                "storage" : {
                }
            },
            "0xaaaf5374fce5edbc8e2a8697c15331677e6ebf0b" : {
                "code" : "0x",
                "nonce" : "0x00",
                "balance" : "0x3c",
                "storage" : {
                }
            }
        },
        "lastblockhash" : "0x2189bae33436ec07321e8f0fd81a883dae3bbdf04ecb9a1d61e1e8d862d529d2"
    },
    "TransactionGasHigherThanLimit2p63m1_2_London" : {
        "_info" : {
            "comment" : "",
            "filling-rpc-server" : "evm version 1.10.4-unstable-966ee3ae-20210528",
            "filling-tool-version" : "retesteth-0.1.1-eip1559+commit.658fc3a8.Linux.g++",
            "lllcversion" : "Version: 0.5.14-develop.2021.5.18+commit.14c9d5de.mod.Linux.g++",
            "source" : "src/BlockchainTestsFiller/ValidBlocks/bcBlockGasLimitTest/TransactionGasHigherThanLimit2p63m1_2Filler.json",
            "sourceHash" : "9c36a2ef14438d36daa18fbae83ca0eb470dd5a6d085e86c4fdc111d35e84242"
        },
        "sealEngine" : "NoProof",
        "network" : "London",
        "pre" : {
            "0xa94f5374fce5edbc8e2a8697c15331677e6ebf0b" : {
                "balance" : "0x4a723dc6b40b8a9a000000",
                "code" : "0x",
                "nonce" : "0x00",
                "storage" : {
                }
            },
            "0xaaaf5374fce5edbc8e2a8697c15331677e6ebf0b" : {
                "balance" : "0x00",
                "code" : "0x",
                "nonce" : "0x00",
                "storage" : {
                }
            }
        },
        "genesisBlockHeader" : {
            "bloom" : "0x00000000000000000000000000000000000000000000000000000000000000000000000000000000000000000000000000000000000000000000000000000000000000000000000000000000000000000000000000000000000000000000000000000000000000000000000000000000000000000000000000000000000000000000000000000000000000000000000000000000000000000000000000000000000000000000000000000000000000000000000000000000000000000000000000000000000000000000000000000000000000000000000000000000000000000000000000000000000000000000000000000000000000000000000000000000",
            "coinbase" : "0x8888f1f195afa192cfee860698584c030f4c9db1",
            "difficulty" : "0x020000",
            "extraData" : "0x42",
            "gasLimit" : "0x7fffffffffffffff",
            "gasUsed" : "0x00",
            "hash" : "0xef2e504cf630cee6a2dc9005096c1b069c480e94d0e7ba0ef0b5265ab63d5ddb",
            "mixHash" : "0x0000000000000000000000000000000000000000000000000000000000000000",
            "nonce" : "0x0000000000000000",
            "number" : "0x00",
            "parentHash" : "0x0000000000000000000000000000000000000000000000000000000000000000",
            "receiptTrie" : "0x56e81f171bcc55a6ff8345e692c0f86e5b48e01b996cadc001622fb5e363b421",
            "stateRoot" : "0x767083c42d099d13254c2287c98e48b8582c223795f44e04fd93083b6729d3b8",
            "timestamp" : "0x54c98c81",
            "transactionsTrie" : "0x56e81f171bcc55a6ff8345e692c0f86e5b48e01b996cadc001622fb5e363b421",
            "uncleHash" : "0x1dcc4de8dec75d7aab85b567b6ccd41ad312451b948a7413f0a142fd40d49347",
            "baseFee" : "0x10"
        },
        "genesisRLP" : "0xf90202f901fda00000000000000000000000000000000000000000000000000000000000000000a01dcc4de8dec75d7aab85b567b6ccd41ad312451b948a7413f0a142fd40d49347948888f1f195afa192cfee860698584c030f4c9db1a0767083c42d099d13254c2287c98e48b8582c223795f44e04fd93083b6729d3b8a056e81f171bcc55a6ff8345e692c0f86e5b48e01b996cadc001622fb5e363b421a056e81f171bcc55a6ff8345e692c0f86e5b48e01b996cadc001622fb5e363b421b90100000000000000000000000000000000000000000000000000000000000000000000000000000000000000000000000000000000000000000000000000000000000000000000000000000000000000000000000000000000000000000000000000000000000000000000000000000000000000000000000000000000000000000000000000000000000000000000000000000000000000000000000000000000000000000000000000000000000000000000000000000000000000000000000000000000000000000000000000000000000000000000000000000000000000000000000000000000000000000000000000000000000000000000000000000000008302000080887fffffffffffffff808454c98c8142a0000000000000000000000000000000000000000000000000000000000000000088000000000000000010c0c0",
        "blocks" : [
            {
                "chainname" : "default",
                "blocknumber" : "1",
                "uncleHeaders" : [
                ],
                "blockHeader" : {
                    "bloom" : "0x00000000000000000000000000000000000000000000000000000000000000000000000000000000000000000000000000000000000000000000000000000000000000000000000000000000000000000000000000000000000000000000000000000000000000000000000000000000000000000000000000000000000000000000000000000000000000000000000000000000000000000000000000000000000000000000000000000000000000000000000000000000000000000000000000000000000000000000000000000000000000000000000000000000000000000000000000000000000000000000000000000000000000000000000000000000",
                    "coinbase" : "0x8888f1f195afa192cfee860698584c030f4c9db1",
                    "difficulty" : "0x020000",
                    "extraData" : "0x42",
                    "gasLimit" : "0x7fffffffffffffff",
                    "gasUsed" : "0x01ec30",
                    "hash" : "0xa805009e83fa835b8cf28de9f0ecbbbff5c9dd05d918f6cf8e920fd6eb6cfc4a",
                    "mixHash" : "0x0000000000000000000000000000000000000000000000000000000000000000",
                    "nonce" : "0x0000000000000000",
                    "number" : "0x01",
                    "parentHash" : "0xef2e504cf630cee6a2dc9005096c1b069c480e94d0e7ba0ef0b5265ab63d5ddb",
                    "receiptTrie" : "0x920700c34e8d1d2d631eaaff52b71c1d8a632199b7c1fad316cb836dee972a46",
                    "stateRoot" : "0x683481891be17d68d81d03e134fe9d1a634385ac6efaa2b9aeb7b923a6d418b0",
                    "timestamp" : "0x54c99069",
                    "transactionsTrie" : "0xe635904c86b016dfe6afbd8cca17476a72e961edf8436db49b9408bdcee0f7bb",
                    "uncleHash" : "0x1dcc4de8dec75d7aab85b567b6ccd41ad312451b948a7413f0a142fd40d49347",
                    "baseFee" : "0x0e"
                },
                "transactions" : [
                    {
                        "data" : "0x",
                        "gasLimit" : "0x1999999999999999",
                        "gasPrice" : "0x03e8",
                        "nonce" : "0x00",
                        "r" : "0x8956111f06df323b59c3f6e0f13cae20e0971f08a9ff564f519d7c77952489b9",
                        "s" : "0x0f1e7504b08e4deb93bcf4d51c76c881fc6a80aa0dbd9297022f43ecc4cdd1cc",
                        "to" : "0xaaaf5374fce5edbc8e2a8697c15331677e6ebf0b",
                        "v" : "0x1c",
                        "value" : "0x0a"
                    },
                    {
                        "data" : "0x",
                        "gasLimit" : "0x1999999999999999",
                        "gasPrice" : "0x03e8",
                        "nonce" : "0x01",
                        "r" : "0xff77dfbe0dd9fe8ba30a6f32bea244f7147597d6ad9bad7985b3c0b7daa25f70",
                        "s" : "0x111584c4e93b74e2180c4afb2f67d545eb4ff09ac160d8704e2361aee9aa22fc",
                        "to" : "0xaaaf5374fce5edbc8e2a8697c15331677e6ebf0b",
                        "v" : "0x1b",
                        "value" : "0x0a"
                    },
                    {
                        "data" : "0x",
                        "gasLimit" : "0x1999999999999999",
                        "gasPrice" : "0x03e8",
                        "nonce" : "0x02",
                        "r" : "0xacf38f1819e3cde57ae3c30c69b5d9d9966dbe057d5a774029e5633827fb8b0f",
                        "s" : "0xb1fad558ce2da5b030787cf658249b44a1ac20a5860c61049b3eb4cb47c786",
                        "to" : "0xaaaf5374fce5edbc8e2a8697c15331677e6ebf0b",
                        "v" : "0x1b",
                        "value" : "0x0a"
                    },
                    {
                        "data" : "0x",
                        "gasLimit" : "0x1999999999999999",
                        "gasPrice" : "0x03e8",
                        "nonce" : "0x03",
                        "r" : "0xd34d8f7f3eece3c61c5f40d338306d40a09ff2ba8ac79f2a522229c2150e294d",
                        "s" : "0x6e0144aea16ff6a86a647bc0ea9fc7d33d8f16548a3600b6cecc7bba59628428",
                        "to" : "0xaaaf5374fce5edbc8e2a8697c15331677e6ebf0b",
                        "v" : "0x1c",
                        "value" : "0x0a"
                    },
                    {
                        "data" : "0x",
                        "gasLimit" : "0x1999999999999999",
                        "gasPrice" : "0x03e8",
                        "nonce" : "0x04",
                        "r" : "0xf58a4c7c9cafe24891ae8c16f6e80bec813e1dfa1e663e80ad9df116b1479f7e",
                        "s" : "0x05489de5b6775e28344623d527ee734090e3901ad64927ef0e7601fcad73929d",
                        "to" : "0xaaaf5374fce5edbc8e2a8697c15331677e6ebf0b",
                        "v" : "0x1b",
                        "value" : "0x0a"
                    },
                    {
                        "data" : "0x",
                        "gasLimit" : "0x5208",
                        "gasPrice" : "0x03e8",
                        "nonce" : "0x05",
                        "r" : "0xfddae6ee2a489ba7e3dee84b5e902534b521932ba7d1d8d92bae92f281b9e04a",
                        "s" : "0x2d80fce6d912659ecf1c94c8633a3db4b28c1baa3be9d6f18763bfe25dbffb01",
                        "to" : "0xaaaf5374fce5edbc8e2a8697c15331677e6ebf0b",
                        "v" : "0x1b",
                        "value" : "0x0a"
                    }
                ],
                "rlp" : "0xf90476f90200a0ef2e504cf630cee6a2dc9005096c1b069c480e94d0e7ba0ef0b5265ab63d5ddba01dcc4de8dec75d7aab85b567b6ccd41ad312451b948a7413f0a142fd40d49347948888f1f195afa192cfee860698584c030f4c9db1a0683481891be17d68d81d03e134fe9d1a634385ac6efaa2b9aeb7b923a6d418b0a0e635904c86b016dfe6afbd8cca17476a72e961edf8436db49b9408bdcee0f7bba0920700c34e8d1d2d631eaaff52b71c1d8a632199b7c1fad316cb836dee972a46b90100000000000000000000000000000000000000000000000000000000000000000000000000000000000000000000000000000000000000000000000000000000000000000000000000000000000000000000000000000000000000000000000000000000000000000000000000000000000000000000000000000000000000000000000000000000000000000000000000000000000000000000000000000000000000000000000000000000000000000000000000000000000000000000000000000000000000000000000000000000000000000000000000000000000000000000000000000000000000000000000000000000000000000000000000000000008302000001887fffffffffffffff8301ec308454c9906942a000000000000000000000000000000000000000000000000000000000000000008800000000000000000ef9026ff867808203e888199999999999999994aaaf5374fce5edbc8e2a8697c15331677e6ebf0b0a801ca08956111f06df323b59c3f6e0f13cae20e0971f08a9ff564f519d7c77952489b9a00f1e7504b08e4deb93bcf4d51c76c881fc6a80aa0dbd9297022f43ecc4cdd1ccf867018203e888199999999999999994aaaf5374fce5edbc8e2a8697c15331677e6ebf0b0a801ba0ff77dfbe0dd9fe8ba30a6f32bea244f7147597d6ad9bad7985b3c0b7daa25f70a0111584c4e93b74e2180c4afb2f67d545eb4ff09ac160d8704e2361aee9aa22fcf866028203e888199999999999999994aaaf5374fce5edbc8e2a8697c15331677e6ebf0b0a801ba0acf38f1819e3cde57ae3c30c69b5d9d9966dbe057d5a774029e5633827fb8b0f9fb1fad558ce2da5b030787cf658249b44a1ac20a5860c61049b3eb4cb47c786f867038203e888199999999999999994aaaf5374fce5edbc8e2a8697c15331677e6ebf0b0a801ca0d34d8f7f3eece3c61c5f40d338306d40a09ff2ba8ac79f2a522229c2150e294da06e0144aea16ff6a86a647bc0ea9fc7d33d8f16548a3600b6cecc7bba59628428f867048203e888199999999999999994aaaf5374fce5edbc8e2a8697c15331677e6ebf0b0a801ba0f58a4c7c9cafe24891ae8c16f6e80bec813e1dfa1e663e80ad9df116b1479f7ea005489de5b6775e28344623d527ee734090e3901ad64927ef0e7601fcad73929df861058203e882520894aaaf5374fce5edbc8e2a8697c15331677e6ebf0b0a801ba0fddae6ee2a489ba7e3dee84b5e902534b521932ba7d1d8d92bae92f281b9e04aa02d80fce6d912659ecf1c94c8633a3db4b28c1baa3be9d6f18763bfe25dbffb01c0"
            }
        ],
        "postState" : {
            "0x8888f1f195afa192cfee860698584c030f4c9db1" : {
                "code" : "0x",
                "nonce" : "0x00",
                "balance" : "0x1bc16d67562fb0e0",
                "storage" : {
                }
            },
            "0xa94f5374fce5edbc8e2a8697c15331677e6ebf0b" : {
                "code" : "0x",
                "nonce" : "0x06",
                "balance" : "0x4a723dc6b40b8a927d6444",
                "storage" : {
                }
            },
            "0xaaaf5374fce5edbc8e2a8697c15331677e6ebf0b" : {
                "code" : "0x",
                "nonce" : "0x00",
                "balance" : "0x3c",
                "storage" : {
                }
            }
        },
        "lastblockhash" : "0xa805009e83fa835b8cf28de9f0ecbbbff5c9dd05d918f6cf8e920fd6eb6cfc4a"
    }
}