{
    "log4_MaxTopic" : {
        "_info" : {
            "comment" : "",
            "filling-rpc-server" : "evm version 1.10.4-unstable-966ee3ae-20210528",
            "filling-tool-version" : "retesteth-0.1.1-eip1559+commit.658fc3a8.Linux.g++",
            "lllcversion" : "Version: 0.5.14-develop.2021.5.18+commit.14c9d5de.mod.Linux.g++",
            "source" : "src/GeneralStateTestsFiller/stLogTests/log4_MaxTopicFiller.json",
            "sourceHash" : "9552dec7db43af7565b6c88813ae6307d33a39df061c23a79d8976bc34a65d3f"
        },
        "env" : {
            "currentCoinbase" : "0x2adc25665018aa1fe0e6bc666dac8fc2697ff9ba",
            "currentDifficulty" : "0x020000",
            "currentNumber" : "0x01",
            "currentTimestamp" : "0x03e8",
            "previousHash" : "0x5e20a0453cecd065ea59c37ac63e079ee08998b6045136a8ce6635c7912ec0b6",
            "currentGasLimit" : "0x0f4240"
        },
        "post" : {
            "Berlin" : [
                {
                    "indexes" : {
                        "data" : 0,
                        "gas" : 0,
                        "value" : 0
                    },
                    "hash" : "0x56f3a520d3353a4382ea2300b4e06a4ec867b4e5c4316c908d895dc471eada04",
                    "txbytes" : "0xf863800a8303345094095e7baea6a6c7c4c2dfeb977efac326af552d87830186a0801ba0d7f12f33fd6ed868181c442fa795b825833472c08304ba8076c99e361277a1cea00754e3b3f79c4ac1554e25989ea8422b5dde0a09c4ff362ad4086d3f3a7d63cf",
                    "logs" : "0xef71a715e664cf4bfc47d7cc5c7b32a046c0092570e8048742f60fe3232b168a"
                }
            ],
            "Istanbul" : [
                {
                    "indexes" : {
                        "data" : 0,
                        "gas" : 0,
                        "value" : 0
                    },
                    "hash" : "0x211a1a3b4d0ef74960f2cbda9c3000d520cfa98f4d79ccdcff730ad0ab8b8b15",
                    "txbytes" : "0xf863800a8303345094095e7baea6a6c7c4c2dfeb977efac326af552d87830186a0801ba0d7f12f33fd6ed868181c442fa795b825833472c08304ba8076c99e361277a1cea00754e3b3f79c4ac1554e25989ea8422b5dde0a09c4ff362ad4086d3f3a7d63cf",
                    "logs" : "0xef71a715e664cf4bfc47d7cc5c7b32a046c0092570e8048742f60fe3232b168a"
                }
            ],
            "London" : [
                {
                    "indexes" : {
                        "data" : 0,
                        "gas" : 0,
                        "value" : 0
                    },
                    "hash" : "0x04aea4fb366e8c447a03bd3c3d5c422c3ebef08f5d1e625de4ae20dc63dc486e",
                    "txbytes" : "0xf863800a8303345094095e7baea6a6c7c4c2dfeb977efac326af552d87830186a0801ba0d7f12f33fd6ed868181c442fa795b825833472c08304ba8076c99e361277a1cea00754e3b3f79c4ac1554e25989ea8422b5dde0a09c4ff362ad4086d3f3a7d63cf",
                    "logs" : "0xef71a715e664cf4bfc47d7cc5c7b32a046c0092570e8048742f60fe3232b168a"
                }
            ]
        },
        "pre" : {
            "0x095e7baea6a6c7c4c2dfeb977efac326af552d87" : {
                "balance" : "0x0de0b6b3a7640000",
                "code" : "0x60006000600060006017730f572e5295c57f15886f9b263e2f6d2d6c7b5ec66103e8f160005500",
                "nonce" : "0x00",
                "storage" : {
                }
            },
            "0x0f572e5295c57f15886f9b263e2f6d2d6c7b5ec6" : {
                "balance" : "0x0de0b6b3a7640000",
                "code" : "0x7faabbffffffffffffffffffffffffffffffffffffffffffffffffffffffffccdd6000527fffffffffffffffffffffffffffffffffffffffffffffffffffffffffffffffff7fffffffffffffffffffffffffffffffffffffffffffffffffffffffffffffffff7fffffffffffffffffffffffffffffffffffffffffffffffffffffffffffffffff7fffffffffffffffffffffffffffffffffffffffffffffffffffffffffffffffff60206000a400",
                "nonce" : "0x00",
                "storage" : {
                }
            },
            "0xa94f5374fce5edbc8e2a8697c15331677e6ebf0b" : {
                "balance" : "0x0de0b6b3a7640000",
                "code" : "0x",
                "nonce" : "0x00",
                "storage" : {
                }
            }
        },
        "transaction" : {
            "data" : [
                "0x"
            ],
            "gasPrice" : "0x0a",
            "gasLimit" : [
                "0x033450"
            ],
            "nonce" : "0x00",
            "secretKey" : "0x45a915e4d060149eb4365960e6a7a45f334393093061116b197e3240065ff2d8",
            "to" : "0x095e7baea6a6c7c4c2dfeb977efac326af552d87",
            "value" : [
                "0x0186a0"
            ]
        }
    }
}