{
    "log4" : {
        "_info" : {
            "comment" : "Ori Pomerantz qbzzt1@gmail.com",
            "filling-rpc-server" : "evm version 1.10.4-unstable-966ee3ae-20210528",
            "filling-tool-version" : "retesteth-0.1.1-eip1559+commit.658fc3a8.Linux.g++",
            "lllcversion" : "Version: 0.5.14-develop.2021.5.18+commit.14c9d5de.mod.Linux.g++",
            "source" : "src/GeneralStateTestsFiller/VMTests/vmLogTest/log4Filler.yml",
            "sourceHash" : "f3681216b63c2cc63cb88f41a4ab28072b0a17f150f7be60c524cc44a65952e6",
            "labels" : {
                "0" : ":label emptyMem",
                "1" : ":label memStartTooHigh",
                "2" : ":label memSizeTooHigh",
                "3" : ":label memSizeZero",
                "4" : ":label nonEmptyMem",
                "5" : ":label log_0_1",
                "6" : ":label log_31_1",
                "7" : ":label caller",
                "8" : ":label maxTopic",
                "9" : ":label pc"
            }
        },
        "env" : {
            "currentCoinbase" : "0x2adc25665018aa1fe0e6bc666dac8fc2697ff9ba",
            "currentDifficulty" : "0x020000",
            "currentNumber" : "0x01",
            "currentTimestamp" : "0x03e8",
            "previousHash" : "0x5e20a0453cecd065ea59c37ac63e079ee08998b6045136a8ce6635c7912ec0b6",
            "currentGasLimit" : "0x05f5e100"
        },
        "post" : {
            "Berlin" : [
                {
                    "indexes" : {
                        "data" : 0,
                        "gas" : 0,
                        "value" : 0
                    },
                    "hash" : "0xecdd1a804a2b7b5037dffbb3257bdbba2caae849ad208b2496f5577ff8ac3f61",
                    "txbytes" : "0xf885800a8404c4b40094cccccccccccccccccccccccccccccccccccccccc01a4693c613900000000000000000000000000000000000000000000000000000000000000001ba0e8ff56322287185f6afd3422a825b47bf5c1a4ccf0dc0389cdc03f7c1c32b7eaa0776b02f9f5773238d3ff36b74a123f409cd6420908d7855bbe4c8ff63e00d698",
                    "logs" : "0x89eba4e17e6be16d84b3586fdc8d67d6807f27da363041b27123adeceec97f22"
                },
                {
                    "indexes" : {
                        "data" : 3,
                        "gas" : 0,
                        "value" : 0
                    },
                    "hash" : "0x8a229dd38cb93c7cd99c3bcf348e03d13809eee692df521217220c863166b871",
                    "txbytes" : "0xf885800a8404c4b40094cccccccccccccccccccccccccccccccccccccccc01a4693c613900000000000000000000000000000000000000000000000000000000000000031ba0f06eb219c5dba98711a9a2678339f64d172bfac289a5c43a0018d3917be8dc2aa0147bd7a6ee30217e63cbddc28b0e72f115da754d8916b87992aa27ed00eb105e",
                    "logs" : "0x89eba4e17e6be16d84b3586fdc8d67d6807f27da363041b27123adeceec97f22"
                },
                {
                    "indexes" : {
                        "data" : 4,
                        "gas" : 0,
                        "value" : 0
                    },
                    "hash" : "0x4c7df60dbe0ae840e25de519349c38dafb35a9ebd7cf9f0c1387481545938c30",
                    "txbytes" : "0xf885800a8404c4b40094cccccccccccccccccccccccccccccccccccccccc01a4693c613900000000000000000000000000000000000000000000000000000000000000041ba0c148a101aa54703ff0e949441bdba90b1972a16c338f7f9a24b07f0313cd49d6a028cb82229b8a57e2048761d6fa5060c5b459f000d4e218de1372c1df9cfa171e",
                    "logs" : "0x63e16e4112d354ab3588bbecaee2f0373c8ed52cffe3ed9c90c7861121a73d23"
                },
                {
                    "indexes" : {
                        "data" : 5,
                        "gas" : 0,
                        "value" : 0
                    },
                    "hash" : "0x0b3c1908e25a4f05f598a93a0a51a128fc86caacc45592999c4dc4a625a2541c",
                    "txbytes" : "0xf885800a8404c4b40094cccccccccccccccccccccccccccccccccccccccc01a4693c613900000000000000000000000000000000000000000000000000000000000000051ca09a1ce3fdc8469be9bbe660a07c169cf5b6b70fe408cc1395057bbd4cdc2c8557a0560e8c0503c4364efd017933749f22e1d9ad4eff4580d5463df54b9bff8dca31",
                    "logs" : "0xe08e5c1eddfa1aa01e79fc04675ffc29d92408c87bbb1bc7a934f44f518321cb"
                },
                {
                    "indexes" : {
                        "data" : 6,
                        "gas" : 0,
                        "value" : 0
                    },
                    "hash" : "0x0b3c1908e25a4f05f598a93a0a51a128fc86caacc45592999c4dc4a625a2541c",
                    "txbytes" : "0xf885800a8404c4b40094cccccccccccccccccccccccccccccccccccccccc01a4693c613900000000000000000000000000000000000000000000000000000000000000061ca04f7114759d69db050a87677a2dff3d6f9399f0b66da593b2cc50748708377f6fa042f32766ce38ec3cee0d2c2dbc4d14b9cbf94e4af75b0584a04c933457bb83bb",
                    "logs" : "0xd42f9447105ee28eec817b2b0fb9f144098ebd3eaf9788822a9ef68adba8bf33"
                },
                {
                    "indexes" : {
                        "data" : 7,
                        "gas" : 0,
                        "value" : 0
                    },
                    "hash" : "0x91aed5a3b52c3573f665f3ed5f2b794c924442f420d95b8a08bf039f846cdb51",
                    "txbytes" : "0xf885800a8404c4b40094cccccccccccccccccccccccccccccccccccccccc01a4693c613900000000000000000000000000000000000000000000000000000000000000071ba0e77cc0b2a4af0e43bc5732d6747afb3ddcf781f7277650aeef15b9caba68c91aa04af80af420b77c3f4ad457f1c6535be5d46993e2c8987250d28d088b3a11bb4a",
                    "logs" : "0x94219095f19e9c0dbaf89ef4a48b3eaf9a605a1382fa43a9504bdeb528b1cf4f"
                },
                {
                    "indexes" : {
                        "data" : 8,
                        "gas" : 0,
                        "value" : 0
                    },
                    "hash" : "0x9f5f286e0a512587625b13097557a96564a201ae1a4553ab39a4a300b2f76680",
                    "txbytes" : "0xf884800a8404c4b40094cccccccccccccccccccccccccccccccccccccccc01a4693c613900000000000000000000000000000000000000000000000000000000000000081ca057f87767c304f58d8c351529457f9fbe53d04ba7f9f0ae7f2bac7a2d6dc59bc09fd8de811557a1287c01a1e09edeb750adba79cef13ebeb951d030ff29e63f39",
                    "logs" : "0xa13c2ae62c4bbf0ca424e595804e891d7e1c7f12325056437c6f09e632866994"
                },
                {
                    "indexes" : {
                        "data" : 9,
                        "gas" : 0,
                        "value" : 0
                    },
                    "hash" : "0x141d56762419f739fd854c5b6c2336ea5543bdc268236596f434082d72d25787",
                    "txbytes" : "0xf885800a8404c4b40094cccccccccccccccccccccccccccccccccccccccc01a4693c613900000000000000000000000000000000000000000000000000000000000000091ba09cffdf14ebc27c6c36a8cc9e679e32251165b52fb39e7ccc52cbc42f7157c301a032f0bebe1ae01ef86e26c0194bc26e9ed9e6bb7dad277927a92def3d0badbe74",
                    "logs" : "0x64c6b8491fef70e35840b81c4b79ed4209e09e196fe26d91f6dcc2c4c4eff97d"
                },
                {
                    "indexes" : {
                        "data" : 1,
                        "gas" : 0,
                        "value" : 0
                    },
                    "hash" : "0xdaacad1642a549dcde4ca36ed51fd191d01f686617fe2d0edf549caf9ba9a739",
                    "txbytes" : "0xf885800a8404c4b40094cccccccccccccccccccccccccccccccccccccccc01a4693c613900000000000000000000000000000000000000000000000000000000000000011ba02c5e81a024dd0f6fb773c8787fa46ab5eb55cb73df83562e6ddbe9106a3df7f6a029437b9a23e45bbfce086f2ddaa98b1e9e6914d7e58e2c5a128310042b332f89",
                    "logs" : "0x1dcc4de8dec75d7aab85b567b6ccd41ad312451b948a7413f0a142fd40d49347"
                },
                {
                    "indexes" : {
                        "data" : 2,
                        "gas" : 0,
                        "value" : 0
                    },
                    "hash" : "0xdaacad1642a549dcde4ca36ed51fd191d01f686617fe2d0edf549caf9ba9a739",
                    "txbytes" : "0xf885800a8404c4b40094cccccccccccccccccccccccccccccccccccccccc01a4693c613900000000000000000000000000000000000000000000000000000000000000021ba0fc37ad4eb0633eb18f2b7867bacbe994a2ffcbb04a71e394e6e76041f6ce216fa03b1b415a5c386d8de9e16be9fdc188234b80a0dec99922d03c240f2e463053e3",
                    "logs" : "0x1dcc4de8dec75d7aab85b567b6ccd41ad312451b948a7413f0a142fd40d49347"
                }
            ],
            "Istanbul" : [
                {
                    "indexes" : {
                        "data" : 0,
                        "gas" : 0,
                        "value" : 0
                    },
                    "hash" : "0xc30e5ad32adf149123adf2f167153383d85964234b46a31f2861a06b1995d529",
                    "txbytes" : "0xf885800a8404c4b40094cccccccccccccccccccccccccccccccccccccccc01a4693c613900000000000000000000000000000000000000000000000000000000000000001ba0e8ff56322287185f6afd3422a825b47bf5c1a4ccf0dc0389cdc03f7c1c32b7eaa0776b02f9f5773238d3ff36b74a123f409cd6420908d7855bbe4c8ff63e00d698",
                    "logs" : "0x89eba4e17e6be16d84b3586fdc8d67d6807f27da363041b27123adeceec97f22"
                },
                {
                    "indexes" : {
                        "data" : 3,
                        "gas" : 0,
                        "value" : 0
                    },
                    "hash" : "0xa1566a3db79d1e92f5a26f42ddf67d16e06824a9969c4b38e499e30558d8d95c",
                    "txbytes" : "0xf885800a8404c4b40094cccccccccccccccccccccccccccccccccccccccc01a4693c613900000000000000000000000000000000000000000000000000000000000000031ba0f06eb219c5dba98711a9a2678339f64d172bfac289a5c43a0018d3917be8dc2aa0147bd7a6ee30217e63cbddc28b0e72f115da754d8916b87992aa27ed00eb105e",
                    "logs" : "0x89eba4e17e6be16d84b3586fdc8d67d6807f27da363041b27123adeceec97f22"
                },
                {
                    "indexes" : {
                        "data" : 4,
                        "gas" : 0,
                        "value" : 0
                    },
                    "hash" : "0x4e086d8bec4d4ec8ddd998da9504903a9bebe95ddf51794c7fd6e65d4a33a7fa",
                    "txbytes" : "0xf885800a8404c4b40094cccccccccccccccccccccccccccccccccccccccc01a4693c613900000000000000000000000000000000000000000000000000000000000000041ba0c148a101aa54703ff0e949441bdba90b1972a16c338f7f9a24b07f0313cd49d6a028cb82229b8a57e2048761d6fa5060c5b459f000d4e218de1372c1df9cfa171e",
                    "logs" : "0x63e16e4112d354ab3588bbecaee2f0373c8ed52cffe3ed9c90c7861121a73d23"
                },
                {
                    "indexes" : {
                        "data" : 5,
                        "gas" : 0,
                        "value" : 0
                    },
                    "hash" : "0x7f2e70e40cdeb6bec65777b2c9bc9edd8f061d81fa9918a5fbb7c1c1eecc4d58",
                    "txbytes" : "0xf885800a8404c4b40094cccccccccccccccccccccccccccccccccccccccc01a4693c613900000000000000000000000000000000000000000000000000000000000000051ca09a1ce3fdc8469be9bbe660a07c169cf5b6b70fe408cc1395057bbd4cdc2c8557a0560e8c0503c4364efd017933749f22e1d9ad4eff4580d5463df54b9bff8dca31",
                    "logs" : "0xe08e5c1eddfa1aa01e79fc04675ffc29d92408c87bbb1bc7a934f44f518321cb"
                },
                {
                    "indexes" : {
                        "data" : 6,
                        "gas" : 0,
                        "value" : 0
                    },
                    "hash" : "0x7f2e70e40cdeb6bec65777b2c9bc9edd8f061d81fa9918a5fbb7c1c1eecc4d58",
                    "txbytes" : "0xf885800a8404c4b40094cccccccccccccccccccccccccccccccccccccccc01a4693c613900000000000000000000000000000000000000000000000000000000000000061ca04f7114759d69db050a87677a2dff3d6f9399f0b66da593b2cc50748708377f6fa042f32766ce38ec3cee0d2c2dbc4d14b9cbf94e4af75b0584a04c933457bb83bb",
                    "logs" : "0xd42f9447105ee28eec817b2b0fb9f144098ebd3eaf9788822a9ef68adba8bf33"
                },
                {
                    "indexes" : {
                        "data" : 7,
                        "gas" : 0,
                        "value" : 0
                    },
                    "hash" : "0xb758563fb56c018b530b82446cd75fecf9e703e75f8bb461859f9c20702d22c9",
                    "txbytes" : "0xf885800a8404c4b40094cccccccccccccccccccccccccccccccccccccccc01a4693c613900000000000000000000000000000000000000000000000000000000000000071ba0e77cc0b2a4af0e43bc5732d6747afb3ddcf781f7277650aeef15b9caba68c91aa04af80af420b77c3f4ad457f1c6535be5d46993e2c8987250d28d088b3a11bb4a",
                    "logs" : "0x94219095f19e9c0dbaf89ef4a48b3eaf9a605a1382fa43a9504bdeb528b1cf4f"
                },
                {
                    "indexes" : {
                        "data" : 8,
                        "gas" : 0,
                        "value" : 0
                    },
                    "hash" : "0xff33b4ff4dc18bdabe887adf76d23f4c9d44a5b1e7eeccbdf8de3f4d2765ef37",
                    "txbytes" : "0xf884800a8404c4b40094cccccccccccccccccccccccccccccccccccccccc01a4693c613900000000000000000000000000000000000000000000000000000000000000081ca057f87767c304f58d8c351529457f9fbe53d04ba7f9f0ae7f2bac7a2d6dc59bc09fd8de811557a1287c01a1e09edeb750adba79cef13ebeb951d030ff29e63f39",
                    "logs" : "0xa13c2ae62c4bbf0ca424e595804e891d7e1c7f12325056437c6f09e632866994"
                },
                {
                    "indexes" : {
                        "data" : 9,
                        "gas" : 0,
                        "value" : 0
                    },
                    "hash" : "0xe6e2b946af9c1cd63fb0ddeb4519688743d9c87f077efb498c2d12cbffd1acaf",
                    "txbytes" : "0xf885800a8404c4b40094cccccccccccccccccccccccccccccccccccccccc01a4693c613900000000000000000000000000000000000000000000000000000000000000091ba09cffdf14ebc27c6c36a8cc9e679e32251165b52fb39e7ccc52cbc42f7157c301a032f0bebe1ae01ef86e26c0194bc26e9ed9e6bb7dad277927a92def3d0badbe74",
                    "logs" : "0x64c6b8491fef70e35840b81c4b79ed4209e09e196fe26d91f6dcc2c4c4eff97d"
                },
                {
                    "indexes" : {
                        "data" : 1,
                        "gas" : 0,
                        "value" : 0
                    },
                    "hash" : "0xe2951039a5af9f13eb3d23ff940671d67213496ed531cdbc8d2d4a8d3e3461f7",
                    "txbytes" : "0xf885800a8404c4b40094cccccccccccccccccccccccccccccccccccccccc01a4693c613900000000000000000000000000000000000000000000000000000000000000011ba02c5e81a024dd0f6fb773c8787fa46ab5eb55cb73df83562e6ddbe9106a3df7f6a029437b9a23e45bbfce086f2ddaa98b1e9e6914d7e58e2c5a128310042b332f89",
                    "logs" : "0x1dcc4de8dec75d7aab85b567b6ccd41ad312451b948a7413f0a142fd40d49347"
                },
                {
                    "indexes" : {
                        "data" : 2,
                        "gas" : 0,
                        "value" : 0
                    },
                    "hash" : "0xe2951039a5af9f13eb3d23ff940671d67213496ed531cdbc8d2d4a8d3e3461f7",
                    "txbytes" : "0xf885800a8404c4b40094cccccccccccccccccccccccccccccccccccccccc01a4693c613900000000000000000000000000000000000000000000000000000000000000021ba0fc37ad4eb0633eb18f2b7867bacbe994a2ffcbb04a71e394e6e76041f6ce216fa03b1b415a5c386d8de9e16be9fdc188234b80a0dec99922d03c240f2e463053e3",
                    "logs" : "0x1dcc4de8dec75d7aab85b567b6ccd41ad312451b948a7413f0a142fd40d49347"
                }
            ],
            "London" : [
                {
                    "indexes" : {
                        "data" : 0,
                        "gas" : 0,
                        "value" : 0
                    },
                    "hash" : "0x68ac2a4b21f72fefde14b35c0177b8c14f1deab32438d441f4c88a6971e8b341",
                    "txbytes" : "0xf885800a8404c4b40094cccccccccccccccccccccccccccccccccccccccc01a4693c613900000000000000000000000000000000000000000000000000000000000000001ba0e8ff56322287185f6afd3422a825b47bf5c1a4ccf0dc0389cdc03f7c1c32b7eaa0776b02f9f5773238d3ff36b74a123f409cd6420908d7855bbe4c8ff63e00d698",
                    "logs" : "0x89eba4e17e6be16d84b3586fdc8d67d6807f27da363041b27123adeceec97f22"
                },
                {
                    "indexes" : {
                        "data" : 3,
                        "gas" : 0,
                        "value" : 0
                    },
                    "hash" : "0x6ca2a7e20194c42bd989cb3791dde7789c4128bb4324130422a82194237e903c",
                    "txbytes" : "0xf885800a8404c4b40094cccccccccccccccccccccccccccccccccccccccc01a4693c613900000000000000000000000000000000000000000000000000000000000000031ba0f06eb219c5dba98711a9a2678339f64d172bfac289a5c43a0018d3917be8dc2aa0147bd7a6ee30217e63cbddc28b0e72f115da754d8916b87992aa27ed00eb105e",
                    "logs" : "0x89eba4e17e6be16d84b3586fdc8d67d6807f27da363041b27123adeceec97f22"
                },
                {
                    "indexes" : {
                        "data" : 4,
                        "gas" : 0,
                        "value" : 0
                    },
                    "hash" : "0xdf97b54cfb523d1bba5e845f8f6aee770f01550e5f1436405df8de2c7751037b",
                    "txbytes" : "0xf885800a8404c4b40094cccccccccccccccccccccccccccccccccccccccc01a4693c613900000000000000000000000000000000000000000000000000000000000000041ba0c148a101aa54703ff0e949441bdba90b1972a16c338f7f9a24b07f0313cd49d6a028cb82229b8a57e2048761d6fa5060c5b459f000d4e218de1372c1df9cfa171e",
                    "logs" : "0x63e16e4112d354ab3588bbecaee2f0373c8ed52cffe3ed9c90c7861121a73d23"
                },
                {
                    "indexes" : {
                        "data" : 5,
                        "gas" : 0,
                        "value" : 0
                    },
                    "hash" : "0x572848117fd216e9ec214fb4a0faf6066391d504d9cae72ffb95a52f00943b45",
                    "txbytes" : "0xf885800a8404c4b40094cccccccccccccccccccccccccccccccccccccccc01a4693c613900000000000000000000000000000000000000000000000000000000000000051ca09a1ce3fdc8469be9bbe660a07c169cf5b6b70fe408cc1395057bbd4cdc2c8557a0560e8c0503c4364efd017933749f22e1d9ad4eff4580d5463df54b9bff8dca31",
                    "logs" : "0xe08e5c1eddfa1aa01e79fc04675ffc29d92408c87bbb1bc7a934f44f518321cb"
                },
                {
                    "indexes" : {
                        "data" : 6,
                        "gas" : 0,
                        "value" : 0
                    },
                    "hash" : "0x572848117fd216e9ec214fb4a0faf6066391d504d9cae72ffb95a52f00943b45",
                    "txbytes" : "0xf885800a8404c4b40094cccccccccccccccccccccccccccccccccccccccc01a4693c613900000000000000000000000000000000000000000000000000000000000000061ca04f7114759d69db050a87677a2dff3d6f9399f0b66da593b2cc50748708377f6fa042f32766ce38ec3cee0d2c2dbc4d14b9cbf94e4af75b0584a04c933457bb83bb",
                    "logs" : "0xd42f9447105ee28eec817b2b0fb9f144098ebd3eaf9788822a9ef68adba8bf33"
                },
                {
                    "indexes" : {
                        "data" : 7,
                        "gas" : 0,
                        "value" : 0
                    },
                    "hash" : "0x4b3fbbab54cad067b5e7dadfc457723923211cbb31cce42bbaf353c0eb9c5342",
                    "txbytes" : "0xf885800a8404c4b40094cccccccccccccccccccccccccccccccccccccccc01a4693c613900000000000000000000000000000000000000000000000000000000000000071ba0e77cc0b2a4af0e43bc5732d6747afb3ddcf781f7277650aeef15b9caba68c91aa04af80af420b77c3f4ad457f1c6535be5d46993e2c8987250d28d088b3a11bb4a",
                    "logs" : "0x94219095f19e9c0dbaf89ef4a48b3eaf9a605a1382fa43a9504bdeb528b1cf4f"
                },
                {
                    "indexes" : {
                        "data" : 8,
                        "gas" : 0,
                        "value" : 0
                    },
                    "hash" : "0xed2ba74eef8287090a8821e9a4bc3cd4f06a09c21c20137c608faddedaa54e0a",
                    "txbytes" : "0xf884800a8404c4b40094cccccccccccccccccccccccccccccccccccccccc01a4693c613900000000000000000000000000000000000000000000000000000000000000081ca057f87767c304f58d8c351529457f9fbe53d04ba7f9f0ae7f2bac7a2d6dc59bc09fd8de811557a1287c01a1e09edeb750adba79cef13ebeb951d030ff29e63f39",
                    "logs" : "0xa13c2ae62c4bbf0ca424e595804e891d7e1c7f12325056437c6f09e632866994"
                },
                {
                    "indexes" : {
                        "data" : 9,
                        "gas" : 0,
                        "value" : 0
                    },
                    "hash" : "0x8a0e93c39af3f34c6d168c71252cd08f5fe2f0decf21ca04798ea355139858f5",
                    "txbytes" : "0xf885800a8404c4b40094cccccccccccccccccccccccccccccccccccccccc01a4693c613900000000000000000000000000000000000000000000000000000000000000091ba09cffdf14ebc27c6c36a8cc9e679e32251165b52fb39e7ccc52cbc42f7157c301a032f0bebe1ae01ef86e26c0194bc26e9ed9e6bb7dad277927a92def3d0badbe74",
                    "logs" : "0x64c6b8491fef70e35840b81c4b79ed4209e09e196fe26d91f6dcc2c4c4eff97d"
                },
                {
                    "indexes" : {
                        "data" : 1,
                        "gas" : 0,
                        "value" : 0
                    },
                    "hash" : "0xe21b24d421fea3580b0608d8c1b036241273ae9373ec5ff8e8b8e5e50fd1c54b",
                    "txbytes" : "0xf885800a8404c4b40094cccccccccccccccccccccccccccccccccccccccc01a4693c613900000000000000000000000000000000000000000000000000000000000000011ba02c5e81a024dd0f6fb773c8787fa46ab5eb55cb73df83562e6ddbe9106a3df7f6a029437b9a23e45bbfce086f2ddaa98b1e9e6914d7e58e2c5a128310042b332f89",
                    "logs" : "0x1dcc4de8dec75d7aab85b567b6ccd41ad312451b948a7413f0a142fd40d49347"
                },
                {
                    "indexes" : {
                        "data" : 2,
                        "gas" : 0,
                        "value" : 0
                    },
                    "hash" : "0xe21b24d421fea3580b0608d8c1b036241273ae9373ec5ff8e8b8e5e50fd1c54b",
                    "txbytes" : "0xf885800a8404c4b40094cccccccccccccccccccccccccccccccccccccccc01a4693c613900000000000000000000000000000000000000000000000000000000000000021ba0fc37ad4eb0633eb18f2b7867bacbe994a2ffcbb04a71e394e6e76041f6ce216fa03b1b415a5c386d8de9e16be9fdc188234b80a0dec99922d03c240f2e463053e3",
                    "logs" : "0x1dcc4de8dec75d7aab85b567b6ccd41ad312451b948a7413f0a142fd40d49347"
                }
            ]
        },
        "pre" : {
            "0x0000000000000000000000000000000000000100" : {
                "balance" : "0x0ba1a9ce0ba1a9ce",
                "code" : "0x600060006000600060006000a461600d60005500",
                "nonce" : "0x00",
                "storage" : {
                }
            },
            "0x0000000000000000000000000000000000000101" : {
                "balance" : "0x0ba1a9ce0ba1a9ce",
                "code" : "0x7faabbffffffffffffffffffffffffffffffffffffffffffffffffffffffffccdd600052600060006000600060016001600003a461600d60005500",
                "nonce" : "0x00",
                "storage" : {
                }
            },
            "0x0000000000000000000000000000000000000102" : {
                "balance" : "0x0ba1a9ce0ba1a9ce",
                "code" : "0x7faabbffffffffffffffffffffffffffffffffffffffffffffffffffffffffccdd600052600060006000600060016000036001a461600d60005500",
                "nonce" : "0x00",
                "storage" : {
                }
            },
            "0x0000000000000000000000000000000000000103" : {
                "balance" : "0x0ba1a9ce0ba1a9ce",
                "code" : "0x7faabbffffffffffffffffffffffffffffffffffffffffffffffffffffffffccdd600052600060006000600060006001a461600d60005500",
                "nonce" : "0x00",
                "storage" : {
                }
            },
            "0x0000000000000000000000000000000000000104" : {
                "balance" : "0x0ba1a9ce0ba1a9ce",
                "code" : "0x7fffffffffffffffffffffffffffffffffffffffffffffffffffffffffffffffff600052600060006000600060206000a461600d60005500",
                "nonce" : "0x00",
                "storage" : {
                }
            },
            "0x0000000000000000000000000000000000000105" : {
                "balance" : "0x0ba1a9ce0ba1a9ce",
                "code" : "0x7faabbffffffffffffffffffffffffffffffffffffffffffffffffffffffffccdd600052600060006000600060016000a461600d60005500",
                "nonce" : "0x00",
                "storage" : {
                }
            },
            "0x0000000000000000000000000000000000000106" : {
                "balance" : "0x0ba1a9ce0ba1a9ce",
                "code" : "0x7faabbffffffffffffffffffffffffffffffffffffffffffffffffffffffffccdd60005260006000600060006001601fa461600d60005500",
                "nonce" : "0x00",
                "storage" : {
                }
            },
            "0x0000000000000000000000000000000000000107" : {
                "balance" : "0x0ba1a9ce0ba1a9ce",
                "code" : "0x7faabbffffffffffffffffffffffffffffffffffffffffffffffffffffffffccdd6000523360006000600060206000a461600d60005500",
                "nonce" : "0x00",
                "storage" : {
                }
            },
            "0x0000000000000000000000000000000000000108" : {
                "balance" : "0x0ba1a9ce0ba1a9ce",
                "code" : "0x60ff60005360016000036001600003600160000360016000036001601fa461600d60005500",
                "nonce" : "0x00",
                "storage" : {
                }
            },
            "0x0000000000000000000000000000000000000109" : {
                "balance" : "0x0ba1a9ce0ba1a9ce",
                "code" : "0x7faabbffffffffffffffffffffffffffffffffffffffffffffffffffffffffccdd600052585858586001601fa461600d60005500",
                "nonce" : "0x00",
                "storage" : {
                }
            },
            "0xa94f5374fce5edbc8e2a8697c15331677e6ebf0b" : {
                "balance" : "0x100000000000",
                "code" : "0x",
                "nonce" : "0x00",
                "storage" : {
                }
            },
            "0xcccccccccccccccccccccccccccccccccccccccc" : {
                "balance" : "0x0ba1a9ce0ba1a9ce",
                "code" : "0x6000600060006000600435610100015af400",
                "nonce" : "0x00",
                "storage" : {
                    "0x00" : "0x0bad"
                }
            }
        },
        "transaction" : {
            "data" : [
                "0x693c61390000000000000000000000000000000000000000000000000000000000000000",
                "0x693c61390000000000000000000000000000000000000000000000000000000000000001",
                "0x693c61390000000000000000000000000000000000000000000000000000000000000002",
                "0x693c61390000000000000000000000000000000000000000000000000000000000000003",
                "0x693c61390000000000000000000000000000000000000000000000000000000000000004",
                "0x693c61390000000000000000000000000000000000000000000000000000000000000005",
                "0x693c61390000000000000000000000000000000000000000000000000000000000000006",
                "0x693c61390000000000000000000000000000000000000000000000000000000000000007",
                "0x693c61390000000000000000000000000000000000000000000000000000000000000008",
                "0x693c61390000000000000000000000000000000000000000000000000000000000000009"
            ],
            "gasPrice" : "0x0a",
            "gasLimit" : [
                "0x04c4b400"
            ],
            "nonce" : "0x00",
            "secretKey" : "0x45a915e4d060149eb4365960e6a7a45f334393093061116b197e3240065ff2d8",
            "to" : "0xcccccccccccccccccccccccccccccccccccccccc",
            "value" : [
                "0x01"
            ]
        }
    }
}