{
    "randomStatetest517" : {
        "_info" : {
            "comment" : "",
            "filling-rpc-server" : "evm version 1.10.4-unstable-966ee3ae-20210528",
            "filling-tool-version" : "retesteth-0.1.1-eip1559+commit.658fc3a8.Linux.g++",
            "lllcversion" : "Version: 0.5.14-develop.2021.5.18+commit.14c9d5de.mod.Linux.g++",
            "source" : "src/GeneralStateTestsFiller/stRandom2/randomStatetest517Filler.json",
            "sourceHash" : "a329a33a8b7eb8492d288a274d365e467a9a079cb5a93f1303422ca93a7e3f6e"
        },
        "env" : {
            "currentCoinbase" : "0x945304eb96065b2a98b57a48a06ae28d285a71b5",
            "currentDifficulty" : "0x020000",
            "currentNumber" : "0x01",
            "currentTimestamp" : "0x03e8",
            "previousHash" : "0x5e20a0453cecd065ea59c37ac63e079ee08998b6045136a8ce6635c7912ec0b6",
            "currentGasLimit" : "0x7fffffffffffffff"
        },
        "post" : {
            "Berlin" : [
                {
                    "indexes" : {
                        "data" : 0,
                        "gas" : 0,
                        "value" : 0
                    },
                    "hash" : "0xf8e87a390140a0fc3161cda87f54dc2dfe49925f5910249fdccdbe53fbaaefc3",
                    "txbytes" : "0xf9011e800a8422d1e6e194095e7baea6a6c7c4c2dfeb977efac326af552d87847291aa4fb8b87fffffffffffffffffffffffffffffffffffffffffffffffffffffffffffffffff7f000000000000000000000000ffffffffffffffffffffffffffffffffffffffff7f00000000000000000000000000000000000000000000000000000000000000017f00000000000000000000000100000000000000000000000000000000000000007f000000000000000000000000ffffffffffffffffffffffffffffffffffffffff3a6f450831a46a867f32569596f0099f7b8c911ca01c1f8cd6f75515afde46c01dace09db2f7554aaf011fe2050b2683834e302d11a0613b4006e7203ffbbef8a50296df9e4ccb2b1c5bb7efef3c12eaaf61b0b9924b",
                    "logs" : "0x1dcc4de8dec75d7aab85b567b6ccd41ad312451b948a7413f0a142fd40d49347"
                }
            ],
            "Istanbul" : [
                {
                    "indexes" : {
                        "data" : 0,
                        "gas" : 0,
                        "value" : 0
                    },
                    "hash" : "0xb775b48e1a98d1cccba3ecf62761eefa5b0a06d0e95206ae0a567a3370305047",
                    "txbytes" : "0xf9011e800a8422d1e6e194095e7baea6a6c7c4c2dfeb977efac326af552d87847291aa4fb8b87fffffffffffffffffffffffffffffffffffffffffffffffffffffffffffffffff7f000000000000000000000000ffffffffffffffffffffffffffffffffffffffff7f00000000000000000000000000000000000000000000000000000000000000017f00000000000000000000000100000000000000000000000000000000000000007f000000000000000000000000ffffffffffffffffffffffffffffffffffffffff3a6f450831a46a867f32569596f0099f7b8c911ca01c1f8cd6f75515afde46c01dace09db2f7554aaf011fe2050b2683834e302d11a0613b4006e7203ffbbef8a50296df9e4ccb2b1c5bb7efef3c12eaaf61b0b9924b",
                    "logs" : "0x1dcc4de8dec75d7aab85b567b6ccd41ad312451b948a7413f0a142fd40d49347"
                }
            ],
            "London" : [
                {
                    "indexes" : {
                        "data" : 0,
                        "gas" : 0,
                        "value" : 0
                    },
                    "hash" : "0xa1f0ffafed7433c64aa1d04ad7712995ca925da9011ea2a6d5a478b61c4009a2",
                    "txbytes" : "0xf9011e800a8422d1e6e194095e7baea6a6c7c4c2dfeb977efac326af552d87847291aa4fb8b87fffffffffffffffffffffffffffffffffffffffffffffffffffffffffffffffff7f000000000000000000000000ffffffffffffffffffffffffffffffffffffffff7f00000000000000000000000000000000000000000000000000000000000000017f00000000000000000000000100000000000000000000000000000000000000007f000000000000000000000000ffffffffffffffffffffffffffffffffffffffff3a6f450831a46a867f32569596f0099f7b8c911ca01c1f8cd6f75515afde46c01dace09db2f7554aaf011fe2050b2683834e302d11a0613b4006e7203ffbbef8a50296df9e4ccb2b1c5bb7efef3c12eaaf61b0b9924b",
                    "logs" : "0x1dcc4de8dec75d7aab85b567b6ccd41ad312451b948a7413f0a142fd40d49347"
                }
            ]
        },
        "pre" : {
            "0x095e7baea6a6c7c4c2dfeb977efac326af552d87" : {
                "balance" : "0x00",
                "code" : "0x7fffffffffffffffffffffffffffffffffffffffffffffffffffffffffffffffff7f000000000000000000000000ffffffffffffffffffffffffffffffffffffffff7f00000000000000000000000000000000000000000000000000000000000000017f00000000000000000000000100000000000000000000000000000000000000007f000000000000000000000000ffffffffffffffffffffffffffffffffffffffff3a6f450831a46a867f32569596f0099f7b8c915560005155",
                "nonce" : "0x00",
                "storage" : {
                }
            },
            "0x945304eb96065b2a98b57a48a06ae28d285a71b5" : {
                "balance" : "0x2e",
                "code" : "0x6000355415600957005b60203560003555",
                "nonce" : "0x00",
                "storage" : {
                }
            },
            "0xa94f5374fce5edbc8e2a8697c15331677e6ebf0b" : {
                "balance" : "0x0de0b6b3a7640000",
                "code" : "0x",
                "nonce" : "0x00",
                "storage" : {
                }
            }
        },
        "transaction" : {
            "data" : [
                "0x7fffffffffffffffffffffffffffffffffffffffffffffffffffffffffffffffff7f000000000000000000000000ffffffffffffffffffffffffffffffffffffffff7f00000000000000000000000000000000000000000000000000000000000000017f00000000000000000000000100000000000000000000000000000000000000007f000000000000000000000000ffffffffffffffffffffffffffffffffffffffff3a6f450831a46a867f32569596f0099f7b8c91"
            ],
            "gasPrice" : "0x0a",
            "gasLimit" : [
                "0x22d1e6e1"
            ],
            "nonce" : "0x00",
            "secretKey" : "0x45a915e4d060149eb4365960e6a7a45f334393093061116b197e3240065ff2d8",
            "to" : "0x095e7baea6a6c7c4c2dfeb977efac326af552d87",
            "value" : [
                "0x7291aa4f"
            ]
        }
    }
}