{
    "randomStatetest552" : {
        "_info" : {
            "comment" : "",
            "filling-rpc-server" : "evm version 1.10.4-unstable-966ee3ae-20210528",
            "filling-tool-version" : "retesteth-0.1.1-eip1559+commit.658fc3a8.Linux.g++",
            "lllcversion" : "Version: 0.5.14-develop.2021.5.18+commit.14c9d5de.mod.Linux.g++",
            "source" : "src/GeneralStateTestsFiller/stRandom2/randomStatetest552Filler.json",
            "sourceHash" : "ff05df1553f3afcd416ccaa0ae4998b2a5049376f16791f5bd2faf7923d0a714"
        },
        "env" : {
            "currentCoinbase" : "0x945304eb96065b2a98b57a48a06ae28d285a71b5",
            "currentDifficulty" : "0x020000",
            "currentNumber" : "0x01",
            "currentTimestamp" : "0x03e8",
            "previousHash" : "0x5e20a0453cecd065ea59c37ac63e079ee08998b6045136a8ce6635c7912ec0b6",
            "currentGasLimit" : "0x7fffffffffffffff"
        },
        "post" : {
            "Berlin" : [
                {
                    "indexes" : {
                        "data" : 0,
                        "gas" : 0,
                        "value" : 0
                    },
                    "hash" : "0x1f9d8dad328a5e1d17439276daacd0fc30dce4d5f5edf4f4c3da0504ab350d57",
                    "txbytes" : "0xf9011e800a8459f4666c94095e7baea6a6c7c4c2dfeb977efac326af552d87846bd9b58cb8b87ffffffffffffffffffffffffffffffffffffffffffffffffffffffffffffffffe7f000000000000000000000000000000000000000000000000000000000000c3507f000000000000000000000000ffffffffffffffffffffffffffffffffffffffff42147ffffffffffffffffffffffffffffffffffffffffffffffffffffffffffffffffe547f00000000000000000000000000000000000000000000000000000000000000006f6a72a37b5219f089416d4336a08e821ba02d6b05f49d91be95451ee50797b8f603332a79dcec91a2d7298f37e5c6a95d27a027e321b898a895528c86d1ad7d1afb6ec9346cc03a7887cf17e015bf7ab25d0c",
                    "logs" : "0x1dcc4de8dec75d7aab85b567b6ccd41ad312451b948a7413f0a142fd40d49347"
                }
            ],
            "Istanbul" : [
                {
                    "indexes" : {
                        "data" : 0,
                        "gas" : 0,
                        "value" : 0
                    },
                    "hash" : "0xa5b7a53f7b40233537e91912369f0239ad1287e7b7240426aeb70273098c766a",
                    "txbytes" : "0xf9011e800a8459f4666c94095e7baea6a6c7c4c2dfeb977efac326af552d87846bd9b58cb8b87ffffffffffffffffffffffffffffffffffffffffffffffffffffffffffffffffe7f000000000000000000000000000000000000000000000000000000000000c3507f000000000000000000000000ffffffffffffffffffffffffffffffffffffffff42147ffffffffffffffffffffffffffffffffffffffffffffffffffffffffffffffffe547f00000000000000000000000000000000000000000000000000000000000000006f6a72a37b5219f089416d4336a08e821ba02d6b05f49d91be95451ee50797b8f603332a79dcec91a2d7298f37e5c6a95d27a027e321b898a895528c86d1ad7d1afb6ec9346cc03a7887cf17e015bf7ab25d0c",
                    "logs" : "0x1dcc4de8dec75d7aab85b567b6ccd41ad312451b948a7413f0a142fd40d49347"
                }
            ],
            "London" : [
                {
                    "indexes" : {
                        "data" : 0,
                        "gas" : 0,
                        "value" : 0
                    },
                    "hash" : "0xb30dbcd280c1175b8cffefa9b493eab1bc02498944875148b1d066d86fb048d0",
                    "txbytes" : "0xf9011e800a8459f4666c94095e7baea6a6c7c4c2dfeb977efac326af552d87846bd9b58cb8b87ffffffffffffffffffffffffffffffffffffffffffffffffffffffffffffffffe7f000000000000000000000000000000000000000000000000000000000000c3507f000000000000000000000000ffffffffffffffffffffffffffffffffffffffff42147ffffffffffffffffffffffffffffffffffffffffffffffffffffffffffffffffe547f00000000000000000000000000000000000000000000000000000000000000006f6a72a37b5219f089416d4336a08e821ba02d6b05f49d91be95451ee50797b8f603332a79dcec91a2d7298f37e5c6a95d27a027e321b898a895528c86d1ad7d1afb6ec9346cc03a7887cf17e015bf7ab25d0c",
                    "logs" : "0x1dcc4de8dec75d7aab85b567b6ccd41ad312451b948a7413f0a142fd40d49347"
                }
            ]
        },
        "pre" : {
            "0x095e7baea6a6c7c4c2dfeb977efac326af552d87" : {
                "balance" : "0x00",
                "code" : "0x7ffffffffffffffffffffffffffffffffffffffffffffffffffffffffffffffffe7f000000000000000000000000000000000000000000000000000000000000c3507f000000000000000000000000ffffffffffffffffffffffffffffffffffffffff42147ffffffffffffffffffffffffffffffffffffffffffffffffffffffffffffffffe547f00000000000000000000000000000000000000000000000000000000000000006f6a72a37b5219f089416d4336a08e825560005155",
                "nonce" : "0x00",
                "storage" : {
                }
            },
            "0x945304eb96065b2a98b57a48a06ae28d285a71b5" : {
                "balance" : "0x2e",
                "code" : "0x6000355415600957005b60203560003555",
                "nonce" : "0x00",
                "storage" : {
                }
            },
            "0xa94f5374fce5edbc8e2a8697c15331677e6ebf0b" : {
                "balance" : "0x0de0b6b3a7640000",
                "code" : "0x",
                "nonce" : "0x00",
                "storage" : {
                }
            }
        },
        "transaction" : {
            "data" : [
                "0x7ffffffffffffffffffffffffffffffffffffffffffffffffffffffffffffffffe7f000000000000000000000000000000000000000000000000000000000000c3507f000000000000000000000000ffffffffffffffffffffffffffffffffffffffff42147ffffffffffffffffffffffffffffffffffffffffffffffffffffffffffffffffe547f00000000000000000000000000000000000000000000000000000000000000006f6a72a37b5219f089416d4336a08e82"
            ],
            "gasPrice" : "0x0a",
            "gasLimit" : [
                "0x59f4666c"
            ],
            "nonce" : "0x00",
            "secretKey" : "0x45a915e4d060149eb4365960e6a7a45f334393093061116b197e3240065ff2d8",
            "to" : "0x095e7baea6a6c7c4c2dfeb977efac326af552d87",
            "value" : [
                "0x6bd9b58c"
            ]
        }
    }
}