{
    "randomStatetest507" : {
        "_info" : {
            "comment" : "",
            "filling-rpc-server" : "evm version 1.10.4-unstable-966ee3ae-20210528",
            "filling-tool-version" : "retesteth-0.1.1-eip1559+commit.658fc3a8.Linux.g++",
            "lllcversion" : "Version: 0.5.14-develop.2021.5.18+commit.14c9d5de.mod.Linux.g++",
            "source" : "src/GeneralStateTestsFiller/stRandom2/randomStatetest507Filler.json",
            "sourceHash" : "82fb68c906cebf4482c9e7bfa28be8a3f7cb32dadb0f9a96ba7e28da0f4d344d"
        },
        "env" : {
            "currentCoinbase" : "0x945304eb96065b2a98b57a48a06ae28d285a71b5",
            "currentDifficulty" : "0x020000",
            "currentNumber" : "0x01",
            "currentTimestamp" : "0x03e8",
            "previousHash" : "0x5e20a0453cecd065ea59c37ac63e079ee08998b6045136a8ce6635c7912ec0b6",
            "currentGasLimit" : "0x7fffffffffffffff"
        },
        "post" : {
            "Berlin" : [
                {
                    "indexes" : {
                        "data" : 0,
                        "gas" : 0,
                        "value" : 0
                    },
                    "hash" : "0xe0fa89789e816b032bf52f738029b56695f8d05b83fb1881f9c4617e0c7dfc63",
                    "txbytes" : "0xf9011e800a846f62fdbd94095e7baea6a6c7c4c2dfeb977efac326af552d87842987830ab8b85a7f0000000000000000000000010000000000000000000000000000000000000000327f00000000000000000000000000000000000000000000000000000000000000017f000000000000000000000000ffffffffffffffffffffffffffffffffffffffff7ffffffffffffffffffffffffffffffffffffffffffffffffffffffffffffffffe7f000000000000000000000000945304eb96065b2a98b57a48a06ae28d285a71b56f99a4527612a199a06d1a348b02563a9b1ba0aa6fa50b0f986e32a36b521811aea6558e3a07036a5380575986670d4f82eec6a0438804dc947374eefb86f8bece92b39b253c934fcc97d81a9552cd025b5c9e91",
                    "logs" : "0x1dcc4de8dec75d7aab85b567b6ccd41ad312451b948a7413f0a142fd40d49347"
                }
            ],
            "Istanbul" : [
                {
                    "indexes" : {
                        "data" : 0,
                        "gas" : 0,
                        "value" : 0
                    },
                    "hash" : "0xb0848762d0f37861fa7f70e73ef2c2bd72261a0577ed33a03d825616a70720ba",
                    "txbytes" : "0xf9011e800a846f62fdbd94095e7baea6a6c7c4c2dfeb977efac326af552d87842987830ab8b85a7f0000000000000000000000010000000000000000000000000000000000000000327f00000000000000000000000000000000000000000000000000000000000000017f000000000000000000000000ffffffffffffffffffffffffffffffffffffffff7ffffffffffffffffffffffffffffffffffffffffffffffffffffffffffffffffe7f000000000000000000000000945304eb96065b2a98b57a48a06ae28d285a71b56f99a4527612a199a06d1a348b02563a9b1ba0aa6fa50b0f986e32a36b521811aea6558e3a07036a5380575986670d4f82eec6a0438804dc947374eefb86f8bece92b39b253c934fcc97d81a9552cd025b5c9e91",
                    "logs" : "0x1dcc4de8dec75d7aab85b567b6ccd41ad312451b948a7413f0a142fd40d49347"
                }
            ],
            "London" : [
                {
                    "indexes" : {
                        "data" : 0,
                        "gas" : 0,
                        "value" : 0
                    },
                    "hash" : "0x4814ba2d4973dd2541b73580012739ce88ac7a2aa27668364f99350b73da0a79",
                    "txbytes" : "0xf9011e800a846f62fdbd94095e7baea6a6c7c4c2dfeb977efac326af552d87842987830ab8b85a7f0000000000000000000000010000000000000000000000000000000000000000327f00000000000000000000000000000000000000000000000000000000000000017f000000000000000000000000ffffffffffffffffffffffffffffffffffffffff7ffffffffffffffffffffffffffffffffffffffffffffffffffffffffffffffffe7f000000000000000000000000945304eb96065b2a98b57a48a06ae28d285a71b56f99a4527612a199a06d1a348b02563a9b1ba0aa6fa50b0f986e32a36b521811aea6558e3a07036a5380575986670d4f82eec6a0438804dc947374eefb86f8bece92b39b253c934fcc97d81a9552cd025b5c9e91",
                    "logs" : "0x1dcc4de8dec75d7aab85b567b6ccd41ad312451b948a7413f0a142fd40d49347"
                }
            ]
        },
        "pre" : {
            "0x095e7baea6a6c7c4c2dfeb977efac326af552d87" : {
                "balance" : "0x00",
                "code" : "0x5a7f0000000000000000000000010000000000000000000000000000000000000000327f00000000000000000000000000000000000000000000000000000000000000017f000000000000000000000000ffffffffffffffffffffffffffffffffffffffff7ffffffffffffffffffffffffffffffffffffffffffffffffffffffffffffffffe7f000000000000000000000000945304eb96065b2a98b57a48a06ae28d285a71b56f99a4527612a199a06d1a348b02563a9b60005155",
                "nonce" : "0x00",
                "storage" : {
                }
            },
            "0x945304eb96065b2a98b57a48a06ae28d285a71b5" : {
                "balance" : "0x2e",
                "code" : "0x6000355415600957005b60203560003555",
                "nonce" : "0x00",
                "storage" : {
                }
            },
            "0xa94f5374fce5edbc8e2a8697c15331677e6ebf0b" : {
                "balance" : "0x0de0b6b3a7640000",
                "code" : "0x",
                "nonce" : "0x00",
                "storage" : {
                }
            }
        },
        "transaction" : {
            "data" : [
                "0x5a7f0000000000000000000000010000000000000000000000000000000000000000327f00000000000000000000000000000000000000000000000000000000000000017f000000000000000000000000ffffffffffffffffffffffffffffffffffffffff7ffffffffffffffffffffffffffffffffffffffffffffffffffffffffffffffffe7f000000000000000000000000945304eb96065b2a98b57a48a06ae28d285a71b56f99a4527612a199a06d1a348b02563a9b"
            ],
            "gasPrice" : "0x0a",
            "gasLimit" : [
                "0x6f62fdbd"
            ],
            "nonce" : "0x00",
            "secretKey" : "0x45a915e4d060149eb4365960e6a7a45f334393093061116b197e3240065ff2d8",
            "to" : "0x095e7baea6a6c7c4c2dfeb977efac326af552d87",
            "value" : [
                "0x2987830a"
            ]
        }
    }
}