{
    "ecadd_0-0_1-2_21000_192" : {
        "_info" : {
            "comment" : "Puts the points (0, 0) and (1, 2) into the ECADD precompile, truncating or expanding the input data to 192 bytes. Gives the execution 21000 bytes",
            "filling-rpc-server" : "evm version 1.10.4-unstable-966ee3ae-20210528",
            "filling-tool-version" : "retesteth-0.1.1-eip1559+commit.658fc3a8.Linux.g++",
            "lllcversion" : "Version: 0.5.14-develop.2021.5.18+commit.14c9d5de.mod.Linux.g++",
            "source" : "src/GeneralStateTestsFiller/stZeroKnowledge2/ecadd_0-0_1-2_21000_192Filler.json",
            "sourceHash" : "380e0dc72f15e9274a3f3fdc5318fe24538329752b73725f5c5b5d539567e0b5"
        },
        "env" : {
            "currentCoinbase" : "0x3535353535353535353535353535353535353535",
            "currentDifficulty" : "0x020000",
            "currentNumber" : "0x01",
            "currentTimestamp" : "0x03e8",
            "previousHash" : "0xc6745cf3cada515bbfb9573261c82547e0b8f9e3d5dd382e464704a84e47b5ad",
            "currentGasLimit" : "0x05f5e100"
        },
        "post" : {
            "Berlin" : [
                {
                    "indexes" : {
                        "data" : 0,
                        "gas" : 0,
                        "value" : 0
                    },
                    "hash" : "0xb7aac1706cbe4d3b8f9dab73954d70254735a578f2402b548ad1edf5fba41c25",
                    "txbytes" : "0xf90165070a82aa2094c305c901078781c232a2a521c2af7980f8385ee980b9010430c8d1da000000000000000000000000000000000000000000000000000000000000002000000000000000000000000000000000000000000000000000000000000000c00000000000000000000000000000000000000000000000000000000000000000000000000000000000000000000000000000000000000000000000000000000000000000000000000000000000000000000000000000000000000000000000010000000000000000000000000000000000000000000000000000000000000002000000000000000000000000000000000000000000000000000000000000000000000000000000000000000000000000000000000000000000000000000000001ca0f8e7f38b06c4356f2aaa5d9c5850275d47d709df4718f8a7468856e03b77c46fa05d7c024521b44893ff428976600b3fa0e7d597a7cd9640c3e21db5f142e6f6cb",
                    "logs" : "0x1dcc4de8dec75d7aab85b567b6ccd41ad312451b948a7413f0a142fd40d49347"
                },
                {
                    "indexes" : {
                        "data" : 0,
                        "gas" : 1,
                        "value" : 0
                    },
                    "hash" : "0x1405b93ce933dc5c13d5fcabc1e5c7bafc37a69590ed288bbb1861d873643aec",
                    "txbytes" : "0xf90166070a83015f9094c305c901078781c232a2a521c2af7980f8385ee980b9010430c8d1da000000000000000000000000000000000000000000000000000000000000002000000000000000000000000000000000000000000000000000000000000000c00000000000000000000000000000000000000000000000000000000000000000000000000000000000000000000000000000000000000000000000000000000000000000000000000000000000000000000000000000000000000000000000010000000000000000000000000000000000000000000000000000000000000002000000000000000000000000000000000000000000000000000000000000000000000000000000000000000000000000000000000000000000000000000000001ca05731b1789f899357168e6f18964f4b05747ddab46723dac72483823e5e72620fa0601f7c6bf3a6c07e590ab7703f6d3b30617158f28787ee31c0c7778f98f2ee67",
                    "logs" : "0x1dcc4de8dec75d7aab85b567b6ccd41ad312451b948a7413f0a142fd40d49347"
                },
                {
                    "indexes" : {
                        "data" : 0,
                        "gas" : 2,
                        "value" : 0
                    },
                    "hash" : "0x1405b93ce933dc5c13d5fcabc1e5c7bafc37a69590ed288bbb1861d873643aec",
                    "txbytes" : "0xf90166070a8301adb094c305c901078781c232a2a521c2af7980f8385ee980b9010430c8d1da000000000000000000000000000000000000000000000000000000000000002000000000000000000000000000000000000000000000000000000000000000c00000000000000000000000000000000000000000000000000000000000000000000000000000000000000000000000000000000000000000000000000000000000000000000000000000000000000000000000000000000000000000000000010000000000000000000000000000000000000000000000000000000000000002000000000000000000000000000000000000000000000000000000000000000000000000000000000000000000000000000000000000000000000000000000001ca03f233d79552bc248439085d67153d24ba6d66d63176c68db0df985268395ad74a00c54da2fe961eeafbb82d2f5fdf960a762a29d900987029ae6dc91760028a448",
                    "logs" : "0x1dcc4de8dec75d7aab85b567b6ccd41ad312451b948a7413f0a142fd40d49347"
                },
                {
                    "indexes" : {
                        "data" : 0,
                        "gas" : 3,
                        "value" : 0
                    },
                    "hash" : "0x1405b93ce933dc5c13d5fcabc1e5c7bafc37a69590ed288bbb1861d873643aec",
                    "txbytes" : "0xf90166070a83030d4094c305c901078781c232a2a521c2af7980f8385ee980b9010430c8d1da000000000000000000000000000000000000000000000000000000000000002000000000000000000000000000000000000000000000000000000000000000c00000000000000000000000000000000000000000000000000000000000000000000000000000000000000000000000000000000000000000000000000000000000000000000000000000000000000000000000000000000000000000000000010000000000000000000000000000000000000000000000000000000000000002000000000000000000000000000000000000000000000000000000000000000000000000000000000000000000000000000000000000000000000000000000001ca0c7062b31267e7a83a035d56d71fa9d50221a8812240e15eb98f44a9cf5964e86a04a8b60a0c8328fc6985fa478007132e81f8e7c3926ffdf867a9cf03c18c780c4",
                    "logs" : "0x1dcc4de8dec75d7aab85b567b6ccd41ad312451b948a7413f0a142fd40d49347"
                }
            ],
            "Istanbul" : [
                {
                    "indexes" : {
                        "data" : 0,
                        "gas" : 0,
                        "value" : 0
                    },
                    "hash" : "0xb7aac1706cbe4d3b8f9dab73954d70254735a578f2402b548ad1edf5fba41c25",
                    "txbytes" : "0xf90165070a82aa2094c305c901078781c232a2a521c2af7980f8385ee980b9010430c8d1da000000000000000000000000000000000000000000000000000000000000002000000000000000000000000000000000000000000000000000000000000000c00000000000000000000000000000000000000000000000000000000000000000000000000000000000000000000000000000000000000000000000000000000000000000000000000000000000000000000000000000000000000000000000010000000000000000000000000000000000000000000000000000000000000002000000000000000000000000000000000000000000000000000000000000000000000000000000000000000000000000000000000000000000000000000000001ca0f8e7f38b06c4356f2aaa5d9c5850275d47d709df4718f8a7468856e03b77c46fa05d7c024521b44893ff428976600b3fa0e7d597a7cd9640c3e21db5f142e6f6cb",
                    "logs" : "0x1dcc4de8dec75d7aab85b567b6ccd41ad312451b948a7413f0a142fd40d49347"
                },
                {
                    "indexes" : {
                        "data" : 0,
                        "gas" : 1,
                        "value" : 0
                    },
                    "hash" : "0x924cabac7b01f72893839aff6ef78022776a6614bd8c10b304290b0d48e8c0fa",
                    "txbytes" : "0xf90166070a83015f9094c305c901078781c232a2a521c2af7980f8385ee980b9010430c8d1da000000000000000000000000000000000000000000000000000000000000002000000000000000000000000000000000000000000000000000000000000000c00000000000000000000000000000000000000000000000000000000000000000000000000000000000000000000000000000000000000000000000000000000000000000000000000000000000000000000000000000000000000000000000010000000000000000000000000000000000000000000000000000000000000002000000000000000000000000000000000000000000000000000000000000000000000000000000000000000000000000000000000000000000000000000000001ca05731b1789f899357168e6f18964f4b05747ddab46723dac72483823e5e72620fa0601f7c6bf3a6c07e590ab7703f6d3b30617158f28787ee31c0c7778f98f2ee67",
                    "logs" : "0x1dcc4de8dec75d7aab85b567b6ccd41ad312451b948a7413f0a142fd40d49347"
                },
                {
                    "indexes" : {
                        "data" : 0,
                        "gas" : 2,
                        "value" : 0
                    },
                    "hash" : "0x924cabac7b01f72893839aff6ef78022776a6614bd8c10b304290b0d48e8c0fa",
                    "txbytes" : "0xf90166070a8301adb094c305c901078781c232a2a521c2af7980f8385ee980b9010430c8d1da000000000000000000000000000000000000000000000000000000000000002000000000000000000000000000000000000000000000000000000000000000c00000000000000000000000000000000000000000000000000000000000000000000000000000000000000000000000000000000000000000000000000000000000000000000000000000000000000000000000000000000000000000000000010000000000000000000000000000000000000000000000000000000000000002000000000000000000000000000000000000000000000000000000000000000000000000000000000000000000000000000000000000000000000000000000001ca03f233d79552bc248439085d67153d24ba6d66d63176c68db0df985268395ad74a00c54da2fe961eeafbb82d2f5fdf960a762a29d900987029ae6dc91760028a448",
                    "logs" : "0x1dcc4de8dec75d7aab85b567b6ccd41ad312451b948a7413f0a142fd40d49347"
                },
                {
                    "indexes" : {
                        "data" : 0,
                        "gas" : 3,
                        "value" : 0
                    },
                    "hash" : "0x924cabac7b01f72893839aff6ef78022776a6614bd8c10b304290b0d48e8c0fa",
                    "txbytes" : "0xf90166070a83030d4094c305c901078781c232a2a521c2af7980f8385ee980b9010430c8d1da000000000000000000000000000000000000000000000000000000000000002000000000000000000000000000000000000000000000000000000000000000c00000000000000000000000000000000000000000000000000000000000000000000000000000000000000000000000000000000000000000000000000000000000000000000000000000000000000000000000000000000000000000000000010000000000000000000000000000000000000000000000000000000000000002000000000000000000000000000000000000000000000000000000000000000000000000000000000000000000000000000000000000000000000000000000001ca0c7062b31267e7a83a035d56d71fa9d50221a8812240e15eb98f44a9cf5964e86a04a8b60a0c8328fc6985fa478007132e81f8e7c3926ffdf867a9cf03c18c780c4",
                    "logs" : "0x1dcc4de8dec75d7aab85b567b6ccd41ad312451b948a7413f0a142fd40d49347"
                }
            ],
            "London" : [
                {
                    "indexes" : {
                        "data" : 0,
                        "gas" : 0,
                        "value" : 0
                    },
                    "hash" : "0xd3f10df2ecd6c3baf3d752e975c5b0d367971b6e1dff53f471b68b190279cb1c",
                    "txbytes" : "0xf90165070a82aa2094c305c901078781c232a2a521c2af7980f8385ee980b9010430c8d1da000000000000000000000000000000000000000000000000000000000000002000000000000000000000000000000000000000000000000000000000000000c00000000000000000000000000000000000000000000000000000000000000000000000000000000000000000000000000000000000000000000000000000000000000000000000000000000000000000000000000000000000000000000000010000000000000000000000000000000000000000000000000000000000000002000000000000000000000000000000000000000000000000000000000000000000000000000000000000000000000000000000000000000000000000000000001ca0f8e7f38b06c4356f2aaa5d9c5850275d47d709df4718f8a7468856e03b77c46fa05d7c024521b44893ff428976600b3fa0e7d597a7cd9640c3e21db5f142e6f6cb",
                    "logs" : "0x1dcc4de8dec75d7aab85b567b6ccd41ad312451b948a7413f0a142fd40d49347"
                },
                {
                    "indexes" : {
                        "data" : 0,
                        "gas" : 1,
                        "value" : 0
                    },
                    "hash" : "0x2fefa2fa2c864ce310ed9f390b7632d279328ec4c6ad8d67369e0b5a6e3fe42f",
                    "txbytes" : "0xf90166070a83015f9094c305c901078781c232a2a521c2af7980f8385ee980b9010430c8d1da000000000000000000000000000000000000000000000000000000000000002000000000000000000000000000000000000000000000000000000000000000c00000000000000000000000000000000000000000000000000000000000000000000000000000000000000000000000000000000000000000000000000000000000000000000000000000000000000000000000000000000000000000000000010000000000000000000000000000000000000000000000000000000000000002000000000000000000000000000000000000000000000000000000000000000000000000000000000000000000000000000000000000000000000000000000001ca05731b1789f899357168e6f18964f4b05747ddab46723dac72483823e5e72620fa0601f7c6bf3a6c07e590ab7703f6d3b30617158f28787ee31c0c7778f98f2ee67",
                    "logs" : "0x1dcc4de8dec75d7aab85b567b6ccd41ad312451b948a7413f0a142fd40d49347"
                },
                {
                    "indexes" : {
                        "data" : 0,
                        "gas" : 2,
                        "value" : 0
                    },
                    "hash" : "0x2fefa2fa2c864ce310ed9f390b7632d279328ec4c6ad8d67369e0b5a6e3fe42f",
                    "txbytes" : "0xf90166070a8301adb094c305c901078781c232a2a521c2af7980f8385ee980b9010430c8d1da000000000000000000000000000000000000000000000000000000000000002000000000000000000000000000000000000000000000000000000000000000c00000000000000000000000000000000000000000000000000000000000000000000000000000000000000000000000000000000000000000000000000000000000000000000000000000000000000000000000000000000000000000000000010000000000000000000000000000000000000000000000000000000000000002000000000000000000000000000000000000000000000000000000000000000000000000000000000000000000000000000000000000000000000000000000001ca03f233d79552bc248439085d67153d24ba6d66d63176c68db0df985268395ad74a00c54da2fe961eeafbb82d2f5fdf960a762a29d900987029ae6dc91760028a448",
                    "logs" : "0x1dcc4de8dec75d7aab85b567b6ccd41ad312451b948a7413f0a142fd40d49347"
                },
                {
                    "indexes" : {
                        "data" : 0,
                        "gas" : 3,
                        "value" : 0
                    },
                    "hash" : "0x2fefa2fa2c864ce310ed9f390b7632d279328ec4c6ad8d67369e0b5a6e3fe42f",
                    "txbytes" : "0xf90166070a83030d4094c305c901078781c232a2a521c2af7980f8385ee980b9010430c8d1da000000000000000000000000000000000000000000000000000000000000002000000000000000000000000000000000000000000000000000000000000000c00000000000000000000000000000000000000000000000000000000000000000000000000000000000000000000000000000000000000000000000000000000000000000000000000000000000000000000000000000000000000000000000010000000000000000000000000000000000000000000000000000000000000002000000000000000000000000000000000000000000000000000000000000000000000000000000000000000000000000000000000000000000000000000000001ca0c7062b31267e7a83a035d56d71fa9d50221a8812240e15eb98f44a9cf5964e86a04a8b60a0c8328fc6985fa478007132e81f8e7c3926ffdf867a9cf03c18c780c4",
                    "logs" : "0x1dcc4de8dec75d7aab85b567b6ccd41ad312451b948a7413f0a142fd40d49347"
                }
            ]
        },
        "pre" : {
            "0x0000000000000000000000000000000000000000" : {
                "balance" : "0x01",
                "code" : "0x",
                "nonce" : "0x00",
                "storage" : {
                }
            },
            "0x0000000000000000000000000000000000000001" : {
                "balance" : "0x01",
                "code" : "0x",
                "nonce" : "0x00",
                "storage" : {
                }
            },
            "0x0000000000000000000000000000000000000002" : {
                "balance" : "0x01",
                "code" : "0x",
                "nonce" : "0x00",
                "storage" : {
                }
            },
            "0x0000000000000000000000000000000000000003" : {
                "balance" : "0x01",
                "code" : "0x",
                "nonce" : "0x00",
                "storage" : {
                }
            },
            "0x0000000000000000000000000000000000000004" : {
                "balance" : "0x01",
                "code" : "0x",
                "nonce" : "0x00",
                "storage" : {
                }
            },
            "0x0000000000000000000000000000000000000005" : {
                "balance" : "0x01",
                "code" : "0x",
                "nonce" : "0x00",
                "storage" : {
                }
            },
            "0x0000000000000000000000000000000000000006" : {
                "balance" : "0x01",
                "code" : "0x",
                "nonce" : "0x00",
                "storage" : {
                }
            },
            "0x0000000000000000000000000000000000000007" : {
                "balance" : "0x01",
                "code" : "0x",
                "nonce" : "0x00",
                "storage" : {
                }
            },
            "0x10a1c1cb95c92ec31d3f22c66eef1d9f3f258c6b" : {
                "balance" : "0x0de0b6b3a7640000",
                "code" : "0x",
                "nonce" : "0x00",
                "storage" : {
                }
            },
            "0x13cbb8d99c6c4e0f2728c7d72606e78a29c4e224" : {
                "balance" : "0x0de0b6b3a7640000",
                "code" : "0x",
                "nonce" : "0x00",
                "storage" : {
                }
            },
            "0x24143873e0e0815fdcbcffdbe09c979cbf9ad013" : {
                "balance" : "0x0de0b6b3a7640000",
                "code" : "0x",
                "nonce" : "0x00",
                "storage" : {
                }
            },
            "0x3535353535353535353535353535353535353535" : {
                "balance" : "0x05f36e",
                "code" : "0x",
                "nonce" : "0x00",
                "storage" : {
                }
            },
            "0x598443f1880ef585b21f1d7585bd0577402861e5" : {
                "balance" : "0x0de0b6b3a7640000",
                "code" : "0x",
                "nonce" : "0x00",
                "storage" : {
                }
            },
            "0x77db2bebba79db42a978f896968f4afce746ea1f" : {
                "balance" : "0x0de0b6b3a7640000",
                "code" : "0x",
                "nonce" : "0x00",
                "storage" : {
                }
            },
            "0x7d577a597b2742b498cb5cf0c26cdcd726d39e6e" : {
                "balance" : "0x0de0b6b3a7640000",
                "code" : "0x",
                "nonce" : "0x00",
                "storage" : {
                }
            },
            "0x82a978b3f5962a5b0957d9ee9eef472ee55b42f1" : {
                "balance" : "0x0de0b6b3a75e0c92",
                "code" : "0x",
                "nonce" : "0x07",
                "storage" : {
                }
            },
            "0x90f0b1ebbba1c1936aff7aaf20a7878ff9e04b6c" : {
                "balance" : "0x0de0b6b3a7640000",
                "code" : "0x",
                "nonce" : "0x00",
                "storage" : {
                }
            },
            "0xc305c901078781c232a2a521c2af7980f8385ee9" : {
                "balance" : "0x00",
                "code" : "0x600035601c52740100000000000000000000000000000000000000006020526fffffffffffffffffffffffffffffffff6040527fffffffffffffffffffffffffffffffff000000000000000000000000000000016060527402540be3fffffffffffffffffffffffffdabf41c006080527ffffffffffffffffffffffffdabf41c00000000000000000000000002540be40060a0526330c8d1da600051141561012b5760c06004356004013511151558576004356004013560200160043560040161014037604061026061014051610160600060066305f5e0fff11558576040610240526102406060806102c0828460006004601bf15050506102c08051602082012090506000556102c060206020820352604081510160206001820306601f820103905060208203f350005b",
                "nonce" : "0x01",
                "storage" : {
                }
            },
            "0xdceceaf3fc5c0a63d195d69b1a90011b7b19650d" : {
                "balance" : "0x0de0b6b3a7640000",
                "code" : "0x",
                "nonce" : "0x00",
                "storage" : {
                }
            },
            "0xe0fc04fa2d34a66b779fd5cee748268032a146c0" : {
                "balance" : "0x0de0b6b3a7640000",
                "code" : "0x",
                "nonce" : "0x00",
                "storage" : {
                }
            }
        },
        "transaction" : {
            "data" : [
                "0x30c8d1da000000000000000000000000000000000000000000000000000000000000002000000000000000000000000000000000000000000000000000000000000000c0000000000000000000000000000000000000000000000000000000000000000000000000000000000000000000000000000000000000000000000000000000000000000000000000000000000000000000000000000000000000000000000001000000000000000000000000000000000000000000000000000000000000000200000000000000000000000000000000000000000000000000000000000000000000000000000000000000000000000000000000000000000000000000000000"
            ],
            "gasPrice" : "0x0a",
            "gasLimit" : [
                "0xaa20",
                "0x015f90",
                "0x01adb0",
                "0x030d40"
            ],
            "nonce" : "0x07",
            "secretKey" : "0x044852b2a670ade5407e78fb2863c51de9fcb96542a07186fe3aeda6bb8a116d",
            "to" : "0xc305c901078781c232a2a521c2af7980f8385ee9",
            "value" : [
                "0x00"
            ]
        }
    }
}