{
    "ecadd_0-0_1-2_25000_128" : {
        "_info" : {
            "comment" : "Puts the points (0, 0) and (1, 2) into the ECADD precompile, truncating or expanding the input data to 128 bytes. Gives the execution 25000 bytes",
            "filling-rpc-server" : "evm version 1.10.4-unstable-966ee3ae-20210528",
            "filling-tool-version" : "retesteth-0.1.1-eip1559+commit.658fc3a8.Linux.g++",
            "lllcversion" : "Version: 0.5.14-develop.2021.5.18+commit.14c9d5de.mod.Linux.g++",
            "source" : "src/GeneralStateTestsFiller/stZeroKnowledge2/ecadd_0-0_1-2_25000_128Filler.json",
            "sourceHash" : "399fbefd3cf1029bf724989296053bac7a1d5b9458ca1605a1edbc1af4a2adb5"
        },
        "env" : {
            "currentCoinbase" : "0x3535353535353535353535353535353535353535",
            "currentDifficulty" : "0x020000",
            "currentNumber" : "0x01",
            "currentTimestamp" : "0x03e8",
            "previousHash" : "0xc6745cf3cada515bbfb9573261c82547e0b8f9e3d5dd382e464704a84e47b5ad",
            "currentGasLimit" : "0x05f5e100"
        },
        "post" : {
            "Berlin" : [
                {
                    "indexes" : {
                        "data" : 0,
                        "gas" : 0,
                        "value" : 0
                    },
                    "hash" : "0xb1de742c7165c06f3d77f9ebb63deecc63b40419eb22fa71042ffe2dc68dbc5a",
                    "txbytes" : "0xf90124180a82b8c094c305c901078781c232a2a521c2af7980f8385ee980b8c430c8d1da0000000000000000000000000000000000000000000000000000000000000020000000000000000000000000000000000000000000000000000000000000008000000000000000000000000000000000000000000000000000000000000000000000000000000000000000000000000000000000000000000000000000000000000000000000000000000000000000000000000000000000000000000000000100000000000000000000000000000000000000000000000000000000000000021ba02542cc0a8a3bf724106b608f92a8c5e06608cf9905651aa03a67d3897e8f7703a01dee8d6e7e0cdf0ab1f7fb7707b33b04c28a7ae5c7da67a61639b5f22df61254",
                    "logs" : "0x1dcc4de8dec75d7aab85b567b6ccd41ad312451b948a7413f0a142fd40d49347"
                },
                {
                    "indexes" : {
                        "data" : 0,
                        "gas" : 1,
                        "value" : 0
                    },
                    "hash" : "0xb1de742c7165c06f3d77f9ebb63deecc63b40419eb22fa71042ffe2dc68dbc5a",
                    "txbytes" : "0xf90125180a83015f9094c305c901078781c232a2a521c2af7980f8385ee980b8c430c8d1da0000000000000000000000000000000000000000000000000000000000000020000000000000000000000000000000000000000000000000000000000000008000000000000000000000000000000000000000000000000000000000000000000000000000000000000000000000000000000000000000000000000000000000000000000000000000000000000000000000000000000000000000000000000100000000000000000000000000000000000000000000000000000000000000021ba0588f57ebc993f2bc3d9f6134c23c30f9d9cbd951377732057f6f73195d42c319a038a2e9af823ceff6ad7ca5963804e3c96caa4f3b29c8d2d676b83cf1bd5ed46d",
                    "logs" : "0x1dcc4de8dec75d7aab85b567b6ccd41ad312451b948a7413f0a142fd40d49347"
                },
                {
                    "indexes" : {
                        "data" : 0,
                        "gas" : 2,
                        "value" : 0
                    },
                    "hash" : "0xb1de742c7165c06f3d77f9ebb63deecc63b40419eb22fa71042ffe2dc68dbc5a",
                    "txbytes" : "0xf90125180a8301adb094c305c901078781c232a2a521c2af7980f8385ee980b8c430c8d1da0000000000000000000000000000000000000000000000000000000000000020000000000000000000000000000000000000000000000000000000000000008000000000000000000000000000000000000000000000000000000000000000000000000000000000000000000000000000000000000000000000000000000000000000000000000000000000000000000000000000000000000000000000000100000000000000000000000000000000000000000000000000000000000000021ba08b16c1bfcc9ea2397477d2fceded3f0910ff07c0b06ffda9c9ad336d5eeee303a066d6b6ef10a898d4d974cef61017891338112e62dc7ce3befeae3ef20618565c",
                    "logs" : "0x1dcc4de8dec75d7aab85b567b6ccd41ad312451b948a7413f0a142fd40d49347"
                },
                {
                    "indexes" : {
                        "data" : 0,
                        "gas" : 3,
                        "value" : 0
                    },
                    "hash" : "0xb1de742c7165c06f3d77f9ebb63deecc63b40419eb22fa71042ffe2dc68dbc5a",
                    "txbytes" : "0xf90125180a83030d4094c305c901078781c232a2a521c2af7980f8385ee980b8c430c8d1da0000000000000000000000000000000000000000000000000000000000000020000000000000000000000000000000000000000000000000000000000000008000000000000000000000000000000000000000000000000000000000000000000000000000000000000000000000000000000000000000000000000000000000000000000000000000000000000000000000000000000000000000000000000100000000000000000000000000000000000000000000000000000000000000021ba0e7b732003538d488f6d712a6b93f102a8f438669f72d0093555278f0475631d8a01458f9fe0decf607f45b8ceb025bf28d6965112ef7623ceebbcdb533227debb3",
                    "logs" : "0x1dcc4de8dec75d7aab85b567b6ccd41ad312451b948a7413f0a142fd40d49347"
                }
            ],
            "Istanbul" : [
                {
                    "indexes" : {
                        "data" : 0,
                        "gas" : 0,
                        "value" : 0
                    },
                    "hash" : "0x34716b5876a3cc9a794116d852a0e887143137550271cba53d58748fcb34e14f",
                    "txbytes" : "0xf90124180a82b8c094c305c901078781c232a2a521c2af7980f8385ee980b8c430c8d1da0000000000000000000000000000000000000000000000000000000000000020000000000000000000000000000000000000000000000000000000000000008000000000000000000000000000000000000000000000000000000000000000000000000000000000000000000000000000000000000000000000000000000000000000000000000000000000000000000000000000000000000000000000000100000000000000000000000000000000000000000000000000000000000000021ba02542cc0a8a3bf724106b608f92a8c5e06608cf9905651aa03a67d3897e8f7703a01dee8d6e7e0cdf0ab1f7fb7707b33b04c28a7ae5c7da67a61639b5f22df61254",
                    "logs" : "0x1dcc4de8dec75d7aab85b567b6ccd41ad312451b948a7413f0a142fd40d49347"
                },
                {
                    "indexes" : {
                        "data" : 0,
                        "gas" : 1,
                        "value" : 0
                    },
                    "hash" : "0x34716b5876a3cc9a794116d852a0e887143137550271cba53d58748fcb34e14f",
                    "txbytes" : "0xf90125180a83015f9094c305c901078781c232a2a521c2af7980f8385ee980b8c430c8d1da0000000000000000000000000000000000000000000000000000000000000020000000000000000000000000000000000000000000000000000000000000008000000000000000000000000000000000000000000000000000000000000000000000000000000000000000000000000000000000000000000000000000000000000000000000000000000000000000000000000000000000000000000000000100000000000000000000000000000000000000000000000000000000000000021ba0588f57ebc993f2bc3d9f6134c23c30f9d9cbd951377732057f6f73195d42c319a038a2e9af823ceff6ad7ca5963804e3c96caa4f3b29c8d2d676b83cf1bd5ed46d",
                    "logs" : "0x1dcc4de8dec75d7aab85b567b6ccd41ad312451b948a7413f0a142fd40d49347"
                },
                {
                    "indexes" : {
                        "data" : 0,
                        "gas" : 2,
                        "value" : 0
                    },
                    "hash" : "0x34716b5876a3cc9a794116d852a0e887143137550271cba53d58748fcb34e14f",
                    "txbytes" : "0xf90125180a8301adb094c305c901078781c232a2a521c2af7980f8385ee980b8c430c8d1da0000000000000000000000000000000000000000000000000000000000000020000000000000000000000000000000000000000000000000000000000000008000000000000000000000000000000000000000000000000000000000000000000000000000000000000000000000000000000000000000000000000000000000000000000000000000000000000000000000000000000000000000000000000100000000000000000000000000000000000000000000000000000000000000021ba08b16c1bfcc9ea2397477d2fceded3f0910ff07c0b06ffda9c9ad336d5eeee303a066d6b6ef10a898d4d974cef61017891338112e62dc7ce3befeae3ef20618565c",
                    "logs" : "0x1dcc4de8dec75d7aab85b567b6ccd41ad312451b948a7413f0a142fd40d49347"
                },
                {
                    "indexes" : {
                        "data" : 0,
                        "gas" : 3,
                        "value" : 0
                    },
                    "hash" : "0x34716b5876a3cc9a794116d852a0e887143137550271cba53d58748fcb34e14f",
                    "txbytes" : "0xf90125180a83030d4094c305c901078781c232a2a521c2af7980f8385ee980b8c430c8d1da0000000000000000000000000000000000000000000000000000000000000020000000000000000000000000000000000000000000000000000000000000008000000000000000000000000000000000000000000000000000000000000000000000000000000000000000000000000000000000000000000000000000000000000000000000000000000000000000000000000000000000000000000000000100000000000000000000000000000000000000000000000000000000000000021ba0e7b732003538d488f6d712a6b93f102a8f438669f72d0093555278f0475631d8a01458f9fe0decf607f45b8ceb025bf28d6965112ef7623ceebbcdb533227debb3",
                    "logs" : "0x1dcc4de8dec75d7aab85b567b6ccd41ad312451b948a7413f0a142fd40d49347"
                }
            ],
            "London" : [
                {
                    "indexes" : {
                        "data" : 0,
                        "gas" : 0,
                        "value" : 0
                    },
                    "hash" : "0x92233542e27d1cf8ac5a55c7b80c8bd221ce2757642e2f7a37aa14c62e366dec",
                    "txbytes" : "0xf90124180a82b8c094c305c901078781c232a2a521c2af7980f8385ee980b8c430c8d1da0000000000000000000000000000000000000000000000000000000000000020000000000000000000000000000000000000000000000000000000000000008000000000000000000000000000000000000000000000000000000000000000000000000000000000000000000000000000000000000000000000000000000000000000000000000000000000000000000000000000000000000000000000000100000000000000000000000000000000000000000000000000000000000000021ba02542cc0a8a3bf724106b608f92a8c5e06608cf9905651aa03a67d3897e8f7703a01dee8d6e7e0cdf0ab1f7fb7707b33b04c28a7ae5c7da67a61639b5f22df61254",
                    "logs" : "0x1dcc4de8dec75d7aab85b567b6ccd41ad312451b948a7413f0a142fd40d49347"
                },
                {
                    "indexes" : {
                        "data" : 0,
                        "gas" : 1,
                        "value" : 0
                    },
                    "hash" : "0x92233542e27d1cf8ac5a55c7b80c8bd221ce2757642e2f7a37aa14c62e366dec",
                    "txbytes" : "0xf90125180a83015f9094c305c901078781c232a2a521c2af7980f8385ee980b8c430c8d1da0000000000000000000000000000000000000000000000000000000000000020000000000000000000000000000000000000000000000000000000000000008000000000000000000000000000000000000000000000000000000000000000000000000000000000000000000000000000000000000000000000000000000000000000000000000000000000000000000000000000000000000000000000000100000000000000000000000000000000000000000000000000000000000000021ba0588f57ebc993f2bc3d9f6134c23c30f9d9cbd951377732057f6f73195d42c319a038a2e9af823ceff6ad7ca5963804e3c96caa4f3b29c8d2d676b83cf1bd5ed46d",
                    "logs" : "0x1dcc4de8dec75d7aab85b567b6ccd41ad312451b948a7413f0a142fd40d49347"
                },
                {
                    "indexes" : {
                        "data" : 0,
                        "gas" : 2,
                        "value" : 0
                    },
                    "hash" : "0x92233542e27d1cf8ac5a55c7b80c8bd221ce2757642e2f7a37aa14c62e366dec",
                    "txbytes" : "0xf90125180a8301adb094c305c901078781c232a2a521c2af7980f8385ee980b8c430c8d1da0000000000000000000000000000000000000000000000000000000000000020000000000000000000000000000000000000000000000000000000000000008000000000000000000000000000000000000000000000000000000000000000000000000000000000000000000000000000000000000000000000000000000000000000000000000000000000000000000000000000000000000000000000000100000000000000000000000000000000000000000000000000000000000000021ba08b16c1bfcc9ea2397477d2fceded3f0910ff07c0b06ffda9c9ad336d5eeee303a066d6b6ef10a898d4d974cef61017891338112e62dc7ce3befeae3ef20618565c",
                    "logs" : "0x1dcc4de8dec75d7aab85b567b6ccd41ad312451b948a7413f0a142fd40d49347"
                },
                {
                    "indexes" : {
                        "data" : 0,
                        "gas" : 3,
                        "value" : 0
                    },
                    "hash" : "0x92233542e27d1cf8ac5a55c7b80c8bd221ce2757642e2f7a37aa14c62e366dec",
                    "txbytes" : "0xf90125180a83030d4094c305c901078781c232a2a521c2af7980f8385ee980b8c430c8d1da0000000000000000000000000000000000000000000000000000000000000020000000000000000000000000000000000000000000000000000000000000008000000000000000000000000000000000000000000000000000000000000000000000000000000000000000000000000000000000000000000000000000000000000000000000000000000000000000000000000000000000000000000000000100000000000000000000000000000000000000000000000000000000000000021ba0e7b732003538d488f6d712a6b93f102a8f438669f72d0093555278f0475631d8a01458f9fe0decf607f45b8ceb025bf28d6965112ef7623ceebbcdb533227debb3",
                    "logs" : "0x1dcc4de8dec75d7aab85b567b6ccd41ad312451b948a7413f0a142fd40d49347"
                }
            ]
        },
        "pre" : {
            "0x0000000000000000000000000000000000000000" : {
                "balance" : "0x01",
                "code" : "0x",
                "nonce" : "0x00",
                "storage" : {
                }
            },
            "0x0000000000000000000000000000000000000001" : {
                "balance" : "0x01",
                "code" : "0x",
                "nonce" : "0x00",
                "storage" : {
                }
            },
            "0x0000000000000000000000000000000000000002" : {
                "balance" : "0x01",
                "code" : "0x",
                "nonce" : "0x00",
                "storage" : {
                }
            },
            "0x0000000000000000000000000000000000000003" : {
                "balance" : "0x01",
                "code" : "0x",
                "nonce" : "0x00",
                "storage" : {
                }
            },
            "0x0000000000000000000000000000000000000004" : {
                "balance" : "0x01",
                "code" : "0x",
                "nonce" : "0x00",
                "storage" : {
                }
            },
            "0x0000000000000000000000000000000000000005" : {
                "balance" : "0x01",
                "code" : "0x",
                "nonce" : "0x00",
                "storage" : {
                }
            },
            "0x0000000000000000000000000000000000000006" : {
                "balance" : "0x01",
                "code" : "0x",
                "nonce" : "0x00",
                "storage" : {
                }
            },
            "0x0000000000000000000000000000000000000007" : {
                "balance" : "0x01",
                "code" : "0x",
                "nonce" : "0x00",
                "storage" : {
                }
            },
            "0x10a1c1cb95c92ec31d3f22c66eef1d9f3f258c6b" : {
                "balance" : "0x0de0b6b3a7640000",
                "code" : "0x",
                "nonce" : "0x00",
                "storage" : {
                }
            },
            "0x13cbb8d99c6c4e0f2728c7d72606e78a29c4e224" : {
                "balance" : "0x0de0b6b3a7640000",
                "code" : "0x",
                "nonce" : "0x00",
                "storage" : {
                }
            },
            "0x24143873e0e0815fdcbcffdbe09c979cbf9ad013" : {
                "balance" : "0x0de0b6b3a7640000",
                "code" : "0x",
                "nonce" : "0x00",
                "storage" : {
                }
            },
            "0x3535353535353535353535353535353535353535" : {
                "balance" : "0x109eb7",
                "code" : "0x",
                "nonce" : "0x00",
                "storage" : {
                }
            },
            "0x598443f1880ef585b21f1d7585bd0577402861e5" : {
                "balance" : "0x0de0b6b3a7640000",
                "code" : "0x",
                "nonce" : "0x00",
                "storage" : {
                }
            },
            "0x77db2bebba79db42a978f896968f4afce746ea1f" : {
                "balance" : "0x0de0b6b3a7640000",
                "code" : "0x",
                "nonce" : "0x00",
                "storage" : {
                }
            },
            "0x7d577a597b2742b498cb5cf0c26cdcd726d39e6e" : {
                "balance" : "0x0de0b6b3a7640000",
                "code" : "0x",
                "nonce" : "0x00",
                "storage" : {
                }
            },
            "0x82a978b3f5962a5b0957d9ee9eef472ee55b42f1" : {
                "balance" : "0x0de0b6b3a7536149",
                "code" : "0x",
                "nonce" : "0x18",
                "storage" : {
                }
            },
            "0x90f0b1ebbba1c1936aff7aaf20a7878ff9e04b6c" : {
                "balance" : "0x0de0b6b3a7640000",
                "code" : "0x",
                "nonce" : "0x00",
                "storage" : {
                }
            },
            "0xc305c901078781c232a2a521c2af7980f8385ee9" : {
                "balance" : "0x00",
                "code" : "0x600035601c52740100000000000000000000000000000000000000006020526fffffffffffffffffffffffffffffffff6040527fffffffffffffffffffffffffffffffff000000000000000000000000000000016060527402540be3fffffffffffffffffffffffffdabf41c006080527ffffffffffffffffffffffffdabf41c00000000000000000000000002540be40060a0526330c8d1da600051141561012b5760c06004356004013511151558576004356004013560200160043560040161014037604061026061014051610160600060066305f5e0fff11558576040610240526102406060806102c0828460006004601bf15050506102c08051602082012090506000556102c060206020820352604081510160206001820306601f820103905060208203f350005b",
                "nonce" : "0x01",
                "storage" : {
                    "0x00" : "0xad3228b676f7d3cd4284a5443f17f1962b36e491b30a40b2405849e597ba5fb5"
                }
            },
            "0xdceceaf3fc5c0a63d195d69b1a90011b7b19650d" : {
                "balance" : "0x0de0b6b3a7640000",
                "code" : "0x",
                "nonce" : "0x00",
                "storage" : {
                }
            },
            "0xe0fc04fa2d34a66b779fd5cee748268032a146c0" : {
                "balance" : "0x0de0b6b3a7640000",
                "code" : "0x",
                "nonce" : "0x00",
                "storage" : {
                }
            }
        },
        "transaction" : {
            "data" : [
                "0x30c8d1da000000000000000000000000000000000000000000000000000000000000002000000000000000000000000000000000000000000000000000000000000000800000000000000000000000000000000000000000000000000000000000000000000000000000000000000000000000000000000000000000000000000000000000000000000000000000000000000000000000000000000000000000000000010000000000000000000000000000000000000000000000000000000000000002"
            ],
            "gasPrice" : "0x0a",
            "gasLimit" : [
                "0xb8c0",
                "0x015f90",
                "0x01adb0",
                "0x030d40"
            ],
            "nonce" : "0x18",
            "secretKey" : "0x044852b2a670ade5407e78fb2863c51de9fcb96542a07186fe3aeda6bb8a116d",
            "to" : "0xc305c901078781c232a2a521c2af7980f8385ee9",
            "value" : [
                "0x00"
            ]
        }
    }
}