{
    "ecadd_1-2_0-0_21000_64" : {
        "_info" : {
            "comment" : "Puts the points (1, 2) and (0, 0) into the ECADD precompile, truncating or expanding the input data to 64 bytes. Gives the execution 21000 bytes",
            "filling-rpc-server" : "evm version 1.10.4-unstable-966ee3ae-20210528",
            "filling-tool-version" : "retesteth-0.1.1-eip1559+commit.658fc3a8.Linux.g++",
            "lllcversion" : "Version: 0.5.14-develop.2021.5.18+commit.14c9d5de.mod.Linux.g++",
            "source" : "src/GeneralStateTestsFiller/stZeroKnowledge2/ecadd_1-2_0-0_21000_64Filler.json",
            "sourceHash" : "430168c8509dad50c1c31823656568d1338fc26f8eaaf422c664660eb89eb9eb"
        },
        "env" : {
            "currentCoinbase" : "0x3535353535353535353535353535353535353535",
            "currentDifficulty" : "0x020000",
            "currentNumber" : "0x01",
            "currentTimestamp" : "0x03e8",
            "previousHash" : "0xc6745cf3cada515bbfb9573261c82547e0b8f9e3d5dd382e464704a84e47b5ad",
            "currentGasLimit" : "0x05f5e100"
        },
        "post" : {
            "Berlin" : [
                {
                    "indexes" : {
                        "data" : 0,
                        "gas" : 0,
                        "value" : 0
                    },
                    "hash" : "0xd7700800c249d3f3e7dc26abe927ef12bd92e39b2cba79350121d878f3fc377f",
                    "txbytes" : "0xf8e4080a82a82094c305c901078781c232a2a521c2af7980f8385ee980b88430c8d1da00000000000000000000000000000000000000000000000000000000000000200000000000000000000000000000000000000000000000000000000000000040000000000000000000000000000000000000000000000000000000000000000100000000000000000000000000000000000000000000000000000000000000021ba0da4c8d057edf06a32494789a37bdeacbd88ecaa1b43bdfec7ad4309f6418b17aa00dabbdaf0fd9477b89336a31004cde5bd6e1a54ffd5e38d1f7b91b34658e280a",
                    "logs" : "0x1dcc4de8dec75d7aab85b567b6ccd41ad312451b948a7413f0a142fd40d49347"
                },
                {
                    "indexes" : {
                        "data" : 0,
                        "gas" : 1,
                        "value" : 0
                    },
                    "hash" : "0x4c1c8c1e2614c6dae87837e8c9291e21cb58b89c30fd682fce40270be87674f3",
                    "txbytes" : "0xf8e5080a83015f9094c305c901078781c232a2a521c2af7980f8385ee980b88430c8d1da00000000000000000000000000000000000000000000000000000000000000200000000000000000000000000000000000000000000000000000000000000040000000000000000000000000000000000000000000000000000000000000000100000000000000000000000000000000000000000000000000000000000000021ba013bd126ad1dab697619cf32611ea6c3663793561c9d1ae1f80d010da410fcd34a0658139c74f8981e61cdef5d11e78f0d45ce045cb87656242134ba2ebca8c3510",
                    "logs" : "0x1dcc4de8dec75d7aab85b567b6ccd41ad312451b948a7413f0a142fd40d49347"
                },
                {
                    "indexes" : {
                        "data" : 0,
                        "gas" : 2,
                        "value" : 0
                    },
                    "hash" : "0x4c1c8c1e2614c6dae87837e8c9291e21cb58b89c30fd682fce40270be87674f3",
                    "txbytes" : "0xf8e5080a8301adb094c305c901078781c232a2a521c2af7980f8385ee980b88430c8d1da00000000000000000000000000000000000000000000000000000000000000200000000000000000000000000000000000000000000000000000000000000040000000000000000000000000000000000000000000000000000000000000000100000000000000000000000000000000000000000000000000000000000000021ca03f7a6c0ae54877632d79265880060895ff324500c950eeac56f0b23a7ab475caa02f88b1015b5e2f643a67ddb0557999a3bfa43e5c4d0eecf387e0a6a45c98ff91",
                    "logs" : "0x1dcc4de8dec75d7aab85b567b6ccd41ad312451b948a7413f0a142fd40d49347"
                },
                {
                    "indexes" : {
                        "data" : 0,
                        "gas" : 3,
                        "value" : 0
                    },
                    "hash" : "0x4c1c8c1e2614c6dae87837e8c9291e21cb58b89c30fd682fce40270be87674f3",
                    "txbytes" : "0xf8e5080a83030d4094c305c901078781c232a2a521c2af7980f8385ee980b88430c8d1da00000000000000000000000000000000000000000000000000000000000000200000000000000000000000000000000000000000000000000000000000000040000000000000000000000000000000000000000000000000000000000000000100000000000000000000000000000000000000000000000000000000000000021ba05cd3938899bb463c2dcab479419b2d4ef046c9052e508cb4e0ebf5d7ad9cfc7da0590f86ee680fd9115c094c9354e407ae7820cd02236fb55d9ca64565eab0b733",
                    "logs" : "0x1dcc4de8dec75d7aab85b567b6ccd41ad312451b948a7413f0a142fd40d49347"
                }
            ],
            "Istanbul" : [
                {
                    "indexes" : {
                        "data" : 0,
                        "gas" : 0,
                        "value" : 0
                    },
                    "hash" : "0xd7700800c249d3f3e7dc26abe927ef12bd92e39b2cba79350121d878f3fc377f",
                    "txbytes" : "0xf8e4080a82a82094c305c901078781c232a2a521c2af7980f8385ee980b88430c8d1da00000000000000000000000000000000000000000000000000000000000000200000000000000000000000000000000000000000000000000000000000000040000000000000000000000000000000000000000000000000000000000000000100000000000000000000000000000000000000000000000000000000000000021ba0da4c8d057edf06a32494789a37bdeacbd88ecaa1b43bdfec7ad4309f6418b17aa00dabbdaf0fd9477b89336a31004cde5bd6e1a54ffd5e38d1f7b91b34658e280a",
                    "logs" : "0x1dcc4de8dec75d7aab85b567b6ccd41ad312451b948a7413f0a142fd40d49347"
                },
                {
                    "indexes" : {
                        "data" : 0,
                        "gas" : 1,
                        "value" : 0
                    },
                    "hash" : "0xa975fa232e0735635998a79cfab847b0a86c70c56df9aeefcd20b957398b68c3",
                    "txbytes" : "0xf8e5080a83015f9094c305c901078781c232a2a521c2af7980f8385ee980b88430c8d1da00000000000000000000000000000000000000000000000000000000000000200000000000000000000000000000000000000000000000000000000000000040000000000000000000000000000000000000000000000000000000000000000100000000000000000000000000000000000000000000000000000000000000021ba013bd126ad1dab697619cf32611ea6c3663793561c9d1ae1f80d010da410fcd34a0658139c74f8981e61cdef5d11e78f0d45ce045cb87656242134ba2ebca8c3510",
                    "logs" : "0x1dcc4de8dec75d7aab85b567b6ccd41ad312451b948a7413f0a142fd40d49347"
                },
                {
                    "indexes" : {
                        "data" : 0,
                        "gas" : 2,
                        "value" : 0
                    },
                    "hash" : "0xa975fa232e0735635998a79cfab847b0a86c70c56df9aeefcd20b957398b68c3",
                    "txbytes" : "0xf8e5080a8301adb094c305c901078781c232a2a521c2af7980f8385ee980b88430c8d1da00000000000000000000000000000000000000000000000000000000000000200000000000000000000000000000000000000000000000000000000000000040000000000000000000000000000000000000000000000000000000000000000100000000000000000000000000000000000000000000000000000000000000021ca03f7a6c0ae54877632d79265880060895ff324500c950eeac56f0b23a7ab475caa02f88b1015b5e2f643a67ddb0557999a3bfa43e5c4d0eecf387e0a6a45c98ff91",
                    "logs" : "0x1dcc4de8dec75d7aab85b567b6ccd41ad312451b948a7413f0a142fd40d49347"
                },
                {
                    "indexes" : {
                        "data" : 0,
                        "gas" : 3,
                        "value" : 0
                    },
                    "hash" : "0xa975fa232e0735635998a79cfab847b0a86c70c56df9aeefcd20b957398b68c3",
                    "txbytes" : "0xf8e5080a83030d4094c305c901078781c232a2a521c2af7980f8385ee980b88430c8d1da00000000000000000000000000000000000000000000000000000000000000200000000000000000000000000000000000000000000000000000000000000040000000000000000000000000000000000000000000000000000000000000000100000000000000000000000000000000000000000000000000000000000000021ba05cd3938899bb463c2dcab479419b2d4ef046c9052e508cb4e0ebf5d7ad9cfc7da0590f86ee680fd9115c094c9354e407ae7820cd02236fb55d9ca64565eab0b733",
                    "logs" : "0x1dcc4de8dec75d7aab85b567b6ccd41ad312451b948a7413f0a142fd40d49347"
                }
            ],
            "London" : [
                {
                    "indexes" : {
                        "data" : 0,
                        "gas" : 0,
                        "value" : 0
                    },
                    "hash" : "0xbed33fba52d84853cce45f03e5df2c90f46f6d5e34ec5467cf3129c155020df4",
                    "txbytes" : "0xf8e4080a82a82094c305c901078781c232a2a521c2af7980f8385ee980b88430c8d1da00000000000000000000000000000000000000000000000000000000000000200000000000000000000000000000000000000000000000000000000000000040000000000000000000000000000000000000000000000000000000000000000100000000000000000000000000000000000000000000000000000000000000021ba0da4c8d057edf06a32494789a37bdeacbd88ecaa1b43bdfec7ad4309f6418b17aa00dabbdaf0fd9477b89336a31004cde5bd6e1a54ffd5e38d1f7b91b34658e280a",
                    "logs" : "0x1dcc4de8dec75d7aab85b567b6ccd41ad312451b948a7413f0a142fd40d49347"
                },
                {
                    "indexes" : {
                        "data" : 0,
                        "gas" : 1,
                        "value" : 0
                    },
                    "hash" : "0x9b67ce8b2d5c3076cb0587ff9732dadb66064531bcdfd714501d17f78291d5bb",
                    "txbytes" : "0xf8e5080a83015f9094c305c901078781c232a2a521c2af7980f8385ee980b88430c8d1da00000000000000000000000000000000000000000000000000000000000000200000000000000000000000000000000000000000000000000000000000000040000000000000000000000000000000000000000000000000000000000000000100000000000000000000000000000000000000000000000000000000000000021ba013bd126ad1dab697619cf32611ea6c3663793561c9d1ae1f80d010da410fcd34a0658139c74f8981e61cdef5d11e78f0d45ce045cb87656242134ba2ebca8c3510",
                    "logs" : "0x1dcc4de8dec75d7aab85b567b6ccd41ad312451b948a7413f0a142fd40d49347"
                },
                {
                    "indexes" : {
                        "data" : 0,
                        "gas" : 2,
                        "value" : 0
                    },
                    "hash" : "0x9b67ce8b2d5c3076cb0587ff9732dadb66064531bcdfd714501d17f78291d5bb",
                    "txbytes" : "0xf8e5080a8301adb094c305c901078781c232a2a521c2af7980f8385ee980b88430c8d1da00000000000000000000000000000000000000000000000000000000000000200000000000000000000000000000000000000000000000000000000000000040000000000000000000000000000000000000000000000000000000000000000100000000000000000000000000000000000000000000000000000000000000021ca03f7a6c0ae54877632d79265880060895ff324500c950eeac56f0b23a7ab475caa02f88b1015b5e2f643a67ddb0557999a3bfa43e5c4d0eecf387e0a6a45c98ff91",
                    "logs" : "0x1dcc4de8dec75d7aab85b567b6ccd41ad312451b948a7413f0a142fd40d49347"
                },
                {
                    "indexes" : {
                        "data" : 0,
                        "gas" : 3,
                        "value" : 0
                    },
                    "hash" : "0x9b67ce8b2d5c3076cb0587ff9732dadb66064531bcdfd714501d17f78291d5bb",
                    "txbytes" : "0xf8e5080a83030d4094c305c901078781c232a2a521c2af7980f8385ee980b88430c8d1da00000000000000000000000000000000000000000000000000000000000000200000000000000000000000000000000000000000000000000000000000000040000000000000000000000000000000000000000000000000000000000000000100000000000000000000000000000000000000000000000000000000000000021ba05cd3938899bb463c2dcab479419b2d4ef046c9052e508cb4e0ebf5d7ad9cfc7da0590f86ee680fd9115c094c9354e407ae7820cd02236fb55d9ca64565eab0b733",
                    "logs" : "0x1dcc4de8dec75d7aab85b567b6ccd41ad312451b948a7413f0a142fd40d49347"
                }
            ]
        },
        "pre" : {
            "0x0000000000000000000000000000000000000000" : {
                "balance" : "0x01",
                "code" : "0x",
                "nonce" : "0x00",
                "storage" : {
                }
            },
            "0x0000000000000000000000000000000000000001" : {
                "balance" : "0x01",
                "code" : "0x",
                "nonce" : "0x00",
                "storage" : {
                }
            },
            "0x0000000000000000000000000000000000000002" : {
                "balance" : "0x01",
                "code" : "0x",
                "nonce" : "0x00",
                "storage" : {
                }
            },
            "0x0000000000000000000000000000000000000003" : {
                "balance" : "0x01",
                "code" : "0x",
                "nonce" : "0x00",
                "storage" : {
                }
            },
            "0x0000000000000000000000000000000000000004" : {
                "balance" : "0x01",
                "code" : "0x",
                "nonce" : "0x00",
                "storage" : {
                }
            },
            "0x0000000000000000000000000000000000000005" : {
                "balance" : "0x01",
                "code" : "0x",
                "nonce" : "0x00",
                "storage" : {
                }
            },
            "0x0000000000000000000000000000000000000006" : {
                "balance" : "0x01",
                "code" : "0x",
                "nonce" : "0x00",
                "storage" : {
                }
            },
            "0x0000000000000000000000000000000000000007" : {
                "balance" : "0x01",
                "code" : "0x",
                "nonce" : "0x00",
                "storage" : {
                }
            },
            "0x10a1c1cb95c92ec31d3f22c66eef1d9f3f258c6b" : {
                "balance" : "0x0de0b6b3a7640000",
                "code" : "0x",
                "nonce" : "0x00",
                "storage" : {
                }
            },
            "0x13cbb8d99c6c4e0f2728c7d72606e78a29c4e224" : {
                "balance" : "0x0de0b6b3a7640000",
                "code" : "0x",
                "nonce" : "0x00",
                "storage" : {
                }
            },
            "0x24143873e0e0815fdcbcffdbe09c979cbf9ad013" : {
                "balance" : "0x0de0b6b3a7640000",
                "code" : "0x",
                "nonce" : "0x00",
                "storage" : {
                }
            },
            "0x3535353535353535353535353535353535353535" : {
                "balance" : "0x069d8e",
                "code" : "0x",
                "nonce" : "0x00",
                "storage" : {
                }
            },
            "0x598443f1880ef585b21f1d7585bd0577402861e5" : {
                "balance" : "0x0de0b6b3a7640000",
                "code" : "0x",
                "nonce" : "0x00",
                "storage" : {
                }
            },
            "0x77db2bebba79db42a978f896968f4afce746ea1f" : {
                "balance" : "0x0de0b6b3a7640000",
                "code" : "0x",
                "nonce" : "0x00",
                "storage" : {
                }
            },
            "0x7d577a597b2742b498cb5cf0c26cdcd726d39e6e" : {
                "balance" : "0x0de0b6b3a7640000",
                "code" : "0x",
                "nonce" : "0x00",
                "storage" : {
                }
            },
            "0x82a978b3f5962a5b0957d9ee9eef472ee55b42f1" : {
                "balance" : "0x0de0b6b3a75d6272",
                "code" : "0x",
                "nonce" : "0x08",
                "storage" : {
                }
            },
            "0x90f0b1ebbba1c1936aff7aaf20a7878ff9e04b6c" : {
                "balance" : "0x0de0b6b3a7640000",
                "code" : "0x",
                "nonce" : "0x00",
                "storage" : {
                }
            },
            "0xc305c901078781c232a2a521c2af7980f8385ee9" : {
                "balance" : "0x00",
                "code" : "0x600035601c52740100000000000000000000000000000000000000006020526fffffffffffffffffffffffffffffffff6040527fffffffffffffffffffffffffffffffff000000000000000000000000000000016060527402540be3fffffffffffffffffffffffffdabf41c006080527ffffffffffffffffffffffffdabf41c00000000000000000000000002540be40060a0526330c8d1da600051141561012b5760c06004356004013511151558576004356004013560200160043560040161014037604061026061014051610160600060066305f5e0fff11558576040610240526102406060806102c0828460006004601bf15050506102c08051602082012090506000556102c060206020820352604081510160206001820306601f820103905060208203f350005b",
                "nonce" : "0x01",
                "storage" : {
                }
            },
            "0xdceceaf3fc5c0a63d195d69b1a90011b7b19650d" : {
                "balance" : "0x0de0b6b3a7640000",
                "code" : "0x",
                "nonce" : "0x00",
                "storage" : {
                }
            },
            "0xe0fc04fa2d34a66b779fd5cee748268032a146c0" : {
                "balance" : "0x0de0b6b3a7640000",
                "code" : "0x",
                "nonce" : "0x00",
                "storage" : {
                }
            }
        },
        "transaction" : {
            "data" : [
                "0x30c8d1da0000000000000000000000000000000000000000000000000000000000000020000000000000000000000000000000000000000000000000000000000000004000000000000000000000000000000000000000000000000000000000000000010000000000000000000000000000000000000000000000000000000000000002"
            ],
            "gasPrice" : "0x0a",
            "gasLimit" : [
                "0xa820",
                "0x015f90",
                "0x01adb0",
                "0x030d40"
            ],
            "nonce" : "0x08",
            "secretKey" : "0x044852b2a670ade5407e78fb2863c51de9fcb96542a07186fe3aeda6bb8a116d",
            "to" : "0xc305c901078781c232a2a521c2af7980f8385ee9",
            "value" : [
                "0x00"
            ]
        }
    }
}