{
    "ecmul_0-3_9935_28000_96" : {
        "_info" : {
            "comment" : "Puts the point (0, 3) and the factor 115792089237316195423570985008687907853269984665640564039457584007913129639935 into the ECMUL precompile, truncating or expanding the input data to 96 bytes. Gives the execution 28000 bytes",
            "filling-rpc-server" : "evm version 1.10.4-unstable-966ee3ae-20210528",
            "filling-tool-version" : "retesteth-0.1.1-eip1559+commit.658fc3a8.Linux.g++",
            "lllcversion" : "Version: 0.5.14-develop.2021.5.18+commit.14c9d5de.mod.Linux.g++",
            "source" : "src/GeneralStateTestsFiller/stZeroKnowledge2/ecmul_0-3_9935_28000_96Filler.json",
            "sourceHash" : "9e9793652fee4538caf1798075d721b1bb59cac4056ccbc52e0cf609fd6027f1"
        },
        "env" : {
            "currentCoinbase" : "0x3535353535353535353535353535353535353535",
            "currentDifficulty" : "0x020000",
            "currentNumber" : "0x01",
            "currentTimestamp" : "0x03e8",
            "previousHash" : "0xc6745cf3cada515bbfb9573261c82547e0b8f9e3d5dd382e464704a84e47b5ad",
            "currentGasLimit" : "0x05f5e100"
        },
        "post" : {
            "Berlin" : [
                {
                    "indexes" : {
                        "data" : 0,
                        "gas" : 0,
                        "value" : 0
                    },
                    "hash" : "0x54545d066646c162a2d1c9cdd0806226bf7dcfcda9fcb38e67a12f61dec12872",
                    "txbytes" : "0xf9010581c10a82cbb894c305c901078781c232a2a521c2af7980f8385ee980b8a430c8d1da0000000000000000000000000000000000000000000000000000000000000020000000000000000000000000000000000000000000000000000000000000006000000000000000000000000000000000000000000000000000000000000000000000000000000000000000000000000000000000000000000000000000000003ffffffffffffffffffffffffffffffffffffffffffffffffffffffffffffffff1ba09a4151039a8df32d9849426b37dbb7af56b23b22412129203e76d3081e7b8215a0267afa6965dd682cb77698db2a81693a4e522d53b42140029821c706f038dbdf",
                    "logs" : "0x1dcc4de8dec75d7aab85b567b6ccd41ad312451b948a7413f0a142fd40d49347"
                },
                {
                    "indexes" : {
                        "data" : 0,
                        "gas" : 1,
                        "value" : 0
                    },
                    "hash" : "0xcdbd9e020f17f932933c05d76b1741f5181b0385c3976d5b9aff1dcd0a5986dc",
                    "txbytes" : "0xf9010681c10a83015f9094c305c901078781c232a2a521c2af7980f8385ee980b8a430c8d1da0000000000000000000000000000000000000000000000000000000000000020000000000000000000000000000000000000000000000000000000000000006000000000000000000000000000000000000000000000000000000000000000000000000000000000000000000000000000000000000000000000000000000003ffffffffffffffffffffffffffffffffffffffffffffffffffffffffffffffff1ca0be5c209ff8c11b8d410e21d23d31b6a1643dd5d498e8c1a28b9f2f71e5f29b5da0580eb42d0d6dd2439c35662629106f40b2ea673ee2f86831bc0d216eb5a23b4f",
                    "logs" : "0x1dcc4de8dec75d7aab85b567b6ccd41ad312451b948a7413f0a142fd40d49347"
                },
                {
                    "indexes" : {
                        "data" : 0,
                        "gas" : 2,
                        "value" : 0
                    },
                    "hash" : "0x06e3888b358b295384b44703e71e28defc4e597dbe2649f17e1c06944317599b",
                    "txbytes" : "0xf9010681c10a8301adb094c305c901078781c232a2a521c2af7980f8385ee980b8a430c8d1da0000000000000000000000000000000000000000000000000000000000000020000000000000000000000000000000000000000000000000000000000000006000000000000000000000000000000000000000000000000000000000000000000000000000000000000000000000000000000000000000000000000000000003ffffffffffffffffffffffffffffffffffffffffffffffffffffffffffffffff1ca051b57f175a53c2a2cb3d8a78c3b2c1b200bf6177a686f2f987bce371ee2ab787a01151d2fcf4399f78a8a16fe636e4d56ba4d8a58b1f301fea4dd5eeef26c666f5",
                    "logs" : "0x1dcc4de8dec75d7aab85b567b6ccd41ad312451b948a7413f0a142fd40d49347"
                },
                {
                    "indexes" : {
                        "data" : 0,
                        "gas" : 3,
                        "value" : 0
                    },
                    "hash" : "0x2c881a1d80804145725412aec6fda948b767657d42d4d75fc14c46d0ee483e8e",
                    "txbytes" : "0xf9010681c10a83030d4094c305c901078781c232a2a521c2af7980f8385ee980b8a430c8d1da0000000000000000000000000000000000000000000000000000000000000020000000000000000000000000000000000000000000000000000000000000006000000000000000000000000000000000000000000000000000000000000000000000000000000000000000000000000000000000000000000000000000000003ffffffffffffffffffffffffffffffffffffffffffffffffffffffffffffffff1ca0872794224c4cc0b3c4d94413402f346ed461a793f5c05eda782d0c17582c6d44a03ce4e25ce00b92e2ca8227f5b0f7f8425dd37170c6341c600a2f3ef4ba49ef39",
                    "logs" : "0x1dcc4de8dec75d7aab85b567b6ccd41ad312451b948a7413f0a142fd40d49347"
                }
            ],
            "Istanbul" : [
                {
                    "indexes" : {
                        "data" : 0,
                        "gas" : 0,
                        "value" : 0
                    },
                    "hash" : "0x54545d066646c162a2d1c9cdd0806226bf7dcfcda9fcb38e67a12f61dec12872",
                    "txbytes" : "0xf9010581c10a82cbb894c305c901078781c232a2a521c2af7980f8385ee980b8a430c8d1da0000000000000000000000000000000000000000000000000000000000000020000000000000000000000000000000000000000000000000000000000000006000000000000000000000000000000000000000000000000000000000000000000000000000000000000000000000000000000000000000000000000000000003ffffffffffffffffffffffffffffffffffffffffffffffffffffffffffffffff1ba09a4151039a8df32d9849426b37dbb7af56b23b22412129203e76d3081e7b8215a0267afa6965dd682cb77698db2a81693a4e522d53b42140029821c706f038dbdf",
                    "logs" : "0x1dcc4de8dec75d7aab85b567b6ccd41ad312451b948a7413f0a142fd40d49347"
                },
                {
                    "indexes" : {
                        "data" : 0,
                        "gas" : 1,
                        "value" : 0
                    },
                    "hash" : "0xcdbd9e020f17f932933c05d76b1741f5181b0385c3976d5b9aff1dcd0a5986dc",
                    "txbytes" : "0xf9010681c10a83015f9094c305c901078781c232a2a521c2af7980f8385ee980b8a430c8d1da0000000000000000000000000000000000000000000000000000000000000020000000000000000000000000000000000000000000000000000000000000006000000000000000000000000000000000000000000000000000000000000000000000000000000000000000000000000000000000000000000000000000000003ffffffffffffffffffffffffffffffffffffffffffffffffffffffffffffffff1ca0be5c209ff8c11b8d410e21d23d31b6a1643dd5d498e8c1a28b9f2f71e5f29b5da0580eb42d0d6dd2439c35662629106f40b2ea673ee2f86831bc0d216eb5a23b4f",
                    "logs" : "0x1dcc4de8dec75d7aab85b567b6ccd41ad312451b948a7413f0a142fd40d49347"
                },
                {
                    "indexes" : {
                        "data" : 0,
                        "gas" : 2,
                        "value" : 0
                    },
                    "hash" : "0x06e3888b358b295384b44703e71e28defc4e597dbe2649f17e1c06944317599b",
                    "txbytes" : "0xf9010681c10a8301adb094c305c901078781c232a2a521c2af7980f8385ee980b8a430c8d1da0000000000000000000000000000000000000000000000000000000000000020000000000000000000000000000000000000000000000000000000000000006000000000000000000000000000000000000000000000000000000000000000000000000000000000000000000000000000000000000000000000000000000003ffffffffffffffffffffffffffffffffffffffffffffffffffffffffffffffff1ca051b57f175a53c2a2cb3d8a78c3b2c1b200bf6177a686f2f987bce371ee2ab787a01151d2fcf4399f78a8a16fe636e4d56ba4d8a58b1f301fea4dd5eeef26c666f5",
                    "logs" : "0x1dcc4de8dec75d7aab85b567b6ccd41ad312451b948a7413f0a142fd40d49347"
                },
                {
                    "indexes" : {
                        "data" : 0,
                        "gas" : 3,
                        "value" : 0
                    },
                    "hash" : "0x2c881a1d80804145725412aec6fda948b767657d42d4d75fc14c46d0ee483e8e",
                    "txbytes" : "0xf9010681c10a83030d4094c305c901078781c232a2a521c2af7980f8385ee980b8a430c8d1da0000000000000000000000000000000000000000000000000000000000000020000000000000000000000000000000000000000000000000000000000000006000000000000000000000000000000000000000000000000000000000000000000000000000000000000000000000000000000000000000000000000000000003ffffffffffffffffffffffffffffffffffffffffffffffffffffffffffffffff1ca0872794224c4cc0b3c4d94413402f346ed461a793f5c05eda782d0c17582c6d44a03ce4e25ce00b92e2ca8227f5b0f7f8425dd37170c6341c600a2f3ef4ba49ef39",
                    "logs" : "0x1dcc4de8dec75d7aab85b567b6ccd41ad312451b948a7413f0a142fd40d49347"
                }
            ],
            "London" : [
                {
                    "indexes" : {
                        "data" : 0,
                        "gas" : 0,
                        "value" : 0
                    },
                    "hash" : "0x6a7aeeb7f7e08bd6d315a7676c38e13f6bff2ef63be9dbb937a0f02c47e5d70f",
                    "txbytes" : "0xf9010581c10a82cbb894c305c901078781c232a2a521c2af7980f8385ee980b8a430c8d1da0000000000000000000000000000000000000000000000000000000000000020000000000000000000000000000000000000000000000000000000000000006000000000000000000000000000000000000000000000000000000000000000000000000000000000000000000000000000000000000000000000000000000003ffffffffffffffffffffffffffffffffffffffffffffffffffffffffffffffff1ba09a4151039a8df32d9849426b37dbb7af56b23b22412129203e76d3081e7b8215a0267afa6965dd682cb77698db2a81693a4e522d53b42140029821c706f038dbdf",
                    "logs" : "0x1dcc4de8dec75d7aab85b567b6ccd41ad312451b948a7413f0a142fd40d49347"
                },
                {
                    "indexes" : {
                        "data" : 0,
                        "gas" : 1,
                        "value" : 0
                    },
                    "hash" : "0x1c4ffe165980cae1a9b439791eac3c221be67e2316507b3c60fef9838cd1b917",
                    "txbytes" : "0xf9010681c10a83015f9094c305c901078781c232a2a521c2af7980f8385ee980b8a430c8d1da0000000000000000000000000000000000000000000000000000000000000020000000000000000000000000000000000000000000000000000000000000006000000000000000000000000000000000000000000000000000000000000000000000000000000000000000000000000000000000000000000000000000000003ffffffffffffffffffffffffffffffffffffffffffffffffffffffffffffffff1ca0be5c209ff8c11b8d410e21d23d31b6a1643dd5d498e8c1a28b9f2f71e5f29b5da0580eb42d0d6dd2439c35662629106f40b2ea673ee2f86831bc0d216eb5a23b4f",
                    "logs" : "0x1dcc4de8dec75d7aab85b567b6ccd41ad312451b948a7413f0a142fd40d49347"
                },
                {
                    "indexes" : {
                        "data" : 0,
                        "gas" : 2,
                        "value" : 0
                    },
                    "hash" : "0x69f59554a9e13e8c63850bf678b2e3d6450895afc2e89ff1671c445a7edf929b",
                    "txbytes" : "0xf9010681c10a8301adb094c305c901078781c232a2a521c2af7980f8385ee980b8a430c8d1da0000000000000000000000000000000000000000000000000000000000000020000000000000000000000000000000000000000000000000000000000000006000000000000000000000000000000000000000000000000000000000000000000000000000000000000000000000000000000000000000000000000000000003ffffffffffffffffffffffffffffffffffffffffffffffffffffffffffffffff1ca051b57f175a53c2a2cb3d8a78c3b2c1b200bf6177a686f2f987bce371ee2ab787a01151d2fcf4399f78a8a16fe636e4d56ba4d8a58b1f301fea4dd5eeef26c666f5",
                    "logs" : "0x1dcc4de8dec75d7aab85b567b6ccd41ad312451b948a7413f0a142fd40d49347"
                },
                {
                    "indexes" : {
                        "data" : 0,
                        "gas" : 3,
                        "value" : 0
                    },
                    "hash" : "0xc7e9093beddc9c7031b0d141fb04dd38d040f4d9dee22c54211d2b8fbf1173fb",
                    "txbytes" : "0xf9010681c10a83030d4094c305c901078781c232a2a521c2af7980f8385ee980b8a430c8d1da0000000000000000000000000000000000000000000000000000000000000020000000000000000000000000000000000000000000000000000000000000006000000000000000000000000000000000000000000000000000000000000000000000000000000000000000000000000000000000000000000000000000000003ffffffffffffffffffffffffffffffffffffffffffffffffffffffffffffffff1ca0872794224c4cc0b3c4d94413402f346ed461a793f5c05eda782d0c17582c6d44a03ce4e25ce00b92e2ca8227f5b0f7f8425dd37170c6341c600a2f3ef4ba49ef39",
                    "logs" : "0x1dcc4de8dec75d7aab85b567b6ccd41ad312451b948a7413f0a142fd40d49347"
                }
            ]
        },
        "pre" : {
            "0x0000000000000000000000000000000000000000" : {
                "balance" : "0x01",
                "code" : "0x",
                "nonce" : "0x00",
                "storage" : {
                }
            },
            "0x0000000000000000000000000000000000000001" : {
                "balance" : "0x01",
                "code" : "0x",
                "nonce" : "0x00",
                "storage" : {
                }
            },
            "0x0000000000000000000000000000000000000002" : {
                "balance" : "0x01",
                "code" : "0x",
                "nonce" : "0x00",
                "storage" : {
                }
            },
            "0x0000000000000000000000000000000000000003" : {
                "balance" : "0x01",
                "code" : "0x",
                "nonce" : "0x00",
                "storage" : {
                }
            },
            "0x0000000000000000000000000000000000000004" : {
                "balance" : "0x01",
                "code" : "0x",
                "nonce" : "0x00",
                "storage" : {
                }
            },
            "0x0000000000000000000000000000000000000005" : {
                "balance" : "0x01",
                "code" : "0x",
                "nonce" : "0x00",
                "storage" : {
                }
            },
            "0x0000000000000000000000000000000000000006" : {
                "balance" : "0x01",
                "code" : "0x",
                "nonce" : "0x00",
                "storage" : {
                }
            },
            "0x0000000000000000000000000000000000000007" : {
                "balance" : "0x01",
                "code" : "0x",
                "nonce" : "0x00",
                "storage" : {
                }
            },
            "0x10a1c1cb95c92ec31d3f22c66eef1d9f3f258c6b" : {
                "balance" : "0x0de0b6b3a7640000",
                "code" : "0x",
                "nonce" : "0x00",
                "storage" : {
                }
            },
            "0x13cbb8d99c6c4e0f2728c7d72606e78a29c4e224" : {
                "balance" : "0x0de0b6b3a7640000",
                "code" : "0x",
                "nonce" : "0x00",
                "storage" : {
                }
            },
            "0x24143873e0e0815fdcbcffdbe09c979cbf9ad013" : {
                "balance" : "0x0de0b6b3a7640000",
                "code" : "0x",
                "nonce" : "0x00",
                "storage" : {
                }
            },
            "0x3535353535353535353535353535353535353535" : {
                "balance" : "0x7db8bc",
                "code" : "0x",
                "nonce" : "0x00",
                "storage" : {
                }
            },
            "0x598443f1880ef585b21f1d7585bd0577402861e5" : {
                "balance" : "0x0de0b6b3a7640000",
                "code" : "0x",
                "nonce" : "0x00",
                "storage" : {
                }
            },
            "0x77db2bebba79db42a978f896968f4afce746ea1f" : {
                "balance" : "0x0de0b6b3a7640000",
                "code" : "0x",
                "nonce" : "0x00",
                "storage" : {
                }
            },
            "0x7d577a597b2742b498cb5cf0c26cdcd726d39e6e" : {
                "balance" : "0x0de0b6b3a7640000",
                "code" : "0x",
                "nonce" : "0x00",
                "storage" : {
                }
            },
            "0x82a978b3f5962a5b0957d9ee9eef472ee55b42f1" : {
                "balance" : "0x0de0b6b3a6e64744",
                "code" : "0x",
                "nonce" : "0xc1",
                "storage" : {
                }
            },
            "0x90f0b1ebbba1c1936aff7aaf20a7878ff9e04b6c" : {
                "balance" : "0x0de0b6b3a7640000",
                "code" : "0x",
                "nonce" : "0x00",
                "storage" : {
                }
            },
            "0xc305c901078781c232a2a521c2af7980f8385ee9" : {
                "balance" : "0x00",
                "code" : "0x600035601c52740100000000000000000000000000000000000000006020526fffffffffffffffffffffffffffffffff6040527fffffffffffffffffffffffffffffffff000000000000000000000000000000016060527402540be3fffffffffffffffffffffffffdabf41c006080527ffffffffffffffffffffffffdabf41c00000000000000000000000002540be40060a0526330c8d1da600051141561012b5760c06004356004013511151558576004356004013560200160043560040161014037604061026061014051610160600060076305f5e0fff11558576040610240526102406060806102c0828460006004601bf15050506102c08051602082012090506000556102c060206020820352604081510160206001820306601f820103905060208203f350005b",
                "nonce" : "0x01",
                "storage" : {
                    "0x00" : "0x40c97882e95e71d48d97c8655188333e16470e807a99282b8795064ca6ca4dcf"
                }
            },
            "0xdceceaf3fc5c0a63d195d69b1a90011b7b19650d" : {
                "balance" : "0x0de0b6b3a7640000",
                "code" : "0x",
                "nonce" : "0x00",
                "storage" : {
                }
            },
            "0xe0fc04fa2d34a66b779fd5cee748268032a146c0" : {
                "balance" : "0x0de0b6b3a7640000",
                "code" : "0x",
                "nonce" : "0x00",
                "storage" : {
                }
            }
        },
        "transaction" : {
            "data" : [
                "0x30c8d1da0000000000000000000000000000000000000000000000000000000000000020000000000000000000000000000000000000000000000000000000000000006000000000000000000000000000000000000000000000000000000000000000000000000000000000000000000000000000000000000000000000000000000003ffffffffffffffffffffffffffffffffffffffffffffffffffffffffffffffff"
            ],
            "gasPrice" : "0x0a",
            "gasLimit" : [
                "0xcbb8",
                "0x015f90",
                "0x01adb0",
                "0x030d40"
            ],
            "nonce" : "0xc1",
            "secretKey" : "0x044852b2a670ade5407e78fb2863c51de9fcb96542a07186fe3aeda6bb8a116d",
            "to" : "0xc305c901078781c232a2a521c2af7980f8385ee9",
            "value" : [
                "0x00"
            ]
        }
    }
}