{
    "ecmul_1-2_1_21000_96" : {
        "_info" : {
            "comment" : "Puts the point (1, 2) and the factor 1 into the ECMUL precompile, truncating or expanding the input data to 96 bytes. Gives the execution 21000 bytes",
            "filling-rpc-server" : "evm version 1.10.4-unstable-966ee3ae-20210528",
            "filling-tool-version" : "retesteth-0.1.1-eip1559+commit.658fc3a8.Linux.g++",
            "lllcversion" : "Version: 0.5.14-develop.2021.5.18+commit.14c9d5de.mod.Linux.g++",
            "source" : "src/GeneralStateTestsFiller/stZeroKnowledge2/ecmul_1-2_1_21000_96Filler.json",
            "sourceHash" : "f61ac5893b4db1aedbdbd1038e775bfbbee6540ec0424335993e9ad610d44923"
        },
        "env" : {
            "currentCoinbase" : "0x3535353535353535353535353535353535353535",
            "currentDifficulty" : "0x020000",
            "currentNumber" : "0x01",
            "currentTimestamp" : "0x03e8",
            "previousHash" : "0xc6745cf3cada515bbfb9573261c82547e0b8f9e3d5dd382e464704a84e47b5ad",
            "currentGasLimit" : "0x05f5e100"
        },
        "post" : {
            "Berlin" : [
                {
                    "indexes" : {
                        "data" : 0,
                        "gas" : 0,
                        "value" : 0
                    },
                    "hash" : "0x68003f12918802db93db18eec79dfd41b4a4c2e795cc7e696ef46f5979e696b0",
                    "txbytes" : "0xf90104190a82a8e094c305c901078781c232a2a521c2af7980f8385ee980b8a430c8d1da000000000000000000000000000000000000000000000000000000000000002000000000000000000000000000000000000000000000000000000000000000600000000000000000000000000000000000000000000000000000000000000001000000000000000000000000000000000000000000000000000000000000000200000000000000000000000000000000000000000000000000000000000000011ca09ef16ac5e47f43dc2135f7391aaeca3c127b735308d0ffbb6dfb8cd009d4bec8a008201187eb7807f8c7168173c7b56cea39745a9eb07d09546189f8ff25df24fd",
                    "logs" : "0x1dcc4de8dec75d7aab85b567b6ccd41ad312451b948a7413f0a142fd40d49347"
                },
                {
                    "indexes" : {
                        "data" : 0,
                        "gas" : 1,
                        "value" : 0
                    },
                    "hash" : "0x3f64908038402f9724b6586cb3d05d124ed88354137a6d26b4804221668ae5f6",
                    "txbytes" : "0xf90105190a83015f9094c305c901078781c232a2a521c2af7980f8385ee980b8a430c8d1da000000000000000000000000000000000000000000000000000000000000002000000000000000000000000000000000000000000000000000000000000000600000000000000000000000000000000000000000000000000000000000000001000000000000000000000000000000000000000000000000000000000000000200000000000000000000000000000000000000000000000000000000000000011ca0ebc223338cb8d04aba980d08be1a36b22e3d2fa8d27624b50f8b17b3eb02a8efa015f99b500871aef2744898dbc841c799aeb2700fcddfc694291783202e4f3563",
                    "logs" : "0x1dcc4de8dec75d7aab85b567b6ccd41ad312451b948a7413f0a142fd40d49347"
                },
                {
                    "indexes" : {
                        "data" : 0,
                        "gas" : 2,
                        "value" : 0
                    },
                    "hash" : "0x3f64908038402f9724b6586cb3d05d124ed88354137a6d26b4804221668ae5f6",
                    "txbytes" : "0xf90105190a8301adb094c305c901078781c232a2a521c2af7980f8385ee980b8a430c8d1da000000000000000000000000000000000000000000000000000000000000002000000000000000000000000000000000000000000000000000000000000000600000000000000000000000000000000000000000000000000000000000000001000000000000000000000000000000000000000000000000000000000000000200000000000000000000000000000000000000000000000000000000000000011ba0d40ba0c472acde510745735e238f61b8ee2788c1ae0fba6df58e39c45085e2fea04c711fe8eb2bd658b8c3ad90b49290ae45a76965e68f41e7948d101f7cd454b3",
                    "logs" : "0x1dcc4de8dec75d7aab85b567b6ccd41ad312451b948a7413f0a142fd40d49347"
                },
                {
                    "indexes" : {
                        "data" : 0,
                        "gas" : 3,
                        "value" : 0
                    },
                    "hash" : "0x3f64908038402f9724b6586cb3d05d124ed88354137a6d26b4804221668ae5f6",
                    "txbytes" : "0xf90105190a83030d4094c305c901078781c232a2a521c2af7980f8385ee980b8a430c8d1da000000000000000000000000000000000000000000000000000000000000002000000000000000000000000000000000000000000000000000000000000000600000000000000000000000000000000000000000000000000000000000000001000000000000000000000000000000000000000000000000000000000000000200000000000000000000000000000000000000000000000000000000000000011ba040f465dc1dfda5d94adf15ad1e56b38bb513b9bcf48944029b74e84d0d21668ba03a6f17c2f13c0294adca70747904804925be58812445d2d1a429e0e79b291629",
                    "logs" : "0x1dcc4de8dec75d7aab85b567b6ccd41ad312451b948a7413f0a142fd40d49347"
                }
            ],
            "Istanbul" : [
                {
                    "indexes" : {
                        "data" : 0,
                        "gas" : 0,
                        "value" : 0
                    },
                    "hash" : "0x68003f12918802db93db18eec79dfd41b4a4c2e795cc7e696ef46f5979e696b0",
                    "txbytes" : "0xf90104190a82a8e094c305c901078781c232a2a521c2af7980f8385ee980b8a430c8d1da000000000000000000000000000000000000000000000000000000000000002000000000000000000000000000000000000000000000000000000000000000600000000000000000000000000000000000000000000000000000000000000001000000000000000000000000000000000000000000000000000000000000000200000000000000000000000000000000000000000000000000000000000000011ca09ef16ac5e47f43dc2135f7391aaeca3c127b735308d0ffbb6dfb8cd009d4bec8a008201187eb7807f8c7168173c7b56cea39745a9eb07d09546189f8ff25df24fd",
                    "logs" : "0x1dcc4de8dec75d7aab85b567b6ccd41ad312451b948a7413f0a142fd40d49347"
                },
                {
                    "indexes" : {
                        "data" : 0,
                        "gas" : 1,
                        "value" : 0
                    },
                    "hash" : "0x0725e7e1ada86949d927bbabadeb61725f827a86246c4707b3529600a16905c5",
                    "txbytes" : "0xf90105190a83015f9094c305c901078781c232a2a521c2af7980f8385ee980b8a430c8d1da000000000000000000000000000000000000000000000000000000000000002000000000000000000000000000000000000000000000000000000000000000600000000000000000000000000000000000000000000000000000000000000001000000000000000000000000000000000000000000000000000000000000000200000000000000000000000000000000000000000000000000000000000000011ca0ebc223338cb8d04aba980d08be1a36b22e3d2fa8d27624b50f8b17b3eb02a8efa015f99b500871aef2744898dbc841c799aeb2700fcddfc694291783202e4f3563",
                    "logs" : "0x1dcc4de8dec75d7aab85b567b6ccd41ad312451b948a7413f0a142fd40d49347"
                },
                {
                    "indexes" : {
                        "data" : 0,
                        "gas" : 2,
                        "value" : 0
                    },
                    "hash" : "0x0725e7e1ada86949d927bbabadeb61725f827a86246c4707b3529600a16905c5",
                    "txbytes" : "0xf90105190a8301adb094c305c901078781c232a2a521c2af7980f8385ee980b8a430c8d1da000000000000000000000000000000000000000000000000000000000000002000000000000000000000000000000000000000000000000000000000000000600000000000000000000000000000000000000000000000000000000000000001000000000000000000000000000000000000000000000000000000000000000200000000000000000000000000000000000000000000000000000000000000011ba0d40ba0c472acde510745735e238f61b8ee2788c1ae0fba6df58e39c45085e2fea04c711fe8eb2bd658b8c3ad90b49290ae45a76965e68f41e7948d101f7cd454b3",
                    "logs" : "0x1dcc4de8dec75d7aab85b567b6ccd41ad312451b948a7413f0a142fd40d49347"
                },
                {
                    "indexes" : {
                        "data" : 0,
                        "gas" : 3,
                        "value" : 0
                    },
                    "hash" : "0x0725e7e1ada86949d927bbabadeb61725f827a86246c4707b3529600a16905c5",
                    "txbytes" : "0xf90105190a83030d4094c305c901078781c232a2a521c2af7980f8385ee980b8a430c8d1da000000000000000000000000000000000000000000000000000000000000002000000000000000000000000000000000000000000000000000000000000000600000000000000000000000000000000000000000000000000000000000000001000000000000000000000000000000000000000000000000000000000000000200000000000000000000000000000000000000000000000000000000000000011ba040f465dc1dfda5d94adf15ad1e56b38bb513b9bcf48944029b74e84d0d21668ba03a6f17c2f13c0294adca70747904804925be58812445d2d1a429e0e79b291629",
                    "logs" : "0x1dcc4de8dec75d7aab85b567b6ccd41ad312451b948a7413f0a142fd40d49347"
                }
            ],
            "London" : [
                {
                    "indexes" : {
                        "data" : 0,
                        "gas" : 0,
                        "value" : 0
                    },
                    "hash" : "0x7b25baa7efec5704aa2701af1e09583e6cd344d697ee5c96682aa0e9d8f51a70",
                    "txbytes" : "0xf90104190a82a8e094c305c901078781c232a2a521c2af7980f8385ee980b8a430c8d1da000000000000000000000000000000000000000000000000000000000000002000000000000000000000000000000000000000000000000000000000000000600000000000000000000000000000000000000000000000000000000000000001000000000000000000000000000000000000000000000000000000000000000200000000000000000000000000000000000000000000000000000000000000011ca09ef16ac5e47f43dc2135f7391aaeca3c127b735308d0ffbb6dfb8cd009d4bec8a008201187eb7807f8c7168173c7b56cea39745a9eb07d09546189f8ff25df24fd",
                    "logs" : "0x1dcc4de8dec75d7aab85b567b6ccd41ad312451b948a7413f0a142fd40d49347"
                },
                {
                    "indexes" : {
                        "data" : 0,
                        "gas" : 1,
                        "value" : 0
                    },
                    "hash" : "0xd01ddf00b28ad3488db12c49ae73f788dd29d17eaef174fd26073573e580a46e",
                    "txbytes" : "0xf90105190a83015f9094c305c901078781c232a2a521c2af7980f8385ee980b8a430c8d1da000000000000000000000000000000000000000000000000000000000000002000000000000000000000000000000000000000000000000000000000000000600000000000000000000000000000000000000000000000000000000000000001000000000000000000000000000000000000000000000000000000000000000200000000000000000000000000000000000000000000000000000000000000011ca0ebc223338cb8d04aba980d08be1a36b22e3d2fa8d27624b50f8b17b3eb02a8efa015f99b500871aef2744898dbc841c799aeb2700fcddfc694291783202e4f3563",
                    "logs" : "0x1dcc4de8dec75d7aab85b567b6ccd41ad312451b948a7413f0a142fd40d49347"
                },
                {
                    "indexes" : {
                        "data" : 0,
                        "gas" : 2,
                        "value" : 0
                    },
                    "hash" : "0xd01ddf00b28ad3488db12c49ae73f788dd29d17eaef174fd26073573e580a46e",
                    "txbytes" : "0xf90105190a8301adb094c305c901078781c232a2a521c2af7980f8385ee980b8a430c8d1da000000000000000000000000000000000000000000000000000000000000002000000000000000000000000000000000000000000000000000000000000000600000000000000000000000000000000000000000000000000000000000000001000000000000000000000000000000000000000000000000000000000000000200000000000000000000000000000000000000000000000000000000000000011ba0d40ba0c472acde510745735e238f61b8ee2788c1ae0fba6df58e39c45085e2fea04c711fe8eb2bd658b8c3ad90b49290ae45a76965e68f41e7948d101f7cd454b3",
                    "logs" : "0x1dcc4de8dec75d7aab85b567b6ccd41ad312451b948a7413f0a142fd40d49347"
                },
                {
                    "indexes" : {
                        "data" : 0,
                        "gas" : 3,
                        "value" : 0
                    },
                    "hash" : "0xd01ddf00b28ad3488db12c49ae73f788dd29d17eaef174fd26073573e580a46e",
                    "txbytes" : "0xf90105190a83030d4094c305c901078781c232a2a521c2af7980f8385ee980b8a430c8d1da000000000000000000000000000000000000000000000000000000000000002000000000000000000000000000000000000000000000000000000000000000600000000000000000000000000000000000000000000000000000000000000001000000000000000000000000000000000000000000000000000000000000000200000000000000000000000000000000000000000000000000000000000000011ba040f465dc1dfda5d94adf15ad1e56b38bb513b9bcf48944029b74e84d0d21668ba03a6f17c2f13c0294adca70747904804925be58812445d2d1a429e0e79b291629",
                    "logs" : "0x1dcc4de8dec75d7aab85b567b6ccd41ad312451b948a7413f0a142fd40d49347"
                }
            ]
        },
        "pre" : {
            "0x0000000000000000000000000000000000000000" : {
                "balance" : "0x01",
                "code" : "0x",
                "nonce" : "0x00",
                "storage" : {
                }
            },
            "0x0000000000000000000000000000000000000001" : {
                "balance" : "0x01",
                "code" : "0x",
                "nonce" : "0x00",
                "storage" : {
                }
            },
            "0x0000000000000000000000000000000000000002" : {
                "balance" : "0x01",
                "code" : "0x",
                "nonce" : "0x00",
                "storage" : {
                }
            },
            "0x0000000000000000000000000000000000000003" : {
                "balance" : "0x01",
                "code" : "0x",
                "nonce" : "0x00",
                "storage" : {
                }
            },
            "0x0000000000000000000000000000000000000004" : {
                "balance" : "0x01",
                "code" : "0x",
                "nonce" : "0x00",
                "storage" : {
                }
            },
            "0x0000000000000000000000000000000000000005" : {
                "balance" : "0x01",
                "code" : "0x",
                "nonce" : "0x00",
                "storage" : {
                }
            },
            "0x0000000000000000000000000000000000000006" : {
                "balance" : "0x01",
                "code" : "0x",
                "nonce" : "0x00",
                "storage" : {
                }
            },
            "0x0000000000000000000000000000000000000007" : {
                "balance" : "0x01",
                "code" : "0x",
                "nonce" : "0x00",
                "storage" : {
                }
            },
            "0x10a1c1cb95c92ec31d3f22c66eef1d9f3f258c6b" : {
                "balance" : "0x0de0b6b3a7640000",
                "code" : "0x",
                "nonce" : "0x00",
                "storage" : {
                }
            },
            "0x13cbb8d99c6c4e0f2728c7d72606e78a29c4e224" : {
                "balance" : "0x0de0b6b3a7640000",
                "code" : "0x",
                "nonce" : "0x00",
                "storage" : {
                }
            },
            "0x24143873e0e0815fdcbcffdbe09c979cbf9ad013" : {
                "balance" : "0x0de0b6b3a7640000",
                "code" : "0x",
                "nonce" : "0x00",
                "storage" : {
                }
            },
            "0x3535353535353535353535353535353535353535" : {
                "balance" : "0x1207ae",
                "code" : "0x",
                "nonce" : "0x00",
                "storage" : {
                }
            },
            "0x598443f1880ef585b21f1d7585bd0577402861e5" : {
                "balance" : "0x0de0b6b3a7640000",
                "code" : "0x",
                "nonce" : "0x00",
                "storage" : {
                }
            },
            "0x77db2bebba79db42a978f896968f4afce746ea1f" : {
                "balance" : "0x0de0b6b3a7640000",
                "code" : "0x",
                "nonce" : "0x00",
                "storage" : {
                }
            },
            "0x7d577a597b2742b498cb5cf0c26cdcd726d39e6e" : {
                "balance" : "0x0de0b6b3a7640000",
                "code" : "0x",
                "nonce" : "0x00",
                "storage" : {
                }
            },
            "0x82a978b3f5962a5b0957d9ee9eef472ee55b42f1" : {
                "balance" : "0x0de0b6b3a751f852",
                "code" : "0x",
                "nonce" : "0x19",
                "storage" : {
                }
            },
            "0x90f0b1ebbba1c1936aff7aaf20a7878ff9e04b6c" : {
                "balance" : "0x0de0b6b3a7640000",
                "code" : "0x",
                "nonce" : "0x00",
                "storage" : {
                }
            },
            "0xc305c901078781c232a2a521c2af7980f8385ee9" : {
                "balance" : "0x00",
                "code" : "0x600035601c52740100000000000000000000000000000000000000006020526fffffffffffffffffffffffffffffffff6040527fffffffffffffffffffffffffffffffff000000000000000000000000000000016060527402540be3fffffffffffffffffffffffffdabf41c006080527ffffffffffffffffffffffffdabf41c00000000000000000000000002540be40060a0526330c8d1da600051141561012b5760c06004356004013511151558576004356004013560200160043560040161014037604061026061014051610160600060076305f5e0fff11558576040610240526102406060806102c0828460006004601bf15050506102c08051602082012090506000556102c060206020820352604081510160206001820306601f820103905060208203f350005b",
                "nonce" : "0x01",
                "storage" : {
                }
            },
            "0xdceceaf3fc5c0a63d195d69b1a90011b7b19650d" : {
                "balance" : "0x0de0b6b3a7640000",
                "code" : "0x",
                "nonce" : "0x00",
                "storage" : {
                }
            },
            "0xe0fc04fa2d34a66b779fd5cee748268032a146c0" : {
                "balance" : "0x0de0b6b3a7640000",
                "code" : "0x",
                "nonce" : "0x00",
                "storage" : {
                }
            }
        },
        "transaction" : {
            "data" : [
                "0x30c8d1da00000000000000000000000000000000000000000000000000000000000000200000000000000000000000000000000000000000000000000000000000000060000000000000000000000000000000000000000000000000000000000000000100000000000000000000000000000000000000000000000000000000000000020000000000000000000000000000000000000000000000000000000000000001"
            ],
            "gasPrice" : "0x0a",
            "gasLimit" : [
                "0xa8e0",
                "0x015f90",
                "0x01adb0",
                "0x030d40"
            ],
            "nonce" : "0x19",
            "secretKey" : "0x044852b2a670ade5407e78fb2863c51de9fcb96542a07186fe3aeda6bb8a116d",
            "to" : "0xc305c901078781c232a2a521c2af7980f8385ee9",
            "value" : [
                "0x00"
            ]
        }
    }
}