{
    "ecmul_0-0_0_21000_64" : {
        "_info" : {
            "comment" : "Puts the point (0, 0) and the factor 0 into the ECMUL precompile, truncating or expanding the input data to 64 bytes. Gives the execution 21000 bytes",
            "filling-rpc-server" : "evm version 1.10.4-unstable-966ee3ae-20210528",
            "filling-tool-version" : "retesteth-0.1.1-eip1559+commit.658fc3a8.Linux.g++",
            "lllcversion" : "Version: 0.5.14-develop.2021.5.18+commit.14c9d5de.mod.Linux.g++",
            "source" : "src/GeneralStateTestsFiller/stZeroKnowledge2/ecmul_0-0_0_21000_64Filler.json",
            "sourceHash" : "a7a19eafc94b210a526fcc95498b8f5f16776d943c10884fbe3769f93d304ca7"
        },
        "env" : {
            "currentCoinbase" : "0x3535353535353535353535353535353535353535",
            "currentDifficulty" : "0x020000",
            "currentNumber" : "0x01",
            "currentTimestamp" : "0x03e8",
            "previousHash" : "0xc6745cf3cada515bbfb9573261c82547e0b8f9e3d5dd382e464704a84e47b5ad",
            "currentGasLimit" : "0x05f5e100"
        },
        "post" : {
            "Berlin" : [
                {
                    "indexes" : {
                        "data" : 0,
                        "gas" : 0,
                        "value" : 0
                    },
                    "hash" : "0x15af7e2a08f6ca71eb5b55dc7c2d88be761661ea3ece6c438921770d06fa127f",
                    "txbytes" : "0xf8e4030a82a7a094c305c901078781c232a2a521c2af7980f8385ee980b88430c8d1da00000000000000000000000000000000000000000000000000000000000000200000000000000000000000000000000000000000000000000000000000000040000000000000000000000000000000000000000000000000000000000000000000000000000000000000000000000000000000000000000000000000000000001ca03e39287a8face7425bb87806e2d9e6b1568ed11b3e3b276cea744f372dfd330ba04abbbb7aaccb87e74a54afbebb4abe73e23c303f491084c6842b96ae6d89306d",
                    "logs" : "0x1dcc4de8dec75d7aab85b567b6ccd41ad312451b948a7413f0a142fd40d49347"
                },
                {
                    "indexes" : {
                        "data" : 0,
                        "gas" : 1,
                        "value" : 0
                    },
                    "hash" : "0x4b2e18574fad3c071525d2ade0418ea42a7c938d90d6ed5783b5a0bddea1c216",
                    "txbytes" : "0xf8e5030a83015f9094c305c901078781c232a2a521c2af7980f8385ee980b88430c8d1da00000000000000000000000000000000000000000000000000000000000000200000000000000000000000000000000000000000000000000000000000000040000000000000000000000000000000000000000000000000000000000000000000000000000000000000000000000000000000000000000000000000000000001ba0eff2fe89666ae10f46f45b02a41cef9f75cfdd51bb10f516add21e46885e6bc6a00c8e7ce2b7bca41f6afeac5a59ec3ee6d233a29b6639e0da3d2cf9bbf3728e9e",
                    "logs" : "0x1dcc4de8dec75d7aab85b567b6ccd41ad312451b948a7413f0a142fd40d49347"
                },
                {
                    "indexes" : {
                        "data" : 0,
                        "gas" : 2,
                        "value" : 0
                    },
                    "hash" : "0x4b2e18574fad3c071525d2ade0418ea42a7c938d90d6ed5783b5a0bddea1c216",
                    "txbytes" : "0xf8e5030a8301adb094c305c901078781c232a2a521c2af7980f8385ee980b88430c8d1da00000000000000000000000000000000000000000000000000000000000000200000000000000000000000000000000000000000000000000000000000000040000000000000000000000000000000000000000000000000000000000000000000000000000000000000000000000000000000000000000000000000000000001ca02cc69866b8c04f5dcf1657495b1c53fc9ffd1bc87bb0303e2feb0377359bb9f0a0235a1e9934dcc94996ce223853201fed7c36fc73a9308d58eae782670acb7473",
                    "logs" : "0x1dcc4de8dec75d7aab85b567b6ccd41ad312451b948a7413f0a142fd40d49347"
                },
                {
                    "indexes" : {
                        "data" : 0,
                        "gas" : 3,
                        "value" : 0
                    },
                    "hash" : "0x4b2e18574fad3c071525d2ade0418ea42a7c938d90d6ed5783b5a0bddea1c216",
                    "txbytes" : "0xf8e5030a83030d4094c305c901078781c232a2a521c2af7980f8385ee980b88430c8d1da00000000000000000000000000000000000000000000000000000000000000200000000000000000000000000000000000000000000000000000000000000040000000000000000000000000000000000000000000000000000000000000000000000000000000000000000000000000000000000000000000000000000000001ba0497ea9a5a36ec71fb1db5c74fc13de16cf9e9f88fcdf4c5b4908a2d42be5beb9a06e37d4e19da8509c2e6753f0fbaf98f0c0fd04016a5bc8b0d4679c012916c2c4",
                    "logs" : "0x1dcc4de8dec75d7aab85b567b6ccd41ad312451b948a7413f0a142fd40d49347"
                }
            ],
            "Istanbul" : [
                {
                    "indexes" : {
                        "data" : 0,
                        "gas" : 0,
                        "value" : 0
                    },
                    "hash" : "0x15af7e2a08f6ca71eb5b55dc7c2d88be761661ea3ece6c438921770d06fa127f",
                    "txbytes" : "0xf8e4030a82a7a094c305c901078781c232a2a521c2af7980f8385ee980b88430c8d1da00000000000000000000000000000000000000000000000000000000000000200000000000000000000000000000000000000000000000000000000000000040000000000000000000000000000000000000000000000000000000000000000000000000000000000000000000000000000000000000000000000000000000001ca03e39287a8face7425bb87806e2d9e6b1568ed11b3e3b276cea744f372dfd330ba04abbbb7aaccb87e74a54afbebb4abe73e23c303f491084c6842b96ae6d89306d",
                    "logs" : "0x1dcc4de8dec75d7aab85b567b6ccd41ad312451b948a7413f0a142fd40d49347"
                },
                {
                    "indexes" : {
                        "data" : 0,
                        "gas" : 1,
                        "value" : 0
                    },
                    "hash" : "0x10ef483e9eb2c0931d967281b2d4cf66620f33fa8b2ba362cb876182cee5e68e",
                    "txbytes" : "0xf8e5030a83015f9094c305c901078781c232a2a521c2af7980f8385ee980b88430c8d1da00000000000000000000000000000000000000000000000000000000000000200000000000000000000000000000000000000000000000000000000000000040000000000000000000000000000000000000000000000000000000000000000000000000000000000000000000000000000000000000000000000000000000001ba0eff2fe89666ae10f46f45b02a41cef9f75cfdd51bb10f516add21e46885e6bc6a00c8e7ce2b7bca41f6afeac5a59ec3ee6d233a29b6639e0da3d2cf9bbf3728e9e",
                    "logs" : "0x1dcc4de8dec75d7aab85b567b6ccd41ad312451b948a7413f0a142fd40d49347"
                },
                {
                    "indexes" : {
                        "data" : 0,
                        "gas" : 2,
                        "value" : 0
                    },
                    "hash" : "0x10ef483e9eb2c0931d967281b2d4cf66620f33fa8b2ba362cb876182cee5e68e",
                    "txbytes" : "0xf8e5030a8301adb094c305c901078781c232a2a521c2af7980f8385ee980b88430c8d1da00000000000000000000000000000000000000000000000000000000000000200000000000000000000000000000000000000000000000000000000000000040000000000000000000000000000000000000000000000000000000000000000000000000000000000000000000000000000000000000000000000000000000001ca02cc69866b8c04f5dcf1657495b1c53fc9ffd1bc87bb0303e2feb0377359bb9f0a0235a1e9934dcc94996ce223853201fed7c36fc73a9308d58eae782670acb7473",
                    "logs" : "0x1dcc4de8dec75d7aab85b567b6ccd41ad312451b948a7413f0a142fd40d49347"
                },
                {
                    "indexes" : {
                        "data" : 0,
                        "gas" : 3,
                        "value" : 0
                    },
                    "hash" : "0x10ef483e9eb2c0931d967281b2d4cf66620f33fa8b2ba362cb876182cee5e68e",
                    "txbytes" : "0xf8e5030a83030d4094c305c901078781c232a2a521c2af7980f8385ee980b88430c8d1da00000000000000000000000000000000000000000000000000000000000000200000000000000000000000000000000000000000000000000000000000000040000000000000000000000000000000000000000000000000000000000000000000000000000000000000000000000000000000000000000000000000000000001ba0497ea9a5a36ec71fb1db5c74fc13de16cf9e9f88fcdf4c5b4908a2d42be5beb9a06e37d4e19da8509c2e6753f0fbaf98f0c0fd04016a5bc8b0d4679c012916c2c4",
                    "logs" : "0x1dcc4de8dec75d7aab85b567b6ccd41ad312451b948a7413f0a142fd40d49347"
                }
            ],
            "London" : [
                {
                    "indexes" : {
                        "data" : 0,
                        "gas" : 0,
                        "value" : 0
                    },
                    "hash" : "0x0d2bce7d94c0f623a5b8b7a62d6b895cd5c7b99cc7bcb55082a650bbd7e4bfa6",
                    "txbytes" : "0xf8e4030a82a7a094c305c901078781c232a2a521c2af7980f8385ee980b88430c8d1da00000000000000000000000000000000000000000000000000000000000000200000000000000000000000000000000000000000000000000000000000000040000000000000000000000000000000000000000000000000000000000000000000000000000000000000000000000000000000000000000000000000000000001ca03e39287a8face7425bb87806e2d9e6b1568ed11b3e3b276cea744f372dfd330ba04abbbb7aaccb87e74a54afbebb4abe73e23c303f491084c6842b96ae6d89306d",
                    "logs" : "0x1dcc4de8dec75d7aab85b567b6ccd41ad312451b948a7413f0a142fd40d49347"
                },
                {
                    "indexes" : {
                        "data" : 0,
                        "gas" : 1,
                        "value" : 0
                    },
                    "hash" : "0x751afd21f8ff667429a417aa46727aa71fee2a8bf8b4ec67c65432ce4a4d3f39",
                    "txbytes" : "0xf8e5030a83015f9094c305c901078781c232a2a521c2af7980f8385ee980b88430c8d1da00000000000000000000000000000000000000000000000000000000000000200000000000000000000000000000000000000000000000000000000000000040000000000000000000000000000000000000000000000000000000000000000000000000000000000000000000000000000000000000000000000000000000001ba0eff2fe89666ae10f46f45b02a41cef9f75cfdd51bb10f516add21e46885e6bc6a00c8e7ce2b7bca41f6afeac5a59ec3ee6d233a29b6639e0da3d2cf9bbf3728e9e",
                    "logs" : "0x1dcc4de8dec75d7aab85b567b6ccd41ad312451b948a7413f0a142fd40d49347"
                },
                {
                    "indexes" : {
                        "data" : 0,
                        "gas" : 2,
                        "value" : 0
                    },
                    "hash" : "0x751afd21f8ff667429a417aa46727aa71fee2a8bf8b4ec67c65432ce4a4d3f39",
                    "txbytes" : "0xf8e5030a8301adb094c305c901078781c232a2a521c2af7980f8385ee980b88430c8d1da00000000000000000000000000000000000000000000000000000000000000200000000000000000000000000000000000000000000000000000000000000040000000000000000000000000000000000000000000000000000000000000000000000000000000000000000000000000000000000000000000000000000000001ca02cc69866b8c04f5dcf1657495b1c53fc9ffd1bc87bb0303e2feb0377359bb9f0a0235a1e9934dcc94996ce223853201fed7c36fc73a9308d58eae782670acb7473",
                    "logs" : "0x1dcc4de8dec75d7aab85b567b6ccd41ad312451b948a7413f0a142fd40d49347"
                },
                {
                    "indexes" : {
                        "data" : 0,
                        "gas" : 3,
                        "value" : 0
                    },
                    "hash" : "0x751afd21f8ff667429a417aa46727aa71fee2a8bf8b4ec67c65432ce4a4d3f39",
                    "txbytes" : "0xf8e5030a83030d4094c305c901078781c232a2a521c2af7980f8385ee980b88430c8d1da00000000000000000000000000000000000000000000000000000000000000200000000000000000000000000000000000000000000000000000000000000040000000000000000000000000000000000000000000000000000000000000000000000000000000000000000000000000000000000000000000000000000000001ba0497ea9a5a36ec71fb1db5c74fc13de16cf9e9f88fcdf4c5b4908a2d42be5beb9a06e37d4e19da8509c2e6753f0fbaf98f0c0fd04016a5bc8b0d4679c012916c2c4",
                    "logs" : "0x1dcc4de8dec75d7aab85b567b6ccd41ad312451b948a7413f0a142fd40d49347"
                }
            ]
        },
        "pre" : {
            "0x0000000000000000000000000000000000000000" : {
                "balance" : "0x01",
                "code" : "0x",
                "nonce" : "0x00",
                "storage" : {
                }
            },
            "0x0000000000000000000000000000000000000001" : {
                "balance" : "0x01",
                "code" : "0x",
                "nonce" : "0x00",
                "storage" : {
                }
            },
            "0x0000000000000000000000000000000000000002" : {
                "balance" : "0x01",
                "code" : "0x",
                "nonce" : "0x00",
                "storage" : {
                }
            },
            "0x0000000000000000000000000000000000000003" : {
                "balance" : "0x01",
                "code" : "0x",
                "nonce" : "0x00",
                "storage" : {
                }
            },
            "0x0000000000000000000000000000000000000004" : {
                "balance" : "0x01",
                "code" : "0x",
                "nonce" : "0x00",
                "storage" : {
                }
            },
            "0x0000000000000000000000000000000000000005" : {
                "balance" : "0x01",
                "code" : "0x",
                "nonce" : "0x00",
                "storage" : {
                }
            },
            "0x0000000000000000000000000000000000000006" : {
                "balance" : "0x01",
                "code" : "0x",
                "nonce" : "0x00",
                "storage" : {
                }
            },
            "0x0000000000000000000000000000000000000007" : {
                "balance" : "0x01",
                "code" : "0x",
                "nonce" : "0x00",
                "storage" : {
                }
            },
            "0x10a1c1cb95c92ec31d3f22c66eef1d9f3f258c6b" : {
                "balance" : "0x0de0b6b3a7640000",
                "code" : "0x",
                "nonce" : "0x00",
                "storage" : {
                }
            },
            "0x13cbb8d99c6c4e0f2728c7d72606e78a29c4e224" : {
                "balance" : "0x0de0b6b3a7640000",
                "code" : "0x",
                "nonce" : "0x00",
                "storage" : {
                }
            },
            "0x24143873e0e0815fdcbcffdbe09c979cbf9ad013" : {
                "balance" : "0x0de0b6b3a7640000",
                "code" : "0x",
                "nonce" : "0x00",
                "storage" : {
                }
            },
            "0x3535353535353535353535353535353535353535" : {
                "balance" : "0x0352ae",
                "code" : "0x",
                "nonce" : "0x00",
                "storage" : {
                }
            },
            "0x598443f1880ef585b21f1d7585bd0577402861e5" : {
                "balance" : "0x0de0b6b3a7640000",
                "code" : "0x",
                "nonce" : "0x00",
                "storage" : {
                }
            },
            "0x77db2bebba79db42a978f896968f4afce746ea1f" : {
                "balance" : "0x0de0b6b3a7640000",
                "code" : "0x",
                "nonce" : "0x00",
                "storage" : {
                }
            },
            "0x7d577a597b2742b498cb5cf0c26cdcd726d39e6e" : {
                "balance" : "0x0de0b6b3a7640000",
                "code" : "0x",
                "nonce" : "0x00",
                "storage" : {
                }
            },
            "0x82a978b3f5962a5b0957d9ee9eef472ee55b42f1" : {
                "balance" : "0x0de0b6b3a760ad52",
                "code" : "0x",
                "nonce" : "0x03",
                "storage" : {
                }
            },
            "0x90f0b1ebbba1c1936aff7aaf20a7878ff9e04b6c" : {
                "balance" : "0x0de0b6b3a7640000",
                "code" : "0x",
                "nonce" : "0x00",
                "storage" : {
                }
            },
            "0xc305c901078781c232a2a521c2af7980f8385ee9" : {
                "balance" : "0x00",
                "code" : "0x600035601c52740100000000000000000000000000000000000000006020526fffffffffffffffffffffffffffffffff6040527fffffffffffffffffffffffffffffffff000000000000000000000000000000016060527402540be3fffffffffffffffffffffffffdabf41c006080527ffffffffffffffffffffffffdabf41c00000000000000000000000002540be40060a0526330c8d1da600051141561012b5760c06004356004013511151558576004356004013560200160043560040161014037604061026061014051610160600060076305f5e0fff11558576040610240526102406060806102c0828460006004601bf15050506102c08051602082012090506000556102c060206020820352604081510160206001820306601f820103905060208203f350005b",
                "nonce" : "0x01",
                "storage" : {
                }
            },
            "0xdceceaf3fc5c0a63d195d69b1a90011b7b19650d" : {
                "balance" : "0x0de0b6b3a7640000",
                "code" : "0x",
                "nonce" : "0x00",
                "storage" : {
                }
            },
            "0xe0fc04fa2d34a66b779fd5cee748268032a146c0" : {
                "balance" : "0x0de0b6b3a7640000",
                "code" : "0x",
                "nonce" : "0x00",
                "storage" : {
                }
            }
        },
        "transaction" : {
            "data" : [
                "0x30c8d1da0000000000000000000000000000000000000000000000000000000000000020000000000000000000000000000000000000000000000000000000000000004000000000000000000000000000000000000000000000000000000000000000000000000000000000000000000000000000000000000000000000000000000000"
            ],
            "gasPrice" : "0x0a",
            "gasLimit" : [
                "0xa7a0",
                "0x015f90",
                "0x01adb0",
                "0x030d40"
            ],
            "nonce" : "0x03",
            "secretKey" : "0x044852b2a670ade5407e78fb2863c51de9fcb96542a07186fe3aeda6bb8a116d",
            "to" : "0xc305c901078781c232a2a521c2af7980f8385ee9",
            "value" : [
                "0x00"
            ]
        }
    }
}