{
    "recursiveCreate_d0g0v0_Berlin" : {
        "_info" : {
            "comment" : "",
            "filling-rpc-server" : "evm version 1.10.4-unstable-966ee3ae-20210528",
            "filling-tool-version" : "retesteth-0.1.1-eip1559+commit.658fc3a8.Linux.g++",
            "lllcversion" : "Version: 0.5.14-develop.2021.5.18+commit.14c9d5de.mod.Linux.g++",
            "source" : "src/GeneralStateTestsFiller/stRecursiveCreate/recursiveCreateFiller.json",
            "sourceHash" : "ad311df5585d51344d6d8c56296ba25e16254e1dc83a6b3dc82439c10e4cf943"
        },
        "genesisBlockHeader" : {
            "bloom" : "0x00000000000000000000000000000000000000000000000000000000000000000000000000000000000000000000000000000000000000000000000000000000000000000000000000000000000000000000000000000000000000000000000000000000000000000000000000000000000000000000000000000000000000000000000000000000000000000000000000000000000000000000000000000000000000000000000000000000000000000000000000000000000000000000000000000000000000000000000000000000000000000000000000000000000000000000000000000000000000000000000000000000000000000000000000000000",
            "coinbase" : "0x2adc25665018aa1fe0e6bc666dac8fc2697ff9ba",
            "difficulty" : "0x020000",
            "extraData" : "0x00",
            "gasLimit" : "0x989680",
            "gasUsed" : "0x00",
            "hash" : "0x2b0855a1b815181f8a5c916c8d0037b83bc1f575d528c3b27dab795b96a496a9",
            "mixHash" : "0x0000000000000000000000000000000000000000000000000000000000000000",
            "nonce" : "0x0000000000000000",
            "number" : "0x00",
            "parentHash" : "0x0000000000000000000000000000000000000000000000000000000000000000",
            "receiptTrie" : "0x56e81f171bcc55a6ff8345e692c0f86e5b48e01b996cadc001622fb5e363b421",
            "stateRoot" : "0x3959c37a22aa6e9b2213c1095c2b77c57044de3284e5c601c9d682769cd19dde",
            "timestamp" : "0x00",
            "transactionsTrie" : "0x56e81f171bcc55a6ff8345e692c0f86e5b48e01b996cadc001622fb5e363b421",
            "uncleHash" : "0x1dcc4de8dec75d7aab85b567b6ccd41ad312451b948a7413f0a142fd40d49347"
        },
        "pre" : {
            "0x095e7baea6a6c7c4c2dfeb977efac326af552d87" : {
                "balance" : "0x01312d00",
                "code" : "0x60206000600039602060006000f000",
                "nonce" : "0x00",
                "storage" : {
                }
            },
            "0xa94f5374fce5edbc8e2a8697c15331677e6ebf0b" : {
                "balance" : "0x0de0b6b3a7640000",
                "code" : "0x",
                "nonce" : "0x00",
                "storage" : {
                }
            }
        },
        "postState" : {
            "0x095e7baea6a6c7c4c2dfeb977efac326af552d87" : {
                "code" : "0x60206000600039602060006000f000",
                "nonce" : "0x01",
                "balance" : "0x0132b3a0",
                "storage" : {
                }
            },
            "0x26963175b50e69c2400aa12887cad973aa275ff0" : {
                "code" : "0x",
                "nonce" : "0x02",
                "balance" : "0x00",
                "storage" : {
                }
            },
            "0x283b585ba5bc85d64a99cb5ecb9a8495ac944948" : {
                "code" : "0x",
                "nonce" : "0x02",
                "balance" : "0x00",
                "storage" : {
                }
            },
            "0x2adc25665018aa1fe0e6bc666dac8fc2697ff9ba" : {
                "code" : "0x",
                "nonce" : "0x00",
                "balance" : "0x1bc16d674f08f1a0",
                "storage" : {
                }
            },
            "0x4326e4b5aa29095a293f86c51e4776beeeb13c9b" : {
                "code" : "0x",
                "nonce" : "0x02",
                "balance" : "0x00",
                "storage" : {
                }
            },
            "0x6965235e025001fb620d441803fedb005f7ac710" : {
                "code" : "0x",
                "nonce" : "0x02",
                "balance" : "0x00",
                "storage" : {
                }
            },
            "0x7e495061f514448f3dd51bb0cf909eef3c3f4712" : {
                "code" : "0x",
                "nonce" : "0x02",
                "balance" : "0x00",
                "storage" : {
                }
            },
            "0x91ed00a0a906270d466af043c4e111dadca970a3" : {
                "code" : "0x",
                "nonce" : "0x02",
                "balance" : "0x00",
                "storage" : {
                }
            },
            "0x923945f4390ee06a73a80c1f56f979f7959755df" : {
                "code" : "0x",
                "nonce" : "0x02",
                "balance" : "0x00",
                "storage" : {
                }
            },
            "0xa94f5374fce5edbc8e2a8697c15331677e6ebf0b" : {
                "code" : "0x",
                "nonce" : "0x01",
                "balance" : "0x0de0b6b3a72187c0",
                "storage" : {
                }
            },
            "0xb1fe911acf07cc8107d984408a443c5af42389e0" : {
                "code" : "0x",
                "nonce" : "0x02",
                "balance" : "0x00",
                "storage" : {
                }
            },
            "0xb679828fa6040990410b3282e916bfbd6c74f890" : {
                "code" : "0x",
                "nonce" : "0x02",
                "balance" : "0x00",
                "storage" : {
                }
            },
            "0xd2571607e241ecf590ed94b12d87c94babe36db6" : {
                "code" : "0x",
                "nonce" : "0x02",
                "balance" : "0x00",
                "storage" : {
                }
            },
            "0xec51d36be1c8fd3ff3c74210e408a8710163ceb8" : {
                "code" : "0x",
                "nonce" : "0x02",
                "balance" : "0x00",
                "storage" : {
                }
            }
        },
        "network" : "Berlin",
        "sealEngine" : "NoProof",
        "lastblockhash" : "0x7aef8891696f14e9221a4e4710a0c41eb4918843b131c9c48efa6fafbaf9901c",
        "genesisRLP" : "0xf901f8f901f3a00000000000000000000000000000000000000000000000000000000000000000a01dcc4de8dec75d7aab85b567b6ccd41ad312451b948a7413f0a142fd40d49347942adc25665018aa1fe0e6bc666dac8fc2697ff9baa03959c37a22aa6e9b2213c1095c2b77c57044de3284e5c601c9d682769cd19ddea056e81f171bcc55a6ff8345e692c0f86e5b48e01b996cadc001622fb5e363b421a056e81f171bcc55a6ff8345e692c0f86e5b48e01b996cadc001622fb5e363b421b9010000000000000000000000000000000000000000000000000000000000000000000000000000000000000000000000000000000000000000000000000000000000000000000000000000000000000000000000000000000000000000000000000000000000000000000000000000000000000000000000000000000000000000000000000000000000000000000000000000000000000000000000000000000000000000000000000000000000000000000000000000000000000000000000000000000000000000000000000000000000000000000000000000000000000000000000000000000000000000000000000000000000000000000000000000000000830200008083989680808000a00000000000000000000000000000000000000000000000000000000000000000880000000000000000c0c0",
        "blocks" : [
            {
                "rlp" : "0xf90263f901f8a02b0855a1b815181f8a5c916c8d0037b83bc1f575d528c3b27dab795b96a496a9a01dcc4de8dec75d7aab85b567b6ccd41ad312451b948a7413f0a142fd40d49347942adc25665018aa1fe0e6bc666dac8fc2697ff9baa0246c5b120e363304c5e0d2a520495e34b8a6483a313ca5754976cb3c02ed89cea0c29d0a17d87eb596427f91d7c3068293a6660dbd0ee7c89dcccd444cdd6f2de9a0d8a34dc952b2529906b2fea72e83cf072c11b87d96d67ffd1b50ac5e44295fbcb901000000000000000000000000000000000000000000000000000000000000000000000000000000000000000000000000000000000000000000000000000000000000000000000000000000000000000000000000000000000000000000000000000000000000000000000000000000000000000000000000000000000000000000000000000000000000000000000000000000000000000000000000000000000000000000000000000000000000000000000000000000000000000000000000000000000000000000000000000000000000000000000000000000000000000000000000000000000000000000000000000000000000000000000000000000000083020000018398968083067e908203e800a00000000000000000000000000000000000000000000000000000000000000000880000000000000000f865f863800a8307194894095e7baea6a6c7c4c2dfeb977efac326af552d87830186a0801ba0e09f431eb694e4b46e0eb325c6da0bc8cb60445e99a81f866cb7f4e49e59a03da00ed1cab2222bf904d208f6d0a7b6f6ee0964fabba0664d33b4c9af6bb5437ea9c0",
                "blockHeader" : {
                    "bloom" : "0x00000000000000000000000000000000000000000000000000000000000000000000000000000000000000000000000000000000000000000000000000000000000000000000000000000000000000000000000000000000000000000000000000000000000000000000000000000000000000000000000000000000000000000000000000000000000000000000000000000000000000000000000000000000000000000000000000000000000000000000000000000000000000000000000000000000000000000000000000000000000000000000000000000000000000000000000000000000000000000000000000000000000000000000000000000000",
                    "coinbase" : "0x2adc25665018aa1fe0e6bc666dac8fc2697ff9ba",
                    "difficulty" : "0x020000",
                    "extraData" : "0x00",
                    "gasLimit" : "0x989680",
                    "gasUsed" : "0x067e90",
                    "hash" : "0x7aef8891696f14e9221a4e4710a0c41eb4918843b131c9c48efa6fafbaf9901c",
                    "mixHash" : "0x0000000000000000000000000000000000000000000000000000000000000000",
                    "nonce" : "0x0000000000000000",
                    "number" : "0x01",
                    "parentHash" : "0x2b0855a1b815181f8a5c916c8d0037b83bc1f575d528c3b27dab795b96a496a9",
                    "receiptTrie" : "0xd8a34dc952b2529906b2fea72e83cf072c11b87d96d67ffd1b50ac5e44295fbc",
                    "stateRoot" : "0x246c5b120e363304c5e0d2a520495e34b8a6483a313ca5754976cb3c02ed89ce",
                    "timestamp" : "0x03e8",
                    "transactionsTrie" : "0xc29d0a17d87eb596427f91d7c3068293a6660dbd0ee7c89dcccd444cdd6f2de9",
                    "uncleHash" : "0x1dcc4de8dec75d7aab85b567b6ccd41ad312451b948a7413f0a142fd40d49347"
                },
                "transactions" : [
                    {
                        "data" : "0x",
                        "gasLimit" : "0x071948",
                        "gasPrice" : "0x0a",
                        "nonce" : "0x00",
                        "to" : "0x095e7baea6a6c7c4c2dfeb977efac326af552d87",
                        "value" : "0x0186a0",
                        "v" : "0x1b",
                        "r" : "0xe09f431eb694e4b46e0eb325c6da0bc8cb60445e99a81f866cb7f4e49e59a03d",
                        "s" : "0x0ed1cab2222bf904d208f6d0a7b6f6ee0964fabba0664d33b4c9af6bb5437ea9"
                    }
                ],
                "uncleHeaders" : [
                ]
            }
        ]
    },
    "recursiveCreate_d0g0v0_Istanbul" : {
        "_info" : {
            "comment" : "",
            "filling-rpc-server" : "evm version 1.10.4-unstable-966ee3ae-20210528",
            "filling-tool-version" : "retesteth-0.1.1-eip1559+commit.658fc3a8.Linux.g++",
            "lllcversion" : "Version: 0.5.14-develop.2021.5.18+commit.14c9d5de.mod.Linux.g++",
            "source" : "src/GeneralStateTestsFiller/stRecursiveCreate/recursiveCreateFiller.json",
            "sourceHash" : "ad311df5585d51344d6d8c56296ba25e16254e1dc83a6b3dc82439c10e4cf943"
        },
        "genesisBlockHeader" : {
            "bloom" : "0x00000000000000000000000000000000000000000000000000000000000000000000000000000000000000000000000000000000000000000000000000000000000000000000000000000000000000000000000000000000000000000000000000000000000000000000000000000000000000000000000000000000000000000000000000000000000000000000000000000000000000000000000000000000000000000000000000000000000000000000000000000000000000000000000000000000000000000000000000000000000000000000000000000000000000000000000000000000000000000000000000000000000000000000000000000000",
            "coinbase" : "0x2adc25665018aa1fe0e6bc666dac8fc2697ff9ba",
            "difficulty" : "0x020000",
            "extraData" : "0x00",
            "gasLimit" : "0x989680",
            "gasUsed" : "0x00",
            "hash" : "0x2b0855a1b815181f8a5c916c8d0037b83bc1f575d528c3b27dab795b96a496a9",
            "mixHash" : "0x0000000000000000000000000000000000000000000000000000000000000000",
            "nonce" : "0x0000000000000000",
            "number" : "0x00",
            "parentHash" : "0x0000000000000000000000000000000000000000000000000000000000000000",
            "receiptTrie" : "0x56e81f171bcc55a6ff8345e692c0f86e5b48e01b996cadc001622fb5e363b421",
            "stateRoot" : "0x3959c37a22aa6e9b2213c1095c2b77c57044de3284e5c601c9d682769cd19dde",
            "timestamp" : "0x00",
            "transactionsTrie" : "0x56e81f171bcc55a6ff8345e692c0f86e5b48e01b996cadc001622fb5e363b421",
            "uncleHash" : "0x1dcc4de8dec75d7aab85b567b6ccd41ad312451b948a7413f0a142fd40d49347"
        },
        "pre" : {
            "0x095e7baea6a6c7c4c2dfeb977efac326af552d87" : {
                "balance" : "0x01312d00",
                "code" : "0x60206000600039602060006000f000",
                "nonce" : "0x00",
                "storage" : {
                }
            },
            "0xa94f5374fce5edbc8e2a8697c15331677e6ebf0b" : {
                "balance" : "0x0de0b6b3a7640000",
                "code" : "0x",
                "nonce" : "0x00",
                "storage" : {
                }
            }
        },
        "postState" : {
            "0x095e7baea6a6c7c4c2dfeb977efac326af552d87" : {
                "code" : "0x60206000600039602060006000f000",
                "nonce" : "0x01",
                "balance" : "0x0132b3a0",
                "storage" : {
                }
            },
            "0x26963175b50e69c2400aa12887cad973aa275ff0" : {
                "code" : "0x",
                "nonce" : "0x02",
                "balance" : "0x00",
                "storage" : {
                }
            },
            "0x283b585ba5bc85d64a99cb5ecb9a8495ac944948" : {
                "code" : "0x",
                "nonce" : "0x02",
                "balance" : "0x00",
                "storage" : {
                }
            },
            "0x2adc25665018aa1fe0e6bc666dac8fc2697ff9ba" : {
                "code" : "0x",
                "nonce" : "0x00",
                "balance" : "0x1bc16d674f08f1a0",
                "storage" : {
                }
            },
            "0x4326e4b5aa29095a293f86c51e4776beeeb13c9b" : {
                "code" : "0x",
                "nonce" : "0x02",
                "balance" : "0x00",
                "storage" : {
                }
            },
            "0x6965235e025001fb620d441803fedb005f7ac710" : {
                "code" : "0x",
                "nonce" : "0x02",
                "balance" : "0x00",
                "storage" : {
                }
            },
            "0x7e495061f514448f3dd51bb0cf909eef3c3f4712" : {
                "code" : "0x",
                "nonce" : "0x02",
                "balance" : "0x00",
                "storage" : {
                }
            },
            "0x91ed00a0a906270d466af043c4e111dadca970a3" : {
                "code" : "0x",
                "nonce" : "0x02",
                "balance" : "0x00",
                "storage" : {
                }
            },
            "0x923945f4390ee06a73a80c1f56f979f7959755df" : {
                "code" : "0x",
                "nonce" : "0x02",
                "balance" : "0x00",
                "storage" : {
                }
            },
            "0xa94f5374fce5edbc8e2a8697c15331677e6ebf0b" : {
                "code" : "0x",
                "nonce" : "0x01",
                "balance" : "0x0de0b6b3a72187c0",
                "storage" : {
                }
            },
            "0xb1fe911acf07cc8107d984408a443c5af42389e0" : {
                "code" : "0x",
                "nonce" : "0x02",
                "balance" : "0x00",
                "storage" : {
                }
            },
            "0xb679828fa6040990410b3282e916bfbd6c74f890" : {
                "code" : "0x",
                "nonce" : "0x02",
                "balance" : "0x00",
                "storage" : {
                }
            },
            "0xd2571607e241ecf590ed94b12d87c94babe36db6" : {
                "code" : "0x",
                "nonce" : "0x02",
                "balance" : "0x00",
                "storage" : {
                }
            },
            "0xec51d36be1c8fd3ff3c74210e408a8710163ceb8" : {
                "code" : "0x",
                "nonce" : "0x02",
                "balance" : "0x00",
                "storage" : {
                }
            }
        },
        "network" : "Istanbul",
        "sealEngine" : "NoProof",
        "lastblockhash" : "0x7aef8891696f14e9221a4e4710a0c41eb4918843b131c9c48efa6fafbaf9901c",
        "genesisRLP" : "0xf901f8f901f3a00000000000000000000000000000000000000000000000000000000000000000a01dcc4de8dec75d7aab85b567b6ccd41ad312451b948a7413f0a142fd40d49347942adc25665018aa1fe0e6bc666dac8fc2697ff9baa03959c37a22aa6e9b2213c1095c2b77c57044de3284e5c601c9d682769cd19ddea056e81f171bcc55a6ff8345e692c0f86e5b48e01b996cadc001622fb5e363b421a056e81f171bcc55a6ff8345e692c0f86e5b48e01b996cadc001622fb5e363b421b9010000000000000000000000000000000000000000000000000000000000000000000000000000000000000000000000000000000000000000000000000000000000000000000000000000000000000000000000000000000000000000000000000000000000000000000000000000000000000000000000000000000000000000000000000000000000000000000000000000000000000000000000000000000000000000000000000000000000000000000000000000000000000000000000000000000000000000000000000000000000000000000000000000000000000000000000000000000000000000000000000000000000000000000000000000000000830200008083989680808000a00000000000000000000000000000000000000000000000000000000000000000880000000000000000c0c0",
        "blocks" : [
            {
                "rlp" : "0xf90263f901f8a02b0855a1b815181f8a5c916c8d0037b83bc1f575d528c3b27dab795b96a496a9a01dcc4de8dec75d7aab85b567b6ccd41ad312451b948a7413f0a142fd40d49347942adc25665018aa1fe0e6bc666dac8fc2697ff9baa0246c5b120e363304c5e0d2a520495e34b8a6483a313ca5754976cb3c02ed89cea0c29d0a17d87eb596427f91d7c3068293a6660dbd0ee7c89dcccd444cdd6f2de9a0d8a34dc952b2529906b2fea72e83cf072c11b87d96d67ffd1b50ac5e44295fbcb901000000000000000000000000000000000000000000000000000000000000000000000000000000000000000000000000000000000000000000000000000000000000000000000000000000000000000000000000000000000000000000000000000000000000000000000000000000000000000000000000000000000000000000000000000000000000000000000000000000000000000000000000000000000000000000000000000000000000000000000000000000000000000000000000000000000000000000000000000000000000000000000000000000000000000000000000000000000000000000000000000000000000000000000000000000000083020000018398968083067e908203e800a00000000000000000000000000000000000000000000000000000000000000000880000000000000000f865f863800a8307194894095e7baea6a6c7c4c2dfeb977efac326af552d87830186a0801ba0e09f431eb694e4b46e0eb325c6da0bc8cb60445e99a81f866cb7f4e49e59a03da00ed1cab2222bf904d208f6d0a7b6f6ee0964fabba0664d33b4c9af6bb5437ea9c0",
                "blockHeader" : {
                    "bloom" : "0x00000000000000000000000000000000000000000000000000000000000000000000000000000000000000000000000000000000000000000000000000000000000000000000000000000000000000000000000000000000000000000000000000000000000000000000000000000000000000000000000000000000000000000000000000000000000000000000000000000000000000000000000000000000000000000000000000000000000000000000000000000000000000000000000000000000000000000000000000000000000000000000000000000000000000000000000000000000000000000000000000000000000000000000000000000000",
                    "coinbase" : "0x2adc25665018aa1fe0e6bc666dac8fc2697ff9ba",
                    "difficulty" : "0x020000",
                    "extraData" : "0x00",
                    "gasLimit" : "0x989680",
                    "gasUsed" : "0x067e90",
                    "hash" : "0x7aef8891696f14e9221a4e4710a0c41eb4918843b131c9c48efa6fafbaf9901c",
                    "mixHash" : "0x0000000000000000000000000000000000000000000000000000000000000000",
                    "nonce" : "0x0000000000000000",
                    "number" : "0x01",
                    "parentHash" : "0x2b0855a1b815181f8a5c916c8d0037b83bc1f575d528c3b27dab795b96a496a9",
                    "receiptTrie" : "0xd8a34dc952b2529906b2fea72e83cf072c11b87d96d67ffd1b50ac5e44295fbc",
                    "stateRoot" : "0x246c5b120e363304c5e0d2a520495e34b8a6483a313ca5754976cb3c02ed89ce",
                    "timestamp" : "0x03e8",
                    "transactionsTrie" : "0xc29d0a17d87eb596427f91d7c3068293a6660dbd0ee7c89dcccd444cdd6f2de9",
                    "uncleHash" : "0x1dcc4de8dec75d7aab85b567b6ccd41ad312451b948a7413f0a142fd40d49347"
                },
                "transactions" : [
                    {
                        "data" : "0x",
                        "gasLimit" : "0x071948",
                        "gasPrice" : "0x0a",
                        "nonce" : "0x00",
                        "to" : "0x095e7baea6a6c7c4c2dfeb977efac326af552d87",
                        "value" : "0x0186a0",
                        "v" : "0x1b",
                        "r" : "0xe09f431eb694e4b46e0eb325c6da0bc8cb60445e99a81f866cb7f4e49e59a03d",
                        "s" : "0x0ed1cab2222bf904d208f6d0a7b6f6ee0964fabba0664d33b4c9af6bb5437ea9"
                    }
                ],
                "uncleHeaders" : [
                ]
            }
        ]
    },
    "recursiveCreate_d0g0v0_London" : {
        "_info" : {
            "comment" : "",
            "filling-rpc-server" : "evm version 1.10.4-unstable-966ee3ae-20210528",
            "filling-tool-version" : "retesteth-0.1.1-eip1559+commit.658fc3a8.Linux.g++",
            "lllcversion" : "Version: 0.5.14-develop.2021.5.18+commit.14c9d5de.mod.Linux.g++",
            "source" : "src/GeneralStateTestsFiller/stRecursiveCreate/recursiveCreateFiller.json",
            "sourceHash" : "ad311df5585d51344d6d8c56296ba25e16254e1dc83a6b3dc82439c10e4cf943"
        },
        "genesisBlockHeader" : {
            "bloom" : "0x00000000000000000000000000000000000000000000000000000000000000000000000000000000000000000000000000000000000000000000000000000000000000000000000000000000000000000000000000000000000000000000000000000000000000000000000000000000000000000000000000000000000000000000000000000000000000000000000000000000000000000000000000000000000000000000000000000000000000000000000000000000000000000000000000000000000000000000000000000000000000000000000000000000000000000000000000000000000000000000000000000000000000000000000000000000",
            "coinbase" : "0x2adc25665018aa1fe0e6bc666dac8fc2697ff9ba",
            "difficulty" : "0x020000",
            "extraData" : "0x00",
            "gasLimit" : "0x989680",
            "gasUsed" : "0x00",
            "hash" : "0xe2d292f1bab3466ed65420d40f0970cf065bf7ffbdf0fedc64c91e9f271bcaf2",
            "mixHash" : "0x0000000000000000000000000000000000000000000000000000000000000000",
            "nonce" : "0x0000000000000000",
            "number" : "0x00",
            "parentHash" : "0x0000000000000000000000000000000000000000000000000000000000000000",
            "receiptTrie" : "0x56e81f171bcc55a6ff8345e692c0f86e5b48e01b996cadc001622fb5e363b421",
            "stateRoot" : "0x3959c37a22aa6e9b2213c1095c2b77c57044de3284e5c601c9d682769cd19dde",
            "timestamp" : "0x00",
            "transactionsTrie" : "0x56e81f171bcc55a6ff8345e692c0f86e5b48e01b996cadc001622fb5e363b421",
            "uncleHash" : "0x1dcc4de8dec75d7aab85b567b6ccd41ad312451b948a7413f0a142fd40d49347",
            "baseFee" : "0x0b"
        },
        "pre" : {
            "0x095e7baea6a6c7c4c2dfeb977efac326af552d87" : {
                "balance" : "0x01312d00",
                "code" : "0x60206000600039602060006000f000",
                "nonce" : "0x00",
                "storage" : {
                }
            },
            "0xa94f5374fce5edbc8e2a8697c15331677e6ebf0b" : {
                "balance" : "0x0de0b6b3a7640000",
                "code" : "0x",
                "nonce" : "0x00",
                "storage" : {
                }
            }
        },
        "postState" : {
            "0x095e7baea6a6c7c4c2dfeb977efac326af552d87" : {
                "code" : "0x60206000600039602060006000f000",
                "nonce" : "0x01",
                "balance" : "0x0132b3a0",
                "storage" : {
                }
            },
            "0x26963175b50e69c2400aa12887cad973aa275ff0" : {
                "code" : "0x",
                "nonce" : "0x02",
                "balance" : "0x00",
                "storage" : {
                }
            },
            "0x283b585ba5bc85d64a99cb5ecb9a8495ac944948" : {
                "code" : "0x",
                "nonce" : "0x02",
                "balance" : "0x00",
                "storage" : {
                }
            },
            "0x2adc25665018aa1fe0e6bc666dac8fc2697ff9ba" : {
                "code" : "0x",
                "nonce" : "0x00",
                "balance" : "0x1bc16d674ec80000",
                "storage" : {
                }
            },
            "0x4326e4b5aa29095a293f86c51e4776beeeb13c9b" : {
                "code" : "0x",
                "nonce" : "0x02",
                "balance" : "0x00",
                "storage" : {
                }
            },
            "0x6965235e025001fb620d441803fedb005f7ac710" : {
                "code" : "0x",
                "nonce" : "0x02",
                "balance" : "0x00",
                "storage" : {
                }
            },
            "0x7e495061f514448f3dd51bb0cf909eef3c3f4712" : {
                "code" : "0x",
                "nonce" : "0x02",
                "balance" : "0x00",
                "storage" : {
                }
            },
            "0x91ed00a0a906270d466af043c4e111dadca970a3" : {
                "code" : "0x",
                "nonce" : "0x02",
                "balance" : "0x00",
                "storage" : {
                }
            },
            "0x923945f4390ee06a73a80c1f56f979f7959755df" : {
                "code" : "0x",
                "nonce" : "0x02",
                "balance" : "0x00",
                "storage" : {
                }
            },
            "0xa94f5374fce5edbc8e2a8697c15331677e6ebf0b" : {
                "code" : "0x",
                "nonce" : "0x01",
                "balance" : "0x0de0b6b3a72187c0",
                "storage" : {
                }
            },
            "0xb1fe911acf07cc8107d984408a443c5af42389e0" : {
                "code" : "0x",
                "nonce" : "0x02",
                "balance" : "0x00",
                "storage" : {
                }
            },
            "0xb679828fa6040990410b3282e916bfbd6c74f890" : {
                "code" : "0x",
                "nonce" : "0x02",
                "balance" : "0x00",
                "storage" : {
                }
            },
            "0xd2571607e241ecf590ed94b12d87c94babe36db6" : {
                "code" : "0x",
                "nonce" : "0x02",
                "balance" : "0x00",
                "storage" : {
                }
            },
            "0xec51d36be1c8fd3ff3c74210e408a8710163ceb8" : {
                "code" : "0x",
                "nonce" : "0x02",
                "balance" : "0x00",
                "storage" : {
                }
            }
        },
        "network" : "London",
        "sealEngine" : "NoProof",
        "lastblockhash" : "0xc05c9b77e1a68c55ae5b38b9e184596b31d0cee8273d29407f5ee69fbcbb4647",
        "genesisRLP" : "0xf901f9f901f4a00000000000000000000000000000000000000000000000000000000000000000a01dcc4de8dec75d7aab85b567b6ccd41ad312451b948a7413f0a142fd40d49347942adc25665018aa1fe0e6bc666dac8fc2697ff9baa03959c37a22aa6e9b2213c1095c2b77c57044de3284e5c601c9d682769cd19ddea056e81f171bcc55a6ff8345e692c0f86e5b48e01b996cadc001622fb5e363b421a056e81f171bcc55a6ff8345e692c0f86e5b48e01b996cadc001622fb5e363b421b9010000000000000000000000000000000000000000000000000000000000000000000000000000000000000000000000000000000000000000000000000000000000000000000000000000000000000000000000000000000000000000000000000000000000000000000000000000000000000000000000000000000000000000000000000000000000000000000000000000000000000000000000000000000000000000000000000000000000000000000000000000000000000000000000000000000000000000000000000000000000000000000000000000000000000000000000000000000000000000000000000000000000000000000000000000000000830200008083989680808000a000000000000000000000000000000000000000000000000000000000000000008800000000000000000bc0c0",
        "blocks" : [
            {
                "rlp" : "0xf90264f901f9a0e2d292f1bab3466ed65420d40f0970cf065bf7ffbdf0fedc64c91e9f271bcaf2a01dcc4de8dec75d7aab85b567b6ccd41ad312451b948a7413f0a142fd40d49347942adc25665018aa1fe0e6bc666dac8fc2697ff9baa0579e94602fee220a1fead8eaa6bc4fe3b1c1d4c3c7fc4b64f18a6e0cc5622e3ea0c29d0a17d87eb596427f91d7c3068293a6660dbd0ee7c89dcccd444cdd6f2de9a0d8a34dc952b2529906b2fea72e83cf072c11b87d96d67ffd1b50ac5e44295fbcb901000000000000000000000000000000000000000000000000000000000000000000000000000000000000000000000000000000000000000000000000000000000000000000000000000000000000000000000000000000000000000000000000000000000000000000000000000000000000000000000000000000000000000000000000000000000000000000000000000000000000000000000000000000000000000000000000000000000000000000000000000000000000000000000000000000000000000000000000000000000000000000000000000000000000000000000000000000000000000000000000000000000000000000000000000000000083020000018398968083067e908203e800a000000000000000000000000000000000000000000000000000000000000000008800000000000000000af865f863800a8307194894095e7baea6a6c7c4c2dfeb977efac326af552d87830186a0801ba0e09f431eb694e4b46e0eb325c6da0bc8cb60445e99a81f866cb7f4e49e59a03da00ed1cab2222bf904d208f6d0a7b6f6ee0964fabba0664d33b4c9af6bb5437ea9c0",
                "blockHeader" : {
                    "bloom" : "0x00000000000000000000000000000000000000000000000000000000000000000000000000000000000000000000000000000000000000000000000000000000000000000000000000000000000000000000000000000000000000000000000000000000000000000000000000000000000000000000000000000000000000000000000000000000000000000000000000000000000000000000000000000000000000000000000000000000000000000000000000000000000000000000000000000000000000000000000000000000000000000000000000000000000000000000000000000000000000000000000000000000000000000000000000000000",
                    "coinbase" : "0x2adc25665018aa1fe0e6bc666dac8fc2697ff9ba",
                    "difficulty" : "0x020000",
                    "extraData" : "0x00",
                    "gasLimit" : "0x989680",
                    "gasUsed" : "0x067e90",
                    "hash" : "0xc05c9b77e1a68c55ae5b38b9e184596b31d0cee8273d29407f5ee69fbcbb4647",
                    "mixHash" : "0x0000000000000000000000000000000000000000000000000000000000000000",
                    "nonce" : "0x0000000000000000",
                    "number" : "0x01",
                    "parentHash" : "0xe2d292f1bab3466ed65420d40f0970cf065bf7ffbdf0fedc64c91e9f271bcaf2",
                    "receiptTrie" : "0xd8a34dc952b2529906b2fea72e83cf072c11b87d96d67ffd1b50ac5e44295fbc",
                    "stateRoot" : "0x579e94602fee220a1fead8eaa6bc4fe3b1c1d4c3c7fc4b64f18a6e0cc5622e3e",
                    "timestamp" : "0x03e8",
                    "transactionsTrie" : "0xc29d0a17d87eb596427f91d7c3068293a6660dbd0ee7c89dcccd444cdd6f2de9",
                    "uncleHash" : "0x1dcc4de8dec75d7aab85b567b6ccd41ad312451b948a7413f0a142fd40d49347",
                    "baseFee" : "0x0a"
                },
                "transactions" : [
                    {
                        "data" : "0x",
                        "gasLimit" : "0x071948",
                        "gasPrice" : "0x0a",
                        "nonce" : "0x00",
                        "to" : "0x095e7baea6a6c7c4c2dfeb977efac326af552d87",
                        "value" : "0x0186a0",
                        "v" : "0x1b",
                        "r" : "0xe09f431eb694e4b46e0eb325c6da0bc8cb60445e99a81f866cb7f4e49e59a03d",
                        "s" : "0x0ed1cab2222bf904d208f6d0a7b6f6ee0964fabba0664d33b4c9af6bb5437ea9"
                    }
                ],
                "uncleHeaders" : [
                ]
            }
        ]
    }
}