{
    "MSTORE_Bounds_d0g1v0_Byzantium" : {
        "_info" : {
            "comment" : "",
            "filledwith" : "testeth 1.7.0-alpha.1-20+commit.782a7283",
            "lllcversion" : "Version: 0.5.0-develop.2018.11.9+commit.9709dfe0.Linux.g++",
            "source" : "src/BlockchainTestsFiller/GeneralStateTests/stMemoryStressTest/MSTORE_Bounds_d0g1v0Filler.json",
            "sourceHash" : "aefae8c49755d6dcf8c0a653131c2608ac81bf04e66fa2a5cb768c891305aba7"
        },
        "blocks" : [
            {
                "blockHeader" : {
                    "bloom" : "0x00000000000000000000000000000000000000000000000000000000000000000000000000000000000000000000000000000000000000000000000000000000000000000000000000000000000000000000000000000000000000000000000000000000000000000000000000000000000000000000000000000000000000000000000000000000000000000000000000000000000000000000000000000000000000000000000000000000000000000000000000000000000000000000000000000000000000000000000000000000000000000000000000000000000000000000000000000000000000000000000000000000000000000000000000000000",
                    "coinbase" : "0x2adc25665018aa1fe0e6bc666dac8fc2697ff9ba",
                    "difficulty" : "0x020000",
                    "extraData" : "0x",
                    "gasLimit" : "0x7fffffffffffffff",
                    "gasUsed" : "0x0ee6b280",
                    "hash" : "0xed83d262906952f6c0fd2095ab22d094813da44b054ffc409b787a7e50ab7fc3",
                    "mixHash" : "0x0000000000000000000000000000000000000000000000000000000000000000",
                    "nonce" : "0x0000000000000000",
                    "number" : "0x01",
                    "parentHash" : "0x98d837951e23fc06d82ceb069aebeaaf89729d3a8cba0246d15f0e035628b007",
                    "receiptTrie" : "0x27408083641cf20cfde86cd87cd57bf10c741d7553352ca96118e31ab8ceb9ce",
                    "stateRoot" : "0xd1878ce76b9f26d798dd843998f51e806b12a0fd910ad148b5fe245dfba18953",
                    "timestamp" : "0x03e8",
                    "transactionsTrie" : "0x169424331d5695b5f35e4f996370b73c523ae5fa8b48771e7a84a5157d0ee5f8",
                    "uncleHash" : "0x1dcc4de8dec75d7aab85b567b6ccd41ad312451b948a7413f0a142fd40d49347"
                },
                "rlp" : "0xf90267f901fea098d837951e23fc06d82ceb069aebeaaf89729d3a8cba0246d15f0e035628b007a01dcc4de8dec75d7aab85b567b6ccd41ad312451b948a7413f0a142fd40d49347942adc25665018aa1fe0e6bc666dac8fc2697ff9baa0d1878ce76b9f26d798dd843998f51e806b12a0fd910ad148b5fe245dfba18953a0169424331d5695b5f35e4f996370b73c523ae5fa8b48771e7a84a5157d0ee5f8a027408083641cf20cfde86cd87cd57bf10c741d7553352ca96118e31ab8ceb9ceb90100000000000000000000000000000000000000000000000000000000000000000000000000000000000000000000000000000000000000000000000000000000000000000000000000000000000000000000000000000000000000000000000000000000000000000000000000000000000000000000000000000000000000000000000000000000000000000000000000000000000000000000000000000000000000000000000000000000000000000000000000000000000000000000000000000000000000000000000000000000000000000000000000000000000000000000000000000000000000000000000000000000000000000000000000000000008302000001887fffffffffffffff840ee6b2808203e880a00000000000000000000000000000000000000000000000000000000000000000880000000000000000f863f8618001840ee6b28094100000000000000000000000000000000000000001801ca0b4d82d934cb8d0b959b87a51e42cd51d560d24a71047b2127e78830404837662a00e7c42d2e4ce666564a232a4705cf6e43a2bcf29ecbd7db39a21484d01383e75c0",
                "transactions" : [
                    {
                        "data" : "0x",
                        "gasLimit" : "0x0ee6b280",
                        "gasPrice" : "0x01",
                        "nonce" : "0x00",
                        "r" : "0xb4d82d934cb8d0b959b87a51e42cd51d560d24a71047b2127e78830404837662",
                        "s" : "0x0e7c42d2e4ce666564a232a4705cf6e43a2bcf29ecbd7db39a21484d01383e75",
                        "to" : "0x1000000000000000000000000000000000000000",
                        "v" : "0x1c",
                        "value" : "0x01"
                    }
                ],
                "uncleHeaders" : [
                ]
            }
        ],
        "genesisBlockHeader" : {
            "bloom" : "0x00000000000000000000000000000000000000000000000000000000000000000000000000000000000000000000000000000000000000000000000000000000000000000000000000000000000000000000000000000000000000000000000000000000000000000000000000000000000000000000000000000000000000000000000000000000000000000000000000000000000000000000000000000000000000000000000000000000000000000000000000000000000000000000000000000000000000000000000000000000000000000000000000000000000000000000000000000000000000000000000000000000000000000000000000000000",
            "coinbase" : "0x2adc25665018aa1fe0e6bc666dac8fc2697ff9ba",
            "difficulty" : "0x020000",
            "extraData" : "0x42",
            "gasLimit" : "0x7fffffffffffffff",
            "gasUsed" : "0x00",
            "hash" : "0x98d837951e23fc06d82ceb069aebeaaf89729d3a8cba0246d15f0e035628b007",
            "mixHash" : "0x56e81f171bcc55a6ff8345e692c0f86e5b48e01b996cadc001622fb5e363b421",
            "nonce" : "0x0102030405060708",
            "number" : "0x00",
            "parentHash" : "0x0000000000000000000000000000000000000000000000000000000000000000",
            "receiptTrie" : "0x56e81f171bcc55a6ff8345e692c0f86e5b48e01b996cadc001622fb5e363b421",
            "stateRoot" : "0xa434f7254f6ed699fbfbc4d6e91cd80f56b42b78f396059fcc4b6ac3f1a5e9d5",
            "timestamp" : "0x03b6",
            "transactionsTrie" : "0x56e81f171bcc55a6ff8345e692c0f86e5b48e01b996cadc001622fb5e363b421",
            "uncleHash" : "0x1dcc4de8dec75d7aab85b567b6ccd41ad312451b948a7413f0a142fd40d49347"
        },
        "genesisRLP" : "0xf901fff901faa00000000000000000000000000000000000000000000000000000000000000000a01dcc4de8dec75d7aab85b567b6ccd41ad312451b948a7413f0a142fd40d49347942adc25665018aa1fe0e6bc666dac8fc2697ff9baa0a434f7254f6ed699fbfbc4d6e91cd80f56b42b78f396059fcc4b6ac3f1a5e9d5a056e81f171bcc55a6ff8345e692c0f86e5b48e01b996cadc001622fb5e363b421a056e81f171bcc55a6ff8345e692c0f86e5b48e01b996cadc001622fb5e363b421b90100000000000000000000000000000000000000000000000000000000000000000000000000000000000000000000000000000000000000000000000000000000000000000000000000000000000000000000000000000000000000000000000000000000000000000000000000000000000000000000000000000000000000000000000000000000000000000000000000000000000000000000000000000000000000000000000000000000000000000000000000000000000000000000000000000000000000000000000000000000000000000000000000000000000000000000000000000000000000000000000000000000000000000000000000000000008302000080887fffffffffffffff808203b642a056e81f171bcc55a6ff8345e692c0f86e5b48e01b996cadc001622fb5e363b421880102030405060708c0c0",
        "lastblockhash" : "0xed83d262906952f6c0fd2095ab22d094813da44b054ffc409b787a7e50ab7fc3",
        "network" : "Byzantium",
        "postState" : {
            "0x1000000000000000000000000000000000000000" : {
                "balance" : "0x00",
                "code" : "0x600167ffffffffffffffff52",
                "nonce" : "0x00",
                "storage" : {
                }
            },
            "0x2adc25665018aa1fe0e6bc666dac8fc2697ff9ba" : {
                "balance" : "0x29a2241b0512b280",
                "code" : "0x",
                "nonce" : "0x00",
                "storage" : {
                }
            },
            "0xa94f5374fce5edbc8e2a8697c15331677e6ebf0b" : {
                "balance" : "0xfffffffffffffffffffffffffffffffffffffffffffffffffffffffff1194d7f",
                "code" : "0x",
                "nonce" : "0x01",
                "storage" : {
                }
            }
        },
        "pre" : {
            "0x1000000000000000000000000000000000000000" : {
                "balance" : "0x00",
                "code" : "0x600167ffffffffffffffff52",
                "nonce" : "0x00",
                "storage" : {
                }
            },
            "0xa94f5374fce5edbc8e2a8697c15331677e6ebf0b" : {
                "balance" : "0xffffffffffffffffffffffffffffffffffffffffffffffffffffffffffffffff",
                "code" : "0x",
                "nonce" : "0x00",
                "storage" : {
                }
            }
        },
        "sealEngine" : "NoProof"
    },
    "MSTORE_Bounds_d0g1v0_Constantinople" : {
        "_info" : {
            "comment" : "",
            "filledwith" : "testeth 1.7.0-alpha.1-20+commit.782a7283",
            "lllcversion" : "Version: 0.5.0-develop.2018.11.9+commit.9709dfe0.Linux.g++",
            "source" : "src/BlockchainTestsFiller/GeneralStateTests/stMemoryStressTest/MSTORE_Bounds_d0g1v0Filler.json",
            "sourceHash" : "aefae8c49755d6dcf8c0a653131c2608ac81bf04e66fa2a5cb768c891305aba7"
        },
        "blocks" : [
            {
                "blockHeader" : {
                    "bloom" : "0x00000000000000000000000000000000000000000000000000000000000000000000000000000000000000000000000000000000000000000000000000000000000000000000000000000000000000000000000000000000000000000000000000000000000000000000000000000000000000000000000000000000000000000000000000000000000000000000000000000000000000000000000000000000000000000000000000000000000000000000000000000000000000000000000000000000000000000000000000000000000000000000000000000000000000000000000000000000000000000000000000000000000000000000000000000000",
                    "coinbase" : "0x2adc25665018aa1fe0e6bc666dac8fc2697ff9ba",
                    "difficulty" : "0x020000",
                    "extraData" : "0x",
                    "gasLimit" : "0x7fffffffffffffff",
                    "gasUsed" : "0x0ee6b280",
                    "hash" : "0x7d178f6d9d17dd58c942b72d7b10461ec09e5d62ada0e223666fdf3111d9c1cf",
                    "mixHash" : "0x0000000000000000000000000000000000000000000000000000000000000000",
                    "nonce" : "0x0000000000000000",
                    "number" : "0x01",
                    "parentHash" : "0x98d837951e23fc06d82ceb069aebeaaf89729d3a8cba0246d15f0e035628b007",
                    "receiptTrie" : "0x27408083641cf20cfde86cd87cd57bf10c741d7553352ca96118e31ab8ceb9ce",
                    "stateRoot" : "0xd016852698bf717def899fcb364b525117c92ca778521d25c382ba50aac7a0cc",
                    "timestamp" : "0x03e8",
                    "transactionsTrie" : "0x169424331d5695b5f35e4f996370b73c523ae5fa8b48771e7a84a5157d0ee5f8",
                    "uncleHash" : "0x1dcc4de8dec75d7aab85b567b6ccd41ad312451b948a7413f0a142fd40d49347"
                },
                "rlp" : "0xf90267f901fea098d837951e23fc06d82ceb069aebeaaf89729d3a8cba0246d15f0e035628b007a01dcc4de8dec75d7aab85b567b6ccd41ad312451b948a7413f0a142fd40d49347942adc25665018aa1fe0e6bc666dac8fc2697ff9baa0d016852698bf717def899fcb364b525117c92ca778521d25c382ba50aac7a0cca0169424331d5695b5f35e4f996370b73c523ae5fa8b48771e7a84a5157d0ee5f8a027408083641cf20cfde86cd87cd57bf10c741d7553352ca96118e31ab8ceb9ceb90100000000000000000000000000000000000000000000000000000000000000000000000000000000000000000000000000000000000000000000000000000000000000000000000000000000000000000000000000000000000000000000000000000000000000000000000000000000000000000000000000000000000000000000000000000000000000000000000000000000000000000000000000000000000000000000000000000000000000000000000000000000000000000000000000000000000000000000000000000000000000000000000000000000000000000000000000000000000000000000000000000000000000000000000000000000008302000001887fffffffffffffff840ee6b2808203e880a00000000000000000000000000000000000000000000000000000000000000000880000000000000000f863f8618001840ee6b28094100000000000000000000000000000000000000001801ca0b4d82d934cb8d0b959b87a51e42cd51d560d24a71047b2127e78830404837662a00e7c42d2e4ce666564a232a4705cf6e43a2bcf29ecbd7db39a21484d01383e75c0",
                "transactions" : [
                    {
                        "data" : "0x",
                        "gasLimit" : "0x0ee6b280",
                        "gasPrice" : "0x01",
                        "nonce" : "0x00",
                        "r" : "0xb4d82d934cb8d0b959b87a51e42cd51d560d24a71047b2127e78830404837662",
                        "s" : "0x0e7c42d2e4ce666564a232a4705cf6e43a2bcf29ecbd7db39a21484d01383e75",
                        "to" : "0x1000000000000000000000000000000000000000",
                        "v" : "0x1c",
                        "value" : "0x01"
                    }
                ],
                "uncleHeaders" : [
                ]
            }
        ],
        "genesisBlockHeader" : {
            "bloom" : "0x00000000000000000000000000000000000000000000000000000000000000000000000000000000000000000000000000000000000000000000000000000000000000000000000000000000000000000000000000000000000000000000000000000000000000000000000000000000000000000000000000000000000000000000000000000000000000000000000000000000000000000000000000000000000000000000000000000000000000000000000000000000000000000000000000000000000000000000000000000000000000000000000000000000000000000000000000000000000000000000000000000000000000000000000000000000",
            "coinbase" : "0x2adc25665018aa1fe0e6bc666dac8fc2697ff9ba",
            "difficulty" : "0x020000",
            "extraData" : "0x42",
            "gasLimit" : "0x7fffffffffffffff",
            "gasUsed" : "0x00",
            "hash" : "0x98d837951e23fc06d82ceb069aebeaaf89729d3a8cba0246d15f0e035628b007",
            "mixHash" : "0x56e81f171bcc55a6ff8345e692c0f86e5b48e01b996cadc001622fb5e363b421",
            "nonce" : "0x0102030405060708",
            "number" : "0x00",
            "parentHash" : "0x0000000000000000000000000000000000000000000000000000000000000000",
            "receiptTrie" : "0x56e81f171bcc55a6ff8345e692c0f86e5b48e01b996cadc001622fb5e363b421",
            "stateRoot" : "0xa434f7254f6ed699fbfbc4d6e91cd80f56b42b78f396059fcc4b6ac3f1a5e9d5",
            "timestamp" : "0x03b6",
            "transactionsTrie" : "0x56e81f171bcc55a6ff8345e692c0f86e5b48e01b996cadc001622fb5e363b421",
            "uncleHash" : "0x1dcc4de8dec75d7aab85b567b6ccd41ad312451b948a7413f0a142fd40d49347"
        },
        "genesisRLP" : "0xf901fff901faa00000000000000000000000000000000000000000000000000000000000000000a01dcc4de8dec75d7aab85b567b6ccd41ad312451b948a7413f0a142fd40d49347942adc25665018aa1fe0e6bc666dac8fc2697ff9baa0a434f7254f6ed699fbfbc4d6e91cd80f56b42b78f396059fcc4b6ac3f1a5e9d5a056e81f171bcc55a6ff8345e692c0f86e5b48e01b996cadc001622fb5e363b421a056e81f171bcc55a6ff8345e692c0f86e5b48e01b996cadc001622fb5e363b421b90100000000000000000000000000000000000000000000000000000000000000000000000000000000000000000000000000000000000000000000000000000000000000000000000000000000000000000000000000000000000000000000000000000000000000000000000000000000000000000000000000000000000000000000000000000000000000000000000000000000000000000000000000000000000000000000000000000000000000000000000000000000000000000000000000000000000000000000000000000000000000000000000000000000000000000000000000000000000000000000000000000000000000000000000000000000008302000080887fffffffffffffff808203b642a056e81f171bcc55a6ff8345e692c0f86e5b48e01b996cadc001622fb5e363b421880102030405060708c0c0",
        "lastblockhash" : "0x7d178f6d9d17dd58c942b72d7b10461ec09e5d62ada0e223666fdf3111d9c1cf",
        "network" : "Constantinople",
        "postState" : {
            "0x1000000000000000000000000000000000000000" : {
                "balance" : "0x00",
                "code" : "0x600167ffffffffffffffff52",
                "nonce" : "0x00",
                "storage" : {
                }
            },
            "0x2adc25665018aa1fe0e6bc666dac8fc2697ff9ba" : {
                "balance" : "0x1bc16d675daeb280",
                "code" : "0x",
                "nonce" : "0x00",
                "storage" : {
                }
            },
            "0xa94f5374fce5edbc8e2a8697c15331677e6ebf0b" : {
                "balance" : "0xfffffffffffffffffffffffffffffffffffffffffffffffffffffffff1194d7f",
                "code" : "0x",
                "nonce" : "0x01",
                "storage" : {
                }
            }
        },
        "pre" : {
            "0x1000000000000000000000000000000000000000" : {
                "balance" : "0x00",
                "code" : "0x600167ffffffffffffffff52",
                "nonce" : "0x00",
                "storage" : {
                }
            },
            "0xa94f5374fce5edbc8e2a8697c15331677e6ebf0b" : {
                "balance" : "0xffffffffffffffffffffffffffffffffffffffffffffffffffffffffffffffff",
                "code" : "0x",
                "nonce" : "0x00",
                "storage" : {
                }
            }
        },
        "sealEngine" : "NoProof"
    },
    "MSTORE_Bounds_d0g1v0_ConstantinopleFix" : {
        "_info" : {
            "comment" : "",
            "filledwith" : "testeth 1.7.0-alpha.1-20+commit.782a7283",
            "lllcversion" : "Version: 0.5.0-develop.2018.11.9+commit.9709dfe0.Linux.g++",
            "source" : "src/BlockchainTestsFiller/GeneralStateTests/stMemoryStressTest/MSTORE_Bounds_d0g1v0Filler.json",
            "sourceHash" : "aefae8c49755d6dcf8c0a653131c2608ac81bf04e66fa2a5cb768c891305aba7"
        },
        "blocks" : [
            {
                "blockHeader" : {
                    "bloom" : "0x00000000000000000000000000000000000000000000000000000000000000000000000000000000000000000000000000000000000000000000000000000000000000000000000000000000000000000000000000000000000000000000000000000000000000000000000000000000000000000000000000000000000000000000000000000000000000000000000000000000000000000000000000000000000000000000000000000000000000000000000000000000000000000000000000000000000000000000000000000000000000000000000000000000000000000000000000000000000000000000000000000000000000000000000000000000",
                    "coinbase" : "0x2adc25665018aa1fe0e6bc666dac8fc2697ff9ba",
                    "difficulty" : "0x020000",
                    "extraData" : "0x",
                    "gasLimit" : "0x7fffffffffffffff",
                    "gasUsed" : "0x0ee6b280",
                    "hash" : "0x7d178f6d9d17dd58c942b72d7b10461ec09e5d62ada0e223666fdf3111d9c1cf",
                    "mixHash" : "0x0000000000000000000000000000000000000000000000000000000000000000",
                    "nonce" : "0x0000000000000000",
                    "number" : "0x01",
                    "parentHash" : "0x98d837951e23fc06d82ceb069aebeaaf89729d3a8cba0246d15f0e035628b007",
                    "receiptTrie" : "0x27408083641cf20cfde86cd87cd57bf10c741d7553352ca96118e31ab8ceb9ce",
                    "stateRoot" : "0xd016852698bf717def899fcb364b525117c92ca778521d25c382ba50aac7a0cc",
                    "timestamp" : "0x03e8",
                    "transactionsTrie" : "0x169424331d5695b5f35e4f996370b73c523ae5fa8b48771e7a84a5157d0ee5f8",
                    "uncleHash" : "0x1dcc4de8dec75d7aab85b567b6ccd41ad312451b948a7413f0a142fd40d49347"
                },
                "rlp" : "0xf90267f901fea098d837951e23fc06d82ceb069aebeaaf89729d3a8cba0246d15f0e035628b007a01dcc4de8dec75d7aab85b567b6ccd41ad312451b948a7413f0a142fd40d49347942adc25665018aa1fe0e6bc666dac8fc2697ff9baa0d016852698bf717def899fcb364b525117c92ca778521d25c382ba50aac7a0cca0169424331d5695b5f35e4f996370b73c523ae5fa8b48771e7a84a5157d0ee5f8a027408083641cf20cfde86cd87cd57bf10c741d7553352ca96118e31ab8ceb9ceb90100000000000000000000000000000000000000000000000000000000000000000000000000000000000000000000000000000000000000000000000000000000000000000000000000000000000000000000000000000000000000000000000000000000000000000000000000000000000000000000000000000000000000000000000000000000000000000000000000000000000000000000000000000000000000000000000000000000000000000000000000000000000000000000000000000000000000000000000000000000000000000000000000000000000000000000000000000000000000000000000000000000000000000000000000000000008302000001887fffffffffffffff840ee6b2808203e880a00000000000000000000000000000000000000000000000000000000000000000880000000000000000f863f8618001840ee6b28094100000000000000000000000000000000000000001801ca0b4d82d934cb8d0b959b87a51e42cd51d560d24a71047b2127e78830404837662a00e7c42d2e4ce666564a232a4705cf6e43a2bcf29ecbd7db39a21484d01383e75c0",
                "transactions" : [
                    {
                        "data" : "0x",
                        "gasLimit" : "0x0ee6b280",
                        "gasPrice" : "0x01",
                        "nonce" : "0x00",
                        "r" : "0xb4d82d934cb8d0b959b87a51e42cd51d560d24a71047b2127e78830404837662",
                        "s" : "0x0e7c42d2e4ce666564a232a4705cf6e43a2bcf29ecbd7db39a21484d01383e75",
                        "to" : "0x1000000000000000000000000000000000000000",
                        "v" : "0x1c",
                        "value" : "0x01"
                    }
                ],
                "uncleHeaders" : [
                ]
            }
        ],
        "genesisBlockHeader" : {
            "bloom" : "0x00000000000000000000000000000000000000000000000000000000000000000000000000000000000000000000000000000000000000000000000000000000000000000000000000000000000000000000000000000000000000000000000000000000000000000000000000000000000000000000000000000000000000000000000000000000000000000000000000000000000000000000000000000000000000000000000000000000000000000000000000000000000000000000000000000000000000000000000000000000000000000000000000000000000000000000000000000000000000000000000000000000000000000000000000000000",
            "coinbase" : "0x2adc25665018aa1fe0e6bc666dac8fc2697ff9ba",
            "difficulty" : "0x020000",
            "extraData" : "0x42",
            "gasLimit" : "0x7fffffffffffffff",
            "gasUsed" : "0x00",
            "hash" : "0x98d837951e23fc06d82ceb069aebeaaf89729d3a8cba0246d15f0e035628b007",
            "mixHash" : "0x56e81f171bcc55a6ff8345e692c0f86e5b48e01b996cadc001622fb5e363b421",
            "nonce" : "0x0102030405060708",
            "number" : "0x00",
            "parentHash" : "0x0000000000000000000000000000000000000000000000000000000000000000",
            "receiptTrie" : "0x56e81f171bcc55a6ff8345e692c0f86e5b48e01b996cadc001622fb5e363b421",
            "stateRoot" : "0xa434f7254f6ed699fbfbc4d6e91cd80f56b42b78f396059fcc4b6ac3f1a5e9d5",
            "timestamp" : "0x03b6",
            "transactionsTrie" : "0x56e81f171bcc55a6ff8345e692c0f86e5b48e01b996cadc001622fb5e363b421",
            "uncleHash" : "0x1dcc4de8dec75d7aab85b567b6ccd41ad312451b948a7413f0a142fd40d49347"
        },
        "genesisRLP" : "0xf901fff901faa00000000000000000000000000000000000000000000000000000000000000000a01dcc4de8dec75d7aab85b567b6ccd41ad312451b948a7413f0a142fd40d49347942adc25665018aa1fe0e6bc666dac8fc2697ff9baa0a434f7254f6ed699fbfbc4d6e91cd80f56b42b78f396059fcc4b6ac3f1a5e9d5a056e81f171bcc55a6ff8345e692c0f86e5b48e01b996cadc001622fb5e363b421a056e81f171bcc55a6ff8345e692c0f86e5b48e01b996cadc001622fb5e363b421b90100000000000000000000000000000000000000000000000000000000000000000000000000000000000000000000000000000000000000000000000000000000000000000000000000000000000000000000000000000000000000000000000000000000000000000000000000000000000000000000000000000000000000000000000000000000000000000000000000000000000000000000000000000000000000000000000000000000000000000000000000000000000000000000000000000000000000000000000000000000000000000000000000000000000000000000000000000000000000000000000000000000000000000000000000000000008302000080887fffffffffffffff808203b642a056e81f171bcc55a6ff8345e692c0f86e5b48e01b996cadc001622fb5e363b421880102030405060708c0c0",
        "lastblockhash" : "0x7d178f6d9d17dd58c942b72d7b10461ec09e5d62ada0e223666fdf3111d9c1cf",
        "network" : "ConstantinopleFix",
        "postState" : {
            "0x1000000000000000000000000000000000000000" : {
                "balance" : "0x00",
                "code" : "0x600167ffffffffffffffff52",
                "nonce" : "0x00",
                "storage" : {
                }
            },
            "0x2adc25665018aa1fe0e6bc666dac8fc2697ff9ba" : {
                "balance" : "0x1bc16d675daeb280",
                "code" : "0x",
                "nonce" : "0x00",
                "storage" : {
                }
            },
            "0xa94f5374fce5edbc8e2a8697c15331677e6ebf0b" : {
                "balance" : "0xfffffffffffffffffffffffffffffffffffffffffffffffffffffffff1194d7f",
                "code" : "0x",
                "nonce" : "0x01",
                "storage" : {
                }
            }
        },
        "pre" : {
            "0x1000000000000000000000000000000000000000" : {
                "balance" : "0x00",
                "code" : "0x600167ffffffffffffffff52",
                "nonce" : "0x00",
                "storage" : {
                }
            },
            "0xa94f5374fce5edbc8e2a8697c15331677e6ebf0b" : {
                "balance" : "0xffffffffffffffffffffffffffffffffffffffffffffffffffffffffffffffff",
                "code" : "0x",
                "nonce" : "0x00",
                "storage" : {
                }
            }
        },
        "sealEngine" : "NoProof"
    }
}