{
    "sstore_changeFromExternalCallInInitCode_d7g0v0_Constantinople" : {
        "_info" : {
            "comment" : "account already has storage X. create -> in init code change that account's storage -> 0 -> change it to X again ",
            "filledwith" : "testeth 1.7.0-alpha.1-21+commit.78355a28",
            "lllcversion" : "Version: 0.5.0-develop.2018.11.9+commit.9709dfe0.Linux.g++",
            "source" : "src/BlockchainTestsFiller/GeneralStateTests/stSStoreTest/sstore_changeFromExternalCallInInitCode_d7g0v0Filler.json",
            "sourceHash" : "ef1d61896348dc01b4cd28166402196afe51e0cfb3016d746827108bf9501901"
        },
        "blocks" : [
            {
                "blockHeader" : {
                    "bloom" : "0x00000000000000000000000000000000000000000000000000000000000000000000000000000000000000000000000000000000000000000000000000000000000000000000000000000000000000000000000000000000000000000000000000000000000000000000000000000000000000000000000000000000000000000000000000000000000000000000000000000000000000000000000000000000000000000000000000000000000000000000000000000000000000000000000000000000000000000000000000000000000000000000000000000000000000000000000000000000000000000000000000000000000000000000000000000000",
                    "coinbase" : "0x2adc25665018aa1fe0e6bc666dac8fc2697ff9ba",
                    "difficulty" : "0x020000",
                    "extraData" : "0x",
                    "gasLimit" : "0x989680",
                    "gasUsed" : "0x0308f7",
                    "hash" : "0x2984d14aab90d9d808fa82d716a15d48b0892c51885c19de8bfb45a0147bfd6f",
                    "mixHash" : "0x0000000000000000000000000000000000000000000000000000000000000000",
                    "nonce" : "0x0000000000000000",
                    "number" : "0x01",
                    "parentHash" : "0x2598923c4cfa9bdc4c511a5705503158de8de39fe9bea0196b90bcfe271c680c",
                    "receiptTrie" : "0x6a4aa115d6d08d6fe4a8a51150e17ed0c35d1905fe09c4c430e4cb4c3b4126fd",
                    "stateRoot" : "0xcf8b3b64b19d9d77856a4599e2d00d0243597dd927ad705c2ff8461ccd2f07dc",
                    "timestamp" : "0x03e8",
                    "transactionsTrie" : "0x3b15f3ebfadca32bf26798e48611f6df2eb0b35e3055aa103beede920aafb5a0",
                    "uncleHash" : "0x1dcc4de8dec75d7aab85b567b6ccd41ad312451b948a7413f0a142fd40d49347"
                },
                "rlp" : "0xf902a8f901f8a02598923c4cfa9bdc4c511a5705503158de8de39fe9bea0196b90bcfe271c680ca01dcc4de8dec75d7aab85b567b6ccd41ad312451b948a7413f0a142fd40d49347942adc25665018aa1fe0e6bc666dac8fc2697ff9baa0cf8b3b64b19d9d77856a4599e2d00d0243597dd927ad705c2ff8461ccd2f07dca03b15f3ebfadca32bf26798e48611f6df2eb0b35e3055aa103beede920aafb5a0a06a4aa115d6d08d6fe4a8a51150e17ed0c35d1905fe09c4c430e4cb4c3b4126fdb9010000000000000000000000000000000000000000000000000000000000000000000000000000000000000000000000000000000000000000000000000000000000000000000000000000000000000000000000000000000000000000000000000000000000000000000000000000000000000000000000000000000000000000000000000000000000000000000000000000000000000000000000000000000000000000000000000000000000000000000000000000000000000000000000000000000000000000000000000000000000000000000000000000000000000000000000000000000000000000000000000000000000000000000000000000000000830200000183989680830308f78203e880a00000000000000000000000000000000000000000000000000000000000000000880000000000000000f8aaf8a8800183030d408080b85b6000602480603760003960006000f5506000600060006000600073dea000000000000000000000000000000000000062030d40f15000fe6000600060006000600073bea0000000000000000000000000000000000000620186a0f21ba0ab629d1a45b9cb618ba859dc411cddbdafba45a2918899cf678566c25a35dc91a0219d638720085c990264889a866db601f7e6507048dfd6a110f71c1bd1dbb58dc0",
                "transactions" : [
                    {
                        "data" : "0x6000602480603760003960006000f5506000600060006000600073dea000000000000000000000000000000000000062030d40f15000fe6000600060006000600073bea0000000000000000000000000000000000000620186a0f2",
                        "gasLimit" : "0x030d40",
                        "gasPrice" : "0x01",
                        "nonce" : "0x00",
                        "r" : "0xab629d1a45b9cb618ba859dc411cddbdafba45a2918899cf678566c25a35dc91",
                        "s" : "0x219d638720085c990264889a866db601f7e6507048dfd6a110f71c1bd1dbb58d",
                        "to" : "",
                        "v" : "0x1b",
                        "value" : "0x00"
                    }
                ],
                "uncleHeaders" : [
                ]
            }
        ],
        "genesisBlockHeader" : {
            "bloom" : "0x00000000000000000000000000000000000000000000000000000000000000000000000000000000000000000000000000000000000000000000000000000000000000000000000000000000000000000000000000000000000000000000000000000000000000000000000000000000000000000000000000000000000000000000000000000000000000000000000000000000000000000000000000000000000000000000000000000000000000000000000000000000000000000000000000000000000000000000000000000000000000000000000000000000000000000000000000000000000000000000000000000000000000000000000000000000",
            "coinbase" : "0x2adc25665018aa1fe0e6bc666dac8fc2697ff9ba",
            "difficulty" : "0x020000",
            "extraData" : "0x42",
            "gasLimit" : "0x989680",
            "gasUsed" : "0x00",
            "hash" : "0x2598923c4cfa9bdc4c511a5705503158de8de39fe9bea0196b90bcfe271c680c",
            "mixHash" : "0x56e81f171bcc55a6ff8345e692c0f86e5b48e01b996cadc001622fb5e363b421",
            "nonce" : "0x0102030405060708",
            "number" : "0x00",
            "parentHash" : "0x0000000000000000000000000000000000000000000000000000000000000000",
            "receiptTrie" : "0x56e81f171bcc55a6ff8345e692c0f86e5b48e01b996cadc001622fb5e363b421",
            "stateRoot" : "0x1150a9145044889dcab22f3fdfa5ed0826e2b708b96768679929b34d571a4ae8",
            "timestamp" : "0x03b6",
            "transactionsTrie" : "0x56e81f171bcc55a6ff8345e692c0f86e5b48e01b996cadc001622fb5e363b421",
            "uncleHash" : "0x1dcc4de8dec75d7aab85b567b6ccd41ad312451b948a7413f0a142fd40d49347"
        },
        "genesisRLP" : "0xf901faf901f5a00000000000000000000000000000000000000000000000000000000000000000a01dcc4de8dec75d7aab85b567b6ccd41ad312451b948a7413f0a142fd40d49347942adc25665018aa1fe0e6bc666dac8fc2697ff9baa01150a9145044889dcab22f3fdfa5ed0826e2b708b96768679929b34d571a4ae8a056e81f171bcc55a6ff8345e692c0f86e5b48e01b996cadc001622fb5e363b421a056e81f171bcc55a6ff8345e692c0f86e5b48e01b996cadc001622fb5e363b421b9010000000000000000000000000000000000000000000000000000000000000000000000000000000000000000000000000000000000000000000000000000000000000000000000000000000000000000000000000000000000000000000000000000000000000000000000000000000000000000000000000000000000000000000000000000000000000000000000000000000000000000000000000000000000000000000000000000000000000000000000000000000000000000000000000000000000000000000000000000000000000000000000000000000000000000000000000000000000000000000000000000000000000000000000000000000000830200008083989680808203b642a056e81f171bcc55a6ff8345e692c0f86e5b48e01b996cadc001622fb5e363b421880102030405060708c0c0",
        "lastblockhash" : "0x2984d14aab90d9d808fa82d716a15d48b0892c51885c19de8bfb45a0147bfd6f",
        "network" : "Constantinople",
        "postState" : {
            "0x2adc25665018aa1fe0e6bc666dac8fc2697ff9ba" : {
                "balance" : "0x1bc16d674ecb08f7",
                "code" : "0x",
                "nonce" : "0x00",
                "storage" : {
                }
            },
            "0x6295ee1b4f6dd65047762f924ecd367c17eabf8f" : {
                "balance" : "0x00",
                "code" : "0x",
                "nonce" : "0x02",
                "storage" : {
                }
            },
            "0x6602cfc925be62bf18470598a98f72812a1ebef2" : {
                "balance" : "0x00",
                "code" : "0x",
                "nonce" : "0x01",
                "storage" : {
                    "0x00" : "0x01",
                    "0x01" : "0x01"
                }
            },
            "0xa94f5374fce5edbc8e2a8697c15331677e6ebf0b" : {
                "balance" : "0xe8d4a20709",
                "code" : "0x",
                "nonce" : "0x01",
                "storage" : {
                }
            },
            "0xbea0000000000000000000000000000000000000" : {
                "balance" : "0x00",
                "code" : "0x600060015560016001556001600055",
                "nonce" : "0x00",
                "storage" : {
                    "0x01" : "0x01"
                }
            },
            "0xdea0000000000000000000000000000000000000" : {
                "balance" : "0x00",
                "code" : "0x6001600155600060015560016002556000600255600160035560006003556001600455600060045560016005556000600555600160065560006006556001600755600060075560016008556000600855600160095560006009556001600a556000600a556001600b556000600b556001600c556000600c556001600d556000600d556001600e556000600e556001600f556000600f55600160105560006010556001600155",
                "nonce" : "0x00",
                "storage" : {
                }
            }
        },
        "pre" : {
            "0xa94f5374fce5edbc8e2a8697c15331677e6ebf0b" : {
                "balance" : "0xe8d4a51000",
                "code" : "0x",
                "nonce" : "0x00",
                "storage" : {
                }
            },
            "0xbea0000000000000000000000000000000000000" : {
                "balance" : "0x00",
                "code" : "0x600060015560016001556001600055",
                "nonce" : "0x00",
                "storage" : {
                    "0x01" : "0x01"
                }
            },
            "0xdea0000000000000000000000000000000000000" : {
                "balance" : "0x00",
                "code" : "0x6001600155600060015560016002556000600255600160035560006003556001600455600060045560016005556000600555600160065560006006556001600755600060075560016008556000600855600160095560006009556001600a556000600a556001600b556000600b556001600c556000600c556001600d556000600d556001600e556000600e556001600f556000600f55600160105560006010556001600155",
                "nonce" : "0x00",
                "storage" : {
                }
            }
        },
        "sealEngine" : "NoProof"
    },
    "sstore_changeFromExternalCallInInitCode_d7g0v0_ConstantinopleFix" : {
        "_info" : {
            "comment" : "account already has storage X. create -> in init code change that account's storage -> 0 -> change it to X again ",
            "filledwith" : "testeth 1.7.0-alpha.1-21+commit.78355a28",
            "lllcversion" : "Version: 0.5.0-develop.2018.11.9+commit.9709dfe0.Linux.g++",
            "source" : "src/BlockchainTestsFiller/GeneralStateTests/stSStoreTest/sstore_changeFromExternalCallInInitCode_d7g0v0Filler.json",
            "sourceHash" : "ef1d61896348dc01b4cd28166402196afe51e0cfb3016d746827108bf9501901"
        },
        "blocks" : [
            {
                "blockHeader" : {
                    "bloom" : "0x00000000000000000000000000000000000000000000000000000000000000000000000000000000000000000000000000000000000000000000000000000000000000000000000000000000000000000000000000000000000000000000000000000000000000000000000000000000000000000000000000000000000000000000000000000000000000000000000000000000000000000000000000000000000000000000000000000000000000000000000000000000000000000000000000000000000000000000000000000000000000000000000000000000000000000000000000000000000000000000000000000000000000000000000000000000",
                    "coinbase" : "0x2adc25665018aa1fe0e6bc666dac8fc2697ff9ba",
                    "difficulty" : "0x020000",
                    "extraData" : "0x",
                    "gasLimit" : "0x989680",
                    "gasUsed" : "0x030942",
                    "hash" : "0xb452849f3644ce947b827b72d220c5fff09cd3996d7c1dd3bbdcadb72d1bafd0",
                    "mixHash" : "0x0000000000000000000000000000000000000000000000000000000000000000",
                    "nonce" : "0x0000000000000000",
                    "number" : "0x01",
                    "parentHash" : "0x2598923c4cfa9bdc4c511a5705503158de8de39fe9bea0196b90bcfe271c680c",
                    "receiptTrie" : "0xf70b533aaea140abb80024c7c392324b4235c9bf17b92c31230c947a8e282f70",
                    "stateRoot" : "0xbf65526cf27403615a99d0c76c89ad5cef55ca5cbd8b2286a7ec372f140692ed",
                    "timestamp" : "0x03e8",
                    "transactionsTrie" : "0x3b15f3ebfadca32bf26798e48611f6df2eb0b35e3055aa103beede920aafb5a0",
                    "uncleHash" : "0x1dcc4de8dec75d7aab85b567b6ccd41ad312451b948a7413f0a142fd40d49347"
                },
                "rlp" : "0xf902a8f901f8a02598923c4cfa9bdc4c511a5705503158de8de39fe9bea0196b90bcfe271c680ca01dcc4de8dec75d7aab85b567b6ccd41ad312451b948a7413f0a142fd40d49347942adc25665018aa1fe0e6bc666dac8fc2697ff9baa0bf65526cf27403615a99d0c76c89ad5cef55ca5cbd8b2286a7ec372f140692eda03b15f3ebfadca32bf26798e48611f6df2eb0b35e3055aa103beede920aafb5a0a0f70b533aaea140abb80024c7c392324b4235c9bf17b92c31230c947a8e282f70b9010000000000000000000000000000000000000000000000000000000000000000000000000000000000000000000000000000000000000000000000000000000000000000000000000000000000000000000000000000000000000000000000000000000000000000000000000000000000000000000000000000000000000000000000000000000000000000000000000000000000000000000000000000000000000000000000000000000000000000000000000000000000000000000000000000000000000000000000000000000000000000000000000000000000000000000000000000000000000000000000000000000000000000000000000000000000830200000183989680830309428203e880a00000000000000000000000000000000000000000000000000000000000000000880000000000000000f8aaf8a8800183030d408080b85b6000602480603760003960006000f5506000600060006000600073dea000000000000000000000000000000000000062030d40f15000fe6000600060006000600073bea0000000000000000000000000000000000000620186a0f21ba0ab629d1a45b9cb618ba859dc411cddbdafba45a2918899cf678566c25a35dc91a0219d638720085c990264889a866db601f7e6507048dfd6a110f71c1bd1dbb58dc0",
                "transactions" : [
                    {
                        "data" : "0x6000602480603760003960006000f5506000600060006000600073dea000000000000000000000000000000000000062030d40f15000fe6000600060006000600073bea0000000000000000000000000000000000000620186a0f2",
                        "gasLimit" : "0x030d40",
                        "gasPrice" : "0x01",
                        "nonce" : "0x00",
                        "r" : "0xab629d1a45b9cb618ba859dc411cddbdafba45a2918899cf678566c25a35dc91",
                        "s" : "0x219d638720085c990264889a866db601f7e6507048dfd6a110f71c1bd1dbb58d",
                        "to" : "",
                        "v" : "0x1b",
                        "value" : "0x00"
                    }
                ],
                "uncleHeaders" : [
                ]
            }
        ],
        "genesisBlockHeader" : {
            "bloom" : "0x00000000000000000000000000000000000000000000000000000000000000000000000000000000000000000000000000000000000000000000000000000000000000000000000000000000000000000000000000000000000000000000000000000000000000000000000000000000000000000000000000000000000000000000000000000000000000000000000000000000000000000000000000000000000000000000000000000000000000000000000000000000000000000000000000000000000000000000000000000000000000000000000000000000000000000000000000000000000000000000000000000000000000000000000000000000",
            "coinbase" : "0x2adc25665018aa1fe0e6bc666dac8fc2697ff9ba",
            "difficulty" : "0x020000",
            "extraData" : "0x42",
            "gasLimit" : "0x989680",
            "gasUsed" : "0x00",
            "hash" : "0x2598923c4cfa9bdc4c511a5705503158de8de39fe9bea0196b90bcfe271c680c",
            "mixHash" : "0x56e81f171bcc55a6ff8345e692c0f86e5b48e01b996cadc001622fb5e363b421",
            "nonce" : "0x0102030405060708",
            "number" : "0x00",
            "parentHash" : "0x0000000000000000000000000000000000000000000000000000000000000000",
            "receiptTrie" : "0x56e81f171bcc55a6ff8345e692c0f86e5b48e01b996cadc001622fb5e363b421",
            "stateRoot" : "0x1150a9145044889dcab22f3fdfa5ed0826e2b708b96768679929b34d571a4ae8",
            "timestamp" : "0x03b6",
            "transactionsTrie" : "0x56e81f171bcc55a6ff8345e692c0f86e5b48e01b996cadc001622fb5e363b421",
            "uncleHash" : "0x1dcc4de8dec75d7aab85b567b6ccd41ad312451b948a7413f0a142fd40d49347"
        },
        "genesisRLP" : "0xf901faf901f5a00000000000000000000000000000000000000000000000000000000000000000a01dcc4de8dec75d7aab85b567b6ccd41ad312451b948a7413f0a142fd40d49347942adc25665018aa1fe0e6bc666dac8fc2697ff9baa01150a9145044889dcab22f3fdfa5ed0826e2b708b96768679929b34d571a4ae8a056e81f171bcc55a6ff8345e692c0f86e5b48e01b996cadc001622fb5e363b421a056e81f171bcc55a6ff8345e692c0f86e5b48e01b996cadc001622fb5e363b421b9010000000000000000000000000000000000000000000000000000000000000000000000000000000000000000000000000000000000000000000000000000000000000000000000000000000000000000000000000000000000000000000000000000000000000000000000000000000000000000000000000000000000000000000000000000000000000000000000000000000000000000000000000000000000000000000000000000000000000000000000000000000000000000000000000000000000000000000000000000000000000000000000000000000000000000000000000000000000000000000000000000000000000000000000000000000000830200008083989680808203b642a056e81f171bcc55a6ff8345e692c0f86e5b48e01b996cadc001622fb5e363b421880102030405060708c0c0",
        "lastblockhash" : "0xb452849f3644ce947b827b72d220c5fff09cd3996d7c1dd3bbdcadb72d1bafd0",
        "network" : "ConstantinopleFix",
        "postState" : {
            "0x2adc25665018aa1fe0e6bc666dac8fc2697ff9ba" : {
                "balance" : "0x1bc16d674ecb0942",
                "code" : "0x",
                "nonce" : "0x00",
                "storage" : {
                }
            },
            "0x6295ee1b4f6dd65047762f924ecd367c17eabf8f" : {
                "balance" : "0x00",
                "code" : "0x",
                "nonce" : "0x02",
                "storage" : {
                }
            },
            "0x6602cfc925be62bf18470598a98f72812a1ebef2" : {
                "balance" : "0x00",
                "code" : "0x",
                "nonce" : "0x01",
                "storage" : {
                    "0x00" : "0x01",
                    "0x01" : "0x01"
                }
            },
            "0xa94f5374fce5edbc8e2a8697c15331677e6ebf0b" : {
                "balance" : "0xe8d4a206be",
                "code" : "0x",
                "nonce" : "0x01",
                "storage" : {
                }
            },
            "0xbea0000000000000000000000000000000000000" : {
                "balance" : "0x00",
                "code" : "0x600060015560016001556001600055",
                "nonce" : "0x00",
                "storage" : {
                    "0x01" : "0x01"
                }
            },
            "0xdea0000000000000000000000000000000000000" : {
                "balance" : "0x00",
                "code" : "0x6001600155600060015560016002556000600255600160035560006003556001600455600060045560016005556000600555600160065560006006556001600755600060075560016008556000600855600160095560006009556001600a556000600a556001600b556000600b556001600c556000600c556001600d556000600d556001600e556000600e556001600f556000600f55600160105560006010556001600155",
                "nonce" : "0x00",
                "storage" : {
                }
            }
        },
        "pre" : {
            "0xa94f5374fce5edbc8e2a8697c15331677e6ebf0b" : {
                "balance" : "0xe8d4a51000",
                "code" : "0x",
                "nonce" : "0x00",
                "storage" : {
                }
            },
            "0xbea0000000000000000000000000000000000000" : {
                "balance" : "0x00",
                "code" : "0x600060015560016001556001600055",
                "nonce" : "0x00",
                "storage" : {
                    "0x01" : "0x01"
                }
            },
            "0xdea0000000000000000000000000000000000000" : {
                "balance" : "0x00",
                "code" : "0x6001600155600060015560016002556000600255600160035560006003556001600455600060045560016005556000600555600160065560006006556001600755600060075560016008556000600855600160095560006009556001600a556000600a556001600b556000600b556001600c556000600c556001600d556000600d556001600e556000600e556001600f556000600f55600160105560006010556001600155",
                "nonce" : "0x00",
                "storage" : {
                }
            }
        },
        "sealEngine" : "NoProof"
    }
}