{
    "SstoreCallToSelfSubRefundBelowZero_d0g0v0_Constantinople" : {
        "_info" : {
            "comment" : "Test where accnt has slot 1 value of '2', is cleared, then calls itself and overwrites with '3', causing a refund-deduction in second call context",
            "filledwith" : "testeth 1.7.0-alpha.1-21+commit.78355a28",
            "lllcversion" : "Version: 0.5.0-develop.2018.11.9+commit.9709dfe0.Linux.g++",
            "source" : "src/BlockchainTestsFiller/GeneralStateTests/stSStoreTest/SstoreCallToSelfSubRefundBelowZero_d0g0v0Filler.json",
            "sourceHash" : "e5abbd75b6574bb65a568a946fc233375697172afbb25b2480e7e3dc3c9e9f07"
        },
        "blocks" : [
            {
                "blockHeader" : {
                    "bloom" : "0x00000000000000000000000000000000000000000000000000000000000000000000000000000000000000000000000000000000000000000000000000000000000000000000000000000000000000000000000000000000000000000000000000000000000000000000000000000000000000000000000000000000000000000000000000000000000000000000000000000000000000000000000000000000000000000000000000000000000000000000000000000000000000000000000000000000000000000000000000000000000000000000000000000000000000000000000000000000000000000000000000000000000000000000000000000000",
                    "coinbase" : "0x2adc25665018aa1fe0e6bc666dac8fc2697ff9ba",
                    "difficulty" : "0x020000",
                    "extraData" : "0x",
                    "gasLimit" : "0x1000000000",
                    "gasUsed" : "0x695c",
                    "hash" : "0x08787cc0e916a71b08dae0f8f7fd153ec11e76c32880ad458518fa7a1f0b41a3",
                    "mixHash" : "0x0000000000000000000000000000000000000000000000000000000000000000",
                    "nonce" : "0x0000000000000000",
                    "number" : "0x01",
                    "parentHash" : "0x1322635c0ebf54fb1f993df3836d3c173b2a8eddc0eb38ae5b4452241b70ea6b",
                    "receiptTrie" : "0x8832c6b247366f91d314cb8c1442c54f0cc54616a1b9cc871571ca855f65d527",
                    "stateRoot" : "0xb4bd8dbf66e4d6f44c07f11110b0251707549805229120479460371033562471",
                    "timestamp" : "0x03e8",
                    "transactionsTrie" : "0xe9c09daf24f4a6c41251992fd395c4860e16b49538b8f054b07254beb6764ebf",
                    "uncleHash" : "0x1dcc4de8dec75d7aab85b567b6ccd41ad312451b948a7413f0a142fd40d49347"
                },
                "rlp" : "0xf90261f901f9a01322635c0ebf54fb1f993df3836d3c173b2a8eddc0eb38ae5b4452241b70ea6ba01dcc4de8dec75d7aab85b567b6ccd41ad312451b948a7413f0a142fd40d49347942adc25665018aa1fe0e6bc666dac8fc2697ff9baa0b4bd8dbf66e4d6f44c07f11110b0251707549805229120479460371033562471a0e9c09daf24f4a6c41251992fd395c4860e16b49538b8f054b07254beb6764ebfa08832c6b247366f91d314cb8c1442c54f0cc54616a1b9cc871571ca855f65d527b9010000000000000000000000000000000000000000000000000000000000000000000000000000000000000000000000000000000000000000000000000000000000000000000000000000000000000000000000000000000000000000000000000000000000000000000000000000000000000000000000000000000000000000000000000000000000000000000000000000000000000000000000000000000000000000000000000000000000000000000000000000000000000000000000000000000000000000000000000000000000000000000000000000000000000000000000000000000000000000000000000000000000000000000000000000000000830200000185100000000082695c8203e880a00000000000000000000000000000000000000000000000000000000000000000880000000000000000f862f860800183241eb294e12d6474ac4964b9f23812bf3375c1fe637ad3b680801ba040f3438db266a7d413ce23bbf53af41f8ebf855945148418ae6da0213d26c8c5a07aa326d6bf378497d42da537ba6aee21e642d64e734def1ceda80eee7b361f92c0",
                "transactions" : [
                    {
                        "data" : "0x",
                        "gasLimit" : "0x241eb2",
                        "gasPrice" : "0x01",
                        "nonce" : "0x00",
                        "r" : "0x40f3438db266a7d413ce23bbf53af41f8ebf855945148418ae6da0213d26c8c5",
                        "s" : "0x7aa326d6bf378497d42da537ba6aee21e642d64e734def1ceda80eee7b361f92",
                        "to" : "0xe12d6474ac4964b9f23812bf3375c1fe637ad3b6",
                        "v" : "0x1b",
                        "value" : "0x00"
                    }
                ],
                "uncleHeaders" : [
                ]
            }
        ],
        "genesisBlockHeader" : {
            "bloom" : "0x00000000000000000000000000000000000000000000000000000000000000000000000000000000000000000000000000000000000000000000000000000000000000000000000000000000000000000000000000000000000000000000000000000000000000000000000000000000000000000000000000000000000000000000000000000000000000000000000000000000000000000000000000000000000000000000000000000000000000000000000000000000000000000000000000000000000000000000000000000000000000000000000000000000000000000000000000000000000000000000000000000000000000000000000000000000",
            "coinbase" : "0x2adc25665018aa1fe0e6bc666dac8fc2697ff9ba",
            "difficulty" : "0x020000",
            "extraData" : "0x42",
            "gasLimit" : "0x1000000000",
            "gasUsed" : "0x00",
            "hash" : "0x1322635c0ebf54fb1f993df3836d3c173b2a8eddc0eb38ae5b4452241b70ea6b",
            "mixHash" : "0x56e81f171bcc55a6ff8345e692c0f86e5b48e01b996cadc001622fb5e363b421",
            "nonce" : "0x0102030405060708",
            "number" : "0x00",
            "parentHash" : "0x0000000000000000000000000000000000000000000000000000000000000000",
            "receiptTrie" : "0x56e81f171bcc55a6ff8345e692c0f86e5b48e01b996cadc001622fb5e363b421",
            "stateRoot" : "0xb5197b759277337f234eb73abc3bfba4dfe159be8f4aa34370893fe95fb7b4c0",
            "timestamp" : "0x03b6",
            "transactionsTrie" : "0x56e81f171bcc55a6ff8345e692c0f86e5b48e01b996cadc001622fb5e363b421",
            "uncleHash" : "0x1dcc4de8dec75d7aab85b567b6ccd41ad312451b948a7413f0a142fd40d49347"
        },
        "genesisRLP" : "0xf901fcf901f7a00000000000000000000000000000000000000000000000000000000000000000a01dcc4de8dec75d7aab85b567b6ccd41ad312451b948a7413f0a142fd40d49347942adc25665018aa1fe0e6bc666dac8fc2697ff9baa0b5197b759277337f234eb73abc3bfba4dfe159be8f4aa34370893fe95fb7b4c0a056e81f171bcc55a6ff8345e692c0f86e5b48e01b996cadc001622fb5e363b421a056e81f171bcc55a6ff8345e692c0f86e5b48e01b996cadc001622fb5e363b421b90100000000000000000000000000000000000000000000000000000000000000000000000000000000000000000000000000000000000000000000000000000000000000000000000000000000000000000000000000000000000000000000000000000000000000000000000000000000000000000000000000000000000000000000000000000000000000000000000000000000000000000000000000000000000000000000000000000000000000000000000000000000000000000000000000000000000000000000000000000000000000000000000000000000000000000000000000000000000000000000000000000000000000000000000000000000008302000080851000000000808203b642a056e81f171bcc55a6ff8345e692c0f86e5b48e01b996cadc001622fb5e363b421880102030405060708c0c0",
        "lastblockhash" : "0x08787cc0e916a71b08dae0f8f7fd153ec11e76c32880ad458518fa7a1f0b41a3",
        "network" : "Constantinople",
        "postState" : {
            "0x2adc25665018aa1fe0e6bc666dac8fc2697ff9ba" : {
                "balance" : "0x1bc16d674ec8695c",
                "code" : "0x",
                "nonce" : "0x00",
                "storage" : {
                }
            },
            "0xa94f5374fce5edbc8e2a8697c15331677e6ebf0b" : {
                "balance" : "0xffffffffffff96a3",
                "code" : "0x",
                "nonce" : "0x01",
                "storage" : {
                }
            },
            "0xe12d6474ac4964b9f23812bf3375c1fe637ad3b6" : {
                "balance" : "0x00",
                "code" : "0x3330146015576000600155600080808080305af1005b600360015500",
                "nonce" : "0x00",
                "storage" : {
                    "0x01" : "0x03"
                }
            }
        },
        "pre" : {
            "0xa94f5374fce5edbc8e2a8697c15331677e6ebf0b" : {
                "balance" : "0xffffffffffffffff",
                "code" : "0x",
                "nonce" : "0x00",
                "storage" : {
                }
            },
            "0xe12d6474ac4964b9f23812bf3375c1fe637ad3b6" : {
                "balance" : "0x00",
                "code" : "0x3330146015576000600155600080808080305af1005b600360015500",
                "nonce" : "0x00",
                "storage" : {
                    "0x01" : "0x02"
                }
            }
        },
        "sealEngine" : "NoProof"
    },
    "SstoreCallToSelfSubRefundBelowZero_d0g0v0_ConstantinopleFix" : {
        "_info" : {
            "comment" : "Test where accnt has slot 1 value of '2', is cleared, then calls itself and overwrites with '3', causing a refund-deduction in second call context",
            "filledwith" : "testeth 1.7.0-alpha.1-21+commit.78355a28",
            "lllcversion" : "Version: 0.5.0-develop.2018.11.9+commit.9709dfe0.Linux.g++",
            "source" : "src/BlockchainTestsFiller/GeneralStateTests/stSStoreTest/SstoreCallToSelfSubRefundBelowZero_d0g0v0Filler.json",
            "sourceHash" : "e5abbd75b6574bb65a568a946fc233375697172afbb25b2480e7e3dc3c9e9f07"
        },
        "blocks" : [
            {
                "blockHeader" : {
                    "bloom" : "0x00000000000000000000000000000000000000000000000000000000000000000000000000000000000000000000000000000000000000000000000000000000000000000000000000000000000000000000000000000000000000000000000000000000000000000000000000000000000000000000000000000000000000000000000000000000000000000000000000000000000000000000000000000000000000000000000000000000000000000000000000000000000000000000000000000000000000000000000000000000000000000000000000000000000000000000000000000000000000000000000000000000000000000000000000000000",
                    "coinbase" : "0x2adc25665018aa1fe0e6bc666dac8fc2697ff9ba",
                    "difficulty" : "0x020000",
                    "extraData" : "0x",
                    "gasLimit" : "0x1000000000",
                    "gasUsed" : "0x7c1c",
                    "hash" : "0xf9fb43ccd1de2091ef595601ac05b502c0b02966ffa8d2461dfa135b11fefffe",
                    "mixHash" : "0x0000000000000000000000000000000000000000000000000000000000000000",
                    "nonce" : "0x0000000000000000",
                    "number" : "0x01",
                    "parentHash" : "0x1322635c0ebf54fb1f993df3836d3c173b2a8eddc0eb38ae5b4452241b70ea6b",
                    "receiptTrie" : "0x09d3cc205273099199f74df8a188af188539c6dc58f48dded025331eb878aa8a",
                    "stateRoot" : "0x089a8f2e447df8b2e8e72e0fb98928db306e922edaaf8ba4db5d7468517b53c6",
                    "timestamp" : "0x03e8",
                    "transactionsTrie" : "0xe9c09daf24f4a6c41251992fd395c4860e16b49538b8f054b07254beb6764ebf",
                    "uncleHash" : "0x1dcc4de8dec75d7aab85b567b6ccd41ad312451b948a7413f0a142fd40d49347"
                },
                "rlp" : "0xf90261f901f9a01322635c0ebf54fb1f993df3836d3c173b2a8eddc0eb38ae5b4452241b70ea6ba01dcc4de8dec75d7aab85b567b6ccd41ad312451b948a7413f0a142fd40d49347942adc25665018aa1fe0e6bc666dac8fc2697ff9baa0089a8f2e447df8b2e8e72e0fb98928db306e922edaaf8ba4db5d7468517b53c6a0e9c09daf24f4a6c41251992fd395c4860e16b49538b8f054b07254beb6764ebfa009d3cc205273099199f74df8a188af188539c6dc58f48dded025331eb878aa8ab90100000000000000000000000000000000000000000000000000000000000000000000000000000000000000000000000000000000000000000000000000000000000000000000000000000000000000000000000000000000000000000000000000000000000000000000000000000000000000000000000000000000000000000000000000000000000000000000000000000000000000000000000000000000000000000000000000000000000000000000000000000000000000000000000000000000000000000000000000000000000000000000000000000000000000000000000000000000000000000000000000000000000000000000000000000000008302000001851000000000827c1c8203e880a00000000000000000000000000000000000000000000000000000000000000000880000000000000000f862f860800183241eb294e12d6474ac4964b9f23812bf3375c1fe637ad3b680801ba040f3438db266a7d413ce23bbf53af41f8ebf855945148418ae6da0213d26c8c5a07aa326d6bf378497d42da537ba6aee21e642d64e734def1ceda80eee7b361f92c0",
                "transactions" : [
                    {
                        "data" : "0x",
                        "gasLimit" : "0x241eb2",
                        "gasPrice" : "0x01",
                        "nonce" : "0x00",
                        "r" : "0x40f3438db266a7d413ce23bbf53af41f8ebf855945148418ae6da0213d26c8c5",
                        "s" : "0x7aa326d6bf378497d42da537ba6aee21e642d64e734def1ceda80eee7b361f92",
                        "to" : "0xe12d6474ac4964b9f23812bf3375c1fe637ad3b6",
                        "v" : "0x1b",
                        "value" : "0x00"
                    }
                ],
                "uncleHeaders" : [
                ]
            }
        ],
        "genesisBlockHeader" : {
            "bloom" : "0x00000000000000000000000000000000000000000000000000000000000000000000000000000000000000000000000000000000000000000000000000000000000000000000000000000000000000000000000000000000000000000000000000000000000000000000000000000000000000000000000000000000000000000000000000000000000000000000000000000000000000000000000000000000000000000000000000000000000000000000000000000000000000000000000000000000000000000000000000000000000000000000000000000000000000000000000000000000000000000000000000000000000000000000000000000000",
            "coinbase" : "0x2adc25665018aa1fe0e6bc666dac8fc2697ff9ba",
            "difficulty" : "0x020000",
            "extraData" : "0x42",
            "gasLimit" : "0x1000000000",
            "gasUsed" : "0x00",
            "hash" : "0x1322635c0ebf54fb1f993df3836d3c173b2a8eddc0eb38ae5b4452241b70ea6b",
            "mixHash" : "0x56e81f171bcc55a6ff8345e692c0f86e5b48e01b996cadc001622fb5e363b421",
            "nonce" : "0x0102030405060708",
            "number" : "0x00",
            "parentHash" : "0x0000000000000000000000000000000000000000000000000000000000000000",
            "receiptTrie" : "0x56e81f171bcc55a6ff8345e692c0f86e5b48e01b996cadc001622fb5e363b421",
            "stateRoot" : "0xb5197b759277337f234eb73abc3bfba4dfe159be8f4aa34370893fe95fb7b4c0",
            "timestamp" : "0x03b6",
            "transactionsTrie" : "0x56e81f171bcc55a6ff8345e692c0f86e5b48e01b996cadc001622fb5e363b421",
            "uncleHash" : "0x1dcc4de8dec75d7aab85b567b6ccd41ad312451b948a7413f0a142fd40d49347"
        },
        "genesisRLP" : "0xf901fcf901f7a00000000000000000000000000000000000000000000000000000000000000000a01dcc4de8dec75d7aab85b567b6ccd41ad312451b948a7413f0a142fd40d49347942adc25665018aa1fe0e6bc666dac8fc2697ff9baa0b5197b759277337f234eb73abc3bfba4dfe159be8f4aa34370893fe95fb7b4c0a056e81f171bcc55a6ff8345e692c0f86e5b48e01b996cadc001622fb5e363b421a056e81f171bcc55a6ff8345e692c0f86e5b48e01b996cadc001622fb5e363b421b90100000000000000000000000000000000000000000000000000000000000000000000000000000000000000000000000000000000000000000000000000000000000000000000000000000000000000000000000000000000000000000000000000000000000000000000000000000000000000000000000000000000000000000000000000000000000000000000000000000000000000000000000000000000000000000000000000000000000000000000000000000000000000000000000000000000000000000000000000000000000000000000000000000000000000000000000000000000000000000000000000000000000000000000000000000000008302000080851000000000808203b642a056e81f171bcc55a6ff8345e692c0f86e5b48e01b996cadc001622fb5e363b421880102030405060708c0c0",
        "lastblockhash" : "0xf9fb43ccd1de2091ef595601ac05b502c0b02966ffa8d2461dfa135b11fefffe",
        "network" : "ConstantinopleFix",
        "postState" : {
            "0x2adc25665018aa1fe0e6bc666dac8fc2697ff9ba" : {
                "balance" : "0x1bc16d674ec87c1c",
                "code" : "0x",
                "nonce" : "0x00",
                "storage" : {
                }
            },
            "0xa94f5374fce5edbc8e2a8697c15331677e6ebf0b" : {
                "balance" : "0xffffffffffff83e3",
                "code" : "0x",
                "nonce" : "0x01",
                "storage" : {
                }
            },
            "0xe12d6474ac4964b9f23812bf3375c1fe637ad3b6" : {
                "balance" : "0x00",
                "code" : "0x3330146015576000600155600080808080305af1005b600360015500",
                "nonce" : "0x00",
                "storage" : {
                    "0x01" : "0x03"
                }
            }
        },
        "pre" : {
            "0xa94f5374fce5edbc8e2a8697c15331677e6ebf0b" : {
                "balance" : "0xffffffffffffffff",
                "code" : "0x",
                "nonce" : "0x00",
                "storage" : {
                }
            },
            "0xe12d6474ac4964b9f23812bf3375c1fe637ad3b6" : {
                "balance" : "0x00",
                "code" : "0x3330146015576000600155600080808080305af1005b600360015500",
                "nonce" : "0x00",
                "storage" : {
                    "0x01" : "0x02"
                }
            }
        },
        "sealEngine" : "NoProof"
    }
}