{
    "sstore_0toXto0_d4g1v0_Constantinople" : {
        "_info" : {
            "comment" : "change 0 -> X -> 0",
            "filledwith" : "testeth 1.7.0-alpha.1-21+commit.78355a28",
            "lllcversion" : "Version: 0.5.0-develop.2018.11.9+commit.9709dfe0.Linux.g++",
            "source" : "src/BlockchainTestsFiller/GeneralStateTests/stSStoreTest/sstore_0toXto0_d4g1v0Filler.json",
            "sourceHash" : "f5e2c718915ed4c1be5e979221e8a53d780bed4e1dff1f08b8f6bdb5b15d679c"
        },
        "blocks" : [
            {
                "blockHeader" : {
                    "bloom" : "0x00000000000000000000000000000000000000000000000000000000000000000000000000000000000000000000000000000000000000000000000000000000000000000000000000000000000000000000000000000000000000000000000000000000000000000000000000000000000000000000000000000000000000000000000000000000000000000000000000000000000000000000000000000000000000000000000000000000000000000000000000000000000000000000000000000000000000000000000000000000000000000000000000000000000000000000000000000000000000000000000000000000000000000000000000000000",
                    "coinbase" : "0x2adc25665018aa1fe0e6bc666dac8fc2697ff9ba",
                    "difficulty" : "0x020000",
                    "extraData" : "0x",
                    "gasLimit" : "0x989680",
                    "gasUsed" : "0x05bc9c",
                    "hash" : "0x0d5e850ed2824f162843803024f5fc87e982e3d49039de3b7a2568c31ecda14c",
                    "mixHash" : "0x0000000000000000000000000000000000000000000000000000000000000000",
                    "nonce" : "0x0000000000000000",
                    "number" : "0x01",
                    "parentHash" : "0x49fea158b42ef5bfc7964acd2f7a26556868406500ff03e8f23404d9d9178b55",
                    "receiptTrie" : "0xc2ccb2714f0cf228e762ad6e5939a57625fe31c4eb04671ff87c5ab7277f9b28",
                    "stateRoot" : "0x7755fbac14a01e9748cf3083a1e21f662db935122ff640e88b8f8991afeb02cb",
                    "timestamp" : "0x03e8",
                    "transactionsTrie" : "0xb155def9429ae0707e425323c899f02ec0ead1d8d5814a34dff47f3df8b20a0b",
                    "uncleHash" : "0x1dcc4de8dec75d7aab85b567b6ccd41ad312451b948a7413f0a142fd40d49347"
                },
                "rlp" : "0xf90293f901f8a049fea158b42ef5bfc7964acd2f7a26556868406500ff03e8f23404d9d9178b55a01dcc4de8dec75d7aab85b567b6ccd41ad312451b948a7413f0a142fd40d49347942adc25665018aa1fe0e6bc666dac8fc2697ff9baa07755fbac14a01e9748cf3083a1e21f662db935122ff640e88b8f8991afeb02cba0b155def9429ae0707e425323c899f02ec0ead1d8d5814a34dff47f3df8b20a0ba0c2ccb2714f0cf228e762ad6e5939a57625fe31c4eb04671ff87c5ab7277f9b28b90100000000000000000000000000000000000000000000000000000000000000000000000000000000000000000000000000000000000000000000000000000000000000000000000000000000000000000000000000000000000000000000000000000000000000000000000000000000000000000000000000000000000000000000000000000000000000000000000000000000000000000000000000000000000000000000000000000000000000000000000000000000000000000000000000000000000000000000000000000000000000000000000000000000000000000000000000000000000000000000000000000000000000000000000000000000008302000001839896808305bc9c8203e880a00000000000000000000000000000000000000000000000000000000000000000880000000000000000f895f893800183061a808001b8466000600f80603760003960006000f5506000600060006000600073dea0000000000000000000000000000000000000620927c0f15000fe6001600055600060005560016001551ca0edde60c8e2d6b5a813ddc9af7393b771d6a6bc8e77bf467d72b0bc1e5ae72958a05f308f9b8f77f6ada675a9c4d829789480de8f25866bec1d9dc8ccf6c70e75a4c0",
                "transactions" : [
                    {
                        "data" : "0x6000600f80603760003960006000f5506000600060006000600073dea0000000000000000000000000000000000000620927c0f15000fe600160005560006000556001600155",
                        "gasLimit" : "0x061a80",
                        "gasPrice" : "0x01",
                        "nonce" : "0x00",
                        "r" : "0xedde60c8e2d6b5a813ddc9af7393b771d6a6bc8e77bf467d72b0bc1e5ae72958",
                        "s" : "0x5f308f9b8f77f6ada675a9c4d829789480de8f25866bec1d9dc8ccf6c70e75a4",
                        "to" : "",
                        "v" : "0x1c",
                        "value" : "0x01"
                    }
                ],
                "uncleHeaders" : [
                ]
            }
        ],
        "genesisBlockHeader" : {
            "bloom" : "0x00000000000000000000000000000000000000000000000000000000000000000000000000000000000000000000000000000000000000000000000000000000000000000000000000000000000000000000000000000000000000000000000000000000000000000000000000000000000000000000000000000000000000000000000000000000000000000000000000000000000000000000000000000000000000000000000000000000000000000000000000000000000000000000000000000000000000000000000000000000000000000000000000000000000000000000000000000000000000000000000000000000000000000000000000000000",
            "coinbase" : "0x2adc25665018aa1fe0e6bc666dac8fc2697ff9ba",
            "difficulty" : "0x020000",
            "extraData" : "0x42",
            "gasLimit" : "0x989680",
            "gasUsed" : "0x00",
            "hash" : "0x49fea158b42ef5bfc7964acd2f7a26556868406500ff03e8f23404d9d9178b55",
            "mixHash" : "0x56e81f171bcc55a6ff8345e692c0f86e5b48e01b996cadc001622fb5e363b421",
            "nonce" : "0x0102030405060708",
            "number" : "0x00",
            "parentHash" : "0x0000000000000000000000000000000000000000000000000000000000000000",
            "receiptTrie" : "0x56e81f171bcc55a6ff8345e692c0f86e5b48e01b996cadc001622fb5e363b421",
            "stateRoot" : "0x7efc0a1fc89a40fc63d2ea40d5fac88fc482b4a6e52ef1a3c70a27ed3820ed98",
            "timestamp" : "0x03b6",
            "transactionsTrie" : "0x56e81f171bcc55a6ff8345e692c0f86e5b48e01b996cadc001622fb5e363b421",
            "uncleHash" : "0x1dcc4de8dec75d7aab85b567b6ccd41ad312451b948a7413f0a142fd40d49347"
        },
        "genesisRLP" : "0xf901faf901f5a00000000000000000000000000000000000000000000000000000000000000000a01dcc4de8dec75d7aab85b567b6ccd41ad312451b948a7413f0a142fd40d49347942adc25665018aa1fe0e6bc666dac8fc2697ff9baa07efc0a1fc89a40fc63d2ea40d5fac88fc482b4a6e52ef1a3c70a27ed3820ed98a056e81f171bcc55a6ff8345e692c0f86e5b48e01b996cadc001622fb5e363b421a056e81f171bcc55a6ff8345e692c0f86e5b48e01b996cadc001622fb5e363b421b9010000000000000000000000000000000000000000000000000000000000000000000000000000000000000000000000000000000000000000000000000000000000000000000000000000000000000000000000000000000000000000000000000000000000000000000000000000000000000000000000000000000000000000000000000000000000000000000000000000000000000000000000000000000000000000000000000000000000000000000000000000000000000000000000000000000000000000000000000000000000000000000000000000000000000000000000000000000000000000000000000000000000000000000000000000000000830200008083989680808203b642a056e81f171bcc55a6ff8345e692c0f86e5b48e01b996cadc001622fb5e363b421880102030405060708c0c0",
        "lastblockhash" : "0x0d5e850ed2824f162843803024f5fc87e982e3d49039de3b7a2568c31ecda14c",
        "network" : "Constantinople",
        "postState" : {
            "0x24406c20149d7dc74e360dbce32250be9450a0e4" : {
                "balance" : "0x00",
                "code" : "0x",
                "nonce" : "0x01",
                "storage" : {
                    "0x01" : "0x01"
                }
            },
            "0x2adc25665018aa1fe0e6bc666dac8fc2697ff9ba" : {
                "balance" : "0x1bc16d674ecdbc9c",
                "code" : "0x",
                "nonce" : "0x00",
                "storage" : {
                }
            },
            "0x6295ee1b4f6dd65047762f924ecd367c17eabf8f" : {
                "balance" : "0x01",
                "code" : "0x",
                "nonce" : "0x02",
                "storage" : {
                }
            },
            "0xa94f5374fce5edbc8e2a8697c15331677e6ebf0b" : {
                "balance" : "0xe8d49f5363",
                "code" : "0x",
                "nonce" : "0x01",
                "storage" : {
                }
            },
            "0xb000000000000000000000000000000000000000" : {
                "balance" : "0x00",
                "code" : "0x60016001556000600155",
                "nonce" : "0x00",
                "storage" : {
                }
            },
            "0xc000000000000000000000000000000000000000" : {
                "balance" : "0x00",
                "code" : "0x60016001556000600155",
                "nonce" : "0x00",
                "storage" : {
                }
            },
            "0xdea0000000000000000000000000000000000000" : {
                "balance" : "0x00",
                "code" : "0x6001600155600060015560016002556000600255600160035560006003556001600455600060045560016005556000600555600160065560006006556001600755600060075560016008556000600855600160095560006009556001600a556000600a556001600b556000600b556001600c556000600c556001600d556000600d556001600e556000600e556001600f556000600f55600160105560006010556001600155",
                "nonce" : "0x00",
                "storage" : {
                }
            }
        },
        "pre" : {
            "0xa94f5374fce5edbc8e2a8697c15331677e6ebf0b" : {
                "balance" : "0xe8d4a51000",
                "code" : "0x",
                "nonce" : "0x00",
                "storage" : {
                }
            },
            "0xb000000000000000000000000000000000000000" : {
                "balance" : "0x00",
                "code" : "0x60016001556000600155",
                "nonce" : "0x00",
                "storage" : {
                }
            },
            "0xc000000000000000000000000000000000000000" : {
                "balance" : "0x00",
                "code" : "0x60016001556000600155",
                "nonce" : "0x00",
                "storage" : {
                }
            },
            "0xdea0000000000000000000000000000000000000" : {
                "balance" : "0x00",
                "code" : "0x6001600155600060015560016002556000600255600160035560006003556001600455600060045560016005556000600555600160065560006006556001600755600060075560016008556000600855600160095560006009556001600a556000600a556001600b556000600b556001600c556000600c556001600d556000600d556001600e556000600e556001600f556000600f55600160105560006010556001600155",
                "nonce" : "0x00",
                "storage" : {
                }
            }
        },
        "sealEngine" : "NoProof"
    },
    "sstore_0toXto0_d4g1v0_ConstantinopleFix" : {
        "_info" : {
            "comment" : "change 0 -> X -> 0",
            "filledwith" : "testeth 1.7.0-alpha.1-21+commit.78355a28",
            "lllcversion" : "Version: 0.5.0-develop.2018.11.9+commit.9709dfe0.Linux.g++",
            "source" : "src/BlockchainTestsFiller/GeneralStateTests/stSStoreTest/sstore_0toXto0_d4g1v0Filler.json",
            "sourceHash" : "f5e2c718915ed4c1be5e979221e8a53d780bed4e1dff1f08b8f6bdb5b15d679c"
        },
        "blocks" : [
            {
                "blockHeader" : {
                    "bloom" : "0x00000000000000000000000000000000000000000000000000000000000000000000000000000000000000000000000000000000000000000000000000000000000000000000000000000000000000000000000000000000000000000000000000000000000000000000000000000000000000000000000000000000000000000000000000000000000000000000000000000000000000000000000000000000000000000000000000000000000000000000000000000000000000000000000000000000000000000000000000000000000000000000000000000000000000000000000000000000000000000000000000000000000000000000000000000000",
                    "coinbase" : "0x2adc25665018aa1fe0e6bc666dac8fc2697ff9ba",
                    "difficulty" : "0x020000",
                    "extraData" : "0x",
                    "gasLimit" : "0x989680",
                    "gasUsed" : "0x05cfa7",
                    "hash" : "0x18a820f3d0144c8facee643ec4258362c5fef4ad322427c322011b7172b6d369",
                    "mixHash" : "0x0000000000000000000000000000000000000000000000000000000000000000",
                    "nonce" : "0x0000000000000000",
                    "number" : "0x01",
                    "parentHash" : "0x49fea158b42ef5bfc7964acd2f7a26556868406500ff03e8f23404d9d9178b55",
                    "receiptTrie" : "0x2705ce67d091fffe04f79daadb778e5682c569daeb3b3ff1ed81daa16f954611",
                    "stateRoot" : "0xce7faabe0de3089e20b37c9d5ce1b2f19af4dcad4cfce70da879175b95e2b1e0",
                    "timestamp" : "0x03e8",
                    "transactionsTrie" : "0xb155def9429ae0707e425323c899f02ec0ead1d8d5814a34dff47f3df8b20a0b",
                    "uncleHash" : "0x1dcc4de8dec75d7aab85b567b6ccd41ad312451b948a7413f0a142fd40d49347"
                },
                "rlp" : "0xf90293f901f8a049fea158b42ef5bfc7964acd2f7a26556868406500ff03e8f23404d9d9178b55a01dcc4de8dec75d7aab85b567b6ccd41ad312451b948a7413f0a142fd40d49347942adc25665018aa1fe0e6bc666dac8fc2697ff9baa0ce7faabe0de3089e20b37c9d5ce1b2f19af4dcad4cfce70da879175b95e2b1e0a0b155def9429ae0707e425323c899f02ec0ead1d8d5814a34dff47f3df8b20a0ba02705ce67d091fffe04f79daadb778e5682c569daeb3b3ff1ed81daa16f954611b90100000000000000000000000000000000000000000000000000000000000000000000000000000000000000000000000000000000000000000000000000000000000000000000000000000000000000000000000000000000000000000000000000000000000000000000000000000000000000000000000000000000000000000000000000000000000000000000000000000000000000000000000000000000000000000000000000000000000000000000000000000000000000000000000000000000000000000000000000000000000000000000000000000000000000000000000000000000000000000000000000000000000000000000000000000000008302000001839896808305cfa78203e880a00000000000000000000000000000000000000000000000000000000000000000880000000000000000f895f893800183061a808001b8466000600f80603760003960006000f5506000600060006000600073dea0000000000000000000000000000000000000620927c0f15000fe6001600055600060005560016001551ca0edde60c8e2d6b5a813ddc9af7393b771d6a6bc8e77bf467d72b0bc1e5ae72958a05f308f9b8f77f6ada675a9c4d829789480de8f25866bec1d9dc8ccf6c70e75a4c0",
                "transactions" : [
                    {
                        "data" : "0x6000600f80603760003960006000f5506000600060006000600073dea0000000000000000000000000000000000000620927c0f15000fe600160005560006000556001600155",
                        "gasLimit" : "0x061a80",
                        "gasPrice" : "0x01",
                        "nonce" : "0x00",
                        "r" : "0xedde60c8e2d6b5a813ddc9af7393b771d6a6bc8e77bf467d72b0bc1e5ae72958",
                        "s" : "0x5f308f9b8f77f6ada675a9c4d829789480de8f25866bec1d9dc8ccf6c70e75a4",
                        "to" : "",
                        "v" : "0x1c",
                        "value" : "0x01"
                    }
                ],
                "uncleHeaders" : [
                ]
            }
        ],
        "genesisBlockHeader" : {
            "bloom" : "0x00000000000000000000000000000000000000000000000000000000000000000000000000000000000000000000000000000000000000000000000000000000000000000000000000000000000000000000000000000000000000000000000000000000000000000000000000000000000000000000000000000000000000000000000000000000000000000000000000000000000000000000000000000000000000000000000000000000000000000000000000000000000000000000000000000000000000000000000000000000000000000000000000000000000000000000000000000000000000000000000000000000000000000000000000000000",
            "coinbase" : "0x2adc25665018aa1fe0e6bc666dac8fc2697ff9ba",
            "difficulty" : "0x020000",
            "extraData" : "0x42",
            "gasLimit" : "0x989680",
            "gasUsed" : "0x00",
            "hash" : "0x49fea158b42ef5bfc7964acd2f7a26556868406500ff03e8f23404d9d9178b55",
            "mixHash" : "0x56e81f171bcc55a6ff8345e692c0f86e5b48e01b996cadc001622fb5e363b421",
            "nonce" : "0x0102030405060708",
            "number" : "0x00",
            "parentHash" : "0x0000000000000000000000000000000000000000000000000000000000000000",
            "receiptTrie" : "0x56e81f171bcc55a6ff8345e692c0f86e5b48e01b996cadc001622fb5e363b421",
            "stateRoot" : "0x7efc0a1fc89a40fc63d2ea40d5fac88fc482b4a6e52ef1a3c70a27ed3820ed98",
            "timestamp" : "0x03b6",
            "transactionsTrie" : "0x56e81f171bcc55a6ff8345e692c0f86e5b48e01b996cadc001622fb5e363b421",
            "uncleHash" : "0x1dcc4de8dec75d7aab85b567b6ccd41ad312451b948a7413f0a142fd40d49347"
        },
        "genesisRLP" : "0xf901faf901f5a00000000000000000000000000000000000000000000000000000000000000000a01dcc4de8dec75d7aab85b567b6ccd41ad312451b948a7413f0a142fd40d49347942adc25665018aa1fe0e6bc666dac8fc2697ff9baa07efc0a1fc89a40fc63d2ea40d5fac88fc482b4a6e52ef1a3c70a27ed3820ed98a056e81f171bcc55a6ff8345e692c0f86e5b48e01b996cadc001622fb5e363b421a056e81f171bcc55a6ff8345e692c0f86e5b48e01b996cadc001622fb5e363b421b9010000000000000000000000000000000000000000000000000000000000000000000000000000000000000000000000000000000000000000000000000000000000000000000000000000000000000000000000000000000000000000000000000000000000000000000000000000000000000000000000000000000000000000000000000000000000000000000000000000000000000000000000000000000000000000000000000000000000000000000000000000000000000000000000000000000000000000000000000000000000000000000000000000000000000000000000000000000000000000000000000000000000000000000000000000000000830200008083989680808203b642a056e81f171bcc55a6ff8345e692c0f86e5b48e01b996cadc001622fb5e363b421880102030405060708c0c0",
        "lastblockhash" : "0x18a820f3d0144c8facee643ec4258362c5fef4ad322427c322011b7172b6d369",
        "network" : "ConstantinopleFix",
        "postState" : {
            "0x24406c20149d7dc74e360dbce32250be9450a0e4" : {
                "balance" : "0x00",
                "code" : "0x",
                "nonce" : "0x01",
                "storage" : {
                    "0x01" : "0x01"
                }
            },
            "0x2adc25665018aa1fe0e6bc666dac8fc2697ff9ba" : {
                "balance" : "0x1bc16d674ecdcfa7",
                "code" : "0x",
                "nonce" : "0x00",
                "storage" : {
                }
            },
            "0x6295ee1b4f6dd65047762f924ecd367c17eabf8f" : {
                "balance" : "0x01",
                "code" : "0x",
                "nonce" : "0x02",
                "storage" : {
                }
            },
            "0xa94f5374fce5edbc8e2a8697c15331677e6ebf0b" : {
                "balance" : "0xe8d49f4058",
                "code" : "0x",
                "nonce" : "0x01",
                "storage" : {
                }
            },
            "0xb000000000000000000000000000000000000000" : {
                "balance" : "0x00",
                "code" : "0x60016001556000600155",
                "nonce" : "0x00",
                "storage" : {
                }
            },
            "0xc000000000000000000000000000000000000000" : {
                "balance" : "0x00",
                "code" : "0x60016001556000600155",
                "nonce" : "0x00",
                "storage" : {
                }
            },
            "0xdea0000000000000000000000000000000000000" : {
                "balance" : "0x00",
                "code" : "0x6001600155600060015560016002556000600255600160035560006003556001600455600060045560016005556000600555600160065560006006556001600755600060075560016008556000600855600160095560006009556001600a556000600a556001600b556000600b556001600c556000600c556001600d556000600d556001600e556000600e556001600f556000600f55600160105560006010556001600155",
                "nonce" : "0x00",
                "storage" : {
                }
            }
        },
        "pre" : {
            "0xa94f5374fce5edbc8e2a8697c15331677e6ebf0b" : {
                "balance" : "0xe8d4a51000",
                "code" : "0x",
                "nonce" : "0x00",
                "storage" : {
                }
            },
            "0xb000000000000000000000000000000000000000" : {
                "balance" : "0x00",
                "code" : "0x60016001556000600155",
                "nonce" : "0x00",
                "storage" : {
                }
            },
            "0xc000000000000000000000000000000000000000" : {
                "balance" : "0x00",
                "code" : "0x60016001556000600155",
                "nonce" : "0x00",
                "storage" : {
                }
            },
            "0xdea0000000000000000000000000000000000000" : {
                "balance" : "0x00",
                "code" : "0x6001600155600060015560016002556000600255600160035560006003556001600455600060045560016005556000600555600160065560006006556001600755600060075560016008556000600855600160095560006009556001600a556000600a556001600b556000600b556001600c556000600c556001600d556000600d556001600e556000600e556001600f556000600f55600160105560006010556001600155",
                "nonce" : "0x00",
                "storage" : {
                }
            }
        },
        "sealEngine" : "NoProof"
    }
}