{
    "sstore_changeFromExternalCallInInitCode_d10g0v0_Constantinople" : {
        "_info" : {
            "comment" : "account already has storage X. create -> in init code change that account's storage -> 0 -> change it to X again ",
            "filledwith" : "testeth 1.7.0-alpha.1-21+commit.78355a28",
            "lllcversion" : "Version: 0.5.0-develop.2018.11.9+commit.9709dfe0.Linux.g++",
            "source" : "src/BlockchainTestsFiller/GeneralStateTests/stSStoreTest/sstore_changeFromExternalCallInInitCode_d10g0v0Filler.json",
            "sourceHash" : "4b7831e6643181ab5b43294a8b19a61cb4b2f102065f1d7f220ecff629edfd76"
        },
        "blocks" : [
            {
                "blockHeader" : {
                    "bloom" : "0x00000000000000000000000000000000000000000000000000000000000000000000000000000000000000000000000000000000000000000000000000000000000000000000000000000000000000000000000000000000000000000000000000000000000000000000000000000000000000000000000000000000000000000000000000000000000000000000000000000000000000000000000000000000000000000000000000000000000000000000000000000000000000000000000000000000000000000000000000000000000000000000000000000000000000000000000000000000000000000000000000000000000000000000000000000000",
                    "coinbase" : "0x2adc25665018aa1fe0e6bc666dac8fc2697ff9ba",
                    "difficulty" : "0x020000",
                    "extraData" : "0x",
                    "gasLimit" : "0x989680",
                    "gasUsed" : "0x01f40c",
                    "hash" : "0xb71379c13001b4f28c7b8ad75be67debaac8a354de625e0f889b8c66eb64db5f",
                    "mixHash" : "0x0000000000000000000000000000000000000000000000000000000000000000",
                    "nonce" : "0x0000000000000000",
                    "number" : "0x01",
                    "parentHash" : "0x2598923c4cfa9bdc4c511a5705503158de8de39fe9bea0196b90bcfe271c680c",
                    "receiptTrie" : "0xaaf7a87c0b73c976655b2e510416b949fe6e055ad6b10c66d8605f50562018da",
                    "stateRoot" : "0x2b802b91784aa4699b2d61adc41041366e3fddd38bc8b689d425be968de3a827",
                    "timestamp" : "0x03e8",
                    "transactionsTrie" : "0x3c75224d9d8fa1c0755317be089f72e345856aa5c90463a917e65830b25d565d",
                    "uncleHash" : "0x1dcc4de8dec75d7aab85b567b6ccd41ad312451b948a7413f0a142fd40d49347"
                },
                "rlp" : "0xf90286f901f8a02598923c4cfa9bdc4c511a5705503158de8de39fe9bea0196b90bcfe271c680ca01dcc4de8dec75d7aab85b567b6ccd41ad312451b948a7413f0a142fd40d49347942adc25665018aa1fe0e6bc666dac8fc2697ff9baa02b802b91784aa4699b2d61adc41041366e3fddd38bc8b689d425be968de3a827a03c75224d9d8fa1c0755317be089f72e345856aa5c90463a917e65830b25d565da0aaf7a87c0b73c976655b2e510416b949fe6e055ad6b10c66d8605f50562018dab90100000000000000000000000000000000000000000000000000000000000000000000000000000000000000000000000000000000000000000000000000000000000000000000000000000000000000000000000000000000000000000000000000000000000000000000000000000000000000000000000000000000000000000000000000000000000000000000000000000000000000000000000000000000000000000000000000000000000000000000000000000000000000000000000000000000000000000000000000000000000000000000000000000000000000000000000000000000000000000000000000000000000000000000000000000000008302000001839896808301f40c8203e880a00000000000000000000000000000000000000000000000000000000000000000880000000000000000f888f886800183030d408080b8396000602280601760003960006000f55060006000fd00fe600060006000600073bea0000000000000000000000000000000000000620186a0f41ba084cb057d2be4676937446d0e47a393c70c7a9a625d58799b58a7e7302256e8caa026f48ac41f00cb034e68dbaa66ee3dcd2f5d8cfd788a1abc647795f220a28f08c0",
                "transactions" : [
                    {
                        "data" : "0x6000602280601760003960006000f55060006000fd00fe600060006000600073bea0000000000000000000000000000000000000620186a0f4",
                        "gasLimit" : "0x030d40",
                        "gasPrice" : "0x01",
                        "nonce" : "0x00",
                        "r" : "0x84cb057d2be4676937446d0e47a393c70c7a9a625d58799b58a7e7302256e8ca",
                        "s" : "0x26f48ac41f00cb034e68dbaa66ee3dcd2f5d8cfd788a1abc647795f220a28f08",
                        "to" : "",
                        "v" : "0x1b",
                        "value" : "0x00"
                    }
                ],
                "uncleHeaders" : [
                ]
            }
        ],
        "genesisBlockHeader" : {
            "bloom" : "0x00000000000000000000000000000000000000000000000000000000000000000000000000000000000000000000000000000000000000000000000000000000000000000000000000000000000000000000000000000000000000000000000000000000000000000000000000000000000000000000000000000000000000000000000000000000000000000000000000000000000000000000000000000000000000000000000000000000000000000000000000000000000000000000000000000000000000000000000000000000000000000000000000000000000000000000000000000000000000000000000000000000000000000000000000000000",
            "coinbase" : "0x2adc25665018aa1fe0e6bc666dac8fc2697ff9ba",
            "difficulty" : "0x020000",
            "extraData" : "0x42",
            "gasLimit" : "0x989680",
            "gasUsed" : "0x00",
            "hash" : "0x2598923c4cfa9bdc4c511a5705503158de8de39fe9bea0196b90bcfe271c680c",
            "mixHash" : "0x56e81f171bcc55a6ff8345e692c0f86e5b48e01b996cadc001622fb5e363b421",
            "nonce" : "0x0102030405060708",
            "number" : "0x00",
            "parentHash" : "0x0000000000000000000000000000000000000000000000000000000000000000",
            "receiptTrie" : "0x56e81f171bcc55a6ff8345e692c0f86e5b48e01b996cadc001622fb5e363b421",
            "stateRoot" : "0x1150a9145044889dcab22f3fdfa5ed0826e2b708b96768679929b34d571a4ae8",
            "timestamp" : "0x03b6",
            "transactionsTrie" : "0x56e81f171bcc55a6ff8345e692c0f86e5b48e01b996cadc001622fb5e363b421",
            "uncleHash" : "0x1dcc4de8dec75d7aab85b567b6ccd41ad312451b948a7413f0a142fd40d49347"
        },
        "genesisRLP" : "0xf901faf901f5a00000000000000000000000000000000000000000000000000000000000000000a01dcc4de8dec75d7aab85b567b6ccd41ad312451b948a7413f0a142fd40d49347942adc25665018aa1fe0e6bc666dac8fc2697ff9baa01150a9145044889dcab22f3fdfa5ed0826e2b708b96768679929b34d571a4ae8a056e81f171bcc55a6ff8345e692c0f86e5b48e01b996cadc001622fb5e363b421a056e81f171bcc55a6ff8345e692c0f86e5b48e01b996cadc001622fb5e363b421b9010000000000000000000000000000000000000000000000000000000000000000000000000000000000000000000000000000000000000000000000000000000000000000000000000000000000000000000000000000000000000000000000000000000000000000000000000000000000000000000000000000000000000000000000000000000000000000000000000000000000000000000000000000000000000000000000000000000000000000000000000000000000000000000000000000000000000000000000000000000000000000000000000000000000000000000000000000000000000000000000000000000000000000000000000000000000830200008083989680808203b642a056e81f171bcc55a6ff8345e692c0f86e5b48e01b996cadc001622fb5e363b421880102030405060708c0c0",
        "lastblockhash" : "0xb71379c13001b4f28c7b8ad75be67debaac8a354de625e0f889b8c66eb64db5f",
        "network" : "Constantinople",
        "postState" : {
            "0x2adc25665018aa1fe0e6bc666dac8fc2697ff9ba" : {
                "balance" : "0x1bc16d674ec9f40c",
                "code" : "0x",
                "nonce" : "0x00",
                "storage" : {
                }
            },
            "0xa94f5374fce5edbc8e2a8697c15331677e6ebf0b" : {
                "balance" : "0xe8d4a31bf4",
                "code" : "0x",
                "nonce" : "0x01",
                "storage" : {
                }
            },
            "0xbea0000000000000000000000000000000000000" : {
                "balance" : "0x00",
                "code" : "0x600060015560016001556001600055",
                "nonce" : "0x00",
                "storage" : {
                    "0x01" : "0x01"
                }
            },
            "0xdea0000000000000000000000000000000000000" : {
                "balance" : "0x00",
                "code" : "0x6001600155600060015560016002556000600255600160035560006003556001600455600060045560016005556000600555600160065560006006556001600755600060075560016008556000600855600160095560006009556001600a556000600a556001600b556000600b556001600c556000600c556001600d556000600d556001600e556000600e556001600f556000600f55600160105560006010556001600155",
                "nonce" : "0x00",
                "storage" : {
                }
            }
        },
        "pre" : {
            "0xa94f5374fce5edbc8e2a8697c15331677e6ebf0b" : {
                "balance" : "0xe8d4a51000",
                "code" : "0x",
                "nonce" : "0x00",
                "storage" : {
                }
            },
            "0xbea0000000000000000000000000000000000000" : {
                "balance" : "0x00",
                "code" : "0x600060015560016001556001600055",
                "nonce" : "0x00",
                "storage" : {
                    "0x01" : "0x01"
                }
            },
            "0xdea0000000000000000000000000000000000000" : {
                "balance" : "0x00",
                "code" : "0x6001600155600060015560016002556000600255600160035560006003556001600455600060045560016005556000600555600160065560006006556001600755600060075560016008556000600855600160095560006009556001600a556000600a556001600b556000600b556001600c556000600c556001600d556000600d556001600e556000600e556001600f556000600f55600160105560006010556001600155",
                "nonce" : "0x00",
                "storage" : {
                }
            }
        },
        "sealEngine" : "NoProof"
    },
    "sstore_changeFromExternalCallInInitCode_d10g0v0_ConstantinopleFix" : {
        "_info" : {
            "comment" : "account already has storage X. create -> in init code change that account's storage -> 0 -> change it to X again ",
            "filledwith" : "testeth 1.7.0-alpha.1-21+commit.78355a28",
            "lllcversion" : "Version: 0.5.0-develop.2018.11.9+commit.9709dfe0.Linux.g++",
            "source" : "src/BlockchainTestsFiller/GeneralStateTests/stSStoreTest/sstore_changeFromExternalCallInInitCode_d10g0v0Filler.json",
            "sourceHash" : "4b7831e6643181ab5b43294a8b19a61cb4b2f102065f1d7f220ecff629edfd76"
        },
        "blocks" : [
            {
                "blockHeader" : {
                    "bloom" : "0x00000000000000000000000000000000000000000000000000000000000000000000000000000000000000000000000000000000000000000000000000000000000000000000000000000000000000000000000000000000000000000000000000000000000000000000000000000000000000000000000000000000000000000000000000000000000000000000000000000000000000000000000000000000000000000000000000000000000000000000000000000000000000000000000000000000000000000000000000000000000000000000000000000000000000000000000000000000000000000000000000000000000000000000000000000000",
                    "coinbase" : "0x2adc25665018aa1fe0e6bc666dac8fc2697ff9ba",
                    "difficulty" : "0x020000",
                    "extraData" : "0x",
                    "gasLimit" : "0x989680",
                    "gasUsed" : "0x0206cc",
                    "hash" : "0x129a93063a0a7e13b57e0d30426a9ee1db68490df01be4b2a6725e8a4f556ef1",
                    "mixHash" : "0x0000000000000000000000000000000000000000000000000000000000000000",
                    "nonce" : "0x0000000000000000",
                    "number" : "0x01",
                    "parentHash" : "0x2598923c4cfa9bdc4c511a5705503158de8de39fe9bea0196b90bcfe271c680c",
                    "receiptTrie" : "0x9b3888d4c4e889f1841e458b9460d76d7e847d5db400ab4148d6e671f93f288f",
                    "stateRoot" : "0xb7113f48b83a06417bafd2e5f65f0d02435ae841a36c3a66065a36e2d37f7afa",
                    "timestamp" : "0x03e8",
                    "transactionsTrie" : "0x3c75224d9d8fa1c0755317be089f72e345856aa5c90463a917e65830b25d565d",
                    "uncleHash" : "0x1dcc4de8dec75d7aab85b567b6ccd41ad312451b948a7413f0a142fd40d49347"
                },
                "rlp" : "0xf90286f901f8a02598923c4cfa9bdc4c511a5705503158de8de39fe9bea0196b90bcfe271c680ca01dcc4de8dec75d7aab85b567b6ccd41ad312451b948a7413f0a142fd40d49347942adc25665018aa1fe0e6bc666dac8fc2697ff9baa0b7113f48b83a06417bafd2e5f65f0d02435ae841a36c3a66065a36e2d37f7afaa03c75224d9d8fa1c0755317be089f72e345856aa5c90463a917e65830b25d565da09b3888d4c4e889f1841e458b9460d76d7e847d5db400ab4148d6e671f93f288fb9010000000000000000000000000000000000000000000000000000000000000000000000000000000000000000000000000000000000000000000000000000000000000000000000000000000000000000000000000000000000000000000000000000000000000000000000000000000000000000000000000000000000000000000000000000000000000000000000000000000000000000000000000000000000000000000000000000000000000000000000000000000000000000000000000000000000000000000000000000000000000000000000000000000000000000000000000000000000000000000000000000000000000000000000000000000000830200000183989680830206cc8203e880a00000000000000000000000000000000000000000000000000000000000000000880000000000000000f888f886800183030d408080b8396000602280601760003960006000f55060006000fd00fe600060006000600073bea0000000000000000000000000000000000000620186a0f41ba084cb057d2be4676937446d0e47a393c70c7a9a625d58799b58a7e7302256e8caa026f48ac41f00cb034e68dbaa66ee3dcd2f5d8cfd788a1abc647795f220a28f08c0",
                "transactions" : [
                    {
                        "data" : "0x6000602280601760003960006000f55060006000fd00fe600060006000600073bea0000000000000000000000000000000000000620186a0f4",
                        "gasLimit" : "0x030d40",
                        "gasPrice" : "0x01",
                        "nonce" : "0x00",
                        "r" : "0x84cb057d2be4676937446d0e47a393c70c7a9a625d58799b58a7e7302256e8ca",
                        "s" : "0x26f48ac41f00cb034e68dbaa66ee3dcd2f5d8cfd788a1abc647795f220a28f08",
                        "to" : "",
                        "v" : "0x1b",
                        "value" : "0x00"
                    }
                ],
                "uncleHeaders" : [
                ]
            }
        ],
        "genesisBlockHeader" : {
            "bloom" : "0x00000000000000000000000000000000000000000000000000000000000000000000000000000000000000000000000000000000000000000000000000000000000000000000000000000000000000000000000000000000000000000000000000000000000000000000000000000000000000000000000000000000000000000000000000000000000000000000000000000000000000000000000000000000000000000000000000000000000000000000000000000000000000000000000000000000000000000000000000000000000000000000000000000000000000000000000000000000000000000000000000000000000000000000000000000000",
            "coinbase" : "0x2adc25665018aa1fe0e6bc666dac8fc2697ff9ba",
            "difficulty" : "0x020000",
            "extraData" : "0x42",
            "gasLimit" : "0x989680",
            "gasUsed" : "0x00",
            "hash" : "0x2598923c4cfa9bdc4c511a5705503158de8de39fe9bea0196b90bcfe271c680c",
            "mixHash" : "0x56e81f171bcc55a6ff8345e692c0f86e5b48e01b996cadc001622fb5e363b421",
            "nonce" : "0x0102030405060708",
            "number" : "0x00",
            "parentHash" : "0x0000000000000000000000000000000000000000000000000000000000000000",
            "receiptTrie" : "0x56e81f171bcc55a6ff8345e692c0f86e5b48e01b996cadc001622fb5e363b421",
            "stateRoot" : "0x1150a9145044889dcab22f3fdfa5ed0826e2b708b96768679929b34d571a4ae8",
            "timestamp" : "0x03b6",
            "transactionsTrie" : "0x56e81f171bcc55a6ff8345e692c0f86e5b48e01b996cadc001622fb5e363b421",
            "uncleHash" : "0x1dcc4de8dec75d7aab85b567b6ccd41ad312451b948a7413f0a142fd40d49347"
        },
        "genesisRLP" : "0xf901faf901f5a00000000000000000000000000000000000000000000000000000000000000000a01dcc4de8dec75d7aab85b567b6ccd41ad312451b948a7413f0a142fd40d49347942adc25665018aa1fe0e6bc666dac8fc2697ff9baa01150a9145044889dcab22f3fdfa5ed0826e2b708b96768679929b34d571a4ae8a056e81f171bcc55a6ff8345e692c0f86e5b48e01b996cadc001622fb5e363b421a056e81f171bcc55a6ff8345e692c0f86e5b48e01b996cadc001622fb5e363b421b9010000000000000000000000000000000000000000000000000000000000000000000000000000000000000000000000000000000000000000000000000000000000000000000000000000000000000000000000000000000000000000000000000000000000000000000000000000000000000000000000000000000000000000000000000000000000000000000000000000000000000000000000000000000000000000000000000000000000000000000000000000000000000000000000000000000000000000000000000000000000000000000000000000000000000000000000000000000000000000000000000000000000000000000000000000000000830200008083989680808203b642a056e81f171bcc55a6ff8345e692c0f86e5b48e01b996cadc001622fb5e363b421880102030405060708c0c0",
        "lastblockhash" : "0x129a93063a0a7e13b57e0d30426a9ee1db68490df01be4b2a6725e8a4f556ef1",
        "network" : "ConstantinopleFix",
        "postState" : {
            "0x2adc25665018aa1fe0e6bc666dac8fc2697ff9ba" : {
                "balance" : "0x1bc16d674eca06cc",
                "code" : "0x",
                "nonce" : "0x00",
                "storage" : {
                }
            },
            "0xa94f5374fce5edbc8e2a8697c15331677e6ebf0b" : {
                "balance" : "0xe8d4a30934",
                "code" : "0x",
                "nonce" : "0x01",
                "storage" : {
                }
            },
            "0xbea0000000000000000000000000000000000000" : {
                "balance" : "0x00",
                "code" : "0x600060015560016001556001600055",
                "nonce" : "0x00",
                "storage" : {
                    "0x01" : "0x01"
                }
            },
            "0xdea0000000000000000000000000000000000000" : {
                "balance" : "0x00",
                "code" : "0x6001600155600060015560016002556000600255600160035560006003556001600455600060045560016005556000600555600160065560006006556001600755600060075560016008556000600855600160095560006009556001600a556000600a556001600b556000600b556001600c556000600c556001600d556000600d556001600e556000600e556001600f556000600f55600160105560006010556001600155",
                "nonce" : "0x00",
                "storage" : {
                }
            }
        },
        "pre" : {
            "0xa94f5374fce5edbc8e2a8697c15331677e6ebf0b" : {
                "balance" : "0xe8d4a51000",
                "code" : "0x",
                "nonce" : "0x00",
                "storage" : {
                }
            },
            "0xbea0000000000000000000000000000000000000" : {
                "balance" : "0x00",
                "code" : "0x600060015560016001556001600055",
                "nonce" : "0x00",
                "storage" : {
                    "0x01" : "0x01"
                }
            },
            "0xdea0000000000000000000000000000000000000" : {
                "balance" : "0x00",
                "code" : "0x6001600155600060015560016002556000600255600160035560006003556001600455600060045560016005556000600555600160065560006006556001600755600060075560016008556000600855600160095560006009556001600a556000600a556001600b556000600b556001600c556000600c556001600d556000600d556001600e556000600e556001600f556000600f55600160105560006010556001600155",
                "nonce" : "0x00",
                "storage" : {
                }
            }
        },
        "sealEngine" : "NoProof"
    }
}