{
    "sstore_0to0toX_d1g1v0_Constantinople" : {
        "_info" : {
            "comment" : "change 0 -> 0 -> X",
            "filledwith" : "testeth 1.7.0-alpha.1-21+commit.78355a28",
            "lllcversion" : "Version: 0.5.0-develop.2018.11.9+commit.9709dfe0.Linux.g++",
            "source" : "src/BlockchainTestsFiller/GeneralStateTests/stSStoreTest/sstore_0to0toX_d1g1v0Filler.json",
            "sourceHash" : "4974caa2283dcfa16c6b2ef426a2ec1534508ae3313956d8cfcf349168d85b36"
        },
        "blocks" : [
            {
                "blockHeader" : {
                    "bloom" : "0x00000000000000000000000000000000000000000000000000000000000000000000000000000000000000000000000000000000000000000000000000000000000000000000000000000000000000000000000000000000000000000000000000000000000000000000000000000000000000000000000000000000000000000000000000000000000000000000000000000000000000000000000000000000000000000000000000000000000000000000000000000000000000000000000000000000000000000000000000000000000000000000000000000000000000000000000000000000000000000000000000000000000000000000000000000000",
                    "coinbase" : "0x2adc25665018aa1fe0e6bc666dac8fc2697ff9ba",
                    "difficulty" : "0x020000",
                    "extraData" : "0x",
                    "gasLimit" : "0x989680",
                    "gasUsed" : "0x0606c4",
                    "hash" : "0x7468d79b8766d0aa9aaa999b67a733ffad5f74e79a5196e70fda4c991fc34579",
                    "mixHash" : "0x0000000000000000000000000000000000000000000000000000000000000000",
                    "nonce" : "0x0000000000000000",
                    "number" : "0x01",
                    "parentHash" : "0xa7848c17528ca377701b6df26a370bb14281bf8665f6a631fb4f2da92a3b5784",
                    "receiptTrie" : "0xb9911d945008de9442adf8e46b7784541310c25d2046542288411b4cff3a4a9a",
                    "stateRoot" : "0x31b3fa9fd6cbd8103cb0a0d736a7dfc0097307ccdf073069735e57eba390e089",
                    "timestamp" : "0x03e8",
                    "transactionsTrie" : "0x18ddba0bd68eae3add10a228955b1878cd8ef6d48fca67e91ded0c3a30e9ab07",
                    "uncleHash" : "0x1dcc4de8dec75d7aab85b567b6ccd41ad312451b948a7413f0a142fd40d49347"
                },
                "rlp" : "0xf90296f901f8a0a7848c17528ca377701b6df26a370bb14281bf8665f6a631fb4f2da92a3b5784a01dcc4de8dec75d7aab85b567b6ccd41ad312451b948a7413f0a142fd40d49347942adc25665018aa1fe0e6bc666dac8fc2697ff9baa031b3fa9fd6cbd8103cb0a0d736a7dfc0097307ccdf073069735e57eba390e089a018ddba0bd68eae3add10a228955b1878cd8ef6d48fca67e91ded0c3a30e9ab07a0b9911d945008de9442adf8e46b7784541310c25d2046542288411b4cff3a4a9ab9010000000000000000000000000000000000000000000000000000000000000000000000000000000000000000000000000000000000000000000000000000000000000000000000000000000000000000000000000000000000000000000000000000000000000000000000000000000000000000000000000000000000000000000000000000000000000000000000000000000000000000000000000000000000000000000000000000000000000000000000000000000000000000000000000000000000000000000000000000000000000000000000000000000000000000000000000000000000000000000000000000000000000000000000000000000000830200000183989680830606c48203e880a00000000000000000000000000000000000000000000000000000000000000000880000000000000000f898f896800183061a808001b8496000600060006000600073b000000000000000000000000000000000000000620493e0f2506000600060006000600073dea0000000000000000000000000000000000000620927c0f11ca0128612b48f1d834ef2721c0864d769af0e235aa2322f0809e91a4fed439d8d2ca0215f987b68ce81735ff902a41b9c7146fa932babc05c323f377f3588c385bd84c0",
                "transactions" : [
                    {
                        "data" : "0x6000600060006000600073b000000000000000000000000000000000000000620493e0f2506000600060006000600073dea0000000000000000000000000000000000000620927c0f1",
                        "gasLimit" : "0x061a80",
                        "gasPrice" : "0x01",
                        "nonce" : "0x00",
                        "r" : "0x128612b48f1d834ef2721c0864d769af0e235aa2322f0809e91a4fed439d8d2c",
                        "s" : "0x215f987b68ce81735ff902a41b9c7146fa932babc05c323f377f3588c385bd84",
                        "to" : "",
                        "v" : "0x1c",
                        "value" : "0x01"
                    }
                ],
                "uncleHeaders" : [
                ]
            }
        ],
        "genesisBlockHeader" : {
            "bloom" : "0x00000000000000000000000000000000000000000000000000000000000000000000000000000000000000000000000000000000000000000000000000000000000000000000000000000000000000000000000000000000000000000000000000000000000000000000000000000000000000000000000000000000000000000000000000000000000000000000000000000000000000000000000000000000000000000000000000000000000000000000000000000000000000000000000000000000000000000000000000000000000000000000000000000000000000000000000000000000000000000000000000000000000000000000000000000000",
            "coinbase" : "0x2adc25665018aa1fe0e6bc666dac8fc2697ff9ba",
            "difficulty" : "0x020000",
            "extraData" : "0x42",
            "gasLimit" : "0x989680",
            "gasUsed" : "0x00",
            "hash" : "0xa7848c17528ca377701b6df26a370bb14281bf8665f6a631fb4f2da92a3b5784",
            "mixHash" : "0x56e81f171bcc55a6ff8345e692c0f86e5b48e01b996cadc001622fb5e363b421",
            "nonce" : "0x0102030405060708",
            "number" : "0x00",
            "parentHash" : "0x0000000000000000000000000000000000000000000000000000000000000000",
            "receiptTrie" : "0x56e81f171bcc55a6ff8345e692c0f86e5b48e01b996cadc001622fb5e363b421",
            "stateRoot" : "0xf8d1f439ddb731b2c29f9d100844019ba1a7768bb1be57abb32d1219521794f3",
            "timestamp" : "0x03b6",
            "transactionsTrie" : "0x56e81f171bcc55a6ff8345e692c0f86e5b48e01b996cadc001622fb5e363b421",
            "uncleHash" : "0x1dcc4de8dec75d7aab85b567b6ccd41ad312451b948a7413f0a142fd40d49347"
        },
        "genesisRLP" : "0xf901faf901f5a00000000000000000000000000000000000000000000000000000000000000000a01dcc4de8dec75d7aab85b567b6ccd41ad312451b948a7413f0a142fd40d49347942adc25665018aa1fe0e6bc666dac8fc2697ff9baa0f8d1f439ddb731b2c29f9d100844019ba1a7768bb1be57abb32d1219521794f3a056e81f171bcc55a6ff8345e692c0f86e5b48e01b996cadc001622fb5e363b421a056e81f171bcc55a6ff8345e692c0f86e5b48e01b996cadc001622fb5e363b421b9010000000000000000000000000000000000000000000000000000000000000000000000000000000000000000000000000000000000000000000000000000000000000000000000000000000000000000000000000000000000000000000000000000000000000000000000000000000000000000000000000000000000000000000000000000000000000000000000000000000000000000000000000000000000000000000000000000000000000000000000000000000000000000000000000000000000000000000000000000000000000000000000000000000000000000000000000000000000000000000000000000000000000000000000000000000000830200008083989680808203b642a056e81f171bcc55a6ff8345e692c0f86e5b48e01b996cadc001622fb5e363b421880102030405060708c0c0",
        "lastblockhash" : "0x7468d79b8766d0aa9aaa999b67a733ffad5f74e79a5196e70fda4c991fc34579",
        "network" : "Constantinople",
        "postState" : {
            "0x2adc25665018aa1fe0e6bc666dac8fc2697ff9ba" : {
                "balance" : "0x1bc16d674ece06c4",
                "code" : "0x",
                "nonce" : "0x00",
                "storage" : {
                }
            },
            "0x6295ee1b4f6dd65047762f924ecd367c17eabf8f" : {
                "balance" : "0x01",
                "code" : "0x",
                "nonce" : "0x01",
                "storage" : {
                    "0x01" : "0x01"
                }
            },
            "0xa94f5374fce5edbc8e2a8697c15331677e6ebf0b" : {
                "balance" : "0xe8d49f093b",
                "code" : "0x",
                "nonce" : "0x01",
                "storage" : {
                }
            },
            "0xb000000000000000000000000000000000000000" : {
                "balance" : "0x00",
                "code" : "0x60006001556001600155",
                "nonce" : "0x00",
                "storage" : {
                }
            },
            "0xc000000000000000000000000000000000000000" : {
                "balance" : "0x00",
                "code" : "0x60006001556001600155",
                "nonce" : "0x00",
                "storage" : {
                }
            },
            "0xdea0000000000000000000000000000000000000" : {
                "balance" : "0x00",
                "code" : "0x6001600155600060015560016002556000600255600160035560006003556001600455600060045560016005556000600555600160065560006006556001600755600060075560016008556000600855600160095560006009556001600a556000600a556001600b556000600b556001600c556000600c556001600d556000600d556001600e556000600e556001600f556000600f55600160105560006010556001600155",
                "nonce" : "0x00",
                "storage" : {
                }
            }
        },
        "pre" : {
            "0xa94f5374fce5edbc8e2a8697c15331677e6ebf0b" : {
                "balance" : "0xe8d4a51000",
                "code" : "0x",
                "nonce" : "0x00",
                "storage" : {
                }
            },
            "0xb000000000000000000000000000000000000000" : {
                "balance" : "0x00",
                "code" : "0x60006001556001600155",
                "nonce" : "0x00",
                "storage" : {
                }
            },
            "0xc000000000000000000000000000000000000000" : {
                "balance" : "0x00",
                "code" : "0x60006001556001600155",
                "nonce" : "0x00",
                "storage" : {
                }
            },
            "0xdea0000000000000000000000000000000000000" : {
                "balance" : "0x00",
                "code" : "0x6001600155600060015560016002556000600255600160035560006003556001600455600060045560016005556000600555600160065560006006556001600755600060075560016008556000600855600160095560006009556001600a556000600a556001600b556000600b556001600c556000600c556001600d556000600d556001600e556000600e556001600f556000600f55600160105560006010556001600155",
                "nonce" : "0x00",
                "storage" : {
                }
            }
        },
        "sealEngine" : "NoProof"
    },
    "sstore_0to0toX_d1g1v0_ConstantinopleFix" : {
        "_info" : {
            "comment" : "change 0 -> 0 -> X",
            "filledwith" : "testeth 1.7.0-alpha.1-21+commit.78355a28",
            "lllcversion" : "Version: 0.5.0-develop.2018.11.9+commit.9709dfe0.Linux.g++",
            "source" : "src/BlockchainTestsFiller/GeneralStateTests/stSStoreTest/sstore_0to0toX_d1g1v0Filler.json",
            "sourceHash" : "4974caa2283dcfa16c6b2ef426a2ec1534508ae3313956d8cfcf349168d85b36"
        },
        "blocks" : [
            {
                "blockHeader" : {
                    "bloom" : "0x00000000000000000000000000000000000000000000000000000000000000000000000000000000000000000000000000000000000000000000000000000000000000000000000000000000000000000000000000000000000000000000000000000000000000000000000000000000000000000000000000000000000000000000000000000000000000000000000000000000000000000000000000000000000000000000000000000000000000000000000000000000000000000000000000000000000000000000000000000000000000000000000000000000000000000000000000000000000000000000000000000000000000000000000000000000",
                    "coinbase" : "0x2adc25665018aa1fe0e6bc666dac8fc2697ff9ba",
                    "difficulty" : "0x020000",
                    "extraData" : "0x",
                    "gasLimit" : "0x989680",
                    "gasUsed" : "0x06070f",
                    "hash" : "0x0644da13bc3505e759acf5c53ce4f47d8d2afb753ea75dac347015c5be4b2c43",
                    "mixHash" : "0x0000000000000000000000000000000000000000000000000000000000000000",
                    "nonce" : "0x0000000000000000",
                    "number" : "0x01",
                    "parentHash" : "0xa7848c17528ca377701b6df26a370bb14281bf8665f6a631fb4f2da92a3b5784",
                    "receiptTrie" : "0xcf0ef50582bf83663e6b8499d13b96feeae095a8f5880a3b367b2304abd9517e",
                    "stateRoot" : "0x7c418007ba510d8830b3093adb00f62568cdbd58a5810241de8197575ff76b02",
                    "timestamp" : "0x03e8",
                    "transactionsTrie" : "0x18ddba0bd68eae3add10a228955b1878cd8ef6d48fca67e91ded0c3a30e9ab07",
                    "uncleHash" : "0x1dcc4de8dec75d7aab85b567b6ccd41ad312451b948a7413f0a142fd40d49347"
                },
                "rlp" : "0xf90296f901f8a0a7848c17528ca377701b6df26a370bb14281bf8665f6a631fb4f2da92a3b5784a01dcc4de8dec75d7aab85b567b6ccd41ad312451b948a7413f0a142fd40d49347942adc25665018aa1fe0e6bc666dac8fc2697ff9baa07c418007ba510d8830b3093adb00f62568cdbd58a5810241de8197575ff76b02a018ddba0bd68eae3add10a228955b1878cd8ef6d48fca67e91ded0c3a30e9ab07a0cf0ef50582bf83663e6b8499d13b96feeae095a8f5880a3b367b2304abd9517eb90100000000000000000000000000000000000000000000000000000000000000000000000000000000000000000000000000000000000000000000000000000000000000000000000000000000000000000000000000000000000000000000000000000000000000000000000000000000000000000000000000000000000000000000000000000000000000000000000000000000000000000000000000000000000000000000000000000000000000000000000000000000000000000000000000000000000000000000000000000000000000000000000000000000000000000000000000000000000000000000000000000000000000000000000000000000008302000001839896808306070f8203e880a00000000000000000000000000000000000000000000000000000000000000000880000000000000000f898f896800183061a808001b8496000600060006000600073b000000000000000000000000000000000000000620493e0f2506000600060006000600073dea0000000000000000000000000000000000000620927c0f11ca0128612b48f1d834ef2721c0864d769af0e235aa2322f0809e91a4fed439d8d2ca0215f987b68ce81735ff902a41b9c7146fa932babc05c323f377f3588c385bd84c0",
                "transactions" : [
                    {
                        "data" : "0x6000600060006000600073b000000000000000000000000000000000000000620493e0f2506000600060006000600073dea0000000000000000000000000000000000000620927c0f1",
                        "gasLimit" : "0x061a80",
                        "gasPrice" : "0x01",
                        "nonce" : "0x00",
                        "r" : "0x128612b48f1d834ef2721c0864d769af0e235aa2322f0809e91a4fed439d8d2c",
                        "s" : "0x215f987b68ce81735ff902a41b9c7146fa932babc05c323f377f3588c385bd84",
                        "to" : "",
                        "v" : "0x1c",
                        "value" : "0x01"
                    }
                ],
                "uncleHeaders" : [
                ]
            }
        ],
        "genesisBlockHeader" : {
            "bloom" : "0x00000000000000000000000000000000000000000000000000000000000000000000000000000000000000000000000000000000000000000000000000000000000000000000000000000000000000000000000000000000000000000000000000000000000000000000000000000000000000000000000000000000000000000000000000000000000000000000000000000000000000000000000000000000000000000000000000000000000000000000000000000000000000000000000000000000000000000000000000000000000000000000000000000000000000000000000000000000000000000000000000000000000000000000000000000000",
            "coinbase" : "0x2adc25665018aa1fe0e6bc666dac8fc2697ff9ba",
            "difficulty" : "0x020000",
            "extraData" : "0x42",
            "gasLimit" : "0x989680",
            "gasUsed" : "0x00",
            "hash" : "0xa7848c17528ca377701b6df26a370bb14281bf8665f6a631fb4f2da92a3b5784",
            "mixHash" : "0x56e81f171bcc55a6ff8345e692c0f86e5b48e01b996cadc001622fb5e363b421",
            "nonce" : "0x0102030405060708",
            "number" : "0x00",
            "parentHash" : "0x0000000000000000000000000000000000000000000000000000000000000000",
            "receiptTrie" : "0x56e81f171bcc55a6ff8345e692c0f86e5b48e01b996cadc001622fb5e363b421",
            "stateRoot" : "0xf8d1f439ddb731b2c29f9d100844019ba1a7768bb1be57abb32d1219521794f3",
            "timestamp" : "0x03b6",
            "transactionsTrie" : "0x56e81f171bcc55a6ff8345e692c0f86e5b48e01b996cadc001622fb5e363b421",
            "uncleHash" : "0x1dcc4de8dec75d7aab85b567b6ccd41ad312451b948a7413f0a142fd40d49347"
        },
        "genesisRLP" : "0xf901faf901f5a00000000000000000000000000000000000000000000000000000000000000000a01dcc4de8dec75d7aab85b567b6ccd41ad312451b948a7413f0a142fd40d49347942adc25665018aa1fe0e6bc666dac8fc2697ff9baa0f8d1f439ddb731b2c29f9d100844019ba1a7768bb1be57abb32d1219521794f3a056e81f171bcc55a6ff8345e692c0f86e5b48e01b996cadc001622fb5e363b421a056e81f171bcc55a6ff8345e692c0f86e5b48e01b996cadc001622fb5e363b421b9010000000000000000000000000000000000000000000000000000000000000000000000000000000000000000000000000000000000000000000000000000000000000000000000000000000000000000000000000000000000000000000000000000000000000000000000000000000000000000000000000000000000000000000000000000000000000000000000000000000000000000000000000000000000000000000000000000000000000000000000000000000000000000000000000000000000000000000000000000000000000000000000000000000000000000000000000000000000000000000000000000000000000000000000000000000000830200008083989680808203b642a056e81f171bcc55a6ff8345e692c0f86e5b48e01b996cadc001622fb5e363b421880102030405060708c0c0",
        "lastblockhash" : "0x0644da13bc3505e759acf5c53ce4f47d8d2afb753ea75dac347015c5be4b2c43",
        "network" : "ConstantinopleFix",
        "postState" : {
            "0x2adc25665018aa1fe0e6bc666dac8fc2697ff9ba" : {
                "balance" : "0x1bc16d674ece070f",
                "code" : "0x",
                "nonce" : "0x00",
                "storage" : {
                }
            },
            "0x6295ee1b4f6dd65047762f924ecd367c17eabf8f" : {
                "balance" : "0x01",
                "code" : "0x",
                "nonce" : "0x01",
                "storage" : {
                    "0x01" : "0x01"
                }
            },
            "0xa94f5374fce5edbc8e2a8697c15331677e6ebf0b" : {
                "balance" : "0xe8d49f08f0",
                "code" : "0x",
                "nonce" : "0x01",
                "storage" : {
                }
            },
            "0xb000000000000000000000000000000000000000" : {
                "balance" : "0x00",
                "code" : "0x60006001556001600155",
                "nonce" : "0x00",
                "storage" : {
                }
            },
            "0xc000000000000000000000000000000000000000" : {
                "balance" : "0x00",
                "code" : "0x60006001556001600155",
                "nonce" : "0x00",
                "storage" : {
                }
            },
            "0xdea0000000000000000000000000000000000000" : {
                "balance" : "0x00",
                "code" : "0x6001600155600060015560016002556000600255600160035560006003556001600455600060045560016005556000600555600160065560006006556001600755600060075560016008556000600855600160095560006009556001600a556000600a556001600b556000600b556001600c556000600c556001600d556000600d556001600e556000600e556001600f556000600f55600160105560006010556001600155",
                "nonce" : "0x00",
                "storage" : {
                }
            }
        },
        "pre" : {
            "0xa94f5374fce5edbc8e2a8697c15331677e6ebf0b" : {
                "balance" : "0xe8d4a51000",
                "code" : "0x",
                "nonce" : "0x00",
                "storage" : {
                }
            },
            "0xb000000000000000000000000000000000000000" : {
                "balance" : "0x00",
                "code" : "0x60006001556001600155",
                "nonce" : "0x00",
                "storage" : {
                }
            },
            "0xc000000000000000000000000000000000000000" : {
                "balance" : "0x00",
                "code" : "0x60006001556001600155",
                "nonce" : "0x00",
                "storage" : {
                }
            },
            "0xdea0000000000000000000000000000000000000" : {
                "balance" : "0x00",
                "code" : "0x6001600155600060015560016002556000600255600160035560006003556001600455600060045560016005556000600555600160065560006006556001600755600060075560016008556000600855600160095560006009556001600a556000600a556001600b556000600b556001600c556000600c556001600d556000600d556001600e556000600e556001600f556000600f55600160105560006010556001600155",
                "nonce" : "0x00",
                "storage" : {
                }
            }
        },
        "sealEngine" : "NoProof"
    }
}