{
    "sstore_Xto0_d8g0v0_Constantinople" : {
        "_info" : {
            "comment" : "change X -> 0",
            "filledwith" : "testeth 1.7.0-alpha.1-21+commit.78355a28",
            "lllcversion" : "Version: 0.5.0-develop.2018.11.9+commit.9709dfe0.Linux.g++",
            "source" : "src/BlockchainTestsFiller/GeneralStateTests/stSStoreTest/sstore_Xto0_d8g0v0Filler.json",
            "sourceHash" : "0a986ede28211dd68bf66215294e065c7586a2288c4dca6fcbd3b14f1cf41a74"
        },
        "blocks" : [
            {
                "blockHeader" : {
                    "bloom" : "0x00000000000000000000000000000000000000000000000000000000000000000000000000000000000000000000000000000000000000000000000000000000000000000000000000000000000000000000000000000000000000000000000000000000000000000000000000000000000000000000000000000000000000000000000000000000000000000000000000000000000000000000000000000000000000000000000000000000000000000000000000000000000000000000000000000000000000000000000000000000000000000000000000000000000000000000000000000000000000000000000000000000000000000000000000000000",
                    "coinbase" : "0x2adc25665018aa1fe0e6bc666dac8fc2697ff9ba",
                    "difficulty" : "0x020000",
                    "extraData" : "0x",
                    "gasLimit" : "0x989680",
                    "gasUsed" : "0x0aaeae",
                    "hash" : "0xe1b95cbb3458208a5659711b481f0b6412b9d7dffd7751671d071e3d3930b2f6",
                    "mixHash" : "0x0000000000000000000000000000000000000000000000000000000000000000",
                    "nonce" : "0x0000000000000000",
                    "number" : "0x01",
                    "parentHash" : "0xfb06b0e7afe157eb25f40310455966b774a2c4e6707472e2b2045f3a11acf543",
                    "receiptTrie" : "0xb4aca6d37fd559cebb632cf0c0c77491ca92d5e4b8473acd6b16b9b390d38ca8",
                    "stateRoot" : "0x43c0db64824fb4b4885fea8642ac9c381828624a77c183c4969b5217f912ed28",
                    "timestamp" : "0x03e8",
                    "transactionsTrie" : "0x202861d2dda97fc85d1d9fea44c6706a8443a0d2b22a08eb2a6faaeb2741efe1",
                    "uncleHash" : "0x1dcc4de8dec75d7aab85b567b6ccd41ad312451b948a7413f0a142fd40d49347"
                },
                "rlp" : "0xf9029af901f8a0fb06b0e7afe157eb25f40310455966b774a2c4e6707472e2b2045f3a11acf543a01dcc4de8dec75d7aab85b567b6ccd41ad312451b948a7413f0a142fd40d49347942adc25665018aa1fe0e6bc666dac8fc2697ff9baa043c0db64824fb4b4885fea8642ac9c381828624a77c183c4969b5217f912ed28a0202861d2dda97fc85d1d9fea44c6706a8443a0d2b22a08eb2a6faaeb2741efe1a0b4aca6d37fd559cebb632cf0c0c77491ca92d5e4b8473acd6b16b9b390d38ca8b9010000000000000000000000000000000000000000000000000000000000000000000000000000000000000000000000000000000000000000000000000000000000000000000000000000000000000000000000000000000000000000000000000000000000000000000000000000000000000000000000000000000000000000000000000000000000000000000000000000000000000000000000000000000000000000000000000000000000000000000000000000000000000000000000000000000000000000000000000000000000000000000000000000000000000000000000000000000000000000000000000000000000000000000000000000000000830200000183989680830aaeae8203e880a00000000000000000000000000000000000000000000000000000000000000000880000000000000000f89cf89a8001832dc6c08001b84d600060006000600073c000000000000000000000000000000000000000620493e0fa506000600060006000600073dea0000000000000000000000000000000000000620927c0f15060206000fd1ba089e651e1c3e47fb85542be763b41c2ae42d9701a4424a9ecd30fb5b8d2ac0f79a05edb02b506cd2ec6c4f77e084fa4b5bd756a21cf2e90c2437f933d3e76400760c0",
                "transactions" : [
                    {
                        "data" : "0x600060006000600073c000000000000000000000000000000000000000620493e0fa506000600060006000600073dea0000000000000000000000000000000000000620927c0f15060206000fd",
                        "gasLimit" : "0x2dc6c0",
                        "gasPrice" : "0x01",
                        "nonce" : "0x00",
                        "r" : "0x89e651e1c3e47fb85542be763b41c2ae42d9701a4424a9ecd30fb5b8d2ac0f79",
                        "s" : "0x5edb02b506cd2ec6c4f77e084fa4b5bd756a21cf2e90c2437f933d3e76400760",
                        "to" : "",
                        "v" : "0x1b",
                        "value" : "0x01"
                    }
                ],
                "uncleHeaders" : [
                ]
            }
        ],
        "genesisBlockHeader" : {
            "bloom" : "0x00000000000000000000000000000000000000000000000000000000000000000000000000000000000000000000000000000000000000000000000000000000000000000000000000000000000000000000000000000000000000000000000000000000000000000000000000000000000000000000000000000000000000000000000000000000000000000000000000000000000000000000000000000000000000000000000000000000000000000000000000000000000000000000000000000000000000000000000000000000000000000000000000000000000000000000000000000000000000000000000000000000000000000000000000000000",
            "coinbase" : "0x2adc25665018aa1fe0e6bc666dac8fc2697ff9ba",
            "difficulty" : "0x020000",
            "extraData" : "0x42",
            "gasLimit" : "0x989680",
            "gasUsed" : "0x00",
            "hash" : "0xfb06b0e7afe157eb25f40310455966b774a2c4e6707472e2b2045f3a11acf543",
            "mixHash" : "0x56e81f171bcc55a6ff8345e692c0f86e5b48e01b996cadc001622fb5e363b421",
            "nonce" : "0x0102030405060708",
            "number" : "0x00",
            "parentHash" : "0x0000000000000000000000000000000000000000000000000000000000000000",
            "receiptTrie" : "0x56e81f171bcc55a6ff8345e692c0f86e5b48e01b996cadc001622fb5e363b421",
            "stateRoot" : "0xc1b299eee430ea2fb2ebb622081b43ad86add3e2330fc6b2d06b86ff81baaa68",
            "timestamp" : "0x03b6",
            "transactionsTrie" : "0x56e81f171bcc55a6ff8345e692c0f86e5b48e01b996cadc001622fb5e363b421",
            "uncleHash" : "0x1dcc4de8dec75d7aab85b567b6ccd41ad312451b948a7413f0a142fd40d49347"
        },
        "genesisRLP" : "0xf901faf901f5a00000000000000000000000000000000000000000000000000000000000000000a01dcc4de8dec75d7aab85b567b6ccd41ad312451b948a7413f0a142fd40d49347942adc25665018aa1fe0e6bc666dac8fc2697ff9baa0c1b299eee430ea2fb2ebb622081b43ad86add3e2330fc6b2d06b86ff81baaa68a056e81f171bcc55a6ff8345e692c0f86e5b48e01b996cadc001622fb5e363b421a056e81f171bcc55a6ff8345e692c0f86e5b48e01b996cadc001622fb5e363b421b9010000000000000000000000000000000000000000000000000000000000000000000000000000000000000000000000000000000000000000000000000000000000000000000000000000000000000000000000000000000000000000000000000000000000000000000000000000000000000000000000000000000000000000000000000000000000000000000000000000000000000000000000000000000000000000000000000000000000000000000000000000000000000000000000000000000000000000000000000000000000000000000000000000000000000000000000000000000000000000000000000000000000000000000000000000000000830200008083989680808203b642a056e81f171bcc55a6ff8345e692c0f86e5b48e01b996cadc001622fb5e363b421880102030405060708c0c0",
        "lastblockhash" : "0xe1b95cbb3458208a5659711b481f0b6412b9d7dffd7751671d071e3d3930b2f6",
        "network" : "Constantinople",
        "postState" : {
            "0x2adc25665018aa1fe0e6bc666dac8fc2697ff9ba" : {
                "balance" : "0x1bc16d674ed2aeae",
                "code" : "0x",
                "nonce" : "0x00",
                "storage" : {
                }
            },
            "0xa94f5374fce5edbc8e2a8697c15331677e6ebf0b" : {
                "balance" : "0xe8d49a6152",
                "code" : "0x",
                "nonce" : "0x01",
                "storage" : {
                }
            },
            "0xb000000000000000000000000000000000000000" : {
                "balance" : "0x00",
                "code" : "0x6000600155",
                "nonce" : "0x00",
                "storage" : {
                    "0x01" : "0x01"
                }
            },
            "0xc000000000000000000000000000000000000000" : {
                "balance" : "0x00",
                "code" : "0x6000600155",
                "nonce" : "0x00",
                "storage" : {
                    "0x01" : "0x01"
                }
            },
            "0xdea0000000000000000000000000000000000000" : {
                "balance" : "0x00",
                "code" : "0x6001600155600060015560016002556000600255600160035560006003556001600455600060045560016005556000600555600160065560006006556001600755600060075560016008556000600855600160095560006009556001600a556000600a556001600b556000600b556001600c556000600c556001600d556000600d556001600e556000600e556001600f556000600f55600160105560006010556001600155",
                "nonce" : "0x00",
                "storage" : {
                }
            }
        },
        "pre" : {
            "0xa94f5374fce5edbc8e2a8697c15331677e6ebf0b" : {
                "balance" : "0xe8d4a51000",
                "code" : "0x",
                "nonce" : "0x00",
                "storage" : {
                }
            },
            "0xb000000000000000000000000000000000000000" : {
                "balance" : "0x00",
                "code" : "0x6000600155",
                "nonce" : "0x00",
                "storage" : {
                    "0x01" : "0x01"
                }
            },
            "0xc000000000000000000000000000000000000000" : {
                "balance" : "0x00",
                "code" : "0x6000600155",
                "nonce" : "0x00",
                "storage" : {
                    "0x01" : "0x01"
                }
            },
            "0xdea0000000000000000000000000000000000000" : {
                "balance" : "0x00",
                "code" : "0x6001600155600060015560016002556000600255600160035560006003556001600455600060045560016005556000600555600160065560006006556001600755600060075560016008556000600855600160095560006009556001600a556000600a556001600b556000600b556001600c556000600c556001600d556000600d556001600e556000600e556001600f556000600f55600160105560006010556001600155",
                "nonce" : "0x00",
                "storage" : {
                }
            }
        },
        "sealEngine" : "NoProof"
    },
    "sstore_Xto0_d8g0v0_ConstantinopleFix" : {
        "_info" : {
            "comment" : "change X -> 0",
            "filledwith" : "testeth 1.7.0-alpha.1-21+commit.78355a28",
            "lllcversion" : "Version: 0.5.0-develop.2018.11.9+commit.9709dfe0.Linux.g++",
            "source" : "src/BlockchainTestsFiller/GeneralStateTests/stSStoreTest/sstore_Xto0_d8g0v0Filler.json",
            "sourceHash" : "0a986ede28211dd68bf66215294e065c7586a2288c4dca6fcbd3b14f1cf41a74"
        },
        "blocks" : [
            {
                "blockHeader" : {
                    "bloom" : "0x00000000000000000000000000000000000000000000000000000000000000000000000000000000000000000000000000000000000000000000000000000000000000000000000000000000000000000000000000000000000000000000000000000000000000000000000000000000000000000000000000000000000000000000000000000000000000000000000000000000000000000000000000000000000000000000000000000000000000000000000000000000000000000000000000000000000000000000000000000000000000000000000000000000000000000000000000000000000000000000000000000000000000000000000000000000",
                    "coinbase" : "0x2adc25665018aa1fe0e6bc666dac8fc2697ff9ba",
                    "difficulty" : "0x020000",
                    "extraData" : "0x",
                    "gasLimit" : "0x989680",
                    "gasUsed" : "0x0bdaae",
                    "hash" : "0xb264febd4c9d53e40ae643a845a37dd3fc290e830d9079dd858c875ccc3d7e8b",
                    "mixHash" : "0x0000000000000000000000000000000000000000000000000000000000000000",
                    "nonce" : "0x0000000000000000",
                    "number" : "0x01",
                    "parentHash" : "0xfb06b0e7afe157eb25f40310455966b774a2c4e6707472e2b2045f3a11acf543",
                    "receiptTrie" : "0x73a8e4de4eb921a935cc6c3b711ebf3260657387a97fe271338df144266ccf6f",
                    "stateRoot" : "0xb5f43844ab6adb2bdf90a6a4d66201d370328e17ecd724f546e51306615b4775",
                    "timestamp" : "0x03e8",
                    "transactionsTrie" : "0x202861d2dda97fc85d1d9fea44c6706a8443a0d2b22a08eb2a6faaeb2741efe1",
                    "uncleHash" : "0x1dcc4de8dec75d7aab85b567b6ccd41ad312451b948a7413f0a142fd40d49347"
                },
                "rlp" : "0xf9029af901f8a0fb06b0e7afe157eb25f40310455966b774a2c4e6707472e2b2045f3a11acf543a01dcc4de8dec75d7aab85b567b6ccd41ad312451b948a7413f0a142fd40d49347942adc25665018aa1fe0e6bc666dac8fc2697ff9baa0b5f43844ab6adb2bdf90a6a4d66201d370328e17ecd724f546e51306615b4775a0202861d2dda97fc85d1d9fea44c6706a8443a0d2b22a08eb2a6faaeb2741efe1a073a8e4de4eb921a935cc6c3b711ebf3260657387a97fe271338df144266ccf6fb9010000000000000000000000000000000000000000000000000000000000000000000000000000000000000000000000000000000000000000000000000000000000000000000000000000000000000000000000000000000000000000000000000000000000000000000000000000000000000000000000000000000000000000000000000000000000000000000000000000000000000000000000000000000000000000000000000000000000000000000000000000000000000000000000000000000000000000000000000000000000000000000000000000000000000000000000000000000000000000000000000000000000000000000000000000000000830200000183989680830bdaae8203e880a00000000000000000000000000000000000000000000000000000000000000000880000000000000000f89cf89a8001832dc6c08001b84d600060006000600073c000000000000000000000000000000000000000620493e0fa506000600060006000600073dea0000000000000000000000000000000000000620927c0f15060206000fd1ba089e651e1c3e47fb85542be763b41c2ae42d9701a4424a9ecd30fb5b8d2ac0f79a05edb02b506cd2ec6c4f77e084fa4b5bd756a21cf2e90c2437f933d3e76400760c0",
                "transactions" : [
                    {
                        "data" : "0x600060006000600073c000000000000000000000000000000000000000620493e0fa506000600060006000600073dea0000000000000000000000000000000000000620927c0f15060206000fd",
                        "gasLimit" : "0x2dc6c0",
                        "gasPrice" : "0x01",
                        "nonce" : "0x00",
                        "r" : "0x89e651e1c3e47fb85542be763b41c2ae42d9701a4424a9ecd30fb5b8d2ac0f79",
                        "s" : "0x5edb02b506cd2ec6c4f77e084fa4b5bd756a21cf2e90c2437f933d3e76400760",
                        "to" : "",
                        "v" : "0x1b",
                        "value" : "0x01"
                    }
                ],
                "uncleHeaders" : [
                ]
            }
        ],
        "genesisBlockHeader" : {
            "bloom" : "0x00000000000000000000000000000000000000000000000000000000000000000000000000000000000000000000000000000000000000000000000000000000000000000000000000000000000000000000000000000000000000000000000000000000000000000000000000000000000000000000000000000000000000000000000000000000000000000000000000000000000000000000000000000000000000000000000000000000000000000000000000000000000000000000000000000000000000000000000000000000000000000000000000000000000000000000000000000000000000000000000000000000000000000000000000000000",
            "coinbase" : "0x2adc25665018aa1fe0e6bc666dac8fc2697ff9ba",
            "difficulty" : "0x020000",
            "extraData" : "0x42",
            "gasLimit" : "0x989680",
            "gasUsed" : "0x00",
            "hash" : "0xfb06b0e7afe157eb25f40310455966b774a2c4e6707472e2b2045f3a11acf543",
            "mixHash" : "0x56e81f171bcc55a6ff8345e692c0f86e5b48e01b996cadc001622fb5e363b421",
            "nonce" : "0x0102030405060708",
            "number" : "0x00",
            "parentHash" : "0x0000000000000000000000000000000000000000000000000000000000000000",
            "receiptTrie" : "0x56e81f171bcc55a6ff8345e692c0f86e5b48e01b996cadc001622fb5e363b421",
            "stateRoot" : "0xc1b299eee430ea2fb2ebb622081b43ad86add3e2330fc6b2d06b86ff81baaa68",
            "timestamp" : "0x03b6",
            "transactionsTrie" : "0x56e81f171bcc55a6ff8345e692c0f86e5b48e01b996cadc001622fb5e363b421",
            "uncleHash" : "0x1dcc4de8dec75d7aab85b567b6ccd41ad312451b948a7413f0a142fd40d49347"
        },
        "genesisRLP" : "0xf901faf901f5a00000000000000000000000000000000000000000000000000000000000000000a01dcc4de8dec75d7aab85b567b6ccd41ad312451b948a7413f0a142fd40d49347942adc25665018aa1fe0e6bc666dac8fc2697ff9baa0c1b299eee430ea2fb2ebb622081b43ad86add3e2330fc6b2d06b86ff81baaa68a056e81f171bcc55a6ff8345e692c0f86e5b48e01b996cadc001622fb5e363b421a056e81f171bcc55a6ff8345e692c0f86e5b48e01b996cadc001622fb5e363b421b9010000000000000000000000000000000000000000000000000000000000000000000000000000000000000000000000000000000000000000000000000000000000000000000000000000000000000000000000000000000000000000000000000000000000000000000000000000000000000000000000000000000000000000000000000000000000000000000000000000000000000000000000000000000000000000000000000000000000000000000000000000000000000000000000000000000000000000000000000000000000000000000000000000000000000000000000000000000000000000000000000000000000000000000000000000000000830200008083989680808203b642a056e81f171bcc55a6ff8345e692c0f86e5b48e01b996cadc001622fb5e363b421880102030405060708c0c0",
        "lastblockhash" : "0xb264febd4c9d53e40ae643a845a37dd3fc290e830d9079dd858c875ccc3d7e8b",
        "network" : "ConstantinopleFix",
        "postState" : {
            "0x2adc25665018aa1fe0e6bc666dac8fc2697ff9ba" : {
                "balance" : "0x1bc16d674ed3daae",
                "code" : "0x",
                "nonce" : "0x00",
                "storage" : {
                }
            },
            "0xa94f5374fce5edbc8e2a8697c15331677e6ebf0b" : {
                "balance" : "0xe8d4993552",
                "code" : "0x",
                "nonce" : "0x01",
                "storage" : {
                }
            },
            "0xb000000000000000000000000000000000000000" : {
                "balance" : "0x00",
                "code" : "0x6000600155",
                "nonce" : "0x00",
                "storage" : {
                    "0x01" : "0x01"
                }
            },
            "0xc000000000000000000000000000000000000000" : {
                "balance" : "0x00",
                "code" : "0x6000600155",
                "nonce" : "0x00",
                "storage" : {
                    "0x01" : "0x01"
                }
            },
            "0xdea0000000000000000000000000000000000000" : {
                "balance" : "0x00",
                "code" : "0x6001600155600060015560016002556000600255600160035560006003556001600455600060045560016005556000600555600160065560006006556001600755600060075560016008556000600855600160095560006009556001600a556000600a556001600b556000600b556001600c556000600c556001600d556000600d556001600e556000600e556001600f556000600f55600160105560006010556001600155",
                "nonce" : "0x00",
                "storage" : {
                }
            }
        },
        "pre" : {
            "0xa94f5374fce5edbc8e2a8697c15331677e6ebf0b" : {
                "balance" : "0xe8d4a51000",
                "code" : "0x",
                "nonce" : "0x00",
                "storage" : {
                }
            },
            "0xb000000000000000000000000000000000000000" : {
                "balance" : "0x00",
                "code" : "0x6000600155",
                "nonce" : "0x00",
                "storage" : {
                    "0x01" : "0x01"
                }
            },
            "0xc000000000000000000000000000000000000000" : {
                "balance" : "0x00",
                "code" : "0x6000600155",
                "nonce" : "0x00",
                "storage" : {
                    "0x01" : "0x01"
                }
            },
            "0xdea0000000000000000000000000000000000000" : {
                "balance" : "0x00",
                "code" : "0x6001600155600060015560016002556000600255600160035560006003556001600455600060045560016005556000600555600160065560006006556001600755600060075560016008556000600855600160095560006009556001600a556000600a556001600b556000600b556001600c556000600c556001600d556000600d556001600e556000600e556001600f556000600f55600160105560006010556001600155",
                "nonce" : "0x00",
                "storage" : {
                }
            }
        },
        "sealEngine" : "NoProof"
    }
}