{
    "sstore_0to0to0_d5g0v0_Constantinople" : {
        "_info" : {
            "comment" : "change 0 -> 0 -> 0",
            "filledwith" : "testeth 1.7.0-alpha.1-21+commit.78355a28",
            "lllcversion" : "Version: 0.5.0-develop.2018.11.9+commit.9709dfe0.Linux.g++",
            "source" : "src/BlockchainTestsFiller/GeneralStateTests/stSStoreTest/sstore_0to0to0_d5g0v0Filler.json",
            "sourceHash" : "609717224d39adb259feb86e07ac46d5ebfe2d8a8841bbc00824ca2008ee29ea"
        },
        "blocks" : [
            {
                "blockHeader" : {
                    "bloom" : "0x00000000000000000000000000000000000000000000000000000000000000000000000000000000000000000000000000000000000000000000000000000000000000000000000000000000000000000000000000000000000000000000000000000000000000000000000000000000000000000000000000000000000000000000000000000000000000000000000000000000000000000000000000000000000000000000000000000000000000000000000000000000000000000000000000000000000000000000000000000000000000000000000000000000000000000000000000000000000000000000000000000000000000000000000000000000",
                    "coinbase" : "0x2adc25665018aa1fe0e6bc666dac8fc2697ff9ba",
                    "difficulty" : "0x020000",
                    "extraData" : "0x",
                    "gasLimit" : "0x989680",
                    "gasUsed" : "0x061cb5",
                    "hash" : "0x3e6c768de5dda34e803f9da5cc75d7d67372088e7e9dd741fb2b4f57d3e42437",
                    "mixHash" : "0x0000000000000000000000000000000000000000000000000000000000000000",
                    "nonce" : "0x0000000000000000",
                    "number" : "0x01",
                    "parentHash" : "0xac3e7060ed50c9d7f6a7f301c2321e0624011a811325241577f78d65146f75fb",
                    "receiptTrie" : "0xef93252f0c100d026a5e2bf8ad4a5ff8ec033eca2c4bdeae5b270662c35ce4af",
                    "stateRoot" : "0xf1d2d9182bf5cb111119f5700cfb539f4fa5cd1a02d6d9496ccb33a5ee7af969",
                    "timestamp" : "0x03e8",
                    "transactionsTrie" : "0x9fbe63694184a000e99ab8aebca46a9c72157b1f53f07f2fa9c5444f2a47d98e",
                    "uncleHash" : "0x1dcc4de8dec75d7aab85b567b6ccd41ad312451b948a7413f0a142fd40d49347"
                },
                "rlp" : "0xf9029cf901f8a0ac3e7060ed50c9d7f6a7f301c2321e0624011a811325241577f78d65146f75fba01dcc4de8dec75d7aab85b567b6ccd41ad312451b948a7413f0a142fd40d49347942adc25665018aa1fe0e6bc666dac8fc2697ff9baa0f1d2d9182bf5cb111119f5700cfb539f4fa5cd1a02d6d9496ccb33a5ee7af969a09fbe63694184a000e99ab8aebca46a9c72157b1f53f07f2fa9c5444f2a47d98ea0ef93252f0c100d026a5e2bf8ad4a5ff8ec033eca2c4bdeae5b270662c35ce4afb901000000000000000000000000000000000000000000000000000000000000000000000000000000000000000000000000000000000000000000000000000000000000000000000000000000000000000000000000000000000000000000000000000000000000000000000000000000000000000000000000000000000000000000000000000000000000000000000000000000000000000000000000000000000000000000000000000000000000000000000000000000000000000000000000000000000000000000000000000000000000000000000000000000000000000000000000000000000000000000000000000000000000000000000000000000000083020000018398968083061cb58203e880a00000000000000000000000000000000000000000000000000000000000000000880000000000000000f89ef89c8001830f42408001b84f6000600060006000600073b000000000000000000000000000000000000000620493e0f1506000600060006000600073dea0000000000000000000000000000000000000620927c0f15060206000fd1ba08b37b7a2efa7aa4bd72d239876c51911effa1a8427f2b9eb37c9f2e94a3ca523a02a434f8a224ff005b6a758d27da679d9ab87448e810a2854a5a4d7dc1931a2c4c0",
                "transactions" : [
                    {
                        "data" : "0x6000600060006000600073b000000000000000000000000000000000000000620493e0f1506000600060006000600073dea0000000000000000000000000000000000000620927c0f15060206000fd",
                        "gasLimit" : "0x0f4240",
                        "gasPrice" : "0x01",
                        "nonce" : "0x00",
                        "r" : "0x8b37b7a2efa7aa4bd72d239876c51911effa1a8427f2b9eb37c9f2e94a3ca523",
                        "s" : "0x2a434f8a224ff005b6a758d27da679d9ab87448e810a2854a5a4d7dc1931a2c4",
                        "to" : "",
                        "v" : "0x1b",
                        "value" : "0x01"
                    }
                ],
                "uncleHeaders" : [
                ]
            }
        ],
        "genesisBlockHeader" : {
            "bloom" : "0x00000000000000000000000000000000000000000000000000000000000000000000000000000000000000000000000000000000000000000000000000000000000000000000000000000000000000000000000000000000000000000000000000000000000000000000000000000000000000000000000000000000000000000000000000000000000000000000000000000000000000000000000000000000000000000000000000000000000000000000000000000000000000000000000000000000000000000000000000000000000000000000000000000000000000000000000000000000000000000000000000000000000000000000000000000000",
            "coinbase" : "0x2adc25665018aa1fe0e6bc666dac8fc2697ff9ba",
            "difficulty" : "0x020000",
            "extraData" : "0x42",
            "gasLimit" : "0x989680",
            "gasUsed" : "0x00",
            "hash" : "0xac3e7060ed50c9d7f6a7f301c2321e0624011a811325241577f78d65146f75fb",
            "mixHash" : "0x56e81f171bcc55a6ff8345e692c0f86e5b48e01b996cadc001622fb5e363b421",
            "nonce" : "0x0102030405060708",
            "number" : "0x00",
            "parentHash" : "0x0000000000000000000000000000000000000000000000000000000000000000",
            "receiptTrie" : "0x56e81f171bcc55a6ff8345e692c0f86e5b48e01b996cadc001622fb5e363b421",
            "stateRoot" : "0x5eae06ca454ca14ef08b173ac93ace61ddd8d8c9f75147bb961ac01741be9e40",
            "timestamp" : "0x03b6",
            "transactionsTrie" : "0x56e81f171bcc55a6ff8345e692c0f86e5b48e01b996cadc001622fb5e363b421",
            "uncleHash" : "0x1dcc4de8dec75d7aab85b567b6ccd41ad312451b948a7413f0a142fd40d49347"
        },
        "genesisRLP" : "0xf901faf901f5a00000000000000000000000000000000000000000000000000000000000000000a01dcc4de8dec75d7aab85b567b6ccd41ad312451b948a7413f0a142fd40d49347942adc25665018aa1fe0e6bc666dac8fc2697ff9baa05eae06ca454ca14ef08b173ac93ace61ddd8d8c9f75147bb961ac01741be9e40a056e81f171bcc55a6ff8345e692c0f86e5b48e01b996cadc001622fb5e363b421a056e81f171bcc55a6ff8345e692c0f86e5b48e01b996cadc001622fb5e363b421b9010000000000000000000000000000000000000000000000000000000000000000000000000000000000000000000000000000000000000000000000000000000000000000000000000000000000000000000000000000000000000000000000000000000000000000000000000000000000000000000000000000000000000000000000000000000000000000000000000000000000000000000000000000000000000000000000000000000000000000000000000000000000000000000000000000000000000000000000000000000000000000000000000000000000000000000000000000000000000000000000000000000000000000000000000000000000830200008083989680808203b642a056e81f171bcc55a6ff8345e692c0f86e5b48e01b996cadc001622fb5e363b421880102030405060708c0c0",
        "lastblockhash" : "0x3e6c768de5dda34e803f9da5cc75d7d67372088e7e9dd741fb2b4f57d3e42437",
        "network" : "Constantinople",
        "postState" : {
            "0x2adc25665018aa1fe0e6bc666dac8fc2697ff9ba" : {
                "balance" : "0x1bc16d674ece1cb5",
                "code" : "0x",
                "nonce" : "0x00",
                "storage" : {
                }
            },
            "0xa94f5374fce5edbc8e2a8697c15331677e6ebf0b" : {
                "balance" : "0xe8d49ef34b",
                "code" : "0x",
                "nonce" : "0x01",
                "storage" : {
                }
            },
            "0xb000000000000000000000000000000000000000" : {
                "balance" : "0x00",
                "code" : "0x60006001556000600155",
                "nonce" : "0x00",
                "storage" : {
                }
            },
            "0xc000000000000000000000000000000000000000" : {
                "balance" : "0x00",
                "code" : "0x60006001556000600155",
                "nonce" : "0x00",
                "storage" : {
                }
            },
            "0xdea0000000000000000000000000000000000000" : {
                "balance" : "0x00",
                "code" : "0x6001600155600060015560016002556000600255600160035560006003556001600455600060045560016005556000600555600160065560006006556001600755600060075560016008556000600855600160095560006009556001600a556000600a556001600b556000600b556001600c556000600c556001600d556000600d556001600e556000600e556001600f556000600f55600160105560006010556001600155",
                "nonce" : "0x00",
                "storage" : {
                }
            }
        },
        "pre" : {
            "0xa94f5374fce5edbc8e2a8697c15331677e6ebf0b" : {
                "balance" : "0xe8d4a51000",
                "code" : "0x",
                "nonce" : "0x00",
                "storage" : {
                }
            },
            "0xb000000000000000000000000000000000000000" : {
                "balance" : "0x00",
                "code" : "0x60006001556000600155",
                "nonce" : "0x00",
                "storage" : {
                }
            },
            "0xc000000000000000000000000000000000000000" : {
                "balance" : "0x00",
                "code" : "0x60006001556000600155",
                "nonce" : "0x00",
                "storage" : {
                }
            },
            "0xdea0000000000000000000000000000000000000" : {
                "balance" : "0x00",
                "code" : "0x6001600155600060015560016002556000600255600160035560006003556001600455600060045560016005556000600555600160065560006006556001600755600060075560016008556000600855600160095560006009556001600a556000600a556001600b556000600b556001600c556000600c556001600d556000600d556001600e556000600e556001600f556000600f55600160105560006010556001600155",
                "nonce" : "0x00",
                "storage" : {
                }
            }
        },
        "sealEngine" : "NoProof"
    },
    "sstore_0to0to0_d5g0v0_ConstantinopleFix" : {
        "_info" : {
            "comment" : "change 0 -> 0 -> 0",
            "filledwith" : "testeth 1.7.0-alpha.1-21+commit.78355a28",
            "lllcversion" : "Version: 0.5.0-develop.2018.11.9+commit.9709dfe0.Linux.g++",
            "source" : "src/BlockchainTestsFiller/GeneralStateTests/stSStoreTest/sstore_0to0to0_d5g0v0Filler.json",
            "sourceHash" : "609717224d39adb259feb86e07ac46d5ebfe2d8a8841bbc00824ca2008ee29ea"
        },
        "blocks" : [
            {
                "blockHeader" : {
                    "bloom" : "0x00000000000000000000000000000000000000000000000000000000000000000000000000000000000000000000000000000000000000000000000000000000000000000000000000000000000000000000000000000000000000000000000000000000000000000000000000000000000000000000000000000000000000000000000000000000000000000000000000000000000000000000000000000000000000000000000000000000000000000000000000000000000000000000000000000000000000000000000000000000000000000000000000000000000000000000000000000000000000000000000000000000000000000000000000000000",
                    "coinbase" : "0x2adc25665018aa1fe0e6bc666dac8fc2697ff9ba",
                    "difficulty" : "0x020000",
                    "extraData" : "0x",
                    "gasLimit" : "0x989680",
                    "gasUsed" : "0x076e35",
                    "hash" : "0xd56f5601e9f9818dcb1fdf7cc560ed8654531be940b1db33754e72ae0896b403",
                    "mixHash" : "0x0000000000000000000000000000000000000000000000000000000000000000",
                    "nonce" : "0x0000000000000000",
                    "number" : "0x01",
                    "parentHash" : "0xac3e7060ed50c9d7f6a7f301c2321e0624011a811325241577f78d65146f75fb",
                    "receiptTrie" : "0xb5fa3c0aef798b4c2de14b35cbb4ee88cb1b7f330a033bcc21e92364580c494e",
                    "stateRoot" : "0xb5f8b9bda40b1568b51ae1f14e21ae7b6c782c9449446825f47cda8b5ea58438",
                    "timestamp" : "0x03e8",
                    "transactionsTrie" : "0x9fbe63694184a000e99ab8aebca46a9c72157b1f53f07f2fa9c5444f2a47d98e",
                    "uncleHash" : "0x1dcc4de8dec75d7aab85b567b6ccd41ad312451b948a7413f0a142fd40d49347"
                },
                "rlp" : "0xf9029cf901f8a0ac3e7060ed50c9d7f6a7f301c2321e0624011a811325241577f78d65146f75fba01dcc4de8dec75d7aab85b567b6ccd41ad312451b948a7413f0a142fd40d49347942adc25665018aa1fe0e6bc666dac8fc2697ff9baa0b5f8b9bda40b1568b51ae1f14e21ae7b6c782c9449446825f47cda8b5ea58438a09fbe63694184a000e99ab8aebca46a9c72157b1f53f07f2fa9c5444f2a47d98ea0b5fa3c0aef798b4c2de14b35cbb4ee88cb1b7f330a033bcc21e92364580c494eb901000000000000000000000000000000000000000000000000000000000000000000000000000000000000000000000000000000000000000000000000000000000000000000000000000000000000000000000000000000000000000000000000000000000000000000000000000000000000000000000000000000000000000000000000000000000000000000000000000000000000000000000000000000000000000000000000000000000000000000000000000000000000000000000000000000000000000000000000000000000000000000000000000000000000000000000000000000000000000000000000000000000000000000000000000000000083020000018398968083076e358203e880a00000000000000000000000000000000000000000000000000000000000000000880000000000000000f89ef89c8001830f42408001b84f6000600060006000600073b000000000000000000000000000000000000000620493e0f1506000600060006000600073dea0000000000000000000000000000000000000620927c0f15060206000fd1ba08b37b7a2efa7aa4bd72d239876c51911effa1a8427f2b9eb37c9f2e94a3ca523a02a434f8a224ff005b6a758d27da679d9ab87448e810a2854a5a4d7dc1931a2c4c0",
                "transactions" : [
                    {
                        "data" : "0x6000600060006000600073b000000000000000000000000000000000000000620493e0f1506000600060006000600073dea0000000000000000000000000000000000000620927c0f15060206000fd",
                        "gasLimit" : "0x0f4240",
                        "gasPrice" : "0x01",
                        "nonce" : "0x00",
                        "r" : "0x8b37b7a2efa7aa4bd72d239876c51911effa1a8427f2b9eb37c9f2e94a3ca523",
                        "s" : "0x2a434f8a224ff005b6a758d27da679d9ab87448e810a2854a5a4d7dc1931a2c4",
                        "to" : "",
                        "v" : "0x1b",
                        "value" : "0x01"
                    }
                ],
                "uncleHeaders" : [
                ]
            }
        ],
        "genesisBlockHeader" : {
            "bloom" : "0x00000000000000000000000000000000000000000000000000000000000000000000000000000000000000000000000000000000000000000000000000000000000000000000000000000000000000000000000000000000000000000000000000000000000000000000000000000000000000000000000000000000000000000000000000000000000000000000000000000000000000000000000000000000000000000000000000000000000000000000000000000000000000000000000000000000000000000000000000000000000000000000000000000000000000000000000000000000000000000000000000000000000000000000000000000000",
            "coinbase" : "0x2adc25665018aa1fe0e6bc666dac8fc2697ff9ba",
            "difficulty" : "0x020000",
            "extraData" : "0x42",
            "gasLimit" : "0x989680",
            "gasUsed" : "0x00",
            "hash" : "0xac3e7060ed50c9d7f6a7f301c2321e0624011a811325241577f78d65146f75fb",
            "mixHash" : "0x56e81f171bcc55a6ff8345e692c0f86e5b48e01b996cadc001622fb5e363b421",
            "nonce" : "0x0102030405060708",
            "number" : "0x00",
            "parentHash" : "0x0000000000000000000000000000000000000000000000000000000000000000",
            "receiptTrie" : "0x56e81f171bcc55a6ff8345e692c0f86e5b48e01b996cadc001622fb5e363b421",
            "stateRoot" : "0x5eae06ca454ca14ef08b173ac93ace61ddd8d8c9f75147bb961ac01741be9e40",
            "timestamp" : "0x03b6",
            "transactionsTrie" : "0x56e81f171bcc55a6ff8345e692c0f86e5b48e01b996cadc001622fb5e363b421",
            "uncleHash" : "0x1dcc4de8dec75d7aab85b567b6ccd41ad312451b948a7413f0a142fd40d49347"
        },
        "genesisRLP" : "0xf901faf901f5a00000000000000000000000000000000000000000000000000000000000000000a01dcc4de8dec75d7aab85b567b6ccd41ad312451b948a7413f0a142fd40d49347942adc25665018aa1fe0e6bc666dac8fc2697ff9baa05eae06ca454ca14ef08b173ac93ace61ddd8d8c9f75147bb961ac01741be9e40a056e81f171bcc55a6ff8345e692c0f86e5b48e01b996cadc001622fb5e363b421a056e81f171bcc55a6ff8345e692c0f86e5b48e01b996cadc001622fb5e363b421b9010000000000000000000000000000000000000000000000000000000000000000000000000000000000000000000000000000000000000000000000000000000000000000000000000000000000000000000000000000000000000000000000000000000000000000000000000000000000000000000000000000000000000000000000000000000000000000000000000000000000000000000000000000000000000000000000000000000000000000000000000000000000000000000000000000000000000000000000000000000000000000000000000000000000000000000000000000000000000000000000000000000000000000000000000000000000830200008083989680808203b642a056e81f171bcc55a6ff8345e692c0f86e5b48e01b996cadc001622fb5e363b421880102030405060708c0c0",
        "lastblockhash" : "0xd56f5601e9f9818dcb1fdf7cc560ed8654531be940b1db33754e72ae0896b403",
        "network" : "ConstantinopleFix",
        "postState" : {
            "0x2adc25665018aa1fe0e6bc666dac8fc2697ff9ba" : {
                "balance" : "0x1bc16d674ecf6e35",
                "code" : "0x",
                "nonce" : "0x00",
                "storage" : {
                }
            },
            "0xa94f5374fce5edbc8e2a8697c15331677e6ebf0b" : {
                "balance" : "0xe8d49da1cb",
                "code" : "0x",
                "nonce" : "0x01",
                "storage" : {
                }
            },
            "0xb000000000000000000000000000000000000000" : {
                "balance" : "0x00",
                "code" : "0x60006001556000600155",
                "nonce" : "0x00",
                "storage" : {
                }
            },
            "0xc000000000000000000000000000000000000000" : {
                "balance" : "0x00",
                "code" : "0x60006001556000600155",
                "nonce" : "0x00",
                "storage" : {
                }
            },
            "0xdea0000000000000000000000000000000000000" : {
                "balance" : "0x00",
                "code" : "0x6001600155600060015560016002556000600255600160035560006003556001600455600060045560016005556000600555600160065560006006556001600755600060075560016008556000600855600160095560006009556001600a556000600a556001600b556000600b556001600c556000600c556001600d556000600d556001600e556000600e556001600f556000600f55600160105560006010556001600155",
                "nonce" : "0x00",
                "storage" : {
                }
            }
        },
        "pre" : {
            "0xa94f5374fce5edbc8e2a8697c15331677e6ebf0b" : {
                "balance" : "0xe8d4a51000",
                "code" : "0x",
                "nonce" : "0x00",
                "storage" : {
                }
            },
            "0xb000000000000000000000000000000000000000" : {
                "balance" : "0x00",
                "code" : "0x60006001556000600155",
                "nonce" : "0x00",
                "storage" : {
                }
            },
            "0xc000000000000000000000000000000000000000" : {
                "balance" : "0x00",
                "code" : "0x60006001556000600155",
                "nonce" : "0x00",
                "storage" : {
                }
            },
            "0xdea0000000000000000000000000000000000000" : {
                "balance" : "0x00",
                "code" : "0x6001600155600060015560016002556000600255600160035560006003556001600455600060045560016005556000600555600160065560006006556001600755600060075560016008556000600855600160095560006009556001600a556000600a556001600b556000600b556001600c556000600c556001600d556000600d556001600e556000600e556001600f556000600f55600160105560006010556001600155",
                "nonce" : "0x00",
                "storage" : {
                }
            }
        },
        "sealEngine" : "NoProof"
    }
}