{
    "sstore_Xto0_d6g1v0_Constantinople" : {
        "_info" : {
            "comment" : "change X -> 0",
            "filledwith" : "testeth 1.7.0-alpha.1-21+commit.78355a28",
            "lllcversion" : "Version: 0.5.0-develop.2018.11.9+commit.9709dfe0.Linux.g++",
            "source" : "src/BlockchainTestsFiller/GeneralStateTests/stSStoreTest/sstore_Xto0_d6g1v0Filler.json",
            "sourceHash" : "0831d1533e7c5a76e4bed4966a564fb95156206aa0c7de66175ce4d5135dbeff"
        },
        "blocks" : [
            {
                "blockHeader" : {
                    "bloom" : "0x00000000000000000000000000000000000000000000000000000000000000000000000000000000000000000000000000000000000000000000000000000000000000000000000000000000000000000000000000000000000000000000000000000000000000000000000000000000000000000000000000000000000000000000000000000000000000000000000000000000000000000000000000000000000000000000000000000000000000000000000000000000000000000000000000000000000000000000000000000000000000000000000000000000000000000000000000000000000000000000000000000000000000000000000000000000",
                    "coinbase" : "0x2adc25665018aa1fe0e6bc666dac8fc2697ff9ba",
                    "difficulty" : "0x020000",
                    "extraData" : "0x",
                    "gasLimit" : "0x989680",
                    "gasUsed" : "0x06059b",
                    "hash" : "0xfcbc50eaa6dd6ad1d78daa4a975a47cbd9e08a61a27baa33caba2ccbbe2e158c",
                    "mixHash" : "0x0000000000000000000000000000000000000000000000000000000000000000",
                    "nonce" : "0x0000000000000000",
                    "number" : "0x01",
                    "parentHash" : "0xfb06b0e7afe157eb25f40310455966b774a2c4e6707472e2b2045f3a11acf543",
                    "receiptTrie" : "0xb28257c7c76aa66518c0b157ec7a96c270aabcc13904cd5ca50b9efc0b2eb438",
                    "stateRoot" : "0x7deadef682c207cbbb243babde2d7c9cca54c4e422c43be330b36fa54436a2f1",
                    "timestamp" : "0x03e8",
                    "transactionsTrie" : "0xb7188c6f06224f92efb460dcc0d8d6b0058ac923c78cd0ff98e8f5cbeda49248",
                    "uncleHash" : "0x1dcc4de8dec75d7aab85b567b6ccd41ad312451b948a7413f0a142fd40d49347"
                },
                "rlp" : "0xf9029cf901f8a0fb06b0e7afe157eb25f40310455966b774a2c4e6707472e2b2045f3a11acf543a01dcc4de8dec75d7aab85b567b6ccd41ad312451b948a7413f0a142fd40d49347942adc25665018aa1fe0e6bc666dac8fc2697ff9baa07deadef682c207cbbb243babde2d7c9cca54c4e422c43be330b36fa54436a2f1a0b7188c6f06224f92efb460dcc0d8d6b0058ac923c78cd0ff98e8f5cbeda49248a0b28257c7c76aa66518c0b157ec7a96c270aabcc13904cd5ca50b9efc0b2eb438b90100000000000000000000000000000000000000000000000000000000000000000000000000000000000000000000000000000000000000000000000000000000000000000000000000000000000000000000000000000000000000000000000000000000000000000000000000000000000000000000000000000000000000000000000000000000000000000000000000000000000000000000000000000000000000000000000000000000000000000000000000000000000000000000000000000000000000000000000000000000000000000000000000000000000000000000000000000000000000000000000000000000000000000000000000000000008302000001839896808306059b8203e880a00000000000000000000000000000000000000000000000000000000000000000880000000000000000f89ef89c800183061a808001b84f6000600060006000600073b000000000000000000000000000000000000000620493e0f2506000600060006000600073dea0000000000000000000000000000000000000620927c0f15060206000fd1ca015e2c1c5555b75f52975842c8d8fdeb4ca1593f0c9fd3f46f27e07645c502adba0773ea944d5cc37b9c973e625a19ca3008ac0566583efd290a1853a2226279538c0",
                "transactions" : [
                    {
                        "data" : "0x6000600060006000600073b000000000000000000000000000000000000000620493e0f2506000600060006000600073dea0000000000000000000000000000000000000620927c0f15060206000fd",
                        "gasLimit" : "0x061a80",
                        "gasPrice" : "0x01",
                        "nonce" : "0x00",
                        "r" : "0x15e2c1c5555b75f52975842c8d8fdeb4ca1593f0c9fd3f46f27e07645c502adb",
                        "s" : "0x773ea944d5cc37b9c973e625a19ca3008ac0566583efd290a1853a2226279538",
                        "to" : "",
                        "v" : "0x1c",
                        "value" : "0x01"
                    }
                ],
                "uncleHeaders" : [
                ]
            }
        ],
        "genesisBlockHeader" : {
            "bloom" : "0x00000000000000000000000000000000000000000000000000000000000000000000000000000000000000000000000000000000000000000000000000000000000000000000000000000000000000000000000000000000000000000000000000000000000000000000000000000000000000000000000000000000000000000000000000000000000000000000000000000000000000000000000000000000000000000000000000000000000000000000000000000000000000000000000000000000000000000000000000000000000000000000000000000000000000000000000000000000000000000000000000000000000000000000000000000000",
            "coinbase" : "0x2adc25665018aa1fe0e6bc666dac8fc2697ff9ba",
            "difficulty" : "0x020000",
            "extraData" : "0x42",
            "gasLimit" : "0x989680",
            "gasUsed" : "0x00",
            "hash" : "0xfb06b0e7afe157eb25f40310455966b774a2c4e6707472e2b2045f3a11acf543",
            "mixHash" : "0x56e81f171bcc55a6ff8345e692c0f86e5b48e01b996cadc001622fb5e363b421",
            "nonce" : "0x0102030405060708",
            "number" : "0x00",
            "parentHash" : "0x0000000000000000000000000000000000000000000000000000000000000000",
            "receiptTrie" : "0x56e81f171bcc55a6ff8345e692c0f86e5b48e01b996cadc001622fb5e363b421",
            "stateRoot" : "0xc1b299eee430ea2fb2ebb622081b43ad86add3e2330fc6b2d06b86ff81baaa68",
            "timestamp" : "0x03b6",
            "transactionsTrie" : "0x56e81f171bcc55a6ff8345e692c0f86e5b48e01b996cadc001622fb5e363b421",
            "uncleHash" : "0x1dcc4de8dec75d7aab85b567b6ccd41ad312451b948a7413f0a142fd40d49347"
        },
        "genesisRLP" : "0xf901faf901f5a00000000000000000000000000000000000000000000000000000000000000000a01dcc4de8dec75d7aab85b567b6ccd41ad312451b948a7413f0a142fd40d49347942adc25665018aa1fe0e6bc666dac8fc2697ff9baa0c1b299eee430ea2fb2ebb622081b43ad86add3e2330fc6b2d06b86ff81baaa68a056e81f171bcc55a6ff8345e692c0f86e5b48e01b996cadc001622fb5e363b421a056e81f171bcc55a6ff8345e692c0f86e5b48e01b996cadc001622fb5e363b421b9010000000000000000000000000000000000000000000000000000000000000000000000000000000000000000000000000000000000000000000000000000000000000000000000000000000000000000000000000000000000000000000000000000000000000000000000000000000000000000000000000000000000000000000000000000000000000000000000000000000000000000000000000000000000000000000000000000000000000000000000000000000000000000000000000000000000000000000000000000000000000000000000000000000000000000000000000000000000000000000000000000000000000000000000000000000000830200008083989680808203b642a056e81f171bcc55a6ff8345e692c0f86e5b48e01b996cadc001622fb5e363b421880102030405060708c0c0",
        "lastblockhash" : "0xfcbc50eaa6dd6ad1d78daa4a975a47cbd9e08a61a27baa33caba2ccbbe2e158c",
        "network" : "Constantinople",
        "postState" : {
            "0x2adc25665018aa1fe0e6bc666dac8fc2697ff9ba" : {
                "balance" : "0x1bc16d674ece059b",
                "code" : "0x",
                "nonce" : "0x00",
                "storage" : {
                }
            },
            "0xa94f5374fce5edbc8e2a8697c15331677e6ebf0b" : {
                "balance" : "0xe8d49f0a65",
                "code" : "0x",
                "nonce" : "0x01",
                "storage" : {
                }
            },
            "0xb000000000000000000000000000000000000000" : {
                "balance" : "0x00",
                "code" : "0x6000600155",
                "nonce" : "0x00",
                "storage" : {
                    "0x01" : "0x01"
                }
            },
            "0xc000000000000000000000000000000000000000" : {
                "balance" : "0x00",
                "code" : "0x6000600155",
                "nonce" : "0x00",
                "storage" : {
                    "0x01" : "0x01"
                }
            },
            "0xdea0000000000000000000000000000000000000" : {
                "balance" : "0x00",
                "code" : "0x6001600155600060015560016002556000600255600160035560006003556001600455600060045560016005556000600555600160065560006006556001600755600060075560016008556000600855600160095560006009556001600a556000600a556001600b556000600b556001600c556000600c556001600d556000600d556001600e556000600e556001600f556000600f55600160105560006010556001600155",
                "nonce" : "0x00",
                "storage" : {
                }
            }
        },
        "pre" : {
            "0xa94f5374fce5edbc8e2a8697c15331677e6ebf0b" : {
                "balance" : "0xe8d4a51000",
                "code" : "0x",
                "nonce" : "0x00",
                "storage" : {
                }
            },
            "0xb000000000000000000000000000000000000000" : {
                "balance" : "0x00",
                "code" : "0x6000600155",
                "nonce" : "0x00",
                "storage" : {
                    "0x01" : "0x01"
                }
            },
            "0xc000000000000000000000000000000000000000" : {
                "balance" : "0x00",
                "code" : "0x6000600155",
                "nonce" : "0x00",
                "storage" : {
                    "0x01" : "0x01"
                }
            },
            "0xdea0000000000000000000000000000000000000" : {
                "balance" : "0x00",
                "code" : "0x6001600155600060015560016002556000600255600160035560006003556001600455600060045560016005556000600555600160065560006006556001600755600060075560016008556000600855600160095560006009556001600a556000600a556001600b556000600b556001600c556000600c556001600d556000600d556001600e556000600e556001600f556000600f55600160105560006010556001600155",
                "nonce" : "0x00",
                "storage" : {
                }
            }
        },
        "sealEngine" : "NoProof"
    },
    "sstore_Xto0_d6g1v0_ConstantinopleFix" : {
        "_info" : {
            "comment" : "change X -> 0",
            "filledwith" : "testeth 1.7.0-alpha.1-21+commit.78355a28",
            "lllcversion" : "Version: 0.5.0-develop.2018.11.9+commit.9709dfe0.Linux.g++",
            "source" : "src/BlockchainTestsFiller/GeneralStateTests/stSStoreTest/sstore_Xto0_d6g1v0Filler.json",
            "sourceHash" : "0831d1533e7c5a76e4bed4966a564fb95156206aa0c7de66175ce4d5135dbeff"
        },
        "blocks" : [
            {
                "blockHeader" : {
                    "bloom" : "0x00000000000000000000000000000000000000000000000000000000000000000000000000000000000000000000000000000000000000000000000000000000000000000000000000000000000000000000000000000000000000000000000000000000000000000000000000000000000000000000000000000000000000000000000000000000000000000000000000000000000000000000000000000000000000000000000000000000000000000000000000000000000000000000000000000000000000000000000000000000000000000000000000000000000000000000000000000000000000000000000000000000000000000000000000000000",
                    "coinbase" : "0x2adc25665018aa1fe0e6bc666dac8fc2697ff9ba",
                    "difficulty" : "0x020000",
                    "extraData" : "0x",
                    "gasLimit" : "0x989680",
                    "gasUsed" : "0x0605e6",
                    "hash" : "0xc3894584647f678d74f78715eeb7d5b74dfb472528d117b80d68ebcb2c62fe48",
                    "mixHash" : "0x0000000000000000000000000000000000000000000000000000000000000000",
                    "nonce" : "0x0000000000000000",
                    "number" : "0x01",
                    "parentHash" : "0xfb06b0e7afe157eb25f40310455966b774a2c4e6707472e2b2045f3a11acf543",
                    "receiptTrie" : "0x375c5c70377b5544471dd707a07fa156aa9956933cb5d8d70d99344919d25b6c",
                    "stateRoot" : "0x2ba3e2c2b004e5f8c0a8093ac0e22caa13d3a5309290da8e54f5fbc5ded6d8d7",
                    "timestamp" : "0x03e8",
                    "transactionsTrie" : "0xb7188c6f06224f92efb460dcc0d8d6b0058ac923c78cd0ff98e8f5cbeda49248",
                    "uncleHash" : "0x1dcc4de8dec75d7aab85b567b6ccd41ad312451b948a7413f0a142fd40d49347"
                },
                "rlp" : "0xf9029cf901f8a0fb06b0e7afe157eb25f40310455966b774a2c4e6707472e2b2045f3a11acf543a01dcc4de8dec75d7aab85b567b6ccd41ad312451b948a7413f0a142fd40d49347942adc25665018aa1fe0e6bc666dac8fc2697ff9baa02ba3e2c2b004e5f8c0a8093ac0e22caa13d3a5309290da8e54f5fbc5ded6d8d7a0b7188c6f06224f92efb460dcc0d8d6b0058ac923c78cd0ff98e8f5cbeda49248a0375c5c70377b5544471dd707a07fa156aa9956933cb5d8d70d99344919d25b6cb9010000000000000000000000000000000000000000000000000000000000000000000000000000000000000000000000000000000000000000000000000000000000000000000000000000000000000000000000000000000000000000000000000000000000000000000000000000000000000000000000000000000000000000000000000000000000000000000000000000000000000000000000000000000000000000000000000000000000000000000000000000000000000000000000000000000000000000000000000000000000000000000000000000000000000000000000000000000000000000000000000000000000000000000000000000000000830200000183989680830605e68203e880a00000000000000000000000000000000000000000000000000000000000000000880000000000000000f89ef89c800183061a808001b84f6000600060006000600073b000000000000000000000000000000000000000620493e0f2506000600060006000600073dea0000000000000000000000000000000000000620927c0f15060206000fd1ca015e2c1c5555b75f52975842c8d8fdeb4ca1593f0c9fd3f46f27e07645c502adba0773ea944d5cc37b9c973e625a19ca3008ac0566583efd290a1853a2226279538c0",
                "transactions" : [
                    {
                        "data" : "0x6000600060006000600073b000000000000000000000000000000000000000620493e0f2506000600060006000600073dea0000000000000000000000000000000000000620927c0f15060206000fd",
                        "gasLimit" : "0x061a80",
                        "gasPrice" : "0x01",
                        "nonce" : "0x00",
                        "r" : "0x15e2c1c5555b75f52975842c8d8fdeb4ca1593f0c9fd3f46f27e07645c502adb",
                        "s" : "0x773ea944d5cc37b9c973e625a19ca3008ac0566583efd290a1853a2226279538",
                        "to" : "",
                        "v" : "0x1c",
                        "value" : "0x01"
                    }
                ],
                "uncleHeaders" : [
                ]
            }
        ],
        "genesisBlockHeader" : {
            "bloom" : "0x00000000000000000000000000000000000000000000000000000000000000000000000000000000000000000000000000000000000000000000000000000000000000000000000000000000000000000000000000000000000000000000000000000000000000000000000000000000000000000000000000000000000000000000000000000000000000000000000000000000000000000000000000000000000000000000000000000000000000000000000000000000000000000000000000000000000000000000000000000000000000000000000000000000000000000000000000000000000000000000000000000000000000000000000000000000",
            "coinbase" : "0x2adc25665018aa1fe0e6bc666dac8fc2697ff9ba",
            "difficulty" : "0x020000",
            "extraData" : "0x42",
            "gasLimit" : "0x989680",
            "gasUsed" : "0x00",
            "hash" : "0xfb06b0e7afe157eb25f40310455966b774a2c4e6707472e2b2045f3a11acf543",
            "mixHash" : "0x56e81f171bcc55a6ff8345e692c0f86e5b48e01b996cadc001622fb5e363b421",
            "nonce" : "0x0102030405060708",
            "number" : "0x00",
            "parentHash" : "0x0000000000000000000000000000000000000000000000000000000000000000",
            "receiptTrie" : "0x56e81f171bcc55a6ff8345e692c0f86e5b48e01b996cadc001622fb5e363b421",
            "stateRoot" : "0xc1b299eee430ea2fb2ebb622081b43ad86add3e2330fc6b2d06b86ff81baaa68",
            "timestamp" : "0x03b6",
            "transactionsTrie" : "0x56e81f171bcc55a6ff8345e692c0f86e5b48e01b996cadc001622fb5e363b421",
            "uncleHash" : "0x1dcc4de8dec75d7aab85b567b6ccd41ad312451b948a7413f0a142fd40d49347"
        },
        "genesisRLP" : "0xf901faf901f5a00000000000000000000000000000000000000000000000000000000000000000a01dcc4de8dec75d7aab85b567b6ccd41ad312451b948a7413f0a142fd40d49347942adc25665018aa1fe0e6bc666dac8fc2697ff9baa0c1b299eee430ea2fb2ebb622081b43ad86add3e2330fc6b2d06b86ff81baaa68a056e81f171bcc55a6ff8345e692c0f86e5b48e01b996cadc001622fb5e363b421a056e81f171bcc55a6ff8345e692c0f86e5b48e01b996cadc001622fb5e363b421b9010000000000000000000000000000000000000000000000000000000000000000000000000000000000000000000000000000000000000000000000000000000000000000000000000000000000000000000000000000000000000000000000000000000000000000000000000000000000000000000000000000000000000000000000000000000000000000000000000000000000000000000000000000000000000000000000000000000000000000000000000000000000000000000000000000000000000000000000000000000000000000000000000000000000000000000000000000000000000000000000000000000000000000000000000000000000830200008083989680808203b642a056e81f171bcc55a6ff8345e692c0f86e5b48e01b996cadc001622fb5e363b421880102030405060708c0c0",
        "lastblockhash" : "0xc3894584647f678d74f78715eeb7d5b74dfb472528d117b80d68ebcb2c62fe48",
        "network" : "ConstantinopleFix",
        "postState" : {
            "0x2adc25665018aa1fe0e6bc666dac8fc2697ff9ba" : {
                "balance" : "0x1bc16d674ece05e6",
                "code" : "0x",
                "nonce" : "0x00",
                "storage" : {
                }
            },
            "0xa94f5374fce5edbc8e2a8697c15331677e6ebf0b" : {
                "balance" : "0xe8d49f0a1a",
                "code" : "0x",
                "nonce" : "0x01",
                "storage" : {
                }
            },
            "0xb000000000000000000000000000000000000000" : {
                "balance" : "0x00",
                "code" : "0x6000600155",
                "nonce" : "0x00",
                "storage" : {
                    "0x01" : "0x01"
                }
            },
            "0xc000000000000000000000000000000000000000" : {
                "balance" : "0x00",
                "code" : "0x6000600155",
                "nonce" : "0x00",
                "storage" : {
                    "0x01" : "0x01"
                }
            },
            "0xdea0000000000000000000000000000000000000" : {
                "balance" : "0x00",
                "code" : "0x6001600155600060015560016002556000600255600160035560006003556001600455600060045560016005556000600555600160065560006006556001600755600060075560016008556000600855600160095560006009556001600a556000600a556001600b556000600b556001600c556000600c556001600d556000600d556001600e556000600e556001600f556000600f55600160105560006010556001600155",
                "nonce" : "0x00",
                "storage" : {
                }
            }
        },
        "pre" : {
            "0xa94f5374fce5edbc8e2a8697c15331677e6ebf0b" : {
                "balance" : "0xe8d4a51000",
                "code" : "0x",
                "nonce" : "0x00",
                "storage" : {
                }
            },
            "0xb000000000000000000000000000000000000000" : {
                "balance" : "0x00",
                "code" : "0x6000600155",
                "nonce" : "0x00",
                "storage" : {
                    "0x01" : "0x01"
                }
            },
            "0xc000000000000000000000000000000000000000" : {
                "balance" : "0x00",
                "code" : "0x6000600155",
                "nonce" : "0x00",
                "storage" : {
                    "0x01" : "0x01"
                }
            },
            "0xdea0000000000000000000000000000000000000" : {
                "balance" : "0x00",
                "code" : "0x6001600155600060015560016002556000600255600160035560006003556001600455600060045560016005556000600555600160065560006006556001600755600060075560016008556000600855600160095560006009556001600a556000600a556001600b556000600b556001600c556000600c556001600d556000600d556001600e556000600e556001600f556000600f55600160105560006010556001600155",
                "nonce" : "0x00",
                "storage" : {
                }
            }
        },
        "sealEngine" : "NoProof"
    }
}