{
    "StaticcallToPrecompileFromCalledContract_d0g0v0_Berlin" : {
        "_info" : {
            "comment" : "STATICCALL to precompiled contracts from contract that called from another contract.\nIt should execute successfully for each precompiled contract.\n",
            "filling-rpc-server" : "evm version 1.10.4-unstable-966ee3ae-20210528",
            "filling-tool-version" : "retesteth-0.1.1-eip1559+commit.658fc3a8.Linux.g++",
            "lllcversion" : "Version: 0.5.14-develop.2021.5.18+commit.14c9d5de.mod.Linux.g++",
            "source" : "src/GeneralStateTestsFiller/stStaticCall/StaticcallToPrecompileFromCalledContractFiller.yml",
            "sourceHash" : "44f12e1b6591237b0782d6367ba2d813ebf614962fc730d55f253732fe10281d"
        },
        "genesisBlockHeader" : {
            "bloom" : "0x00000000000000000000000000000000000000000000000000000000000000000000000000000000000000000000000000000000000000000000000000000000000000000000000000000000000000000000000000000000000000000000000000000000000000000000000000000000000000000000000000000000000000000000000000000000000000000000000000000000000000000000000000000000000000000000000000000000000000000000000000000000000000000000000000000000000000000000000000000000000000000000000000000000000000000000000000000000000000000000000000000000000000000000000000000000",
            "coinbase" : "0xcafe000000000000000000000000000000000001",
            "difficulty" : "0x020000",
            "extraData" : "0x00",
            "gasLimit" : "0x989680",
            "gasUsed" : "0x00",
            "hash" : "0xd044aa6791ac479fbd45ae924c00f6b5cf4200d740022932e3d2e5fa5efa7a45",
            "mixHash" : "0x0000000000000000000000000000000000000000000000000000000000000000",
            "nonce" : "0x0000000000000000",
            "number" : "0x00",
            "parentHash" : "0x0000000000000000000000000000000000000000000000000000000000000000",
            "receiptTrie" : "0x56e81f171bcc55a6ff8345e692c0f86e5b48e01b996cadc001622fb5e363b421",
            "stateRoot" : "0xc1ebe52549d18927aef1ae8371ad65ec16d30c8837a0b8edb555bc358e612cad",
            "timestamp" : "0x00",
            "transactionsTrie" : "0x56e81f171bcc55a6ff8345e692c0f86e5b48e01b996cadc001622fb5e363b421",
            "uncleHash" : "0x1dcc4de8dec75d7aab85b567b6ccd41ad312451b948a7413f0a142fd40d49347"
        },
        "pre" : {
            "0xa000000000000000000000000000000000000000" : {
                "balance" : "0x00",
                "code" : "0x7f18c547e4f7b0f325ad1e56f57e26c745b09a3e503d86e00e5255ff7f715d3d1c600052601c6020527f73b1693892219d736caba55bdb67216e485557ea6b6af75f37096c9aa6a5a75f6040527feeb940b1d03b21e36b0e47e79769f095fe2ab855bd91e3a38756b7d75a9c454960605260206103e86080600060015afa60005560a060020a6103e851066001556001543214600255600060005260006020526000604052600060605260006103e8527c0ccccccccccccccccccccccccccccccccccccccccccccccccccc00000060005260206103e86020600060025afa6003556000516004556103e851600555600060005260006103e8527c0ccccccccccccccccccccccccccccccccccccccccccccccccccc00000060005260206103e86020600060035afa6006556000516007556103e851600855600060005260006103e8527c0ccccccccccccccccccccccccccccccccccccccccccccccccccc00000060005260206103e86020600060045afa6009556103e851601055600060005260006103e8526001600052602060205260206040527f03fffffffffffffffffffffffffffffffffffffffffffffffffffffffefffffc6060527f2efffffffffffffffffffffffffffffffffffffffffffffffffffffffefffffc6080527f2f0000000000000000000000000000000000000000000000000000000000000060a05260206103e860a1600060055afa6011556103e85160125560006000526000602052600060405260006060526000608052600060a05260006103e8527f0f25929bcb43d5a57391564615c9e70a992b10eafa4db109709649cf48c50dd26000527f16da2f5cb6be7a0aa72c440c53c9bbdfec6c36c7d515536431b3a865468acbba6020527f1de49a4b0233273bba8146af82042d004f2085ec982397db0d97da17204cc2866040527f0217327ffc463919bef80cc166d09c6172639d8589799928761bcd9f22c903d460605260406103e86080600060065afa6013556103e85160145561040851601555600060005260006020526000604052600060605260006103e8526000610408527f0f25929bcb43d5a57391564615c9e70a992b10eafa4db109709649cf48c50dd26000527f16da2f5cb6be7a0aa72c440c53c9bbdfec6c36c7d515536431b3a865468acbba602052600360405260406103e86060600060075afa6016556103e8516017556104085160185560006000526000602052600060405260006103e8526000610408527f1c76476f4def4bb94541d57ebba1193381ffa7aa76ada664dd31c16024c43f596000527f3034dd2920f673e204fee2811c678745fc819b55d3e9d294e45c9b03a76aef416020527f209dd15ebff5d46c4bd888e51a93cf99a7329636c63514396b4a452003a35bf76040527f04bf11ca01483bfa8b34b43561848d28905960114c8ac04049af4b6315a416786060527f2bb8324af6cfc93537a2ad1a445cfd0ca2a71acd7ac41fadbf933c2a51be344d6080527f120a2a4cf30c1bf9845f20c6fe39e07ea2cce61f0c9bb048165fe5e4de87755060a0527f111e129f1cf1097710d41c4ac70fcdfa5ba2023c6ff1cbeac322de49d1b6df7c60c0527f2032c61a830e3c17286de9462bf242fca2883585b93870a73853face6a6bf41160e0527f198e9393920d483a7260bfb731fb5d25f1aa493335a9e71297e485b7aef312c2610100527f1800deef121f1e76426a00665e5c4479674322d4f75edadd46debd5cd992f6ed610120527f090689d0585ff075ec9e99ad690c3395bc4b313370b38ef355acdadcd122975b610140527f12c85ea5db8c6deb4aab71808dcb408fe3d1e7690c43d37b4ce6cc0166fa7daa6101605260206103e8610180600060085afa6019556103e85160205500",
                "nonce" : "0x00",
                "storage" : {
                }
            },
            "0xa94f5374fce5edbc8e2a8697c15331677e6ebf0b" : {
                "balance" : "0x0de0b6b3a7640000",
                "code" : "0x",
                "nonce" : "0x00",
                "storage" : {
                }
            },
            "0xb000000000000000000000000000000000000000" : {
                "balance" : "0x00",
                "code" : "0x6000600060006000600073a0000000000000000000000000000000000000005af160005500",
                "nonce" : "0x00",
                "storage" : {
                }
            }
        },
        "postState" : {
            "0xa000000000000000000000000000000000000000" : {
                "code" : "0x7f18c547e4f7b0f325ad1e56f57e26c745b09a3e503d86e00e5255ff7f715d3d1c600052601c6020527f73b1693892219d736caba55bdb67216e485557ea6b6af75f37096c9aa6a5a75f6040527feeb940b1d03b21e36b0e47e79769f095fe2ab855bd91e3a38756b7d75a9c454960605260206103e86080600060015afa60005560a060020a6103e851066001556001543214600255600060005260006020526000604052600060605260006103e8527c0ccccccccccccccccccccccccccccccccccccccccccccccccccc00000060005260206103e86020600060025afa6003556000516004556103e851600555600060005260006103e8527c0ccccccccccccccccccccccccccccccccccccccccccccccccccc00000060005260206103e86020600060035afa6006556000516007556103e851600855600060005260006103e8527c0ccccccccccccccccccccccccccccccccccccccccccccccccccc00000060005260206103e86020600060045afa6009556103e851601055600060005260006103e8526001600052602060205260206040527f03fffffffffffffffffffffffffffffffffffffffffffffffffffffffefffffc6060527f2efffffffffffffffffffffffffffffffffffffffffffffffffffffffefffffc6080527f2f0000000000000000000000000000000000000000000000000000000000000060a05260206103e860a1600060055afa6011556103e85160125560006000526000602052600060405260006060526000608052600060a05260006103e8527f0f25929bcb43d5a57391564615c9e70a992b10eafa4db109709649cf48c50dd26000527f16da2f5cb6be7a0aa72c440c53c9bbdfec6c36c7d515536431b3a865468acbba6020527f1de49a4b0233273bba8146af82042d004f2085ec982397db0d97da17204cc2866040527f0217327ffc463919bef80cc166d09c6172639d8589799928761bcd9f22c903d460605260406103e86080600060065afa6013556103e85160145561040851601555600060005260006020526000604052600060605260006103e8526000610408527f0f25929bcb43d5a57391564615c9e70a992b10eafa4db109709649cf48c50dd26000527f16da2f5cb6be7a0aa72c440c53c9bbdfec6c36c7d515536431b3a865468acbba602052600360405260406103e86060600060075afa6016556103e8516017556104085160185560006000526000602052600060405260006103e8526000610408527f1c76476f4def4bb94541d57ebba1193381ffa7aa76ada664dd31c16024c43f596000527f3034dd2920f673e204fee2811c678745fc819b55d3e9d294e45c9b03a76aef416020527f209dd15ebff5d46c4bd888e51a93cf99a7329636c63514396b4a452003a35bf76040527f04bf11ca01483bfa8b34b43561848d28905960114c8ac04049af4b6315a416786060527f2bb8324af6cfc93537a2ad1a445cfd0ca2a71acd7ac41fadbf933c2a51be344d6080527f120a2a4cf30c1bf9845f20c6fe39e07ea2cce61f0c9bb048165fe5e4de87755060a0527f111e129f1cf1097710d41c4ac70fcdfa5ba2023c6ff1cbeac322de49d1b6df7c60c0527f2032c61a830e3c17286de9462bf242fca2883585b93870a73853face6a6bf41160e0527f198e9393920d483a7260bfb731fb5d25f1aa493335a9e71297e485b7aef312c2610100527f1800deef121f1e76426a00665e5c4479674322d4f75edadd46debd5cd992f6ed610120527f090689d0585ff075ec9e99ad690c3395bc4b313370b38ef355acdadcd122975b610140527f12c85ea5db8c6deb4aab71808dcb408fe3d1e7690c43d37b4ce6cc0166fa7daa6101605260206103e8610180600060085afa6019556103e85160205500",
                "nonce" : "0x00",
                "balance" : "0x00",
                "storage" : {
                    "0x00" : "0x01",
                    "0x01" : "0xa94f5374fce5edbc8e2a8697c15331677e6ebf0b",
                    "0x02" : "0x01",
                    "0x03" : "0x01",
                    "0x04" : "0x0ccccccccccccccccccccccccccccccccccccccccccccccccccc000000",
                    "0x05" : "0x73f5062fb68ed2a1ec82ff8c73f9251bb9cf53a623bc93527e16bc5ae29dad74",
                    "0x06" : "0x01",
                    "0x07" : "0x0ccccccccccccccccccccccccccccccccccccccccccccccccccc000000",
                    "0x08" : "0x14ef238cfa4075e9ede92f18b1566c1dd0b99aaa",
                    "0x09" : "0x01",
                    "0x10" : "0x0ccccccccccccccccccccccccccccccccccccccccccccccccccc000000",
                    "0x11" : "0x01",
                    "0x12" : "0x01",
                    "0x13" : "0x01",
                    "0x14" : "0x1f4d1d80177b1377743d1901f70d7389be7f7a35a35bfd234a8aaee615b88c49",
                    "0x15" : "0x018683193ae021a2f8920fed186cde5d9b1365116865281ccf884c1f28b1df8f",
                    "0x16" : "0x01",
                    "0x17" : "0x1f4d1d80177b1377743d1901f70d7389be7f7a35a35bfd234a8aaee615b88c49",
                    "0x18" : "0x018683193ae021a2f8920fed186cde5d9b1365116865281ccf884c1f28b1df8f",
                    "0x19" : "0x01",
                    "0x20" : "0x01"
                }
            },
            "0xa94f5374fce5edbc8e2a8697c15331677e6ebf0b" : {
                "code" : "0x",
                "nonce" : "0x01",
                "balance" : "0x0de0b6b3a702f210",
                "storage" : {
                }
            },
            "0xb000000000000000000000000000000000000000" : {
                "code" : "0x6000600060006000600073a0000000000000000000000000000000000000005af160005500",
                "nonce" : "0x00",
                "balance" : "0x64",
                "storage" : {
                    "0x00" : "0x01"
                }
            },
            "0xcafe000000000000000000000000000000000001" : {
                "code" : "0x",
                "nonce" : "0x00",
                "balance" : "0x1bc16d674f290d8c",
                "storage" : {
                }
            }
        },
        "network" : "Berlin",
        "sealEngine" : "NoProof",
        "lastblockhash" : "0xe2a3ef21d311929dbe939cf2fe6aac9a02c12a397dc7fbbc757ae1328df97c89",
        "genesisRLP" : "0xf901f8f901f3a00000000000000000000000000000000000000000000000000000000000000000a01dcc4de8dec75d7aab85b567b6ccd41ad312451b948a7413f0a142fd40d4934794cafe000000000000000000000000000000000001a0c1ebe52549d18927aef1ae8371ad65ec16d30c8837a0b8edb555bc358e612cada056e81f171bcc55a6ff8345e692c0f86e5b48e01b996cadc001622fb5e363b421a056e81f171bcc55a6ff8345e692c0f86e5b48e01b996cadc001622fb5e363b421b9010000000000000000000000000000000000000000000000000000000000000000000000000000000000000000000000000000000000000000000000000000000000000000000000000000000000000000000000000000000000000000000000000000000000000000000000000000000000000000000000000000000000000000000000000000000000000000000000000000000000000000000000000000000000000000000000000000000000000000000000000000000000000000000000000000000000000000000000000000000000000000000000000000000000000000000000000000000000000000000000000000000000000000000000000000000000830200008083989680808000a00000000000000000000000000000000000000000000000000000000000000000880000000000000000c0c0",
        "blocks" : [
            {
                "rlp" : "0xf90260f901f8a0d044aa6791ac479fbd45ae924c00f6b5cf4200d740022932e3d2e5fa5efa7a45a01dcc4de8dec75d7aab85b567b6ccd41ad312451b948a7413f0a142fd40d4934794cafe000000000000000000000000000000000001a06e50acd49e1d631e1dc6354df53b65ca292b38832bb6e1221c4cf66584dd4ecaa0729d9b22d576bee997d44605c9e22b4a338cc6b9fb7941de09ff792cf4b698c7a022aa1eeb7774344dc5a706157d5e9512da078f28631af8b0a0c6547ba8d39cffb90100000000000000000000000000000000000000000000000000000000000000000000000000000000000000000000000000000000000000000000000000000000000000000000000000000000000000000000000000000000000000000000000000000000000000000000000000000000000000000000000000000000000000000000000000000000000000000000000000000000000000000000000000000000000000000000000000000000000000000000000000000000000000000000000000000000000000000000000000000000000000000000000000000000000000000000000000000000000000000000000000000000000000000000000000000000008302000001839896808309b48e8203e800a00000000000000000000000000000000000000000000000000000000000000000880000000000000000f862f860800a830f424094b00000000000000000000000000000000000000064801ca06c84a6619cb4f711d3808c41a0e9bee89be8170a390fc954d6c7364bce2afb37a00ab3b0cc9c619f89be0bb583d4b45d7ce2fde910b407b2b23157502fa4f89af6c0",
                "blockHeader" : {
                    "bloom" : "0x00000000000000000000000000000000000000000000000000000000000000000000000000000000000000000000000000000000000000000000000000000000000000000000000000000000000000000000000000000000000000000000000000000000000000000000000000000000000000000000000000000000000000000000000000000000000000000000000000000000000000000000000000000000000000000000000000000000000000000000000000000000000000000000000000000000000000000000000000000000000000000000000000000000000000000000000000000000000000000000000000000000000000000000000000000000",
                    "coinbase" : "0xcafe000000000000000000000000000000000001",
                    "difficulty" : "0x020000",
                    "extraData" : "0x00",
                    "gasLimit" : "0x989680",
                    "gasUsed" : "0x09b48e",
                    "hash" : "0xe2a3ef21d311929dbe939cf2fe6aac9a02c12a397dc7fbbc757ae1328df97c89",
                    "mixHash" : "0x0000000000000000000000000000000000000000000000000000000000000000",
                    "nonce" : "0x0000000000000000",
                    "number" : "0x01",
                    "parentHash" : "0xd044aa6791ac479fbd45ae924c00f6b5cf4200d740022932e3d2e5fa5efa7a45",
                    "receiptTrie" : "0x22aa1eeb7774344dc5a706157d5e9512da078f28631af8b0a0c6547ba8d39cff",
                    "stateRoot" : "0x6e50acd49e1d631e1dc6354df53b65ca292b38832bb6e1221c4cf66584dd4eca",
                    "timestamp" : "0x03e8",
                    "transactionsTrie" : "0x729d9b22d576bee997d44605c9e22b4a338cc6b9fb7941de09ff792cf4b698c7",
                    "uncleHash" : "0x1dcc4de8dec75d7aab85b567b6ccd41ad312451b948a7413f0a142fd40d49347"
                },
                "transactions" : [
                    {
                        "data" : "0x",
                        "gasLimit" : "0x0f4240",
                        "gasPrice" : "0x0a",
                        "nonce" : "0x00",
                        "to" : "0xb000000000000000000000000000000000000000",
                        "value" : "0x64",
                        "v" : "0x1c",
                        "r" : "0x6c84a6619cb4f711d3808c41a0e9bee89be8170a390fc954d6c7364bce2afb37",
                        "s" : "0x0ab3b0cc9c619f89be0bb583d4b45d7ce2fde910b407b2b23157502fa4f89af6"
                    }
                ],
                "uncleHeaders" : [
                ]
            }
        ]
    },
    "StaticcallToPrecompileFromCalledContract_d0g0v0_Istanbul" : {
        "_info" : {
            "comment" : "STATICCALL to precompiled contracts from contract that called from another contract.\nIt should execute successfully for each precompiled contract.\n",
            "filling-rpc-server" : "evm version 1.10.4-unstable-966ee3ae-20210528",
            "filling-tool-version" : "retesteth-0.1.1-eip1559+commit.658fc3a8.Linux.g++",
            "lllcversion" : "Version: 0.5.14-develop.2021.5.18+commit.14c9d5de.mod.Linux.g++",
            "source" : "src/GeneralStateTestsFiller/stStaticCall/StaticcallToPrecompileFromCalledContractFiller.yml",
            "sourceHash" : "44f12e1b6591237b0782d6367ba2d813ebf614962fc730d55f253732fe10281d"
        },
        "genesisBlockHeader" : {
            "bloom" : "0x00000000000000000000000000000000000000000000000000000000000000000000000000000000000000000000000000000000000000000000000000000000000000000000000000000000000000000000000000000000000000000000000000000000000000000000000000000000000000000000000000000000000000000000000000000000000000000000000000000000000000000000000000000000000000000000000000000000000000000000000000000000000000000000000000000000000000000000000000000000000000000000000000000000000000000000000000000000000000000000000000000000000000000000000000000000",
            "coinbase" : "0xcafe000000000000000000000000000000000001",
            "difficulty" : "0x020000",
            "extraData" : "0x00",
            "gasLimit" : "0x989680",
            "gasUsed" : "0x00",
            "hash" : "0xd044aa6791ac479fbd45ae924c00f6b5cf4200d740022932e3d2e5fa5efa7a45",
            "mixHash" : "0x0000000000000000000000000000000000000000000000000000000000000000",
            "nonce" : "0x0000000000000000",
            "number" : "0x00",
            "parentHash" : "0x0000000000000000000000000000000000000000000000000000000000000000",
            "receiptTrie" : "0x56e81f171bcc55a6ff8345e692c0f86e5b48e01b996cadc001622fb5e363b421",
            "stateRoot" : "0xc1ebe52549d18927aef1ae8371ad65ec16d30c8837a0b8edb555bc358e612cad",
            "timestamp" : "0x00",
            "transactionsTrie" : "0x56e81f171bcc55a6ff8345e692c0f86e5b48e01b996cadc001622fb5e363b421",
            "uncleHash" : "0x1dcc4de8dec75d7aab85b567b6ccd41ad312451b948a7413f0a142fd40d49347"
        },
        "pre" : {
            "0xa000000000000000000000000000000000000000" : {
                "balance" : "0x00",
                "code" : "0x7f18c547e4f7b0f325ad1e56f57e26c745b09a3e503d86e00e5255ff7f715d3d1c600052601c6020527f73b1693892219d736caba55bdb67216e485557ea6b6af75f37096c9aa6a5a75f6040527feeb940b1d03b21e36b0e47e79769f095fe2ab855bd91e3a38756b7d75a9c454960605260206103e86080600060015afa60005560a060020a6103e851066001556001543214600255600060005260006020526000604052600060605260006103e8527c0ccccccccccccccccccccccccccccccccccccccccccccccccccc00000060005260206103e86020600060025afa6003556000516004556103e851600555600060005260006103e8527c0ccccccccccccccccccccccccccccccccccccccccccccccccccc00000060005260206103e86020600060035afa6006556000516007556103e851600855600060005260006103e8527c0ccccccccccccccccccccccccccccccccccccccccccccccccccc00000060005260206103e86020600060045afa6009556103e851601055600060005260006103e8526001600052602060205260206040527f03fffffffffffffffffffffffffffffffffffffffffffffffffffffffefffffc6060527f2efffffffffffffffffffffffffffffffffffffffffffffffffffffffefffffc6080527f2f0000000000000000000000000000000000000000000000000000000000000060a05260206103e860a1600060055afa6011556103e85160125560006000526000602052600060405260006060526000608052600060a05260006103e8527f0f25929bcb43d5a57391564615c9e70a992b10eafa4db109709649cf48c50dd26000527f16da2f5cb6be7a0aa72c440c53c9bbdfec6c36c7d515536431b3a865468acbba6020527f1de49a4b0233273bba8146af82042d004f2085ec982397db0d97da17204cc2866040527f0217327ffc463919bef80cc166d09c6172639d8589799928761bcd9f22c903d460605260406103e86080600060065afa6013556103e85160145561040851601555600060005260006020526000604052600060605260006103e8526000610408527f0f25929bcb43d5a57391564615c9e70a992b10eafa4db109709649cf48c50dd26000527f16da2f5cb6be7a0aa72c440c53c9bbdfec6c36c7d515536431b3a865468acbba602052600360405260406103e86060600060075afa6016556103e8516017556104085160185560006000526000602052600060405260006103e8526000610408527f1c76476f4def4bb94541d57ebba1193381ffa7aa76ada664dd31c16024c43f596000527f3034dd2920f673e204fee2811c678745fc819b55d3e9d294e45c9b03a76aef416020527f209dd15ebff5d46c4bd888e51a93cf99a7329636c63514396b4a452003a35bf76040527f04bf11ca01483bfa8b34b43561848d28905960114c8ac04049af4b6315a416786060527f2bb8324af6cfc93537a2ad1a445cfd0ca2a71acd7ac41fadbf933c2a51be344d6080527f120a2a4cf30c1bf9845f20c6fe39e07ea2cce61f0c9bb048165fe5e4de87755060a0527f111e129f1cf1097710d41c4ac70fcdfa5ba2023c6ff1cbeac322de49d1b6df7c60c0527f2032c61a830e3c17286de9462bf242fca2883585b93870a73853face6a6bf41160e0527f198e9393920d483a7260bfb731fb5d25f1aa493335a9e71297e485b7aef312c2610100527f1800deef121f1e76426a00665e5c4479674322d4f75edadd46debd5cd992f6ed610120527f090689d0585ff075ec9e99ad690c3395bc4b313370b38ef355acdadcd122975b610140527f12c85ea5db8c6deb4aab71808dcb408fe3d1e7690c43d37b4ce6cc0166fa7daa6101605260206103e8610180600060085afa6019556103e85160205500",
                "nonce" : "0x00",
                "storage" : {
                }
            },
            "0xa94f5374fce5edbc8e2a8697c15331677e6ebf0b" : {
                "balance" : "0x0de0b6b3a7640000",
                "code" : "0x",
                "nonce" : "0x00",
                "storage" : {
                }
            },
            "0xb000000000000000000000000000000000000000" : {
                "balance" : "0x00",
                "code" : "0x6000600060006000600073a0000000000000000000000000000000000000005af160005500",
                "nonce" : "0x00",
                "storage" : {
                }
            }
        },
        "postState" : {
            "0xa000000000000000000000000000000000000000" : {
                "code" : "0x7f18c547e4f7b0f325ad1e56f57e26c745b09a3e503d86e00e5255ff7f715d3d1c600052601c6020527f73b1693892219d736caba55bdb67216e485557ea6b6af75f37096c9aa6a5a75f6040527feeb940b1d03b21e36b0e47e79769f095fe2ab855bd91e3a38756b7d75a9c454960605260206103e86080600060015afa60005560a060020a6103e851066001556001543214600255600060005260006020526000604052600060605260006103e8527c0ccccccccccccccccccccccccccccccccccccccccccccccccccc00000060005260206103e86020600060025afa6003556000516004556103e851600555600060005260006103e8527c0ccccccccccccccccccccccccccccccccccccccccccccccccccc00000060005260206103e86020600060035afa6006556000516007556103e851600855600060005260006103e8527c0ccccccccccccccccccccccccccccccccccccccccccccccccccc00000060005260206103e86020600060045afa6009556103e851601055600060005260006103e8526001600052602060205260206040527f03fffffffffffffffffffffffffffffffffffffffffffffffffffffffefffffc6060527f2efffffffffffffffffffffffffffffffffffffffffffffffffffffffefffffc6080527f2f0000000000000000000000000000000000000000000000000000000000000060a05260206103e860a1600060055afa6011556103e85160125560006000526000602052600060405260006060526000608052600060a05260006103e8527f0f25929bcb43d5a57391564615c9e70a992b10eafa4db109709649cf48c50dd26000527f16da2f5cb6be7a0aa72c440c53c9bbdfec6c36c7d515536431b3a865468acbba6020527f1de49a4b0233273bba8146af82042d004f2085ec982397db0d97da17204cc2866040527f0217327ffc463919bef80cc166d09c6172639d8589799928761bcd9f22c903d460605260406103e86080600060065afa6013556103e85160145561040851601555600060005260006020526000604052600060605260006103e8526000610408527f0f25929bcb43d5a57391564615c9e70a992b10eafa4db109709649cf48c50dd26000527f16da2f5cb6be7a0aa72c440c53c9bbdfec6c36c7d515536431b3a865468acbba602052600360405260406103e86060600060075afa6016556103e8516017556104085160185560006000526000602052600060405260006103e8526000610408527f1c76476f4def4bb94541d57ebba1193381ffa7aa76ada664dd31c16024c43f596000527f3034dd2920f673e204fee2811c678745fc819b55d3e9d294e45c9b03a76aef416020527f209dd15ebff5d46c4bd888e51a93cf99a7329636c63514396b4a452003a35bf76040527f04bf11ca01483bfa8b34b43561848d28905960114c8ac04049af4b6315a416786060527f2bb8324af6cfc93537a2ad1a445cfd0ca2a71acd7ac41fadbf933c2a51be344d6080527f120a2a4cf30c1bf9845f20c6fe39e07ea2cce61f0c9bb048165fe5e4de87755060a0527f111e129f1cf1097710d41c4ac70fcdfa5ba2023c6ff1cbeac322de49d1b6df7c60c0527f2032c61a830e3c17286de9462bf242fca2883585b93870a73853face6a6bf41160e0527f198e9393920d483a7260bfb731fb5d25f1aa493335a9e71297e485b7aef312c2610100527f1800deef121f1e76426a00665e5c4479674322d4f75edadd46debd5cd992f6ed610120527f090689d0585ff075ec9e99ad690c3395bc4b313370b38ef355acdadcd122975b610140527f12c85ea5db8c6deb4aab71808dcb408fe3d1e7690c43d37b4ce6cc0166fa7daa6101605260206103e8610180600060085afa6019556103e85160205500",
                "nonce" : "0x00",
                "balance" : "0x00",
                "storage" : {
                    "0x00" : "0x01",
                    "0x01" : "0xa94f5374fce5edbc8e2a8697c15331677e6ebf0b",
                    "0x02" : "0x01",
                    "0x03" : "0x01",
                    "0x04" : "0x0ccccccccccccccccccccccccccccccccccccccccccccccccccc000000",
                    "0x05" : "0x73f5062fb68ed2a1ec82ff8c73f9251bb9cf53a623bc93527e16bc5ae29dad74",
                    "0x06" : "0x01",
                    "0x07" : "0x0ccccccccccccccccccccccccccccccccccccccccccccccccccc000000",
                    "0x08" : "0x14ef238cfa4075e9ede92f18b1566c1dd0b99aaa",
                    "0x09" : "0x01",
                    "0x10" : "0x0ccccccccccccccccccccccccccccccccccccccccccccccccccc000000",
                    "0x11" : "0x01",
                    "0x12" : "0x01",
                    "0x13" : "0x01",
                    "0x14" : "0x1f4d1d80177b1377743d1901f70d7389be7f7a35a35bfd234a8aaee615b88c49",
                    "0x15" : "0x018683193ae021a2f8920fed186cde5d9b1365116865281ccf884c1f28b1df8f",
                    "0x16" : "0x01",
                    "0x17" : "0x1f4d1d80177b1377743d1901f70d7389be7f7a35a35bfd234a8aaee615b88c49",
                    "0x18" : "0x018683193ae021a2f8920fed186cde5d9b1365116865281ccf884c1f28b1df8f",
                    "0x19" : "0x01",
                    "0x20" : "0x01"
                }
            },
            "0xa94f5374fce5edbc8e2a8697c15331677e6ebf0b" : {
                "code" : "0x",
                "nonce" : "0x01",
                "balance" : "0x0de0b6b3a707a940",
                "storage" : {
                }
            },
            "0xb000000000000000000000000000000000000000" : {
                "code" : "0x6000600060006000600073a0000000000000000000000000000000000000005af160005500",
                "nonce" : "0x00",
                "balance" : "0x64",
                "storage" : {
                    "0x00" : "0x01"
                }
            },
            "0xcafe000000000000000000000000000000000001" : {
                "code" : "0x",
                "nonce" : "0x00",
                "balance" : "0x1bc16d674f24565c",
                "storage" : {
                }
            }
        },
        "network" : "Istanbul",
        "sealEngine" : "NoProof",
        "lastblockhash" : "0xd81cd5ceee4f015de511edfa5d0674a23e08859e53e3a172585f3e6369787d8b",
        "genesisRLP" : "0xf901f8f901f3a00000000000000000000000000000000000000000000000000000000000000000a01dcc4de8dec75d7aab85b567b6ccd41ad312451b948a7413f0a142fd40d4934794cafe000000000000000000000000000000000001a0c1ebe52549d18927aef1ae8371ad65ec16d30c8837a0b8edb555bc358e612cada056e81f171bcc55a6ff8345e692c0f86e5b48e01b996cadc001622fb5e363b421a056e81f171bcc55a6ff8345e692c0f86e5b48e01b996cadc001622fb5e363b421b9010000000000000000000000000000000000000000000000000000000000000000000000000000000000000000000000000000000000000000000000000000000000000000000000000000000000000000000000000000000000000000000000000000000000000000000000000000000000000000000000000000000000000000000000000000000000000000000000000000000000000000000000000000000000000000000000000000000000000000000000000000000000000000000000000000000000000000000000000000000000000000000000000000000000000000000000000000000000000000000000000000000000000000000000000000000000830200008083989680808000a00000000000000000000000000000000000000000000000000000000000000000880000000000000000c0c0",
        "blocks" : [
            {
                "rlp" : "0xf90260f901f8a0d044aa6791ac479fbd45ae924c00f6b5cf4200d740022932e3d2e5fa5efa7a45a01dcc4de8dec75d7aab85b567b6ccd41ad312451b948a7413f0a142fd40d4934794cafe000000000000000000000000000000000001a0124a967c1c98311b9005983cde749f44b9270c396dab28f2b4ae998b4d52d3bba0729d9b22d576bee997d44605c9e22b4a338cc6b9fb7941de09ff792cf4b698c7a0a8ea0a3247700b16303e19908bad6cce4809ae5949ae4000b12ee3b4ef98168eb901000000000000000000000000000000000000000000000000000000000000000000000000000000000000000000000000000000000000000000000000000000000000000000000000000000000000000000000000000000000000000000000000000000000000000000000000000000000000000000000000000000000000000000000000000000000000000000000000000000000000000000000000000000000000000000000000000000000000000000000000000000000000000000000000000000000000000000000000000000000000000000000000000000000000000000000000000000000000000000000000000000000000000000000000000000000083020000018398968083093bd68203e800a00000000000000000000000000000000000000000000000000000000000000000880000000000000000f862f860800a830f424094b00000000000000000000000000000000000000064801ca06c84a6619cb4f711d3808c41a0e9bee89be8170a390fc954d6c7364bce2afb37a00ab3b0cc9c619f89be0bb583d4b45d7ce2fde910b407b2b23157502fa4f89af6c0",
                "blockHeader" : {
                    "bloom" : "0x00000000000000000000000000000000000000000000000000000000000000000000000000000000000000000000000000000000000000000000000000000000000000000000000000000000000000000000000000000000000000000000000000000000000000000000000000000000000000000000000000000000000000000000000000000000000000000000000000000000000000000000000000000000000000000000000000000000000000000000000000000000000000000000000000000000000000000000000000000000000000000000000000000000000000000000000000000000000000000000000000000000000000000000000000000000",
                    "coinbase" : "0xcafe000000000000000000000000000000000001",
                    "difficulty" : "0x020000",
                    "extraData" : "0x00",
                    "gasLimit" : "0x989680",
                    "gasUsed" : "0x093bd6",
                    "hash" : "0xd81cd5ceee4f015de511edfa5d0674a23e08859e53e3a172585f3e6369787d8b",
                    "mixHash" : "0x0000000000000000000000000000000000000000000000000000000000000000",
                    "nonce" : "0x0000000000000000",
                    "number" : "0x01",
                    "parentHash" : "0xd044aa6791ac479fbd45ae924c00f6b5cf4200d740022932e3d2e5fa5efa7a45",
                    "receiptTrie" : "0xa8ea0a3247700b16303e19908bad6cce4809ae5949ae4000b12ee3b4ef98168e",
                    "stateRoot" : "0x124a967c1c98311b9005983cde749f44b9270c396dab28f2b4ae998b4d52d3bb",
                    "timestamp" : "0x03e8",
                    "transactionsTrie" : "0x729d9b22d576bee997d44605c9e22b4a338cc6b9fb7941de09ff792cf4b698c7",
                    "uncleHash" : "0x1dcc4de8dec75d7aab85b567b6ccd41ad312451b948a7413f0a142fd40d49347"
                },
                "transactions" : [
                    {
                        "data" : "0x",
                        "gasLimit" : "0x0f4240",
                        "gasPrice" : "0x0a",
                        "nonce" : "0x00",
                        "to" : "0xb000000000000000000000000000000000000000",
                        "value" : "0x64",
                        "v" : "0x1c",
                        "r" : "0x6c84a6619cb4f711d3808c41a0e9bee89be8170a390fc954d6c7364bce2afb37",
                        "s" : "0x0ab3b0cc9c619f89be0bb583d4b45d7ce2fde910b407b2b23157502fa4f89af6"
                    }
                ],
                "uncleHeaders" : [
                ]
            }
        ]
    },
    "StaticcallToPrecompileFromCalledContract_d0g0v0_London" : {
        "_info" : {
            "comment" : "STATICCALL to precompiled contracts from contract that called from another contract.\nIt should execute successfully for each precompiled contract.\n",
            "filling-rpc-server" : "evm version 1.10.4-unstable-966ee3ae-20210528",
            "filling-tool-version" : "retesteth-0.1.1-eip1559+commit.658fc3a8.Linux.g++",
            "lllcversion" : "Version: 0.5.14-develop.2021.5.18+commit.14c9d5de.mod.Linux.g++",
            "source" : "src/GeneralStateTestsFiller/stStaticCall/StaticcallToPrecompileFromCalledContractFiller.yml",
            "sourceHash" : "44f12e1b6591237b0782d6367ba2d813ebf614962fc730d55f253732fe10281d"
        },
        "genesisBlockHeader" : {
            "bloom" : "0x00000000000000000000000000000000000000000000000000000000000000000000000000000000000000000000000000000000000000000000000000000000000000000000000000000000000000000000000000000000000000000000000000000000000000000000000000000000000000000000000000000000000000000000000000000000000000000000000000000000000000000000000000000000000000000000000000000000000000000000000000000000000000000000000000000000000000000000000000000000000000000000000000000000000000000000000000000000000000000000000000000000000000000000000000000000",
            "coinbase" : "0xcafe000000000000000000000000000000000001",
            "difficulty" : "0x020000",
            "extraData" : "0x00",
            "gasLimit" : "0x989680",
            "gasUsed" : "0x00",
            "hash" : "0x8f2a719a89e780cf3f2debf6722e35c136e221d5f4a84fc9aff1258143c8c2bf",
            "mixHash" : "0x0000000000000000000000000000000000000000000000000000000000000000",
            "nonce" : "0x0000000000000000",
            "number" : "0x00",
            "parentHash" : "0x0000000000000000000000000000000000000000000000000000000000000000",
            "receiptTrie" : "0x56e81f171bcc55a6ff8345e692c0f86e5b48e01b996cadc001622fb5e363b421",
            "stateRoot" : "0xc1ebe52549d18927aef1ae8371ad65ec16d30c8837a0b8edb555bc358e612cad",
            "timestamp" : "0x00",
            "transactionsTrie" : "0x56e81f171bcc55a6ff8345e692c0f86e5b48e01b996cadc001622fb5e363b421",
            "uncleHash" : "0x1dcc4de8dec75d7aab85b567b6ccd41ad312451b948a7413f0a142fd40d49347",
            "baseFee" : "0x0b"
        },
        "pre" : {
            "0xa000000000000000000000000000000000000000" : {
                "balance" : "0x00",
                "code" : "0x7f18c547e4f7b0f325ad1e56f57e26c745b09a3e503d86e00e5255ff7f715d3d1c600052601c6020527f73b1693892219d736caba55bdb67216e485557ea6b6af75f37096c9aa6a5a75f6040527feeb940b1d03b21e36b0e47e79769f095fe2ab855bd91e3a38756b7d75a9c454960605260206103e86080600060015afa60005560a060020a6103e851066001556001543214600255600060005260006020526000604052600060605260006103e8527c0ccccccccccccccccccccccccccccccccccccccccccccccccccc00000060005260206103e86020600060025afa6003556000516004556103e851600555600060005260006103e8527c0ccccccccccccccccccccccccccccccccccccccccccccccccccc00000060005260206103e86020600060035afa6006556000516007556103e851600855600060005260006103e8527c0ccccccccccccccccccccccccccccccccccccccccccccccccccc00000060005260206103e86020600060045afa6009556103e851601055600060005260006103e8526001600052602060205260206040527f03fffffffffffffffffffffffffffffffffffffffffffffffffffffffefffffc6060527f2efffffffffffffffffffffffffffffffffffffffffffffffffffffffefffffc6080527f2f0000000000000000000000000000000000000000000000000000000000000060a05260206103e860a1600060055afa6011556103e85160125560006000526000602052600060405260006060526000608052600060a05260006103e8527f0f25929bcb43d5a57391564615c9e70a992b10eafa4db109709649cf48c50dd26000527f16da2f5cb6be7a0aa72c440c53c9bbdfec6c36c7d515536431b3a865468acbba6020527f1de49a4b0233273bba8146af82042d004f2085ec982397db0d97da17204cc2866040527f0217327ffc463919bef80cc166d09c6172639d8589799928761bcd9f22c903d460605260406103e86080600060065afa6013556103e85160145561040851601555600060005260006020526000604052600060605260006103e8526000610408527f0f25929bcb43d5a57391564615c9e70a992b10eafa4db109709649cf48c50dd26000527f16da2f5cb6be7a0aa72c440c53c9bbdfec6c36c7d515536431b3a865468acbba602052600360405260406103e86060600060075afa6016556103e8516017556104085160185560006000526000602052600060405260006103e8526000610408527f1c76476f4def4bb94541d57ebba1193381ffa7aa76ada664dd31c16024c43f596000527f3034dd2920f673e204fee2811c678745fc819b55d3e9d294e45c9b03a76aef416020527f209dd15ebff5d46c4bd888e51a93cf99a7329636c63514396b4a452003a35bf76040527f04bf11ca01483bfa8b34b43561848d28905960114c8ac04049af4b6315a416786060527f2bb8324af6cfc93537a2ad1a445cfd0ca2a71acd7ac41fadbf933c2a51be344d6080527f120a2a4cf30c1bf9845f20c6fe39e07ea2cce61f0c9bb048165fe5e4de87755060a0527f111e129f1cf1097710d41c4ac70fcdfa5ba2023c6ff1cbeac322de49d1b6df7c60c0527f2032c61a830e3c17286de9462bf242fca2883585b93870a73853face6a6bf41160e0527f198e9393920d483a7260bfb731fb5d25f1aa493335a9e71297e485b7aef312c2610100527f1800deef121f1e76426a00665e5c4479674322d4f75edadd46debd5cd992f6ed610120527f090689d0585ff075ec9e99ad690c3395bc4b313370b38ef355acdadcd122975b610140527f12c85ea5db8c6deb4aab71808dcb408fe3d1e7690c43d37b4ce6cc0166fa7daa6101605260206103e8610180600060085afa6019556103e85160205500",
                "nonce" : "0x00",
                "storage" : {
                }
            },
            "0xa94f5374fce5edbc8e2a8697c15331677e6ebf0b" : {
                "balance" : "0x0de0b6b3a7640000",
                "code" : "0x",
                "nonce" : "0x00",
                "storage" : {
                }
            },
            "0xb000000000000000000000000000000000000000" : {
                "balance" : "0x00",
                "code" : "0x6000600060006000600073a0000000000000000000000000000000000000005af160005500",
                "nonce" : "0x00",
                "storage" : {
                }
            }
        },
        "postState" : {
            "0xa000000000000000000000000000000000000000" : {
                "code" : "0x7f18c547e4f7b0f325ad1e56f57e26c745b09a3e503d86e00e5255ff7f715d3d1c600052601c6020527f73b1693892219d736caba55bdb67216e485557ea6b6af75f37096c9aa6a5a75f6040527feeb940b1d03b21e36b0e47e79769f095fe2ab855bd91e3a38756b7d75a9c454960605260206103e86080600060015afa60005560a060020a6103e851066001556001543214600255600060005260006020526000604052600060605260006103e8527c0ccccccccccccccccccccccccccccccccccccccccccccccccccc00000060005260206103e86020600060025afa6003556000516004556103e851600555600060005260006103e8527c0ccccccccccccccccccccccccccccccccccccccccccccccccccc00000060005260206103e86020600060035afa6006556000516007556103e851600855600060005260006103e8527c0ccccccccccccccccccccccccccccccccccccccccccccccccccc00000060005260206103e86020600060045afa6009556103e851601055600060005260006103e8526001600052602060205260206040527f03fffffffffffffffffffffffffffffffffffffffffffffffffffffffefffffc6060527f2efffffffffffffffffffffffffffffffffffffffffffffffffffffffefffffc6080527f2f0000000000000000000000000000000000000000000000000000000000000060a05260206103e860a1600060055afa6011556103e85160125560006000526000602052600060405260006060526000608052600060a05260006103e8527f0f25929bcb43d5a57391564615c9e70a992b10eafa4db109709649cf48c50dd26000527f16da2f5cb6be7a0aa72c440c53c9bbdfec6c36c7d515536431b3a865468acbba6020527f1de49a4b0233273bba8146af82042d004f2085ec982397db0d97da17204cc2866040527f0217327ffc463919bef80cc166d09c6172639d8589799928761bcd9f22c903d460605260406103e86080600060065afa6013556103e85160145561040851601555600060005260006020526000604052600060605260006103e8526000610408527f0f25929bcb43d5a57391564615c9e70a992b10eafa4db109709649cf48c50dd26000527f16da2f5cb6be7a0aa72c440c53c9bbdfec6c36c7d515536431b3a865468acbba602052600360405260406103e86060600060075afa6016556103e8516017556104085160185560006000526000602052600060405260006103e8526000610408527f1c76476f4def4bb94541d57ebba1193381ffa7aa76ada664dd31c16024c43f596000527f3034dd2920f673e204fee2811c678745fc819b55d3e9d294e45c9b03a76aef416020527f209dd15ebff5d46c4bd888e51a93cf99a7329636c63514396b4a452003a35bf76040527f04bf11ca01483bfa8b34b43561848d28905960114c8ac04049af4b6315a416786060527f2bb8324af6cfc93537a2ad1a445cfd0ca2a71acd7ac41fadbf933c2a51be344d6080527f120a2a4cf30c1bf9845f20c6fe39e07ea2cce61f0c9bb048165fe5e4de87755060a0527f111e129f1cf1097710d41c4ac70fcdfa5ba2023c6ff1cbeac322de49d1b6df7c60c0527f2032c61a830e3c17286de9462bf242fca2883585b93870a73853face6a6bf41160e0527f198e9393920d483a7260bfb731fb5d25f1aa493335a9e71297e485b7aef312c2610100527f1800deef121f1e76426a00665e5c4479674322d4f75edadd46debd5cd992f6ed610120527f090689d0585ff075ec9e99ad690c3395bc4b313370b38ef355acdadcd122975b610140527f12c85ea5db8c6deb4aab71808dcb408fe3d1e7690c43d37b4ce6cc0166fa7daa6101605260206103e8610180600060085afa6019556103e85160205500",
                "nonce" : "0x00",
                "balance" : "0x00",
                "storage" : {
                    "0x00" : "0x01",
                    "0x01" : "0xa94f5374fce5edbc8e2a8697c15331677e6ebf0b",
                    "0x02" : "0x01",
                    "0x03" : "0x01",
                    "0x04" : "0x0ccccccccccccccccccccccccccccccccccccccccccccccccccc000000",
                    "0x05" : "0x73f5062fb68ed2a1ec82ff8c73f9251bb9cf53a623bc93527e16bc5ae29dad74",
                    "0x06" : "0x01",
                    "0x07" : "0x0ccccccccccccccccccccccccccccccccccccccccccccccccccc000000",
                    "0x08" : "0x14ef238cfa4075e9ede92f18b1566c1dd0b99aaa",
                    "0x09" : "0x01",
                    "0x10" : "0x0ccccccccccccccccccccccccccccccccccccccccccccccccccc000000",
                    "0x11" : "0x01",
                    "0x12" : "0x01",
                    "0x13" : "0x01",
                    "0x14" : "0x1f4d1d80177b1377743d1901f70d7389be7f7a35a35bfd234a8aaee615b88c49",
                    "0x15" : "0x018683193ae021a2f8920fed186cde5d9b1365116865281ccf884c1f28b1df8f",
                    "0x16" : "0x01",
                    "0x17" : "0x1f4d1d80177b1377743d1901f70d7389be7f7a35a35bfd234a8aaee615b88c49",
                    "0x18" : "0x018683193ae021a2f8920fed186cde5d9b1365116865281ccf884c1f28b1df8f",
                    "0x19" : "0x01",
                    "0x20" : "0x01"
                }
            },
            "0xa94f5374fce5edbc8e2a8697c15331677e6ebf0b" : {
                "code" : "0x",
                "nonce" : "0x01",
                "balance" : "0x0de0b6b3a702f210",
                "storage" : {
                }
            },
            "0xb000000000000000000000000000000000000000" : {
                "code" : "0x6000600060006000600073a0000000000000000000000000000000000000005af160005500",
                "nonce" : "0x00",
                "balance" : "0x64",
                "storage" : {
                    "0x00" : "0x01"
                }
            },
            "0xcafe000000000000000000000000000000000001" : {
                "code" : "0x",
                "nonce" : "0x00",
                "balance" : "0x1bc16d674ec80000",
                "storage" : {
                }
            }
        },
        "network" : "London",
        "sealEngine" : "NoProof",
        "lastblockhash" : "0x383212d4ad472b459d7ebc2c1e1b37d92ea9b542ebbc500cf355be47d5bdbba6",
        "genesisRLP" : "0xf901f9f901f4a00000000000000000000000000000000000000000000000000000000000000000a01dcc4de8dec75d7aab85b567b6ccd41ad312451b948a7413f0a142fd40d4934794cafe000000000000000000000000000000000001a0c1ebe52549d18927aef1ae8371ad65ec16d30c8837a0b8edb555bc358e612cada056e81f171bcc55a6ff8345e692c0f86e5b48e01b996cadc001622fb5e363b421a056e81f171bcc55a6ff8345e692c0f86e5b48e01b996cadc001622fb5e363b421b9010000000000000000000000000000000000000000000000000000000000000000000000000000000000000000000000000000000000000000000000000000000000000000000000000000000000000000000000000000000000000000000000000000000000000000000000000000000000000000000000000000000000000000000000000000000000000000000000000000000000000000000000000000000000000000000000000000000000000000000000000000000000000000000000000000000000000000000000000000000000000000000000000000000000000000000000000000000000000000000000000000000000000000000000000000000000830200008083989680808000a000000000000000000000000000000000000000000000000000000000000000008800000000000000000bc0c0",
        "blocks" : [
            {
                "rlp" : "0xf90261f901f9a08f2a719a89e780cf3f2debf6722e35c136e221d5f4a84fc9aff1258143c8c2bfa01dcc4de8dec75d7aab85b567b6ccd41ad312451b948a7413f0a142fd40d4934794cafe000000000000000000000000000000000001a09fec30da14d355842133dd12c19416e54f9d55fa23f34f99b87f4784fe82e855a0729d9b22d576bee997d44605c9e22b4a338cc6b9fb7941de09ff792cf4b698c7a022aa1eeb7774344dc5a706157d5e9512da078f28631af8b0a0c6547ba8d39cffb90100000000000000000000000000000000000000000000000000000000000000000000000000000000000000000000000000000000000000000000000000000000000000000000000000000000000000000000000000000000000000000000000000000000000000000000000000000000000000000000000000000000000000000000000000000000000000000000000000000000000000000000000000000000000000000000000000000000000000000000000000000000000000000000000000000000000000000000000000000000000000000000000000000000000000000000000000000000000000000000000000000000000000000000000000000000008302000001839896808309b48e8203e800a000000000000000000000000000000000000000000000000000000000000000008800000000000000000af862f860800a830f424094b00000000000000000000000000000000000000064801ca06c84a6619cb4f711d3808c41a0e9bee89be8170a390fc954d6c7364bce2afb37a00ab3b0cc9c619f89be0bb583d4b45d7ce2fde910b407b2b23157502fa4f89af6c0",
                "blockHeader" : {
                    "bloom" : "0x00000000000000000000000000000000000000000000000000000000000000000000000000000000000000000000000000000000000000000000000000000000000000000000000000000000000000000000000000000000000000000000000000000000000000000000000000000000000000000000000000000000000000000000000000000000000000000000000000000000000000000000000000000000000000000000000000000000000000000000000000000000000000000000000000000000000000000000000000000000000000000000000000000000000000000000000000000000000000000000000000000000000000000000000000000000",
                    "coinbase" : "0xcafe000000000000000000000000000000000001",
                    "difficulty" : "0x020000",
                    "extraData" : "0x00",
                    "gasLimit" : "0x989680",
                    "gasUsed" : "0x09b48e",
                    "hash" : "0x383212d4ad472b459d7ebc2c1e1b37d92ea9b542ebbc500cf355be47d5bdbba6",
                    "mixHash" : "0x0000000000000000000000000000000000000000000000000000000000000000",
                    "nonce" : "0x0000000000000000",
                    "number" : "0x01",
                    "parentHash" : "0x8f2a719a89e780cf3f2debf6722e35c136e221d5f4a84fc9aff1258143c8c2bf",
                    "receiptTrie" : "0x22aa1eeb7774344dc5a706157d5e9512da078f28631af8b0a0c6547ba8d39cff",
                    "stateRoot" : "0x9fec30da14d355842133dd12c19416e54f9d55fa23f34f99b87f4784fe82e855",
                    "timestamp" : "0x03e8",
                    "transactionsTrie" : "0x729d9b22d576bee997d44605c9e22b4a338cc6b9fb7941de09ff792cf4b698c7",
                    "uncleHash" : "0x1dcc4de8dec75d7aab85b567b6ccd41ad312451b948a7413f0a142fd40d49347",
                    "baseFee" : "0x0a"
                },
                "transactions" : [
                    {
                        "data" : "0x",
                        "gasLimit" : "0x0f4240",
                        "gasPrice" : "0x0a",
                        "nonce" : "0x00",
                        "to" : "0xb000000000000000000000000000000000000000",
                        "value" : "0x64",
                        "v" : "0x1c",
                        "r" : "0x6c84a6619cb4f711d3808c41a0e9bee89be8170a390fc954d6c7364bce2afb37",
                        "s" : "0x0ab3b0cc9c619f89be0bb583d4b45d7ce2fde910b407b2b23157502fa4f89af6"
                    }
                ],
                "uncleHeaders" : [
                ]
            }
        ]
    }
}