{
    "static_RevertDepth2_d0g0v0_Berlin" : {
        "_info" : {
            "comment" : "",
            "filling-rpc-server" : "evm version 1.10.4-unstable-966ee3ae-20210528",
            "filling-tool-version" : "retesteth-0.1.1-eip1559+commit.658fc3a8.Linux.g++",
            "lllcversion" : "Version: 0.5.14-develop.2021.5.18+commit.14c9d5de.mod.Linux.g++",
            "source" : "src/GeneralStateTestsFiller/stStaticCall/static_RevertDepth2Filler.json",
            "sourceHash" : "acaf6e62ff9ebf105814eb5389fef889f13e33412f95a60578f7fe233dd93d8c"
        },
        "genesisBlockHeader" : {
            "bloom" : "0x00000000000000000000000000000000000000000000000000000000000000000000000000000000000000000000000000000000000000000000000000000000000000000000000000000000000000000000000000000000000000000000000000000000000000000000000000000000000000000000000000000000000000000000000000000000000000000000000000000000000000000000000000000000000000000000000000000000000000000000000000000000000000000000000000000000000000000000000000000000000000000000000000000000000000000000000000000000000000000000000000000000000000000000000000000000",
            "coinbase" : "0x2adc25665018aa1fe0e6bc666dac8fc2697ff9ba",
            "difficulty" : "0x020000",
            "extraData" : "0x00",
            "gasLimit" : "0x989680",
            "gasUsed" : "0x00",
            "hash" : "0x99bf94ade95c9b212f96a99a7a8969d12371d37c418534ba0437cdb2ac40ce1e",
            "mixHash" : "0x0000000000000000000000000000000000000000000000000000000000000000",
            "nonce" : "0x0000000000000000",
            "number" : "0x00",
            "parentHash" : "0x0000000000000000000000000000000000000000000000000000000000000000",
            "receiptTrie" : "0x56e81f171bcc55a6ff8345e692c0f86e5b48e01b996cadc001622fb5e363b421",
            "stateRoot" : "0x45d7e28def1cee00430746263df4557d7e53426aa047ea3b2dc675f9b334d0c8",
            "timestamp" : "0x00",
            "transactionsTrie" : "0x56e81f171bcc55a6ff8345e692c0f86e5b48e01b996cadc001622fb5e363b421",
            "uncleHash" : "0x1dcc4de8dec75d7aab85b567b6ccd41ad312451b948a7413f0a142fd40d49347"
        },
        "pre" : {
            "0xa000000000000000000000000000000000000000" : {
                "balance" : "0x00",
                "code" : "0x600054600101600055600060006000600073b000000000000000000000000000000000000000620249f0fa600155600060006000600073d000000000000000000000000000000000000000620249f0fa60025500",
                "nonce" : "0x00",
                "storage" : {
                }
            },
            "0xa94f5374fce5edbc8e2a8697c15331677e6ebf0b" : {
                "balance" : "0xe8d4a51000",
                "code" : "0x",
                "nonce" : "0x00",
                "storage" : {
                }
            },
            "0xb000000000000000000000000000000000000000" : {
                "balance" : "0x00",
                "code" : "0x600060006000600073c00000000000000000000000000000000000000061c350fa50600160015200",
                "nonce" : "0x00",
                "storage" : {
                }
            },
            "0xc000000000000000000000000000000000000000" : {
                "balance" : "0x00",
                "code" : "0x600160015200",
                "nonce" : "0x00",
                "storage" : {
                }
            },
            "0xd000000000000000000000000000000000000000" : {
                "balance" : "0x00",
                "code" : "0x600060006000600073c00000000000000000000000000000000000000061c350fa50622fffff60002000",
                "nonce" : "0x00",
                "storage" : {
                }
            }
        },
        "postState" : {
            "0x2adc25665018aa1fe0e6bc666dac8fc2697ff9ba" : {
                "code" : "0x",
                "nonce" : "0x00",
                "balance" : "0x1bc16d674eea60f0",
                "storage" : {
                }
            },
            "0xa000000000000000000000000000000000000000" : {
                "code" : "0x600054600101600055600060006000600073b000000000000000000000000000000000000000620249f0fa600155600060006000600073d000000000000000000000000000000000000000620249f0fa60025500",
                "nonce" : "0x00",
                "balance" : "0x00",
                "storage" : {
                    "0x00" : "0x01",
                    "0x01" : "0x01"
                }
            },
            "0xa94f5374fce5edbc8e2a8697c15331677e6ebf0b" : {
                "code" : "0x",
                "nonce" : "0x01",
                "balance" : "0xe8d482af10",
                "storage" : {
                }
            },
            "0xb000000000000000000000000000000000000000" : {
                "code" : "0x600060006000600073c00000000000000000000000000000000000000061c350fa50600160015200",
                "nonce" : "0x00",
                "balance" : "0x00",
                "storage" : {
                }
            },
            "0xc000000000000000000000000000000000000000" : {
                "code" : "0x600160015200",
                "nonce" : "0x00",
                "balance" : "0x00",
                "storage" : {
                }
            },
            "0xd000000000000000000000000000000000000000" : {
                "code" : "0x600060006000600073c00000000000000000000000000000000000000061c350fa50622fffff60002000",
                "nonce" : "0x00",
                "balance" : "0x00",
                "storage" : {
                }
            }
        },
        "network" : "Berlin",
        "sealEngine" : "NoProof",
        "lastblockhash" : "0x0265201acc451673130cb7d85a15c62cb355f8f244258f6112b5dc4d9de1ff3c",
        "genesisRLP" : "0xf901f8f901f3a00000000000000000000000000000000000000000000000000000000000000000a01dcc4de8dec75d7aab85b567b6ccd41ad312451b948a7413f0a142fd40d49347942adc25665018aa1fe0e6bc666dac8fc2697ff9baa045d7e28def1cee00430746263df4557d7e53426aa047ea3b2dc675f9b334d0c8a056e81f171bcc55a6ff8345e692c0f86e5b48e01b996cadc001622fb5e363b421a056e81f171bcc55a6ff8345e692c0f86e5b48e01b996cadc001622fb5e363b421b9010000000000000000000000000000000000000000000000000000000000000000000000000000000000000000000000000000000000000000000000000000000000000000000000000000000000000000000000000000000000000000000000000000000000000000000000000000000000000000000000000000000000000000000000000000000000000000000000000000000000000000000000000000000000000000000000000000000000000000000000000000000000000000000000000000000000000000000000000000000000000000000000000000000000000000000000000000000000000000000000000000000000000000000000000000000000830200008083989680808000a00000000000000000000000000000000000000000000000000000000000000000880000000000000000c0c0",
        "blocks" : [
            {
                "rlp" : "0xf90260f901f8a099bf94ade95c9b212f96a99a7a8969d12371d37c418534ba0437cdb2ac40ce1ea01dcc4de8dec75d7aab85b567b6ccd41ad312451b948a7413f0a142fd40d49347942adc25665018aa1fe0e6bc666dac8fc2697ff9baa0e33b3f21c8e7619bc8c4cc40f6a8a97594b3864345fb8924f839655e80f81f94a0030e483b1b974e51963aa96d286c867d729620e27ba8c10bdddd317ea4e80a9fa0e085a56ee0af42648e93d0922e653e3bed0fc865e01db46b5f77baec0e043028b9010000000000000000000000000000000000000000000000000000000000000000000000000000000000000000000000000000000000000000000000000000000000000000000000000000000000000000000000000000000000000000000000000000000000000000000000000000000000000000000000000000000000000000000000000000000000000000000000000000000000000000000000000000000000000000000000000000000000000000000000000000000000000000000000000000000000000000000000000000000000000000000000000000000000000000000000000000000000000000000000000000000000000000000000000000000000830200000183989680830370188203e800a00000000000000000000000000000000000000000000000000000000000000000880000000000000000f862f860800a831a0b6294a00000000000000000000000000000000000000080801ba02eeccbe8ee57ab93153eabbe88f412f4945b19acbaf396144baecdb3e0b2f277a04cee67c7cdef93a256b9b7abb07c574e165b4b2f261b91632762e22ef9e52ce2c0",
                "blockHeader" : {
                    "bloom" : "0x00000000000000000000000000000000000000000000000000000000000000000000000000000000000000000000000000000000000000000000000000000000000000000000000000000000000000000000000000000000000000000000000000000000000000000000000000000000000000000000000000000000000000000000000000000000000000000000000000000000000000000000000000000000000000000000000000000000000000000000000000000000000000000000000000000000000000000000000000000000000000000000000000000000000000000000000000000000000000000000000000000000000000000000000000000000",
                    "coinbase" : "0x2adc25665018aa1fe0e6bc666dac8fc2697ff9ba",
                    "difficulty" : "0x020000",
                    "extraData" : "0x00",
                    "gasLimit" : "0x989680",
                    "gasUsed" : "0x037018",
                    "hash" : "0x0265201acc451673130cb7d85a15c62cb355f8f244258f6112b5dc4d9de1ff3c",
                    "mixHash" : "0x0000000000000000000000000000000000000000000000000000000000000000",
                    "nonce" : "0x0000000000000000",
                    "number" : "0x01",
                    "parentHash" : "0x99bf94ade95c9b212f96a99a7a8969d12371d37c418534ba0437cdb2ac40ce1e",
                    "receiptTrie" : "0xe085a56ee0af42648e93d0922e653e3bed0fc865e01db46b5f77baec0e043028",
                    "stateRoot" : "0xe33b3f21c8e7619bc8c4cc40f6a8a97594b3864345fb8924f839655e80f81f94",
                    "timestamp" : "0x03e8",
                    "transactionsTrie" : "0x030e483b1b974e51963aa96d286c867d729620e27ba8c10bdddd317ea4e80a9f",
                    "uncleHash" : "0x1dcc4de8dec75d7aab85b567b6ccd41ad312451b948a7413f0a142fd40d49347"
                },
                "transactions" : [
                    {
                        "data" : "0x",
                        "gasLimit" : "0x1a0b62",
                        "gasPrice" : "0x0a",
                        "nonce" : "0x00",
                        "to" : "0xa000000000000000000000000000000000000000",
                        "value" : "0x00",
                        "v" : "0x1b",
                        "r" : "0x2eeccbe8ee57ab93153eabbe88f412f4945b19acbaf396144baecdb3e0b2f277",
                        "s" : "0x4cee67c7cdef93a256b9b7abb07c574e165b4b2f261b91632762e22ef9e52ce2"
                    }
                ],
                "uncleHeaders" : [
                ]
            }
        ]
    },
    "static_RevertDepth2_d0g0v0_Istanbul" : {
        "_info" : {
            "comment" : "",
            "filling-rpc-server" : "evm version 1.10.4-unstable-966ee3ae-20210528",
            "filling-tool-version" : "retesteth-0.1.1-eip1559+commit.658fc3a8.Linux.g++",
            "lllcversion" : "Version: 0.5.14-develop.2021.5.18+commit.14c9d5de.mod.Linux.g++",
            "source" : "src/GeneralStateTestsFiller/stStaticCall/static_RevertDepth2Filler.json",
            "sourceHash" : "acaf6e62ff9ebf105814eb5389fef889f13e33412f95a60578f7fe233dd93d8c"
        },
        "genesisBlockHeader" : {
            "bloom" : "0x00000000000000000000000000000000000000000000000000000000000000000000000000000000000000000000000000000000000000000000000000000000000000000000000000000000000000000000000000000000000000000000000000000000000000000000000000000000000000000000000000000000000000000000000000000000000000000000000000000000000000000000000000000000000000000000000000000000000000000000000000000000000000000000000000000000000000000000000000000000000000000000000000000000000000000000000000000000000000000000000000000000000000000000000000000000",
            "coinbase" : "0x2adc25665018aa1fe0e6bc666dac8fc2697ff9ba",
            "difficulty" : "0x020000",
            "extraData" : "0x00",
            "gasLimit" : "0x989680",
            "gasUsed" : "0x00",
            "hash" : "0x99bf94ade95c9b212f96a99a7a8969d12371d37c418534ba0437cdb2ac40ce1e",
            "mixHash" : "0x0000000000000000000000000000000000000000000000000000000000000000",
            "nonce" : "0x0000000000000000",
            "number" : "0x00",
            "parentHash" : "0x0000000000000000000000000000000000000000000000000000000000000000",
            "receiptTrie" : "0x56e81f171bcc55a6ff8345e692c0f86e5b48e01b996cadc001622fb5e363b421",
            "stateRoot" : "0x45d7e28def1cee00430746263df4557d7e53426aa047ea3b2dc675f9b334d0c8",
            "timestamp" : "0x00",
            "transactionsTrie" : "0x56e81f171bcc55a6ff8345e692c0f86e5b48e01b996cadc001622fb5e363b421",
            "uncleHash" : "0x1dcc4de8dec75d7aab85b567b6ccd41ad312451b948a7413f0a142fd40d49347"
        },
        "pre" : {
            "0xa000000000000000000000000000000000000000" : {
                "balance" : "0x00",
                "code" : "0x600054600101600055600060006000600073b000000000000000000000000000000000000000620249f0fa600155600060006000600073d000000000000000000000000000000000000000620249f0fa60025500",
                "nonce" : "0x00",
                "storage" : {
                }
            },
            "0xa94f5374fce5edbc8e2a8697c15331677e6ebf0b" : {
                "balance" : "0xe8d4a51000",
                "code" : "0x",
                "nonce" : "0x00",
                "storage" : {
                }
            },
            "0xb000000000000000000000000000000000000000" : {
                "balance" : "0x00",
                "code" : "0x600060006000600073c00000000000000000000000000000000000000061c350fa50600160015200",
                "nonce" : "0x00",
                "storage" : {
                }
            },
            "0xc000000000000000000000000000000000000000" : {
                "balance" : "0x00",
                "code" : "0x600160015200",
                "nonce" : "0x00",
                "storage" : {
                }
            },
            "0xd000000000000000000000000000000000000000" : {
                "balance" : "0x00",
                "code" : "0x600060006000600073c00000000000000000000000000000000000000061c350fa50622fffff60002000",
                "nonce" : "0x00",
                "storage" : {
                }
            }
        },
        "postState" : {
            "0x2adc25665018aa1fe0e6bc666dac8fc2697ff9ba" : {
                "code" : "0x",
                "nonce" : "0x00",
                "balance" : "0x1bc16d674ee8c6c8",
                "storage" : {
                }
            },
            "0xa000000000000000000000000000000000000000" : {
                "code" : "0x600054600101600055600060006000600073b000000000000000000000000000000000000000620249f0fa600155600060006000600073d000000000000000000000000000000000000000620249f0fa60025500",
                "nonce" : "0x00",
                "balance" : "0x00",
                "storage" : {
                    "0x00" : "0x01",
                    "0x01" : "0x01"
                }
            },
            "0xa94f5374fce5edbc8e2a8697c15331677e6ebf0b" : {
                "code" : "0x",
                "nonce" : "0x01",
                "balance" : "0xe8d4844938",
                "storage" : {
                }
            },
            "0xb000000000000000000000000000000000000000" : {
                "code" : "0x600060006000600073c00000000000000000000000000000000000000061c350fa50600160015200",
                "nonce" : "0x00",
                "balance" : "0x00",
                "storage" : {
                }
            },
            "0xc000000000000000000000000000000000000000" : {
                "code" : "0x600160015200",
                "nonce" : "0x00",
                "balance" : "0x00",
                "storage" : {
                }
            },
            "0xd000000000000000000000000000000000000000" : {
                "code" : "0x600060006000600073c00000000000000000000000000000000000000061c350fa50622fffff60002000",
                "nonce" : "0x00",
                "balance" : "0x00",
                "storage" : {
                }
            }
        },
        "network" : "Istanbul",
        "sealEngine" : "NoProof",
        "lastblockhash" : "0x8111f5f0ea11f68e2dcb158cb0e1ae53359172c13a6b158882e7c805681fe0b2",
        "genesisRLP" : "0xf901f8f901f3a00000000000000000000000000000000000000000000000000000000000000000a01dcc4de8dec75d7aab85b567b6ccd41ad312451b948a7413f0a142fd40d49347942adc25665018aa1fe0e6bc666dac8fc2697ff9baa045d7e28def1cee00430746263df4557d7e53426aa047ea3b2dc675f9b334d0c8a056e81f171bcc55a6ff8345e692c0f86e5b48e01b996cadc001622fb5e363b421a056e81f171bcc55a6ff8345e692c0f86e5b48e01b996cadc001622fb5e363b421b9010000000000000000000000000000000000000000000000000000000000000000000000000000000000000000000000000000000000000000000000000000000000000000000000000000000000000000000000000000000000000000000000000000000000000000000000000000000000000000000000000000000000000000000000000000000000000000000000000000000000000000000000000000000000000000000000000000000000000000000000000000000000000000000000000000000000000000000000000000000000000000000000000000000000000000000000000000000000000000000000000000000000000000000000000000000000830200008083989680808000a00000000000000000000000000000000000000000000000000000000000000000880000000000000000c0c0",
        "blocks" : [
            {
                "rlp" : "0xf90260f901f8a099bf94ade95c9b212f96a99a7a8969d12371d37c418534ba0437cdb2ac40ce1ea01dcc4de8dec75d7aab85b567b6ccd41ad312451b948a7413f0a142fd40d49347942adc25665018aa1fe0e6bc666dac8fc2697ff9baa0577b84ae2f96ab9b73e6b2da8130e730e0f440717cc3d65bfe3c3d0e56fa8f09a0030e483b1b974e51963aa96d286c867d729620e27ba8c10bdddd317ea4e80a9fa03d378b8a7043ab3fb1a945f3c30cd96acc3560bf9c4e7b5a4d16d63b87dd54cab9010000000000000000000000000000000000000000000000000000000000000000000000000000000000000000000000000000000000000000000000000000000000000000000000000000000000000000000000000000000000000000000000000000000000000000000000000000000000000000000000000000000000000000000000000000000000000000000000000000000000000000000000000000000000000000000000000000000000000000000000000000000000000000000000000000000000000000000000000000000000000000000000000000000000000000000000000000000000000000000000000000000000000000000000000000000000830200000183989680830347148203e800a00000000000000000000000000000000000000000000000000000000000000000880000000000000000f862f860800a831a0b6294a00000000000000000000000000000000000000080801ba02eeccbe8ee57ab93153eabbe88f412f4945b19acbaf396144baecdb3e0b2f277a04cee67c7cdef93a256b9b7abb07c574e165b4b2f261b91632762e22ef9e52ce2c0",
                "blockHeader" : {
                    "bloom" : "0x00000000000000000000000000000000000000000000000000000000000000000000000000000000000000000000000000000000000000000000000000000000000000000000000000000000000000000000000000000000000000000000000000000000000000000000000000000000000000000000000000000000000000000000000000000000000000000000000000000000000000000000000000000000000000000000000000000000000000000000000000000000000000000000000000000000000000000000000000000000000000000000000000000000000000000000000000000000000000000000000000000000000000000000000000000000",
                    "coinbase" : "0x2adc25665018aa1fe0e6bc666dac8fc2697ff9ba",
                    "difficulty" : "0x020000",
                    "extraData" : "0x00",
                    "gasLimit" : "0x989680",
                    "gasUsed" : "0x034714",
                    "hash" : "0x8111f5f0ea11f68e2dcb158cb0e1ae53359172c13a6b158882e7c805681fe0b2",
                    "mixHash" : "0x0000000000000000000000000000000000000000000000000000000000000000",
                    "nonce" : "0x0000000000000000",
                    "number" : "0x01",
                    "parentHash" : "0x99bf94ade95c9b212f96a99a7a8969d12371d37c418534ba0437cdb2ac40ce1e",
                    "receiptTrie" : "0x3d378b8a7043ab3fb1a945f3c30cd96acc3560bf9c4e7b5a4d16d63b87dd54ca",
                    "stateRoot" : "0x577b84ae2f96ab9b73e6b2da8130e730e0f440717cc3d65bfe3c3d0e56fa8f09",
                    "timestamp" : "0x03e8",
                    "transactionsTrie" : "0x030e483b1b974e51963aa96d286c867d729620e27ba8c10bdddd317ea4e80a9f",
                    "uncleHash" : "0x1dcc4de8dec75d7aab85b567b6ccd41ad312451b948a7413f0a142fd40d49347"
                },
                "transactions" : [
                    {
                        "data" : "0x",
                        "gasLimit" : "0x1a0b62",
                        "gasPrice" : "0x0a",
                        "nonce" : "0x00",
                        "to" : "0xa000000000000000000000000000000000000000",
                        "value" : "0x00",
                        "v" : "0x1b",
                        "r" : "0x2eeccbe8ee57ab93153eabbe88f412f4945b19acbaf396144baecdb3e0b2f277",
                        "s" : "0x4cee67c7cdef93a256b9b7abb07c574e165b4b2f261b91632762e22ef9e52ce2"
                    }
                ],
                "uncleHeaders" : [
                ]
            }
        ]
    },
    "static_RevertDepth2_d0g0v0_London" : {
        "_info" : {
            "comment" : "",
            "filling-rpc-server" : "evm version 1.10.4-unstable-966ee3ae-20210528",
            "filling-tool-version" : "retesteth-0.1.1-eip1559+commit.658fc3a8.Linux.g++",
            "lllcversion" : "Version: 0.5.14-develop.2021.5.18+commit.14c9d5de.mod.Linux.g++",
            "source" : "src/GeneralStateTestsFiller/stStaticCall/static_RevertDepth2Filler.json",
            "sourceHash" : "acaf6e62ff9ebf105814eb5389fef889f13e33412f95a60578f7fe233dd93d8c"
        },
        "genesisBlockHeader" : {
            "bloom" : "0x00000000000000000000000000000000000000000000000000000000000000000000000000000000000000000000000000000000000000000000000000000000000000000000000000000000000000000000000000000000000000000000000000000000000000000000000000000000000000000000000000000000000000000000000000000000000000000000000000000000000000000000000000000000000000000000000000000000000000000000000000000000000000000000000000000000000000000000000000000000000000000000000000000000000000000000000000000000000000000000000000000000000000000000000000000000",
            "coinbase" : "0x2adc25665018aa1fe0e6bc666dac8fc2697ff9ba",
            "difficulty" : "0x020000",
            "extraData" : "0x00",
            "gasLimit" : "0x989680",
            "gasUsed" : "0x00",
            "hash" : "0x3ad7664f8fea21d7704c012a7c2e598413506dc5df68859656f82741d0ff1db9",
            "mixHash" : "0x0000000000000000000000000000000000000000000000000000000000000000",
            "nonce" : "0x0000000000000000",
            "number" : "0x00",
            "parentHash" : "0x0000000000000000000000000000000000000000000000000000000000000000",
            "receiptTrie" : "0x56e81f171bcc55a6ff8345e692c0f86e5b48e01b996cadc001622fb5e363b421",
            "stateRoot" : "0x45d7e28def1cee00430746263df4557d7e53426aa047ea3b2dc675f9b334d0c8",
            "timestamp" : "0x00",
            "transactionsTrie" : "0x56e81f171bcc55a6ff8345e692c0f86e5b48e01b996cadc001622fb5e363b421",
            "uncleHash" : "0x1dcc4de8dec75d7aab85b567b6ccd41ad312451b948a7413f0a142fd40d49347",
            "baseFee" : "0x0b"
        },
        "pre" : {
            "0xa000000000000000000000000000000000000000" : {
                "balance" : "0x00",
                "code" : "0x600054600101600055600060006000600073b000000000000000000000000000000000000000620249f0fa600155600060006000600073d000000000000000000000000000000000000000620249f0fa60025500",
                "nonce" : "0x00",
                "storage" : {
                }
            },
            "0xa94f5374fce5edbc8e2a8697c15331677e6ebf0b" : {
                "balance" : "0xe8d4a51000",
                "code" : "0x",
                "nonce" : "0x00",
                "storage" : {
                }
            },
            "0xb000000000000000000000000000000000000000" : {
                "balance" : "0x00",
                "code" : "0x600060006000600073c00000000000000000000000000000000000000061c350fa50600160015200",
                "nonce" : "0x00",
                "storage" : {
                }
            },
            "0xc000000000000000000000000000000000000000" : {
                "balance" : "0x00",
                "code" : "0x600160015200",
                "nonce" : "0x00",
                "storage" : {
                }
            },
            "0xd000000000000000000000000000000000000000" : {
                "balance" : "0x00",
                "code" : "0x600060006000600073c00000000000000000000000000000000000000061c350fa50622fffff60002000",
                "nonce" : "0x00",
                "storage" : {
                }
            }
        },
        "postState" : {
            "0x2adc25665018aa1fe0e6bc666dac8fc2697ff9ba" : {
                "code" : "0x",
                "nonce" : "0x00",
                "balance" : "0x1bc16d674ec80000",
                "storage" : {
                }
            },
            "0xa000000000000000000000000000000000000000" : {
                "code" : "0x600054600101600055600060006000600073b000000000000000000000000000000000000000620249f0fa600155600060006000600073d000000000000000000000000000000000000000620249f0fa60025500",
                "nonce" : "0x00",
                "balance" : "0x00",
                "storage" : {
                    "0x00" : "0x01",
                    "0x01" : "0x01"
                }
            },
            "0xa94f5374fce5edbc8e2a8697c15331677e6ebf0b" : {
                "code" : "0x",
                "nonce" : "0x01",
                "balance" : "0xe8d482af10",
                "storage" : {
                }
            },
            "0xb000000000000000000000000000000000000000" : {
                "code" : "0x600060006000600073c00000000000000000000000000000000000000061c350fa50600160015200",
                "nonce" : "0x00",
                "balance" : "0x00",
                "storage" : {
                }
            },
            "0xc000000000000000000000000000000000000000" : {
                "code" : "0x600160015200",
                "nonce" : "0x00",
                "balance" : "0x00",
                "storage" : {
                }
            },
            "0xd000000000000000000000000000000000000000" : {
                "code" : "0x600060006000600073c00000000000000000000000000000000000000061c350fa50622fffff60002000",
                "nonce" : "0x00",
                "balance" : "0x00",
                "storage" : {
                }
            }
        },
        "network" : "London",
        "sealEngine" : "NoProof",
        "lastblockhash" : "0x4dd4d7e385d354942859c6947a2aed9198b86c9a46e17e79478c22e77f0b7ec6",
        "genesisRLP" : "0xf901f9f901f4a00000000000000000000000000000000000000000000000000000000000000000a01dcc4de8dec75d7aab85b567b6ccd41ad312451b948a7413f0a142fd40d49347942adc25665018aa1fe0e6bc666dac8fc2697ff9baa045d7e28def1cee00430746263df4557d7e53426aa047ea3b2dc675f9b334d0c8a056e81f171bcc55a6ff8345e692c0f86e5b48e01b996cadc001622fb5e363b421a056e81f171bcc55a6ff8345e692c0f86e5b48e01b996cadc001622fb5e363b421b9010000000000000000000000000000000000000000000000000000000000000000000000000000000000000000000000000000000000000000000000000000000000000000000000000000000000000000000000000000000000000000000000000000000000000000000000000000000000000000000000000000000000000000000000000000000000000000000000000000000000000000000000000000000000000000000000000000000000000000000000000000000000000000000000000000000000000000000000000000000000000000000000000000000000000000000000000000000000000000000000000000000000000000000000000000000000830200008083989680808000a000000000000000000000000000000000000000000000000000000000000000008800000000000000000bc0c0",
        "blocks" : [
            {
                "rlp" : "0xf90261f901f9a03ad7664f8fea21d7704c012a7c2e598413506dc5df68859656f82741d0ff1db9a01dcc4de8dec75d7aab85b567b6ccd41ad312451b948a7413f0a142fd40d49347942adc25665018aa1fe0e6bc666dac8fc2697ff9baa0ed651a552bace4853bb001dfe5037b17bcdba542d35328ae6a8d6c7d18e8e79da0030e483b1b974e51963aa96d286c867d729620e27ba8c10bdddd317ea4e80a9fa0e085a56ee0af42648e93d0922e653e3bed0fc865e01db46b5f77baec0e043028b9010000000000000000000000000000000000000000000000000000000000000000000000000000000000000000000000000000000000000000000000000000000000000000000000000000000000000000000000000000000000000000000000000000000000000000000000000000000000000000000000000000000000000000000000000000000000000000000000000000000000000000000000000000000000000000000000000000000000000000000000000000000000000000000000000000000000000000000000000000000000000000000000000000000000000000000000000000000000000000000000000000000000000000000000000000000000830200000183989680830370188203e800a000000000000000000000000000000000000000000000000000000000000000008800000000000000000af862f860800a831a0b6294a00000000000000000000000000000000000000080801ba02eeccbe8ee57ab93153eabbe88f412f4945b19acbaf396144baecdb3e0b2f277a04cee67c7cdef93a256b9b7abb07c574e165b4b2f261b91632762e22ef9e52ce2c0",
                "blockHeader" : {
                    "bloom" : "0x00000000000000000000000000000000000000000000000000000000000000000000000000000000000000000000000000000000000000000000000000000000000000000000000000000000000000000000000000000000000000000000000000000000000000000000000000000000000000000000000000000000000000000000000000000000000000000000000000000000000000000000000000000000000000000000000000000000000000000000000000000000000000000000000000000000000000000000000000000000000000000000000000000000000000000000000000000000000000000000000000000000000000000000000000000000",
                    "coinbase" : "0x2adc25665018aa1fe0e6bc666dac8fc2697ff9ba",
                    "difficulty" : "0x020000",
                    "extraData" : "0x00",
                    "gasLimit" : "0x989680",
                    "gasUsed" : "0x037018",
                    "hash" : "0x4dd4d7e385d354942859c6947a2aed9198b86c9a46e17e79478c22e77f0b7ec6",
                    "mixHash" : "0x0000000000000000000000000000000000000000000000000000000000000000",
                    "nonce" : "0x0000000000000000",
                    "number" : "0x01",
                    "parentHash" : "0x3ad7664f8fea21d7704c012a7c2e598413506dc5df68859656f82741d0ff1db9",
                    "receiptTrie" : "0xe085a56ee0af42648e93d0922e653e3bed0fc865e01db46b5f77baec0e043028",
                    "stateRoot" : "0xed651a552bace4853bb001dfe5037b17bcdba542d35328ae6a8d6c7d18e8e79d",
                    "timestamp" : "0x03e8",
                    "transactionsTrie" : "0x030e483b1b974e51963aa96d286c867d729620e27ba8c10bdddd317ea4e80a9f",
                    "uncleHash" : "0x1dcc4de8dec75d7aab85b567b6ccd41ad312451b948a7413f0a142fd40d49347",
                    "baseFee" : "0x0a"
                },
                "transactions" : [
                    {
                        "data" : "0x",
                        "gasLimit" : "0x1a0b62",
                        "gasPrice" : "0x0a",
                        "nonce" : "0x00",
                        "to" : "0xa000000000000000000000000000000000000000",
                        "value" : "0x00",
                        "v" : "0x1b",
                        "r" : "0x2eeccbe8ee57ab93153eabbe88f412f4945b19acbaf396144baecdb3e0b2f277",
                        "s" : "0x4cee67c7cdef93a256b9b7abb07c574e165b4b2f261b91632762e22ef9e52ce2"
                    }
                ],
                "uncleHeaders" : [
                ]
            }
        ]
    }
}