{
    "static_callWithHighValue_d0g0v0_Berlin" : {
        "_info" : {
            "comment" : "",
            "filling-rpc-server" : "evm version 1.10.4-unstable-966ee3ae-20210528",
            "filling-tool-version" : "retesteth-0.1.1-eip1559+commit.658fc3a8.Linux.g++",
            "lllcversion" : "Version: 0.5.14-develop.2021.5.18+commit.14c9d5de.mod.Linux.g++",
            "source" : "src/GeneralStateTestsFiller/stStaticCall/static_callWithHighValueFiller.json",
            "sourceHash" : "cb15410ae94b63d478ce1ba9a7f843933b75d0834385428d17cf963e74c51bb6"
        },
        "genesisBlockHeader" : {
            "bloom" : "0x00000000000000000000000000000000000000000000000000000000000000000000000000000000000000000000000000000000000000000000000000000000000000000000000000000000000000000000000000000000000000000000000000000000000000000000000000000000000000000000000000000000000000000000000000000000000000000000000000000000000000000000000000000000000000000000000000000000000000000000000000000000000000000000000000000000000000000000000000000000000000000000000000000000000000000000000000000000000000000000000000000000000000000000000000000000",
            "coinbase" : "0x2adc25665018aa1fe0e6bc666dac8fc2697ff9ba",
            "difficulty" : "0x020000",
            "extraData" : "0x00",
            "gasLimit" : "0x01c9c380",
            "gasUsed" : "0x00",
            "hash" : "0xb0fb13760a54ef132ee3079ecec95bb4d0e37f0b102d2082f7ea2eb08f19f66a",
            "mixHash" : "0x0000000000000000000000000000000000000000000000000000000000000000",
            "nonce" : "0x0000000000000000",
            "number" : "0x00",
            "parentHash" : "0x0000000000000000000000000000000000000000000000000000000000000000",
            "receiptTrie" : "0x56e81f171bcc55a6ff8345e692c0f86e5b48e01b996cadc001622fb5e363b421",
            "stateRoot" : "0x630e8ea0756d367a8aaed9bb4416440ff9cf7274a438de26a306cbd459939588",
            "timestamp" : "0x00",
            "transactionsTrie" : "0x56e81f171bcc55a6ff8345e692c0f86e5b48e01b996cadc001622fb5e363b421",
            "uncleHash" : "0x1dcc4de8dec75d7aab85b567b6ccd41ad312451b948a7413f0a142fd40d49347"
        },
        "pre" : {
            "0x095e7baea6a6c7c4c2dfeb977efac326af552d87" : {
                "balance" : "0x0de0b6b3a7640000",
                "code" : "0x600260006040600073945304eb96065b2a98b57a48a06ae28d285a71b561c350fa600055600160015500",
                "nonce" : "0x00",
                "storage" : {
                }
            },
            "0x945304eb96065b2a98b57a48a06ae28d285a71b5" : {
                "balance" : "0x17",
                "code" : "0x603760005360026000f3",
                "nonce" : "0x00",
                "storage" : {
                }
            },
            "0xa94f5374fce5edbc8e2a8697c15331677e6ebf0b" : {
                "balance" : "0x0de0b6b3a7640000",
                "code" : "0x",
                "nonce" : "0x00",
                "storage" : {
                }
            }
        },
        "postState" : {
            "0x095e7baea6a6c7c4c2dfeb977efac326af552d87" : {
                "code" : "0x600260006040600073945304eb96065b2a98b57a48a06ae28d285a71b561c350fa600055600160015500",
                "nonce" : "0x00",
                "balance" : "0x0de0b6b3a7640000",
                "storage" : {
                    "0x00" : "0x01",
                    "0x01" : "0x01"
                }
            },
            "0x2adc25665018aa1fe0e6bc666dac8fc2697ff9ba" : {
                "code" : "0x",
                "nonce" : "0x00",
                "balance" : "0x1bc16d674ed25a6e",
                "storage" : {
                }
            },
            "0x945304eb96065b2a98b57a48a06ae28d285a71b5" : {
                "code" : "0x603760005360026000f3",
                "nonce" : "0x00",
                "balance" : "0x17",
                "storage" : {
                }
            },
            "0xa94f5374fce5edbc8e2a8697c15331677e6ebf0b" : {
                "code" : "0x",
                "nonce" : "0x01",
                "balance" : "0x0de0b6b3a759a592",
                "storage" : {
                }
            }
        },
        "network" : "Berlin",
        "sealEngine" : "NoProof",
        "lastblockhash" : "0x0aa50f1697fe5e75565238e87b01301061188abc52f8169c8040c05e9784da0e",
        "genesisRLP" : "0xf901f9f901f4a00000000000000000000000000000000000000000000000000000000000000000a01dcc4de8dec75d7aab85b567b6ccd41ad312451b948a7413f0a142fd40d49347942adc25665018aa1fe0e6bc666dac8fc2697ff9baa0630e8ea0756d367a8aaed9bb4416440ff9cf7274a438de26a306cbd459939588a056e81f171bcc55a6ff8345e692c0f86e5b48e01b996cadc001622fb5e363b421a056e81f171bcc55a6ff8345e692c0f86e5b48e01b996cadc001622fb5e363b421b901000000000000000000000000000000000000000000000000000000000000000000000000000000000000000000000000000000000000000000000000000000000000000000000000000000000000000000000000000000000000000000000000000000000000000000000000000000000000000000000000000000000000000000000000000000000000000000000000000000000000000000000000000000000000000000000000000000000000000000000000000000000000000000000000000000000000000000000000000000000000000000000000000000000000000000000000000000000000000000000000000000000000000000000000000000000083020000808401c9c380808000a00000000000000000000000000000000000000000000000000000000000000000880000000000000000c0c0",
        "blocks" : [
            {
                "rlp" : "0xf90261f901f9a0b0fb13760a54ef132ee3079ecec95bb4d0e37f0b102d2082f7ea2eb08f19f66aa01dcc4de8dec75d7aab85b567b6ccd41ad312451b948a7413f0a142fd40d49347942adc25665018aa1fe0e6bc666dac8fc2697ff9baa08e8eaa93b8584b05cc9f40d09de63c6913bcf1ed0a18da23215449979621f825a06434509a2d7d87f5d6f7dcccb6eb25db092f0ec3ab6a48c90d4eb2b5715fb57ba04040b94ebbdf4fd29eff96b428d2d3d7157a8a7d58b33f1457e67ec810df4a86b901000000000000000000000000000000000000000000000000000000000000000000000000000000000000000000000000000000000000000000000000000000000000000000000000000000000000000000000000000000000000000000000000000000000000000000000000000000000000000000000000000000000000000000000000000000000000000000000000000000000000000000000000000000000000000000000000000000000000000000000000000000000000000000000000000000000000000000000000000000000000000000000000000000000000000000000000000000000000000000000000000000000000000000000000000000000083020000018401c9c3808301090b8203e800a00000000000000000000000000000000000000000000000000000000000000000880000000000000000f862f860800a832dc6c094095e7baea6a6c7c4c2dfeb977efac326af552d8780801ca096fe0bdc8ea5e06836f0a4bdebad21024a56b36549e00aeae0d3d5e8c6f32302a021b8b5010ea4464453625562c4c0f0ec3039d1ed042db1e5cf02fb9e33d0b8d5c0",
                "blockHeader" : {
                    "bloom" : "0x00000000000000000000000000000000000000000000000000000000000000000000000000000000000000000000000000000000000000000000000000000000000000000000000000000000000000000000000000000000000000000000000000000000000000000000000000000000000000000000000000000000000000000000000000000000000000000000000000000000000000000000000000000000000000000000000000000000000000000000000000000000000000000000000000000000000000000000000000000000000000000000000000000000000000000000000000000000000000000000000000000000000000000000000000000000",
                    "coinbase" : "0x2adc25665018aa1fe0e6bc666dac8fc2697ff9ba",
                    "difficulty" : "0x020000",
                    "extraData" : "0x00",
                    "gasLimit" : "0x01c9c380",
                    "gasUsed" : "0x01090b",
                    "hash" : "0x0aa50f1697fe5e75565238e87b01301061188abc52f8169c8040c05e9784da0e",
                    "mixHash" : "0x0000000000000000000000000000000000000000000000000000000000000000",
                    "nonce" : "0x0000000000000000",
                    "number" : "0x01",
                    "parentHash" : "0xb0fb13760a54ef132ee3079ecec95bb4d0e37f0b102d2082f7ea2eb08f19f66a",
                    "receiptTrie" : "0x4040b94ebbdf4fd29eff96b428d2d3d7157a8a7d58b33f1457e67ec810df4a86",
                    "stateRoot" : "0x8e8eaa93b8584b05cc9f40d09de63c6913bcf1ed0a18da23215449979621f825",
                    "timestamp" : "0x03e8",
                    "transactionsTrie" : "0x6434509a2d7d87f5d6f7dcccb6eb25db092f0ec3ab6a48c90d4eb2b5715fb57b",
                    "uncleHash" : "0x1dcc4de8dec75d7aab85b567b6ccd41ad312451b948a7413f0a142fd40d49347"
                },
                "transactions" : [
                    {
                        "data" : "0x",
                        "gasLimit" : "0x2dc6c0",
                        "gasPrice" : "0x0a",
                        "nonce" : "0x00",
                        "to" : "0x095e7baea6a6c7c4c2dfeb977efac326af552d87",
                        "value" : "0x00",
                        "v" : "0x1c",
                        "r" : "0x96fe0bdc8ea5e06836f0a4bdebad21024a56b36549e00aeae0d3d5e8c6f32302",
                        "s" : "0x21b8b5010ea4464453625562c4c0f0ec3039d1ed042db1e5cf02fb9e33d0b8d5"
                    }
                ],
                "uncleHeaders" : [
                ]
            }
        ]
    },
    "static_callWithHighValue_d0g0v0_Istanbul" : {
        "_info" : {
            "comment" : "",
            "filling-rpc-server" : "evm version 1.10.4-unstable-966ee3ae-20210528",
            "filling-tool-version" : "retesteth-0.1.1-eip1559+commit.658fc3a8.Linux.g++",
            "lllcversion" : "Version: 0.5.14-develop.2021.5.18+commit.14c9d5de.mod.Linux.g++",
            "source" : "src/GeneralStateTestsFiller/stStaticCall/static_callWithHighValueFiller.json",
            "sourceHash" : "cb15410ae94b63d478ce1ba9a7f843933b75d0834385428d17cf963e74c51bb6"
        },
        "genesisBlockHeader" : {
            "bloom" : "0x00000000000000000000000000000000000000000000000000000000000000000000000000000000000000000000000000000000000000000000000000000000000000000000000000000000000000000000000000000000000000000000000000000000000000000000000000000000000000000000000000000000000000000000000000000000000000000000000000000000000000000000000000000000000000000000000000000000000000000000000000000000000000000000000000000000000000000000000000000000000000000000000000000000000000000000000000000000000000000000000000000000000000000000000000000000",
            "coinbase" : "0x2adc25665018aa1fe0e6bc666dac8fc2697ff9ba",
            "difficulty" : "0x020000",
            "extraData" : "0x00",
            "gasLimit" : "0x01c9c380",
            "gasUsed" : "0x00",
            "hash" : "0xb0fb13760a54ef132ee3079ecec95bb4d0e37f0b102d2082f7ea2eb08f19f66a",
            "mixHash" : "0x0000000000000000000000000000000000000000000000000000000000000000",
            "nonce" : "0x0000000000000000",
            "number" : "0x00",
            "parentHash" : "0x0000000000000000000000000000000000000000000000000000000000000000",
            "receiptTrie" : "0x56e81f171bcc55a6ff8345e692c0f86e5b48e01b996cadc001622fb5e363b421",
            "stateRoot" : "0x630e8ea0756d367a8aaed9bb4416440ff9cf7274a438de26a306cbd459939588",
            "timestamp" : "0x00",
            "transactionsTrie" : "0x56e81f171bcc55a6ff8345e692c0f86e5b48e01b996cadc001622fb5e363b421",
            "uncleHash" : "0x1dcc4de8dec75d7aab85b567b6ccd41ad312451b948a7413f0a142fd40d49347"
        },
        "pre" : {
            "0x095e7baea6a6c7c4c2dfeb977efac326af552d87" : {
                "balance" : "0x0de0b6b3a7640000",
                "code" : "0x600260006040600073945304eb96065b2a98b57a48a06ae28d285a71b561c350fa600055600160015500",
                "nonce" : "0x00",
                "storage" : {
                }
            },
            "0x945304eb96065b2a98b57a48a06ae28d285a71b5" : {
                "balance" : "0x17",
                "code" : "0x603760005360026000f3",
                "nonce" : "0x00",
                "storage" : {
                }
            },
            "0xa94f5374fce5edbc8e2a8697c15331677e6ebf0b" : {
                "balance" : "0x0de0b6b3a7640000",
                "code" : "0x",
                "nonce" : "0x00",
                "storage" : {
                }
            }
        },
        "postState" : {
            "0x095e7baea6a6c7c4c2dfeb977efac326af552d87" : {
                "code" : "0x600260006040600073945304eb96065b2a98b57a48a06ae28d285a71b561c350fa600055600160015500",
                "nonce" : "0x00",
                "balance" : "0x0de0b6b3a7640000",
                "storage" : {
                    "0x00" : "0x01",
                    "0x01" : "0x01"
                }
            },
            "0x2adc25665018aa1fe0e6bc666dac8fc2697ff9ba" : {
                "code" : "0x",
                "nonce" : "0x00",
                "balance" : "0x1bc16d674ed16c26",
                "storage" : {
                }
            },
            "0x945304eb96065b2a98b57a48a06ae28d285a71b5" : {
                "code" : "0x603760005360026000f3",
                "nonce" : "0x00",
                "balance" : "0x17",
                "storage" : {
                }
            },
            "0xa94f5374fce5edbc8e2a8697c15331677e6ebf0b" : {
                "code" : "0x",
                "nonce" : "0x01",
                "balance" : "0x0de0b6b3a75a93da",
                "storage" : {
                }
            }
        },
        "network" : "Istanbul",
        "sealEngine" : "NoProof",
        "lastblockhash" : "0xd228d63119ac88d698ba1fb855ea327c4e478fc41dc48d942196f0635146f122",
        "genesisRLP" : "0xf901f9f901f4a00000000000000000000000000000000000000000000000000000000000000000a01dcc4de8dec75d7aab85b567b6ccd41ad312451b948a7413f0a142fd40d49347942adc25665018aa1fe0e6bc666dac8fc2697ff9baa0630e8ea0756d367a8aaed9bb4416440ff9cf7274a438de26a306cbd459939588a056e81f171bcc55a6ff8345e692c0f86e5b48e01b996cadc001622fb5e363b421a056e81f171bcc55a6ff8345e692c0f86e5b48e01b996cadc001622fb5e363b421b901000000000000000000000000000000000000000000000000000000000000000000000000000000000000000000000000000000000000000000000000000000000000000000000000000000000000000000000000000000000000000000000000000000000000000000000000000000000000000000000000000000000000000000000000000000000000000000000000000000000000000000000000000000000000000000000000000000000000000000000000000000000000000000000000000000000000000000000000000000000000000000000000000000000000000000000000000000000000000000000000000000000000000000000000000000000083020000808401c9c380808000a00000000000000000000000000000000000000000000000000000000000000000880000000000000000c0c0",
        "blocks" : [
            {
                "rlp" : "0xf90260f901f8a0b0fb13760a54ef132ee3079ecec95bb4d0e37f0b102d2082f7ea2eb08f19f66aa01dcc4de8dec75d7aab85b567b6ccd41ad312451b948a7413f0a142fd40d49347942adc25665018aa1fe0e6bc666dac8fc2697ff9baa06b33be1fa2f437c3d3c736cbcd6d81406f4de4dd820a717990d28bfeb47b2585a06434509a2d7d87f5d6f7dcccb6eb25db092f0ec3ab6a48c90d4eb2b5715fb57ba092b4fe77720e0ce1e248b133d68abc4bb2fa148f7504552029c02ff9b5c4aef3b901000000000000000000000000000000000000000000000000000000000000000000000000000000000000000000000000000000000000000000000000000000000000000000000000000000000000000000000000000000000000000000000000000000000000000000000000000000000000000000000000000000000000000000000000000000000000000000000000000000000000000000000000000000000000000000000000000000000000000000000000000000000000000000000000000000000000000000000000000000000000000000000000000000000000000000000000000000000000000000000000000000000000000000000000000000000083020000018401c9c38082f1378203e800a00000000000000000000000000000000000000000000000000000000000000000880000000000000000f862f860800a832dc6c094095e7baea6a6c7c4c2dfeb977efac326af552d8780801ca096fe0bdc8ea5e06836f0a4bdebad21024a56b36549e00aeae0d3d5e8c6f32302a021b8b5010ea4464453625562c4c0f0ec3039d1ed042db1e5cf02fb9e33d0b8d5c0",
                "blockHeader" : {
                    "bloom" : "0x00000000000000000000000000000000000000000000000000000000000000000000000000000000000000000000000000000000000000000000000000000000000000000000000000000000000000000000000000000000000000000000000000000000000000000000000000000000000000000000000000000000000000000000000000000000000000000000000000000000000000000000000000000000000000000000000000000000000000000000000000000000000000000000000000000000000000000000000000000000000000000000000000000000000000000000000000000000000000000000000000000000000000000000000000000000",
                    "coinbase" : "0x2adc25665018aa1fe0e6bc666dac8fc2697ff9ba",
                    "difficulty" : "0x020000",
                    "extraData" : "0x00",
                    "gasLimit" : "0x01c9c380",
                    "gasUsed" : "0xf137",
                    "hash" : "0xd228d63119ac88d698ba1fb855ea327c4e478fc41dc48d942196f0635146f122",
                    "mixHash" : "0x0000000000000000000000000000000000000000000000000000000000000000",
                    "nonce" : "0x0000000000000000",
                    "number" : "0x01",
                    "parentHash" : "0xb0fb13760a54ef132ee3079ecec95bb4d0e37f0b102d2082f7ea2eb08f19f66a",
                    "receiptTrie" : "0x92b4fe77720e0ce1e248b133d68abc4bb2fa148f7504552029c02ff9b5c4aef3",
                    "stateRoot" : "0x6b33be1fa2f437c3d3c736cbcd6d81406f4de4dd820a717990d28bfeb47b2585",
                    "timestamp" : "0x03e8",
                    "transactionsTrie" : "0x6434509a2d7d87f5d6f7dcccb6eb25db092f0ec3ab6a48c90d4eb2b5715fb57b",
                    "uncleHash" : "0x1dcc4de8dec75d7aab85b567b6ccd41ad312451b948a7413f0a142fd40d49347"
                },
                "transactions" : [
                    {
                        "data" : "0x",
                        "gasLimit" : "0x2dc6c0",
                        "gasPrice" : "0x0a",
                        "nonce" : "0x00",
                        "to" : "0x095e7baea6a6c7c4c2dfeb977efac326af552d87",
                        "value" : "0x00",
                        "v" : "0x1c",
                        "r" : "0x96fe0bdc8ea5e06836f0a4bdebad21024a56b36549e00aeae0d3d5e8c6f32302",
                        "s" : "0x21b8b5010ea4464453625562c4c0f0ec3039d1ed042db1e5cf02fb9e33d0b8d5"
                    }
                ],
                "uncleHeaders" : [
                ]
            }
        ]
    },
    "static_callWithHighValue_d0g0v0_London" : {
        "_info" : {
            "comment" : "",
            "filling-rpc-server" : "evm version 1.10.4-unstable-966ee3ae-20210528",
            "filling-tool-version" : "retesteth-0.1.1-eip1559+commit.658fc3a8.Linux.g++",
            "lllcversion" : "Version: 0.5.14-develop.2021.5.18+commit.14c9d5de.mod.Linux.g++",
            "source" : "src/GeneralStateTestsFiller/stStaticCall/static_callWithHighValueFiller.json",
            "sourceHash" : "cb15410ae94b63d478ce1ba9a7f843933b75d0834385428d17cf963e74c51bb6"
        },
        "genesisBlockHeader" : {
            "bloom" : "0x00000000000000000000000000000000000000000000000000000000000000000000000000000000000000000000000000000000000000000000000000000000000000000000000000000000000000000000000000000000000000000000000000000000000000000000000000000000000000000000000000000000000000000000000000000000000000000000000000000000000000000000000000000000000000000000000000000000000000000000000000000000000000000000000000000000000000000000000000000000000000000000000000000000000000000000000000000000000000000000000000000000000000000000000000000000",
            "coinbase" : "0x2adc25665018aa1fe0e6bc666dac8fc2697ff9ba",
            "difficulty" : "0x020000",
            "extraData" : "0x00",
            "gasLimit" : "0x01c9c380",
            "gasUsed" : "0x00",
            "hash" : "0x78105d08c4828f68f7b1de27607513e8942d6084c5a4b8653d00d06019791a6a",
            "mixHash" : "0x0000000000000000000000000000000000000000000000000000000000000000",
            "nonce" : "0x0000000000000000",
            "number" : "0x00",
            "parentHash" : "0x0000000000000000000000000000000000000000000000000000000000000000",
            "receiptTrie" : "0x56e81f171bcc55a6ff8345e692c0f86e5b48e01b996cadc001622fb5e363b421",
            "stateRoot" : "0x630e8ea0756d367a8aaed9bb4416440ff9cf7274a438de26a306cbd459939588",
            "timestamp" : "0x00",
            "transactionsTrie" : "0x56e81f171bcc55a6ff8345e692c0f86e5b48e01b996cadc001622fb5e363b421",
            "uncleHash" : "0x1dcc4de8dec75d7aab85b567b6ccd41ad312451b948a7413f0a142fd40d49347",
            "baseFee" : "0x0b"
        },
        "pre" : {
            "0x095e7baea6a6c7c4c2dfeb977efac326af552d87" : {
                "balance" : "0x0de0b6b3a7640000",
                "code" : "0x600260006040600073945304eb96065b2a98b57a48a06ae28d285a71b561c350fa600055600160015500",
                "nonce" : "0x00",
                "storage" : {
                }
            },
            "0x945304eb96065b2a98b57a48a06ae28d285a71b5" : {
                "balance" : "0x17",
                "code" : "0x603760005360026000f3",
                "nonce" : "0x00",
                "storage" : {
                }
            },
            "0xa94f5374fce5edbc8e2a8697c15331677e6ebf0b" : {
                "balance" : "0x0de0b6b3a7640000",
                "code" : "0x",
                "nonce" : "0x00",
                "storage" : {
                }
            }
        },
        "postState" : {
            "0x095e7baea6a6c7c4c2dfeb977efac326af552d87" : {
                "code" : "0x600260006040600073945304eb96065b2a98b57a48a06ae28d285a71b561c350fa600055600160015500",
                "nonce" : "0x00",
                "balance" : "0x0de0b6b3a7640000",
                "storage" : {
                    "0x00" : "0x01",
                    "0x01" : "0x01"
                }
            },
            "0x2adc25665018aa1fe0e6bc666dac8fc2697ff9ba" : {
                "code" : "0x",
                "nonce" : "0x00",
                "balance" : "0x1bc16d674ec80000",
                "storage" : {
                }
            },
            "0x945304eb96065b2a98b57a48a06ae28d285a71b5" : {
                "code" : "0x603760005360026000f3",
                "nonce" : "0x00",
                "balance" : "0x17",
                "storage" : {
                }
            },
            "0xa94f5374fce5edbc8e2a8697c15331677e6ebf0b" : {
                "code" : "0x",
                "nonce" : "0x01",
                "balance" : "0x0de0b6b3a759a592",
                "storage" : {
                }
            }
        },
        "network" : "London",
        "sealEngine" : "NoProof",
        "lastblockhash" : "0x7f74701253bafe89c988b8024046c53215f34b137010a4bda34fccb265f3a9c6",
        "genesisRLP" : "0xf901faf901f5a00000000000000000000000000000000000000000000000000000000000000000a01dcc4de8dec75d7aab85b567b6ccd41ad312451b948a7413f0a142fd40d49347942adc25665018aa1fe0e6bc666dac8fc2697ff9baa0630e8ea0756d367a8aaed9bb4416440ff9cf7274a438de26a306cbd459939588a056e81f171bcc55a6ff8345e692c0f86e5b48e01b996cadc001622fb5e363b421a056e81f171bcc55a6ff8345e692c0f86e5b48e01b996cadc001622fb5e363b421b901000000000000000000000000000000000000000000000000000000000000000000000000000000000000000000000000000000000000000000000000000000000000000000000000000000000000000000000000000000000000000000000000000000000000000000000000000000000000000000000000000000000000000000000000000000000000000000000000000000000000000000000000000000000000000000000000000000000000000000000000000000000000000000000000000000000000000000000000000000000000000000000000000000000000000000000000000000000000000000000000000000000000000000000000000000000083020000808401c9c380808000a000000000000000000000000000000000000000000000000000000000000000008800000000000000000bc0c0",
        "blocks" : [
            {
                "rlp" : "0xf90262f901faa078105d08c4828f68f7b1de27607513e8942d6084c5a4b8653d00d06019791a6aa01dcc4de8dec75d7aab85b567b6ccd41ad312451b948a7413f0a142fd40d49347942adc25665018aa1fe0e6bc666dac8fc2697ff9baa0122ea83bf73b7ad7224b3625d81e1dc459b85471a3a2a0057bdf4a71e1ccfa08a06434509a2d7d87f5d6f7dcccb6eb25db092f0ec3ab6a48c90d4eb2b5715fb57ba04040b94ebbdf4fd29eff96b428d2d3d7157a8a7d58b33f1457e67ec810df4a86b901000000000000000000000000000000000000000000000000000000000000000000000000000000000000000000000000000000000000000000000000000000000000000000000000000000000000000000000000000000000000000000000000000000000000000000000000000000000000000000000000000000000000000000000000000000000000000000000000000000000000000000000000000000000000000000000000000000000000000000000000000000000000000000000000000000000000000000000000000000000000000000000000000000000000000000000000000000000000000000000000000000000000000000000000000000000083020000018401c9c3808301090b8203e800a000000000000000000000000000000000000000000000000000000000000000008800000000000000000af862f860800a832dc6c094095e7baea6a6c7c4c2dfeb977efac326af552d8780801ca096fe0bdc8ea5e06836f0a4bdebad21024a56b36549e00aeae0d3d5e8c6f32302a021b8b5010ea4464453625562c4c0f0ec3039d1ed042db1e5cf02fb9e33d0b8d5c0",
                "blockHeader" : {
                    "bloom" : "0x00000000000000000000000000000000000000000000000000000000000000000000000000000000000000000000000000000000000000000000000000000000000000000000000000000000000000000000000000000000000000000000000000000000000000000000000000000000000000000000000000000000000000000000000000000000000000000000000000000000000000000000000000000000000000000000000000000000000000000000000000000000000000000000000000000000000000000000000000000000000000000000000000000000000000000000000000000000000000000000000000000000000000000000000000000000",
                    "coinbase" : "0x2adc25665018aa1fe0e6bc666dac8fc2697ff9ba",
                    "difficulty" : "0x020000",
                    "extraData" : "0x00",
                    "gasLimit" : "0x01c9c380",
                    "gasUsed" : "0x01090b",
                    "hash" : "0x7f74701253bafe89c988b8024046c53215f34b137010a4bda34fccb265f3a9c6",
                    "mixHash" : "0x0000000000000000000000000000000000000000000000000000000000000000",
                    "nonce" : "0x0000000000000000",
                    "number" : "0x01",
                    "parentHash" : "0x78105d08c4828f68f7b1de27607513e8942d6084c5a4b8653d00d06019791a6a",
                    "receiptTrie" : "0x4040b94ebbdf4fd29eff96b428d2d3d7157a8a7d58b33f1457e67ec810df4a86",
                    "stateRoot" : "0x122ea83bf73b7ad7224b3625d81e1dc459b85471a3a2a0057bdf4a71e1ccfa08",
                    "timestamp" : "0x03e8",
                    "transactionsTrie" : "0x6434509a2d7d87f5d6f7dcccb6eb25db092f0ec3ab6a48c90d4eb2b5715fb57b",
                    "uncleHash" : "0x1dcc4de8dec75d7aab85b567b6ccd41ad312451b948a7413f0a142fd40d49347",
                    "baseFee" : "0x0a"
                },
                "transactions" : [
                    {
                        "data" : "0x",
                        "gasLimit" : "0x2dc6c0",
                        "gasPrice" : "0x0a",
                        "nonce" : "0x00",
                        "to" : "0x095e7baea6a6c7c4c2dfeb977efac326af552d87",
                        "value" : "0x00",
                        "v" : "0x1c",
                        "r" : "0x96fe0bdc8ea5e06836f0a4bdebad21024a56b36549e00aeae0d3d5e8c6f32302",
                        "s" : "0x21b8b5010ea4464453625562c4c0f0ec3039d1ed042db1e5cf02fb9e33d0b8d5"
                    }
                ],
                "uncleHeaders" : [
                ]
            }
        ]
    }
}