{
    "static_callToDelCallOpCodeCheck_d0g0v0_Berlin" : {
        "_info" : {
            "comment" : "",
            "filling-rpc-server" : "evm version 1.10.4-unstable-966ee3ae-20210528",
            "filling-tool-version" : "retesteth-0.1.1-eip1559+commit.658fc3a8.Linux.g++",
            "lllcversion" : "Version: 0.5.14-develop.2021.5.18+commit.14c9d5de.mod.Linux.g++",
            "source" : "src/GeneralStateTestsFiller/stStaticCall/static_callToDelCallOpCodeCheckFiller.json",
            "sourceHash" : "d5ecdda3e505bd7855b18f61cbedb8bb260c486b58fe48cb5e0df9253617a0cf"
        },
        "genesisBlockHeader" : {
            "bloom" : "0x00000000000000000000000000000000000000000000000000000000000000000000000000000000000000000000000000000000000000000000000000000000000000000000000000000000000000000000000000000000000000000000000000000000000000000000000000000000000000000000000000000000000000000000000000000000000000000000000000000000000000000000000000000000000000000000000000000000000000000000000000000000000000000000000000000000000000000000000000000000000000000000000000000000000000000000000000000000000000000000000000000000000000000000000000000000",
            "coinbase" : "0x2adc25665018aa1fe0e6bc666dac8fc2697ff9ba",
            "difficulty" : "0x020000",
            "extraData" : "0x00",
            "gasLimit" : "0x989680",
            "gasUsed" : "0x00",
            "hash" : "0x30a6271616d2704a801b2101c514504af44ff7e938db2fb04b33c4c31446b0bc",
            "mixHash" : "0x0000000000000000000000000000000000000000000000000000000000000000",
            "nonce" : "0x0000000000000000",
            "number" : "0x00",
            "parentHash" : "0x0000000000000000000000000000000000000000000000000000000000000000",
            "receiptTrie" : "0x56e81f171bcc55a6ff8345e692c0f86e5b48e01b996cadc001622fb5e363b421",
            "stateRoot" : "0xe5b3fe4a759f414cc1a40ac2f2602abc3a3b55961b98fa8b01d0d9d666f81c14",
            "timestamp" : "0x00",
            "transactionsTrie" : "0x56e81f171bcc55a6ff8345e692c0f86e5b48e01b996cadc001622fb5e363b421",
            "uncleHash" : "0x1dcc4de8dec75d7aab85b567b6ccd41ad312451b948a7413f0a142fd40d49347"
        },
        "pre" : {
            "0x1000000000000000000000000000000000000000" : {
                "balance" : "0x0de0b6b3a7640000",
                "code" : "0x6000600060006000600035620186a0fa60005500",
                "nonce" : "0x00",
                "storage" : {
                }
            },
            "0x1000000000000000000000000000000000000001" : {
                "balance" : "0x0de0b6b3a7640000",
                "code" : "0x6000600060006000731000000000000000000000000000000000000002620186a0f46000526000516001146036576001600155603c565b60016001525b00",
                "nonce" : "0x00",
                "storage" : {
                }
            },
            "0x1000000000000000000000000000000000000002" : {
                "balance" : "0x0de0b6b3a7640000",
                "code" : "0x3273a94f5374fce5edbc8e2a8697c15331677e6ebf0b1460225760026001556028565b60016001525b3373100000000000000000000000000000000000000014604b5760026001556051565b60016001525b30731000000000000000000000000000000000000001146074576002600155607a565b60016001525b34600014608a5760026001556090565b60016001525b00",
                "nonce" : "0x00",
                "storage" : {
                }
            },
            "0xa94f5374fce5edbc8e2a8697c15331677e6ebf0b" : {
                "balance" : "0x0de0b6b3a7640000",
                "code" : "0x",
                "nonce" : "0x00",
                "storage" : {
                }
            }
        },
        "postState" : {
            "0x1000000000000000000000000000000000000000" : {
                "code" : "0x6000600060006000600035620186a0fa60005500",
                "nonce" : "0x00",
                "balance" : "0x0de0b6b3a76586a0",
                "storage" : {
                    "0x00" : "0x01"
                }
            },
            "0x1000000000000000000000000000000000000001" : {
                "code" : "0x6000600060006000731000000000000000000000000000000000000002620186a0f46000526000516001146036576001600155603c565b60016001525b00",
                "nonce" : "0x00",
                "balance" : "0x0de0b6b3a7640000",
                "storage" : {
                }
            },
            "0x1000000000000000000000000000000000000002" : {
                "code" : "0x3273a94f5374fce5edbc8e2a8697c15331677e6ebf0b1460225760026001556028565b60016001525b3373100000000000000000000000000000000000000014604b5760026001556051565b60016001525b30731000000000000000000000000000000000000001146074576002600155607a565b60016001525b34600014608a5760026001556090565b60016001525b00",
                "nonce" : "0x00",
                "balance" : "0x0de0b6b3a7640000",
                "storage" : {
                }
            },
            "0x2adc25665018aa1fe0e6bc666dac8fc2697ff9ba" : {
                "code" : "0x",
                "nonce" : "0x00",
                "balance" : "0x1bc16d674ecf6d68",
                "storage" : {
                }
            },
            "0xa94f5374fce5edbc8e2a8697c15331677e6ebf0b" : {
                "code" : "0x",
                "nonce" : "0x01",
                "balance" : "0x0de0b6b3a75b0bf8",
                "storage" : {
                }
            }
        },
        "network" : "Berlin",
        "sealEngine" : "NoProof",
        "lastblockhash" : "0xa480696e9b53634a50095f1ba601186256cd68f9b58b8203a1efe2fb9b2a1536",
        "genesisRLP" : "0xf901f8f901f3a00000000000000000000000000000000000000000000000000000000000000000a01dcc4de8dec75d7aab85b567b6ccd41ad312451b948a7413f0a142fd40d49347942adc25665018aa1fe0e6bc666dac8fc2697ff9baa0e5b3fe4a759f414cc1a40ac2f2602abc3a3b55961b98fa8b01d0d9d666f81c14a056e81f171bcc55a6ff8345e692c0f86e5b48e01b996cadc001622fb5e363b421a056e81f171bcc55a6ff8345e692c0f86e5b48e01b996cadc001622fb5e363b421b9010000000000000000000000000000000000000000000000000000000000000000000000000000000000000000000000000000000000000000000000000000000000000000000000000000000000000000000000000000000000000000000000000000000000000000000000000000000000000000000000000000000000000000000000000000000000000000000000000000000000000000000000000000000000000000000000000000000000000000000000000000000000000000000000000000000000000000000000000000000000000000000000000000000000000000000000000000000000000000000000000000000000000000000000000000000000830200008083989680808000a00000000000000000000000000000000000000000000000000000000000000000880000000000000000c0c0",
        "blocks" : [
            {
                "rlp" : "0xf90281f901f7a030a6271616d2704a801b2101c514504af44ff7e938db2fb04b33c4c31446b0bca01dcc4de8dec75d7aab85b567b6ccd41ad312451b948a7413f0a142fd40d49347942adc25665018aa1fe0e6bc666dac8fc2697ff9baa0e6dc105037fc35af6f680c0e23b80a42e499ed97d6bcaad0bf937d291c7607f9a0049609a33d435c8430ca1d31d3b447d9d176d523e8eb21c309c2286a3f2547dca040d3c71fad7a0ddffba5c32bf50bacc9cd09c7fe74004c00b5dc3be3e9bade0db901000000000000000000000000000000000000000000000000000000000000000000000000000000000000000000000000000000000000000000000000000000000000000000000000000000000000000000000000000000000000000000000000000000000000000000000000000000000000000000000000000000000000000000000000000000000000000000000000000000000000000000000000000000000000000000000000000000000000000000000000000000000000000000000000000000000000000000000000000000000000000000000000000000000000000000000000000000000000000000000000000000000000000000000000000000000083020000018398968082be248203e800a00000000000000000000000000000000000000000000000000000000000000000880000000000000000f884f882800a830f4240941000000000000000000000000000000000000000830186a0a000000000000000000000000010000000000000000000000000000000000000011ca0514e6d57b27c36a1adf5890b29f2022eb31ca22c9caf7ec23173cce0e205b1fa9f2b4089c9e9eb460c07d87a38b69fb5ee99cc7fdf6b3a4da9b485c0ba654a5bc0",
                "blockHeader" : {
                    "bloom" : "0x00000000000000000000000000000000000000000000000000000000000000000000000000000000000000000000000000000000000000000000000000000000000000000000000000000000000000000000000000000000000000000000000000000000000000000000000000000000000000000000000000000000000000000000000000000000000000000000000000000000000000000000000000000000000000000000000000000000000000000000000000000000000000000000000000000000000000000000000000000000000000000000000000000000000000000000000000000000000000000000000000000000000000000000000000000000",
                    "coinbase" : "0x2adc25665018aa1fe0e6bc666dac8fc2697ff9ba",
                    "difficulty" : "0x020000",
                    "extraData" : "0x00",
                    "gasLimit" : "0x989680",
                    "gasUsed" : "0xbe24",
                    "hash" : "0xa480696e9b53634a50095f1ba601186256cd68f9b58b8203a1efe2fb9b2a1536",
                    "mixHash" : "0x0000000000000000000000000000000000000000000000000000000000000000",
                    "nonce" : "0x0000000000000000",
                    "number" : "0x01",
                    "parentHash" : "0x30a6271616d2704a801b2101c514504af44ff7e938db2fb04b33c4c31446b0bc",
                    "receiptTrie" : "0x40d3c71fad7a0ddffba5c32bf50bacc9cd09c7fe74004c00b5dc3be3e9bade0d",
                    "stateRoot" : "0xe6dc105037fc35af6f680c0e23b80a42e499ed97d6bcaad0bf937d291c7607f9",
                    "timestamp" : "0x03e8",
                    "transactionsTrie" : "0x049609a33d435c8430ca1d31d3b447d9d176d523e8eb21c309c2286a3f2547dc",
                    "uncleHash" : "0x1dcc4de8dec75d7aab85b567b6ccd41ad312451b948a7413f0a142fd40d49347"
                },
                "transactions" : [
                    {
                        "data" : "0x0000000000000000000000001000000000000000000000000000000000000001",
                        "gasLimit" : "0x0f4240",
                        "gasPrice" : "0x0a",
                        "nonce" : "0x00",
                        "to" : "0x1000000000000000000000000000000000000000",
                        "value" : "0x0186a0",
                        "v" : "0x1c",
                        "r" : "0x514e6d57b27c36a1adf5890b29f2022eb31ca22c9caf7ec23173cce0e205b1fa",
                        "s" : "0x2b4089c9e9eb460c07d87a38b69fb5ee99cc7fdf6b3a4da9b485c0ba654a5b"
                    }
                ],
                "uncleHeaders" : [
                ]
            }
        ]
    },
    "static_callToDelCallOpCodeCheck_d0g0v0_Istanbul" : {
        "_info" : {
            "comment" : "",
            "filling-rpc-server" : "evm version 1.10.4-unstable-966ee3ae-20210528",
            "filling-tool-version" : "retesteth-0.1.1-eip1559+commit.658fc3a8.Linux.g++",
            "lllcversion" : "Version: 0.5.14-develop.2021.5.18+commit.14c9d5de.mod.Linux.g++",
            "source" : "src/GeneralStateTestsFiller/stStaticCall/static_callToDelCallOpCodeCheckFiller.json",
            "sourceHash" : "d5ecdda3e505bd7855b18f61cbedb8bb260c486b58fe48cb5e0df9253617a0cf"
        },
        "genesisBlockHeader" : {
            "bloom" : "0x00000000000000000000000000000000000000000000000000000000000000000000000000000000000000000000000000000000000000000000000000000000000000000000000000000000000000000000000000000000000000000000000000000000000000000000000000000000000000000000000000000000000000000000000000000000000000000000000000000000000000000000000000000000000000000000000000000000000000000000000000000000000000000000000000000000000000000000000000000000000000000000000000000000000000000000000000000000000000000000000000000000000000000000000000000000",
            "coinbase" : "0x2adc25665018aa1fe0e6bc666dac8fc2697ff9ba",
            "difficulty" : "0x020000",
            "extraData" : "0x00",
            "gasLimit" : "0x989680",
            "gasUsed" : "0x00",
            "hash" : "0x30a6271616d2704a801b2101c514504af44ff7e938db2fb04b33c4c31446b0bc",
            "mixHash" : "0x0000000000000000000000000000000000000000000000000000000000000000",
            "nonce" : "0x0000000000000000",
            "number" : "0x00",
            "parentHash" : "0x0000000000000000000000000000000000000000000000000000000000000000",
            "receiptTrie" : "0x56e81f171bcc55a6ff8345e692c0f86e5b48e01b996cadc001622fb5e363b421",
            "stateRoot" : "0xe5b3fe4a759f414cc1a40ac2f2602abc3a3b55961b98fa8b01d0d9d666f81c14",
            "timestamp" : "0x00",
            "transactionsTrie" : "0x56e81f171bcc55a6ff8345e692c0f86e5b48e01b996cadc001622fb5e363b421",
            "uncleHash" : "0x1dcc4de8dec75d7aab85b567b6ccd41ad312451b948a7413f0a142fd40d49347"
        },
        "pre" : {
            "0x1000000000000000000000000000000000000000" : {
                "balance" : "0x0de0b6b3a7640000",
                "code" : "0x6000600060006000600035620186a0fa60005500",
                "nonce" : "0x00",
                "storage" : {
                }
            },
            "0x1000000000000000000000000000000000000001" : {
                "balance" : "0x0de0b6b3a7640000",
                "code" : "0x6000600060006000731000000000000000000000000000000000000002620186a0f46000526000516001146036576001600155603c565b60016001525b00",
                "nonce" : "0x00",
                "storage" : {
                }
            },
            "0x1000000000000000000000000000000000000002" : {
                "balance" : "0x0de0b6b3a7640000",
                "code" : "0x3273a94f5374fce5edbc8e2a8697c15331677e6ebf0b1460225760026001556028565b60016001525b3373100000000000000000000000000000000000000014604b5760026001556051565b60016001525b30731000000000000000000000000000000000000001146074576002600155607a565b60016001525b34600014608a5760026001556090565b60016001525b00",
                "nonce" : "0x00",
                "storage" : {
                }
            },
            "0xa94f5374fce5edbc8e2a8697c15331677e6ebf0b" : {
                "balance" : "0x0de0b6b3a7640000",
                "code" : "0x",
                "nonce" : "0x00",
                "storage" : {
                }
            }
        },
        "postState" : {
            "0x1000000000000000000000000000000000000000" : {
                "code" : "0x6000600060006000600035620186a0fa60005500",
                "nonce" : "0x00",
                "balance" : "0x0de0b6b3a76586a0",
                "storage" : {
                    "0x00" : "0x01"
                }
            },
            "0x1000000000000000000000000000000000000001" : {
                "code" : "0x6000600060006000731000000000000000000000000000000000000002620186a0f46000526000516001146036576001600155603c565b60016001525b00",
                "nonce" : "0x00",
                "balance" : "0x0de0b6b3a7640000",
                "storage" : {
                }
            },
            "0x1000000000000000000000000000000000000002" : {
                "code" : "0x3273a94f5374fce5edbc8e2a8697c15331677e6ebf0b1460225760026001556028565b60016001525b3373100000000000000000000000000000000000000014604b5760026001556051565b60016001525b30731000000000000000000000000000000000000001146074576002600155607a565b60016001525b34600014608a5760026001556090565b60016001525b00",
                "nonce" : "0x00",
                "balance" : "0x0de0b6b3a7640000",
                "storage" : {
                }
            },
            "0x2adc25665018aa1fe0e6bc666dac8fc2697ff9ba" : {
                "code" : "0x",
                "nonce" : "0x00",
                "balance" : "0x1bc16d674ece86f0",
                "storage" : {
                }
            },
            "0xa94f5374fce5edbc8e2a8697c15331677e6ebf0b" : {
                "code" : "0x",
                "nonce" : "0x01",
                "balance" : "0x0de0b6b3a75bf270",
                "storage" : {
                }
            }
        },
        "network" : "Istanbul",
        "sealEngine" : "NoProof",
        "lastblockhash" : "0x9662aba5882807f76398de609eeec0f569f4af054218d62b1bc539c06db76d89",
        "genesisRLP" : "0xf901f8f901f3a00000000000000000000000000000000000000000000000000000000000000000a01dcc4de8dec75d7aab85b567b6ccd41ad312451b948a7413f0a142fd40d49347942adc25665018aa1fe0e6bc666dac8fc2697ff9baa0e5b3fe4a759f414cc1a40ac2f2602abc3a3b55961b98fa8b01d0d9d666f81c14a056e81f171bcc55a6ff8345e692c0f86e5b48e01b996cadc001622fb5e363b421a056e81f171bcc55a6ff8345e692c0f86e5b48e01b996cadc001622fb5e363b421b9010000000000000000000000000000000000000000000000000000000000000000000000000000000000000000000000000000000000000000000000000000000000000000000000000000000000000000000000000000000000000000000000000000000000000000000000000000000000000000000000000000000000000000000000000000000000000000000000000000000000000000000000000000000000000000000000000000000000000000000000000000000000000000000000000000000000000000000000000000000000000000000000000000000000000000000000000000000000000000000000000000000000000000000000000000000000830200008083989680808000a00000000000000000000000000000000000000000000000000000000000000000880000000000000000c0c0",
        "blocks" : [
            {
                "rlp" : "0xf90281f901f7a030a6271616d2704a801b2101c514504af44ff7e938db2fb04b33c4c31446b0bca01dcc4de8dec75d7aab85b567b6ccd41ad312451b948a7413f0a142fd40d49347942adc25665018aa1fe0e6bc666dac8fc2697ff9baa02db4c51fa67b55b1389b58591931c6fe3e782f6baad56f8279d908f89ccd7730a0049609a33d435c8430ca1d31d3b447d9d176d523e8eb21c309c2286a3f2547dca02ce023c48068a51dc271a6f3d0935bb51eccd519f88ca314787fad6a0b20d123b901000000000000000000000000000000000000000000000000000000000000000000000000000000000000000000000000000000000000000000000000000000000000000000000000000000000000000000000000000000000000000000000000000000000000000000000000000000000000000000000000000000000000000000000000000000000000000000000000000000000000000000000000000000000000000000000000000000000000000000000000000000000000000000000000000000000000000000000000000000000000000000000000000000000000000000000000000000000000000000000000000000000000000000000000000000000083020000018398968082a7188203e800a00000000000000000000000000000000000000000000000000000000000000000880000000000000000f884f882800a830f4240941000000000000000000000000000000000000000830186a0a000000000000000000000000010000000000000000000000000000000000000011ca0514e6d57b27c36a1adf5890b29f2022eb31ca22c9caf7ec23173cce0e205b1fa9f2b4089c9e9eb460c07d87a38b69fb5ee99cc7fdf6b3a4da9b485c0ba654a5bc0",
                "blockHeader" : {
                    "bloom" : "0x00000000000000000000000000000000000000000000000000000000000000000000000000000000000000000000000000000000000000000000000000000000000000000000000000000000000000000000000000000000000000000000000000000000000000000000000000000000000000000000000000000000000000000000000000000000000000000000000000000000000000000000000000000000000000000000000000000000000000000000000000000000000000000000000000000000000000000000000000000000000000000000000000000000000000000000000000000000000000000000000000000000000000000000000000000000",
                    "coinbase" : "0x2adc25665018aa1fe0e6bc666dac8fc2697ff9ba",
                    "difficulty" : "0x020000",
                    "extraData" : "0x00",
                    "gasLimit" : "0x989680",
                    "gasUsed" : "0xa718",
                    "hash" : "0x9662aba5882807f76398de609eeec0f569f4af054218d62b1bc539c06db76d89",
                    "mixHash" : "0x0000000000000000000000000000000000000000000000000000000000000000",
                    "nonce" : "0x0000000000000000",
                    "number" : "0x01",
                    "parentHash" : "0x30a6271616d2704a801b2101c514504af44ff7e938db2fb04b33c4c31446b0bc",
                    "receiptTrie" : "0x2ce023c48068a51dc271a6f3d0935bb51eccd519f88ca314787fad6a0b20d123",
                    "stateRoot" : "0x2db4c51fa67b55b1389b58591931c6fe3e782f6baad56f8279d908f89ccd7730",
                    "timestamp" : "0x03e8",
                    "transactionsTrie" : "0x049609a33d435c8430ca1d31d3b447d9d176d523e8eb21c309c2286a3f2547dc",
                    "uncleHash" : "0x1dcc4de8dec75d7aab85b567b6ccd41ad312451b948a7413f0a142fd40d49347"
                },
                "transactions" : [
                    {
                        "data" : "0x0000000000000000000000001000000000000000000000000000000000000001",
                        "gasLimit" : "0x0f4240",
                        "gasPrice" : "0x0a",
                        "nonce" : "0x00",
                        "to" : "0x1000000000000000000000000000000000000000",
                        "value" : "0x0186a0",
                        "v" : "0x1c",
                        "r" : "0x514e6d57b27c36a1adf5890b29f2022eb31ca22c9caf7ec23173cce0e205b1fa",
                        "s" : "0x2b4089c9e9eb460c07d87a38b69fb5ee99cc7fdf6b3a4da9b485c0ba654a5b"
                    }
                ],
                "uncleHeaders" : [
                ]
            }
        ]
    },
    "static_callToDelCallOpCodeCheck_d0g0v0_London" : {
        "_info" : {
            "comment" : "",
            "filling-rpc-server" : "evm version 1.10.4-unstable-966ee3ae-20210528",
            "filling-tool-version" : "retesteth-0.1.1-eip1559+commit.658fc3a8.Linux.g++",
            "lllcversion" : "Version: 0.5.14-develop.2021.5.18+commit.14c9d5de.mod.Linux.g++",
            "source" : "src/GeneralStateTestsFiller/stStaticCall/static_callToDelCallOpCodeCheckFiller.json",
            "sourceHash" : "d5ecdda3e505bd7855b18f61cbedb8bb260c486b58fe48cb5e0df9253617a0cf"
        },
        "genesisBlockHeader" : {
            "bloom" : "0x00000000000000000000000000000000000000000000000000000000000000000000000000000000000000000000000000000000000000000000000000000000000000000000000000000000000000000000000000000000000000000000000000000000000000000000000000000000000000000000000000000000000000000000000000000000000000000000000000000000000000000000000000000000000000000000000000000000000000000000000000000000000000000000000000000000000000000000000000000000000000000000000000000000000000000000000000000000000000000000000000000000000000000000000000000000",
            "coinbase" : "0x2adc25665018aa1fe0e6bc666dac8fc2697ff9ba",
            "difficulty" : "0x020000",
            "extraData" : "0x00",
            "gasLimit" : "0x989680",
            "gasUsed" : "0x00",
            "hash" : "0x0dc4a3bedd885fe64ee86b863c86664c916722821ae4435f9c0c3a66999412dc",
            "mixHash" : "0x0000000000000000000000000000000000000000000000000000000000000000",
            "nonce" : "0x0000000000000000",
            "number" : "0x00",
            "parentHash" : "0x0000000000000000000000000000000000000000000000000000000000000000",
            "receiptTrie" : "0x56e81f171bcc55a6ff8345e692c0f86e5b48e01b996cadc001622fb5e363b421",
            "stateRoot" : "0xe5b3fe4a759f414cc1a40ac2f2602abc3a3b55961b98fa8b01d0d9d666f81c14",
            "timestamp" : "0x00",
            "transactionsTrie" : "0x56e81f171bcc55a6ff8345e692c0f86e5b48e01b996cadc001622fb5e363b421",
            "uncleHash" : "0x1dcc4de8dec75d7aab85b567b6ccd41ad312451b948a7413f0a142fd40d49347",
            "baseFee" : "0x0b"
        },
        "pre" : {
            "0x1000000000000000000000000000000000000000" : {
                "balance" : "0x0de0b6b3a7640000",
                "code" : "0x6000600060006000600035620186a0fa60005500",
                "nonce" : "0x00",
                "storage" : {
                }
            },
            "0x1000000000000000000000000000000000000001" : {
                "balance" : "0x0de0b6b3a7640000",
                "code" : "0x6000600060006000731000000000000000000000000000000000000002620186a0f46000526000516001146036576001600155603c565b60016001525b00",
                "nonce" : "0x00",
                "storage" : {
                }
            },
            "0x1000000000000000000000000000000000000002" : {
                "balance" : "0x0de0b6b3a7640000",
                "code" : "0x3273a94f5374fce5edbc8e2a8697c15331677e6ebf0b1460225760026001556028565b60016001525b3373100000000000000000000000000000000000000014604b5760026001556051565b60016001525b30731000000000000000000000000000000000000001146074576002600155607a565b60016001525b34600014608a5760026001556090565b60016001525b00",
                "nonce" : "0x00",
                "storage" : {
                }
            },
            "0xa94f5374fce5edbc8e2a8697c15331677e6ebf0b" : {
                "balance" : "0x0de0b6b3a7640000",
                "code" : "0x",
                "nonce" : "0x00",
                "storage" : {
                }
            }
        },
        "postState" : {
            "0x1000000000000000000000000000000000000000" : {
                "code" : "0x6000600060006000600035620186a0fa60005500",
                "nonce" : "0x00",
                "balance" : "0x0de0b6b3a76586a0",
                "storage" : {
                    "0x00" : "0x01"
                }
            },
            "0x1000000000000000000000000000000000000001" : {
                "code" : "0x6000600060006000731000000000000000000000000000000000000002620186a0f46000526000516001146036576001600155603c565b60016001525b00",
                "nonce" : "0x00",
                "balance" : "0x0de0b6b3a7640000",
                "storage" : {
                }
            },
            "0x1000000000000000000000000000000000000002" : {
                "code" : "0x3273a94f5374fce5edbc8e2a8697c15331677e6ebf0b1460225760026001556028565b60016001525b3373100000000000000000000000000000000000000014604b5760026001556051565b60016001525b30731000000000000000000000000000000000000001146074576002600155607a565b60016001525b34600014608a5760026001556090565b60016001525b00",
                "nonce" : "0x00",
                "balance" : "0x0de0b6b3a7640000",
                "storage" : {
                }
            },
            "0x2adc25665018aa1fe0e6bc666dac8fc2697ff9ba" : {
                "code" : "0x",
                "nonce" : "0x00",
                "balance" : "0x1bc16d674ec80000",
                "storage" : {
                }
            },
            "0xa94f5374fce5edbc8e2a8697c15331677e6ebf0b" : {
                "code" : "0x",
                "nonce" : "0x01",
                "balance" : "0x0de0b6b3a75b0bf8",
                "storage" : {
                }
            }
        },
        "network" : "London",
        "sealEngine" : "NoProof",
        "lastblockhash" : "0x4ee91d8fc7b67e1788f1d9c3e59f6502b8ed2ca9ca7764543fb37084c5a7f447",
        "genesisRLP" : "0xf901f9f901f4a00000000000000000000000000000000000000000000000000000000000000000a01dcc4de8dec75d7aab85b567b6ccd41ad312451b948a7413f0a142fd40d49347942adc25665018aa1fe0e6bc666dac8fc2697ff9baa0e5b3fe4a759f414cc1a40ac2f2602abc3a3b55961b98fa8b01d0d9d666f81c14a056e81f171bcc55a6ff8345e692c0f86e5b48e01b996cadc001622fb5e363b421a056e81f171bcc55a6ff8345e692c0f86e5b48e01b996cadc001622fb5e363b421b9010000000000000000000000000000000000000000000000000000000000000000000000000000000000000000000000000000000000000000000000000000000000000000000000000000000000000000000000000000000000000000000000000000000000000000000000000000000000000000000000000000000000000000000000000000000000000000000000000000000000000000000000000000000000000000000000000000000000000000000000000000000000000000000000000000000000000000000000000000000000000000000000000000000000000000000000000000000000000000000000000000000000000000000000000000000000830200008083989680808000a000000000000000000000000000000000000000000000000000000000000000008800000000000000000bc0c0",
        "blocks" : [
            {
                "rlp" : "0xf90282f901f8a00dc4a3bedd885fe64ee86b863c86664c916722821ae4435f9c0c3a66999412dca01dcc4de8dec75d7aab85b567b6ccd41ad312451b948a7413f0a142fd40d49347942adc25665018aa1fe0e6bc666dac8fc2697ff9baa04f6382ffedd8daeede56e23da2c02dfbca79c9e9d422a81428e3ee8e6f486771a0049609a33d435c8430ca1d31d3b447d9d176d523e8eb21c309c2286a3f2547dca040d3c71fad7a0ddffba5c32bf50bacc9cd09c7fe74004c00b5dc3be3e9bade0db901000000000000000000000000000000000000000000000000000000000000000000000000000000000000000000000000000000000000000000000000000000000000000000000000000000000000000000000000000000000000000000000000000000000000000000000000000000000000000000000000000000000000000000000000000000000000000000000000000000000000000000000000000000000000000000000000000000000000000000000000000000000000000000000000000000000000000000000000000000000000000000000000000000000000000000000000000000000000000000000000000000000000000000000000000000000083020000018398968082be248203e800a000000000000000000000000000000000000000000000000000000000000000008800000000000000000af884f882800a830f4240941000000000000000000000000000000000000000830186a0a000000000000000000000000010000000000000000000000000000000000000011ca0514e6d57b27c36a1adf5890b29f2022eb31ca22c9caf7ec23173cce0e205b1fa9f2b4089c9e9eb460c07d87a38b69fb5ee99cc7fdf6b3a4da9b485c0ba654a5bc0",
                "blockHeader" : {
                    "bloom" : "0x00000000000000000000000000000000000000000000000000000000000000000000000000000000000000000000000000000000000000000000000000000000000000000000000000000000000000000000000000000000000000000000000000000000000000000000000000000000000000000000000000000000000000000000000000000000000000000000000000000000000000000000000000000000000000000000000000000000000000000000000000000000000000000000000000000000000000000000000000000000000000000000000000000000000000000000000000000000000000000000000000000000000000000000000000000000",
                    "coinbase" : "0x2adc25665018aa1fe0e6bc666dac8fc2697ff9ba",
                    "difficulty" : "0x020000",
                    "extraData" : "0x00",
                    "gasLimit" : "0x989680",
                    "gasUsed" : "0xbe24",
                    "hash" : "0x4ee91d8fc7b67e1788f1d9c3e59f6502b8ed2ca9ca7764543fb37084c5a7f447",
                    "mixHash" : "0x0000000000000000000000000000000000000000000000000000000000000000",
                    "nonce" : "0x0000000000000000",
                    "number" : "0x01",
                    "parentHash" : "0x0dc4a3bedd885fe64ee86b863c86664c916722821ae4435f9c0c3a66999412dc",
                    "receiptTrie" : "0x40d3c71fad7a0ddffba5c32bf50bacc9cd09c7fe74004c00b5dc3be3e9bade0d",
                    "stateRoot" : "0x4f6382ffedd8daeede56e23da2c02dfbca79c9e9d422a81428e3ee8e6f486771",
                    "timestamp" : "0x03e8",
                    "transactionsTrie" : "0x049609a33d435c8430ca1d31d3b447d9d176d523e8eb21c309c2286a3f2547dc",
                    "uncleHash" : "0x1dcc4de8dec75d7aab85b567b6ccd41ad312451b948a7413f0a142fd40d49347",
                    "baseFee" : "0x0a"
                },
                "transactions" : [
                    {
                        "data" : "0x0000000000000000000000001000000000000000000000000000000000000001",
                        "gasLimit" : "0x0f4240",
                        "gasPrice" : "0x0a",
                        "nonce" : "0x00",
                        "to" : "0x1000000000000000000000000000000000000000",
                        "value" : "0x0186a0",
                        "v" : "0x1c",
                        "r" : "0x514e6d57b27c36a1adf5890b29f2022eb31ca22c9caf7ec23173cce0e205b1fa",
                        "s" : "0x2b4089c9e9eb460c07d87a38b69fb5ee99cc7fdf6b3a4da9b485c0ba654a5b"
                    }
                ],
                "uncleHeaders" : [
                ]
            }
        ]
    }
}