{
    "static_makeMoney_d0g0v0_Berlin" : {
        "_info" : {
            "comment" : "",
            "filling-rpc-server" : "evm version 1.10.4-unstable-966ee3ae-20210528",
            "filling-tool-version" : "retesteth-0.1.1-eip1559+commit.658fc3a8.Linux.g++",
            "lllcversion" : "Version: 0.5.14-develop.2021.5.18+commit.14c9d5de.mod.Linux.g++",
            "source" : "src/GeneralStateTestsFiller/stStaticCall/static_makeMoneyFiller.json",
            "sourceHash" : "1fdd087ebb7f158222c68769db569c1a65227625cf9547142fb53f7efec602fc"
        },
        "genesisBlockHeader" : {
            "bloom" : "0x00000000000000000000000000000000000000000000000000000000000000000000000000000000000000000000000000000000000000000000000000000000000000000000000000000000000000000000000000000000000000000000000000000000000000000000000000000000000000000000000000000000000000000000000000000000000000000000000000000000000000000000000000000000000000000000000000000000000000000000000000000000000000000000000000000000000000000000000000000000000000000000000000000000000000000000000000000000000000000000000000000000000000000000000000000000",
            "coinbase" : "0x2adc25665018aa1fe0e6bc666dac8fc2697ff9ba",
            "difficulty" : "0x020000",
            "extraData" : "0x00",
            "gasLimit" : "0x0f4240",
            "gasUsed" : "0x00",
            "hash" : "0xd5a5493520fd733239790a1952cb879d4d3d0b0a27b488d676677ae44a81796a",
            "mixHash" : "0x0000000000000000000000000000000000000000000000000000000000000000",
            "nonce" : "0x0000000000000000",
            "number" : "0x00",
            "parentHash" : "0x0000000000000000000000000000000000000000000000000000000000000000",
            "receiptTrie" : "0x56e81f171bcc55a6ff8345e692c0f86e5b48e01b996cadc001622fb5e363b421",
            "stateRoot" : "0xfbe6028a04185fc403492bb3f69db991f5333b86109ad608cdaf77f3529e2050",
            "timestamp" : "0x00",
            "transactionsTrie" : "0x56e81f171bcc55a6ff8345e692c0f86e5b48e01b996cadc001622fb5e363b421",
            "uncleHash" : "0x1dcc4de8dec75d7aab85b567b6ccd41ad312451b948a7413f0a142fd40d49347"
        },
        "pre" : {
            "0x095e7baea6a6c7c4c2dfeb977efac326af552d87" : {
                "balance" : "0x0de0b6b3a7640000",
                "code" : "0x7b601080600c6000396000f20060003554156009570060203560003555600052600060006000600073aaaaaaaaace5edbc8e2a8697c15331677e6ebf0b7fffffffffffffffffffffffffffffffffffffffffffffffffffffffffffffffecfa00",
                "nonce" : "0x00",
                "storage" : {
                }
            },
            "0xa94f5374fce5edbc8e2a8697c15331677e6ebf0b" : {
                "balance" : "0x05f5e100",
                "code" : "0x",
                "nonce" : "0x00",
                "storage" : {
                }
            },
            "0xaaaaaaaaace5edbc8e2a8697c15331677e6ebf0b" : {
                "balance" : "0x0de0b6b3a7640000",
                "code" : "0x600160015532600255",
                "nonce" : "0x00",
                "storage" : {
                }
            }
        },
        "postState" : {
            "0x095e7baea6a6c7c4c2dfeb977efac326af552d87" : {
                "code" : "0x7b601080600c6000396000f20060003554156009570060203560003555600052600060006000600073aaaaaaaaace5edbc8e2a8697c15331677e6ebf0b7fffffffffffffffffffffffffffffffffffffffffffffffffffffffffffffffecfa00",
                "nonce" : "0x00",
                "balance" : "0x0de0b6b3a764000a",
                "storage" : {
                }
            },
            "0x2adc25665018aa1fe0e6bc666dac8fc2697ff9ba" : {
                "code" : "0x",
                "nonce" : "0x00",
                "balance" : "0x1bc16d674eea60be",
                "storage" : {
                }
            },
            "0xa94f5374fce5edbc8e2a8697c15331677e6ebf0b" : {
                "code" : "0x",
                "nonce" : "0x01",
                "balance" : "0x05d38038",
                "storage" : {
                }
            },
            "0xaaaaaaaaace5edbc8e2a8697c15331677e6ebf0b" : {
                "code" : "0x600160015532600255",
                "nonce" : "0x00",
                "balance" : "0x0de0b6b3a7640000",
                "storage" : {
                }
            }
        },
        "network" : "Berlin",
        "sealEngine" : "NoProof",
        "lastblockhash" : "0x8e20f9ef0cf154fc407f0ea4aaeb0ad5e776776e45923f563e2730982869f2c3",
        "genesisRLP" : "0xf901f8f901f3a00000000000000000000000000000000000000000000000000000000000000000a01dcc4de8dec75d7aab85b567b6ccd41ad312451b948a7413f0a142fd40d49347942adc25665018aa1fe0e6bc666dac8fc2697ff9baa0fbe6028a04185fc403492bb3f69db991f5333b86109ad608cdaf77f3529e2050a056e81f171bcc55a6ff8345e692c0f86e5b48e01b996cadc001622fb5e363b421a056e81f171bcc55a6ff8345e692c0f86e5b48e01b996cadc001622fb5e363b421b90100000000000000000000000000000000000000000000000000000000000000000000000000000000000000000000000000000000000000000000000000000000000000000000000000000000000000000000000000000000000000000000000000000000000000000000000000000000000000000000000000000000000000000000000000000000000000000000000000000000000000000000000000000000000000000000000000000000000000000000000000000000000000000000000000000000000000000000000000000000000000000000000000000000000000000000000000000000000000000000000000000000000000000000000000000000008302000080830f4240808000a00000000000000000000000000000000000000000000000000000000000000000880000000000000000c0c0",
        "blocks" : [
            {
                "rlp" : "0xf90260f901f8a0d5a5493520fd733239790a1952cb879d4d3d0b0a27b488d676677ae44a81796aa01dcc4de8dec75d7aab85b567b6ccd41ad312451b948a7413f0a142fd40d49347942adc25665018aa1fe0e6bc666dac8fc2697ff9baa0d3cd97beb71b7ed32190e711bdb0a792f1a12a37d0f7446da4ca1563e4b71da8a02eaaf67725bc1b3b5d9010e8d910acecb4374da36bca4f553cf67bb3102933c0a0e595431e4f21b67e96ea5dd604c836a0dd99571914cd221c62df0e604909e9d8b90100000000000000000000000000000000000000000000000000000000000000000000000000000000000000000000000000000000000000000000000000000000000000000000000000000000000000000000000000000000000000000000000000000000000000000000000000000000000000000000000000000000000000000000000000000000000000000000000000000000000000000000000000000000000000000000000000000000000000000000000000000000000000000000000000000000000000000000000000000000000000000000000000000000000000000000000000000000000000000000000000000000000000000000000000000000008302000001830f4240830370138203e800a00000000000000000000000000000000000000000000000000000000000000000880000000000000000f862f860800a83037c9494095e7baea6a6c7c4c2dfeb977efac326af552d870a801ba0b07974995e9a9397bd9ee2cd20d94561a8b24b540495d57095bd3c8eef318bdaa0675ab3cd023f6d479de46a677e1e13b12833acfce3243fb86951cd903dd37357c0",
                "blockHeader" : {
                    "bloom" : "0x00000000000000000000000000000000000000000000000000000000000000000000000000000000000000000000000000000000000000000000000000000000000000000000000000000000000000000000000000000000000000000000000000000000000000000000000000000000000000000000000000000000000000000000000000000000000000000000000000000000000000000000000000000000000000000000000000000000000000000000000000000000000000000000000000000000000000000000000000000000000000000000000000000000000000000000000000000000000000000000000000000000000000000000000000000000",
                    "coinbase" : "0x2adc25665018aa1fe0e6bc666dac8fc2697ff9ba",
                    "difficulty" : "0x020000",
                    "extraData" : "0x00",
                    "gasLimit" : "0x0f4240",
                    "gasUsed" : "0x037013",
                    "hash" : "0x8e20f9ef0cf154fc407f0ea4aaeb0ad5e776776e45923f563e2730982869f2c3",
                    "mixHash" : "0x0000000000000000000000000000000000000000000000000000000000000000",
                    "nonce" : "0x0000000000000000",
                    "number" : "0x01",
                    "parentHash" : "0xd5a5493520fd733239790a1952cb879d4d3d0b0a27b488d676677ae44a81796a",
                    "receiptTrie" : "0xe595431e4f21b67e96ea5dd604c836a0dd99571914cd221c62df0e604909e9d8",
                    "stateRoot" : "0xd3cd97beb71b7ed32190e711bdb0a792f1a12a37d0f7446da4ca1563e4b71da8",
                    "timestamp" : "0x03e8",
                    "transactionsTrie" : "0x2eaaf67725bc1b3b5d9010e8d910acecb4374da36bca4f553cf67bb3102933c0",
                    "uncleHash" : "0x1dcc4de8dec75d7aab85b567b6ccd41ad312451b948a7413f0a142fd40d49347"
                },
                "transactions" : [
                    {
                        "data" : "0x",
                        "gasLimit" : "0x037c94",
                        "gasPrice" : "0x0a",
                        "nonce" : "0x00",
                        "to" : "0x095e7baea6a6c7c4c2dfeb977efac326af552d87",
                        "value" : "0x0a",
                        "v" : "0x1b",
                        "r" : "0xb07974995e9a9397bd9ee2cd20d94561a8b24b540495d57095bd3c8eef318bda",
                        "s" : "0x675ab3cd023f6d479de46a677e1e13b12833acfce3243fb86951cd903dd37357"
                    }
                ],
                "uncleHeaders" : [
                ]
            }
        ]
    },
    "static_makeMoney_d0g0v0_Istanbul" : {
        "_info" : {
            "comment" : "",
            "filling-rpc-server" : "evm version 1.10.4-unstable-966ee3ae-20210528",
            "filling-tool-version" : "retesteth-0.1.1-eip1559+commit.658fc3a8.Linux.g++",
            "lllcversion" : "Version: 0.5.14-develop.2021.5.18+commit.14c9d5de.mod.Linux.g++",
            "source" : "src/GeneralStateTestsFiller/stStaticCall/static_makeMoneyFiller.json",
            "sourceHash" : "1fdd087ebb7f158222c68769db569c1a65227625cf9547142fb53f7efec602fc"
        },
        "genesisBlockHeader" : {
            "bloom" : "0x00000000000000000000000000000000000000000000000000000000000000000000000000000000000000000000000000000000000000000000000000000000000000000000000000000000000000000000000000000000000000000000000000000000000000000000000000000000000000000000000000000000000000000000000000000000000000000000000000000000000000000000000000000000000000000000000000000000000000000000000000000000000000000000000000000000000000000000000000000000000000000000000000000000000000000000000000000000000000000000000000000000000000000000000000000000",
            "coinbase" : "0x2adc25665018aa1fe0e6bc666dac8fc2697ff9ba",
            "difficulty" : "0x020000",
            "extraData" : "0x00",
            "gasLimit" : "0x0f4240",
            "gasUsed" : "0x00",
            "hash" : "0xd5a5493520fd733239790a1952cb879d4d3d0b0a27b488d676677ae44a81796a",
            "mixHash" : "0x0000000000000000000000000000000000000000000000000000000000000000",
            "nonce" : "0x0000000000000000",
            "number" : "0x00",
            "parentHash" : "0x0000000000000000000000000000000000000000000000000000000000000000",
            "receiptTrie" : "0x56e81f171bcc55a6ff8345e692c0f86e5b48e01b996cadc001622fb5e363b421",
            "stateRoot" : "0xfbe6028a04185fc403492bb3f69db991f5333b86109ad608cdaf77f3529e2050",
            "timestamp" : "0x00",
            "transactionsTrie" : "0x56e81f171bcc55a6ff8345e692c0f86e5b48e01b996cadc001622fb5e363b421",
            "uncleHash" : "0x1dcc4de8dec75d7aab85b567b6ccd41ad312451b948a7413f0a142fd40d49347"
        },
        "pre" : {
            "0x095e7baea6a6c7c4c2dfeb977efac326af552d87" : {
                "balance" : "0x0de0b6b3a7640000",
                "code" : "0x7b601080600c6000396000f20060003554156009570060203560003555600052600060006000600073aaaaaaaaace5edbc8e2a8697c15331677e6ebf0b7fffffffffffffffffffffffffffffffffffffffffffffffffffffffffffffffecfa00",
                "nonce" : "0x00",
                "storage" : {
                }
            },
            "0xa94f5374fce5edbc8e2a8697c15331677e6ebf0b" : {
                "balance" : "0x05f5e100",
                "code" : "0x",
                "nonce" : "0x00",
                "storage" : {
                }
            },
            "0xaaaaaaaaace5edbc8e2a8697c15331677e6ebf0b" : {
                "balance" : "0x0de0b6b3a7640000",
                "code" : "0x600160015532600255",
                "nonce" : "0x00",
                "storage" : {
                }
            }
        },
        "postState" : {
            "0x095e7baea6a6c7c4c2dfeb977efac326af552d87" : {
                "code" : "0x7b601080600c6000396000f20060003554156009570060203560003555600052600060006000600073aaaaaaaaace5edbc8e2a8697c15331677e6ebf0b7fffffffffffffffffffffffffffffffffffffffffffffffffffffffffffffffecfa00",
                "nonce" : "0x00",
                "balance" : "0x0de0b6b3a764000a",
                "storage" : {
                }
            },
            "0x2adc25665018aa1fe0e6bc666dac8fc2697ff9ba" : {
                "code" : "0x",
                "nonce" : "0x00",
                "balance" : "0x1bc16d674eea5f9c",
                "storage" : {
                }
            },
            "0xa94f5374fce5edbc8e2a8697c15331677e6ebf0b" : {
                "code" : "0x",
                "nonce" : "0x01",
                "balance" : "0x05d3815a",
                "storage" : {
                }
            },
            "0xaaaaaaaaace5edbc8e2a8697c15331677e6ebf0b" : {
                "code" : "0x600160015532600255",
                "nonce" : "0x00",
                "balance" : "0x0de0b6b3a7640000",
                "storage" : {
                }
            }
        },
        "network" : "Istanbul",
        "sealEngine" : "NoProof",
        "lastblockhash" : "0xb8adfb543450dfc9663895c028d6028270e573089d1b2779564069dd6ebdfef2",
        "genesisRLP" : "0xf901f8f901f3a00000000000000000000000000000000000000000000000000000000000000000a01dcc4de8dec75d7aab85b567b6ccd41ad312451b948a7413f0a142fd40d49347942adc25665018aa1fe0e6bc666dac8fc2697ff9baa0fbe6028a04185fc403492bb3f69db991f5333b86109ad608cdaf77f3529e2050a056e81f171bcc55a6ff8345e692c0f86e5b48e01b996cadc001622fb5e363b421a056e81f171bcc55a6ff8345e692c0f86e5b48e01b996cadc001622fb5e363b421b90100000000000000000000000000000000000000000000000000000000000000000000000000000000000000000000000000000000000000000000000000000000000000000000000000000000000000000000000000000000000000000000000000000000000000000000000000000000000000000000000000000000000000000000000000000000000000000000000000000000000000000000000000000000000000000000000000000000000000000000000000000000000000000000000000000000000000000000000000000000000000000000000000000000000000000000000000000000000000000000000000000000000000000000000000000000008302000080830f4240808000a00000000000000000000000000000000000000000000000000000000000000000880000000000000000c0c0",
        "blocks" : [
            {
                "rlp" : "0xf90260f901f8a0d5a5493520fd733239790a1952cb879d4d3d0b0a27b488d676677ae44a81796aa01dcc4de8dec75d7aab85b567b6ccd41ad312451b948a7413f0a142fd40d49347942adc25665018aa1fe0e6bc666dac8fc2697ff9baa0b12e156fa4ec4b60af07864966a3b5bd20bd02b3f96c41b6d85d951bbea4bd78a02eaaf67725bc1b3b5d9010e8d910acecb4374da36bca4f553cf67bb3102933c0a06649f4cd91d1780aca9edd5876d126b284f3a99035bd3f64245a7aee2f9f548db90100000000000000000000000000000000000000000000000000000000000000000000000000000000000000000000000000000000000000000000000000000000000000000000000000000000000000000000000000000000000000000000000000000000000000000000000000000000000000000000000000000000000000000000000000000000000000000000000000000000000000000000000000000000000000000000000000000000000000000000000000000000000000000000000000000000000000000000000000000000000000000000000000000000000000000000000000000000000000000000000000000000000000000000000000000000008302000001830f424083036ff68203e800a00000000000000000000000000000000000000000000000000000000000000000880000000000000000f862f860800a83037c9494095e7baea6a6c7c4c2dfeb977efac326af552d870a801ba0b07974995e9a9397bd9ee2cd20d94561a8b24b540495d57095bd3c8eef318bdaa0675ab3cd023f6d479de46a677e1e13b12833acfce3243fb86951cd903dd37357c0",
                "blockHeader" : {
                    "bloom" : "0x00000000000000000000000000000000000000000000000000000000000000000000000000000000000000000000000000000000000000000000000000000000000000000000000000000000000000000000000000000000000000000000000000000000000000000000000000000000000000000000000000000000000000000000000000000000000000000000000000000000000000000000000000000000000000000000000000000000000000000000000000000000000000000000000000000000000000000000000000000000000000000000000000000000000000000000000000000000000000000000000000000000000000000000000000000000",
                    "coinbase" : "0x2adc25665018aa1fe0e6bc666dac8fc2697ff9ba",
                    "difficulty" : "0x020000",
                    "extraData" : "0x00",
                    "gasLimit" : "0x0f4240",
                    "gasUsed" : "0x036ff6",
                    "hash" : "0xb8adfb543450dfc9663895c028d6028270e573089d1b2779564069dd6ebdfef2",
                    "mixHash" : "0x0000000000000000000000000000000000000000000000000000000000000000",
                    "nonce" : "0x0000000000000000",
                    "number" : "0x01",
                    "parentHash" : "0xd5a5493520fd733239790a1952cb879d4d3d0b0a27b488d676677ae44a81796a",
                    "receiptTrie" : "0x6649f4cd91d1780aca9edd5876d126b284f3a99035bd3f64245a7aee2f9f548d",
                    "stateRoot" : "0xb12e156fa4ec4b60af07864966a3b5bd20bd02b3f96c41b6d85d951bbea4bd78",
                    "timestamp" : "0x03e8",
                    "transactionsTrie" : "0x2eaaf67725bc1b3b5d9010e8d910acecb4374da36bca4f553cf67bb3102933c0",
                    "uncleHash" : "0x1dcc4de8dec75d7aab85b567b6ccd41ad312451b948a7413f0a142fd40d49347"
                },
                "transactions" : [
                    {
                        "data" : "0x",
                        "gasLimit" : "0x037c94",
                        "gasPrice" : "0x0a",
                        "nonce" : "0x00",
                        "to" : "0x095e7baea6a6c7c4c2dfeb977efac326af552d87",
                        "value" : "0x0a",
                        "v" : "0x1b",
                        "r" : "0xb07974995e9a9397bd9ee2cd20d94561a8b24b540495d57095bd3c8eef318bda",
                        "s" : "0x675ab3cd023f6d479de46a677e1e13b12833acfce3243fb86951cd903dd37357"
                    }
                ],
                "uncleHeaders" : [
                ]
            }
        ]
    },
    "static_makeMoney_d0g0v0_London" : {
        "_info" : {
            "comment" : "",
            "filling-rpc-server" : "evm version 1.10.4-unstable-966ee3ae-20210528",
            "filling-tool-version" : "retesteth-0.1.1-eip1559+commit.658fc3a8.Linux.g++",
            "lllcversion" : "Version: 0.5.14-develop.2021.5.18+commit.14c9d5de.mod.Linux.g++",
            "source" : "src/GeneralStateTestsFiller/stStaticCall/static_makeMoneyFiller.json",
            "sourceHash" : "1fdd087ebb7f158222c68769db569c1a65227625cf9547142fb53f7efec602fc"
        },
        "genesisBlockHeader" : {
            "bloom" : "0x00000000000000000000000000000000000000000000000000000000000000000000000000000000000000000000000000000000000000000000000000000000000000000000000000000000000000000000000000000000000000000000000000000000000000000000000000000000000000000000000000000000000000000000000000000000000000000000000000000000000000000000000000000000000000000000000000000000000000000000000000000000000000000000000000000000000000000000000000000000000000000000000000000000000000000000000000000000000000000000000000000000000000000000000000000000",
            "coinbase" : "0x2adc25665018aa1fe0e6bc666dac8fc2697ff9ba",
            "difficulty" : "0x020000",
            "extraData" : "0x00",
            "gasLimit" : "0x0f4240",
            "gasUsed" : "0x00",
            "hash" : "0xd196271e8515ce334422a9d8ae3aadc4abd1e29db47240f4fb9e7968dab0f033",
            "mixHash" : "0x0000000000000000000000000000000000000000000000000000000000000000",
            "nonce" : "0x0000000000000000",
            "number" : "0x00",
            "parentHash" : "0x0000000000000000000000000000000000000000000000000000000000000000",
            "receiptTrie" : "0x56e81f171bcc55a6ff8345e692c0f86e5b48e01b996cadc001622fb5e363b421",
            "stateRoot" : "0xfbe6028a04185fc403492bb3f69db991f5333b86109ad608cdaf77f3529e2050",
            "timestamp" : "0x00",
            "transactionsTrie" : "0x56e81f171bcc55a6ff8345e692c0f86e5b48e01b996cadc001622fb5e363b421",
            "uncleHash" : "0x1dcc4de8dec75d7aab85b567b6ccd41ad312451b948a7413f0a142fd40d49347",
            "baseFee" : "0x0b"
        },
        "pre" : {
            "0x095e7baea6a6c7c4c2dfeb977efac326af552d87" : {
                "balance" : "0x0de0b6b3a7640000",
                "code" : "0x7b601080600c6000396000f20060003554156009570060203560003555600052600060006000600073aaaaaaaaace5edbc8e2a8697c15331677e6ebf0b7fffffffffffffffffffffffffffffffffffffffffffffffffffffffffffffffecfa00",
                "nonce" : "0x00",
                "storage" : {
                }
            },
            "0xa94f5374fce5edbc8e2a8697c15331677e6ebf0b" : {
                "balance" : "0x05f5e100",
                "code" : "0x",
                "nonce" : "0x00",
                "storage" : {
                }
            },
            "0xaaaaaaaaace5edbc8e2a8697c15331677e6ebf0b" : {
                "balance" : "0x0de0b6b3a7640000",
                "code" : "0x600160015532600255",
                "nonce" : "0x00",
                "storage" : {
                }
            }
        },
        "postState" : {
            "0x095e7baea6a6c7c4c2dfeb977efac326af552d87" : {
                "code" : "0x7b601080600c6000396000f20060003554156009570060203560003555600052600060006000600073aaaaaaaaace5edbc8e2a8697c15331677e6ebf0b7fffffffffffffffffffffffffffffffffffffffffffffffffffffffffffffffecfa00",
                "nonce" : "0x00",
                "balance" : "0x0de0b6b3a764000a",
                "storage" : {
                }
            },
            "0x2adc25665018aa1fe0e6bc666dac8fc2697ff9ba" : {
                "code" : "0x",
                "nonce" : "0x00",
                "balance" : "0x1bc16d674ec80000",
                "storage" : {
                }
            },
            "0xa94f5374fce5edbc8e2a8697c15331677e6ebf0b" : {
                "code" : "0x",
                "nonce" : "0x01",
                "balance" : "0x05d38038",
                "storage" : {
                }
            },
            "0xaaaaaaaaace5edbc8e2a8697c15331677e6ebf0b" : {
                "code" : "0x600160015532600255",
                "nonce" : "0x00",
                "balance" : "0x0de0b6b3a7640000",
                "storage" : {
                }
            }
        },
        "network" : "London",
        "sealEngine" : "NoProof",
        "lastblockhash" : "0x85f2ddcdeb4c1fe39ca4df587e67ce539a86e383514f82fac529ae7e27764828",
        "genesisRLP" : "0xf901f9f901f4a00000000000000000000000000000000000000000000000000000000000000000a01dcc4de8dec75d7aab85b567b6ccd41ad312451b948a7413f0a142fd40d49347942adc25665018aa1fe0e6bc666dac8fc2697ff9baa0fbe6028a04185fc403492bb3f69db991f5333b86109ad608cdaf77f3529e2050a056e81f171bcc55a6ff8345e692c0f86e5b48e01b996cadc001622fb5e363b421a056e81f171bcc55a6ff8345e692c0f86e5b48e01b996cadc001622fb5e363b421b90100000000000000000000000000000000000000000000000000000000000000000000000000000000000000000000000000000000000000000000000000000000000000000000000000000000000000000000000000000000000000000000000000000000000000000000000000000000000000000000000000000000000000000000000000000000000000000000000000000000000000000000000000000000000000000000000000000000000000000000000000000000000000000000000000000000000000000000000000000000000000000000000000000000000000000000000000000000000000000000000000000000000000000000000000000000008302000080830f4240808000a000000000000000000000000000000000000000000000000000000000000000008800000000000000000bc0c0",
        "blocks" : [
            {
                "rlp" : "0xf90261f901f9a0d196271e8515ce334422a9d8ae3aadc4abd1e29db47240f4fb9e7968dab0f033a01dcc4de8dec75d7aab85b567b6ccd41ad312451b948a7413f0a142fd40d49347942adc25665018aa1fe0e6bc666dac8fc2697ff9baa0817e11a8e04026dbcc9389290385431b34b2c755bc13354d911a60714c488382a02eaaf67725bc1b3b5d9010e8d910acecb4374da36bca4f553cf67bb3102933c0a0e595431e4f21b67e96ea5dd604c836a0dd99571914cd221c62df0e604909e9d8b90100000000000000000000000000000000000000000000000000000000000000000000000000000000000000000000000000000000000000000000000000000000000000000000000000000000000000000000000000000000000000000000000000000000000000000000000000000000000000000000000000000000000000000000000000000000000000000000000000000000000000000000000000000000000000000000000000000000000000000000000000000000000000000000000000000000000000000000000000000000000000000000000000000000000000000000000000000000000000000000000000000000000000000000000000000000008302000001830f4240830370138203e800a000000000000000000000000000000000000000000000000000000000000000008800000000000000000af862f860800a83037c9494095e7baea6a6c7c4c2dfeb977efac326af552d870a801ba0b07974995e9a9397bd9ee2cd20d94561a8b24b540495d57095bd3c8eef318bdaa0675ab3cd023f6d479de46a677e1e13b12833acfce3243fb86951cd903dd37357c0",
                "blockHeader" : {
                    "bloom" : "0x00000000000000000000000000000000000000000000000000000000000000000000000000000000000000000000000000000000000000000000000000000000000000000000000000000000000000000000000000000000000000000000000000000000000000000000000000000000000000000000000000000000000000000000000000000000000000000000000000000000000000000000000000000000000000000000000000000000000000000000000000000000000000000000000000000000000000000000000000000000000000000000000000000000000000000000000000000000000000000000000000000000000000000000000000000000",
                    "coinbase" : "0x2adc25665018aa1fe0e6bc666dac8fc2697ff9ba",
                    "difficulty" : "0x020000",
                    "extraData" : "0x00",
                    "gasLimit" : "0x0f4240",
                    "gasUsed" : "0x037013",
                    "hash" : "0x85f2ddcdeb4c1fe39ca4df587e67ce539a86e383514f82fac529ae7e27764828",
                    "mixHash" : "0x0000000000000000000000000000000000000000000000000000000000000000",
                    "nonce" : "0x0000000000000000",
                    "number" : "0x01",
                    "parentHash" : "0xd196271e8515ce334422a9d8ae3aadc4abd1e29db47240f4fb9e7968dab0f033",
                    "receiptTrie" : "0xe595431e4f21b67e96ea5dd604c836a0dd99571914cd221c62df0e604909e9d8",
                    "stateRoot" : "0x817e11a8e04026dbcc9389290385431b34b2c755bc13354d911a60714c488382",
                    "timestamp" : "0x03e8",
                    "transactionsTrie" : "0x2eaaf67725bc1b3b5d9010e8d910acecb4374da36bca4f553cf67bb3102933c0",
                    "uncleHash" : "0x1dcc4de8dec75d7aab85b567b6ccd41ad312451b948a7413f0a142fd40d49347",
                    "baseFee" : "0x0a"
                },
                "transactions" : [
                    {
                        "data" : "0x",
                        "gasLimit" : "0x037c94",
                        "gasPrice" : "0x0a",
                        "nonce" : "0x00",
                        "to" : "0x095e7baea6a6c7c4c2dfeb977efac326af552d87",
                        "value" : "0x0a",
                        "v" : "0x1b",
                        "r" : "0xb07974995e9a9397bd9ee2cd20d94561a8b24b540495d57095bd3c8eef318bda",
                        "s" : "0x675ab3cd023f6d479de46a677e1e13b12833acfce3243fb86951cd903dd37357"
                    }
                ],
                "uncleHeaders" : [
                ]
            }
        ]
    }
}