{
    "modexp_d3g2v0_Byzantium" : {
        "_info" : {
            "comment" : "",
            "filledwith" : "testeth 1.7.0-alpha.1-20+commit.782a7283",
            "lllcversion" : "Version: 0.5.0-develop.2018.11.9+commit.9709dfe0.Linux.g++",
            "source" : "src/BlockchainTestsFiller/GeneralStateTests/stPreCompiledContracts/modexp_d3g2v0Filler.json",
            "sourceHash" : "68ee0e33346084f549dff842693cf3cbc94c8e460af9fedf30d4d8648e94bbde"
        },
        "blocks" : [
            {
                "blockHeader" : {
                    "bloom" : "0x00000000000000000000000000000000000000000000000000000000000000000000000000000000000000000000000000000000000000000000000000000000000000000000000000000000000000000000000000000000000000000000000000000000000000000000000000000000000000000000000000000000000000000000000000000000000000000000000000000000000000000000000000000000000000000000000000000000000000000000000000000000000000000000000000000000000000000000000000000000000000000000000000000000000000000000000000000000000000000000000000000000000000000000000000000000",
                    "coinbase" : "0x2adc25665018aa1fe0e6bc666dac8fc2697ff9ba",
                    "difficulty" : "0x020000",
                    "extraData" : "0x",
                    "gasLimit" : "0x02540be400",
                    "gasUsed" : "0xf8b2",
                    "hash" : "0x4ebcf40ead7ee28c30d28bb600f49a23f425aa1796e254c611b374a7e9de44fe",
                    "mixHash" : "0x0000000000000000000000000000000000000000000000000000000000000000",
                    "nonce" : "0x0000000000000000",
                    "number" : "0x01",
                    "parentHash" : "0x70fd8962467cac8e2412f97cc4f775613ccc23d5340252ee5cca67b868639273",
                    "receiptTrie" : "0x9d503bb90653c6fd8d0ef0085376e6dac875af0049cfc9c010ce89ad8cf97e0d",
                    "stateRoot" : "0xee260c088b10bf3f42c64af1932e6387ae8ac37f1c1ff89fbce77c9ab384d2f7",
                    "timestamp" : "0x03e8",
                    "transactionsTrie" : "0xa8ba5259d9b8f08d65945a6f3d3326d99f9b4b908602eb50c7affeb751b67317",
                    "uncleHash" : "0x1dcc4de8dec75d7aab85b567b6ccd41ad312451b948a7413f0a142fd40d49347"
                },
                "rlp" : "0xf902e6f901f9a070fd8962467cac8e2412f97cc4f775613ccc23d5340252ee5cca67b868639273a01dcc4de8dec75d7aab85b567b6ccd41ad312451b948a7413f0a142fd40d49347942adc25665018aa1fe0e6bc666dac8fc2697ff9baa0ee260c088b10bf3f42c64af1932e6387ae8ac37f1c1ff89fbce77c9ab384d2f7a0a8ba5259d9b8f08d65945a6f3d3326d99f9b4b908602eb50c7affeb751b67317a09d503bb90653c6fd8d0ef0085376e6dac875af0049cfc9c010ce89ad8cf97e0db901000000000000000000000000000000000000000000000000000000000000000000000000000000000000000000000000000000000000000000000000000000000000000000000000000000000000000000000000000000000000000000000000000000000000000000000000000000000000000000000000000000000000000000000000000000000000000000000000000000000000000000000000000000000000000000000000000000000000000000000000000000000000000000000000000000000000000000000000000000000000000000000000000000000000000000000000000000000000000000000000000000000000000000000000000000000083020000018502540be40082f8b28203e880a00000000000000000000000000000000000000000000000000000000000000000880000000000000000f8e7f8e580018301adb094100000000000000000000000000000000000000080b88400000000000000000000000000000000000000000000000000000000000000010000000000000000000000000000000000000000000000000000000000000002000000000000000000000000000000000000000000000000000000000000002003ffff8000000000000000000000000000000000000000000000000000000000000000071ba0fbbdd8e146397ef46b08b16d98aa84175d449c6d185df3b6d34c3b9304e6eee9a04b98523ab42bbcae70d66a4560f2fc9ab58efd51191133a1fba3f5ec14f85231c0",
                "transactions" : [
                    {
                        "data" : "0x00000000000000000000000000000000000000000000000000000000000000010000000000000000000000000000000000000000000000000000000000000002000000000000000000000000000000000000000000000000000000000000002003ffff800000000000000000000000000000000000000000000000000000000000000007",
                        "gasLimit" : "0x01adb0",
                        "gasPrice" : "0x01",
                        "nonce" : "0x00",
                        "r" : "0xfbbdd8e146397ef46b08b16d98aa84175d449c6d185df3b6d34c3b9304e6eee9",
                        "s" : "0x4b98523ab42bbcae70d66a4560f2fc9ab58efd51191133a1fba3f5ec14f85231",
                        "to" : "0x1000000000000000000000000000000000000000",
                        "v" : "0x1b",
                        "value" : "0x00"
                    }
                ],
                "uncleHeaders" : [
                ]
            }
        ],
        "genesisBlockHeader" : {
            "bloom" : "0x00000000000000000000000000000000000000000000000000000000000000000000000000000000000000000000000000000000000000000000000000000000000000000000000000000000000000000000000000000000000000000000000000000000000000000000000000000000000000000000000000000000000000000000000000000000000000000000000000000000000000000000000000000000000000000000000000000000000000000000000000000000000000000000000000000000000000000000000000000000000000000000000000000000000000000000000000000000000000000000000000000000000000000000000000000000",
            "coinbase" : "0x2adc25665018aa1fe0e6bc666dac8fc2697ff9ba",
            "difficulty" : "0x020000",
            "extraData" : "0x42",
            "gasLimit" : "0x02540be400",
            "gasUsed" : "0x00",
            "hash" : "0x70fd8962467cac8e2412f97cc4f775613ccc23d5340252ee5cca67b868639273",
            "mixHash" : "0x56e81f171bcc55a6ff8345e692c0f86e5b48e01b996cadc001622fb5e363b421",
            "nonce" : "0x0102030405060708",
            "number" : "0x00",
            "parentHash" : "0x0000000000000000000000000000000000000000000000000000000000000000",
            "receiptTrie" : "0x56e81f171bcc55a6ff8345e692c0f86e5b48e01b996cadc001622fb5e363b421",
            "stateRoot" : "0xb0afba507e6fef0e690450e0c590ea05c53f4d93ea93a7b92449c437591484ca",
            "timestamp" : "0x03b6",
            "transactionsTrie" : "0x56e81f171bcc55a6ff8345e692c0f86e5b48e01b996cadc001622fb5e363b421",
            "uncleHash" : "0x1dcc4de8dec75d7aab85b567b6ccd41ad312451b948a7413f0a142fd40d49347"
        },
        "genesisRLP" : "0xf901fcf901f7a00000000000000000000000000000000000000000000000000000000000000000a01dcc4de8dec75d7aab85b567b6ccd41ad312451b948a7413f0a142fd40d49347942adc25665018aa1fe0e6bc666dac8fc2697ff9baa0b0afba507e6fef0e690450e0c590ea05c53f4d93ea93a7b92449c437591484caa056e81f171bcc55a6ff8345e692c0f86e5b48e01b996cadc001622fb5e363b421a056e81f171bcc55a6ff8345e692c0f86e5b48e01b996cadc001622fb5e363b421b901000000000000000000000000000000000000000000000000000000000000000000000000000000000000000000000000000000000000000000000000000000000000000000000000000000000000000000000000000000000000000000000000000000000000000000000000000000000000000000000000000000000000000000000000000000000000000000000000000000000000000000000000000000000000000000000000000000000000000000000000000000000000000000000000000000000000000000000000000000000000000000000000000000000000000000000000000000000000000000000000000000000000000000000000000000000083020000808502540be400808203b642a056e81f171bcc55a6ff8345e692c0f86e5b48e01b996cadc001622fb5e363b421880102030405060708c0c0",
        "lastblockhash" : "0x4ebcf40ead7ee28c30d28bb600f49a23f425aa1796e254c611b374a7e9de44fe",
        "network" : "Byzantium",
        "postState" : {
            "0x1000000000000000000000000000000000000000" : {
                "balance" : "0x00",
                "code" : "0x36600060003760206103e8366000600060055af26001556103e851600255",
                "nonce" : "0x00",
                "storage" : {
                    "0x01" : "0x01",
                    "0x02" : "0x3b01b01ac41f2d6e917c6d6a221ce793802469026d9ab7578fa2e79e4da6aaab"
                }
            },
            "0x2adc25665018aa1fe0e6bc666dac8fc2697ff9ba" : {
                "balance" : "0x29a2241af62cf8b2",
                "code" : "0x",
                "nonce" : "0x00",
                "storage" : {
                }
            },
            "0xa94f5374fce5edbc8e2a8697c15331677e6ebf0b" : {
                "balance" : "0x3635c9adc5de9f074e",
                "code" : "0x",
                "nonce" : "0x01",
                "storage" : {
                }
            }
        },
        "pre" : {
            "0x1000000000000000000000000000000000000000" : {
                "balance" : "0x00",
                "code" : "0x36600060003760206103e8366000600060055af26001556103e851600255",
                "nonce" : "0x00",
                "storage" : {
                }
            },
            "0xa94f5374fce5edbc8e2a8697c15331677e6ebf0b" : {
                "balance" : "0x3635c9adc5dea00000",
                "code" : "0x",
                "nonce" : "0x00",
                "storage" : {
                }
            }
        },
        "sealEngine" : "NoProof"
    },
    "modexp_d3g2v0_Constantinople" : {
        "_info" : {
            "comment" : "",
            "filledwith" : "testeth 1.7.0-alpha.1-20+commit.782a7283",
            "lllcversion" : "Version: 0.5.0-develop.2018.11.9+commit.9709dfe0.Linux.g++",
            "source" : "src/BlockchainTestsFiller/GeneralStateTests/stPreCompiledContracts/modexp_d3g2v0Filler.json",
            "sourceHash" : "68ee0e33346084f549dff842693cf3cbc94c8e460af9fedf30d4d8648e94bbde"
        },
        "blocks" : [
            {
                "blockHeader" : {
                    "bloom" : "0x00000000000000000000000000000000000000000000000000000000000000000000000000000000000000000000000000000000000000000000000000000000000000000000000000000000000000000000000000000000000000000000000000000000000000000000000000000000000000000000000000000000000000000000000000000000000000000000000000000000000000000000000000000000000000000000000000000000000000000000000000000000000000000000000000000000000000000000000000000000000000000000000000000000000000000000000000000000000000000000000000000000000000000000000000000000",
                    "coinbase" : "0x2adc25665018aa1fe0e6bc666dac8fc2697ff9ba",
                    "difficulty" : "0x020000",
                    "extraData" : "0x",
                    "gasLimit" : "0x02540be400",
                    "gasUsed" : "0xf8b2",
                    "hash" : "0x4795fd2727de3c72b997bbdb020d844b7347c4aacc6ae2600e249387e133313c",
                    "mixHash" : "0x0000000000000000000000000000000000000000000000000000000000000000",
                    "nonce" : "0x0000000000000000",
                    "number" : "0x01",
                    "parentHash" : "0x70fd8962467cac8e2412f97cc4f775613ccc23d5340252ee5cca67b868639273",
                    "receiptTrie" : "0x9d503bb90653c6fd8d0ef0085376e6dac875af0049cfc9c010ce89ad8cf97e0d",
                    "stateRoot" : "0x2dc93058b200c8eab1169843400edb4c2628a7fc6761d18117b64fccabe3ad27",
                    "timestamp" : "0x03e8",
                    "transactionsTrie" : "0xa8ba5259d9b8f08d65945a6f3d3326d99f9b4b908602eb50c7affeb751b67317",
                    "uncleHash" : "0x1dcc4de8dec75d7aab85b567b6ccd41ad312451b948a7413f0a142fd40d49347"
                },
                "rlp" : "0xf902e6f901f9a070fd8962467cac8e2412f97cc4f775613ccc23d5340252ee5cca67b868639273a01dcc4de8dec75d7aab85b567b6ccd41ad312451b948a7413f0a142fd40d49347942adc25665018aa1fe0e6bc666dac8fc2697ff9baa02dc93058b200c8eab1169843400edb4c2628a7fc6761d18117b64fccabe3ad27a0a8ba5259d9b8f08d65945a6f3d3326d99f9b4b908602eb50c7affeb751b67317a09d503bb90653c6fd8d0ef0085376e6dac875af0049cfc9c010ce89ad8cf97e0db901000000000000000000000000000000000000000000000000000000000000000000000000000000000000000000000000000000000000000000000000000000000000000000000000000000000000000000000000000000000000000000000000000000000000000000000000000000000000000000000000000000000000000000000000000000000000000000000000000000000000000000000000000000000000000000000000000000000000000000000000000000000000000000000000000000000000000000000000000000000000000000000000000000000000000000000000000000000000000000000000000000000000000000000000000000000083020000018502540be40082f8b28203e880a00000000000000000000000000000000000000000000000000000000000000000880000000000000000f8e7f8e580018301adb094100000000000000000000000000000000000000080b88400000000000000000000000000000000000000000000000000000000000000010000000000000000000000000000000000000000000000000000000000000002000000000000000000000000000000000000000000000000000000000000002003ffff8000000000000000000000000000000000000000000000000000000000000000071ba0fbbdd8e146397ef46b08b16d98aa84175d449c6d185df3b6d34c3b9304e6eee9a04b98523ab42bbcae70d66a4560f2fc9ab58efd51191133a1fba3f5ec14f85231c0",
                "transactions" : [
                    {
                        "data" : "0x00000000000000000000000000000000000000000000000000000000000000010000000000000000000000000000000000000000000000000000000000000002000000000000000000000000000000000000000000000000000000000000002003ffff800000000000000000000000000000000000000000000000000000000000000007",
                        "gasLimit" : "0x01adb0",
                        "gasPrice" : "0x01",
                        "nonce" : "0x00",
                        "r" : "0xfbbdd8e146397ef46b08b16d98aa84175d449c6d185df3b6d34c3b9304e6eee9",
                        "s" : "0x4b98523ab42bbcae70d66a4560f2fc9ab58efd51191133a1fba3f5ec14f85231",
                        "to" : "0x1000000000000000000000000000000000000000",
                        "v" : "0x1b",
                        "value" : "0x00"
                    }
                ],
                "uncleHeaders" : [
                ]
            }
        ],
        "genesisBlockHeader" : {
            "bloom" : "0x00000000000000000000000000000000000000000000000000000000000000000000000000000000000000000000000000000000000000000000000000000000000000000000000000000000000000000000000000000000000000000000000000000000000000000000000000000000000000000000000000000000000000000000000000000000000000000000000000000000000000000000000000000000000000000000000000000000000000000000000000000000000000000000000000000000000000000000000000000000000000000000000000000000000000000000000000000000000000000000000000000000000000000000000000000000",
            "coinbase" : "0x2adc25665018aa1fe0e6bc666dac8fc2697ff9ba",
            "difficulty" : "0x020000",
            "extraData" : "0x42",
            "gasLimit" : "0x02540be400",
            "gasUsed" : "0x00",
            "hash" : "0x70fd8962467cac8e2412f97cc4f775613ccc23d5340252ee5cca67b868639273",
            "mixHash" : "0x56e81f171bcc55a6ff8345e692c0f86e5b48e01b996cadc001622fb5e363b421",
            "nonce" : "0x0102030405060708",
            "number" : "0x00",
            "parentHash" : "0x0000000000000000000000000000000000000000000000000000000000000000",
            "receiptTrie" : "0x56e81f171bcc55a6ff8345e692c0f86e5b48e01b996cadc001622fb5e363b421",
            "stateRoot" : "0xb0afba507e6fef0e690450e0c590ea05c53f4d93ea93a7b92449c437591484ca",
            "timestamp" : "0x03b6",
            "transactionsTrie" : "0x56e81f171bcc55a6ff8345e692c0f86e5b48e01b996cadc001622fb5e363b421",
            "uncleHash" : "0x1dcc4de8dec75d7aab85b567b6ccd41ad312451b948a7413f0a142fd40d49347"
        },
        "genesisRLP" : "0xf901fcf901f7a00000000000000000000000000000000000000000000000000000000000000000a01dcc4de8dec75d7aab85b567b6ccd41ad312451b948a7413f0a142fd40d49347942adc25665018aa1fe0e6bc666dac8fc2697ff9baa0b0afba507e6fef0e690450e0c590ea05c53f4d93ea93a7b92449c437591484caa056e81f171bcc55a6ff8345e692c0f86e5b48e01b996cadc001622fb5e363b421a056e81f171bcc55a6ff8345e692c0f86e5b48e01b996cadc001622fb5e363b421b901000000000000000000000000000000000000000000000000000000000000000000000000000000000000000000000000000000000000000000000000000000000000000000000000000000000000000000000000000000000000000000000000000000000000000000000000000000000000000000000000000000000000000000000000000000000000000000000000000000000000000000000000000000000000000000000000000000000000000000000000000000000000000000000000000000000000000000000000000000000000000000000000000000000000000000000000000000000000000000000000000000000000000000000000000000000083020000808502540be400808203b642a056e81f171bcc55a6ff8345e692c0f86e5b48e01b996cadc001622fb5e363b421880102030405060708c0c0",
        "lastblockhash" : "0x4795fd2727de3c72b997bbdb020d844b7347c4aacc6ae2600e249387e133313c",
        "network" : "Constantinople",
        "postState" : {
            "0x1000000000000000000000000000000000000000" : {
                "balance" : "0x00",
                "code" : "0x36600060003760206103e8366000600060055af26001556103e851600255",
                "nonce" : "0x00",
                "storage" : {
                    "0x01" : "0x01",
                    "0x02" : "0x3b01b01ac41f2d6e917c6d6a221ce793802469026d9ab7578fa2e79e4da6aaab"
                }
            },
            "0x2adc25665018aa1fe0e6bc666dac8fc2697ff9ba" : {
                "balance" : "0x1bc16d674ec8f8b2",
                "code" : "0x",
                "nonce" : "0x00",
                "storage" : {
                }
            },
            "0xa94f5374fce5edbc8e2a8697c15331677e6ebf0b" : {
                "balance" : "0x3635c9adc5de9f074e",
                "code" : "0x",
                "nonce" : "0x01",
                "storage" : {
                }
            }
        },
        "pre" : {
            "0x1000000000000000000000000000000000000000" : {
                "balance" : "0x00",
                "code" : "0x36600060003760206103e8366000600060055af26001556103e851600255",
                "nonce" : "0x00",
                "storage" : {
                }
            },
            "0xa94f5374fce5edbc8e2a8697c15331677e6ebf0b" : {
                "balance" : "0x3635c9adc5dea00000",
                "code" : "0x",
                "nonce" : "0x00",
                "storage" : {
                }
            }
        },
        "sealEngine" : "NoProof"
    },
    "modexp_d3g2v0_ConstantinopleFix" : {
        "_info" : {
            "comment" : "",
            "filledwith" : "testeth 1.7.0-alpha.1-20+commit.782a7283",
            "lllcversion" : "Version: 0.5.0-develop.2018.11.9+commit.9709dfe0.Linux.g++",
            "source" : "src/BlockchainTestsFiller/GeneralStateTests/stPreCompiledContracts/modexp_d3g2v0Filler.json",
            "sourceHash" : "68ee0e33346084f549dff842693cf3cbc94c8e460af9fedf30d4d8648e94bbde"
        },
        "blocks" : [
            {
                "blockHeader" : {
                    "bloom" : "0x00000000000000000000000000000000000000000000000000000000000000000000000000000000000000000000000000000000000000000000000000000000000000000000000000000000000000000000000000000000000000000000000000000000000000000000000000000000000000000000000000000000000000000000000000000000000000000000000000000000000000000000000000000000000000000000000000000000000000000000000000000000000000000000000000000000000000000000000000000000000000000000000000000000000000000000000000000000000000000000000000000000000000000000000000000000",
                    "coinbase" : "0x2adc25665018aa1fe0e6bc666dac8fc2697ff9ba",
                    "difficulty" : "0x020000",
                    "extraData" : "0x",
                    "gasLimit" : "0x02540be400",
                    "gasUsed" : "0xf8b2",
                    "hash" : "0x4795fd2727de3c72b997bbdb020d844b7347c4aacc6ae2600e249387e133313c",
                    "mixHash" : "0x0000000000000000000000000000000000000000000000000000000000000000",
                    "nonce" : "0x0000000000000000",
                    "number" : "0x01",
                    "parentHash" : "0x70fd8962467cac8e2412f97cc4f775613ccc23d5340252ee5cca67b868639273",
                    "receiptTrie" : "0x9d503bb90653c6fd8d0ef0085376e6dac875af0049cfc9c010ce89ad8cf97e0d",
                    "stateRoot" : "0x2dc93058b200c8eab1169843400edb4c2628a7fc6761d18117b64fccabe3ad27",
                    "timestamp" : "0x03e8",
                    "transactionsTrie" : "0xa8ba5259d9b8f08d65945a6f3d3326d99f9b4b908602eb50c7affeb751b67317",
                    "uncleHash" : "0x1dcc4de8dec75d7aab85b567b6ccd41ad312451b948a7413f0a142fd40d49347"
                },
                "rlp" : "0xf902e6f901f9a070fd8962467cac8e2412f97cc4f775613ccc23d5340252ee5cca67b868639273a01dcc4de8dec75d7aab85b567b6ccd41ad312451b948a7413f0a142fd40d49347942adc25665018aa1fe0e6bc666dac8fc2697ff9baa02dc93058b200c8eab1169843400edb4c2628a7fc6761d18117b64fccabe3ad27a0a8ba5259d9b8f08d65945a6f3d3326d99f9b4b908602eb50c7affeb751b67317a09d503bb90653c6fd8d0ef0085376e6dac875af0049cfc9c010ce89ad8cf97e0db901000000000000000000000000000000000000000000000000000000000000000000000000000000000000000000000000000000000000000000000000000000000000000000000000000000000000000000000000000000000000000000000000000000000000000000000000000000000000000000000000000000000000000000000000000000000000000000000000000000000000000000000000000000000000000000000000000000000000000000000000000000000000000000000000000000000000000000000000000000000000000000000000000000000000000000000000000000000000000000000000000000000000000000000000000000000083020000018502540be40082f8b28203e880a00000000000000000000000000000000000000000000000000000000000000000880000000000000000f8e7f8e580018301adb094100000000000000000000000000000000000000080b88400000000000000000000000000000000000000000000000000000000000000010000000000000000000000000000000000000000000000000000000000000002000000000000000000000000000000000000000000000000000000000000002003ffff8000000000000000000000000000000000000000000000000000000000000000071ba0fbbdd8e146397ef46b08b16d98aa84175d449c6d185df3b6d34c3b9304e6eee9a04b98523ab42bbcae70d66a4560f2fc9ab58efd51191133a1fba3f5ec14f85231c0",
                "transactions" : [
                    {
                        "data" : "0x00000000000000000000000000000000000000000000000000000000000000010000000000000000000000000000000000000000000000000000000000000002000000000000000000000000000000000000000000000000000000000000002003ffff800000000000000000000000000000000000000000000000000000000000000007",
                        "gasLimit" : "0x01adb0",
                        "gasPrice" : "0x01",
                        "nonce" : "0x00",
                        "r" : "0xfbbdd8e146397ef46b08b16d98aa84175d449c6d185df3b6d34c3b9304e6eee9",
                        "s" : "0x4b98523ab42bbcae70d66a4560f2fc9ab58efd51191133a1fba3f5ec14f85231",
                        "to" : "0x1000000000000000000000000000000000000000",
                        "v" : "0x1b",
                        "value" : "0x00"
                    }
                ],
                "uncleHeaders" : [
                ]
            }
        ],
        "genesisBlockHeader" : {
            "bloom" : "0x00000000000000000000000000000000000000000000000000000000000000000000000000000000000000000000000000000000000000000000000000000000000000000000000000000000000000000000000000000000000000000000000000000000000000000000000000000000000000000000000000000000000000000000000000000000000000000000000000000000000000000000000000000000000000000000000000000000000000000000000000000000000000000000000000000000000000000000000000000000000000000000000000000000000000000000000000000000000000000000000000000000000000000000000000000000",
            "coinbase" : "0x2adc25665018aa1fe0e6bc666dac8fc2697ff9ba",
            "difficulty" : "0x020000",
            "extraData" : "0x42",
            "gasLimit" : "0x02540be400",
            "gasUsed" : "0x00",
            "hash" : "0x70fd8962467cac8e2412f97cc4f775613ccc23d5340252ee5cca67b868639273",
            "mixHash" : "0x56e81f171bcc55a6ff8345e692c0f86e5b48e01b996cadc001622fb5e363b421",
            "nonce" : "0x0102030405060708",
            "number" : "0x00",
            "parentHash" : "0x0000000000000000000000000000000000000000000000000000000000000000",
            "receiptTrie" : "0x56e81f171bcc55a6ff8345e692c0f86e5b48e01b996cadc001622fb5e363b421",
            "stateRoot" : "0xb0afba507e6fef0e690450e0c590ea05c53f4d93ea93a7b92449c437591484ca",
            "timestamp" : "0x03b6",
            "transactionsTrie" : "0x56e81f171bcc55a6ff8345e692c0f86e5b48e01b996cadc001622fb5e363b421",
            "uncleHash" : "0x1dcc4de8dec75d7aab85b567b6ccd41ad312451b948a7413f0a142fd40d49347"
        },
        "genesisRLP" : "0xf901fcf901f7a00000000000000000000000000000000000000000000000000000000000000000a01dcc4de8dec75d7aab85b567b6ccd41ad312451b948a7413f0a142fd40d49347942adc25665018aa1fe0e6bc666dac8fc2697ff9baa0b0afba507e6fef0e690450e0c590ea05c53f4d93ea93a7b92449c437591484caa056e81f171bcc55a6ff8345e692c0f86e5b48e01b996cadc001622fb5e363b421a056e81f171bcc55a6ff8345e692c0f86e5b48e01b996cadc001622fb5e363b421b901000000000000000000000000000000000000000000000000000000000000000000000000000000000000000000000000000000000000000000000000000000000000000000000000000000000000000000000000000000000000000000000000000000000000000000000000000000000000000000000000000000000000000000000000000000000000000000000000000000000000000000000000000000000000000000000000000000000000000000000000000000000000000000000000000000000000000000000000000000000000000000000000000000000000000000000000000000000000000000000000000000000000000000000000000000000083020000808502540be400808203b642a056e81f171bcc55a6ff8345e692c0f86e5b48e01b996cadc001622fb5e363b421880102030405060708c0c0",
        "lastblockhash" : "0x4795fd2727de3c72b997bbdb020d844b7347c4aacc6ae2600e249387e133313c",
        "network" : "ConstantinopleFix",
        "postState" : {
            "0x1000000000000000000000000000000000000000" : {
                "balance" : "0x00",
                "code" : "0x36600060003760206103e8366000600060055af26001556103e851600255",
                "nonce" : "0x00",
                "storage" : {
                    "0x01" : "0x01",
                    "0x02" : "0x3b01b01ac41f2d6e917c6d6a221ce793802469026d9ab7578fa2e79e4da6aaab"
                }
            },
            "0x2adc25665018aa1fe0e6bc666dac8fc2697ff9ba" : {
                "balance" : "0x1bc16d674ec8f8b2",
                "code" : "0x",
                "nonce" : "0x00",
                "storage" : {
                }
            },
            "0xa94f5374fce5edbc8e2a8697c15331677e6ebf0b" : {
                "balance" : "0x3635c9adc5de9f074e",
                "code" : "0x",
                "nonce" : "0x01",
                "storage" : {
                }
            }
        },
        "pre" : {
            "0x1000000000000000000000000000000000000000" : {
                "balance" : "0x00",
                "code" : "0x36600060003760206103e8366000600060055af26001556103e851600255",
                "nonce" : "0x00",
                "storage" : {
                }
            },
            "0xa94f5374fce5edbc8e2a8697c15331677e6ebf0b" : {
                "balance" : "0x3635c9adc5dea00000",
                "code" : "0x",
                "nonce" : "0x00",
                "storage" : {
                }
            }
        },
        "sealEngine" : "NoProof"
    },
    "modexp_d3g2v0_EIP150" : {
        "_info" : {
            "comment" : "",
            "filledwith" : "testeth 1.7.0-alpha.1-20+commit.782a7283",
            "lllcversion" : "Version: 0.5.0-develop.2018.11.9+commit.9709dfe0.Linux.g++",
            "source" : "src/BlockchainTestsFiller/GeneralStateTests/stPreCompiledContracts/modexp_d3g2v0Filler.json",
            "sourceHash" : "68ee0e33346084f549dff842693cf3cbc94c8e460af9fedf30d4d8648e94bbde"
        },
        "blocks" : [
            {
                "blockHeader" : {
                    "bloom" : "0x00000000000000000000000000000000000000000000000000000000000000000000000000000000000000000000000000000000000000000000000000000000000000000000000000000000000000000000000000000000000000000000000000000000000000000000000000000000000000000000000000000000000000000000000000000000000000000000000000000000000000000000000000000000000000000000000000000000000000000000000000000000000000000000000000000000000000000000000000000000000000000000000000000000000000000000000000000000000000000000000000000000000000000000000000000000",
                    "coinbase" : "0x2adc25665018aa1fe0e6bc666dac8fc2697ff9ba",
                    "difficulty" : "0x020000",
                    "extraData" : "0x",
                    "gasLimit" : "0x02540be400",
                    "gasUsed" : "0xbb1a",
                    "hash" : "0x7da4622ec39203474cea74b51a8ed746bbd6fa25661aceded4778565b46abb82",
                    "mixHash" : "0x0000000000000000000000000000000000000000000000000000000000000000",
                    "nonce" : "0x0000000000000000",
                    "number" : "0x01",
                    "parentHash" : "0x70fd8962467cac8e2412f97cc4f775613ccc23d5340252ee5cca67b868639273",
                    "receiptTrie" : "0xb9e74615364be9f81ef5d2315f53761c34145cfde15775a01045711647c2b294",
                    "stateRoot" : "0xc840aff87d09a85a352efaf8a24252d712c2fc776377fe646959a824328ebe9f",
                    "timestamp" : "0x03e8",
                    "transactionsTrie" : "0xa8ba5259d9b8f08d65945a6f3d3326d99f9b4b908602eb50c7affeb751b67317",
                    "uncleHash" : "0x1dcc4de8dec75d7aab85b567b6ccd41ad312451b948a7413f0a142fd40d49347"
                },
                "rlp" : "0xf902e6f901f9a070fd8962467cac8e2412f97cc4f775613ccc23d5340252ee5cca67b868639273a01dcc4de8dec75d7aab85b567b6ccd41ad312451b948a7413f0a142fd40d49347942adc25665018aa1fe0e6bc666dac8fc2697ff9baa0c840aff87d09a85a352efaf8a24252d712c2fc776377fe646959a824328ebe9fa0a8ba5259d9b8f08d65945a6f3d3326d99f9b4b908602eb50c7affeb751b67317a0b9e74615364be9f81ef5d2315f53761c34145cfde15775a01045711647c2b294b901000000000000000000000000000000000000000000000000000000000000000000000000000000000000000000000000000000000000000000000000000000000000000000000000000000000000000000000000000000000000000000000000000000000000000000000000000000000000000000000000000000000000000000000000000000000000000000000000000000000000000000000000000000000000000000000000000000000000000000000000000000000000000000000000000000000000000000000000000000000000000000000000000000000000000000000000000000000000000000000000000000000000000000000000000000000083020000018502540be40082bb1a8203e880a00000000000000000000000000000000000000000000000000000000000000000880000000000000000f8e7f8e580018301adb094100000000000000000000000000000000000000080b88400000000000000000000000000000000000000000000000000000000000000010000000000000000000000000000000000000000000000000000000000000002000000000000000000000000000000000000000000000000000000000000002003ffff8000000000000000000000000000000000000000000000000000000000000000071ba0fbbdd8e146397ef46b08b16d98aa84175d449c6d185df3b6d34c3b9304e6eee9a04b98523ab42bbcae70d66a4560f2fc9ab58efd51191133a1fba3f5ec14f85231c0",
                "transactions" : [
                    {
                        "data" : "0x00000000000000000000000000000000000000000000000000000000000000010000000000000000000000000000000000000000000000000000000000000002000000000000000000000000000000000000000000000000000000000000002003ffff800000000000000000000000000000000000000000000000000000000000000007",
                        "gasLimit" : "0x01adb0",
                        "gasPrice" : "0x01",
                        "nonce" : "0x00",
                        "r" : "0xfbbdd8e146397ef46b08b16d98aa84175d449c6d185df3b6d34c3b9304e6eee9",
                        "s" : "0x4b98523ab42bbcae70d66a4560f2fc9ab58efd51191133a1fba3f5ec14f85231",
                        "to" : "0x1000000000000000000000000000000000000000",
                        "v" : "0x1b",
                        "value" : "0x00"
                    }
                ],
                "uncleHeaders" : [
                ]
            }
        ],
        "genesisBlockHeader" : {
            "bloom" : "0x00000000000000000000000000000000000000000000000000000000000000000000000000000000000000000000000000000000000000000000000000000000000000000000000000000000000000000000000000000000000000000000000000000000000000000000000000000000000000000000000000000000000000000000000000000000000000000000000000000000000000000000000000000000000000000000000000000000000000000000000000000000000000000000000000000000000000000000000000000000000000000000000000000000000000000000000000000000000000000000000000000000000000000000000000000000",
            "coinbase" : "0x2adc25665018aa1fe0e6bc666dac8fc2697ff9ba",
            "difficulty" : "0x020000",
            "extraData" : "0x42",
            "gasLimit" : "0x02540be400",
            "gasUsed" : "0x00",
            "hash" : "0x70fd8962467cac8e2412f97cc4f775613ccc23d5340252ee5cca67b868639273",
            "mixHash" : "0x56e81f171bcc55a6ff8345e692c0f86e5b48e01b996cadc001622fb5e363b421",
            "nonce" : "0x0102030405060708",
            "number" : "0x00",
            "parentHash" : "0x0000000000000000000000000000000000000000000000000000000000000000",
            "receiptTrie" : "0x56e81f171bcc55a6ff8345e692c0f86e5b48e01b996cadc001622fb5e363b421",
            "stateRoot" : "0xb0afba507e6fef0e690450e0c590ea05c53f4d93ea93a7b92449c437591484ca",
            "timestamp" : "0x03b6",
            "transactionsTrie" : "0x56e81f171bcc55a6ff8345e692c0f86e5b48e01b996cadc001622fb5e363b421",
            "uncleHash" : "0x1dcc4de8dec75d7aab85b567b6ccd41ad312451b948a7413f0a142fd40d49347"
        },
        "genesisRLP" : "0xf901fcf901f7a00000000000000000000000000000000000000000000000000000000000000000a01dcc4de8dec75d7aab85b567b6ccd41ad312451b948a7413f0a142fd40d49347942adc25665018aa1fe0e6bc666dac8fc2697ff9baa0b0afba507e6fef0e690450e0c590ea05c53f4d93ea93a7b92449c437591484caa056e81f171bcc55a6ff8345e692c0f86e5b48e01b996cadc001622fb5e363b421a056e81f171bcc55a6ff8345e692c0f86e5b48e01b996cadc001622fb5e363b421b901000000000000000000000000000000000000000000000000000000000000000000000000000000000000000000000000000000000000000000000000000000000000000000000000000000000000000000000000000000000000000000000000000000000000000000000000000000000000000000000000000000000000000000000000000000000000000000000000000000000000000000000000000000000000000000000000000000000000000000000000000000000000000000000000000000000000000000000000000000000000000000000000000000000000000000000000000000000000000000000000000000000000000000000000000000000083020000808502540be400808203b642a056e81f171bcc55a6ff8345e692c0f86e5b48e01b996cadc001622fb5e363b421880102030405060708c0c0",
        "lastblockhash" : "0x7da4622ec39203474cea74b51a8ed746bbd6fa25661aceded4778565b46abb82",
        "network" : "EIP150",
        "postState" : {
            "0x1000000000000000000000000000000000000000" : {
                "balance" : "0x00",
                "code" : "0x36600060003760206103e8366000600060055af26001556103e851600255",
                "nonce" : "0x00",
                "storage" : {
                    "0x01" : "0x01"
                }
            },
            "0x2adc25665018aa1fe0e6bc666dac8fc2697ff9ba" : {
                "balance" : "0x4563918244f4bb1a",
                "code" : "0x",
                "nonce" : "0x00",
                "storage" : {
                }
            },
            "0xa94f5374fce5edbc8e2a8697c15331677e6ebf0b" : {
                "balance" : "0x3635c9adc5de9f44e6",
                "code" : "0x",
                "nonce" : "0x01",
                "storage" : {
                }
            }
        },
        "pre" : {
            "0x1000000000000000000000000000000000000000" : {
                "balance" : "0x00",
                "code" : "0x36600060003760206103e8366000600060055af26001556103e851600255",
                "nonce" : "0x00",
                "storage" : {
                }
            },
            "0xa94f5374fce5edbc8e2a8697c15331677e6ebf0b" : {
                "balance" : "0x3635c9adc5dea00000",
                "code" : "0x",
                "nonce" : "0x00",
                "storage" : {
                }
            }
        },
        "sealEngine" : "NoProof"
    },
    "modexp_d3g2v0_EIP158" : {
        "_info" : {
            "comment" : "",
            "filledwith" : "testeth 1.7.0-alpha.1-20+commit.782a7283",
            "lllcversion" : "Version: 0.5.0-develop.2018.11.9+commit.9709dfe0.Linux.g++",
            "source" : "src/BlockchainTestsFiller/GeneralStateTests/stPreCompiledContracts/modexp_d3g2v0Filler.json",
            "sourceHash" : "68ee0e33346084f549dff842693cf3cbc94c8e460af9fedf30d4d8648e94bbde"
        },
        "blocks" : [
            {
                "blockHeader" : {
                    "bloom" : "0x00000000000000000000000000000000000000000000000000000000000000000000000000000000000000000000000000000000000000000000000000000000000000000000000000000000000000000000000000000000000000000000000000000000000000000000000000000000000000000000000000000000000000000000000000000000000000000000000000000000000000000000000000000000000000000000000000000000000000000000000000000000000000000000000000000000000000000000000000000000000000000000000000000000000000000000000000000000000000000000000000000000000000000000000000000000",
                    "coinbase" : "0x2adc25665018aa1fe0e6bc666dac8fc2697ff9ba",
                    "difficulty" : "0x020000",
                    "extraData" : "0x",
                    "gasLimit" : "0x02540be400",
                    "gasUsed" : "0xbb1a",
                    "hash" : "0x7da4622ec39203474cea74b51a8ed746bbd6fa25661aceded4778565b46abb82",
                    "mixHash" : "0x0000000000000000000000000000000000000000000000000000000000000000",
                    "nonce" : "0x0000000000000000",
                    "number" : "0x01",
                    "parentHash" : "0x70fd8962467cac8e2412f97cc4f775613ccc23d5340252ee5cca67b868639273",
                    "receiptTrie" : "0xb9e74615364be9f81ef5d2315f53761c34145cfde15775a01045711647c2b294",
                    "stateRoot" : "0xc840aff87d09a85a352efaf8a24252d712c2fc776377fe646959a824328ebe9f",
                    "timestamp" : "0x03e8",
                    "transactionsTrie" : "0xa8ba5259d9b8f08d65945a6f3d3326d99f9b4b908602eb50c7affeb751b67317",
                    "uncleHash" : "0x1dcc4de8dec75d7aab85b567b6ccd41ad312451b948a7413f0a142fd40d49347"
                },
                "rlp" : "0xf902e6f901f9a070fd8962467cac8e2412f97cc4f775613ccc23d5340252ee5cca67b868639273a01dcc4de8dec75d7aab85b567b6ccd41ad312451b948a7413f0a142fd40d49347942adc25665018aa1fe0e6bc666dac8fc2697ff9baa0c840aff87d09a85a352efaf8a24252d712c2fc776377fe646959a824328ebe9fa0a8ba5259d9b8f08d65945a6f3d3326d99f9b4b908602eb50c7affeb751b67317a0b9e74615364be9f81ef5d2315f53761c34145cfde15775a01045711647c2b294b901000000000000000000000000000000000000000000000000000000000000000000000000000000000000000000000000000000000000000000000000000000000000000000000000000000000000000000000000000000000000000000000000000000000000000000000000000000000000000000000000000000000000000000000000000000000000000000000000000000000000000000000000000000000000000000000000000000000000000000000000000000000000000000000000000000000000000000000000000000000000000000000000000000000000000000000000000000000000000000000000000000000000000000000000000000000083020000018502540be40082bb1a8203e880a00000000000000000000000000000000000000000000000000000000000000000880000000000000000f8e7f8e580018301adb094100000000000000000000000000000000000000080b88400000000000000000000000000000000000000000000000000000000000000010000000000000000000000000000000000000000000000000000000000000002000000000000000000000000000000000000000000000000000000000000002003ffff8000000000000000000000000000000000000000000000000000000000000000071ba0fbbdd8e146397ef46b08b16d98aa84175d449c6d185df3b6d34c3b9304e6eee9a04b98523ab42bbcae70d66a4560f2fc9ab58efd51191133a1fba3f5ec14f85231c0",
                "transactions" : [
                    {
                        "data" : "0x00000000000000000000000000000000000000000000000000000000000000010000000000000000000000000000000000000000000000000000000000000002000000000000000000000000000000000000000000000000000000000000002003ffff800000000000000000000000000000000000000000000000000000000000000007",
                        "gasLimit" : "0x01adb0",
                        "gasPrice" : "0x01",
                        "nonce" : "0x00",
                        "r" : "0xfbbdd8e146397ef46b08b16d98aa84175d449c6d185df3b6d34c3b9304e6eee9",
                        "s" : "0x4b98523ab42bbcae70d66a4560f2fc9ab58efd51191133a1fba3f5ec14f85231",
                        "to" : "0x1000000000000000000000000000000000000000",
                        "v" : "0x1b",
                        "value" : "0x00"
                    }
                ],
                "uncleHeaders" : [
                ]
            }
        ],
        "genesisBlockHeader" : {
            "bloom" : "0x00000000000000000000000000000000000000000000000000000000000000000000000000000000000000000000000000000000000000000000000000000000000000000000000000000000000000000000000000000000000000000000000000000000000000000000000000000000000000000000000000000000000000000000000000000000000000000000000000000000000000000000000000000000000000000000000000000000000000000000000000000000000000000000000000000000000000000000000000000000000000000000000000000000000000000000000000000000000000000000000000000000000000000000000000000000",
            "coinbase" : "0x2adc25665018aa1fe0e6bc666dac8fc2697ff9ba",
            "difficulty" : "0x020000",
            "extraData" : "0x42",
            "gasLimit" : "0x02540be400",
            "gasUsed" : "0x00",
            "hash" : "0x70fd8962467cac8e2412f97cc4f775613ccc23d5340252ee5cca67b868639273",
            "mixHash" : "0x56e81f171bcc55a6ff8345e692c0f86e5b48e01b996cadc001622fb5e363b421",
            "nonce" : "0x0102030405060708",
            "number" : "0x00",
            "parentHash" : "0x0000000000000000000000000000000000000000000000000000000000000000",
            "receiptTrie" : "0x56e81f171bcc55a6ff8345e692c0f86e5b48e01b996cadc001622fb5e363b421",
            "stateRoot" : "0xb0afba507e6fef0e690450e0c590ea05c53f4d93ea93a7b92449c437591484ca",
            "timestamp" : "0x03b6",
            "transactionsTrie" : "0x56e81f171bcc55a6ff8345e692c0f86e5b48e01b996cadc001622fb5e363b421",
            "uncleHash" : "0x1dcc4de8dec75d7aab85b567b6ccd41ad312451b948a7413f0a142fd40d49347"
        },
        "genesisRLP" : "0xf901fcf901f7a00000000000000000000000000000000000000000000000000000000000000000a01dcc4de8dec75d7aab85b567b6ccd41ad312451b948a7413f0a142fd40d49347942adc25665018aa1fe0e6bc666dac8fc2697ff9baa0b0afba507e6fef0e690450e0c590ea05c53f4d93ea93a7b92449c437591484caa056e81f171bcc55a6ff8345e692c0f86e5b48e01b996cadc001622fb5e363b421a056e81f171bcc55a6ff8345e692c0f86e5b48e01b996cadc001622fb5e363b421b901000000000000000000000000000000000000000000000000000000000000000000000000000000000000000000000000000000000000000000000000000000000000000000000000000000000000000000000000000000000000000000000000000000000000000000000000000000000000000000000000000000000000000000000000000000000000000000000000000000000000000000000000000000000000000000000000000000000000000000000000000000000000000000000000000000000000000000000000000000000000000000000000000000000000000000000000000000000000000000000000000000000000000000000000000000000083020000808502540be400808203b642a056e81f171bcc55a6ff8345e692c0f86e5b48e01b996cadc001622fb5e363b421880102030405060708c0c0",
        "lastblockhash" : "0x7da4622ec39203474cea74b51a8ed746bbd6fa25661aceded4778565b46abb82",
        "network" : "EIP158",
        "postState" : {
            "0x1000000000000000000000000000000000000000" : {
                "balance" : "0x00",
                "code" : "0x36600060003760206103e8366000600060055af26001556103e851600255",
                "nonce" : "0x00",
                "storage" : {
                    "0x01" : "0x01"
                }
            },
            "0x2adc25665018aa1fe0e6bc666dac8fc2697ff9ba" : {
                "balance" : "0x4563918244f4bb1a",
                "code" : "0x",
                "nonce" : "0x00",
                "storage" : {
                }
            },
            "0xa94f5374fce5edbc8e2a8697c15331677e6ebf0b" : {
                "balance" : "0x3635c9adc5de9f44e6",
                "code" : "0x",
                "nonce" : "0x01",
                "storage" : {
                }
            }
        },
        "pre" : {
            "0x1000000000000000000000000000000000000000" : {
                "balance" : "0x00",
                "code" : "0x36600060003760206103e8366000600060055af26001556103e851600255",
                "nonce" : "0x00",
                "storage" : {
                }
            },
            "0xa94f5374fce5edbc8e2a8697c15331677e6ebf0b" : {
                "balance" : "0x3635c9adc5dea00000",
                "code" : "0x",
                "nonce" : "0x00",
                "storage" : {
                }
            }
        },
        "sealEngine" : "NoProof"
    }
}