{
    "modexp_d31g0v0_Byzantium" : {
        "_info" : {
            "comment" : "",
            "filledwith" : "testeth 1.7.0-alpha.1-20+commit.782a7283",
            "lllcversion" : "Version: 0.5.0-develop.2018.11.9+commit.9709dfe0.Linux.g++",
            "source" : "src/BlockchainTestsFiller/GeneralStateTests/stPreCompiledContracts/modexp_d31g0v0Filler.json",
            "sourceHash" : "61f60fe69bef76f44d0c9fead62a5dd75cfb6360f039e0da82b0cf1777a71c87"
        },
        "blocks" : [
            {
                "blockHeader" : {
                    "bloom" : "0x00000000000000000000000000000000000000000000000000000000000000000000000000000000000000000000000000000000000000000000000000000000000000000000000000000000000000000000000000000000000000000000000000000000000000000000000000000000000000000000000000000000000000000000000000000000000000000000000000000000000000000000000000000000000000000000000000000000000000000000000000000000000000000000000000000000000000000000000000000000000000000000000000000000000000000000000000000000000000000000000000000000000000000000000000000000",
                    "coinbase" : "0x2adc25665018aa1fe0e6bc666dac8fc2697ff9ba",
                    "difficulty" : "0x020000",
                    "extraData" : "0x",
                    "gasLimit" : "0x02540be400",
                    "gasUsed" : "0x011fec",
                    "hash" : "0x3f22427fce077f37472f3f25c656bd081360d248d93d75e65b296e793521f5c8",
                    "mixHash" : "0x0000000000000000000000000000000000000000000000000000000000000000",
                    "nonce" : "0x0000000000000000",
                    "number" : "0x01",
                    "parentHash" : "0x70fd8962467cac8e2412f97cc4f775613ccc23d5340252ee5cca67b868639273",
                    "receiptTrie" : "0xba529b6b864f9020981b50fd923f9de453a87f06d367dde2e5a44c1f7cef16ac",
                    "stateRoot" : "0x7ffd5270c9524243b412347859a9c8180005c5d7c7453166b64ff28137a73df9",
                    "timestamp" : "0x03e8",
                    "transactionsTrie" : "0xbb4d9d96f54ad986ba385e677552cdb79c5080a7dad26627e45b4f6ca6a784dd",
                    "uncleHash" : "0x1dcc4de8dec75d7aab85b567b6ccd41ad312451b948a7413f0a142fd40d49347"
                },
                "rlp" : "0xf90307f901faa070fd8962467cac8e2412f97cc4f775613ccc23d5340252ee5cca67b868639273a01dcc4de8dec75d7aab85b567b6ccd41ad312451b948a7413f0a142fd40d49347942adc25665018aa1fe0e6bc666dac8fc2697ff9baa07ffd5270c9524243b412347859a9c8180005c5d7c7453166b64ff28137a73df9a0bb4d9d96f54ad986ba385e677552cdb79c5080a7dad26627e45b4f6ca6a784dda0ba529b6b864f9020981b50fd923f9de453a87f06d367dde2e5a44c1f7cef16acb901000000000000000000000000000000000000000000000000000000000000000000000000000000000000000000000000000000000000000000000000000000000000000000000000000000000000000000000000000000000000000000000000000000000000000000000000000000000000000000000000000000000000000000000000000000000000000000000000000000000000000000000000000000000000000000000000000000000000000000000000000000000000000000000000000000000000000000000000000000000000000000000000000000000000000000000000000000000000000000000000000000000000000000000000000000000083020000018502540be40083011fec8203e880a00000000000000000000000000000000000000000000000000000000000000000880000000000000000f90106f9010380018405f5e10094100000000000000000000000000000000000000080b8a1000000000000000000000000000000000000000000000000000000000000002100000000000000000000000000000000000000000000000000000000000000100000000000000000000000000000000000000000000000000000000000000010035ee4e488f45e64d2f07becd54646357381d32f30b74c299a8c25d5202c04938ef6c4764a04f10fc908b78c4486886000f6d290251a79681a83b950c7e5c373511ca0c7722626b8e7a1157ac5b6aabdd2eedaa9bc61f3bcac625f63723f40d5e075aaa078452359e76003c2c1adc0ef9cf7fabdafd642e737377b36cf222936606d1899c0",
                "transactions" : [
                    {
                        "data" : "0x000000000000000000000000000000000000000000000000000000000000002100000000000000000000000000000000000000000000000000000000000000100000000000000000000000000000000000000000000000000000000000000010035ee4e488f45e64d2f07becd54646357381d32f30b74c299a8c25d5202c04938ef6c4764a04f10fc908b78c4486886000f6d290251a79681a83b950c7e5c37351",
                        "gasLimit" : "0x05f5e100",
                        "gasPrice" : "0x01",
                        "nonce" : "0x00",
                        "r" : "0xc7722626b8e7a1157ac5b6aabdd2eedaa9bc61f3bcac625f63723f40d5e075aa",
                        "s" : "0x78452359e76003c2c1adc0ef9cf7fabdafd642e737377b36cf222936606d1899",
                        "to" : "0x1000000000000000000000000000000000000000",
                        "v" : "0x1c",
                        "value" : "0x00"
                    }
                ],
                "uncleHeaders" : [
                ]
            }
        ],
        "genesisBlockHeader" : {
            "bloom" : "0x00000000000000000000000000000000000000000000000000000000000000000000000000000000000000000000000000000000000000000000000000000000000000000000000000000000000000000000000000000000000000000000000000000000000000000000000000000000000000000000000000000000000000000000000000000000000000000000000000000000000000000000000000000000000000000000000000000000000000000000000000000000000000000000000000000000000000000000000000000000000000000000000000000000000000000000000000000000000000000000000000000000000000000000000000000000",
            "coinbase" : "0x2adc25665018aa1fe0e6bc666dac8fc2697ff9ba",
            "difficulty" : "0x020000",
            "extraData" : "0x42",
            "gasLimit" : "0x02540be400",
            "gasUsed" : "0x00",
            "hash" : "0x70fd8962467cac8e2412f97cc4f775613ccc23d5340252ee5cca67b868639273",
            "mixHash" : "0x56e81f171bcc55a6ff8345e692c0f86e5b48e01b996cadc001622fb5e363b421",
            "nonce" : "0x0102030405060708",
            "number" : "0x00",
            "parentHash" : "0x0000000000000000000000000000000000000000000000000000000000000000",
            "receiptTrie" : "0x56e81f171bcc55a6ff8345e692c0f86e5b48e01b996cadc001622fb5e363b421",
            "stateRoot" : "0xb0afba507e6fef0e690450e0c590ea05c53f4d93ea93a7b92449c437591484ca",
            "timestamp" : "0x03b6",
            "transactionsTrie" : "0x56e81f171bcc55a6ff8345e692c0f86e5b48e01b996cadc001622fb5e363b421",
            "uncleHash" : "0x1dcc4de8dec75d7aab85b567b6ccd41ad312451b948a7413f0a142fd40d49347"
        },
        "genesisRLP" : "0xf901fcf901f7a00000000000000000000000000000000000000000000000000000000000000000a01dcc4de8dec75d7aab85b567b6ccd41ad312451b948a7413f0a142fd40d49347942adc25665018aa1fe0e6bc666dac8fc2697ff9baa0b0afba507e6fef0e690450e0c590ea05c53f4d93ea93a7b92449c437591484caa056e81f171bcc55a6ff8345e692c0f86e5b48e01b996cadc001622fb5e363b421a056e81f171bcc55a6ff8345e692c0f86e5b48e01b996cadc001622fb5e363b421b901000000000000000000000000000000000000000000000000000000000000000000000000000000000000000000000000000000000000000000000000000000000000000000000000000000000000000000000000000000000000000000000000000000000000000000000000000000000000000000000000000000000000000000000000000000000000000000000000000000000000000000000000000000000000000000000000000000000000000000000000000000000000000000000000000000000000000000000000000000000000000000000000000000000000000000000000000000000000000000000000000000000000000000000000000000000083020000808502540be400808203b642a056e81f171bcc55a6ff8345e692c0f86e5b48e01b996cadc001622fb5e363b421880102030405060708c0c0",
        "lastblockhash" : "0x3f22427fce077f37472f3f25c656bd081360d248d93d75e65b296e793521f5c8",
        "network" : "Byzantium",
        "postState" : {
            "0x1000000000000000000000000000000000000000" : {
                "balance" : "0x00",
                "code" : "0x36600060003760206103e8366000600060055af26001556103e851600255",
                "nonce" : "0x00",
                "storage" : {
                    "0x01" : "0x01",
                    "0x02" : "0x0100000000000000000000000000000000"
                }
            },
            "0x2adc25665018aa1fe0e6bc666dac8fc2697ff9ba" : {
                "balance" : "0x29a2241af62d1fec",
                "code" : "0x",
                "nonce" : "0x00",
                "storage" : {
                }
            },
            "0xa94f5374fce5edbc8e2a8697c15331677e6ebf0b" : {
                "balance" : "0x3635c9adc5de9ee014",
                "code" : "0x",
                "nonce" : "0x01",
                "storage" : {
                }
            }
        },
        "pre" : {
            "0x1000000000000000000000000000000000000000" : {
                "balance" : "0x00",
                "code" : "0x36600060003760206103e8366000600060055af26001556103e851600255",
                "nonce" : "0x00",
                "storage" : {
                }
            },
            "0xa94f5374fce5edbc8e2a8697c15331677e6ebf0b" : {
                "balance" : "0x3635c9adc5dea00000",
                "code" : "0x",
                "nonce" : "0x00",
                "storage" : {
                }
            }
        },
        "sealEngine" : "NoProof"
    },
    "modexp_d31g0v0_Constantinople" : {
        "_info" : {
            "comment" : "",
            "filledwith" : "testeth 1.7.0-alpha.1-20+commit.782a7283",
            "lllcversion" : "Version: 0.5.0-develop.2018.11.9+commit.9709dfe0.Linux.g++",
            "source" : "src/BlockchainTestsFiller/GeneralStateTests/stPreCompiledContracts/modexp_d31g0v0Filler.json",
            "sourceHash" : "61f60fe69bef76f44d0c9fead62a5dd75cfb6360f039e0da82b0cf1777a71c87"
        },
        "blocks" : [
            {
                "blockHeader" : {
                    "bloom" : "0x00000000000000000000000000000000000000000000000000000000000000000000000000000000000000000000000000000000000000000000000000000000000000000000000000000000000000000000000000000000000000000000000000000000000000000000000000000000000000000000000000000000000000000000000000000000000000000000000000000000000000000000000000000000000000000000000000000000000000000000000000000000000000000000000000000000000000000000000000000000000000000000000000000000000000000000000000000000000000000000000000000000000000000000000000000000",
                    "coinbase" : "0x2adc25665018aa1fe0e6bc666dac8fc2697ff9ba",
                    "difficulty" : "0x020000",
                    "extraData" : "0x",
                    "gasLimit" : "0x02540be400",
                    "gasUsed" : "0x011fec",
                    "hash" : "0x7d69c5ba1c305c07e670d2568f8be67c8ca12379f53f89bc14d86726f668614b",
                    "mixHash" : "0x0000000000000000000000000000000000000000000000000000000000000000",
                    "nonce" : "0x0000000000000000",
                    "number" : "0x01",
                    "parentHash" : "0x70fd8962467cac8e2412f97cc4f775613ccc23d5340252ee5cca67b868639273",
                    "receiptTrie" : "0xba529b6b864f9020981b50fd923f9de453a87f06d367dde2e5a44c1f7cef16ac",
                    "stateRoot" : "0x2ec2b04341e1089cef66361f77475890dbb34df23013a6735ecc7956e9507850",
                    "timestamp" : "0x03e8",
                    "transactionsTrie" : "0xbb4d9d96f54ad986ba385e677552cdb79c5080a7dad26627e45b4f6ca6a784dd",
                    "uncleHash" : "0x1dcc4de8dec75d7aab85b567b6ccd41ad312451b948a7413f0a142fd40d49347"
                },
                "rlp" : "0xf90307f901faa070fd8962467cac8e2412f97cc4f775613ccc23d5340252ee5cca67b868639273a01dcc4de8dec75d7aab85b567b6ccd41ad312451b948a7413f0a142fd40d49347942adc25665018aa1fe0e6bc666dac8fc2697ff9baa02ec2b04341e1089cef66361f77475890dbb34df23013a6735ecc7956e9507850a0bb4d9d96f54ad986ba385e677552cdb79c5080a7dad26627e45b4f6ca6a784dda0ba529b6b864f9020981b50fd923f9de453a87f06d367dde2e5a44c1f7cef16acb901000000000000000000000000000000000000000000000000000000000000000000000000000000000000000000000000000000000000000000000000000000000000000000000000000000000000000000000000000000000000000000000000000000000000000000000000000000000000000000000000000000000000000000000000000000000000000000000000000000000000000000000000000000000000000000000000000000000000000000000000000000000000000000000000000000000000000000000000000000000000000000000000000000000000000000000000000000000000000000000000000000000000000000000000000000000083020000018502540be40083011fec8203e880a00000000000000000000000000000000000000000000000000000000000000000880000000000000000f90106f9010380018405f5e10094100000000000000000000000000000000000000080b8a1000000000000000000000000000000000000000000000000000000000000002100000000000000000000000000000000000000000000000000000000000000100000000000000000000000000000000000000000000000000000000000000010035ee4e488f45e64d2f07becd54646357381d32f30b74c299a8c25d5202c04938ef6c4764a04f10fc908b78c4486886000f6d290251a79681a83b950c7e5c373511ca0c7722626b8e7a1157ac5b6aabdd2eedaa9bc61f3bcac625f63723f40d5e075aaa078452359e76003c2c1adc0ef9cf7fabdafd642e737377b36cf222936606d1899c0",
                "transactions" : [
                    {
                        "data" : "0x000000000000000000000000000000000000000000000000000000000000002100000000000000000000000000000000000000000000000000000000000000100000000000000000000000000000000000000000000000000000000000000010035ee4e488f45e64d2f07becd54646357381d32f30b74c299a8c25d5202c04938ef6c4764a04f10fc908b78c4486886000f6d290251a79681a83b950c7e5c37351",
                        "gasLimit" : "0x05f5e100",
                        "gasPrice" : "0x01",
                        "nonce" : "0x00",
                        "r" : "0xc7722626b8e7a1157ac5b6aabdd2eedaa9bc61f3bcac625f63723f40d5e075aa",
                        "s" : "0x78452359e76003c2c1adc0ef9cf7fabdafd642e737377b36cf222936606d1899",
                        "to" : "0x1000000000000000000000000000000000000000",
                        "v" : "0x1c",
                        "value" : "0x00"
                    }
                ],
                "uncleHeaders" : [
                ]
            }
        ],
        "genesisBlockHeader" : {
            "bloom" : "0x00000000000000000000000000000000000000000000000000000000000000000000000000000000000000000000000000000000000000000000000000000000000000000000000000000000000000000000000000000000000000000000000000000000000000000000000000000000000000000000000000000000000000000000000000000000000000000000000000000000000000000000000000000000000000000000000000000000000000000000000000000000000000000000000000000000000000000000000000000000000000000000000000000000000000000000000000000000000000000000000000000000000000000000000000000000",
            "coinbase" : "0x2adc25665018aa1fe0e6bc666dac8fc2697ff9ba",
            "difficulty" : "0x020000",
            "extraData" : "0x42",
            "gasLimit" : "0x02540be400",
            "gasUsed" : "0x00",
            "hash" : "0x70fd8962467cac8e2412f97cc4f775613ccc23d5340252ee5cca67b868639273",
            "mixHash" : "0x56e81f171bcc55a6ff8345e692c0f86e5b48e01b996cadc001622fb5e363b421",
            "nonce" : "0x0102030405060708",
            "number" : "0x00",
            "parentHash" : "0x0000000000000000000000000000000000000000000000000000000000000000",
            "receiptTrie" : "0x56e81f171bcc55a6ff8345e692c0f86e5b48e01b996cadc001622fb5e363b421",
            "stateRoot" : "0xb0afba507e6fef0e690450e0c590ea05c53f4d93ea93a7b92449c437591484ca",
            "timestamp" : "0x03b6",
            "transactionsTrie" : "0x56e81f171bcc55a6ff8345e692c0f86e5b48e01b996cadc001622fb5e363b421",
            "uncleHash" : "0x1dcc4de8dec75d7aab85b567b6ccd41ad312451b948a7413f0a142fd40d49347"
        },
        "genesisRLP" : "0xf901fcf901f7a00000000000000000000000000000000000000000000000000000000000000000a01dcc4de8dec75d7aab85b567b6ccd41ad312451b948a7413f0a142fd40d49347942adc25665018aa1fe0e6bc666dac8fc2697ff9baa0b0afba507e6fef0e690450e0c590ea05c53f4d93ea93a7b92449c437591484caa056e81f171bcc55a6ff8345e692c0f86e5b48e01b996cadc001622fb5e363b421a056e81f171bcc55a6ff8345e692c0f86e5b48e01b996cadc001622fb5e363b421b901000000000000000000000000000000000000000000000000000000000000000000000000000000000000000000000000000000000000000000000000000000000000000000000000000000000000000000000000000000000000000000000000000000000000000000000000000000000000000000000000000000000000000000000000000000000000000000000000000000000000000000000000000000000000000000000000000000000000000000000000000000000000000000000000000000000000000000000000000000000000000000000000000000000000000000000000000000000000000000000000000000000000000000000000000000000083020000808502540be400808203b642a056e81f171bcc55a6ff8345e692c0f86e5b48e01b996cadc001622fb5e363b421880102030405060708c0c0",
        "lastblockhash" : "0x7d69c5ba1c305c07e670d2568f8be67c8ca12379f53f89bc14d86726f668614b",
        "network" : "Constantinople",
        "postState" : {
            "0x1000000000000000000000000000000000000000" : {
                "balance" : "0x00",
                "code" : "0x36600060003760206103e8366000600060055af26001556103e851600255",
                "nonce" : "0x00",
                "storage" : {
                    "0x01" : "0x01",
                    "0x02" : "0x0100000000000000000000000000000000"
                }
            },
            "0x2adc25665018aa1fe0e6bc666dac8fc2697ff9ba" : {
                "balance" : "0x1bc16d674ec91fec",
                "code" : "0x",
                "nonce" : "0x00",
                "storage" : {
                }
            },
            "0xa94f5374fce5edbc8e2a8697c15331677e6ebf0b" : {
                "balance" : "0x3635c9adc5de9ee014",
                "code" : "0x",
                "nonce" : "0x01",
                "storage" : {
                }
            }
        },
        "pre" : {
            "0x1000000000000000000000000000000000000000" : {
                "balance" : "0x00",
                "code" : "0x36600060003760206103e8366000600060055af26001556103e851600255",
                "nonce" : "0x00",
                "storage" : {
                }
            },
            "0xa94f5374fce5edbc8e2a8697c15331677e6ebf0b" : {
                "balance" : "0x3635c9adc5dea00000",
                "code" : "0x",
                "nonce" : "0x00",
                "storage" : {
                }
            }
        },
        "sealEngine" : "NoProof"
    },
    "modexp_d31g0v0_ConstantinopleFix" : {
        "_info" : {
            "comment" : "",
            "filledwith" : "testeth 1.7.0-alpha.1-20+commit.782a7283",
            "lllcversion" : "Version: 0.5.0-develop.2018.11.9+commit.9709dfe0.Linux.g++",
            "source" : "src/BlockchainTestsFiller/GeneralStateTests/stPreCompiledContracts/modexp_d31g0v0Filler.json",
            "sourceHash" : "61f60fe69bef76f44d0c9fead62a5dd75cfb6360f039e0da82b0cf1777a71c87"
        },
        "blocks" : [
            {
                "blockHeader" : {
                    "bloom" : "0x00000000000000000000000000000000000000000000000000000000000000000000000000000000000000000000000000000000000000000000000000000000000000000000000000000000000000000000000000000000000000000000000000000000000000000000000000000000000000000000000000000000000000000000000000000000000000000000000000000000000000000000000000000000000000000000000000000000000000000000000000000000000000000000000000000000000000000000000000000000000000000000000000000000000000000000000000000000000000000000000000000000000000000000000000000000",
                    "coinbase" : "0x2adc25665018aa1fe0e6bc666dac8fc2697ff9ba",
                    "difficulty" : "0x020000",
                    "extraData" : "0x",
                    "gasLimit" : "0x02540be400",
                    "gasUsed" : "0x011fec",
                    "hash" : "0x7d69c5ba1c305c07e670d2568f8be67c8ca12379f53f89bc14d86726f668614b",
                    "mixHash" : "0x0000000000000000000000000000000000000000000000000000000000000000",
                    "nonce" : "0x0000000000000000",
                    "number" : "0x01",
                    "parentHash" : "0x70fd8962467cac8e2412f97cc4f775613ccc23d5340252ee5cca67b868639273",
                    "receiptTrie" : "0xba529b6b864f9020981b50fd923f9de453a87f06d367dde2e5a44c1f7cef16ac",
                    "stateRoot" : "0x2ec2b04341e1089cef66361f77475890dbb34df23013a6735ecc7956e9507850",
                    "timestamp" : "0x03e8",
                    "transactionsTrie" : "0xbb4d9d96f54ad986ba385e677552cdb79c5080a7dad26627e45b4f6ca6a784dd",
                    "uncleHash" : "0x1dcc4de8dec75d7aab85b567b6ccd41ad312451b948a7413f0a142fd40d49347"
                },
                "rlp" : "0xf90307f901faa070fd8962467cac8e2412f97cc4f775613ccc23d5340252ee5cca67b868639273a01dcc4de8dec75d7aab85b567b6ccd41ad312451b948a7413f0a142fd40d49347942adc25665018aa1fe0e6bc666dac8fc2697ff9baa02ec2b04341e1089cef66361f77475890dbb34df23013a6735ecc7956e9507850a0bb4d9d96f54ad986ba385e677552cdb79c5080a7dad26627e45b4f6ca6a784dda0ba529b6b864f9020981b50fd923f9de453a87f06d367dde2e5a44c1f7cef16acb901000000000000000000000000000000000000000000000000000000000000000000000000000000000000000000000000000000000000000000000000000000000000000000000000000000000000000000000000000000000000000000000000000000000000000000000000000000000000000000000000000000000000000000000000000000000000000000000000000000000000000000000000000000000000000000000000000000000000000000000000000000000000000000000000000000000000000000000000000000000000000000000000000000000000000000000000000000000000000000000000000000000000000000000000000000000083020000018502540be40083011fec8203e880a00000000000000000000000000000000000000000000000000000000000000000880000000000000000f90106f9010380018405f5e10094100000000000000000000000000000000000000080b8a1000000000000000000000000000000000000000000000000000000000000002100000000000000000000000000000000000000000000000000000000000000100000000000000000000000000000000000000000000000000000000000000010035ee4e488f45e64d2f07becd54646357381d32f30b74c299a8c25d5202c04938ef6c4764a04f10fc908b78c4486886000f6d290251a79681a83b950c7e5c373511ca0c7722626b8e7a1157ac5b6aabdd2eedaa9bc61f3bcac625f63723f40d5e075aaa078452359e76003c2c1adc0ef9cf7fabdafd642e737377b36cf222936606d1899c0",
                "transactions" : [
                    {
                        "data" : "0x000000000000000000000000000000000000000000000000000000000000002100000000000000000000000000000000000000000000000000000000000000100000000000000000000000000000000000000000000000000000000000000010035ee4e488f45e64d2f07becd54646357381d32f30b74c299a8c25d5202c04938ef6c4764a04f10fc908b78c4486886000f6d290251a79681a83b950c7e5c37351",
                        "gasLimit" : "0x05f5e100",
                        "gasPrice" : "0x01",
                        "nonce" : "0x00",
                        "r" : "0xc7722626b8e7a1157ac5b6aabdd2eedaa9bc61f3bcac625f63723f40d5e075aa",
                        "s" : "0x78452359e76003c2c1adc0ef9cf7fabdafd642e737377b36cf222936606d1899",
                        "to" : "0x1000000000000000000000000000000000000000",
                        "v" : "0x1c",
                        "value" : "0x00"
                    }
                ],
                "uncleHeaders" : [
                ]
            }
        ],
        "genesisBlockHeader" : {
            "bloom" : "0x00000000000000000000000000000000000000000000000000000000000000000000000000000000000000000000000000000000000000000000000000000000000000000000000000000000000000000000000000000000000000000000000000000000000000000000000000000000000000000000000000000000000000000000000000000000000000000000000000000000000000000000000000000000000000000000000000000000000000000000000000000000000000000000000000000000000000000000000000000000000000000000000000000000000000000000000000000000000000000000000000000000000000000000000000000000",
            "coinbase" : "0x2adc25665018aa1fe0e6bc666dac8fc2697ff9ba",
            "difficulty" : "0x020000",
            "extraData" : "0x42",
            "gasLimit" : "0x02540be400",
            "gasUsed" : "0x00",
            "hash" : "0x70fd8962467cac8e2412f97cc4f775613ccc23d5340252ee5cca67b868639273",
            "mixHash" : "0x56e81f171bcc55a6ff8345e692c0f86e5b48e01b996cadc001622fb5e363b421",
            "nonce" : "0x0102030405060708",
            "number" : "0x00",
            "parentHash" : "0x0000000000000000000000000000000000000000000000000000000000000000",
            "receiptTrie" : "0x56e81f171bcc55a6ff8345e692c0f86e5b48e01b996cadc001622fb5e363b421",
            "stateRoot" : "0xb0afba507e6fef0e690450e0c590ea05c53f4d93ea93a7b92449c437591484ca",
            "timestamp" : "0x03b6",
            "transactionsTrie" : "0x56e81f171bcc55a6ff8345e692c0f86e5b48e01b996cadc001622fb5e363b421",
            "uncleHash" : "0x1dcc4de8dec75d7aab85b567b6ccd41ad312451b948a7413f0a142fd40d49347"
        },
        "genesisRLP" : "0xf901fcf901f7a00000000000000000000000000000000000000000000000000000000000000000a01dcc4de8dec75d7aab85b567b6ccd41ad312451b948a7413f0a142fd40d49347942adc25665018aa1fe0e6bc666dac8fc2697ff9baa0b0afba507e6fef0e690450e0c590ea05c53f4d93ea93a7b92449c437591484caa056e81f171bcc55a6ff8345e692c0f86e5b48e01b996cadc001622fb5e363b421a056e81f171bcc55a6ff8345e692c0f86e5b48e01b996cadc001622fb5e363b421b901000000000000000000000000000000000000000000000000000000000000000000000000000000000000000000000000000000000000000000000000000000000000000000000000000000000000000000000000000000000000000000000000000000000000000000000000000000000000000000000000000000000000000000000000000000000000000000000000000000000000000000000000000000000000000000000000000000000000000000000000000000000000000000000000000000000000000000000000000000000000000000000000000000000000000000000000000000000000000000000000000000000000000000000000000000000083020000808502540be400808203b642a056e81f171bcc55a6ff8345e692c0f86e5b48e01b996cadc001622fb5e363b421880102030405060708c0c0",
        "lastblockhash" : "0x7d69c5ba1c305c07e670d2568f8be67c8ca12379f53f89bc14d86726f668614b",
        "network" : "ConstantinopleFix",
        "postState" : {
            "0x1000000000000000000000000000000000000000" : {
                "balance" : "0x00",
                "code" : "0x36600060003760206103e8366000600060055af26001556103e851600255",
                "nonce" : "0x00",
                "storage" : {
                    "0x01" : "0x01",
                    "0x02" : "0x0100000000000000000000000000000000"
                }
            },
            "0x2adc25665018aa1fe0e6bc666dac8fc2697ff9ba" : {
                "balance" : "0x1bc16d674ec91fec",
                "code" : "0x",
                "nonce" : "0x00",
                "storage" : {
                }
            },
            "0xa94f5374fce5edbc8e2a8697c15331677e6ebf0b" : {
                "balance" : "0x3635c9adc5de9ee014",
                "code" : "0x",
                "nonce" : "0x01",
                "storage" : {
                }
            }
        },
        "pre" : {
            "0x1000000000000000000000000000000000000000" : {
                "balance" : "0x00",
                "code" : "0x36600060003760206103e8366000600060055af26001556103e851600255",
                "nonce" : "0x00",
                "storage" : {
                }
            },
            "0xa94f5374fce5edbc8e2a8697c15331677e6ebf0b" : {
                "balance" : "0x3635c9adc5dea00000",
                "code" : "0x",
                "nonce" : "0x00",
                "storage" : {
                }
            }
        },
        "sealEngine" : "NoProof"
    },
    "modexp_d31g0v0_EIP150" : {
        "_info" : {
            "comment" : "",
            "filledwith" : "testeth 1.7.0-alpha.1-20+commit.782a7283",
            "lllcversion" : "Version: 0.5.0-develop.2018.11.9+commit.9709dfe0.Linux.g++",
            "source" : "src/BlockchainTestsFiller/GeneralStateTests/stPreCompiledContracts/modexp_d31g0v0Filler.json",
            "sourceHash" : "61f60fe69bef76f44d0c9fead62a5dd75cfb6360f039e0da82b0cf1777a71c87"
        },
        "blocks" : [
            {
                "blockHeader" : {
                    "bloom" : "0x00000000000000000000000000000000000000000000000000000000000000000000000000000000000000000000000000000000000000000000000000000000000000000000000000000000000000000000000000000000000000000000000000000000000000000000000000000000000000000000000000000000000000000000000000000000000000000000000000000000000000000000000000000000000000000000000000000000000000000000000000000000000000000000000000000000000000000000000000000000000000000000000000000000000000000000000000000000000000000000000000000000000000000000000000000000",
                    "coinbase" : "0x2adc25665018aa1fe0e6bc666dac8fc2697ff9ba",
                    "difficulty" : "0x020000",
                    "extraData" : "0x",
                    "gasLimit" : "0x02540be400",
                    "gasUsed" : "0xca51",
                    "hash" : "0x96b66799be4abd9eccd6e2cb512291e79b09acb523e6e08e71c3b8f27c736d49",
                    "mixHash" : "0x0000000000000000000000000000000000000000000000000000000000000000",
                    "nonce" : "0x0000000000000000",
                    "number" : "0x01",
                    "parentHash" : "0x70fd8962467cac8e2412f97cc4f775613ccc23d5340252ee5cca67b868639273",
                    "receiptTrie" : "0xc9de75ec0416876e5e089f1a4afe7f3d00bc111d14e09de0b29f20771bdfbabd",
                    "stateRoot" : "0xa3443c9544f535be1ac0377bd77a44b7b9f37d91d9b8e26214fa340db68e3405",
                    "timestamp" : "0x03e8",
                    "transactionsTrie" : "0xbb4d9d96f54ad986ba385e677552cdb79c5080a7dad26627e45b4f6ca6a784dd",
                    "uncleHash" : "0x1dcc4de8dec75d7aab85b567b6ccd41ad312451b948a7413f0a142fd40d49347"
                },
                "rlp" : "0xf90306f901f9a070fd8962467cac8e2412f97cc4f775613ccc23d5340252ee5cca67b868639273a01dcc4de8dec75d7aab85b567b6ccd41ad312451b948a7413f0a142fd40d49347942adc25665018aa1fe0e6bc666dac8fc2697ff9baa0a3443c9544f535be1ac0377bd77a44b7b9f37d91d9b8e26214fa340db68e3405a0bb4d9d96f54ad986ba385e677552cdb79c5080a7dad26627e45b4f6ca6a784dda0c9de75ec0416876e5e089f1a4afe7f3d00bc111d14e09de0b29f20771bdfbabdb901000000000000000000000000000000000000000000000000000000000000000000000000000000000000000000000000000000000000000000000000000000000000000000000000000000000000000000000000000000000000000000000000000000000000000000000000000000000000000000000000000000000000000000000000000000000000000000000000000000000000000000000000000000000000000000000000000000000000000000000000000000000000000000000000000000000000000000000000000000000000000000000000000000000000000000000000000000000000000000000000000000000000000000000000000000000083020000018502540be40082ca518203e880a00000000000000000000000000000000000000000000000000000000000000000880000000000000000f90106f9010380018405f5e10094100000000000000000000000000000000000000080b8a1000000000000000000000000000000000000000000000000000000000000002100000000000000000000000000000000000000000000000000000000000000100000000000000000000000000000000000000000000000000000000000000010035ee4e488f45e64d2f07becd54646357381d32f30b74c299a8c25d5202c04938ef6c4764a04f10fc908b78c4486886000f6d290251a79681a83b950c7e5c373511ca0c7722626b8e7a1157ac5b6aabdd2eedaa9bc61f3bcac625f63723f40d5e075aaa078452359e76003c2c1adc0ef9cf7fabdafd642e737377b36cf222936606d1899c0",
                "transactions" : [
                    {
                        "data" : "0x000000000000000000000000000000000000000000000000000000000000002100000000000000000000000000000000000000000000000000000000000000100000000000000000000000000000000000000000000000000000000000000010035ee4e488f45e64d2f07becd54646357381d32f30b74c299a8c25d5202c04938ef6c4764a04f10fc908b78c4486886000f6d290251a79681a83b950c7e5c37351",
                        "gasLimit" : "0x05f5e100",
                        "gasPrice" : "0x01",
                        "nonce" : "0x00",
                        "r" : "0xc7722626b8e7a1157ac5b6aabdd2eedaa9bc61f3bcac625f63723f40d5e075aa",
                        "s" : "0x78452359e76003c2c1adc0ef9cf7fabdafd642e737377b36cf222936606d1899",
                        "to" : "0x1000000000000000000000000000000000000000",
                        "v" : "0x1c",
                        "value" : "0x00"
                    }
                ],
                "uncleHeaders" : [
                ]
            }
        ],
        "genesisBlockHeader" : {
            "bloom" : "0x00000000000000000000000000000000000000000000000000000000000000000000000000000000000000000000000000000000000000000000000000000000000000000000000000000000000000000000000000000000000000000000000000000000000000000000000000000000000000000000000000000000000000000000000000000000000000000000000000000000000000000000000000000000000000000000000000000000000000000000000000000000000000000000000000000000000000000000000000000000000000000000000000000000000000000000000000000000000000000000000000000000000000000000000000000000",
            "coinbase" : "0x2adc25665018aa1fe0e6bc666dac8fc2697ff9ba",
            "difficulty" : "0x020000",
            "extraData" : "0x42",
            "gasLimit" : "0x02540be400",
            "gasUsed" : "0x00",
            "hash" : "0x70fd8962467cac8e2412f97cc4f775613ccc23d5340252ee5cca67b868639273",
            "mixHash" : "0x56e81f171bcc55a6ff8345e692c0f86e5b48e01b996cadc001622fb5e363b421",
            "nonce" : "0x0102030405060708",
            "number" : "0x00",
            "parentHash" : "0x0000000000000000000000000000000000000000000000000000000000000000",
            "receiptTrie" : "0x56e81f171bcc55a6ff8345e692c0f86e5b48e01b996cadc001622fb5e363b421",
            "stateRoot" : "0xb0afba507e6fef0e690450e0c590ea05c53f4d93ea93a7b92449c437591484ca",
            "timestamp" : "0x03b6",
            "transactionsTrie" : "0x56e81f171bcc55a6ff8345e692c0f86e5b48e01b996cadc001622fb5e363b421",
            "uncleHash" : "0x1dcc4de8dec75d7aab85b567b6ccd41ad312451b948a7413f0a142fd40d49347"
        },
        "genesisRLP" : "0xf901fcf901f7a00000000000000000000000000000000000000000000000000000000000000000a01dcc4de8dec75d7aab85b567b6ccd41ad312451b948a7413f0a142fd40d49347942adc25665018aa1fe0e6bc666dac8fc2697ff9baa0b0afba507e6fef0e690450e0c590ea05c53f4d93ea93a7b92449c437591484caa056e81f171bcc55a6ff8345e692c0f86e5b48e01b996cadc001622fb5e363b421a056e81f171bcc55a6ff8345e692c0f86e5b48e01b996cadc001622fb5e363b421b901000000000000000000000000000000000000000000000000000000000000000000000000000000000000000000000000000000000000000000000000000000000000000000000000000000000000000000000000000000000000000000000000000000000000000000000000000000000000000000000000000000000000000000000000000000000000000000000000000000000000000000000000000000000000000000000000000000000000000000000000000000000000000000000000000000000000000000000000000000000000000000000000000000000000000000000000000000000000000000000000000000000000000000000000000000000083020000808502540be400808203b642a056e81f171bcc55a6ff8345e692c0f86e5b48e01b996cadc001622fb5e363b421880102030405060708c0c0",
        "lastblockhash" : "0x96b66799be4abd9eccd6e2cb512291e79b09acb523e6e08e71c3b8f27c736d49",
        "network" : "EIP150",
        "postState" : {
            "0x1000000000000000000000000000000000000000" : {
                "balance" : "0x00",
                "code" : "0x36600060003760206103e8366000600060055af26001556103e851600255",
                "nonce" : "0x00",
                "storage" : {
                    "0x01" : "0x01"
                }
            },
            "0x2adc25665018aa1fe0e6bc666dac8fc2697ff9ba" : {
                "balance" : "0x4563918244f4ca51",
                "code" : "0x",
                "nonce" : "0x00",
                "storage" : {
                }
            },
            "0xa94f5374fce5edbc8e2a8697c15331677e6ebf0b" : {
                "balance" : "0x3635c9adc5de9f35af",
                "code" : "0x",
                "nonce" : "0x01",
                "storage" : {
                }
            }
        },
        "pre" : {
            "0x1000000000000000000000000000000000000000" : {
                "balance" : "0x00",
                "code" : "0x36600060003760206103e8366000600060055af26001556103e851600255",
                "nonce" : "0x00",
                "storage" : {
                }
            },
            "0xa94f5374fce5edbc8e2a8697c15331677e6ebf0b" : {
                "balance" : "0x3635c9adc5dea00000",
                "code" : "0x",
                "nonce" : "0x00",
                "storage" : {
                }
            }
        },
        "sealEngine" : "NoProof"
    },
    "modexp_d31g0v0_EIP158" : {
        "_info" : {
            "comment" : "",
            "filledwith" : "testeth 1.7.0-alpha.1-20+commit.782a7283",
            "lllcversion" : "Version: 0.5.0-develop.2018.11.9+commit.9709dfe0.Linux.g++",
            "source" : "src/BlockchainTestsFiller/GeneralStateTests/stPreCompiledContracts/modexp_d31g0v0Filler.json",
            "sourceHash" : "61f60fe69bef76f44d0c9fead62a5dd75cfb6360f039e0da82b0cf1777a71c87"
        },
        "blocks" : [
            {
                "blockHeader" : {
                    "bloom" : "0x00000000000000000000000000000000000000000000000000000000000000000000000000000000000000000000000000000000000000000000000000000000000000000000000000000000000000000000000000000000000000000000000000000000000000000000000000000000000000000000000000000000000000000000000000000000000000000000000000000000000000000000000000000000000000000000000000000000000000000000000000000000000000000000000000000000000000000000000000000000000000000000000000000000000000000000000000000000000000000000000000000000000000000000000000000000",
                    "coinbase" : "0x2adc25665018aa1fe0e6bc666dac8fc2697ff9ba",
                    "difficulty" : "0x020000",
                    "extraData" : "0x",
                    "gasLimit" : "0x02540be400",
                    "gasUsed" : "0xca51",
                    "hash" : "0x96b66799be4abd9eccd6e2cb512291e79b09acb523e6e08e71c3b8f27c736d49",
                    "mixHash" : "0x0000000000000000000000000000000000000000000000000000000000000000",
                    "nonce" : "0x0000000000000000",
                    "number" : "0x01",
                    "parentHash" : "0x70fd8962467cac8e2412f97cc4f775613ccc23d5340252ee5cca67b868639273",
                    "receiptTrie" : "0xc9de75ec0416876e5e089f1a4afe7f3d00bc111d14e09de0b29f20771bdfbabd",
                    "stateRoot" : "0xa3443c9544f535be1ac0377bd77a44b7b9f37d91d9b8e26214fa340db68e3405",
                    "timestamp" : "0x03e8",
                    "transactionsTrie" : "0xbb4d9d96f54ad986ba385e677552cdb79c5080a7dad26627e45b4f6ca6a784dd",
                    "uncleHash" : "0x1dcc4de8dec75d7aab85b567b6ccd41ad312451b948a7413f0a142fd40d49347"
                },
                "rlp" : "0xf90306f901f9a070fd8962467cac8e2412f97cc4f775613ccc23d5340252ee5cca67b868639273a01dcc4de8dec75d7aab85b567b6ccd41ad312451b948a7413f0a142fd40d49347942adc25665018aa1fe0e6bc666dac8fc2697ff9baa0a3443c9544f535be1ac0377bd77a44b7b9f37d91d9b8e26214fa340db68e3405a0bb4d9d96f54ad986ba385e677552cdb79c5080a7dad26627e45b4f6ca6a784dda0c9de75ec0416876e5e089f1a4afe7f3d00bc111d14e09de0b29f20771bdfbabdb901000000000000000000000000000000000000000000000000000000000000000000000000000000000000000000000000000000000000000000000000000000000000000000000000000000000000000000000000000000000000000000000000000000000000000000000000000000000000000000000000000000000000000000000000000000000000000000000000000000000000000000000000000000000000000000000000000000000000000000000000000000000000000000000000000000000000000000000000000000000000000000000000000000000000000000000000000000000000000000000000000000000000000000000000000000000083020000018502540be40082ca518203e880a00000000000000000000000000000000000000000000000000000000000000000880000000000000000f90106f9010380018405f5e10094100000000000000000000000000000000000000080b8a1000000000000000000000000000000000000000000000000000000000000002100000000000000000000000000000000000000000000000000000000000000100000000000000000000000000000000000000000000000000000000000000010035ee4e488f45e64d2f07becd54646357381d32f30b74c299a8c25d5202c04938ef6c4764a04f10fc908b78c4486886000f6d290251a79681a83b950c7e5c373511ca0c7722626b8e7a1157ac5b6aabdd2eedaa9bc61f3bcac625f63723f40d5e075aaa078452359e76003c2c1adc0ef9cf7fabdafd642e737377b36cf222936606d1899c0",
                "transactions" : [
                    {
                        "data" : "0x000000000000000000000000000000000000000000000000000000000000002100000000000000000000000000000000000000000000000000000000000000100000000000000000000000000000000000000000000000000000000000000010035ee4e488f45e64d2f07becd54646357381d32f30b74c299a8c25d5202c04938ef6c4764a04f10fc908b78c4486886000f6d290251a79681a83b950c7e5c37351",
                        "gasLimit" : "0x05f5e100",
                        "gasPrice" : "0x01",
                        "nonce" : "0x00",
                        "r" : "0xc7722626b8e7a1157ac5b6aabdd2eedaa9bc61f3bcac625f63723f40d5e075aa",
                        "s" : "0x78452359e76003c2c1adc0ef9cf7fabdafd642e737377b36cf222936606d1899",
                        "to" : "0x1000000000000000000000000000000000000000",
                        "v" : "0x1c",
                        "value" : "0x00"
                    }
                ],
                "uncleHeaders" : [
                ]
            }
        ],
        "genesisBlockHeader" : {
            "bloom" : "0x00000000000000000000000000000000000000000000000000000000000000000000000000000000000000000000000000000000000000000000000000000000000000000000000000000000000000000000000000000000000000000000000000000000000000000000000000000000000000000000000000000000000000000000000000000000000000000000000000000000000000000000000000000000000000000000000000000000000000000000000000000000000000000000000000000000000000000000000000000000000000000000000000000000000000000000000000000000000000000000000000000000000000000000000000000000",
            "coinbase" : "0x2adc25665018aa1fe0e6bc666dac8fc2697ff9ba",
            "difficulty" : "0x020000",
            "extraData" : "0x42",
            "gasLimit" : "0x02540be400",
            "gasUsed" : "0x00",
            "hash" : "0x70fd8962467cac8e2412f97cc4f775613ccc23d5340252ee5cca67b868639273",
            "mixHash" : "0x56e81f171bcc55a6ff8345e692c0f86e5b48e01b996cadc001622fb5e363b421",
            "nonce" : "0x0102030405060708",
            "number" : "0x00",
            "parentHash" : "0x0000000000000000000000000000000000000000000000000000000000000000",
            "receiptTrie" : "0x56e81f171bcc55a6ff8345e692c0f86e5b48e01b996cadc001622fb5e363b421",
            "stateRoot" : "0xb0afba507e6fef0e690450e0c590ea05c53f4d93ea93a7b92449c437591484ca",
            "timestamp" : "0x03b6",
            "transactionsTrie" : "0x56e81f171bcc55a6ff8345e692c0f86e5b48e01b996cadc001622fb5e363b421",
            "uncleHash" : "0x1dcc4de8dec75d7aab85b567b6ccd41ad312451b948a7413f0a142fd40d49347"
        },
        "genesisRLP" : "0xf901fcf901f7a00000000000000000000000000000000000000000000000000000000000000000a01dcc4de8dec75d7aab85b567b6ccd41ad312451b948a7413f0a142fd40d49347942adc25665018aa1fe0e6bc666dac8fc2697ff9baa0b0afba507e6fef0e690450e0c590ea05c53f4d93ea93a7b92449c437591484caa056e81f171bcc55a6ff8345e692c0f86e5b48e01b996cadc001622fb5e363b421a056e81f171bcc55a6ff8345e692c0f86e5b48e01b996cadc001622fb5e363b421b901000000000000000000000000000000000000000000000000000000000000000000000000000000000000000000000000000000000000000000000000000000000000000000000000000000000000000000000000000000000000000000000000000000000000000000000000000000000000000000000000000000000000000000000000000000000000000000000000000000000000000000000000000000000000000000000000000000000000000000000000000000000000000000000000000000000000000000000000000000000000000000000000000000000000000000000000000000000000000000000000000000000000000000000000000000000083020000808502540be400808203b642a056e81f171bcc55a6ff8345e692c0f86e5b48e01b996cadc001622fb5e363b421880102030405060708c0c0",
        "lastblockhash" : "0x96b66799be4abd9eccd6e2cb512291e79b09acb523e6e08e71c3b8f27c736d49",
        "network" : "EIP158",
        "postState" : {
            "0x1000000000000000000000000000000000000000" : {
                "balance" : "0x00",
                "code" : "0x36600060003760206103e8366000600060055af26001556103e851600255",
                "nonce" : "0x00",
                "storage" : {
                    "0x01" : "0x01"
                }
            },
            "0x2adc25665018aa1fe0e6bc666dac8fc2697ff9ba" : {
                "balance" : "0x4563918244f4ca51",
                "code" : "0x",
                "nonce" : "0x00",
                "storage" : {
                }
            },
            "0xa94f5374fce5edbc8e2a8697c15331677e6ebf0b" : {
                "balance" : "0x3635c9adc5de9f35af",
                "code" : "0x",
                "nonce" : "0x01",
                "storage" : {
                }
            }
        },
        "pre" : {
            "0x1000000000000000000000000000000000000000" : {
                "balance" : "0x00",
                "code" : "0x36600060003760206103e8366000600060055af26001556103e851600255",
                "nonce" : "0x00",
                "storage" : {
                }
            },
            "0xa94f5374fce5edbc8e2a8697c15331677e6ebf0b" : {
                "balance" : "0x3635c9adc5dea00000",
                "code" : "0x",
                "nonce" : "0x00",
                "storage" : {
                }
            }
        },
        "sealEngine" : "NoProof"
    }
}