{
    "pairingTest_d0g3v0_Byzantium" : {
        "_info" : {
            "comment" : "",
            "filledwith" : "testeth 1.7.0-alpha.1-20+commit.782a7283",
            "lllcversion" : "Version: 0.5.0-develop.2018.11.9+commit.9709dfe0.Linux.g++",
            "source" : "src/BlockchainTestsFiller/GeneralStateTests/stZeroKnowledge/pairingTest_d0g3v0Filler.json",
            "sourceHash" : "2cdbf8a3f46f66b44c3fd85d764d0c703da0f4a1f5860e8e79b7835478f1b248"
        },
        "blocks" : [
            {
                "blockHeader" : {
                    "bloom" : "0x00000000000000000000000000000000000000000000000000000000000000000000000000000000000000000000000000000000000000000000000000000000000000000000000000000000000000000000000000000000000000000000000000000000000000000000000000000000000000000000000000000000000000000000000000000000000000000000000000000000000000000000000000000000000000000000000000000000000000000000000000000000000000000000000000000000000000000000000000000000000000000000000000000000000000000000000000000000000000000000000000000000000000000000000000000000",
                    "coinbase" : "0x68795c4aa09d6f4ed3e5deddf8c2ad3049a601da",
                    "difficulty" : "0x020000",
                    "extraData" : "0x",
                    "gasLimit" : "0xd5ce6f",
                    "gasUsed" : "0x030d40",
                    "hash" : "0x9ddfc5cac52f1f23a482891e8c4a2382564f222a4e607756cfba46ef757c4821",
                    "mixHash" : "0x0000000000000000000000000000000000000000000000000000000000000000",
                    "nonce" : "0x0000000000000000",
                    "number" : "0x01",
                    "parentHash" : "0x92fdbb1579b834d62b5fd29f9770bbe616d7fb9ac28a27b7fa9524572b58f4cf",
                    "receiptTrie" : "0xea5b87d12423d7570eb418dcdbb9f547f8fcc0577bd026d2189fd8fb550b85cf",
                    "stateRoot" : "0x6212e18a675ec4520c79208bbea42ab5871a69851d126815a4e69fa6ba7b2658",
                    "timestamp" : "0x03e8",
                    "transactionsTrie" : "0x4b1d75bd011952643468544e774bbffa05d5fea471b5188dfe4782b9c99cf416",
                    "uncleHash" : "0x1dcc4de8dec75d7aab85b567b6ccd41ad312451b948a7413f0a142fd40d49347"
                },
                "rlp" : "0xf90404f901f8a092fdbb1579b834d62b5fd29f9770bbe616d7fb9ac28a27b7fa9524572b58f4cfa01dcc4de8dec75d7aab85b567b6ccd41ad312451b948a7413f0a142fd40d493479468795c4aa09d6f4ed3e5deddf8c2ad3049a601daa06212e18a675ec4520c79208bbea42ab5871a69851d126815a4e69fa6ba7b2658a04b1d75bd011952643468544e774bbffa05d5fea471b5188dfe4782b9c99cf416a0ea5b87d12423d7570eb418dcdbb9f547f8fcc0577bd026d2189fd8fb550b85cfb9010000000000000000000000000000000000000000000000000000000000000000000000000000000000000000000000000000000000000000000000000000000000000000000000000000000000000000000000000000000000000000000000000000000000000000000000000000000000000000000000000000000000000000000000000000000000000000000000000000000000000000000000000000000000000000000000000000000000000000000000000000000000000000000000000000000000000000000000000000000000000000000000000000000000000000000000000000000000000000000000000000000000000000000000000000000000830200000183d5ce6f83030d408203e880a00000000000000000000000000000000000000000000000000000000000000000880000000000000000f90205f90202010183030d4094b94f5374fce5edbc8e2a8697c15331677e6ebf0b80b901a000000000000000000000000000000000000000000000000000000000000001801c76476f4def4bb94541d57ebba1193381ffa7aa76ada664dd31c16024c43f593034dd2920f673e204fee2811c678745fc819b55d3e9d294e45c9b03a76aef41209dd15ebff5d46c4bd888e51a93cf99a7329636c63514396b4a452003a35bf704bf11ca01483bfa8b34b43561848d28905960114c8ac04049af4b6315a416782bb8324af6cfc93537a2ad1a445cfd0ca2a71acd7ac41fadbf933c2a51be344d120a2a4cf30c1bf9845f20c6fe39e07ea2cce61f0c9bb048165fe5e4de877550111e129f1cf1097710d41c4ac70fcdfa5ba2023c6ff1cbeac322de49d1b6df7c2032c61a830e3c17286de9462bf242fca2883585b93870a73853face6a6bf411198e9393920d483a7260bfb731fb5d25f1aa493335a9e71297e485b7aef312c21800deef121f1e76426a00665e5c4479674322d4f75edadd46debd5cd992f6ed090689d0585ff075ec9e99ad690c3395bc4b313370b38ef355acdadcd122975b12c85ea5db8c6deb4aab71808dcb408fe3d1e7690c43d37b4ce6cc0166fa7daa1ca0d316604294de8ec9605096aaa537afd0423d01b43289137a83f782604aebd30ca0791d969890e6beb9f7f3d632f66ae0e774d4423d594fa02df652037b364545f2c0",
                "transactions" : [
                    {
                        "data" : "0x00000000000000000000000000000000000000000000000000000000000001801c76476f4def4bb94541d57ebba1193381ffa7aa76ada664dd31c16024c43f593034dd2920f673e204fee2811c678745fc819b55d3e9d294e45c9b03a76aef41209dd15ebff5d46c4bd888e51a93cf99a7329636c63514396b4a452003a35bf704bf11ca01483bfa8b34b43561848d28905960114c8ac04049af4b6315a416782bb8324af6cfc93537a2ad1a445cfd0ca2a71acd7ac41fadbf933c2a51be344d120a2a4cf30c1bf9845f20c6fe39e07ea2cce61f0c9bb048165fe5e4de877550111e129f1cf1097710d41c4ac70fcdfa5ba2023c6ff1cbeac322de49d1b6df7c2032c61a830e3c17286de9462bf242fca2883585b93870a73853face6a6bf411198e9393920d483a7260bfb731fb5d25f1aa493335a9e71297e485b7aef312c21800deef121f1e76426a00665e5c4479674322d4f75edadd46debd5cd992f6ed090689d0585ff075ec9e99ad690c3395bc4b313370b38ef355acdadcd122975b12c85ea5db8c6deb4aab71808dcb408fe3d1e7690c43d37b4ce6cc0166fa7daa",
                        "gasLimit" : "0x030d40",
                        "gasPrice" : "0x01",
                        "nonce" : "0x01",
                        "r" : "0xd316604294de8ec9605096aaa537afd0423d01b43289137a83f782604aebd30c",
                        "s" : "0x791d969890e6beb9f7f3d632f66ae0e774d4423d594fa02df652037b364545f2",
                        "to" : "0xb94f5374fce5edbc8e2a8697c15331677e6ebf0b",
                        "v" : "0x1c",
                        "value" : "0x00"
                    }
                ],
                "uncleHeaders" : [
                ]
            }
        ],
        "genesisBlockHeader" : {
            "bloom" : "0x00000000000000000000000000000000000000000000000000000000000000000000000000000000000000000000000000000000000000000000000000000000000000000000000000000000000000000000000000000000000000000000000000000000000000000000000000000000000000000000000000000000000000000000000000000000000000000000000000000000000000000000000000000000000000000000000000000000000000000000000000000000000000000000000000000000000000000000000000000000000000000000000000000000000000000000000000000000000000000000000000000000000000000000000000000000",
            "coinbase" : "0x68795c4aa09d6f4ed3e5deddf8c2ad3049a601da",
            "difficulty" : "0x020000",
            "extraData" : "0x42",
            "gasLimit" : "0xd5ce6f",
            "gasUsed" : "0x00",
            "hash" : "0x92fdbb1579b834d62b5fd29f9770bbe616d7fb9ac28a27b7fa9524572b58f4cf",
            "mixHash" : "0x56e81f171bcc55a6ff8345e692c0f86e5b48e01b996cadc001622fb5e363b421",
            "nonce" : "0x0102030405060708",
            "number" : "0x00",
            "parentHash" : "0x0000000000000000000000000000000000000000000000000000000000000000",
            "receiptTrie" : "0x56e81f171bcc55a6ff8345e692c0f86e5b48e01b996cadc001622fb5e363b421",
            "stateRoot" : "0xa58f7365e4f5906e2945541429243a587e9d55bc47a4ea9e4757e58a78d45ac9",
            "timestamp" : "0x03b6",
            "transactionsTrie" : "0x56e81f171bcc55a6ff8345e692c0f86e5b48e01b996cadc001622fb5e363b421",
            "uncleHash" : "0x1dcc4de8dec75d7aab85b567b6ccd41ad312451b948a7413f0a142fd40d49347"
        },
        "genesisRLP" : "0xf901faf901f5a00000000000000000000000000000000000000000000000000000000000000000a01dcc4de8dec75d7aab85b567b6ccd41ad312451b948a7413f0a142fd40d493479468795c4aa09d6f4ed3e5deddf8c2ad3049a601daa0a58f7365e4f5906e2945541429243a587e9d55bc47a4ea9e4757e58a78d45ac9a056e81f171bcc55a6ff8345e692c0f86e5b48e01b996cadc001622fb5e363b421a056e81f171bcc55a6ff8345e692c0f86e5b48e01b996cadc001622fb5e363b421b9010000000000000000000000000000000000000000000000000000000000000000000000000000000000000000000000000000000000000000000000000000000000000000000000000000000000000000000000000000000000000000000000000000000000000000000000000000000000000000000000000000000000000000000000000000000000000000000000000000000000000000000000000000000000000000000000000000000000000000000000000000000000000000000000000000000000000000000000000000000000000000000000000000000000000000000000000000000000000000000000000000000000000000000000000000000000830200008083d5ce6f808203b642a056e81f171bcc55a6ff8345e692c0f86e5b48e01b996cadc001622fb5e363b421880102030405060708c0c0",
        "lastblockhash" : "0x9ddfc5cac52f1f23a482891e8c4a2382564f222a4e607756cfba46ef757c4821",
        "network" : "Byzantium",
        "postState" : {
            "0x68795c4aa09d6f4ed3e5deddf8c2ad3049a601da" : {
                "balance" : "0x29a2241af62f0d40",
                "code" : "0x",
                "nonce" : "0x00",
                "storage" : {
                }
            },
            "0xa94f5374fce5edbc8e2a8697c15331677e6ebf0b" : {
                "balance" : "0x0de0b6b3a760f2c0",
                "code" : "0x",
                "nonce" : "0x02",
                "storage" : {
                }
            },
            "0xb94f5374fce5edbc8e2a8697c15331677e6ebf0b" : {
                "balance" : "0x00",
                "code" : "0x60203560205260403560405260603560605260803560805260a03560a05260c03560c05260e03560e052610100356101005261012035610120526101403561014052610160356101605261018035610180526101a0356101a0526101c0356101c0526101e0356101e052610200356102005261022035610220526102403561024052610260356102605261028035610280526102a0356102a0526102c0356102c0526102e0356102e05260206103e86000356020600060086207a120f26000556103e851600155",
                "nonce" : "0x00",
                "storage" : {
                }
            },
            "0xc94f5374fce5edbc8e2a8697c15331677e6ebf0b" : {
                "balance" : "0x00",
                "code" : "0x6000356000526020356020527f30644e72e131a029b85045b68181585d2833e84879b9709143e1f593f000000060405260406103e86060600060006007624c4b40f26000556103e85160015561040851600255",
                "nonce" : "0x00",
                "storage" : {
                }
            },
            "0xd94f5374fce5edbc8e2a8697c15331677e6ebf0b" : {
                "balance" : "0x00",
                "code" : "0x60003560005260203560205260403560405260603560605260406103e86080600060006006624c4b40f26000556103e85160015561040851600255",
                "nonce" : "0x00",
                "storage" : {
                }
            }
        },
        "pre" : {
            "0xa94f5374fce5edbc8e2a8697c15331677e6ebf0b" : {
                "balance" : "0x0de0b6b3a7640000",
                "code" : "0x",
                "nonce" : "0x01",
                "storage" : {
                }
            },
            "0xb94f5374fce5edbc8e2a8697c15331677e6ebf0b" : {
                "balance" : "0x00",
                "code" : "0x60203560205260403560405260603560605260803560805260a03560a05260c03560c05260e03560e052610100356101005261012035610120526101403561014052610160356101605261018035610180526101a0356101a0526101c0356101c0526101e0356101e052610200356102005261022035610220526102403561024052610260356102605261028035610280526102a0356102a0526102c0356102c0526102e0356102e05260206103e86000356020600060086207a120f26000556103e851600155",
                "nonce" : "0x00",
                "storage" : {
                }
            },
            "0xc94f5374fce5edbc8e2a8697c15331677e6ebf0b" : {
                "balance" : "0x00",
                "code" : "0x6000356000526020356020527f30644e72e131a029b85045b68181585d2833e84879b9709143e1f593f000000060405260406103e86060600060006007624c4b40f26000556103e85160015561040851600255",
                "nonce" : "0x00",
                "storage" : {
                }
            },
            "0xd94f5374fce5edbc8e2a8697c15331677e6ebf0b" : {
                "balance" : "0x00",
                "code" : "0x60003560005260203560205260403560405260603560605260406103e86080600060006006624c4b40f26000556103e85160015561040851600255",
                "nonce" : "0x00",
                "storage" : {
                }
            }
        },
        "sealEngine" : "NoProof"
    },
    "pairingTest_d0g3v0_Constantinople" : {
        "_info" : {
            "comment" : "",
            "filledwith" : "testeth 1.7.0-alpha.1-20+commit.782a7283",
            "lllcversion" : "Version: 0.5.0-develop.2018.11.9+commit.9709dfe0.Linux.g++",
            "source" : "src/BlockchainTestsFiller/GeneralStateTests/stZeroKnowledge/pairingTest_d0g3v0Filler.json",
            "sourceHash" : "2cdbf8a3f46f66b44c3fd85d764d0c703da0f4a1f5860e8e79b7835478f1b248"
        },
        "blocks" : [
            {
                "blockHeader" : {
                    "bloom" : "0x00000000000000000000000000000000000000000000000000000000000000000000000000000000000000000000000000000000000000000000000000000000000000000000000000000000000000000000000000000000000000000000000000000000000000000000000000000000000000000000000000000000000000000000000000000000000000000000000000000000000000000000000000000000000000000000000000000000000000000000000000000000000000000000000000000000000000000000000000000000000000000000000000000000000000000000000000000000000000000000000000000000000000000000000000000000",
                    "coinbase" : "0x68795c4aa09d6f4ed3e5deddf8c2ad3049a601da",
                    "difficulty" : "0x020000",
                    "extraData" : "0x",
                    "gasLimit" : "0xd5ce6f",
                    "gasUsed" : "0x03059b",
                    "hash" : "0xf19a50c45fd23d897d8e5d5230c9f33b810c8993cd6340e0da797c3b7bc8665a",
                    "mixHash" : "0x0000000000000000000000000000000000000000000000000000000000000000",
                    "nonce" : "0x0000000000000000",
                    "number" : "0x01",
                    "parentHash" : "0x92fdbb1579b834d62b5fd29f9770bbe616d7fb9ac28a27b7fa9524572b58f4cf",
                    "receiptTrie" : "0xc8dc7d88498fe6e7dd479f558b339891e8a23f5d90a01d65deebc0f38d1a76c1",
                    "stateRoot" : "0x1622980938ffd06e0a04f547fbeeec660712782f1e51406ebfbcc5e63f59f6eb",
                    "timestamp" : "0x03e8",
                    "transactionsTrie" : "0x4b1d75bd011952643468544e774bbffa05d5fea471b5188dfe4782b9c99cf416",
                    "uncleHash" : "0x1dcc4de8dec75d7aab85b567b6ccd41ad312451b948a7413f0a142fd40d49347"
                },
                "rlp" : "0xf90404f901f8a092fdbb1579b834d62b5fd29f9770bbe616d7fb9ac28a27b7fa9524572b58f4cfa01dcc4de8dec75d7aab85b567b6ccd41ad312451b948a7413f0a142fd40d493479468795c4aa09d6f4ed3e5deddf8c2ad3049a601daa01622980938ffd06e0a04f547fbeeec660712782f1e51406ebfbcc5e63f59f6eba04b1d75bd011952643468544e774bbffa05d5fea471b5188dfe4782b9c99cf416a0c8dc7d88498fe6e7dd479f558b339891e8a23f5d90a01d65deebc0f38d1a76c1b9010000000000000000000000000000000000000000000000000000000000000000000000000000000000000000000000000000000000000000000000000000000000000000000000000000000000000000000000000000000000000000000000000000000000000000000000000000000000000000000000000000000000000000000000000000000000000000000000000000000000000000000000000000000000000000000000000000000000000000000000000000000000000000000000000000000000000000000000000000000000000000000000000000000000000000000000000000000000000000000000000000000000000000000000000000000000830200000183d5ce6f8303059b8203e880a00000000000000000000000000000000000000000000000000000000000000000880000000000000000f90205f90202010183030d4094b94f5374fce5edbc8e2a8697c15331677e6ebf0b80b901a000000000000000000000000000000000000000000000000000000000000001801c76476f4def4bb94541d57ebba1193381ffa7aa76ada664dd31c16024c43f593034dd2920f673e204fee2811c678745fc819b55d3e9d294e45c9b03a76aef41209dd15ebff5d46c4bd888e51a93cf99a7329636c63514396b4a452003a35bf704bf11ca01483bfa8b34b43561848d28905960114c8ac04049af4b6315a416782bb8324af6cfc93537a2ad1a445cfd0ca2a71acd7ac41fadbf933c2a51be344d120a2a4cf30c1bf9845f20c6fe39e07ea2cce61f0c9bb048165fe5e4de877550111e129f1cf1097710d41c4ac70fcdfa5ba2023c6ff1cbeac322de49d1b6df7c2032c61a830e3c17286de9462bf242fca2883585b93870a73853face6a6bf411198e9393920d483a7260bfb731fb5d25f1aa493335a9e71297e485b7aef312c21800deef121f1e76426a00665e5c4479674322d4f75edadd46debd5cd992f6ed090689d0585ff075ec9e99ad690c3395bc4b313370b38ef355acdadcd122975b12c85ea5db8c6deb4aab71808dcb408fe3d1e7690c43d37b4ce6cc0166fa7daa1ca0d316604294de8ec9605096aaa537afd0423d01b43289137a83f782604aebd30ca0791d969890e6beb9f7f3d632f66ae0e774d4423d594fa02df652037b364545f2c0",
                "transactions" : [
                    {
                        "data" : "0x00000000000000000000000000000000000000000000000000000000000001801c76476f4def4bb94541d57ebba1193381ffa7aa76ada664dd31c16024c43f593034dd2920f673e204fee2811c678745fc819b55d3e9d294e45c9b03a76aef41209dd15ebff5d46c4bd888e51a93cf99a7329636c63514396b4a452003a35bf704bf11ca01483bfa8b34b43561848d28905960114c8ac04049af4b6315a416782bb8324af6cfc93537a2ad1a445cfd0ca2a71acd7ac41fadbf933c2a51be344d120a2a4cf30c1bf9845f20c6fe39e07ea2cce61f0c9bb048165fe5e4de877550111e129f1cf1097710d41c4ac70fcdfa5ba2023c6ff1cbeac322de49d1b6df7c2032c61a830e3c17286de9462bf242fca2883585b93870a73853face6a6bf411198e9393920d483a7260bfb731fb5d25f1aa493335a9e71297e485b7aef312c21800deef121f1e76426a00665e5c4479674322d4f75edadd46debd5cd992f6ed090689d0585ff075ec9e99ad690c3395bc4b313370b38ef355acdadcd122975b12c85ea5db8c6deb4aab71808dcb408fe3d1e7690c43d37b4ce6cc0166fa7daa",
                        "gasLimit" : "0x030d40",
                        "gasPrice" : "0x01",
                        "nonce" : "0x01",
                        "r" : "0xd316604294de8ec9605096aaa537afd0423d01b43289137a83f782604aebd30c",
                        "s" : "0x791d969890e6beb9f7f3d632f66ae0e774d4423d594fa02df652037b364545f2",
                        "to" : "0xb94f5374fce5edbc8e2a8697c15331677e6ebf0b",
                        "v" : "0x1c",
                        "value" : "0x00"
                    }
                ],
                "uncleHeaders" : [
                ]
            }
        ],
        "genesisBlockHeader" : {
            "bloom" : "0x00000000000000000000000000000000000000000000000000000000000000000000000000000000000000000000000000000000000000000000000000000000000000000000000000000000000000000000000000000000000000000000000000000000000000000000000000000000000000000000000000000000000000000000000000000000000000000000000000000000000000000000000000000000000000000000000000000000000000000000000000000000000000000000000000000000000000000000000000000000000000000000000000000000000000000000000000000000000000000000000000000000000000000000000000000000",
            "coinbase" : "0x68795c4aa09d6f4ed3e5deddf8c2ad3049a601da",
            "difficulty" : "0x020000",
            "extraData" : "0x42",
            "gasLimit" : "0xd5ce6f",
            "gasUsed" : "0x00",
            "hash" : "0x92fdbb1579b834d62b5fd29f9770bbe616d7fb9ac28a27b7fa9524572b58f4cf",
            "mixHash" : "0x56e81f171bcc55a6ff8345e692c0f86e5b48e01b996cadc001622fb5e363b421",
            "nonce" : "0x0102030405060708",
            "number" : "0x00",
            "parentHash" : "0x0000000000000000000000000000000000000000000000000000000000000000",
            "receiptTrie" : "0x56e81f171bcc55a6ff8345e692c0f86e5b48e01b996cadc001622fb5e363b421",
            "stateRoot" : "0xa58f7365e4f5906e2945541429243a587e9d55bc47a4ea9e4757e58a78d45ac9",
            "timestamp" : "0x03b6",
            "transactionsTrie" : "0x56e81f171bcc55a6ff8345e692c0f86e5b48e01b996cadc001622fb5e363b421",
            "uncleHash" : "0x1dcc4de8dec75d7aab85b567b6ccd41ad312451b948a7413f0a142fd40d49347"
        },
        "genesisRLP" : "0xf901faf901f5a00000000000000000000000000000000000000000000000000000000000000000a01dcc4de8dec75d7aab85b567b6ccd41ad312451b948a7413f0a142fd40d493479468795c4aa09d6f4ed3e5deddf8c2ad3049a601daa0a58f7365e4f5906e2945541429243a587e9d55bc47a4ea9e4757e58a78d45ac9a056e81f171bcc55a6ff8345e692c0f86e5b48e01b996cadc001622fb5e363b421a056e81f171bcc55a6ff8345e692c0f86e5b48e01b996cadc001622fb5e363b421b9010000000000000000000000000000000000000000000000000000000000000000000000000000000000000000000000000000000000000000000000000000000000000000000000000000000000000000000000000000000000000000000000000000000000000000000000000000000000000000000000000000000000000000000000000000000000000000000000000000000000000000000000000000000000000000000000000000000000000000000000000000000000000000000000000000000000000000000000000000000000000000000000000000000000000000000000000000000000000000000000000000000000000000000000000000000000830200008083d5ce6f808203b642a056e81f171bcc55a6ff8345e692c0f86e5b48e01b996cadc001622fb5e363b421880102030405060708c0c0",
        "lastblockhash" : "0xf19a50c45fd23d897d8e5d5230c9f33b810c8993cd6340e0da797c3b7bc8665a",
        "network" : "Constantinople",
        "postState" : {
            "0x68795c4aa09d6f4ed3e5deddf8c2ad3049a601da" : {
                "balance" : "0x1bc16d674ecb059b",
                "code" : "0x",
                "nonce" : "0x00",
                "storage" : {
                }
            },
            "0xa94f5374fce5edbc8e2a8697c15331677e6ebf0b" : {
                "balance" : "0x0de0b6b3a760fa65",
                "code" : "0x",
                "nonce" : "0x02",
                "storage" : {
                }
            },
            "0xb94f5374fce5edbc8e2a8697c15331677e6ebf0b" : {
                "balance" : "0x00",
                "code" : "0x60203560205260403560405260603560605260803560805260a03560a05260c03560c05260e03560e052610100356101005261012035610120526101403561014052610160356101605261018035610180526101a0356101a0526101c0356101c0526101e0356101e052610200356102005261022035610220526102403561024052610260356102605261028035610280526102a0356102a0526102c0356102c0526102e0356102e05260206103e86000356020600060086207a120f26000556103e851600155",
                "nonce" : "0x00",
                "storage" : {
                }
            },
            "0xc94f5374fce5edbc8e2a8697c15331677e6ebf0b" : {
                "balance" : "0x00",
                "code" : "0x6000356000526020356020527f30644e72e131a029b85045b68181585d2833e84879b9709143e1f593f000000060405260406103e86060600060006007624c4b40f26000556103e85160015561040851600255",
                "nonce" : "0x00",
                "storage" : {
                }
            },
            "0xd94f5374fce5edbc8e2a8697c15331677e6ebf0b" : {
                "balance" : "0x00",
                "code" : "0x60003560005260203560205260403560405260603560605260406103e86080600060006006624c4b40f26000556103e85160015561040851600255",
                "nonce" : "0x00",
                "storage" : {
                }
            }
        },
        "pre" : {
            "0xa94f5374fce5edbc8e2a8697c15331677e6ebf0b" : {
                "balance" : "0x0de0b6b3a7640000",
                "code" : "0x",
                "nonce" : "0x01",
                "storage" : {
                }
            },
            "0xb94f5374fce5edbc8e2a8697c15331677e6ebf0b" : {
                "balance" : "0x00",
                "code" : "0x60203560205260403560405260603560605260803560805260a03560a05260c03560c05260e03560e052610100356101005261012035610120526101403561014052610160356101605261018035610180526101a0356101a0526101c0356101c0526101e0356101e052610200356102005261022035610220526102403561024052610260356102605261028035610280526102a0356102a0526102c0356102c0526102e0356102e05260206103e86000356020600060086207a120f26000556103e851600155",
                "nonce" : "0x00",
                "storage" : {
                }
            },
            "0xc94f5374fce5edbc8e2a8697c15331677e6ebf0b" : {
                "balance" : "0x00",
                "code" : "0x6000356000526020356020527f30644e72e131a029b85045b68181585d2833e84879b9709143e1f593f000000060405260406103e86060600060006007624c4b40f26000556103e85160015561040851600255",
                "nonce" : "0x00",
                "storage" : {
                }
            },
            "0xd94f5374fce5edbc8e2a8697c15331677e6ebf0b" : {
                "balance" : "0x00",
                "code" : "0x60003560005260203560205260403560405260603560605260406103e86080600060006006624c4b40f26000556103e85160015561040851600255",
                "nonce" : "0x00",
                "storage" : {
                }
            }
        },
        "sealEngine" : "NoProof"
    },
    "pairingTest_d0g3v0_ConstantinopleFix" : {
        "_info" : {
            "comment" : "",
            "filledwith" : "testeth 1.7.0-alpha.1-20+commit.782a7283",
            "lllcversion" : "Version: 0.5.0-develop.2018.11.9+commit.9709dfe0.Linux.g++",
            "source" : "src/BlockchainTestsFiller/GeneralStateTests/stZeroKnowledge/pairingTest_d0g3v0Filler.json",
            "sourceHash" : "2cdbf8a3f46f66b44c3fd85d764d0c703da0f4a1f5860e8e79b7835478f1b248"
        },
        "blocks" : [
            {
                "blockHeader" : {
                    "bloom" : "0x00000000000000000000000000000000000000000000000000000000000000000000000000000000000000000000000000000000000000000000000000000000000000000000000000000000000000000000000000000000000000000000000000000000000000000000000000000000000000000000000000000000000000000000000000000000000000000000000000000000000000000000000000000000000000000000000000000000000000000000000000000000000000000000000000000000000000000000000000000000000000000000000000000000000000000000000000000000000000000000000000000000000000000000000000000000",
                    "coinbase" : "0x68795c4aa09d6f4ed3e5deddf8c2ad3049a601da",
                    "difficulty" : "0x020000",
                    "extraData" : "0x",
                    "gasLimit" : "0xd5ce6f",
                    "gasUsed" : "0x030d40",
                    "hash" : "0x421ff8b6d10902ab7b30c8e1434116ad9723dc7c544b120b879394802cc59a3a",
                    "mixHash" : "0x0000000000000000000000000000000000000000000000000000000000000000",
                    "nonce" : "0x0000000000000000",
                    "number" : "0x01",
                    "parentHash" : "0x92fdbb1579b834d62b5fd29f9770bbe616d7fb9ac28a27b7fa9524572b58f4cf",
                    "receiptTrie" : "0xea5b87d12423d7570eb418dcdbb9f547f8fcc0577bd026d2189fd8fb550b85cf",
                    "stateRoot" : "0x96e705362206405e7f17ddc29f7e349e48efc77d3501ed1cd2fb0713b0c0ed9e",
                    "timestamp" : "0x03e8",
                    "transactionsTrie" : "0x4b1d75bd011952643468544e774bbffa05d5fea471b5188dfe4782b9c99cf416",
                    "uncleHash" : "0x1dcc4de8dec75d7aab85b567b6ccd41ad312451b948a7413f0a142fd40d49347"
                },
                "rlp" : "0xf90404f901f8a092fdbb1579b834d62b5fd29f9770bbe616d7fb9ac28a27b7fa9524572b58f4cfa01dcc4de8dec75d7aab85b567b6ccd41ad312451b948a7413f0a142fd40d493479468795c4aa09d6f4ed3e5deddf8c2ad3049a601daa096e705362206405e7f17ddc29f7e349e48efc77d3501ed1cd2fb0713b0c0ed9ea04b1d75bd011952643468544e774bbffa05d5fea471b5188dfe4782b9c99cf416a0ea5b87d12423d7570eb418dcdbb9f547f8fcc0577bd026d2189fd8fb550b85cfb9010000000000000000000000000000000000000000000000000000000000000000000000000000000000000000000000000000000000000000000000000000000000000000000000000000000000000000000000000000000000000000000000000000000000000000000000000000000000000000000000000000000000000000000000000000000000000000000000000000000000000000000000000000000000000000000000000000000000000000000000000000000000000000000000000000000000000000000000000000000000000000000000000000000000000000000000000000000000000000000000000000000000000000000000000000000000830200000183d5ce6f83030d408203e880a00000000000000000000000000000000000000000000000000000000000000000880000000000000000f90205f90202010183030d4094b94f5374fce5edbc8e2a8697c15331677e6ebf0b80b901a000000000000000000000000000000000000000000000000000000000000001801c76476f4def4bb94541d57ebba1193381ffa7aa76ada664dd31c16024c43f593034dd2920f673e204fee2811c678745fc819b55d3e9d294e45c9b03a76aef41209dd15ebff5d46c4bd888e51a93cf99a7329636c63514396b4a452003a35bf704bf11ca01483bfa8b34b43561848d28905960114c8ac04049af4b6315a416782bb8324af6cfc93537a2ad1a445cfd0ca2a71acd7ac41fadbf933c2a51be344d120a2a4cf30c1bf9845f20c6fe39e07ea2cce61f0c9bb048165fe5e4de877550111e129f1cf1097710d41c4ac70fcdfa5ba2023c6ff1cbeac322de49d1b6df7c2032c61a830e3c17286de9462bf242fca2883585b93870a73853face6a6bf411198e9393920d483a7260bfb731fb5d25f1aa493335a9e71297e485b7aef312c21800deef121f1e76426a00665e5c4479674322d4f75edadd46debd5cd992f6ed090689d0585ff075ec9e99ad690c3395bc4b313370b38ef355acdadcd122975b12c85ea5db8c6deb4aab71808dcb408fe3d1e7690c43d37b4ce6cc0166fa7daa1ca0d316604294de8ec9605096aaa537afd0423d01b43289137a83f782604aebd30ca0791d969890e6beb9f7f3d632f66ae0e774d4423d594fa02df652037b364545f2c0",
                "transactions" : [
                    {
                        "data" : "0x00000000000000000000000000000000000000000000000000000000000001801c76476f4def4bb94541d57ebba1193381ffa7aa76ada664dd31c16024c43f593034dd2920f673e204fee2811c678745fc819b55d3e9d294e45c9b03a76aef41209dd15ebff5d46c4bd888e51a93cf99a7329636c63514396b4a452003a35bf704bf11ca01483bfa8b34b43561848d28905960114c8ac04049af4b6315a416782bb8324af6cfc93537a2ad1a445cfd0ca2a71acd7ac41fadbf933c2a51be344d120a2a4cf30c1bf9845f20c6fe39e07ea2cce61f0c9bb048165fe5e4de877550111e129f1cf1097710d41c4ac70fcdfa5ba2023c6ff1cbeac322de49d1b6df7c2032c61a830e3c17286de9462bf242fca2883585b93870a73853face6a6bf411198e9393920d483a7260bfb731fb5d25f1aa493335a9e71297e485b7aef312c21800deef121f1e76426a00665e5c4479674322d4f75edadd46debd5cd992f6ed090689d0585ff075ec9e99ad690c3395bc4b313370b38ef355acdadcd122975b12c85ea5db8c6deb4aab71808dcb408fe3d1e7690c43d37b4ce6cc0166fa7daa",
                        "gasLimit" : "0x030d40",
                        "gasPrice" : "0x01",
                        "nonce" : "0x01",
                        "r" : "0xd316604294de8ec9605096aaa537afd0423d01b43289137a83f782604aebd30c",
                        "s" : "0x791d969890e6beb9f7f3d632f66ae0e774d4423d594fa02df652037b364545f2",
                        "to" : "0xb94f5374fce5edbc8e2a8697c15331677e6ebf0b",
                        "v" : "0x1c",
                        "value" : "0x00"
                    }
                ],
                "uncleHeaders" : [
                ]
            }
        ],
        "genesisBlockHeader" : {
            "bloom" : "0x00000000000000000000000000000000000000000000000000000000000000000000000000000000000000000000000000000000000000000000000000000000000000000000000000000000000000000000000000000000000000000000000000000000000000000000000000000000000000000000000000000000000000000000000000000000000000000000000000000000000000000000000000000000000000000000000000000000000000000000000000000000000000000000000000000000000000000000000000000000000000000000000000000000000000000000000000000000000000000000000000000000000000000000000000000000",
            "coinbase" : "0x68795c4aa09d6f4ed3e5deddf8c2ad3049a601da",
            "difficulty" : "0x020000",
            "extraData" : "0x42",
            "gasLimit" : "0xd5ce6f",
            "gasUsed" : "0x00",
            "hash" : "0x92fdbb1579b834d62b5fd29f9770bbe616d7fb9ac28a27b7fa9524572b58f4cf",
            "mixHash" : "0x56e81f171bcc55a6ff8345e692c0f86e5b48e01b996cadc001622fb5e363b421",
            "nonce" : "0x0102030405060708",
            "number" : "0x00",
            "parentHash" : "0x0000000000000000000000000000000000000000000000000000000000000000",
            "receiptTrie" : "0x56e81f171bcc55a6ff8345e692c0f86e5b48e01b996cadc001622fb5e363b421",
            "stateRoot" : "0xa58f7365e4f5906e2945541429243a587e9d55bc47a4ea9e4757e58a78d45ac9",
            "timestamp" : "0x03b6",
            "transactionsTrie" : "0x56e81f171bcc55a6ff8345e692c0f86e5b48e01b996cadc001622fb5e363b421",
            "uncleHash" : "0x1dcc4de8dec75d7aab85b567b6ccd41ad312451b948a7413f0a142fd40d49347"
        },
        "genesisRLP" : "0xf901faf901f5a00000000000000000000000000000000000000000000000000000000000000000a01dcc4de8dec75d7aab85b567b6ccd41ad312451b948a7413f0a142fd40d493479468795c4aa09d6f4ed3e5deddf8c2ad3049a601daa0a58f7365e4f5906e2945541429243a587e9d55bc47a4ea9e4757e58a78d45ac9a056e81f171bcc55a6ff8345e692c0f86e5b48e01b996cadc001622fb5e363b421a056e81f171bcc55a6ff8345e692c0f86e5b48e01b996cadc001622fb5e363b421b9010000000000000000000000000000000000000000000000000000000000000000000000000000000000000000000000000000000000000000000000000000000000000000000000000000000000000000000000000000000000000000000000000000000000000000000000000000000000000000000000000000000000000000000000000000000000000000000000000000000000000000000000000000000000000000000000000000000000000000000000000000000000000000000000000000000000000000000000000000000000000000000000000000000000000000000000000000000000000000000000000000000000000000000000000000000000830200008083d5ce6f808203b642a056e81f171bcc55a6ff8345e692c0f86e5b48e01b996cadc001622fb5e363b421880102030405060708c0c0",
        "lastblockhash" : "0x421ff8b6d10902ab7b30c8e1434116ad9723dc7c544b120b879394802cc59a3a",
        "network" : "ConstantinopleFix",
        "postState" : {
            "0x68795c4aa09d6f4ed3e5deddf8c2ad3049a601da" : {
                "balance" : "0x1bc16d674ecb0d40",
                "code" : "0x",
                "nonce" : "0x00",
                "storage" : {
                }
            },
            "0xa94f5374fce5edbc8e2a8697c15331677e6ebf0b" : {
                "balance" : "0x0de0b6b3a760f2c0",
                "code" : "0x",
                "nonce" : "0x02",
                "storage" : {
                }
            },
            "0xb94f5374fce5edbc8e2a8697c15331677e6ebf0b" : {
                "balance" : "0x00",
                "code" : "0x60203560205260403560405260603560605260803560805260a03560a05260c03560c05260e03560e052610100356101005261012035610120526101403561014052610160356101605261018035610180526101a0356101a0526101c0356101c0526101e0356101e052610200356102005261022035610220526102403561024052610260356102605261028035610280526102a0356102a0526102c0356102c0526102e0356102e05260206103e86000356020600060086207a120f26000556103e851600155",
                "nonce" : "0x00",
                "storage" : {
                }
            },
            "0xc94f5374fce5edbc8e2a8697c15331677e6ebf0b" : {
                "balance" : "0x00",
                "code" : "0x6000356000526020356020527f30644e72e131a029b85045b68181585d2833e84879b9709143e1f593f000000060405260406103e86060600060006007624c4b40f26000556103e85160015561040851600255",
                "nonce" : "0x00",
                "storage" : {
                }
            },
            "0xd94f5374fce5edbc8e2a8697c15331677e6ebf0b" : {
                "balance" : "0x00",
                "code" : "0x60003560005260203560205260403560405260603560605260406103e86080600060006006624c4b40f26000556103e85160015561040851600255",
                "nonce" : "0x00",
                "storage" : {
                }
            }
        },
        "pre" : {
            "0xa94f5374fce5edbc8e2a8697c15331677e6ebf0b" : {
                "balance" : "0x0de0b6b3a7640000",
                "code" : "0x",
                "nonce" : "0x01",
                "storage" : {
                }
            },
            "0xb94f5374fce5edbc8e2a8697c15331677e6ebf0b" : {
                "balance" : "0x00",
                "code" : "0x60203560205260403560405260603560605260803560805260a03560a05260c03560c05260e03560e052610100356101005261012035610120526101403561014052610160356101605261018035610180526101a0356101a0526101c0356101c0526101e0356101e052610200356102005261022035610220526102403561024052610260356102605261028035610280526102a0356102a0526102c0356102c0526102e0356102e05260206103e86000356020600060086207a120f26000556103e851600155",
                "nonce" : "0x00",
                "storage" : {
                }
            },
            "0xc94f5374fce5edbc8e2a8697c15331677e6ebf0b" : {
                "balance" : "0x00",
                "code" : "0x6000356000526020356020527f30644e72e131a029b85045b68181585d2833e84879b9709143e1f593f000000060405260406103e86060600060006007624c4b40f26000556103e85160015561040851600255",
                "nonce" : "0x00",
                "storage" : {
                }
            },
            "0xd94f5374fce5edbc8e2a8697c15331677e6ebf0b" : {
                "balance" : "0x00",
                "code" : "0x60003560005260203560205260403560405260603560605260406103e86080600060006006624c4b40f26000556103e85160015561040851600255",
                "nonce" : "0x00",
                "storage" : {
                }
            }
        },
        "sealEngine" : "NoProof"
    },
    "pairingTest_d0g3v0_Homestead" : {
        "_info" : {
            "comment" : "",
            "filledwith" : "testeth 1.7.0-alpha.1-20+commit.782a7283",
            "lllcversion" : "Version: 0.5.0-develop.2018.11.9+commit.9709dfe0.Linux.g++",
            "source" : "src/BlockchainTestsFiller/GeneralStateTests/stZeroKnowledge/pairingTest_d0g3v0Filler.json",
            "sourceHash" : "2cdbf8a3f46f66b44c3fd85d764d0c703da0f4a1f5860e8e79b7835478f1b248"
        },
        "blocks" : [
            {
                "blockHeader" : {
                    "bloom" : "0x00000000000000000000000000000000000000000000000000000000000000000000000000000000000000000000000000000000000000000000000000000000000000000000000000000000000000000000000000000000000000000000000000000000000000000000000000000000000000000000000000000000000000000000000000000000000000000000000000000000000000000000000000000000000000000000000000000000000000000000000000000000000000000000000000000000000000000000000000000000000000000000000000000000000000000000000000000000000000000000000000000000000000000000000000000000",
                    "coinbase" : "0x68795c4aa09d6f4ed3e5deddf8c2ad3049a601da",
                    "difficulty" : "0x020000",
                    "extraData" : "0x",
                    "gasLimit" : "0xd5ce6f",
                    "gasUsed" : "0x030d40",
                    "hash" : "0x5e98140c5192ca20b1715eb5b3248e539e281bbf45898e0b9e584e24d6d4bff2",
                    "mixHash" : "0x0000000000000000000000000000000000000000000000000000000000000000",
                    "nonce" : "0x0000000000000000",
                    "number" : "0x01",
                    "parentHash" : "0x92fdbb1579b834d62b5fd29f9770bbe616d7fb9ac28a27b7fa9524572b58f4cf",
                    "receiptTrie" : "0x56a880598fc2692765b31f1abc0d59a085597f1f207a48b33d0397eb9da5408b",
                    "stateRoot" : "0xc7cebff0fb232c2feb70dea3a847b1d75452e4d88eba669064bfe3009265e44a",
                    "timestamp" : "0x03e8",
                    "transactionsTrie" : "0x4b1d75bd011952643468544e774bbffa05d5fea471b5188dfe4782b9c99cf416",
                    "uncleHash" : "0x1dcc4de8dec75d7aab85b567b6ccd41ad312451b948a7413f0a142fd40d49347"
                },
                "rlp" : "0xf90404f901f8a092fdbb1579b834d62b5fd29f9770bbe616d7fb9ac28a27b7fa9524572b58f4cfa01dcc4de8dec75d7aab85b567b6ccd41ad312451b948a7413f0a142fd40d493479468795c4aa09d6f4ed3e5deddf8c2ad3049a601daa0c7cebff0fb232c2feb70dea3a847b1d75452e4d88eba669064bfe3009265e44aa04b1d75bd011952643468544e774bbffa05d5fea471b5188dfe4782b9c99cf416a056a880598fc2692765b31f1abc0d59a085597f1f207a48b33d0397eb9da5408bb9010000000000000000000000000000000000000000000000000000000000000000000000000000000000000000000000000000000000000000000000000000000000000000000000000000000000000000000000000000000000000000000000000000000000000000000000000000000000000000000000000000000000000000000000000000000000000000000000000000000000000000000000000000000000000000000000000000000000000000000000000000000000000000000000000000000000000000000000000000000000000000000000000000000000000000000000000000000000000000000000000000000000000000000000000000000000830200000183d5ce6f83030d408203e880a00000000000000000000000000000000000000000000000000000000000000000880000000000000000f90205f90202010183030d4094b94f5374fce5edbc8e2a8697c15331677e6ebf0b80b901a000000000000000000000000000000000000000000000000000000000000001801c76476f4def4bb94541d57ebba1193381ffa7aa76ada664dd31c16024c43f593034dd2920f673e204fee2811c678745fc819b55d3e9d294e45c9b03a76aef41209dd15ebff5d46c4bd888e51a93cf99a7329636c63514396b4a452003a35bf704bf11ca01483bfa8b34b43561848d28905960114c8ac04049af4b6315a416782bb8324af6cfc93537a2ad1a445cfd0ca2a71acd7ac41fadbf933c2a51be344d120a2a4cf30c1bf9845f20c6fe39e07ea2cce61f0c9bb048165fe5e4de877550111e129f1cf1097710d41c4ac70fcdfa5ba2023c6ff1cbeac322de49d1b6df7c2032c61a830e3c17286de9462bf242fca2883585b93870a73853face6a6bf411198e9393920d483a7260bfb731fb5d25f1aa493335a9e71297e485b7aef312c21800deef121f1e76426a00665e5c4479674322d4f75edadd46debd5cd992f6ed090689d0585ff075ec9e99ad690c3395bc4b313370b38ef355acdadcd122975b12c85ea5db8c6deb4aab71808dcb408fe3d1e7690c43d37b4ce6cc0166fa7daa1ca0d316604294de8ec9605096aaa537afd0423d01b43289137a83f782604aebd30ca0791d969890e6beb9f7f3d632f66ae0e774d4423d594fa02df652037b364545f2c0",
                "transactions" : [
                    {
                        "data" : "0x00000000000000000000000000000000000000000000000000000000000001801c76476f4def4bb94541d57ebba1193381ffa7aa76ada664dd31c16024c43f593034dd2920f673e204fee2811c678745fc819b55d3e9d294e45c9b03a76aef41209dd15ebff5d46c4bd888e51a93cf99a7329636c63514396b4a452003a35bf704bf11ca01483bfa8b34b43561848d28905960114c8ac04049af4b6315a416782bb8324af6cfc93537a2ad1a445cfd0ca2a71acd7ac41fadbf933c2a51be344d120a2a4cf30c1bf9845f20c6fe39e07ea2cce61f0c9bb048165fe5e4de877550111e129f1cf1097710d41c4ac70fcdfa5ba2023c6ff1cbeac322de49d1b6df7c2032c61a830e3c17286de9462bf242fca2883585b93870a73853face6a6bf411198e9393920d483a7260bfb731fb5d25f1aa493335a9e71297e485b7aef312c21800deef121f1e76426a00665e5c4479674322d4f75edadd46debd5cd992f6ed090689d0585ff075ec9e99ad690c3395bc4b313370b38ef355acdadcd122975b12c85ea5db8c6deb4aab71808dcb408fe3d1e7690c43d37b4ce6cc0166fa7daa",
                        "gasLimit" : "0x030d40",
                        "gasPrice" : "0x01",
                        "nonce" : "0x01",
                        "r" : "0xd316604294de8ec9605096aaa537afd0423d01b43289137a83f782604aebd30c",
                        "s" : "0x791d969890e6beb9f7f3d632f66ae0e774d4423d594fa02df652037b364545f2",
                        "to" : "0xb94f5374fce5edbc8e2a8697c15331677e6ebf0b",
                        "v" : "0x1c",
                        "value" : "0x00"
                    }
                ],
                "uncleHeaders" : [
                ]
            }
        ],
        "genesisBlockHeader" : {
            "bloom" : "0x00000000000000000000000000000000000000000000000000000000000000000000000000000000000000000000000000000000000000000000000000000000000000000000000000000000000000000000000000000000000000000000000000000000000000000000000000000000000000000000000000000000000000000000000000000000000000000000000000000000000000000000000000000000000000000000000000000000000000000000000000000000000000000000000000000000000000000000000000000000000000000000000000000000000000000000000000000000000000000000000000000000000000000000000000000000",
            "coinbase" : "0x68795c4aa09d6f4ed3e5deddf8c2ad3049a601da",
            "difficulty" : "0x020000",
            "extraData" : "0x42",
            "gasLimit" : "0xd5ce6f",
            "gasUsed" : "0x00",
            "hash" : "0x92fdbb1579b834d62b5fd29f9770bbe616d7fb9ac28a27b7fa9524572b58f4cf",
            "mixHash" : "0x56e81f171bcc55a6ff8345e692c0f86e5b48e01b996cadc001622fb5e363b421",
            "nonce" : "0x0102030405060708",
            "number" : "0x00",
            "parentHash" : "0x0000000000000000000000000000000000000000000000000000000000000000",
            "receiptTrie" : "0x56e81f171bcc55a6ff8345e692c0f86e5b48e01b996cadc001622fb5e363b421",
            "stateRoot" : "0xa58f7365e4f5906e2945541429243a587e9d55bc47a4ea9e4757e58a78d45ac9",
            "timestamp" : "0x03b6",
            "transactionsTrie" : "0x56e81f171bcc55a6ff8345e692c0f86e5b48e01b996cadc001622fb5e363b421",
            "uncleHash" : "0x1dcc4de8dec75d7aab85b567b6ccd41ad312451b948a7413f0a142fd40d49347"
        },
        "genesisRLP" : "0xf901faf901f5a00000000000000000000000000000000000000000000000000000000000000000a01dcc4de8dec75d7aab85b567b6ccd41ad312451b948a7413f0a142fd40d493479468795c4aa09d6f4ed3e5deddf8c2ad3049a601daa0a58f7365e4f5906e2945541429243a587e9d55bc47a4ea9e4757e58a78d45ac9a056e81f171bcc55a6ff8345e692c0f86e5b48e01b996cadc001622fb5e363b421a056e81f171bcc55a6ff8345e692c0f86e5b48e01b996cadc001622fb5e363b421b9010000000000000000000000000000000000000000000000000000000000000000000000000000000000000000000000000000000000000000000000000000000000000000000000000000000000000000000000000000000000000000000000000000000000000000000000000000000000000000000000000000000000000000000000000000000000000000000000000000000000000000000000000000000000000000000000000000000000000000000000000000000000000000000000000000000000000000000000000000000000000000000000000000000000000000000000000000000000000000000000000000000000000000000000000000000000830200008083d5ce6f808203b642a056e81f171bcc55a6ff8345e692c0f86e5b48e01b996cadc001622fb5e363b421880102030405060708c0c0",
        "lastblockhash" : "0x5e98140c5192ca20b1715eb5b3248e539e281bbf45898e0b9e584e24d6d4bff2",
        "network" : "Homestead",
        "postState" : {
            "0x68795c4aa09d6f4ed3e5deddf8c2ad3049a601da" : {
                "balance" : "0x4563918244f70d40",
                "code" : "0x",
                "nonce" : "0x00",
                "storage" : {
                }
            },
            "0xa94f5374fce5edbc8e2a8697c15331677e6ebf0b" : {
                "balance" : "0x0de0b6b3a760f2c0",
                "code" : "0x",
                "nonce" : "0x02",
                "storage" : {
                }
            },
            "0xb94f5374fce5edbc8e2a8697c15331677e6ebf0b" : {
                "balance" : "0x00",
                "code" : "0x60203560205260403560405260603560605260803560805260a03560a05260c03560c05260e03560e052610100356101005261012035610120526101403561014052610160356101605261018035610180526101a0356101a0526101c0356101c0526101e0356101e052610200356102005261022035610220526102403561024052610260356102605261028035610280526102a0356102a0526102c0356102c0526102e0356102e05260206103e86000356020600060086207a120f26000556103e851600155",
                "nonce" : "0x00",
                "storage" : {
                }
            },
            "0xc94f5374fce5edbc8e2a8697c15331677e6ebf0b" : {
                "balance" : "0x00",
                "code" : "0x6000356000526020356020527f30644e72e131a029b85045b68181585d2833e84879b9709143e1f593f000000060405260406103e86060600060006007624c4b40f26000556103e85160015561040851600255",
                "nonce" : "0x00",
                "storage" : {
                }
            },
            "0xd94f5374fce5edbc8e2a8697c15331677e6ebf0b" : {
                "balance" : "0x00",
                "code" : "0x60003560005260203560205260403560405260603560605260406103e86080600060006006624c4b40f26000556103e85160015561040851600255",
                "nonce" : "0x00",
                "storage" : {
                }
            }
        },
        "pre" : {
            "0xa94f5374fce5edbc8e2a8697c15331677e6ebf0b" : {
                "balance" : "0x0de0b6b3a7640000",
                "code" : "0x",
                "nonce" : "0x01",
                "storage" : {
                }
            },
            "0xb94f5374fce5edbc8e2a8697c15331677e6ebf0b" : {
                "balance" : "0x00",
                "code" : "0x60203560205260403560405260603560605260803560805260a03560a05260c03560c05260e03560e052610100356101005261012035610120526101403561014052610160356101605261018035610180526101a0356101a0526101c0356101c0526101e0356101e052610200356102005261022035610220526102403561024052610260356102605261028035610280526102a0356102a0526102c0356102c0526102e0356102e05260206103e86000356020600060086207a120f26000556103e851600155",
                "nonce" : "0x00",
                "storage" : {
                }
            },
            "0xc94f5374fce5edbc8e2a8697c15331677e6ebf0b" : {
                "balance" : "0x00",
                "code" : "0x6000356000526020356020527f30644e72e131a029b85045b68181585d2833e84879b9709143e1f593f000000060405260406103e86060600060006007624c4b40f26000556103e85160015561040851600255",
                "nonce" : "0x00",
                "storage" : {
                }
            },
            "0xd94f5374fce5edbc8e2a8697c15331677e6ebf0b" : {
                "balance" : "0x00",
                "code" : "0x60003560005260203560205260403560405260603560605260406103e86080600060006006624c4b40f26000556103e85160015561040851600255",
                "nonce" : "0x00",
                "storage" : {
                }
            }
        },
        "sealEngine" : "NoProof"
    }
}