{
    "pairingTest_d5g0v0_Byzantium" : {
        "_info" : {
            "comment" : "",
            "filledwith" : "testeth 1.7.0-alpha.1-20+commit.782a7283",
            "lllcversion" : "Version: 0.5.0-develop.2018.11.9+commit.9709dfe0.Linux.g++",
            "source" : "src/BlockchainTestsFiller/GeneralStateTests/stZeroKnowledge/pairingTest_d5g0v0Filler.json",
            "sourceHash" : "5155b83ad900c4734417c2877a8e6068f14f2ab4b0cda0af9fef4a730b8cf52d"
        },
        "blocks" : [
            {
                "blockHeader" : {
                    "bloom" : "0x00000000000000000000000000000000000000000000000000000000000000000000000000000000000000000000000000000000000000000000000000000000000000000000000000000000000000000000000000000000000000000000000000000000000000000000000000000000000000000000000000000000000000000000000000000000000000000000000000000000000000000000000000000000000000000000000000000000000000000000000000000000000000000000000000000000000000000000000000000000000000000000000000000000000000000000000000000000000000000000000000000000000000000000000000000000",
                    "coinbase" : "0x68795c4aa09d6f4ed3e5deddf8c2ad3049a601da",
                    "difficulty" : "0x020000",
                    "extraData" : "0x",
                    "gasLimit" : "0xd5ce6f",
                    "gasUsed" : "0x051629",
                    "hash" : "0xce3ec4c3d469773364089c38ec711707ff2634641d885f46f9b1bd52a473d17e",
                    "mixHash" : "0x0000000000000000000000000000000000000000000000000000000000000000",
                    "nonce" : "0x0000000000000000",
                    "number" : "0x01",
                    "parentHash" : "0x92fdbb1579b834d62b5fd29f9770bbe616d7fb9ac28a27b7fa9524572b58f4cf",
                    "receiptTrie" : "0x0de6dc79009c85eadd3d2f5bfcd56704a9d04a6acebb1cf42d72e5053f267e66",
                    "stateRoot" : "0x71ece8ece535945ed798c80f62ba26c5aca4c40bd2764a75e1898baf17968c2c",
                    "timestamp" : "0x03e8",
                    "transactionsTrie" : "0xc85966e05c879755ad1c9a1dd5898ca7b49236f13ec5bccdc4fda3f10df0fa5a",
                    "uncleHash" : "0x1dcc4de8dec75d7aab85b567b6ccd41ad312451b948a7413f0a142fd40d49347"
                },
                "rlp" : "0xf90404f901f8a092fdbb1579b834d62b5fd29f9770bbe616d7fb9ac28a27b7fa9524572b58f4cfa01dcc4de8dec75d7aab85b567b6ccd41ad312451b948a7413f0a142fd40d493479468795c4aa09d6f4ed3e5deddf8c2ad3049a601daa071ece8ece535945ed798c80f62ba26c5aca4c40bd2764a75e1898baf17968c2ca0c85966e05c879755ad1c9a1dd5898ca7b49236f13ec5bccdc4fda3f10df0fa5aa00de6dc79009c85eadd3d2f5bfcd56704a9d04a6acebb1cf42d72e5053f267e66b9010000000000000000000000000000000000000000000000000000000000000000000000000000000000000000000000000000000000000000000000000000000000000000000000000000000000000000000000000000000000000000000000000000000000000000000000000000000000000000000000000000000000000000000000000000000000000000000000000000000000000000000000000000000000000000000000000000000000000000000000000000000000000000000000000000000000000000000000000000000000000000000000000000000000000000000000000000000000000000000000000000000000000000000000000000000000830200000183d5ce6f830516298203e880a00000000000000000000000000000000000000000000000000000000000000000880000000000000000f90205f9020201018398968094b94f5374fce5edbc8e2a8697c15331677e6ebf0b80b901a000000000000000000000000000000000000000000000000000000000000001801c76476f4def4bb94541d57ebba1193381ffa7aa76ada664dd31c16024c43f593034dd2920f673e204fee2811c678745fc819b55d3e9d294e45c9b03a76aef41209dd15ebff5d46c4bd888e51a93cf99a7329636c63514396b4a452003a35bf704bf11ca01483bfa8b34b43561848d28905960114c8ac04049af4b6315a416782bb8324af6cfc93537a2ad1a445cfd0ca2a71acd7ac41fadbf933c2a51be344d120a2a4cf30c1bf9845f20c6fe39e07ea2cce61f0c9bb048165fe5e4de877550111e129f1cf1097710d41c4ac70fcdfa5ba2023c6ff1cbeac322de49d1b6df7c103188585e2364128fe25c70558f1560f4f9350baf3959e603cc91486e110936198e9393920d483a7260bfb731fb5d25f1aa493335a9e71297e485b7aef312c21800deef121f1e76426a00665e5c4479674322d4f75edadd46debd5cd992f6ed090689d0585ff075ec9e99ad690c3395bc4b313370b38ef355acdadcd122975b12c85ea5db8c6deb4aab71808dcb408fe3d1e7690c43d37b4ce6cc0166fa7daa1ba03b27f6599cfe731a6c7b1471eba2ba77cd42a1be39d5456c5efdc01895b7f21ca00ee74d9a89742558d51f857691b5d84d97cd0bcbc5fceda000814f85d2d29951c0",
                "transactions" : [
                    {
                        "data" : "0x00000000000000000000000000000000000000000000000000000000000001801c76476f4def4bb94541d57ebba1193381ffa7aa76ada664dd31c16024c43f593034dd2920f673e204fee2811c678745fc819b55d3e9d294e45c9b03a76aef41209dd15ebff5d46c4bd888e51a93cf99a7329636c63514396b4a452003a35bf704bf11ca01483bfa8b34b43561848d28905960114c8ac04049af4b6315a416782bb8324af6cfc93537a2ad1a445cfd0ca2a71acd7ac41fadbf933c2a51be344d120a2a4cf30c1bf9845f20c6fe39e07ea2cce61f0c9bb048165fe5e4de877550111e129f1cf1097710d41c4ac70fcdfa5ba2023c6ff1cbeac322de49d1b6df7c103188585e2364128fe25c70558f1560f4f9350baf3959e603cc91486e110936198e9393920d483a7260bfb731fb5d25f1aa493335a9e71297e485b7aef312c21800deef121f1e76426a00665e5c4479674322d4f75edadd46debd5cd992f6ed090689d0585ff075ec9e99ad690c3395bc4b313370b38ef355acdadcd122975b12c85ea5db8c6deb4aab71808dcb408fe3d1e7690c43d37b4ce6cc0166fa7daa",
                        "gasLimit" : "0x989680",
                        "gasPrice" : "0x01",
                        "nonce" : "0x01",
                        "r" : "0x3b27f6599cfe731a6c7b1471eba2ba77cd42a1be39d5456c5efdc01895b7f21c",
                        "s" : "0x0ee74d9a89742558d51f857691b5d84d97cd0bcbc5fceda000814f85d2d29951",
                        "to" : "0xb94f5374fce5edbc8e2a8697c15331677e6ebf0b",
                        "v" : "0x1b",
                        "value" : "0x00"
                    }
                ],
                "uncleHeaders" : [
                ]
            }
        ],
        "genesisBlockHeader" : {
            "bloom" : "0x00000000000000000000000000000000000000000000000000000000000000000000000000000000000000000000000000000000000000000000000000000000000000000000000000000000000000000000000000000000000000000000000000000000000000000000000000000000000000000000000000000000000000000000000000000000000000000000000000000000000000000000000000000000000000000000000000000000000000000000000000000000000000000000000000000000000000000000000000000000000000000000000000000000000000000000000000000000000000000000000000000000000000000000000000000000",
            "coinbase" : "0x68795c4aa09d6f4ed3e5deddf8c2ad3049a601da",
            "difficulty" : "0x020000",
            "extraData" : "0x42",
            "gasLimit" : "0xd5ce6f",
            "gasUsed" : "0x00",
            "hash" : "0x92fdbb1579b834d62b5fd29f9770bbe616d7fb9ac28a27b7fa9524572b58f4cf",
            "mixHash" : "0x56e81f171bcc55a6ff8345e692c0f86e5b48e01b996cadc001622fb5e363b421",
            "nonce" : "0x0102030405060708",
            "number" : "0x00",
            "parentHash" : "0x0000000000000000000000000000000000000000000000000000000000000000",
            "receiptTrie" : "0x56e81f171bcc55a6ff8345e692c0f86e5b48e01b996cadc001622fb5e363b421",
            "stateRoot" : "0xa58f7365e4f5906e2945541429243a587e9d55bc47a4ea9e4757e58a78d45ac9",
            "timestamp" : "0x03b6",
            "transactionsTrie" : "0x56e81f171bcc55a6ff8345e692c0f86e5b48e01b996cadc001622fb5e363b421",
            "uncleHash" : "0x1dcc4de8dec75d7aab85b567b6ccd41ad312451b948a7413f0a142fd40d49347"
        },
        "genesisRLP" : "0xf901faf901f5a00000000000000000000000000000000000000000000000000000000000000000a01dcc4de8dec75d7aab85b567b6ccd41ad312451b948a7413f0a142fd40d493479468795c4aa09d6f4ed3e5deddf8c2ad3049a601daa0a58f7365e4f5906e2945541429243a587e9d55bc47a4ea9e4757e58a78d45ac9a056e81f171bcc55a6ff8345e692c0f86e5b48e01b996cadc001622fb5e363b421a056e81f171bcc55a6ff8345e692c0f86e5b48e01b996cadc001622fb5e363b421b9010000000000000000000000000000000000000000000000000000000000000000000000000000000000000000000000000000000000000000000000000000000000000000000000000000000000000000000000000000000000000000000000000000000000000000000000000000000000000000000000000000000000000000000000000000000000000000000000000000000000000000000000000000000000000000000000000000000000000000000000000000000000000000000000000000000000000000000000000000000000000000000000000000000000000000000000000000000000000000000000000000000000000000000000000000000000830200008083d5ce6f808203b642a056e81f171bcc55a6ff8345e692c0f86e5b48e01b996cadc001622fb5e363b421880102030405060708c0c0",
        "lastblockhash" : "0xce3ec4c3d469773364089c38ec711707ff2634641d885f46f9b1bd52a473d17e",
        "network" : "Byzantium",
        "postState" : {
            "0x68795c4aa09d6f4ed3e5deddf8c2ad3049a601da" : {
                "balance" : "0x29a2241af6311629",
                "code" : "0x",
                "nonce" : "0x00",
                "storage" : {
                }
            },
            "0xa94f5374fce5edbc8e2a8697c15331677e6ebf0b" : {
                "balance" : "0x0de0b6b3a75ee9d7",
                "code" : "0x",
                "nonce" : "0x02",
                "storage" : {
                }
            },
            "0xb94f5374fce5edbc8e2a8697c15331677e6ebf0b" : {
                "balance" : "0x00",
                "code" : "0x60203560205260403560405260603560605260803560805260a03560a05260c03560c05260e03560e052610100356101005261012035610120526101403561014052610160356101605261018035610180526101a0356101a0526101c0356101c0526101e0356101e052610200356102005261022035610220526102403561024052610260356102605261028035610280526102a0356102a0526102c0356102c0526102e0356102e05260206103e86000356020600060086207a120f26000556103e851600155",
                "nonce" : "0x00",
                "storage" : {
                    "0x00" : "0x01"
                }
            },
            "0xc94f5374fce5edbc8e2a8697c15331677e6ebf0b" : {
                "balance" : "0x00",
                "code" : "0x6000356000526020356020527f30644e72e131a029b85045b68181585d2833e84879b9709143e1f593f000000060405260406103e86060600060006007624c4b40f26000556103e85160015561040851600255",
                "nonce" : "0x00",
                "storage" : {
                }
            },
            "0xd94f5374fce5edbc8e2a8697c15331677e6ebf0b" : {
                "balance" : "0x00",
                "code" : "0x60003560005260203560205260403560405260603560605260406103e86080600060006006624c4b40f26000556103e85160015561040851600255",
                "nonce" : "0x00",
                "storage" : {
                }
            }
        },
        "pre" : {
            "0xa94f5374fce5edbc8e2a8697c15331677e6ebf0b" : {
                "balance" : "0x0de0b6b3a7640000",
                "code" : "0x",
                "nonce" : "0x01",
                "storage" : {
                }
            },
            "0xb94f5374fce5edbc8e2a8697c15331677e6ebf0b" : {
                "balance" : "0x00",
                "code" : "0x60203560205260403560405260603560605260803560805260a03560a05260c03560c05260e03560e052610100356101005261012035610120526101403561014052610160356101605261018035610180526101a0356101a0526101c0356101c0526101e0356101e052610200356102005261022035610220526102403561024052610260356102605261028035610280526102a0356102a0526102c0356102c0526102e0356102e05260206103e86000356020600060086207a120f26000556103e851600155",
                "nonce" : "0x00",
                "storage" : {
                }
            },
            "0xc94f5374fce5edbc8e2a8697c15331677e6ebf0b" : {
                "balance" : "0x00",
                "code" : "0x6000356000526020356020527f30644e72e131a029b85045b68181585d2833e84879b9709143e1f593f000000060405260406103e86060600060006007624c4b40f26000556103e85160015561040851600255",
                "nonce" : "0x00",
                "storage" : {
                }
            },
            "0xd94f5374fce5edbc8e2a8697c15331677e6ebf0b" : {
                "balance" : "0x00",
                "code" : "0x60003560005260203560205260403560405260603560605260406103e86080600060006006624c4b40f26000556103e85160015561040851600255",
                "nonce" : "0x00",
                "storage" : {
                }
            }
        },
        "sealEngine" : "NoProof"
    },
    "pairingTest_d5g0v0_Constantinople" : {
        "_info" : {
            "comment" : "",
            "filledwith" : "testeth 1.7.0-alpha.1-20+commit.782a7283",
            "lllcversion" : "Version: 0.5.0-develop.2018.11.9+commit.9709dfe0.Linux.g++",
            "source" : "src/BlockchainTestsFiller/GeneralStateTests/stZeroKnowledge/pairingTest_d5g0v0Filler.json",
            "sourceHash" : "5155b83ad900c4734417c2877a8e6068f14f2ab4b0cda0af9fef4a730b8cf52d"
        },
        "blocks" : [
            {
                "blockHeader" : {
                    "bloom" : "0x00000000000000000000000000000000000000000000000000000000000000000000000000000000000000000000000000000000000000000000000000000000000000000000000000000000000000000000000000000000000000000000000000000000000000000000000000000000000000000000000000000000000000000000000000000000000000000000000000000000000000000000000000000000000000000000000000000000000000000000000000000000000000000000000000000000000000000000000000000000000000000000000000000000000000000000000000000000000000000000000000000000000000000000000000000000",
                    "coinbase" : "0x68795c4aa09d6f4ed3e5deddf8c2ad3049a601da",
                    "difficulty" : "0x020000",
                    "extraData" : "0x",
                    "gasLimit" : "0xd5ce6f",
                    "gasUsed" : "0x050369",
                    "hash" : "0xa811730d0bba800378948c0cc8afd0da226f2e56a3bd1101e8b8a70d7322a34e",
                    "mixHash" : "0x0000000000000000000000000000000000000000000000000000000000000000",
                    "nonce" : "0x0000000000000000",
                    "number" : "0x01",
                    "parentHash" : "0x92fdbb1579b834d62b5fd29f9770bbe616d7fb9ac28a27b7fa9524572b58f4cf",
                    "receiptTrie" : "0xef0962df3e518646433190471be25f961a9a52dd622b3a95021a65d2eb8560b4",
                    "stateRoot" : "0x970d1190d8c664c6f139d3629f6991f887a44f5bb40e3d82580751721633257a",
                    "timestamp" : "0x03e8",
                    "transactionsTrie" : "0xc85966e05c879755ad1c9a1dd5898ca7b49236f13ec5bccdc4fda3f10df0fa5a",
                    "uncleHash" : "0x1dcc4de8dec75d7aab85b567b6ccd41ad312451b948a7413f0a142fd40d49347"
                },
                "rlp" : "0xf90404f901f8a092fdbb1579b834d62b5fd29f9770bbe616d7fb9ac28a27b7fa9524572b58f4cfa01dcc4de8dec75d7aab85b567b6ccd41ad312451b948a7413f0a142fd40d493479468795c4aa09d6f4ed3e5deddf8c2ad3049a601daa0970d1190d8c664c6f139d3629f6991f887a44f5bb40e3d82580751721633257aa0c85966e05c879755ad1c9a1dd5898ca7b49236f13ec5bccdc4fda3f10df0fa5aa0ef0962df3e518646433190471be25f961a9a52dd622b3a95021a65d2eb8560b4b9010000000000000000000000000000000000000000000000000000000000000000000000000000000000000000000000000000000000000000000000000000000000000000000000000000000000000000000000000000000000000000000000000000000000000000000000000000000000000000000000000000000000000000000000000000000000000000000000000000000000000000000000000000000000000000000000000000000000000000000000000000000000000000000000000000000000000000000000000000000000000000000000000000000000000000000000000000000000000000000000000000000000000000000000000000000000830200000183d5ce6f830503698203e880a00000000000000000000000000000000000000000000000000000000000000000880000000000000000f90205f9020201018398968094b94f5374fce5edbc8e2a8697c15331677e6ebf0b80b901a000000000000000000000000000000000000000000000000000000000000001801c76476f4def4bb94541d57ebba1193381ffa7aa76ada664dd31c16024c43f593034dd2920f673e204fee2811c678745fc819b55d3e9d294e45c9b03a76aef41209dd15ebff5d46c4bd888e51a93cf99a7329636c63514396b4a452003a35bf704bf11ca01483bfa8b34b43561848d28905960114c8ac04049af4b6315a416782bb8324af6cfc93537a2ad1a445cfd0ca2a71acd7ac41fadbf933c2a51be344d120a2a4cf30c1bf9845f20c6fe39e07ea2cce61f0c9bb048165fe5e4de877550111e129f1cf1097710d41c4ac70fcdfa5ba2023c6ff1cbeac322de49d1b6df7c103188585e2364128fe25c70558f1560f4f9350baf3959e603cc91486e110936198e9393920d483a7260bfb731fb5d25f1aa493335a9e71297e485b7aef312c21800deef121f1e76426a00665e5c4479674322d4f75edadd46debd5cd992f6ed090689d0585ff075ec9e99ad690c3395bc4b313370b38ef355acdadcd122975b12c85ea5db8c6deb4aab71808dcb408fe3d1e7690c43d37b4ce6cc0166fa7daa1ba03b27f6599cfe731a6c7b1471eba2ba77cd42a1be39d5456c5efdc01895b7f21ca00ee74d9a89742558d51f857691b5d84d97cd0bcbc5fceda000814f85d2d29951c0",
                "transactions" : [
                    {
                        "data" : "0x00000000000000000000000000000000000000000000000000000000000001801c76476f4def4bb94541d57ebba1193381ffa7aa76ada664dd31c16024c43f593034dd2920f673e204fee2811c678745fc819b55d3e9d294e45c9b03a76aef41209dd15ebff5d46c4bd888e51a93cf99a7329636c63514396b4a452003a35bf704bf11ca01483bfa8b34b43561848d28905960114c8ac04049af4b6315a416782bb8324af6cfc93537a2ad1a445cfd0ca2a71acd7ac41fadbf933c2a51be344d120a2a4cf30c1bf9845f20c6fe39e07ea2cce61f0c9bb048165fe5e4de877550111e129f1cf1097710d41c4ac70fcdfa5ba2023c6ff1cbeac322de49d1b6df7c103188585e2364128fe25c70558f1560f4f9350baf3959e603cc91486e110936198e9393920d483a7260bfb731fb5d25f1aa493335a9e71297e485b7aef312c21800deef121f1e76426a00665e5c4479674322d4f75edadd46debd5cd992f6ed090689d0585ff075ec9e99ad690c3395bc4b313370b38ef355acdadcd122975b12c85ea5db8c6deb4aab71808dcb408fe3d1e7690c43d37b4ce6cc0166fa7daa",
                        "gasLimit" : "0x989680",
                        "gasPrice" : "0x01",
                        "nonce" : "0x01",
                        "r" : "0x3b27f6599cfe731a6c7b1471eba2ba77cd42a1be39d5456c5efdc01895b7f21c",
                        "s" : "0x0ee74d9a89742558d51f857691b5d84d97cd0bcbc5fceda000814f85d2d29951",
                        "to" : "0xb94f5374fce5edbc8e2a8697c15331677e6ebf0b",
                        "v" : "0x1b",
                        "value" : "0x00"
                    }
                ],
                "uncleHeaders" : [
                ]
            }
        ],
        "genesisBlockHeader" : {
            "bloom" : "0x00000000000000000000000000000000000000000000000000000000000000000000000000000000000000000000000000000000000000000000000000000000000000000000000000000000000000000000000000000000000000000000000000000000000000000000000000000000000000000000000000000000000000000000000000000000000000000000000000000000000000000000000000000000000000000000000000000000000000000000000000000000000000000000000000000000000000000000000000000000000000000000000000000000000000000000000000000000000000000000000000000000000000000000000000000000",
            "coinbase" : "0x68795c4aa09d6f4ed3e5deddf8c2ad3049a601da",
            "difficulty" : "0x020000",
            "extraData" : "0x42",
            "gasLimit" : "0xd5ce6f",
            "gasUsed" : "0x00",
            "hash" : "0x92fdbb1579b834d62b5fd29f9770bbe616d7fb9ac28a27b7fa9524572b58f4cf",
            "mixHash" : "0x56e81f171bcc55a6ff8345e692c0f86e5b48e01b996cadc001622fb5e363b421",
            "nonce" : "0x0102030405060708",
            "number" : "0x00",
            "parentHash" : "0x0000000000000000000000000000000000000000000000000000000000000000",
            "receiptTrie" : "0x56e81f171bcc55a6ff8345e692c0f86e5b48e01b996cadc001622fb5e363b421",
            "stateRoot" : "0xa58f7365e4f5906e2945541429243a587e9d55bc47a4ea9e4757e58a78d45ac9",
            "timestamp" : "0x03b6",
            "transactionsTrie" : "0x56e81f171bcc55a6ff8345e692c0f86e5b48e01b996cadc001622fb5e363b421",
            "uncleHash" : "0x1dcc4de8dec75d7aab85b567b6ccd41ad312451b948a7413f0a142fd40d49347"
        },
        "genesisRLP" : "0xf901faf901f5a00000000000000000000000000000000000000000000000000000000000000000a01dcc4de8dec75d7aab85b567b6ccd41ad312451b948a7413f0a142fd40d493479468795c4aa09d6f4ed3e5deddf8c2ad3049a601daa0a58f7365e4f5906e2945541429243a587e9d55bc47a4ea9e4757e58a78d45ac9a056e81f171bcc55a6ff8345e692c0f86e5b48e01b996cadc001622fb5e363b421a056e81f171bcc55a6ff8345e692c0f86e5b48e01b996cadc001622fb5e363b421b9010000000000000000000000000000000000000000000000000000000000000000000000000000000000000000000000000000000000000000000000000000000000000000000000000000000000000000000000000000000000000000000000000000000000000000000000000000000000000000000000000000000000000000000000000000000000000000000000000000000000000000000000000000000000000000000000000000000000000000000000000000000000000000000000000000000000000000000000000000000000000000000000000000000000000000000000000000000000000000000000000000000000000000000000000000000000830200008083d5ce6f808203b642a056e81f171bcc55a6ff8345e692c0f86e5b48e01b996cadc001622fb5e363b421880102030405060708c0c0",
        "lastblockhash" : "0xa811730d0bba800378948c0cc8afd0da226f2e56a3bd1101e8b8a70d7322a34e",
        "network" : "Constantinople",
        "postState" : {
            "0x68795c4aa09d6f4ed3e5deddf8c2ad3049a601da" : {
                "balance" : "0x1bc16d674ecd0369",
                "code" : "0x",
                "nonce" : "0x00",
                "storage" : {
                }
            },
            "0xa94f5374fce5edbc8e2a8697c15331677e6ebf0b" : {
                "balance" : "0x0de0b6b3a75efc97",
                "code" : "0x",
                "nonce" : "0x02",
                "storage" : {
                }
            },
            "0xb94f5374fce5edbc8e2a8697c15331677e6ebf0b" : {
                "balance" : "0x00",
                "code" : "0x60203560205260403560405260603560605260803560805260a03560a05260c03560c05260e03560e052610100356101005261012035610120526101403561014052610160356101605261018035610180526101a0356101a0526101c0356101c0526101e0356101e052610200356102005261022035610220526102403561024052610260356102605261028035610280526102a0356102a0526102c0356102c0526102e0356102e05260206103e86000356020600060086207a120f26000556103e851600155",
                "nonce" : "0x00",
                "storage" : {
                    "0x00" : "0x01"
                }
            },
            "0xc94f5374fce5edbc8e2a8697c15331677e6ebf0b" : {
                "balance" : "0x00",
                "code" : "0x6000356000526020356020527f30644e72e131a029b85045b68181585d2833e84879b9709143e1f593f000000060405260406103e86060600060006007624c4b40f26000556103e85160015561040851600255",
                "nonce" : "0x00",
                "storage" : {
                }
            },
            "0xd94f5374fce5edbc8e2a8697c15331677e6ebf0b" : {
                "balance" : "0x00",
                "code" : "0x60003560005260203560205260403560405260603560605260406103e86080600060006006624c4b40f26000556103e85160015561040851600255",
                "nonce" : "0x00",
                "storage" : {
                }
            }
        },
        "pre" : {
            "0xa94f5374fce5edbc8e2a8697c15331677e6ebf0b" : {
                "balance" : "0x0de0b6b3a7640000",
                "code" : "0x",
                "nonce" : "0x01",
                "storage" : {
                }
            },
            "0xb94f5374fce5edbc8e2a8697c15331677e6ebf0b" : {
                "balance" : "0x00",
                "code" : "0x60203560205260403560405260603560605260803560805260a03560a05260c03560c05260e03560e052610100356101005261012035610120526101403561014052610160356101605261018035610180526101a0356101a0526101c0356101c0526101e0356101e052610200356102005261022035610220526102403561024052610260356102605261028035610280526102a0356102a0526102c0356102c0526102e0356102e05260206103e86000356020600060086207a120f26000556103e851600155",
                "nonce" : "0x00",
                "storage" : {
                }
            },
            "0xc94f5374fce5edbc8e2a8697c15331677e6ebf0b" : {
                "balance" : "0x00",
                "code" : "0x6000356000526020356020527f30644e72e131a029b85045b68181585d2833e84879b9709143e1f593f000000060405260406103e86060600060006007624c4b40f26000556103e85160015561040851600255",
                "nonce" : "0x00",
                "storage" : {
                }
            },
            "0xd94f5374fce5edbc8e2a8697c15331677e6ebf0b" : {
                "balance" : "0x00",
                "code" : "0x60003560005260203560205260403560405260603560605260406103e86080600060006006624c4b40f26000556103e85160015561040851600255",
                "nonce" : "0x00",
                "storage" : {
                }
            }
        },
        "sealEngine" : "NoProof"
    },
    "pairingTest_d5g0v0_ConstantinopleFix" : {
        "_info" : {
            "comment" : "",
            "filledwith" : "testeth 1.7.0-alpha.1-20+commit.782a7283",
            "lllcversion" : "Version: 0.5.0-develop.2018.11.9+commit.9709dfe0.Linux.g++",
            "source" : "src/BlockchainTestsFiller/GeneralStateTests/stZeroKnowledge/pairingTest_d5g0v0Filler.json",
            "sourceHash" : "5155b83ad900c4734417c2877a8e6068f14f2ab4b0cda0af9fef4a730b8cf52d"
        },
        "blocks" : [
            {
                "blockHeader" : {
                    "bloom" : "0x00000000000000000000000000000000000000000000000000000000000000000000000000000000000000000000000000000000000000000000000000000000000000000000000000000000000000000000000000000000000000000000000000000000000000000000000000000000000000000000000000000000000000000000000000000000000000000000000000000000000000000000000000000000000000000000000000000000000000000000000000000000000000000000000000000000000000000000000000000000000000000000000000000000000000000000000000000000000000000000000000000000000000000000000000000000",
                    "coinbase" : "0x68795c4aa09d6f4ed3e5deddf8c2ad3049a601da",
                    "difficulty" : "0x020000",
                    "extraData" : "0x",
                    "gasLimit" : "0xd5ce6f",
                    "gasUsed" : "0x051629",
                    "hash" : "0x975ba54735321654c3d0576968f39bc0d347e2e8740a388dcbac571fb2379572",
                    "mixHash" : "0x0000000000000000000000000000000000000000000000000000000000000000",
                    "nonce" : "0x0000000000000000",
                    "number" : "0x01",
                    "parentHash" : "0x92fdbb1579b834d62b5fd29f9770bbe616d7fb9ac28a27b7fa9524572b58f4cf",
                    "receiptTrie" : "0x0de6dc79009c85eadd3d2f5bfcd56704a9d04a6acebb1cf42d72e5053f267e66",
                    "stateRoot" : "0x81f192407124429b71d9029ea97416a1fa5a42bcac5db4274694f133434db65e",
                    "timestamp" : "0x03e8",
                    "transactionsTrie" : "0xc85966e05c879755ad1c9a1dd5898ca7b49236f13ec5bccdc4fda3f10df0fa5a",
                    "uncleHash" : "0x1dcc4de8dec75d7aab85b567b6ccd41ad312451b948a7413f0a142fd40d49347"
                },
                "rlp" : "0xf90404f901f8a092fdbb1579b834d62b5fd29f9770bbe616d7fb9ac28a27b7fa9524572b58f4cfa01dcc4de8dec75d7aab85b567b6ccd41ad312451b948a7413f0a142fd40d493479468795c4aa09d6f4ed3e5deddf8c2ad3049a601daa081f192407124429b71d9029ea97416a1fa5a42bcac5db4274694f133434db65ea0c85966e05c879755ad1c9a1dd5898ca7b49236f13ec5bccdc4fda3f10df0fa5aa00de6dc79009c85eadd3d2f5bfcd56704a9d04a6acebb1cf42d72e5053f267e66b9010000000000000000000000000000000000000000000000000000000000000000000000000000000000000000000000000000000000000000000000000000000000000000000000000000000000000000000000000000000000000000000000000000000000000000000000000000000000000000000000000000000000000000000000000000000000000000000000000000000000000000000000000000000000000000000000000000000000000000000000000000000000000000000000000000000000000000000000000000000000000000000000000000000000000000000000000000000000000000000000000000000000000000000000000000000000830200000183d5ce6f830516298203e880a00000000000000000000000000000000000000000000000000000000000000000880000000000000000f90205f9020201018398968094b94f5374fce5edbc8e2a8697c15331677e6ebf0b80b901a000000000000000000000000000000000000000000000000000000000000001801c76476f4def4bb94541d57ebba1193381ffa7aa76ada664dd31c16024c43f593034dd2920f673e204fee2811c678745fc819b55d3e9d294e45c9b03a76aef41209dd15ebff5d46c4bd888e51a93cf99a7329636c63514396b4a452003a35bf704bf11ca01483bfa8b34b43561848d28905960114c8ac04049af4b6315a416782bb8324af6cfc93537a2ad1a445cfd0ca2a71acd7ac41fadbf933c2a51be344d120a2a4cf30c1bf9845f20c6fe39e07ea2cce61f0c9bb048165fe5e4de877550111e129f1cf1097710d41c4ac70fcdfa5ba2023c6ff1cbeac322de49d1b6df7c103188585e2364128fe25c70558f1560f4f9350baf3959e603cc91486e110936198e9393920d483a7260bfb731fb5d25f1aa493335a9e71297e485b7aef312c21800deef121f1e76426a00665e5c4479674322d4f75edadd46debd5cd992f6ed090689d0585ff075ec9e99ad690c3395bc4b313370b38ef355acdadcd122975b12c85ea5db8c6deb4aab71808dcb408fe3d1e7690c43d37b4ce6cc0166fa7daa1ba03b27f6599cfe731a6c7b1471eba2ba77cd42a1be39d5456c5efdc01895b7f21ca00ee74d9a89742558d51f857691b5d84d97cd0bcbc5fceda000814f85d2d29951c0",
                "transactions" : [
                    {
                        "data" : "0x00000000000000000000000000000000000000000000000000000000000001801c76476f4def4bb94541d57ebba1193381ffa7aa76ada664dd31c16024c43f593034dd2920f673e204fee2811c678745fc819b55d3e9d294e45c9b03a76aef41209dd15ebff5d46c4bd888e51a93cf99a7329636c63514396b4a452003a35bf704bf11ca01483bfa8b34b43561848d28905960114c8ac04049af4b6315a416782bb8324af6cfc93537a2ad1a445cfd0ca2a71acd7ac41fadbf933c2a51be344d120a2a4cf30c1bf9845f20c6fe39e07ea2cce61f0c9bb048165fe5e4de877550111e129f1cf1097710d41c4ac70fcdfa5ba2023c6ff1cbeac322de49d1b6df7c103188585e2364128fe25c70558f1560f4f9350baf3959e603cc91486e110936198e9393920d483a7260bfb731fb5d25f1aa493335a9e71297e485b7aef312c21800deef121f1e76426a00665e5c4479674322d4f75edadd46debd5cd992f6ed090689d0585ff075ec9e99ad690c3395bc4b313370b38ef355acdadcd122975b12c85ea5db8c6deb4aab71808dcb408fe3d1e7690c43d37b4ce6cc0166fa7daa",
                        "gasLimit" : "0x989680",
                        "gasPrice" : "0x01",
                        "nonce" : "0x01",
                        "r" : "0x3b27f6599cfe731a6c7b1471eba2ba77cd42a1be39d5456c5efdc01895b7f21c",
                        "s" : "0x0ee74d9a89742558d51f857691b5d84d97cd0bcbc5fceda000814f85d2d29951",
                        "to" : "0xb94f5374fce5edbc8e2a8697c15331677e6ebf0b",
                        "v" : "0x1b",
                        "value" : "0x00"
                    }
                ],
                "uncleHeaders" : [
                ]
            }
        ],
        "genesisBlockHeader" : {
            "bloom" : "0x00000000000000000000000000000000000000000000000000000000000000000000000000000000000000000000000000000000000000000000000000000000000000000000000000000000000000000000000000000000000000000000000000000000000000000000000000000000000000000000000000000000000000000000000000000000000000000000000000000000000000000000000000000000000000000000000000000000000000000000000000000000000000000000000000000000000000000000000000000000000000000000000000000000000000000000000000000000000000000000000000000000000000000000000000000000",
            "coinbase" : "0x68795c4aa09d6f4ed3e5deddf8c2ad3049a601da",
            "difficulty" : "0x020000",
            "extraData" : "0x42",
            "gasLimit" : "0xd5ce6f",
            "gasUsed" : "0x00",
            "hash" : "0x92fdbb1579b834d62b5fd29f9770bbe616d7fb9ac28a27b7fa9524572b58f4cf",
            "mixHash" : "0x56e81f171bcc55a6ff8345e692c0f86e5b48e01b996cadc001622fb5e363b421",
            "nonce" : "0x0102030405060708",
            "number" : "0x00",
            "parentHash" : "0x0000000000000000000000000000000000000000000000000000000000000000",
            "receiptTrie" : "0x56e81f171bcc55a6ff8345e692c0f86e5b48e01b996cadc001622fb5e363b421",
            "stateRoot" : "0xa58f7365e4f5906e2945541429243a587e9d55bc47a4ea9e4757e58a78d45ac9",
            "timestamp" : "0x03b6",
            "transactionsTrie" : "0x56e81f171bcc55a6ff8345e692c0f86e5b48e01b996cadc001622fb5e363b421",
            "uncleHash" : "0x1dcc4de8dec75d7aab85b567b6ccd41ad312451b948a7413f0a142fd40d49347"
        },
        "genesisRLP" : "0xf901faf901f5a00000000000000000000000000000000000000000000000000000000000000000a01dcc4de8dec75d7aab85b567b6ccd41ad312451b948a7413f0a142fd40d493479468795c4aa09d6f4ed3e5deddf8c2ad3049a601daa0a58f7365e4f5906e2945541429243a587e9d55bc47a4ea9e4757e58a78d45ac9a056e81f171bcc55a6ff8345e692c0f86e5b48e01b996cadc001622fb5e363b421a056e81f171bcc55a6ff8345e692c0f86e5b48e01b996cadc001622fb5e363b421b9010000000000000000000000000000000000000000000000000000000000000000000000000000000000000000000000000000000000000000000000000000000000000000000000000000000000000000000000000000000000000000000000000000000000000000000000000000000000000000000000000000000000000000000000000000000000000000000000000000000000000000000000000000000000000000000000000000000000000000000000000000000000000000000000000000000000000000000000000000000000000000000000000000000000000000000000000000000000000000000000000000000000000000000000000000000000830200008083d5ce6f808203b642a056e81f171bcc55a6ff8345e692c0f86e5b48e01b996cadc001622fb5e363b421880102030405060708c0c0",
        "lastblockhash" : "0x975ba54735321654c3d0576968f39bc0d347e2e8740a388dcbac571fb2379572",
        "network" : "ConstantinopleFix",
        "postState" : {
            "0x68795c4aa09d6f4ed3e5deddf8c2ad3049a601da" : {
                "balance" : "0x1bc16d674ecd1629",
                "code" : "0x",
                "nonce" : "0x00",
                "storage" : {
                }
            },
            "0xa94f5374fce5edbc8e2a8697c15331677e6ebf0b" : {
                "balance" : "0x0de0b6b3a75ee9d7",
                "code" : "0x",
                "nonce" : "0x02",
                "storage" : {
                }
            },
            "0xb94f5374fce5edbc8e2a8697c15331677e6ebf0b" : {
                "balance" : "0x00",
                "code" : "0x60203560205260403560405260603560605260803560805260a03560a05260c03560c05260e03560e052610100356101005261012035610120526101403561014052610160356101605261018035610180526101a0356101a0526101c0356101c0526101e0356101e052610200356102005261022035610220526102403561024052610260356102605261028035610280526102a0356102a0526102c0356102c0526102e0356102e05260206103e86000356020600060086207a120f26000556103e851600155",
                "nonce" : "0x00",
                "storage" : {
                    "0x00" : "0x01"
                }
            },
            "0xc94f5374fce5edbc8e2a8697c15331677e6ebf0b" : {
                "balance" : "0x00",
                "code" : "0x6000356000526020356020527f30644e72e131a029b85045b68181585d2833e84879b9709143e1f593f000000060405260406103e86060600060006007624c4b40f26000556103e85160015561040851600255",
                "nonce" : "0x00",
                "storage" : {
                }
            },
            "0xd94f5374fce5edbc8e2a8697c15331677e6ebf0b" : {
                "balance" : "0x00",
                "code" : "0x60003560005260203560205260403560405260603560605260406103e86080600060006006624c4b40f26000556103e85160015561040851600255",
                "nonce" : "0x00",
                "storage" : {
                }
            }
        },
        "pre" : {
            "0xa94f5374fce5edbc8e2a8697c15331677e6ebf0b" : {
                "balance" : "0x0de0b6b3a7640000",
                "code" : "0x",
                "nonce" : "0x01",
                "storage" : {
                }
            },
            "0xb94f5374fce5edbc8e2a8697c15331677e6ebf0b" : {
                "balance" : "0x00",
                "code" : "0x60203560205260403560405260603560605260803560805260a03560a05260c03560c05260e03560e052610100356101005261012035610120526101403561014052610160356101605261018035610180526101a0356101a0526101c0356101c0526101e0356101e052610200356102005261022035610220526102403561024052610260356102605261028035610280526102a0356102a0526102c0356102c0526102e0356102e05260206103e86000356020600060086207a120f26000556103e851600155",
                "nonce" : "0x00",
                "storage" : {
                }
            },
            "0xc94f5374fce5edbc8e2a8697c15331677e6ebf0b" : {
                "balance" : "0x00",
                "code" : "0x6000356000526020356020527f30644e72e131a029b85045b68181585d2833e84879b9709143e1f593f000000060405260406103e86060600060006007624c4b40f26000556103e85160015561040851600255",
                "nonce" : "0x00",
                "storage" : {
                }
            },
            "0xd94f5374fce5edbc8e2a8697c15331677e6ebf0b" : {
                "balance" : "0x00",
                "code" : "0x60003560005260203560205260403560405260603560605260406103e86080600060006006624c4b40f26000556103e85160015561040851600255",
                "nonce" : "0x00",
                "storage" : {
                }
            }
        },
        "sealEngine" : "NoProof"
    },
    "pairingTest_d5g0v0_Homestead" : {
        "_info" : {
            "comment" : "",
            "filledwith" : "testeth 1.7.0-alpha.1-20+commit.782a7283",
            "lllcversion" : "Version: 0.5.0-develop.2018.11.9+commit.9709dfe0.Linux.g++",
            "source" : "src/BlockchainTestsFiller/GeneralStateTests/stZeroKnowledge/pairingTest_d5g0v0Filler.json",
            "sourceHash" : "5155b83ad900c4734417c2877a8e6068f14f2ab4b0cda0af9fef4a730b8cf52d"
        },
        "blocks" : [
            {
                "blockHeader" : {
                    "bloom" : "0x00000000000000000000000000000000000000000000000000000000000000000000000000000000000000000000000000000000000000000000000000000000000000000000000000000000000000000000000000000000000000000000000000000000000000000000000000000000000000000000000000000000000000000000000000000000000000000000000000000000000000000000000000000000000000000000000000000000000000000000000000000000000000000000000000000000000000000000000000000000000000000000000000000000000000000000000000000000000000000000000000000000000000000000000000000000",
                    "coinbase" : "0x68795c4aa09d6f4ed3e5deddf8c2ad3049a601da",
                    "difficulty" : "0x020000",
                    "extraData" : "0x",
                    "gasLimit" : "0xd5ce6f",
                    "gasUsed" : "0x011bf5",
                    "hash" : "0x0d665db210d03be91545ae7fdb6ec5ec8d91d182137618982588f38b0c199692",
                    "mixHash" : "0x0000000000000000000000000000000000000000000000000000000000000000",
                    "nonce" : "0x0000000000000000",
                    "number" : "0x01",
                    "parentHash" : "0x92fdbb1579b834d62b5fd29f9770bbe616d7fb9ac28a27b7fa9524572b58f4cf",
                    "receiptTrie" : "0x4b4447b5943cafee367332c8e39acf621073899880faed265bce97ed20d12828",
                    "stateRoot" : "0x2b1ea24ffac5c5848e19008a74a2952db494e0f67310f6a68e114bf2912f9bbe",
                    "timestamp" : "0x03e8",
                    "transactionsTrie" : "0xc85966e05c879755ad1c9a1dd5898ca7b49236f13ec5bccdc4fda3f10df0fa5a",
                    "uncleHash" : "0x1dcc4de8dec75d7aab85b567b6ccd41ad312451b948a7413f0a142fd40d49347"
                },
                "rlp" : "0xf90404f901f8a092fdbb1579b834d62b5fd29f9770bbe616d7fb9ac28a27b7fa9524572b58f4cfa01dcc4de8dec75d7aab85b567b6ccd41ad312451b948a7413f0a142fd40d493479468795c4aa09d6f4ed3e5deddf8c2ad3049a601daa02b1ea24ffac5c5848e19008a74a2952db494e0f67310f6a68e114bf2912f9bbea0c85966e05c879755ad1c9a1dd5898ca7b49236f13ec5bccdc4fda3f10df0fa5aa04b4447b5943cafee367332c8e39acf621073899880faed265bce97ed20d12828b9010000000000000000000000000000000000000000000000000000000000000000000000000000000000000000000000000000000000000000000000000000000000000000000000000000000000000000000000000000000000000000000000000000000000000000000000000000000000000000000000000000000000000000000000000000000000000000000000000000000000000000000000000000000000000000000000000000000000000000000000000000000000000000000000000000000000000000000000000000000000000000000000000000000000000000000000000000000000000000000000000000000000000000000000000000000000830200000183d5ce6f83011bf58203e880a00000000000000000000000000000000000000000000000000000000000000000880000000000000000f90205f9020201018398968094b94f5374fce5edbc8e2a8697c15331677e6ebf0b80b901a000000000000000000000000000000000000000000000000000000000000001801c76476f4def4bb94541d57ebba1193381ffa7aa76ada664dd31c16024c43f593034dd2920f673e204fee2811c678745fc819b55d3e9d294e45c9b03a76aef41209dd15ebff5d46c4bd888e51a93cf99a7329636c63514396b4a452003a35bf704bf11ca01483bfa8b34b43561848d28905960114c8ac04049af4b6315a416782bb8324af6cfc93537a2ad1a445cfd0ca2a71acd7ac41fadbf933c2a51be344d120a2a4cf30c1bf9845f20c6fe39e07ea2cce61f0c9bb048165fe5e4de877550111e129f1cf1097710d41c4ac70fcdfa5ba2023c6ff1cbeac322de49d1b6df7c103188585e2364128fe25c70558f1560f4f9350baf3959e603cc91486e110936198e9393920d483a7260bfb731fb5d25f1aa493335a9e71297e485b7aef312c21800deef121f1e76426a00665e5c4479674322d4f75edadd46debd5cd992f6ed090689d0585ff075ec9e99ad690c3395bc4b313370b38ef355acdadcd122975b12c85ea5db8c6deb4aab71808dcb408fe3d1e7690c43d37b4ce6cc0166fa7daa1ba03b27f6599cfe731a6c7b1471eba2ba77cd42a1be39d5456c5efdc01895b7f21ca00ee74d9a89742558d51f857691b5d84d97cd0bcbc5fceda000814f85d2d29951c0",
                "transactions" : [
                    {
                        "data" : "0x00000000000000000000000000000000000000000000000000000000000001801c76476f4def4bb94541d57ebba1193381ffa7aa76ada664dd31c16024c43f593034dd2920f673e204fee2811c678745fc819b55d3e9d294e45c9b03a76aef41209dd15ebff5d46c4bd888e51a93cf99a7329636c63514396b4a452003a35bf704bf11ca01483bfa8b34b43561848d28905960114c8ac04049af4b6315a416782bb8324af6cfc93537a2ad1a445cfd0ca2a71acd7ac41fadbf933c2a51be344d120a2a4cf30c1bf9845f20c6fe39e07ea2cce61f0c9bb048165fe5e4de877550111e129f1cf1097710d41c4ac70fcdfa5ba2023c6ff1cbeac322de49d1b6df7c103188585e2364128fe25c70558f1560f4f9350baf3959e603cc91486e110936198e9393920d483a7260bfb731fb5d25f1aa493335a9e71297e485b7aef312c21800deef121f1e76426a00665e5c4479674322d4f75edadd46debd5cd992f6ed090689d0585ff075ec9e99ad690c3395bc4b313370b38ef355acdadcd122975b12c85ea5db8c6deb4aab71808dcb408fe3d1e7690c43d37b4ce6cc0166fa7daa",
                        "gasLimit" : "0x989680",
                        "gasPrice" : "0x01",
                        "nonce" : "0x01",
                        "r" : "0x3b27f6599cfe731a6c7b1471eba2ba77cd42a1be39d5456c5efdc01895b7f21c",
                        "s" : "0x0ee74d9a89742558d51f857691b5d84d97cd0bcbc5fceda000814f85d2d29951",
                        "to" : "0xb94f5374fce5edbc8e2a8697c15331677e6ebf0b",
                        "v" : "0x1b",
                        "value" : "0x00"
                    }
                ],
                "uncleHeaders" : [
                ]
            }
        ],
        "genesisBlockHeader" : {
            "bloom" : "0x00000000000000000000000000000000000000000000000000000000000000000000000000000000000000000000000000000000000000000000000000000000000000000000000000000000000000000000000000000000000000000000000000000000000000000000000000000000000000000000000000000000000000000000000000000000000000000000000000000000000000000000000000000000000000000000000000000000000000000000000000000000000000000000000000000000000000000000000000000000000000000000000000000000000000000000000000000000000000000000000000000000000000000000000000000000",
            "coinbase" : "0x68795c4aa09d6f4ed3e5deddf8c2ad3049a601da",
            "difficulty" : "0x020000",
            "extraData" : "0x42",
            "gasLimit" : "0xd5ce6f",
            "gasUsed" : "0x00",
            "hash" : "0x92fdbb1579b834d62b5fd29f9770bbe616d7fb9ac28a27b7fa9524572b58f4cf",
            "mixHash" : "0x56e81f171bcc55a6ff8345e692c0f86e5b48e01b996cadc001622fb5e363b421",
            "nonce" : "0x0102030405060708",
            "number" : "0x00",
            "parentHash" : "0x0000000000000000000000000000000000000000000000000000000000000000",
            "receiptTrie" : "0x56e81f171bcc55a6ff8345e692c0f86e5b48e01b996cadc001622fb5e363b421",
            "stateRoot" : "0xa58f7365e4f5906e2945541429243a587e9d55bc47a4ea9e4757e58a78d45ac9",
            "timestamp" : "0x03b6",
            "transactionsTrie" : "0x56e81f171bcc55a6ff8345e692c0f86e5b48e01b996cadc001622fb5e363b421",
            "uncleHash" : "0x1dcc4de8dec75d7aab85b567b6ccd41ad312451b948a7413f0a142fd40d49347"
        },
        "genesisRLP" : "0xf901faf901f5a00000000000000000000000000000000000000000000000000000000000000000a01dcc4de8dec75d7aab85b567b6ccd41ad312451b948a7413f0a142fd40d493479468795c4aa09d6f4ed3e5deddf8c2ad3049a601daa0a58f7365e4f5906e2945541429243a587e9d55bc47a4ea9e4757e58a78d45ac9a056e81f171bcc55a6ff8345e692c0f86e5b48e01b996cadc001622fb5e363b421a056e81f171bcc55a6ff8345e692c0f86e5b48e01b996cadc001622fb5e363b421b9010000000000000000000000000000000000000000000000000000000000000000000000000000000000000000000000000000000000000000000000000000000000000000000000000000000000000000000000000000000000000000000000000000000000000000000000000000000000000000000000000000000000000000000000000000000000000000000000000000000000000000000000000000000000000000000000000000000000000000000000000000000000000000000000000000000000000000000000000000000000000000000000000000000000000000000000000000000000000000000000000000000000000000000000000000000000830200008083d5ce6f808203b642a056e81f171bcc55a6ff8345e692c0f86e5b48e01b996cadc001622fb5e363b421880102030405060708c0c0",
        "lastblockhash" : "0x0d665db210d03be91545ae7fdb6ec5ec8d91d182137618982588f38b0c199692",
        "network" : "Homestead",
        "postState" : {
            "0x68795c4aa09d6f4ed3e5deddf8c2ad3049a601da" : {
                "balance" : "0x4563918244f51bf5",
                "code" : "0x",
                "nonce" : "0x00",
                "storage" : {
                }
            },
            "0xa94f5374fce5edbc8e2a8697c15331677e6ebf0b" : {
                "balance" : "0x0de0b6b3a762e40b",
                "code" : "0x",
                "nonce" : "0x02",
                "storage" : {
                }
            },
            "0xb94f5374fce5edbc8e2a8697c15331677e6ebf0b" : {
                "balance" : "0x00",
                "code" : "0x60203560205260403560405260603560605260803560805260a03560a05260c03560c05260e03560e052610100356101005261012035610120526101403561014052610160356101605261018035610180526101a0356101a0526101c0356101c0526101e0356101e052610200356102005261022035610220526102403561024052610260356102605261028035610280526102a0356102a0526102c0356102c0526102e0356102e05260206103e86000356020600060086207a120f26000556103e851600155",
                "nonce" : "0x00",
                "storage" : {
                    "0x00" : "0x01"
                }
            },
            "0xc94f5374fce5edbc8e2a8697c15331677e6ebf0b" : {
                "balance" : "0x00",
                "code" : "0x6000356000526020356020527f30644e72e131a029b85045b68181585d2833e84879b9709143e1f593f000000060405260406103e86060600060006007624c4b40f26000556103e85160015561040851600255",
                "nonce" : "0x00",
                "storage" : {
                }
            },
            "0xd94f5374fce5edbc8e2a8697c15331677e6ebf0b" : {
                "balance" : "0x00",
                "code" : "0x60003560005260203560205260403560405260603560605260406103e86080600060006006624c4b40f26000556103e85160015561040851600255",
                "nonce" : "0x00",
                "storage" : {
                }
            }
        },
        "pre" : {
            "0xa94f5374fce5edbc8e2a8697c15331677e6ebf0b" : {
                "balance" : "0x0de0b6b3a7640000",
                "code" : "0x",
                "nonce" : "0x01",
                "storage" : {
                }
            },
            "0xb94f5374fce5edbc8e2a8697c15331677e6ebf0b" : {
                "balance" : "0x00",
                "code" : "0x60203560205260403560405260603560605260803560805260a03560a05260c03560c05260e03560e052610100356101005261012035610120526101403561014052610160356101605261018035610180526101a0356101a0526101c0356101c0526101e0356101e052610200356102005261022035610220526102403561024052610260356102605261028035610280526102a0356102a0526102c0356102c0526102e0356102e05260206103e86000356020600060086207a120f26000556103e851600155",
                "nonce" : "0x00",
                "storage" : {
                }
            },
            "0xc94f5374fce5edbc8e2a8697c15331677e6ebf0b" : {
                "balance" : "0x00",
                "code" : "0x6000356000526020356020527f30644e72e131a029b85045b68181585d2833e84879b9709143e1f593f000000060405260406103e86060600060006007624c4b40f26000556103e85160015561040851600255",
                "nonce" : "0x00",
                "storage" : {
                }
            },
            "0xd94f5374fce5edbc8e2a8697c15331677e6ebf0b" : {
                "balance" : "0x00",
                "code" : "0x60003560005260203560205260403560405260603560605260406103e86080600060006006624c4b40f26000556103e85160015561040851600255",
                "nonce" : "0x00",
                "storage" : {
                }
            }
        },
        "sealEngine" : "NoProof"
    }
}