{
    "pairingTest_d0g1v0_Byzantium" : {
        "_info" : {
            "comment" : "",
            "filledwith" : "testeth 1.7.0-alpha.1-20+commit.782a7283",
            "lllcversion" : "Version: 0.5.0-develop.2018.11.9+commit.9709dfe0.Linux.g++",
            "source" : "src/BlockchainTestsFiller/GeneralStateTests/stZeroKnowledge/pairingTest_d0g1v0Filler.json",
            "sourceHash" : "aa8a532e48d9c2229013c5a4264a1bd38df27f954255e82caa63a8808c35a21a"
        },
        "blocks" : [
            {
                "blockHeader" : {
                    "bloom" : "0x00000000000000000000000000000000000000000000000000000000000000000000000000000000000000000000000000000000000000000000000000000000000000000000000000000000000000000000000000000000000000000000000000000000000000000000000000000000000000000000000000000000000000000000000000000000000000000000000000000000000000000000000000000000000000000000000000000000000000000000000000000000000000000000000000000000000000000000000000000000000000000000000000000000000000000000000000000000000000000000000000000000000000000000000000000000",
                    "coinbase" : "0x68795c4aa09d6f4ed3e5deddf8c2ad3049a601da",
                    "difficulty" : "0x020000",
                    "extraData" : "0x",
                    "gasLimit" : "0xd5ce6f",
                    "gasUsed" : "0x015f90",
                    "hash" : "0x2f8fdeaac11f0ebc92d0c3f82eb2cbfa5f66f16271d81318fd099539ff152d88",
                    "mixHash" : "0x0000000000000000000000000000000000000000000000000000000000000000",
                    "nonce" : "0x0000000000000000",
                    "number" : "0x01",
                    "parentHash" : "0x92fdbb1579b834d62b5fd29f9770bbe616d7fb9ac28a27b7fa9524572b58f4cf",
                    "receiptTrie" : "0x22140012d7300d5a027646b3c3f97683d4af689c0ab818cf01a532204bcb4a59",
                    "stateRoot" : "0x8ea03f1f1c7cae8abe03a0f51c21190911cc3902420b12e9f2cc8862847aa21a",
                    "timestamp" : "0x03e8",
                    "transactionsTrie" : "0x30fb3ad195f53191be0692b7e2f6a08d523de8294990d1164a4b2f4dea200ea6",
                    "uncleHash" : "0x1dcc4de8dec75d7aab85b567b6ccd41ad312451b948a7413f0a142fd40d49347"
                },
                "rlp" : "0xf90404f901f8a092fdbb1579b834d62b5fd29f9770bbe616d7fb9ac28a27b7fa9524572b58f4cfa01dcc4de8dec75d7aab85b567b6ccd41ad312451b948a7413f0a142fd40d493479468795c4aa09d6f4ed3e5deddf8c2ad3049a601daa08ea03f1f1c7cae8abe03a0f51c21190911cc3902420b12e9f2cc8862847aa21aa030fb3ad195f53191be0692b7e2f6a08d523de8294990d1164a4b2f4dea200ea6a022140012d7300d5a027646b3c3f97683d4af689c0ab818cf01a532204bcb4a59b9010000000000000000000000000000000000000000000000000000000000000000000000000000000000000000000000000000000000000000000000000000000000000000000000000000000000000000000000000000000000000000000000000000000000000000000000000000000000000000000000000000000000000000000000000000000000000000000000000000000000000000000000000000000000000000000000000000000000000000000000000000000000000000000000000000000000000000000000000000000000000000000000000000000000000000000000000000000000000000000000000000000000000000000000000000000000830200000183d5ce6f83015f908203e880a00000000000000000000000000000000000000000000000000000000000000000880000000000000000f90205f90202010183015f9094b94f5374fce5edbc8e2a8697c15331677e6ebf0b80b901a000000000000000000000000000000000000000000000000000000000000001801c76476f4def4bb94541d57ebba1193381ffa7aa76ada664dd31c16024c43f593034dd2920f673e204fee2811c678745fc819b55d3e9d294e45c9b03a76aef41209dd15ebff5d46c4bd888e51a93cf99a7329636c63514396b4a452003a35bf704bf11ca01483bfa8b34b43561848d28905960114c8ac04049af4b6315a416782bb8324af6cfc93537a2ad1a445cfd0ca2a71acd7ac41fadbf933c2a51be344d120a2a4cf30c1bf9845f20c6fe39e07ea2cce61f0c9bb048165fe5e4de877550111e129f1cf1097710d41c4ac70fcdfa5ba2023c6ff1cbeac322de49d1b6df7c2032c61a830e3c17286de9462bf242fca2883585b93870a73853face6a6bf411198e9393920d483a7260bfb731fb5d25f1aa493335a9e71297e485b7aef312c21800deef121f1e76426a00665e5c4479674322d4f75edadd46debd5cd992f6ed090689d0585ff075ec9e99ad690c3395bc4b313370b38ef355acdadcd122975b12c85ea5db8c6deb4aab71808dcb408fe3d1e7690c43d37b4ce6cc0166fa7daa1ba07eac3a4c1ecd39c700eb86fce6f5f17dc81deb92f3433b21414b924f6e78e6aea049cde7ab58c7dd48558f69396a334838243af049d61de8748c39c2b42bc8849ec0",
                "transactions" : [
                    {
                        "data" : "0x00000000000000000000000000000000000000000000000000000000000001801c76476f4def4bb94541d57ebba1193381ffa7aa76ada664dd31c16024c43f593034dd2920f673e204fee2811c678745fc819b55d3e9d294e45c9b03a76aef41209dd15ebff5d46c4bd888e51a93cf99a7329636c63514396b4a452003a35bf704bf11ca01483bfa8b34b43561848d28905960114c8ac04049af4b6315a416782bb8324af6cfc93537a2ad1a445cfd0ca2a71acd7ac41fadbf933c2a51be344d120a2a4cf30c1bf9845f20c6fe39e07ea2cce61f0c9bb048165fe5e4de877550111e129f1cf1097710d41c4ac70fcdfa5ba2023c6ff1cbeac322de49d1b6df7c2032c61a830e3c17286de9462bf242fca2883585b93870a73853face6a6bf411198e9393920d483a7260bfb731fb5d25f1aa493335a9e71297e485b7aef312c21800deef121f1e76426a00665e5c4479674322d4f75edadd46debd5cd992f6ed090689d0585ff075ec9e99ad690c3395bc4b313370b38ef355acdadcd122975b12c85ea5db8c6deb4aab71808dcb408fe3d1e7690c43d37b4ce6cc0166fa7daa",
                        "gasLimit" : "0x015f90",
                        "gasPrice" : "0x01",
                        "nonce" : "0x01",
                        "r" : "0x7eac3a4c1ecd39c700eb86fce6f5f17dc81deb92f3433b21414b924f6e78e6ae",
                        "s" : "0x49cde7ab58c7dd48558f69396a334838243af049d61de8748c39c2b42bc8849e",
                        "to" : "0xb94f5374fce5edbc8e2a8697c15331677e6ebf0b",
                        "v" : "0x1b",
                        "value" : "0x00"
                    }
                ],
                "uncleHeaders" : [
                ]
            }
        ],
        "genesisBlockHeader" : {
            "bloom" : "0x00000000000000000000000000000000000000000000000000000000000000000000000000000000000000000000000000000000000000000000000000000000000000000000000000000000000000000000000000000000000000000000000000000000000000000000000000000000000000000000000000000000000000000000000000000000000000000000000000000000000000000000000000000000000000000000000000000000000000000000000000000000000000000000000000000000000000000000000000000000000000000000000000000000000000000000000000000000000000000000000000000000000000000000000000000000",
            "coinbase" : "0x68795c4aa09d6f4ed3e5deddf8c2ad3049a601da",
            "difficulty" : "0x020000",
            "extraData" : "0x42",
            "gasLimit" : "0xd5ce6f",
            "gasUsed" : "0x00",
            "hash" : "0x92fdbb1579b834d62b5fd29f9770bbe616d7fb9ac28a27b7fa9524572b58f4cf",
            "mixHash" : "0x56e81f171bcc55a6ff8345e692c0f86e5b48e01b996cadc001622fb5e363b421",
            "nonce" : "0x0102030405060708",
            "number" : "0x00",
            "parentHash" : "0x0000000000000000000000000000000000000000000000000000000000000000",
            "receiptTrie" : "0x56e81f171bcc55a6ff8345e692c0f86e5b48e01b996cadc001622fb5e363b421",
            "stateRoot" : "0xa58f7365e4f5906e2945541429243a587e9d55bc47a4ea9e4757e58a78d45ac9",
            "timestamp" : "0x03b6",
            "transactionsTrie" : "0x56e81f171bcc55a6ff8345e692c0f86e5b48e01b996cadc001622fb5e363b421",
            "uncleHash" : "0x1dcc4de8dec75d7aab85b567b6ccd41ad312451b948a7413f0a142fd40d49347"
        },
        "genesisRLP" : "0xf901faf901f5a00000000000000000000000000000000000000000000000000000000000000000a01dcc4de8dec75d7aab85b567b6ccd41ad312451b948a7413f0a142fd40d493479468795c4aa09d6f4ed3e5deddf8c2ad3049a601daa0a58f7365e4f5906e2945541429243a587e9d55bc47a4ea9e4757e58a78d45ac9a056e81f171bcc55a6ff8345e692c0f86e5b48e01b996cadc001622fb5e363b421a056e81f171bcc55a6ff8345e692c0f86e5b48e01b996cadc001622fb5e363b421b9010000000000000000000000000000000000000000000000000000000000000000000000000000000000000000000000000000000000000000000000000000000000000000000000000000000000000000000000000000000000000000000000000000000000000000000000000000000000000000000000000000000000000000000000000000000000000000000000000000000000000000000000000000000000000000000000000000000000000000000000000000000000000000000000000000000000000000000000000000000000000000000000000000000000000000000000000000000000000000000000000000000000000000000000000000000000830200008083d5ce6f808203b642a056e81f171bcc55a6ff8345e692c0f86e5b48e01b996cadc001622fb5e363b421880102030405060708c0c0",
        "lastblockhash" : "0x2f8fdeaac11f0ebc92d0c3f82eb2cbfa5f66f16271d81318fd099539ff152d88",
        "network" : "Byzantium",
        "postState" : {
            "0x68795c4aa09d6f4ed3e5deddf8c2ad3049a601da" : {
                "balance" : "0x29a2241af62d5f90",
                "code" : "0x",
                "nonce" : "0x00",
                "storage" : {
                }
            },
            "0xa94f5374fce5edbc8e2a8697c15331677e6ebf0b" : {
                "balance" : "0x0de0b6b3a762a070",
                "code" : "0x",
                "nonce" : "0x02",
                "storage" : {
                }
            },
            "0xb94f5374fce5edbc8e2a8697c15331677e6ebf0b" : {
                "balance" : "0x00",
                "code" : "0x60203560205260403560405260603560605260803560805260a03560a05260c03560c05260e03560e052610100356101005261012035610120526101403561014052610160356101605261018035610180526101a0356101a0526101c0356101c0526101e0356101e052610200356102005261022035610220526102403561024052610260356102605261028035610280526102a0356102a0526102c0356102c0526102e0356102e05260206103e86000356020600060086207a120f26000556103e851600155",
                "nonce" : "0x00",
                "storage" : {
                }
            },
            "0xc94f5374fce5edbc8e2a8697c15331677e6ebf0b" : {
                "balance" : "0x00",
                "code" : "0x6000356000526020356020527f30644e72e131a029b85045b68181585d2833e84879b9709143e1f593f000000060405260406103e86060600060006007624c4b40f26000556103e85160015561040851600255",
                "nonce" : "0x00",
                "storage" : {
                }
            },
            "0xd94f5374fce5edbc8e2a8697c15331677e6ebf0b" : {
                "balance" : "0x00",
                "code" : "0x60003560005260203560205260403560405260603560605260406103e86080600060006006624c4b40f26000556103e85160015561040851600255",
                "nonce" : "0x00",
                "storage" : {
                }
            }
        },
        "pre" : {
            "0xa94f5374fce5edbc8e2a8697c15331677e6ebf0b" : {
                "balance" : "0x0de0b6b3a7640000",
                "code" : "0x",
                "nonce" : "0x01",
                "storage" : {
                }
            },
            "0xb94f5374fce5edbc8e2a8697c15331677e6ebf0b" : {
                "balance" : "0x00",
                "code" : "0x60203560205260403560405260603560605260803560805260a03560a05260c03560c05260e03560e052610100356101005261012035610120526101403561014052610160356101605261018035610180526101a0356101a0526101c0356101c0526101e0356101e052610200356102005261022035610220526102403561024052610260356102605261028035610280526102a0356102a0526102c0356102c0526102e0356102e05260206103e86000356020600060086207a120f26000556103e851600155",
                "nonce" : "0x00",
                "storage" : {
                }
            },
            "0xc94f5374fce5edbc8e2a8697c15331677e6ebf0b" : {
                "balance" : "0x00",
                "code" : "0x6000356000526020356020527f30644e72e131a029b85045b68181585d2833e84879b9709143e1f593f000000060405260406103e86060600060006007624c4b40f26000556103e85160015561040851600255",
                "nonce" : "0x00",
                "storage" : {
                }
            },
            "0xd94f5374fce5edbc8e2a8697c15331677e6ebf0b" : {
                "balance" : "0x00",
                "code" : "0x60003560005260203560205260403560405260603560605260406103e86080600060006006624c4b40f26000556103e85160015561040851600255",
                "nonce" : "0x00",
                "storage" : {
                }
            }
        },
        "sealEngine" : "NoProof"
    },
    "pairingTest_d0g1v0_Constantinople" : {
        "_info" : {
            "comment" : "",
            "filledwith" : "testeth 1.7.0-alpha.1-20+commit.782a7283",
            "lllcversion" : "Version: 0.5.0-develop.2018.11.9+commit.9709dfe0.Linux.g++",
            "source" : "src/BlockchainTestsFiller/GeneralStateTests/stZeroKnowledge/pairingTest_d0g1v0Filler.json",
            "sourceHash" : "aa8a532e48d9c2229013c5a4264a1bd38df27f954255e82caa63a8808c35a21a"
        },
        "blocks" : [
            {
                "blockHeader" : {
                    "bloom" : "0x00000000000000000000000000000000000000000000000000000000000000000000000000000000000000000000000000000000000000000000000000000000000000000000000000000000000000000000000000000000000000000000000000000000000000000000000000000000000000000000000000000000000000000000000000000000000000000000000000000000000000000000000000000000000000000000000000000000000000000000000000000000000000000000000000000000000000000000000000000000000000000000000000000000000000000000000000000000000000000000000000000000000000000000000000000000",
                    "coinbase" : "0x68795c4aa09d6f4ed3e5deddf8c2ad3049a601da",
                    "difficulty" : "0x020000",
                    "extraData" : "0x",
                    "gasLimit" : "0xd5ce6f",
                    "gasUsed" : "0x015ea2",
                    "hash" : "0x116c525fedbd58f021b41bc5219bb5a4496a2c23dcaf1775a57ee93b6049deaa",
                    "mixHash" : "0x0000000000000000000000000000000000000000000000000000000000000000",
                    "nonce" : "0x0000000000000000",
                    "number" : "0x01",
                    "parentHash" : "0x92fdbb1579b834d62b5fd29f9770bbe616d7fb9ac28a27b7fa9524572b58f4cf",
                    "receiptTrie" : "0x62e2c96fd0c39edb4cdb815d6f103f697b9ee1c9c3eb5fa11764d97b335b3460",
                    "stateRoot" : "0xd960ce5c76d7095ed8b049078889af956336ffa9c845b8fd01e110c4f65b90e5",
                    "timestamp" : "0x03e8",
                    "transactionsTrie" : "0x30fb3ad195f53191be0692b7e2f6a08d523de8294990d1164a4b2f4dea200ea6",
                    "uncleHash" : "0x1dcc4de8dec75d7aab85b567b6ccd41ad312451b948a7413f0a142fd40d49347"
                },
                "rlp" : "0xf90404f901f8a092fdbb1579b834d62b5fd29f9770bbe616d7fb9ac28a27b7fa9524572b58f4cfa01dcc4de8dec75d7aab85b567b6ccd41ad312451b948a7413f0a142fd40d493479468795c4aa09d6f4ed3e5deddf8c2ad3049a601daa0d960ce5c76d7095ed8b049078889af956336ffa9c845b8fd01e110c4f65b90e5a030fb3ad195f53191be0692b7e2f6a08d523de8294990d1164a4b2f4dea200ea6a062e2c96fd0c39edb4cdb815d6f103f697b9ee1c9c3eb5fa11764d97b335b3460b9010000000000000000000000000000000000000000000000000000000000000000000000000000000000000000000000000000000000000000000000000000000000000000000000000000000000000000000000000000000000000000000000000000000000000000000000000000000000000000000000000000000000000000000000000000000000000000000000000000000000000000000000000000000000000000000000000000000000000000000000000000000000000000000000000000000000000000000000000000000000000000000000000000000000000000000000000000000000000000000000000000000000000000000000000000000000830200000183d5ce6f83015ea28203e880a00000000000000000000000000000000000000000000000000000000000000000880000000000000000f90205f90202010183015f9094b94f5374fce5edbc8e2a8697c15331677e6ebf0b80b901a000000000000000000000000000000000000000000000000000000000000001801c76476f4def4bb94541d57ebba1193381ffa7aa76ada664dd31c16024c43f593034dd2920f673e204fee2811c678745fc819b55d3e9d294e45c9b03a76aef41209dd15ebff5d46c4bd888e51a93cf99a7329636c63514396b4a452003a35bf704bf11ca01483bfa8b34b43561848d28905960114c8ac04049af4b6315a416782bb8324af6cfc93537a2ad1a445cfd0ca2a71acd7ac41fadbf933c2a51be344d120a2a4cf30c1bf9845f20c6fe39e07ea2cce61f0c9bb048165fe5e4de877550111e129f1cf1097710d41c4ac70fcdfa5ba2023c6ff1cbeac322de49d1b6df7c2032c61a830e3c17286de9462bf242fca2883585b93870a73853face6a6bf411198e9393920d483a7260bfb731fb5d25f1aa493335a9e71297e485b7aef312c21800deef121f1e76426a00665e5c4479674322d4f75edadd46debd5cd992f6ed090689d0585ff075ec9e99ad690c3395bc4b313370b38ef355acdadcd122975b12c85ea5db8c6deb4aab71808dcb408fe3d1e7690c43d37b4ce6cc0166fa7daa1ba07eac3a4c1ecd39c700eb86fce6f5f17dc81deb92f3433b21414b924f6e78e6aea049cde7ab58c7dd48558f69396a334838243af049d61de8748c39c2b42bc8849ec0",
                "transactions" : [
                    {
                        "data" : "0x00000000000000000000000000000000000000000000000000000000000001801c76476f4def4bb94541d57ebba1193381ffa7aa76ada664dd31c16024c43f593034dd2920f673e204fee2811c678745fc819b55d3e9d294e45c9b03a76aef41209dd15ebff5d46c4bd888e51a93cf99a7329636c63514396b4a452003a35bf704bf11ca01483bfa8b34b43561848d28905960114c8ac04049af4b6315a416782bb8324af6cfc93537a2ad1a445cfd0ca2a71acd7ac41fadbf933c2a51be344d120a2a4cf30c1bf9845f20c6fe39e07ea2cce61f0c9bb048165fe5e4de877550111e129f1cf1097710d41c4ac70fcdfa5ba2023c6ff1cbeac322de49d1b6df7c2032c61a830e3c17286de9462bf242fca2883585b93870a73853face6a6bf411198e9393920d483a7260bfb731fb5d25f1aa493335a9e71297e485b7aef312c21800deef121f1e76426a00665e5c4479674322d4f75edadd46debd5cd992f6ed090689d0585ff075ec9e99ad690c3395bc4b313370b38ef355acdadcd122975b12c85ea5db8c6deb4aab71808dcb408fe3d1e7690c43d37b4ce6cc0166fa7daa",
                        "gasLimit" : "0x015f90",
                        "gasPrice" : "0x01",
                        "nonce" : "0x01",
                        "r" : "0x7eac3a4c1ecd39c700eb86fce6f5f17dc81deb92f3433b21414b924f6e78e6ae",
                        "s" : "0x49cde7ab58c7dd48558f69396a334838243af049d61de8748c39c2b42bc8849e",
                        "to" : "0xb94f5374fce5edbc8e2a8697c15331677e6ebf0b",
                        "v" : "0x1b",
                        "value" : "0x00"
                    }
                ],
                "uncleHeaders" : [
                ]
            }
        ],
        "genesisBlockHeader" : {
            "bloom" : "0x00000000000000000000000000000000000000000000000000000000000000000000000000000000000000000000000000000000000000000000000000000000000000000000000000000000000000000000000000000000000000000000000000000000000000000000000000000000000000000000000000000000000000000000000000000000000000000000000000000000000000000000000000000000000000000000000000000000000000000000000000000000000000000000000000000000000000000000000000000000000000000000000000000000000000000000000000000000000000000000000000000000000000000000000000000000",
            "coinbase" : "0x68795c4aa09d6f4ed3e5deddf8c2ad3049a601da",
            "difficulty" : "0x020000",
            "extraData" : "0x42",
            "gasLimit" : "0xd5ce6f",
            "gasUsed" : "0x00",
            "hash" : "0x92fdbb1579b834d62b5fd29f9770bbe616d7fb9ac28a27b7fa9524572b58f4cf",
            "mixHash" : "0x56e81f171bcc55a6ff8345e692c0f86e5b48e01b996cadc001622fb5e363b421",
            "nonce" : "0x0102030405060708",
            "number" : "0x00",
            "parentHash" : "0x0000000000000000000000000000000000000000000000000000000000000000",
            "receiptTrie" : "0x56e81f171bcc55a6ff8345e692c0f86e5b48e01b996cadc001622fb5e363b421",
            "stateRoot" : "0xa58f7365e4f5906e2945541429243a587e9d55bc47a4ea9e4757e58a78d45ac9",
            "timestamp" : "0x03b6",
            "transactionsTrie" : "0x56e81f171bcc55a6ff8345e692c0f86e5b48e01b996cadc001622fb5e363b421",
            "uncleHash" : "0x1dcc4de8dec75d7aab85b567b6ccd41ad312451b948a7413f0a142fd40d49347"
        },
        "genesisRLP" : "0xf901faf901f5a00000000000000000000000000000000000000000000000000000000000000000a01dcc4de8dec75d7aab85b567b6ccd41ad312451b948a7413f0a142fd40d493479468795c4aa09d6f4ed3e5deddf8c2ad3049a601daa0a58f7365e4f5906e2945541429243a587e9d55bc47a4ea9e4757e58a78d45ac9a056e81f171bcc55a6ff8345e692c0f86e5b48e01b996cadc001622fb5e363b421a056e81f171bcc55a6ff8345e692c0f86e5b48e01b996cadc001622fb5e363b421b9010000000000000000000000000000000000000000000000000000000000000000000000000000000000000000000000000000000000000000000000000000000000000000000000000000000000000000000000000000000000000000000000000000000000000000000000000000000000000000000000000000000000000000000000000000000000000000000000000000000000000000000000000000000000000000000000000000000000000000000000000000000000000000000000000000000000000000000000000000000000000000000000000000000000000000000000000000000000000000000000000000000000000000000000000000000000830200008083d5ce6f808203b642a056e81f171bcc55a6ff8345e692c0f86e5b48e01b996cadc001622fb5e363b421880102030405060708c0c0",
        "lastblockhash" : "0x116c525fedbd58f021b41bc5219bb5a4496a2c23dcaf1775a57ee93b6049deaa",
        "network" : "Constantinople",
        "postState" : {
            "0x68795c4aa09d6f4ed3e5deddf8c2ad3049a601da" : {
                "balance" : "0x1bc16d674ec95ea2",
                "code" : "0x",
                "nonce" : "0x00",
                "storage" : {
                }
            },
            "0xa94f5374fce5edbc8e2a8697c15331677e6ebf0b" : {
                "balance" : "0x0de0b6b3a762a15e",
                "code" : "0x",
                "nonce" : "0x02",
                "storage" : {
                }
            },
            "0xb94f5374fce5edbc8e2a8697c15331677e6ebf0b" : {
                "balance" : "0x00",
                "code" : "0x60203560205260403560405260603560605260803560805260a03560a05260c03560c05260e03560e052610100356101005261012035610120526101403561014052610160356101605261018035610180526101a0356101a0526101c0356101c0526101e0356101e052610200356102005261022035610220526102403561024052610260356102605261028035610280526102a0356102a0526102c0356102c0526102e0356102e05260206103e86000356020600060086207a120f26000556103e851600155",
                "nonce" : "0x00",
                "storage" : {
                }
            },
            "0xc94f5374fce5edbc8e2a8697c15331677e6ebf0b" : {
                "balance" : "0x00",
                "code" : "0x6000356000526020356020527f30644e72e131a029b85045b68181585d2833e84879b9709143e1f593f000000060405260406103e86060600060006007624c4b40f26000556103e85160015561040851600255",
                "nonce" : "0x00",
                "storage" : {
                }
            },
            "0xd94f5374fce5edbc8e2a8697c15331677e6ebf0b" : {
                "balance" : "0x00",
                "code" : "0x60003560005260203560205260403560405260603560605260406103e86080600060006006624c4b40f26000556103e85160015561040851600255",
                "nonce" : "0x00",
                "storage" : {
                }
            }
        },
        "pre" : {
            "0xa94f5374fce5edbc8e2a8697c15331677e6ebf0b" : {
                "balance" : "0x0de0b6b3a7640000",
                "code" : "0x",
                "nonce" : "0x01",
                "storage" : {
                }
            },
            "0xb94f5374fce5edbc8e2a8697c15331677e6ebf0b" : {
                "balance" : "0x00",
                "code" : "0x60203560205260403560405260603560605260803560805260a03560a05260c03560c05260e03560e052610100356101005261012035610120526101403561014052610160356101605261018035610180526101a0356101a0526101c0356101c0526101e0356101e052610200356102005261022035610220526102403561024052610260356102605261028035610280526102a0356102a0526102c0356102c0526102e0356102e05260206103e86000356020600060086207a120f26000556103e851600155",
                "nonce" : "0x00",
                "storage" : {
                }
            },
            "0xc94f5374fce5edbc8e2a8697c15331677e6ebf0b" : {
                "balance" : "0x00",
                "code" : "0x6000356000526020356020527f30644e72e131a029b85045b68181585d2833e84879b9709143e1f593f000000060405260406103e86060600060006007624c4b40f26000556103e85160015561040851600255",
                "nonce" : "0x00",
                "storage" : {
                }
            },
            "0xd94f5374fce5edbc8e2a8697c15331677e6ebf0b" : {
                "balance" : "0x00",
                "code" : "0x60003560005260203560205260403560405260603560605260406103e86080600060006006624c4b40f26000556103e85160015561040851600255",
                "nonce" : "0x00",
                "storage" : {
                }
            }
        },
        "sealEngine" : "NoProof"
    },
    "pairingTest_d0g1v0_ConstantinopleFix" : {
        "_info" : {
            "comment" : "",
            "filledwith" : "testeth 1.7.0-alpha.1-20+commit.782a7283",
            "lllcversion" : "Version: 0.5.0-develop.2018.11.9+commit.9709dfe0.Linux.g++",
            "source" : "src/BlockchainTestsFiller/GeneralStateTests/stZeroKnowledge/pairingTest_d0g1v0Filler.json",
            "sourceHash" : "aa8a532e48d9c2229013c5a4264a1bd38df27f954255e82caa63a8808c35a21a"
        },
        "blocks" : [
            {
                "blockHeader" : {
                    "bloom" : "0x00000000000000000000000000000000000000000000000000000000000000000000000000000000000000000000000000000000000000000000000000000000000000000000000000000000000000000000000000000000000000000000000000000000000000000000000000000000000000000000000000000000000000000000000000000000000000000000000000000000000000000000000000000000000000000000000000000000000000000000000000000000000000000000000000000000000000000000000000000000000000000000000000000000000000000000000000000000000000000000000000000000000000000000000000000000",
                    "coinbase" : "0x68795c4aa09d6f4ed3e5deddf8c2ad3049a601da",
                    "difficulty" : "0x020000",
                    "extraData" : "0x",
                    "gasLimit" : "0xd5ce6f",
                    "gasUsed" : "0x015f90",
                    "hash" : "0x40c803f1c78821c0306be83653fa3a5a2f4f6f73949f2e4cdaa5c7dba02502ff",
                    "mixHash" : "0x0000000000000000000000000000000000000000000000000000000000000000",
                    "nonce" : "0x0000000000000000",
                    "number" : "0x01",
                    "parentHash" : "0x92fdbb1579b834d62b5fd29f9770bbe616d7fb9ac28a27b7fa9524572b58f4cf",
                    "receiptTrie" : "0x22140012d7300d5a027646b3c3f97683d4af689c0ab818cf01a532204bcb4a59",
                    "stateRoot" : "0x485f129acccb3848de7fda01416999352b76a5a777b2ec544a2a590ab22a23fc",
                    "timestamp" : "0x03e8",
                    "transactionsTrie" : "0x30fb3ad195f53191be0692b7e2f6a08d523de8294990d1164a4b2f4dea200ea6",
                    "uncleHash" : "0x1dcc4de8dec75d7aab85b567b6ccd41ad312451b948a7413f0a142fd40d49347"
                },
                "rlp" : "0xf90404f901f8a092fdbb1579b834d62b5fd29f9770bbe616d7fb9ac28a27b7fa9524572b58f4cfa01dcc4de8dec75d7aab85b567b6ccd41ad312451b948a7413f0a142fd40d493479468795c4aa09d6f4ed3e5deddf8c2ad3049a601daa0485f129acccb3848de7fda01416999352b76a5a777b2ec544a2a590ab22a23fca030fb3ad195f53191be0692b7e2f6a08d523de8294990d1164a4b2f4dea200ea6a022140012d7300d5a027646b3c3f97683d4af689c0ab818cf01a532204bcb4a59b9010000000000000000000000000000000000000000000000000000000000000000000000000000000000000000000000000000000000000000000000000000000000000000000000000000000000000000000000000000000000000000000000000000000000000000000000000000000000000000000000000000000000000000000000000000000000000000000000000000000000000000000000000000000000000000000000000000000000000000000000000000000000000000000000000000000000000000000000000000000000000000000000000000000000000000000000000000000000000000000000000000000000000000000000000000000000830200000183d5ce6f83015f908203e880a00000000000000000000000000000000000000000000000000000000000000000880000000000000000f90205f90202010183015f9094b94f5374fce5edbc8e2a8697c15331677e6ebf0b80b901a000000000000000000000000000000000000000000000000000000000000001801c76476f4def4bb94541d57ebba1193381ffa7aa76ada664dd31c16024c43f593034dd2920f673e204fee2811c678745fc819b55d3e9d294e45c9b03a76aef41209dd15ebff5d46c4bd888e51a93cf99a7329636c63514396b4a452003a35bf704bf11ca01483bfa8b34b43561848d28905960114c8ac04049af4b6315a416782bb8324af6cfc93537a2ad1a445cfd0ca2a71acd7ac41fadbf933c2a51be344d120a2a4cf30c1bf9845f20c6fe39e07ea2cce61f0c9bb048165fe5e4de877550111e129f1cf1097710d41c4ac70fcdfa5ba2023c6ff1cbeac322de49d1b6df7c2032c61a830e3c17286de9462bf242fca2883585b93870a73853face6a6bf411198e9393920d483a7260bfb731fb5d25f1aa493335a9e71297e485b7aef312c21800deef121f1e76426a00665e5c4479674322d4f75edadd46debd5cd992f6ed090689d0585ff075ec9e99ad690c3395bc4b313370b38ef355acdadcd122975b12c85ea5db8c6deb4aab71808dcb408fe3d1e7690c43d37b4ce6cc0166fa7daa1ba07eac3a4c1ecd39c700eb86fce6f5f17dc81deb92f3433b21414b924f6e78e6aea049cde7ab58c7dd48558f69396a334838243af049d61de8748c39c2b42bc8849ec0",
                "transactions" : [
                    {
                        "data" : "0x00000000000000000000000000000000000000000000000000000000000001801c76476f4def4bb94541d57ebba1193381ffa7aa76ada664dd31c16024c43f593034dd2920f673e204fee2811c678745fc819b55d3e9d294e45c9b03a76aef41209dd15ebff5d46c4bd888e51a93cf99a7329636c63514396b4a452003a35bf704bf11ca01483bfa8b34b43561848d28905960114c8ac04049af4b6315a416782bb8324af6cfc93537a2ad1a445cfd0ca2a71acd7ac41fadbf933c2a51be344d120a2a4cf30c1bf9845f20c6fe39e07ea2cce61f0c9bb048165fe5e4de877550111e129f1cf1097710d41c4ac70fcdfa5ba2023c6ff1cbeac322de49d1b6df7c2032c61a830e3c17286de9462bf242fca2883585b93870a73853face6a6bf411198e9393920d483a7260bfb731fb5d25f1aa493335a9e71297e485b7aef312c21800deef121f1e76426a00665e5c4479674322d4f75edadd46debd5cd992f6ed090689d0585ff075ec9e99ad690c3395bc4b313370b38ef355acdadcd122975b12c85ea5db8c6deb4aab71808dcb408fe3d1e7690c43d37b4ce6cc0166fa7daa",
                        "gasLimit" : "0x015f90",
                        "gasPrice" : "0x01",
                        "nonce" : "0x01",
                        "r" : "0x7eac3a4c1ecd39c700eb86fce6f5f17dc81deb92f3433b21414b924f6e78e6ae",
                        "s" : "0x49cde7ab58c7dd48558f69396a334838243af049d61de8748c39c2b42bc8849e",
                        "to" : "0xb94f5374fce5edbc8e2a8697c15331677e6ebf0b",
                        "v" : "0x1b",
                        "value" : "0x00"
                    }
                ],
                "uncleHeaders" : [
                ]
            }
        ],
        "genesisBlockHeader" : {
            "bloom" : "0x00000000000000000000000000000000000000000000000000000000000000000000000000000000000000000000000000000000000000000000000000000000000000000000000000000000000000000000000000000000000000000000000000000000000000000000000000000000000000000000000000000000000000000000000000000000000000000000000000000000000000000000000000000000000000000000000000000000000000000000000000000000000000000000000000000000000000000000000000000000000000000000000000000000000000000000000000000000000000000000000000000000000000000000000000000000",
            "coinbase" : "0x68795c4aa09d6f4ed3e5deddf8c2ad3049a601da",
            "difficulty" : "0x020000",
            "extraData" : "0x42",
            "gasLimit" : "0xd5ce6f",
            "gasUsed" : "0x00",
            "hash" : "0x92fdbb1579b834d62b5fd29f9770bbe616d7fb9ac28a27b7fa9524572b58f4cf",
            "mixHash" : "0x56e81f171bcc55a6ff8345e692c0f86e5b48e01b996cadc001622fb5e363b421",
            "nonce" : "0x0102030405060708",
            "number" : "0x00",
            "parentHash" : "0x0000000000000000000000000000000000000000000000000000000000000000",
            "receiptTrie" : "0x56e81f171bcc55a6ff8345e692c0f86e5b48e01b996cadc001622fb5e363b421",
            "stateRoot" : "0xa58f7365e4f5906e2945541429243a587e9d55bc47a4ea9e4757e58a78d45ac9",
            "timestamp" : "0x03b6",
            "transactionsTrie" : "0x56e81f171bcc55a6ff8345e692c0f86e5b48e01b996cadc001622fb5e363b421",
            "uncleHash" : "0x1dcc4de8dec75d7aab85b567b6ccd41ad312451b948a7413f0a142fd40d49347"
        },
        "genesisRLP" : "0xf901faf901f5a00000000000000000000000000000000000000000000000000000000000000000a01dcc4de8dec75d7aab85b567b6ccd41ad312451b948a7413f0a142fd40d493479468795c4aa09d6f4ed3e5deddf8c2ad3049a601daa0a58f7365e4f5906e2945541429243a587e9d55bc47a4ea9e4757e58a78d45ac9a056e81f171bcc55a6ff8345e692c0f86e5b48e01b996cadc001622fb5e363b421a056e81f171bcc55a6ff8345e692c0f86e5b48e01b996cadc001622fb5e363b421b9010000000000000000000000000000000000000000000000000000000000000000000000000000000000000000000000000000000000000000000000000000000000000000000000000000000000000000000000000000000000000000000000000000000000000000000000000000000000000000000000000000000000000000000000000000000000000000000000000000000000000000000000000000000000000000000000000000000000000000000000000000000000000000000000000000000000000000000000000000000000000000000000000000000000000000000000000000000000000000000000000000000000000000000000000000000000830200008083d5ce6f808203b642a056e81f171bcc55a6ff8345e692c0f86e5b48e01b996cadc001622fb5e363b421880102030405060708c0c0",
        "lastblockhash" : "0x40c803f1c78821c0306be83653fa3a5a2f4f6f73949f2e4cdaa5c7dba02502ff",
        "network" : "ConstantinopleFix",
        "postState" : {
            "0x68795c4aa09d6f4ed3e5deddf8c2ad3049a601da" : {
                "balance" : "0x1bc16d674ec95f90",
                "code" : "0x",
                "nonce" : "0x00",
                "storage" : {
                }
            },
            "0xa94f5374fce5edbc8e2a8697c15331677e6ebf0b" : {
                "balance" : "0x0de0b6b3a762a070",
                "code" : "0x",
                "nonce" : "0x02",
                "storage" : {
                }
            },
            "0xb94f5374fce5edbc8e2a8697c15331677e6ebf0b" : {
                "balance" : "0x00",
                "code" : "0x60203560205260403560405260603560605260803560805260a03560a05260c03560c05260e03560e052610100356101005261012035610120526101403561014052610160356101605261018035610180526101a0356101a0526101c0356101c0526101e0356101e052610200356102005261022035610220526102403561024052610260356102605261028035610280526102a0356102a0526102c0356102c0526102e0356102e05260206103e86000356020600060086207a120f26000556103e851600155",
                "nonce" : "0x00",
                "storage" : {
                }
            },
            "0xc94f5374fce5edbc8e2a8697c15331677e6ebf0b" : {
                "balance" : "0x00",
                "code" : "0x6000356000526020356020527f30644e72e131a029b85045b68181585d2833e84879b9709143e1f593f000000060405260406103e86060600060006007624c4b40f26000556103e85160015561040851600255",
                "nonce" : "0x00",
                "storage" : {
                }
            },
            "0xd94f5374fce5edbc8e2a8697c15331677e6ebf0b" : {
                "balance" : "0x00",
                "code" : "0x60003560005260203560205260403560405260603560605260406103e86080600060006006624c4b40f26000556103e85160015561040851600255",
                "nonce" : "0x00",
                "storage" : {
                }
            }
        },
        "pre" : {
            "0xa94f5374fce5edbc8e2a8697c15331677e6ebf0b" : {
                "balance" : "0x0de0b6b3a7640000",
                "code" : "0x",
                "nonce" : "0x01",
                "storage" : {
                }
            },
            "0xb94f5374fce5edbc8e2a8697c15331677e6ebf0b" : {
                "balance" : "0x00",
                "code" : "0x60203560205260403560405260603560605260803560805260a03560a05260c03560c05260e03560e052610100356101005261012035610120526101403561014052610160356101605261018035610180526101a0356101a0526101c0356101c0526101e0356101e052610200356102005261022035610220526102403561024052610260356102605261028035610280526102a0356102a0526102c0356102c0526102e0356102e05260206103e86000356020600060086207a120f26000556103e851600155",
                "nonce" : "0x00",
                "storage" : {
                }
            },
            "0xc94f5374fce5edbc8e2a8697c15331677e6ebf0b" : {
                "balance" : "0x00",
                "code" : "0x6000356000526020356020527f30644e72e131a029b85045b68181585d2833e84879b9709143e1f593f000000060405260406103e86060600060006007624c4b40f26000556103e85160015561040851600255",
                "nonce" : "0x00",
                "storage" : {
                }
            },
            "0xd94f5374fce5edbc8e2a8697c15331677e6ebf0b" : {
                "balance" : "0x00",
                "code" : "0x60003560005260203560205260403560405260603560605260406103e86080600060006006624c4b40f26000556103e85160015561040851600255",
                "nonce" : "0x00",
                "storage" : {
                }
            }
        },
        "sealEngine" : "NoProof"
    },
    "pairingTest_d0g1v0_Homestead" : {
        "_info" : {
            "comment" : "",
            "filledwith" : "testeth 1.7.0-alpha.1-20+commit.782a7283",
            "lllcversion" : "Version: 0.5.0-develop.2018.11.9+commit.9709dfe0.Linux.g++",
            "source" : "src/BlockchainTestsFiller/GeneralStateTests/stZeroKnowledge/pairingTest_d0g1v0Filler.json",
            "sourceHash" : "aa8a532e48d9c2229013c5a4264a1bd38df27f954255e82caa63a8808c35a21a"
        },
        "blocks" : [
            {
                "blockHeader" : {
                    "bloom" : "0x00000000000000000000000000000000000000000000000000000000000000000000000000000000000000000000000000000000000000000000000000000000000000000000000000000000000000000000000000000000000000000000000000000000000000000000000000000000000000000000000000000000000000000000000000000000000000000000000000000000000000000000000000000000000000000000000000000000000000000000000000000000000000000000000000000000000000000000000000000000000000000000000000000000000000000000000000000000000000000000000000000000000000000000000000000000",
                    "coinbase" : "0x68795c4aa09d6f4ed3e5deddf8c2ad3049a601da",
                    "difficulty" : "0x020000",
                    "extraData" : "0x",
                    "gasLimit" : "0xd5ce6f",
                    "gasUsed" : "0x015f90",
                    "hash" : "0xff19f2b394722d2583b3dafde45bd11ee63c3e19da6eb8831a730035a6271c64",
                    "mixHash" : "0x0000000000000000000000000000000000000000000000000000000000000000",
                    "nonce" : "0x0000000000000000",
                    "number" : "0x01",
                    "parentHash" : "0x92fdbb1579b834d62b5fd29f9770bbe616d7fb9ac28a27b7fa9524572b58f4cf",
                    "receiptTrie" : "0xdbfef68d7ae9d0ebe4b05510ccffe78f3c9054ef2d0524cf141a7d5a2ff485c8",
                    "stateRoot" : "0xfd8488bea26daaa0e9d11173ebbc8f5ce2ee9e10639fbc5a208c49fad0faf14c",
                    "timestamp" : "0x03e8",
                    "transactionsTrie" : "0x30fb3ad195f53191be0692b7e2f6a08d523de8294990d1164a4b2f4dea200ea6",
                    "uncleHash" : "0x1dcc4de8dec75d7aab85b567b6ccd41ad312451b948a7413f0a142fd40d49347"
                },
                "rlp" : "0xf90404f901f8a092fdbb1579b834d62b5fd29f9770bbe616d7fb9ac28a27b7fa9524572b58f4cfa01dcc4de8dec75d7aab85b567b6ccd41ad312451b948a7413f0a142fd40d493479468795c4aa09d6f4ed3e5deddf8c2ad3049a601daa0fd8488bea26daaa0e9d11173ebbc8f5ce2ee9e10639fbc5a208c49fad0faf14ca030fb3ad195f53191be0692b7e2f6a08d523de8294990d1164a4b2f4dea200ea6a0dbfef68d7ae9d0ebe4b05510ccffe78f3c9054ef2d0524cf141a7d5a2ff485c8b9010000000000000000000000000000000000000000000000000000000000000000000000000000000000000000000000000000000000000000000000000000000000000000000000000000000000000000000000000000000000000000000000000000000000000000000000000000000000000000000000000000000000000000000000000000000000000000000000000000000000000000000000000000000000000000000000000000000000000000000000000000000000000000000000000000000000000000000000000000000000000000000000000000000000000000000000000000000000000000000000000000000000000000000000000000000000830200000183d5ce6f83015f908203e880a00000000000000000000000000000000000000000000000000000000000000000880000000000000000f90205f90202010183015f9094b94f5374fce5edbc8e2a8697c15331677e6ebf0b80b901a000000000000000000000000000000000000000000000000000000000000001801c76476f4def4bb94541d57ebba1193381ffa7aa76ada664dd31c16024c43f593034dd2920f673e204fee2811c678745fc819b55d3e9d294e45c9b03a76aef41209dd15ebff5d46c4bd888e51a93cf99a7329636c63514396b4a452003a35bf704bf11ca01483bfa8b34b43561848d28905960114c8ac04049af4b6315a416782bb8324af6cfc93537a2ad1a445cfd0ca2a71acd7ac41fadbf933c2a51be344d120a2a4cf30c1bf9845f20c6fe39e07ea2cce61f0c9bb048165fe5e4de877550111e129f1cf1097710d41c4ac70fcdfa5ba2023c6ff1cbeac322de49d1b6df7c2032c61a830e3c17286de9462bf242fca2883585b93870a73853face6a6bf411198e9393920d483a7260bfb731fb5d25f1aa493335a9e71297e485b7aef312c21800deef121f1e76426a00665e5c4479674322d4f75edadd46debd5cd992f6ed090689d0585ff075ec9e99ad690c3395bc4b313370b38ef355acdadcd122975b12c85ea5db8c6deb4aab71808dcb408fe3d1e7690c43d37b4ce6cc0166fa7daa1ba07eac3a4c1ecd39c700eb86fce6f5f17dc81deb92f3433b21414b924f6e78e6aea049cde7ab58c7dd48558f69396a334838243af049d61de8748c39c2b42bc8849ec0",
                "transactions" : [
                    {
                        "data" : "0x00000000000000000000000000000000000000000000000000000000000001801c76476f4def4bb94541d57ebba1193381ffa7aa76ada664dd31c16024c43f593034dd2920f673e204fee2811c678745fc819b55d3e9d294e45c9b03a76aef41209dd15ebff5d46c4bd888e51a93cf99a7329636c63514396b4a452003a35bf704bf11ca01483bfa8b34b43561848d28905960114c8ac04049af4b6315a416782bb8324af6cfc93537a2ad1a445cfd0ca2a71acd7ac41fadbf933c2a51be344d120a2a4cf30c1bf9845f20c6fe39e07ea2cce61f0c9bb048165fe5e4de877550111e129f1cf1097710d41c4ac70fcdfa5ba2023c6ff1cbeac322de49d1b6df7c2032c61a830e3c17286de9462bf242fca2883585b93870a73853face6a6bf411198e9393920d483a7260bfb731fb5d25f1aa493335a9e71297e485b7aef312c21800deef121f1e76426a00665e5c4479674322d4f75edadd46debd5cd992f6ed090689d0585ff075ec9e99ad690c3395bc4b313370b38ef355acdadcd122975b12c85ea5db8c6deb4aab71808dcb408fe3d1e7690c43d37b4ce6cc0166fa7daa",
                        "gasLimit" : "0x015f90",
                        "gasPrice" : "0x01",
                        "nonce" : "0x01",
                        "r" : "0x7eac3a4c1ecd39c700eb86fce6f5f17dc81deb92f3433b21414b924f6e78e6ae",
                        "s" : "0x49cde7ab58c7dd48558f69396a334838243af049d61de8748c39c2b42bc8849e",
                        "to" : "0xb94f5374fce5edbc8e2a8697c15331677e6ebf0b",
                        "v" : "0x1b",
                        "value" : "0x00"
                    }
                ],
                "uncleHeaders" : [
                ]
            }
        ],
        "genesisBlockHeader" : {
            "bloom" : "0x00000000000000000000000000000000000000000000000000000000000000000000000000000000000000000000000000000000000000000000000000000000000000000000000000000000000000000000000000000000000000000000000000000000000000000000000000000000000000000000000000000000000000000000000000000000000000000000000000000000000000000000000000000000000000000000000000000000000000000000000000000000000000000000000000000000000000000000000000000000000000000000000000000000000000000000000000000000000000000000000000000000000000000000000000000000",
            "coinbase" : "0x68795c4aa09d6f4ed3e5deddf8c2ad3049a601da",
            "difficulty" : "0x020000",
            "extraData" : "0x42",
            "gasLimit" : "0xd5ce6f",
            "gasUsed" : "0x00",
            "hash" : "0x92fdbb1579b834d62b5fd29f9770bbe616d7fb9ac28a27b7fa9524572b58f4cf",
            "mixHash" : "0x56e81f171bcc55a6ff8345e692c0f86e5b48e01b996cadc001622fb5e363b421",
            "nonce" : "0x0102030405060708",
            "number" : "0x00",
            "parentHash" : "0x0000000000000000000000000000000000000000000000000000000000000000",
            "receiptTrie" : "0x56e81f171bcc55a6ff8345e692c0f86e5b48e01b996cadc001622fb5e363b421",
            "stateRoot" : "0xa58f7365e4f5906e2945541429243a587e9d55bc47a4ea9e4757e58a78d45ac9",
            "timestamp" : "0x03b6",
            "transactionsTrie" : "0x56e81f171bcc55a6ff8345e692c0f86e5b48e01b996cadc001622fb5e363b421",
            "uncleHash" : "0x1dcc4de8dec75d7aab85b567b6ccd41ad312451b948a7413f0a142fd40d49347"
        },
        "genesisRLP" : "0xf901faf901f5a00000000000000000000000000000000000000000000000000000000000000000a01dcc4de8dec75d7aab85b567b6ccd41ad312451b948a7413f0a142fd40d493479468795c4aa09d6f4ed3e5deddf8c2ad3049a601daa0a58f7365e4f5906e2945541429243a587e9d55bc47a4ea9e4757e58a78d45ac9a056e81f171bcc55a6ff8345e692c0f86e5b48e01b996cadc001622fb5e363b421a056e81f171bcc55a6ff8345e692c0f86e5b48e01b996cadc001622fb5e363b421b9010000000000000000000000000000000000000000000000000000000000000000000000000000000000000000000000000000000000000000000000000000000000000000000000000000000000000000000000000000000000000000000000000000000000000000000000000000000000000000000000000000000000000000000000000000000000000000000000000000000000000000000000000000000000000000000000000000000000000000000000000000000000000000000000000000000000000000000000000000000000000000000000000000000000000000000000000000000000000000000000000000000000000000000000000000000000830200008083d5ce6f808203b642a056e81f171bcc55a6ff8345e692c0f86e5b48e01b996cadc001622fb5e363b421880102030405060708c0c0",
        "lastblockhash" : "0xff19f2b394722d2583b3dafde45bd11ee63c3e19da6eb8831a730035a6271c64",
        "network" : "Homestead",
        "postState" : {
            "0x68795c4aa09d6f4ed3e5deddf8c2ad3049a601da" : {
                "balance" : "0x4563918244f55f90",
                "code" : "0x",
                "nonce" : "0x00",
                "storage" : {
                }
            },
            "0xa94f5374fce5edbc8e2a8697c15331677e6ebf0b" : {
                "balance" : "0x0de0b6b3a762a070",
                "code" : "0x",
                "nonce" : "0x02",
                "storage" : {
                }
            },
            "0xb94f5374fce5edbc8e2a8697c15331677e6ebf0b" : {
                "balance" : "0x00",
                "code" : "0x60203560205260403560405260603560605260803560805260a03560a05260c03560c05260e03560e052610100356101005261012035610120526101403561014052610160356101605261018035610180526101a0356101a0526101c0356101c0526101e0356101e052610200356102005261022035610220526102403561024052610260356102605261028035610280526102a0356102a0526102c0356102c0526102e0356102e05260206103e86000356020600060086207a120f26000556103e851600155",
                "nonce" : "0x00",
                "storage" : {
                }
            },
            "0xc94f5374fce5edbc8e2a8697c15331677e6ebf0b" : {
                "balance" : "0x00",
                "code" : "0x6000356000526020356020527f30644e72e131a029b85045b68181585d2833e84879b9709143e1f593f000000060405260406103e86060600060006007624c4b40f26000556103e85160015561040851600255",
                "nonce" : "0x00",
                "storage" : {
                }
            },
            "0xd94f5374fce5edbc8e2a8697c15331677e6ebf0b" : {
                "balance" : "0x00",
                "code" : "0x60003560005260203560205260403560405260603560605260406103e86080600060006006624c4b40f26000556103e85160015561040851600255",
                "nonce" : "0x00",
                "storage" : {
                }
            }
        },
        "pre" : {
            "0xa94f5374fce5edbc8e2a8697c15331677e6ebf0b" : {
                "balance" : "0x0de0b6b3a7640000",
                "code" : "0x",
                "nonce" : "0x01",
                "storage" : {
                }
            },
            "0xb94f5374fce5edbc8e2a8697c15331677e6ebf0b" : {
                "balance" : "0x00",
                "code" : "0x60203560205260403560405260603560605260803560805260a03560a05260c03560c05260e03560e052610100356101005261012035610120526101403561014052610160356101605261018035610180526101a0356101a0526101c0356101c0526101e0356101e052610200356102005261022035610220526102403561024052610260356102605261028035610280526102a0356102a0526102c0356102c0526102e0356102e05260206103e86000356020600060086207a120f26000556103e851600155",
                "nonce" : "0x00",
                "storage" : {
                }
            },
            "0xc94f5374fce5edbc8e2a8697c15331677e6ebf0b" : {
                "balance" : "0x00",
                "code" : "0x6000356000526020356020527f30644e72e131a029b85045b68181585d2833e84879b9709143e1f593f000000060405260406103e86060600060006007624c4b40f26000556103e85160015561040851600255",
                "nonce" : "0x00",
                "storage" : {
                }
            },
            "0xd94f5374fce5edbc8e2a8697c15331677e6ebf0b" : {
                "balance" : "0x00",
                "code" : "0x60003560005260203560205260403560405260603560605260406103e86080600060006006624c4b40f26000556103e85160015561040851600255",
                "nonce" : "0x00",
                "storage" : {
                }
            }
        },
        "sealEngine" : "NoProof"
    }
}