{
    "pointMulAdd2_d1g1v0_Byzantium" : {
        "_info" : {
            "comment" : "",
            "filledwith" : "testeth 1.7.0-alpha.1-20+commit.782a7283",
            "lllcversion" : "Version: 0.5.0-develop.2018.11.9+commit.9709dfe0.Linux.g++",
            "source" : "src/BlockchainTestsFiller/GeneralStateTests/stZeroKnowledge/pointMulAdd2_d1g1v0Filler.json",
            "sourceHash" : "9727fb3f49d2f8e2916d6efd998d668ce32f491b1bb274086d292e6b812fd30d"
        },
        "blocks" : [
            {
                "blockHeader" : {
                    "bloom" : "0x00000000000000000000000000000000000000000000000000000000000000000000000000000000000000000000000000000000000000000000000000000000000000000000000000000000000000000000000000000000000000000000000000000000000000000000000000000000000000000000000000000000000000000000000000000000000000000000000000000000000000000000000000000000000000000000000000000000000000000000000000000000000000000000000000000000000000000000000000000000000000000000000000000000000000000000000000000000000000000000000000000000000000000000000000000000",
                    "coinbase" : "0x68795c4aa09d6f4ed3e5deddf8c2ad3049a601da",
                    "difficulty" : "0x020000",
                    "extraData" : "0x",
                    "gasLimit" : "0x3d37ef",
                    "gasUsed" : "0x015f90",
                    "hash" : "0x1890feddfa9c57e1766f109642393c1c471ed26cd51a84caf8d6ad0ea768b9cc",
                    "mixHash" : "0x0000000000000000000000000000000000000000000000000000000000000000",
                    "nonce" : "0x0000000000000000",
                    "number" : "0x01",
                    "parentHash" : "0x9b25016c45ce0e295a463681361471a29c00aea06cba17cbc22894ce6d2c1def",
                    "receiptTrie" : "0x22140012d7300d5a027646b3c3f97683d4af689c0ab818cf01a532204bcb4a59",
                    "stateRoot" : "0x7dd3f92c2e61bc5ad94852df60ae0a519b1387b05ab262bd3fdc47219b24aab9",
                    "timestamp" : "0x03e8",
                    "transactionsTrie" : "0x6727fec807710b5069d92fb34eb00238a42624ae9bb710ab254e4408de02f817",
                    "uncleHash" : "0x1dcc4de8dec75d7aab85b567b6ccd41ad312451b948a7413f0a142fd40d49347"
                },
                "rlp" : "0xf90343f901f8a09b25016c45ce0e295a463681361471a29c00aea06cba17cbc22894ce6d2c1defa01dcc4de8dec75d7aab85b567b6ccd41ad312451b948a7413f0a142fd40d493479468795c4aa09d6f4ed3e5deddf8c2ad3049a601daa07dd3f92c2e61bc5ad94852df60ae0a519b1387b05ab262bd3fdc47219b24aab9a06727fec807710b5069d92fb34eb00238a42624ae9bb710ab254e4408de02f817a022140012d7300d5a027646b3c3f97683d4af689c0ab818cf01a532204bcb4a59b90100000000000000000000000000000000000000000000000000000000000000000000000000000000000000000000000000000000000000000000000000000000000000000000000000000000000000000000000000000000000000000000000000000000000000000000000000000000000000000000000000000000000000000000000000000000000000000000000000000000000000000000000000000000000000000000000000000000000000000000000000000000000000000000000000000000000000000000000000000000000000000000000000000000000000000000000000000000000000000000000000000000000000000000000000000000008302000001833d37ef83015f908203e880a00000000000000000000000000000000000000000000000000000000000000000880000000000000000f90144f90141010183015f9094b94f5374fce5edbc8e2a8697c15331677e6ebf0b80b8e000000000000000000000000000000000000000000000000000000000000000000000000000000000000000000000000000000000000000000000000000000000000000000000000000000000000000000000000000000000000000000000000000000000000000000000000000000000000000000000000000000000000000000000000000000000000000000000000000000000000000000000000000000000000000000000000000000000000000000000000000000000000000000000000000000000000000000000000000000000000000000000000000000000000000031ba064a582894e695ba560b2f67cb4693355036e47657de3a090bf0a5cf7d516c433a027ae81ef8e1fbd11200a3f27a516b7db589192810792ae39fe62b3db175a9842c0",
                "transactions" : [
                    {
                        "data" : "0x0000000000000000000000000000000000000000000000000000000000000000000000000000000000000000000000000000000000000000000000000000000000000000000000000000000000000000000000000000000000000000000000000000000000000000000000000000000000000000000000000000000000000000000000000000000000000000000000000000000000000000000000000000000000000000000000000000000000000000000000000000000000000000000000000000000000000000000000000000000000000000000000000000000000000003",
                        "gasLimit" : "0x015f90",
                        "gasPrice" : "0x01",
                        "nonce" : "0x01",
                        "r" : "0x64a582894e695ba560b2f67cb4693355036e47657de3a090bf0a5cf7d516c433",
                        "s" : "0x27ae81ef8e1fbd11200a3f27a516b7db589192810792ae39fe62b3db175a9842",
                        "to" : "0xb94f5374fce5edbc8e2a8697c15331677e6ebf0b",
                        "v" : "0x1b",
                        "value" : "0x00"
                    }
                ],
                "uncleHeaders" : [
                ]
            }
        ],
        "genesisBlockHeader" : {
            "bloom" : "0x00000000000000000000000000000000000000000000000000000000000000000000000000000000000000000000000000000000000000000000000000000000000000000000000000000000000000000000000000000000000000000000000000000000000000000000000000000000000000000000000000000000000000000000000000000000000000000000000000000000000000000000000000000000000000000000000000000000000000000000000000000000000000000000000000000000000000000000000000000000000000000000000000000000000000000000000000000000000000000000000000000000000000000000000000000000",
            "coinbase" : "0x68795c4aa09d6f4ed3e5deddf8c2ad3049a601da",
            "difficulty" : "0x020000",
            "extraData" : "0x42",
            "gasLimit" : "0x3d37ef",
            "gasUsed" : "0x00",
            "hash" : "0x9b25016c45ce0e295a463681361471a29c00aea06cba17cbc22894ce6d2c1def",
            "mixHash" : "0x56e81f171bcc55a6ff8345e692c0f86e5b48e01b996cadc001622fb5e363b421",
            "nonce" : "0x0102030405060708",
            "number" : "0x00",
            "parentHash" : "0x0000000000000000000000000000000000000000000000000000000000000000",
            "receiptTrie" : "0x56e81f171bcc55a6ff8345e692c0f86e5b48e01b996cadc001622fb5e363b421",
            "stateRoot" : "0xa4db92ceb60668ffcb9642d55fa7fe34cc341b53029d31394d82f0c61462bd99",
            "timestamp" : "0x03b6",
            "transactionsTrie" : "0x56e81f171bcc55a6ff8345e692c0f86e5b48e01b996cadc001622fb5e363b421",
            "uncleHash" : "0x1dcc4de8dec75d7aab85b567b6ccd41ad312451b948a7413f0a142fd40d49347"
        },
        "genesisRLP" : "0xf901faf901f5a00000000000000000000000000000000000000000000000000000000000000000a01dcc4de8dec75d7aab85b567b6ccd41ad312451b948a7413f0a142fd40d493479468795c4aa09d6f4ed3e5deddf8c2ad3049a601daa0a4db92ceb60668ffcb9642d55fa7fe34cc341b53029d31394d82f0c61462bd99a056e81f171bcc55a6ff8345e692c0f86e5b48e01b996cadc001622fb5e363b421a056e81f171bcc55a6ff8345e692c0f86e5b48e01b996cadc001622fb5e363b421b90100000000000000000000000000000000000000000000000000000000000000000000000000000000000000000000000000000000000000000000000000000000000000000000000000000000000000000000000000000000000000000000000000000000000000000000000000000000000000000000000000000000000000000000000000000000000000000000000000000000000000000000000000000000000000000000000000000000000000000000000000000000000000000000000000000000000000000000000000000000000000000000000000000000000000000000000000000000000000000000000000000000000000000000000000000000008302000080833d37ef808203b642a056e81f171bcc55a6ff8345e692c0f86e5b48e01b996cadc001622fb5e363b421880102030405060708c0c0",
        "lastblockhash" : "0x1890feddfa9c57e1766f109642393c1c471ed26cd51a84caf8d6ad0ea768b9cc",
        "network" : "Byzantium",
        "postState" : {
            "0x68795c4aa09d6f4ed3e5deddf8c2ad3049a601da" : {
                "balance" : "0x29a2241af62d5f90",
                "code" : "0x",
                "nonce" : "0x00",
                "storage" : {
                }
            },
            "0xa94f5374fce5edbc8e2a8697c15331677e6ebf0b" : {
                "balance" : "0x0de0b6b3a762a070",
                "code" : "0x",
                "nonce" : "0x02",
                "storage" : {
                }
            },
            "0xb94f5374fce5edbc8e2a8697c15331677e6ebf0b" : {
                "balance" : "0x00",
                "code" : "0x60003560005260203560205260403560405260603560605260803560805260a03560a05260c03560c052604061012c60806000600060066207a120f2600055604061019060606080600060076207a120f260015561012c51600a5561014c51600b55610190516014556101b051601555601454600a5414600255601554600b5414600355",
                "nonce" : "0x00",
                "storage" : {
                }
            }
        },
        "pre" : {
            "0xa94f5374fce5edbc8e2a8697c15331677e6ebf0b" : {
                "balance" : "0x0de0b6b3a7640000",
                "code" : "0x",
                "nonce" : "0x01",
                "storage" : {
                }
            },
            "0xb94f5374fce5edbc8e2a8697c15331677e6ebf0b" : {
                "balance" : "0x00",
                "code" : "0x60003560005260203560205260403560405260603560605260803560805260a03560a05260c03560c052604061012c60806000600060066207a120f2600055604061019060606080600060076207a120f260015561012c51600a5561014c51600b55610190516014556101b051601555601454600a5414600255601554600b5414600355",
                "nonce" : "0x00",
                "storage" : {
                }
            }
        },
        "sealEngine" : "NoProof"
    },
    "pointMulAdd2_d1g1v0_Constantinople" : {
        "_info" : {
            "comment" : "",
            "filledwith" : "testeth 1.7.0-alpha.1-20+commit.782a7283",
            "lllcversion" : "Version: 0.5.0-develop.2018.11.9+commit.9709dfe0.Linux.g++",
            "source" : "src/BlockchainTestsFiller/GeneralStateTests/stZeroKnowledge/pointMulAdd2_d1g1v0Filler.json",
            "sourceHash" : "9727fb3f49d2f8e2916d6efd998d668ce32f491b1bb274086d292e6b812fd30d"
        },
        "blocks" : [
            {
                "blockHeader" : {
                    "bloom" : "0x00000000000000000000000000000000000000000000000000000000000000000000000000000000000000000000000000000000000000000000000000000000000000000000000000000000000000000000000000000000000000000000000000000000000000000000000000000000000000000000000000000000000000000000000000000000000000000000000000000000000000000000000000000000000000000000000000000000000000000000000000000000000000000000000000000000000000000000000000000000000000000000000000000000000000000000000000000000000000000000000000000000000000000000000000000000",
                    "coinbase" : "0x68795c4aa09d6f4ed3e5deddf8c2ad3049a601da",
                    "difficulty" : "0x020000",
                    "extraData" : "0x",
                    "gasLimit" : "0x3d37ef",
                    "gasUsed" : "0x015f90",
                    "hash" : "0xf058aefc9027966323680c94f53dd88e5a89038d19dd92a92257ba1ed3d51501",
                    "mixHash" : "0x0000000000000000000000000000000000000000000000000000000000000000",
                    "nonce" : "0x0000000000000000",
                    "number" : "0x01",
                    "parentHash" : "0x9b25016c45ce0e295a463681361471a29c00aea06cba17cbc22894ce6d2c1def",
                    "receiptTrie" : "0x22140012d7300d5a027646b3c3f97683d4af689c0ab818cf01a532204bcb4a59",
                    "stateRoot" : "0xc00b85ba6f2b70e3f9aea764a4674f4d9555849455b5e53ce0efc539cbf8ca0f",
                    "timestamp" : "0x03e8",
                    "transactionsTrie" : "0x6727fec807710b5069d92fb34eb00238a42624ae9bb710ab254e4408de02f817",
                    "uncleHash" : "0x1dcc4de8dec75d7aab85b567b6ccd41ad312451b948a7413f0a142fd40d49347"
                },
                "rlp" : "0xf90343f901f8a09b25016c45ce0e295a463681361471a29c00aea06cba17cbc22894ce6d2c1defa01dcc4de8dec75d7aab85b567b6ccd41ad312451b948a7413f0a142fd40d493479468795c4aa09d6f4ed3e5deddf8c2ad3049a601daa0c00b85ba6f2b70e3f9aea764a4674f4d9555849455b5e53ce0efc539cbf8ca0fa06727fec807710b5069d92fb34eb00238a42624ae9bb710ab254e4408de02f817a022140012d7300d5a027646b3c3f97683d4af689c0ab818cf01a532204bcb4a59b90100000000000000000000000000000000000000000000000000000000000000000000000000000000000000000000000000000000000000000000000000000000000000000000000000000000000000000000000000000000000000000000000000000000000000000000000000000000000000000000000000000000000000000000000000000000000000000000000000000000000000000000000000000000000000000000000000000000000000000000000000000000000000000000000000000000000000000000000000000000000000000000000000000000000000000000000000000000000000000000000000000000000000000000000000000000008302000001833d37ef83015f908203e880a00000000000000000000000000000000000000000000000000000000000000000880000000000000000f90144f90141010183015f9094b94f5374fce5edbc8e2a8697c15331677e6ebf0b80b8e000000000000000000000000000000000000000000000000000000000000000000000000000000000000000000000000000000000000000000000000000000000000000000000000000000000000000000000000000000000000000000000000000000000000000000000000000000000000000000000000000000000000000000000000000000000000000000000000000000000000000000000000000000000000000000000000000000000000000000000000000000000000000000000000000000000000000000000000000000000000000000000000000000000000000031ba064a582894e695ba560b2f67cb4693355036e47657de3a090bf0a5cf7d516c433a027ae81ef8e1fbd11200a3f27a516b7db589192810792ae39fe62b3db175a9842c0",
                "transactions" : [
                    {
                        "data" : "0x0000000000000000000000000000000000000000000000000000000000000000000000000000000000000000000000000000000000000000000000000000000000000000000000000000000000000000000000000000000000000000000000000000000000000000000000000000000000000000000000000000000000000000000000000000000000000000000000000000000000000000000000000000000000000000000000000000000000000000000000000000000000000000000000000000000000000000000000000000000000000000000000000000000000000003",
                        "gasLimit" : "0x015f90",
                        "gasPrice" : "0x01",
                        "nonce" : "0x01",
                        "r" : "0x64a582894e695ba560b2f67cb4693355036e47657de3a090bf0a5cf7d516c433",
                        "s" : "0x27ae81ef8e1fbd11200a3f27a516b7db589192810792ae39fe62b3db175a9842",
                        "to" : "0xb94f5374fce5edbc8e2a8697c15331677e6ebf0b",
                        "v" : "0x1b",
                        "value" : "0x00"
                    }
                ],
                "uncleHeaders" : [
                ]
            }
        ],
        "genesisBlockHeader" : {
            "bloom" : "0x00000000000000000000000000000000000000000000000000000000000000000000000000000000000000000000000000000000000000000000000000000000000000000000000000000000000000000000000000000000000000000000000000000000000000000000000000000000000000000000000000000000000000000000000000000000000000000000000000000000000000000000000000000000000000000000000000000000000000000000000000000000000000000000000000000000000000000000000000000000000000000000000000000000000000000000000000000000000000000000000000000000000000000000000000000000",
            "coinbase" : "0x68795c4aa09d6f4ed3e5deddf8c2ad3049a601da",
            "difficulty" : "0x020000",
            "extraData" : "0x42",
            "gasLimit" : "0x3d37ef",
            "gasUsed" : "0x00",
            "hash" : "0x9b25016c45ce0e295a463681361471a29c00aea06cba17cbc22894ce6d2c1def",
            "mixHash" : "0x56e81f171bcc55a6ff8345e692c0f86e5b48e01b996cadc001622fb5e363b421",
            "nonce" : "0x0102030405060708",
            "number" : "0x00",
            "parentHash" : "0x0000000000000000000000000000000000000000000000000000000000000000",
            "receiptTrie" : "0x56e81f171bcc55a6ff8345e692c0f86e5b48e01b996cadc001622fb5e363b421",
            "stateRoot" : "0xa4db92ceb60668ffcb9642d55fa7fe34cc341b53029d31394d82f0c61462bd99",
            "timestamp" : "0x03b6",
            "transactionsTrie" : "0x56e81f171bcc55a6ff8345e692c0f86e5b48e01b996cadc001622fb5e363b421",
            "uncleHash" : "0x1dcc4de8dec75d7aab85b567b6ccd41ad312451b948a7413f0a142fd40d49347"
        },
        "genesisRLP" : "0xf901faf901f5a00000000000000000000000000000000000000000000000000000000000000000a01dcc4de8dec75d7aab85b567b6ccd41ad312451b948a7413f0a142fd40d493479468795c4aa09d6f4ed3e5deddf8c2ad3049a601daa0a4db92ceb60668ffcb9642d55fa7fe34cc341b53029d31394d82f0c61462bd99a056e81f171bcc55a6ff8345e692c0f86e5b48e01b996cadc001622fb5e363b421a056e81f171bcc55a6ff8345e692c0f86e5b48e01b996cadc001622fb5e363b421b90100000000000000000000000000000000000000000000000000000000000000000000000000000000000000000000000000000000000000000000000000000000000000000000000000000000000000000000000000000000000000000000000000000000000000000000000000000000000000000000000000000000000000000000000000000000000000000000000000000000000000000000000000000000000000000000000000000000000000000000000000000000000000000000000000000000000000000000000000000000000000000000000000000000000000000000000000000000000000000000000000000000000000000000000000000000008302000080833d37ef808203b642a056e81f171bcc55a6ff8345e692c0f86e5b48e01b996cadc001622fb5e363b421880102030405060708c0c0",
        "lastblockhash" : "0xf058aefc9027966323680c94f53dd88e5a89038d19dd92a92257ba1ed3d51501",
        "network" : "Constantinople",
        "postState" : {
            "0x68795c4aa09d6f4ed3e5deddf8c2ad3049a601da" : {
                "balance" : "0x1bc16d674ec95f90",
                "code" : "0x",
                "nonce" : "0x00",
                "storage" : {
                }
            },
            "0xa94f5374fce5edbc8e2a8697c15331677e6ebf0b" : {
                "balance" : "0x0de0b6b3a762a070",
                "code" : "0x",
                "nonce" : "0x02",
                "storage" : {
                }
            },
            "0xb94f5374fce5edbc8e2a8697c15331677e6ebf0b" : {
                "balance" : "0x00",
                "code" : "0x60003560005260203560205260403560405260603560605260803560805260a03560a05260c03560c052604061012c60806000600060066207a120f2600055604061019060606080600060076207a120f260015561012c51600a5561014c51600b55610190516014556101b051601555601454600a5414600255601554600b5414600355",
                "nonce" : "0x00",
                "storage" : {
                }
            }
        },
        "pre" : {
            "0xa94f5374fce5edbc8e2a8697c15331677e6ebf0b" : {
                "balance" : "0x0de0b6b3a7640000",
                "code" : "0x",
                "nonce" : "0x01",
                "storage" : {
                }
            },
            "0xb94f5374fce5edbc8e2a8697c15331677e6ebf0b" : {
                "balance" : "0x00",
                "code" : "0x60003560005260203560205260403560405260603560605260803560805260a03560a05260c03560c052604061012c60806000600060066207a120f2600055604061019060606080600060076207a120f260015561012c51600a5561014c51600b55610190516014556101b051601555601454600a5414600255601554600b5414600355",
                "nonce" : "0x00",
                "storage" : {
                }
            }
        },
        "sealEngine" : "NoProof"
    },
    "pointMulAdd2_d1g1v0_ConstantinopleFix" : {
        "_info" : {
            "comment" : "",
            "filledwith" : "testeth 1.7.0-alpha.1-20+commit.782a7283",
            "lllcversion" : "Version: 0.5.0-develop.2018.11.9+commit.9709dfe0.Linux.g++",
            "source" : "src/BlockchainTestsFiller/GeneralStateTests/stZeroKnowledge/pointMulAdd2_d1g1v0Filler.json",
            "sourceHash" : "9727fb3f49d2f8e2916d6efd998d668ce32f491b1bb274086d292e6b812fd30d"
        },
        "blocks" : [
            {
                "blockHeader" : {
                    "bloom" : "0x00000000000000000000000000000000000000000000000000000000000000000000000000000000000000000000000000000000000000000000000000000000000000000000000000000000000000000000000000000000000000000000000000000000000000000000000000000000000000000000000000000000000000000000000000000000000000000000000000000000000000000000000000000000000000000000000000000000000000000000000000000000000000000000000000000000000000000000000000000000000000000000000000000000000000000000000000000000000000000000000000000000000000000000000000000000",
                    "coinbase" : "0x68795c4aa09d6f4ed3e5deddf8c2ad3049a601da",
                    "difficulty" : "0x020000",
                    "extraData" : "0x",
                    "gasLimit" : "0x3d37ef",
                    "gasUsed" : "0x015f90",
                    "hash" : "0xf058aefc9027966323680c94f53dd88e5a89038d19dd92a92257ba1ed3d51501",
                    "mixHash" : "0x0000000000000000000000000000000000000000000000000000000000000000",
                    "nonce" : "0x0000000000000000",
                    "number" : "0x01",
                    "parentHash" : "0x9b25016c45ce0e295a463681361471a29c00aea06cba17cbc22894ce6d2c1def",
                    "receiptTrie" : "0x22140012d7300d5a027646b3c3f97683d4af689c0ab818cf01a532204bcb4a59",
                    "stateRoot" : "0xc00b85ba6f2b70e3f9aea764a4674f4d9555849455b5e53ce0efc539cbf8ca0f",
                    "timestamp" : "0x03e8",
                    "transactionsTrie" : "0x6727fec807710b5069d92fb34eb00238a42624ae9bb710ab254e4408de02f817",
                    "uncleHash" : "0x1dcc4de8dec75d7aab85b567b6ccd41ad312451b948a7413f0a142fd40d49347"
                },
                "rlp" : "0xf90343f901f8a09b25016c45ce0e295a463681361471a29c00aea06cba17cbc22894ce6d2c1defa01dcc4de8dec75d7aab85b567b6ccd41ad312451b948a7413f0a142fd40d493479468795c4aa09d6f4ed3e5deddf8c2ad3049a601daa0c00b85ba6f2b70e3f9aea764a4674f4d9555849455b5e53ce0efc539cbf8ca0fa06727fec807710b5069d92fb34eb00238a42624ae9bb710ab254e4408de02f817a022140012d7300d5a027646b3c3f97683d4af689c0ab818cf01a532204bcb4a59b90100000000000000000000000000000000000000000000000000000000000000000000000000000000000000000000000000000000000000000000000000000000000000000000000000000000000000000000000000000000000000000000000000000000000000000000000000000000000000000000000000000000000000000000000000000000000000000000000000000000000000000000000000000000000000000000000000000000000000000000000000000000000000000000000000000000000000000000000000000000000000000000000000000000000000000000000000000000000000000000000000000000000000000000000000000000008302000001833d37ef83015f908203e880a00000000000000000000000000000000000000000000000000000000000000000880000000000000000f90144f90141010183015f9094b94f5374fce5edbc8e2a8697c15331677e6ebf0b80b8e000000000000000000000000000000000000000000000000000000000000000000000000000000000000000000000000000000000000000000000000000000000000000000000000000000000000000000000000000000000000000000000000000000000000000000000000000000000000000000000000000000000000000000000000000000000000000000000000000000000000000000000000000000000000000000000000000000000000000000000000000000000000000000000000000000000000000000000000000000000000000000000000000000000000000031ba064a582894e695ba560b2f67cb4693355036e47657de3a090bf0a5cf7d516c433a027ae81ef8e1fbd11200a3f27a516b7db589192810792ae39fe62b3db175a9842c0",
                "transactions" : [
                    {
                        "data" : "0x0000000000000000000000000000000000000000000000000000000000000000000000000000000000000000000000000000000000000000000000000000000000000000000000000000000000000000000000000000000000000000000000000000000000000000000000000000000000000000000000000000000000000000000000000000000000000000000000000000000000000000000000000000000000000000000000000000000000000000000000000000000000000000000000000000000000000000000000000000000000000000000000000000000000000003",
                        "gasLimit" : "0x015f90",
                        "gasPrice" : "0x01",
                        "nonce" : "0x01",
                        "r" : "0x64a582894e695ba560b2f67cb4693355036e47657de3a090bf0a5cf7d516c433",
                        "s" : "0x27ae81ef8e1fbd11200a3f27a516b7db589192810792ae39fe62b3db175a9842",
                        "to" : "0xb94f5374fce5edbc8e2a8697c15331677e6ebf0b",
                        "v" : "0x1b",
                        "value" : "0x00"
                    }
                ],
                "uncleHeaders" : [
                ]
            }
        ],
        "genesisBlockHeader" : {
            "bloom" : "0x00000000000000000000000000000000000000000000000000000000000000000000000000000000000000000000000000000000000000000000000000000000000000000000000000000000000000000000000000000000000000000000000000000000000000000000000000000000000000000000000000000000000000000000000000000000000000000000000000000000000000000000000000000000000000000000000000000000000000000000000000000000000000000000000000000000000000000000000000000000000000000000000000000000000000000000000000000000000000000000000000000000000000000000000000000000",
            "coinbase" : "0x68795c4aa09d6f4ed3e5deddf8c2ad3049a601da",
            "difficulty" : "0x020000",
            "extraData" : "0x42",
            "gasLimit" : "0x3d37ef",
            "gasUsed" : "0x00",
            "hash" : "0x9b25016c45ce0e295a463681361471a29c00aea06cba17cbc22894ce6d2c1def",
            "mixHash" : "0x56e81f171bcc55a6ff8345e692c0f86e5b48e01b996cadc001622fb5e363b421",
            "nonce" : "0x0102030405060708",
            "number" : "0x00",
            "parentHash" : "0x0000000000000000000000000000000000000000000000000000000000000000",
            "receiptTrie" : "0x56e81f171bcc55a6ff8345e692c0f86e5b48e01b996cadc001622fb5e363b421",
            "stateRoot" : "0xa4db92ceb60668ffcb9642d55fa7fe34cc341b53029d31394d82f0c61462bd99",
            "timestamp" : "0x03b6",
            "transactionsTrie" : "0x56e81f171bcc55a6ff8345e692c0f86e5b48e01b996cadc001622fb5e363b421",
            "uncleHash" : "0x1dcc4de8dec75d7aab85b567b6ccd41ad312451b948a7413f0a142fd40d49347"
        },
        "genesisRLP" : "0xf901faf901f5a00000000000000000000000000000000000000000000000000000000000000000a01dcc4de8dec75d7aab85b567b6ccd41ad312451b948a7413f0a142fd40d493479468795c4aa09d6f4ed3e5deddf8c2ad3049a601daa0a4db92ceb60668ffcb9642d55fa7fe34cc341b53029d31394d82f0c61462bd99a056e81f171bcc55a6ff8345e692c0f86e5b48e01b996cadc001622fb5e363b421a056e81f171bcc55a6ff8345e692c0f86e5b48e01b996cadc001622fb5e363b421b90100000000000000000000000000000000000000000000000000000000000000000000000000000000000000000000000000000000000000000000000000000000000000000000000000000000000000000000000000000000000000000000000000000000000000000000000000000000000000000000000000000000000000000000000000000000000000000000000000000000000000000000000000000000000000000000000000000000000000000000000000000000000000000000000000000000000000000000000000000000000000000000000000000000000000000000000000000000000000000000000000000000000000000000000000000000008302000080833d37ef808203b642a056e81f171bcc55a6ff8345e692c0f86e5b48e01b996cadc001622fb5e363b421880102030405060708c0c0",
        "lastblockhash" : "0xf058aefc9027966323680c94f53dd88e5a89038d19dd92a92257ba1ed3d51501",
        "network" : "ConstantinopleFix",
        "postState" : {
            "0x68795c4aa09d6f4ed3e5deddf8c2ad3049a601da" : {
                "balance" : "0x1bc16d674ec95f90",
                "code" : "0x",
                "nonce" : "0x00",
                "storage" : {
                }
            },
            "0xa94f5374fce5edbc8e2a8697c15331677e6ebf0b" : {
                "balance" : "0x0de0b6b3a762a070",
                "code" : "0x",
                "nonce" : "0x02",
                "storage" : {
                }
            },
            "0xb94f5374fce5edbc8e2a8697c15331677e6ebf0b" : {
                "balance" : "0x00",
                "code" : "0x60003560005260203560205260403560405260603560605260803560805260a03560a05260c03560c052604061012c60806000600060066207a120f2600055604061019060606080600060076207a120f260015561012c51600a5561014c51600b55610190516014556101b051601555601454600a5414600255601554600b5414600355",
                "nonce" : "0x00",
                "storage" : {
                }
            }
        },
        "pre" : {
            "0xa94f5374fce5edbc8e2a8697c15331677e6ebf0b" : {
                "balance" : "0x0de0b6b3a7640000",
                "code" : "0x",
                "nonce" : "0x01",
                "storage" : {
                }
            },
            "0xb94f5374fce5edbc8e2a8697c15331677e6ebf0b" : {
                "balance" : "0x00",
                "code" : "0x60003560005260203560205260403560405260603560605260803560805260a03560a05260c03560c052604061012c60806000600060066207a120f2600055604061019060606080600060076207a120f260015561012c51600a5561014c51600b55610190516014556101b051601555601454600a5414600255601554600b5414600355",
                "nonce" : "0x00",
                "storage" : {
                }
            }
        },
        "sealEngine" : "NoProof"
    },
    "pointMulAdd2_d1g1v0_Homestead" : {
        "_info" : {
            "comment" : "",
            "filledwith" : "testeth 1.7.0-alpha.1-20+commit.782a7283",
            "lllcversion" : "Version: 0.5.0-develop.2018.11.9+commit.9709dfe0.Linux.g++",
            "source" : "src/BlockchainTestsFiller/GeneralStateTests/stZeroKnowledge/pointMulAdd2_d1g1v0Filler.json",
            "sourceHash" : "9727fb3f49d2f8e2916d6efd998d668ce32f491b1bb274086d292e6b812fd30d"
        },
        "blocks" : [
            {
                "blockHeader" : {
                    "bloom" : "0x00000000000000000000000000000000000000000000000000000000000000000000000000000000000000000000000000000000000000000000000000000000000000000000000000000000000000000000000000000000000000000000000000000000000000000000000000000000000000000000000000000000000000000000000000000000000000000000000000000000000000000000000000000000000000000000000000000000000000000000000000000000000000000000000000000000000000000000000000000000000000000000000000000000000000000000000000000000000000000000000000000000000000000000000000000000",
                    "coinbase" : "0x68795c4aa09d6f4ed3e5deddf8c2ad3049a601da",
                    "difficulty" : "0x020000",
                    "extraData" : "0x",
                    "gasLimit" : "0x3d37ef",
                    "gasUsed" : "0x015f90",
                    "hash" : "0xb0c72b46258f5253eef5e086c95e49fd874383514be4f44f53f18063bd07b810",
                    "mixHash" : "0x0000000000000000000000000000000000000000000000000000000000000000",
                    "nonce" : "0x0000000000000000",
                    "number" : "0x01",
                    "parentHash" : "0x9b25016c45ce0e295a463681361471a29c00aea06cba17cbc22894ce6d2c1def",
                    "receiptTrie" : "0xbd73743a7c10079149c4ee1549130bf2f532c79e9b8a8fbd5bb043095b8e2749",
                    "stateRoot" : "0x24067da1eb357ca49d5e739c0d042e08f89068da24f664fb3508b3668c49ff5c",
                    "timestamp" : "0x03e8",
                    "transactionsTrie" : "0x6727fec807710b5069d92fb34eb00238a42624ae9bb710ab254e4408de02f817",
                    "uncleHash" : "0x1dcc4de8dec75d7aab85b567b6ccd41ad312451b948a7413f0a142fd40d49347"
                },
                "rlp" : "0xf90343f901f8a09b25016c45ce0e295a463681361471a29c00aea06cba17cbc22894ce6d2c1defa01dcc4de8dec75d7aab85b567b6ccd41ad312451b948a7413f0a142fd40d493479468795c4aa09d6f4ed3e5deddf8c2ad3049a601daa024067da1eb357ca49d5e739c0d042e08f89068da24f664fb3508b3668c49ff5ca06727fec807710b5069d92fb34eb00238a42624ae9bb710ab254e4408de02f817a0bd73743a7c10079149c4ee1549130bf2f532c79e9b8a8fbd5bb043095b8e2749b90100000000000000000000000000000000000000000000000000000000000000000000000000000000000000000000000000000000000000000000000000000000000000000000000000000000000000000000000000000000000000000000000000000000000000000000000000000000000000000000000000000000000000000000000000000000000000000000000000000000000000000000000000000000000000000000000000000000000000000000000000000000000000000000000000000000000000000000000000000000000000000000000000000000000000000000000000000000000000000000000000000000000000000000000000000000008302000001833d37ef83015f908203e880a00000000000000000000000000000000000000000000000000000000000000000880000000000000000f90144f90141010183015f9094b94f5374fce5edbc8e2a8697c15331677e6ebf0b80b8e000000000000000000000000000000000000000000000000000000000000000000000000000000000000000000000000000000000000000000000000000000000000000000000000000000000000000000000000000000000000000000000000000000000000000000000000000000000000000000000000000000000000000000000000000000000000000000000000000000000000000000000000000000000000000000000000000000000000000000000000000000000000000000000000000000000000000000000000000000000000000000000000000000000000000031ba064a582894e695ba560b2f67cb4693355036e47657de3a090bf0a5cf7d516c433a027ae81ef8e1fbd11200a3f27a516b7db589192810792ae39fe62b3db175a9842c0",
                "transactions" : [
                    {
                        "data" : "0x0000000000000000000000000000000000000000000000000000000000000000000000000000000000000000000000000000000000000000000000000000000000000000000000000000000000000000000000000000000000000000000000000000000000000000000000000000000000000000000000000000000000000000000000000000000000000000000000000000000000000000000000000000000000000000000000000000000000000000000000000000000000000000000000000000000000000000000000000000000000000000000000000000000000000003",
                        "gasLimit" : "0x015f90",
                        "gasPrice" : "0x01",
                        "nonce" : "0x01",
                        "r" : "0x64a582894e695ba560b2f67cb4693355036e47657de3a090bf0a5cf7d516c433",
                        "s" : "0x27ae81ef8e1fbd11200a3f27a516b7db589192810792ae39fe62b3db175a9842",
                        "to" : "0xb94f5374fce5edbc8e2a8697c15331677e6ebf0b",
                        "v" : "0x1b",
                        "value" : "0x00"
                    }
                ],
                "uncleHeaders" : [
                ]
            }
        ],
        "genesisBlockHeader" : {
            "bloom" : "0x00000000000000000000000000000000000000000000000000000000000000000000000000000000000000000000000000000000000000000000000000000000000000000000000000000000000000000000000000000000000000000000000000000000000000000000000000000000000000000000000000000000000000000000000000000000000000000000000000000000000000000000000000000000000000000000000000000000000000000000000000000000000000000000000000000000000000000000000000000000000000000000000000000000000000000000000000000000000000000000000000000000000000000000000000000000",
            "coinbase" : "0x68795c4aa09d6f4ed3e5deddf8c2ad3049a601da",
            "difficulty" : "0x020000",
            "extraData" : "0x42",
            "gasLimit" : "0x3d37ef",
            "gasUsed" : "0x00",
            "hash" : "0x9b25016c45ce0e295a463681361471a29c00aea06cba17cbc22894ce6d2c1def",
            "mixHash" : "0x56e81f171bcc55a6ff8345e692c0f86e5b48e01b996cadc001622fb5e363b421",
            "nonce" : "0x0102030405060708",
            "number" : "0x00",
            "parentHash" : "0x0000000000000000000000000000000000000000000000000000000000000000",
            "receiptTrie" : "0x56e81f171bcc55a6ff8345e692c0f86e5b48e01b996cadc001622fb5e363b421",
            "stateRoot" : "0xa4db92ceb60668ffcb9642d55fa7fe34cc341b53029d31394d82f0c61462bd99",
            "timestamp" : "0x03b6",
            "transactionsTrie" : "0x56e81f171bcc55a6ff8345e692c0f86e5b48e01b996cadc001622fb5e363b421",
            "uncleHash" : "0x1dcc4de8dec75d7aab85b567b6ccd41ad312451b948a7413f0a142fd40d49347"
        },
        "genesisRLP" : "0xf901faf901f5a00000000000000000000000000000000000000000000000000000000000000000a01dcc4de8dec75d7aab85b567b6ccd41ad312451b948a7413f0a142fd40d493479468795c4aa09d6f4ed3e5deddf8c2ad3049a601daa0a4db92ceb60668ffcb9642d55fa7fe34cc341b53029d31394d82f0c61462bd99a056e81f171bcc55a6ff8345e692c0f86e5b48e01b996cadc001622fb5e363b421a056e81f171bcc55a6ff8345e692c0f86e5b48e01b996cadc001622fb5e363b421b90100000000000000000000000000000000000000000000000000000000000000000000000000000000000000000000000000000000000000000000000000000000000000000000000000000000000000000000000000000000000000000000000000000000000000000000000000000000000000000000000000000000000000000000000000000000000000000000000000000000000000000000000000000000000000000000000000000000000000000000000000000000000000000000000000000000000000000000000000000000000000000000000000000000000000000000000000000000000000000000000000000000000000000000000000000000008302000080833d37ef808203b642a056e81f171bcc55a6ff8345e692c0f86e5b48e01b996cadc001622fb5e363b421880102030405060708c0c0",
        "lastblockhash" : "0xb0c72b46258f5253eef5e086c95e49fd874383514be4f44f53f18063bd07b810",
        "network" : "Homestead",
        "postState" : {
            "0x68795c4aa09d6f4ed3e5deddf8c2ad3049a601da" : {
                "balance" : "0x4563918244f55f90",
                "code" : "0x",
                "nonce" : "0x00",
                "storage" : {
                }
            },
            "0xa94f5374fce5edbc8e2a8697c15331677e6ebf0b" : {
                "balance" : "0x0de0b6b3a762a070",
                "code" : "0x",
                "nonce" : "0x02",
                "storage" : {
                }
            },
            "0xb94f5374fce5edbc8e2a8697c15331677e6ebf0b" : {
                "balance" : "0x00",
                "code" : "0x60003560005260203560205260403560405260603560605260803560805260a03560a05260c03560c052604061012c60806000600060066207a120f2600055604061019060606080600060076207a120f260015561012c51600a5561014c51600b55610190516014556101b051601555601454600a5414600255601554600b5414600355",
                "nonce" : "0x00",
                "storage" : {
                }
            }
        },
        "pre" : {
            "0xa94f5374fce5edbc8e2a8697c15331677e6ebf0b" : {
                "balance" : "0x0de0b6b3a7640000",
                "code" : "0x",
                "nonce" : "0x01",
                "storage" : {
                }
            },
            "0xb94f5374fce5edbc8e2a8697c15331677e6ebf0b" : {
                "balance" : "0x00",
                "code" : "0x60003560005260203560205260403560405260603560605260803560805260a03560a05260c03560c052604061012c60806000600060066207a120f2600055604061019060606080600060076207a120f260015561012c51600a5561014c51600b55610190516014556101b051601555601454600a5414600255601554600b5414600355",
                "nonce" : "0x00",
                "storage" : {
                }
            }
        },
        "sealEngine" : "NoProof"
    }
}