{
    "pointAdd_d2g0v0_Byzantium" : {
        "_info" : {
            "comment" : "",
            "filledwith" : "testeth 1.7.0-alpha.1-20+commit.782a7283",
            "lllcversion" : "Version: 0.5.0-develop.2018.11.9+commit.9709dfe0.Linux.g++",
            "source" : "src/BlockchainTestsFiller/GeneralStateTests/stZeroKnowledge/pointAdd_d2g0v0Filler.json",
            "sourceHash" : "b9bc00afdee8898c78720a40b426a186d3b46333fd0b5f6f06aea1fba68a1b4c"
        },
        "blocks" : [
            {
                "blockHeader" : {
                    "bloom" : "0x00000000000000000000000000000000000000000000000000000000000000000000000000000000000000000000000000000000000000000000000000000000000000000000000000000000000000000000000000000000000000000000000000000000000000000000000000000000000000000000000000000000000000000000000000000000000000000000000000000000000000000000000000000000000000000000000000000000000000000000000000000000000000000000000000000000000000000000000000000000000000000000000000000000000000000000000000000000000000000000000000000000000000000000000000000000",
                    "coinbase" : "0x68795c4aa09d6f4ed3e5deddf8c2ad3049a601da",
                    "difficulty" : "0x020000",
                    "extraData" : "0x",
                    "gasLimit" : "0x3d37ef",
                    "gasUsed" : "0x0852f1",
                    "hash" : "0x93d23da83f8b3ea6e75f938c5994de7eae494fee2192f6af9a18749dcab6a185",
                    "mixHash" : "0x0000000000000000000000000000000000000000000000000000000000000000",
                    "nonce" : "0x0000000000000000",
                    "number" : "0x01",
                    "parentHash" : "0x2118829a9759bb62ed2abe42ed2598a8e3d842cb41576be1c436b9f6dbd9cedc",
                    "receiptTrie" : "0xc2ee876396c80e2ef2a58454aa541406e4d62cbc84a03126c2aef72bb80c9ad5",
                    "stateRoot" : "0x731d062b1bae6c6ca31f7848c56520b1cbac24e00a8fa1f17384e5d6dd9d9ec8",
                    "timestamp" : "0x03e8",
                    "transactionsTrie" : "0xa1d689555f5507532577bbf8d1f8223e0dcba57a4715179a896f8406627710d8",
                    "uncleHash" : "0x1dcc4de8dec75d7aab85b567b6ccd41ad312451b948a7413f0a142fd40d49347"
                },
                "rlp" : "0xf902e1f901f8a02118829a9759bb62ed2abe42ed2598a8e3d842cb41576be1c436b9f6dbd9cedca01dcc4de8dec75d7aab85b567b6ccd41ad312451b948a7413f0a142fd40d493479468795c4aa09d6f4ed3e5deddf8c2ad3049a601daa0731d062b1bae6c6ca31f7848c56520b1cbac24e00a8fa1f17384e5d6dd9d9ec8a0a1d689555f5507532577bbf8d1f8223e0dcba57a4715179a896f8406627710d8a0c2ee876396c80e2ef2a58454aa541406e4d62cbc84a03126c2aef72bb80c9ad5b90100000000000000000000000000000000000000000000000000000000000000000000000000000000000000000000000000000000000000000000000000000000000000000000000000000000000000000000000000000000000000000000000000000000000000000000000000000000000000000000000000000000000000000000000000000000000000000000000000000000000000000000000000000000000000000000000000000000000000000000000000000000000000000000000000000000000000000000000000000000000000000000000000000000000000000000000000000000000000000000000000000000000000000000000000000000008302000001833d37ef830852f18203e880a00000000000000000000000000000000000000000000000000000000000000000880000000000000000f8e3f8e10101830f424094b94f5374fce5edbc8e2a8697c15331677e6ebf0b80b8800f25929bcb43d5a57391564615c9e70a992b10eafa4db109709649cf48c50dd216da2f5cb6be7a0aa72c440c53c9bbdfec6c36c7d515536431b3a865468acbba0f25919bcb43d5a57391564615c9e70a992b10eafa4db109709649cf48c50dd216da2f5cb6be7a0aa72c440c53c9bbdfec6c36c7d515536431b3a865468acbba1ca01c8f89e7a99bde18c0936cca94bed25ef43aed8845bb17d2900e1262d4479e99a03c2960f7148a3cfe4a32a0f6e8799fc5dc0b41a72f8ef7c10890c42f1faddf5ec0",
                "transactions" : [
                    {
                        "data" : "0x0f25929bcb43d5a57391564615c9e70a992b10eafa4db109709649cf48c50dd216da2f5cb6be7a0aa72c440c53c9bbdfec6c36c7d515536431b3a865468acbba0f25919bcb43d5a57391564615c9e70a992b10eafa4db109709649cf48c50dd216da2f5cb6be7a0aa72c440c53c9bbdfec6c36c7d515536431b3a865468acbba",
                        "gasLimit" : "0x0f4240",
                        "gasPrice" : "0x01",
                        "nonce" : "0x01",
                        "r" : "0x1c8f89e7a99bde18c0936cca94bed25ef43aed8845bb17d2900e1262d4479e99",
                        "s" : "0x3c2960f7148a3cfe4a32a0f6e8799fc5dc0b41a72f8ef7c10890c42f1faddf5e",
                        "to" : "0xb94f5374fce5edbc8e2a8697c15331677e6ebf0b",
                        "v" : "0x1c",
                        "value" : "0x00"
                    }
                ],
                "uncleHeaders" : [
                ]
            }
        ],
        "genesisBlockHeader" : {
            "bloom" : "0x00000000000000000000000000000000000000000000000000000000000000000000000000000000000000000000000000000000000000000000000000000000000000000000000000000000000000000000000000000000000000000000000000000000000000000000000000000000000000000000000000000000000000000000000000000000000000000000000000000000000000000000000000000000000000000000000000000000000000000000000000000000000000000000000000000000000000000000000000000000000000000000000000000000000000000000000000000000000000000000000000000000000000000000000000000000",
            "coinbase" : "0x68795c4aa09d6f4ed3e5deddf8c2ad3049a601da",
            "difficulty" : "0x020000",
            "extraData" : "0x42",
            "gasLimit" : "0x3d37ef",
            "gasUsed" : "0x00",
            "hash" : "0x2118829a9759bb62ed2abe42ed2598a8e3d842cb41576be1c436b9f6dbd9cedc",
            "mixHash" : "0x56e81f171bcc55a6ff8345e692c0f86e5b48e01b996cadc001622fb5e363b421",
            "nonce" : "0x0102030405060708",
            "number" : "0x00",
            "parentHash" : "0x0000000000000000000000000000000000000000000000000000000000000000",
            "receiptTrie" : "0x56e81f171bcc55a6ff8345e692c0f86e5b48e01b996cadc001622fb5e363b421",
            "stateRoot" : "0x95a0fc3312fd9e68d98cef6cb2a346c69bc7f2cd87d6c9b2dffdf4b49262223f",
            "timestamp" : "0x03b6",
            "transactionsTrie" : "0x56e81f171bcc55a6ff8345e692c0f86e5b48e01b996cadc001622fb5e363b421",
            "uncleHash" : "0x1dcc4de8dec75d7aab85b567b6ccd41ad312451b948a7413f0a142fd40d49347"
        },
        "genesisRLP" : "0xf901faf901f5a00000000000000000000000000000000000000000000000000000000000000000a01dcc4de8dec75d7aab85b567b6ccd41ad312451b948a7413f0a142fd40d493479468795c4aa09d6f4ed3e5deddf8c2ad3049a601daa095a0fc3312fd9e68d98cef6cb2a346c69bc7f2cd87d6c9b2dffdf4b49262223fa056e81f171bcc55a6ff8345e692c0f86e5b48e01b996cadc001622fb5e363b421a056e81f171bcc55a6ff8345e692c0f86e5b48e01b996cadc001622fb5e363b421b90100000000000000000000000000000000000000000000000000000000000000000000000000000000000000000000000000000000000000000000000000000000000000000000000000000000000000000000000000000000000000000000000000000000000000000000000000000000000000000000000000000000000000000000000000000000000000000000000000000000000000000000000000000000000000000000000000000000000000000000000000000000000000000000000000000000000000000000000000000000000000000000000000000000000000000000000000000000000000000000000000000000000000000000000000000000008302000080833d37ef808203b642a056e81f171bcc55a6ff8345e692c0f86e5b48e01b996cadc001622fb5e363b421880102030405060708c0c0",
        "lastblockhash" : "0x93d23da83f8b3ea6e75f938c5994de7eae494fee2192f6af9a18749dcab6a185",
        "network" : "Byzantium",
        "postState" : {
            "0x68795c4aa09d6f4ed3e5deddf8c2ad3049a601da" : {
                "balance" : "0x29a2241af63452f1",
                "code" : "0x",
                "nonce" : "0x00",
                "storage" : {
                }
            },
            "0xa94f5374fce5edbc8e2a8697c15331677e6ebf0b" : {
                "balance" : "0x0de0b6b3a75bad0f",
                "code" : "0x",
                "nonce" : "0x02",
                "storage" : {
                }
            },
            "0xb94f5374fce5edbc8e2a8697c15331677e6ebf0b" : {
                "balance" : "0x00",
                "code" : "0x600035600052602035602052604035604052606035606052604060c860806000600060066207a120f260005560c85160015560e851600255",
                "nonce" : "0x00",
                "storage" : {
                }
            }
        },
        "pre" : {
            "0xa94f5374fce5edbc8e2a8697c15331677e6ebf0b" : {
                "balance" : "0x0de0b6b3a7640000",
                "code" : "0x",
                "nonce" : "0x01",
                "storage" : {
                }
            },
            "0xb94f5374fce5edbc8e2a8697c15331677e6ebf0b" : {
                "balance" : "0x00",
                "code" : "0x600035600052602035602052604035604052606035606052604060c860806000600060066207a120f260005560c85160015560e851600255",
                "nonce" : "0x00",
                "storage" : {
                }
            }
        },
        "sealEngine" : "NoProof"
    },
    "pointAdd_d2g0v0_Constantinople" : {
        "_info" : {
            "comment" : "",
            "filledwith" : "testeth 1.7.0-alpha.1-20+commit.782a7283",
            "lllcversion" : "Version: 0.5.0-develop.2018.11.9+commit.9709dfe0.Linux.g++",
            "source" : "src/BlockchainTestsFiller/GeneralStateTests/stZeroKnowledge/pointAdd_d2g0v0Filler.json",
            "sourceHash" : "b9bc00afdee8898c78720a40b426a186d3b46333fd0b5f6f06aea1fba68a1b4c"
        },
        "blocks" : [
            {
                "blockHeader" : {
                    "bloom" : "0x00000000000000000000000000000000000000000000000000000000000000000000000000000000000000000000000000000000000000000000000000000000000000000000000000000000000000000000000000000000000000000000000000000000000000000000000000000000000000000000000000000000000000000000000000000000000000000000000000000000000000000000000000000000000000000000000000000000000000000000000000000000000000000000000000000000000000000000000000000000000000000000000000000000000000000000000000000000000000000000000000000000000000000000000000000000",
                    "coinbase" : "0x68795c4aa09d6f4ed3e5deddf8c2ad3049a601da",
                    "difficulty" : "0x020000",
                    "extraData" : "0x",
                    "gasLimit" : "0x3d37ef",
                    "gasUsed" : "0x081ab1",
                    "hash" : "0x260c3825d8910cc280377735f40864ec5453f388c433af04f3060c80e5765c99",
                    "mixHash" : "0x0000000000000000000000000000000000000000000000000000000000000000",
                    "nonce" : "0x0000000000000000",
                    "number" : "0x01",
                    "parentHash" : "0x2118829a9759bb62ed2abe42ed2598a8e3d842cb41576be1c436b9f6dbd9cedc",
                    "receiptTrie" : "0x0189f76395f238274bc1d59f6a59b2c67ddfc49f8b85250f2cc0215ad2fed0a1",
                    "stateRoot" : "0x82c40b3fcfb6f1eab71761e764609cc6af924c50e9d6084b5473d9c09d273fce",
                    "timestamp" : "0x03e8",
                    "transactionsTrie" : "0xa1d689555f5507532577bbf8d1f8223e0dcba57a4715179a896f8406627710d8",
                    "uncleHash" : "0x1dcc4de8dec75d7aab85b567b6ccd41ad312451b948a7413f0a142fd40d49347"
                },
                "rlp" : "0xf902e1f901f8a02118829a9759bb62ed2abe42ed2598a8e3d842cb41576be1c436b9f6dbd9cedca01dcc4de8dec75d7aab85b567b6ccd41ad312451b948a7413f0a142fd40d493479468795c4aa09d6f4ed3e5deddf8c2ad3049a601daa082c40b3fcfb6f1eab71761e764609cc6af924c50e9d6084b5473d9c09d273fcea0a1d689555f5507532577bbf8d1f8223e0dcba57a4715179a896f8406627710d8a00189f76395f238274bc1d59f6a59b2c67ddfc49f8b85250f2cc0215ad2fed0a1b90100000000000000000000000000000000000000000000000000000000000000000000000000000000000000000000000000000000000000000000000000000000000000000000000000000000000000000000000000000000000000000000000000000000000000000000000000000000000000000000000000000000000000000000000000000000000000000000000000000000000000000000000000000000000000000000000000000000000000000000000000000000000000000000000000000000000000000000000000000000000000000000000000000000000000000000000000000000000000000000000000000000000000000000000000000000008302000001833d37ef83081ab18203e880a00000000000000000000000000000000000000000000000000000000000000000880000000000000000f8e3f8e10101830f424094b94f5374fce5edbc8e2a8697c15331677e6ebf0b80b8800f25929bcb43d5a57391564615c9e70a992b10eafa4db109709649cf48c50dd216da2f5cb6be7a0aa72c440c53c9bbdfec6c36c7d515536431b3a865468acbba0f25919bcb43d5a57391564615c9e70a992b10eafa4db109709649cf48c50dd216da2f5cb6be7a0aa72c440c53c9bbdfec6c36c7d515536431b3a865468acbba1ca01c8f89e7a99bde18c0936cca94bed25ef43aed8845bb17d2900e1262d4479e99a03c2960f7148a3cfe4a32a0f6e8799fc5dc0b41a72f8ef7c10890c42f1faddf5ec0",
                "transactions" : [
                    {
                        "data" : "0x0f25929bcb43d5a57391564615c9e70a992b10eafa4db109709649cf48c50dd216da2f5cb6be7a0aa72c440c53c9bbdfec6c36c7d515536431b3a865468acbba0f25919bcb43d5a57391564615c9e70a992b10eafa4db109709649cf48c50dd216da2f5cb6be7a0aa72c440c53c9bbdfec6c36c7d515536431b3a865468acbba",
                        "gasLimit" : "0x0f4240",
                        "gasPrice" : "0x01",
                        "nonce" : "0x01",
                        "r" : "0x1c8f89e7a99bde18c0936cca94bed25ef43aed8845bb17d2900e1262d4479e99",
                        "s" : "0x3c2960f7148a3cfe4a32a0f6e8799fc5dc0b41a72f8ef7c10890c42f1faddf5e",
                        "to" : "0xb94f5374fce5edbc8e2a8697c15331677e6ebf0b",
                        "v" : "0x1c",
                        "value" : "0x00"
                    }
                ],
                "uncleHeaders" : [
                ]
            }
        ],
        "genesisBlockHeader" : {
            "bloom" : "0x00000000000000000000000000000000000000000000000000000000000000000000000000000000000000000000000000000000000000000000000000000000000000000000000000000000000000000000000000000000000000000000000000000000000000000000000000000000000000000000000000000000000000000000000000000000000000000000000000000000000000000000000000000000000000000000000000000000000000000000000000000000000000000000000000000000000000000000000000000000000000000000000000000000000000000000000000000000000000000000000000000000000000000000000000000000",
            "coinbase" : "0x68795c4aa09d6f4ed3e5deddf8c2ad3049a601da",
            "difficulty" : "0x020000",
            "extraData" : "0x42",
            "gasLimit" : "0x3d37ef",
            "gasUsed" : "0x00",
            "hash" : "0x2118829a9759bb62ed2abe42ed2598a8e3d842cb41576be1c436b9f6dbd9cedc",
            "mixHash" : "0x56e81f171bcc55a6ff8345e692c0f86e5b48e01b996cadc001622fb5e363b421",
            "nonce" : "0x0102030405060708",
            "number" : "0x00",
            "parentHash" : "0x0000000000000000000000000000000000000000000000000000000000000000",
            "receiptTrie" : "0x56e81f171bcc55a6ff8345e692c0f86e5b48e01b996cadc001622fb5e363b421",
            "stateRoot" : "0x95a0fc3312fd9e68d98cef6cb2a346c69bc7f2cd87d6c9b2dffdf4b49262223f",
            "timestamp" : "0x03b6",
            "transactionsTrie" : "0x56e81f171bcc55a6ff8345e692c0f86e5b48e01b996cadc001622fb5e363b421",
            "uncleHash" : "0x1dcc4de8dec75d7aab85b567b6ccd41ad312451b948a7413f0a142fd40d49347"
        },
        "genesisRLP" : "0xf901faf901f5a00000000000000000000000000000000000000000000000000000000000000000a01dcc4de8dec75d7aab85b567b6ccd41ad312451b948a7413f0a142fd40d493479468795c4aa09d6f4ed3e5deddf8c2ad3049a601daa095a0fc3312fd9e68d98cef6cb2a346c69bc7f2cd87d6c9b2dffdf4b49262223fa056e81f171bcc55a6ff8345e692c0f86e5b48e01b996cadc001622fb5e363b421a056e81f171bcc55a6ff8345e692c0f86e5b48e01b996cadc001622fb5e363b421b90100000000000000000000000000000000000000000000000000000000000000000000000000000000000000000000000000000000000000000000000000000000000000000000000000000000000000000000000000000000000000000000000000000000000000000000000000000000000000000000000000000000000000000000000000000000000000000000000000000000000000000000000000000000000000000000000000000000000000000000000000000000000000000000000000000000000000000000000000000000000000000000000000000000000000000000000000000000000000000000000000000000000000000000000000000000008302000080833d37ef808203b642a056e81f171bcc55a6ff8345e692c0f86e5b48e01b996cadc001622fb5e363b421880102030405060708c0c0",
        "lastblockhash" : "0x260c3825d8910cc280377735f40864ec5453f388c433af04f3060c80e5765c99",
        "network" : "Constantinople",
        "postState" : {
            "0x68795c4aa09d6f4ed3e5deddf8c2ad3049a601da" : {
                "balance" : "0x1bc16d674ed01ab1",
                "code" : "0x",
                "nonce" : "0x00",
                "storage" : {
                }
            },
            "0xa94f5374fce5edbc8e2a8697c15331677e6ebf0b" : {
                "balance" : "0x0de0b6b3a75be54f",
                "code" : "0x",
                "nonce" : "0x02",
                "storage" : {
                }
            },
            "0xb94f5374fce5edbc8e2a8697c15331677e6ebf0b" : {
                "balance" : "0x00",
                "code" : "0x600035600052602035602052604035604052606035606052604060c860806000600060066207a120f260005560c85160015560e851600255",
                "nonce" : "0x00",
                "storage" : {
                }
            }
        },
        "pre" : {
            "0xa94f5374fce5edbc8e2a8697c15331677e6ebf0b" : {
                "balance" : "0x0de0b6b3a7640000",
                "code" : "0x",
                "nonce" : "0x01",
                "storage" : {
                }
            },
            "0xb94f5374fce5edbc8e2a8697c15331677e6ebf0b" : {
                "balance" : "0x00",
                "code" : "0x600035600052602035602052604035604052606035606052604060c860806000600060066207a120f260005560c85160015560e851600255",
                "nonce" : "0x00",
                "storage" : {
                }
            }
        },
        "sealEngine" : "NoProof"
    },
    "pointAdd_d2g0v0_ConstantinopleFix" : {
        "_info" : {
            "comment" : "",
            "filledwith" : "testeth 1.7.0-alpha.1-20+commit.782a7283",
            "lllcversion" : "Version: 0.5.0-develop.2018.11.9+commit.9709dfe0.Linux.g++",
            "source" : "src/BlockchainTestsFiller/GeneralStateTests/stZeroKnowledge/pointAdd_d2g0v0Filler.json",
            "sourceHash" : "b9bc00afdee8898c78720a40b426a186d3b46333fd0b5f6f06aea1fba68a1b4c"
        },
        "blocks" : [
            {
                "blockHeader" : {
                    "bloom" : "0x00000000000000000000000000000000000000000000000000000000000000000000000000000000000000000000000000000000000000000000000000000000000000000000000000000000000000000000000000000000000000000000000000000000000000000000000000000000000000000000000000000000000000000000000000000000000000000000000000000000000000000000000000000000000000000000000000000000000000000000000000000000000000000000000000000000000000000000000000000000000000000000000000000000000000000000000000000000000000000000000000000000000000000000000000000000",
                    "coinbase" : "0x68795c4aa09d6f4ed3e5deddf8c2ad3049a601da",
                    "difficulty" : "0x020000",
                    "extraData" : "0x",
                    "gasLimit" : "0x3d37ef",
                    "gasUsed" : "0x0852f1",
                    "hash" : "0xf520b2de9b5d584076af2588a460f36949f8397b1ae149f2b5d8da40036adb22",
                    "mixHash" : "0x0000000000000000000000000000000000000000000000000000000000000000",
                    "nonce" : "0x0000000000000000",
                    "number" : "0x01",
                    "parentHash" : "0x2118829a9759bb62ed2abe42ed2598a8e3d842cb41576be1c436b9f6dbd9cedc",
                    "receiptTrie" : "0xc2ee876396c80e2ef2a58454aa541406e4d62cbc84a03126c2aef72bb80c9ad5",
                    "stateRoot" : "0x99d0ce2bb40ba241624110296a64df117f8bb22033bab625707c092855f6a0e6",
                    "timestamp" : "0x03e8",
                    "transactionsTrie" : "0xa1d689555f5507532577bbf8d1f8223e0dcba57a4715179a896f8406627710d8",
                    "uncleHash" : "0x1dcc4de8dec75d7aab85b567b6ccd41ad312451b948a7413f0a142fd40d49347"
                },
                "rlp" : "0xf902e1f901f8a02118829a9759bb62ed2abe42ed2598a8e3d842cb41576be1c436b9f6dbd9cedca01dcc4de8dec75d7aab85b567b6ccd41ad312451b948a7413f0a142fd40d493479468795c4aa09d6f4ed3e5deddf8c2ad3049a601daa099d0ce2bb40ba241624110296a64df117f8bb22033bab625707c092855f6a0e6a0a1d689555f5507532577bbf8d1f8223e0dcba57a4715179a896f8406627710d8a0c2ee876396c80e2ef2a58454aa541406e4d62cbc84a03126c2aef72bb80c9ad5b90100000000000000000000000000000000000000000000000000000000000000000000000000000000000000000000000000000000000000000000000000000000000000000000000000000000000000000000000000000000000000000000000000000000000000000000000000000000000000000000000000000000000000000000000000000000000000000000000000000000000000000000000000000000000000000000000000000000000000000000000000000000000000000000000000000000000000000000000000000000000000000000000000000000000000000000000000000000000000000000000000000000000000000000000000000000008302000001833d37ef830852f18203e880a00000000000000000000000000000000000000000000000000000000000000000880000000000000000f8e3f8e10101830f424094b94f5374fce5edbc8e2a8697c15331677e6ebf0b80b8800f25929bcb43d5a57391564615c9e70a992b10eafa4db109709649cf48c50dd216da2f5cb6be7a0aa72c440c53c9bbdfec6c36c7d515536431b3a865468acbba0f25919bcb43d5a57391564615c9e70a992b10eafa4db109709649cf48c50dd216da2f5cb6be7a0aa72c440c53c9bbdfec6c36c7d515536431b3a865468acbba1ca01c8f89e7a99bde18c0936cca94bed25ef43aed8845bb17d2900e1262d4479e99a03c2960f7148a3cfe4a32a0f6e8799fc5dc0b41a72f8ef7c10890c42f1faddf5ec0",
                "transactions" : [
                    {
                        "data" : "0x0f25929bcb43d5a57391564615c9e70a992b10eafa4db109709649cf48c50dd216da2f5cb6be7a0aa72c440c53c9bbdfec6c36c7d515536431b3a865468acbba0f25919bcb43d5a57391564615c9e70a992b10eafa4db109709649cf48c50dd216da2f5cb6be7a0aa72c440c53c9bbdfec6c36c7d515536431b3a865468acbba",
                        "gasLimit" : "0x0f4240",
                        "gasPrice" : "0x01",
                        "nonce" : "0x01",
                        "r" : "0x1c8f89e7a99bde18c0936cca94bed25ef43aed8845bb17d2900e1262d4479e99",
                        "s" : "0x3c2960f7148a3cfe4a32a0f6e8799fc5dc0b41a72f8ef7c10890c42f1faddf5e",
                        "to" : "0xb94f5374fce5edbc8e2a8697c15331677e6ebf0b",
                        "v" : "0x1c",
                        "value" : "0x00"
                    }
                ],
                "uncleHeaders" : [
                ]
            }
        ],
        "genesisBlockHeader" : {
            "bloom" : "0x00000000000000000000000000000000000000000000000000000000000000000000000000000000000000000000000000000000000000000000000000000000000000000000000000000000000000000000000000000000000000000000000000000000000000000000000000000000000000000000000000000000000000000000000000000000000000000000000000000000000000000000000000000000000000000000000000000000000000000000000000000000000000000000000000000000000000000000000000000000000000000000000000000000000000000000000000000000000000000000000000000000000000000000000000000000",
            "coinbase" : "0x68795c4aa09d6f4ed3e5deddf8c2ad3049a601da",
            "difficulty" : "0x020000",
            "extraData" : "0x42",
            "gasLimit" : "0x3d37ef",
            "gasUsed" : "0x00",
            "hash" : "0x2118829a9759bb62ed2abe42ed2598a8e3d842cb41576be1c436b9f6dbd9cedc",
            "mixHash" : "0x56e81f171bcc55a6ff8345e692c0f86e5b48e01b996cadc001622fb5e363b421",
            "nonce" : "0x0102030405060708",
            "number" : "0x00",
            "parentHash" : "0x0000000000000000000000000000000000000000000000000000000000000000",
            "receiptTrie" : "0x56e81f171bcc55a6ff8345e692c0f86e5b48e01b996cadc001622fb5e363b421",
            "stateRoot" : "0x95a0fc3312fd9e68d98cef6cb2a346c69bc7f2cd87d6c9b2dffdf4b49262223f",
            "timestamp" : "0x03b6",
            "transactionsTrie" : "0x56e81f171bcc55a6ff8345e692c0f86e5b48e01b996cadc001622fb5e363b421",
            "uncleHash" : "0x1dcc4de8dec75d7aab85b567b6ccd41ad312451b948a7413f0a142fd40d49347"
        },
        "genesisRLP" : "0xf901faf901f5a00000000000000000000000000000000000000000000000000000000000000000a01dcc4de8dec75d7aab85b567b6ccd41ad312451b948a7413f0a142fd40d493479468795c4aa09d6f4ed3e5deddf8c2ad3049a601daa095a0fc3312fd9e68d98cef6cb2a346c69bc7f2cd87d6c9b2dffdf4b49262223fa056e81f171bcc55a6ff8345e692c0f86e5b48e01b996cadc001622fb5e363b421a056e81f171bcc55a6ff8345e692c0f86e5b48e01b996cadc001622fb5e363b421b90100000000000000000000000000000000000000000000000000000000000000000000000000000000000000000000000000000000000000000000000000000000000000000000000000000000000000000000000000000000000000000000000000000000000000000000000000000000000000000000000000000000000000000000000000000000000000000000000000000000000000000000000000000000000000000000000000000000000000000000000000000000000000000000000000000000000000000000000000000000000000000000000000000000000000000000000000000000000000000000000000000000000000000000000000000000008302000080833d37ef808203b642a056e81f171bcc55a6ff8345e692c0f86e5b48e01b996cadc001622fb5e363b421880102030405060708c0c0",
        "lastblockhash" : "0xf520b2de9b5d584076af2588a460f36949f8397b1ae149f2b5d8da40036adb22",
        "network" : "ConstantinopleFix",
        "postState" : {
            "0x68795c4aa09d6f4ed3e5deddf8c2ad3049a601da" : {
                "balance" : "0x1bc16d674ed052f1",
                "code" : "0x",
                "nonce" : "0x00",
                "storage" : {
                }
            },
            "0xa94f5374fce5edbc8e2a8697c15331677e6ebf0b" : {
                "balance" : "0x0de0b6b3a75bad0f",
                "code" : "0x",
                "nonce" : "0x02",
                "storage" : {
                }
            },
            "0xb94f5374fce5edbc8e2a8697c15331677e6ebf0b" : {
                "balance" : "0x00",
                "code" : "0x600035600052602035602052604035604052606035606052604060c860806000600060066207a120f260005560c85160015560e851600255",
                "nonce" : "0x00",
                "storage" : {
                }
            }
        },
        "pre" : {
            "0xa94f5374fce5edbc8e2a8697c15331677e6ebf0b" : {
                "balance" : "0x0de0b6b3a7640000",
                "code" : "0x",
                "nonce" : "0x01",
                "storage" : {
                }
            },
            "0xb94f5374fce5edbc8e2a8697c15331677e6ebf0b" : {
                "balance" : "0x00",
                "code" : "0x600035600052602035602052604035604052606035606052604060c860806000600060066207a120f260005560c85160015560e851600255",
                "nonce" : "0x00",
                "storage" : {
                }
            }
        },
        "sealEngine" : "NoProof"
    },
    "pointAdd_d2g0v0_Homestead" : {
        "_info" : {
            "comment" : "",
            "filledwith" : "testeth 1.7.0-alpha.1-20+commit.782a7283",
            "lllcversion" : "Version: 0.5.0-develop.2018.11.9+commit.9709dfe0.Linux.g++",
            "source" : "src/BlockchainTestsFiller/GeneralStateTests/stZeroKnowledge/pointAdd_d2g0v0Filler.json",
            "sourceHash" : "b9bc00afdee8898c78720a40b426a186d3b46333fd0b5f6f06aea1fba68a1b4c"
        },
        "blocks" : [
            {
                "blockHeader" : {
                    "bloom" : "0x00000000000000000000000000000000000000000000000000000000000000000000000000000000000000000000000000000000000000000000000000000000000000000000000000000000000000000000000000000000000000000000000000000000000000000000000000000000000000000000000000000000000000000000000000000000000000000000000000000000000000000000000000000000000000000000000000000000000000000000000000000000000000000000000000000000000000000000000000000000000000000000000000000000000000000000000000000000000000000000000000000000000000000000000000000000",
                    "coinbase" : "0x68795c4aa09d6f4ed3e5deddf8c2ad3049a601da",
                    "difficulty" : "0x020000",
                    "extraData" : "0x",
                    "gasLimit" : "0x3d37ef",
                    "gasUsed" : "0xe9d5",
                    "hash" : "0x0989ad91190bf189774f908e6803b75daed2ade7f2919e4ed9830f104521a86b",
                    "mixHash" : "0x0000000000000000000000000000000000000000000000000000000000000000",
                    "nonce" : "0x0000000000000000",
                    "number" : "0x01",
                    "parentHash" : "0x2118829a9759bb62ed2abe42ed2598a8e3d842cb41576be1c436b9f6dbd9cedc",
                    "receiptTrie" : "0x04c59504e2669a0f97adf2edb659e9a9316e6eeb66f107d8c05a5450d90e7a3c",
                    "stateRoot" : "0xa72bec852228268834417603c3e40c2ded9caaf4ab114955c49bf33b964cdf7d",
                    "timestamp" : "0x03e8",
                    "transactionsTrie" : "0xa1d689555f5507532577bbf8d1f8223e0dcba57a4715179a896f8406627710d8",
                    "uncleHash" : "0x1dcc4de8dec75d7aab85b567b6ccd41ad312451b948a7413f0a142fd40d49347"
                },
                "rlp" : "0xf902e0f901f7a02118829a9759bb62ed2abe42ed2598a8e3d842cb41576be1c436b9f6dbd9cedca01dcc4de8dec75d7aab85b567b6ccd41ad312451b948a7413f0a142fd40d493479468795c4aa09d6f4ed3e5deddf8c2ad3049a601daa0a72bec852228268834417603c3e40c2ded9caaf4ab114955c49bf33b964cdf7da0a1d689555f5507532577bbf8d1f8223e0dcba57a4715179a896f8406627710d8a004c59504e2669a0f97adf2edb659e9a9316e6eeb66f107d8c05a5450d90e7a3cb90100000000000000000000000000000000000000000000000000000000000000000000000000000000000000000000000000000000000000000000000000000000000000000000000000000000000000000000000000000000000000000000000000000000000000000000000000000000000000000000000000000000000000000000000000000000000000000000000000000000000000000000000000000000000000000000000000000000000000000000000000000000000000000000000000000000000000000000000000000000000000000000000000000000000000000000000000000000000000000000000000000000000000000000000000000000008302000001833d37ef82e9d58203e880a00000000000000000000000000000000000000000000000000000000000000000880000000000000000f8e3f8e10101830f424094b94f5374fce5edbc8e2a8697c15331677e6ebf0b80b8800f25929bcb43d5a57391564615c9e70a992b10eafa4db109709649cf48c50dd216da2f5cb6be7a0aa72c440c53c9bbdfec6c36c7d515536431b3a865468acbba0f25919bcb43d5a57391564615c9e70a992b10eafa4db109709649cf48c50dd216da2f5cb6be7a0aa72c440c53c9bbdfec6c36c7d515536431b3a865468acbba1ca01c8f89e7a99bde18c0936cca94bed25ef43aed8845bb17d2900e1262d4479e99a03c2960f7148a3cfe4a32a0f6e8799fc5dc0b41a72f8ef7c10890c42f1faddf5ec0",
                "transactions" : [
                    {
                        "data" : "0x0f25929bcb43d5a57391564615c9e70a992b10eafa4db109709649cf48c50dd216da2f5cb6be7a0aa72c440c53c9bbdfec6c36c7d515536431b3a865468acbba0f25919bcb43d5a57391564615c9e70a992b10eafa4db109709649cf48c50dd216da2f5cb6be7a0aa72c440c53c9bbdfec6c36c7d515536431b3a865468acbba",
                        "gasLimit" : "0x0f4240",
                        "gasPrice" : "0x01",
                        "nonce" : "0x01",
                        "r" : "0x1c8f89e7a99bde18c0936cca94bed25ef43aed8845bb17d2900e1262d4479e99",
                        "s" : "0x3c2960f7148a3cfe4a32a0f6e8799fc5dc0b41a72f8ef7c10890c42f1faddf5e",
                        "to" : "0xb94f5374fce5edbc8e2a8697c15331677e6ebf0b",
                        "v" : "0x1c",
                        "value" : "0x00"
                    }
                ],
                "uncleHeaders" : [
                ]
            }
        ],
        "genesisBlockHeader" : {
            "bloom" : "0x00000000000000000000000000000000000000000000000000000000000000000000000000000000000000000000000000000000000000000000000000000000000000000000000000000000000000000000000000000000000000000000000000000000000000000000000000000000000000000000000000000000000000000000000000000000000000000000000000000000000000000000000000000000000000000000000000000000000000000000000000000000000000000000000000000000000000000000000000000000000000000000000000000000000000000000000000000000000000000000000000000000000000000000000000000000",
            "coinbase" : "0x68795c4aa09d6f4ed3e5deddf8c2ad3049a601da",
            "difficulty" : "0x020000",
            "extraData" : "0x42",
            "gasLimit" : "0x3d37ef",
            "gasUsed" : "0x00",
            "hash" : "0x2118829a9759bb62ed2abe42ed2598a8e3d842cb41576be1c436b9f6dbd9cedc",
            "mixHash" : "0x56e81f171bcc55a6ff8345e692c0f86e5b48e01b996cadc001622fb5e363b421",
            "nonce" : "0x0102030405060708",
            "number" : "0x00",
            "parentHash" : "0x0000000000000000000000000000000000000000000000000000000000000000",
            "receiptTrie" : "0x56e81f171bcc55a6ff8345e692c0f86e5b48e01b996cadc001622fb5e363b421",
            "stateRoot" : "0x95a0fc3312fd9e68d98cef6cb2a346c69bc7f2cd87d6c9b2dffdf4b49262223f",
            "timestamp" : "0x03b6",
            "transactionsTrie" : "0x56e81f171bcc55a6ff8345e692c0f86e5b48e01b996cadc001622fb5e363b421",
            "uncleHash" : "0x1dcc4de8dec75d7aab85b567b6ccd41ad312451b948a7413f0a142fd40d49347"
        },
        "genesisRLP" : "0xf901faf901f5a00000000000000000000000000000000000000000000000000000000000000000a01dcc4de8dec75d7aab85b567b6ccd41ad312451b948a7413f0a142fd40d493479468795c4aa09d6f4ed3e5deddf8c2ad3049a601daa095a0fc3312fd9e68d98cef6cb2a346c69bc7f2cd87d6c9b2dffdf4b49262223fa056e81f171bcc55a6ff8345e692c0f86e5b48e01b996cadc001622fb5e363b421a056e81f171bcc55a6ff8345e692c0f86e5b48e01b996cadc001622fb5e363b421b90100000000000000000000000000000000000000000000000000000000000000000000000000000000000000000000000000000000000000000000000000000000000000000000000000000000000000000000000000000000000000000000000000000000000000000000000000000000000000000000000000000000000000000000000000000000000000000000000000000000000000000000000000000000000000000000000000000000000000000000000000000000000000000000000000000000000000000000000000000000000000000000000000000000000000000000000000000000000000000000000000000000000000000000000000000000008302000080833d37ef808203b642a056e81f171bcc55a6ff8345e692c0f86e5b48e01b996cadc001622fb5e363b421880102030405060708c0c0",
        "lastblockhash" : "0x0989ad91190bf189774f908e6803b75daed2ade7f2919e4ed9830f104521a86b",
        "network" : "Homestead",
        "postState" : {
            "0x68795c4aa09d6f4ed3e5deddf8c2ad3049a601da" : {
                "balance" : "0x4563918244f4e9d5",
                "code" : "0x",
                "nonce" : "0x00",
                "storage" : {
                }
            },
            "0xa94f5374fce5edbc8e2a8697c15331677e6ebf0b" : {
                "balance" : "0x0de0b6b3a763162b",
                "code" : "0x",
                "nonce" : "0x02",
                "storage" : {
                }
            },
            "0xb94f5374fce5edbc8e2a8697c15331677e6ebf0b" : {
                "balance" : "0x00",
                "code" : "0x600035600052602035602052604035604052606035606052604060c860806000600060066207a120f260005560c85160015560e851600255",
                "nonce" : "0x00",
                "storage" : {
                    "0x00" : "0x01"
                }
            }
        },
        "pre" : {
            "0xa94f5374fce5edbc8e2a8697c15331677e6ebf0b" : {
                "balance" : "0x0de0b6b3a7640000",
                "code" : "0x",
                "nonce" : "0x01",
                "storage" : {
                }
            },
            "0xb94f5374fce5edbc8e2a8697c15331677e6ebf0b" : {
                "balance" : "0x00",
                "code" : "0x600035600052602035602052604035604052606035606052604060c860806000600060066207a120f260005560c85160015560e851600255",
                "nonce" : "0x00",
                "storage" : {
                }
            }
        },
        "sealEngine" : "NoProof"
    }
}