{
    "pointMulAdd2_d27g0v0_Byzantium" : {
        "_info" : {
            "comment" : "",
            "filledwith" : "testeth 1.7.0-alpha.1-20+commit.782a7283",
            "lllcversion" : "Version: 0.5.0-develop.2018.11.9+commit.9709dfe0.Linux.g++",
            "source" : "src/BlockchainTestsFiller/GeneralStateTests/stZeroKnowledge/pointMulAdd2_d27g0v0Filler.json",
            "sourceHash" : "73b498400c19cf8185c00602c82ad660000bf701a51f22aa2d1bd7c88b5ff619"
        },
        "blocks" : [
            {
                "blockHeader" : {
                    "bloom" : "0x00000000000000000000000000000000000000000000000000000000000000000000000000000000000000000000000000000000000000000000000000000000000000000000000000000000000000000000000000000000000000000000000000000000000000000000000000000000000000000000000000000000000000000000000000000000000000000000000000000000000000000000000000000000000000000000000000000000000000000000000000000000000000000000000000000000000000000000000000000000000000000000000000000000000000000000000000000000000000000000000000000000000000000000000000000000",
                    "coinbase" : "0x68795c4aa09d6f4ed3e5deddf8c2ad3049a601da",
                    "difficulty" : "0x020000",
                    "extraData" : "0x",
                    "gasLimit" : "0x3d37ef",
                    "gasUsed" : "0x037e41",
                    "hash" : "0x0dcf9d06272ff163a0f8c5750e9f2e62b76ff52a9ff0cdc1cbcb23186e303642",
                    "mixHash" : "0x0000000000000000000000000000000000000000000000000000000000000000",
                    "nonce" : "0x0000000000000000",
                    "number" : "0x01",
                    "parentHash" : "0x9b25016c45ce0e295a463681361471a29c00aea06cba17cbc22894ce6d2c1def",
                    "receiptTrie" : "0x3623bb8aabc7fa80bdb14e1a0890808ad581f36eef6dd1cc4c920eba7afb1768",
                    "stateRoot" : "0xe0af7100bbd671501de7e6757af2c71c0d8720aa33631833a5eeac887bbf33d4",
                    "timestamp" : "0x03e8",
                    "transactionsTrie" : "0xaf36f941a440d7a06f2d859282ad0fd2803a8b3e22154c9df60653c22a58b09e",
                    "uncleHash" : "0x1dcc4de8dec75d7aab85b567b6ccd41ad312451b948a7413f0a142fd40d49347"
                },
                "rlp" : "0xf90343f901f8a09b25016c45ce0e295a463681361471a29c00aea06cba17cbc22894ce6d2c1defa01dcc4de8dec75d7aab85b567b6ccd41ad312451b948a7413f0a142fd40d493479468795c4aa09d6f4ed3e5deddf8c2ad3049a601daa0e0af7100bbd671501de7e6757af2c71c0d8720aa33631833a5eeac887bbf33d4a0af36f941a440d7a06f2d859282ad0fd2803a8b3e22154c9df60653c22a58b09ea03623bb8aabc7fa80bdb14e1a0890808ad581f36eef6dd1cc4c920eba7afb1768b90100000000000000000000000000000000000000000000000000000000000000000000000000000000000000000000000000000000000000000000000000000000000000000000000000000000000000000000000000000000000000000000000000000000000000000000000000000000000000000000000000000000000000000000000000000000000000000000000000000000000000000000000000000000000000000000000000000000000000000000000000000000000000000000000000000000000000000000000000000000000000000000000000000000000000000000000000000000000000000000000000000000000000000000000000000000008302000001833d37ef83037e418203e880a00000000000000000000000000000000000000000000000000000000000000000880000000000000000f90144f901410101831e848094b94f5374fce5edbc8e2a8697c15331677e6ebf0b80b8e0000000000000000000000000000000000000000000000000000000000000000130644e72e131a029b85045b68181585d97816a916871ca8d3c208c16d87cfd45000000000000000000000000000000000000000000000000000000000000000000000000000000000000000000000000000000000000000000000000000000000000000000000000000000000000000000000000000000000000000000000001000000000000000000000000000000000000000000000000000000000000000230644e72e131a029b85045b68181585d2833e84879b9709143e1f593f00000001ba045a734030e0d129c94f0e4b6c86142b226aeea985e68bb69ee5a4aaa8a9abedfa0450af162f03dc716b48ffd1b85df954058b5c47daedd0fb0a590a3031d276f55c0",
                "transactions" : [
                    {
                        "data" : "0x000000000000000000000000000000000000000000000000000000000000000130644e72e131a029b85045b68181585d97816a916871ca8d3c208c16d87cfd45000000000000000000000000000000000000000000000000000000000000000000000000000000000000000000000000000000000000000000000000000000000000000000000000000000000000000000000000000000000000000000000001000000000000000000000000000000000000000000000000000000000000000230644e72e131a029b85045b68181585d2833e84879b9709143e1f593f0000000",
                        "gasLimit" : "0x1e8480",
                        "gasPrice" : "0x01",
                        "nonce" : "0x01",
                        "r" : "0x45a734030e0d129c94f0e4b6c86142b226aeea985e68bb69ee5a4aaa8a9abedf",
                        "s" : "0x450af162f03dc716b48ffd1b85df954058b5c47daedd0fb0a590a3031d276f55",
                        "to" : "0xb94f5374fce5edbc8e2a8697c15331677e6ebf0b",
                        "v" : "0x1b",
                        "value" : "0x00"
                    }
                ],
                "uncleHeaders" : [
                ]
            }
        ],
        "genesisBlockHeader" : {
            "bloom" : "0x00000000000000000000000000000000000000000000000000000000000000000000000000000000000000000000000000000000000000000000000000000000000000000000000000000000000000000000000000000000000000000000000000000000000000000000000000000000000000000000000000000000000000000000000000000000000000000000000000000000000000000000000000000000000000000000000000000000000000000000000000000000000000000000000000000000000000000000000000000000000000000000000000000000000000000000000000000000000000000000000000000000000000000000000000000000",
            "coinbase" : "0x68795c4aa09d6f4ed3e5deddf8c2ad3049a601da",
            "difficulty" : "0x020000",
            "extraData" : "0x42",
            "gasLimit" : "0x3d37ef",
            "gasUsed" : "0x00",
            "hash" : "0x9b25016c45ce0e295a463681361471a29c00aea06cba17cbc22894ce6d2c1def",
            "mixHash" : "0x56e81f171bcc55a6ff8345e692c0f86e5b48e01b996cadc001622fb5e363b421",
            "nonce" : "0x0102030405060708",
            "number" : "0x00",
            "parentHash" : "0x0000000000000000000000000000000000000000000000000000000000000000",
            "receiptTrie" : "0x56e81f171bcc55a6ff8345e692c0f86e5b48e01b996cadc001622fb5e363b421",
            "stateRoot" : "0xa4db92ceb60668ffcb9642d55fa7fe34cc341b53029d31394d82f0c61462bd99",
            "timestamp" : "0x03b6",
            "transactionsTrie" : "0x56e81f171bcc55a6ff8345e692c0f86e5b48e01b996cadc001622fb5e363b421",
            "uncleHash" : "0x1dcc4de8dec75d7aab85b567b6ccd41ad312451b948a7413f0a142fd40d49347"
        },
        "genesisRLP" : "0xf901faf901f5a00000000000000000000000000000000000000000000000000000000000000000a01dcc4de8dec75d7aab85b567b6ccd41ad312451b948a7413f0a142fd40d493479468795c4aa09d6f4ed3e5deddf8c2ad3049a601daa0a4db92ceb60668ffcb9642d55fa7fe34cc341b53029d31394d82f0c61462bd99a056e81f171bcc55a6ff8345e692c0f86e5b48e01b996cadc001622fb5e363b421a056e81f171bcc55a6ff8345e692c0f86e5b48e01b996cadc001622fb5e363b421b90100000000000000000000000000000000000000000000000000000000000000000000000000000000000000000000000000000000000000000000000000000000000000000000000000000000000000000000000000000000000000000000000000000000000000000000000000000000000000000000000000000000000000000000000000000000000000000000000000000000000000000000000000000000000000000000000000000000000000000000000000000000000000000000000000000000000000000000000000000000000000000000000000000000000000000000000000000000000000000000000000000000000000000000000000000000008302000080833d37ef808203b642a056e81f171bcc55a6ff8345e692c0f86e5b48e01b996cadc001622fb5e363b421880102030405060708c0c0",
        "lastblockhash" : "0x0dcf9d06272ff163a0f8c5750e9f2e62b76ff52a9ff0cdc1cbcb23186e303642",
        "network" : "Byzantium",
        "postState" : {
            "0x68795c4aa09d6f4ed3e5deddf8c2ad3049a601da" : {
                "balance" : "0x29a2241af62f7e41",
                "code" : "0x",
                "nonce" : "0x00",
                "storage" : {
                }
            },
            "0xa94f5374fce5edbc8e2a8697c15331677e6ebf0b" : {
                "balance" : "0x0de0b6b3a76081bf",
                "code" : "0x",
                "nonce" : "0x02",
                "storage" : {
                }
            },
            "0xb94f5374fce5edbc8e2a8697c15331677e6ebf0b" : {
                "balance" : "0x00",
                "code" : "0x60003560005260203560205260403560405260603560605260803560805260a03560a05260c03560c052604061012c60806000600060066207a120f2600055604061019060606080600060076207a120f260015561012c51600a5561014c51600b55610190516014556101b051601555601454600a5414600255601554600b5414600355",
                "nonce" : "0x00",
                "storage" : {
                    "0x00" : "0x01",
                    "0x01" : "0x01",
                    "0x02" : "0x01",
                    "0x03" : "0x01",
                    "0x0a" : "0x01",
                    "0x0b" : "0x30644e72e131a029b85045b68181585d97816a916871ca8d3c208c16d87cfd45",
                    "0x14" : "0x01",
                    "0x15" : "0x30644e72e131a029b85045b68181585d97816a916871ca8d3c208c16d87cfd45"
                }
            }
        },
        "pre" : {
            "0xa94f5374fce5edbc8e2a8697c15331677e6ebf0b" : {
                "balance" : "0x0de0b6b3a7640000",
                "code" : "0x",
                "nonce" : "0x01",
                "storage" : {
                }
            },
            "0xb94f5374fce5edbc8e2a8697c15331677e6ebf0b" : {
                "balance" : "0x00",
                "code" : "0x60003560005260203560205260403560405260603560605260803560805260a03560a05260c03560c052604061012c60806000600060066207a120f2600055604061019060606080600060076207a120f260015561012c51600a5561014c51600b55610190516014556101b051601555601454600a5414600255601554600b5414600355",
                "nonce" : "0x00",
                "storage" : {
                }
            }
        },
        "sealEngine" : "NoProof"
    },
    "pointMulAdd2_d27g0v0_Constantinople" : {
        "_info" : {
            "comment" : "",
            "filledwith" : "testeth 1.7.0-alpha.1-20+commit.782a7283",
            "lllcversion" : "Version: 0.5.0-develop.2018.11.9+commit.9709dfe0.Linux.g++",
            "source" : "src/BlockchainTestsFiller/GeneralStateTests/stZeroKnowledge/pointMulAdd2_d27g0v0Filler.json",
            "sourceHash" : "73b498400c19cf8185c00602c82ad660000bf701a51f22aa2d1bd7c88b5ff619"
        },
        "blocks" : [
            {
                "blockHeader" : {
                    "bloom" : "0x00000000000000000000000000000000000000000000000000000000000000000000000000000000000000000000000000000000000000000000000000000000000000000000000000000000000000000000000000000000000000000000000000000000000000000000000000000000000000000000000000000000000000000000000000000000000000000000000000000000000000000000000000000000000000000000000000000000000000000000000000000000000000000000000000000000000000000000000000000000000000000000000000000000000000000000000000000000000000000000000000000000000000000000000000000000",
                    "coinbase" : "0x68795c4aa09d6f4ed3e5deddf8c2ad3049a601da",
                    "difficulty" : "0x020000",
                    "extraData" : "0x",
                    "gasLimit" : "0x3d37ef",
                    "gasUsed" : "0x037e41",
                    "hash" : "0x0c5c1a51403c95fbe9067cb336ca81a3ae8140a5fc844b405fe6eb249b70bd0c",
                    "mixHash" : "0x0000000000000000000000000000000000000000000000000000000000000000",
                    "nonce" : "0x0000000000000000",
                    "number" : "0x01",
                    "parentHash" : "0x9b25016c45ce0e295a463681361471a29c00aea06cba17cbc22894ce6d2c1def",
                    "receiptTrie" : "0x3623bb8aabc7fa80bdb14e1a0890808ad581f36eef6dd1cc4c920eba7afb1768",
                    "stateRoot" : "0x53ba6b2f8ab2d99121dace7d3ee6eec9f219d1478768bf3af6f3210c724dda6c",
                    "timestamp" : "0x03e8",
                    "transactionsTrie" : "0xaf36f941a440d7a06f2d859282ad0fd2803a8b3e22154c9df60653c22a58b09e",
                    "uncleHash" : "0x1dcc4de8dec75d7aab85b567b6ccd41ad312451b948a7413f0a142fd40d49347"
                },
                "rlp" : "0xf90343f901f8a09b25016c45ce0e295a463681361471a29c00aea06cba17cbc22894ce6d2c1defa01dcc4de8dec75d7aab85b567b6ccd41ad312451b948a7413f0a142fd40d493479468795c4aa09d6f4ed3e5deddf8c2ad3049a601daa053ba6b2f8ab2d99121dace7d3ee6eec9f219d1478768bf3af6f3210c724dda6ca0af36f941a440d7a06f2d859282ad0fd2803a8b3e22154c9df60653c22a58b09ea03623bb8aabc7fa80bdb14e1a0890808ad581f36eef6dd1cc4c920eba7afb1768b90100000000000000000000000000000000000000000000000000000000000000000000000000000000000000000000000000000000000000000000000000000000000000000000000000000000000000000000000000000000000000000000000000000000000000000000000000000000000000000000000000000000000000000000000000000000000000000000000000000000000000000000000000000000000000000000000000000000000000000000000000000000000000000000000000000000000000000000000000000000000000000000000000000000000000000000000000000000000000000000000000000000000000000000000000000000008302000001833d37ef83037e418203e880a00000000000000000000000000000000000000000000000000000000000000000880000000000000000f90144f901410101831e848094b94f5374fce5edbc8e2a8697c15331677e6ebf0b80b8e0000000000000000000000000000000000000000000000000000000000000000130644e72e131a029b85045b68181585d97816a916871ca8d3c208c16d87cfd45000000000000000000000000000000000000000000000000000000000000000000000000000000000000000000000000000000000000000000000000000000000000000000000000000000000000000000000000000000000000000000000001000000000000000000000000000000000000000000000000000000000000000230644e72e131a029b85045b68181585d2833e84879b9709143e1f593f00000001ba045a734030e0d129c94f0e4b6c86142b226aeea985e68bb69ee5a4aaa8a9abedfa0450af162f03dc716b48ffd1b85df954058b5c47daedd0fb0a590a3031d276f55c0",
                "transactions" : [
                    {
                        "data" : "0x000000000000000000000000000000000000000000000000000000000000000130644e72e131a029b85045b68181585d97816a916871ca8d3c208c16d87cfd45000000000000000000000000000000000000000000000000000000000000000000000000000000000000000000000000000000000000000000000000000000000000000000000000000000000000000000000000000000000000000000000001000000000000000000000000000000000000000000000000000000000000000230644e72e131a029b85045b68181585d2833e84879b9709143e1f593f0000000",
                        "gasLimit" : "0x1e8480",
                        "gasPrice" : "0x01",
                        "nonce" : "0x01",
                        "r" : "0x45a734030e0d129c94f0e4b6c86142b226aeea985e68bb69ee5a4aaa8a9abedf",
                        "s" : "0x450af162f03dc716b48ffd1b85df954058b5c47daedd0fb0a590a3031d276f55",
                        "to" : "0xb94f5374fce5edbc8e2a8697c15331677e6ebf0b",
                        "v" : "0x1b",
                        "value" : "0x00"
                    }
                ],
                "uncleHeaders" : [
                ]
            }
        ],
        "genesisBlockHeader" : {
            "bloom" : "0x00000000000000000000000000000000000000000000000000000000000000000000000000000000000000000000000000000000000000000000000000000000000000000000000000000000000000000000000000000000000000000000000000000000000000000000000000000000000000000000000000000000000000000000000000000000000000000000000000000000000000000000000000000000000000000000000000000000000000000000000000000000000000000000000000000000000000000000000000000000000000000000000000000000000000000000000000000000000000000000000000000000000000000000000000000000",
            "coinbase" : "0x68795c4aa09d6f4ed3e5deddf8c2ad3049a601da",
            "difficulty" : "0x020000",
            "extraData" : "0x42",
            "gasLimit" : "0x3d37ef",
            "gasUsed" : "0x00",
            "hash" : "0x9b25016c45ce0e295a463681361471a29c00aea06cba17cbc22894ce6d2c1def",
            "mixHash" : "0x56e81f171bcc55a6ff8345e692c0f86e5b48e01b996cadc001622fb5e363b421",
            "nonce" : "0x0102030405060708",
            "number" : "0x00",
            "parentHash" : "0x0000000000000000000000000000000000000000000000000000000000000000",
            "receiptTrie" : "0x56e81f171bcc55a6ff8345e692c0f86e5b48e01b996cadc001622fb5e363b421",
            "stateRoot" : "0xa4db92ceb60668ffcb9642d55fa7fe34cc341b53029d31394d82f0c61462bd99",
            "timestamp" : "0x03b6",
            "transactionsTrie" : "0x56e81f171bcc55a6ff8345e692c0f86e5b48e01b996cadc001622fb5e363b421",
            "uncleHash" : "0x1dcc4de8dec75d7aab85b567b6ccd41ad312451b948a7413f0a142fd40d49347"
        },
        "genesisRLP" : "0xf901faf901f5a00000000000000000000000000000000000000000000000000000000000000000a01dcc4de8dec75d7aab85b567b6ccd41ad312451b948a7413f0a142fd40d493479468795c4aa09d6f4ed3e5deddf8c2ad3049a601daa0a4db92ceb60668ffcb9642d55fa7fe34cc341b53029d31394d82f0c61462bd99a056e81f171bcc55a6ff8345e692c0f86e5b48e01b996cadc001622fb5e363b421a056e81f171bcc55a6ff8345e692c0f86e5b48e01b996cadc001622fb5e363b421b90100000000000000000000000000000000000000000000000000000000000000000000000000000000000000000000000000000000000000000000000000000000000000000000000000000000000000000000000000000000000000000000000000000000000000000000000000000000000000000000000000000000000000000000000000000000000000000000000000000000000000000000000000000000000000000000000000000000000000000000000000000000000000000000000000000000000000000000000000000000000000000000000000000000000000000000000000000000000000000000000000000000000000000000000000000000008302000080833d37ef808203b642a056e81f171bcc55a6ff8345e692c0f86e5b48e01b996cadc001622fb5e363b421880102030405060708c0c0",
        "lastblockhash" : "0x0c5c1a51403c95fbe9067cb336ca81a3ae8140a5fc844b405fe6eb249b70bd0c",
        "network" : "Constantinople",
        "postState" : {
            "0x68795c4aa09d6f4ed3e5deddf8c2ad3049a601da" : {
                "balance" : "0x1bc16d674ecb7e41",
                "code" : "0x",
                "nonce" : "0x00",
                "storage" : {
                }
            },
            "0xa94f5374fce5edbc8e2a8697c15331677e6ebf0b" : {
                "balance" : "0x0de0b6b3a76081bf",
                "code" : "0x",
                "nonce" : "0x02",
                "storage" : {
                }
            },
            "0xb94f5374fce5edbc8e2a8697c15331677e6ebf0b" : {
                "balance" : "0x00",
                "code" : "0x60003560005260203560205260403560405260603560605260803560805260a03560a05260c03560c052604061012c60806000600060066207a120f2600055604061019060606080600060076207a120f260015561012c51600a5561014c51600b55610190516014556101b051601555601454600a5414600255601554600b5414600355",
                "nonce" : "0x00",
                "storage" : {
                    "0x00" : "0x01",
                    "0x01" : "0x01",
                    "0x02" : "0x01",
                    "0x03" : "0x01",
                    "0x0a" : "0x01",
                    "0x0b" : "0x30644e72e131a029b85045b68181585d97816a916871ca8d3c208c16d87cfd45",
                    "0x14" : "0x01",
                    "0x15" : "0x30644e72e131a029b85045b68181585d97816a916871ca8d3c208c16d87cfd45"
                }
            }
        },
        "pre" : {
            "0xa94f5374fce5edbc8e2a8697c15331677e6ebf0b" : {
                "balance" : "0x0de0b6b3a7640000",
                "code" : "0x",
                "nonce" : "0x01",
                "storage" : {
                }
            },
            "0xb94f5374fce5edbc8e2a8697c15331677e6ebf0b" : {
                "balance" : "0x00",
                "code" : "0x60003560005260203560205260403560405260603560605260803560805260a03560a05260c03560c052604061012c60806000600060066207a120f2600055604061019060606080600060076207a120f260015561012c51600a5561014c51600b55610190516014556101b051601555601454600a5414600255601554600b5414600355",
                "nonce" : "0x00",
                "storage" : {
                }
            }
        },
        "sealEngine" : "NoProof"
    },
    "pointMulAdd2_d27g0v0_ConstantinopleFix" : {
        "_info" : {
            "comment" : "",
            "filledwith" : "testeth 1.7.0-alpha.1-20+commit.782a7283",
            "lllcversion" : "Version: 0.5.0-develop.2018.11.9+commit.9709dfe0.Linux.g++",
            "source" : "src/BlockchainTestsFiller/GeneralStateTests/stZeroKnowledge/pointMulAdd2_d27g0v0Filler.json",
            "sourceHash" : "73b498400c19cf8185c00602c82ad660000bf701a51f22aa2d1bd7c88b5ff619"
        },
        "blocks" : [
            {
                "blockHeader" : {
                    "bloom" : "0x00000000000000000000000000000000000000000000000000000000000000000000000000000000000000000000000000000000000000000000000000000000000000000000000000000000000000000000000000000000000000000000000000000000000000000000000000000000000000000000000000000000000000000000000000000000000000000000000000000000000000000000000000000000000000000000000000000000000000000000000000000000000000000000000000000000000000000000000000000000000000000000000000000000000000000000000000000000000000000000000000000000000000000000000000000000",
                    "coinbase" : "0x68795c4aa09d6f4ed3e5deddf8c2ad3049a601da",
                    "difficulty" : "0x020000",
                    "extraData" : "0x",
                    "gasLimit" : "0x3d37ef",
                    "gasUsed" : "0x037e41",
                    "hash" : "0x0c5c1a51403c95fbe9067cb336ca81a3ae8140a5fc844b405fe6eb249b70bd0c",
                    "mixHash" : "0x0000000000000000000000000000000000000000000000000000000000000000",
                    "nonce" : "0x0000000000000000",
                    "number" : "0x01",
                    "parentHash" : "0x9b25016c45ce0e295a463681361471a29c00aea06cba17cbc22894ce6d2c1def",
                    "receiptTrie" : "0x3623bb8aabc7fa80bdb14e1a0890808ad581f36eef6dd1cc4c920eba7afb1768",
                    "stateRoot" : "0x53ba6b2f8ab2d99121dace7d3ee6eec9f219d1478768bf3af6f3210c724dda6c",
                    "timestamp" : "0x03e8",
                    "transactionsTrie" : "0xaf36f941a440d7a06f2d859282ad0fd2803a8b3e22154c9df60653c22a58b09e",
                    "uncleHash" : "0x1dcc4de8dec75d7aab85b567b6ccd41ad312451b948a7413f0a142fd40d49347"
                },
                "rlp" : "0xf90343f901f8a09b25016c45ce0e295a463681361471a29c00aea06cba17cbc22894ce6d2c1defa01dcc4de8dec75d7aab85b567b6ccd41ad312451b948a7413f0a142fd40d493479468795c4aa09d6f4ed3e5deddf8c2ad3049a601daa053ba6b2f8ab2d99121dace7d3ee6eec9f219d1478768bf3af6f3210c724dda6ca0af36f941a440d7a06f2d859282ad0fd2803a8b3e22154c9df60653c22a58b09ea03623bb8aabc7fa80bdb14e1a0890808ad581f36eef6dd1cc4c920eba7afb1768b90100000000000000000000000000000000000000000000000000000000000000000000000000000000000000000000000000000000000000000000000000000000000000000000000000000000000000000000000000000000000000000000000000000000000000000000000000000000000000000000000000000000000000000000000000000000000000000000000000000000000000000000000000000000000000000000000000000000000000000000000000000000000000000000000000000000000000000000000000000000000000000000000000000000000000000000000000000000000000000000000000000000000000000000000000000000008302000001833d37ef83037e418203e880a00000000000000000000000000000000000000000000000000000000000000000880000000000000000f90144f901410101831e848094b94f5374fce5edbc8e2a8697c15331677e6ebf0b80b8e0000000000000000000000000000000000000000000000000000000000000000130644e72e131a029b85045b68181585d97816a916871ca8d3c208c16d87cfd45000000000000000000000000000000000000000000000000000000000000000000000000000000000000000000000000000000000000000000000000000000000000000000000000000000000000000000000000000000000000000000000001000000000000000000000000000000000000000000000000000000000000000230644e72e131a029b85045b68181585d2833e84879b9709143e1f593f00000001ba045a734030e0d129c94f0e4b6c86142b226aeea985e68bb69ee5a4aaa8a9abedfa0450af162f03dc716b48ffd1b85df954058b5c47daedd0fb0a590a3031d276f55c0",
                "transactions" : [
                    {
                        "data" : "0x000000000000000000000000000000000000000000000000000000000000000130644e72e131a029b85045b68181585d97816a916871ca8d3c208c16d87cfd45000000000000000000000000000000000000000000000000000000000000000000000000000000000000000000000000000000000000000000000000000000000000000000000000000000000000000000000000000000000000000000000001000000000000000000000000000000000000000000000000000000000000000230644e72e131a029b85045b68181585d2833e84879b9709143e1f593f0000000",
                        "gasLimit" : "0x1e8480",
                        "gasPrice" : "0x01",
                        "nonce" : "0x01",
                        "r" : "0x45a734030e0d129c94f0e4b6c86142b226aeea985e68bb69ee5a4aaa8a9abedf",
                        "s" : "0x450af162f03dc716b48ffd1b85df954058b5c47daedd0fb0a590a3031d276f55",
                        "to" : "0xb94f5374fce5edbc8e2a8697c15331677e6ebf0b",
                        "v" : "0x1b",
                        "value" : "0x00"
                    }
                ],
                "uncleHeaders" : [
                ]
            }
        ],
        "genesisBlockHeader" : {
            "bloom" : "0x00000000000000000000000000000000000000000000000000000000000000000000000000000000000000000000000000000000000000000000000000000000000000000000000000000000000000000000000000000000000000000000000000000000000000000000000000000000000000000000000000000000000000000000000000000000000000000000000000000000000000000000000000000000000000000000000000000000000000000000000000000000000000000000000000000000000000000000000000000000000000000000000000000000000000000000000000000000000000000000000000000000000000000000000000000000",
            "coinbase" : "0x68795c4aa09d6f4ed3e5deddf8c2ad3049a601da",
            "difficulty" : "0x020000",
            "extraData" : "0x42",
            "gasLimit" : "0x3d37ef",
            "gasUsed" : "0x00",
            "hash" : "0x9b25016c45ce0e295a463681361471a29c00aea06cba17cbc22894ce6d2c1def",
            "mixHash" : "0x56e81f171bcc55a6ff8345e692c0f86e5b48e01b996cadc001622fb5e363b421",
            "nonce" : "0x0102030405060708",
            "number" : "0x00",
            "parentHash" : "0x0000000000000000000000000000000000000000000000000000000000000000",
            "receiptTrie" : "0x56e81f171bcc55a6ff8345e692c0f86e5b48e01b996cadc001622fb5e363b421",
            "stateRoot" : "0xa4db92ceb60668ffcb9642d55fa7fe34cc341b53029d31394d82f0c61462bd99",
            "timestamp" : "0x03b6",
            "transactionsTrie" : "0x56e81f171bcc55a6ff8345e692c0f86e5b48e01b996cadc001622fb5e363b421",
            "uncleHash" : "0x1dcc4de8dec75d7aab85b567b6ccd41ad312451b948a7413f0a142fd40d49347"
        },
        "genesisRLP" : "0xf901faf901f5a00000000000000000000000000000000000000000000000000000000000000000a01dcc4de8dec75d7aab85b567b6ccd41ad312451b948a7413f0a142fd40d493479468795c4aa09d6f4ed3e5deddf8c2ad3049a601daa0a4db92ceb60668ffcb9642d55fa7fe34cc341b53029d31394d82f0c61462bd99a056e81f171bcc55a6ff8345e692c0f86e5b48e01b996cadc001622fb5e363b421a056e81f171bcc55a6ff8345e692c0f86e5b48e01b996cadc001622fb5e363b421b90100000000000000000000000000000000000000000000000000000000000000000000000000000000000000000000000000000000000000000000000000000000000000000000000000000000000000000000000000000000000000000000000000000000000000000000000000000000000000000000000000000000000000000000000000000000000000000000000000000000000000000000000000000000000000000000000000000000000000000000000000000000000000000000000000000000000000000000000000000000000000000000000000000000000000000000000000000000000000000000000000000000000000000000000000000000008302000080833d37ef808203b642a056e81f171bcc55a6ff8345e692c0f86e5b48e01b996cadc001622fb5e363b421880102030405060708c0c0",
        "lastblockhash" : "0x0c5c1a51403c95fbe9067cb336ca81a3ae8140a5fc844b405fe6eb249b70bd0c",
        "network" : "ConstantinopleFix",
        "postState" : {
            "0x68795c4aa09d6f4ed3e5deddf8c2ad3049a601da" : {
                "balance" : "0x1bc16d674ecb7e41",
                "code" : "0x",
                "nonce" : "0x00",
                "storage" : {
                }
            },
            "0xa94f5374fce5edbc8e2a8697c15331677e6ebf0b" : {
                "balance" : "0x0de0b6b3a76081bf",
                "code" : "0x",
                "nonce" : "0x02",
                "storage" : {
                }
            },
            "0xb94f5374fce5edbc8e2a8697c15331677e6ebf0b" : {
                "balance" : "0x00",
                "code" : "0x60003560005260203560205260403560405260603560605260803560805260a03560a05260c03560c052604061012c60806000600060066207a120f2600055604061019060606080600060076207a120f260015561012c51600a5561014c51600b55610190516014556101b051601555601454600a5414600255601554600b5414600355",
                "nonce" : "0x00",
                "storage" : {
                    "0x00" : "0x01",
                    "0x01" : "0x01",
                    "0x02" : "0x01",
                    "0x03" : "0x01",
                    "0x0a" : "0x01",
                    "0x0b" : "0x30644e72e131a029b85045b68181585d97816a916871ca8d3c208c16d87cfd45",
                    "0x14" : "0x01",
                    "0x15" : "0x30644e72e131a029b85045b68181585d97816a916871ca8d3c208c16d87cfd45"
                }
            }
        },
        "pre" : {
            "0xa94f5374fce5edbc8e2a8697c15331677e6ebf0b" : {
                "balance" : "0x0de0b6b3a7640000",
                "code" : "0x",
                "nonce" : "0x01",
                "storage" : {
                }
            },
            "0xb94f5374fce5edbc8e2a8697c15331677e6ebf0b" : {
                "balance" : "0x00",
                "code" : "0x60003560005260203560205260403560405260603560605260803560805260a03560a05260c03560c052604061012c60806000600060066207a120f2600055604061019060606080600060076207a120f260015561012c51600a5561014c51600b55610190516014556101b051601555601454600a5414600255601554600b5414600355",
                "nonce" : "0x00",
                "storage" : {
                }
            }
        },
        "sealEngine" : "NoProof"
    },
    "pointMulAdd2_d27g0v0_Homestead" : {
        "_info" : {
            "comment" : "",
            "filledwith" : "testeth 1.7.0-alpha.1-20+commit.782a7283",
            "lllcversion" : "Version: 0.5.0-develop.2018.11.9+commit.9709dfe0.Linux.g++",
            "source" : "src/BlockchainTestsFiller/GeneralStateTests/stZeroKnowledge/pointMulAdd2_d27g0v0Filler.json",
            "sourceHash" : "73b498400c19cf8185c00602c82ad660000bf701a51f22aa2d1bd7c88b5ff619"
        },
        "blocks" : [
            {
                "blockHeader" : {
                    "bloom" : "0x00000000000000000000000000000000000000000000000000000000000000000000000000000000000000000000000000000000000000000000000000000000000000000000000000000000000000000000000000000000000000000000000000000000000000000000000000000000000000000000000000000000000000000000000000000000000000000000000000000000000000000000000000000000000000000000000000000000000000000000000000000000000000000000000000000000000000000000000000000000000000000000000000000000000000000000000000000000000000000000000000000000000000000000000000000000",
                    "coinbase" : "0x68795c4aa09d6f4ed3e5deddf8c2ad3049a601da",
                    "difficulty" : "0x020000",
                    "extraData" : "0x",
                    "gasLimit" : "0x3d37ef",
                    "gasUsed" : "0x01ee2d",
                    "hash" : "0xb5b0851776922794530674aa509751c627153fbeb0b631593203069fd6d3f7b4",
                    "mixHash" : "0x0000000000000000000000000000000000000000000000000000000000000000",
                    "nonce" : "0x0000000000000000",
                    "number" : "0x01",
                    "parentHash" : "0x9b25016c45ce0e295a463681361471a29c00aea06cba17cbc22894ce6d2c1def",
                    "receiptTrie" : "0x98a82936bf0ed0bf1c4dca434a3862c3dbbc2251c1b8f47694b7676cc64d7ab4",
                    "stateRoot" : "0xb5eaf25885a09b5cc654c9fdcd0e50df66781df473c5f4f6385ff1666035bf39",
                    "timestamp" : "0x03e8",
                    "transactionsTrie" : "0xaf36f941a440d7a06f2d859282ad0fd2803a8b3e22154c9df60653c22a58b09e",
                    "uncleHash" : "0x1dcc4de8dec75d7aab85b567b6ccd41ad312451b948a7413f0a142fd40d49347"
                },
                "rlp" : "0xf90343f901f8a09b25016c45ce0e295a463681361471a29c00aea06cba17cbc22894ce6d2c1defa01dcc4de8dec75d7aab85b567b6ccd41ad312451b948a7413f0a142fd40d493479468795c4aa09d6f4ed3e5deddf8c2ad3049a601daa0b5eaf25885a09b5cc654c9fdcd0e50df66781df473c5f4f6385ff1666035bf39a0af36f941a440d7a06f2d859282ad0fd2803a8b3e22154c9df60653c22a58b09ea098a82936bf0ed0bf1c4dca434a3862c3dbbc2251c1b8f47694b7676cc64d7ab4b90100000000000000000000000000000000000000000000000000000000000000000000000000000000000000000000000000000000000000000000000000000000000000000000000000000000000000000000000000000000000000000000000000000000000000000000000000000000000000000000000000000000000000000000000000000000000000000000000000000000000000000000000000000000000000000000000000000000000000000000000000000000000000000000000000000000000000000000000000000000000000000000000000000000000000000000000000000000000000000000000000000000000000000000000000000000008302000001833d37ef8301ee2d8203e880a00000000000000000000000000000000000000000000000000000000000000000880000000000000000f90144f901410101831e848094b94f5374fce5edbc8e2a8697c15331677e6ebf0b80b8e0000000000000000000000000000000000000000000000000000000000000000130644e72e131a029b85045b68181585d97816a916871ca8d3c208c16d87cfd45000000000000000000000000000000000000000000000000000000000000000000000000000000000000000000000000000000000000000000000000000000000000000000000000000000000000000000000000000000000000000000000001000000000000000000000000000000000000000000000000000000000000000230644e72e131a029b85045b68181585d2833e84879b9709143e1f593f00000001ba045a734030e0d129c94f0e4b6c86142b226aeea985e68bb69ee5a4aaa8a9abedfa0450af162f03dc716b48ffd1b85df954058b5c47daedd0fb0a590a3031d276f55c0",
                "transactions" : [
                    {
                        "data" : "0x000000000000000000000000000000000000000000000000000000000000000130644e72e131a029b85045b68181585d97816a916871ca8d3c208c16d87cfd45000000000000000000000000000000000000000000000000000000000000000000000000000000000000000000000000000000000000000000000000000000000000000000000000000000000000000000000000000000000000000000000001000000000000000000000000000000000000000000000000000000000000000230644e72e131a029b85045b68181585d2833e84879b9709143e1f593f0000000",
                        "gasLimit" : "0x1e8480",
                        "gasPrice" : "0x01",
                        "nonce" : "0x01",
                        "r" : "0x45a734030e0d129c94f0e4b6c86142b226aeea985e68bb69ee5a4aaa8a9abedf",
                        "s" : "0x450af162f03dc716b48ffd1b85df954058b5c47daedd0fb0a590a3031d276f55",
                        "to" : "0xb94f5374fce5edbc8e2a8697c15331677e6ebf0b",
                        "v" : "0x1b",
                        "value" : "0x00"
                    }
                ],
                "uncleHeaders" : [
                ]
            }
        ],
        "genesisBlockHeader" : {
            "bloom" : "0x00000000000000000000000000000000000000000000000000000000000000000000000000000000000000000000000000000000000000000000000000000000000000000000000000000000000000000000000000000000000000000000000000000000000000000000000000000000000000000000000000000000000000000000000000000000000000000000000000000000000000000000000000000000000000000000000000000000000000000000000000000000000000000000000000000000000000000000000000000000000000000000000000000000000000000000000000000000000000000000000000000000000000000000000000000000",
            "coinbase" : "0x68795c4aa09d6f4ed3e5deddf8c2ad3049a601da",
            "difficulty" : "0x020000",
            "extraData" : "0x42",
            "gasLimit" : "0x3d37ef",
            "gasUsed" : "0x00",
            "hash" : "0x9b25016c45ce0e295a463681361471a29c00aea06cba17cbc22894ce6d2c1def",
            "mixHash" : "0x56e81f171bcc55a6ff8345e692c0f86e5b48e01b996cadc001622fb5e363b421",
            "nonce" : "0x0102030405060708",
            "number" : "0x00",
            "parentHash" : "0x0000000000000000000000000000000000000000000000000000000000000000",
            "receiptTrie" : "0x56e81f171bcc55a6ff8345e692c0f86e5b48e01b996cadc001622fb5e363b421",
            "stateRoot" : "0xa4db92ceb60668ffcb9642d55fa7fe34cc341b53029d31394d82f0c61462bd99",
            "timestamp" : "0x03b6",
            "transactionsTrie" : "0x56e81f171bcc55a6ff8345e692c0f86e5b48e01b996cadc001622fb5e363b421",
            "uncleHash" : "0x1dcc4de8dec75d7aab85b567b6ccd41ad312451b948a7413f0a142fd40d49347"
        },
        "genesisRLP" : "0xf901faf901f5a00000000000000000000000000000000000000000000000000000000000000000a01dcc4de8dec75d7aab85b567b6ccd41ad312451b948a7413f0a142fd40d493479468795c4aa09d6f4ed3e5deddf8c2ad3049a601daa0a4db92ceb60668ffcb9642d55fa7fe34cc341b53029d31394d82f0c61462bd99a056e81f171bcc55a6ff8345e692c0f86e5b48e01b996cadc001622fb5e363b421a056e81f171bcc55a6ff8345e692c0f86e5b48e01b996cadc001622fb5e363b421b90100000000000000000000000000000000000000000000000000000000000000000000000000000000000000000000000000000000000000000000000000000000000000000000000000000000000000000000000000000000000000000000000000000000000000000000000000000000000000000000000000000000000000000000000000000000000000000000000000000000000000000000000000000000000000000000000000000000000000000000000000000000000000000000000000000000000000000000000000000000000000000000000000000000000000000000000000000000000000000000000000000000000000000000000000000000008302000080833d37ef808203b642a056e81f171bcc55a6ff8345e692c0f86e5b48e01b996cadc001622fb5e363b421880102030405060708c0c0",
        "lastblockhash" : "0xb5b0851776922794530674aa509751c627153fbeb0b631593203069fd6d3f7b4",
        "network" : "Homestead",
        "postState" : {
            "0x68795c4aa09d6f4ed3e5deddf8c2ad3049a601da" : {
                "balance" : "0x4563918244f5ee2d",
                "code" : "0x",
                "nonce" : "0x00",
                "storage" : {
                }
            },
            "0xa94f5374fce5edbc8e2a8697c15331677e6ebf0b" : {
                "balance" : "0x0de0b6b3a76211d3",
                "code" : "0x",
                "nonce" : "0x02",
                "storage" : {
                }
            },
            "0xb94f5374fce5edbc8e2a8697c15331677e6ebf0b" : {
                "balance" : "0x00",
                "code" : "0x60003560005260203560205260403560405260603560605260803560805260a03560a05260c03560c052604061012c60806000600060066207a120f2600055604061019060606080600060076207a120f260015561012c51600a5561014c51600b55610190516014556101b051601555601454600a5414600255601554600b5414600355",
                "nonce" : "0x00",
                "storage" : {
                    "0x00" : "0x01",
                    "0x01" : "0x01",
                    "0x02" : "0x01",
                    "0x03" : "0x01"
                }
            }
        },
        "pre" : {
            "0xa94f5374fce5edbc8e2a8697c15331677e6ebf0b" : {
                "balance" : "0x0de0b6b3a7640000",
                "code" : "0x",
                "nonce" : "0x01",
                "storage" : {
                }
            },
            "0xb94f5374fce5edbc8e2a8697c15331677e6ebf0b" : {
                "balance" : "0x00",
                "code" : "0x60003560005260203560205260403560405260603560605260803560805260a03560a05260c03560c052604061012c60806000600060066207a120f2600055604061019060606080600060076207a120f260015561012c51600a5561014c51600b55610190516014556101b051601555601454600a5414600255601554600b5414600355",
                "nonce" : "0x00",
                "storage" : {
                }
            }
        },
        "sealEngine" : "NoProof"
    }
}