{
    "pointMulAdd2_d6g3v0_Byzantium" : {
        "_info" : {
            "comment" : "",
            "filledwith" : "testeth 1.7.0-alpha.1-20+commit.782a7283",
            "lllcversion" : "Version: 0.5.0-develop.2018.11.9+commit.9709dfe0.Linux.g++",
            "source" : "src/BlockchainTestsFiller/GeneralStateTests/stZeroKnowledge/pointMulAdd2_d6g3v0Filler.json",
            "sourceHash" : "8695d3e74cdccc964ba1f79f32a03b7c4f3095808fc4bfa2efc4c17e99d5a337"
        },
        "blocks" : [
            {
                "blockHeader" : {
                    "bloom" : "0x00000000000000000000000000000000000000000000000000000000000000000000000000000000000000000000000000000000000000000000000000000000000000000000000000000000000000000000000000000000000000000000000000000000000000000000000000000000000000000000000000000000000000000000000000000000000000000000000000000000000000000000000000000000000000000000000000000000000000000000000000000000000000000000000000000000000000000000000000000000000000000000000000000000000000000000000000000000000000000000000000000000000000000000000000000000",
                    "coinbase" : "0x68795c4aa09d6f4ed3e5deddf8c2ad3049a601da",
                    "difficulty" : "0x020000",
                    "extraData" : "0x",
                    "gasLimit" : "0x3d37ef",
                    "gasUsed" : "0x028be1",
                    "hash" : "0xd5e57b13d8afbf681e4d39872b6c3d839c170faeebb8ab2f57c13f81eebc435f",
                    "mixHash" : "0x0000000000000000000000000000000000000000000000000000000000000000",
                    "nonce" : "0x0000000000000000",
                    "number" : "0x01",
                    "parentHash" : "0x9b25016c45ce0e295a463681361471a29c00aea06cba17cbc22894ce6d2c1def",
                    "receiptTrie" : "0x34be2ee2d4bd03ad4108c5174f95377763217ce96ffe048d2685505652781f0e",
                    "stateRoot" : "0xd4510dd4823ac1c8fb0819a0d4fb1528ed5d3ba26ab59d493f00427495e3ddd7",
                    "timestamp" : "0x03e8",
                    "transactionsTrie" : "0x167fe2a773cefffb159a19dc6232a236636246a2ed5e2f5e79147f299e959983",
                    "uncleHash" : "0x1dcc4de8dec75d7aab85b567b6ccd41ad312451b948a7413f0a142fd40d49347"
                },
                "rlp" : "0xf90343f901f8a09b25016c45ce0e295a463681361471a29c00aea06cba17cbc22894ce6d2c1defa01dcc4de8dec75d7aab85b567b6ccd41ad312451b948a7413f0a142fd40d493479468795c4aa09d6f4ed3e5deddf8c2ad3049a601daa0d4510dd4823ac1c8fb0819a0d4fb1528ed5d3ba26ab59d493f00427495e3ddd7a0167fe2a773cefffb159a19dc6232a236636246a2ed5e2f5e79147f299e959983a034be2ee2d4bd03ad4108c5174f95377763217ce96ffe048d2685505652781f0eb90100000000000000000000000000000000000000000000000000000000000000000000000000000000000000000000000000000000000000000000000000000000000000000000000000000000000000000000000000000000000000000000000000000000000000000000000000000000000000000000000000000000000000000000000000000000000000000000000000000000000000000000000000000000000000000000000000000000000000000000000000000000000000000000000000000000000000000000000000000000000000000000000000000000000000000000000000000000000000000000000000000000000000000000000000000000008302000001833d37ef83028be18203e880a00000000000000000000000000000000000000000000000000000000000000000880000000000000000f90144f90141010183030d4094b94f5374fce5edbc8e2a8697c15331677e6ebf0b80b8e000000000000000000000000000000000000000000000000000000000000000000000000000000000000000000000000000000000000000000000000000000000000000000000000000000000000000000000000000000000000000000000000000000000000000000000000000000000000000000000000000000000000000000000000000000000000000000000000000000000000000000000000000000000000000000000000000000000000000000000000000000000000000000000000030644e72e131a029b85045b68181585d97816a916871ca8d3c208c16d87cfd461ba0f8b721bb503e693dab691f350e34e40d9c80eae3e0ddf32a7b91db6f0b8ab543a00e9c5e612091b7bb4cc123a80aa129585362b88d774da70877f01e756987b941c0",
                "transactions" : [
                    {
                        "data" : "0x00000000000000000000000000000000000000000000000000000000000000000000000000000000000000000000000000000000000000000000000000000000000000000000000000000000000000000000000000000000000000000000000000000000000000000000000000000000000000000000000000000000000000000000000000000000000000000000000000000000000000000000000000000000000000000000000000000000000000000000000000000000000000000000000030644e72e131a029b85045b68181585d97816a916871ca8d3c208c16d87cfd46",
                        "gasLimit" : "0x030d40",
                        "gasPrice" : "0x01",
                        "nonce" : "0x01",
                        "r" : "0xf8b721bb503e693dab691f350e34e40d9c80eae3e0ddf32a7b91db6f0b8ab543",
                        "s" : "0x0e9c5e612091b7bb4cc123a80aa129585362b88d774da70877f01e756987b941",
                        "to" : "0xb94f5374fce5edbc8e2a8697c15331677e6ebf0b",
                        "v" : "0x1b",
                        "value" : "0x00"
                    }
                ],
                "uncleHeaders" : [
                ]
            }
        ],
        "genesisBlockHeader" : {
            "bloom" : "0x00000000000000000000000000000000000000000000000000000000000000000000000000000000000000000000000000000000000000000000000000000000000000000000000000000000000000000000000000000000000000000000000000000000000000000000000000000000000000000000000000000000000000000000000000000000000000000000000000000000000000000000000000000000000000000000000000000000000000000000000000000000000000000000000000000000000000000000000000000000000000000000000000000000000000000000000000000000000000000000000000000000000000000000000000000000",
            "coinbase" : "0x68795c4aa09d6f4ed3e5deddf8c2ad3049a601da",
            "difficulty" : "0x020000",
            "extraData" : "0x42",
            "gasLimit" : "0x3d37ef",
            "gasUsed" : "0x00",
            "hash" : "0x9b25016c45ce0e295a463681361471a29c00aea06cba17cbc22894ce6d2c1def",
            "mixHash" : "0x56e81f171bcc55a6ff8345e692c0f86e5b48e01b996cadc001622fb5e363b421",
            "nonce" : "0x0102030405060708",
            "number" : "0x00",
            "parentHash" : "0x0000000000000000000000000000000000000000000000000000000000000000",
            "receiptTrie" : "0x56e81f171bcc55a6ff8345e692c0f86e5b48e01b996cadc001622fb5e363b421",
            "stateRoot" : "0xa4db92ceb60668ffcb9642d55fa7fe34cc341b53029d31394d82f0c61462bd99",
            "timestamp" : "0x03b6",
            "transactionsTrie" : "0x56e81f171bcc55a6ff8345e692c0f86e5b48e01b996cadc001622fb5e363b421",
            "uncleHash" : "0x1dcc4de8dec75d7aab85b567b6ccd41ad312451b948a7413f0a142fd40d49347"
        },
        "genesisRLP" : "0xf901faf901f5a00000000000000000000000000000000000000000000000000000000000000000a01dcc4de8dec75d7aab85b567b6ccd41ad312451b948a7413f0a142fd40d493479468795c4aa09d6f4ed3e5deddf8c2ad3049a601daa0a4db92ceb60668ffcb9642d55fa7fe34cc341b53029d31394d82f0c61462bd99a056e81f171bcc55a6ff8345e692c0f86e5b48e01b996cadc001622fb5e363b421a056e81f171bcc55a6ff8345e692c0f86e5b48e01b996cadc001622fb5e363b421b90100000000000000000000000000000000000000000000000000000000000000000000000000000000000000000000000000000000000000000000000000000000000000000000000000000000000000000000000000000000000000000000000000000000000000000000000000000000000000000000000000000000000000000000000000000000000000000000000000000000000000000000000000000000000000000000000000000000000000000000000000000000000000000000000000000000000000000000000000000000000000000000000000000000000000000000000000000000000000000000000000000000000000000000000000000000008302000080833d37ef808203b642a056e81f171bcc55a6ff8345e692c0f86e5b48e01b996cadc001622fb5e363b421880102030405060708c0c0",
        "lastblockhash" : "0xd5e57b13d8afbf681e4d39872b6c3d839c170faeebb8ab2f57c13f81eebc435f",
        "network" : "Byzantium",
        "postState" : {
            "0x68795c4aa09d6f4ed3e5deddf8c2ad3049a601da" : {
                "balance" : "0x29a2241af62e8be1",
                "code" : "0x",
                "nonce" : "0x00",
                "storage" : {
                }
            },
            "0xa94f5374fce5edbc8e2a8697c15331677e6ebf0b" : {
                "balance" : "0x0de0b6b3a761741f",
                "code" : "0x",
                "nonce" : "0x02",
                "storage" : {
                }
            },
            "0xb94f5374fce5edbc8e2a8697c15331677e6ebf0b" : {
                "balance" : "0x00",
                "code" : "0x60003560005260203560205260403560405260603560605260803560805260a03560a05260c03560c052604061012c60806000600060066207a120f2600055604061019060606080600060076207a120f260015561012c51600a5561014c51600b55610190516014556101b051601555601454600a5414600255601554600b5414600355",
                "nonce" : "0x00",
                "storage" : {
                    "0x00" : "0x01",
                    "0x01" : "0x01",
                    "0x02" : "0x01",
                    "0x03" : "0x01"
                }
            }
        },
        "pre" : {
            "0xa94f5374fce5edbc8e2a8697c15331677e6ebf0b" : {
                "balance" : "0x0de0b6b3a7640000",
                "code" : "0x",
                "nonce" : "0x01",
                "storage" : {
                }
            },
            "0xb94f5374fce5edbc8e2a8697c15331677e6ebf0b" : {
                "balance" : "0x00",
                "code" : "0x60003560005260203560205260403560405260603560605260803560805260a03560a05260c03560c052604061012c60806000600060066207a120f2600055604061019060606080600060076207a120f260015561012c51600a5561014c51600b55610190516014556101b051601555601454600a5414600255601554600b5414600355",
                "nonce" : "0x00",
                "storage" : {
                }
            }
        },
        "sealEngine" : "NoProof"
    },
    "pointMulAdd2_d6g3v0_Constantinople" : {
        "_info" : {
            "comment" : "",
            "filledwith" : "testeth 1.7.0-alpha.1-20+commit.782a7283",
            "lllcversion" : "Version: 0.5.0-develop.2018.11.9+commit.9709dfe0.Linux.g++",
            "source" : "src/BlockchainTestsFiller/GeneralStateTests/stZeroKnowledge/pointMulAdd2_d6g3v0Filler.json",
            "sourceHash" : "8695d3e74cdccc964ba1f79f32a03b7c4f3095808fc4bfa2efc4c17e99d5a337"
        },
        "blocks" : [
            {
                "blockHeader" : {
                    "bloom" : "0x00000000000000000000000000000000000000000000000000000000000000000000000000000000000000000000000000000000000000000000000000000000000000000000000000000000000000000000000000000000000000000000000000000000000000000000000000000000000000000000000000000000000000000000000000000000000000000000000000000000000000000000000000000000000000000000000000000000000000000000000000000000000000000000000000000000000000000000000000000000000000000000000000000000000000000000000000000000000000000000000000000000000000000000000000000000",
                    "coinbase" : "0x68795c4aa09d6f4ed3e5deddf8c2ad3049a601da",
                    "difficulty" : "0x020000",
                    "extraData" : "0x",
                    "gasLimit" : "0x3d37ef",
                    "gasUsed" : "0x0240e1",
                    "hash" : "0x3c3e1a42942294834ffeda7e51b8ef85fafb153237d73412dd19f4affc868fd9",
                    "mixHash" : "0x0000000000000000000000000000000000000000000000000000000000000000",
                    "nonce" : "0x0000000000000000",
                    "number" : "0x01",
                    "parentHash" : "0x9b25016c45ce0e295a463681361471a29c00aea06cba17cbc22894ce6d2c1def",
                    "receiptTrie" : "0x75f21a0245467c85e9b62746e72224b8c080e1a6705d7dd152289457191bc2c7",
                    "stateRoot" : "0x5afbbb34fecfbb4b4d6516e011cddcae4384a023a0afaef427bd0ba030e75acf",
                    "timestamp" : "0x03e8",
                    "transactionsTrie" : "0x167fe2a773cefffb159a19dc6232a236636246a2ed5e2f5e79147f299e959983",
                    "uncleHash" : "0x1dcc4de8dec75d7aab85b567b6ccd41ad312451b948a7413f0a142fd40d49347"
                },
                "rlp" : "0xf90343f901f8a09b25016c45ce0e295a463681361471a29c00aea06cba17cbc22894ce6d2c1defa01dcc4de8dec75d7aab85b567b6ccd41ad312451b948a7413f0a142fd40d493479468795c4aa09d6f4ed3e5deddf8c2ad3049a601daa05afbbb34fecfbb4b4d6516e011cddcae4384a023a0afaef427bd0ba030e75acfa0167fe2a773cefffb159a19dc6232a236636246a2ed5e2f5e79147f299e959983a075f21a0245467c85e9b62746e72224b8c080e1a6705d7dd152289457191bc2c7b90100000000000000000000000000000000000000000000000000000000000000000000000000000000000000000000000000000000000000000000000000000000000000000000000000000000000000000000000000000000000000000000000000000000000000000000000000000000000000000000000000000000000000000000000000000000000000000000000000000000000000000000000000000000000000000000000000000000000000000000000000000000000000000000000000000000000000000000000000000000000000000000000000000000000000000000000000000000000000000000000000000000000000000000000000000000008302000001833d37ef830240e18203e880a00000000000000000000000000000000000000000000000000000000000000000880000000000000000f90144f90141010183030d4094b94f5374fce5edbc8e2a8697c15331677e6ebf0b80b8e000000000000000000000000000000000000000000000000000000000000000000000000000000000000000000000000000000000000000000000000000000000000000000000000000000000000000000000000000000000000000000000000000000000000000000000000000000000000000000000000000000000000000000000000000000000000000000000000000000000000000000000000000000000000000000000000000000000000000000000000000000000000000000000000030644e72e131a029b85045b68181585d97816a916871ca8d3c208c16d87cfd461ba0f8b721bb503e693dab691f350e34e40d9c80eae3e0ddf32a7b91db6f0b8ab543a00e9c5e612091b7bb4cc123a80aa129585362b88d774da70877f01e756987b941c0",
                "transactions" : [
                    {
                        "data" : "0x00000000000000000000000000000000000000000000000000000000000000000000000000000000000000000000000000000000000000000000000000000000000000000000000000000000000000000000000000000000000000000000000000000000000000000000000000000000000000000000000000000000000000000000000000000000000000000000000000000000000000000000000000000000000000000000000000000000000000000000000000000000000000000000000030644e72e131a029b85045b68181585d97816a916871ca8d3c208c16d87cfd46",
                        "gasLimit" : "0x030d40",
                        "gasPrice" : "0x01",
                        "nonce" : "0x01",
                        "r" : "0xf8b721bb503e693dab691f350e34e40d9c80eae3e0ddf32a7b91db6f0b8ab543",
                        "s" : "0x0e9c5e612091b7bb4cc123a80aa129585362b88d774da70877f01e756987b941",
                        "to" : "0xb94f5374fce5edbc8e2a8697c15331677e6ebf0b",
                        "v" : "0x1b",
                        "value" : "0x00"
                    }
                ],
                "uncleHeaders" : [
                ]
            }
        ],
        "genesisBlockHeader" : {
            "bloom" : "0x00000000000000000000000000000000000000000000000000000000000000000000000000000000000000000000000000000000000000000000000000000000000000000000000000000000000000000000000000000000000000000000000000000000000000000000000000000000000000000000000000000000000000000000000000000000000000000000000000000000000000000000000000000000000000000000000000000000000000000000000000000000000000000000000000000000000000000000000000000000000000000000000000000000000000000000000000000000000000000000000000000000000000000000000000000000",
            "coinbase" : "0x68795c4aa09d6f4ed3e5deddf8c2ad3049a601da",
            "difficulty" : "0x020000",
            "extraData" : "0x42",
            "gasLimit" : "0x3d37ef",
            "gasUsed" : "0x00",
            "hash" : "0x9b25016c45ce0e295a463681361471a29c00aea06cba17cbc22894ce6d2c1def",
            "mixHash" : "0x56e81f171bcc55a6ff8345e692c0f86e5b48e01b996cadc001622fb5e363b421",
            "nonce" : "0x0102030405060708",
            "number" : "0x00",
            "parentHash" : "0x0000000000000000000000000000000000000000000000000000000000000000",
            "receiptTrie" : "0x56e81f171bcc55a6ff8345e692c0f86e5b48e01b996cadc001622fb5e363b421",
            "stateRoot" : "0xa4db92ceb60668ffcb9642d55fa7fe34cc341b53029d31394d82f0c61462bd99",
            "timestamp" : "0x03b6",
            "transactionsTrie" : "0x56e81f171bcc55a6ff8345e692c0f86e5b48e01b996cadc001622fb5e363b421",
            "uncleHash" : "0x1dcc4de8dec75d7aab85b567b6ccd41ad312451b948a7413f0a142fd40d49347"
        },
        "genesisRLP" : "0xf901faf901f5a00000000000000000000000000000000000000000000000000000000000000000a01dcc4de8dec75d7aab85b567b6ccd41ad312451b948a7413f0a142fd40d493479468795c4aa09d6f4ed3e5deddf8c2ad3049a601daa0a4db92ceb60668ffcb9642d55fa7fe34cc341b53029d31394d82f0c61462bd99a056e81f171bcc55a6ff8345e692c0f86e5b48e01b996cadc001622fb5e363b421a056e81f171bcc55a6ff8345e692c0f86e5b48e01b996cadc001622fb5e363b421b90100000000000000000000000000000000000000000000000000000000000000000000000000000000000000000000000000000000000000000000000000000000000000000000000000000000000000000000000000000000000000000000000000000000000000000000000000000000000000000000000000000000000000000000000000000000000000000000000000000000000000000000000000000000000000000000000000000000000000000000000000000000000000000000000000000000000000000000000000000000000000000000000000000000000000000000000000000000000000000000000000000000000000000000000000000000008302000080833d37ef808203b642a056e81f171bcc55a6ff8345e692c0f86e5b48e01b996cadc001622fb5e363b421880102030405060708c0c0",
        "lastblockhash" : "0x3c3e1a42942294834ffeda7e51b8ef85fafb153237d73412dd19f4affc868fd9",
        "network" : "Constantinople",
        "postState" : {
            "0x68795c4aa09d6f4ed3e5deddf8c2ad3049a601da" : {
                "balance" : "0x1bc16d674eca40e1",
                "code" : "0x",
                "nonce" : "0x00",
                "storage" : {
                }
            },
            "0xa94f5374fce5edbc8e2a8697c15331677e6ebf0b" : {
                "balance" : "0x0de0b6b3a761bf1f",
                "code" : "0x",
                "nonce" : "0x02",
                "storage" : {
                }
            },
            "0xb94f5374fce5edbc8e2a8697c15331677e6ebf0b" : {
                "balance" : "0x00",
                "code" : "0x60003560005260203560205260403560405260603560605260803560805260a03560a05260c03560c052604061012c60806000600060066207a120f2600055604061019060606080600060076207a120f260015561012c51600a5561014c51600b55610190516014556101b051601555601454600a5414600255601554600b5414600355",
                "nonce" : "0x00",
                "storage" : {
                    "0x00" : "0x01",
                    "0x01" : "0x01",
                    "0x02" : "0x01",
                    "0x03" : "0x01"
                }
            }
        },
        "pre" : {
            "0xa94f5374fce5edbc8e2a8697c15331677e6ebf0b" : {
                "balance" : "0x0de0b6b3a7640000",
                "code" : "0x",
                "nonce" : "0x01",
                "storage" : {
                }
            },
            "0xb94f5374fce5edbc8e2a8697c15331677e6ebf0b" : {
                "balance" : "0x00",
                "code" : "0x60003560005260203560205260403560405260603560605260803560805260a03560a05260c03560c052604061012c60806000600060066207a120f2600055604061019060606080600060076207a120f260015561012c51600a5561014c51600b55610190516014556101b051601555601454600a5414600255601554600b5414600355",
                "nonce" : "0x00",
                "storage" : {
                }
            }
        },
        "sealEngine" : "NoProof"
    },
    "pointMulAdd2_d6g3v0_ConstantinopleFix" : {
        "_info" : {
            "comment" : "",
            "filledwith" : "testeth 1.7.0-alpha.1-20+commit.782a7283",
            "lllcversion" : "Version: 0.5.0-develop.2018.11.9+commit.9709dfe0.Linux.g++",
            "source" : "src/BlockchainTestsFiller/GeneralStateTests/stZeroKnowledge/pointMulAdd2_d6g3v0Filler.json",
            "sourceHash" : "8695d3e74cdccc964ba1f79f32a03b7c4f3095808fc4bfa2efc4c17e99d5a337"
        },
        "blocks" : [
            {
                "blockHeader" : {
                    "bloom" : "0x00000000000000000000000000000000000000000000000000000000000000000000000000000000000000000000000000000000000000000000000000000000000000000000000000000000000000000000000000000000000000000000000000000000000000000000000000000000000000000000000000000000000000000000000000000000000000000000000000000000000000000000000000000000000000000000000000000000000000000000000000000000000000000000000000000000000000000000000000000000000000000000000000000000000000000000000000000000000000000000000000000000000000000000000000000000",
                    "coinbase" : "0x68795c4aa09d6f4ed3e5deddf8c2ad3049a601da",
                    "difficulty" : "0x020000",
                    "extraData" : "0x",
                    "gasLimit" : "0x3d37ef",
                    "gasUsed" : "0x028be1",
                    "hash" : "0xddf17100ea7e80e1da7870a1dd904548c7369e77c450e9512e456e2a25256d55",
                    "mixHash" : "0x0000000000000000000000000000000000000000000000000000000000000000",
                    "nonce" : "0x0000000000000000",
                    "number" : "0x01",
                    "parentHash" : "0x9b25016c45ce0e295a463681361471a29c00aea06cba17cbc22894ce6d2c1def",
                    "receiptTrie" : "0x34be2ee2d4bd03ad4108c5174f95377763217ce96ffe048d2685505652781f0e",
                    "stateRoot" : "0x98f03480d0397bce39d9e1355f2b70982a0989a86634c9894df7871f251dafbb",
                    "timestamp" : "0x03e8",
                    "transactionsTrie" : "0x167fe2a773cefffb159a19dc6232a236636246a2ed5e2f5e79147f299e959983",
                    "uncleHash" : "0x1dcc4de8dec75d7aab85b567b6ccd41ad312451b948a7413f0a142fd40d49347"
                },
                "rlp" : "0xf90343f901f8a09b25016c45ce0e295a463681361471a29c00aea06cba17cbc22894ce6d2c1defa01dcc4de8dec75d7aab85b567b6ccd41ad312451b948a7413f0a142fd40d493479468795c4aa09d6f4ed3e5deddf8c2ad3049a601daa098f03480d0397bce39d9e1355f2b70982a0989a86634c9894df7871f251dafbba0167fe2a773cefffb159a19dc6232a236636246a2ed5e2f5e79147f299e959983a034be2ee2d4bd03ad4108c5174f95377763217ce96ffe048d2685505652781f0eb90100000000000000000000000000000000000000000000000000000000000000000000000000000000000000000000000000000000000000000000000000000000000000000000000000000000000000000000000000000000000000000000000000000000000000000000000000000000000000000000000000000000000000000000000000000000000000000000000000000000000000000000000000000000000000000000000000000000000000000000000000000000000000000000000000000000000000000000000000000000000000000000000000000000000000000000000000000000000000000000000000000000000000000000000000000000008302000001833d37ef83028be18203e880a00000000000000000000000000000000000000000000000000000000000000000880000000000000000f90144f90141010183030d4094b94f5374fce5edbc8e2a8697c15331677e6ebf0b80b8e000000000000000000000000000000000000000000000000000000000000000000000000000000000000000000000000000000000000000000000000000000000000000000000000000000000000000000000000000000000000000000000000000000000000000000000000000000000000000000000000000000000000000000000000000000000000000000000000000000000000000000000000000000000000000000000000000000000000000000000000000000000000000000000000030644e72e131a029b85045b68181585d97816a916871ca8d3c208c16d87cfd461ba0f8b721bb503e693dab691f350e34e40d9c80eae3e0ddf32a7b91db6f0b8ab543a00e9c5e612091b7bb4cc123a80aa129585362b88d774da70877f01e756987b941c0",
                "transactions" : [
                    {
                        "data" : "0x00000000000000000000000000000000000000000000000000000000000000000000000000000000000000000000000000000000000000000000000000000000000000000000000000000000000000000000000000000000000000000000000000000000000000000000000000000000000000000000000000000000000000000000000000000000000000000000000000000000000000000000000000000000000000000000000000000000000000000000000000000000000000000000000030644e72e131a029b85045b68181585d97816a916871ca8d3c208c16d87cfd46",
                        "gasLimit" : "0x030d40",
                        "gasPrice" : "0x01",
                        "nonce" : "0x01",
                        "r" : "0xf8b721bb503e693dab691f350e34e40d9c80eae3e0ddf32a7b91db6f0b8ab543",
                        "s" : "0x0e9c5e612091b7bb4cc123a80aa129585362b88d774da70877f01e756987b941",
                        "to" : "0xb94f5374fce5edbc8e2a8697c15331677e6ebf0b",
                        "v" : "0x1b",
                        "value" : "0x00"
                    }
                ],
                "uncleHeaders" : [
                ]
            }
        ],
        "genesisBlockHeader" : {
            "bloom" : "0x00000000000000000000000000000000000000000000000000000000000000000000000000000000000000000000000000000000000000000000000000000000000000000000000000000000000000000000000000000000000000000000000000000000000000000000000000000000000000000000000000000000000000000000000000000000000000000000000000000000000000000000000000000000000000000000000000000000000000000000000000000000000000000000000000000000000000000000000000000000000000000000000000000000000000000000000000000000000000000000000000000000000000000000000000000000",
            "coinbase" : "0x68795c4aa09d6f4ed3e5deddf8c2ad3049a601da",
            "difficulty" : "0x020000",
            "extraData" : "0x42",
            "gasLimit" : "0x3d37ef",
            "gasUsed" : "0x00",
            "hash" : "0x9b25016c45ce0e295a463681361471a29c00aea06cba17cbc22894ce6d2c1def",
            "mixHash" : "0x56e81f171bcc55a6ff8345e692c0f86e5b48e01b996cadc001622fb5e363b421",
            "nonce" : "0x0102030405060708",
            "number" : "0x00",
            "parentHash" : "0x0000000000000000000000000000000000000000000000000000000000000000",
            "receiptTrie" : "0x56e81f171bcc55a6ff8345e692c0f86e5b48e01b996cadc001622fb5e363b421",
            "stateRoot" : "0xa4db92ceb60668ffcb9642d55fa7fe34cc341b53029d31394d82f0c61462bd99",
            "timestamp" : "0x03b6",
            "transactionsTrie" : "0x56e81f171bcc55a6ff8345e692c0f86e5b48e01b996cadc001622fb5e363b421",
            "uncleHash" : "0x1dcc4de8dec75d7aab85b567b6ccd41ad312451b948a7413f0a142fd40d49347"
        },
        "genesisRLP" : "0xf901faf901f5a00000000000000000000000000000000000000000000000000000000000000000a01dcc4de8dec75d7aab85b567b6ccd41ad312451b948a7413f0a142fd40d493479468795c4aa09d6f4ed3e5deddf8c2ad3049a601daa0a4db92ceb60668ffcb9642d55fa7fe34cc341b53029d31394d82f0c61462bd99a056e81f171bcc55a6ff8345e692c0f86e5b48e01b996cadc001622fb5e363b421a056e81f171bcc55a6ff8345e692c0f86e5b48e01b996cadc001622fb5e363b421b90100000000000000000000000000000000000000000000000000000000000000000000000000000000000000000000000000000000000000000000000000000000000000000000000000000000000000000000000000000000000000000000000000000000000000000000000000000000000000000000000000000000000000000000000000000000000000000000000000000000000000000000000000000000000000000000000000000000000000000000000000000000000000000000000000000000000000000000000000000000000000000000000000000000000000000000000000000000000000000000000000000000000000000000000000000000008302000080833d37ef808203b642a056e81f171bcc55a6ff8345e692c0f86e5b48e01b996cadc001622fb5e363b421880102030405060708c0c0",
        "lastblockhash" : "0xddf17100ea7e80e1da7870a1dd904548c7369e77c450e9512e456e2a25256d55",
        "network" : "ConstantinopleFix",
        "postState" : {
            "0x68795c4aa09d6f4ed3e5deddf8c2ad3049a601da" : {
                "balance" : "0x1bc16d674eca8be1",
                "code" : "0x",
                "nonce" : "0x00",
                "storage" : {
                }
            },
            "0xa94f5374fce5edbc8e2a8697c15331677e6ebf0b" : {
                "balance" : "0x0de0b6b3a761741f",
                "code" : "0x",
                "nonce" : "0x02",
                "storage" : {
                }
            },
            "0xb94f5374fce5edbc8e2a8697c15331677e6ebf0b" : {
                "balance" : "0x00",
                "code" : "0x60003560005260203560205260403560405260603560605260803560805260a03560a05260c03560c052604061012c60806000600060066207a120f2600055604061019060606080600060076207a120f260015561012c51600a5561014c51600b55610190516014556101b051601555601454600a5414600255601554600b5414600355",
                "nonce" : "0x00",
                "storage" : {
                    "0x00" : "0x01",
                    "0x01" : "0x01",
                    "0x02" : "0x01",
                    "0x03" : "0x01"
                }
            }
        },
        "pre" : {
            "0xa94f5374fce5edbc8e2a8697c15331677e6ebf0b" : {
                "balance" : "0x0de0b6b3a7640000",
                "code" : "0x",
                "nonce" : "0x01",
                "storage" : {
                }
            },
            "0xb94f5374fce5edbc8e2a8697c15331677e6ebf0b" : {
                "balance" : "0x00",
                "code" : "0x60003560005260203560205260403560405260603560605260803560805260a03560a05260c03560c052604061012c60806000600060066207a120f2600055604061019060606080600060076207a120f260015561012c51600a5561014c51600b55610190516014556101b051601555601454600a5414600255601554600b5414600355",
                "nonce" : "0x00",
                "storage" : {
                }
            }
        },
        "sealEngine" : "NoProof"
    },
    "pointMulAdd2_d6g3v0_Homestead" : {
        "_info" : {
            "comment" : "",
            "filledwith" : "testeth 1.7.0-alpha.1-20+commit.782a7283",
            "lllcversion" : "Version: 0.5.0-develop.2018.11.9+commit.9709dfe0.Linux.g++",
            "source" : "src/BlockchainTestsFiller/GeneralStateTests/stZeroKnowledge/pointMulAdd2_d6g3v0Filler.json",
            "sourceHash" : "8695d3e74cdccc964ba1f79f32a03b7c4f3095808fc4bfa2efc4c17e99d5a337"
        },
        "blocks" : [
            {
                "blockHeader" : {
                    "bloom" : "0x00000000000000000000000000000000000000000000000000000000000000000000000000000000000000000000000000000000000000000000000000000000000000000000000000000000000000000000000000000000000000000000000000000000000000000000000000000000000000000000000000000000000000000000000000000000000000000000000000000000000000000000000000000000000000000000000000000000000000000000000000000000000000000000000000000000000000000000000000000000000000000000000000000000000000000000000000000000000000000000000000000000000000000000000000000000",
                    "coinbase" : "0x68795c4aa09d6f4ed3e5deddf8c2ad3049a601da",
                    "difficulty" : "0x020000",
                    "extraData" : "0x",
                    "gasLimit" : "0x3d37ef",
                    "gasUsed" : "0x030d40",
                    "hash" : "0xe4ecab05845353e72dc8b2719434ea226ce205e9f2da05c28a12827c0cfd530a",
                    "mixHash" : "0x0000000000000000000000000000000000000000000000000000000000000000",
                    "nonce" : "0x0000000000000000",
                    "number" : "0x01",
                    "parentHash" : "0x9b25016c45ce0e295a463681361471a29c00aea06cba17cbc22894ce6d2c1def",
                    "receiptTrie" : "0x94fc6ab23c723ae69c5e36d2f2a740b4137142e3e09b6d3e50de8ac0249fe70b",
                    "stateRoot" : "0x178b083b7260951307d4bd831d53e8eaa60e328eaaa29f499e76e71c9730ac62",
                    "timestamp" : "0x03e8",
                    "transactionsTrie" : "0x167fe2a773cefffb159a19dc6232a236636246a2ed5e2f5e79147f299e959983",
                    "uncleHash" : "0x1dcc4de8dec75d7aab85b567b6ccd41ad312451b948a7413f0a142fd40d49347"
                },
                "rlp" : "0xf90343f901f8a09b25016c45ce0e295a463681361471a29c00aea06cba17cbc22894ce6d2c1defa01dcc4de8dec75d7aab85b567b6ccd41ad312451b948a7413f0a142fd40d493479468795c4aa09d6f4ed3e5deddf8c2ad3049a601daa0178b083b7260951307d4bd831d53e8eaa60e328eaaa29f499e76e71c9730ac62a0167fe2a773cefffb159a19dc6232a236636246a2ed5e2f5e79147f299e959983a094fc6ab23c723ae69c5e36d2f2a740b4137142e3e09b6d3e50de8ac0249fe70bb90100000000000000000000000000000000000000000000000000000000000000000000000000000000000000000000000000000000000000000000000000000000000000000000000000000000000000000000000000000000000000000000000000000000000000000000000000000000000000000000000000000000000000000000000000000000000000000000000000000000000000000000000000000000000000000000000000000000000000000000000000000000000000000000000000000000000000000000000000000000000000000000000000000000000000000000000000000000000000000000000000000000000000000000000000000000008302000001833d37ef83030d408203e880a00000000000000000000000000000000000000000000000000000000000000000880000000000000000f90144f90141010183030d4094b94f5374fce5edbc8e2a8697c15331677e6ebf0b80b8e000000000000000000000000000000000000000000000000000000000000000000000000000000000000000000000000000000000000000000000000000000000000000000000000000000000000000000000000000000000000000000000000000000000000000000000000000000000000000000000000000000000000000000000000000000000000000000000000000000000000000000000000000000000000000000000000000000000000000000000000000000000000000000000000030644e72e131a029b85045b68181585d97816a916871ca8d3c208c16d87cfd461ba0f8b721bb503e693dab691f350e34e40d9c80eae3e0ddf32a7b91db6f0b8ab543a00e9c5e612091b7bb4cc123a80aa129585362b88d774da70877f01e756987b941c0",
                "transactions" : [
                    {
                        "data" : "0x00000000000000000000000000000000000000000000000000000000000000000000000000000000000000000000000000000000000000000000000000000000000000000000000000000000000000000000000000000000000000000000000000000000000000000000000000000000000000000000000000000000000000000000000000000000000000000000000000000000000000000000000000000000000000000000000000000000000000000000000000000000000000000000000030644e72e131a029b85045b68181585d97816a916871ca8d3c208c16d87cfd46",
                        "gasLimit" : "0x030d40",
                        "gasPrice" : "0x01",
                        "nonce" : "0x01",
                        "r" : "0xf8b721bb503e693dab691f350e34e40d9c80eae3e0ddf32a7b91db6f0b8ab543",
                        "s" : "0x0e9c5e612091b7bb4cc123a80aa129585362b88d774da70877f01e756987b941",
                        "to" : "0xb94f5374fce5edbc8e2a8697c15331677e6ebf0b",
                        "v" : "0x1b",
                        "value" : "0x00"
                    }
                ],
                "uncleHeaders" : [
                ]
            }
        ],
        "genesisBlockHeader" : {
            "bloom" : "0x00000000000000000000000000000000000000000000000000000000000000000000000000000000000000000000000000000000000000000000000000000000000000000000000000000000000000000000000000000000000000000000000000000000000000000000000000000000000000000000000000000000000000000000000000000000000000000000000000000000000000000000000000000000000000000000000000000000000000000000000000000000000000000000000000000000000000000000000000000000000000000000000000000000000000000000000000000000000000000000000000000000000000000000000000000000",
            "coinbase" : "0x68795c4aa09d6f4ed3e5deddf8c2ad3049a601da",
            "difficulty" : "0x020000",
            "extraData" : "0x42",
            "gasLimit" : "0x3d37ef",
            "gasUsed" : "0x00",
            "hash" : "0x9b25016c45ce0e295a463681361471a29c00aea06cba17cbc22894ce6d2c1def",
            "mixHash" : "0x56e81f171bcc55a6ff8345e692c0f86e5b48e01b996cadc001622fb5e363b421",
            "nonce" : "0x0102030405060708",
            "number" : "0x00",
            "parentHash" : "0x0000000000000000000000000000000000000000000000000000000000000000",
            "receiptTrie" : "0x56e81f171bcc55a6ff8345e692c0f86e5b48e01b996cadc001622fb5e363b421",
            "stateRoot" : "0xa4db92ceb60668ffcb9642d55fa7fe34cc341b53029d31394d82f0c61462bd99",
            "timestamp" : "0x03b6",
            "transactionsTrie" : "0x56e81f171bcc55a6ff8345e692c0f86e5b48e01b996cadc001622fb5e363b421",
            "uncleHash" : "0x1dcc4de8dec75d7aab85b567b6ccd41ad312451b948a7413f0a142fd40d49347"
        },
        "genesisRLP" : "0xf901faf901f5a00000000000000000000000000000000000000000000000000000000000000000a01dcc4de8dec75d7aab85b567b6ccd41ad312451b948a7413f0a142fd40d493479468795c4aa09d6f4ed3e5deddf8c2ad3049a601daa0a4db92ceb60668ffcb9642d55fa7fe34cc341b53029d31394d82f0c61462bd99a056e81f171bcc55a6ff8345e692c0f86e5b48e01b996cadc001622fb5e363b421a056e81f171bcc55a6ff8345e692c0f86e5b48e01b996cadc001622fb5e363b421b90100000000000000000000000000000000000000000000000000000000000000000000000000000000000000000000000000000000000000000000000000000000000000000000000000000000000000000000000000000000000000000000000000000000000000000000000000000000000000000000000000000000000000000000000000000000000000000000000000000000000000000000000000000000000000000000000000000000000000000000000000000000000000000000000000000000000000000000000000000000000000000000000000000000000000000000000000000000000000000000000000000000000000000000000000000000008302000080833d37ef808203b642a056e81f171bcc55a6ff8345e692c0f86e5b48e01b996cadc001622fb5e363b421880102030405060708c0c0",
        "lastblockhash" : "0xe4ecab05845353e72dc8b2719434ea226ce205e9f2da05c28a12827c0cfd530a",
        "network" : "Homestead",
        "postState" : {
            "0x68795c4aa09d6f4ed3e5deddf8c2ad3049a601da" : {
                "balance" : "0x4563918244f70d40",
                "code" : "0x",
                "nonce" : "0x00",
                "storage" : {
                }
            },
            "0xa94f5374fce5edbc8e2a8697c15331677e6ebf0b" : {
                "balance" : "0x0de0b6b3a760f2c0",
                "code" : "0x",
                "nonce" : "0x02",
                "storage" : {
                }
            },
            "0xb94f5374fce5edbc8e2a8697c15331677e6ebf0b" : {
                "balance" : "0x00",
                "code" : "0x60003560005260203560205260403560405260603560605260803560805260a03560a05260c03560c052604061012c60806000600060066207a120f2600055604061019060606080600060076207a120f260015561012c51600a5561014c51600b55610190516014556101b051601555601454600a5414600255601554600b5414600355",
                "nonce" : "0x00",
                "storage" : {
                }
            }
        },
        "pre" : {
            "0xa94f5374fce5edbc8e2a8697c15331677e6ebf0b" : {
                "balance" : "0x0de0b6b3a7640000",
                "code" : "0x",
                "nonce" : "0x01",
                "storage" : {
                }
            },
            "0xb94f5374fce5edbc8e2a8697c15331677e6ebf0b" : {
                "balance" : "0x00",
                "code" : "0x60003560005260203560205260403560405260603560605260803560805260a03560a05260c03560c052604061012c60806000600060066207a120f2600055604061019060606080600060076207a120f260015561012c51600a5561014c51600b55610190516014556101b051601555601454600a5414600255601554600b5414600355",
                "nonce" : "0x00",
                "storage" : {
                }
            }
        },
        "sealEngine" : "NoProof"
    }
}