{
    "RevertRemoteSubCallStorageOOG_d0g0v0_Frontier" : {
        "_info" : {
            "comment" : "",
            "filledwith" : "testeth 1.7.0-alpha.1-20+commit.782a7283",
            "lllcversion" : "Version: 0.5.0-develop.2018.11.9+commit.9709dfe0.Linux.g++",
            "source" : "src/BlockchainTestsFiller/GeneralStateTests/stRevertTest/RevertRemoteSubCallStorageOOG_d0g0v0Filler.json",
            "sourceHash" : "41b38ae695d042db2d88e61d64757cecdf6c9baf913453ffa6c3531c327b6f66"
        },
        "blocks" : [
            {
                "blockHeader" : {
                    "bloom" : "0x00000000000000000000000000000000000000000000000000000000000000000000000000000000000000000000000000000000000000000000000000000000000000000000000000000000000000000000000000000000000000000000000000000000000000000000000000000000000000000000000000000000000000000000000000000000000000000000000000000000000000000000000000000000000000000000000000000000000000000000000000000000000000000000000000000000000000000000000000000000000000000000000000000000000000000000000000000000000000000000000000000000000000000000000000000000",
                    "coinbase" : "0x2adc25665018aa1fe0e6bc666dac8fc2697ff9ba",
                    "difficulty" : "0x020000",
                    "extraData" : "0x",
                    "gasLimit" : "0x989680",
                    "gasUsed" : "0x022f19",
                    "hash" : "0xda491162147308dc4b9f6d6da2c2f2b729840f9c0321c596bbc7c869da48c95b",
                    "mixHash" : "0x0000000000000000000000000000000000000000000000000000000000000000",
                    "nonce" : "0x0000000000000000",
                    "number" : "0x01",
                    "parentHash" : "0x3a02ae2cad7c6533fff53c0e4d87de484644cb870e3bdf683adb490cd04b7c18",
                    "receiptTrie" : "0x93de08b19661cfc2f047e267c76a35b71e2a9e53cd747c6f187bbccf068c97cc",
                    "stateRoot" : "0x3c5f29d526983e8fa555dc763a7722505f2a775bf53ca3e6b8dbc81072da407e",
                    "timestamp" : "0x03e8",
                    "transactionsTrie" : "0x74847272d7128fd10884ac695d167fd08814d11b19a6ffa3dd3cf0450905a01e",
                    "uncleHash" : "0x1dcc4de8dec75d7aab85b567b6ccd41ad312451b948a7413f0a142fd40d49347"
                },
                "rlp" : "0xf90264f901f8a03a02ae2cad7c6533fff53c0e4d87de484644cb870e3bdf683adb490cd04b7c18a01dcc4de8dec75d7aab85b567b6ccd41ad312451b948a7413f0a142fd40d49347942adc25665018aa1fe0e6bc666dac8fc2697ff9baa03c5f29d526983e8fa555dc763a7722505f2a775bf53ca3e6b8dbc81072da407ea074847272d7128fd10884ac695d167fd08814d11b19a6ffa3dd3cf0450905a01ea093de08b19661cfc2f047e267c76a35b71e2a9e53cd747c6f187bbccf068c97ccb901000000000000000000000000000000000000000000000000000000000000000000000000000000000000000000000000000000000000000000000000000000000000000000000000000000000000000000000000000000000000000000000000000000000000000000000000000000000000000000000000000000000000000000000000000000000000000000000000000000000000000000000000000000000000000000000000000000000000000000000000000000000000000000000000000000000000000000000000000000000000000000000000000000000000000000000000000000000000000000000000000000000000000000000000000000000083020000018398968083022f198203e880a00000000000000000000000000000000000000000000000000000000000000000880000000000000000f866f86480018302422094a0000000000000000000000000000000000000008084c04062261ca094ef4edd5e137623b9413897543e1af8bb57edff25d3d2f40a684ccb7376b57aa0506824c3d8964004b8773fe8ad9f7212428b83002a65b060f8103bcd29274691c0",
                "transactions" : [
                    {
                        "data" : "0xc0406226",
                        "gasLimit" : "0x024220",
                        "gasPrice" : "0x01",
                        "nonce" : "0x00",
                        "r" : "0x94ef4edd5e137623b9413897543e1af8bb57edff25d3d2f40a684ccb7376b57a",
                        "s" : "0x506824c3d8964004b8773fe8ad9f7212428b83002a65b060f8103bcd29274691",
                        "to" : "0xa000000000000000000000000000000000000000",
                        "v" : "0x1c",
                        "value" : "0x00"
                    }
                ],
                "uncleHeaders" : [
                ]
            }
        ],
        "genesisBlockHeader" : {
            "bloom" : "0x00000000000000000000000000000000000000000000000000000000000000000000000000000000000000000000000000000000000000000000000000000000000000000000000000000000000000000000000000000000000000000000000000000000000000000000000000000000000000000000000000000000000000000000000000000000000000000000000000000000000000000000000000000000000000000000000000000000000000000000000000000000000000000000000000000000000000000000000000000000000000000000000000000000000000000000000000000000000000000000000000000000000000000000000000000000",
            "coinbase" : "0x2adc25665018aa1fe0e6bc666dac8fc2697ff9ba",
            "difficulty" : "0x020000",
            "extraData" : "0x42",
            "gasLimit" : "0x989680",
            "gasUsed" : "0x00",
            "hash" : "0x3a02ae2cad7c6533fff53c0e4d87de484644cb870e3bdf683adb490cd04b7c18",
            "mixHash" : "0x56e81f171bcc55a6ff8345e692c0f86e5b48e01b996cadc001622fb5e363b421",
            "nonce" : "0x0102030405060708",
            "number" : "0x00",
            "parentHash" : "0x0000000000000000000000000000000000000000000000000000000000000000",
            "receiptTrie" : "0x56e81f171bcc55a6ff8345e692c0f86e5b48e01b996cadc001622fb5e363b421",
            "stateRoot" : "0x27e301526d6c628f31e2d8c3a886baf14d5b8bbfc388e70185afeac73fdb323b",
            "timestamp" : "0x03b6",
            "transactionsTrie" : "0x56e81f171bcc55a6ff8345e692c0f86e5b48e01b996cadc001622fb5e363b421",
            "uncleHash" : "0x1dcc4de8dec75d7aab85b567b6ccd41ad312451b948a7413f0a142fd40d49347"
        },
        "genesisRLP" : "0xf901faf901f5a00000000000000000000000000000000000000000000000000000000000000000a01dcc4de8dec75d7aab85b567b6ccd41ad312451b948a7413f0a142fd40d49347942adc25665018aa1fe0e6bc666dac8fc2697ff9baa027e301526d6c628f31e2d8c3a886baf14d5b8bbfc388e70185afeac73fdb323ba056e81f171bcc55a6ff8345e692c0f86e5b48e01b996cadc001622fb5e363b421a056e81f171bcc55a6ff8345e692c0f86e5b48e01b996cadc001622fb5e363b421b9010000000000000000000000000000000000000000000000000000000000000000000000000000000000000000000000000000000000000000000000000000000000000000000000000000000000000000000000000000000000000000000000000000000000000000000000000000000000000000000000000000000000000000000000000000000000000000000000000000000000000000000000000000000000000000000000000000000000000000000000000000000000000000000000000000000000000000000000000000000000000000000000000000000000000000000000000000000000000000000000000000000000000000000000000000000000830200008083989680808203b642a056e81f171bcc55a6ff8345e692c0f86e5b48e01b996cadc001622fb5e363b421880102030405060708c0c0",
        "lastblockhash" : "0xda491162147308dc4b9f6d6da2c2f2b729840f9c0321c596bbc7c869da48c95b",
        "network" : "Frontier",
        "postState" : {
            "0x2adc25665018aa1fe0e6bc666dac8fc2697ff9ba" : {
                "balance" : "0x4563918244f62f19",
                "code" : "0x",
                "nonce" : "0x00",
                "storage" : {
                }
            },
            "0x7db299e0885c85039f56fa504a13dd8ce8a56aa7" : {
                "balance" : "0x00",
                "code" : "0x60606040526000357c0100000000000000000000000000000000000000000000000000000000900463ffffffff16806373027f6d1461003e575b610000565b346100005761006f600480803573ffffffffffffffffffffffffffffffffffffffff16906020019091905050610071565b005b8073ffffffffffffffffffffffffffffffffffffffff1660405180807f73746f7228290000000000000000000000000000000000000000000000000000815250600601905060405180910390207c010000000000000000000000000000000000000000000000000000000090046040518163ffffffff167c01000000000000000000000000000000000000000000000000000000000281526004018090506000604051808303816000876161da5a03f192505050505b505600a165627a7a72305820db9c9d1f37fd36768131a0bf9687f465e15b0503452e603be6b6f07b70d72e260029",
                "nonce" : "0x00",
                "storage" : {
                }
            },
            "0xa000000000000000000000000000000000000000" : {
                "balance" : "0x01",
                "code" : "0x60606040526000357c0100000000000000000000000000000000000000000000000000000000900463ffffffff168063b28175c414610049578063c040622614610058575b610000565b346100005761005661007f565b005b346100005761006561008a565b604051808215151515815260200191505060405180910390f35b600c6000819055505b565b6000600060405161016f80610163833901809050604051809103906000f080156100005790508073ffffffffffffffffffffffffffffffffffffffff166373027f6d306040518263ffffffff167c0100000000000000000000000000000000000000000000000000000000028152600401808273ffffffffffffffffffffffffffffffffffffffff1673ffffffffffffffffffffffffffffffffffffffff168152602001915050600060405180830381600087803b156100005760325a03f11561000057505050600d600181905550600191505b50905600606060405234610000575b610156806100196000396000f30060606040526000357c0100000000000000000000000000000000000000000000000000000000900463ffffffff16806373027f6d1461003e575b610000565b346100005761006f600480803573ffffffffffffffffffffffffffffffffffffffff16906020019091905050610071565b005b8073ffffffffffffffffffffffffffffffffffffffff1660405180807f73746f7228290000000000000000000000000000000000000000000000000000815250600601905060405180910390207c010000000000000000000000000000000000000000000000000000000090046040518163ffffffff167c01000000000000000000000000000000000000000000000000000000000281526004018090506000604051808303816000876161da5a03f192505050505b505600a165627a7a72305820db9c9d1f37fd36768131a0bf9687f465e15b0503452e603be6b6f07b70d72e260029a165627a7a72305820f8ff2f7feef24d01a1cc070e67db9e15ac34810c8e5d1c7f34f3c38148eeae900029",
                "nonce" : "0x01",
                "storage" : {
                    "0x01" : "0x0d"
                }
            },
            "0xa94f5374fce5edbc8e2a8697c15331677e6ebf0b" : {
                "balance" : "0xe8d4a2e0e7",
                "code" : "0x",
                "nonce" : "0x01",
                "storage" : {
                }
            }
        },
        "pre" : {
            "0xa000000000000000000000000000000000000000" : {
                "balance" : "0x01",
                "code" : "0x60606040526000357c0100000000000000000000000000000000000000000000000000000000900463ffffffff168063b28175c414610049578063c040622614610058575b610000565b346100005761005661007f565b005b346100005761006561008a565b604051808215151515815260200191505060405180910390f35b600c6000819055505b565b6000600060405161016f80610163833901809050604051809103906000f080156100005790508073ffffffffffffffffffffffffffffffffffffffff166373027f6d306040518263ffffffff167c0100000000000000000000000000000000000000000000000000000000028152600401808273ffffffffffffffffffffffffffffffffffffffff1673ffffffffffffffffffffffffffffffffffffffff168152602001915050600060405180830381600087803b156100005760325a03f11561000057505050600d600181905550600191505b50905600606060405234610000575b610156806100196000396000f30060606040526000357c0100000000000000000000000000000000000000000000000000000000900463ffffffff16806373027f6d1461003e575b610000565b346100005761006f600480803573ffffffffffffffffffffffffffffffffffffffff16906020019091905050610071565b005b8073ffffffffffffffffffffffffffffffffffffffff1660405180807f73746f7228290000000000000000000000000000000000000000000000000000815250600601905060405180910390207c010000000000000000000000000000000000000000000000000000000090046040518163ffffffff167c01000000000000000000000000000000000000000000000000000000000281526004018090506000604051808303816000876161da5a03f192505050505b505600a165627a7a72305820db9c9d1f37fd36768131a0bf9687f465e15b0503452e603be6b6f07b70d72e260029a165627a7a72305820f8ff2f7feef24d01a1cc070e67db9e15ac34810c8e5d1c7f34f3c38148eeae900029",
                "nonce" : "0x00",
                "storage" : {
                }
            },
            "0xa94f5374fce5edbc8e2a8697c15331677e6ebf0b" : {
                "balance" : "0xe8d4a51000",
                "code" : "0x",
                "nonce" : "0x00",
                "storage" : {
                }
            }
        },
        "sealEngine" : "NoProof"
    }
}