{
    "RevertOpcodeMultipleSubCalls_d2g0v1_Byzantium" : {
        "_info" : {
            "comment" : "",
            "filledwith" : "testeth 1.7.0-alpha.1-20+commit.782a7283",
            "lllcversion" : "Version: 0.5.0-develop.2018.11.9+commit.9709dfe0.Linux.g++",
            "source" : "src/BlockchainTestsFiller/GeneralStateTests/stRevertTest/RevertOpcodeMultipleSubCalls_d2g0v1Filler.json",
            "sourceHash" : "dcddea9dc4c864509f9105859cb8624ef3ca16c7832ec3c5c02a1848cf30dda5"
        },
        "blocks" : [
            {
                "blockHeader" : {
                    "bloom" : "0x00000000000000000000000000000000000000000000000000000000000000000000000000000000000000000000000000000000000000000000000000000000000000000000000000000000000000000000000000000000000000000000000000000000000000000000000000000000000000000000000000000000000000000000000000000000000000000000000000000000000000000000000000000000000000000000000000000000000000000000000000000000000000000000000000000000000000000000000000000000000000000000000000000000000000000000000000000000000000000000000000000000000000000000000000000000",
                    "coinbase" : "0x2adc25665018aa1fe0e6bc666dac8fc2697ff9ba",
                    "difficulty" : "0x020000",
                    "extraData" : "0x",
                    "gasLimit" : "0x989680",
                    "gasUsed" : "0x0239ab",
                    "hash" : "0x9b372dc2714f99cdf04072d3ead9cd0d1b23bb4d745fa117fd89468475c6460d",
                    "mixHash" : "0x0000000000000000000000000000000000000000000000000000000000000000",
                    "nonce" : "0x0000000000000000",
                    "number" : "0x01",
                    "parentHash" : "0x9c0c02b9a5a8b304b47336a09b24677ecde4273d5b90accfca80e0e7717310fd",
                    "receiptTrie" : "0x786f50ef0f9058903c2f60c0435d2be9c367ce7c75e807be848e1049fa606652",
                    "stateRoot" : "0x08b5dd7a6a2b80bd71f0f1057c175cd572502f10e7ae830ac6825378e285cbbb",
                    "timestamp" : "0x03e8",
                    "transactionsTrie" : "0xca5a0c1fc51f41c19943506b449fb41f7ded935bbba184f3bfcb396a0cb465da",
                    "uncleHash" : "0x1dcc4de8dec75d7aab85b567b6ccd41ad312451b948a7413f0a142fd40d49347"
                },
                "rlp" : "0xf90280f901f8a09c0c02b9a5a8b304b47336a09b24677ecde4273d5b90accfca80e0e7717310fda01dcc4de8dec75d7aab85b567b6ccd41ad312451b948a7413f0a142fd40d49347942adc25665018aa1fe0e6bc666dac8fc2697ff9baa008b5dd7a6a2b80bd71f0f1057c175cd572502f10e7ae830ac6825378e285cbbba0ca5a0c1fc51f41c19943506b449fb41f7ded935bbba184f3bfcb396a0cb465daa0786f50ef0f9058903c2f60c0435d2be9c367ce7c75e807be848e1049fa606652b9010000000000000000000000000000000000000000000000000000000000000000000000000000000000000000000000000000000000000000000000000000000000000000000000000000000000000000000000000000000000000000000000000000000000000000000000000000000000000000000000000000000000000000000000000000000000000000000000000000000000000000000000000000000000000000000000000000000000000000000000000000000000000000000000000000000000000000000000000000000000000000000000000000000000000000000000000000000000000000000000000000000000000000000000000000000000830200000183989680830239ab8203e880a00000000000000000000000000000000000000000000000000000000000000000880000000000000000f882f8808001830c350094ac000000000000000000000000000000000000000aa0000000000000000000000000a2000000000000000000000000000000000000001ba0b88ffab673d6401c5b775b2611bbf29a72e396cff328525c2a2ae53b6c836247a03d42015daa3cdc77263a7b76e4bcfc0e514b08d9fd2a2112ef57aaf71fc4d16ac0",
                "transactions" : [
                    {
                        "data" : "0x000000000000000000000000a200000000000000000000000000000000000000",
                        "gasLimit" : "0x0c3500",
                        "gasPrice" : "0x01",
                        "nonce" : "0x00",
                        "r" : "0xb88ffab673d6401c5b775b2611bbf29a72e396cff328525c2a2ae53b6c836247",
                        "s" : "0x3d42015daa3cdc77263a7b76e4bcfc0e514b08d9fd2a2112ef57aaf71fc4d16a",
                        "to" : "0xac00000000000000000000000000000000000000",
                        "v" : "0x1b",
                        "value" : "0x0a"
                    }
                ],
                "uncleHeaders" : [
                ]
            }
        ],
        "genesisBlockHeader" : {
            "bloom" : "0x00000000000000000000000000000000000000000000000000000000000000000000000000000000000000000000000000000000000000000000000000000000000000000000000000000000000000000000000000000000000000000000000000000000000000000000000000000000000000000000000000000000000000000000000000000000000000000000000000000000000000000000000000000000000000000000000000000000000000000000000000000000000000000000000000000000000000000000000000000000000000000000000000000000000000000000000000000000000000000000000000000000000000000000000000000000",
            "coinbase" : "0x2adc25665018aa1fe0e6bc666dac8fc2697ff9ba",
            "difficulty" : "0x020000",
            "extraData" : "0x42",
            "gasLimit" : "0x989680",
            "gasUsed" : "0x00",
            "hash" : "0x9c0c02b9a5a8b304b47336a09b24677ecde4273d5b90accfca80e0e7717310fd",
            "mixHash" : "0x56e81f171bcc55a6ff8345e692c0f86e5b48e01b996cadc001622fb5e363b421",
            "nonce" : "0x0102030405060708",
            "number" : "0x00",
            "parentHash" : "0x0000000000000000000000000000000000000000000000000000000000000000",
            "receiptTrie" : "0x56e81f171bcc55a6ff8345e692c0f86e5b48e01b996cadc001622fb5e363b421",
            "stateRoot" : "0x1b33c44accff3f1d7776a868d7edfeb36f680a4e079cb885fd2d1bb1aa621d5e",
            "timestamp" : "0x03b6",
            "transactionsTrie" : "0x56e81f171bcc55a6ff8345e692c0f86e5b48e01b996cadc001622fb5e363b421",
            "uncleHash" : "0x1dcc4de8dec75d7aab85b567b6ccd41ad312451b948a7413f0a142fd40d49347"
        },
        "genesisRLP" : "0xf901faf901f5a00000000000000000000000000000000000000000000000000000000000000000a01dcc4de8dec75d7aab85b567b6ccd41ad312451b948a7413f0a142fd40d49347942adc25665018aa1fe0e6bc666dac8fc2697ff9baa01b33c44accff3f1d7776a868d7edfeb36f680a4e079cb885fd2d1bb1aa621d5ea056e81f171bcc55a6ff8345e692c0f86e5b48e01b996cadc001622fb5e363b421a056e81f171bcc55a6ff8345e692c0f86e5b48e01b996cadc001622fb5e363b421b9010000000000000000000000000000000000000000000000000000000000000000000000000000000000000000000000000000000000000000000000000000000000000000000000000000000000000000000000000000000000000000000000000000000000000000000000000000000000000000000000000000000000000000000000000000000000000000000000000000000000000000000000000000000000000000000000000000000000000000000000000000000000000000000000000000000000000000000000000000000000000000000000000000000000000000000000000000000000000000000000000000000000000000000000000000000000830200008083989680808203b642a056e81f171bcc55a6ff8345e692c0f86e5b48e01b996cadc001622fb5e363b421880102030405060708c0c0",
        "lastblockhash" : "0x9b372dc2714f99cdf04072d3ead9cd0d1b23bb4d745fa117fd89468475c6460d",
        "network" : "Byzantium",
        "postState" : {
            "0x2adc25665018aa1fe0e6bc666dac8fc2697ff9ba" : {
                "balance" : "0x29a2241af62e39ab",
                "code" : "0x",
                "nonce" : "0x00",
                "storage" : {
                }
            },
            "0xa000000000000000000000000000000000000000" : {
                "balance" : "0x00",
                "code" : "0x6000600060006000600073b00000000000000000000000000000000000000061c350f1600a556000600060006000600073c00000000000000000000000000000000000000061c350f1600b556000600060006000600073d00000000000000000000000000000000000000061c350f1600c55600c600455600c600555",
                "nonce" : "0x00",
                "storage" : {
                }
            },
            "0xa100000000000000000000000000000000000000" : {
                "balance" : "0x00",
                "code" : "0x6000600060006000600073b00000000000000000000000000000000000000061c350f2600a556000600060006000600073c00000000000000000000000000000000000000061c350f2600b556000600060006000600073d00000000000000000000000000000000000000061c350f2600c55600c600455600c600555",
                "nonce" : "0x00",
                "storage" : {
                }
            },
            "0xa200000000000000000000000000000000000000" : {
                "balance" : "0x0a",
                "code" : "0x600060006000600073b00000000000000000000000000000000000000061c350f4600a55600060006000600073c00000000000000000000000000000000000000061c350f4600b55600060006000600073d00000000000000000000000000000000000000061c350f4600c55600c600455600c600555",
                "nonce" : "0x00",
                "storage" : {
                    "0x04" : "0x0c",
                    "0x05" : "0x0c"
                }
            },
            "0xa300000000000000000000000000000000000000" : {
                "balance" : "0x00",
                "code" : "0x6000600060006000600073b00000000000000000000000000000000000000061c350f1600a55600060006000600073c00000000000000000000000000000000000000061c350f4600b556000600060006000600073d00000000000000000000000000000000000000061c350f2600c55600c600455600c600555",
                "nonce" : "0x00",
                "storage" : {
                }
            },
            "0xa94f5374fce5edbc8e2a8697c15331677e6ebf0b" : {
                "balance" : "0xe8d4a2d64b",
                "code" : "0x",
                "nonce" : "0x01",
                "storage" : {
                }
            },
            "0xac00000000000000000000000000000000000000" : {
                "balance" : "0x00",
                "code" : "0x6000600060006000346000356203f7a0f1",
                "nonce" : "0x00",
                "storage" : {
                }
            },
            "0xb000000000000000000000000000000000000000" : {
                "balance" : "0x00",
                "code" : "0x600c60015560016000fd",
                "nonce" : "0x00",
                "storage" : {
                }
            },
            "0xc000000000000000000000000000000000000000" : {
                "balance" : "0x00",
                "code" : "0x600c60025560016000fd",
                "nonce" : "0x00",
                "storage" : {
                }
            },
            "0xd000000000000000000000000000000000000000" : {
                "balance" : "0x00",
                "code" : "0x600c60035560016000fd",
                "nonce" : "0x00",
                "storage" : {
                }
            }
        },
        "pre" : {
            "0xa000000000000000000000000000000000000000" : {
                "balance" : "0x00",
                "code" : "0x6000600060006000600073b00000000000000000000000000000000000000061c350f1600a556000600060006000600073c00000000000000000000000000000000000000061c350f1600b556000600060006000600073d00000000000000000000000000000000000000061c350f1600c55600c600455600c600555",
                "nonce" : "0x00",
                "storage" : {
                }
            },
            "0xa100000000000000000000000000000000000000" : {
                "balance" : "0x00",
                "code" : "0x6000600060006000600073b00000000000000000000000000000000000000061c350f2600a556000600060006000600073c00000000000000000000000000000000000000061c350f2600b556000600060006000600073d00000000000000000000000000000000000000061c350f2600c55600c600455600c600555",
                "nonce" : "0x00",
                "storage" : {
                }
            },
            "0xa200000000000000000000000000000000000000" : {
                "balance" : "0x00",
                "code" : "0x600060006000600073b00000000000000000000000000000000000000061c350f4600a55600060006000600073c00000000000000000000000000000000000000061c350f4600b55600060006000600073d00000000000000000000000000000000000000061c350f4600c55600c600455600c600555",
                "nonce" : "0x00",
                "storage" : {
                }
            },
            "0xa300000000000000000000000000000000000000" : {
                "balance" : "0x00",
                "code" : "0x6000600060006000600073b00000000000000000000000000000000000000061c350f1600a55600060006000600073c00000000000000000000000000000000000000061c350f4600b556000600060006000600073d00000000000000000000000000000000000000061c350f2600c55600c600455600c600555",
                "nonce" : "0x00",
                "storage" : {
                }
            },
            "0xa94f5374fce5edbc8e2a8697c15331677e6ebf0b" : {
                "balance" : "0xe8d4a51000",
                "code" : "0x",
                "nonce" : "0x00",
                "storage" : {
                }
            },
            "0xac00000000000000000000000000000000000000" : {
                "balance" : "0x00",
                "code" : "0x6000600060006000346000356203f7a0f1",
                "nonce" : "0x00",
                "storage" : {
                }
            },
            "0xb000000000000000000000000000000000000000" : {
                "balance" : "0x00",
                "code" : "0x600c60015560016000fd",
                "nonce" : "0x00",
                "storage" : {
                }
            },
            "0xc000000000000000000000000000000000000000" : {
                "balance" : "0x00",
                "code" : "0x600c60025560016000fd",
                "nonce" : "0x00",
                "storage" : {
                }
            },
            "0xd000000000000000000000000000000000000000" : {
                "balance" : "0x00",
                "code" : "0x600c60035560016000fd",
                "nonce" : "0x00",
                "storage" : {
                }
            }
        },
        "sealEngine" : "NoProof"
    },
    "RevertOpcodeMultipleSubCalls_d2g0v1_Constantinople" : {
        "_info" : {
            "comment" : "",
            "filledwith" : "testeth 1.7.0-alpha.1-20+commit.782a7283",
            "lllcversion" : "Version: 0.5.0-develop.2018.11.9+commit.9709dfe0.Linux.g++",
            "source" : "src/BlockchainTestsFiller/GeneralStateTests/stRevertTest/RevertOpcodeMultipleSubCalls_d2g0v1Filler.json",
            "sourceHash" : "dcddea9dc4c864509f9105859cb8624ef3ca16c7832ec3c5c02a1848cf30dda5"
        },
        "blocks" : [
            {
                "blockHeader" : {
                    "bloom" : "0x00000000000000000000000000000000000000000000000000000000000000000000000000000000000000000000000000000000000000000000000000000000000000000000000000000000000000000000000000000000000000000000000000000000000000000000000000000000000000000000000000000000000000000000000000000000000000000000000000000000000000000000000000000000000000000000000000000000000000000000000000000000000000000000000000000000000000000000000000000000000000000000000000000000000000000000000000000000000000000000000000000000000000000000000000000000",
                    "coinbase" : "0x2adc25665018aa1fe0e6bc666dac8fc2697ff9ba",
                    "difficulty" : "0x020000",
                    "extraData" : "0x",
                    "gasLimit" : "0x989680",
                    "gasUsed" : "0x02016b",
                    "hash" : "0xd125d370fd7c5037155569c544fafabc399536d717e550c7f033c15e9c99ff24",
                    "mixHash" : "0x0000000000000000000000000000000000000000000000000000000000000000",
                    "nonce" : "0x0000000000000000",
                    "number" : "0x01",
                    "parentHash" : "0x9c0c02b9a5a8b304b47336a09b24677ecde4273d5b90accfca80e0e7717310fd",
                    "receiptTrie" : "0x95c82317bad6b4861a0d68bdafba06d90c07338bc0a538f287515b0629500b42",
                    "stateRoot" : "0xc3630c7e0ef80b6a171ba0a54dbe2eb5e6f44579939d3fbf8c5609e9165fad05",
                    "timestamp" : "0x03e8",
                    "transactionsTrie" : "0xca5a0c1fc51f41c19943506b449fb41f7ded935bbba184f3bfcb396a0cb465da",
                    "uncleHash" : "0x1dcc4de8dec75d7aab85b567b6ccd41ad312451b948a7413f0a142fd40d49347"
                },
                "rlp" : "0xf90280f901f8a09c0c02b9a5a8b304b47336a09b24677ecde4273d5b90accfca80e0e7717310fda01dcc4de8dec75d7aab85b567b6ccd41ad312451b948a7413f0a142fd40d49347942adc25665018aa1fe0e6bc666dac8fc2697ff9baa0c3630c7e0ef80b6a171ba0a54dbe2eb5e6f44579939d3fbf8c5609e9165fad05a0ca5a0c1fc51f41c19943506b449fb41f7ded935bbba184f3bfcb396a0cb465daa095c82317bad6b4861a0d68bdafba06d90c07338bc0a538f287515b0629500b42b90100000000000000000000000000000000000000000000000000000000000000000000000000000000000000000000000000000000000000000000000000000000000000000000000000000000000000000000000000000000000000000000000000000000000000000000000000000000000000000000000000000000000000000000000000000000000000000000000000000000000000000000000000000000000000000000000000000000000000000000000000000000000000000000000000000000000000000000000000000000000000000000000000000000000000000000000000000000000000000000000000000000000000000000000000000000008302000001839896808302016b8203e880a00000000000000000000000000000000000000000000000000000000000000000880000000000000000f882f8808001830c350094ac000000000000000000000000000000000000000aa0000000000000000000000000a2000000000000000000000000000000000000001ba0b88ffab673d6401c5b775b2611bbf29a72e396cff328525c2a2ae53b6c836247a03d42015daa3cdc77263a7b76e4bcfc0e514b08d9fd2a2112ef57aaf71fc4d16ac0",
                "transactions" : [
                    {
                        "data" : "0x000000000000000000000000a200000000000000000000000000000000000000",
                        "gasLimit" : "0x0c3500",
                        "gasPrice" : "0x01",
                        "nonce" : "0x00",
                        "r" : "0xb88ffab673d6401c5b775b2611bbf29a72e396cff328525c2a2ae53b6c836247",
                        "s" : "0x3d42015daa3cdc77263a7b76e4bcfc0e514b08d9fd2a2112ef57aaf71fc4d16a",
                        "to" : "0xac00000000000000000000000000000000000000",
                        "v" : "0x1b",
                        "value" : "0x0a"
                    }
                ],
                "uncleHeaders" : [
                ]
            }
        ],
        "genesisBlockHeader" : {
            "bloom" : "0x00000000000000000000000000000000000000000000000000000000000000000000000000000000000000000000000000000000000000000000000000000000000000000000000000000000000000000000000000000000000000000000000000000000000000000000000000000000000000000000000000000000000000000000000000000000000000000000000000000000000000000000000000000000000000000000000000000000000000000000000000000000000000000000000000000000000000000000000000000000000000000000000000000000000000000000000000000000000000000000000000000000000000000000000000000000",
            "coinbase" : "0x2adc25665018aa1fe0e6bc666dac8fc2697ff9ba",
            "difficulty" : "0x020000",
            "extraData" : "0x42",
            "gasLimit" : "0x989680",
            "gasUsed" : "0x00",
            "hash" : "0x9c0c02b9a5a8b304b47336a09b24677ecde4273d5b90accfca80e0e7717310fd",
            "mixHash" : "0x56e81f171bcc55a6ff8345e692c0f86e5b48e01b996cadc001622fb5e363b421",
            "nonce" : "0x0102030405060708",
            "number" : "0x00",
            "parentHash" : "0x0000000000000000000000000000000000000000000000000000000000000000",
            "receiptTrie" : "0x56e81f171bcc55a6ff8345e692c0f86e5b48e01b996cadc001622fb5e363b421",
            "stateRoot" : "0x1b33c44accff3f1d7776a868d7edfeb36f680a4e079cb885fd2d1bb1aa621d5e",
            "timestamp" : "0x03b6",
            "transactionsTrie" : "0x56e81f171bcc55a6ff8345e692c0f86e5b48e01b996cadc001622fb5e363b421",
            "uncleHash" : "0x1dcc4de8dec75d7aab85b567b6ccd41ad312451b948a7413f0a142fd40d49347"
        },
        "genesisRLP" : "0xf901faf901f5a00000000000000000000000000000000000000000000000000000000000000000a01dcc4de8dec75d7aab85b567b6ccd41ad312451b948a7413f0a142fd40d49347942adc25665018aa1fe0e6bc666dac8fc2697ff9baa01b33c44accff3f1d7776a868d7edfeb36f680a4e079cb885fd2d1bb1aa621d5ea056e81f171bcc55a6ff8345e692c0f86e5b48e01b996cadc001622fb5e363b421a056e81f171bcc55a6ff8345e692c0f86e5b48e01b996cadc001622fb5e363b421b9010000000000000000000000000000000000000000000000000000000000000000000000000000000000000000000000000000000000000000000000000000000000000000000000000000000000000000000000000000000000000000000000000000000000000000000000000000000000000000000000000000000000000000000000000000000000000000000000000000000000000000000000000000000000000000000000000000000000000000000000000000000000000000000000000000000000000000000000000000000000000000000000000000000000000000000000000000000000000000000000000000000000000000000000000000000000830200008083989680808203b642a056e81f171bcc55a6ff8345e692c0f86e5b48e01b996cadc001622fb5e363b421880102030405060708c0c0",
        "lastblockhash" : "0xd125d370fd7c5037155569c544fafabc399536d717e550c7f033c15e9c99ff24",
        "network" : "Constantinople",
        "postState" : {
            "0x2adc25665018aa1fe0e6bc666dac8fc2697ff9ba" : {
                "balance" : "0x1bc16d674eca016b",
                "code" : "0x",
                "nonce" : "0x00",
                "storage" : {
                }
            },
            "0xa000000000000000000000000000000000000000" : {
                "balance" : "0x00",
                "code" : "0x6000600060006000600073b00000000000000000000000000000000000000061c350f1600a556000600060006000600073c00000000000000000000000000000000000000061c350f1600b556000600060006000600073d00000000000000000000000000000000000000061c350f1600c55600c600455600c600555",
                "nonce" : "0x00",
                "storage" : {
                }
            },
            "0xa100000000000000000000000000000000000000" : {
                "balance" : "0x00",
                "code" : "0x6000600060006000600073b00000000000000000000000000000000000000061c350f2600a556000600060006000600073c00000000000000000000000000000000000000061c350f2600b556000600060006000600073d00000000000000000000000000000000000000061c350f2600c55600c600455600c600555",
                "nonce" : "0x00",
                "storage" : {
                }
            },
            "0xa200000000000000000000000000000000000000" : {
                "balance" : "0x0a",
                "code" : "0x600060006000600073b00000000000000000000000000000000000000061c350f4600a55600060006000600073c00000000000000000000000000000000000000061c350f4600b55600060006000600073d00000000000000000000000000000000000000061c350f4600c55600c600455600c600555",
                "nonce" : "0x00",
                "storage" : {
                    "0x04" : "0x0c",
                    "0x05" : "0x0c"
                }
            },
            "0xa300000000000000000000000000000000000000" : {
                "balance" : "0x00",
                "code" : "0x6000600060006000600073b00000000000000000000000000000000000000061c350f1600a55600060006000600073c00000000000000000000000000000000000000061c350f4600b556000600060006000600073d00000000000000000000000000000000000000061c350f2600c55600c600455600c600555",
                "nonce" : "0x00",
                "storage" : {
                }
            },
            "0xa94f5374fce5edbc8e2a8697c15331677e6ebf0b" : {
                "balance" : "0xe8d4a30e8b",
                "code" : "0x",
                "nonce" : "0x01",
                "storage" : {
                }
            },
            "0xac00000000000000000000000000000000000000" : {
                "balance" : "0x00",
                "code" : "0x6000600060006000346000356203f7a0f1",
                "nonce" : "0x00",
                "storage" : {
                }
            },
            "0xb000000000000000000000000000000000000000" : {
                "balance" : "0x00",
                "code" : "0x600c60015560016000fd",
                "nonce" : "0x00",
                "storage" : {
                }
            },
            "0xc000000000000000000000000000000000000000" : {
                "balance" : "0x00",
                "code" : "0x600c60025560016000fd",
                "nonce" : "0x00",
                "storage" : {
                }
            },
            "0xd000000000000000000000000000000000000000" : {
                "balance" : "0x00",
                "code" : "0x600c60035560016000fd",
                "nonce" : "0x00",
                "storage" : {
                }
            }
        },
        "pre" : {
            "0xa000000000000000000000000000000000000000" : {
                "balance" : "0x00",
                "code" : "0x6000600060006000600073b00000000000000000000000000000000000000061c350f1600a556000600060006000600073c00000000000000000000000000000000000000061c350f1600b556000600060006000600073d00000000000000000000000000000000000000061c350f1600c55600c600455600c600555",
                "nonce" : "0x00",
                "storage" : {
                }
            },
            "0xa100000000000000000000000000000000000000" : {
                "balance" : "0x00",
                "code" : "0x6000600060006000600073b00000000000000000000000000000000000000061c350f2600a556000600060006000600073c00000000000000000000000000000000000000061c350f2600b556000600060006000600073d00000000000000000000000000000000000000061c350f2600c55600c600455600c600555",
                "nonce" : "0x00",
                "storage" : {
                }
            },
            "0xa200000000000000000000000000000000000000" : {
                "balance" : "0x00",
                "code" : "0x600060006000600073b00000000000000000000000000000000000000061c350f4600a55600060006000600073c00000000000000000000000000000000000000061c350f4600b55600060006000600073d00000000000000000000000000000000000000061c350f4600c55600c600455600c600555",
                "nonce" : "0x00",
                "storage" : {
                }
            },
            "0xa300000000000000000000000000000000000000" : {
                "balance" : "0x00",
                "code" : "0x6000600060006000600073b00000000000000000000000000000000000000061c350f1600a55600060006000600073c00000000000000000000000000000000000000061c350f4600b556000600060006000600073d00000000000000000000000000000000000000061c350f2600c55600c600455600c600555",
                "nonce" : "0x00",
                "storage" : {
                }
            },
            "0xa94f5374fce5edbc8e2a8697c15331677e6ebf0b" : {
                "balance" : "0xe8d4a51000",
                "code" : "0x",
                "nonce" : "0x00",
                "storage" : {
                }
            },
            "0xac00000000000000000000000000000000000000" : {
                "balance" : "0x00",
                "code" : "0x6000600060006000346000356203f7a0f1",
                "nonce" : "0x00",
                "storage" : {
                }
            },
            "0xb000000000000000000000000000000000000000" : {
                "balance" : "0x00",
                "code" : "0x600c60015560016000fd",
                "nonce" : "0x00",
                "storage" : {
                }
            },
            "0xc000000000000000000000000000000000000000" : {
                "balance" : "0x00",
                "code" : "0x600c60025560016000fd",
                "nonce" : "0x00",
                "storage" : {
                }
            },
            "0xd000000000000000000000000000000000000000" : {
                "balance" : "0x00",
                "code" : "0x600c60035560016000fd",
                "nonce" : "0x00",
                "storage" : {
                }
            }
        },
        "sealEngine" : "NoProof"
    },
    "RevertOpcodeMultipleSubCalls_d2g0v1_ConstantinopleFix" : {
        "_info" : {
            "comment" : "",
            "filledwith" : "testeth 1.7.0-alpha.1-20+commit.782a7283",
            "lllcversion" : "Version: 0.5.0-develop.2018.11.9+commit.9709dfe0.Linux.g++",
            "source" : "src/BlockchainTestsFiller/GeneralStateTests/stRevertTest/RevertOpcodeMultipleSubCalls_d2g0v1Filler.json",
            "sourceHash" : "dcddea9dc4c864509f9105859cb8624ef3ca16c7832ec3c5c02a1848cf30dda5"
        },
        "blocks" : [
            {
                "blockHeader" : {
                    "bloom" : "0x00000000000000000000000000000000000000000000000000000000000000000000000000000000000000000000000000000000000000000000000000000000000000000000000000000000000000000000000000000000000000000000000000000000000000000000000000000000000000000000000000000000000000000000000000000000000000000000000000000000000000000000000000000000000000000000000000000000000000000000000000000000000000000000000000000000000000000000000000000000000000000000000000000000000000000000000000000000000000000000000000000000000000000000000000000000",
                    "coinbase" : "0x2adc25665018aa1fe0e6bc666dac8fc2697ff9ba",
                    "difficulty" : "0x020000",
                    "extraData" : "0x",
                    "gasLimit" : "0x989680",
                    "gasUsed" : "0x0239ab",
                    "hash" : "0x82455ba94b23c150591b2a3e8266115350e0e0d7fc3544fe56f6f41e6d50a1bb",
                    "mixHash" : "0x0000000000000000000000000000000000000000000000000000000000000000",
                    "nonce" : "0x0000000000000000",
                    "number" : "0x01",
                    "parentHash" : "0x9c0c02b9a5a8b304b47336a09b24677ecde4273d5b90accfca80e0e7717310fd",
                    "receiptTrie" : "0x786f50ef0f9058903c2f60c0435d2be9c367ce7c75e807be848e1049fa606652",
                    "stateRoot" : "0xc3af0bece3d584eb42b180debf8e0ebdaeff5e6aabd7588eb043cb638946ec3b",
                    "timestamp" : "0x03e8",
                    "transactionsTrie" : "0xca5a0c1fc51f41c19943506b449fb41f7ded935bbba184f3bfcb396a0cb465da",
                    "uncleHash" : "0x1dcc4de8dec75d7aab85b567b6ccd41ad312451b948a7413f0a142fd40d49347"
                },
                "rlp" : "0xf90280f901f8a09c0c02b9a5a8b304b47336a09b24677ecde4273d5b90accfca80e0e7717310fda01dcc4de8dec75d7aab85b567b6ccd41ad312451b948a7413f0a142fd40d49347942adc25665018aa1fe0e6bc666dac8fc2697ff9baa0c3af0bece3d584eb42b180debf8e0ebdaeff5e6aabd7588eb043cb638946ec3ba0ca5a0c1fc51f41c19943506b449fb41f7ded935bbba184f3bfcb396a0cb465daa0786f50ef0f9058903c2f60c0435d2be9c367ce7c75e807be848e1049fa606652b9010000000000000000000000000000000000000000000000000000000000000000000000000000000000000000000000000000000000000000000000000000000000000000000000000000000000000000000000000000000000000000000000000000000000000000000000000000000000000000000000000000000000000000000000000000000000000000000000000000000000000000000000000000000000000000000000000000000000000000000000000000000000000000000000000000000000000000000000000000000000000000000000000000000000000000000000000000000000000000000000000000000000000000000000000000000000830200000183989680830239ab8203e880a00000000000000000000000000000000000000000000000000000000000000000880000000000000000f882f8808001830c350094ac000000000000000000000000000000000000000aa0000000000000000000000000a2000000000000000000000000000000000000001ba0b88ffab673d6401c5b775b2611bbf29a72e396cff328525c2a2ae53b6c836247a03d42015daa3cdc77263a7b76e4bcfc0e514b08d9fd2a2112ef57aaf71fc4d16ac0",
                "transactions" : [
                    {
                        "data" : "0x000000000000000000000000a200000000000000000000000000000000000000",
                        "gasLimit" : "0x0c3500",
                        "gasPrice" : "0x01",
                        "nonce" : "0x00",
                        "r" : "0xb88ffab673d6401c5b775b2611bbf29a72e396cff328525c2a2ae53b6c836247",
                        "s" : "0x3d42015daa3cdc77263a7b76e4bcfc0e514b08d9fd2a2112ef57aaf71fc4d16a",
                        "to" : "0xac00000000000000000000000000000000000000",
                        "v" : "0x1b",
                        "value" : "0x0a"
                    }
                ],
                "uncleHeaders" : [
                ]
            }
        ],
        "genesisBlockHeader" : {
            "bloom" : "0x00000000000000000000000000000000000000000000000000000000000000000000000000000000000000000000000000000000000000000000000000000000000000000000000000000000000000000000000000000000000000000000000000000000000000000000000000000000000000000000000000000000000000000000000000000000000000000000000000000000000000000000000000000000000000000000000000000000000000000000000000000000000000000000000000000000000000000000000000000000000000000000000000000000000000000000000000000000000000000000000000000000000000000000000000000000",
            "coinbase" : "0x2adc25665018aa1fe0e6bc666dac8fc2697ff9ba",
            "difficulty" : "0x020000",
            "extraData" : "0x42",
            "gasLimit" : "0x989680",
            "gasUsed" : "0x00",
            "hash" : "0x9c0c02b9a5a8b304b47336a09b24677ecde4273d5b90accfca80e0e7717310fd",
            "mixHash" : "0x56e81f171bcc55a6ff8345e692c0f86e5b48e01b996cadc001622fb5e363b421",
            "nonce" : "0x0102030405060708",
            "number" : "0x00",
            "parentHash" : "0x0000000000000000000000000000000000000000000000000000000000000000",
            "receiptTrie" : "0x56e81f171bcc55a6ff8345e692c0f86e5b48e01b996cadc001622fb5e363b421",
            "stateRoot" : "0x1b33c44accff3f1d7776a868d7edfeb36f680a4e079cb885fd2d1bb1aa621d5e",
            "timestamp" : "0x03b6",
            "transactionsTrie" : "0x56e81f171bcc55a6ff8345e692c0f86e5b48e01b996cadc001622fb5e363b421",
            "uncleHash" : "0x1dcc4de8dec75d7aab85b567b6ccd41ad312451b948a7413f0a142fd40d49347"
        },
        "genesisRLP" : "0xf901faf901f5a00000000000000000000000000000000000000000000000000000000000000000a01dcc4de8dec75d7aab85b567b6ccd41ad312451b948a7413f0a142fd40d49347942adc25665018aa1fe0e6bc666dac8fc2697ff9baa01b33c44accff3f1d7776a868d7edfeb36f680a4e079cb885fd2d1bb1aa621d5ea056e81f171bcc55a6ff8345e692c0f86e5b48e01b996cadc001622fb5e363b421a056e81f171bcc55a6ff8345e692c0f86e5b48e01b996cadc001622fb5e363b421b9010000000000000000000000000000000000000000000000000000000000000000000000000000000000000000000000000000000000000000000000000000000000000000000000000000000000000000000000000000000000000000000000000000000000000000000000000000000000000000000000000000000000000000000000000000000000000000000000000000000000000000000000000000000000000000000000000000000000000000000000000000000000000000000000000000000000000000000000000000000000000000000000000000000000000000000000000000000000000000000000000000000000000000000000000000000000830200008083989680808203b642a056e81f171bcc55a6ff8345e692c0f86e5b48e01b996cadc001622fb5e363b421880102030405060708c0c0",
        "lastblockhash" : "0x82455ba94b23c150591b2a3e8266115350e0e0d7fc3544fe56f6f41e6d50a1bb",
        "network" : "ConstantinopleFix",
        "postState" : {
            "0x2adc25665018aa1fe0e6bc666dac8fc2697ff9ba" : {
                "balance" : "0x1bc16d674eca39ab",
                "code" : "0x",
                "nonce" : "0x00",
                "storage" : {
                }
            },
            "0xa000000000000000000000000000000000000000" : {
                "balance" : "0x00",
                "code" : "0x6000600060006000600073b00000000000000000000000000000000000000061c350f1600a556000600060006000600073c00000000000000000000000000000000000000061c350f1600b556000600060006000600073d00000000000000000000000000000000000000061c350f1600c55600c600455600c600555",
                "nonce" : "0x00",
                "storage" : {
                }
            },
            "0xa100000000000000000000000000000000000000" : {
                "balance" : "0x00",
                "code" : "0x6000600060006000600073b00000000000000000000000000000000000000061c350f2600a556000600060006000600073c00000000000000000000000000000000000000061c350f2600b556000600060006000600073d00000000000000000000000000000000000000061c350f2600c55600c600455600c600555",
                "nonce" : "0x00",
                "storage" : {
                }
            },
            "0xa200000000000000000000000000000000000000" : {
                "balance" : "0x0a",
                "code" : "0x600060006000600073b00000000000000000000000000000000000000061c350f4600a55600060006000600073c00000000000000000000000000000000000000061c350f4600b55600060006000600073d00000000000000000000000000000000000000061c350f4600c55600c600455600c600555",
                "nonce" : "0x00",
                "storage" : {
                    "0x04" : "0x0c",
                    "0x05" : "0x0c"
                }
            },
            "0xa300000000000000000000000000000000000000" : {
                "balance" : "0x00",
                "code" : "0x6000600060006000600073b00000000000000000000000000000000000000061c350f1600a55600060006000600073c00000000000000000000000000000000000000061c350f4600b556000600060006000600073d00000000000000000000000000000000000000061c350f2600c55600c600455600c600555",
                "nonce" : "0x00",
                "storage" : {
                }
            },
            "0xa94f5374fce5edbc8e2a8697c15331677e6ebf0b" : {
                "balance" : "0xe8d4a2d64b",
                "code" : "0x",
                "nonce" : "0x01",
                "storage" : {
                }
            },
            "0xac00000000000000000000000000000000000000" : {
                "balance" : "0x00",
                "code" : "0x6000600060006000346000356203f7a0f1",
                "nonce" : "0x00",
                "storage" : {
                }
            },
            "0xb000000000000000000000000000000000000000" : {
                "balance" : "0x00",
                "code" : "0x600c60015560016000fd",
                "nonce" : "0x00",
                "storage" : {
                }
            },
            "0xc000000000000000000000000000000000000000" : {
                "balance" : "0x00",
                "code" : "0x600c60025560016000fd",
                "nonce" : "0x00",
                "storage" : {
                }
            },
            "0xd000000000000000000000000000000000000000" : {
                "balance" : "0x00",
                "code" : "0x600c60035560016000fd",
                "nonce" : "0x00",
                "storage" : {
                }
            }
        },
        "pre" : {
            "0xa000000000000000000000000000000000000000" : {
                "balance" : "0x00",
                "code" : "0x6000600060006000600073b00000000000000000000000000000000000000061c350f1600a556000600060006000600073c00000000000000000000000000000000000000061c350f1600b556000600060006000600073d00000000000000000000000000000000000000061c350f1600c55600c600455600c600555",
                "nonce" : "0x00",
                "storage" : {
                }
            },
            "0xa100000000000000000000000000000000000000" : {
                "balance" : "0x00",
                "code" : "0x6000600060006000600073b00000000000000000000000000000000000000061c350f2600a556000600060006000600073c00000000000000000000000000000000000000061c350f2600b556000600060006000600073d00000000000000000000000000000000000000061c350f2600c55600c600455600c600555",
                "nonce" : "0x00",
                "storage" : {
                }
            },
            "0xa200000000000000000000000000000000000000" : {
                "balance" : "0x00",
                "code" : "0x600060006000600073b00000000000000000000000000000000000000061c350f4600a55600060006000600073c00000000000000000000000000000000000000061c350f4600b55600060006000600073d00000000000000000000000000000000000000061c350f4600c55600c600455600c600555",
                "nonce" : "0x00",
                "storage" : {
                }
            },
            "0xa300000000000000000000000000000000000000" : {
                "balance" : "0x00",
                "code" : "0x6000600060006000600073b00000000000000000000000000000000000000061c350f1600a55600060006000600073c00000000000000000000000000000000000000061c350f4600b556000600060006000600073d00000000000000000000000000000000000000061c350f2600c55600c600455600c600555",
                "nonce" : "0x00",
                "storage" : {
                }
            },
            "0xa94f5374fce5edbc8e2a8697c15331677e6ebf0b" : {
                "balance" : "0xe8d4a51000",
                "code" : "0x",
                "nonce" : "0x00",
                "storage" : {
                }
            },
            "0xac00000000000000000000000000000000000000" : {
                "balance" : "0x00",
                "code" : "0x6000600060006000346000356203f7a0f1",
                "nonce" : "0x00",
                "storage" : {
                }
            },
            "0xb000000000000000000000000000000000000000" : {
                "balance" : "0x00",
                "code" : "0x600c60015560016000fd",
                "nonce" : "0x00",
                "storage" : {
                }
            },
            "0xc000000000000000000000000000000000000000" : {
                "balance" : "0x00",
                "code" : "0x600c60025560016000fd",
                "nonce" : "0x00",
                "storage" : {
                }
            },
            "0xd000000000000000000000000000000000000000" : {
                "balance" : "0x00",
                "code" : "0x600c60035560016000fd",
                "nonce" : "0x00",
                "storage" : {
                }
            }
        },
        "sealEngine" : "NoProof"
    }
}