{
    "RevertOpcodeReturn_d5g1v0_EIP150" : {
        "_info" : {
            "comment" : "",
            "filledwith" : "testeth 1.7.0-alpha.1-20+commit.782a7283",
            "lllcversion" : "Version: 0.5.0-develop.2018.11.9+commit.9709dfe0.Linux.g++",
            "source" : "src/BlockchainTestsFiller/GeneralStateTests/stRevertTest/RevertOpcodeReturn_d5g1v0Filler.json",
            "sourceHash" : "2f8b03bb26bce47e2db26370deb63511827534ac0e2ec5283f5d40bd3fe681c0"
        },
        "blocks" : [
            {
                "blockHeader" : {
                    "bloom" : "0x00000000000000000000000000000000000000000000000000000000000000000000000000000000000000000000000000000000000000000000000000000000000000000000000000000000000000000000000000000000000000000000000000000000000000000000000000000000000000000000000000000000000000000000000000000000000000000000000000000000000000000000000000000000000000000000000000000000000000000000000000000000000000000000000000000000000000000000000000000000000000000000000000000000000000000000000000000000000000000000000000000000000000000000000000000000",
                    "coinbase" : "0x2adc25665018aa1fe0e6bc666dac8fc2697ff9ba",
                    "difficulty" : "0x020000",
                    "extraData" : "0x",
                    "gasLimit" : "0x989680",
                    "gasUsed" : "0x011170",
                    "hash" : "0x7007942ff1563d502035e56f70e92e89958f4ace41fd8db9f4d8aed8640d316b",
                    "mixHash" : "0x0000000000000000000000000000000000000000000000000000000000000000",
                    "nonce" : "0x0000000000000000",
                    "number" : "0x01",
                    "parentHash" : "0xcfd57f71685c8344273e97531caa73fa1d11eab09c95bde948cdb71250e3047a",
                    "receiptTrie" : "0x0de8e06764d628eb9df25b92ecf5fc14b1c9b5633503d4bf771bbb6aee665e1f",
                    "stateRoot" : "0xfcf50580c069eee894106ee4c7ec0ae65ffc937deffa61d2fb5d55c69e7a660f",
                    "timestamp" : "0x03e8",
                    "transactionsTrie" : "0xf59b1938393e391754db0172e6212e63f557b85c82c4f0958a9ae2b9af815b8c",
                    "uncleHash" : "0x1dcc4de8dec75d7aab85b567b6ccd41ad312451b948a7413f0a142fd40d49347"
                },
                "rlp" : "0xf9027ff901f8a0cfd57f71685c8344273e97531caa73fa1d11eab09c95bde948cdb71250e3047aa01dcc4de8dec75d7aab85b567b6ccd41ad312451b948a7413f0a142fd40d49347942adc25665018aa1fe0e6bc666dac8fc2697ff9baa0fcf50580c069eee894106ee4c7ec0ae65ffc937deffa61d2fb5d55c69e7a660fa0f59b1938393e391754db0172e6212e63f557b85c82c4f0958a9ae2b9af815b8ca00de8e06764d628eb9df25b92ecf5fc14b1c9b5633503d4bf771bbb6aee665e1fb9010000000000000000000000000000000000000000000000000000000000000000000000000000000000000000000000000000000000000000000000000000000000000000000000000000000000000000000000000000000000000000000000000000000000000000000000000000000000000000000000000000000000000000000000000000000000000000000000000000000000000000000000000000000000000000000000000000000000000000000000000000000000000000000000000000000000000000000000000000000000000000000000000000000000000000000000000000000000000000000000000000000000000000000000000000000000830200000183989680830111708203e880a00000000000000000000000000000000000000000000000000000000000000000880000000000000000f881f87f80018301117094a00000000000000000000000000000000000000080a0000000000000000000000000a6000000000000000000000000000000000000001b9f6deed389fc17039f283492459b0da5fd4614f1c829d6c55722fcaa3c1f4afea04064f91ea3b58305ceece70f7938d988a2c93f70b4e5a9269d04a5d6bb4f84f5c0",
                "transactions" : [
                    {
                        "data" : "0x000000000000000000000000a600000000000000000000000000000000000000",
                        "gasLimit" : "0x011170",
                        "gasPrice" : "0x01",
                        "nonce" : "0x00",
                        "r" : "0x6deed389fc17039f283492459b0da5fd4614f1c829d6c55722fcaa3c1f4afe",
                        "s" : "0x4064f91ea3b58305ceece70f7938d988a2c93f70b4e5a9269d04a5d6bb4f84f5",
                        "to" : "0xa000000000000000000000000000000000000000",
                        "v" : "0x1b",
                        "value" : "0x00"
                    }
                ],
                "uncleHeaders" : [
                ]
            }
        ],
        "genesisBlockHeader" : {
            "bloom" : "0x00000000000000000000000000000000000000000000000000000000000000000000000000000000000000000000000000000000000000000000000000000000000000000000000000000000000000000000000000000000000000000000000000000000000000000000000000000000000000000000000000000000000000000000000000000000000000000000000000000000000000000000000000000000000000000000000000000000000000000000000000000000000000000000000000000000000000000000000000000000000000000000000000000000000000000000000000000000000000000000000000000000000000000000000000000000",
            "coinbase" : "0x2adc25665018aa1fe0e6bc666dac8fc2697ff9ba",
            "difficulty" : "0x020000",
            "extraData" : "0x42",
            "gasLimit" : "0x989680",
            "gasUsed" : "0x00",
            "hash" : "0xcfd57f71685c8344273e97531caa73fa1d11eab09c95bde948cdb71250e3047a",
            "mixHash" : "0x56e81f171bcc55a6ff8345e692c0f86e5b48e01b996cadc001622fb5e363b421",
            "nonce" : "0x0102030405060708",
            "number" : "0x00",
            "parentHash" : "0x0000000000000000000000000000000000000000000000000000000000000000",
            "receiptTrie" : "0x56e81f171bcc55a6ff8345e692c0f86e5b48e01b996cadc001622fb5e363b421",
            "stateRoot" : "0x0fef322a71142192bd16de1044b5416da09ef0bbb74325d8a454373a10eeefd6",
            "timestamp" : "0x03b6",
            "transactionsTrie" : "0x56e81f171bcc55a6ff8345e692c0f86e5b48e01b996cadc001622fb5e363b421",
            "uncleHash" : "0x1dcc4de8dec75d7aab85b567b6ccd41ad312451b948a7413f0a142fd40d49347"
        },
        "genesisRLP" : "0xf901faf901f5a00000000000000000000000000000000000000000000000000000000000000000a01dcc4de8dec75d7aab85b567b6ccd41ad312451b948a7413f0a142fd40d49347942adc25665018aa1fe0e6bc666dac8fc2697ff9baa00fef322a71142192bd16de1044b5416da09ef0bbb74325d8a454373a10eeefd6a056e81f171bcc55a6ff8345e692c0f86e5b48e01b996cadc001622fb5e363b421a056e81f171bcc55a6ff8345e692c0f86e5b48e01b996cadc001622fb5e363b421b9010000000000000000000000000000000000000000000000000000000000000000000000000000000000000000000000000000000000000000000000000000000000000000000000000000000000000000000000000000000000000000000000000000000000000000000000000000000000000000000000000000000000000000000000000000000000000000000000000000000000000000000000000000000000000000000000000000000000000000000000000000000000000000000000000000000000000000000000000000000000000000000000000000000000000000000000000000000000000000000000000000000000000000000000000000000000830200008083989680808203b642a056e81f171bcc55a6ff8345e692c0f86e5b48e01b996cadc001622fb5e363b421880102030405060708c0c0",
        "lastblockhash" : "0x7007942ff1563d502035e56f70e92e89958f4ace41fd8db9f4d8aed8640d316b",
        "network" : "EIP150",
        "postState" : {
            "0x2adc25665018aa1fe0e6bc666dac8fc2697ff9ba" : {
                "balance" : "0x4563918244f51170",
                "code" : "0x",
                "nonce" : "0x00",
                "storage" : {
                }
            },
            "0xa000000000000000000000000000000000000000" : {
                "balance" : "0x00",
                "code" : "0x60206000600060006000600035620249f0f1600155600051600255",
                "nonce" : "0x00",
                "storage" : {
                }
            },
            "0xa100000000000000000000000000000000000000" : {
                "balance" : "0x00",
                "code" : "0x6c726576657274656420646174616000556d726576657274206d65737361676560005260206000fd",
                "nonce" : "0x00",
                "storage" : {
                }
            },
            "0xa200000000000000000000000000000000000000" : {
                "balance" : "0x00",
                "code" : "0x6c726576657274656420646174616000556d726576657274206d65737361676560005260006000fd",
                "nonce" : "0x00",
                "storage" : {
                }
            },
            "0xa300000000000000000000000000000000000000" : {
                "balance" : "0x00",
                "code" : "0x6c726576657274656420646174616000556d726576657274206d6573736167656000526e0fffffffffffffffffffffffffffff6000fd",
                "nonce" : "0x00",
                "storage" : {
                }
            },
            "0xa400000000000000000000000000000000000000" : {
                "balance" : "0x00",
                "code" : "0x6c726576657274656420646174616000556d726576657274206d6573736167656000526000610100fd",
                "nonce" : "0x00",
                "storage" : {
                }
            },
            "0xa500000000000000000000000000000000000000" : {
                "balance" : "0x00",
                "code" : "0x6c726576657274656420646174616000556d726576657274206d65737361676560005260006001fd",
                "nonce" : "0x00",
                "storage" : {
                }
            },
            "0xa600000000000000000000000000000000000000" : {
                "balance" : "0x00",
                "code" : "0x6c726576657274656420646174616000556d726576657274206d65737361676560005260006e0ffffffffffffffffffffffffffffffd",
                "nonce" : "0x00",
                "storage" : {
                }
            },
            "0xa94f5374fce5edbc8e2a8697c15331677e6ebf0b" : {
                "balance" : "0xe8d4a3fe90",
                "code" : "0x",
                "nonce" : "0x01",
                "storage" : {
                }
            }
        },
        "pre" : {
            "0xa000000000000000000000000000000000000000" : {
                "balance" : "0x00",
                "code" : "0x60206000600060006000600035620249f0f1600155600051600255",
                "nonce" : "0x00",
                "storage" : {
                }
            },
            "0xa100000000000000000000000000000000000000" : {
                "balance" : "0x00",
                "code" : "0x6c726576657274656420646174616000556d726576657274206d65737361676560005260206000fd",
                "nonce" : "0x00",
                "storage" : {
                }
            },
            "0xa200000000000000000000000000000000000000" : {
                "balance" : "0x00",
                "code" : "0x6c726576657274656420646174616000556d726576657274206d65737361676560005260006000fd",
                "nonce" : "0x00",
                "storage" : {
                }
            },
            "0xa300000000000000000000000000000000000000" : {
                "balance" : "0x00",
                "code" : "0x6c726576657274656420646174616000556d726576657274206d6573736167656000526e0fffffffffffffffffffffffffffff6000fd",
                "nonce" : "0x00",
                "storage" : {
                }
            },
            "0xa400000000000000000000000000000000000000" : {
                "balance" : "0x00",
                "code" : "0x6c726576657274656420646174616000556d726576657274206d6573736167656000526000610100fd",
                "nonce" : "0x00",
                "storage" : {
                }
            },
            "0xa500000000000000000000000000000000000000" : {
                "balance" : "0x00",
                "code" : "0x6c726576657274656420646174616000556d726576657274206d65737361676560005260006001fd",
                "nonce" : "0x00",
                "storage" : {
                }
            },
            "0xa600000000000000000000000000000000000000" : {
                "balance" : "0x00",
                "code" : "0x6c726576657274656420646174616000556d726576657274206d65737361676560005260006e0ffffffffffffffffffffffffffffffd",
                "nonce" : "0x00",
                "storage" : {
                }
            },
            "0xa94f5374fce5edbc8e2a8697c15331677e6ebf0b" : {
                "balance" : "0xe8d4a51000",
                "code" : "0x",
                "nonce" : "0x00",
                "storage" : {
                }
            }
        },
        "sealEngine" : "NoProof"
    },
    "RevertOpcodeReturn_d5g1v0_EIP158" : {
        "_info" : {
            "comment" : "",
            "filledwith" : "testeth 1.7.0-alpha.1-20+commit.782a7283",
            "lllcversion" : "Version: 0.5.0-develop.2018.11.9+commit.9709dfe0.Linux.g++",
            "source" : "src/BlockchainTestsFiller/GeneralStateTests/stRevertTest/RevertOpcodeReturn_d5g1v0Filler.json",
            "sourceHash" : "2f8b03bb26bce47e2db26370deb63511827534ac0e2ec5283f5d40bd3fe681c0"
        },
        "blocks" : [
            {
                "blockHeader" : {
                    "bloom" : "0x00000000000000000000000000000000000000000000000000000000000000000000000000000000000000000000000000000000000000000000000000000000000000000000000000000000000000000000000000000000000000000000000000000000000000000000000000000000000000000000000000000000000000000000000000000000000000000000000000000000000000000000000000000000000000000000000000000000000000000000000000000000000000000000000000000000000000000000000000000000000000000000000000000000000000000000000000000000000000000000000000000000000000000000000000000000",
                    "coinbase" : "0x2adc25665018aa1fe0e6bc666dac8fc2697ff9ba",
                    "difficulty" : "0x020000",
                    "extraData" : "0x",
                    "gasLimit" : "0x989680",
                    "gasUsed" : "0x011170",
                    "hash" : "0x7007942ff1563d502035e56f70e92e89958f4ace41fd8db9f4d8aed8640d316b",
                    "mixHash" : "0x0000000000000000000000000000000000000000000000000000000000000000",
                    "nonce" : "0x0000000000000000",
                    "number" : "0x01",
                    "parentHash" : "0xcfd57f71685c8344273e97531caa73fa1d11eab09c95bde948cdb71250e3047a",
                    "receiptTrie" : "0x0de8e06764d628eb9df25b92ecf5fc14b1c9b5633503d4bf771bbb6aee665e1f",
                    "stateRoot" : "0xfcf50580c069eee894106ee4c7ec0ae65ffc937deffa61d2fb5d55c69e7a660f",
                    "timestamp" : "0x03e8",
                    "transactionsTrie" : "0xf59b1938393e391754db0172e6212e63f557b85c82c4f0958a9ae2b9af815b8c",
                    "uncleHash" : "0x1dcc4de8dec75d7aab85b567b6ccd41ad312451b948a7413f0a142fd40d49347"
                },
                "rlp" : "0xf9027ff901f8a0cfd57f71685c8344273e97531caa73fa1d11eab09c95bde948cdb71250e3047aa01dcc4de8dec75d7aab85b567b6ccd41ad312451b948a7413f0a142fd40d49347942adc25665018aa1fe0e6bc666dac8fc2697ff9baa0fcf50580c069eee894106ee4c7ec0ae65ffc937deffa61d2fb5d55c69e7a660fa0f59b1938393e391754db0172e6212e63f557b85c82c4f0958a9ae2b9af815b8ca00de8e06764d628eb9df25b92ecf5fc14b1c9b5633503d4bf771bbb6aee665e1fb9010000000000000000000000000000000000000000000000000000000000000000000000000000000000000000000000000000000000000000000000000000000000000000000000000000000000000000000000000000000000000000000000000000000000000000000000000000000000000000000000000000000000000000000000000000000000000000000000000000000000000000000000000000000000000000000000000000000000000000000000000000000000000000000000000000000000000000000000000000000000000000000000000000000000000000000000000000000000000000000000000000000000000000000000000000000000830200000183989680830111708203e880a00000000000000000000000000000000000000000000000000000000000000000880000000000000000f881f87f80018301117094a00000000000000000000000000000000000000080a0000000000000000000000000a6000000000000000000000000000000000000001b9f6deed389fc17039f283492459b0da5fd4614f1c829d6c55722fcaa3c1f4afea04064f91ea3b58305ceece70f7938d988a2c93f70b4e5a9269d04a5d6bb4f84f5c0",
                "transactions" : [
                    {
                        "data" : "0x000000000000000000000000a600000000000000000000000000000000000000",
                        "gasLimit" : "0x011170",
                        "gasPrice" : "0x01",
                        "nonce" : "0x00",
                        "r" : "0x6deed389fc17039f283492459b0da5fd4614f1c829d6c55722fcaa3c1f4afe",
                        "s" : "0x4064f91ea3b58305ceece70f7938d988a2c93f70b4e5a9269d04a5d6bb4f84f5",
                        "to" : "0xa000000000000000000000000000000000000000",
                        "v" : "0x1b",
                        "value" : "0x00"
                    }
                ],
                "uncleHeaders" : [
                ]
            }
        ],
        "genesisBlockHeader" : {
            "bloom" : "0x00000000000000000000000000000000000000000000000000000000000000000000000000000000000000000000000000000000000000000000000000000000000000000000000000000000000000000000000000000000000000000000000000000000000000000000000000000000000000000000000000000000000000000000000000000000000000000000000000000000000000000000000000000000000000000000000000000000000000000000000000000000000000000000000000000000000000000000000000000000000000000000000000000000000000000000000000000000000000000000000000000000000000000000000000000000",
            "coinbase" : "0x2adc25665018aa1fe0e6bc666dac8fc2697ff9ba",
            "difficulty" : "0x020000",
            "extraData" : "0x42",
            "gasLimit" : "0x989680",
            "gasUsed" : "0x00",
            "hash" : "0xcfd57f71685c8344273e97531caa73fa1d11eab09c95bde948cdb71250e3047a",
            "mixHash" : "0x56e81f171bcc55a6ff8345e692c0f86e5b48e01b996cadc001622fb5e363b421",
            "nonce" : "0x0102030405060708",
            "number" : "0x00",
            "parentHash" : "0x0000000000000000000000000000000000000000000000000000000000000000",
            "receiptTrie" : "0x56e81f171bcc55a6ff8345e692c0f86e5b48e01b996cadc001622fb5e363b421",
            "stateRoot" : "0x0fef322a71142192bd16de1044b5416da09ef0bbb74325d8a454373a10eeefd6",
            "timestamp" : "0x03b6",
            "transactionsTrie" : "0x56e81f171bcc55a6ff8345e692c0f86e5b48e01b996cadc001622fb5e363b421",
            "uncleHash" : "0x1dcc4de8dec75d7aab85b567b6ccd41ad312451b948a7413f0a142fd40d49347"
        },
        "genesisRLP" : "0xf901faf901f5a00000000000000000000000000000000000000000000000000000000000000000a01dcc4de8dec75d7aab85b567b6ccd41ad312451b948a7413f0a142fd40d49347942adc25665018aa1fe0e6bc666dac8fc2697ff9baa00fef322a71142192bd16de1044b5416da09ef0bbb74325d8a454373a10eeefd6a056e81f171bcc55a6ff8345e692c0f86e5b48e01b996cadc001622fb5e363b421a056e81f171bcc55a6ff8345e692c0f86e5b48e01b996cadc001622fb5e363b421b9010000000000000000000000000000000000000000000000000000000000000000000000000000000000000000000000000000000000000000000000000000000000000000000000000000000000000000000000000000000000000000000000000000000000000000000000000000000000000000000000000000000000000000000000000000000000000000000000000000000000000000000000000000000000000000000000000000000000000000000000000000000000000000000000000000000000000000000000000000000000000000000000000000000000000000000000000000000000000000000000000000000000000000000000000000000000830200008083989680808203b642a056e81f171bcc55a6ff8345e692c0f86e5b48e01b996cadc001622fb5e363b421880102030405060708c0c0",
        "lastblockhash" : "0x7007942ff1563d502035e56f70e92e89958f4ace41fd8db9f4d8aed8640d316b",
        "network" : "EIP158",
        "postState" : {
            "0x2adc25665018aa1fe0e6bc666dac8fc2697ff9ba" : {
                "balance" : "0x4563918244f51170",
                "code" : "0x",
                "nonce" : "0x00",
                "storage" : {
                }
            },
            "0xa000000000000000000000000000000000000000" : {
                "balance" : "0x00",
                "code" : "0x60206000600060006000600035620249f0f1600155600051600255",
                "nonce" : "0x00",
                "storage" : {
                }
            },
            "0xa100000000000000000000000000000000000000" : {
                "balance" : "0x00",
                "code" : "0x6c726576657274656420646174616000556d726576657274206d65737361676560005260206000fd",
                "nonce" : "0x00",
                "storage" : {
                }
            },
            "0xa200000000000000000000000000000000000000" : {
                "balance" : "0x00",
                "code" : "0x6c726576657274656420646174616000556d726576657274206d65737361676560005260006000fd",
                "nonce" : "0x00",
                "storage" : {
                }
            },
            "0xa300000000000000000000000000000000000000" : {
                "balance" : "0x00",
                "code" : "0x6c726576657274656420646174616000556d726576657274206d6573736167656000526e0fffffffffffffffffffffffffffff6000fd",
                "nonce" : "0x00",
                "storage" : {
                }
            },
            "0xa400000000000000000000000000000000000000" : {
                "balance" : "0x00",
                "code" : "0x6c726576657274656420646174616000556d726576657274206d6573736167656000526000610100fd",
                "nonce" : "0x00",
                "storage" : {
                }
            },
            "0xa500000000000000000000000000000000000000" : {
                "balance" : "0x00",
                "code" : "0x6c726576657274656420646174616000556d726576657274206d65737361676560005260006001fd",
                "nonce" : "0x00",
                "storage" : {
                }
            },
            "0xa600000000000000000000000000000000000000" : {
                "balance" : "0x00",
                "code" : "0x6c726576657274656420646174616000556d726576657274206d65737361676560005260006e0ffffffffffffffffffffffffffffffd",
                "nonce" : "0x00",
                "storage" : {
                }
            },
            "0xa94f5374fce5edbc8e2a8697c15331677e6ebf0b" : {
                "balance" : "0xe8d4a3fe90",
                "code" : "0x",
                "nonce" : "0x01",
                "storage" : {
                }
            }
        },
        "pre" : {
            "0xa000000000000000000000000000000000000000" : {
                "balance" : "0x00",
                "code" : "0x60206000600060006000600035620249f0f1600155600051600255",
                "nonce" : "0x00",
                "storage" : {
                }
            },
            "0xa100000000000000000000000000000000000000" : {
                "balance" : "0x00",
                "code" : "0x6c726576657274656420646174616000556d726576657274206d65737361676560005260206000fd",
                "nonce" : "0x00",
                "storage" : {
                }
            },
            "0xa200000000000000000000000000000000000000" : {
                "balance" : "0x00",
                "code" : "0x6c726576657274656420646174616000556d726576657274206d65737361676560005260006000fd",
                "nonce" : "0x00",
                "storage" : {
                }
            },
            "0xa300000000000000000000000000000000000000" : {
                "balance" : "0x00",
                "code" : "0x6c726576657274656420646174616000556d726576657274206d6573736167656000526e0fffffffffffffffffffffffffffff6000fd",
                "nonce" : "0x00",
                "storage" : {
                }
            },
            "0xa400000000000000000000000000000000000000" : {
                "balance" : "0x00",
                "code" : "0x6c726576657274656420646174616000556d726576657274206d6573736167656000526000610100fd",
                "nonce" : "0x00",
                "storage" : {
                }
            },
            "0xa500000000000000000000000000000000000000" : {
                "balance" : "0x00",
                "code" : "0x6c726576657274656420646174616000556d726576657274206d65737361676560005260006001fd",
                "nonce" : "0x00",
                "storage" : {
                }
            },
            "0xa600000000000000000000000000000000000000" : {
                "balance" : "0x00",
                "code" : "0x6c726576657274656420646174616000556d726576657274206d65737361676560005260006e0ffffffffffffffffffffffffffffffd",
                "nonce" : "0x00",
                "storage" : {
                }
            },
            "0xa94f5374fce5edbc8e2a8697c15331677e6ebf0b" : {
                "balance" : "0xe8d4a51000",
                "code" : "0x",
                "nonce" : "0x00",
                "storage" : {
                }
            }
        },
        "sealEngine" : "NoProof"
    },
    "RevertOpcodeReturn_d5g1v0_Frontier" : {
        "_info" : {
            "comment" : "",
            "filledwith" : "testeth 1.7.0-alpha.1-20+commit.782a7283",
            "lllcversion" : "Version: 0.5.0-develop.2018.11.9+commit.9709dfe0.Linux.g++",
            "source" : "src/BlockchainTestsFiller/GeneralStateTests/stRevertTest/RevertOpcodeReturn_d5g1v0Filler.json",
            "sourceHash" : "2f8b03bb26bce47e2db26370deb63511827534ac0e2ec5283f5d40bd3fe681c0"
        },
        "blocks" : [
            {
                "blockHeader" : {
                    "bloom" : "0x00000000000000000000000000000000000000000000000000000000000000000000000000000000000000000000000000000000000000000000000000000000000000000000000000000000000000000000000000000000000000000000000000000000000000000000000000000000000000000000000000000000000000000000000000000000000000000000000000000000000000000000000000000000000000000000000000000000000000000000000000000000000000000000000000000000000000000000000000000000000000000000000000000000000000000000000000000000000000000000000000000000000000000000000000000000",
                    "coinbase" : "0x2adc25665018aa1fe0e6bc666dac8fc2697ff9ba",
                    "difficulty" : "0x020000",
                    "extraData" : "0x",
                    "gasLimit" : "0x989680",
                    "gasUsed" : "0x011170",
                    "hash" : "0x7007942ff1563d502035e56f70e92e89958f4ace41fd8db9f4d8aed8640d316b",
                    "mixHash" : "0x0000000000000000000000000000000000000000000000000000000000000000",
                    "nonce" : "0x0000000000000000",
                    "number" : "0x01",
                    "parentHash" : "0xcfd57f71685c8344273e97531caa73fa1d11eab09c95bde948cdb71250e3047a",
                    "receiptTrie" : "0x0de8e06764d628eb9df25b92ecf5fc14b1c9b5633503d4bf771bbb6aee665e1f",
                    "stateRoot" : "0xfcf50580c069eee894106ee4c7ec0ae65ffc937deffa61d2fb5d55c69e7a660f",
                    "timestamp" : "0x03e8",
                    "transactionsTrie" : "0xf59b1938393e391754db0172e6212e63f557b85c82c4f0958a9ae2b9af815b8c",
                    "uncleHash" : "0x1dcc4de8dec75d7aab85b567b6ccd41ad312451b948a7413f0a142fd40d49347"
                },
                "rlp" : "0xf9027ff901f8a0cfd57f71685c8344273e97531caa73fa1d11eab09c95bde948cdb71250e3047aa01dcc4de8dec75d7aab85b567b6ccd41ad312451b948a7413f0a142fd40d49347942adc25665018aa1fe0e6bc666dac8fc2697ff9baa0fcf50580c069eee894106ee4c7ec0ae65ffc937deffa61d2fb5d55c69e7a660fa0f59b1938393e391754db0172e6212e63f557b85c82c4f0958a9ae2b9af815b8ca00de8e06764d628eb9df25b92ecf5fc14b1c9b5633503d4bf771bbb6aee665e1fb9010000000000000000000000000000000000000000000000000000000000000000000000000000000000000000000000000000000000000000000000000000000000000000000000000000000000000000000000000000000000000000000000000000000000000000000000000000000000000000000000000000000000000000000000000000000000000000000000000000000000000000000000000000000000000000000000000000000000000000000000000000000000000000000000000000000000000000000000000000000000000000000000000000000000000000000000000000000000000000000000000000000000000000000000000000000000830200000183989680830111708203e880a00000000000000000000000000000000000000000000000000000000000000000880000000000000000f881f87f80018301117094a00000000000000000000000000000000000000080a0000000000000000000000000a6000000000000000000000000000000000000001b9f6deed389fc17039f283492459b0da5fd4614f1c829d6c55722fcaa3c1f4afea04064f91ea3b58305ceece70f7938d988a2c93f70b4e5a9269d04a5d6bb4f84f5c0",
                "transactions" : [
                    {
                        "data" : "0x000000000000000000000000a600000000000000000000000000000000000000",
                        "gasLimit" : "0x011170",
                        "gasPrice" : "0x01",
                        "nonce" : "0x00",
                        "r" : "0x6deed389fc17039f283492459b0da5fd4614f1c829d6c55722fcaa3c1f4afe",
                        "s" : "0x4064f91ea3b58305ceece70f7938d988a2c93f70b4e5a9269d04a5d6bb4f84f5",
                        "to" : "0xa000000000000000000000000000000000000000",
                        "v" : "0x1b",
                        "value" : "0x00"
                    }
                ],
                "uncleHeaders" : [
                ]
            }
        ],
        "genesisBlockHeader" : {
            "bloom" : "0x00000000000000000000000000000000000000000000000000000000000000000000000000000000000000000000000000000000000000000000000000000000000000000000000000000000000000000000000000000000000000000000000000000000000000000000000000000000000000000000000000000000000000000000000000000000000000000000000000000000000000000000000000000000000000000000000000000000000000000000000000000000000000000000000000000000000000000000000000000000000000000000000000000000000000000000000000000000000000000000000000000000000000000000000000000000",
            "coinbase" : "0x2adc25665018aa1fe0e6bc666dac8fc2697ff9ba",
            "difficulty" : "0x020000",
            "extraData" : "0x42",
            "gasLimit" : "0x989680",
            "gasUsed" : "0x00",
            "hash" : "0xcfd57f71685c8344273e97531caa73fa1d11eab09c95bde948cdb71250e3047a",
            "mixHash" : "0x56e81f171bcc55a6ff8345e692c0f86e5b48e01b996cadc001622fb5e363b421",
            "nonce" : "0x0102030405060708",
            "number" : "0x00",
            "parentHash" : "0x0000000000000000000000000000000000000000000000000000000000000000",
            "receiptTrie" : "0x56e81f171bcc55a6ff8345e692c0f86e5b48e01b996cadc001622fb5e363b421",
            "stateRoot" : "0x0fef322a71142192bd16de1044b5416da09ef0bbb74325d8a454373a10eeefd6",
            "timestamp" : "0x03b6",
            "transactionsTrie" : "0x56e81f171bcc55a6ff8345e692c0f86e5b48e01b996cadc001622fb5e363b421",
            "uncleHash" : "0x1dcc4de8dec75d7aab85b567b6ccd41ad312451b948a7413f0a142fd40d49347"
        },
        "genesisRLP" : "0xf901faf901f5a00000000000000000000000000000000000000000000000000000000000000000a01dcc4de8dec75d7aab85b567b6ccd41ad312451b948a7413f0a142fd40d49347942adc25665018aa1fe0e6bc666dac8fc2697ff9baa00fef322a71142192bd16de1044b5416da09ef0bbb74325d8a454373a10eeefd6a056e81f171bcc55a6ff8345e692c0f86e5b48e01b996cadc001622fb5e363b421a056e81f171bcc55a6ff8345e692c0f86e5b48e01b996cadc001622fb5e363b421b9010000000000000000000000000000000000000000000000000000000000000000000000000000000000000000000000000000000000000000000000000000000000000000000000000000000000000000000000000000000000000000000000000000000000000000000000000000000000000000000000000000000000000000000000000000000000000000000000000000000000000000000000000000000000000000000000000000000000000000000000000000000000000000000000000000000000000000000000000000000000000000000000000000000000000000000000000000000000000000000000000000000000000000000000000000000000830200008083989680808203b642a056e81f171bcc55a6ff8345e692c0f86e5b48e01b996cadc001622fb5e363b421880102030405060708c0c0",
        "lastblockhash" : "0x7007942ff1563d502035e56f70e92e89958f4ace41fd8db9f4d8aed8640d316b",
        "network" : "Frontier",
        "postState" : {
            "0x2adc25665018aa1fe0e6bc666dac8fc2697ff9ba" : {
                "balance" : "0x4563918244f51170",
                "code" : "0x",
                "nonce" : "0x00",
                "storage" : {
                }
            },
            "0xa000000000000000000000000000000000000000" : {
                "balance" : "0x00",
                "code" : "0x60206000600060006000600035620249f0f1600155600051600255",
                "nonce" : "0x00",
                "storage" : {
                }
            },
            "0xa100000000000000000000000000000000000000" : {
                "balance" : "0x00",
                "code" : "0x6c726576657274656420646174616000556d726576657274206d65737361676560005260206000fd",
                "nonce" : "0x00",
                "storage" : {
                }
            },
            "0xa200000000000000000000000000000000000000" : {
                "balance" : "0x00",
                "code" : "0x6c726576657274656420646174616000556d726576657274206d65737361676560005260006000fd",
                "nonce" : "0x00",
                "storage" : {
                }
            },
            "0xa300000000000000000000000000000000000000" : {
                "balance" : "0x00",
                "code" : "0x6c726576657274656420646174616000556d726576657274206d6573736167656000526e0fffffffffffffffffffffffffffff6000fd",
                "nonce" : "0x00",
                "storage" : {
                }
            },
            "0xa400000000000000000000000000000000000000" : {
                "balance" : "0x00",
                "code" : "0x6c726576657274656420646174616000556d726576657274206d6573736167656000526000610100fd",
                "nonce" : "0x00",
                "storage" : {
                }
            },
            "0xa500000000000000000000000000000000000000" : {
                "balance" : "0x00",
                "code" : "0x6c726576657274656420646174616000556d726576657274206d65737361676560005260006001fd",
                "nonce" : "0x00",
                "storage" : {
                }
            },
            "0xa600000000000000000000000000000000000000" : {
                "balance" : "0x00",
                "code" : "0x6c726576657274656420646174616000556d726576657274206d65737361676560005260006e0ffffffffffffffffffffffffffffffd",
                "nonce" : "0x00",
                "storage" : {
                }
            },
            "0xa94f5374fce5edbc8e2a8697c15331677e6ebf0b" : {
                "balance" : "0xe8d4a3fe90",
                "code" : "0x",
                "nonce" : "0x01",
                "storage" : {
                }
            }
        },
        "pre" : {
            "0xa000000000000000000000000000000000000000" : {
                "balance" : "0x00",
                "code" : "0x60206000600060006000600035620249f0f1600155600051600255",
                "nonce" : "0x00",
                "storage" : {
                }
            },
            "0xa100000000000000000000000000000000000000" : {
                "balance" : "0x00",
                "code" : "0x6c726576657274656420646174616000556d726576657274206d65737361676560005260206000fd",
                "nonce" : "0x00",
                "storage" : {
                }
            },
            "0xa200000000000000000000000000000000000000" : {
                "balance" : "0x00",
                "code" : "0x6c726576657274656420646174616000556d726576657274206d65737361676560005260006000fd",
                "nonce" : "0x00",
                "storage" : {
                }
            },
            "0xa300000000000000000000000000000000000000" : {
                "balance" : "0x00",
                "code" : "0x6c726576657274656420646174616000556d726576657274206d6573736167656000526e0fffffffffffffffffffffffffffff6000fd",
                "nonce" : "0x00",
                "storage" : {
                }
            },
            "0xa400000000000000000000000000000000000000" : {
                "balance" : "0x00",
                "code" : "0x6c726576657274656420646174616000556d726576657274206d6573736167656000526000610100fd",
                "nonce" : "0x00",
                "storage" : {
                }
            },
            "0xa500000000000000000000000000000000000000" : {
                "balance" : "0x00",
                "code" : "0x6c726576657274656420646174616000556d726576657274206d65737361676560005260006001fd",
                "nonce" : "0x00",
                "storage" : {
                }
            },
            "0xa600000000000000000000000000000000000000" : {
                "balance" : "0x00",
                "code" : "0x6c726576657274656420646174616000556d726576657274206d65737361676560005260006e0ffffffffffffffffffffffffffffffd",
                "nonce" : "0x00",
                "storage" : {
                }
            },
            "0xa94f5374fce5edbc8e2a8697c15331677e6ebf0b" : {
                "balance" : "0xe8d4a51000",
                "code" : "0x",
                "nonce" : "0x00",
                "storage" : {
                }
            }
        },
        "sealEngine" : "NoProof"
    },
    "RevertOpcodeReturn_d5g1v0_Homestead" : {
        "_info" : {
            "comment" : "",
            "filledwith" : "testeth 1.7.0-alpha.1-20+commit.782a7283",
            "lllcversion" : "Version: 0.5.0-develop.2018.11.9+commit.9709dfe0.Linux.g++",
            "source" : "src/BlockchainTestsFiller/GeneralStateTests/stRevertTest/RevertOpcodeReturn_d5g1v0Filler.json",
            "sourceHash" : "2f8b03bb26bce47e2db26370deb63511827534ac0e2ec5283f5d40bd3fe681c0"
        },
        "blocks" : [
            {
                "blockHeader" : {
                    "bloom" : "0x00000000000000000000000000000000000000000000000000000000000000000000000000000000000000000000000000000000000000000000000000000000000000000000000000000000000000000000000000000000000000000000000000000000000000000000000000000000000000000000000000000000000000000000000000000000000000000000000000000000000000000000000000000000000000000000000000000000000000000000000000000000000000000000000000000000000000000000000000000000000000000000000000000000000000000000000000000000000000000000000000000000000000000000000000000000",
                    "coinbase" : "0x2adc25665018aa1fe0e6bc666dac8fc2697ff9ba",
                    "difficulty" : "0x020000",
                    "extraData" : "0x",
                    "gasLimit" : "0x989680",
                    "gasUsed" : "0x011170",
                    "hash" : "0x7007942ff1563d502035e56f70e92e89958f4ace41fd8db9f4d8aed8640d316b",
                    "mixHash" : "0x0000000000000000000000000000000000000000000000000000000000000000",
                    "nonce" : "0x0000000000000000",
                    "number" : "0x01",
                    "parentHash" : "0xcfd57f71685c8344273e97531caa73fa1d11eab09c95bde948cdb71250e3047a",
                    "receiptTrie" : "0x0de8e06764d628eb9df25b92ecf5fc14b1c9b5633503d4bf771bbb6aee665e1f",
                    "stateRoot" : "0xfcf50580c069eee894106ee4c7ec0ae65ffc937deffa61d2fb5d55c69e7a660f",
                    "timestamp" : "0x03e8",
                    "transactionsTrie" : "0xf59b1938393e391754db0172e6212e63f557b85c82c4f0958a9ae2b9af815b8c",
                    "uncleHash" : "0x1dcc4de8dec75d7aab85b567b6ccd41ad312451b948a7413f0a142fd40d49347"
                },
                "rlp" : "0xf9027ff901f8a0cfd57f71685c8344273e97531caa73fa1d11eab09c95bde948cdb71250e3047aa01dcc4de8dec75d7aab85b567b6ccd41ad312451b948a7413f0a142fd40d49347942adc25665018aa1fe0e6bc666dac8fc2697ff9baa0fcf50580c069eee894106ee4c7ec0ae65ffc937deffa61d2fb5d55c69e7a660fa0f59b1938393e391754db0172e6212e63f557b85c82c4f0958a9ae2b9af815b8ca00de8e06764d628eb9df25b92ecf5fc14b1c9b5633503d4bf771bbb6aee665e1fb9010000000000000000000000000000000000000000000000000000000000000000000000000000000000000000000000000000000000000000000000000000000000000000000000000000000000000000000000000000000000000000000000000000000000000000000000000000000000000000000000000000000000000000000000000000000000000000000000000000000000000000000000000000000000000000000000000000000000000000000000000000000000000000000000000000000000000000000000000000000000000000000000000000000000000000000000000000000000000000000000000000000000000000000000000000000000830200000183989680830111708203e880a00000000000000000000000000000000000000000000000000000000000000000880000000000000000f881f87f80018301117094a00000000000000000000000000000000000000080a0000000000000000000000000a6000000000000000000000000000000000000001b9f6deed389fc17039f283492459b0da5fd4614f1c829d6c55722fcaa3c1f4afea04064f91ea3b58305ceece70f7938d988a2c93f70b4e5a9269d04a5d6bb4f84f5c0",
                "transactions" : [
                    {
                        "data" : "0x000000000000000000000000a600000000000000000000000000000000000000",
                        "gasLimit" : "0x011170",
                        "gasPrice" : "0x01",
                        "nonce" : "0x00",
                        "r" : "0x6deed389fc17039f283492459b0da5fd4614f1c829d6c55722fcaa3c1f4afe",
                        "s" : "0x4064f91ea3b58305ceece70f7938d988a2c93f70b4e5a9269d04a5d6bb4f84f5",
                        "to" : "0xa000000000000000000000000000000000000000",
                        "v" : "0x1b",
                        "value" : "0x00"
                    }
                ],
                "uncleHeaders" : [
                ]
            }
        ],
        "genesisBlockHeader" : {
            "bloom" : "0x00000000000000000000000000000000000000000000000000000000000000000000000000000000000000000000000000000000000000000000000000000000000000000000000000000000000000000000000000000000000000000000000000000000000000000000000000000000000000000000000000000000000000000000000000000000000000000000000000000000000000000000000000000000000000000000000000000000000000000000000000000000000000000000000000000000000000000000000000000000000000000000000000000000000000000000000000000000000000000000000000000000000000000000000000000000",
            "coinbase" : "0x2adc25665018aa1fe0e6bc666dac8fc2697ff9ba",
            "difficulty" : "0x020000",
            "extraData" : "0x42",
            "gasLimit" : "0x989680",
            "gasUsed" : "0x00",
            "hash" : "0xcfd57f71685c8344273e97531caa73fa1d11eab09c95bde948cdb71250e3047a",
            "mixHash" : "0x56e81f171bcc55a6ff8345e692c0f86e5b48e01b996cadc001622fb5e363b421",
            "nonce" : "0x0102030405060708",
            "number" : "0x00",
            "parentHash" : "0x0000000000000000000000000000000000000000000000000000000000000000",
            "receiptTrie" : "0x56e81f171bcc55a6ff8345e692c0f86e5b48e01b996cadc001622fb5e363b421",
            "stateRoot" : "0x0fef322a71142192bd16de1044b5416da09ef0bbb74325d8a454373a10eeefd6",
            "timestamp" : "0x03b6",
            "transactionsTrie" : "0x56e81f171bcc55a6ff8345e692c0f86e5b48e01b996cadc001622fb5e363b421",
            "uncleHash" : "0x1dcc4de8dec75d7aab85b567b6ccd41ad312451b948a7413f0a142fd40d49347"
        },
        "genesisRLP" : "0xf901faf901f5a00000000000000000000000000000000000000000000000000000000000000000a01dcc4de8dec75d7aab85b567b6ccd41ad312451b948a7413f0a142fd40d49347942adc25665018aa1fe0e6bc666dac8fc2697ff9baa00fef322a71142192bd16de1044b5416da09ef0bbb74325d8a454373a10eeefd6a056e81f171bcc55a6ff8345e692c0f86e5b48e01b996cadc001622fb5e363b421a056e81f171bcc55a6ff8345e692c0f86e5b48e01b996cadc001622fb5e363b421b9010000000000000000000000000000000000000000000000000000000000000000000000000000000000000000000000000000000000000000000000000000000000000000000000000000000000000000000000000000000000000000000000000000000000000000000000000000000000000000000000000000000000000000000000000000000000000000000000000000000000000000000000000000000000000000000000000000000000000000000000000000000000000000000000000000000000000000000000000000000000000000000000000000000000000000000000000000000000000000000000000000000000000000000000000000000000830200008083989680808203b642a056e81f171bcc55a6ff8345e692c0f86e5b48e01b996cadc001622fb5e363b421880102030405060708c0c0",
        "lastblockhash" : "0x7007942ff1563d502035e56f70e92e89958f4ace41fd8db9f4d8aed8640d316b",
        "network" : "Homestead",
        "postState" : {
            "0x2adc25665018aa1fe0e6bc666dac8fc2697ff9ba" : {
                "balance" : "0x4563918244f51170",
                "code" : "0x",
                "nonce" : "0x00",
                "storage" : {
                }
            },
            "0xa000000000000000000000000000000000000000" : {
                "balance" : "0x00",
                "code" : "0x60206000600060006000600035620249f0f1600155600051600255",
                "nonce" : "0x00",
                "storage" : {
                }
            },
            "0xa100000000000000000000000000000000000000" : {
                "balance" : "0x00",
                "code" : "0x6c726576657274656420646174616000556d726576657274206d65737361676560005260206000fd",
                "nonce" : "0x00",
                "storage" : {
                }
            },
            "0xa200000000000000000000000000000000000000" : {
                "balance" : "0x00",
                "code" : "0x6c726576657274656420646174616000556d726576657274206d65737361676560005260006000fd",
                "nonce" : "0x00",
                "storage" : {
                }
            },
            "0xa300000000000000000000000000000000000000" : {
                "balance" : "0x00",
                "code" : "0x6c726576657274656420646174616000556d726576657274206d6573736167656000526e0fffffffffffffffffffffffffffff6000fd",
                "nonce" : "0x00",
                "storage" : {
                }
            },
            "0xa400000000000000000000000000000000000000" : {
                "balance" : "0x00",
                "code" : "0x6c726576657274656420646174616000556d726576657274206d6573736167656000526000610100fd",
                "nonce" : "0x00",
                "storage" : {
                }
            },
            "0xa500000000000000000000000000000000000000" : {
                "balance" : "0x00",
                "code" : "0x6c726576657274656420646174616000556d726576657274206d65737361676560005260006001fd",
                "nonce" : "0x00",
                "storage" : {
                }
            },
            "0xa600000000000000000000000000000000000000" : {
                "balance" : "0x00",
                "code" : "0x6c726576657274656420646174616000556d726576657274206d65737361676560005260006e0ffffffffffffffffffffffffffffffd",
                "nonce" : "0x00",
                "storage" : {
                }
            },
            "0xa94f5374fce5edbc8e2a8697c15331677e6ebf0b" : {
                "balance" : "0xe8d4a3fe90",
                "code" : "0x",
                "nonce" : "0x01",
                "storage" : {
                }
            }
        },
        "pre" : {
            "0xa000000000000000000000000000000000000000" : {
                "balance" : "0x00",
                "code" : "0x60206000600060006000600035620249f0f1600155600051600255",
                "nonce" : "0x00",
                "storage" : {
                }
            },
            "0xa100000000000000000000000000000000000000" : {
                "balance" : "0x00",
                "code" : "0x6c726576657274656420646174616000556d726576657274206d65737361676560005260206000fd",
                "nonce" : "0x00",
                "storage" : {
                }
            },
            "0xa200000000000000000000000000000000000000" : {
                "balance" : "0x00",
                "code" : "0x6c726576657274656420646174616000556d726576657274206d65737361676560005260006000fd",
                "nonce" : "0x00",
                "storage" : {
                }
            },
            "0xa300000000000000000000000000000000000000" : {
                "balance" : "0x00",
                "code" : "0x6c726576657274656420646174616000556d726576657274206d6573736167656000526e0fffffffffffffffffffffffffffff6000fd",
                "nonce" : "0x00",
                "storage" : {
                }
            },
            "0xa400000000000000000000000000000000000000" : {
                "balance" : "0x00",
                "code" : "0x6c726576657274656420646174616000556d726576657274206d6573736167656000526000610100fd",
                "nonce" : "0x00",
                "storage" : {
                }
            },
            "0xa500000000000000000000000000000000000000" : {
                "balance" : "0x00",
                "code" : "0x6c726576657274656420646174616000556d726576657274206d65737361676560005260006001fd",
                "nonce" : "0x00",
                "storage" : {
                }
            },
            "0xa600000000000000000000000000000000000000" : {
                "balance" : "0x00",
                "code" : "0x6c726576657274656420646174616000556d726576657274206d65737361676560005260006e0ffffffffffffffffffffffffffffffd",
                "nonce" : "0x00",
                "storage" : {
                }
            },
            "0xa94f5374fce5edbc8e2a8697c15331677e6ebf0b" : {
                "balance" : "0xe8d4a51000",
                "code" : "0x",
                "nonce" : "0x00",
                "storage" : {
                }
            }
        },
        "sealEngine" : "NoProof"
    }
}