{
    "RevertOpcodeInCallsOnNonEmptyReturnData_d1g0v0_Byzantium" : {
        "_info" : {
            "comment" : "This test checks that the returndata buffer is changed when a subcall REVERTs.  In each test case, a non-empty returndata buffer is set up, and then calls into a contract that REVERTs.",
            "filledwith" : "testeth 1.7.0-alpha.1-20+commit.782a7283",
            "lllcversion" : "Version: 0.5.0-develop.2018.11.9+commit.9709dfe0.Linux.g++",
            "source" : "src/BlockchainTestsFiller/GeneralStateTests/stRevertTest/RevertOpcodeInCallsOnNonEmptyReturnData_d1g0v0Filler.json",
            "sourceHash" : "6e314c3f3a8608acb9e435d5f1d3092f535e0e1233c65a759071c3012ed57d6d"
        },
        "blocks" : [
            {
                "blockHeader" : {
                    "bloom" : "0x00000000000000000000000000000000000000000000000000000000000000000000000000000000000000000000000000000000000000000000000000000000000000000000000000000000000000000000000000000000000000000000000000000000000000000000000000000000000000000000000000000000000000000000000000000000000000000000000000000000000000000000000000000000000000000000000000000000000000000000000000000000000000000000000000000000000000000000000000000000000000000000000000000000000000000000000000000000000000000000000000000000000000000000000000000000",
                    "coinbase" : "0x2adc25665018aa1fe0e6bc666dac8fc2697ff9ba",
                    "difficulty" : "0x020000",
                    "extraData" : "0x",
                    "gasLimit" : "0x989680",
                    "gasUsed" : "0x0125fd",
                    "hash" : "0x46a4317b01352bf6f212fc7a394780fe18c8d58e25d7d31746cac1ec4a7547f2",
                    "mixHash" : "0x0000000000000000000000000000000000000000000000000000000000000000",
                    "nonce" : "0x0000000000000000",
                    "number" : "0x01",
                    "parentHash" : "0xd868be826de7ff00ae999ec79840f5a8bd5cb8202de416e49e5c7f7e414a62b8",
                    "receiptTrie" : "0x65234b9eafa8f459f0142081800124ea8a8251dededa7b7eef55576ba8369028",
                    "stateRoot" : "0x69277b0d976b1ad4ad6d65fe2580c37249733fdc1696c5ea43765bfdb94eb48b",
                    "timestamp" : "0x03e8",
                    "transactionsTrie" : "0xf39294da602e8608bb5cd75c63287f21358820aad1f2e7f1334df082a296d99c",
                    "uncleHash" : "0x1dcc4de8dec75d7aab85b567b6ccd41ad312451b948a7413f0a142fd40d49347"
                },
                "rlp" : "0xf90280f901f8a0d868be826de7ff00ae999ec79840f5a8bd5cb8202de416e49e5c7f7e414a62b8a01dcc4de8dec75d7aab85b567b6ccd41ad312451b948a7413f0a142fd40d49347942adc25665018aa1fe0e6bc666dac8fc2697ff9baa069277b0d976b1ad4ad6d65fe2580c37249733fdc1696c5ea43765bfdb94eb48ba0f39294da602e8608bb5cd75c63287f21358820aad1f2e7f1334df082a296d99ca065234b9eafa8f459f0142081800124ea8a8251dededa7b7eef55576ba8369028b9010000000000000000000000000000000000000000000000000000000000000000000000000000000000000000000000000000000000000000000000000000000000000000000000000000000000000000000000000000000000000000000000000000000000000000000000000000000000000000000000000000000000000000000000000000000000000000000000000000000000000000000000000000000000000000000000000000000000000000000000000000000000000000000000000000000000000000000000000000000000000000000000000000000000000000000000000000000000000000000000000000000000000000000000000000000000830200000183989680830125fd8203e880a00000000000000000000000000000000000000000000000000000000000000000880000000000000000f882f8808001830d1f6094094f5374fce5edbc8e2a8697c15331677e6ebf0b80a0000000000000000000000000b1005374fce5edbc8e2a8697c15331677e6ebf0b1ca0cb3e99361365a7d3aeaca85ac0c4217c1292f9cf617a5ad4c7e38bba87d962bda028b273c4be9e34b618aef159a1e1cdc77f534beeeb0acb9d1fba07c4d94db7b4c0",
                "transactions" : [
                    {
                        "data" : "0x000000000000000000000000b1005374fce5edbc8e2a8697c15331677e6ebf0b",
                        "gasLimit" : "0x0d1f60",
                        "gasPrice" : "0x01",
                        "nonce" : "0x00",
                        "r" : "0xcb3e99361365a7d3aeaca85ac0c4217c1292f9cf617a5ad4c7e38bba87d962bd",
                        "s" : "0x28b273c4be9e34b618aef159a1e1cdc77f534beeeb0acb9d1fba07c4d94db7b4",
                        "to" : "0x094f5374fce5edbc8e2a8697c15331677e6ebf0b",
                        "v" : "0x1c",
                        "value" : "0x00"
                    }
                ],
                "uncleHeaders" : [
                ]
            }
        ],
        "genesisBlockHeader" : {
            "bloom" : "0x00000000000000000000000000000000000000000000000000000000000000000000000000000000000000000000000000000000000000000000000000000000000000000000000000000000000000000000000000000000000000000000000000000000000000000000000000000000000000000000000000000000000000000000000000000000000000000000000000000000000000000000000000000000000000000000000000000000000000000000000000000000000000000000000000000000000000000000000000000000000000000000000000000000000000000000000000000000000000000000000000000000000000000000000000000000",
            "coinbase" : "0x2adc25665018aa1fe0e6bc666dac8fc2697ff9ba",
            "difficulty" : "0x020000",
            "extraData" : "0x42",
            "gasLimit" : "0x989680",
            "gasUsed" : "0x00",
            "hash" : "0xd868be826de7ff00ae999ec79840f5a8bd5cb8202de416e49e5c7f7e414a62b8",
            "mixHash" : "0x56e81f171bcc55a6ff8345e692c0f86e5b48e01b996cadc001622fb5e363b421",
            "nonce" : "0x0102030405060708",
            "number" : "0x00",
            "parentHash" : "0x0000000000000000000000000000000000000000000000000000000000000000",
            "receiptTrie" : "0x56e81f171bcc55a6ff8345e692c0f86e5b48e01b996cadc001622fb5e363b421",
            "stateRoot" : "0x2d96d5761e2ffa07cda70b0487e3be93cac808d8cfb8a37849d95e4da22f472a",
            "timestamp" : "0x03b6",
            "transactionsTrie" : "0x56e81f171bcc55a6ff8345e692c0f86e5b48e01b996cadc001622fb5e363b421",
            "uncleHash" : "0x1dcc4de8dec75d7aab85b567b6ccd41ad312451b948a7413f0a142fd40d49347"
        },
        "genesisRLP" : "0xf901faf901f5a00000000000000000000000000000000000000000000000000000000000000000a01dcc4de8dec75d7aab85b567b6ccd41ad312451b948a7413f0a142fd40d49347942adc25665018aa1fe0e6bc666dac8fc2697ff9baa02d96d5761e2ffa07cda70b0487e3be93cac808d8cfb8a37849d95e4da22f472aa056e81f171bcc55a6ff8345e692c0f86e5b48e01b996cadc001622fb5e363b421a056e81f171bcc55a6ff8345e692c0f86e5b48e01b996cadc001622fb5e363b421b9010000000000000000000000000000000000000000000000000000000000000000000000000000000000000000000000000000000000000000000000000000000000000000000000000000000000000000000000000000000000000000000000000000000000000000000000000000000000000000000000000000000000000000000000000000000000000000000000000000000000000000000000000000000000000000000000000000000000000000000000000000000000000000000000000000000000000000000000000000000000000000000000000000000000000000000000000000000000000000000000000000000000000000000000000000000000830200008083989680808203b642a056e81f171bcc55a6ff8345e692c0f86e5b48e01b996cadc001622fb5e363b421880102030405060708c0c0",
        "lastblockhash" : "0x46a4317b01352bf6f212fc7a394780fe18c8d58e25d7d31746cac1ec4a7547f2",
        "network" : "Byzantium",
        "postState" : {
            "0x094f5374fce5edbc8e2a8697c15331677e6ebf0b" : {
                "balance" : "0x01",
                "code" : "0x6000600060006000600073ffff5374fce5edbc8e2a8697c15331677e6ebf0b6000f150600060006000600060006000356203f7a0f1600a55",
                "nonce" : "0x00",
                "storage" : {
                    "0x0a" : "0x01"
                }
            },
            "0x2adc25665018aa1fe0e6bc666dac8fc2697ff9ba" : {
                "balance" : "0x29a2241af62d25fd",
                "code" : "0x",
                "nonce" : "0x00",
                "storage" : {
                }
            },
            "0xa94f5374fce5edbc8e2a8697c15331677e6ebf0b" : {
                "balance" : "0xe8d4a3ea03",
                "code" : "0x",
                "nonce" : "0x01",
                "storage" : {
                }
            },
            "0xb0005374fce5edbc8e2a8697c15331677e6ebf0b" : {
                "balance" : "0x01",
                "code" : "0x6000600060006000600073ffff5374fce5edbc8e2a8697c15331677e6ebf0b6000f1506000600060006000600073c94f5374fce5edbc8e2a8697c15331677e6ebf0b61c350f16000553d600255",
                "nonce" : "0x00",
                "storage" : {
                }
            },
            "0xb1005374fce5edbc8e2a8697c15331677e6ebf0b" : {
                "balance" : "0x01",
                "code" : "0x6000600060006000600073ffff5374fce5edbc8e2a8697c15331677e6ebf0b6000f1506000600060006000600073c94f5374fce5edbc8e2a8697c15331677e6ebf0b61c350f26000553d600255",
                "nonce" : "0x00",
                "storage" : {
                    "0x02" : "0x01"
                }
            },
            "0xb2005374fce5edbc8e2a8697c15331677e6ebf0b" : {
                "balance" : "0x01",
                "code" : "0x6000600060006000600073ffff5374fce5edbc8e2a8697c15331677e6ebf0b6000f150600060006000600073c94f5374fce5edbc8e2a8697c15331677e6ebf0b61c350f46000553d600255",
                "nonce" : "0x00",
                "storage" : {
                }
            },
            "0xb3005374fce5edbc8e2a8697c15331677e6ebf0b" : {
                "balance" : "0x01",
                "code" : "0x6000600060006000600073ffff5374fce5edbc8e2a8697c15331677e6ebf0b6000f1506000600060006000600073b3305374fce5edbc8e2a8697c15331677e6ebf0b620186a0f16000553d600255",
                "nonce" : "0x00",
                "storage" : {
                }
            },
            "0xb3305374fce5edbc8e2a8697c15331677e6ebf0b" : {
                "balance" : "0x01",
                "code" : "0x6000600060006000600073ffff5374fce5edbc8e2a8697c15331677e6ebf0b6000f1506000600060006000600073c94f5374fce5edbc8e2a8697c15331677e6ebf0b61c350f16004553d600555",
                "nonce" : "0x00",
                "storage" : {
                }
            },
            "0xc94f5374fce5edbc8e2a8697c15331677e6ebf0b" : {
                "balance" : "0x01",
                "code" : "0x600c60015560016000fd600d600355",
                "nonce" : "0x00",
                "storage" : {
                }
            },
            "0xffff5374fce5edbc8e2a8697c15331677e6ebf0b" : {
                "balance" : "0x01",
                "code" : "0x600c60015260406000f3",
                "nonce" : "0x00",
                "storage" : {
                }
            }
        },
        "pre" : {
            "0x094f5374fce5edbc8e2a8697c15331677e6ebf0b" : {
                "balance" : "0x01",
                "code" : "0x6000600060006000600073ffff5374fce5edbc8e2a8697c15331677e6ebf0b6000f150600060006000600060006000356203f7a0f1600a55",
                "nonce" : "0x00",
                "storage" : {
                    "0x0a" : "0xff"
                }
            },
            "0xa94f5374fce5edbc8e2a8697c15331677e6ebf0b" : {
                "balance" : "0xe8d4a51000",
                "code" : "0x",
                "nonce" : "0x00",
                "storage" : {
                }
            },
            "0xb0005374fce5edbc8e2a8697c15331677e6ebf0b" : {
                "balance" : "0x01",
                "code" : "0x6000600060006000600073ffff5374fce5edbc8e2a8697c15331677e6ebf0b6000f1506000600060006000600073c94f5374fce5edbc8e2a8697c15331677e6ebf0b61c350f16000553d600255",
                "nonce" : "0x00",
                "storage" : {
                }
            },
            "0xb1005374fce5edbc8e2a8697c15331677e6ebf0b" : {
                "balance" : "0x01",
                "code" : "0x6000600060006000600073ffff5374fce5edbc8e2a8697c15331677e6ebf0b6000f1506000600060006000600073c94f5374fce5edbc8e2a8697c15331677e6ebf0b61c350f26000553d600255",
                "nonce" : "0x00",
                "storage" : {
                }
            },
            "0xb2005374fce5edbc8e2a8697c15331677e6ebf0b" : {
                "balance" : "0x01",
                "code" : "0x6000600060006000600073ffff5374fce5edbc8e2a8697c15331677e6ebf0b6000f150600060006000600073c94f5374fce5edbc8e2a8697c15331677e6ebf0b61c350f46000553d600255",
                "nonce" : "0x00",
                "storage" : {
                }
            },
            "0xb3005374fce5edbc8e2a8697c15331677e6ebf0b" : {
                "balance" : "0x01",
                "code" : "0x6000600060006000600073ffff5374fce5edbc8e2a8697c15331677e6ebf0b6000f1506000600060006000600073b3305374fce5edbc8e2a8697c15331677e6ebf0b620186a0f16000553d600255",
                "nonce" : "0x00",
                "storage" : {
                }
            },
            "0xb3305374fce5edbc8e2a8697c15331677e6ebf0b" : {
                "balance" : "0x01",
                "code" : "0x6000600060006000600073ffff5374fce5edbc8e2a8697c15331677e6ebf0b6000f1506000600060006000600073c94f5374fce5edbc8e2a8697c15331677e6ebf0b61c350f16004553d600555",
                "nonce" : "0x00",
                "storage" : {
                }
            },
            "0xc94f5374fce5edbc8e2a8697c15331677e6ebf0b" : {
                "balance" : "0x01",
                "code" : "0x600c60015560016000fd600d600355",
                "nonce" : "0x00",
                "storage" : {
                }
            },
            "0xffff5374fce5edbc8e2a8697c15331677e6ebf0b" : {
                "balance" : "0x01",
                "code" : "0x600c60015260406000f3",
                "nonce" : "0x00",
                "storage" : {
                }
            }
        },
        "sealEngine" : "NoProof"
    },
    "RevertOpcodeInCallsOnNonEmptyReturnData_d1g0v0_Constantinople" : {
        "_info" : {
            "comment" : "This test checks that the returndata buffer is changed when a subcall REVERTs.  In each test case, a non-empty returndata buffer is set up, and then calls into a contract that REVERTs.",
            "filledwith" : "testeth 1.7.0-alpha.1-20+commit.782a7283",
            "lllcversion" : "Version: 0.5.0-develop.2018.11.9+commit.9709dfe0.Linux.g++",
            "source" : "src/BlockchainTestsFiller/GeneralStateTests/stRevertTest/RevertOpcodeInCallsOnNonEmptyReturnData_d1g0v0Filler.json",
            "sourceHash" : "6e314c3f3a8608acb9e435d5f1d3092f535e0e1233c65a759071c3012ed57d6d"
        },
        "blocks" : [
            {
                "blockHeader" : {
                    "bloom" : "0x00000000000000000000000000000000000000000000000000000000000000000000000000000000000000000000000000000000000000000000000000000000000000000000000000000000000000000000000000000000000000000000000000000000000000000000000000000000000000000000000000000000000000000000000000000000000000000000000000000000000000000000000000000000000000000000000000000000000000000000000000000000000000000000000000000000000000000000000000000000000000000000000000000000000000000000000000000000000000000000000000000000000000000000000000000000",
                    "coinbase" : "0x2adc25665018aa1fe0e6bc666dac8fc2697ff9ba",
                    "difficulty" : "0x020000",
                    "extraData" : "0x",
                    "gasLimit" : "0x989680",
                    "gasUsed" : "0x01133d",
                    "hash" : "0x4504e4872dcb8ae574ab15a29bb2332161dc9cd76b443fc199727a47bca74ac9",
                    "mixHash" : "0x0000000000000000000000000000000000000000000000000000000000000000",
                    "nonce" : "0x0000000000000000",
                    "number" : "0x01",
                    "parentHash" : "0xd868be826de7ff00ae999ec79840f5a8bd5cb8202de416e49e5c7f7e414a62b8",
                    "receiptTrie" : "0x38bce885facc2882550adca85384c8475cf18b02d9aa8c2059de057c17819e0f",
                    "stateRoot" : "0x38ff55720345e7bbf9b7e846170c668fa5d818f9de5c0634262a6f4e3f68e160",
                    "timestamp" : "0x03e8",
                    "transactionsTrie" : "0xf39294da602e8608bb5cd75c63287f21358820aad1f2e7f1334df082a296d99c",
                    "uncleHash" : "0x1dcc4de8dec75d7aab85b567b6ccd41ad312451b948a7413f0a142fd40d49347"
                },
                "rlp" : "0xf90280f901f8a0d868be826de7ff00ae999ec79840f5a8bd5cb8202de416e49e5c7f7e414a62b8a01dcc4de8dec75d7aab85b567b6ccd41ad312451b948a7413f0a142fd40d49347942adc25665018aa1fe0e6bc666dac8fc2697ff9baa038ff55720345e7bbf9b7e846170c668fa5d818f9de5c0634262a6f4e3f68e160a0f39294da602e8608bb5cd75c63287f21358820aad1f2e7f1334df082a296d99ca038bce885facc2882550adca85384c8475cf18b02d9aa8c2059de057c17819e0fb90100000000000000000000000000000000000000000000000000000000000000000000000000000000000000000000000000000000000000000000000000000000000000000000000000000000000000000000000000000000000000000000000000000000000000000000000000000000000000000000000000000000000000000000000000000000000000000000000000000000000000000000000000000000000000000000000000000000000000000000000000000000000000000000000000000000000000000000000000000000000000000000000000000000000000000000000000000000000000000000000000000000000000000000000000000000008302000001839896808301133d8203e880a00000000000000000000000000000000000000000000000000000000000000000880000000000000000f882f8808001830d1f6094094f5374fce5edbc8e2a8697c15331677e6ebf0b80a0000000000000000000000000b1005374fce5edbc8e2a8697c15331677e6ebf0b1ca0cb3e99361365a7d3aeaca85ac0c4217c1292f9cf617a5ad4c7e38bba87d962bda028b273c4be9e34b618aef159a1e1cdc77f534beeeb0acb9d1fba07c4d94db7b4c0",
                "transactions" : [
                    {
                        "data" : "0x000000000000000000000000b1005374fce5edbc8e2a8697c15331677e6ebf0b",
                        "gasLimit" : "0x0d1f60",
                        "gasPrice" : "0x01",
                        "nonce" : "0x00",
                        "r" : "0xcb3e99361365a7d3aeaca85ac0c4217c1292f9cf617a5ad4c7e38bba87d962bd",
                        "s" : "0x28b273c4be9e34b618aef159a1e1cdc77f534beeeb0acb9d1fba07c4d94db7b4",
                        "to" : "0x094f5374fce5edbc8e2a8697c15331677e6ebf0b",
                        "v" : "0x1c",
                        "value" : "0x00"
                    }
                ],
                "uncleHeaders" : [
                ]
            }
        ],
        "genesisBlockHeader" : {
            "bloom" : "0x00000000000000000000000000000000000000000000000000000000000000000000000000000000000000000000000000000000000000000000000000000000000000000000000000000000000000000000000000000000000000000000000000000000000000000000000000000000000000000000000000000000000000000000000000000000000000000000000000000000000000000000000000000000000000000000000000000000000000000000000000000000000000000000000000000000000000000000000000000000000000000000000000000000000000000000000000000000000000000000000000000000000000000000000000000000",
            "coinbase" : "0x2adc25665018aa1fe0e6bc666dac8fc2697ff9ba",
            "difficulty" : "0x020000",
            "extraData" : "0x42",
            "gasLimit" : "0x989680",
            "gasUsed" : "0x00",
            "hash" : "0xd868be826de7ff00ae999ec79840f5a8bd5cb8202de416e49e5c7f7e414a62b8",
            "mixHash" : "0x56e81f171bcc55a6ff8345e692c0f86e5b48e01b996cadc001622fb5e363b421",
            "nonce" : "0x0102030405060708",
            "number" : "0x00",
            "parentHash" : "0x0000000000000000000000000000000000000000000000000000000000000000",
            "receiptTrie" : "0x56e81f171bcc55a6ff8345e692c0f86e5b48e01b996cadc001622fb5e363b421",
            "stateRoot" : "0x2d96d5761e2ffa07cda70b0487e3be93cac808d8cfb8a37849d95e4da22f472a",
            "timestamp" : "0x03b6",
            "transactionsTrie" : "0x56e81f171bcc55a6ff8345e692c0f86e5b48e01b996cadc001622fb5e363b421",
            "uncleHash" : "0x1dcc4de8dec75d7aab85b567b6ccd41ad312451b948a7413f0a142fd40d49347"
        },
        "genesisRLP" : "0xf901faf901f5a00000000000000000000000000000000000000000000000000000000000000000a01dcc4de8dec75d7aab85b567b6ccd41ad312451b948a7413f0a142fd40d49347942adc25665018aa1fe0e6bc666dac8fc2697ff9baa02d96d5761e2ffa07cda70b0487e3be93cac808d8cfb8a37849d95e4da22f472aa056e81f171bcc55a6ff8345e692c0f86e5b48e01b996cadc001622fb5e363b421a056e81f171bcc55a6ff8345e692c0f86e5b48e01b996cadc001622fb5e363b421b9010000000000000000000000000000000000000000000000000000000000000000000000000000000000000000000000000000000000000000000000000000000000000000000000000000000000000000000000000000000000000000000000000000000000000000000000000000000000000000000000000000000000000000000000000000000000000000000000000000000000000000000000000000000000000000000000000000000000000000000000000000000000000000000000000000000000000000000000000000000000000000000000000000000000000000000000000000000000000000000000000000000000000000000000000000000000830200008083989680808203b642a056e81f171bcc55a6ff8345e692c0f86e5b48e01b996cadc001622fb5e363b421880102030405060708c0c0",
        "lastblockhash" : "0x4504e4872dcb8ae574ab15a29bb2332161dc9cd76b443fc199727a47bca74ac9",
        "network" : "Constantinople",
        "postState" : {
            "0x094f5374fce5edbc8e2a8697c15331677e6ebf0b" : {
                "balance" : "0x01",
                "code" : "0x6000600060006000600073ffff5374fce5edbc8e2a8697c15331677e6ebf0b6000f150600060006000600060006000356203f7a0f1600a55",
                "nonce" : "0x00",
                "storage" : {
                    "0x0a" : "0x01"
                }
            },
            "0x2adc25665018aa1fe0e6bc666dac8fc2697ff9ba" : {
                "balance" : "0x1bc16d674ec9133d",
                "code" : "0x",
                "nonce" : "0x00",
                "storage" : {
                }
            },
            "0xa94f5374fce5edbc8e2a8697c15331677e6ebf0b" : {
                "balance" : "0xe8d4a3fcc3",
                "code" : "0x",
                "nonce" : "0x01",
                "storage" : {
                }
            },
            "0xb0005374fce5edbc8e2a8697c15331677e6ebf0b" : {
                "balance" : "0x01",
                "code" : "0x6000600060006000600073ffff5374fce5edbc8e2a8697c15331677e6ebf0b6000f1506000600060006000600073c94f5374fce5edbc8e2a8697c15331677e6ebf0b61c350f16000553d600255",
                "nonce" : "0x00",
                "storage" : {
                }
            },
            "0xb1005374fce5edbc8e2a8697c15331677e6ebf0b" : {
                "balance" : "0x01",
                "code" : "0x6000600060006000600073ffff5374fce5edbc8e2a8697c15331677e6ebf0b6000f1506000600060006000600073c94f5374fce5edbc8e2a8697c15331677e6ebf0b61c350f26000553d600255",
                "nonce" : "0x00",
                "storage" : {
                    "0x02" : "0x01"
                }
            },
            "0xb2005374fce5edbc8e2a8697c15331677e6ebf0b" : {
                "balance" : "0x01",
                "code" : "0x6000600060006000600073ffff5374fce5edbc8e2a8697c15331677e6ebf0b6000f150600060006000600073c94f5374fce5edbc8e2a8697c15331677e6ebf0b61c350f46000553d600255",
                "nonce" : "0x00",
                "storage" : {
                }
            },
            "0xb3005374fce5edbc8e2a8697c15331677e6ebf0b" : {
                "balance" : "0x01",
                "code" : "0x6000600060006000600073ffff5374fce5edbc8e2a8697c15331677e6ebf0b6000f1506000600060006000600073b3305374fce5edbc8e2a8697c15331677e6ebf0b620186a0f16000553d600255",
                "nonce" : "0x00",
                "storage" : {
                }
            },
            "0xb3305374fce5edbc8e2a8697c15331677e6ebf0b" : {
                "balance" : "0x01",
                "code" : "0x6000600060006000600073ffff5374fce5edbc8e2a8697c15331677e6ebf0b6000f1506000600060006000600073c94f5374fce5edbc8e2a8697c15331677e6ebf0b61c350f16004553d600555",
                "nonce" : "0x00",
                "storage" : {
                }
            },
            "0xc94f5374fce5edbc8e2a8697c15331677e6ebf0b" : {
                "balance" : "0x01",
                "code" : "0x600c60015560016000fd600d600355",
                "nonce" : "0x00",
                "storage" : {
                }
            },
            "0xffff5374fce5edbc8e2a8697c15331677e6ebf0b" : {
                "balance" : "0x01",
                "code" : "0x600c60015260406000f3",
                "nonce" : "0x00",
                "storage" : {
                }
            }
        },
        "pre" : {
            "0x094f5374fce5edbc8e2a8697c15331677e6ebf0b" : {
                "balance" : "0x01",
                "code" : "0x6000600060006000600073ffff5374fce5edbc8e2a8697c15331677e6ebf0b6000f150600060006000600060006000356203f7a0f1600a55",
                "nonce" : "0x00",
                "storage" : {
                    "0x0a" : "0xff"
                }
            },
            "0xa94f5374fce5edbc8e2a8697c15331677e6ebf0b" : {
                "balance" : "0xe8d4a51000",
                "code" : "0x",
                "nonce" : "0x00",
                "storage" : {
                }
            },
            "0xb0005374fce5edbc8e2a8697c15331677e6ebf0b" : {
                "balance" : "0x01",
                "code" : "0x6000600060006000600073ffff5374fce5edbc8e2a8697c15331677e6ebf0b6000f1506000600060006000600073c94f5374fce5edbc8e2a8697c15331677e6ebf0b61c350f16000553d600255",
                "nonce" : "0x00",
                "storage" : {
                }
            },
            "0xb1005374fce5edbc8e2a8697c15331677e6ebf0b" : {
                "balance" : "0x01",
                "code" : "0x6000600060006000600073ffff5374fce5edbc8e2a8697c15331677e6ebf0b6000f1506000600060006000600073c94f5374fce5edbc8e2a8697c15331677e6ebf0b61c350f26000553d600255",
                "nonce" : "0x00",
                "storage" : {
                }
            },
            "0xb2005374fce5edbc8e2a8697c15331677e6ebf0b" : {
                "balance" : "0x01",
                "code" : "0x6000600060006000600073ffff5374fce5edbc8e2a8697c15331677e6ebf0b6000f150600060006000600073c94f5374fce5edbc8e2a8697c15331677e6ebf0b61c350f46000553d600255",
                "nonce" : "0x00",
                "storage" : {
                }
            },
            "0xb3005374fce5edbc8e2a8697c15331677e6ebf0b" : {
                "balance" : "0x01",
                "code" : "0x6000600060006000600073ffff5374fce5edbc8e2a8697c15331677e6ebf0b6000f1506000600060006000600073b3305374fce5edbc8e2a8697c15331677e6ebf0b620186a0f16000553d600255",
                "nonce" : "0x00",
                "storage" : {
                }
            },
            "0xb3305374fce5edbc8e2a8697c15331677e6ebf0b" : {
                "balance" : "0x01",
                "code" : "0x6000600060006000600073ffff5374fce5edbc8e2a8697c15331677e6ebf0b6000f1506000600060006000600073c94f5374fce5edbc8e2a8697c15331677e6ebf0b61c350f16004553d600555",
                "nonce" : "0x00",
                "storage" : {
                }
            },
            "0xc94f5374fce5edbc8e2a8697c15331677e6ebf0b" : {
                "balance" : "0x01",
                "code" : "0x600c60015560016000fd600d600355",
                "nonce" : "0x00",
                "storage" : {
                }
            },
            "0xffff5374fce5edbc8e2a8697c15331677e6ebf0b" : {
                "balance" : "0x01",
                "code" : "0x600c60015260406000f3",
                "nonce" : "0x00",
                "storage" : {
                }
            }
        },
        "sealEngine" : "NoProof"
    },
    "RevertOpcodeInCallsOnNonEmptyReturnData_d1g0v0_ConstantinopleFix" : {
        "_info" : {
            "comment" : "This test checks that the returndata buffer is changed when a subcall REVERTs.  In each test case, a non-empty returndata buffer is set up, and then calls into a contract that REVERTs.",
            "filledwith" : "testeth 1.7.0-alpha.1-20+commit.782a7283",
            "lllcversion" : "Version: 0.5.0-develop.2018.11.9+commit.9709dfe0.Linux.g++",
            "source" : "src/BlockchainTestsFiller/GeneralStateTests/stRevertTest/RevertOpcodeInCallsOnNonEmptyReturnData_d1g0v0Filler.json",
            "sourceHash" : "6e314c3f3a8608acb9e435d5f1d3092f535e0e1233c65a759071c3012ed57d6d"
        },
        "blocks" : [
            {
                "blockHeader" : {
                    "bloom" : "0x00000000000000000000000000000000000000000000000000000000000000000000000000000000000000000000000000000000000000000000000000000000000000000000000000000000000000000000000000000000000000000000000000000000000000000000000000000000000000000000000000000000000000000000000000000000000000000000000000000000000000000000000000000000000000000000000000000000000000000000000000000000000000000000000000000000000000000000000000000000000000000000000000000000000000000000000000000000000000000000000000000000000000000000000000000000",
                    "coinbase" : "0x2adc25665018aa1fe0e6bc666dac8fc2697ff9ba",
                    "difficulty" : "0x020000",
                    "extraData" : "0x",
                    "gasLimit" : "0x989680",
                    "gasUsed" : "0x0125fd",
                    "hash" : "0x830407a745d52c46c4b7641c77d7eac4a2a1c6dce2b0fffcf956dee1bd1f2beb",
                    "mixHash" : "0x0000000000000000000000000000000000000000000000000000000000000000",
                    "nonce" : "0x0000000000000000",
                    "number" : "0x01",
                    "parentHash" : "0xd868be826de7ff00ae999ec79840f5a8bd5cb8202de416e49e5c7f7e414a62b8",
                    "receiptTrie" : "0x65234b9eafa8f459f0142081800124ea8a8251dededa7b7eef55576ba8369028",
                    "stateRoot" : "0x41ffc4dfda12806e8f8213b5a1a26194c749abf02fef1a62779e720ab11dbef4",
                    "timestamp" : "0x03e8",
                    "transactionsTrie" : "0xf39294da602e8608bb5cd75c63287f21358820aad1f2e7f1334df082a296d99c",
                    "uncleHash" : "0x1dcc4de8dec75d7aab85b567b6ccd41ad312451b948a7413f0a142fd40d49347"
                },
                "rlp" : "0xf90280f901f8a0d868be826de7ff00ae999ec79840f5a8bd5cb8202de416e49e5c7f7e414a62b8a01dcc4de8dec75d7aab85b567b6ccd41ad312451b948a7413f0a142fd40d49347942adc25665018aa1fe0e6bc666dac8fc2697ff9baa041ffc4dfda12806e8f8213b5a1a26194c749abf02fef1a62779e720ab11dbef4a0f39294da602e8608bb5cd75c63287f21358820aad1f2e7f1334df082a296d99ca065234b9eafa8f459f0142081800124ea8a8251dededa7b7eef55576ba8369028b9010000000000000000000000000000000000000000000000000000000000000000000000000000000000000000000000000000000000000000000000000000000000000000000000000000000000000000000000000000000000000000000000000000000000000000000000000000000000000000000000000000000000000000000000000000000000000000000000000000000000000000000000000000000000000000000000000000000000000000000000000000000000000000000000000000000000000000000000000000000000000000000000000000000000000000000000000000000000000000000000000000000000000000000000000000000000830200000183989680830125fd8203e880a00000000000000000000000000000000000000000000000000000000000000000880000000000000000f882f8808001830d1f6094094f5374fce5edbc8e2a8697c15331677e6ebf0b80a0000000000000000000000000b1005374fce5edbc8e2a8697c15331677e6ebf0b1ca0cb3e99361365a7d3aeaca85ac0c4217c1292f9cf617a5ad4c7e38bba87d962bda028b273c4be9e34b618aef159a1e1cdc77f534beeeb0acb9d1fba07c4d94db7b4c0",
                "transactions" : [
                    {
                        "data" : "0x000000000000000000000000b1005374fce5edbc8e2a8697c15331677e6ebf0b",
                        "gasLimit" : "0x0d1f60",
                        "gasPrice" : "0x01",
                        "nonce" : "0x00",
                        "r" : "0xcb3e99361365a7d3aeaca85ac0c4217c1292f9cf617a5ad4c7e38bba87d962bd",
                        "s" : "0x28b273c4be9e34b618aef159a1e1cdc77f534beeeb0acb9d1fba07c4d94db7b4",
                        "to" : "0x094f5374fce5edbc8e2a8697c15331677e6ebf0b",
                        "v" : "0x1c",
                        "value" : "0x00"
                    }
                ],
                "uncleHeaders" : [
                ]
            }
        ],
        "genesisBlockHeader" : {
            "bloom" : "0x00000000000000000000000000000000000000000000000000000000000000000000000000000000000000000000000000000000000000000000000000000000000000000000000000000000000000000000000000000000000000000000000000000000000000000000000000000000000000000000000000000000000000000000000000000000000000000000000000000000000000000000000000000000000000000000000000000000000000000000000000000000000000000000000000000000000000000000000000000000000000000000000000000000000000000000000000000000000000000000000000000000000000000000000000000000",
            "coinbase" : "0x2adc25665018aa1fe0e6bc666dac8fc2697ff9ba",
            "difficulty" : "0x020000",
            "extraData" : "0x42",
            "gasLimit" : "0x989680",
            "gasUsed" : "0x00",
            "hash" : "0xd868be826de7ff00ae999ec79840f5a8bd5cb8202de416e49e5c7f7e414a62b8",
            "mixHash" : "0x56e81f171bcc55a6ff8345e692c0f86e5b48e01b996cadc001622fb5e363b421",
            "nonce" : "0x0102030405060708",
            "number" : "0x00",
            "parentHash" : "0x0000000000000000000000000000000000000000000000000000000000000000",
            "receiptTrie" : "0x56e81f171bcc55a6ff8345e692c0f86e5b48e01b996cadc001622fb5e363b421",
            "stateRoot" : "0x2d96d5761e2ffa07cda70b0487e3be93cac808d8cfb8a37849d95e4da22f472a",
            "timestamp" : "0x03b6",
            "transactionsTrie" : "0x56e81f171bcc55a6ff8345e692c0f86e5b48e01b996cadc001622fb5e363b421",
            "uncleHash" : "0x1dcc4de8dec75d7aab85b567b6ccd41ad312451b948a7413f0a142fd40d49347"
        },
        "genesisRLP" : "0xf901faf901f5a00000000000000000000000000000000000000000000000000000000000000000a01dcc4de8dec75d7aab85b567b6ccd41ad312451b948a7413f0a142fd40d49347942adc25665018aa1fe0e6bc666dac8fc2697ff9baa02d96d5761e2ffa07cda70b0487e3be93cac808d8cfb8a37849d95e4da22f472aa056e81f171bcc55a6ff8345e692c0f86e5b48e01b996cadc001622fb5e363b421a056e81f171bcc55a6ff8345e692c0f86e5b48e01b996cadc001622fb5e363b421b9010000000000000000000000000000000000000000000000000000000000000000000000000000000000000000000000000000000000000000000000000000000000000000000000000000000000000000000000000000000000000000000000000000000000000000000000000000000000000000000000000000000000000000000000000000000000000000000000000000000000000000000000000000000000000000000000000000000000000000000000000000000000000000000000000000000000000000000000000000000000000000000000000000000000000000000000000000000000000000000000000000000000000000000000000000000000830200008083989680808203b642a056e81f171bcc55a6ff8345e692c0f86e5b48e01b996cadc001622fb5e363b421880102030405060708c0c0",
        "lastblockhash" : "0x830407a745d52c46c4b7641c77d7eac4a2a1c6dce2b0fffcf956dee1bd1f2beb",
        "network" : "ConstantinopleFix",
        "postState" : {
            "0x094f5374fce5edbc8e2a8697c15331677e6ebf0b" : {
                "balance" : "0x01",
                "code" : "0x6000600060006000600073ffff5374fce5edbc8e2a8697c15331677e6ebf0b6000f150600060006000600060006000356203f7a0f1600a55",
                "nonce" : "0x00",
                "storage" : {
                    "0x0a" : "0x01"
                }
            },
            "0x2adc25665018aa1fe0e6bc666dac8fc2697ff9ba" : {
                "balance" : "0x1bc16d674ec925fd",
                "code" : "0x",
                "nonce" : "0x00",
                "storage" : {
                }
            },
            "0xa94f5374fce5edbc8e2a8697c15331677e6ebf0b" : {
                "balance" : "0xe8d4a3ea03",
                "code" : "0x",
                "nonce" : "0x01",
                "storage" : {
                }
            },
            "0xb0005374fce5edbc8e2a8697c15331677e6ebf0b" : {
                "balance" : "0x01",
                "code" : "0x6000600060006000600073ffff5374fce5edbc8e2a8697c15331677e6ebf0b6000f1506000600060006000600073c94f5374fce5edbc8e2a8697c15331677e6ebf0b61c350f16000553d600255",
                "nonce" : "0x00",
                "storage" : {
                }
            },
            "0xb1005374fce5edbc8e2a8697c15331677e6ebf0b" : {
                "balance" : "0x01",
                "code" : "0x6000600060006000600073ffff5374fce5edbc8e2a8697c15331677e6ebf0b6000f1506000600060006000600073c94f5374fce5edbc8e2a8697c15331677e6ebf0b61c350f26000553d600255",
                "nonce" : "0x00",
                "storage" : {
                    "0x02" : "0x01"
                }
            },
            "0xb2005374fce5edbc8e2a8697c15331677e6ebf0b" : {
                "balance" : "0x01",
                "code" : "0x6000600060006000600073ffff5374fce5edbc8e2a8697c15331677e6ebf0b6000f150600060006000600073c94f5374fce5edbc8e2a8697c15331677e6ebf0b61c350f46000553d600255",
                "nonce" : "0x00",
                "storage" : {
                }
            },
            "0xb3005374fce5edbc8e2a8697c15331677e6ebf0b" : {
                "balance" : "0x01",
                "code" : "0x6000600060006000600073ffff5374fce5edbc8e2a8697c15331677e6ebf0b6000f1506000600060006000600073b3305374fce5edbc8e2a8697c15331677e6ebf0b620186a0f16000553d600255",
                "nonce" : "0x00",
                "storage" : {
                }
            },
            "0xb3305374fce5edbc8e2a8697c15331677e6ebf0b" : {
                "balance" : "0x01",
                "code" : "0x6000600060006000600073ffff5374fce5edbc8e2a8697c15331677e6ebf0b6000f1506000600060006000600073c94f5374fce5edbc8e2a8697c15331677e6ebf0b61c350f16004553d600555",
                "nonce" : "0x00",
                "storage" : {
                }
            },
            "0xc94f5374fce5edbc8e2a8697c15331677e6ebf0b" : {
                "balance" : "0x01",
                "code" : "0x600c60015560016000fd600d600355",
                "nonce" : "0x00",
                "storage" : {
                }
            },
            "0xffff5374fce5edbc8e2a8697c15331677e6ebf0b" : {
                "balance" : "0x01",
                "code" : "0x600c60015260406000f3",
                "nonce" : "0x00",
                "storage" : {
                }
            }
        },
        "pre" : {
            "0x094f5374fce5edbc8e2a8697c15331677e6ebf0b" : {
                "balance" : "0x01",
                "code" : "0x6000600060006000600073ffff5374fce5edbc8e2a8697c15331677e6ebf0b6000f150600060006000600060006000356203f7a0f1600a55",
                "nonce" : "0x00",
                "storage" : {
                    "0x0a" : "0xff"
                }
            },
            "0xa94f5374fce5edbc8e2a8697c15331677e6ebf0b" : {
                "balance" : "0xe8d4a51000",
                "code" : "0x",
                "nonce" : "0x00",
                "storage" : {
                }
            },
            "0xb0005374fce5edbc8e2a8697c15331677e6ebf0b" : {
                "balance" : "0x01",
                "code" : "0x6000600060006000600073ffff5374fce5edbc8e2a8697c15331677e6ebf0b6000f1506000600060006000600073c94f5374fce5edbc8e2a8697c15331677e6ebf0b61c350f16000553d600255",
                "nonce" : "0x00",
                "storage" : {
                }
            },
            "0xb1005374fce5edbc8e2a8697c15331677e6ebf0b" : {
                "balance" : "0x01",
                "code" : "0x6000600060006000600073ffff5374fce5edbc8e2a8697c15331677e6ebf0b6000f1506000600060006000600073c94f5374fce5edbc8e2a8697c15331677e6ebf0b61c350f26000553d600255",
                "nonce" : "0x00",
                "storage" : {
                }
            },
            "0xb2005374fce5edbc8e2a8697c15331677e6ebf0b" : {
                "balance" : "0x01",
                "code" : "0x6000600060006000600073ffff5374fce5edbc8e2a8697c15331677e6ebf0b6000f150600060006000600073c94f5374fce5edbc8e2a8697c15331677e6ebf0b61c350f46000553d600255",
                "nonce" : "0x00",
                "storage" : {
                }
            },
            "0xb3005374fce5edbc8e2a8697c15331677e6ebf0b" : {
                "balance" : "0x01",
                "code" : "0x6000600060006000600073ffff5374fce5edbc8e2a8697c15331677e6ebf0b6000f1506000600060006000600073b3305374fce5edbc8e2a8697c15331677e6ebf0b620186a0f16000553d600255",
                "nonce" : "0x00",
                "storage" : {
                }
            },
            "0xb3305374fce5edbc8e2a8697c15331677e6ebf0b" : {
                "balance" : "0x01",
                "code" : "0x6000600060006000600073ffff5374fce5edbc8e2a8697c15331677e6ebf0b6000f1506000600060006000600073c94f5374fce5edbc8e2a8697c15331677e6ebf0b61c350f16004553d600555",
                "nonce" : "0x00",
                "storage" : {
                }
            },
            "0xc94f5374fce5edbc8e2a8697c15331677e6ebf0b" : {
                "balance" : "0x01",
                "code" : "0x600c60015560016000fd600d600355",
                "nonce" : "0x00",
                "storage" : {
                }
            },
            "0xffff5374fce5edbc8e2a8697c15331677e6ebf0b" : {
                "balance" : "0x01",
                "code" : "0x600c60015260406000f3",
                "nonce" : "0x00",
                "storage" : {
                }
            }
        },
        "sealEngine" : "NoProof"
    }
}