{
    "RevertOpcodeMultipleSubCalls_d0g1v1_Byzantium" : {
        "_info" : {
            "comment" : "",
            "filledwith" : "testeth 1.7.0-alpha.1-20+commit.782a7283",
            "lllcversion" : "Version: 0.5.0-develop.2018.11.9+commit.9709dfe0.Linux.g++",
            "source" : "src/BlockchainTestsFiller/GeneralStateTests/stRevertTest/RevertOpcodeMultipleSubCalls_d0g1v1Filler.json",
            "sourceHash" : "6a01b73a4c73c5421435f19a1c5f252c5656f0f2a3300152060c012db4d11c4b"
        },
        "blocks" : [
            {
                "blockHeader" : {
                    "bloom" : "0x00000000000000000000000000000000000000000000000000000000000000000000000000000000000000000000000000000000000000000000000000000000000000000000000000000000000000000000000000000000000000000000000000000000000000000000000000000000000000000000000000000000000000000000000000000000000000000000000000000000000000000000000000000000000000000000000000000000000000000000000000000000000000000000000000000000000000000000000000000000000000000000000000000000000000000000000000000000000000000000000000000000000000000000000000000000",
                    "coinbase" : "0x2adc25665018aa1fe0e6bc666dac8fc2697ff9ba",
                    "difficulty" : "0x020000",
                    "extraData" : "0x",
                    "gasLimit" : "0x989680",
                    "gasUsed" : "0x01e728",
                    "hash" : "0x994932d4cc4fe4834bb1891368d14fd5c55ae3ec90c924428c29136a12194dda",
                    "mixHash" : "0x0000000000000000000000000000000000000000000000000000000000000000",
                    "nonce" : "0x0000000000000000",
                    "number" : "0x01",
                    "parentHash" : "0x9c0c02b9a5a8b304b47336a09b24677ecde4273d5b90accfca80e0e7717310fd",
                    "receiptTrie" : "0xcf3ffa9eb0c13667adad92a0a083d1e6ec2af2b5a50c87c024d334079e53d660",
                    "stateRoot" : "0x94e513e1c871dc469431fe338a03c1e0edcf5b336118ff322a8db330c690ace7",
                    "timestamp" : "0x03e8",
                    "transactionsTrie" : "0x3a2c47ccbf814563b9b9e50fb1aaf23192310c987e75c1a3ca03fc716a721299",
                    "uncleHash" : "0x1dcc4de8dec75d7aab85b567b6ccd41ad312451b948a7413f0a142fd40d49347"
                },
                "rlp" : "0xf90280f901f8a09c0c02b9a5a8b304b47336a09b24677ecde4273d5b90accfca80e0e7717310fda01dcc4de8dec75d7aab85b567b6ccd41ad312451b948a7413f0a142fd40d49347942adc25665018aa1fe0e6bc666dac8fc2697ff9baa094e513e1c871dc469431fe338a03c1e0edcf5b336118ff322a8db330c690ace7a03a2c47ccbf814563b9b9e50fb1aaf23192310c987e75c1a3ca03fc716a721299a0cf3ffa9eb0c13667adad92a0a083d1e6ec2af2b5a50c87c024d334079e53d660b90100000000000000000000000000000000000000000000000000000000000000000000000000000000000000000000000000000000000000000000000000000000000000000000000000000000000000000000000000000000000000000000000000000000000000000000000000000000000000000000000000000000000000000000000000000000000000000000000000000000000000000000000000000000000000000000000000000000000000000000000000000000000000000000000000000000000000000000000000000000000000000000000000000000000000000000000000000000000000000000000000000000000000000000000000000000008302000001839896808301e7288203e880a00000000000000000000000000000000000000000000000000000000000000000880000000000000000f882f88080018301ecf894ac000000000000000000000000000000000000000aa0000000000000000000000000a0000000000000000000000000000000000000001ca06d6def3f2b4746f74b4a40e31ebe5d42211a0c9bfb9236411266fd6b5426c5eca00346458499b07033c8089c6902d296868cb6270e4e164e3ecbe3fce6ebdbca99c0",
                "transactions" : [
                    {
                        "data" : "0x000000000000000000000000a000000000000000000000000000000000000000",
                        "gasLimit" : "0x01ecf8",
                        "gasPrice" : "0x01",
                        "nonce" : "0x00",
                        "r" : "0x6d6def3f2b4746f74b4a40e31ebe5d42211a0c9bfb9236411266fd6b5426c5ec",
                        "s" : "0x0346458499b07033c8089c6902d296868cb6270e4e164e3ecbe3fce6ebdbca99",
                        "to" : "0xac00000000000000000000000000000000000000",
                        "v" : "0x1c",
                        "value" : "0x0a"
                    }
                ],
                "uncleHeaders" : [
                ]
            }
        ],
        "genesisBlockHeader" : {
            "bloom" : "0x00000000000000000000000000000000000000000000000000000000000000000000000000000000000000000000000000000000000000000000000000000000000000000000000000000000000000000000000000000000000000000000000000000000000000000000000000000000000000000000000000000000000000000000000000000000000000000000000000000000000000000000000000000000000000000000000000000000000000000000000000000000000000000000000000000000000000000000000000000000000000000000000000000000000000000000000000000000000000000000000000000000000000000000000000000000",
            "coinbase" : "0x2adc25665018aa1fe0e6bc666dac8fc2697ff9ba",
            "difficulty" : "0x020000",
            "extraData" : "0x42",
            "gasLimit" : "0x989680",
            "gasUsed" : "0x00",
            "hash" : "0x9c0c02b9a5a8b304b47336a09b24677ecde4273d5b90accfca80e0e7717310fd",
            "mixHash" : "0x56e81f171bcc55a6ff8345e692c0f86e5b48e01b996cadc001622fb5e363b421",
            "nonce" : "0x0102030405060708",
            "number" : "0x00",
            "parentHash" : "0x0000000000000000000000000000000000000000000000000000000000000000",
            "receiptTrie" : "0x56e81f171bcc55a6ff8345e692c0f86e5b48e01b996cadc001622fb5e363b421",
            "stateRoot" : "0x1b33c44accff3f1d7776a868d7edfeb36f680a4e079cb885fd2d1bb1aa621d5e",
            "timestamp" : "0x03b6",
            "transactionsTrie" : "0x56e81f171bcc55a6ff8345e692c0f86e5b48e01b996cadc001622fb5e363b421",
            "uncleHash" : "0x1dcc4de8dec75d7aab85b567b6ccd41ad312451b948a7413f0a142fd40d49347"
        },
        "genesisRLP" : "0xf901faf901f5a00000000000000000000000000000000000000000000000000000000000000000a01dcc4de8dec75d7aab85b567b6ccd41ad312451b948a7413f0a142fd40d49347942adc25665018aa1fe0e6bc666dac8fc2697ff9baa01b33c44accff3f1d7776a868d7edfeb36f680a4e079cb885fd2d1bb1aa621d5ea056e81f171bcc55a6ff8345e692c0f86e5b48e01b996cadc001622fb5e363b421a056e81f171bcc55a6ff8345e692c0f86e5b48e01b996cadc001622fb5e363b421b9010000000000000000000000000000000000000000000000000000000000000000000000000000000000000000000000000000000000000000000000000000000000000000000000000000000000000000000000000000000000000000000000000000000000000000000000000000000000000000000000000000000000000000000000000000000000000000000000000000000000000000000000000000000000000000000000000000000000000000000000000000000000000000000000000000000000000000000000000000000000000000000000000000000000000000000000000000000000000000000000000000000000000000000000000000000000830200008083989680808203b642a056e81f171bcc55a6ff8345e692c0f86e5b48e01b996cadc001622fb5e363b421880102030405060708c0c0",
        "lastblockhash" : "0x994932d4cc4fe4834bb1891368d14fd5c55ae3ec90c924428c29136a12194dda",
        "network" : "Byzantium",
        "postState" : {
            "0x2adc25665018aa1fe0e6bc666dac8fc2697ff9ba" : {
                "balance" : "0x29a2241af62de728",
                "code" : "0x",
                "nonce" : "0x00",
                "storage" : {
                }
            },
            "0xa000000000000000000000000000000000000000" : {
                "balance" : "0x00",
                "code" : "0x6000600060006000600073b00000000000000000000000000000000000000061c350f1600a556000600060006000600073c00000000000000000000000000000000000000061c350f1600b556000600060006000600073d00000000000000000000000000000000000000061c350f1600c55600c600455600c600555",
                "nonce" : "0x00",
                "storage" : {
                }
            },
            "0xa100000000000000000000000000000000000000" : {
                "balance" : "0x00",
                "code" : "0x6000600060006000600073b00000000000000000000000000000000000000061c350f2600a556000600060006000600073c00000000000000000000000000000000000000061c350f2600b556000600060006000600073d00000000000000000000000000000000000000061c350f2600c55600c600455600c600555",
                "nonce" : "0x00",
                "storage" : {
                }
            },
            "0xa200000000000000000000000000000000000000" : {
                "balance" : "0x00",
                "code" : "0x600060006000600073b00000000000000000000000000000000000000061c350f4600a55600060006000600073c00000000000000000000000000000000000000061c350f4600b55600060006000600073d00000000000000000000000000000000000000061c350f4600c55600c600455600c600555",
                "nonce" : "0x00",
                "storage" : {
                }
            },
            "0xa300000000000000000000000000000000000000" : {
                "balance" : "0x00",
                "code" : "0x6000600060006000600073b00000000000000000000000000000000000000061c350f1600a55600060006000600073c00000000000000000000000000000000000000061c350f4600b556000600060006000600073d00000000000000000000000000000000000000061c350f2600c55600c600455600c600555",
                "nonce" : "0x00",
                "storage" : {
                }
            },
            "0xa94f5374fce5edbc8e2a8697c15331677e6ebf0b" : {
                "balance" : "0xe8d4a328ce",
                "code" : "0x",
                "nonce" : "0x01",
                "storage" : {
                }
            },
            "0xac00000000000000000000000000000000000000" : {
                "balance" : "0x0a",
                "code" : "0x6000600060006000346000356203f7a0f1",
                "nonce" : "0x00",
                "storage" : {
                }
            },
            "0xb000000000000000000000000000000000000000" : {
                "balance" : "0x00",
                "code" : "0x600c60015560016000fd",
                "nonce" : "0x00",
                "storage" : {
                }
            },
            "0xc000000000000000000000000000000000000000" : {
                "balance" : "0x00",
                "code" : "0x600c60025560016000fd",
                "nonce" : "0x00",
                "storage" : {
                }
            },
            "0xd000000000000000000000000000000000000000" : {
                "balance" : "0x00",
                "code" : "0x600c60035560016000fd",
                "nonce" : "0x00",
                "storage" : {
                }
            }
        },
        "pre" : {
            "0xa000000000000000000000000000000000000000" : {
                "balance" : "0x00",
                "code" : "0x6000600060006000600073b00000000000000000000000000000000000000061c350f1600a556000600060006000600073c00000000000000000000000000000000000000061c350f1600b556000600060006000600073d00000000000000000000000000000000000000061c350f1600c55600c600455600c600555",
                "nonce" : "0x00",
                "storage" : {
                }
            },
            "0xa100000000000000000000000000000000000000" : {
                "balance" : "0x00",
                "code" : "0x6000600060006000600073b00000000000000000000000000000000000000061c350f2600a556000600060006000600073c00000000000000000000000000000000000000061c350f2600b556000600060006000600073d00000000000000000000000000000000000000061c350f2600c55600c600455600c600555",
                "nonce" : "0x00",
                "storage" : {
                }
            },
            "0xa200000000000000000000000000000000000000" : {
                "balance" : "0x00",
                "code" : "0x600060006000600073b00000000000000000000000000000000000000061c350f4600a55600060006000600073c00000000000000000000000000000000000000061c350f4600b55600060006000600073d00000000000000000000000000000000000000061c350f4600c55600c600455600c600555",
                "nonce" : "0x00",
                "storage" : {
                }
            },
            "0xa300000000000000000000000000000000000000" : {
                "balance" : "0x00",
                "code" : "0x6000600060006000600073b00000000000000000000000000000000000000061c350f1600a55600060006000600073c00000000000000000000000000000000000000061c350f4600b556000600060006000600073d00000000000000000000000000000000000000061c350f2600c55600c600455600c600555",
                "nonce" : "0x00",
                "storage" : {
                }
            },
            "0xa94f5374fce5edbc8e2a8697c15331677e6ebf0b" : {
                "balance" : "0xe8d4a51000",
                "code" : "0x",
                "nonce" : "0x00",
                "storage" : {
                }
            },
            "0xac00000000000000000000000000000000000000" : {
                "balance" : "0x00",
                "code" : "0x6000600060006000346000356203f7a0f1",
                "nonce" : "0x00",
                "storage" : {
                }
            },
            "0xb000000000000000000000000000000000000000" : {
                "balance" : "0x00",
                "code" : "0x600c60015560016000fd",
                "nonce" : "0x00",
                "storage" : {
                }
            },
            "0xc000000000000000000000000000000000000000" : {
                "balance" : "0x00",
                "code" : "0x600c60025560016000fd",
                "nonce" : "0x00",
                "storage" : {
                }
            },
            "0xd000000000000000000000000000000000000000" : {
                "balance" : "0x00",
                "code" : "0x600c60035560016000fd",
                "nonce" : "0x00",
                "storage" : {
                }
            }
        },
        "sealEngine" : "NoProof"
    },
    "RevertOpcodeMultipleSubCalls_d0g1v1_Constantinople" : {
        "_info" : {
            "comment" : "",
            "filledwith" : "testeth 1.7.0-alpha.1-20+commit.782a7283",
            "lllcversion" : "Version: 0.5.0-develop.2018.11.9+commit.9709dfe0.Linux.g++",
            "source" : "src/BlockchainTestsFiller/GeneralStateTests/stRevertTest/RevertOpcodeMultipleSubCalls_d0g1v1Filler.json",
            "sourceHash" : "6a01b73a4c73c5421435f19a1c5f252c5656f0f2a3300152060c012db4d11c4b"
        },
        "blocks" : [
            {
                "blockHeader" : {
                    "bloom" : "0x00000000000000000000000000000000000000000000000000000000000000000000000000000000000000000000000000000000000000000000000000000000000000000000000000000000000000000000000000000000000000000000000000000000000000000000000000000000000000000000000000000000000000000000000000000000000000000000000000000000000000000000000000000000000000000000000000000000000000000000000000000000000000000000000000000000000000000000000000000000000000000000000000000000000000000000000000000000000000000000000000000000000000000000000000000000",
                    "coinbase" : "0x2adc25665018aa1fe0e6bc666dac8fc2697ff9ba",
                    "difficulty" : "0x020000",
                    "extraData" : "0x",
                    "gasLimit" : "0x989680",
                    "gasUsed" : "0x01e728",
                    "hash" : "0x08d86146b7a88831bd08d7868e2798c146aecf95012e1c6b07b3e9c0f3ce1fa1",
                    "mixHash" : "0x0000000000000000000000000000000000000000000000000000000000000000",
                    "nonce" : "0x0000000000000000",
                    "number" : "0x01",
                    "parentHash" : "0x9c0c02b9a5a8b304b47336a09b24677ecde4273d5b90accfca80e0e7717310fd",
                    "receiptTrie" : "0xcf3ffa9eb0c13667adad92a0a083d1e6ec2af2b5a50c87c024d334079e53d660",
                    "stateRoot" : "0x20f3cfbef044dea75b773354909c3df9e2ce7316b65410b5e032ce4e85780a79",
                    "timestamp" : "0x03e8",
                    "transactionsTrie" : "0x3a2c47ccbf814563b9b9e50fb1aaf23192310c987e75c1a3ca03fc716a721299",
                    "uncleHash" : "0x1dcc4de8dec75d7aab85b567b6ccd41ad312451b948a7413f0a142fd40d49347"
                },
                "rlp" : "0xf90280f901f8a09c0c02b9a5a8b304b47336a09b24677ecde4273d5b90accfca80e0e7717310fda01dcc4de8dec75d7aab85b567b6ccd41ad312451b948a7413f0a142fd40d49347942adc25665018aa1fe0e6bc666dac8fc2697ff9baa020f3cfbef044dea75b773354909c3df9e2ce7316b65410b5e032ce4e85780a79a03a2c47ccbf814563b9b9e50fb1aaf23192310c987e75c1a3ca03fc716a721299a0cf3ffa9eb0c13667adad92a0a083d1e6ec2af2b5a50c87c024d334079e53d660b90100000000000000000000000000000000000000000000000000000000000000000000000000000000000000000000000000000000000000000000000000000000000000000000000000000000000000000000000000000000000000000000000000000000000000000000000000000000000000000000000000000000000000000000000000000000000000000000000000000000000000000000000000000000000000000000000000000000000000000000000000000000000000000000000000000000000000000000000000000000000000000000000000000000000000000000000000000000000000000000000000000000000000000000000000000000008302000001839896808301e7288203e880a00000000000000000000000000000000000000000000000000000000000000000880000000000000000f882f88080018301ecf894ac000000000000000000000000000000000000000aa0000000000000000000000000a0000000000000000000000000000000000000001ca06d6def3f2b4746f74b4a40e31ebe5d42211a0c9bfb9236411266fd6b5426c5eca00346458499b07033c8089c6902d296868cb6270e4e164e3ecbe3fce6ebdbca99c0",
                "transactions" : [
                    {
                        "data" : "0x000000000000000000000000a000000000000000000000000000000000000000",
                        "gasLimit" : "0x01ecf8",
                        "gasPrice" : "0x01",
                        "nonce" : "0x00",
                        "r" : "0x6d6def3f2b4746f74b4a40e31ebe5d42211a0c9bfb9236411266fd6b5426c5ec",
                        "s" : "0x0346458499b07033c8089c6902d296868cb6270e4e164e3ecbe3fce6ebdbca99",
                        "to" : "0xac00000000000000000000000000000000000000",
                        "v" : "0x1c",
                        "value" : "0x0a"
                    }
                ],
                "uncleHeaders" : [
                ]
            }
        ],
        "genesisBlockHeader" : {
            "bloom" : "0x00000000000000000000000000000000000000000000000000000000000000000000000000000000000000000000000000000000000000000000000000000000000000000000000000000000000000000000000000000000000000000000000000000000000000000000000000000000000000000000000000000000000000000000000000000000000000000000000000000000000000000000000000000000000000000000000000000000000000000000000000000000000000000000000000000000000000000000000000000000000000000000000000000000000000000000000000000000000000000000000000000000000000000000000000000000",
            "coinbase" : "0x2adc25665018aa1fe0e6bc666dac8fc2697ff9ba",
            "difficulty" : "0x020000",
            "extraData" : "0x42",
            "gasLimit" : "0x989680",
            "gasUsed" : "0x00",
            "hash" : "0x9c0c02b9a5a8b304b47336a09b24677ecde4273d5b90accfca80e0e7717310fd",
            "mixHash" : "0x56e81f171bcc55a6ff8345e692c0f86e5b48e01b996cadc001622fb5e363b421",
            "nonce" : "0x0102030405060708",
            "number" : "0x00",
            "parentHash" : "0x0000000000000000000000000000000000000000000000000000000000000000",
            "receiptTrie" : "0x56e81f171bcc55a6ff8345e692c0f86e5b48e01b996cadc001622fb5e363b421",
            "stateRoot" : "0x1b33c44accff3f1d7776a868d7edfeb36f680a4e079cb885fd2d1bb1aa621d5e",
            "timestamp" : "0x03b6",
            "transactionsTrie" : "0x56e81f171bcc55a6ff8345e692c0f86e5b48e01b996cadc001622fb5e363b421",
            "uncleHash" : "0x1dcc4de8dec75d7aab85b567b6ccd41ad312451b948a7413f0a142fd40d49347"
        },
        "genesisRLP" : "0xf901faf901f5a00000000000000000000000000000000000000000000000000000000000000000a01dcc4de8dec75d7aab85b567b6ccd41ad312451b948a7413f0a142fd40d49347942adc25665018aa1fe0e6bc666dac8fc2697ff9baa01b33c44accff3f1d7776a868d7edfeb36f680a4e079cb885fd2d1bb1aa621d5ea056e81f171bcc55a6ff8345e692c0f86e5b48e01b996cadc001622fb5e363b421a056e81f171bcc55a6ff8345e692c0f86e5b48e01b996cadc001622fb5e363b421b9010000000000000000000000000000000000000000000000000000000000000000000000000000000000000000000000000000000000000000000000000000000000000000000000000000000000000000000000000000000000000000000000000000000000000000000000000000000000000000000000000000000000000000000000000000000000000000000000000000000000000000000000000000000000000000000000000000000000000000000000000000000000000000000000000000000000000000000000000000000000000000000000000000000000000000000000000000000000000000000000000000000000000000000000000000000000830200008083989680808203b642a056e81f171bcc55a6ff8345e692c0f86e5b48e01b996cadc001622fb5e363b421880102030405060708c0c0",
        "lastblockhash" : "0x08d86146b7a88831bd08d7868e2798c146aecf95012e1c6b07b3e9c0f3ce1fa1",
        "network" : "Constantinople",
        "postState" : {
            "0x2adc25665018aa1fe0e6bc666dac8fc2697ff9ba" : {
                "balance" : "0x1bc16d674ec9e728",
                "code" : "0x",
                "nonce" : "0x00",
                "storage" : {
                }
            },
            "0xa000000000000000000000000000000000000000" : {
                "balance" : "0x00",
                "code" : "0x6000600060006000600073b00000000000000000000000000000000000000061c350f1600a556000600060006000600073c00000000000000000000000000000000000000061c350f1600b556000600060006000600073d00000000000000000000000000000000000000061c350f1600c55600c600455600c600555",
                "nonce" : "0x00",
                "storage" : {
                }
            },
            "0xa100000000000000000000000000000000000000" : {
                "balance" : "0x00",
                "code" : "0x6000600060006000600073b00000000000000000000000000000000000000061c350f2600a556000600060006000600073c00000000000000000000000000000000000000061c350f2600b556000600060006000600073d00000000000000000000000000000000000000061c350f2600c55600c600455600c600555",
                "nonce" : "0x00",
                "storage" : {
                }
            },
            "0xa200000000000000000000000000000000000000" : {
                "balance" : "0x00",
                "code" : "0x600060006000600073b00000000000000000000000000000000000000061c350f4600a55600060006000600073c00000000000000000000000000000000000000061c350f4600b55600060006000600073d00000000000000000000000000000000000000061c350f4600c55600c600455600c600555",
                "nonce" : "0x00",
                "storage" : {
                }
            },
            "0xa300000000000000000000000000000000000000" : {
                "balance" : "0x00",
                "code" : "0x6000600060006000600073b00000000000000000000000000000000000000061c350f1600a55600060006000600073c00000000000000000000000000000000000000061c350f4600b556000600060006000600073d00000000000000000000000000000000000000061c350f2600c55600c600455600c600555",
                "nonce" : "0x00",
                "storage" : {
                }
            },
            "0xa94f5374fce5edbc8e2a8697c15331677e6ebf0b" : {
                "balance" : "0xe8d4a328ce",
                "code" : "0x",
                "nonce" : "0x01",
                "storage" : {
                }
            },
            "0xac00000000000000000000000000000000000000" : {
                "balance" : "0x0a",
                "code" : "0x6000600060006000346000356203f7a0f1",
                "nonce" : "0x00",
                "storage" : {
                }
            },
            "0xb000000000000000000000000000000000000000" : {
                "balance" : "0x00",
                "code" : "0x600c60015560016000fd",
                "nonce" : "0x00",
                "storage" : {
                }
            },
            "0xc000000000000000000000000000000000000000" : {
                "balance" : "0x00",
                "code" : "0x600c60025560016000fd",
                "nonce" : "0x00",
                "storage" : {
                }
            },
            "0xd000000000000000000000000000000000000000" : {
                "balance" : "0x00",
                "code" : "0x600c60035560016000fd",
                "nonce" : "0x00",
                "storage" : {
                }
            }
        },
        "pre" : {
            "0xa000000000000000000000000000000000000000" : {
                "balance" : "0x00",
                "code" : "0x6000600060006000600073b00000000000000000000000000000000000000061c350f1600a556000600060006000600073c00000000000000000000000000000000000000061c350f1600b556000600060006000600073d00000000000000000000000000000000000000061c350f1600c55600c600455600c600555",
                "nonce" : "0x00",
                "storage" : {
                }
            },
            "0xa100000000000000000000000000000000000000" : {
                "balance" : "0x00",
                "code" : "0x6000600060006000600073b00000000000000000000000000000000000000061c350f2600a556000600060006000600073c00000000000000000000000000000000000000061c350f2600b556000600060006000600073d00000000000000000000000000000000000000061c350f2600c55600c600455600c600555",
                "nonce" : "0x00",
                "storage" : {
                }
            },
            "0xa200000000000000000000000000000000000000" : {
                "balance" : "0x00",
                "code" : "0x600060006000600073b00000000000000000000000000000000000000061c350f4600a55600060006000600073c00000000000000000000000000000000000000061c350f4600b55600060006000600073d00000000000000000000000000000000000000061c350f4600c55600c600455600c600555",
                "nonce" : "0x00",
                "storage" : {
                }
            },
            "0xa300000000000000000000000000000000000000" : {
                "balance" : "0x00",
                "code" : "0x6000600060006000600073b00000000000000000000000000000000000000061c350f1600a55600060006000600073c00000000000000000000000000000000000000061c350f4600b556000600060006000600073d00000000000000000000000000000000000000061c350f2600c55600c600455600c600555",
                "nonce" : "0x00",
                "storage" : {
                }
            },
            "0xa94f5374fce5edbc8e2a8697c15331677e6ebf0b" : {
                "balance" : "0xe8d4a51000",
                "code" : "0x",
                "nonce" : "0x00",
                "storage" : {
                }
            },
            "0xac00000000000000000000000000000000000000" : {
                "balance" : "0x00",
                "code" : "0x6000600060006000346000356203f7a0f1",
                "nonce" : "0x00",
                "storage" : {
                }
            },
            "0xb000000000000000000000000000000000000000" : {
                "balance" : "0x00",
                "code" : "0x600c60015560016000fd",
                "nonce" : "0x00",
                "storage" : {
                }
            },
            "0xc000000000000000000000000000000000000000" : {
                "balance" : "0x00",
                "code" : "0x600c60025560016000fd",
                "nonce" : "0x00",
                "storage" : {
                }
            },
            "0xd000000000000000000000000000000000000000" : {
                "balance" : "0x00",
                "code" : "0x600c60035560016000fd",
                "nonce" : "0x00",
                "storage" : {
                }
            }
        },
        "sealEngine" : "NoProof"
    },
    "RevertOpcodeMultipleSubCalls_d0g1v1_ConstantinopleFix" : {
        "_info" : {
            "comment" : "",
            "filledwith" : "testeth 1.7.0-alpha.1-20+commit.782a7283",
            "lllcversion" : "Version: 0.5.0-develop.2018.11.9+commit.9709dfe0.Linux.g++",
            "source" : "src/BlockchainTestsFiller/GeneralStateTests/stRevertTest/RevertOpcodeMultipleSubCalls_d0g1v1Filler.json",
            "sourceHash" : "6a01b73a4c73c5421435f19a1c5f252c5656f0f2a3300152060c012db4d11c4b"
        },
        "blocks" : [
            {
                "blockHeader" : {
                    "bloom" : "0x00000000000000000000000000000000000000000000000000000000000000000000000000000000000000000000000000000000000000000000000000000000000000000000000000000000000000000000000000000000000000000000000000000000000000000000000000000000000000000000000000000000000000000000000000000000000000000000000000000000000000000000000000000000000000000000000000000000000000000000000000000000000000000000000000000000000000000000000000000000000000000000000000000000000000000000000000000000000000000000000000000000000000000000000000000000",
                    "coinbase" : "0x2adc25665018aa1fe0e6bc666dac8fc2697ff9ba",
                    "difficulty" : "0x020000",
                    "extraData" : "0x",
                    "gasLimit" : "0x989680",
                    "gasUsed" : "0x01e728",
                    "hash" : "0x08d86146b7a88831bd08d7868e2798c146aecf95012e1c6b07b3e9c0f3ce1fa1",
                    "mixHash" : "0x0000000000000000000000000000000000000000000000000000000000000000",
                    "nonce" : "0x0000000000000000",
                    "number" : "0x01",
                    "parentHash" : "0x9c0c02b9a5a8b304b47336a09b24677ecde4273d5b90accfca80e0e7717310fd",
                    "receiptTrie" : "0xcf3ffa9eb0c13667adad92a0a083d1e6ec2af2b5a50c87c024d334079e53d660",
                    "stateRoot" : "0x20f3cfbef044dea75b773354909c3df9e2ce7316b65410b5e032ce4e85780a79",
                    "timestamp" : "0x03e8",
                    "transactionsTrie" : "0x3a2c47ccbf814563b9b9e50fb1aaf23192310c987e75c1a3ca03fc716a721299",
                    "uncleHash" : "0x1dcc4de8dec75d7aab85b567b6ccd41ad312451b948a7413f0a142fd40d49347"
                },
                "rlp" : "0xf90280f901f8a09c0c02b9a5a8b304b47336a09b24677ecde4273d5b90accfca80e0e7717310fda01dcc4de8dec75d7aab85b567b6ccd41ad312451b948a7413f0a142fd40d49347942adc25665018aa1fe0e6bc666dac8fc2697ff9baa020f3cfbef044dea75b773354909c3df9e2ce7316b65410b5e032ce4e85780a79a03a2c47ccbf814563b9b9e50fb1aaf23192310c987e75c1a3ca03fc716a721299a0cf3ffa9eb0c13667adad92a0a083d1e6ec2af2b5a50c87c024d334079e53d660b90100000000000000000000000000000000000000000000000000000000000000000000000000000000000000000000000000000000000000000000000000000000000000000000000000000000000000000000000000000000000000000000000000000000000000000000000000000000000000000000000000000000000000000000000000000000000000000000000000000000000000000000000000000000000000000000000000000000000000000000000000000000000000000000000000000000000000000000000000000000000000000000000000000000000000000000000000000000000000000000000000000000000000000000000000000000008302000001839896808301e7288203e880a00000000000000000000000000000000000000000000000000000000000000000880000000000000000f882f88080018301ecf894ac000000000000000000000000000000000000000aa0000000000000000000000000a0000000000000000000000000000000000000001ca06d6def3f2b4746f74b4a40e31ebe5d42211a0c9bfb9236411266fd6b5426c5eca00346458499b07033c8089c6902d296868cb6270e4e164e3ecbe3fce6ebdbca99c0",
                "transactions" : [
                    {
                        "data" : "0x000000000000000000000000a000000000000000000000000000000000000000",
                        "gasLimit" : "0x01ecf8",
                        "gasPrice" : "0x01",
                        "nonce" : "0x00",
                        "r" : "0x6d6def3f2b4746f74b4a40e31ebe5d42211a0c9bfb9236411266fd6b5426c5ec",
                        "s" : "0x0346458499b07033c8089c6902d296868cb6270e4e164e3ecbe3fce6ebdbca99",
                        "to" : "0xac00000000000000000000000000000000000000",
                        "v" : "0x1c",
                        "value" : "0x0a"
                    }
                ],
                "uncleHeaders" : [
                ]
            }
        ],
        "genesisBlockHeader" : {
            "bloom" : "0x00000000000000000000000000000000000000000000000000000000000000000000000000000000000000000000000000000000000000000000000000000000000000000000000000000000000000000000000000000000000000000000000000000000000000000000000000000000000000000000000000000000000000000000000000000000000000000000000000000000000000000000000000000000000000000000000000000000000000000000000000000000000000000000000000000000000000000000000000000000000000000000000000000000000000000000000000000000000000000000000000000000000000000000000000000000",
            "coinbase" : "0x2adc25665018aa1fe0e6bc666dac8fc2697ff9ba",
            "difficulty" : "0x020000",
            "extraData" : "0x42",
            "gasLimit" : "0x989680",
            "gasUsed" : "0x00",
            "hash" : "0x9c0c02b9a5a8b304b47336a09b24677ecde4273d5b90accfca80e0e7717310fd",
            "mixHash" : "0x56e81f171bcc55a6ff8345e692c0f86e5b48e01b996cadc001622fb5e363b421",
            "nonce" : "0x0102030405060708",
            "number" : "0x00",
            "parentHash" : "0x0000000000000000000000000000000000000000000000000000000000000000",
            "receiptTrie" : "0x56e81f171bcc55a6ff8345e692c0f86e5b48e01b996cadc001622fb5e363b421",
            "stateRoot" : "0x1b33c44accff3f1d7776a868d7edfeb36f680a4e079cb885fd2d1bb1aa621d5e",
            "timestamp" : "0x03b6",
            "transactionsTrie" : "0x56e81f171bcc55a6ff8345e692c0f86e5b48e01b996cadc001622fb5e363b421",
            "uncleHash" : "0x1dcc4de8dec75d7aab85b567b6ccd41ad312451b948a7413f0a142fd40d49347"
        },
        "genesisRLP" : "0xf901faf901f5a00000000000000000000000000000000000000000000000000000000000000000a01dcc4de8dec75d7aab85b567b6ccd41ad312451b948a7413f0a142fd40d49347942adc25665018aa1fe0e6bc666dac8fc2697ff9baa01b33c44accff3f1d7776a868d7edfeb36f680a4e079cb885fd2d1bb1aa621d5ea056e81f171bcc55a6ff8345e692c0f86e5b48e01b996cadc001622fb5e363b421a056e81f171bcc55a6ff8345e692c0f86e5b48e01b996cadc001622fb5e363b421b9010000000000000000000000000000000000000000000000000000000000000000000000000000000000000000000000000000000000000000000000000000000000000000000000000000000000000000000000000000000000000000000000000000000000000000000000000000000000000000000000000000000000000000000000000000000000000000000000000000000000000000000000000000000000000000000000000000000000000000000000000000000000000000000000000000000000000000000000000000000000000000000000000000000000000000000000000000000000000000000000000000000000000000000000000000000000830200008083989680808203b642a056e81f171bcc55a6ff8345e692c0f86e5b48e01b996cadc001622fb5e363b421880102030405060708c0c0",
        "lastblockhash" : "0x08d86146b7a88831bd08d7868e2798c146aecf95012e1c6b07b3e9c0f3ce1fa1",
        "network" : "ConstantinopleFix",
        "postState" : {
            "0x2adc25665018aa1fe0e6bc666dac8fc2697ff9ba" : {
                "balance" : "0x1bc16d674ec9e728",
                "code" : "0x",
                "nonce" : "0x00",
                "storage" : {
                }
            },
            "0xa000000000000000000000000000000000000000" : {
                "balance" : "0x00",
                "code" : "0x6000600060006000600073b00000000000000000000000000000000000000061c350f1600a556000600060006000600073c00000000000000000000000000000000000000061c350f1600b556000600060006000600073d00000000000000000000000000000000000000061c350f1600c55600c600455600c600555",
                "nonce" : "0x00",
                "storage" : {
                }
            },
            "0xa100000000000000000000000000000000000000" : {
                "balance" : "0x00",
                "code" : "0x6000600060006000600073b00000000000000000000000000000000000000061c350f2600a556000600060006000600073c00000000000000000000000000000000000000061c350f2600b556000600060006000600073d00000000000000000000000000000000000000061c350f2600c55600c600455600c600555",
                "nonce" : "0x00",
                "storage" : {
                }
            },
            "0xa200000000000000000000000000000000000000" : {
                "balance" : "0x00",
                "code" : "0x600060006000600073b00000000000000000000000000000000000000061c350f4600a55600060006000600073c00000000000000000000000000000000000000061c350f4600b55600060006000600073d00000000000000000000000000000000000000061c350f4600c55600c600455600c600555",
                "nonce" : "0x00",
                "storage" : {
                }
            },
            "0xa300000000000000000000000000000000000000" : {
                "balance" : "0x00",
                "code" : "0x6000600060006000600073b00000000000000000000000000000000000000061c350f1600a55600060006000600073c00000000000000000000000000000000000000061c350f4600b556000600060006000600073d00000000000000000000000000000000000000061c350f2600c55600c600455600c600555",
                "nonce" : "0x00",
                "storage" : {
                }
            },
            "0xa94f5374fce5edbc8e2a8697c15331677e6ebf0b" : {
                "balance" : "0xe8d4a328ce",
                "code" : "0x",
                "nonce" : "0x01",
                "storage" : {
                }
            },
            "0xac00000000000000000000000000000000000000" : {
                "balance" : "0x0a",
                "code" : "0x6000600060006000346000356203f7a0f1",
                "nonce" : "0x00",
                "storage" : {
                }
            },
            "0xb000000000000000000000000000000000000000" : {
                "balance" : "0x00",
                "code" : "0x600c60015560016000fd",
                "nonce" : "0x00",
                "storage" : {
                }
            },
            "0xc000000000000000000000000000000000000000" : {
                "balance" : "0x00",
                "code" : "0x600c60025560016000fd",
                "nonce" : "0x00",
                "storage" : {
                }
            },
            "0xd000000000000000000000000000000000000000" : {
                "balance" : "0x00",
                "code" : "0x600c60035560016000fd",
                "nonce" : "0x00",
                "storage" : {
                }
            }
        },
        "pre" : {
            "0xa000000000000000000000000000000000000000" : {
                "balance" : "0x00",
                "code" : "0x6000600060006000600073b00000000000000000000000000000000000000061c350f1600a556000600060006000600073c00000000000000000000000000000000000000061c350f1600b556000600060006000600073d00000000000000000000000000000000000000061c350f1600c55600c600455600c600555",
                "nonce" : "0x00",
                "storage" : {
                }
            },
            "0xa100000000000000000000000000000000000000" : {
                "balance" : "0x00",
                "code" : "0x6000600060006000600073b00000000000000000000000000000000000000061c350f2600a556000600060006000600073c00000000000000000000000000000000000000061c350f2600b556000600060006000600073d00000000000000000000000000000000000000061c350f2600c55600c600455600c600555",
                "nonce" : "0x00",
                "storage" : {
                }
            },
            "0xa200000000000000000000000000000000000000" : {
                "balance" : "0x00",
                "code" : "0x600060006000600073b00000000000000000000000000000000000000061c350f4600a55600060006000600073c00000000000000000000000000000000000000061c350f4600b55600060006000600073d00000000000000000000000000000000000000061c350f4600c55600c600455600c600555",
                "nonce" : "0x00",
                "storage" : {
                }
            },
            "0xa300000000000000000000000000000000000000" : {
                "balance" : "0x00",
                "code" : "0x6000600060006000600073b00000000000000000000000000000000000000061c350f1600a55600060006000600073c00000000000000000000000000000000000000061c350f4600b556000600060006000600073d00000000000000000000000000000000000000061c350f2600c55600c600455600c600555",
                "nonce" : "0x00",
                "storage" : {
                }
            },
            "0xa94f5374fce5edbc8e2a8697c15331677e6ebf0b" : {
                "balance" : "0xe8d4a51000",
                "code" : "0x",
                "nonce" : "0x00",
                "storage" : {
                }
            },
            "0xac00000000000000000000000000000000000000" : {
                "balance" : "0x00",
                "code" : "0x6000600060006000346000356203f7a0f1",
                "nonce" : "0x00",
                "storage" : {
                }
            },
            "0xb000000000000000000000000000000000000000" : {
                "balance" : "0x00",
                "code" : "0x600c60015560016000fd",
                "nonce" : "0x00",
                "storage" : {
                }
            },
            "0xc000000000000000000000000000000000000000" : {
                "balance" : "0x00",
                "code" : "0x600c60025560016000fd",
                "nonce" : "0x00",
                "storage" : {
                }
            },
            "0xd000000000000000000000000000000000000000" : {
                "balance" : "0x00",
                "code" : "0x600c60035560016000fd",
                "nonce" : "0x00",
                "storage" : {
                }
            }
        },
        "sealEngine" : "NoProof"
    }
}