{
    "RevertOpcodeMultipleSubCalls_d2g1v0_Byzantium" : {
        "_info" : {
            "comment" : "",
            "filledwith" : "testeth 1.7.0-alpha.1-20+commit.782a7283",
            "lllcversion" : "Version: 0.5.0-develop.2018.11.9+commit.9709dfe0.Linux.g++",
            "source" : "src/BlockchainTestsFiller/GeneralStateTests/stRevertTest/RevertOpcodeMultipleSubCalls_d2g1v0Filler.json",
            "sourceHash" : "40e86163cc89a346d86642a037c902d9e30ed5d26bab3e435534cdfa52efe1e0"
        },
        "blocks" : [
            {
                "blockHeader" : {
                    "bloom" : "0x00000000000000000000000000000000000000000000000000000000000000000000000000000000000000000000000000000000000000000000000000000000000000000000000000000000000000000000000000000000000000000000000000000000000000000000000000000000000000000000000000000000000000000000000000000000000000000000000000000000000000000000000000000000000000000000000000000000000000000000000000000000000000000000000000000000000000000000000000000000000000000000000000000000000000000000000000000000000000000000000000000000000000000000000000000000",
                    "coinbase" : "0x2adc25665018aa1fe0e6bc666dac8fc2697ff9ba",
                    "difficulty" : "0x020000",
                    "extraData" : "0x",
                    "gasLimit" : "0x989680",
                    "gasUsed" : "0x01e69b",
                    "hash" : "0x50aea984d23de626fec9234717ff1536ef579a4756f921b65d4e0a2cad3d2f09",
                    "mixHash" : "0x0000000000000000000000000000000000000000000000000000000000000000",
                    "nonce" : "0x0000000000000000",
                    "number" : "0x01",
                    "parentHash" : "0x9c0c02b9a5a8b304b47336a09b24677ecde4273d5b90accfca80e0e7717310fd",
                    "receiptTrie" : "0xa90875435faa5f3b201125f19aad4aafc9a6eba7dbadf6ac9e76a66a0c07cd97",
                    "stateRoot" : "0x558fe47805e207a87bb616e18a828ac6ab9ba683539ffc13794d6d9aded16266",
                    "timestamp" : "0x03e8",
                    "transactionsTrie" : "0x6b0629725ffc3bd3f2a7dbae8028c61153035f7bf7203dcead27e459624b79a3",
                    "uncleHash" : "0x1dcc4de8dec75d7aab85b567b6ccd41ad312451b948a7413f0a142fd40d49347"
                },
                "rlp" : "0xf90280f901f8a09c0c02b9a5a8b304b47336a09b24677ecde4273d5b90accfca80e0e7717310fda01dcc4de8dec75d7aab85b567b6ccd41ad312451b948a7413f0a142fd40d49347942adc25665018aa1fe0e6bc666dac8fc2697ff9baa0558fe47805e207a87bb616e18a828ac6ab9ba683539ffc13794d6d9aded16266a06b0629725ffc3bd3f2a7dbae8028c61153035f7bf7203dcead27e459624b79a3a0a90875435faa5f3b201125f19aad4aafc9a6eba7dbadf6ac9e76a66a0c07cd97b90100000000000000000000000000000000000000000000000000000000000000000000000000000000000000000000000000000000000000000000000000000000000000000000000000000000000000000000000000000000000000000000000000000000000000000000000000000000000000000000000000000000000000000000000000000000000000000000000000000000000000000000000000000000000000000000000000000000000000000000000000000000000000000000000000000000000000000000000000000000000000000000000000000000000000000000000000000000000000000000000000000000000000000000000000000000008302000001839896808301e69b8203e880a00000000000000000000000000000000000000000000000000000000000000000880000000000000000f882f88080018301ecf894ac0000000000000000000000000000000000000080a0000000000000000000000000a2000000000000000000000000000000000000001ba0c5c9c5c6153a857353993416f43962d5c39e27f52ded07d233ab5ed7fe9597b7a012844507066a09347cc8fa64f7b1a8aae1f2c07b47ebb87b70db35301be14edbc0",
                "transactions" : [
                    {
                        "data" : "0x000000000000000000000000a200000000000000000000000000000000000000",
                        "gasLimit" : "0x01ecf8",
                        "gasPrice" : "0x01",
                        "nonce" : "0x00",
                        "r" : "0xc5c9c5c6153a857353993416f43962d5c39e27f52ded07d233ab5ed7fe9597b7",
                        "s" : "0x12844507066a09347cc8fa64f7b1a8aae1f2c07b47ebb87b70db35301be14edb",
                        "to" : "0xac00000000000000000000000000000000000000",
                        "v" : "0x1b",
                        "value" : "0x00"
                    }
                ],
                "uncleHeaders" : [
                ]
            }
        ],
        "genesisBlockHeader" : {
            "bloom" : "0x00000000000000000000000000000000000000000000000000000000000000000000000000000000000000000000000000000000000000000000000000000000000000000000000000000000000000000000000000000000000000000000000000000000000000000000000000000000000000000000000000000000000000000000000000000000000000000000000000000000000000000000000000000000000000000000000000000000000000000000000000000000000000000000000000000000000000000000000000000000000000000000000000000000000000000000000000000000000000000000000000000000000000000000000000000000",
            "coinbase" : "0x2adc25665018aa1fe0e6bc666dac8fc2697ff9ba",
            "difficulty" : "0x020000",
            "extraData" : "0x42",
            "gasLimit" : "0x989680",
            "gasUsed" : "0x00",
            "hash" : "0x9c0c02b9a5a8b304b47336a09b24677ecde4273d5b90accfca80e0e7717310fd",
            "mixHash" : "0x56e81f171bcc55a6ff8345e692c0f86e5b48e01b996cadc001622fb5e363b421",
            "nonce" : "0x0102030405060708",
            "number" : "0x00",
            "parentHash" : "0x0000000000000000000000000000000000000000000000000000000000000000",
            "receiptTrie" : "0x56e81f171bcc55a6ff8345e692c0f86e5b48e01b996cadc001622fb5e363b421",
            "stateRoot" : "0x1b33c44accff3f1d7776a868d7edfeb36f680a4e079cb885fd2d1bb1aa621d5e",
            "timestamp" : "0x03b6",
            "transactionsTrie" : "0x56e81f171bcc55a6ff8345e692c0f86e5b48e01b996cadc001622fb5e363b421",
            "uncleHash" : "0x1dcc4de8dec75d7aab85b567b6ccd41ad312451b948a7413f0a142fd40d49347"
        },
        "genesisRLP" : "0xf901faf901f5a00000000000000000000000000000000000000000000000000000000000000000a01dcc4de8dec75d7aab85b567b6ccd41ad312451b948a7413f0a142fd40d49347942adc25665018aa1fe0e6bc666dac8fc2697ff9baa01b33c44accff3f1d7776a868d7edfeb36f680a4e079cb885fd2d1bb1aa621d5ea056e81f171bcc55a6ff8345e692c0f86e5b48e01b996cadc001622fb5e363b421a056e81f171bcc55a6ff8345e692c0f86e5b48e01b996cadc001622fb5e363b421b9010000000000000000000000000000000000000000000000000000000000000000000000000000000000000000000000000000000000000000000000000000000000000000000000000000000000000000000000000000000000000000000000000000000000000000000000000000000000000000000000000000000000000000000000000000000000000000000000000000000000000000000000000000000000000000000000000000000000000000000000000000000000000000000000000000000000000000000000000000000000000000000000000000000000000000000000000000000000000000000000000000000000000000000000000000000000830200008083989680808203b642a056e81f171bcc55a6ff8345e692c0f86e5b48e01b996cadc001622fb5e363b421880102030405060708c0c0",
        "lastblockhash" : "0x50aea984d23de626fec9234717ff1536ef579a4756f921b65d4e0a2cad3d2f09",
        "network" : "Byzantium",
        "postState" : {
            "0x2adc25665018aa1fe0e6bc666dac8fc2697ff9ba" : {
                "balance" : "0x29a2241af62de69b",
                "code" : "0x",
                "nonce" : "0x00",
                "storage" : {
                }
            },
            "0xa000000000000000000000000000000000000000" : {
                "balance" : "0x00",
                "code" : "0x6000600060006000600073b00000000000000000000000000000000000000061c350f1600a556000600060006000600073c00000000000000000000000000000000000000061c350f1600b556000600060006000600073d00000000000000000000000000000000000000061c350f1600c55600c600455600c600555",
                "nonce" : "0x00",
                "storage" : {
                }
            },
            "0xa100000000000000000000000000000000000000" : {
                "balance" : "0x00",
                "code" : "0x6000600060006000600073b00000000000000000000000000000000000000061c350f2600a556000600060006000600073c00000000000000000000000000000000000000061c350f2600b556000600060006000600073d00000000000000000000000000000000000000061c350f2600c55600c600455600c600555",
                "nonce" : "0x00",
                "storage" : {
                }
            },
            "0xa200000000000000000000000000000000000000" : {
                "balance" : "0x00",
                "code" : "0x600060006000600073b00000000000000000000000000000000000000061c350f4600a55600060006000600073c00000000000000000000000000000000000000061c350f4600b55600060006000600073d00000000000000000000000000000000000000061c350f4600c55600c600455600c600555",
                "nonce" : "0x00",
                "storage" : {
                }
            },
            "0xa300000000000000000000000000000000000000" : {
                "balance" : "0x00",
                "code" : "0x6000600060006000600073b00000000000000000000000000000000000000061c350f1600a55600060006000600073c00000000000000000000000000000000000000061c350f4600b556000600060006000600073d00000000000000000000000000000000000000061c350f2600c55600c600455600c600555",
                "nonce" : "0x00",
                "storage" : {
                }
            },
            "0xa94f5374fce5edbc8e2a8697c15331677e6ebf0b" : {
                "balance" : "0xe8d4a32965",
                "code" : "0x",
                "nonce" : "0x01",
                "storage" : {
                }
            },
            "0xac00000000000000000000000000000000000000" : {
                "balance" : "0x00",
                "code" : "0x6000600060006000346000356203f7a0f1",
                "nonce" : "0x00",
                "storage" : {
                }
            },
            "0xb000000000000000000000000000000000000000" : {
                "balance" : "0x00",
                "code" : "0x600c60015560016000fd",
                "nonce" : "0x00",
                "storage" : {
                }
            },
            "0xc000000000000000000000000000000000000000" : {
                "balance" : "0x00",
                "code" : "0x600c60025560016000fd",
                "nonce" : "0x00",
                "storage" : {
                }
            },
            "0xd000000000000000000000000000000000000000" : {
                "balance" : "0x00",
                "code" : "0x600c60035560016000fd",
                "nonce" : "0x00",
                "storage" : {
                }
            }
        },
        "pre" : {
            "0xa000000000000000000000000000000000000000" : {
                "balance" : "0x00",
                "code" : "0x6000600060006000600073b00000000000000000000000000000000000000061c350f1600a556000600060006000600073c00000000000000000000000000000000000000061c350f1600b556000600060006000600073d00000000000000000000000000000000000000061c350f1600c55600c600455600c600555",
                "nonce" : "0x00",
                "storage" : {
                }
            },
            "0xa100000000000000000000000000000000000000" : {
                "balance" : "0x00",
                "code" : "0x6000600060006000600073b00000000000000000000000000000000000000061c350f2600a556000600060006000600073c00000000000000000000000000000000000000061c350f2600b556000600060006000600073d00000000000000000000000000000000000000061c350f2600c55600c600455600c600555",
                "nonce" : "0x00",
                "storage" : {
                }
            },
            "0xa200000000000000000000000000000000000000" : {
                "balance" : "0x00",
                "code" : "0x600060006000600073b00000000000000000000000000000000000000061c350f4600a55600060006000600073c00000000000000000000000000000000000000061c350f4600b55600060006000600073d00000000000000000000000000000000000000061c350f4600c55600c600455600c600555",
                "nonce" : "0x00",
                "storage" : {
                }
            },
            "0xa300000000000000000000000000000000000000" : {
                "balance" : "0x00",
                "code" : "0x6000600060006000600073b00000000000000000000000000000000000000061c350f1600a55600060006000600073c00000000000000000000000000000000000000061c350f4600b556000600060006000600073d00000000000000000000000000000000000000061c350f2600c55600c600455600c600555",
                "nonce" : "0x00",
                "storage" : {
                }
            },
            "0xa94f5374fce5edbc8e2a8697c15331677e6ebf0b" : {
                "balance" : "0xe8d4a51000",
                "code" : "0x",
                "nonce" : "0x00",
                "storage" : {
                }
            },
            "0xac00000000000000000000000000000000000000" : {
                "balance" : "0x00",
                "code" : "0x6000600060006000346000356203f7a0f1",
                "nonce" : "0x00",
                "storage" : {
                }
            },
            "0xb000000000000000000000000000000000000000" : {
                "balance" : "0x00",
                "code" : "0x600c60015560016000fd",
                "nonce" : "0x00",
                "storage" : {
                }
            },
            "0xc000000000000000000000000000000000000000" : {
                "balance" : "0x00",
                "code" : "0x600c60025560016000fd",
                "nonce" : "0x00",
                "storage" : {
                }
            },
            "0xd000000000000000000000000000000000000000" : {
                "balance" : "0x00",
                "code" : "0x600c60035560016000fd",
                "nonce" : "0x00",
                "storage" : {
                }
            }
        },
        "sealEngine" : "NoProof"
    },
    "RevertOpcodeMultipleSubCalls_d2g1v0_Constantinople" : {
        "_info" : {
            "comment" : "",
            "filledwith" : "testeth 1.7.0-alpha.1-20+commit.782a7283",
            "lllcversion" : "Version: 0.5.0-develop.2018.11.9+commit.9709dfe0.Linux.g++",
            "source" : "src/BlockchainTestsFiller/GeneralStateTests/stRevertTest/RevertOpcodeMultipleSubCalls_d2g1v0Filler.json",
            "sourceHash" : "40e86163cc89a346d86642a037c902d9e30ed5d26bab3e435534cdfa52efe1e0"
        },
        "blocks" : [
            {
                "blockHeader" : {
                    "bloom" : "0x00000000000000000000000000000000000000000000000000000000000000000000000000000000000000000000000000000000000000000000000000000000000000000000000000000000000000000000000000000000000000000000000000000000000000000000000000000000000000000000000000000000000000000000000000000000000000000000000000000000000000000000000000000000000000000000000000000000000000000000000000000000000000000000000000000000000000000000000000000000000000000000000000000000000000000000000000000000000000000000000000000000000000000000000000000000",
                    "coinbase" : "0x2adc25665018aa1fe0e6bc666dac8fc2697ff9ba",
                    "difficulty" : "0x020000",
                    "extraData" : "0x",
                    "gasLimit" : "0x989680",
                    "gasUsed" : "0x01e69b",
                    "hash" : "0x7a30137805827d25eb6e3b8826ebe561e4c749157a34e04b1ae16f4a883355ec",
                    "mixHash" : "0x0000000000000000000000000000000000000000000000000000000000000000",
                    "nonce" : "0x0000000000000000",
                    "number" : "0x01",
                    "parentHash" : "0x9c0c02b9a5a8b304b47336a09b24677ecde4273d5b90accfca80e0e7717310fd",
                    "receiptTrie" : "0xa90875435faa5f3b201125f19aad4aafc9a6eba7dbadf6ac9e76a66a0c07cd97",
                    "stateRoot" : "0x0390de5a9c99a536c6c0dcca1f21a11368ee3c57e0e72575297bea16623a2781",
                    "timestamp" : "0x03e8",
                    "transactionsTrie" : "0x6b0629725ffc3bd3f2a7dbae8028c61153035f7bf7203dcead27e459624b79a3",
                    "uncleHash" : "0x1dcc4de8dec75d7aab85b567b6ccd41ad312451b948a7413f0a142fd40d49347"
                },
                "rlp" : "0xf90280f901f8a09c0c02b9a5a8b304b47336a09b24677ecde4273d5b90accfca80e0e7717310fda01dcc4de8dec75d7aab85b567b6ccd41ad312451b948a7413f0a142fd40d49347942adc25665018aa1fe0e6bc666dac8fc2697ff9baa00390de5a9c99a536c6c0dcca1f21a11368ee3c57e0e72575297bea16623a2781a06b0629725ffc3bd3f2a7dbae8028c61153035f7bf7203dcead27e459624b79a3a0a90875435faa5f3b201125f19aad4aafc9a6eba7dbadf6ac9e76a66a0c07cd97b90100000000000000000000000000000000000000000000000000000000000000000000000000000000000000000000000000000000000000000000000000000000000000000000000000000000000000000000000000000000000000000000000000000000000000000000000000000000000000000000000000000000000000000000000000000000000000000000000000000000000000000000000000000000000000000000000000000000000000000000000000000000000000000000000000000000000000000000000000000000000000000000000000000000000000000000000000000000000000000000000000000000000000000000000000000000008302000001839896808301e69b8203e880a00000000000000000000000000000000000000000000000000000000000000000880000000000000000f882f88080018301ecf894ac0000000000000000000000000000000000000080a0000000000000000000000000a2000000000000000000000000000000000000001ba0c5c9c5c6153a857353993416f43962d5c39e27f52ded07d233ab5ed7fe9597b7a012844507066a09347cc8fa64f7b1a8aae1f2c07b47ebb87b70db35301be14edbc0",
                "transactions" : [
                    {
                        "data" : "0x000000000000000000000000a200000000000000000000000000000000000000",
                        "gasLimit" : "0x01ecf8",
                        "gasPrice" : "0x01",
                        "nonce" : "0x00",
                        "r" : "0xc5c9c5c6153a857353993416f43962d5c39e27f52ded07d233ab5ed7fe9597b7",
                        "s" : "0x12844507066a09347cc8fa64f7b1a8aae1f2c07b47ebb87b70db35301be14edb",
                        "to" : "0xac00000000000000000000000000000000000000",
                        "v" : "0x1b",
                        "value" : "0x00"
                    }
                ],
                "uncleHeaders" : [
                ]
            }
        ],
        "genesisBlockHeader" : {
            "bloom" : "0x00000000000000000000000000000000000000000000000000000000000000000000000000000000000000000000000000000000000000000000000000000000000000000000000000000000000000000000000000000000000000000000000000000000000000000000000000000000000000000000000000000000000000000000000000000000000000000000000000000000000000000000000000000000000000000000000000000000000000000000000000000000000000000000000000000000000000000000000000000000000000000000000000000000000000000000000000000000000000000000000000000000000000000000000000000000",
            "coinbase" : "0x2adc25665018aa1fe0e6bc666dac8fc2697ff9ba",
            "difficulty" : "0x020000",
            "extraData" : "0x42",
            "gasLimit" : "0x989680",
            "gasUsed" : "0x00",
            "hash" : "0x9c0c02b9a5a8b304b47336a09b24677ecde4273d5b90accfca80e0e7717310fd",
            "mixHash" : "0x56e81f171bcc55a6ff8345e692c0f86e5b48e01b996cadc001622fb5e363b421",
            "nonce" : "0x0102030405060708",
            "number" : "0x00",
            "parentHash" : "0x0000000000000000000000000000000000000000000000000000000000000000",
            "receiptTrie" : "0x56e81f171bcc55a6ff8345e692c0f86e5b48e01b996cadc001622fb5e363b421",
            "stateRoot" : "0x1b33c44accff3f1d7776a868d7edfeb36f680a4e079cb885fd2d1bb1aa621d5e",
            "timestamp" : "0x03b6",
            "transactionsTrie" : "0x56e81f171bcc55a6ff8345e692c0f86e5b48e01b996cadc001622fb5e363b421",
            "uncleHash" : "0x1dcc4de8dec75d7aab85b567b6ccd41ad312451b948a7413f0a142fd40d49347"
        },
        "genesisRLP" : "0xf901faf901f5a00000000000000000000000000000000000000000000000000000000000000000a01dcc4de8dec75d7aab85b567b6ccd41ad312451b948a7413f0a142fd40d49347942adc25665018aa1fe0e6bc666dac8fc2697ff9baa01b33c44accff3f1d7776a868d7edfeb36f680a4e079cb885fd2d1bb1aa621d5ea056e81f171bcc55a6ff8345e692c0f86e5b48e01b996cadc001622fb5e363b421a056e81f171bcc55a6ff8345e692c0f86e5b48e01b996cadc001622fb5e363b421b9010000000000000000000000000000000000000000000000000000000000000000000000000000000000000000000000000000000000000000000000000000000000000000000000000000000000000000000000000000000000000000000000000000000000000000000000000000000000000000000000000000000000000000000000000000000000000000000000000000000000000000000000000000000000000000000000000000000000000000000000000000000000000000000000000000000000000000000000000000000000000000000000000000000000000000000000000000000000000000000000000000000000000000000000000000000000830200008083989680808203b642a056e81f171bcc55a6ff8345e692c0f86e5b48e01b996cadc001622fb5e363b421880102030405060708c0c0",
        "lastblockhash" : "0x7a30137805827d25eb6e3b8826ebe561e4c749157a34e04b1ae16f4a883355ec",
        "network" : "Constantinople",
        "postState" : {
            "0x2adc25665018aa1fe0e6bc666dac8fc2697ff9ba" : {
                "balance" : "0x1bc16d674ec9e69b",
                "code" : "0x",
                "nonce" : "0x00",
                "storage" : {
                }
            },
            "0xa000000000000000000000000000000000000000" : {
                "balance" : "0x00",
                "code" : "0x6000600060006000600073b00000000000000000000000000000000000000061c350f1600a556000600060006000600073c00000000000000000000000000000000000000061c350f1600b556000600060006000600073d00000000000000000000000000000000000000061c350f1600c55600c600455600c600555",
                "nonce" : "0x00",
                "storage" : {
                }
            },
            "0xa100000000000000000000000000000000000000" : {
                "balance" : "0x00",
                "code" : "0x6000600060006000600073b00000000000000000000000000000000000000061c350f2600a556000600060006000600073c00000000000000000000000000000000000000061c350f2600b556000600060006000600073d00000000000000000000000000000000000000061c350f2600c55600c600455600c600555",
                "nonce" : "0x00",
                "storage" : {
                }
            },
            "0xa200000000000000000000000000000000000000" : {
                "balance" : "0x00",
                "code" : "0x600060006000600073b00000000000000000000000000000000000000061c350f4600a55600060006000600073c00000000000000000000000000000000000000061c350f4600b55600060006000600073d00000000000000000000000000000000000000061c350f4600c55600c600455600c600555",
                "nonce" : "0x00",
                "storage" : {
                }
            },
            "0xa300000000000000000000000000000000000000" : {
                "balance" : "0x00",
                "code" : "0x6000600060006000600073b00000000000000000000000000000000000000061c350f1600a55600060006000600073c00000000000000000000000000000000000000061c350f4600b556000600060006000600073d00000000000000000000000000000000000000061c350f2600c55600c600455600c600555",
                "nonce" : "0x00",
                "storage" : {
                }
            },
            "0xa94f5374fce5edbc8e2a8697c15331677e6ebf0b" : {
                "balance" : "0xe8d4a32965",
                "code" : "0x",
                "nonce" : "0x01",
                "storage" : {
                }
            },
            "0xac00000000000000000000000000000000000000" : {
                "balance" : "0x00",
                "code" : "0x6000600060006000346000356203f7a0f1",
                "nonce" : "0x00",
                "storage" : {
                }
            },
            "0xb000000000000000000000000000000000000000" : {
                "balance" : "0x00",
                "code" : "0x600c60015560016000fd",
                "nonce" : "0x00",
                "storage" : {
                }
            },
            "0xc000000000000000000000000000000000000000" : {
                "balance" : "0x00",
                "code" : "0x600c60025560016000fd",
                "nonce" : "0x00",
                "storage" : {
                }
            },
            "0xd000000000000000000000000000000000000000" : {
                "balance" : "0x00",
                "code" : "0x600c60035560016000fd",
                "nonce" : "0x00",
                "storage" : {
                }
            }
        },
        "pre" : {
            "0xa000000000000000000000000000000000000000" : {
                "balance" : "0x00",
                "code" : "0x6000600060006000600073b00000000000000000000000000000000000000061c350f1600a556000600060006000600073c00000000000000000000000000000000000000061c350f1600b556000600060006000600073d00000000000000000000000000000000000000061c350f1600c55600c600455600c600555",
                "nonce" : "0x00",
                "storage" : {
                }
            },
            "0xa100000000000000000000000000000000000000" : {
                "balance" : "0x00",
                "code" : "0x6000600060006000600073b00000000000000000000000000000000000000061c350f2600a556000600060006000600073c00000000000000000000000000000000000000061c350f2600b556000600060006000600073d00000000000000000000000000000000000000061c350f2600c55600c600455600c600555",
                "nonce" : "0x00",
                "storage" : {
                }
            },
            "0xa200000000000000000000000000000000000000" : {
                "balance" : "0x00",
                "code" : "0x600060006000600073b00000000000000000000000000000000000000061c350f4600a55600060006000600073c00000000000000000000000000000000000000061c350f4600b55600060006000600073d00000000000000000000000000000000000000061c350f4600c55600c600455600c600555",
                "nonce" : "0x00",
                "storage" : {
                }
            },
            "0xa300000000000000000000000000000000000000" : {
                "balance" : "0x00",
                "code" : "0x6000600060006000600073b00000000000000000000000000000000000000061c350f1600a55600060006000600073c00000000000000000000000000000000000000061c350f4600b556000600060006000600073d00000000000000000000000000000000000000061c350f2600c55600c600455600c600555",
                "nonce" : "0x00",
                "storage" : {
                }
            },
            "0xa94f5374fce5edbc8e2a8697c15331677e6ebf0b" : {
                "balance" : "0xe8d4a51000",
                "code" : "0x",
                "nonce" : "0x00",
                "storage" : {
                }
            },
            "0xac00000000000000000000000000000000000000" : {
                "balance" : "0x00",
                "code" : "0x6000600060006000346000356203f7a0f1",
                "nonce" : "0x00",
                "storage" : {
                }
            },
            "0xb000000000000000000000000000000000000000" : {
                "balance" : "0x00",
                "code" : "0x600c60015560016000fd",
                "nonce" : "0x00",
                "storage" : {
                }
            },
            "0xc000000000000000000000000000000000000000" : {
                "balance" : "0x00",
                "code" : "0x600c60025560016000fd",
                "nonce" : "0x00",
                "storage" : {
                }
            },
            "0xd000000000000000000000000000000000000000" : {
                "balance" : "0x00",
                "code" : "0x600c60035560016000fd",
                "nonce" : "0x00",
                "storage" : {
                }
            }
        },
        "sealEngine" : "NoProof"
    },
    "RevertOpcodeMultipleSubCalls_d2g1v0_ConstantinopleFix" : {
        "_info" : {
            "comment" : "",
            "filledwith" : "testeth 1.7.0-alpha.1-20+commit.782a7283",
            "lllcversion" : "Version: 0.5.0-develop.2018.11.9+commit.9709dfe0.Linux.g++",
            "source" : "src/BlockchainTestsFiller/GeneralStateTests/stRevertTest/RevertOpcodeMultipleSubCalls_d2g1v0Filler.json",
            "sourceHash" : "40e86163cc89a346d86642a037c902d9e30ed5d26bab3e435534cdfa52efe1e0"
        },
        "blocks" : [
            {
                "blockHeader" : {
                    "bloom" : "0x00000000000000000000000000000000000000000000000000000000000000000000000000000000000000000000000000000000000000000000000000000000000000000000000000000000000000000000000000000000000000000000000000000000000000000000000000000000000000000000000000000000000000000000000000000000000000000000000000000000000000000000000000000000000000000000000000000000000000000000000000000000000000000000000000000000000000000000000000000000000000000000000000000000000000000000000000000000000000000000000000000000000000000000000000000000",
                    "coinbase" : "0x2adc25665018aa1fe0e6bc666dac8fc2697ff9ba",
                    "difficulty" : "0x020000",
                    "extraData" : "0x",
                    "gasLimit" : "0x989680",
                    "gasUsed" : "0x01e69b",
                    "hash" : "0x7a30137805827d25eb6e3b8826ebe561e4c749157a34e04b1ae16f4a883355ec",
                    "mixHash" : "0x0000000000000000000000000000000000000000000000000000000000000000",
                    "nonce" : "0x0000000000000000",
                    "number" : "0x01",
                    "parentHash" : "0x9c0c02b9a5a8b304b47336a09b24677ecde4273d5b90accfca80e0e7717310fd",
                    "receiptTrie" : "0xa90875435faa5f3b201125f19aad4aafc9a6eba7dbadf6ac9e76a66a0c07cd97",
                    "stateRoot" : "0x0390de5a9c99a536c6c0dcca1f21a11368ee3c57e0e72575297bea16623a2781",
                    "timestamp" : "0x03e8",
                    "transactionsTrie" : "0x6b0629725ffc3bd3f2a7dbae8028c61153035f7bf7203dcead27e459624b79a3",
                    "uncleHash" : "0x1dcc4de8dec75d7aab85b567b6ccd41ad312451b948a7413f0a142fd40d49347"
                },
                "rlp" : "0xf90280f901f8a09c0c02b9a5a8b304b47336a09b24677ecde4273d5b90accfca80e0e7717310fda01dcc4de8dec75d7aab85b567b6ccd41ad312451b948a7413f0a142fd40d49347942adc25665018aa1fe0e6bc666dac8fc2697ff9baa00390de5a9c99a536c6c0dcca1f21a11368ee3c57e0e72575297bea16623a2781a06b0629725ffc3bd3f2a7dbae8028c61153035f7bf7203dcead27e459624b79a3a0a90875435faa5f3b201125f19aad4aafc9a6eba7dbadf6ac9e76a66a0c07cd97b90100000000000000000000000000000000000000000000000000000000000000000000000000000000000000000000000000000000000000000000000000000000000000000000000000000000000000000000000000000000000000000000000000000000000000000000000000000000000000000000000000000000000000000000000000000000000000000000000000000000000000000000000000000000000000000000000000000000000000000000000000000000000000000000000000000000000000000000000000000000000000000000000000000000000000000000000000000000000000000000000000000000000000000000000000000000008302000001839896808301e69b8203e880a00000000000000000000000000000000000000000000000000000000000000000880000000000000000f882f88080018301ecf894ac0000000000000000000000000000000000000080a0000000000000000000000000a2000000000000000000000000000000000000001ba0c5c9c5c6153a857353993416f43962d5c39e27f52ded07d233ab5ed7fe9597b7a012844507066a09347cc8fa64f7b1a8aae1f2c07b47ebb87b70db35301be14edbc0",
                "transactions" : [
                    {
                        "data" : "0x000000000000000000000000a200000000000000000000000000000000000000",
                        "gasLimit" : "0x01ecf8",
                        "gasPrice" : "0x01",
                        "nonce" : "0x00",
                        "r" : "0xc5c9c5c6153a857353993416f43962d5c39e27f52ded07d233ab5ed7fe9597b7",
                        "s" : "0x12844507066a09347cc8fa64f7b1a8aae1f2c07b47ebb87b70db35301be14edb",
                        "to" : "0xac00000000000000000000000000000000000000",
                        "v" : "0x1b",
                        "value" : "0x00"
                    }
                ],
                "uncleHeaders" : [
                ]
            }
        ],
        "genesisBlockHeader" : {
            "bloom" : "0x00000000000000000000000000000000000000000000000000000000000000000000000000000000000000000000000000000000000000000000000000000000000000000000000000000000000000000000000000000000000000000000000000000000000000000000000000000000000000000000000000000000000000000000000000000000000000000000000000000000000000000000000000000000000000000000000000000000000000000000000000000000000000000000000000000000000000000000000000000000000000000000000000000000000000000000000000000000000000000000000000000000000000000000000000000000",
            "coinbase" : "0x2adc25665018aa1fe0e6bc666dac8fc2697ff9ba",
            "difficulty" : "0x020000",
            "extraData" : "0x42",
            "gasLimit" : "0x989680",
            "gasUsed" : "0x00",
            "hash" : "0x9c0c02b9a5a8b304b47336a09b24677ecde4273d5b90accfca80e0e7717310fd",
            "mixHash" : "0x56e81f171bcc55a6ff8345e692c0f86e5b48e01b996cadc001622fb5e363b421",
            "nonce" : "0x0102030405060708",
            "number" : "0x00",
            "parentHash" : "0x0000000000000000000000000000000000000000000000000000000000000000",
            "receiptTrie" : "0x56e81f171bcc55a6ff8345e692c0f86e5b48e01b996cadc001622fb5e363b421",
            "stateRoot" : "0x1b33c44accff3f1d7776a868d7edfeb36f680a4e079cb885fd2d1bb1aa621d5e",
            "timestamp" : "0x03b6",
            "transactionsTrie" : "0x56e81f171bcc55a6ff8345e692c0f86e5b48e01b996cadc001622fb5e363b421",
            "uncleHash" : "0x1dcc4de8dec75d7aab85b567b6ccd41ad312451b948a7413f0a142fd40d49347"
        },
        "genesisRLP" : "0xf901faf901f5a00000000000000000000000000000000000000000000000000000000000000000a01dcc4de8dec75d7aab85b567b6ccd41ad312451b948a7413f0a142fd40d49347942adc25665018aa1fe0e6bc666dac8fc2697ff9baa01b33c44accff3f1d7776a868d7edfeb36f680a4e079cb885fd2d1bb1aa621d5ea056e81f171bcc55a6ff8345e692c0f86e5b48e01b996cadc001622fb5e363b421a056e81f171bcc55a6ff8345e692c0f86e5b48e01b996cadc001622fb5e363b421b9010000000000000000000000000000000000000000000000000000000000000000000000000000000000000000000000000000000000000000000000000000000000000000000000000000000000000000000000000000000000000000000000000000000000000000000000000000000000000000000000000000000000000000000000000000000000000000000000000000000000000000000000000000000000000000000000000000000000000000000000000000000000000000000000000000000000000000000000000000000000000000000000000000000000000000000000000000000000000000000000000000000000000000000000000000000000830200008083989680808203b642a056e81f171bcc55a6ff8345e692c0f86e5b48e01b996cadc001622fb5e363b421880102030405060708c0c0",
        "lastblockhash" : "0x7a30137805827d25eb6e3b8826ebe561e4c749157a34e04b1ae16f4a883355ec",
        "network" : "ConstantinopleFix",
        "postState" : {
            "0x2adc25665018aa1fe0e6bc666dac8fc2697ff9ba" : {
                "balance" : "0x1bc16d674ec9e69b",
                "code" : "0x",
                "nonce" : "0x00",
                "storage" : {
                }
            },
            "0xa000000000000000000000000000000000000000" : {
                "balance" : "0x00",
                "code" : "0x6000600060006000600073b00000000000000000000000000000000000000061c350f1600a556000600060006000600073c00000000000000000000000000000000000000061c350f1600b556000600060006000600073d00000000000000000000000000000000000000061c350f1600c55600c600455600c600555",
                "nonce" : "0x00",
                "storage" : {
                }
            },
            "0xa100000000000000000000000000000000000000" : {
                "balance" : "0x00",
                "code" : "0x6000600060006000600073b00000000000000000000000000000000000000061c350f2600a556000600060006000600073c00000000000000000000000000000000000000061c350f2600b556000600060006000600073d00000000000000000000000000000000000000061c350f2600c55600c600455600c600555",
                "nonce" : "0x00",
                "storage" : {
                }
            },
            "0xa200000000000000000000000000000000000000" : {
                "balance" : "0x00",
                "code" : "0x600060006000600073b00000000000000000000000000000000000000061c350f4600a55600060006000600073c00000000000000000000000000000000000000061c350f4600b55600060006000600073d00000000000000000000000000000000000000061c350f4600c55600c600455600c600555",
                "nonce" : "0x00",
                "storage" : {
                }
            },
            "0xa300000000000000000000000000000000000000" : {
                "balance" : "0x00",
                "code" : "0x6000600060006000600073b00000000000000000000000000000000000000061c350f1600a55600060006000600073c00000000000000000000000000000000000000061c350f4600b556000600060006000600073d00000000000000000000000000000000000000061c350f2600c55600c600455600c600555",
                "nonce" : "0x00",
                "storage" : {
                }
            },
            "0xa94f5374fce5edbc8e2a8697c15331677e6ebf0b" : {
                "balance" : "0xe8d4a32965",
                "code" : "0x",
                "nonce" : "0x01",
                "storage" : {
                }
            },
            "0xac00000000000000000000000000000000000000" : {
                "balance" : "0x00",
                "code" : "0x6000600060006000346000356203f7a0f1",
                "nonce" : "0x00",
                "storage" : {
                }
            },
            "0xb000000000000000000000000000000000000000" : {
                "balance" : "0x00",
                "code" : "0x600c60015560016000fd",
                "nonce" : "0x00",
                "storage" : {
                }
            },
            "0xc000000000000000000000000000000000000000" : {
                "balance" : "0x00",
                "code" : "0x600c60025560016000fd",
                "nonce" : "0x00",
                "storage" : {
                }
            },
            "0xd000000000000000000000000000000000000000" : {
                "balance" : "0x00",
                "code" : "0x600c60035560016000fd",
                "nonce" : "0x00",
                "storage" : {
                }
            }
        },
        "pre" : {
            "0xa000000000000000000000000000000000000000" : {
                "balance" : "0x00",
                "code" : "0x6000600060006000600073b00000000000000000000000000000000000000061c350f1600a556000600060006000600073c00000000000000000000000000000000000000061c350f1600b556000600060006000600073d00000000000000000000000000000000000000061c350f1600c55600c600455600c600555",
                "nonce" : "0x00",
                "storage" : {
                }
            },
            "0xa100000000000000000000000000000000000000" : {
                "balance" : "0x00",
                "code" : "0x6000600060006000600073b00000000000000000000000000000000000000061c350f2600a556000600060006000600073c00000000000000000000000000000000000000061c350f2600b556000600060006000600073d00000000000000000000000000000000000000061c350f2600c55600c600455600c600555",
                "nonce" : "0x00",
                "storage" : {
                }
            },
            "0xa200000000000000000000000000000000000000" : {
                "balance" : "0x00",
                "code" : "0x600060006000600073b00000000000000000000000000000000000000061c350f4600a55600060006000600073c00000000000000000000000000000000000000061c350f4600b55600060006000600073d00000000000000000000000000000000000000061c350f4600c55600c600455600c600555",
                "nonce" : "0x00",
                "storage" : {
                }
            },
            "0xa300000000000000000000000000000000000000" : {
                "balance" : "0x00",
                "code" : "0x6000600060006000600073b00000000000000000000000000000000000000061c350f1600a55600060006000600073c00000000000000000000000000000000000000061c350f4600b556000600060006000600073d00000000000000000000000000000000000000061c350f2600c55600c600455600c600555",
                "nonce" : "0x00",
                "storage" : {
                }
            },
            "0xa94f5374fce5edbc8e2a8697c15331677e6ebf0b" : {
                "balance" : "0xe8d4a51000",
                "code" : "0x",
                "nonce" : "0x00",
                "storage" : {
                }
            },
            "0xac00000000000000000000000000000000000000" : {
                "balance" : "0x00",
                "code" : "0x6000600060006000346000356203f7a0f1",
                "nonce" : "0x00",
                "storage" : {
                }
            },
            "0xb000000000000000000000000000000000000000" : {
                "balance" : "0x00",
                "code" : "0x600c60015560016000fd",
                "nonce" : "0x00",
                "storage" : {
                }
            },
            "0xc000000000000000000000000000000000000000" : {
                "balance" : "0x00",
                "code" : "0x600c60025560016000fd",
                "nonce" : "0x00",
                "storage" : {
                }
            },
            "0xd000000000000000000000000000000000000000" : {
                "balance" : "0x00",
                "code" : "0x600c60035560016000fd",
                "nonce" : "0x00",
                "storage" : {
                }
            }
        },
        "sealEngine" : "NoProof"
    }
}