{
    "RevertOpcodeReturn_d4g1v0_EIP150" : {
        "_info" : {
            "comment" : "",
            "filledwith" : "testeth 1.7.0-alpha.1-20+commit.782a7283",
            "lllcversion" : "Version: 0.5.0-develop.2018.11.9+commit.9709dfe0.Linux.g++",
            "source" : "src/BlockchainTestsFiller/GeneralStateTests/stRevertTest/RevertOpcodeReturn_d4g1v0Filler.json",
            "sourceHash" : "b9f74293d550fa82338789a75d2794d9e47ff4560d42a95638b439a0259adfdf"
        },
        "blocks" : [
            {
                "blockHeader" : {
                    "bloom" : "0x00000000000000000000000000000000000000000000000000000000000000000000000000000000000000000000000000000000000000000000000000000000000000000000000000000000000000000000000000000000000000000000000000000000000000000000000000000000000000000000000000000000000000000000000000000000000000000000000000000000000000000000000000000000000000000000000000000000000000000000000000000000000000000000000000000000000000000000000000000000000000000000000000000000000000000000000000000000000000000000000000000000000000000000000000000000",
                    "coinbase" : "0x2adc25665018aa1fe0e6bc666dac8fc2697ff9ba",
                    "difficulty" : "0x020000",
                    "extraData" : "0x",
                    "gasLimit" : "0x989680",
                    "gasUsed" : "0x011170",
                    "hash" : "0xd1fed9f70161a535db5aa54c282c7c86c3d1c7c9abf4f210d6a232fc99a914cb",
                    "mixHash" : "0x0000000000000000000000000000000000000000000000000000000000000000",
                    "nonce" : "0x0000000000000000",
                    "number" : "0x01",
                    "parentHash" : "0xcfd57f71685c8344273e97531caa73fa1d11eab09c95bde948cdb71250e3047a",
                    "receiptTrie" : "0x0de8e06764d628eb9df25b92ecf5fc14b1c9b5633503d4bf771bbb6aee665e1f",
                    "stateRoot" : "0xfcf50580c069eee894106ee4c7ec0ae65ffc937deffa61d2fb5d55c69e7a660f",
                    "timestamp" : "0x03e8",
                    "transactionsTrie" : "0x6587e82edd4cc11ba3b5a5e8da27455ddb4d8815f9acdb4f8c542b9ed22898ac",
                    "uncleHash" : "0x1dcc4de8dec75d7aab85b567b6ccd41ad312451b948a7413f0a142fd40d49347"
                },
                "rlp" : "0xf90280f901f8a0cfd57f71685c8344273e97531caa73fa1d11eab09c95bde948cdb71250e3047aa01dcc4de8dec75d7aab85b567b6ccd41ad312451b948a7413f0a142fd40d49347942adc25665018aa1fe0e6bc666dac8fc2697ff9baa0fcf50580c069eee894106ee4c7ec0ae65ffc937deffa61d2fb5d55c69e7a660fa06587e82edd4cc11ba3b5a5e8da27455ddb4d8815f9acdb4f8c542b9ed22898aca00de8e06764d628eb9df25b92ecf5fc14b1c9b5633503d4bf771bbb6aee665e1fb9010000000000000000000000000000000000000000000000000000000000000000000000000000000000000000000000000000000000000000000000000000000000000000000000000000000000000000000000000000000000000000000000000000000000000000000000000000000000000000000000000000000000000000000000000000000000000000000000000000000000000000000000000000000000000000000000000000000000000000000000000000000000000000000000000000000000000000000000000000000000000000000000000000000000000000000000000000000000000000000000000000000000000000000000000000000000830200000183989680830111708203e880a00000000000000000000000000000000000000000000000000000000000000000880000000000000000f882f88080018301117094a00000000000000000000000000000000000000080a0000000000000000000000000a5000000000000000000000000000000000000001ca0833caa769cf3a5f06ae4d7ddf0e50ee38058540671b61998f6be9d116184dc03a0505ec10b0c2c7c61b6ea2e1b20e921b142d4255cca0cd2c3a71f5bb7adf9a0dac0",
                "transactions" : [
                    {
                        "data" : "0x000000000000000000000000a500000000000000000000000000000000000000",
                        "gasLimit" : "0x011170",
                        "gasPrice" : "0x01",
                        "nonce" : "0x00",
                        "r" : "0x833caa769cf3a5f06ae4d7ddf0e50ee38058540671b61998f6be9d116184dc03",
                        "s" : "0x505ec10b0c2c7c61b6ea2e1b20e921b142d4255cca0cd2c3a71f5bb7adf9a0da",
                        "to" : "0xa000000000000000000000000000000000000000",
                        "v" : "0x1c",
                        "value" : "0x00"
                    }
                ],
                "uncleHeaders" : [
                ]
            }
        ],
        "genesisBlockHeader" : {
            "bloom" : "0x00000000000000000000000000000000000000000000000000000000000000000000000000000000000000000000000000000000000000000000000000000000000000000000000000000000000000000000000000000000000000000000000000000000000000000000000000000000000000000000000000000000000000000000000000000000000000000000000000000000000000000000000000000000000000000000000000000000000000000000000000000000000000000000000000000000000000000000000000000000000000000000000000000000000000000000000000000000000000000000000000000000000000000000000000000000",
            "coinbase" : "0x2adc25665018aa1fe0e6bc666dac8fc2697ff9ba",
            "difficulty" : "0x020000",
            "extraData" : "0x42",
            "gasLimit" : "0x989680",
            "gasUsed" : "0x00",
            "hash" : "0xcfd57f71685c8344273e97531caa73fa1d11eab09c95bde948cdb71250e3047a",
            "mixHash" : "0x56e81f171bcc55a6ff8345e692c0f86e5b48e01b996cadc001622fb5e363b421",
            "nonce" : "0x0102030405060708",
            "number" : "0x00",
            "parentHash" : "0x0000000000000000000000000000000000000000000000000000000000000000",
            "receiptTrie" : "0x56e81f171bcc55a6ff8345e692c0f86e5b48e01b996cadc001622fb5e363b421",
            "stateRoot" : "0x0fef322a71142192bd16de1044b5416da09ef0bbb74325d8a454373a10eeefd6",
            "timestamp" : "0x03b6",
            "transactionsTrie" : "0x56e81f171bcc55a6ff8345e692c0f86e5b48e01b996cadc001622fb5e363b421",
            "uncleHash" : "0x1dcc4de8dec75d7aab85b567b6ccd41ad312451b948a7413f0a142fd40d49347"
        },
        "genesisRLP" : "0xf901faf901f5a00000000000000000000000000000000000000000000000000000000000000000a01dcc4de8dec75d7aab85b567b6ccd41ad312451b948a7413f0a142fd40d49347942adc25665018aa1fe0e6bc666dac8fc2697ff9baa00fef322a71142192bd16de1044b5416da09ef0bbb74325d8a454373a10eeefd6a056e81f171bcc55a6ff8345e692c0f86e5b48e01b996cadc001622fb5e363b421a056e81f171bcc55a6ff8345e692c0f86e5b48e01b996cadc001622fb5e363b421b9010000000000000000000000000000000000000000000000000000000000000000000000000000000000000000000000000000000000000000000000000000000000000000000000000000000000000000000000000000000000000000000000000000000000000000000000000000000000000000000000000000000000000000000000000000000000000000000000000000000000000000000000000000000000000000000000000000000000000000000000000000000000000000000000000000000000000000000000000000000000000000000000000000000000000000000000000000000000000000000000000000000000000000000000000000000000830200008083989680808203b642a056e81f171bcc55a6ff8345e692c0f86e5b48e01b996cadc001622fb5e363b421880102030405060708c0c0",
        "lastblockhash" : "0xd1fed9f70161a535db5aa54c282c7c86c3d1c7c9abf4f210d6a232fc99a914cb",
        "network" : "EIP150",
        "postState" : {
            "0x2adc25665018aa1fe0e6bc666dac8fc2697ff9ba" : {
                "balance" : "0x4563918244f51170",
                "code" : "0x",
                "nonce" : "0x00",
                "storage" : {
                }
            },
            "0xa000000000000000000000000000000000000000" : {
                "balance" : "0x00",
                "code" : "0x60206000600060006000600035620249f0f1600155600051600255",
                "nonce" : "0x00",
                "storage" : {
                }
            },
            "0xa100000000000000000000000000000000000000" : {
                "balance" : "0x00",
                "code" : "0x6c726576657274656420646174616000556d726576657274206d65737361676560005260206000fd",
                "nonce" : "0x00",
                "storage" : {
                }
            },
            "0xa200000000000000000000000000000000000000" : {
                "balance" : "0x00",
                "code" : "0x6c726576657274656420646174616000556d726576657274206d65737361676560005260006000fd",
                "nonce" : "0x00",
                "storage" : {
                }
            },
            "0xa300000000000000000000000000000000000000" : {
                "balance" : "0x00",
                "code" : "0x6c726576657274656420646174616000556d726576657274206d6573736167656000526e0fffffffffffffffffffffffffffff6000fd",
                "nonce" : "0x00",
                "storage" : {
                }
            },
            "0xa400000000000000000000000000000000000000" : {
                "balance" : "0x00",
                "code" : "0x6c726576657274656420646174616000556d726576657274206d6573736167656000526000610100fd",
                "nonce" : "0x00",
                "storage" : {
                }
            },
            "0xa500000000000000000000000000000000000000" : {
                "balance" : "0x00",
                "code" : "0x6c726576657274656420646174616000556d726576657274206d65737361676560005260006001fd",
                "nonce" : "0x00",
                "storage" : {
                }
            },
            "0xa600000000000000000000000000000000000000" : {
                "balance" : "0x00",
                "code" : "0x6c726576657274656420646174616000556d726576657274206d65737361676560005260006e0ffffffffffffffffffffffffffffffd",
                "nonce" : "0x00",
                "storage" : {
                }
            },
            "0xa94f5374fce5edbc8e2a8697c15331677e6ebf0b" : {
                "balance" : "0xe8d4a3fe90",
                "code" : "0x",
                "nonce" : "0x01",
                "storage" : {
                }
            }
        },
        "pre" : {
            "0xa000000000000000000000000000000000000000" : {
                "balance" : "0x00",
                "code" : "0x60206000600060006000600035620249f0f1600155600051600255",
                "nonce" : "0x00",
                "storage" : {
                }
            },
            "0xa100000000000000000000000000000000000000" : {
                "balance" : "0x00",
                "code" : "0x6c726576657274656420646174616000556d726576657274206d65737361676560005260206000fd",
                "nonce" : "0x00",
                "storage" : {
                }
            },
            "0xa200000000000000000000000000000000000000" : {
                "balance" : "0x00",
                "code" : "0x6c726576657274656420646174616000556d726576657274206d65737361676560005260006000fd",
                "nonce" : "0x00",
                "storage" : {
                }
            },
            "0xa300000000000000000000000000000000000000" : {
                "balance" : "0x00",
                "code" : "0x6c726576657274656420646174616000556d726576657274206d6573736167656000526e0fffffffffffffffffffffffffffff6000fd",
                "nonce" : "0x00",
                "storage" : {
                }
            },
            "0xa400000000000000000000000000000000000000" : {
                "balance" : "0x00",
                "code" : "0x6c726576657274656420646174616000556d726576657274206d6573736167656000526000610100fd",
                "nonce" : "0x00",
                "storage" : {
                }
            },
            "0xa500000000000000000000000000000000000000" : {
                "balance" : "0x00",
                "code" : "0x6c726576657274656420646174616000556d726576657274206d65737361676560005260006001fd",
                "nonce" : "0x00",
                "storage" : {
                }
            },
            "0xa600000000000000000000000000000000000000" : {
                "balance" : "0x00",
                "code" : "0x6c726576657274656420646174616000556d726576657274206d65737361676560005260006e0ffffffffffffffffffffffffffffffd",
                "nonce" : "0x00",
                "storage" : {
                }
            },
            "0xa94f5374fce5edbc8e2a8697c15331677e6ebf0b" : {
                "balance" : "0xe8d4a51000",
                "code" : "0x",
                "nonce" : "0x00",
                "storage" : {
                }
            }
        },
        "sealEngine" : "NoProof"
    },
    "RevertOpcodeReturn_d4g1v0_EIP158" : {
        "_info" : {
            "comment" : "",
            "filledwith" : "testeth 1.7.0-alpha.1-20+commit.782a7283",
            "lllcversion" : "Version: 0.5.0-develop.2018.11.9+commit.9709dfe0.Linux.g++",
            "source" : "src/BlockchainTestsFiller/GeneralStateTests/stRevertTest/RevertOpcodeReturn_d4g1v0Filler.json",
            "sourceHash" : "b9f74293d550fa82338789a75d2794d9e47ff4560d42a95638b439a0259adfdf"
        },
        "blocks" : [
            {
                "blockHeader" : {
                    "bloom" : "0x00000000000000000000000000000000000000000000000000000000000000000000000000000000000000000000000000000000000000000000000000000000000000000000000000000000000000000000000000000000000000000000000000000000000000000000000000000000000000000000000000000000000000000000000000000000000000000000000000000000000000000000000000000000000000000000000000000000000000000000000000000000000000000000000000000000000000000000000000000000000000000000000000000000000000000000000000000000000000000000000000000000000000000000000000000000",
                    "coinbase" : "0x2adc25665018aa1fe0e6bc666dac8fc2697ff9ba",
                    "difficulty" : "0x020000",
                    "extraData" : "0x",
                    "gasLimit" : "0x989680",
                    "gasUsed" : "0x011170",
                    "hash" : "0xd1fed9f70161a535db5aa54c282c7c86c3d1c7c9abf4f210d6a232fc99a914cb",
                    "mixHash" : "0x0000000000000000000000000000000000000000000000000000000000000000",
                    "nonce" : "0x0000000000000000",
                    "number" : "0x01",
                    "parentHash" : "0xcfd57f71685c8344273e97531caa73fa1d11eab09c95bde948cdb71250e3047a",
                    "receiptTrie" : "0x0de8e06764d628eb9df25b92ecf5fc14b1c9b5633503d4bf771bbb6aee665e1f",
                    "stateRoot" : "0xfcf50580c069eee894106ee4c7ec0ae65ffc937deffa61d2fb5d55c69e7a660f",
                    "timestamp" : "0x03e8",
                    "transactionsTrie" : "0x6587e82edd4cc11ba3b5a5e8da27455ddb4d8815f9acdb4f8c542b9ed22898ac",
                    "uncleHash" : "0x1dcc4de8dec75d7aab85b567b6ccd41ad312451b948a7413f0a142fd40d49347"
                },
                "rlp" : "0xf90280f901f8a0cfd57f71685c8344273e97531caa73fa1d11eab09c95bde948cdb71250e3047aa01dcc4de8dec75d7aab85b567b6ccd41ad312451b948a7413f0a142fd40d49347942adc25665018aa1fe0e6bc666dac8fc2697ff9baa0fcf50580c069eee894106ee4c7ec0ae65ffc937deffa61d2fb5d55c69e7a660fa06587e82edd4cc11ba3b5a5e8da27455ddb4d8815f9acdb4f8c542b9ed22898aca00de8e06764d628eb9df25b92ecf5fc14b1c9b5633503d4bf771bbb6aee665e1fb9010000000000000000000000000000000000000000000000000000000000000000000000000000000000000000000000000000000000000000000000000000000000000000000000000000000000000000000000000000000000000000000000000000000000000000000000000000000000000000000000000000000000000000000000000000000000000000000000000000000000000000000000000000000000000000000000000000000000000000000000000000000000000000000000000000000000000000000000000000000000000000000000000000000000000000000000000000000000000000000000000000000000000000000000000000000000830200000183989680830111708203e880a00000000000000000000000000000000000000000000000000000000000000000880000000000000000f882f88080018301117094a00000000000000000000000000000000000000080a0000000000000000000000000a5000000000000000000000000000000000000001ca0833caa769cf3a5f06ae4d7ddf0e50ee38058540671b61998f6be9d116184dc03a0505ec10b0c2c7c61b6ea2e1b20e921b142d4255cca0cd2c3a71f5bb7adf9a0dac0",
                "transactions" : [
                    {
                        "data" : "0x000000000000000000000000a500000000000000000000000000000000000000",
                        "gasLimit" : "0x011170",
                        "gasPrice" : "0x01",
                        "nonce" : "0x00",
                        "r" : "0x833caa769cf3a5f06ae4d7ddf0e50ee38058540671b61998f6be9d116184dc03",
                        "s" : "0x505ec10b0c2c7c61b6ea2e1b20e921b142d4255cca0cd2c3a71f5bb7adf9a0da",
                        "to" : "0xa000000000000000000000000000000000000000",
                        "v" : "0x1c",
                        "value" : "0x00"
                    }
                ],
                "uncleHeaders" : [
                ]
            }
        ],
        "genesisBlockHeader" : {
            "bloom" : "0x00000000000000000000000000000000000000000000000000000000000000000000000000000000000000000000000000000000000000000000000000000000000000000000000000000000000000000000000000000000000000000000000000000000000000000000000000000000000000000000000000000000000000000000000000000000000000000000000000000000000000000000000000000000000000000000000000000000000000000000000000000000000000000000000000000000000000000000000000000000000000000000000000000000000000000000000000000000000000000000000000000000000000000000000000000000",
            "coinbase" : "0x2adc25665018aa1fe0e6bc666dac8fc2697ff9ba",
            "difficulty" : "0x020000",
            "extraData" : "0x42",
            "gasLimit" : "0x989680",
            "gasUsed" : "0x00",
            "hash" : "0xcfd57f71685c8344273e97531caa73fa1d11eab09c95bde948cdb71250e3047a",
            "mixHash" : "0x56e81f171bcc55a6ff8345e692c0f86e5b48e01b996cadc001622fb5e363b421",
            "nonce" : "0x0102030405060708",
            "number" : "0x00",
            "parentHash" : "0x0000000000000000000000000000000000000000000000000000000000000000",
            "receiptTrie" : "0x56e81f171bcc55a6ff8345e692c0f86e5b48e01b996cadc001622fb5e363b421",
            "stateRoot" : "0x0fef322a71142192bd16de1044b5416da09ef0bbb74325d8a454373a10eeefd6",
            "timestamp" : "0x03b6",
            "transactionsTrie" : "0x56e81f171bcc55a6ff8345e692c0f86e5b48e01b996cadc001622fb5e363b421",
            "uncleHash" : "0x1dcc4de8dec75d7aab85b567b6ccd41ad312451b948a7413f0a142fd40d49347"
        },
        "genesisRLP" : "0xf901faf901f5a00000000000000000000000000000000000000000000000000000000000000000a01dcc4de8dec75d7aab85b567b6ccd41ad312451b948a7413f0a142fd40d49347942adc25665018aa1fe0e6bc666dac8fc2697ff9baa00fef322a71142192bd16de1044b5416da09ef0bbb74325d8a454373a10eeefd6a056e81f171bcc55a6ff8345e692c0f86e5b48e01b996cadc001622fb5e363b421a056e81f171bcc55a6ff8345e692c0f86e5b48e01b996cadc001622fb5e363b421b9010000000000000000000000000000000000000000000000000000000000000000000000000000000000000000000000000000000000000000000000000000000000000000000000000000000000000000000000000000000000000000000000000000000000000000000000000000000000000000000000000000000000000000000000000000000000000000000000000000000000000000000000000000000000000000000000000000000000000000000000000000000000000000000000000000000000000000000000000000000000000000000000000000000000000000000000000000000000000000000000000000000000000000000000000000000000830200008083989680808203b642a056e81f171bcc55a6ff8345e692c0f86e5b48e01b996cadc001622fb5e363b421880102030405060708c0c0",
        "lastblockhash" : "0xd1fed9f70161a535db5aa54c282c7c86c3d1c7c9abf4f210d6a232fc99a914cb",
        "network" : "EIP158",
        "postState" : {
            "0x2adc25665018aa1fe0e6bc666dac8fc2697ff9ba" : {
                "balance" : "0x4563918244f51170",
                "code" : "0x",
                "nonce" : "0x00",
                "storage" : {
                }
            },
            "0xa000000000000000000000000000000000000000" : {
                "balance" : "0x00",
                "code" : "0x60206000600060006000600035620249f0f1600155600051600255",
                "nonce" : "0x00",
                "storage" : {
                }
            },
            "0xa100000000000000000000000000000000000000" : {
                "balance" : "0x00",
                "code" : "0x6c726576657274656420646174616000556d726576657274206d65737361676560005260206000fd",
                "nonce" : "0x00",
                "storage" : {
                }
            },
            "0xa200000000000000000000000000000000000000" : {
                "balance" : "0x00",
                "code" : "0x6c726576657274656420646174616000556d726576657274206d65737361676560005260006000fd",
                "nonce" : "0x00",
                "storage" : {
                }
            },
            "0xa300000000000000000000000000000000000000" : {
                "balance" : "0x00",
                "code" : "0x6c726576657274656420646174616000556d726576657274206d6573736167656000526e0fffffffffffffffffffffffffffff6000fd",
                "nonce" : "0x00",
                "storage" : {
                }
            },
            "0xa400000000000000000000000000000000000000" : {
                "balance" : "0x00",
                "code" : "0x6c726576657274656420646174616000556d726576657274206d6573736167656000526000610100fd",
                "nonce" : "0x00",
                "storage" : {
                }
            },
            "0xa500000000000000000000000000000000000000" : {
                "balance" : "0x00",
                "code" : "0x6c726576657274656420646174616000556d726576657274206d65737361676560005260006001fd",
                "nonce" : "0x00",
                "storage" : {
                }
            },
            "0xa600000000000000000000000000000000000000" : {
                "balance" : "0x00",
                "code" : "0x6c726576657274656420646174616000556d726576657274206d65737361676560005260006e0ffffffffffffffffffffffffffffffd",
                "nonce" : "0x00",
                "storage" : {
                }
            },
            "0xa94f5374fce5edbc8e2a8697c15331677e6ebf0b" : {
                "balance" : "0xe8d4a3fe90",
                "code" : "0x",
                "nonce" : "0x01",
                "storage" : {
                }
            }
        },
        "pre" : {
            "0xa000000000000000000000000000000000000000" : {
                "balance" : "0x00",
                "code" : "0x60206000600060006000600035620249f0f1600155600051600255",
                "nonce" : "0x00",
                "storage" : {
                }
            },
            "0xa100000000000000000000000000000000000000" : {
                "balance" : "0x00",
                "code" : "0x6c726576657274656420646174616000556d726576657274206d65737361676560005260206000fd",
                "nonce" : "0x00",
                "storage" : {
                }
            },
            "0xa200000000000000000000000000000000000000" : {
                "balance" : "0x00",
                "code" : "0x6c726576657274656420646174616000556d726576657274206d65737361676560005260006000fd",
                "nonce" : "0x00",
                "storage" : {
                }
            },
            "0xa300000000000000000000000000000000000000" : {
                "balance" : "0x00",
                "code" : "0x6c726576657274656420646174616000556d726576657274206d6573736167656000526e0fffffffffffffffffffffffffffff6000fd",
                "nonce" : "0x00",
                "storage" : {
                }
            },
            "0xa400000000000000000000000000000000000000" : {
                "balance" : "0x00",
                "code" : "0x6c726576657274656420646174616000556d726576657274206d6573736167656000526000610100fd",
                "nonce" : "0x00",
                "storage" : {
                }
            },
            "0xa500000000000000000000000000000000000000" : {
                "balance" : "0x00",
                "code" : "0x6c726576657274656420646174616000556d726576657274206d65737361676560005260006001fd",
                "nonce" : "0x00",
                "storage" : {
                }
            },
            "0xa600000000000000000000000000000000000000" : {
                "balance" : "0x00",
                "code" : "0x6c726576657274656420646174616000556d726576657274206d65737361676560005260006e0ffffffffffffffffffffffffffffffd",
                "nonce" : "0x00",
                "storage" : {
                }
            },
            "0xa94f5374fce5edbc8e2a8697c15331677e6ebf0b" : {
                "balance" : "0xe8d4a51000",
                "code" : "0x",
                "nonce" : "0x00",
                "storage" : {
                }
            }
        },
        "sealEngine" : "NoProof"
    },
    "RevertOpcodeReturn_d4g1v0_Frontier" : {
        "_info" : {
            "comment" : "",
            "filledwith" : "testeth 1.7.0-alpha.1-20+commit.782a7283",
            "lllcversion" : "Version: 0.5.0-develop.2018.11.9+commit.9709dfe0.Linux.g++",
            "source" : "src/BlockchainTestsFiller/GeneralStateTests/stRevertTest/RevertOpcodeReturn_d4g1v0Filler.json",
            "sourceHash" : "b9f74293d550fa82338789a75d2794d9e47ff4560d42a95638b439a0259adfdf"
        },
        "blocks" : [
            {
                "blockHeader" : {
                    "bloom" : "0x00000000000000000000000000000000000000000000000000000000000000000000000000000000000000000000000000000000000000000000000000000000000000000000000000000000000000000000000000000000000000000000000000000000000000000000000000000000000000000000000000000000000000000000000000000000000000000000000000000000000000000000000000000000000000000000000000000000000000000000000000000000000000000000000000000000000000000000000000000000000000000000000000000000000000000000000000000000000000000000000000000000000000000000000000000000",
                    "coinbase" : "0x2adc25665018aa1fe0e6bc666dac8fc2697ff9ba",
                    "difficulty" : "0x020000",
                    "extraData" : "0x",
                    "gasLimit" : "0x989680",
                    "gasUsed" : "0x011170",
                    "hash" : "0xd1fed9f70161a535db5aa54c282c7c86c3d1c7c9abf4f210d6a232fc99a914cb",
                    "mixHash" : "0x0000000000000000000000000000000000000000000000000000000000000000",
                    "nonce" : "0x0000000000000000",
                    "number" : "0x01",
                    "parentHash" : "0xcfd57f71685c8344273e97531caa73fa1d11eab09c95bde948cdb71250e3047a",
                    "receiptTrie" : "0x0de8e06764d628eb9df25b92ecf5fc14b1c9b5633503d4bf771bbb6aee665e1f",
                    "stateRoot" : "0xfcf50580c069eee894106ee4c7ec0ae65ffc937deffa61d2fb5d55c69e7a660f",
                    "timestamp" : "0x03e8",
                    "transactionsTrie" : "0x6587e82edd4cc11ba3b5a5e8da27455ddb4d8815f9acdb4f8c542b9ed22898ac",
                    "uncleHash" : "0x1dcc4de8dec75d7aab85b567b6ccd41ad312451b948a7413f0a142fd40d49347"
                },
                "rlp" : "0xf90280f901f8a0cfd57f71685c8344273e97531caa73fa1d11eab09c95bde948cdb71250e3047aa01dcc4de8dec75d7aab85b567b6ccd41ad312451b948a7413f0a142fd40d49347942adc25665018aa1fe0e6bc666dac8fc2697ff9baa0fcf50580c069eee894106ee4c7ec0ae65ffc937deffa61d2fb5d55c69e7a660fa06587e82edd4cc11ba3b5a5e8da27455ddb4d8815f9acdb4f8c542b9ed22898aca00de8e06764d628eb9df25b92ecf5fc14b1c9b5633503d4bf771bbb6aee665e1fb9010000000000000000000000000000000000000000000000000000000000000000000000000000000000000000000000000000000000000000000000000000000000000000000000000000000000000000000000000000000000000000000000000000000000000000000000000000000000000000000000000000000000000000000000000000000000000000000000000000000000000000000000000000000000000000000000000000000000000000000000000000000000000000000000000000000000000000000000000000000000000000000000000000000000000000000000000000000000000000000000000000000000000000000000000000000000830200000183989680830111708203e880a00000000000000000000000000000000000000000000000000000000000000000880000000000000000f882f88080018301117094a00000000000000000000000000000000000000080a0000000000000000000000000a5000000000000000000000000000000000000001ca0833caa769cf3a5f06ae4d7ddf0e50ee38058540671b61998f6be9d116184dc03a0505ec10b0c2c7c61b6ea2e1b20e921b142d4255cca0cd2c3a71f5bb7adf9a0dac0",
                "transactions" : [
                    {
                        "data" : "0x000000000000000000000000a500000000000000000000000000000000000000",
                        "gasLimit" : "0x011170",
                        "gasPrice" : "0x01",
                        "nonce" : "0x00",
                        "r" : "0x833caa769cf3a5f06ae4d7ddf0e50ee38058540671b61998f6be9d116184dc03",
                        "s" : "0x505ec10b0c2c7c61b6ea2e1b20e921b142d4255cca0cd2c3a71f5bb7adf9a0da",
                        "to" : "0xa000000000000000000000000000000000000000",
                        "v" : "0x1c",
                        "value" : "0x00"
                    }
                ],
                "uncleHeaders" : [
                ]
            }
        ],
        "genesisBlockHeader" : {
            "bloom" : "0x00000000000000000000000000000000000000000000000000000000000000000000000000000000000000000000000000000000000000000000000000000000000000000000000000000000000000000000000000000000000000000000000000000000000000000000000000000000000000000000000000000000000000000000000000000000000000000000000000000000000000000000000000000000000000000000000000000000000000000000000000000000000000000000000000000000000000000000000000000000000000000000000000000000000000000000000000000000000000000000000000000000000000000000000000000000",
            "coinbase" : "0x2adc25665018aa1fe0e6bc666dac8fc2697ff9ba",
            "difficulty" : "0x020000",
            "extraData" : "0x42",
            "gasLimit" : "0x989680",
            "gasUsed" : "0x00",
            "hash" : "0xcfd57f71685c8344273e97531caa73fa1d11eab09c95bde948cdb71250e3047a",
            "mixHash" : "0x56e81f171bcc55a6ff8345e692c0f86e5b48e01b996cadc001622fb5e363b421",
            "nonce" : "0x0102030405060708",
            "number" : "0x00",
            "parentHash" : "0x0000000000000000000000000000000000000000000000000000000000000000",
            "receiptTrie" : "0x56e81f171bcc55a6ff8345e692c0f86e5b48e01b996cadc001622fb5e363b421",
            "stateRoot" : "0x0fef322a71142192bd16de1044b5416da09ef0bbb74325d8a454373a10eeefd6",
            "timestamp" : "0x03b6",
            "transactionsTrie" : "0x56e81f171bcc55a6ff8345e692c0f86e5b48e01b996cadc001622fb5e363b421",
            "uncleHash" : "0x1dcc4de8dec75d7aab85b567b6ccd41ad312451b948a7413f0a142fd40d49347"
        },
        "genesisRLP" : "0xf901faf901f5a00000000000000000000000000000000000000000000000000000000000000000a01dcc4de8dec75d7aab85b567b6ccd41ad312451b948a7413f0a142fd40d49347942adc25665018aa1fe0e6bc666dac8fc2697ff9baa00fef322a71142192bd16de1044b5416da09ef0bbb74325d8a454373a10eeefd6a056e81f171bcc55a6ff8345e692c0f86e5b48e01b996cadc001622fb5e363b421a056e81f171bcc55a6ff8345e692c0f86e5b48e01b996cadc001622fb5e363b421b9010000000000000000000000000000000000000000000000000000000000000000000000000000000000000000000000000000000000000000000000000000000000000000000000000000000000000000000000000000000000000000000000000000000000000000000000000000000000000000000000000000000000000000000000000000000000000000000000000000000000000000000000000000000000000000000000000000000000000000000000000000000000000000000000000000000000000000000000000000000000000000000000000000000000000000000000000000000000000000000000000000000000000000000000000000000000830200008083989680808203b642a056e81f171bcc55a6ff8345e692c0f86e5b48e01b996cadc001622fb5e363b421880102030405060708c0c0",
        "lastblockhash" : "0xd1fed9f70161a535db5aa54c282c7c86c3d1c7c9abf4f210d6a232fc99a914cb",
        "network" : "Frontier",
        "postState" : {
            "0x2adc25665018aa1fe0e6bc666dac8fc2697ff9ba" : {
                "balance" : "0x4563918244f51170",
                "code" : "0x",
                "nonce" : "0x00",
                "storage" : {
                }
            },
            "0xa000000000000000000000000000000000000000" : {
                "balance" : "0x00",
                "code" : "0x60206000600060006000600035620249f0f1600155600051600255",
                "nonce" : "0x00",
                "storage" : {
                }
            },
            "0xa100000000000000000000000000000000000000" : {
                "balance" : "0x00",
                "code" : "0x6c726576657274656420646174616000556d726576657274206d65737361676560005260206000fd",
                "nonce" : "0x00",
                "storage" : {
                }
            },
            "0xa200000000000000000000000000000000000000" : {
                "balance" : "0x00",
                "code" : "0x6c726576657274656420646174616000556d726576657274206d65737361676560005260006000fd",
                "nonce" : "0x00",
                "storage" : {
                }
            },
            "0xa300000000000000000000000000000000000000" : {
                "balance" : "0x00",
                "code" : "0x6c726576657274656420646174616000556d726576657274206d6573736167656000526e0fffffffffffffffffffffffffffff6000fd",
                "nonce" : "0x00",
                "storage" : {
                }
            },
            "0xa400000000000000000000000000000000000000" : {
                "balance" : "0x00",
                "code" : "0x6c726576657274656420646174616000556d726576657274206d6573736167656000526000610100fd",
                "nonce" : "0x00",
                "storage" : {
                }
            },
            "0xa500000000000000000000000000000000000000" : {
                "balance" : "0x00",
                "code" : "0x6c726576657274656420646174616000556d726576657274206d65737361676560005260006001fd",
                "nonce" : "0x00",
                "storage" : {
                }
            },
            "0xa600000000000000000000000000000000000000" : {
                "balance" : "0x00",
                "code" : "0x6c726576657274656420646174616000556d726576657274206d65737361676560005260006e0ffffffffffffffffffffffffffffffd",
                "nonce" : "0x00",
                "storage" : {
                }
            },
            "0xa94f5374fce5edbc8e2a8697c15331677e6ebf0b" : {
                "balance" : "0xe8d4a3fe90",
                "code" : "0x",
                "nonce" : "0x01",
                "storage" : {
                }
            }
        },
        "pre" : {
            "0xa000000000000000000000000000000000000000" : {
                "balance" : "0x00",
                "code" : "0x60206000600060006000600035620249f0f1600155600051600255",
                "nonce" : "0x00",
                "storage" : {
                }
            },
            "0xa100000000000000000000000000000000000000" : {
                "balance" : "0x00",
                "code" : "0x6c726576657274656420646174616000556d726576657274206d65737361676560005260206000fd",
                "nonce" : "0x00",
                "storage" : {
                }
            },
            "0xa200000000000000000000000000000000000000" : {
                "balance" : "0x00",
                "code" : "0x6c726576657274656420646174616000556d726576657274206d65737361676560005260006000fd",
                "nonce" : "0x00",
                "storage" : {
                }
            },
            "0xa300000000000000000000000000000000000000" : {
                "balance" : "0x00",
                "code" : "0x6c726576657274656420646174616000556d726576657274206d6573736167656000526e0fffffffffffffffffffffffffffff6000fd",
                "nonce" : "0x00",
                "storage" : {
                }
            },
            "0xa400000000000000000000000000000000000000" : {
                "balance" : "0x00",
                "code" : "0x6c726576657274656420646174616000556d726576657274206d6573736167656000526000610100fd",
                "nonce" : "0x00",
                "storage" : {
                }
            },
            "0xa500000000000000000000000000000000000000" : {
                "balance" : "0x00",
                "code" : "0x6c726576657274656420646174616000556d726576657274206d65737361676560005260006001fd",
                "nonce" : "0x00",
                "storage" : {
                }
            },
            "0xa600000000000000000000000000000000000000" : {
                "balance" : "0x00",
                "code" : "0x6c726576657274656420646174616000556d726576657274206d65737361676560005260006e0ffffffffffffffffffffffffffffffd",
                "nonce" : "0x00",
                "storage" : {
                }
            },
            "0xa94f5374fce5edbc8e2a8697c15331677e6ebf0b" : {
                "balance" : "0xe8d4a51000",
                "code" : "0x",
                "nonce" : "0x00",
                "storage" : {
                }
            }
        },
        "sealEngine" : "NoProof"
    },
    "RevertOpcodeReturn_d4g1v0_Homestead" : {
        "_info" : {
            "comment" : "",
            "filledwith" : "testeth 1.7.0-alpha.1-20+commit.782a7283",
            "lllcversion" : "Version: 0.5.0-develop.2018.11.9+commit.9709dfe0.Linux.g++",
            "source" : "src/BlockchainTestsFiller/GeneralStateTests/stRevertTest/RevertOpcodeReturn_d4g1v0Filler.json",
            "sourceHash" : "b9f74293d550fa82338789a75d2794d9e47ff4560d42a95638b439a0259adfdf"
        },
        "blocks" : [
            {
                "blockHeader" : {
                    "bloom" : "0x00000000000000000000000000000000000000000000000000000000000000000000000000000000000000000000000000000000000000000000000000000000000000000000000000000000000000000000000000000000000000000000000000000000000000000000000000000000000000000000000000000000000000000000000000000000000000000000000000000000000000000000000000000000000000000000000000000000000000000000000000000000000000000000000000000000000000000000000000000000000000000000000000000000000000000000000000000000000000000000000000000000000000000000000000000000",
                    "coinbase" : "0x2adc25665018aa1fe0e6bc666dac8fc2697ff9ba",
                    "difficulty" : "0x020000",
                    "extraData" : "0x",
                    "gasLimit" : "0x989680",
                    "gasUsed" : "0x011170",
                    "hash" : "0xd1fed9f70161a535db5aa54c282c7c86c3d1c7c9abf4f210d6a232fc99a914cb",
                    "mixHash" : "0x0000000000000000000000000000000000000000000000000000000000000000",
                    "nonce" : "0x0000000000000000",
                    "number" : "0x01",
                    "parentHash" : "0xcfd57f71685c8344273e97531caa73fa1d11eab09c95bde948cdb71250e3047a",
                    "receiptTrie" : "0x0de8e06764d628eb9df25b92ecf5fc14b1c9b5633503d4bf771bbb6aee665e1f",
                    "stateRoot" : "0xfcf50580c069eee894106ee4c7ec0ae65ffc937deffa61d2fb5d55c69e7a660f",
                    "timestamp" : "0x03e8",
                    "transactionsTrie" : "0x6587e82edd4cc11ba3b5a5e8da27455ddb4d8815f9acdb4f8c542b9ed22898ac",
                    "uncleHash" : "0x1dcc4de8dec75d7aab85b567b6ccd41ad312451b948a7413f0a142fd40d49347"
                },
                "rlp" : "0xf90280f901f8a0cfd57f71685c8344273e97531caa73fa1d11eab09c95bde948cdb71250e3047aa01dcc4de8dec75d7aab85b567b6ccd41ad312451b948a7413f0a142fd40d49347942adc25665018aa1fe0e6bc666dac8fc2697ff9baa0fcf50580c069eee894106ee4c7ec0ae65ffc937deffa61d2fb5d55c69e7a660fa06587e82edd4cc11ba3b5a5e8da27455ddb4d8815f9acdb4f8c542b9ed22898aca00de8e06764d628eb9df25b92ecf5fc14b1c9b5633503d4bf771bbb6aee665e1fb9010000000000000000000000000000000000000000000000000000000000000000000000000000000000000000000000000000000000000000000000000000000000000000000000000000000000000000000000000000000000000000000000000000000000000000000000000000000000000000000000000000000000000000000000000000000000000000000000000000000000000000000000000000000000000000000000000000000000000000000000000000000000000000000000000000000000000000000000000000000000000000000000000000000000000000000000000000000000000000000000000000000000000000000000000000000000830200000183989680830111708203e880a00000000000000000000000000000000000000000000000000000000000000000880000000000000000f882f88080018301117094a00000000000000000000000000000000000000080a0000000000000000000000000a5000000000000000000000000000000000000001ca0833caa769cf3a5f06ae4d7ddf0e50ee38058540671b61998f6be9d116184dc03a0505ec10b0c2c7c61b6ea2e1b20e921b142d4255cca0cd2c3a71f5bb7adf9a0dac0",
                "transactions" : [
                    {
                        "data" : "0x000000000000000000000000a500000000000000000000000000000000000000",
                        "gasLimit" : "0x011170",
                        "gasPrice" : "0x01",
                        "nonce" : "0x00",
                        "r" : "0x833caa769cf3a5f06ae4d7ddf0e50ee38058540671b61998f6be9d116184dc03",
                        "s" : "0x505ec10b0c2c7c61b6ea2e1b20e921b142d4255cca0cd2c3a71f5bb7adf9a0da",
                        "to" : "0xa000000000000000000000000000000000000000",
                        "v" : "0x1c",
                        "value" : "0x00"
                    }
                ],
                "uncleHeaders" : [
                ]
            }
        ],
        "genesisBlockHeader" : {
            "bloom" : "0x00000000000000000000000000000000000000000000000000000000000000000000000000000000000000000000000000000000000000000000000000000000000000000000000000000000000000000000000000000000000000000000000000000000000000000000000000000000000000000000000000000000000000000000000000000000000000000000000000000000000000000000000000000000000000000000000000000000000000000000000000000000000000000000000000000000000000000000000000000000000000000000000000000000000000000000000000000000000000000000000000000000000000000000000000000000",
            "coinbase" : "0x2adc25665018aa1fe0e6bc666dac8fc2697ff9ba",
            "difficulty" : "0x020000",
            "extraData" : "0x42",
            "gasLimit" : "0x989680",
            "gasUsed" : "0x00",
            "hash" : "0xcfd57f71685c8344273e97531caa73fa1d11eab09c95bde948cdb71250e3047a",
            "mixHash" : "0x56e81f171bcc55a6ff8345e692c0f86e5b48e01b996cadc001622fb5e363b421",
            "nonce" : "0x0102030405060708",
            "number" : "0x00",
            "parentHash" : "0x0000000000000000000000000000000000000000000000000000000000000000",
            "receiptTrie" : "0x56e81f171bcc55a6ff8345e692c0f86e5b48e01b996cadc001622fb5e363b421",
            "stateRoot" : "0x0fef322a71142192bd16de1044b5416da09ef0bbb74325d8a454373a10eeefd6",
            "timestamp" : "0x03b6",
            "transactionsTrie" : "0x56e81f171bcc55a6ff8345e692c0f86e5b48e01b996cadc001622fb5e363b421",
            "uncleHash" : "0x1dcc4de8dec75d7aab85b567b6ccd41ad312451b948a7413f0a142fd40d49347"
        },
        "genesisRLP" : "0xf901faf901f5a00000000000000000000000000000000000000000000000000000000000000000a01dcc4de8dec75d7aab85b567b6ccd41ad312451b948a7413f0a142fd40d49347942adc25665018aa1fe0e6bc666dac8fc2697ff9baa00fef322a71142192bd16de1044b5416da09ef0bbb74325d8a454373a10eeefd6a056e81f171bcc55a6ff8345e692c0f86e5b48e01b996cadc001622fb5e363b421a056e81f171bcc55a6ff8345e692c0f86e5b48e01b996cadc001622fb5e363b421b9010000000000000000000000000000000000000000000000000000000000000000000000000000000000000000000000000000000000000000000000000000000000000000000000000000000000000000000000000000000000000000000000000000000000000000000000000000000000000000000000000000000000000000000000000000000000000000000000000000000000000000000000000000000000000000000000000000000000000000000000000000000000000000000000000000000000000000000000000000000000000000000000000000000000000000000000000000000000000000000000000000000000000000000000000000000000830200008083989680808203b642a056e81f171bcc55a6ff8345e692c0f86e5b48e01b996cadc001622fb5e363b421880102030405060708c0c0",
        "lastblockhash" : "0xd1fed9f70161a535db5aa54c282c7c86c3d1c7c9abf4f210d6a232fc99a914cb",
        "network" : "Homestead",
        "postState" : {
            "0x2adc25665018aa1fe0e6bc666dac8fc2697ff9ba" : {
                "balance" : "0x4563918244f51170",
                "code" : "0x",
                "nonce" : "0x00",
                "storage" : {
                }
            },
            "0xa000000000000000000000000000000000000000" : {
                "balance" : "0x00",
                "code" : "0x60206000600060006000600035620249f0f1600155600051600255",
                "nonce" : "0x00",
                "storage" : {
                }
            },
            "0xa100000000000000000000000000000000000000" : {
                "balance" : "0x00",
                "code" : "0x6c726576657274656420646174616000556d726576657274206d65737361676560005260206000fd",
                "nonce" : "0x00",
                "storage" : {
                }
            },
            "0xa200000000000000000000000000000000000000" : {
                "balance" : "0x00",
                "code" : "0x6c726576657274656420646174616000556d726576657274206d65737361676560005260006000fd",
                "nonce" : "0x00",
                "storage" : {
                }
            },
            "0xa300000000000000000000000000000000000000" : {
                "balance" : "0x00",
                "code" : "0x6c726576657274656420646174616000556d726576657274206d6573736167656000526e0fffffffffffffffffffffffffffff6000fd",
                "nonce" : "0x00",
                "storage" : {
                }
            },
            "0xa400000000000000000000000000000000000000" : {
                "balance" : "0x00",
                "code" : "0x6c726576657274656420646174616000556d726576657274206d6573736167656000526000610100fd",
                "nonce" : "0x00",
                "storage" : {
                }
            },
            "0xa500000000000000000000000000000000000000" : {
                "balance" : "0x00",
                "code" : "0x6c726576657274656420646174616000556d726576657274206d65737361676560005260006001fd",
                "nonce" : "0x00",
                "storage" : {
                }
            },
            "0xa600000000000000000000000000000000000000" : {
                "balance" : "0x00",
                "code" : "0x6c726576657274656420646174616000556d726576657274206d65737361676560005260006e0ffffffffffffffffffffffffffffffd",
                "nonce" : "0x00",
                "storage" : {
                }
            },
            "0xa94f5374fce5edbc8e2a8697c15331677e6ebf0b" : {
                "balance" : "0xe8d4a3fe90",
                "code" : "0x",
                "nonce" : "0x01",
                "storage" : {
                }
            }
        },
        "pre" : {
            "0xa000000000000000000000000000000000000000" : {
                "balance" : "0x00",
                "code" : "0x60206000600060006000600035620249f0f1600155600051600255",
                "nonce" : "0x00",
                "storage" : {
                }
            },
            "0xa100000000000000000000000000000000000000" : {
                "balance" : "0x00",
                "code" : "0x6c726576657274656420646174616000556d726576657274206d65737361676560005260206000fd",
                "nonce" : "0x00",
                "storage" : {
                }
            },
            "0xa200000000000000000000000000000000000000" : {
                "balance" : "0x00",
                "code" : "0x6c726576657274656420646174616000556d726576657274206d65737361676560005260006000fd",
                "nonce" : "0x00",
                "storage" : {
                }
            },
            "0xa300000000000000000000000000000000000000" : {
                "balance" : "0x00",
                "code" : "0x6c726576657274656420646174616000556d726576657274206d6573736167656000526e0fffffffffffffffffffffffffffff6000fd",
                "nonce" : "0x00",
                "storage" : {
                }
            },
            "0xa400000000000000000000000000000000000000" : {
                "balance" : "0x00",
                "code" : "0x6c726576657274656420646174616000556d726576657274206d6573736167656000526000610100fd",
                "nonce" : "0x00",
                "storage" : {
                }
            },
            "0xa500000000000000000000000000000000000000" : {
                "balance" : "0x00",
                "code" : "0x6c726576657274656420646174616000556d726576657274206d65737361676560005260006001fd",
                "nonce" : "0x00",
                "storage" : {
                }
            },
            "0xa600000000000000000000000000000000000000" : {
                "balance" : "0x00",
                "code" : "0x6c726576657274656420646174616000556d726576657274206d65737361676560005260006e0ffffffffffffffffffffffffffffffd",
                "nonce" : "0x00",
                "storage" : {
                }
            },
            "0xa94f5374fce5edbc8e2a8697c15331677e6ebf0b" : {
                "balance" : "0xe8d4a51000",
                "code" : "0x",
                "nonce" : "0x00",
                "storage" : {
                }
            }
        },
        "sealEngine" : "NoProof"
    }
}