{
    "callcallcodecall_ABCB_RECURSIVE_d0g0v0_Byzantium" : {
        "_info" : {
            "comment" : "CALL -> DELEGATECALL -> CALL2 -> DELEGATECALL -> ...",
            "filledwith" : "testeth 1.7.0-alpha.1-20+commit.782a7283",
            "lllcversion" : "Version: 0.5.0-develop.2018.11.9+commit.9709dfe0.Linux.g++",
            "source" : "src/BlockchainTestsFiller/GeneralStateTests/stCallDelegateCodesHomestead/callcallcodecall_ABCB_RECURSIVE_d0g0v0Filler.json",
            "sourceHash" : "0c8078eeb354851da11a3fdea138e6b2cc42310ce0f5dd6846504bc0e64cbf05"
        },
        "blocks" : [
            {
                "blockHeader" : {
                    "bloom" : "0x00000000000000000000000000000000000000000000000000000000000000000000000000000000000000000000000000000000000000000000000000000000000000000000000000000000000000000000000000000000000000000000000000000000000000000000000000000000000000000000000000000000000000000000000000000000000000000000000000000000000000000000000000000000000000000000000000000000000000000000000000000000000000000000000000000000000000000000000000000000000000000000000000000000000000000000000000000000000000000000000000000000000000000000000000000000",
                    "coinbase" : "0x2adc25665018aa1fe0e6bc666dac8fc2697ff9ba",
                    "difficulty" : "0x020000",
                    "extraData" : "0x",
                    "gasLimit" : "0xb2d05e00",
                    "gasUsed" : "0x08ab7b",
                    "hash" : "0x39f0d621fec0c26be3ec9a76a519e57e2e3d5fdbc2ecbe51c1cdd0a0df07ffc8",
                    "mixHash" : "0x0000000000000000000000000000000000000000000000000000000000000000",
                    "nonce" : "0x0000000000000000",
                    "number" : "0x01",
                    "parentHash" : "0xed38fae76f69a935d302f6a8eea398155e53f6202f7fb35df9c527e007c45796",
                    "receiptTrie" : "0x63a01b86e4342726a564a98d55dac51745ef3a32d1a9d5515f4a6e0762a84fa3",
                    "stateRoot" : "0x5f11b22540e53a5b7828db3f816d28b87451023c7de2f05d6c0e1b9ad8c7cd36",
                    "timestamp" : "0x03e8",
                    "transactionsTrie" : "0x6488b1eb775a36511b144fdf6f3b4ac280e5c90ef7ff99c833b5648a1a534477",
                    "uncleHash" : "0x1dcc4de8dec75d7aab85b567b6ccd41ad312451b948a7413f0a142fd40d49347"
                },
                "rlp" : "0xf90262f901f9a0ed38fae76f69a935d302f6a8eea398155e53f6202f7fb35df9c527e007c45796a01dcc4de8dec75d7aab85b567b6ccd41ad312451b948a7413f0a142fd40d49347942adc25665018aa1fe0e6bc666dac8fc2697ff9baa05f11b22540e53a5b7828db3f816d28b87451023c7de2f05d6c0e1b9ad8c7cd36a06488b1eb775a36511b144fdf6f3b4ac280e5c90ef7ff99c833b5648a1a534477a063a01b86e4342726a564a98d55dac51745ef3a32d1a9d5515f4a6e0762a84fa3b9010000000000000000000000000000000000000000000000000000000000000000000000000000000000000000000000000000000000000000000000000000000000000000000000000000000000000000000000000000000000000000000000000000000000000000000000000000000000000000000000000000000000000000000000000000000000000000000000000000000000000000000000000000000000000000000000000000000000000000000000000000000000000000000000000000000000000000000000000000000000000000000000000000000000000000000000000000000000000000000000000000000000000000000000000000000000830200000184b2d05e008308ab7b8203e880a00000000000000000000000000000000000000000000000000000000000000000880000000000000000f863f86180018401c9c38094100000000000000000000000000000000000000080801ca03e4d54de189f528bc53f0d074377af1163f9485eed1f8cd3d16c476e147b426ba05c69650f46a2a5ef790ba203bbf1c4762eed89071ff84d32035517d09e836e33c0",
                "transactions" : [
                    {
                        "data" : "0x",
                        "gasLimit" : "0x01c9c380",
                        "gasPrice" : "0x01",
                        "nonce" : "0x00",
                        "r" : "0x3e4d54de189f528bc53f0d074377af1163f9485eed1f8cd3d16c476e147b426b",
                        "s" : "0x5c69650f46a2a5ef790ba203bbf1c4762eed89071ff84d32035517d09e836e33",
                        "to" : "0x1000000000000000000000000000000000000000",
                        "v" : "0x1c",
                        "value" : "0x00"
                    }
                ],
                "uncleHeaders" : [
                ]
            }
        ],
        "genesisBlockHeader" : {
            "bloom" : "0x00000000000000000000000000000000000000000000000000000000000000000000000000000000000000000000000000000000000000000000000000000000000000000000000000000000000000000000000000000000000000000000000000000000000000000000000000000000000000000000000000000000000000000000000000000000000000000000000000000000000000000000000000000000000000000000000000000000000000000000000000000000000000000000000000000000000000000000000000000000000000000000000000000000000000000000000000000000000000000000000000000000000000000000000000000000",
            "coinbase" : "0x2adc25665018aa1fe0e6bc666dac8fc2697ff9ba",
            "difficulty" : "0x020000",
            "extraData" : "0x42",
            "gasLimit" : "0xb2d05e00",
            "gasUsed" : "0x00",
            "hash" : "0xed38fae76f69a935d302f6a8eea398155e53f6202f7fb35df9c527e007c45796",
            "mixHash" : "0x56e81f171bcc55a6ff8345e692c0f86e5b48e01b996cadc001622fb5e363b421",
            "nonce" : "0x0102030405060708",
            "number" : "0x00",
            "parentHash" : "0x0000000000000000000000000000000000000000000000000000000000000000",
            "receiptTrie" : "0x56e81f171bcc55a6ff8345e692c0f86e5b48e01b996cadc001622fb5e363b421",
            "stateRoot" : "0xacf7af136056bc49e00711de072941d2e6a9aadcf3312e31d9689d18d323ce4f",
            "timestamp" : "0x03b6",
            "transactionsTrie" : "0x56e81f171bcc55a6ff8345e692c0f86e5b48e01b996cadc001622fb5e363b421",
            "uncleHash" : "0x1dcc4de8dec75d7aab85b567b6ccd41ad312451b948a7413f0a142fd40d49347"
        },
        "genesisRLP" : "0xf901fbf901f6a00000000000000000000000000000000000000000000000000000000000000000a01dcc4de8dec75d7aab85b567b6ccd41ad312451b948a7413f0a142fd40d49347942adc25665018aa1fe0e6bc666dac8fc2697ff9baa0acf7af136056bc49e00711de072941d2e6a9aadcf3312e31d9689d18d323ce4fa056e81f171bcc55a6ff8345e692c0f86e5b48e01b996cadc001622fb5e363b421a056e81f171bcc55a6ff8345e692c0f86e5b48e01b996cadc001622fb5e363b421b9010000000000000000000000000000000000000000000000000000000000000000000000000000000000000000000000000000000000000000000000000000000000000000000000000000000000000000000000000000000000000000000000000000000000000000000000000000000000000000000000000000000000000000000000000000000000000000000000000000000000000000000000000000000000000000000000000000000000000000000000000000000000000000000000000000000000000000000000000000000000000000000000000000000000000000000000000000000000000000000000000000000000000000000000000000000000830200008084b2d05e00808203b642a056e81f171bcc55a6ff8345e692c0f86e5b48e01b996cadc001622fb5e363b421880102030405060708c0c0",
        "lastblockhash" : "0x39f0d621fec0c26be3ec9a76a519e57e2e3d5fdbc2ecbe51c1cdd0a0df07ffc8",
        "network" : "Byzantium",
        "postState" : {
            "0x1000000000000000000000000000000000000000" : {
                "balance" : "0x0de0b6b3a7640000",
                "code" : "0x6040600060406000600073100000000000000000000000000000000000000163017d7840f1600055",
                "nonce" : "0x00",
                "storage" : {
                    "0x00" : "0x01"
                }
            },
            "0x1000000000000000000000000000000000000001" : {
                "balance" : "0x02540be400",
                "code" : "0x6040600060406000731000000000000000000000000000000000000002620f4240f4600155",
                "nonce" : "0x00",
                "storage" : {
                    "0x01" : "0x01"
                }
            },
            "0x1000000000000000000000000000000000000002" : {
                "balance" : "0x02540be400",
                "code" : "0x604060006040600060007310000000000000000000000000000000000000016207a120f1600255",
                "nonce" : "0x00",
                "storage" : {
                }
            },
            "0x2adc25665018aa1fe0e6bc666dac8fc2697ff9ba" : {
                "balance" : "0x29a2241af634ab7b",
                "code" : "0x",
                "nonce" : "0x00",
                "storage" : {
                }
            },
            "0xa94f5374fce5edbc8e2a8697c15331677e6ebf0b" : {
                "balance" : "0x0de0b6b3a75b5485",
                "code" : "0x",
                "nonce" : "0x01",
                "storage" : {
                }
            }
        },
        "pre" : {
            "0x1000000000000000000000000000000000000000" : {
                "balance" : "0x0de0b6b3a7640000",
                "code" : "0x6040600060406000600073100000000000000000000000000000000000000163017d7840f1600055",
                "nonce" : "0x00",
                "storage" : {
                }
            },
            "0x1000000000000000000000000000000000000001" : {
                "balance" : "0x02540be400",
                "code" : "0x6040600060406000731000000000000000000000000000000000000002620f4240f4600155",
                "nonce" : "0x00",
                "storage" : {
                }
            },
            "0x1000000000000000000000000000000000000002" : {
                "balance" : "0x02540be400",
                "code" : "0x604060006040600060007310000000000000000000000000000000000000016207a120f1600255",
                "nonce" : "0x00",
                "storage" : {
                }
            },
            "0xa94f5374fce5edbc8e2a8697c15331677e6ebf0b" : {
                "balance" : "0x0de0b6b3a7640000",
                "code" : "0x",
                "nonce" : "0x00",
                "storage" : {
                }
            }
        },
        "sealEngine" : "NoProof"
    },
    "callcallcodecall_ABCB_RECURSIVE_d0g0v0_Constantinople" : {
        "_info" : {
            "comment" : "CALL -> DELEGATECALL -> CALL2 -> DELEGATECALL -> ...",
            "filledwith" : "testeth 1.7.0-alpha.1-20+commit.782a7283",
            "lllcversion" : "Version: 0.5.0-develop.2018.11.9+commit.9709dfe0.Linux.g++",
            "source" : "src/BlockchainTestsFiller/GeneralStateTests/stCallDelegateCodesHomestead/callcallcodecall_ABCB_RECURSIVE_d0g0v0Filler.json",
            "sourceHash" : "0c8078eeb354851da11a3fdea138e6b2cc42310ce0f5dd6846504bc0e64cbf05"
        },
        "blocks" : [
            {
                "blockHeader" : {
                    "bloom" : "0x00000000000000000000000000000000000000000000000000000000000000000000000000000000000000000000000000000000000000000000000000000000000000000000000000000000000000000000000000000000000000000000000000000000000000000000000000000000000000000000000000000000000000000000000000000000000000000000000000000000000000000000000000000000000000000000000000000000000000000000000000000000000000000000000000000000000000000000000000000000000000000000000000000000000000000000000000000000000000000000000000000000000000000000000000000000",
                    "coinbase" : "0x2adc25665018aa1fe0e6bc666dac8fc2697ff9ba",
                    "difficulty" : "0x020000",
                    "extraData" : "0x",
                    "gasLimit" : "0xb2d05e00",
                    "gasUsed" : "0x08c865",
                    "hash" : "0xaf482f4c472f3eecbf313900f28ff199579d3c033326dbc93299dd2e4bc68a64",
                    "mixHash" : "0x0000000000000000000000000000000000000000000000000000000000000000",
                    "nonce" : "0x0000000000000000",
                    "number" : "0x01",
                    "parentHash" : "0xed38fae76f69a935d302f6a8eea398155e53f6202f7fb35df9c527e007c45796",
                    "receiptTrie" : "0x2763bb936a18e0c6b48606e26bee47a9e994b75b7db46fea64347b1a5243eb83",
                    "stateRoot" : "0x3d765e58358527ec0d2af2309f687ff7bc4d9dde0d29ef7f05358036c77778dc",
                    "timestamp" : "0x03e8",
                    "transactionsTrie" : "0x6488b1eb775a36511b144fdf6f3b4ac280e5c90ef7ff99c833b5648a1a534477",
                    "uncleHash" : "0x1dcc4de8dec75d7aab85b567b6ccd41ad312451b948a7413f0a142fd40d49347"
                },
                "rlp" : "0xf90262f901f9a0ed38fae76f69a935d302f6a8eea398155e53f6202f7fb35df9c527e007c45796a01dcc4de8dec75d7aab85b567b6ccd41ad312451b948a7413f0a142fd40d49347942adc25665018aa1fe0e6bc666dac8fc2697ff9baa03d765e58358527ec0d2af2309f687ff7bc4d9dde0d29ef7f05358036c77778dca06488b1eb775a36511b144fdf6f3b4ac280e5c90ef7ff99c833b5648a1a534477a02763bb936a18e0c6b48606e26bee47a9e994b75b7db46fea64347b1a5243eb83b9010000000000000000000000000000000000000000000000000000000000000000000000000000000000000000000000000000000000000000000000000000000000000000000000000000000000000000000000000000000000000000000000000000000000000000000000000000000000000000000000000000000000000000000000000000000000000000000000000000000000000000000000000000000000000000000000000000000000000000000000000000000000000000000000000000000000000000000000000000000000000000000000000000000000000000000000000000000000000000000000000000000000000000000000000000000000830200000184b2d05e008308c8658203e880a00000000000000000000000000000000000000000000000000000000000000000880000000000000000f863f86180018401c9c38094100000000000000000000000000000000000000080801ca03e4d54de189f528bc53f0d074377af1163f9485eed1f8cd3d16c476e147b426ba05c69650f46a2a5ef790ba203bbf1c4762eed89071ff84d32035517d09e836e33c0",
                "transactions" : [
                    {
                        "data" : "0x",
                        "gasLimit" : "0x01c9c380",
                        "gasPrice" : "0x01",
                        "nonce" : "0x00",
                        "r" : "0x3e4d54de189f528bc53f0d074377af1163f9485eed1f8cd3d16c476e147b426b",
                        "s" : "0x5c69650f46a2a5ef790ba203bbf1c4762eed89071ff84d32035517d09e836e33",
                        "to" : "0x1000000000000000000000000000000000000000",
                        "v" : "0x1c",
                        "value" : "0x00"
                    }
                ],
                "uncleHeaders" : [
                ]
            }
        ],
        "genesisBlockHeader" : {
            "bloom" : "0x00000000000000000000000000000000000000000000000000000000000000000000000000000000000000000000000000000000000000000000000000000000000000000000000000000000000000000000000000000000000000000000000000000000000000000000000000000000000000000000000000000000000000000000000000000000000000000000000000000000000000000000000000000000000000000000000000000000000000000000000000000000000000000000000000000000000000000000000000000000000000000000000000000000000000000000000000000000000000000000000000000000000000000000000000000000",
            "coinbase" : "0x2adc25665018aa1fe0e6bc666dac8fc2697ff9ba",
            "difficulty" : "0x020000",
            "extraData" : "0x42",
            "gasLimit" : "0xb2d05e00",
            "gasUsed" : "0x00",
            "hash" : "0xed38fae76f69a935d302f6a8eea398155e53f6202f7fb35df9c527e007c45796",
            "mixHash" : "0x56e81f171bcc55a6ff8345e692c0f86e5b48e01b996cadc001622fb5e363b421",
            "nonce" : "0x0102030405060708",
            "number" : "0x00",
            "parentHash" : "0x0000000000000000000000000000000000000000000000000000000000000000",
            "receiptTrie" : "0x56e81f171bcc55a6ff8345e692c0f86e5b48e01b996cadc001622fb5e363b421",
            "stateRoot" : "0xacf7af136056bc49e00711de072941d2e6a9aadcf3312e31d9689d18d323ce4f",
            "timestamp" : "0x03b6",
            "transactionsTrie" : "0x56e81f171bcc55a6ff8345e692c0f86e5b48e01b996cadc001622fb5e363b421",
            "uncleHash" : "0x1dcc4de8dec75d7aab85b567b6ccd41ad312451b948a7413f0a142fd40d49347"
        },
        "genesisRLP" : "0xf901fbf901f6a00000000000000000000000000000000000000000000000000000000000000000a01dcc4de8dec75d7aab85b567b6ccd41ad312451b948a7413f0a142fd40d49347942adc25665018aa1fe0e6bc666dac8fc2697ff9baa0acf7af136056bc49e00711de072941d2e6a9aadcf3312e31d9689d18d323ce4fa056e81f171bcc55a6ff8345e692c0f86e5b48e01b996cadc001622fb5e363b421a056e81f171bcc55a6ff8345e692c0f86e5b48e01b996cadc001622fb5e363b421b9010000000000000000000000000000000000000000000000000000000000000000000000000000000000000000000000000000000000000000000000000000000000000000000000000000000000000000000000000000000000000000000000000000000000000000000000000000000000000000000000000000000000000000000000000000000000000000000000000000000000000000000000000000000000000000000000000000000000000000000000000000000000000000000000000000000000000000000000000000000000000000000000000000000000000000000000000000000000000000000000000000000000000000000000000000000000830200008084b2d05e00808203b642a056e81f171bcc55a6ff8345e692c0f86e5b48e01b996cadc001622fb5e363b421880102030405060708c0c0",
        "lastblockhash" : "0xaf482f4c472f3eecbf313900f28ff199579d3c033326dbc93299dd2e4bc68a64",
        "network" : "Constantinople",
        "postState" : {
            "0x1000000000000000000000000000000000000000" : {
                "balance" : "0x0de0b6b3a7640000",
                "code" : "0x6040600060406000600073100000000000000000000000000000000000000163017d7840f1600055",
                "nonce" : "0x00",
                "storage" : {
                    "0x00" : "0x01"
                }
            },
            "0x1000000000000000000000000000000000000001" : {
                "balance" : "0x02540be400",
                "code" : "0x6040600060406000731000000000000000000000000000000000000002620f4240f4600155",
                "nonce" : "0x00",
                "storage" : {
                    "0x01" : "0x01",
                    "0x02" : "0x01"
                }
            },
            "0x1000000000000000000000000000000000000002" : {
                "balance" : "0x02540be400",
                "code" : "0x604060006040600060007310000000000000000000000000000000000000016207a120f1600255",
                "nonce" : "0x00",
                "storage" : {
                }
            },
            "0x2adc25665018aa1fe0e6bc666dac8fc2697ff9ba" : {
                "balance" : "0x1bc16d674ed0c865",
                "code" : "0x",
                "nonce" : "0x00",
                "storage" : {
                }
            },
            "0xa94f5374fce5edbc8e2a8697c15331677e6ebf0b" : {
                "balance" : "0x0de0b6b3a75b379b",
                "code" : "0x",
                "nonce" : "0x01",
                "storage" : {
                }
            }
        },
        "pre" : {
            "0x1000000000000000000000000000000000000000" : {
                "balance" : "0x0de0b6b3a7640000",
                "code" : "0x6040600060406000600073100000000000000000000000000000000000000163017d7840f1600055",
                "nonce" : "0x00",
                "storage" : {
                }
            },
            "0x1000000000000000000000000000000000000001" : {
                "balance" : "0x02540be400",
                "code" : "0x6040600060406000731000000000000000000000000000000000000002620f4240f4600155",
                "nonce" : "0x00",
                "storage" : {
                }
            },
            "0x1000000000000000000000000000000000000002" : {
                "balance" : "0x02540be400",
                "code" : "0x604060006040600060007310000000000000000000000000000000000000016207a120f1600255",
                "nonce" : "0x00",
                "storage" : {
                }
            },
            "0xa94f5374fce5edbc8e2a8697c15331677e6ebf0b" : {
                "balance" : "0x0de0b6b3a7640000",
                "code" : "0x",
                "nonce" : "0x00",
                "storage" : {
                }
            }
        },
        "sealEngine" : "NoProof"
    },
    "callcallcodecall_ABCB_RECURSIVE_d0g0v0_EIP150" : {
        "_info" : {
            "comment" : "CALL -> DELEGATECALL -> CALL2 -> DELEGATECALL -> ...",
            "filledwith" : "testeth 1.7.0-alpha.1-20+commit.782a7283",
            "lllcversion" : "Version: 0.5.0-develop.2018.11.9+commit.9709dfe0.Linux.g++",
            "source" : "src/BlockchainTestsFiller/GeneralStateTests/stCallDelegateCodesHomestead/callcallcodecall_ABCB_RECURSIVE_d0g0v0Filler.json",
            "sourceHash" : "0c8078eeb354851da11a3fdea138e6b2cc42310ce0f5dd6846504bc0e64cbf05"
        },
        "blocks" : [
            {
                "blockHeader" : {
                    "bloom" : "0x00000000000000000000000000000000000000000000000000000000000000000000000000000000000000000000000000000000000000000000000000000000000000000000000000000000000000000000000000000000000000000000000000000000000000000000000000000000000000000000000000000000000000000000000000000000000000000000000000000000000000000000000000000000000000000000000000000000000000000000000000000000000000000000000000000000000000000000000000000000000000000000000000000000000000000000000000000000000000000000000000000000000000000000000000000000",
                    "coinbase" : "0x2adc25665018aa1fe0e6bc666dac8fc2697ff9ba",
                    "difficulty" : "0x020000",
                    "extraData" : "0x",
                    "gasLimit" : "0xb2d05e00",
                    "gasUsed" : "0x08ab7b",
                    "hash" : "0x1940ff548529f10c0f1d4bbf62a5e53ed00f1ff67789f13ae920a7f4020b65c6",
                    "mixHash" : "0x0000000000000000000000000000000000000000000000000000000000000000",
                    "nonce" : "0x0000000000000000",
                    "number" : "0x01",
                    "parentHash" : "0xed38fae76f69a935d302f6a8eea398155e53f6202f7fb35df9c527e007c45796",
                    "receiptTrie" : "0xc14e029851e4d730ddeda91b560fb3eb7c0bc17aaf5d50e81a868a88a1cb7bf0",
                    "stateRoot" : "0x477d9223bce5063300a34c6ebdd6619f71362c401a9f44cda2604159a8d8cd91",
                    "timestamp" : "0x03e8",
                    "transactionsTrie" : "0x6488b1eb775a36511b144fdf6f3b4ac280e5c90ef7ff99c833b5648a1a534477",
                    "uncleHash" : "0x1dcc4de8dec75d7aab85b567b6ccd41ad312451b948a7413f0a142fd40d49347"
                },
                "rlp" : "0xf90262f901f9a0ed38fae76f69a935d302f6a8eea398155e53f6202f7fb35df9c527e007c45796a01dcc4de8dec75d7aab85b567b6ccd41ad312451b948a7413f0a142fd40d49347942adc25665018aa1fe0e6bc666dac8fc2697ff9baa0477d9223bce5063300a34c6ebdd6619f71362c401a9f44cda2604159a8d8cd91a06488b1eb775a36511b144fdf6f3b4ac280e5c90ef7ff99c833b5648a1a534477a0c14e029851e4d730ddeda91b560fb3eb7c0bc17aaf5d50e81a868a88a1cb7bf0b9010000000000000000000000000000000000000000000000000000000000000000000000000000000000000000000000000000000000000000000000000000000000000000000000000000000000000000000000000000000000000000000000000000000000000000000000000000000000000000000000000000000000000000000000000000000000000000000000000000000000000000000000000000000000000000000000000000000000000000000000000000000000000000000000000000000000000000000000000000000000000000000000000000000000000000000000000000000000000000000000000000000000000000000000000000000000830200000184b2d05e008308ab7b8203e880a00000000000000000000000000000000000000000000000000000000000000000880000000000000000f863f86180018401c9c38094100000000000000000000000000000000000000080801ca03e4d54de189f528bc53f0d074377af1163f9485eed1f8cd3d16c476e147b426ba05c69650f46a2a5ef790ba203bbf1c4762eed89071ff84d32035517d09e836e33c0",
                "transactions" : [
                    {
                        "data" : "0x",
                        "gasLimit" : "0x01c9c380",
                        "gasPrice" : "0x01",
                        "nonce" : "0x00",
                        "r" : "0x3e4d54de189f528bc53f0d074377af1163f9485eed1f8cd3d16c476e147b426b",
                        "s" : "0x5c69650f46a2a5ef790ba203bbf1c4762eed89071ff84d32035517d09e836e33",
                        "to" : "0x1000000000000000000000000000000000000000",
                        "v" : "0x1c",
                        "value" : "0x00"
                    }
                ],
                "uncleHeaders" : [
                ]
            }
        ],
        "genesisBlockHeader" : {
            "bloom" : "0x00000000000000000000000000000000000000000000000000000000000000000000000000000000000000000000000000000000000000000000000000000000000000000000000000000000000000000000000000000000000000000000000000000000000000000000000000000000000000000000000000000000000000000000000000000000000000000000000000000000000000000000000000000000000000000000000000000000000000000000000000000000000000000000000000000000000000000000000000000000000000000000000000000000000000000000000000000000000000000000000000000000000000000000000000000000",
            "coinbase" : "0x2adc25665018aa1fe0e6bc666dac8fc2697ff9ba",
            "difficulty" : "0x020000",
            "extraData" : "0x42",
            "gasLimit" : "0xb2d05e00",
            "gasUsed" : "0x00",
            "hash" : "0xed38fae76f69a935d302f6a8eea398155e53f6202f7fb35df9c527e007c45796",
            "mixHash" : "0x56e81f171bcc55a6ff8345e692c0f86e5b48e01b996cadc001622fb5e363b421",
            "nonce" : "0x0102030405060708",
            "number" : "0x00",
            "parentHash" : "0x0000000000000000000000000000000000000000000000000000000000000000",
            "receiptTrie" : "0x56e81f171bcc55a6ff8345e692c0f86e5b48e01b996cadc001622fb5e363b421",
            "stateRoot" : "0xacf7af136056bc49e00711de072941d2e6a9aadcf3312e31d9689d18d323ce4f",
            "timestamp" : "0x03b6",
            "transactionsTrie" : "0x56e81f171bcc55a6ff8345e692c0f86e5b48e01b996cadc001622fb5e363b421",
            "uncleHash" : "0x1dcc4de8dec75d7aab85b567b6ccd41ad312451b948a7413f0a142fd40d49347"
        },
        "genesisRLP" : "0xf901fbf901f6a00000000000000000000000000000000000000000000000000000000000000000a01dcc4de8dec75d7aab85b567b6ccd41ad312451b948a7413f0a142fd40d49347942adc25665018aa1fe0e6bc666dac8fc2697ff9baa0acf7af136056bc49e00711de072941d2e6a9aadcf3312e31d9689d18d323ce4fa056e81f171bcc55a6ff8345e692c0f86e5b48e01b996cadc001622fb5e363b421a056e81f171bcc55a6ff8345e692c0f86e5b48e01b996cadc001622fb5e363b421b9010000000000000000000000000000000000000000000000000000000000000000000000000000000000000000000000000000000000000000000000000000000000000000000000000000000000000000000000000000000000000000000000000000000000000000000000000000000000000000000000000000000000000000000000000000000000000000000000000000000000000000000000000000000000000000000000000000000000000000000000000000000000000000000000000000000000000000000000000000000000000000000000000000000000000000000000000000000000000000000000000000000000000000000000000000000000830200008084b2d05e00808203b642a056e81f171bcc55a6ff8345e692c0f86e5b48e01b996cadc001622fb5e363b421880102030405060708c0c0",
        "lastblockhash" : "0x1940ff548529f10c0f1d4bbf62a5e53ed00f1ff67789f13ae920a7f4020b65c6",
        "network" : "EIP150",
        "postState" : {
            "0x1000000000000000000000000000000000000000" : {
                "balance" : "0x0de0b6b3a7640000",
                "code" : "0x6040600060406000600073100000000000000000000000000000000000000163017d7840f1600055",
                "nonce" : "0x00",
                "storage" : {
                    "0x00" : "0x01"
                }
            },
            "0x1000000000000000000000000000000000000001" : {
                "balance" : "0x02540be400",
                "code" : "0x6040600060406000731000000000000000000000000000000000000002620f4240f4600155",
                "nonce" : "0x00",
                "storage" : {
                    "0x01" : "0x01"
                }
            },
            "0x1000000000000000000000000000000000000002" : {
                "balance" : "0x02540be400",
                "code" : "0x604060006040600060007310000000000000000000000000000000000000016207a120f1600255",
                "nonce" : "0x00",
                "storage" : {
                }
            },
            "0x2adc25665018aa1fe0e6bc666dac8fc2697ff9ba" : {
                "balance" : "0x4563918244fcab7b",
                "code" : "0x",
                "nonce" : "0x00",
                "storage" : {
                }
            },
            "0xa94f5374fce5edbc8e2a8697c15331677e6ebf0b" : {
                "balance" : "0x0de0b6b3a75b5485",
                "code" : "0x",
                "nonce" : "0x01",
                "storage" : {
                }
            }
        },
        "pre" : {
            "0x1000000000000000000000000000000000000000" : {
                "balance" : "0x0de0b6b3a7640000",
                "code" : "0x6040600060406000600073100000000000000000000000000000000000000163017d7840f1600055",
                "nonce" : "0x00",
                "storage" : {
                }
            },
            "0x1000000000000000000000000000000000000001" : {
                "balance" : "0x02540be400",
                "code" : "0x6040600060406000731000000000000000000000000000000000000002620f4240f4600155",
                "nonce" : "0x00",
                "storage" : {
                }
            },
            "0x1000000000000000000000000000000000000002" : {
                "balance" : "0x02540be400",
                "code" : "0x604060006040600060007310000000000000000000000000000000000000016207a120f1600255",
                "nonce" : "0x00",
                "storage" : {
                }
            },
            "0xa94f5374fce5edbc8e2a8697c15331677e6ebf0b" : {
                "balance" : "0x0de0b6b3a7640000",
                "code" : "0x",
                "nonce" : "0x00",
                "storage" : {
                }
            }
        },
        "sealEngine" : "NoProof"
    },
    "callcallcodecall_ABCB_RECURSIVE_d0g0v0_Homestead" : {
        "_info" : {
            "comment" : "CALL -> DELEGATECALL -> CALL2 -> DELEGATECALL -> ...",
            "filledwith" : "testeth 1.7.0-alpha.1-20+commit.782a7283",
            "lllcversion" : "Version: 0.5.0-develop.2018.11.9+commit.9709dfe0.Linux.g++",
            "source" : "src/BlockchainTestsFiller/GeneralStateTests/stCallDelegateCodesHomestead/callcallcodecall_ABCB_RECURSIVE_d0g0v0Filler.json",
            "sourceHash" : "0c8078eeb354851da11a3fdea138e6b2cc42310ce0f5dd6846504bc0e64cbf05"
        },
        "blocks" : [
            {
                "blockHeader" : {
                    "bloom" : "0x00000000000000000000000000000000000000000000000000000000000000000000000000000000000000000000000000000000000000000000000000000000000000000000000000000000000000000000000000000000000000000000000000000000000000000000000000000000000000000000000000000000000000000000000000000000000000000000000000000000000000000000000000000000000000000000000000000000000000000000000000000000000000000000000000000000000000000000000000000000000000000000000000000000000000000000000000000000000000000000000000000000000000000000000000000000",
                    "coinbase" : "0x2adc25665018aa1fe0e6bc666dac8fc2697ff9ba",
                    "difficulty" : "0x020000",
                    "extraData" : "0x",
                    "gasLimit" : "0xb2d05e00",
                    "gasUsed" : "0x08a3bf",
                    "hash" : "0xc0aaa4e92b855448b617363c59cc2b62cc5475f44be9d0da873e457d22cabe46",
                    "mixHash" : "0x0000000000000000000000000000000000000000000000000000000000000000",
                    "nonce" : "0x0000000000000000",
                    "number" : "0x01",
                    "parentHash" : "0xed38fae76f69a935d302f6a8eea398155e53f6202f7fb35df9c527e007c45796",
                    "receiptTrie" : "0x33c777d50675f4f4a112e5acfdd40787bdbe6cb3fc92cf5e3964024d8fff805c",
                    "stateRoot" : "0x056a9fc1ff931bde461d26455dd8a72a220656a65babc0b0cfa4772431103e67",
                    "timestamp" : "0x03e8",
                    "transactionsTrie" : "0x6488b1eb775a36511b144fdf6f3b4ac280e5c90ef7ff99c833b5648a1a534477",
                    "uncleHash" : "0x1dcc4de8dec75d7aab85b567b6ccd41ad312451b948a7413f0a142fd40d49347"
                },
                "rlp" : "0xf90262f901f9a0ed38fae76f69a935d302f6a8eea398155e53f6202f7fb35df9c527e007c45796a01dcc4de8dec75d7aab85b567b6ccd41ad312451b948a7413f0a142fd40d49347942adc25665018aa1fe0e6bc666dac8fc2697ff9baa0056a9fc1ff931bde461d26455dd8a72a220656a65babc0b0cfa4772431103e67a06488b1eb775a36511b144fdf6f3b4ac280e5c90ef7ff99c833b5648a1a534477a033c777d50675f4f4a112e5acfdd40787bdbe6cb3fc92cf5e3964024d8fff805cb9010000000000000000000000000000000000000000000000000000000000000000000000000000000000000000000000000000000000000000000000000000000000000000000000000000000000000000000000000000000000000000000000000000000000000000000000000000000000000000000000000000000000000000000000000000000000000000000000000000000000000000000000000000000000000000000000000000000000000000000000000000000000000000000000000000000000000000000000000000000000000000000000000000000000000000000000000000000000000000000000000000000000000000000000000000000000830200000184b2d05e008308a3bf8203e880a00000000000000000000000000000000000000000000000000000000000000000880000000000000000f863f86180018401c9c38094100000000000000000000000000000000000000080801ca03e4d54de189f528bc53f0d074377af1163f9485eed1f8cd3d16c476e147b426ba05c69650f46a2a5ef790ba203bbf1c4762eed89071ff84d32035517d09e836e33c0",
                "transactions" : [
                    {
                        "data" : "0x",
                        "gasLimit" : "0x01c9c380",
                        "gasPrice" : "0x01",
                        "nonce" : "0x00",
                        "r" : "0x3e4d54de189f528bc53f0d074377af1163f9485eed1f8cd3d16c476e147b426b",
                        "s" : "0x5c69650f46a2a5ef790ba203bbf1c4762eed89071ff84d32035517d09e836e33",
                        "to" : "0x1000000000000000000000000000000000000000",
                        "v" : "0x1c",
                        "value" : "0x00"
                    }
                ],
                "uncleHeaders" : [
                ]
            }
        ],
        "genesisBlockHeader" : {
            "bloom" : "0x00000000000000000000000000000000000000000000000000000000000000000000000000000000000000000000000000000000000000000000000000000000000000000000000000000000000000000000000000000000000000000000000000000000000000000000000000000000000000000000000000000000000000000000000000000000000000000000000000000000000000000000000000000000000000000000000000000000000000000000000000000000000000000000000000000000000000000000000000000000000000000000000000000000000000000000000000000000000000000000000000000000000000000000000000000000",
            "coinbase" : "0x2adc25665018aa1fe0e6bc666dac8fc2697ff9ba",
            "difficulty" : "0x020000",
            "extraData" : "0x42",
            "gasLimit" : "0xb2d05e00",
            "gasUsed" : "0x00",
            "hash" : "0xed38fae76f69a935d302f6a8eea398155e53f6202f7fb35df9c527e007c45796",
            "mixHash" : "0x56e81f171bcc55a6ff8345e692c0f86e5b48e01b996cadc001622fb5e363b421",
            "nonce" : "0x0102030405060708",
            "number" : "0x00",
            "parentHash" : "0x0000000000000000000000000000000000000000000000000000000000000000",
            "receiptTrie" : "0x56e81f171bcc55a6ff8345e692c0f86e5b48e01b996cadc001622fb5e363b421",
            "stateRoot" : "0xacf7af136056bc49e00711de072941d2e6a9aadcf3312e31d9689d18d323ce4f",
            "timestamp" : "0x03b6",
            "transactionsTrie" : "0x56e81f171bcc55a6ff8345e692c0f86e5b48e01b996cadc001622fb5e363b421",
            "uncleHash" : "0x1dcc4de8dec75d7aab85b567b6ccd41ad312451b948a7413f0a142fd40d49347"
        },
        "genesisRLP" : "0xf901fbf901f6a00000000000000000000000000000000000000000000000000000000000000000a01dcc4de8dec75d7aab85b567b6ccd41ad312451b948a7413f0a142fd40d49347942adc25665018aa1fe0e6bc666dac8fc2697ff9baa0acf7af136056bc49e00711de072941d2e6a9aadcf3312e31d9689d18d323ce4fa056e81f171bcc55a6ff8345e692c0f86e5b48e01b996cadc001622fb5e363b421a056e81f171bcc55a6ff8345e692c0f86e5b48e01b996cadc001622fb5e363b421b9010000000000000000000000000000000000000000000000000000000000000000000000000000000000000000000000000000000000000000000000000000000000000000000000000000000000000000000000000000000000000000000000000000000000000000000000000000000000000000000000000000000000000000000000000000000000000000000000000000000000000000000000000000000000000000000000000000000000000000000000000000000000000000000000000000000000000000000000000000000000000000000000000000000000000000000000000000000000000000000000000000000000000000000000000000000000830200008084b2d05e00808203b642a056e81f171bcc55a6ff8345e692c0f86e5b48e01b996cadc001622fb5e363b421880102030405060708c0c0",
        "lastblockhash" : "0xc0aaa4e92b855448b617363c59cc2b62cc5475f44be9d0da873e457d22cabe46",
        "network" : "Homestead",
        "postState" : {
            "0x1000000000000000000000000000000000000000" : {
                "balance" : "0x0de0b6b3a7640000",
                "code" : "0x6040600060406000600073100000000000000000000000000000000000000163017d7840f1600055",
                "nonce" : "0x00",
                "storage" : {
                    "0x00" : "0x01"
                }
            },
            "0x1000000000000000000000000000000000000001" : {
                "balance" : "0x02540be400",
                "code" : "0x6040600060406000731000000000000000000000000000000000000002620f4240f4600155",
                "nonce" : "0x00",
                "storage" : {
                    "0x01" : "0x01"
                }
            },
            "0x1000000000000000000000000000000000000002" : {
                "balance" : "0x02540be400",
                "code" : "0x604060006040600060007310000000000000000000000000000000000000016207a120f1600255",
                "nonce" : "0x00",
                "storage" : {
                }
            },
            "0x2adc25665018aa1fe0e6bc666dac8fc2697ff9ba" : {
                "balance" : "0x4563918244fca3bf",
                "code" : "0x",
                "nonce" : "0x00",
                "storage" : {
                }
            },
            "0xa94f5374fce5edbc8e2a8697c15331677e6ebf0b" : {
                "balance" : "0x0de0b6b3a75b5c41",
                "code" : "0x",
                "nonce" : "0x01",
                "storage" : {
                }
            }
        },
        "pre" : {
            "0x1000000000000000000000000000000000000000" : {
                "balance" : "0x0de0b6b3a7640000",
                "code" : "0x6040600060406000600073100000000000000000000000000000000000000163017d7840f1600055",
                "nonce" : "0x00",
                "storage" : {
                }
            },
            "0x1000000000000000000000000000000000000001" : {
                "balance" : "0x02540be400",
                "code" : "0x6040600060406000731000000000000000000000000000000000000002620f4240f4600155",
                "nonce" : "0x00",
                "storage" : {
                }
            },
            "0x1000000000000000000000000000000000000002" : {
                "balance" : "0x02540be400",
                "code" : "0x604060006040600060007310000000000000000000000000000000000000016207a120f1600255",
                "nonce" : "0x00",
                "storage" : {
                }
            },
            "0xa94f5374fce5edbc8e2a8697c15331677e6ebf0b" : {
                "balance" : "0x0de0b6b3a7640000",
                "code" : "0x",
                "nonce" : "0x00",
                "storage" : {
                }
            }
        },
        "sealEngine" : "NoProof"
    }
}