{
    "identity_to_smaller" : {
        "_info" : {
            "comment" : "have a call to e.g. identity built-in that specifies output size less than input size. Check that the long input is totally available with RETURNDATA.  CALL is with 100000 as gas, address 4 as destination, 0 as value, 0 as in-offset, 32 as in-size, 16 as out-offset, 16 as out-size.  The returndatasize should see 32.",
            "filling-rpc-server" : "evm version 1.10.4-unstable-966ee3ae-20210528",
            "filling-tool-version" : "retesteth-0.1.1-eip1559+commit.658fc3a8.Linux.g++",
            "lllcversion" : "Version: 0.5.14-develop.2021.5.18+commit.14c9d5de.mod.Linux.g++",
            "source" : "src/GeneralStateTestsFiller/stPreCompiledContracts/identity_to_smallerFiller.json",
            "sourceHash" : "42051dafef0381b58c981f5700391f48a5e84fa733c1649ef3c1c8c7706e1052"
        },
        "env" : {
            "currentCoinbase" : "0x3535353535353535353535353535353535353535",
            "currentDifficulty" : "0x020000",
            "currentNumber" : "0x01",
            "currentTimestamp" : "0x03e8",
            "previousHash" : "0xc6745cf3cada515bbfb9573261c82547e0b8f9e3d5dd382e464704a84e47b5ad",
            "currentGasLimit" : "0x05f5e100"
        },
        "post" : {
            "Berlin" : [
                {
                    "indexes" : {
                        "data" : 0,
                        "gas" : 0,
                        "value" : 0
                    },
                    "hash" : "0x02635c89dab273a5d29a52f93e2aae2c0c453d6c948f152a00e807cef514f503",
                    "txbytes" : "0xf860010a83030d4094c305c901078781c232a2a521c2af7980f8385ee980801ca0602b800f0949f6e02c640db7952151b77666d04650acacc85bac5b60e26bd8d0a008126c5779b4f10e04f9a76fefdf77fbb279e6efe9019747ee85979bd103c2ca",
                    "logs" : "0x1dcc4de8dec75d7aab85b567b6ccd41ad312451b948a7413f0a142fd40d49347"
                }
            ],
            "Istanbul" : [
                {
                    "indexes" : {
                        "data" : 0,
                        "gas" : 0,
                        "value" : 0
                    },
                    "hash" : "0x37c0236911ddfa8dcbc3d8a82aa2c5fd271fb44bb89268e8c433f13b4dc1d43e",
                    "txbytes" : "0xf860010a83030d4094c305c901078781c232a2a521c2af7980f8385ee980801ca0602b800f0949f6e02c640db7952151b77666d04650acacc85bac5b60e26bd8d0a008126c5779b4f10e04f9a76fefdf77fbb279e6efe9019747ee85979bd103c2ca",
                    "logs" : "0x1dcc4de8dec75d7aab85b567b6ccd41ad312451b948a7413f0a142fd40d49347"
                }
            ],
            "London" : [
                {
                    "indexes" : {
                        "data" : 0,
                        "gas" : 0,
                        "value" : 0
                    },
                    "hash" : "0xea33770890d9f04b01771f23125383ee7aa40cd441964292d2f91cb137f9a521",
                    "txbytes" : "0xf860010a83030d4094c305c901078781c232a2a521c2af7980f8385ee980801ca0602b800f0949f6e02c640db7952151b77666d04650acacc85bac5b60e26bd8d0a008126c5779b4f10e04f9a76fefdf77fbb279e6efe9019747ee85979bd103c2ca",
                    "logs" : "0x1dcc4de8dec75d7aab85b567b6ccd41ad312451b948a7413f0a142fd40d49347"
                }
            ]
        },
        "pre" : {
            "0x82a978b3f5962a5b0957d9ee9eef472ee55b42f1" : {
                "balance" : "0x0de0b6b3a761fe12",
                "code" : "0x",
                "nonce" : "0x01",
                "storage" : {
                }
            },
            "0xc305c901078781c232a2a521c2af7980f8385ee9" : {
                "balance" : "0x00",
                "code" : "0x7f112233445566778899aabbccddeeff00112233445566778899aabbccddeeff00600052601060106020600060006004620186a0f1503d60005500",
                "nonce" : "0x21",
                "storage" : {
                }
            }
        },
        "transaction" : {
            "data" : [
                "0x"
            ],
            "gasPrice" : "0x0a",
            "gasLimit" : [
                "0x030d40"
            ],
            "nonce" : "0x01",
            "secretKey" : "0x044852b2a670ade5407e78fb2863c51de9fcb96542a07186fe3aeda6bb8a116d",
            "to" : "0xc305c901078781c232a2a521c2af7980f8385ee9",
            "value" : [
                "0x00"
            ]
        }
    }
}