{
    "modexp_9_37111_37111_20500" : {
        "_info" : {
            "comment" : "Puts the base 9, exponent 179769313486231590772930519078902473361797697894230657273430081157732675805500963132708477322407536021120113879871393357658789768814416622492847430639474124377767893424865485276302219601246094119453082952085005768838150682342462881473913110540827237163350510684586298239947245938479716304835356329624224137111 and modulus 179769313486231590772930519078902473361797697894230657273430081157732675805500963132708477322407536021120113879871393357658789768814416622492847430639474124377767893424865485276302219601246094119453082952085005768838150682342462881473913110540827237163350510684586298239947245938479716304835356329624224137111 into the MODEXP precompile, saves the hash of the result. Gives the execution 20500 gas",
            "filling-rpc-server" : "evm version 1.10.4-unstable-966ee3ae-20210528",
            "filling-tool-version" : "retesteth-0.1.1-eip1559+commit.658fc3a8.Linux.g++",
            "lllcversion" : "Version: 0.5.14-develop.2021.5.18+commit.14c9d5de.mod.Linux.g++",
            "source" : "src/GeneralStateTestsFiller/stPreCompiledContracts/modexp_9_37111_37111_20500Filler.json",
            "sourceHash" : "6dc02128f124349aa1c570c86d979a9ef1fed2095d1e9052212be61c9fbfbb2b"
        },
        "env" : {
            "currentCoinbase" : "0x3535353535353535353535353535353535353535",
            "currentDifficulty" : "0x020000",
            "currentNumber" : "0x01",
            "currentTimestamp" : "0x03e8",
            "previousHash" : "0xc6745cf3cada515bbfb9573261c82547e0b8f9e3d5dd382e464704a84e47b5ad",
            "currentGasLimit" : "0x05f5e100"
        },
        "post" : {
            "Berlin" : [
                {
                    "indexes" : {
                        "data" : 0,
                        "gas" : 3,
                        "value" : 0
                    },
                    "hash" : "0x91fdf9c480184b9d6e570ee6eb76fc65fb21f51c35da9bf781f1de18e683648e",
                    "txbytes" : "0xf90226010a83030d4094c305c901078781c232a2a521c2af7980f8385ee980b901c430c8d1da0000000000000000000000000000000000000000000000000000000000000020000000000000000000000000000000000000000000000000000000000000016100000000000000000000000000000000000000000000000000000000000000010000000000000000000000000000000000000000000000000000000000000080000000000000000000000000000000000000000000000000000000000000008009ffffffffffffffffffffffffffffffffffffffffffffffffffffffffffffffffffffffffffffffffffffffffffffffffffffffffffffffffffffffffffffffffffffffffffffffffffffffffffffffffffffffffffffffffffffffffffffffffffffffffffffffffffffffffffffffffffffffffffffffffffffffffffffff97ffffffffffffffffffffffffffffffffffffffffffffffffffffffffffffffffffffffffffffffffffffffffffffffffffffffffffffffffffffffffffffffffffffffffffffffffffffffffffffffffffffffffffffffffffffffffffffffffffffffffffffffffffffffffffffffffffffffffffffffffffffffffffffff97000000000000000000000000000000000000000000000000000000000000001ca0ac110be5bb46d83ad289b34ca1f6d44fdb33e857a37e2ba50d1a36354539ff01a0390dc9f601ede0ce5de7426afad3ef78cba94a2a07775ee4b6b4313916a68eef",
                    "logs" : "0x1dcc4de8dec75d7aab85b567b6ccd41ad312451b948a7413f0a142fd40d49347"
                },
                {
                    "indexes" : {
                        "data" : 0,
                        "gas" : 0,
                        "value" : 0
                    },
                    "hash" : "0x882e10f3493330de9abbc6012ed86dccd559fafcdc486c50a16500a6fe3b196f",
                    "txbytes" : "0xf90225010a82ebec94c305c901078781c232a2a521c2af7980f8385ee980b901c430c8d1da0000000000000000000000000000000000000000000000000000000000000020000000000000000000000000000000000000000000000000000000000000016100000000000000000000000000000000000000000000000000000000000000010000000000000000000000000000000000000000000000000000000000000080000000000000000000000000000000000000000000000000000000000000008009ffffffffffffffffffffffffffffffffffffffffffffffffffffffffffffffffffffffffffffffffffffffffffffffffffffffffffffffffffffffffffffffffffffffffffffffffffffffffffffffffffffffffffffffffffffffffffffffffffffffffffffffffffffffffffffffffffffffffffffffffffffffffffffff97ffffffffffffffffffffffffffffffffffffffffffffffffffffffffffffffffffffffffffffffffffffffffffffffffffffffffffffffffffffffffffffffffffffffffffffffffffffffffffffffffffffffffffffffffffffffffffffffffffffffffffffffffffffffffffffffffffffffffffffffffffffffffffffff97000000000000000000000000000000000000000000000000000000000000001ca0d311d913ba8aeed38141f6e1aea52ec08638d228fca468aade661d0514c82ee3a0785fe8be789f21541ccc5b59ebd6763ca9f0360bc185fd2c768037923148b04d",
                    "logs" : "0x1dcc4de8dec75d7aab85b567b6ccd41ad312451b948a7413f0a142fd40d49347"
                },
                {
                    "indexes" : {
                        "data" : 0,
                        "gas" : 1,
                        "value" : 0
                    },
                    "hash" : "0xca4e2932594133b33e68cc93163fc1cd76b7791960b121a9be2116272f37001f",
                    "txbytes" : "0xf90226010a83015f9094c305c901078781c232a2a521c2af7980f8385ee980b901c430c8d1da0000000000000000000000000000000000000000000000000000000000000020000000000000000000000000000000000000000000000000000000000000016100000000000000000000000000000000000000000000000000000000000000010000000000000000000000000000000000000000000000000000000000000080000000000000000000000000000000000000000000000000000000000000008009ffffffffffffffffffffffffffffffffffffffffffffffffffffffffffffffffffffffffffffffffffffffffffffffffffffffffffffffffffffffffffffffffffffffffffffffffffffffffffffffffffffffffffffffffffffffffffffffffffffffffffffffffffffffffffffffffffffffffffffffffffffffffffffff97ffffffffffffffffffffffffffffffffffffffffffffffffffffffffffffffffffffffffffffffffffffffffffffffffffffffffffffffffffffffffffffffffffffffffffffffffffffffffffffffffffffffffffffffffffffffffffffffffffffffffffffffffffffffffffffffffffffffffffffffffffffffffffffff97000000000000000000000000000000000000000000000000000000000000001ba071866c4899c1139cef3e8387dcc4a4598766aed592839269ade35a356c2c3d67a067f9180896374ac02c161afd27d1530352294c4afc9b316cdea5d37dc433061b",
                    "logs" : "0x1dcc4de8dec75d7aab85b567b6ccd41ad312451b948a7413f0a142fd40d49347"
                },
                {
                    "indexes" : {
                        "data" : 0,
                        "gas" : 2,
                        "value" : 0
                    },
                    "hash" : "0xd34f058ec1a584190318f435a8e93895ea45dbbd56992bea3a048a6c706ebabd",
                    "txbytes" : "0xf90226010a8301adb094c305c901078781c232a2a521c2af7980f8385ee980b901c430c8d1da0000000000000000000000000000000000000000000000000000000000000020000000000000000000000000000000000000000000000000000000000000016100000000000000000000000000000000000000000000000000000000000000010000000000000000000000000000000000000000000000000000000000000080000000000000000000000000000000000000000000000000000000000000008009ffffffffffffffffffffffffffffffffffffffffffffffffffffffffffffffffffffffffffffffffffffffffffffffffffffffffffffffffffffffffffffffffffffffffffffffffffffffffffffffffffffffffffffffffffffffffffffffffffffffffffffffffffffffffffffffffffffffffffffffffffffffffffffff97ffffffffffffffffffffffffffffffffffffffffffffffffffffffffffffffffffffffffffffffffffffffffffffffffffffffffffffffffffffffffffffffffffffffffffffffffffffffffffffffffffffffffffffffffffffffffffffffffffffffffffffffffffffffffffffffffffffffffffffffffffffffffffffff97000000000000000000000000000000000000000000000000000000000000001ca035b1259d171027e757d2308b1ac6ffa0f334604cdbc5914fc7d85a7644478762a036c46dcb8ece9d026836c71bab2e9abb4f40be3ef94671650a6310c609c791d8",
                    "logs" : "0x1dcc4de8dec75d7aab85b567b6ccd41ad312451b948a7413f0a142fd40d49347"
                }
            ],
            "Istanbul" : [
                {
                    "indexes" : {
                        "data" : 0,
                        "gas" : 0,
                        "value" : 0
                    },
                    "hash" : "0x882e10f3493330de9abbc6012ed86dccd559fafcdc486c50a16500a6fe3b196f",
                    "txbytes" : "0xf90225010a82ebec94c305c901078781c232a2a521c2af7980f8385ee980b901c430c8d1da0000000000000000000000000000000000000000000000000000000000000020000000000000000000000000000000000000000000000000000000000000016100000000000000000000000000000000000000000000000000000000000000010000000000000000000000000000000000000000000000000000000000000080000000000000000000000000000000000000000000000000000000000000008009ffffffffffffffffffffffffffffffffffffffffffffffffffffffffffffffffffffffffffffffffffffffffffffffffffffffffffffffffffffffffffffffffffffffffffffffffffffffffffffffffffffffffffffffffffffffffffffffffffffffffffffffffffffffffffffffffffffffffffffffffffffffffffffff97ffffffffffffffffffffffffffffffffffffffffffffffffffffffffffffffffffffffffffffffffffffffffffffffffffffffffffffffffffffffffffffffffffffffffffffffffffffffffffffffffffffffffffffffffffffffffffffffffffffffffffffffffffffffffffffffffffffffffffffffffffffffffffffff97000000000000000000000000000000000000000000000000000000000000001ca0d311d913ba8aeed38141f6e1aea52ec08638d228fca468aade661d0514c82ee3a0785fe8be789f21541ccc5b59ebd6763ca9f0360bc185fd2c768037923148b04d",
                    "logs" : "0x1dcc4de8dec75d7aab85b567b6ccd41ad312451b948a7413f0a142fd40d49347"
                },
                {
                    "indexes" : {
                        "data" : 0,
                        "gas" : 1,
                        "value" : 0
                    },
                    "hash" : "0xca4e2932594133b33e68cc93163fc1cd76b7791960b121a9be2116272f37001f",
                    "txbytes" : "0xf90226010a83015f9094c305c901078781c232a2a521c2af7980f8385ee980b901c430c8d1da0000000000000000000000000000000000000000000000000000000000000020000000000000000000000000000000000000000000000000000000000000016100000000000000000000000000000000000000000000000000000000000000010000000000000000000000000000000000000000000000000000000000000080000000000000000000000000000000000000000000000000000000000000008009ffffffffffffffffffffffffffffffffffffffffffffffffffffffffffffffffffffffffffffffffffffffffffffffffffffffffffffffffffffffffffffffffffffffffffffffffffffffffffffffffffffffffffffffffffffffffffffffffffffffffffffffffffffffffffffffffffffffffffffffffffffffffffffff97ffffffffffffffffffffffffffffffffffffffffffffffffffffffffffffffffffffffffffffffffffffffffffffffffffffffffffffffffffffffffffffffffffffffffffffffffffffffffffffffffffffffffffffffffffffffffffffffffffffffffffffffffffffffffffffffffffffffffffffffffffffffffffffff97000000000000000000000000000000000000000000000000000000000000001ba071866c4899c1139cef3e8387dcc4a4598766aed592839269ade35a356c2c3d67a067f9180896374ac02c161afd27d1530352294c4afc9b316cdea5d37dc433061b",
                    "logs" : "0x1dcc4de8dec75d7aab85b567b6ccd41ad312451b948a7413f0a142fd40d49347"
                },
                {
                    "indexes" : {
                        "data" : 0,
                        "gas" : 2,
                        "value" : 0
                    },
                    "hash" : "0xd34f058ec1a584190318f435a8e93895ea45dbbd56992bea3a048a6c706ebabd",
                    "txbytes" : "0xf90226010a8301adb094c305c901078781c232a2a521c2af7980f8385ee980b901c430c8d1da0000000000000000000000000000000000000000000000000000000000000020000000000000000000000000000000000000000000000000000000000000016100000000000000000000000000000000000000000000000000000000000000010000000000000000000000000000000000000000000000000000000000000080000000000000000000000000000000000000000000000000000000000000008009ffffffffffffffffffffffffffffffffffffffffffffffffffffffffffffffffffffffffffffffffffffffffffffffffffffffffffffffffffffffffffffffffffffffffffffffffffffffffffffffffffffffffffffffffffffffffffffffffffffffffffffffffffffffffffffffffffffffffffffffffffffffffffffff97ffffffffffffffffffffffffffffffffffffffffffffffffffffffffffffffffffffffffffffffffffffffffffffffffffffffffffffffffffffffffffffffffffffffffffffffffffffffffffffffffffffffffffffffffffffffffffffffffffffffffffffffffffffffffffffffffffffffffffffffffffffffffffffff97000000000000000000000000000000000000000000000000000000000000001ca035b1259d171027e757d2308b1ac6ffa0f334604cdbc5914fc7d85a7644478762a036c46dcb8ece9d026836c71bab2e9abb4f40be3ef94671650a6310c609c791d8",
                    "logs" : "0x1dcc4de8dec75d7aab85b567b6ccd41ad312451b948a7413f0a142fd40d49347"
                }
            ],
            "London" : [
                {
                    "indexes" : {
                        "data" : 0,
                        "gas" : 3,
                        "value" : 0
                    },
                    "hash" : "0x2add401137e825d5f3d9326d717ac0dff30257ca72900fab47646eb520b8da46",
                    "txbytes" : "0xf90226010a83030d4094c305c901078781c232a2a521c2af7980f8385ee980b901c430c8d1da0000000000000000000000000000000000000000000000000000000000000020000000000000000000000000000000000000000000000000000000000000016100000000000000000000000000000000000000000000000000000000000000010000000000000000000000000000000000000000000000000000000000000080000000000000000000000000000000000000000000000000000000000000008009ffffffffffffffffffffffffffffffffffffffffffffffffffffffffffffffffffffffffffffffffffffffffffffffffffffffffffffffffffffffffffffffffffffffffffffffffffffffffffffffffffffffffffffffffffffffffffffffffffffffffffffffffffffffffffffffffffffffffffffffffffffffffffffff97ffffffffffffffffffffffffffffffffffffffffffffffffffffffffffffffffffffffffffffffffffffffffffffffffffffffffffffffffffffffffffffffffffffffffffffffffffffffffffffffffffffffffffffffffffffffffffffffffffffffffffffffffffffffffffffffffffffffffffffffffffffffffffffff97000000000000000000000000000000000000000000000000000000000000001ca0ac110be5bb46d83ad289b34ca1f6d44fdb33e857a37e2ba50d1a36354539ff01a0390dc9f601ede0ce5de7426afad3ef78cba94a2a07775ee4b6b4313916a68eef",
                    "logs" : "0x1dcc4de8dec75d7aab85b567b6ccd41ad312451b948a7413f0a142fd40d49347"
                },
                {
                    "indexes" : {
                        "data" : 0,
                        "gas" : 0,
                        "value" : 0
                    },
                    "hash" : "0xc8b10ae3316a8250f48d73d737c61b6dac258207315323a39380217c77c8fda2",
                    "txbytes" : "0xf90225010a82ebec94c305c901078781c232a2a521c2af7980f8385ee980b901c430c8d1da0000000000000000000000000000000000000000000000000000000000000020000000000000000000000000000000000000000000000000000000000000016100000000000000000000000000000000000000000000000000000000000000010000000000000000000000000000000000000000000000000000000000000080000000000000000000000000000000000000000000000000000000000000008009ffffffffffffffffffffffffffffffffffffffffffffffffffffffffffffffffffffffffffffffffffffffffffffffffffffffffffffffffffffffffffffffffffffffffffffffffffffffffffffffffffffffffffffffffffffffffffffffffffffffffffffffffffffffffffffffffffffffffffffffffffffffffffffff97ffffffffffffffffffffffffffffffffffffffffffffffffffffffffffffffffffffffffffffffffffffffffffffffffffffffffffffffffffffffffffffffffffffffffffffffffffffffffffffffffffffffffffffffffffffffffffffffffffffffffffffffffffffffffffffffffffffffffffffffffffffffffffffff97000000000000000000000000000000000000000000000000000000000000001ca0d311d913ba8aeed38141f6e1aea52ec08638d228fca468aade661d0514c82ee3a0785fe8be789f21541ccc5b59ebd6763ca9f0360bc185fd2c768037923148b04d",
                    "logs" : "0x1dcc4de8dec75d7aab85b567b6ccd41ad312451b948a7413f0a142fd40d49347"
                },
                {
                    "indexes" : {
                        "data" : 0,
                        "gas" : 1,
                        "value" : 0
                    },
                    "hash" : "0x8eeb003202ba4d866143287f8be2d1d66c11cbe79118d5d0eab25d98a4b66092",
                    "txbytes" : "0xf90226010a83015f9094c305c901078781c232a2a521c2af7980f8385ee980b901c430c8d1da0000000000000000000000000000000000000000000000000000000000000020000000000000000000000000000000000000000000000000000000000000016100000000000000000000000000000000000000000000000000000000000000010000000000000000000000000000000000000000000000000000000000000080000000000000000000000000000000000000000000000000000000000000008009ffffffffffffffffffffffffffffffffffffffffffffffffffffffffffffffffffffffffffffffffffffffffffffffffffffffffffffffffffffffffffffffffffffffffffffffffffffffffffffffffffffffffffffffffffffffffffffffffffffffffffffffffffffffffffffffffffffffffffffffffffffffffffffff97ffffffffffffffffffffffffffffffffffffffffffffffffffffffffffffffffffffffffffffffffffffffffffffffffffffffffffffffffffffffffffffffffffffffffffffffffffffffffffffffffffffffffffffffffffffffffffffffffffffffffffffffffffffffffffffffffffffffffffffffffffffffffffffff97000000000000000000000000000000000000000000000000000000000000001ba071866c4899c1139cef3e8387dcc4a4598766aed592839269ade35a356c2c3d67a067f9180896374ac02c161afd27d1530352294c4afc9b316cdea5d37dc433061b",
                    "logs" : "0x1dcc4de8dec75d7aab85b567b6ccd41ad312451b948a7413f0a142fd40d49347"
                },
                {
                    "indexes" : {
                        "data" : 0,
                        "gas" : 2,
                        "value" : 0
                    },
                    "hash" : "0xf34da5bbe3579ae1595b6ad03a30ccb5b9bf4f31781f5b6932439f7d425a4c66",
                    "txbytes" : "0xf90226010a8301adb094c305c901078781c232a2a521c2af7980f8385ee980b901c430c8d1da0000000000000000000000000000000000000000000000000000000000000020000000000000000000000000000000000000000000000000000000000000016100000000000000000000000000000000000000000000000000000000000000010000000000000000000000000000000000000000000000000000000000000080000000000000000000000000000000000000000000000000000000000000008009ffffffffffffffffffffffffffffffffffffffffffffffffffffffffffffffffffffffffffffffffffffffffffffffffffffffffffffffffffffffffffffffffffffffffffffffffffffffffffffffffffffffffffffffffffffffffffffffffffffffffffffffffffffffffffffffffffffffffffffffffffffffffffffff97ffffffffffffffffffffffffffffffffffffffffffffffffffffffffffffffffffffffffffffffffffffffffffffffffffffffffffffffffffffffffffffffffffffffffffffffffffffffffffffffffffffffffffffffffffffffffffffffffffffffffffffffffffffffffffffffffffffffffffffffffffffffffffffff97000000000000000000000000000000000000000000000000000000000000001ca035b1259d171027e757d2308b1ac6ffa0f334604cdbc5914fc7d85a7644478762a036c46dcb8ece9d026836c71bab2e9abb4f40be3ef94671650a6310c609c791d8",
                    "logs" : "0x1dcc4de8dec75d7aab85b567b6ccd41ad312451b948a7413f0a142fd40d49347"
                }
            ]
        },
        "pre" : {
            "0x0000000000000000000000000000000000000001" : {
                "balance" : "0x01",
                "code" : "0x",
                "nonce" : "0x00",
                "storage" : {
                }
            },
            "0x0000000000000000000000000000000000000002" : {
                "balance" : "0x01",
                "code" : "0x",
                "nonce" : "0x00",
                "storage" : {
                }
            },
            "0x0000000000000000000000000000000000000003" : {
                "balance" : "0x01",
                "code" : "0x",
                "nonce" : "0x00",
                "storage" : {
                }
            },
            "0x0000000000000000000000000000000000000004" : {
                "balance" : "0x01",
                "code" : "0x",
                "nonce" : "0x00",
                "storage" : {
                }
            },
            "0x0000000000000000000000000000000000000005" : {
                "balance" : "0x01",
                "code" : "0x",
                "nonce" : "0x00",
                "storage" : {
                }
            },
            "0x0000000000000000000000000000000000000006" : {
                "balance" : "0x01",
                "code" : "0x",
                "nonce" : "0x00",
                "storage" : {
                }
            },
            "0x0000000000000000000000000000000000000007" : {
                "balance" : "0x01",
                "code" : "0x",
                "nonce" : "0x00",
                "storage" : {
                }
            },
            "0x0000000000000000000000000000000000000008" : {
                "balance" : "0x01",
                "code" : "0x",
                "nonce" : "0x00",
                "storage" : {
                }
            },
            "0x3535353535353535353535353535353535353535" : {
                "balance" : "0x0202fa",
                "code" : "0x",
                "nonce" : "0x00",
                "storage" : {
                }
            },
            "0x82a978b3f5962a5b0957d9ee9eef472ee55b42f1" : {
                "balance" : "0x0de0b6b3a761fd06",
                "code" : "0x",
                "nonce" : "0x01",
                "storage" : {
                }
            },
            "0xc305c901078781c232a2a521c2af7980f8385ee9" : {
                "balance" : "0x00",
                "code" : "0x600035601c52740100000000000000000000000000000000000000006020526fffffffffffffffffffffffffffffffff6040527fffffffffffffffffffffffffffffffff000000000000000000000000000000016060527402540be3fffffffffffffffffffffffffdabf41c006080527ffffffffffffffffffffffffdabf41c00000000000000000000000002540be40060a0526330c8d1da600051141561012c576101856004356004013511151558576004356004013560200160043560040161014037608061034061014051610160600060056305f5e0fff115585760806103205261032060a0806103e08284600060046022f15050506103e08051602082012090506000556103e060206020820352604081510160206001820306601f820103905060208203f350005b",
                "nonce" : "0x01",
                "storage" : {
                }
            }
        },
        "transaction" : {
            "data" : [
                "0x30c8d1da0000000000000000000000000000000000000000000000000000000000000020000000000000000000000000000000000000000000000000000000000000016100000000000000000000000000000000000000000000000000000000000000010000000000000000000000000000000000000000000000000000000000000080000000000000000000000000000000000000000000000000000000000000008009ffffffffffffffffffffffffffffffffffffffffffffffffffffffffffffffffffffffffffffffffffffffffffffffffffffffffffffffffffffffffffffffffffffffffffffffffffffffffffffffffffffffffffffffffffffffffffffffffffffffffffffffffffffffffffffffffffffffffffffffffffffffffffffff97ffffffffffffffffffffffffffffffffffffffffffffffffffffffffffffffffffffffffffffffffffffffffffffffffffffffffffffffffffffffffffffffffffffffffffffffffffffffffffffffffffffffffffffffffffffffffffffffffffffffffffffffffffffffffffffffffffffffffffffffffffffffffffffff9700000000000000000000000000000000000000000000000000000000000000"
            ],
            "gasPrice" : "0x0a",
            "gasLimit" : [
                "0xebec",
                "0x015f90",
                "0x01adb0",
                "0x030d40"
            ],
            "nonce" : "0x01",
            "secretKey" : "0x044852b2a670ade5407e78fb2863c51de9fcb96542a07186fe3aeda6bb8a116d",
            "to" : "0xc305c901078781c232a2a521c2af7980f8385ee9",
            "value" : [
                "0x00"
            ]
        }
    }
}