{
    "modexp_39936_1_55201_22000" : {
        "_info" : {
            "comment" : "Puts the base 115792089237316195423570985008687907853269984665640564039457584007913129639936, exponent 1 and modulus 21847450052839212624230656502990235142567050104912751880812823948662932355201 into the MODEXP precompile, saves the hash of the result. Gives the execution 22000 gas",
            "filling-rpc-server" : "evm version 1.10.4-unstable-966ee3ae-20210528",
            "filling-tool-version" : "retesteth-0.1.1-eip1559+commit.658fc3a8.Linux.g++",
            "lllcversion" : "Version: 0.5.14-develop.2021.5.18+commit.14c9d5de.mod.Linux.g++",
            "source" : "src/GeneralStateTestsFiller/stPreCompiledContracts/modexp_39936_1_55201_22000Filler.json",
            "sourceHash" : "aa557f54d4f206c37c84a20b26e5f03be0aa2eaef8fcc4e5eaa665cc94018d0d"
        },
        "env" : {
            "currentCoinbase" : "0x3535353535353535353535353535353535353535",
            "currentDifficulty" : "0x020000",
            "currentNumber" : "0x01",
            "currentTimestamp" : "0x03e8",
            "previousHash" : "0xc6745cf3cada515bbfb9573261c82547e0b8f9e3d5dd382e464704a84e47b5ad",
            "currentGasLimit" : "0x05f5e100"
        },
        "post" : {
            "Berlin" : [
                {
                    "indexes" : {
                        "data" : 0,
                        "gas" : 0,
                        "value" : 0
                    },
                    "hash" : "0xc65a1ce329fc66bb92ec40f9c75525ea118b3395cabd7f01783fed2d6821b1d3",
                    "txbytes" : "0xf90165010a82b6c894c305c901078781c232a2a521c2af7980f8385ee980b9010430c8d1da000000000000000000000000000000000000000000000000000000000000002000000000000000000000000000000000000000000000000000000000000000a200000000000000000000000000000000000000000000000000000000000000210000000000000000000000000000000000000000000000000000000000000001000000000000000000000000000000000000000000000000000000000000002001000000000000000000000000000000000000000000000000000000000000000001304d37f120d696c834550e63d9bb9c14b4f9165c9ede434e4644e3998d6db8810000000000000000000000000000000000000000000000000000000000001ba074923fb9b3fd300a726168608ea2c6c15899a83aef4dbe4e20773be6c9a2a142a0599348e8f0581cf9fb022396982672807793bd741da68ffce57d86723fa96b59",
                    "logs" : "0x1dcc4de8dec75d7aab85b567b6ccd41ad312451b948a7413f0a142fd40d49347"
                },
                {
                    "indexes" : {
                        "data" : 0,
                        "gas" : 1,
                        "value" : 0
                    },
                    "hash" : "0xc65a1ce329fc66bb92ec40f9c75525ea118b3395cabd7f01783fed2d6821b1d3",
                    "txbytes" : "0xf90166010a83015f9094c305c901078781c232a2a521c2af7980f8385ee980b9010430c8d1da000000000000000000000000000000000000000000000000000000000000002000000000000000000000000000000000000000000000000000000000000000a200000000000000000000000000000000000000000000000000000000000000210000000000000000000000000000000000000000000000000000000000000001000000000000000000000000000000000000000000000000000000000000002001000000000000000000000000000000000000000000000000000000000000000001304d37f120d696c834550e63d9bb9c14b4f9165c9ede434e4644e3998d6db8810000000000000000000000000000000000000000000000000000000000001ca04b9ed63b0783af9d5fa14d0753a8210699b9af2071688a9904d1d72bce5588cfa02803c5d28982380c763de8ccec25d9ff6c53839ce2877aa0e9a6c31f18e65a28",
                    "logs" : "0x1dcc4de8dec75d7aab85b567b6ccd41ad312451b948a7413f0a142fd40d49347"
                },
                {
                    "indexes" : {
                        "data" : 0,
                        "gas" : 2,
                        "value" : 0
                    },
                    "hash" : "0xc65a1ce329fc66bb92ec40f9c75525ea118b3395cabd7f01783fed2d6821b1d3",
                    "txbytes" : "0xf90166010a8301adb094c305c901078781c232a2a521c2af7980f8385ee980b9010430c8d1da000000000000000000000000000000000000000000000000000000000000002000000000000000000000000000000000000000000000000000000000000000a200000000000000000000000000000000000000000000000000000000000000210000000000000000000000000000000000000000000000000000000000000001000000000000000000000000000000000000000000000000000000000000002001000000000000000000000000000000000000000000000000000000000000000001304d37f120d696c834550e63d9bb9c14b4f9165c9ede434e4644e3998d6db8810000000000000000000000000000000000000000000000000000000000001ca0a19062c496e9fc34a48ff7a2a8d84098533d7f98c39ef8a35e702528b27a9d72a039772efce4d8344814bbc15556a5249a1d6c577c61a0114cb3041d438c94778c",
                    "logs" : "0x1dcc4de8dec75d7aab85b567b6ccd41ad312451b948a7413f0a142fd40d49347"
                },
                {
                    "indexes" : {
                        "data" : 0,
                        "gas" : 3,
                        "value" : 0
                    },
                    "hash" : "0xc65a1ce329fc66bb92ec40f9c75525ea118b3395cabd7f01783fed2d6821b1d3",
                    "txbytes" : "0xf90166010a83030d4094c305c901078781c232a2a521c2af7980f8385ee980b9010430c8d1da000000000000000000000000000000000000000000000000000000000000002000000000000000000000000000000000000000000000000000000000000000a200000000000000000000000000000000000000000000000000000000000000210000000000000000000000000000000000000000000000000000000000000001000000000000000000000000000000000000000000000000000000000000002001000000000000000000000000000000000000000000000000000000000000000001304d37f120d696c834550e63d9bb9c14b4f9165c9ede434e4644e3998d6db8810000000000000000000000000000000000000000000000000000000000001ba043f19055f2ef0e52a2884769a543351cc063fdad805f634ff71f79394e86b8fea0410b7c8d122b2f60d739111f7b06a3120f2c3a214448093904a95ce049f14323",
                    "logs" : "0x1dcc4de8dec75d7aab85b567b6ccd41ad312451b948a7413f0a142fd40d49347"
                }
            ],
            "Istanbul" : [
                {
                    "indexes" : {
                        "data" : 0,
                        "gas" : 0,
                        "value" : 0
                    },
                    "hash" : "0x8248c1da2908c4457f09dbd8ee94be6ff0780c54ad2220a783e4fb5eafede778",
                    "txbytes" : "0xf90165010a82b6c894c305c901078781c232a2a521c2af7980f8385ee980b9010430c8d1da000000000000000000000000000000000000000000000000000000000000002000000000000000000000000000000000000000000000000000000000000000a200000000000000000000000000000000000000000000000000000000000000210000000000000000000000000000000000000000000000000000000000000001000000000000000000000000000000000000000000000000000000000000002001000000000000000000000000000000000000000000000000000000000000000001304d37f120d696c834550e63d9bb9c14b4f9165c9ede434e4644e3998d6db8810000000000000000000000000000000000000000000000000000000000001ba074923fb9b3fd300a726168608ea2c6c15899a83aef4dbe4e20773be6c9a2a142a0599348e8f0581cf9fb022396982672807793bd741da68ffce57d86723fa96b59",
                    "logs" : "0x1dcc4de8dec75d7aab85b567b6ccd41ad312451b948a7413f0a142fd40d49347"
                },
                {
                    "indexes" : {
                        "data" : 0,
                        "gas" : 1,
                        "value" : 0
                    },
                    "hash" : "0x8248c1da2908c4457f09dbd8ee94be6ff0780c54ad2220a783e4fb5eafede778",
                    "txbytes" : "0xf90166010a83015f9094c305c901078781c232a2a521c2af7980f8385ee980b9010430c8d1da000000000000000000000000000000000000000000000000000000000000002000000000000000000000000000000000000000000000000000000000000000a200000000000000000000000000000000000000000000000000000000000000210000000000000000000000000000000000000000000000000000000000000001000000000000000000000000000000000000000000000000000000000000002001000000000000000000000000000000000000000000000000000000000000000001304d37f120d696c834550e63d9bb9c14b4f9165c9ede434e4644e3998d6db8810000000000000000000000000000000000000000000000000000000000001ca04b9ed63b0783af9d5fa14d0753a8210699b9af2071688a9904d1d72bce5588cfa02803c5d28982380c763de8ccec25d9ff6c53839ce2877aa0e9a6c31f18e65a28",
                    "logs" : "0x1dcc4de8dec75d7aab85b567b6ccd41ad312451b948a7413f0a142fd40d49347"
                },
                {
                    "indexes" : {
                        "data" : 0,
                        "gas" : 2,
                        "value" : 0
                    },
                    "hash" : "0x8248c1da2908c4457f09dbd8ee94be6ff0780c54ad2220a783e4fb5eafede778",
                    "txbytes" : "0xf90166010a8301adb094c305c901078781c232a2a521c2af7980f8385ee980b9010430c8d1da000000000000000000000000000000000000000000000000000000000000002000000000000000000000000000000000000000000000000000000000000000a200000000000000000000000000000000000000000000000000000000000000210000000000000000000000000000000000000000000000000000000000000001000000000000000000000000000000000000000000000000000000000000002001000000000000000000000000000000000000000000000000000000000000000001304d37f120d696c834550e63d9bb9c14b4f9165c9ede434e4644e3998d6db8810000000000000000000000000000000000000000000000000000000000001ca0a19062c496e9fc34a48ff7a2a8d84098533d7f98c39ef8a35e702528b27a9d72a039772efce4d8344814bbc15556a5249a1d6c577c61a0114cb3041d438c94778c",
                    "logs" : "0x1dcc4de8dec75d7aab85b567b6ccd41ad312451b948a7413f0a142fd40d49347"
                },
                {
                    "indexes" : {
                        "data" : 0,
                        "gas" : 3,
                        "value" : 0
                    },
                    "hash" : "0x8248c1da2908c4457f09dbd8ee94be6ff0780c54ad2220a783e4fb5eafede778",
                    "txbytes" : "0xf90166010a83030d4094c305c901078781c232a2a521c2af7980f8385ee980b9010430c8d1da000000000000000000000000000000000000000000000000000000000000002000000000000000000000000000000000000000000000000000000000000000a200000000000000000000000000000000000000000000000000000000000000210000000000000000000000000000000000000000000000000000000000000001000000000000000000000000000000000000000000000000000000000000002001000000000000000000000000000000000000000000000000000000000000000001304d37f120d696c834550e63d9bb9c14b4f9165c9ede434e4644e3998d6db8810000000000000000000000000000000000000000000000000000000000001ba043f19055f2ef0e52a2884769a543351cc063fdad805f634ff71f79394e86b8fea0410b7c8d122b2f60d739111f7b06a3120f2c3a214448093904a95ce049f14323",
                    "logs" : "0x1dcc4de8dec75d7aab85b567b6ccd41ad312451b948a7413f0a142fd40d49347"
                }
            ],
            "London" : [
                {
                    "indexes" : {
                        "data" : 0,
                        "gas" : 0,
                        "value" : 0
                    },
                    "hash" : "0x47a5dcd4be74fb7d67a03af8c3505977784cd09950dab45ee83d7aaa690766d0",
                    "txbytes" : "0xf90165010a82b6c894c305c901078781c232a2a521c2af7980f8385ee980b9010430c8d1da000000000000000000000000000000000000000000000000000000000000002000000000000000000000000000000000000000000000000000000000000000a200000000000000000000000000000000000000000000000000000000000000210000000000000000000000000000000000000000000000000000000000000001000000000000000000000000000000000000000000000000000000000000002001000000000000000000000000000000000000000000000000000000000000000001304d37f120d696c834550e63d9bb9c14b4f9165c9ede434e4644e3998d6db8810000000000000000000000000000000000000000000000000000000000001ba074923fb9b3fd300a726168608ea2c6c15899a83aef4dbe4e20773be6c9a2a142a0599348e8f0581cf9fb022396982672807793bd741da68ffce57d86723fa96b59",
                    "logs" : "0x1dcc4de8dec75d7aab85b567b6ccd41ad312451b948a7413f0a142fd40d49347"
                },
                {
                    "indexes" : {
                        "data" : 0,
                        "gas" : 1,
                        "value" : 0
                    },
                    "hash" : "0x47a5dcd4be74fb7d67a03af8c3505977784cd09950dab45ee83d7aaa690766d0",
                    "txbytes" : "0xf90166010a83015f9094c305c901078781c232a2a521c2af7980f8385ee980b9010430c8d1da000000000000000000000000000000000000000000000000000000000000002000000000000000000000000000000000000000000000000000000000000000a200000000000000000000000000000000000000000000000000000000000000210000000000000000000000000000000000000000000000000000000000000001000000000000000000000000000000000000000000000000000000000000002001000000000000000000000000000000000000000000000000000000000000000001304d37f120d696c834550e63d9bb9c14b4f9165c9ede434e4644e3998d6db8810000000000000000000000000000000000000000000000000000000000001ca04b9ed63b0783af9d5fa14d0753a8210699b9af2071688a9904d1d72bce5588cfa02803c5d28982380c763de8ccec25d9ff6c53839ce2877aa0e9a6c31f18e65a28",
                    "logs" : "0x1dcc4de8dec75d7aab85b567b6ccd41ad312451b948a7413f0a142fd40d49347"
                },
                {
                    "indexes" : {
                        "data" : 0,
                        "gas" : 2,
                        "value" : 0
                    },
                    "hash" : "0x47a5dcd4be74fb7d67a03af8c3505977784cd09950dab45ee83d7aaa690766d0",
                    "txbytes" : "0xf90166010a8301adb094c305c901078781c232a2a521c2af7980f8385ee980b9010430c8d1da000000000000000000000000000000000000000000000000000000000000002000000000000000000000000000000000000000000000000000000000000000a200000000000000000000000000000000000000000000000000000000000000210000000000000000000000000000000000000000000000000000000000000001000000000000000000000000000000000000000000000000000000000000002001000000000000000000000000000000000000000000000000000000000000000001304d37f120d696c834550e63d9bb9c14b4f9165c9ede434e4644e3998d6db8810000000000000000000000000000000000000000000000000000000000001ca0a19062c496e9fc34a48ff7a2a8d84098533d7f98c39ef8a35e702528b27a9d72a039772efce4d8344814bbc15556a5249a1d6c577c61a0114cb3041d438c94778c",
                    "logs" : "0x1dcc4de8dec75d7aab85b567b6ccd41ad312451b948a7413f0a142fd40d49347"
                },
                {
                    "indexes" : {
                        "data" : 0,
                        "gas" : 3,
                        "value" : 0
                    },
                    "hash" : "0x47a5dcd4be74fb7d67a03af8c3505977784cd09950dab45ee83d7aaa690766d0",
                    "txbytes" : "0xf90166010a83030d4094c305c901078781c232a2a521c2af7980f8385ee980b9010430c8d1da000000000000000000000000000000000000000000000000000000000000002000000000000000000000000000000000000000000000000000000000000000a200000000000000000000000000000000000000000000000000000000000000210000000000000000000000000000000000000000000000000000000000000001000000000000000000000000000000000000000000000000000000000000002001000000000000000000000000000000000000000000000000000000000000000001304d37f120d696c834550e63d9bb9c14b4f9165c9ede434e4644e3998d6db8810000000000000000000000000000000000000000000000000000000000001ba043f19055f2ef0e52a2884769a543351cc063fdad805f634ff71f79394e86b8fea0410b7c8d122b2f60d739111f7b06a3120f2c3a214448093904a95ce049f14323",
                    "logs" : "0x1dcc4de8dec75d7aab85b567b6ccd41ad312451b948a7413f0a142fd40d49347"
                }
            ]
        },
        "pre" : {
            "0x0000000000000000000000000000000000000001" : {
                "balance" : "0x01",
                "code" : "0x",
                "nonce" : "0x00",
                "storage" : {
                }
            },
            "0x0000000000000000000000000000000000000002" : {
                "balance" : "0x01",
                "code" : "0x",
                "nonce" : "0x00",
                "storage" : {
                }
            },
            "0x0000000000000000000000000000000000000003" : {
                "balance" : "0x01",
                "code" : "0x",
                "nonce" : "0x00",
                "storage" : {
                }
            },
            "0x0000000000000000000000000000000000000004" : {
                "balance" : "0x01",
                "code" : "0x",
                "nonce" : "0x00",
                "storage" : {
                }
            },
            "0x0000000000000000000000000000000000000005" : {
                "balance" : "0x01",
                "code" : "0x",
                "nonce" : "0x00",
                "storage" : {
                }
            },
            "0x0000000000000000000000000000000000000006" : {
                "balance" : "0x01",
                "code" : "0x",
                "nonce" : "0x00",
                "storage" : {
                }
            },
            "0x0000000000000000000000000000000000000007" : {
                "balance" : "0x01",
                "code" : "0x",
                "nonce" : "0x00",
                "storage" : {
                }
            },
            "0x0000000000000000000000000000000000000008" : {
                "balance" : "0x01",
                "code" : "0x",
                "nonce" : "0x00",
                "storage" : {
                }
            },
            "0x3535353535353535353535353535353535353535" : {
                "balance" : "0x0201ee",
                "code" : "0x",
                "nonce" : "0x00",
                "storage" : {
                }
            },
            "0x82a978b3f5962a5b0957d9ee9eef472ee55b42f1" : {
                "balance" : "0x0de0b6b3a761fe12",
                "code" : "0x",
                "nonce" : "0x01",
                "storage" : {
                }
            },
            "0xc305c901078781c232a2a521c2af7980f8385ee9" : {
                "balance" : "0x00",
                "code" : "0x600035601c52740100000000000000000000000000000000000000006020526fffffffffffffffffffffffffffffffff6040527fffffffffffffffffffffffffffffffff000000000000000000000000000000016060527402540be3fffffffffffffffffffffffffdabf41c006080527ffffffffffffffffffffffffdabf41c00000000000000000000000002540be40060a0526330c8d1da600051141561012b5760c66004356004013511151558576004356004013560200160043560040161014037602061028061014051610160600060056305f5e0fff11558576020610260526102606040806102c08284600060046018f15050506102c08051602082012090506000556102c060206020820352604081510160206001820306601f820103905060208203f350005b",
                "nonce" : "0x01",
                "storage" : {
                }
            }
        },
        "transaction" : {
            "data" : [
                "0x30c8d1da000000000000000000000000000000000000000000000000000000000000002000000000000000000000000000000000000000000000000000000000000000a200000000000000000000000000000000000000000000000000000000000000210000000000000000000000000000000000000000000000000000000000000001000000000000000000000000000000000000000000000000000000000000002001000000000000000000000000000000000000000000000000000000000000000001304d37f120d696c834550e63d9bb9c14b4f9165c9ede434e4644e3998d6db881000000000000000000000000000000000000000000000000000000000000"
            ],
            "gasPrice" : "0x0a",
            "gasLimit" : [
                "0xb6c8",
                "0x015f90",
                "0x01adb0",
                "0x030d40"
            ],
            "nonce" : "0x01",
            "secretKey" : "0x044852b2a670ade5407e78fb2863c51de9fcb96542a07186fe3aeda6bb8a116d",
            "to" : "0xc305c901078781c232a2a521c2af7980f8385ee9",
            "value" : [
                "0x00"
            ]
        }
    }
}