{
    "codeCopyZero_d0g0v0_Berlin" : {
        "_info" : {
            "comment" : "https://github.com/ethereum/tests/issues/493,  CODECOPY and EXTCODECOPY where codesize = 0",
            "filling-rpc-server" : "evm version 1.10.4-unstable-966ee3ae-20210528",
            "filling-tool-version" : "retesteth-0.1.1-eip1559+commit.658fc3a8.Linux.g++",
            "lllcversion" : "Version: 0.5.14-develop.2021.5.18+commit.14c9d5de.mod.Linux.g++",
            "source" : "src/GeneralStateTestsFiller/stExtCodeHash/codeCopyZeroFiller.yml",
            "sourceHash" : "3488d74b381bcaad20a25cbedd2e6a9c676330c53780987d2f41da50690ece43"
        },
        "genesisBlockHeader" : {
            "bloom" : "0x00000000000000000000000000000000000000000000000000000000000000000000000000000000000000000000000000000000000000000000000000000000000000000000000000000000000000000000000000000000000000000000000000000000000000000000000000000000000000000000000000000000000000000000000000000000000000000000000000000000000000000000000000000000000000000000000000000000000000000000000000000000000000000000000000000000000000000000000000000000000000000000000000000000000000000000000000000000000000000000000000000000000000000000000000000000",
            "coinbase" : "0x2adc25665018aa1fe0e6bc666dac8fc2697ff9ba",
            "difficulty" : "0x020000",
            "extraData" : "0x00",
            "gasLimit" : "0x989680",
            "gasUsed" : "0x00",
            "hash" : "0xd161a1b81ee586f70902e8a44afcfecc73cbadcda65aa77f4760b896bba47c21",
            "mixHash" : "0x0000000000000000000000000000000000000000000000000000000000000000",
            "nonce" : "0x0000000000000000",
            "number" : "0x00",
            "parentHash" : "0x0000000000000000000000000000000000000000000000000000000000000000",
            "receiptTrie" : "0x56e81f171bcc55a6ff8345e692c0f86e5b48e01b996cadc001622fb5e363b421",
            "stateRoot" : "0xa7a08073c2056a211a5ccaccd85b9fad63ae25285552b68b2bb2135fbc29b051",
            "timestamp" : "0x00",
            "transactionsTrie" : "0x56e81f171bcc55a6ff8345e692c0f86e5b48e01b996cadc001622fb5e363b421",
            "uncleHash" : "0x1dcc4de8dec75d7aab85b567b6ccd41ad312451b948a7413f0a142fd40d49347"
        },
        "pre" : {
            "0xa000000000000000000000000000000000000000" : {
                "balance" : "0x0de0b6b3a7640000",
                "code" : "0x60206000600073a2220000000000000000000000000000000000003c60005160105573a2220000000000000000000000000000000000003b60115573a2220000000000000000000000000000000000003f6012556000600060006000600073a22200000000000000000000000000000000000061c350f260135560206000600073a2000000000000000000000000000000000000003c60005160205573a2000000000000000000000000000000000000003b60215573a2000000000000000000000000000000000000003f6022556000600060006000600073a20000000000000000000000000000000000000061c350f260235560206000600073a3000000000000000000000000000000000000003c60005160305573a3000000000000000000000000000000000000003b60315573a3000000000000000000000000000000000000003f6032556000600060006000600073a30000000000000000000000000000000000000061c350f26033556020600060006000600073a10000000000000000000000000000000000000062086470f15060005160405500",
                "nonce" : "0x00",
                "storage" : {
                }
            },
            "0xa100000000000000000000000000000000000000" : {
                "balance" : "0x0de0b6b3a7640000",
                "code" : "0x6000603980601a60003960006000f560005260206000f30000fe60206000600039600051605055303b605155303f605255600060006000600060003061c350f23b605355602060006000303c60005160545500",
                "nonce" : "0x00",
                "storage" : {
                }
            },
            "0xa200000000000000000000000000000000000000" : {
                "balance" : "0x0de0b6b3a7640000",
                "code" : "0x",
                "nonce" : "0x00",
                "storage" : {
                }
            },
            "0xa300000000000000000000000000000000000000" : {
                "balance" : "0x00",
                "code" : "0x",
                "nonce" : "0x00",
                "storage" : {
                }
            },
            "0xa94f5374fce5edbc8e2a8697c15331677e6ebf0b" : {
                "balance" : "0x0de0b6b3a7640000",
                "code" : "0x00",
                "nonce" : "0x00",
                "storage" : {
                }
            }
        },
        "postState" : {
            "0x2adc25665018aa1fe0e6bc666dac8fc2697ff9ba" : {
                "code" : "0x",
                "nonce" : "0x00",
                "balance" : "0x1bc16d674eed3d84",
                "storage" : {
                }
            },
            "0x64bc50092fd622c9cc47d658b99c1af75aaa3d68" : {
                "code" : "0x",
                "nonce" : "0x01",
                "balance" : "0x00",
                "storage" : {
                    "0x50" : "0x60206000600039600051605055303b605155303f605255600060006000600060",
                    "0x52" : "0xc5d2460186f7233c927e7db2dcc703c0e500b653ca82273b7bfad8045d85a470"
                }
            },
            "0xa000000000000000000000000000000000000000" : {
                "code" : "0x60206000600073a2220000000000000000000000000000000000003c60005160105573a2220000000000000000000000000000000000003b60115573a2220000000000000000000000000000000000003f6012556000600060006000600073a22200000000000000000000000000000000000061c350f260135560206000600073a2000000000000000000000000000000000000003c60005160205573a2000000000000000000000000000000000000003b60215573a2000000000000000000000000000000000000003f6022556000600060006000600073a20000000000000000000000000000000000000061c350f260235560206000600073a3000000000000000000000000000000000000003c60005160305573a3000000000000000000000000000000000000003b60315573a3000000000000000000000000000000000000003f6032556000600060006000600073a30000000000000000000000000000000000000061c350f26033556020600060006000600073a10000000000000000000000000000000000000062086470f15060005160405500",
                "nonce" : "0x00",
                "balance" : "0x0de0b6b3a7640001",
                "storage" : {
                    "0x13" : "0x01",
                    "0x22" : "0xc5d2460186f7233c927e7db2dcc703c0e500b653ca82273b7bfad8045d85a470",
                    "0x23" : "0x01",
                    "0x33" : "0x01",
                    "0x40" : "0x64bc50092fd622c9cc47d658b99c1af75aaa3d68"
                }
            },
            "0xa100000000000000000000000000000000000000" : {
                "code" : "0x6000603980601a60003960006000f560005260206000f30000fe60206000600039600051605055303b605155303f605255600060006000600060003061c350f23b605355602060006000303c60005160545500",
                "nonce" : "0x01",
                "balance" : "0x0de0b6b3a7640000",
                "storage" : {
                }
            },
            "0xa200000000000000000000000000000000000000" : {
                "code" : "0x",
                "nonce" : "0x00",
                "balance" : "0x0de0b6b3a7640000",
                "storage" : {
                }
            },
            "0xa300000000000000000000000000000000000000" : {
                "code" : "0x",
                "nonce" : "0x00",
                "balance" : "0x00",
                "storage" : {
                }
            },
            "0xa94f5374fce5edbc8e2a8697c15331677e6ebf0b" : {
                "code" : "0x00",
                "nonce" : "0x01",
                "balance" : "0x0de0b6b3a73ec27b",
                "storage" : {
                }
            }
        },
        "network" : "Berlin",
        "sealEngine" : "NoProof",
        "lastblockhash" : "0xc5e40f1253ab6a9b4f06c11cbabce92b74f3458fe057e0226f66f79ab2ec0700",
        "genesisRLP" : "0xf901f8f901f3a00000000000000000000000000000000000000000000000000000000000000000a01dcc4de8dec75d7aab85b567b6ccd41ad312451b948a7413f0a142fd40d49347942adc25665018aa1fe0e6bc666dac8fc2697ff9baa0a7a08073c2056a211a5ccaccd85b9fad63ae25285552b68b2bb2135fbc29b051a056e81f171bcc55a6ff8345e692c0f86e5b48e01b996cadc001622fb5e363b421a056e81f171bcc55a6ff8345e692c0f86e5b48e01b996cadc001622fb5e363b421b9010000000000000000000000000000000000000000000000000000000000000000000000000000000000000000000000000000000000000000000000000000000000000000000000000000000000000000000000000000000000000000000000000000000000000000000000000000000000000000000000000000000000000000000000000000000000000000000000000000000000000000000000000000000000000000000000000000000000000000000000000000000000000000000000000000000000000000000000000000000000000000000000000000000000000000000000000000000000000000000000000000000000000000000000000000000000830200008083989680808000a00000000000000000000000000000000000000000000000000000000000000000880000000000000000c0c0",
        "blocks" : [
            {
                "rlp" : "0xf90260f901f8a0d161a1b81ee586f70902e8a44afcfecc73cbadcda65aa77f4760b896bba47c21a01dcc4de8dec75d7aab85b567b6ccd41ad312451b948a7413f0a142fd40d49347942adc25665018aa1fe0e6bc666dac8fc2697ff9baa04f1bab7703554c11b4772b5df87912272767ce223a03d484117878a432855951a04819539c6fca0410aa37aa95a69db41135ed634740f8850f5d16d1a071cd62dca0115098c5057aa811c2df6cf15ac3d25994233477ceec7d9495449edfa86ee921b90100000000000000000000000000000000000000000000000000000000000000000000000000000000000000000000000000000000000000000000000000000000000000000000000000000000000000000000000000000000000000000000000000000000000000000000000000000000000000000000000000000000000000000000000000000000000000000000000000000000000000000000000000000000000000000000000000000000000000000000000000000000000000000000000000000000000000000000000000000000000000000000000000000000000000000000000000000000000000000000000000000000000000000000000000000000008302000001839896808303b95a8203e800a00000000000000000000000000000000000000000000000000000000000000000880000000000000000f862f860800a83155cc094a00000000000000000000000000000000000000001801ca0c4779e01b0c76f529fb497f3b6e15762f89ddb906091a91fe9f6b005e205ee17a0736cfe95bf57a25f44159f28fd34a058669e42f293161491cde3a49d501da93cc0",
                "blockHeader" : {
                    "bloom" : "0x00000000000000000000000000000000000000000000000000000000000000000000000000000000000000000000000000000000000000000000000000000000000000000000000000000000000000000000000000000000000000000000000000000000000000000000000000000000000000000000000000000000000000000000000000000000000000000000000000000000000000000000000000000000000000000000000000000000000000000000000000000000000000000000000000000000000000000000000000000000000000000000000000000000000000000000000000000000000000000000000000000000000000000000000000000000",
                    "coinbase" : "0x2adc25665018aa1fe0e6bc666dac8fc2697ff9ba",
                    "difficulty" : "0x020000",
                    "extraData" : "0x00",
                    "gasLimit" : "0x989680",
                    "gasUsed" : "0x03b95a",
                    "hash" : "0xc5e40f1253ab6a9b4f06c11cbabce92b74f3458fe057e0226f66f79ab2ec0700",
                    "mixHash" : "0x0000000000000000000000000000000000000000000000000000000000000000",
                    "nonce" : "0x0000000000000000",
                    "number" : "0x01",
                    "parentHash" : "0xd161a1b81ee586f70902e8a44afcfecc73cbadcda65aa77f4760b896bba47c21",
                    "receiptTrie" : "0x115098c5057aa811c2df6cf15ac3d25994233477ceec7d9495449edfa86ee921",
                    "stateRoot" : "0x4f1bab7703554c11b4772b5df87912272767ce223a03d484117878a432855951",
                    "timestamp" : "0x03e8",
                    "transactionsTrie" : "0x4819539c6fca0410aa37aa95a69db41135ed634740f8850f5d16d1a071cd62dc",
                    "uncleHash" : "0x1dcc4de8dec75d7aab85b567b6ccd41ad312451b948a7413f0a142fd40d49347"
                },
                "transactions" : [
                    {
                        "data" : "0x",
                        "gasLimit" : "0x155cc0",
                        "gasPrice" : "0x0a",
                        "nonce" : "0x00",
                        "to" : "0xa000000000000000000000000000000000000000",
                        "value" : "0x01",
                        "v" : "0x1c",
                        "r" : "0xc4779e01b0c76f529fb497f3b6e15762f89ddb906091a91fe9f6b005e205ee17",
                        "s" : "0x736cfe95bf57a25f44159f28fd34a058669e42f293161491cde3a49d501da93c"
                    }
                ],
                "uncleHeaders" : [
                ]
            }
        ]
    },
    "codeCopyZero_d0g0v0_Istanbul" : {
        "_info" : {
            "comment" : "https://github.com/ethereum/tests/issues/493,  CODECOPY and EXTCODECOPY where codesize = 0",
            "filling-rpc-server" : "evm version 1.10.4-unstable-966ee3ae-20210528",
            "filling-tool-version" : "retesteth-0.1.1-eip1559+commit.658fc3a8.Linux.g++",
            "lllcversion" : "Version: 0.5.14-develop.2021.5.18+commit.14c9d5de.mod.Linux.g++",
            "source" : "src/GeneralStateTestsFiller/stExtCodeHash/codeCopyZeroFiller.yml",
            "sourceHash" : "3488d74b381bcaad20a25cbedd2e6a9c676330c53780987d2f41da50690ece43"
        },
        "genesisBlockHeader" : {
            "bloom" : "0x00000000000000000000000000000000000000000000000000000000000000000000000000000000000000000000000000000000000000000000000000000000000000000000000000000000000000000000000000000000000000000000000000000000000000000000000000000000000000000000000000000000000000000000000000000000000000000000000000000000000000000000000000000000000000000000000000000000000000000000000000000000000000000000000000000000000000000000000000000000000000000000000000000000000000000000000000000000000000000000000000000000000000000000000000000000",
            "coinbase" : "0x2adc25665018aa1fe0e6bc666dac8fc2697ff9ba",
            "difficulty" : "0x020000",
            "extraData" : "0x00",
            "gasLimit" : "0x989680",
            "gasUsed" : "0x00",
            "hash" : "0xd161a1b81ee586f70902e8a44afcfecc73cbadcda65aa77f4760b896bba47c21",
            "mixHash" : "0x0000000000000000000000000000000000000000000000000000000000000000",
            "nonce" : "0x0000000000000000",
            "number" : "0x00",
            "parentHash" : "0x0000000000000000000000000000000000000000000000000000000000000000",
            "receiptTrie" : "0x56e81f171bcc55a6ff8345e692c0f86e5b48e01b996cadc001622fb5e363b421",
            "stateRoot" : "0xa7a08073c2056a211a5ccaccd85b9fad63ae25285552b68b2bb2135fbc29b051",
            "timestamp" : "0x00",
            "transactionsTrie" : "0x56e81f171bcc55a6ff8345e692c0f86e5b48e01b996cadc001622fb5e363b421",
            "uncleHash" : "0x1dcc4de8dec75d7aab85b567b6ccd41ad312451b948a7413f0a142fd40d49347"
        },
        "pre" : {
            "0xa000000000000000000000000000000000000000" : {
                "balance" : "0x0de0b6b3a7640000",
                "code" : "0x60206000600073a2220000000000000000000000000000000000003c60005160105573a2220000000000000000000000000000000000003b60115573a2220000000000000000000000000000000000003f6012556000600060006000600073a22200000000000000000000000000000000000061c350f260135560206000600073a2000000000000000000000000000000000000003c60005160205573a2000000000000000000000000000000000000003b60215573a2000000000000000000000000000000000000003f6022556000600060006000600073a20000000000000000000000000000000000000061c350f260235560206000600073a3000000000000000000000000000000000000003c60005160305573a3000000000000000000000000000000000000003b60315573a3000000000000000000000000000000000000003f6032556000600060006000600073a30000000000000000000000000000000000000061c350f26033556020600060006000600073a10000000000000000000000000000000000000062086470f15060005160405500",
                "nonce" : "0x00",
                "storage" : {
                }
            },
            "0xa100000000000000000000000000000000000000" : {
                "balance" : "0x0de0b6b3a7640000",
                "code" : "0x6000603980601a60003960006000f560005260206000f30000fe60206000600039600051605055303b605155303f605255600060006000600060003061c350f23b605355602060006000303c60005160545500",
                "nonce" : "0x00",
                "storage" : {
                }
            },
            "0xa200000000000000000000000000000000000000" : {
                "balance" : "0x0de0b6b3a7640000",
                "code" : "0x",
                "nonce" : "0x00",
                "storage" : {
                }
            },
            "0xa300000000000000000000000000000000000000" : {
                "balance" : "0x00",
                "code" : "0x",
                "nonce" : "0x00",
                "storage" : {
                }
            },
            "0xa94f5374fce5edbc8e2a8697c15331677e6ebf0b" : {
                "balance" : "0x0de0b6b3a7640000",
                "code" : "0x00",
                "nonce" : "0x00",
                "storage" : {
                }
            }
        },
        "postState" : {
            "0x2adc25665018aa1fe0e6bc666dac8fc2697ff9ba" : {
                "code" : "0x",
                "nonce" : "0x00",
                "balance" : "0x1bc16d674ee8c4fc",
                "storage" : {
                }
            },
            "0x64bc50092fd622c9cc47d658b99c1af75aaa3d68" : {
                "code" : "0x",
                "nonce" : "0x01",
                "balance" : "0x00",
                "storage" : {
                    "0x50" : "0x60206000600039600051605055303b605155303f605255600060006000600060",
                    "0x52" : "0xc5d2460186f7233c927e7db2dcc703c0e500b653ca82273b7bfad8045d85a470"
                }
            },
            "0xa000000000000000000000000000000000000000" : {
                "code" : "0x60206000600073a2220000000000000000000000000000000000003c60005160105573a2220000000000000000000000000000000000003b60115573a2220000000000000000000000000000000000003f6012556000600060006000600073a22200000000000000000000000000000000000061c350f260135560206000600073a2000000000000000000000000000000000000003c60005160205573a2000000000000000000000000000000000000003b60215573a2000000000000000000000000000000000000003f6022556000600060006000600073a20000000000000000000000000000000000000061c350f260235560206000600073a3000000000000000000000000000000000000003c60005160305573a3000000000000000000000000000000000000003b60315573a3000000000000000000000000000000000000003f6032556000600060006000600073a30000000000000000000000000000000000000061c350f26033556020600060006000600073a10000000000000000000000000000000000000062086470f15060005160405500",
                "nonce" : "0x00",
                "balance" : "0x0de0b6b3a7640001",
                "storage" : {
                    "0x13" : "0x01",
                    "0x22" : "0xc5d2460186f7233c927e7db2dcc703c0e500b653ca82273b7bfad8045d85a470",
                    "0x23" : "0x01",
                    "0x33" : "0x01",
                    "0x40" : "0x64bc50092fd622c9cc47d658b99c1af75aaa3d68"
                }
            },
            "0xa100000000000000000000000000000000000000" : {
                "code" : "0x6000603980601a60003960006000f560005260206000f30000fe60206000600039600051605055303b605155303f605255600060006000600060003061c350f23b605355602060006000303c60005160545500",
                "nonce" : "0x01",
                "balance" : "0x0de0b6b3a7640000",
                "storage" : {
                }
            },
            "0xa200000000000000000000000000000000000000" : {
                "code" : "0x",
                "nonce" : "0x00",
                "balance" : "0x0de0b6b3a7640000",
                "storage" : {
                }
            },
            "0xa300000000000000000000000000000000000000" : {
                "code" : "0x",
                "nonce" : "0x00",
                "balance" : "0x00",
                "storage" : {
                }
            },
            "0xa94f5374fce5edbc8e2a8697c15331677e6ebf0b" : {
                "code" : "0x00",
                "nonce" : "0x01",
                "balance" : "0x0de0b6b3a7433b03",
                "storage" : {
                }
            }
        },
        "network" : "Istanbul",
        "sealEngine" : "NoProof",
        "lastblockhash" : "0xa853a936a47e96cddd1db09bba85ce924e94e4f00aba23b4f83ac5a319a3f9ca",
        "genesisRLP" : "0xf901f8f901f3a00000000000000000000000000000000000000000000000000000000000000000a01dcc4de8dec75d7aab85b567b6ccd41ad312451b948a7413f0a142fd40d49347942adc25665018aa1fe0e6bc666dac8fc2697ff9baa0a7a08073c2056a211a5ccaccd85b9fad63ae25285552b68b2bb2135fbc29b051a056e81f171bcc55a6ff8345e692c0f86e5b48e01b996cadc001622fb5e363b421a056e81f171bcc55a6ff8345e692c0f86e5b48e01b996cadc001622fb5e363b421b9010000000000000000000000000000000000000000000000000000000000000000000000000000000000000000000000000000000000000000000000000000000000000000000000000000000000000000000000000000000000000000000000000000000000000000000000000000000000000000000000000000000000000000000000000000000000000000000000000000000000000000000000000000000000000000000000000000000000000000000000000000000000000000000000000000000000000000000000000000000000000000000000000000000000000000000000000000000000000000000000000000000000000000000000000000000000830200008083989680808000a00000000000000000000000000000000000000000000000000000000000000000880000000000000000c0c0",
        "blocks" : [
            {
                "rlp" : "0xf90260f901f8a0d161a1b81ee586f70902e8a44afcfecc73cbadcda65aa77f4760b896bba47c21a01dcc4de8dec75d7aab85b567b6ccd41ad312451b948a7413f0a142fd40d49347942adc25665018aa1fe0e6bc666dac8fc2697ff9baa0911b2d6b4bf0b996f5aca5090dc9acdb3bbf9475a732750c6bee05df87e22874a04819539c6fca0410aa37aa95a69db41135ed634740f8850f5d16d1a071cd62dca0c6667b342c27299605498845b37802f33df2008558570d1c4a8cd3f7e61005f5b9010000000000000000000000000000000000000000000000000000000000000000000000000000000000000000000000000000000000000000000000000000000000000000000000000000000000000000000000000000000000000000000000000000000000000000000000000000000000000000000000000000000000000000000000000000000000000000000000000000000000000000000000000000000000000000000000000000000000000000000000000000000000000000000000000000000000000000000000000000000000000000000000000000000000000000000000000000000000000000000000000000000000000000000000000000000000830200000183989680830346e68203e800a00000000000000000000000000000000000000000000000000000000000000000880000000000000000f862f860800a83155cc094a00000000000000000000000000000000000000001801ca0c4779e01b0c76f529fb497f3b6e15762f89ddb906091a91fe9f6b005e205ee17a0736cfe95bf57a25f44159f28fd34a058669e42f293161491cde3a49d501da93cc0",
                "blockHeader" : {
                    "bloom" : "0x00000000000000000000000000000000000000000000000000000000000000000000000000000000000000000000000000000000000000000000000000000000000000000000000000000000000000000000000000000000000000000000000000000000000000000000000000000000000000000000000000000000000000000000000000000000000000000000000000000000000000000000000000000000000000000000000000000000000000000000000000000000000000000000000000000000000000000000000000000000000000000000000000000000000000000000000000000000000000000000000000000000000000000000000000000000",
                    "coinbase" : "0x2adc25665018aa1fe0e6bc666dac8fc2697ff9ba",
                    "difficulty" : "0x020000",
                    "extraData" : "0x00",
                    "gasLimit" : "0x989680",
                    "gasUsed" : "0x0346e6",
                    "hash" : "0xa853a936a47e96cddd1db09bba85ce924e94e4f00aba23b4f83ac5a319a3f9ca",
                    "mixHash" : "0x0000000000000000000000000000000000000000000000000000000000000000",
                    "nonce" : "0x0000000000000000",
                    "number" : "0x01",
                    "parentHash" : "0xd161a1b81ee586f70902e8a44afcfecc73cbadcda65aa77f4760b896bba47c21",
                    "receiptTrie" : "0xc6667b342c27299605498845b37802f33df2008558570d1c4a8cd3f7e61005f5",
                    "stateRoot" : "0x911b2d6b4bf0b996f5aca5090dc9acdb3bbf9475a732750c6bee05df87e22874",
                    "timestamp" : "0x03e8",
                    "transactionsTrie" : "0x4819539c6fca0410aa37aa95a69db41135ed634740f8850f5d16d1a071cd62dc",
                    "uncleHash" : "0x1dcc4de8dec75d7aab85b567b6ccd41ad312451b948a7413f0a142fd40d49347"
                },
                "transactions" : [
                    {
                        "data" : "0x",
                        "gasLimit" : "0x155cc0",
                        "gasPrice" : "0x0a",
                        "nonce" : "0x00",
                        "to" : "0xa000000000000000000000000000000000000000",
                        "value" : "0x01",
                        "v" : "0x1c",
                        "r" : "0xc4779e01b0c76f529fb497f3b6e15762f89ddb906091a91fe9f6b005e205ee17",
                        "s" : "0x736cfe95bf57a25f44159f28fd34a058669e42f293161491cde3a49d501da93c"
                    }
                ],
                "uncleHeaders" : [
                ]
            }
        ]
    },
    "codeCopyZero_d0g0v0_London" : {
        "_info" : {
            "comment" : "https://github.com/ethereum/tests/issues/493,  CODECOPY and EXTCODECOPY where codesize = 0",
            "filling-rpc-server" : "evm version 1.10.4-unstable-966ee3ae-20210528",
            "filling-tool-version" : "retesteth-0.1.1-eip1559+commit.658fc3a8.Linux.g++",
            "lllcversion" : "Version: 0.5.14-develop.2021.5.18+commit.14c9d5de.mod.Linux.g++",
            "source" : "src/GeneralStateTestsFiller/stExtCodeHash/codeCopyZeroFiller.yml",
            "sourceHash" : "3488d74b381bcaad20a25cbedd2e6a9c676330c53780987d2f41da50690ece43"
        },
        "genesisBlockHeader" : {
            "bloom" : "0x00000000000000000000000000000000000000000000000000000000000000000000000000000000000000000000000000000000000000000000000000000000000000000000000000000000000000000000000000000000000000000000000000000000000000000000000000000000000000000000000000000000000000000000000000000000000000000000000000000000000000000000000000000000000000000000000000000000000000000000000000000000000000000000000000000000000000000000000000000000000000000000000000000000000000000000000000000000000000000000000000000000000000000000000000000000",
            "coinbase" : "0x2adc25665018aa1fe0e6bc666dac8fc2697ff9ba",
            "difficulty" : "0x020000",
            "extraData" : "0x00",
            "gasLimit" : "0x989680",
            "gasUsed" : "0x00",
            "hash" : "0x1e9ecc4f08a65037ddc87a14e93af52972a9835fa99c17fccbfbc1ffc728b103",
            "mixHash" : "0x0000000000000000000000000000000000000000000000000000000000000000",
            "nonce" : "0x0000000000000000",
            "number" : "0x00",
            "parentHash" : "0x0000000000000000000000000000000000000000000000000000000000000000",
            "receiptTrie" : "0x56e81f171bcc55a6ff8345e692c0f86e5b48e01b996cadc001622fb5e363b421",
            "stateRoot" : "0xa7a08073c2056a211a5ccaccd85b9fad63ae25285552b68b2bb2135fbc29b051",
            "timestamp" : "0x00",
            "transactionsTrie" : "0x56e81f171bcc55a6ff8345e692c0f86e5b48e01b996cadc001622fb5e363b421",
            "uncleHash" : "0x1dcc4de8dec75d7aab85b567b6ccd41ad312451b948a7413f0a142fd40d49347",
            "baseFee" : "0x0b"
        },
        "pre" : {
            "0xa000000000000000000000000000000000000000" : {
                "balance" : "0x0de0b6b3a7640000",
                "code" : "0x60206000600073a2220000000000000000000000000000000000003c60005160105573a2220000000000000000000000000000000000003b60115573a2220000000000000000000000000000000000003f6012556000600060006000600073a22200000000000000000000000000000000000061c350f260135560206000600073a2000000000000000000000000000000000000003c60005160205573a2000000000000000000000000000000000000003b60215573a2000000000000000000000000000000000000003f6022556000600060006000600073a20000000000000000000000000000000000000061c350f260235560206000600073a3000000000000000000000000000000000000003c60005160305573a3000000000000000000000000000000000000003b60315573a3000000000000000000000000000000000000003f6032556000600060006000600073a30000000000000000000000000000000000000061c350f26033556020600060006000600073a10000000000000000000000000000000000000062086470f15060005160405500",
                "nonce" : "0x00",
                "storage" : {
                }
            },
            "0xa100000000000000000000000000000000000000" : {
                "balance" : "0x0de0b6b3a7640000",
                "code" : "0x6000603980601a60003960006000f560005260206000f30000fe60206000600039600051605055303b605155303f605255600060006000600060003061c350f23b605355602060006000303c60005160545500",
                "nonce" : "0x00",
                "storage" : {
                }
            },
            "0xa200000000000000000000000000000000000000" : {
                "balance" : "0x0de0b6b3a7640000",
                "code" : "0x",
                "nonce" : "0x00",
                "storage" : {
                }
            },
            "0xa300000000000000000000000000000000000000" : {
                "balance" : "0x00",
                "code" : "0x",
                "nonce" : "0x00",
                "storage" : {
                }
            },
            "0xa94f5374fce5edbc8e2a8697c15331677e6ebf0b" : {
                "balance" : "0x0de0b6b3a7640000",
                "code" : "0x00",
                "nonce" : "0x00",
                "storage" : {
                }
            }
        },
        "postState" : {
            "0x2adc25665018aa1fe0e6bc666dac8fc2697ff9ba" : {
                "code" : "0x",
                "nonce" : "0x00",
                "balance" : "0x1bc16d674ec80000",
                "storage" : {
                }
            },
            "0x64bc50092fd622c9cc47d658b99c1af75aaa3d68" : {
                "code" : "0x",
                "nonce" : "0x01",
                "balance" : "0x00",
                "storage" : {
                    "0x50" : "0x60206000600039600051605055303b605155303f605255600060006000600060",
                    "0x52" : "0xc5d2460186f7233c927e7db2dcc703c0e500b653ca82273b7bfad8045d85a470"
                }
            },
            "0xa000000000000000000000000000000000000000" : {
                "code" : "0x60206000600073a2220000000000000000000000000000000000003c60005160105573a2220000000000000000000000000000000000003b60115573a2220000000000000000000000000000000000003f6012556000600060006000600073a22200000000000000000000000000000000000061c350f260135560206000600073a2000000000000000000000000000000000000003c60005160205573a2000000000000000000000000000000000000003b60215573a2000000000000000000000000000000000000003f6022556000600060006000600073a20000000000000000000000000000000000000061c350f260235560206000600073a3000000000000000000000000000000000000003c60005160305573a3000000000000000000000000000000000000003b60315573a3000000000000000000000000000000000000003f6032556000600060006000600073a30000000000000000000000000000000000000061c350f26033556020600060006000600073a10000000000000000000000000000000000000062086470f15060005160405500",
                "nonce" : "0x00",
                "balance" : "0x0de0b6b3a7640001",
                "storage" : {
                    "0x13" : "0x01",
                    "0x22" : "0xc5d2460186f7233c927e7db2dcc703c0e500b653ca82273b7bfad8045d85a470",
                    "0x23" : "0x01",
                    "0x33" : "0x01",
                    "0x40" : "0x64bc50092fd622c9cc47d658b99c1af75aaa3d68"
                }
            },
            "0xa100000000000000000000000000000000000000" : {
                "code" : "0x6000603980601a60003960006000f560005260206000f30000fe60206000600039600051605055303b605155303f605255600060006000600060003061c350f23b605355602060006000303c60005160545500",
                "nonce" : "0x01",
                "balance" : "0x0de0b6b3a7640000",
                "storage" : {
                }
            },
            "0xa200000000000000000000000000000000000000" : {
                "code" : "0x",
                "nonce" : "0x00",
                "balance" : "0x0de0b6b3a7640000",
                "storage" : {
                }
            },
            "0xa300000000000000000000000000000000000000" : {
                "code" : "0x",
                "nonce" : "0x00",
                "balance" : "0x00",
                "storage" : {
                }
            },
            "0xa94f5374fce5edbc8e2a8697c15331677e6ebf0b" : {
                "code" : "0x00",
                "nonce" : "0x01",
                "balance" : "0x0de0b6b3a73ec27b",
                "storage" : {
                }
            }
        },
        "network" : "London",
        "sealEngine" : "NoProof",
        "lastblockhash" : "0xf9918032f76a163263bf40a65503bdd9b21bf4f157c4dddcaef05660f9a5d6f4",
        "genesisRLP" : "0xf901f9f901f4a00000000000000000000000000000000000000000000000000000000000000000a01dcc4de8dec75d7aab85b567b6ccd41ad312451b948a7413f0a142fd40d49347942adc25665018aa1fe0e6bc666dac8fc2697ff9baa0a7a08073c2056a211a5ccaccd85b9fad63ae25285552b68b2bb2135fbc29b051a056e81f171bcc55a6ff8345e692c0f86e5b48e01b996cadc001622fb5e363b421a056e81f171bcc55a6ff8345e692c0f86e5b48e01b996cadc001622fb5e363b421b9010000000000000000000000000000000000000000000000000000000000000000000000000000000000000000000000000000000000000000000000000000000000000000000000000000000000000000000000000000000000000000000000000000000000000000000000000000000000000000000000000000000000000000000000000000000000000000000000000000000000000000000000000000000000000000000000000000000000000000000000000000000000000000000000000000000000000000000000000000000000000000000000000000000000000000000000000000000000000000000000000000000000000000000000000000000000830200008083989680808000a000000000000000000000000000000000000000000000000000000000000000008800000000000000000bc0c0",
        "blocks" : [
            {
                "rlp" : "0xf90261f901f9a01e9ecc4f08a65037ddc87a14e93af52972a9835fa99c17fccbfbc1ffc728b103a01dcc4de8dec75d7aab85b567b6ccd41ad312451b948a7413f0a142fd40d49347942adc25665018aa1fe0e6bc666dac8fc2697ff9baa0fc1cd750b54b61910515dde0bd2ace82a5a6df2ae0d69a21d48fb6fc7f32de4ea04819539c6fca0410aa37aa95a69db41135ed634740f8850f5d16d1a071cd62dca0115098c5057aa811c2df6cf15ac3d25994233477ceec7d9495449edfa86ee921b90100000000000000000000000000000000000000000000000000000000000000000000000000000000000000000000000000000000000000000000000000000000000000000000000000000000000000000000000000000000000000000000000000000000000000000000000000000000000000000000000000000000000000000000000000000000000000000000000000000000000000000000000000000000000000000000000000000000000000000000000000000000000000000000000000000000000000000000000000000000000000000000000000000000000000000000000000000000000000000000000000000000000000000000000000000000008302000001839896808303b95a8203e800a000000000000000000000000000000000000000000000000000000000000000008800000000000000000af862f860800a83155cc094a00000000000000000000000000000000000000001801ca0c4779e01b0c76f529fb497f3b6e15762f89ddb906091a91fe9f6b005e205ee17a0736cfe95bf57a25f44159f28fd34a058669e42f293161491cde3a49d501da93cc0",
                "blockHeader" : {
                    "bloom" : "0x00000000000000000000000000000000000000000000000000000000000000000000000000000000000000000000000000000000000000000000000000000000000000000000000000000000000000000000000000000000000000000000000000000000000000000000000000000000000000000000000000000000000000000000000000000000000000000000000000000000000000000000000000000000000000000000000000000000000000000000000000000000000000000000000000000000000000000000000000000000000000000000000000000000000000000000000000000000000000000000000000000000000000000000000000000000",
                    "coinbase" : "0x2adc25665018aa1fe0e6bc666dac8fc2697ff9ba",
                    "difficulty" : "0x020000",
                    "extraData" : "0x00",
                    "gasLimit" : "0x989680",
                    "gasUsed" : "0x03b95a",
                    "hash" : "0xf9918032f76a163263bf40a65503bdd9b21bf4f157c4dddcaef05660f9a5d6f4",
                    "mixHash" : "0x0000000000000000000000000000000000000000000000000000000000000000",
                    "nonce" : "0x0000000000000000",
                    "number" : "0x01",
                    "parentHash" : "0x1e9ecc4f08a65037ddc87a14e93af52972a9835fa99c17fccbfbc1ffc728b103",
                    "receiptTrie" : "0x115098c5057aa811c2df6cf15ac3d25994233477ceec7d9495449edfa86ee921",
                    "stateRoot" : "0xfc1cd750b54b61910515dde0bd2ace82a5a6df2ae0d69a21d48fb6fc7f32de4e",
                    "timestamp" : "0x03e8",
                    "transactionsTrie" : "0x4819539c6fca0410aa37aa95a69db41135ed634740f8850f5d16d1a071cd62dc",
                    "uncleHash" : "0x1dcc4de8dec75d7aab85b567b6ccd41ad312451b948a7413f0a142fd40d49347",
                    "baseFee" : "0x0a"
                },
                "transactions" : [
                    {
                        "data" : "0x",
                        "gasLimit" : "0x155cc0",
                        "gasPrice" : "0x0a",
                        "nonce" : "0x00",
                        "to" : "0xa000000000000000000000000000000000000000",
                        "value" : "0x01",
                        "v" : "0x1c",
                        "r" : "0xc4779e01b0c76f529fb497f3b6e15762f89ddb906091a91fe9f6b005e205ee17",
                        "s" : "0x736cfe95bf57a25f44159f28fd34a058669e42f293161491cde3a49d501da93c"
                    }
                ],
                "uncleHeaders" : [
                ]
            }
        ]
    }
}