{
    "extCodeHashCreatedAndDeletedAccountCall_d0g0v0_Berlin" : {
        "_info" : {
            "comment" : "EXTCODEHASH/EXTCODESIZE of an account created then deleted via CALL in same transaction",
            "filling-rpc-server" : "evm version 1.10.4-unstable-966ee3ae-20210528",
            "filling-tool-version" : "retesteth-0.1.1-eip1559+commit.658fc3a8.Linux.g++",
            "lllcversion" : "Version: 0.5.14-develop.2021.5.18+commit.14c9d5de.mod.Linux.g++",
            "source" : "src/GeneralStateTestsFiller/stExtCodeHash/extCodeHashCreatedAndDeletedAccountCallFiller.json",
            "sourceHash" : "6d6b062ae328a9c4fa0ef21a07f836f9c86d55dbb4e7684b82e2a9f93b085089"
        },
        "genesisBlockHeader" : {
            "bloom" : "0x00000000000000000000000000000000000000000000000000000000000000000000000000000000000000000000000000000000000000000000000000000000000000000000000000000000000000000000000000000000000000000000000000000000000000000000000000000000000000000000000000000000000000000000000000000000000000000000000000000000000000000000000000000000000000000000000000000000000000000000000000000000000000000000000000000000000000000000000000000000000000000000000000000000000000000000000000000000000000000000000000000000000000000000000000000000",
            "coinbase" : "0x2adc25665018aa1fe0e6bc666dac8fc2697ff9ba",
            "difficulty" : "0x020000",
            "extraData" : "0x00",
            "gasLimit" : "0x0f4240",
            "gasUsed" : "0x00",
            "hash" : "0xadf847ed1e1851a185258f8da21ee69afb0329fc410e38ec12cae4e3ce0e684f",
            "mixHash" : "0x0000000000000000000000000000000000000000000000000000000000000000",
            "nonce" : "0x0000000000000000",
            "number" : "0x00",
            "parentHash" : "0x0000000000000000000000000000000000000000000000000000000000000000",
            "receiptTrie" : "0x56e81f171bcc55a6ff8345e692c0f86e5b48e01b996cadc001622fb5e363b421",
            "stateRoot" : "0x8ff690c121cf1488db99bfe05ad7c792a7adbf3fc99b95ef865eecd32c494083",
            "timestamp" : "0x00",
            "transactionsTrie" : "0x56e81f171bcc55a6ff8345e692c0f86e5b48e01b996cadc001622fb5e363b421",
            "uncleHash" : "0x1dcc4de8dec75d7aab85b567b6ccd41ad312451b948a7413f0a142fd40d49347"
        },
        "pre" : {
            "0xa94f5374fce5edbc8e2a8697c15331677e6ebf0b" : {
                "balance" : "0x0de0b6b3a7640000",
                "code" : "0x",
                "nonce" : "0x00",
                "storage" : {
                }
            },
            "0xdeadbeef00000000000000000000000000000000" : {
                "balance" : "0x0de0b6b3a7640000",
                "code" : "0x6010601180604460803960806000f56000526000513f6000556000513b6001556000600060006000600060005162010000f1506000513f6002556000513b6003550000fe600480600d6000396000f300fe6000ff00",
                "nonce" : "0x00",
                "storage" : {
                }
            }
        },
        "postState" : {
            "0x2adc25665018aa1fe0e6bc666dac8fc2697ff9ba" : {
                "code" : "0x",
                "nonce" : "0x00",
                "balance" : "0x1bc16d674edb4b2e",
                "storage" : {
                }
            },
            "0xa94f5374fce5edbc8e2a8697c15331677e6ebf0b" : {
                "code" : "0x",
                "nonce" : "0x01",
                "balance" : "0x0de0b6b3a750b4d1",
                "storage" : {
                }
            },
            "0xdeadbeef00000000000000000000000000000000" : {
                "code" : "0x6010601180604460803960806000f56000526000513f6000556000513b6001556000600060006000600060005162010000f1506000513f6002556000513b6003550000fe600480600d6000396000f300fe6000ff00",
                "nonce" : "0x01",
                "balance" : "0x0de0b6b3a7640001",
                "storage" : {
                    "0x00" : "0x73c5f15b1290fd9e66722596c2fa1e1c9341f7acb185530dce0bf0e0fec7dfc6",
                    "0x01" : "0x04",
                    "0x02" : "0x73c5f15b1290fd9e66722596c2fa1e1c9341f7acb185530dce0bf0e0fec7dfc6",
                    "0x03" : "0x04"
                }
            }
        },
        "network" : "Berlin",
        "sealEngine" : "NoProof",
        "lastblockhash" : "0xa24eabbb474723824a7131dbfa20b7c3c67bfbd9f4d4992107f139bc0f0ad3a8",
        "genesisRLP" : "0xf901f8f901f3a00000000000000000000000000000000000000000000000000000000000000000a01dcc4de8dec75d7aab85b567b6ccd41ad312451b948a7413f0a142fd40d49347942adc25665018aa1fe0e6bc666dac8fc2697ff9baa08ff690c121cf1488db99bfe05ad7c792a7adbf3fc99b95ef865eecd32c494083a056e81f171bcc55a6ff8345e692c0f86e5b48e01b996cadc001622fb5e363b421a056e81f171bcc55a6ff8345e692c0f86e5b48e01b996cadc001622fb5e363b421b90100000000000000000000000000000000000000000000000000000000000000000000000000000000000000000000000000000000000000000000000000000000000000000000000000000000000000000000000000000000000000000000000000000000000000000000000000000000000000000000000000000000000000000000000000000000000000000000000000000000000000000000000000000000000000000000000000000000000000000000000000000000000000000000000000000000000000000000000000000000000000000000000000000000000000000000000000000000000000000000000000000000000000000000000000000000008302000080830f4240808000a00000000000000000000000000000000000000000000000000000000000000000880000000000000000c0c0",
        "blocks" : [
            {
                "rlp" : "0xf90260f901f8a0adf847ed1e1851a185258f8da21ee69afb0329fc410e38ec12cae4e3ce0e684fa01dcc4de8dec75d7aab85b567b6ccd41ad312451b948a7413f0a142fd40d49347942adc25665018aa1fe0e6bc666dac8fc2697ff9baa04560b8eb93c25011126a77ed0b4060cb79c5c5588d567faf5022bc95847e7a35a0190f63c95e3461d428b7fabffe61d91ebabda17e655868b1aa97c484d794b258a053bbdec1ebfa95f06f5bde760761f93164a599f3c20450642bb088391f5b5fafb90100000000000000000000000000000000000000000000000000000000000000000000000000000000000000000000000000000000000000000000000000000000000000000000000000000000000000000000000000000000000000000000000000000000000000000000000000000000000000000000000000000000000000000000000000000000000000000000000000000000000000000000000000000000000000000000000000000000000000000000000000000000000000000000000000000000000000000000000000000000000000000000000000000000000000000000000000000000000000000000000000000000000000000000000000000000008302000001830f42408301edeb8203e800a00000000000000000000000000000000000000000000000000000000000000000880000000000000000f862f860800a83061a8094deadbeef0000000000000000000000000000000001801ba0c70648a23c02191279c15ab01916a8cb993eed71d08e39b46df27c4286ecc6caa0671a98307a8881b1759f11640fff23373b026be67c3cb9638d642bea99ffb908c0",
                "blockHeader" : {
                    "bloom" : "0x00000000000000000000000000000000000000000000000000000000000000000000000000000000000000000000000000000000000000000000000000000000000000000000000000000000000000000000000000000000000000000000000000000000000000000000000000000000000000000000000000000000000000000000000000000000000000000000000000000000000000000000000000000000000000000000000000000000000000000000000000000000000000000000000000000000000000000000000000000000000000000000000000000000000000000000000000000000000000000000000000000000000000000000000000000000",
                    "coinbase" : "0x2adc25665018aa1fe0e6bc666dac8fc2697ff9ba",
                    "difficulty" : "0x020000",
                    "extraData" : "0x00",
                    "gasLimit" : "0x0f4240",
                    "gasUsed" : "0x01edeb",
                    "hash" : "0xa24eabbb474723824a7131dbfa20b7c3c67bfbd9f4d4992107f139bc0f0ad3a8",
                    "mixHash" : "0x0000000000000000000000000000000000000000000000000000000000000000",
                    "nonce" : "0x0000000000000000",
                    "number" : "0x01",
                    "parentHash" : "0xadf847ed1e1851a185258f8da21ee69afb0329fc410e38ec12cae4e3ce0e684f",
                    "receiptTrie" : "0x53bbdec1ebfa95f06f5bde760761f93164a599f3c20450642bb088391f5b5faf",
                    "stateRoot" : "0x4560b8eb93c25011126a77ed0b4060cb79c5c5588d567faf5022bc95847e7a35",
                    "timestamp" : "0x03e8",
                    "transactionsTrie" : "0x190f63c95e3461d428b7fabffe61d91ebabda17e655868b1aa97c484d794b258",
                    "uncleHash" : "0x1dcc4de8dec75d7aab85b567b6ccd41ad312451b948a7413f0a142fd40d49347"
                },
                "transactions" : [
                    {
                        "data" : "0x",
                        "gasLimit" : "0x061a80",
                        "gasPrice" : "0x0a",
                        "nonce" : "0x00",
                        "to" : "0xdeadbeef00000000000000000000000000000000",
                        "value" : "0x01",
                        "v" : "0x1b",
                        "r" : "0xc70648a23c02191279c15ab01916a8cb993eed71d08e39b46df27c4286ecc6ca",
                        "s" : "0x671a98307a8881b1759f11640fff23373b026be67c3cb9638d642bea99ffb908"
                    }
                ],
                "uncleHeaders" : [
                ]
            }
        ]
    },
    "extCodeHashCreatedAndDeletedAccountCall_d0g0v0_Istanbul" : {
        "_info" : {
            "comment" : "EXTCODEHASH/EXTCODESIZE of an account created then deleted via CALL in same transaction",
            "filling-rpc-server" : "evm version 1.10.4-unstable-966ee3ae-20210528",
            "filling-tool-version" : "retesteth-0.1.1-eip1559+commit.658fc3a8.Linux.g++",
            "lllcversion" : "Version: 0.5.14-develop.2021.5.18+commit.14c9d5de.mod.Linux.g++",
            "source" : "src/GeneralStateTestsFiller/stExtCodeHash/extCodeHashCreatedAndDeletedAccountCallFiller.json",
            "sourceHash" : "6d6b062ae328a9c4fa0ef21a07f836f9c86d55dbb4e7684b82e2a9f93b085089"
        },
        "genesisBlockHeader" : {
            "bloom" : "0x00000000000000000000000000000000000000000000000000000000000000000000000000000000000000000000000000000000000000000000000000000000000000000000000000000000000000000000000000000000000000000000000000000000000000000000000000000000000000000000000000000000000000000000000000000000000000000000000000000000000000000000000000000000000000000000000000000000000000000000000000000000000000000000000000000000000000000000000000000000000000000000000000000000000000000000000000000000000000000000000000000000000000000000000000000000",
            "coinbase" : "0x2adc25665018aa1fe0e6bc666dac8fc2697ff9ba",
            "difficulty" : "0x020000",
            "extraData" : "0x00",
            "gasLimit" : "0x0f4240",
            "gasUsed" : "0x00",
            "hash" : "0xadf847ed1e1851a185258f8da21ee69afb0329fc410e38ec12cae4e3ce0e684f",
            "mixHash" : "0x0000000000000000000000000000000000000000000000000000000000000000",
            "nonce" : "0x0000000000000000",
            "number" : "0x00",
            "parentHash" : "0x0000000000000000000000000000000000000000000000000000000000000000",
            "receiptTrie" : "0x56e81f171bcc55a6ff8345e692c0f86e5b48e01b996cadc001622fb5e363b421",
            "stateRoot" : "0x8ff690c121cf1488db99bfe05ad7c792a7adbf3fc99b95ef865eecd32c494083",
            "timestamp" : "0x00",
            "transactionsTrie" : "0x56e81f171bcc55a6ff8345e692c0f86e5b48e01b996cadc001622fb5e363b421",
            "uncleHash" : "0x1dcc4de8dec75d7aab85b567b6ccd41ad312451b948a7413f0a142fd40d49347"
        },
        "pre" : {
            "0xa94f5374fce5edbc8e2a8697c15331677e6ebf0b" : {
                "balance" : "0x0de0b6b3a7640000",
                "code" : "0x",
                "nonce" : "0x00",
                "storage" : {
                }
            },
            "0xdeadbeef00000000000000000000000000000000" : {
                "balance" : "0x0de0b6b3a7640000",
                "code" : "0x6010601180604460803960806000f56000526000513f6000556000513b6001556000600060006000600060005162010000f1506000513f6002556000513b6003550000fe600480600d6000396000f300fe6000ff00",
                "nonce" : "0x00",
                "storage" : {
                }
            }
        },
        "postState" : {
            "0x2adc25665018aa1fe0e6bc666dac8fc2697ff9ba" : {
                "code" : "0x",
                "nonce" : "0x00",
                "balance" : "0x1bc16d674eda12ae",
                "storage" : {
                }
            },
            "0xa94f5374fce5edbc8e2a8697c15331677e6ebf0b" : {
                "code" : "0x",
                "nonce" : "0x01",
                "balance" : "0x0de0b6b3a751ed51",
                "storage" : {
                }
            },
            "0xdeadbeef00000000000000000000000000000000" : {
                "code" : "0x6010601180604460803960806000f56000526000513f6000556000513b6001556000600060006000600060005162010000f1506000513f6002556000513b6003550000fe600480600d6000396000f300fe6000ff00",
                "nonce" : "0x01",
                "balance" : "0x0de0b6b3a7640001",
                "storage" : {
                    "0x00" : "0x73c5f15b1290fd9e66722596c2fa1e1c9341f7acb185530dce0bf0e0fec7dfc6",
                    "0x01" : "0x04",
                    "0x02" : "0x73c5f15b1290fd9e66722596c2fa1e1c9341f7acb185530dce0bf0e0fec7dfc6",
                    "0x03" : "0x04"
                }
            }
        },
        "network" : "Istanbul",
        "sealEngine" : "NoProof",
        "lastblockhash" : "0x1c6be645d57b17ae6afa254b1a08481834cbcf85c7b0701c5bb0ab6b0e42b249",
        "genesisRLP" : "0xf901f8f901f3a00000000000000000000000000000000000000000000000000000000000000000a01dcc4de8dec75d7aab85b567b6ccd41ad312451b948a7413f0a142fd40d49347942adc25665018aa1fe0e6bc666dac8fc2697ff9baa08ff690c121cf1488db99bfe05ad7c792a7adbf3fc99b95ef865eecd32c494083a056e81f171bcc55a6ff8345e692c0f86e5b48e01b996cadc001622fb5e363b421a056e81f171bcc55a6ff8345e692c0f86e5b48e01b996cadc001622fb5e363b421b90100000000000000000000000000000000000000000000000000000000000000000000000000000000000000000000000000000000000000000000000000000000000000000000000000000000000000000000000000000000000000000000000000000000000000000000000000000000000000000000000000000000000000000000000000000000000000000000000000000000000000000000000000000000000000000000000000000000000000000000000000000000000000000000000000000000000000000000000000000000000000000000000000000000000000000000000000000000000000000000000000000000000000000000000000000000008302000080830f4240808000a00000000000000000000000000000000000000000000000000000000000000000880000000000000000c0c0",
        "blocks" : [
            {
                "rlp" : "0xf90260f901f8a0adf847ed1e1851a185258f8da21ee69afb0329fc410e38ec12cae4e3ce0e684fa01dcc4de8dec75d7aab85b567b6ccd41ad312451b948a7413f0a142fd40d49347942adc25665018aa1fe0e6bc666dac8fc2697ff9baa0b2b64c6b30b60d943eafea259c3281a74bc678807ca8cdb471005398cda93e36a0190f63c95e3461d428b7fabffe61d91ebabda17e655868b1aa97c484d794b258a0209982278eea4f453e4626f230e48afee52828fc3c989c030a959ad96de40848b90100000000000000000000000000000000000000000000000000000000000000000000000000000000000000000000000000000000000000000000000000000000000000000000000000000000000000000000000000000000000000000000000000000000000000000000000000000000000000000000000000000000000000000000000000000000000000000000000000000000000000000000000000000000000000000000000000000000000000000000000000000000000000000000000000000000000000000000000000000000000000000000000000000000000000000000000000000000000000000000000000000000000000000000000000000000008302000001830f42408301ceab8203e800a00000000000000000000000000000000000000000000000000000000000000000880000000000000000f862f860800a83061a8094deadbeef0000000000000000000000000000000001801ba0c70648a23c02191279c15ab01916a8cb993eed71d08e39b46df27c4286ecc6caa0671a98307a8881b1759f11640fff23373b026be67c3cb9638d642bea99ffb908c0",
                "blockHeader" : {
                    "bloom" : "0x00000000000000000000000000000000000000000000000000000000000000000000000000000000000000000000000000000000000000000000000000000000000000000000000000000000000000000000000000000000000000000000000000000000000000000000000000000000000000000000000000000000000000000000000000000000000000000000000000000000000000000000000000000000000000000000000000000000000000000000000000000000000000000000000000000000000000000000000000000000000000000000000000000000000000000000000000000000000000000000000000000000000000000000000000000000",
                    "coinbase" : "0x2adc25665018aa1fe0e6bc666dac8fc2697ff9ba",
                    "difficulty" : "0x020000",
                    "extraData" : "0x00",
                    "gasLimit" : "0x0f4240",
                    "gasUsed" : "0x01ceab",
                    "hash" : "0x1c6be645d57b17ae6afa254b1a08481834cbcf85c7b0701c5bb0ab6b0e42b249",
                    "mixHash" : "0x0000000000000000000000000000000000000000000000000000000000000000",
                    "nonce" : "0x0000000000000000",
                    "number" : "0x01",
                    "parentHash" : "0xadf847ed1e1851a185258f8da21ee69afb0329fc410e38ec12cae4e3ce0e684f",
                    "receiptTrie" : "0x209982278eea4f453e4626f230e48afee52828fc3c989c030a959ad96de40848",
                    "stateRoot" : "0xb2b64c6b30b60d943eafea259c3281a74bc678807ca8cdb471005398cda93e36",
                    "timestamp" : "0x03e8",
                    "transactionsTrie" : "0x190f63c95e3461d428b7fabffe61d91ebabda17e655868b1aa97c484d794b258",
                    "uncleHash" : "0x1dcc4de8dec75d7aab85b567b6ccd41ad312451b948a7413f0a142fd40d49347"
                },
                "transactions" : [
                    {
                        "data" : "0x",
                        "gasLimit" : "0x061a80",
                        "gasPrice" : "0x0a",
                        "nonce" : "0x00",
                        "to" : "0xdeadbeef00000000000000000000000000000000",
                        "value" : "0x01",
                        "v" : "0x1b",
                        "r" : "0xc70648a23c02191279c15ab01916a8cb993eed71d08e39b46df27c4286ecc6ca",
                        "s" : "0x671a98307a8881b1759f11640fff23373b026be67c3cb9638d642bea99ffb908"
                    }
                ],
                "uncleHeaders" : [
                ]
            }
        ]
    },
    "extCodeHashCreatedAndDeletedAccountCall_d0g0v0_London" : {
        "_info" : {
            "comment" : "EXTCODEHASH/EXTCODESIZE of an account created then deleted via CALL in same transaction",
            "filling-rpc-server" : "evm version 1.10.4-unstable-966ee3ae-20210528",
            "filling-tool-version" : "retesteth-0.1.1-eip1559+commit.658fc3a8.Linux.g++",
            "lllcversion" : "Version: 0.5.14-develop.2021.5.18+commit.14c9d5de.mod.Linux.g++",
            "source" : "src/GeneralStateTestsFiller/stExtCodeHash/extCodeHashCreatedAndDeletedAccountCallFiller.json",
            "sourceHash" : "6d6b062ae328a9c4fa0ef21a07f836f9c86d55dbb4e7684b82e2a9f93b085089"
        },
        "genesisBlockHeader" : {
            "bloom" : "0x00000000000000000000000000000000000000000000000000000000000000000000000000000000000000000000000000000000000000000000000000000000000000000000000000000000000000000000000000000000000000000000000000000000000000000000000000000000000000000000000000000000000000000000000000000000000000000000000000000000000000000000000000000000000000000000000000000000000000000000000000000000000000000000000000000000000000000000000000000000000000000000000000000000000000000000000000000000000000000000000000000000000000000000000000000000",
            "coinbase" : "0x2adc25665018aa1fe0e6bc666dac8fc2697ff9ba",
            "difficulty" : "0x020000",
            "extraData" : "0x00",
            "gasLimit" : "0x0f4240",
            "gasUsed" : "0x00",
            "hash" : "0xfa2ea87bdb8afa162b967274fa3a887b6e93b7e38926e35c4b2fe37c74718b3a",
            "mixHash" : "0x0000000000000000000000000000000000000000000000000000000000000000",
            "nonce" : "0x0000000000000000",
            "number" : "0x00",
            "parentHash" : "0x0000000000000000000000000000000000000000000000000000000000000000",
            "receiptTrie" : "0x56e81f171bcc55a6ff8345e692c0f86e5b48e01b996cadc001622fb5e363b421",
            "stateRoot" : "0x8ff690c121cf1488db99bfe05ad7c792a7adbf3fc99b95ef865eecd32c494083",
            "timestamp" : "0x00",
            "transactionsTrie" : "0x56e81f171bcc55a6ff8345e692c0f86e5b48e01b996cadc001622fb5e363b421",
            "uncleHash" : "0x1dcc4de8dec75d7aab85b567b6ccd41ad312451b948a7413f0a142fd40d49347",
            "baseFee" : "0x0b"
        },
        "pre" : {
            "0xa94f5374fce5edbc8e2a8697c15331677e6ebf0b" : {
                "balance" : "0x0de0b6b3a7640000",
                "code" : "0x",
                "nonce" : "0x00",
                "storage" : {
                }
            },
            "0xdeadbeef00000000000000000000000000000000" : {
                "balance" : "0x0de0b6b3a7640000",
                "code" : "0x6010601180604460803960806000f56000526000513f6000556000513b6001556000600060006000600060005162010000f1506000513f6002556000513b6003550000fe600480600d6000396000f300fe6000ff00",
                "nonce" : "0x00",
                "storage" : {
                }
            }
        },
        "postState" : {
            "0x2adc25665018aa1fe0e6bc666dac8fc2697ff9ba" : {
                "code" : "0x",
                "nonce" : "0x00",
                "balance" : "0x1bc16d674ec80000",
                "storage" : {
                }
            },
            "0xa94f5374fce5edbc8e2a8697c15331677e6ebf0b" : {
                "code" : "0x",
                "nonce" : "0x01",
                "balance" : "0x0de0b6b3a74d0b51",
                "storage" : {
                }
            },
            "0xdeadbeef00000000000000000000000000000000" : {
                "code" : "0x6010601180604460803960806000f56000526000513f6000556000513b6001556000600060006000600060005162010000f1506000513f6002556000513b6003550000fe600480600d6000396000f300fe6000ff00",
                "nonce" : "0x01",
                "balance" : "0x0de0b6b3a7640001",
                "storage" : {
                    "0x00" : "0x73c5f15b1290fd9e66722596c2fa1e1c9341f7acb185530dce0bf0e0fec7dfc6",
                    "0x01" : "0x04",
                    "0x02" : "0x73c5f15b1290fd9e66722596c2fa1e1c9341f7acb185530dce0bf0e0fec7dfc6",
                    "0x03" : "0x04"
                }
            }
        },
        "network" : "London",
        "sealEngine" : "NoProof",
        "lastblockhash" : "0x863c5fbf7c591df16c7788848e875c7d1297509c448b2dfbb78cc5909923be11",
        "genesisRLP" : "0xf901f9f901f4a00000000000000000000000000000000000000000000000000000000000000000a01dcc4de8dec75d7aab85b567b6ccd41ad312451b948a7413f0a142fd40d49347942adc25665018aa1fe0e6bc666dac8fc2697ff9baa08ff690c121cf1488db99bfe05ad7c792a7adbf3fc99b95ef865eecd32c494083a056e81f171bcc55a6ff8345e692c0f86e5b48e01b996cadc001622fb5e363b421a056e81f171bcc55a6ff8345e692c0f86e5b48e01b996cadc001622fb5e363b421b90100000000000000000000000000000000000000000000000000000000000000000000000000000000000000000000000000000000000000000000000000000000000000000000000000000000000000000000000000000000000000000000000000000000000000000000000000000000000000000000000000000000000000000000000000000000000000000000000000000000000000000000000000000000000000000000000000000000000000000000000000000000000000000000000000000000000000000000000000000000000000000000000000000000000000000000000000000000000000000000000000000000000000000000000000000000008302000080830f4240808000a000000000000000000000000000000000000000000000000000000000000000008800000000000000000bc0c0",
        "blocks" : [
            {
                "rlp" : "0xf90261f901f9a0fa2ea87bdb8afa162b967274fa3a887b6e93b7e38926e35c4b2fe37c74718b3aa01dcc4de8dec75d7aab85b567b6ccd41ad312451b948a7413f0a142fd40d49347942adc25665018aa1fe0e6bc666dac8fc2697ff9baa0c629081b09283a032c60fd1f08a499b8cea65cdeadd69a32b708fc97b2421aafa0190f63c95e3461d428b7fabffe61d91ebabda17e655868b1aa97c484d794b258a0605dd97f6c167f09aaf2bbb302b75e159dbb8cc188f48c05ddd5b0f0d384668bb90100000000000000000000000000000000000000000000000000000000000000000000000000000000000000000000000000000000000000000000000000000000000000000000000000000000000000000000000000000000000000000000000000000000000000000000000000000000000000000000000000000000000000000000000000000000000000000000000000000000000000000000000000000000000000000000000000000000000000000000000000000000000000000000000000000000000000000000000000000000000000000000000000000000000000000000000000000000000000000000000000000000000000000000000000000000008302000001830f424083024bab8203e800a000000000000000000000000000000000000000000000000000000000000000008800000000000000000af862f860800a83061a8094deadbeef0000000000000000000000000000000001801ba0c70648a23c02191279c15ab01916a8cb993eed71d08e39b46df27c4286ecc6caa0671a98307a8881b1759f11640fff23373b026be67c3cb9638d642bea99ffb908c0",
                "blockHeader" : {
                    "bloom" : "0x00000000000000000000000000000000000000000000000000000000000000000000000000000000000000000000000000000000000000000000000000000000000000000000000000000000000000000000000000000000000000000000000000000000000000000000000000000000000000000000000000000000000000000000000000000000000000000000000000000000000000000000000000000000000000000000000000000000000000000000000000000000000000000000000000000000000000000000000000000000000000000000000000000000000000000000000000000000000000000000000000000000000000000000000000000000",
                    "coinbase" : "0x2adc25665018aa1fe0e6bc666dac8fc2697ff9ba",
                    "difficulty" : "0x020000",
                    "extraData" : "0x00",
                    "gasLimit" : "0x0f4240",
                    "gasUsed" : "0x024bab",
                    "hash" : "0x863c5fbf7c591df16c7788848e875c7d1297509c448b2dfbb78cc5909923be11",
                    "mixHash" : "0x0000000000000000000000000000000000000000000000000000000000000000",
                    "nonce" : "0x0000000000000000",
                    "number" : "0x01",
                    "parentHash" : "0xfa2ea87bdb8afa162b967274fa3a887b6e93b7e38926e35c4b2fe37c74718b3a",
                    "receiptTrie" : "0x605dd97f6c167f09aaf2bbb302b75e159dbb8cc188f48c05ddd5b0f0d384668b",
                    "stateRoot" : "0xc629081b09283a032c60fd1f08a499b8cea65cdeadd69a32b708fc97b2421aaf",
                    "timestamp" : "0x03e8",
                    "transactionsTrie" : "0x190f63c95e3461d428b7fabffe61d91ebabda17e655868b1aa97c484d794b258",
                    "uncleHash" : "0x1dcc4de8dec75d7aab85b567b6ccd41ad312451b948a7413f0a142fd40d49347",
                    "baseFee" : "0x0a"
                },
                "transactions" : [
                    {
                        "data" : "0x",
                        "gasLimit" : "0x061a80",
                        "gasPrice" : "0x0a",
                        "nonce" : "0x00",
                        "to" : "0xdeadbeef00000000000000000000000000000000",
                        "value" : "0x01",
                        "v" : "0x1b",
                        "r" : "0xc70648a23c02191279c15ab01916a8cb993eed71d08e39b46df27c4286ecc6ca",
                        "s" : "0x671a98307a8881b1759f11640fff23373b026be67c3cb9638d642bea99ffb908"
                    }
                ],
                "uncleHeaders" : [
                ]
            }
        ]
    }
}