{
    "extCodeHashDELEGATECALL_d0g0v0_Berlin" : {
        "_info" : {
            "comment" : "EXTCODEHASH of an account during a DELEGATECALL",
            "filling-rpc-server" : "evm version 1.10.4-unstable-966ee3ae-20210528",
            "filling-tool-version" : "retesteth-0.1.1-eip1559+commit.658fc3a8.Linux.g++",
            "lllcversion" : "Version: 0.5.14-develop.2021.5.18+commit.14c9d5de.mod.Linux.g++",
            "source" : "src/GeneralStateTestsFiller/stExtCodeHash/extCodeHashDELEGATECALLFiller.json",
            "sourceHash" : "cd8fb219db31db113ee61a57185775d3e7f510249be37ac3f53430a6d453891d"
        },
        "genesisBlockHeader" : {
            "bloom" : "0x00000000000000000000000000000000000000000000000000000000000000000000000000000000000000000000000000000000000000000000000000000000000000000000000000000000000000000000000000000000000000000000000000000000000000000000000000000000000000000000000000000000000000000000000000000000000000000000000000000000000000000000000000000000000000000000000000000000000000000000000000000000000000000000000000000000000000000000000000000000000000000000000000000000000000000000000000000000000000000000000000000000000000000000000000000000",
            "coinbase" : "0x2adc25665018aa1fe0e6bc666dac8fc2697ff9ba",
            "difficulty" : "0x020000",
            "extraData" : "0x00",
            "gasLimit" : "0x0f4240",
            "gasUsed" : "0x00",
            "hash" : "0x1b9a00a317e0ff25228288cc8243808a64e2846177301ca53decfc0d0df1d506",
            "mixHash" : "0x0000000000000000000000000000000000000000000000000000000000000000",
            "nonce" : "0x0000000000000000",
            "number" : "0x00",
            "parentHash" : "0x0000000000000000000000000000000000000000000000000000000000000000",
            "receiptTrie" : "0x56e81f171bcc55a6ff8345e692c0f86e5b48e01b996cadc001622fb5e363b421",
            "stateRoot" : "0x6ae7eca272f872de90849e92364555809ae079b9b5d78ad1131b28f7faba5ea0",
            "timestamp" : "0x00",
            "transactionsTrie" : "0x56e81f171bcc55a6ff8345e692c0f86e5b48e01b996cadc001622fb5e363b421",
            "uncleHash" : "0x1dcc4de8dec75d7aab85b567b6ccd41ad312451b948a7413f0a142fd40d49347"
        },
        "pre" : {
            "0x095e7baea6a6c7c4c2dfeb977efac326af552d87" : {
                "balance" : "0x0de0b6b3a7640000",
                "code" : "0x602060006000600073deadbeef00000000000000000000000000000000620249f0f4506020600060003e600051600055602060006000600073aeadbeef00000000000000000000000000000000620249f0f4506020600060003e60005160015500",
                "nonce" : "0x00",
                "storage" : {
                    "0x00" : "0xdeadbeef"
                }
            },
            "0xa94f5374fce5edbc8e2a8697c15331677e6ebf0b" : {
                "balance" : "0x0de0b6b3a7640000",
                "code" : "0x",
                "nonce" : "0x00",
                "storage" : {
                }
            },
            "0xaeadbeef00000000000000000000000000000000" : {
                "balance" : "0x0de0b6b3a7640000",
                "code" : "0x73deadbeef000000000000000000000000000000013b60005260206000f300",
                "nonce" : "0x00",
                "storage" : {
                    "0x00" : "0xdeadbeef"
                }
            },
            "0xdeadbeef00000000000000000000000000000000" : {
                "balance" : "0x0de0b6b3a7640000",
                "code" : "0x73deadbeef000000000000000000000000000000013f60005260206000f300",
                "nonce" : "0x00",
                "storage" : {
                    "0x00" : "0xdeadbeef"
                }
            },
            "0xdeadbeef00000000000000000000000000000001" : {
                "balance" : "0x0de0b6b3a7640000",
                "code" : "0x1234",
                "nonce" : "0x00",
                "storage" : {
                }
            }
        },
        "postState" : {
            "0x095e7baea6a6c7c4c2dfeb977efac326af552d87" : {
                "code" : "0x602060006000600073deadbeef00000000000000000000000000000000620249f0f4506020600060003e600051600055602060006000600073aeadbeef00000000000000000000000000000000620249f0f4506020600060003e60005160015500",
                "nonce" : "0x00",
                "balance" : "0x0de0b6b3a7640001",
                "storage" : {
                    "0x00" : "0x56570de287d73cd1cb6092bb8fdee6173974955fdef345ae579ee9f475ea7432",
                    "0x01" : "0x02"
                }
            },
            "0x2adc25665018aa1fe0e6bc666dac8fc2697ff9ba" : {
                "code" : "0x",
                "nonce" : "0x00",
                "balance" : "0x1bc16d674ed09076",
                "storage" : {
                }
            },
            "0xa94f5374fce5edbc8e2a8697c15331677e6ebf0b" : {
                "code" : "0x",
                "nonce" : "0x01",
                "balance" : "0x0de0b6b3a75b6f89",
                "storage" : {
                }
            },
            "0xaeadbeef00000000000000000000000000000000" : {
                "code" : "0x73deadbeef000000000000000000000000000000013b60005260206000f300",
                "nonce" : "0x00",
                "balance" : "0x0de0b6b3a7640000",
                "storage" : {
                    "0x00" : "0xdeadbeef"
                }
            },
            "0xdeadbeef00000000000000000000000000000000" : {
                "code" : "0x73deadbeef000000000000000000000000000000013f60005260206000f300",
                "nonce" : "0x00",
                "balance" : "0x0de0b6b3a7640000",
                "storage" : {
                    "0x00" : "0xdeadbeef"
                }
            },
            "0xdeadbeef00000000000000000000000000000001" : {
                "code" : "0x1234",
                "nonce" : "0x00",
                "balance" : "0x0de0b6b3a7640000",
                "storage" : {
                }
            }
        },
        "network" : "Berlin",
        "sealEngine" : "NoProof",
        "lastblockhash" : "0x415e4ed33ec9fe5b6223da408945fa38919e194df85f03c192a125bfa30e08b7",
        "genesisRLP" : "0xf901f8f901f3a00000000000000000000000000000000000000000000000000000000000000000a01dcc4de8dec75d7aab85b567b6ccd41ad312451b948a7413f0a142fd40d49347942adc25665018aa1fe0e6bc666dac8fc2697ff9baa06ae7eca272f872de90849e92364555809ae079b9b5d78ad1131b28f7faba5ea0a056e81f171bcc55a6ff8345e692c0f86e5b48e01b996cadc001622fb5e363b421a056e81f171bcc55a6ff8345e692c0f86e5b48e01b996cadc001622fb5e363b421b90100000000000000000000000000000000000000000000000000000000000000000000000000000000000000000000000000000000000000000000000000000000000000000000000000000000000000000000000000000000000000000000000000000000000000000000000000000000000000000000000000000000000000000000000000000000000000000000000000000000000000000000000000000000000000000000000000000000000000000000000000000000000000000000000000000000000000000000000000000000000000000000000000000000000000000000000000000000000000000000000000000000000000000000000000000000008302000080830f4240808000a00000000000000000000000000000000000000000000000000000000000000000880000000000000000c0c0",
        "blocks" : [
            {
                "rlp" : "0xf9025ff901f7a01b9a00a317e0ff25228288cc8243808a64e2846177301ca53decfc0d0df1d506a01dcc4de8dec75d7aab85b567b6ccd41ad312451b948a7413f0a142fd40d49347942adc25665018aa1fe0e6bc666dac8fc2697ff9baa01b0f82d862fdfe008298868b3e17f8ecf2ec9aeb0b9b69700b0f768d1195ab6da0174ccc4f3050aca8eb96ee492d7f77c48698de3988b3a422e2bc6974348182c0a018571b7ea8f74e63ae721c3179b91e11595dbcb88da5bef957b4ed73cfbf3762b90100000000000000000000000000000000000000000000000000000000000000000000000000000000000000000000000000000000000000000000000000000000000000000000000000000000000000000000000000000000000000000000000000000000000000000000000000000000000000000000000000000000000000000000000000000000000000000000000000000000000000000000000000000000000000000000000000000000000000000000000000000000000000000000000000000000000000000000000000000000000000000000000000000000000000000000000000000000000000000000000000000000000000000000000000000000008302000001830f424082db3f8203e800a00000000000000000000000000000000000000000000000000000000000000000880000000000000000f862f860800a83061a8094095e7baea6a6c7c4c2dfeb977efac326af552d8701801ca09d46b87169053cc40670aef750b032c895cde3e35c2c7f5a37c059272e0914c7a04d4a94b67b2776cc3e0fca2ed9503c10fd92ec79f1b2dcbb85df9634c7de3119c0",
                "blockHeader" : {
                    "bloom" : "0x00000000000000000000000000000000000000000000000000000000000000000000000000000000000000000000000000000000000000000000000000000000000000000000000000000000000000000000000000000000000000000000000000000000000000000000000000000000000000000000000000000000000000000000000000000000000000000000000000000000000000000000000000000000000000000000000000000000000000000000000000000000000000000000000000000000000000000000000000000000000000000000000000000000000000000000000000000000000000000000000000000000000000000000000000000000",
                    "coinbase" : "0x2adc25665018aa1fe0e6bc666dac8fc2697ff9ba",
                    "difficulty" : "0x020000",
                    "extraData" : "0x00",
                    "gasLimit" : "0x0f4240",
                    "gasUsed" : "0xdb3f",
                    "hash" : "0x415e4ed33ec9fe5b6223da408945fa38919e194df85f03c192a125bfa30e08b7",
                    "mixHash" : "0x0000000000000000000000000000000000000000000000000000000000000000",
                    "nonce" : "0x0000000000000000",
                    "number" : "0x01",
                    "parentHash" : "0x1b9a00a317e0ff25228288cc8243808a64e2846177301ca53decfc0d0df1d506",
                    "receiptTrie" : "0x18571b7ea8f74e63ae721c3179b91e11595dbcb88da5bef957b4ed73cfbf3762",
                    "stateRoot" : "0x1b0f82d862fdfe008298868b3e17f8ecf2ec9aeb0b9b69700b0f768d1195ab6d",
                    "timestamp" : "0x03e8",
                    "transactionsTrie" : "0x174ccc4f3050aca8eb96ee492d7f77c48698de3988b3a422e2bc6974348182c0",
                    "uncleHash" : "0x1dcc4de8dec75d7aab85b567b6ccd41ad312451b948a7413f0a142fd40d49347"
                },
                "transactions" : [
                    {
                        "data" : "0x",
                        "gasLimit" : "0x061a80",
                        "gasPrice" : "0x0a",
                        "nonce" : "0x00",
                        "to" : "0x095e7baea6a6c7c4c2dfeb977efac326af552d87",
                        "value" : "0x01",
                        "v" : "0x1c",
                        "r" : "0x9d46b87169053cc40670aef750b032c895cde3e35c2c7f5a37c059272e0914c7",
                        "s" : "0x4d4a94b67b2776cc3e0fca2ed9503c10fd92ec79f1b2dcbb85df9634c7de3119"
                    }
                ],
                "uncleHeaders" : [
                ]
            }
        ]
    },
    "extCodeHashDELEGATECALL_d0g0v0_Istanbul" : {
        "_info" : {
            "comment" : "EXTCODEHASH of an account during a DELEGATECALL",
            "filling-rpc-server" : "evm version 1.10.4-unstable-966ee3ae-20210528",
            "filling-tool-version" : "retesteth-0.1.1-eip1559+commit.658fc3a8.Linux.g++",
            "lllcversion" : "Version: 0.5.14-develop.2021.5.18+commit.14c9d5de.mod.Linux.g++",
            "source" : "src/GeneralStateTestsFiller/stExtCodeHash/extCodeHashDELEGATECALLFiller.json",
            "sourceHash" : "cd8fb219db31db113ee61a57185775d3e7f510249be37ac3f53430a6d453891d"
        },
        "genesisBlockHeader" : {
            "bloom" : "0x00000000000000000000000000000000000000000000000000000000000000000000000000000000000000000000000000000000000000000000000000000000000000000000000000000000000000000000000000000000000000000000000000000000000000000000000000000000000000000000000000000000000000000000000000000000000000000000000000000000000000000000000000000000000000000000000000000000000000000000000000000000000000000000000000000000000000000000000000000000000000000000000000000000000000000000000000000000000000000000000000000000000000000000000000000000",
            "coinbase" : "0x2adc25665018aa1fe0e6bc666dac8fc2697ff9ba",
            "difficulty" : "0x020000",
            "extraData" : "0x00",
            "gasLimit" : "0x0f4240",
            "gasUsed" : "0x00",
            "hash" : "0x1b9a00a317e0ff25228288cc8243808a64e2846177301ca53decfc0d0df1d506",
            "mixHash" : "0x0000000000000000000000000000000000000000000000000000000000000000",
            "nonce" : "0x0000000000000000",
            "number" : "0x00",
            "parentHash" : "0x0000000000000000000000000000000000000000000000000000000000000000",
            "receiptTrie" : "0x56e81f171bcc55a6ff8345e692c0f86e5b48e01b996cadc001622fb5e363b421",
            "stateRoot" : "0x6ae7eca272f872de90849e92364555809ae079b9b5d78ad1131b28f7faba5ea0",
            "timestamp" : "0x00",
            "transactionsTrie" : "0x56e81f171bcc55a6ff8345e692c0f86e5b48e01b996cadc001622fb5e363b421",
            "uncleHash" : "0x1dcc4de8dec75d7aab85b567b6ccd41ad312451b948a7413f0a142fd40d49347"
        },
        "pre" : {
            "0x095e7baea6a6c7c4c2dfeb977efac326af552d87" : {
                "balance" : "0x0de0b6b3a7640000",
                "code" : "0x602060006000600073deadbeef00000000000000000000000000000000620249f0f4506020600060003e600051600055602060006000600073aeadbeef00000000000000000000000000000000620249f0f4506020600060003e60005160015500",
                "nonce" : "0x00",
                "storage" : {
                    "0x00" : "0xdeadbeef"
                }
            },
            "0xa94f5374fce5edbc8e2a8697c15331677e6ebf0b" : {
                "balance" : "0x0de0b6b3a7640000",
                "code" : "0x",
                "nonce" : "0x00",
                "storage" : {
                }
            },
            "0xaeadbeef00000000000000000000000000000000" : {
                "balance" : "0x0de0b6b3a7640000",
                "code" : "0x73deadbeef000000000000000000000000000000013b60005260206000f300",
                "nonce" : "0x00",
                "storage" : {
                    "0x00" : "0xdeadbeef"
                }
            },
            "0xdeadbeef00000000000000000000000000000000" : {
                "balance" : "0x0de0b6b3a7640000",
                "code" : "0x73deadbeef000000000000000000000000000000013f60005260206000f300",
                "nonce" : "0x00",
                "storage" : {
                    "0x00" : "0xdeadbeef"
                }
            },
            "0xdeadbeef00000000000000000000000000000001" : {
                "balance" : "0x0de0b6b3a7640000",
                "code" : "0x1234",
                "nonce" : "0x00",
                "storage" : {
                }
            }
        },
        "postState" : {
            "0x095e7baea6a6c7c4c2dfeb977efac326af552d87" : {
                "code" : "0x602060006000600073deadbeef00000000000000000000000000000000620249f0f4506020600060003e600051600055602060006000600073aeadbeef00000000000000000000000000000000620249f0f4506020600060003e60005160015500",
                "nonce" : "0x00",
                "balance" : "0x0de0b6b3a7640001",
                "storage" : {
                    "0x00" : "0x56570de287d73cd1cb6092bb8fdee6173974955fdef345ae579ee9f475ea7432",
                    "0x01" : "0x02"
                }
            },
            "0x2adc25665018aa1fe0e6bc666dac8fc2697ff9ba" : {
                "code" : "0x",
                "nonce" : "0x00",
                "balance" : "0x1bc16d674ecf7736",
                "storage" : {
                }
            },
            "0xa94f5374fce5edbc8e2a8697c15331677e6ebf0b" : {
                "code" : "0x",
                "nonce" : "0x01",
                "balance" : "0x0de0b6b3a75c88c9",
                "storage" : {
                }
            },
            "0xaeadbeef00000000000000000000000000000000" : {
                "code" : "0x73deadbeef000000000000000000000000000000013b60005260206000f300",
                "nonce" : "0x00",
                "balance" : "0x0de0b6b3a7640000",
                "storage" : {
                    "0x00" : "0xdeadbeef"
                }
            },
            "0xdeadbeef00000000000000000000000000000000" : {
                "code" : "0x73deadbeef000000000000000000000000000000013f60005260206000f300",
                "nonce" : "0x00",
                "balance" : "0x0de0b6b3a7640000",
                "storage" : {
                    "0x00" : "0xdeadbeef"
                }
            },
            "0xdeadbeef00000000000000000000000000000001" : {
                "code" : "0x1234",
                "nonce" : "0x00",
                "balance" : "0x0de0b6b3a7640000",
                "storage" : {
                }
            }
        },
        "network" : "Istanbul",
        "sealEngine" : "NoProof",
        "lastblockhash" : "0xc2722d0f4db38bf5c12667f9e6e110d159389755e105536bd7feff25468062ee",
        "genesisRLP" : "0xf901f8f901f3a00000000000000000000000000000000000000000000000000000000000000000a01dcc4de8dec75d7aab85b567b6ccd41ad312451b948a7413f0a142fd40d49347942adc25665018aa1fe0e6bc666dac8fc2697ff9baa06ae7eca272f872de90849e92364555809ae079b9b5d78ad1131b28f7faba5ea0a056e81f171bcc55a6ff8345e692c0f86e5b48e01b996cadc001622fb5e363b421a056e81f171bcc55a6ff8345e692c0f86e5b48e01b996cadc001622fb5e363b421b90100000000000000000000000000000000000000000000000000000000000000000000000000000000000000000000000000000000000000000000000000000000000000000000000000000000000000000000000000000000000000000000000000000000000000000000000000000000000000000000000000000000000000000000000000000000000000000000000000000000000000000000000000000000000000000000000000000000000000000000000000000000000000000000000000000000000000000000000000000000000000000000000000000000000000000000000000000000000000000000000000000000000000000000000000000000008302000080830f4240808000a00000000000000000000000000000000000000000000000000000000000000000880000000000000000c0c0",
        "blocks" : [
            {
                "rlp" : "0xf9025ff901f7a01b9a00a317e0ff25228288cc8243808a64e2846177301ca53decfc0d0df1d506a01dcc4de8dec75d7aab85b567b6ccd41ad312451b948a7413f0a142fd40d49347942adc25665018aa1fe0e6bc666dac8fc2697ff9baa0fea7a568de98e469bf254d93e2d2de86e3aeaea1688ce1de51c34496e4ffd8e2a0174ccc4f3050aca8eb96ee492d7f77c48698de3988b3a422e2bc6974348182c0a0d75ce864dadada873271945fcac717f5e78f8533d9d65564ef9a317a7b7980d5b90100000000000000000000000000000000000000000000000000000000000000000000000000000000000000000000000000000000000000000000000000000000000000000000000000000000000000000000000000000000000000000000000000000000000000000000000000000000000000000000000000000000000000000000000000000000000000000000000000000000000000000000000000000000000000000000000000000000000000000000000000000000000000000000000000000000000000000000000000000000000000000000000000000000000000000000000000000000000000000000000000000000000000000000000000000000008302000001830f424082bf1f8203e800a00000000000000000000000000000000000000000000000000000000000000000880000000000000000f862f860800a83061a8094095e7baea6a6c7c4c2dfeb977efac326af552d8701801ca09d46b87169053cc40670aef750b032c895cde3e35c2c7f5a37c059272e0914c7a04d4a94b67b2776cc3e0fca2ed9503c10fd92ec79f1b2dcbb85df9634c7de3119c0",
                "blockHeader" : {
                    "bloom" : "0x00000000000000000000000000000000000000000000000000000000000000000000000000000000000000000000000000000000000000000000000000000000000000000000000000000000000000000000000000000000000000000000000000000000000000000000000000000000000000000000000000000000000000000000000000000000000000000000000000000000000000000000000000000000000000000000000000000000000000000000000000000000000000000000000000000000000000000000000000000000000000000000000000000000000000000000000000000000000000000000000000000000000000000000000000000000",
                    "coinbase" : "0x2adc25665018aa1fe0e6bc666dac8fc2697ff9ba",
                    "difficulty" : "0x020000",
                    "extraData" : "0x00",
                    "gasLimit" : "0x0f4240",
                    "gasUsed" : "0xbf1f",
                    "hash" : "0xc2722d0f4db38bf5c12667f9e6e110d159389755e105536bd7feff25468062ee",
                    "mixHash" : "0x0000000000000000000000000000000000000000000000000000000000000000",
                    "nonce" : "0x0000000000000000",
                    "number" : "0x01",
                    "parentHash" : "0x1b9a00a317e0ff25228288cc8243808a64e2846177301ca53decfc0d0df1d506",
                    "receiptTrie" : "0xd75ce864dadada873271945fcac717f5e78f8533d9d65564ef9a317a7b7980d5",
                    "stateRoot" : "0xfea7a568de98e469bf254d93e2d2de86e3aeaea1688ce1de51c34496e4ffd8e2",
                    "timestamp" : "0x03e8",
                    "transactionsTrie" : "0x174ccc4f3050aca8eb96ee492d7f77c48698de3988b3a422e2bc6974348182c0",
                    "uncleHash" : "0x1dcc4de8dec75d7aab85b567b6ccd41ad312451b948a7413f0a142fd40d49347"
                },
                "transactions" : [
                    {
                        "data" : "0x",
                        "gasLimit" : "0x061a80",
                        "gasPrice" : "0x0a",
                        "nonce" : "0x00",
                        "to" : "0x095e7baea6a6c7c4c2dfeb977efac326af552d87",
                        "value" : "0x01",
                        "v" : "0x1c",
                        "r" : "0x9d46b87169053cc40670aef750b032c895cde3e35c2c7f5a37c059272e0914c7",
                        "s" : "0x4d4a94b67b2776cc3e0fca2ed9503c10fd92ec79f1b2dcbb85df9634c7de3119"
                    }
                ],
                "uncleHeaders" : [
                ]
            }
        ]
    },
    "extCodeHashDELEGATECALL_d0g0v0_London" : {
        "_info" : {
            "comment" : "EXTCODEHASH of an account during a DELEGATECALL",
            "filling-rpc-server" : "evm version 1.10.4-unstable-966ee3ae-20210528",
            "filling-tool-version" : "retesteth-0.1.1-eip1559+commit.658fc3a8.Linux.g++",
            "lllcversion" : "Version: 0.5.14-develop.2021.5.18+commit.14c9d5de.mod.Linux.g++",
            "source" : "src/GeneralStateTestsFiller/stExtCodeHash/extCodeHashDELEGATECALLFiller.json",
            "sourceHash" : "cd8fb219db31db113ee61a57185775d3e7f510249be37ac3f53430a6d453891d"
        },
        "genesisBlockHeader" : {
            "bloom" : "0x00000000000000000000000000000000000000000000000000000000000000000000000000000000000000000000000000000000000000000000000000000000000000000000000000000000000000000000000000000000000000000000000000000000000000000000000000000000000000000000000000000000000000000000000000000000000000000000000000000000000000000000000000000000000000000000000000000000000000000000000000000000000000000000000000000000000000000000000000000000000000000000000000000000000000000000000000000000000000000000000000000000000000000000000000000000",
            "coinbase" : "0x2adc25665018aa1fe0e6bc666dac8fc2697ff9ba",
            "difficulty" : "0x020000",
            "extraData" : "0x00",
            "gasLimit" : "0x0f4240",
            "gasUsed" : "0x00",
            "hash" : "0xe5e36ea58732d8b05c8f666327b3742a50de2cd93774f060382638427700e379",
            "mixHash" : "0x0000000000000000000000000000000000000000000000000000000000000000",
            "nonce" : "0x0000000000000000",
            "number" : "0x00",
            "parentHash" : "0x0000000000000000000000000000000000000000000000000000000000000000",
            "receiptTrie" : "0x56e81f171bcc55a6ff8345e692c0f86e5b48e01b996cadc001622fb5e363b421",
            "stateRoot" : "0x6ae7eca272f872de90849e92364555809ae079b9b5d78ad1131b28f7faba5ea0",
            "timestamp" : "0x00",
            "transactionsTrie" : "0x56e81f171bcc55a6ff8345e692c0f86e5b48e01b996cadc001622fb5e363b421",
            "uncleHash" : "0x1dcc4de8dec75d7aab85b567b6ccd41ad312451b948a7413f0a142fd40d49347",
            "baseFee" : "0x0b"
        },
        "pre" : {
            "0x095e7baea6a6c7c4c2dfeb977efac326af552d87" : {
                "balance" : "0x0de0b6b3a7640000",
                "code" : "0x602060006000600073deadbeef00000000000000000000000000000000620249f0f4506020600060003e600051600055602060006000600073aeadbeef00000000000000000000000000000000620249f0f4506020600060003e60005160015500",
                "nonce" : "0x00",
                "storage" : {
                    "0x00" : "0xdeadbeef"
                }
            },
            "0xa94f5374fce5edbc8e2a8697c15331677e6ebf0b" : {
                "balance" : "0x0de0b6b3a7640000",
                "code" : "0x",
                "nonce" : "0x00",
                "storage" : {
                }
            },
            "0xaeadbeef00000000000000000000000000000000" : {
                "balance" : "0x0de0b6b3a7640000",
                "code" : "0x73deadbeef000000000000000000000000000000013b60005260206000f300",
                "nonce" : "0x00",
                "storage" : {
                    "0x00" : "0xdeadbeef"
                }
            },
            "0xdeadbeef00000000000000000000000000000000" : {
                "balance" : "0x0de0b6b3a7640000",
                "code" : "0x73deadbeef000000000000000000000000000000013f60005260206000f300",
                "nonce" : "0x00",
                "storage" : {
                    "0x00" : "0xdeadbeef"
                }
            },
            "0xdeadbeef00000000000000000000000000000001" : {
                "balance" : "0x0de0b6b3a7640000",
                "code" : "0x1234",
                "nonce" : "0x00",
                "storage" : {
                }
            }
        },
        "postState" : {
            "0x095e7baea6a6c7c4c2dfeb977efac326af552d87" : {
                "code" : "0x602060006000600073deadbeef00000000000000000000000000000000620249f0f4506020600060003e600051600055602060006000600073aeadbeef00000000000000000000000000000000620249f0f4506020600060003e60005160015500",
                "nonce" : "0x00",
                "balance" : "0x0de0b6b3a7640001",
                "storage" : {
                    "0x00" : "0x56570de287d73cd1cb6092bb8fdee6173974955fdef345ae579ee9f475ea7432",
                    "0x01" : "0x02"
                }
            },
            "0x2adc25665018aa1fe0e6bc666dac8fc2697ff9ba" : {
                "code" : "0x",
                "nonce" : "0x00",
                "balance" : "0x1bc16d674ec80000",
                "storage" : {
                }
            },
            "0xa94f5374fce5edbc8e2a8697c15331677e6ebf0b" : {
                "code" : "0x",
                "nonce" : "0x01",
                "balance" : "0x0de0b6b3a75b6f89",
                "storage" : {
                }
            },
            "0xaeadbeef00000000000000000000000000000000" : {
                "code" : "0x73deadbeef000000000000000000000000000000013b60005260206000f300",
                "nonce" : "0x00",
                "balance" : "0x0de0b6b3a7640000",
                "storage" : {
                    "0x00" : "0xdeadbeef"
                }
            },
            "0xdeadbeef00000000000000000000000000000000" : {
                "code" : "0x73deadbeef000000000000000000000000000000013f60005260206000f300",
                "nonce" : "0x00",
                "balance" : "0x0de0b6b3a7640000",
                "storage" : {
                    "0x00" : "0xdeadbeef"
                }
            },
            "0xdeadbeef00000000000000000000000000000001" : {
                "code" : "0x1234",
                "nonce" : "0x00",
                "balance" : "0x0de0b6b3a7640000",
                "storage" : {
                }
            }
        },
        "network" : "London",
        "sealEngine" : "NoProof",
        "lastblockhash" : "0x21054aec97d2367823f98b7ce76e873c40b66570333473381e604fff9d645182",
        "genesisRLP" : "0xf901f9f901f4a00000000000000000000000000000000000000000000000000000000000000000a01dcc4de8dec75d7aab85b567b6ccd41ad312451b948a7413f0a142fd40d49347942adc25665018aa1fe0e6bc666dac8fc2697ff9baa06ae7eca272f872de90849e92364555809ae079b9b5d78ad1131b28f7faba5ea0a056e81f171bcc55a6ff8345e692c0f86e5b48e01b996cadc001622fb5e363b421a056e81f171bcc55a6ff8345e692c0f86e5b48e01b996cadc001622fb5e363b421b90100000000000000000000000000000000000000000000000000000000000000000000000000000000000000000000000000000000000000000000000000000000000000000000000000000000000000000000000000000000000000000000000000000000000000000000000000000000000000000000000000000000000000000000000000000000000000000000000000000000000000000000000000000000000000000000000000000000000000000000000000000000000000000000000000000000000000000000000000000000000000000000000000000000000000000000000000000000000000000000000000000000000000000000000000000000008302000080830f4240808000a000000000000000000000000000000000000000000000000000000000000000008800000000000000000bc0c0",
        "blocks" : [
            {
                "rlp" : "0xf90260f901f8a0e5e36ea58732d8b05c8f666327b3742a50de2cd93774f060382638427700e379a01dcc4de8dec75d7aab85b567b6ccd41ad312451b948a7413f0a142fd40d49347942adc25665018aa1fe0e6bc666dac8fc2697ff9baa0740577f252857e8fb5337b8009df5c96ec3a44f1bbf0942bd865d83eac47bec9a0174ccc4f3050aca8eb96ee492d7f77c48698de3988b3a422e2bc6974348182c0a018571b7ea8f74e63ae721c3179b91e11595dbcb88da5bef957b4ed73cfbf3762b90100000000000000000000000000000000000000000000000000000000000000000000000000000000000000000000000000000000000000000000000000000000000000000000000000000000000000000000000000000000000000000000000000000000000000000000000000000000000000000000000000000000000000000000000000000000000000000000000000000000000000000000000000000000000000000000000000000000000000000000000000000000000000000000000000000000000000000000000000000000000000000000000000000000000000000000000000000000000000000000000000000000000000000000000000000000008302000001830f424082db3f8203e800a000000000000000000000000000000000000000000000000000000000000000008800000000000000000af862f860800a83061a8094095e7baea6a6c7c4c2dfeb977efac326af552d8701801ca09d46b87169053cc40670aef750b032c895cde3e35c2c7f5a37c059272e0914c7a04d4a94b67b2776cc3e0fca2ed9503c10fd92ec79f1b2dcbb85df9634c7de3119c0",
                "blockHeader" : {
                    "bloom" : "0x00000000000000000000000000000000000000000000000000000000000000000000000000000000000000000000000000000000000000000000000000000000000000000000000000000000000000000000000000000000000000000000000000000000000000000000000000000000000000000000000000000000000000000000000000000000000000000000000000000000000000000000000000000000000000000000000000000000000000000000000000000000000000000000000000000000000000000000000000000000000000000000000000000000000000000000000000000000000000000000000000000000000000000000000000000000",
                    "coinbase" : "0x2adc25665018aa1fe0e6bc666dac8fc2697ff9ba",
                    "difficulty" : "0x020000",
                    "extraData" : "0x00",
                    "gasLimit" : "0x0f4240",
                    "gasUsed" : "0xdb3f",
                    "hash" : "0x21054aec97d2367823f98b7ce76e873c40b66570333473381e604fff9d645182",
                    "mixHash" : "0x0000000000000000000000000000000000000000000000000000000000000000",
                    "nonce" : "0x0000000000000000",
                    "number" : "0x01",
                    "parentHash" : "0xe5e36ea58732d8b05c8f666327b3742a50de2cd93774f060382638427700e379",
                    "receiptTrie" : "0x18571b7ea8f74e63ae721c3179b91e11595dbcb88da5bef957b4ed73cfbf3762",
                    "stateRoot" : "0x740577f252857e8fb5337b8009df5c96ec3a44f1bbf0942bd865d83eac47bec9",
                    "timestamp" : "0x03e8",
                    "transactionsTrie" : "0x174ccc4f3050aca8eb96ee492d7f77c48698de3988b3a422e2bc6974348182c0",
                    "uncleHash" : "0x1dcc4de8dec75d7aab85b567b6ccd41ad312451b948a7413f0a142fd40d49347",
                    "baseFee" : "0x0a"
                },
                "transactions" : [
                    {
                        "data" : "0x",
                        "gasLimit" : "0x061a80",
                        "gasPrice" : "0x0a",
                        "nonce" : "0x00",
                        "to" : "0x095e7baea6a6c7c4c2dfeb977efac326af552d87",
                        "value" : "0x01",
                        "v" : "0x1c",
                        "r" : "0x9d46b87169053cc40670aef750b032c895cde3e35c2c7f5a37c059272e0914c7",
                        "s" : "0x4d4a94b67b2776cc3e0fca2ed9503c10fd92ec79f1b2dcbb85df9634c7de3119"
                    }
                ],
                "uncleHeaders" : [
                ]
            }
        ]
    }
}