{
    "extCodeHashNewAccount_d0g0v0_Berlin" : {
        "_info" : {
            "comment" : "EXTCODEHASH/EXTCODESIZE of an account created in same transaction",
            "filling-rpc-server" : "evm version 1.10.4-unstable-966ee3ae-20210528",
            "filling-tool-version" : "retesteth-0.1.1-eip1559+commit.658fc3a8.Linux.g++",
            "lllcversion" : "Version: 0.5.14-develop.2021.5.18+commit.14c9d5de.mod.Linux.g++",
            "source" : "src/GeneralStateTestsFiller/stExtCodeHash/extCodeHashNewAccountFiller.json",
            "sourceHash" : "f2186275486bebd4412caa34b86beccd003e7be03a2ae5ca5b389825f85ac5ad"
        },
        "genesisBlockHeader" : {
            "bloom" : "0x00000000000000000000000000000000000000000000000000000000000000000000000000000000000000000000000000000000000000000000000000000000000000000000000000000000000000000000000000000000000000000000000000000000000000000000000000000000000000000000000000000000000000000000000000000000000000000000000000000000000000000000000000000000000000000000000000000000000000000000000000000000000000000000000000000000000000000000000000000000000000000000000000000000000000000000000000000000000000000000000000000000000000000000000000000000",
            "coinbase" : "0x2adc25665018aa1fe0e6bc666dac8fc2697ff9ba",
            "difficulty" : "0x020000",
            "extraData" : "0x00",
            "gasLimit" : "0x0f4240",
            "gasUsed" : "0x00",
            "hash" : "0x9bf9d1e791a095ddb484983fc6b9364adc60b17589d7a67435fca854d0151c68",
            "mixHash" : "0x0000000000000000000000000000000000000000000000000000000000000000",
            "nonce" : "0x0000000000000000",
            "number" : "0x00",
            "parentHash" : "0x0000000000000000000000000000000000000000000000000000000000000000",
            "receiptTrie" : "0x56e81f171bcc55a6ff8345e692c0f86e5b48e01b996cadc001622fb5e363b421",
            "stateRoot" : "0x52a926c790f4e291cdcec4ad4fd91ddefc02381d3e357380f3b04963fa6e305c",
            "timestamp" : "0x00",
            "transactionsTrie" : "0x56e81f171bcc55a6ff8345e692c0f86e5b48e01b996cadc001622fb5e363b421",
            "uncleHash" : "0x1dcc4de8dec75d7aab85b567b6ccd41ad312451b948a7413f0a142fd40d49347"
        },
        "pre" : {
            "0xa94f5374fce5edbc8e2a8697c15331677e6ebf0b" : {
                "balance" : "0x0de0b6b3a7640000",
                "code" : "0x",
                "nonce" : "0x00",
                "storage" : {
                }
            },
            "0xdeadbeef00000000000000000000000000000000" : {
                "balance" : "0x0de0b6b3a7640000",
                "code" : "0x6010600c80602360003960006000f56000526000513f6000556000513b6001550000fe61123460005260206000f300",
                "nonce" : "0x00",
                "storage" : {
                }
            }
        },
        "postState" : {
            "0x2adc25665018aa1fe0e6bc666dac8fc2697ff9ba" : {
                "code" : "0x",
                "nonce" : "0x00",
                "balance" : "0x1bc16d674ed7d9bc",
                "storage" : {
                }
            },
            "0x75e23f851ce92ee62896c1fb1127d4be2c53f59d" : {
                "code" : "0x0000000000000000000000000000000000000000000000000000000000001234",
                "nonce" : "0x01",
                "balance" : "0x00",
                "storage" : {
                }
            },
            "0xa94f5374fce5edbc8e2a8697c15331677e6ebf0b" : {
                "code" : "0x",
                "nonce" : "0x01",
                "balance" : "0x0de0b6b3a7542643",
                "storage" : {
                }
            },
            "0xdeadbeef00000000000000000000000000000000" : {
                "code" : "0x6010600c80602360003960006000f56000526000513f6000556000513b6001550000fe61123460005260206000f300",
                "nonce" : "0x01",
                "balance" : "0x0de0b6b3a7640001",
                "storage" : {
                    "0x00" : "0xe321d900f3fd366734e2d071e30949ded20c27fd638f1a059390091c643b62c5",
                    "0x01" : "0x20"
                }
            }
        },
        "network" : "Berlin",
        "sealEngine" : "NoProof",
        "lastblockhash" : "0x410af66362704883fdf558f38b53b869ab73704acae166cb6f0246c297a2a70d",
        "genesisRLP" : "0xf901f8f901f3a00000000000000000000000000000000000000000000000000000000000000000a01dcc4de8dec75d7aab85b567b6ccd41ad312451b948a7413f0a142fd40d49347942adc25665018aa1fe0e6bc666dac8fc2697ff9baa052a926c790f4e291cdcec4ad4fd91ddefc02381d3e357380f3b04963fa6e305ca056e81f171bcc55a6ff8345e692c0f86e5b48e01b996cadc001622fb5e363b421a056e81f171bcc55a6ff8345e692c0f86e5b48e01b996cadc001622fb5e363b421b90100000000000000000000000000000000000000000000000000000000000000000000000000000000000000000000000000000000000000000000000000000000000000000000000000000000000000000000000000000000000000000000000000000000000000000000000000000000000000000000000000000000000000000000000000000000000000000000000000000000000000000000000000000000000000000000000000000000000000000000000000000000000000000000000000000000000000000000000000000000000000000000000000000000000000000000000000000000000000000000000000000000000000000000000000000000008302000080830f4240808000a00000000000000000000000000000000000000000000000000000000000000000880000000000000000c0c0",
        "blocks" : [
            {
                "rlp" : "0xf90260f901f8a09bf9d1e791a095ddb484983fc6b9364adc60b17589d7a67435fca854d0151c68a01dcc4de8dec75d7aab85b567b6ccd41ad312451b948a7413f0a142fd40d49347942adc25665018aa1fe0e6bc666dac8fc2697ff9baa06bcbea0d349c067c07f3409a4a1b2a88048f88081381821ba51f4fc22164ed64a0190f63c95e3461d428b7fabffe61d91ebabda17e655868b1aa97c484d794b258a015c95890141ac73cbd21bc8f386deb35ecda27e28254f73c021a7967610fbfc5b90100000000000000000000000000000000000000000000000000000000000000000000000000000000000000000000000000000000000000000000000000000000000000000000000000000000000000000000000000000000000000000000000000000000000000000000000000000000000000000000000000000000000000000000000000000000000000000000000000000000000000000000000000000000000000000000000000000000000000000000000000000000000000000000000000000000000000000000000000000000000000000000000000000000000000000000000000000000000000000000000000000000000000000000000000000000008302000001830f4240830195c68203e800a00000000000000000000000000000000000000000000000000000000000000000880000000000000000f862f860800a83061a8094deadbeef0000000000000000000000000000000001801ba0c70648a23c02191279c15ab01916a8cb993eed71d08e39b46df27c4286ecc6caa0671a98307a8881b1759f11640fff23373b026be67c3cb9638d642bea99ffb908c0",
                "blockHeader" : {
                    "bloom" : "0x00000000000000000000000000000000000000000000000000000000000000000000000000000000000000000000000000000000000000000000000000000000000000000000000000000000000000000000000000000000000000000000000000000000000000000000000000000000000000000000000000000000000000000000000000000000000000000000000000000000000000000000000000000000000000000000000000000000000000000000000000000000000000000000000000000000000000000000000000000000000000000000000000000000000000000000000000000000000000000000000000000000000000000000000000000000",
                    "coinbase" : "0x2adc25665018aa1fe0e6bc666dac8fc2697ff9ba",
                    "difficulty" : "0x020000",
                    "extraData" : "0x00",
                    "gasLimit" : "0x0f4240",
                    "gasUsed" : "0x0195c6",
                    "hash" : "0x410af66362704883fdf558f38b53b869ab73704acae166cb6f0246c297a2a70d",
                    "mixHash" : "0x0000000000000000000000000000000000000000000000000000000000000000",
                    "nonce" : "0x0000000000000000",
                    "number" : "0x01",
                    "parentHash" : "0x9bf9d1e791a095ddb484983fc6b9364adc60b17589d7a67435fca854d0151c68",
                    "receiptTrie" : "0x15c95890141ac73cbd21bc8f386deb35ecda27e28254f73c021a7967610fbfc5",
                    "stateRoot" : "0x6bcbea0d349c067c07f3409a4a1b2a88048f88081381821ba51f4fc22164ed64",
                    "timestamp" : "0x03e8",
                    "transactionsTrie" : "0x190f63c95e3461d428b7fabffe61d91ebabda17e655868b1aa97c484d794b258",
                    "uncleHash" : "0x1dcc4de8dec75d7aab85b567b6ccd41ad312451b948a7413f0a142fd40d49347"
                },
                "transactions" : [
                    {
                        "data" : "0x",
                        "gasLimit" : "0x061a80",
                        "gasPrice" : "0x0a",
                        "nonce" : "0x00",
                        "to" : "0xdeadbeef00000000000000000000000000000000",
                        "value" : "0x01",
                        "v" : "0x1b",
                        "r" : "0xc70648a23c02191279c15ab01916a8cb993eed71d08e39b46df27c4286ecc6ca",
                        "s" : "0x671a98307a8881b1759f11640fff23373b026be67c3cb9638d642bea99ffb908"
                    }
                ],
                "uncleHeaders" : [
                ]
            }
        ]
    },
    "extCodeHashNewAccount_d0g0v0_Istanbul" : {
        "_info" : {
            "comment" : "EXTCODEHASH/EXTCODESIZE of an account created in same transaction",
            "filling-rpc-server" : "evm version 1.10.4-unstable-966ee3ae-20210528",
            "filling-tool-version" : "retesteth-0.1.1-eip1559+commit.658fc3a8.Linux.g++",
            "lllcversion" : "Version: 0.5.14-develop.2021.5.18+commit.14c9d5de.mod.Linux.g++",
            "source" : "src/GeneralStateTestsFiller/stExtCodeHash/extCodeHashNewAccountFiller.json",
            "sourceHash" : "f2186275486bebd4412caa34b86beccd003e7be03a2ae5ca5b389825f85ac5ad"
        },
        "genesisBlockHeader" : {
            "bloom" : "0x00000000000000000000000000000000000000000000000000000000000000000000000000000000000000000000000000000000000000000000000000000000000000000000000000000000000000000000000000000000000000000000000000000000000000000000000000000000000000000000000000000000000000000000000000000000000000000000000000000000000000000000000000000000000000000000000000000000000000000000000000000000000000000000000000000000000000000000000000000000000000000000000000000000000000000000000000000000000000000000000000000000000000000000000000000000",
            "coinbase" : "0x2adc25665018aa1fe0e6bc666dac8fc2697ff9ba",
            "difficulty" : "0x020000",
            "extraData" : "0x00",
            "gasLimit" : "0x0f4240",
            "gasUsed" : "0x00",
            "hash" : "0x9bf9d1e791a095ddb484983fc6b9364adc60b17589d7a67435fca854d0151c68",
            "mixHash" : "0x0000000000000000000000000000000000000000000000000000000000000000",
            "nonce" : "0x0000000000000000",
            "number" : "0x00",
            "parentHash" : "0x0000000000000000000000000000000000000000000000000000000000000000",
            "receiptTrie" : "0x56e81f171bcc55a6ff8345e692c0f86e5b48e01b996cadc001622fb5e363b421",
            "stateRoot" : "0x52a926c790f4e291cdcec4ad4fd91ddefc02381d3e357380f3b04963fa6e305c",
            "timestamp" : "0x00",
            "transactionsTrie" : "0x56e81f171bcc55a6ff8345e692c0f86e5b48e01b996cadc001622fb5e363b421",
            "uncleHash" : "0x1dcc4de8dec75d7aab85b567b6ccd41ad312451b948a7413f0a142fd40d49347"
        },
        "pre" : {
            "0xa94f5374fce5edbc8e2a8697c15331677e6ebf0b" : {
                "balance" : "0x0de0b6b3a7640000",
                "code" : "0x",
                "nonce" : "0x00",
                "storage" : {
                }
            },
            "0xdeadbeef00000000000000000000000000000000" : {
                "balance" : "0x0de0b6b3a7640000",
                "code" : "0x6010600c80602360003960006000f56000526000513f6000556000513b6001550000fe61123460005260206000f300",
                "nonce" : "0x00",
                "storage" : {
                }
            }
        },
        "postState" : {
            "0x2adc25665018aa1fe0e6bc666dac8fc2697ff9ba" : {
                "code" : "0x",
                "nonce" : "0x00",
                "balance" : "0x1bc16d674ed7648c",
                "storage" : {
                }
            },
            "0x75e23f851ce92ee62896c1fb1127d4be2c53f59d" : {
                "code" : "0x0000000000000000000000000000000000000000000000000000000000001234",
                "nonce" : "0x01",
                "balance" : "0x00",
                "storage" : {
                }
            },
            "0xa94f5374fce5edbc8e2a8697c15331677e6ebf0b" : {
                "code" : "0x",
                "nonce" : "0x01",
                "balance" : "0x0de0b6b3a7549b73",
                "storage" : {
                }
            },
            "0xdeadbeef00000000000000000000000000000000" : {
                "code" : "0x6010600c80602360003960006000f56000526000513f6000556000513b6001550000fe61123460005260206000f300",
                "nonce" : "0x01",
                "balance" : "0x0de0b6b3a7640001",
                "storage" : {
                    "0x00" : "0xe321d900f3fd366734e2d071e30949ded20c27fd638f1a059390091c643b62c5",
                    "0x01" : "0x20"
                }
            }
        },
        "network" : "Istanbul",
        "sealEngine" : "NoProof",
        "lastblockhash" : "0xe13bdd0b492e07bc5f420cb791802e7898b992cbf174c8b3aaf5a0a8e712a6be",
        "genesisRLP" : "0xf901f8f901f3a00000000000000000000000000000000000000000000000000000000000000000a01dcc4de8dec75d7aab85b567b6ccd41ad312451b948a7413f0a142fd40d49347942adc25665018aa1fe0e6bc666dac8fc2697ff9baa052a926c790f4e291cdcec4ad4fd91ddefc02381d3e357380f3b04963fa6e305ca056e81f171bcc55a6ff8345e692c0f86e5b48e01b996cadc001622fb5e363b421a056e81f171bcc55a6ff8345e692c0f86e5b48e01b996cadc001622fb5e363b421b90100000000000000000000000000000000000000000000000000000000000000000000000000000000000000000000000000000000000000000000000000000000000000000000000000000000000000000000000000000000000000000000000000000000000000000000000000000000000000000000000000000000000000000000000000000000000000000000000000000000000000000000000000000000000000000000000000000000000000000000000000000000000000000000000000000000000000000000000000000000000000000000000000000000000000000000000000000000000000000000000000000000000000000000000000000000008302000080830f4240808000a00000000000000000000000000000000000000000000000000000000000000000880000000000000000c0c0",
        "blocks" : [
            {
                "rlp" : "0xf90260f901f8a09bf9d1e791a095ddb484983fc6b9364adc60b17589d7a67435fca854d0151c68a01dcc4de8dec75d7aab85b567b6ccd41ad312451b948a7413f0a142fd40d49347942adc25665018aa1fe0e6bc666dac8fc2697ff9baa06fae0e4016eebd0b106fc75e999b01c37e7146289a157c0a0568b039e978dd32a0190f63c95e3461d428b7fabffe61d91ebabda17e655868b1aa97c484d794b258a054470fc66adced0ecace7004b63708067539a77d7555232813c406f5f5796adbb90100000000000000000000000000000000000000000000000000000000000000000000000000000000000000000000000000000000000000000000000000000000000000000000000000000000000000000000000000000000000000000000000000000000000000000000000000000000000000000000000000000000000000000000000000000000000000000000000000000000000000000000000000000000000000000000000000000000000000000000000000000000000000000000000000000000000000000000000000000000000000000000000000000000000000000000000000000000000000000000000000000000000000000000000000000000008302000001830f424083018a0e8203e800a00000000000000000000000000000000000000000000000000000000000000000880000000000000000f862f860800a83061a8094deadbeef0000000000000000000000000000000001801ba0c70648a23c02191279c15ab01916a8cb993eed71d08e39b46df27c4286ecc6caa0671a98307a8881b1759f11640fff23373b026be67c3cb9638d642bea99ffb908c0",
                "blockHeader" : {
                    "bloom" : "0x00000000000000000000000000000000000000000000000000000000000000000000000000000000000000000000000000000000000000000000000000000000000000000000000000000000000000000000000000000000000000000000000000000000000000000000000000000000000000000000000000000000000000000000000000000000000000000000000000000000000000000000000000000000000000000000000000000000000000000000000000000000000000000000000000000000000000000000000000000000000000000000000000000000000000000000000000000000000000000000000000000000000000000000000000000000",
                    "coinbase" : "0x2adc25665018aa1fe0e6bc666dac8fc2697ff9ba",
                    "difficulty" : "0x020000",
                    "extraData" : "0x00",
                    "gasLimit" : "0x0f4240",
                    "gasUsed" : "0x018a0e",
                    "hash" : "0xe13bdd0b492e07bc5f420cb791802e7898b992cbf174c8b3aaf5a0a8e712a6be",
                    "mixHash" : "0x0000000000000000000000000000000000000000000000000000000000000000",
                    "nonce" : "0x0000000000000000",
                    "number" : "0x01",
                    "parentHash" : "0x9bf9d1e791a095ddb484983fc6b9364adc60b17589d7a67435fca854d0151c68",
                    "receiptTrie" : "0x54470fc66adced0ecace7004b63708067539a77d7555232813c406f5f5796adb",
                    "stateRoot" : "0x6fae0e4016eebd0b106fc75e999b01c37e7146289a157c0a0568b039e978dd32",
                    "timestamp" : "0x03e8",
                    "transactionsTrie" : "0x190f63c95e3461d428b7fabffe61d91ebabda17e655868b1aa97c484d794b258",
                    "uncleHash" : "0x1dcc4de8dec75d7aab85b567b6ccd41ad312451b948a7413f0a142fd40d49347"
                },
                "transactions" : [
                    {
                        "data" : "0x",
                        "gasLimit" : "0x061a80",
                        "gasPrice" : "0x0a",
                        "nonce" : "0x00",
                        "to" : "0xdeadbeef00000000000000000000000000000000",
                        "value" : "0x01",
                        "v" : "0x1b",
                        "r" : "0xc70648a23c02191279c15ab01916a8cb993eed71d08e39b46df27c4286ecc6ca",
                        "s" : "0x671a98307a8881b1759f11640fff23373b026be67c3cb9638d642bea99ffb908"
                    }
                ],
                "uncleHeaders" : [
                ]
            }
        ]
    },
    "extCodeHashNewAccount_d0g0v0_London" : {
        "_info" : {
            "comment" : "EXTCODEHASH/EXTCODESIZE of an account created in same transaction",
            "filling-rpc-server" : "evm version 1.10.4-unstable-966ee3ae-20210528",
            "filling-tool-version" : "retesteth-0.1.1-eip1559+commit.658fc3a8.Linux.g++",
            "lllcversion" : "Version: 0.5.14-develop.2021.5.18+commit.14c9d5de.mod.Linux.g++",
            "source" : "src/GeneralStateTestsFiller/stExtCodeHash/extCodeHashNewAccountFiller.json",
            "sourceHash" : "f2186275486bebd4412caa34b86beccd003e7be03a2ae5ca5b389825f85ac5ad"
        },
        "genesisBlockHeader" : {
            "bloom" : "0x00000000000000000000000000000000000000000000000000000000000000000000000000000000000000000000000000000000000000000000000000000000000000000000000000000000000000000000000000000000000000000000000000000000000000000000000000000000000000000000000000000000000000000000000000000000000000000000000000000000000000000000000000000000000000000000000000000000000000000000000000000000000000000000000000000000000000000000000000000000000000000000000000000000000000000000000000000000000000000000000000000000000000000000000000000000",
            "coinbase" : "0x2adc25665018aa1fe0e6bc666dac8fc2697ff9ba",
            "difficulty" : "0x020000",
            "extraData" : "0x00",
            "gasLimit" : "0x0f4240",
            "gasUsed" : "0x00",
            "hash" : "0x017f6d07ca9441dad5f4287036946412d1341b513af00a8bec549a3850bfef2b",
            "mixHash" : "0x0000000000000000000000000000000000000000000000000000000000000000",
            "nonce" : "0x0000000000000000",
            "number" : "0x00",
            "parentHash" : "0x0000000000000000000000000000000000000000000000000000000000000000",
            "receiptTrie" : "0x56e81f171bcc55a6ff8345e692c0f86e5b48e01b996cadc001622fb5e363b421",
            "stateRoot" : "0x52a926c790f4e291cdcec4ad4fd91ddefc02381d3e357380f3b04963fa6e305c",
            "timestamp" : "0x00",
            "transactionsTrie" : "0x56e81f171bcc55a6ff8345e692c0f86e5b48e01b996cadc001622fb5e363b421",
            "uncleHash" : "0x1dcc4de8dec75d7aab85b567b6ccd41ad312451b948a7413f0a142fd40d49347",
            "baseFee" : "0x0b"
        },
        "pre" : {
            "0xa94f5374fce5edbc8e2a8697c15331677e6ebf0b" : {
                "balance" : "0x0de0b6b3a7640000",
                "code" : "0x",
                "nonce" : "0x00",
                "storage" : {
                }
            },
            "0xdeadbeef00000000000000000000000000000000" : {
                "balance" : "0x0de0b6b3a7640000",
                "code" : "0x6010600c80602360003960006000f56000526000513f6000556000513b6001550000fe61123460005260206000f300",
                "nonce" : "0x00",
                "storage" : {
                }
            }
        },
        "postState" : {
            "0x2adc25665018aa1fe0e6bc666dac8fc2697ff9ba" : {
                "code" : "0x",
                "nonce" : "0x00",
                "balance" : "0x1bc16d674ec80000",
                "storage" : {
                }
            },
            "0x75e23f851ce92ee62896c1fb1127d4be2c53f59d" : {
                "code" : "0x0000000000000000000000000000000000000000000000000000000000001234",
                "nonce" : "0x01",
                "balance" : "0x00",
                "storage" : {
                }
            },
            "0xa94f5374fce5edbc8e2a8697c15331677e6ebf0b" : {
                "code" : "0x",
                "nonce" : "0x01",
                "balance" : "0x0de0b6b3a7542643",
                "storage" : {
                }
            },
            "0xdeadbeef00000000000000000000000000000000" : {
                "code" : "0x6010600c80602360003960006000f56000526000513f6000556000513b6001550000fe61123460005260206000f300",
                "nonce" : "0x01",
                "balance" : "0x0de0b6b3a7640001",
                "storage" : {
                    "0x00" : "0xe321d900f3fd366734e2d071e30949ded20c27fd638f1a059390091c643b62c5",
                    "0x01" : "0x20"
                }
            }
        },
        "network" : "London",
        "sealEngine" : "NoProof",
        "lastblockhash" : "0xaf4ab7d9e7a6aface00c09b4553f4721250d181ec7a7c88ecf519891ae489a9c",
        "genesisRLP" : "0xf901f9f901f4a00000000000000000000000000000000000000000000000000000000000000000a01dcc4de8dec75d7aab85b567b6ccd41ad312451b948a7413f0a142fd40d49347942adc25665018aa1fe0e6bc666dac8fc2697ff9baa052a926c790f4e291cdcec4ad4fd91ddefc02381d3e357380f3b04963fa6e305ca056e81f171bcc55a6ff8345e692c0f86e5b48e01b996cadc001622fb5e363b421a056e81f171bcc55a6ff8345e692c0f86e5b48e01b996cadc001622fb5e363b421b90100000000000000000000000000000000000000000000000000000000000000000000000000000000000000000000000000000000000000000000000000000000000000000000000000000000000000000000000000000000000000000000000000000000000000000000000000000000000000000000000000000000000000000000000000000000000000000000000000000000000000000000000000000000000000000000000000000000000000000000000000000000000000000000000000000000000000000000000000000000000000000000000000000000000000000000000000000000000000000000000000000000000000000000000000000000008302000080830f4240808000a000000000000000000000000000000000000000000000000000000000000000008800000000000000000bc0c0",
        "blocks" : [
            {
                "rlp" : "0xf90261f901f9a0017f6d07ca9441dad5f4287036946412d1341b513af00a8bec549a3850bfef2ba01dcc4de8dec75d7aab85b567b6ccd41ad312451b948a7413f0a142fd40d49347942adc25665018aa1fe0e6bc666dac8fc2697ff9baa03095d63283f8f59111f2903fec8339325886299948cbb151d827f9582ee49f5ca0190f63c95e3461d428b7fabffe61d91ebabda17e655868b1aa97c484d794b258a015c95890141ac73cbd21bc8f386deb35ecda27e28254f73c021a7967610fbfc5b90100000000000000000000000000000000000000000000000000000000000000000000000000000000000000000000000000000000000000000000000000000000000000000000000000000000000000000000000000000000000000000000000000000000000000000000000000000000000000000000000000000000000000000000000000000000000000000000000000000000000000000000000000000000000000000000000000000000000000000000000000000000000000000000000000000000000000000000000000000000000000000000000000000000000000000000000000000000000000000000000000000000000000000000000000000000008302000001830f4240830195c68203e800a000000000000000000000000000000000000000000000000000000000000000008800000000000000000af862f860800a83061a8094deadbeef0000000000000000000000000000000001801ba0c70648a23c02191279c15ab01916a8cb993eed71d08e39b46df27c4286ecc6caa0671a98307a8881b1759f11640fff23373b026be67c3cb9638d642bea99ffb908c0",
                "blockHeader" : {
                    "bloom" : "0x00000000000000000000000000000000000000000000000000000000000000000000000000000000000000000000000000000000000000000000000000000000000000000000000000000000000000000000000000000000000000000000000000000000000000000000000000000000000000000000000000000000000000000000000000000000000000000000000000000000000000000000000000000000000000000000000000000000000000000000000000000000000000000000000000000000000000000000000000000000000000000000000000000000000000000000000000000000000000000000000000000000000000000000000000000000",
                    "coinbase" : "0x2adc25665018aa1fe0e6bc666dac8fc2697ff9ba",
                    "difficulty" : "0x020000",
                    "extraData" : "0x00",
                    "gasLimit" : "0x0f4240",
                    "gasUsed" : "0x0195c6",
                    "hash" : "0xaf4ab7d9e7a6aface00c09b4553f4721250d181ec7a7c88ecf519891ae489a9c",
                    "mixHash" : "0x0000000000000000000000000000000000000000000000000000000000000000",
                    "nonce" : "0x0000000000000000",
                    "number" : "0x01",
                    "parentHash" : "0x017f6d07ca9441dad5f4287036946412d1341b513af00a8bec549a3850bfef2b",
                    "receiptTrie" : "0x15c95890141ac73cbd21bc8f386deb35ecda27e28254f73c021a7967610fbfc5",
                    "stateRoot" : "0x3095d63283f8f59111f2903fec8339325886299948cbb151d827f9582ee49f5c",
                    "timestamp" : "0x03e8",
                    "transactionsTrie" : "0x190f63c95e3461d428b7fabffe61d91ebabda17e655868b1aa97c484d794b258",
                    "uncleHash" : "0x1dcc4de8dec75d7aab85b567b6ccd41ad312451b948a7413f0a142fd40d49347",
                    "baseFee" : "0x0a"
                },
                "transactions" : [
                    {
                        "data" : "0x",
                        "gasLimit" : "0x061a80",
                        "gasPrice" : "0x0a",
                        "nonce" : "0x00",
                        "to" : "0xdeadbeef00000000000000000000000000000000",
                        "value" : "0x01",
                        "v" : "0x1b",
                        "r" : "0xc70648a23c02191279c15ab01916a8cb993eed71d08e39b46df27c4286ecc6ca",
                        "s" : "0x671a98307a8881b1759f11640fff23373b026be67c3cb9638d642bea99ffb908"
                    }
                ],
                "uncleHeaders" : [
                ]
            }
        ]
    }
}