{
    "InternalCallHittingGasLimit2" : {
        "_info" : {
            "comment" : "",
            "filling-rpc-server" : "evm version 1.10.4-unstable-966ee3ae-20210528",
            "filling-tool-version" : "retesteth-0.1.1-eip1559+commit.658fc3a8.Linux.g++",
            "lllcversion" : "Version: 0.5.14-develop.2021.5.18+commit.14c9d5de.mod.Linux.g++",
            "source" : "src/GeneralStateTestsFiller/stTransactionTest/InternalCallHittingGasLimit2Filler.json",
            "sourceHash" : "e3b1cd88e125290f97f4d078c0d5a33dd5b9bdcc04ed0540a6c82ba39c18ba71"
        },
        "env" : {
            "currentCoinbase" : "0x2adf5374fce5edbc8e2a8697c15331677e6ebf0b",
            "currentDifficulty" : "0x020000",
            "currentNumber" : "0x01",
            "currentTimestamp" : "0x03e8",
            "previousHash" : "0x5e20a0453cecd065ea59c37ac63e079ee08998b6045136a8ce6635c7912ec0b6",
            "currentGasLimit" : "0xba96"
        },
        "post" : {
            "Berlin" : [
                {
                    "indexes" : {
                        "data" : 0,
                        "gas" : 0,
                        "value" : 0
                    },
                    "hash" : "0xcc14fa319a967d70c5af7d76a35f71ecbe3b3f4290bac5b30c52d11dcc215a0a",
                    "txbytes" : "0xf85f800a82ba9694b94f5374fce5edbc8e2a8697c15331677e6ebf0b0a801ba04ca425ac8b73d55369b88b2be6d7d537820415298ca706e3857e53d8b039f2dfa058cb65775b2406d461aadc00db14b743ea10cd5b254ebbe4b14218a6129715e7",
                    "logs" : "0x1dcc4de8dec75d7aab85b567b6ccd41ad312451b948a7413f0a142fd40d49347"
                }
            ],
            "Istanbul" : [
                {
                    "indexes" : {
                        "data" : 0,
                        "gas" : 0,
                        "value" : 0
                    },
                    "hash" : "0xce553e2e565ba3be08f614f2804e7e91a3ddf9e9eaa5f6f9bac82bb73a2e17dd",
                    "txbytes" : "0xf85f800a82ba9694b94f5374fce5edbc8e2a8697c15331677e6ebf0b0a801ba04ca425ac8b73d55369b88b2be6d7d537820415298ca706e3857e53d8b039f2dfa058cb65775b2406d461aadc00db14b743ea10cd5b254ebbe4b14218a6129715e7",
                    "logs" : "0x1dcc4de8dec75d7aab85b567b6ccd41ad312451b948a7413f0a142fd40d49347"
                }
            ],
            "London" : [
                {
                    "indexes" : {
                        "data" : 0,
                        "gas" : 0,
                        "value" : 0
                    },
                    "hash" : "0x6bf9712d3c85d239cb9b08ab73d21026cf86be2203099074be019f17feee660c",
                    "txbytes" : "0xf85f800a82ba9694b94f5374fce5edbc8e2a8697c15331677e6ebf0b0a801ba04ca425ac8b73d55369b88b2be6d7d537820415298ca706e3857e53d8b039f2dfa058cb65775b2406d461aadc00db14b743ea10cd5b254ebbe4b14218a6129715e7",
                    "logs" : "0x1dcc4de8dec75d7aab85b567b6ccd41ad312451b948a7413f0a142fd40d49347"
                }
            ]
        },
        "pre" : {
            "0xa94f5374fce5edbc8e2a8697c15331677e6ebf0b" : {
                "balance" : "0x3b9aca00",
                "code" : "0x",
                "nonce" : "0x00",
                "storage" : {
                }
            },
            "0xb94f5374fce5edbc8e2a8697c15331677e6ebf0b" : {
                "balance" : "0x00",
                "code" : "0x6000600060006000600173c94f5374fce5edbc8e2a8697c15331677e6ebf0b6161a8f100",
                "nonce" : "0x00",
                "storage" : {
                }
            },
            "0xc94f5374fce5edbc8e2a8697c15331677e6ebf0b" : {
                "balance" : "0x00",
                "code" : "0x603760015500",
                "nonce" : "0x00",
                "storage" : {
                }
            }
        },
        "transaction" : {
            "data" : [
                "0x"
            ],
            "gasPrice" : "0x0a",
            "gasLimit" : [
                "0xba96"
            ],
            "nonce" : "0x00",
            "secretKey" : "0x45a915e4d060149eb4365960e6a7a45f334393093061116b197e3240065ff2d8",
            "to" : "0xb94f5374fce5edbc8e2a8697c15331677e6ebf0b",
            "value" : [
                "0x0a"
            ]
        }
    }
}