{
    "TransactionDataCosts652" : {
        "_info" : {
            "comment" : "",
            "filling-rpc-server" : "evm version 1.10.4-unstable-966ee3ae-20210528",
            "filling-tool-version" : "retesteth-0.1.1-eip1559+commit.658fc3a8.Linux.g++",
            "lllcversion" : "Version: 0.5.14-develop.2021.5.18+commit.14c9d5de.mod.Linux.g++",
            "source" : "src/GeneralStateTestsFiller/stTransactionTest/TransactionDataCosts652Filler.json",
            "sourceHash" : "95f3305cd4cb8ae05f003b96670bd6ebe0eb4e9172d3770a948afbfb2c9606d8"
        },
        "env" : {
            "currentCoinbase" : "0x2adc25665018aa1fe0e6bc666dac8fc2697ff9ba",
            "currentDifficulty" : "0x020000",
            "currentNumber" : "0x01",
            "currentTimestamp" : "0x03e8",
            "previousHash" : "0x5e20a0453cecd065ea59c37ac63e079ee08998b6045136a8ce6635c7912ec0b6",
            "currentGasLimit" : "0x989680"
        },
        "post" : {
            "Berlin" : [
                {
                    "indexes" : {
                        "data" : 0,
                        "gas" : 0,
                        "value" : 0
                    },
                    "hash" : "0x286ba9c91f343b3498aa8f855e10b923147fedcc37113675fbb70e34726a6760",
                    "txbytes" : "0xf872800a8255f094b94f5374fce5edbc8e2a8697c15331677e6ebf0b809300000000000000000000112233445566778f321ca0bec034895a43db0478a263ab08933113806fabae98a4533773e718efcdc10538a06bbc608f5ec63c4b09c80108ad80462f1b4d0202123594de4ea720da4cfd6bbc",
                    "logs" : "0x1dcc4de8dec75d7aab85b567b6ccd41ad312451b948a7413f0a142fd40d49347"
                },
                {
                    "indexes" : {
                        "data" : 0,
                        "gas" : 1,
                        "value" : 0
                    },
                    "hash" : "0x286ba9c91f343b3498aa8f855e10b923147fedcc37113675fbb70e34726a6760",
                    "txbytes" : "0xf873800a8301194094b94f5374fce5edbc8e2a8697c15331677e6ebf0b809300000000000000000000112233445566778f321ca04eed738f79e0b7de1843b8411b59272f63fdfcc96e6c2ff5f130b23f64888346a009e29a49e42a89b55daedff0c3754fe533acbf79607f05104ed4ba35f4b12f4b",
                    "logs" : "0x1dcc4de8dec75d7aab85b567b6ccd41ad312451b948a7413f0a142fd40d49347"
                }
            ],
            "Istanbul" : [
                {
                    "indexes" : {
                        "data" : 0,
                        "gas" : 0,
                        "value" : 0
                    },
                    "hash" : "0x286ba9c91f343b3498aa8f855e10b923147fedcc37113675fbb70e34726a6760",
                    "txbytes" : "0xf872800a8255f094b94f5374fce5edbc8e2a8697c15331677e6ebf0b809300000000000000000000112233445566778f321ca0bec034895a43db0478a263ab08933113806fabae98a4533773e718efcdc10538a06bbc608f5ec63c4b09c80108ad80462f1b4d0202123594de4ea720da4cfd6bbc",
                    "logs" : "0x1dcc4de8dec75d7aab85b567b6ccd41ad312451b948a7413f0a142fd40d49347"
                },
                {
                    "indexes" : {
                        "data" : 0,
                        "gas" : 1,
                        "value" : 0
                    },
                    "hash" : "0x286ba9c91f343b3498aa8f855e10b923147fedcc37113675fbb70e34726a6760",
                    "txbytes" : "0xf873800a8301194094b94f5374fce5edbc8e2a8697c15331677e6ebf0b809300000000000000000000112233445566778f321ca04eed738f79e0b7de1843b8411b59272f63fdfcc96e6c2ff5f130b23f64888346a009e29a49e42a89b55daedff0c3754fe533acbf79607f05104ed4ba35f4b12f4b",
                    "logs" : "0x1dcc4de8dec75d7aab85b567b6ccd41ad312451b948a7413f0a142fd40d49347"
                }
            ],
            "London" : [
                {
                    "indexes" : {
                        "data" : 0,
                        "gas" : 0,
                        "value" : 0
                    },
                    "hash" : "0x390e88e70cf927a9e1da1f435bd28edaa7f77b61e5e2bf33269984c46c327073",
                    "txbytes" : "0xf872800a8255f094b94f5374fce5edbc8e2a8697c15331677e6ebf0b809300000000000000000000112233445566778f321ca0bec034895a43db0478a263ab08933113806fabae98a4533773e718efcdc10538a06bbc608f5ec63c4b09c80108ad80462f1b4d0202123594de4ea720da4cfd6bbc",
                    "logs" : "0x1dcc4de8dec75d7aab85b567b6ccd41ad312451b948a7413f0a142fd40d49347"
                },
                {
                    "indexes" : {
                        "data" : 0,
                        "gas" : 1,
                        "value" : 0
                    },
                    "hash" : "0x390e88e70cf927a9e1da1f435bd28edaa7f77b61e5e2bf33269984c46c327073",
                    "txbytes" : "0xf873800a8301194094b94f5374fce5edbc8e2a8697c15331677e6ebf0b809300000000000000000000112233445566778f321ca04eed738f79e0b7de1843b8411b59272f63fdfcc96e6c2ff5f130b23f64888346a009e29a49e42a89b55daedff0c3754fe533acbf79607f05104ed4ba35f4b12f4b",
                    "logs" : "0x1dcc4de8dec75d7aab85b567b6ccd41ad312451b948a7413f0a142fd40d49347"
                }
            ]
        },
        "pre" : {
            "0xa94f5374fce5edbc8e2a8697c15331677e6ebf0b" : {
                "balance" : "0x989680",
                "code" : "0x",
                "nonce" : "0x00",
                "storage" : {
                }
            }
        },
        "transaction" : {
            "data" : [
                "0x00000000000000000000112233445566778f32"
            ],
            "gasPrice" : "0x0a",
            "gasLimit" : [
                "0x55f0",
                "0x011940"
            ],
            "nonce" : "0x00",
            "secretKey" : "0x45a915e4d060149eb4365960e6a7a45f334393093061116b197e3240065ff2d8",
            "to" : "0xb94f5374fce5edbc8e2a8697c15331677e6ebf0b",
            "value" : [
                "0x00"
            ]
        }
    }
}