{
    "Transaction64Rule_d64p1" : {
        "_info" : {
            "comment" : "",
            "filling-rpc-server" : "evm version 1.10.4-unstable-966ee3ae-20210528",
            "filling-tool-version" : "retesteth-0.1.1-eip1559+commit.658fc3a8.Linux.g++",
            "lllcversion" : "Version: 0.5.14-develop.2021.5.18+commit.14c9d5de.mod.Linux.g++",
            "source" : "src/GeneralStateTestsFiller/stEIP150Specific/Transaction64Rule_d64p1Filler.json",
            "sourceHash" : "6b6bae9cb2ef5a14c67183f4439db3d0874c9551e4aa59ee27dcc937093c1082"
        },
        "env" : {
            "currentCoinbase" : "0x2adc25665018aa1fe0e6bc666dac8fc2697ff9ba",
            "currentDifficulty" : "0x020000",
            "currentNumber" : "0x01",
            "currentTimestamp" : "0x03e8",
            "previousHash" : "0x5e20a0453cecd065ea59c37ac63e079ee08998b6045136a8ce6635c7912ec0b6",
            "currentGasLimit" : "0x989680"
        },
        "post" : {
            "Berlin" : [
                {
                    "indexes" : {
                        "data" : 0,
                        "gas" : 0,
                        "value" : 0
                    },
                    "hash" : "0xd83d118d447ed0977ab4fac0e90840e02e2ea4958aff04490fc4cdb37b4ccbcd",
                    "txbytes" : "0xf860800a8302713f94b94f5374fce5edbc8e2a8697c15331677e6ebf0b80801ba010dd3031e71edd6f5f46406d7a9e0d551a4ac693e2752e470b17f056600edd34a032ed3d5859e55e776ceae6d9354ebb96399a14d42bdcafc5c1bdc44fe33cb1cb",
                    "logs" : "0x1dcc4de8dec75d7aab85b567b6ccd41ad312451b948a7413f0a142fd40d49347"
                }
            ],
            "Istanbul" : [
                {
                    "indexes" : {
                        "data" : 0,
                        "gas" : 0,
                        "value" : 0
                    },
                    "hash" : "0x0ad62ed96bf44b3c3dfd059a0d2df2c9c41edde10389779e06cadf68abbbb857",
                    "txbytes" : "0xf860800a8302713f94b94f5374fce5edbc8e2a8697c15331677e6ebf0b80801ba010dd3031e71edd6f5f46406d7a9e0d551a4ac693e2752e470b17f056600edd34a032ed3d5859e55e776ceae6d9354ebb96399a14d42bdcafc5c1bdc44fe33cb1cb",
                    "logs" : "0x1dcc4de8dec75d7aab85b567b6ccd41ad312451b948a7413f0a142fd40d49347"
                }
            ],
            "London" : [
                {
                    "indexes" : {
                        "data" : 0,
                        "gas" : 0,
                        "value" : 0
                    },
                    "hash" : "0x71d5e97993b209f6ce5b6a8c3935eaa67f22d9527e3d5c796315582fb717ce21",
                    "txbytes" : "0xf860800a8302713f94b94f5374fce5edbc8e2a8697c15331677e6ebf0b80801ba010dd3031e71edd6f5f46406d7a9e0d551a4ac693e2752e470b17f056600edd34a032ed3d5859e55e776ceae6d9354ebb96399a14d42bdcafc5c1bdc44fe33cb1cb",
                    "logs" : "0x1dcc4de8dec75d7aab85b567b6ccd41ad312451b948a7413f0a142fd40d49347"
                }
            ]
        },
        "pre" : {
            "0x1000000000000000000000000000000000000118" : {
                "balance" : "0x00",
                "code" : "0x600c60015500",
                "nonce" : "0x00",
                "storage" : {
                }
            },
            "0xa94f5374fce5edbc8e2a8697c15331677e6ebf0b" : {
                "balance" : "0xe8d4a51000",
                "code" : "0x",
                "nonce" : "0x00",
                "storage" : {
                }
            },
            "0xb94f5374fce5edbc8e2a8697c15331677e6ebf0b" : {
                "balance" : "0x00",
                "code" : "0x5a6000526000600060006000600073100000000000000000000000000000000000011862027100f1505a6000510360025500",
                "nonce" : "0x00",
                "storage" : {
                }
            }
        },
        "transaction" : {
            "data" : [
                "0x"
            ],
            "gasPrice" : "0x0a",
            "gasLimit" : [
                "0x02713f"
            ],
            "nonce" : "0x00",
            "secretKey" : "0x45a915e4d060149eb4365960e6a7a45f334393093061116b197e3240065ff2d8",
            "to" : "0xb94f5374fce5edbc8e2a8697c15331677e6ebf0b",
            "value" : [
                "0x00"
            ]
        }
    }
}