{
    "ABAcalls2" : {
        "_info" : {
            "comment" : "",
            "filling-rpc-server" : "evm version 1.10.4-unstable-966ee3ae-20210528",
            "filling-tool-version" : "retesteth-0.1.1-eip1559+commit.658fc3a8.Linux.g++",
            "lllcversion" : "Version: 0.5.14-develop.2021.5.18+commit.14c9d5de.mod.Linux.g++",
            "source" : "src/GeneralStateTestsFiller/stSystemOperationsTest/ABAcalls2Filler.json",
            "sourceHash" : "5b890d5d08a9c3cb4b748c634c47016ba82d2491031e94d0e473392236de5633"
        },
        "env" : {
            "currentCoinbase" : "0x2adc25665018aa1fe0e6bc666dac8fc2697ff9ba",
            "currentDifficulty" : "0x020000",
            "currentNumber" : "0x01",
            "currentTimestamp" : "0x03e8",
            "previousHash" : "0x5e20a0453cecd065ea59c37ac63e079ee08998b6045136a8ce6635c7912ec0b6",
            "currentGasLimit" : "0x02540be400"
        },
        "post" : {
            "Berlin" : [
                {
                    "indexes" : {
                        "data" : 0,
                        "gas" : 0,
                        "value" : 0
                    },
                    "hash" : "0x5b0b737737074636bbb7bcd121aaab7ed997c5b88a005fb0a3118fb6d79c1de3",
                    "txbytes" : "0xf864800a843b9aca0094095e7baea6a6c7c4c2dfeb977efac326af552d87830186a0801ca074457fed2b2c7eb1656a7764820d6abc640a61a9cc1cdba895fb722db4180d98a0538ec00d6d68933a7031f2803f032ddf4f150249b92ac351239ba76e12d90c9d",
                    "logs" : "0x1dcc4de8dec75d7aab85b567b6ccd41ad312451b948a7413f0a142fd40d49347"
                }
            ],
            "Istanbul" : [
                {
                    "indexes" : {
                        "data" : 0,
                        "gas" : 0,
                        "value" : 0
                    },
                    "hash" : "0x8cf4a6193b17f412d7037aaa17f657ab57ca38aa6df4bd0a5c283e28327fe384",
                    "txbytes" : "0xf864800a843b9aca0094095e7baea6a6c7c4c2dfeb977efac326af552d87830186a0801ca074457fed2b2c7eb1656a7764820d6abc640a61a9cc1cdba895fb722db4180d98a0538ec00d6d68933a7031f2803f032ddf4f150249b92ac351239ba76e12d90c9d",
                    "logs" : "0x1dcc4de8dec75d7aab85b567b6ccd41ad312451b948a7413f0a142fd40d49347"
                }
            ],
            "London" : [
                {
                    "indexes" : {
                        "data" : 0,
                        "gas" : 0,
                        "value" : 0
                    },
                    "hash" : "0x9daacfc13a490bc410b988fc33c55a61f0ba39fa53f52bc719fe5e47cdc83995",
                    "txbytes" : "0xf864800a843b9aca0094095e7baea6a6c7c4c2dfeb977efac326af552d87830186a0801ca074457fed2b2c7eb1656a7764820d6abc640a61a9cc1cdba895fb722db4180d98a0538ec00d6d68933a7031f2803f032ddf4f150249b92ac351239ba76e12d90c9d",
                    "logs" : "0x1dcc4de8dec75d7aab85b567b6ccd41ad312451b948a7413f0a142fd40d49347"
                }
            ]
        },
        "pre" : {
            "0x095e7baea6a6c7c4c2dfeb977efac326af552d87" : {
                "balance" : "0x0de0b6b3a7640000",
                "code" : "0x6001600054016000556000600060006000600173945304eb96065b2a98b57a48a06ae28d285a71b5620186a05a03f100",
                "nonce" : "0x00",
                "storage" : {
                }
            },
            "0x945304eb96065b2a98b57a48a06ae28d285a71b5" : {
                "balance" : "0x00",
                "code" : "0x6001600054016000556000600060006000600073095e7baea6a6c7c4c2dfeb977efac326af552d87620186a05a03f100",
                "nonce" : "0x00",
                "storage" : {
                }
            },
            "0xa94f5374fce5edbc8e2a8697c15331677e6ebf0b" : {
                "balance" : "0x0de0b6b3a7640000",
                "code" : "0x",
                "nonce" : "0x00",
                "storage" : {
                }
            }
        },
        "transaction" : {
            "data" : [
                "0x"
            ],
            "gasPrice" : "0x0a",
            "gasLimit" : [
                "0x3b9aca00"
            ],
            "nonce" : "0x00",
            "secretKey" : "0x45a915e4d060149eb4365960e6a7a45f334393093061116b197e3240065ff2d8",
            "to" : "0x095e7baea6a6c7c4c2dfeb977efac326af552d87",
            "value" : [
                "0x0186a0"
            ]
        }
    }
}