{
    "CallTheContractToCreateEmptyContract" : {
        "_info" : {
            "comment" : "",
            "filling-rpc-server" : "evm version 1.10.4-unstable-966ee3ae-20210528",
            "filling-tool-version" : "retesteth-0.1.1-eip1559+commit.658fc3a8.Linux.g++",
            "lllcversion" : "Version: 0.5.14-develop.2021.5.18+commit.14c9d5de.mod.Linux.g++",
            "source" : "src/GeneralStateTestsFiller/stInitCodeTest/CallTheContractToCreateEmptyContractFiller.json",
            "sourceHash" : "a84bb4e0822880af455cfd6eb0a37e87cdfd780b7172d00b62cadc605fe49d95"
        },
        "env" : {
            "currentCoinbase" : "0x2adc25665018aa1fe0e6bc666dac8fc2697ff9ba",
            "currentDifficulty" : "0x020000",
            "currentNumber" : "0x01",
            "currentTimestamp" : "0x03e8",
            "previousHash" : "0x5e20a0453cecd065ea59c37ac63e079ee08998b6045136a8ce6635c7912ec0b6",
            "currentGasLimit" : "0x05f5e100"
        },
        "post" : {
            "Berlin" : [
                {
                    "indexes" : {
                        "data" : 0,
                        "gas" : 0,
                        "value" : 0
                    },
                    "hash" : "0x9230d78927e01f65608fc1a01fb8fea023488fcde9b64f007ed32f6ac7819a99",
                    "txbytes" : "0xf860800a830186a094095e7baea6a6c7c4c2dfeb977efac326af552d8701001ca0c304927ac7f3bc1a06346b725ea3d75b31b2ff1eda10e7eace007949c7a5177ea018749f9814ab777e2603ed226da281018c76d2067e987bb3e1dcfd291c6566bc",
                    "logs" : "0x1dcc4de8dec75d7aab85b567b6ccd41ad312451b948a7413f0a142fd40d49347"
                }
            ],
            "Istanbul" : [
                {
                    "indexes" : {
                        "data" : 0,
                        "gas" : 0,
                        "value" : 0
                    },
                    "hash" : "0x9230d78927e01f65608fc1a01fb8fea023488fcde9b64f007ed32f6ac7819a99",
                    "txbytes" : "0xf860800a830186a094095e7baea6a6c7c4c2dfeb977efac326af552d8701001ca0c304927ac7f3bc1a06346b725ea3d75b31b2ff1eda10e7eace007949c7a5177ea018749f9814ab777e2603ed226da281018c76d2067e987bb3e1dcfd291c6566bc",
                    "logs" : "0x1dcc4de8dec75d7aab85b567b6ccd41ad312451b948a7413f0a142fd40d49347"
                }
            ],
            "London" : [
                {
                    "indexes" : {
                        "data" : 0,
                        "gas" : 0,
                        "value" : 0
                    },
                    "hash" : "0x5266af4dd4c8fc5e75323ddec289c3b4822276f872542013a7e7cd6e6e5c956d",
                    "txbytes" : "0xf860800a830186a094095e7baea6a6c7c4c2dfeb977efac326af552d8701001ca0c304927ac7f3bc1a06346b725ea3d75b31b2ff1eda10e7eace007949c7a5177ea018749f9814ab777e2603ed226da281018c76d2067e987bb3e1dcfd291c6566bc",
                    "logs" : "0x1dcc4de8dec75d7aab85b567b6ccd41ad312451b948a7413f0a142fd40d49347"
                }
            ]
        },
        "pre" : {
            "0x095e7baea6a6c7c4c2dfeb977efac326af552d87" : {
                "balance" : "0x00",
                "code" : "0x602060006000f000",
                "nonce" : "0x00",
                "storage" : {
                }
            },
            "0xa94f5374fce5edbc8e2a8697c15331677e6ebf0b" : {
                "balance" : "0x989680",
                "code" : "0x",
                "nonce" : "0x00",
                "storage" : {
                }
            }
        },
        "transaction" : {
            "data" : [
                "0x00"
            ],
            "gasPrice" : "0x0a",
            "gasLimit" : [
                "0x0186a0"
            ],
            "nonce" : "0x00",
            "secretKey" : "0x45a915e4d060149eb4365960e6a7a45f334393093061116b197e3240065ff2d8",
            "to" : "0x095e7baea6a6c7c4c2dfeb977efac326af552d87",
            "value" : [
                "0x01"
            ]
        }
    }
}