{
    "RevertPrecompiledTouch_storage" : {
        "_info" : {
            "comment" : "",
            "filling-rpc-server" : "evm version 1.10.4-unstable-966ee3ae-20210528",
            "filling-tool-version" : "retesteth-0.1.1-eip1559+commit.658fc3a8.Linux.g++",
            "lllcversion" : "Version: 0.5.14-develop.2021.5.18+commit.14c9d5de.mod.Linux.g++",
            "source" : "src/GeneralStateTestsFiller/stRevertTest/RevertPrecompiledTouch_storageFiller.json",
            "sourceHash" : "29ab1658f45ed30afecc9359be240cbfd635753f622d7fff2f43d18a69293efb"
        },
        "env" : {
            "currentCoinbase" : "0x68795c4aa09d6f4ed3e5deddf8c2ad3049a601da",
            "currentDifficulty" : "0x020000",
            "currentNumber" : "0x01",
            "currentTimestamp" : "0x03e8",
            "previousHash" : "0x5e20a0453cecd065ea59c37ac63e079ee08998b6045136a8ce6635c7912ec0b6",
            "currentGasLimit" : "0x3d37ef"
        },
        "post" : {
            "Berlin" : [
                {
                    "indexes" : {
                        "data" : 0,
                        "gas" : 0,
                        "value" : 0
                    },
                    "hash" : "0x5bd73b10c07ec31f79945f4e3771e2755b4befcd9276bd038cac66ef2313fcac",
                    "txbytes" : "0xf880010a830186a094b94f5374fce5edbc8e2a8697c15331677e6ebf0b80a000000000000000000000000010000000000000000000000000000000000000001ca027a3c6ce3ac325aadb1ad3843f83698cacfa7a84e98a8c50dd92003bf423c3dba04dcff9dd13b87c0905f9bb4157743fc88efd010ffd0596cf7a5a7a706d8a4c27",
                    "logs" : "0x1dcc4de8dec75d7aab85b567b6ccd41ad312451b948a7413f0a142fd40d49347"
                },
                {
                    "indexes" : {
                        "data" : 3,
                        "gas" : 0,
                        "value" : 0
                    },
                    "hash" : "0x5bd73b10c07ec31f79945f4e3771e2755b4befcd9276bd038cac66ef2313fcac",
                    "txbytes" : "0xf880010a830186a094b94f5374fce5edbc8e2a8697c15331677e6ebf0b80a000000000000000000000000040000000000000000000000000000000000000001ca0a68152945e86a9bbdacd917f0a44e9f54b1a1df747597581ac6c2a9411f7f23ea01b6b44c6013efff7392ee225e60655f2cec07130643151bef8954c991fb7e9f2",
                    "logs" : "0x1dcc4de8dec75d7aab85b567b6ccd41ad312451b948a7413f0a142fd40d49347"
                },
                {
                    "indexes" : {
                        "data" : 1,
                        "gas" : 0,
                        "value" : 0
                    },
                    "hash" : "0x191d0e5868ec08360c0225ec91c3edfbf7e8e9c93e0e3aedaacdadcd966d7f0f",
                    "txbytes" : "0xf880010a830186a094b94f5374fce5edbc8e2a8697c15331677e6ebf0b80a000000000000000000000000020000000000000000000000000000000000000001ca099ddb7031b7733f23695bfa034e4d5674145e0b8adb9fd6329e266dccffc1747a0346935a7999bd6f46f3d54b6ff7bd828b91aa631cebe918f775b64619a3921f4",
                    "logs" : "0x1dcc4de8dec75d7aab85b567b6ccd41ad312451b948a7413f0a142fd40d49347"
                },
                {
                    "indexes" : {
                        "data" : 2,
                        "gas" : 0,
                        "value" : 0
                    },
                    "hash" : "0x191d0e5868ec08360c0225ec91c3edfbf7e8e9c93e0e3aedaacdadcd966d7f0f",
                    "txbytes" : "0xf880010a830186a094b94f5374fce5edbc8e2a8697c15331677e6ebf0b80a000000000000000000000000030000000000000000000000000000000000000001ca0c232cdf4c7c33de9ccf85d6ae14f2cf8e0aecb9cdd47d1d6db6169c5a0b70dbea06c47989adc50d231982930b62582f01b6f05b2ca7632f73c97c57f6dedc91af5",
                    "logs" : "0x1dcc4de8dec75d7aab85b567b6ccd41ad312451b948a7413f0a142fd40d49347"
                }
            ],
            "Istanbul" : [
                {
                    "indexes" : {
                        "data" : 0,
                        "gas" : 0,
                        "value" : 0
                    },
                    "hash" : "0x28b1a7051347054759ad0819642aa16ef2553049ed3c9c220f657b9da6a3297e",
                    "txbytes" : "0xf880010a830186a094b94f5374fce5edbc8e2a8697c15331677e6ebf0b80a000000000000000000000000010000000000000000000000000000000000000001ca027a3c6ce3ac325aadb1ad3843f83698cacfa7a84e98a8c50dd92003bf423c3dba04dcff9dd13b87c0905f9bb4157743fc88efd010ffd0596cf7a5a7a706d8a4c27",
                    "logs" : "0x1dcc4de8dec75d7aab85b567b6ccd41ad312451b948a7413f0a142fd40d49347"
                },
                {
                    "indexes" : {
                        "data" : 3,
                        "gas" : 0,
                        "value" : 0
                    },
                    "hash" : "0x28b1a7051347054759ad0819642aa16ef2553049ed3c9c220f657b9da6a3297e",
                    "txbytes" : "0xf880010a830186a094b94f5374fce5edbc8e2a8697c15331677e6ebf0b80a000000000000000000000000040000000000000000000000000000000000000001ca0a68152945e86a9bbdacd917f0a44e9f54b1a1df747597581ac6c2a9411f7f23ea01b6b44c6013efff7392ee225e60655f2cec07130643151bef8954c991fb7e9f2",
                    "logs" : "0x1dcc4de8dec75d7aab85b567b6ccd41ad312451b948a7413f0a142fd40d49347"
                },
                {
                    "indexes" : {
                        "data" : 1,
                        "gas" : 0,
                        "value" : 0
                    },
                    "hash" : "0xbc851bbad83b79d6fe16c623f64e039882899b467f98cd42fc51029f2f8ad0b1",
                    "txbytes" : "0xf880010a830186a094b94f5374fce5edbc8e2a8697c15331677e6ebf0b80a000000000000000000000000020000000000000000000000000000000000000001ca099ddb7031b7733f23695bfa034e4d5674145e0b8adb9fd6329e266dccffc1747a0346935a7999bd6f46f3d54b6ff7bd828b91aa631cebe918f775b64619a3921f4",
                    "logs" : "0x1dcc4de8dec75d7aab85b567b6ccd41ad312451b948a7413f0a142fd40d49347"
                },
                {
                    "indexes" : {
                        "data" : 2,
                        "gas" : 0,
                        "value" : 0
                    },
                    "hash" : "0xbc851bbad83b79d6fe16c623f64e039882899b467f98cd42fc51029f2f8ad0b1",
                    "txbytes" : "0xf880010a830186a094b94f5374fce5edbc8e2a8697c15331677e6ebf0b80a000000000000000000000000030000000000000000000000000000000000000001ca0c232cdf4c7c33de9ccf85d6ae14f2cf8e0aecb9cdd47d1d6db6169c5a0b70dbea06c47989adc50d231982930b62582f01b6f05b2ca7632f73c97c57f6dedc91af5",
                    "logs" : "0x1dcc4de8dec75d7aab85b567b6ccd41ad312451b948a7413f0a142fd40d49347"
                }
            ],
            "London" : [
                {
                    "indexes" : {
                        "data" : 0,
                        "gas" : 0,
                        "value" : 0
                    },
                    "hash" : "0x854c3a1001508c9d6a43488a171dc57dbd3b327fd5a983dfccabef3a5cb26644",
                    "txbytes" : "0xf880010a830186a094b94f5374fce5edbc8e2a8697c15331677e6ebf0b80a000000000000000000000000010000000000000000000000000000000000000001ca027a3c6ce3ac325aadb1ad3843f83698cacfa7a84e98a8c50dd92003bf423c3dba04dcff9dd13b87c0905f9bb4157743fc88efd010ffd0596cf7a5a7a706d8a4c27",
                    "logs" : "0x1dcc4de8dec75d7aab85b567b6ccd41ad312451b948a7413f0a142fd40d49347"
                },
                {
                    "indexes" : {
                        "data" : 3,
                        "gas" : 0,
                        "value" : 0
                    },
                    "hash" : "0x854c3a1001508c9d6a43488a171dc57dbd3b327fd5a983dfccabef3a5cb26644",
                    "txbytes" : "0xf880010a830186a094b94f5374fce5edbc8e2a8697c15331677e6ebf0b80a000000000000000000000000040000000000000000000000000000000000000001ca0a68152945e86a9bbdacd917f0a44e9f54b1a1df747597581ac6c2a9411f7f23ea01b6b44c6013efff7392ee225e60655f2cec07130643151bef8954c991fb7e9f2",
                    "logs" : "0x1dcc4de8dec75d7aab85b567b6ccd41ad312451b948a7413f0a142fd40d49347"
                },
                {
                    "indexes" : {
                        "data" : 1,
                        "gas" : 0,
                        "value" : 0
                    },
                    "hash" : "0x8997c670bbd36e8ffa3d3321579b9acb0a1517e1e4b4c83c69681264b8895535",
                    "txbytes" : "0xf880010a830186a094b94f5374fce5edbc8e2a8697c15331677e6ebf0b80a000000000000000000000000020000000000000000000000000000000000000001ca099ddb7031b7733f23695bfa034e4d5674145e0b8adb9fd6329e266dccffc1747a0346935a7999bd6f46f3d54b6ff7bd828b91aa631cebe918f775b64619a3921f4",
                    "logs" : "0x1dcc4de8dec75d7aab85b567b6ccd41ad312451b948a7413f0a142fd40d49347"
                },
                {
                    "indexes" : {
                        "data" : 2,
                        "gas" : 0,
                        "value" : 0
                    },
                    "hash" : "0x8997c670bbd36e8ffa3d3321579b9acb0a1517e1e4b4c83c69681264b8895535",
                    "txbytes" : "0xf880010a830186a094b94f5374fce5edbc8e2a8697c15331677e6ebf0b80a000000000000000000000000030000000000000000000000000000000000000001ca0c232cdf4c7c33de9ccf85d6ae14f2cf8e0aecb9cdd47d1d6db6169c5a0b70dbea06c47989adc50d231982930b62582f01b6f05b2ca7632f73c97c57f6dedc91af5",
                    "logs" : "0x1dcc4de8dec75d7aab85b567b6ccd41ad312451b948a7413f0a142fd40d49347"
                }
            ]
        },
        "pre" : {
            "0x0000000000000000000000000000000000000001" : {
                "balance" : "0x00",
                "code" : "0x",
                "nonce" : "0x00",
                "storage" : {
                    "0x00" : "0x01"
                }
            },
            "0x0000000000000000000000000000000000000002" : {
                "balance" : "0x00",
                "code" : "0x",
                "nonce" : "0x00",
                "storage" : {
                    "0x00" : "0x01"
                }
            },
            "0x0000000000000000000000000000000000000003" : {
                "balance" : "0x00",
                "code" : "0x",
                "nonce" : "0x00",
                "storage" : {
                    "0x00" : "0x01"
                }
            },
            "0x0000000000000000000000000000000000000004" : {
                "balance" : "0x00",
                "code" : "0x",
                "nonce" : "0x00",
                "storage" : {
                    "0x00" : "0x01"
                }
            },
            "0x0000000000000000000000000000000000000005" : {
                "balance" : "0x00",
                "code" : "0x",
                "nonce" : "0x00",
                "storage" : {
                    "0x00" : "0x01"
                }
            },
            "0x0000000000000000000000000000000000000006" : {
                "balance" : "0x00",
                "code" : "0x",
                "nonce" : "0x00",
                "storage" : {
                    "0x00" : "0x01"
                }
            },
            "0x0000000000000000000000000000000000000007" : {
                "balance" : "0x00",
                "code" : "0x",
                "nonce" : "0x00",
                "storage" : {
                    "0x00" : "0x01"
                }
            },
            "0x0000000000000000000000000000000000000008" : {
                "balance" : "0x00",
                "code" : "0x",
                "nonce" : "0x00",
                "storage" : {
                    "0x00" : "0x01"
                }
            },
            "0x1000000000000000000000000000000000000000" : {
                "balance" : "0x00",
                "code" : "0x60006000600060006000600161c350f15060006000600060006000600261c350f15060006000600060006000600361c350f15060006000600060006000600461c350f15060006000600060006000600561c350f15060006000600060006000600661c350f15060006000600060006000600761c350f15060006000600060006000600861c350f1505a6001555a6002555a60035500",
                "nonce" : "0x00",
                "storage" : {
                }
            },
            "0x2000000000000000000000000000000000000000" : {
                "balance" : "0x00",
                "code" : "0x6000600060006000600161c350f4506000600060006000600261c350f4506000600060006000600361c350f4506000600060006000600461c350f4506000600060006000600561c350f4506000600060006000600661c350f4506000600060006000600761c350f4506000600060006000600861c350f4505a6001555a6002555a60035500",
                "nonce" : "0x00",
                "storage" : {
                }
            },
            "0x3000000000000000000000000000000000000000" : {
                "balance" : "0x00",
                "code" : "0x60006000600060006000600161c350f25060006000600060006000600261c350f25060006000600060006000600361c350f25060006000600060006000600461c350f25060006000600060006000600561c350f25060006000600060006000600661c350f25060006000600060006000600761c350f25060006000600060006000600861c350f2505a6001555a6002555a60035500",
                "nonce" : "0x00",
                "storage" : {
                }
            },
            "0x4000000000000000000000000000000000000000" : {
                "balance" : "0x00",
                "code" : "0x6000600060006000600161c350fa506000600060006000600261c350fa506000600060006000600361c350fa506000600060006000600461c350fa506000600060006000600561c350fa506000600060006000600661c350fa506000600060006000600761c350fa506000600060006000600861c350fa505a6001555a6002555a60035500",
                "nonce" : "0x00",
                "storage" : {
                }
            },
            "0xa94f5374fce5edbc8e2a8697c15331677e6ebf0b" : {
                "balance" : "0x0de0b6b3a7640000",
                "code" : "0x",
                "nonce" : "0x01",
                "storage" : {
                }
            },
            "0xb94f5374fce5edbc8e2a8697c15331677e6ebf0b" : {
                "balance" : "0x00",
                "code" : "0x600060006000600060006000355af200",
                "nonce" : "0x00",
                "storage" : {
                }
            }
        },
        "transaction" : {
            "data" : [
                "0x0000000000000000000000001000000000000000000000000000000000000000",
                "0x0000000000000000000000002000000000000000000000000000000000000000",
                "0x0000000000000000000000003000000000000000000000000000000000000000",
                "0x0000000000000000000000004000000000000000000000000000000000000000"
            ],
            "gasPrice" : "0x0a",
            "gasLimit" : [
                "0x0186a0"
            ],
            "nonce" : "0x01",
            "secretKey" : "0x45a915e4d060149eb4365960e6a7a45f334393093061116b197e3240065ff2d8",
            "to" : "0xb94f5374fce5edbc8e2a8697c15331677e6ebf0b",
            "value" : [
                "0x00"
            ]
        }
    }
}