{
    "RevertOpcodeCreate" : {
        "_info" : {
            "comment" : "",
            "filling-rpc-server" : "evm version 1.10.4-unstable-966ee3ae-20210528",
            "filling-tool-version" : "retesteth-0.1.1-eip1559+commit.658fc3a8.Linux.g++",
            "lllcversion" : "Version: 0.5.14-develop.2021.5.18+commit.14c9d5de.mod.Linux.g++",
            "source" : "src/GeneralStateTestsFiller/stRevertTest/RevertOpcodeCreateFiller.json",
            "sourceHash" : "4dc77617b750dbe57ca5cdb8e564e96718166c92fac972c9b1e9fe11fac68356"
        },
        "env" : {
            "currentCoinbase" : "0x2adc25665018aa1fe0e6bc666dac8fc2697ff9ba",
            "currentDifficulty" : "0x020000",
            "currentNumber" : "0x01",
            "currentTimestamp" : "0x03e8",
            "previousHash" : "0x5e20a0453cecd065ea59c37ac63e079ee08998b6045136a8ce6635c7912ec0b6",
            "currentGasLimit" : "0x989680"
        },
        "post" : {
            "Berlin" : [
                {
                    "indexes" : {
                        "data" : 0,
                        "gas" : 0,
                        "value" : 0
                    },
                    "hash" : "0xba344789df13b13573f0bc3d53efba98f501d3477245f5bff081dd568de3a995",
                    "txbytes" : "0xf86f800a830704e094b94f5374fce5edbc8e2a8697c15331677e6ebf0b808f600160005560016000fe60116001551ba0d5edd414de54afb709bd23f2e5dda1a01b1e96b3cfb5d730812fa37160a4f05ba028ba9657cea41957eeca7ea84ad2861d9701381f08a94de4b6eae629c59ec32e",
                    "logs" : "0x1dcc4de8dec75d7aab85b567b6ccd41ad312451b948a7413f0a142fd40d49347"
                },
                {
                    "indexes" : {
                        "data" : 0,
                        "gas" : 1,
                        "value" : 0
                    },
                    "hash" : "0x2ec8f1bc1c39b78e36b4e728a113bde2ec484c567627029d16c3a25c5f061bdf",
                    "txbytes" : "0xf86f800a8301117094b94f5374fce5edbc8e2a8697c15331677e6ebf0b808f600160005560016000fe60116001551ca01c0067161eb4a947f3634eadfb6eb4f1187913d69e32f62ffe19621650a96571a0554d1b57109a2120bfc3701fa29348b22333351428c028e2835b0ac7a3070a20",
                    "logs" : "0x1dcc4de8dec75d7aab85b567b6ccd41ad312451b948a7413f0a142fd40d49347"
                }
            ],
            "Istanbul" : [
                {
                    "indexes" : {
                        "data" : 0,
                        "gas" : 0,
                        "value" : 0
                    },
                    "hash" : "0x06a6c2a2566706560487a75cc1c6d655f51b40abdc635a50aa6348b90dd2c05b",
                    "txbytes" : "0xf86f800a830704e094b94f5374fce5edbc8e2a8697c15331677e6ebf0b808f600160005560016000fe60116001551ba0d5edd414de54afb709bd23f2e5dda1a01b1e96b3cfb5d730812fa37160a4f05ba028ba9657cea41957eeca7ea84ad2861d9701381f08a94de4b6eae629c59ec32e",
                    "logs" : "0x1dcc4de8dec75d7aab85b567b6ccd41ad312451b948a7413f0a142fd40d49347"
                },
                {
                    "indexes" : {
                        "data" : 0,
                        "gas" : 1,
                        "value" : 0
                    },
                    "hash" : "0x2ec8f1bc1c39b78e36b4e728a113bde2ec484c567627029d16c3a25c5f061bdf",
                    "txbytes" : "0xf86f800a8301117094b94f5374fce5edbc8e2a8697c15331677e6ebf0b808f600160005560016000fe60116001551ca01c0067161eb4a947f3634eadfb6eb4f1187913d69e32f62ffe19621650a96571a0554d1b57109a2120bfc3701fa29348b22333351428c028e2835b0ac7a3070a20",
                    "logs" : "0x1dcc4de8dec75d7aab85b567b6ccd41ad312451b948a7413f0a142fd40d49347"
                }
            ],
            "London" : [
                {
                    "indexes" : {
                        "data" : 0,
                        "gas" : 0,
                        "value" : 0
                    },
                    "hash" : "0xd79f7a0b748ed4d876366ae71131954fc84a9b1fb184f633859f7fc5ae1c2301",
                    "txbytes" : "0xf86f800a830704e094b94f5374fce5edbc8e2a8697c15331677e6ebf0b808f600160005560016000fe60116001551ba0d5edd414de54afb709bd23f2e5dda1a01b1e96b3cfb5d730812fa37160a4f05ba028ba9657cea41957eeca7ea84ad2861d9701381f08a94de4b6eae629c59ec32e",
                    "logs" : "0x1dcc4de8dec75d7aab85b567b6ccd41ad312451b948a7413f0a142fd40d49347"
                },
                {
                    "indexes" : {
                        "data" : 0,
                        "gas" : 1,
                        "value" : 0
                    },
                    "hash" : "0xfa64b4828cec208c82fb9477e49c9ee56c776694cbff9bc54b6cc1d01b848079",
                    "txbytes" : "0xf86f800a8301117094b94f5374fce5edbc8e2a8697c15331677e6ebf0b808f600160005560016000fe60116001551ca01c0067161eb4a947f3634eadfb6eb4f1187913d69e32f62ffe19621650a96571a0554d1b57109a2120bfc3701fa29348b22333351428c028e2835b0ac7a3070a20",
                    "logs" : "0x1dcc4de8dec75d7aab85b567b6ccd41ad312451b948a7413f0a142fd40d49347"
                }
            ]
        },
        "pre" : {
            "0xa94f5374fce5edbc8e2a8697c15331677e6ebf0b" : {
                "balance" : "0xe8d4a51000",
                "code" : "0x",
                "nonce" : "0x00",
                "storage" : {
                }
            },
            "0xb94f5374fce5edbc8e2a8697c15331677e6ebf0b" : {
                "balance" : "0x01",
                "code" : "0x6e600160005560016000fd6011600155600052600f60116001f0600155600c60005500",
                "nonce" : "0x00",
                "storage" : {
                }
            }
        },
        "transaction" : {
            "data" : [
                "0x600160005560016000fe6011600155"
            ],
            "gasPrice" : "0x0a",
            "gasLimit" : [
                "0x0704e0",
                "0x011170"
            ],
            "nonce" : "0x00",
            "secretKey" : "0x45a915e4d060149eb4365960e6a7a45f334393093061116b197e3240065ff2d8",
            "to" : "0xb94f5374fce5edbc8e2a8697c15331677e6ebf0b",
            "value" : [
                "0x00"
            ]
        }
    }
}