{
    "RevertDepthCreateOOG" : {
        "_info" : {
            "comment" : "",
            "filling-rpc-server" : "evm version 1.10.4-unstable-966ee3ae-20210528",
            "filling-tool-version" : "retesteth-0.1.1-eip1559+commit.658fc3a8.Linux.g++",
            "lllcversion" : "Version: 0.5.14-develop.2021.5.18+commit.14c9d5de.mod.Linux.g++",
            "source" : "src/GeneralStateTestsFiller/stRevertTest/RevertDepthCreateOOGFiller.json",
            "sourceHash" : "1e509ca91de68764cbb85c3be887e5e61fb2cbb2f9fbb029c2881a0cc447f847"
        },
        "env" : {
            "currentCoinbase" : "0x2adc25665018aa1fe0e6bc666dac8fc2697ff9ba",
            "currentDifficulty" : "0x020000",
            "currentNumber" : "0x01",
            "currentTimestamp" : "0x03e8",
            "previousHash" : "0x5e20a0453cecd065ea59c37ac63e079ee08998b6045136a8ce6635c7912ec0b6",
            "currentGasLimit" : "0x989680"
        },
        "post" : {
            "Berlin" : [
                {
                    "indexes" : {
                        "data" : 1,
                        "gas" : 1,
                        "value" : 0
                    },
                    "hash" : "0x6de313ad3ff0bf4ab74224ca985c421f78ffcb5930ea959f60071096bf21b4be",
                    "txbytes" : "0xf880800a8302bf2094a00000000000000000000000000000000000000001a0000000000000000000000000000000000000000000000000000000000001ea601ca0b1c7f5ccec07132cb7967939dfd92f911a137d9467c89cb3d667e424781286baa04fde86b09e7d6fb2cda5e88d5285313666a77696d03197637ef9c6fe2003e0d3",
                    "logs" : "0x1dcc4de8dec75d7aab85b567b6ccd41ad312451b948a7413f0a142fd40d49347"
                },
                {
                    "indexes" : {
                        "data" : 1,
                        "gas" : 1,
                        "value" : 1
                    },
                    "hash" : "0xc1e09e509d340eb39699523d1287060fe166926aac4ac0f3f3cf14524c2f498e",
                    "txbytes" : "0xf880800a8302bf2094a00000000000000000000000000000000000000080a0000000000000000000000000000000000000000000000000000000000001ea601ba0be955e9d87abc59911ea5d5fd67754e6a507a497ee48cc25a96a80e788b46c35a060377accddc78ef080be195c17326999734a18d5302e99b93e6813d54bf36b18",
                    "logs" : "0x1dcc4de8dec75d7aab85b567b6ccd41ad312451b948a7413f0a142fd40d49347"
                },
                {
                    "indexes" : {
                        "data" : 0,
                        "gas" : 1,
                        "value" : 0
                    },
                    "hash" : "0x95dcc91a168225a9c887bb8045678b37037f26965c742ab327f22cd6d58c35c2",
                    "txbytes" : "0xf880800a8302bf2094a00000000000000000000000000000000000000001a0000000000000000000000000000000000000000000000000000000000000ea601ca0ba1b75c4c644f84c3fae20ac5e749cac239e27f21d83f0865b1f92eb634d7b5aa07cc0163276e9d3fafc6a53932d1276337d947d23391496bf8c377a3e79e9680a",
                    "logs" : "0x1dcc4de8dec75d7aab85b567b6ccd41ad312451b948a7413f0a142fd40d49347"
                },
                {
                    "indexes" : {
                        "data" : 0,
                        "gas" : 1,
                        "value" : 1
                    },
                    "hash" : "0x9ee65abe4f3d094d5df989efbd5be3af6f4b5f9169e5b66e53ca2f0f113bffc3",
                    "txbytes" : "0xf880800a8302bf2094a00000000000000000000000000000000000000080a0000000000000000000000000000000000000000000000000000000000000ea601ca0c2783533c009a2cb152fd879e8883bc3236aab00c802733e1ad0c7af0bdca375a003134f11c1f37674e3586596ba5682f0848847025733e17401e9350ec99bd1d2",
                    "logs" : "0x1dcc4de8dec75d7aab85b567b6ccd41ad312451b948a7413f0a142fd40d49347"
                },
                {
                    "indexes" : {
                        "data" : 0,
                        "gas" : 0,
                        "value" : 0
                    },
                    "hash" : "0xc9cfef927b88edf75231517aa359b73112f003eb7d0afe09edf2ebb05cd091bf",
                    "txbytes" : "0xf880800a8301adb094a00000000000000000000000000000000000000001a0000000000000000000000000000000000000000000000000000000000000ea601ba06aa61b617b4e38153705c272c5b19a531cff03d2d07d970389b225252e546113a04df41cd6c854a9bd5208d03fcbcb6401b3e867453610d047610e3066381fb374",
                    "logs" : "0x1dcc4de8dec75d7aab85b567b6ccd41ad312451b948a7413f0a142fd40d49347"
                },
                {
                    "indexes" : {
                        "data" : 0,
                        "gas" : 0,
                        "value" : 1
                    },
                    "hash" : "0xc9cfef927b88edf75231517aa359b73112f003eb7d0afe09edf2ebb05cd091bf",
                    "txbytes" : "0xf880800a8301adb094a00000000000000000000000000000000000000080a0000000000000000000000000000000000000000000000000000000000000ea601ca0bed77bc32f00eba51a4c07ca1a2d7fd1d85147f60f04f5184079f103e4e77a78a03a851971798cd2b6acceb39036e948f91529728e1af3b3efb820c604d6a60ae3",
                    "logs" : "0x1dcc4de8dec75d7aab85b567b6ccd41ad312451b948a7413f0a142fd40d49347"
                },
                {
                    "indexes" : {
                        "data" : 1,
                        "gas" : 0,
                        "value" : 0
                    },
                    "hash" : "0xc9cfef927b88edf75231517aa359b73112f003eb7d0afe09edf2ebb05cd091bf",
                    "txbytes" : "0xf880800a8301adb094a00000000000000000000000000000000000000001a0000000000000000000000000000000000000000000000000000000000001ea601ba0c8eb963f0d1fe5892d10f1831c9cbed04e5f137888e21337461e30556cb7ae32a03cb3e13756e6bfcf183c4e8218c7447c932f58d7b87e1b85008a2060f42511eb",
                    "logs" : "0x1dcc4de8dec75d7aab85b567b6ccd41ad312451b948a7413f0a142fd40d49347"
                },
                {
                    "indexes" : {
                        "data" : 1,
                        "gas" : 0,
                        "value" : 1
                    },
                    "hash" : "0xc9cfef927b88edf75231517aa359b73112f003eb7d0afe09edf2ebb05cd091bf",
                    "txbytes" : "0xf880800a8301adb094a00000000000000000000000000000000000000080a0000000000000000000000000000000000000000000000000000000000001ea601ca022a1d331afb878b6e5bfdb493bd20aa5d3de94202b02f378482e57547b2d7d27a0287dc82d4030b7513e2a060def1e0afb8d549aaf03c5c5738c78348462d7295f",
                    "logs" : "0x1dcc4de8dec75d7aab85b567b6ccd41ad312451b948a7413f0a142fd40d49347"
                }
            ],
            "Istanbul" : [
                {
                    "indexes" : {
                        "data" : 1,
                        "gas" : 1,
                        "value" : 0
                    },
                    "hash" : "0x07fe405bf505430392261b222789fc673573a46f862edd1f68457399ab91123f",
                    "txbytes" : "0xf880800a8302bf2094a00000000000000000000000000000000000000001a0000000000000000000000000000000000000000000000000000000000001ea601ca0b1c7f5ccec07132cb7967939dfd92f911a137d9467c89cb3d667e424781286baa04fde86b09e7d6fb2cda5e88d5285313666a77696d03197637ef9c6fe2003e0d3",
                    "logs" : "0x1dcc4de8dec75d7aab85b567b6ccd41ad312451b948a7413f0a142fd40d49347"
                },
                {
                    "indexes" : {
                        "data" : 1,
                        "gas" : 1,
                        "value" : 1
                    },
                    "hash" : "0x2edc7f7b6433a9c02cdce9a335232eee8af7f1f47d2a10dd75b51c184f4e7916",
                    "txbytes" : "0xf880800a8302bf2094a00000000000000000000000000000000000000080a0000000000000000000000000000000000000000000000000000000000001ea601ba0be955e9d87abc59911ea5d5fd67754e6a507a497ee48cc25a96a80e788b46c35a060377accddc78ef080be195c17326999734a18d5302e99b93e6813d54bf36b18",
                    "logs" : "0x1dcc4de8dec75d7aab85b567b6ccd41ad312451b948a7413f0a142fd40d49347"
                },
                {
                    "indexes" : {
                        "data" : 0,
                        "gas" : 1,
                        "value" : 0
                    },
                    "hash" : "0x3dd2e15d219402775de53fd773f552a6dec427a2c5b30ab47ee27084d3b086d2",
                    "txbytes" : "0xf880800a8302bf2094a00000000000000000000000000000000000000001a0000000000000000000000000000000000000000000000000000000000000ea601ca0ba1b75c4c644f84c3fae20ac5e749cac239e27f21d83f0865b1f92eb634d7b5aa07cc0163276e9d3fafc6a53932d1276337d947d23391496bf8c377a3e79e9680a",
                    "logs" : "0x1dcc4de8dec75d7aab85b567b6ccd41ad312451b948a7413f0a142fd40d49347"
                },
                {
                    "indexes" : {
                        "data" : 0,
                        "gas" : 1,
                        "value" : 1
                    },
                    "hash" : "0xa7bf2f1153b60737df9aa8ae7d109d8176d4ca27c3bd19501e5eeb5a15b2e4df",
                    "txbytes" : "0xf880800a8302bf2094a00000000000000000000000000000000000000080a0000000000000000000000000000000000000000000000000000000000000ea601ca0c2783533c009a2cb152fd879e8883bc3236aab00c802733e1ad0c7af0bdca375a003134f11c1f37674e3586596ba5682f0848847025733e17401e9350ec99bd1d2",
                    "logs" : "0x1dcc4de8dec75d7aab85b567b6ccd41ad312451b948a7413f0a142fd40d49347"
                },
                {
                    "indexes" : {
                        "data" : 0,
                        "gas" : 0,
                        "value" : 0
                    },
                    "hash" : "0xc9cfef927b88edf75231517aa359b73112f003eb7d0afe09edf2ebb05cd091bf",
                    "txbytes" : "0xf880800a8301adb094a00000000000000000000000000000000000000001a0000000000000000000000000000000000000000000000000000000000000ea601ba06aa61b617b4e38153705c272c5b19a531cff03d2d07d970389b225252e546113a04df41cd6c854a9bd5208d03fcbcb6401b3e867453610d047610e3066381fb374",
                    "logs" : "0x1dcc4de8dec75d7aab85b567b6ccd41ad312451b948a7413f0a142fd40d49347"
                },
                {
                    "indexes" : {
                        "data" : 0,
                        "gas" : 0,
                        "value" : 1
                    },
                    "hash" : "0xc9cfef927b88edf75231517aa359b73112f003eb7d0afe09edf2ebb05cd091bf",
                    "txbytes" : "0xf880800a8301adb094a00000000000000000000000000000000000000080a0000000000000000000000000000000000000000000000000000000000000ea601ca0bed77bc32f00eba51a4c07ca1a2d7fd1d85147f60f04f5184079f103e4e77a78a03a851971798cd2b6acceb39036e948f91529728e1af3b3efb820c604d6a60ae3",
                    "logs" : "0x1dcc4de8dec75d7aab85b567b6ccd41ad312451b948a7413f0a142fd40d49347"
                },
                {
                    "indexes" : {
                        "data" : 1,
                        "gas" : 0,
                        "value" : 0
                    },
                    "hash" : "0xc9cfef927b88edf75231517aa359b73112f003eb7d0afe09edf2ebb05cd091bf",
                    "txbytes" : "0xf880800a8301adb094a00000000000000000000000000000000000000001a0000000000000000000000000000000000000000000000000000000000001ea601ba0c8eb963f0d1fe5892d10f1831c9cbed04e5f137888e21337461e30556cb7ae32a03cb3e13756e6bfcf183c4e8218c7447c932f58d7b87e1b85008a2060f42511eb",
                    "logs" : "0x1dcc4de8dec75d7aab85b567b6ccd41ad312451b948a7413f0a142fd40d49347"
                },
                {
                    "indexes" : {
                        "data" : 1,
                        "gas" : 0,
                        "value" : 1
                    },
                    "hash" : "0xc9cfef927b88edf75231517aa359b73112f003eb7d0afe09edf2ebb05cd091bf",
                    "txbytes" : "0xf880800a8301adb094a00000000000000000000000000000000000000080a0000000000000000000000000000000000000000000000000000000000001ea601ca022a1d331afb878b6e5bfdb493bd20aa5d3de94202b02f378482e57547b2d7d27a0287dc82d4030b7513e2a060def1e0afb8d549aaf03c5c5738c78348462d7295f",
                    "logs" : "0x1dcc4de8dec75d7aab85b567b6ccd41ad312451b948a7413f0a142fd40d49347"
                }
            ],
            "London" : [
                {
                    "indexes" : {
                        "data" : 1,
                        "gas" : 1,
                        "value" : 0
                    },
                    "hash" : "0xccdeb0bf4e3c2d0d20d9e3ebe158aa68a599e96b70c74029038a5c24706741a2",
                    "txbytes" : "0xf880800a8302bf2094a00000000000000000000000000000000000000001a0000000000000000000000000000000000000000000000000000000000001ea601ca0b1c7f5ccec07132cb7967939dfd92f911a137d9467c89cb3d667e424781286baa04fde86b09e7d6fb2cda5e88d5285313666a77696d03197637ef9c6fe2003e0d3",
                    "logs" : "0x1dcc4de8dec75d7aab85b567b6ccd41ad312451b948a7413f0a142fd40d49347"
                },
                {
                    "indexes" : {
                        "data" : 1,
                        "gas" : 1,
                        "value" : 1
                    },
                    "hash" : "0x5510b6e838cc5156ff219d2c67b216d23cfea31da68859f4355a77c3a8e408f4",
                    "txbytes" : "0xf880800a8302bf2094a00000000000000000000000000000000000000080a0000000000000000000000000000000000000000000000000000000000001ea601ba0be955e9d87abc59911ea5d5fd67754e6a507a497ee48cc25a96a80e788b46c35a060377accddc78ef080be195c17326999734a18d5302e99b93e6813d54bf36b18",
                    "logs" : "0x1dcc4de8dec75d7aab85b567b6ccd41ad312451b948a7413f0a142fd40d49347"
                },
                {
                    "indexes" : {
                        "data" : 0,
                        "gas" : 1,
                        "value" : 0
                    },
                    "hash" : "0x5500b0a465b6c113f8ccca93bb0d844859937b6557eb69ffb9d225d5850bda15",
                    "txbytes" : "0xf880800a8302bf2094a00000000000000000000000000000000000000001a0000000000000000000000000000000000000000000000000000000000000ea601ca0ba1b75c4c644f84c3fae20ac5e749cac239e27f21d83f0865b1f92eb634d7b5aa07cc0163276e9d3fafc6a53932d1276337d947d23391496bf8c377a3e79e9680a",
                    "logs" : "0x1dcc4de8dec75d7aab85b567b6ccd41ad312451b948a7413f0a142fd40d49347"
                },
                {
                    "indexes" : {
                        "data" : 0,
                        "gas" : 1,
                        "value" : 1
                    },
                    "hash" : "0xbb31470fcbe51f817284fddb29a0dfe5d7c4690126f3266ae0397e9351340d5f",
                    "txbytes" : "0xf880800a8302bf2094a00000000000000000000000000000000000000080a0000000000000000000000000000000000000000000000000000000000000ea601ca0c2783533c009a2cb152fd879e8883bc3236aab00c802733e1ad0c7af0bdca375a003134f11c1f37674e3586596ba5682f0848847025733e17401e9350ec99bd1d2",
                    "logs" : "0x1dcc4de8dec75d7aab85b567b6ccd41ad312451b948a7413f0a142fd40d49347"
                },
                {
                    "indexes" : {
                        "data" : 0,
                        "gas" : 0,
                        "value" : 0
                    },
                    "hash" : "0x9d25d5181fbbd27fb68913e6d908f8a0570f053db7021cc34347602ebb0a9f99",
                    "txbytes" : "0xf880800a8301adb094a00000000000000000000000000000000000000001a0000000000000000000000000000000000000000000000000000000000000ea601ba06aa61b617b4e38153705c272c5b19a531cff03d2d07d970389b225252e546113a04df41cd6c854a9bd5208d03fcbcb6401b3e867453610d047610e3066381fb374",
                    "logs" : "0x1dcc4de8dec75d7aab85b567b6ccd41ad312451b948a7413f0a142fd40d49347"
                },
                {
                    "indexes" : {
                        "data" : 0,
                        "gas" : 0,
                        "value" : 1
                    },
                    "hash" : "0x9d25d5181fbbd27fb68913e6d908f8a0570f053db7021cc34347602ebb0a9f99",
                    "txbytes" : "0xf880800a8301adb094a00000000000000000000000000000000000000080a0000000000000000000000000000000000000000000000000000000000000ea601ca0bed77bc32f00eba51a4c07ca1a2d7fd1d85147f60f04f5184079f103e4e77a78a03a851971798cd2b6acceb39036e948f91529728e1af3b3efb820c604d6a60ae3",
                    "logs" : "0x1dcc4de8dec75d7aab85b567b6ccd41ad312451b948a7413f0a142fd40d49347"
                },
                {
                    "indexes" : {
                        "data" : 1,
                        "gas" : 0,
                        "value" : 0
                    },
                    "hash" : "0x9d25d5181fbbd27fb68913e6d908f8a0570f053db7021cc34347602ebb0a9f99",
                    "txbytes" : "0xf880800a8301adb094a00000000000000000000000000000000000000001a0000000000000000000000000000000000000000000000000000000000001ea601ba0c8eb963f0d1fe5892d10f1831c9cbed04e5f137888e21337461e30556cb7ae32a03cb3e13756e6bfcf183c4e8218c7447c932f58d7b87e1b85008a2060f42511eb",
                    "logs" : "0x1dcc4de8dec75d7aab85b567b6ccd41ad312451b948a7413f0a142fd40d49347"
                },
                {
                    "indexes" : {
                        "data" : 1,
                        "gas" : 0,
                        "value" : 1
                    },
                    "hash" : "0x9d25d5181fbbd27fb68913e6d908f8a0570f053db7021cc34347602ebb0a9f99",
                    "txbytes" : "0xf880800a8301adb094a00000000000000000000000000000000000000080a0000000000000000000000000000000000000000000000000000000000001ea601ca022a1d331afb878b6e5bfdb493bd20aa5d3de94202b02f378482e57547b2d7d27a0287dc82d4030b7513e2a060def1e0afb8d549aaf03c5c5738c78348462d7295f",
                    "logs" : "0x1dcc4de8dec75d7aab85b567b6ccd41ad312451b948a7413f0a142fd40d49347"
                }
            ]
        },
        "pre" : {
            "0xa000000000000000000000000000000000000000" : {
                "balance" : "0x05",
                "code" : "0x60016000556000600060006000600073b000000000000000000000000000000000000000600035f1600155600c60045500",
                "nonce" : "0x36",
                "storage" : {
                }
            },
            "0xa94f5374fce5edbc8e2a8697c15331677e6ebf0b" : {
                "balance" : "0xe8d4a51000",
                "code" : "0x",
                "nonce" : "0x00",
                "storage" : {
                }
            },
            "0xb000000000000000000000000000000000000000" : {
                "balance" : "0x00",
                "code" : "0x6008600255600060006000f050600c60035500",
                "nonce" : "0x00",
                "storage" : {
                }
            }
        },
        "transaction" : {
            "data" : [
                "0x000000000000000000000000000000000000000000000000000000000000ea60",
                "0x000000000000000000000000000000000000000000000000000000000001ea60"
            ],
            "gasPrice" : "0x0a",
            "gasLimit" : [
                "0x01adb0",
                "0x02bf20"
            ],
            "nonce" : "0x00",
            "secretKey" : "0x45a915e4d060149eb4365960e6a7a45f334393093061116b197e3240065ff2d8",
            "to" : "0xa000000000000000000000000000000000000000",
            "value" : [
                "0x01",
                "0x00"
            ]
        }
    }
}