{
    "RevertPrefoundEmptyOOG" : {
        "_info" : {
            "comment" : "",
            "filling-rpc-server" : "evm version 1.10.4-unstable-966ee3ae-20210528",
            "filling-tool-version" : "retesteth-0.1.1-eip1559+commit.658fc3a8.Linux.g++",
            "lllcversion" : "Version: 0.5.14-develop.2021.5.18+commit.14c9d5de.mod.Linux.g++",
            "source" : "src/GeneralStateTestsFiller/stRevertTest/RevertPrefoundEmptyOOGFiller.json",
            "sourceHash" : "a1281e10bc6990ac4b0424cd0f7ed260832d576baa50e6959361bb491581c670"
        },
        "env" : {
            "currentCoinbase" : "0x2adc25665018aa1fe0e6bc666dac8fc2697ff9ba",
            "currentDifficulty" : "0x020000",
            "currentNumber" : "0x01",
            "currentTimestamp" : "0x03e8",
            "previousHash" : "0x5e20a0453cecd065ea59c37ac63e079ee08998b6045136a8ce6635c7912ec0b6",
            "currentGasLimit" : "0x989680"
        },
        "post" : {
            "Berlin" : [
                {
                    "indexes" : {
                        "data" : 0,
                        "gas" : 0,
                        "value" : 0
                    },
                    "hash" : "0x1cb14fea80a672ac71c7fd78a68d2aa2d4689db929c39c087561103b38a9c5cb",
                    "txbytes" : "0xf860800a830e30d094a00000000000000000000000000000000000000080801ca05c3f1e6773c901e467947ba168cd429e7d7a1ad7ecc450cf5c8f1cbc36336941a07440df464268bd7ba6e64c3d97b467794214530c45ccb2b463397f116e2a7bf2",
                    "logs" : "0x1dcc4de8dec75d7aab85b567b6ccd41ad312451b948a7413f0a142fd40d49347"
                }
            ],
            "Istanbul" : [
                {
                    "indexes" : {
                        "data" : 0,
                        "gas" : 0,
                        "value" : 0
                    },
                    "hash" : "0x1cb14fea80a672ac71c7fd78a68d2aa2d4689db929c39c087561103b38a9c5cb",
                    "txbytes" : "0xf860800a830e30d094a00000000000000000000000000000000000000080801ca05c3f1e6773c901e467947ba168cd429e7d7a1ad7ecc450cf5c8f1cbc36336941a07440df464268bd7ba6e64c3d97b467794214530c45ccb2b463397f116e2a7bf2",
                    "logs" : "0x1dcc4de8dec75d7aab85b567b6ccd41ad312451b948a7413f0a142fd40d49347"
                }
            ],
            "London" : [
                {
                    "indexes" : {
                        "data" : 0,
                        "gas" : 0,
                        "value" : 0
                    },
                    "hash" : "0xd0a9cd35ab04a811bd1bd3e77565ac4f0833c6adb9bfd47254863280694e22ab",
                    "txbytes" : "0xf860800a830e30d094a00000000000000000000000000000000000000080801ca05c3f1e6773c901e467947ba168cd429e7d7a1ad7ecc450cf5c8f1cbc36336941a07440df464268bd7ba6e64c3d97b467794214530c45ccb2b463397f116e2a7bf2",
                    "logs" : "0x1dcc4de8dec75d7aab85b567b6ccd41ad312451b948a7413f0a142fd40d49347"
                }
            ]
        },
        "pre" : {
            "0x7db299e0885c85039f56fa504a13dd8ce8a56aa7" : {
                "balance" : "0x00",
                "code" : "0x",
                "nonce" : "0x00",
                "storage" : {
                }
            },
            "0xa000000000000000000000000000000000000000" : {
                "balance" : "0x01",
                "code" : "0x602060006000f0600055622fffff60002000",
                "nonce" : "0x00",
                "storage" : {
                }
            },
            "0xa94f5374fce5edbc8e2a8697c15331677e6ebf0b" : {
                "balance" : "0xe8d4a51000",
                "code" : "0x",
                "nonce" : "0x00",
                "storage" : {
                }
            }
        },
        "transaction" : {
            "data" : [
                "0x"
            ],
            "gasPrice" : "0x0a",
            "gasLimit" : [
                "0x0e30d0"
            ],
            "nonce" : "0x00",
            "secretKey" : "0x45a915e4d060149eb4365960e6a7a45f334393093061116b197e3240065ff2d8",
            "to" : "0xa000000000000000000000000000000000000000",
            "value" : [
                "0x00"
            ]
        }
    }
}