{
    "RevertPrecompiledTouch" : {
        "_info" : {
            "comment" : "",
            "filling-rpc-server" : "evm version 1.10.4-unstable-966ee3ae-20210528",
            "filling-tool-version" : "retesteth-0.1.1-eip1559+commit.658fc3a8.Linux.g++",
            "lllcversion" : "Version: 0.5.14-develop.2021.5.18+commit.14c9d5de.mod.Linux.g++",
            "source" : "src/GeneralStateTestsFiller/stRevertTest/RevertPrecompiledTouchFiller.json",
            "sourceHash" : "91f45fa376c687d64a56770f627b36a1953930e82bf16ce561eb5996db793877"
        },
        "env" : {
            "currentCoinbase" : "0x68795c4aa09d6f4ed3e5deddf8c2ad3049a601da",
            "currentDifficulty" : "0x020000",
            "currentNumber" : "0x01",
            "currentTimestamp" : "0x03e8",
            "previousHash" : "0x5e20a0453cecd065ea59c37ac63e079ee08998b6045136a8ce6635c7912ec0b6",
            "currentGasLimit" : "0x3d37ef"
        },
        "post" : {
            "Berlin" : [
                {
                    "indexes" : {
                        "data" : 0,
                        "gas" : 0,
                        "value" : 0
                    },
                    "hash" : "0x9c779f5db479699607700da03b9495b4dba95af0717d582e13e02c1c26a58fde",
                    "txbytes" : "0xf880010a830186a094b94f5374fce5edbc8e2a8697c15331677e6ebf0b80a000000000000000000000000010000000000000000000000000000000000000001ca027a3c6ce3ac325aadb1ad3843f83698cacfa7a84e98a8c50dd92003bf423c3dba04dcff9dd13b87c0905f9bb4157743fc88efd010ffd0596cf7a5a7a706d8a4c27",
                    "logs" : "0x1dcc4de8dec75d7aab85b567b6ccd41ad312451b948a7413f0a142fd40d49347"
                },
                {
                    "indexes" : {
                        "data" : 3,
                        "gas" : 0,
                        "value" : 0
                    },
                    "hash" : "0x9c779f5db479699607700da03b9495b4dba95af0717d582e13e02c1c26a58fde",
                    "txbytes" : "0xf880010a830186a094b94f5374fce5edbc8e2a8697c15331677e6ebf0b80a000000000000000000000000040000000000000000000000000000000000000001ca0a68152945e86a9bbdacd917f0a44e9f54b1a1df747597581ac6c2a9411f7f23ea01b6b44c6013efff7392ee225e60655f2cec07130643151bef8954c991fb7e9f2",
                    "logs" : "0x1dcc4de8dec75d7aab85b567b6ccd41ad312451b948a7413f0a142fd40d49347"
                },
                {
                    "indexes" : {
                        "data" : 1,
                        "gas" : 0,
                        "value" : 0
                    },
                    "hash" : "0xcfc0187795689e95f1c5fdbcce70a07872d438fa6423f5770b77df9fb8fc1b94",
                    "txbytes" : "0xf880010a830186a094b94f5374fce5edbc8e2a8697c15331677e6ebf0b80a000000000000000000000000020000000000000000000000000000000000000001ca099ddb7031b7733f23695bfa034e4d5674145e0b8adb9fd6329e266dccffc1747a0346935a7999bd6f46f3d54b6ff7bd828b91aa631cebe918f775b64619a3921f4",
                    "logs" : "0x1dcc4de8dec75d7aab85b567b6ccd41ad312451b948a7413f0a142fd40d49347"
                },
                {
                    "indexes" : {
                        "data" : 2,
                        "gas" : 0,
                        "value" : 0
                    },
                    "hash" : "0xcfc0187795689e95f1c5fdbcce70a07872d438fa6423f5770b77df9fb8fc1b94",
                    "txbytes" : "0xf880010a830186a094b94f5374fce5edbc8e2a8697c15331677e6ebf0b80a000000000000000000000000030000000000000000000000000000000000000001ca0c232cdf4c7c33de9ccf85d6ae14f2cf8e0aecb9cdd47d1d6db6169c5a0b70dbea06c47989adc50d231982930b62582f01b6f05b2ca7632f73c97c57f6dedc91af5",
                    "logs" : "0x1dcc4de8dec75d7aab85b567b6ccd41ad312451b948a7413f0a142fd40d49347"
                }
            ],
            "Istanbul" : [
                {
                    "indexes" : {
                        "data" : 0,
                        "gas" : 0,
                        "value" : 0
                    },
                    "hash" : "0xf7f74942635e21b3e0a9e8558b851d179b2b931066122d33750929347663d698",
                    "txbytes" : "0xf880010a830186a094b94f5374fce5edbc8e2a8697c15331677e6ebf0b80a000000000000000000000000010000000000000000000000000000000000000001ca027a3c6ce3ac325aadb1ad3843f83698cacfa7a84e98a8c50dd92003bf423c3dba04dcff9dd13b87c0905f9bb4157743fc88efd010ffd0596cf7a5a7a706d8a4c27",
                    "logs" : "0x1dcc4de8dec75d7aab85b567b6ccd41ad312451b948a7413f0a142fd40d49347"
                },
                {
                    "indexes" : {
                        "data" : 3,
                        "gas" : 0,
                        "value" : 0
                    },
                    "hash" : "0xf7f74942635e21b3e0a9e8558b851d179b2b931066122d33750929347663d698",
                    "txbytes" : "0xf880010a830186a094b94f5374fce5edbc8e2a8697c15331677e6ebf0b80a000000000000000000000000040000000000000000000000000000000000000001ca0a68152945e86a9bbdacd917f0a44e9f54b1a1df747597581ac6c2a9411f7f23ea01b6b44c6013efff7392ee225e60655f2cec07130643151bef8954c991fb7e9f2",
                    "logs" : "0x1dcc4de8dec75d7aab85b567b6ccd41ad312451b948a7413f0a142fd40d49347"
                },
                {
                    "indexes" : {
                        "data" : 1,
                        "gas" : 0,
                        "value" : 0
                    },
                    "hash" : "0x7ad76dace0543b46781b6c513e29c1f4f714fd305f1673213b2bc3a95f8889f3",
                    "txbytes" : "0xf880010a830186a094b94f5374fce5edbc8e2a8697c15331677e6ebf0b80a000000000000000000000000020000000000000000000000000000000000000001ca099ddb7031b7733f23695bfa034e4d5674145e0b8adb9fd6329e266dccffc1747a0346935a7999bd6f46f3d54b6ff7bd828b91aa631cebe918f775b64619a3921f4",
                    "logs" : "0x1dcc4de8dec75d7aab85b567b6ccd41ad312451b948a7413f0a142fd40d49347"
                },
                {
                    "indexes" : {
                        "data" : 2,
                        "gas" : 0,
                        "value" : 0
                    },
                    "hash" : "0x7ad76dace0543b46781b6c513e29c1f4f714fd305f1673213b2bc3a95f8889f3",
                    "txbytes" : "0xf880010a830186a094b94f5374fce5edbc8e2a8697c15331677e6ebf0b80a000000000000000000000000030000000000000000000000000000000000000001ca0c232cdf4c7c33de9ccf85d6ae14f2cf8e0aecb9cdd47d1d6db6169c5a0b70dbea06c47989adc50d231982930b62582f01b6f05b2ca7632f73c97c57f6dedc91af5",
                    "logs" : "0x1dcc4de8dec75d7aab85b567b6ccd41ad312451b948a7413f0a142fd40d49347"
                }
            ],
            "London" : [
                {
                    "indexes" : {
                        "data" : 0,
                        "gas" : 0,
                        "value" : 0
                    },
                    "hash" : "0xc4a75b740ec54f8287e6c0bb4712c0548d6a0486f70dea2e3fbeed695bd49a37",
                    "txbytes" : "0xf880010a830186a094b94f5374fce5edbc8e2a8697c15331677e6ebf0b80a000000000000000000000000010000000000000000000000000000000000000001ca027a3c6ce3ac325aadb1ad3843f83698cacfa7a84e98a8c50dd92003bf423c3dba04dcff9dd13b87c0905f9bb4157743fc88efd010ffd0596cf7a5a7a706d8a4c27",
                    "logs" : "0x1dcc4de8dec75d7aab85b567b6ccd41ad312451b948a7413f0a142fd40d49347"
                },
                {
                    "indexes" : {
                        "data" : 3,
                        "gas" : 0,
                        "value" : 0
                    },
                    "hash" : "0xc4a75b740ec54f8287e6c0bb4712c0548d6a0486f70dea2e3fbeed695bd49a37",
                    "txbytes" : "0xf880010a830186a094b94f5374fce5edbc8e2a8697c15331677e6ebf0b80a000000000000000000000000040000000000000000000000000000000000000001ca0a68152945e86a9bbdacd917f0a44e9f54b1a1df747597581ac6c2a9411f7f23ea01b6b44c6013efff7392ee225e60655f2cec07130643151bef8954c991fb7e9f2",
                    "logs" : "0x1dcc4de8dec75d7aab85b567b6ccd41ad312451b948a7413f0a142fd40d49347"
                },
                {
                    "indexes" : {
                        "data" : 1,
                        "gas" : 0,
                        "value" : 0
                    },
                    "hash" : "0x60201e4634958c318c29c657249eb3b6abdb02dc5e9894eb748823d44b01469f",
                    "txbytes" : "0xf880010a830186a094b94f5374fce5edbc8e2a8697c15331677e6ebf0b80a000000000000000000000000020000000000000000000000000000000000000001ca099ddb7031b7733f23695bfa034e4d5674145e0b8adb9fd6329e266dccffc1747a0346935a7999bd6f46f3d54b6ff7bd828b91aa631cebe918f775b64619a3921f4",
                    "logs" : "0x1dcc4de8dec75d7aab85b567b6ccd41ad312451b948a7413f0a142fd40d49347"
                },
                {
                    "indexes" : {
                        "data" : 2,
                        "gas" : 0,
                        "value" : 0
                    },
                    "hash" : "0x60201e4634958c318c29c657249eb3b6abdb02dc5e9894eb748823d44b01469f",
                    "txbytes" : "0xf880010a830186a094b94f5374fce5edbc8e2a8697c15331677e6ebf0b80a000000000000000000000000030000000000000000000000000000000000000001ca0c232cdf4c7c33de9ccf85d6ae14f2cf8e0aecb9cdd47d1d6db6169c5a0b70dbea06c47989adc50d231982930b62582f01b6f05b2ca7632f73c97c57f6dedc91af5",
                    "logs" : "0x1dcc4de8dec75d7aab85b567b6ccd41ad312451b948a7413f0a142fd40d49347"
                }
            ]
        },
        "pre" : {
            "0x0000000000000000000000000000000000000001" : {
                "balance" : "0x00",
                "code" : "0x",
                "nonce" : "0x00",
                "storage" : {
                }
            },
            "0x0000000000000000000000000000000000000002" : {
                "balance" : "0x00",
                "code" : "0x",
                "nonce" : "0x00",
                "storage" : {
                }
            },
            "0x0000000000000000000000000000000000000003" : {
                "balance" : "0x00",
                "code" : "0x",
                "nonce" : "0x00",
                "storage" : {
                }
            },
            "0x0000000000000000000000000000000000000004" : {
                "balance" : "0x00",
                "code" : "0x",
                "nonce" : "0x00",
                "storage" : {
                }
            },
            "0x0000000000000000000000000000000000000005" : {
                "balance" : "0x00",
                "code" : "0x",
                "nonce" : "0x00",
                "storage" : {
                }
            },
            "0x0000000000000000000000000000000000000006" : {
                "balance" : "0x00",
                "code" : "0x",
                "nonce" : "0x00",
                "storage" : {
                }
            },
            "0x0000000000000000000000000000000000000007" : {
                "balance" : "0x00",
                "code" : "0x",
                "nonce" : "0x00",
                "storage" : {
                }
            },
            "0x0000000000000000000000000000000000000008" : {
                "balance" : "0x00",
                "code" : "0x",
                "nonce" : "0x00",
                "storage" : {
                }
            },
            "0x1000000000000000000000000000000000000000" : {
                "balance" : "0x00",
                "code" : "0x60006000600060006000600161c350f15060006000600060006000600261c350f15060006000600060006000600361c350f15060006000600060006000600461c350f15060006000600060006000600561c350f15060006000600060006000600661c350f15060006000600060006000600761c350f15060006000600060006000600861c350f1505a6001555a6002555a60035500",
                "nonce" : "0x00",
                "storage" : {
                }
            },
            "0x2000000000000000000000000000000000000000" : {
                "balance" : "0x00",
                "code" : "0x6000600060006000600161c350f4506000600060006000600261c350f4506000600060006000600361c350f4506000600060006000600461c350f4506000600060006000600561c350f4506000600060006000600661c350f4506000600060006000600761c350f4506000600060006000600861c350f4505a6001555a6002555a60035500",
                "nonce" : "0x00",
                "storage" : {
                }
            },
            "0x3000000000000000000000000000000000000000" : {
                "balance" : "0x00",
                "code" : "0x60006000600060006000600161c350f25060006000600060006000600261c350f25060006000600060006000600361c350f25060006000600060006000600461c350f25060006000600060006000600561c350f25060006000600060006000600661c350f25060006000600060006000600761c350f25060006000600060006000600861c350f2505a6001555a6002555a60035500",
                "nonce" : "0x00",
                "storage" : {
                }
            },
            "0x4000000000000000000000000000000000000000" : {
                "balance" : "0x00",
                "code" : "0x6000600060006000600161c350fa506000600060006000600261c350fa506000600060006000600361c350fa506000600060006000600461c350fa506000600060006000600561c350fa506000600060006000600661c350fa506000600060006000600761c350fa506000600060006000600861c350fa505a6001555a6002555a60035500",
                "nonce" : "0x00",
                "storage" : {
                }
            },
            "0xa94f5374fce5edbc8e2a8697c15331677e6ebf0b" : {
                "balance" : "0x0de0b6b3a7640000",
                "code" : "0x",
                "nonce" : "0x01",
                "storage" : {
                }
            },
            "0xb94f5374fce5edbc8e2a8697c15331677e6ebf0b" : {
                "balance" : "0x00",
                "code" : "0x600060006000600060006000355af200",
                "nonce" : "0x00",
                "storage" : {
                }
            }
        },
        "transaction" : {
            "data" : [
                "0x0000000000000000000000001000000000000000000000000000000000000000",
                "0x0000000000000000000000002000000000000000000000000000000000000000",
                "0x0000000000000000000000003000000000000000000000000000000000000000",
                "0x0000000000000000000000004000000000000000000000000000000000000000"
            ],
            "gasPrice" : "0x0a",
            "gasLimit" : [
                "0x0186a0"
            ],
            "nonce" : "0x01",
            "secretKey" : "0x45a915e4d060149eb4365960e6a7a45f334393093061116b197e3240065ff2d8",
            "to" : "0xb94f5374fce5edbc8e2a8697c15331677e6ebf0b",
            "value" : [
                "0x00"
            ]
        }
    }
}