{
    "TransactionCreateAutoSuicideContract_d0g0v0_Berlin" : {
        "_info" : {
            "comment" : "",
            "filling-rpc-server" : "evm version 1.10.4-unstable-966ee3ae-20210528",
            "filling-tool-version" : "retesteth-0.1.1-eip1559+commit.658fc3a8.Linux.g++",
            "lllcversion" : "Version: 0.5.14-develop.2021.5.18+commit.14c9d5de.mod.Linux.g++",
            "source" : "src/GeneralStateTestsFiller/stInitCodeTest/TransactionCreateAutoSuicideContractFiller.json",
            "sourceHash" : "b08cbb0c6af120babfb6779487a4fb3a0bfc7a8a6b8f6b0712be785c2dd98588"
        },
        "genesisBlockHeader" : {
            "bloom" : "0x00000000000000000000000000000000000000000000000000000000000000000000000000000000000000000000000000000000000000000000000000000000000000000000000000000000000000000000000000000000000000000000000000000000000000000000000000000000000000000000000000000000000000000000000000000000000000000000000000000000000000000000000000000000000000000000000000000000000000000000000000000000000000000000000000000000000000000000000000000000000000000000000000000000000000000000000000000000000000000000000000000000000000000000000000000000",
            "coinbase" : "0x2adc25665018aa1fe0e6bc666dac8fc2697ff9ba",
            "difficulty" : "0x020000",
            "extraData" : "0x00",
            "gasLimit" : "0x0f4240",
            "gasUsed" : "0x00",
            "hash" : "0xc473f1f975da17cae6317f5f64f456b9022b30c0892301f6b8dbd17e61d5febc",
            "mixHash" : "0x0000000000000000000000000000000000000000000000000000000000000000",
            "nonce" : "0x0000000000000000",
            "number" : "0x00",
            "parentHash" : "0x0000000000000000000000000000000000000000000000000000000000000000",
            "receiptTrie" : "0x56e81f171bcc55a6ff8345e692c0f86e5b48e01b996cadc001622fb5e363b421",
            "stateRoot" : "0x18c1342886baeaf926b3fbbfb0484bf0cd1ced43576547c11153d3c8944d5c47",
            "timestamp" : "0x00",
            "transactionsTrie" : "0x56e81f171bcc55a6ff8345e692c0f86e5b48e01b996cadc001622fb5e363b421",
            "uncleHash" : "0x1dcc4de8dec75d7aab85b567b6ccd41ad312451b948a7413f0a142fd40d49347"
        },
        "pre" : {
            "0xa94f5374fce5edbc8e2a8697c15331677e6ebf0b" : {
                "balance" : "0x0f4240",
                "code" : "0x",
                "nonce" : "0x00",
                "storage" : {
                }
            }
        },
        "postState" : {
            "0x2adc25665018aa1fe0e6bc666dac8fc2697ff9ba" : {
                "code" : "0x",
                "nonce" : "0x00",
                "balance" : "0x1bc16d674ed06470",
                "storage" : {
                }
            },
            "0xa94f5374fce5edbc8e2a8697c15331677e6ebf0b" : {
                "code" : "0x",
                "nonce" : "0x01",
                "balance" : "0x06ddd0",
                "storage" : {
                }
            }
        },
        "network" : "Berlin",
        "sealEngine" : "NoProof",
        "lastblockhash" : "0x2bc9c51f8e5500b00e43a00c8a84eb92e272b0df01c0f52a462b0567ff509404",
        "genesisRLP" : "0xf901f8f901f3a00000000000000000000000000000000000000000000000000000000000000000a01dcc4de8dec75d7aab85b567b6ccd41ad312451b948a7413f0a142fd40d49347942adc25665018aa1fe0e6bc666dac8fc2697ff9baa018c1342886baeaf926b3fbbfb0484bf0cd1ced43576547c11153d3c8944d5c47a056e81f171bcc55a6ff8345e692c0f86e5b48e01b996cadc001622fb5e363b421a056e81f171bcc55a6ff8345e692c0f86e5b48e01b996cadc001622fb5e363b421b90100000000000000000000000000000000000000000000000000000000000000000000000000000000000000000000000000000000000000000000000000000000000000000000000000000000000000000000000000000000000000000000000000000000000000000000000000000000000000000000000000000000000000000000000000000000000000000000000000000000000000000000000000000000000000000000000000000000000000000000000000000000000000000000000000000000000000000000000000000000000000000000000000000000000000000000000000000000000000000000000000000000000000000000000000000000008302000080830f4240808000a00000000000000000000000000000000000000000000000000000000000000000880000000000000000c0c0",
        "blocks" : [
            {
                "rlp" : "0xf90261f901f7a0c473f1f975da17cae6317f5f64f456b9022b30c0892301f6b8dbd17e61d5febca01dcc4de8dec75d7aab85b567b6ccd41ad312451b948a7413f0a142fd40d49347942adc25665018aa1fe0e6bc666dac8fc2697ff9baa0d9f384dd9e1bd7799e622936a0e34933072590a40871ce2c534ef3fb45d42cb4a0385eb968ffd57cfc7fe15a11a56c88f6481636f6034892ac9c4ae64b490caa77a0b243137394e58a80308b9d4a47f7c6186dc2bb5619f108404e51a55f6e15cfd3b90100000000000000000000000000000000000000000000000000000000000000000000000000000000000000000000000000000000000000000000000000000000000000000000000000000000000000000000000000000000000000000000000000000000000000000000000000000000000000000000000000000000000000000000000000000000000000000000000000000000000000000000000000000000000000000000000000000000000000000000000000000000000000000000000000000000000000000000000000000000000000000000000000000000000000000000000000000000000000000000000000000000000000000000000000000000008302000001830f424082d6d88203e800a00000000000000000000000000000000000000000000000000000000000000000880000000000000000f864f862800a82d6d8800f97600a80600c6000396000fff2ffff600160008035811a811ca0bfb5d4e394a62b55b070725d499c8b2eb705f65ae5534010061f6b1c1769e20ba07b6b34ab267f080c18f8e6526b7780164c14c04677976b854da760abd49d1456c0",
                "blockHeader" : {
                    "bloom" : "0x00000000000000000000000000000000000000000000000000000000000000000000000000000000000000000000000000000000000000000000000000000000000000000000000000000000000000000000000000000000000000000000000000000000000000000000000000000000000000000000000000000000000000000000000000000000000000000000000000000000000000000000000000000000000000000000000000000000000000000000000000000000000000000000000000000000000000000000000000000000000000000000000000000000000000000000000000000000000000000000000000000000000000000000000000000000",
                    "coinbase" : "0x2adc25665018aa1fe0e6bc666dac8fc2697ff9ba",
                    "difficulty" : "0x020000",
                    "extraData" : "0x00",
                    "gasLimit" : "0x0f4240",
                    "gasUsed" : "0xd6d8",
                    "hash" : "0x2bc9c51f8e5500b00e43a00c8a84eb92e272b0df01c0f52a462b0567ff509404",
                    "mixHash" : "0x0000000000000000000000000000000000000000000000000000000000000000",
                    "nonce" : "0x0000000000000000",
                    "number" : "0x01",
                    "parentHash" : "0xc473f1f975da17cae6317f5f64f456b9022b30c0892301f6b8dbd17e61d5febc",
                    "receiptTrie" : "0xb243137394e58a80308b9d4a47f7c6186dc2bb5619f108404e51a55f6e15cfd3",
                    "stateRoot" : "0xd9f384dd9e1bd7799e622936a0e34933072590a40871ce2c534ef3fb45d42cb4",
                    "timestamp" : "0x03e8",
                    "transactionsTrie" : "0x385eb968ffd57cfc7fe15a11a56c88f6481636f6034892ac9c4ae64b490caa77",
                    "uncleHash" : "0x1dcc4de8dec75d7aab85b567b6ccd41ad312451b948a7413f0a142fd40d49347"
                },
                "transactions" : [
                    {
                        "data" : "0x600a80600c6000396000fff2ffff600160008035811a81",
                        "gasLimit" : "0xd6d8",
                        "gasPrice" : "0x0a",
                        "nonce" : "0x00",
                        "to" : "",
                        "value" : "0x0f",
                        "v" : "0x1c",
                        "r" : "0xbfb5d4e394a62b55b070725d499c8b2eb705f65ae5534010061f6b1c1769e20b",
                        "s" : "0x7b6b34ab267f080c18f8e6526b7780164c14c04677976b854da760abd49d1456"
                    }
                ],
                "uncleHeaders" : [
                ]
            }
        ]
    },
    "TransactionCreateAutoSuicideContract_d0g0v0_Istanbul" : {
        "_info" : {
            "comment" : "",
            "filling-rpc-server" : "evm version 1.10.4-unstable-966ee3ae-20210528",
            "filling-tool-version" : "retesteth-0.1.1-eip1559+commit.658fc3a8.Linux.g++",
            "lllcversion" : "Version: 0.5.14-develop.2021.5.18+commit.14c9d5de.mod.Linux.g++",
            "source" : "src/GeneralStateTestsFiller/stInitCodeTest/TransactionCreateAutoSuicideContractFiller.json",
            "sourceHash" : "b08cbb0c6af120babfb6779487a4fb3a0bfc7a8a6b8f6b0712be785c2dd98588"
        },
        "genesisBlockHeader" : {
            "bloom" : "0x00000000000000000000000000000000000000000000000000000000000000000000000000000000000000000000000000000000000000000000000000000000000000000000000000000000000000000000000000000000000000000000000000000000000000000000000000000000000000000000000000000000000000000000000000000000000000000000000000000000000000000000000000000000000000000000000000000000000000000000000000000000000000000000000000000000000000000000000000000000000000000000000000000000000000000000000000000000000000000000000000000000000000000000000000000000",
            "coinbase" : "0x2adc25665018aa1fe0e6bc666dac8fc2697ff9ba",
            "difficulty" : "0x020000",
            "extraData" : "0x00",
            "gasLimit" : "0x0f4240",
            "gasUsed" : "0x00",
            "hash" : "0xc473f1f975da17cae6317f5f64f456b9022b30c0892301f6b8dbd17e61d5febc",
            "mixHash" : "0x0000000000000000000000000000000000000000000000000000000000000000",
            "nonce" : "0x0000000000000000",
            "number" : "0x00",
            "parentHash" : "0x0000000000000000000000000000000000000000000000000000000000000000",
            "receiptTrie" : "0x56e81f171bcc55a6ff8345e692c0f86e5b48e01b996cadc001622fb5e363b421",
            "stateRoot" : "0x18c1342886baeaf926b3fbbfb0484bf0cd1ced43576547c11153d3c8944d5c47",
            "timestamp" : "0x00",
            "transactionsTrie" : "0x56e81f171bcc55a6ff8345e692c0f86e5b48e01b996cadc001622fb5e363b421",
            "uncleHash" : "0x1dcc4de8dec75d7aab85b567b6ccd41ad312451b948a7413f0a142fd40d49347"
        },
        "pre" : {
            "0xa94f5374fce5edbc8e2a8697c15331677e6ebf0b" : {
                "balance" : "0x0f4240",
                "code" : "0x",
                "nonce" : "0x00",
                "storage" : {
                }
            }
        },
        "postState" : {
            "0x2adc25665018aa1fe0e6bc666dac8fc2697ff9ba" : {
                "code" : "0x",
                "nonce" : "0x00",
                "balance" : "0x1bc16d674ed06470",
                "storage" : {
                }
            },
            "0xa94f5374fce5edbc8e2a8697c15331677e6ebf0b" : {
                "code" : "0x",
                "nonce" : "0x01",
                "balance" : "0x06ddd0",
                "storage" : {
                }
            }
        },
        "network" : "Istanbul",
        "sealEngine" : "NoProof",
        "lastblockhash" : "0x2bc9c51f8e5500b00e43a00c8a84eb92e272b0df01c0f52a462b0567ff509404",
        "genesisRLP" : "0xf901f8f901f3a00000000000000000000000000000000000000000000000000000000000000000a01dcc4de8dec75d7aab85b567b6ccd41ad312451b948a7413f0a142fd40d49347942adc25665018aa1fe0e6bc666dac8fc2697ff9baa018c1342886baeaf926b3fbbfb0484bf0cd1ced43576547c11153d3c8944d5c47a056e81f171bcc55a6ff8345e692c0f86e5b48e01b996cadc001622fb5e363b421a056e81f171bcc55a6ff8345e692c0f86e5b48e01b996cadc001622fb5e363b421b90100000000000000000000000000000000000000000000000000000000000000000000000000000000000000000000000000000000000000000000000000000000000000000000000000000000000000000000000000000000000000000000000000000000000000000000000000000000000000000000000000000000000000000000000000000000000000000000000000000000000000000000000000000000000000000000000000000000000000000000000000000000000000000000000000000000000000000000000000000000000000000000000000000000000000000000000000000000000000000000000000000000000000000000000000000000008302000080830f4240808000a00000000000000000000000000000000000000000000000000000000000000000880000000000000000c0c0",
        "blocks" : [
            {
                "rlp" : "0xf90261f901f7a0c473f1f975da17cae6317f5f64f456b9022b30c0892301f6b8dbd17e61d5febca01dcc4de8dec75d7aab85b567b6ccd41ad312451b948a7413f0a142fd40d49347942adc25665018aa1fe0e6bc666dac8fc2697ff9baa0d9f384dd9e1bd7799e622936a0e34933072590a40871ce2c534ef3fb45d42cb4a0385eb968ffd57cfc7fe15a11a56c88f6481636f6034892ac9c4ae64b490caa77a0b243137394e58a80308b9d4a47f7c6186dc2bb5619f108404e51a55f6e15cfd3b90100000000000000000000000000000000000000000000000000000000000000000000000000000000000000000000000000000000000000000000000000000000000000000000000000000000000000000000000000000000000000000000000000000000000000000000000000000000000000000000000000000000000000000000000000000000000000000000000000000000000000000000000000000000000000000000000000000000000000000000000000000000000000000000000000000000000000000000000000000000000000000000000000000000000000000000000000000000000000000000000000000000000000000000000000000000008302000001830f424082d6d88203e800a00000000000000000000000000000000000000000000000000000000000000000880000000000000000f864f862800a82d6d8800f97600a80600c6000396000fff2ffff600160008035811a811ca0bfb5d4e394a62b55b070725d499c8b2eb705f65ae5534010061f6b1c1769e20ba07b6b34ab267f080c18f8e6526b7780164c14c04677976b854da760abd49d1456c0",
                "blockHeader" : {
                    "bloom" : "0x00000000000000000000000000000000000000000000000000000000000000000000000000000000000000000000000000000000000000000000000000000000000000000000000000000000000000000000000000000000000000000000000000000000000000000000000000000000000000000000000000000000000000000000000000000000000000000000000000000000000000000000000000000000000000000000000000000000000000000000000000000000000000000000000000000000000000000000000000000000000000000000000000000000000000000000000000000000000000000000000000000000000000000000000000000000",
                    "coinbase" : "0x2adc25665018aa1fe0e6bc666dac8fc2697ff9ba",
                    "difficulty" : "0x020000",
                    "extraData" : "0x00",
                    "gasLimit" : "0x0f4240",
                    "gasUsed" : "0xd6d8",
                    "hash" : "0x2bc9c51f8e5500b00e43a00c8a84eb92e272b0df01c0f52a462b0567ff509404",
                    "mixHash" : "0x0000000000000000000000000000000000000000000000000000000000000000",
                    "nonce" : "0x0000000000000000",
                    "number" : "0x01",
                    "parentHash" : "0xc473f1f975da17cae6317f5f64f456b9022b30c0892301f6b8dbd17e61d5febc",
                    "receiptTrie" : "0xb243137394e58a80308b9d4a47f7c6186dc2bb5619f108404e51a55f6e15cfd3",
                    "stateRoot" : "0xd9f384dd9e1bd7799e622936a0e34933072590a40871ce2c534ef3fb45d42cb4",
                    "timestamp" : "0x03e8",
                    "transactionsTrie" : "0x385eb968ffd57cfc7fe15a11a56c88f6481636f6034892ac9c4ae64b490caa77",
                    "uncleHash" : "0x1dcc4de8dec75d7aab85b567b6ccd41ad312451b948a7413f0a142fd40d49347"
                },
                "transactions" : [
                    {
                        "data" : "0x600a80600c6000396000fff2ffff600160008035811a81",
                        "gasLimit" : "0xd6d8",
                        "gasPrice" : "0x0a",
                        "nonce" : "0x00",
                        "to" : "",
                        "value" : "0x0f",
                        "v" : "0x1c",
                        "r" : "0xbfb5d4e394a62b55b070725d499c8b2eb705f65ae5534010061f6b1c1769e20b",
                        "s" : "0x7b6b34ab267f080c18f8e6526b7780164c14c04677976b854da760abd49d1456"
                    }
                ],
                "uncleHeaders" : [
                ]
            }
        ]
    },
    "TransactionCreateAutoSuicideContract_d0g0v0_London" : {
        "_info" : {
            "comment" : "",
            "filling-rpc-server" : "evm version 1.10.4-unstable-966ee3ae-20210528",
            "filling-tool-version" : "retesteth-0.1.1-eip1559+commit.658fc3a8.Linux.g++",
            "lllcversion" : "Version: 0.5.14-develop.2021.5.18+commit.14c9d5de.mod.Linux.g++",
            "source" : "src/GeneralStateTestsFiller/stInitCodeTest/TransactionCreateAutoSuicideContractFiller.json",
            "sourceHash" : "b08cbb0c6af120babfb6779487a4fb3a0bfc7a8a6b8f6b0712be785c2dd98588"
        },
        "genesisBlockHeader" : {
            "bloom" : "0x00000000000000000000000000000000000000000000000000000000000000000000000000000000000000000000000000000000000000000000000000000000000000000000000000000000000000000000000000000000000000000000000000000000000000000000000000000000000000000000000000000000000000000000000000000000000000000000000000000000000000000000000000000000000000000000000000000000000000000000000000000000000000000000000000000000000000000000000000000000000000000000000000000000000000000000000000000000000000000000000000000000000000000000000000000000",
            "coinbase" : "0x2adc25665018aa1fe0e6bc666dac8fc2697ff9ba",
            "difficulty" : "0x020000",
            "extraData" : "0x00",
            "gasLimit" : "0x0f4240",
            "gasUsed" : "0x00",
            "hash" : "0xb96a4f72a284bd185c2b0846361468fb6ac0a63f8d16ea15fd30d442835c39da",
            "mixHash" : "0x0000000000000000000000000000000000000000000000000000000000000000",
            "nonce" : "0x0000000000000000",
            "number" : "0x00",
            "parentHash" : "0x0000000000000000000000000000000000000000000000000000000000000000",
            "receiptTrie" : "0x56e81f171bcc55a6ff8345e692c0f86e5b48e01b996cadc001622fb5e363b421",
            "stateRoot" : "0x18c1342886baeaf926b3fbbfb0484bf0cd1ced43576547c11153d3c8944d5c47",
            "timestamp" : "0x00",
            "transactionsTrie" : "0x56e81f171bcc55a6ff8345e692c0f86e5b48e01b996cadc001622fb5e363b421",
            "uncleHash" : "0x1dcc4de8dec75d7aab85b567b6ccd41ad312451b948a7413f0a142fd40d49347",
            "baseFee" : "0x0b"
        },
        "pre" : {
            "0xa94f5374fce5edbc8e2a8697c15331677e6ebf0b" : {
                "balance" : "0x0f4240",
                "code" : "0x",
                "nonce" : "0x00",
                "storage" : {
                }
            }
        },
        "postState" : {
            "0x2adc25665018aa1fe0e6bc666dac8fc2697ff9ba" : {
                "code" : "0x",
                "nonce" : "0x00",
                "balance" : "0x1bc16d674ec80000",
                "storage" : {
                }
            },
            "0xa94f5374fce5edbc8e2a8697c15331677e6ebf0b" : {
                "code" : "0x",
                "nonce" : "0x01",
                "balance" : "0x06ddd0",
                "storage" : {
                }
            }
        },
        "network" : "London",
        "sealEngine" : "NoProof",
        "lastblockhash" : "0xdc36d30ac60696595e2023e33deb2d11dd928b0844a33c0c072b9a4fe15c1280",
        "genesisRLP" : "0xf901f9f901f4a00000000000000000000000000000000000000000000000000000000000000000a01dcc4de8dec75d7aab85b567b6ccd41ad312451b948a7413f0a142fd40d49347942adc25665018aa1fe0e6bc666dac8fc2697ff9baa018c1342886baeaf926b3fbbfb0484bf0cd1ced43576547c11153d3c8944d5c47a056e81f171bcc55a6ff8345e692c0f86e5b48e01b996cadc001622fb5e363b421a056e81f171bcc55a6ff8345e692c0f86e5b48e01b996cadc001622fb5e363b421b90100000000000000000000000000000000000000000000000000000000000000000000000000000000000000000000000000000000000000000000000000000000000000000000000000000000000000000000000000000000000000000000000000000000000000000000000000000000000000000000000000000000000000000000000000000000000000000000000000000000000000000000000000000000000000000000000000000000000000000000000000000000000000000000000000000000000000000000000000000000000000000000000000000000000000000000000000000000000000000000000000000000000000000000000000000000008302000080830f4240808000a000000000000000000000000000000000000000000000000000000000000000008800000000000000000bc0c0",
        "blocks" : [
            {
                "rlp" : "0xf90262f901f8a0b96a4f72a284bd185c2b0846361468fb6ac0a63f8d16ea15fd30d442835c39daa01dcc4de8dec75d7aab85b567b6ccd41ad312451b948a7413f0a142fd40d49347942adc25665018aa1fe0e6bc666dac8fc2697ff9baa085359703a96443b44bc6d71d908bf6249ced3b8ca6abd388a9a7900e21646fb2a0385eb968ffd57cfc7fe15a11a56c88f6481636f6034892ac9c4ae64b490caa77a0b243137394e58a80308b9d4a47f7c6186dc2bb5619f108404e51a55f6e15cfd3b90100000000000000000000000000000000000000000000000000000000000000000000000000000000000000000000000000000000000000000000000000000000000000000000000000000000000000000000000000000000000000000000000000000000000000000000000000000000000000000000000000000000000000000000000000000000000000000000000000000000000000000000000000000000000000000000000000000000000000000000000000000000000000000000000000000000000000000000000000000000000000000000000000000000000000000000000000000000000000000000000000000000000000000000000000000000008302000001830f424082d6d88203e800a000000000000000000000000000000000000000000000000000000000000000008800000000000000000af864f862800a82d6d8800f97600a80600c6000396000fff2ffff600160008035811a811ca0bfb5d4e394a62b55b070725d499c8b2eb705f65ae5534010061f6b1c1769e20ba07b6b34ab267f080c18f8e6526b7780164c14c04677976b854da760abd49d1456c0",
                "blockHeader" : {
                    "bloom" : "0x00000000000000000000000000000000000000000000000000000000000000000000000000000000000000000000000000000000000000000000000000000000000000000000000000000000000000000000000000000000000000000000000000000000000000000000000000000000000000000000000000000000000000000000000000000000000000000000000000000000000000000000000000000000000000000000000000000000000000000000000000000000000000000000000000000000000000000000000000000000000000000000000000000000000000000000000000000000000000000000000000000000000000000000000000000000",
                    "coinbase" : "0x2adc25665018aa1fe0e6bc666dac8fc2697ff9ba",
                    "difficulty" : "0x020000",
                    "extraData" : "0x00",
                    "gasLimit" : "0x0f4240",
                    "gasUsed" : "0xd6d8",
                    "hash" : "0xdc36d30ac60696595e2023e33deb2d11dd928b0844a33c0c072b9a4fe15c1280",
                    "mixHash" : "0x0000000000000000000000000000000000000000000000000000000000000000",
                    "nonce" : "0x0000000000000000",
                    "number" : "0x01",
                    "parentHash" : "0xb96a4f72a284bd185c2b0846361468fb6ac0a63f8d16ea15fd30d442835c39da",
                    "receiptTrie" : "0xb243137394e58a80308b9d4a47f7c6186dc2bb5619f108404e51a55f6e15cfd3",
                    "stateRoot" : "0x85359703a96443b44bc6d71d908bf6249ced3b8ca6abd388a9a7900e21646fb2",
                    "timestamp" : "0x03e8",
                    "transactionsTrie" : "0x385eb968ffd57cfc7fe15a11a56c88f6481636f6034892ac9c4ae64b490caa77",
                    "uncleHash" : "0x1dcc4de8dec75d7aab85b567b6ccd41ad312451b948a7413f0a142fd40d49347",
                    "baseFee" : "0x0a"
                },
                "transactions" : [
                    {
                        "data" : "0x600a80600c6000396000fff2ffff600160008035811a81",
                        "gasLimit" : "0xd6d8",
                        "gasPrice" : "0x0a",
                        "nonce" : "0x00",
                        "to" : "",
                        "value" : "0x0f",
                        "v" : "0x1c",
                        "r" : "0xbfb5d4e394a62b55b070725d499c8b2eb705f65ae5534010061f6b1c1769e20b",
                        "s" : "0x7b6b34ab267f080c18f8e6526b7780164c14c04677976b854da760abd49d1456"
                    }
                ],
                "uncleHeaders" : [
                ]
            }
        ]
    }
}