{
    "CallRecursiveBombPreCall_d0g0v0_Berlin" : {
        "_info" : {
            "comment" : "recursive call",
            "filling-rpc-server" : "evm version 1.10.4-unstable-966ee3ae-20210528",
            "filling-tool-version" : "retesteth-0.1.1-eip1559+commit.658fc3a8.Linux.g++",
            "lllcversion" : "Version: 0.5.14-develop.2021.5.18+commit.14c9d5de.mod.Linux.g++",
            "source" : "src/GeneralStateTestsFiller/stCallCreateCallCodeTest/CallRecursiveBombPreCallFiller.json",
            "sourceHash" : "b0921d57ae11e8a25b89c41cfeb3c580ba485b7ba2dec7fdea3de66bf47fd15e"
        },
        "genesisBlockHeader" : {
            "bloom" : "0x00000000000000000000000000000000000000000000000000000000000000000000000000000000000000000000000000000000000000000000000000000000000000000000000000000000000000000000000000000000000000000000000000000000000000000000000000000000000000000000000000000000000000000000000000000000000000000000000000000000000000000000000000000000000000000000000000000000000000000000000000000000000000000000000000000000000000000000000000000000000000000000000000000000000000000000000000000000000000000000000000000000000000000000000000000000",
            "coinbase" : "0x2adc25665018aa1fe0e6bc666dac8fc2697ff9ba",
            "difficulty" : "0x020000",
            "extraData" : "0x00",
            "gasLimit" : "0x7fffffffffffffff",
            "gasUsed" : "0x00",
            "hash" : "0x49385c2b487dc828cc7c507de6532cbe8b01685777f9441b2cf343eed478f796",
            "mixHash" : "0x0000000000000000000000000000000000000000000000000000000000000000",
            "nonce" : "0x0000000000000000",
            "number" : "0x00",
            "parentHash" : "0x0000000000000000000000000000000000000000000000000000000000000000",
            "receiptTrie" : "0x56e81f171bcc55a6ff8345e692c0f86e5b48e01b996cadc001622fb5e363b421",
            "stateRoot" : "0xb2286718e6652fcd4f8d9918fa5e204f21076977f9f08303a0b84f78a1999bf3",
            "timestamp" : "0x00",
            "transactionsTrie" : "0x56e81f171bcc55a6ff8345e692c0f86e5b48e01b996cadc001622fb5e363b421",
            "uncleHash" : "0x1dcc4de8dec75d7aab85b567b6ccd41ad312451b948a7413f0a142fd40d49347"
        },
        "pre" : {
            "0x095e7baea6a6c7c4c2dfeb977efac326af552d87" : {
                "balance" : "0x0fffffffffffffffffffffffffffffff",
                "code" : "0x6000600060006000601773bad304eb96065b2a98b57a48a06ae28d285a71b5620186a0f1506000600060006000601773945304eb96065b2a98b57a48a06ae28d285a71b56707fffffffffffffff100",
                "nonce" : "0x00",
                "storage" : {
                }
            },
            "0x945304eb96065b2a98b57a48a06ae28d285a71b5" : {
                "balance" : "0x0de0b6b3a7640000",
                "code" : "0x600160005401600055600060006000600060003062036b005a03f160015500",
                "nonce" : "0x00",
                "storage" : {
                }
            },
            "0xa94f5374fce5edbc8e2a8697c15331677e6ebf0b" : {
                "balance" : "0x0fffffffffffffffffffffffffffffff",
                "code" : "0x",
                "nonce" : "0x00",
                "storage" : {
                }
            }
        },
        "postState" : {
            "0x095e7baea6a6c7c4c2dfeb977efac326af552d87" : {
                "code" : "0x6000600060006000601773bad304eb96065b2a98b57a48a06ae28d285a71b5620186a0f1506000600060006000601773945304eb96065b2a98b57a48a06ae28d285a71b56707fffffffffffffff100",
                "nonce" : "0x00",
                "balance" : "0x0fffffffffffffffffffffffffffffd1",
                "storage" : {
                }
            },
            "0x2adc25665018aa1fe0e6bc666dac8fc2697ff9ba" : {
                "code" : "0x",
                "nonce" : "0x00",
                "balance" : "0x1bc16d674f1d5000",
                "storage" : {
                }
            },
            "0x945304eb96065b2a98b57a48a06ae28d285a71b5" : {
                "code" : "0x600160005401600055600060006000600060003062036b005a03f160015500",
                "nonce" : "0x00",
                "balance" : "0x0de0b6b3a7640017",
                "storage" : {
                    "0x00" : "0x0400",
                    "0x01" : "0x01"
                }
            },
            "0xa94f5374fce5edbc8e2a8697c15331677e6ebf0b" : {
                "code" : "0x",
                "nonce" : "0x01",
                "balance" : "0x0fffffffffffffffffffffffffaaafff",
                "storage" : {
                }
            },
            "0xbad304eb96065b2a98b57a48a06ae28d285a71b5" : {
                "code" : "0x",
                "nonce" : "0x00",
                "balance" : "0x17",
                "storage" : {
                }
            }
        },
        "network" : "Berlin",
        "sealEngine" : "NoProof",
        "lastblockhash" : "0x98d814a5c379e3e500e6a14278dedd47c308944bcfcf9b0cd4724f63f0601938",
        "genesisRLP" : "0xf901fdf901f8a00000000000000000000000000000000000000000000000000000000000000000a01dcc4de8dec75d7aab85b567b6ccd41ad312451b948a7413f0a142fd40d49347942adc25665018aa1fe0e6bc666dac8fc2697ff9baa0b2286718e6652fcd4f8d9918fa5e204f21076977f9f08303a0b84f78a1999bf3a056e81f171bcc55a6ff8345e692c0f86e5b48e01b996cadc001622fb5e363b421a056e81f171bcc55a6ff8345e692c0f86e5b48e01b996cadc001622fb5e363b421b90100000000000000000000000000000000000000000000000000000000000000000000000000000000000000000000000000000000000000000000000000000000000000000000000000000000000000000000000000000000000000000000000000000000000000000000000000000000000000000000000000000000000000000000000000000000000000000000000000000000000000000000000000000000000000000000000000000000000000000000000000000000000000000000000000000000000000000000000000000000000000000000000000000000000000000000000000000000000000000000000000000000000000000000000000000000008302000080887fffffffffffffff808000a00000000000000000000000000000000000000000000000000000000000000000880000000000000000c0c0",
        "blocks" : [
            {
                "rlp" : "0xf9026af901fda049385c2b487dc828cc7c507de6532cbe8b01685777f9441b2cf343eed478f796a01dcc4de8dec75d7aab85b567b6ccd41ad312451b948a7413f0a142fd40d49347942adc25665018aa1fe0e6bc666dac8fc2697ff9baa0f68e5a6c4dd3a4474e40a8c87862b442cce63848c3e0ea11b9350e75ebb62887a0772860cdd20b2eff1b9559aedab1ed6de8fba86908e6fc7272cfda7955710424a06c9590430347d19612d2fca0928b9462d737d16d5f4da9b1aac50ab3de19eae4b90100000000000000000000000000000000000000000000000000000000000000000000000000000000000000000000000000000000000000000000000000000000000000000000000000000000000000000000000000000000000000000000000000000000000000000000000000000000000000000000000000000000000000000000000000000000000000000000000000000000000000000000000000000000000000000000000000000000000000000000000000000000000000000000000000000000000000000000000000000000000000000000000000000000000000000000000000000000000000000000000000000000000000000000000000000000008302000001887fffffffffffffff830888008203e800a00000000000000000000000000000000000000000000000000000000000000000880000000000000000f867f865800a887fe000000000000194095e7baea6a6c7c4c2dfeb977efac326af552d8780801ca0364f82f35c1de49c8240f79a50728a2c6205b7b7fc8e479276023b5e2c759ff6a07cf0e565dd02a05bf2a5aafd5b9bd1089de60d06e54c46c1b8d8169dcc513b60c0",
                "blockHeader" : {
                    "bloom" : "0x00000000000000000000000000000000000000000000000000000000000000000000000000000000000000000000000000000000000000000000000000000000000000000000000000000000000000000000000000000000000000000000000000000000000000000000000000000000000000000000000000000000000000000000000000000000000000000000000000000000000000000000000000000000000000000000000000000000000000000000000000000000000000000000000000000000000000000000000000000000000000000000000000000000000000000000000000000000000000000000000000000000000000000000000000000000",
                    "coinbase" : "0x2adc25665018aa1fe0e6bc666dac8fc2697ff9ba",
                    "difficulty" : "0x020000",
                    "extraData" : "0x00",
                    "gasLimit" : "0x7fffffffffffffff",
                    "gasUsed" : "0x088800",
                    "hash" : "0x98d814a5c379e3e500e6a14278dedd47c308944bcfcf9b0cd4724f63f0601938",
                    "mixHash" : "0x0000000000000000000000000000000000000000000000000000000000000000",
                    "nonce" : "0x0000000000000000",
                    "number" : "0x01",
                    "parentHash" : "0x49385c2b487dc828cc7c507de6532cbe8b01685777f9441b2cf343eed478f796",
                    "receiptTrie" : "0x6c9590430347d19612d2fca0928b9462d737d16d5f4da9b1aac50ab3de19eae4",
                    "stateRoot" : "0xf68e5a6c4dd3a4474e40a8c87862b442cce63848c3e0ea11b9350e75ebb62887",
                    "timestamp" : "0x03e8",
                    "transactionsTrie" : "0x772860cdd20b2eff1b9559aedab1ed6de8fba86908e6fc7272cfda7955710424",
                    "uncleHash" : "0x1dcc4de8dec75d7aab85b567b6ccd41ad312451b948a7413f0a142fd40d49347"
                },
                "transactions" : [
                    {
                        "data" : "0x",
                        "gasLimit" : "0x7fe0000000000001",
                        "gasPrice" : "0x0a",
                        "nonce" : "0x00",
                        "to" : "0x095e7baea6a6c7c4c2dfeb977efac326af552d87",
                        "value" : "0x00",
                        "v" : "0x1c",
                        "r" : "0x364f82f35c1de49c8240f79a50728a2c6205b7b7fc8e479276023b5e2c759ff6",
                        "s" : "0x7cf0e565dd02a05bf2a5aafd5b9bd1089de60d06e54c46c1b8d8169dcc513b60"
                    }
                ],
                "uncleHeaders" : [
                ]
            }
        ]
    },
    "CallRecursiveBombPreCall_d0g0v0_Istanbul" : {
        "_info" : {
            "comment" : "recursive call",
            "filling-rpc-server" : "evm version 1.10.4-unstable-966ee3ae-20210528",
            "filling-tool-version" : "retesteth-0.1.1-eip1559+commit.658fc3a8.Linux.g++",
            "lllcversion" : "Version: 0.5.14-develop.2021.5.18+commit.14c9d5de.mod.Linux.g++",
            "source" : "src/GeneralStateTestsFiller/stCallCreateCallCodeTest/CallRecursiveBombPreCallFiller.json",
            "sourceHash" : "b0921d57ae11e8a25b89c41cfeb3c580ba485b7ba2dec7fdea3de66bf47fd15e"
        },
        "genesisBlockHeader" : {
            "bloom" : "0x00000000000000000000000000000000000000000000000000000000000000000000000000000000000000000000000000000000000000000000000000000000000000000000000000000000000000000000000000000000000000000000000000000000000000000000000000000000000000000000000000000000000000000000000000000000000000000000000000000000000000000000000000000000000000000000000000000000000000000000000000000000000000000000000000000000000000000000000000000000000000000000000000000000000000000000000000000000000000000000000000000000000000000000000000000000",
            "coinbase" : "0x2adc25665018aa1fe0e6bc666dac8fc2697ff9ba",
            "difficulty" : "0x020000",
            "extraData" : "0x00",
            "gasLimit" : "0x7fffffffffffffff",
            "gasUsed" : "0x00",
            "hash" : "0x49385c2b487dc828cc7c507de6532cbe8b01685777f9441b2cf343eed478f796",
            "mixHash" : "0x0000000000000000000000000000000000000000000000000000000000000000",
            "nonce" : "0x0000000000000000",
            "number" : "0x00",
            "parentHash" : "0x0000000000000000000000000000000000000000000000000000000000000000",
            "receiptTrie" : "0x56e81f171bcc55a6ff8345e692c0f86e5b48e01b996cadc001622fb5e363b421",
            "stateRoot" : "0xb2286718e6652fcd4f8d9918fa5e204f21076977f9f08303a0b84f78a1999bf3",
            "timestamp" : "0x00",
            "transactionsTrie" : "0x56e81f171bcc55a6ff8345e692c0f86e5b48e01b996cadc001622fb5e363b421",
            "uncleHash" : "0x1dcc4de8dec75d7aab85b567b6ccd41ad312451b948a7413f0a142fd40d49347"
        },
        "pre" : {
            "0x095e7baea6a6c7c4c2dfeb977efac326af552d87" : {
                "balance" : "0x0fffffffffffffffffffffffffffffff",
                "code" : "0x6000600060006000601773bad304eb96065b2a98b57a48a06ae28d285a71b5620186a0f1506000600060006000601773945304eb96065b2a98b57a48a06ae28d285a71b56707fffffffffffffff100",
                "nonce" : "0x00",
                "storage" : {
                }
            },
            "0x945304eb96065b2a98b57a48a06ae28d285a71b5" : {
                "balance" : "0x0de0b6b3a7640000",
                "code" : "0x600160005401600055600060006000600060003062036b005a03f160015500",
                "nonce" : "0x00",
                "storage" : {
                }
            },
            "0xa94f5374fce5edbc8e2a8697c15331677e6ebf0b" : {
                "balance" : "0x0fffffffffffffffffffffffffffffff",
                "code" : "0x",
                "nonce" : "0x00",
                "storage" : {
                }
            }
        },
        "postState" : {
            "0x095e7baea6a6c7c4c2dfeb977efac326af552d87" : {
                "code" : "0x6000600060006000601773bad304eb96065b2a98b57a48a06ae28d285a71b5620186a0f1506000600060006000601773945304eb96065b2a98b57a48a06ae28d285a71b56707fffffffffffffff100",
                "nonce" : "0x00",
                "balance" : "0x0fffffffffffffffffffffffffffffd1",
                "storage" : {
                }
            },
            "0x2adc25665018aa1fe0e6bc666dac8fc2697ff9ba" : {
                "code" : "0x",
                "nonce" : "0x00",
                "balance" : "0x1bc16d6750c1c4b8",
                "storage" : {
                }
            },
            "0x945304eb96065b2a98b57a48a06ae28d285a71b5" : {
                "code" : "0x600160005401600055600060006000600060003062036b005a03f160015500",
                "nonce" : "0x00",
                "balance" : "0x0de0b6b3a7640017",
                "storage" : {
                    "0x00" : "0x0400",
                    "0x01" : "0x01"
                }
            },
            "0xa94f5374fce5edbc8e2a8697c15331677e6ebf0b" : {
                "code" : "0x",
                "nonce" : "0x01",
                "balance" : "0x0ffffffffffffffffffffffffe063b47",
                "storage" : {
                }
            },
            "0xbad304eb96065b2a98b57a48a06ae28d285a71b5" : {
                "code" : "0x",
                "nonce" : "0x00",
                "balance" : "0x17",
                "storage" : {
                }
            }
        },
        "network" : "Istanbul",
        "sealEngine" : "NoProof",
        "lastblockhash" : "0x88fc5dab653fc9833a394717748c73798e3e7e4d37759f5e90962b68d1475b42",
        "genesisRLP" : "0xf901fdf901f8a00000000000000000000000000000000000000000000000000000000000000000a01dcc4de8dec75d7aab85b567b6ccd41ad312451b948a7413f0a142fd40d49347942adc25665018aa1fe0e6bc666dac8fc2697ff9baa0b2286718e6652fcd4f8d9918fa5e204f21076977f9f08303a0b84f78a1999bf3a056e81f171bcc55a6ff8345e692c0f86e5b48e01b996cadc001622fb5e363b421a056e81f171bcc55a6ff8345e692c0f86e5b48e01b996cadc001622fb5e363b421b90100000000000000000000000000000000000000000000000000000000000000000000000000000000000000000000000000000000000000000000000000000000000000000000000000000000000000000000000000000000000000000000000000000000000000000000000000000000000000000000000000000000000000000000000000000000000000000000000000000000000000000000000000000000000000000000000000000000000000000000000000000000000000000000000000000000000000000000000000000000000000000000000000000000000000000000000000000000000000000000000000000000000000000000000000000000008302000080887fffffffffffffff808000a00000000000000000000000000000000000000000000000000000000000000000880000000000000000c0c0",
        "blocks" : [
            {
                "rlp" : "0xf9026af901fda049385c2b487dc828cc7c507de6532cbe8b01685777f9441b2cf343eed478f796a01dcc4de8dec75d7aab85b567b6ccd41ad312451b948a7413f0a142fd40d49347942adc25665018aa1fe0e6bc666dac8fc2697ff9baa0207d697143d41984a352a22d08cefe0c1e583f6539dba23fc0a5f410ef583803a0772860cdd20b2eff1b9559aedab1ed6de8fba86908e6fc7272cfda7955710424a04c3cbe8094b72171c2b7b2b473f90a9b599055e98a2b252d9f8c998ef55a847db90100000000000000000000000000000000000000000000000000000000000000000000000000000000000000000000000000000000000000000000000000000000000000000000000000000000000000000000000000000000000000000000000000000000000000000000000000000000000000000000000000000000000000000000000000000000000000000000000000000000000000000000000000000000000000000000000000000000000000000000000000000000000000000000000000000000000000000000000000000000000000000000000000000000000000000000000000000000000000000000000000000000000000000000000000000000008302000001887fffffffffffffff833293ac8203e800a00000000000000000000000000000000000000000000000000000000000000000880000000000000000f867f865800a887fe000000000000194095e7baea6a6c7c4c2dfeb977efac326af552d8780801ca0364f82f35c1de49c8240f79a50728a2c6205b7b7fc8e479276023b5e2c759ff6a07cf0e565dd02a05bf2a5aafd5b9bd1089de60d06e54c46c1b8d8169dcc513b60c0",
                "blockHeader" : {
                    "bloom" : "0x00000000000000000000000000000000000000000000000000000000000000000000000000000000000000000000000000000000000000000000000000000000000000000000000000000000000000000000000000000000000000000000000000000000000000000000000000000000000000000000000000000000000000000000000000000000000000000000000000000000000000000000000000000000000000000000000000000000000000000000000000000000000000000000000000000000000000000000000000000000000000000000000000000000000000000000000000000000000000000000000000000000000000000000000000000000",
                    "coinbase" : "0x2adc25665018aa1fe0e6bc666dac8fc2697ff9ba",
                    "difficulty" : "0x020000",
                    "extraData" : "0x00",
                    "gasLimit" : "0x7fffffffffffffff",
                    "gasUsed" : "0x3293ac",
                    "hash" : "0x88fc5dab653fc9833a394717748c73798e3e7e4d37759f5e90962b68d1475b42",
                    "mixHash" : "0x0000000000000000000000000000000000000000000000000000000000000000",
                    "nonce" : "0x0000000000000000",
                    "number" : "0x01",
                    "parentHash" : "0x49385c2b487dc828cc7c507de6532cbe8b01685777f9441b2cf343eed478f796",
                    "receiptTrie" : "0x4c3cbe8094b72171c2b7b2b473f90a9b599055e98a2b252d9f8c998ef55a847d",
                    "stateRoot" : "0x207d697143d41984a352a22d08cefe0c1e583f6539dba23fc0a5f410ef583803",
                    "timestamp" : "0x03e8",
                    "transactionsTrie" : "0x772860cdd20b2eff1b9559aedab1ed6de8fba86908e6fc7272cfda7955710424",
                    "uncleHash" : "0x1dcc4de8dec75d7aab85b567b6ccd41ad312451b948a7413f0a142fd40d49347"
                },
                "transactions" : [
                    {
                        "data" : "0x",
                        "gasLimit" : "0x7fe0000000000001",
                        "gasPrice" : "0x0a",
                        "nonce" : "0x00",
                        "to" : "0x095e7baea6a6c7c4c2dfeb977efac326af552d87",
                        "value" : "0x00",
                        "v" : "0x1c",
                        "r" : "0x364f82f35c1de49c8240f79a50728a2c6205b7b7fc8e479276023b5e2c759ff6",
                        "s" : "0x7cf0e565dd02a05bf2a5aafd5b9bd1089de60d06e54c46c1b8d8169dcc513b60"
                    }
                ],
                "uncleHeaders" : [
                ]
            }
        ]
    },
    "CallRecursiveBombPreCall_d0g0v0_London" : {
        "_info" : {
            "comment" : "recursive call",
            "filling-rpc-server" : "evm version 1.10.4-unstable-966ee3ae-20210528",
            "filling-tool-version" : "retesteth-0.1.1-eip1559+commit.658fc3a8.Linux.g++",
            "lllcversion" : "Version: 0.5.14-develop.2021.5.18+commit.14c9d5de.mod.Linux.g++",
            "source" : "src/GeneralStateTestsFiller/stCallCreateCallCodeTest/CallRecursiveBombPreCallFiller.json",
            "sourceHash" : "b0921d57ae11e8a25b89c41cfeb3c580ba485b7ba2dec7fdea3de66bf47fd15e"
        },
        "genesisBlockHeader" : {
            "bloom" : "0x00000000000000000000000000000000000000000000000000000000000000000000000000000000000000000000000000000000000000000000000000000000000000000000000000000000000000000000000000000000000000000000000000000000000000000000000000000000000000000000000000000000000000000000000000000000000000000000000000000000000000000000000000000000000000000000000000000000000000000000000000000000000000000000000000000000000000000000000000000000000000000000000000000000000000000000000000000000000000000000000000000000000000000000000000000000",
            "coinbase" : "0x2adc25665018aa1fe0e6bc666dac8fc2697ff9ba",
            "difficulty" : "0x020000",
            "extraData" : "0x00",
            "gasLimit" : "0x7fffffffffffffff",
            "gasUsed" : "0x00",
            "hash" : "0x5bbea00c77b1710e5e612310c935aafecaec346c0bfb5098c33f1bf3aaaee246",
            "mixHash" : "0x0000000000000000000000000000000000000000000000000000000000000000",
            "nonce" : "0x0000000000000000",
            "number" : "0x00",
            "parentHash" : "0x0000000000000000000000000000000000000000000000000000000000000000",
            "receiptTrie" : "0x56e81f171bcc55a6ff8345e692c0f86e5b48e01b996cadc001622fb5e363b421",
            "stateRoot" : "0xb2286718e6652fcd4f8d9918fa5e204f21076977f9f08303a0b84f78a1999bf3",
            "timestamp" : "0x00",
            "transactionsTrie" : "0x56e81f171bcc55a6ff8345e692c0f86e5b48e01b996cadc001622fb5e363b421",
            "uncleHash" : "0x1dcc4de8dec75d7aab85b567b6ccd41ad312451b948a7413f0a142fd40d49347",
            "baseFee" : "0x0b"
        },
        "pre" : {
            "0x095e7baea6a6c7c4c2dfeb977efac326af552d87" : {
                "balance" : "0x0fffffffffffffffffffffffffffffff",
                "code" : "0x6000600060006000601773bad304eb96065b2a98b57a48a06ae28d285a71b5620186a0f1506000600060006000601773945304eb96065b2a98b57a48a06ae28d285a71b56707fffffffffffffff100",
                "nonce" : "0x00",
                "storage" : {
                }
            },
            "0x945304eb96065b2a98b57a48a06ae28d285a71b5" : {
                "balance" : "0x0de0b6b3a7640000",
                "code" : "0x600160005401600055600060006000600060003062036b005a03f160015500",
                "nonce" : "0x00",
                "storage" : {
                }
            },
            "0xa94f5374fce5edbc8e2a8697c15331677e6ebf0b" : {
                "balance" : "0x0fffffffffffffffffffffffffffffff",
                "code" : "0x",
                "nonce" : "0x00",
                "storage" : {
                }
            }
        },
        "postState" : {
            "0x095e7baea6a6c7c4c2dfeb977efac326af552d87" : {
                "code" : "0x6000600060006000601773bad304eb96065b2a98b57a48a06ae28d285a71b5620186a0f1506000600060006000601773945304eb96065b2a98b57a48a06ae28d285a71b56707fffffffffffffff100",
                "nonce" : "0x00",
                "balance" : "0x0fffffffffffffffffffffffffffffd1",
                "storage" : {
                }
            },
            "0x2adc25665018aa1fe0e6bc666dac8fc2697ff9ba" : {
                "code" : "0x",
                "nonce" : "0x00",
                "balance" : "0x1bc16d674ec80000",
                "storage" : {
                }
            },
            "0x945304eb96065b2a98b57a48a06ae28d285a71b5" : {
                "code" : "0x600160005401600055600060006000600060003062036b005a03f160015500",
                "nonce" : "0x00",
                "balance" : "0x0de0b6b3a7640017",
                "storage" : {
                    "0x00" : "0x0400",
                    "0x01" : "0x01"
                }
            },
            "0xa94f5374fce5edbc8e2a8697c15331677e6ebf0b" : {
                "code" : "0x",
                "nonce" : "0x01",
                "balance" : "0x0fffffffffffffffffffffffffaaafff",
                "storage" : {
                }
            },
            "0xbad304eb96065b2a98b57a48a06ae28d285a71b5" : {
                "code" : "0x",
                "nonce" : "0x00",
                "balance" : "0x17",
                "storage" : {
                }
            }
        },
        "network" : "London",
        "sealEngine" : "NoProof",
        "lastblockhash" : "0x4c3cf6f4e871967092ba41a6dfe4f273cb3b4b6504c8dfb8f59eb2b320f72476",
        "genesisRLP" : "0xf901fef901f9a00000000000000000000000000000000000000000000000000000000000000000a01dcc4de8dec75d7aab85b567b6ccd41ad312451b948a7413f0a142fd40d49347942adc25665018aa1fe0e6bc666dac8fc2697ff9baa0b2286718e6652fcd4f8d9918fa5e204f21076977f9f08303a0b84f78a1999bf3a056e81f171bcc55a6ff8345e692c0f86e5b48e01b996cadc001622fb5e363b421a056e81f171bcc55a6ff8345e692c0f86e5b48e01b996cadc001622fb5e363b421b90100000000000000000000000000000000000000000000000000000000000000000000000000000000000000000000000000000000000000000000000000000000000000000000000000000000000000000000000000000000000000000000000000000000000000000000000000000000000000000000000000000000000000000000000000000000000000000000000000000000000000000000000000000000000000000000000000000000000000000000000000000000000000000000000000000000000000000000000000000000000000000000000000000000000000000000000000000000000000000000000000000000000000000000000000000000008302000080887fffffffffffffff808000a000000000000000000000000000000000000000000000000000000000000000008800000000000000000bc0c0",
        "blocks" : [
            {
                "rlp" : "0xf9026bf901fea05bbea00c77b1710e5e612310c935aafecaec346c0bfb5098c33f1bf3aaaee246a01dcc4de8dec75d7aab85b567b6ccd41ad312451b948a7413f0a142fd40d49347942adc25665018aa1fe0e6bc666dac8fc2697ff9baa0aae9d335d1c56a382db9cebe4ecc58f2cf0e87062ebd836f1b5b00300f59bef3a0772860cdd20b2eff1b9559aedab1ed6de8fba86908e6fc7272cfda7955710424a06c9590430347d19612d2fca0928b9462d737d16d5f4da9b1aac50ab3de19eae4b90100000000000000000000000000000000000000000000000000000000000000000000000000000000000000000000000000000000000000000000000000000000000000000000000000000000000000000000000000000000000000000000000000000000000000000000000000000000000000000000000000000000000000000000000000000000000000000000000000000000000000000000000000000000000000000000000000000000000000000000000000000000000000000000000000000000000000000000000000000000000000000000000000000000000000000000000000000000000000000000000000000000000000000000000000000000008302000001887fffffffffffffff830888008203e800a000000000000000000000000000000000000000000000000000000000000000008800000000000000000af867f865800a887fe000000000000194095e7baea6a6c7c4c2dfeb977efac326af552d8780801ca0364f82f35c1de49c8240f79a50728a2c6205b7b7fc8e479276023b5e2c759ff6a07cf0e565dd02a05bf2a5aafd5b9bd1089de60d06e54c46c1b8d8169dcc513b60c0",
                "blockHeader" : {
                    "bloom" : "0x00000000000000000000000000000000000000000000000000000000000000000000000000000000000000000000000000000000000000000000000000000000000000000000000000000000000000000000000000000000000000000000000000000000000000000000000000000000000000000000000000000000000000000000000000000000000000000000000000000000000000000000000000000000000000000000000000000000000000000000000000000000000000000000000000000000000000000000000000000000000000000000000000000000000000000000000000000000000000000000000000000000000000000000000000000000",
                    "coinbase" : "0x2adc25665018aa1fe0e6bc666dac8fc2697ff9ba",
                    "difficulty" : "0x020000",
                    "extraData" : "0x00",
                    "gasLimit" : "0x7fffffffffffffff",
                    "gasUsed" : "0x088800",
                    "hash" : "0x4c3cf6f4e871967092ba41a6dfe4f273cb3b4b6504c8dfb8f59eb2b320f72476",
                    "mixHash" : "0x0000000000000000000000000000000000000000000000000000000000000000",
                    "nonce" : "0x0000000000000000",
                    "number" : "0x01",
                    "parentHash" : "0x5bbea00c77b1710e5e612310c935aafecaec346c0bfb5098c33f1bf3aaaee246",
                    "receiptTrie" : "0x6c9590430347d19612d2fca0928b9462d737d16d5f4da9b1aac50ab3de19eae4",
                    "stateRoot" : "0xaae9d335d1c56a382db9cebe4ecc58f2cf0e87062ebd836f1b5b00300f59bef3",
                    "timestamp" : "0x03e8",
                    "transactionsTrie" : "0x772860cdd20b2eff1b9559aedab1ed6de8fba86908e6fc7272cfda7955710424",
                    "uncleHash" : "0x1dcc4de8dec75d7aab85b567b6ccd41ad312451b948a7413f0a142fd40d49347",
                    "baseFee" : "0x0a"
                },
                "transactions" : [
                    {
                        "data" : "0x",
                        "gasLimit" : "0x7fe0000000000001",
                        "gasPrice" : "0x0a",
                        "nonce" : "0x00",
                        "to" : "0x095e7baea6a6c7c4c2dfeb977efac326af552d87",
                        "value" : "0x00",
                        "v" : "0x1c",
                        "r" : "0x364f82f35c1de49c8240f79a50728a2c6205b7b7fc8e479276023b5e2c759ff6",
                        "s" : "0x7cf0e565dd02a05bf2a5aafd5b9bd1089de60d06e54c46c1b8d8169dcc513b60"
                    }
                ],
                "uncleHeaders" : [
                ]
            }
        ]
    }
}