{
    "callWithHighValueOOGinCall_d0g0v0_Berlin" : {
        "_info" : {
            "comment" : "call with value and oog happens inside",
            "filling-rpc-server" : "evm version 1.10.4-unstable-966ee3ae-20210528",
            "filling-tool-version" : "retesteth-0.1.1-eip1559+commit.658fc3a8.Linux.g++",
            "lllcversion" : "Version: 0.5.14-develop.2021.5.18+commit.14c9d5de.mod.Linux.g++",
            "source" : "src/GeneralStateTestsFiller/stCallCreateCallCodeTest/callWithHighValueOOGinCallFiller.json",
            "sourceHash" : "28a3ee43d5b9f371592564a67281970468548afe2a6ac7adce4659730945675b"
        },
        "genesisBlockHeader" : {
            "bloom" : "0x00000000000000000000000000000000000000000000000000000000000000000000000000000000000000000000000000000000000000000000000000000000000000000000000000000000000000000000000000000000000000000000000000000000000000000000000000000000000000000000000000000000000000000000000000000000000000000000000000000000000000000000000000000000000000000000000000000000000000000000000000000000000000000000000000000000000000000000000000000000000000000000000000000000000000000000000000000000000000000000000000000000000000000000000000000000",
            "coinbase" : "0x2adc25665018aa1fe0e6bc666dac8fc2697ff9ba",
            "difficulty" : "0x020000",
            "extraData" : "0x00",
            "gasLimit" : "0x01c9c380",
            "gasUsed" : "0x00",
            "hash" : "0xd7ee5e75efd92db2507fbbc22e819010e1d8966f562dfcc57116d2fe651100bd",
            "mixHash" : "0x0000000000000000000000000000000000000000000000000000000000000000",
            "nonce" : "0x0000000000000000",
            "number" : "0x00",
            "parentHash" : "0x0000000000000000000000000000000000000000000000000000000000000000",
            "receiptTrie" : "0x56e81f171bcc55a6ff8345e692c0f86e5b48e01b996cadc001622fb5e363b421",
            "stateRoot" : "0x59e802220bc9fa73d271891a6c99a885427b79805d6f6ba0d439a8f5028d5416",
            "timestamp" : "0x00",
            "transactionsTrie" : "0x56e81f171bcc55a6ff8345e692c0f86e5b48e01b996cadc001622fb5e363b421",
            "uncleHash" : "0x1dcc4de8dec75d7aab85b567b6ccd41ad312451b948a7413f0a142fd40d49347"
        },
        "pre" : {
            "0x095e7baea6a6c7c4c2dfeb977efac326af552d87" : {
                "balance" : "0x0de0b6b3a7640001",
                "code" : "0x60016000600060006000670de0b6b3a764000073945304eb96065b2a98b57a48a06ae28d285a71b5612710f10160005500",
                "nonce" : "0x00",
                "storage" : {
                }
            },
            "0x945304eb96065b2a98b57a48a06ae28d285a71b5" : {
                "balance" : "0x17",
                "code" : "0x6001600155603760005360026000f3",
                "nonce" : "0x00",
                "storage" : {
                }
            },
            "0xa94f5374fce5edbc8e2a8697c15331677e6ebf0b" : {
                "balance" : "0x0de0b6b3a7640000",
                "code" : "0x",
                "nonce" : "0x00",
                "storage" : {
                }
            }
        },
        "postState" : {
            "0x095e7baea6a6c7c4c2dfeb977efac326af552d87" : {
                "code" : "0x60016000600060006000670de0b6b3a764000073945304eb96065b2a98b57a48a06ae28d285a71b5612710f10160005500",
                "nonce" : "0x00",
                "balance" : "0x0de0b6b3a7640001",
                "storage" : {
                    "0x00" : "0x01"
                }
            },
            "0x2adc25665018aa1fe0e6bc666dac8fc2697ff9ba" : {
                "code" : "0x",
                "nonce" : "0x00",
                "balance" : "0x1bc16d674ed1e084",
                "storage" : {
                }
            },
            "0x945304eb96065b2a98b57a48a06ae28d285a71b5" : {
                "code" : "0x6001600155603760005360026000f3",
                "nonce" : "0x00",
                "balance" : "0x17",
                "storage" : {
                }
            },
            "0xa94f5374fce5edbc8e2a8697c15331677e6ebf0b" : {
                "code" : "0x",
                "nonce" : "0x01",
                "balance" : "0x0de0b6b3a75a1f7c",
                "storage" : {
                }
            }
        },
        "network" : "Berlin",
        "sealEngine" : "NoProof",
        "lastblockhash" : "0x827e29c5f4f7183c1fbb64ca084ca9aa703922e2ffac08469b0c24c6c8c660e2",
        "genesisRLP" : "0xf901f9f901f4a00000000000000000000000000000000000000000000000000000000000000000a01dcc4de8dec75d7aab85b567b6ccd41ad312451b948a7413f0a142fd40d49347942adc25665018aa1fe0e6bc666dac8fc2697ff9baa059e802220bc9fa73d271891a6c99a885427b79805d6f6ba0d439a8f5028d5416a056e81f171bcc55a6ff8345e692c0f86e5b48e01b996cadc001622fb5e363b421a056e81f171bcc55a6ff8345e692c0f86e5b48e01b996cadc001622fb5e363b421b901000000000000000000000000000000000000000000000000000000000000000000000000000000000000000000000000000000000000000000000000000000000000000000000000000000000000000000000000000000000000000000000000000000000000000000000000000000000000000000000000000000000000000000000000000000000000000000000000000000000000000000000000000000000000000000000000000000000000000000000000000000000000000000000000000000000000000000000000000000000000000000000000000000000000000000000000000000000000000000000000000000000000000000000000000000000083020000808401c9c380808000a00000000000000000000000000000000000000000000000000000000000000000880000000000000000c0c0",
        "blocks" : [
            {
                "rlp" : "0xf90260f901f8a0d7ee5e75efd92db2507fbbc22e819010e1d8966f562dfcc57116d2fe651100bda01dcc4de8dec75d7aab85b567b6ccd41ad312451b948a7413f0a142fd40d49347942adc25665018aa1fe0e6bc666dac8fc2697ff9baa06f6f41f3d0ec20715cfbe5a1abed6087e80ea5dc74bad3bcf14d2c8457a79c17a06434509a2d7d87f5d6f7dcccb6eb25db092f0ec3ab6a48c90d4eb2b5715fb57ba07feb906572456038e5864611345869a9e980e45b6c49820fd81ec3223c31ee9bb901000000000000000000000000000000000000000000000000000000000000000000000000000000000000000000000000000000000000000000000000000000000000000000000000000000000000000000000000000000000000000000000000000000000000000000000000000000000000000000000000000000000000000000000000000000000000000000000000000000000000000000000000000000000000000000000000000000000000000000000000000000000000000000000000000000000000000000000000000000000000000000000000000000000000000000000000000000000000000000000000000000000000000000000000000000000083020000018401c9c38082fcda8203e800a00000000000000000000000000000000000000000000000000000000000000000880000000000000000f862f860800a832dc6c094095e7baea6a6c7c4c2dfeb977efac326af552d8780801ca096fe0bdc8ea5e06836f0a4bdebad21024a56b36549e00aeae0d3d5e8c6f32302a021b8b5010ea4464453625562c4c0f0ec3039d1ed042db1e5cf02fb9e33d0b8d5c0",
                "blockHeader" : {
                    "bloom" : "0x00000000000000000000000000000000000000000000000000000000000000000000000000000000000000000000000000000000000000000000000000000000000000000000000000000000000000000000000000000000000000000000000000000000000000000000000000000000000000000000000000000000000000000000000000000000000000000000000000000000000000000000000000000000000000000000000000000000000000000000000000000000000000000000000000000000000000000000000000000000000000000000000000000000000000000000000000000000000000000000000000000000000000000000000000000000",
                    "coinbase" : "0x2adc25665018aa1fe0e6bc666dac8fc2697ff9ba",
                    "difficulty" : "0x020000",
                    "extraData" : "0x00",
                    "gasLimit" : "0x01c9c380",
                    "gasUsed" : "0xfcda",
                    "hash" : "0x827e29c5f4f7183c1fbb64ca084ca9aa703922e2ffac08469b0c24c6c8c660e2",
                    "mixHash" : "0x0000000000000000000000000000000000000000000000000000000000000000",
                    "nonce" : "0x0000000000000000",
                    "number" : "0x01",
                    "parentHash" : "0xd7ee5e75efd92db2507fbbc22e819010e1d8966f562dfcc57116d2fe651100bd",
                    "receiptTrie" : "0x7feb906572456038e5864611345869a9e980e45b6c49820fd81ec3223c31ee9b",
                    "stateRoot" : "0x6f6f41f3d0ec20715cfbe5a1abed6087e80ea5dc74bad3bcf14d2c8457a79c17",
                    "timestamp" : "0x03e8",
                    "transactionsTrie" : "0x6434509a2d7d87f5d6f7dcccb6eb25db092f0ec3ab6a48c90d4eb2b5715fb57b",
                    "uncleHash" : "0x1dcc4de8dec75d7aab85b567b6ccd41ad312451b948a7413f0a142fd40d49347"
                },
                "transactions" : [
                    {
                        "data" : "0x",
                        "gasLimit" : "0x2dc6c0",
                        "gasPrice" : "0x0a",
                        "nonce" : "0x00",
                        "to" : "0x095e7baea6a6c7c4c2dfeb977efac326af552d87",
                        "value" : "0x00",
                        "v" : "0x1c",
                        "r" : "0x96fe0bdc8ea5e06836f0a4bdebad21024a56b36549e00aeae0d3d5e8c6f32302",
                        "s" : "0x21b8b5010ea4464453625562c4c0f0ec3039d1ed042db1e5cf02fb9e33d0b8d5"
                    }
                ],
                "uncleHeaders" : [
                ]
            }
        ]
    },
    "callWithHighValueOOGinCall_d0g0v0_Istanbul" : {
        "_info" : {
            "comment" : "call with value and oog happens inside",
            "filling-rpc-server" : "evm version 1.10.4-unstable-966ee3ae-20210528",
            "filling-tool-version" : "retesteth-0.1.1-eip1559+commit.658fc3a8.Linux.g++",
            "lllcversion" : "Version: 0.5.14-develop.2021.5.18+commit.14c9d5de.mod.Linux.g++",
            "source" : "src/GeneralStateTestsFiller/stCallCreateCallCodeTest/callWithHighValueOOGinCallFiller.json",
            "sourceHash" : "28a3ee43d5b9f371592564a67281970468548afe2a6ac7adce4659730945675b"
        },
        "genesisBlockHeader" : {
            "bloom" : "0x00000000000000000000000000000000000000000000000000000000000000000000000000000000000000000000000000000000000000000000000000000000000000000000000000000000000000000000000000000000000000000000000000000000000000000000000000000000000000000000000000000000000000000000000000000000000000000000000000000000000000000000000000000000000000000000000000000000000000000000000000000000000000000000000000000000000000000000000000000000000000000000000000000000000000000000000000000000000000000000000000000000000000000000000000000000",
            "coinbase" : "0x2adc25665018aa1fe0e6bc666dac8fc2697ff9ba",
            "difficulty" : "0x020000",
            "extraData" : "0x00",
            "gasLimit" : "0x01c9c380",
            "gasUsed" : "0x00",
            "hash" : "0xd7ee5e75efd92db2507fbbc22e819010e1d8966f562dfcc57116d2fe651100bd",
            "mixHash" : "0x0000000000000000000000000000000000000000000000000000000000000000",
            "nonce" : "0x0000000000000000",
            "number" : "0x00",
            "parentHash" : "0x0000000000000000000000000000000000000000000000000000000000000000",
            "receiptTrie" : "0x56e81f171bcc55a6ff8345e692c0f86e5b48e01b996cadc001622fb5e363b421",
            "stateRoot" : "0x59e802220bc9fa73d271891a6c99a885427b79805d6f6ba0d439a8f5028d5416",
            "timestamp" : "0x00",
            "transactionsTrie" : "0x56e81f171bcc55a6ff8345e692c0f86e5b48e01b996cadc001622fb5e363b421",
            "uncleHash" : "0x1dcc4de8dec75d7aab85b567b6ccd41ad312451b948a7413f0a142fd40d49347"
        },
        "pre" : {
            "0x095e7baea6a6c7c4c2dfeb977efac326af552d87" : {
                "balance" : "0x0de0b6b3a7640001",
                "code" : "0x60016000600060006000670de0b6b3a764000073945304eb96065b2a98b57a48a06ae28d285a71b5612710f10160005500",
                "nonce" : "0x00",
                "storage" : {
                }
            },
            "0x945304eb96065b2a98b57a48a06ae28d285a71b5" : {
                "balance" : "0x17",
                "code" : "0x6001600155603760005360026000f3",
                "nonce" : "0x00",
                "storage" : {
                }
            },
            "0xa94f5374fce5edbc8e2a8697c15331677e6ebf0b" : {
                "balance" : "0x0de0b6b3a7640000",
                "code" : "0x",
                "nonce" : "0x00",
                "storage" : {
                }
            }
        },
        "postState" : {
            "0x095e7baea6a6c7c4c2dfeb977efac326af552d87" : {
                "code" : "0x60016000600060006000670de0b6b3a764000073945304eb96065b2a98b57a48a06ae28d285a71b5612710f10160005500",
                "nonce" : "0x00",
                "balance" : "0x0de0b6b3a7640001",
                "storage" : {
                    "0x00" : "0x01"
                }
            },
            "0x2adc25665018aa1fe0e6bc666dac8fc2697ff9ba" : {
                "code" : "0x",
                "nonce" : "0x00",
                "balance" : "0x1bc16d674ed14444",
                "storage" : {
                }
            },
            "0x945304eb96065b2a98b57a48a06ae28d285a71b5" : {
                "code" : "0x6001600155603760005360026000f3",
                "nonce" : "0x00",
                "balance" : "0x17",
                "storage" : {
                }
            },
            "0xa94f5374fce5edbc8e2a8697c15331677e6ebf0b" : {
                "code" : "0x",
                "nonce" : "0x01",
                "balance" : "0x0de0b6b3a75abbbc",
                "storage" : {
                }
            }
        },
        "network" : "Istanbul",
        "sealEngine" : "NoProof",
        "lastblockhash" : "0x71cd82c31223025b01ddab46476c70ff7079b00aa6ece782be38a6bd66e21c69",
        "genesisRLP" : "0xf901f9f901f4a00000000000000000000000000000000000000000000000000000000000000000a01dcc4de8dec75d7aab85b567b6ccd41ad312451b948a7413f0a142fd40d49347942adc25665018aa1fe0e6bc666dac8fc2697ff9baa059e802220bc9fa73d271891a6c99a885427b79805d6f6ba0d439a8f5028d5416a056e81f171bcc55a6ff8345e692c0f86e5b48e01b996cadc001622fb5e363b421a056e81f171bcc55a6ff8345e692c0f86e5b48e01b996cadc001622fb5e363b421b901000000000000000000000000000000000000000000000000000000000000000000000000000000000000000000000000000000000000000000000000000000000000000000000000000000000000000000000000000000000000000000000000000000000000000000000000000000000000000000000000000000000000000000000000000000000000000000000000000000000000000000000000000000000000000000000000000000000000000000000000000000000000000000000000000000000000000000000000000000000000000000000000000000000000000000000000000000000000000000000000000000000000000000000000000000000083020000808401c9c380808000a00000000000000000000000000000000000000000000000000000000000000000880000000000000000c0c0",
        "blocks" : [
            {
                "rlp" : "0xf90260f901f8a0d7ee5e75efd92db2507fbbc22e819010e1d8966f562dfcc57116d2fe651100bda01dcc4de8dec75d7aab85b567b6ccd41ad312451b948a7413f0a142fd40d49347942adc25665018aa1fe0e6bc666dac8fc2697ff9baa0c63e4f91027efe361b0c7052325374cbcba2f81e82dcb41398aeacb81303a845a06434509a2d7d87f5d6f7dcccb6eb25db092f0ec3ab6a48c90d4eb2b5715fb57ba0759053c3f84293a88962c54f53cd6de112d1e7709c83de7e2a120ec64174e6acb901000000000000000000000000000000000000000000000000000000000000000000000000000000000000000000000000000000000000000000000000000000000000000000000000000000000000000000000000000000000000000000000000000000000000000000000000000000000000000000000000000000000000000000000000000000000000000000000000000000000000000000000000000000000000000000000000000000000000000000000000000000000000000000000000000000000000000000000000000000000000000000000000000000000000000000000000000000000000000000000000000000000000000000000000000000000083020000018401c9c38082ed3a8203e800a00000000000000000000000000000000000000000000000000000000000000000880000000000000000f862f860800a832dc6c094095e7baea6a6c7c4c2dfeb977efac326af552d8780801ca096fe0bdc8ea5e06836f0a4bdebad21024a56b36549e00aeae0d3d5e8c6f32302a021b8b5010ea4464453625562c4c0f0ec3039d1ed042db1e5cf02fb9e33d0b8d5c0",
                "blockHeader" : {
                    "bloom" : "0x00000000000000000000000000000000000000000000000000000000000000000000000000000000000000000000000000000000000000000000000000000000000000000000000000000000000000000000000000000000000000000000000000000000000000000000000000000000000000000000000000000000000000000000000000000000000000000000000000000000000000000000000000000000000000000000000000000000000000000000000000000000000000000000000000000000000000000000000000000000000000000000000000000000000000000000000000000000000000000000000000000000000000000000000000000000",
                    "coinbase" : "0x2adc25665018aa1fe0e6bc666dac8fc2697ff9ba",
                    "difficulty" : "0x020000",
                    "extraData" : "0x00",
                    "gasLimit" : "0x01c9c380",
                    "gasUsed" : "0xed3a",
                    "hash" : "0x71cd82c31223025b01ddab46476c70ff7079b00aa6ece782be38a6bd66e21c69",
                    "mixHash" : "0x0000000000000000000000000000000000000000000000000000000000000000",
                    "nonce" : "0x0000000000000000",
                    "number" : "0x01",
                    "parentHash" : "0xd7ee5e75efd92db2507fbbc22e819010e1d8966f562dfcc57116d2fe651100bd",
                    "receiptTrie" : "0x759053c3f84293a88962c54f53cd6de112d1e7709c83de7e2a120ec64174e6ac",
                    "stateRoot" : "0xc63e4f91027efe361b0c7052325374cbcba2f81e82dcb41398aeacb81303a845",
                    "timestamp" : "0x03e8",
                    "transactionsTrie" : "0x6434509a2d7d87f5d6f7dcccb6eb25db092f0ec3ab6a48c90d4eb2b5715fb57b",
                    "uncleHash" : "0x1dcc4de8dec75d7aab85b567b6ccd41ad312451b948a7413f0a142fd40d49347"
                },
                "transactions" : [
                    {
                        "data" : "0x",
                        "gasLimit" : "0x2dc6c0",
                        "gasPrice" : "0x0a",
                        "nonce" : "0x00",
                        "to" : "0x095e7baea6a6c7c4c2dfeb977efac326af552d87",
                        "value" : "0x00",
                        "v" : "0x1c",
                        "r" : "0x96fe0bdc8ea5e06836f0a4bdebad21024a56b36549e00aeae0d3d5e8c6f32302",
                        "s" : "0x21b8b5010ea4464453625562c4c0f0ec3039d1ed042db1e5cf02fb9e33d0b8d5"
                    }
                ],
                "uncleHeaders" : [
                ]
            }
        ]
    },
    "callWithHighValueOOGinCall_d0g0v0_London" : {
        "_info" : {
            "comment" : "call with value and oog happens inside",
            "filling-rpc-server" : "evm version 1.10.4-unstable-966ee3ae-20210528",
            "filling-tool-version" : "retesteth-0.1.1-eip1559+commit.658fc3a8.Linux.g++",
            "lllcversion" : "Version: 0.5.14-develop.2021.5.18+commit.14c9d5de.mod.Linux.g++",
            "source" : "src/GeneralStateTestsFiller/stCallCreateCallCodeTest/callWithHighValueOOGinCallFiller.json",
            "sourceHash" : "28a3ee43d5b9f371592564a67281970468548afe2a6ac7adce4659730945675b"
        },
        "genesisBlockHeader" : {
            "bloom" : "0x00000000000000000000000000000000000000000000000000000000000000000000000000000000000000000000000000000000000000000000000000000000000000000000000000000000000000000000000000000000000000000000000000000000000000000000000000000000000000000000000000000000000000000000000000000000000000000000000000000000000000000000000000000000000000000000000000000000000000000000000000000000000000000000000000000000000000000000000000000000000000000000000000000000000000000000000000000000000000000000000000000000000000000000000000000000",
            "coinbase" : "0x2adc25665018aa1fe0e6bc666dac8fc2697ff9ba",
            "difficulty" : "0x020000",
            "extraData" : "0x00",
            "gasLimit" : "0x01c9c380",
            "gasUsed" : "0x00",
            "hash" : "0x26772f9e192578000f6984020a261b095742464e0c6241ea18ef7297507b104e",
            "mixHash" : "0x0000000000000000000000000000000000000000000000000000000000000000",
            "nonce" : "0x0000000000000000",
            "number" : "0x00",
            "parentHash" : "0x0000000000000000000000000000000000000000000000000000000000000000",
            "receiptTrie" : "0x56e81f171bcc55a6ff8345e692c0f86e5b48e01b996cadc001622fb5e363b421",
            "stateRoot" : "0x59e802220bc9fa73d271891a6c99a885427b79805d6f6ba0d439a8f5028d5416",
            "timestamp" : "0x00",
            "transactionsTrie" : "0x56e81f171bcc55a6ff8345e692c0f86e5b48e01b996cadc001622fb5e363b421",
            "uncleHash" : "0x1dcc4de8dec75d7aab85b567b6ccd41ad312451b948a7413f0a142fd40d49347",
            "baseFee" : "0x0b"
        },
        "pre" : {
            "0x095e7baea6a6c7c4c2dfeb977efac326af552d87" : {
                "balance" : "0x0de0b6b3a7640001",
                "code" : "0x60016000600060006000670de0b6b3a764000073945304eb96065b2a98b57a48a06ae28d285a71b5612710f10160005500",
                "nonce" : "0x00",
                "storage" : {
                }
            },
            "0x945304eb96065b2a98b57a48a06ae28d285a71b5" : {
                "balance" : "0x17",
                "code" : "0x6001600155603760005360026000f3",
                "nonce" : "0x00",
                "storage" : {
                }
            },
            "0xa94f5374fce5edbc8e2a8697c15331677e6ebf0b" : {
                "balance" : "0x0de0b6b3a7640000",
                "code" : "0x",
                "nonce" : "0x00",
                "storage" : {
                }
            }
        },
        "postState" : {
            "0x095e7baea6a6c7c4c2dfeb977efac326af552d87" : {
                "code" : "0x60016000600060006000670de0b6b3a764000073945304eb96065b2a98b57a48a06ae28d285a71b5612710f10160005500",
                "nonce" : "0x00",
                "balance" : "0x0de0b6b3a7640001",
                "storage" : {
                    "0x00" : "0x01"
                }
            },
            "0x2adc25665018aa1fe0e6bc666dac8fc2697ff9ba" : {
                "code" : "0x",
                "nonce" : "0x00",
                "balance" : "0x1bc16d674ec80000",
                "storage" : {
                }
            },
            "0x945304eb96065b2a98b57a48a06ae28d285a71b5" : {
                "code" : "0x6001600155603760005360026000f3",
                "nonce" : "0x00",
                "balance" : "0x17",
                "storage" : {
                }
            },
            "0xa94f5374fce5edbc8e2a8697c15331677e6ebf0b" : {
                "code" : "0x",
                "nonce" : "0x01",
                "balance" : "0x0de0b6b3a75a1f7c",
                "storage" : {
                }
            }
        },
        "network" : "London",
        "sealEngine" : "NoProof",
        "lastblockhash" : "0x30cc713c643577692993d2a2c2238fff3bf7e134a0a6628f42698d0cae6b0f83",
        "genesisRLP" : "0xf901faf901f5a00000000000000000000000000000000000000000000000000000000000000000a01dcc4de8dec75d7aab85b567b6ccd41ad312451b948a7413f0a142fd40d49347942adc25665018aa1fe0e6bc666dac8fc2697ff9baa059e802220bc9fa73d271891a6c99a885427b79805d6f6ba0d439a8f5028d5416a056e81f171bcc55a6ff8345e692c0f86e5b48e01b996cadc001622fb5e363b421a056e81f171bcc55a6ff8345e692c0f86e5b48e01b996cadc001622fb5e363b421b901000000000000000000000000000000000000000000000000000000000000000000000000000000000000000000000000000000000000000000000000000000000000000000000000000000000000000000000000000000000000000000000000000000000000000000000000000000000000000000000000000000000000000000000000000000000000000000000000000000000000000000000000000000000000000000000000000000000000000000000000000000000000000000000000000000000000000000000000000000000000000000000000000000000000000000000000000000000000000000000000000000000000000000000000000000000083020000808401c9c380808000a000000000000000000000000000000000000000000000000000000000000000008800000000000000000bc0c0",
        "blocks" : [
            {
                "rlp" : "0xf90261f901f9a026772f9e192578000f6984020a261b095742464e0c6241ea18ef7297507b104ea01dcc4de8dec75d7aab85b567b6ccd41ad312451b948a7413f0a142fd40d49347942adc25665018aa1fe0e6bc666dac8fc2697ff9baa0b19c5b51ed0bc20c0136ab0de049734de948da588418e7ac491b1e685c7721f9a06434509a2d7d87f5d6f7dcccb6eb25db092f0ec3ab6a48c90d4eb2b5715fb57ba07feb906572456038e5864611345869a9e980e45b6c49820fd81ec3223c31ee9bb901000000000000000000000000000000000000000000000000000000000000000000000000000000000000000000000000000000000000000000000000000000000000000000000000000000000000000000000000000000000000000000000000000000000000000000000000000000000000000000000000000000000000000000000000000000000000000000000000000000000000000000000000000000000000000000000000000000000000000000000000000000000000000000000000000000000000000000000000000000000000000000000000000000000000000000000000000000000000000000000000000000000000000000000000000000000083020000018401c9c38082fcda8203e800a000000000000000000000000000000000000000000000000000000000000000008800000000000000000af862f860800a832dc6c094095e7baea6a6c7c4c2dfeb977efac326af552d8780801ca096fe0bdc8ea5e06836f0a4bdebad21024a56b36549e00aeae0d3d5e8c6f32302a021b8b5010ea4464453625562c4c0f0ec3039d1ed042db1e5cf02fb9e33d0b8d5c0",
                "blockHeader" : {
                    "bloom" : "0x00000000000000000000000000000000000000000000000000000000000000000000000000000000000000000000000000000000000000000000000000000000000000000000000000000000000000000000000000000000000000000000000000000000000000000000000000000000000000000000000000000000000000000000000000000000000000000000000000000000000000000000000000000000000000000000000000000000000000000000000000000000000000000000000000000000000000000000000000000000000000000000000000000000000000000000000000000000000000000000000000000000000000000000000000000000",
                    "coinbase" : "0x2adc25665018aa1fe0e6bc666dac8fc2697ff9ba",
                    "difficulty" : "0x020000",
                    "extraData" : "0x00",
                    "gasLimit" : "0x01c9c380",
                    "gasUsed" : "0xfcda",
                    "hash" : "0x30cc713c643577692993d2a2c2238fff3bf7e134a0a6628f42698d0cae6b0f83",
                    "mixHash" : "0x0000000000000000000000000000000000000000000000000000000000000000",
                    "nonce" : "0x0000000000000000",
                    "number" : "0x01",
                    "parentHash" : "0x26772f9e192578000f6984020a261b095742464e0c6241ea18ef7297507b104e",
                    "receiptTrie" : "0x7feb906572456038e5864611345869a9e980e45b6c49820fd81ec3223c31ee9b",
                    "stateRoot" : "0xb19c5b51ed0bc20c0136ab0de049734de948da588418e7ac491b1e685c7721f9",
                    "timestamp" : "0x03e8",
                    "transactionsTrie" : "0x6434509a2d7d87f5d6f7dcccb6eb25db092f0ec3ab6a48c90d4eb2b5715fb57b",
                    "uncleHash" : "0x1dcc4de8dec75d7aab85b567b6ccd41ad312451b948a7413f0a142fd40d49347",
                    "baseFee" : "0x0a"
                },
                "transactions" : [
                    {
                        "data" : "0x",
                        "gasLimit" : "0x2dc6c0",
                        "gasPrice" : "0x0a",
                        "nonce" : "0x00",
                        "to" : "0x095e7baea6a6c7c4c2dfeb977efac326af552d87",
                        "value" : "0x00",
                        "v" : "0x1c",
                        "r" : "0x96fe0bdc8ea5e06836f0a4bdebad21024a56b36549e00aeae0d3d5e8c6f32302",
                        "s" : "0x21b8b5010ea4464453625562c4c0f0ec3039d1ed042db1e5cf02fb9e33d0b8d5"
                    }
                ],
                "uncleHeaders" : [
                ]
            }
        ]
    }
}