{
    "baseFee_London" : {
        "_info" : {
            "comment" : "",
            "filling-rpc-server" : "evm version 1.10.4-unstable-950d99c2-20210602",
            "filling-tool-version" : "retesteth-0.1.1-eip1559+commit.49f91fa6.Linux.g++",
            "lllcversion" : "Version: 0.5.14-develop.2021.6.5+commit.401d5358.Linux.g++",
            "source" : "src/BlockchainTestsFiller/ValidBlocks/bcEIP1559/baseFeeFiller.yml",
            "sourceHash" : "cd707b850e9bd8f11d112d72a6dbc210ab243f990d5c972ea1e05a710a32c270"
        },
        "sealEngine" : "NoProof",
        "network" : "London",
        "pre" : {
            "0x000000000000000000000000000000000000c0de" : {
                "balance" : "0x00",
                "code" : "0x600060006000600073cccccccccccccccccccccccccccccccccccccccc5af450",
                "nonce" : "0x01",
                "storage" : {
                }
            },
            "0xa94f5374fce5edbc8e2a8697c15331677e6ebf0b" : {
                "balance" : "0x01000000000000000000",
                "code" : "0x",
                "nonce" : "0x00",
                "storage" : {
                }
            },
            "0xcccccccccccccccccccccccccccccccccccccccc" : {
                "balance" : "0x010000000000",
                "code" : "0x484355483a036110004301554761200043015500",
                "nonce" : "0x01",
                "storage" : {
                }
            },
            "0xcccccccccccccccccccccccccccccccccccccccd" : {
                "balance" : "0x020000000000",
                "code" : "0x600060006000600073cccccccccccccccccccccccccccccccccccccccc5af450",
                "nonce" : "0x01",
                "storage" : {
                }
            },
            "0xccccccccccccccccccccccccccccccccccccccce" : {
                "balance" : "0x020000000000",
                "code" : "0x600060006000600061100061c0de5af1600060006000600073cccccccccccccccccccccccccccccccccccccccc5af4905050",
                "nonce" : "0x01",
                "storage" : {
                }
            },
            "0xd02d72e067e77158444ef2020ff2d325f929b363" : {
                "balance" : "0x01000000000000000000",
                "code" : "0x",
                "nonce" : "0x01",
                "storage" : {
                }
            }
        },
        "genesisBlockHeader" : {
            "bloom" : "0x00000000000000000000000000000000000000000000000000000000000000000000000000000000000000000000000000000000000000000000000000000000000000000000000000000000000000000000000000000000000000000000000000000000000000000000000000000000000000000000000000000000000000000000000000000000000000000000000000000000000000000000000000000000000000000000000000000000000000000000000000000000000000000000000000000000000000000000000000000000000000000000000000000000000000000000000000000000000000000000000000000000000000000000000000000000",
            "coinbase" : "0xba5e000000000000000000000000000000000000",
            "difficulty" : "0x020001",
            "extraData" : "0x42",
            "gasLimit" : "0x016345785d8a0000",
            "gasUsed" : "0x00",
            "hash" : "0xe0a94a7a3c9617401586b1a27025d2d9671332d22d540e0af72b069170380f2a",
            "mixHash" : "0x0000000000000000000000000000000000000000000000000000000000000000",
            "nonce" : "0x0000000000000000",
            "number" : "0x00",
            "parentHash" : "0x0000000000000000000000000000000000000000000000000000000000000000",
            "receiptTrie" : "0x56e81f171bcc55a6ff8345e692c0f86e5b48e01b996cadc001622fb5e363b421",
            "stateRoot" : "0xd79299e3098fbb0b1c46a42de84b5880ab54ff7f42a6cd5bd9a4d4d54c21fcac",
            "timestamp" : "0x03b6",
            "transactionsTrie" : "0x56e81f171bcc55a6ff8345e692c0f86e5b48e01b996cadc001622fb5e363b421",
            "uncleHash" : "0x1dcc4de8dec75d7aab85b567b6ccd41ad312451b948a7413f0a142fd40d49347",
            "baseFee" : "0x03e8"
        },
        "genesisRLP" : "0xf90202f901fda00000000000000000000000000000000000000000000000000000000000000000a01dcc4de8dec75d7aab85b567b6ccd41ad312451b948a7413f0a142fd40d4934794ba5e000000000000000000000000000000000000a0d79299e3098fbb0b1c46a42de84b5880ab54ff7f42a6cd5bd9a4d4d54c21fcaca056e81f171bcc55a6ff8345e692c0f86e5b48e01b996cadc001622fb5e363b421a056e81f171bcc55a6ff8345e692c0f86e5b48e01b996cadc001622fb5e363b421b9010000000000000000000000000000000000000000000000000000000000000000000000000000000000000000000000000000000000000000000000000000000000000000000000000000000000000000000000000000000000000000000000000000000000000000000000000000000000000000000000000000000000000000000000000000000000000000000000000000000000000000000000000000000000000000000000000000000000000000000000000000000000000000000000000000000000000000000000000000000000000000000000000000000000000000000000000000000000000000000000000000000000000000000000000000000000830200018088016345785d8a0000808203b642a000000000000000000000000000000000000000000000000000000000000000008800000000000000008203e8c0c0",
        "blocks" : [
            {
                "chainname" : "default",
                "blocknumber" : "1",
                "uncleHeaders" : [
                ],
                "blockHeader" : {
                    "bloom" : "0x00000000000000000000000000000000000000000000000000000000000000000000000000000000000000000000000000000000000000000000000000000000000000000000000000000000000000000000000000000000000000000000000000000000000000000000000000000000000000000000000000000000000000000000000000000000000000000000000000000000000000000000000000000000000000000000000000000000000000000000000000000000000000000000000000000000000000000000000000000000000000000000000000000000000000000000000000000000000000000000000000000000000000000000000000000000",
                    "coinbase" : "0xba5e000000000000000000000000000000000000",
                    "difficulty" : "0x020000",
                    "extraData" : "0x42",
                    "gasLimit" : "0x016345785d8a0000",
                    "gasUsed" : "0x015534",
                    "hash" : "0x6a251c7c3c5dca7b42407a3752ff48f3bbca1fab7f9868371d9918daf1988d1f",
                    "mixHash" : "0x0000000000000000000000000000000000000000000000000000000000000000",
                    "nonce" : "0x0000000000000000",
                    "number" : "0x01",
                    "parentHash" : "0xe0a94a7a3c9617401586b1a27025d2d9671332d22d540e0af72b069170380f2a",
                    "receiptTrie" : "0x29b0562f7140574dd0d50dee8a271b22e1a0a7b78fca58f7c60370d8317ba2a9",
                    "stateRoot" : "0xec3c94b18b8a1cff7d60f8d258ec723312932928626b4c9355eb4ab3568ec7f7",
                    "timestamp" : "0x079e",
                    "transactionsTrie" : "0x50f738580ed699f0469702c7ccc63ed2e51bc034be9479b7bff4e68dee84accf",
                    "uncleHash" : "0x1dcc4de8dec75d7aab85b567b6ccd41ad312451b948a7413f0a142fd40d49347",
                    "baseFee" : "0x036b"
                },
                "transactions" : [
                    {
                        "data" : "0x01",
                        "gasLimit" : "0xe8d4a51000",
                        "nonce" : "0x01",
                        "to" : "0xcccccccccccccccccccccccccccccccccccccccc",
                        "r" : "0xbb4151e025a607c47f6a0d81eace0035b2e2509e031f67f7948064307194aba1",
                        "s" : "0x655e12c8c17568da9bfe50a45eb56a96b9ba96c55aad59f0da9d50ed8c24dd3c",
                        "value" : "0x00",
                        "v" : "0x00",
                        "chainId" : "0x01",
                        "type" : "0x02",
                        "maxFeePerGas" : "0x03e8",
                        "maxPriorityFeePerGas" : "0x01",
                        "accessList" : [
                        ]
                    }
                ],
                "rlp" : "0xf90272f90200a0e0a94a7a3c9617401586b1a27025d2d9671332d22d540e0af72b069170380f2aa01dcc4de8dec75d7aab85b567b6ccd41ad312451b948a7413f0a142fd40d4934794ba5e000000000000000000000000000000000000a0ec3c94b18b8a1cff7d60f8d258ec723312932928626b4c9355eb4ab3568ec7f7a050f738580ed699f0469702c7ccc63ed2e51bc034be9479b7bff4e68dee84accfa029b0562f7140574dd0d50dee8a271b22e1a0a7b78fca58f7c60370d8317ba2a9b9010000000000000000000000000000000000000000000000000000000000000000000000000000000000000000000000000000000000000000000000000000000000000000000000000000000000000000000000000000000000000000000000000000000000000000000000000000000000000000000000000000000000000000000000000000000000000000000000000000000000000000000000000000000000000000000000000000000000000000000000000000000000000000000000000000000000000000000000000000000000000000000000000000000000000000000000000000000000000000000000000000000000000000000000000000000000830200000188016345785d8a00008301553482079e42a0000000000000000000000000000000000000000000000000000000000000000088000000000000000082036bf86cb86a02f8670101018203e885e8d4a5100094cccccccccccccccccccccccccccccccccccccccc8001c080a0bb4151e025a607c47f6a0d81eace0035b2e2509e031f67f7948064307194aba1a0655e12c8c17568da9bfe50a45eb56a96b9ba96c55aad59f0da9d50ed8c24dd3cc0"
            },
            {
                "chainname" : "default",
                "blocknumber" : "2",
                "uncleHeaders" : [
                ],
                "blockHeader" : {
                    "bloom" : "0x00000000000000000000000000000000000000000000000000000000000000000000000000000000000000000000000000000000000000000000000000000000000000000000000000000000000000000000000000000000000000000000000000000000000000000000000000000000000000000000000000000000000000000000000000000000000000000000000000000000000000000000000000000000000000000000000000000000000000000000000000000000000000000000000000000000000000000000000000000000000000000000000000000000000000000000000000000000000000000000000000000000000000000000000000000000",
                    "coinbase" : "0xba5e000000000000000000000000000000000000",
                    "difficulty" : "0x020000",
                    "extraData" : "0x42",
                    "gasLimit" : "0x016345785d8a0000",
                    "gasUsed" : "0x053c42",
                    "hash" : "0xbbecb467eba51fc662a8b137b8b7d7a1168a8f7fd2f2d02a91399802db71f8f0",
                    "mixHash" : "0x0000000000000000000000000000000000000000000000000000000000000000",
                    "nonce" : "0x0000000000000000",
                    "number" : "0x02",
                    "parentHash" : "0x6a251c7c3c5dca7b42407a3752ff48f3bbca1fab7f9868371d9918daf1988d1f",
                    "receiptTrie" : "0xe225d44649351c3dccc61c1d904451d6f0f5a407c072099fe1085cfad88447d6",
                    "stateRoot" : "0x7fa838925e466f1be071e24f42c1f854f8f1fac1e57178c72c48e9286fa55b4c",
                    "timestamp" : "0x0b86",
                    "transactionsTrie" : "0xbcb2b8cde709ece0ef0af792dfada50361b5900760014dfa8b48bd6f49ea2e06",
                    "uncleHash" : "0x1dcc4de8dec75d7aab85b567b6ccd41ad312451b948a7413f0a142fd40d49347",
                    "baseFee" : "0x02fe"
                },
                "transactions" : [
                    {
                        "data" : "0x0201",
                        "gasLimit" : "0xe8d4a51000",
                        "nonce" : "0x02",
                        "to" : "0xcccccccccccccccccccccccccccccccccccccccc",
                        "r" : "0x2f2641be5ffb87075ba11818071c93c2d019981dc2dd21822461382563fa8141",
                        "s" : "0x0f58afb8e55fb89a16a4a1a1ddc6129b4869a9ca6b0d3a5dcc0ed64e10614d1d",
                        "value" : "0x00",
                        "v" : "0x00",
                        "chainId" : "0x01",
                        "type" : "0x02",
                        "maxFeePerGas" : "0x03e8",
                        "maxPriorityFeePerGas" : "0x0a",
                        "accessList" : [
                        ]
                    },
                    {
                        "data" : "0x0202",
                        "gasLimit" : "0xe8d4a51000",
                        "nonce" : "0x03",
                        "to" : "0xcccccccccccccccccccccccccccccccccccccccd",
                        "r" : "0x36d4456c61589be36fbc472f43f9576adb15d853142278abe3f8da3833ced436",
                        "s" : "0x6707aa36698ed7d62653a31745bafaa6b3af0a9d7038f2374f868d75f40ea5e4",
                        "value" : "0x00",
                        "v" : "0x01",
                        "chainId" : "0x01",
                        "type" : "0x02",
                        "maxFeePerGas" : "0x03e8",
                        "maxPriorityFeePerGas" : "0x64",
                        "accessList" : [
                        ]
                    },
                    {
                        "data" : "0x0203",
                        "gasLimit" : "0xe8d4a51000",
                        "nonce" : "0x04",
                        "to" : "0xccccccccccccccccccccccccccccccccccccccce",
                        "r" : "0xd7ea1338c5bfc216639a31c2d5d4d3e48c309170061eb3f7446a6d897058466b",
                        "s" : "0x1efc9896ece79cb04b367bd8eb50c9f26913c169f1a556edd763810890a0beac",
                        "value" : "0x00",
                        "v" : "0x01",
                        "chainId" : "0x01",
                        "type" : "0x02",
                        "maxFeePerGas" : "0x03e8",
                        "maxPriorityFeePerGas" : "0x64",
                        "accessList" : [
                        ]
                    }
                ],
                "rlp" : "0xf90351f90200a06a251c7c3c5dca7b42407a3752ff48f3bbca1fab7f9868371d9918daf1988d1fa01dcc4de8dec75d7aab85b567b6ccd41ad312451b948a7413f0a142fd40d4934794ba5e000000000000000000000000000000000000a07fa838925e466f1be071e24f42c1f854f8f1fac1e57178c72c48e9286fa55b4ca0bcb2b8cde709ece0ef0af792dfada50361b5900760014dfa8b48bd6f49ea2e06a0e225d44649351c3dccc61c1d904451d6f0f5a407c072099fe1085cfad88447d6b9010000000000000000000000000000000000000000000000000000000000000000000000000000000000000000000000000000000000000000000000000000000000000000000000000000000000000000000000000000000000000000000000000000000000000000000000000000000000000000000000000000000000000000000000000000000000000000000000000000000000000000000000000000000000000000000000000000000000000000000000000000000000000000000000000000000000000000000000000000000000000000000000000000000000000000000000000000000000000000000000000000000000000000000000000000000000830200000288016345785d8a000083053c42820b8642a000000000000000000000000000000000000000000000000000000000000000008800000000000000008202fef9014ab86c02f86901020a8203e885e8d4a5100094cccccccccccccccccccccccccccccccccccccccc80820201c080a02f2641be5ffb87075ba11818071c93c2d019981dc2dd21822461382563fa8141a00f58afb8e55fb89a16a4a1a1ddc6129b4869a9ca6b0d3a5dcc0ed64e10614d1db86c02f8690103648203e885e8d4a5100094cccccccccccccccccccccccccccccccccccccccd80820202c001a036d4456c61589be36fbc472f43f9576adb15d853142278abe3f8da3833ced436a06707aa36698ed7d62653a31745bafaa6b3af0a9d7038f2374f868d75f40ea5e4b86c02f8690104648203e885e8d4a5100094ccccccccccccccccccccccccccccccccccccccce80820203c001a0d7ea1338c5bfc216639a31c2d5d4d3e48c309170061eb3f7446a6d897058466ba01efc9896ece79cb04b367bd8eb50c9f26913c169f1a556edd763810890a0beacc0"
            },
            {
                "chainname" : "default",
                "blocknumber" : "3",
                "uncleHeaders" : [
                ],
                "blockHeader" : {
                    "bloom" : "0x00000000000000000000000000000000000000000000000000000000000000000000000000000000000000000000000000000000000000000000000000000000000000000000000000000000000000000000000000000000000000000000000000000000000000000000000000000000000000000000000000000000000000000000000000000000000000000000000000000000000000000000000000000000000000000000000000000000000000000000000000000000000000000000000000000000000000000000000000000000000000000000000000000000000000000000000000000000000000000000000000000000000000000000000000000000",
                    "coinbase" : "0xba5e000000000000000000000000000000000000",
                    "difficulty" : "0x020000",
                    "extraData" : "0x42",
                    "gasLimit" : "0x016345785d8a0000",
                    "gasUsed" : "0x053c42",
                    "hash" : "0xa406da14c6efc659274488a592ef3ed55738047ceee610fbfa4dff1c52f149c0",
                    "mixHash" : "0x0000000000000000000000000000000000000000000000000000000000000000",
                    "nonce" : "0x0000000000000000",
                    "number" : "0x03",
                    "parentHash" : "0xbbecb467eba51fc662a8b137b8b7d7a1168a8f7fd2f2d02a91399802db71f8f0",
                    "receiptTrie" : "0xf42d43454db7c51eadf004bd9e43522c4894f02c602b709cd45e67597c622f2e",
                    "stateRoot" : "0x408868a823524770e3df45d376f97e475a29193bf1deca8e9137c7dfe793d54a",
                    "timestamp" : "0x0f6e",
                    "transactionsTrie" : "0x7e5e956c853fbbe684694ce61cd77cdf12c992b20489bb145271ab297e6e2583",
                    "uncleHash" : "0x1dcc4de8dec75d7aab85b567b6ccd41ad312451b948a7413f0a142fd40d49347",
                    "baseFee" : "0x029f"
                },
                "transactions" : [
                    {
                        "data" : "0x0301",
                        "gasLimit" : "0xe8d4a51000",
                        "nonce" : "0x05",
                        "to" : "0xcccccccccccccccccccccccccccccccccccccccc",
                        "r" : "0x08d743ccaa2c67d085065924d301b748c9a3f89917e4941fd55ce891c789e1be",
                        "s" : "0x191746ac2a588583a530c99c21b3b53ee4a8e2b93fbe064d4fce966e1766a54c",
                        "value" : "0x00",
                        "v" : "0x01",
                        "chainId" : "0x01",
                        "type" : "0x02",
                        "maxFeePerGas" : "0x03e8",
                        "maxPriorityFeePerGas" : "0x03e8",
                        "accessList" : [
                        ]
                    },
                    {
                        "data" : "0x0303",
                        "gasLimit" : "0xe8d4a51000",
                        "nonce" : "0x06",
                        "to" : "0xccccccccccccccccccccccccccccccccccccccce",
                        "r" : "0x4ae1b4044c435390aec763fbb9d0c0e30818e28d9d1a9b61ec702b55c66306a6",
                        "s" : "0x4f1dca655bd6535ece671d61fa7aa126978afbd133f70f373a113bbe724b4e5b",
                        "value" : "0x00",
                        "v" : "0x01",
                        "chainId" : "0x01",
                        "type" : "0x02",
                        "maxFeePerGas" : "0x03e8",
                        "maxPriorityFeePerGas" : "0x64",
                        "accessList" : [
                        ]
                    },
                    {
                        "data" : "0x0304",
                        "gasLimit" : "0xe8d4a51000",
                        "nonce" : "0x07",
                        "to" : "0xcccccccccccccccccccccccccccccccccccccccd",
                        "r" : "0x1046a4e77b2a8dd37621b58a22c77eee94229055e2223a02c2c6cbaf4701a621",
                        "s" : "0x3fbd58196ea621480a4e6c9fb1f53d3ec4e012147ed451ecdc5aca265b04f728",
                        "value" : "0x00",
                        "v" : "0x00",
                        "chainId" : "0x01",
                        "type" : "0x02",
                        "maxFeePerGas" : "0x0186a0",
                        "maxPriorityFeePerGas" : "0x0186a0",
                        "accessList" : [
                        ]
                    }
                ],
                "transactionSequence" : [
                    {
                        "rawBytes" : "0x02f86b01058203e88203e885e8d4a5100094cccccccccccccccccccccccccccccccccccccccc80820301c001a008d743ccaa2c67d085065924d301b748c9a3f89917e4941fd55ce891c789e1bea0191746ac2a588583a530c99c21b3b53ee4a8e2b93fbe064d4fce966e1766a54c",
                        "valid" : "true"
                    },
                    {
                        "rawBytes" : "0x02f86c0106830186a08203e885e8d4a5100094cccccccccccccccccccccccccccccccccccccccd80820302c001a044f337ee2f6e119ce72aefea96bad8321b823f6055a313b5896734a29808060ba056c0a10807b80372dde88a5a0d17f8659790022ff2a512492be7f20bcec9ebe1",
                        "valid" : "false",
                        "exception" : "TR_TipGtFeeCap"
                    },
                    {
                        "rawBytes" : "0x02f8690106648203e885e8d4a5100094ccccccccccccccccccccccccccccccccccccccce80820303c001a04ae1b4044c435390aec763fbb9d0c0e30818e28d9d1a9b61ec702b55c66306a6a04f1dca655bd6535ece671d61fa7aa126978afbd133f70f373a113bbe724b4e5b",
                        "valid" : "true"
                    },
                    {
                        "rawBytes" : "0x02f86d0107830186a0830186a085e8d4a5100094cccccccccccccccccccccccccccccccccccccccd80820304c080a01046a4e77b2a8dd37621b58a22c77eee94229055e2223a02c2c6cbaf4701a621a03fbd58196ea621480a4e6c9fb1f53d3ec4e012147ed451ecdc5aca265b04f728",
                        "valid" : "true"
                    }
                ],
                "rlp" : "0xf90357f90200a0bbecb467eba51fc662a8b137b8b7d7a1168a8f7fd2f2d02a91399802db71f8f0a01dcc4de8dec75d7aab85b567b6ccd41ad312451b948a7413f0a142fd40d4934794ba5e000000000000000000000000000000000000a0408868a823524770e3df45d376f97e475a29193bf1deca8e9137c7dfe793d54aa07e5e956c853fbbe684694ce61cd77cdf12c992b20489bb145271ab297e6e2583a0f42d43454db7c51eadf004bd9e43522c4894f02c602b709cd45e67597c622f2eb9010000000000000000000000000000000000000000000000000000000000000000000000000000000000000000000000000000000000000000000000000000000000000000000000000000000000000000000000000000000000000000000000000000000000000000000000000000000000000000000000000000000000000000000000000000000000000000000000000000000000000000000000000000000000000000000000000000000000000000000000000000000000000000000000000000000000000000000000000000000000000000000000000000000000000000000000000000000000000000000000000000000000000000000000000000000000830200000388016345785d8a000083053c42820f6e42a0000000000000000000000000000000000000000000000000000000000000000088000000000000000082029ff90150b86e02f86b01058203e88203e885e8d4a5100094cccccccccccccccccccccccccccccccccccccccc80820301c001a008d743ccaa2c67d085065924d301b748c9a3f89917e4941fd55ce891c789e1bea0191746ac2a588583a530c99c21b3b53ee4a8e2b93fbe064d4fce966e1766a54cb86c02f8690106648203e885e8d4a5100094ccccccccccccccccccccccccccccccccccccccce80820303c001a04ae1b4044c435390aec763fbb9d0c0e30818e28d9d1a9b61ec702b55c66306a6a04f1dca655bd6535ece671d61fa7aa126978afbd133f70f373a113bbe724b4e5bb87002f86d0107830186a0830186a085e8d4a5100094cccccccccccccccccccccccccccccccccccccccd80820304c080a01046a4e77b2a8dd37621b58a22c77eee94229055e2223a02c2c6cbaf4701a621a03fbd58196ea621480a4e6c9fb1f53d3ec4e012147ed451ecdc5aca265b04f728c0"
            },
            {
                "chainname" : "default",
                "blocknumber" : "4",
                "uncleHeaders" : [
                ],
                "blockHeader" : {
                    "bloom" : "0x00000000000000000000000000000000000000000000000000000000000000000000000000000000000000000000000000000000000000000000000000000000000000000000000000000000000000000000000000000000000000000000000000000000000000000000000000000000000000000000000000000000000000000000000000000000000000000000000000000000000000000000000000000000000000000000000000000000000000000000000000000000000000000000000000000000000000000000000000000000000000000000000000000000000000000000000000000000000000000000000000000000000000000000000000000000",
                    "coinbase" : "0xba5e000000000000000000000000000000000000",
                    "difficulty" : "0x020000",
                    "extraData" : "0x42",
                    "gasLimit" : "0x016345785d8a0000",
                    "gasUsed" : "0x053c42",
                    "hash" : "0xa6272f30bd18ff54b7f599d2439f7e45da523bab8f1447e5f3f74a08dbfabe77",
                    "mixHash" : "0x0000000000000000000000000000000000000000000000000000000000000000",
                    "nonce" : "0x0000000000000000",
                    "number" : "0x04",
                    "parentHash" : "0xa406da14c6efc659274488a592ef3ed55738047ceee610fbfa4dff1c52f149c0",
                    "receiptTrie" : "0xf42d43454db7c51eadf004bd9e43522c4894f02c602b709cd45e67597c622f2e",
                    "stateRoot" : "0x2175eed13f198e774ed43abd7f5c912eae7c15ebd7422ff09de138f97ab77328",
                    "timestamp" : "0x1356",
                    "transactionsTrie" : "0xb67753341df7013fab632ff70ba77581dae515164a05bff6187af692a133c0ec",
                    "uncleHash" : "0x1dcc4de8dec75d7aab85b567b6ccd41ad312451b948a7413f0a142fd40d49347",
                    "baseFee" : "0x024c"
                },
                "transactions" : [
                    {
                        "data" : "0x0401",
                        "gasLimit" : "0xe8d4a51000",
                        "nonce" : "0x08",
                        "to" : "0xcccccccccccccccccccccccccccccccccccccccc",
                        "r" : "0xaacf4ad2118e809a8d309a87bff3bb92db49d6cfde2180912d24d2f72156539f",
                        "s" : "0x6268e000640f73eb6ce702e237e612ca3c7c8ed4e4052a63fa6d53bfaf8725c5",
                        "value" : "0x00",
                        "v" : "0x00",
                        "chainId" : "0x01",
                        "type" : "0x02",
                        "maxFeePerGas" : "0x03e8",
                        "maxPriorityFeePerGas" : "0x03e8",
                        "accessList" : [
                        ]
                    },
                    {
                        "data" : "0x0403",
                        "gasLimit" : "0xe8d4a51000",
                        "nonce" : "0x09",
                        "to" : "0xccccccccccccccccccccccccccccccccccccccce",
                        "r" : "0xfee2cfe257b54e017f53ea047487754c90ff90acef614babf32093e158037088",
                        "s" : "0x2e36fb3a80b4a809a7eeba576ae617dccdc1d6f5aad824a14788f9925b59448f",
                        "value" : "0x00",
                        "v" : "0x01",
                        "chainId" : "0x01",
                        "type" : "0x02",
                        "maxFeePerGas" : "0x03e8",
                        "maxPriorityFeePerGas" : "0x64",
                        "accessList" : [
                        ]
                    },
                    {
                        "data" : "0x0404",
                        "gasLimit" : "0xe8d4a51000",
                        "nonce" : "0x0a",
                        "to" : "0xcccccccccccccccccccccccccccccccccccccccd",
                        "r" : "0xb14848fdbfd23a99c61688a9e6d4e2e7a592755415fe5b9c60d84b03d9f90b7f",
                        "s" : "0x41f6573fa1f3ee133c8ab99e207ff1e7d04bd245d70de87ae7fdaaa4b4a9c771",
                        "value" : "0x00",
                        "v" : "0x01",
                        "chainId" : "0x01",
                        "type" : "0x02",
                        "maxFeePerGas" : "0x0186a0",
                        "maxPriorityFeePerGas" : "0x0186a0",
                        "accessList" : [
                        ]
                    }
                ],
                "transactionSequence" : [
                    {
                        "rawBytes" : "0x02f86b01088203e88203e885e8d4a5100094cccccccccccccccccccccccccccccccccccccccc80820401c080a0aacf4ad2118e809a8d309a87bff3bb92db49d6cfde2180912d24d2f72156539fa06268e000640f73eb6ce702e237e612ca3c7c8ed4e4052a63fa6d53bfaf8725c5",
                        "valid" : "true"
                    },
                    {
                        "rawBytes" : "0x02f86c0109830186a08203e885e8d4a5100094cccccccccccccccccccccccccccccccccccccccd80820402c001a09579e56e8b317edfe346bfd0176a564f24bdf63a6cd28b1bc69421588a9225f5a05066ea139a6c1c8b2b6e9b4364ac2ef759ee7daf55f3c3be1c543f03e278616e",
                        "valid" : "false",
                        "exception" : "TR_TipGtFeeCap"
                    },
                    {
                        "rawBytes" : "0x02f8690109648203e885e8d4a5100094ccccccccccccccccccccccccccccccccccccccce80820403c001a0fee2cfe257b54e017f53ea047487754c90ff90acef614babf32093e158037088a02e36fb3a80b4a809a7eeba576ae617dccdc1d6f5aad824a14788f9925b59448f",
                        "valid" : "true"
                    },
                    {
                        "rawBytes" : "0x02f86d010a830186a0830186a085e8d4a5100094cccccccccccccccccccccccccccccccccccccccd80820404c001a0b14848fdbfd23a99c61688a9e6d4e2e7a592755415fe5b9c60d84b03d9f90b7fa041f6573fa1f3ee133c8ab99e207ff1e7d04bd245d70de87ae7fdaaa4b4a9c771",
                        "valid" : "true"
                    }
                ],
                "rlp" : "0xf90357f90200a0a406da14c6efc659274488a592ef3ed55738047ceee610fbfa4dff1c52f149c0a01dcc4de8dec75d7aab85b567b6ccd41ad312451b948a7413f0a142fd40d4934794ba5e000000000000000000000000000000000000a02175eed13f198e774ed43abd7f5c912eae7c15ebd7422ff09de138f97ab77328a0b67753341df7013fab632ff70ba77581dae515164a05bff6187af692a133c0eca0f42d43454db7c51eadf004bd9e43522c4894f02c602b709cd45e67597c622f2eb9010000000000000000000000000000000000000000000000000000000000000000000000000000000000000000000000000000000000000000000000000000000000000000000000000000000000000000000000000000000000000000000000000000000000000000000000000000000000000000000000000000000000000000000000000000000000000000000000000000000000000000000000000000000000000000000000000000000000000000000000000000000000000000000000000000000000000000000000000000000000000000000000000000000000000000000000000000000000000000000000000000000000000000000000000000000000830200000488016345785d8a000083053c4282135642a0000000000000000000000000000000000000000000000000000000000000000088000000000000000082024cf90150b86e02f86b01088203e88203e885e8d4a5100094cccccccccccccccccccccccccccccccccccccccc80820401c080a0aacf4ad2118e809a8d309a87bff3bb92db49d6cfde2180912d24d2f72156539fa06268e000640f73eb6ce702e237e612ca3c7c8ed4e4052a63fa6d53bfaf8725c5b86c02f8690109648203e885e8d4a5100094ccccccccccccccccccccccccccccccccccccccce80820403c001a0fee2cfe257b54e017f53ea047487754c90ff90acef614babf32093e158037088a02e36fb3a80b4a809a7eeba576ae617dccdc1d6f5aad824a14788f9925b59448fb87002f86d010a830186a0830186a085e8d4a5100094cccccccccccccccccccccccccccccccccccccccd80820404c001a0b14848fdbfd23a99c61688a9e6d4e2e7a592755415fe5b9c60d84b03d9f90b7fa041f6573fa1f3ee133c8ab99e207ff1e7d04bd245d70de87ae7fdaaa4b4a9c771c0"
            }
        ],
        "postState" : {
            "0x000000000000000000000000000000000000c0de" : {
                "code" : "0x600060006000600073cccccccccccccccccccccccccccccccccccccccc5af450",
                "nonce" : "0x01",
                "balance" : "0x3000",
                "storage" : {
                    "0x02" : "0x02fe",
                    "0x03" : "0x029f",
                    "0x04" : "0x024c",
                    "0x1002" : "0x64",
                    "0x1003" : "0x64",
                    "0x1004" : "0x64",
                    "0x2002" : "0x1000",
                    "0x2003" : "0x2000",
                    "0x2004" : "0x3000"
                }
            },
            "0xa94f5374fce5edbc8e2a8697c15331677e6ebf0b" : {
                "code" : "0x",
                "nonce" : "0x00",
                "balance" : "0x01000000000000000000",
                "storage" : {
                }
            },
            "0xba5e000000000000000000000000000000000000" : {
                "code" : "0x",
                "nonce" : "0x00",
                "balance" : "0x6f05b5a16c783b4b",
                "storage" : {
                }
            },
            "0xcccccccccccccccccccccccccccccccccccccccc" : {
                "code" : "0x484355483a036110004301554761200043015500",
                "nonce" : "0x01",
                "balance" : "0x010000000000",
                "storage" : {
                    "0x01" : "0x036b",
                    "0x02" : "0x02fe",
                    "0x03" : "0x029f",
                    "0x04" : "0x024c",
                    "0x1001" : "0x01",
                    "0x1002" : "0x0a",
                    "0x1003" : "0x0149",
                    "0x1004" : "0x019c",
                    "0x2001" : "0x010000000000",
                    "0x2002" : "0x010000000000",
                    "0x2003" : "0x010000000000",
                    "0x2004" : "0x010000000000"
                }
            },
            "0xcccccccccccccccccccccccccccccccccccccccd" : {
                "code" : "0x600060006000600073cccccccccccccccccccccccccccccccccccccccc5af450",
                "nonce" : "0x01",
                "balance" : "0x020000000000",
                "storage" : {
                    "0x02" : "0x02fe",
                    "0x03" : "0x029f",
                    "0x04" : "0x024c",
                    "0x1002" : "0x64",
                    "0x1003" : "0x018401",
                    "0x1004" : "0x018454",
                    "0x2002" : "0x020000000000",
                    "0x2003" : "0x020000000000",
                    "0x2004" : "0x020000000000"
                }
            },
            "0xccccccccccccccccccccccccccccccccccccccce" : {
                "code" : "0x600060006000600061100061c0de5af1600060006000600073cccccccccccccccccccccccccccccccccccccccc5af4905050",
                "nonce" : "0x01",
                "balance" : "0x01ffffffd000",
                "storage" : {
                    "0x02" : "0x02fe",
                    "0x03" : "0x029f",
                    "0x04" : "0x024c",
                    "0x1002" : "0x64",
                    "0x1003" : "0x64",
                    "0x1004" : "0x64",
                    "0x2002" : "0x01fffffff000",
                    "0x2003" : "0x01ffffffe000",
                    "0x2004" : "0x01ffffffd000"
                }
            },
            "0xd02d72e067e77158444ef2020ff2d325f929b363" : {
                "code" : "0x",
                "nonce" : "0x0b",
                "balance" : "0xfffffffffba0afe5e7",
                "storage" : {
                }
            }
        },
        "lastblockhash" : "0xa6272f30bd18ff54b7f599d2439f7e45da523bab8f1447e5f3f74a08dbfabe77"
    }
}