{
    "feeCap_London" : {
        "_info" : {
            "comment" : "",
            "filling-rpc-server" : "evm version 1.10.4-unstable-950d99c2-20210602",
            "filling-tool-version" : "retesteth-0.1.1-eip1559+commit.49f91fa6.Linux.g++",
            "lllcversion" : "Version: 0.5.14-develop.2021.6.5+commit.401d5358.Linux.g++",
            "source" : "src/BlockchainTestsFiller/ValidBlocks/bcEIP1559/feeCapFiller.yml",
            "sourceHash" : "91c1a91078dd700ceca61db4223729cf878eac54b2e6322f8ae3df3d017f7ee3"
        },
        "sealEngine" : "NoProof",
        "network" : "London",
        "pre" : {
            "0xa94f5374fce5edbc8e2a8697c15331677e6ebf0b" : {
                "balance" : "0x010000000000000000",
                "code" : "0x",
                "nonce" : "0x00",
                "storage" : {
                }
            },
            "0xcccccccccccccccccccccccccccccccccccccccc" : {
                "balance" : "0x010000000000",
                "code" : "0x60013a55",
                "nonce" : "0x01",
                "storage" : {
                }
            },
            "0xd02d72e067e77158444ef2020ff2d325f929b363" : {
                "balance" : "0x010000000000000000",
                "code" : "0x",
                "nonce" : "0x01",
                "storage" : {
                }
            }
        },
        "genesisBlockHeader" : {
            "bloom" : "0x00000000000000000000000000000000000000000000000000000000000000000000000000000000000000000000000000000000000000000000000000000000000000000000000000000000000000000000000000000000000000000000000000000000000000000000000000000000000000000000000000000000000000000000000000000000000000000000000000000000000000000000000000000000000000000000000000000000000000000000000000000000000000000000000000000000000000000000000000000000000000000000000000000000000000000000000000000000000000000000000000000000000000000000000000000000",
            "coinbase" : "0x2adc25665018aa1fe0e6bc666dac8fc2697ff9ba",
            "difficulty" : "0x020000",
            "extraData" : "0x42",
            "gasLimit" : "0x02540be400",
            "gasUsed" : "0x00",
            "hash" : "0x634e0f96f25ef3fdcd9eb73b4d5c80f2bb14e6e7d4733de6fda4a4ade35467da",
            "mixHash" : "0x0000000000000000000000000000000000000000000000000000000000000000",
            "nonce" : "0x0000000000000000",
            "number" : "0x00",
            "parentHash" : "0x0000000000000000000000000000000000000000000000000000000000000000",
            "receiptTrie" : "0x56e81f171bcc55a6ff8345e692c0f86e5b48e01b996cadc001622fb5e363b421",
            "stateRoot" : "0x3312b5a99387060f5ab75c6ef4829fbc946fdef8e2038299670ee4a26dc4bc8a",
            "timestamp" : "0x03b6",
            "transactionsTrie" : "0x56e81f171bcc55a6ff8345e692c0f86e5b48e01b996cadc001622fb5e363b421",
            "uncleHash" : "0x1dcc4de8dec75d7aab85b567b6ccd41ad312451b948a7413f0a142fd40d49347",
            "baseFee" : "0x03e8"
        },
        "genesisRLP" : "0xf901fff901faa00000000000000000000000000000000000000000000000000000000000000000a01dcc4de8dec75d7aab85b567b6ccd41ad312451b948a7413f0a142fd40d49347942adc25665018aa1fe0e6bc666dac8fc2697ff9baa03312b5a99387060f5ab75c6ef4829fbc946fdef8e2038299670ee4a26dc4bc8aa056e81f171bcc55a6ff8345e692c0f86e5b48e01b996cadc001622fb5e363b421a056e81f171bcc55a6ff8345e692c0f86e5b48e01b996cadc001622fb5e363b421b901000000000000000000000000000000000000000000000000000000000000000000000000000000000000000000000000000000000000000000000000000000000000000000000000000000000000000000000000000000000000000000000000000000000000000000000000000000000000000000000000000000000000000000000000000000000000000000000000000000000000000000000000000000000000000000000000000000000000000000000000000000000000000000000000000000000000000000000000000000000000000000000000000000000000000000000000000000000000000000000000000000000000000000000000000000000083020000808502540be400808203b642a000000000000000000000000000000000000000000000000000000000000000008800000000000000008203e8c0c0",
        "blocks" : [
            {
                "chainname" : "default",
                "blocknumber" : "1",
                "uncleHeaders" : [
                ],
                "blockHeader" : {
                    "bloom" : "0x00000000000000000000000000000000000000000000000000000000000000000000000000000000000000000000000000000000000000000000000000000000000000000000000000000000000000000000000000000000000000000000000000000000000000000000000000000000000000000000000000000000000000000000000000000000000000000000000000000000000000000000000000000000000000000000000000000000000000000000000000000000000000000000000000000000000000000000000000000000000000000000000000000000000000000000000000000000000000000000000000000000000000000000000000000000",
                    "coinbase" : "0x2adc25665018aa1fe0e6bc666dac8fc2697ff9ba",
                    "difficulty" : "0x020000",
                    "extraData" : "0x42",
                    "gasLimit" : "0x02540be400",
                    "gasUsed" : "0x066cc9",
                    "hash" : "0x99c107e33fd986557ab098b5c87185439c75b8305dfc954d8dc0d78a2e20c66e",
                    "mixHash" : "0x0000000000000000000000000000000000000000000000000000000000000000",
                    "nonce" : "0x0000000000000000",
                    "number" : "0x01",
                    "parentHash" : "0x634e0f96f25ef3fdcd9eb73b4d5c80f2bb14e6e7d4733de6fda4a4ade35467da",
                    "receiptTrie" : "0x390a99e6f4c6184a3d8703f2ffab9b3f8f0a1d0dd501ef75fab804246635b9a3",
                    "stateRoot" : "0x2620b79041ec8849817068b89ec838fd4f5e4ba287df66ed4983d4665ae10bcc",
                    "timestamp" : "0x079e",
                    "transactionsTrie" : "0x6ebb9fc7666546c7955a253689baee52e3c7e64d81a22f5d2afec8cf64cf96ea",
                    "uncleHash" : "0x1dcc4de8dec75d7aab85b567b6ccd41ad312451b948a7413f0a142fd40d49347",
                    "baseFee" : "0x036b"
                },
                "transactions" : [
                    {
                        "data" : "0x",
                        "gasLimit" : "0xc350",
                        "nonce" : "0x01",
                        "to" : "0xcccccccccccccccccccccccccccccccccccccccc",
                        "r" : "0xc6e9b2c9d66afe699c669f7925c6bdd2fff56b5dab4b7a0072582fc6624827a0",
                        "s" : "0x058e81b6e0bcb7018c98c4139796f2b74382abd533799923af29819c5622ed5b",
                        "value" : "0x00",
                        "v" : "0x01",
                        "chainId" : "0x01",
                        "type" : "0x02",
                        "maxFeePerGas" : "0x0370",
                        "maxPriorityFeePerGas" : "0x00",
                        "accessList" : [
                        ]
                    },
                    {
                        "data" : "0x",
                        "gasLimit" : "0xc350",
                        "nonce" : "0x02",
                        "to" : "0xcccccccccccccccccccccccccccccccccccccccc",
                        "r" : "0xe41b75906c82661d7aafac2b8a501f1c3b97863f95b635154718dae77d3f5aa3",
                        "s" : "0x64a559e4ef61e705df9b80c1e20ebd501d0ce11766a25922af39bd61633295f9",
                        "value" : "0x00",
                        "v" : "0x01",
                        "chainId" : "0x01",
                        "type" : "0x02",
                        "maxFeePerGas" : "0x0370",
                        "maxPriorityFeePerGas" : "0x01",
                        "accessList" : [
                        ]
                    },
                    {
                        "data" : "0x",
                        "gasLimit" : "0xc350",
                        "nonce" : "0x03",
                        "to" : "0xcccccccccccccccccccccccccccccccccccccccc",
                        "r" : "0x378f778df856e94c33a420a8c12bb5790a799a0e12eb8e5d6a1038b2f2626cd3",
                        "s" : "0x0b6fbb2bee7998505f22ad0cbf8143156a6150fb9609e0d86341eb9c518213dc",
                        "value" : "0x00",
                        "v" : "0x00",
                        "chainId" : "0x01",
                        "type" : "0x02",
                        "maxFeePerGas" : "0x0370",
                        "maxPriorityFeePerGas" : "0x02",
                        "accessList" : [
                        ]
                    },
                    {
                        "data" : "0x",
                        "gasLimit" : "0xc350",
                        "nonce" : "0x04",
                        "to" : "0xcccccccccccccccccccccccccccccccccccccccc",
                        "r" : "0x02fb105c2a87d38bde41c6516eedb5d934d8bf58f39b8d04d999847ed798952a",
                        "s" : "0x03a17de65b3fda0dc0aef836d847b697910bf38f1eab91a540227f81dd4cb718",
                        "value" : "0x00",
                        "v" : "0x00",
                        "chainId" : "0x01",
                        "type" : "0x02",
                        "maxFeePerGas" : "0x0370",
                        "maxPriorityFeePerGas" : "0x03",
                        "accessList" : [
                        ]
                    },
                    {
                        "data" : "0x",
                        "gasLimit" : "0xc350",
                        "nonce" : "0x05",
                        "to" : "0xcccccccccccccccccccccccccccccccccccccccc",
                        "r" : "0xedf27344c9d8c9cde52a2393fe30b2b25051a21589d82d8acbb95376b8719e31",
                        "s" : "0x241632f19125c5d1ce91c9a68ad9c35e47f6aebc6953c7b9c12bc217752d028d",
                        "value" : "0x00",
                        "v" : "0x01",
                        "chainId" : "0x01",
                        "type" : "0x02",
                        "maxFeePerGas" : "0x0370",
                        "maxPriorityFeePerGas" : "0x04",
                        "accessList" : [
                        ]
                    },
                    {
                        "data" : "0x",
                        "gasLimit" : "0xc350",
                        "nonce" : "0x06",
                        "to" : "0xcccccccccccccccccccccccccccccccccccccccc",
                        "r" : "0x74c757a3306f12470e96f7d6b2222926dcc74215e01be8553b5146df3687f65a",
                        "s" : "0x1767b1ac3a552346525449f84e6df3cda088438f1641b1463a103c36fba890de",
                        "value" : "0x00",
                        "v" : "0x01",
                        "chainId" : "0x01",
                        "type" : "0x02",
                        "maxFeePerGas" : "0x0370",
                        "maxPriorityFeePerGas" : "0x05",
                        "accessList" : [
                        ]
                    },
                    {
                        "data" : "0x",
                        "gasLimit" : "0xc350",
                        "nonce" : "0x07",
                        "to" : "0xcccccccccccccccccccccccccccccccccccccccc",
                        "r" : "0xa0bbdc151d10b0e26c967627c2de05dba358ee52230d58e08a66859868f98235",
                        "s" : "0x1cf066ab7b927a4b65c2df18d22f5a8757981ae1869ccecd7195e21960253195",
                        "value" : "0x00",
                        "v" : "0x00",
                        "chainId" : "0x01",
                        "type" : "0x02",
                        "maxFeePerGas" : "0x0370",
                        "maxPriorityFeePerGas" : "0x06",
                        "accessList" : [
                        ]
                    },
                    {
                        "data" : "0x",
                        "gasLimit" : "0xc350",
                        "nonce" : "0x08",
                        "to" : "0xcccccccccccccccccccccccccccccccccccccccc",
                        "r" : "0xc061c28069d1ce767cd5e80edefc111780e7b2214a6e655b1d789d146460a8a8",
                        "s" : "0x54dd6421d044f74d70ed39ed1168647b5478579070b219b653d38ea944a30c75",
                        "value" : "0x00",
                        "v" : "0x01",
                        "chainId" : "0x01",
                        "type" : "0x02",
                        "maxFeePerGas" : "0x0370",
                        "maxPriorityFeePerGas" : "0x07",
                        "accessList" : [
                        ]
                    },
                    {
                        "data" : "0x",
                        "gasLimit" : "0xc350",
                        "nonce" : "0x09",
                        "to" : "0xcccccccccccccccccccccccccccccccccccccccc",
                        "r" : "0x0246a0000f2d0c312edc531c6fa4d5622a458ffd1a5b1ad8067255022fd22bb3",
                        "s" : "0x50a95b5fb7a9a554d82bd2be82eb82c07e7506ed42e465c8fb18a2dcaa8a5d14",
                        "value" : "0x00",
                        "v" : "0x01",
                        "chainId" : "0x01",
                        "type" : "0x02",
                        "maxFeePerGas" : "0x0370",
                        "maxPriorityFeePerGas" : "0x08",
                        "accessList" : [
                        ]
                    },
                    {
                        "data" : "0x",
                        "gasLimit" : "0xc350",
                        "nonce" : "0x0a",
                        "to" : "0xcccccccccccccccccccccccccccccccccccccccc",
                        "r" : "0xc4081ec5bf9c7e23a8b939f56792225113b71725cdfa169294b88e91289f7335",
                        "s" : "0x0a41b242fc64ac41c9ab133f0994f9fd93a096eab1264a112ae34fc1a85e6499",
                        "value" : "0x00",
                        "v" : "0x00",
                        "chainId" : "0x01",
                        "type" : "0x02",
                        "maxFeePerGas" : "0x0370",
                        "maxPriorityFeePerGas" : "0x09",
                        "accessList" : [
                        ]
                    },
                    {
                        "data" : "0x",
                        "gasLimit" : "0xc350",
                        "nonce" : "0x0b",
                        "to" : "0xcccccccccccccccccccccccccccccccccccccccc",
                        "r" : "0xa9150343ebc66b39907cc7a601d06deeed884cad7de89f908ff1112450cab9c4",
                        "s" : "0x572306f3a0fa417679a547805721c58a70d18e12a88302a80f40010077525f50",
                        "value" : "0x00",
                        "v" : "0x00",
                        "chainId" : "0x01",
                        "type" : "0x02",
                        "maxFeePerGas" : "0x0370",
                        "maxPriorityFeePerGas" : "0x0a",
                        "accessList" : [
                        ]
                    },
                    {
                        "data" : "0x",
                        "gasLimit" : "0xc350",
                        "gasPrice" : "0x036b",
                        "nonce" : "0x0c",
                        "r" : "0x5910f74bf595fd8de83817b2f0c3e7b4be4faa8e75fa2422df8297f1d56424fe",
                        "s" : "0x62a500f08f94e8962a2c7e944423d608f7e10cd390c6dea526e4f36a575f719d",
                        "to" : "0xcccccccccccccccccccccccccccccccccccccccc",
                        "v" : "0x1c",
                        "value" : "0x00"
                    },
                    {
                        "data" : "0x",
                        "gasLimit" : "0xc350",
                        "gasPrice" : "0x036b",
                        "nonce" : "0x0d",
                        "r" : "0x14981e6263bd928a815dcf29cbe24afa007bb4258d12e76eb842560c101f81df",
                        "s" : "0x073108d7fff618589362a2ae7b44b663f5a2e7fb3c704c06d90517a28f6868d2",
                        "to" : "0xcccccccccccccccccccccccccccccccccccccccc",
                        "v" : "0x01",
                        "value" : "0x00",
                        "chainId" : "0x01",
                        "accessList" : [
                        ],
                        "type" : "0x01"
                    }
                ],
                "transactionSequence" : [
                    {
                        "rawBytes" : "0x02f86401018082037082c35094cccccccccccccccccccccccccccccccccccccccc8080c001a0c6e9b2c9d66afe699c669f7925c6bdd2fff56b5dab4b7a0072582fc6624827a0a0058e81b6e0bcb7018c98c4139796f2b74382abd533799923af29819c5622ed5b",
                        "valid" : "true"
                    },
                    {
                        "rawBytes" : "0x02f86401020182037082c35094cccccccccccccccccccccccccccccccccccccccc8080c001a0e41b75906c82661d7aafac2b8a501f1c3b97863f95b635154718dae77d3f5aa3a064a559e4ef61e705df9b80c1e20ebd501d0ce11766a25922af39bd61633295f9",
                        "valid" : "true"
                    },
                    {
                        "rawBytes" : "0x02f86401030282037082c35094cccccccccccccccccccccccccccccccccccccccc8080c080a0378f778df856e94c33a420a8c12bb5790a799a0e12eb8e5d6a1038b2f2626cd3a00b6fbb2bee7998505f22ad0cbf8143156a6150fb9609e0d86341eb9c518213dc",
                        "valid" : "true"
                    },
                    {
                        "rawBytes" : "0x02f86401040382037082c35094cccccccccccccccccccccccccccccccccccccccc8080c080a002fb105c2a87d38bde41c6516eedb5d934d8bf58f39b8d04d999847ed798952aa003a17de65b3fda0dc0aef836d847b697910bf38f1eab91a540227f81dd4cb718",
                        "valid" : "true"
                    },
                    {
                        "rawBytes" : "0x02f86401050482037082c35094cccccccccccccccccccccccccccccccccccccccc8080c001a0edf27344c9d8c9cde52a2393fe30b2b25051a21589d82d8acbb95376b8719e31a0241632f19125c5d1ce91c9a68ad9c35e47f6aebc6953c7b9c12bc217752d028d",
                        "valid" : "true"
                    },
                    {
                        "rawBytes" : "0x02f86401060582037082c35094cccccccccccccccccccccccccccccccccccccccc8080c001a074c757a3306f12470e96f7d6b2222926dcc74215e01be8553b5146df3687f65aa01767b1ac3a552346525449f84e6df3cda088438f1641b1463a103c36fba890de",
                        "valid" : "true"
                    },
                    {
                        "rawBytes" : "0x02f86401070682037082c35094cccccccccccccccccccccccccccccccccccccccc8080c080a0a0bbdc151d10b0e26c967627c2de05dba358ee52230d58e08a66859868f98235a01cf066ab7b927a4b65c2df18d22f5a8757981ae1869ccecd7195e21960253195",
                        "valid" : "true"
                    },
                    {
                        "rawBytes" : "0x02f86401080782037082c35094cccccccccccccccccccccccccccccccccccccccc8080c001a0c061c28069d1ce767cd5e80edefc111780e7b2214a6e655b1d789d146460a8a8a054dd6421d044f74d70ed39ed1168647b5478579070b219b653d38ea944a30c75",
                        "valid" : "true"
                    },
                    {
                        "rawBytes" : "0x02f86401090882037082c35094cccccccccccccccccccccccccccccccccccccccc8080c001a00246a0000f2d0c312edc531c6fa4d5622a458ffd1a5b1ad8067255022fd22bb3a050a95b5fb7a9a554d82bd2be82eb82c07e7506ed42e465c8fb18a2dcaa8a5d14",
                        "valid" : "true"
                    },
                    {
                        "rawBytes" : "0x02f864010a0982037082c35094cccccccccccccccccccccccccccccccccccccccc8080c080a0c4081ec5bf9c7e23a8b939f56792225113b71725cdfa169294b88e91289f7335a00a41b242fc64ac41c9ab133f0994f9fd93a096eab1264a112ae34fc1a85e6499",
                        "valid" : "true"
                    },
                    {
                        "rawBytes" : "0x02f864010b0a82037082c35094cccccccccccccccccccccccccccccccccccccccc8080c080a0a9150343ebc66b39907cc7a601d06deeed884cad7de89f908ff1112450cab9c4a0572306f3a0fa417679a547805721c58a70d18e12a88302a80f40010077525f50",
                        "valid" : "true"
                    },
                    {
                        "rawBytes" : "0xf8610c82036b82c35094cccccccccccccccccccccccccccccccccccccccc80801ca05910f74bf595fd8de83817b2f0c3e7b4be4faa8e75fa2422df8297f1d56424fea062a500f08f94e8962a2c7e944423d608f7e10cd390c6dea526e4f36a575f719d",
                        "valid" : "true"
                    },
                    {
                        "rawBytes" : "0x01f863010d82036b82c35094cccccccccccccccccccccccccccccccccccccccc8080c001a014981e6263bd928a815dcf29cbe24afa007bb4258d12e76eb842560c101f81dfa0073108d7fff618589362a2ae7b44b663f5a2e7fb3c704c06d90517a28f6868d2",
                        "valid" : "true"
                    },
                    {
                        "rawBytes" : "0xf8610e82036a82c35094cccccccccccccccccccccccccccccccccccccccc80801ba05cbcf1fcf3e1d60c5139f8033377d849bed768ef03e9ee3acb6c1229c7c02308a078966d2d69174055989f0241cf747174706c5200843667f3c40f48f3d1deacbe",
                        "valid" : "false",
                        "exception" : "TR_FeeCapLessThanBlocks"
                    },
                    {
                        "rawBytes" : "0x01f863010e82036a82c35094cccccccccccccccccccccccccccccccccccccccc8080c001a019512c354b479a15d98024a0cdb62c661fc2cc1e53712915881bfb058033fc46a02f307a4b2a5383962c1ebfc88e858e6983dfdabdefd8305a11a69661d846049c",
                        "valid" : "false",
                        "exception" : "TR_FeeCapLessThanBlocks"
                    },
                    {
                        "rawBytes" : "0x02f866010e82036a82036a82c35094cccccccccccccccccccccccccccccccccccccccc8080c001a0335edb2c1a5029e81b67a0639b7df6ae66f876c309d6c80b977d61127ec171e9a04345b0ab9c94feee8b4ee72fe0e6868ba95d9dbfaa71c80d7aab4c9395868259",
                        "valid" : "false",
                        "exception" : "TR_FeeCapLessThanBlocks"
                    }
                ],
                "rlp" : "0xf90752f901fda0634e0f96f25ef3fdcd9eb73b4d5c80f2bb14e6e7d4733de6fda4a4ade35467daa01dcc4de8dec75d7aab85b567b6ccd41ad312451b948a7413f0a142fd40d49347942adc25665018aa1fe0e6bc666dac8fc2697ff9baa02620b79041ec8849817068b89ec838fd4f5e4ba287df66ed4983d4665ae10bcca06ebb9fc7666546c7955a253689baee52e3c7e64d81a22f5d2afec8cf64cf96eaa0390a99e6f4c6184a3d8703f2ffab9b3f8f0a1d0dd501ef75fab804246635b9a3b901000000000000000000000000000000000000000000000000000000000000000000000000000000000000000000000000000000000000000000000000000000000000000000000000000000000000000000000000000000000000000000000000000000000000000000000000000000000000000000000000000000000000000000000000000000000000000000000000000000000000000000000000000000000000000000000000000000000000000000000000000000000000000000000000000000000000000000000000000000000000000000000000000000000000000000000000000000000000000000000000000000000000000000000000000000000083020000018502540be40083066cc982079e42a0000000000000000000000000000000000000000000000000000000000000000088000000000000000082036bf9054eb86702f86401018082037082c35094cccccccccccccccccccccccccccccccccccccccc8080c001a0c6e9b2c9d66afe699c669f7925c6bdd2fff56b5dab4b7a0072582fc6624827a0a0058e81b6e0bcb7018c98c4139796f2b74382abd533799923af29819c5622ed5bb86702f86401020182037082c35094cccccccccccccccccccccccccccccccccccccccc8080c001a0e41b75906c82661d7aafac2b8a501f1c3b97863f95b635154718dae77d3f5aa3a064a559e4ef61e705df9b80c1e20ebd501d0ce11766a25922af39bd61633295f9b86702f86401030282037082c35094cccccccccccccccccccccccccccccccccccccccc8080c080a0378f778df856e94c33a420a8c12bb5790a799a0e12eb8e5d6a1038b2f2626cd3a00b6fbb2bee7998505f22ad0cbf8143156a6150fb9609e0d86341eb9c518213dcb86702f86401040382037082c35094cccccccccccccccccccccccccccccccccccccccc8080c080a002fb105c2a87d38bde41c6516eedb5d934d8bf58f39b8d04d999847ed798952aa003a17de65b3fda0dc0aef836d847b697910bf38f1eab91a540227f81dd4cb718b86702f86401050482037082c35094cccccccccccccccccccccccccccccccccccccccc8080c001a0edf27344c9d8c9cde52a2393fe30b2b25051a21589d82d8acbb95376b8719e31a0241632f19125c5d1ce91c9a68ad9c35e47f6aebc6953c7b9c12bc217752d028db86702f86401060582037082c35094cccccccccccccccccccccccccccccccccccccccc8080c001a074c757a3306f12470e96f7d6b2222926dcc74215e01be8553b5146df3687f65aa01767b1ac3a552346525449f84e6df3cda088438f1641b1463a103c36fba890deb86702f86401070682037082c35094cccccccccccccccccccccccccccccccccccccccc8080c080a0a0bbdc151d10b0e26c967627c2de05dba358ee52230d58e08a66859868f98235a01cf066ab7b927a4b65c2df18d22f5a8757981ae1869ccecd7195e21960253195b86702f86401080782037082c35094cccccccccccccccccccccccccccccccccccccccc8080c001a0c061c28069d1ce767cd5e80edefc111780e7b2214a6e655b1d789d146460a8a8a054dd6421d044f74d70ed39ed1168647b5478579070b219b653d38ea944a30c75b86702f86401090882037082c35094cccccccccccccccccccccccccccccccccccccccc8080c001a00246a0000f2d0c312edc531c6fa4d5622a458ffd1a5b1ad8067255022fd22bb3a050a95b5fb7a9a554d82bd2be82eb82c07e7506ed42e465c8fb18a2dcaa8a5d14b86702f864010a0982037082c35094cccccccccccccccccccccccccccccccccccccccc8080c080a0c4081ec5bf9c7e23a8b939f56792225113b71725cdfa169294b88e91289f7335a00a41b242fc64ac41c9ab133f0994f9fd93a096eab1264a112ae34fc1a85e6499b86702f864010b0a82037082c35094cccccccccccccccccccccccccccccccccccccccc8080c080a0a9150343ebc66b39907cc7a601d06deeed884cad7de89f908ff1112450cab9c4a0572306f3a0fa417679a547805721c58a70d18e12a88302a80f40010077525f50f8610c82036b82c35094cccccccccccccccccccccccccccccccccccccccc80801ca05910f74bf595fd8de83817b2f0c3e7b4be4faa8e75fa2422df8297f1d56424fea062a500f08f94e8962a2c7e944423d608f7e10cd390c6dea526e4f36a575f719db86601f863010d82036b82c35094cccccccccccccccccccccccccccccccccccccccc8080c001a014981e6263bd928a815dcf29cbe24afa007bb4258d12e76eb842560c101f81dfa0073108d7fff618589362a2ae7b44b663f5a2e7fb3c704c06d90517a28f6868d2c0"
            }
        ],
        "postState" : {
            "0x2adc25665018aa1fe0e6bc666dac8fc2697ff9ba" : {
                "code" : "0x",
                "nonce" : "0x00",
                "balance" : "0x1bc16d674edab7cc",
                "storage" : {
                }
            },
            "0xa94f5374fce5edbc8e2a8697c15331677e6ebf0b" : {
                "code" : "0x",
                "nonce" : "0x00",
                "balance" : "0x010000000000000000",
                "storage" : {
                }
            },
            "0xcccccccccccccccccccccccccccccccccccccccc" : {
                "code" : "0x60013a55",
                "nonce" : "0x01",
                "balance" : "0x010000000000",
                "storage" : {
                    "0x036b" : "0x01",
                    "0x036c" : "0x01",
                    "0x036d" : "0x01",
                    "0x036e" : "0x01",
                    "0x036f" : "0x01",
                    "0x0370" : "0x01"
                }
            },
            "0xd02d72e067e77158444ef2020ff2d325f929b363" : {
                "code" : "0x",
                "nonce" : "0x0e",
                "balance" : "0xffffffffe9f77531",
                "storage" : {
                }
            }
        },
        "lastblockhash" : "0x99c107e33fd986557ab098b5c87185439c75b8305dfc954d8dc0d78a2e20c66e"
    }
}