{
    "mem64kb-31_d0g0v0_Berlin" : {
        "_info" : {
            "comment" : "",
            "filling-rpc-server" : "evm version 1.10.4-unstable-966ee3ae-20210528",
            "filling-tool-version" : "retesteth-0.1.1-eip1559+commit.658fc3a8.Linux.g++",
            "lllcversion" : "Version: 0.5.14-develop.2021.5.18+commit.14c9d5de.mod.Linux.g++",
            "source" : "src/GeneralStateTestsFiller/stMemoryTest/mem64kb-31Filler.json",
            "sourceHash" : "402bbd5139733f07fbf0c3bc9a5cf93ad7e37e42977276a7759b8ed253537865"
        },
        "genesisBlockHeader" : {
            "bloom" : "0x00000000000000000000000000000000000000000000000000000000000000000000000000000000000000000000000000000000000000000000000000000000000000000000000000000000000000000000000000000000000000000000000000000000000000000000000000000000000000000000000000000000000000000000000000000000000000000000000000000000000000000000000000000000000000000000000000000000000000000000000000000000000000000000000000000000000000000000000000000000000000000000000000000000000000000000000000000000000000000000000000000000000000000000000000000000",
            "coinbase" : "0x2adc25665018aa1fe0e6bc666dac8fc2697ff9ba",
            "difficulty" : "0x020000",
            "extraData" : "0x00",
            "gasLimit" : "0x0a00000000",
            "gasUsed" : "0x00",
            "hash" : "0x532dc2dc25d91ae259ca5d2d311b4bf43a91db4c7d41fafc20e6190321ae90c9",
            "mixHash" : "0x0000000000000000000000000000000000000000000000000000000000000000",
            "nonce" : "0x0000000000000000",
            "number" : "0x00",
            "parentHash" : "0x0000000000000000000000000000000000000000000000000000000000000000",
            "receiptTrie" : "0x56e81f171bcc55a6ff8345e692c0f86e5b48e01b996cadc001622fb5e363b421",
            "stateRoot" : "0x9d335418a7acaed687098bfec665a9e36334c66835a16da07ff958be3997abb9",
            "timestamp" : "0x00",
            "transactionsTrie" : "0x56e81f171bcc55a6ff8345e692c0f86e5b48e01b996cadc001622fb5e363b421",
            "uncleHash" : "0x1dcc4de8dec75d7aab85b567b6ccd41ad312451b948a7413f0a142fd40d49347"
        },
        "pre" : {
            "0x0f572e5295c57f15886f9b263e2f6d2d6c7b5ec6" : {
                "balance" : "0x0de0b6b3a7640000",
                "code" : "0x602a61f9c15261f9c1516001555960005500",
                "nonce" : "0x00",
                "storage" : {
                }
            },
            "0xa94f5374fce5edbc8e2a8697c15331677e6ebf0b" : {
                "balance" : "0x6400000000",
                "code" : "0x",
                "nonce" : "0x00",
                "storage" : {
                }
            }
        },
        "postState" : {
            "0x0f572e5295c57f15886f9b263e2f6d2d6c7b5ec6" : {
                "code" : "0x602a61f9c15261f9c1516001555960005500",
                "nonce" : "0x00",
                "balance" : "0x0de0b6b3a764000a",
                "storage" : {
                    "0x00" : "0xfa00",
                    "0x01" : "0x2a"
                }
            },
            "0x2adc25665018aa1fe0e6bc666dac8fc2697ff9ba" : {
                "code" : "0x",
                "nonce" : "0x00",
                "balance" : "0x1bc16d674ed40f4e",
                "storage" : {
                }
            },
            "0xa94f5374fce5edbc8e2a8697c15331677e6ebf0b" : {
                "code" : "0x",
                "nonce" : "0x01",
                "balance" : "0x63fff3f0a8",
                "storage" : {
                }
            }
        },
        "network" : "Berlin",
        "sealEngine" : "NoProof",
        "lastblockhash" : "0x8a1bb465a91e662d3f3a4dec596e52df1b0c00fa17306ce48cdc9a7c4dfc5931",
        "genesisRLP" : "0xf901faf901f5a00000000000000000000000000000000000000000000000000000000000000000a01dcc4de8dec75d7aab85b567b6ccd41ad312451b948a7413f0a142fd40d49347942adc25665018aa1fe0e6bc666dac8fc2697ff9baa09d335418a7acaed687098bfec665a9e36334c66835a16da07ff958be3997abb9a056e81f171bcc55a6ff8345e692c0f86e5b48e01b996cadc001622fb5e363b421a056e81f171bcc55a6ff8345e692c0f86e5b48e01b996cadc001622fb5e363b421b90100000000000000000000000000000000000000000000000000000000000000000000000000000000000000000000000000000000000000000000000000000000000000000000000000000000000000000000000000000000000000000000000000000000000000000000000000000000000000000000000000000000000000000000000000000000000000000000000000000000000000000000000000000000000000000000000000000000000000000000000000000000000000000000000000000000000000000000000000000000000000000000000000000000000000000000000000000000000000000000000000000000000000000000000000000000008302000080850a00000000808000a00000000000000000000000000000000000000000000000000000000000000000880000000000000000c0c0",
        "blocks" : [
            {
                "rlp" : "0xf90263f901faa0532dc2dc25d91ae259ca5d2d311b4bf43a91db4c7d41fafc20e6190321ae90c9a01dcc4de8dec75d7aab85b567b6ccd41ad312451b948a7413f0a142fd40d49347942adc25665018aa1fe0e6bc666dac8fc2697ff9baa03f1b7a00ab2da8c1940161b06d0884750bf3621e06ba57518e2b55e6764e6458a0c72cc1876739e853b9b5638265c637579ffc9189ad3447eb376d3ee6046ae6a1a0e61ffe1ad2563c7b1c566602968e369d20d3fd4cd1938adc618dd86b471b445db90100000000000000000000000000000000000000000000000000000000000000000000000000000000000000000000000000000000000000000000000000000000000000000000000000000000000000000000000000000000000000000000000000000000000000000000000000000000000000000000000000000000000000000000000000000000000000000000000000000000000000000000000000000000000000000000000000000000000000000000000000000000000000000000000000000000000000000000000000000000000000000000000000000000000000000000000000000000000000000000000000000000000000000000000000000000008302000001850a00000000830134bb8203e800a00000000000000000000000000000000000000000000000000000000000000000880000000000000000f863f861800a84500018d8940f572e5295c57f15886f9b263e2f6d2d6c7b5ec60a801ca008eb482b74b6f567145a737c020941f0cc75242f1d7349c73c8a7b20ac59738fa004f150a7f57c99f452920bcff42afe039036fe2630ab6a61ce49ab35445096a2c0",
                "blockHeader" : {
                    "bloom" : "0x00000000000000000000000000000000000000000000000000000000000000000000000000000000000000000000000000000000000000000000000000000000000000000000000000000000000000000000000000000000000000000000000000000000000000000000000000000000000000000000000000000000000000000000000000000000000000000000000000000000000000000000000000000000000000000000000000000000000000000000000000000000000000000000000000000000000000000000000000000000000000000000000000000000000000000000000000000000000000000000000000000000000000000000000000000000",
                    "coinbase" : "0x2adc25665018aa1fe0e6bc666dac8fc2697ff9ba",
                    "difficulty" : "0x020000",
                    "extraData" : "0x00",
                    "gasLimit" : "0x0a00000000",
                    "gasUsed" : "0x0134bb",
                    "hash" : "0x8a1bb465a91e662d3f3a4dec596e52df1b0c00fa17306ce48cdc9a7c4dfc5931",
                    "mixHash" : "0x0000000000000000000000000000000000000000000000000000000000000000",
                    "nonce" : "0x0000000000000000",
                    "number" : "0x01",
                    "parentHash" : "0x532dc2dc25d91ae259ca5d2d311b4bf43a91db4c7d41fafc20e6190321ae90c9",
                    "receiptTrie" : "0xe61ffe1ad2563c7b1c566602968e369d20d3fd4cd1938adc618dd86b471b445d",
                    "stateRoot" : "0x3f1b7a00ab2da8c1940161b06d0884750bf3621e06ba57518e2b55e6764e6458",
                    "timestamp" : "0x03e8",
                    "transactionsTrie" : "0xc72cc1876739e853b9b5638265c637579ffc9189ad3447eb376d3ee6046ae6a1",
                    "uncleHash" : "0x1dcc4de8dec75d7aab85b567b6ccd41ad312451b948a7413f0a142fd40d49347"
                },
                "transactions" : [
                    {
                        "data" : "0x",
                        "gasLimit" : "0x500018d8",
                        "gasPrice" : "0x0a",
                        "nonce" : "0x00",
                        "to" : "0x0f572e5295c57f15886f9b263e2f6d2d6c7b5ec6",
                        "value" : "0x0a",
                        "v" : "0x1c",
                        "r" : "0x08eb482b74b6f567145a737c020941f0cc75242f1d7349c73c8a7b20ac59738f",
                        "s" : "0x04f150a7f57c99f452920bcff42afe039036fe2630ab6a61ce49ab35445096a2"
                    }
                ],
                "uncleHeaders" : [
                ]
            }
        ]
    },
    "mem64kb-31_d0g0v0_Istanbul" : {
        "_info" : {
            "comment" : "",
            "filling-rpc-server" : "evm version 1.10.4-unstable-966ee3ae-20210528",
            "filling-tool-version" : "retesteth-0.1.1-eip1559+commit.658fc3a8.Linux.g++",
            "lllcversion" : "Version: 0.5.14-develop.2021.5.18+commit.14c9d5de.mod.Linux.g++",
            "source" : "src/GeneralStateTestsFiller/stMemoryTest/mem64kb-31Filler.json",
            "sourceHash" : "402bbd5139733f07fbf0c3bc9a5cf93ad7e37e42977276a7759b8ed253537865"
        },
        "genesisBlockHeader" : {
            "bloom" : "0x00000000000000000000000000000000000000000000000000000000000000000000000000000000000000000000000000000000000000000000000000000000000000000000000000000000000000000000000000000000000000000000000000000000000000000000000000000000000000000000000000000000000000000000000000000000000000000000000000000000000000000000000000000000000000000000000000000000000000000000000000000000000000000000000000000000000000000000000000000000000000000000000000000000000000000000000000000000000000000000000000000000000000000000000000000000",
            "coinbase" : "0x2adc25665018aa1fe0e6bc666dac8fc2697ff9ba",
            "difficulty" : "0x020000",
            "extraData" : "0x00",
            "gasLimit" : "0x0a00000000",
            "gasUsed" : "0x00",
            "hash" : "0x532dc2dc25d91ae259ca5d2d311b4bf43a91db4c7d41fafc20e6190321ae90c9",
            "mixHash" : "0x0000000000000000000000000000000000000000000000000000000000000000",
            "nonce" : "0x0000000000000000",
            "number" : "0x00",
            "parentHash" : "0x0000000000000000000000000000000000000000000000000000000000000000",
            "receiptTrie" : "0x56e81f171bcc55a6ff8345e692c0f86e5b48e01b996cadc001622fb5e363b421",
            "stateRoot" : "0x9d335418a7acaed687098bfec665a9e36334c66835a16da07ff958be3997abb9",
            "timestamp" : "0x00",
            "transactionsTrie" : "0x56e81f171bcc55a6ff8345e692c0f86e5b48e01b996cadc001622fb5e363b421",
            "uncleHash" : "0x1dcc4de8dec75d7aab85b567b6ccd41ad312451b948a7413f0a142fd40d49347"
        },
        "pre" : {
            "0x0f572e5295c57f15886f9b263e2f6d2d6c7b5ec6" : {
                "balance" : "0x0de0b6b3a7640000",
                "code" : "0x602a61f9c15261f9c1516001555960005500",
                "nonce" : "0x00",
                "storage" : {
                }
            },
            "0xa94f5374fce5edbc8e2a8697c15331677e6ebf0b" : {
                "balance" : "0x6400000000",
                "code" : "0x",
                "nonce" : "0x00",
                "storage" : {
                }
            }
        },
        "postState" : {
            "0x0f572e5295c57f15886f9b263e2f6d2d6c7b5ec6" : {
                "code" : "0x602a61f9c15261f9c1516001555960005500",
                "nonce" : "0x00",
                "balance" : "0x0de0b6b3a764000a",
                "storage" : {
                    "0x00" : "0xfa00",
                    "0x01" : "0x2a"
                }
            },
            "0x2adc25665018aa1fe0e6bc666dac8fc2697ff9ba" : {
                "code" : "0x",
                "nonce" : "0x00",
                "balance" : "0x1bc16d674ed36b3e",
                "storage" : {
                }
            },
            "0xa94f5374fce5edbc8e2a8697c15331677e6ebf0b" : {
                "code" : "0x",
                "nonce" : "0x01",
                "balance" : "0x63fff494b8",
                "storage" : {
                }
            }
        },
        "network" : "Istanbul",
        "sealEngine" : "NoProof",
        "lastblockhash" : "0x18c4175ed6fef53064ae3ba4f746500f452ec34659f5f99de0042e54d84fdc8c",
        "genesisRLP" : "0xf901faf901f5a00000000000000000000000000000000000000000000000000000000000000000a01dcc4de8dec75d7aab85b567b6ccd41ad312451b948a7413f0a142fd40d49347942adc25665018aa1fe0e6bc666dac8fc2697ff9baa09d335418a7acaed687098bfec665a9e36334c66835a16da07ff958be3997abb9a056e81f171bcc55a6ff8345e692c0f86e5b48e01b996cadc001622fb5e363b421a056e81f171bcc55a6ff8345e692c0f86e5b48e01b996cadc001622fb5e363b421b90100000000000000000000000000000000000000000000000000000000000000000000000000000000000000000000000000000000000000000000000000000000000000000000000000000000000000000000000000000000000000000000000000000000000000000000000000000000000000000000000000000000000000000000000000000000000000000000000000000000000000000000000000000000000000000000000000000000000000000000000000000000000000000000000000000000000000000000000000000000000000000000000000000000000000000000000000000000000000000000000000000000000000000000000000000000008302000080850a00000000808000a00000000000000000000000000000000000000000000000000000000000000000880000000000000000c0c0",
        "blocks" : [
            {
                "rlp" : "0xf90263f901faa0532dc2dc25d91ae259ca5d2d311b4bf43a91db4c7d41fafc20e6190321ae90c9a01dcc4de8dec75d7aab85b567b6ccd41ad312451b948a7413f0a142fd40d49347942adc25665018aa1fe0e6bc666dac8fc2697ff9baa0e2a92b9b40d88e2d8285b3c46f809f44fdaf6a64fcdd9657e001086b0262f87fa0c72cc1876739e853b9b5638265c637579ffc9189ad3447eb376d3ee6046ae6a1a00f147df50ae9e0dc7aaa1448a0a9f64e14e1671b76eed6f6c5662c826f992002b90100000000000000000000000000000000000000000000000000000000000000000000000000000000000000000000000000000000000000000000000000000000000000000000000000000000000000000000000000000000000000000000000000000000000000000000000000000000000000000000000000000000000000000000000000000000000000000000000000000000000000000000000000000000000000000000000000000000000000000000000000000000000000000000000000000000000000000000000000000000000000000000000000000000000000000000000000000000000000000000000000000000000000000000000000000000008302000001850a00000000830124538203e800a00000000000000000000000000000000000000000000000000000000000000000880000000000000000f863f861800a84500018d8940f572e5295c57f15886f9b263e2f6d2d6c7b5ec60a801ca008eb482b74b6f567145a737c020941f0cc75242f1d7349c73c8a7b20ac59738fa004f150a7f57c99f452920bcff42afe039036fe2630ab6a61ce49ab35445096a2c0",
                "blockHeader" : {
                    "bloom" : "0x00000000000000000000000000000000000000000000000000000000000000000000000000000000000000000000000000000000000000000000000000000000000000000000000000000000000000000000000000000000000000000000000000000000000000000000000000000000000000000000000000000000000000000000000000000000000000000000000000000000000000000000000000000000000000000000000000000000000000000000000000000000000000000000000000000000000000000000000000000000000000000000000000000000000000000000000000000000000000000000000000000000000000000000000000000000",
                    "coinbase" : "0x2adc25665018aa1fe0e6bc666dac8fc2697ff9ba",
                    "difficulty" : "0x020000",
                    "extraData" : "0x00",
                    "gasLimit" : "0x0a00000000",
                    "gasUsed" : "0x012453",
                    "hash" : "0x18c4175ed6fef53064ae3ba4f746500f452ec34659f5f99de0042e54d84fdc8c",
                    "mixHash" : "0x0000000000000000000000000000000000000000000000000000000000000000",
                    "nonce" : "0x0000000000000000",
                    "number" : "0x01",
                    "parentHash" : "0x532dc2dc25d91ae259ca5d2d311b4bf43a91db4c7d41fafc20e6190321ae90c9",
                    "receiptTrie" : "0x0f147df50ae9e0dc7aaa1448a0a9f64e14e1671b76eed6f6c5662c826f992002",
                    "stateRoot" : "0xe2a92b9b40d88e2d8285b3c46f809f44fdaf6a64fcdd9657e001086b0262f87f",
                    "timestamp" : "0x03e8",
                    "transactionsTrie" : "0xc72cc1876739e853b9b5638265c637579ffc9189ad3447eb376d3ee6046ae6a1",
                    "uncleHash" : "0x1dcc4de8dec75d7aab85b567b6ccd41ad312451b948a7413f0a142fd40d49347"
                },
                "transactions" : [
                    {
                        "data" : "0x",
                        "gasLimit" : "0x500018d8",
                        "gasPrice" : "0x0a",
                        "nonce" : "0x00",
                        "to" : "0x0f572e5295c57f15886f9b263e2f6d2d6c7b5ec6",
                        "value" : "0x0a",
                        "v" : "0x1c",
                        "r" : "0x08eb482b74b6f567145a737c020941f0cc75242f1d7349c73c8a7b20ac59738f",
                        "s" : "0x04f150a7f57c99f452920bcff42afe039036fe2630ab6a61ce49ab35445096a2"
                    }
                ],
                "uncleHeaders" : [
                ]
            }
        ]
    },
    "mem64kb-31_d0g0v0_London" : {
        "_info" : {
            "comment" : "",
            "filling-rpc-server" : "evm version 1.10.4-unstable-966ee3ae-20210528",
            "filling-tool-version" : "retesteth-0.1.1-eip1559+commit.658fc3a8.Linux.g++",
            "lllcversion" : "Version: 0.5.14-develop.2021.5.18+commit.14c9d5de.mod.Linux.g++",
            "source" : "src/GeneralStateTestsFiller/stMemoryTest/mem64kb-31Filler.json",
            "sourceHash" : "402bbd5139733f07fbf0c3bc9a5cf93ad7e37e42977276a7759b8ed253537865"
        },
        "genesisBlockHeader" : {
            "bloom" : "0x00000000000000000000000000000000000000000000000000000000000000000000000000000000000000000000000000000000000000000000000000000000000000000000000000000000000000000000000000000000000000000000000000000000000000000000000000000000000000000000000000000000000000000000000000000000000000000000000000000000000000000000000000000000000000000000000000000000000000000000000000000000000000000000000000000000000000000000000000000000000000000000000000000000000000000000000000000000000000000000000000000000000000000000000000000000",
            "coinbase" : "0x2adc25665018aa1fe0e6bc666dac8fc2697ff9ba",
            "difficulty" : "0x020000",
            "extraData" : "0x00",
            "gasLimit" : "0x0a00000000",
            "gasUsed" : "0x00",
            "hash" : "0x14454ea311ef8e5aa4d9aee5578c3413ff91017e05fb62c06948298456ecddb0",
            "mixHash" : "0x0000000000000000000000000000000000000000000000000000000000000000",
            "nonce" : "0x0000000000000000",
            "number" : "0x00",
            "parentHash" : "0x0000000000000000000000000000000000000000000000000000000000000000",
            "receiptTrie" : "0x56e81f171bcc55a6ff8345e692c0f86e5b48e01b996cadc001622fb5e363b421",
            "stateRoot" : "0x9d335418a7acaed687098bfec665a9e36334c66835a16da07ff958be3997abb9",
            "timestamp" : "0x00",
            "transactionsTrie" : "0x56e81f171bcc55a6ff8345e692c0f86e5b48e01b996cadc001622fb5e363b421",
            "uncleHash" : "0x1dcc4de8dec75d7aab85b567b6ccd41ad312451b948a7413f0a142fd40d49347",
            "baseFee" : "0x0b"
        },
        "pre" : {
            "0x0f572e5295c57f15886f9b263e2f6d2d6c7b5ec6" : {
                "balance" : "0x0de0b6b3a7640000",
                "code" : "0x602a61f9c15261f9c1516001555960005500",
                "nonce" : "0x00",
                "storage" : {
                }
            },
            "0xa94f5374fce5edbc8e2a8697c15331677e6ebf0b" : {
                "balance" : "0x6400000000",
                "code" : "0x",
                "nonce" : "0x00",
                "storage" : {
                }
            }
        },
        "postState" : {
            "0x0f572e5295c57f15886f9b263e2f6d2d6c7b5ec6" : {
                "code" : "0x602a61f9c15261f9c1516001555960005500",
                "nonce" : "0x00",
                "balance" : "0x0de0b6b3a764000a",
                "storage" : {
                    "0x00" : "0xfa00",
                    "0x01" : "0x2a"
                }
            },
            "0x2adc25665018aa1fe0e6bc666dac8fc2697ff9ba" : {
                "code" : "0x",
                "nonce" : "0x00",
                "balance" : "0x1bc16d674ec80000",
                "storage" : {
                }
            },
            "0xa94f5374fce5edbc8e2a8697c15331677e6ebf0b" : {
                "code" : "0x",
                "nonce" : "0x01",
                "balance" : "0x63fff3f0a8",
                "storage" : {
                }
            }
        },
        "network" : "London",
        "sealEngine" : "NoProof",
        "lastblockhash" : "0x6cad575e7dbe8814d7bd669f240daf50ae1e840d736be7cf044b225155c525e6",
        "genesisRLP" : "0xf901fbf901f6a00000000000000000000000000000000000000000000000000000000000000000a01dcc4de8dec75d7aab85b567b6ccd41ad312451b948a7413f0a142fd40d49347942adc25665018aa1fe0e6bc666dac8fc2697ff9baa09d335418a7acaed687098bfec665a9e36334c66835a16da07ff958be3997abb9a056e81f171bcc55a6ff8345e692c0f86e5b48e01b996cadc001622fb5e363b421a056e81f171bcc55a6ff8345e692c0f86e5b48e01b996cadc001622fb5e363b421b90100000000000000000000000000000000000000000000000000000000000000000000000000000000000000000000000000000000000000000000000000000000000000000000000000000000000000000000000000000000000000000000000000000000000000000000000000000000000000000000000000000000000000000000000000000000000000000000000000000000000000000000000000000000000000000000000000000000000000000000000000000000000000000000000000000000000000000000000000000000000000000000000000000000000000000000000000000000000000000000000000000000000000000000000000000000008302000080850a00000000808000a000000000000000000000000000000000000000000000000000000000000000008800000000000000000bc0c0",
        "blocks" : [
            {
                "rlp" : "0xf90264f901fba014454ea311ef8e5aa4d9aee5578c3413ff91017e05fb62c06948298456ecddb0a01dcc4de8dec75d7aab85b567b6ccd41ad312451b948a7413f0a142fd40d49347942adc25665018aa1fe0e6bc666dac8fc2697ff9baa0b5ae33172bf3c7517b0b8bf169b2202b5544a5a785f950c733ade598df8bfd46a0c72cc1876739e853b9b5638265c637579ffc9189ad3447eb376d3ee6046ae6a1a0e61ffe1ad2563c7b1c566602968e369d20d3fd4cd1938adc618dd86b471b445db90100000000000000000000000000000000000000000000000000000000000000000000000000000000000000000000000000000000000000000000000000000000000000000000000000000000000000000000000000000000000000000000000000000000000000000000000000000000000000000000000000000000000000000000000000000000000000000000000000000000000000000000000000000000000000000000000000000000000000000000000000000000000000000000000000000000000000000000000000000000000000000000000000000000000000000000000000000000000000000000000000000000000000000000000000000000008302000001850a00000000830134bb8203e800a000000000000000000000000000000000000000000000000000000000000000008800000000000000000af863f861800a84500018d8940f572e5295c57f15886f9b263e2f6d2d6c7b5ec60a801ca008eb482b74b6f567145a737c020941f0cc75242f1d7349c73c8a7b20ac59738fa004f150a7f57c99f452920bcff42afe039036fe2630ab6a61ce49ab35445096a2c0",
                "blockHeader" : {
                    "bloom" : "0x00000000000000000000000000000000000000000000000000000000000000000000000000000000000000000000000000000000000000000000000000000000000000000000000000000000000000000000000000000000000000000000000000000000000000000000000000000000000000000000000000000000000000000000000000000000000000000000000000000000000000000000000000000000000000000000000000000000000000000000000000000000000000000000000000000000000000000000000000000000000000000000000000000000000000000000000000000000000000000000000000000000000000000000000000000000",
                    "coinbase" : "0x2adc25665018aa1fe0e6bc666dac8fc2697ff9ba",
                    "difficulty" : "0x020000",
                    "extraData" : "0x00",
                    "gasLimit" : "0x0a00000000",
                    "gasUsed" : "0x0134bb",
                    "hash" : "0x6cad575e7dbe8814d7bd669f240daf50ae1e840d736be7cf044b225155c525e6",
                    "mixHash" : "0x0000000000000000000000000000000000000000000000000000000000000000",
                    "nonce" : "0x0000000000000000",
                    "number" : "0x01",
                    "parentHash" : "0x14454ea311ef8e5aa4d9aee5578c3413ff91017e05fb62c06948298456ecddb0",
                    "receiptTrie" : "0xe61ffe1ad2563c7b1c566602968e369d20d3fd4cd1938adc618dd86b471b445d",
                    "stateRoot" : "0xb5ae33172bf3c7517b0b8bf169b2202b5544a5a785f950c733ade598df8bfd46",
                    "timestamp" : "0x03e8",
                    "transactionsTrie" : "0xc72cc1876739e853b9b5638265c637579ffc9189ad3447eb376d3ee6046ae6a1",
                    "uncleHash" : "0x1dcc4de8dec75d7aab85b567b6ccd41ad312451b948a7413f0a142fd40d49347",
                    "baseFee" : "0x0a"
                },
                "transactions" : [
                    {
                        "data" : "0x",
                        "gasLimit" : "0x500018d8",
                        "gasPrice" : "0x0a",
                        "nonce" : "0x00",
                        "to" : "0x0f572e5295c57f15886f9b263e2f6d2d6c7b5ec6",
                        "value" : "0x0a",
                        "v" : "0x1c",
                        "r" : "0x08eb482b74b6f567145a737c020941f0cc75242f1d7349c73c8a7b20ac59738f",
                        "s" : "0x04f150a7f57c99f452920bcff42afe039036fe2630ab6a61ce49ab35445096a2"
                    }
                ],
                "uncleHeaders" : [
                ]
            }
        ]
    }
}