{
    "randomStatetest533_d0g0v0_Berlin" : {
        "_info" : {
            "comment" : "",
            "filling-rpc-server" : "evm version 1.10.4-unstable-966ee3ae-20210528",
            "filling-tool-version" : "retesteth-0.1.1-eip1559+commit.658fc3a8.Linux.g++",
            "lllcversion" : "Version: 0.5.14-develop.2021.5.18+commit.14c9d5de.mod.Linux.g++",
            "source" : "src/GeneralStateTestsFiller/stRandom2/randomStatetest533Filler.json",
            "sourceHash" : "1f3bb25ed614f327e491f1189e13c52aa41a77ff4d86779fc67efcd6d0d4df7f"
        },
        "genesisBlockHeader" : {
            "bloom" : "0x00000000000000000000000000000000000000000000000000000000000000000000000000000000000000000000000000000000000000000000000000000000000000000000000000000000000000000000000000000000000000000000000000000000000000000000000000000000000000000000000000000000000000000000000000000000000000000000000000000000000000000000000000000000000000000000000000000000000000000000000000000000000000000000000000000000000000000000000000000000000000000000000000000000000000000000000000000000000000000000000000000000000000000000000000000000",
            "coinbase" : "0x945304eb96065b2a98b57a48a06ae28d285a71b5",
            "difficulty" : "0x020000",
            "extraData" : "0x00",
            "gasLimit" : "0x7fffffffffffffff",
            "gasUsed" : "0x00",
            "hash" : "0x28802eaf7889d331ea03beba903587da580e95ecb449334dcb15821e68263517",
            "mixHash" : "0x0000000000000000000000000000000000000000000000000000000000000000",
            "nonce" : "0x0000000000000000",
            "number" : "0x00",
            "parentHash" : "0x0000000000000000000000000000000000000000000000000000000000000000",
            "receiptTrie" : "0x56e81f171bcc55a6ff8345e692c0f86e5b48e01b996cadc001622fb5e363b421",
            "stateRoot" : "0xe9bfd105cb042228081b9497f194517f7579f4fa2433676af4b29009d9a6b92d",
            "timestamp" : "0x00",
            "transactionsTrie" : "0x56e81f171bcc55a6ff8345e692c0f86e5b48e01b996cadc001622fb5e363b421",
            "uncleHash" : "0x1dcc4de8dec75d7aab85b567b6ccd41ad312451b948a7413f0a142fd40d49347"
        },
        "pre" : {
            "0x095e7baea6a6c7c4c2dfeb977efac326af552d87" : {
                "balance" : "0x00",
                "code" : "0x7f00000000000000000000000000000000000000000000000000000000000000017fffffffffffffffffffffffffffffffffffffffffffffffffffffffffffffffff7f000000000000000000000000945304eb96065b2a98b57a48a06ae28d285a71b57f000000000000000000000000ffffffffffffffffffffffffffffffffffffffff7f000000000000000000000000ffffffffffffffffffffffffffffffffffffffff7f0000000000000000000000000000000000000000000000000000000000000001847f00000000000000000000000100000000000000000000000000000000000000003a0761525560005155",
                "nonce" : "0x00",
                "storage" : {
                }
            },
            "0x945304eb96065b2a98b57a48a06ae28d285a71b5" : {
                "balance" : "0x2e",
                "code" : "0x6000355415600957005b60203560003555",
                "nonce" : "0x00",
                "storage" : {
                }
            },
            "0xa94f5374fce5edbc8e2a8697c15331677e6ebf0b" : {
                "balance" : "0x0de0b6b3a7640000",
                "code" : "0x",
                "nonce" : "0x00",
                "storage" : {
                }
            }
        },
        "postState" : {
            "0x095e7baea6a6c7c4c2dfeb977efac326af552d87" : {
                "code" : "0x7f00000000000000000000000000000000000000000000000000000000000000017fffffffffffffffffffffffffffffffffffffffffffffffffffffffffffffffff7f000000000000000000000000945304eb96065b2a98b57a48a06ae28d285a71b57f000000000000000000000000ffffffffffffffffffffffffffffffffffffffff7f000000000000000000000000ffffffffffffffffffffffffffffffffffffffff7f0000000000000000000000000000000000000000000000000000000000000001847f00000000000000000000000100000000000000000000000000000000000000003a0761525560005155",
                "nonce" : "0x00",
                "balance" : "0x70d690f4",
                "storage" : {
                    "0x00" : "0x5255"
                }
            },
            "0x945304eb96065b2a98b57a48a06ae28d285a71b5" : {
                "code" : "0x6000355415600957005b60203560003555",
                "nonce" : "0x00",
                "balance" : "0x1bc16d674eceec7c",
                "storage" : {
                }
            },
            "0xa94f5374fce5edbc8e2a8697c15331677e6ebf0b" : {
                "code" : "0x",
                "nonce" : "0x01",
                "balance" : "0x0de0b6b3368682be",
                "storage" : {
                }
            }
        },
        "network" : "Berlin",
        "sealEngine" : "NoProof",
        "lastblockhash" : "0xce4d7abd4b4faf52b92133692bd800f7fc23bbc795ccc2178c2518b1c5c67240",
        "genesisRLP" : "0xf901fdf901f8a00000000000000000000000000000000000000000000000000000000000000000a01dcc4de8dec75d7aab85b567b6ccd41ad312451b948a7413f0a142fd40d4934794945304eb96065b2a98b57a48a06ae28d285a71b5a0e9bfd105cb042228081b9497f194517f7579f4fa2433676af4b29009d9a6b92da056e81f171bcc55a6ff8345e692c0f86e5b48e01b996cadc001622fb5e363b421a056e81f171bcc55a6ff8345e692c0f86e5b48e01b996cadc001622fb5e363b421b90100000000000000000000000000000000000000000000000000000000000000000000000000000000000000000000000000000000000000000000000000000000000000000000000000000000000000000000000000000000000000000000000000000000000000000000000000000000000000000000000000000000000000000000000000000000000000000000000000000000000000000000000000000000000000000000000000000000000000000000000000000000000000000000000000000000000000000000000000000000000000000000000000000000000000000000000000000000000000000000000000000000000000000000000000000000008302000080887fffffffffffffff808000a00000000000000000000000000000000000000000000000000000000000000000880000000000000000c0c0",
        "blocks" : [
            {
                "rlp" : "0xf90358f901fca028802eaf7889d331ea03beba903587da580e95ecb449334dcb15821e68263517a01dcc4de8dec75d7aab85b567b6ccd41ad312451b948a7413f0a142fd40d4934794945304eb96065b2a98b57a48a06ae28d285a71b5a0d045e32bd77f1f3beff7ee0cd832b6f3c73d89883d2647238a9420e7230a17dba0ee4f0989c8bce536ef1c431ef987e7688befb6ecb609b813b915d3ad6136d56aa040fc93af60b3ea60d910576d6f704e77469c803e7676a3eeaddea8291596969db90100000000000000000000000000000000000000000000000000000000000000000000000000000000000000000000000000000000000000000000000000000000000000000000000000000000000000000000000000000000000000000000000000000000000000000000000000000000000000000000000000000000000000000000000000000000000000000000000000000000000000000000000000000000000000000000000000000000000000000000000000000000000000000000000000000000000000000000000000000000000000000000000000000000000000000000000000000000000000000000000000000000000000000000000000000000008302000001887fffffffffffffff82b13b8203e800a00000000000000000000000000000000000000000000000000000000000000000880000000000000000f90155f90152800a8474d0d63194095e7baea6a6c7c4c2dfeb977efac326af552d878470d690f4b8ec7f00000000000000000000000000000000000000000000000000000000000000017fffffffffffffffffffffffffffffffffffffffffffffffffffffffffffffffff7f000000000000000000000000945304eb96065b2a98b57a48a06ae28d285a71b57f000000000000000000000000ffffffffffffffffffffffffffffffffffffffff7f000000000000000000000000ffffffffffffffffffffffffffffffffffffffff7f0000000000000000000000000000000000000000000000000000000000000001847f00000000000000000000000100000000000000000000000000000000000000003a0761521ca086810c1cf5f6c4bd42598825f5a56bba87d1936a8b903ec96fec3473ab72fadba00878f4ddf03e977282bc7ac4a1c5ae58519fe0e8f8be4d5927dff0ceefedf945c0",
                "blockHeader" : {
                    "bloom" : "0x00000000000000000000000000000000000000000000000000000000000000000000000000000000000000000000000000000000000000000000000000000000000000000000000000000000000000000000000000000000000000000000000000000000000000000000000000000000000000000000000000000000000000000000000000000000000000000000000000000000000000000000000000000000000000000000000000000000000000000000000000000000000000000000000000000000000000000000000000000000000000000000000000000000000000000000000000000000000000000000000000000000000000000000000000000000",
                    "coinbase" : "0x945304eb96065b2a98b57a48a06ae28d285a71b5",
                    "difficulty" : "0x020000",
                    "extraData" : "0x00",
                    "gasLimit" : "0x7fffffffffffffff",
                    "gasUsed" : "0xb13b",
                    "hash" : "0xce4d7abd4b4faf52b92133692bd800f7fc23bbc795ccc2178c2518b1c5c67240",
                    "mixHash" : "0x0000000000000000000000000000000000000000000000000000000000000000",
                    "nonce" : "0x0000000000000000",
                    "number" : "0x01",
                    "parentHash" : "0x28802eaf7889d331ea03beba903587da580e95ecb449334dcb15821e68263517",
                    "receiptTrie" : "0x40fc93af60b3ea60d910576d6f704e77469c803e7676a3eeaddea8291596969d",
                    "stateRoot" : "0xd045e32bd77f1f3beff7ee0cd832b6f3c73d89883d2647238a9420e7230a17db",
                    "timestamp" : "0x03e8",
                    "transactionsTrie" : "0xee4f0989c8bce536ef1c431ef987e7688befb6ecb609b813b915d3ad6136d56a",
                    "uncleHash" : "0x1dcc4de8dec75d7aab85b567b6ccd41ad312451b948a7413f0a142fd40d49347"
                },
                "transactions" : [
                    {
                        "data" : "0x7f00000000000000000000000000000000000000000000000000000000000000017fffffffffffffffffffffffffffffffffffffffffffffffffffffffffffffffff7f000000000000000000000000945304eb96065b2a98b57a48a06ae28d285a71b57f000000000000000000000000ffffffffffffffffffffffffffffffffffffffff7f000000000000000000000000ffffffffffffffffffffffffffffffffffffffff7f0000000000000000000000000000000000000000000000000000000000000001847f00000000000000000000000100000000000000000000000000000000000000003a076152",
                        "gasLimit" : "0x74d0d631",
                        "gasPrice" : "0x0a",
                        "nonce" : "0x00",
                        "to" : "0x095e7baea6a6c7c4c2dfeb977efac326af552d87",
                        "value" : "0x70d690f4",
                        "v" : "0x1c",
                        "r" : "0x86810c1cf5f6c4bd42598825f5a56bba87d1936a8b903ec96fec3473ab72fadb",
                        "s" : "0x0878f4ddf03e977282bc7ac4a1c5ae58519fe0e8f8be4d5927dff0ceefedf945"
                    }
                ],
                "uncleHeaders" : [
                ]
            }
        ]
    },
    "randomStatetest533_d0g0v0_Istanbul" : {
        "_info" : {
            "comment" : "",
            "filling-rpc-server" : "evm version 1.10.4-unstable-966ee3ae-20210528",
            "filling-tool-version" : "retesteth-0.1.1-eip1559+commit.658fc3a8.Linux.g++",
            "lllcversion" : "Version: 0.5.14-develop.2021.5.18+commit.14c9d5de.mod.Linux.g++",
            "source" : "src/GeneralStateTestsFiller/stRandom2/randomStatetest533Filler.json",
            "sourceHash" : "1f3bb25ed614f327e491f1189e13c52aa41a77ff4d86779fc67efcd6d0d4df7f"
        },
        "genesisBlockHeader" : {
            "bloom" : "0x00000000000000000000000000000000000000000000000000000000000000000000000000000000000000000000000000000000000000000000000000000000000000000000000000000000000000000000000000000000000000000000000000000000000000000000000000000000000000000000000000000000000000000000000000000000000000000000000000000000000000000000000000000000000000000000000000000000000000000000000000000000000000000000000000000000000000000000000000000000000000000000000000000000000000000000000000000000000000000000000000000000000000000000000000000000",
            "coinbase" : "0x945304eb96065b2a98b57a48a06ae28d285a71b5",
            "difficulty" : "0x020000",
            "extraData" : "0x00",
            "gasLimit" : "0x7fffffffffffffff",
            "gasUsed" : "0x00",
            "hash" : "0x28802eaf7889d331ea03beba903587da580e95ecb449334dcb15821e68263517",
            "mixHash" : "0x0000000000000000000000000000000000000000000000000000000000000000",
            "nonce" : "0x0000000000000000",
            "number" : "0x00",
            "parentHash" : "0x0000000000000000000000000000000000000000000000000000000000000000",
            "receiptTrie" : "0x56e81f171bcc55a6ff8345e692c0f86e5b48e01b996cadc001622fb5e363b421",
            "stateRoot" : "0xe9bfd105cb042228081b9497f194517f7579f4fa2433676af4b29009d9a6b92d",
            "timestamp" : "0x00",
            "transactionsTrie" : "0x56e81f171bcc55a6ff8345e692c0f86e5b48e01b996cadc001622fb5e363b421",
            "uncleHash" : "0x1dcc4de8dec75d7aab85b567b6ccd41ad312451b948a7413f0a142fd40d49347"
        },
        "pre" : {
            "0x095e7baea6a6c7c4c2dfeb977efac326af552d87" : {
                "balance" : "0x00",
                "code" : "0x7f00000000000000000000000000000000000000000000000000000000000000017fffffffffffffffffffffffffffffffffffffffffffffffffffffffffffffffff7f000000000000000000000000945304eb96065b2a98b57a48a06ae28d285a71b57f000000000000000000000000ffffffffffffffffffffffffffffffffffffffff7f000000000000000000000000ffffffffffffffffffffffffffffffffffffffff7f0000000000000000000000000000000000000000000000000000000000000001847f00000000000000000000000100000000000000000000000000000000000000003a0761525560005155",
                "nonce" : "0x00",
                "storage" : {
                }
            },
            "0x945304eb96065b2a98b57a48a06ae28d285a71b5" : {
                "balance" : "0x2e",
                "code" : "0x6000355415600957005b60203560003555",
                "nonce" : "0x00",
                "storage" : {
                }
            },
            "0xa94f5374fce5edbc8e2a8697c15331677e6ebf0b" : {
                "balance" : "0x0de0b6b3a7640000",
                "code" : "0x",
                "nonce" : "0x00",
                "storage" : {
                }
            }
        },
        "postState" : {
            "0x095e7baea6a6c7c4c2dfeb977efac326af552d87" : {
                "code" : "0x7f00000000000000000000000000000000000000000000000000000000000000017fffffffffffffffffffffffffffffffffffffffffffffffffffffffffffffffff7f000000000000000000000000945304eb96065b2a98b57a48a06ae28d285a71b57f000000000000000000000000ffffffffffffffffffffffffffffffffffffffff7f000000000000000000000000ffffffffffffffffffffffffffffffffffffffff7f0000000000000000000000000000000000000000000000000000000000000001847f00000000000000000000000100000000000000000000000000000000000000003a0761525560005155",
                "nonce" : "0x00",
                "balance" : "0x70d690f4",
                "storage" : {
                    "0x00" : "0x5255"
                }
            },
            "0x945304eb96065b2a98b57a48a06ae28d285a71b5" : {
                "code" : "0x6000355415600957005b60203560003555",
                "nonce" : "0x00",
                "balance" : "0x1bc16d674ece9a74",
                "storage" : {
                }
            },
            "0xa94f5374fce5edbc8e2a8697c15331677e6ebf0b" : {
                "code" : "0x",
                "nonce" : "0x01",
                "balance" : "0x0de0b6b33686d4c6",
                "storage" : {
                }
            }
        },
        "network" : "Istanbul",
        "sealEngine" : "NoProof",
        "lastblockhash" : "0x6017d3663be493fe635402406bb8ac32279590361255cbfa5b4280107ec35c93",
        "genesisRLP" : "0xf901fdf901f8a00000000000000000000000000000000000000000000000000000000000000000a01dcc4de8dec75d7aab85b567b6ccd41ad312451b948a7413f0a142fd40d4934794945304eb96065b2a98b57a48a06ae28d285a71b5a0e9bfd105cb042228081b9497f194517f7579f4fa2433676af4b29009d9a6b92da056e81f171bcc55a6ff8345e692c0f86e5b48e01b996cadc001622fb5e363b421a056e81f171bcc55a6ff8345e692c0f86e5b48e01b996cadc001622fb5e363b421b90100000000000000000000000000000000000000000000000000000000000000000000000000000000000000000000000000000000000000000000000000000000000000000000000000000000000000000000000000000000000000000000000000000000000000000000000000000000000000000000000000000000000000000000000000000000000000000000000000000000000000000000000000000000000000000000000000000000000000000000000000000000000000000000000000000000000000000000000000000000000000000000000000000000000000000000000000000000000000000000000000000000000000000000000000000000008302000080887fffffffffffffff808000a00000000000000000000000000000000000000000000000000000000000000000880000000000000000c0c0",
        "blocks" : [
            {
                "rlp" : "0xf90358f901fca028802eaf7889d331ea03beba903587da580e95ecb449334dcb15821e68263517a01dcc4de8dec75d7aab85b567b6ccd41ad312451b948a7413f0a142fd40d4934794945304eb96065b2a98b57a48a06ae28d285a71b5a03834c585f4929a5ec5a79ed0957a4b29e45e4b02eab81f7542d4fab79ad52601a0ee4f0989c8bce536ef1c431ef987e7688befb6ecb609b813b915d3ad6136d56aa0c12c0a6204237acd6f0be57cdc5371e43c86b47b700661769ba71e9720cd08fdb90100000000000000000000000000000000000000000000000000000000000000000000000000000000000000000000000000000000000000000000000000000000000000000000000000000000000000000000000000000000000000000000000000000000000000000000000000000000000000000000000000000000000000000000000000000000000000000000000000000000000000000000000000000000000000000000000000000000000000000000000000000000000000000000000000000000000000000000000000000000000000000000000000000000000000000000000000000000000000000000000000000000000000000000000000000000008302000001887fffffffffffffff82a9078203e800a00000000000000000000000000000000000000000000000000000000000000000880000000000000000f90155f90152800a8474d0d63194095e7baea6a6c7c4c2dfeb977efac326af552d878470d690f4b8ec7f00000000000000000000000000000000000000000000000000000000000000017fffffffffffffffffffffffffffffffffffffffffffffffffffffffffffffffff7f000000000000000000000000945304eb96065b2a98b57a48a06ae28d285a71b57f000000000000000000000000ffffffffffffffffffffffffffffffffffffffff7f000000000000000000000000ffffffffffffffffffffffffffffffffffffffff7f0000000000000000000000000000000000000000000000000000000000000001847f00000000000000000000000100000000000000000000000000000000000000003a0761521ca086810c1cf5f6c4bd42598825f5a56bba87d1936a8b903ec96fec3473ab72fadba00878f4ddf03e977282bc7ac4a1c5ae58519fe0e8f8be4d5927dff0ceefedf945c0",
                "blockHeader" : {
                    "bloom" : "0x00000000000000000000000000000000000000000000000000000000000000000000000000000000000000000000000000000000000000000000000000000000000000000000000000000000000000000000000000000000000000000000000000000000000000000000000000000000000000000000000000000000000000000000000000000000000000000000000000000000000000000000000000000000000000000000000000000000000000000000000000000000000000000000000000000000000000000000000000000000000000000000000000000000000000000000000000000000000000000000000000000000000000000000000000000000",
                    "coinbase" : "0x945304eb96065b2a98b57a48a06ae28d285a71b5",
                    "difficulty" : "0x020000",
                    "extraData" : "0x00",
                    "gasLimit" : "0x7fffffffffffffff",
                    "gasUsed" : "0xa907",
                    "hash" : "0x6017d3663be493fe635402406bb8ac32279590361255cbfa5b4280107ec35c93",
                    "mixHash" : "0x0000000000000000000000000000000000000000000000000000000000000000",
                    "nonce" : "0x0000000000000000",
                    "number" : "0x01",
                    "parentHash" : "0x28802eaf7889d331ea03beba903587da580e95ecb449334dcb15821e68263517",
                    "receiptTrie" : "0xc12c0a6204237acd6f0be57cdc5371e43c86b47b700661769ba71e9720cd08fd",
                    "stateRoot" : "0x3834c585f4929a5ec5a79ed0957a4b29e45e4b02eab81f7542d4fab79ad52601",
                    "timestamp" : "0x03e8",
                    "transactionsTrie" : "0xee4f0989c8bce536ef1c431ef987e7688befb6ecb609b813b915d3ad6136d56a",
                    "uncleHash" : "0x1dcc4de8dec75d7aab85b567b6ccd41ad312451b948a7413f0a142fd40d49347"
                },
                "transactions" : [
                    {
                        "data" : "0x7f00000000000000000000000000000000000000000000000000000000000000017fffffffffffffffffffffffffffffffffffffffffffffffffffffffffffffffff7f000000000000000000000000945304eb96065b2a98b57a48a06ae28d285a71b57f000000000000000000000000ffffffffffffffffffffffffffffffffffffffff7f000000000000000000000000ffffffffffffffffffffffffffffffffffffffff7f0000000000000000000000000000000000000000000000000000000000000001847f00000000000000000000000100000000000000000000000000000000000000003a076152",
                        "gasLimit" : "0x74d0d631",
                        "gasPrice" : "0x0a",
                        "nonce" : "0x00",
                        "to" : "0x095e7baea6a6c7c4c2dfeb977efac326af552d87",
                        "value" : "0x70d690f4",
                        "v" : "0x1c",
                        "r" : "0x86810c1cf5f6c4bd42598825f5a56bba87d1936a8b903ec96fec3473ab72fadb",
                        "s" : "0x0878f4ddf03e977282bc7ac4a1c5ae58519fe0e8f8be4d5927dff0ceefedf945"
                    }
                ],
                "uncleHeaders" : [
                ]
            }
        ]
    },
    "randomStatetest533_d0g0v0_London" : {
        "_info" : {
            "comment" : "",
            "filling-rpc-server" : "evm version 1.10.4-unstable-966ee3ae-20210528",
            "filling-tool-version" : "retesteth-0.1.1-eip1559+commit.658fc3a8.Linux.g++",
            "lllcversion" : "Version: 0.5.14-develop.2021.5.18+commit.14c9d5de.mod.Linux.g++",
            "source" : "src/GeneralStateTestsFiller/stRandom2/randomStatetest533Filler.json",
            "sourceHash" : "1f3bb25ed614f327e491f1189e13c52aa41a77ff4d86779fc67efcd6d0d4df7f"
        },
        "genesisBlockHeader" : {
            "bloom" : "0x00000000000000000000000000000000000000000000000000000000000000000000000000000000000000000000000000000000000000000000000000000000000000000000000000000000000000000000000000000000000000000000000000000000000000000000000000000000000000000000000000000000000000000000000000000000000000000000000000000000000000000000000000000000000000000000000000000000000000000000000000000000000000000000000000000000000000000000000000000000000000000000000000000000000000000000000000000000000000000000000000000000000000000000000000000000",
            "coinbase" : "0x945304eb96065b2a98b57a48a06ae28d285a71b5",
            "difficulty" : "0x020000",
            "extraData" : "0x00",
            "gasLimit" : "0x7fffffffffffffff",
            "gasUsed" : "0x00",
            "hash" : "0x7ee9b7125139d5e8bdd6231b9142e4e33b71057368cc8bd27bddba39f0c62eef",
            "mixHash" : "0x0000000000000000000000000000000000000000000000000000000000000000",
            "nonce" : "0x0000000000000000",
            "number" : "0x00",
            "parentHash" : "0x0000000000000000000000000000000000000000000000000000000000000000",
            "receiptTrie" : "0x56e81f171bcc55a6ff8345e692c0f86e5b48e01b996cadc001622fb5e363b421",
            "stateRoot" : "0xe9bfd105cb042228081b9497f194517f7579f4fa2433676af4b29009d9a6b92d",
            "timestamp" : "0x00",
            "transactionsTrie" : "0x56e81f171bcc55a6ff8345e692c0f86e5b48e01b996cadc001622fb5e363b421",
            "uncleHash" : "0x1dcc4de8dec75d7aab85b567b6ccd41ad312451b948a7413f0a142fd40d49347",
            "baseFee" : "0x0b"
        },
        "pre" : {
            "0x095e7baea6a6c7c4c2dfeb977efac326af552d87" : {
                "balance" : "0x00",
                "code" : "0x7f00000000000000000000000000000000000000000000000000000000000000017fffffffffffffffffffffffffffffffffffffffffffffffffffffffffffffffff7f000000000000000000000000945304eb96065b2a98b57a48a06ae28d285a71b57f000000000000000000000000ffffffffffffffffffffffffffffffffffffffff7f000000000000000000000000ffffffffffffffffffffffffffffffffffffffff7f0000000000000000000000000000000000000000000000000000000000000001847f00000000000000000000000100000000000000000000000000000000000000003a0761525560005155",
                "nonce" : "0x00",
                "storage" : {
                }
            },
            "0x945304eb96065b2a98b57a48a06ae28d285a71b5" : {
                "balance" : "0x2e",
                "code" : "0x6000355415600957005b60203560003555",
                "nonce" : "0x00",
                "storage" : {
                }
            },
            "0xa94f5374fce5edbc8e2a8697c15331677e6ebf0b" : {
                "balance" : "0x0de0b6b3a7640000",
                "code" : "0x",
                "nonce" : "0x00",
                "storage" : {
                }
            }
        },
        "postState" : {
            "0x095e7baea6a6c7c4c2dfeb977efac326af552d87" : {
                "code" : "0x7f00000000000000000000000000000000000000000000000000000000000000017fffffffffffffffffffffffffffffffffffffffffffffffffffffffffffffffff7f000000000000000000000000945304eb96065b2a98b57a48a06ae28d285a71b57f000000000000000000000000ffffffffffffffffffffffffffffffffffffffff7f000000000000000000000000ffffffffffffffffffffffffffffffffffffffff7f0000000000000000000000000000000000000000000000000000000000000001847f00000000000000000000000100000000000000000000000000000000000000003a0761525560005155",
                "nonce" : "0x00",
                "balance" : "0x70d690f4",
                "storage" : {
                    "0x00" : "0x5255"
                }
            },
            "0x945304eb96065b2a98b57a48a06ae28d285a71b5" : {
                "code" : "0x6000355415600957005b60203560003555",
                "nonce" : "0x00",
                "balance" : "0x1bc16d674ec8002e",
                "storage" : {
                }
            },
            "0xa94f5374fce5edbc8e2a8697c15331677e6ebf0b" : {
                "code" : "0x",
                "nonce" : "0x01",
                "balance" : "0x0de0b6b3368682be",
                "storage" : {
                }
            }
        },
        "network" : "London",
        "sealEngine" : "NoProof",
        "lastblockhash" : "0x1e6fee7320ce5bf55f6b22f08016802449831dc3f2a1d256bcfe9ff9fc216b87",
        "genesisRLP" : "0xf901fef901f9a00000000000000000000000000000000000000000000000000000000000000000a01dcc4de8dec75d7aab85b567b6ccd41ad312451b948a7413f0a142fd40d4934794945304eb96065b2a98b57a48a06ae28d285a71b5a0e9bfd105cb042228081b9497f194517f7579f4fa2433676af4b29009d9a6b92da056e81f171bcc55a6ff8345e692c0f86e5b48e01b996cadc001622fb5e363b421a056e81f171bcc55a6ff8345e692c0f86e5b48e01b996cadc001622fb5e363b421b90100000000000000000000000000000000000000000000000000000000000000000000000000000000000000000000000000000000000000000000000000000000000000000000000000000000000000000000000000000000000000000000000000000000000000000000000000000000000000000000000000000000000000000000000000000000000000000000000000000000000000000000000000000000000000000000000000000000000000000000000000000000000000000000000000000000000000000000000000000000000000000000000000000000000000000000000000000000000000000000000000000000000000000000000000000000008302000080887fffffffffffffff808000a000000000000000000000000000000000000000000000000000000000000000008800000000000000000bc0c0",
        "blocks" : [
            {
                "rlp" : "0xf90359f901fda07ee9b7125139d5e8bdd6231b9142e4e33b71057368cc8bd27bddba39f0c62eefa01dcc4de8dec75d7aab85b567b6ccd41ad312451b948a7413f0a142fd40d4934794945304eb96065b2a98b57a48a06ae28d285a71b5a0c97f0ca1876869cd8d2ee9a6a167fbf9f6e871585fd59239235a96bcbae2db55a0ee4f0989c8bce536ef1c431ef987e7688befb6ecb609b813b915d3ad6136d56aa040fc93af60b3ea60d910576d6f704e77469c803e7676a3eeaddea8291596969db90100000000000000000000000000000000000000000000000000000000000000000000000000000000000000000000000000000000000000000000000000000000000000000000000000000000000000000000000000000000000000000000000000000000000000000000000000000000000000000000000000000000000000000000000000000000000000000000000000000000000000000000000000000000000000000000000000000000000000000000000000000000000000000000000000000000000000000000000000000000000000000000000000000000000000000000000000000000000000000000000000000000000000000000000000000000008302000001887fffffffffffffff82b13b8203e800a000000000000000000000000000000000000000000000000000000000000000008800000000000000000af90155f90152800a8474d0d63194095e7baea6a6c7c4c2dfeb977efac326af552d878470d690f4b8ec7f00000000000000000000000000000000000000000000000000000000000000017fffffffffffffffffffffffffffffffffffffffffffffffffffffffffffffffff7f000000000000000000000000945304eb96065b2a98b57a48a06ae28d285a71b57f000000000000000000000000ffffffffffffffffffffffffffffffffffffffff7f000000000000000000000000ffffffffffffffffffffffffffffffffffffffff7f0000000000000000000000000000000000000000000000000000000000000001847f00000000000000000000000100000000000000000000000000000000000000003a0761521ca086810c1cf5f6c4bd42598825f5a56bba87d1936a8b903ec96fec3473ab72fadba00878f4ddf03e977282bc7ac4a1c5ae58519fe0e8f8be4d5927dff0ceefedf945c0",
                "blockHeader" : {
                    "bloom" : "0x00000000000000000000000000000000000000000000000000000000000000000000000000000000000000000000000000000000000000000000000000000000000000000000000000000000000000000000000000000000000000000000000000000000000000000000000000000000000000000000000000000000000000000000000000000000000000000000000000000000000000000000000000000000000000000000000000000000000000000000000000000000000000000000000000000000000000000000000000000000000000000000000000000000000000000000000000000000000000000000000000000000000000000000000000000000",
                    "coinbase" : "0x945304eb96065b2a98b57a48a06ae28d285a71b5",
                    "difficulty" : "0x020000",
                    "extraData" : "0x00",
                    "gasLimit" : "0x7fffffffffffffff",
                    "gasUsed" : "0xb13b",
                    "hash" : "0x1e6fee7320ce5bf55f6b22f08016802449831dc3f2a1d256bcfe9ff9fc216b87",
                    "mixHash" : "0x0000000000000000000000000000000000000000000000000000000000000000",
                    "nonce" : "0x0000000000000000",
                    "number" : "0x01",
                    "parentHash" : "0x7ee9b7125139d5e8bdd6231b9142e4e33b71057368cc8bd27bddba39f0c62eef",
                    "receiptTrie" : "0x40fc93af60b3ea60d910576d6f704e77469c803e7676a3eeaddea8291596969d",
                    "stateRoot" : "0xc97f0ca1876869cd8d2ee9a6a167fbf9f6e871585fd59239235a96bcbae2db55",
                    "timestamp" : "0x03e8",
                    "transactionsTrie" : "0xee4f0989c8bce536ef1c431ef987e7688befb6ecb609b813b915d3ad6136d56a",
                    "uncleHash" : "0x1dcc4de8dec75d7aab85b567b6ccd41ad312451b948a7413f0a142fd40d49347",
                    "baseFee" : "0x0a"
                },
                "transactions" : [
                    {
                        "data" : "0x7f00000000000000000000000000000000000000000000000000000000000000017fffffffffffffffffffffffffffffffffffffffffffffffffffffffffffffffff7f000000000000000000000000945304eb96065b2a98b57a48a06ae28d285a71b57f000000000000000000000000ffffffffffffffffffffffffffffffffffffffff7f000000000000000000000000ffffffffffffffffffffffffffffffffffffffff7f0000000000000000000000000000000000000000000000000000000000000001847f00000000000000000000000100000000000000000000000000000000000000003a076152",
                        "gasLimit" : "0x74d0d631",
                        "gasPrice" : "0x0a",
                        "nonce" : "0x00",
                        "to" : "0x095e7baea6a6c7c4c2dfeb977efac326af552d87",
                        "value" : "0x70d690f4",
                        "v" : "0x1c",
                        "r" : "0x86810c1cf5f6c4bd42598825f5a56bba87d1936a8b903ec96fec3473ab72fadb",
                        "s" : "0x0878f4ddf03e977282bc7ac4a1c5ae58519fe0e8f8be4d5927dff0ceefedf945"
                    }
                ],
                "uncleHeaders" : [
                ]
            }
        ]
    }
}