{
    "incorrectUncleNumber1_Berlin" : {
        "_info" : {
            "comment" : "",
            "filling-rpc-server" : "evm version 1.10.4-unstable-966ee3ae-20210528",
            "filling-tool-version" : "retesteth-0.1.1-eip1559+commit.658fc3a8.Linux.g++",
            "lllcversion" : "Version: 0.5.14-develop.2021.5.18+commit.14c9d5de.mod.Linux.g++",
            "source" : "src/BlockchainTestsFiller/InvalidBlocks/bcUncleHeaderValidity/incorrectUncleNumber1Filler.json",
            "sourceHash" : "5ece35711b6b4cfb77a9e26a4fc7002d0445f76a1a3ea3313314045b31615b7d"
        },
        "sealEngine" : "NoProof",
        "network" : "Berlin",
        "pre" : {
            "0xa94f5374fce5edbc8e2a8697c15331677e6ebf0b" : {
                "balance" : "0x09184e72a000",
                "code" : "0x",
                "nonce" : "0x00",
                "storage" : {
                }
            }
        },
        "genesisBlockHeader" : {
            "bloom" : "0x00000000000000000000000000000000000000000000000000000000000000000000000000000000000000000000000000000000000000000000000000000000000000000000000000000000000000000000000000000000000000000000000000000000000000000000000000000000000000000000000000000000000000000000000000000000000000000000000000000000000000000000000000000000000000000000000000000000000000000000000000000000000000000000000000000000000000000000000000000000000000000000000000000000000000000000000000000000000000000000000000000000000000000000000000000000",
            "coinbase" : "0x8888f1f195afa192cfee860698584c030f4c9db1",
            "difficulty" : "0x020000",
            "extraData" : "0x42",
            "gasLimit" : "0x2fefd8",
            "gasUsed" : "0x00",
            "hash" : "0x2b253498ad5e63a16978753398bad1fde371a3e513438297b52d65dc98e1db29",
            "mixHash" : "0x0000000000000000000000000000000000000000000000000000000000000000",
            "nonce" : "0x0000000000000000",
            "number" : "0x00",
            "parentHash" : "0x0000000000000000000000000000000000000000000000000000000000000000",
            "receiptTrie" : "0x56e81f171bcc55a6ff8345e692c0f86e5b48e01b996cadc001622fb5e363b421",
            "stateRoot" : "0x7dba07d6b448a186e9612e5f737d1c909dce473e53199901a302c00646d523c1",
            "timestamp" : "0x54c98c81",
            "transactionsTrie" : "0x56e81f171bcc55a6ff8345e692c0f86e5b48e01b996cadc001622fb5e363b421",
            "uncleHash" : "0x1dcc4de8dec75d7aab85b567b6ccd41ad312451b948a7413f0a142fd40d49347"
        },
        "genesisRLP" : "0xf901fcf901f7a00000000000000000000000000000000000000000000000000000000000000000a01dcc4de8dec75d7aab85b567b6ccd41ad312451b948a7413f0a142fd40d49347948888f1f195afa192cfee860698584c030f4c9db1a07dba07d6b448a186e9612e5f737d1c909dce473e53199901a302c00646d523c1a056e81f171bcc55a6ff8345e692c0f86e5b48e01b996cadc001622fb5e363b421a056e81f171bcc55a6ff8345e692c0f86e5b48e01b996cadc001622fb5e363b421b90100000000000000000000000000000000000000000000000000000000000000000000000000000000000000000000000000000000000000000000000000000000000000000000000000000000000000000000000000000000000000000000000000000000000000000000000000000000000000000000000000000000000000000000000000000000000000000000000000000000000000000000000000000000000000000000000000000000000000000000000000000000000000000000000000000000000000000000000000000000000000000000000000000000000000000000000000000000000000000000000000000000000000000000000000000000008302000080832fefd8808454c98c8142a00000000000000000000000000000000000000000000000000000000000000000880000000000000000c0c0",
        "blocks" : [
            {
                "chainname" : "default",
                "blocknumber" : "1",
                "uncleHeaders" : [
                ],
                "blockHeader" : {
                    "bloom" : "0x00000000000000000000000000000000000000000000000000000000000000000000000000000000000000000000000000000000000000000000000000000000000000000000000000000000000000000000000000000000000000000000000000000000000000000000000000000000000000000000000000000000000000000000000000000000000000000000000000000000000000000000000000000000000000000000000000000000000000000000000000000000000000000000000000000000000000000000000000000000000000000000000000000000000000000000000000000000000000000000000000000000000000000000000000000000",
                    "coinbase" : "0x8888f1f195afa192cfee860698584c030f4c9db1",
                    "difficulty" : "0x020000",
                    "extraData" : "0x42",
                    "gasLimit" : "0x2fefd8",
                    "gasUsed" : "0x5208",
                    "hash" : "0xa4b71270e83c38d941d61fc2d8f3842f98a83203b82c3dea3176f1feb5a67b17",
                    "mixHash" : "0x0000000000000000000000000000000000000000000000000000000000000000",
                    "nonce" : "0x0000000000000000",
                    "number" : "0x01",
                    "parentHash" : "0x2b253498ad5e63a16978753398bad1fde371a3e513438297b52d65dc98e1db29",
                    "receiptTrie" : "0x056b23fbba480696b65fe5a59b8f2148a1299103c4f57df839233af2cf4ca2d2",
                    "stateRoot" : "0xf52ec6538593f973eb7bc0990f35185d73cb701c2534ee493f158c919070c7a0",
                    "timestamp" : "0x54c99069",
                    "transactionsTrie" : "0xffaa3736dfb643087cb20308a8b016ebba03684b555114d6533b5c2f9951e252",
                    "uncleHash" : "0x1dcc4de8dec75d7aab85b567b6ccd41ad312451b948a7413f0a142fd40d49347"
                },
                "transactions" : [
                    {
                        "data" : "0x",
                        "gasLimit" : "0x04cb2f",
                        "gasPrice" : "0x03e8",
                        "nonce" : "0x00",
                        "r" : "0x25d49a54362b5ae38cf895fa9a1d3ded6f7d5577e572c9a93cdebff6e33ceaf7",
                        "s" : "0x773806df18e22db29acde1dd96c0418e28738af7f520e5e2c5c673494029e5",
                        "to" : "0x095e7baea6a6c7c4c2dfeb977efac326af552d87",
                        "v" : "0x1b",
                        "value" : "0x0a"
                    }
                ],
                "rlp" : "0xf90262f901f9a02b253498ad5e63a16978753398bad1fde371a3e513438297b52d65dc98e1db29a01dcc4de8dec75d7aab85b567b6ccd41ad312451b948a7413f0a142fd40d49347948888f1f195afa192cfee860698584c030f4c9db1a0f52ec6538593f973eb7bc0990f35185d73cb701c2534ee493f158c919070c7a0a0ffaa3736dfb643087cb20308a8b016ebba03684b555114d6533b5c2f9951e252a0056b23fbba480696b65fe5a59b8f2148a1299103c4f57df839233af2cf4ca2d2b90100000000000000000000000000000000000000000000000000000000000000000000000000000000000000000000000000000000000000000000000000000000000000000000000000000000000000000000000000000000000000000000000000000000000000000000000000000000000000000000000000000000000000000000000000000000000000000000000000000000000000000000000000000000000000000000000000000000000000000000000000000000000000000000000000000000000000000000000000000000000000000000000000000000000000000000000000000000000000000000000000000000000000000000000000000000008302000001832fefd88252088454c9906942a00000000000000000000000000000000000000000000000000000000000000000880000000000000000f863f861808203e88304cb2f94095e7baea6a6c7c4c2dfeb977efac326af552d870a801ba025d49a54362b5ae38cf895fa9a1d3ded6f7d5577e572c9a93cdebff6e33ceaf79f773806df18e22db29acde1dd96c0418e28738af7f520e5e2c5c673494029e5c0"
            },
            {
                "chainname" : "default",
                "blocknumber" : "2",
                "uncleHeaders" : [
                ],
                "blockHeader" : {
                    "bloom" : "0x00000000000000000000000000000000000000000000000000000000000000000000000000000000000000000000000000000000000000000000000000000000000000000000000000000000000000000000000000000000000000000000000000000000000000000000000000000000000000000000000000000000000000000000000000000000000000000000000000000000000000000000000000000000000000000000000000000000000000000000000000000000000000000000000000000000000000000000000000000000000000000000000000000000000000000000000000000000000000000000000000000000000000000000000000000000",
                    "coinbase" : "0x8888f1f195afa192cfee860698584c030f4c9db1",
                    "difficulty" : "0x020000",
                    "extraData" : "0x42",
                    "gasLimit" : "0x2fefd8",
                    "gasUsed" : "0x5208",
                    "hash" : "0x579d2bdb721bde7a6bc56b53f4962a58493ee11482e8f738702ddb3d65888a74",
                    "mixHash" : "0x0000000000000000000000000000000000000000000000000000000000000000",
                    "nonce" : "0x0000000000000000",
                    "number" : "0x02",
                    "parentHash" : "0xa4b71270e83c38d941d61fc2d8f3842f98a83203b82c3dea3176f1feb5a67b17",
                    "receiptTrie" : "0x056b23fbba480696b65fe5a59b8f2148a1299103c4f57df839233af2cf4ca2d2",
                    "stateRoot" : "0xf108eba9530018f619c5e2a0de8369e69fc37a60ea7f95b1ce8211ca734f67df",
                    "timestamp" : "0x54c99451",
                    "transactionsTrie" : "0x1c83d6cff665d2addd1518b5e90a31b785d16bbe8d67c0da4d69c705f14b2587",
                    "uncleHash" : "0x1dcc4de8dec75d7aab85b567b6ccd41ad312451b948a7413f0a142fd40d49347"
                },
                "transactions" : [
                    {
                        "data" : "0x",
                        "gasLimit" : "0x04cb2f",
                        "gasPrice" : "0x03e8",
                        "nonce" : "0x01",
                        "r" : "0x65cf104abe6db76c9030ee607e3c97cd5f4554939192c2fb5532d3adccebc002",
                        "s" : "0x7d88e05cf1a2573062e148921a76f7d4d0270fad075dc396ac79afad8fd5aaf8",
                        "to" : "0x095e7baea6a6c7c4c2dfeb977efac326af552d87",
                        "v" : "0x1b",
                        "value" : "0x0a"
                    }
                ],
                "rlp" : "0xf90263f901f9a0a4b71270e83c38d941d61fc2d8f3842f98a83203b82c3dea3176f1feb5a67b17a01dcc4de8dec75d7aab85b567b6ccd41ad312451b948a7413f0a142fd40d49347948888f1f195afa192cfee860698584c030f4c9db1a0f108eba9530018f619c5e2a0de8369e69fc37a60ea7f95b1ce8211ca734f67dfa01c83d6cff665d2addd1518b5e90a31b785d16bbe8d67c0da4d69c705f14b2587a0056b23fbba480696b65fe5a59b8f2148a1299103c4f57df839233af2cf4ca2d2b90100000000000000000000000000000000000000000000000000000000000000000000000000000000000000000000000000000000000000000000000000000000000000000000000000000000000000000000000000000000000000000000000000000000000000000000000000000000000000000000000000000000000000000000000000000000000000000000000000000000000000000000000000000000000000000000000000000000000000000000000000000000000000000000000000000000000000000000000000000000000000000000000000000000000000000000000000000000000000000000000000000000000000000000000000000000008302000002832fefd88252088454c9945142a00000000000000000000000000000000000000000000000000000000000000000880000000000000000f864f862018203e88304cb2f94095e7baea6a6c7c4c2dfeb977efac326af552d870a801ba065cf104abe6db76c9030ee607e3c97cd5f4554939192c2fb5532d3adccebc002a07d88e05cf1a2573062e148921a76f7d4d0270fad075dc396ac79afad8fd5aaf8c0"
            },
            {
                "chainname" : "default",
                "blocknumber" : "3",
                "expectException" : "InvalidNumber",
                "rlp" : "0xf9045ff901f9a0579d2bdb721bde7a6bc56b53f4962a58493ee11482e8f738702ddb3d65888a74a0b99da9971d91e954075b2c99f6632268f0237e4e60987cb7b04792c55ce4e068948888f1f195afa192cfee860698584c030f4c9db1a0625ac4e4d532a2f45d4ba9e03451c9fbc8d16f1b8f2a2b599d646e1a77c1114fa08c8775e959d553f9f991a21a8502dbe6819c53c518711f2cbbbd7ed998f65647a0056b23fbba480696b65fe5a59b8f2148a1299103c4f57df839233af2cf4ca2d2b90100000000000000000000000000000000000000000000000000000000000000000000000000000000000000000000000000000000000000000000000000000000000000000000000000000000000000000000000000000000000000000000000000000000000000000000000000000000000000000000000000000000000000000000000000000000000000000000000000000000000000000000000000000000000000000000000000000000000000000000000000000000000000000000000000000000000000000000000000000000000000000000000000000000000000000000000000000000000000000000000000000000000000000000000000000000008302000003832fefd88252088454c9983942a00000000000000000000000000000000000000000000000000000000000000000880000000000000000f864f862028203e88304cb2f94095e7baea6a6c7c4c2dfeb977efac326af552d870a801ba039ec4047c2bd7a6c32b764b7067c9becd83668856736e3d85b3994eb2adaa7cea020650892ef41b613656e25663a0d990436198c3ef617a8d820658db19aab1b56f901faf901f7a0a4b71270e83c38d941d61fc2d8f3842f98a83203b82c3dea3176f1feb5a67b17a01dcc4de8dec75d7aab85b567b6ccd41ad312451b948a7413f0a142fd40d4934794b94f5374fce5ed0000000097c15331677e6ebf0ba06b55aa1867b537cdde7cff574ba6c7a255a11031d05f1fdf34e3dde94bc144daa056e81f171bcc55a6ff8345e692c0f86e5b48e01b996cadc001622fb5e363b421a056e81f171bcc55a6ff8345e692c0f86e5b48e01b996cadc001622fb5e363b421b90100000000000000000000000000000000000000000000000000000000000000000000000000000000000000000000000000000000000000000000000000000000000000000000000000000000000000000000000000000000000000000000000000000000000000000000000000000000000000000000000000000000000000000000000000000000000000000000000000000000000000000000000000000000000000000000000000000000000000000000000000000000000000000000000000000000000000000000000000000000000000000000000000000000000000000000000000000000000000000000000000000000000000000000000000000000008302000001832fefd8808454c9945142a00000000000000000000000000000000000000000000000000000000000000000880000000000000000"
            }
        ],
        "postState" : {
            "0x095e7baea6a6c7c4c2dfeb977efac326af552d87" : {
                "code" : "0x",
                "nonce" : "0x00",
                "balance" : "0x14",
                "storage" : {
                }
            },
            "0x8888f1f195afa192cfee860698584c030f4c9db1" : {
                "code" : "0x",
                "nonce" : "0x00",
                "balance" : "0x3782dacea010de80",
                "storage" : {
                }
            },
            "0xa94f5374fce5edbc8e2a8697c15331677e6ebf0b" : {
                "code" : "0x",
                "nonce" : "0x02",
                "balance" : "0x09184bf1c16c",
                "storage" : {
                }
            }
        },
        "lastblockhash" : "0x579d2bdb721bde7a6bc56b53f4962a58493ee11482e8f738702ddb3d65888a74"
    },
    "incorrectUncleNumber1_Istanbul" : {
        "_info" : {
            "comment" : "",
            "filling-rpc-server" : "evm version 1.10.4-unstable-966ee3ae-20210528",
            "filling-tool-version" : "retesteth-0.1.1-eip1559+commit.658fc3a8.Linux.g++",
            "lllcversion" : "Version: 0.5.14-develop.2021.5.18+commit.14c9d5de.mod.Linux.g++",
            "source" : "src/BlockchainTestsFiller/InvalidBlocks/bcUncleHeaderValidity/incorrectUncleNumber1Filler.json",
            "sourceHash" : "5ece35711b6b4cfb77a9e26a4fc7002d0445f76a1a3ea3313314045b31615b7d"
        },
        "sealEngine" : "NoProof",
        "network" : "Istanbul",
        "pre" : {
            "0xa94f5374fce5edbc8e2a8697c15331677e6ebf0b" : {
                "balance" : "0x09184e72a000",
                "code" : "0x",
                "nonce" : "0x00",
                "storage" : {
                }
            }
        },
        "genesisBlockHeader" : {
            "bloom" : "0x00000000000000000000000000000000000000000000000000000000000000000000000000000000000000000000000000000000000000000000000000000000000000000000000000000000000000000000000000000000000000000000000000000000000000000000000000000000000000000000000000000000000000000000000000000000000000000000000000000000000000000000000000000000000000000000000000000000000000000000000000000000000000000000000000000000000000000000000000000000000000000000000000000000000000000000000000000000000000000000000000000000000000000000000000000000",
            "coinbase" : "0x8888f1f195afa192cfee860698584c030f4c9db1",
            "difficulty" : "0x020000",
            "extraData" : "0x42",
            "gasLimit" : "0x2fefd8",
            "gasUsed" : "0x00",
            "hash" : "0x2b253498ad5e63a16978753398bad1fde371a3e513438297b52d65dc98e1db29",
            "mixHash" : "0x0000000000000000000000000000000000000000000000000000000000000000",
            "nonce" : "0x0000000000000000",
            "number" : "0x00",
            "parentHash" : "0x0000000000000000000000000000000000000000000000000000000000000000",
            "receiptTrie" : "0x56e81f171bcc55a6ff8345e692c0f86e5b48e01b996cadc001622fb5e363b421",
            "stateRoot" : "0x7dba07d6b448a186e9612e5f737d1c909dce473e53199901a302c00646d523c1",
            "timestamp" : "0x54c98c81",
            "transactionsTrie" : "0x56e81f171bcc55a6ff8345e692c0f86e5b48e01b996cadc001622fb5e363b421",
            "uncleHash" : "0x1dcc4de8dec75d7aab85b567b6ccd41ad312451b948a7413f0a142fd40d49347"
        },
        "genesisRLP" : "0xf901fcf901f7a00000000000000000000000000000000000000000000000000000000000000000a01dcc4de8dec75d7aab85b567b6ccd41ad312451b948a7413f0a142fd40d49347948888f1f195afa192cfee860698584c030f4c9db1a07dba07d6b448a186e9612e5f737d1c909dce473e53199901a302c00646d523c1a056e81f171bcc55a6ff8345e692c0f86e5b48e01b996cadc001622fb5e363b421a056e81f171bcc55a6ff8345e692c0f86e5b48e01b996cadc001622fb5e363b421b90100000000000000000000000000000000000000000000000000000000000000000000000000000000000000000000000000000000000000000000000000000000000000000000000000000000000000000000000000000000000000000000000000000000000000000000000000000000000000000000000000000000000000000000000000000000000000000000000000000000000000000000000000000000000000000000000000000000000000000000000000000000000000000000000000000000000000000000000000000000000000000000000000000000000000000000000000000000000000000000000000000000000000000000000000000000008302000080832fefd8808454c98c8142a00000000000000000000000000000000000000000000000000000000000000000880000000000000000c0c0",
        "blocks" : [
            {
                "chainname" : "default",
                "blocknumber" : "1",
                "uncleHeaders" : [
                ],
                "blockHeader" : {
                    "bloom" : "0x00000000000000000000000000000000000000000000000000000000000000000000000000000000000000000000000000000000000000000000000000000000000000000000000000000000000000000000000000000000000000000000000000000000000000000000000000000000000000000000000000000000000000000000000000000000000000000000000000000000000000000000000000000000000000000000000000000000000000000000000000000000000000000000000000000000000000000000000000000000000000000000000000000000000000000000000000000000000000000000000000000000000000000000000000000000",
                    "coinbase" : "0x8888f1f195afa192cfee860698584c030f4c9db1",
                    "difficulty" : "0x020000",
                    "extraData" : "0x42",
                    "gasLimit" : "0x2fefd8",
                    "gasUsed" : "0x5208",
                    "hash" : "0xa4b71270e83c38d941d61fc2d8f3842f98a83203b82c3dea3176f1feb5a67b17",
                    "mixHash" : "0x0000000000000000000000000000000000000000000000000000000000000000",
                    "nonce" : "0x0000000000000000",
                    "number" : "0x01",
                    "parentHash" : "0x2b253498ad5e63a16978753398bad1fde371a3e513438297b52d65dc98e1db29",
                    "receiptTrie" : "0x056b23fbba480696b65fe5a59b8f2148a1299103c4f57df839233af2cf4ca2d2",
                    "stateRoot" : "0xf52ec6538593f973eb7bc0990f35185d73cb701c2534ee493f158c919070c7a0",
                    "timestamp" : "0x54c99069",
                    "transactionsTrie" : "0xffaa3736dfb643087cb20308a8b016ebba03684b555114d6533b5c2f9951e252",
                    "uncleHash" : "0x1dcc4de8dec75d7aab85b567b6ccd41ad312451b948a7413f0a142fd40d49347"
                },
                "transactions" : [
                    {
                        "data" : "0x",
                        "gasLimit" : "0x04cb2f",
                        "gasPrice" : "0x03e8",
                        "nonce" : "0x00",
                        "r" : "0x25d49a54362b5ae38cf895fa9a1d3ded6f7d5577e572c9a93cdebff6e33ceaf7",
                        "s" : "0x773806df18e22db29acde1dd96c0418e28738af7f520e5e2c5c673494029e5",
                        "to" : "0x095e7baea6a6c7c4c2dfeb977efac326af552d87",
                        "v" : "0x1b",
                        "value" : "0x0a"
                    }
                ],
                "rlp" : "0xf90262f901f9a02b253498ad5e63a16978753398bad1fde371a3e513438297b52d65dc98e1db29a01dcc4de8dec75d7aab85b567b6ccd41ad312451b948a7413f0a142fd40d49347948888f1f195afa192cfee860698584c030f4c9db1a0f52ec6538593f973eb7bc0990f35185d73cb701c2534ee493f158c919070c7a0a0ffaa3736dfb643087cb20308a8b016ebba03684b555114d6533b5c2f9951e252a0056b23fbba480696b65fe5a59b8f2148a1299103c4f57df839233af2cf4ca2d2b90100000000000000000000000000000000000000000000000000000000000000000000000000000000000000000000000000000000000000000000000000000000000000000000000000000000000000000000000000000000000000000000000000000000000000000000000000000000000000000000000000000000000000000000000000000000000000000000000000000000000000000000000000000000000000000000000000000000000000000000000000000000000000000000000000000000000000000000000000000000000000000000000000000000000000000000000000000000000000000000000000000000000000000000000000000000008302000001832fefd88252088454c9906942a00000000000000000000000000000000000000000000000000000000000000000880000000000000000f863f861808203e88304cb2f94095e7baea6a6c7c4c2dfeb977efac326af552d870a801ba025d49a54362b5ae38cf895fa9a1d3ded6f7d5577e572c9a93cdebff6e33ceaf79f773806df18e22db29acde1dd96c0418e28738af7f520e5e2c5c673494029e5c0"
            },
            {
                "chainname" : "default",
                "blocknumber" : "2",
                "uncleHeaders" : [
                ],
                "blockHeader" : {
                    "bloom" : "0x00000000000000000000000000000000000000000000000000000000000000000000000000000000000000000000000000000000000000000000000000000000000000000000000000000000000000000000000000000000000000000000000000000000000000000000000000000000000000000000000000000000000000000000000000000000000000000000000000000000000000000000000000000000000000000000000000000000000000000000000000000000000000000000000000000000000000000000000000000000000000000000000000000000000000000000000000000000000000000000000000000000000000000000000000000000",
                    "coinbase" : "0x8888f1f195afa192cfee860698584c030f4c9db1",
                    "difficulty" : "0x020000",
                    "extraData" : "0x42",
                    "gasLimit" : "0x2fefd8",
                    "gasUsed" : "0x5208",
                    "hash" : "0x579d2bdb721bde7a6bc56b53f4962a58493ee11482e8f738702ddb3d65888a74",
                    "mixHash" : "0x0000000000000000000000000000000000000000000000000000000000000000",
                    "nonce" : "0x0000000000000000",
                    "number" : "0x02",
                    "parentHash" : "0xa4b71270e83c38d941d61fc2d8f3842f98a83203b82c3dea3176f1feb5a67b17",
                    "receiptTrie" : "0x056b23fbba480696b65fe5a59b8f2148a1299103c4f57df839233af2cf4ca2d2",
                    "stateRoot" : "0xf108eba9530018f619c5e2a0de8369e69fc37a60ea7f95b1ce8211ca734f67df",
                    "timestamp" : "0x54c99451",
                    "transactionsTrie" : "0x1c83d6cff665d2addd1518b5e90a31b785d16bbe8d67c0da4d69c705f14b2587",
                    "uncleHash" : "0x1dcc4de8dec75d7aab85b567b6ccd41ad312451b948a7413f0a142fd40d49347"
                },
                "transactions" : [
                    {
                        "data" : "0x",
                        "gasLimit" : "0x04cb2f",
                        "gasPrice" : "0x03e8",
                        "nonce" : "0x01",
                        "r" : "0x65cf104abe6db76c9030ee607e3c97cd5f4554939192c2fb5532d3adccebc002",
                        "s" : "0x7d88e05cf1a2573062e148921a76f7d4d0270fad075dc396ac79afad8fd5aaf8",
                        "to" : "0x095e7baea6a6c7c4c2dfeb977efac326af552d87",
                        "v" : "0x1b",
                        "value" : "0x0a"
                    }
                ],
                "rlp" : "0xf90263f901f9a0a4b71270e83c38d941d61fc2d8f3842f98a83203b82c3dea3176f1feb5a67b17a01dcc4de8dec75d7aab85b567b6ccd41ad312451b948a7413f0a142fd40d49347948888f1f195afa192cfee860698584c030f4c9db1a0f108eba9530018f619c5e2a0de8369e69fc37a60ea7f95b1ce8211ca734f67dfa01c83d6cff665d2addd1518b5e90a31b785d16bbe8d67c0da4d69c705f14b2587a0056b23fbba480696b65fe5a59b8f2148a1299103c4f57df839233af2cf4ca2d2b90100000000000000000000000000000000000000000000000000000000000000000000000000000000000000000000000000000000000000000000000000000000000000000000000000000000000000000000000000000000000000000000000000000000000000000000000000000000000000000000000000000000000000000000000000000000000000000000000000000000000000000000000000000000000000000000000000000000000000000000000000000000000000000000000000000000000000000000000000000000000000000000000000000000000000000000000000000000000000000000000000000000000000000000000000000000008302000002832fefd88252088454c9945142a00000000000000000000000000000000000000000000000000000000000000000880000000000000000f864f862018203e88304cb2f94095e7baea6a6c7c4c2dfeb977efac326af552d870a801ba065cf104abe6db76c9030ee607e3c97cd5f4554939192c2fb5532d3adccebc002a07d88e05cf1a2573062e148921a76f7d4d0270fad075dc396ac79afad8fd5aaf8c0"
            },
            {
                "chainname" : "default",
                "blocknumber" : "3",
                "expectException" : "InvalidNumber",
                "rlp" : "0xf9045ff901f9a0579d2bdb721bde7a6bc56b53f4962a58493ee11482e8f738702ddb3d65888a74a0b99da9971d91e954075b2c99f6632268f0237e4e60987cb7b04792c55ce4e068948888f1f195afa192cfee860698584c030f4c9db1a0625ac4e4d532a2f45d4ba9e03451c9fbc8d16f1b8f2a2b599d646e1a77c1114fa08c8775e959d553f9f991a21a8502dbe6819c53c518711f2cbbbd7ed998f65647a0056b23fbba480696b65fe5a59b8f2148a1299103c4f57df839233af2cf4ca2d2b90100000000000000000000000000000000000000000000000000000000000000000000000000000000000000000000000000000000000000000000000000000000000000000000000000000000000000000000000000000000000000000000000000000000000000000000000000000000000000000000000000000000000000000000000000000000000000000000000000000000000000000000000000000000000000000000000000000000000000000000000000000000000000000000000000000000000000000000000000000000000000000000000000000000000000000000000000000000000000000000000000000000000000000000000000000000008302000003832fefd88252088454c9983942a00000000000000000000000000000000000000000000000000000000000000000880000000000000000f864f862028203e88304cb2f94095e7baea6a6c7c4c2dfeb977efac326af552d870a801ba039ec4047c2bd7a6c32b764b7067c9becd83668856736e3d85b3994eb2adaa7cea020650892ef41b613656e25663a0d990436198c3ef617a8d820658db19aab1b56f901faf901f7a0a4b71270e83c38d941d61fc2d8f3842f98a83203b82c3dea3176f1feb5a67b17a01dcc4de8dec75d7aab85b567b6ccd41ad312451b948a7413f0a142fd40d4934794b94f5374fce5ed0000000097c15331677e6ebf0ba06b55aa1867b537cdde7cff574ba6c7a255a11031d05f1fdf34e3dde94bc144daa056e81f171bcc55a6ff8345e692c0f86e5b48e01b996cadc001622fb5e363b421a056e81f171bcc55a6ff8345e692c0f86e5b48e01b996cadc001622fb5e363b421b90100000000000000000000000000000000000000000000000000000000000000000000000000000000000000000000000000000000000000000000000000000000000000000000000000000000000000000000000000000000000000000000000000000000000000000000000000000000000000000000000000000000000000000000000000000000000000000000000000000000000000000000000000000000000000000000000000000000000000000000000000000000000000000000000000000000000000000000000000000000000000000000000000000000000000000000000000000000000000000000000000000000000000000000000000000000008302000001832fefd8808454c9945142a00000000000000000000000000000000000000000000000000000000000000000880000000000000000"
            }
        ],
        "postState" : {
            "0x095e7baea6a6c7c4c2dfeb977efac326af552d87" : {
                "code" : "0x",
                "nonce" : "0x00",
                "balance" : "0x14",
                "storage" : {
                }
            },
            "0x8888f1f195afa192cfee860698584c030f4c9db1" : {
                "code" : "0x",
                "nonce" : "0x00",
                "balance" : "0x3782dacea010de80",
                "storage" : {
                }
            },
            "0xa94f5374fce5edbc8e2a8697c15331677e6ebf0b" : {
                "code" : "0x",
                "nonce" : "0x02",
                "balance" : "0x09184bf1c16c",
                "storage" : {
                }
            }
        },
        "lastblockhash" : "0x579d2bdb721bde7a6bc56b53f4962a58493ee11482e8f738702ddb3d65888a74"
    },
    "incorrectUncleNumber1_London" : {
        "_info" : {
            "comment" : "",
            "filling-rpc-server" : "evm version 1.10.4-unstable-966ee3ae-20210528",
            "filling-tool-version" : "retesteth-0.1.1-eip1559+commit.658fc3a8.Linux.g++",
            "lllcversion" : "Version: 0.5.14-develop.2021.5.18+commit.14c9d5de.mod.Linux.g++",
            "source" : "src/BlockchainTestsFiller/InvalidBlocks/bcUncleHeaderValidity/incorrectUncleNumber1Filler.json",
            "sourceHash" : "5ece35711b6b4cfb77a9e26a4fc7002d0445f76a1a3ea3313314045b31615b7d"
        },
        "sealEngine" : "NoProof",
        "network" : "London",
        "pre" : {
            "0xa94f5374fce5edbc8e2a8697c15331677e6ebf0b" : {
                "balance" : "0x09184e72a000",
                "code" : "0x",
                "nonce" : "0x00",
                "storage" : {
                }
            }
        },
        "genesisBlockHeader" : {
            "bloom" : "0x00000000000000000000000000000000000000000000000000000000000000000000000000000000000000000000000000000000000000000000000000000000000000000000000000000000000000000000000000000000000000000000000000000000000000000000000000000000000000000000000000000000000000000000000000000000000000000000000000000000000000000000000000000000000000000000000000000000000000000000000000000000000000000000000000000000000000000000000000000000000000000000000000000000000000000000000000000000000000000000000000000000000000000000000000000000",
            "coinbase" : "0x8888f1f195afa192cfee860698584c030f4c9db1",
            "difficulty" : "0x020000",
            "extraData" : "0x42",
            "gasLimit" : "0x2fefd8",
            "gasUsed" : "0x00",
            "hash" : "0x2925832c36ea90666e939e72e094f7d67ed61573ce8e2aeda171f243b3ba7ac8",
            "mixHash" : "0x0000000000000000000000000000000000000000000000000000000000000000",
            "nonce" : "0x0000000000000000",
            "number" : "0x00",
            "parentHash" : "0x0000000000000000000000000000000000000000000000000000000000000000",
            "receiptTrie" : "0x56e81f171bcc55a6ff8345e692c0f86e5b48e01b996cadc001622fb5e363b421",
            "stateRoot" : "0x7dba07d6b448a186e9612e5f737d1c909dce473e53199901a302c00646d523c1",
            "timestamp" : "0x54c98c81",
            "transactionsTrie" : "0x56e81f171bcc55a6ff8345e692c0f86e5b48e01b996cadc001622fb5e363b421",
            "uncleHash" : "0x1dcc4de8dec75d7aab85b567b6ccd41ad312451b948a7413f0a142fd40d49347",
            "baseFee" : "0x10"
        },
        "genesisRLP" : "0xf901fdf901f8a00000000000000000000000000000000000000000000000000000000000000000a01dcc4de8dec75d7aab85b567b6ccd41ad312451b948a7413f0a142fd40d49347948888f1f195afa192cfee860698584c030f4c9db1a07dba07d6b448a186e9612e5f737d1c909dce473e53199901a302c00646d523c1a056e81f171bcc55a6ff8345e692c0f86e5b48e01b996cadc001622fb5e363b421a056e81f171bcc55a6ff8345e692c0f86e5b48e01b996cadc001622fb5e363b421b90100000000000000000000000000000000000000000000000000000000000000000000000000000000000000000000000000000000000000000000000000000000000000000000000000000000000000000000000000000000000000000000000000000000000000000000000000000000000000000000000000000000000000000000000000000000000000000000000000000000000000000000000000000000000000000000000000000000000000000000000000000000000000000000000000000000000000000000000000000000000000000000000000000000000000000000000000000000000000000000000000000000000000000000000000000000008302000080832fefd8808454c98c8142a0000000000000000000000000000000000000000000000000000000000000000088000000000000000010c0c0",
        "blocks" : [
            {
                "chainname" : "default",
                "blocknumber" : "1",
                "uncleHeaders" : [
                ],
                "blockHeader" : {
                    "bloom" : "0x00000000000000000000000000000000000000000000000000000000000000000000000000000000000000000000000000000000000000000000000000000000000000000000000000000000000000000000000000000000000000000000000000000000000000000000000000000000000000000000000000000000000000000000000000000000000000000000000000000000000000000000000000000000000000000000000000000000000000000000000000000000000000000000000000000000000000000000000000000000000000000000000000000000000000000000000000000000000000000000000000000000000000000000000000000000",
                    "coinbase" : "0x8888f1f195afa192cfee860698584c030f4c9db1",
                    "difficulty" : "0x020000",
                    "extraData" : "0x42",
                    "gasLimit" : "0x2fefd8",
                    "gasUsed" : "0x5208",
                    "hash" : "0xcad2f20ecb4f7e3d7d951955247539bcec160441d8aafd76e4351011691a00a1",
                    "mixHash" : "0x0000000000000000000000000000000000000000000000000000000000000000",
                    "nonce" : "0x0000000000000000",
                    "number" : "0x01",
                    "parentHash" : "0x2925832c36ea90666e939e72e094f7d67ed61573ce8e2aeda171f243b3ba7ac8",
                    "receiptTrie" : "0x056b23fbba480696b65fe5a59b8f2148a1299103c4f57df839233af2cf4ca2d2",
                    "stateRoot" : "0x11c4201182231db5e545bf1e46efea36f07c83622fc13c1dcafaa3f6e41a7365",
                    "timestamp" : "0x54c99069",
                    "transactionsTrie" : "0xffaa3736dfb643087cb20308a8b016ebba03684b555114d6533b5c2f9951e252",
                    "uncleHash" : "0x1dcc4de8dec75d7aab85b567b6ccd41ad312451b948a7413f0a142fd40d49347",
                    "baseFee" : "0x0e"
                },
                "transactions" : [
                    {
                        "data" : "0x",
                        "gasLimit" : "0x04cb2f",
                        "gasPrice" : "0x03e8",
                        "nonce" : "0x00",
                        "r" : "0x25d49a54362b5ae38cf895fa9a1d3ded6f7d5577e572c9a93cdebff6e33ceaf7",
                        "s" : "0x773806df18e22db29acde1dd96c0418e28738af7f520e5e2c5c673494029e5",
                        "to" : "0x095e7baea6a6c7c4c2dfeb977efac326af552d87",
                        "v" : "0x1b",
                        "value" : "0x0a"
                    }
                ],
                "rlp" : "0xf90263f901faa02925832c36ea90666e939e72e094f7d67ed61573ce8e2aeda171f243b3ba7ac8a01dcc4de8dec75d7aab85b567b6ccd41ad312451b948a7413f0a142fd40d49347948888f1f195afa192cfee860698584c030f4c9db1a011c4201182231db5e545bf1e46efea36f07c83622fc13c1dcafaa3f6e41a7365a0ffaa3736dfb643087cb20308a8b016ebba03684b555114d6533b5c2f9951e252a0056b23fbba480696b65fe5a59b8f2148a1299103c4f57df839233af2cf4ca2d2b90100000000000000000000000000000000000000000000000000000000000000000000000000000000000000000000000000000000000000000000000000000000000000000000000000000000000000000000000000000000000000000000000000000000000000000000000000000000000000000000000000000000000000000000000000000000000000000000000000000000000000000000000000000000000000000000000000000000000000000000000000000000000000000000000000000000000000000000000000000000000000000000000000000000000000000000000000000000000000000000000000000000000000000000000000000000008302000001832fefd88252088454c9906942a000000000000000000000000000000000000000000000000000000000000000008800000000000000000ef863f861808203e88304cb2f94095e7baea6a6c7c4c2dfeb977efac326af552d870a801ba025d49a54362b5ae38cf895fa9a1d3ded6f7d5577e572c9a93cdebff6e33ceaf79f773806df18e22db29acde1dd96c0418e28738af7f520e5e2c5c673494029e5c0"
            },
            {
                "chainname" : "default",
                "blocknumber" : "2",
                "uncleHeaders" : [
                ],
                "blockHeader" : {
                    "bloom" : "0x00000000000000000000000000000000000000000000000000000000000000000000000000000000000000000000000000000000000000000000000000000000000000000000000000000000000000000000000000000000000000000000000000000000000000000000000000000000000000000000000000000000000000000000000000000000000000000000000000000000000000000000000000000000000000000000000000000000000000000000000000000000000000000000000000000000000000000000000000000000000000000000000000000000000000000000000000000000000000000000000000000000000000000000000000000000",
                    "coinbase" : "0x8888f1f195afa192cfee860698584c030f4c9db1",
                    "difficulty" : "0x020000",
                    "extraData" : "0x42",
                    "gasLimit" : "0x2fefd8",
                    "gasUsed" : "0x5208",
                    "hash" : "0x3f47ceba0001048e3ce5a6b2fc6426b8b67f94aacc8ac256684e4119137b256f",
                    "mixHash" : "0x0000000000000000000000000000000000000000000000000000000000000000",
                    "nonce" : "0x0000000000000000",
                    "number" : "0x02",
                    "parentHash" : "0xcad2f20ecb4f7e3d7d951955247539bcec160441d8aafd76e4351011691a00a1",
                    "receiptTrie" : "0x056b23fbba480696b65fe5a59b8f2148a1299103c4f57df839233af2cf4ca2d2",
                    "stateRoot" : "0x28cd5c94eee4c68dcd78f99ac1b96b32490a4f1932d20022f78d7fb378a723ca",
                    "timestamp" : "0x54c99451",
                    "transactionsTrie" : "0x1c83d6cff665d2addd1518b5e90a31b785d16bbe8d67c0da4d69c705f14b2587",
                    "uncleHash" : "0x1dcc4de8dec75d7aab85b567b6ccd41ad312451b948a7413f0a142fd40d49347",
                    "baseFee" : "0x0d"
                },
                "transactions" : [
                    {
                        "data" : "0x",
                        "gasLimit" : "0x04cb2f",
                        "gasPrice" : "0x03e8",
                        "nonce" : "0x01",
                        "r" : "0x65cf104abe6db76c9030ee607e3c97cd5f4554939192c2fb5532d3adccebc002",
                        "s" : "0x7d88e05cf1a2573062e148921a76f7d4d0270fad075dc396ac79afad8fd5aaf8",
                        "to" : "0x095e7baea6a6c7c4c2dfeb977efac326af552d87",
                        "v" : "0x1b",
                        "value" : "0x0a"
                    }
                ],
                "rlp" : "0xf90264f901faa0cad2f20ecb4f7e3d7d951955247539bcec160441d8aafd76e4351011691a00a1a01dcc4de8dec75d7aab85b567b6ccd41ad312451b948a7413f0a142fd40d49347948888f1f195afa192cfee860698584c030f4c9db1a028cd5c94eee4c68dcd78f99ac1b96b32490a4f1932d20022f78d7fb378a723caa01c83d6cff665d2addd1518b5e90a31b785d16bbe8d67c0da4d69c705f14b2587a0056b23fbba480696b65fe5a59b8f2148a1299103c4f57df839233af2cf4ca2d2b90100000000000000000000000000000000000000000000000000000000000000000000000000000000000000000000000000000000000000000000000000000000000000000000000000000000000000000000000000000000000000000000000000000000000000000000000000000000000000000000000000000000000000000000000000000000000000000000000000000000000000000000000000000000000000000000000000000000000000000000000000000000000000000000000000000000000000000000000000000000000000000000000000000000000000000000000000000000000000000000000000000000000000000000000000000000008302000002832fefd88252088454c9945142a000000000000000000000000000000000000000000000000000000000000000008800000000000000000df864f862018203e88304cb2f94095e7baea6a6c7c4c2dfeb977efac326af552d870a801ba065cf104abe6db76c9030ee607e3c97cd5f4554939192c2fb5532d3adccebc002a07d88e05cf1a2573062e148921a76f7d4d0270fad075dc396ac79afad8fd5aaf8c0"
            },
            {
                "chainname" : "default",
                "blocknumber" : "3",
                "expectException" : "InvalidNumber",
                "rlp" : "0xf90461f901faa03f47ceba0001048e3ce5a6b2fc6426b8b67f94aacc8ac256684e4119137b256fa0a624e75bc012bd9b01ea30779d5fa084b08745ecc19b5494e428fc7853b86500948888f1f195afa192cfee860698584c030f4c9db1a0d072cd8293f15dcd43ff9163ac270d2d4647262570bdb300f8462ced4affa720a08c8775e959d553f9f991a21a8502dbe6819c53c518711f2cbbbd7ed998f65647a0056b23fbba480696b65fe5a59b8f2148a1299103c4f57df839233af2cf4ca2d2b90100000000000000000000000000000000000000000000000000000000000000000000000000000000000000000000000000000000000000000000000000000000000000000000000000000000000000000000000000000000000000000000000000000000000000000000000000000000000000000000000000000000000000000000000000000000000000000000000000000000000000000000000000000000000000000000000000000000000000000000000000000000000000000000000000000000000000000000000000000000000000000000000000000000000000000000000000000000000000000000000000000000000000000000000000000000008302000003832fefd88252088454c9983942a000000000000000000000000000000000000000000000000000000000000000008800000000000000000cf864f862028203e88304cb2f94095e7baea6a6c7c4c2dfeb977efac326af552d870a801ba039ec4047c2bd7a6c32b764b7067c9becd83668856736e3d85b3994eb2adaa7cea020650892ef41b613656e25663a0d990436198c3ef617a8d820658db19aab1b56f901fbf901f8a0cad2f20ecb4f7e3d7d951955247539bcec160441d8aafd76e4351011691a00a1a01dcc4de8dec75d7aab85b567b6ccd41ad312451b948a7413f0a142fd40d4934794b94f5374fce5ed0000000097c15331677e6ebf0ba08ed313fdafad142e324cdc6cf6477fd1db77b8d3c1b13836d905b8193930ac7aa056e81f171bcc55a6ff8345e692c0f86e5b48e01b996cadc001622fb5e363b421a056e81f171bcc55a6ff8345e692c0f86e5b48e01b996cadc001622fb5e363b421b90100000000000000000000000000000000000000000000000000000000000000000000000000000000000000000000000000000000000000000000000000000000000000000000000000000000000000000000000000000000000000000000000000000000000000000000000000000000000000000000000000000000000000000000000000000000000000000000000000000000000000000000000000000000000000000000000000000000000000000000000000000000000000000000000000000000000000000000000000000000000000000000000000000000000000000000000000000000000000000000000000000000000000000000000000000000008302000001832fefd8808454c9945142a000000000000000000000000000000000000000000000000000000000000000008800000000000000000d"
            }
        ],
        "postState" : {
            "0x095e7baea6a6c7c4c2dfeb977efac326af552d87" : {
                "code" : "0x",
                "nonce" : "0x00",
                "balance" : "0x14",
                "storage" : {
                }
            },
            "0x8888f1f195afa192cfee860698584c030f4c9db1" : {
                "code" : "0x",
                "nonce" : "0x00",
                "balance" : "0x3782dacea00837a8",
                "storage" : {
                }
            },
            "0xa94f5374fce5edbc8e2a8697c15331677e6ebf0b" : {
                "code" : "0x",
                "nonce" : "0x02",
                "balance" : "0x09184bf1c16c",
                "storage" : {
                }
            }
        },
        "lastblockhash" : "0x3f47ceba0001048e3ce5a6b2fc6426b8b67f94aacc8ac256684e4119137b256f"
    }
}