{
    "addmod" : {
        "_info" : {
            "comment" : "Ori Pomerantz qbzzt1@gmail.com",
            "filling-rpc-server" : "evm version 1.10.4-unstable-966ee3ae-20210528",
            "filling-tool-version" : "retesteth-0.1.1-eip1559+commit.658fc3a8.Linux.g++",
            "lllcversion" : "Version: 0.5.14-develop.2021.5.18+commit.14c9d5de.mod.Linux.g++",
            "source" : "src/GeneralStateTestsFiller/VMTests/vmArithmeticTest/addmodFiller.yml",
            "sourceHash" : "0c159f0d8d17747bfcc58a781a4ea25ef441f708c89670abbbafc85033f1ef52",
            "labels" : {
                "0" : ":label addmod_1_2_2",
                "1" : ":label addmod_neg1_neg2_2",
                "10" : ":label addmod_neg1_neg2_5",
                "11" : ":label addmod_2_160_1_5",
                "12" : ":label addmod_4_1_0",
                "13" : ":label addmod_0_1_0",
                "14" : ":label addmod_1_0_0",
                "15" : ":label addmod_0_0_0_min_1",
                "2" : ":label addmod_neg6_1_3",
                "3" : ":label addmod_eq_smod",
                "4" : ":label addmod_eq_mod",
                "5" : ":label addmod_4_1_neg3",
                "6" : ":label addmod_4_1_neg3_eq",
                "7" : ":label addmod_neg1_0_5",
                "8" : ":label addmod_neg1_1_5",
                "9" : ":label addmod_neg1_2_5"
            }
        },
        "env" : {
            "currentCoinbase" : "0x2adc25665018aa1fe0e6bc666dac8fc2697ff9ba",
            "currentDifficulty" : "0x020000",
            "currentNumber" : "0x01",
            "currentTimestamp" : "0x03e8",
            "previousHash" : "0x5e20a0453cecd065ea59c37ac63e079ee08998b6045136a8ce6635c7912ec0b6",
            "currentGasLimit" : "0x05f5e100"
        },
        "post" : {
            "Berlin" : [
                {
                    "indexes" : {
                        "data" : 0,
                        "gas" : 0,
                        "value" : 0
                    },
                    "hash" : "0x3eeb017c5113c67c030354b4f3272ae6dd62e30e4ffffd810aa1dda8336b4b45",
                    "txbytes" : "0xf885800a8404c4b40094cccccccccccccccccccccccccccccccccccccccc01a4693c613900000000000000000000000000000000000000000000000000000000000000001ba0e8ff56322287185f6afd3422a825b47bf5c1a4ccf0dc0389cdc03f7c1c32b7eaa0776b02f9f5773238d3ff36b74a123f409cd6420908d7855bbe4c8ff63e00d698",
                    "logs" : "0x1dcc4de8dec75d7aab85b567b6ccd41ad312451b948a7413f0a142fd40d49347"
                },
                {
                    "indexes" : {
                        "data" : 1,
                        "gas" : 0,
                        "value" : 0
                    },
                    "hash" : "0x7f0f6f350f35d509f68273ef54493fac3554ea676f01a2e96922635e7d45ff0d",
                    "txbytes" : "0xf885800a8404c4b40094cccccccccccccccccccccccccccccccccccccccc01a4693c613900000000000000000000000000000000000000000000000000000000000000011ba02c5e81a024dd0f6fb773c8787fa46ab5eb55cb73df83562e6ddbe9106a3df7f6a029437b9a23e45bbfce086f2ddaa98b1e9e6914d7e58e2c5a128310042b332f89",
                    "logs" : "0x1dcc4de8dec75d7aab85b567b6ccd41ad312451b948a7413f0a142fd40d49347"
                },
                {
                    "indexes" : {
                        "data" : 2,
                        "gas" : 0,
                        "value" : 0
                    },
                    "hash" : "0xbea48aa0440f6b6a11ad2639ddfcbd572990398188b6d934cdbfd7cd82226ee1",
                    "txbytes" : "0xf885800a8404c4b40094cccccccccccccccccccccccccccccccccccccccc01a4693c613900000000000000000000000000000000000000000000000000000000000000021ba0fc37ad4eb0633eb18f2b7867bacbe994a2ffcbb04a71e394e6e76041f6ce216fa03b1b415a5c386d8de9e16be9fdc188234b80a0dec99922d03c240f2e463053e3",
                    "logs" : "0x1dcc4de8dec75d7aab85b567b6ccd41ad312451b948a7413f0a142fd40d49347"
                },
                {
                    "indexes" : {
                        "data" : 3,
                        "gas" : 0,
                        "value" : 0
                    },
                    "hash" : "0xab150ff26e4dd268dc9bcfbb12647340a80e69b9301ec41b67eb49cd93d46937",
                    "txbytes" : "0xf885800a8404c4b40094cccccccccccccccccccccccccccccccccccccccc01a4693c613900000000000000000000000000000000000000000000000000000000000000031ba0f06eb219c5dba98711a9a2678339f64d172bfac289a5c43a0018d3917be8dc2aa0147bd7a6ee30217e63cbddc28b0e72f115da754d8916b87992aa27ed00eb105e",
                    "logs" : "0x1dcc4de8dec75d7aab85b567b6ccd41ad312451b948a7413f0a142fd40d49347"
                },
                {
                    "indexes" : {
                        "data" : 4,
                        "gas" : 0,
                        "value" : 0
                    },
                    "hash" : "0xa42300632ded021a2fa1e42a5c4dbe9b18f41bd0d4d446189ed07a6b4b1905ca",
                    "txbytes" : "0xf885800a8404c4b40094cccccccccccccccccccccccccccccccccccccccc01a4693c613900000000000000000000000000000000000000000000000000000000000000041ba0c148a101aa54703ff0e949441bdba90b1972a16c338f7f9a24b07f0313cd49d6a028cb82229b8a57e2048761d6fa5060c5b459f000d4e218de1372c1df9cfa171e",
                    "logs" : "0x1dcc4de8dec75d7aab85b567b6ccd41ad312451b948a7413f0a142fd40d49347"
                },
                {
                    "indexes" : {
                        "data" : 5,
                        "gas" : 0,
                        "value" : 0
                    },
                    "hash" : "0x8f372aa3357a615e97243f22b1e893fc429e5ed0f212e6f1fd6ae590124c50f0",
                    "txbytes" : "0xf885800a8404c4b40094cccccccccccccccccccccccccccccccccccccccc01a4693c613900000000000000000000000000000000000000000000000000000000000000051ca09a1ce3fdc8469be9bbe660a07c169cf5b6b70fe408cc1395057bbd4cdc2c8557a0560e8c0503c4364efd017933749f22e1d9ad4eff4580d5463df54b9bff8dca31",
                    "logs" : "0x1dcc4de8dec75d7aab85b567b6ccd41ad312451b948a7413f0a142fd40d49347"
                },
                {
                    "indexes" : {
                        "data" : 6,
                        "gas" : 0,
                        "value" : 0
                    },
                    "hash" : "0x48c01bc25e581a9b36f01cb17b7fc44af30a340028f829adc52c0aeacf36f7aa",
                    "txbytes" : "0xf885800a8404c4b40094cccccccccccccccccccccccccccccccccccccccc01a4693c613900000000000000000000000000000000000000000000000000000000000000061ca04f7114759d69db050a87677a2dff3d6f9399f0b66da593b2cc50748708377f6fa042f32766ce38ec3cee0d2c2dbc4d14b9cbf94e4af75b0584a04c933457bb83bb",
                    "logs" : "0x1dcc4de8dec75d7aab85b567b6ccd41ad312451b948a7413f0a142fd40d49347"
                },
                {
                    "indexes" : {
                        "data" : 7,
                        "gas" : 0,
                        "value" : 0
                    },
                    "hash" : "0x8e5bdd6e2f914c8483e334ead56e77ff79721bd6dff2e6e860a3f8ada2a259b4",
                    "txbytes" : "0xf885800a8404c4b40094cccccccccccccccccccccccccccccccccccccccc01a4693c613900000000000000000000000000000000000000000000000000000000000000071ba0e77cc0b2a4af0e43bc5732d6747afb3ddcf781f7277650aeef15b9caba68c91aa04af80af420b77c3f4ad457f1c6535be5d46993e2c8987250d28d088b3a11bb4a",
                    "logs" : "0x1dcc4de8dec75d7aab85b567b6ccd41ad312451b948a7413f0a142fd40d49347"
                },
                {
                    "indexes" : {
                        "data" : 8,
                        "gas" : 0,
                        "value" : 0
                    },
                    "hash" : "0x26df34ac405e230d73ea269a03bd624c3483b1ef0d5cd75a1a23d842968923d5",
                    "txbytes" : "0xf884800a8404c4b40094cccccccccccccccccccccccccccccccccccccccc01a4693c613900000000000000000000000000000000000000000000000000000000000000081ca057f87767c304f58d8c351529457f9fbe53d04ba7f9f0ae7f2bac7a2d6dc59bc09fd8de811557a1287c01a1e09edeb750adba79cef13ebeb951d030ff29e63f39",
                    "logs" : "0x1dcc4de8dec75d7aab85b567b6ccd41ad312451b948a7413f0a142fd40d49347"
                },
                {
                    "indexes" : {
                        "data" : 9,
                        "gas" : 0,
                        "value" : 0
                    },
                    "hash" : "0x42224c883d1c202896fbf1c950249693498a8dd7139c4e03f0d4880f2578a75f",
                    "txbytes" : "0xf885800a8404c4b40094cccccccccccccccccccccccccccccccccccccccc01a4693c613900000000000000000000000000000000000000000000000000000000000000091ba09cffdf14ebc27c6c36a8cc9e679e32251165b52fb39e7ccc52cbc42f7157c301a032f0bebe1ae01ef86e26c0194bc26e9ed9e6bb7dad277927a92def3d0badbe74",
                    "logs" : "0x1dcc4de8dec75d7aab85b567b6ccd41ad312451b948a7413f0a142fd40d49347"
                },
                {
                    "indexes" : {
                        "data" : 10,
                        "gas" : 0,
                        "value" : 0
                    },
                    "hash" : "0x5559be5806d81b70b0c87e57079164e4e1d139e18cc408ec1ac68521393ddee9",
                    "txbytes" : "0xf885800a8404c4b40094cccccccccccccccccccccccccccccccccccccccc01a4693c6139000000000000000000000000000000000000000000000000000000000000000a1ca0a1b03cd747783811efe72b24c5681a14f13ddc2a54b346efc81da94b8a6d82aaa04b794a29cf9f0433518c93172d3b2d7cd77315c278ec2220c80fa4448481a8a6",
                    "logs" : "0x1dcc4de8dec75d7aab85b567b6ccd41ad312451b948a7413f0a142fd40d49347"
                },
                {
                    "indexes" : {
                        "data" : 11,
                        "gas" : 0,
                        "value" : 0
                    },
                    "hash" : "0x32d9399e5677ea819d76838a7c42bf823b425c7c68a7a0bbf65f7c158bfc4627",
                    "txbytes" : "0xf885800a8404c4b40094cccccccccccccccccccccccccccccccccccccccc01a4693c6139000000000000000000000000000000000000000000000000000000000000000b1ca0c966b1649b82df31630735542a36cd21a0c8ccca99661e9daf19e24b5cd0b4d5a0297ca7c15e08b09a84dfdaee72deecc74b852df21c2b1cce63e4e3638c680015",
                    "logs" : "0x1dcc4de8dec75d7aab85b567b6ccd41ad312451b948a7413f0a142fd40d49347"
                },
                {
                    "indexes" : {
                        "data" : 12,
                        "gas" : 0,
                        "value" : 0
                    },
                    "hash" : "0xc1531ed1d06e57fc97947811bca2817f4cab8852630321169bcaba9905e4deb0",
                    "txbytes" : "0xf885800a8404c4b40094cccccccccccccccccccccccccccccccccccccccc01a4693c6139000000000000000000000000000000000000000000000000000000000000000c1ca0e7c9b0d9792ea976c6e21b9ac03fec15a7a57ede02dd4d5d75bdaea8019be119a03b4dd5fbca89a77591d755174fb98c746ed2856efaa679866bb9591c16fd1ca2",
                    "logs" : "0x1dcc4de8dec75d7aab85b567b6ccd41ad312451b948a7413f0a142fd40d49347"
                },
                {
                    "indexes" : {
                        "data" : 13,
                        "gas" : 0,
                        "value" : 0
                    },
                    "hash" : "0xc1531ed1d06e57fc97947811bca2817f4cab8852630321169bcaba9905e4deb0",
                    "txbytes" : "0xf885800a8404c4b40094cccccccccccccccccccccccccccccccccccccccc01a4693c6139000000000000000000000000000000000000000000000000000000000000000d1ca01691906b205874203c9abd32dd85c221936c1c63bf7231148e3846ce4b776a23a07496ef32b0a1259d037431119f19ceca327e9a7318eec4d71f1dbb8a878dc2f5",
                    "logs" : "0x1dcc4de8dec75d7aab85b567b6ccd41ad312451b948a7413f0a142fd40d49347"
                },
                {
                    "indexes" : {
                        "data" : 14,
                        "gas" : 0,
                        "value" : 0
                    },
                    "hash" : "0xc1531ed1d06e57fc97947811bca2817f4cab8852630321169bcaba9905e4deb0",
                    "txbytes" : "0xf885800a8404c4b40094cccccccccccccccccccccccccccccccccccccccc01a4693c6139000000000000000000000000000000000000000000000000000000000000000e1ca038eda85bee73907a8eca42c2425bd9c1c0cc7eb377305a1d12135cc442cc2595a01163d3c3c904542c96588d1a134242818a982a8ed0e28be50b5d74f89968ed6b",
                    "logs" : "0x1dcc4de8dec75d7aab85b567b6ccd41ad312451b948a7413f0a142fd40d49347"
                },
                {
                    "indexes" : {
                        "data" : 15,
                        "gas" : 0,
                        "value" : 0
                    },
                    "hash" : "0xea5eaf0013b035e28488124e3752df2437807c002008aa951fb1ba00f2078735",
                    "txbytes" : "0xf885800a8404c4b40094cccccccccccccccccccccccccccccccccccccccc01a4693c6139000000000000000000000000000000000000000000000000000000000000000f1ba0651a47e0c9ecbc6ea2c076f38a80e16d51db98bfba82c0fccc5ba4a09d5dd5aea006572dccf26b21afd25f5f58bf2f23fd0242c0774f44785976b7a9e1ff5c194f",
                    "logs" : "0x1dcc4de8dec75d7aab85b567b6ccd41ad312451b948a7413f0a142fd40d49347"
                }
            ],
            "Istanbul" : [
                {
                    "indexes" : {
                        "data" : 0,
                        "gas" : 0,
                        "value" : 0
                    },
                    "hash" : "0xdf6fa807ccfb11e52f7ae2eb8691451555c8e5699d20ff46211a01c5ad220c17",
                    "txbytes" : "0xf885800a8404c4b40094cccccccccccccccccccccccccccccccccccccccc01a4693c613900000000000000000000000000000000000000000000000000000000000000001ba0e8ff56322287185f6afd3422a825b47bf5c1a4ccf0dc0389cdc03f7c1c32b7eaa0776b02f9f5773238d3ff36b74a123f409cd6420908d7855bbe4c8ff63e00d698",
                    "logs" : "0x1dcc4de8dec75d7aab85b567b6ccd41ad312451b948a7413f0a142fd40d49347"
                },
                {
                    "indexes" : {
                        "data" : 1,
                        "gas" : 0,
                        "value" : 0
                    },
                    "hash" : "0x66b8b2935e553c6173ea9c74c26bf3daa5d654cf3acec477f18848c28bc6f305",
                    "txbytes" : "0xf885800a8404c4b40094cccccccccccccccccccccccccccccccccccccccc01a4693c613900000000000000000000000000000000000000000000000000000000000000011ba02c5e81a024dd0f6fb773c8787fa46ab5eb55cb73df83562e6ddbe9106a3df7f6a029437b9a23e45bbfce086f2ddaa98b1e9e6914d7e58e2c5a128310042b332f89",
                    "logs" : "0x1dcc4de8dec75d7aab85b567b6ccd41ad312451b948a7413f0a142fd40d49347"
                },
                {
                    "indexes" : {
                        "data" : 2,
                        "gas" : 0,
                        "value" : 0
                    },
                    "hash" : "0x4f173d67038cd77e7eb0a85012e3eba064b43b5931ba8d6b7942a6327b3d3294",
                    "txbytes" : "0xf885800a8404c4b40094cccccccccccccccccccccccccccccccccccccccc01a4693c613900000000000000000000000000000000000000000000000000000000000000021ba0fc37ad4eb0633eb18f2b7867bacbe994a2ffcbb04a71e394e6e76041f6ce216fa03b1b415a5c386d8de9e16be9fdc188234b80a0dec99922d03c240f2e463053e3",
                    "logs" : "0x1dcc4de8dec75d7aab85b567b6ccd41ad312451b948a7413f0a142fd40d49347"
                },
                {
                    "indexes" : {
                        "data" : 3,
                        "gas" : 0,
                        "value" : 0
                    },
                    "hash" : "0xf1c0f697ca7dcba5dab7aef7b3706f503d020d58fdc1158edbd0cf608ed2a53d",
                    "txbytes" : "0xf885800a8404c4b40094cccccccccccccccccccccccccccccccccccccccc01a4693c613900000000000000000000000000000000000000000000000000000000000000031ba0f06eb219c5dba98711a9a2678339f64d172bfac289a5c43a0018d3917be8dc2aa0147bd7a6ee30217e63cbddc28b0e72f115da754d8916b87992aa27ed00eb105e",
                    "logs" : "0x1dcc4de8dec75d7aab85b567b6ccd41ad312451b948a7413f0a142fd40d49347"
                },
                {
                    "indexes" : {
                        "data" : 4,
                        "gas" : 0,
                        "value" : 0
                    },
                    "hash" : "0x23185cc4fe2af6d48b6df434553556f3f5aadb442c8afda2bb344a6c03dc1287",
                    "txbytes" : "0xf885800a8404c4b40094cccccccccccccccccccccccccccccccccccccccc01a4693c613900000000000000000000000000000000000000000000000000000000000000041ba0c148a101aa54703ff0e949441bdba90b1972a16c338f7f9a24b07f0313cd49d6a028cb82229b8a57e2048761d6fa5060c5b459f000d4e218de1372c1df9cfa171e",
                    "logs" : "0x1dcc4de8dec75d7aab85b567b6ccd41ad312451b948a7413f0a142fd40d49347"
                },
                {
                    "indexes" : {
                        "data" : 5,
                        "gas" : 0,
                        "value" : 0
                    },
                    "hash" : "0xc0d9153554aad7aba651a13b51f449a9ffc8767e047871074128d00c6467b54e",
                    "txbytes" : "0xf885800a8404c4b40094cccccccccccccccccccccccccccccccccccccccc01a4693c613900000000000000000000000000000000000000000000000000000000000000051ca09a1ce3fdc8469be9bbe660a07c169cf5b6b70fe408cc1395057bbd4cdc2c8557a0560e8c0503c4364efd017933749f22e1d9ad4eff4580d5463df54b9bff8dca31",
                    "logs" : "0x1dcc4de8dec75d7aab85b567b6ccd41ad312451b948a7413f0a142fd40d49347"
                },
                {
                    "indexes" : {
                        "data" : 6,
                        "gas" : 0,
                        "value" : 0
                    },
                    "hash" : "0xc41e195de925a3d3b7a85e2fb7570f56f578cc83473c0e0d26c625aefba200d9",
                    "txbytes" : "0xf885800a8404c4b40094cccccccccccccccccccccccccccccccccccccccc01a4693c613900000000000000000000000000000000000000000000000000000000000000061ca04f7114759d69db050a87677a2dff3d6f9399f0b66da593b2cc50748708377f6fa042f32766ce38ec3cee0d2c2dbc4d14b9cbf94e4af75b0584a04c933457bb83bb",
                    "logs" : "0x1dcc4de8dec75d7aab85b567b6ccd41ad312451b948a7413f0a142fd40d49347"
                },
                {
                    "indexes" : {
                        "data" : 7,
                        "gas" : 0,
                        "value" : 0
                    },
                    "hash" : "0x1d80566a4056152402c5bc41812dfc8c6677e2fdece86cdd7cc6b25da7d7172f",
                    "txbytes" : "0xf885800a8404c4b40094cccccccccccccccccccccccccccccccccccccccc01a4693c613900000000000000000000000000000000000000000000000000000000000000071ba0e77cc0b2a4af0e43bc5732d6747afb3ddcf781f7277650aeef15b9caba68c91aa04af80af420b77c3f4ad457f1c6535be5d46993e2c8987250d28d088b3a11bb4a",
                    "logs" : "0x1dcc4de8dec75d7aab85b567b6ccd41ad312451b948a7413f0a142fd40d49347"
                },
                {
                    "indexes" : {
                        "data" : 8,
                        "gas" : 0,
                        "value" : 0
                    },
                    "hash" : "0xa6c562f6298c4c541d05c7c1c985efc1de993414ee3879f20a3cecc6bcb30015",
                    "txbytes" : "0xf884800a8404c4b40094cccccccccccccccccccccccccccccccccccccccc01a4693c613900000000000000000000000000000000000000000000000000000000000000081ca057f87767c304f58d8c351529457f9fbe53d04ba7f9f0ae7f2bac7a2d6dc59bc09fd8de811557a1287c01a1e09edeb750adba79cef13ebeb951d030ff29e63f39",
                    "logs" : "0x1dcc4de8dec75d7aab85b567b6ccd41ad312451b948a7413f0a142fd40d49347"
                },
                {
                    "indexes" : {
                        "data" : 9,
                        "gas" : 0,
                        "value" : 0
                    },
                    "hash" : "0x3324e38b4095a04bdc62a5e7b979846353e5498369f38972454f957261e8e5d2",
                    "txbytes" : "0xf885800a8404c4b40094cccccccccccccccccccccccccccccccccccccccc01a4693c613900000000000000000000000000000000000000000000000000000000000000091ba09cffdf14ebc27c6c36a8cc9e679e32251165b52fb39e7ccc52cbc42f7157c301a032f0bebe1ae01ef86e26c0194bc26e9ed9e6bb7dad277927a92def3d0badbe74",
                    "logs" : "0x1dcc4de8dec75d7aab85b567b6ccd41ad312451b948a7413f0a142fd40d49347"
                },
                {
                    "indexes" : {
                        "data" : 10,
                        "gas" : 0,
                        "value" : 0
                    },
                    "hash" : "0x3b80dfaf26b47cec32069c8894a8e7e480ed85d347a0367c5d70f9b96fc759ad",
                    "txbytes" : "0xf885800a8404c4b40094cccccccccccccccccccccccccccccccccccccccc01a4693c6139000000000000000000000000000000000000000000000000000000000000000a1ca0a1b03cd747783811efe72b24c5681a14f13ddc2a54b346efc81da94b8a6d82aaa04b794a29cf9f0433518c93172d3b2d7cd77315c278ec2220c80fa4448481a8a6",
                    "logs" : "0x1dcc4de8dec75d7aab85b567b6ccd41ad312451b948a7413f0a142fd40d49347"
                },
                {
                    "indexes" : {
                        "data" : 11,
                        "gas" : 0,
                        "value" : 0
                    },
                    "hash" : "0x951b97fbbb1eff823ca8df5ea661028a3d3c0306b84463c2762b7533fd70e3bd",
                    "txbytes" : "0xf885800a8404c4b40094cccccccccccccccccccccccccccccccccccccccc01a4693c6139000000000000000000000000000000000000000000000000000000000000000b1ca0c966b1649b82df31630735542a36cd21a0c8ccca99661e9daf19e24b5cd0b4d5a0297ca7c15e08b09a84dfdaee72deecc74b852df21c2b1cce63e4e3638c680015",
                    "logs" : "0x1dcc4de8dec75d7aab85b567b6ccd41ad312451b948a7413f0a142fd40d49347"
                },
                {
                    "indexes" : {
                        "data" : 12,
                        "gas" : 0,
                        "value" : 0
                    },
                    "hash" : "0x0000b7903722e72ee4bd27050051ec3fc41fbd7a0d7365cda8d6a08bda17f1d9",
                    "txbytes" : "0xf885800a8404c4b40094cccccccccccccccccccccccccccccccccccccccc01a4693c6139000000000000000000000000000000000000000000000000000000000000000c1ca0e7c9b0d9792ea976c6e21b9ac03fec15a7a57ede02dd4d5d75bdaea8019be119a03b4dd5fbca89a77591d755174fb98c746ed2856efaa679866bb9591c16fd1ca2",
                    "logs" : "0x1dcc4de8dec75d7aab85b567b6ccd41ad312451b948a7413f0a142fd40d49347"
                },
                {
                    "indexes" : {
                        "data" : 13,
                        "gas" : 0,
                        "value" : 0
                    },
                    "hash" : "0x0000b7903722e72ee4bd27050051ec3fc41fbd7a0d7365cda8d6a08bda17f1d9",
                    "txbytes" : "0xf885800a8404c4b40094cccccccccccccccccccccccccccccccccccccccc01a4693c6139000000000000000000000000000000000000000000000000000000000000000d1ca01691906b205874203c9abd32dd85c221936c1c63bf7231148e3846ce4b776a23a07496ef32b0a1259d037431119f19ceca327e9a7318eec4d71f1dbb8a878dc2f5",
                    "logs" : "0x1dcc4de8dec75d7aab85b567b6ccd41ad312451b948a7413f0a142fd40d49347"
                },
                {
                    "indexes" : {
                        "data" : 14,
                        "gas" : 0,
                        "value" : 0
                    },
                    "hash" : "0x0000b7903722e72ee4bd27050051ec3fc41fbd7a0d7365cda8d6a08bda17f1d9",
                    "txbytes" : "0xf885800a8404c4b40094cccccccccccccccccccccccccccccccccccccccc01a4693c6139000000000000000000000000000000000000000000000000000000000000000e1ca038eda85bee73907a8eca42c2425bd9c1c0cc7eb377305a1d12135cc442cc2595a01163d3c3c904542c96588d1a134242818a982a8ed0e28be50b5d74f89968ed6b",
                    "logs" : "0x1dcc4de8dec75d7aab85b567b6ccd41ad312451b948a7413f0a142fd40d49347"
                },
                {
                    "indexes" : {
                        "data" : 15,
                        "gas" : 0,
                        "value" : 0
                    },
                    "hash" : "0xccbf01731e13227d7542e8c2f44b4ff2d84e4c909f4ca17b9cde145130e74bc7",
                    "txbytes" : "0xf885800a8404c4b40094cccccccccccccccccccccccccccccccccccccccc01a4693c6139000000000000000000000000000000000000000000000000000000000000000f1ba0651a47e0c9ecbc6ea2c076f38a80e16d51db98bfba82c0fccc5ba4a09d5dd5aea006572dccf26b21afd25f5f58bf2f23fd0242c0774f44785976b7a9e1ff5c194f",
                    "logs" : "0x1dcc4de8dec75d7aab85b567b6ccd41ad312451b948a7413f0a142fd40d49347"
                }
            ],
            "London" : [
                {
                    "indexes" : {
                        "data" : 0,
                        "gas" : 0,
                        "value" : 0
                    },
                    "hash" : "0x87195e1e6b8320b49ca23fd8cb8601d3610cbe0b55f72d9ad20fa8194d16642a",
                    "txbytes" : "0xf885800a8404c4b40094cccccccccccccccccccccccccccccccccccccccc01a4693c613900000000000000000000000000000000000000000000000000000000000000001ba0e8ff56322287185f6afd3422a825b47bf5c1a4ccf0dc0389cdc03f7c1c32b7eaa0776b02f9f5773238d3ff36b74a123f409cd6420908d7855bbe4c8ff63e00d698",
                    "logs" : "0x1dcc4de8dec75d7aab85b567b6ccd41ad312451b948a7413f0a142fd40d49347"
                },
                {
                    "indexes" : {
                        "data" : 1,
                        "gas" : 0,
                        "value" : 0
                    },
                    "hash" : "0x50c2700549bd522e86d12bc04b488cfa8573b611f43820c79479896eade2d8b2",
                    "txbytes" : "0xf885800a8404c4b40094cccccccccccccccccccccccccccccccccccccccc01a4693c613900000000000000000000000000000000000000000000000000000000000000011ba02c5e81a024dd0f6fb773c8787fa46ab5eb55cb73df83562e6ddbe9106a3df7f6a029437b9a23e45bbfce086f2ddaa98b1e9e6914d7e58e2c5a128310042b332f89",
                    "logs" : "0x1dcc4de8dec75d7aab85b567b6ccd41ad312451b948a7413f0a142fd40d49347"
                },
                {
                    "indexes" : {
                        "data" : 2,
                        "gas" : 0,
                        "value" : 0
                    },
                    "hash" : "0xd392acc363db75a83ceacbb13b0d1aedef12a98f8c719003cbf916b1e273fe06",
                    "txbytes" : "0xf885800a8404c4b40094cccccccccccccccccccccccccccccccccccccccc01a4693c613900000000000000000000000000000000000000000000000000000000000000021ba0fc37ad4eb0633eb18f2b7867bacbe994a2ffcbb04a71e394e6e76041f6ce216fa03b1b415a5c386d8de9e16be9fdc188234b80a0dec99922d03c240f2e463053e3",
                    "logs" : "0x1dcc4de8dec75d7aab85b567b6ccd41ad312451b948a7413f0a142fd40d49347"
                },
                {
                    "indexes" : {
                        "data" : 3,
                        "gas" : 0,
                        "value" : 0
                    },
                    "hash" : "0xb6bbecde84025a0687d6c6edbf50a9e17cc27b3206b70d6b68909fefa7702489",
                    "txbytes" : "0xf885800a8404c4b40094cccccccccccccccccccccccccccccccccccccccc01a4693c613900000000000000000000000000000000000000000000000000000000000000031ba0f06eb219c5dba98711a9a2678339f64d172bfac289a5c43a0018d3917be8dc2aa0147bd7a6ee30217e63cbddc28b0e72f115da754d8916b87992aa27ed00eb105e",
                    "logs" : "0x1dcc4de8dec75d7aab85b567b6ccd41ad312451b948a7413f0a142fd40d49347"
                },
                {
                    "indexes" : {
                        "data" : 4,
                        "gas" : 0,
                        "value" : 0
                    },
                    "hash" : "0x49f5084ce0de17628f1a1acd9e5dd6b0e6e2b454385af916f4897020f9a47315",
                    "txbytes" : "0xf885800a8404c4b40094cccccccccccccccccccccccccccccccccccccccc01a4693c613900000000000000000000000000000000000000000000000000000000000000041ba0c148a101aa54703ff0e949441bdba90b1972a16c338f7f9a24b07f0313cd49d6a028cb82229b8a57e2048761d6fa5060c5b459f000d4e218de1372c1df9cfa171e",
                    "logs" : "0x1dcc4de8dec75d7aab85b567b6ccd41ad312451b948a7413f0a142fd40d49347"
                },
                {
                    "indexes" : {
                        "data" : 5,
                        "gas" : 0,
                        "value" : 0
                    },
                    "hash" : "0xf903cf5a87e97f4fb9e3bccac69a2dc2ff6e43b59c1455e049f62bade6e66c87",
                    "txbytes" : "0xf885800a8404c4b40094cccccccccccccccccccccccccccccccccccccccc01a4693c613900000000000000000000000000000000000000000000000000000000000000051ca09a1ce3fdc8469be9bbe660a07c169cf5b6b70fe408cc1395057bbd4cdc2c8557a0560e8c0503c4364efd017933749f22e1d9ad4eff4580d5463df54b9bff8dca31",
                    "logs" : "0x1dcc4de8dec75d7aab85b567b6ccd41ad312451b948a7413f0a142fd40d49347"
                },
                {
                    "indexes" : {
                        "data" : 6,
                        "gas" : 0,
                        "value" : 0
                    },
                    "hash" : "0xdabd755df6e9df4c388002f26f3a51d295c9a45466b7586bfe8b74fa3a76be07",
                    "txbytes" : "0xf885800a8404c4b40094cccccccccccccccccccccccccccccccccccccccc01a4693c613900000000000000000000000000000000000000000000000000000000000000061ca04f7114759d69db050a87677a2dff3d6f9399f0b66da593b2cc50748708377f6fa042f32766ce38ec3cee0d2c2dbc4d14b9cbf94e4af75b0584a04c933457bb83bb",
                    "logs" : "0x1dcc4de8dec75d7aab85b567b6ccd41ad312451b948a7413f0a142fd40d49347"
                },
                {
                    "indexes" : {
                        "data" : 7,
                        "gas" : 0,
                        "value" : 0
                    },
                    "hash" : "0xefb41b90f38f062897cc10eca9a968822b0f87ff3c1baf9c30779ff3608fcfc2",
                    "txbytes" : "0xf885800a8404c4b40094cccccccccccccccccccccccccccccccccccccccc01a4693c613900000000000000000000000000000000000000000000000000000000000000071ba0e77cc0b2a4af0e43bc5732d6747afb3ddcf781f7277650aeef15b9caba68c91aa04af80af420b77c3f4ad457f1c6535be5d46993e2c8987250d28d088b3a11bb4a",
                    "logs" : "0x1dcc4de8dec75d7aab85b567b6ccd41ad312451b948a7413f0a142fd40d49347"
                },
                {
                    "indexes" : {
                        "data" : 8,
                        "gas" : 0,
                        "value" : 0
                    },
                    "hash" : "0xa214873ac2a440a6fc7d24c6ee73a0d13b922aa6743dae73398a1c91e05bfbfc",
                    "txbytes" : "0xf884800a8404c4b40094cccccccccccccccccccccccccccccccccccccccc01a4693c613900000000000000000000000000000000000000000000000000000000000000081ca057f87767c304f58d8c351529457f9fbe53d04ba7f9f0ae7f2bac7a2d6dc59bc09fd8de811557a1287c01a1e09edeb750adba79cef13ebeb951d030ff29e63f39",
                    "logs" : "0x1dcc4de8dec75d7aab85b567b6ccd41ad312451b948a7413f0a142fd40d49347"
                },
                {
                    "indexes" : {
                        "data" : 9,
                        "gas" : 0,
                        "value" : 0
                    },
                    "hash" : "0x0b6e5709e2f39f775f6b2549bdef64596d146319a64bfc46f856319fbaded884",
                    "txbytes" : "0xf885800a8404c4b40094cccccccccccccccccccccccccccccccccccccccc01a4693c613900000000000000000000000000000000000000000000000000000000000000091ba09cffdf14ebc27c6c36a8cc9e679e32251165b52fb39e7ccc52cbc42f7157c301a032f0bebe1ae01ef86e26c0194bc26e9ed9e6bb7dad277927a92def3d0badbe74",
                    "logs" : "0x1dcc4de8dec75d7aab85b567b6ccd41ad312451b948a7413f0a142fd40d49347"
                },
                {
                    "indexes" : {
                        "data" : 10,
                        "gas" : 0,
                        "value" : 0
                    },
                    "hash" : "0x79d4088c14eea0b90483a6c80509360da99a1a72109c2dcdad45f123c59f371d",
                    "txbytes" : "0xf885800a8404c4b40094cccccccccccccccccccccccccccccccccccccccc01a4693c6139000000000000000000000000000000000000000000000000000000000000000a1ca0a1b03cd747783811efe72b24c5681a14f13ddc2a54b346efc81da94b8a6d82aaa04b794a29cf9f0433518c93172d3b2d7cd77315c278ec2220c80fa4448481a8a6",
                    "logs" : "0x1dcc4de8dec75d7aab85b567b6ccd41ad312451b948a7413f0a142fd40d49347"
                },
                {
                    "indexes" : {
                        "data" : 11,
                        "gas" : 0,
                        "value" : 0
                    },
                    "hash" : "0xc2fdf8ab7e4a6d5951042a0f07fd345acf8122c7db53c33949704b33145f7c60",
                    "txbytes" : "0xf885800a8404c4b40094cccccccccccccccccccccccccccccccccccccccc01a4693c6139000000000000000000000000000000000000000000000000000000000000000b1ca0c966b1649b82df31630735542a36cd21a0c8ccca99661e9daf19e24b5cd0b4d5a0297ca7c15e08b09a84dfdaee72deecc74b852df21c2b1cce63e4e3638c680015",
                    "logs" : "0x1dcc4de8dec75d7aab85b567b6ccd41ad312451b948a7413f0a142fd40d49347"
                },
                {
                    "indexes" : {
                        "data" : 12,
                        "gas" : 0,
                        "value" : 0
                    },
                    "hash" : "0xd8140af6a113694928e04acab2aecd846b17e8c4f38202664f6b6dfba8cf768e",
                    "txbytes" : "0xf885800a8404c4b40094cccccccccccccccccccccccccccccccccccccccc01a4693c6139000000000000000000000000000000000000000000000000000000000000000c1ca0e7c9b0d9792ea976c6e21b9ac03fec15a7a57ede02dd4d5d75bdaea8019be119a03b4dd5fbca89a77591d755174fb98c746ed2856efaa679866bb9591c16fd1ca2",
                    "logs" : "0x1dcc4de8dec75d7aab85b567b6ccd41ad312451b948a7413f0a142fd40d49347"
                },
                {
                    "indexes" : {
                        "data" : 13,
                        "gas" : 0,
                        "value" : 0
                    },
                    "hash" : "0xd8140af6a113694928e04acab2aecd846b17e8c4f38202664f6b6dfba8cf768e",
                    "txbytes" : "0xf885800a8404c4b40094cccccccccccccccccccccccccccccccccccccccc01a4693c6139000000000000000000000000000000000000000000000000000000000000000d1ca01691906b205874203c9abd32dd85c221936c1c63bf7231148e3846ce4b776a23a07496ef32b0a1259d037431119f19ceca327e9a7318eec4d71f1dbb8a878dc2f5",
                    "logs" : "0x1dcc4de8dec75d7aab85b567b6ccd41ad312451b948a7413f0a142fd40d49347"
                },
                {
                    "indexes" : {
                        "data" : 14,
                        "gas" : 0,
                        "value" : 0
                    },
                    "hash" : "0xd8140af6a113694928e04acab2aecd846b17e8c4f38202664f6b6dfba8cf768e",
                    "txbytes" : "0xf885800a8404c4b40094cccccccccccccccccccccccccccccccccccccccc01a4693c6139000000000000000000000000000000000000000000000000000000000000000e1ca038eda85bee73907a8eca42c2425bd9c1c0cc7eb377305a1d12135cc442cc2595a01163d3c3c904542c96588d1a134242818a982a8ed0e28be50b5d74f89968ed6b",
                    "logs" : "0x1dcc4de8dec75d7aab85b567b6ccd41ad312451b948a7413f0a142fd40d49347"
                },
                {
                    "indexes" : {
                        "data" : 15,
                        "gas" : 0,
                        "value" : 0
                    },
                    "hash" : "0xfb98327085371b49af656733ef4e34efa867d37c9e0b2035204a2b9394b092dc",
                    "txbytes" : "0xf885800a8404c4b40094cccccccccccccccccccccccccccccccccccccccc01a4693c6139000000000000000000000000000000000000000000000000000000000000000f1ba0651a47e0c9ecbc6ea2c076f38a80e16d51db98bfba82c0fccc5ba4a09d5dd5aea006572dccf26b21afd25f5f58bf2f23fd0242c0774f44785976b7a9e1ff5c194f",
                    "logs" : "0x1dcc4de8dec75d7aab85b567b6ccd41ad312451b948a7413f0a142fd40d49347"
                }
            ]
        },
        "pre" : {
            "0x0000000000000000000000000000000000000100" : {
                "balance" : "0x0ba1a9ce0ba1a9ce",
                "code" : "0x6002600260010860005500",
                "nonce" : "0x00",
                "storage" : {
                }
            },
            "0x0000000000000000000000000000000000000101" : {
                "balance" : "0x0ba1a9ce0ba1a9ce",
                "code" : "0x6002600260000360016000030860005500",
                "nonce" : "0x00",
                "storage" : {
                }
            },
            "0x0000000000000000000000000000000000000102" : {
                "balance" : "0x0ba1a9ce0ba1a9ce",
                "code" : "0x6003600160066000030860005500",
                "nonce" : "0x00",
                "storage" : {
                }
            },
            "0x0000000000000000000000000000000000000103" : {
                "balance" : "0x0ba1a9ce0ba1a9ce",
                "code" : "0x6003600160066000030860036005600003071460005500",
                "nonce" : "0x00",
                "storage" : {
                }
            },
            "0x0000000000000000000000000000000000000104" : {
                "balance" : "0x0ba1a9ce0ba1a9ce",
                "code" : "0x6003600160066000030860036005600003061460005500",
                "nonce" : "0x00",
                "storage" : {
                }
            },
            "0x0000000000000000000000000000000000000105" : {
                "balance" : "0x0ba1a9ce0ba1a9ce",
                "code" : "0x6003600003600160040860005500",
                "nonce" : "0x00",
                "storage" : {
                }
            },
            "0x0000000000000000000000000000000000000106" : {
                "balance" : "0x0ba1a9ce0ba1a9ce",
                "code" : "0x6002600360000360016004081460005500",
                "nonce" : "0x00",
                "storage" : {
                }
            },
            "0x0000000000000000000000000000000000000107" : {
                "balance" : "0x0ba1a9ce0ba1a9ce",
                "code" : "0x6005600060016000030860005500",
                "nonce" : "0x00",
                "storage" : {
                }
            },
            "0x0000000000000000000000000000000000000108" : {
                "balance" : "0x0ba1a9ce0ba1a9ce",
                "code" : "0x6005600160016000030860005500",
                "nonce" : "0x00",
                "storage" : {
                }
            },
            "0x0000000000000000000000000000000000000109" : {
                "balance" : "0x0ba1a9ce0ba1a9ce",
                "code" : "0x6005600260016000030860005500",
                "nonce" : "0x00",
                "storage" : {
                }
            },
            "0x000000000000000000000000000000000000010a" : {
                "balance" : "0x0ba1a9ce0ba1a9ce",
                "code" : "0x6005600260000360016000030860005500",
                "nonce" : "0x00",
                "storage" : {
                }
            },
            "0x000000000000000000000000000000000000010b" : {
                "balance" : "0x0ba1a9ce0ba1a9ce",
                "code" : "0x600560017fffffffffffffffffffffffffffffffffffffffffffffffffffffffffffffffff0860005500",
                "nonce" : "0x00",
                "storage" : {
                }
            },
            "0x000000000000000000000000000000000000010c" : {
                "balance" : "0x0ba1a9ce0ba1a9ce",
                "code" : "0x6000600160040860005500",
                "nonce" : "0x00",
                "storage" : {
                }
            },
            "0x000000000000000000000000000000000000010d" : {
                "balance" : "0x0ba1a9ce0ba1a9ce",
                "code" : "0x6000600160000860005500",
                "nonce" : "0x00",
                "storage" : {
                }
            },
            "0x000000000000000000000000000000000000010e" : {
                "balance" : "0x0ba1a9ce0ba1a9ce",
                "code" : "0x6000600060010860005500",
                "nonce" : "0x00",
                "storage" : {
                }
            },
            "0x000000000000000000000000000000000000010f" : {
                "balance" : "0x0ba1a9ce0ba1a9ce",
                "code" : "0x6001600060006000080360005500",
                "nonce" : "0x00",
                "storage" : {
                }
            },
            "0xa94f5374fce5edbc8e2a8697c15331677e6ebf0b" : {
                "balance" : "0x0ba1a9ce0ba1a9ce",
                "code" : "0x",
                "nonce" : "0x00",
                "storage" : {
                }
            },
            "0xcccccccccccccccccccccccccccccccccccccccc" : {
                "balance" : "0x0ba1a9ce0ba1a9ce",
                "code" : "0x600060006000600060006004356101000162fffffff100",
                "nonce" : "0x00",
                "storage" : {
                }
            }
        },
        "transaction" : {
            "data" : [
                "0x693c61390000000000000000000000000000000000000000000000000000000000000000",
                "0x693c61390000000000000000000000000000000000000000000000000000000000000001",
                "0x693c61390000000000000000000000000000000000000000000000000000000000000002",
                "0x693c61390000000000000000000000000000000000000000000000000000000000000003",
                "0x693c61390000000000000000000000000000000000000000000000000000000000000004",
                "0x693c61390000000000000000000000000000000000000000000000000000000000000005",
                "0x693c61390000000000000000000000000000000000000000000000000000000000000006",
                "0x693c61390000000000000000000000000000000000000000000000000000000000000007",
                "0x693c61390000000000000000000000000000000000000000000000000000000000000008",
                "0x693c61390000000000000000000000000000000000000000000000000000000000000009",
                "0x693c6139000000000000000000000000000000000000000000000000000000000000000a",
                "0x693c6139000000000000000000000000000000000000000000000000000000000000000b",
                "0x693c6139000000000000000000000000000000000000000000000000000000000000000c",
                "0x693c6139000000000000000000000000000000000000000000000000000000000000000d",
                "0x693c6139000000000000000000000000000000000000000000000000000000000000000e",
                "0x693c6139000000000000000000000000000000000000000000000000000000000000000f"
            ],
            "gasPrice" : "0x0a",
            "gasLimit" : [
                "0x04c4b400"
            ],
            "nonce" : "0x00",
            "secretKey" : "0x45a915e4d060149eb4365960e6a7a45f334393093061116b197e3240065ff2d8",
            "to" : "0xcccccccccccccccccccccccccccccccccccccccc",
            "value" : [
                "0x01"
            ]
        }
    }
}