{
    "expPower256" : {
        "_info" : {
            "comment" : "Ori Pomerantz qbzzt1@gmail.com",
            "filling-rpc-server" : "evm version 1.10.4-unstable-966ee3ae-20210528",
            "filling-tool-version" : "retesteth-0.1.1-eip1559+commit.658fc3a8.Linux.g++",
            "lllcversion" : "Version: 0.5.14-develop.2021.5.18+commit.14c9d5de.mod.Linux.g++",
            "source" : "src/GeneralStateTestsFiller/VMTests/vmArithmeticTest/expPower256Filler.yml",
            "sourceHash" : "6b5d2c7a652301a7741d30ed4d1d6cb9cf95248b3a44d4c28442a378a85ccf33"
        },
        "env" : {
            "currentCoinbase" : "0x2adc25665018aa1fe0e6bc666dac8fc2697ff9ba",
            "currentDifficulty" : "0x020000",
            "currentNumber" : "0x01",
            "currentTimestamp" : "0x03e8",
            "previousHash" : "0x5e20a0453cecd065ea59c37ac63e079ee08998b6045136a8ce6635c7912ec0b6",
            "currentGasLimit" : "0x05f5e100"
        },
        "post" : {
            "Berlin" : [
                {
                    "indexes" : {
                        "data" : 0,
                        "gas" : 0,
                        "value" : 0
                    },
                    "hash" : "0x97e9d857718e4477a2ea953f68e415cd19d160a5989e27261b75d793660f6a7c",
                    "txbytes" : "0xf885800a8404c4b40094cccccccccccccccccccccccccccccccccccccccc01a4693c613900000000000000000000000000000000000000000000000000000000000000001ba0e8ff56322287185f6afd3422a825b47bf5c1a4ccf0dc0389cdc03f7c1c32b7eaa0776b02f9f5773238d3ff36b74a123f409cd6420908d7855bbe4c8ff63e00d698",
                    "logs" : "0x1dcc4de8dec75d7aab85b567b6ccd41ad312451b948a7413f0a142fd40d49347"
                }
            ],
            "Istanbul" : [
                {
                    "indexes" : {
                        "data" : 0,
                        "gas" : 0,
                        "value" : 0
                    },
                    "hash" : "0xe14a7ed05428808f1f948ca53e5663927cc371de3ff4629634f3a4e953794d88",
                    "txbytes" : "0xf885800a8404c4b40094cccccccccccccccccccccccccccccccccccccccc01a4693c613900000000000000000000000000000000000000000000000000000000000000001ba0e8ff56322287185f6afd3422a825b47bf5c1a4ccf0dc0389cdc03f7c1c32b7eaa0776b02f9f5773238d3ff36b74a123f409cd6420908d7855bbe4c8ff63e00d698",
                    "logs" : "0x1dcc4de8dec75d7aab85b567b6ccd41ad312451b948a7413f0a142fd40d49347"
                }
            ],
            "London" : [
                {
                    "indexes" : {
                        "data" : 0,
                        "gas" : 0,
                        "value" : 0
                    },
                    "hash" : "0x860e42edde799ef710ce6e2f86447313989364b17a51af421d1fcd0f40191443",
                    "txbytes" : "0xf885800a8404c4b40094cccccccccccccccccccccccccccccccccccccccc01a4693c613900000000000000000000000000000000000000000000000000000000000000001ba0e8ff56322287185f6afd3422a825b47bf5c1a4ccf0dc0389cdc03f7c1c32b7eaa0776b02f9f5773238d3ff36b74a123f409cd6420908d7855bbe4c8ff63e00d698",
                    "logs" : "0x1dcc4de8dec75d7aab85b567b6ccd41ad312451b948a7413f0a142fd40d49347"
                }
            ]
        },
        "pre" : {
            "0xa94f5374fce5edbc8e2a8697c15331677e6ebf0b" : {
                "balance" : "0x0ba1a9ce0ba1a9ce",
                "code" : "0x",
                "nonce" : "0x00",
                "storage" : {
                }
            },
            "0xcccccccccccccccccccccccccccccccccccccccc" : {
                "balance" : "0x0ba1a9ce0ba1a9ce",
                "code" : "0x60006101000a600060100255600060ff0a60016000601002015560006101010a60026000601002015560016101000a600160100255600160ff0a60016001601002015560016101010a60026001601002015560026101000a600260100255600260ff0a60016002601002015560026101010a60026002601002015560036101000a600360100255600360ff0a60016003601002015560036101010a60026003601002015560046101000a600460100255600460ff0a60016004601002015560046101010a60026004601002015560056101000a600560100255600560ff0a60016005601002015560056101010a60026005601002015560066101000a600660100255600660ff0a60016006601002015560066101010a60026006601002015560076101000a600760100255600760ff0a60016007601002015560076101010a60026007601002015560086101000a600860100255600860ff0a60016008601002015560086101010a60026008601002015560096101000a600960100255600960ff0a60016009601002015560096101010a600260096010020155600a6101000a600a60100255600a60ff0a6001600a6010020155600a6101010a6002600a6010020155600b6101000a600b60100255600b60ff0a6001600b6010020155600b6101010a6002600b6010020155600c6101000a600c60100255600c60ff0a6001600c6010020155600c6101010a6002600c6010020155600d6101000a600d60100255600d60ff0a6001600d6010020155600d6101010a6002600d6010020155600e6101000a600e60100255600e60ff0a6001600e6010020155600e6101010a6002600e6010020155600f6101000a600f60100255600f60ff0a6001600f6010020155600f6101010a6002600f601002015560106101000a601060100255601060ff0a60016010601002015560106101010a60026010601002015560116101000a601160100255601160ff0a60016011601002015560116101010a60026011601002015560126101000a601260100255601260ff0a60016012601002015560126101010a60026012601002015560136101000a601360100255601360ff0a60016013601002015560136101010a60026013601002015560146101000a601460100255601460ff0a60016014601002015560146101010a60026014601002015560156101000a601560100255601560ff0a60016015601002015560156101010a60026015601002015560166101000a601660100255601660ff0a60016016601002015560166101010a60026016601002015560176101000a601760100255601760ff0a60016017601002015560176101010a60026017601002015560186101000a601860100255601860ff0a60016018601002015560186101010a60026018601002015560196101000a601960100255601960ff0a60016019601002015560196101010a600260196010020155601a6101000a601a60100255601a60ff0a6001601a6010020155601a6101010a6002601a6010020155601b6101000a601b60100255601b60ff0a6001601b6010020155601b6101010a6002601b6010020155601c6101000a601c60100255601c60ff0a6001601c6010020155601c6101010a6002601c6010020155601d6101000a601d60100255601d60ff0a6001601d6010020155601d6101010a6002601d6010020155601e6101000a601e60100255601e60ff0a6001601e6010020155601e6101010a6002601e6010020155601f6101000a601f60100255601f60ff0a6001601f6010020155601f6101010a6002601f601002015560206101000a602060100255602060ff0a60016020601002015560206101010a60026020601002015560216101000a602160100255602160ff0a60016021601002015560216101010a60026021601002015500",
                "nonce" : "0x00",
                "storage" : {
                }
            }
        },
        "transaction" : {
            "data" : [
                "0x693c61390000000000000000000000000000000000000000000000000000000000000000"
            ],
            "gasPrice" : "0x0a",
            "gasLimit" : [
                "0x04c4b400"
            ],
            "nonce" : "0x00",
            "secretKey" : "0x45a915e4d060149eb4365960e6a7a45f334393093061116b197e3240065ff2d8",
            "to" : "0xcccccccccccccccccccccccccccccccccccccccc",
            "value" : [
                "0x01"
            ]
        }
    }
}