{
    "randomStatetest271_d0g0v0_Berlin" : {
        "_info" : {
            "comment" : "",
            "filling-rpc-server" : "evm version 1.10.4-unstable-966ee3ae-20210528",
            "filling-tool-version" : "retesteth-0.1.1-eip1559+commit.658fc3a8.Linux.g++",
            "lllcversion" : "Version: 0.5.14-develop.2021.5.18+commit.14c9d5de.mod.Linux.g++",
            "source" : "src/GeneralStateTestsFiller/stRandom/randomStatetest271Filler.json",
            "sourceHash" : "6bbf42e5305a51f572ed5be5d734bd41da33516fe0562018e96b5274a5d8440a"
        },
        "genesisBlockHeader" : {
            "bloom" : "0x00000000000000000000000000000000000000000000000000000000000000000000000000000000000000000000000000000000000000000000000000000000000000000000000000000000000000000000000000000000000000000000000000000000000000000000000000000000000000000000000000000000000000000000000000000000000000000000000000000000000000000000000000000000000000000000000000000000000000000000000000000000000000000000000000000000000000000000000000000000000000000000000000000000000000000000000000000000000000000000000000000000000000000000000000000000",
            "coinbase" : "0x945304eb96065b2a98b57a48a06ae28d285a71b5",
            "difficulty" : "0x020000",
            "extraData" : "0x00",
            "gasLimit" : "0x7fffffffffffffff",
            "gasUsed" : "0x00",
            "hash" : "0xf17119e6079a36a5f04272b8467ee80f70682db8fdae08bf46f77adebee98f93",
            "mixHash" : "0x0000000000000000000000000000000000000000000000000000000000000000",
            "nonce" : "0x0000000000000000",
            "number" : "0x00",
            "parentHash" : "0x0000000000000000000000000000000000000000000000000000000000000000",
            "receiptTrie" : "0x56e81f171bcc55a6ff8345e692c0f86e5b48e01b996cadc001622fb5e363b421",
            "stateRoot" : "0xb41ea2dee1a9985ed93e4b8c2883840c326234a5ed586a61d27e23e7b3f8674e",
            "timestamp" : "0x00",
            "transactionsTrie" : "0x56e81f171bcc55a6ff8345e692c0f86e5b48e01b996cadc001622fb5e363b421",
            "uncleHash" : "0x1dcc4de8dec75d7aab85b567b6ccd41ad312451b948a7413f0a142fd40d49347"
        },
        "pre" : {
            "0x095e7baea6a6c7c4c2dfeb977efac326af552d87" : {
                "balance" : "0x00",
                "code" : "0x7f0000000000000000000000000000000000000000000000000000000000000001457f000000000000000000000000000000000000000000000000000000000000c350417f000000000000000000000000945304eb96065b2a98b57a48a06ae28d285a71b57f0000000000000000000000000000000000000000000000000000000000000000357f00000000000000000000000000000000000000000000000000000000000000000b6d7d958a0269995560005155",
                "nonce" : "0x00",
                "storage" : {
                }
            },
            "0x945304eb96065b2a98b57a48a06ae28d285a71b5" : {
                "balance" : "0x2e",
                "code" : "0x6000355415600957005b60203560003555",
                "nonce" : "0x00",
                "storage" : {
                }
            },
            "0xa94f5374fce5edbc8e2a8697c15331677e6ebf0b" : {
                "balance" : "0x0de0b6b3a7640000",
                "code" : "0x",
                "nonce" : "0x00",
                "storage" : {
                }
            }
        },
        "postState" : {
            "0x095e7baea6a6c7c4c2dfeb977efac326af552d87" : {
                "code" : "0x7f0000000000000000000000000000000000000000000000000000000000000001457f000000000000000000000000000000000000000000000000000000000000c350417f000000000000000000000000945304eb96065b2a98b57a48a06ae28d285a71b57f0000000000000000000000000000000000000000000000000000000000000000357f00000000000000000000000000000000000000000000000000000000000000000b6d7d958a0269995560005155",
                "nonce" : "0x00",
                "balance" : "0x0b900eb8",
                "storage" : {
                }
            },
            "0x945304eb96065b2a98b57a48a06ae28d285a71b5" : {
                "code" : "0x6000355415600957005b60203560003555",
                "nonce" : "0x00",
                "balance" : "0x1bc16d674ecb6372",
                "storage" : {
                }
            },
            "0xa94f5374fce5edbc8e2a8697c15331677e6ebf0b" : {
                "code" : "0x",
                "nonce" : "0x01",
                "balance" : "0x0de0b6b39bd08e04",
                "storage" : {
                }
            }
        },
        "network" : "Berlin",
        "sealEngine" : "NoProof",
        "lastblockhash" : "0x3dce491d8d828b2f1ec55b1dc2a0ac3e6faaa731de5eaf074534fed16b2a6fff",
        "genesisRLP" : "0xf901fdf901f8a00000000000000000000000000000000000000000000000000000000000000000a01dcc4de8dec75d7aab85b567b6ccd41ad312451b948a7413f0a142fd40d4934794945304eb96065b2a98b57a48a06ae28d285a71b5a0b41ea2dee1a9985ed93e4b8c2883840c326234a5ed586a61d27e23e7b3f8674ea056e81f171bcc55a6ff8345e692c0f86e5b48e01b996cadc001622fb5e363b421a056e81f171bcc55a6ff8345e692c0f86e5b48e01b996cadc001622fb5e363b421b90100000000000000000000000000000000000000000000000000000000000000000000000000000000000000000000000000000000000000000000000000000000000000000000000000000000000000000000000000000000000000000000000000000000000000000000000000000000000000000000000000000000000000000000000000000000000000000000000000000000000000000000000000000000000000000000000000000000000000000000000000000000000000000000000000000000000000000000000000000000000000000000000000000000000000000000000000000000000000000000000000000000000000000000000000000000008302000080887fffffffffffffff808000a00000000000000000000000000000000000000000000000000000000000000000880000000000000000c0c0",
        "blocks" : [
            {
                "rlp" : "0xf9031cf901fca0f17119e6079a36a5f04272b8467ee80f70682db8fdae08bf46f77adebee98f93a01dcc4de8dec75d7aab85b567b6ccd41ad312451b948a7413f0a142fd40d4934794945304eb96065b2a98b57a48a06ae28d285a71b5a0f147fc9d7414b84ac25fea8a0eb2f6d50a48fdc87e68551801091deddbfed106a09a84371ebf13a0c800f790c9376a0fcc8e6adb46d0416acf4ed446f6ddceb69ca0a6fc149c37dcb52f146d398fb95671d26596916121b054b243ca677eb82315abb90100000000000000000000000000000000000000000000000000000000000000000000000000000000000000000000000000000000000000000000000000000000000000000000000000000000000000000000000000000000000000000000000000000000000000000000000000000000000000000000000000000000000000000000000000000000000000000000000000000000000000000000000000000000000000000000000000000000000000000000000000000000000000000000000000000000000000000000000000000000000000000000000000000000000000000000000000000000000000000000000000000000000000000000000000000000008302000001887fffffffffffffff8256ba8203e800a00000000000000000000000000000000000000000000000000000000000000000880000000000000000f90119f90116800a84238967b794095e7baea6a6c7c4c2dfeb977efac326af552d87840b900eb8b8b07f0000000000000000000000000000000000000000000000000000000000000001457f000000000000000000000000000000000000000000000000000000000000c350417f000000000000000000000000945304eb96065b2a98b57a48a06ae28d285a71b57f0000000000000000000000000000000000000000000000000000000000000000357f00000000000000000000000000000000000000000000000000000000000000000b6d7d958a0269991ba0b8d07e25fe28029a8a179d7735d04ff81a5f8955999937425aa1bd83053ec471a0226eb5745b80ba7d3a779cdabab587baefbec87e69d3baa0ab98a0f16931b9f7c0",
                "blockHeader" : {
                    "bloom" : "0x00000000000000000000000000000000000000000000000000000000000000000000000000000000000000000000000000000000000000000000000000000000000000000000000000000000000000000000000000000000000000000000000000000000000000000000000000000000000000000000000000000000000000000000000000000000000000000000000000000000000000000000000000000000000000000000000000000000000000000000000000000000000000000000000000000000000000000000000000000000000000000000000000000000000000000000000000000000000000000000000000000000000000000000000000000000",
                    "coinbase" : "0x945304eb96065b2a98b57a48a06ae28d285a71b5",
                    "difficulty" : "0x020000",
                    "extraData" : "0x00",
                    "gasLimit" : "0x7fffffffffffffff",
                    "gasUsed" : "0x56ba",
                    "hash" : "0x3dce491d8d828b2f1ec55b1dc2a0ac3e6faaa731de5eaf074534fed16b2a6fff",
                    "mixHash" : "0x0000000000000000000000000000000000000000000000000000000000000000",
                    "nonce" : "0x0000000000000000",
                    "number" : "0x01",
                    "parentHash" : "0xf17119e6079a36a5f04272b8467ee80f70682db8fdae08bf46f77adebee98f93",
                    "receiptTrie" : "0xa6fc149c37dcb52f146d398fb95671d26596916121b054b243ca677eb82315ab",
                    "stateRoot" : "0xf147fc9d7414b84ac25fea8a0eb2f6d50a48fdc87e68551801091deddbfed106",
                    "timestamp" : "0x03e8",
                    "transactionsTrie" : "0x9a84371ebf13a0c800f790c9376a0fcc8e6adb46d0416acf4ed446f6ddceb69c",
                    "uncleHash" : "0x1dcc4de8dec75d7aab85b567b6ccd41ad312451b948a7413f0a142fd40d49347"
                },
                "transactions" : [
                    {
                        "data" : "0x7f0000000000000000000000000000000000000000000000000000000000000001457f000000000000000000000000000000000000000000000000000000000000c350417f000000000000000000000000945304eb96065b2a98b57a48a06ae28d285a71b57f0000000000000000000000000000000000000000000000000000000000000000357f00000000000000000000000000000000000000000000000000000000000000000b6d7d958a026999",
                        "gasLimit" : "0x238967b7",
                        "gasPrice" : "0x0a",
                        "nonce" : "0x00",
                        "to" : "0x095e7baea6a6c7c4c2dfeb977efac326af552d87",
                        "value" : "0x0b900eb8",
                        "v" : "0x1b",
                        "r" : "0xb8d07e25fe28029a8a179d7735d04ff81a5f8955999937425aa1bd83053ec471",
                        "s" : "0x226eb5745b80ba7d3a779cdabab587baefbec87e69d3baa0ab98a0f16931b9f7"
                    }
                ],
                "uncleHeaders" : [
                ]
            }
        ]
    },
    "randomStatetest271_d0g0v0_Istanbul" : {
        "_info" : {
            "comment" : "",
            "filling-rpc-server" : "evm version 1.10.4-unstable-966ee3ae-20210528",
            "filling-tool-version" : "retesteth-0.1.1-eip1559+commit.658fc3a8.Linux.g++",
            "lllcversion" : "Version: 0.5.14-develop.2021.5.18+commit.14c9d5de.mod.Linux.g++",
            "source" : "src/GeneralStateTestsFiller/stRandom/randomStatetest271Filler.json",
            "sourceHash" : "6bbf42e5305a51f572ed5be5d734bd41da33516fe0562018e96b5274a5d8440a"
        },
        "genesisBlockHeader" : {
            "bloom" : "0x00000000000000000000000000000000000000000000000000000000000000000000000000000000000000000000000000000000000000000000000000000000000000000000000000000000000000000000000000000000000000000000000000000000000000000000000000000000000000000000000000000000000000000000000000000000000000000000000000000000000000000000000000000000000000000000000000000000000000000000000000000000000000000000000000000000000000000000000000000000000000000000000000000000000000000000000000000000000000000000000000000000000000000000000000000000",
            "coinbase" : "0x945304eb96065b2a98b57a48a06ae28d285a71b5",
            "difficulty" : "0x020000",
            "extraData" : "0x00",
            "gasLimit" : "0x7fffffffffffffff",
            "gasUsed" : "0x00",
            "hash" : "0xf17119e6079a36a5f04272b8467ee80f70682db8fdae08bf46f77adebee98f93",
            "mixHash" : "0x0000000000000000000000000000000000000000000000000000000000000000",
            "nonce" : "0x0000000000000000",
            "number" : "0x00",
            "parentHash" : "0x0000000000000000000000000000000000000000000000000000000000000000",
            "receiptTrie" : "0x56e81f171bcc55a6ff8345e692c0f86e5b48e01b996cadc001622fb5e363b421",
            "stateRoot" : "0xb41ea2dee1a9985ed93e4b8c2883840c326234a5ed586a61d27e23e7b3f8674e",
            "timestamp" : "0x00",
            "transactionsTrie" : "0x56e81f171bcc55a6ff8345e692c0f86e5b48e01b996cadc001622fb5e363b421",
            "uncleHash" : "0x1dcc4de8dec75d7aab85b567b6ccd41ad312451b948a7413f0a142fd40d49347"
        },
        "pre" : {
            "0x095e7baea6a6c7c4c2dfeb977efac326af552d87" : {
                "balance" : "0x00",
                "code" : "0x7f0000000000000000000000000000000000000000000000000000000000000001457f000000000000000000000000000000000000000000000000000000000000c350417f000000000000000000000000945304eb96065b2a98b57a48a06ae28d285a71b57f0000000000000000000000000000000000000000000000000000000000000000357f00000000000000000000000000000000000000000000000000000000000000000b6d7d958a0269995560005155",
                "nonce" : "0x00",
                "storage" : {
                }
            },
            "0x945304eb96065b2a98b57a48a06ae28d285a71b5" : {
                "balance" : "0x2e",
                "code" : "0x6000355415600957005b60203560003555",
                "nonce" : "0x00",
                "storage" : {
                }
            },
            "0xa94f5374fce5edbc8e2a8697c15331677e6ebf0b" : {
                "balance" : "0x0de0b6b3a7640000",
                "code" : "0x",
                "nonce" : "0x00",
                "storage" : {
                }
            }
        },
        "postState" : {
            "0x095e7baea6a6c7c4c2dfeb977efac326af552d87" : {
                "code" : "0x7f0000000000000000000000000000000000000000000000000000000000000001457f000000000000000000000000000000000000000000000000000000000000c350417f000000000000000000000000945304eb96065b2a98b57a48a06ae28d285a71b57f0000000000000000000000000000000000000000000000000000000000000000357f00000000000000000000000000000000000000000000000000000000000000000b6d7d958a0269995560005155",
                "nonce" : "0x00",
                "balance" : "0x0b900eb8",
                "storage" : {
                }
            },
            "0x945304eb96065b2a98b57a48a06ae28d285a71b5" : {
                "code" : "0x6000355415600957005b60203560003555",
                "nonce" : "0x00",
                "balance" : "0x1bc16d674ecb6372",
                "storage" : {
                }
            },
            "0xa94f5374fce5edbc8e2a8697c15331677e6ebf0b" : {
                "code" : "0x",
                "nonce" : "0x01",
                "balance" : "0x0de0b6b39bd08e04",
                "storage" : {
                }
            }
        },
        "network" : "Istanbul",
        "sealEngine" : "NoProof",
        "lastblockhash" : "0x3dce491d8d828b2f1ec55b1dc2a0ac3e6faaa731de5eaf074534fed16b2a6fff",
        "genesisRLP" : "0xf901fdf901f8a00000000000000000000000000000000000000000000000000000000000000000a01dcc4de8dec75d7aab85b567b6ccd41ad312451b948a7413f0a142fd40d4934794945304eb96065b2a98b57a48a06ae28d285a71b5a0b41ea2dee1a9985ed93e4b8c2883840c326234a5ed586a61d27e23e7b3f8674ea056e81f171bcc55a6ff8345e692c0f86e5b48e01b996cadc001622fb5e363b421a056e81f171bcc55a6ff8345e692c0f86e5b48e01b996cadc001622fb5e363b421b90100000000000000000000000000000000000000000000000000000000000000000000000000000000000000000000000000000000000000000000000000000000000000000000000000000000000000000000000000000000000000000000000000000000000000000000000000000000000000000000000000000000000000000000000000000000000000000000000000000000000000000000000000000000000000000000000000000000000000000000000000000000000000000000000000000000000000000000000000000000000000000000000000000000000000000000000000000000000000000000000000000000000000000000000000000000008302000080887fffffffffffffff808000a00000000000000000000000000000000000000000000000000000000000000000880000000000000000c0c0",
        "blocks" : [
            {
                "rlp" : "0xf9031cf901fca0f17119e6079a36a5f04272b8467ee80f70682db8fdae08bf46f77adebee98f93a01dcc4de8dec75d7aab85b567b6ccd41ad312451b948a7413f0a142fd40d4934794945304eb96065b2a98b57a48a06ae28d285a71b5a0f147fc9d7414b84ac25fea8a0eb2f6d50a48fdc87e68551801091deddbfed106a09a84371ebf13a0c800f790c9376a0fcc8e6adb46d0416acf4ed446f6ddceb69ca0a6fc149c37dcb52f146d398fb95671d26596916121b054b243ca677eb82315abb90100000000000000000000000000000000000000000000000000000000000000000000000000000000000000000000000000000000000000000000000000000000000000000000000000000000000000000000000000000000000000000000000000000000000000000000000000000000000000000000000000000000000000000000000000000000000000000000000000000000000000000000000000000000000000000000000000000000000000000000000000000000000000000000000000000000000000000000000000000000000000000000000000000000000000000000000000000000000000000000000000000000000000000000000000000000008302000001887fffffffffffffff8256ba8203e800a00000000000000000000000000000000000000000000000000000000000000000880000000000000000f90119f90116800a84238967b794095e7baea6a6c7c4c2dfeb977efac326af552d87840b900eb8b8b07f0000000000000000000000000000000000000000000000000000000000000001457f000000000000000000000000000000000000000000000000000000000000c350417f000000000000000000000000945304eb96065b2a98b57a48a06ae28d285a71b57f0000000000000000000000000000000000000000000000000000000000000000357f00000000000000000000000000000000000000000000000000000000000000000b6d7d958a0269991ba0b8d07e25fe28029a8a179d7735d04ff81a5f8955999937425aa1bd83053ec471a0226eb5745b80ba7d3a779cdabab587baefbec87e69d3baa0ab98a0f16931b9f7c0",
                "blockHeader" : {
                    "bloom" : "0x00000000000000000000000000000000000000000000000000000000000000000000000000000000000000000000000000000000000000000000000000000000000000000000000000000000000000000000000000000000000000000000000000000000000000000000000000000000000000000000000000000000000000000000000000000000000000000000000000000000000000000000000000000000000000000000000000000000000000000000000000000000000000000000000000000000000000000000000000000000000000000000000000000000000000000000000000000000000000000000000000000000000000000000000000000000",
                    "coinbase" : "0x945304eb96065b2a98b57a48a06ae28d285a71b5",
                    "difficulty" : "0x020000",
                    "extraData" : "0x00",
                    "gasLimit" : "0x7fffffffffffffff",
                    "gasUsed" : "0x56ba",
                    "hash" : "0x3dce491d8d828b2f1ec55b1dc2a0ac3e6faaa731de5eaf074534fed16b2a6fff",
                    "mixHash" : "0x0000000000000000000000000000000000000000000000000000000000000000",
                    "nonce" : "0x0000000000000000",
                    "number" : "0x01",
                    "parentHash" : "0xf17119e6079a36a5f04272b8467ee80f70682db8fdae08bf46f77adebee98f93",
                    "receiptTrie" : "0xa6fc149c37dcb52f146d398fb95671d26596916121b054b243ca677eb82315ab",
                    "stateRoot" : "0xf147fc9d7414b84ac25fea8a0eb2f6d50a48fdc87e68551801091deddbfed106",
                    "timestamp" : "0x03e8",
                    "transactionsTrie" : "0x9a84371ebf13a0c800f790c9376a0fcc8e6adb46d0416acf4ed446f6ddceb69c",
                    "uncleHash" : "0x1dcc4de8dec75d7aab85b567b6ccd41ad312451b948a7413f0a142fd40d49347"
                },
                "transactions" : [
                    {
                        "data" : "0x7f0000000000000000000000000000000000000000000000000000000000000001457f000000000000000000000000000000000000000000000000000000000000c350417f000000000000000000000000945304eb96065b2a98b57a48a06ae28d285a71b57f0000000000000000000000000000000000000000000000000000000000000000357f00000000000000000000000000000000000000000000000000000000000000000b6d7d958a026999",
                        "gasLimit" : "0x238967b7",
                        "gasPrice" : "0x0a",
                        "nonce" : "0x00",
                        "to" : "0x095e7baea6a6c7c4c2dfeb977efac326af552d87",
                        "value" : "0x0b900eb8",
                        "v" : "0x1b",
                        "r" : "0xb8d07e25fe28029a8a179d7735d04ff81a5f8955999937425aa1bd83053ec471",
                        "s" : "0x226eb5745b80ba7d3a779cdabab587baefbec87e69d3baa0ab98a0f16931b9f7"
                    }
                ],
                "uncleHeaders" : [
                ]
            }
        ]
    },
    "randomStatetest271_d0g0v0_London" : {
        "_info" : {
            "comment" : "",
            "filling-rpc-server" : "evm version 1.10.4-unstable-966ee3ae-20210528",
            "filling-tool-version" : "retesteth-0.1.1-eip1559+commit.658fc3a8.Linux.g++",
            "lllcversion" : "Version: 0.5.14-develop.2021.5.18+commit.14c9d5de.mod.Linux.g++",
            "source" : "src/GeneralStateTestsFiller/stRandom/randomStatetest271Filler.json",
            "sourceHash" : "6bbf42e5305a51f572ed5be5d734bd41da33516fe0562018e96b5274a5d8440a"
        },
        "genesisBlockHeader" : {
            "bloom" : "0x00000000000000000000000000000000000000000000000000000000000000000000000000000000000000000000000000000000000000000000000000000000000000000000000000000000000000000000000000000000000000000000000000000000000000000000000000000000000000000000000000000000000000000000000000000000000000000000000000000000000000000000000000000000000000000000000000000000000000000000000000000000000000000000000000000000000000000000000000000000000000000000000000000000000000000000000000000000000000000000000000000000000000000000000000000000",
            "coinbase" : "0x945304eb96065b2a98b57a48a06ae28d285a71b5",
            "difficulty" : "0x020000",
            "extraData" : "0x00",
            "gasLimit" : "0x7fffffffffffffff",
            "gasUsed" : "0x00",
            "hash" : "0xd24ea6099dc57e8959a43f21322129e44c5801e8fc97b713e97477146c41b2b7",
            "mixHash" : "0x0000000000000000000000000000000000000000000000000000000000000000",
            "nonce" : "0x0000000000000000",
            "number" : "0x00",
            "parentHash" : "0x0000000000000000000000000000000000000000000000000000000000000000",
            "receiptTrie" : "0x56e81f171bcc55a6ff8345e692c0f86e5b48e01b996cadc001622fb5e363b421",
            "stateRoot" : "0xb41ea2dee1a9985ed93e4b8c2883840c326234a5ed586a61d27e23e7b3f8674e",
            "timestamp" : "0x00",
            "transactionsTrie" : "0x56e81f171bcc55a6ff8345e692c0f86e5b48e01b996cadc001622fb5e363b421",
            "uncleHash" : "0x1dcc4de8dec75d7aab85b567b6ccd41ad312451b948a7413f0a142fd40d49347",
            "baseFee" : "0x0b"
        },
        "pre" : {
            "0x095e7baea6a6c7c4c2dfeb977efac326af552d87" : {
                "balance" : "0x00",
                "code" : "0x7f0000000000000000000000000000000000000000000000000000000000000001457f000000000000000000000000000000000000000000000000000000000000c350417f000000000000000000000000945304eb96065b2a98b57a48a06ae28d285a71b57f0000000000000000000000000000000000000000000000000000000000000000357f00000000000000000000000000000000000000000000000000000000000000000b6d7d958a0269995560005155",
                "nonce" : "0x00",
                "storage" : {
                }
            },
            "0x945304eb96065b2a98b57a48a06ae28d285a71b5" : {
                "balance" : "0x2e",
                "code" : "0x6000355415600957005b60203560003555",
                "nonce" : "0x00",
                "storage" : {
                }
            },
            "0xa94f5374fce5edbc8e2a8697c15331677e6ebf0b" : {
                "balance" : "0x0de0b6b3a7640000",
                "code" : "0x",
                "nonce" : "0x00",
                "storage" : {
                }
            }
        },
        "postState" : {
            "0x095e7baea6a6c7c4c2dfeb977efac326af552d87" : {
                "code" : "0x7f0000000000000000000000000000000000000000000000000000000000000001457f000000000000000000000000000000000000000000000000000000000000c350417f000000000000000000000000945304eb96065b2a98b57a48a06ae28d285a71b57f0000000000000000000000000000000000000000000000000000000000000000357f00000000000000000000000000000000000000000000000000000000000000000b6d7d958a0269995560005155",
                "nonce" : "0x00",
                "balance" : "0x0b900eb8",
                "storage" : {
                }
            },
            "0x945304eb96065b2a98b57a48a06ae28d285a71b5" : {
                "code" : "0x6000355415600957005b60203560003555",
                "nonce" : "0x00",
                "balance" : "0x1bc16d674ec8002e",
                "storage" : {
                }
            },
            "0xa94f5374fce5edbc8e2a8697c15331677e6ebf0b" : {
                "code" : "0x",
                "nonce" : "0x01",
                "balance" : "0x0de0b6b39bd08e04",
                "storage" : {
                }
            }
        },
        "network" : "London",
        "sealEngine" : "NoProof",
        "lastblockhash" : "0x6734ca45b2946091ba4a193358b370f88328473158f749401d1c713f4bef0653",
        "genesisRLP" : "0xf901fef901f9a00000000000000000000000000000000000000000000000000000000000000000a01dcc4de8dec75d7aab85b567b6ccd41ad312451b948a7413f0a142fd40d4934794945304eb96065b2a98b57a48a06ae28d285a71b5a0b41ea2dee1a9985ed93e4b8c2883840c326234a5ed586a61d27e23e7b3f8674ea056e81f171bcc55a6ff8345e692c0f86e5b48e01b996cadc001622fb5e363b421a056e81f171bcc55a6ff8345e692c0f86e5b48e01b996cadc001622fb5e363b421b90100000000000000000000000000000000000000000000000000000000000000000000000000000000000000000000000000000000000000000000000000000000000000000000000000000000000000000000000000000000000000000000000000000000000000000000000000000000000000000000000000000000000000000000000000000000000000000000000000000000000000000000000000000000000000000000000000000000000000000000000000000000000000000000000000000000000000000000000000000000000000000000000000000000000000000000000000000000000000000000000000000000000000000000000000000000008302000080887fffffffffffffff808000a000000000000000000000000000000000000000000000000000000000000000008800000000000000000bc0c0",
        "blocks" : [
            {
                "rlp" : "0xf9031df901fda0d24ea6099dc57e8959a43f21322129e44c5801e8fc97b713e97477146c41b2b7a01dcc4de8dec75d7aab85b567b6ccd41ad312451b948a7413f0a142fd40d4934794945304eb96065b2a98b57a48a06ae28d285a71b5a03a2516d72f3617809b973d7ddd7c9e484cf55e66184faab22d431e0e85e62297a09a84371ebf13a0c800f790c9376a0fcc8e6adb46d0416acf4ed446f6ddceb69ca0a6fc149c37dcb52f146d398fb95671d26596916121b054b243ca677eb82315abb90100000000000000000000000000000000000000000000000000000000000000000000000000000000000000000000000000000000000000000000000000000000000000000000000000000000000000000000000000000000000000000000000000000000000000000000000000000000000000000000000000000000000000000000000000000000000000000000000000000000000000000000000000000000000000000000000000000000000000000000000000000000000000000000000000000000000000000000000000000000000000000000000000000000000000000000000000000000000000000000000000000000000000000000000000000000008302000001887fffffffffffffff8256ba8203e800a000000000000000000000000000000000000000000000000000000000000000008800000000000000000af90119f90116800a84238967b794095e7baea6a6c7c4c2dfeb977efac326af552d87840b900eb8b8b07f0000000000000000000000000000000000000000000000000000000000000001457f000000000000000000000000000000000000000000000000000000000000c350417f000000000000000000000000945304eb96065b2a98b57a48a06ae28d285a71b57f0000000000000000000000000000000000000000000000000000000000000000357f00000000000000000000000000000000000000000000000000000000000000000b6d7d958a0269991ba0b8d07e25fe28029a8a179d7735d04ff81a5f8955999937425aa1bd83053ec471a0226eb5745b80ba7d3a779cdabab587baefbec87e69d3baa0ab98a0f16931b9f7c0",
                "blockHeader" : {
                    "bloom" : "0x00000000000000000000000000000000000000000000000000000000000000000000000000000000000000000000000000000000000000000000000000000000000000000000000000000000000000000000000000000000000000000000000000000000000000000000000000000000000000000000000000000000000000000000000000000000000000000000000000000000000000000000000000000000000000000000000000000000000000000000000000000000000000000000000000000000000000000000000000000000000000000000000000000000000000000000000000000000000000000000000000000000000000000000000000000000",
                    "coinbase" : "0x945304eb96065b2a98b57a48a06ae28d285a71b5",
                    "difficulty" : "0x020000",
                    "extraData" : "0x00",
                    "gasLimit" : "0x7fffffffffffffff",
                    "gasUsed" : "0x56ba",
                    "hash" : "0x6734ca45b2946091ba4a193358b370f88328473158f749401d1c713f4bef0653",
                    "mixHash" : "0x0000000000000000000000000000000000000000000000000000000000000000",
                    "nonce" : "0x0000000000000000",
                    "number" : "0x01",
                    "parentHash" : "0xd24ea6099dc57e8959a43f21322129e44c5801e8fc97b713e97477146c41b2b7",
                    "receiptTrie" : "0xa6fc149c37dcb52f146d398fb95671d26596916121b054b243ca677eb82315ab",
                    "stateRoot" : "0x3a2516d72f3617809b973d7ddd7c9e484cf55e66184faab22d431e0e85e62297",
                    "timestamp" : "0x03e8",
                    "transactionsTrie" : "0x9a84371ebf13a0c800f790c9376a0fcc8e6adb46d0416acf4ed446f6ddceb69c",
                    "uncleHash" : "0x1dcc4de8dec75d7aab85b567b6ccd41ad312451b948a7413f0a142fd40d49347",
                    "baseFee" : "0x0a"
                },
                "transactions" : [
                    {
                        "data" : "0x7f0000000000000000000000000000000000000000000000000000000000000001457f000000000000000000000000000000000000000000000000000000000000c350417f000000000000000000000000945304eb96065b2a98b57a48a06ae28d285a71b57f0000000000000000000000000000000000000000000000000000000000000000357f00000000000000000000000000000000000000000000000000000000000000000b6d7d958a026999",
                        "gasLimit" : "0x238967b7",
                        "gasPrice" : "0x0a",
                        "nonce" : "0x00",
                        "to" : "0x095e7baea6a6c7c4c2dfeb977efac326af552d87",
                        "value" : "0x0b900eb8",
                        "v" : "0x1b",
                        "r" : "0xb8d07e25fe28029a8a179d7735d04ff81a5f8955999937425aa1bd83053ec471",
                        "s" : "0x226eb5745b80ba7d3a779cdabab587baefbec87e69d3baa0ab98a0f16931b9f7"
                    }
                ],
                "uncleHeaders" : [
                ]
            }
        ]
    }
}