{
    "randomStatetest13_d0g0v0_Berlin" : {
        "_info" : {
            "comment" : "",
            "filling-rpc-server" : "evm version 1.10.4-unstable-966ee3ae-20210528",
            "filling-tool-version" : "retesteth-0.1.1-eip1559+commit.658fc3a8.Linux.g++",
            "lllcversion" : "Version: 0.5.14-develop.2021.5.18+commit.14c9d5de.mod.Linux.g++",
            "source" : "src/GeneralStateTestsFiller/stRandom/randomStatetest13Filler.json",
            "sourceHash" : "3aca124ef15ff9a4ede6bc5d098a32443ff9797b613b34520676861c477f50e4"
        },
        "genesisBlockHeader" : {
            "bloom" : "0x00000000000000000000000000000000000000000000000000000000000000000000000000000000000000000000000000000000000000000000000000000000000000000000000000000000000000000000000000000000000000000000000000000000000000000000000000000000000000000000000000000000000000000000000000000000000000000000000000000000000000000000000000000000000000000000000000000000000000000000000000000000000000000000000000000000000000000000000000000000000000000000000000000000000000000000000000000000000000000000000000000000000000000000000000000000",
            "coinbase" : "0x945304eb96065b2a98b57a48a06ae28d285a71b5",
            "difficulty" : "0x020000",
            "extraData" : "0x00",
            "gasLimit" : "0x7fffffffffffffff",
            "gasUsed" : "0x00",
            "hash" : "0xd169e2cd4b05ac1b766aeb1fa00abe7e63c2bc94eb5deeafef3ac8ed7b476726",
            "mixHash" : "0x0000000000000000000000000000000000000000000000000000000000000000",
            "nonce" : "0x0000000000000000",
            "number" : "0x00",
            "parentHash" : "0x0000000000000000000000000000000000000000000000000000000000000000",
            "receiptTrie" : "0x56e81f171bcc55a6ff8345e692c0f86e5b48e01b996cadc001622fb5e363b421",
            "stateRoot" : "0xf5b694669ef16667225801b4abb4051b4c7cc9562486986a41e796da305a5ed5",
            "timestamp" : "0x00",
            "transactionsTrie" : "0x56e81f171bcc55a6ff8345e692c0f86e5b48e01b996cadc001622fb5e363b421",
            "uncleHash" : "0x1dcc4de8dec75d7aab85b567b6ccd41ad312451b948a7413f0a142fd40d49347"
        },
        "pre" : {
            "0x095e7baea6a6c7c4c2dfeb977efac326af552d87" : {
                "balance" : "0x00",
                "code" : "0x7f000000000000000000000000945304eb96065b2a98b57a48a06ae28d285a71b57fffffffffffffffffffffffffffffffffffffffffffffffffffffffffffffffff7f0000000000000000000000000000000000000000000000000000000000000000027ffffffffffffffffffffffffffffffffffffffffffffffffffffffffffffffffe307f00000000000000000000000100000000000000000000000000000000000000007f00000000000000000000000100000000000000000000000000000000000000005255",
                "nonce" : "0x00",
                "storage" : {
                }
            },
            "0x945304eb96065b2a98b57a48a06ae28d285a71b5" : {
                "balance" : "0x2e",
                "code" : "0x6000355415600957005b60203560003555",
                "nonce" : "0x00",
                "storage" : {
                }
            },
            "0xa94f5374fce5edbc8e2a8697c15331677e6ebf0b" : {
                "balance" : "0x0de0b6b3a7640000",
                "code" : "0x",
                "nonce" : "0x00",
                "storage" : {
                }
            }
        },
        "postState" : {
            "0x095e7baea6a6c7c4c2dfeb977efac326af552d87" : {
                "code" : "0x7f000000000000000000000000945304eb96065b2a98b57a48a06ae28d285a71b57fffffffffffffffffffffffffffffffffffffffffffffffffffffffffffffffff7f0000000000000000000000000000000000000000000000000000000000000000027ffffffffffffffffffffffffffffffffffffffffffffffffffffffffffffffffe307f00000000000000000000000100000000000000000000000000000000000000007f00000000000000000000000100000000000000000000000000000000000000005255",
                "nonce" : "0x00",
                "balance" : "0x00",
                "storage" : {
                }
            },
            "0x945304eb96065b2a98b57a48a06ae28d285a71b5" : {
                "code" : "0x6000355415600957005b60203560003555",
                "nonce" : "0x00",
                "balance" : "0x1bc16d6a85e04d34",
                "storage" : {
                }
            },
            "0xa94f5374fce5edbc8e2a8697c15331677e6ebf0b" : {
                "code" : "0x",
                "nonce" : "0x01",
                "balance" : "0x0de0b6b0704bb2fa",
                "storage" : {
                }
            }
        },
        "network" : "Berlin",
        "sealEngine" : "NoProof",
        "lastblockhash" : "0x699b2aa9ef27aa09ff7e996cab065cd332ab764cab38a5fb2ad1508a100348dc",
        "genesisRLP" : "0xf901fdf901f8a00000000000000000000000000000000000000000000000000000000000000000a01dcc4de8dec75d7aab85b567b6ccd41ad312451b948a7413f0a142fd40d4934794945304eb96065b2a98b57a48a06ae28d285a71b5a0f5b694669ef16667225801b4abb4051b4c7cc9562486986a41e796da305a5ed5a056e81f171bcc55a6ff8345e692c0f86e5b48e01b996cadc001622fb5e363b421a056e81f171bcc55a6ff8345e692c0f86e5b48e01b996cadc001622fb5e363b421b90100000000000000000000000000000000000000000000000000000000000000000000000000000000000000000000000000000000000000000000000000000000000000000000000000000000000000000000000000000000000000000000000000000000000000000000000000000000000000000000000000000000000000000000000000000000000000000000000000000000000000000000000000000000000000000000000000000000000000000000000000000000000000000000000000000000000000000000000000000000000000000000000000000000000000000000000000000000000000000000000000000000000000000000000000000000008302000080887fffffffffffffff808000a00000000000000000000000000000000000000000000000000000000000000000880000000000000000c0c0",
        "blocks" : [
            {
                "rlp" : "0xf90337f901fea0d169e2cd4b05ac1b766aeb1fa00abe7e63c2bc94eb5deeafef3ac8ed7b476726a01dcc4de8dec75d7aab85b567b6ccd41ad312451b948a7413f0a142fd40d4934794945304eb96065b2a98b57a48a06ae28d285a71b5a07c7c35fed17625e6db47442fc133e11c2ae7ea06014adcc216705cc0dc2d3827a00eae683026d91d8abeb0ca34b64fcd308a55d474612533d2ad0f0c4c48a68385a016dbda800700d3c1e0f7ad074516666c14df62a786c42151a87089d1bb52e1cdb90100000000000000000000000000000000000000000000000000000000000000000000000000000000000000000000000000000000000000000000000000000000000000000000000000000000000000000000000000000000000000000000000000000000000000000000000000000000000000000000000000000000000000000000000000000000000000000000000000000000000000000000000000000000000000000000000000000000000000000000000000000000000000000000000000000000000000000000000000000000000000000000000000000000000000000000000000000000000000000000000000000000000000000000000000000000008302000001887fffffffffffffff84524f3ae78203e800a00000000000000000000000000000000000000000000000000000000000000000880000000000000000f90132f9012f800a84524f3ae794095e7baea6a6c7c4c2dfeb977efac326af552d878437d68e6cb8c97f000000000000000000000000945304eb96065b2a98b57a48a06ae28d285a71b57fffffffffffffffffffffffffffffffffffffffffffffffffffffffffffffffff7f0000000000000000000000000000000000000000000000000000000000000000027ffffffffffffffffffffffffffffffffffffffffffffffffffffffffffffffffe307f00000000000000000000000100000000000000000000000000000000000000007f0000000000000000000000010000000000000000000000000000000000000000521ca0b56fefd0fa07ae74cc2920127981ad3731f3f95d845012aafb2dc30e36f3df95a020cbeedcc0fbbac6c1aa7cfb6590d3771f9778e5216ccf97ee050bd3891839acc0",
                "blockHeader" : {
                    "bloom" : "0x00000000000000000000000000000000000000000000000000000000000000000000000000000000000000000000000000000000000000000000000000000000000000000000000000000000000000000000000000000000000000000000000000000000000000000000000000000000000000000000000000000000000000000000000000000000000000000000000000000000000000000000000000000000000000000000000000000000000000000000000000000000000000000000000000000000000000000000000000000000000000000000000000000000000000000000000000000000000000000000000000000000000000000000000000000000",
                    "coinbase" : "0x945304eb96065b2a98b57a48a06ae28d285a71b5",
                    "difficulty" : "0x020000",
                    "extraData" : "0x00",
                    "gasLimit" : "0x7fffffffffffffff",
                    "gasUsed" : "0x524f3ae7",
                    "hash" : "0x699b2aa9ef27aa09ff7e996cab065cd332ab764cab38a5fb2ad1508a100348dc",
                    "mixHash" : "0x0000000000000000000000000000000000000000000000000000000000000000",
                    "nonce" : "0x0000000000000000",
                    "number" : "0x01",
                    "parentHash" : "0xd169e2cd4b05ac1b766aeb1fa00abe7e63c2bc94eb5deeafef3ac8ed7b476726",
                    "receiptTrie" : "0x16dbda800700d3c1e0f7ad074516666c14df62a786c42151a87089d1bb52e1cd",
                    "stateRoot" : "0x7c7c35fed17625e6db47442fc133e11c2ae7ea06014adcc216705cc0dc2d3827",
                    "timestamp" : "0x03e8",
                    "transactionsTrie" : "0x0eae683026d91d8abeb0ca34b64fcd308a55d474612533d2ad0f0c4c48a68385",
                    "uncleHash" : "0x1dcc4de8dec75d7aab85b567b6ccd41ad312451b948a7413f0a142fd40d49347"
                },
                "transactions" : [
                    {
                        "data" : "0x7f000000000000000000000000945304eb96065b2a98b57a48a06ae28d285a71b57fffffffffffffffffffffffffffffffffffffffffffffffffffffffffffffffff7f0000000000000000000000000000000000000000000000000000000000000000027ffffffffffffffffffffffffffffffffffffffffffffffffffffffffffffffffe307f00000000000000000000000100000000000000000000000000000000000000007f000000000000000000000001000000000000000000000000000000000000000052",
                        "gasLimit" : "0x524f3ae7",
                        "gasPrice" : "0x0a",
                        "nonce" : "0x00",
                        "to" : "0x095e7baea6a6c7c4c2dfeb977efac326af552d87",
                        "value" : "0x37d68e6c",
                        "v" : "0x1c",
                        "r" : "0xb56fefd0fa07ae74cc2920127981ad3731f3f95d845012aafb2dc30e36f3df95",
                        "s" : "0x20cbeedcc0fbbac6c1aa7cfb6590d3771f9778e5216ccf97ee050bd3891839ac"
                    }
                ],
                "uncleHeaders" : [
                ]
            }
        ]
    },
    "randomStatetest13_d0g0v0_Istanbul" : {
        "_info" : {
            "comment" : "",
            "filling-rpc-server" : "evm version 1.10.4-unstable-966ee3ae-20210528",
            "filling-tool-version" : "retesteth-0.1.1-eip1559+commit.658fc3a8.Linux.g++",
            "lllcversion" : "Version: 0.5.14-develop.2021.5.18+commit.14c9d5de.mod.Linux.g++",
            "source" : "src/GeneralStateTestsFiller/stRandom/randomStatetest13Filler.json",
            "sourceHash" : "3aca124ef15ff9a4ede6bc5d098a32443ff9797b613b34520676861c477f50e4"
        },
        "genesisBlockHeader" : {
            "bloom" : "0x00000000000000000000000000000000000000000000000000000000000000000000000000000000000000000000000000000000000000000000000000000000000000000000000000000000000000000000000000000000000000000000000000000000000000000000000000000000000000000000000000000000000000000000000000000000000000000000000000000000000000000000000000000000000000000000000000000000000000000000000000000000000000000000000000000000000000000000000000000000000000000000000000000000000000000000000000000000000000000000000000000000000000000000000000000000",
            "coinbase" : "0x945304eb96065b2a98b57a48a06ae28d285a71b5",
            "difficulty" : "0x020000",
            "extraData" : "0x00",
            "gasLimit" : "0x7fffffffffffffff",
            "gasUsed" : "0x00",
            "hash" : "0xd169e2cd4b05ac1b766aeb1fa00abe7e63c2bc94eb5deeafef3ac8ed7b476726",
            "mixHash" : "0x0000000000000000000000000000000000000000000000000000000000000000",
            "nonce" : "0x0000000000000000",
            "number" : "0x00",
            "parentHash" : "0x0000000000000000000000000000000000000000000000000000000000000000",
            "receiptTrie" : "0x56e81f171bcc55a6ff8345e692c0f86e5b48e01b996cadc001622fb5e363b421",
            "stateRoot" : "0xf5b694669ef16667225801b4abb4051b4c7cc9562486986a41e796da305a5ed5",
            "timestamp" : "0x00",
            "transactionsTrie" : "0x56e81f171bcc55a6ff8345e692c0f86e5b48e01b996cadc001622fb5e363b421",
            "uncleHash" : "0x1dcc4de8dec75d7aab85b567b6ccd41ad312451b948a7413f0a142fd40d49347"
        },
        "pre" : {
            "0x095e7baea6a6c7c4c2dfeb977efac326af552d87" : {
                "balance" : "0x00",
                "code" : "0x7f000000000000000000000000945304eb96065b2a98b57a48a06ae28d285a71b57fffffffffffffffffffffffffffffffffffffffffffffffffffffffffffffffff7f0000000000000000000000000000000000000000000000000000000000000000027ffffffffffffffffffffffffffffffffffffffffffffffffffffffffffffffffe307f00000000000000000000000100000000000000000000000000000000000000007f00000000000000000000000100000000000000000000000000000000000000005255",
                "nonce" : "0x00",
                "storage" : {
                }
            },
            "0x945304eb96065b2a98b57a48a06ae28d285a71b5" : {
                "balance" : "0x2e",
                "code" : "0x6000355415600957005b60203560003555",
                "nonce" : "0x00",
                "storage" : {
                }
            },
            "0xa94f5374fce5edbc8e2a8697c15331677e6ebf0b" : {
                "balance" : "0x0de0b6b3a7640000",
                "code" : "0x",
                "nonce" : "0x00",
                "storage" : {
                }
            }
        },
        "postState" : {
            "0x095e7baea6a6c7c4c2dfeb977efac326af552d87" : {
                "code" : "0x7f000000000000000000000000945304eb96065b2a98b57a48a06ae28d285a71b57fffffffffffffffffffffffffffffffffffffffffffffffffffffffffffffffff7f0000000000000000000000000000000000000000000000000000000000000000027ffffffffffffffffffffffffffffffffffffffffffffffffffffffffffffffffe307f00000000000000000000000100000000000000000000000000000000000000007f00000000000000000000000100000000000000000000000000000000000000005255",
                "nonce" : "0x00",
                "balance" : "0x00",
                "storage" : {
                }
            },
            "0x945304eb96065b2a98b57a48a06ae28d285a71b5" : {
                "code" : "0x6000355415600957005b60203560003555",
                "nonce" : "0x00",
                "balance" : "0x1bc16d6a85e04d34",
                "storage" : {
                }
            },
            "0xa94f5374fce5edbc8e2a8697c15331677e6ebf0b" : {
                "code" : "0x",
                "nonce" : "0x01",
                "balance" : "0x0de0b6b0704bb2fa",
                "storage" : {
                }
            }
        },
        "network" : "Istanbul",
        "sealEngine" : "NoProof",
        "lastblockhash" : "0x699b2aa9ef27aa09ff7e996cab065cd332ab764cab38a5fb2ad1508a100348dc",
        "genesisRLP" : "0xf901fdf901f8a00000000000000000000000000000000000000000000000000000000000000000a01dcc4de8dec75d7aab85b567b6ccd41ad312451b948a7413f0a142fd40d4934794945304eb96065b2a98b57a48a06ae28d285a71b5a0f5b694669ef16667225801b4abb4051b4c7cc9562486986a41e796da305a5ed5a056e81f171bcc55a6ff8345e692c0f86e5b48e01b996cadc001622fb5e363b421a056e81f171bcc55a6ff8345e692c0f86e5b48e01b996cadc001622fb5e363b421b90100000000000000000000000000000000000000000000000000000000000000000000000000000000000000000000000000000000000000000000000000000000000000000000000000000000000000000000000000000000000000000000000000000000000000000000000000000000000000000000000000000000000000000000000000000000000000000000000000000000000000000000000000000000000000000000000000000000000000000000000000000000000000000000000000000000000000000000000000000000000000000000000000000000000000000000000000000000000000000000000000000000000000000000000000000000008302000080887fffffffffffffff808000a00000000000000000000000000000000000000000000000000000000000000000880000000000000000c0c0",
        "blocks" : [
            {
                "rlp" : "0xf90337f901fea0d169e2cd4b05ac1b766aeb1fa00abe7e63c2bc94eb5deeafef3ac8ed7b476726a01dcc4de8dec75d7aab85b567b6ccd41ad312451b948a7413f0a142fd40d4934794945304eb96065b2a98b57a48a06ae28d285a71b5a07c7c35fed17625e6db47442fc133e11c2ae7ea06014adcc216705cc0dc2d3827a00eae683026d91d8abeb0ca34b64fcd308a55d474612533d2ad0f0c4c48a68385a016dbda800700d3c1e0f7ad074516666c14df62a786c42151a87089d1bb52e1cdb90100000000000000000000000000000000000000000000000000000000000000000000000000000000000000000000000000000000000000000000000000000000000000000000000000000000000000000000000000000000000000000000000000000000000000000000000000000000000000000000000000000000000000000000000000000000000000000000000000000000000000000000000000000000000000000000000000000000000000000000000000000000000000000000000000000000000000000000000000000000000000000000000000000000000000000000000000000000000000000000000000000000000000000000000000000000008302000001887fffffffffffffff84524f3ae78203e800a00000000000000000000000000000000000000000000000000000000000000000880000000000000000f90132f9012f800a84524f3ae794095e7baea6a6c7c4c2dfeb977efac326af552d878437d68e6cb8c97f000000000000000000000000945304eb96065b2a98b57a48a06ae28d285a71b57fffffffffffffffffffffffffffffffffffffffffffffffffffffffffffffffff7f0000000000000000000000000000000000000000000000000000000000000000027ffffffffffffffffffffffffffffffffffffffffffffffffffffffffffffffffe307f00000000000000000000000100000000000000000000000000000000000000007f0000000000000000000000010000000000000000000000000000000000000000521ca0b56fefd0fa07ae74cc2920127981ad3731f3f95d845012aafb2dc30e36f3df95a020cbeedcc0fbbac6c1aa7cfb6590d3771f9778e5216ccf97ee050bd3891839acc0",
                "blockHeader" : {
                    "bloom" : "0x00000000000000000000000000000000000000000000000000000000000000000000000000000000000000000000000000000000000000000000000000000000000000000000000000000000000000000000000000000000000000000000000000000000000000000000000000000000000000000000000000000000000000000000000000000000000000000000000000000000000000000000000000000000000000000000000000000000000000000000000000000000000000000000000000000000000000000000000000000000000000000000000000000000000000000000000000000000000000000000000000000000000000000000000000000000",
                    "coinbase" : "0x945304eb96065b2a98b57a48a06ae28d285a71b5",
                    "difficulty" : "0x020000",
                    "extraData" : "0x00",
                    "gasLimit" : "0x7fffffffffffffff",
                    "gasUsed" : "0x524f3ae7",
                    "hash" : "0x699b2aa9ef27aa09ff7e996cab065cd332ab764cab38a5fb2ad1508a100348dc",
                    "mixHash" : "0x0000000000000000000000000000000000000000000000000000000000000000",
                    "nonce" : "0x0000000000000000",
                    "number" : "0x01",
                    "parentHash" : "0xd169e2cd4b05ac1b766aeb1fa00abe7e63c2bc94eb5deeafef3ac8ed7b476726",
                    "receiptTrie" : "0x16dbda800700d3c1e0f7ad074516666c14df62a786c42151a87089d1bb52e1cd",
                    "stateRoot" : "0x7c7c35fed17625e6db47442fc133e11c2ae7ea06014adcc216705cc0dc2d3827",
                    "timestamp" : "0x03e8",
                    "transactionsTrie" : "0x0eae683026d91d8abeb0ca34b64fcd308a55d474612533d2ad0f0c4c48a68385",
                    "uncleHash" : "0x1dcc4de8dec75d7aab85b567b6ccd41ad312451b948a7413f0a142fd40d49347"
                },
                "transactions" : [
                    {
                        "data" : "0x7f000000000000000000000000945304eb96065b2a98b57a48a06ae28d285a71b57fffffffffffffffffffffffffffffffffffffffffffffffffffffffffffffffff7f0000000000000000000000000000000000000000000000000000000000000000027ffffffffffffffffffffffffffffffffffffffffffffffffffffffffffffffffe307f00000000000000000000000100000000000000000000000000000000000000007f000000000000000000000001000000000000000000000000000000000000000052",
                        "gasLimit" : "0x524f3ae7",
                        "gasPrice" : "0x0a",
                        "nonce" : "0x00",
                        "to" : "0x095e7baea6a6c7c4c2dfeb977efac326af552d87",
                        "value" : "0x37d68e6c",
                        "v" : "0x1c",
                        "r" : "0xb56fefd0fa07ae74cc2920127981ad3731f3f95d845012aafb2dc30e36f3df95",
                        "s" : "0x20cbeedcc0fbbac6c1aa7cfb6590d3771f9778e5216ccf97ee050bd3891839ac"
                    }
                ],
                "uncleHeaders" : [
                ]
            }
        ]
    },
    "randomStatetest13_d0g0v0_London" : {
        "_info" : {
            "comment" : "",
            "filling-rpc-server" : "evm version 1.10.4-unstable-966ee3ae-20210528",
            "filling-tool-version" : "retesteth-0.1.1-eip1559+commit.658fc3a8.Linux.g++",
            "lllcversion" : "Version: 0.5.14-develop.2021.5.18+commit.14c9d5de.mod.Linux.g++",
            "source" : "src/GeneralStateTestsFiller/stRandom/randomStatetest13Filler.json",
            "sourceHash" : "3aca124ef15ff9a4ede6bc5d098a32443ff9797b613b34520676861c477f50e4"
        },
        "genesisBlockHeader" : {
            "bloom" : "0x00000000000000000000000000000000000000000000000000000000000000000000000000000000000000000000000000000000000000000000000000000000000000000000000000000000000000000000000000000000000000000000000000000000000000000000000000000000000000000000000000000000000000000000000000000000000000000000000000000000000000000000000000000000000000000000000000000000000000000000000000000000000000000000000000000000000000000000000000000000000000000000000000000000000000000000000000000000000000000000000000000000000000000000000000000000",
            "coinbase" : "0x945304eb96065b2a98b57a48a06ae28d285a71b5",
            "difficulty" : "0x020000",
            "extraData" : "0x00",
            "gasLimit" : "0x7fffffffffffffff",
            "gasUsed" : "0x00",
            "hash" : "0x7cd6163d4cb6025c1930dc6cb987c9f90a7de6e874f07af3eb273f6f390a7b7b",
            "mixHash" : "0x0000000000000000000000000000000000000000000000000000000000000000",
            "nonce" : "0x0000000000000000",
            "number" : "0x00",
            "parentHash" : "0x0000000000000000000000000000000000000000000000000000000000000000",
            "receiptTrie" : "0x56e81f171bcc55a6ff8345e692c0f86e5b48e01b996cadc001622fb5e363b421",
            "stateRoot" : "0xf5b694669ef16667225801b4abb4051b4c7cc9562486986a41e796da305a5ed5",
            "timestamp" : "0x00",
            "transactionsTrie" : "0x56e81f171bcc55a6ff8345e692c0f86e5b48e01b996cadc001622fb5e363b421",
            "uncleHash" : "0x1dcc4de8dec75d7aab85b567b6ccd41ad312451b948a7413f0a142fd40d49347",
            "baseFee" : "0x0b"
        },
        "pre" : {
            "0x095e7baea6a6c7c4c2dfeb977efac326af552d87" : {
                "balance" : "0x00",
                "code" : "0x7f000000000000000000000000945304eb96065b2a98b57a48a06ae28d285a71b57fffffffffffffffffffffffffffffffffffffffffffffffffffffffffffffffff7f0000000000000000000000000000000000000000000000000000000000000000027ffffffffffffffffffffffffffffffffffffffffffffffffffffffffffffffffe307f00000000000000000000000100000000000000000000000000000000000000007f00000000000000000000000100000000000000000000000000000000000000005255",
                "nonce" : "0x00",
                "storage" : {
                }
            },
            "0x945304eb96065b2a98b57a48a06ae28d285a71b5" : {
                "balance" : "0x2e",
                "code" : "0x6000355415600957005b60203560003555",
                "nonce" : "0x00",
                "storage" : {
                }
            },
            "0xa94f5374fce5edbc8e2a8697c15331677e6ebf0b" : {
                "balance" : "0x0de0b6b3a7640000",
                "code" : "0x",
                "nonce" : "0x00",
                "storage" : {
                }
            }
        },
        "postState" : {
            "0x095e7baea6a6c7c4c2dfeb977efac326af552d87" : {
                "code" : "0x7f000000000000000000000000945304eb96065b2a98b57a48a06ae28d285a71b57fffffffffffffffffffffffffffffffffffffffffffffffffffffffffffffffff7f0000000000000000000000000000000000000000000000000000000000000000027ffffffffffffffffffffffffffffffffffffffffffffffffffffffffffffffffe307f00000000000000000000000100000000000000000000000000000000000000007f00000000000000000000000100000000000000000000000000000000000000005255",
                "nonce" : "0x00",
                "balance" : "0x00",
                "storage" : {
                }
            },
            "0x945304eb96065b2a98b57a48a06ae28d285a71b5" : {
                "code" : "0x6000355415600957005b60203560003555",
                "nonce" : "0x00",
                "balance" : "0x1bc16d674ec8002e",
                "storage" : {
                }
            },
            "0xa94f5374fce5edbc8e2a8697c15331677e6ebf0b" : {
                "code" : "0x",
                "nonce" : "0x01",
                "balance" : "0x0de0b6b0704bb2fa",
                "storage" : {
                }
            }
        },
        "network" : "London",
        "sealEngine" : "NoProof",
        "lastblockhash" : "0xeb4c3e74513ada04013fffd8a5933e40b4c356a70fd3bbaca6614a0651852c37",
        "genesisRLP" : "0xf901fef901f9a00000000000000000000000000000000000000000000000000000000000000000a01dcc4de8dec75d7aab85b567b6ccd41ad312451b948a7413f0a142fd40d4934794945304eb96065b2a98b57a48a06ae28d285a71b5a0f5b694669ef16667225801b4abb4051b4c7cc9562486986a41e796da305a5ed5a056e81f171bcc55a6ff8345e692c0f86e5b48e01b996cadc001622fb5e363b421a056e81f171bcc55a6ff8345e692c0f86e5b48e01b996cadc001622fb5e363b421b90100000000000000000000000000000000000000000000000000000000000000000000000000000000000000000000000000000000000000000000000000000000000000000000000000000000000000000000000000000000000000000000000000000000000000000000000000000000000000000000000000000000000000000000000000000000000000000000000000000000000000000000000000000000000000000000000000000000000000000000000000000000000000000000000000000000000000000000000000000000000000000000000000000000000000000000000000000000000000000000000000000000000000000000000000000000008302000080887fffffffffffffff808000a000000000000000000000000000000000000000000000000000000000000000008800000000000000000bc0c0",
        "blocks" : [
            {
                "rlp" : "0xf90338f901ffa07cd6163d4cb6025c1930dc6cb987c9f90a7de6e874f07af3eb273f6f390a7b7ba01dcc4de8dec75d7aab85b567b6ccd41ad312451b948a7413f0a142fd40d4934794945304eb96065b2a98b57a48a06ae28d285a71b5a034e2dd18eb6509917bebd8c66189da0737741d40b672fef1eeb39a1fc5c08190a00eae683026d91d8abeb0ca34b64fcd308a55d474612533d2ad0f0c4c48a68385a016dbda800700d3c1e0f7ad074516666c14df62a786c42151a87089d1bb52e1cdb90100000000000000000000000000000000000000000000000000000000000000000000000000000000000000000000000000000000000000000000000000000000000000000000000000000000000000000000000000000000000000000000000000000000000000000000000000000000000000000000000000000000000000000000000000000000000000000000000000000000000000000000000000000000000000000000000000000000000000000000000000000000000000000000000000000000000000000000000000000000000000000000000000000000000000000000000000000000000000000000000000000000000000000000000000000000008302000001887fffffffffffffff84524f3ae78203e800a000000000000000000000000000000000000000000000000000000000000000008800000000000000000af90132f9012f800a84524f3ae794095e7baea6a6c7c4c2dfeb977efac326af552d878437d68e6cb8c97f000000000000000000000000945304eb96065b2a98b57a48a06ae28d285a71b57fffffffffffffffffffffffffffffffffffffffffffffffffffffffffffffffff7f0000000000000000000000000000000000000000000000000000000000000000027ffffffffffffffffffffffffffffffffffffffffffffffffffffffffffffffffe307f00000000000000000000000100000000000000000000000000000000000000007f0000000000000000000000010000000000000000000000000000000000000000521ca0b56fefd0fa07ae74cc2920127981ad3731f3f95d845012aafb2dc30e36f3df95a020cbeedcc0fbbac6c1aa7cfb6590d3771f9778e5216ccf97ee050bd3891839acc0",
                "blockHeader" : {
                    "bloom" : "0x00000000000000000000000000000000000000000000000000000000000000000000000000000000000000000000000000000000000000000000000000000000000000000000000000000000000000000000000000000000000000000000000000000000000000000000000000000000000000000000000000000000000000000000000000000000000000000000000000000000000000000000000000000000000000000000000000000000000000000000000000000000000000000000000000000000000000000000000000000000000000000000000000000000000000000000000000000000000000000000000000000000000000000000000000000000",
                    "coinbase" : "0x945304eb96065b2a98b57a48a06ae28d285a71b5",
                    "difficulty" : "0x020000",
                    "extraData" : "0x00",
                    "gasLimit" : "0x7fffffffffffffff",
                    "gasUsed" : "0x524f3ae7",
                    "hash" : "0xeb4c3e74513ada04013fffd8a5933e40b4c356a70fd3bbaca6614a0651852c37",
                    "mixHash" : "0x0000000000000000000000000000000000000000000000000000000000000000",
                    "nonce" : "0x0000000000000000",
                    "number" : "0x01",
                    "parentHash" : "0x7cd6163d4cb6025c1930dc6cb987c9f90a7de6e874f07af3eb273f6f390a7b7b",
                    "receiptTrie" : "0x16dbda800700d3c1e0f7ad074516666c14df62a786c42151a87089d1bb52e1cd",
                    "stateRoot" : "0x34e2dd18eb6509917bebd8c66189da0737741d40b672fef1eeb39a1fc5c08190",
                    "timestamp" : "0x03e8",
                    "transactionsTrie" : "0x0eae683026d91d8abeb0ca34b64fcd308a55d474612533d2ad0f0c4c48a68385",
                    "uncleHash" : "0x1dcc4de8dec75d7aab85b567b6ccd41ad312451b948a7413f0a142fd40d49347",
                    "baseFee" : "0x0a"
                },
                "transactions" : [
                    {
                        "data" : "0x7f000000000000000000000000945304eb96065b2a98b57a48a06ae28d285a71b57fffffffffffffffffffffffffffffffffffffffffffffffffffffffffffffffff7f0000000000000000000000000000000000000000000000000000000000000000027ffffffffffffffffffffffffffffffffffffffffffffffffffffffffffffffffe307f00000000000000000000000100000000000000000000000000000000000000007f000000000000000000000001000000000000000000000000000000000000000052",
                        "gasLimit" : "0x524f3ae7",
                        "gasPrice" : "0x0a",
                        "nonce" : "0x00",
                        "to" : "0x095e7baea6a6c7c4c2dfeb977efac326af552d87",
                        "value" : "0x37d68e6c",
                        "v" : "0x1c",
                        "r" : "0xb56fefd0fa07ae74cc2920127981ad3731f3f95d845012aafb2dc30e36f3df95",
                        "s" : "0x20cbeedcc0fbbac6c1aa7cfb6590d3771f9778e5216ccf97ee050bd3891839ac"
                    }
                ],
                "uncleHeaders" : [
                ]
            }
        ]
    }
}