{
    "randomStatetest192_d0g0v0_Berlin" : {
        "_info" : {
            "comment" : "",
            "filling-rpc-server" : "evm version 1.10.4-unstable-966ee3ae-20210528",
            "filling-tool-version" : "retesteth-0.1.1-eip1559+commit.658fc3a8.Linux.g++",
            "lllcversion" : "Version: 0.5.14-develop.2021.5.18+commit.14c9d5de.mod.Linux.g++",
            "source" : "src/GeneralStateTestsFiller/stRandom/randomStatetest192Filler.json",
            "sourceHash" : "6e86fdefd3f7a002fbe58e1548e52ebcde55ab926a0c5055e65de72e411914f9"
        },
        "genesisBlockHeader" : {
            "bloom" : "0x00000000000000000000000000000000000000000000000000000000000000000000000000000000000000000000000000000000000000000000000000000000000000000000000000000000000000000000000000000000000000000000000000000000000000000000000000000000000000000000000000000000000000000000000000000000000000000000000000000000000000000000000000000000000000000000000000000000000000000000000000000000000000000000000000000000000000000000000000000000000000000000000000000000000000000000000000000000000000000000000000000000000000000000000000000000",
            "coinbase" : "0x945304eb96065b2a98b57a48a06ae28d285a71b5",
            "difficulty" : "0x020000",
            "extraData" : "0x00",
            "gasLimit" : "0x7fffffffffffffff",
            "gasUsed" : "0x00",
            "hash" : "0xbc8ae77ca85a908c7e8f4a9ecd738ccde6a7a845734b307783a9e099d01c2e93",
            "mixHash" : "0x0000000000000000000000000000000000000000000000000000000000000000",
            "nonce" : "0x0000000000000000",
            "number" : "0x00",
            "parentHash" : "0x0000000000000000000000000000000000000000000000000000000000000000",
            "receiptTrie" : "0x56e81f171bcc55a6ff8345e692c0f86e5b48e01b996cadc001622fb5e363b421",
            "stateRoot" : "0xcae9547737b63605b17bf8dfaff41503189b11257062dcba0ce828c71eaa2a76",
            "timestamp" : "0x00",
            "transactionsTrie" : "0x56e81f171bcc55a6ff8345e692c0f86e5b48e01b996cadc001622fb5e363b421",
            "uncleHash" : "0x1dcc4de8dec75d7aab85b567b6ccd41ad312451b948a7413f0a142fd40d49347"
        },
        "pre" : {
            "0x095e7baea6a6c7c4c2dfeb977efac326af552d87" : {
                "balance" : "0x00",
                "code" : "0x7f000000000000000000000000ffffffffffffffffffffffffffffffffffffffff7ffffffffffffffffffffffffffffffffffffffffffffffffffffffffffffffffe7fffffffffffffffffffffffffffffffffffffffffffffffffffffffffffffffff347f00000000000000000000000100000000000000000000000000000000000000007f000000000000000000000000000000000000000000000000000000000000c3507ffffffffffffffffffffffffffffffffffffffffffffffffffffffffffffffffe0460005155",
                "nonce" : "0x00",
                "storage" : {
                }
            },
            "0x945304eb96065b2a98b57a48a06ae28d285a71b5" : {
                "balance" : "0x2e",
                "code" : "0x6000355415600957005b60203560003555",
                "nonce" : "0x00",
                "storage" : {
                }
            },
            "0xa94f5374fce5edbc8e2a8697c15331677e6ebf0b" : {
                "balance" : "0x0de0b6b3a7640000",
                "code" : "0x",
                "nonce" : "0x00",
                "storage" : {
                }
            }
        },
        "postState" : {
            "0x095e7baea6a6c7c4c2dfeb977efac326af552d87" : {
                "code" : "0x7f000000000000000000000000ffffffffffffffffffffffffffffffffffffffff7ffffffffffffffffffffffffffffffffffffffffffffffffffffffffffffffffe7fffffffffffffffffffffffffffffffffffffffffffffffffffffffffffffffff347f00000000000000000000000100000000000000000000000000000000000000007f000000000000000000000000000000000000000000000000000000000000c3507ffffffffffffffffffffffffffffffffffffffffffffffffffffffffffffffffe0460005155",
                "nonce" : "0x00",
                "balance" : "0x45a5235d",
                "storage" : {
                    "0x00" : "0x014f8b588e368f08461f9f01b866e43aa79bbadc0980b242070b8cfbfc6540"
                }
            },
            "0x945304eb96065b2a98b57a48a06ae28d285a71b5" : {
                "code" : "0x6000355415600957005b60203560003555",
                "nonce" : "0x00",
                "balance" : "0x1bc16d674eceefe2",
                "storage" : {
                }
            },
            "0xa94f5374fce5edbc8e2a8697c15331677e6ebf0b" : {
                "code" : "0x",
                "nonce" : "0x01",
                "balance" : "0x0de0b6b361b7ecef",
                "storage" : {
                }
            }
        },
        "network" : "Berlin",
        "sealEngine" : "NoProof",
        "lastblockhash" : "0x1cf299f51e5061bd78989b7b724a7bcab208d6e208a49b46c78f9809e066e2d3",
        "genesisRLP" : "0xf901fdf901f8a00000000000000000000000000000000000000000000000000000000000000000a01dcc4de8dec75d7aab85b567b6ccd41ad312451b948a7413f0a142fd40d4934794945304eb96065b2a98b57a48a06ae28d285a71b5a0cae9547737b63605b17bf8dfaff41503189b11257062dcba0ce828c71eaa2a76a056e81f171bcc55a6ff8345e692c0f86e5b48e01b996cadc001622fb5e363b421a056e81f171bcc55a6ff8345e692c0f86e5b48e01b996cadc001622fb5e363b421b90100000000000000000000000000000000000000000000000000000000000000000000000000000000000000000000000000000000000000000000000000000000000000000000000000000000000000000000000000000000000000000000000000000000000000000000000000000000000000000000000000000000000000000000000000000000000000000000000000000000000000000000000000000000000000000000000000000000000000000000000000000000000000000000000000000000000000000000000000000000000000000000000000000000000000000000000000000000000000000000000000000000000000000000000000000000008302000080887fffffffffffffff808000a00000000000000000000000000000000000000000000000000000000000000000880000000000000000c0c0",
        "blocks" : [
            {
                "rlp" : "0xf90334f901fca0bc8ae77ca85a908c7e8f4a9ecd738ccde6a7a845734b307783a9e099d01c2e93a01dcc4de8dec75d7aab85b567b6ccd41ad312451b948a7413f0a142fd40d4934794945304eb96065b2a98b57a48a06ae28d285a71b5a0f084eedec403f12c2aaa78abe3fe26d0aaa5e3987f5b74dafd3d5994403de95da00d0b7d01ce9c58387937b873729c82274b1aa695f485b2081a43cc11073c7c08a0dbafadc7f83b76c291d15fb41eaadad345f38b711b0219726547e9ac968326b7b90100000000000000000000000000000000000000000000000000000000000000000000000000000000000000000000000000000000000000000000000000000000000000000000000000000000000000000000000000000000000000000000000000000000000000000000000000000000000000000000000000000000000000000000000000000000000000000000000000000000000000000000000000000000000000000000000000000000000000000000000000000000000000000000000000000000000000000000000000000000000000000000000000000000000000000000000000000000000000000000000000000000000000000000000000000000008302000001887fffffffffffffff82b1928203e800a00000000000000000000000000000000000000000000000000000000000000000880000000000000000f90131f9012e800a8479ba31d094095e7baea6a6c7c4c2dfeb977efac326af552d878445a5235db8c87f000000000000000000000000ffffffffffffffffffffffffffffffffffffffff7ffffffffffffffffffffffffffffffffffffffffffffffffffffffffffffffffe7fffffffffffffffffffffffffffffffffffffffffffffffffffffffffffffffff347f00000000000000000000000100000000000000000000000000000000000000007f000000000000000000000000000000000000000000000000000000000000c3507ffffffffffffffffffffffffffffffffffffffffffffffffffffffffffffffffe041ca0caa066db41dd27600426000bcb70fc3c35971229c88253f1b7d44cc89b7369c6a052ecf69dd0173b975d32287dd8d3d9ac188970eb4204426706a83c71fc057e5fc0",
                "blockHeader" : {
                    "bloom" : "0x00000000000000000000000000000000000000000000000000000000000000000000000000000000000000000000000000000000000000000000000000000000000000000000000000000000000000000000000000000000000000000000000000000000000000000000000000000000000000000000000000000000000000000000000000000000000000000000000000000000000000000000000000000000000000000000000000000000000000000000000000000000000000000000000000000000000000000000000000000000000000000000000000000000000000000000000000000000000000000000000000000000000000000000000000000000",
                    "coinbase" : "0x945304eb96065b2a98b57a48a06ae28d285a71b5",
                    "difficulty" : "0x020000",
                    "extraData" : "0x00",
                    "gasLimit" : "0x7fffffffffffffff",
                    "gasUsed" : "0xb192",
                    "hash" : "0x1cf299f51e5061bd78989b7b724a7bcab208d6e208a49b46c78f9809e066e2d3",
                    "mixHash" : "0x0000000000000000000000000000000000000000000000000000000000000000",
                    "nonce" : "0x0000000000000000",
                    "number" : "0x01",
                    "parentHash" : "0xbc8ae77ca85a908c7e8f4a9ecd738ccde6a7a845734b307783a9e099d01c2e93",
                    "receiptTrie" : "0xdbafadc7f83b76c291d15fb41eaadad345f38b711b0219726547e9ac968326b7",
                    "stateRoot" : "0xf084eedec403f12c2aaa78abe3fe26d0aaa5e3987f5b74dafd3d5994403de95d",
                    "timestamp" : "0x03e8",
                    "transactionsTrie" : "0x0d0b7d01ce9c58387937b873729c82274b1aa695f485b2081a43cc11073c7c08",
                    "uncleHash" : "0x1dcc4de8dec75d7aab85b567b6ccd41ad312451b948a7413f0a142fd40d49347"
                },
                "transactions" : [
                    {
                        "data" : "0x7f000000000000000000000000ffffffffffffffffffffffffffffffffffffffff7ffffffffffffffffffffffffffffffffffffffffffffffffffffffffffffffffe7fffffffffffffffffffffffffffffffffffffffffffffffffffffffffffffffff347f00000000000000000000000100000000000000000000000000000000000000007f000000000000000000000000000000000000000000000000000000000000c3507ffffffffffffffffffffffffffffffffffffffffffffffffffffffffffffffffe04",
                        "gasLimit" : "0x79ba31d0",
                        "gasPrice" : "0x0a",
                        "nonce" : "0x00",
                        "to" : "0x095e7baea6a6c7c4c2dfeb977efac326af552d87",
                        "value" : "0x45a5235d",
                        "v" : "0x1c",
                        "r" : "0xcaa066db41dd27600426000bcb70fc3c35971229c88253f1b7d44cc89b7369c6",
                        "s" : "0x52ecf69dd0173b975d32287dd8d3d9ac188970eb4204426706a83c71fc057e5f"
                    }
                ],
                "uncleHeaders" : [
                ]
            }
        ]
    },
    "randomStatetest192_d0g0v0_Istanbul" : {
        "_info" : {
            "comment" : "",
            "filling-rpc-server" : "evm version 1.10.4-unstable-966ee3ae-20210528",
            "filling-tool-version" : "retesteth-0.1.1-eip1559+commit.658fc3a8.Linux.g++",
            "lllcversion" : "Version: 0.5.14-develop.2021.5.18+commit.14c9d5de.mod.Linux.g++",
            "source" : "src/GeneralStateTestsFiller/stRandom/randomStatetest192Filler.json",
            "sourceHash" : "6e86fdefd3f7a002fbe58e1548e52ebcde55ab926a0c5055e65de72e411914f9"
        },
        "genesisBlockHeader" : {
            "bloom" : "0x00000000000000000000000000000000000000000000000000000000000000000000000000000000000000000000000000000000000000000000000000000000000000000000000000000000000000000000000000000000000000000000000000000000000000000000000000000000000000000000000000000000000000000000000000000000000000000000000000000000000000000000000000000000000000000000000000000000000000000000000000000000000000000000000000000000000000000000000000000000000000000000000000000000000000000000000000000000000000000000000000000000000000000000000000000000",
            "coinbase" : "0x945304eb96065b2a98b57a48a06ae28d285a71b5",
            "difficulty" : "0x020000",
            "extraData" : "0x00",
            "gasLimit" : "0x7fffffffffffffff",
            "gasUsed" : "0x00",
            "hash" : "0xbc8ae77ca85a908c7e8f4a9ecd738ccde6a7a845734b307783a9e099d01c2e93",
            "mixHash" : "0x0000000000000000000000000000000000000000000000000000000000000000",
            "nonce" : "0x0000000000000000",
            "number" : "0x00",
            "parentHash" : "0x0000000000000000000000000000000000000000000000000000000000000000",
            "receiptTrie" : "0x56e81f171bcc55a6ff8345e692c0f86e5b48e01b996cadc001622fb5e363b421",
            "stateRoot" : "0xcae9547737b63605b17bf8dfaff41503189b11257062dcba0ce828c71eaa2a76",
            "timestamp" : "0x00",
            "transactionsTrie" : "0x56e81f171bcc55a6ff8345e692c0f86e5b48e01b996cadc001622fb5e363b421",
            "uncleHash" : "0x1dcc4de8dec75d7aab85b567b6ccd41ad312451b948a7413f0a142fd40d49347"
        },
        "pre" : {
            "0x095e7baea6a6c7c4c2dfeb977efac326af552d87" : {
                "balance" : "0x00",
                "code" : "0x7f000000000000000000000000ffffffffffffffffffffffffffffffffffffffff7ffffffffffffffffffffffffffffffffffffffffffffffffffffffffffffffffe7fffffffffffffffffffffffffffffffffffffffffffffffffffffffffffffffff347f00000000000000000000000100000000000000000000000000000000000000007f000000000000000000000000000000000000000000000000000000000000c3507ffffffffffffffffffffffffffffffffffffffffffffffffffffffffffffffffe0460005155",
                "nonce" : "0x00",
                "storage" : {
                }
            },
            "0x945304eb96065b2a98b57a48a06ae28d285a71b5" : {
                "balance" : "0x2e",
                "code" : "0x6000355415600957005b60203560003555",
                "nonce" : "0x00",
                "storage" : {
                }
            },
            "0xa94f5374fce5edbc8e2a8697c15331677e6ebf0b" : {
                "balance" : "0x0de0b6b3a7640000",
                "code" : "0x",
                "nonce" : "0x00",
                "storage" : {
                }
            }
        },
        "postState" : {
            "0x095e7baea6a6c7c4c2dfeb977efac326af552d87" : {
                "code" : "0x7f000000000000000000000000ffffffffffffffffffffffffffffffffffffffff7ffffffffffffffffffffffffffffffffffffffffffffffffffffffffffffffffe7fffffffffffffffffffffffffffffffffffffffffffffffffffffffffffffffff347f00000000000000000000000100000000000000000000000000000000000000007f000000000000000000000000000000000000000000000000000000000000c3507ffffffffffffffffffffffffffffffffffffffffffffffffffffffffffffffffe0460005155",
                "nonce" : "0x00",
                "balance" : "0x45a5235d",
                "storage" : {
                    "0x00" : "0x014f8b588e368f08461f9f01b866e43aa79bbadc0980b242070b8cfbfc6540"
                }
            },
            "0x945304eb96065b2a98b57a48a06ae28d285a71b5" : {
                "code" : "0x6000355415600957005b60203560003555",
                "nonce" : "0x00",
                "balance" : "0x1bc16d674ece9dda",
                "storage" : {
                }
            },
            "0xa94f5374fce5edbc8e2a8697c15331677e6ebf0b" : {
                "code" : "0x",
                "nonce" : "0x01",
                "balance" : "0x0de0b6b361b83ef7",
                "storage" : {
                }
            }
        },
        "network" : "Istanbul",
        "sealEngine" : "NoProof",
        "lastblockhash" : "0xcc3ed4c4fb26ae13e1784c0d5163cc4f88b811a77db1468dec8d5bbf2efc83d0",
        "genesisRLP" : "0xf901fdf901f8a00000000000000000000000000000000000000000000000000000000000000000a01dcc4de8dec75d7aab85b567b6ccd41ad312451b948a7413f0a142fd40d4934794945304eb96065b2a98b57a48a06ae28d285a71b5a0cae9547737b63605b17bf8dfaff41503189b11257062dcba0ce828c71eaa2a76a056e81f171bcc55a6ff8345e692c0f86e5b48e01b996cadc001622fb5e363b421a056e81f171bcc55a6ff8345e692c0f86e5b48e01b996cadc001622fb5e363b421b90100000000000000000000000000000000000000000000000000000000000000000000000000000000000000000000000000000000000000000000000000000000000000000000000000000000000000000000000000000000000000000000000000000000000000000000000000000000000000000000000000000000000000000000000000000000000000000000000000000000000000000000000000000000000000000000000000000000000000000000000000000000000000000000000000000000000000000000000000000000000000000000000000000000000000000000000000000000000000000000000000000000000000000000000000000000008302000080887fffffffffffffff808000a00000000000000000000000000000000000000000000000000000000000000000880000000000000000c0c0",
        "blocks" : [
            {
                "rlp" : "0xf90334f901fca0bc8ae77ca85a908c7e8f4a9ecd738ccde6a7a845734b307783a9e099d01c2e93a01dcc4de8dec75d7aab85b567b6ccd41ad312451b948a7413f0a142fd40d4934794945304eb96065b2a98b57a48a06ae28d285a71b5a0f708825b1273811e7e654e7434d20ddd263ed4c685a5986411e20cf11c458e6ca00d0b7d01ce9c58387937b873729c82274b1aa695f485b2081a43cc11073c7c08a0714c2689ecb4dad7b740d2189867e76649de6717cad4df5c487b889b8d4b428ab90100000000000000000000000000000000000000000000000000000000000000000000000000000000000000000000000000000000000000000000000000000000000000000000000000000000000000000000000000000000000000000000000000000000000000000000000000000000000000000000000000000000000000000000000000000000000000000000000000000000000000000000000000000000000000000000000000000000000000000000000000000000000000000000000000000000000000000000000000000000000000000000000000000000000000000000000000000000000000000000000000000000000000000000000000000000008302000001887fffffffffffffff82a95e8203e800a00000000000000000000000000000000000000000000000000000000000000000880000000000000000f90131f9012e800a8479ba31d094095e7baea6a6c7c4c2dfeb977efac326af552d878445a5235db8c87f000000000000000000000000ffffffffffffffffffffffffffffffffffffffff7ffffffffffffffffffffffffffffffffffffffffffffffffffffffffffffffffe7fffffffffffffffffffffffffffffffffffffffffffffffffffffffffffffffff347f00000000000000000000000100000000000000000000000000000000000000007f000000000000000000000000000000000000000000000000000000000000c3507ffffffffffffffffffffffffffffffffffffffffffffffffffffffffffffffffe041ca0caa066db41dd27600426000bcb70fc3c35971229c88253f1b7d44cc89b7369c6a052ecf69dd0173b975d32287dd8d3d9ac188970eb4204426706a83c71fc057e5fc0",
                "blockHeader" : {
                    "bloom" : "0x00000000000000000000000000000000000000000000000000000000000000000000000000000000000000000000000000000000000000000000000000000000000000000000000000000000000000000000000000000000000000000000000000000000000000000000000000000000000000000000000000000000000000000000000000000000000000000000000000000000000000000000000000000000000000000000000000000000000000000000000000000000000000000000000000000000000000000000000000000000000000000000000000000000000000000000000000000000000000000000000000000000000000000000000000000000",
                    "coinbase" : "0x945304eb96065b2a98b57a48a06ae28d285a71b5",
                    "difficulty" : "0x020000",
                    "extraData" : "0x00",
                    "gasLimit" : "0x7fffffffffffffff",
                    "gasUsed" : "0xa95e",
                    "hash" : "0xcc3ed4c4fb26ae13e1784c0d5163cc4f88b811a77db1468dec8d5bbf2efc83d0",
                    "mixHash" : "0x0000000000000000000000000000000000000000000000000000000000000000",
                    "nonce" : "0x0000000000000000",
                    "number" : "0x01",
                    "parentHash" : "0xbc8ae77ca85a908c7e8f4a9ecd738ccde6a7a845734b307783a9e099d01c2e93",
                    "receiptTrie" : "0x714c2689ecb4dad7b740d2189867e76649de6717cad4df5c487b889b8d4b428a",
                    "stateRoot" : "0xf708825b1273811e7e654e7434d20ddd263ed4c685a5986411e20cf11c458e6c",
                    "timestamp" : "0x03e8",
                    "transactionsTrie" : "0x0d0b7d01ce9c58387937b873729c82274b1aa695f485b2081a43cc11073c7c08",
                    "uncleHash" : "0x1dcc4de8dec75d7aab85b567b6ccd41ad312451b948a7413f0a142fd40d49347"
                },
                "transactions" : [
                    {
                        "data" : "0x7f000000000000000000000000ffffffffffffffffffffffffffffffffffffffff7ffffffffffffffffffffffffffffffffffffffffffffffffffffffffffffffffe7fffffffffffffffffffffffffffffffffffffffffffffffffffffffffffffffff347f00000000000000000000000100000000000000000000000000000000000000007f000000000000000000000000000000000000000000000000000000000000c3507ffffffffffffffffffffffffffffffffffffffffffffffffffffffffffffffffe04",
                        "gasLimit" : "0x79ba31d0",
                        "gasPrice" : "0x0a",
                        "nonce" : "0x00",
                        "to" : "0x095e7baea6a6c7c4c2dfeb977efac326af552d87",
                        "value" : "0x45a5235d",
                        "v" : "0x1c",
                        "r" : "0xcaa066db41dd27600426000bcb70fc3c35971229c88253f1b7d44cc89b7369c6",
                        "s" : "0x52ecf69dd0173b975d32287dd8d3d9ac188970eb4204426706a83c71fc057e5f"
                    }
                ],
                "uncleHeaders" : [
                ]
            }
        ]
    },
    "randomStatetest192_d0g0v0_London" : {
        "_info" : {
            "comment" : "",
            "filling-rpc-server" : "evm version 1.10.4-unstable-966ee3ae-20210528",
            "filling-tool-version" : "retesteth-0.1.1-eip1559+commit.658fc3a8.Linux.g++",
            "lllcversion" : "Version: 0.5.14-develop.2021.5.18+commit.14c9d5de.mod.Linux.g++",
            "source" : "src/GeneralStateTestsFiller/stRandom/randomStatetest192Filler.json",
            "sourceHash" : "6e86fdefd3f7a002fbe58e1548e52ebcde55ab926a0c5055e65de72e411914f9"
        },
        "genesisBlockHeader" : {
            "bloom" : "0x00000000000000000000000000000000000000000000000000000000000000000000000000000000000000000000000000000000000000000000000000000000000000000000000000000000000000000000000000000000000000000000000000000000000000000000000000000000000000000000000000000000000000000000000000000000000000000000000000000000000000000000000000000000000000000000000000000000000000000000000000000000000000000000000000000000000000000000000000000000000000000000000000000000000000000000000000000000000000000000000000000000000000000000000000000000",
            "coinbase" : "0x945304eb96065b2a98b57a48a06ae28d285a71b5",
            "difficulty" : "0x020000",
            "extraData" : "0x00",
            "gasLimit" : "0x7fffffffffffffff",
            "gasUsed" : "0x00",
            "hash" : "0xd85d87788c5825f1874e30c2dbfa551ef9ff31020098fd8d7f8fc2e1b2f2b6d2",
            "mixHash" : "0x0000000000000000000000000000000000000000000000000000000000000000",
            "nonce" : "0x0000000000000000",
            "number" : "0x00",
            "parentHash" : "0x0000000000000000000000000000000000000000000000000000000000000000",
            "receiptTrie" : "0x56e81f171bcc55a6ff8345e692c0f86e5b48e01b996cadc001622fb5e363b421",
            "stateRoot" : "0xcae9547737b63605b17bf8dfaff41503189b11257062dcba0ce828c71eaa2a76",
            "timestamp" : "0x00",
            "transactionsTrie" : "0x56e81f171bcc55a6ff8345e692c0f86e5b48e01b996cadc001622fb5e363b421",
            "uncleHash" : "0x1dcc4de8dec75d7aab85b567b6ccd41ad312451b948a7413f0a142fd40d49347",
            "baseFee" : "0x0b"
        },
        "pre" : {
            "0x095e7baea6a6c7c4c2dfeb977efac326af552d87" : {
                "balance" : "0x00",
                "code" : "0x7f000000000000000000000000ffffffffffffffffffffffffffffffffffffffff7ffffffffffffffffffffffffffffffffffffffffffffffffffffffffffffffffe7fffffffffffffffffffffffffffffffffffffffffffffffffffffffffffffffff347f00000000000000000000000100000000000000000000000000000000000000007f000000000000000000000000000000000000000000000000000000000000c3507ffffffffffffffffffffffffffffffffffffffffffffffffffffffffffffffffe0460005155",
                "nonce" : "0x00",
                "storage" : {
                }
            },
            "0x945304eb96065b2a98b57a48a06ae28d285a71b5" : {
                "balance" : "0x2e",
                "code" : "0x6000355415600957005b60203560003555",
                "nonce" : "0x00",
                "storage" : {
                }
            },
            "0xa94f5374fce5edbc8e2a8697c15331677e6ebf0b" : {
                "balance" : "0x0de0b6b3a7640000",
                "code" : "0x",
                "nonce" : "0x00",
                "storage" : {
                }
            }
        },
        "postState" : {
            "0x095e7baea6a6c7c4c2dfeb977efac326af552d87" : {
                "code" : "0x7f000000000000000000000000ffffffffffffffffffffffffffffffffffffffff7ffffffffffffffffffffffffffffffffffffffffffffffffffffffffffffffffe7fffffffffffffffffffffffffffffffffffffffffffffffffffffffffffffffff347f00000000000000000000000100000000000000000000000000000000000000007f000000000000000000000000000000000000000000000000000000000000c3507ffffffffffffffffffffffffffffffffffffffffffffffffffffffffffffffffe0460005155",
                "nonce" : "0x00",
                "balance" : "0x45a5235d",
                "storage" : {
                    "0x00" : "0x014f8b588e368f08461f9f01b866e43aa79bbadc0980b242070b8cfbfc6540"
                }
            },
            "0x945304eb96065b2a98b57a48a06ae28d285a71b5" : {
                "code" : "0x6000355415600957005b60203560003555",
                "nonce" : "0x00",
                "balance" : "0x1bc16d674ec8002e",
                "storage" : {
                }
            },
            "0xa94f5374fce5edbc8e2a8697c15331677e6ebf0b" : {
                "code" : "0x",
                "nonce" : "0x01",
                "balance" : "0x0de0b6b361b7ecef",
                "storage" : {
                }
            }
        },
        "network" : "London",
        "sealEngine" : "NoProof",
        "lastblockhash" : "0x782614d25d8a1277a2374cb3a6b998717c4626cebdb6d882c47d86348cc93038",
        "genesisRLP" : "0xf901fef901f9a00000000000000000000000000000000000000000000000000000000000000000a01dcc4de8dec75d7aab85b567b6ccd41ad312451b948a7413f0a142fd40d4934794945304eb96065b2a98b57a48a06ae28d285a71b5a0cae9547737b63605b17bf8dfaff41503189b11257062dcba0ce828c71eaa2a76a056e81f171bcc55a6ff8345e692c0f86e5b48e01b996cadc001622fb5e363b421a056e81f171bcc55a6ff8345e692c0f86e5b48e01b996cadc001622fb5e363b421b90100000000000000000000000000000000000000000000000000000000000000000000000000000000000000000000000000000000000000000000000000000000000000000000000000000000000000000000000000000000000000000000000000000000000000000000000000000000000000000000000000000000000000000000000000000000000000000000000000000000000000000000000000000000000000000000000000000000000000000000000000000000000000000000000000000000000000000000000000000000000000000000000000000000000000000000000000000000000000000000000000000000000000000000000000000000008302000080887fffffffffffffff808000a000000000000000000000000000000000000000000000000000000000000000008800000000000000000bc0c0",
        "blocks" : [
            {
                "rlp" : "0xf90335f901fda0d85d87788c5825f1874e30c2dbfa551ef9ff31020098fd8d7f8fc2e1b2f2b6d2a01dcc4de8dec75d7aab85b567b6ccd41ad312451b948a7413f0a142fd40d4934794945304eb96065b2a98b57a48a06ae28d285a71b5a09e5e1e773132c068bcc5d26d25202b3ca3a93553be0f213cbe95bb76f515dd06a00d0b7d01ce9c58387937b873729c82274b1aa695f485b2081a43cc11073c7c08a0dbafadc7f83b76c291d15fb41eaadad345f38b711b0219726547e9ac968326b7b90100000000000000000000000000000000000000000000000000000000000000000000000000000000000000000000000000000000000000000000000000000000000000000000000000000000000000000000000000000000000000000000000000000000000000000000000000000000000000000000000000000000000000000000000000000000000000000000000000000000000000000000000000000000000000000000000000000000000000000000000000000000000000000000000000000000000000000000000000000000000000000000000000000000000000000000000000000000000000000000000000000000000000000000000000000000008302000001887fffffffffffffff82b1928203e800a000000000000000000000000000000000000000000000000000000000000000008800000000000000000af90131f9012e800a8479ba31d094095e7baea6a6c7c4c2dfeb977efac326af552d878445a5235db8c87f000000000000000000000000ffffffffffffffffffffffffffffffffffffffff7ffffffffffffffffffffffffffffffffffffffffffffffffffffffffffffffffe7fffffffffffffffffffffffffffffffffffffffffffffffffffffffffffffffff347f00000000000000000000000100000000000000000000000000000000000000007f000000000000000000000000000000000000000000000000000000000000c3507ffffffffffffffffffffffffffffffffffffffffffffffffffffffffffffffffe041ca0caa066db41dd27600426000bcb70fc3c35971229c88253f1b7d44cc89b7369c6a052ecf69dd0173b975d32287dd8d3d9ac188970eb4204426706a83c71fc057e5fc0",
                "blockHeader" : {
                    "bloom" : "0x00000000000000000000000000000000000000000000000000000000000000000000000000000000000000000000000000000000000000000000000000000000000000000000000000000000000000000000000000000000000000000000000000000000000000000000000000000000000000000000000000000000000000000000000000000000000000000000000000000000000000000000000000000000000000000000000000000000000000000000000000000000000000000000000000000000000000000000000000000000000000000000000000000000000000000000000000000000000000000000000000000000000000000000000000000000",
                    "coinbase" : "0x945304eb96065b2a98b57a48a06ae28d285a71b5",
                    "difficulty" : "0x020000",
                    "extraData" : "0x00",
                    "gasLimit" : "0x7fffffffffffffff",
                    "gasUsed" : "0xb192",
                    "hash" : "0x782614d25d8a1277a2374cb3a6b998717c4626cebdb6d882c47d86348cc93038",
                    "mixHash" : "0x0000000000000000000000000000000000000000000000000000000000000000",
                    "nonce" : "0x0000000000000000",
                    "number" : "0x01",
                    "parentHash" : "0xd85d87788c5825f1874e30c2dbfa551ef9ff31020098fd8d7f8fc2e1b2f2b6d2",
                    "receiptTrie" : "0xdbafadc7f83b76c291d15fb41eaadad345f38b711b0219726547e9ac968326b7",
                    "stateRoot" : "0x9e5e1e773132c068bcc5d26d25202b3ca3a93553be0f213cbe95bb76f515dd06",
                    "timestamp" : "0x03e8",
                    "transactionsTrie" : "0x0d0b7d01ce9c58387937b873729c82274b1aa695f485b2081a43cc11073c7c08",
                    "uncleHash" : "0x1dcc4de8dec75d7aab85b567b6ccd41ad312451b948a7413f0a142fd40d49347",
                    "baseFee" : "0x0a"
                },
                "transactions" : [
                    {
                        "data" : "0x7f000000000000000000000000ffffffffffffffffffffffffffffffffffffffff7ffffffffffffffffffffffffffffffffffffffffffffffffffffffffffffffffe7fffffffffffffffffffffffffffffffffffffffffffffffffffffffffffffffff347f00000000000000000000000100000000000000000000000000000000000000007f000000000000000000000000000000000000000000000000000000000000c3507ffffffffffffffffffffffffffffffffffffffffffffffffffffffffffffffffe04",
                        "gasLimit" : "0x79ba31d0",
                        "gasPrice" : "0x0a",
                        "nonce" : "0x00",
                        "to" : "0x095e7baea6a6c7c4c2dfeb977efac326af552d87",
                        "value" : "0x45a5235d",
                        "v" : "0x1c",
                        "r" : "0xcaa066db41dd27600426000bcb70fc3c35971229c88253f1b7d44cc89b7369c6",
                        "s" : "0x52ecf69dd0173b975d32287dd8d3d9ac188970eb4204426706a83c71fc057e5f"
                    }
                ],
                "uncleHeaders" : [
                ]
            }
        ]
    }
}