{
    "randomStatetest347_d0g0v0_Berlin" : {
        "_info" : {
            "comment" : "",
            "filling-rpc-server" : "evm version 1.10.4-unstable-966ee3ae-20210528",
            "filling-tool-version" : "retesteth-0.1.1-eip1559+commit.658fc3a8.Linux.g++",
            "lllcversion" : "Version: 0.5.14-develop.2021.5.18+commit.14c9d5de.mod.Linux.g++",
            "source" : "src/GeneralStateTestsFiller/stRandom/randomStatetest347Filler.json",
            "sourceHash" : "6792774b1ad2c888104c5b52adf45a12b280bfde975607c00631bdda19e791f7"
        },
        "genesisBlockHeader" : {
            "bloom" : "0x00000000000000000000000000000000000000000000000000000000000000000000000000000000000000000000000000000000000000000000000000000000000000000000000000000000000000000000000000000000000000000000000000000000000000000000000000000000000000000000000000000000000000000000000000000000000000000000000000000000000000000000000000000000000000000000000000000000000000000000000000000000000000000000000000000000000000000000000000000000000000000000000000000000000000000000000000000000000000000000000000000000000000000000000000000000",
            "coinbase" : "0xa7f7c8ef9bbbcfb0f7e81c1fd46bb732fba60592",
            "difficulty" : "0x020000",
            "extraData" : "0x00",
            "gasLimit" : "0x0b3be1fc",
            "gasUsed" : "0x00",
            "hash" : "0x2d7c33b1044b359f33d10735a0f7ab906f7ed63be256490765e35825702c8b65",
            "mixHash" : "0x0000000000000000000000000000000000000000000000000000000000000000",
            "nonce" : "0x0000000000000000",
            "number" : "0x00",
            "parentHash" : "0x0000000000000000000000000000000000000000000000000000000000000000",
            "receiptTrie" : "0x56e81f171bcc55a6ff8345e692c0f86e5b48e01b996cadc001622fb5e363b421",
            "stateRoot" : "0x70c95c8f30ec885c1d9acd677085e2f16430350749af97fa59de21385a83b575",
            "timestamp" : "0x00",
            "transactionsTrie" : "0x56e81f171bcc55a6ff8345e692c0f86e5b48e01b996cadc001622fb5e363b421",
            "uncleHash" : "0x1dcc4de8dec75d7aab85b567b6ccd41ad312451b948a7413f0a142fd40d49347"
        },
        "pre" : {
            "0x095e7baea6a6c7c4c2dfeb977efac326af552d87" : {
                "balance" : "0x33498455",
                "code" : "0x64d552603c577e9a3805d8c55157a82b7660ef2a049cfbf79c15fa8e3261f121d213590fa3917d7d442a5e8734af2aaa4c859b452eed7860c2f7e051580427b6c3cc6d7fee617a0d64ef63e192256de5d2ea2689decfd971c7478effb06aa9e792747ce0492abde8c2f270e93d5ed0b213fed7ae59294537d4864c0e68bbe30ec5d1e6b854027862cfcbea15e8367dfaa080ee0da2b0d2ca892f5a764354370466ccddd03115ec8a7ad2e6c62c29425a45ec842fb74c369fb15a42e4b4e48b3eb70be2a0847469987980e6eaa539365a491d2366334f78f03acb177809e7525add39a234d3d2ef1cf8544a52389411ef846d3cd7f36d0d1db7f414860020171f07598cfb620e15a9681c843d60aee9fb8a4e7e37713afbf6ef9d1667513975c76f26ac35ce209b1e0a3bb7c19821368931537b4095ea42b32baf1ba596b9af5cce961ae705f8c9c5465e349633529871f64351169e7fe48ccbb866952fabbfcf40df723c564e109dbd4c9c15ee9ad625e96a5765f6f56ee0601677961da7ebad5f583f6eb6da7c8348425fe784f532f288963ccdbf9de3ac3ebc38b75a806b40e51b895c662d0bcab255a04b723f1e500517d17eb720e02f445cb046bd0fe7d2759438c79aa2dfcaef1cf57e4eb9c832f7ef449a9c32f673728f4b0dccdfa8fb1d447e2f681076ac51a98f76600a66b4692ca7e1e9c89f64cdf879cb0c625514977ebca28f2ec8bb3a092bd0c30849558fe16a4b7070cb05aec329c0286c26fff57795ce4ac7601160ea2d6656c8f2a554b43e263cc3a60e9fd0a26c0a5f7202f02888a731e84ab326610c77771f85025eb8c552943d2da5de48786015f5b8b5921d26c1e277d5a4cda5f1f77ec5f3a83e6ed6821ff025370e2fad05a0f364f58f3705c8761904d63e0f2e5bdbe2b0b1ddf82bb441c547634e8c1864737333e845ffa373c102303f727bfa14f4c445711f6f9695c36f3627df02a1fe2d7eca55faed6984000ab2a99545148bbe7369a47367bc24256acd6a3a22d5fb32434b1998297ae6b2edf08b72dc4598aa600e16707699a84e55ef611ea0e6da482f6c6e9d05d54bbb4ad06cd62622e469fbcd3e637a8f0d2ac9149b7076cce991cb5d4b4de1229e3decbcf46a3c7e46aa1fdc218d936e56f55b5a38bbd798361040e1badb1ab06adc38a723badfa07a95f78553de4df879855274a1904a31276d7938818021e69d8f5b9279478808a236deefd761df6bc151fded80bbe4ba725e7db7b9fc507f0b8121a009384c7bc4443747bd1ac9dc7682b32bec0937c7fb27ba3926acd0d67b41ba6c951788f1bb1b1168229d15cafdc63209c95df646566024013d766a01d6b8051c357243c9f464f423a2ae8efa4f9efd95777099eac9b0825d18018a5afcb6cecd9ab9a9655ae262db08a271d8adedbc3e7eb6acfd2d576ec297c09c4bd47a80dacd2b123e4e4e6232ef6d70acb10f2f44a62bbcef65a72576506ea119b051880b515f4414920badcd6f726c04e821516f6123c9c52f29e19bfe0fb10fab76536535cc0e01115c83369d4083db2d669654c2fe8c00e37bd78f663a2ce2425d2ce358e213d6c601208bb644fa656678de7633147fbd152c2ae682dec269245f07ba3c79f4e6e1978d40f42a494d44eba128b9d0228d637900cbab73455423156417fae331d26494d1ed4d06ecf206736f04292d5470d5091c48a80ba737372c35729c829af30db3625785ba0b3cfc4240d002276760f2770ead609b52db934a53063ec1c05488188fb37ce61059909b6c975c0e9401ef3b71b6d0ddae39867f3f0878bd172851a98a233fcafae289fc634c36c8b3064926d92deda3d8c5074d6a56daa511e7e693aab3d4347cebdd5b63238acdeedc3d8eb8f69ea18cb429ee8f09c26845507ba28eba916c74fd62cd9e587a8f013122d93579b6b7da091527251a4b70051be4f0f96f61e5dc4ab713c473174c7e2ebb463615b03c4787b74e8c204975399439fa553838f186ae028a47f3ccd46c5fcc46c11a36219f3ba1d34def7bee989fa61e60a2abd3652df9f8e5a1b53d9608e3bb04f5e852333d9c7d761836ef5761178bd07fde9a0ded16e1659a6c80281c259ce42e3fdbe23664ce783b58d595",
                "nonce" : "0xe9",
                "storage" : {
                }
            },
            "0x945304eb96065b2a98b57a48a06ae28d285a71b5" : {
                "balance" : "0x4ea91708",
                "code" : "0x36",
                "nonce" : "0x59",
                "storage" : {
                }
            },
            "0xa94f5374fce5edbc8e2a8697c15331677e6ebf0b" : {
                "balance" : "0x1024d289465fa51769",
                "code" : "0x",
                "nonce" : "0x00",
                "storage" : {
                }
            }
        },
        "postState" : {
            "0x095e7baea6a6c7c4c2dfeb977efac326af552d87" : {
                "code" : "0x64d552603c577e9a3805d8c55157a82b7660ef2a049cfbf79c15fa8e3261f121d213590fa3917d7d442a5e8734af2aaa4c859b452eed7860c2f7e051580427b6c3cc6d7fee617a0d64ef63e192256de5d2ea2689decfd971c7478effb06aa9e792747ce0492abde8c2f270e93d5ed0b213fed7ae59294537d4864c0e68bbe30ec5d1e6b854027862cfcbea15e8367dfaa080ee0da2b0d2ca892f5a764354370466ccddd03115ec8a7ad2e6c62c29425a45ec842fb74c369fb15a42e4b4e48b3eb70be2a0847469987980e6eaa539365a491d2366334f78f03acb177809e7525add39a234d3d2ef1cf8544a52389411ef846d3cd7f36d0d1db7f414860020171f07598cfb620e15a9681c843d60aee9fb8a4e7e37713afbf6ef9d1667513975c76f26ac35ce209b1e0a3bb7c19821368931537b4095ea42b32baf1ba596b9af5cce961ae705f8c9c5465e349633529871f64351169e7fe48ccbb866952fabbfcf40df723c564e109dbd4c9c15ee9ad625e96a5765f6f56ee0601677961da7ebad5f583f6eb6da7c8348425fe784f532f288963ccdbf9de3ac3ebc38b75a806b40e51b895c662d0bcab255a04b723f1e500517d17eb720e02f445cb046bd0fe7d2759438c79aa2dfcaef1cf57e4eb9c832f7ef449a9c32f673728f4b0dccdfa8fb1d447e2f681076ac51a98f76600a66b4692ca7e1e9c89f64cdf879cb0c625514977ebca28f2ec8bb3a092bd0c30849558fe16a4b7070cb05aec329c0286c26fff57795ce4ac7601160ea2d6656c8f2a554b43e263cc3a60e9fd0a26c0a5f7202f02888a731e84ab326610c77771f85025eb8c552943d2da5de48786015f5b8b5921d26c1e277d5a4cda5f1f77ec5f3a83e6ed6821ff025370e2fad05a0f364f58f3705c8761904d63e0f2e5bdbe2b0b1ddf82bb441c547634e8c1864737333e845ffa373c102303f727bfa14f4c445711f6f9695c36f3627df02a1fe2d7eca55faed6984000ab2a99545148bbe7369a47367bc24256acd6a3a22d5fb32434b1998297ae6b2edf08b72dc4598aa600e16707699a84e55ef611ea0e6da482f6c6e9d05d54bbb4ad06cd62622e469fbcd3e637a8f0d2ac9149b7076cce991cb5d4b4de1229e3decbcf46a3c7e46aa1fdc218d936e56f55b5a38bbd798361040e1badb1ab06adc38a723badfa07a95f78553de4df879855274a1904a31276d7938818021e69d8f5b9279478808a236deefd761df6bc151fded80bbe4ba725e7db7b9fc507f0b8121a009384c7bc4443747bd1ac9dc7682b32bec0937c7fb27ba3926acd0d67b41ba6c951788f1bb1b1168229d15cafdc63209c95df646566024013d766a01d6b8051c357243c9f464f423a2ae8efa4f9efd95777099eac9b0825d18018a5afcb6cecd9ab9a9655ae262db08a271d8adedbc3e7eb6acfd2d576ec297c09c4bd47a80dacd2b123e4e4e6232ef6d70acb10f2f44a62bbcef65a72576506ea119b051880b515f4414920badcd6f726c04e821516f6123c9c52f29e19bfe0fb10fab76536535cc0e01115c83369d4083db2d669654c2fe8c00e37bd78f663a2ce2425d2ce358e213d6c601208bb644fa656678de7633147fbd152c2ae682dec269245f07ba3c79f4e6e1978d40f42a494d44eba128b9d0228d637900cbab73455423156417fae331d26494d1ed4d06ecf206736f04292d5470d5091c48a80ba737372c35729c829af30db3625785ba0b3cfc4240d002276760f2770ead609b52db934a53063ec1c05488188fb37ce61059909b6c975c0e9401ef3b71b6d0ddae39867f3f0878bd172851a98a233fcafae289fc634c36c8b3064926d92deda3d8c5074d6a56daa511e7e693aab3d4347cebdd5b63238acdeedc3d8eb8f69ea18cb429ee8f09c26845507ba28eba916c74fd62cd9e587a8f013122d93579b6b7da091527251a4b70051be4f0f96f61e5dc4ab713c473174c7e2ebb463615b03c4787b74e8c204975399439fa553838f186ae028a47f3ccd46c5fcc46c11a36219f3ba1d34def7bee989fa61e60a2abd3652df9f8e5a1b53d9608e3bb04f5e852333d9c7d761836ef5761178bd07fde9a0ded16e1659a6c80281c259ce42e3fdbe23664ce783b58d595",
                "nonce" : "0xe9",
                "balance" : "0x33498455",
                "storage" : {
                }
            },
            "0x945304eb96065b2a98b57a48a06ae28d285a71b5" : {
                "code" : "0x36",
                "nonce" : "0x59",
                "balance" : "0x4ea91708",
                "storage" : {
                }
            },
            "0xa7f7c8ef9bbbcfb0f7e81c1fd46bb732fba60592" : {
                "code" : "0x",
                "nonce" : "0x00",
                "balance" : "0x1bc16d675dbd2087",
                "storage" : {
                }
            },
            "0xa94f5374fce5edbc8e2a8697c15331677e6ebf0b" : {
                "code" : "0x",
                "nonce" : "0x01",
                "balance" : "0x1024d2894650aff6e2",
                "storage" : {
                }
            }
        },
        "network" : "Berlin",
        "sealEngine" : "NoProof",
        "lastblockhash" : "0x0e3cf7160d5db32568729148776ebde3dc0b414f3964599c2ed9d9bb7d256316",
        "genesisRLP" : "0xf901f9f901f4a00000000000000000000000000000000000000000000000000000000000000000a01dcc4de8dec75d7aab85b567b6ccd41ad312451b948a7413f0a142fd40d4934794a7f7c8ef9bbbcfb0f7e81c1fd46bb732fba60592a070c95c8f30ec885c1d9acd677085e2f16430350749af97fa59de21385a83b575a056e81f171bcc55a6ff8345e692c0f86e5b48e01b996cadc001622fb5e363b421a056e81f171bcc55a6ff8345e692c0f86e5b48e01b996cadc001622fb5e363b421b90100000000000000000000000000000000000000000000000000000000000000000000000000000000000000000000000000000000000000000000000000000000000000000000000000000000000000000000000000000000000000000000000000000000000000000000000000000000000000000000000000000000000000000000000000000000000000000000000000000000000000000000000000000000000000000000000000000000000000000000000000000000000000000000000000000000000000000000000000000000000000000000000000000000000000000000000000000000000000000000000000000000000000000000000000000000008302000080840b3be1fc808000a00000000000000000000000000000000000000000000000000000000000000000880000000000000000c0c0",
        "blocks" : [
            {
                "rlp" : "0xf903c5f901f9a02d7c33b1044b359f33d10735a0f7ab906f7ed63be256490765e35825702c8b65a01dcc4de8dec75d7aab85b567b6ccd41ad312451b948a7413f0a142fd40d4934794a7f7c8ef9bbbcfb0f7e81c1fd46bb732fba60592a064da68c8e697945aa50d15a68f8f66eae52222ca2cf7ebe136df0aa33d54064da047372b9b573aca735d66feaf75e2827e2225eff80572bc31933576fb28603055a0576b213c5596ad5533581a573eddbc23fb9c9a81cf1f3c7ddf9893f89e9f8686b90100000000000000000000000000000000000000000000000000000000000000000000000000000000000000000000000000000000000000000000000000000000000000000000000000000000000000000000000000000000000000000000000000000000000000000000000000000000000000000000000000000000000000000000000000000000000000000000000000000000000000000000000000000000000000000000000000000000000000000000000000000000000000000000000000000000000000000000000000000000000000000000000000000000000000000000000000000000000000000000000000000000000000000000000000000000008302000001840b3be1fc838409f38203e800a00000000000000000000000000000000000000000000000000000000000000000880000000000000000f901c5f901c2801d838409f394095e7baea6a6c7c4c2dfeb977efac326af552d87887f3e3a6ac8834e68b9015873151af76abac2a99afe60eff5cfd8f68daf1b35e0608a690494ef4b1d043bf90e00916acf5f0332c3ef3aa972eba960aa557dc165d1a3c726953fc637fe643a60543de4159f3bc09673cd054235ddb44769fa2d6edb61b6e71feff2662043418ac9d2337bce1df4b842fbf8f07395b44bb506e8955d22a12176e2fb8e25bc546d77a6f5049a09f3126c915f14979d8c7c0cf88425567c6b8a6865b78e6d76208a641cb0d0651a758d9afdd5e36b2dcf740a8a1e2b19ebb0bc8ad6ac032577f3b5d483e40d0c9a40aaf32cebc478c0962e1ac5f6c648f47665f0850054ab4caab6eca1a24242087387c96452ad72e76a42a175db6c69a2d8cbcd70759249b040a797894765385557e947875851cfe9734edc8b613cbb6bf40b41b762fa3bcbc6b59ecc66971fef9e8ed16d691702b224f0e2f8ad12577a943401f57334d3207b884a40ed472960f03e4cab61c98268b5a73b6372ab45a7a41ba01e616df8a882d51a201c9f54a739f3d7d394338b31d4c6edff73717f584a4c54a00f044ad03d4fb9e6d9d71ad4263217b07111c76847f99c16e010d771b5a5af62c0",
                "blockHeader" : {
                    "bloom" : "0x00000000000000000000000000000000000000000000000000000000000000000000000000000000000000000000000000000000000000000000000000000000000000000000000000000000000000000000000000000000000000000000000000000000000000000000000000000000000000000000000000000000000000000000000000000000000000000000000000000000000000000000000000000000000000000000000000000000000000000000000000000000000000000000000000000000000000000000000000000000000000000000000000000000000000000000000000000000000000000000000000000000000000000000000000000000",
                    "coinbase" : "0xa7f7c8ef9bbbcfb0f7e81c1fd46bb732fba60592",
                    "difficulty" : "0x020000",
                    "extraData" : "0x00",
                    "gasLimit" : "0x0b3be1fc",
                    "gasUsed" : "0x8409f3",
                    "hash" : "0x0e3cf7160d5db32568729148776ebde3dc0b414f3964599c2ed9d9bb7d256316",
                    "mixHash" : "0x0000000000000000000000000000000000000000000000000000000000000000",
                    "nonce" : "0x0000000000000000",
                    "number" : "0x01",
                    "parentHash" : "0x2d7c33b1044b359f33d10735a0f7ab906f7ed63be256490765e35825702c8b65",
                    "receiptTrie" : "0x576b213c5596ad5533581a573eddbc23fb9c9a81cf1f3c7ddf9893f89e9f8686",
                    "stateRoot" : "0x64da68c8e697945aa50d15a68f8f66eae52222ca2cf7ebe136df0aa33d54064d",
                    "timestamp" : "0x03e8",
                    "transactionsTrie" : "0x47372b9b573aca735d66feaf75e2827e2225eff80572bc31933576fb28603055",
                    "uncleHash" : "0x1dcc4de8dec75d7aab85b567b6ccd41ad312451b948a7413f0a142fd40d49347"
                },
                "transactions" : [
                    {
                        "data" : "0x73151af76abac2a99afe60eff5cfd8f68daf1b35e0608a690494ef4b1d043bf90e00916acf5f0332c3ef3aa972eba960aa557dc165d1a3c726953fc637fe643a60543de4159f3bc09673cd054235ddb44769fa2d6edb61b6e71feff2662043418ac9d2337bce1df4b842fbf8f07395b44bb506e8955d22a12176e2fb8e25bc546d77a6f5049a09f3126c915f14979d8c7c0cf88425567c6b8a6865b78e6d76208a641cb0d0651a758d9afdd5e36b2dcf740a8a1e2b19ebb0bc8ad6ac032577f3b5d483e40d0c9a40aaf32cebc478c0962e1ac5f6c648f47665f0850054ab4caab6eca1a24242087387c96452ad72e76a42a175db6c69a2d8cbcd70759249b040a797894765385557e947875851cfe9734edc8b613cbb6bf40b41b762fa3bcbc6b59ecc66971fef9e8ed16d691702b224f0e2f8ad12577a943401f57334d3207b884a40ed472960f03e4cab61c98268b5a73b6372ab45a7a4",
                        "gasLimit" : "0x8409f3",
                        "gasPrice" : "0x1d",
                        "nonce" : "0x00",
                        "to" : "0x095e7baea6a6c7c4c2dfeb977efac326af552d87",
                        "value" : "0x7f3e3a6ac8834e68",
                        "v" : "0x1b",
                        "r" : "0x1e616df8a882d51a201c9f54a739f3d7d394338b31d4c6edff73717f584a4c54",
                        "s" : "0x0f044ad03d4fb9e6d9d71ad4263217b07111c76847f99c16e010d771b5a5af62"
                    }
                ],
                "uncleHeaders" : [
                ]
            }
        ]
    },
    "randomStatetest347_d0g0v0_Istanbul" : {
        "_info" : {
            "comment" : "",
            "filling-rpc-server" : "evm version 1.10.4-unstable-966ee3ae-20210528",
            "filling-tool-version" : "retesteth-0.1.1-eip1559+commit.658fc3a8.Linux.g++",
            "lllcversion" : "Version: 0.5.14-develop.2021.5.18+commit.14c9d5de.mod.Linux.g++",
            "source" : "src/GeneralStateTestsFiller/stRandom/randomStatetest347Filler.json",
            "sourceHash" : "6792774b1ad2c888104c5b52adf45a12b280bfde975607c00631bdda19e791f7"
        },
        "genesisBlockHeader" : {
            "bloom" : "0x00000000000000000000000000000000000000000000000000000000000000000000000000000000000000000000000000000000000000000000000000000000000000000000000000000000000000000000000000000000000000000000000000000000000000000000000000000000000000000000000000000000000000000000000000000000000000000000000000000000000000000000000000000000000000000000000000000000000000000000000000000000000000000000000000000000000000000000000000000000000000000000000000000000000000000000000000000000000000000000000000000000000000000000000000000000",
            "coinbase" : "0xa7f7c8ef9bbbcfb0f7e81c1fd46bb732fba60592",
            "difficulty" : "0x020000",
            "extraData" : "0x00",
            "gasLimit" : "0x0b3be1fc",
            "gasUsed" : "0x00",
            "hash" : "0x2d7c33b1044b359f33d10735a0f7ab906f7ed63be256490765e35825702c8b65",
            "mixHash" : "0x0000000000000000000000000000000000000000000000000000000000000000",
            "nonce" : "0x0000000000000000",
            "number" : "0x00",
            "parentHash" : "0x0000000000000000000000000000000000000000000000000000000000000000",
            "receiptTrie" : "0x56e81f171bcc55a6ff8345e692c0f86e5b48e01b996cadc001622fb5e363b421",
            "stateRoot" : "0x70c95c8f30ec885c1d9acd677085e2f16430350749af97fa59de21385a83b575",
            "timestamp" : "0x00",
            "transactionsTrie" : "0x56e81f171bcc55a6ff8345e692c0f86e5b48e01b996cadc001622fb5e363b421",
            "uncleHash" : "0x1dcc4de8dec75d7aab85b567b6ccd41ad312451b948a7413f0a142fd40d49347"
        },
        "pre" : {
            "0x095e7baea6a6c7c4c2dfeb977efac326af552d87" : {
                "balance" : "0x33498455",
                "code" : "0x64d552603c577e9a3805d8c55157a82b7660ef2a049cfbf79c15fa8e3261f121d213590fa3917d7d442a5e8734af2aaa4c859b452eed7860c2f7e051580427b6c3cc6d7fee617a0d64ef63e192256de5d2ea2689decfd971c7478effb06aa9e792747ce0492abde8c2f270e93d5ed0b213fed7ae59294537d4864c0e68bbe30ec5d1e6b854027862cfcbea15e8367dfaa080ee0da2b0d2ca892f5a764354370466ccddd03115ec8a7ad2e6c62c29425a45ec842fb74c369fb15a42e4b4e48b3eb70be2a0847469987980e6eaa539365a491d2366334f78f03acb177809e7525add39a234d3d2ef1cf8544a52389411ef846d3cd7f36d0d1db7f414860020171f07598cfb620e15a9681c843d60aee9fb8a4e7e37713afbf6ef9d1667513975c76f26ac35ce209b1e0a3bb7c19821368931537b4095ea42b32baf1ba596b9af5cce961ae705f8c9c5465e349633529871f64351169e7fe48ccbb866952fabbfcf40df723c564e109dbd4c9c15ee9ad625e96a5765f6f56ee0601677961da7ebad5f583f6eb6da7c8348425fe784f532f288963ccdbf9de3ac3ebc38b75a806b40e51b895c662d0bcab255a04b723f1e500517d17eb720e02f445cb046bd0fe7d2759438c79aa2dfcaef1cf57e4eb9c832f7ef449a9c32f673728f4b0dccdfa8fb1d447e2f681076ac51a98f76600a66b4692ca7e1e9c89f64cdf879cb0c625514977ebca28f2ec8bb3a092bd0c30849558fe16a4b7070cb05aec329c0286c26fff57795ce4ac7601160ea2d6656c8f2a554b43e263cc3a60e9fd0a26c0a5f7202f02888a731e84ab326610c77771f85025eb8c552943d2da5de48786015f5b8b5921d26c1e277d5a4cda5f1f77ec5f3a83e6ed6821ff025370e2fad05a0f364f58f3705c8761904d63e0f2e5bdbe2b0b1ddf82bb441c547634e8c1864737333e845ffa373c102303f727bfa14f4c445711f6f9695c36f3627df02a1fe2d7eca55faed6984000ab2a99545148bbe7369a47367bc24256acd6a3a22d5fb32434b1998297ae6b2edf08b72dc4598aa600e16707699a84e55ef611ea0e6da482f6c6e9d05d54bbb4ad06cd62622e469fbcd3e637a8f0d2ac9149b7076cce991cb5d4b4de1229e3decbcf46a3c7e46aa1fdc218d936e56f55b5a38bbd798361040e1badb1ab06adc38a723badfa07a95f78553de4df879855274a1904a31276d7938818021e69d8f5b9279478808a236deefd761df6bc151fded80bbe4ba725e7db7b9fc507f0b8121a009384c7bc4443747bd1ac9dc7682b32bec0937c7fb27ba3926acd0d67b41ba6c951788f1bb1b1168229d15cafdc63209c95df646566024013d766a01d6b8051c357243c9f464f423a2ae8efa4f9efd95777099eac9b0825d18018a5afcb6cecd9ab9a9655ae262db08a271d8adedbc3e7eb6acfd2d576ec297c09c4bd47a80dacd2b123e4e4e6232ef6d70acb10f2f44a62bbcef65a72576506ea119b051880b515f4414920badcd6f726c04e821516f6123c9c52f29e19bfe0fb10fab76536535cc0e01115c83369d4083db2d669654c2fe8c00e37bd78f663a2ce2425d2ce358e213d6c601208bb644fa656678de7633147fbd152c2ae682dec269245f07ba3c79f4e6e1978d40f42a494d44eba128b9d0228d637900cbab73455423156417fae331d26494d1ed4d06ecf206736f04292d5470d5091c48a80ba737372c35729c829af30db3625785ba0b3cfc4240d002276760f2770ead609b52db934a53063ec1c05488188fb37ce61059909b6c975c0e9401ef3b71b6d0ddae39867f3f0878bd172851a98a233fcafae289fc634c36c8b3064926d92deda3d8c5074d6a56daa511e7e693aab3d4347cebdd5b63238acdeedc3d8eb8f69ea18cb429ee8f09c26845507ba28eba916c74fd62cd9e587a8f013122d93579b6b7da091527251a4b70051be4f0f96f61e5dc4ab713c473174c7e2ebb463615b03c4787b74e8c204975399439fa553838f186ae028a47f3ccd46c5fcc46c11a36219f3ba1d34def7bee989fa61e60a2abd3652df9f8e5a1b53d9608e3bb04f5e852333d9c7d761836ef5761178bd07fde9a0ded16e1659a6c80281c259ce42e3fdbe23664ce783b58d595",
                "nonce" : "0xe9",
                "storage" : {
                }
            },
            "0x945304eb96065b2a98b57a48a06ae28d285a71b5" : {
                "balance" : "0x4ea91708",
                "code" : "0x36",
                "nonce" : "0x59",
                "storage" : {
                }
            },
            "0xa94f5374fce5edbc8e2a8697c15331677e6ebf0b" : {
                "balance" : "0x1024d289465fa51769",
                "code" : "0x",
                "nonce" : "0x00",
                "storage" : {
                }
            }
        },
        "postState" : {
            "0x095e7baea6a6c7c4c2dfeb977efac326af552d87" : {
                "code" : "0x64d552603c577e9a3805d8c55157a82b7660ef2a049cfbf79c15fa8e3261f121d213590fa3917d7d442a5e8734af2aaa4c859b452eed7860c2f7e051580427b6c3cc6d7fee617a0d64ef63e192256de5d2ea2689decfd971c7478effb06aa9e792747ce0492abde8c2f270e93d5ed0b213fed7ae59294537d4864c0e68bbe30ec5d1e6b854027862cfcbea15e8367dfaa080ee0da2b0d2ca892f5a764354370466ccddd03115ec8a7ad2e6c62c29425a45ec842fb74c369fb15a42e4b4e48b3eb70be2a0847469987980e6eaa539365a491d2366334f78f03acb177809e7525add39a234d3d2ef1cf8544a52389411ef846d3cd7f36d0d1db7f414860020171f07598cfb620e15a9681c843d60aee9fb8a4e7e37713afbf6ef9d1667513975c76f26ac35ce209b1e0a3bb7c19821368931537b4095ea42b32baf1ba596b9af5cce961ae705f8c9c5465e349633529871f64351169e7fe48ccbb866952fabbfcf40df723c564e109dbd4c9c15ee9ad625e96a5765f6f56ee0601677961da7ebad5f583f6eb6da7c8348425fe784f532f288963ccdbf9de3ac3ebc38b75a806b40e51b895c662d0bcab255a04b723f1e500517d17eb720e02f445cb046bd0fe7d2759438c79aa2dfcaef1cf57e4eb9c832f7ef449a9c32f673728f4b0dccdfa8fb1d447e2f681076ac51a98f76600a66b4692ca7e1e9c89f64cdf879cb0c625514977ebca28f2ec8bb3a092bd0c30849558fe16a4b7070cb05aec329c0286c26fff57795ce4ac7601160ea2d6656c8f2a554b43e263cc3a60e9fd0a26c0a5f7202f02888a731e84ab326610c77771f85025eb8c552943d2da5de48786015f5b8b5921d26c1e277d5a4cda5f1f77ec5f3a83e6ed6821ff025370e2fad05a0f364f58f3705c8761904d63e0f2e5bdbe2b0b1ddf82bb441c547634e8c1864737333e845ffa373c102303f727bfa14f4c445711f6f9695c36f3627df02a1fe2d7eca55faed6984000ab2a99545148bbe7369a47367bc24256acd6a3a22d5fb32434b1998297ae6b2edf08b72dc4598aa600e16707699a84e55ef611ea0e6da482f6c6e9d05d54bbb4ad06cd62622e469fbcd3e637a8f0d2ac9149b7076cce991cb5d4b4de1229e3decbcf46a3c7e46aa1fdc218d936e56f55b5a38bbd798361040e1badb1ab06adc38a723badfa07a95f78553de4df879855274a1904a31276d7938818021e69d8f5b9279478808a236deefd761df6bc151fded80bbe4ba725e7db7b9fc507f0b8121a009384c7bc4443747bd1ac9dc7682b32bec0937c7fb27ba3926acd0d67b41ba6c951788f1bb1b1168229d15cafdc63209c95df646566024013d766a01d6b8051c357243c9f464f423a2ae8efa4f9efd95777099eac9b0825d18018a5afcb6cecd9ab9a9655ae262db08a271d8adedbc3e7eb6acfd2d576ec297c09c4bd47a80dacd2b123e4e4e6232ef6d70acb10f2f44a62bbcef65a72576506ea119b051880b515f4414920badcd6f726c04e821516f6123c9c52f29e19bfe0fb10fab76536535cc0e01115c83369d4083db2d669654c2fe8c00e37bd78f663a2ce2425d2ce358e213d6c601208bb644fa656678de7633147fbd152c2ae682dec269245f07ba3c79f4e6e1978d40f42a494d44eba128b9d0228d637900cbab73455423156417fae331d26494d1ed4d06ecf206736f04292d5470d5091c48a80ba737372c35729c829af30db3625785ba0b3cfc4240d002276760f2770ead609b52db934a53063ec1c05488188fb37ce61059909b6c975c0e9401ef3b71b6d0ddae39867f3f0878bd172851a98a233fcafae289fc634c36c8b3064926d92deda3d8c5074d6a56daa511e7e693aab3d4347cebdd5b63238acdeedc3d8eb8f69ea18cb429ee8f09c26845507ba28eba916c74fd62cd9e587a8f013122d93579b6b7da091527251a4b70051be4f0f96f61e5dc4ab713c473174c7e2ebb463615b03c4787b74e8c204975399439fa553838f186ae028a47f3ccd46c5fcc46c11a36219f3ba1d34def7bee989fa61e60a2abd3652df9f8e5a1b53d9608e3bb04f5e852333d9c7d761836ef5761178bd07fde9a0ded16e1659a6c80281c259ce42e3fdbe23664ce783b58d595",
                "nonce" : "0xe9",
                "balance" : "0x33498455",
                "storage" : {
                }
            },
            "0x945304eb96065b2a98b57a48a06ae28d285a71b5" : {
                "code" : "0x36",
                "nonce" : "0x59",
                "balance" : "0x4ea91708",
                "storage" : {
                }
            },
            "0xa7f7c8ef9bbbcfb0f7e81c1fd46bb732fba60592" : {
                "code" : "0x",
                "nonce" : "0x00",
                "balance" : "0x1bc16d675dbd2087",
                "storage" : {
                }
            },
            "0xa94f5374fce5edbc8e2a8697c15331677e6ebf0b" : {
                "code" : "0x",
                "nonce" : "0x01",
                "balance" : "0x1024d2894650aff6e2",
                "storage" : {
                }
            }
        },
        "network" : "Istanbul",
        "sealEngine" : "NoProof",
        "lastblockhash" : "0x0e3cf7160d5db32568729148776ebde3dc0b414f3964599c2ed9d9bb7d256316",
        "genesisRLP" : "0xf901f9f901f4a00000000000000000000000000000000000000000000000000000000000000000a01dcc4de8dec75d7aab85b567b6ccd41ad312451b948a7413f0a142fd40d4934794a7f7c8ef9bbbcfb0f7e81c1fd46bb732fba60592a070c95c8f30ec885c1d9acd677085e2f16430350749af97fa59de21385a83b575a056e81f171bcc55a6ff8345e692c0f86e5b48e01b996cadc001622fb5e363b421a056e81f171bcc55a6ff8345e692c0f86e5b48e01b996cadc001622fb5e363b421b90100000000000000000000000000000000000000000000000000000000000000000000000000000000000000000000000000000000000000000000000000000000000000000000000000000000000000000000000000000000000000000000000000000000000000000000000000000000000000000000000000000000000000000000000000000000000000000000000000000000000000000000000000000000000000000000000000000000000000000000000000000000000000000000000000000000000000000000000000000000000000000000000000000000000000000000000000000000000000000000000000000000000000000000000000000000008302000080840b3be1fc808000a00000000000000000000000000000000000000000000000000000000000000000880000000000000000c0c0",
        "blocks" : [
            {
                "rlp" : "0xf903c5f901f9a02d7c33b1044b359f33d10735a0f7ab906f7ed63be256490765e35825702c8b65a01dcc4de8dec75d7aab85b567b6ccd41ad312451b948a7413f0a142fd40d4934794a7f7c8ef9bbbcfb0f7e81c1fd46bb732fba60592a064da68c8e697945aa50d15a68f8f66eae52222ca2cf7ebe136df0aa33d54064da047372b9b573aca735d66feaf75e2827e2225eff80572bc31933576fb28603055a0576b213c5596ad5533581a573eddbc23fb9c9a81cf1f3c7ddf9893f89e9f8686b90100000000000000000000000000000000000000000000000000000000000000000000000000000000000000000000000000000000000000000000000000000000000000000000000000000000000000000000000000000000000000000000000000000000000000000000000000000000000000000000000000000000000000000000000000000000000000000000000000000000000000000000000000000000000000000000000000000000000000000000000000000000000000000000000000000000000000000000000000000000000000000000000000000000000000000000000000000000000000000000000000000000000000000000000000000000008302000001840b3be1fc838409f38203e800a00000000000000000000000000000000000000000000000000000000000000000880000000000000000f901c5f901c2801d838409f394095e7baea6a6c7c4c2dfeb977efac326af552d87887f3e3a6ac8834e68b9015873151af76abac2a99afe60eff5cfd8f68daf1b35e0608a690494ef4b1d043bf90e00916acf5f0332c3ef3aa972eba960aa557dc165d1a3c726953fc637fe643a60543de4159f3bc09673cd054235ddb44769fa2d6edb61b6e71feff2662043418ac9d2337bce1df4b842fbf8f07395b44bb506e8955d22a12176e2fb8e25bc546d77a6f5049a09f3126c915f14979d8c7c0cf88425567c6b8a6865b78e6d76208a641cb0d0651a758d9afdd5e36b2dcf740a8a1e2b19ebb0bc8ad6ac032577f3b5d483e40d0c9a40aaf32cebc478c0962e1ac5f6c648f47665f0850054ab4caab6eca1a24242087387c96452ad72e76a42a175db6c69a2d8cbcd70759249b040a797894765385557e947875851cfe9734edc8b613cbb6bf40b41b762fa3bcbc6b59ecc66971fef9e8ed16d691702b224f0e2f8ad12577a943401f57334d3207b884a40ed472960f03e4cab61c98268b5a73b6372ab45a7a41ba01e616df8a882d51a201c9f54a739f3d7d394338b31d4c6edff73717f584a4c54a00f044ad03d4fb9e6d9d71ad4263217b07111c76847f99c16e010d771b5a5af62c0",
                "blockHeader" : {
                    "bloom" : "0x00000000000000000000000000000000000000000000000000000000000000000000000000000000000000000000000000000000000000000000000000000000000000000000000000000000000000000000000000000000000000000000000000000000000000000000000000000000000000000000000000000000000000000000000000000000000000000000000000000000000000000000000000000000000000000000000000000000000000000000000000000000000000000000000000000000000000000000000000000000000000000000000000000000000000000000000000000000000000000000000000000000000000000000000000000000",
                    "coinbase" : "0xa7f7c8ef9bbbcfb0f7e81c1fd46bb732fba60592",
                    "difficulty" : "0x020000",
                    "extraData" : "0x00",
                    "gasLimit" : "0x0b3be1fc",
                    "gasUsed" : "0x8409f3",
                    "hash" : "0x0e3cf7160d5db32568729148776ebde3dc0b414f3964599c2ed9d9bb7d256316",
                    "mixHash" : "0x0000000000000000000000000000000000000000000000000000000000000000",
                    "nonce" : "0x0000000000000000",
                    "number" : "0x01",
                    "parentHash" : "0x2d7c33b1044b359f33d10735a0f7ab906f7ed63be256490765e35825702c8b65",
                    "receiptTrie" : "0x576b213c5596ad5533581a573eddbc23fb9c9a81cf1f3c7ddf9893f89e9f8686",
                    "stateRoot" : "0x64da68c8e697945aa50d15a68f8f66eae52222ca2cf7ebe136df0aa33d54064d",
                    "timestamp" : "0x03e8",
                    "transactionsTrie" : "0x47372b9b573aca735d66feaf75e2827e2225eff80572bc31933576fb28603055",
                    "uncleHash" : "0x1dcc4de8dec75d7aab85b567b6ccd41ad312451b948a7413f0a142fd40d49347"
                },
                "transactions" : [
                    {
                        "data" : "0x73151af76abac2a99afe60eff5cfd8f68daf1b35e0608a690494ef4b1d043bf90e00916acf5f0332c3ef3aa972eba960aa557dc165d1a3c726953fc637fe643a60543de4159f3bc09673cd054235ddb44769fa2d6edb61b6e71feff2662043418ac9d2337bce1df4b842fbf8f07395b44bb506e8955d22a12176e2fb8e25bc546d77a6f5049a09f3126c915f14979d8c7c0cf88425567c6b8a6865b78e6d76208a641cb0d0651a758d9afdd5e36b2dcf740a8a1e2b19ebb0bc8ad6ac032577f3b5d483e40d0c9a40aaf32cebc478c0962e1ac5f6c648f47665f0850054ab4caab6eca1a24242087387c96452ad72e76a42a175db6c69a2d8cbcd70759249b040a797894765385557e947875851cfe9734edc8b613cbb6bf40b41b762fa3bcbc6b59ecc66971fef9e8ed16d691702b224f0e2f8ad12577a943401f57334d3207b884a40ed472960f03e4cab61c98268b5a73b6372ab45a7a4",
                        "gasLimit" : "0x8409f3",
                        "gasPrice" : "0x1d",
                        "nonce" : "0x00",
                        "to" : "0x095e7baea6a6c7c4c2dfeb977efac326af552d87",
                        "value" : "0x7f3e3a6ac8834e68",
                        "v" : "0x1b",
                        "r" : "0x1e616df8a882d51a201c9f54a739f3d7d394338b31d4c6edff73717f584a4c54",
                        "s" : "0x0f044ad03d4fb9e6d9d71ad4263217b07111c76847f99c16e010d771b5a5af62"
                    }
                ],
                "uncleHeaders" : [
                ]
            }
        ]
    },
    "randomStatetest347_d0g0v0_London" : {
        "_info" : {
            "comment" : "",
            "filling-rpc-server" : "evm version 1.10.4-unstable-966ee3ae-20210528",
            "filling-tool-version" : "retesteth-0.1.1-eip1559+commit.658fc3a8.Linux.g++",
            "lllcversion" : "Version: 0.5.14-develop.2021.5.18+commit.14c9d5de.mod.Linux.g++",
            "source" : "src/GeneralStateTestsFiller/stRandom/randomStatetest347Filler.json",
            "sourceHash" : "6792774b1ad2c888104c5b52adf45a12b280bfde975607c00631bdda19e791f7"
        },
        "genesisBlockHeader" : {
            "bloom" : "0x00000000000000000000000000000000000000000000000000000000000000000000000000000000000000000000000000000000000000000000000000000000000000000000000000000000000000000000000000000000000000000000000000000000000000000000000000000000000000000000000000000000000000000000000000000000000000000000000000000000000000000000000000000000000000000000000000000000000000000000000000000000000000000000000000000000000000000000000000000000000000000000000000000000000000000000000000000000000000000000000000000000000000000000000000000000",
            "coinbase" : "0xa7f7c8ef9bbbcfb0f7e81c1fd46bb732fba60592",
            "difficulty" : "0x020000",
            "extraData" : "0x00",
            "gasLimit" : "0x0b3be1fc",
            "gasUsed" : "0x00",
            "hash" : "0xeb48c08c4ad6307fe34f5cc1135149fc5af737bd9bfd2b21ce35da99c8968e2a",
            "mixHash" : "0x0000000000000000000000000000000000000000000000000000000000000000",
            "nonce" : "0x0000000000000000",
            "number" : "0x00",
            "parentHash" : "0x0000000000000000000000000000000000000000000000000000000000000000",
            "receiptTrie" : "0x56e81f171bcc55a6ff8345e692c0f86e5b48e01b996cadc001622fb5e363b421",
            "stateRoot" : "0x70c95c8f30ec885c1d9acd677085e2f16430350749af97fa59de21385a83b575",
            "timestamp" : "0x00",
            "transactionsTrie" : "0x56e81f171bcc55a6ff8345e692c0f86e5b48e01b996cadc001622fb5e363b421",
            "uncleHash" : "0x1dcc4de8dec75d7aab85b567b6ccd41ad312451b948a7413f0a142fd40d49347",
            "baseFee" : "0x0b"
        },
        "pre" : {
            "0x095e7baea6a6c7c4c2dfeb977efac326af552d87" : {
                "balance" : "0x33498455",
                "code" : "0x64d552603c577e9a3805d8c55157a82b7660ef2a049cfbf79c15fa8e3261f121d213590fa3917d7d442a5e8734af2aaa4c859b452eed7860c2f7e051580427b6c3cc6d7fee617a0d64ef63e192256de5d2ea2689decfd971c7478effb06aa9e792747ce0492abde8c2f270e93d5ed0b213fed7ae59294537d4864c0e68bbe30ec5d1e6b854027862cfcbea15e8367dfaa080ee0da2b0d2ca892f5a764354370466ccddd03115ec8a7ad2e6c62c29425a45ec842fb74c369fb15a42e4b4e48b3eb70be2a0847469987980e6eaa539365a491d2366334f78f03acb177809e7525add39a234d3d2ef1cf8544a52389411ef846d3cd7f36d0d1db7f414860020171f07598cfb620e15a9681c843d60aee9fb8a4e7e37713afbf6ef9d1667513975c76f26ac35ce209b1e0a3bb7c19821368931537b4095ea42b32baf1ba596b9af5cce961ae705f8c9c5465e349633529871f64351169e7fe48ccbb866952fabbfcf40df723c564e109dbd4c9c15ee9ad625e96a5765f6f56ee0601677961da7ebad5f583f6eb6da7c8348425fe784f532f288963ccdbf9de3ac3ebc38b75a806b40e51b895c662d0bcab255a04b723f1e500517d17eb720e02f445cb046bd0fe7d2759438c79aa2dfcaef1cf57e4eb9c832f7ef449a9c32f673728f4b0dccdfa8fb1d447e2f681076ac51a98f76600a66b4692ca7e1e9c89f64cdf879cb0c625514977ebca28f2ec8bb3a092bd0c30849558fe16a4b7070cb05aec329c0286c26fff57795ce4ac7601160ea2d6656c8f2a554b43e263cc3a60e9fd0a26c0a5f7202f02888a731e84ab326610c77771f85025eb8c552943d2da5de48786015f5b8b5921d26c1e277d5a4cda5f1f77ec5f3a83e6ed6821ff025370e2fad05a0f364f58f3705c8761904d63e0f2e5bdbe2b0b1ddf82bb441c547634e8c1864737333e845ffa373c102303f727bfa14f4c445711f6f9695c36f3627df02a1fe2d7eca55faed6984000ab2a99545148bbe7369a47367bc24256acd6a3a22d5fb32434b1998297ae6b2edf08b72dc4598aa600e16707699a84e55ef611ea0e6da482f6c6e9d05d54bbb4ad06cd62622e469fbcd3e637a8f0d2ac9149b7076cce991cb5d4b4de1229e3decbcf46a3c7e46aa1fdc218d936e56f55b5a38bbd798361040e1badb1ab06adc38a723badfa07a95f78553de4df879855274a1904a31276d7938818021e69d8f5b9279478808a236deefd761df6bc151fded80bbe4ba725e7db7b9fc507f0b8121a009384c7bc4443747bd1ac9dc7682b32bec0937c7fb27ba3926acd0d67b41ba6c951788f1bb1b1168229d15cafdc63209c95df646566024013d766a01d6b8051c357243c9f464f423a2ae8efa4f9efd95777099eac9b0825d18018a5afcb6cecd9ab9a9655ae262db08a271d8adedbc3e7eb6acfd2d576ec297c09c4bd47a80dacd2b123e4e4e6232ef6d70acb10f2f44a62bbcef65a72576506ea119b051880b515f4414920badcd6f726c04e821516f6123c9c52f29e19bfe0fb10fab76536535cc0e01115c83369d4083db2d669654c2fe8c00e37bd78f663a2ce2425d2ce358e213d6c601208bb644fa656678de7633147fbd152c2ae682dec269245f07ba3c79f4e6e1978d40f42a494d44eba128b9d0228d637900cbab73455423156417fae331d26494d1ed4d06ecf206736f04292d5470d5091c48a80ba737372c35729c829af30db3625785ba0b3cfc4240d002276760f2770ead609b52db934a53063ec1c05488188fb37ce61059909b6c975c0e9401ef3b71b6d0ddae39867f3f0878bd172851a98a233fcafae289fc634c36c8b3064926d92deda3d8c5074d6a56daa511e7e693aab3d4347cebdd5b63238acdeedc3d8eb8f69ea18cb429ee8f09c26845507ba28eba916c74fd62cd9e587a8f013122d93579b6b7da091527251a4b70051be4f0f96f61e5dc4ab713c473174c7e2ebb463615b03c4787b74e8c204975399439fa553838f186ae028a47f3ccd46c5fcc46c11a36219f3ba1d34def7bee989fa61e60a2abd3652df9f8e5a1b53d9608e3bb04f5e852333d9c7d761836ef5761178bd07fde9a0ded16e1659a6c80281c259ce42e3fdbe23664ce783b58d595",
                "nonce" : "0xe9",
                "storage" : {
                }
            },
            "0x945304eb96065b2a98b57a48a06ae28d285a71b5" : {
                "balance" : "0x4ea91708",
                "code" : "0x36",
                "nonce" : "0x59",
                "storage" : {
                }
            },
            "0xa94f5374fce5edbc8e2a8697c15331677e6ebf0b" : {
                "balance" : "0x1024d289465fa51769",
                "code" : "0x",
                "nonce" : "0x00",
                "storage" : {
                }
            }
        },
        "postState" : {
            "0x095e7baea6a6c7c4c2dfeb977efac326af552d87" : {
                "code" : "0x64d552603c577e9a3805d8c55157a82b7660ef2a049cfbf79c15fa8e3261f121d213590fa3917d7d442a5e8734af2aaa4c859b452eed7860c2f7e051580427b6c3cc6d7fee617a0d64ef63e192256de5d2ea2689decfd971c7478effb06aa9e792747ce0492abde8c2f270e93d5ed0b213fed7ae59294537d4864c0e68bbe30ec5d1e6b854027862cfcbea15e8367dfaa080ee0da2b0d2ca892f5a764354370466ccddd03115ec8a7ad2e6c62c29425a45ec842fb74c369fb15a42e4b4e48b3eb70be2a0847469987980e6eaa539365a491d2366334f78f03acb177809e7525add39a234d3d2ef1cf8544a52389411ef846d3cd7f36d0d1db7f414860020171f07598cfb620e15a9681c843d60aee9fb8a4e7e37713afbf6ef9d1667513975c76f26ac35ce209b1e0a3bb7c19821368931537b4095ea42b32baf1ba596b9af5cce961ae705f8c9c5465e349633529871f64351169e7fe48ccbb866952fabbfcf40df723c564e109dbd4c9c15ee9ad625e96a5765f6f56ee0601677961da7ebad5f583f6eb6da7c8348425fe784f532f288963ccdbf9de3ac3ebc38b75a806b40e51b895c662d0bcab255a04b723f1e500517d17eb720e02f445cb046bd0fe7d2759438c79aa2dfcaef1cf57e4eb9c832f7ef449a9c32f673728f4b0dccdfa8fb1d447e2f681076ac51a98f76600a66b4692ca7e1e9c89f64cdf879cb0c625514977ebca28f2ec8bb3a092bd0c30849558fe16a4b7070cb05aec329c0286c26fff57795ce4ac7601160ea2d6656c8f2a554b43e263cc3a60e9fd0a26c0a5f7202f02888a731e84ab326610c77771f85025eb8c552943d2da5de48786015f5b8b5921d26c1e277d5a4cda5f1f77ec5f3a83e6ed6821ff025370e2fad05a0f364f58f3705c8761904d63e0f2e5bdbe2b0b1ddf82bb441c547634e8c1864737333e845ffa373c102303f727bfa14f4c445711f6f9695c36f3627df02a1fe2d7eca55faed6984000ab2a99545148bbe7369a47367bc24256acd6a3a22d5fb32434b1998297ae6b2edf08b72dc4598aa600e16707699a84e55ef611ea0e6da482f6c6e9d05d54bbb4ad06cd62622e469fbcd3e637a8f0d2ac9149b7076cce991cb5d4b4de1229e3decbcf46a3c7e46aa1fdc218d936e56f55b5a38bbd798361040e1badb1ab06adc38a723badfa07a95f78553de4df879855274a1904a31276d7938818021e69d8f5b9279478808a236deefd761df6bc151fded80bbe4ba725e7db7b9fc507f0b8121a009384c7bc4443747bd1ac9dc7682b32bec0937c7fb27ba3926acd0d67b41ba6c951788f1bb1b1168229d15cafdc63209c95df646566024013d766a01d6b8051c357243c9f464f423a2ae8efa4f9efd95777099eac9b0825d18018a5afcb6cecd9ab9a9655ae262db08a271d8adedbc3e7eb6acfd2d576ec297c09c4bd47a80dacd2b123e4e4e6232ef6d70acb10f2f44a62bbcef65a72576506ea119b051880b515f4414920badcd6f726c04e821516f6123c9c52f29e19bfe0fb10fab76536535cc0e01115c83369d4083db2d669654c2fe8c00e37bd78f663a2ce2425d2ce358e213d6c601208bb644fa656678de7633147fbd152c2ae682dec269245f07ba3c79f4e6e1978d40f42a494d44eba128b9d0228d637900cbab73455423156417fae331d26494d1ed4d06ecf206736f04292d5470d5091c48a80ba737372c35729c829af30db3625785ba0b3cfc4240d002276760f2770ead609b52db934a53063ec1c05488188fb37ce61059909b6c975c0e9401ef3b71b6d0ddae39867f3f0878bd172851a98a233fcafae289fc634c36c8b3064926d92deda3d8c5074d6a56daa511e7e693aab3d4347cebdd5b63238acdeedc3d8eb8f69ea18cb429ee8f09c26845507ba28eba916c74fd62cd9e587a8f013122d93579b6b7da091527251a4b70051be4f0f96f61e5dc4ab713c473174c7e2ebb463615b03c4787b74e8c204975399439fa553838f186ae028a47f3ccd46c5fcc46c11a36219f3ba1d34def7bee989fa61e60a2abd3652df9f8e5a1b53d9608e3bb04f5e852333d9c7d761836ef5761178bd07fde9a0ded16e1659a6c80281c259ce42e3fdbe23664ce783b58d595",
                "nonce" : "0xe9",
                "balance" : "0x33498455",
                "storage" : {
                }
            },
            "0x945304eb96065b2a98b57a48a06ae28d285a71b5" : {
                "code" : "0x36",
                "nonce" : "0x59",
                "balance" : "0x4ea91708",
                "storage" : {
                }
            },
            "0xa7f7c8ef9bbbcfb0f7e81c1fd46bb732fba60592" : {
                "code" : "0x",
                "nonce" : "0x00",
                "balance" : "0x1bc16d675894bd09",
                "storage" : {
                }
            },
            "0xa94f5374fce5edbc8e2a8697c15331677e6ebf0b" : {
                "code" : "0x",
                "nonce" : "0x01",
                "balance" : "0x1024d2894650aff6e2",
                "storage" : {
                }
            }
        },
        "network" : "London",
        "sealEngine" : "NoProof",
        "lastblockhash" : "0xf6437cae67c5d9a2f96c90a242acb76fd2f20944af074e42f827148182cf2b60",
        "genesisRLP" : "0xf901faf901f5a00000000000000000000000000000000000000000000000000000000000000000a01dcc4de8dec75d7aab85b567b6ccd41ad312451b948a7413f0a142fd40d4934794a7f7c8ef9bbbcfb0f7e81c1fd46bb732fba60592a070c95c8f30ec885c1d9acd677085e2f16430350749af97fa59de21385a83b575a056e81f171bcc55a6ff8345e692c0f86e5b48e01b996cadc001622fb5e363b421a056e81f171bcc55a6ff8345e692c0f86e5b48e01b996cadc001622fb5e363b421b90100000000000000000000000000000000000000000000000000000000000000000000000000000000000000000000000000000000000000000000000000000000000000000000000000000000000000000000000000000000000000000000000000000000000000000000000000000000000000000000000000000000000000000000000000000000000000000000000000000000000000000000000000000000000000000000000000000000000000000000000000000000000000000000000000000000000000000000000000000000000000000000000000000000000000000000000000000000000000000000000000000000000000000000000000000000008302000080840b3be1fc808000a000000000000000000000000000000000000000000000000000000000000000008800000000000000000bc0c0",
        "blocks" : [
            {
                "rlp" : "0xf903c6f901faa0eb48c08c4ad6307fe34f5cc1135149fc5af737bd9bfd2b21ce35da99c8968e2aa01dcc4de8dec75d7aab85b567b6ccd41ad312451b948a7413f0a142fd40d4934794a7f7c8ef9bbbcfb0f7e81c1fd46bb732fba60592a0f6075cc51658e812387f82c8ca46d2d15bd86a107cc569eed0a6a6fb242371b2a047372b9b573aca735d66feaf75e2827e2225eff80572bc31933576fb28603055a0576b213c5596ad5533581a573eddbc23fb9c9a81cf1f3c7ddf9893f89e9f8686b90100000000000000000000000000000000000000000000000000000000000000000000000000000000000000000000000000000000000000000000000000000000000000000000000000000000000000000000000000000000000000000000000000000000000000000000000000000000000000000000000000000000000000000000000000000000000000000000000000000000000000000000000000000000000000000000000000000000000000000000000000000000000000000000000000000000000000000000000000000000000000000000000000000000000000000000000000000000000000000000000000000000000000000000000000000000008302000001840b3be1fc838409f38203e800a000000000000000000000000000000000000000000000000000000000000000008800000000000000000af901c5f901c2801d838409f394095e7baea6a6c7c4c2dfeb977efac326af552d87887f3e3a6ac8834e68b9015873151af76abac2a99afe60eff5cfd8f68daf1b35e0608a690494ef4b1d043bf90e00916acf5f0332c3ef3aa972eba960aa557dc165d1a3c726953fc637fe643a60543de4159f3bc09673cd054235ddb44769fa2d6edb61b6e71feff2662043418ac9d2337bce1df4b842fbf8f07395b44bb506e8955d22a12176e2fb8e25bc546d77a6f5049a09f3126c915f14979d8c7c0cf88425567c6b8a6865b78e6d76208a641cb0d0651a758d9afdd5e36b2dcf740a8a1e2b19ebb0bc8ad6ac032577f3b5d483e40d0c9a40aaf32cebc478c0962e1ac5f6c648f47665f0850054ab4caab6eca1a24242087387c96452ad72e76a42a175db6c69a2d8cbcd70759249b040a797894765385557e947875851cfe9734edc8b613cbb6bf40b41b762fa3bcbc6b59ecc66971fef9e8ed16d691702b224f0e2f8ad12577a943401f57334d3207b884a40ed472960f03e4cab61c98268b5a73b6372ab45a7a41ba01e616df8a882d51a201c9f54a739f3d7d394338b31d4c6edff73717f584a4c54a00f044ad03d4fb9e6d9d71ad4263217b07111c76847f99c16e010d771b5a5af62c0",
                "blockHeader" : {
                    "bloom" : "0x00000000000000000000000000000000000000000000000000000000000000000000000000000000000000000000000000000000000000000000000000000000000000000000000000000000000000000000000000000000000000000000000000000000000000000000000000000000000000000000000000000000000000000000000000000000000000000000000000000000000000000000000000000000000000000000000000000000000000000000000000000000000000000000000000000000000000000000000000000000000000000000000000000000000000000000000000000000000000000000000000000000000000000000000000000000",
                    "coinbase" : "0xa7f7c8ef9bbbcfb0f7e81c1fd46bb732fba60592",
                    "difficulty" : "0x020000",
                    "extraData" : "0x00",
                    "gasLimit" : "0x0b3be1fc",
                    "gasUsed" : "0x8409f3",
                    "hash" : "0xf6437cae67c5d9a2f96c90a242acb76fd2f20944af074e42f827148182cf2b60",
                    "mixHash" : "0x0000000000000000000000000000000000000000000000000000000000000000",
                    "nonce" : "0x0000000000000000",
                    "number" : "0x01",
                    "parentHash" : "0xeb48c08c4ad6307fe34f5cc1135149fc5af737bd9bfd2b21ce35da99c8968e2a",
                    "receiptTrie" : "0x576b213c5596ad5533581a573eddbc23fb9c9a81cf1f3c7ddf9893f89e9f8686",
                    "stateRoot" : "0xf6075cc51658e812387f82c8ca46d2d15bd86a107cc569eed0a6a6fb242371b2",
                    "timestamp" : "0x03e8",
                    "transactionsTrie" : "0x47372b9b573aca735d66feaf75e2827e2225eff80572bc31933576fb28603055",
                    "uncleHash" : "0x1dcc4de8dec75d7aab85b567b6ccd41ad312451b948a7413f0a142fd40d49347",
                    "baseFee" : "0x0a"
                },
                "transactions" : [
                    {
                        "data" : "0x73151af76abac2a99afe60eff5cfd8f68daf1b35e0608a690494ef4b1d043bf90e00916acf5f0332c3ef3aa972eba960aa557dc165d1a3c726953fc637fe643a60543de4159f3bc09673cd054235ddb44769fa2d6edb61b6e71feff2662043418ac9d2337bce1df4b842fbf8f07395b44bb506e8955d22a12176e2fb8e25bc546d77a6f5049a09f3126c915f14979d8c7c0cf88425567c6b8a6865b78e6d76208a641cb0d0651a758d9afdd5e36b2dcf740a8a1e2b19ebb0bc8ad6ac032577f3b5d483e40d0c9a40aaf32cebc478c0962e1ac5f6c648f47665f0850054ab4caab6eca1a24242087387c96452ad72e76a42a175db6c69a2d8cbcd70759249b040a797894765385557e947875851cfe9734edc8b613cbb6bf40b41b762fa3bcbc6b59ecc66971fef9e8ed16d691702b224f0e2f8ad12577a943401f57334d3207b884a40ed472960f03e4cab61c98268b5a73b6372ab45a7a4",
                        "gasLimit" : "0x8409f3",
                        "gasPrice" : "0x1d",
                        "nonce" : "0x00",
                        "to" : "0x095e7baea6a6c7c4c2dfeb977efac326af552d87",
                        "value" : "0x7f3e3a6ac8834e68",
                        "v" : "0x1b",
                        "r" : "0x1e616df8a882d51a201c9f54a739f3d7d394338b31d4c6edff73717f584a4c54",
                        "s" : "0x0f044ad03d4fb9e6d9d71ad4263217b07111c76847f99c16e010d771b5a5af62"
                    }
                ],
                "uncleHeaders" : [
                ]
            }
        ]
    }
}