{
    "randomStatetest280_d0g0v0_Berlin" : {
        "_info" : {
            "comment" : "",
            "filling-rpc-server" : "evm version 1.10.4-unstable-966ee3ae-20210528",
            "filling-tool-version" : "retesteth-0.1.1-eip1559+commit.658fc3a8.Linux.g++",
            "lllcversion" : "Version: 0.5.14-develop.2021.5.18+commit.14c9d5de.mod.Linux.g++",
            "source" : "src/GeneralStateTestsFiller/stRandom/randomStatetest280Filler.json",
            "sourceHash" : "2df4b644396bf15ae6e5fa3a40666cdd16f7ef3e60e2192a8d7058db0090b15b"
        },
        "genesisBlockHeader" : {
            "bloom" : "0x00000000000000000000000000000000000000000000000000000000000000000000000000000000000000000000000000000000000000000000000000000000000000000000000000000000000000000000000000000000000000000000000000000000000000000000000000000000000000000000000000000000000000000000000000000000000000000000000000000000000000000000000000000000000000000000000000000000000000000000000000000000000000000000000000000000000000000000000000000000000000000000000000000000000000000000000000000000000000000000000000000000000000000000000000000000",
            "coinbase" : "0x945304eb96065b2a98b57a48a06ae28d285a71b5",
            "difficulty" : "0x020000",
            "extraData" : "0x00",
            "gasLimit" : "0x7fffffffffffffff",
            "gasUsed" : "0x00",
            "hash" : "0x6fa28cb07f309f7ee6cb6ea5447e3ee89e363ba82f5e3d3d8ed3da4557112a57",
            "mixHash" : "0x0000000000000000000000000000000000000000000000000000000000000000",
            "nonce" : "0x0000000000000000",
            "number" : "0x00",
            "parentHash" : "0x0000000000000000000000000000000000000000000000000000000000000000",
            "receiptTrie" : "0x56e81f171bcc55a6ff8345e692c0f86e5b48e01b996cadc001622fb5e363b421",
            "stateRoot" : "0x46f13aed704fc880b6e8c2d45d538152f29aa617a7a639c2b0686501e389ae7f",
            "timestamp" : "0x00",
            "transactionsTrie" : "0x56e81f171bcc55a6ff8345e692c0f86e5b48e01b996cadc001622fb5e363b421",
            "uncleHash" : "0x1dcc4de8dec75d7aab85b567b6ccd41ad312451b948a7413f0a142fd40d49347"
        },
        "pre" : {
            "0x095e7baea6a6c7c4c2dfeb977efac326af552d87" : {
                "balance" : "0x00",
                "code" : "0x7f000000000000000000000000000000000000000000000000000000000000000143507f000000000000000000000000000000000000000000000000000000000000c350417f00000000000000000000000000000000000000000000000000000000000000006f423b3c407e7c6f16718668738d193cf260005155",
                "nonce" : "0x00",
                "storage" : {
                }
            },
            "0x945304eb96065b2a98b57a48a06ae28d285a71b5" : {
                "balance" : "0x2e",
                "code" : "0x6000355415600957005b60203560003555",
                "nonce" : "0x00",
                "storage" : {
                }
            },
            "0xa94f5374fce5edbc8e2a8697c15331677e6ebf0b" : {
                "balance" : "0x0de0b6b3a7640000",
                "code" : "0x",
                "nonce" : "0x00",
                "storage" : {
                }
            }
        },
        "postState" : {
            "0x095e7baea6a6c7c4c2dfeb977efac326af552d87" : {
                "code" : "0x7f000000000000000000000000000000000000000000000000000000000000000143507f000000000000000000000000000000000000000000000000000000000000c350417f00000000000000000000000000000000000000000000000000000000000000006f423b3c407e7c6f16718668738d193cf260005155",
                "nonce" : "0x00",
                "balance" : "0x303cdc5a",
                "storage" : {
                    "0x00" : "0x423b3c407e7c6f16718668738d193cf2"
                }
            },
            "0x945304eb96065b2a98b57a48a06ae28d285a71b5" : {
                "code" : "0x6000355415600957005b60203560003555",
                "nonce" : "0x00",
                "balance" : "0x1bc16d674eceb39c",
                "storage" : {
                }
            },
            "0xa94f5374fce5edbc8e2a8697c15331677e6ebf0b" : {
                "code" : "0x",
                "nonce" : "0x01",
                "balance" : "0x0de0b6b377207038",
                "storage" : {
                }
            }
        },
        "network" : "Berlin",
        "sealEngine" : "NoProof",
        "lastblockhash" : "0x3d3d660db7755873cd7803ef4db1965d30af7d10fd7780dda20b0d309a808f18",
        "genesisRLP" : "0xf901fdf901f8a00000000000000000000000000000000000000000000000000000000000000000a01dcc4de8dec75d7aab85b567b6ccd41ad312451b948a7413f0a142fd40d4934794945304eb96065b2a98b57a48a06ae28d285a71b5a046f13aed704fc880b6e8c2d45d538152f29aa617a7a639c2b0686501e389ae7fa056e81f171bcc55a6ff8345e692c0f86e5b48e01b996cadc001622fb5e363b421a056e81f171bcc55a6ff8345e692c0f86e5b48e01b996cadc001622fb5e363b421b90100000000000000000000000000000000000000000000000000000000000000000000000000000000000000000000000000000000000000000000000000000000000000000000000000000000000000000000000000000000000000000000000000000000000000000000000000000000000000000000000000000000000000000000000000000000000000000000000000000000000000000000000000000000000000000000000000000000000000000000000000000000000000000000000000000000000000000000000000000000000000000000000000000000000000000000000000000000000000000000000000000000000000000000000000000000008302000080887fffffffffffffff808000a00000000000000000000000000000000000000000000000000000000000000000880000000000000000c0c0",
        "blocks" : [
            {
                "rlp" : "0xf902e1f901fca06fa28cb07f309f7ee6cb6ea5447e3ee89e363ba82f5e3d3d8ed3da4557112a57a01dcc4de8dec75d7aab85b567b6ccd41ad312451b948a7413f0a142fd40d4934794945304eb96065b2a98b57a48a06ae28d285a71b5a0f7cba3ba6665312675a1ed89198ac6ff4ed7d2d887eacf7760bc0c3e7d1d561ea0ceb58fe3044857513921a107e027e86e3a30f3dec15268af0388c13f2aba9878a03c09e4d15d949a740aa157d4b3b4f57706b2d7a1b7795fb7114dfadd0dbdb990b90100000000000000000000000000000000000000000000000000000000000000000000000000000000000000000000000000000000000000000000000000000000000000000000000000000000000000000000000000000000000000000000000000000000000000000000000000000000000000000000000000000000000000000000000000000000000000000000000000000000000000000000000000000000000000000000000000000000000000000000000000000000000000000000000000000000000000000000000000000000000000000000000000000000000000000000000000000000000000000000000000000000000000000000000000000000008302000001887fffffffffffffff82ab8b8203e800a00000000000000000000000000000000000000000000000000000000000000000880000000000000000f8dff8dd800a842db9c36994095e7baea6a6c7c4c2dfeb977efac326af552d8784303cdc5ab8777f000000000000000000000000000000000000000000000000000000000000000143507f000000000000000000000000000000000000000000000000000000000000c350417f00000000000000000000000000000000000000000000000000000000000000006f423b3c407e7c6f16718668738d193cf21ca0d2b8785f8e691ac846965585637a88b474794405fc0cef90094bbf6a57770536a07de472ac85d78d59b79fb43d2eca4491e4a850358a116f6f79ad6a2cdde62fc2c0",
                "blockHeader" : {
                    "bloom" : "0x00000000000000000000000000000000000000000000000000000000000000000000000000000000000000000000000000000000000000000000000000000000000000000000000000000000000000000000000000000000000000000000000000000000000000000000000000000000000000000000000000000000000000000000000000000000000000000000000000000000000000000000000000000000000000000000000000000000000000000000000000000000000000000000000000000000000000000000000000000000000000000000000000000000000000000000000000000000000000000000000000000000000000000000000000000000",
                    "coinbase" : "0x945304eb96065b2a98b57a48a06ae28d285a71b5",
                    "difficulty" : "0x020000",
                    "extraData" : "0x00",
                    "gasLimit" : "0x7fffffffffffffff",
                    "gasUsed" : "0xab8b",
                    "hash" : "0x3d3d660db7755873cd7803ef4db1965d30af7d10fd7780dda20b0d309a808f18",
                    "mixHash" : "0x0000000000000000000000000000000000000000000000000000000000000000",
                    "nonce" : "0x0000000000000000",
                    "number" : "0x01",
                    "parentHash" : "0x6fa28cb07f309f7ee6cb6ea5447e3ee89e363ba82f5e3d3d8ed3da4557112a57",
                    "receiptTrie" : "0x3c09e4d15d949a740aa157d4b3b4f57706b2d7a1b7795fb7114dfadd0dbdb990",
                    "stateRoot" : "0xf7cba3ba6665312675a1ed89198ac6ff4ed7d2d887eacf7760bc0c3e7d1d561e",
                    "timestamp" : "0x03e8",
                    "transactionsTrie" : "0xceb58fe3044857513921a107e027e86e3a30f3dec15268af0388c13f2aba9878",
                    "uncleHash" : "0x1dcc4de8dec75d7aab85b567b6ccd41ad312451b948a7413f0a142fd40d49347"
                },
                "transactions" : [
                    {
                        "data" : "0x7f000000000000000000000000000000000000000000000000000000000000000143507f000000000000000000000000000000000000000000000000000000000000c350417f00000000000000000000000000000000000000000000000000000000000000006f423b3c407e7c6f16718668738d193cf2",
                        "gasLimit" : "0x2db9c369",
                        "gasPrice" : "0x0a",
                        "nonce" : "0x00",
                        "to" : "0x095e7baea6a6c7c4c2dfeb977efac326af552d87",
                        "value" : "0x303cdc5a",
                        "v" : "0x1c",
                        "r" : "0xd2b8785f8e691ac846965585637a88b474794405fc0cef90094bbf6a57770536",
                        "s" : "0x7de472ac85d78d59b79fb43d2eca4491e4a850358a116f6f79ad6a2cdde62fc2"
                    }
                ],
                "uncleHeaders" : [
                ]
            }
        ]
    },
    "randomStatetest280_d0g0v0_Istanbul" : {
        "_info" : {
            "comment" : "",
            "filling-rpc-server" : "evm version 1.10.4-unstable-966ee3ae-20210528",
            "filling-tool-version" : "retesteth-0.1.1-eip1559+commit.658fc3a8.Linux.g++",
            "lllcversion" : "Version: 0.5.14-develop.2021.5.18+commit.14c9d5de.mod.Linux.g++",
            "source" : "src/GeneralStateTestsFiller/stRandom/randomStatetest280Filler.json",
            "sourceHash" : "2df4b644396bf15ae6e5fa3a40666cdd16f7ef3e60e2192a8d7058db0090b15b"
        },
        "genesisBlockHeader" : {
            "bloom" : "0x00000000000000000000000000000000000000000000000000000000000000000000000000000000000000000000000000000000000000000000000000000000000000000000000000000000000000000000000000000000000000000000000000000000000000000000000000000000000000000000000000000000000000000000000000000000000000000000000000000000000000000000000000000000000000000000000000000000000000000000000000000000000000000000000000000000000000000000000000000000000000000000000000000000000000000000000000000000000000000000000000000000000000000000000000000000",
            "coinbase" : "0x945304eb96065b2a98b57a48a06ae28d285a71b5",
            "difficulty" : "0x020000",
            "extraData" : "0x00",
            "gasLimit" : "0x7fffffffffffffff",
            "gasUsed" : "0x00",
            "hash" : "0x6fa28cb07f309f7ee6cb6ea5447e3ee89e363ba82f5e3d3d8ed3da4557112a57",
            "mixHash" : "0x0000000000000000000000000000000000000000000000000000000000000000",
            "nonce" : "0x0000000000000000",
            "number" : "0x00",
            "parentHash" : "0x0000000000000000000000000000000000000000000000000000000000000000",
            "receiptTrie" : "0x56e81f171bcc55a6ff8345e692c0f86e5b48e01b996cadc001622fb5e363b421",
            "stateRoot" : "0x46f13aed704fc880b6e8c2d45d538152f29aa617a7a639c2b0686501e389ae7f",
            "timestamp" : "0x00",
            "transactionsTrie" : "0x56e81f171bcc55a6ff8345e692c0f86e5b48e01b996cadc001622fb5e363b421",
            "uncleHash" : "0x1dcc4de8dec75d7aab85b567b6ccd41ad312451b948a7413f0a142fd40d49347"
        },
        "pre" : {
            "0x095e7baea6a6c7c4c2dfeb977efac326af552d87" : {
                "balance" : "0x00",
                "code" : "0x7f000000000000000000000000000000000000000000000000000000000000000143507f000000000000000000000000000000000000000000000000000000000000c350417f00000000000000000000000000000000000000000000000000000000000000006f423b3c407e7c6f16718668738d193cf260005155",
                "nonce" : "0x00",
                "storage" : {
                }
            },
            "0x945304eb96065b2a98b57a48a06ae28d285a71b5" : {
                "balance" : "0x2e",
                "code" : "0x6000355415600957005b60203560003555",
                "nonce" : "0x00",
                "storage" : {
                }
            },
            "0xa94f5374fce5edbc8e2a8697c15331677e6ebf0b" : {
                "balance" : "0x0de0b6b3a7640000",
                "code" : "0x",
                "nonce" : "0x00",
                "storage" : {
                }
            }
        },
        "postState" : {
            "0x095e7baea6a6c7c4c2dfeb977efac326af552d87" : {
                "code" : "0x7f000000000000000000000000000000000000000000000000000000000000000143507f000000000000000000000000000000000000000000000000000000000000c350417f00000000000000000000000000000000000000000000000000000000000000006f423b3c407e7c6f16718668738d193cf260005155",
                "nonce" : "0x00",
                "balance" : "0x303cdc5a",
                "storage" : {
                    "0x00" : "0x423b3c407e7c6f16718668738d193cf2"
                }
            },
            "0x945304eb96065b2a98b57a48a06ae28d285a71b5" : {
                "code" : "0x6000355415600957005b60203560003555",
                "nonce" : "0x00",
                "balance" : "0x1bc16d674ece6194",
                "storage" : {
                }
            },
            "0xa94f5374fce5edbc8e2a8697c15331677e6ebf0b" : {
                "code" : "0x",
                "nonce" : "0x01",
                "balance" : "0x0de0b6b37720c240",
                "storage" : {
                }
            }
        },
        "network" : "Istanbul",
        "sealEngine" : "NoProof",
        "lastblockhash" : "0x2f434df48a5853c0de80a5378f94ab98deb066ed9c3c081be4553d3c5a8ae9e0",
        "genesisRLP" : "0xf901fdf901f8a00000000000000000000000000000000000000000000000000000000000000000a01dcc4de8dec75d7aab85b567b6ccd41ad312451b948a7413f0a142fd40d4934794945304eb96065b2a98b57a48a06ae28d285a71b5a046f13aed704fc880b6e8c2d45d538152f29aa617a7a639c2b0686501e389ae7fa056e81f171bcc55a6ff8345e692c0f86e5b48e01b996cadc001622fb5e363b421a056e81f171bcc55a6ff8345e692c0f86e5b48e01b996cadc001622fb5e363b421b90100000000000000000000000000000000000000000000000000000000000000000000000000000000000000000000000000000000000000000000000000000000000000000000000000000000000000000000000000000000000000000000000000000000000000000000000000000000000000000000000000000000000000000000000000000000000000000000000000000000000000000000000000000000000000000000000000000000000000000000000000000000000000000000000000000000000000000000000000000000000000000000000000000000000000000000000000000000000000000000000000000000000000000000000000000000008302000080887fffffffffffffff808000a00000000000000000000000000000000000000000000000000000000000000000880000000000000000c0c0",
        "blocks" : [
            {
                "rlp" : "0xf902e1f901fca06fa28cb07f309f7ee6cb6ea5447e3ee89e363ba82f5e3d3d8ed3da4557112a57a01dcc4de8dec75d7aab85b567b6ccd41ad312451b948a7413f0a142fd40d4934794945304eb96065b2a98b57a48a06ae28d285a71b5a0d210115ea0aed88d85696d148c670fd712082d592e7d74f6a20d13848685a198a0ceb58fe3044857513921a107e027e86e3a30f3dec15268af0388c13f2aba9878a0ffd35ec94565dff3ff737c3b862ce1c42fa3aa81ba7a9f26119868c21ce95ef3b90100000000000000000000000000000000000000000000000000000000000000000000000000000000000000000000000000000000000000000000000000000000000000000000000000000000000000000000000000000000000000000000000000000000000000000000000000000000000000000000000000000000000000000000000000000000000000000000000000000000000000000000000000000000000000000000000000000000000000000000000000000000000000000000000000000000000000000000000000000000000000000000000000000000000000000000000000000000000000000000000000000000000000000000000000000000008302000001887fffffffffffffff82a3578203e800a00000000000000000000000000000000000000000000000000000000000000000880000000000000000f8dff8dd800a842db9c36994095e7baea6a6c7c4c2dfeb977efac326af552d8784303cdc5ab8777f000000000000000000000000000000000000000000000000000000000000000143507f000000000000000000000000000000000000000000000000000000000000c350417f00000000000000000000000000000000000000000000000000000000000000006f423b3c407e7c6f16718668738d193cf21ca0d2b8785f8e691ac846965585637a88b474794405fc0cef90094bbf6a57770536a07de472ac85d78d59b79fb43d2eca4491e4a850358a116f6f79ad6a2cdde62fc2c0",
                "blockHeader" : {
                    "bloom" : "0x00000000000000000000000000000000000000000000000000000000000000000000000000000000000000000000000000000000000000000000000000000000000000000000000000000000000000000000000000000000000000000000000000000000000000000000000000000000000000000000000000000000000000000000000000000000000000000000000000000000000000000000000000000000000000000000000000000000000000000000000000000000000000000000000000000000000000000000000000000000000000000000000000000000000000000000000000000000000000000000000000000000000000000000000000000000",
                    "coinbase" : "0x945304eb96065b2a98b57a48a06ae28d285a71b5",
                    "difficulty" : "0x020000",
                    "extraData" : "0x00",
                    "gasLimit" : "0x7fffffffffffffff",
                    "gasUsed" : "0xa357",
                    "hash" : "0x2f434df48a5853c0de80a5378f94ab98deb066ed9c3c081be4553d3c5a8ae9e0",
                    "mixHash" : "0x0000000000000000000000000000000000000000000000000000000000000000",
                    "nonce" : "0x0000000000000000",
                    "number" : "0x01",
                    "parentHash" : "0x6fa28cb07f309f7ee6cb6ea5447e3ee89e363ba82f5e3d3d8ed3da4557112a57",
                    "receiptTrie" : "0xffd35ec94565dff3ff737c3b862ce1c42fa3aa81ba7a9f26119868c21ce95ef3",
                    "stateRoot" : "0xd210115ea0aed88d85696d148c670fd712082d592e7d74f6a20d13848685a198",
                    "timestamp" : "0x03e8",
                    "transactionsTrie" : "0xceb58fe3044857513921a107e027e86e3a30f3dec15268af0388c13f2aba9878",
                    "uncleHash" : "0x1dcc4de8dec75d7aab85b567b6ccd41ad312451b948a7413f0a142fd40d49347"
                },
                "transactions" : [
                    {
                        "data" : "0x7f000000000000000000000000000000000000000000000000000000000000000143507f000000000000000000000000000000000000000000000000000000000000c350417f00000000000000000000000000000000000000000000000000000000000000006f423b3c407e7c6f16718668738d193cf2",
                        "gasLimit" : "0x2db9c369",
                        "gasPrice" : "0x0a",
                        "nonce" : "0x00",
                        "to" : "0x095e7baea6a6c7c4c2dfeb977efac326af552d87",
                        "value" : "0x303cdc5a",
                        "v" : "0x1c",
                        "r" : "0xd2b8785f8e691ac846965585637a88b474794405fc0cef90094bbf6a57770536",
                        "s" : "0x7de472ac85d78d59b79fb43d2eca4491e4a850358a116f6f79ad6a2cdde62fc2"
                    }
                ],
                "uncleHeaders" : [
                ]
            }
        ]
    },
    "randomStatetest280_d0g0v0_London" : {
        "_info" : {
            "comment" : "",
            "filling-rpc-server" : "evm version 1.10.4-unstable-966ee3ae-20210528",
            "filling-tool-version" : "retesteth-0.1.1-eip1559+commit.658fc3a8.Linux.g++",
            "lllcversion" : "Version: 0.5.14-develop.2021.5.18+commit.14c9d5de.mod.Linux.g++",
            "source" : "src/GeneralStateTestsFiller/stRandom/randomStatetest280Filler.json",
            "sourceHash" : "2df4b644396bf15ae6e5fa3a40666cdd16f7ef3e60e2192a8d7058db0090b15b"
        },
        "genesisBlockHeader" : {
            "bloom" : "0x00000000000000000000000000000000000000000000000000000000000000000000000000000000000000000000000000000000000000000000000000000000000000000000000000000000000000000000000000000000000000000000000000000000000000000000000000000000000000000000000000000000000000000000000000000000000000000000000000000000000000000000000000000000000000000000000000000000000000000000000000000000000000000000000000000000000000000000000000000000000000000000000000000000000000000000000000000000000000000000000000000000000000000000000000000000",
            "coinbase" : "0x945304eb96065b2a98b57a48a06ae28d285a71b5",
            "difficulty" : "0x020000",
            "extraData" : "0x00",
            "gasLimit" : "0x7fffffffffffffff",
            "gasUsed" : "0x00",
            "hash" : "0x020e881ccb771588ce440caad12cdbdb7071229094ed3cb24a62e95faf6ab2ca",
            "mixHash" : "0x0000000000000000000000000000000000000000000000000000000000000000",
            "nonce" : "0x0000000000000000",
            "number" : "0x00",
            "parentHash" : "0x0000000000000000000000000000000000000000000000000000000000000000",
            "receiptTrie" : "0x56e81f171bcc55a6ff8345e692c0f86e5b48e01b996cadc001622fb5e363b421",
            "stateRoot" : "0x46f13aed704fc880b6e8c2d45d538152f29aa617a7a639c2b0686501e389ae7f",
            "timestamp" : "0x00",
            "transactionsTrie" : "0x56e81f171bcc55a6ff8345e692c0f86e5b48e01b996cadc001622fb5e363b421",
            "uncleHash" : "0x1dcc4de8dec75d7aab85b567b6ccd41ad312451b948a7413f0a142fd40d49347",
            "baseFee" : "0x0b"
        },
        "pre" : {
            "0x095e7baea6a6c7c4c2dfeb977efac326af552d87" : {
                "balance" : "0x00",
                "code" : "0x7f000000000000000000000000000000000000000000000000000000000000000143507f000000000000000000000000000000000000000000000000000000000000c350417f00000000000000000000000000000000000000000000000000000000000000006f423b3c407e7c6f16718668738d193cf260005155",
                "nonce" : "0x00",
                "storage" : {
                }
            },
            "0x945304eb96065b2a98b57a48a06ae28d285a71b5" : {
                "balance" : "0x2e",
                "code" : "0x6000355415600957005b60203560003555",
                "nonce" : "0x00",
                "storage" : {
                }
            },
            "0xa94f5374fce5edbc8e2a8697c15331677e6ebf0b" : {
                "balance" : "0x0de0b6b3a7640000",
                "code" : "0x",
                "nonce" : "0x00",
                "storage" : {
                }
            }
        },
        "postState" : {
            "0x095e7baea6a6c7c4c2dfeb977efac326af552d87" : {
                "code" : "0x7f000000000000000000000000000000000000000000000000000000000000000143507f000000000000000000000000000000000000000000000000000000000000c350417f00000000000000000000000000000000000000000000000000000000000000006f423b3c407e7c6f16718668738d193cf260005155",
                "nonce" : "0x00",
                "balance" : "0x303cdc5a",
                "storage" : {
                    "0x00" : "0x423b3c407e7c6f16718668738d193cf2"
                }
            },
            "0x945304eb96065b2a98b57a48a06ae28d285a71b5" : {
                "code" : "0x6000355415600957005b60203560003555",
                "nonce" : "0x00",
                "balance" : "0x1bc16d674ec8002e",
                "storage" : {
                }
            },
            "0xa94f5374fce5edbc8e2a8697c15331677e6ebf0b" : {
                "code" : "0x",
                "nonce" : "0x01",
                "balance" : "0x0de0b6b377207038",
                "storage" : {
                }
            }
        },
        "network" : "London",
        "sealEngine" : "NoProof",
        "lastblockhash" : "0x6168f658480983855ae6fdafa7fd2ef596a846a7e6bb6fb15597981f81beeb98",
        "genesisRLP" : "0xf901fef901f9a00000000000000000000000000000000000000000000000000000000000000000a01dcc4de8dec75d7aab85b567b6ccd41ad312451b948a7413f0a142fd40d4934794945304eb96065b2a98b57a48a06ae28d285a71b5a046f13aed704fc880b6e8c2d45d538152f29aa617a7a639c2b0686501e389ae7fa056e81f171bcc55a6ff8345e692c0f86e5b48e01b996cadc001622fb5e363b421a056e81f171bcc55a6ff8345e692c0f86e5b48e01b996cadc001622fb5e363b421b90100000000000000000000000000000000000000000000000000000000000000000000000000000000000000000000000000000000000000000000000000000000000000000000000000000000000000000000000000000000000000000000000000000000000000000000000000000000000000000000000000000000000000000000000000000000000000000000000000000000000000000000000000000000000000000000000000000000000000000000000000000000000000000000000000000000000000000000000000000000000000000000000000000000000000000000000000000000000000000000000000000000000000000000000000000000008302000080887fffffffffffffff808000a000000000000000000000000000000000000000000000000000000000000000008800000000000000000bc0c0",
        "blocks" : [
            {
                "rlp" : "0xf902e2f901fda0020e881ccb771588ce440caad12cdbdb7071229094ed3cb24a62e95faf6ab2caa01dcc4de8dec75d7aab85b567b6ccd41ad312451b948a7413f0a142fd40d4934794945304eb96065b2a98b57a48a06ae28d285a71b5a0dd63984652216426cadf9de42a84b689fa4641acbe2636925e5e817688468f28a0ceb58fe3044857513921a107e027e86e3a30f3dec15268af0388c13f2aba9878a03c09e4d15d949a740aa157d4b3b4f57706b2d7a1b7795fb7114dfadd0dbdb990b90100000000000000000000000000000000000000000000000000000000000000000000000000000000000000000000000000000000000000000000000000000000000000000000000000000000000000000000000000000000000000000000000000000000000000000000000000000000000000000000000000000000000000000000000000000000000000000000000000000000000000000000000000000000000000000000000000000000000000000000000000000000000000000000000000000000000000000000000000000000000000000000000000000000000000000000000000000000000000000000000000000000000000000000000000000000008302000001887fffffffffffffff82ab8b8203e800a000000000000000000000000000000000000000000000000000000000000000008800000000000000000af8dff8dd800a842db9c36994095e7baea6a6c7c4c2dfeb977efac326af552d8784303cdc5ab8777f000000000000000000000000000000000000000000000000000000000000000143507f000000000000000000000000000000000000000000000000000000000000c350417f00000000000000000000000000000000000000000000000000000000000000006f423b3c407e7c6f16718668738d193cf21ca0d2b8785f8e691ac846965585637a88b474794405fc0cef90094bbf6a57770536a07de472ac85d78d59b79fb43d2eca4491e4a850358a116f6f79ad6a2cdde62fc2c0",
                "blockHeader" : {
                    "bloom" : "0x00000000000000000000000000000000000000000000000000000000000000000000000000000000000000000000000000000000000000000000000000000000000000000000000000000000000000000000000000000000000000000000000000000000000000000000000000000000000000000000000000000000000000000000000000000000000000000000000000000000000000000000000000000000000000000000000000000000000000000000000000000000000000000000000000000000000000000000000000000000000000000000000000000000000000000000000000000000000000000000000000000000000000000000000000000000",
                    "coinbase" : "0x945304eb96065b2a98b57a48a06ae28d285a71b5",
                    "difficulty" : "0x020000",
                    "extraData" : "0x00",
                    "gasLimit" : "0x7fffffffffffffff",
                    "gasUsed" : "0xab8b",
                    "hash" : "0x6168f658480983855ae6fdafa7fd2ef596a846a7e6bb6fb15597981f81beeb98",
                    "mixHash" : "0x0000000000000000000000000000000000000000000000000000000000000000",
                    "nonce" : "0x0000000000000000",
                    "number" : "0x01",
                    "parentHash" : "0x020e881ccb771588ce440caad12cdbdb7071229094ed3cb24a62e95faf6ab2ca",
                    "receiptTrie" : "0x3c09e4d15d949a740aa157d4b3b4f57706b2d7a1b7795fb7114dfadd0dbdb990",
                    "stateRoot" : "0xdd63984652216426cadf9de42a84b689fa4641acbe2636925e5e817688468f28",
                    "timestamp" : "0x03e8",
                    "transactionsTrie" : "0xceb58fe3044857513921a107e027e86e3a30f3dec15268af0388c13f2aba9878",
                    "uncleHash" : "0x1dcc4de8dec75d7aab85b567b6ccd41ad312451b948a7413f0a142fd40d49347",
                    "baseFee" : "0x0a"
                },
                "transactions" : [
                    {
                        "data" : "0x7f000000000000000000000000000000000000000000000000000000000000000143507f000000000000000000000000000000000000000000000000000000000000c350417f00000000000000000000000000000000000000000000000000000000000000006f423b3c407e7c6f16718668738d193cf2",
                        "gasLimit" : "0x2db9c369",
                        "gasPrice" : "0x0a",
                        "nonce" : "0x00",
                        "to" : "0x095e7baea6a6c7c4c2dfeb977efac326af552d87",
                        "value" : "0x303cdc5a",
                        "v" : "0x1c",
                        "r" : "0xd2b8785f8e691ac846965585637a88b474794405fc0cef90094bbf6a57770536",
                        "s" : "0x7de472ac85d78d59b79fb43d2eca4491e4a850358a116f6f79ad6a2cdde62fc2"
                    }
                ],
                "uncleHeaders" : [
                ]
            }
        ]
    }
}