{
    "randomStatetest19_d0g0v0_Berlin" : {
        "_info" : {
            "comment" : "",
            "filling-rpc-server" : "evm version 1.10.4-unstable-966ee3ae-20210528",
            "filling-tool-version" : "retesteth-0.1.1-eip1559+commit.658fc3a8.Linux.g++",
            "lllcversion" : "Version: 0.5.14-develop.2021.5.18+commit.14c9d5de.mod.Linux.g++",
            "source" : "src/GeneralStateTestsFiller/stRandom/randomStatetest19Filler.json",
            "sourceHash" : "5f19fd6175fb4d6d3ae8ecb83fe89b3edf3bcb7c6d86c1e7ba00126e768087d1"
        },
        "genesisBlockHeader" : {
            "bloom" : "0x00000000000000000000000000000000000000000000000000000000000000000000000000000000000000000000000000000000000000000000000000000000000000000000000000000000000000000000000000000000000000000000000000000000000000000000000000000000000000000000000000000000000000000000000000000000000000000000000000000000000000000000000000000000000000000000000000000000000000000000000000000000000000000000000000000000000000000000000000000000000000000000000000000000000000000000000000000000000000000000000000000000000000000000000000000000",
            "coinbase" : "0x945304eb96065b2a98b57a48a06ae28d285a71b5",
            "difficulty" : "0x020000",
            "extraData" : "0x00",
            "gasLimit" : "0x7fffffffffffffff",
            "gasUsed" : "0x00",
            "hash" : "0xa8d0cc709acaa32b84bee5b817b06a3943102f0968a8c24ea6eaca9cf79ada81",
            "mixHash" : "0x0000000000000000000000000000000000000000000000000000000000000000",
            "nonce" : "0x0000000000000000",
            "number" : "0x00",
            "parentHash" : "0x0000000000000000000000000000000000000000000000000000000000000000",
            "receiptTrie" : "0x56e81f171bcc55a6ff8345e692c0f86e5b48e01b996cadc001622fb5e363b421",
            "stateRoot" : "0x5c5f81c79e0889933ebd6554c08c81cb5a2b96dfa153ba20a20d20b8a4073cb2",
            "timestamp" : "0x00",
            "transactionsTrie" : "0x56e81f171bcc55a6ff8345e692c0f86e5b48e01b996cadc001622fb5e363b421",
            "uncleHash" : "0x1dcc4de8dec75d7aab85b567b6ccd41ad312451b948a7413f0a142fd40d49347"
        },
        "pre" : {
            "0x095e7baea6a6c7c4c2dfeb977efac326af552d87" : {
                "balance" : "0x00",
                "code" : "0x7ffffffffffffffffffffffffffffffffffffffffffffffffffffffffffffffffe3a7f000000000000000000000000ffffffffffffffffffffffffffffffffffffffff7ffffffffffffffffffffffffffffffffffffffffffffffffffffffffffffffffe417f0000000000000000000000000000000000000000000000000000000000000001587f000000000000000000000000000000000000000000000000000000000000c3506fff59876660063b7c8df1ff088a84145560005155",
                "nonce" : "0x00",
                "storage" : {
                }
            },
            "0x945304eb96065b2a98b57a48a06ae28d285a71b5" : {
                "balance" : "0x2e",
                "code" : "0x6000355415600957005b60203560003555",
                "nonce" : "0x00",
                "storage" : {
                }
            },
            "0xa94f5374fce5edbc8e2a8697c15331677e6ebf0b" : {
                "balance" : "0x0de0b6b3a7640000",
                "code" : "0x",
                "nonce" : "0x00",
                "storage" : {
                }
            }
        },
        "postState" : {
            "0x095e7baea6a6c7c4c2dfeb977efac326af552d87" : {
                "code" : "0x7ffffffffffffffffffffffffffffffffffffffffffffffffffffffffffffffffe3a7f000000000000000000000000ffffffffffffffffffffffffffffffffffffffff7ffffffffffffffffffffffffffffffffffffffffffffffffffffffffffffffffe417f0000000000000000000000000000000000000000000000000000000000000001587f000000000000000000000000000000000000000000000000000000000000c3506fff59876660063b7c8df1ff088a84145560005155",
                "nonce" : "0x00",
                "balance" : "0x1dcd74de",
                "storage" : {
                    "0x00" : "0xff59876660063b7c8df1ff088a841455"
                }
            },
            "0x945304eb96065b2a98b57a48a06ae28d285a71b5" : {
                "code" : "0x6000355415600957005b60203560003555",
                "nonce" : "0x00",
                "balance" : "0x1bc16d674ecee5d8",
                "storage" : {
                }
            },
            "0xa94f5374fce5edbc8e2a8697c15331677e6ebf0b" : {
                "code" : "0x",
                "nonce" : "0x01",
                "balance" : "0x0de0b6b3898fa578",
                "storage" : {
                }
            }
        },
        "network" : "Berlin",
        "sealEngine" : "NoProof",
        "lastblockhash" : "0xb31065b68963cf8b0f2d287b2b0b297108e851f955edcb59f96c7353e0b3856f",
        "genesisRLP" : "0xf901fdf901f8a00000000000000000000000000000000000000000000000000000000000000000a01dcc4de8dec75d7aab85b567b6ccd41ad312451b948a7413f0a142fd40d4934794945304eb96065b2a98b57a48a06ae28d285a71b5a05c5f81c79e0889933ebd6554c08c81cb5a2b96dfa153ba20a20d20b8a4073cb2a056e81f171bcc55a6ff8345e692c0f86e5b48e01b996cadc001622fb5e363b421a056e81f171bcc55a6ff8345e692c0f86e5b48e01b996cadc001622fb5e363b421b90100000000000000000000000000000000000000000000000000000000000000000000000000000000000000000000000000000000000000000000000000000000000000000000000000000000000000000000000000000000000000000000000000000000000000000000000000000000000000000000000000000000000000000000000000000000000000000000000000000000000000000000000000000000000000000000000000000000000000000000000000000000000000000000000000000000000000000000000000000000000000000000000000000000000000000000000000000000000000000000000000000000000000000000000000000000008302000080887fffffffffffffff808000a00000000000000000000000000000000000000000000000000000000000000000880000000000000000c0c0",
        "blocks" : [
            {
                "rlp" : "0xf90324f901fca0a8d0cc709acaa32b84bee5b817b06a3943102f0968a8c24ea6eaca9cf79ada81a01dcc4de8dec75d7aab85b567b6ccd41ad312451b948a7413f0a142fd40d4934794945304eb96065b2a98b57a48a06ae28d285a71b5a0ba4c9cbbec6418c55df6a24069380584db5511d5ccb48fb607c1e401b37fd26da0c3143c5c2fc01553cc4ee2e20509a66024b201ba43d06c1086afceb548fb5a73a045ed59bad411833118c6c364b2712ebacaa131e32a5306da8d6d193f4aeda77cb90100000000000000000000000000000000000000000000000000000000000000000000000000000000000000000000000000000000000000000000000000000000000000000000000000000000000000000000000000000000000000000000000000000000000000000000000000000000000000000000000000000000000000000000000000000000000000000000000000000000000000000000000000000000000000000000000000000000000000000000000000000000000000000000000000000000000000000000000000000000000000000000000000000000000000000000000000000000000000000000000000000000000000000000000000000000008302000001887fffffffffffffff82b0918203e800a00000000000000000000000000000000000000000000000000000000000000000880000000000000000f90121f9011e800a846d92971694095e7baea6a6c7c4c2dfeb977efac326af552d87841dcd74deb8b87ffffffffffffffffffffffffffffffffffffffffffffffffffffffffffffffffe3a7f000000000000000000000000ffffffffffffffffffffffffffffffffffffffff7ffffffffffffffffffffffffffffffffffffffffffffffffffffffffffffffffe417f0000000000000000000000000000000000000000000000000000000000000001587f000000000000000000000000000000000000000000000000000000000000c3506fff59876660063b7c8df1ff088a84141ba0c634f86b9ccb1b07e8426701d2adfbcc9dbc21b3cbf3677de6764a65cd170defa0126b38767b12ffd3d69a9f9009c78a2be49ed4a54307d4d6eda1fe925b22f775c0",
                "blockHeader" : {
                    "bloom" : "0x00000000000000000000000000000000000000000000000000000000000000000000000000000000000000000000000000000000000000000000000000000000000000000000000000000000000000000000000000000000000000000000000000000000000000000000000000000000000000000000000000000000000000000000000000000000000000000000000000000000000000000000000000000000000000000000000000000000000000000000000000000000000000000000000000000000000000000000000000000000000000000000000000000000000000000000000000000000000000000000000000000000000000000000000000000000",
                    "coinbase" : "0x945304eb96065b2a98b57a48a06ae28d285a71b5",
                    "difficulty" : "0x020000",
                    "extraData" : "0x00",
                    "gasLimit" : "0x7fffffffffffffff",
                    "gasUsed" : "0xb091",
                    "hash" : "0xb31065b68963cf8b0f2d287b2b0b297108e851f955edcb59f96c7353e0b3856f",
                    "mixHash" : "0x0000000000000000000000000000000000000000000000000000000000000000",
                    "nonce" : "0x0000000000000000",
                    "number" : "0x01",
                    "parentHash" : "0xa8d0cc709acaa32b84bee5b817b06a3943102f0968a8c24ea6eaca9cf79ada81",
                    "receiptTrie" : "0x45ed59bad411833118c6c364b2712ebacaa131e32a5306da8d6d193f4aeda77c",
                    "stateRoot" : "0xba4c9cbbec6418c55df6a24069380584db5511d5ccb48fb607c1e401b37fd26d",
                    "timestamp" : "0x03e8",
                    "transactionsTrie" : "0xc3143c5c2fc01553cc4ee2e20509a66024b201ba43d06c1086afceb548fb5a73",
                    "uncleHash" : "0x1dcc4de8dec75d7aab85b567b6ccd41ad312451b948a7413f0a142fd40d49347"
                },
                "transactions" : [
                    {
                        "data" : "0x7ffffffffffffffffffffffffffffffffffffffffffffffffffffffffffffffffe3a7f000000000000000000000000ffffffffffffffffffffffffffffffffffffffff7ffffffffffffffffffffffffffffffffffffffffffffffffffffffffffffffffe417f0000000000000000000000000000000000000000000000000000000000000001587f000000000000000000000000000000000000000000000000000000000000c3506fff59876660063b7c8df1ff088a8414",
                        "gasLimit" : "0x6d929716",
                        "gasPrice" : "0x0a",
                        "nonce" : "0x00",
                        "to" : "0x095e7baea6a6c7c4c2dfeb977efac326af552d87",
                        "value" : "0x1dcd74de",
                        "v" : "0x1b",
                        "r" : "0xc634f86b9ccb1b07e8426701d2adfbcc9dbc21b3cbf3677de6764a65cd170def",
                        "s" : "0x126b38767b12ffd3d69a9f9009c78a2be49ed4a54307d4d6eda1fe925b22f775"
                    }
                ],
                "uncleHeaders" : [
                ]
            }
        ]
    },
    "randomStatetest19_d0g0v0_Istanbul" : {
        "_info" : {
            "comment" : "",
            "filling-rpc-server" : "evm version 1.10.4-unstable-966ee3ae-20210528",
            "filling-tool-version" : "retesteth-0.1.1-eip1559+commit.658fc3a8.Linux.g++",
            "lllcversion" : "Version: 0.5.14-develop.2021.5.18+commit.14c9d5de.mod.Linux.g++",
            "source" : "src/GeneralStateTestsFiller/stRandom/randomStatetest19Filler.json",
            "sourceHash" : "5f19fd6175fb4d6d3ae8ecb83fe89b3edf3bcb7c6d86c1e7ba00126e768087d1"
        },
        "genesisBlockHeader" : {
            "bloom" : "0x00000000000000000000000000000000000000000000000000000000000000000000000000000000000000000000000000000000000000000000000000000000000000000000000000000000000000000000000000000000000000000000000000000000000000000000000000000000000000000000000000000000000000000000000000000000000000000000000000000000000000000000000000000000000000000000000000000000000000000000000000000000000000000000000000000000000000000000000000000000000000000000000000000000000000000000000000000000000000000000000000000000000000000000000000000000",
            "coinbase" : "0x945304eb96065b2a98b57a48a06ae28d285a71b5",
            "difficulty" : "0x020000",
            "extraData" : "0x00",
            "gasLimit" : "0x7fffffffffffffff",
            "gasUsed" : "0x00",
            "hash" : "0xa8d0cc709acaa32b84bee5b817b06a3943102f0968a8c24ea6eaca9cf79ada81",
            "mixHash" : "0x0000000000000000000000000000000000000000000000000000000000000000",
            "nonce" : "0x0000000000000000",
            "number" : "0x00",
            "parentHash" : "0x0000000000000000000000000000000000000000000000000000000000000000",
            "receiptTrie" : "0x56e81f171bcc55a6ff8345e692c0f86e5b48e01b996cadc001622fb5e363b421",
            "stateRoot" : "0x5c5f81c79e0889933ebd6554c08c81cb5a2b96dfa153ba20a20d20b8a4073cb2",
            "timestamp" : "0x00",
            "transactionsTrie" : "0x56e81f171bcc55a6ff8345e692c0f86e5b48e01b996cadc001622fb5e363b421",
            "uncleHash" : "0x1dcc4de8dec75d7aab85b567b6ccd41ad312451b948a7413f0a142fd40d49347"
        },
        "pre" : {
            "0x095e7baea6a6c7c4c2dfeb977efac326af552d87" : {
                "balance" : "0x00",
                "code" : "0x7ffffffffffffffffffffffffffffffffffffffffffffffffffffffffffffffffe3a7f000000000000000000000000ffffffffffffffffffffffffffffffffffffffff7ffffffffffffffffffffffffffffffffffffffffffffffffffffffffffffffffe417f0000000000000000000000000000000000000000000000000000000000000001587f000000000000000000000000000000000000000000000000000000000000c3506fff59876660063b7c8df1ff088a84145560005155",
                "nonce" : "0x00",
                "storage" : {
                }
            },
            "0x945304eb96065b2a98b57a48a06ae28d285a71b5" : {
                "balance" : "0x2e",
                "code" : "0x6000355415600957005b60203560003555",
                "nonce" : "0x00",
                "storage" : {
                }
            },
            "0xa94f5374fce5edbc8e2a8697c15331677e6ebf0b" : {
                "balance" : "0x0de0b6b3a7640000",
                "code" : "0x",
                "nonce" : "0x00",
                "storage" : {
                }
            }
        },
        "postState" : {
            "0x095e7baea6a6c7c4c2dfeb977efac326af552d87" : {
                "code" : "0x7ffffffffffffffffffffffffffffffffffffffffffffffffffffffffffffffffe3a7f000000000000000000000000ffffffffffffffffffffffffffffffffffffffff7ffffffffffffffffffffffffffffffffffffffffffffffffffffffffffffffffe417f0000000000000000000000000000000000000000000000000000000000000001587f000000000000000000000000000000000000000000000000000000000000c3506fff59876660063b7c8df1ff088a84145560005155",
                "nonce" : "0x00",
                "balance" : "0x1dcd74de",
                "storage" : {
                    "0x00" : "0xff59876660063b7c8df1ff088a841455"
                }
            },
            "0x945304eb96065b2a98b57a48a06ae28d285a71b5" : {
                "code" : "0x6000355415600957005b60203560003555",
                "nonce" : "0x00",
                "balance" : "0x1bc16d674ece93d0",
                "storage" : {
                }
            },
            "0xa94f5374fce5edbc8e2a8697c15331677e6ebf0b" : {
                "code" : "0x",
                "nonce" : "0x01",
                "balance" : "0x0de0b6b3898ff780",
                "storage" : {
                }
            }
        },
        "network" : "Istanbul",
        "sealEngine" : "NoProof",
        "lastblockhash" : "0xda55614d4d7adc5e546949c44c2d6ba861e564860b58a4791cc53e993e641429",
        "genesisRLP" : "0xf901fdf901f8a00000000000000000000000000000000000000000000000000000000000000000a01dcc4de8dec75d7aab85b567b6ccd41ad312451b948a7413f0a142fd40d4934794945304eb96065b2a98b57a48a06ae28d285a71b5a05c5f81c79e0889933ebd6554c08c81cb5a2b96dfa153ba20a20d20b8a4073cb2a056e81f171bcc55a6ff8345e692c0f86e5b48e01b996cadc001622fb5e363b421a056e81f171bcc55a6ff8345e692c0f86e5b48e01b996cadc001622fb5e363b421b90100000000000000000000000000000000000000000000000000000000000000000000000000000000000000000000000000000000000000000000000000000000000000000000000000000000000000000000000000000000000000000000000000000000000000000000000000000000000000000000000000000000000000000000000000000000000000000000000000000000000000000000000000000000000000000000000000000000000000000000000000000000000000000000000000000000000000000000000000000000000000000000000000000000000000000000000000000000000000000000000000000000000000000000000000000000008302000080887fffffffffffffff808000a00000000000000000000000000000000000000000000000000000000000000000880000000000000000c0c0",
        "blocks" : [
            {
                "rlp" : "0xf90324f901fca0a8d0cc709acaa32b84bee5b817b06a3943102f0968a8c24ea6eaca9cf79ada81a01dcc4de8dec75d7aab85b567b6ccd41ad312451b948a7413f0a142fd40d4934794945304eb96065b2a98b57a48a06ae28d285a71b5a0205365edae65a4b8872aed9bca60eafb5fd6edc6c121c84a196f4cc421311b69a0c3143c5c2fc01553cc4ee2e20509a66024b201ba43d06c1086afceb548fb5a73a04a8b762ca3f4d639576653170d81b8fc3addbbd3a8592cf6ee85959e925c63c8b90100000000000000000000000000000000000000000000000000000000000000000000000000000000000000000000000000000000000000000000000000000000000000000000000000000000000000000000000000000000000000000000000000000000000000000000000000000000000000000000000000000000000000000000000000000000000000000000000000000000000000000000000000000000000000000000000000000000000000000000000000000000000000000000000000000000000000000000000000000000000000000000000000000000000000000000000000000000000000000000000000000000000000000000000000000000008302000001887fffffffffffffff82a85d8203e800a00000000000000000000000000000000000000000000000000000000000000000880000000000000000f90121f9011e800a846d92971694095e7baea6a6c7c4c2dfeb977efac326af552d87841dcd74deb8b87ffffffffffffffffffffffffffffffffffffffffffffffffffffffffffffffffe3a7f000000000000000000000000ffffffffffffffffffffffffffffffffffffffff7ffffffffffffffffffffffffffffffffffffffffffffffffffffffffffffffffe417f0000000000000000000000000000000000000000000000000000000000000001587f000000000000000000000000000000000000000000000000000000000000c3506fff59876660063b7c8df1ff088a84141ba0c634f86b9ccb1b07e8426701d2adfbcc9dbc21b3cbf3677de6764a65cd170defa0126b38767b12ffd3d69a9f9009c78a2be49ed4a54307d4d6eda1fe925b22f775c0",
                "blockHeader" : {
                    "bloom" : "0x00000000000000000000000000000000000000000000000000000000000000000000000000000000000000000000000000000000000000000000000000000000000000000000000000000000000000000000000000000000000000000000000000000000000000000000000000000000000000000000000000000000000000000000000000000000000000000000000000000000000000000000000000000000000000000000000000000000000000000000000000000000000000000000000000000000000000000000000000000000000000000000000000000000000000000000000000000000000000000000000000000000000000000000000000000000",
                    "coinbase" : "0x945304eb96065b2a98b57a48a06ae28d285a71b5",
                    "difficulty" : "0x020000",
                    "extraData" : "0x00",
                    "gasLimit" : "0x7fffffffffffffff",
                    "gasUsed" : "0xa85d",
                    "hash" : "0xda55614d4d7adc5e546949c44c2d6ba861e564860b58a4791cc53e993e641429",
                    "mixHash" : "0x0000000000000000000000000000000000000000000000000000000000000000",
                    "nonce" : "0x0000000000000000",
                    "number" : "0x01",
                    "parentHash" : "0xa8d0cc709acaa32b84bee5b817b06a3943102f0968a8c24ea6eaca9cf79ada81",
                    "receiptTrie" : "0x4a8b762ca3f4d639576653170d81b8fc3addbbd3a8592cf6ee85959e925c63c8",
                    "stateRoot" : "0x205365edae65a4b8872aed9bca60eafb5fd6edc6c121c84a196f4cc421311b69",
                    "timestamp" : "0x03e8",
                    "transactionsTrie" : "0xc3143c5c2fc01553cc4ee2e20509a66024b201ba43d06c1086afceb548fb5a73",
                    "uncleHash" : "0x1dcc4de8dec75d7aab85b567b6ccd41ad312451b948a7413f0a142fd40d49347"
                },
                "transactions" : [
                    {
                        "data" : "0x7ffffffffffffffffffffffffffffffffffffffffffffffffffffffffffffffffe3a7f000000000000000000000000ffffffffffffffffffffffffffffffffffffffff7ffffffffffffffffffffffffffffffffffffffffffffffffffffffffffffffffe417f0000000000000000000000000000000000000000000000000000000000000001587f000000000000000000000000000000000000000000000000000000000000c3506fff59876660063b7c8df1ff088a8414",
                        "gasLimit" : "0x6d929716",
                        "gasPrice" : "0x0a",
                        "nonce" : "0x00",
                        "to" : "0x095e7baea6a6c7c4c2dfeb977efac326af552d87",
                        "value" : "0x1dcd74de",
                        "v" : "0x1b",
                        "r" : "0xc634f86b9ccb1b07e8426701d2adfbcc9dbc21b3cbf3677de6764a65cd170def",
                        "s" : "0x126b38767b12ffd3d69a9f9009c78a2be49ed4a54307d4d6eda1fe925b22f775"
                    }
                ],
                "uncleHeaders" : [
                ]
            }
        ]
    },
    "randomStatetest19_d0g0v0_London" : {
        "_info" : {
            "comment" : "",
            "filling-rpc-server" : "evm version 1.10.4-unstable-966ee3ae-20210528",
            "filling-tool-version" : "retesteth-0.1.1-eip1559+commit.658fc3a8.Linux.g++",
            "lllcversion" : "Version: 0.5.14-develop.2021.5.18+commit.14c9d5de.mod.Linux.g++",
            "source" : "src/GeneralStateTestsFiller/stRandom/randomStatetest19Filler.json",
            "sourceHash" : "5f19fd6175fb4d6d3ae8ecb83fe89b3edf3bcb7c6d86c1e7ba00126e768087d1"
        },
        "genesisBlockHeader" : {
            "bloom" : "0x00000000000000000000000000000000000000000000000000000000000000000000000000000000000000000000000000000000000000000000000000000000000000000000000000000000000000000000000000000000000000000000000000000000000000000000000000000000000000000000000000000000000000000000000000000000000000000000000000000000000000000000000000000000000000000000000000000000000000000000000000000000000000000000000000000000000000000000000000000000000000000000000000000000000000000000000000000000000000000000000000000000000000000000000000000000",
            "coinbase" : "0x945304eb96065b2a98b57a48a06ae28d285a71b5",
            "difficulty" : "0x020000",
            "extraData" : "0x00",
            "gasLimit" : "0x7fffffffffffffff",
            "gasUsed" : "0x00",
            "hash" : "0xda30a2a59c67deedc48f91257f82a8a2def4b0eb34828e58770dff54759a9b47",
            "mixHash" : "0x0000000000000000000000000000000000000000000000000000000000000000",
            "nonce" : "0x0000000000000000",
            "number" : "0x00",
            "parentHash" : "0x0000000000000000000000000000000000000000000000000000000000000000",
            "receiptTrie" : "0x56e81f171bcc55a6ff8345e692c0f86e5b48e01b996cadc001622fb5e363b421",
            "stateRoot" : "0x5c5f81c79e0889933ebd6554c08c81cb5a2b96dfa153ba20a20d20b8a4073cb2",
            "timestamp" : "0x00",
            "transactionsTrie" : "0x56e81f171bcc55a6ff8345e692c0f86e5b48e01b996cadc001622fb5e363b421",
            "uncleHash" : "0x1dcc4de8dec75d7aab85b567b6ccd41ad312451b948a7413f0a142fd40d49347",
            "baseFee" : "0x0b"
        },
        "pre" : {
            "0x095e7baea6a6c7c4c2dfeb977efac326af552d87" : {
                "balance" : "0x00",
                "code" : "0x7ffffffffffffffffffffffffffffffffffffffffffffffffffffffffffffffffe3a7f000000000000000000000000ffffffffffffffffffffffffffffffffffffffff7ffffffffffffffffffffffffffffffffffffffffffffffffffffffffffffffffe417f0000000000000000000000000000000000000000000000000000000000000001587f000000000000000000000000000000000000000000000000000000000000c3506fff59876660063b7c8df1ff088a84145560005155",
                "nonce" : "0x00",
                "storage" : {
                }
            },
            "0x945304eb96065b2a98b57a48a06ae28d285a71b5" : {
                "balance" : "0x2e",
                "code" : "0x6000355415600957005b60203560003555",
                "nonce" : "0x00",
                "storage" : {
                }
            },
            "0xa94f5374fce5edbc8e2a8697c15331677e6ebf0b" : {
                "balance" : "0x0de0b6b3a7640000",
                "code" : "0x",
                "nonce" : "0x00",
                "storage" : {
                }
            }
        },
        "postState" : {
            "0x095e7baea6a6c7c4c2dfeb977efac326af552d87" : {
                "code" : "0x7ffffffffffffffffffffffffffffffffffffffffffffffffffffffffffffffffe3a7f000000000000000000000000ffffffffffffffffffffffffffffffffffffffff7ffffffffffffffffffffffffffffffffffffffffffffffffffffffffffffffffe417f0000000000000000000000000000000000000000000000000000000000000001587f000000000000000000000000000000000000000000000000000000000000c3506fff59876660063b7c8df1ff088a84145560005155",
                "nonce" : "0x00",
                "balance" : "0x1dcd74de",
                "storage" : {
                    "0x00" : "0xff59876660063b7c8df1ff088a841455"
                }
            },
            "0x945304eb96065b2a98b57a48a06ae28d285a71b5" : {
                "code" : "0x6000355415600957005b60203560003555",
                "nonce" : "0x00",
                "balance" : "0x1bc16d674ec8002e",
                "storage" : {
                }
            },
            "0xa94f5374fce5edbc8e2a8697c15331677e6ebf0b" : {
                "code" : "0x",
                "nonce" : "0x01",
                "balance" : "0x0de0b6b3898fa578",
                "storage" : {
                }
            }
        },
        "network" : "London",
        "sealEngine" : "NoProof",
        "lastblockhash" : "0xefc1f9fde9d355d4118e53cc3ce14b7a96adf77c1685a80b668ddd06967924be",
        "genesisRLP" : "0xf901fef901f9a00000000000000000000000000000000000000000000000000000000000000000a01dcc4de8dec75d7aab85b567b6ccd41ad312451b948a7413f0a142fd40d4934794945304eb96065b2a98b57a48a06ae28d285a71b5a05c5f81c79e0889933ebd6554c08c81cb5a2b96dfa153ba20a20d20b8a4073cb2a056e81f171bcc55a6ff8345e692c0f86e5b48e01b996cadc001622fb5e363b421a056e81f171bcc55a6ff8345e692c0f86e5b48e01b996cadc001622fb5e363b421b90100000000000000000000000000000000000000000000000000000000000000000000000000000000000000000000000000000000000000000000000000000000000000000000000000000000000000000000000000000000000000000000000000000000000000000000000000000000000000000000000000000000000000000000000000000000000000000000000000000000000000000000000000000000000000000000000000000000000000000000000000000000000000000000000000000000000000000000000000000000000000000000000000000000000000000000000000000000000000000000000000000000000000000000000000000000008302000080887fffffffffffffff808000a000000000000000000000000000000000000000000000000000000000000000008800000000000000000bc0c0",
        "blocks" : [
            {
                "rlp" : "0xf90325f901fda0da30a2a59c67deedc48f91257f82a8a2def4b0eb34828e58770dff54759a9b47a01dcc4de8dec75d7aab85b567b6ccd41ad312451b948a7413f0a142fd40d4934794945304eb96065b2a98b57a48a06ae28d285a71b5a0a11cef215c014fee73d8bc0b02896c4ae4f92b4dabd198f7b6f6fc84984080c3a0c3143c5c2fc01553cc4ee2e20509a66024b201ba43d06c1086afceb548fb5a73a045ed59bad411833118c6c364b2712ebacaa131e32a5306da8d6d193f4aeda77cb90100000000000000000000000000000000000000000000000000000000000000000000000000000000000000000000000000000000000000000000000000000000000000000000000000000000000000000000000000000000000000000000000000000000000000000000000000000000000000000000000000000000000000000000000000000000000000000000000000000000000000000000000000000000000000000000000000000000000000000000000000000000000000000000000000000000000000000000000000000000000000000000000000000000000000000000000000000000000000000000000000000000000000000000000000000000008302000001887fffffffffffffff82b0918203e800a000000000000000000000000000000000000000000000000000000000000000008800000000000000000af90121f9011e800a846d92971694095e7baea6a6c7c4c2dfeb977efac326af552d87841dcd74deb8b87ffffffffffffffffffffffffffffffffffffffffffffffffffffffffffffffffe3a7f000000000000000000000000ffffffffffffffffffffffffffffffffffffffff7ffffffffffffffffffffffffffffffffffffffffffffffffffffffffffffffffe417f0000000000000000000000000000000000000000000000000000000000000001587f000000000000000000000000000000000000000000000000000000000000c3506fff59876660063b7c8df1ff088a84141ba0c634f86b9ccb1b07e8426701d2adfbcc9dbc21b3cbf3677de6764a65cd170defa0126b38767b12ffd3d69a9f9009c78a2be49ed4a54307d4d6eda1fe925b22f775c0",
                "blockHeader" : {
                    "bloom" : "0x00000000000000000000000000000000000000000000000000000000000000000000000000000000000000000000000000000000000000000000000000000000000000000000000000000000000000000000000000000000000000000000000000000000000000000000000000000000000000000000000000000000000000000000000000000000000000000000000000000000000000000000000000000000000000000000000000000000000000000000000000000000000000000000000000000000000000000000000000000000000000000000000000000000000000000000000000000000000000000000000000000000000000000000000000000000",
                    "coinbase" : "0x945304eb96065b2a98b57a48a06ae28d285a71b5",
                    "difficulty" : "0x020000",
                    "extraData" : "0x00",
                    "gasLimit" : "0x7fffffffffffffff",
                    "gasUsed" : "0xb091",
                    "hash" : "0xefc1f9fde9d355d4118e53cc3ce14b7a96adf77c1685a80b668ddd06967924be",
                    "mixHash" : "0x0000000000000000000000000000000000000000000000000000000000000000",
                    "nonce" : "0x0000000000000000",
                    "number" : "0x01",
                    "parentHash" : "0xda30a2a59c67deedc48f91257f82a8a2def4b0eb34828e58770dff54759a9b47",
                    "receiptTrie" : "0x45ed59bad411833118c6c364b2712ebacaa131e32a5306da8d6d193f4aeda77c",
                    "stateRoot" : "0xa11cef215c014fee73d8bc0b02896c4ae4f92b4dabd198f7b6f6fc84984080c3",
                    "timestamp" : "0x03e8",
                    "transactionsTrie" : "0xc3143c5c2fc01553cc4ee2e20509a66024b201ba43d06c1086afceb548fb5a73",
                    "uncleHash" : "0x1dcc4de8dec75d7aab85b567b6ccd41ad312451b948a7413f0a142fd40d49347",
                    "baseFee" : "0x0a"
                },
                "transactions" : [
                    {
                        "data" : "0x7ffffffffffffffffffffffffffffffffffffffffffffffffffffffffffffffffe3a7f000000000000000000000000ffffffffffffffffffffffffffffffffffffffff7ffffffffffffffffffffffffffffffffffffffffffffffffffffffffffffffffe417f0000000000000000000000000000000000000000000000000000000000000001587f000000000000000000000000000000000000000000000000000000000000c3506fff59876660063b7c8df1ff088a8414",
                        "gasLimit" : "0x6d929716",
                        "gasPrice" : "0x0a",
                        "nonce" : "0x00",
                        "to" : "0x095e7baea6a6c7c4c2dfeb977efac326af552d87",
                        "value" : "0x1dcd74de",
                        "v" : "0x1b",
                        "r" : "0xc634f86b9ccb1b07e8426701d2adfbcc9dbc21b3cbf3677de6764a65cd170def",
                        "s" : "0x126b38767b12ffd3d69a9f9009c78a2be49ed4a54307d4d6eda1fe925b22f775"
                    }
                ],
                "uncleHeaders" : [
                ]
            }
        ]
    }
}