{
    "mem32kb+1" : {
        "_info" : {
            "comment" : "",
            "filling-rpc-server" : "evm version 1.10.4-unstable-966ee3ae-20210528",
            "filling-tool-version" : "retesteth-0.1.1-eip1559+commit.658fc3a8.Linux.g++",
            "lllcversion" : "Version: 0.5.14-develop.2021.5.18+commit.14c9d5de.mod.Linux.g++",
            "source" : "src/GeneralStateTestsFiller/stMemoryTest/mem32kb+1Filler.json",
            "sourceHash" : "a0510eb76fc741201d4a2c943098dd59e497e1bcb16c8e9cde933f39819ec630"
        },
        "env" : {
            "currentCoinbase" : "0x2adc25665018aa1fe0e6bc666dac8fc2697ff9ba",
            "currentDifficulty" : "0x020000",
            "currentNumber" : "0x01",
            "currentTimestamp" : "0x03e8",
            "previousHash" : "0x5e20a0453cecd065ea59c37ac63e079ee08998b6045136a8ce6635c7912ec0b6",
            "currentGasLimit" : "0x0a00000000"
        },
        "post" : {
            "Berlin" : [
                {
                    "indexes" : {
                        "data" : 0,
                        "gas" : 0,
                        "value" : 0
                    },
                    "hash" : "0x7020b971800a824bcb18e8097da0d95dfcc56c984e87ef788ee5cc832f04a0a3",
                    "txbytes" : "0xf861800a8450001798940f572e5295c57f15886f9b263e2f6d2d6c7b5ec60a801ca09e8bd05e90d697a1cbd90bcf22341e921e639923c80de9be7263af47f84fffb6a00fda9a38b7a09e6f1cd6ab12080ee20c3b0c74673ad30fffa4181a8027945a5b",
                    "logs" : "0x1dcc4de8dec75d7aab85b567b6ccd41ad312451b948a7413f0a142fd40d49347"
                }
            ],
            "Istanbul" : [
                {
                    "indexes" : {
                        "data" : 0,
                        "gas" : 0,
                        "value" : 0
                    },
                    "hash" : "0x3271145ae987688df0c3050173450ea18984c4d6c56484dff861d7c0a6c840d4",
                    "txbytes" : "0xf861800a8450001798940f572e5295c57f15886f9b263e2f6d2d6c7b5ec60a801ca09e8bd05e90d697a1cbd90bcf22341e921e639923c80de9be7263af47f84fffb6a00fda9a38b7a09e6f1cd6ab12080ee20c3b0c74673ad30fffa4181a8027945a5b",
                    "logs" : "0x1dcc4de8dec75d7aab85b567b6ccd41ad312451b948a7413f0a142fd40d49347"
                }
            ],
            "London" : [
                {
                    "indexes" : {
                        "data" : 0,
                        "gas" : 0,
                        "value" : 0
                    },
                    "hash" : "0x9303b77d104741a5976770bac85ed1b93b98518caa3dfcddd08d9d520a5c7e7d",
                    "txbytes" : "0xf861800a8450001798940f572e5295c57f15886f9b263e2f6d2d6c7b5ec60a801ca09e8bd05e90d697a1cbd90bcf22341e921e639923c80de9be7263af47f84fffb6a00fda9a38b7a09e6f1cd6ab12080ee20c3b0c74673ad30fffa4181a8027945a5b",
                    "logs" : "0x1dcc4de8dec75d7aab85b567b6ccd41ad312451b948a7413f0a142fd40d49347"
                }
            ]
        },
        "pre" : {
            "0x0f572e5295c57f15886f9b263e2f6d2d6c7b5ec6" : {
                "balance" : "0x0de0b6b3a7640000",
                "code" : "0x602a617ce152617ce1516001555960005500",
                "nonce" : "0x00",
                "storage" : {
                }
            },
            "0xa94f5374fce5edbc8e2a8697c15331677e6ebf0b" : {
                "balance" : "0x6400000000",
                "code" : "0x",
                "nonce" : "0x00",
                "storage" : {
                }
            }
        },
        "transaction" : {
            "data" : [
                "0x"
            ],
            "gasPrice" : "0x0a",
            "gasLimit" : [
                "0x50001798"
            ],
            "nonce" : "0x00",
            "secretKey" : "0x45a915e4d060149eb4365960e6a7a45f334393093061116b197e3240065ff2d8",
            "to" : "0x0f572e5295c57f15886f9b263e2f6d2d6c7b5ec6",
            "value" : [
                "0x0a"
            ]
        }
    }
}