{
    "mem64kb_singleByte-33" : {
        "_info" : {
            "comment" : "",
            "filling-rpc-server" : "evm version 1.10.4-unstable-966ee3ae-20210528",
            "filling-tool-version" : "retesteth-0.1.1-eip1559+commit.658fc3a8.Linux.g++",
            "lllcversion" : "Version: 0.5.14-develop.2021.5.18+commit.14c9d5de.mod.Linux.g++",
            "source" : "src/GeneralStateTestsFiller/stMemoryTest/mem64kb_singleByte-33Filler.json",
            "sourceHash" : "5bd11f28b62a8dc03008680bcad28841016d6c065f99dce06130d5e5a49f0754"
        },
        "env" : {
            "currentCoinbase" : "0x2adc25665018aa1fe0e6bc666dac8fc2697ff9ba",
            "currentDifficulty" : "0x020000",
            "currentNumber" : "0x01",
            "currentTimestamp" : "0x03e8",
            "previousHash" : "0x5e20a0453cecd065ea59c37ac63e079ee08998b6045136a8ce6635c7912ec0b6",
            "currentGasLimit" : "0x0a00000000"
        },
        "post" : {
            "Berlin" : [
                {
                    "indexes" : {
                        "data" : 0,
                        "gas" : 0,
                        "value" : 0
                    },
                    "hash" : "0x57cb32892266f275586d575c73443779e48ad581d5232141a8492694b3c84766",
                    "txbytes" : "0xf861800a8450001798940f572e5295c57f15886f9b263e2f6d2d6c7b5ec60a801ca09e8bd05e90d697a1cbd90bcf22341e921e639923c80de9be7263af47f84fffb6a00fda9a38b7a09e6f1cd6ab12080ee20c3b0c74673ad30fffa4181a8027945a5b",
                    "logs" : "0x1dcc4de8dec75d7aab85b567b6ccd41ad312451b948a7413f0a142fd40d49347"
                }
            ],
            "Istanbul" : [
                {
                    "indexes" : {
                        "data" : 0,
                        "gas" : 0,
                        "value" : 0
                    },
                    "hash" : "0x266e089de564d1e06cf65334b83a7eb44cdd2a3f8837d02c6ab14a703edda540",
                    "txbytes" : "0xf861800a8450001798940f572e5295c57f15886f9b263e2f6d2d6c7b5ec60a801ca09e8bd05e90d697a1cbd90bcf22341e921e639923c80de9be7263af47f84fffb6a00fda9a38b7a09e6f1cd6ab12080ee20c3b0c74673ad30fffa4181a8027945a5b",
                    "logs" : "0x1dcc4de8dec75d7aab85b567b6ccd41ad312451b948a7413f0a142fd40d49347"
                }
            ],
            "London" : [
                {
                    "indexes" : {
                        "data" : 0,
                        "gas" : 0,
                        "value" : 0
                    },
                    "hash" : "0xa1b51017816bca76c7dfc242776c05e5caa80603b77782d13739c41d4d61c8e4",
                    "txbytes" : "0xf861800a8450001798940f572e5295c57f15886f9b263e2f6d2d6c7b5ec60a801ca09e8bd05e90d697a1cbd90bcf22341e921e639923c80de9be7263af47f84fffb6a00fda9a38b7a09e6f1cd6ab12080ee20c3b0c74673ad30fffa4181a8027945a5b",
                    "logs" : "0x1dcc4de8dec75d7aab85b567b6ccd41ad312451b948a7413f0a142fd40d49347"
                }
            ]
        },
        "pre" : {
            "0x0f572e5295c57f15886f9b263e2f6d2d6c7b5ec6" : {
                "balance" : "0x0de0b6b3a7640000",
                "code" : "0x602a61f9de535960005500",
                "nonce" : "0x00",
                "storage" : {
                }
            },
            "0xa94f5374fce5edbc8e2a8697c15331677e6ebf0b" : {
                "balance" : "0x6400000000",
                "code" : "0x",
                "nonce" : "0x00",
                "storage" : {
                }
            }
        },
        "transaction" : {
            "data" : [
                "0x"
            ],
            "gasPrice" : "0x0a",
            "gasLimit" : [
                "0x50001798"
            ],
            "nonce" : "0x00",
            "secretKey" : "0x45a915e4d060149eb4365960e6a7a45f334393093061116b197e3240065ff2d8",
            "to" : "0x0f572e5295c57f15886f9b263e2f6d2d6c7b5ec6",
            "value" : [
                "0x0a"
            ]
        }
    }
}