{
    "mem64kb" : {
        "_info" : {
            "comment" : "",
            "filling-rpc-server" : "evm version 1.10.4-unstable-966ee3ae-20210528",
            "filling-tool-version" : "retesteth-0.1.1-eip1559+commit.658fc3a8.Linux.g++",
            "lllcversion" : "Version: 0.5.14-develop.2021.5.18+commit.14c9d5de.mod.Linux.g++",
            "source" : "src/GeneralStateTestsFiller/stMemoryTest/mem64kbFiller.json",
            "sourceHash" : "1111df8c1c9e406bc80325e854aac8e3d03decd4130afab5314a3669730ba69b"
        },
        "env" : {
            "currentCoinbase" : "0x2adc25665018aa1fe0e6bc666dac8fc2697ff9ba",
            "currentDifficulty" : "0x020000",
            "currentNumber" : "0x01",
            "currentTimestamp" : "0x03e8",
            "previousHash" : "0x5e20a0453cecd065ea59c37ac63e079ee08998b6045136a8ce6635c7912ec0b6",
            "currentGasLimit" : "0x0a00000000"
        },
        "post" : {
            "Berlin" : [
                {
                    "indexes" : {
                        "data" : 0,
                        "gas" : 0,
                        "value" : 0
                    },
                    "hash" : "0x96c2f86b39d3c53a10f1adbf44723620e411f4cc5a8106cb5f5cd1e57e0f3081",
                    "txbytes" : "0xf861800a84500018d8940f572e5295c57f15886f9b263e2f6d2d6c7b5ec60a801ca008eb482b74b6f567145a737c020941f0cc75242f1d7349c73c8a7b20ac59738fa004f150a7f57c99f452920bcff42afe039036fe2630ab6a61ce49ab35445096a2",
                    "logs" : "0x1dcc4de8dec75d7aab85b567b6ccd41ad312451b948a7413f0a142fd40d49347"
                }
            ],
            "Istanbul" : [
                {
                    "indexes" : {
                        "data" : 0,
                        "gas" : 0,
                        "value" : 0
                    },
                    "hash" : "0x2b06675f1530c0bf11c02553c144495f6099e982fb324c2eda7f05d1db95d692",
                    "txbytes" : "0xf861800a84500018d8940f572e5295c57f15886f9b263e2f6d2d6c7b5ec60a801ca008eb482b74b6f567145a737c020941f0cc75242f1d7349c73c8a7b20ac59738fa004f150a7f57c99f452920bcff42afe039036fe2630ab6a61ce49ab35445096a2",
                    "logs" : "0x1dcc4de8dec75d7aab85b567b6ccd41ad312451b948a7413f0a142fd40d49347"
                }
            ],
            "London" : [
                {
                    "indexes" : {
                        "data" : 0,
                        "gas" : 0,
                        "value" : 0
                    },
                    "hash" : "0x925edaf0df11c5eb35d088e891191d9edd618dca665d044c92f390b61f4f258a",
                    "txbytes" : "0xf861800a84500018d8940f572e5295c57f15886f9b263e2f6d2d6c7b5ec60a801ca008eb482b74b6f567145a737c020941f0cc75242f1d7349c73c8a7b20ac59738fa004f150a7f57c99f452920bcff42afe039036fe2630ab6a61ce49ab35445096a2",
                    "logs" : "0x1dcc4de8dec75d7aab85b567b6ccd41ad312451b948a7413f0a142fd40d49347"
                }
            ]
        },
        "pre" : {
            "0x0f572e5295c57f15886f9b263e2f6d2d6c7b5ec6" : {
                "balance" : "0x0de0b6b3a7640000",
                "code" : "0x602a61f9e05261f9e0516001555960005500",
                "nonce" : "0x00",
                "storage" : {
                }
            },
            "0xa94f5374fce5edbc8e2a8697c15331677e6ebf0b" : {
                "balance" : "0x6400000000",
                "code" : "0x",
                "nonce" : "0x00",
                "storage" : {
                }
            }
        },
        "transaction" : {
            "data" : [
                "0x"
            ],
            "gasPrice" : "0x0a",
            "gasLimit" : [
                "0x500018d8"
            ],
            "nonce" : "0x00",
            "secretKey" : "0x45a915e4d060149eb4365960e6a7a45f334393093061116b197e3240065ff2d8",
            "to" : "0x0f572e5295c57f15886f9b263e2f6d2d6c7b5ec6",
            "value" : [
                "0x0a"
            ]
        }
    }
}