{
    "TestBlockAndTransactionProperties" : {
        "_info" : {
            "comment" : "",
            "filling-rpc-server" : "evm version 1.10.4-unstable-966ee3ae-20210528",
            "filling-tool-version" : "retesteth-0.1.1-eip1559+commit.658fc3a8.Linux.g++",
            "lllcversion" : "Version: 0.5.14-develop.2021.5.18+commit.14c9d5de.mod.Linux.g++",
            "source" : "src/GeneralStateTestsFiller/stSolidityTest/TestBlockAndTransactionPropertiesFiller.json",
            "sourceHash" : "568eab3a95c6e52561225bcc4ded293f6d79da9cf007e7dbd73c8e67562e8a7a"
        },
        "env" : {
            "currentCoinbase" : "0x2adc25665018aa1fe0e6bc666dac8fc2697ff9ba",
            "currentDifficulty" : "0x020000",
            "currentNumber" : "0x01",
            "currentTimestamp" : "0x03e8",
            "previousHash" : "0x5e20a0453cecd065ea59c37ac63e079ee08998b6045136a8ce6635c7912ec0b6",
            "currentGasLimit" : "0x7fffffffffffffff"
        },
        "post" : {
            "Berlin" : [
                {
                    "indexes" : {
                        "data" : 0,
                        "gas" : 0,
                        "value" : 0
                    },
                    "hash" : "0x19803ea6657b275c72dccb1552b8dbb305e941c1dd7e3f4cef0dc39b8c623918",
                    "txbytes" : "0xf864800a8305573094095e7baea6a6c7c4c2dfeb977efac326af552d876484c04062261ba0a64fef6a7d43230fbfb29238aab1f14abbcea0cbc0677c89b82babbb264d0250a03539d0c0c3bd6a151f1658ed2c47c8aa133e0cdad7e5d6b8f8af45cbb013e771",
                    "logs" : "0x1dcc4de8dec75d7aab85b567b6ccd41ad312451b948a7413f0a142fd40d49347"
                }
            ],
            "Istanbul" : [
                {
                    "indexes" : {
                        "data" : 0,
                        "gas" : 0,
                        "value" : 0
                    },
                    "hash" : "0x17f7b926bf39e4ac980e903e7a0ef57097c1e7ce433fc77eaca71c9ed8a518c7",
                    "txbytes" : "0xf864800a8305573094095e7baea6a6c7c4c2dfeb977efac326af552d876484c04062261ba0a64fef6a7d43230fbfb29238aab1f14abbcea0cbc0677c89b82babbb264d0250a03539d0c0c3bd6a151f1658ed2c47c8aa133e0cdad7e5d6b8f8af45cbb013e771",
                    "logs" : "0x1dcc4de8dec75d7aab85b567b6ccd41ad312451b948a7413f0a142fd40d49347"
                }
            ],
            "London" : [
                {
                    "indexes" : {
                        "data" : 0,
                        "gas" : 0,
                        "value" : 0
                    },
                    "hash" : "0x7b8aec019d3ae9f05af75a9d5b98994f86beb1657505b927bc7d4ba3e8477afb",
                    "txbytes" : "0xf864800a8305573094095e7baea6a6c7c4c2dfeb977efac326af552d876484c04062261ba0a64fef6a7d43230fbfb29238aab1f14abbcea0cbc0677c89b82babbb264d0250a03539d0c0c3bd6a151f1658ed2c47c8aa133e0cdad7e5d6b8f8af45cbb013e771",
                    "logs" : "0x1dcc4de8dec75d7aab85b567b6ccd41ad312451b948a7413f0a142fd40d49347"
                }
            ]
        },
        "pre" : {
            "0x095e7baea6a6c7c4c2dfeb977efac326af552d87" : {
                "balance" : "0x0186a0",
                "code" : "0x60606040526000357c010000000000000000000000000000000000000000000000000000000090048063c040622614610044578063e97384dc1461006957610042565b005b610051600480505061008e565b60405180821515815260200191505060405180910390f35b61007660048050506100c9565b60405180821515815260200191505060405180910390f35b60006100986100c9565b600060006101000a81548160ff02191690830217905550600060009054906101000a900460ff1690506100c6565b90565b6000600190508050732adc25665018aa1fe0e6bc666dac8fc2697ff9ba4173ffffffffffffffffffffffffffffffffffffffff1614151561010d57600090506101f7565b6302b8feb04414151561012357600090506101f7565b677fffffffffffffff4514151561013d57600090506101f7565b60784314151561015057600090506101f7565b6078405042505a5073a94f5374fce5edbc8e2a8697c15331677e6ebf0b3373ffffffffffffffffffffffffffffffffffffffff1614151561019457600090506101f7565b6064341415156101a757600090506101f7565b60013a1415156101ba57600090506101f7565b73a94f5374fce5edbc8e2a8697c15331677e6ebf0b3273ffffffffffffffffffffffffffffffffffffffff161415156101f657600090506101f7565b5b9056",
                "nonce" : "0x00",
                "storage" : {
                }
            },
            "0xa94f5374fce5edbc8e2a8697c15331677e6ebf0b" : {
                "balance" : "0x05f5e100",
                "code" : "0x",
                "nonce" : "0x00",
                "storage" : {
                }
            }
        },
        "transaction" : {
            "data" : [
                "0xc0406226"
            ],
            "gasPrice" : "0x0a",
            "gasLimit" : [
                "0x055730"
            ],
            "nonce" : "0x00",
            "secretKey" : "0x45a915e4d060149eb4365960e6a7a45f334393093061116b197e3240065ff2d8",
            "to" : "0x095e7baea6a6c7c4c2dfeb977efac326af552d87",
            "value" : [
                "0x64"
            ]
        }
    }
}