{
    "TestContractInteraction" : {
        "_info" : {
            "comment" : "",
            "filling-rpc-server" : "evm version 1.10.4-unstable-966ee3ae-20210528",
            "filling-tool-version" : "retesteth-0.1.1-eip1559+commit.658fc3a8.Linux.g++",
            "lllcversion" : "Version: 0.5.14-develop.2021.5.18+commit.14c9d5de.mod.Linux.g++",
            "source" : "src/GeneralStateTestsFiller/stSolidityTest/TestContractInteractionFiller.json",
            "sourceHash" : "8cb3b626cde5d85fdae39ae6312e24e69caf8da030a86888e9f357eab83e07ba"
        },
        "env" : {
            "currentCoinbase" : "0x2adc25665018aa1fe0e6bc666dac8fc2697ff9ba",
            "currentDifficulty" : "0x020000",
            "currentNumber" : "0x01",
            "currentTimestamp" : "0x03e8",
            "previousHash" : "0x5e20a0453cecd065ea59c37ac63e079ee08998b6045136a8ce6635c7912ec0b6",
            "currentGasLimit" : "0x05f5e100"
        },
        "post" : {
            "Berlin" : [
                {
                    "indexes" : {
                        "data" : 0,
                        "gas" : 0,
                        "value" : 0
                    },
                    "hash" : "0xfac29f52028a86589a5e4488cabe5c16e7b7c87cfaa807fecb50ae313e0e2612",
                    "txbytes" : "0xf864800a8305573094095e7baea6a6c7c4c2dfeb977efac326af552d870184c04062261ca08ace2d28de65f8c8518280a42df3cb6691db78cd335dd296a5e805dd6e19f8b0a0473dc62994ef0bc26438486640fd602903e2076ec6af601c728ba1f1fa8aab64",
                    "logs" : "0x1dcc4de8dec75d7aab85b567b6ccd41ad312451b948a7413f0a142fd40d49347"
                }
            ],
            "Istanbul" : [
                {
                    "indexes" : {
                        "data" : 0,
                        "gas" : 0,
                        "value" : 0
                    },
                    "hash" : "0xfac29f52028a86589a5e4488cabe5c16e7b7c87cfaa807fecb50ae313e0e2612",
                    "txbytes" : "0xf864800a8305573094095e7baea6a6c7c4c2dfeb977efac326af552d870184c04062261ca08ace2d28de65f8c8518280a42df3cb6691db78cd335dd296a5e805dd6e19f8b0a0473dc62994ef0bc26438486640fd602903e2076ec6af601c728ba1f1fa8aab64",
                    "logs" : "0x1dcc4de8dec75d7aab85b567b6ccd41ad312451b948a7413f0a142fd40d49347"
                }
            ],
            "London" : [
                {
                    "indexes" : {
                        "data" : 0,
                        "gas" : 0,
                        "value" : 0
                    },
                    "hash" : "0xd7f8012a3b72521f0823a1088648446ad8872e45a8aad9d707decb8e3461267a",
                    "txbytes" : "0xf864800a8305573094095e7baea6a6c7c4c2dfeb977efac326af552d870184c04062261ca08ace2d28de65f8c8518280a42df3cb6691db78cd335dd296a5e805dd6e19f8b0a0473dc62994ef0bc26438486640fd602903e2076ec6af601c728ba1f1fa8aab64",
                    "logs" : "0x1dcc4de8dec75d7aab85b567b6ccd41ad312451b948a7413f0a142fd40d49347"
                }
            ]
        },
        "pre" : {
            "0x095e7baea6a6c7c4c2dfeb977efac326af552d87" : {
                "balance" : "0x0186a0",
                "code" : "0x7c01000000000000000000000000000000000000000000000000000000006000350463c04062268114610039578063ed973fe91461004b57005b6100416100ea565b8060005260206000f35b61005361005d565b8060005260206000f35b60006000608161011a600039608160006000f0905073ffffffffffffffffffffffffffffffffffffffff811663b9c3d0a5602060007fb9c3d0a50000000000000000000000000000000000000000000000000000000081526004600060008660325a03f16100c757005b505060005160e1146100d8576100e1565b600191506100e6565b600091505b5090565b60006100f461005d565b600060006101000a81548160ff0219169083021790555060ff600160005404169050905600607580600c6000396000f3007c01000000000000000000000000000000000000000000000000000000006000350462f55d9d81146036578063b9c3d0a514604557005b603f6004356055565b60006000f35b604b6070565b8060005260206000f35b8073ffffffffffffffffffffffffffffffffffffffff16ff50565b60e19056",
                "nonce" : "0x00",
                "storage" : {
                }
            },
            "0xa94f5374fce5edbc8e2a8697c15331677e6ebf0b" : {
                "balance" : "0x05f5e100",
                "code" : "0x",
                "nonce" : "0x00",
                "storage" : {
                }
            }
        },
        "transaction" : {
            "data" : [
                "0xc0406226"
            ],
            "gasPrice" : "0x0a",
            "gasLimit" : [
                "0x055730"
            ],
            "nonce" : "0x00",
            "secretKey" : "0x45a915e4d060149eb4365960e6a7a45f334393093061116b197e3240065ff2d8",
            "to" : "0x095e7baea6a6c7c4c2dfeb977efac326af552d87",
            "value" : [
                "0x01"
            ]
        }
    }
}