{
    "delegatecallInInitcodeToExistingContractOOG" : {
        "_info" : {
            "comment" : "",
            "filling-rpc-server" : "evm version 1.10.4-unstable-966ee3ae-20210528",
            "filling-tool-version" : "retesteth-0.1.1-eip1559+commit.658fc3a8.Linux.g++",
            "lllcversion" : "Version: 0.5.14-develop.2021.5.18+commit.14c9d5de.mod.Linux.g++",
            "source" : "src/GeneralStateTestsFiller/stDelegatecallTestHomestead/delegatecallInInitcodeToExistingContractOOGFiller.json",
            "sourceHash" : "08d50aa047d327c1d8b0a6919d7e3a01d9e0a54626df1f0e5e9ff667e6f69b4d"
        },
        "env" : {
            "currentCoinbase" : "0x2adc25665018aa1fe0e6bc666dac8fc2697ff9ba",
            "currentDifficulty" : "0x020000",
            "currentNumber" : "0x01",
            "currentTimestamp" : "0x03e8",
            "previousHash" : "0x5e20a0453cecd065ea59c37ac63e079ee08998b6045136a8ce6635c7912ec0b6",
            "currentGasLimit" : "0x0f4240"
        },
        "post" : {
            "Berlin" : [
                {
                    "indexes" : {
                        "data" : 0,
                        "gas" : 0,
                        "value" : 0
                    },
                    "hash" : "0xd0d99a189b81baa833adb7dc963901af64a72f8c2b6ef258ab31ba03f029b465",
                    "txbytes" : "0xf860800a8302560894100000000000000000000000000000000000000080801ca0bc609c065cb35258847ed84a8977898f4220b6aab011177c41a7eb2665ac3f36a0626d6b3e4f528307f1bbedaaa05858ec2ab20950e725f9dcd74883524b0fa4f9",
                    "logs" : "0x1dcc4de8dec75d7aab85b567b6ccd41ad312451b948a7413f0a142fd40d49347"
                }
            ],
            "Istanbul" : [
                {
                    "indexes" : {
                        "data" : 0,
                        "gas" : 0,
                        "value" : 0
                    },
                    "hash" : "0x842e6fe39eadec86bd05f8592180a2d06fab0ae751f89bfce7138a81c6af2dd2",
                    "txbytes" : "0xf860800a8302560894100000000000000000000000000000000000000080801ca0bc609c065cb35258847ed84a8977898f4220b6aab011177c41a7eb2665ac3f36a0626d6b3e4f528307f1bbedaaa05858ec2ab20950e725f9dcd74883524b0fa4f9",
                    "logs" : "0x1dcc4de8dec75d7aab85b567b6ccd41ad312451b948a7413f0a142fd40d49347"
                }
            ],
            "London" : [
                {
                    "indexes" : {
                        "data" : 0,
                        "gas" : 0,
                        "value" : 0
                    },
                    "hash" : "0x1202cda880c6fcc06405abddb04092984f694c0d93db8643e39e6b9ba164a94f",
                    "txbytes" : "0xf860800a8302560894100000000000000000000000000000000000000080801ca0bc609c065cb35258847ed84a8977898f4220b6aab011177c41a7eb2665ac3f36a0626d6b3e4f528307f1bbedaaa05858ec2ab20950e725f9dcd74883524b0fa4f9",
                    "logs" : "0x1dcc4de8dec75d7aab85b567b6ccd41ad312451b948a7413f0a142fd40d49347"
                }
            ]
        },
        "pre" : {
            "0x1000000000000000000000000000000000000000" : {
                "balance" : "0x2710",
                "code" : "0x7f604060006040600073945304eb96065b2a98b57a48a06ae28d285a71b56201866000527fa0f4600a5533600b550000000000000000000000000000000000000000000000602052604060006005f000",
                "nonce" : "0x00",
                "storage" : {
                }
            },
            "0x945304eb96065b2a98b57a48a06ae28d285a71b5" : {
                "balance" : "0x00",
                "code" : "0x600160025500",
                "nonce" : "0x00",
                "storage" : {
                }
            },
            "0xa94f5374fce5edbc8e2a8697c15331677e6ebf0b" : {
                "balance" : "0x2386f26fc10000",
                "code" : "0x",
                "nonce" : "0x00",
                "storage" : {
                }
            }
        },
        "transaction" : {
            "data" : [
                "0x"
            ],
            "gasPrice" : "0x0a",
            "gasLimit" : [
                "0x025608"
            ],
            "nonce" : "0x00",
            "secretKey" : "0x45a915e4d060149eb4365960e6a7a45f334393093061116b197e3240065ff2d8",
            "to" : "0x1000000000000000000000000000000000000000",
            "value" : [
                "0x00"
            ]
        }
    }
}