{
    "StaticcallForPrecompilesIssue683_d0g0v0_Berlin" : {
        "_info" : {
            "comment" : "Bytecode from issue 683, that initially show the problem with staticcall in hevm.\nIssue link: https://github.com/ethereum/tests/issues/683\nPullrequest link with original bytecode: https://github.com/dapphub/dapptools/pull/360\n",
            "filling-rpc-server" : "evm version 1.10.4-unstable-966ee3ae-20210528",
            "filling-tool-version" : "retesteth-0.1.1-eip1559+commit.658fc3a8.Linux.g++",
            "lllcversion" : "Version: 0.5.14-develop.2021.5.18+commit.14c9d5de.mod.Linux.g++",
            "source" : "src/GeneralStateTestsFiller/stStaticFlagEnabled/StaticcallForPrecompilesIssue683Filler.yml",
            "sourceHash" : "b02b0a9f187c2cc72a53fdb61fe36786049c57f8b9b4dcbe9299c0cffddf7a56"
        },
        "genesisBlockHeader" : {
            "bloom" : "0x00000000000000000000000000000000000000000000000000000000000000000000000000000000000000000000000000000000000000000000000000000000000000000000000000000000000000000000000000000000000000000000000000000000000000000000000000000000000000000000000000000000000000000000000000000000000000000000000000000000000000000000000000000000000000000000000000000000000000000000000000000000000000000000000000000000000000000000000000000000000000000000000000000000000000000000000000000000000000000000000000000000000000000000000000000000",
            "coinbase" : "0xcafe000000000000000000000000000000000001",
            "difficulty" : "0x020000",
            "extraData" : "0x00",
            "gasLimit" : "0x989680",
            "gasUsed" : "0x00",
            "hash" : "0x389b4327cb781e045faf49c1abd2b1dd13931e44e09253bf09c569af039dcca1",
            "mixHash" : "0x0000000000000000000000000000000000000000000000000000000000000000",
            "nonce" : "0x0000000000000000",
            "number" : "0x00",
            "parentHash" : "0x0000000000000000000000000000000000000000000000000000000000000000",
            "receiptTrie" : "0x56e81f171bcc55a6ff8345e692c0f86e5b48e01b996cadc001622fb5e363b421",
            "stateRoot" : "0xec64a97b032a5fc7f4349f333c3c4faf7736e7aad32c79852fc0b0a578ba2cac",
            "timestamp" : "0x00",
            "transactionsTrie" : "0x56e81f171bcc55a6ff8345e692c0f86e5b48e01b996cadc001622fb5e363b421",
            "uncleHash" : "0x1dcc4de8dec75d7aab85b567b6ccd41ad312451b948a7413f0a142fd40d49347"
        },
        "pre" : {
            "0xa000000000000000000000000000000000000000" : {
                "balance" : "0x03e8",
                "code" : "0x600080541515601d576001815580818283305afa15601b578081fd5b005b80818283600160025af15050",
                "nonce" : "0x00",
                "storage" : {
                }
            },
            "0xa94f5374fce5edbc8e2a8697c15331677e6ebf0b" : {
                "balance" : "0x0de0b6b3a7640000",
                "code" : "0x",
                "nonce" : "0x00",
                "storage" : {
                }
            }
        },
        "postState" : {
            "0xa000000000000000000000000000000000000000" : {
                "code" : "0x600080541515601d576001815580818283305afa15601b578081fd5b005b80818283600160025af15050",
                "nonce" : "0x00",
                "balance" : "0x044c",
                "storage" : {
                    "0x00" : "0x01"
                }
            },
            "0xa94f5374fce5edbc8e2a8697c15331677e6ebf0b" : {
                "code" : "0x",
                "nonce" : "0x01",
                "balance" : "0x0de0b6b3a6cdb064",
                "storage" : {
                }
            },
            "0xcafe000000000000000000000000000000000001" : {
                "code" : "0x",
                "nonce" : "0x00",
                "balance" : "0x1bc16d674f5e4f38",
                "storage" : {
                }
            }
        },
        "network" : "Berlin",
        "sealEngine" : "NoProof",
        "lastblockhash" : "0x5292ca9dd3d206648df26c4ac594c92b400f5ee4c57de121f68b18292d992d3b",
        "genesisRLP" : "0xf901f8f901f3a00000000000000000000000000000000000000000000000000000000000000000a01dcc4de8dec75d7aab85b567b6ccd41ad312451b948a7413f0a142fd40d4934794cafe000000000000000000000000000000000001a0ec64a97b032a5fc7f4349f333c3c4faf7736e7aad32c79852fc0b0a578ba2caca056e81f171bcc55a6ff8345e692c0f86e5b48e01b996cadc001622fb5e363b421a056e81f171bcc55a6ff8345e692c0f86e5b48e01b996cadc001622fb5e363b421b9010000000000000000000000000000000000000000000000000000000000000000000000000000000000000000000000000000000000000000000000000000000000000000000000000000000000000000000000000000000000000000000000000000000000000000000000000000000000000000000000000000000000000000000000000000000000000000000000000000000000000000000000000000000000000000000000000000000000000000000000000000000000000000000000000000000000000000000000000000000000000000000000000000000000000000000000000000000000000000000000000000000000000000000000000000000000830200008083989680808000a00000000000000000000000000000000000000000000000000000000000000000880000000000000000c0c0",
        "blocks" : [
            {
                "rlp" : "0xf90260f901f8a0389b4327cb781e045faf49c1abd2b1dd13931e44e09253bf09c569af039dcca1a01dcc4de8dec75d7aab85b567b6ccd41ad312451b948a7413f0a142fd40d4934794cafe000000000000000000000000000000000001a0500a2044b2dac946333053187295e7af20ef61e8b82e23d18f2c994f5d43a040a0078745c2eab7d6f47edbed508f306a8ff8c96b98936088dbca5742b66b746e7fa0b0546368b2d9dac6ac88cf12ecf445d4164cf08d505325630bf112c8e3c19d89b9010000000000000000000000000000000000000000000000000000000000000000000000000000000000000000000000000000000000000000000000000000000000000000000000000000000000000000000000000000000000000000000000000000000000000000000000000000000000000000000000000000000000000000000000000000000000000000000000000000000000000000000000000000000000000000000000000000000000000000000000000000000000000000000000000000000000000000000000000000000000000000000000000000000000000000000000000000000000000000000000000000000000000000000000000000000000830200000183989680830f07ec8203e800a00000000000000000000000000000000000000000000000000000000000000000880000000000000000f862f860800a830f424094a00000000000000000000000000000000000000064801ca054870e924ab213fd0acf66dd0adfd431874d9face7898dd1782c737590cf01d0a05afbafd3918a0904a5d215edb16650f36704cc05a3eb3a3d950a72c3d4d364d0c0",
                "blockHeader" : {
                    "bloom" : "0x00000000000000000000000000000000000000000000000000000000000000000000000000000000000000000000000000000000000000000000000000000000000000000000000000000000000000000000000000000000000000000000000000000000000000000000000000000000000000000000000000000000000000000000000000000000000000000000000000000000000000000000000000000000000000000000000000000000000000000000000000000000000000000000000000000000000000000000000000000000000000000000000000000000000000000000000000000000000000000000000000000000000000000000000000000000",
                    "coinbase" : "0xcafe000000000000000000000000000000000001",
                    "difficulty" : "0x020000",
                    "extraData" : "0x00",
                    "gasLimit" : "0x989680",
                    "gasUsed" : "0x0f07ec",
                    "hash" : "0x5292ca9dd3d206648df26c4ac594c92b400f5ee4c57de121f68b18292d992d3b",
                    "mixHash" : "0x0000000000000000000000000000000000000000000000000000000000000000",
                    "nonce" : "0x0000000000000000",
                    "number" : "0x01",
                    "parentHash" : "0x389b4327cb781e045faf49c1abd2b1dd13931e44e09253bf09c569af039dcca1",
                    "receiptTrie" : "0xb0546368b2d9dac6ac88cf12ecf445d4164cf08d505325630bf112c8e3c19d89",
                    "stateRoot" : "0x500a2044b2dac946333053187295e7af20ef61e8b82e23d18f2c994f5d43a040",
                    "timestamp" : "0x03e8",
                    "transactionsTrie" : "0x078745c2eab7d6f47edbed508f306a8ff8c96b98936088dbca5742b66b746e7f",
                    "uncleHash" : "0x1dcc4de8dec75d7aab85b567b6ccd41ad312451b948a7413f0a142fd40d49347"
                },
                "transactions" : [
                    {
                        "data" : "0x",
                        "gasLimit" : "0x0f4240",
                        "gasPrice" : "0x0a",
                        "nonce" : "0x00",
                        "to" : "0xa000000000000000000000000000000000000000",
                        "value" : "0x64",
                        "v" : "0x1c",
                        "r" : "0x54870e924ab213fd0acf66dd0adfd431874d9face7898dd1782c737590cf01d0",
                        "s" : "0x5afbafd3918a0904a5d215edb16650f36704cc05a3eb3a3d950a72c3d4d364d0"
                    }
                ],
                "uncleHeaders" : [
                ]
            }
        ]
    },
    "StaticcallForPrecompilesIssue683_d0g0v0_Istanbul" : {
        "_info" : {
            "comment" : "Bytecode from issue 683, that initially show the problem with staticcall in hevm.\nIssue link: https://github.com/ethereum/tests/issues/683\nPullrequest link with original bytecode: https://github.com/dapphub/dapptools/pull/360\n",
            "filling-rpc-server" : "evm version 1.10.4-unstable-966ee3ae-20210528",
            "filling-tool-version" : "retesteth-0.1.1-eip1559+commit.658fc3a8.Linux.g++",
            "lllcversion" : "Version: 0.5.14-develop.2021.5.18+commit.14c9d5de.mod.Linux.g++",
            "source" : "src/GeneralStateTestsFiller/stStaticFlagEnabled/StaticcallForPrecompilesIssue683Filler.yml",
            "sourceHash" : "b02b0a9f187c2cc72a53fdb61fe36786049c57f8b9b4dcbe9299c0cffddf7a56"
        },
        "genesisBlockHeader" : {
            "bloom" : "0x00000000000000000000000000000000000000000000000000000000000000000000000000000000000000000000000000000000000000000000000000000000000000000000000000000000000000000000000000000000000000000000000000000000000000000000000000000000000000000000000000000000000000000000000000000000000000000000000000000000000000000000000000000000000000000000000000000000000000000000000000000000000000000000000000000000000000000000000000000000000000000000000000000000000000000000000000000000000000000000000000000000000000000000000000000000",
            "coinbase" : "0xcafe000000000000000000000000000000000001",
            "difficulty" : "0x020000",
            "extraData" : "0x00",
            "gasLimit" : "0x989680",
            "gasUsed" : "0x00",
            "hash" : "0x389b4327cb781e045faf49c1abd2b1dd13931e44e09253bf09c569af039dcca1",
            "mixHash" : "0x0000000000000000000000000000000000000000000000000000000000000000",
            "nonce" : "0x0000000000000000",
            "number" : "0x00",
            "parentHash" : "0x0000000000000000000000000000000000000000000000000000000000000000",
            "receiptTrie" : "0x56e81f171bcc55a6ff8345e692c0f86e5b48e01b996cadc001622fb5e363b421",
            "stateRoot" : "0xec64a97b032a5fc7f4349f333c3c4faf7736e7aad32c79852fc0b0a578ba2cac",
            "timestamp" : "0x00",
            "transactionsTrie" : "0x56e81f171bcc55a6ff8345e692c0f86e5b48e01b996cadc001622fb5e363b421",
            "uncleHash" : "0x1dcc4de8dec75d7aab85b567b6ccd41ad312451b948a7413f0a142fd40d49347"
        },
        "pre" : {
            "0xa000000000000000000000000000000000000000" : {
                "balance" : "0x03e8",
                "code" : "0x600080541515601d576001815580818283305afa15601b578081fd5b005b80818283600160025af15050",
                "nonce" : "0x00",
                "storage" : {
                }
            },
            "0xa94f5374fce5edbc8e2a8697c15331677e6ebf0b" : {
                "balance" : "0x0de0b6b3a7640000",
                "code" : "0x",
                "nonce" : "0x00",
                "storage" : {
                }
            }
        },
        "postState" : {
            "0xa000000000000000000000000000000000000000" : {
                "code" : "0x600080541515601d576001815580818283305afa15601b578081fd5b005b80818283600160025af15050",
                "nonce" : "0x00",
                "balance" : "0x044c",
                "storage" : {
                    "0x00" : "0x01"
                }
            },
            "0xa94f5374fce5edbc8e2a8697c15331677e6ebf0b" : {
                "code" : "0x",
                "nonce" : "0x01",
                "balance" : "0x0de0b6b3a6cdb0d2",
                "storage" : {
                }
            },
            "0xcafe000000000000000000000000000000000001" : {
                "code" : "0x",
                "nonce" : "0x00",
                "balance" : "0x1bc16d674f5e4eca",
                "storage" : {
                }
            }
        },
        "network" : "Istanbul",
        "sealEngine" : "NoProof",
        "lastblockhash" : "0xbbba5fc5ad2c1d90aaec8e3bad8ade5ea32327d5067961486aa235778b5afec4",
        "genesisRLP" : "0xf901f8f901f3a00000000000000000000000000000000000000000000000000000000000000000a01dcc4de8dec75d7aab85b567b6ccd41ad312451b948a7413f0a142fd40d4934794cafe000000000000000000000000000000000001a0ec64a97b032a5fc7f4349f333c3c4faf7736e7aad32c79852fc0b0a578ba2caca056e81f171bcc55a6ff8345e692c0f86e5b48e01b996cadc001622fb5e363b421a056e81f171bcc55a6ff8345e692c0f86e5b48e01b996cadc001622fb5e363b421b9010000000000000000000000000000000000000000000000000000000000000000000000000000000000000000000000000000000000000000000000000000000000000000000000000000000000000000000000000000000000000000000000000000000000000000000000000000000000000000000000000000000000000000000000000000000000000000000000000000000000000000000000000000000000000000000000000000000000000000000000000000000000000000000000000000000000000000000000000000000000000000000000000000000000000000000000000000000000000000000000000000000000000000000000000000000000830200008083989680808000a00000000000000000000000000000000000000000000000000000000000000000880000000000000000c0c0",
        "blocks" : [
            {
                "rlp" : "0xf90260f901f8a0389b4327cb781e045faf49c1abd2b1dd13931e44e09253bf09c569af039dcca1a01dcc4de8dec75d7aab85b567b6ccd41ad312451b948a7413f0a142fd40d4934794cafe000000000000000000000000000000000001a05ea896dec4b8ddcc31bcc05085b13bcbcdf90de0c7ceb94b26b1964559d5b9b6a0078745c2eab7d6f47edbed508f306a8ff8c96b98936088dbca5742b66b746e7fa09e797f0457719169979ca6fbceba71a327f96d86d9ae15997d33b3881b06390fb9010000000000000000000000000000000000000000000000000000000000000000000000000000000000000000000000000000000000000000000000000000000000000000000000000000000000000000000000000000000000000000000000000000000000000000000000000000000000000000000000000000000000000000000000000000000000000000000000000000000000000000000000000000000000000000000000000000000000000000000000000000000000000000000000000000000000000000000000000000000000000000000000000000000000000000000000000000000000000000000000000000000000000000000000000000000000830200000183989680830f07e18203e800a00000000000000000000000000000000000000000000000000000000000000000880000000000000000f862f860800a830f424094a00000000000000000000000000000000000000064801ca054870e924ab213fd0acf66dd0adfd431874d9face7898dd1782c737590cf01d0a05afbafd3918a0904a5d215edb16650f36704cc05a3eb3a3d950a72c3d4d364d0c0",
                "blockHeader" : {
                    "bloom" : "0x00000000000000000000000000000000000000000000000000000000000000000000000000000000000000000000000000000000000000000000000000000000000000000000000000000000000000000000000000000000000000000000000000000000000000000000000000000000000000000000000000000000000000000000000000000000000000000000000000000000000000000000000000000000000000000000000000000000000000000000000000000000000000000000000000000000000000000000000000000000000000000000000000000000000000000000000000000000000000000000000000000000000000000000000000000000",
                    "coinbase" : "0xcafe000000000000000000000000000000000001",
                    "difficulty" : "0x020000",
                    "extraData" : "0x00",
                    "gasLimit" : "0x989680",
                    "gasUsed" : "0x0f07e1",
                    "hash" : "0xbbba5fc5ad2c1d90aaec8e3bad8ade5ea32327d5067961486aa235778b5afec4",
                    "mixHash" : "0x0000000000000000000000000000000000000000000000000000000000000000",
                    "nonce" : "0x0000000000000000",
                    "number" : "0x01",
                    "parentHash" : "0x389b4327cb781e045faf49c1abd2b1dd13931e44e09253bf09c569af039dcca1",
                    "receiptTrie" : "0x9e797f0457719169979ca6fbceba71a327f96d86d9ae15997d33b3881b06390f",
                    "stateRoot" : "0x5ea896dec4b8ddcc31bcc05085b13bcbcdf90de0c7ceb94b26b1964559d5b9b6",
                    "timestamp" : "0x03e8",
                    "transactionsTrie" : "0x078745c2eab7d6f47edbed508f306a8ff8c96b98936088dbca5742b66b746e7f",
                    "uncleHash" : "0x1dcc4de8dec75d7aab85b567b6ccd41ad312451b948a7413f0a142fd40d49347"
                },
                "transactions" : [
                    {
                        "data" : "0x",
                        "gasLimit" : "0x0f4240",
                        "gasPrice" : "0x0a",
                        "nonce" : "0x00",
                        "to" : "0xa000000000000000000000000000000000000000",
                        "value" : "0x64",
                        "v" : "0x1c",
                        "r" : "0x54870e924ab213fd0acf66dd0adfd431874d9face7898dd1782c737590cf01d0",
                        "s" : "0x5afbafd3918a0904a5d215edb16650f36704cc05a3eb3a3d950a72c3d4d364d0"
                    }
                ],
                "uncleHeaders" : [
                ]
            }
        ]
    },
    "StaticcallForPrecompilesIssue683_d0g0v0_London" : {
        "_info" : {
            "comment" : "Bytecode from issue 683, that initially show the problem with staticcall in hevm.\nIssue link: https://github.com/ethereum/tests/issues/683\nPullrequest link with original bytecode: https://github.com/dapphub/dapptools/pull/360\n",
            "filling-rpc-server" : "evm version 1.10.4-unstable-966ee3ae-20210528",
            "filling-tool-version" : "retesteth-0.1.1-eip1559+commit.658fc3a8.Linux.g++",
            "lllcversion" : "Version: 0.5.14-develop.2021.5.18+commit.14c9d5de.mod.Linux.g++",
            "source" : "src/GeneralStateTestsFiller/stStaticFlagEnabled/StaticcallForPrecompilesIssue683Filler.yml",
            "sourceHash" : "b02b0a9f187c2cc72a53fdb61fe36786049c57f8b9b4dcbe9299c0cffddf7a56"
        },
        "genesisBlockHeader" : {
            "bloom" : "0x00000000000000000000000000000000000000000000000000000000000000000000000000000000000000000000000000000000000000000000000000000000000000000000000000000000000000000000000000000000000000000000000000000000000000000000000000000000000000000000000000000000000000000000000000000000000000000000000000000000000000000000000000000000000000000000000000000000000000000000000000000000000000000000000000000000000000000000000000000000000000000000000000000000000000000000000000000000000000000000000000000000000000000000000000000000",
            "coinbase" : "0xcafe000000000000000000000000000000000001",
            "difficulty" : "0x020000",
            "extraData" : "0x00",
            "gasLimit" : "0x989680",
            "gasUsed" : "0x00",
            "hash" : "0x5b68225a26257557f9b5b107ae7134e5650fdc34a87375f635356d2c5b9a9ff4",
            "mixHash" : "0x0000000000000000000000000000000000000000000000000000000000000000",
            "nonce" : "0x0000000000000000",
            "number" : "0x00",
            "parentHash" : "0x0000000000000000000000000000000000000000000000000000000000000000",
            "receiptTrie" : "0x56e81f171bcc55a6ff8345e692c0f86e5b48e01b996cadc001622fb5e363b421",
            "stateRoot" : "0xec64a97b032a5fc7f4349f333c3c4faf7736e7aad32c79852fc0b0a578ba2cac",
            "timestamp" : "0x00",
            "transactionsTrie" : "0x56e81f171bcc55a6ff8345e692c0f86e5b48e01b996cadc001622fb5e363b421",
            "uncleHash" : "0x1dcc4de8dec75d7aab85b567b6ccd41ad312451b948a7413f0a142fd40d49347",
            "baseFee" : "0x0b"
        },
        "pre" : {
            "0xa000000000000000000000000000000000000000" : {
                "balance" : "0x03e8",
                "code" : "0x600080541515601d576001815580818283305afa15601b578081fd5b005b80818283600160025af15050",
                "nonce" : "0x00",
                "storage" : {
                }
            },
            "0xa94f5374fce5edbc8e2a8697c15331677e6ebf0b" : {
                "balance" : "0x0de0b6b3a7640000",
                "code" : "0x",
                "nonce" : "0x00",
                "storage" : {
                }
            }
        },
        "postState" : {
            "0xa000000000000000000000000000000000000000" : {
                "code" : "0x600080541515601d576001815580818283305afa15601b578081fd5b005b80818283600160025af15050",
                "nonce" : "0x00",
                "balance" : "0x044c",
                "storage" : {
                    "0x00" : "0x01"
                }
            },
            "0xa94f5374fce5edbc8e2a8697c15331677e6ebf0b" : {
                "code" : "0x",
                "nonce" : "0x01",
                "balance" : "0x0de0b6b3a6cdb064",
                "storage" : {
                }
            },
            "0xcafe000000000000000000000000000000000001" : {
                "code" : "0x",
                "nonce" : "0x00",
                "balance" : "0x1bc16d674ec80000",
                "storage" : {
                }
            }
        },
        "network" : "London",
        "sealEngine" : "NoProof",
        "lastblockhash" : "0x46ee1b4efdc0ecebf8231cf4c2df441916fe5fcf8c913fcb297adde87ab13460",
        "genesisRLP" : "0xf901f9f901f4a00000000000000000000000000000000000000000000000000000000000000000a01dcc4de8dec75d7aab85b567b6ccd41ad312451b948a7413f0a142fd40d4934794cafe000000000000000000000000000000000001a0ec64a97b032a5fc7f4349f333c3c4faf7736e7aad32c79852fc0b0a578ba2caca056e81f171bcc55a6ff8345e692c0f86e5b48e01b996cadc001622fb5e363b421a056e81f171bcc55a6ff8345e692c0f86e5b48e01b996cadc001622fb5e363b421b9010000000000000000000000000000000000000000000000000000000000000000000000000000000000000000000000000000000000000000000000000000000000000000000000000000000000000000000000000000000000000000000000000000000000000000000000000000000000000000000000000000000000000000000000000000000000000000000000000000000000000000000000000000000000000000000000000000000000000000000000000000000000000000000000000000000000000000000000000000000000000000000000000000000000000000000000000000000000000000000000000000000000000000000000000000000000830200008083989680808000a000000000000000000000000000000000000000000000000000000000000000008800000000000000000bc0c0",
        "blocks" : [
            {
                "rlp" : "0xf90261f901f9a05b68225a26257557f9b5b107ae7134e5650fdc34a87375f635356d2c5b9a9ff4a01dcc4de8dec75d7aab85b567b6ccd41ad312451b948a7413f0a142fd40d4934794cafe000000000000000000000000000000000001a01a34905834016e96e7ccea05ef22f817a92a2333d20fed7d9e2a023a242d9726a0078745c2eab7d6f47edbed508f306a8ff8c96b98936088dbca5742b66b746e7fa0b0546368b2d9dac6ac88cf12ecf445d4164cf08d505325630bf112c8e3c19d89b9010000000000000000000000000000000000000000000000000000000000000000000000000000000000000000000000000000000000000000000000000000000000000000000000000000000000000000000000000000000000000000000000000000000000000000000000000000000000000000000000000000000000000000000000000000000000000000000000000000000000000000000000000000000000000000000000000000000000000000000000000000000000000000000000000000000000000000000000000000000000000000000000000000000000000000000000000000000000000000000000000000000000000000000000000000000000830200000183989680830f07ec8203e800a000000000000000000000000000000000000000000000000000000000000000008800000000000000000af862f860800a830f424094a00000000000000000000000000000000000000064801ca054870e924ab213fd0acf66dd0adfd431874d9face7898dd1782c737590cf01d0a05afbafd3918a0904a5d215edb16650f36704cc05a3eb3a3d950a72c3d4d364d0c0",
                "blockHeader" : {
                    "bloom" : "0x00000000000000000000000000000000000000000000000000000000000000000000000000000000000000000000000000000000000000000000000000000000000000000000000000000000000000000000000000000000000000000000000000000000000000000000000000000000000000000000000000000000000000000000000000000000000000000000000000000000000000000000000000000000000000000000000000000000000000000000000000000000000000000000000000000000000000000000000000000000000000000000000000000000000000000000000000000000000000000000000000000000000000000000000000000000",
                    "coinbase" : "0xcafe000000000000000000000000000000000001",
                    "difficulty" : "0x020000",
                    "extraData" : "0x00",
                    "gasLimit" : "0x989680",
                    "gasUsed" : "0x0f07ec",
                    "hash" : "0x46ee1b4efdc0ecebf8231cf4c2df441916fe5fcf8c913fcb297adde87ab13460",
                    "mixHash" : "0x0000000000000000000000000000000000000000000000000000000000000000",
                    "nonce" : "0x0000000000000000",
                    "number" : "0x01",
                    "parentHash" : "0x5b68225a26257557f9b5b107ae7134e5650fdc34a87375f635356d2c5b9a9ff4",
                    "receiptTrie" : "0xb0546368b2d9dac6ac88cf12ecf445d4164cf08d505325630bf112c8e3c19d89",
                    "stateRoot" : "0x1a34905834016e96e7ccea05ef22f817a92a2333d20fed7d9e2a023a242d9726",
                    "timestamp" : "0x03e8",
                    "transactionsTrie" : "0x078745c2eab7d6f47edbed508f306a8ff8c96b98936088dbca5742b66b746e7f",
                    "uncleHash" : "0x1dcc4de8dec75d7aab85b567b6ccd41ad312451b948a7413f0a142fd40d49347",
                    "baseFee" : "0x0a"
                },
                "transactions" : [
                    {
                        "data" : "0x",
                        "gasLimit" : "0x0f4240",
                        "gasPrice" : "0x0a",
                        "nonce" : "0x00",
                        "to" : "0xa000000000000000000000000000000000000000",
                        "value" : "0x64",
                        "v" : "0x1c",
                        "r" : "0x54870e924ab213fd0acf66dd0adfd431874d9face7898dd1782c737590cf01d0",
                        "s" : "0x5afbafd3918a0904a5d215edb16650f36704cc05a3eb3a3d950a72c3d4d364d0"
                    }
                ],
                "uncleHeaders" : [
                ]
            }
        ]
    }
}