{
    "eip1559_d0g0v0_London" : {
        "_info" : {
            "comment" : "Ori Pomerantz   qbzzt1@gmail.com",
            "filling-rpc-server" : "evm version 1.10.4-unstable-966ee3ae-20210528",
            "filling-tool-version" : "retesteth-0.1.1-eip1559+commit.658fc3a8.Linux.g++",
            "lllcversion" : "Version: 0.5.14-develop.2021.5.18+commit.14c9d5de.mod.Linux.g++",
            "source" : "src/GeneralStateTestsFiller/stExample/eip1559Filler.yml",
            "sourceHash" : "02f72c55a199439bd88ca5d81b3fde17e34d37c5c6920e3aa285935d35665887"
        },
        "genesisBlockHeader" : {
            "bloom" : "0x00000000000000000000000000000000000000000000000000000000000000000000000000000000000000000000000000000000000000000000000000000000000000000000000000000000000000000000000000000000000000000000000000000000000000000000000000000000000000000000000000000000000000000000000000000000000000000000000000000000000000000000000000000000000000000000000000000000000000000000000000000000000000000000000000000000000000000000000000000000000000000000000000000000000000000000000000000000000000000000000000000000000000000000000000000000",
            "coinbase" : "0x2adc25665018aa1fe0e6bc666dac8fc2697ff9ba",
            "difficulty" : "0x020000",
            "extraData" : "0x00",
            "gasLimit" : "0x01000000",
            "gasUsed" : "0x00",
            "hash" : "0x8db59e83641a85ca11d042e6f2e0f1ef94079ac831c33ed0aa67aa7f3c28c9ea",
            "mixHash" : "0x0000000000000000000000000000000000000000000000000000000000000000",
            "nonce" : "0x0000000000000000",
            "number" : "0x00",
            "parentHash" : "0x0000000000000000000000000000000000000000000000000000000000000000",
            "receiptTrie" : "0x56e81f171bcc55a6ff8345e692c0f86e5b48e01b996cadc001622fb5e363b421",
            "stateRoot" : "0xcfa569514bd0f96c19e86a21946eb9bca6fda068d9eb523696d2628685383def",
            "timestamp" : "0x00",
            "transactionsTrie" : "0x56e81f171bcc55a6ff8345e692c0f86e5b48e01b996cadc001622fb5e363b421",
            "uncleHash" : "0x1dcc4de8dec75d7aab85b567b6ccd41ad312451b948a7413f0a142fd40d49347",
            "baseFee" : "0x0476"
        },
        "pre" : {
            "0xa94f5374fce5edbc8e2a8697c15331677e6ebf0b" : {
                "balance" : "0x0de0b6b3a7640000",
                "code" : "0x",
                "nonce" : "0x01",
                "storage" : {
                }
            },
            "0xcccccccccccccccccccccccccccccccccccccccc" : {
                "balance" : "0x0de0b6b3a7640000",
                "code" : "0x3a6000554860015500",
                "nonce" : "0x01",
                "storage" : {
                }
            }
        },
        "postState" : {
            "0x2adc25665018aa1fe0e6bc666dac8fc2697ff9ba" : {
                "code" : "0x",
                "nonce" : "0x00",
                "balance" : "0x1bc16d674ed2418c",
                "storage" : {
                }
            },
            "0xa94f5374fce5edbc8e2a8697c15331677e6ebf0b" : {
                "code" : "0x",
                "nonce" : "0x02",
                "balance" : "0x0de0b6b3a35823c4",
                "storage" : {
                }
            },
            "0xcccccccccccccccccccccccccccccccccccccccc" : {
                "code" : "0x3a6000554860015500",
                "nonce" : "0x01",
                "balance" : "0x0de0b6b3a7640000",
                "storage" : {
                    "0x00" : "0x03f2",
                    "0x01" : "0x03e8"
                }
            }
        },
        "network" : "London",
        "sealEngine" : "NoProof",
        "lastblockhash" : "0xd152b1359cc85dc6c3aa385cc5a4fd15545e00ffcc07a64fcdba9cad90474012",
        "genesisRLP" : "0xf901fcf901f7a00000000000000000000000000000000000000000000000000000000000000000a01dcc4de8dec75d7aab85b567b6ccd41ad312451b948a7413f0a142fd40d49347942adc25665018aa1fe0e6bc666dac8fc2697ff9baa0cfa569514bd0f96c19e86a21946eb9bca6fda068d9eb523696d2628685383defa056e81f171bcc55a6ff8345e692c0f86e5b48e01b996cadc001622fb5e363b421a056e81f171bcc55a6ff8345e692c0f86e5b48e01b996cadc001622fb5e363b421b901000000000000000000000000000000000000000000000000000000000000000000000000000000000000000000000000000000000000000000000000000000000000000000000000000000000000000000000000000000000000000000000000000000000000000000000000000000000000000000000000000000000000000000000000000000000000000000000000000000000000000000000000000000000000000000000000000000000000000000000000000000000000000000000000000000000000000000000000000000000000000000000000000000000000000000000000000000000000000000000000000000000000000000000000000000000083020000808401000000808000a00000000000000000000000000000000000000000000000000000000000000000880000000000000000820476c0c0",
        "blocks" : [
            {
                "rlp" : "0xf902c8f901fca08db59e83641a85ca11d042e6f2e0f1ef94079ac831c33ed0aa67aa7f3c28c9eaa01dcc4de8dec75d7aab85b567b6ccd41ad312451b948a7413f0a142fd40d49347942adc25665018aa1fe0e6bc666dac8fc2697ff9baa0c8b05a69af5799e4f5873a1a8424e89e9828e7714a41eb1a921fafa783b428c4a04a1418e51861308e9f8528c211f724a9360d699e3771956d4b966d9fdf02a10ea08f6145caa47091b72b55edb56d3f5ede6445b99a73213329033c9d4a13ad726eb9010000000000000000000000000000000000000000000000000000000000000000000000000000000000000000000000000000000000000000000000000000000000000000000000000000000000000000000000000000000000000000000000000000000000000000000000000000000000000000000000000000000000000000000000000000000000000000000000000000000000000000000000000000000000000000000000000000000000000000000000000000000000000000000000000000000000000000000000000000000000000000000000000000000000000000000000000000000000000000000000000000000000000000000000000000000000830200000184010000008301068e8203e800a000000000000000000000000000000000000000000000000000000000000000008800000000000000008203e8f8c6b8c402f8c101010a8207d0833d090094cccccccccccccccccccccccccccccccccccccccc8000f85bf85994ccccccccccccccccccccccccccccccccccccccccf842a00000000000000000000000000000000000000000000000000000000000000000a0000000000000000000000000000000000000000000000000000000000000000180a0d671815898b8dd34321adbba4cb6a57baa7017323c26946f3719b00e70c755c2a03528b9efe3be57ea65a933d1e6bbf3b7d0c78830138883c1201e0c641fee6464c0",
                "blockHeader" : {
                    "bloom" : "0x00000000000000000000000000000000000000000000000000000000000000000000000000000000000000000000000000000000000000000000000000000000000000000000000000000000000000000000000000000000000000000000000000000000000000000000000000000000000000000000000000000000000000000000000000000000000000000000000000000000000000000000000000000000000000000000000000000000000000000000000000000000000000000000000000000000000000000000000000000000000000000000000000000000000000000000000000000000000000000000000000000000000000000000000000000000",
                    "coinbase" : "0x2adc25665018aa1fe0e6bc666dac8fc2697ff9ba",
                    "difficulty" : "0x020000",
                    "extraData" : "0x00",
                    "gasLimit" : "0x01000000",
                    "gasUsed" : "0x01068e",
                    "hash" : "0xd152b1359cc85dc6c3aa385cc5a4fd15545e00ffcc07a64fcdba9cad90474012",
                    "mixHash" : "0x0000000000000000000000000000000000000000000000000000000000000000",
                    "nonce" : "0x0000000000000000",
                    "number" : "0x01",
                    "parentHash" : "0x8db59e83641a85ca11d042e6f2e0f1ef94079ac831c33ed0aa67aa7f3c28c9ea",
                    "receiptTrie" : "0x8f6145caa47091b72b55edb56d3f5ede6445b99a73213329033c9d4a13ad726e",
                    "stateRoot" : "0xc8b05a69af5799e4f5873a1a8424e89e9828e7714a41eb1a921fafa783b428c4",
                    "timestamp" : "0x03e8",
                    "transactionsTrie" : "0x4a1418e51861308e9f8528c211f724a9360d699e3771956d4b966d9fdf02a10e",
                    "uncleHash" : "0x1dcc4de8dec75d7aab85b567b6ccd41ad312451b948a7413f0a142fd40d49347",
                    "baseFee" : "0x03e8"
                },
                "transactions" : [
                    {
                        "data" : "0x00",
                        "gasLimit" : "0x3d0900",
                        "nonce" : "0x01",
                        "to" : "0xcccccccccccccccccccccccccccccccccccccccc",
                        "value" : "0x00",
                        "v" : "0x00",
                        "r" : "0xd671815898b8dd34321adbba4cb6a57baa7017323c26946f3719b00e70c755c2",
                        "s" : "0x3528b9efe3be57ea65a933d1e6bbf3b7d0c78830138883c1201e0c641fee6464",
                        "chainId" : "0x01",
                        "type" : "0x02",
                        "maxFeePerGas" : "0x07d0",
                        "maxPriorityFeePerGas" : "0x0a",
                        "accessList" : [
                            {
                                "address" : "0xcccccccccccccccccccccccccccccccccccccccc",
                                "storageKeys" : [
                                    "0x0000000000000000000000000000000000000000000000000000000000000000",
                                    "0x0000000000000000000000000000000000000000000000000000000000000001"
                                ]
                            }
                        ]
                    }
                ],
                "uncleHeaders" : [
                ]
            }
        ]
    }
}