{
    "solidityExample_d0g0v0_Berlin" : {
        "_info" : {
            "comment" : "An example test for using solidity contracts in the test",
            "filling-rpc-server" : "evm version 1.10.4-unstable-966ee3ae-20210528",
            "filling-tool-version" : "retesteth-0.1.1-eip1559+commit.658fc3a8.Linux.g++",
            "lllcversion" : "Version: 0.5.14-develop.2021.5.18+commit.14c9d5de.mod.Linux.g++",
            "source" : "src/GeneralStateTestsFiller/stExample/solidityExampleFiller.yml",
            "sourceHash" : "47e9bbe9575b93d60ce899ac6cef288c70d698cda94db336a3dfdfc05e8af511"
        },
        "genesisBlockHeader" : {
            "bloom" : "0x00000000000000000000000000000000000000000000000000000000000000000000000000000000000000000000000000000000000000000000000000000000000000000000000000000000000000000000000000000000000000000000000000000000000000000000000000000000000000000000000000000000000000000000000000000000000000000000000000000000000000000000000000000000000000000000000000000000000000000000000000000000000000000000000000000000000000000000000000000000000000000000000000000000000000000000000000000000000000000000000000000000000000000000000000000000",
            "coinbase" : "0x2adc25665018aa1fe0e6bc666dac8fc2697ff9ba",
            "difficulty" : "0x020000",
            "extraData" : "0x00",
            "gasLimit" : "0x05f5e100",
            "gasUsed" : "0x00",
            "hash" : "0x5af149c01854734a99419fd72e926ad9a0aa70e39f1197708dcee416c5577f84",
            "mixHash" : "0x0000000000000000000000000000000000000000000000000000000000000000",
            "nonce" : "0x0000000000000000",
            "number" : "0x00",
            "parentHash" : "0x0000000000000000000000000000000000000000000000000000000000000000",
            "receiptTrie" : "0x56e81f171bcc55a6ff8345e692c0f86e5b48e01b996cadc001622fb5e363b421",
            "stateRoot" : "0xe698101a626edf911cfac5ab3712e07437714f77361c4d5bd018d3d987263d24",
            "timestamp" : "0x00",
            "transactionsTrie" : "0x56e81f171bcc55a6ff8345e692c0f86e5b48e01b996cadc001622fb5e363b421",
            "uncleHash" : "0x1dcc4de8dec75d7aab85b567b6ccd41ad312451b948a7413f0a142fd40d49347"
        },
        "pre" : {
            "0x095e7baea6a6c7c4c2dfeb977efac326af552d87" : {
                "balance" : "0x0ba1a9ce0ba1a9ce",
                "code" : "0x608060405234801561001057600080fd5b506004361061002b5760003560e01c8063b66176a714610030575b600080fd5b6100666004803603604081101561004657600080fd5b810190808035906020019092919080359060200190929190505050610068565b005b60405161007490610167565b604051809103906000f080158015610090573d6000803e3d6000fd5b506000806101000a81548173ffffffffffffffffffffffffffffffffffffffff021916908373ffffffffffffffffffffffffffffffffffffffff16021790555060008054906101000a900473ffffffffffffffffffffffffffffffffffffffff1673ffffffffffffffffffffffffffffffffffffffff1663b66176a783836040518363ffffffff1660e01b81526004018083815260200182815260200192505050600060405180830381600087803b15801561014b57600080fd5b505af115801561015f573d6000803e3d6000fd5b505050505050565b60d0806101748339019056fe608060405267ff00ff00ff00ff00600055348015601b57600080fd5b5060a68061002a6000396000f3fe6080604052348015600f57600080fd5b506004361060285760003560e01c8063b66176a714602d575b600080fd5b606060048036036040811015604157600080fd5b8101908080359060200190929190803590602001909291905050506062565b005b80600081905550808255505056fea2646970667358221220bfaf2477dbbd9a289868ddbb34f8e621a200a5fcb855b8871564c378e2bdcb7864736f6c63430007000033a264697066735822122035f42fcc3db137b4824f70008646242a71eec8f0e52714f8027c94202101b80864736f6c63430007000033",
                "nonce" : "0x00",
                "storage" : {
                }
            },
            "0x195e7baea6a6c7c4c2dfeb977efac326af552d87" : {
                "balance" : "0x0ba1a9ce0ba1a9ce",
                "code" : "0x6080604052348015600f57600080fd5b506004361060285760003560e01c8063b66176a714602d575b600080fd5b606060048036036040811015604157600080fd5b8101908080359060200190929190803590602001909291905050506062565b005b80600081905550808255505056fea26469706673582212207b785bd281a934b293c34a8b12396a13976717833eeb5135eaf380a9cc48875864736f6c63430007000033",
                "nonce" : "0x00",
                "storage" : {
                }
            },
            "0xa94f5374fce5edbc8e2a8697c15331677e6ebf0b" : {
                "balance" : "0x0ba1a9ce0ba1a9ce",
                "code" : "0x",
                "nonce" : "0x00",
                "storage" : {
                }
            }
        },
        "postState" : {
            "0x095e7baea6a6c7c4c2dfeb977efac326af552d87" : {
                "code" : "0x608060405234801561001057600080fd5b506004361061002b5760003560e01c8063b66176a714610030575b600080fd5b6100666004803603604081101561004657600080fd5b810190808035906020019092919080359060200190929190505050610068565b005b60405161007490610167565b604051809103906000f080158015610090573d6000803e3d6000fd5b506000806101000a81548173ffffffffffffffffffffffffffffffffffffffff021916908373ffffffffffffffffffffffffffffffffffffffff16021790555060008054906101000a900473ffffffffffffffffffffffffffffffffffffffff1673ffffffffffffffffffffffffffffffffffffffff1663b66176a783836040518363ffffffff1660e01b81526004018083815260200182815260200192505050600060405180830381600087803b15801561014b57600080fd5b505af115801561015f573d6000803e3d6000fd5b505050505050565b60d0806101748339019056fe608060405267ff00ff00ff00ff00600055348015601b57600080fd5b5060a68061002a6000396000f3fe6080604052348015600f57600080fd5b506004361060285760003560e01c8063b66176a714602d575b600080fd5b606060048036036040811015604157600080fd5b8101908080359060200190929190803590602001909291905050506062565b005b80600081905550808255505056fea2646970667358221220bfaf2477dbbd9a289868ddbb34f8e621a200a5fcb855b8871564c378e2bdcb7864736f6c63430007000033a264697066735822122035f42fcc3db137b4824f70008646242a71eec8f0e52714f8027c94202101b80864736f6c63430007000033",
                "nonce" : "0x01",
                "balance" : "0x0ba1a9ce0ba1a9ce",
                "storage" : {
                    "0x00" : "0xd2571607e241ecf590ed94b12d87c94babe36db6"
                }
            },
            "0x195e7baea6a6c7c4c2dfeb977efac326af552d87" : {
                "code" : "0x6080604052348015600f57600080fd5b506004361060285760003560e01c8063b66176a714602d575b600080fd5b606060048036036040811015604157600080fd5b8101908080359060200190929190803590602001909291905050506062565b005b80600081905550808255505056fea26469706673582212207b785bd281a934b293c34a8b12396a13976717833eeb5135eaf380a9cc48875864736f6c63430007000033",
                "nonce" : "0x00",
                "balance" : "0x0ba1a9ce0ba1a9ce",
                "storage" : {
                }
            },
            "0x2adc25665018aa1fe0e6bc666dac8fc2697ff9ba" : {
                "code" : "0x",
                "nonce" : "0x00",
                "balance" : "0x1bc16d674edf8982",
                "storage" : {
                }
            },
            "0xa94f5374fce5edbc8e2a8697c15331677e6ebf0b" : {
                "code" : "0x",
                "nonce" : "0x01",
                "balance" : "0x0ba1a9ce0b8a204c",
                "storage" : {
                }
            },
            "0xd2571607e241ecf590ed94b12d87c94babe36db6" : {
                "code" : "0x6080604052348015600f57600080fd5b506004361060285760003560e01c8063b66176a714602d575b600080fd5b606060048036036040811015604157600080fd5b8101908080359060200190929190803590602001909291905050506062565b005b80600081905550808255505056fea2646970667358221220bfaf2477dbbd9a289868ddbb34f8e621a200a5fcb855b8871564c378e2bdcb7864736f6c63430007000033",
                "nonce" : "0x01",
                "balance" : "0x00",
                "storage" : {
                    "0x00" : "0x45",
                    "0x05" : "0x45"
                }
            }
        },
        "network" : "Berlin",
        "sealEngine" : "NoProof",
        "lastblockhash" : "0x53ef28670f5b92f81822f8f7bee37a35ed25f6134582166707675c4b4cdf4476",
        "genesisRLP" : "0xf901f9f901f4a00000000000000000000000000000000000000000000000000000000000000000a01dcc4de8dec75d7aab85b567b6ccd41ad312451b948a7413f0a142fd40d49347942adc25665018aa1fe0e6bc666dac8fc2697ff9baa0e698101a626edf911cfac5ab3712e07437714f77361c4d5bd018d3d987263d24a056e81f171bcc55a6ff8345e692c0f86e5b48e01b996cadc001622fb5e363b421a056e81f171bcc55a6ff8345e692c0f86e5b48e01b996cadc001622fb5e363b421b901000000000000000000000000000000000000000000000000000000000000000000000000000000000000000000000000000000000000000000000000000000000000000000000000000000000000000000000000000000000000000000000000000000000000000000000000000000000000000000000000000000000000000000000000000000000000000000000000000000000000000000000000000000000000000000000000000000000000000000000000000000000000000000000000000000000000000000000000000000000000000000000000000000000000000000000000000000000000000000000000000000000000000000000000000000000083020000808405f5e100808000a00000000000000000000000000000000000000000000000000000000000000000880000000000000000c0c0",
        "blocks" : [
            {
                "rlp" : "0xf902a7f901f9a05af149c01854734a99419fd72e926ad9a0aa70e39f1197708dcee416c5577f84a01dcc4de8dec75d7aab85b567b6ccd41ad312451b948a7413f0a142fd40d49347942adc25665018aa1fe0e6bc666dac8fc2697ff9baa0f953f486943e82ed2b1489bb72be1423784ae082a61d42b2a946c2bd7117c557a0b8466b5b437cf6d45ed3dfa2058e2b6709f1a86145215e8a59694dc559a4526fa09d8fc51b7ec7fea73425e992edb5db751925fc0b8226cd9054a4a65a8c8774bbb901000000000000000000000000000000000000000000000000000000000000000000000000000000000000000000000000000000000000000000000000000000000000000000000000000000000000000000000000000000000000000000000000000000000000000000000000000000000000000000000000000000000000000000000000000000000000000000000000000000000000000000000000000000000000000000000000000000000000000000000000000000000000000000000000000000000000000000000000000000000000000000000000000000000000000000000000000000000000000000000000000000000000000000000000000000000083020000018405f5e10083025a8d8203e800a00000000000000000000000000000000000000000000000000000000000000000880000000000000000f8a8f8a6800a8404c4b40094095e7baea6a6c7c4c2dfeb977efac326af552d8780b844b66176a7000000000000000000000000000000000000000000000000000000000000000500000000000000000000000000000000000000000000000000000000000000451ca0557b882a6f4c398e1dc30731cc0490f9743d2df3a13b9e465a87198920d34877a071659dc2b9ff195215e075315734b937a7773e470d47d33cdca183b1bc4093a7c0",
                "blockHeader" : {
                    "bloom" : "0x00000000000000000000000000000000000000000000000000000000000000000000000000000000000000000000000000000000000000000000000000000000000000000000000000000000000000000000000000000000000000000000000000000000000000000000000000000000000000000000000000000000000000000000000000000000000000000000000000000000000000000000000000000000000000000000000000000000000000000000000000000000000000000000000000000000000000000000000000000000000000000000000000000000000000000000000000000000000000000000000000000000000000000000000000000000",
                    "coinbase" : "0x2adc25665018aa1fe0e6bc666dac8fc2697ff9ba",
                    "difficulty" : "0x020000",
                    "extraData" : "0x00",
                    "gasLimit" : "0x05f5e100",
                    "gasUsed" : "0x025a8d",
                    "hash" : "0x53ef28670f5b92f81822f8f7bee37a35ed25f6134582166707675c4b4cdf4476",
                    "mixHash" : "0x0000000000000000000000000000000000000000000000000000000000000000",
                    "nonce" : "0x0000000000000000",
                    "number" : "0x01",
                    "parentHash" : "0x5af149c01854734a99419fd72e926ad9a0aa70e39f1197708dcee416c5577f84",
                    "receiptTrie" : "0x9d8fc51b7ec7fea73425e992edb5db751925fc0b8226cd9054a4a65a8c8774bb",
                    "stateRoot" : "0xf953f486943e82ed2b1489bb72be1423784ae082a61d42b2a946c2bd7117c557",
                    "timestamp" : "0x03e8",
                    "transactionsTrie" : "0xb8466b5b437cf6d45ed3dfa2058e2b6709f1a86145215e8a59694dc559a4526f",
                    "uncleHash" : "0x1dcc4de8dec75d7aab85b567b6ccd41ad312451b948a7413f0a142fd40d49347"
                },
                "transactions" : [
                    {
                        "data" : "0xb66176a700000000000000000000000000000000000000000000000000000000000000050000000000000000000000000000000000000000000000000000000000000045",
                        "gasLimit" : "0x04c4b400",
                        "gasPrice" : "0x0a",
                        "nonce" : "0x00",
                        "to" : "0x095e7baea6a6c7c4c2dfeb977efac326af552d87",
                        "value" : "0x00",
                        "v" : "0x1c",
                        "r" : "0x557b882a6f4c398e1dc30731cc0490f9743d2df3a13b9e465a87198920d34877",
                        "s" : "0x71659dc2b9ff195215e075315734b937a7773e470d47d33cdca183b1bc4093a7"
                    }
                ],
                "uncleHeaders" : [
                ]
            }
        ]
    },
    "solidityExample_d0g0v0_London" : {
        "_info" : {
            "comment" : "An example test for using solidity contracts in the test",
            "filling-rpc-server" : "evm version 1.10.4-unstable-966ee3ae-20210528",
            "filling-tool-version" : "retesteth-0.1.1-eip1559+commit.658fc3a8.Linux.g++",
            "lllcversion" : "Version: 0.5.14-develop.2021.5.18+commit.14c9d5de.mod.Linux.g++",
            "source" : "src/GeneralStateTestsFiller/stExample/solidityExampleFiller.yml",
            "sourceHash" : "47e9bbe9575b93d60ce899ac6cef288c70d698cda94db336a3dfdfc05e8af511"
        },
        "genesisBlockHeader" : {
            "bloom" : "0x00000000000000000000000000000000000000000000000000000000000000000000000000000000000000000000000000000000000000000000000000000000000000000000000000000000000000000000000000000000000000000000000000000000000000000000000000000000000000000000000000000000000000000000000000000000000000000000000000000000000000000000000000000000000000000000000000000000000000000000000000000000000000000000000000000000000000000000000000000000000000000000000000000000000000000000000000000000000000000000000000000000000000000000000000000000",
            "coinbase" : "0x2adc25665018aa1fe0e6bc666dac8fc2697ff9ba",
            "difficulty" : "0x020000",
            "extraData" : "0x00",
            "gasLimit" : "0x05f5e100",
            "gasUsed" : "0x00",
            "hash" : "0xb1698b706408b7523c7a2c20c5ef41e4d5eb3f2c8cf8b40d8adbf4c341594ebe",
            "mixHash" : "0x0000000000000000000000000000000000000000000000000000000000000000",
            "nonce" : "0x0000000000000000",
            "number" : "0x00",
            "parentHash" : "0x0000000000000000000000000000000000000000000000000000000000000000",
            "receiptTrie" : "0x56e81f171bcc55a6ff8345e692c0f86e5b48e01b996cadc001622fb5e363b421",
            "stateRoot" : "0xe698101a626edf911cfac5ab3712e07437714f77361c4d5bd018d3d987263d24",
            "timestamp" : "0x00",
            "transactionsTrie" : "0x56e81f171bcc55a6ff8345e692c0f86e5b48e01b996cadc001622fb5e363b421",
            "uncleHash" : "0x1dcc4de8dec75d7aab85b567b6ccd41ad312451b948a7413f0a142fd40d49347",
            "baseFee" : "0x0b"
        },
        "pre" : {
            "0x095e7baea6a6c7c4c2dfeb977efac326af552d87" : {
                "balance" : "0x0ba1a9ce0ba1a9ce",
                "code" : "0x608060405234801561001057600080fd5b506004361061002b5760003560e01c8063b66176a714610030575b600080fd5b6100666004803603604081101561004657600080fd5b810190808035906020019092919080359060200190929190505050610068565b005b60405161007490610167565b604051809103906000f080158015610090573d6000803e3d6000fd5b506000806101000a81548173ffffffffffffffffffffffffffffffffffffffff021916908373ffffffffffffffffffffffffffffffffffffffff16021790555060008054906101000a900473ffffffffffffffffffffffffffffffffffffffff1673ffffffffffffffffffffffffffffffffffffffff1663b66176a783836040518363ffffffff1660e01b81526004018083815260200182815260200192505050600060405180830381600087803b15801561014b57600080fd5b505af115801561015f573d6000803e3d6000fd5b505050505050565b60d0806101748339019056fe608060405267ff00ff00ff00ff00600055348015601b57600080fd5b5060a68061002a6000396000f3fe6080604052348015600f57600080fd5b506004361060285760003560e01c8063b66176a714602d575b600080fd5b606060048036036040811015604157600080fd5b8101908080359060200190929190803590602001909291905050506062565b005b80600081905550808255505056fea2646970667358221220bfaf2477dbbd9a289868ddbb34f8e621a200a5fcb855b8871564c378e2bdcb7864736f6c63430007000033a264697066735822122035f42fcc3db137b4824f70008646242a71eec8f0e52714f8027c94202101b80864736f6c63430007000033",
                "nonce" : "0x00",
                "storage" : {
                }
            },
            "0x195e7baea6a6c7c4c2dfeb977efac326af552d87" : {
                "balance" : "0x0ba1a9ce0ba1a9ce",
                "code" : "0x6080604052348015600f57600080fd5b506004361060285760003560e01c8063b66176a714602d575b600080fd5b606060048036036040811015604157600080fd5b8101908080359060200190929190803590602001909291905050506062565b005b80600081905550808255505056fea26469706673582212207b785bd281a934b293c34a8b12396a13976717833eeb5135eaf380a9cc48875864736f6c63430007000033",
                "nonce" : "0x00",
                "storage" : {
                }
            },
            "0xa94f5374fce5edbc8e2a8697c15331677e6ebf0b" : {
                "balance" : "0x0ba1a9ce0ba1a9ce",
                "code" : "0x",
                "nonce" : "0x00",
                "storage" : {
                }
            }
        },
        "postState" : {
            "0x095e7baea6a6c7c4c2dfeb977efac326af552d87" : {
                "code" : "0x608060405234801561001057600080fd5b506004361061002b5760003560e01c8063b66176a714610030575b600080fd5b6100666004803603604081101561004657600080fd5b810190808035906020019092919080359060200190929190505050610068565b005b60405161007490610167565b604051809103906000f080158015610090573d6000803e3d6000fd5b506000806101000a81548173ffffffffffffffffffffffffffffffffffffffff021916908373ffffffffffffffffffffffffffffffffffffffff16021790555060008054906101000a900473ffffffffffffffffffffffffffffffffffffffff1673ffffffffffffffffffffffffffffffffffffffff1663b66176a783836040518363ffffffff1660e01b81526004018083815260200182815260200192505050600060405180830381600087803b15801561014b57600080fd5b505af115801561015f573d6000803e3d6000fd5b505050505050565b60d0806101748339019056fe608060405267ff00ff00ff00ff00600055348015601b57600080fd5b5060a68061002a6000396000f3fe6080604052348015600f57600080fd5b506004361060285760003560e01c8063b66176a714602d575b600080fd5b606060048036036040811015604157600080fd5b8101908080359060200190929190803590602001909291905050506062565b005b80600081905550808255505056fea2646970667358221220bfaf2477dbbd9a289868ddbb34f8e621a200a5fcb855b8871564c378e2bdcb7864736f6c63430007000033a264697066735822122035f42fcc3db137b4824f70008646242a71eec8f0e52714f8027c94202101b80864736f6c63430007000033",
                "nonce" : "0x01",
                "balance" : "0x0ba1a9ce0ba1a9ce",
                "storage" : {
                    "0x00" : "0xd2571607e241ecf590ed94b12d87c94babe36db6"
                }
            },
            "0x195e7baea6a6c7c4c2dfeb977efac326af552d87" : {
                "code" : "0x6080604052348015600f57600080fd5b506004361060285760003560e01c8063b66176a714602d575b600080fd5b606060048036036040811015604157600080fd5b8101908080359060200190929190803590602001909291905050506062565b005b80600081905550808255505056fea26469706673582212207b785bd281a934b293c34a8b12396a13976717833eeb5135eaf380a9cc48875864736f6c63430007000033",
                "nonce" : "0x00",
                "balance" : "0x0ba1a9ce0ba1a9ce",
                "storage" : {
                }
            },
            "0x2adc25665018aa1fe0e6bc666dac8fc2697ff9ba" : {
                "code" : "0x",
                "nonce" : "0x00",
                "balance" : "0x1bc16d674ec80000",
                "storage" : {
                }
            },
            "0xa94f5374fce5edbc8e2a8697c15331677e6ebf0b" : {
                "code" : "0x",
                "nonce" : "0x01",
                "balance" : "0x0ba1a9ce0b8a204c",
                "storage" : {
                }
            },
            "0xd2571607e241ecf590ed94b12d87c94babe36db6" : {
                "code" : "0x6080604052348015600f57600080fd5b506004361060285760003560e01c8063b66176a714602d575b600080fd5b606060048036036040811015604157600080fd5b8101908080359060200190929190803590602001909291905050506062565b005b80600081905550808255505056fea2646970667358221220bfaf2477dbbd9a289868ddbb34f8e621a200a5fcb855b8871564c378e2bdcb7864736f6c63430007000033",
                "nonce" : "0x01",
                "balance" : "0x00",
                "storage" : {
                    "0x00" : "0x45",
                    "0x05" : "0x45"
                }
            }
        },
        "network" : "London",
        "sealEngine" : "NoProof",
        "lastblockhash" : "0x3cd4896df49a33cac3792484f5e9cbbb94679c536f5c8cc0fca84e3d37a3e401",
        "genesisRLP" : "0xf901faf901f5a00000000000000000000000000000000000000000000000000000000000000000a01dcc4de8dec75d7aab85b567b6ccd41ad312451b948a7413f0a142fd40d49347942adc25665018aa1fe0e6bc666dac8fc2697ff9baa0e698101a626edf911cfac5ab3712e07437714f77361c4d5bd018d3d987263d24a056e81f171bcc55a6ff8345e692c0f86e5b48e01b996cadc001622fb5e363b421a056e81f171bcc55a6ff8345e692c0f86e5b48e01b996cadc001622fb5e363b421b901000000000000000000000000000000000000000000000000000000000000000000000000000000000000000000000000000000000000000000000000000000000000000000000000000000000000000000000000000000000000000000000000000000000000000000000000000000000000000000000000000000000000000000000000000000000000000000000000000000000000000000000000000000000000000000000000000000000000000000000000000000000000000000000000000000000000000000000000000000000000000000000000000000000000000000000000000000000000000000000000000000000000000000000000000000000083020000808405f5e100808000a000000000000000000000000000000000000000000000000000000000000000008800000000000000000bc0c0",
        "blocks" : [
            {
                "rlp" : "0xf902a8f901faa0b1698b706408b7523c7a2c20c5ef41e4d5eb3f2c8cf8b40d8adbf4c341594ebea01dcc4de8dec75d7aab85b567b6ccd41ad312451b948a7413f0a142fd40d49347942adc25665018aa1fe0e6bc666dac8fc2697ff9baa02f6aeb2b0da6cbb53f100fb12321509a8890d39840947b73f9c3aef6a32d7c20a0b8466b5b437cf6d45ed3dfa2058e2b6709f1a86145215e8a59694dc559a4526fa09d8fc51b7ec7fea73425e992edb5db751925fc0b8226cd9054a4a65a8c8774bbb901000000000000000000000000000000000000000000000000000000000000000000000000000000000000000000000000000000000000000000000000000000000000000000000000000000000000000000000000000000000000000000000000000000000000000000000000000000000000000000000000000000000000000000000000000000000000000000000000000000000000000000000000000000000000000000000000000000000000000000000000000000000000000000000000000000000000000000000000000000000000000000000000000000000000000000000000000000000000000000000000000000000000000000000000000000000083020000018405f5e10083025a8d8203e800a000000000000000000000000000000000000000000000000000000000000000008800000000000000000af8a8f8a6800a8404c4b40094095e7baea6a6c7c4c2dfeb977efac326af552d8780b844b66176a7000000000000000000000000000000000000000000000000000000000000000500000000000000000000000000000000000000000000000000000000000000451ca0557b882a6f4c398e1dc30731cc0490f9743d2df3a13b9e465a87198920d34877a071659dc2b9ff195215e075315734b937a7773e470d47d33cdca183b1bc4093a7c0",
                "blockHeader" : {
                    "bloom" : "0x00000000000000000000000000000000000000000000000000000000000000000000000000000000000000000000000000000000000000000000000000000000000000000000000000000000000000000000000000000000000000000000000000000000000000000000000000000000000000000000000000000000000000000000000000000000000000000000000000000000000000000000000000000000000000000000000000000000000000000000000000000000000000000000000000000000000000000000000000000000000000000000000000000000000000000000000000000000000000000000000000000000000000000000000000000000",
                    "coinbase" : "0x2adc25665018aa1fe0e6bc666dac8fc2697ff9ba",
                    "difficulty" : "0x020000",
                    "extraData" : "0x00",
                    "gasLimit" : "0x05f5e100",
                    "gasUsed" : "0x025a8d",
                    "hash" : "0x3cd4896df49a33cac3792484f5e9cbbb94679c536f5c8cc0fca84e3d37a3e401",
                    "mixHash" : "0x0000000000000000000000000000000000000000000000000000000000000000",
                    "nonce" : "0x0000000000000000",
                    "number" : "0x01",
                    "parentHash" : "0xb1698b706408b7523c7a2c20c5ef41e4d5eb3f2c8cf8b40d8adbf4c341594ebe",
                    "receiptTrie" : "0x9d8fc51b7ec7fea73425e992edb5db751925fc0b8226cd9054a4a65a8c8774bb",
                    "stateRoot" : "0x2f6aeb2b0da6cbb53f100fb12321509a8890d39840947b73f9c3aef6a32d7c20",
                    "timestamp" : "0x03e8",
                    "transactionsTrie" : "0xb8466b5b437cf6d45ed3dfa2058e2b6709f1a86145215e8a59694dc559a4526f",
                    "uncleHash" : "0x1dcc4de8dec75d7aab85b567b6ccd41ad312451b948a7413f0a142fd40d49347",
                    "baseFee" : "0x0a"
                },
                "transactions" : [
                    {
                        "data" : "0xb66176a700000000000000000000000000000000000000000000000000000000000000050000000000000000000000000000000000000000000000000000000000000045",
                        "gasLimit" : "0x04c4b400",
                        "gasPrice" : "0x0a",
                        "nonce" : "0x00",
                        "to" : "0x095e7baea6a6c7c4c2dfeb977efac326af552d87",
                        "value" : "0x00",
                        "v" : "0x1c",
                        "r" : "0x557b882a6f4c398e1dc30731cc0490f9743d2df3a13b9e465a87198920d34877",
                        "s" : "0x71659dc2b9ff195215e075315734b937a7773e470d47d33cdca183b1bc4093a7"
                    }
                ],
                "uncleHeaders" : [
                ]
            }
        ]
    }
}