{
    "ecmul_1-2_9935_28000_96" : {
        "_info" : {
            "comment" : "Puts the point (1, 2) and the factor 115792089237316195423570985008687907853269984665640564039457584007913129639935 into the ECMUL precompile, truncating or expanding the input data to 96 bytes. Gives the execution 28000 bytes",
            "filling-rpc-server" : "evm version 1.10.4-unstable-966ee3ae-20210528",
            "filling-tool-version" : "retesteth-0.1.1-eip1559+commit.658fc3a8.Linux.g++",
            "lllcversion" : "Version: 0.5.14-develop.2021.5.18+commit.14c9d5de.mod.Linux.g++",
            "source" : "src/GeneralStateTestsFiller/stZeroKnowledge/ecmul_1-2_9935_28000_96Filler.json",
            "sourceHash" : "f8589f6ac27e70ae18c260f061789e41b1557e8106f848937906573497daf86e"
        },
        "env" : {
            "currentCoinbase" : "0x3535353535353535353535353535353535353535",
            "currentDifficulty" : "0x020000",
            "currentNumber" : "0x01",
            "currentTimestamp" : "0x03e8",
            "previousHash" : "0xc6745cf3cada515bbfb9573261c82547e0b8f9e3d5dd382e464704a84e47b5ad",
            "currentGasLimit" : "0x05f5e100"
        },
        "post" : {
            "Berlin" : [
                {
                    "indexes" : {
                        "data" : 0,
                        "gas" : 0,
                        "value" : 0
                    },
                    "hash" : "0xa1d2d8e5645638049a86d58dc873b7fddabb579056e982d8abe7f65a90cf6b62",
                    "txbytes" : "0xf9010581bb0a827bf894c305c901078781c232a2a521c2af7980f8385ee980b8a430c8d1da0000000000000000000000000000000000000000000000000000000000000020000000000000000000000000000000000000000000000000000000000000006000000000000000000000000000000000000000000000000000000000000000010000000000000000000000000000000000000000000000000000000000000002ffffffffffffffffffffffffffffffffffffffffffffffffffffffffffffffff1ca0e20bff570e174d0350ea98199ad97c5eac77951acd80c1be10ee38c7d258827fa073f5916c1375f75b08d070d6a56b919fa67f03c734940094d2e9aa85179b21c4",
                    "logs" : "0x1dcc4de8dec75d7aab85b567b6ccd41ad312451b948a7413f0a142fd40d49347"
                },
                {
                    "indexes" : {
                        "data" : 0,
                        "gas" : 1,
                        "value" : 0
                    },
                    "hash" : "0x1e9dc659f00856fd4a3c091e8e6086fb8199464fb99bba40d0bb9595e09f9a99",
                    "txbytes" : "0xf9010681bb0a83015f9094c305c901078781c232a2a521c2af7980f8385ee980b8a430c8d1da0000000000000000000000000000000000000000000000000000000000000020000000000000000000000000000000000000000000000000000000000000006000000000000000000000000000000000000000000000000000000000000000010000000000000000000000000000000000000000000000000000000000000002ffffffffffffffffffffffffffffffffffffffffffffffffffffffffffffffff1ca0ea04198fcf6885b2931b45d6aa769f4dd563ee04da5e8f3095abbd49056cf046a01fae039c7453dd0eff7930b00901f7864dc63507ce47571b3d1aeba941e70b78",
                    "logs" : "0x1dcc4de8dec75d7aab85b567b6ccd41ad312451b948a7413f0a142fd40d49347"
                },
                {
                    "indexes" : {
                        "data" : 0,
                        "gas" : 2,
                        "value" : 0
                    },
                    "hash" : "0x1e9dc659f00856fd4a3c091e8e6086fb8199464fb99bba40d0bb9595e09f9a99",
                    "txbytes" : "0xf9010681bb0a8301adb094c305c901078781c232a2a521c2af7980f8385ee980b8a430c8d1da0000000000000000000000000000000000000000000000000000000000000020000000000000000000000000000000000000000000000000000000000000006000000000000000000000000000000000000000000000000000000000000000010000000000000000000000000000000000000000000000000000000000000002ffffffffffffffffffffffffffffffffffffffffffffffffffffffffffffffff1ba0a9d98ed3ccc12ea1a9dbb51445aa8128a47c1381af1a41294d2b54a79fdb9d73a04011a5e0cdb9f70234e204876c1a607dc97108857b80ea95e58e25918437b19e",
                    "logs" : "0x1dcc4de8dec75d7aab85b567b6ccd41ad312451b948a7413f0a142fd40d49347"
                },
                {
                    "indexes" : {
                        "data" : 0,
                        "gas" : 3,
                        "value" : 0
                    },
                    "hash" : "0x1e9dc659f00856fd4a3c091e8e6086fb8199464fb99bba40d0bb9595e09f9a99",
                    "txbytes" : "0xf9010681bb0a83030d4094c305c901078781c232a2a521c2af7980f8385ee980b8a430c8d1da0000000000000000000000000000000000000000000000000000000000000020000000000000000000000000000000000000000000000000000000000000006000000000000000000000000000000000000000000000000000000000000000010000000000000000000000000000000000000000000000000000000000000002ffffffffffffffffffffffffffffffffffffffffffffffffffffffffffffffff1ca0d4ba8c700619a8a58860114eff17001f087ac4a233b249dee729efea9ac2da44a046cf5c37ce5e4bb5a536c6f54f12ec97f545d26fd8004b808cd2f54feb4bf95a",
                    "logs" : "0x1dcc4de8dec75d7aab85b567b6ccd41ad312451b948a7413f0a142fd40d49347"
                }
            ],
            "Istanbul" : [
                {
                    "indexes" : {
                        "data" : 0,
                        "gas" : 0,
                        "value" : 0
                    },
                    "hash" : "0xa1d2d8e5645638049a86d58dc873b7fddabb579056e982d8abe7f65a90cf6b62",
                    "txbytes" : "0xf9010581bb0a827bf894c305c901078781c232a2a521c2af7980f8385ee980b8a430c8d1da0000000000000000000000000000000000000000000000000000000000000020000000000000000000000000000000000000000000000000000000000000006000000000000000000000000000000000000000000000000000000000000000010000000000000000000000000000000000000000000000000000000000000002ffffffffffffffffffffffffffffffffffffffffffffffffffffffffffffffff1ca0e20bff570e174d0350ea98199ad97c5eac77951acd80c1be10ee38c7d258827fa073f5916c1375f75b08d070d6a56b919fa67f03c734940094d2e9aa85179b21c4",
                    "logs" : "0x1dcc4de8dec75d7aab85b567b6ccd41ad312451b948a7413f0a142fd40d49347"
                },
                {
                    "indexes" : {
                        "data" : 0,
                        "gas" : 1,
                        "value" : 0
                    },
                    "hash" : "0x173eed0cefff8aba51bd09834c23973a014c1de2daa6bd5026116fb771061835",
                    "txbytes" : "0xf9010681bb0a83015f9094c305c901078781c232a2a521c2af7980f8385ee980b8a430c8d1da0000000000000000000000000000000000000000000000000000000000000020000000000000000000000000000000000000000000000000000000000000006000000000000000000000000000000000000000000000000000000000000000010000000000000000000000000000000000000000000000000000000000000002ffffffffffffffffffffffffffffffffffffffffffffffffffffffffffffffff1ca0ea04198fcf6885b2931b45d6aa769f4dd563ee04da5e8f3095abbd49056cf046a01fae039c7453dd0eff7930b00901f7864dc63507ce47571b3d1aeba941e70b78",
                    "logs" : "0x1dcc4de8dec75d7aab85b567b6ccd41ad312451b948a7413f0a142fd40d49347"
                },
                {
                    "indexes" : {
                        "data" : 0,
                        "gas" : 2,
                        "value" : 0
                    },
                    "hash" : "0x173eed0cefff8aba51bd09834c23973a014c1de2daa6bd5026116fb771061835",
                    "txbytes" : "0xf9010681bb0a8301adb094c305c901078781c232a2a521c2af7980f8385ee980b8a430c8d1da0000000000000000000000000000000000000000000000000000000000000020000000000000000000000000000000000000000000000000000000000000006000000000000000000000000000000000000000000000000000000000000000010000000000000000000000000000000000000000000000000000000000000002ffffffffffffffffffffffffffffffffffffffffffffffffffffffffffffffff1ba0a9d98ed3ccc12ea1a9dbb51445aa8128a47c1381af1a41294d2b54a79fdb9d73a04011a5e0cdb9f70234e204876c1a607dc97108857b80ea95e58e25918437b19e",
                    "logs" : "0x1dcc4de8dec75d7aab85b567b6ccd41ad312451b948a7413f0a142fd40d49347"
                },
                {
                    "indexes" : {
                        "data" : 0,
                        "gas" : 3,
                        "value" : 0
                    },
                    "hash" : "0x173eed0cefff8aba51bd09834c23973a014c1de2daa6bd5026116fb771061835",
                    "txbytes" : "0xf9010681bb0a83030d4094c305c901078781c232a2a521c2af7980f8385ee980b8a430c8d1da0000000000000000000000000000000000000000000000000000000000000020000000000000000000000000000000000000000000000000000000000000006000000000000000000000000000000000000000000000000000000000000000010000000000000000000000000000000000000000000000000000000000000002ffffffffffffffffffffffffffffffffffffffffffffffffffffffffffffffff1ca0d4ba8c700619a8a58860114eff17001f087ac4a233b249dee729efea9ac2da44a046cf5c37ce5e4bb5a536c6f54f12ec97f545d26fd8004b808cd2f54feb4bf95a",
                    "logs" : "0x1dcc4de8dec75d7aab85b567b6ccd41ad312451b948a7413f0a142fd40d49347"
                }
            ],
            "London" : [
                {
                    "indexes" : {
                        "data" : 0,
                        "gas" : 0,
                        "value" : 0
                    },
                    "hash" : "0x4af9dd72f7692a86f215d867685fa6c78cdc201eafd4beef3d61947b56b3533c",
                    "txbytes" : "0xf9010581bb0a827bf894c305c901078781c232a2a521c2af7980f8385ee980b8a430c8d1da0000000000000000000000000000000000000000000000000000000000000020000000000000000000000000000000000000000000000000000000000000006000000000000000000000000000000000000000000000000000000000000000010000000000000000000000000000000000000000000000000000000000000002ffffffffffffffffffffffffffffffffffffffffffffffffffffffffffffffff1ca0e20bff570e174d0350ea98199ad97c5eac77951acd80c1be10ee38c7d258827fa073f5916c1375f75b08d070d6a56b919fa67f03c734940094d2e9aa85179b21c4",
                    "logs" : "0x1dcc4de8dec75d7aab85b567b6ccd41ad312451b948a7413f0a142fd40d49347"
                },
                {
                    "indexes" : {
                        "data" : 0,
                        "gas" : 1,
                        "value" : 0
                    },
                    "hash" : "0x58adeccac696fcee511b5aa12e71e87e21ad7064e6df143a951ba19308af5c13",
                    "txbytes" : "0xf9010681bb0a83015f9094c305c901078781c232a2a521c2af7980f8385ee980b8a430c8d1da0000000000000000000000000000000000000000000000000000000000000020000000000000000000000000000000000000000000000000000000000000006000000000000000000000000000000000000000000000000000000000000000010000000000000000000000000000000000000000000000000000000000000002ffffffffffffffffffffffffffffffffffffffffffffffffffffffffffffffff1ca0ea04198fcf6885b2931b45d6aa769f4dd563ee04da5e8f3095abbd49056cf046a01fae039c7453dd0eff7930b00901f7864dc63507ce47571b3d1aeba941e70b78",
                    "logs" : "0x1dcc4de8dec75d7aab85b567b6ccd41ad312451b948a7413f0a142fd40d49347"
                },
                {
                    "indexes" : {
                        "data" : 0,
                        "gas" : 2,
                        "value" : 0
                    },
                    "hash" : "0x58adeccac696fcee511b5aa12e71e87e21ad7064e6df143a951ba19308af5c13",
                    "txbytes" : "0xf9010681bb0a8301adb094c305c901078781c232a2a521c2af7980f8385ee980b8a430c8d1da0000000000000000000000000000000000000000000000000000000000000020000000000000000000000000000000000000000000000000000000000000006000000000000000000000000000000000000000000000000000000000000000010000000000000000000000000000000000000000000000000000000000000002ffffffffffffffffffffffffffffffffffffffffffffffffffffffffffffffff1ba0a9d98ed3ccc12ea1a9dbb51445aa8128a47c1381af1a41294d2b54a79fdb9d73a04011a5e0cdb9f70234e204876c1a607dc97108857b80ea95e58e25918437b19e",
                    "logs" : "0x1dcc4de8dec75d7aab85b567b6ccd41ad312451b948a7413f0a142fd40d49347"
                },
                {
                    "indexes" : {
                        "data" : 0,
                        "gas" : 3,
                        "value" : 0
                    },
                    "hash" : "0x58adeccac696fcee511b5aa12e71e87e21ad7064e6df143a951ba19308af5c13",
                    "txbytes" : "0xf9010681bb0a83030d4094c305c901078781c232a2a521c2af7980f8385ee980b8a430c8d1da0000000000000000000000000000000000000000000000000000000000000020000000000000000000000000000000000000000000000000000000000000006000000000000000000000000000000000000000000000000000000000000000010000000000000000000000000000000000000000000000000000000000000002ffffffffffffffffffffffffffffffffffffffffffffffffffffffffffffffff1ca0d4ba8c700619a8a58860114eff17001f087ac4a233b249dee729efea9ac2da44a046cf5c37ce5e4bb5a536c6f54f12ec97f545d26fd8004b808cd2f54feb4bf95a",
                    "logs" : "0x1dcc4de8dec75d7aab85b567b6ccd41ad312451b948a7413f0a142fd40d49347"
                }
            ]
        },
        "pre" : {
            "0x0000000000000000000000000000000000000000" : {
                "balance" : "0x01",
                "code" : "0x",
                "nonce" : "0x00",
                "storage" : {
                }
            },
            "0x0000000000000000000000000000000000000001" : {
                "balance" : "0x01",
                "code" : "0x",
                "nonce" : "0x00",
                "storage" : {
                }
            },
            "0x0000000000000000000000000000000000000002" : {
                "balance" : "0x01",
                "code" : "0x",
                "nonce" : "0x00",
                "storage" : {
                }
            },
            "0x0000000000000000000000000000000000000003" : {
                "balance" : "0x01",
                "code" : "0x",
                "nonce" : "0x00",
                "storage" : {
                }
            },
            "0x0000000000000000000000000000000000000004" : {
                "balance" : "0x01",
                "code" : "0x",
                "nonce" : "0x00",
                "storage" : {
                }
            },
            "0x0000000000000000000000000000000000000005" : {
                "balance" : "0x01",
                "code" : "0x",
                "nonce" : "0x00",
                "storage" : {
                }
            },
            "0x0000000000000000000000000000000000000006" : {
                "balance" : "0x01",
                "code" : "0x",
                "nonce" : "0x00",
                "storage" : {
                }
            },
            "0x0000000000000000000000000000000000000007" : {
                "balance" : "0x01",
                "code" : "0x",
                "nonce" : "0x00",
                "storage" : {
                }
            },
            "0x10a1c1cb95c92ec31d3f22c66eef1d9f3f258c6b" : {
                "balance" : "0x0de0b6b3a7640000",
                "code" : "0x",
                "nonce" : "0x00",
                "storage" : {
                }
            },
            "0x13cbb8d99c6c4e0f2728c7d72606e78a29c4e224" : {
                "balance" : "0x0de0b6b3a7640000",
                "code" : "0x",
                "nonce" : "0x00",
                "storage" : {
                }
            },
            "0x24143873e0e0815fdcbcffdbe09c979cbf9ad013" : {
                "balance" : "0x0de0b6b3a7640000",
                "code" : "0x",
                "nonce" : "0x00",
                "storage" : {
                }
            },
            "0x3535353535353535353535353535353535353535" : {
                "balance" : "0x79fb62",
                "code" : "0x",
                "nonce" : "0x00",
                "storage" : {
                }
            },
            "0x598443f1880ef585b21f1d7585bd0577402861e5" : {
                "balance" : "0x0de0b6b3a7640000",
                "code" : "0x",
                "nonce" : "0x00",
                "storage" : {
                }
            },
            "0x77db2bebba79db42a978f896968f4afce746ea1f" : {
                "balance" : "0x0de0b6b3a7640000",
                "code" : "0x",
                "nonce" : "0x00",
                "storage" : {
                }
            },
            "0x7d577a597b2742b498cb5cf0c26cdcd726d39e6e" : {
                "balance" : "0x0de0b6b3a7640000",
                "code" : "0x",
                "nonce" : "0x00",
                "storage" : {
                }
            },
            "0x82a978b3f5962a5b0957d9ee9eef472ee55b42f1" : {
                "balance" : "0x0de0b6b3a6ea049e",
                "code" : "0x",
                "nonce" : "0xbb",
                "storage" : {
                }
            },
            "0x90f0b1ebbba1c1936aff7aaf20a7878ff9e04b6c" : {
                "balance" : "0x0de0b6b3a7640000",
                "code" : "0x",
                "nonce" : "0x00",
                "storage" : {
                }
            },
            "0xc305c901078781c232a2a521c2af7980f8385ee9" : {
                "balance" : "0x00",
                "code" : "0x600035601c52740100000000000000000000000000000000000000006020526fffffffffffffffffffffffffffffffff6040527fffffffffffffffffffffffffffffffff000000000000000000000000000000016060527402540be3fffffffffffffffffffffffffdabf41c006080527ffffffffffffffffffffffffdabf41c00000000000000000000000002540be40060a0526330c8d1da600051141561012b5760c06004356004013511151558576004356004013560200160043560040161014037604061026061014051610160600060076305f5e0fff11558576040610240526102406060806102c0828460006004601bf15050506102c08051602082012090506000556102c060206020820352604081510160206001820306601f820103905060208203f350005b",
                "nonce" : "0x01",
                "storage" : {
                    "0x00" : "0xad3228b676f7d3cd4284a5443f17f1962b36e491b30a40b2405849e597ba5fb5"
                }
            },
            "0xdceceaf3fc5c0a63d195d69b1a90011b7b19650d" : {
                "balance" : "0x0de0b6b3a7640000",
                "code" : "0x",
                "nonce" : "0x00",
                "storage" : {
                }
            },
            "0xe0fc04fa2d34a66b779fd5cee748268032a146c0" : {
                "balance" : "0x0de0b6b3a7640000",
                "code" : "0x",
                "nonce" : "0x00",
                "storage" : {
                }
            }
        },
        "transaction" : {
            "data" : [
                "0x30c8d1da0000000000000000000000000000000000000000000000000000000000000020000000000000000000000000000000000000000000000000000000000000006000000000000000000000000000000000000000000000000000000000000000010000000000000000000000000000000000000000000000000000000000000002ffffffffffffffffffffffffffffffffffffffffffffffffffffffffffffffff"
            ],
            "gasPrice" : "0x0a",
            "gasLimit" : [
                "0x7bf8",
                "0x015f90",
                "0x01adb0",
                "0x030d40"
            ],
            "nonce" : "0xbb",
            "secretKey" : "0x044852b2a670ade5407e78fb2863c51de9fcb96542a07186fe3aeda6bb8a116d",
            "to" : "0xc305c901078781c232a2a521c2af7980f8385ee9",
            "value" : [
                "0x00"
            ]
        }
    }
}