{
    "ecmul_7827-6598_5617_21000_96" : {
        "_info" : {
            "comment" : "Puts the point (11999875504842010600789954262886096740416429265635183817701593963271973497827, 11843594000332171325303933275547366297934113019079887694534126289021216356598) and the factor 21888242871839275222246405745257275088548364400416034343698204186575808495617 into the ECMUL precompile, truncating or expanding the input data to 96 bytes. Gives the execution 21000 bytes",
            "filling-rpc-server" : "evm version 1.10.4-unstable-966ee3ae-20210528",
            "filling-tool-version" : "retesteth-0.1.1-eip1559+commit.658fc3a8.Linux.g++",
            "lllcversion" : "Version: 0.5.14-develop.2021.5.18+commit.14c9d5de.mod.Linux.g++",
            "source" : "src/GeneralStateTestsFiller/stZeroKnowledge/ecmul_7827-6598_5617_21000_96Filler.json",
            "sourceHash" : "0fb053b86aeb93caf20a5a21c360b67b11a91869f7644635d1ef7a16204c99a0"
        },
        "env" : {
            "currentCoinbase" : "0x3535353535353535353535353535353535353535",
            "currentDifficulty" : "0x020000",
            "currentNumber" : "0x01",
            "currentTimestamp" : "0x03e8",
            "previousHash" : "0xc6745cf3cada515bbfb9573261c82547e0b8f9e3d5dd382e464704a84e47b5ad",
            "currentGasLimit" : "0x05f5e100"
        },
        "post" : {
            "Berlin" : [
                {
                    "indexes" : {
                        "data" : 0,
                        "gas" : 0,
                        "value" : 0
                    },
                    "hash" : "0x215d21f8ce64c6ce603c16e6efb091db3468993326289435ead44a80acfeded8",
                    "txbytes" : "0xf90104520a82bf6094c305c901078781c232a2a521c2af7980f8385ee980b8a430c8d1da000000000000000000000000000000000000000000000000000000000000002000000000000000000000000000000000000000000000000000000000000000601a87b0584ce92f4593d161480614f2989035225609f08058ccfa3d0f940febe31a2f3c951f6dadcc7ee9007dff81504b0fcd6d7cf59996efdc33d92bf7f9f8f630644e72e131a029b85045b68181585d2833e84879b9709143e1f593f00000011ba007d444097e44506e0f4815609420404bca0828b0cd4bea7d4e78820ae67193aea075526c92abcfe04d64d5d7ebdbd170eb2ebebbc9fd41bc83ed4a7217a2fd69b3",
                    "logs" : "0x1dcc4de8dec75d7aab85b567b6ccd41ad312451b948a7413f0a142fd40d49347"
                },
                {
                    "indexes" : {
                        "data" : 0,
                        "gas" : 1,
                        "value" : 0
                    },
                    "hash" : "0xc87433a386d57ba67f42ab3687bc5b40f93a76a1c3c48bb881b747eb81dc50f9",
                    "txbytes" : "0xf90105520a83015f9094c305c901078781c232a2a521c2af7980f8385ee980b8a430c8d1da000000000000000000000000000000000000000000000000000000000000002000000000000000000000000000000000000000000000000000000000000000601a87b0584ce92f4593d161480614f2989035225609f08058ccfa3d0f940febe31a2f3c951f6dadcc7ee9007dff81504b0fcd6d7cf59996efdc33d92bf7f9f8f630644e72e131a029b85045b68181585d2833e84879b9709143e1f593f00000011ca0f490838341cc91b0d09ca8399625cc1ecd9018cb1f5334b92a75544754048dfba02a3d7c750ca5d9c7de933d228a4cccac2429cc1c4400c0be33c5288b05f74e09",
                    "logs" : "0x1dcc4de8dec75d7aab85b567b6ccd41ad312451b948a7413f0a142fd40d49347"
                },
                {
                    "indexes" : {
                        "data" : 0,
                        "gas" : 2,
                        "value" : 0
                    },
                    "hash" : "0xc87433a386d57ba67f42ab3687bc5b40f93a76a1c3c48bb881b747eb81dc50f9",
                    "txbytes" : "0xf90105520a8301adb094c305c901078781c232a2a521c2af7980f8385ee980b8a430c8d1da000000000000000000000000000000000000000000000000000000000000002000000000000000000000000000000000000000000000000000000000000000601a87b0584ce92f4593d161480614f2989035225609f08058ccfa3d0f940febe31a2f3c951f6dadcc7ee9007dff81504b0fcd6d7cf59996efdc33d92bf7f9f8f630644e72e131a029b85045b68181585d2833e84879b9709143e1f593f00000011ca09cb7e16de4fbf6420a07ef10a1578a50fac72431ce17eb41224a2521449fc3a1a0468340df819d937fe59f67d6613ba64917a699f6e06b14cce060a3b5d47b87e5",
                    "logs" : "0x1dcc4de8dec75d7aab85b567b6ccd41ad312451b948a7413f0a142fd40d49347"
                },
                {
                    "indexes" : {
                        "data" : 0,
                        "gas" : 3,
                        "value" : 0
                    },
                    "hash" : "0xc87433a386d57ba67f42ab3687bc5b40f93a76a1c3c48bb881b747eb81dc50f9",
                    "txbytes" : "0xf90105520a83030d4094c305c901078781c232a2a521c2af7980f8385ee980b8a430c8d1da000000000000000000000000000000000000000000000000000000000000002000000000000000000000000000000000000000000000000000000000000000601a87b0584ce92f4593d161480614f2989035225609f08058ccfa3d0f940febe31a2f3c951f6dadcc7ee9007dff81504b0fcd6d7cf59996efdc33d92bf7f9f8f630644e72e131a029b85045b68181585d2833e84879b9709143e1f593f00000011ba05e37d0968ce61a06a0d81b6e495ff01639611d9604ac53e69b23d16e1c0fd773a03aa5b90e658e5b6119748d79c178744a6bcc82e9bcf67ed583feef0e4850df56",
                    "logs" : "0x1dcc4de8dec75d7aab85b567b6ccd41ad312451b948a7413f0a142fd40d49347"
                }
            ],
            "Istanbul" : [
                {
                    "indexes" : {
                        "data" : 0,
                        "gas" : 0,
                        "value" : 0
                    },
                    "hash" : "0x215d21f8ce64c6ce603c16e6efb091db3468993326289435ead44a80acfeded8",
                    "txbytes" : "0xf90104520a82bf6094c305c901078781c232a2a521c2af7980f8385ee980b8a430c8d1da000000000000000000000000000000000000000000000000000000000000002000000000000000000000000000000000000000000000000000000000000000601a87b0584ce92f4593d161480614f2989035225609f08058ccfa3d0f940febe31a2f3c951f6dadcc7ee9007dff81504b0fcd6d7cf59996efdc33d92bf7f9f8f630644e72e131a029b85045b68181585d2833e84879b9709143e1f593f00000011ba007d444097e44506e0f4815609420404bca0828b0cd4bea7d4e78820ae67193aea075526c92abcfe04d64d5d7ebdbd170eb2ebebbc9fd41bc83ed4a7217a2fd69b3",
                    "logs" : "0x1dcc4de8dec75d7aab85b567b6ccd41ad312451b948a7413f0a142fd40d49347"
                },
                {
                    "indexes" : {
                        "data" : 0,
                        "gas" : 1,
                        "value" : 0
                    },
                    "hash" : "0x995c5c171517fe79595f8dc622ba2e00cb1641433cd77176ad3196f4f137b26a",
                    "txbytes" : "0xf90105520a83015f9094c305c901078781c232a2a521c2af7980f8385ee980b8a430c8d1da000000000000000000000000000000000000000000000000000000000000002000000000000000000000000000000000000000000000000000000000000000601a87b0584ce92f4593d161480614f2989035225609f08058ccfa3d0f940febe31a2f3c951f6dadcc7ee9007dff81504b0fcd6d7cf59996efdc33d92bf7f9f8f630644e72e131a029b85045b68181585d2833e84879b9709143e1f593f00000011ca0f490838341cc91b0d09ca8399625cc1ecd9018cb1f5334b92a75544754048dfba02a3d7c750ca5d9c7de933d228a4cccac2429cc1c4400c0be33c5288b05f74e09",
                    "logs" : "0x1dcc4de8dec75d7aab85b567b6ccd41ad312451b948a7413f0a142fd40d49347"
                },
                {
                    "indexes" : {
                        "data" : 0,
                        "gas" : 2,
                        "value" : 0
                    },
                    "hash" : "0x995c5c171517fe79595f8dc622ba2e00cb1641433cd77176ad3196f4f137b26a",
                    "txbytes" : "0xf90105520a8301adb094c305c901078781c232a2a521c2af7980f8385ee980b8a430c8d1da000000000000000000000000000000000000000000000000000000000000002000000000000000000000000000000000000000000000000000000000000000601a87b0584ce92f4593d161480614f2989035225609f08058ccfa3d0f940febe31a2f3c951f6dadcc7ee9007dff81504b0fcd6d7cf59996efdc33d92bf7f9f8f630644e72e131a029b85045b68181585d2833e84879b9709143e1f593f00000011ca09cb7e16de4fbf6420a07ef10a1578a50fac72431ce17eb41224a2521449fc3a1a0468340df819d937fe59f67d6613ba64917a699f6e06b14cce060a3b5d47b87e5",
                    "logs" : "0x1dcc4de8dec75d7aab85b567b6ccd41ad312451b948a7413f0a142fd40d49347"
                },
                {
                    "indexes" : {
                        "data" : 0,
                        "gas" : 3,
                        "value" : 0
                    },
                    "hash" : "0x995c5c171517fe79595f8dc622ba2e00cb1641433cd77176ad3196f4f137b26a",
                    "txbytes" : "0xf90105520a83030d4094c305c901078781c232a2a521c2af7980f8385ee980b8a430c8d1da000000000000000000000000000000000000000000000000000000000000002000000000000000000000000000000000000000000000000000000000000000601a87b0584ce92f4593d161480614f2989035225609f08058ccfa3d0f940febe31a2f3c951f6dadcc7ee9007dff81504b0fcd6d7cf59996efdc33d92bf7f9f8f630644e72e131a029b85045b68181585d2833e84879b9709143e1f593f00000011ba05e37d0968ce61a06a0d81b6e495ff01639611d9604ac53e69b23d16e1c0fd773a03aa5b90e658e5b6119748d79c178744a6bcc82e9bcf67ed583feef0e4850df56",
                    "logs" : "0x1dcc4de8dec75d7aab85b567b6ccd41ad312451b948a7413f0a142fd40d49347"
                }
            ],
            "London" : [
                {
                    "indexes" : {
                        "data" : 0,
                        "gas" : 0,
                        "value" : 0
                    },
                    "hash" : "0xd83a4a21b461713f6ebc389e1dac485a3a2b9358b4b8e37aa81b3c725f9ea20d",
                    "txbytes" : "0xf90104520a82bf6094c305c901078781c232a2a521c2af7980f8385ee980b8a430c8d1da000000000000000000000000000000000000000000000000000000000000002000000000000000000000000000000000000000000000000000000000000000601a87b0584ce92f4593d161480614f2989035225609f08058ccfa3d0f940febe31a2f3c951f6dadcc7ee9007dff81504b0fcd6d7cf59996efdc33d92bf7f9f8f630644e72e131a029b85045b68181585d2833e84879b9709143e1f593f00000011ba007d444097e44506e0f4815609420404bca0828b0cd4bea7d4e78820ae67193aea075526c92abcfe04d64d5d7ebdbd170eb2ebebbc9fd41bc83ed4a7217a2fd69b3",
                    "logs" : "0x1dcc4de8dec75d7aab85b567b6ccd41ad312451b948a7413f0a142fd40d49347"
                },
                {
                    "indexes" : {
                        "data" : 0,
                        "gas" : 1,
                        "value" : 0
                    },
                    "hash" : "0xfb2ea01d16f192bf44fec72a2fad3613ffc3c34562bc0ad4b6ec90b21109366f",
                    "txbytes" : "0xf90105520a83015f9094c305c901078781c232a2a521c2af7980f8385ee980b8a430c8d1da000000000000000000000000000000000000000000000000000000000000002000000000000000000000000000000000000000000000000000000000000000601a87b0584ce92f4593d161480614f2989035225609f08058ccfa3d0f940febe31a2f3c951f6dadcc7ee9007dff81504b0fcd6d7cf59996efdc33d92bf7f9f8f630644e72e131a029b85045b68181585d2833e84879b9709143e1f593f00000011ca0f490838341cc91b0d09ca8399625cc1ecd9018cb1f5334b92a75544754048dfba02a3d7c750ca5d9c7de933d228a4cccac2429cc1c4400c0be33c5288b05f74e09",
                    "logs" : "0x1dcc4de8dec75d7aab85b567b6ccd41ad312451b948a7413f0a142fd40d49347"
                },
                {
                    "indexes" : {
                        "data" : 0,
                        "gas" : 2,
                        "value" : 0
                    },
                    "hash" : "0xfb2ea01d16f192bf44fec72a2fad3613ffc3c34562bc0ad4b6ec90b21109366f",
                    "txbytes" : "0xf90105520a8301adb094c305c901078781c232a2a521c2af7980f8385ee980b8a430c8d1da000000000000000000000000000000000000000000000000000000000000002000000000000000000000000000000000000000000000000000000000000000601a87b0584ce92f4593d161480614f2989035225609f08058ccfa3d0f940febe31a2f3c951f6dadcc7ee9007dff81504b0fcd6d7cf59996efdc33d92bf7f9f8f630644e72e131a029b85045b68181585d2833e84879b9709143e1f593f00000011ca09cb7e16de4fbf6420a07ef10a1578a50fac72431ce17eb41224a2521449fc3a1a0468340df819d937fe59f67d6613ba64917a699f6e06b14cce060a3b5d47b87e5",
                    "logs" : "0x1dcc4de8dec75d7aab85b567b6ccd41ad312451b948a7413f0a142fd40d49347"
                },
                {
                    "indexes" : {
                        "data" : 0,
                        "gas" : 3,
                        "value" : 0
                    },
                    "hash" : "0xfb2ea01d16f192bf44fec72a2fad3613ffc3c34562bc0ad4b6ec90b21109366f",
                    "txbytes" : "0xf90105520a83030d4094c305c901078781c232a2a521c2af7980f8385ee980b8a430c8d1da000000000000000000000000000000000000000000000000000000000000002000000000000000000000000000000000000000000000000000000000000000601a87b0584ce92f4593d161480614f2989035225609f08058ccfa3d0f940febe31a2f3c951f6dadcc7ee9007dff81504b0fcd6d7cf59996efdc33d92bf7f9f8f630644e72e131a029b85045b68181585d2833e84879b9709143e1f593f00000011ba05e37d0968ce61a06a0d81b6e495ff01639611d9604ac53e69b23d16e1c0fd773a03aa5b90e658e5b6119748d79c178744a6bcc82e9bcf67ed583feef0e4850df56",
                    "logs" : "0x1dcc4de8dec75d7aab85b567b6ccd41ad312451b948a7413f0a142fd40d49347"
                }
            ]
        },
        "pre" : {
            "0x0000000000000000000000000000000000000000" : {
                "balance" : "0x01",
                "code" : "0x",
                "nonce" : "0x00",
                "storage" : {
                }
            },
            "0x0000000000000000000000000000000000000001" : {
                "balance" : "0x01",
                "code" : "0x",
                "nonce" : "0x00",
                "storage" : {
                }
            },
            "0x0000000000000000000000000000000000000002" : {
                "balance" : "0x01",
                "code" : "0x",
                "nonce" : "0x00",
                "storage" : {
                }
            },
            "0x0000000000000000000000000000000000000003" : {
                "balance" : "0x01",
                "code" : "0x",
                "nonce" : "0x00",
                "storage" : {
                }
            },
            "0x0000000000000000000000000000000000000004" : {
                "balance" : "0x01",
                "code" : "0x",
                "nonce" : "0x00",
                "storage" : {
                }
            },
            "0x0000000000000000000000000000000000000005" : {
                "balance" : "0x01",
                "code" : "0x",
                "nonce" : "0x00",
                "storage" : {
                }
            },
            "0x0000000000000000000000000000000000000006" : {
                "balance" : "0x01",
                "code" : "0x",
                "nonce" : "0x00",
                "storage" : {
                }
            },
            "0x0000000000000000000000000000000000000007" : {
                "balance" : "0x01",
                "code" : "0x",
                "nonce" : "0x00",
                "storage" : {
                }
            },
            "0x10a1c1cb95c92ec31d3f22c66eef1d9f3f258c6b" : {
                "balance" : "0x0de0b6b3a7640000",
                "code" : "0x",
                "nonce" : "0x00",
                "storage" : {
                }
            },
            "0x13cbb8d99c6c4e0f2728c7d72606e78a29c4e224" : {
                "balance" : "0x0de0b6b3a7640000",
                "code" : "0x",
                "nonce" : "0x00",
                "storage" : {
                }
            },
            "0x24143873e0e0815fdcbcffdbe09c979cbf9ad013" : {
                "balance" : "0x0de0b6b3a7640000",
                "code" : "0x",
                "nonce" : "0x00",
                "storage" : {
                }
            },
            "0x3535353535353535353535353535353535353535" : {
                "balance" : "0x38b10e",
                "code" : "0x",
                "nonce" : "0x00",
                "storage" : {
                }
            },
            "0x598443f1880ef585b21f1d7585bd0577402861e5" : {
                "balance" : "0x0de0b6b3a7640000",
                "code" : "0x",
                "nonce" : "0x00",
                "storage" : {
                }
            },
            "0x77db2bebba79db42a978f896968f4afce746ea1f" : {
                "balance" : "0x0de0b6b3a7640000",
                "code" : "0x",
                "nonce" : "0x00",
                "storage" : {
                }
            },
            "0x7d577a597b2742b498cb5cf0c26cdcd726d39e6e" : {
                "balance" : "0x0de0b6b3a7640000",
                "code" : "0x",
                "nonce" : "0x00",
                "storage" : {
                }
            },
            "0x82a978b3f5962a5b0957d9ee9eef472ee55b42f1" : {
                "balance" : "0x0de0b6b3a72b4ef2",
                "code" : "0x",
                "nonce" : "0x52",
                "storage" : {
                }
            },
            "0x90f0b1ebbba1c1936aff7aaf20a7878ff9e04b6c" : {
                "balance" : "0x0de0b6b3a7640000",
                "code" : "0x",
                "nonce" : "0x00",
                "storage" : {
                }
            },
            "0xc305c901078781c232a2a521c2af7980f8385ee9" : {
                "balance" : "0x00",
                "code" : "0x600035601c52740100000000000000000000000000000000000000006020526fffffffffffffffffffffffffffffffff6040527fffffffffffffffffffffffffffffffff000000000000000000000000000000016060527402540be3fffffffffffffffffffffffffdabf41c006080527ffffffffffffffffffffffffdabf41c00000000000000000000000002540be40060a0526330c8d1da600051141561012b5760c06004356004013511151558576004356004013560200160043560040161014037604061026061014051610160600060076305f5e0fff11558576040610240526102406060806102c0828460006004601bf15050506102c08051602082012090506000556102c060206020820352604081510160206001820306601f820103905060208203f350005b",
                "nonce" : "0x01",
                "storage" : {
                }
            },
            "0xdceceaf3fc5c0a63d195d69b1a90011b7b19650d" : {
                "balance" : "0x0de0b6b3a7640000",
                "code" : "0x",
                "nonce" : "0x00",
                "storage" : {
                }
            },
            "0xe0fc04fa2d34a66b779fd5cee748268032a146c0" : {
                "balance" : "0x0de0b6b3a7640000",
                "code" : "0x",
                "nonce" : "0x00",
                "storage" : {
                }
            }
        },
        "transaction" : {
            "data" : [
                "0x30c8d1da000000000000000000000000000000000000000000000000000000000000002000000000000000000000000000000000000000000000000000000000000000601a87b0584ce92f4593d161480614f2989035225609f08058ccfa3d0f940febe31a2f3c951f6dadcc7ee9007dff81504b0fcd6d7cf59996efdc33d92bf7f9f8f630644e72e131a029b85045b68181585d2833e84879b9709143e1f593f0000001"
            ],
            "gasPrice" : "0x0a",
            "gasLimit" : [
                "0xbf60",
                "0x015f90",
                "0x01adb0",
                "0x030d40"
            ],
            "nonce" : "0x52",
            "secretKey" : "0x044852b2a670ade5407e78fb2863c51de9fcb96542a07186fe3aeda6bb8a116d",
            "to" : "0xc305c901078781c232a2a521c2af7980f8385ee9",
            "value" : [
                "0x00"
            ]
        }
    }
}