{
    "ecmul_1-3_9935_21000_96" : {
        "_info" : {
            "comment" : "Puts the point (1, 3) and the factor 115792089237316195423570985008687907853269984665640564039457584007913129639935 into the ECMUL precompile, truncating or expanding the input data to 96 bytes. Gives the execution 21000 bytes",
            "filling-rpc-server" : "evm version 1.10.4-unstable-966ee3ae-20210528",
            "filling-tool-version" : "retesteth-0.1.1-eip1559+commit.658fc3a8.Linux.g++",
            "lllcversion" : "Version: 0.5.14-develop.2021.5.18+commit.14c9d5de.mod.Linux.g++",
            "source" : "src/GeneralStateTestsFiller/stZeroKnowledge/ecmul_1-3_9935_21000_96Filler.json",
            "sourceHash" : "cb3a2f2fea965287f646b7771675efbad2d33f8d7e6c87127e273ee632d19b5d"
        },
        "env" : {
            "currentCoinbase" : "0x3535353535353535353535353535353535353535",
            "currentDifficulty" : "0x020000",
            "currentNumber" : "0x01",
            "currentTimestamp" : "0x03e8",
            "previousHash" : "0xc6745cf3cada515bbfb9573261c82547e0b8f9e3d5dd382e464704a84e47b5ad",
            "currentGasLimit" : "0x05f5e100"
        },
        "post" : {
            "Berlin" : [
                {
                    "indexes" : {
                        "data" : 0,
                        "gas" : 0,
                        "value" : 0
                    },
                    "hash" : "0xc88ba9456bcb0ffe6cb90cac60cd7e513252faada613ece67cd82abec8bdff8e",
                    "txbytes" : "0xf901045e0a82b0a094c305c901078781c232a2a521c2af7980f8385ee980b8a430c8d1da0000000000000000000000000000000000000000000000000000000000000020000000000000000000000000000000000000000000000000000000000000006000000000000000000000000000000000000000000000000000000000000000010000000000000000000000000000000000000000000000000000000000000003ffffffffffffffffffffffffffffffffffffffffffffffffffffffffffffffff1ba0d10b6ed9c1f0a943e2fd14abfc889fadb85466164ee261711be82c7144703462a03831f24cd8ceaa5060d923fbc1639e574fa38a00c0bf019eb3a51c2c5c0fc949",
                    "logs" : "0x1dcc4de8dec75d7aab85b567b6ccd41ad312451b948a7413f0a142fd40d49347"
                },
                {
                    "indexes" : {
                        "data" : 0,
                        "gas" : 1,
                        "value" : 0
                    },
                    "hash" : "0x0179c95d755d862515fcbfcb48ad2c9b07c36e0dff2ddd54efab07b1e6f0229c",
                    "txbytes" : "0xf901055e0a83015f9094c305c901078781c232a2a521c2af7980f8385ee980b8a430c8d1da0000000000000000000000000000000000000000000000000000000000000020000000000000000000000000000000000000000000000000000000000000006000000000000000000000000000000000000000000000000000000000000000010000000000000000000000000000000000000000000000000000000000000003ffffffffffffffffffffffffffffffffffffffffffffffffffffffffffffffff1ba0b557bb8e7c01a6b76c5eb92aa8e5235a1f43d39583c2a57cbeaac3caea024461a00ba77bd750ba26b8bee5e111d1a262acf03d3fe70a0886b9354df23d19727d3e",
                    "logs" : "0x1dcc4de8dec75d7aab85b567b6ccd41ad312451b948a7413f0a142fd40d49347"
                },
                {
                    "indexes" : {
                        "data" : 0,
                        "gas" : 2,
                        "value" : 0
                    },
                    "hash" : "0x6699c438e5203091c079cc6fd6ea8752419a8c6f200d6f13e80de104147ba405",
                    "txbytes" : "0xf901055e0a8301adb094c305c901078781c232a2a521c2af7980f8385ee980b8a430c8d1da0000000000000000000000000000000000000000000000000000000000000020000000000000000000000000000000000000000000000000000000000000006000000000000000000000000000000000000000000000000000000000000000010000000000000000000000000000000000000000000000000000000000000003ffffffffffffffffffffffffffffffffffffffffffffffffffffffffffffffff1ca05613cd570f693f9b7f52b6bce73bb663cef0c11d23a30e0649b0fe48d2125493a029f7b4daeebf117bb05e54017b7e927fe3e477cd6d58551c9ae896ff7234045b",
                    "logs" : "0x1dcc4de8dec75d7aab85b567b6ccd41ad312451b948a7413f0a142fd40d49347"
                },
                {
                    "indexes" : {
                        "data" : 0,
                        "gas" : 3,
                        "value" : 0
                    },
                    "hash" : "0xd8e4d8f1b28a02b3f5f84a3b42596ddb447405c6172185a62cafdda24e125a47",
                    "txbytes" : "0xf901055e0a83030d4094c305c901078781c232a2a521c2af7980f8385ee980b8a430c8d1da0000000000000000000000000000000000000000000000000000000000000020000000000000000000000000000000000000000000000000000000000000006000000000000000000000000000000000000000000000000000000000000000010000000000000000000000000000000000000000000000000000000000000003ffffffffffffffffffffffffffffffffffffffffffffffffffffffffffffffff1ca0207c99179898ad0f9e69178a37414e0da1d8a573954e820fdc39a3cc53920491a075691342060a4f1eb355bf81d3b216ac873ef4225dc0f295dfef09e618a6b64d",
                    "logs" : "0x1dcc4de8dec75d7aab85b567b6ccd41ad312451b948a7413f0a142fd40d49347"
                }
            ],
            "Istanbul" : [
                {
                    "indexes" : {
                        "data" : 0,
                        "gas" : 0,
                        "value" : 0
                    },
                    "hash" : "0xc88ba9456bcb0ffe6cb90cac60cd7e513252faada613ece67cd82abec8bdff8e",
                    "txbytes" : "0xf901045e0a82b0a094c305c901078781c232a2a521c2af7980f8385ee980b8a430c8d1da0000000000000000000000000000000000000000000000000000000000000020000000000000000000000000000000000000000000000000000000000000006000000000000000000000000000000000000000000000000000000000000000010000000000000000000000000000000000000000000000000000000000000003ffffffffffffffffffffffffffffffffffffffffffffffffffffffffffffffff1ba0d10b6ed9c1f0a943e2fd14abfc889fadb85466164ee261711be82c7144703462a03831f24cd8ceaa5060d923fbc1639e574fa38a00c0bf019eb3a51c2c5c0fc949",
                    "logs" : "0x1dcc4de8dec75d7aab85b567b6ccd41ad312451b948a7413f0a142fd40d49347"
                },
                {
                    "indexes" : {
                        "data" : 0,
                        "gas" : 1,
                        "value" : 0
                    },
                    "hash" : "0x0179c95d755d862515fcbfcb48ad2c9b07c36e0dff2ddd54efab07b1e6f0229c",
                    "txbytes" : "0xf901055e0a83015f9094c305c901078781c232a2a521c2af7980f8385ee980b8a430c8d1da0000000000000000000000000000000000000000000000000000000000000020000000000000000000000000000000000000000000000000000000000000006000000000000000000000000000000000000000000000000000000000000000010000000000000000000000000000000000000000000000000000000000000003ffffffffffffffffffffffffffffffffffffffffffffffffffffffffffffffff1ba0b557bb8e7c01a6b76c5eb92aa8e5235a1f43d39583c2a57cbeaac3caea024461a00ba77bd750ba26b8bee5e111d1a262acf03d3fe70a0886b9354df23d19727d3e",
                    "logs" : "0x1dcc4de8dec75d7aab85b567b6ccd41ad312451b948a7413f0a142fd40d49347"
                },
                {
                    "indexes" : {
                        "data" : 0,
                        "gas" : 2,
                        "value" : 0
                    },
                    "hash" : "0x6699c438e5203091c079cc6fd6ea8752419a8c6f200d6f13e80de104147ba405",
                    "txbytes" : "0xf901055e0a8301adb094c305c901078781c232a2a521c2af7980f8385ee980b8a430c8d1da0000000000000000000000000000000000000000000000000000000000000020000000000000000000000000000000000000000000000000000000000000006000000000000000000000000000000000000000000000000000000000000000010000000000000000000000000000000000000000000000000000000000000003ffffffffffffffffffffffffffffffffffffffffffffffffffffffffffffffff1ca05613cd570f693f9b7f52b6bce73bb663cef0c11d23a30e0649b0fe48d2125493a029f7b4daeebf117bb05e54017b7e927fe3e477cd6d58551c9ae896ff7234045b",
                    "logs" : "0x1dcc4de8dec75d7aab85b567b6ccd41ad312451b948a7413f0a142fd40d49347"
                },
                {
                    "indexes" : {
                        "data" : 0,
                        "gas" : 3,
                        "value" : 0
                    },
                    "hash" : "0xd8e4d8f1b28a02b3f5f84a3b42596ddb447405c6172185a62cafdda24e125a47",
                    "txbytes" : "0xf901055e0a83030d4094c305c901078781c232a2a521c2af7980f8385ee980b8a430c8d1da0000000000000000000000000000000000000000000000000000000000000020000000000000000000000000000000000000000000000000000000000000006000000000000000000000000000000000000000000000000000000000000000010000000000000000000000000000000000000000000000000000000000000003ffffffffffffffffffffffffffffffffffffffffffffffffffffffffffffffff1ca0207c99179898ad0f9e69178a37414e0da1d8a573954e820fdc39a3cc53920491a075691342060a4f1eb355bf81d3b216ac873ef4225dc0f295dfef09e618a6b64d",
                    "logs" : "0x1dcc4de8dec75d7aab85b567b6ccd41ad312451b948a7413f0a142fd40d49347"
                }
            ],
            "London" : [
                {
                    "indexes" : {
                        "data" : 0,
                        "gas" : 0,
                        "value" : 0
                    },
                    "hash" : "0x05ec05f0297f055d42437948a52cda398a1eb19179bef123553df39f9b93e385",
                    "txbytes" : "0xf901045e0a82b0a094c305c901078781c232a2a521c2af7980f8385ee980b8a430c8d1da0000000000000000000000000000000000000000000000000000000000000020000000000000000000000000000000000000000000000000000000000000006000000000000000000000000000000000000000000000000000000000000000010000000000000000000000000000000000000000000000000000000000000003ffffffffffffffffffffffffffffffffffffffffffffffffffffffffffffffff1ba0d10b6ed9c1f0a943e2fd14abfc889fadb85466164ee261711be82c7144703462a03831f24cd8ceaa5060d923fbc1639e574fa38a00c0bf019eb3a51c2c5c0fc949",
                    "logs" : "0x1dcc4de8dec75d7aab85b567b6ccd41ad312451b948a7413f0a142fd40d49347"
                },
                {
                    "indexes" : {
                        "data" : 0,
                        "gas" : 1,
                        "value" : 0
                    },
                    "hash" : "0xcddca45b7b8448068b565c57267c4a5d789ed1527d76b748b3baf37773205b0a",
                    "txbytes" : "0xf901055e0a83015f9094c305c901078781c232a2a521c2af7980f8385ee980b8a430c8d1da0000000000000000000000000000000000000000000000000000000000000020000000000000000000000000000000000000000000000000000000000000006000000000000000000000000000000000000000000000000000000000000000010000000000000000000000000000000000000000000000000000000000000003ffffffffffffffffffffffffffffffffffffffffffffffffffffffffffffffff1ba0b557bb8e7c01a6b76c5eb92aa8e5235a1f43d39583c2a57cbeaac3caea024461a00ba77bd750ba26b8bee5e111d1a262acf03d3fe70a0886b9354df23d19727d3e",
                    "logs" : "0x1dcc4de8dec75d7aab85b567b6ccd41ad312451b948a7413f0a142fd40d49347"
                },
                {
                    "indexes" : {
                        "data" : 0,
                        "gas" : 2,
                        "value" : 0
                    },
                    "hash" : "0xc47fe399c6cae6e70db4b5473e1a4b9018a9d61d644bcf834b5d5ae799b1bec1",
                    "txbytes" : "0xf901055e0a8301adb094c305c901078781c232a2a521c2af7980f8385ee980b8a430c8d1da0000000000000000000000000000000000000000000000000000000000000020000000000000000000000000000000000000000000000000000000000000006000000000000000000000000000000000000000000000000000000000000000010000000000000000000000000000000000000000000000000000000000000003ffffffffffffffffffffffffffffffffffffffffffffffffffffffffffffffff1ca05613cd570f693f9b7f52b6bce73bb663cef0c11d23a30e0649b0fe48d2125493a029f7b4daeebf117bb05e54017b7e927fe3e477cd6d58551c9ae896ff7234045b",
                    "logs" : "0x1dcc4de8dec75d7aab85b567b6ccd41ad312451b948a7413f0a142fd40d49347"
                },
                {
                    "indexes" : {
                        "data" : 0,
                        "gas" : 3,
                        "value" : 0
                    },
                    "hash" : "0xa8eedbb495f1b46327fe348d5eb0e98a34a6bbbb2d7bdbbaa105026471c60ed5",
                    "txbytes" : "0xf901055e0a83030d4094c305c901078781c232a2a521c2af7980f8385ee980b8a430c8d1da0000000000000000000000000000000000000000000000000000000000000020000000000000000000000000000000000000000000000000000000000000006000000000000000000000000000000000000000000000000000000000000000010000000000000000000000000000000000000000000000000000000000000003ffffffffffffffffffffffffffffffffffffffffffffffffffffffffffffffff1ca0207c99179898ad0f9e69178a37414e0da1d8a573954e820fdc39a3cc53920491a075691342060a4f1eb355bf81d3b216ac873ef4225dc0f295dfef09e618a6b64d",
                    "logs" : "0x1dcc4de8dec75d7aab85b567b6ccd41ad312451b948a7413f0a142fd40d49347"
                }
            ]
        },
        "pre" : {
            "0x0000000000000000000000000000000000000000" : {
                "balance" : "0x01",
                "code" : "0x",
                "nonce" : "0x00",
                "storage" : {
                }
            },
            "0x0000000000000000000000000000000000000001" : {
                "balance" : "0x01",
                "code" : "0x",
                "nonce" : "0x00",
                "storage" : {
                }
            },
            "0x0000000000000000000000000000000000000002" : {
                "balance" : "0x01",
                "code" : "0x",
                "nonce" : "0x00",
                "storage" : {
                }
            },
            "0x0000000000000000000000000000000000000003" : {
                "balance" : "0x01",
                "code" : "0x",
                "nonce" : "0x00",
                "storage" : {
                }
            },
            "0x0000000000000000000000000000000000000004" : {
                "balance" : "0x01",
                "code" : "0x",
                "nonce" : "0x00",
                "storage" : {
                }
            },
            "0x0000000000000000000000000000000000000005" : {
                "balance" : "0x01",
                "code" : "0x",
                "nonce" : "0x00",
                "storage" : {
                }
            },
            "0x0000000000000000000000000000000000000006" : {
                "balance" : "0x01",
                "code" : "0x",
                "nonce" : "0x00",
                "storage" : {
                }
            },
            "0x0000000000000000000000000000000000000007" : {
                "balance" : "0x01",
                "code" : "0x",
                "nonce" : "0x00",
                "storage" : {
                }
            },
            "0x10a1c1cb95c92ec31d3f22c66eef1d9f3f258c6b" : {
                "balance" : "0x0de0b6b3a7640000",
                "code" : "0x",
                "nonce" : "0x00",
                "storage" : {
                }
            },
            "0x13cbb8d99c6c4e0f2728c7d72606e78a29c4e224" : {
                "balance" : "0x0de0b6b3a7640000",
                "code" : "0x",
                "nonce" : "0x00",
                "storage" : {
                }
            },
            "0x24143873e0e0815fdcbcffdbe09c979cbf9ad013" : {
                "balance" : "0x0de0b6b3a7640000",
                "code" : "0x",
                "nonce" : "0x00",
                "storage" : {
                }
            },
            "0x3535353535353535353535353535353535353535" : {
                "balance" : "0x41340e",
                "code" : "0x",
                "nonce" : "0x00",
                "storage" : {
                }
            },
            "0x598443f1880ef585b21f1d7585bd0577402861e5" : {
                "balance" : "0x0de0b6b3a7640000",
                "code" : "0x",
                "nonce" : "0x00",
                "storage" : {
                }
            },
            "0x77db2bebba79db42a978f896968f4afce746ea1f" : {
                "balance" : "0x0de0b6b3a7640000",
                "code" : "0x",
                "nonce" : "0x00",
                "storage" : {
                }
            },
            "0x7d577a597b2742b498cb5cf0c26cdcd726d39e6e" : {
                "balance" : "0x0de0b6b3a7640000",
                "code" : "0x",
                "nonce" : "0x00",
                "storage" : {
                }
            },
            "0x82a978b3f5962a5b0957d9ee9eef472ee55b42f1" : {
                "balance" : "0x0de0b6b3a722cbf2",
                "code" : "0x",
                "nonce" : "0x5e",
                "storage" : {
                }
            },
            "0x90f0b1ebbba1c1936aff7aaf20a7878ff9e04b6c" : {
                "balance" : "0x0de0b6b3a7640000",
                "code" : "0x",
                "nonce" : "0x00",
                "storage" : {
                }
            },
            "0xc305c901078781c232a2a521c2af7980f8385ee9" : {
                "balance" : "0x00",
                "code" : "0x600035601c52740100000000000000000000000000000000000000006020526fffffffffffffffffffffffffffffffff6040527fffffffffffffffffffffffffffffffff000000000000000000000000000000016060527402540be3fffffffffffffffffffffffffdabf41c006080527ffffffffffffffffffffffffdabf41c00000000000000000000000002540be40060a0526330c8d1da600051141561012b5760c06004356004013511151558576004356004013560200160043560040161014037604061026061014051610160600060076305f5e0fff11558576040610240526102406060806102c0828460006004601bf15050506102c08051602082012090506000556102c060206020820352604081510160206001820306601f820103905060208203f350005b",
                "nonce" : "0x01",
                "storage" : {
                }
            },
            "0xdceceaf3fc5c0a63d195d69b1a90011b7b19650d" : {
                "balance" : "0x0de0b6b3a7640000",
                "code" : "0x",
                "nonce" : "0x00",
                "storage" : {
                }
            },
            "0xe0fc04fa2d34a66b779fd5cee748268032a146c0" : {
                "balance" : "0x0de0b6b3a7640000",
                "code" : "0x",
                "nonce" : "0x00",
                "storage" : {
                }
            }
        },
        "transaction" : {
            "data" : [
                "0x30c8d1da0000000000000000000000000000000000000000000000000000000000000020000000000000000000000000000000000000000000000000000000000000006000000000000000000000000000000000000000000000000000000000000000010000000000000000000000000000000000000000000000000000000000000003ffffffffffffffffffffffffffffffffffffffffffffffffffffffffffffffff"
            ],
            "gasPrice" : "0x0a",
            "gasLimit" : [
                "0xb0a0",
                "0x015f90",
                "0x01adb0",
                "0x030d40"
            ],
            "nonce" : "0x5e",
            "secretKey" : "0x044852b2a670ade5407e78fb2863c51de9fcb96542a07186fe3aeda6bb8a116d",
            "to" : "0xc305c901078781c232a2a521c2af7980f8385ee9",
            "value" : [
                "0x00"
            ]
        }
    }
}