{
    "coinbaseT2" : {
        "_info" : {
            "comment" : "Ori Pomerantz qbzzt1@gmail.com",
            "filling-rpc-server" : "evm version 1.10.4-unstable-966ee3ae-20210528",
            "filling-tool-version" : "retesteth-0.1.1-eip1559+commit.27b32aba.Linux.g++",
            "lllcversion" : "Version: 0.5.14-develop.2021.5.18+commit.14c9d5de.mod.Linux.g++",
            "source" : "src/GeneralStateTestsFiller/stEIP2930/coinbaseT2Filler.yml",
            "sourceHash" : "4e815a89cc0cc898d493cd99d3c0aa792987dfc3f4dcfee3a9e5221ff949ad5e",
            "labels" : {
                "0" : ":label T2baseInList",
                "1" : ":label T2baseNotInList"
            }
        },
        "env" : {
            "currentCoinbase" : "0x000000000000000000000000000000000000ba5e",
            "currentDifficulty" : "0x020000",
            "currentNumber" : "0x01",
            "currentTimestamp" : "0x03e8",
            "previousHash" : "0x5e20a0453cecd065ea59c37ac63e079ee08998b6045136a8ce6635c7912ec0b6",
            "currentGasLimit" : "0xff112233445566",
            "currentBaseFee" : "0x64"
        },
        "post" : {
            "London" : [
                {
                    "indexes" : {
                        "data" : 0,
                        "gas" : 0,
                        "value" : 0
                    },
                    "hash" : "0x1c8f398c6a243ffec2e8f63ef816e48c3af0fbbafc875837c75bb78b555f40aa",
                    "txbytes" : "0x02f8a10101648227108402625a0094000000000000000000000000000000000000c0de80a4693c61390000000000000000000000000000000000000000000000000000000000000000d7d694000000000000000000000000000000000000ba5ec080a0d5a3052a8cc387f35ffdebe832afdfdd45980cdcbb9b926dee7fb9b1d9a4ee08a06210d404eb6aecd05bc214b120959a71ede9fadcae4b769c96c58bffa216f205",
                    "logs" : "0x1dcc4de8dec75d7aab85b567b6ccd41ad312451b948a7413f0a142fd40d49347"
                },
                {
                    "indexes" : {
                        "data" : 1,
                        "gas" : 0,
                        "value" : 0
                    },
                    "hash" : "0xa0ca8c3dc6c4b54828ffd3e89c977b345c9c152246c9c38cc2c9ee78fb0621b1",
                    "txbytes" : "0x02f8a10101648227108402625a0094000000000000000000000000000000000000c0de80a4693c61390000000000000000000000000000000000000000000000000000000000000000d7d694000000000000000000000000000000000000ba5ac080a041870d7c20b48b485d76c28565c7da72ff32b28901157b4e815b2481795edb64a02923e080922a492542d9aaba935f81441a85df4465cacd3c204de6d38cd7ce03",
                    "logs" : "0x1dcc4de8dec75d7aab85b567b6ccd41ad312451b948a7413f0a142fd40d49347"
                }
            ]
        },
        "pre" : {
            "0x000000000000000000000000000000000000ba5e" : {
                "balance" : "0x00",
                "code" : "0x",
                "nonce" : "0x01",
                "storage" : {
                }
            },
            "0x000000000000000000000000000000000000c0de" : {
                "balance" : "0x0de0b6b3a7640000",
                "code" : "0x5a6000526000600060006000620f424061ba5e5af1505a60205260216020516000510303600055",
                "nonce" : "0x01",
                "storage" : {
                }
            },
            "0xa94f5374fce5edbc8e2a8697c15331677e6ebf0b" : {
                "balance" : "0x0de0b6b3a7640000",
                "code" : "0x",
                "nonce" : "0x01",
                "storage" : {
                }
            }
        },
        "transaction" : {
            "data" : [
                "0x693c61390000000000000000000000000000000000000000000000000000000000000000",
                "0x693c61390000000000000000000000000000000000000000000000000000000000000000"
            ],
            "accessLists" : [
                [
                    {
                        "address" : "0x000000000000000000000000000000000000ba5e",
                        "storageKeys" : [
                        ]
                    }
                ],
                [
                    {
                        "address" : "0x000000000000000000000000000000000000ba5a",
                        "storageKeys" : [
                        ]
                    }
                ]
            ],
            "maxFeePerGas" : "0x2710",
            "maxPriorityFeePerGas" : "0x64",
            "gasLimit" : [
                "0x02625a00"
            ],
            "nonce" : "0x01",
            "secretKey" : "0x45a915e4d060149eb4365960e6a7a45f334393093061116b197e3240065ff2d8",
            "to" : "0x000000000000000000000000000000000000c0de",
            "value" : [
                "0x00"
            ]
        }
    }
}