{
    "CreateCollisionToEmpty_d0g1v1_Byzantium" : {
        "_info" : {
            "comment" : "data0 - create collision to empty, data1 - to empty but nonce, data2 - to contract with code",
            "filledwith" : "testeth 1.7.0-alpha.1-20+commit.782a7283",
            "lllcversion" : "Version: 0.5.0-develop.2018.11.9+commit.9709dfe0.Linux.g++",
            "source" : "src/BlockchainTestsFiller/GeneralStateTests/stCreateTest/CreateCollisionToEmpty_d0g1v1Filler.json",
            "sourceHash" : "028627f525978036da9a190c3bb958fbb787066025bc61570ad88d6b25236c7b"
        },
        "blocks" : [
            {
                "blockHeader" : {
                    "bloom" : "0x00000000000000000000000000000000000000000000000000000000000000000000000000000000000000000000000000000000000000000000000000000000000000000000000000000000000000000000000000000000000000000000000000000000000000000000000000000000000000000000000000000000000000000000000000000000000000000000000000000000000000000000000000000000000000000000000000000000000000000000000000000000000000000000000000000000000000000000000000000000000000000000000000000000000000000000000000000000000000000000000000000000000000000000000000000000",
                    "coinbase" : "0x2adc25665018aa1fe0e6bc666dac8fc2697ff9ba",
                    "difficulty" : "0x020000",
                    "extraData" : "0x",
                    "gasLimit" : "0x989680",
                    "gasUsed" : "0xd0fb",
                    "hash" : "0x40b1de51e3189f5cc206fae756dc47c7bc10ff702fe8bc462048147b0c9e8982",
                    "mixHash" : "0x0000000000000000000000000000000000000000000000000000000000000000",
                    "nonce" : "0x0000000000000000",
                    "number" : "0x01",
                    "parentHash" : "0x3c8c8dfd5623ff622fd4830cdcac18c7107f47263b12be313eac6c01cacbbe7a",
                    "receiptTrie" : "0xe265843b0e1d42d26eb82c756367a5faef9595a5a1d6950c97488b078654e0f7",
                    "stateRoot" : "0x76f4fd8c9429a7544909915b519a4de8aca39af8700b94cfb3526d2b0ad0ac52",
                    "timestamp" : "0x03e8",
                    "transactionsTrie" : "0x7b126336eaacf7da18fa20bac032f388a440ecc5b71a31d9efba08879bed1fb7",
                    "uncleHash" : "0x1dcc4de8dec75d7aab85b567b6ccd41ad312451b948a7413f0a142fd40d49347"
                },
                "rlp" : "0xf9027ef901f7a03c8c8dfd5623ff622fd4830cdcac18c7107f47263b12be313eac6c01cacbbe7aa01dcc4de8dec75d7aab85b567b6ccd41ad312451b948a7413f0a142fd40d49347942adc25665018aa1fe0e6bc666dac8fc2697ff9baa076f4fd8c9429a7544909915b519a4de8aca39af8700b94cfb3526d2b0ad0ac52a07b126336eaacf7da18fa20bac032f388a440ecc5b71a31d9efba08879bed1fb7a0e265843b0e1d42d26eb82c756367a5faef9595a5a1d6950c97488b078654e0f7b901000000000000000000000000000000000000000000000000000000000000000000000000000000000000000000000000000000000000000000000000000000000000000000000000000000000000000000000000000000000000000000000000000000000000000000000000000000000000000000000000000000000000000000000000000000000000000000000000000000000000000000000000000000000000000000000000000000000000000000000000000000000000000000000000000000000000000000000000000000000000000000000000000000000000000000000000000000000000000000000000000000000000000000000000000000000083020000018398968082d0fb8203e880a00000000000000000000000000000000000000000000000000000000000000000880000000000000000f881f87f800182d2f0941a0000000000000000000000000000000000000001a000000000000000000000000010000000000000000000000000000000000000001ca05745c54b56e13a5542e5f5a9a50be956cb14f5d8697752ad093665722310138ea004e28311f4e7b84d722664e9e0abd570672dff2ece0b83891a172662b0774f7bc0",
                "transactions" : [
                    {
                        "data" : "0x0000000000000000000000001000000000000000000000000000000000000000",
                        "gasLimit" : "0xd2f0",
                        "gasPrice" : "0x01",
                        "nonce" : "0x00",
                        "r" : "0x5745c54b56e13a5542e5f5a9a50be956cb14f5d8697752ad093665722310138e",
                        "s" : "0x04e28311f4e7b84d722664e9e0abd570672dff2ece0b83891a172662b0774f7b",
                        "to" : "0x1a00000000000000000000000000000000000000",
                        "v" : "0x1c",
                        "value" : "0x01"
                    }
                ],
                "uncleHeaders" : [
                ]
            }
        ],
        "genesisBlockHeader" : {
            "bloom" : "0x00000000000000000000000000000000000000000000000000000000000000000000000000000000000000000000000000000000000000000000000000000000000000000000000000000000000000000000000000000000000000000000000000000000000000000000000000000000000000000000000000000000000000000000000000000000000000000000000000000000000000000000000000000000000000000000000000000000000000000000000000000000000000000000000000000000000000000000000000000000000000000000000000000000000000000000000000000000000000000000000000000000000000000000000000000000",
            "coinbase" : "0x2adc25665018aa1fe0e6bc666dac8fc2697ff9ba",
            "difficulty" : "0x020000",
            "extraData" : "0x42",
            "gasLimit" : "0x989680",
            "gasUsed" : "0x00",
            "hash" : "0x3c8c8dfd5623ff622fd4830cdcac18c7107f47263b12be313eac6c01cacbbe7a",
            "mixHash" : "0x56e81f171bcc55a6ff8345e692c0f86e5b48e01b996cadc001622fb5e363b421",
            "nonce" : "0x0102030405060708",
            "number" : "0x00",
            "parentHash" : "0x0000000000000000000000000000000000000000000000000000000000000000",
            "receiptTrie" : "0x56e81f171bcc55a6ff8345e692c0f86e5b48e01b996cadc001622fb5e363b421",
            "stateRoot" : "0x36a0b77009bfc68d50894678ded36eb5aa49e4db3588266364b78fab96929cdd",
            "timestamp" : "0x03b6",
            "transactionsTrie" : "0x56e81f171bcc55a6ff8345e692c0f86e5b48e01b996cadc001622fb5e363b421",
            "uncleHash" : "0x1dcc4de8dec75d7aab85b567b6ccd41ad312451b948a7413f0a142fd40d49347"
        },
        "genesisRLP" : "0xf901faf901f5a00000000000000000000000000000000000000000000000000000000000000000a01dcc4de8dec75d7aab85b567b6ccd41ad312451b948a7413f0a142fd40d49347942adc25665018aa1fe0e6bc666dac8fc2697ff9baa036a0b77009bfc68d50894678ded36eb5aa49e4db3588266364b78fab96929cdda056e81f171bcc55a6ff8345e692c0f86e5b48e01b996cadc001622fb5e363b421a056e81f171bcc55a6ff8345e692c0f86e5b48e01b996cadc001622fb5e363b421b9010000000000000000000000000000000000000000000000000000000000000000000000000000000000000000000000000000000000000000000000000000000000000000000000000000000000000000000000000000000000000000000000000000000000000000000000000000000000000000000000000000000000000000000000000000000000000000000000000000000000000000000000000000000000000000000000000000000000000000000000000000000000000000000000000000000000000000000000000000000000000000000000000000000000000000000000000000000000000000000000000000000000000000000000000000000000830200008083989680808203b642a056e81f171bcc55a6ff8345e692c0f86e5b48e01b996cadc001622fb5e363b421880102030405060708c0c0",
        "lastblockhash" : "0x40b1de51e3189f5cc206fae756dc47c7bc10ff702fe8bc462048147b0c9e8982",
        "network" : "Byzantium",
        "postState" : {
            "0x0bf4c804e0579073baf54ec4ec37cd04f3455c65" : {
                "balance" : "0x00",
                "code" : "0x",
                "nonce" : "0x02",
                "storage" : {
                }
            },
            "0x1000000000000000000000000000000000000000" : {
                "balance" : "0x00",
                "code" : "0x6460016001556000526005601b6000f0600155",
                "nonce" : "0x00",
                "storage" : {
                }
            },
            "0x13136008b64ff592819b2fa6d43f2835c452020e" : {
                "balance" : "0x00",
                "code" : "0x",
                "nonce" : "0x00",
                "storage" : {
                }
            },
            "0x1a00000000000000000000000000000000000000" : {
                "balance" : "0x01",
                "code" : "0x6000600060006000600060003562013880f1",
                "nonce" : "0x00",
                "storage" : {
                }
            },
            "0x2000000000000000000000000000000000000000" : {
                "balance" : "0x00",
                "code" : "0x6460016001556000526005601b6000f0600155",
                "nonce" : "0x00",
                "storage" : {
                }
            },
            "0x2adc25665018aa1fe0e6bc666dac8fc2697ff9ba" : {
                "balance" : "0x29a2241af62cd0fb",
                "code" : "0x",
                "nonce" : "0x00",
                "storage" : {
                }
            },
            "0x3000000000000000000000000000000000000000" : {
                "balance" : "0x00",
                "code" : "0x6460016001556000526005601b6000f0600155",
                "nonce" : "0x00",
                "storage" : {
                }
            },
            "0x4b86c4ed99b87f0f396bc0c76885453c343916ed" : {
                "balance" : "0x00",
                "code" : "0x1122334455",
                "nonce" : "0x00",
                "storage" : {
                }
            },
            "0xa94f5374fce5edbc8e2a8697c15331677e6ebf0b" : {
                "balance" : "0xe8d4a43f04",
                "code" : "0x",
                "nonce" : "0x01",
                "storage" : {
                }
            }
        },
        "pre" : {
            "0x0bf4c804e0579073baf54ec4ec37cd04f3455c65" : {
                "balance" : "0x00",
                "code" : "0x",
                "nonce" : "0x02",
                "storage" : {
                }
            },
            "0x1000000000000000000000000000000000000000" : {
                "balance" : "0x00",
                "code" : "0x6460016001556000526005601b6000f0600155",
                "nonce" : "0x00",
                "storage" : {
                }
            },
            "0x13136008b64ff592819b2fa6d43f2835c452020e" : {
                "balance" : "0x00",
                "code" : "0x",
                "nonce" : "0x00",
                "storage" : {
                }
            },
            "0x1a00000000000000000000000000000000000000" : {
                "balance" : "0x00",
                "code" : "0x6000600060006000600060003562013880f1",
                "nonce" : "0x00",
                "storage" : {
                }
            },
            "0x2000000000000000000000000000000000000000" : {
                "balance" : "0x00",
                "code" : "0x6460016001556000526005601b6000f0600155",
                "nonce" : "0x00",
                "storage" : {
                }
            },
            "0x3000000000000000000000000000000000000000" : {
                "balance" : "0x00",
                "code" : "0x6460016001556000526005601b6000f0600155",
                "nonce" : "0x00",
                "storage" : {
                }
            },
            "0x4b86c4ed99b87f0f396bc0c76885453c343916ed" : {
                "balance" : "0x00",
                "code" : "0x1122334455",
                "nonce" : "0x00",
                "storage" : {
                }
            },
            "0xa94f5374fce5edbc8e2a8697c15331677e6ebf0b" : {
                "balance" : "0xe8d4a51000",
                "code" : "0x",
                "nonce" : "0x00",
                "storage" : {
                }
            }
        },
        "sealEngine" : "NoProof"
    },
    "CreateCollisionToEmpty_d0g1v1_Constantinople" : {
        "_info" : {
            "comment" : "data0 - create collision to empty, data1 - to empty but nonce, data2 - to contract with code",
            "filledwith" : "testeth 1.7.0-alpha.1-20+commit.782a7283",
            "lllcversion" : "Version: 0.5.0-develop.2018.11.9+commit.9709dfe0.Linux.g++",
            "source" : "src/BlockchainTestsFiller/GeneralStateTests/stCreateTest/CreateCollisionToEmpty_d0g1v1Filler.json",
            "sourceHash" : "028627f525978036da9a190c3bb958fbb787066025bc61570ad88d6b25236c7b"
        },
        "blocks" : [
            {
                "blockHeader" : {
                    "bloom" : "0x00000000000000000000000000000000000000000000000000000000000000000000000000000000000000000000000000000000000000000000000000000000000000000000000000000000000000000000000000000000000000000000000000000000000000000000000000000000000000000000000000000000000000000000000000000000000000000000000000000000000000000000000000000000000000000000000000000000000000000000000000000000000000000000000000000000000000000000000000000000000000000000000000000000000000000000000000000000000000000000000000000000000000000000000000000000",
                    "coinbase" : "0x2adc25665018aa1fe0e6bc666dac8fc2697ff9ba",
                    "difficulty" : "0x020000",
                    "extraData" : "0x",
                    "gasLimit" : "0x989680",
                    "gasUsed" : "0xd0fb",
                    "hash" : "0xd0d58b5365d0c4580b53e2473a73c6f9fa331a74cb7ce18e371dbe006cfb93f6",
                    "mixHash" : "0x0000000000000000000000000000000000000000000000000000000000000000",
                    "nonce" : "0x0000000000000000",
                    "number" : "0x01",
                    "parentHash" : "0x3c8c8dfd5623ff622fd4830cdcac18c7107f47263b12be313eac6c01cacbbe7a",
                    "receiptTrie" : "0xe265843b0e1d42d26eb82c756367a5faef9595a5a1d6950c97488b078654e0f7",
                    "stateRoot" : "0xd932c04523095aebdaa981ca980d3603e326cfb47a0415f33d599511a14b0259",
                    "timestamp" : "0x03e8",
                    "transactionsTrie" : "0x7b126336eaacf7da18fa20bac032f388a440ecc5b71a31d9efba08879bed1fb7",
                    "uncleHash" : "0x1dcc4de8dec75d7aab85b567b6ccd41ad312451b948a7413f0a142fd40d49347"
                },
                "rlp" : "0xf9027ef901f7a03c8c8dfd5623ff622fd4830cdcac18c7107f47263b12be313eac6c01cacbbe7aa01dcc4de8dec75d7aab85b567b6ccd41ad312451b948a7413f0a142fd40d49347942adc25665018aa1fe0e6bc666dac8fc2697ff9baa0d932c04523095aebdaa981ca980d3603e326cfb47a0415f33d599511a14b0259a07b126336eaacf7da18fa20bac032f388a440ecc5b71a31d9efba08879bed1fb7a0e265843b0e1d42d26eb82c756367a5faef9595a5a1d6950c97488b078654e0f7b901000000000000000000000000000000000000000000000000000000000000000000000000000000000000000000000000000000000000000000000000000000000000000000000000000000000000000000000000000000000000000000000000000000000000000000000000000000000000000000000000000000000000000000000000000000000000000000000000000000000000000000000000000000000000000000000000000000000000000000000000000000000000000000000000000000000000000000000000000000000000000000000000000000000000000000000000000000000000000000000000000000000000000000000000000000000083020000018398968082d0fb8203e880a00000000000000000000000000000000000000000000000000000000000000000880000000000000000f881f87f800182d2f0941a0000000000000000000000000000000000000001a000000000000000000000000010000000000000000000000000000000000000001ca05745c54b56e13a5542e5f5a9a50be956cb14f5d8697752ad093665722310138ea004e28311f4e7b84d722664e9e0abd570672dff2ece0b83891a172662b0774f7bc0",
                "transactions" : [
                    {
                        "data" : "0x0000000000000000000000001000000000000000000000000000000000000000",
                        "gasLimit" : "0xd2f0",
                        "gasPrice" : "0x01",
                        "nonce" : "0x00",
                        "r" : "0x5745c54b56e13a5542e5f5a9a50be956cb14f5d8697752ad093665722310138e",
                        "s" : "0x04e28311f4e7b84d722664e9e0abd570672dff2ece0b83891a172662b0774f7b",
                        "to" : "0x1a00000000000000000000000000000000000000",
                        "v" : "0x1c",
                        "value" : "0x01"
                    }
                ],
                "uncleHeaders" : [
                ]
            }
        ],
        "genesisBlockHeader" : {
            "bloom" : "0x00000000000000000000000000000000000000000000000000000000000000000000000000000000000000000000000000000000000000000000000000000000000000000000000000000000000000000000000000000000000000000000000000000000000000000000000000000000000000000000000000000000000000000000000000000000000000000000000000000000000000000000000000000000000000000000000000000000000000000000000000000000000000000000000000000000000000000000000000000000000000000000000000000000000000000000000000000000000000000000000000000000000000000000000000000000",
            "coinbase" : "0x2adc25665018aa1fe0e6bc666dac8fc2697ff9ba",
            "difficulty" : "0x020000",
            "extraData" : "0x42",
            "gasLimit" : "0x989680",
            "gasUsed" : "0x00",
            "hash" : "0x3c8c8dfd5623ff622fd4830cdcac18c7107f47263b12be313eac6c01cacbbe7a",
            "mixHash" : "0x56e81f171bcc55a6ff8345e692c0f86e5b48e01b996cadc001622fb5e363b421",
            "nonce" : "0x0102030405060708",
            "number" : "0x00",
            "parentHash" : "0x0000000000000000000000000000000000000000000000000000000000000000",
            "receiptTrie" : "0x56e81f171bcc55a6ff8345e692c0f86e5b48e01b996cadc001622fb5e363b421",
            "stateRoot" : "0x36a0b77009bfc68d50894678ded36eb5aa49e4db3588266364b78fab96929cdd",
            "timestamp" : "0x03b6",
            "transactionsTrie" : "0x56e81f171bcc55a6ff8345e692c0f86e5b48e01b996cadc001622fb5e363b421",
            "uncleHash" : "0x1dcc4de8dec75d7aab85b567b6ccd41ad312451b948a7413f0a142fd40d49347"
        },
        "genesisRLP" : "0xf901faf901f5a00000000000000000000000000000000000000000000000000000000000000000a01dcc4de8dec75d7aab85b567b6ccd41ad312451b948a7413f0a142fd40d49347942adc25665018aa1fe0e6bc666dac8fc2697ff9baa036a0b77009bfc68d50894678ded36eb5aa49e4db3588266364b78fab96929cdda056e81f171bcc55a6ff8345e692c0f86e5b48e01b996cadc001622fb5e363b421a056e81f171bcc55a6ff8345e692c0f86e5b48e01b996cadc001622fb5e363b421b9010000000000000000000000000000000000000000000000000000000000000000000000000000000000000000000000000000000000000000000000000000000000000000000000000000000000000000000000000000000000000000000000000000000000000000000000000000000000000000000000000000000000000000000000000000000000000000000000000000000000000000000000000000000000000000000000000000000000000000000000000000000000000000000000000000000000000000000000000000000000000000000000000000000000000000000000000000000000000000000000000000000000000000000000000000000000830200008083989680808203b642a056e81f171bcc55a6ff8345e692c0f86e5b48e01b996cadc001622fb5e363b421880102030405060708c0c0",
        "lastblockhash" : "0xd0d58b5365d0c4580b53e2473a73c6f9fa331a74cb7ce18e371dbe006cfb93f6",
        "network" : "Constantinople",
        "postState" : {
            "0x0bf4c804e0579073baf54ec4ec37cd04f3455c65" : {
                "balance" : "0x00",
                "code" : "0x",
                "nonce" : "0x02",
                "storage" : {
                }
            },
            "0x1000000000000000000000000000000000000000" : {
                "balance" : "0x00",
                "code" : "0x6460016001556000526005601b6000f0600155",
                "nonce" : "0x00",
                "storage" : {
                }
            },
            "0x13136008b64ff592819b2fa6d43f2835c452020e" : {
                "balance" : "0x00",
                "code" : "0x",
                "nonce" : "0x00",
                "storage" : {
                }
            },
            "0x1a00000000000000000000000000000000000000" : {
                "balance" : "0x01",
                "code" : "0x6000600060006000600060003562013880f1",
                "nonce" : "0x00",
                "storage" : {
                }
            },
            "0x2000000000000000000000000000000000000000" : {
                "balance" : "0x00",
                "code" : "0x6460016001556000526005601b6000f0600155",
                "nonce" : "0x00",
                "storage" : {
                }
            },
            "0x2adc25665018aa1fe0e6bc666dac8fc2697ff9ba" : {
                "balance" : "0x1bc16d674ec8d0fb",
                "code" : "0x",
                "nonce" : "0x00",
                "storage" : {
                }
            },
            "0x3000000000000000000000000000000000000000" : {
                "balance" : "0x00",
                "code" : "0x6460016001556000526005601b6000f0600155",
                "nonce" : "0x00",
                "storage" : {
                }
            },
            "0x4b86c4ed99b87f0f396bc0c76885453c343916ed" : {
                "balance" : "0x00",
                "code" : "0x1122334455",
                "nonce" : "0x00",
                "storage" : {
                }
            },
            "0xa94f5374fce5edbc8e2a8697c15331677e6ebf0b" : {
                "balance" : "0xe8d4a43f04",
                "code" : "0x",
                "nonce" : "0x01",
                "storage" : {
                }
            }
        },
        "pre" : {
            "0x0bf4c804e0579073baf54ec4ec37cd04f3455c65" : {
                "balance" : "0x00",
                "code" : "0x",
                "nonce" : "0x02",
                "storage" : {
                }
            },
            "0x1000000000000000000000000000000000000000" : {
                "balance" : "0x00",
                "code" : "0x6460016001556000526005601b6000f0600155",
                "nonce" : "0x00",
                "storage" : {
                }
            },
            "0x13136008b64ff592819b2fa6d43f2835c452020e" : {
                "balance" : "0x00",
                "code" : "0x",
                "nonce" : "0x00",
                "storage" : {
                }
            },
            "0x1a00000000000000000000000000000000000000" : {
                "balance" : "0x00",
                "code" : "0x6000600060006000600060003562013880f1",
                "nonce" : "0x00",
                "storage" : {
                }
            },
            "0x2000000000000000000000000000000000000000" : {
                "balance" : "0x00",
                "code" : "0x6460016001556000526005601b6000f0600155",
                "nonce" : "0x00",
                "storage" : {
                }
            },
            "0x3000000000000000000000000000000000000000" : {
                "balance" : "0x00",
                "code" : "0x6460016001556000526005601b6000f0600155",
                "nonce" : "0x00",
                "storage" : {
                }
            },
            "0x4b86c4ed99b87f0f396bc0c76885453c343916ed" : {
                "balance" : "0x00",
                "code" : "0x1122334455",
                "nonce" : "0x00",
                "storage" : {
                }
            },
            "0xa94f5374fce5edbc8e2a8697c15331677e6ebf0b" : {
                "balance" : "0xe8d4a51000",
                "code" : "0x",
                "nonce" : "0x00",
                "storage" : {
                }
            }
        },
        "sealEngine" : "NoProof"
    },
    "CreateCollisionToEmpty_d0g1v1_ConstantinopleFix" : {
        "_info" : {
            "comment" : "data0 - create collision to empty, data1 - to empty but nonce, data2 - to contract with code",
            "filledwith" : "testeth 1.7.0-alpha.1-20+commit.782a7283",
            "lllcversion" : "Version: 0.5.0-develop.2018.11.9+commit.9709dfe0.Linux.g++",
            "source" : "src/BlockchainTestsFiller/GeneralStateTests/stCreateTest/CreateCollisionToEmpty_d0g1v1Filler.json",
            "sourceHash" : "028627f525978036da9a190c3bb958fbb787066025bc61570ad88d6b25236c7b"
        },
        "blocks" : [
            {
                "blockHeader" : {
                    "bloom" : "0x00000000000000000000000000000000000000000000000000000000000000000000000000000000000000000000000000000000000000000000000000000000000000000000000000000000000000000000000000000000000000000000000000000000000000000000000000000000000000000000000000000000000000000000000000000000000000000000000000000000000000000000000000000000000000000000000000000000000000000000000000000000000000000000000000000000000000000000000000000000000000000000000000000000000000000000000000000000000000000000000000000000000000000000000000000000",
                    "coinbase" : "0x2adc25665018aa1fe0e6bc666dac8fc2697ff9ba",
                    "difficulty" : "0x020000",
                    "extraData" : "0x",
                    "gasLimit" : "0x989680",
                    "gasUsed" : "0xd0fb",
                    "hash" : "0xd0d58b5365d0c4580b53e2473a73c6f9fa331a74cb7ce18e371dbe006cfb93f6",
                    "mixHash" : "0x0000000000000000000000000000000000000000000000000000000000000000",
                    "nonce" : "0x0000000000000000",
                    "number" : "0x01",
                    "parentHash" : "0x3c8c8dfd5623ff622fd4830cdcac18c7107f47263b12be313eac6c01cacbbe7a",
                    "receiptTrie" : "0xe265843b0e1d42d26eb82c756367a5faef9595a5a1d6950c97488b078654e0f7",
                    "stateRoot" : "0xd932c04523095aebdaa981ca980d3603e326cfb47a0415f33d599511a14b0259",
                    "timestamp" : "0x03e8",
                    "transactionsTrie" : "0x7b126336eaacf7da18fa20bac032f388a440ecc5b71a31d9efba08879bed1fb7",
                    "uncleHash" : "0x1dcc4de8dec75d7aab85b567b6ccd41ad312451b948a7413f0a142fd40d49347"
                },
                "rlp" : "0xf9027ef901f7a03c8c8dfd5623ff622fd4830cdcac18c7107f47263b12be313eac6c01cacbbe7aa01dcc4de8dec75d7aab85b567b6ccd41ad312451b948a7413f0a142fd40d49347942adc25665018aa1fe0e6bc666dac8fc2697ff9baa0d932c04523095aebdaa981ca980d3603e326cfb47a0415f33d599511a14b0259a07b126336eaacf7da18fa20bac032f388a440ecc5b71a31d9efba08879bed1fb7a0e265843b0e1d42d26eb82c756367a5faef9595a5a1d6950c97488b078654e0f7b901000000000000000000000000000000000000000000000000000000000000000000000000000000000000000000000000000000000000000000000000000000000000000000000000000000000000000000000000000000000000000000000000000000000000000000000000000000000000000000000000000000000000000000000000000000000000000000000000000000000000000000000000000000000000000000000000000000000000000000000000000000000000000000000000000000000000000000000000000000000000000000000000000000000000000000000000000000000000000000000000000000000000000000000000000000000083020000018398968082d0fb8203e880a00000000000000000000000000000000000000000000000000000000000000000880000000000000000f881f87f800182d2f0941a0000000000000000000000000000000000000001a000000000000000000000000010000000000000000000000000000000000000001ca05745c54b56e13a5542e5f5a9a50be956cb14f5d8697752ad093665722310138ea004e28311f4e7b84d722664e9e0abd570672dff2ece0b83891a172662b0774f7bc0",
                "transactions" : [
                    {
                        "data" : "0x0000000000000000000000001000000000000000000000000000000000000000",
                        "gasLimit" : "0xd2f0",
                        "gasPrice" : "0x01",
                        "nonce" : "0x00",
                        "r" : "0x5745c54b56e13a5542e5f5a9a50be956cb14f5d8697752ad093665722310138e",
                        "s" : "0x04e28311f4e7b84d722664e9e0abd570672dff2ece0b83891a172662b0774f7b",
                        "to" : "0x1a00000000000000000000000000000000000000",
                        "v" : "0x1c",
                        "value" : "0x01"
                    }
                ],
                "uncleHeaders" : [
                ]
            }
        ],
        "genesisBlockHeader" : {
            "bloom" : "0x00000000000000000000000000000000000000000000000000000000000000000000000000000000000000000000000000000000000000000000000000000000000000000000000000000000000000000000000000000000000000000000000000000000000000000000000000000000000000000000000000000000000000000000000000000000000000000000000000000000000000000000000000000000000000000000000000000000000000000000000000000000000000000000000000000000000000000000000000000000000000000000000000000000000000000000000000000000000000000000000000000000000000000000000000000000",
            "coinbase" : "0x2adc25665018aa1fe0e6bc666dac8fc2697ff9ba",
            "difficulty" : "0x020000",
            "extraData" : "0x42",
            "gasLimit" : "0x989680",
            "gasUsed" : "0x00",
            "hash" : "0x3c8c8dfd5623ff622fd4830cdcac18c7107f47263b12be313eac6c01cacbbe7a",
            "mixHash" : "0x56e81f171bcc55a6ff8345e692c0f86e5b48e01b996cadc001622fb5e363b421",
            "nonce" : "0x0102030405060708",
            "number" : "0x00",
            "parentHash" : "0x0000000000000000000000000000000000000000000000000000000000000000",
            "receiptTrie" : "0x56e81f171bcc55a6ff8345e692c0f86e5b48e01b996cadc001622fb5e363b421",
            "stateRoot" : "0x36a0b77009bfc68d50894678ded36eb5aa49e4db3588266364b78fab96929cdd",
            "timestamp" : "0x03b6",
            "transactionsTrie" : "0x56e81f171bcc55a6ff8345e692c0f86e5b48e01b996cadc001622fb5e363b421",
            "uncleHash" : "0x1dcc4de8dec75d7aab85b567b6ccd41ad312451b948a7413f0a142fd40d49347"
        },
        "genesisRLP" : "0xf901faf901f5a00000000000000000000000000000000000000000000000000000000000000000a01dcc4de8dec75d7aab85b567b6ccd41ad312451b948a7413f0a142fd40d49347942adc25665018aa1fe0e6bc666dac8fc2697ff9baa036a0b77009bfc68d50894678ded36eb5aa49e4db3588266364b78fab96929cdda056e81f171bcc55a6ff8345e692c0f86e5b48e01b996cadc001622fb5e363b421a056e81f171bcc55a6ff8345e692c0f86e5b48e01b996cadc001622fb5e363b421b9010000000000000000000000000000000000000000000000000000000000000000000000000000000000000000000000000000000000000000000000000000000000000000000000000000000000000000000000000000000000000000000000000000000000000000000000000000000000000000000000000000000000000000000000000000000000000000000000000000000000000000000000000000000000000000000000000000000000000000000000000000000000000000000000000000000000000000000000000000000000000000000000000000000000000000000000000000000000000000000000000000000000000000000000000000000000830200008083989680808203b642a056e81f171bcc55a6ff8345e692c0f86e5b48e01b996cadc001622fb5e363b421880102030405060708c0c0",
        "lastblockhash" : "0xd0d58b5365d0c4580b53e2473a73c6f9fa331a74cb7ce18e371dbe006cfb93f6",
        "network" : "ConstantinopleFix",
        "postState" : {
            "0x0bf4c804e0579073baf54ec4ec37cd04f3455c65" : {
                "balance" : "0x00",
                "code" : "0x",
                "nonce" : "0x02",
                "storage" : {
                }
            },
            "0x1000000000000000000000000000000000000000" : {
                "balance" : "0x00",
                "code" : "0x6460016001556000526005601b6000f0600155",
                "nonce" : "0x00",
                "storage" : {
                }
            },
            "0x13136008b64ff592819b2fa6d43f2835c452020e" : {
                "balance" : "0x00",
                "code" : "0x",
                "nonce" : "0x00",
                "storage" : {
                }
            },
            "0x1a00000000000000000000000000000000000000" : {
                "balance" : "0x01",
                "code" : "0x6000600060006000600060003562013880f1",
                "nonce" : "0x00",
                "storage" : {
                }
            },
            "0x2000000000000000000000000000000000000000" : {
                "balance" : "0x00",
                "code" : "0x6460016001556000526005601b6000f0600155",
                "nonce" : "0x00",
                "storage" : {
                }
            },
            "0x2adc25665018aa1fe0e6bc666dac8fc2697ff9ba" : {
                "balance" : "0x1bc16d674ec8d0fb",
                "code" : "0x",
                "nonce" : "0x00",
                "storage" : {
                }
            },
            "0x3000000000000000000000000000000000000000" : {
                "balance" : "0x00",
                "code" : "0x6460016001556000526005601b6000f0600155",
                "nonce" : "0x00",
                "storage" : {
                }
            },
            "0x4b86c4ed99b87f0f396bc0c76885453c343916ed" : {
                "balance" : "0x00",
                "code" : "0x1122334455",
                "nonce" : "0x00",
                "storage" : {
                }
            },
            "0xa94f5374fce5edbc8e2a8697c15331677e6ebf0b" : {
                "balance" : "0xe8d4a43f04",
                "code" : "0x",
                "nonce" : "0x01",
                "storage" : {
                }
            }
        },
        "pre" : {
            "0x0bf4c804e0579073baf54ec4ec37cd04f3455c65" : {
                "balance" : "0x00",
                "code" : "0x",
                "nonce" : "0x02",
                "storage" : {
                }
            },
            "0x1000000000000000000000000000000000000000" : {
                "balance" : "0x00",
                "code" : "0x6460016001556000526005601b6000f0600155",
                "nonce" : "0x00",
                "storage" : {
                }
            },
            "0x13136008b64ff592819b2fa6d43f2835c452020e" : {
                "balance" : "0x00",
                "code" : "0x",
                "nonce" : "0x00",
                "storage" : {
                }
            },
            "0x1a00000000000000000000000000000000000000" : {
                "balance" : "0x00",
                "code" : "0x6000600060006000600060003562013880f1",
                "nonce" : "0x00",
                "storage" : {
                }
            },
            "0x2000000000000000000000000000000000000000" : {
                "balance" : "0x00",
                "code" : "0x6460016001556000526005601b6000f0600155",
                "nonce" : "0x00",
                "storage" : {
                }
            },
            "0x3000000000000000000000000000000000000000" : {
                "balance" : "0x00",
                "code" : "0x6460016001556000526005601b6000f0600155",
                "nonce" : "0x00",
                "storage" : {
                }
            },
            "0x4b86c4ed99b87f0f396bc0c76885453c343916ed" : {
                "balance" : "0x00",
                "code" : "0x1122334455",
                "nonce" : "0x00",
                "storage" : {
                }
            },
            "0xa94f5374fce5edbc8e2a8697c15331677e6ebf0b" : {
                "balance" : "0xe8d4a51000",
                "code" : "0x",
                "nonce" : "0x00",
                "storage" : {
                }
            }
        },
        "sealEngine" : "NoProof"
    },
    "CreateCollisionToEmpty_d0g1v1_EIP158" : {
        "_info" : {
            "comment" : "data0 - create collision to empty, data1 - to empty but nonce, data2 - to contract with code",
            "filledwith" : "testeth 1.7.0-alpha.1-20+commit.782a7283",
            "lllcversion" : "Version: 0.5.0-develop.2018.11.9+commit.9709dfe0.Linux.g++",
            "source" : "src/BlockchainTestsFiller/GeneralStateTests/stCreateTest/CreateCollisionToEmpty_d0g1v1Filler.json",
            "sourceHash" : "028627f525978036da9a190c3bb958fbb787066025bc61570ad88d6b25236c7b"
        },
        "blocks" : [
            {
                "blockHeader" : {
                    "bloom" : "0x00000000000000000000000000000000000000000000000000000000000000000000000000000000000000000000000000000000000000000000000000000000000000000000000000000000000000000000000000000000000000000000000000000000000000000000000000000000000000000000000000000000000000000000000000000000000000000000000000000000000000000000000000000000000000000000000000000000000000000000000000000000000000000000000000000000000000000000000000000000000000000000000000000000000000000000000000000000000000000000000000000000000000000000000000000000",
                    "coinbase" : "0x2adc25665018aa1fe0e6bc666dac8fc2697ff9ba",
                    "difficulty" : "0x020000",
                    "extraData" : "0x",
                    "gasLimit" : "0x989680",
                    "gasUsed" : "0xd0fb",
                    "hash" : "0x8bbb232761b978da423fd96b2709df09163d6d606f88bc6824e021eb11bcdf0f",
                    "mixHash" : "0x0000000000000000000000000000000000000000000000000000000000000000",
                    "nonce" : "0x0000000000000000",
                    "number" : "0x01",
                    "parentHash" : "0x3c8c8dfd5623ff622fd4830cdcac18c7107f47263b12be313eac6c01cacbbe7a",
                    "receiptTrie" : "0xa2daf865a81841161c9ffb207226990b8a80c5c3d94a5bde5f7368bcd8cb14e2",
                    "stateRoot" : "0xdeb037e064c389d013f28236a74ab64f6e0e3da266c601c81ee1fb1e4674fb58",
                    "timestamp" : "0x03e8",
                    "transactionsTrie" : "0x7b126336eaacf7da18fa20bac032f388a440ecc5b71a31d9efba08879bed1fb7",
                    "uncleHash" : "0x1dcc4de8dec75d7aab85b567b6ccd41ad312451b948a7413f0a142fd40d49347"
                },
                "rlp" : "0xf9027ef901f7a03c8c8dfd5623ff622fd4830cdcac18c7107f47263b12be313eac6c01cacbbe7aa01dcc4de8dec75d7aab85b567b6ccd41ad312451b948a7413f0a142fd40d49347942adc25665018aa1fe0e6bc666dac8fc2697ff9baa0deb037e064c389d013f28236a74ab64f6e0e3da266c601c81ee1fb1e4674fb58a07b126336eaacf7da18fa20bac032f388a440ecc5b71a31d9efba08879bed1fb7a0a2daf865a81841161c9ffb207226990b8a80c5c3d94a5bde5f7368bcd8cb14e2b901000000000000000000000000000000000000000000000000000000000000000000000000000000000000000000000000000000000000000000000000000000000000000000000000000000000000000000000000000000000000000000000000000000000000000000000000000000000000000000000000000000000000000000000000000000000000000000000000000000000000000000000000000000000000000000000000000000000000000000000000000000000000000000000000000000000000000000000000000000000000000000000000000000000000000000000000000000000000000000000000000000000000000000000000000000000083020000018398968082d0fb8203e880a00000000000000000000000000000000000000000000000000000000000000000880000000000000000f881f87f800182d2f0941a0000000000000000000000000000000000000001a000000000000000000000000010000000000000000000000000000000000000001ca05745c54b56e13a5542e5f5a9a50be956cb14f5d8697752ad093665722310138ea004e28311f4e7b84d722664e9e0abd570672dff2ece0b83891a172662b0774f7bc0",
                "transactions" : [
                    {
                        "data" : "0x0000000000000000000000001000000000000000000000000000000000000000",
                        "gasLimit" : "0xd2f0",
                        "gasPrice" : "0x01",
                        "nonce" : "0x00",
                        "r" : "0x5745c54b56e13a5542e5f5a9a50be956cb14f5d8697752ad093665722310138e",
                        "s" : "0x04e28311f4e7b84d722664e9e0abd570672dff2ece0b83891a172662b0774f7b",
                        "to" : "0x1a00000000000000000000000000000000000000",
                        "v" : "0x1c",
                        "value" : "0x01"
                    }
                ],
                "uncleHeaders" : [
                ]
            }
        ],
        "genesisBlockHeader" : {
            "bloom" : "0x00000000000000000000000000000000000000000000000000000000000000000000000000000000000000000000000000000000000000000000000000000000000000000000000000000000000000000000000000000000000000000000000000000000000000000000000000000000000000000000000000000000000000000000000000000000000000000000000000000000000000000000000000000000000000000000000000000000000000000000000000000000000000000000000000000000000000000000000000000000000000000000000000000000000000000000000000000000000000000000000000000000000000000000000000000000",
            "coinbase" : "0x2adc25665018aa1fe0e6bc666dac8fc2697ff9ba",
            "difficulty" : "0x020000",
            "extraData" : "0x42",
            "gasLimit" : "0x989680",
            "gasUsed" : "0x00",
            "hash" : "0x3c8c8dfd5623ff622fd4830cdcac18c7107f47263b12be313eac6c01cacbbe7a",
            "mixHash" : "0x56e81f171bcc55a6ff8345e692c0f86e5b48e01b996cadc001622fb5e363b421",
            "nonce" : "0x0102030405060708",
            "number" : "0x00",
            "parentHash" : "0x0000000000000000000000000000000000000000000000000000000000000000",
            "receiptTrie" : "0x56e81f171bcc55a6ff8345e692c0f86e5b48e01b996cadc001622fb5e363b421",
            "stateRoot" : "0x36a0b77009bfc68d50894678ded36eb5aa49e4db3588266364b78fab96929cdd",
            "timestamp" : "0x03b6",
            "transactionsTrie" : "0x56e81f171bcc55a6ff8345e692c0f86e5b48e01b996cadc001622fb5e363b421",
            "uncleHash" : "0x1dcc4de8dec75d7aab85b567b6ccd41ad312451b948a7413f0a142fd40d49347"
        },
        "genesisRLP" : "0xf901faf901f5a00000000000000000000000000000000000000000000000000000000000000000a01dcc4de8dec75d7aab85b567b6ccd41ad312451b948a7413f0a142fd40d49347942adc25665018aa1fe0e6bc666dac8fc2697ff9baa036a0b77009bfc68d50894678ded36eb5aa49e4db3588266364b78fab96929cdda056e81f171bcc55a6ff8345e692c0f86e5b48e01b996cadc001622fb5e363b421a056e81f171bcc55a6ff8345e692c0f86e5b48e01b996cadc001622fb5e363b421b9010000000000000000000000000000000000000000000000000000000000000000000000000000000000000000000000000000000000000000000000000000000000000000000000000000000000000000000000000000000000000000000000000000000000000000000000000000000000000000000000000000000000000000000000000000000000000000000000000000000000000000000000000000000000000000000000000000000000000000000000000000000000000000000000000000000000000000000000000000000000000000000000000000000000000000000000000000000000000000000000000000000000000000000000000000000000830200008083989680808203b642a056e81f171bcc55a6ff8345e692c0f86e5b48e01b996cadc001622fb5e363b421880102030405060708c0c0",
        "lastblockhash" : "0x8bbb232761b978da423fd96b2709df09163d6d606f88bc6824e021eb11bcdf0f",
        "network" : "EIP158",
        "postState" : {
            "0x0bf4c804e0579073baf54ec4ec37cd04f3455c65" : {
                "balance" : "0x00",
                "code" : "0x",
                "nonce" : "0x02",
                "storage" : {
                }
            },
            "0x1000000000000000000000000000000000000000" : {
                "balance" : "0x00",
                "code" : "0x6460016001556000526005601b6000f0600155",
                "nonce" : "0x00",
                "storage" : {
                }
            },
            "0x13136008b64ff592819b2fa6d43f2835c452020e" : {
                "balance" : "0x00",
                "code" : "0x",
                "nonce" : "0x00",
                "storage" : {
                }
            },
            "0x1a00000000000000000000000000000000000000" : {
                "balance" : "0x01",
                "code" : "0x6000600060006000600060003562013880f1",
                "nonce" : "0x00",
                "storage" : {
                }
            },
            "0x2000000000000000000000000000000000000000" : {
                "balance" : "0x00",
                "code" : "0x6460016001556000526005601b6000f0600155",
                "nonce" : "0x00",
                "storage" : {
                }
            },
            "0x2adc25665018aa1fe0e6bc666dac8fc2697ff9ba" : {
                "balance" : "0x4563918244f4d0fb",
                "code" : "0x",
                "nonce" : "0x00",
                "storage" : {
                }
            },
            "0x3000000000000000000000000000000000000000" : {
                "balance" : "0x00",
                "code" : "0x6460016001556000526005601b6000f0600155",
                "nonce" : "0x00",
                "storage" : {
                }
            },
            "0x4b86c4ed99b87f0f396bc0c76885453c343916ed" : {
                "balance" : "0x00",
                "code" : "0x1122334455",
                "nonce" : "0x00",
                "storage" : {
                }
            },
            "0xa94f5374fce5edbc8e2a8697c15331677e6ebf0b" : {
                "balance" : "0xe8d4a43f04",
                "code" : "0x",
                "nonce" : "0x01",
                "storage" : {
                }
            }
        },
        "pre" : {
            "0x0bf4c804e0579073baf54ec4ec37cd04f3455c65" : {
                "balance" : "0x00",
                "code" : "0x",
                "nonce" : "0x02",
                "storage" : {
                }
            },
            "0x1000000000000000000000000000000000000000" : {
                "balance" : "0x00",
                "code" : "0x6460016001556000526005601b6000f0600155",
                "nonce" : "0x00",
                "storage" : {
                }
            },
            "0x13136008b64ff592819b2fa6d43f2835c452020e" : {
                "balance" : "0x00",
                "code" : "0x",
                "nonce" : "0x00",
                "storage" : {
                }
            },
            "0x1a00000000000000000000000000000000000000" : {
                "balance" : "0x00",
                "code" : "0x6000600060006000600060003562013880f1",
                "nonce" : "0x00",
                "storage" : {
                }
            },
            "0x2000000000000000000000000000000000000000" : {
                "balance" : "0x00",
                "code" : "0x6460016001556000526005601b6000f0600155",
                "nonce" : "0x00",
                "storage" : {
                }
            },
            "0x3000000000000000000000000000000000000000" : {
                "balance" : "0x00",
                "code" : "0x6460016001556000526005601b6000f0600155",
                "nonce" : "0x00",
                "storage" : {
                }
            },
            "0x4b86c4ed99b87f0f396bc0c76885453c343916ed" : {
                "balance" : "0x00",
                "code" : "0x1122334455",
                "nonce" : "0x00",
                "storage" : {
                }
            },
            "0xa94f5374fce5edbc8e2a8697c15331677e6ebf0b" : {
                "balance" : "0xe8d4a51000",
                "code" : "0x",
                "nonce" : "0x00",
                "storage" : {
                }
            }
        },
        "sealEngine" : "NoProof"
    }
}