{
    "CreateCollisionToEmpty_d2g0v0_Byzantium" : {
        "_info" : {
            "comment" : "data0 - create collision to empty, data1 - to empty but nonce, data2 - to contract with code",
            "filledwith" : "testeth 1.7.0-alpha.1-20+commit.782a7283",
            "lllcversion" : "Version: 0.5.0-develop.2018.11.9+commit.9709dfe0.Linux.g++",
            "source" : "src/BlockchainTestsFiller/GeneralStateTests/stCreateTest/CreateCollisionToEmpty_d2g0v0Filler.json",
            "sourceHash" : "a6bfbb465ab20f01f419cacffa6539295471f3bdd69a9c8e4523c81aa77f73db"
        },
        "blocks" : [
            {
                "blockHeader" : {
                    "bloom" : "0x00000000000000000000000000000000000000000000000000000000000000000000000000000000000000000000000000000000000000000000000000000000000000000000000000000000000000000000000000000000000000000000000000000000000000000000000000000000000000000000000000000000000000000000000000000000000000000000000000000000000000000000000000000000000000000000000000000000000000000000000000000000000000000000000000000000000000000000000000000000000000000000000000000000000000000000000000000000000000000000000000000000000000000000000000000000",
                    "coinbase" : "0x2adc25665018aa1fe0e6bc666dac8fc2697ff9ba",
                    "difficulty" : "0x020000",
                    "extraData" : "0x",
                    "gasLimit" : "0x989680",
                    "gasUsed" : "0x018e1c",
                    "hash" : "0x1ecf0c7d56582f640800d4b4b797e3e7085b5db946af23f72b5e2ae53917ebbb",
                    "mixHash" : "0x0000000000000000000000000000000000000000000000000000000000000000",
                    "nonce" : "0x0000000000000000",
                    "number" : "0x01",
                    "parentHash" : "0x3c8c8dfd5623ff622fd4830cdcac18c7107f47263b12be313eac6c01cacbbe7a",
                    "receiptTrie" : "0x51e91047112c8e4cf80d14644c8c9d6719fe798dde330b6db4eb7cc8b57e5216",
                    "stateRoot" : "0xfb05699965ee4185661a7da7af581a48a9d4e15ab717491881efef62092a3790",
                    "timestamp" : "0x03e8",
                    "transactionsTrie" : "0x7d2e2b9a7eb3c39c88864293839b40c7a317b75f3dbc8a65234ead38594fab8b",
                    "uncleHash" : "0x1dcc4de8dec75d7aab85b567b6ccd41ad312451b948a7413f0a142fd40d49347"
                },
                "rlp" : "0xf90280f901f8a03c8c8dfd5623ff622fd4830cdcac18c7107f47263b12be313eac6c01cacbbe7aa01dcc4de8dec75d7aab85b567b6ccd41ad312451b948a7413f0a142fd40d49347942adc25665018aa1fe0e6bc666dac8fc2697ff9baa0fb05699965ee4185661a7da7af581a48a9d4e15ab717491881efef62092a3790a07d2e2b9a7eb3c39c88864293839b40c7a317b75f3dbc8a65234ead38594fab8ba051e91047112c8e4cf80d14644c8c9d6719fe798dde330b6db4eb7cc8b57e5216b901000000000000000000000000000000000000000000000000000000000000000000000000000000000000000000000000000000000000000000000000000000000000000000000000000000000000000000000000000000000000000000000000000000000000000000000000000000000000000000000000000000000000000000000000000000000000000000000000000000000000000000000000000000000000000000000000000000000000000000000000000000000000000000000000000000000000000000000000000000000000000000000000000000000000000000000000000000000000000000000000000000000000000000000000000000000083020000018398968083018e1c8203e880a00000000000000000000000000000000000000000000000000000000000000000880000000000000000f882f8808001830927c0941a0000000000000000000000000000000000000080a000000000000000000000000030000000000000000000000000000000000000001ba084b5ba67c8d1dffb7bd0010e98c3c4c5a53b4988a43faaa8ec40baef442505c1a016414b9ba30e63e8dfbddd1c0ef4ced3229af9254d45a807852807bed4a9748cc0",
                "transactions" : [
                    {
                        "data" : "0x0000000000000000000000003000000000000000000000000000000000000000",
                        "gasLimit" : "0x0927c0",
                        "gasPrice" : "0x01",
                        "nonce" : "0x00",
                        "r" : "0x84b5ba67c8d1dffb7bd0010e98c3c4c5a53b4988a43faaa8ec40baef442505c1",
                        "s" : "0x16414b9ba30e63e8dfbddd1c0ef4ced3229af9254d45a807852807bed4a9748c",
                        "to" : "0x1a00000000000000000000000000000000000000",
                        "v" : "0x1b",
                        "value" : "0x00"
                    }
                ],
                "uncleHeaders" : [
                ]
            }
        ],
        "genesisBlockHeader" : {
            "bloom" : "0x00000000000000000000000000000000000000000000000000000000000000000000000000000000000000000000000000000000000000000000000000000000000000000000000000000000000000000000000000000000000000000000000000000000000000000000000000000000000000000000000000000000000000000000000000000000000000000000000000000000000000000000000000000000000000000000000000000000000000000000000000000000000000000000000000000000000000000000000000000000000000000000000000000000000000000000000000000000000000000000000000000000000000000000000000000000",
            "coinbase" : "0x2adc25665018aa1fe0e6bc666dac8fc2697ff9ba",
            "difficulty" : "0x020000",
            "extraData" : "0x42",
            "gasLimit" : "0x989680",
            "gasUsed" : "0x00",
            "hash" : "0x3c8c8dfd5623ff622fd4830cdcac18c7107f47263b12be313eac6c01cacbbe7a",
            "mixHash" : "0x56e81f171bcc55a6ff8345e692c0f86e5b48e01b996cadc001622fb5e363b421",
            "nonce" : "0x0102030405060708",
            "number" : "0x00",
            "parentHash" : "0x0000000000000000000000000000000000000000000000000000000000000000",
            "receiptTrie" : "0x56e81f171bcc55a6ff8345e692c0f86e5b48e01b996cadc001622fb5e363b421",
            "stateRoot" : "0x36a0b77009bfc68d50894678ded36eb5aa49e4db3588266364b78fab96929cdd",
            "timestamp" : "0x03b6",
            "transactionsTrie" : "0x56e81f171bcc55a6ff8345e692c0f86e5b48e01b996cadc001622fb5e363b421",
            "uncleHash" : "0x1dcc4de8dec75d7aab85b567b6ccd41ad312451b948a7413f0a142fd40d49347"
        },
        "genesisRLP" : "0xf901faf901f5a00000000000000000000000000000000000000000000000000000000000000000a01dcc4de8dec75d7aab85b567b6ccd41ad312451b948a7413f0a142fd40d49347942adc25665018aa1fe0e6bc666dac8fc2697ff9baa036a0b77009bfc68d50894678ded36eb5aa49e4db3588266364b78fab96929cdda056e81f171bcc55a6ff8345e692c0f86e5b48e01b996cadc001622fb5e363b421a056e81f171bcc55a6ff8345e692c0f86e5b48e01b996cadc001622fb5e363b421b9010000000000000000000000000000000000000000000000000000000000000000000000000000000000000000000000000000000000000000000000000000000000000000000000000000000000000000000000000000000000000000000000000000000000000000000000000000000000000000000000000000000000000000000000000000000000000000000000000000000000000000000000000000000000000000000000000000000000000000000000000000000000000000000000000000000000000000000000000000000000000000000000000000000000000000000000000000000000000000000000000000000000000000000000000000000000830200008083989680808203b642a056e81f171bcc55a6ff8345e692c0f86e5b48e01b996cadc001622fb5e363b421880102030405060708c0c0",
        "lastblockhash" : "0x1ecf0c7d56582f640800d4b4b797e3e7085b5db946af23f72b5e2ae53917ebbb",
        "network" : "Byzantium",
        "postState" : {
            "0x0bf4c804e0579073baf54ec4ec37cd04f3455c65" : {
                "balance" : "0x00",
                "code" : "0x",
                "nonce" : "0x02",
                "storage" : {
                }
            },
            "0x1000000000000000000000000000000000000000" : {
                "balance" : "0x00",
                "code" : "0x6460016001556000526005601b6000f0600155",
                "nonce" : "0x00",
                "storage" : {
                }
            },
            "0x13136008b64ff592819b2fa6d43f2835c452020e" : {
                "balance" : "0x00",
                "code" : "0x",
                "nonce" : "0x00",
                "storage" : {
                }
            },
            "0x1a00000000000000000000000000000000000000" : {
                "balance" : "0x00",
                "code" : "0x6000600060006000600060003562013880f1",
                "nonce" : "0x00",
                "storage" : {
                }
            },
            "0x2000000000000000000000000000000000000000" : {
                "balance" : "0x00",
                "code" : "0x6460016001556000526005601b6000f0600155",
                "nonce" : "0x00",
                "storage" : {
                }
            },
            "0x2adc25665018aa1fe0e6bc666dac8fc2697ff9ba" : {
                "balance" : "0x29a2241af62d8e1c",
                "code" : "0x",
                "nonce" : "0x00",
                "storage" : {
                }
            },
            "0x3000000000000000000000000000000000000000" : {
                "balance" : "0x00",
                "code" : "0x6460016001556000526005601b6000f0600155",
                "nonce" : "0x00",
                "storage" : {
                }
            },
            "0x4b86c4ed99b87f0f396bc0c76885453c343916ed" : {
                "balance" : "0x00",
                "code" : "0x1122334455",
                "nonce" : "0x00",
                "storage" : {
                }
            },
            "0xa94f5374fce5edbc8e2a8697c15331677e6ebf0b" : {
                "balance" : "0xe8d4a381e4",
                "code" : "0x",
                "nonce" : "0x01",
                "storage" : {
                }
            }
        },
        "pre" : {
            "0x0bf4c804e0579073baf54ec4ec37cd04f3455c65" : {
                "balance" : "0x00",
                "code" : "0x",
                "nonce" : "0x02",
                "storage" : {
                }
            },
            "0x1000000000000000000000000000000000000000" : {
                "balance" : "0x00",
                "code" : "0x6460016001556000526005601b6000f0600155",
                "nonce" : "0x00",
                "storage" : {
                }
            },
            "0x13136008b64ff592819b2fa6d43f2835c452020e" : {
                "balance" : "0x00",
                "code" : "0x",
                "nonce" : "0x00",
                "storage" : {
                }
            },
            "0x1a00000000000000000000000000000000000000" : {
                "balance" : "0x00",
                "code" : "0x6000600060006000600060003562013880f1",
                "nonce" : "0x00",
                "storage" : {
                }
            },
            "0x2000000000000000000000000000000000000000" : {
                "balance" : "0x00",
                "code" : "0x6460016001556000526005601b6000f0600155",
                "nonce" : "0x00",
                "storage" : {
                }
            },
            "0x3000000000000000000000000000000000000000" : {
                "balance" : "0x00",
                "code" : "0x6460016001556000526005601b6000f0600155",
                "nonce" : "0x00",
                "storage" : {
                }
            },
            "0x4b86c4ed99b87f0f396bc0c76885453c343916ed" : {
                "balance" : "0x00",
                "code" : "0x1122334455",
                "nonce" : "0x00",
                "storage" : {
                }
            },
            "0xa94f5374fce5edbc8e2a8697c15331677e6ebf0b" : {
                "balance" : "0xe8d4a51000",
                "code" : "0x",
                "nonce" : "0x00",
                "storage" : {
                }
            }
        },
        "sealEngine" : "NoProof"
    },
    "CreateCollisionToEmpty_d2g0v0_Constantinople" : {
        "_info" : {
            "comment" : "data0 - create collision to empty, data1 - to empty but nonce, data2 - to contract with code",
            "filledwith" : "testeth 1.7.0-alpha.1-20+commit.782a7283",
            "lllcversion" : "Version: 0.5.0-develop.2018.11.9+commit.9709dfe0.Linux.g++",
            "source" : "src/BlockchainTestsFiller/GeneralStateTests/stCreateTest/CreateCollisionToEmpty_d2g0v0Filler.json",
            "sourceHash" : "a6bfbb465ab20f01f419cacffa6539295471f3bdd69a9c8e4523c81aa77f73db"
        },
        "blocks" : [
            {
                "blockHeader" : {
                    "bloom" : "0x00000000000000000000000000000000000000000000000000000000000000000000000000000000000000000000000000000000000000000000000000000000000000000000000000000000000000000000000000000000000000000000000000000000000000000000000000000000000000000000000000000000000000000000000000000000000000000000000000000000000000000000000000000000000000000000000000000000000000000000000000000000000000000000000000000000000000000000000000000000000000000000000000000000000000000000000000000000000000000000000000000000000000000000000000000000",
                    "coinbase" : "0x2adc25665018aa1fe0e6bc666dac8fc2697ff9ba",
                    "difficulty" : "0x020000",
                    "extraData" : "0x",
                    "gasLimit" : "0x989680",
                    "gasUsed" : "0x018bfa",
                    "hash" : "0x88a228ab6154d40cbc42c58a793edac5d9f9ebdb14da0e337195aa30af971244",
                    "mixHash" : "0x0000000000000000000000000000000000000000000000000000000000000000",
                    "nonce" : "0x0000000000000000",
                    "number" : "0x01",
                    "parentHash" : "0x3c8c8dfd5623ff622fd4830cdcac18c7107f47263b12be313eac6c01cacbbe7a",
                    "receiptTrie" : "0x6ba5742b7f3c1b0b4f4ea10877a719fc072602494b34d8b11e74550991f9c5d6",
                    "stateRoot" : "0x0e47f6207b7d86faae56ae65a07fc8caeb6fc2e2ba33bcfec48df459d0859b7e",
                    "timestamp" : "0x03e8",
                    "transactionsTrie" : "0x7d2e2b9a7eb3c39c88864293839b40c7a317b75f3dbc8a65234ead38594fab8b",
                    "uncleHash" : "0x1dcc4de8dec75d7aab85b567b6ccd41ad312451b948a7413f0a142fd40d49347"
                },
                "rlp" : "0xf90280f901f8a03c8c8dfd5623ff622fd4830cdcac18c7107f47263b12be313eac6c01cacbbe7aa01dcc4de8dec75d7aab85b567b6ccd41ad312451b948a7413f0a142fd40d49347942adc25665018aa1fe0e6bc666dac8fc2697ff9baa00e47f6207b7d86faae56ae65a07fc8caeb6fc2e2ba33bcfec48df459d0859b7ea07d2e2b9a7eb3c39c88864293839b40c7a317b75f3dbc8a65234ead38594fab8ba06ba5742b7f3c1b0b4f4ea10877a719fc072602494b34d8b11e74550991f9c5d6b901000000000000000000000000000000000000000000000000000000000000000000000000000000000000000000000000000000000000000000000000000000000000000000000000000000000000000000000000000000000000000000000000000000000000000000000000000000000000000000000000000000000000000000000000000000000000000000000000000000000000000000000000000000000000000000000000000000000000000000000000000000000000000000000000000000000000000000000000000000000000000000000000000000000000000000000000000000000000000000000000000000000000000000000000000000000083020000018398968083018bfa8203e880a00000000000000000000000000000000000000000000000000000000000000000880000000000000000f882f8808001830927c0941a0000000000000000000000000000000000000080a000000000000000000000000030000000000000000000000000000000000000001ba084b5ba67c8d1dffb7bd0010e98c3c4c5a53b4988a43faaa8ec40baef442505c1a016414b9ba30e63e8dfbddd1c0ef4ced3229af9254d45a807852807bed4a9748cc0",
                "transactions" : [
                    {
                        "data" : "0x0000000000000000000000003000000000000000000000000000000000000000",
                        "gasLimit" : "0x0927c0",
                        "gasPrice" : "0x01",
                        "nonce" : "0x00",
                        "r" : "0x84b5ba67c8d1dffb7bd0010e98c3c4c5a53b4988a43faaa8ec40baef442505c1",
                        "s" : "0x16414b9ba30e63e8dfbddd1c0ef4ced3229af9254d45a807852807bed4a9748c",
                        "to" : "0x1a00000000000000000000000000000000000000",
                        "v" : "0x1b",
                        "value" : "0x00"
                    }
                ],
                "uncleHeaders" : [
                ]
            }
        ],
        "genesisBlockHeader" : {
            "bloom" : "0x00000000000000000000000000000000000000000000000000000000000000000000000000000000000000000000000000000000000000000000000000000000000000000000000000000000000000000000000000000000000000000000000000000000000000000000000000000000000000000000000000000000000000000000000000000000000000000000000000000000000000000000000000000000000000000000000000000000000000000000000000000000000000000000000000000000000000000000000000000000000000000000000000000000000000000000000000000000000000000000000000000000000000000000000000000000",
            "coinbase" : "0x2adc25665018aa1fe0e6bc666dac8fc2697ff9ba",
            "difficulty" : "0x020000",
            "extraData" : "0x42",
            "gasLimit" : "0x989680",
            "gasUsed" : "0x00",
            "hash" : "0x3c8c8dfd5623ff622fd4830cdcac18c7107f47263b12be313eac6c01cacbbe7a",
            "mixHash" : "0x56e81f171bcc55a6ff8345e692c0f86e5b48e01b996cadc001622fb5e363b421",
            "nonce" : "0x0102030405060708",
            "number" : "0x00",
            "parentHash" : "0x0000000000000000000000000000000000000000000000000000000000000000",
            "receiptTrie" : "0x56e81f171bcc55a6ff8345e692c0f86e5b48e01b996cadc001622fb5e363b421",
            "stateRoot" : "0x36a0b77009bfc68d50894678ded36eb5aa49e4db3588266364b78fab96929cdd",
            "timestamp" : "0x03b6",
            "transactionsTrie" : "0x56e81f171bcc55a6ff8345e692c0f86e5b48e01b996cadc001622fb5e363b421",
            "uncleHash" : "0x1dcc4de8dec75d7aab85b567b6ccd41ad312451b948a7413f0a142fd40d49347"
        },
        "genesisRLP" : "0xf901faf901f5a00000000000000000000000000000000000000000000000000000000000000000a01dcc4de8dec75d7aab85b567b6ccd41ad312451b948a7413f0a142fd40d49347942adc25665018aa1fe0e6bc666dac8fc2697ff9baa036a0b77009bfc68d50894678ded36eb5aa49e4db3588266364b78fab96929cdda056e81f171bcc55a6ff8345e692c0f86e5b48e01b996cadc001622fb5e363b421a056e81f171bcc55a6ff8345e692c0f86e5b48e01b996cadc001622fb5e363b421b9010000000000000000000000000000000000000000000000000000000000000000000000000000000000000000000000000000000000000000000000000000000000000000000000000000000000000000000000000000000000000000000000000000000000000000000000000000000000000000000000000000000000000000000000000000000000000000000000000000000000000000000000000000000000000000000000000000000000000000000000000000000000000000000000000000000000000000000000000000000000000000000000000000000000000000000000000000000000000000000000000000000000000000000000000000000000830200008083989680808203b642a056e81f171bcc55a6ff8345e692c0f86e5b48e01b996cadc001622fb5e363b421880102030405060708c0c0",
        "lastblockhash" : "0x88a228ab6154d40cbc42c58a793edac5d9f9ebdb14da0e337195aa30af971244",
        "network" : "Constantinople",
        "postState" : {
            "0x0bf4c804e0579073baf54ec4ec37cd04f3455c65" : {
                "balance" : "0x00",
                "code" : "0x",
                "nonce" : "0x02",
                "storage" : {
                }
            },
            "0x1000000000000000000000000000000000000000" : {
                "balance" : "0x00",
                "code" : "0x6460016001556000526005601b6000f0600155",
                "nonce" : "0x00",
                "storage" : {
                }
            },
            "0x13136008b64ff592819b2fa6d43f2835c452020e" : {
                "balance" : "0x00",
                "code" : "0x",
                "nonce" : "0x00",
                "storage" : {
                }
            },
            "0x1a00000000000000000000000000000000000000" : {
                "balance" : "0x00",
                "code" : "0x6000600060006000600060003562013880f1",
                "nonce" : "0x00",
                "storage" : {
                }
            },
            "0x2000000000000000000000000000000000000000" : {
                "balance" : "0x00",
                "code" : "0x6460016001556000526005601b6000f0600155",
                "nonce" : "0x00",
                "storage" : {
                }
            },
            "0x2adc25665018aa1fe0e6bc666dac8fc2697ff9ba" : {
                "balance" : "0x1bc16d674ec98bfa",
                "code" : "0x",
                "nonce" : "0x00",
                "storage" : {
                }
            },
            "0x3000000000000000000000000000000000000000" : {
                "balance" : "0x00",
                "code" : "0x6460016001556000526005601b6000f0600155",
                "nonce" : "0x01",
                "storage" : {
                }
            },
            "0x4b86c4ed99b87f0f396bc0c76885453c343916ed" : {
                "balance" : "0x00",
                "code" : "0x1122334455",
                "nonce" : "0x00",
                "storage" : {
                }
            },
            "0xa94f5374fce5edbc8e2a8697c15331677e6ebf0b" : {
                "balance" : "0xe8d4a38406",
                "code" : "0x",
                "nonce" : "0x01",
                "storage" : {
                }
            }
        },
        "pre" : {
            "0x0bf4c804e0579073baf54ec4ec37cd04f3455c65" : {
                "balance" : "0x00",
                "code" : "0x",
                "nonce" : "0x02",
                "storage" : {
                }
            },
            "0x1000000000000000000000000000000000000000" : {
                "balance" : "0x00",
                "code" : "0x6460016001556000526005601b6000f0600155",
                "nonce" : "0x00",
                "storage" : {
                }
            },
            "0x13136008b64ff592819b2fa6d43f2835c452020e" : {
                "balance" : "0x00",
                "code" : "0x",
                "nonce" : "0x00",
                "storage" : {
                }
            },
            "0x1a00000000000000000000000000000000000000" : {
                "balance" : "0x00",
                "code" : "0x6000600060006000600060003562013880f1",
                "nonce" : "0x00",
                "storage" : {
                }
            },
            "0x2000000000000000000000000000000000000000" : {
                "balance" : "0x00",
                "code" : "0x6460016001556000526005601b6000f0600155",
                "nonce" : "0x00",
                "storage" : {
                }
            },
            "0x3000000000000000000000000000000000000000" : {
                "balance" : "0x00",
                "code" : "0x6460016001556000526005601b6000f0600155",
                "nonce" : "0x00",
                "storage" : {
                }
            },
            "0x4b86c4ed99b87f0f396bc0c76885453c343916ed" : {
                "balance" : "0x00",
                "code" : "0x1122334455",
                "nonce" : "0x00",
                "storage" : {
                }
            },
            "0xa94f5374fce5edbc8e2a8697c15331677e6ebf0b" : {
                "balance" : "0xe8d4a51000",
                "code" : "0x",
                "nonce" : "0x00",
                "storage" : {
                }
            }
        },
        "sealEngine" : "NoProof"
    },
    "CreateCollisionToEmpty_d2g0v0_ConstantinopleFix" : {
        "_info" : {
            "comment" : "data0 - create collision to empty, data1 - to empty but nonce, data2 - to contract with code",
            "filledwith" : "testeth 1.7.0-alpha.1-20+commit.782a7283",
            "lllcversion" : "Version: 0.5.0-develop.2018.11.9+commit.9709dfe0.Linux.g++",
            "source" : "src/BlockchainTestsFiller/GeneralStateTests/stCreateTest/CreateCollisionToEmpty_d2g0v0Filler.json",
            "sourceHash" : "a6bfbb465ab20f01f419cacffa6539295471f3bdd69a9c8e4523c81aa77f73db"
        },
        "blocks" : [
            {
                "blockHeader" : {
                    "bloom" : "0x00000000000000000000000000000000000000000000000000000000000000000000000000000000000000000000000000000000000000000000000000000000000000000000000000000000000000000000000000000000000000000000000000000000000000000000000000000000000000000000000000000000000000000000000000000000000000000000000000000000000000000000000000000000000000000000000000000000000000000000000000000000000000000000000000000000000000000000000000000000000000000000000000000000000000000000000000000000000000000000000000000000000000000000000000000000",
                    "coinbase" : "0x2adc25665018aa1fe0e6bc666dac8fc2697ff9ba",
                    "difficulty" : "0x020000",
                    "extraData" : "0x",
                    "gasLimit" : "0x989680",
                    "gasUsed" : "0x018e1c",
                    "hash" : "0xaa2b260b58ff42e496bea0ad11ae833cbfb68dfcc882c801393ae0d742853080",
                    "mixHash" : "0x0000000000000000000000000000000000000000000000000000000000000000",
                    "nonce" : "0x0000000000000000",
                    "number" : "0x01",
                    "parentHash" : "0x3c8c8dfd5623ff622fd4830cdcac18c7107f47263b12be313eac6c01cacbbe7a",
                    "receiptTrie" : "0x51e91047112c8e4cf80d14644c8c9d6719fe798dde330b6db4eb7cc8b57e5216",
                    "stateRoot" : "0x0401ee0c2bae757acaac9c618d2a8c0499e3d2b70a76802ae311986abd5b7340",
                    "timestamp" : "0x03e8",
                    "transactionsTrie" : "0x7d2e2b9a7eb3c39c88864293839b40c7a317b75f3dbc8a65234ead38594fab8b",
                    "uncleHash" : "0x1dcc4de8dec75d7aab85b567b6ccd41ad312451b948a7413f0a142fd40d49347"
                },
                "rlp" : "0xf90280f901f8a03c8c8dfd5623ff622fd4830cdcac18c7107f47263b12be313eac6c01cacbbe7aa01dcc4de8dec75d7aab85b567b6ccd41ad312451b948a7413f0a142fd40d49347942adc25665018aa1fe0e6bc666dac8fc2697ff9baa00401ee0c2bae757acaac9c618d2a8c0499e3d2b70a76802ae311986abd5b7340a07d2e2b9a7eb3c39c88864293839b40c7a317b75f3dbc8a65234ead38594fab8ba051e91047112c8e4cf80d14644c8c9d6719fe798dde330b6db4eb7cc8b57e5216b901000000000000000000000000000000000000000000000000000000000000000000000000000000000000000000000000000000000000000000000000000000000000000000000000000000000000000000000000000000000000000000000000000000000000000000000000000000000000000000000000000000000000000000000000000000000000000000000000000000000000000000000000000000000000000000000000000000000000000000000000000000000000000000000000000000000000000000000000000000000000000000000000000000000000000000000000000000000000000000000000000000000000000000000000000000000083020000018398968083018e1c8203e880a00000000000000000000000000000000000000000000000000000000000000000880000000000000000f882f8808001830927c0941a0000000000000000000000000000000000000080a000000000000000000000000030000000000000000000000000000000000000001ba084b5ba67c8d1dffb7bd0010e98c3c4c5a53b4988a43faaa8ec40baef442505c1a016414b9ba30e63e8dfbddd1c0ef4ced3229af9254d45a807852807bed4a9748cc0",
                "transactions" : [
                    {
                        "data" : "0x0000000000000000000000003000000000000000000000000000000000000000",
                        "gasLimit" : "0x0927c0",
                        "gasPrice" : "0x01",
                        "nonce" : "0x00",
                        "r" : "0x84b5ba67c8d1dffb7bd0010e98c3c4c5a53b4988a43faaa8ec40baef442505c1",
                        "s" : "0x16414b9ba30e63e8dfbddd1c0ef4ced3229af9254d45a807852807bed4a9748c",
                        "to" : "0x1a00000000000000000000000000000000000000",
                        "v" : "0x1b",
                        "value" : "0x00"
                    }
                ],
                "uncleHeaders" : [
                ]
            }
        ],
        "genesisBlockHeader" : {
            "bloom" : "0x00000000000000000000000000000000000000000000000000000000000000000000000000000000000000000000000000000000000000000000000000000000000000000000000000000000000000000000000000000000000000000000000000000000000000000000000000000000000000000000000000000000000000000000000000000000000000000000000000000000000000000000000000000000000000000000000000000000000000000000000000000000000000000000000000000000000000000000000000000000000000000000000000000000000000000000000000000000000000000000000000000000000000000000000000000000",
            "coinbase" : "0x2adc25665018aa1fe0e6bc666dac8fc2697ff9ba",
            "difficulty" : "0x020000",
            "extraData" : "0x42",
            "gasLimit" : "0x989680",
            "gasUsed" : "0x00",
            "hash" : "0x3c8c8dfd5623ff622fd4830cdcac18c7107f47263b12be313eac6c01cacbbe7a",
            "mixHash" : "0x56e81f171bcc55a6ff8345e692c0f86e5b48e01b996cadc001622fb5e363b421",
            "nonce" : "0x0102030405060708",
            "number" : "0x00",
            "parentHash" : "0x0000000000000000000000000000000000000000000000000000000000000000",
            "receiptTrie" : "0x56e81f171bcc55a6ff8345e692c0f86e5b48e01b996cadc001622fb5e363b421",
            "stateRoot" : "0x36a0b77009bfc68d50894678ded36eb5aa49e4db3588266364b78fab96929cdd",
            "timestamp" : "0x03b6",
            "transactionsTrie" : "0x56e81f171bcc55a6ff8345e692c0f86e5b48e01b996cadc001622fb5e363b421",
            "uncleHash" : "0x1dcc4de8dec75d7aab85b567b6ccd41ad312451b948a7413f0a142fd40d49347"
        },
        "genesisRLP" : "0xf901faf901f5a00000000000000000000000000000000000000000000000000000000000000000a01dcc4de8dec75d7aab85b567b6ccd41ad312451b948a7413f0a142fd40d49347942adc25665018aa1fe0e6bc666dac8fc2697ff9baa036a0b77009bfc68d50894678ded36eb5aa49e4db3588266364b78fab96929cdda056e81f171bcc55a6ff8345e692c0f86e5b48e01b996cadc001622fb5e363b421a056e81f171bcc55a6ff8345e692c0f86e5b48e01b996cadc001622fb5e363b421b9010000000000000000000000000000000000000000000000000000000000000000000000000000000000000000000000000000000000000000000000000000000000000000000000000000000000000000000000000000000000000000000000000000000000000000000000000000000000000000000000000000000000000000000000000000000000000000000000000000000000000000000000000000000000000000000000000000000000000000000000000000000000000000000000000000000000000000000000000000000000000000000000000000000000000000000000000000000000000000000000000000000000000000000000000000000000830200008083989680808203b642a056e81f171bcc55a6ff8345e692c0f86e5b48e01b996cadc001622fb5e363b421880102030405060708c0c0",
        "lastblockhash" : "0xaa2b260b58ff42e496bea0ad11ae833cbfb68dfcc882c801393ae0d742853080",
        "network" : "ConstantinopleFix",
        "postState" : {
            "0x0bf4c804e0579073baf54ec4ec37cd04f3455c65" : {
                "balance" : "0x00",
                "code" : "0x",
                "nonce" : "0x02",
                "storage" : {
                }
            },
            "0x1000000000000000000000000000000000000000" : {
                "balance" : "0x00",
                "code" : "0x6460016001556000526005601b6000f0600155",
                "nonce" : "0x00",
                "storage" : {
                }
            },
            "0x13136008b64ff592819b2fa6d43f2835c452020e" : {
                "balance" : "0x00",
                "code" : "0x",
                "nonce" : "0x00",
                "storage" : {
                }
            },
            "0x1a00000000000000000000000000000000000000" : {
                "balance" : "0x00",
                "code" : "0x6000600060006000600060003562013880f1",
                "nonce" : "0x00",
                "storage" : {
                }
            },
            "0x2000000000000000000000000000000000000000" : {
                "balance" : "0x00",
                "code" : "0x6460016001556000526005601b6000f0600155",
                "nonce" : "0x00",
                "storage" : {
                }
            },
            "0x2adc25665018aa1fe0e6bc666dac8fc2697ff9ba" : {
                "balance" : "0x1bc16d674ec98e1c",
                "code" : "0x",
                "nonce" : "0x00",
                "storage" : {
                }
            },
            "0x3000000000000000000000000000000000000000" : {
                "balance" : "0x00",
                "code" : "0x6460016001556000526005601b6000f0600155",
                "nonce" : "0x00",
                "storage" : {
                }
            },
            "0x4b86c4ed99b87f0f396bc0c76885453c343916ed" : {
                "balance" : "0x00",
                "code" : "0x1122334455",
                "nonce" : "0x00",
                "storage" : {
                }
            },
            "0xa94f5374fce5edbc8e2a8697c15331677e6ebf0b" : {
                "balance" : "0xe8d4a381e4",
                "code" : "0x",
                "nonce" : "0x01",
                "storage" : {
                }
            }
        },
        "pre" : {
            "0x0bf4c804e0579073baf54ec4ec37cd04f3455c65" : {
                "balance" : "0x00",
                "code" : "0x",
                "nonce" : "0x02",
                "storage" : {
                }
            },
            "0x1000000000000000000000000000000000000000" : {
                "balance" : "0x00",
                "code" : "0x6460016001556000526005601b6000f0600155",
                "nonce" : "0x00",
                "storage" : {
                }
            },
            "0x13136008b64ff592819b2fa6d43f2835c452020e" : {
                "balance" : "0x00",
                "code" : "0x",
                "nonce" : "0x00",
                "storage" : {
                }
            },
            "0x1a00000000000000000000000000000000000000" : {
                "balance" : "0x00",
                "code" : "0x6000600060006000600060003562013880f1",
                "nonce" : "0x00",
                "storage" : {
                }
            },
            "0x2000000000000000000000000000000000000000" : {
                "balance" : "0x00",
                "code" : "0x6460016001556000526005601b6000f0600155",
                "nonce" : "0x00",
                "storage" : {
                }
            },
            "0x3000000000000000000000000000000000000000" : {
                "balance" : "0x00",
                "code" : "0x6460016001556000526005601b6000f0600155",
                "nonce" : "0x00",
                "storage" : {
                }
            },
            "0x4b86c4ed99b87f0f396bc0c76885453c343916ed" : {
                "balance" : "0x00",
                "code" : "0x1122334455",
                "nonce" : "0x00",
                "storage" : {
                }
            },
            "0xa94f5374fce5edbc8e2a8697c15331677e6ebf0b" : {
                "balance" : "0xe8d4a51000",
                "code" : "0x",
                "nonce" : "0x00",
                "storage" : {
                }
            }
        },
        "sealEngine" : "NoProof"
    },
    "CreateCollisionToEmpty_d2g0v0_EIP158" : {
        "_info" : {
            "comment" : "data0 - create collision to empty, data1 - to empty but nonce, data2 - to contract with code",
            "filledwith" : "testeth 1.7.0-alpha.1-20+commit.782a7283",
            "lllcversion" : "Version: 0.5.0-develop.2018.11.9+commit.9709dfe0.Linux.g++",
            "source" : "src/BlockchainTestsFiller/GeneralStateTests/stCreateTest/CreateCollisionToEmpty_d2g0v0Filler.json",
            "sourceHash" : "a6bfbb465ab20f01f419cacffa6539295471f3bdd69a9c8e4523c81aa77f73db"
        },
        "blocks" : [
            {
                "blockHeader" : {
                    "bloom" : "0x00000000000000000000000000000000000000000000000000000000000000000000000000000000000000000000000000000000000000000000000000000000000000000000000000000000000000000000000000000000000000000000000000000000000000000000000000000000000000000000000000000000000000000000000000000000000000000000000000000000000000000000000000000000000000000000000000000000000000000000000000000000000000000000000000000000000000000000000000000000000000000000000000000000000000000000000000000000000000000000000000000000000000000000000000000000",
                    "coinbase" : "0x2adc25665018aa1fe0e6bc666dac8fc2697ff9ba",
                    "difficulty" : "0x020000",
                    "extraData" : "0x",
                    "gasLimit" : "0x989680",
                    "gasUsed" : "0x018e1c",
                    "hash" : "0x2d2343014795a1e542e65a56215b647b9511b8a7e9aa86024afceaf324e61a5b",
                    "mixHash" : "0x0000000000000000000000000000000000000000000000000000000000000000",
                    "nonce" : "0x0000000000000000",
                    "number" : "0x01",
                    "parentHash" : "0x3c8c8dfd5623ff622fd4830cdcac18c7107f47263b12be313eac6c01cacbbe7a",
                    "receiptTrie" : "0x553e604ce3d40cf75740718cfec80f178c1511d5d791e5412bf7b068a7175fec",
                    "stateRoot" : "0xff0047b2a487a5c77497f45bc6dfa2f2f06f77e78beda714570a3433cb1b49f2",
                    "timestamp" : "0x03e8",
                    "transactionsTrie" : "0x7d2e2b9a7eb3c39c88864293839b40c7a317b75f3dbc8a65234ead38594fab8b",
                    "uncleHash" : "0x1dcc4de8dec75d7aab85b567b6ccd41ad312451b948a7413f0a142fd40d49347"
                },
                "rlp" : "0xf90280f901f8a03c8c8dfd5623ff622fd4830cdcac18c7107f47263b12be313eac6c01cacbbe7aa01dcc4de8dec75d7aab85b567b6ccd41ad312451b948a7413f0a142fd40d49347942adc25665018aa1fe0e6bc666dac8fc2697ff9baa0ff0047b2a487a5c77497f45bc6dfa2f2f06f77e78beda714570a3433cb1b49f2a07d2e2b9a7eb3c39c88864293839b40c7a317b75f3dbc8a65234ead38594fab8ba0553e604ce3d40cf75740718cfec80f178c1511d5d791e5412bf7b068a7175fecb901000000000000000000000000000000000000000000000000000000000000000000000000000000000000000000000000000000000000000000000000000000000000000000000000000000000000000000000000000000000000000000000000000000000000000000000000000000000000000000000000000000000000000000000000000000000000000000000000000000000000000000000000000000000000000000000000000000000000000000000000000000000000000000000000000000000000000000000000000000000000000000000000000000000000000000000000000000000000000000000000000000000000000000000000000000000083020000018398968083018e1c8203e880a00000000000000000000000000000000000000000000000000000000000000000880000000000000000f882f8808001830927c0941a0000000000000000000000000000000000000080a000000000000000000000000030000000000000000000000000000000000000001ba084b5ba67c8d1dffb7bd0010e98c3c4c5a53b4988a43faaa8ec40baef442505c1a016414b9ba30e63e8dfbddd1c0ef4ced3229af9254d45a807852807bed4a9748cc0",
                "transactions" : [
                    {
                        "data" : "0x0000000000000000000000003000000000000000000000000000000000000000",
                        "gasLimit" : "0x0927c0",
                        "gasPrice" : "0x01",
                        "nonce" : "0x00",
                        "r" : "0x84b5ba67c8d1dffb7bd0010e98c3c4c5a53b4988a43faaa8ec40baef442505c1",
                        "s" : "0x16414b9ba30e63e8dfbddd1c0ef4ced3229af9254d45a807852807bed4a9748c",
                        "to" : "0x1a00000000000000000000000000000000000000",
                        "v" : "0x1b",
                        "value" : "0x00"
                    }
                ],
                "uncleHeaders" : [
                ]
            }
        ],
        "genesisBlockHeader" : {
            "bloom" : "0x00000000000000000000000000000000000000000000000000000000000000000000000000000000000000000000000000000000000000000000000000000000000000000000000000000000000000000000000000000000000000000000000000000000000000000000000000000000000000000000000000000000000000000000000000000000000000000000000000000000000000000000000000000000000000000000000000000000000000000000000000000000000000000000000000000000000000000000000000000000000000000000000000000000000000000000000000000000000000000000000000000000000000000000000000000000",
            "coinbase" : "0x2adc25665018aa1fe0e6bc666dac8fc2697ff9ba",
            "difficulty" : "0x020000",
            "extraData" : "0x42",
            "gasLimit" : "0x989680",
            "gasUsed" : "0x00",
            "hash" : "0x3c8c8dfd5623ff622fd4830cdcac18c7107f47263b12be313eac6c01cacbbe7a",
            "mixHash" : "0x56e81f171bcc55a6ff8345e692c0f86e5b48e01b996cadc001622fb5e363b421",
            "nonce" : "0x0102030405060708",
            "number" : "0x00",
            "parentHash" : "0x0000000000000000000000000000000000000000000000000000000000000000",
            "receiptTrie" : "0x56e81f171bcc55a6ff8345e692c0f86e5b48e01b996cadc001622fb5e363b421",
            "stateRoot" : "0x36a0b77009bfc68d50894678ded36eb5aa49e4db3588266364b78fab96929cdd",
            "timestamp" : "0x03b6",
            "transactionsTrie" : "0x56e81f171bcc55a6ff8345e692c0f86e5b48e01b996cadc001622fb5e363b421",
            "uncleHash" : "0x1dcc4de8dec75d7aab85b567b6ccd41ad312451b948a7413f0a142fd40d49347"
        },
        "genesisRLP" : "0xf901faf901f5a00000000000000000000000000000000000000000000000000000000000000000a01dcc4de8dec75d7aab85b567b6ccd41ad312451b948a7413f0a142fd40d49347942adc25665018aa1fe0e6bc666dac8fc2697ff9baa036a0b77009bfc68d50894678ded36eb5aa49e4db3588266364b78fab96929cdda056e81f171bcc55a6ff8345e692c0f86e5b48e01b996cadc001622fb5e363b421a056e81f171bcc55a6ff8345e692c0f86e5b48e01b996cadc001622fb5e363b421b9010000000000000000000000000000000000000000000000000000000000000000000000000000000000000000000000000000000000000000000000000000000000000000000000000000000000000000000000000000000000000000000000000000000000000000000000000000000000000000000000000000000000000000000000000000000000000000000000000000000000000000000000000000000000000000000000000000000000000000000000000000000000000000000000000000000000000000000000000000000000000000000000000000000000000000000000000000000000000000000000000000000000000000000000000000000000830200008083989680808203b642a056e81f171bcc55a6ff8345e692c0f86e5b48e01b996cadc001622fb5e363b421880102030405060708c0c0",
        "lastblockhash" : "0x2d2343014795a1e542e65a56215b647b9511b8a7e9aa86024afceaf324e61a5b",
        "network" : "EIP158",
        "postState" : {
            "0x0bf4c804e0579073baf54ec4ec37cd04f3455c65" : {
                "balance" : "0x00",
                "code" : "0x",
                "nonce" : "0x02",
                "storage" : {
                }
            },
            "0x1000000000000000000000000000000000000000" : {
                "balance" : "0x00",
                "code" : "0x6460016001556000526005601b6000f0600155",
                "nonce" : "0x00",
                "storage" : {
                }
            },
            "0x13136008b64ff592819b2fa6d43f2835c452020e" : {
                "balance" : "0x00",
                "code" : "0x",
                "nonce" : "0x00",
                "storage" : {
                }
            },
            "0x1a00000000000000000000000000000000000000" : {
                "balance" : "0x00",
                "code" : "0x6000600060006000600060003562013880f1",
                "nonce" : "0x00",
                "storage" : {
                }
            },
            "0x2000000000000000000000000000000000000000" : {
                "balance" : "0x00",
                "code" : "0x6460016001556000526005601b6000f0600155",
                "nonce" : "0x00",
                "storage" : {
                }
            },
            "0x2adc25665018aa1fe0e6bc666dac8fc2697ff9ba" : {
                "balance" : "0x4563918244f58e1c",
                "code" : "0x",
                "nonce" : "0x00",
                "storage" : {
                }
            },
            "0x3000000000000000000000000000000000000000" : {
                "balance" : "0x00",
                "code" : "0x6460016001556000526005601b6000f0600155",
                "nonce" : "0x00",
                "storage" : {
                }
            },
            "0x4b86c4ed99b87f0f396bc0c76885453c343916ed" : {
                "balance" : "0x00",
                "code" : "0x1122334455",
                "nonce" : "0x00",
                "storage" : {
                }
            },
            "0xa94f5374fce5edbc8e2a8697c15331677e6ebf0b" : {
                "balance" : "0xe8d4a381e4",
                "code" : "0x",
                "nonce" : "0x01",
                "storage" : {
                }
            }
        },
        "pre" : {
            "0x0bf4c804e0579073baf54ec4ec37cd04f3455c65" : {
                "balance" : "0x00",
                "code" : "0x",
                "nonce" : "0x02",
                "storage" : {
                }
            },
            "0x1000000000000000000000000000000000000000" : {
                "balance" : "0x00",
                "code" : "0x6460016001556000526005601b6000f0600155",
                "nonce" : "0x00",
                "storage" : {
                }
            },
            "0x13136008b64ff592819b2fa6d43f2835c452020e" : {
                "balance" : "0x00",
                "code" : "0x",
                "nonce" : "0x00",
                "storage" : {
                }
            },
            "0x1a00000000000000000000000000000000000000" : {
                "balance" : "0x00",
                "code" : "0x6000600060006000600060003562013880f1",
                "nonce" : "0x00",
                "storage" : {
                }
            },
            "0x2000000000000000000000000000000000000000" : {
                "balance" : "0x00",
                "code" : "0x6460016001556000526005601b6000f0600155",
                "nonce" : "0x00",
                "storage" : {
                }
            },
            "0x3000000000000000000000000000000000000000" : {
                "balance" : "0x00",
                "code" : "0x6460016001556000526005601b6000f0600155",
                "nonce" : "0x00",
                "storage" : {
                }
            },
            "0x4b86c4ed99b87f0f396bc0c76885453c343916ed" : {
                "balance" : "0x00",
                "code" : "0x1122334455",
                "nonce" : "0x00",
                "storage" : {
                }
            },
            "0xa94f5374fce5edbc8e2a8697c15331677e6ebf0b" : {
                "balance" : "0xe8d4a51000",
                "code" : "0x",
                "nonce" : "0x00",
                "storage" : {
                }
            }
        },
        "sealEngine" : "NoProof"
    }
}