{
    "CreateCollisionToEmpty_d1g1v0_Byzantium" : {
        "_info" : {
            "comment" : "data0 - create collision to empty, data1 - to empty but nonce, data2 - to contract with code",
            "filledwith" : "testeth 1.7.0-alpha.1-20+commit.782a7283",
            "lllcversion" : "Version: 0.5.0-develop.2018.11.9+commit.9709dfe0.Linux.g++",
            "source" : "src/BlockchainTestsFiller/GeneralStateTests/stCreateTest/CreateCollisionToEmpty_d1g1v0Filler.json",
            "sourceHash" : "079f9deadf8df8500cf13307114b927dcc996a59cea3de483c596f0f99572f1f"
        },
        "blocks" : [
            {
                "blockHeader" : {
                    "bloom" : "0x00000000000000000000000000000000000000000000000000000000000000000000000000000000000000000000000000000000000000000000000000000000000000000000000000000000000000000000000000000000000000000000000000000000000000000000000000000000000000000000000000000000000000000000000000000000000000000000000000000000000000000000000000000000000000000000000000000000000000000000000000000000000000000000000000000000000000000000000000000000000000000000000000000000000000000000000000000000000000000000000000000000000000000000000000000000",
                    "coinbase" : "0x2adc25665018aa1fe0e6bc666dac8fc2697ff9ba",
                    "difficulty" : "0x020000",
                    "extraData" : "0x",
                    "gasLimit" : "0x989680",
                    "gasUsed" : "0xd0fb",
                    "hash" : "0xa40ca9addfeead8c9fdfbb5ce2fd52a7501dc9158dab5515b07cca552e20cbe4",
                    "mixHash" : "0x0000000000000000000000000000000000000000000000000000000000000000",
                    "nonce" : "0x0000000000000000",
                    "number" : "0x01",
                    "parentHash" : "0x3c8c8dfd5623ff622fd4830cdcac18c7107f47263b12be313eac6c01cacbbe7a",
                    "receiptTrie" : "0xe265843b0e1d42d26eb82c756367a5faef9595a5a1d6950c97488b078654e0f7",
                    "stateRoot" : "0x5a89dd94bf1d2d10e6fa7bb992657c9f04785de9504a17d375dde45d3c66f369",
                    "timestamp" : "0x03e8",
                    "transactionsTrie" : "0x30a0fd84d9f9b088c1f3569f396d643e9a5d20ec4c975bec24cde9a2aedb9334",
                    "uncleHash" : "0x1dcc4de8dec75d7aab85b567b6ccd41ad312451b948a7413f0a142fd40d49347"
                },
                "rlp" : "0xf9027ef901f7a03c8c8dfd5623ff622fd4830cdcac18c7107f47263b12be313eac6c01cacbbe7aa01dcc4de8dec75d7aab85b567b6ccd41ad312451b948a7413f0a142fd40d49347942adc25665018aa1fe0e6bc666dac8fc2697ff9baa05a89dd94bf1d2d10e6fa7bb992657c9f04785de9504a17d375dde45d3c66f369a030a0fd84d9f9b088c1f3569f396d643e9a5d20ec4c975bec24cde9a2aedb9334a0e265843b0e1d42d26eb82c756367a5faef9595a5a1d6950c97488b078654e0f7b901000000000000000000000000000000000000000000000000000000000000000000000000000000000000000000000000000000000000000000000000000000000000000000000000000000000000000000000000000000000000000000000000000000000000000000000000000000000000000000000000000000000000000000000000000000000000000000000000000000000000000000000000000000000000000000000000000000000000000000000000000000000000000000000000000000000000000000000000000000000000000000000000000000000000000000000000000000000000000000000000000000000000000000000000000000000083020000018398968082d0fb8203e880a00000000000000000000000000000000000000000000000000000000000000000880000000000000000f881f87f800182d2f0941a0000000000000000000000000000000000000080a000000000000000000000000020000000000000000000000000000000000000001ba02c74372b0b27329a7e501c996928a9ef0a593c21e6e62897750b23be8009b119a0197564dc8f80ad59ad22f6dd333f2028301398ec225d3d04e789d878207991dec0",
                "transactions" : [
                    {
                        "data" : "0x0000000000000000000000002000000000000000000000000000000000000000",
                        "gasLimit" : "0xd2f0",
                        "gasPrice" : "0x01",
                        "nonce" : "0x00",
                        "r" : "0x2c74372b0b27329a7e501c996928a9ef0a593c21e6e62897750b23be8009b119",
                        "s" : "0x197564dc8f80ad59ad22f6dd333f2028301398ec225d3d04e789d878207991de",
                        "to" : "0x1a00000000000000000000000000000000000000",
                        "v" : "0x1b",
                        "value" : "0x00"
                    }
                ],
                "uncleHeaders" : [
                ]
            }
        ],
        "genesisBlockHeader" : {
            "bloom" : "0x00000000000000000000000000000000000000000000000000000000000000000000000000000000000000000000000000000000000000000000000000000000000000000000000000000000000000000000000000000000000000000000000000000000000000000000000000000000000000000000000000000000000000000000000000000000000000000000000000000000000000000000000000000000000000000000000000000000000000000000000000000000000000000000000000000000000000000000000000000000000000000000000000000000000000000000000000000000000000000000000000000000000000000000000000000000",
            "coinbase" : "0x2adc25665018aa1fe0e6bc666dac8fc2697ff9ba",
            "difficulty" : "0x020000",
            "extraData" : "0x42",
            "gasLimit" : "0x989680",
            "gasUsed" : "0x00",
            "hash" : "0x3c8c8dfd5623ff622fd4830cdcac18c7107f47263b12be313eac6c01cacbbe7a",
            "mixHash" : "0x56e81f171bcc55a6ff8345e692c0f86e5b48e01b996cadc001622fb5e363b421",
            "nonce" : "0x0102030405060708",
            "number" : "0x00",
            "parentHash" : "0x0000000000000000000000000000000000000000000000000000000000000000",
            "receiptTrie" : "0x56e81f171bcc55a6ff8345e692c0f86e5b48e01b996cadc001622fb5e363b421",
            "stateRoot" : "0x36a0b77009bfc68d50894678ded36eb5aa49e4db3588266364b78fab96929cdd",
            "timestamp" : "0x03b6",
            "transactionsTrie" : "0x56e81f171bcc55a6ff8345e692c0f86e5b48e01b996cadc001622fb5e363b421",
            "uncleHash" : "0x1dcc4de8dec75d7aab85b567b6ccd41ad312451b948a7413f0a142fd40d49347"
        },
        "genesisRLP" : "0xf901faf901f5a00000000000000000000000000000000000000000000000000000000000000000a01dcc4de8dec75d7aab85b567b6ccd41ad312451b948a7413f0a142fd40d49347942adc25665018aa1fe0e6bc666dac8fc2697ff9baa036a0b77009bfc68d50894678ded36eb5aa49e4db3588266364b78fab96929cdda056e81f171bcc55a6ff8345e692c0f86e5b48e01b996cadc001622fb5e363b421a056e81f171bcc55a6ff8345e692c0f86e5b48e01b996cadc001622fb5e363b421b9010000000000000000000000000000000000000000000000000000000000000000000000000000000000000000000000000000000000000000000000000000000000000000000000000000000000000000000000000000000000000000000000000000000000000000000000000000000000000000000000000000000000000000000000000000000000000000000000000000000000000000000000000000000000000000000000000000000000000000000000000000000000000000000000000000000000000000000000000000000000000000000000000000000000000000000000000000000000000000000000000000000000000000000000000000000000830200008083989680808203b642a056e81f171bcc55a6ff8345e692c0f86e5b48e01b996cadc001622fb5e363b421880102030405060708c0c0",
        "lastblockhash" : "0xa40ca9addfeead8c9fdfbb5ce2fd52a7501dc9158dab5515b07cca552e20cbe4",
        "network" : "Byzantium",
        "postState" : {
            "0x0bf4c804e0579073baf54ec4ec37cd04f3455c65" : {
                "balance" : "0x00",
                "code" : "0x",
                "nonce" : "0x02",
                "storage" : {
                }
            },
            "0x1000000000000000000000000000000000000000" : {
                "balance" : "0x00",
                "code" : "0x6460016001556000526005601b6000f0600155",
                "nonce" : "0x00",
                "storage" : {
                }
            },
            "0x13136008b64ff592819b2fa6d43f2835c452020e" : {
                "balance" : "0x00",
                "code" : "0x",
                "nonce" : "0x00",
                "storage" : {
                }
            },
            "0x1a00000000000000000000000000000000000000" : {
                "balance" : "0x00",
                "code" : "0x6000600060006000600060003562013880f1",
                "nonce" : "0x00",
                "storage" : {
                }
            },
            "0x2000000000000000000000000000000000000000" : {
                "balance" : "0x00",
                "code" : "0x6460016001556000526005601b6000f0600155",
                "nonce" : "0x00",
                "storage" : {
                }
            },
            "0x2adc25665018aa1fe0e6bc666dac8fc2697ff9ba" : {
                "balance" : "0x29a2241af62cd0fb",
                "code" : "0x",
                "nonce" : "0x00",
                "storage" : {
                }
            },
            "0x3000000000000000000000000000000000000000" : {
                "balance" : "0x00",
                "code" : "0x6460016001556000526005601b6000f0600155",
                "nonce" : "0x00",
                "storage" : {
                }
            },
            "0x4b86c4ed99b87f0f396bc0c76885453c343916ed" : {
                "balance" : "0x00",
                "code" : "0x1122334455",
                "nonce" : "0x00",
                "storage" : {
                }
            },
            "0xa94f5374fce5edbc8e2a8697c15331677e6ebf0b" : {
                "balance" : "0xe8d4a43f05",
                "code" : "0x",
                "nonce" : "0x01",
                "storage" : {
                }
            }
        },
        "pre" : {
            "0x0bf4c804e0579073baf54ec4ec37cd04f3455c65" : {
                "balance" : "0x00",
                "code" : "0x",
                "nonce" : "0x02",
                "storage" : {
                }
            },
            "0x1000000000000000000000000000000000000000" : {
                "balance" : "0x00",
                "code" : "0x6460016001556000526005601b6000f0600155",
                "nonce" : "0x00",
                "storage" : {
                }
            },
            "0x13136008b64ff592819b2fa6d43f2835c452020e" : {
                "balance" : "0x00",
                "code" : "0x",
                "nonce" : "0x00",
                "storage" : {
                }
            },
            "0x1a00000000000000000000000000000000000000" : {
                "balance" : "0x00",
                "code" : "0x6000600060006000600060003562013880f1",
                "nonce" : "0x00",
                "storage" : {
                }
            },
            "0x2000000000000000000000000000000000000000" : {
                "balance" : "0x00",
                "code" : "0x6460016001556000526005601b6000f0600155",
                "nonce" : "0x00",
                "storage" : {
                }
            },
            "0x3000000000000000000000000000000000000000" : {
                "balance" : "0x00",
                "code" : "0x6460016001556000526005601b6000f0600155",
                "nonce" : "0x00",
                "storage" : {
                }
            },
            "0x4b86c4ed99b87f0f396bc0c76885453c343916ed" : {
                "balance" : "0x00",
                "code" : "0x1122334455",
                "nonce" : "0x00",
                "storage" : {
                }
            },
            "0xa94f5374fce5edbc8e2a8697c15331677e6ebf0b" : {
                "balance" : "0xe8d4a51000",
                "code" : "0x",
                "nonce" : "0x00",
                "storage" : {
                }
            }
        },
        "sealEngine" : "NoProof"
    },
    "CreateCollisionToEmpty_d1g1v0_Constantinople" : {
        "_info" : {
            "comment" : "data0 - create collision to empty, data1 - to empty but nonce, data2 - to contract with code",
            "filledwith" : "testeth 1.7.0-alpha.1-20+commit.782a7283",
            "lllcversion" : "Version: 0.5.0-develop.2018.11.9+commit.9709dfe0.Linux.g++",
            "source" : "src/BlockchainTestsFiller/GeneralStateTests/stCreateTest/CreateCollisionToEmpty_d1g1v0Filler.json",
            "sourceHash" : "079f9deadf8df8500cf13307114b927dcc996a59cea3de483c596f0f99572f1f"
        },
        "blocks" : [
            {
                "blockHeader" : {
                    "bloom" : "0x00000000000000000000000000000000000000000000000000000000000000000000000000000000000000000000000000000000000000000000000000000000000000000000000000000000000000000000000000000000000000000000000000000000000000000000000000000000000000000000000000000000000000000000000000000000000000000000000000000000000000000000000000000000000000000000000000000000000000000000000000000000000000000000000000000000000000000000000000000000000000000000000000000000000000000000000000000000000000000000000000000000000000000000000000000000",
                    "coinbase" : "0x2adc25665018aa1fe0e6bc666dac8fc2697ff9ba",
                    "difficulty" : "0x020000",
                    "extraData" : "0x",
                    "gasLimit" : "0x989680",
                    "gasUsed" : "0xd0fb",
                    "hash" : "0xacba79e8c757764d4726e5ec0169335251dafd21e5eb127fecb4a61568fa1015",
                    "mixHash" : "0x0000000000000000000000000000000000000000000000000000000000000000",
                    "nonce" : "0x0000000000000000",
                    "number" : "0x01",
                    "parentHash" : "0x3c8c8dfd5623ff622fd4830cdcac18c7107f47263b12be313eac6c01cacbbe7a",
                    "receiptTrie" : "0xe265843b0e1d42d26eb82c756367a5faef9595a5a1d6950c97488b078654e0f7",
                    "stateRoot" : "0x63fcf9c766fff1ab47b9d26d1f155d7a5355d85d1f2e962440b3ba91995d7e62",
                    "timestamp" : "0x03e8",
                    "transactionsTrie" : "0x30a0fd84d9f9b088c1f3569f396d643e9a5d20ec4c975bec24cde9a2aedb9334",
                    "uncleHash" : "0x1dcc4de8dec75d7aab85b567b6ccd41ad312451b948a7413f0a142fd40d49347"
                },
                "rlp" : "0xf9027ef901f7a03c8c8dfd5623ff622fd4830cdcac18c7107f47263b12be313eac6c01cacbbe7aa01dcc4de8dec75d7aab85b567b6ccd41ad312451b948a7413f0a142fd40d49347942adc25665018aa1fe0e6bc666dac8fc2697ff9baa063fcf9c766fff1ab47b9d26d1f155d7a5355d85d1f2e962440b3ba91995d7e62a030a0fd84d9f9b088c1f3569f396d643e9a5d20ec4c975bec24cde9a2aedb9334a0e265843b0e1d42d26eb82c756367a5faef9595a5a1d6950c97488b078654e0f7b901000000000000000000000000000000000000000000000000000000000000000000000000000000000000000000000000000000000000000000000000000000000000000000000000000000000000000000000000000000000000000000000000000000000000000000000000000000000000000000000000000000000000000000000000000000000000000000000000000000000000000000000000000000000000000000000000000000000000000000000000000000000000000000000000000000000000000000000000000000000000000000000000000000000000000000000000000000000000000000000000000000000000000000000000000000000083020000018398968082d0fb8203e880a00000000000000000000000000000000000000000000000000000000000000000880000000000000000f881f87f800182d2f0941a0000000000000000000000000000000000000080a000000000000000000000000020000000000000000000000000000000000000001ba02c74372b0b27329a7e501c996928a9ef0a593c21e6e62897750b23be8009b119a0197564dc8f80ad59ad22f6dd333f2028301398ec225d3d04e789d878207991dec0",
                "transactions" : [
                    {
                        "data" : "0x0000000000000000000000002000000000000000000000000000000000000000",
                        "gasLimit" : "0xd2f0",
                        "gasPrice" : "0x01",
                        "nonce" : "0x00",
                        "r" : "0x2c74372b0b27329a7e501c996928a9ef0a593c21e6e62897750b23be8009b119",
                        "s" : "0x197564dc8f80ad59ad22f6dd333f2028301398ec225d3d04e789d878207991de",
                        "to" : "0x1a00000000000000000000000000000000000000",
                        "v" : "0x1b",
                        "value" : "0x00"
                    }
                ],
                "uncleHeaders" : [
                ]
            }
        ],
        "genesisBlockHeader" : {
            "bloom" : "0x00000000000000000000000000000000000000000000000000000000000000000000000000000000000000000000000000000000000000000000000000000000000000000000000000000000000000000000000000000000000000000000000000000000000000000000000000000000000000000000000000000000000000000000000000000000000000000000000000000000000000000000000000000000000000000000000000000000000000000000000000000000000000000000000000000000000000000000000000000000000000000000000000000000000000000000000000000000000000000000000000000000000000000000000000000000",
            "coinbase" : "0x2adc25665018aa1fe0e6bc666dac8fc2697ff9ba",
            "difficulty" : "0x020000",
            "extraData" : "0x42",
            "gasLimit" : "0x989680",
            "gasUsed" : "0x00",
            "hash" : "0x3c8c8dfd5623ff622fd4830cdcac18c7107f47263b12be313eac6c01cacbbe7a",
            "mixHash" : "0x56e81f171bcc55a6ff8345e692c0f86e5b48e01b996cadc001622fb5e363b421",
            "nonce" : "0x0102030405060708",
            "number" : "0x00",
            "parentHash" : "0x0000000000000000000000000000000000000000000000000000000000000000",
            "receiptTrie" : "0x56e81f171bcc55a6ff8345e692c0f86e5b48e01b996cadc001622fb5e363b421",
            "stateRoot" : "0x36a0b77009bfc68d50894678ded36eb5aa49e4db3588266364b78fab96929cdd",
            "timestamp" : "0x03b6",
            "transactionsTrie" : "0x56e81f171bcc55a6ff8345e692c0f86e5b48e01b996cadc001622fb5e363b421",
            "uncleHash" : "0x1dcc4de8dec75d7aab85b567b6ccd41ad312451b948a7413f0a142fd40d49347"
        },
        "genesisRLP" : "0xf901faf901f5a00000000000000000000000000000000000000000000000000000000000000000a01dcc4de8dec75d7aab85b567b6ccd41ad312451b948a7413f0a142fd40d49347942adc25665018aa1fe0e6bc666dac8fc2697ff9baa036a0b77009bfc68d50894678ded36eb5aa49e4db3588266364b78fab96929cdda056e81f171bcc55a6ff8345e692c0f86e5b48e01b996cadc001622fb5e363b421a056e81f171bcc55a6ff8345e692c0f86e5b48e01b996cadc001622fb5e363b421b9010000000000000000000000000000000000000000000000000000000000000000000000000000000000000000000000000000000000000000000000000000000000000000000000000000000000000000000000000000000000000000000000000000000000000000000000000000000000000000000000000000000000000000000000000000000000000000000000000000000000000000000000000000000000000000000000000000000000000000000000000000000000000000000000000000000000000000000000000000000000000000000000000000000000000000000000000000000000000000000000000000000000000000000000000000000000830200008083989680808203b642a056e81f171bcc55a6ff8345e692c0f86e5b48e01b996cadc001622fb5e363b421880102030405060708c0c0",
        "lastblockhash" : "0xacba79e8c757764d4726e5ec0169335251dafd21e5eb127fecb4a61568fa1015",
        "network" : "Constantinople",
        "postState" : {
            "0x0bf4c804e0579073baf54ec4ec37cd04f3455c65" : {
                "balance" : "0x00",
                "code" : "0x",
                "nonce" : "0x02",
                "storage" : {
                }
            },
            "0x1000000000000000000000000000000000000000" : {
                "balance" : "0x00",
                "code" : "0x6460016001556000526005601b6000f0600155",
                "nonce" : "0x00",
                "storage" : {
                }
            },
            "0x13136008b64ff592819b2fa6d43f2835c452020e" : {
                "balance" : "0x00",
                "code" : "0x",
                "nonce" : "0x00",
                "storage" : {
                }
            },
            "0x1a00000000000000000000000000000000000000" : {
                "balance" : "0x00",
                "code" : "0x6000600060006000600060003562013880f1",
                "nonce" : "0x00",
                "storage" : {
                }
            },
            "0x2000000000000000000000000000000000000000" : {
                "balance" : "0x00",
                "code" : "0x6460016001556000526005601b6000f0600155",
                "nonce" : "0x00",
                "storage" : {
                }
            },
            "0x2adc25665018aa1fe0e6bc666dac8fc2697ff9ba" : {
                "balance" : "0x1bc16d674ec8d0fb",
                "code" : "0x",
                "nonce" : "0x00",
                "storage" : {
                }
            },
            "0x3000000000000000000000000000000000000000" : {
                "balance" : "0x00",
                "code" : "0x6460016001556000526005601b6000f0600155",
                "nonce" : "0x00",
                "storage" : {
                }
            },
            "0x4b86c4ed99b87f0f396bc0c76885453c343916ed" : {
                "balance" : "0x00",
                "code" : "0x1122334455",
                "nonce" : "0x00",
                "storage" : {
                }
            },
            "0xa94f5374fce5edbc8e2a8697c15331677e6ebf0b" : {
                "balance" : "0xe8d4a43f05",
                "code" : "0x",
                "nonce" : "0x01",
                "storage" : {
                }
            }
        },
        "pre" : {
            "0x0bf4c804e0579073baf54ec4ec37cd04f3455c65" : {
                "balance" : "0x00",
                "code" : "0x",
                "nonce" : "0x02",
                "storage" : {
                }
            },
            "0x1000000000000000000000000000000000000000" : {
                "balance" : "0x00",
                "code" : "0x6460016001556000526005601b6000f0600155",
                "nonce" : "0x00",
                "storage" : {
                }
            },
            "0x13136008b64ff592819b2fa6d43f2835c452020e" : {
                "balance" : "0x00",
                "code" : "0x",
                "nonce" : "0x00",
                "storage" : {
                }
            },
            "0x1a00000000000000000000000000000000000000" : {
                "balance" : "0x00",
                "code" : "0x6000600060006000600060003562013880f1",
                "nonce" : "0x00",
                "storage" : {
                }
            },
            "0x2000000000000000000000000000000000000000" : {
                "balance" : "0x00",
                "code" : "0x6460016001556000526005601b6000f0600155",
                "nonce" : "0x00",
                "storage" : {
                }
            },
            "0x3000000000000000000000000000000000000000" : {
                "balance" : "0x00",
                "code" : "0x6460016001556000526005601b6000f0600155",
                "nonce" : "0x00",
                "storage" : {
                }
            },
            "0x4b86c4ed99b87f0f396bc0c76885453c343916ed" : {
                "balance" : "0x00",
                "code" : "0x1122334455",
                "nonce" : "0x00",
                "storage" : {
                }
            },
            "0xa94f5374fce5edbc8e2a8697c15331677e6ebf0b" : {
                "balance" : "0xe8d4a51000",
                "code" : "0x",
                "nonce" : "0x00",
                "storage" : {
                }
            }
        },
        "sealEngine" : "NoProof"
    },
    "CreateCollisionToEmpty_d1g1v0_ConstantinopleFix" : {
        "_info" : {
            "comment" : "data0 - create collision to empty, data1 - to empty but nonce, data2 - to contract with code",
            "filledwith" : "testeth 1.7.0-alpha.1-20+commit.782a7283",
            "lllcversion" : "Version: 0.5.0-develop.2018.11.9+commit.9709dfe0.Linux.g++",
            "source" : "src/BlockchainTestsFiller/GeneralStateTests/stCreateTest/CreateCollisionToEmpty_d1g1v0Filler.json",
            "sourceHash" : "079f9deadf8df8500cf13307114b927dcc996a59cea3de483c596f0f99572f1f"
        },
        "blocks" : [
            {
                "blockHeader" : {
                    "bloom" : "0x00000000000000000000000000000000000000000000000000000000000000000000000000000000000000000000000000000000000000000000000000000000000000000000000000000000000000000000000000000000000000000000000000000000000000000000000000000000000000000000000000000000000000000000000000000000000000000000000000000000000000000000000000000000000000000000000000000000000000000000000000000000000000000000000000000000000000000000000000000000000000000000000000000000000000000000000000000000000000000000000000000000000000000000000000000000",
                    "coinbase" : "0x2adc25665018aa1fe0e6bc666dac8fc2697ff9ba",
                    "difficulty" : "0x020000",
                    "extraData" : "0x",
                    "gasLimit" : "0x989680",
                    "gasUsed" : "0xd0fb",
                    "hash" : "0xacba79e8c757764d4726e5ec0169335251dafd21e5eb127fecb4a61568fa1015",
                    "mixHash" : "0x0000000000000000000000000000000000000000000000000000000000000000",
                    "nonce" : "0x0000000000000000",
                    "number" : "0x01",
                    "parentHash" : "0x3c8c8dfd5623ff622fd4830cdcac18c7107f47263b12be313eac6c01cacbbe7a",
                    "receiptTrie" : "0xe265843b0e1d42d26eb82c756367a5faef9595a5a1d6950c97488b078654e0f7",
                    "stateRoot" : "0x63fcf9c766fff1ab47b9d26d1f155d7a5355d85d1f2e962440b3ba91995d7e62",
                    "timestamp" : "0x03e8",
                    "transactionsTrie" : "0x30a0fd84d9f9b088c1f3569f396d643e9a5d20ec4c975bec24cde9a2aedb9334",
                    "uncleHash" : "0x1dcc4de8dec75d7aab85b567b6ccd41ad312451b948a7413f0a142fd40d49347"
                },
                "rlp" : "0xf9027ef901f7a03c8c8dfd5623ff622fd4830cdcac18c7107f47263b12be313eac6c01cacbbe7aa01dcc4de8dec75d7aab85b567b6ccd41ad312451b948a7413f0a142fd40d49347942adc25665018aa1fe0e6bc666dac8fc2697ff9baa063fcf9c766fff1ab47b9d26d1f155d7a5355d85d1f2e962440b3ba91995d7e62a030a0fd84d9f9b088c1f3569f396d643e9a5d20ec4c975bec24cde9a2aedb9334a0e265843b0e1d42d26eb82c756367a5faef9595a5a1d6950c97488b078654e0f7b901000000000000000000000000000000000000000000000000000000000000000000000000000000000000000000000000000000000000000000000000000000000000000000000000000000000000000000000000000000000000000000000000000000000000000000000000000000000000000000000000000000000000000000000000000000000000000000000000000000000000000000000000000000000000000000000000000000000000000000000000000000000000000000000000000000000000000000000000000000000000000000000000000000000000000000000000000000000000000000000000000000000000000000000000000000000083020000018398968082d0fb8203e880a00000000000000000000000000000000000000000000000000000000000000000880000000000000000f881f87f800182d2f0941a0000000000000000000000000000000000000080a000000000000000000000000020000000000000000000000000000000000000001ba02c74372b0b27329a7e501c996928a9ef0a593c21e6e62897750b23be8009b119a0197564dc8f80ad59ad22f6dd333f2028301398ec225d3d04e789d878207991dec0",
                "transactions" : [
                    {
                        "data" : "0x0000000000000000000000002000000000000000000000000000000000000000",
                        "gasLimit" : "0xd2f0",
                        "gasPrice" : "0x01",
                        "nonce" : "0x00",
                        "r" : "0x2c74372b0b27329a7e501c996928a9ef0a593c21e6e62897750b23be8009b119",
                        "s" : "0x197564dc8f80ad59ad22f6dd333f2028301398ec225d3d04e789d878207991de",
                        "to" : "0x1a00000000000000000000000000000000000000",
                        "v" : "0x1b",
                        "value" : "0x00"
                    }
                ],
                "uncleHeaders" : [
                ]
            }
        ],
        "genesisBlockHeader" : {
            "bloom" : "0x00000000000000000000000000000000000000000000000000000000000000000000000000000000000000000000000000000000000000000000000000000000000000000000000000000000000000000000000000000000000000000000000000000000000000000000000000000000000000000000000000000000000000000000000000000000000000000000000000000000000000000000000000000000000000000000000000000000000000000000000000000000000000000000000000000000000000000000000000000000000000000000000000000000000000000000000000000000000000000000000000000000000000000000000000000000",
            "coinbase" : "0x2adc25665018aa1fe0e6bc666dac8fc2697ff9ba",
            "difficulty" : "0x020000",
            "extraData" : "0x42",
            "gasLimit" : "0x989680",
            "gasUsed" : "0x00",
            "hash" : "0x3c8c8dfd5623ff622fd4830cdcac18c7107f47263b12be313eac6c01cacbbe7a",
            "mixHash" : "0x56e81f171bcc55a6ff8345e692c0f86e5b48e01b996cadc001622fb5e363b421",
            "nonce" : "0x0102030405060708",
            "number" : "0x00",
            "parentHash" : "0x0000000000000000000000000000000000000000000000000000000000000000",
            "receiptTrie" : "0x56e81f171bcc55a6ff8345e692c0f86e5b48e01b996cadc001622fb5e363b421",
            "stateRoot" : "0x36a0b77009bfc68d50894678ded36eb5aa49e4db3588266364b78fab96929cdd",
            "timestamp" : "0x03b6",
            "transactionsTrie" : "0x56e81f171bcc55a6ff8345e692c0f86e5b48e01b996cadc001622fb5e363b421",
            "uncleHash" : "0x1dcc4de8dec75d7aab85b567b6ccd41ad312451b948a7413f0a142fd40d49347"
        },
        "genesisRLP" : "0xf901faf901f5a00000000000000000000000000000000000000000000000000000000000000000a01dcc4de8dec75d7aab85b567b6ccd41ad312451b948a7413f0a142fd40d49347942adc25665018aa1fe0e6bc666dac8fc2697ff9baa036a0b77009bfc68d50894678ded36eb5aa49e4db3588266364b78fab96929cdda056e81f171bcc55a6ff8345e692c0f86e5b48e01b996cadc001622fb5e363b421a056e81f171bcc55a6ff8345e692c0f86e5b48e01b996cadc001622fb5e363b421b9010000000000000000000000000000000000000000000000000000000000000000000000000000000000000000000000000000000000000000000000000000000000000000000000000000000000000000000000000000000000000000000000000000000000000000000000000000000000000000000000000000000000000000000000000000000000000000000000000000000000000000000000000000000000000000000000000000000000000000000000000000000000000000000000000000000000000000000000000000000000000000000000000000000000000000000000000000000000000000000000000000000000000000000000000000000000830200008083989680808203b642a056e81f171bcc55a6ff8345e692c0f86e5b48e01b996cadc001622fb5e363b421880102030405060708c0c0",
        "lastblockhash" : "0xacba79e8c757764d4726e5ec0169335251dafd21e5eb127fecb4a61568fa1015",
        "network" : "ConstantinopleFix",
        "postState" : {
            "0x0bf4c804e0579073baf54ec4ec37cd04f3455c65" : {
                "balance" : "0x00",
                "code" : "0x",
                "nonce" : "0x02",
                "storage" : {
                }
            },
            "0x1000000000000000000000000000000000000000" : {
                "balance" : "0x00",
                "code" : "0x6460016001556000526005601b6000f0600155",
                "nonce" : "0x00",
                "storage" : {
                }
            },
            "0x13136008b64ff592819b2fa6d43f2835c452020e" : {
                "balance" : "0x00",
                "code" : "0x",
                "nonce" : "0x00",
                "storage" : {
                }
            },
            "0x1a00000000000000000000000000000000000000" : {
                "balance" : "0x00",
                "code" : "0x6000600060006000600060003562013880f1",
                "nonce" : "0x00",
                "storage" : {
                }
            },
            "0x2000000000000000000000000000000000000000" : {
                "balance" : "0x00",
                "code" : "0x6460016001556000526005601b6000f0600155",
                "nonce" : "0x00",
                "storage" : {
                }
            },
            "0x2adc25665018aa1fe0e6bc666dac8fc2697ff9ba" : {
                "balance" : "0x1bc16d674ec8d0fb",
                "code" : "0x",
                "nonce" : "0x00",
                "storage" : {
                }
            },
            "0x3000000000000000000000000000000000000000" : {
                "balance" : "0x00",
                "code" : "0x6460016001556000526005601b6000f0600155",
                "nonce" : "0x00",
                "storage" : {
                }
            },
            "0x4b86c4ed99b87f0f396bc0c76885453c343916ed" : {
                "balance" : "0x00",
                "code" : "0x1122334455",
                "nonce" : "0x00",
                "storage" : {
                }
            },
            "0xa94f5374fce5edbc8e2a8697c15331677e6ebf0b" : {
                "balance" : "0xe8d4a43f05",
                "code" : "0x",
                "nonce" : "0x01",
                "storage" : {
                }
            }
        },
        "pre" : {
            "0x0bf4c804e0579073baf54ec4ec37cd04f3455c65" : {
                "balance" : "0x00",
                "code" : "0x",
                "nonce" : "0x02",
                "storage" : {
                }
            },
            "0x1000000000000000000000000000000000000000" : {
                "balance" : "0x00",
                "code" : "0x6460016001556000526005601b6000f0600155",
                "nonce" : "0x00",
                "storage" : {
                }
            },
            "0x13136008b64ff592819b2fa6d43f2835c452020e" : {
                "balance" : "0x00",
                "code" : "0x",
                "nonce" : "0x00",
                "storage" : {
                }
            },
            "0x1a00000000000000000000000000000000000000" : {
                "balance" : "0x00",
                "code" : "0x6000600060006000600060003562013880f1",
                "nonce" : "0x00",
                "storage" : {
                }
            },
            "0x2000000000000000000000000000000000000000" : {
                "balance" : "0x00",
                "code" : "0x6460016001556000526005601b6000f0600155",
                "nonce" : "0x00",
                "storage" : {
                }
            },
            "0x3000000000000000000000000000000000000000" : {
                "balance" : "0x00",
                "code" : "0x6460016001556000526005601b6000f0600155",
                "nonce" : "0x00",
                "storage" : {
                }
            },
            "0x4b86c4ed99b87f0f396bc0c76885453c343916ed" : {
                "balance" : "0x00",
                "code" : "0x1122334455",
                "nonce" : "0x00",
                "storage" : {
                }
            },
            "0xa94f5374fce5edbc8e2a8697c15331677e6ebf0b" : {
                "balance" : "0xe8d4a51000",
                "code" : "0x",
                "nonce" : "0x00",
                "storage" : {
                }
            }
        },
        "sealEngine" : "NoProof"
    },
    "CreateCollisionToEmpty_d1g1v0_EIP158" : {
        "_info" : {
            "comment" : "data0 - create collision to empty, data1 - to empty but nonce, data2 - to contract with code",
            "filledwith" : "testeth 1.7.0-alpha.1-20+commit.782a7283",
            "lllcversion" : "Version: 0.5.0-develop.2018.11.9+commit.9709dfe0.Linux.g++",
            "source" : "src/BlockchainTestsFiller/GeneralStateTests/stCreateTest/CreateCollisionToEmpty_d1g1v0Filler.json",
            "sourceHash" : "079f9deadf8df8500cf13307114b927dcc996a59cea3de483c596f0f99572f1f"
        },
        "blocks" : [
            {
                "blockHeader" : {
                    "bloom" : "0x00000000000000000000000000000000000000000000000000000000000000000000000000000000000000000000000000000000000000000000000000000000000000000000000000000000000000000000000000000000000000000000000000000000000000000000000000000000000000000000000000000000000000000000000000000000000000000000000000000000000000000000000000000000000000000000000000000000000000000000000000000000000000000000000000000000000000000000000000000000000000000000000000000000000000000000000000000000000000000000000000000000000000000000000000000000",
                    "coinbase" : "0x2adc25665018aa1fe0e6bc666dac8fc2697ff9ba",
                    "difficulty" : "0x020000",
                    "extraData" : "0x",
                    "gasLimit" : "0x989680",
                    "gasUsed" : "0xd0fb",
                    "hash" : "0x57f17e9ae7335c652cc1182bbb3e41f5a2c5a8be4a7ecec38d9933835b1cec2d",
                    "mixHash" : "0x0000000000000000000000000000000000000000000000000000000000000000",
                    "nonce" : "0x0000000000000000",
                    "number" : "0x01",
                    "parentHash" : "0x3c8c8dfd5623ff622fd4830cdcac18c7107f47263b12be313eac6c01cacbbe7a",
                    "receiptTrie" : "0x3c1ca240411ed1f76e26601598470107d77e128774ab305c13d958eccd3bbd99",
                    "stateRoot" : "0xc1bec2c8925eddc3c5f4978c2b5247c0cc36060179103ea1e078146fdd72a88a",
                    "timestamp" : "0x03e8",
                    "transactionsTrie" : "0x30a0fd84d9f9b088c1f3569f396d643e9a5d20ec4c975bec24cde9a2aedb9334",
                    "uncleHash" : "0x1dcc4de8dec75d7aab85b567b6ccd41ad312451b948a7413f0a142fd40d49347"
                },
                "rlp" : "0xf9027ef901f7a03c8c8dfd5623ff622fd4830cdcac18c7107f47263b12be313eac6c01cacbbe7aa01dcc4de8dec75d7aab85b567b6ccd41ad312451b948a7413f0a142fd40d49347942adc25665018aa1fe0e6bc666dac8fc2697ff9baa0c1bec2c8925eddc3c5f4978c2b5247c0cc36060179103ea1e078146fdd72a88aa030a0fd84d9f9b088c1f3569f396d643e9a5d20ec4c975bec24cde9a2aedb9334a03c1ca240411ed1f76e26601598470107d77e128774ab305c13d958eccd3bbd99b901000000000000000000000000000000000000000000000000000000000000000000000000000000000000000000000000000000000000000000000000000000000000000000000000000000000000000000000000000000000000000000000000000000000000000000000000000000000000000000000000000000000000000000000000000000000000000000000000000000000000000000000000000000000000000000000000000000000000000000000000000000000000000000000000000000000000000000000000000000000000000000000000000000000000000000000000000000000000000000000000000000000000000000000000000000000083020000018398968082d0fb8203e880a00000000000000000000000000000000000000000000000000000000000000000880000000000000000f881f87f800182d2f0941a0000000000000000000000000000000000000080a000000000000000000000000020000000000000000000000000000000000000001ba02c74372b0b27329a7e501c996928a9ef0a593c21e6e62897750b23be8009b119a0197564dc8f80ad59ad22f6dd333f2028301398ec225d3d04e789d878207991dec0",
                "transactions" : [
                    {
                        "data" : "0x0000000000000000000000002000000000000000000000000000000000000000",
                        "gasLimit" : "0xd2f0",
                        "gasPrice" : "0x01",
                        "nonce" : "0x00",
                        "r" : "0x2c74372b0b27329a7e501c996928a9ef0a593c21e6e62897750b23be8009b119",
                        "s" : "0x197564dc8f80ad59ad22f6dd333f2028301398ec225d3d04e789d878207991de",
                        "to" : "0x1a00000000000000000000000000000000000000",
                        "v" : "0x1b",
                        "value" : "0x00"
                    }
                ],
                "uncleHeaders" : [
                ]
            }
        ],
        "genesisBlockHeader" : {
            "bloom" : "0x00000000000000000000000000000000000000000000000000000000000000000000000000000000000000000000000000000000000000000000000000000000000000000000000000000000000000000000000000000000000000000000000000000000000000000000000000000000000000000000000000000000000000000000000000000000000000000000000000000000000000000000000000000000000000000000000000000000000000000000000000000000000000000000000000000000000000000000000000000000000000000000000000000000000000000000000000000000000000000000000000000000000000000000000000000000",
            "coinbase" : "0x2adc25665018aa1fe0e6bc666dac8fc2697ff9ba",
            "difficulty" : "0x020000",
            "extraData" : "0x42",
            "gasLimit" : "0x989680",
            "gasUsed" : "0x00",
            "hash" : "0x3c8c8dfd5623ff622fd4830cdcac18c7107f47263b12be313eac6c01cacbbe7a",
            "mixHash" : "0x56e81f171bcc55a6ff8345e692c0f86e5b48e01b996cadc001622fb5e363b421",
            "nonce" : "0x0102030405060708",
            "number" : "0x00",
            "parentHash" : "0x0000000000000000000000000000000000000000000000000000000000000000",
            "receiptTrie" : "0x56e81f171bcc55a6ff8345e692c0f86e5b48e01b996cadc001622fb5e363b421",
            "stateRoot" : "0x36a0b77009bfc68d50894678ded36eb5aa49e4db3588266364b78fab96929cdd",
            "timestamp" : "0x03b6",
            "transactionsTrie" : "0x56e81f171bcc55a6ff8345e692c0f86e5b48e01b996cadc001622fb5e363b421",
            "uncleHash" : "0x1dcc4de8dec75d7aab85b567b6ccd41ad312451b948a7413f0a142fd40d49347"
        },
        "genesisRLP" : "0xf901faf901f5a00000000000000000000000000000000000000000000000000000000000000000a01dcc4de8dec75d7aab85b567b6ccd41ad312451b948a7413f0a142fd40d49347942adc25665018aa1fe0e6bc666dac8fc2697ff9baa036a0b77009bfc68d50894678ded36eb5aa49e4db3588266364b78fab96929cdda056e81f171bcc55a6ff8345e692c0f86e5b48e01b996cadc001622fb5e363b421a056e81f171bcc55a6ff8345e692c0f86e5b48e01b996cadc001622fb5e363b421b9010000000000000000000000000000000000000000000000000000000000000000000000000000000000000000000000000000000000000000000000000000000000000000000000000000000000000000000000000000000000000000000000000000000000000000000000000000000000000000000000000000000000000000000000000000000000000000000000000000000000000000000000000000000000000000000000000000000000000000000000000000000000000000000000000000000000000000000000000000000000000000000000000000000000000000000000000000000000000000000000000000000000000000000000000000000000830200008083989680808203b642a056e81f171bcc55a6ff8345e692c0f86e5b48e01b996cadc001622fb5e363b421880102030405060708c0c0",
        "lastblockhash" : "0x57f17e9ae7335c652cc1182bbb3e41f5a2c5a8be4a7ecec38d9933835b1cec2d",
        "network" : "EIP158",
        "postState" : {
            "0x0bf4c804e0579073baf54ec4ec37cd04f3455c65" : {
                "balance" : "0x00",
                "code" : "0x",
                "nonce" : "0x02",
                "storage" : {
                }
            },
            "0x1000000000000000000000000000000000000000" : {
                "balance" : "0x00",
                "code" : "0x6460016001556000526005601b6000f0600155",
                "nonce" : "0x00",
                "storage" : {
                }
            },
            "0x13136008b64ff592819b2fa6d43f2835c452020e" : {
                "balance" : "0x00",
                "code" : "0x",
                "nonce" : "0x00",
                "storage" : {
                }
            },
            "0x1a00000000000000000000000000000000000000" : {
                "balance" : "0x00",
                "code" : "0x6000600060006000600060003562013880f1",
                "nonce" : "0x00",
                "storage" : {
                }
            },
            "0x2000000000000000000000000000000000000000" : {
                "balance" : "0x00",
                "code" : "0x6460016001556000526005601b6000f0600155",
                "nonce" : "0x00",
                "storage" : {
                }
            },
            "0x2adc25665018aa1fe0e6bc666dac8fc2697ff9ba" : {
                "balance" : "0x4563918244f4d0fb",
                "code" : "0x",
                "nonce" : "0x00",
                "storage" : {
                }
            },
            "0x3000000000000000000000000000000000000000" : {
                "balance" : "0x00",
                "code" : "0x6460016001556000526005601b6000f0600155",
                "nonce" : "0x00",
                "storage" : {
                }
            },
            "0x4b86c4ed99b87f0f396bc0c76885453c343916ed" : {
                "balance" : "0x00",
                "code" : "0x1122334455",
                "nonce" : "0x00",
                "storage" : {
                }
            },
            "0xa94f5374fce5edbc8e2a8697c15331677e6ebf0b" : {
                "balance" : "0xe8d4a43f05",
                "code" : "0x",
                "nonce" : "0x01",
                "storage" : {
                }
            }
        },
        "pre" : {
            "0x0bf4c804e0579073baf54ec4ec37cd04f3455c65" : {
                "balance" : "0x00",
                "code" : "0x",
                "nonce" : "0x02",
                "storage" : {
                }
            },
            "0x1000000000000000000000000000000000000000" : {
                "balance" : "0x00",
                "code" : "0x6460016001556000526005601b6000f0600155",
                "nonce" : "0x00",
                "storage" : {
                }
            },
            "0x13136008b64ff592819b2fa6d43f2835c452020e" : {
                "balance" : "0x00",
                "code" : "0x",
                "nonce" : "0x00",
                "storage" : {
                }
            },
            "0x1a00000000000000000000000000000000000000" : {
                "balance" : "0x00",
                "code" : "0x6000600060006000600060003562013880f1",
                "nonce" : "0x00",
                "storage" : {
                }
            },
            "0x2000000000000000000000000000000000000000" : {
                "balance" : "0x00",
                "code" : "0x6460016001556000526005601b6000f0600155",
                "nonce" : "0x00",
                "storage" : {
                }
            },
            "0x3000000000000000000000000000000000000000" : {
                "balance" : "0x00",
                "code" : "0x6460016001556000526005601b6000f0600155",
                "nonce" : "0x00",
                "storage" : {
                }
            },
            "0x4b86c4ed99b87f0f396bc0c76885453c343916ed" : {
                "balance" : "0x00",
                "code" : "0x1122334455",
                "nonce" : "0x00",
                "storage" : {
                }
            },
            "0xa94f5374fce5edbc8e2a8697c15331677e6ebf0b" : {
                "balance" : "0xe8d4a51000",
                "code" : "0x",
                "nonce" : "0x00",
                "storage" : {
                }
            }
        },
        "sealEngine" : "NoProof"
    }
}