{
    "identity_to_smaller_d0g0v0_Berlin" : {
        "_info" : {
            "comment" : "have a call to e.g. identity built-in that specifies output size less than input size. Check that the long input is totally available with RETURNDATA.  CALL is with 100000 as gas, address 4 as destination, 0 as value, 0 as in-offset, 32 as in-size, 16 as out-offset, 16 as out-size.  The returndatasize should see 32.",
            "filling-rpc-server" : "evm version 1.10.4-unstable-966ee3ae-20210528",
            "filling-tool-version" : "retesteth-0.1.1-eip1559+commit.658fc3a8.Linux.g++",
            "lllcversion" : "Version: 0.5.14-develop.2021.5.18+commit.14c9d5de.mod.Linux.g++",
            "source" : "src/GeneralStateTestsFiller/stPreCompiledContracts/identity_to_smallerFiller.json",
            "sourceHash" : "42051dafef0381b58c981f5700391f48a5e84fa733c1649ef3c1c8c7706e1052"
        },
        "genesisBlockHeader" : {
            "bloom" : "0x00000000000000000000000000000000000000000000000000000000000000000000000000000000000000000000000000000000000000000000000000000000000000000000000000000000000000000000000000000000000000000000000000000000000000000000000000000000000000000000000000000000000000000000000000000000000000000000000000000000000000000000000000000000000000000000000000000000000000000000000000000000000000000000000000000000000000000000000000000000000000000000000000000000000000000000000000000000000000000000000000000000000000000000000000000000",
            "coinbase" : "0x3535353535353535353535353535353535353535",
            "difficulty" : "0x020000",
            "extraData" : "0x00",
            "gasLimit" : "0x05f5e100",
            "gasUsed" : "0x00",
            "hash" : "0xeb4f8306168172da0a1934d238a6acb08ea99eb84aec5e602fabe33c4e9cdddb",
            "mixHash" : "0x0000000000000000000000000000000000000000000000000000000000000000",
            "nonce" : "0x0000000000000000",
            "number" : "0x00",
            "parentHash" : "0x0000000000000000000000000000000000000000000000000000000000000000",
            "receiptTrie" : "0x56e81f171bcc55a6ff8345e692c0f86e5b48e01b996cadc001622fb5e363b421",
            "stateRoot" : "0xdf9628fc65aba5196ba92f8f425660f0323b7cbc0a9eedceb1ae3e34af079709",
            "timestamp" : "0x00",
            "transactionsTrie" : "0x56e81f171bcc55a6ff8345e692c0f86e5b48e01b996cadc001622fb5e363b421",
            "uncleHash" : "0x1dcc4de8dec75d7aab85b567b6ccd41ad312451b948a7413f0a142fd40d49347"
        },
        "pre" : {
            "0x82a978b3f5962a5b0957d9ee9eef472ee55b42f1" : {
                "balance" : "0x0de0b6b3a761fe12",
                "code" : "0x",
                "nonce" : "0x01",
                "storage" : {
                }
            },
            "0xc305c901078781c232a2a521c2af7980f8385ee9" : {
                "balance" : "0x00",
                "code" : "0x7f112233445566778899aabbccddeeff00112233445566778899aabbccddeeff00600052601060106020600060006004620186a0f1503d60005500",
                "nonce" : "0x21",
                "storage" : {
                }
            }
        },
        "postState" : {
            "0x3535353535353535353535353535353535353535" : {
                "code" : "0x",
                "nonce" : "0x00",
                "balance" : "0x1bc16d674ece99c4",
                "storage" : {
                }
            },
            "0x82a978b3f5962a5b0957d9ee9eef472ee55b42f1" : {
                "code" : "0x",
                "nonce" : "0x02",
                "balance" : "0x0de0b6b3a75b644e",
                "storage" : {
                }
            },
            "0xc305c901078781c232a2a521c2af7980f8385ee9" : {
                "code" : "0x7f112233445566778899aabbccddeeff00112233445566778899aabbccddeeff00600052601060106020600060006004620186a0f1503d60005500",
                "nonce" : "0x21",
                "balance" : "0x00",
                "storage" : {
                    "0x00" : "0x20"
                }
            }
        },
        "network" : "Berlin",
        "sealEngine" : "NoProof",
        "lastblockhash" : "0x71d9e4e6787543a1034b5b38f350c840198e622085acfabbc2efcefee14a5e20",
        "genesisRLP" : "0xf901f9f901f4a00000000000000000000000000000000000000000000000000000000000000000a01dcc4de8dec75d7aab85b567b6ccd41ad312451b948a7413f0a142fd40d49347943535353535353535353535353535353535353535a0df9628fc65aba5196ba92f8f425660f0323b7cbc0a9eedceb1ae3e34af079709a056e81f171bcc55a6ff8345e692c0f86e5b48e01b996cadc001622fb5e363b421a056e81f171bcc55a6ff8345e692c0f86e5b48e01b996cadc001622fb5e363b421b901000000000000000000000000000000000000000000000000000000000000000000000000000000000000000000000000000000000000000000000000000000000000000000000000000000000000000000000000000000000000000000000000000000000000000000000000000000000000000000000000000000000000000000000000000000000000000000000000000000000000000000000000000000000000000000000000000000000000000000000000000000000000000000000000000000000000000000000000000000000000000000000000000000000000000000000000000000000000000000000000000000000000000000000000000000000083020000808405f5e100808000a00000000000000000000000000000000000000000000000000000000000000000880000000000000000c0c0",
        "blocks" : [
            {
                "rlp" : "0xf90260f901f8a0eb4f8306168172da0a1934d238a6acb08ea99eb84aec5e602fabe33c4e9cdddba01dcc4de8dec75d7aab85b567b6ccd41ad312451b948a7413f0a142fd40d49347943535353535353535353535353535353535353535a081067465bc5629c72c790e80f71b61119f3d8001f097e4d7e4dde757ecc2c509a0b07363b8db8a84d556044ee4af9db9fdaa935fe8eb69076f4ca8b529e19f2b18a0b85a18fd152d1dd02eb9e6f8e019c481ceaa6a06f5df8cb5b96d43cb5f32dd30b901000000000000000000000000000000000000000000000000000000000000000000000000000000000000000000000000000000000000000000000000000000000000000000000000000000000000000000000000000000000000000000000000000000000000000000000000000000000000000000000000000000000000000000000000000000000000000000000000000000000000000000000000000000000000000000000000000000000000000000000000000000000000000000000000000000000000000000000000000000000000000000000000000000000000000000000000000000000000000000000000000000000000000000000000000000000083020000018405f5e10082a8fa8203e800a00000000000000000000000000000000000000000000000000000000000000000880000000000000000f862f860010a83030d4094c305c901078781c232a2a521c2af7980f8385ee980801ca0602b800f0949f6e02c640db7952151b77666d04650acacc85bac5b60e26bd8d0a008126c5779b4f10e04f9a76fefdf77fbb279e6efe9019747ee85979bd103c2cac0",
                "blockHeader" : {
                    "bloom" : "0x00000000000000000000000000000000000000000000000000000000000000000000000000000000000000000000000000000000000000000000000000000000000000000000000000000000000000000000000000000000000000000000000000000000000000000000000000000000000000000000000000000000000000000000000000000000000000000000000000000000000000000000000000000000000000000000000000000000000000000000000000000000000000000000000000000000000000000000000000000000000000000000000000000000000000000000000000000000000000000000000000000000000000000000000000000000",
                    "coinbase" : "0x3535353535353535353535353535353535353535",
                    "difficulty" : "0x020000",
                    "extraData" : "0x00",
                    "gasLimit" : "0x05f5e100",
                    "gasUsed" : "0xa8fa",
                    "hash" : "0x71d9e4e6787543a1034b5b38f350c840198e622085acfabbc2efcefee14a5e20",
                    "mixHash" : "0x0000000000000000000000000000000000000000000000000000000000000000",
                    "nonce" : "0x0000000000000000",
                    "number" : "0x01",
                    "parentHash" : "0xeb4f8306168172da0a1934d238a6acb08ea99eb84aec5e602fabe33c4e9cdddb",
                    "receiptTrie" : "0xb85a18fd152d1dd02eb9e6f8e019c481ceaa6a06f5df8cb5b96d43cb5f32dd30",
                    "stateRoot" : "0x81067465bc5629c72c790e80f71b61119f3d8001f097e4d7e4dde757ecc2c509",
                    "timestamp" : "0x03e8",
                    "transactionsTrie" : "0xb07363b8db8a84d556044ee4af9db9fdaa935fe8eb69076f4ca8b529e19f2b18",
                    "uncleHash" : "0x1dcc4de8dec75d7aab85b567b6ccd41ad312451b948a7413f0a142fd40d49347"
                },
                "transactions" : [
                    {
                        "data" : "0x",
                        "gasLimit" : "0x030d40",
                        "gasPrice" : "0x0a",
                        "nonce" : "0x01",
                        "to" : "0xc305c901078781c232a2a521c2af7980f8385ee9",
                        "value" : "0x00",
                        "v" : "0x1c",
                        "r" : "0x602b800f0949f6e02c640db7952151b77666d04650acacc85bac5b60e26bd8d0",
                        "s" : "0x08126c5779b4f10e04f9a76fefdf77fbb279e6efe9019747ee85979bd103c2ca"
                    }
                ],
                "uncleHeaders" : [
                ]
            }
        ]
    },
    "identity_to_smaller_d0g0v0_Istanbul" : {
        "_info" : {
            "comment" : "have a call to e.g. identity built-in that specifies output size less than input size. Check that the long input is totally available with RETURNDATA.  CALL is with 100000 as gas, address 4 as destination, 0 as value, 0 as in-offset, 32 as in-size, 16 as out-offset, 16 as out-size.  The returndatasize should see 32.",
            "filling-rpc-server" : "evm version 1.10.4-unstable-966ee3ae-20210528",
            "filling-tool-version" : "retesteth-0.1.1-eip1559+commit.658fc3a8.Linux.g++",
            "lllcversion" : "Version: 0.5.14-develop.2021.5.18+commit.14c9d5de.mod.Linux.g++",
            "source" : "src/GeneralStateTestsFiller/stPreCompiledContracts/identity_to_smallerFiller.json",
            "sourceHash" : "42051dafef0381b58c981f5700391f48a5e84fa733c1649ef3c1c8c7706e1052"
        },
        "genesisBlockHeader" : {
            "bloom" : "0x00000000000000000000000000000000000000000000000000000000000000000000000000000000000000000000000000000000000000000000000000000000000000000000000000000000000000000000000000000000000000000000000000000000000000000000000000000000000000000000000000000000000000000000000000000000000000000000000000000000000000000000000000000000000000000000000000000000000000000000000000000000000000000000000000000000000000000000000000000000000000000000000000000000000000000000000000000000000000000000000000000000000000000000000000000000",
            "coinbase" : "0x3535353535353535353535353535353535353535",
            "difficulty" : "0x020000",
            "extraData" : "0x00",
            "gasLimit" : "0x05f5e100",
            "gasUsed" : "0x00",
            "hash" : "0xeb4f8306168172da0a1934d238a6acb08ea99eb84aec5e602fabe33c4e9cdddb",
            "mixHash" : "0x0000000000000000000000000000000000000000000000000000000000000000",
            "nonce" : "0x0000000000000000",
            "number" : "0x00",
            "parentHash" : "0x0000000000000000000000000000000000000000000000000000000000000000",
            "receiptTrie" : "0x56e81f171bcc55a6ff8345e692c0f86e5b48e01b996cadc001622fb5e363b421",
            "stateRoot" : "0xdf9628fc65aba5196ba92f8f425660f0323b7cbc0a9eedceb1ae3e34af079709",
            "timestamp" : "0x00",
            "transactionsTrie" : "0x56e81f171bcc55a6ff8345e692c0f86e5b48e01b996cadc001622fb5e363b421",
            "uncleHash" : "0x1dcc4de8dec75d7aab85b567b6ccd41ad312451b948a7413f0a142fd40d49347"
        },
        "pre" : {
            "0x82a978b3f5962a5b0957d9ee9eef472ee55b42f1" : {
                "balance" : "0x0de0b6b3a761fe12",
                "code" : "0x",
                "nonce" : "0x01",
                "storage" : {
                }
            },
            "0xc305c901078781c232a2a521c2af7980f8385ee9" : {
                "balance" : "0x00",
                "code" : "0x7f112233445566778899aabbccddeeff00112233445566778899aabbccddeeff00600052601060106020600060006004620186a0f1503d60005500",
                "nonce" : "0x21",
                "storage" : {
                }
            }
        },
        "postState" : {
            "0x3535353535353535353535353535353535353535" : {
                "code" : "0x",
                "nonce" : "0x00",
                "balance" : "0x1bc16d674ece5f2c",
                "storage" : {
                }
            },
            "0x82a978b3f5962a5b0957d9ee9eef472ee55b42f1" : {
                "code" : "0x",
                "nonce" : "0x02",
                "balance" : "0x0de0b6b3a75b9ee6",
                "storage" : {
                }
            },
            "0xc305c901078781c232a2a521c2af7980f8385ee9" : {
                "code" : "0x7f112233445566778899aabbccddeeff00112233445566778899aabbccddeeff00600052601060106020600060006004620186a0f1503d60005500",
                "nonce" : "0x21",
                "balance" : "0x00",
                "storage" : {
                    "0x00" : "0x20"
                }
            }
        },
        "network" : "Istanbul",
        "sealEngine" : "NoProof",
        "lastblockhash" : "0xf70b14c8345f9c0bf4a52090de3fb3f5330103017a46053a7baaa99ebc13e376",
        "genesisRLP" : "0xf901f9f901f4a00000000000000000000000000000000000000000000000000000000000000000a01dcc4de8dec75d7aab85b567b6ccd41ad312451b948a7413f0a142fd40d49347943535353535353535353535353535353535353535a0df9628fc65aba5196ba92f8f425660f0323b7cbc0a9eedceb1ae3e34af079709a056e81f171bcc55a6ff8345e692c0f86e5b48e01b996cadc001622fb5e363b421a056e81f171bcc55a6ff8345e692c0f86e5b48e01b996cadc001622fb5e363b421b901000000000000000000000000000000000000000000000000000000000000000000000000000000000000000000000000000000000000000000000000000000000000000000000000000000000000000000000000000000000000000000000000000000000000000000000000000000000000000000000000000000000000000000000000000000000000000000000000000000000000000000000000000000000000000000000000000000000000000000000000000000000000000000000000000000000000000000000000000000000000000000000000000000000000000000000000000000000000000000000000000000000000000000000000000000000083020000808405f5e100808000a00000000000000000000000000000000000000000000000000000000000000000880000000000000000c0c0",
        "blocks" : [
            {
                "rlp" : "0xf90260f901f8a0eb4f8306168172da0a1934d238a6acb08ea99eb84aec5e602fabe33c4e9cdddba01dcc4de8dec75d7aab85b567b6ccd41ad312451b948a7413f0a142fd40d49347943535353535353535353535353535353535353535a06a6ac21a6b3c0675c84876c8a88d6107779f9a295d271dec3d71b1ed5cd39e2aa0b07363b8db8a84d556044ee4af9db9fdaa935fe8eb69076f4ca8b529e19f2b18a053c33d7d99b96b6b47f84a58febb0b1696996df22c970f9232c83453ad76d8d1b901000000000000000000000000000000000000000000000000000000000000000000000000000000000000000000000000000000000000000000000000000000000000000000000000000000000000000000000000000000000000000000000000000000000000000000000000000000000000000000000000000000000000000000000000000000000000000000000000000000000000000000000000000000000000000000000000000000000000000000000000000000000000000000000000000000000000000000000000000000000000000000000000000000000000000000000000000000000000000000000000000000000000000000000000000000000083020000018405f5e10082a31e8203e800a00000000000000000000000000000000000000000000000000000000000000000880000000000000000f862f860010a83030d4094c305c901078781c232a2a521c2af7980f8385ee980801ca0602b800f0949f6e02c640db7952151b77666d04650acacc85bac5b60e26bd8d0a008126c5779b4f10e04f9a76fefdf77fbb279e6efe9019747ee85979bd103c2cac0",
                "blockHeader" : {
                    "bloom" : "0x00000000000000000000000000000000000000000000000000000000000000000000000000000000000000000000000000000000000000000000000000000000000000000000000000000000000000000000000000000000000000000000000000000000000000000000000000000000000000000000000000000000000000000000000000000000000000000000000000000000000000000000000000000000000000000000000000000000000000000000000000000000000000000000000000000000000000000000000000000000000000000000000000000000000000000000000000000000000000000000000000000000000000000000000000000000",
                    "coinbase" : "0x3535353535353535353535353535353535353535",
                    "difficulty" : "0x020000",
                    "extraData" : "0x00",
                    "gasLimit" : "0x05f5e100",
                    "gasUsed" : "0xa31e",
                    "hash" : "0xf70b14c8345f9c0bf4a52090de3fb3f5330103017a46053a7baaa99ebc13e376",
                    "mixHash" : "0x0000000000000000000000000000000000000000000000000000000000000000",
                    "nonce" : "0x0000000000000000",
                    "number" : "0x01",
                    "parentHash" : "0xeb4f8306168172da0a1934d238a6acb08ea99eb84aec5e602fabe33c4e9cdddb",
                    "receiptTrie" : "0x53c33d7d99b96b6b47f84a58febb0b1696996df22c970f9232c83453ad76d8d1",
                    "stateRoot" : "0x6a6ac21a6b3c0675c84876c8a88d6107779f9a295d271dec3d71b1ed5cd39e2a",
                    "timestamp" : "0x03e8",
                    "transactionsTrie" : "0xb07363b8db8a84d556044ee4af9db9fdaa935fe8eb69076f4ca8b529e19f2b18",
                    "uncleHash" : "0x1dcc4de8dec75d7aab85b567b6ccd41ad312451b948a7413f0a142fd40d49347"
                },
                "transactions" : [
                    {
                        "data" : "0x",
                        "gasLimit" : "0x030d40",
                        "gasPrice" : "0x0a",
                        "nonce" : "0x01",
                        "to" : "0xc305c901078781c232a2a521c2af7980f8385ee9",
                        "value" : "0x00",
                        "v" : "0x1c",
                        "r" : "0x602b800f0949f6e02c640db7952151b77666d04650acacc85bac5b60e26bd8d0",
                        "s" : "0x08126c5779b4f10e04f9a76fefdf77fbb279e6efe9019747ee85979bd103c2ca"
                    }
                ],
                "uncleHeaders" : [
                ]
            }
        ]
    },
    "identity_to_smaller_d0g0v0_London" : {
        "_info" : {
            "comment" : "have a call to e.g. identity built-in that specifies output size less than input size. Check that the long input is totally available with RETURNDATA.  CALL is with 100000 as gas, address 4 as destination, 0 as value, 0 as in-offset, 32 as in-size, 16 as out-offset, 16 as out-size.  The returndatasize should see 32.",
            "filling-rpc-server" : "evm version 1.10.4-unstable-966ee3ae-20210528",
            "filling-tool-version" : "retesteth-0.1.1-eip1559+commit.658fc3a8.Linux.g++",
            "lllcversion" : "Version: 0.5.14-develop.2021.5.18+commit.14c9d5de.mod.Linux.g++",
            "source" : "src/GeneralStateTestsFiller/stPreCompiledContracts/identity_to_smallerFiller.json",
            "sourceHash" : "42051dafef0381b58c981f5700391f48a5e84fa733c1649ef3c1c8c7706e1052"
        },
        "genesisBlockHeader" : {
            "bloom" : "0x00000000000000000000000000000000000000000000000000000000000000000000000000000000000000000000000000000000000000000000000000000000000000000000000000000000000000000000000000000000000000000000000000000000000000000000000000000000000000000000000000000000000000000000000000000000000000000000000000000000000000000000000000000000000000000000000000000000000000000000000000000000000000000000000000000000000000000000000000000000000000000000000000000000000000000000000000000000000000000000000000000000000000000000000000000000",
            "coinbase" : "0x3535353535353535353535353535353535353535",
            "difficulty" : "0x020000",
            "extraData" : "0x00",
            "gasLimit" : "0x05f5e100",
            "gasUsed" : "0x00",
            "hash" : "0xa8c76cbab066d20216c76d29c74067d632b36f73c31db99756f21396d503c58a",
            "mixHash" : "0x0000000000000000000000000000000000000000000000000000000000000000",
            "nonce" : "0x0000000000000000",
            "number" : "0x00",
            "parentHash" : "0x0000000000000000000000000000000000000000000000000000000000000000",
            "receiptTrie" : "0x56e81f171bcc55a6ff8345e692c0f86e5b48e01b996cadc001622fb5e363b421",
            "stateRoot" : "0xdf9628fc65aba5196ba92f8f425660f0323b7cbc0a9eedceb1ae3e34af079709",
            "timestamp" : "0x00",
            "transactionsTrie" : "0x56e81f171bcc55a6ff8345e692c0f86e5b48e01b996cadc001622fb5e363b421",
            "uncleHash" : "0x1dcc4de8dec75d7aab85b567b6ccd41ad312451b948a7413f0a142fd40d49347",
            "baseFee" : "0x0b"
        },
        "pre" : {
            "0x82a978b3f5962a5b0957d9ee9eef472ee55b42f1" : {
                "balance" : "0x0de0b6b3a761fe12",
                "code" : "0x",
                "nonce" : "0x01",
                "storage" : {
                }
            },
            "0xc305c901078781c232a2a521c2af7980f8385ee9" : {
                "balance" : "0x00",
                "code" : "0x7f112233445566778899aabbccddeeff00112233445566778899aabbccddeeff00600052601060106020600060006004620186a0f1503d60005500",
                "nonce" : "0x21",
                "storage" : {
                }
            }
        },
        "postState" : {
            "0x3535353535353535353535353535353535353535" : {
                "code" : "0x",
                "nonce" : "0x00",
                "balance" : "0x1bc16d674ec80000",
                "storage" : {
                }
            },
            "0x82a978b3f5962a5b0957d9ee9eef472ee55b42f1" : {
                "code" : "0x",
                "nonce" : "0x02",
                "balance" : "0x0de0b6b3a75b644e",
                "storage" : {
                }
            },
            "0xc305c901078781c232a2a521c2af7980f8385ee9" : {
                "code" : "0x7f112233445566778899aabbccddeeff00112233445566778899aabbccddeeff00600052601060106020600060006004620186a0f1503d60005500",
                "nonce" : "0x21",
                "balance" : "0x00",
                "storage" : {
                    "0x00" : "0x20"
                }
            }
        },
        "network" : "London",
        "sealEngine" : "NoProof",
        "lastblockhash" : "0x6a005d502a90df071e24071559f7943388879a16accb657dee37f36f8376a2ed",
        "genesisRLP" : "0xf901faf901f5a00000000000000000000000000000000000000000000000000000000000000000a01dcc4de8dec75d7aab85b567b6ccd41ad312451b948a7413f0a142fd40d49347943535353535353535353535353535353535353535a0df9628fc65aba5196ba92f8f425660f0323b7cbc0a9eedceb1ae3e34af079709a056e81f171bcc55a6ff8345e692c0f86e5b48e01b996cadc001622fb5e363b421a056e81f171bcc55a6ff8345e692c0f86e5b48e01b996cadc001622fb5e363b421b901000000000000000000000000000000000000000000000000000000000000000000000000000000000000000000000000000000000000000000000000000000000000000000000000000000000000000000000000000000000000000000000000000000000000000000000000000000000000000000000000000000000000000000000000000000000000000000000000000000000000000000000000000000000000000000000000000000000000000000000000000000000000000000000000000000000000000000000000000000000000000000000000000000000000000000000000000000000000000000000000000000000000000000000000000000000083020000808405f5e100808000a000000000000000000000000000000000000000000000000000000000000000008800000000000000000bc0c0",
        "blocks" : [
            {
                "rlp" : "0xf90261f901f9a0a8c76cbab066d20216c76d29c74067d632b36f73c31db99756f21396d503c58aa01dcc4de8dec75d7aab85b567b6ccd41ad312451b948a7413f0a142fd40d49347943535353535353535353535353535353535353535a018f14fe45674f6789bff28aa00673337454d6769baa81e660ba43e2812fef4d2a0b07363b8db8a84d556044ee4af9db9fdaa935fe8eb69076f4ca8b529e19f2b18a0b85a18fd152d1dd02eb9e6f8e019c481ceaa6a06f5df8cb5b96d43cb5f32dd30b901000000000000000000000000000000000000000000000000000000000000000000000000000000000000000000000000000000000000000000000000000000000000000000000000000000000000000000000000000000000000000000000000000000000000000000000000000000000000000000000000000000000000000000000000000000000000000000000000000000000000000000000000000000000000000000000000000000000000000000000000000000000000000000000000000000000000000000000000000000000000000000000000000000000000000000000000000000000000000000000000000000000000000000000000000000000083020000018405f5e10082a8fa8203e800a000000000000000000000000000000000000000000000000000000000000000008800000000000000000af862f860010a83030d4094c305c901078781c232a2a521c2af7980f8385ee980801ca0602b800f0949f6e02c640db7952151b77666d04650acacc85bac5b60e26bd8d0a008126c5779b4f10e04f9a76fefdf77fbb279e6efe9019747ee85979bd103c2cac0",
                "blockHeader" : {
                    "bloom" : "0x00000000000000000000000000000000000000000000000000000000000000000000000000000000000000000000000000000000000000000000000000000000000000000000000000000000000000000000000000000000000000000000000000000000000000000000000000000000000000000000000000000000000000000000000000000000000000000000000000000000000000000000000000000000000000000000000000000000000000000000000000000000000000000000000000000000000000000000000000000000000000000000000000000000000000000000000000000000000000000000000000000000000000000000000000000000",
                    "coinbase" : "0x3535353535353535353535353535353535353535",
                    "difficulty" : "0x020000",
                    "extraData" : "0x00",
                    "gasLimit" : "0x05f5e100",
                    "gasUsed" : "0xa8fa",
                    "hash" : "0x6a005d502a90df071e24071559f7943388879a16accb657dee37f36f8376a2ed",
                    "mixHash" : "0x0000000000000000000000000000000000000000000000000000000000000000",
                    "nonce" : "0x0000000000000000",
                    "number" : "0x01",
                    "parentHash" : "0xa8c76cbab066d20216c76d29c74067d632b36f73c31db99756f21396d503c58a",
                    "receiptTrie" : "0xb85a18fd152d1dd02eb9e6f8e019c481ceaa6a06f5df8cb5b96d43cb5f32dd30",
                    "stateRoot" : "0x18f14fe45674f6789bff28aa00673337454d6769baa81e660ba43e2812fef4d2",
                    "timestamp" : "0x03e8",
                    "transactionsTrie" : "0xb07363b8db8a84d556044ee4af9db9fdaa935fe8eb69076f4ca8b529e19f2b18",
                    "uncleHash" : "0x1dcc4de8dec75d7aab85b567b6ccd41ad312451b948a7413f0a142fd40d49347",
                    "baseFee" : "0x0a"
                },
                "transactions" : [
                    {
                        "data" : "0x",
                        "gasLimit" : "0x030d40",
                        "gasPrice" : "0x0a",
                        "nonce" : "0x01",
                        "to" : "0xc305c901078781c232a2a521c2af7980f8385ee9",
                        "value" : "0x00",
                        "v" : "0x1c",
                        "r" : "0x602b800f0949f6e02c640db7952151b77666d04650acacc85bac5b60e26bd8d0",
                        "s" : "0x08126c5779b4f10e04f9a76fefdf77fbb279e6efe9019747ee85979bd103c2ca"
                    }
                ],
                "uncleHeaders" : [
                ]
            }
        ]
    }
}