{
    "Call1024OOG" : {
        "_info" : {
            "comment" : "calldepth with oog",
            "filling-rpc-server" : "evm version 1.10.4-unstable-966ee3ae-20210528",
            "filling-tool-version" : "retesteth-0.1.1-eip1559+commit.658fc3a8.Linux.g++",
            "lllcversion" : "Version: 0.5.14-develop.2021.5.18+commit.14c9d5de.mod.Linux.g++",
            "source" : "src/GeneralStateTestsFiller/stCallCreateCallCodeTest/Call1024OOGFiller.json",
            "sourceHash" : "b77b683d8abf4605759b705567d90c11791c67616c9d46befcd17b7ced5121ba"
        },
        "env" : {
            "currentCoinbase" : "0xb94f5374fce5edbc8e2a8697c15331677e6ebf0b",
            "currentDifficulty" : "0x020000",
            "currentNumber" : "0x01",
            "currentTimestamp" : "0x03e8",
            "previousHash" : "0x5e20a0453cecd065ea59c37ac63e079ee08998b6045136a8ce6635c7912ec0b6",
            "currentGasLimit" : "0x7fffffffffffffff"
        },
        "post" : {
            "Berlin" : [
                {
                    "indexes" : {
                        "data" : 0,
                        "gas" : 0,
                        "value" : 0
                    },
                    "hash" : "0xc40cb1519bca2b34d52c8717f69bf07c7f669e0b9f0a7746cb56eff2d5fa93d6",
                    "txbytes" : "0xf860800a83c8353a94bbbf5374fce5edbc8e2a8697c15331677e6ebf0b0a801ca014c4ac8efa19723d893b27c12947bb1cc54d3fb255456bde809d5eeacc8097c8a04214b1cf469a2dcb91dc815d900653e74c7ab9116f8b862243f2e526ee7445c5",
                    "logs" : "0x1dcc4de8dec75d7aab85b567b6ccd41ad312451b948a7413f0a142fd40d49347"
                },
                {
                    "indexes" : {
                        "data" : 0,
                        "gas" : 1,
                        "value" : 0
                    },
                    "hash" : "0x250a497f336413246a0ad863132e20478dfe6a535bf917a6b29f398703c1645e",
                    "txbytes" : "0xf860800a838e397a94bbbf5374fce5edbc8e2a8697c15331677e6ebf0b0a801ba0081452c602115545e59870b3ca78afca1c2ba544e0a4b90384ab1bce3a2914fca04ca6924f74805e5e73fa054312be5b677f4fd12362c9bde45262a1e264137da0",
                    "logs" : "0x1dcc4de8dec75d7aab85b567b6ccd41ad312451b948a7413f0a142fd40d49347"
                },
                {
                    "indexes" : {
                        "data" : 0,
                        "gas" : 2,
                        "value" : 0
                    },
                    "hash" : "0x81a73a9a0321e1a238e949839b80af354c3c75d8664e8aa5f6d2145adb8bb7c5",
                    "txbytes" : "0xf860800a83efe17a94bbbf5374fce5edbc8e2a8697c15331677e6ebf0b0a801ca02ba8393604eee5a91085dcc638a570907c65d83112b9d041fc9b096903510ba6a03436ebb8869c02355de0405ca29f940bdbf821b9ea2e7ea883abdb701114bcd4",
                    "logs" : "0x1dcc4de8dec75d7aab85b567b6ccd41ad312451b948a7413f0a142fd40d49347"
                },
                {
                    "indexes" : {
                        "data" : 0,
                        "gas" : 3,
                        "value" : 0
                    },
                    "hash" : "0x7797cbcd762a4dafcd8764d4aae5299fe4d07c56792fa4f48664f8737d771629",
                    "txbytes" : "0xf860800a83ab375a94bbbf5374fce5edbc8e2a8697c15331677e6ebf0b0a801ba0af6ac1bf646711d91dfec006b563af0c7b2193683c3dec895abfd2c42aa5ad68a02dfab9c8bf9ff3b86a37c837dfcce3bc56c5243d109b31bbc30d13183243f6bf",
                    "logs" : "0x1dcc4de8dec75d7aab85b567b6ccd41ad312451b948a7413f0a142fd40d49347"
                }
            ],
            "Istanbul" : [
                {
                    "indexes" : {
                        "data" : 0,
                        "gas" : 0,
                        "value" : 0
                    },
                    "hash" : "0x4ac837ba3bb34c076e62f050658a7f5d939809fbb2fd0e25f9d9e0340ad264da",
                    "txbytes" : "0xf860800a83c8353a94bbbf5374fce5edbc8e2a8697c15331677e6ebf0b0a801ca014c4ac8efa19723d893b27c12947bb1cc54d3fb255456bde809d5eeacc8097c8a04214b1cf469a2dcb91dc815d900653e74c7ab9116f8b862243f2e526ee7445c5",
                    "logs" : "0x1dcc4de8dec75d7aab85b567b6ccd41ad312451b948a7413f0a142fd40d49347"
                },
                {
                    "indexes" : {
                        "data" : 0,
                        "gas" : 1,
                        "value" : 0
                    },
                    "hash" : "0x024f69104e60a5d9aff099bf63e82557157b74d1fd75f4edab206dc44dbc3628",
                    "txbytes" : "0xf860800a838e397a94bbbf5374fce5edbc8e2a8697c15331677e6ebf0b0a801ba0081452c602115545e59870b3ca78afca1c2ba544e0a4b90384ab1bce3a2914fca04ca6924f74805e5e73fa054312be5b677f4fd12362c9bde45262a1e264137da0",
                    "logs" : "0x1dcc4de8dec75d7aab85b567b6ccd41ad312451b948a7413f0a142fd40d49347"
                },
                {
                    "indexes" : {
                        "data" : 0,
                        "gas" : 2,
                        "value" : 0
                    },
                    "hash" : "0x4220c03f0a8008e7c2a7c7b7c720d5d367bad078030cb3e16a5985034ee0d055",
                    "txbytes" : "0xf860800a83efe17a94bbbf5374fce5edbc8e2a8697c15331677e6ebf0b0a801ca02ba8393604eee5a91085dcc638a570907c65d83112b9d041fc9b096903510ba6a03436ebb8869c02355de0405ca29f940bdbf821b9ea2e7ea883abdb701114bcd4",
                    "logs" : "0x1dcc4de8dec75d7aab85b567b6ccd41ad312451b948a7413f0a142fd40d49347"
                },
                {
                    "indexes" : {
                        "data" : 0,
                        "gas" : 3,
                        "value" : 0
                    },
                    "hash" : "0x9adb560f8398502d0fb8faac6aabc0d3b9f48ca337c431d047eb3ee780859f6b",
                    "txbytes" : "0xf860800a83ab375a94bbbf5374fce5edbc8e2a8697c15331677e6ebf0b0a801ba0af6ac1bf646711d91dfec006b563af0c7b2193683c3dec895abfd2c42aa5ad68a02dfab9c8bf9ff3b86a37c837dfcce3bc56c5243d109b31bbc30d13183243f6bf",
                    "logs" : "0x1dcc4de8dec75d7aab85b567b6ccd41ad312451b948a7413f0a142fd40d49347"
                }
            ],
            "London" : [
                {
                    "indexes" : {
                        "data" : 0,
                        "gas" : 0,
                        "value" : 0
                    },
                    "hash" : "0x045b9cbbefa1fb1468d9476229132d030732a26fde647b1daaf96513f36274fa",
                    "txbytes" : "0xf860800a83c8353a94bbbf5374fce5edbc8e2a8697c15331677e6ebf0b0a801ca014c4ac8efa19723d893b27c12947bb1cc54d3fb255456bde809d5eeacc8097c8a04214b1cf469a2dcb91dc815d900653e74c7ab9116f8b862243f2e526ee7445c5",
                    "logs" : "0x1dcc4de8dec75d7aab85b567b6ccd41ad312451b948a7413f0a142fd40d49347"
                },
                {
                    "indexes" : {
                        "data" : 0,
                        "gas" : 1,
                        "value" : 0
                    },
                    "hash" : "0x35db61f2b37ea1f1d940b88cad155a8f350730892656ecba1575afca253cdc8f",
                    "txbytes" : "0xf860800a838e397a94bbbf5374fce5edbc8e2a8697c15331677e6ebf0b0a801ba0081452c602115545e59870b3ca78afca1c2ba544e0a4b90384ab1bce3a2914fca04ca6924f74805e5e73fa054312be5b677f4fd12362c9bde45262a1e264137da0",
                    "logs" : "0x1dcc4de8dec75d7aab85b567b6ccd41ad312451b948a7413f0a142fd40d49347"
                },
                {
                    "indexes" : {
                        "data" : 0,
                        "gas" : 2,
                        "value" : 0
                    },
                    "hash" : "0x2170ba253434402e773a2a5231424dec685b57386b0bbcef0e16ee85f992d2a3",
                    "txbytes" : "0xf860800a83efe17a94bbbf5374fce5edbc8e2a8697c15331677e6ebf0b0a801ca02ba8393604eee5a91085dcc638a570907c65d83112b9d041fc9b096903510ba6a03436ebb8869c02355de0405ca29f940bdbf821b9ea2e7ea883abdb701114bcd4",
                    "logs" : "0x1dcc4de8dec75d7aab85b567b6ccd41ad312451b948a7413f0a142fd40d49347"
                },
                {
                    "indexes" : {
                        "data" : 0,
                        "gas" : 3,
                        "value" : 0
                    },
                    "hash" : "0xdb48cdfe80bc6cfc42e403b70d48340bab8e712c0ae1f260561e2a2e41dd89e5",
                    "txbytes" : "0xf860800a83ab375a94bbbf5374fce5edbc8e2a8697c15331677e6ebf0b0a801ba0af6ac1bf646711d91dfec006b563af0c7b2193683c3dec895abfd2c42aa5ad68a02dfab9c8bf9ff3b86a37c837dfcce3bc56c5243d109b31bbc30d13183243f6bf",
                    "logs" : "0x1dcc4de8dec75d7aab85b567b6ccd41ad312451b948a7413f0a142fd40d49347"
                }
            ]
        },
        "pre" : {
            "0xa94f5374fce5edbc8e2a8697c15331677e6ebf0b" : {
                "balance" : "0xffffffffffffffffffffffffffffffff",
                "code" : "0x",
                "nonce" : "0x00",
                "storage" : {
                }
            },
            "0xaaaf5374fce5edbc8e2a8697c15331677e6ebf0b" : {
                "balance" : "0x1b58",
                "code" : "0x",
                "nonce" : "0x00",
                "storage" : {
                }
            },
            "0xbbbf5374fce5edbc8e2a8697c15331677e6ebf0b" : {
                "balance" : "0x0400",
                "code" : "0x6001600054016000556000600060006000600073bbbf5374fce5edbc8e2a8697c15331677e6ebf0b610401600054046001036127105a0302f16001556103e86000540260010160025500",
                "nonce" : "0x00",
                "storage" : {
                }
            }
        },
        "transaction" : {
            "data" : [
                "0x"
            ],
            "gasPrice" : "0x0a",
            "gasLimit" : [
                "0xc8353a",
                "0x8e397a",
                "0xefe17a",
                "0xab375a"
            ],
            "nonce" : "0x00",
            "secretKey" : "0x45a915e4d060149eb4365960e6a7a45f334393093061116b197e3240065ff2d8",
            "to" : "0xbbbf5374fce5edbc8e2a8697c15331677e6ebf0b",
            "value" : [
                "0x0a"
            ]
        }
    }
}