{
    "Call1024PreCalls" : {
        "_info" : {
            "comment" : "calldepth with subcall",
            "filling-rpc-server" : "evm version 1.10.4-unstable-966ee3ae-20210528",
            "filling-tool-version" : "retesteth-0.1.1-eip1559+commit.658fc3a8.Linux.g++",
            "lllcversion" : "Version: 0.5.14-develop.2021.5.18+commit.14c9d5de.mod.Linux.g++",
            "source" : "src/GeneralStateTestsFiller/stCallCreateCallCodeTest/Call1024PreCallsFiller.json",
            "sourceHash" : "58a54e2ab65346f526a40a1249336a88f0ec15a7b4f77f7e098ed84a7ba3953b"
        },
        "env" : {
            "currentCoinbase" : "0xb94f5374fce5edbc8e2a8697c15331677e6ebf0b",
            "currentDifficulty" : "0x020000",
            "currentNumber" : "0x01",
            "currentTimestamp" : "0x03e8",
            "previousHash" : "0x5e20a0453cecd065ea59c37ac63e079ee08998b6045136a8ce6635c7912ec0b6",
            "currentGasLimit" : "0x7fffffffffffffff"
        },
        "post" : {
            "Berlin" : [
                {
                    "indexes" : {
                        "data" : 0,
                        "gas" : 0,
                        "value" : 0
                    },
                    "hash" : "0x9a71f871aeee96ede81a0398d68d0865b13b7239121d45c47521b0159548c3bc",
                    "txbytes" : "0xf864800a887fe000000000000194bbbf5374fce5edbc8e2a8697c15331677e6ebf0b0a801b9f0ce0db6ff3f59c027ac72fed68709b0c154f756e1844e86c5bcd867aec9024a01f54d77f4fa6c2a9b13d15493ccad14f6d41537249ec01b759206d277a09a4ba",
                    "logs" : "0x1dcc4de8dec75d7aab85b567b6ccd41ad312451b948a7413f0a142fd40d49347"
                },
                {
                    "indexes" : {
                        "data" : 0,
                        "gas" : 1,
                        "value" : 0
                    },
                    "hash" : "0x9a71f871aeee96ede81a0398d68d0865b13b7239121d45c47521b0159548c3bc",
                    "txbytes" : "0xf863800a860ac427f1f00194bbbf5374fce5edbc8e2a8697c15331677e6ebf0b0a801ca04fc42d9ccfd4e7a0346ad1cce589ac01e6f0ae254cc42b140e122c7f5305a076a0512c70b00b1543ab9b4a9d1f6668a73c317cbcaa74cf297ac1b6682a77a3ff3f",
                    "logs" : "0x1dcc4de8dec75d7aab85b567b6ccd41ad312451b948a7413f0a142fd40d49347"
                }
            ],
            "Istanbul" : [
                {
                    "indexes" : {
                        "data" : 0,
                        "gas" : 0,
                        "value" : 0
                    },
                    "hash" : "0x7e7c0c93924a54aed2fb78f2d5ef29aafb6dd2d8d750e3efc3ce183fff4c5423",
                    "txbytes" : "0xf864800a887fe000000000000194bbbf5374fce5edbc8e2a8697c15331677e6ebf0b0a801b9f0ce0db6ff3f59c027ac72fed68709b0c154f756e1844e86c5bcd867aec9024a01f54d77f4fa6c2a9b13d15493ccad14f6d41537249ec01b759206d277a09a4ba",
                    "logs" : "0x1dcc4de8dec75d7aab85b567b6ccd41ad312451b948a7413f0a142fd40d49347"
                },
                {
                    "indexes" : {
                        "data" : 0,
                        "gas" : 1,
                        "value" : 0
                    },
                    "hash" : "0xc26c18a54941b064ac0987652d80f4d86fe4e8ab31190b62f0471208df8b7151",
                    "txbytes" : "0xf863800a860ac427f1f00194bbbf5374fce5edbc8e2a8697c15331677e6ebf0b0a801ca04fc42d9ccfd4e7a0346ad1cce589ac01e6f0ae254cc42b140e122c7f5305a076a0512c70b00b1543ab9b4a9d1f6668a73c317cbcaa74cf297ac1b6682a77a3ff3f",
                    "logs" : "0x1dcc4de8dec75d7aab85b567b6ccd41ad312451b948a7413f0a142fd40d49347"
                }
            ],
            "London" : [
                {
                    "indexes" : {
                        "data" : 0,
                        "gas" : 0,
                        "value" : 0
                    },
                    "hash" : "0x140d9dd9e12dcc437f2dd8a59a4644461caf4c227c435e55ed482141c88afb67",
                    "txbytes" : "0xf864800a887fe000000000000194bbbf5374fce5edbc8e2a8697c15331677e6ebf0b0a801b9f0ce0db6ff3f59c027ac72fed68709b0c154f756e1844e86c5bcd867aec9024a01f54d77f4fa6c2a9b13d15493ccad14f6d41537249ec01b759206d277a09a4ba",
                    "logs" : "0x1dcc4de8dec75d7aab85b567b6ccd41ad312451b948a7413f0a142fd40d49347"
                },
                {
                    "indexes" : {
                        "data" : 0,
                        "gas" : 1,
                        "value" : 0
                    },
                    "hash" : "0x140d9dd9e12dcc437f2dd8a59a4644461caf4c227c435e55ed482141c88afb67",
                    "txbytes" : "0xf863800a860ac427f1f00194bbbf5374fce5edbc8e2a8697c15331677e6ebf0b0a801ca04fc42d9ccfd4e7a0346ad1cce589ac01e6f0ae254cc42b140e122c7f5305a076a0512c70b00b1543ab9b4a9d1f6668a73c317cbcaa74cf297ac1b6682a77a3ff3f",
                    "logs" : "0x1dcc4de8dec75d7aab85b567b6ccd41ad312451b948a7413f0a142fd40d49347"
                }
            ]
        },
        "pre" : {
            "0xa94f5374fce5edbc8e2a8697c15331677e6ebf0b" : {
                "balance" : "0x0fffffffffffffffffffffffffffffffff",
                "code" : "0x",
                "nonce" : "0x00",
                "storage" : {
                }
            },
            "0xaaaf5374fce5edbc8e2a8697c15331677e6ebf0b" : {
                "balance" : "0x1b58",
                "code" : "0x",
                "nonce" : "0x00",
                "storage" : {
                }
            },
            "0xbbbf5374fce5edbc8e2a8697c15331677e6ebf0b" : {
                "balance" : "0x07e8",
                "code" : "0x6000600060006000600173aaaf5374fce5edbc8e2a8697c15331677e6ebf0b61fffff16002556000600060006000600173aaaf5374fce5edbc8e2a8697c15331677e6ebf0b61fffff16003556001600054016000556000600060006000600073bbbf5374fce5edbc8e2a8697c15331677e6ebf0b650ffffffffffff160015500",
                "nonce" : "0x00",
                "storage" : {
                }
            }
        },
        "transaction" : {
            "data" : [
                "0x"
            ],
            "gasPrice" : "0x0a",
            "gasLimit" : [
                "0x7fe0000000000001",
                "0x0ac427f1f001"
            ],
            "nonce" : "0x00",
            "secretKey" : "0x45a915e4d060149eb4365960e6a7a45f334393093061116b197e3240065ff2d8",
            "to" : "0xbbbf5374fce5edbc8e2a8697c15331677e6ebf0b",
            "value" : [
                "0x0a"
            ]
        }
    }
}