{
    "randomStatetest645_d0g0v0_Byzantium" : {
        "_info" : {
            "comment" : "Geth Failed this test on Frontier and Homestead",
            "filledwith" : "testeth 1.7.0-alpha.1-20+commit.782a7283",
            "lllcversion" : "Version: 0.5.0-develop.2018.11.9+commit.9709dfe0.Linux.g++",
            "source" : "src/BlockchainTestsFiller/GeneralStateTests/stRandom2/randomStatetest645_d0g0v0Filler.json",
            "sourceHash" : "a9445a1d0f130f94548846847fb0835c84866ed2560dadb399ce9dd0380604e2"
        },
        "blocks" : [
            {
                "blockHeader" : {
                    "bloom" : "0x00000000000000000000000000000000000000000000000000000000000000000000000000000000000000000000000000000000000000000000000000000000000000000000000000000000000000000000000000000000000000000000000000000000000000000000000000000000000000000000000000000000000000000000000000000000000000000000000000000000000000000000000000000000000000000000000000000000000000000000000000000000000000000000000000000000000000000000000000000000000000000000000000000000000000000000000000000000000000000000000000000000000000000000000000000000",
                    "coinbase" : "0xb94f5374fce5edbc8e2a8697c15331677e6ebf0b",
                    "difficulty" : "0x020000",
                    "extraData" : "0x",
                    "gasLimit" : "0x2ecf1b8c64c9dc",
                    "gasUsed" : "0x695a",
                    "hash" : "0xf8009c7e608772d768207a0d40e20cd70e11ef8cf2cfa1006594f5cebb12f78d",
                    "mixHash" : "0x0000000000000000000000000000000000000000000000000000000000000000",
                    "nonce" : "0x0000000000000000",
                    "number" : "0x01",
                    "parentHash" : "0x793f0081d104b363e11eee2d8f51a8c66e66240defb9d923c1a6d42fec26c3f6",
                    "receiptTrie" : "0x76807d3c21efa7b00c2eaf28d14766585481e2ca4a6f708114312324252429be",
                    "stateRoot" : "0x48d0adae5135ca27740a668f24324259cd47627a3c92ac8a26f2cc780ac4f627",
                    "timestamp" : "0x03e8",
                    "transactionsTrie" : "0xabc9ed9932ec9238b91628c408688050ebacd74d8d5159deeb6cd133177cabff",
                    "uncleHash" : "0x1dcc4de8dec75d7aab85b567b6ccd41ad312451b948a7413f0a142fd40d49347"
                },
                "rlp" : "0xf902b6f901fba0793f0081d104b363e11eee2d8f51a8c66e66240defb9d923c1a6d42fec26c3f6a01dcc4de8dec75d7aab85b567b6ccd41ad312451b948a7413f0a142fd40d4934794b94f5374fce5edbc8e2a8697c15331677e6ebf0ba048d0adae5135ca27740a668f24324259cd47627a3c92ac8a26f2cc780ac4f627a0abc9ed9932ec9238b91628c408688050ebacd74d8d5159deeb6cd133177cabffa076807d3c21efa7b00c2eaf28d14766585481e2ca4a6f708114312324252429beb90100000000000000000000000000000000000000000000000000000000000000000000000000000000000000000000000000000000000000000000000000000000000000000000000000000000000000000000000000000000000000000000000000000000000000000000000000000000000000000000000000000000000000000000000000000000000000000000000000000000000000000000000000000000000000000000000000000000000000000000000000000000000000000000000000000000000000000000000000000000000000000000000000000000000000000000000000000000000000000000000000000000000000000000000000000000008302000001872ecf1b8c64c9dc82695a8203e880a00000000000000000000000000000000000000000000000000000000000000000880000000000000000f8b5f8b3800582695a94000000000000000000000000000000000000000384f2d6bf97b84f326e3696ffc10e3e95c67d29784a35ba967d416feb1e1712098bcbb4d20454c1681694f51d8591ff7b80f0e4da50c89a0a777fa7666abccfbd600e213bd71da4925c2a2115799e9c3bb1622f0754521ca0ceff3d363b9dad4fc2769972697f833a6bebc32e7646b325f56f91ab9f4d8543a057001919960caaf388fc1c2fda1b7eb05e76388a1a614df491fcf5a7976b8a18c0",
                "transactions" : [
                    {
                        "data" : "0x326e3696ffc10e3e95c67d29784a35ba967d416feb1e1712098bcbb4d20454c1681694f51d8591ff7b80f0e4da50c89a0a777fa7666abccfbd600e213bd71da4925c2a2115799e9c3bb1622f075452",
                        "gasLimit" : "0x695a",
                        "gasPrice" : "0x05",
                        "nonce" : "0x00",
                        "r" : "0xceff3d363b9dad4fc2769972697f833a6bebc32e7646b325f56f91ab9f4d8543",
                        "s" : "0x57001919960caaf388fc1c2fda1b7eb05e76388a1a614df491fcf5a7976b8a18",
                        "to" : "0x0000000000000000000000000000000000000003",
                        "v" : "0x1c",
                        "value" : "0xf2d6bf97"
                    }
                ],
                "uncleHeaders" : [
                ]
            }
        ],
        "genesisBlockHeader" : {
            "bloom" : "0x00000000000000000000000000000000000000000000000000000000000000000000000000000000000000000000000000000000000000000000000000000000000000000000000000000000000000000000000000000000000000000000000000000000000000000000000000000000000000000000000000000000000000000000000000000000000000000000000000000000000000000000000000000000000000000000000000000000000000000000000000000000000000000000000000000000000000000000000000000000000000000000000000000000000000000000000000000000000000000000000000000000000000000000000000000000",
            "coinbase" : "0xb94f5374fce5edbc8e2a8697c15331677e6ebf0b",
            "difficulty" : "0x020000",
            "extraData" : "0x42",
            "gasLimit" : "0x2ecf1b8c64c9dc",
            "gasUsed" : "0x00",
            "hash" : "0x793f0081d104b363e11eee2d8f51a8c66e66240defb9d923c1a6d42fec26c3f6",
            "mixHash" : "0x56e81f171bcc55a6ff8345e692c0f86e5b48e01b996cadc001622fb5e363b421",
            "nonce" : "0x0102030405060708",
            "number" : "0x00",
            "parentHash" : "0x0000000000000000000000000000000000000000000000000000000000000000",
            "receiptTrie" : "0x56e81f171bcc55a6ff8345e692c0f86e5b48e01b996cadc001622fb5e363b421",
            "stateRoot" : "0xfd1cc1f391deb625da219bbabbd73399e85a25e19a14201b7cafd528eba40b2b",
            "timestamp" : "0x03b6",
            "transactionsTrie" : "0x56e81f171bcc55a6ff8345e692c0f86e5b48e01b996cadc001622fb5e363b421",
            "uncleHash" : "0x1dcc4de8dec75d7aab85b567b6ccd41ad312451b948a7413f0a142fd40d49347"
        },
        "genesisRLP" : "0xf901fef901f9a00000000000000000000000000000000000000000000000000000000000000000a01dcc4de8dec75d7aab85b567b6ccd41ad312451b948a7413f0a142fd40d4934794b94f5374fce5edbc8e2a8697c15331677e6ebf0ba0fd1cc1f391deb625da219bbabbd73399e85a25e19a14201b7cafd528eba40b2ba056e81f171bcc55a6ff8345e692c0f86e5b48e01b996cadc001622fb5e363b421a056e81f171bcc55a6ff8345e692c0f86e5b48e01b996cadc001622fb5e363b421b90100000000000000000000000000000000000000000000000000000000000000000000000000000000000000000000000000000000000000000000000000000000000000000000000000000000000000000000000000000000000000000000000000000000000000000000000000000000000000000000000000000000000000000000000000000000000000000000000000000000000000000000000000000000000000000000000000000000000000000000000000000000000000000000000000000000000000000000000000000000000000000000000000000000000000000000000000000000000000000000000000000000000000000000000000000000008302000080872ecf1b8c64c9dc808203b642a056e81f171bcc55a6ff8345e692c0f86e5b48e01b996cadc001622fb5e363b421880102030405060708c0c0",
        "lastblockhash" : "0xf8009c7e608772d768207a0d40e20cd70e11ef8cf2cfa1006594f5cebb12f78d",
        "network" : "Byzantium",
        "postState" : {
            "0x1000000000000000000000000000000000000000" : {
                "balance" : "0xbcbaf5a33577f162",
                "code" : "0x58679b8e24022d8c28f3620b55a06384bc2f83136515b61916f0f579ea3e9d28799d45aa77bf1fc1a84edf0193dea2d610209eaaf9c814",
                "nonce" : "0x1d",
                "storage" : {
                }
            },
            "0xa94f5374fce5edbc8e2a8697c15331677e6ebf0b" : {
                "balance" : "0x6f1f70fea63fe448",
                "code" : "0x",
                "nonce" : "0x01",
                "storage" : {
                }
            },
            "0xb94f5374fce5edbc8e2a8697c15331677e6ebf0b" : {
                "balance" : "0x5583f3f0cd04bf79",
                "code" : "0x63cbb01282621d72de5268022948f746c938a0cb7c01ef17f23ed237d9f3262c4eb1b95112820595b127c516074df06223db7e0c396eb18074f148d96fd766dda35b6cc250661b5f83f0ed625ba68a5ff49aa1",
                "nonce" : "0xaf",
                "storage" : {
                }
            },
            "0xffffffffffffffffffffffffffffffffffffffff" : {
                "balance" : "0xb3508c0f8a22f8a1",
                "code" : "0x",
                "nonce" : "0x1c",
                "storage" : {
                }
            }
        },
        "pre" : {
            "0x1000000000000000000000000000000000000000" : {
                "balance" : "0xbcbaf5a33577f162",
                "code" : "0x58679b8e24022d8c28f3620b55a06384bc2f83136515b61916f0f579ea3e9d28799d45aa77bf1fc1a84edf0193dea2d610209eaaf9c814",
                "nonce" : "0x1d",
                "storage" : {
                }
            },
            "0xa94f5374fce5edbc8e2a8697c15331677e6ebf0b" : {
                "balance" : "0x6f1f70fea641f30a",
                "code" : "0x",
                "nonce" : "0x00",
                "storage" : {
                }
            },
            "0xb94f5374fce5edbc8e2a8697c15331677e6ebf0b" : {
                "balance" : "0x2be1cfd5d6d6b0b7",
                "code" : "0x63cbb01282621d72de5268022948f746c938a0cb7c01ef17f23ed237d9f3262c4eb1b95112820595b127c516074df06223db7e0c396eb18074f148d96fd766dda35b6cc250661b5f83f0ed625ba68a5ff49aa1",
                "nonce" : "0xaf",
                "storage" : {
                }
            },
            "0xffffffffffffffffffffffffffffffffffffffff" : {
                "balance" : "0xb3508c0f8a22f8a1",
                "code" : "0x",
                "nonce" : "0x1c",
                "storage" : {
                }
            }
        },
        "sealEngine" : "NoProof"
    },
    "randomStatetest645_d0g0v0_Constantinople" : {
        "_info" : {
            "comment" : "Geth Failed this test on Frontier and Homestead",
            "filledwith" : "testeth 1.7.0-alpha.1-20+commit.782a7283",
            "lllcversion" : "Version: 0.5.0-develop.2018.11.9+commit.9709dfe0.Linux.g++",
            "source" : "src/BlockchainTestsFiller/GeneralStateTests/stRandom2/randomStatetest645_d0g0v0Filler.json",
            "sourceHash" : "a9445a1d0f130f94548846847fb0835c84866ed2560dadb399ce9dd0380604e2"
        },
        "blocks" : [
            {
                "blockHeader" : {
                    "bloom" : "0x00000000000000000000000000000000000000000000000000000000000000000000000000000000000000000000000000000000000000000000000000000000000000000000000000000000000000000000000000000000000000000000000000000000000000000000000000000000000000000000000000000000000000000000000000000000000000000000000000000000000000000000000000000000000000000000000000000000000000000000000000000000000000000000000000000000000000000000000000000000000000000000000000000000000000000000000000000000000000000000000000000000000000000000000000000000",
                    "coinbase" : "0xb94f5374fce5edbc8e2a8697c15331677e6ebf0b",
                    "difficulty" : "0x020000",
                    "extraData" : "0x",
                    "gasLimit" : "0x2ecf1b8c64c9dc",
                    "gasUsed" : "0x695a",
                    "hash" : "0xd8c7c272319007787774f091b32fbf05d8fff0a798a9456676ec05300bac054c",
                    "mixHash" : "0x0000000000000000000000000000000000000000000000000000000000000000",
                    "nonce" : "0x0000000000000000",
                    "number" : "0x01",
                    "parentHash" : "0x793f0081d104b363e11eee2d8f51a8c66e66240defb9d923c1a6d42fec26c3f6",
                    "receiptTrie" : "0x76807d3c21efa7b00c2eaf28d14766585481e2ca4a6f708114312324252429be",
                    "stateRoot" : "0xa1c60699032839c6e52b1d372edaec4d23b8dc6a067eb9a00894a7ed6c34c9f8",
                    "timestamp" : "0x03e8",
                    "transactionsTrie" : "0xabc9ed9932ec9238b91628c408688050ebacd74d8d5159deeb6cd133177cabff",
                    "uncleHash" : "0x1dcc4de8dec75d7aab85b567b6ccd41ad312451b948a7413f0a142fd40d49347"
                },
                "rlp" : "0xf902b6f901fba0793f0081d104b363e11eee2d8f51a8c66e66240defb9d923c1a6d42fec26c3f6a01dcc4de8dec75d7aab85b567b6ccd41ad312451b948a7413f0a142fd40d4934794b94f5374fce5edbc8e2a8697c15331677e6ebf0ba0a1c60699032839c6e52b1d372edaec4d23b8dc6a067eb9a00894a7ed6c34c9f8a0abc9ed9932ec9238b91628c408688050ebacd74d8d5159deeb6cd133177cabffa076807d3c21efa7b00c2eaf28d14766585481e2ca4a6f708114312324252429beb90100000000000000000000000000000000000000000000000000000000000000000000000000000000000000000000000000000000000000000000000000000000000000000000000000000000000000000000000000000000000000000000000000000000000000000000000000000000000000000000000000000000000000000000000000000000000000000000000000000000000000000000000000000000000000000000000000000000000000000000000000000000000000000000000000000000000000000000000000000000000000000000000000000000000000000000000000000000000000000000000000000000000000000000000000000000008302000001872ecf1b8c64c9dc82695a8203e880a00000000000000000000000000000000000000000000000000000000000000000880000000000000000f8b5f8b3800582695a94000000000000000000000000000000000000000384f2d6bf97b84f326e3696ffc10e3e95c67d29784a35ba967d416feb1e1712098bcbb4d20454c1681694f51d8591ff7b80f0e4da50c89a0a777fa7666abccfbd600e213bd71da4925c2a2115799e9c3bb1622f0754521ca0ceff3d363b9dad4fc2769972697f833a6bebc32e7646b325f56f91ab9f4d8543a057001919960caaf388fc1c2fda1b7eb05e76388a1a614df491fcf5a7976b8a18c0",
                "transactions" : [
                    {
                        "data" : "0x326e3696ffc10e3e95c67d29784a35ba967d416feb1e1712098bcbb4d20454c1681694f51d8591ff7b80f0e4da50c89a0a777fa7666abccfbd600e213bd71da4925c2a2115799e9c3bb1622f075452",
                        "gasLimit" : "0x695a",
                        "gasPrice" : "0x05",
                        "nonce" : "0x00",
                        "r" : "0xceff3d363b9dad4fc2769972697f833a6bebc32e7646b325f56f91ab9f4d8543",
                        "s" : "0x57001919960caaf388fc1c2fda1b7eb05e76388a1a614df491fcf5a7976b8a18",
                        "to" : "0x0000000000000000000000000000000000000003",
                        "v" : "0x1c",
                        "value" : "0xf2d6bf97"
                    }
                ],
                "uncleHeaders" : [
                ]
            }
        ],
        "genesisBlockHeader" : {
            "bloom" : "0x00000000000000000000000000000000000000000000000000000000000000000000000000000000000000000000000000000000000000000000000000000000000000000000000000000000000000000000000000000000000000000000000000000000000000000000000000000000000000000000000000000000000000000000000000000000000000000000000000000000000000000000000000000000000000000000000000000000000000000000000000000000000000000000000000000000000000000000000000000000000000000000000000000000000000000000000000000000000000000000000000000000000000000000000000000000",
            "coinbase" : "0xb94f5374fce5edbc8e2a8697c15331677e6ebf0b",
            "difficulty" : "0x020000",
            "extraData" : "0x42",
            "gasLimit" : "0x2ecf1b8c64c9dc",
            "gasUsed" : "0x00",
            "hash" : "0x793f0081d104b363e11eee2d8f51a8c66e66240defb9d923c1a6d42fec26c3f6",
            "mixHash" : "0x56e81f171bcc55a6ff8345e692c0f86e5b48e01b996cadc001622fb5e363b421",
            "nonce" : "0x0102030405060708",
            "number" : "0x00",
            "parentHash" : "0x0000000000000000000000000000000000000000000000000000000000000000",
            "receiptTrie" : "0x56e81f171bcc55a6ff8345e692c0f86e5b48e01b996cadc001622fb5e363b421",
            "stateRoot" : "0xfd1cc1f391deb625da219bbabbd73399e85a25e19a14201b7cafd528eba40b2b",
            "timestamp" : "0x03b6",
            "transactionsTrie" : "0x56e81f171bcc55a6ff8345e692c0f86e5b48e01b996cadc001622fb5e363b421",
            "uncleHash" : "0x1dcc4de8dec75d7aab85b567b6ccd41ad312451b948a7413f0a142fd40d49347"
        },
        "genesisRLP" : "0xf901fef901f9a00000000000000000000000000000000000000000000000000000000000000000a01dcc4de8dec75d7aab85b567b6ccd41ad312451b948a7413f0a142fd40d4934794b94f5374fce5edbc8e2a8697c15331677e6ebf0ba0fd1cc1f391deb625da219bbabbd73399e85a25e19a14201b7cafd528eba40b2ba056e81f171bcc55a6ff8345e692c0f86e5b48e01b996cadc001622fb5e363b421a056e81f171bcc55a6ff8345e692c0f86e5b48e01b996cadc001622fb5e363b421b90100000000000000000000000000000000000000000000000000000000000000000000000000000000000000000000000000000000000000000000000000000000000000000000000000000000000000000000000000000000000000000000000000000000000000000000000000000000000000000000000000000000000000000000000000000000000000000000000000000000000000000000000000000000000000000000000000000000000000000000000000000000000000000000000000000000000000000000000000000000000000000000000000000000000000000000000000000000000000000000000000000000000000000000000000000000008302000080872ecf1b8c64c9dc808203b642a056e81f171bcc55a6ff8345e692c0f86e5b48e01b996cadc001622fb5e363b421880102030405060708c0c0",
        "lastblockhash" : "0xd8c7c272319007787774f091b32fbf05d8fff0a798a9456676ec05300bac054c",
        "network" : "Constantinople",
        "postState" : {
            "0x1000000000000000000000000000000000000000" : {
                "balance" : "0xbcbaf5a33577f162",
                "code" : "0x58679b8e24022d8c28f3620b55a06384bc2f83136515b61916f0f579ea3e9d28799d45aa77bf1fc1a84edf0193dea2d610209eaaf9c814",
                "nonce" : "0x1d",
                "storage" : {
                }
            },
            "0xa94f5374fce5edbc8e2a8697c15331677e6ebf0b" : {
                "balance" : "0x6f1f70fea63fe448",
                "code" : "0x",
                "nonce" : "0x01",
                "storage" : {
                }
            },
            "0xb94f5374fce5edbc8e2a8697c15331677e6ebf0b" : {
                "balance" : "0x47a33d3d25a0bf79",
                "code" : "0x63cbb01282621d72de5268022948f746c938a0cb7c01ef17f23ed237d9f3262c4eb1b95112820595b127c516074df06223db7e0c396eb18074f148d96fd766dda35b6cc250661b5f83f0ed625ba68a5ff49aa1",
                "nonce" : "0xaf",
                "storage" : {
                }
            },
            "0xffffffffffffffffffffffffffffffffffffffff" : {
                "balance" : "0xb3508c0f8a22f8a1",
                "code" : "0x",
                "nonce" : "0x1c",
                "storage" : {
                }
            }
        },
        "pre" : {
            "0x1000000000000000000000000000000000000000" : {
                "balance" : "0xbcbaf5a33577f162",
                "code" : "0x58679b8e24022d8c28f3620b55a06384bc2f83136515b61916f0f579ea3e9d28799d45aa77bf1fc1a84edf0193dea2d610209eaaf9c814",
                "nonce" : "0x1d",
                "storage" : {
                }
            },
            "0xa94f5374fce5edbc8e2a8697c15331677e6ebf0b" : {
                "balance" : "0x6f1f70fea641f30a",
                "code" : "0x",
                "nonce" : "0x00",
                "storage" : {
                }
            },
            "0xb94f5374fce5edbc8e2a8697c15331677e6ebf0b" : {
                "balance" : "0x2be1cfd5d6d6b0b7",
                "code" : "0x63cbb01282621d72de5268022948f746c938a0cb7c01ef17f23ed237d9f3262c4eb1b95112820595b127c516074df06223db7e0c396eb18074f148d96fd766dda35b6cc250661b5f83f0ed625ba68a5ff49aa1",
                "nonce" : "0xaf",
                "storage" : {
                }
            },
            "0xffffffffffffffffffffffffffffffffffffffff" : {
                "balance" : "0xb3508c0f8a22f8a1",
                "code" : "0x",
                "nonce" : "0x1c",
                "storage" : {
                }
            }
        },
        "sealEngine" : "NoProof"
    },
    "randomStatetest645_d0g0v0_ConstantinopleFix" : {
        "_info" : {
            "comment" : "Geth Failed this test on Frontier and Homestead",
            "filledwith" : "testeth 1.7.0-alpha.1-20+commit.782a7283",
            "lllcversion" : "Version: 0.5.0-develop.2018.11.9+commit.9709dfe0.Linux.g++",
            "source" : "src/BlockchainTestsFiller/GeneralStateTests/stRandom2/randomStatetest645_d0g0v0Filler.json",
            "sourceHash" : "a9445a1d0f130f94548846847fb0835c84866ed2560dadb399ce9dd0380604e2"
        },
        "blocks" : [
            {
                "blockHeader" : {
                    "bloom" : "0x00000000000000000000000000000000000000000000000000000000000000000000000000000000000000000000000000000000000000000000000000000000000000000000000000000000000000000000000000000000000000000000000000000000000000000000000000000000000000000000000000000000000000000000000000000000000000000000000000000000000000000000000000000000000000000000000000000000000000000000000000000000000000000000000000000000000000000000000000000000000000000000000000000000000000000000000000000000000000000000000000000000000000000000000000000000",
                    "coinbase" : "0xb94f5374fce5edbc8e2a8697c15331677e6ebf0b",
                    "difficulty" : "0x020000",
                    "extraData" : "0x",
                    "gasLimit" : "0x2ecf1b8c64c9dc",
                    "gasUsed" : "0x695a",
                    "hash" : "0xd8c7c272319007787774f091b32fbf05d8fff0a798a9456676ec05300bac054c",
                    "mixHash" : "0x0000000000000000000000000000000000000000000000000000000000000000",
                    "nonce" : "0x0000000000000000",
                    "number" : "0x01",
                    "parentHash" : "0x793f0081d104b363e11eee2d8f51a8c66e66240defb9d923c1a6d42fec26c3f6",
                    "receiptTrie" : "0x76807d3c21efa7b00c2eaf28d14766585481e2ca4a6f708114312324252429be",
                    "stateRoot" : "0xa1c60699032839c6e52b1d372edaec4d23b8dc6a067eb9a00894a7ed6c34c9f8",
                    "timestamp" : "0x03e8",
                    "transactionsTrie" : "0xabc9ed9932ec9238b91628c408688050ebacd74d8d5159deeb6cd133177cabff",
                    "uncleHash" : "0x1dcc4de8dec75d7aab85b567b6ccd41ad312451b948a7413f0a142fd40d49347"
                },
                "rlp" : "0xf902b6f901fba0793f0081d104b363e11eee2d8f51a8c66e66240defb9d923c1a6d42fec26c3f6a01dcc4de8dec75d7aab85b567b6ccd41ad312451b948a7413f0a142fd40d4934794b94f5374fce5edbc8e2a8697c15331677e6ebf0ba0a1c60699032839c6e52b1d372edaec4d23b8dc6a067eb9a00894a7ed6c34c9f8a0abc9ed9932ec9238b91628c408688050ebacd74d8d5159deeb6cd133177cabffa076807d3c21efa7b00c2eaf28d14766585481e2ca4a6f708114312324252429beb90100000000000000000000000000000000000000000000000000000000000000000000000000000000000000000000000000000000000000000000000000000000000000000000000000000000000000000000000000000000000000000000000000000000000000000000000000000000000000000000000000000000000000000000000000000000000000000000000000000000000000000000000000000000000000000000000000000000000000000000000000000000000000000000000000000000000000000000000000000000000000000000000000000000000000000000000000000000000000000000000000000000000000000000000000000000008302000001872ecf1b8c64c9dc82695a8203e880a00000000000000000000000000000000000000000000000000000000000000000880000000000000000f8b5f8b3800582695a94000000000000000000000000000000000000000384f2d6bf97b84f326e3696ffc10e3e95c67d29784a35ba967d416feb1e1712098bcbb4d20454c1681694f51d8591ff7b80f0e4da50c89a0a777fa7666abccfbd600e213bd71da4925c2a2115799e9c3bb1622f0754521ca0ceff3d363b9dad4fc2769972697f833a6bebc32e7646b325f56f91ab9f4d8543a057001919960caaf388fc1c2fda1b7eb05e76388a1a614df491fcf5a7976b8a18c0",
                "transactions" : [
                    {
                        "data" : "0x326e3696ffc10e3e95c67d29784a35ba967d416feb1e1712098bcbb4d20454c1681694f51d8591ff7b80f0e4da50c89a0a777fa7666abccfbd600e213bd71da4925c2a2115799e9c3bb1622f075452",
                        "gasLimit" : "0x695a",
                        "gasPrice" : "0x05",
                        "nonce" : "0x00",
                        "r" : "0xceff3d363b9dad4fc2769972697f833a6bebc32e7646b325f56f91ab9f4d8543",
                        "s" : "0x57001919960caaf388fc1c2fda1b7eb05e76388a1a614df491fcf5a7976b8a18",
                        "to" : "0x0000000000000000000000000000000000000003",
                        "v" : "0x1c",
                        "value" : "0xf2d6bf97"
                    }
                ],
                "uncleHeaders" : [
                ]
            }
        ],
        "genesisBlockHeader" : {
            "bloom" : "0x00000000000000000000000000000000000000000000000000000000000000000000000000000000000000000000000000000000000000000000000000000000000000000000000000000000000000000000000000000000000000000000000000000000000000000000000000000000000000000000000000000000000000000000000000000000000000000000000000000000000000000000000000000000000000000000000000000000000000000000000000000000000000000000000000000000000000000000000000000000000000000000000000000000000000000000000000000000000000000000000000000000000000000000000000000000",
            "coinbase" : "0xb94f5374fce5edbc8e2a8697c15331677e6ebf0b",
            "difficulty" : "0x020000",
            "extraData" : "0x42",
            "gasLimit" : "0x2ecf1b8c64c9dc",
            "gasUsed" : "0x00",
            "hash" : "0x793f0081d104b363e11eee2d8f51a8c66e66240defb9d923c1a6d42fec26c3f6",
            "mixHash" : "0x56e81f171bcc55a6ff8345e692c0f86e5b48e01b996cadc001622fb5e363b421",
            "nonce" : "0x0102030405060708",
            "number" : "0x00",
            "parentHash" : "0x0000000000000000000000000000000000000000000000000000000000000000",
            "receiptTrie" : "0x56e81f171bcc55a6ff8345e692c0f86e5b48e01b996cadc001622fb5e363b421",
            "stateRoot" : "0xfd1cc1f391deb625da219bbabbd73399e85a25e19a14201b7cafd528eba40b2b",
            "timestamp" : "0x03b6",
            "transactionsTrie" : "0x56e81f171bcc55a6ff8345e692c0f86e5b48e01b996cadc001622fb5e363b421",
            "uncleHash" : "0x1dcc4de8dec75d7aab85b567b6ccd41ad312451b948a7413f0a142fd40d49347"
        },
        "genesisRLP" : "0xf901fef901f9a00000000000000000000000000000000000000000000000000000000000000000a01dcc4de8dec75d7aab85b567b6ccd41ad312451b948a7413f0a142fd40d4934794b94f5374fce5edbc8e2a8697c15331677e6ebf0ba0fd1cc1f391deb625da219bbabbd73399e85a25e19a14201b7cafd528eba40b2ba056e81f171bcc55a6ff8345e692c0f86e5b48e01b996cadc001622fb5e363b421a056e81f171bcc55a6ff8345e692c0f86e5b48e01b996cadc001622fb5e363b421b90100000000000000000000000000000000000000000000000000000000000000000000000000000000000000000000000000000000000000000000000000000000000000000000000000000000000000000000000000000000000000000000000000000000000000000000000000000000000000000000000000000000000000000000000000000000000000000000000000000000000000000000000000000000000000000000000000000000000000000000000000000000000000000000000000000000000000000000000000000000000000000000000000000000000000000000000000000000000000000000000000000000000000000000000000000000008302000080872ecf1b8c64c9dc808203b642a056e81f171bcc55a6ff8345e692c0f86e5b48e01b996cadc001622fb5e363b421880102030405060708c0c0",
        "lastblockhash" : "0xd8c7c272319007787774f091b32fbf05d8fff0a798a9456676ec05300bac054c",
        "network" : "ConstantinopleFix",
        "postState" : {
            "0x1000000000000000000000000000000000000000" : {
                "balance" : "0xbcbaf5a33577f162",
                "code" : "0x58679b8e24022d8c28f3620b55a06384bc2f83136515b61916f0f579ea3e9d28799d45aa77bf1fc1a84edf0193dea2d610209eaaf9c814",
                "nonce" : "0x1d",
                "storage" : {
                }
            },
            "0xa94f5374fce5edbc8e2a8697c15331677e6ebf0b" : {
                "balance" : "0x6f1f70fea63fe448",
                "code" : "0x",
                "nonce" : "0x01",
                "storage" : {
                }
            },
            "0xb94f5374fce5edbc8e2a8697c15331677e6ebf0b" : {
                "balance" : "0x47a33d3d25a0bf79",
                "code" : "0x63cbb01282621d72de5268022948f746c938a0cb7c01ef17f23ed237d9f3262c4eb1b95112820595b127c516074df06223db7e0c396eb18074f148d96fd766dda35b6cc250661b5f83f0ed625ba68a5ff49aa1",
                "nonce" : "0xaf",
                "storage" : {
                }
            },
            "0xffffffffffffffffffffffffffffffffffffffff" : {
                "balance" : "0xb3508c0f8a22f8a1",
                "code" : "0x",
                "nonce" : "0x1c",
                "storage" : {
                }
            }
        },
        "pre" : {
            "0x1000000000000000000000000000000000000000" : {
                "balance" : "0xbcbaf5a33577f162",
                "code" : "0x58679b8e24022d8c28f3620b55a06384bc2f83136515b61916f0f579ea3e9d28799d45aa77bf1fc1a84edf0193dea2d610209eaaf9c814",
                "nonce" : "0x1d",
                "storage" : {
                }
            },
            "0xa94f5374fce5edbc8e2a8697c15331677e6ebf0b" : {
                "balance" : "0x6f1f70fea641f30a",
                "code" : "0x",
                "nonce" : "0x00",
                "storage" : {
                }
            },
            "0xb94f5374fce5edbc8e2a8697c15331677e6ebf0b" : {
                "balance" : "0x2be1cfd5d6d6b0b7",
                "code" : "0x63cbb01282621d72de5268022948f746c938a0cb7c01ef17f23ed237d9f3262c4eb1b95112820595b127c516074df06223db7e0c396eb18074f148d96fd766dda35b6cc250661b5f83f0ed625ba68a5ff49aa1",
                "nonce" : "0xaf",
                "storage" : {
                }
            },
            "0xffffffffffffffffffffffffffffffffffffffff" : {
                "balance" : "0xb3508c0f8a22f8a1",
                "code" : "0x",
                "nonce" : "0x1c",
                "storage" : {
                }
            }
        },
        "sealEngine" : "NoProof"
    },
    "randomStatetest645_d0g0v0_Homestead" : {
        "_info" : {
            "comment" : "Geth Failed this test on Frontier and Homestead",
            "filledwith" : "testeth 1.7.0-alpha.1-20+commit.782a7283",
            "lllcversion" : "Version: 0.5.0-develop.2018.11.9+commit.9709dfe0.Linux.g++",
            "source" : "src/BlockchainTestsFiller/GeneralStateTests/stRandom2/randomStatetest645_d0g0v0Filler.json",
            "sourceHash" : "a9445a1d0f130f94548846847fb0835c84866ed2560dadb399ce9dd0380604e2"
        },
        "blocks" : [
            {
                "blockHeader" : {
                    "bloom" : "0x00000000000000000000000000000000000000000000000000000000000000000000000000000000000000000000000000000000000000000000000000000000000000000000000000000000000000000000000000000000000000000000000000000000000000000000000000000000000000000000000000000000000000000000000000000000000000000000000000000000000000000000000000000000000000000000000000000000000000000000000000000000000000000000000000000000000000000000000000000000000000000000000000000000000000000000000000000000000000000000000000000000000000000000000000000000",
                    "coinbase" : "0xb94f5374fce5edbc8e2a8697c15331677e6ebf0b",
                    "difficulty" : "0x020000",
                    "extraData" : "0x",
                    "gasLimit" : "0x2ecf1b8c64c9dc",
                    "gasUsed" : "0x695a",
                    "hash" : "0x144116ddcca1c00def9d86d3f95406eb742a9a217e10663bae22eb84d20fa66c",
                    "mixHash" : "0x0000000000000000000000000000000000000000000000000000000000000000",
                    "nonce" : "0x0000000000000000",
                    "number" : "0x01",
                    "parentHash" : "0x793f0081d104b363e11eee2d8f51a8c66e66240defb9d923c1a6d42fec26c3f6",
                    "receiptTrie" : "0x8a629b2b2022fe2b2e9cdd1442cbc0d3571e4fda7063838dceca7527c628da63",
                    "stateRoot" : "0x2d1c928ac829e1406d9909c6a5b9223d3118f6b8246c0db861091d0e51bc084f",
                    "timestamp" : "0x03e8",
                    "transactionsTrie" : "0xabc9ed9932ec9238b91628c408688050ebacd74d8d5159deeb6cd133177cabff",
                    "uncleHash" : "0x1dcc4de8dec75d7aab85b567b6ccd41ad312451b948a7413f0a142fd40d49347"
                },
                "rlp" : "0xf902b6f901fba0793f0081d104b363e11eee2d8f51a8c66e66240defb9d923c1a6d42fec26c3f6a01dcc4de8dec75d7aab85b567b6ccd41ad312451b948a7413f0a142fd40d4934794b94f5374fce5edbc8e2a8697c15331677e6ebf0ba02d1c928ac829e1406d9909c6a5b9223d3118f6b8246c0db861091d0e51bc084fa0abc9ed9932ec9238b91628c408688050ebacd74d8d5159deeb6cd133177cabffa08a629b2b2022fe2b2e9cdd1442cbc0d3571e4fda7063838dceca7527c628da63b90100000000000000000000000000000000000000000000000000000000000000000000000000000000000000000000000000000000000000000000000000000000000000000000000000000000000000000000000000000000000000000000000000000000000000000000000000000000000000000000000000000000000000000000000000000000000000000000000000000000000000000000000000000000000000000000000000000000000000000000000000000000000000000000000000000000000000000000000000000000000000000000000000000000000000000000000000000000000000000000000000000000000000000000000000000000008302000001872ecf1b8c64c9dc82695a8203e880a00000000000000000000000000000000000000000000000000000000000000000880000000000000000f8b5f8b3800582695a94000000000000000000000000000000000000000384f2d6bf97b84f326e3696ffc10e3e95c67d29784a35ba967d416feb1e1712098bcbb4d20454c1681694f51d8591ff7b80f0e4da50c89a0a777fa7666abccfbd600e213bd71da4925c2a2115799e9c3bb1622f0754521ca0ceff3d363b9dad4fc2769972697f833a6bebc32e7646b325f56f91ab9f4d8543a057001919960caaf388fc1c2fda1b7eb05e76388a1a614df491fcf5a7976b8a18c0",
                "transactions" : [
                    {
                        "data" : "0x326e3696ffc10e3e95c67d29784a35ba967d416feb1e1712098bcbb4d20454c1681694f51d8591ff7b80f0e4da50c89a0a777fa7666abccfbd600e213bd71da4925c2a2115799e9c3bb1622f075452",
                        "gasLimit" : "0x695a",
                        "gasPrice" : "0x05",
                        "nonce" : "0x00",
                        "r" : "0xceff3d363b9dad4fc2769972697f833a6bebc32e7646b325f56f91ab9f4d8543",
                        "s" : "0x57001919960caaf388fc1c2fda1b7eb05e76388a1a614df491fcf5a7976b8a18",
                        "to" : "0x0000000000000000000000000000000000000003",
                        "v" : "0x1c",
                        "value" : "0xf2d6bf97"
                    }
                ],
                "uncleHeaders" : [
                ]
            }
        ],
        "genesisBlockHeader" : {
            "bloom" : "0x00000000000000000000000000000000000000000000000000000000000000000000000000000000000000000000000000000000000000000000000000000000000000000000000000000000000000000000000000000000000000000000000000000000000000000000000000000000000000000000000000000000000000000000000000000000000000000000000000000000000000000000000000000000000000000000000000000000000000000000000000000000000000000000000000000000000000000000000000000000000000000000000000000000000000000000000000000000000000000000000000000000000000000000000000000000",
            "coinbase" : "0xb94f5374fce5edbc8e2a8697c15331677e6ebf0b",
            "difficulty" : "0x020000",
            "extraData" : "0x42",
            "gasLimit" : "0x2ecf1b8c64c9dc",
            "gasUsed" : "0x00",
            "hash" : "0x793f0081d104b363e11eee2d8f51a8c66e66240defb9d923c1a6d42fec26c3f6",
            "mixHash" : "0x56e81f171bcc55a6ff8345e692c0f86e5b48e01b996cadc001622fb5e363b421",
            "nonce" : "0x0102030405060708",
            "number" : "0x00",
            "parentHash" : "0x0000000000000000000000000000000000000000000000000000000000000000",
            "receiptTrie" : "0x56e81f171bcc55a6ff8345e692c0f86e5b48e01b996cadc001622fb5e363b421",
            "stateRoot" : "0xfd1cc1f391deb625da219bbabbd73399e85a25e19a14201b7cafd528eba40b2b",
            "timestamp" : "0x03b6",
            "transactionsTrie" : "0x56e81f171bcc55a6ff8345e692c0f86e5b48e01b996cadc001622fb5e363b421",
            "uncleHash" : "0x1dcc4de8dec75d7aab85b567b6ccd41ad312451b948a7413f0a142fd40d49347"
        },
        "genesisRLP" : "0xf901fef901f9a00000000000000000000000000000000000000000000000000000000000000000a01dcc4de8dec75d7aab85b567b6ccd41ad312451b948a7413f0a142fd40d4934794b94f5374fce5edbc8e2a8697c15331677e6ebf0ba0fd1cc1f391deb625da219bbabbd73399e85a25e19a14201b7cafd528eba40b2ba056e81f171bcc55a6ff8345e692c0f86e5b48e01b996cadc001622fb5e363b421a056e81f171bcc55a6ff8345e692c0f86e5b48e01b996cadc001622fb5e363b421b90100000000000000000000000000000000000000000000000000000000000000000000000000000000000000000000000000000000000000000000000000000000000000000000000000000000000000000000000000000000000000000000000000000000000000000000000000000000000000000000000000000000000000000000000000000000000000000000000000000000000000000000000000000000000000000000000000000000000000000000000000000000000000000000000000000000000000000000000000000000000000000000000000000000000000000000000000000000000000000000000000000000000000000000000000000000008302000080872ecf1b8c64c9dc808203b642a056e81f171bcc55a6ff8345e692c0f86e5b48e01b996cadc001622fb5e363b421880102030405060708c0c0",
        "lastblockhash" : "0x144116ddcca1c00def9d86d3f95406eb742a9a217e10663bae22eb84d20fa66c",
        "network" : "Homestead",
        "postState" : {
            "0x1000000000000000000000000000000000000000" : {
                "balance" : "0xbcbaf5a33577f162",
                "code" : "0x58679b8e24022d8c28f3620b55a06384bc2f83136515b61916f0f579ea3e9d28799d45aa77bf1fc1a84edf0193dea2d610209eaaf9c814",
                "nonce" : "0x1d",
                "storage" : {
                }
            },
            "0xa94f5374fce5edbc8e2a8697c15331677e6ebf0b" : {
                "balance" : "0x6f1f70fea63fe448",
                "code" : "0x",
                "nonce" : "0x01",
                "storage" : {
                }
            },
            "0xb94f5374fce5edbc8e2a8697c15331677e6ebf0b" : {
                "balance" : "0x714561581bccbf79",
                "code" : "0x63cbb01282621d72de5268022948f746c938a0cb7c01ef17f23ed237d9f3262c4eb1b95112820595b127c516074df06223db7e0c396eb18074f148d96fd766dda35b6cc250661b5f83f0ed625ba68a5ff49aa1",
                "nonce" : "0xaf",
                "storage" : {
                }
            },
            "0xffffffffffffffffffffffffffffffffffffffff" : {
                "balance" : "0xb3508c0f8a22f8a1",
                "code" : "0x",
                "nonce" : "0x1c",
                "storage" : {
                }
            }
        },
        "pre" : {
            "0x1000000000000000000000000000000000000000" : {
                "balance" : "0xbcbaf5a33577f162",
                "code" : "0x58679b8e24022d8c28f3620b55a06384bc2f83136515b61916f0f579ea3e9d28799d45aa77bf1fc1a84edf0193dea2d610209eaaf9c814",
                "nonce" : "0x1d",
                "storage" : {
                }
            },
            "0xa94f5374fce5edbc8e2a8697c15331677e6ebf0b" : {
                "balance" : "0x6f1f70fea641f30a",
                "code" : "0x",
                "nonce" : "0x00",
                "storage" : {
                }
            },
            "0xb94f5374fce5edbc8e2a8697c15331677e6ebf0b" : {
                "balance" : "0x2be1cfd5d6d6b0b7",
                "code" : "0x63cbb01282621d72de5268022948f746c938a0cb7c01ef17f23ed237d9f3262c4eb1b95112820595b127c516074df06223db7e0c396eb18074f148d96fd766dda35b6cc250661b5f83f0ed625ba68a5ff49aa1",
                "nonce" : "0xaf",
                "storage" : {
                }
            },
            "0xffffffffffffffffffffffffffffffffffffffff" : {
                "balance" : "0xb3508c0f8a22f8a1",
                "code" : "0x",
                "nonce" : "0x1c",
                "storage" : {
                }
            }
        },
        "sealEngine" : "NoProof"
    }
}