{
    "randomStatetest552_d0g0v0_Byzantium" : {
        "_info" : {
            "comment" : "",
            "filledwith" : "testeth 1.7.0-alpha.1-20+commit.782a7283",
            "lllcversion" : "Version: 0.5.0-develop.2018.11.9+commit.9709dfe0.Linux.g++",
            "source" : "src/BlockchainTestsFiller/GeneralStateTests/stRandom2/randomStatetest552_d0g0v0Filler.json",
            "sourceHash" : "13c5f95563574a94bf63e26ce8f0d76190f17e3682139b376fbc0dc8a02f8a07"
        },
        "blocks" : [
            {
                "blockHeader" : {
                    "bloom" : "0x00000000000000000000000000000000000000000000000000000000000000000000000000000000000000000000000000000000000000000000000000000000000000000000000000000000000000000000000000000000000000000000000000000000000000000000000000000000000000000000000000000000000000000000000000000000000000000000000000000000000000000000000000000000000000000000000000000000000000000000000000000000000000000000000000000000000000000000000000000000000000000000000000000000000000000000000000000000000000000000000000000000000000000000000000000000",
                    "coinbase" : "0x945304eb96065b2a98b57a48a06ae28d285a71b5",
                    "difficulty" : "0x020000",
                    "extraData" : "0x",
                    "gasLimit" : "0x7fffffffffffffff",
                    "gasUsed" : "0xbf70",
                    "hash" : "0x9c2f998ef91a8a04728d5f7d00d4b0c95ca703dd8a71edbfdf62fe0bd106d1f2",
                    "mixHash" : "0x0000000000000000000000000000000000000000000000000000000000000000",
                    "nonce" : "0x0000000000000000",
                    "number" : "0x01",
                    "parentHash" : "0x7d660bd7f24d1a95ee5957dc5b04e6c8cc82ed3608bda55b3791db6b01c4bcdd",
                    "receiptTrie" : "0x74cd24393c6946c46b7aa3b41ae325654bef4adc142838191a81af098250921f",
                    "stateRoot" : "0x7423481dae332c9e891bdc1f1764140150f44ba105dc37e58058f4ba510a34ce",
                    "timestamp" : "0x03e8",
                    "transactionsTrie" : "0xc60d61a37fb50a978b5e53917d3fd474538fd8a56b6ff5130e50c123ecc2cfb4",
                    "uncleHash" : "0x1dcc4de8dec75d7aab85b567b6ccd41ad312451b948a7413f0a142fd40d49347"
                },
                "rlp" : "0xf90324f901fca07d660bd7f24d1a95ee5957dc5b04e6c8cc82ed3608bda55b3791db6b01c4bcdda01dcc4de8dec75d7aab85b567b6ccd41ad312451b948a7413f0a142fd40d4934794945304eb96065b2a98b57a48a06ae28d285a71b5a07423481dae332c9e891bdc1f1764140150f44ba105dc37e58058f4ba510a34cea0c60d61a37fb50a978b5e53917d3fd474538fd8a56b6ff5130e50c123ecc2cfb4a074cd24393c6946c46b7aa3b41ae325654bef4adc142838191a81af098250921fb90100000000000000000000000000000000000000000000000000000000000000000000000000000000000000000000000000000000000000000000000000000000000000000000000000000000000000000000000000000000000000000000000000000000000000000000000000000000000000000000000000000000000000000000000000000000000000000000000000000000000000000000000000000000000000000000000000000000000000000000000000000000000000000000000000000000000000000000000000000000000000000000000000000000000000000000000000000000000000000000000000000000000000000000000000000000008302000001887fffffffffffffff82bf708203e880a00000000000000000000000000000000000000000000000000000000000000000880000000000000000f90121f9011e80018459f4666c94095e7baea6a6c7c4c2dfeb977efac326af552d87846bd9b58cb8b87ffffffffffffffffffffffffffffffffffffffffffffffffffffffffffffffffe7f000000000000000000000000000000000000000000000000000000000000c3507f000000000000000000000000ffffffffffffffffffffffffffffffffffffffff42147ffffffffffffffffffffffffffffffffffffffffffffffffffffffffffffffffe547f00000000000000000000000000000000000000000000000000000000000000006f6a72a37b5219f089416d4336a08e821ba08a478ab70ee113655be134fc72fea7d25223da6169e116d3a43a0a9eaefc99cda00cbff6fb6039c8359e0d56da102c6a6a910b9b8fe7007ff5b37c6da249fce0dcc0",
                "transactions" : [
                    {
                        "data" : "0x7ffffffffffffffffffffffffffffffffffffffffffffffffffffffffffffffffe7f000000000000000000000000000000000000000000000000000000000000c3507f000000000000000000000000ffffffffffffffffffffffffffffffffffffffff42147ffffffffffffffffffffffffffffffffffffffffffffffffffffffffffffffffe547f00000000000000000000000000000000000000000000000000000000000000006f6a72a37b5219f089416d4336a08e82",
                        "gasLimit" : "0x59f4666c",
                        "gasPrice" : "0x01",
                        "nonce" : "0x00",
                        "r" : "0x8a478ab70ee113655be134fc72fea7d25223da6169e116d3a43a0a9eaefc99cd",
                        "s" : "0x0cbff6fb6039c8359e0d56da102c6a6a910b9b8fe7007ff5b37c6da249fce0dc",
                        "to" : "0x095e7baea6a6c7c4c2dfeb977efac326af552d87",
                        "v" : "0x1b",
                        "value" : "0x6bd9b58c"
                    }
                ],
                "uncleHeaders" : [
                ]
            }
        ],
        "genesisBlockHeader" : {
            "bloom" : "0x00000000000000000000000000000000000000000000000000000000000000000000000000000000000000000000000000000000000000000000000000000000000000000000000000000000000000000000000000000000000000000000000000000000000000000000000000000000000000000000000000000000000000000000000000000000000000000000000000000000000000000000000000000000000000000000000000000000000000000000000000000000000000000000000000000000000000000000000000000000000000000000000000000000000000000000000000000000000000000000000000000000000000000000000000000000",
            "coinbase" : "0x945304eb96065b2a98b57a48a06ae28d285a71b5",
            "difficulty" : "0x020000",
            "extraData" : "0x42",
            "gasLimit" : "0x7fffffffffffffff",
            "gasUsed" : "0x00",
            "hash" : "0x7d660bd7f24d1a95ee5957dc5b04e6c8cc82ed3608bda55b3791db6b01c4bcdd",
            "mixHash" : "0x56e81f171bcc55a6ff8345e692c0f86e5b48e01b996cadc001622fb5e363b421",
            "nonce" : "0x0102030405060708",
            "number" : "0x00",
            "parentHash" : "0x0000000000000000000000000000000000000000000000000000000000000000",
            "receiptTrie" : "0x56e81f171bcc55a6ff8345e692c0f86e5b48e01b996cadc001622fb5e363b421",
            "stateRoot" : "0xd8864b7671bc2a1e620a2b682b64442297e441ebe8283360e2ed54b36dd704f0",
            "timestamp" : "0x03b6",
            "transactionsTrie" : "0x56e81f171bcc55a6ff8345e692c0f86e5b48e01b996cadc001622fb5e363b421",
            "uncleHash" : "0x1dcc4de8dec75d7aab85b567b6ccd41ad312451b948a7413f0a142fd40d49347"
        },
        "genesisRLP" : "0xf901fff901faa00000000000000000000000000000000000000000000000000000000000000000a01dcc4de8dec75d7aab85b567b6ccd41ad312451b948a7413f0a142fd40d4934794945304eb96065b2a98b57a48a06ae28d285a71b5a0d8864b7671bc2a1e620a2b682b64442297e441ebe8283360e2ed54b36dd704f0a056e81f171bcc55a6ff8345e692c0f86e5b48e01b996cadc001622fb5e363b421a056e81f171bcc55a6ff8345e692c0f86e5b48e01b996cadc001622fb5e363b421b90100000000000000000000000000000000000000000000000000000000000000000000000000000000000000000000000000000000000000000000000000000000000000000000000000000000000000000000000000000000000000000000000000000000000000000000000000000000000000000000000000000000000000000000000000000000000000000000000000000000000000000000000000000000000000000000000000000000000000000000000000000000000000000000000000000000000000000000000000000000000000000000000000000000000000000000000000000000000000000000000000000000000000000000000000000000008302000080887fffffffffffffff808203b642a056e81f171bcc55a6ff8345e692c0f86e5b48e01b996cadc001622fb5e363b421880102030405060708c0c0",
        "lastblockhash" : "0x9c2f998ef91a8a04728d5f7d00d4b0c95ca703dd8a71edbfdf62fe0bd106d1f2",
        "network" : "Byzantium",
        "postState" : {
            "0x095e7baea6a6c7c4c2dfeb977efac326af552d87" : {
                "balance" : "0x6bd9b58c",
                "code" : "0x7ffffffffffffffffffffffffffffffffffffffffffffffffffffffffffffffffe7f000000000000000000000000000000000000000000000000000000000000c3507f000000000000000000000000ffffffffffffffffffffffffffffffffffffffff42147ffffffffffffffffffffffffffffffffffffffffffffffffffffffffffffffffe547f00000000000000000000000000000000000000000000000000000000000000006f6a72a37b5219f089416d4336a08e825560005155",
                "nonce" : "0x00",
                "storage" : {
                    "0x00" : "0x6a72a37b5219f089416d4336a08e8255"
                }
            },
            "0x945304eb96065b2a98b57a48a06ae28d285a71b5" : {
                "balance" : "0x29a2241af62cbf9e",
                "code" : "0x6000355415600957005b60203560003555",
                "nonce" : "0x00",
                "storage" : {
                }
            },
            "0xa94f5374fce5edbc8e2a8697c15331677e6ebf0b" : {
                "balance" : "0x0de0b6b33b898b04",
                "code" : "0x",
                "nonce" : "0x01",
                "storage" : {
                }
            }
        },
        "pre" : {
            "0x095e7baea6a6c7c4c2dfeb977efac326af552d87" : {
                "balance" : "0x00",
                "code" : "0x7ffffffffffffffffffffffffffffffffffffffffffffffffffffffffffffffffe7f000000000000000000000000000000000000000000000000000000000000c3507f000000000000000000000000ffffffffffffffffffffffffffffffffffffffff42147ffffffffffffffffffffffffffffffffffffffffffffffffffffffffffffffffe547f00000000000000000000000000000000000000000000000000000000000000006f6a72a37b5219f089416d4336a08e825560005155",
                "nonce" : "0x00",
                "storage" : {
                }
            },
            "0x945304eb96065b2a98b57a48a06ae28d285a71b5" : {
                "balance" : "0x2e",
                "code" : "0x6000355415600957005b60203560003555",
                "nonce" : "0x00",
                "storage" : {
                }
            },
            "0xa94f5374fce5edbc8e2a8697c15331677e6ebf0b" : {
                "balance" : "0x0de0b6b3a7640000",
                "code" : "0x",
                "nonce" : "0x00",
                "storage" : {
                }
            }
        },
        "sealEngine" : "NoProof"
    },
    "randomStatetest552_d0g0v0_Constantinople" : {
        "_info" : {
            "comment" : "",
            "filledwith" : "testeth 1.7.0-alpha.1-20+commit.782a7283",
            "lllcversion" : "Version: 0.5.0-develop.2018.11.9+commit.9709dfe0.Linux.g++",
            "source" : "src/BlockchainTestsFiller/GeneralStateTests/stRandom2/randomStatetest552_d0g0v0Filler.json",
            "sourceHash" : "13c5f95563574a94bf63e26ce8f0d76190f17e3682139b376fbc0dc8a02f8a07"
        },
        "blocks" : [
            {
                "blockHeader" : {
                    "bloom" : "0x00000000000000000000000000000000000000000000000000000000000000000000000000000000000000000000000000000000000000000000000000000000000000000000000000000000000000000000000000000000000000000000000000000000000000000000000000000000000000000000000000000000000000000000000000000000000000000000000000000000000000000000000000000000000000000000000000000000000000000000000000000000000000000000000000000000000000000000000000000000000000000000000000000000000000000000000000000000000000000000000000000000000000000000000000000000",
                    "coinbase" : "0x945304eb96065b2a98b57a48a06ae28d285a71b5",
                    "difficulty" : "0x020000",
                    "extraData" : "0x",
                    "gasLimit" : "0x7fffffffffffffff",
                    "gasUsed" : "0xbf70",
                    "hash" : "0xd51b5992ea3712b4d4d6390d47635e22c38c8d0d234f93a0e0fb7cb7054a6d8a",
                    "mixHash" : "0x0000000000000000000000000000000000000000000000000000000000000000",
                    "nonce" : "0x0000000000000000",
                    "number" : "0x01",
                    "parentHash" : "0x7d660bd7f24d1a95ee5957dc5b04e6c8cc82ed3608bda55b3791db6b01c4bcdd",
                    "receiptTrie" : "0x74cd24393c6946c46b7aa3b41ae325654bef4adc142838191a81af098250921f",
                    "stateRoot" : "0x84bffead5bf2931a69a2959babe09961b76972bd390658af6e2fba249b29b88b",
                    "timestamp" : "0x03e8",
                    "transactionsTrie" : "0xc60d61a37fb50a978b5e53917d3fd474538fd8a56b6ff5130e50c123ecc2cfb4",
                    "uncleHash" : "0x1dcc4de8dec75d7aab85b567b6ccd41ad312451b948a7413f0a142fd40d49347"
                },
                "rlp" : "0xf90324f901fca07d660bd7f24d1a95ee5957dc5b04e6c8cc82ed3608bda55b3791db6b01c4bcdda01dcc4de8dec75d7aab85b567b6ccd41ad312451b948a7413f0a142fd40d4934794945304eb96065b2a98b57a48a06ae28d285a71b5a084bffead5bf2931a69a2959babe09961b76972bd390658af6e2fba249b29b88ba0c60d61a37fb50a978b5e53917d3fd474538fd8a56b6ff5130e50c123ecc2cfb4a074cd24393c6946c46b7aa3b41ae325654bef4adc142838191a81af098250921fb90100000000000000000000000000000000000000000000000000000000000000000000000000000000000000000000000000000000000000000000000000000000000000000000000000000000000000000000000000000000000000000000000000000000000000000000000000000000000000000000000000000000000000000000000000000000000000000000000000000000000000000000000000000000000000000000000000000000000000000000000000000000000000000000000000000000000000000000000000000000000000000000000000000000000000000000000000000000000000000000000000000000000000000000000000000000008302000001887fffffffffffffff82bf708203e880a00000000000000000000000000000000000000000000000000000000000000000880000000000000000f90121f9011e80018459f4666c94095e7baea6a6c7c4c2dfeb977efac326af552d87846bd9b58cb8b87ffffffffffffffffffffffffffffffffffffffffffffffffffffffffffffffffe7f000000000000000000000000000000000000000000000000000000000000c3507f000000000000000000000000ffffffffffffffffffffffffffffffffffffffff42147ffffffffffffffffffffffffffffffffffffffffffffffffffffffffffffffffe547f00000000000000000000000000000000000000000000000000000000000000006f6a72a37b5219f089416d4336a08e821ba08a478ab70ee113655be134fc72fea7d25223da6169e116d3a43a0a9eaefc99cda00cbff6fb6039c8359e0d56da102c6a6a910b9b8fe7007ff5b37c6da249fce0dcc0",
                "transactions" : [
                    {
                        "data" : "0x7ffffffffffffffffffffffffffffffffffffffffffffffffffffffffffffffffe7f000000000000000000000000000000000000000000000000000000000000c3507f000000000000000000000000ffffffffffffffffffffffffffffffffffffffff42147ffffffffffffffffffffffffffffffffffffffffffffffffffffffffffffffffe547f00000000000000000000000000000000000000000000000000000000000000006f6a72a37b5219f089416d4336a08e82",
                        "gasLimit" : "0x59f4666c",
                        "gasPrice" : "0x01",
                        "nonce" : "0x00",
                        "r" : "0x8a478ab70ee113655be134fc72fea7d25223da6169e116d3a43a0a9eaefc99cd",
                        "s" : "0x0cbff6fb6039c8359e0d56da102c6a6a910b9b8fe7007ff5b37c6da249fce0dc",
                        "to" : "0x095e7baea6a6c7c4c2dfeb977efac326af552d87",
                        "v" : "0x1b",
                        "value" : "0x6bd9b58c"
                    }
                ],
                "uncleHeaders" : [
                ]
            }
        ],
        "genesisBlockHeader" : {
            "bloom" : "0x00000000000000000000000000000000000000000000000000000000000000000000000000000000000000000000000000000000000000000000000000000000000000000000000000000000000000000000000000000000000000000000000000000000000000000000000000000000000000000000000000000000000000000000000000000000000000000000000000000000000000000000000000000000000000000000000000000000000000000000000000000000000000000000000000000000000000000000000000000000000000000000000000000000000000000000000000000000000000000000000000000000000000000000000000000000",
            "coinbase" : "0x945304eb96065b2a98b57a48a06ae28d285a71b5",
            "difficulty" : "0x020000",
            "extraData" : "0x42",
            "gasLimit" : "0x7fffffffffffffff",
            "gasUsed" : "0x00",
            "hash" : "0x7d660bd7f24d1a95ee5957dc5b04e6c8cc82ed3608bda55b3791db6b01c4bcdd",
            "mixHash" : "0x56e81f171bcc55a6ff8345e692c0f86e5b48e01b996cadc001622fb5e363b421",
            "nonce" : "0x0102030405060708",
            "number" : "0x00",
            "parentHash" : "0x0000000000000000000000000000000000000000000000000000000000000000",
            "receiptTrie" : "0x56e81f171bcc55a6ff8345e692c0f86e5b48e01b996cadc001622fb5e363b421",
            "stateRoot" : "0xd8864b7671bc2a1e620a2b682b64442297e441ebe8283360e2ed54b36dd704f0",
            "timestamp" : "0x03b6",
            "transactionsTrie" : "0x56e81f171bcc55a6ff8345e692c0f86e5b48e01b996cadc001622fb5e363b421",
            "uncleHash" : "0x1dcc4de8dec75d7aab85b567b6ccd41ad312451b948a7413f0a142fd40d49347"
        },
        "genesisRLP" : "0xf901fff901faa00000000000000000000000000000000000000000000000000000000000000000a01dcc4de8dec75d7aab85b567b6ccd41ad312451b948a7413f0a142fd40d4934794945304eb96065b2a98b57a48a06ae28d285a71b5a0d8864b7671bc2a1e620a2b682b64442297e441ebe8283360e2ed54b36dd704f0a056e81f171bcc55a6ff8345e692c0f86e5b48e01b996cadc001622fb5e363b421a056e81f171bcc55a6ff8345e692c0f86e5b48e01b996cadc001622fb5e363b421b90100000000000000000000000000000000000000000000000000000000000000000000000000000000000000000000000000000000000000000000000000000000000000000000000000000000000000000000000000000000000000000000000000000000000000000000000000000000000000000000000000000000000000000000000000000000000000000000000000000000000000000000000000000000000000000000000000000000000000000000000000000000000000000000000000000000000000000000000000000000000000000000000000000000000000000000000000000000000000000000000000000000000000000000000000000000008302000080887fffffffffffffff808203b642a056e81f171bcc55a6ff8345e692c0f86e5b48e01b996cadc001622fb5e363b421880102030405060708c0c0",
        "lastblockhash" : "0xd51b5992ea3712b4d4d6390d47635e22c38c8d0d234f93a0e0fb7cb7054a6d8a",
        "network" : "Constantinople",
        "postState" : {
            "0x095e7baea6a6c7c4c2dfeb977efac326af552d87" : {
                "balance" : "0x6bd9b58c",
                "code" : "0x7ffffffffffffffffffffffffffffffffffffffffffffffffffffffffffffffffe7f000000000000000000000000000000000000000000000000000000000000c3507f000000000000000000000000ffffffffffffffffffffffffffffffffffffffff42147ffffffffffffffffffffffffffffffffffffffffffffffffffffffffffffffffe547f00000000000000000000000000000000000000000000000000000000000000006f6a72a37b5219f089416d4336a08e825560005155",
                "nonce" : "0x00",
                "storage" : {
                    "0x00" : "0x6a72a37b5219f089416d4336a08e8255"
                }
            },
            "0x945304eb96065b2a98b57a48a06ae28d285a71b5" : {
                "balance" : "0x1bc16d674ec8bf9e",
                "code" : "0x6000355415600957005b60203560003555",
                "nonce" : "0x00",
                "storage" : {
                }
            },
            "0xa94f5374fce5edbc8e2a8697c15331677e6ebf0b" : {
                "balance" : "0x0de0b6b33b898b04",
                "code" : "0x",
                "nonce" : "0x01",
                "storage" : {
                }
            }
        },
        "pre" : {
            "0x095e7baea6a6c7c4c2dfeb977efac326af552d87" : {
                "balance" : "0x00",
                "code" : "0x7ffffffffffffffffffffffffffffffffffffffffffffffffffffffffffffffffe7f000000000000000000000000000000000000000000000000000000000000c3507f000000000000000000000000ffffffffffffffffffffffffffffffffffffffff42147ffffffffffffffffffffffffffffffffffffffffffffffffffffffffffffffffe547f00000000000000000000000000000000000000000000000000000000000000006f6a72a37b5219f089416d4336a08e825560005155",
                "nonce" : "0x00",
                "storage" : {
                }
            },
            "0x945304eb96065b2a98b57a48a06ae28d285a71b5" : {
                "balance" : "0x2e",
                "code" : "0x6000355415600957005b60203560003555",
                "nonce" : "0x00",
                "storage" : {
                }
            },
            "0xa94f5374fce5edbc8e2a8697c15331677e6ebf0b" : {
                "balance" : "0x0de0b6b3a7640000",
                "code" : "0x",
                "nonce" : "0x00",
                "storage" : {
                }
            }
        },
        "sealEngine" : "NoProof"
    },
    "randomStatetest552_d0g0v0_ConstantinopleFix" : {
        "_info" : {
            "comment" : "",
            "filledwith" : "testeth 1.7.0-alpha.1-20+commit.782a7283",
            "lllcversion" : "Version: 0.5.0-develop.2018.11.9+commit.9709dfe0.Linux.g++",
            "source" : "src/BlockchainTestsFiller/GeneralStateTests/stRandom2/randomStatetest552_d0g0v0Filler.json",
            "sourceHash" : "13c5f95563574a94bf63e26ce8f0d76190f17e3682139b376fbc0dc8a02f8a07"
        },
        "blocks" : [
            {
                "blockHeader" : {
                    "bloom" : "0x00000000000000000000000000000000000000000000000000000000000000000000000000000000000000000000000000000000000000000000000000000000000000000000000000000000000000000000000000000000000000000000000000000000000000000000000000000000000000000000000000000000000000000000000000000000000000000000000000000000000000000000000000000000000000000000000000000000000000000000000000000000000000000000000000000000000000000000000000000000000000000000000000000000000000000000000000000000000000000000000000000000000000000000000000000000",
                    "coinbase" : "0x945304eb96065b2a98b57a48a06ae28d285a71b5",
                    "difficulty" : "0x020000",
                    "extraData" : "0x",
                    "gasLimit" : "0x7fffffffffffffff",
                    "gasUsed" : "0xbf70",
                    "hash" : "0xd51b5992ea3712b4d4d6390d47635e22c38c8d0d234f93a0e0fb7cb7054a6d8a",
                    "mixHash" : "0x0000000000000000000000000000000000000000000000000000000000000000",
                    "nonce" : "0x0000000000000000",
                    "number" : "0x01",
                    "parentHash" : "0x7d660bd7f24d1a95ee5957dc5b04e6c8cc82ed3608bda55b3791db6b01c4bcdd",
                    "receiptTrie" : "0x74cd24393c6946c46b7aa3b41ae325654bef4adc142838191a81af098250921f",
                    "stateRoot" : "0x84bffead5bf2931a69a2959babe09961b76972bd390658af6e2fba249b29b88b",
                    "timestamp" : "0x03e8",
                    "transactionsTrie" : "0xc60d61a37fb50a978b5e53917d3fd474538fd8a56b6ff5130e50c123ecc2cfb4",
                    "uncleHash" : "0x1dcc4de8dec75d7aab85b567b6ccd41ad312451b948a7413f0a142fd40d49347"
                },
                "rlp" : "0xf90324f901fca07d660bd7f24d1a95ee5957dc5b04e6c8cc82ed3608bda55b3791db6b01c4bcdda01dcc4de8dec75d7aab85b567b6ccd41ad312451b948a7413f0a142fd40d4934794945304eb96065b2a98b57a48a06ae28d285a71b5a084bffead5bf2931a69a2959babe09961b76972bd390658af6e2fba249b29b88ba0c60d61a37fb50a978b5e53917d3fd474538fd8a56b6ff5130e50c123ecc2cfb4a074cd24393c6946c46b7aa3b41ae325654bef4adc142838191a81af098250921fb90100000000000000000000000000000000000000000000000000000000000000000000000000000000000000000000000000000000000000000000000000000000000000000000000000000000000000000000000000000000000000000000000000000000000000000000000000000000000000000000000000000000000000000000000000000000000000000000000000000000000000000000000000000000000000000000000000000000000000000000000000000000000000000000000000000000000000000000000000000000000000000000000000000000000000000000000000000000000000000000000000000000000000000000000000000000008302000001887fffffffffffffff82bf708203e880a00000000000000000000000000000000000000000000000000000000000000000880000000000000000f90121f9011e80018459f4666c94095e7baea6a6c7c4c2dfeb977efac326af552d87846bd9b58cb8b87ffffffffffffffffffffffffffffffffffffffffffffffffffffffffffffffffe7f000000000000000000000000000000000000000000000000000000000000c3507f000000000000000000000000ffffffffffffffffffffffffffffffffffffffff42147ffffffffffffffffffffffffffffffffffffffffffffffffffffffffffffffffe547f00000000000000000000000000000000000000000000000000000000000000006f6a72a37b5219f089416d4336a08e821ba08a478ab70ee113655be134fc72fea7d25223da6169e116d3a43a0a9eaefc99cda00cbff6fb6039c8359e0d56da102c6a6a910b9b8fe7007ff5b37c6da249fce0dcc0",
                "transactions" : [
                    {
                        "data" : "0x7ffffffffffffffffffffffffffffffffffffffffffffffffffffffffffffffffe7f000000000000000000000000000000000000000000000000000000000000c3507f000000000000000000000000ffffffffffffffffffffffffffffffffffffffff42147ffffffffffffffffffffffffffffffffffffffffffffffffffffffffffffffffe547f00000000000000000000000000000000000000000000000000000000000000006f6a72a37b5219f089416d4336a08e82",
                        "gasLimit" : "0x59f4666c",
                        "gasPrice" : "0x01",
                        "nonce" : "0x00",
                        "r" : "0x8a478ab70ee113655be134fc72fea7d25223da6169e116d3a43a0a9eaefc99cd",
                        "s" : "0x0cbff6fb6039c8359e0d56da102c6a6a910b9b8fe7007ff5b37c6da249fce0dc",
                        "to" : "0x095e7baea6a6c7c4c2dfeb977efac326af552d87",
                        "v" : "0x1b",
                        "value" : "0x6bd9b58c"
                    }
                ],
                "uncleHeaders" : [
                ]
            }
        ],
        "genesisBlockHeader" : {
            "bloom" : "0x00000000000000000000000000000000000000000000000000000000000000000000000000000000000000000000000000000000000000000000000000000000000000000000000000000000000000000000000000000000000000000000000000000000000000000000000000000000000000000000000000000000000000000000000000000000000000000000000000000000000000000000000000000000000000000000000000000000000000000000000000000000000000000000000000000000000000000000000000000000000000000000000000000000000000000000000000000000000000000000000000000000000000000000000000000000",
            "coinbase" : "0x945304eb96065b2a98b57a48a06ae28d285a71b5",
            "difficulty" : "0x020000",
            "extraData" : "0x42",
            "gasLimit" : "0x7fffffffffffffff",
            "gasUsed" : "0x00",
            "hash" : "0x7d660bd7f24d1a95ee5957dc5b04e6c8cc82ed3608bda55b3791db6b01c4bcdd",
            "mixHash" : "0x56e81f171bcc55a6ff8345e692c0f86e5b48e01b996cadc001622fb5e363b421",
            "nonce" : "0x0102030405060708",
            "number" : "0x00",
            "parentHash" : "0x0000000000000000000000000000000000000000000000000000000000000000",
            "receiptTrie" : "0x56e81f171bcc55a6ff8345e692c0f86e5b48e01b996cadc001622fb5e363b421",
            "stateRoot" : "0xd8864b7671bc2a1e620a2b682b64442297e441ebe8283360e2ed54b36dd704f0",
            "timestamp" : "0x03b6",
            "transactionsTrie" : "0x56e81f171bcc55a6ff8345e692c0f86e5b48e01b996cadc001622fb5e363b421",
            "uncleHash" : "0x1dcc4de8dec75d7aab85b567b6ccd41ad312451b948a7413f0a142fd40d49347"
        },
        "genesisRLP" : "0xf901fff901faa00000000000000000000000000000000000000000000000000000000000000000a01dcc4de8dec75d7aab85b567b6ccd41ad312451b948a7413f0a142fd40d4934794945304eb96065b2a98b57a48a06ae28d285a71b5a0d8864b7671bc2a1e620a2b682b64442297e441ebe8283360e2ed54b36dd704f0a056e81f171bcc55a6ff8345e692c0f86e5b48e01b996cadc001622fb5e363b421a056e81f171bcc55a6ff8345e692c0f86e5b48e01b996cadc001622fb5e363b421b90100000000000000000000000000000000000000000000000000000000000000000000000000000000000000000000000000000000000000000000000000000000000000000000000000000000000000000000000000000000000000000000000000000000000000000000000000000000000000000000000000000000000000000000000000000000000000000000000000000000000000000000000000000000000000000000000000000000000000000000000000000000000000000000000000000000000000000000000000000000000000000000000000000000000000000000000000000000000000000000000000000000000000000000000000000000008302000080887fffffffffffffff808203b642a056e81f171bcc55a6ff8345e692c0f86e5b48e01b996cadc001622fb5e363b421880102030405060708c0c0",
        "lastblockhash" : "0xd51b5992ea3712b4d4d6390d47635e22c38c8d0d234f93a0e0fb7cb7054a6d8a",
        "network" : "ConstantinopleFix",
        "postState" : {
            "0x095e7baea6a6c7c4c2dfeb977efac326af552d87" : {
                "balance" : "0x6bd9b58c",
                "code" : "0x7ffffffffffffffffffffffffffffffffffffffffffffffffffffffffffffffffe7f000000000000000000000000000000000000000000000000000000000000c3507f000000000000000000000000ffffffffffffffffffffffffffffffffffffffff42147ffffffffffffffffffffffffffffffffffffffffffffffffffffffffffffffffe547f00000000000000000000000000000000000000000000000000000000000000006f6a72a37b5219f089416d4336a08e825560005155",
                "nonce" : "0x00",
                "storage" : {
                    "0x00" : "0x6a72a37b5219f089416d4336a08e8255"
                }
            },
            "0x945304eb96065b2a98b57a48a06ae28d285a71b5" : {
                "balance" : "0x1bc16d674ec8bf9e",
                "code" : "0x6000355415600957005b60203560003555",
                "nonce" : "0x00",
                "storage" : {
                }
            },
            "0xa94f5374fce5edbc8e2a8697c15331677e6ebf0b" : {
                "balance" : "0x0de0b6b33b898b04",
                "code" : "0x",
                "nonce" : "0x01",
                "storage" : {
                }
            }
        },
        "pre" : {
            "0x095e7baea6a6c7c4c2dfeb977efac326af552d87" : {
                "balance" : "0x00",
                "code" : "0x7ffffffffffffffffffffffffffffffffffffffffffffffffffffffffffffffffe7f000000000000000000000000000000000000000000000000000000000000c3507f000000000000000000000000ffffffffffffffffffffffffffffffffffffffff42147ffffffffffffffffffffffffffffffffffffffffffffffffffffffffffffffffe547f00000000000000000000000000000000000000000000000000000000000000006f6a72a37b5219f089416d4336a08e825560005155",
                "nonce" : "0x00",
                "storage" : {
                }
            },
            "0x945304eb96065b2a98b57a48a06ae28d285a71b5" : {
                "balance" : "0x2e",
                "code" : "0x6000355415600957005b60203560003555",
                "nonce" : "0x00",
                "storage" : {
                }
            },
            "0xa94f5374fce5edbc8e2a8697c15331677e6ebf0b" : {
                "balance" : "0x0de0b6b3a7640000",
                "code" : "0x",
                "nonce" : "0x00",
                "storage" : {
                }
            }
        },
        "sealEngine" : "NoProof"
    },
    "randomStatetest552_d0g0v0_Homestead" : {
        "_info" : {
            "comment" : "",
            "filledwith" : "testeth 1.7.0-alpha.1-20+commit.782a7283",
            "lllcversion" : "Version: 0.5.0-develop.2018.11.9+commit.9709dfe0.Linux.g++",
            "source" : "src/BlockchainTestsFiller/GeneralStateTests/stRandom2/randomStatetest552_d0g0v0Filler.json",
            "sourceHash" : "13c5f95563574a94bf63e26ce8f0d76190f17e3682139b376fbc0dc8a02f8a07"
        },
        "blocks" : [
            {
                "blockHeader" : {
                    "bloom" : "0x00000000000000000000000000000000000000000000000000000000000000000000000000000000000000000000000000000000000000000000000000000000000000000000000000000000000000000000000000000000000000000000000000000000000000000000000000000000000000000000000000000000000000000000000000000000000000000000000000000000000000000000000000000000000000000000000000000000000000000000000000000000000000000000000000000000000000000000000000000000000000000000000000000000000000000000000000000000000000000000000000000000000000000000000000000000",
                    "coinbase" : "0x945304eb96065b2a98b57a48a06ae28d285a71b5",
                    "difficulty" : "0x020000",
                    "extraData" : "0x",
                    "gasLimit" : "0x7fffffffffffffff",
                    "gasUsed" : "0xbeda",
                    "hash" : "0x89de7f4593a09de13435c22bbf905dac9bae73a27151077657c0d9f29eed0eaa",
                    "mixHash" : "0x0000000000000000000000000000000000000000000000000000000000000000",
                    "nonce" : "0x0000000000000000",
                    "number" : "0x01",
                    "parentHash" : "0x7d660bd7f24d1a95ee5957dc5b04e6c8cc82ed3608bda55b3791db6b01c4bcdd",
                    "receiptTrie" : "0x55a3e840691015d228bce04e2a4e8dc34c997bb4b283b1493d732030ee1ae333",
                    "stateRoot" : "0xa3993bf7922c2564b55595f79bc818e58e96f766fae0fcafdf54ef55502c9a7b",
                    "timestamp" : "0x03e8",
                    "transactionsTrie" : "0xc60d61a37fb50a978b5e53917d3fd474538fd8a56b6ff5130e50c123ecc2cfb4",
                    "uncleHash" : "0x1dcc4de8dec75d7aab85b567b6ccd41ad312451b948a7413f0a142fd40d49347"
                },
                "rlp" : "0xf90324f901fca07d660bd7f24d1a95ee5957dc5b04e6c8cc82ed3608bda55b3791db6b01c4bcdda01dcc4de8dec75d7aab85b567b6ccd41ad312451b948a7413f0a142fd40d4934794945304eb96065b2a98b57a48a06ae28d285a71b5a0a3993bf7922c2564b55595f79bc818e58e96f766fae0fcafdf54ef55502c9a7ba0c60d61a37fb50a978b5e53917d3fd474538fd8a56b6ff5130e50c123ecc2cfb4a055a3e840691015d228bce04e2a4e8dc34c997bb4b283b1493d732030ee1ae333b90100000000000000000000000000000000000000000000000000000000000000000000000000000000000000000000000000000000000000000000000000000000000000000000000000000000000000000000000000000000000000000000000000000000000000000000000000000000000000000000000000000000000000000000000000000000000000000000000000000000000000000000000000000000000000000000000000000000000000000000000000000000000000000000000000000000000000000000000000000000000000000000000000000000000000000000000000000000000000000000000000000000000000000000000000000000008302000001887fffffffffffffff82beda8203e880a00000000000000000000000000000000000000000000000000000000000000000880000000000000000f90121f9011e80018459f4666c94095e7baea6a6c7c4c2dfeb977efac326af552d87846bd9b58cb8b87ffffffffffffffffffffffffffffffffffffffffffffffffffffffffffffffffe7f000000000000000000000000000000000000000000000000000000000000c3507f000000000000000000000000ffffffffffffffffffffffffffffffffffffffff42147ffffffffffffffffffffffffffffffffffffffffffffffffffffffffffffffffe547f00000000000000000000000000000000000000000000000000000000000000006f6a72a37b5219f089416d4336a08e821ba08a478ab70ee113655be134fc72fea7d25223da6169e116d3a43a0a9eaefc99cda00cbff6fb6039c8359e0d56da102c6a6a910b9b8fe7007ff5b37c6da249fce0dcc0",
                "transactions" : [
                    {
                        "data" : "0x7ffffffffffffffffffffffffffffffffffffffffffffffffffffffffffffffffe7f000000000000000000000000000000000000000000000000000000000000c3507f000000000000000000000000ffffffffffffffffffffffffffffffffffffffff42147ffffffffffffffffffffffffffffffffffffffffffffffffffffffffffffffffe547f00000000000000000000000000000000000000000000000000000000000000006f6a72a37b5219f089416d4336a08e82",
                        "gasLimit" : "0x59f4666c",
                        "gasPrice" : "0x01",
                        "nonce" : "0x00",
                        "r" : "0x8a478ab70ee113655be134fc72fea7d25223da6169e116d3a43a0a9eaefc99cd",
                        "s" : "0x0cbff6fb6039c8359e0d56da102c6a6a910b9b8fe7007ff5b37c6da249fce0dc",
                        "to" : "0x095e7baea6a6c7c4c2dfeb977efac326af552d87",
                        "v" : "0x1b",
                        "value" : "0x6bd9b58c"
                    }
                ],
                "uncleHeaders" : [
                ]
            }
        ],
        "genesisBlockHeader" : {
            "bloom" : "0x00000000000000000000000000000000000000000000000000000000000000000000000000000000000000000000000000000000000000000000000000000000000000000000000000000000000000000000000000000000000000000000000000000000000000000000000000000000000000000000000000000000000000000000000000000000000000000000000000000000000000000000000000000000000000000000000000000000000000000000000000000000000000000000000000000000000000000000000000000000000000000000000000000000000000000000000000000000000000000000000000000000000000000000000000000000",
            "coinbase" : "0x945304eb96065b2a98b57a48a06ae28d285a71b5",
            "difficulty" : "0x020000",
            "extraData" : "0x42",
            "gasLimit" : "0x7fffffffffffffff",
            "gasUsed" : "0x00",
            "hash" : "0x7d660bd7f24d1a95ee5957dc5b04e6c8cc82ed3608bda55b3791db6b01c4bcdd",
            "mixHash" : "0x56e81f171bcc55a6ff8345e692c0f86e5b48e01b996cadc001622fb5e363b421",
            "nonce" : "0x0102030405060708",
            "number" : "0x00",
            "parentHash" : "0x0000000000000000000000000000000000000000000000000000000000000000",
            "receiptTrie" : "0x56e81f171bcc55a6ff8345e692c0f86e5b48e01b996cadc001622fb5e363b421",
            "stateRoot" : "0xd8864b7671bc2a1e620a2b682b64442297e441ebe8283360e2ed54b36dd704f0",
            "timestamp" : "0x03b6",
            "transactionsTrie" : "0x56e81f171bcc55a6ff8345e692c0f86e5b48e01b996cadc001622fb5e363b421",
            "uncleHash" : "0x1dcc4de8dec75d7aab85b567b6ccd41ad312451b948a7413f0a142fd40d49347"
        },
        "genesisRLP" : "0xf901fff901faa00000000000000000000000000000000000000000000000000000000000000000a01dcc4de8dec75d7aab85b567b6ccd41ad312451b948a7413f0a142fd40d4934794945304eb96065b2a98b57a48a06ae28d285a71b5a0d8864b7671bc2a1e620a2b682b64442297e441ebe8283360e2ed54b36dd704f0a056e81f171bcc55a6ff8345e692c0f86e5b48e01b996cadc001622fb5e363b421a056e81f171bcc55a6ff8345e692c0f86e5b48e01b996cadc001622fb5e363b421b90100000000000000000000000000000000000000000000000000000000000000000000000000000000000000000000000000000000000000000000000000000000000000000000000000000000000000000000000000000000000000000000000000000000000000000000000000000000000000000000000000000000000000000000000000000000000000000000000000000000000000000000000000000000000000000000000000000000000000000000000000000000000000000000000000000000000000000000000000000000000000000000000000000000000000000000000000000000000000000000000000000000000000000000000000000000008302000080887fffffffffffffff808203b642a056e81f171bcc55a6ff8345e692c0f86e5b48e01b996cadc001622fb5e363b421880102030405060708c0c0",
        "lastblockhash" : "0x89de7f4593a09de13435c22bbf905dac9bae73a27151077657c0d9f29eed0eaa",
        "network" : "Homestead",
        "postState" : {
            "0x095e7baea6a6c7c4c2dfeb977efac326af552d87" : {
                "balance" : "0x6bd9b58c",
                "code" : "0x7ffffffffffffffffffffffffffffffffffffffffffffffffffffffffffffffffe7f000000000000000000000000000000000000000000000000000000000000c3507f000000000000000000000000ffffffffffffffffffffffffffffffffffffffff42147ffffffffffffffffffffffffffffffffffffffffffffffffffffffffffffffffe547f00000000000000000000000000000000000000000000000000000000000000006f6a72a37b5219f089416d4336a08e825560005155",
                "nonce" : "0x00",
                "storage" : {
                    "0x00" : "0x6a72a37b5219f089416d4336a08e8255"
                }
            },
            "0x945304eb96065b2a98b57a48a06ae28d285a71b5" : {
                "balance" : "0x4563918244f4bf08",
                "code" : "0x6000355415600957005b60203560003555",
                "nonce" : "0x00",
                "storage" : {
                }
            },
            "0xa94f5374fce5edbc8e2a8697c15331677e6ebf0b" : {
                "balance" : "0x0de0b6b33b898b9a",
                "code" : "0x",
                "nonce" : "0x01",
                "storage" : {
                }
            }
        },
        "pre" : {
            "0x095e7baea6a6c7c4c2dfeb977efac326af552d87" : {
                "balance" : "0x00",
                "code" : "0x7ffffffffffffffffffffffffffffffffffffffffffffffffffffffffffffffffe7f000000000000000000000000000000000000000000000000000000000000c3507f000000000000000000000000ffffffffffffffffffffffffffffffffffffffff42147ffffffffffffffffffffffffffffffffffffffffffffffffffffffffffffffffe547f00000000000000000000000000000000000000000000000000000000000000006f6a72a37b5219f089416d4336a08e825560005155",
                "nonce" : "0x00",
                "storage" : {
                }
            },
            "0x945304eb96065b2a98b57a48a06ae28d285a71b5" : {
                "balance" : "0x2e",
                "code" : "0x6000355415600957005b60203560003555",
                "nonce" : "0x00",
                "storage" : {
                }
            },
            "0xa94f5374fce5edbc8e2a8697c15331677e6ebf0b" : {
                "balance" : "0x0de0b6b3a7640000",
                "code" : "0x",
                "nonce" : "0x00",
                "storage" : {
                }
            }
        },
        "sealEngine" : "NoProof"
    }
}