{
    "randomStatetest587_d0g0v0_Byzantium" : {
        "_info" : {
            "comment" : "",
            "filledwith" : "testeth 1.7.0-alpha.1-20+commit.782a7283",
            "lllcversion" : "Version: 0.5.0-develop.2018.11.9+commit.9709dfe0.Linux.g++",
            "source" : "src/BlockchainTestsFiller/GeneralStateTests/stRandom2/randomStatetest587_d0g0v0Filler.json",
            "sourceHash" : "ad196dc513ea79ba6e2d60beab35ab7b58597c463c6b77fcb475ece1abb3f6b1"
        },
        "blocks" : [
            {
                "blockHeader" : {
                    "bloom" : "0x00000000000000000000000000000000000000000000000000000000000000000000000000000000000000000000000000000000000000000000000000000000000000000000000000000000000000000000000000000000000000000000000000000000000000000000000000000000000000000000000000000000000000000000000000000000000000000000000000000000000000000000000000000000000000000000000000000000000000000000000000000000000000000000000000000000000000000000000000000000000000000000000000000000000000000000000000000000000000000000000000000000000000000000000000000000",
                    "coinbase" : "0x945304eb96065b2a98b57a48a06ae28d285a71b5",
                    "difficulty" : "0x020000",
                    "extraData" : "0x",
                    "gasLimit" : "0x7fffffffffffffff",
                    "gasUsed" : "0xbc6b",
                    "hash" : "0xe654732ac510a374a15ac5f7b954729ca59e676fb07fd7da3303acbecdd1cca2",
                    "mixHash" : "0x0000000000000000000000000000000000000000000000000000000000000000",
                    "nonce" : "0x0000000000000000",
                    "number" : "0x01",
                    "parentHash" : "0x30b8dec0c8ea938461769a868aac836b346beb7afc478627fecea5d4b94527e3",
                    "receiptTrie" : "0x2393227be452e7729b7c47799de945ed5724d33653af5bb48e8ca5712ac10338",
                    "stateRoot" : "0xfe9b915e9b01b75d9101ee8b95f8e50813a38ea54a4e8e6d6d2e209bb4809d08",
                    "timestamp" : "0x03e8",
                    "transactionsTrie" : "0x5db9548533a27a2d292f833de924f8199484e34c3ae86579a030ebae39727708",
                    "uncleHash" : "0x1dcc4de8dec75d7aab85b567b6ccd41ad312451b948a7413f0a142fd40d49347"
                },
                "rlp" : "0xf90344f901fca030b8dec0c8ea938461769a868aac836b346beb7afc478627fecea5d4b94527e3a01dcc4de8dec75d7aab85b567b6ccd41ad312451b948a7413f0a142fd40d4934794945304eb96065b2a98b57a48a06ae28d285a71b5a0fe9b915e9b01b75d9101ee8b95f8e50813a38ea54a4e8e6d6d2e209bb4809d08a05db9548533a27a2d292f833de924f8199484e34c3ae86579a030ebae39727708a02393227be452e7729b7c47799de945ed5724d33653af5bb48e8ca5712ac10338b90100000000000000000000000000000000000000000000000000000000000000000000000000000000000000000000000000000000000000000000000000000000000000000000000000000000000000000000000000000000000000000000000000000000000000000000000000000000000000000000000000000000000000000000000000000000000000000000000000000000000000000000000000000000000000000000000000000000000000000000000000000000000000000000000000000000000000000000000000000000000000000000000000000000000000000000000000000000000000000000000000000000000000000000000000000000008302000001887fffffffffffffff82bc6b8203e880a00000000000000000000000000000000000000000000000000000000000000000880000000000000000f90141f9013e80018479afcd8f94095e7baea6a6c7c4c2dfeb977efac326af552d878411604410b8d87f000000000000000000000000945304eb96065b2a98b57a48a06ae28d285a71b57ffffffffffffffffffffffffffffffffffffffffffffffffffffffffffffffffe7f00000000000000000000000000000000000000000000000000000000000000007f000000000000000000000000000000000000000000000000000000000000c350117f0000000000000000000000000000000000000000000000000000000000000001457f000000000000000000000000945304eb96065b2a98b57a48a06ae28d285a71b56f8b7152a3958a923c1665b27557089a1ca0be4e336636a8362bbe451ccb2ec50d3a5e189a129643bef43ebc9b8754d39e69a0415382f0bb381e1c2a799ba2c597539faa0dca994247fa3424aa60193667bc25c0",
                "transactions" : [
                    {
                        "data" : "0x7f000000000000000000000000945304eb96065b2a98b57a48a06ae28d285a71b57ffffffffffffffffffffffffffffffffffffffffffffffffffffffffffffffffe7f00000000000000000000000000000000000000000000000000000000000000007f000000000000000000000000000000000000000000000000000000000000c350117f0000000000000000000000000000000000000000000000000000000000000001457f000000000000000000000000945304eb96065b2a98b57a48a06ae28d285a71b56f8b7152a3958a923c1665b27557089a",
                        "gasLimit" : "0x79afcd8f",
                        "gasPrice" : "0x01",
                        "nonce" : "0x00",
                        "r" : "0xbe4e336636a8362bbe451ccb2ec50d3a5e189a129643bef43ebc9b8754d39e69",
                        "s" : "0x415382f0bb381e1c2a799ba2c597539faa0dca994247fa3424aa60193667bc25",
                        "to" : "0x095e7baea6a6c7c4c2dfeb977efac326af552d87",
                        "v" : "0x1c",
                        "value" : "0x11604410"
                    }
                ],
                "uncleHeaders" : [
                ]
            }
        ],
        "genesisBlockHeader" : {
            "bloom" : "0x00000000000000000000000000000000000000000000000000000000000000000000000000000000000000000000000000000000000000000000000000000000000000000000000000000000000000000000000000000000000000000000000000000000000000000000000000000000000000000000000000000000000000000000000000000000000000000000000000000000000000000000000000000000000000000000000000000000000000000000000000000000000000000000000000000000000000000000000000000000000000000000000000000000000000000000000000000000000000000000000000000000000000000000000000000000",
            "coinbase" : "0x945304eb96065b2a98b57a48a06ae28d285a71b5",
            "difficulty" : "0x020000",
            "extraData" : "0x42",
            "gasLimit" : "0x7fffffffffffffff",
            "gasUsed" : "0x00",
            "hash" : "0x30b8dec0c8ea938461769a868aac836b346beb7afc478627fecea5d4b94527e3",
            "mixHash" : "0x56e81f171bcc55a6ff8345e692c0f86e5b48e01b996cadc001622fb5e363b421",
            "nonce" : "0x0102030405060708",
            "number" : "0x00",
            "parentHash" : "0x0000000000000000000000000000000000000000000000000000000000000000",
            "receiptTrie" : "0x56e81f171bcc55a6ff8345e692c0f86e5b48e01b996cadc001622fb5e363b421",
            "stateRoot" : "0xe561b33cb88edc81bbf0015984112c17db52e56f8cd23aa0c7ce26f574149517",
            "timestamp" : "0x03b6",
            "transactionsTrie" : "0x56e81f171bcc55a6ff8345e692c0f86e5b48e01b996cadc001622fb5e363b421",
            "uncleHash" : "0x1dcc4de8dec75d7aab85b567b6ccd41ad312451b948a7413f0a142fd40d49347"
        },
        "genesisRLP" : "0xf901fff901faa00000000000000000000000000000000000000000000000000000000000000000a01dcc4de8dec75d7aab85b567b6ccd41ad312451b948a7413f0a142fd40d4934794945304eb96065b2a98b57a48a06ae28d285a71b5a0e561b33cb88edc81bbf0015984112c17db52e56f8cd23aa0c7ce26f574149517a056e81f171bcc55a6ff8345e692c0f86e5b48e01b996cadc001622fb5e363b421a056e81f171bcc55a6ff8345e692c0f86e5b48e01b996cadc001622fb5e363b421b90100000000000000000000000000000000000000000000000000000000000000000000000000000000000000000000000000000000000000000000000000000000000000000000000000000000000000000000000000000000000000000000000000000000000000000000000000000000000000000000000000000000000000000000000000000000000000000000000000000000000000000000000000000000000000000000000000000000000000000000000000000000000000000000000000000000000000000000000000000000000000000000000000000000000000000000000000000000000000000000000000000000000000000000000000000000008302000080887fffffffffffffff808203b642a056e81f171bcc55a6ff8345e692c0f86e5b48e01b996cadc001622fb5e363b421880102030405060708c0c0",
        "lastblockhash" : "0xe654732ac510a374a15ac5f7b954729ca59e676fb07fd7da3303acbecdd1cca2",
        "network" : "Byzantium",
        "postState" : {
            "0x095e7baea6a6c7c4c2dfeb977efac326af552d87" : {
                "balance" : "0x11604410",
                "code" : "0x7f000000000000000000000000945304eb96065b2a98b57a48a06ae28d285a71b57ffffffffffffffffffffffffffffffffffffffffffffffffffffffffffffffffe7f00000000000000000000000000000000000000000000000000000000000000007f000000000000000000000000000000000000000000000000000000000000c350117f0000000000000000000000000000000000000000000000000000000000000001457f000000000000000000000000945304eb96065b2a98b57a48a06ae28d285a71b56f8b7152a3958a923c1665b27557089a5560005155",
                "nonce" : "0x00",
                "storage" : {
                    "0x00" : "0x8b7152a3958a923c1665b27557089a55"
                }
            },
            "0x945304eb96065b2a98b57a48a06ae28d285a71b5" : {
                "balance" : "0x29a2241af62cbc99",
                "code" : "0x6000355415600957005b60203560003555",
                "nonce" : "0x00",
                "storage" : {
                }
            },
            "0xa94f5374fce5edbc8e2a8697c15331677e6ebf0b" : {
                "balance" : "0x0de0b6b39602ff85",
                "code" : "0x",
                "nonce" : "0x01",
                "storage" : {
                }
            }
        },
        "pre" : {
            "0x095e7baea6a6c7c4c2dfeb977efac326af552d87" : {
                "balance" : "0x00",
                "code" : "0x7f000000000000000000000000945304eb96065b2a98b57a48a06ae28d285a71b57ffffffffffffffffffffffffffffffffffffffffffffffffffffffffffffffffe7f00000000000000000000000000000000000000000000000000000000000000007f000000000000000000000000000000000000000000000000000000000000c350117f0000000000000000000000000000000000000000000000000000000000000001457f000000000000000000000000945304eb96065b2a98b57a48a06ae28d285a71b56f8b7152a3958a923c1665b27557089a5560005155",
                "nonce" : "0x00",
                "storage" : {
                }
            },
            "0x945304eb96065b2a98b57a48a06ae28d285a71b5" : {
                "balance" : "0x2e",
                "code" : "0x6000355415600957005b60203560003555",
                "nonce" : "0x00",
                "storage" : {
                }
            },
            "0xa94f5374fce5edbc8e2a8697c15331677e6ebf0b" : {
                "balance" : "0x0de0b6b3a7640000",
                "code" : "0x",
                "nonce" : "0x00",
                "storage" : {
                }
            }
        },
        "sealEngine" : "NoProof"
    },
    "randomStatetest587_d0g0v0_Constantinople" : {
        "_info" : {
            "comment" : "",
            "filledwith" : "testeth 1.7.0-alpha.1-20+commit.782a7283",
            "lllcversion" : "Version: 0.5.0-develop.2018.11.9+commit.9709dfe0.Linux.g++",
            "source" : "src/BlockchainTestsFiller/GeneralStateTests/stRandom2/randomStatetest587_d0g0v0Filler.json",
            "sourceHash" : "ad196dc513ea79ba6e2d60beab35ab7b58597c463c6b77fcb475ece1abb3f6b1"
        },
        "blocks" : [
            {
                "blockHeader" : {
                    "bloom" : "0x00000000000000000000000000000000000000000000000000000000000000000000000000000000000000000000000000000000000000000000000000000000000000000000000000000000000000000000000000000000000000000000000000000000000000000000000000000000000000000000000000000000000000000000000000000000000000000000000000000000000000000000000000000000000000000000000000000000000000000000000000000000000000000000000000000000000000000000000000000000000000000000000000000000000000000000000000000000000000000000000000000000000000000000000000000000",
                    "coinbase" : "0x945304eb96065b2a98b57a48a06ae28d285a71b5",
                    "difficulty" : "0x020000",
                    "extraData" : "0x",
                    "gasLimit" : "0x7fffffffffffffff",
                    "gasUsed" : "0xbc6b",
                    "hash" : "0x9886e0c73f723baf27baa0c78856b4a5ebb23a50b4358d004bd94b86885f68e7",
                    "mixHash" : "0x0000000000000000000000000000000000000000000000000000000000000000",
                    "nonce" : "0x0000000000000000",
                    "number" : "0x01",
                    "parentHash" : "0x30b8dec0c8ea938461769a868aac836b346beb7afc478627fecea5d4b94527e3",
                    "receiptTrie" : "0x2393227be452e7729b7c47799de945ed5724d33653af5bb48e8ca5712ac10338",
                    "stateRoot" : "0x2f52503b5fff0ed4878bb2f7f435d165ee7a4b5cbb86f6215e5f9a80e4efad02",
                    "timestamp" : "0x03e8",
                    "transactionsTrie" : "0x5db9548533a27a2d292f833de924f8199484e34c3ae86579a030ebae39727708",
                    "uncleHash" : "0x1dcc4de8dec75d7aab85b567b6ccd41ad312451b948a7413f0a142fd40d49347"
                },
                "rlp" : "0xf90344f901fca030b8dec0c8ea938461769a868aac836b346beb7afc478627fecea5d4b94527e3a01dcc4de8dec75d7aab85b567b6ccd41ad312451b948a7413f0a142fd40d4934794945304eb96065b2a98b57a48a06ae28d285a71b5a02f52503b5fff0ed4878bb2f7f435d165ee7a4b5cbb86f6215e5f9a80e4efad02a05db9548533a27a2d292f833de924f8199484e34c3ae86579a030ebae39727708a02393227be452e7729b7c47799de945ed5724d33653af5bb48e8ca5712ac10338b90100000000000000000000000000000000000000000000000000000000000000000000000000000000000000000000000000000000000000000000000000000000000000000000000000000000000000000000000000000000000000000000000000000000000000000000000000000000000000000000000000000000000000000000000000000000000000000000000000000000000000000000000000000000000000000000000000000000000000000000000000000000000000000000000000000000000000000000000000000000000000000000000000000000000000000000000000000000000000000000000000000000000000000000000000000000008302000001887fffffffffffffff82bc6b8203e880a00000000000000000000000000000000000000000000000000000000000000000880000000000000000f90141f9013e80018479afcd8f94095e7baea6a6c7c4c2dfeb977efac326af552d878411604410b8d87f000000000000000000000000945304eb96065b2a98b57a48a06ae28d285a71b57ffffffffffffffffffffffffffffffffffffffffffffffffffffffffffffffffe7f00000000000000000000000000000000000000000000000000000000000000007f000000000000000000000000000000000000000000000000000000000000c350117f0000000000000000000000000000000000000000000000000000000000000001457f000000000000000000000000945304eb96065b2a98b57a48a06ae28d285a71b56f8b7152a3958a923c1665b27557089a1ca0be4e336636a8362bbe451ccb2ec50d3a5e189a129643bef43ebc9b8754d39e69a0415382f0bb381e1c2a799ba2c597539faa0dca994247fa3424aa60193667bc25c0",
                "transactions" : [
                    {
                        "data" : "0x7f000000000000000000000000945304eb96065b2a98b57a48a06ae28d285a71b57ffffffffffffffffffffffffffffffffffffffffffffffffffffffffffffffffe7f00000000000000000000000000000000000000000000000000000000000000007f000000000000000000000000000000000000000000000000000000000000c350117f0000000000000000000000000000000000000000000000000000000000000001457f000000000000000000000000945304eb96065b2a98b57a48a06ae28d285a71b56f8b7152a3958a923c1665b27557089a",
                        "gasLimit" : "0x79afcd8f",
                        "gasPrice" : "0x01",
                        "nonce" : "0x00",
                        "r" : "0xbe4e336636a8362bbe451ccb2ec50d3a5e189a129643bef43ebc9b8754d39e69",
                        "s" : "0x415382f0bb381e1c2a799ba2c597539faa0dca994247fa3424aa60193667bc25",
                        "to" : "0x095e7baea6a6c7c4c2dfeb977efac326af552d87",
                        "v" : "0x1c",
                        "value" : "0x11604410"
                    }
                ],
                "uncleHeaders" : [
                ]
            }
        ],
        "genesisBlockHeader" : {
            "bloom" : "0x00000000000000000000000000000000000000000000000000000000000000000000000000000000000000000000000000000000000000000000000000000000000000000000000000000000000000000000000000000000000000000000000000000000000000000000000000000000000000000000000000000000000000000000000000000000000000000000000000000000000000000000000000000000000000000000000000000000000000000000000000000000000000000000000000000000000000000000000000000000000000000000000000000000000000000000000000000000000000000000000000000000000000000000000000000000",
            "coinbase" : "0x945304eb96065b2a98b57a48a06ae28d285a71b5",
            "difficulty" : "0x020000",
            "extraData" : "0x42",
            "gasLimit" : "0x7fffffffffffffff",
            "gasUsed" : "0x00",
            "hash" : "0x30b8dec0c8ea938461769a868aac836b346beb7afc478627fecea5d4b94527e3",
            "mixHash" : "0x56e81f171bcc55a6ff8345e692c0f86e5b48e01b996cadc001622fb5e363b421",
            "nonce" : "0x0102030405060708",
            "number" : "0x00",
            "parentHash" : "0x0000000000000000000000000000000000000000000000000000000000000000",
            "receiptTrie" : "0x56e81f171bcc55a6ff8345e692c0f86e5b48e01b996cadc001622fb5e363b421",
            "stateRoot" : "0xe561b33cb88edc81bbf0015984112c17db52e56f8cd23aa0c7ce26f574149517",
            "timestamp" : "0x03b6",
            "transactionsTrie" : "0x56e81f171bcc55a6ff8345e692c0f86e5b48e01b996cadc001622fb5e363b421",
            "uncleHash" : "0x1dcc4de8dec75d7aab85b567b6ccd41ad312451b948a7413f0a142fd40d49347"
        },
        "genesisRLP" : "0xf901fff901faa00000000000000000000000000000000000000000000000000000000000000000a01dcc4de8dec75d7aab85b567b6ccd41ad312451b948a7413f0a142fd40d4934794945304eb96065b2a98b57a48a06ae28d285a71b5a0e561b33cb88edc81bbf0015984112c17db52e56f8cd23aa0c7ce26f574149517a056e81f171bcc55a6ff8345e692c0f86e5b48e01b996cadc001622fb5e363b421a056e81f171bcc55a6ff8345e692c0f86e5b48e01b996cadc001622fb5e363b421b90100000000000000000000000000000000000000000000000000000000000000000000000000000000000000000000000000000000000000000000000000000000000000000000000000000000000000000000000000000000000000000000000000000000000000000000000000000000000000000000000000000000000000000000000000000000000000000000000000000000000000000000000000000000000000000000000000000000000000000000000000000000000000000000000000000000000000000000000000000000000000000000000000000000000000000000000000000000000000000000000000000000000000000000000000000000008302000080887fffffffffffffff808203b642a056e81f171bcc55a6ff8345e692c0f86e5b48e01b996cadc001622fb5e363b421880102030405060708c0c0",
        "lastblockhash" : "0x9886e0c73f723baf27baa0c78856b4a5ebb23a50b4358d004bd94b86885f68e7",
        "network" : "Constantinople",
        "postState" : {
            "0x095e7baea6a6c7c4c2dfeb977efac326af552d87" : {
                "balance" : "0x11604410",
                "code" : "0x7f000000000000000000000000945304eb96065b2a98b57a48a06ae28d285a71b57ffffffffffffffffffffffffffffffffffffffffffffffffffffffffffffffffe7f00000000000000000000000000000000000000000000000000000000000000007f000000000000000000000000000000000000000000000000000000000000c350117f0000000000000000000000000000000000000000000000000000000000000001457f000000000000000000000000945304eb96065b2a98b57a48a06ae28d285a71b56f8b7152a3958a923c1665b27557089a5560005155",
                "nonce" : "0x00",
                "storage" : {
                    "0x00" : "0x8b7152a3958a923c1665b27557089a55"
                }
            },
            "0x945304eb96065b2a98b57a48a06ae28d285a71b5" : {
                "balance" : "0x1bc16d674ec8bc99",
                "code" : "0x6000355415600957005b60203560003555",
                "nonce" : "0x00",
                "storage" : {
                }
            },
            "0xa94f5374fce5edbc8e2a8697c15331677e6ebf0b" : {
                "balance" : "0x0de0b6b39602ff85",
                "code" : "0x",
                "nonce" : "0x01",
                "storage" : {
                }
            }
        },
        "pre" : {
            "0x095e7baea6a6c7c4c2dfeb977efac326af552d87" : {
                "balance" : "0x00",
                "code" : "0x7f000000000000000000000000945304eb96065b2a98b57a48a06ae28d285a71b57ffffffffffffffffffffffffffffffffffffffffffffffffffffffffffffffffe7f00000000000000000000000000000000000000000000000000000000000000007f000000000000000000000000000000000000000000000000000000000000c350117f0000000000000000000000000000000000000000000000000000000000000001457f000000000000000000000000945304eb96065b2a98b57a48a06ae28d285a71b56f8b7152a3958a923c1665b27557089a5560005155",
                "nonce" : "0x00",
                "storage" : {
                }
            },
            "0x945304eb96065b2a98b57a48a06ae28d285a71b5" : {
                "balance" : "0x2e",
                "code" : "0x6000355415600957005b60203560003555",
                "nonce" : "0x00",
                "storage" : {
                }
            },
            "0xa94f5374fce5edbc8e2a8697c15331677e6ebf0b" : {
                "balance" : "0x0de0b6b3a7640000",
                "code" : "0x",
                "nonce" : "0x00",
                "storage" : {
                }
            }
        },
        "sealEngine" : "NoProof"
    },
    "randomStatetest587_d0g0v0_ConstantinopleFix" : {
        "_info" : {
            "comment" : "",
            "filledwith" : "testeth 1.7.0-alpha.1-20+commit.782a7283",
            "lllcversion" : "Version: 0.5.0-develop.2018.11.9+commit.9709dfe0.Linux.g++",
            "source" : "src/BlockchainTestsFiller/GeneralStateTests/stRandom2/randomStatetest587_d0g0v0Filler.json",
            "sourceHash" : "ad196dc513ea79ba6e2d60beab35ab7b58597c463c6b77fcb475ece1abb3f6b1"
        },
        "blocks" : [
            {
                "blockHeader" : {
                    "bloom" : "0x00000000000000000000000000000000000000000000000000000000000000000000000000000000000000000000000000000000000000000000000000000000000000000000000000000000000000000000000000000000000000000000000000000000000000000000000000000000000000000000000000000000000000000000000000000000000000000000000000000000000000000000000000000000000000000000000000000000000000000000000000000000000000000000000000000000000000000000000000000000000000000000000000000000000000000000000000000000000000000000000000000000000000000000000000000000",
                    "coinbase" : "0x945304eb96065b2a98b57a48a06ae28d285a71b5",
                    "difficulty" : "0x020000",
                    "extraData" : "0x",
                    "gasLimit" : "0x7fffffffffffffff",
                    "gasUsed" : "0xbc6b",
                    "hash" : "0x9886e0c73f723baf27baa0c78856b4a5ebb23a50b4358d004bd94b86885f68e7",
                    "mixHash" : "0x0000000000000000000000000000000000000000000000000000000000000000",
                    "nonce" : "0x0000000000000000",
                    "number" : "0x01",
                    "parentHash" : "0x30b8dec0c8ea938461769a868aac836b346beb7afc478627fecea5d4b94527e3",
                    "receiptTrie" : "0x2393227be452e7729b7c47799de945ed5724d33653af5bb48e8ca5712ac10338",
                    "stateRoot" : "0x2f52503b5fff0ed4878bb2f7f435d165ee7a4b5cbb86f6215e5f9a80e4efad02",
                    "timestamp" : "0x03e8",
                    "transactionsTrie" : "0x5db9548533a27a2d292f833de924f8199484e34c3ae86579a030ebae39727708",
                    "uncleHash" : "0x1dcc4de8dec75d7aab85b567b6ccd41ad312451b948a7413f0a142fd40d49347"
                },
                "rlp" : "0xf90344f901fca030b8dec0c8ea938461769a868aac836b346beb7afc478627fecea5d4b94527e3a01dcc4de8dec75d7aab85b567b6ccd41ad312451b948a7413f0a142fd40d4934794945304eb96065b2a98b57a48a06ae28d285a71b5a02f52503b5fff0ed4878bb2f7f435d165ee7a4b5cbb86f6215e5f9a80e4efad02a05db9548533a27a2d292f833de924f8199484e34c3ae86579a030ebae39727708a02393227be452e7729b7c47799de945ed5724d33653af5bb48e8ca5712ac10338b90100000000000000000000000000000000000000000000000000000000000000000000000000000000000000000000000000000000000000000000000000000000000000000000000000000000000000000000000000000000000000000000000000000000000000000000000000000000000000000000000000000000000000000000000000000000000000000000000000000000000000000000000000000000000000000000000000000000000000000000000000000000000000000000000000000000000000000000000000000000000000000000000000000000000000000000000000000000000000000000000000000000000000000000000000000000008302000001887fffffffffffffff82bc6b8203e880a00000000000000000000000000000000000000000000000000000000000000000880000000000000000f90141f9013e80018479afcd8f94095e7baea6a6c7c4c2dfeb977efac326af552d878411604410b8d87f000000000000000000000000945304eb96065b2a98b57a48a06ae28d285a71b57ffffffffffffffffffffffffffffffffffffffffffffffffffffffffffffffffe7f00000000000000000000000000000000000000000000000000000000000000007f000000000000000000000000000000000000000000000000000000000000c350117f0000000000000000000000000000000000000000000000000000000000000001457f000000000000000000000000945304eb96065b2a98b57a48a06ae28d285a71b56f8b7152a3958a923c1665b27557089a1ca0be4e336636a8362bbe451ccb2ec50d3a5e189a129643bef43ebc9b8754d39e69a0415382f0bb381e1c2a799ba2c597539faa0dca994247fa3424aa60193667bc25c0",
                "transactions" : [
                    {
                        "data" : "0x7f000000000000000000000000945304eb96065b2a98b57a48a06ae28d285a71b57ffffffffffffffffffffffffffffffffffffffffffffffffffffffffffffffffe7f00000000000000000000000000000000000000000000000000000000000000007f000000000000000000000000000000000000000000000000000000000000c350117f0000000000000000000000000000000000000000000000000000000000000001457f000000000000000000000000945304eb96065b2a98b57a48a06ae28d285a71b56f8b7152a3958a923c1665b27557089a",
                        "gasLimit" : "0x79afcd8f",
                        "gasPrice" : "0x01",
                        "nonce" : "0x00",
                        "r" : "0xbe4e336636a8362bbe451ccb2ec50d3a5e189a129643bef43ebc9b8754d39e69",
                        "s" : "0x415382f0bb381e1c2a799ba2c597539faa0dca994247fa3424aa60193667bc25",
                        "to" : "0x095e7baea6a6c7c4c2dfeb977efac326af552d87",
                        "v" : "0x1c",
                        "value" : "0x11604410"
                    }
                ],
                "uncleHeaders" : [
                ]
            }
        ],
        "genesisBlockHeader" : {
            "bloom" : "0x00000000000000000000000000000000000000000000000000000000000000000000000000000000000000000000000000000000000000000000000000000000000000000000000000000000000000000000000000000000000000000000000000000000000000000000000000000000000000000000000000000000000000000000000000000000000000000000000000000000000000000000000000000000000000000000000000000000000000000000000000000000000000000000000000000000000000000000000000000000000000000000000000000000000000000000000000000000000000000000000000000000000000000000000000000000",
            "coinbase" : "0x945304eb96065b2a98b57a48a06ae28d285a71b5",
            "difficulty" : "0x020000",
            "extraData" : "0x42",
            "gasLimit" : "0x7fffffffffffffff",
            "gasUsed" : "0x00",
            "hash" : "0x30b8dec0c8ea938461769a868aac836b346beb7afc478627fecea5d4b94527e3",
            "mixHash" : "0x56e81f171bcc55a6ff8345e692c0f86e5b48e01b996cadc001622fb5e363b421",
            "nonce" : "0x0102030405060708",
            "number" : "0x00",
            "parentHash" : "0x0000000000000000000000000000000000000000000000000000000000000000",
            "receiptTrie" : "0x56e81f171bcc55a6ff8345e692c0f86e5b48e01b996cadc001622fb5e363b421",
            "stateRoot" : "0xe561b33cb88edc81bbf0015984112c17db52e56f8cd23aa0c7ce26f574149517",
            "timestamp" : "0x03b6",
            "transactionsTrie" : "0x56e81f171bcc55a6ff8345e692c0f86e5b48e01b996cadc001622fb5e363b421",
            "uncleHash" : "0x1dcc4de8dec75d7aab85b567b6ccd41ad312451b948a7413f0a142fd40d49347"
        },
        "genesisRLP" : "0xf901fff901faa00000000000000000000000000000000000000000000000000000000000000000a01dcc4de8dec75d7aab85b567b6ccd41ad312451b948a7413f0a142fd40d4934794945304eb96065b2a98b57a48a06ae28d285a71b5a0e561b33cb88edc81bbf0015984112c17db52e56f8cd23aa0c7ce26f574149517a056e81f171bcc55a6ff8345e692c0f86e5b48e01b996cadc001622fb5e363b421a056e81f171bcc55a6ff8345e692c0f86e5b48e01b996cadc001622fb5e363b421b90100000000000000000000000000000000000000000000000000000000000000000000000000000000000000000000000000000000000000000000000000000000000000000000000000000000000000000000000000000000000000000000000000000000000000000000000000000000000000000000000000000000000000000000000000000000000000000000000000000000000000000000000000000000000000000000000000000000000000000000000000000000000000000000000000000000000000000000000000000000000000000000000000000000000000000000000000000000000000000000000000000000000000000000000000000000008302000080887fffffffffffffff808203b642a056e81f171bcc55a6ff8345e692c0f86e5b48e01b996cadc001622fb5e363b421880102030405060708c0c0",
        "lastblockhash" : "0x9886e0c73f723baf27baa0c78856b4a5ebb23a50b4358d004bd94b86885f68e7",
        "network" : "ConstantinopleFix",
        "postState" : {
            "0x095e7baea6a6c7c4c2dfeb977efac326af552d87" : {
                "balance" : "0x11604410",
                "code" : "0x7f000000000000000000000000945304eb96065b2a98b57a48a06ae28d285a71b57ffffffffffffffffffffffffffffffffffffffffffffffffffffffffffffffffe7f00000000000000000000000000000000000000000000000000000000000000007f000000000000000000000000000000000000000000000000000000000000c350117f0000000000000000000000000000000000000000000000000000000000000001457f000000000000000000000000945304eb96065b2a98b57a48a06ae28d285a71b56f8b7152a3958a923c1665b27557089a5560005155",
                "nonce" : "0x00",
                "storage" : {
                    "0x00" : "0x8b7152a3958a923c1665b27557089a55"
                }
            },
            "0x945304eb96065b2a98b57a48a06ae28d285a71b5" : {
                "balance" : "0x1bc16d674ec8bc99",
                "code" : "0x6000355415600957005b60203560003555",
                "nonce" : "0x00",
                "storage" : {
                }
            },
            "0xa94f5374fce5edbc8e2a8697c15331677e6ebf0b" : {
                "balance" : "0x0de0b6b39602ff85",
                "code" : "0x",
                "nonce" : "0x01",
                "storage" : {
                }
            }
        },
        "pre" : {
            "0x095e7baea6a6c7c4c2dfeb977efac326af552d87" : {
                "balance" : "0x00",
                "code" : "0x7f000000000000000000000000945304eb96065b2a98b57a48a06ae28d285a71b57ffffffffffffffffffffffffffffffffffffffffffffffffffffffffffffffffe7f00000000000000000000000000000000000000000000000000000000000000007f000000000000000000000000000000000000000000000000000000000000c350117f0000000000000000000000000000000000000000000000000000000000000001457f000000000000000000000000945304eb96065b2a98b57a48a06ae28d285a71b56f8b7152a3958a923c1665b27557089a5560005155",
                "nonce" : "0x00",
                "storage" : {
                }
            },
            "0x945304eb96065b2a98b57a48a06ae28d285a71b5" : {
                "balance" : "0x2e",
                "code" : "0x6000355415600957005b60203560003555",
                "nonce" : "0x00",
                "storage" : {
                }
            },
            "0xa94f5374fce5edbc8e2a8697c15331677e6ebf0b" : {
                "balance" : "0x0de0b6b3a7640000",
                "code" : "0x",
                "nonce" : "0x00",
                "storage" : {
                }
            }
        },
        "sealEngine" : "NoProof"
    },
    "randomStatetest587_d0g0v0_Homestead" : {
        "_info" : {
            "comment" : "",
            "filledwith" : "testeth 1.7.0-alpha.1-20+commit.782a7283",
            "lllcversion" : "Version: 0.5.0-develop.2018.11.9+commit.9709dfe0.Linux.g++",
            "source" : "src/BlockchainTestsFiller/GeneralStateTests/stRandom2/randomStatetest587_d0g0v0Filler.json",
            "sourceHash" : "ad196dc513ea79ba6e2d60beab35ab7b58597c463c6b77fcb475ece1abb3f6b1"
        },
        "blocks" : [
            {
                "blockHeader" : {
                    "bloom" : "0x00000000000000000000000000000000000000000000000000000000000000000000000000000000000000000000000000000000000000000000000000000000000000000000000000000000000000000000000000000000000000000000000000000000000000000000000000000000000000000000000000000000000000000000000000000000000000000000000000000000000000000000000000000000000000000000000000000000000000000000000000000000000000000000000000000000000000000000000000000000000000000000000000000000000000000000000000000000000000000000000000000000000000000000000000000000",
                    "coinbase" : "0x945304eb96065b2a98b57a48a06ae28d285a71b5",
                    "difficulty" : "0x020000",
                    "extraData" : "0x",
                    "gasLimit" : "0x7fffffffffffffff",
                    "gasUsed" : "0xbc6b",
                    "hash" : "0xb9f0ed30584e429c7bc2bcfb8c4f21fe7c48110584ce00ca83a977edca1c7cc1",
                    "mixHash" : "0x0000000000000000000000000000000000000000000000000000000000000000",
                    "nonce" : "0x0000000000000000",
                    "number" : "0x01",
                    "parentHash" : "0x30b8dec0c8ea938461769a868aac836b346beb7afc478627fecea5d4b94527e3",
                    "receiptTrie" : "0x67c199492682bb8256663eee814e3979069894c96d932552b7d762331d3202de",
                    "stateRoot" : "0x0ce77c0c55f7feec702af8bd66d831f630c81c1f199a2e7cacf715782cc8e47e",
                    "timestamp" : "0x03e8",
                    "transactionsTrie" : "0x5db9548533a27a2d292f833de924f8199484e34c3ae86579a030ebae39727708",
                    "uncleHash" : "0x1dcc4de8dec75d7aab85b567b6ccd41ad312451b948a7413f0a142fd40d49347"
                },
                "rlp" : "0xf90344f901fca030b8dec0c8ea938461769a868aac836b346beb7afc478627fecea5d4b94527e3a01dcc4de8dec75d7aab85b567b6ccd41ad312451b948a7413f0a142fd40d4934794945304eb96065b2a98b57a48a06ae28d285a71b5a00ce77c0c55f7feec702af8bd66d831f630c81c1f199a2e7cacf715782cc8e47ea05db9548533a27a2d292f833de924f8199484e34c3ae86579a030ebae39727708a067c199492682bb8256663eee814e3979069894c96d932552b7d762331d3202deb90100000000000000000000000000000000000000000000000000000000000000000000000000000000000000000000000000000000000000000000000000000000000000000000000000000000000000000000000000000000000000000000000000000000000000000000000000000000000000000000000000000000000000000000000000000000000000000000000000000000000000000000000000000000000000000000000000000000000000000000000000000000000000000000000000000000000000000000000000000000000000000000000000000000000000000000000000000000000000000000000000000000000000000000000000000000008302000001887fffffffffffffff82bc6b8203e880a00000000000000000000000000000000000000000000000000000000000000000880000000000000000f90141f9013e80018479afcd8f94095e7baea6a6c7c4c2dfeb977efac326af552d878411604410b8d87f000000000000000000000000945304eb96065b2a98b57a48a06ae28d285a71b57ffffffffffffffffffffffffffffffffffffffffffffffffffffffffffffffffe7f00000000000000000000000000000000000000000000000000000000000000007f000000000000000000000000000000000000000000000000000000000000c350117f0000000000000000000000000000000000000000000000000000000000000001457f000000000000000000000000945304eb96065b2a98b57a48a06ae28d285a71b56f8b7152a3958a923c1665b27557089a1ca0be4e336636a8362bbe451ccb2ec50d3a5e189a129643bef43ebc9b8754d39e69a0415382f0bb381e1c2a799ba2c597539faa0dca994247fa3424aa60193667bc25c0",
                "transactions" : [
                    {
                        "data" : "0x7f000000000000000000000000945304eb96065b2a98b57a48a06ae28d285a71b57ffffffffffffffffffffffffffffffffffffffffffffffffffffffffffffffffe7f00000000000000000000000000000000000000000000000000000000000000007f000000000000000000000000000000000000000000000000000000000000c350117f0000000000000000000000000000000000000000000000000000000000000001457f000000000000000000000000945304eb96065b2a98b57a48a06ae28d285a71b56f8b7152a3958a923c1665b27557089a",
                        "gasLimit" : "0x79afcd8f",
                        "gasPrice" : "0x01",
                        "nonce" : "0x00",
                        "r" : "0xbe4e336636a8362bbe451ccb2ec50d3a5e189a129643bef43ebc9b8754d39e69",
                        "s" : "0x415382f0bb381e1c2a799ba2c597539faa0dca994247fa3424aa60193667bc25",
                        "to" : "0x095e7baea6a6c7c4c2dfeb977efac326af552d87",
                        "v" : "0x1c",
                        "value" : "0x11604410"
                    }
                ],
                "uncleHeaders" : [
                ]
            }
        ],
        "genesisBlockHeader" : {
            "bloom" : "0x00000000000000000000000000000000000000000000000000000000000000000000000000000000000000000000000000000000000000000000000000000000000000000000000000000000000000000000000000000000000000000000000000000000000000000000000000000000000000000000000000000000000000000000000000000000000000000000000000000000000000000000000000000000000000000000000000000000000000000000000000000000000000000000000000000000000000000000000000000000000000000000000000000000000000000000000000000000000000000000000000000000000000000000000000000000",
            "coinbase" : "0x945304eb96065b2a98b57a48a06ae28d285a71b5",
            "difficulty" : "0x020000",
            "extraData" : "0x42",
            "gasLimit" : "0x7fffffffffffffff",
            "gasUsed" : "0x00",
            "hash" : "0x30b8dec0c8ea938461769a868aac836b346beb7afc478627fecea5d4b94527e3",
            "mixHash" : "0x56e81f171bcc55a6ff8345e692c0f86e5b48e01b996cadc001622fb5e363b421",
            "nonce" : "0x0102030405060708",
            "number" : "0x00",
            "parentHash" : "0x0000000000000000000000000000000000000000000000000000000000000000",
            "receiptTrie" : "0x56e81f171bcc55a6ff8345e692c0f86e5b48e01b996cadc001622fb5e363b421",
            "stateRoot" : "0xe561b33cb88edc81bbf0015984112c17db52e56f8cd23aa0c7ce26f574149517",
            "timestamp" : "0x03b6",
            "transactionsTrie" : "0x56e81f171bcc55a6ff8345e692c0f86e5b48e01b996cadc001622fb5e363b421",
            "uncleHash" : "0x1dcc4de8dec75d7aab85b567b6ccd41ad312451b948a7413f0a142fd40d49347"
        },
        "genesisRLP" : "0xf901fff901faa00000000000000000000000000000000000000000000000000000000000000000a01dcc4de8dec75d7aab85b567b6ccd41ad312451b948a7413f0a142fd40d4934794945304eb96065b2a98b57a48a06ae28d285a71b5a0e561b33cb88edc81bbf0015984112c17db52e56f8cd23aa0c7ce26f574149517a056e81f171bcc55a6ff8345e692c0f86e5b48e01b996cadc001622fb5e363b421a056e81f171bcc55a6ff8345e692c0f86e5b48e01b996cadc001622fb5e363b421b90100000000000000000000000000000000000000000000000000000000000000000000000000000000000000000000000000000000000000000000000000000000000000000000000000000000000000000000000000000000000000000000000000000000000000000000000000000000000000000000000000000000000000000000000000000000000000000000000000000000000000000000000000000000000000000000000000000000000000000000000000000000000000000000000000000000000000000000000000000000000000000000000000000000000000000000000000000000000000000000000000000000000000000000000000000000008302000080887fffffffffffffff808203b642a056e81f171bcc55a6ff8345e692c0f86e5b48e01b996cadc001622fb5e363b421880102030405060708c0c0",
        "lastblockhash" : "0xb9f0ed30584e429c7bc2bcfb8c4f21fe7c48110584ce00ca83a977edca1c7cc1",
        "network" : "Homestead",
        "postState" : {
            "0x095e7baea6a6c7c4c2dfeb977efac326af552d87" : {
                "balance" : "0x11604410",
                "code" : "0x7f000000000000000000000000945304eb96065b2a98b57a48a06ae28d285a71b57ffffffffffffffffffffffffffffffffffffffffffffffffffffffffffffffffe7f00000000000000000000000000000000000000000000000000000000000000007f000000000000000000000000000000000000000000000000000000000000c350117f0000000000000000000000000000000000000000000000000000000000000001457f000000000000000000000000945304eb96065b2a98b57a48a06ae28d285a71b56f8b7152a3958a923c1665b27557089a5560005155",
                "nonce" : "0x00",
                "storage" : {
                    "0x00" : "0x8b7152a3958a923c1665b27557089a55"
                }
            },
            "0x945304eb96065b2a98b57a48a06ae28d285a71b5" : {
                "balance" : "0x4563918244f4bc99",
                "code" : "0x6000355415600957005b60203560003555",
                "nonce" : "0x00",
                "storage" : {
                }
            },
            "0xa94f5374fce5edbc8e2a8697c15331677e6ebf0b" : {
                "balance" : "0x0de0b6b39602ff85",
                "code" : "0x",
                "nonce" : "0x01",
                "storage" : {
                }
            }
        },
        "pre" : {
            "0x095e7baea6a6c7c4c2dfeb977efac326af552d87" : {
                "balance" : "0x00",
                "code" : "0x7f000000000000000000000000945304eb96065b2a98b57a48a06ae28d285a71b57ffffffffffffffffffffffffffffffffffffffffffffffffffffffffffffffffe7f00000000000000000000000000000000000000000000000000000000000000007f000000000000000000000000000000000000000000000000000000000000c350117f0000000000000000000000000000000000000000000000000000000000000001457f000000000000000000000000945304eb96065b2a98b57a48a06ae28d285a71b56f8b7152a3958a923c1665b27557089a5560005155",
                "nonce" : "0x00",
                "storage" : {
                }
            },
            "0x945304eb96065b2a98b57a48a06ae28d285a71b5" : {
                "balance" : "0x2e",
                "code" : "0x6000355415600957005b60203560003555",
                "nonce" : "0x00",
                "storage" : {
                }
            },
            "0xa94f5374fce5edbc8e2a8697c15331677e6ebf0b" : {
                "balance" : "0x0de0b6b3a7640000",
                "code" : "0x",
                "nonce" : "0x00",
                "storage" : {
                }
            }
        },
        "sealEngine" : "NoProof"
    }
}