{
    "randomStatetest647_d0g0v0_Byzantium" : {
        "_info" : {
            "comment" : "Malicious bytecode found by fuzztest tool: returndatacopy(0,-1)",
            "filledwith" : "testeth 1.7.0-alpha.1-20+commit.782a7283",
            "lllcversion" : "Version: 0.5.0-develop.2018.11.9+commit.9709dfe0.Linux.g++",
            "source" : "src/BlockchainTestsFiller/GeneralStateTests/stRandom2/randomStatetest647_d0g0v0Filler.json",
            "sourceHash" : "b213934be44722b63adc405b07a5410cdb1344f3c74d3b355901ad3200f236e5"
        },
        "blocks" : [
            {
                "blockHeader" : {
                    "bloom" : "0x00000000000000000000000000000000000000000000000000000000000000000000000000000000000000000000000000000000000000000000000000000000000000000000000000000000000000000000000000000000000000000000000000000000000000000000000000000000000000000000000000000000000000000000000000000000000000000000000000000000000000000000000000000000000000000000000000000000000000000000000000000000000000000000000000000000000000000000000000000000000000000000000000000000000000000000000000000000000000000000000000000000000000000000000000000000",
                    "coinbase" : "0xd94f5374fce5edbc8e2a8697c15331677e6ebf0b",
                    "difficulty" : "0x020000",
                    "extraData" : "0x",
                    "gasLimit" : "0x42fe8c95373ea1",
                    "gasUsed" : "0x584d31",
                    "hash" : "0xa087e15192b8c349fa58335eb29845bc0c678764f7db8eca019b42c521931554",
                    "mixHash" : "0x0000000000000000000000000000000000000000000000000000000000000000",
                    "nonce" : "0x0000000000000000",
                    "number" : "0x01",
                    "parentHash" : "0xb5fd5beb3033f29852143c5d21f7980d5d7a4fe23d885bb7ff95eae3145c200d",
                    "receiptTrie" : "0x53077ec6f582974cc36542550f228b891d4fa732272a6984075dd3eaef9a432a",
                    "stateRoot" : "0xae5f027b3c6c87136e06e1d2b11c4a57e68dff068bdb136b0f09785d8b2a6230",
                    "timestamp" : "0x03e8",
                    "transactionsTrie" : "0xc193cd14bc6a219c73fe6c2fb573bf3680e6e4140259eb06fdfccaebb4c3a9e9",
                    "uncleHash" : "0x1dcc4de8dec75d7aab85b567b6ccd41ad312451b948a7413f0a142fd40d49347"
                },
                "rlp" : "0xf90264f901fca0b5fd5beb3033f29852143c5d21f7980d5d7a4fe23d885bb7ff95eae3145c200da01dcc4de8dec75d7aab85b567b6ccd41ad312451b948a7413f0a142fd40d4934794d94f5374fce5edbc8e2a8697c15331677e6ebf0ba0ae5f027b3c6c87136e06e1d2b11c4a57e68dff068bdb136b0f09785d8b2a6230a0c193cd14bc6a219c73fe6c2fb573bf3680e6e4140259eb06fdfccaebb4c3a9e9a053077ec6f582974cc36542550f228b891d4fa732272a6984075dd3eaef9a432ab901000000000000000000000000000000000000000000000000000000000000000000000000000000000000000000000000000000000000000000000000000000000000000000000000000000000000000000000000000000000000000000000000000000000000000000000000000000000000000000000000000000000000000000000000000000000000000000000000000000000000000000000000000000000000000000000000000000000000000000000000000000000000000000000000000000000000000000000000000000000000000000000000000000000000000000000000000000000000000000000000000000000000000000000000000000000083020000018742fe8c95373ea183584d318203e880a00000000000000000000000000000000000000000000000000000000000000000880000000000000000f862f860800183584d3194c94f5374fce5edbc8e2a8697c15331677e6ebf0b80801ba0b8b4255ee0ebbc999fd83d5247c119f9c089e9a2ce40d52b234288fd77856839a0362d599ccebcbc12dae17e88f74e55df047a99916bc7b4e164f203ba7c1106efc0",
                "transactions" : [
                    {
                        "data" : "0x",
                        "gasLimit" : "0x584d31",
                        "gasPrice" : "0x01",
                        "nonce" : "0x00",
                        "r" : "0xb8b4255ee0ebbc999fd83d5247c119f9c089e9a2ce40d52b234288fd77856839",
                        "s" : "0x362d599ccebcbc12dae17e88f74e55df047a99916bc7b4e164f203ba7c1106ef",
                        "to" : "0xc94f5374fce5edbc8e2a8697c15331677e6ebf0b",
                        "v" : "0x1b",
                        "value" : "0x00"
                    }
                ],
                "uncleHeaders" : [
                ]
            }
        ],
        "genesisBlockHeader" : {
            "bloom" : "0x00000000000000000000000000000000000000000000000000000000000000000000000000000000000000000000000000000000000000000000000000000000000000000000000000000000000000000000000000000000000000000000000000000000000000000000000000000000000000000000000000000000000000000000000000000000000000000000000000000000000000000000000000000000000000000000000000000000000000000000000000000000000000000000000000000000000000000000000000000000000000000000000000000000000000000000000000000000000000000000000000000000000000000000000000000000",
            "coinbase" : "0xd94f5374fce5edbc8e2a8697c15331677e6ebf0b",
            "difficulty" : "0x020000",
            "extraData" : "0x42",
            "gasLimit" : "0x42fe8c95373ea1",
            "gasUsed" : "0x00",
            "hash" : "0xb5fd5beb3033f29852143c5d21f7980d5d7a4fe23d885bb7ff95eae3145c200d",
            "mixHash" : "0x56e81f171bcc55a6ff8345e692c0f86e5b48e01b996cadc001622fb5e363b421",
            "nonce" : "0x0102030405060708",
            "number" : "0x00",
            "parentHash" : "0x0000000000000000000000000000000000000000000000000000000000000000",
            "receiptTrie" : "0x56e81f171bcc55a6ff8345e692c0f86e5b48e01b996cadc001622fb5e363b421",
            "stateRoot" : "0x944fb0a526a187102d61ed0141bf0bf4b7326a7b40108e200999de04ccc9b261",
            "timestamp" : "0x03b6",
            "transactionsTrie" : "0x56e81f171bcc55a6ff8345e692c0f86e5b48e01b996cadc001622fb5e363b421",
            "uncleHash" : "0x1dcc4de8dec75d7aab85b567b6ccd41ad312451b948a7413f0a142fd40d49347"
        },
        "genesisRLP" : "0xf901fef901f9a00000000000000000000000000000000000000000000000000000000000000000a01dcc4de8dec75d7aab85b567b6ccd41ad312451b948a7413f0a142fd40d4934794d94f5374fce5edbc8e2a8697c15331677e6ebf0ba0944fb0a526a187102d61ed0141bf0bf4b7326a7b40108e200999de04ccc9b261a056e81f171bcc55a6ff8345e692c0f86e5b48e01b996cadc001622fb5e363b421a056e81f171bcc55a6ff8345e692c0f86e5b48e01b996cadc001622fb5e363b421b901000000000000000000000000000000000000000000000000000000000000000000000000000000000000000000000000000000000000000000000000000000000000000000000000000000000000000000000000000000000000000000000000000000000000000000000000000000000000000000000000000000000000000000000000000000000000000000000000000000000000000000000000000000000000000000000000000000000000000000000000000000000000000000000000000000000000000000000000000000000000000000000000000000000000000000000000000000000000000000000000000000000000000000000000000000000083020000808742fe8c95373ea1808203b642a056e81f171bcc55a6ff8345e692c0f86e5b48e01b996cadc001622fb5e363b421880102030405060708c0c0",
        "lastblockhash" : "0xa087e15192b8c349fa58335eb29845bc0c678764f7db8eca019b42c521931554",
        "network" : "Byzantium",
        "postState" : {
            "0xa94f5374fce5edbc8e2a8697c15331677e6ebf0b" : {
                "balance" : "0x3b427ccf",
                "code" : "0x",
                "nonce" : "0x01",
                "storage" : {
                }
            },
            "0xc94f5374fce5edbc8e2a8697c15331677e6ebf0b" : {
                "balance" : "0x00",
                "code" : "0x6001600160000360003e00",
                "nonce" : "0x07",
                "storage" : {
                }
            },
            "0xd94f5374fce5edbc8e2a8697c15331677e6ebf0b" : {
                "balance" : "0x29a2241af6844d31",
                "code" : "0x",
                "nonce" : "0x00",
                "storage" : {
                }
            }
        },
        "pre" : {
            "0xa94f5374fce5edbc8e2a8697c15331677e6ebf0b" : {
                "balance" : "0x3b9aca00",
                "code" : "0x",
                "nonce" : "0x00",
                "storage" : {
                }
            },
            "0xc94f5374fce5edbc8e2a8697c15331677e6ebf0b" : {
                "balance" : "0x00",
                "code" : "0x6001600160000360003e00",
                "nonce" : "0x07",
                "storage" : {
                }
            }
        },
        "sealEngine" : "NoProof"
    }
}