{
    "AmbiguousMethod_d0g0v0_Berlin" : {
        "_info" : {
            "comment" : "",
            "filling-rpc-server" : "evm version 1.10.4-unstable-966ee3ae-20210528",
            "filling-tool-version" : "retesteth-0.1.1-eip1559+commit.658fc3a8.Linux.g++",
            "lllcversion" : "Version: 0.5.14-develop.2021.5.18+commit.14c9d5de.mod.Linux.g++",
            "source" : "src/GeneralStateTestsFiller/stSolidityTest/AmbiguousMethodFiller.json",
            "sourceHash" : "d2eeb5409b3b3fac732840e78a5d03079f4484c8200662e6f3f4c6c576c1c67e"
        },
        "genesisBlockHeader" : {
            "bloom" : "0x00000000000000000000000000000000000000000000000000000000000000000000000000000000000000000000000000000000000000000000000000000000000000000000000000000000000000000000000000000000000000000000000000000000000000000000000000000000000000000000000000000000000000000000000000000000000000000000000000000000000000000000000000000000000000000000000000000000000000000000000000000000000000000000000000000000000000000000000000000000000000000000000000000000000000000000000000000000000000000000000000000000000000000000000000000000",
            "coinbase" : "0x2adc25665018aa1fe0e6bc666dac8fc2697ff9ba",
            "difficulty" : "0x020000",
            "extraData" : "0x00",
            "gasLimit" : "0x05f5e100",
            "gasUsed" : "0x00",
            "hash" : "0x95fbf432c32dc2f81b0c39f47993d534198f47c0b71cf64cc467feb7b9aaf245",
            "mixHash" : "0x0000000000000000000000000000000000000000000000000000000000000000",
            "nonce" : "0x0000000000000000",
            "number" : "0x00",
            "parentHash" : "0x0000000000000000000000000000000000000000000000000000000000000000",
            "receiptTrie" : "0x56e81f171bcc55a6ff8345e692c0f86e5b48e01b996cadc001622fb5e363b421",
            "stateRoot" : "0x0e134d647235ac843def389114f07ad78b4e052b7571c634d5d4bb6a2c133c8a",
            "timestamp" : "0x00",
            "transactionsTrie" : "0x56e81f171bcc55a6ff8345e692c0f86e5b48e01b996cadc001622fb5e363b421",
            "uncleHash" : "0x1dcc4de8dec75d7aab85b567b6ccd41ad312451b948a7413f0a142fd40d49347"
        },
        "pre" : {
            "0x095e7baea6a6c7c4c2dfeb977efac326af552d87" : {
                "balance" : "0x0186a0",
                "code" : "0x60003560e060020a90048063c040622614601557005b601b6021565b60006000f35b61014f60008190555056",
                "nonce" : "0x00",
                "storage" : {
                }
            },
            "0xa94f5374fce5edbc8e2a8697c15331677e6ebf0b" : {
                "balance" : "0x012a05f200",
                "code" : "0x",
                "nonce" : "0x00",
                "storage" : {
                }
            }
        },
        "postState" : {
            "0x095e7baea6a6c7c4c2dfeb977efac326af552d87" : {
                "code" : "0x60003560e060020a90048063c040622614601557005b601b6021565b60006000f35b61014f60008190555056",
                "nonce" : "0x00",
                "balance" : "0x0186a1",
                "storage" : {
                    "0x00" : "0x014f"
                }
            },
            "0x2adc25665018aa1fe0e6bc666dac8fc2697ff9ba" : {
                "code" : "0x",
                "nonce" : "0x00",
                "balance" : "0x1bc16d674ece9bd6",
                "storage" : {
                }
            },
            "0xa94f5374fce5edbc8e2a8697c15331677e6ebf0b" : {
                "code" : "0x",
                "nonce" : "0x01",
                "balance" : "0x0129ff5629",
                "storage" : {
                }
            }
        },
        "network" : "Berlin",
        "sealEngine" : "NoProof",
        "lastblockhash" : "0xcb4af4109f5e164e6ca6c7d5eb03c32ed926fbd4d546876ad897669eceef7bb1",
        "genesisRLP" : "0xf901f9f901f4a00000000000000000000000000000000000000000000000000000000000000000a01dcc4de8dec75d7aab85b567b6ccd41ad312451b948a7413f0a142fd40d49347942adc25665018aa1fe0e6bc666dac8fc2697ff9baa00e134d647235ac843def389114f07ad78b4e052b7571c634d5d4bb6a2c133c8aa056e81f171bcc55a6ff8345e692c0f86e5b48e01b996cadc001622fb5e363b421a056e81f171bcc55a6ff8345e692c0f86e5b48e01b996cadc001622fb5e363b421b901000000000000000000000000000000000000000000000000000000000000000000000000000000000000000000000000000000000000000000000000000000000000000000000000000000000000000000000000000000000000000000000000000000000000000000000000000000000000000000000000000000000000000000000000000000000000000000000000000000000000000000000000000000000000000000000000000000000000000000000000000000000000000000000000000000000000000000000000000000000000000000000000000000000000000000000000000000000000000000000000000000000000000000000000000000000083020000808405f5e100808000a00000000000000000000000000000000000000000000000000000000000000000880000000000000000c0c0",
        "blocks" : [
            {
                "rlp" : "0xf90264f901f8a095fbf432c32dc2f81b0c39f47993d534198f47c0b71cf64cc467feb7b9aaf245a01dcc4de8dec75d7aab85b567b6ccd41ad312451b948a7413f0a142fd40d49347942adc25665018aa1fe0e6bc666dac8fc2697ff9baa058ee21873edfba144daca1cfd21262d8f59bf22b522492efd1abb32081fd9f7fa013fb03572f8ebee1be5b22f1dd7ff7bf97b574e866f9145de1e6b163a723a26ba043f51dab2bfa4d8d9fd5b6337089a0466b023fa97bfc4a485d0e61596066c20db901000000000000000000000000000000000000000000000000000000000000000000000000000000000000000000000000000000000000000000000000000000000000000000000000000000000000000000000000000000000000000000000000000000000000000000000000000000000000000000000000000000000000000000000000000000000000000000000000000000000000000000000000000000000000000000000000000000000000000000000000000000000000000000000000000000000000000000000000000000000000000000000000000000000000000000000000000000000000000000000000000000000000000000000000000000000083020000018405f5e10082a92f8203e800a00000000000000000000000000000000000000000000000000000000000000000880000000000000000f866f864800a830493e094095e7baea6a6c7c4c2dfeb977efac326af552d870184c04062261ba02d995d64dce670c6419d7c5f1fadeaf15b25f94b2d4e92ac1e88f5a2b2db20b9a06f6b66be48bea28bcc2d0aedd9c865b854e6c0171c1c77c468df76f2c274228ec0",
                "blockHeader" : {
                    "bloom" : "0x00000000000000000000000000000000000000000000000000000000000000000000000000000000000000000000000000000000000000000000000000000000000000000000000000000000000000000000000000000000000000000000000000000000000000000000000000000000000000000000000000000000000000000000000000000000000000000000000000000000000000000000000000000000000000000000000000000000000000000000000000000000000000000000000000000000000000000000000000000000000000000000000000000000000000000000000000000000000000000000000000000000000000000000000000000000",
                    "coinbase" : "0x2adc25665018aa1fe0e6bc666dac8fc2697ff9ba",
                    "difficulty" : "0x020000",
                    "extraData" : "0x00",
                    "gasLimit" : "0x05f5e100",
                    "gasUsed" : "0xa92f",
                    "hash" : "0xcb4af4109f5e164e6ca6c7d5eb03c32ed926fbd4d546876ad897669eceef7bb1",
                    "mixHash" : "0x0000000000000000000000000000000000000000000000000000000000000000",
                    "nonce" : "0x0000000000000000",
                    "number" : "0x01",
                    "parentHash" : "0x95fbf432c32dc2f81b0c39f47993d534198f47c0b71cf64cc467feb7b9aaf245",
                    "receiptTrie" : "0x43f51dab2bfa4d8d9fd5b6337089a0466b023fa97bfc4a485d0e61596066c20d",
                    "stateRoot" : "0x58ee21873edfba144daca1cfd21262d8f59bf22b522492efd1abb32081fd9f7f",
                    "timestamp" : "0x03e8",
                    "transactionsTrie" : "0x13fb03572f8ebee1be5b22f1dd7ff7bf97b574e866f9145de1e6b163a723a26b",
                    "uncleHash" : "0x1dcc4de8dec75d7aab85b567b6ccd41ad312451b948a7413f0a142fd40d49347"
                },
                "transactions" : [
                    {
                        "data" : "0xc0406226",
                        "gasLimit" : "0x0493e0",
                        "gasPrice" : "0x0a",
                        "nonce" : "0x00",
                        "to" : "0x095e7baea6a6c7c4c2dfeb977efac326af552d87",
                        "value" : "0x01",
                        "v" : "0x1b",
                        "r" : "0x2d995d64dce670c6419d7c5f1fadeaf15b25f94b2d4e92ac1e88f5a2b2db20b9",
                        "s" : "0x6f6b66be48bea28bcc2d0aedd9c865b854e6c0171c1c77c468df76f2c274228e"
                    }
                ],
                "uncleHeaders" : [
                ]
            }
        ]
    },
    "AmbiguousMethod_d0g0v0_Istanbul" : {
        "_info" : {
            "comment" : "",
            "filling-rpc-server" : "evm version 1.10.4-unstable-966ee3ae-20210528",
            "filling-tool-version" : "retesteth-0.1.1-eip1559+commit.658fc3a8.Linux.g++",
            "lllcversion" : "Version: 0.5.14-develop.2021.5.18+commit.14c9d5de.mod.Linux.g++",
            "source" : "src/GeneralStateTestsFiller/stSolidityTest/AmbiguousMethodFiller.json",
            "sourceHash" : "d2eeb5409b3b3fac732840e78a5d03079f4484c8200662e6f3f4c6c576c1c67e"
        },
        "genesisBlockHeader" : {
            "bloom" : "0x00000000000000000000000000000000000000000000000000000000000000000000000000000000000000000000000000000000000000000000000000000000000000000000000000000000000000000000000000000000000000000000000000000000000000000000000000000000000000000000000000000000000000000000000000000000000000000000000000000000000000000000000000000000000000000000000000000000000000000000000000000000000000000000000000000000000000000000000000000000000000000000000000000000000000000000000000000000000000000000000000000000000000000000000000000000",
            "coinbase" : "0x2adc25665018aa1fe0e6bc666dac8fc2697ff9ba",
            "difficulty" : "0x020000",
            "extraData" : "0x00",
            "gasLimit" : "0x05f5e100",
            "gasUsed" : "0x00",
            "hash" : "0x95fbf432c32dc2f81b0c39f47993d534198f47c0b71cf64cc467feb7b9aaf245",
            "mixHash" : "0x0000000000000000000000000000000000000000000000000000000000000000",
            "nonce" : "0x0000000000000000",
            "number" : "0x00",
            "parentHash" : "0x0000000000000000000000000000000000000000000000000000000000000000",
            "receiptTrie" : "0x56e81f171bcc55a6ff8345e692c0f86e5b48e01b996cadc001622fb5e363b421",
            "stateRoot" : "0x0e134d647235ac843def389114f07ad78b4e052b7571c634d5d4bb6a2c133c8a",
            "timestamp" : "0x00",
            "transactionsTrie" : "0x56e81f171bcc55a6ff8345e692c0f86e5b48e01b996cadc001622fb5e363b421",
            "uncleHash" : "0x1dcc4de8dec75d7aab85b567b6ccd41ad312451b948a7413f0a142fd40d49347"
        },
        "pre" : {
            "0x095e7baea6a6c7c4c2dfeb977efac326af552d87" : {
                "balance" : "0x0186a0",
                "code" : "0x60003560e060020a90048063c040622614601557005b601b6021565b60006000f35b61014f60008190555056",
                "nonce" : "0x00",
                "storage" : {
                }
            },
            "0xa94f5374fce5edbc8e2a8697c15331677e6ebf0b" : {
                "balance" : "0x012a05f200",
                "code" : "0x",
                "nonce" : "0x00",
                "storage" : {
                }
            }
        },
        "postState" : {
            "0x095e7baea6a6c7c4c2dfeb977efac326af552d87" : {
                "code" : "0x60003560e060020a90048063c040622614601557005b601b6021565b60006000f35b61014f60008190555056",
                "nonce" : "0x00",
                "balance" : "0x0186a1",
                "storage" : {
                    "0x00" : "0x014f"
                }
            },
            "0x2adc25665018aa1fe0e6bc666dac8fc2697ff9ba" : {
                "code" : "0x",
                "nonce" : "0x00",
                "balance" : "0x1bc16d674ece49ce",
                "storage" : {
                }
            },
            "0xa94f5374fce5edbc8e2a8697c15331677e6ebf0b" : {
                "code" : "0x",
                "nonce" : "0x01",
                "balance" : "0x0129ffa831",
                "storage" : {
                }
            }
        },
        "network" : "Istanbul",
        "sealEngine" : "NoProof",
        "lastblockhash" : "0x126f90f607aacc0d45a05006d3b54ec2c33a6ccd2293ef07b3e7e44301dc8e83",
        "genesisRLP" : "0xf901f9f901f4a00000000000000000000000000000000000000000000000000000000000000000a01dcc4de8dec75d7aab85b567b6ccd41ad312451b948a7413f0a142fd40d49347942adc25665018aa1fe0e6bc666dac8fc2697ff9baa00e134d647235ac843def389114f07ad78b4e052b7571c634d5d4bb6a2c133c8aa056e81f171bcc55a6ff8345e692c0f86e5b48e01b996cadc001622fb5e363b421a056e81f171bcc55a6ff8345e692c0f86e5b48e01b996cadc001622fb5e363b421b901000000000000000000000000000000000000000000000000000000000000000000000000000000000000000000000000000000000000000000000000000000000000000000000000000000000000000000000000000000000000000000000000000000000000000000000000000000000000000000000000000000000000000000000000000000000000000000000000000000000000000000000000000000000000000000000000000000000000000000000000000000000000000000000000000000000000000000000000000000000000000000000000000000000000000000000000000000000000000000000000000000000000000000000000000000000083020000808405f5e100808000a00000000000000000000000000000000000000000000000000000000000000000880000000000000000c0c0",
        "blocks" : [
            {
                "rlp" : "0xf90264f901f8a095fbf432c32dc2f81b0c39f47993d534198f47c0b71cf64cc467feb7b9aaf245a01dcc4de8dec75d7aab85b567b6ccd41ad312451b948a7413f0a142fd40d49347942adc25665018aa1fe0e6bc666dac8fc2697ff9baa05028e2bf1be7a14d4573b87621f83eb3a8d15a3155ee81fd203bb58c7d932a11a013fb03572f8ebee1be5b22f1dd7ff7bf97b574e866f9145de1e6b163a723a26ba09d49b390bbeb5613d768a06b9c93223e96da6141bda9f918ae3b5cc4d24b71b0b901000000000000000000000000000000000000000000000000000000000000000000000000000000000000000000000000000000000000000000000000000000000000000000000000000000000000000000000000000000000000000000000000000000000000000000000000000000000000000000000000000000000000000000000000000000000000000000000000000000000000000000000000000000000000000000000000000000000000000000000000000000000000000000000000000000000000000000000000000000000000000000000000000000000000000000000000000000000000000000000000000000000000000000000000000000000083020000018405f5e10082a0fb8203e800a00000000000000000000000000000000000000000000000000000000000000000880000000000000000f866f864800a830493e094095e7baea6a6c7c4c2dfeb977efac326af552d870184c04062261ba02d995d64dce670c6419d7c5f1fadeaf15b25f94b2d4e92ac1e88f5a2b2db20b9a06f6b66be48bea28bcc2d0aedd9c865b854e6c0171c1c77c468df76f2c274228ec0",
                "blockHeader" : {
                    "bloom" : "0x00000000000000000000000000000000000000000000000000000000000000000000000000000000000000000000000000000000000000000000000000000000000000000000000000000000000000000000000000000000000000000000000000000000000000000000000000000000000000000000000000000000000000000000000000000000000000000000000000000000000000000000000000000000000000000000000000000000000000000000000000000000000000000000000000000000000000000000000000000000000000000000000000000000000000000000000000000000000000000000000000000000000000000000000000000000",
                    "coinbase" : "0x2adc25665018aa1fe0e6bc666dac8fc2697ff9ba",
                    "difficulty" : "0x020000",
                    "extraData" : "0x00",
                    "gasLimit" : "0x05f5e100",
                    "gasUsed" : "0xa0fb",
                    "hash" : "0x126f90f607aacc0d45a05006d3b54ec2c33a6ccd2293ef07b3e7e44301dc8e83",
                    "mixHash" : "0x0000000000000000000000000000000000000000000000000000000000000000",
                    "nonce" : "0x0000000000000000",
                    "number" : "0x01",
                    "parentHash" : "0x95fbf432c32dc2f81b0c39f47993d534198f47c0b71cf64cc467feb7b9aaf245",
                    "receiptTrie" : "0x9d49b390bbeb5613d768a06b9c93223e96da6141bda9f918ae3b5cc4d24b71b0",
                    "stateRoot" : "0x5028e2bf1be7a14d4573b87621f83eb3a8d15a3155ee81fd203bb58c7d932a11",
                    "timestamp" : "0x03e8",
                    "transactionsTrie" : "0x13fb03572f8ebee1be5b22f1dd7ff7bf97b574e866f9145de1e6b163a723a26b",
                    "uncleHash" : "0x1dcc4de8dec75d7aab85b567b6ccd41ad312451b948a7413f0a142fd40d49347"
                },
                "transactions" : [
                    {
                        "data" : "0xc0406226",
                        "gasLimit" : "0x0493e0",
                        "gasPrice" : "0x0a",
                        "nonce" : "0x00",
                        "to" : "0x095e7baea6a6c7c4c2dfeb977efac326af552d87",
                        "value" : "0x01",
                        "v" : "0x1b",
                        "r" : "0x2d995d64dce670c6419d7c5f1fadeaf15b25f94b2d4e92ac1e88f5a2b2db20b9",
                        "s" : "0x6f6b66be48bea28bcc2d0aedd9c865b854e6c0171c1c77c468df76f2c274228e"
                    }
                ],
                "uncleHeaders" : [
                ]
            }
        ]
    },
    "AmbiguousMethod_d0g0v0_London" : {
        "_info" : {
            "comment" : "",
            "filling-rpc-server" : "evm version 1.10.4-unstable-966ee3ae-20210528",
            "filling-tool-version" : "retesteth-0.1.1-eip1559+commit.658fc3a8.Linux.g++",
            "lllcversion" : "Version: 0.5.14-develop.2021.5.18+commit.14c9d5de.mod.Linux.g++",
            "source" : "src/GeneralStateTestsFiller/stSolidityTest/AmbiguousMethodFiller.json",
            "sourceHash" : "d2eeb5409b3b3fac732840e78a5d03079f4484c8200662e6f3f4c6c576c1c67e"
        },
        "genesisBlockHeader" : {
            "bloom" : "0x00000000000000000000000000000000000000000000000000000000000000000000000000000000000000000000000000000000000000000000000000000000000000000000000000000000000000000000000000000000000000000000000000000000000000000000000000000000000000000000000000000000000000000000000000000000000000000000000000000000000000000000000000000000000000000000000000000000000000000000000000000000000000000000000000000000000000000000000000000000000000000000000000000000000000000000000000000000000000000000000000000000000000000000000000000000",
            "coinbase" : "0x2adc25665018aa1fe0e6bc666dac8fc2697ff9ba",
            "difficulty" : "0x020000",
            "extraData" : "0x00",
            "gasLimit" : "0x05f5e100",
            "gasUsed" : "0x00",
            "hash" : "0xd460dd2e33e309d5365e66c7ec4f52fb0137b8e247966122eb3a5476986b3cf6",
            "mixHash" : "0x0000000000000000000000000000000000000000000000000000000000000000",
            "nonce" : "0x0000000000000000",
            "number" : "0x00",
            "parentHash" : "0x0000000000000000000000000000000000000000000000000000000000000000",
            "receiptTrie" : "0x56e81f171bcc55a6ff8345e692c0f86e5b48e01b996cadc001622fb5e363b421",
            "stateRoot" : "0x0e134d647235ac843def389114f07ad78b4e052b7571c634d5d4bb6a2c133c8a",
            "timestamp" : "0x00",
            "transactionsTrie" : "0x56e81f171bcc55a6ff8345e692c0f86e5b48e01b996cadc001622fb5e363b421",
            "uncleHash" : "0x1dcc4de8dec75d7aab85b567b6ccd41ad312451b948a7413f0a142fd40d49347",
            "baseFee" : "0x0b"
        },
        "pre" : {
            "0x095e7baea6a6c7c4c2dfeb977efac326af552d87" : {
                "balance" : "0x0186a0",
                "code" : "0x60003560e060020a90048063c040622614601557005b601b6021565b60006000f35b61014f60008190555056",
                "nonce" : "0x00",
                "storage" : {
                }
            },
            "0xa94f5374fce5edbc8e2a8697c15331677e6ebf0b" : {
                "balance" : "0x012a05f200",
                "code" : "0x",
                "nonce" : "0x00",
                "storage" : {
                }
            }
        },
        "postState" : {
            "0x095e7baea6a6c7c4c2dfeb977efac326af552d87" : {
                "code" : "0x60003560e060020a90048063c040622614601557005b601b6021565b60006000f35b61014f60008190555056",
                "nonce" : "0x00",
                "balance" : "0x0186a1",
                "storage" : {
                    "0x00" : "0x014f"
                }
            },
            "0x2adc25665018aa1fe0e6bc666dac8fc2697ff9ba" : {
                "code" : "0x",
                "nonce" : "0x00",
                "balance" : "0x1bc16d674ec80000",
                "storage" : {
                }
            },
            "0xa94f5374fce5edbc8e2a8697c15331677e6ebf0b" : {
                "code" : "0x",
                "nonce" : "0x01",
                "balance" : "0x0129ff5629",
                "storage" : {
                }
            }
        },
        "network" : "London",
        "sealEngine" : "NoProof",
        "lastblockhash" : "0xae38b9c457f21a6f031749ce9147120b4d4b853e826d8c2988b2eb8504690280",
        "genesisRLP" : "0xf901faf901f5a00000000000000000000000000000000000000000000000000000000000000000a01dcc4de8dec75d7aab85b567b6ccd41ad312451b948a7413f0a142fd40d49347942adc25665018aa1fe0e6bc666dac8fc2697ff9baa00e134d647235ac843def389114f07ad78b4e052b7571c634d5d4bb6a2c133c8aa056e81f171bcc55a6ff8345e692c0f86e5b48e01b996cadc001622fb5e363b421a056e81f171bcc55a6ff8345e692c0f86e5b48e01b996cadc001622fb5e363b421b901000000000000000000000000000000000000000000000000000000000000000000000000000000000000000000000000000000000000000000000000000000000000000000000000000000000000000000000000000000000000000000000000000000000000000000000000000000000000000000000000000000000000000000000000000000000000000000000000000000000000000000000000000000000000000000000000000000000000000000000000000000000000000000000000000000000000000000000000000000000000000000000000000000000000000000000000000000000000000000000000000000000000000000000000000000000083020000808405f5e100808000a000000000000000000000000000000000000000000000000000000000000000008800000000000000000bc0c0",
        "blocks" : [
            {
                "rlp" : "0xf90265f901f9a0d460dd2e33e309d5365e66c7ec4f52fb0137b8e247966122eb3a5476986b3cf6a01dcc4de8dec75d7aab85b567b6ccd41ad312451b948a7413f0a142fd40d49347942adc25665018aa1fe0e6bc666dac8fc2697ff9baa03b4423ab231716947030b4543f8e04913e642b3d5686cecd516abb7c3f9e77e8a013fb03572f8ebee1be5b22f1dd7ff7bf97b574e866f9145de1e6b163a723a26ba043f51dab2bfa4d8d9fd5b6337089a0466b023fa97bfc4a485d0e61596066c20db901000000000000000000000000000000000000000000000000000000000000000000000000000000000000000000000000000000000000000000000000000000000000000000000000000000000000000000000000000000000000000000000000000000000000000000000000000000000000000000000000000000000000000000000000000000000000000000000000000000000000000000000000000000000000000000000000000000000000000000000000000000000000000000000000000000000000000000000000000000000000000000000000000000000000000000000000000000000000000000000000000000000000000000000000000000000083020000018405f5e10082a92f8203e800a000000000000000000000000000000000000000000000000000000000000000008800000000000000000af866f864800a830493e094095e7baea6a6c7c4c2dfeb977efac326af552d870184c04062261ba02d995d64dce670c6419d7c5f1fadeaf15b25f94b2d4e92ac1e88f5a2b2db20b9a06f6b66be48bea28bcc2d0aedd9c865b854e6c0171c1c77c468df76f2c274228ec0",
                "blockHeader" : {
                    "bloom" : "0x00000000000000000000000000000000000000000000000000000000000000000000000000000000000000000000000000000000000000000000000000000000000000000000000000000000000000000000000000000000000000000000000000000000000000000000000000000000000000000000000000000000000000000000000000000000000000000000000000000000000000000000000000000000000000000000000000000000000000000000000000000000000000000000000000000000000000000000000000000000000000000000000000000000000000000000000000000000000000000000000000000000000000000000000000000000",
                    "coinbase" : "0x2adc25665018aa1fe0e6bc666dac8fc2697ff9ba",
                    "difficulty" : "0x020000",
                    "extraData" : "0x00",
                    "gasLimit" : "0x05f5e100",
                    "gasUsed" : "0xa92f",
                    "hash" : "0xae38b9c457f21a6f031749ce9147120b4d4b853e826d8c2988b2eb8504690280",
                    "mixHash" : "0x0000000000000000000000000000000000000000000000000000000000000000",
                    "nonce" : "0x0000000000000000",
                    "number" : "0x01",
                    "parentHash" : "0xd460dd2e33e309d5365e66c7ec4f52fb0137b8e247966122eb3a5476986b3cf6",
                    "receiptTrie" : "0x43f51dab2bfa4d8d9fd5b6337089a0466b023fa97bfc4a485d0e61596066c20d",
                    "stateRoot" : "0x3b4423ab231716947030b4543f8e04913e642b3d5686cecd516abb7c3f9e77e8",
                    "timestamp" : "0x03e8",
                    "transactionsTrie" : "0x13fb03572f8ebee1be5b22f1dd7ff7bf97b574e866f9145de1e6b163a723a26b",
                    "uncleHash" : "0x1dcc4de8dec75d7aab85b567b6ccd41ad312451b948a7413f0a142fd40d49347",
                    "baseFee" : "0x0a"
                },
                "transactions" : [
                    {
                        "data" : "0xc0406226",
                        "gasLimit" : "0x0493e0",
                        "gasPrice" : "0x0a",
                        "nonce" : "0x00",
                        "to" : "0x095e7baea6a6c7c4c2dfeb977efac326af552d87",
                        "value" : "0x01",
                        "v" : "0x1b",
                        "r" : "0x2d995d64dce670c6419d7c5f1fadeaf15b25f94b2d4e92ac1e88f5a2b2db20b9",
                        "s" : "0x6f6b66be48bea28bcc2d0aedd9c865b854e6c0171c1c77c468df76f2c274228e"
                    }
                ],
                "uncleHeaders" : [
                ]
            }
        ]
    }
}