{
    "RecursiveCreateContracts_d0g0v0_Berlin" : {
        "_info" : {
            "comment" : "",
            "filling-rpc-server" : "evm version 1.10.4-unstable-966ee3ae-20210528",
            "filling-tool-version" : "retesteth-0.1.1-eip1559+commit.658fc3a8.Linux.g++",
            "lllcversion" : "Version: 0.5.14-develop.2021.5.18+commit.14c9d5de.mod.Linux.g++",
            "source" : "src/GeneralStateTestsFiller/stSolidityTest/RecursiveCreateContractsFiller.json",
            "sourceHash" : "c182c818724dff1ba1e215bda1d3136764d3d33ef37ef5e7cc4180f942de37d6"
        },
        "genesisBlockHeader" : {
            "bloom" : "0x00000000000000000000000000000000000000000000000000000000000000000000000000000000000000000000000000000000000000000000000000000000000000000000000000000000000000000000000000000000000000000000000000000000000000000000000000000000000000000000000000000000000000000000000000000000000000000000000000000000000000000000000000000000000000000000000000000000000000000000000000000000000000000000000000000000000000000000000000000000000000000000000000000000000000000000000000000000000000000000000000000000000000000000000000000000",
            "coinbase" : "0x2adc25665018aa1fe0e6bc666dac8fc2697ff9ba",
            "difficulty" : "0x020000",
            "extraData" : "0x00",
            "gasLimit" : "0x05f5e100",
            "gasUsed" : "0x00",
            "hash" : "0xc42efbce965194aeb03d6a8f85ad96836924b3a11e65bca7840db49971bb7f0e",
            "mixHash" : "0x0000000000000000000000000000000000000000000000000000000000000000",
            "nonce" : "0x0000000000000000",
            "number" : "0x00",
            "parentHash" : "0x0000000000000000000000000000000000000000000000000000000000000000",
            "receiptTrie" : "0x56e81f171bcc55a6ff8345e692c0f86e5b48e01b996cadc001622fb5e363b421",
            "stateRoot" : "0x209c57aa5a57c319685124b7a3ca2e62e9cbf6697d48a133054861c766cf846a",
            "timestamp" : "0x00",
            "transactionsTrie" : "0x56e81f171bcc55a6ff8345e692c0f86e5b48e01b996cadc001622fb5e363b421",
            "uncleHash" : "0x1dcc4de8dec75d7aab85b567b6ccd41ad312451b948a7413f0a142fd40d49347"
        },
        "pre" : {
            "0x095e7baea6a6c7c4c2dfeb977efac326af552d87" : {
                "balance" : "0x314dc6448d9338c15b0a00000000",
                "code" : "0x60003560e060020a90048063820b13f614610021578063a444f5e91461003257005b61002c600435610093565b60006000f35b61003d600435610043565b60006000f35b600073095e7baea6a6c7c4c2dfeb977efac326af552d8760008190555081600181905550606b6101ad600039606b600054600160a060020a0316815260200182815260200160006000f090505050565b600060c86100e560003960c8600054600160a060020a0316815260200182815260200160006000f0905080600160a060020a0316600060026000600060006000848787f16100dd57005b50505050505600604060c860043960045160245160006001820391508160008190555060008211602657604c565b606b605d600039606b83600160a060020a0316815260200182815260200160006000f090505b505050600180605c6000396000f300006040606b6004396004516024516001810390508060008190555060008111602457605b565b81600160a060020a031663820b13f6600060008260e060020a026000526004858152602001600060008660325a03f1605857005b50505b5050600180606a6000396000f300006040606b6004396004516024516001810390508060008190555060008111602457605b565b81600160a060020a031663820b13f6600060008260e060020a026000526004858152602001600060008660325a03f1605857005b50505b5050600180606a6000396000f30000",
                "nonce" : "0x00",
                "storage" : {
                }
            },
            "0xa94f5374fce5edbc8e2a8697c15331677e6ebf0b" : {
                "balance" : "0x1dcd6500",
                "code" : "0x",
                "nonce" : "0x00",
                "storage" : {
                }
            }
        },
        "postState" : {
            "0x095e7baea6a6c7c4c2dfeb977efac326af552d87" : {
                "code" : "0x60003560e060020a90048063820b13f614610021578063a444f5e91461003257005b61002c600435610093565b60006000f35b61003d600435610043565b60006000f35b600073095e7baea6a6c7c4c2dfeb977efac326af552d8760008190555081600181905550606b6101ad600039606b600054600160a060020a0316815260200182815260200160006000f090505050565b600060c86100e560003960c8600054600160a060020a0316815260200182815260200160006000f0905080600160a060020a0316600060026000600060006000848787f16100dd57005b50505050505600604060c860043960045160245160006001820391508160008190555060008211602657604c565b606b605d600039606b83600160a060020a0316815260200182815260200160006000f090505b505050600180605c6000396000f300006040606b6004396004516024516001810390508060008190555060008111602457605b565b81600160a060020a031663820b13f6600060008260e060020a026000526004858152602001600060008660325a03f1605857005b50505b5050600180606a6000396000f300006040606b6004396004516024516001810390508060008190555060008111602457605b565b81600160a060020a031663820b13f6600060008260e060020a026000526004858152602001600060008660325a03f1605857005b50505b5050600180606a6000396000f30000",
                "nonce" : "0x01",
                "balance" : "0x314dc6448d9338c15b0a00000001",
                "storage" : {
                    "0x00" : "0x095e7baea6a6c7c4c2dfeb977efac326af552d87",
                    "0x01" : "0x0304"
                }
            },
            "0x2adc25665018aa1fe0e6bc666dac8fc2697ff9ba" : {
                "code" : "0x",
                "nonce" : "0x00",
                "balance" : "0x1bc16d674ef4e124",
                "storage" : {
                }
            },
            "0xa94f5374fce5edbc8e2a8697c15331677e6ebf0b" : {
                "code" : "0x",
                "nonce" : "0x01",
                "balance" : "0x1da083db",
                "storage" : {
                }
            },
            "0xd2571607e241ecf590ed94b12d87c94babe36db6" : {
                "code" : "0x",
                "nonce" : "0x01",
                "balance" : "0x00",
                "storage" : {
                    "0x00" : "0x0303"
                }
            }
        },
        "network" : "Berlin",
        "sealEngine" : "NoProof",
        "lastblockhash" : "0x15bea04abd24033c1ce1c0bed0fa288ebefba4ab00bb59be82be3e9e6d85bd47",
        "genesisRLP" : "0xf901f9f901f4a00000000000000000000000000000000000000000000000000000000000000000a01dcc4de8dec75d7aab85b567b6ccd41ad312451b948a7413f0a142fd40d49347942adc25665018aa1fe0e6bc666dac8fc2697ff9baa0209c57aa5a57c319685124b7a3ca2e62e9cbf6697d48a133054861c766cf846aa056e81f171bcc55a6ff8345e692c0f86e5b48e01b996cadc001622fb5e363b421a056e81f171bcc55a6ff8345e692c0f86e5b48e01b996cadc001622fb5e363b421b901000000000000000000000000000000000000000000000000000000000000000000000000000000000000000000000000000000000000000000000000000000000000000000000000000000000000000000000000000000000000000000000000000000000000000000000000000000000000000000000000000000000000000000000000000000000000000000000000000000000000000000000000000000000000000000000000000000000000000000000000000000000000000000000000000000000000000000000000000000000000000000000000000000000000000000000000000000000000000000000000000000000000000000000000000000000083020000808405f5e100808000a00000000000000000000000000000000000000000000000000000000000000000880000000000000000c0c0",
        "blocks" : [
            {
                "rlp" : "0xf90285f901f9a0c42efbce965194aeb03d6a8f85ad96836924b3a11e65bca7840db49971bb7f0ea01dcc4de8dec75d7aab85b567b6ccd41ad312451b948a7413f0a142fd40d49347942adc25665018aa1fe0e6bc666dac8fc2697ff9baa0d22b042696278395ef8a60af9160cfddab8fdda163174272f76fa5c81d6887c9a095f4480ca4311389310011967115fec78d2b179ebf3c8b9aa8dba2e1722968a9a0a464fcb51088d87ccfc15b6e9892a422ac120416e41b5b7b83ff0760dff8e36fb901000000000000000000000000000000000000000000000000000000000000000000000000000000000000000000000000000000000000000000000000000000000000000000000000000000000000000000000000000000000000000000000000000000000000000000000000000000000000000000000000000000000000000000000000000000000000000000000000000000000000000000000000000000000000000000000000000000000000000000000000000000000000000000000000000000000000000000000000000000000000000000000000000000000000000000000000000000000000000000000000000000000000000000000000000000000083020000018405f5e10083047cea8203e800a00000000000000000000000000000000000000000000000000000000000000000880000000000000000f886f884800a830493e094095e7baea6a6c7c4c2dfeb977efac326af552d8701a4a444f5e900000000000000000000000000000000000000000000000000000000000003041ca0d6fd1ea957d171557261a40c6e9f04c0d6c4d8701b015264426ccc7c0b6c9c6ea05f5f6d833bab78687184a12e5cf8142f353a94efdacb77acbb8cb77c09ae7259c0",
                "blockHeader" : {
                    "bloom" : "0x00000000000000000000000000000000000000000000000000000000000000000000000000000000000000000000000000000000000000000000000000000000000000000000000000000000000000000000000000000000000000000000000000000000000000000000000000000000000000000000000000000000000000000000000000000000000000000000000000000000000000000000000000000000000000000000000000000000000000000000000000000000000000000000000000000000000000000000000000000000000000000000000000000000000000000000000000000000000000000000000000000000000000000000000000000000",
                    "coinbase" : "0x2adc25665018aa1fe0e6bc666dac8fc2697ff9ba",
                    "difficulty" : "0x020000",
                    "extraData" : "0x00",
                    "gasLimit" : "0x05f5e100",
                    "gasUsed" : "0x047cea",
                    "hash" : "0x15bea04abd24033c1ce1c0bed0fa288ebefba4ab00bb59be82be3e9e6d85bd47",
                    "mixHash" : "0x0000000000000000000000000000000000000000000000000000000000000000",
                    "nonce" : "0x0000000000000000",
                    "number" : "0x01",
                    "parentHash" : "0xc42efbce965194aeb03d6a8f85ad96836924b3a11e65bca7840db49971bb7f0e",
                    "receiptTrie" : "0xa464fcb51088d87ccfc15b6e9892a422ac120416e41b5b7b83ff0760dff8e36f",
                    "stateRoot" : "0xd22b042696278395ef8a60af9160cfddab8fdda163174272f76fa5c81d6887c9",
                    "timestamp" : "0x03e8",
                    "transactionsTrie" : "0x95f4480ca4311389310011967115fec78d2b179ebf3c8b9aa8dba2e1722968a9",
                    "uncleHash" : "0x1dcc4de8dec75d7aab85b567b6ccd41ad312451b948a7413f0a142fd40d49347"
                },
                "transactions" : [
                    {
                        "data" : "0xa444f5e90000000000000000000000000000000000000000000000000000000000000304",
                        "gasLimit" : "0x0493e0",
                        "gasPrice" : "0x0a",
                        "nonce" : "0x00",
                        "to" : "0x095e7baea6a6c7c4c2dfeb977efac326af552d87",
                        "value" : "0x01",
                        "v" : "0x1c",
                        "r" : "0xd6fd1ea957d171557261a40c6e9f04c0d6c4d8701b015264426ccc7c0b6c9c6e",
                        "s" : "0x5f5f6d833bab78687184a12e5cf8142f353a94efdacb77acbb8cb77c09ae7259"
                    }
                ],
                "uncleHeaders" : [
                ]
            }
        ]
    },
    "RecursiveCreateContracts_d0g0v0_Istanbul" : {
        "_info" : {
            "comment" : "",
            "filling-rpc-server" : "evm version 1.10.4-unstable-966ee3ae-20210528",
            "filling-tool-version" : "retesteth-0.1.1-eip1559+commit.658fc3a8.Linux.g++",
            "lllcversion" : "Version: 0.5.14-develop.2021.5.18+commit.14c9d5de.mod.Linux.g++",
            "source" : "src/GeneralStateTestsFiller/stSolidityTest/RecursiveCreateContractsFiller.json",
            "sourceHash" : "c182c818724dff1ba1e215bda1d3136764d3d33ef37ef5e7cc4180f942de37d6"
        },
        "genesisBlockHeader" : {
            "bloom" : "0x00000000000000000000000000000000000000000000000000000000000000000000000000000000000000000000000000000000000000000000000000000000000000000000000000000000000000000000000000000000000000000000000000000000000000000000000000000000000000000000000000000000000000000000000000000000000000000000000000000000000000000000000000000000000000000000000000000000000000000000000000000000000000000000000000000000000000000000000000000000000000000000000000000000000000000000000000000000000000000000000000000000000000000000000000000000",
            "coinbase" : "0x2adc25665018aa1fe0e6bc666dac8fc2697ff9ba",
            "difficulty" : "0x020000",
            "extraData" : "0x00",
            "gasLimit" : "0x05f5e100",
            "gasUsed" : "0x00",
            "hash" : "0xc42efbce965194aeb03d6a8f85ad96836924b3a11e65bca7840db49971bb7f0e",
            "mixHash" : "0x0000000000000000000000000000000000000000000000000000000000000000",
            "nonce" : "0x0000000000000000",
            "number" : "0x00",
            "parentHash" : "0x0000000000000000000000000000000000000000000000000000000000000000",
            "receiptTrie" : "0x56e81f171bcc55a6ff8345e692c0f86e5b48e01b996cadc001622fb5e363b421",
            "stateRoot" : "0x209c57aa5a57c319685124b7a3ca2e62e9cbf6697d48a133054861c766cf846a",
            "timestamp" : "0x00",
            "transactionsTrie" : "0x56e81f171bcc55a6ff8345e692c0f86e5b48e01b996cadc001622fb5e363b421",
            "uncleHash" : "0x1dcc4de8dec75d7aab85b567b6ccd41ad312451b948a7413f0a142fd40d49347"
        },
        "pre" : {
            "0x095e7baea6a6c7c4c2dfeb977efac326af552d87" : {
                "balance" : "0x314dc6448d9338c15b0a00000000",
                "code" : "0x60003560e060020a90048063820b13f614610021578063a444f5e91461003257005b61002c600435610093565b60006000f35b61003d600435610043565b60006000f35b600073095e7baea6a6c7c4c2dfeb977efac326af552d8760008190555081600181905550606b6101ad600039606b600054600160a060020a0316815260200182815260200160006000f090505050565b600060c86100e560003960c8600054600160a060020a0316815260200182815260200160006000f0905080600160a060020a0316600060026000600060006000848787f16100dd57005b50505050505600604060c860043960045160245160006001820391508160008190555060008211602657604c565b606b605d600039606b83600160a060020a0316815260200182815260200160006000f090505b505050600180605c6000396000f300006040606b6004396004516024516001810390508060008190555060008111602457605b565b81600160a060020a031663820b13f6600060008260e060020a026000526004858152602001600060008660325a03f1605857005b50505b5050600180606a6000396000f300006040606b6004396004516024516001810390508060008190555060008111602457605b565b81600160a060020a031663820b13f6600060008260e060020a026000526004858152602001600060008660325a03f1605857005b50505b5050600180606a6000396000f30000",
                "nonce" : "0x00",
                "storage" : {
                }
            },
            "0xa94f5374fce5edbc8e2a8697c15331677e6ebf0b" : {
                "balance" : "0x1dcd6500",
                "code" : "0x",
                "nonce" : "0x00",
                "storage" : {
                }
            }
        },
        "postState" : {
            "0x095e7baea6a6c7c4c2dfeb977efac326af552d87" : {
                "code" : "0x60003560e060020a90048063820b13f614610021578063a444f5e91461003257005b61002c600435610093565b60006000f35b61003d600435610043565b60006000f35b600073095e7baea6a6c7c4c2dfeb977efac326af552d8760008190555081600181905550606b6101ad600039606b600054600160a060020a0316815260200182815260200160006000f090505050565b600060c86100e560003960c8600054600160a060020a0316815260200182815260200160006000f0905080600160a060020a0316600060026000600060006000848787f16100dd57005b50505050505600604060c860043960045160245160006001820391508160008190555060008211602657604c565b606b605d600039606b83600160a060020a0316815260200182815260200160006000f090505b505050600180605c6000396000f300006040606b6004396004516024516001810390508060008190555060008111602457605b565b81600160a060020a031663820b13f6600060008260e060020a026000526004858152602001600060008660325a03f1605857005b50505b5050600180606a6000396000f300006040606b6004396004516024516001810390508060008190555060008111602457605b565b81600160a060020a031663820b13f6600060008260e060020a026000526004858152602001600060008660325a03f1605857005b50505b5050600180606a6000396000f30000",
                "nonce" : "0x01",
                "balance" : "0x314dc6448d9338c15b0a00000001",
                "storage" : {
                    "0x00" : "0x095e7baea6a6c7c4c2dfeb977efac326af552d87",
                    "0x01" : "0x0304"
                }
            },
            "0x2adc25665018aa1fe0e6bc666dac8fc2697ff9ba" : {
                "code" : "0x",
                "nonce" : "0x00",
                "balance" : "0x1bc16d674ef4dbf2",
                "storage" : {
                }
            },
            "0xa94f5374fce5edbc8e2a8697c15331677e6ebf0b" : {
                "code" : "0x",
                "nonce" : "0x01",
                "balance" : "0x1da0890d",
                "storage" : {
                }
            },
            "0xd2571607e241ecf590ed94b12d87c94babe36db6" : {
                "code" : "0x",
                "nonce" : "0x01",
                "balance" : "0x00",
                "storage" : {
                    "0x00" : "0x0303"
                }
            }
        },
        "network" : "Istanbul",
        "sealEngine" : "NoProof",
        "lastblockhash" : "0x09a7d5703db83a35e615f0fd9f142419e7d5fb59d5a02597ff600fb006579bcc",
        "genesisRLP" : "0xf901f9f901f4a00000000000000000000000000000000000000000000000000000000000000000a01dcc4de8dec75d7aab85b567b6ccd41ad312451b948a7413f0a142fd40d49347942adc25665018aa1fe0e6bc666dac8fc2697ff9baa0209c57aa5a57c319685124b7a3ca2e62e9cbf6697d48a133054861c766cf846aa056e81f171bcc55a6ff8345e692c0f86e5b48e01b996cadc001622fb5e363b421a056e81f171bcc55a6ff8345e692c0f86e5b48e01b996cadc001622fb5e363b421b901000000000000000000000000000000000000000000000000000000000000000000000000000000000000000000000000000000000000000000000000000000000000000000000000000000000000000000000000000000000000000000000000000000000000000000000000000000000000000000000000000000000000000000000000000000000000000000000000000000000000000000000000000000000000000000000000000000000000000000000000000000000000000000000000000000000000000000000000000000000000000000000000000000000000000000000000000000000000000000000000000000000000000000000000000000000083020000808405f5e100808000a00000000000000000000000000000000000000000000000000000000000000000880000000000000000c0c0",
        "blocks" : [
            {
                "rlp" : "0xf90285f901f9a0c42efbce965194aeb03d6a8f85ad96836924b3a11e65bca7840db49971bb7f0ea01dcc4de8dec75d7aab85b567b6ccd41ad312451b948a7413f0a142fd40d49347942adc25665018aa1fe0e6bc666dac8fc2697ff9baa0aa20d284fbdbf22b813bb7eaeb98828f631f899bd66a7167f1e6f3673abfd24fa095f4480ca4311389310011967115fec78d2b179ebf3c8b9aa8dba2e1722968a9a04d1a5d6a1628c67d5a580e176dfcb4b860725bca78122c53ff41deabdea54ad1b901000000000000000000000000000000000000000000000000000000000000000000000000000000000000000000000000000000000000000000000000000000000000000000000000000000000000000000000000000000000000000000000000000000000000000000000000000000000000000000000000000000000000000000000000000000000000000000000000000000000000000000000000000000000000000000000000000000000000000000000000000000000000000000000000000000000000000000000000000000000000000000000000000000000000000000000000000000000000000000000000000000000000000000000000000000000083020000018405f5e10083047c658203e800a00000000000000000000000000000000000000000000000000000000000000000880000000000000000f886f884800a830493e094095e7baea6a6c7c4c2dfeb977efac326af552d8701a4a444f5e900000000000000000000000000000000000000000000000000000000000003041ca0d6fd1ea957d171557261a40c6e9f04c0d6c4d8701b015264426ccc7c0b6c9c6ea05f5f6d833bab78687184a12e5cf8142f353a94efdacb77acbb8cb77c09ae7259c0",
                "blockHeader" : {
                    "bloom" : "0x00000000000000000000000000000000000000000000000000000000000000000000000000000000000000000000000000000000000000000000000000000000000000000000000000000000000000000000000000000000000000000000000000000000000000000000000000000000000000000000000000000000000000000000000000000000000000000000000000000000000000000000000000000000000000000000000000000000000000000000000000000000000000000000000000000000000000000000000000000000000000000000000000000000000000000000000000000000000000000000000000000000000000000000000000000000",
                    "coinbase" : "0x2adc25665018aa1fe0e6bc666dac8fc2697ff9ba",
                    "difficulty" : "0x020000",
                    "extraData" : "0x00",
                    "gasLimit" : "0x05f5e100",
                    "gasUsed" : "0x047c65",
                    "hash" : "0x09a7d5703db83a35e615f0fd9f142419e7d5fb59d5a02597ff600fb006579bcc",
                    "mixHash" : "0x0000000000000000000000000000000000000000000000000000000000000000",
                    "nonce" : "0x0000000000000000",
                    "number" : "0x01",
                    "parentHash" : "0xc42efbce965194aeb03d6a8f85ad96836924b3a11e65bca7840db49971bb7f0e",
                    "receiptTrie" : "0x4d1a5d6a1628c67d5a580e176dfcb4b860725bca78122c53ff41deabdea54ad1",
                    "stateRoot" : "0xaa20d284fbdbf22b813bb7eaeb98828f631f899bd66a7167f1e6f3673abfd24f",
                    "timestamp" : "0x03e8",
                    "transactionsTrie" : "0x95f4480ca4311389310011967115fec78d2b179ebf3c8b9aa8dba2e1722968a9",
                    "uncleHash" : "0x1dcc4de8dec75d7aab85b567b6ccd41ad312451b948a7413f0a142fd40d49347"
                },
                "transactions" : [
                    {
                        "data" : "0xa444f5e90000000000000000000000000000000000000000000000000000000000000304",
                        "gasLimit" : "0x0493e0",
                        "gasPrice" : "0x0a",
                        "nonce" : "0x00",
                        "to" : "0x095e7baea6a6c7c4c2dfeb977efac326af552d87",
                        "value" : "0x01",
                        "v" : "0x1c",
                        "r" : "0xd6fd1ea957d171557261a40c6e9f04c0d6c4d8701b015264426ccc7c0b6c9c6e",
                        "s" : "0x5f5f6d833bab78687184a12e5cf8142f353a94efdacb77acbb8cb77c09ae7259"
                    }
                ],
                "uncleHeaders" : [
                ]
            }
        ]
    },
    "RecursiveCreateContracts_d0g0v0_London" : {
        "_info" : {
            "comment" : "",
            "filling-rpc-server" : "evm version 1.10.4-unstable-966ee3ae-20210528",
            "filling-tool-version" : "retesteth-0.1.1-eip1559+commit.658fc3a8.Linux.g++",
            "lllcversion" : "Version: 0.5.14-develop.2021.5.18+commit.14c9d5de.mod.Linux.g++",
            "source" : "src/GeneralStateTestsFiller/stSolidityTest/RecursiveCreateContractsFiller.json",
            "sourceHash" : "c182c818724dff1ba1e215bda1d3136764d3d33ef37ef5e7cc4180f942de37d6"
        },
        "genesisBlockHeader" : {
            "bloom" : "0x00000000000000000000000000000000000000000000000000000000000000000000000000000000000000000000000000000000000000000000000000000000000000000000000000000000000000000000000000000000000000000000000000000000000000000000000000000000000000000000000000000000000000000000000000000000000000000000000000000000000000000000000000000000000000000000000000000000000000000000000000000000000000000000000000000000000000000000000000000000000000000000000000000000000000000000000000000000000000000000000000000000000000000000000000000000",
            "coinbase" : "0x2adc25665018aa1fe0e6bc666dac8fc2697ff9ba",
            "difficulty" : "0x020000",
            "extraData" : "0x00",
            "gasLimit" : "0x05f5e100",
            "gasUsed" : "0x00",
            "hash" : "0x4f1cab78e856188d99a31bcc5432b0c8c1d83e4443d2650a7bf26c1b67a846a1",
            "mixHash" : "0x0000000000000000000000000000000000000000000000000000000000000000",
            "nonce" : "0x0000000000000000",
            "number" : "0x00",
            "parentHash" : "0x0000000000000000000000000000000000000000000000000000000000000000",
            "receiptTrie" : "0x56e81f171bcc55a6ff8345e692c0f86e5b48e01b996cadc001622fb5e363b421",
            "stateRoot" : "0x209c57aa5a57c319685124b7a3ca2e62e9cbf6697d48a133054861c766cf846a",
            "timestamp" : "0x00",
            "transactionsTrie" : "0x56e81f171bcc55a6ff8345e692c0f86e5b48e01b996cadc001622fb5e363b421",
            "uncleHash" : "0x1dcc4de8dec75d7aab85b567b6ccd41ad312451b948a7413f0a142fd40d49347",
            "baseFee" : "0x0b"
        },
        "pre" : {
            "0x095e7baea6a6c7c4c2dfeb977efac326af552d87" : {
                "balance" : "0x314dc6448d9338c15b0a00000000",
                "code" : "0x60003560e060020a90048063820b13f614610021578063a444f5e91461003257005b61002c600435610093565b60006000f35b61003d600435610043565b60006000f35b600073095e7baea6a6c7c4c2dfeb977efac326af552d8760008190555081600181905550606b6101ad600039606b600054600160a060020a0316815260200182815260200160006000f090505050565b600060c86100e560003960c8600054600160a060020a0316815260200182815260200160006000f0905080600160a060020a0316600060026000600060006000848787f16100dd57005b50505050505600604060c860043960045160245160006001820391508160008190555060008211602657604c565b606b605d600039606b83600160a060020a0316815260200182815260200160006000f090505b505050600180605c6000396000f300006040606b6004396004516024516001810390508060008190555060008111602457605b565b81600160a060020a031663820b13f6600060008260e060020a026000526004858152602001600060008660325a03f1605857005b50505b5050600180606a6000396000f300006040606b6004396004516024516001810390508060008190555060008111602457605b565b81600160a060020a031663820b13f6600060008260e060020a026000526004858152602001600060008660325a03f1605857005b50505b5050600180606a6000396000f30000",
                "nonce" : "0x00",
                "storage" : {
                }
            },
            "0xa94f5374fce5edbc8e2a8697c15331677e6ebf0b" : {
                "balance" : "0x1dcd6500",
                "code" : "0x",
                "nonce" : "0x00",
                "storage" : {
                }
            }
        },
        "postState" : {
            "0x095e7baea6a6c7c4c2dfeb977efac326af552d87" : {
                "code" : "0x60003560e060020a90048063820b13f614610021578063a444f5e91461003257005b61002c600435610093565b60006000f35b61003d600435610043565b60006000f35b600073095e7baea6a6c7c4c2dfeb977efac326af552d8760008190555081600181905550606b6101ad600039606b600054600160a060020a0316815260200182815260200160006000f090505050565b600060c86100e560003960c8600054600160a060020a0316815260200182815260200160006000f0905080600160a060020a0316600060026000600060006000848787f16100dd57005b50505050505600604060c860043960045160245160006001820391508160008190555060008211602657604c565b606b605d600039606b83600160a060020a0316815260200182815260200160006000f090505b505050600180605c6000396000f300006040606b6004396004516024516001810390508060008190555060008111602457605b565b81600160a060020a031663820b13f6600060008260e060020a026000526004858152602001600060008660325a03f1605857005b50505b5050600180606a6000396000f300006040606b6004396004516024516001810390508060008190555060008111602457605b565b81600160a060020a031663820b13f6600060008260e060020a026000526004858152602001600060008660325a03f1605857005b50505b5050600180606a6000396000f30000",
                "nonce" : "0x01",
                "balance" : "0x314dc6448d9338c15b0a00000001",
                "storage" : {
                    "0x00" : "0x095e7baea6a6c7c4c2dfeb977efac326af552d87",
                    "0x01" : "0x0304"
                }
            },
            "0x2adc25665018aa1fe0e6bc666dac8fc2697ff9ba" : {
                "code" : "0x",
                "nonce" : "0x00",
                "balance" : "0x1bc16d674ec80000",
                "storage" : {
                }
            },
            "0xa94f5374fce5edbc8e2a8697c15331677e6ebf0b" : {
                "code" : "0x",
                "nonce" : "0x01",
                "balance" : "0x1da083db",
                "storage" : {
                }
            },
            "0xd2571607e241ecf590ed94b12d87c94babe36db6" : {
                "code" : "0x",
                "nonce" : "0x01",
                "balance" : "0x00",
                "storage" : {
                    "0x00" : "0x0303"
                }
            }
        },
        "network" : "London",
        "sealEngine" : "NoProof",
        "lastblockhash" : "0x332858539b6b73c5c3ac58098719bab3826576c0f47c1b618182f741d22a48a3",
        "genesisRLP" : "0xf901faf901f5a00000000000000000000000000000000000000000000000000000000000000000a01dcc4de8dec75d7aab85b567b6ccd41ad312451b948a7413f0a142fd40d49347942adc25665018aa1fe0e6bc666dac8fc2697ff9baa0209c57aa5a57c319685124b7a3ca2e62e9cbf6697d48a133054861c766cf846aa056e81f171bcc55a6ff8345e692c0f86e5b48e01b996cadc001622fb5e363b421a056e81f171bcc55a6ff8345e692c0f86e5b48e01b996cadc001622fb5e363b421b901000000000000000000000000000000000000000000000000000000000000000000000000000000000000000000000000000000000000000000000000000000000000000000000000000000000000000000000000000000000000000000000000000000000000000000000000000000000000000000000000000000000000000000000000000000000000000000000000000000000000000000000000000000000000000000000000000000000000000000000000000000000000000000000000000000000000000000000000000000000000000000000000000000000000000000000000000000000000000000000000000000000000000000000000000000000083020000808405f5e100808000a000000000000000000000000000000000000000000000000000000000000000008800000000000000000bc0c0",
        "blocks" : [
            {
                "rlp" : "0xf90286f901faa04f1cab78e856188d99a31bcc5432b0c8c1d83e4443d2650a7bf26c1b67a846a1a01dcc4de8dec75d7aab85b567b6ccd41ad312451b948a7413f0a142fd40d49347942adc25665018aa1fe0e6bc666dac8fc2697ff9baa039246fc909478900df206f2e56376519e20878c8b44b7e682abf478f84816b97a095f4480ca4311389310011967115fec78d2b179ebf3c8b9aa8dba2e1722968a9a0a464fcb51088d87ccfc15b6e9892a422ac120416e41b5b7b83ff0760dff8e36fb901000000000000000000000000000000000000000000000000000000000000000000000000000000000000000000000000000000000000000000000000000000000000000000000000000000000000000000000000000000000000000000000000000000000000000000000000000000000000000000000000000000000000000000000000000000000000000000000000000000000000000000000000000000000000000000000000000000000000000000000000000000000000000000000000000000000000000000000000000000000000000000000000000000000000000000000000000000000000000000000000000000000000000000000000000000000083020000018405f5e10083047cea8203e800a000000000000000000000000000000000000000000000000000000000000000008800000000000000000af886f884800a830493e094095e7baea6a6c7c4c2dfeb977efac326af552d8701a4a444f5e900000000000000000000000000000000000000000000000000000000000003041ca0d6fd1ea957d171557261a40c6e9f04c0d6c4d8701b015264426ccc7c0b6c9c6ea05f5f6d833bab78687184a12e5cf8142f353a94efdacb77acbb8cb77c09ae7259c0",
                "blockHeader" : {
                    "bloom" : "0x00000000000000000000000000000000000000000000000000000000000000000000000000000000000000000000000000000000000000000000000000000000000000000000000000000000000000000000000000000000000000000000000000000000000000000000000000000000000000000000000000000000000000000000000000000000000000000000000000000000000000000000000000000000000000000000000000000000000000000000000000000000000000000000000000000000000000000000000000000000000000000000000000000000000000000000000000000000000000000000000000000000000000000000000000000000",
                    "coinbase" : "0x2adc25665018aa1fe0e6bc666dac8fc2697ff9ba",
                    "difficulty" : "0x020000",
                    "extraData" : "0x00",
                    "gasLimit" : "0x05f5e100",
                    "gasUsed" : "0x047cea",
                    "hash" : "0x332858539b6b73c5c3ac58098719bab3826576c0f47c1b618182f741d22a48a3",
                    "mixHash" : "0x0000000000000000000000000000000000000000000000000000000000000000",
                    "nonce" : "0x0000000000000000",
                    "number" : "0x01",
                    "parentHash" : "0x4f1cab78e856188d99a31bcc5432b0c8c1d83e4443d2650a7bf26c1b67a846a1",
                    "receiptTrie" : "0xa464fcb51088d87ccfc15b6e9892a422ac120416e41b5b7b83ff0760dff8e36f",
                    "stateRoot" : "0x39246fc909478900df206f2e56376519e20878c8b44b7e682abf478f84816b97",
                    "timestamp" : "0x03e8",
                    "transactionsTrie" : "0x95f4480ca4311389310011967115fec78d2b179ebf3c8b9aa8dba2e1722968a9",
                    "uncleHash" : "0x1dcc4de8dec75d7aab85b567b6ccd41ad312451b948a7413f0a142fd40d49347",
                    "baseFee" : "0x0a"
                },
                "transactions" : [
                    {
                        "data" : "0xa444f5e90000000000000000000000000000000000000000000000000000000000000304",
                        "gasLimit" : "0x0493e0",
                        "gasPrice" : "0x0a",
                        "nonce" : "0x00",
                        "to" : "0x095e7baea6a6c7c4c2dfeb977efac326af552d87",
                        "value" : "0x01",
                        "v" : "0x1c",
                        "r" : "0xd6fd1ea957d171557261a40c6e9f04c0d6c4d8701b015264426ccc7c0b6c9c6e",
                        "s" : "0x5f5f6d833bab78687184a12e5cf8142f353a94efdacb77acbb8cb77c09ae7259"
                    }
                ],
                "uncleHeaders" : [
                ]
            }
        ]
    }
}