{
    "extCodeHashCreatedAndDeletedAccountCall_d0g0v0_Constantinople" : {
        "_info" : {
            "comment" : "EXTCODEHASH/EXTCODESIZE of an account created then deleted via CALL in same transaction",
            "filledwith" : "testeth 1.7.0-alpha.1-20+commit.782a7283",
            "lllcversion" : "Version: 0.5.0-develop.2018.11.9+commit.9709dfe0.Linux.g++",
            "source" : "src/BlockchainTestsFiller/GeneralStateTests/stExtCodeHash/extCodeHashCreatedAndDeletedAccountCall_d0g0v0Filler.json",
            "sourceHash" : "9cb8622d89f1cc09d5f000615c7daa3f1b17b81432c31b5c87e78c7760e92413"
        },
        "blocks" : [
            {
                "blockHeader" : {
                    "bloom" : "0x00000000000000000000000000000000000000000000000000000000000000000000000000000000000000000000000000000000000000000000000000000000000000000000000000000000000000000000000000000000000000000000000000000000000000000000000000000000000000000000000000000000000000000000000000000000000000000000000000000000000000000000000000000000000000000000000000000000000000000000000000000000000000000000000000000000000000000000000000000000000000000000000000000000000000000000000000000000000000000000000000000000000000000000000000000000",
                    "coinbase" : "0x2adc25665018aa1fe0e6bc666dac8fc2697ff9ba",
                    "difficulty" : "0x020000",
                    "extraData" : "0x",
                    "gasLimit" : "0x0f4240",
                    "gasUsed" : "0x01cb8b",
                    "hash" : "0xe3f9b1dfd2826527aae601e8fb7eb53b6269de241afd938c3abde41ed1af1bfd",
                    "mixHash" : "0x0000000000000000000000000000000000000000000000000000000000000000",
                    "nonce" : "0x0000000000000000",
                    "number" : "0x01",
                    "parentHash" : "0x275a05e27b73785c9e8caf6adfb855b8956e28b55c99795eb2e0bfe03e5ff670",
                    "receiptTrie" : "0x2adae12af0f78fd10dcdcb5b99556fa0d99f53355169c8a4ba5c55aef1217560",
                    "stateRoot" : "0xd391c4a5cf4d21a174277939d4c52552f3602d22eb3e338a188a80f698e93277",
                    "timestamp" : "0x03e8",
                    "transactionsTrie" : "0x324788bcaeb3ef4ea52657457b25024fd8e28f4e686f0b44f9df8c55c10854a3",
                    "uncleHash" : "0x1dcc4de8dec75d7aab85b567b6ccd41ad312451b948a7413f0a142fd40d49347"
                },
                "rlp" : "0xf90260f901f8a0275a05e27b73785c9e8caf6adfb855b8956e28b55c99795eb2e0bfe03e5ff670a01dcc4de8dec75d7aab85b567b6ccd41ad312451b948a7413f0a142fd40d49347942adc25665018aa1fe0e6bc666dac8fc2697ff9baa0d391c4a5cf4d21a174277939d4c52552f3602d22eb3e338a188a80f698e93277a0324788bcaeb3ef4ea52657457b25024fd8e28f4e686f0b44f9df8c55c10854a3a02adae12af0f78fd10dcdcb5b99556fa0d99f53355169c8a4ba5c55aef1217560b90100000000000000000000000000000000000000000000000000000000000000000000000000000000000000000000000000000000000000000000000000000000000000000000000000000000000000000000000000000000000000000000000000000000000000000000000000000000000000000000000000000000000000000000000000000000000000000000000000000000000000000000000000000000000000000000000000000000000000000000000000000000000000000000000000000000000000000000000000000000000000000000000000000000000000000000000000000000000000000000000000000000000000000000000000000000008302000001830f42408301cb8b8203e880a00000000000000000000000000000000000000000000000000000000000000000880000000000000000f862f860800183061a8094deadbeef0000000000000000000000000000000001801ca0c202f0d1337e2d44fa1bf35877e7278363f8a0870146a587e8f75bbd10df9240a05cb792200832e3876d0213563d9dc7705e255718f25455ca28eec91736e98c55c0",
                "transactions" : [
                    {
                        "data" : "0x",
                        "gasLimit" : "0x061a80",
                        "gasPrice" : "0x01",
                        "nonce" : "0x00",
                        "r" : "0xc202f0d1337e2d44fa1bf35877e7278363f8a0870146a587e8f75bbd10df9240",
                        "s" : "0x5cb792200832e3876d0213563d9dc7705e255718f25455ca28eec91736e98c55",
                        "to" : "0xdeadbeef00000000000000000000000000000000",
                        "v" : "0x1c",
                        "value" : "0x01"
                    }
                ],
                "uncleHeaders" : [
                ]
            }
        ],
        "genesisBlockHeader" : {
            "bloom" : "0x00000000000000000000000000000000000000000000000000000000000000000000000000000000000000000000000000000000000000000000000000000000000000000000000000000000000000000000000000000000000000000000000000000000000000000000000000000000000000000000000000000000000000000000000000000000000000000000000000000000000000000000000000000000000000000000000000000000000000000000000000000000000000000000000000000000000000000000000000000000000000000000000000000000000000000000000000000000000000000000000000000000000000000000000000000000",
            "coinbase" : "0x2adc25665018aa1fe0e6bc666dac8fc2697ff9ba",
            "difficulty" : "0x020000",
            "extraData" : "0x42",
            "gasLimit" : "0x0f4240",
            "gasUsed" : "0x00",
            "hash" : "0x275a05e27b73785c9e8caf6adfb855b8956e28b55c99795eb2e0bfe03e5ff670",
            "mixHash" : "0x56e81f171bcc55a6ff8345e692c0f86e5b48e01b996cadc001622fb5e363b421",
            "nonce" : "0x0102030405060708",
            "number" : "0x00",
            "parentHash" : "0x0000000000000000000000000000000000000000000000000000000000000000",
            "receiptTrie" : "0x56e81f171bcc55a6ff8345e692c0f86e5b48e01b996cadc001622fb5e363b421",
            "stateRoot" : "0xb8e893f475c4e6bc130f38403571e386058711c453a18122c8aa9fa151a1cce0",
            "timestamp" : "0x03b6",
            "transactionsTrie" : "0x56e81f171bcc55a6ff8345e692c0f86e5b48e01b996cadc001622fb5e363b421",
            "uncleHash" : "0x1dcc4de8dec75d7aab85b567b6ccd41ad312451b948a7413f0a142fd40d49347"
        },
        "genesisRLP" : "0xf901faf901f5a00000000000000000000000000000000000000000000000000000000000000000a01dcc4de8dec75d7aab85b567b6ccd41ad312451b948a7413f0a142fd40d49347942adc25665018aa1fe0e6bc666dac8fc2697ff9baa0b8e893f475c4e6bc130f38403571e386058711c453a18122c8aa9fa151a1cce0a056e81f171bcc55a6ff8345e692c0f86e5b48e01b996cadc001622fb5e363b421a056e81f171bcc55a6ff8345e692c0f86e5b48e01b996cadc001622fb5e363b421b90100000000000000000000000000000000000000000000000000000000000000000000000000000000000000000000000000000000000000000000000000000000000000000000000000000000000000000000000000000000000000000000000000000000000000000000000000000000000000000000000000000000000000000000000000000000000000000000000000000000000000000000000000000000000000000000000000000000000000000000000000000000000000000000000000000000000000000000000000000000000000000000000000000000000000000000000000000000000000000000000000000000000000000000000000000000008302000080830f4240808203b642a056e81f171bcc55a6ff8345e692c0f86e5b48e01b996cadc001622fb5e363b421880102030405060708c0c0",
        "lastblockhash" : "0xe3f9b1dfd2826527aae601e8fb7eb53b6269de241afd938c3abde41ed1af1bfd",
        "network" : "Constantinople",
        "postState" : {
            "0x2adc25665018aa1fe0e6bc666dac8fc2697ff9ba" : {
                "balance" : "0x1bc16d674ec9cb8b",
                "code" : "0x",
                "nonce" : "0x00",
                "storage" : {
                }
            },
            "0xa94f5374fce5edbc8e2a8697c15331677e6ebf0b" : {
                "balance" : "0x0de0b6b3a7623474",
                "code" : "0x",
                "nonce" : "0x01",
                "storage" : {
                }
            },
            "0xdeadbeef00000000000000000000000000000000" : {
                "balance" : "0x0de0b6b3a7640001",
                "code" : "0x6010600f80604360803960806000f56000526000513f6000556000513b6001556000600060006000600060005162010000f1506000513f6002556000513b60035500fe600380600c6000396000f3fe6000ff",
                "nonce" : "0x01",
                "storage" : {
                    "0x00" : "0x396daaf3a7871f857cc9b5878c6bb66c394a6d109706095617db9f4e4c22edcd",
                    "0x01" : "0x03",
                    "0x02" : "0x396daaf3a7871f857cc9b5878c6bb66c394a6d109706095617db9f4e4c22edcd",
                    "0x03" : "0x03"
                }
            }
        },
        "pre" : {
            "0xa94f5374fce5edbc8e2a8697c15331677e6ebf0b" : {
                "balance" : "0x0de0b6b3a7640000",
                "code" : "0x",
                "nonce" : "0x00",
                "storage" : {
                }
            },
            "0xdeadbeef00000000000000000000000000000000" : {
                "balance" : "0x0de0b6b3a7640000",
                "code" : "0x6010600f80604360803960806000f56000526000513f6000556000513b6001556000600060006000600060005162010000f1506000513f6002556000513b60035500fe600380600c6000396000f3fe6000ff",
                "nonce" : "0x00",
                "storage" : {
                }
            }
        },
        "sealEngine" : "NoProof"
    },
    "extCodeHashCreatedAndDeletedAccountCall_d0g0v0_ConstantinopleFix" : {
        "_info" : {
            "comment" : "EXTCODEHASH/EXTCODESIZE of an account created then deleted via CALL in same transaction",
            "filledwith" : "testeth 1.7.0-alpha.1-20+commit.782a7283",
            "lllcversion" : "Version: 0.5.0-develop.2018.11.9+commit.9709dfe0.Linux.g++",
            "source" : "src/BlockchainTestsFiller/GeneralStateTests/stExtCodeHash/extCodeHashCreatedAndDeletedAccountCall_d0g0v0Filler.json",
            "sourceHash" : "9cb8622d89f1cc09d5f000615c7daa3f1b17b81432c31b5c87e78c7760e92413"
        },
        "blocks" : [
            {
                "blockHeader" : {
                    "bloom" : "0x00000000000000000000000000000000000000000000000000000000000000000000000000000000000000000000000000000000000000000000000000000000000000000000000000000000000000000000000000000000000000000000000000000000000000000000000000000000000000000000000000000000000000000000000000000000000000000000000000000000000000000000000000000000000000000000000000000000000000000000000000000000000000000000000000000000000000000000000000000000000000000000000000000000000000000000000000000000000000000000000000000000000000000000000000000000",
                    "coinbase" : "0x2adc25665018aa1fe0e6bc666dac8fc2697ff9ba",
                    "difficulty" : "0x020000",
                    "extraData" : "0x",
                    "gasLimit" : "0x0f4240",
                    "gasUsed" : "0x01cb8b",
                    "hash" : "0xe3f9b1dfd2826527aae601e8fb7eb53b6269de241afd938c3abde41ed1af1bfd",
                    "mixHash" : "0x0000000000000000000000000000000000000000000000000000000000000000",
                    "nonce" : "0x0000000000000000",
                    "number" : "0x01",
                    "parentHash" : "0x275a05e27b73785c9e8caf6adfb855b8956e28b55c99795eb2e0bfe03e5ff670",
                    "receiptTrie" : "0x2adae12af0f78fd10dcdcb5b99556fa0d99f53355169c8a4ba5c55aef1217560",
                    "stateRoot" : "0xd391c4a5cf4d21a174277939d4c52552f3602d22eb3e338a188a80f698e93277",
                    "timestamp" : "0x03e8",
                    "transactionsTrie" : "0x324788bcaeb3ef4ea52657457b25024fd8e28f4e686f0b44f9df8c55c10854a3",
                    "uncleHash" : "0x1dcc4de8dec75d7aab85b567b6ccd41ad312451b948a7413f0a142fd40d49347"
                },
                "rlp" : "0xf90260f901f8a0275a05e27b73785c9e8caf6adfb855b8956e28b55c99795eb2e0bfe03e5ff670a01dcc4de8dec75d7aab85b567b6ccd41ad312451b948a7413f0a142fd40d49347942adc25665018aa1fe0e6bc666dac8fc2697ff9baa0d391c4a5cf4d21a174277939d4c52552f3602d22eb3e338a188a80f698e93277a0324788bcaeb3ef4ea52657457b25024fd8e28f4e686f0b44f9df8c55c10854a3a02adae12af0f78fd10dcdcb5b99556fa0d99f53355169c8a4ba5c55aef1217560b90100000000000000000000000000000000000000000000000000000000000000000000000000000000000000000000000000000000000000000000000000000000000000000000000000000000000000000000000000000000000000000000000000000000000000000000000000000000000000000000000000000000000000000000000000000000000000000000000000000000000000000000000000000000000000000000000000000000000000000000000000000000000000000000000000000000000000000000000000000000000000000000000000000000000000000000000000000000000000000000000000000000000000000000000000000000008302000001830f42408301cb8b8203e880a00000000000000000000000000000000000000000000000000000000000000000880000000000000000f862f860800183061a8094deadbeef0000000000000000000000000000000001801ca0c202f0d1337e2d44fa1bf35877e7278363f8a0870146a587e8f75bbd10df9240a05cb792200832e3876d0213563d9dc7705e255718f25455ca28eec91736e98c55c0",
                "transactions" : [
                    {
                        "data" : "0x",
                        "gasLimit" : "0x061a80",
                        "gasPrice" : "0x01",
                        "nonce" : "0x00",
                        "r" : "0xc202f0d1337e2d44fa1bf35877e7278363f8a0870146a587e8f75bbd10df9240",
                        "s" : "0x5cb792200832e3876d0213563d9dc7705e255718f25455ca28eec91736e98c55",
                        "to" : "0xdeadbeef00000000000000000000000000000000",
                        "v" : "0x1c",
                        "value" : "0x01"
                    }
                ],
                "uncleHeaders" : [
                ]
            }
        ],
        "genesisBlockHeader" : {
            "bloom" : "0x00000000000000000000000000000000000000000000000000000000000000000000000000000000000000000000000000000000000000000000000000000000000000000000000000000000000000000000000000000000000000000000000000000000000000000000000000000000000000000000000000000000000000000000000000000000000000000000000000000000000000000000000000000000000000000000000000000000000000000000000000000000000000000000000000000000000000000000000000000000000000000000000000000000000000000000000000000000000000000000000000000000000000000000000000000000",
            "coinbase" : "0x2adc25665018aa1fe0e6bc666dac8fc2697ff9ba",
            "difficulty" : "0x020000",
            "extraData" : "0x42",
            "gasLimit" : "0x0f4240",
            "gasUsed" : "0x00",
            "hash" : "0x275a05e27b73785c9e8caf6adfb855b8956e28b55c99795eb2e0bfe03e5ff670",
            "mixHash" : "0x56e81f171bcc55a6ff8345e692c0f86e5b48e01b996cadc001622fb5e363b421",
            "nonce" : "0x0102030405060708",
            "number" : "0x00",
            "parentHash" : "0x0000000000000000000000000000000000000000000000000000000000000000",
            "receiptTrie" : "0x56e81f171bcc55a6ff8345e692c0f86e5b48e01b996cadc001622fb5e363b421",
            "stateRoot" : "0xb8e893f475c4e6bc130f38403571e386058711c453a18122c8aa9fa151a1cce0",
            "timestamp" : "0x03b6",
            "transactionsTrie" : "0x56e81f171bcc55a6ff8345e692c0f86e5b48e01b996cadc001622fb5e363b421",
            "uncleHash" : "0x1dcc4de8dec75d7aab85b567b6ccd41ad312451b948a7413f0a142fd40d49347"
        },
        "genesisRLP" : "0xf901faf901f5a00000000000000000000000000000000000000000000000000000000000000000a01dcc4de8dec75d7aab85b567b6ccd41ad312451b948a7413f0a142fd40d49347942adc25665018aa1fe0e6bc666dac8fc2697ff9baa0b8e893f475c4e6bc130f38403571e386058711c453a18122c8aa9fa151a1cce0a056e81f171bcc55a6ff8345e692c0f86e5b48e01b996cadc001622fb5e363b421a056e81f171bcc55a6ff8345e692c0f86e5b48e01b996cadc001622fb5e363b421b90100000000000000000000000000000000000000000000000000000000000000000000000000000000000000000000000000000000000000000000000000000000000000000000000000000000000000000000000000000000000000000000000000000000000000000000000000000000000000000000000000000000000000000000000000000000000000000000000000000000000000000000000000000000000000000000000000000000000000000000000000000000000000000000000000000000000000000000000000000000000000000000000000000000000000000000000000000000000000000000000000000000000000000000000000000000008302000080830f4240808203b642a056e81f171bcc55a6ff8345e692c0f86e5b48e01b996cadc001622fb5e363b421880102030405060708c0c0",
        "lastblockhash" : "0xe3f9b1dfd2826527aae601e8fb7eb53b6269de241afd938c3abde41ed1af1bfd",
        "network" : "ConstantinopleFix",
        "postState" : {
            "0x2adc25665018aa1fe0e6bc666dac8fc2697ff9ba" : {
                "balance" : "0x1bc16d674ec9cb8b",
                "code" : "0x",
                "nonce" : "0x00",
                "storage" : {
                }
            },
            "0xa94f5374fce5edbc8e2a8697c15331677e6ebf0b" : {
                "balance" : "0x0de0b6b3a7623474",
                "code" : "0x",
                "nonce" : "0x01",
                "storage" : {
                }
            },
            "0xdeadbeef00000000000000000000000000000000" : {
                "balance" : "0x0de0b6b3a7640001",
                "code" : "0x6010600f80604360803960806000f56000526000513f6000556000513b6001556000600060006000600060005162010000f1506000513f6002556000513b60035500fe600380600c6000396000f3fe6000ff",
                "nonce" : "0x01",
                "storage" : {
                    "0x00" : "0x396daaf3a7871f857cc9b5878c6bb66c394a6d109706095617db9f4e4c22edcd",
                    "0x01" : "0x03",
                    "0x02" : "0x396daaf3a7871f857cc9b5878c6bb66c394a6d109706095617db9f4e4c22edcd",
                    "0x03" : "0x03"
                }
            }
        },
        "pre" : {
            "0xa94f5374fce5edbc8e2a8697c15331677e6ebf0b" : {
                "balance" : "0x0de0b6b3a7640000",
                "code" : "0x",
                "nonce" : "0x00",
                "storage" : {
                }
            },
            "0xdeadbeef00000000000000000000000000000000" : {
                "balance" : "0x0de0b6b3a7640000",
                "code" : "0x6010600f80604360803960806000f56000526000513f6000556000513b6001556000600060006000600060005162010000f1506000513f6002556000513b60035500fe600380600c6000396000f3fe6000ff",
                "nonce" : "0x00",
                "storage" : {
                }
            }
        },
        "sealEngine" : "NoProof"
    }
}