{
    "extCodeHashDeletedAccount4_d0g0v0_Constantinople" : {
        "_info" : {
            "comment" : "4) Call creates Account A\nCall to Account B stores Account A hash to 1\nCall to Account C runs self destruct on A\nCall to Account B stores Account a hash to 2\n",
            "filledwith" : "testeth 1.7.0-alpha.1-20+commit.782a7283",
            "lllcversion" : "Version: 0.5.0-develop.2018.11.9+commit.9709dfe0.Linux.g++",
            "source" : "src/BlockchainTestsFiller/GeneralStateTests/stExtCodeHash/extCodeHashDeletedAccount4_d0g0v0Filler.json",
            "sourceHash" : "3288b7a3bc3b5ef0ccecd38d99d71f8dcd95f0fd6665a99a6d1c5677d6f94ba0"
        },
        "blocks" : [
            {
                "blockHeader" : {
                    "bloom" : "0x00000000000000000000000000000000000000000000000000000000000000000000000000000000000000000000000000000000000000000000000000000000000000000000000000000000000000000000000000000000000000000000000000000000000000000000000000000000000000000000000000000000000000000000000000000000000000000000000000000000000000000000000000000000000000000000000000000000000000000000000000000000000000000000000000000000000000000000000000000000000000000000000000000000000000000000000000000000000000000000000000000000000000000000000000000000",
                    "coinbase" : "0x2adc25665018aa1fe0e6bc666dac8fc2697ff9ba",
                    "difficulty" : "0x020000",
                    "extraData" : "0x",
                    "gasLimit" : "0x0f4240",
                    "gasUsed" : "0x02da98",
                    "hash" : "0x7e251dc291e52b308b436c7a0f4d578d59c46b5464276d0464c6981c12dec49c",
                    "mixHash" : "0x0000000000000000000000000000000000000000000000000000000000000000",
                    "nonce" : "0x0000000000000000",
                    "number" : "0x01",
                    "parentHash" : "0xc1a86ab7ae9faa918b0282e938b5e9c097d11a8197b4de7a72fa2f5e2b9ea72c",
                    "receiptTrie" : "0xfaec07084f993c3b445b3ca0c9c8373560a877b7b38e6c8f43e3d313a69bd49b",
                    "stateRoot" : "0x5b0bc58100a089abb5edff86af0a908209bae5c335ca9993af2aeb0103ad7bbe",
                    "timestamp" : "0x03e8",
                    "transactionsTrie" : "0xf2fde0741a86c3f5b87ccee3cce6faafd15be92989188f40919cb13422672757",
                    "uncleHash" : "0x1dcc4de8dec75d7aab85b567b6ccd41ad312451b948a7413f0a142fd40d49347"
                },
                "rlp" : "0xf90260f901f8a0c1a86ab7ae9faa918b0282e938b5e9c097d11a8197b4de7a72fa2f5e2b9ea72ca01dcc4de8dec75d7aab85b567b6ccd41ad312451b948a7413f0a142fd40d49347942adc25665018aa1fe0e6bc666dac8fc2697ff9baa05b0bc58100a089abb5edff86af0a908209bae5c335ca9993af2aeb0103ad7bbea0f2fde0741a86c3f5b87ccee3cce6faafd15be92989188f40919cb13422672757a0faec07084f993c3b445b3ca0c9c8373560a877b7b38e6c8f43e3d313a69bd49bb90100000000000000000000000000000000000000000000000000000000000000000000000000000000000000000000000000000000000000000000000000000000000000000000000000000000000000000000000000000000000000000000000000000000000000000000000000000000000000000000000000000000000000000000000000000000000000000000000000000000000000000000000000000000000000000000000000000000000000000000000000000000000000000000000000000000000000000000000000000000000000000000000000000000000000000000000000000000000000000000000000000000000000000000000000000000008302000001830f42408302da988203e880a00000000000000000000000000000000000000000000000000000000000000000880000000000000000f862f860800183061a8094095e7baea6a6c7c4c2dfeb977efac326af552d8701801ca0ae29a79903b187c6d075320f9834a330b5134244c7fb0476eba58cd87b175fd6a027a8f85308f5f08f4e2f6b2e23d9dcfd740108f8f96517e50c9e1dc86288a673c0",
                "transactions" : [
                    {
                        "data" : "0x",
                        "gasLimit" : "0x061a80",
                        "gasPrice" : "0x01",
                        "nonce" : "0x00",
                        "r" : "0xae29a79903b187c6d075320f9834a330b5134244c7fb0476eba58cd87b175fd6",
                        "s" : "0x27a8f85308f5f08f4e2f6b2e23d9dcfd740108f8f96517e50c9e1dc86288a673",
                        "to" : "0x095e7baea6a6c7c4c2dfeb977efac326af552d87",
                        "v" : "0x1c",
                        "value" : "0x01"
                    }
                ],
                "uncleHeaders" : [
                ]
            }
        ],
        "genesisBlockHeader" : {
            "bloom" : "0x00000000000000000000000000000000000000000000000000000000000000000000000000000000000000000000000000000000000000000000000000000000000000000000000000000000000000000000000000000000000000000000000000000000000000000000000000000000000000000000000000000000000000000000000000000000000000000000000000000000000000000000000000000000000000000000000000000000000000000000000000000000000000000000000000000000000000000000000000000000000000000000000000000000000000000000000000000000000000000000000000000000000000000000000000000000",
            "coinbase" : "0x2adc25665018aa1fe0e6bc666dac8fc2697ff9ba",
            "difficulty" : "0x020000",
            "extraData" : "0x42",
            "gasLimit" : "0x0f4240",
            "gasUsed" : "0x00",
            "hash" : "0xc1a86ab7ae9faa918b0282e938b5e9c097d11a8197b4de7a72fa2f5e2b9ea72c",
            "mixHash" : "0x56e81f171bcc55a6ff8345e692c0f86e5b48e01b996cadc001622fb5e363b421",
            "nonce" : "0x0102030405060708",
            "number" : "0x00",
            "parentHash" : "0x0000000000000000000000000000000000000000000000000000000000000000",
            "receiptTrie" : "0x56e81f171bcc55a6ff8345e692c0f86e5b48e01b996cadc001622fb5e363b421",
            "stateRoot" : "0x30ad5cbf948da23ad7a66cb750b0005f2908694e9e8e418dd6782d9c652e0240",
            "timestamp" : "0x03b6",
            "transactionsTrie" : "0x56e81f171bcc55a6ff8345e692c0f86e5b48e01b996cadc001622fb5e363b421",
            "uncleHash" : "0x1dcc4de8dec75d7aab85b567b6ccd41ad312451b948a7413f0a142fd40d49347"
        },
        "genesisRLP" : "0xf901faf901f5a00000000000000000000000000000000000000000000000000000000000000000a01dcc4de8dec75d7aab85b567b6ccd41ad312451b948a7413f0a142fd40d49347942adc25665018aa1fe0e6bc666dac8fc2697ff9baa030ad5cbf948da23ad7a66cb750b0005f2908694e9e8e418dd6782d9c652e0240a056e81f171bcc55a6ff8345e692c0f86e5b48e01b996cadc001622fb5e363b421a056e81f171bcc55a6ff8345e692c0f86e5b48e01b996cadc001622fb5e363b421b90100000000000000000000000000000000000000000000000000000000000000000000000000000000000000000000000000000000000000000000000000000000000000000000000000000000000000000000000000000000000000000000000000000000000000000000000000000000000000000000000000000000000000000000000000000000000000000000000000000000000000000000000000000000000000000000000000000000000000000000000000000000000000000000000000000000000000000000000000000000000000000000000000000000000000000000000000000000000000000000000000000000000000000000000000000000008302000080830f4240808203b642a056e81f171bcc55a6ff8345e692c0f86e5b48e01b996cadc001622fb5e363b421880102030405060708c0c0",
        "lastblockhash" : "0x7e251dc291e52b308b436c7a0f4d578d59c46b5464276d0464c6981c12dec49c",
        "network" : "Constantinople",
        "postState" : {
            "0x095e7baea6a6c7c4c2dfeb977efac326af552d87" : {
                "balance" : "0x0de0b6b3a7640001",
                "code" : "0x6000603c80609360003960006000f560005260005160005560016020526020600060206020600073bbbbbbbb00000000000000000000000000000000620249f0f1506020600060006000600073cccccccc00000000000000000000000000000000620249f0f15060046040526020600060206040600073bbbbbbbb00000000000000000000000000000000620249f0f15000fe73dddddddd000000000000000000000000000000003b6000526000516000602073dddddddd000000000000000000000000000000003c6000516020f3",
                "nonce" : "0x01",
                "storage" : {
                    "0x00" : "0xe713449c212d891357cc2966816b1d528cfb59e0"
                }
            },
            "0x2adc25665018aa1fe0e6bc666dac8fc2697ff9ba" : {
                "balance" : "0x1bc16d674ecada98",
                "code" : "0x",
                "nonce" : "0x00",
                "storage" : {
                }
            },
            "0xa94f5374fce5edbc8e2a8697c15331677e6ebf0b" : {
                "balance" : "0x0de0b6b3a7612567",
                "code" : "0x",
                "nonce" : "0x01",
                "storage" : {
                }
            },
            "0xbbbbbbbb00000000000000000000000000000000" : {
                "balance" : "0x0de0b6b3a7640000",
                "code" : "0x6020600060003773e713449c212d891357cc2966816b1d528cfb59e03f6000515560016000510160005273e713449c212d891357cc2966816b1d528cfb59e03b60005155600051546000602073e713449c212d891357cc2966816b1d528cfb59e03c60016000510160005260205160005155",
                "nonce" : "0x00",
                "storage" : {
                    "0x01" : "0xb05d47e0911e4f67786f4cdc582608ee5f731e845a1e95ddc99759e2b3da81bf",
                    "0x02" : "0x16",
                    "0x03" : "0x73bbbbbbbb00000000000000000000000000000000ff00000000000000000000",
                    "0x04" : "0xb05d47e0911e4f67786f4cdc582608ee5f731e845a1e95ddc99759e2b3da81bf",
                    "0x05" : "0x16",
                    "0x06" : "0x73bbbbbbbb00000000000000000000000000000000ff00000000000000000000"
                }
            },
            "0xcccccccc00000000000000000000000000000000" : {
                "balance" : "0x00",
                "code" : "0x6020600060006000600073e713449c212d891357cc2966816b1d528cfb59e0620249f0f1",
                "nonce" : "0x00",
                "storage" : {
                }
            },
            "0xdddddddd00000000000000000000000000000000" : {
                "balance" : "0x00",
                "code" : "0x73bbbbbbbb00000000000000000000000000000000ff",
                "nonce" : "0x00",
                "storage" : {
                }
            }
        },
        "pre" : {
            "0x095e7baea6a6c7c4c2dfeb977efac326af552d87" : {
                "balance" : "0x0de0b6b3a7640000",
                "code" : "0x6000603c80609360003960006000f560005260005160005560016020526020600060206020600073bbbbbbbb00000000000000000000000000000000620249f0f1506020600060006000600073cccccccc00000000000000000000000000000000620249f0f15060046040526020600060206040600073bbbbbbbb00000000000000000000000000000000620249f0f15000fe73dddddddd000000000000000000000000000000003b6000526000516000602073dddddddd000000000000000000000000000000003c6000516020f3",
                "nonce" : "0x00",
                "storage" : {
                }
            },
            "0xa94f5374fce5edbc8e2a8697c15331677e6ebf0b" : {
                "balance" : "0x0de0b6b3a7640000",
                "code" : "0x",
                "nonce" : "0x00",
                "storage" : {
                }
            },
            "0xbbbbbbbb00000000000000000000000000000000" : {
                "balance" : "0x0de0b6b3a7640000",
                "code" : "0x6020600060003773e713449c212d891357cc2966816b1d528cfb59e03f6000515560016000510160005273e713449c212d891357cc2966816b1d528cfb59e03b60005155600051546000602073e713449c212d891357cc2966816b1d528cfb59e03c60016000510160005260205160005155",
                "nonce" : "0x00",
                "storage" : {
                }
            },
            "0xcccccccc00000000000000000000000000000000" : {
                "balance" : "0x00",
                "code" : "0x6020600060006000600073e713449c212d891357cc2966816b1d528cfb59e0620249f0f1",
                "nonce" : "0x00",
                "storage" : {
                }
            },
            "0xdddddddd00000000000000000000000000000000" : {
                "balance" : "0x00",
                "code" : "0x73bbbbbbbb00000000000000000000000000000000ff",
                "nonce" : "0x00",
                "storage" : {
                }
            }
        },
        "sealEngine" : "NoProof"
    },
    "extCodeHashDeletedAccount4_d0g0v0_ConstantinopleFix" : {
        "_info" : {
            "comment" : "4) Call creates Account A\nCall to Account B stores Account A hash to 1\nCall to Account C runs self destruct on A\nCall to Account B stores Account a hash to 2\n",
            "filledwith" : "testeth 1.7.0-alpha.1-20+commit.782a7283",
            "lllcversion" : "Version: 0.5.0-develop.2018.11.9+commit.9709dfe0.Linux.g++",
            "source" : "src/BlockchainTestsFiller/GeneralStateTests/stExtCodeHash/extCodeHashDeletedAccount4_d0g0v0Filler.json",
            "sourceHash" : "3288b7a3bc3b5ef0ccecd38d99d71f8dcd95f0fd6665a99a6d1c5677d6f94ba0"
        },
        "blocks" : [
            {
                "blockHeader" : {
                    "bloom" : "0x00000000000000000000000000000000000000000000000000000000000000000000000000000000000000000000000000000000000000000000000000000000000000000000000000000000000000000000000000000000000000000000000000000000000000000000000000000000000000000000000000000000000000000000000000000000000000000000000000000000000000000000000000000000000000000000000000000000000000000000000000000000000000000000000000000000000000000000000000000000000000000000000000000000000000000000000000000000000000000000000000000000000000000000000000000000",
                    "coinbase" : "0x2adc25665018aa1fe0e6bc666dac8fc2697ff9ba",
                    "difficulty" : "0x020000",
                    "extraData" : "0x",
                    "gasLimit" : "0x0f4240",
                    "gasUsed" : "0x02da98",
                    "hash" : "0x7e251dc291e52b308b436c7a0f4d578d59c46b5464276d0464c6981c12dec49c",
                    "mixHash" : "0x0000000000000000000000000000000000000000000000000000000000000000",
                    "nonce" : "0x0000000000000000",
                    "number" : "0x01",
                    "parentHash" : "0xc1a86ab7ae9faa918b0282e938b5e9c097d11a8197b4de7a72fa2f5e2b9ea72c",
                    "receiptTrie" : "0xfaec07084f993c3b445b3ca0c9c8373560a877b7b38e6c8f43e3d313a69bd49b",
                    "stateRoot" : "0x5b0bc58100a089abb5edff86af0a908209bae5c335ca9993af2aeb0103ad7bbe",
                    "timestamp" : "0x03e8",
                    "transactionsTrie" : "0xf2fde0741a86c3f5b87ccee3cce6faafd15be92989188f40919cb13422672757",
                    "uncleHash" : "0x1dcc4de8dec75d7aab85b567b6ccd41ad312451b948a7413f0a142fd40d49347"
                },
                "rlp" : "0xf90260f901f8a0c1a86ab7ae9faa918b0282e938b5e9c097d11a8197b4de7a72fa2f5e2b9ea72ca01dcc4de8dec75d7aab85b567b6ccd41ad312451b948a7413f0a142fd40d49347942adc25665018aa1fe0e6bc666dac8fc2697ff9baa05b0bc58100a089abb5edff86af0a908209bae5c335ca9993af2aeb0103ad7bbea0f2fde0741a86c3f5b87ccee3cce6faafd15be92989188f40919cb13422672757a0faec07084f993c3b445b3ca0c9c8373560a877b7b38e6c8f43e3d313a69bd49bb90100000000000000000000000000000000000000000000000000000000000000000000000000000000000000000000000000000000000000000000000000000000000000000000000000000000000000000000000000000000000000000000000000000000000000000000000000000000000000000000000000000000000000000000000000000000000000000000000000000000000000000000000000000000000000000000000000000000000000000000000000000000000000000000000000000000000000000000000000000000000000000000000000000000000000000000000000000000000000000000000000000000000000000000000000000000008302000001830f42408302da988203e880a00000000000000000000000000000000000000000000000000000000000000000880000000000000000f862f860800183061a8094095e7baea6a6c7c4c2dfeb977efac326af552d8701801ca0ae29a79903b187c6d075320f9834a330b5134244c7fb0476eba58cd87b175fd6a027a8f85308f5f08f4e2f6b2e23d9dcfd740108f8f96517e50c9e1dc86288a673c0",
                "transactions" : [
                    {
                        "data" : "0x",
                        "gasLimit" : "0x061a80",
                        "gasPrice" : "0x01",
                        "nonce" : "0x00",
                        "r" : "0xae29a79903b187c6d075320f9834a330b5134244c7fb0476eba58cd87b175fd6",
                        "s" : "0x27a8f85308f5f08f4e2f6b2e23d9dcfd740108f8f96517e50c9e1dc86288a673",
                        "to" : "0x095e7baea6a6c7c4c2dfeb977efac326af552d87",
                        "v" : "0x1c",
                        "value" : "0x01"
                    }
                ],
                "uncleHeaders" : [
                ]
            }
        ],
        "genesisBlockHeader" : {
            "bloom" : "0x00000000000000000000000000000000000000000000000000000000000000000000000000000000000000000000000000000000000000000000000000000000000000000000000000000000000000000000000000000000000000000000000000000000000000000000000000000000000000000000000000000000000000000000000000000000000000000000000000000000000000000000000000000000000000000000000000000000000000000000000000000000000000000000000000000000000000000000000000000000000000000000000000000000000000000000000000000000000000000000000000000000000000000000000000000000",
            "coinbase" : "0x2adc25665018aa1fe0e6bc666dac8fc2697ff9ba",
            "difficulty" : "0x020000",
            "extraData" : "0x42",
            "gasLimit" : "0x0f4240",
            "gasUsed" : "0x00",
            "hash" : "0xc1a86ab7ae9faa918b0282e938b5e9c097d11a8197b4de7a72fa2f5e2b9ea72c",
            "mixHash" : "0x56e81f171bcc55a6ff8345e692c0f86e5b48e01b996cadc001622fb5e363b421",
            "nonce" : "0x0102030405060708",
            "number" : "0x00",
            "parentHash" : "0x0000000000000000000000000000000000000000000000000000000000000000",
            "receiptTrie" : "0x56e81f171bcc55a6ff8345e692c0f86e5b48e01b996cadc001622fb5e363b421",
            "stateRoot" : "0x30ad5cbf948da23ad7a66cb750b0005f2908694e9e8e418dd6782d9c652e0240",
            "timestamp" : "0x03b6",
            "transactionsTrie" : "0x56e81f171bcc55a6ff8345e692c0f86e5b48e01b996cadc001622fb5e363b421",
            "uncleHash" : "0x1dcc4de8dec75d7aab85b567b6ccd41ad312451b948a7413f0a142fd40d49347"
        },
        "genesisRLP" : "0xf901faf901f5a00000000000000000000000000000000000000000000000000000000000000000a01dcc4de8dec75d7aab85b567b6ccd41ad312451b948a7413f0a142fd40d49347942adc25665018aa1fe0e6bc666dac8fc2697ff9baa030ad5cbf948da23ad7a66cb750b0005f2908694e9e8e418dd6782d9c652e0240a056e81f171bcc55a6ff8345e692c0f86e5b48e01b996cadc001622fb5e363b421a056e81f171bcc55a6ff8345e692c0f86e5b48e01b996cadc001622fb5e363b421b90100000000000000000000000000000000000000000000000000000000000000000000000000000000000000000000000000000000000000000000000000000000000000000000000000000000000000000000000000000000000000000000000000000000000000000000000000000000000000000000000000000000000000000000000000000000000000000000000000000000000000000000000000000000000000000000000000000000000000000000000000000000000000000000000000000000000000000000000000000000000000000000000000000000000000000000000000000000000000000000000000000000000000000000000000000000008302000080830f4240808203b642a056e81f171bcc55a6ff8345e692c0f86e5b48e01b996cadc001622fb5e363b421880102030405060708c0c0",
        "lastblockhash" : "0x7e251dc291e52b308b436c7a0f4d578d59c46b5464276d0464c6981c12dec49c",
        "network" : "ConstantinopleFix",
        "postState" : {
            "0x095e7baea6a6c7c4c2dfeb977efac326af552d87" : {
                "balance" : "0x0de0b6b3a7640001",
                "code" : "0x6000603c80609360003960006000f560005260005160005560016020526020600060206020600073bbbbbbbb00000000000000000000000000000000620249f0f1506020600060006000600073cccccccc00000000000000000000000000000000620249f0f15060046040526020600060206040600073bbbbbbbb00000000000000000000000000000000620249f0f15000fe73dddddddd000000000000000000000000000000003b6000526000516000602073dddddddd000000000000000000000000000000003c6000516020f3",
                "nonce" : "0x01",
                "storage" : {
                    "0x00" : "0xe713449c212d891357cc2966816b1d528cfb59e0"
                }
            },
            "0x2adc25665018aa1fe0e6bc666dac8fc2697ff9ba" : {
                "balance" : "0x1bc16d674ecada98",
                "code" : "0x",
                "nonce" : "0x00",
                "storage" : {
                }
            },
            "0xa94f5374fce5edbc8e2a8697c15331677e6ebf0b" : {
                "balance" : "0x0de0b6b3a7612567",
                "code" : "0x",
                "nonce" : "0x01",
                "storage" : {
                }
            },
            "0xbbbbbbbb00000000000000000000000000000000" : {
                "balance" : "0x0de0b6b3a7640000",
                "code" : "0x6020600060003773e713449c212d891357cc2966816b1d528cfb59e03f6000515560016000510160005273e713449c212d891357cc2966816b1d528cfb59e03b60005155600051546000602073e713449c212d891357cc2966816b1d528cfb59e03c60016000510160005260205160005155",
                "nonce" : "0x00",
                "storage" : {
                    "0x01" : "0xb05d47e0911e4f67786f4cdc582608ee5f731e845a1e95ddc99759e2b3da81bf",
                    "0x02" : "0x16",
                    "0x03" : "0x73bbbbbbbb00000000000000000000000000000000ff00000000000000000000",
                    "0x04" : "0xb05d47e0911e4f67786f4cdc582608ee5f731e845a1e95ddc99759e2b3da81bf",
                    "0x05" : "0x16",
                    "0x06" : "0x73bbbbbbbb00000000000000000000000000000000ff00000000000000000000"
                }
            },
            "0xcccccccc00000000000000000000000000000000" : {
                "balance" : "0x00",
                "code" : "0x6020600060006000600073e713449c212d891357cc2966816b1d528cfb59e0620249f0f1",
                "nonce" : "0x00",
                "storage" : {
                }
            },
            "0xdddddddd00000000000000000000000000000000" : {
                "balance" : "0x00",
                "code" : "0x73bbbbbbbb00000000000000000000000000000000ff",
                "nonce" : "0x00",
                "storage" : {
                }
            }
        },
        "pre" : {
            "0x095e7baea6a6c7c4c2dfeb977efac326af552d87" : {
                "balance" : "0x0de0b6b3a7640000",
                "code" : "0x6000603c80609360003960006000f560005260005160005560016020526020600060206020600073bbbbbbbb00000000000000000000000000000000620249f0f1506020600060006000600073cccccccc00000000000000000000000000000000620249f0f15060046040526020600060206040600073bbbbbbbb00000000000000000000000000000000620249f0f15000fe73dddddddd000000000000000000000000000000003b6000526000516000602073dddddddd000000000000000000000000000000003c6000516020f3",
                "nonce" : "0x00",
                "storage" : {
                }
            },
            "0xa94f5374fce5edbc8e2a8697c15331677e6ebf0b" : {
                "balance" : "0x0de0b6b3a7640000",
                "code" : "0x",
                "nonce" : "0x00",
                "storage" : {
                }
            },
            "0xbbbbbbbb00000000000000000000000000000000" : {
                "balance" : "0x0de0b6b3a7640000",
                "code" : "0x6020600060003773e713449c212d891357cc2966816b1d528cfb59e03f6000515560016000510160005273e713449c212d891357cc2966816b1d528cfb59e03b60005155600051546000602073e713449c212d891357cc2966816b1d528cfb59e03c60016000510160005260205160005155",
                "nonce" : "0x00",
                "storage" : {
                }
            },
            "0xcccccccc00000000000000000000000000000000" : {
                "balance" : "0x00",
                "code" : "0x6020600060006000600073e713449c212d891357cc2966816b1d528cfb59e0620249f0f1",
                "nonce" : "0x00",
                "storage" : {
                }
            },
            "0xdddddddd00000000000000000000000000000000" : {
                "balance" : "0x00",
                "code" : "0x73bbbbbbbb00000000000000000000000000000000ff",
                "nonce" : "0x00",
                "storage" : {
                }
            }
        },
        "sealEngine" : "NoProof"
    }
}