{
    "extCodeHashSubcallOOG_d5g0v0_Constantinople" : {
        "_info" : {
            "comment" : "create contract A in a subcall. go OOG in a subcall (revert happens) check EXTCODEHASH of A (in upper call)",
            "filledwith" : "testeth 1.7.0-alpha.1-20+commit.782a7283",
            "lllcversion" : "Version: 0.5.0-develop.2018.11.9+commit.9709dfe0.Linux.g++",
            "source" : "src/BlockchainTestsFiller/GeneralStateTests/stExtCodeHash/extCodeHashSubcallOOG_d5g0v0Filler.json",
            "sourceHash" : "142148845f9dfd99d3f29eafde23d82f513d854628374b25c39154d1d2a2014a"
        },
        "blocks" : [
            {
                "blockHeader" : {
                    "bloom" : "0x00000000000000000000000000000000000000000000000000000000000000000000000000000000000000000000000000000000000000000000000000000000000000000000000000000000000000000000000000000000000000000000000000000000000000000000000000000000000000000000000000000000000000000000000000000000000000000000000000000000000000000000000000000000000000000000000000000000000000000000000000000000000000000000000000000000000000000000000000000000000000000000000000000000000000000000000000000000000000000000000000000000000000000000000000000000",
                    "coinbase" : "0x2adc25665018aa1fe0e6bc666dac8fc2697ff9ba",
                    "difficulty" : "0x020000",
                    "extraData" : "0x",
                    "gasLimit" : "0x989680",
                    "gasUsed" : "0x02fcee",
                    "hash" : "0x0c6d956bcf23531ac4f0b38d78dad600700a6cace20d4c5ff8bf317d5435a6d2",
                    "mixHash" : "0x0000000000000000000000000000000000000000000000000000000000000000",
                    "nonce" : "0x0000000000000000",
                    "number" : "0x01",
                    "parentHash" : "0x75dfb0f97c2b07d1543795ca081145f3e037bd26fc76945af930b0579f33ac0a",
                    "receiptTrie" : "0x58105bdaa31f73688a131afdaaf91ec888dde0f71d7d171e686f32840b5dbe35",
                    "stateRoot" : "0x02181b7c0667d4e0f9aeec4462b6a6a9403c4b9a4dfb342729279a53c7a79e2b",
                    "timestamp" : "0x03e8",
                    "transactionsTrie" : "0x5b4d50833bc9ec5b2ff7854ebe3b0e02b8d6596df579b0d209afba18f4294b04",
                    "uncleHash" : "0x1dcc4de8dec75d7aab85b567b6ccd41ad312451b948a7413f0a142fd40d49347"
                },
                "rlp" : "0xf90280f901f8a075dfb0f97c2b07d1543795ca081145f3e037bd26fc76945af930b0579f33ac0aa01dcc4de8dec75d7aab85b567b6ccd41ad312451b948a7413f0a142fd40d49347942adc25665018aa1fe0e6bc666dac8fc2697ff9baa002181b7c0667d4e0f9aeec4462b6a6a9403c4b9a4dfb342729279a53c7a79e2ba05b4d50833bc9ec5b2ff7854ebe3b0e02b8d6596df579b0d209afba18f4294b04a058105bdaa31f73688a131afdaaf91ec888dde0f71d7d171e686f32840b5dbe35b90100000000000000000000000000000000000000000000000000000000000000000000000000000000000000000000000000000000000000000000000000000000000000000000000000000000000000000000000000000000000000000000000000000000000000000000000000000000000000000000000000000000000000000000000000000000000000000000000000000000000000000000000000000000000000000000000000000000000000000000000000000000000000000000000000000000000000000000000000000000000000000000000000000000000000000000000000000000000000000000000000000000000000000000000000000000008302000001839896808302fcee8203e880a00000000000000000000000000000000000000000000000000000000000000000880000000000000000f882f880800183061a8094100000000000000000000000000000000000000001a000000000000000000000000032000000000000000000000000000000000000001ca02f1374c6e865d1e97cca681d22301535b34baab05ae5f5f96736cfbf5680510fa0266e3c55b1565d5aac75e6725e7cafe6138ed86d4f53d6eefee2b25f74ad1d52c0",
                "transactions" : [
                    {
                        "data" : "0x0000000000000000000000003200000000000000000000000000000000000000",
                        "gasLimit" : "0x061a80",
                        "gasPrice" : "0x01",
                        "nonce" : "0x00",
                        "r" : "0x2f1374c6e865d1e97cca681d22301535b34baab05ae5f5f96736cfbf5680510f",
                        "s" : "0x266e3c55b1565d5aac75e6725e7cafe6138ed86d4f53d6eefee2b25f74ad1d52",
                        "to" : "0x1000000000000000000000000000000000000000",
                        "v" : "0x1c",
                        "value" : "0x01"
                    }
                ],
                "uncleHeaders" : [
                ]
            }
        ],
        "genesisBlockHeader" : {
            "bloom" : "0x00000000000000000000000000000000000000000000000000000000000000000000000000000000000000000000000000000000000000000000000000000000000000000000000000000000000000000000000000000000000000000000000000000000000000000000000000000000000000000000000000000000000000000000000000000000000000000000000000000000000000000000000000000000000000000000000000000000000000000000000000000000000000000000000000000000000000000000000000000000000000000000000000000000000000000000000000000000000000000000000000000000000000000000000000000000",
            "coinbase" : "0x2adc25665018aa1fe0e6bc666dac8fc2697ff9ba",
            "difficulty" : "0x020000",
            "extraData" : "0x42",
            "gasLimit" : "0x989680",
            "gasUsed" : "0x00",
            "hash" : "0x75dfb0f97c2b07d1543795ca081145f3e037bd26fc76945af930b0579f33ac0a",
            "mixHash" : "0x56e81f171bcc55a6ff8345e692c0f86e5b48e01b996cadc001622fb5e363b421",
            "nonce" : "0x0102030405060708",
            "number" : "0x00",
            "parentHash" : "0x0000000000000000000000000000000000000000000000000000000000000000",
            "receiptTrie" : "0x56e81f171bcc55a6ff8345e692c0f86e5b48e01b996cadc001622fb5e363b421",
            "stateRoot" : "0x1d69995dc0bc9ddc737e27c35f3fc540d8966de313a0043f31e0725a1080b350",
            "timestamp" : "0x03b6",
            "transactionsTrie" : "0x56e81f171bcc55a6ff8345e692c0f86e5b48e01b996cadc001622fb5e363b421",
            "uncleHash" : "0x1dcc4de8dec75d7aab85b567b6ccd41ad312451b948a7413f0a142fd40d49347"
        },
        "genesisRLP" : "0xf901faf901f5a00000000000000000000000000000000000000000000000000000000000000000a01dcc4de8dec75d7aab85b567b6ccd41ad312451b948a7413f0a142fd40d49347942adc25665018aa1fe0e6bc666dac8fc2697ff9baa01d69995dc0bc9ddc737e27c35f3fc540d8966de313a0043f31e0725a1080b350a056e81f171bcc55a6ff8345e692c0f86e5b48e01b996cadc001622fb5e363b421a056e81f171bcc55a6ff8345e692c0f86e5b48e01b996cadc001622fb5e363b421b9010000000000000000000000000000000000000000000000000000000000000000000000000000000000000000000000000000000000000000000000000000000000000000000000000000000000000000000000000000000000000000000000000000000000000000000000000000000000000000000000000000000000000000000000000000000000000000000000000000000000000000000000000000000000000000000000000000000000000000000000000000000000000000000000000000000000000000000000000000000000000000000000000000000000000000000000000000000000000000000000000000000000000000000000000000000000830200008083989680808203b642a056e81f171bcc55a6ff8345e692c0f86e5b48e01b996cadc001622fb5e363b421880102030405060708c0c0",
        "lastblockhash" : "0x0c6d956bcf23531ac4f0b38d78dad600700a6cace20d4c5ff8bf317d5435a6d2",
        "network" : "Constantinople",
        "postState" : {
            "0x1000000000000000000000000000000000000000" : {
                "balance" : "0x0de0b6b3a7640001",
                "code" : "0x6020600060006000600060003562055730f2506000513f6001556000513b6002556020600060006000513c6000516003556000600060006000600060005161c350f2600455",
                "nonce" : "0x00",
                "storage" : {
                    "0x04" : "0x01"
                }
            },
            "0x2000000000000000000000000000000000000000" : {
                "balance" : "0x0de0b6b3a7640000",
                "code" : "0x6020600060006000600073a000000000000000000000000000000000000000620249f0f15060206000f3",
                "nonce" : "0x00",
                "storage" : {
                }
            },
            "0x2100000000000000000000000000000000000000" : {
                "balance" : "0x0de0b6b3a7640000",
                "code" : "0x6020600060006000600073a000000000000000000000000000000000000000620249f0f25060206000f3",
                "nonce" : "0x00",
                "storage" : {
                }
            },
            "0x2200000000000000000000000000000000000000" : {
                "balance" : "0x0de0b6b3a7640000",
                "code" : "0x602060006000600073a000000000000000000000000000000000000000620249f0f45060206000f3",
                "nonce" : "0x00",
                "storage" : {
                }
            },
            "0x2adc25665018aa1fe0e6bc666dac8fc2697ff9ba" : {
                "balance" : "0x1bc16d674ecafcee",
                "code" : "0x",
                "nonce" : "0x00",
                "storage" : {
                }
            },
            "0x3000000000000000000000000000000000000000" : {
                "balance" : "0x0de0b6b3a7640000",
                "code" : "0x6020600060006000600073a100000000000000000000000000000000000000620249f0f15060206000f3",
                "nonce" : "0x00",
                "storage" : {
                }
            },
            "0x3100000000000000000000000000000000000000" : {
                "balance" : "0x0de0b6b3a7640000",
                "code" : "0x6020600060006000600073a1000000000000000000000000000000000000006203d090f25060206000f3",
                "nonce" : "0x00",
                "storage" : {
                }
            },
            "0x3200000000000000000000000000000000000000" : {
                "balance" : "0x0de0b6b3a7640000",
                "code" : "0x602060006000600073a100000000000000000000000000000000000000620249f0f45060206000f3",
                "nonce" : "0x00",
                "storage" : {
                }
            },
            "0xa000000000000000000000000000000000000000" : {
                "balance" : "0x0de0b6b3a7640000",
                "code" : "0x6000600e80601960003960006000f560005260206000f300fe6460206020556000526005601bf3",
                "nonce" : "0x00",
                "storage" : {
                }
            },
            "0xa100000000000000000000000000000000000000" : {
                "balance" : "0x0de0b6b3a7640000",
                "code" : "0x6000600e80605f60003960006000f56000526001600155600160025560016003556001600455600160055560016006556001600755600160085560016009556001600a556001600b556001600c556001600d556001600e5560206000f300fe6460206020556000526005601bf3",
                "nonce" : "0x00",
                "storage" : {
                }
            },
            "0xa94f5374fce5edbc8e2a8697c15331677e6ebf0b" : {
                "balance" : "0x0de0b6b3a7610311",
                "code" : "0x00",
                "nonce" : "0x01",
                "storage" : {
                }
            }
        },
        "pre" : {
            "0x1000000000000000000000000000000000000000" : {
                "balance" : "0x0de0b6b3a7640000",
                "code" : "0x6020600060006000600060003562055730f2506000513f6001556000513b6002556020600060006000513c6000516003556000600060006000600060005161c350f2600455",
                "nonce" : "0x00",
                "storage" : {
                }
            },
            "0x2000000000000000000000000000000000000000" : {
                "balance" : "0x0de0b6b3a7640000",
                "code" : "0x6020600060006000600073a000000000000000000000000000000000000000620249f0f15060206000f3",
                "nonce" : "0x00",
                "storage" : {
                }
            },
            "0x2100000000000000000000000000000000000000" : {
                "balance" : "0x0de0b6b3a7640000",
                "code" : "0x6020600060006000600073a000000000000000000000000000000000000000620249f0f25060206000f3",
                "nonce" : "0x00",
                "storage" : {
                }
            },
            "0x2200000000000000000000000000000000000000" : {
                "balance" : "0x0de0b6b3a7640000",
                "code" : "0x602060006000600073a000000000000000000000000000000000000000620249f0f45060206000f3",
                "nonce" : "0x00",
                "storage" : {
                }
            },
            "0x3000000000000000000000000000000000000000" : {
                "balance" : "0x0de0b6b3a7640000",
                "code" : "0x6020600060006000600073a100000000000000000000000000000000000000620249f0f15060206000f3",
                "nonce" : "0x00",
                "storage" : {
                }
            },
            "0x3100000000000000000000000000000000000000" : {
                "balance" : "0x0de0b6b3a7640000",
                "code" : "0x6020600060006000600073a1000000000000000000000000000000000000006203d090f25060206000f3",
                "nonce" : "0x00",
                "storage" : {
                }
            },
            "0x3200000000000000000000000000000000000000" : {
                "balance" : "0x0de0b6b3a7640000",
                "code" : "0x602060006000600073a100000000000000000000000000000000000000620249f0f45060206000f3",
                "nonce" : "0x00",
                "storage" : {
                }
            },
            "0xa000000000000000000000000000000000000000" : {
                "balance" : "0x0de0b6b3a7640000",
                "code" : "0x6000600e80601960003960006000f560005260206000f300fe6460206020556000526005601bf3",
                "nonce" : "0x00",
                "storage" : {
                }
            },
            "0xa100000000000000000000000000000000000000" : {
                "balance" : "0x0de0b6b3a7640000",
                "code" : "0x6000600e80605f60003960006000f56000526001600155600160025560016003556001600455600160055560016006556001600755600160085560016009556001600a556001600b556001600c556001600d556001600e5560206000f300fe6460206020556000526005601bf3",
                "nonce" : "0x00",
                "storage" : {
                }
            },
            "0xa94f5374fce5edbc8e2a8697c15331677e6ebf0b" : {
                "balance" : "0x0de0b6b3a7640000",
                "code" : "0x00",
                "nonce" : "0x00",
                "storage" : {
                }
            }
        },
        "sealEngine" : "NoProof"
    },
    "extCodeHashSubcallOOG_d5g0v0_ConstantinopleFix" : {
        "_info" : {
            "comment" : "create contract A in a subcall. go OOG in a subcall (revert happens) check EXTCODEHASH of A (in upper call)",
            "filledwith" : "testeth 1.7.0-alpha.1-20+commit.782a7283",
            "lllcversion" : "Version: 0.5.0-develop.2018.11.9+commit.9709dfe0.Linux.g++",
            "source" : "src/BlockchainTestsFiller/GeneralStateTests/stExtCodeHash/extCodeHashSubcallOOG_d5g0v0Filler.json",
            "sourceHash" : "142148845f9dfd99d3f29eafde23d82f513d854628374b25c39154d1d2a2014a"
        },
        "blocks" : [
            {
                "blockHeader" : {
                    "bloom" : "0x00000000000000000000000000000000000000000000000000000000000000000000000000000000000000000000000000000000000000000000000000000000000000000000000000000000000000000000000000000000000000000000000000000000000000000000000000000000000000000000000000000000000000000000000000000000000000000000000000000000000000000000000000000000000000000000000000000000000000000000000000000000000000000000000000000000000000000000000000000000000000000000000000000000000000000000000000000000000000000000000000000000000000000000000000000000",
                    "coinbase" : "0x2adc25665018aa1fe0e6bc666dac8fc2697ff9ba",
                    "difficulty" : "0x020000",
                    "extraData" : "0x",
                    "gasLimit" : "0x989680",
                    "gasUsed" : "0x03352e",
                    "hash" : "0x446227c28d9250754440c27b7a3a51b4827aa3525c4f894261a4344e4b8cb1ae",
                    "mixHash" : "0x0000000000000000000000000000000000000000000000000000000000000000",
                    "nonce" : "0x0000000000000000",
                    "number" : "0x01",
                    "parentHash" : "0x75dfb0f97c2b07d1543795ca081145f3e037bd26fc76945af930b0579f33ac0a",
                    "receiptTrie" : "0x6db942039730114c19b1921e8d94d2d7675906e2829c99b4892fe6157ac13fa2",
                    "stateRoot" : "0x7b1e7fa0a793541179dd9d4aa5f9363edec06f79e3e8d837bb31d999c84130bc",
                    "timestamp" : "0x03e8",
                    "transactionsTrie" : "0x5b4d50833bc9ec5b2ff7854ebe3b0e02b8d6596df579b0d209afba18f4294b04",
                    "uncleHash" : "0x1dcc4de8dec75d7aab85b567b6ccd41ad312451b948a7413f0a142fd40d49347"
                },
                "rlp" : "0xf90280f901f8a075dfb0f97c2b07d1543795ca081145f3e037bd26fc76945af930b0579f33ac0aa01dcc4de8dec75d7aab85b567b6ccd41ad312451b948a7413f0a142fd40d49347942adc25665018aa1fe0e6bc666dac8fc2697ff9baa07b1e7fa0a793541179dd9d4aa5f9363edec06f79e3e8d837bb31d999c84130bca05b4d50833bc9ec5b2ff7854ebe3b0e02b8d6596df579b0d209afba18f4294b04a06db942039730114c19b1921e8d94d2d7675906e2829c99b4892fe6157ac13fa2b90100000000000000000000000000000000000000000000000000000000000000000000000000000000000000000000000000000000000000000000000000000000000000000000000000000000000000000000000000000000000000000000000000000000000000000000000000000000000000000000000000000000000000000000000000000000000000000000000000000000000000000000000000000000000000000000000000000000000000000000000000000000000000000000000000000000000000000000000000000000000000000000000000000000000000000000000000000000000000000000000000000000000000000000000000000000008302000001839896808303352e8203e880a00000000000000000000000000000000000000000000000000000000000000000880000000000000000f882f880800183061a8094100000000000000000000000000000000000000001a000000000000000000000000032000000000000000000000000000000000000001ca02f1374c6e865d1e97cca681d22301535b34baab05ae5f5f96736cfbf5680510fa0266e3c55b1565d5aac75e6725e7cafe6138ed86d4f53d6eefee2b25f74ad1d52c0",
                "transactions" : [
                    {
                        "data" : "0x0000000000000000000000003200000000000000000000000000000000000000",
                        "gasLimit" : "0x061a80",
                        "gasPrice" : "0x01",
                        "nonce" : "0x00",
                        "r" : "0x2f1374c6e865d1e97cca681d22301535b34baab05ae5f5f96736cfbf5680510f",
                        "s" : "0x266e3c55b1565d5aac75e6725e7cafe6138ed86d4f53d6eefee2b25f74ad1d52",
                        "to" : "0x1000000000000000000000000000000000000000",
                        "v" : "0x1c",
                        "value" : "0x01"
                    }
                ],
                "uncleHeaders" : [
                ]
            }
        ],
        "genesisBlockHeader" : {
            "bloom" : "0x00000000000000000000000000000000000000000000000000000000000000000000000000000000000000000000000000000000000000000000000000000000000000000000000000000000000000000000000000000000000000000000000000000000000000000000000000000000000000000000000000000000000000000000000000000000000000000000000000000000000000000000000000000000000000000000000000000000000000000000000000000000000000000000000000000000000000000000000000000000000000000000000000000000000000000000000000000000000000000000000000000000000000000000000000000000",
            "coinbase" : "0x2adc25665018aa1fe0e6bc666dac8fc2697ff9ba",
            "difficulty" : "0x020000",
            "extraData" : "0x42",
            "gasLimit" : "0x989680",
            "gasUsed" : "0x00",
            "hash" : "0x75dfb0f97c2b07d1543795ca081145f3e037bd26fc76945af930b0579f33ac0a",
            "mixHash" : "0x56e81f171bcc55a6ff8345e692c0f86e5b48e01b996cadc001622fb5e363b421",
            "nonce" : "0x0102030405060708",
            "number" : "0x00",
            "parentHash" : "0x0000000000000000000000000000000000000000000000000000000000000000",
            "receiptTrie" : "0x56e81f171bcc55a6ff8345e692c0f86e5b48e01b996cadc001622fb5e363b421",
            "stateRoot" : "0x1d69995dc0bc9ddc737e27c35f3fc540d8966de313a0043f31e0725a1080b350",
            "timestamp" : "0x03b6",
            "transactionsTrie" : "0x56e81f171bcc55a6ff8345e692c0f86e5b48e01b996cadc001622fb5e363b421",
            "uncleHash" : "0x1dcc4de8dec75d7aab85b567b6ccd41ad312451b948a7413f0a142fd40d49347"
        },
        "genesisRLP" : "0xf901faf901f5a00000000000000000000000000000000000000000000000000000000000000000a01dcc4de8dec75d7aab85b567b6ccd41ad312451b948a7413f0a142fd40d49347942adc25665018aa1fe0e6bc666dac8fc2697ff9baa01d69995dc0bc9ddc737e27c35f3fc540d8966de313a0043f31e0725a1080b350a056e81f171bcc55a6ff8345e692c0f86e5b48e01b996cadc001622fb5e363b421a056e81f171bcc55a6ff8345e692c0f86e5b48e01b996cadc001622fb5e363b421b9010000000000000000000000000000000000000000000000000000000000000000000000000000000000000000000000000000000000000000000000000000000000000000000000000000000000000000000000000000000000000000000000000000000000000000000000000000000000000000000000000000000000000000000000000000000000000000000000000000000000000000000000000000000000000000000000000000000000000000000000000000000000000000000000000000000000000000000000000000000000000000000000000000000000000000000000000000000000000000000000000000000000000000000000000000000000830200008083989680808203b642a056e81f171bcc55a6ff8345e692c0f86e5b48e01b996cadc001622fb5e363b421880102030405060708c0c0",
        "lastblockhash" : "0x446227c28d9250754440c27b7a3a51b4827aa3525c4f894261a4344e4b8cb1ae",
        "network" : "ConstantinopleFix",
        "postState" : {
            "0x1000000000000000000000000000000000000000" : {
                "balance" : "0x0de0b6b3a7640001",
                "code" : "0x6020600060006000600060003562055730f2506000513f6001556000513b6002556020600060006000513c6000516003556000600060006000600060005161c350f2600455",
                "nonce" : "0x00",
                "storage" : {
                    "0x04" : "0x01"
                }
            },
            "0x2000000000000000000000000000000000000000" : {
                "balance" : "0x0de0b6b3a7640000",
                "code" : "0x6020600060006000600073a000000000000000000000000000000000000000620249f0f15060206000f3",
                "nonce" : "0x00",
                "storage" : {
                }
            },
            "0x2100000000000000000000000000000000000000" : {
                "balance" : "0x0de0b6b3a7640000",
                "code" : "0x6020600060006000600073a000000000000000000000000000000000000000620249f0f25060206000f3",
                "nonce" : "0x00",
                "storage" : {
                }
            },
            "0x2200000000000000000000000000000000000000" : {
                "balance" : "0x0de0b6b3a7640000",
                "code" : "0x602060006000600073a000000000000000000000000000000000000000620249f0f45060206000f3",
                "nonce" : "0x00",
                "storage" : {
                }
            },
            "0x2adc25665018aa1fe0e6bc666dac8fc2697ff9ba" : {
                "balance" : "0x1bc16d674ecb352e",
                "code" : "0x",
                "nonce" : "0x00",
                "storage" : {
                }
            },
            "0x3000000000000000000000000000000000000000" : {
                "balance" : "0x0de0b6b3a7640000",
                "code" : "0x6020600060006000600073a100000000000000000000000000000000000000620249f0f15060206000f3",
                "nonce" : "0x00",
                "storage" : {
                }
            },
            "0x3100000000000000000000000000000000000000" : {
                "balance" : "0x0de0b6b3a7640000",
                "code" : "0x6020600060006000600073a1000000000000000000000000000000000000006203d090f25060206000f3",
                "nonce" : "0x00",
                "storage" : {
                }
            },
            "0x3200000000000000000000000000000000000000" : {
                "balance" : "0x0de0b6b3a7640000",
                "code" : "0x602060006000600073a100000000000000000000000000000000000000620249f0f45060206000f3",
                "nonce" : "0x00",
                "storage" : {
                }
            },
            "0xa000000000000000000000000000000000000000" : {
                "balance" : "0x0de0b6b3a7640000",
                "code" : "0x6000600e80601960003960006000f560005260206000f300fe6460206020556000526005601bf3",
                "nonce" : "0x00",
                "storage" : {
                }
            },
            "0xa100000000000000000000000000000000000000" : {
                "balance" : "0x0de0b6b3a7640000",
                "code" : "0x6000600e80605f60003960006000f56000526001600155600160025560016003556001600455600160055560016006556001600755600160085560016009556001600a556001600b556001600c556001600d556001600e5560206000f300fe6460206020556000526005601bf3",
                "nonce" : "0x00",
                "storage" : {
                }
            },
            "0xa94f5374fce5edbc8e2a8697c15331677e6ebf0b" : {
                "balance" : "0x0de0b6b3a760cad1",
                "code" : "0x00",
                "nonce" : "0x01",
                "storage" : {
                }
            }
        },
        "pre" : {
            "0x1000000000000000000000000000000000000000" : {
                "balance" : "0x0de0b6b3a7640000",
                "code" : "0x6020600060006000600060003562055730f2506000513f6001556000513b6002556020600060006000513c6000516003556000600060006000600060005161c350f2600455",
                "nonce" : "0x00",
                "storage" : {
                }
            },
            "0x2000000000000000000000000000000000000000" : {
                "balance" : "0x0de0b6b3a7640000",
                "code" : "0x6020600060006000600073a000000000000000000000000000000000000000620249f0f15060206000f3",
                "nonce" : "0x00",
                "storage" : {
                }
            },
            "0x2100000000000000000000000000000000000000" : {
                "balance" : "0x0de0b6b3a7640000",
                "code" : "0x6020600060006000600073a000000000000000000000000000000000000000620249f0f25060206000f3",
                "nonce" : "0x00",
                "storage" : {
                }
            },
            "0x2200000000000000000000000000000000000000" : {
                "balance" : "0x0de0b6b3a7640000",
                "code" : "0x602060006000600073a000000000000000000000000000000000000000620249f0f45060206000f3",
                "nonce" : "0x00",
                "storage" : {
                }
            },
            "0x3000000000000000000000000000000000000000" : {
                "balance" : "0x0de0b6b3a7640000",
                "code" : "0x6020600060006000600073a100000000000000000000000000000000000000620249f0f15060206000f3",
                "nonce" : "0x00",
                "storage" : {
                }
            },
            "0x3100000000000000000000000000000000000000" : {
                "balance" : "0x0de0b6b3a7640000",
                "code" : "0x6020600060006000600073a1000000000000000000000000000000000000006203d090f25060206000f3",
                "nonce" : "0x00",
                "storage" : {
                }
            },
            "0x3200000000000000000000000000000000000000" : {
                "balance" : "0x0de0b6b3a7640000",
                "code" : "0x602060006000600073a100000000000000000000000000000000000000620249f0f45060206000f3",
                "nonce" : "0x00",
                "storage" : {
                }
            },
            "0xa000000000000000000000000000000000000000" : {
                "balance" : "0x0de0b6b3a7640000",
                "code" : "0x6000600e80601960003960006000f560005260206000f300fe6460206020556000526005601bf3",
                "nonce" : "0x00",
                "storage" : {
                }
            },
            "0xa100000000000000000000000000000000000000" : {
                "balance" : "0x0de0b6b3a7640000",
                "code" : "0x6000600e80605f60003960006000f56000526001600155600160025560016003556001600455600160055560016006556001600755600160085560016009556001600a556001600b556001600c556001600d556001600e5560206000f300fe6460206020556000526005601bf3",
                "nonce" : "0x00",
                "storage" : {
                }
            },
            "0xa94f5374fce5edbc8e2a8697c15331677e6ebf0b" : {
                "balance" : "0x0de0b6b3a7640000",
                "code" : "0x00",
                "nonce" : "0x00",
                "storage" : {
                }
            }
        },
        "sealEngine" : "NoProof"
    }
}