{
    "extCodeHashDeletedAccount_d0g0v0_Constantinople" : {
        "_info" : {
            "comment" : "Get account A (aaaaaaaa00000000000000000000000000000000) code hash, code size, and code\nCalls Account A's code which causes self destruction of A\nGet account A codehash, code size and code\nIt is still getting the same values because selfdestruct is performed\nat the end of transaction during state finalization stage.\n",
            "filledwith" : "testeth 1.7.0-alpha.1-20+commit.782a7283",
            "lllcversion" : "Version: 0.5.0-develop.2018.11.9+commit.9709dfe0.Linux.g++",
            "source" : "src/BlockchainTestsFiller/GeneralStateTests/stExtCodeHash/extCodeHashDeletedAccount_d0g0v0Filler.json",
            "sourceHash" : "ecc0a5b244bbfd1b91e6889f7e17f8a2b94455ab425ad9be2b355d756f1716c1"
        },
        "blocks" : [
            {
                "blockHeader" : {
                    "bloom" : "0x00000000000000000000000000000000000000000000000000000000000000000000000000000000000000000000000000000000000000000000000000000000000000000000000000000000000000000000000000000000000000000000000000000000000000000000000000000000000000000000000000000000000000000000000000000000000000000000000000000000000000000000000000000000000000000000000000000000000000000000000000000000000000000000000000000000000000000000000000000000000000000000000000000000000000000000000000000000000000000000000000000000000000000000000000000000",
                    "coinbase" : "0x2adc25665018aa1fe0e6bc666dac8fc2697ff9ba",
                    "difficulty" : "0x020000",
                    "extraData" : "0x",
                    "gasLimit" : "0x0f4240",
                    "gasUsed" : "0x0204eb",
                    "hash" : "0xdf7f604f5a1ce2c401f8ac59689eec36425430e9642f8bfd0fa26e400b43b15e",
                    "mixHash" : "0x0000000000000000000000000000000000000000000000000000000000000000",
                    "nonce" : "0x0000000000000000",
                    "number" : "0x01",
                    "parentHash" : "0xb20a48de4b1dd6ad9b5d04290220e89c1fc3a0f6e1ffeb6db907b0ce0012605e",
                    "receiptTrie" : "0x929e9c9560d2da48174202312857715cc5a0910553ddc2860245c2691b53404d",
                    "stateRoot" : "0x37b7630b07799ca4ff921b84c1158cfbb3a3b4e963d1824fb9ab1d4ff6d8fcfe",
                    "timestamp" : "0x03e8",
                    "transactionsTrie" : "0xf2fde0741a86c3f5b87ccee3cce6faafd15be92989188f40919cb13422672757",
                    "uncleHash" : "0x1dcc4de8dec75d7aab85b567b6ccd41ad312451b948a7413f0a142fd40d49347"
                },
                "rlp" : "0xf90260f901f8a0b20a48de4b1dd6ad9b5d04290220e89c1fc3a0f6e1ffeb6db907b0ce0012605ea01dcc4de8dec75d7aab85b567b6ccd41ad312451b948a7413f0a142fd40d49347942adc25665018aa1fe0e6bc666dac8fc2697ff9baa037b7630b07799ca4ff921b84c1158cfbb3a3b4e963d1824fb9ab1d4ff6d8fcfea0f2fde0741a86c3f5b87ccee3cce6faafd15be92989188f40919cb13422672757a0929e9c9560d2da48174202312857715cc5a0910553ddc2860245c2691b53404db90100000000000000000000000000000000000000000000000000000000000000000000000000000000000000000000000000000000000000000000000000000000000000000000000000000000000000000000000000000000000000000000000000000000000000000000000000000000000000000000000000000000000000000000000000000000000000000000000000000000000000000000000000000000000000000000000000000000000000000000000000000000000000000000000000000000000000000000000000000000000000000000000000000000000000000000000000000000000000000000000000000000000000000000000000000000008302000001830f4240830204eb8203e880a00000000000000000000000000000000000000000000000000000000000000000880000000000000000f862f860800183061a8094095e7baea6a6c7c4c2dfeb977efac326af552d8701801ca0ae29a79903b187c6d075320f9834a330b5134244c7fb0476eba58cd87b175fd6a027a8f85308f5f08f4e2f6b2e23d9dcfd740108f8f96517e50c9e1dc86288a673c0",
                "transactions" : [
                    {
                        "data" : "0x",
                        "gasLimit" : "0x061a80",
                        "gasPrice" : "0x01",
                        "nonce" : "0x00",
                        "r" : "0xae29a79903b187c6d075320f9834a330b5134244c7fb0476eba58cd87b175fd6",
                        "s" : "0x27a8f85308f5f08f4e2f6b2e23d9dcfd740108f8f96517e50c9e1dc86288a673",
                        "to" : "0x095e7baea6a6c7c4c2dfeb977efac326af552d87",
                        "v" : "0x1c",
                        "value" : "0x01"
                    }
                ],
                "uncleHeaders" : [
                ]
            }
        ],
        "genesisBlockHeader" : {
            "bloom" : "0x00000000000000000000000000000000000000000000000000000000000000000000000000000000000000000000000000000000000000000000000000000000000000000000000000000000000000000000000000000000000000000000000000000000000000000000000000000000000000000000000000000000000000000000000000000000000000000000000000000000000000000000000000000000000000000000000000000000000000000000000000000000000000000000000000000000000000000000000000000000000000000000000000000000000000000000000000000000000000000000000000000000000000000000000000000000",
            "coinbase" : "0x2adc25665018aa1fe0e6bc666dac8fc2697ff9ba",
            "difficulty" : "0x020000",
            "extraData" : "0x42",
            "gasLimit" : "0x0f4240",
            "gasUsed" : "0x00",
            "hash" : "0xb20a48de4b1dd6ad9b5d04290220e89c1fc3a0f6e1ffeb6db907b0ce0012605e",
            "mixHash" : "0x56e81f171bcc55a6ff8345e692c0f86e5b48e01b996cadc001622fb5e363b421",
            "nonce" : "0x0102030405060708",
            "number" : "0x00",
            "parentHash" : "0x0000000000000000000000000000000000000000000000000000000000000000",
            "receiptTrie" : "0x56e81f171bcc55a6ff8345e692c0f86e5b48e01b996cadc001622fb5e363b421",
            "stateRoot" : "0x3376c7fe3d4b0ce4c3b0066ece0a65a717109fe144789450d99179a654836d1e",
            "timestamp" : "0x03b6",
            "transactionsTrie" : "0x56e81f171bcc55a6ff8345e692c0f86e5b48e01b996cadc001622fb5e363b421",
            "uncleHash" : "0x1dcc4de8dec75d7aab85b567b6ccd41ad312451b948a7413f0a142fd40d49347"
        },
        "genesisRLP" : "0xf901faf901f5a00000000000000000000000000000000000000000000000000000000000000000a01dcc4de8dec75d7aab85b567b6ccd41ad312451b948a7413f0a142fd40d49347942adc25665018aa1fe0e6bc666dac8fc2697ff9baa03376c7fe3d4b0ce4c3b0066ece0a65a717109fe144789450d99179a654836d1ea056e81f171bcc55a6ff8345e692c0f86e5b48e01b996cadc001622fb5e363b421a056e81f171bcc55a6ff8345e692c0f86e5b48e01b996cadc001622fb5e363b421b90100000000000000000000000000000000000000000000000000000000000000000000000000000000000000000000000000000000000000000000000000000000000000000000000000000000000000000000000000000000000000000000000000000000000000000000000000000000000000000000000000000000000000000000000000000000000000000000000000000000000000000000000000000000000000000000000000000000000000000000000000000000000000000000000000000000000000000000000000000000000000000000000000000000000000000000000000000000000000000000000000000000000000000000000000000000008302000080830f4240808203b642a056e81f171bcc55a6ff8345e692c0f86e5b48e01b996cadc001622fb5e363b421880102030405060708c0c0",
        "lastblockhash" : "0xdf7f604f5a1ce2c401f8ac59689eec36425430e9642f8bfd0fa26e400b43b15e",
        "network" : "Constantinople",
        "postState" : {
            "0x095e7baea6a6c7c4c2dfeb977efac326af552d87" : {
                "balance" : "0x0de0b6b3a7640001",
                "code" : "0x6020600060006000600073deadbeef00000000000000000000000000000000620249f0f1506020600060003e6000516000556020600060006000600073deadbeef00000000000000000000000000000001620249f0f1506020600060003e6000516001556020600060006000600073deadbeef00000000000000000000000000000002620249f0f1506020600060003e6000516002556020600060006000600073aaaaaaaa00000000000000000000000000000000620249f0f1506020600060006000600073deadbeef00000000000000000000000000000000620249f0f1506020600060003e6000516003556020600060006000600073deadbeef00000000000000000000000000000001620249f0f1506020600060003e6000516004556020600060006000600073deadbeef00000000000000000000000000000002620249f0f1506020600060003e600051600555",
                "nonce" : "0x00",
                "storage" : {
                    "0x00" : "0x4f8f2f49aec2d92b196659c9d1dc920d271503707a57472bd99eca81b9187f0f",
                    "0x01" : "0x16",
                    "0x02" : "0x73deadbeef00000000000000000000000000000000ff00000000000000000000",
                    "0x03" : "0x4f8f2f49aec2d92b196659c9d1dc920d271503707a57472bd99eca81b9187f0f",
                    "0x04" : "0x16",
                    "0x05" : "0x73deadbeef00000000000000000000000000000000ff00000000000000000000"
                }
            },
            "0x2adc25665018aa1fe0e6bc666dac8fc2697ff9ba" : {
                "balance" : "0x1bc16d674eca04eb",
                "code" : "0x",
                "nonce" : "0x00",
                "storage" : {
                }
            },
            "0xa94f5374fce5edbc8e2a8697c15331677e6ebf0b" : {
                "balance" : "0x0de0b6b3a761fb14",
                "code" : "0x00",
                "nonce" : "0x01",
                "storage" : {
                }
            },
            "0xdeadbeef00000000000000000000000000000000" : {
                "balance" : "0x1bc16d674ec80000",
                "code" : "0x73aaaaaaaa000000000000000000000000000000003f60005260206000f3",
                "nonce" : "0x00",
                "storage" : {
                }
            },
            "0xdeadbeef00000000000000000000000000000001" : {
                "balance" : "0x0de0b6b3a7640000",
                "code" : "0x73aaaaaaaa000000000000000000000000000000003b60005260206000f3",
                "nonce" : "0x00",
                "storage" : {
                }
            },
            "0xdeadbeef00000000000000000000000000000002" : {
                "balance" : "0x0de0b6b3a7640000",
                "code" : "0x73aaaaaaaa000000000000000000000000000000003b6000600073aaaaaaaa000000000000000000000000000000003c60206000f3",
                "nonce" : "0x00",
                "storage" : {
                }
            }
        },
        "pre" : {
            "0x095e7baea6a6c7c4c2dfeb977efac326af552d87" : {
                "balance" : "0x0de0b6b3a7640000",
                "code" : "0x6020600060006000600073deadbeef00000000000000000000000000000000620249f0f1506020600060003e6000516000556020600060006000600073deadbeef00000000000000000000000000000001620249f0f1506020600060003e6000516001556020600060006000600073deadbeef00000000000000000000000000000002620249f0f1506020600060003e6000516002556020600060006000600073aaaaaaaa00000000000000000000000000000000620249f0f1506020600060006000600073deadbeef00000000000000000000000000000000620249f0f1506020600060003e6000516003556020600060006000600073deadbeef00000000000000000000000000000001620249f0f1506020600060003e6000516004556020600060006000600073deadbeef00000000000000000000000000000002620249f0f1506020600060003e600051600555",
                "nonce" : "0x00",
                "storage" : {
                }
            },
            "0xa94f5374fce5edbc8e2a8697c15331677e6ebf0b" : {
                "balance" : "0x0de0b6b3a7640000",
                "code" : "0x00",
                "nonce" : "0x00",
                "storage" : {
                }
            },
            "0xaaaaaaaa00000000000000000000000000000000" : {
                "balance" : "0x0de0b6b3a7640000",
                "code" : "0x73deadbeef00000000000000000000000000000000ff",
                "nonce" : "0x00",
                "storage" : {
                }
            },
            "0xdeadbeef00000000000000000000000000000000" : {
                "balance" : "0x0de0b6b3a7640000",
                "code" : "0x73aaaaaaaa000000000000000000000000000000003f60005260206000f3",
                "nonce" : "0x00",
                "storage" : {
                }
            },
            "0xdeadbeef00000000000000000000000000000001" : {
                "balance" : "0x0de0b6b3a7640000",
                "code" : "0x73aaaaaaaa000000000000000000000000000000003b60005260206000f3",
                "nonce" : "0x00",
                "storage" : {
                }
            },
            "0xdeadbeef00000000000000000000000000000002" : {
                "balance" : "0x0de0b6b3a7640000",
                "code" : "0x73aaaaaaaa000000000000000000000000000000003b6000600073aaaaaaaa000000000000000000000000000000003c60206000f3",
                "nonce" : "0x00",
                "storage" : {
                }
            }
        },
        "sealEngine" : "NoProof"
    },
    "extCodeHashDeletedAccount_d0g0v0_ConstantinopleFix" : {
        "_info" : {
            "comment" : "Get account A (aaaaaaaa00000000000000000000000000000000) code hash, code size, and code\nCalls Account A's code which causes self destruction of A\nGet account A codehash, code size and code\nIt is still getting the same values because selfdestruct is performed\nat the end of transaction during state finalization stage.\n",
            "filledwith" : "testeth 1.7.0-alpha.1-20+commit.782a7283",
            "lllcversion" : "Version: 0.5.0-develop.2018.11.9+commit.9709dfe0.Linux.g++",
            "source" : "src/BlockchainTestsFiller/GeneralStateTests/stExtCodeHash/extCodeHashDeletedAccount_d0g0v0Filler.json",
            "sourceHash" : "ecc0a5b244bbfd1b91e6889f7e17f8a2b94455ab425ad9be2b355d756f1716c1"
        },
        "blocks" : [
            {
                "blockHeader" : {
                    "bloom" : "0x00000000000000000000000000000000000000000000000000000000000000000000000000000000000000000000000000000000000000000000000000000000000000000000000000000000000000000000000000000000000000000000000000000000000000000000000000000000000000000000000000000000000000000000000000000000000000000000000000000000000000000000000000000000000000000000000000000000000000000000000000000000000000000000000000000000000000000000000000000000000000000000000000000000000000000000000000000000000000000000000000000000000000000000000000000000",
                    "coinbase" : "0x2adc25665018aa1fe0e6bc666dac8fc2697ff9ba",
                    "difficulty" : "0x020000",
                    "extraData" : "0x",
                    "gasLimit" : "0x0f4240",
                    "gasUsed" : "0x0204eb",
                    "hash" : "0xdf7f604f5a1ce2c401f8ac59689eec36425430e9642f8bfd0fa26e400b43b15e",
                    "mixHash" : "0x0000000000000000000000000000000000000000000000000000000000000000",
                    "nonce" : "0x0000000000000000",
                    "number" : "0x01",
                    "parentHash" : "0xb20a48de4b1dd6ad9b5d04290220e89c1fc3a0f6e1ffeb6db907b0ce0012605e",
                    "receiptTrie" : "0x929e9c9560d2da48174202312857715cc5a0910553ddc2860245c2691b53404d",
                    "stateRoot" : "0x37b7630b07799ca4ff921b84c1158cfbb3a3b4e963d1824fb9ab1d4ff6d8fcfe",
                    "timestamp" : "0x03e8",
                    "transactionsTrie" : "0xf2fde0741a86c3f5b87ccee3cce6faafd15be92989188f40919cb13422672757",
                    "uncleHash" : "0x1dcc4de8dec75d7aab85b567b6ccd41ad312451b948a7413f0a142fd40d49347"
                },
                "rlp" : "0xf90260f901f8a0b20a48de4b1dd6ad9b5d04290220e89c1fc3a0f6e1ffeb6db907b0ce0012605ea01dcc4de8dec75d7aab85b567b6ccd41ad312451b948a7413f0a142fd40d49347942adc25665018aa1fe0e6bc666dac8fc2697ff9baa037b7630b07799ca4ff921b84c1158cfbb3a3b4e963d1824fb9ab1d4ff6d8fcfea0f2fde0741a86c3f5b87ccee3cce6faafd15be92989188f40919cb13422672757a0929e9c9560d2da48174202312857715cc5a0910553ddc2860245c2691b53404db90100000000000000000000000000000000000000000000000000000000000000000000000000000000000000000000000000000000000000000000000000000000000000000000000000000000000000000000000000000000000000000000000000000000000000000000000000000000000000000000000000000000000000000000000000000000000000000000000000000000000000000000000000000000000000000000000000000000000000000000000000000000000000000000000000000000000000000000000000000000000000000000000000000000000000000000000000000000000000000000000000000000000000000000000000000000008302000001830f4240830204eb8203e880a00000000000000000000000000000000000000000000000000000000000000000880000000000000000f862f860800183061a8094095e7baea6a6c7c4c2dfeb977efac326af552d8701801ca0ae29a79903b187c6d075320f9834a330b5134244c7fb0476eba58cd87b175fd6a027a8f85308f5f08f4e2f6b2e23d9dcfd740108f8f96517e50c9e1dc86288a673c0",
                "transactions" : [
                    {
                        "data" : "0x",
                        "gasLimit" : "0x061a80",
                        "gasPrice" : "0x01",
                        "nonce" : "0x00",
                        "r" : "0xae29a79903b187c6d075320f9834a330b5134244c7fb0476eba58cd87b175fd6",
                        "s" : "0x27a8f85308f5f08f4e2f6b2e23d9dcfd740108f8f96517e50c9e1dc86288a673",
                        "to" : "0x095e7baea6a6c7c4c2dfeb977efac326af552d87",
                        "v" : "0x1c",
                        "value" : "0x01"
                    }
                ],
                "uncleHeaders" : [
                ]
            }
        ],
        "genesisBlockHeader" : {
            "bloom" : "0x00000000000000000000000000000000000000000000000000000000000000000000000000000000000000000000000000000000000000000000000000000000000000000000000000000000000000000000000000000000000000000000000000000000000000000000000000000000000000000000000000000000000000000000000000000000000000000000000000000000000000000000000000000000000000000000000000000000000000000000000000000000000000000000000000000000000000000000000000000000000000000000000000000000000000000000000000000000000000000000000000000000000000000000000000000000",
            "coinbase" : "0x2adc25665018aa1fe0e6bc666dac8fc2697ff9ba",
            "difficulty" : "0x020000",
            "extraData" : "0x42",
            "gasLimit" : "0x0f4240",
            "gasUsed" : "0x00",
            "hash" : "0xb20a48de4b1dd6ad9b5d04290220e89c1fc3a0f6e1ffeb6db907b0ce0012605e",
            "mixHash" : "0x56e81f171bcc55a6ff8345e692c0f86e5b48e01b996cadc001622fb5e363b421",
            "nonce" : "0x0102030405060708",
            "number" : "0x00",
            "parentHash" : "0x0000000000000000000000000000000000000000000000000000000000000000",
            "receiptTrie" : "0x56e81f171bcc55a6ff8345e692c0f86e5b48e01b996cadc001622fb5e363b421",
            "stateRoot" : "0x3376c7fe3d4b0ce4c3b0066ece0a65a717109fe144789450d99179a654836d1e",
            "timestamp" : "0x03b6",
            "transactionsTrie" : "0x56e81f171bcc55a6ff8345e692c0f86e5b48e01b996cadc001622fb5e363b421",
            "uncleHash" : "0x1dcc4de8dec75d7aab85b567b6ccd41ad312451b948a7413f0a142fd40d49347"
        },
        "genesisRLP" : "0xf901faf901f5a00000000000000000000000000000000000000000000000000000000000000000a01dcc4de8dec75d7aab85b567b6ccd41ad312451b948a7413f0a142fd40d49347942adc25665018aa1fe0e6bc666dac8fc2697ff9baa03376c7fe3d4b0ce4c3b0066ece0a65a717109fe144789450d99179a654836d1ea056e81f171bcc55a6ff8345e692c0f86e5b48e01b996cadc001622fb5e363b421a056e81f171bcc55a6ff8345e692c0f86e5b48e01b996cadc001622fb5e363b421b90100000000000000000000000000000000000000000000000000000000000000000000000000000000000000000000000000000000000000000000000000000000000000000000000000000000000000000000000000000000000000000000000000000000000000000000000000000000000000000000000000000000000000000000000000000000000000000000000000000000000000000000000000000000000000000000000000000000000000000000000000000000000000000000000000000000000000000000000000000000000000000000000000000000000000000000000000000000000000000000000000000000000000000000000000000000008302000080830f4240808203b642a056e81f171bcc55a6ff8345e692c0f86e5b48e01b996cadc001622fb5e363b421880102030405060708c0c0",
        "lastblockhash" : "0xdf7f604f5a1ce2c401f8ac59689eec36425430e9642f8bfd0fa26e400b43b15e",
        "network" : "ConstantinopleFix",
        "postState" : {
            "0x095e7baea6a6c7c4c2dfeb977efac326af552d87" : {
                "balance" : "0x0de0b6b3a7640001",
                "code" : "0x6020600060006000600073deadbeef00000000000000000000000000000000620249f0f1506020600060003e6000516000556020600060006000600073deadbeef00000000000000000000000000000001620249f0f1506020600060003e6000516001556020600060006000600073deadbeef00000000000000000000000000000002620249f0f1506020600060003e6000516002556020600060006000600073aaaaaaaa00000000000000000000000000000000620249f0f1506020600060006000600073deadbeef00000000000000000000000000000000620249f0f1506020600060003e6000516003556020600060006000600073deadbeef00000000000000000000000000000001620249f0f1506020600060003e6000516004556020600060006000600073deadbeef00000000000000000000000000000002620249f0f1506020600060003e600051600555",
                "nonce" : "0x00",
                "storage" : {
                    "0x00" : "0x4f8f2f49aec2d92b196659c9d1dc920d271503707a57472bd99eca81b9187f0f",
                    "0x01" : "0x16",
                    "0x02" : "0x73deadbeef00000000000000000000000000000000ff00000000000000000000",
                    "0x03" : "0x4f8f2f49aec2d92b196659c9d1dc920d271503707a57472bd99eca81b9187f0f",
                    "0x04" : "0x16",
                    "0x05" : "0x73deadbeef00000000000000000000000000000000ff00000000000000000000"
                }
            },
            "0x2adc25665018aa1fe0e6bc666dac8fc2697ff9ba" : {
                "balance" : "0x1bc16d674eca04eb",
                "code" : "0x",
                "nonce" : "0x00",
                "storage" : {
                }
            },
            "0xa94f5374fce5edbc8e2a8697c15331677e6ebf0b" : {
                "balance" : "0x0de0b6b3a761fb14",
                "code" : "0x00",
                "nonce" : "0x01",
                "storage" : {
                }
            },
            "0xdeadbeef00000000000000000000000000000000" : {
                "balance" : "0x1bc16d674ec80000",
                "code" : "0x73aaaaaaaa000000000000000000000000000000003f60005260206000f3",
                "nonce" : "0x00",
                "storage" : {
                }
            },
            "0xdeadbeef00000000000000000000000000000001" : {
                "balance" : "0x0de0b6b3a7640000",
                "code" : "0x73aaaaaaaa000000000000000000000000000000003b60005260206000f3",
                "nonce" : "0x00",
                "storage" : {
                }
            },
            "0xdeadbeef00000000000000000000000000000002" : {
                "balance" : "0x0de0b6b3a7640000",
                "code" : "0x73aaaaaaaa000000000000000000000000000000003b6000600073aaaaaaaa000000000000000000000000000000003c60206000f3",
                "nonce" : "0x00",
                "storage" : {
                }
            }
        },
        "pre" : {
            "0x095e7baea6a6c7c4c2dfeb977efac326af552d87" : {
                "balance" : "0x0de0b6b3a7640000",
                "code" : "0x6020600060006000600073deadbeef00000000000000000000000000000000620249f0f1506020600060003e6000516000556020600060006000600073deadbeef00000000000000000000000000000001620249f0f1506020600060003e6000516001556020600060006000600073deadbeef00000000000000000000000000000002620249f0f1506020600060003e6000516002556020600060006000600073aaaaaaaa00000000000000000000000000000000620249f0f1506020600060006000600073deadbeef00000000000000000000000000000000620249f0f1506020600060003e6000516003556020600060006000600073deadbeef00000000000000000000000000000001620249f0f1506020600060003e6000516004556020600060006000600073deadbeef00000000000000000000000000000002620249f0f1506020600060003e600051600555",
                "nonce" : "0x00",
                "storage" : {
                }
            },
            "0xa94f5374fce5edbc8e2a8697c15331677e6ebf0b" : {
                "balance" : "0x0de0b6b3a7640000",
                "code" : "0x00",
                "nonce" : "0x00",
                "storage" : {
                }
            },
            "0xaaaaaaaa00000000000000000000000000000000" : {
                "balance" : "0x0de0b6b3a7640000",
                "code" : "0x73deadbeef00000000000000000000000000000000ff",
                "nonce" : "0x00",
                "storage" : {
                }
            },
            "0xdeadbeef00000000000000000000000000000000" : {
                "balance" : "0x0de0b6b3a7640000",
                "code" : "0x73aaaaaaaa000000000000000000000000000000003f60005260206000f3",
                "nonce" : "0x00",
                "storage" : {
                }
            },
            "0xdeadbeef00000000000000000000000000000001" : {
                "balance" : "0x0de0b6b3a7640000",
                "code" : "0x73aaaaaaaa000000000000000000000000000000003b60005260206000f3",
                "nonce" : "0x00",
                "storage" : {
                }
            },
            "0xdeadbeef00000000000000000000000000000002" : {
                "balance" : "0x0de0b6b3a7640000",
                "code" : "0x73aaaaaaaa000000000000000000000000000000003b6000600073aaaaaaaa000000000000000000000000000000003c60206000f3",
                "nonce" : "0x00",
                "storage" : {
                }
            }
        },
        "sealEngine" : "NoProof"
    }
}