{
    "extCodeHashSubcallOOG_d1g0v0_Constantinople" : {
        "_info" : {
            "comment" : "create contract A in a subcall. go OOG in a subcall (revert happens) check EXTCODEHASH of A (in upper call)",
            "filledwith" : "testeth 1.7.0-alpha.1-20+commit.782a7283",
            "lllcversion" : "Version: 0.5.0-develop.2018.11.9+commit.9709dfe0.Linux.g++",
            "source" : "src/BlockchainTestsFiller/GeneralStateTests/stExtCodeHash/extCodeHashSubcallOOG_d1g0v0Filler.json",
            "sourceHash" : "290a8dcbfb42f87329c01189108225f9bd6f81c53177903bfcc397ad67d6ac0a"
        },
        "blocks" : [
            {
                "blockHeader" : {
                    "bloom" : "0x00000000000000000000000000000000000000000000000000000000000000000000000000000000000000000000000000000000000000000000000000000000000000000000000000000000000000000000000000000000000000000000000000000000000000000000000000000000000000000000000000000000000000000000000000000000000000000000000000000000000000000000000000000000000000000000000000000000000000000000000000000000000000000000000000000000000000000000000000000000000000000000000000000000000000000000000000000000000000000000000000000000000000000000000000000000",
                    "coinbase" : "0x2adc25665018aa1fe0e6bc666dac8fc2697ff9ba",
                    "difficulty" : "0x020000",
                    "extraData" : "0x",
                    "gasLimit" : "0x989680",
                    "gasUsed" : "0x021c33",
                    "hash" : "0x612cae0e87fed5c9a757797ebec2c051e299941d5529027ae4115fbfafb35758",
                    "mixHash" : "0x0000000000000000000000000000000000000000000000000000000000000000",
                    "nonce" : "0x0000000000000000",
                    "number" : "0x01",
                    "parentHash" : "0x75dfb0f97c2b07d1543795ca081145f3e037bd26fc76945af930b0579f33ac0a",
                    "receiptTrie" : "0x1ee0fa746648bb481123d5494e13457881a581bddf1cded69c24832b0b0c3569",
                    "stateRoot" : "0x205aa2e06bab99e5b403572c8ebb772ef633d216369199ca0d5781aac296d027",
                    "timestamp" : "0x03e8",
                    "transactionsTrie" : "0x06e4a3f50046d9287f340604bafc266cd6df01d2d6bc222ebc764a9325f26013",
                    "uncleHash" : "0x1dcc4de8dec75d7aab85b567b6ccd41ad312451b948a7413f0a142fd40d49347"
                },
                "rlp" : "0xf90280f901f8a075dfb0f97c2b07d1543795ca081145f3e037bd26fc76945af930b0579f33ac0aa01dcc4de8dec75d7aab85b567b6ccd41ad312451b948a7413f0a142fd40d49347942adc25665018aa1fe0e6bc666dac8fc2697ff9baa0205aa2e06bab99e5b403572c8ebb772ef633d216369199ca0d5781aac296d027a006e4a3f50046d9287f340604bafc266cd6df01d2d6bc222ebc764a9325f26013a01ee0fa746648bb481123d5494e13457881a581bddf1cded69c24832b0b0c3569b901000000000000000000000000000000000000000000000000000000000000000000000000000000000000000000000000000000000000000000000000000000000000000000000000000000000000000000000000000000000000000000000000000000000000000000000000000000000000000000000000000000000000000000000000000000000000000000000000000000000000000000000000000000000000000000000000000000000000000000000000000000000000000000000000000000000000000000000000000000000000000000000000000000000000000000000000000000000000000000000000000000000000000000000000000000000083020000018398968083021c338203e880a00000000000000000000000000000000000000000000000000000000000000000880000000000000000f882f880800183061a8094100000000000000000000000000000000000000001a000000000000000000000000021000000000000000000000000000000000000001ba06e624e40b52cf55aa93ebd23e520a589a188c48c4816b060737655c7611e0e12a05cc52c8d3113c752ebcbe8cd0cddaf13dba646e05432be4e2bc18793c41f2423c0",
                "transactions" : [
                    {
                        "data" : "0x0000000000000000000000002100000000000000000000000000000000000000",
                        "gasLimit" : "0x061a80",
                        "gasPrice" : "0x01",
                        "nonce" : "0x00",
                        "r" : "0x6e624e40b52cf55aa93ebd23e520a589a188c48c4816b060737655c7611e0e12",
                        "s" : "0x5cc52c8d3113c752ebcbe8cd0cddaf13dba646e05432be4e2bc18793c41f2423",
                        "to" : "0x1000000000000000000000000000000000000000",
                        "v" : "0x1b",
                        "value" : "0x01"
                    }
                ],
                "uncleHeaders" : [
                ]
            }
        ],
        "genesisBlockHeader" : {
            "bloom" : "0x00000000000000000000000000000000000000000000000000000000000000000000000000000000000000000000000000000000000000000000000000000000000000000000000000000000000000000000000000000000000000000000000000000000000000000000000000000000000000000000000000000000000000000000000000000000000000000000000000000000000000000000000000000000000000000000000000000000000000000000000000000000000000000000000000000000000000000000000000000000000000000000000000000000000000000000000000000000000000000000000000000000000000000000000000000000",
            "coinbase" : "0x2adc25665018aa1fe0e6bc666dac8fc2697ff9ba",
            "difficulty" : "0x020000",
            "extraData" : "0x42",
            "gasLimit" : "0x989680",
            "gasUsed" : "0x00",
            "hash" : "0x75dfb0f97c2b07d1543795ca081145f3e037bd26fc76945af930b0579f33ac0a",
            "mixHash" : "0x56e81f171bcc55a6ff8345e692c0f86e5b48e01b996cadc001622fb5e363b421",
            "nonce" : "0x0102030405060708",
            "number" : "0x00",
            "parentHash" : "0x0000000000000000000000000000000000000000000000000000000000000000",
            "receiptTrie" : "0x56e81f171bcc55a6ff8345e692c0f86e5b48e01b996cadc001622fb5e363b421",
            "stateRoot" : "0x1d69995dc0bc9ddc737e27c35f3fc540d8966de313a0043f31e0725a1080b350",
            "timestamp" : "0x03b6",
            "transactionsTrie" : "0x56e81f171bcc55a6ff8345e692c0f86e5b48e01b996cadc001622fb5e363b421",
            "uncleHash" : "0x1dcc4de8dec75d7aab85b567b6ccd41ad312451b948a7413f0a142fd40d49347"
        },
        "genesisRLP" : "0xf901faf901f5a00000000000000000000000000000000000000000000000000000000000000000a01dcc4de8dec75d7aab85b567b6ccd41ad312451b948a7413f0a142fd40d49347942adc25665018aa1fe0e6bc666dac8fc2697ff9baa01d69995dc0bc9ddc737e27c35f3fc540d8966de313a0043f31e0725a1080b350a056e81f171bcc55a6ff8345e692c0f86e5b48e01b996cadc001622fb5e363b421a056e81f171bcc55a6ff8345e692c0f86e5b48e01b996cadc001622fb5e363b421b9010000000000000000000000000000000000000000000000000000000000000000000000000000000000000000000000000000000000000000000000000000000000000000000000000000000000000000000000000000000000000000000000000000000000000000000000000000000000000000000000000000000000000000000000000000000000000000000000000000000000000000000000000000000000000000000000000000000000000000000000000000000000000000000000000000000000000000000000000000000000000000000000000000000000000000000000000000000000000000000000000000000000000000000000000000000000830200008083989680808203b642a056e81f171bcc55a6ff8345e692c0f86e5b48e01b996cadc001622fb5e363b421880102030405060708c0c0",
        "lastblockhash" : "0x612cae0e87fed5c9a757797ebec2c051e299941d5529027ae4115fbfafb35758",
        "network" : "Constantinople",
        "postState" : {
            "0x1000000000000000000000000000000000000000" : {
                "balance" : "0x0de0b6b3a7640001",
                "code" : "0x6020600060006000600060003562055730f2506000513f6001556000513b6002556020600060006000513c6000516003556000600060006000600060005161c350f2600455",
                "nonce" : "0x01",
                "storage" : {
                    "0x01" : "0x9ff1f274b33e3b56edd7734520cbcdf2699fc1dc78b51644cdc56ca65bebeeae",
                    "0x02" : "0x05",
                    "0x03" : "0x6020602055000000000000000000000000000000000000000000000000000000",
                    "0x04" : "0x01"
                }
            },
            "0x2000000000000000000000000000000000000000" : {
                "balance" : "0x0de0b6b3a7640000",
                "code" : "0x6020600060006000600073a000000000000000000000000000000000000000620249f0f15060206000f3",
                "nonce" : "0x00",
                "storage" : {
                }
            },
            "0x2100000000000000000000000000000000000000" : {
                "balance" : "0x0de0b6b3a7640000",
                "code" : "0x6020600060006000600073a000000000000000000000000000000000000000620249f0f25060206000f3",
                "nonce" : "0x00",
                "storage" : {
                }
            },
            "0x2200000000000000000000000000000000000000" : {
                "balance" : "0x0de0b6b3a7640000",
                "code" : "0x602060006000600073a000000000000000000000000000000000000000620249f0f45060206000f3",
                "nonce" : "0x00",
                "storage" : {
                }
            },
            "0x2adc25665018aa1fe0e6bc666dac8fc2697ff9ba" : {
                "balance" : "0x1bc16d674eca1c33",
                "code" : "0x",
                "nonce" : "0x00",
                "storage" : {
                }
            },
            "0x3000000000000000000000000000000000000000" : {
                "balance" : "0x0de0b6b3a7640000",
                "code" : "0x6020600060006000600073a100000000000000000000000000000000000000620249f0f15060206000f3",
                "nonce" : "0x00",
                "storage" : {
                }
            },
            "0x3100000000000000000000000000000000000000" : {
                "balance" : "0x0de0b6b3a7640000",
                "code" : "0x6020600060006000600073a1000000000000000000000000000000000000006203d090f25060206000f3",
                "nonce" : "0x00",
                "storage" : {
                }
            },
            "0x3200000000000000000000000000000000000000" : {
                "balance" : "0x0de0b6b3a7640000",
                "code" : "0x602060006000600073a100000000000000000000000000000000000000620249f0f45060206000f3",
                "nonce" : "0x00",
                "storage" : {
                }
            },
            "0xa000000000000000000000000000000000000000" : {
                "balance" : "0x0de0b6b3a7640000",
                "code" : "0x6000600e80601960003960006000f560005260206000f300fe6460206020556000526005601bf3",
                "nonce" : "0x00",
                "storage" : {
                }
            },
            "0xa100000000000000000000000000000000000000" : {
                "balance" : "0x0de0b6b3a7640000",
                "code" : "0x6000600e80605f60003960006000f56000526001600155600160025560016003556001600455600160055560016006556001600755600160085560016009556001600a556001600b556001600c556001600d556001600e5560206000f300fe6460206020556000526005601bf3",
                "nonce" : "0x00",
                "storage" : {
                }
            },
            "0xa94f5374fce5edbc8e2a8697c15331677e6ebf0b" : {
                "balance" : "0x0de0b6b3a761e3cc",
                "code" : "0x00",
                "nonce" : "0x01",
                "storage" : {
                }
            },
            "0xc566c94b132ce77d6e67add86c5a74e808578876" : {
                "balance" : "0x00",
                "code" : "0x6020602055",
                "nonce" : "0x01",
                "storage" : {
                }
            }
        },
        "pre" : {
            "0x1000000000000000000000000000000000000000" : {
                "balance" : "0x0de0b6b3a7640000",
                "code" : "0x6020600060006000600060003562055730f2506000513f6001556000513b6002556020600060006000513c6000516003556000600060006000600060005161c350f2600455",
                "nonce" : "0x00",
                "storage" : {
                }
            },
            "0x2000000000000000000000000000000000000000" : {
                "balance" : "0x0de0b6b3a7640000",
                "code" : "0x6020600060006000600073a000000000000000000000000000000000000000620249f0f15060206000f3",
                "nonce" : "0x00",
                "storage" : {
                }
            },
            "0x2100000000000000000000000000000000000000" : {
                "balance" : "0x0de0b6b3a7640000",
                "code" : "0x6020600060006000600073a000000000000000000000000000000000000000620249f0f25060206000f3",
                "nonce" : "0x00",
                "storage" : {
                }
            },
            "0x2200000000000000000000000000000000000000" : {
                "balance" : "0x0de0b6b3a7640000",
                "code" : "0x602060006000600073a000000000000000000000000000000000000000620249f0f45060206000f3",
                "nonce" : "0x00",
                "storage" : {
                }
            },
            "0x3000000000000000000000000000000000000000" : {
                "balance" : "0x0de0b6b3a7640000",
                "code" : "0x6020600060006000600073a100000000000000000000000000000000000000620249f0f15060206000f3",
                "nonce" : "0x00",
                "storage" : {
                }
            },
            "0x3100000000000000000000000000000000000000" : {
                "balance" : "0x0de0b6b3a7640000",
                "code" : "0x6020600060006000600073a1000000000000000000000000000000000000006203d090f25060206000f3",
                "nonce" : "0x00",
                "storage" : {
                }
            },
            "0x3200000000000000000000000000000000000000" : {
                "balance" : "0x0de0b6b3a7640000",
                "code" : "0x602060006000600073a100000000000000000000000000000000000000620249f0f45060206000f3",
                "nonce" : "0x00",
                "storage" : {
                }
            },
            "0xa000000000000000000000000000000000000000" : {
                "balance" : "0x0de0b6b3a7640000",
                "code" : "0x6000600e80601960003960006000f560005260206000f300fe6460206020556000526005601bf3",
                "nonce" : "0x00",
                "storage" : {
                }
            },
            "0xa100000000000000000000000000000000000000" : {
                "balance" : "0x0de0b6b3a7640000",
                "code" : "0x6000600e80605f60003960006000f56000526001600155600160025560016003556001600455600160055560016006556001600755600160085560016009556001600a556001600b556001600c556001600d556001600e5560206000f300fe6460206020556000526005601bf3",
                "nonce" : "0x00",
                "storage" : {
                }
            },
            "0xa94f5374fce5edbc8e2a8697c15331677e6ebf0b" : {
                "balance" : "0x0de0b6b3a7640000",
                "code" : "0x00",
                "nonce" : "0x00",
                "storage" : {
                }
            }
        },
        "sealEngine" : "NoProof"
    },
    "extCodeHashSubcallOOG_d1g0v0_ConstantinopleFix" : {
        "_info" : {
            "comment" : "create contract A in a subcall. go OOG in a subcall (revert happens) check EXTCODEHASH of A (in upper call)",
            "filledwith" : "testeth 1.7.0-alpha.1-20+commit.782a7283",
            "lllcversion" : "Version: 0.5.0-develop.2018.11.9+commit.9709dfe0.Linux.g++",
            "source" : "src/BlockchainTestsFiller/GeneralStateTests/stExtCodeHash/extCodeHashSubcallOOG_d1g0v0Filler.json",
            "sourceHash" : "290a8dcbfb42f87329c01189108225f9bd6f81c53177903bfcc397ad67d6ac0a"
        },
        "blocks" : [
            {
                "blockHeader" : {
                    "bloom" : "0x00000000000000000000000000000000000000000000000000000000000000000000000000000000000000000000000000000000000000000000000000000000000000000000000000000000000000000000000000000000000000000000000000000000000000000000000000000000000000000000000000000000000000000000000000000000000000000000000000000000000000000000000000000000000000000000000000000000000000000000000000000000000000000000000000000000000000000000000000000000000000000000000000000000000000000000000000000000000000000000000000000000000000000000000000000000",
                    "coinbase" : "0x2adc25665018aa1fe0e6bc666dac8fc2697ff9ba",
                    "difficulty" : "0x020000",
                    "extraData" : "0x",
                    "gasLimit" : "0x989680",
                    "gasUsed" : "0x021c33",
                    "hash" : "0x612cae0e87fed5c9a757797ebec2c051e299941d5529027ae4115fbfafb35758",
                    "mixHash" : "0x0000000000000000000000000000000000000000000000000000000000000000",
                    "nonce" : "0x0000000000000000",
                    "number" : "0x01",
                    "parentHash" : "0x75dfb0f97c2b07d1543795ca081145f3e037bd26fc76945af930b0579f33ac0a",
                    "receiptTrie" : "0x1ee0fa746648bb481123d5494e13457881a581bddf1cded69c24832b0b0c3569",
                    "stateRoot" : "0x205aa2e06bab99e5b403572c8ebb772ef633d216369199ca0d5781aac296d027",
                    "timestamp" : "0x03e8",
                    "transactionsTrie" : "0x06e4a3f50046d9287f340604bafc266cd6df01d2d6bc222ebc764a9325f26013",
                    "uncleHash" : "0x1dcc4de8dec75d7aab85b567b6ccd41ad312451b948a7413f0a142fd40d49347"
                },
                "rlp" : "0xf90280f901f8a075dfb0f97c2b07d1543795ca081145f3e037bd26fc76945af930b0579f33ac0aa01dcc4de8dec75d7aab85b567b6ccd41ad312451b948a7413f0a142fd40d49347942adc25665018aa1fe0e6bc666dac8fc2697ff9baa0205aa2e06bab99e5b403572c8ebb772ef633d216369199ca0d5781aac296d027a006e4a3f50046d9287f340604bafc266cd6df01d2d6bc222ebc764a9325f26013a01ee0fa746648bb481123d5494e13457881a581bddf1cded69c24832b0b0c3569b901000000000000000000000000000000000000000000000000000000000000000000000000000000000000000000000000000000000000000000000000000000000000000000000000000000000000000000000000000000000000000000000000000000000000000000000000000000000000000000000000000000000000000000000000000000000000000000000000000000000000000000000000000000000000000000000000000000000000000000000000000000000000000000000000000000000000000000000000000000000000000000000000000000000000000000000000000000000000000000000000000000000000000000000000000000000083020000018398968083021c338203e880a00000000000000000000000000000000000000000000000000000000000000000880000000000000000f882f880800183061a8094100000000000000000000000000000000000000001a000000000000000000000000021000000000000000000000000000000000000001ba06e624e40b52cf55aa93ebd23e520a589a188c48c4816b060737655c7611e0e12a05cc52c8d3113c752ebcbe8cd0cddaf13dba646e05432be4e2bc18793c41f2423c0",
                "transactions" : [
                    {
                        "data" : "0x0000000000000000000000002100000000000000000000000000000000000000",
                        "gasLimit" : "0x061a80",
                        "gasPrice" : "0x01",
                        "nonce" : "0x00",
                        "r" : "0x6e624e40b52cf55aa93ebd23e520a589a188c48c4816b060737655c7611e0e12",
                        "s" : "0x5cc52c8d3113c752ebcbe8cd0cddaf13dba646e05432be4e2bc18793c41f2423",
                        "to" : "0x1000000000000000000000000000000000000000",
                        "v" : "0x1b",
                        "value" : "0x01"
                    }
                ],
                "uncleHeaders" : [
                ]
            }
        ],
        "genesisBlockHeader" : {
            "bloom" : "0x00000000000000000000000000000000000000000000000000000000000000000000000000000000000000000000000000000000000000000000000000000000000000000000000000000000000000000000000000000000000000000000000000000000000000000000000000000000000000000000000000000000000000000000000000000000000000000000000000000000000000000000000000000000000000000000000000000000000000000000000000000000000000000000000000000000000000000000000000000000000000000000000000000000000000000000000000000000000000000000000000000000000000000000000000000000",
            "coinbase" : "0x2adc25665018aa1fe0e6bc666dac8fc2697ff9ba",
            "difficulty" : "0x020000",
            "extraData" : "0x42",
            "gasLimit" : "0x989680",
            "gasUsed" : "0x00",
            "hash" : "0x75dfb0f97c2b07d1543795ca081145f3e037bd26fc76945af930b0579f33ac0a",
            "mixHash" : "0x56e81f171bcc55a6ff8345e692c0f86e5b48e01b996cadc001622fb5e363b421",
            "nonce" : "0x0102030405060708",
            "number" : "0x00",
            "parentHash" : "0x0000000000000000000000000000000000000000000000000000000000000000",
            "receiptTrie" : "0x56e81f171bcc55a6ff8345e692c0f86e5b48e01b996cadc001622fb5e363b421",
            "stateRoot" : "0x1d69995dc0bc9ddc737e27c35f3fc540d8966de313a0043f31e0725a1080b350",
            "timestamp" : "0x03b6",
            "transactionsTrie" : "0x56e81f171bcc55a6ff8345e692c0f86e5b48e01b996cadc001622fb5e363b421",
            "uncleHash" : "0x1dcc4de8dec75d7aab85b567b6ccd41ad312451b948a7413f0a142fd40d49347"
        },
        "genesisRLP" : "0xf901faf901f5a00000000000000000000000000000000000000000000000000000000000000000a01dcc4de8dec75d7aab85b567b6ccd41ad312451b948a7413f0a142fd40d49347942adc25665018aa1fe0e6bc666dac8fc2697ff9baa01d69995dc0bc9ddc737e27c35f3fc540d8966de313a0043f31e0725a1080b350a056e81f171bcc55a6ff8345e692c0f86e5b48e01b996cadc001622fb5e363b421a056e81f171bcc55a6ff8345e692c0f86e5b48e01b996cadc001622fb5e363b421b9010000000000000000000000000000000000000000000000000000000000000000000000000000000000000000000000000000000000000000000000000000000000000000000000000000000000000000000000000000000000000000000000000000000000000000000000000000000000000000000000000000000000000000000000000000000000000000000000000000000000000000000000000000000000000000000000000000000000000000000000000000000000000000000000000000000000000000000000000000000000000000000000000000000000000000000000000000000000000000000000000000000000000000000000000000000000830200008083989680808203b642a056e81f171bcc55a6ff8345e692c0f86e5b48e01b996cadc001622fb5e363b421880102030405060708c0c0",
        "lastblockhash" : "0x612cae0e87fed5c9a757797ebec2c051e299941d5529027ae4115fbfafb35758",
        "network" : "ConstantinopleFix",
        "postState" : {
            "0x1000000000000000000000000000000000000000" : {
                "balance" : "0x0de0b6b3a7640001",
                "code" : "0x6020600060006000600060003562055730f2506000513f6001556000513b6002556020600060006000513c6000516003556000600060006000600060005161c350f2600455",
                "nonce" : "0x01",
                "storage" : {
                    "0x01" : "0x9ff1f274b33e3b56edd7734520cbcdf2699fc1dc78b51644cdc56ca65bebeeae",
                    "0x02" : "0x05",
                    "0x03" : "0x6020602055000000000000000000000000000000000000000000000000000000",
                    "0x04" : "0x01"
                }
            },
            "0x2000000000000000000000000000000000000000" : {
                "balance" : "0x0de0b6b3a7640000",
                "code" : "0x6020600060006000600073a000000000000000000000000000000000000000620249f0f15060206000f3",
                "nonce" : "0x00",
                "storage" : {
                }
            },
            "0x2100000000000000000000000000000000000000" : {
                "balance" : "0x0de0b6b3a7640000",
                "code" : "0x6020600060006000600073a000000000000000000000000000000000000000620249f0f25060206000f3",
                "nonce" : "0x00",
                "storage" : {
                }
            },
            "0x2200000000000000000000000000000000000000" : {
                "balance" : "0x0de0b6b3a7640000",
                "code" : "0x602060006000600073a000000000000000000000000000000000000000620249f0f45060206000f3",
                "nonce" : "0x00",
                "storage" : {
                }
            },
            "0x2adc25665018aa1fe0e6bc666dac8fc2697ff9ba" : {
                "balance" : "0x1bc16d674eca1c33",
                "code" : "0x",
                "nonce" : "0x00",
                "storage" : {
                }
            },
            "0x3000000000000000000000000000000000000000" : {
                "balance" : "0x0de0b6b3a7640000",
                "code" : "0x6020600060006000600073a100000000000000000000000000000000000000620249f0f15060206000f3",
                "nonce" : "0x00",
                "storage" : {
                }
            },
            "0x3100000000000000000000000000000000000000" : {
                "balance" : "0x0de0b6b3a7640000",
                "code" : "0x6020600060006000600073a1000000000000000000000000000000000000006203d090f25060206000f3",
                "nonce" : "0x00",
                "storage" : {
                }
            },
            "0x3200000000000000000000000000000000000000" : {
                "balance" : "0x0de0b6b3a7640000",
                "code" : "0x602060006000600073a100000000000000000000000000000000000000620249f0f45060206000f3",
                "nonce" : "0x00",
                "storage" : {
                }
            },
            "0xa000000000000000000000000000000000000000" : {
                "balance" : "0x0de0b6b3a7640000",
                "code" : "0x6000600e80601960003960006000f560005260206000f300fe6460206020556000526005601bf3",
                "nonce" : "0x00",
                "storage" : {
                }
            },
            "0xa100000000000000000000000000000000000000" : {
                "balance" : "0x0de0b6b3a7640000",
                "code" : "0x6000600e80605f60003960006000f56000526001600155600160025560016003556001600455600160055560016006556001600755600160085560016009556001600a556001600b556001600c556001600d556001600e5560206000f300fe6460206020556000526005601bf3",
                "nonce" : "0x00",
                "storage" : {
                }
            },
            "0xa94f5374fce5edbc8e2a8697c15331677e6ebf0b" : {
                "balance" : "0x0de0b6b3a761e3cc",
                "code" : "0x00",
                "nonce" : "0x01",
                "storage" : {
                }
            },
            "0xc566c94b132ce77d6e67add86c5a74e808578876" : {
                "balance" : "0x00",
                "code" : "0x6020602055",
                "nonce" : "0x01",
                "storage" : {
                }
            }
        },
        "pre" : {
            "0x1000000000000000000000000000000000000000" : {
                "balance" : "0x0de0b6b3a7640000",
                "code" : "0x6020600060006000600060003562055730f2506000513f6001556000513b6002556020600060006000513c6000516003556000600060006000600060005161c350f2600455",
                "nonce" : "0x00",
                "storage" : {
                }
            },
            "0x2000000000000000000000000000000000000000" : {
                "balance" : "0x0de0b6b3a7640000",
                "code" : "0x6020600060006000600073a000000000000000000000000000000000000000620249f0f15060206000f3",
                "nonce" : "0x00",
                "storage" : {
                }
            },
            "0x2100000000000000000000000000000000000000" : {
                "balance" : "0x0de0b6b3a7640000",
                "code" : "0x6020600060006000600073a000000000000000000000000000000000000000620249f0f25060206000f3",
                "nonce" : "0x00",
                "storage" : {
                }
            },
            "0x2200000000000000000000000000000000000000" : {
                "balance" : "0x0de0b6b3a7640000",
                "code" : "0x602060006000600073a000000000000000000000000000000000000000620249f0f45060206000f3",
                "nonce" : "0x00",
                "storage" : {
                }
            },
            "0x3000000000000000000000000000000000000000" : {
                "balance" : "0x0de0b6b3a7640000",
                "code" : "0x6020600060006000600073a100000000000000000000000000000000000000620249f0f15060206000f3",
                "nonce" : "0x00",
                "storage" : {
                }
            },
            "0x3100000000000000000000000000000000000000" : {
                "balance" : "0x0de0b6b3a7640000",
                "code" : "0x6020600060006000600073a1000000000000000000000000000000000000006203d090f25060206000f3",
                "nonce" : "0x00",
                "storage" : {
                }
            },
            "0x3200000000000000000000000000000000000000" : {
                "balance" : "0x0de0b6b3a7640000",
                "code" : "0x602060006000600073a100000000000000000000000000000000000000620249f0f45060206000f3",
                "nonce" : "0x00",
                "storage" : {
                }
            },
            "0xa000000000000000000000000000000000000000" : {
                "balance" : "0x0de0b6b3a7640000",
                "code" : "0x6000600e80601960003960006000f560005260206000f300fe6460206020556000526005601bf3",
                "nonce" : "0x00",
                "storage" : {
                }
            },
            "0xa100000000000000000000000000000000000000" : {
                "balance" : "0x0de0b6b3a7640000",
                "code" : "0x6000600e80605f60003960006000f56000526001600155600160025560016003556001600455600160055560016006556001600755600160085560016009556001600a556001600b556001600c556001600d556001600e5560206000f300fe6460206020556000526005601bf3",
                "nonce" : "0x00",
                "storage" : {
                }
            },
            "0xa94f5374fce5edbc8e2a8697c15331677e6ebf0b" : {
                "balance" : "0x0de0b6b3a7640000",
                "code" : "0x00",
                "nonce" : "0x00",
                "storage" : {
                }
            }
        },
        "sealEngine" : "NoProof"
    }
}