{
    "RawDelegateCallGasMemory_d0g0v0_Berlin" : {
        "_info" : {
            "comment" : "",
            "filling-rpc-server" : "evm version 1.10.4-unstable-966ee3ae-20210528",
            "filling-tool-version" : "retesteth-0.1.1-eip1559+commit.658fc3a8.Linux.g++",
            "lllcversion" : "Version: 0.5.14-develop.2021.5.18+commit.14c9d5de.mod.Linux.g++",
            "source" : "src/GeneralStateTestsFiller/stEIP150singleCodeGasPrices/RawDelegateCallGasMemoryFiller.json",
            "sourceHash" : "8faeb910379f704b9b8e07f6a6c4ce2a54f09a0419d9d4515fa463c1691cefb1"
        },
        "genesisBlockHeader" : {
            "bloom" : "0x00000000000000000000000000000000000000000000000000000000000000000000000000000000000000000000000000000000000000000000000000000000000000000000000000000000000000000000000000000000000000000000000000000000000000000000000000000000000000000000000000000000000000000000000000000000000000000000000000000000000000000000000000000000000000000000000000000000000000000000000000000000000000000000000000000000000000000000000000000000000000000000000000000000000000000000000000000000000000000000000000000000000000000000000000000000",
            "coinbase" : "0x2adc25665018aa1fe0e6bc666dac8fc2697ff9ba",
            "difficulty" : "0x020000",
            "extraData" : "0x00",
            "gasLimit" : "0x989680",
            "gasUsed" : "0x00",
            "hash" : "0x53c4da26495d8254c014e521a85b8a1138a1674c11f062892b2c9a74816b262c",
            "mixHash" : "0x0000000000000000000000000000000000000000000000000000000000000000",
            "nonce" : "0x0000000000000000",
            "number" : "0x00",
            "parentHash" : "0x0000000000000000000000000000000000000000000000000000000000000000",
            "receiptTrie" : "0x56e81f171bcc55a6ff8345e692c0f86e5b48e01b996cadc001622fb5e363b421",
            "stateRoot" : "0x705d74fdf256aaae13ce7524ad27ec54a240353035bbba869336b8210a59a9c9",
            "timestamp" : "0x00",
            "transactionsTrie" : "0x56e81f171bcc55a6ff8345e692c0f86e5b48e01b996cadc001622fb5e363b421",
            "uncleHash" : "0x1dcc4de8dec75d7aab85b567b6ccd41ad312451b948a7413f0a142fd40d49347"
        },
        "pre" : {
            "0x094f5374fce5edbc8e2a8697c15331677e6ebf0b" : {
                "balance" : "0x00",
                "code" : "0x5a60025500",
                "nonce" : "0x00",
                "storage" : {
                }
            },
            "0xa94f5374fce5edbc8e2a8697c15331677e6ebf0b" : {
                "balance" : "0xe8d4a51000",
                "code" : "0x",
                "nonce" : "0x00",
                "storage" : {
                }
            },
            "0xb94f5374fce5edbc8e2a8697c15331677e6ebf0b" : {
                "balance" : "0x00",
                "code" : "0x5a600052611f406000611f40600073094f5374fce5edbc8e2a8697c15331677e6ebf0b617530f4505a6000510360015500",
                "nonce" : "0x00",
                "storage" : {
                }
            }
        },
        "postState" : {
            "0x094f5374fce5edbc8e2a8697c15331677e6ebf0b" : {
                "code" : "0x5a60025500",
                "nonce" : "0x00",
                "balance" : "0x00",
                "storage" : {
                }
            },
            "0x2adc25665018aa1fe0e6bc666dac8fc2697ff9ba" : {
                "code" : "0x",
                "nonce" : "0x00",
                "balance" : "0x1bc16d674ed27c56",
                "storage" : {
                }
            },
            "0xa94f5374fce5edbc8e2a8697c15331677e6ebf0b" : {
                "code" : "0x",
                "nonce" : "0x01",
                "balance" : "0xe8d49a93aa",
                "storage" : {
                }
            },
            "0xb94f5374fce5edbc8e2a8697c15331677e6ebf0b" : {
                "code" : "0x5a600052611f406000611f40600073094f5374fce5edbc8e2a8697c15331677e6ebf0b617530f4505a6000510360015500",
                "nonce" : "0x00",
                "balance" : "0x00",
                "storage" : {
                    "0x01" : "0x6405",
                    "0x02" : "0x752e"
                }
            }
        },
        "network" : "Berlin",
        "sealEngine" : "NoProof",
        "lastblockhash" : "0x371b889b53f04e897e4c6777bef333360d58b6d41ef161762350fa18c3a3f074",
        "genesisRLP" : "0xf901f8f901f3a00000000000000000000000000000000000000000000000000000000000000000a01dcc4de8dec75d7aab85b567b6ccd41ad312451b948a7413f0a142fd40d49347942adc25665018aa1fe0e6bc666dac8fc2697ff9baa0705d74fdf256aaae13ce7524ad27ec54a240353035bbba869336b8210a59a9c9a056e81f171bcc55a6ff8345e692c0f86e5b48e01b996cadc001622fb5e363b421a056e81f171bcc55a6ff8345e692c0f86e5b48e01b996cadc001622fb5e363b421b9010000000000000000000000000000000000000000000000000000000000000000000000000000000000000000000000000000000000000000000000000000000000000000000000000000000000000000000000000000000000000000000000000000000000000000000000000000000000000000000000000000000000000000000000000000000000000000000000000000000000000000000000000000000000000000000000000000000000000000000000000000000000000000000000000000000000000000000000000000000000000000000000000000000000000000000000000000000000000000000000000000000000000000000000000000000000830200008083989680808000a00000000000000000000000000000000000000000000000000000000000000000880000000000000000c0c0",
        "blocks" : [
            {
                "rlp" : "0xf90260f901f8a053c4da26495d8254c014e521a85b8a1138a1674c11f062892b2c9a74816b262ca01dcc4de8dec75d7aab85b567b6ccd41ad312451b948a7413f0a142fd40d49347942adc25665018aa1fe0e6bc666dac8fc2697ff9baa0e60650c0bab2697c0a63f9b4cc9f5354a376716226c247ffcdbebee1210b3ac1a02457ae10a66eae4fac47715afae72233a48a78a0199e950d0552cdb6a9a7f386a0e457396c3b1ff91ab97374f3d759307e15e5f63ff3ddfde8a8e812a09f99ab30b901000000000000000000000000000000000000000000000000000000000000000000000000000000000000000000000000000000000000000000000000000000000000000000000000000000000000000000000000000000000000000000000000000000000000000000000000000000000000000000000000000000000000000000000000000000000000000000000000000000000000000000000000000000000000000000000000000000000000000000000000000000000000000000000000000000000000000000000000000000000000000000000000000000000000000000000000000000000000000000000000000000000000000000000000000000000083020000018398968083010c6f8203e800a00000000000000000000000000000000000000000000000000000000000000000880000000000000000f862f860800a8307a12094b94f5374fce5edbc8e2a8697c15331677e6ebf0b80801ca03aef3a5148d2925d8c9607b7102bdd96c4b712986e6e8011cceac4c152509f8ea04a0218cbed3a7577c71da2b2a701c4278b1e59c779efbaad585b92cfb7aad81cc0",
                "blockHeader" : {
                    "bloom" : "0x00000000000000000000000000000000000000000000000000000000000000000000000000000000000000000000000000000000000000000000000000000000000000000000000000000000000000000000000000000000000000000000000000000000000000000000000000000000000000000000000000000000000000000000000000000000000000000000000000000000000000000000000000000000000000000000000000000000000000000000000000000000000000000000000000000000000000000000000000000000000000000000000000000000000000000000000000000000000000000000000000000000000000000000000000000000",
                    "coinbase" : "0x2adc25665018aa1fe0e6bc666dac8fc2697ff9ba",
                    "difficulty" : "0x020000",
                    "extraData" : "0x00",
                    "gasLimit" : "0x989680",
                    "gasUsed" : "0x010c6f",
                    "hash" : "0x371b889b53f04e897e4c6777bef333360d58b6d41ef161762350fa18c3a3f074",
                    "mixHash" : "0x0000000000000000000000000000000000000000000000000000000000000000",
                    "nonce" : "0x0000000000000000",
                    "number" : "0x01",
                    "parentHash" : "0x53c4da26495d8254c014e521a85b8a1138a1674c11f062892b2c9a74816b262c",
                    "receiptTrie" : "0xe457396c3b1ff91ab97374f3d759307e15e5f63ff3ddfde8a8e812a09f99ab30",
                    "stateRoot" : "0xe60650c0bab2697c0a63f9b4cc9f5354a376716226c247ffcdbebee1210b3ac1",
                    "timestamp" : "0x03e8",
                    "transactionsTrie" : "0x2457ae10a66eae4fac47715afae72233a48a78a0199e950d0552cdb6a9a7f386",
                    "uncleHash" : "0x1dcc4de8dec75d7aab85b567b6ccd41ad312451b948a7413f0a142fd40d49347"
                },
                "transactions" : [
                    {
                        "data" : "0x",
                        "gasLimit" : "0x07a120",
                        "gasPrice" : "0x0a",
                        "nonce" : "0x00",
                        "to" : "0xb94f5374fce5edbc8e2a8697c15331677e6ebf0b",
                        "value" : "0x00",
                        "v" : "0x1c",
                        "r" : "0x3aef3a5148d2925d8c9607b7102bdd96c4b712986e6e8011cceac4c152509f8e",
                        "s" : "0x4a0218cbed3a7577c71da2b2a701c4278b1e59c779efbaad585b92cfb7aad81c"
                    }
                ],
                "uncleHeaders" : [
                ]
            }
        ]
    },
    "RawDelegateCallGasMemory_d0g0v0_Istanbul" : {
        "_info" : {
            "comment" : "",
            "filling-rpc-server" : "evm version 1.10.4-unstable-966ee3ae-20210528",
            "filling-tool-version" : "retesteth-0.1.1-eip1559+commit.658fc3a8.Linux.g++",
            "lllcversion" : "Version: 0.5.14-develop.2021.5.18+commit.14c9d5de.mod.Linux.g++",
            "source" : "src/GeneralStateTestsFiller/stEIP150singleCodeGasPrices/RawDelegateCallGasMemoryFiller.json",
            "sourceHash" : "8faeb910379f704b9b8e07f6a6c4ce2a54f09a0419d9d4515fa463c1691cefb1"
        },
        "genesisBlockHeader" : {
            "bloom" : "0x00000000000000000000000000000000000000000000000000000000000000000000000000000000000000000000000000000000000000000000000000000000000000000000000000000000000000000000000000000000000000000000000000000000000000000000000000000000000000000000000000000000000000000000000000000000000000000000000000000000000000000000000000000000000000000000000000000000000000000000000000000000000000000000000000000000000000000000000000000000000000000000000000000000000000000000000000000000000000000000000000000000000000000000000000000000",
            "coinbase" : "0x2adc25665018aa1fe0e6bc666dac8fc2697ff9ba",
            "difficulty" : "0x020000",
            "extraData" : "0x00",
            "gasLimit" : "0x989680",
            "gasUsed" : "0x00",
            "hash" : "0x53c4da26495d8254c014e521a85b8a1138a1674c11f062892b2c9a74816b262c",
            "mixHash" : "0x0000000000000000000000000000000000000000000000000000000000000000",
            "nonce" : "0x0000000000000000",
            "number" : "0x00",
            "parentHash" : "0x0000000000000000000000000000000000000000000000000000000000000000",
            "receiptTrie" : "0x56e81f171bcc55a6ff8345e692c0f86e5b48e01b996cadc001622fb5e363b421",
            "stateRoot" : "0x705d74fdf256aaae13ce7524ad27ec54a240353035bbba869336b8210a59a9c9",
            "timestamp" : "0x00",
            "transactionsTrie" : "0x56e81f171bcc55a6ff8345e692c0f86e5b48e01b996cadc001622fb5e363b421",
            "uncleHash" : "0x1dcc4de8dec75d7aab85b567b6ccd41ad312451b948a7413f0a142fd40d49347"
        },
        "pre" : {
            "0x094f5374fce5edbc8e2a8697c15331677e6ebf0b" : {
                "balance" : "0x00",
                "code" : "0x5a60025500",
                "nonce" : "0x00",
                "storage" : {
                }
            },
            "0xa94f5374fce5edbc8e2a8697c15331677e6ebf0b" : {
                "balance" : "0xe8d4a51000",
                "code" : "0x",
                "nonce" : "0x00",
                "storage" : {
                }
            },
            "0xb94f5374fce5edbc8e2a8697c15331677e6ebf0b" : {
                "balance" : "0x00",
                "code" : "0x5a600052611f406000611f40600073094f5374fce5edbc8e2a8697c15331677e6ebf0b617530f4505a6000510360015500",
                "nonce" : "0x00",
                "storage" : {
                }
            }
        },
        "postState" : {
            "0x094f5374fce5edbc8e2a8697c15331677e6ebf0b" : {
                "code" : "0x5a60025500",
                "nonce" : "0x00",
                "balance" : "0x00",
                "storage" : {
                }
            },
            "0x2adc25665018aa1fe0e6bc666dac8fc2697ff9ba" : {
                "code" : "0x",
                "nonce" : "0x00",
                "balance" : "0x1bc16d674ed18e0e",
                "storage" : {
                }
            },
            "0xa94f5374fce5edbc8e2a8697c15331677e6ebf0b" : {
                "code" : "0x",
                "nonce" : "0x01",
                "balance" : "0xe8d49b81f2",
                "storage" : {
                }
            },
            "0xb94f5374fce5edbc8e2a8697c15331677e6ebf0b" : {
                "code" : "0x5a600052611f406000611f40600073094f5374fce5edbc8e2a8697c15331677e6ebf0b617530f4505a6000510360015500",
                "nonce" : "0x00",
                "balance" : "0x00",
                "storage" : {
                    "0x01" : "0x5465",
                    "0x02" : "0x752e"
                }
            }
        },
        "network" : "Istanbul",
        "sealEngine" : "NoProof",
        "lastblockhash" : "0xb6fa77e572c535577a031d8f234cc33dc15e49898f0d6bbb09609b3c16abf06b",
        "genesisRLP" : "0xf901f8f901f3a00000000000000000000000000000000000000000000000000000000000000000a01dcc4de8dec75d7aab85b567b6ccd41ad312451b948a7413f0a142fd40d49347942adc25665018aa1fe0e6bc666dac8fc2697ff9baa0705d74fdf256aaae13ce7524ad27ec54a240353035bbba869336b8210a59a9c9a056e81f171bcc55a6ff8345e692c0f86e5b48e01b996cadc001622fb5e363b421a056e81f171bcc55a6ff8345e692c0f86e5b48e01b996cadc001622fb5e363b421b9010000000000000000000000000000000000000000000000000000000000000000000000000000000000000000000000000000000000000000000000000000000000000000000000000000000000000000000000000000000000000000000000000000000000000000000000000000000000000000000000000000000000000000000000000000000000000000000000000000000000000000000000000000000000000000000000000000000000000000000000000000000000000000000000000000000000000000000000000000000000000000000000000000000000000000000000000000000000000000000000000000000000000000000000000000000000830200008083989680808000a00000000000000000000000000000000000000000000000000000000000000000880000000000000000c0c0",
        "blocks" : [
            {
                "rlp" : "0xf9025ff901f7a053c4da26495d8254c014e521a85b8a1138a1674c11f062892b2c9a74816b262ca01dcc4de8dec75d7aab85b567b6ccd41ad312451b948a7413f0a142fd40d49347942adc25665018aa1fe0e6bc666dac8fc2697ff9baa00b9e08ba09be3182b3aaaeeb9b4232322b3c3ff0eddebff3fef0044918a5cc99a02457ae10a66eae4fac47715afae72233a48a78a0199e950d0552cdb6a9a7f386a058ed2d25724ad816f2a56322fafd062084fd4bc24abc8c93f03ab78b3f807b43b901000000000000000000000000000000000000000000000000000000000000000000000000000000000000000000000000000000000000000000000000000000000000000000000000000000000000000000000000000000000000000000000000000000000000000000000000000000000000000000000000000000000000000000000000000000000000000000000000000000000000000000000000000000000000000000000000000000000000000000000000000000000000000000000000000000000000000000000000000000000000000000000000000000000000000000000000000000000000000000000000000000000000000000000000000000000083020000018398968082f49b8203e800a00000000000000000000000000000000000000000000000000000000000000000880000000000000000f862f860800a8307a12094b94f5374fce5edbc8e2a8697c15331677e6ebf0b80801ca03aef3a5148d2925d8c9607b7102bdd96c4b712986e6e8011cceac4c152509f8ea04a0218cbed3a7577c71da2b2a701c4278b1e59c779efbaad585b92cfb7aad81cc0",
                "blockHeader" : {
                    "bloom" : "0x00000000000000000000000000000000000000000000000000000000000000000000000000000000000000000000000000000000000000000000000000000000000000000000000000000000000000000000000000000000000000000000000000000000000000000000000000000000000000000000000000000000000000000000000000000000000000000000000000000000000000000000000000000000000000000000000000000000000000000000000000000000000000000000000000000000000000000000000000000000000000000000000000000000000000000000000000000000000000000000000000000000000000000000000000000000",
                    "coinbase" : "0x2adc25665018aa1fe0e6bc666dac8fc2697ff9ba",
                    "difficulty" : "0x020000",
                    "extraData" : "0x00",
                    "gasLimit" : "0x989680",
                    "gasUsed" : "0xf49b",
                    "hash" : "0xb6fa77e572c535577a031d8f234cc33dc15e49898f0d6bbb09609b3c16abf06b",
                    "mixHash" : "0x0000000000000000000000000000000000000000000000000000000000000000",
                    "nonce" : "0x0000000000000000",
                    "number" : "0x01",
                    "parentHash" : "0x53c4da26495d8254c014e521a85b8a1138a1674c11f062892b2c9a74816b262c",
                    "receiptTrie" : "0x58ed2d25724ad816f2a56322fafd062084fd4bc24abc8c93f03ab78b3f807b43",
                    "stateRoot" : "0x0b9e08ba09be3182b3aaaeeb9b4232322b3c3ff0eddebff3fef0044918a5cc99",
                    "timestamp" : "0x03e8",
                    "transactionsTrie" : "0x2457ae10a66eae4fac47715afae72233a48a78a0199e950d0552cdb6a9a7f386",
                    "uncleHash" : "0x1dcc4de8dec75d7aab85b567b6ccd41ad312451b948a7413f0a142fd40d49347"
                },
                "transactions" : [
                    {
                        "data" : "0x",
                        "gasLimit" : "0x07a120",
                        "gasPrice" : "0x0a",
                        "nonce" : "0x00",
                        "to" : "0xb94f5374fce5edbc8e2a8697c15331677e6ebf0b",
                        "value" : "0x00",
                        "v" : "0x1c",
                        "r" : "0x3aef3a5148d2925d8c9607b7102bdd96c4b712986e6e8011cceac4c152509f8e",
                        "s" : "0x4a0218cbed3a7577c71da2b2a701c4278b1e59c779efbaad585b92cfb7aad81c"
                    }
                ],
                "uncleHeaders" : [
                ]
            }
        ]
    },
    "RawDelegateCallGasMemory_d0g0v0_London" : {
        "_info" : {
            "comment" : "",
            "filling-rpc-server" : "evm version 1.10.4-unstable-966ee3ae-20210528",
            "filling-tool-version" : "retesteth-0.1.1-eip1559+commit.658fc3a8.Linux.g++",
            "lllcversion" : "Version: 0.5.14-develop.2021.5.18+commit.14c9d5de.mod.Linux.g++",
            "source" : "src/GeneralStateTestsFiller/stEIP150singleCodeGasPrices/RawDelegateCallGasMemoryFiller.json",
            "sourceHash" : "8faeb910379f704b9b8e07f6a6c4ce2a54f09a0419d9d4515fa463c1691cefb1"
        },
        "genesisBlockHeader" : {
            "bloom" : "0x00000000000000000000000000000000000000000000000000000000000000000000000000000000000000000000000000000000000000000000000000000000000000000000000000000000000000000000000000000000000000000000000000000000000000000000000000000000000000000000000000000000000000000000000000000000000000000000000000000000000000000000000000000000000000000000000000000000000000000000000000000000000000000000000000000000000000000000000000000000000000000000000000000000000000000000000000000000000000000000000000000000000000000000000000000000",
            "coinbase" : "0x2adc25665018aa1fe0e6bc666dac8fc2697ff9ba",
            "difficulty" : "0x020000",
            "extraData" : "0x00",
            "gasLimit" : "0x989680",
            "gasUsed" : "0x00",
            "hash" : "0xcece4c4866368486c8bae6cf4af8197e5bdab4ff29c8e30dab7589bc5d52d4fc",
            "mixHash" : "0x0000000000000000000000000000000000000000000000000000000000000000",
            "nonce" : "0x0000000000000000",
            "number" : "0x00",
            "parentHash" : "0x0000000000000000000000000000000000000000000000000000000000000000",
            "receiptTrie" : "0x56e81f171bcc55a6ff8345e692c0f86e5b48e01b996cadc001622fb5e363b421",
            "stateRoot" : "0x705d74fdf256aaae13ce7524ad27ec54a240353035bbba869336b8210a59a9c9",
            "timestamp" : "0x00",
            "transactionsTrie" : "0x56e81f171bcc55a6ff8345e692c0f86e5b48e01b996cadc001622fb5e363b421",
            "uncleHash" : "0x1dcc4de8dec75d7aab85b567b6ccd41ad312451b948a7413f0a142fd40d49347",
            "baseFee" : "0x0b"
        },
        "pre" : {
            "0x094f5374fce5edbc8e2a8697c15331677e6ebf0b" : {
                "balance" : "0x00",
                "code" : "0x5a60025500",
                "nonce" : "0x00",
                "storage" : {
                }
            },
            "0xa94f5374fce5edbc8e2a8697c15331677e6ebf0b" : {
                "balance" : "0xe8d4a51000",
                "code" : "0x",
                "nonce" : "0x00",
                "storage" : {
                }
            },
            "0xb94f5374fce5edbc8e2a8697c15331677e6ebf0b" : {
                "balance" : "0x00",
                "code" : "0x5a600052611f406000611f40600073094f5374fce5edbc8e2a8697c15331677e6ebf0b617530f4505a6000510360015500",
                "nonce" : "0x00",
                "storage" : {
                }
            }
        },
        "postState" : {
            "0x094f5374fce5edbc8e2a8697c15331677e6ebf0b" : {
                "code" : "0x5a60025500",
                "nonce" : "0x00",
                "balance" : "0x00",
                "storage" : {
                }
            },
            "0x2adc25665018aa1fe0e6bc666dac8fc2697ff9ba" : {
                "code" : "0x",
                "nonce" : "0x00",
                "balance" : "0x1bc16d674ec80000",
                "storage" : {
                }
            },
            "0xa94f5374fce5edbc8e2a8697c15331677e6ebf0b" : {
                "code" : "0x",
                "nonce" : "0x01",
                "balance" : "0xe8d49a93aa",
                "storage" : {
                }
            },
            "0xb94f5374fce5edbc8e2a8697c15331677e6ebf0b" : {
                "code" : "0x5a600052611f406000611f40600073094f5374fce5edbc8e2a8697c15331677e6ebf0b617530f4505a6000510360015500",
                "nonce" : "0x00",
                "balance" : "0x00",
                "storage" : {
                    "0x01" : "0x6405",
                    "0x02" : "0x752e"
                }
            }
        },
        "network" : "London",
        "sealEngine" : "NoProof",
        "lastblockhash" : "0xa560e95425eb40d7f96fd6c2ad03e33302bac481f230e0e3c5dfc9374b08883f",
        "genesisRLP" : "0xf901f9f901f4a00000000000000000000000000000000000000000000000000000000000000000a01dcc4de8dec75d7aab85b567b6ccd41ad312451b948a7413f0a142fd40d49347942adc25665018aa1fe0e6bc666dac8fc2697ff9baa0705d74fdf256aaae13ce7524ad27ec54a240353035bbba869336b8210a59a9c9a056e81f171bcc55a6ff8345e692c0f86e5b48e01b996cadc001622fb5e363b421a056e81f171bcc55a6ff8345e692c0f86e5b48e01b996cadc001622fb5e363b421b9010000000000000000000000000000000000000000000000000000000000000000000000000000000000000000000000000000000000000000000000000000000000000000000000000000000000000000000000000000000000000000000000000000000000000000000000000000000000000000000000000000000000000000000000000000000000000000000000000000000000000000000000000000000000000000000000000000000000000000000000000000000000000000000000000000000000000000000000000000000000000000000000000000000000000000000000000000000000000000000000000000000000000000000000000000000000830200008083989680808000a000000000000000000000000000000000000000000000000000000000000000008800000000000000000bc0c0",
        "blocks" : [
            {
                "rlp" : "0xf90261f901f9a0cece4c4866368486c8bae6cf4af8197e5bdab4ff29c8e30dab7589bc5d52d4fca01dcc4de8dec75d7aab85b567b6ccd41ad312451b948a7413f0a142fd40d49347942adc25665018aa1fe0e6bc666dac8fc2697ff9baa018dfc4aece688dc00d02ae65cc8339c08f6b76d7a17646da36d90cec9b4fe2b5a02457ae10a66eae4fac47715afae72233a48a78a0199e950d0552cdb6a9a7f386a0e457396c3b1ff91ab97374f3d759307e15e5f63ff3ddfde8a8e812a09f99ab30b901000000000000000000000000000000000000000000000000000000000000000000000000000000000000000000000000000000000000000000000000000000000000000000000000000000000000000000000000000000000000000000000000000000000000000000000000000000000000000000000000000000000000000000000000000000000000000000000000000000000000000000000000000000000000000000000000000000000000000000000000000000000000000000000000000000000000000000000000000000000000000000000000000000000000000000000000000000000000000000000000000000000000000000000000000000000083020000018398968083010c6f8203e800a000000000000000000000000000000000000000000000000000000000000000008800000000000000000af862f860800a8307a12094b94f5374fce5edbc8e2a8697c15331677e6ebf0b80801ca03aef3a5148d2925d8c9607b7102bdd96c4b712986e6e8011cceac4c152509f8ea04a0218cbed3a7577c71da2b2a701c4278b1e59c779efbaad585b92cfb7aad81cc0",
                "blockHeader" : {
                    "bloom" : "0x00000000000000000000000000000000000000000000000000000000000000000000000000000000000000000000000000000000000000000000000000000000000000000000000000000000000000000000000000000000000000000000000000000000000000000000000000000000000000000000000000000000000000000000000000000000000000000000000000000000000000000000000000000000000000000000000000000000000000000000000000000000000000000000000000000000000000000000000000000000000000000000000000000000000000000000000000000000000000000000000000000000000000000000000000000000",
                    "coinbase" : "0x2adc25665018aa1fe0e6bc666dac8fc2697ff9ba",
                    "difficulty" : "0x020000",
                    "extraData" : "0x00",
                    "gasLimit" : "0x989680",
                    "gasUsed" : "0x010c6f",
                    "hash" : "0xa560e95425eb40d7f96fd6c2ad03e33302bac481f230e0e3c5dfc9374b08883f",
                    "mixHash" : "0x0000000000000000000000000000000000000000000000000000000000000000",
                    "nonce" : "0x0000000000000000",
                    "number" : "0x01",
                    "parentHash" : "0xcece4c4866368486c8bae6cf4af8197e5bdab4ff29c8e30dab7589bc5d52d4fc",
                    "receiptTrie" : "0xe457396c3b1ff91ab97374f3d759307e15e5f63ff3ddfde8a8e812a09f99ab30",
                    "stateRoot" : "0x18dfc4aece688dc00d02ae65cc8339c08f6b76d7a17646da36d90cec9b4fe2b5",
                    "timestamp" : "0x03e8",
                    "transactionsTrie" : "0x2457ae10a66eae4fac47715afae72233a48a78a0199e950d0552cdb6a9a7f386",
                    "uncleHash" : "0x1dcc4de8dec75d7aab85b567b6ccd41ad312451b948a7413f0a142fd40d49347",
                    "baseFee" : "0x0a"
                },
                "transactions" : [
                    {
                        "data" : "0x",
                        "gasLimit" : "0x07a120",
                        "gasPrice" : "0x0a",
                        "nonce" : "0x00",
                        "to" : "0xb94f5374fce5edbc8e2a8697c15331677e6ebf0b",
                        "value" : "0x00",
                        "v" : "0x1c",
                        "r" : "0x3aef3a5148d2925d8c9607b7102bdd96c4b712986e6e8011cceac4c152509f8e",
                        "s" : "0x4a0218cbed3a7577c71da2b2a701c4278b1e59c779efbaad585b92cfb7aad81c"
                    }
                ],
                "uncleHeaders" : [
                ]
            }
        ]
    }
}