{
    "modexp_modsize0_returndatasize_d4g0v0_Byzantium" : {
        "_info" : {
            "comment" : "",
            "filledwith" : "testeth 1.7.0-alpha.1-20+commit.782a7283",
            "lllcversion" : "Version: 0.5.0-develop.2018.11.9+commit.9709dfe0.Linux.g++",
            "source" : "src/BlockchainTestsFiller/GeneralStateTests/stReturnDataTest/modexp_modsize0_returndatasize_d4g0v0Filler.json",
            "sourceHash" : "19c1e42ea2847d3a1f0416cc25deb17172bb083ae6aa5d2e6a0dcb7ff7381fda"
        },
        "blocks" : [
            {
                "blockHeader" : {
                    "bloom" : "0x00000000000000000000000000000000000000000000000000000000000000000000000000000000000000000000000000000000000000000000000000000000000000000000000000000000000000000000000000000000000000000000000000000000000000000000000000000000000000000000000000000000000000000000000000000000000000000000000000000000000000000000000000000000000000000000000000000000000000000000000000000000000000000000000000000000000000000000000000000000000000000000000000000000000000000000000000000000000000000000000000000000000000000000000000000000",
                    "coinbase" : "0x2adc25665018aa1fe0e6bc666dac8fc2697ff9ba",
                    "difficulty" : "0x020000",
                    "extraData" : "0x",
                    "gasLimit" : "0x174876e800",
                    "gasUsed" : "0x3aac604d",
                    "hash" : "0x230b4f137c55d714b0cfb60222af4003c50665e9a4a9697b6f51b5f0cb52c536",
                    "mixHash" : "0x0000000000000000000000000000000000000000000000000000000000000000",
                    "nonce" : "0x0000000000000000",
                    "number" : "0x01",
                    "parentHash" : "0x1287a782b199753d1b261821ac54b85de87ba8cefc50ff8698b2e6677e521e6d",
                    "receiptTrie" : "0xcbbe348679970e399a4e01341633a131bcc7733c5031bb94b09d2490caa0e056",
                    "stateRoot" : "0xa820fefa2eec97c17f396a84c110956a95694207df2172da43678208250411e8",
                    "timestamp" : "0x03e8",
                    "transactionsTrie" : "0x709e4b671556552f9efcb2a0c71d50614f939e7a4270fbc6ed07a6a8b4ff544a",
                    "uncleHash" : "0x1dcc4de8dec75d7aab85b567b6ccd41ad312451b948a7413f0a142fd40d49347"
                },
                "rlp" : "0xf902c8f901fba01287a782b199753d1b261821ac54b85de87ba8cefc50ff8698b2e6677e521e6da01dcc4de8dec75d7aab85b567b6ccd41ad312451b948a7413f0a142fd40d49347942adc25665018aa1fe0e6bc666dac8fc2697ff9baa0a820fefa2eec97c17f396a84c110956a95694207df2172da43678208250411e8a0709e4b671556552f9efcb2a0c71d50614f939e7a4270fbc6ed07a6a8b4ff544aa0cbbe348679970e399a4e01341633a131bcc7733c5031bb94b09d2490caa0e056b9010000000000000000000000000000000000000000000000000000000000000000000000000000000000000000000000000000000000000000000000000000000000000000000000000000000000000000000000000000000000000000000000000000000000000000000000000000000000000000000000000000000000000000000000000000000000000000000000000000000000000000000000000000000000000000000000000000000000000000000000000000000000000000000000000000000000000000000000000000000000000000000000000000000000000000000000000000000000000000000000000000000000000000000000000000000000830200000185174876e800843aac604d8203e880a00000000000000000000000000000000000000000000000000000000000000000880000000000000000f8c7f8c58001843b9aca0094100000000000000000000000000000000000000080b8630000000000000000000000000000000000000000000000000000000000000001000000000000000000000000000000000000000000000000000000000000000100000000000000000000000000000000000000000000000000000000000f3f140101011ca0139d385c9f2698edb7398456a4b7467f47bcccd045fcab67d40ed96b4a6536fba01e1d4b33bff828b31f4974b678242ceeb9b5704bd1530de87a40c0557d9134a5c0",
                "transactions" : [
                    {
                        "data" : "0x0000000000000000000000000000000000000000000000000000000000000001000000000000000000000000000000000000000000000000000000000000000100000000000000000000000000000000000000000000000000000000000f3f14010101",
                        "gasLimit" : "0x3b9aca00",
                        "gasPrice" : "0x01",
                        "nonce" : "0x00",
                        "r" : "0x139d385c9f2698edb7398456a4b7467f47bcccd045fcab67d40ed96b4a6536fb",
                        "s" : "0x1e1d4b33bff828b31f4974b678242ceeb9b5704bd1530de87a40c0557d9134a5",
                        "to" : "0x1000000000000000000000000000000000000000",
                        "v" : "0x1c",
                        "value" : "0x00"
                    }
                ],
                "uncleHeaders" : [
                ]
            }
        ],
        "genesisBlockHeader" : {
            "bloom" : "0x00000000000000000000000000000000000000000000000000000000000000000000000000000000000000000000000000000000000000000000000000000000000000000000000000000000000000000000000000000000000000000000000000000000000000000000000000000000000000000000000000000000000000000000000000000000000000000000000000000000000000000000000000000000000000000000000000000000000000000000000000000000000000000000000000000000000000000000000000000000000000000000000000000000000000000000000000000000000000000000000000000000000000000000000000000000",
            "coinbase" : "0x2adc25665018aa1fe0e6bc666dac8fc2697ff9ba",
            "difficulty" : "0x020000",
            "extraData" : "0x42",
            "gasLimit" : "0x174876e800",
            "gasUsed" : "0x00",
            "hash" : "0x1287a782b199753d1b261821ac54b85de87ba8cefc50ff8698b2e6677e521e6d",
            "mixHash" : "0x56e81f171bcc55a6ff8345e692c0f86e5b48e01b996cadc001622fb5e363b421",
            "nonce" : "0x0102030405060708",
            "number" : "0x00",
            "parentHash" : "0x0000000000000000000000000000000000000000000000000000000000000000",
            "receiptTrie" : "0x56e81f171bcc55a6ff8345e692c0f86e5b48e01b996cadc001622fb5e363b421",
            "stateRoot" : "0xa8c4b490471ee119287a6f1956c35355aa08605ff7e9b12af5c0a6feb51d1963",
            "timestamp" : "0x03b6",
            "transactionsTrie" : "0x56e81f171bcc55a6ff8345e692c0f86e5b48e01b996cadc001622fb5e363b421",
            "uncleHash" : "0x1dcc4de8dec75d7aab85b567b6ccd41ad312451b948a7413f0a142fd40d49347"
        },
        "genesisRLP" : "0xf901fcf901f7a00000000000000000000000000000000000000000000000000000000000000000a01dcc4de8dec75d7aab85b567b6ccd41ad312451b948a7413f0a142fd40d49347942adc25665018aa1fe0e6bc666dac8fc2697ff9baa0a8c4b490471ee119287a6f1956c35355aa08605ff7e9b12af5c0a6feb51d1963a056e81f171bcc55a6ff8345e692c0f86e5b48e01b996cadc001622fb5e363b421a056e81f171bcc55a6ff8345e692c0f86e5b48e01b996cadc001622fb5e363b421b9010000000000000000000000000000000000000000000000000000000000000000000000000000000000000000000000000000000000000000000000000000000000000000000000000000000000000000000000000000000000000000000000000000000000000000000000000000000000000000000000000000000000000000000000000000000000000000000000000000000000000000000000000000000000000000000000000000000000000000000000000000000000000000000000000000000000000000000000000000000000000000000000000000000000000000000000000000000000000000000000000000000000000000000000000000000000830200008085174876e800808203b642a056e81f171bcc55a6ff8345e692c0f86e5b48e01b996cadc001622fb5e363b421880102030405060708c0c0",
        "lastblockhash" : "0x230b4f137c55d714b0cfb60222af4003c50665e9a4a9697b6f51b5f0cb52c536",
        "network" : "Byzantium",
        "postState" : {
            "0x1000000000000000000000000000000000000000" : {
                "balance" : "0x00",
                "code" : "0x36600060003760206103e8366000600060055af26001556103e8516002553d600355",
                "nonce" : "0x00",
                "storage" : {
                }
            },
            "0x2adc25665018aa1fe0e6bc666dac8fc2697ff9ba" : {
                "balance" : "0x29a2241b30d8604d",
                "code" : "0x",
                "nonce" : "0x00",
                "storage" : {
                }
            },
            "0xa94f5374fce5edbc8e2a8697c15331677e6ebf0b" : {
                "balance" : "0x3635c9adc5a3f39fb3",
                "code" : "0x",
                "nonce" : "0x01",
                "storage" : {
                }
            }
        },
        "pre" : {
            "0x1000000000000000000000000000000000000000" : {
                "balance" : "0x00",
                "code" : "0x36600060003760206103e8366000600060055af26001556103e8516002553d600355",
                "nonce" : "0x00",
                "storage" : {
                    "0x03" : "0xffffffff"
                }
            },
            "0xa94f5374fce5edbc8e2a8697c15331677e6ebf0b" : {
                "balance" : "0x3635c9adc5dea00000",
                "code" : "0x",
                "nonce" : "0x00",
                "storage" : {
                }
            }
        },
        "sealEngine" : "NoProof"
    },
    "modexp_modsize0_returndatasize_d4g0v0_Constantinople" : {
        "_info" : {
            "comment" : "",
            "filledwith" : "testeth 1.7.0-alpha.1-20+commit.782a7283",
            "lllcversion" : "Version: 0.5.0-develop.2018.11.9+commit.9709dfe0.Linux.g++",
            "source" : "src/BlockchainTestsFiller/GeneralStateTests/stReturnDataTest/modexp_modsize0_returndatasize_d4g0v0Filler.json",
            "sourceHash" : "19c1e42ea2847d3a1f0416cc25deb17172bb083ae6aa5d2e6a0dcb7ff7381fda"
        },
        "blocks" : [
            {
                "blockHeader" : {
                    "bloom" : "0x00000000000000000000000000000000000000000000000000000000000000000000000000000000000000000000000000000000000000000000000000000000000000000000000000000000000000000000000000000000000000000000000000000000000000000000000000000000000000000000000000000000000000000000000000000000000000000000000000000000000000000000000000000000000000000000000000000000000000000000000000000000000000000000000000000000000000000000000000000000000000000000000000000000000000000000000000000000000000000000000000000000000000000000000000000000",
                    "coinbase" : "0x2adc25665018aa1fe0e6bc666dac8fc2697ff9ba",
                    "difficulty" : "0x020000",
                    "extraData" : "0x",
                    "gasLimit" : "0x174876e800",
                    "gasUsed" : "0x3aac3acd",
                    "hash" : "0x96ff1473e147d61ca5a4020889a174ceb66899ae5d9af4a2903f08e90536ba5e",
                    "mixHash" : "0x0000000000000000000000000000000000000000000000000000000000000000",
                    "nonce" : "0x0000000000000000",
                    "number" : "0x01",
                    "parentHash" : "0x1287a782b199753d1b261821ac54b85de87ba8cefc50ff8698b2e6677e521e6d",
                    "receiptTrie" : "0xfafb88598ceaeb190060a018e8438fa7ead16142f32d65f8d01b003d85f53cd5",
                    "stateRoot" : "0x65bdc49363f749b52832be33d094a499f6d7be9750a3574f7600c5a0a23e5e38",
                    "timestamp" : "0x03e8",
                    "transactionsTrie" : "0x709e4b671556552f9efcb2a0c71d50614f939e7a4270fbc6ed07a6a8b4ff544a",
                    "uncleHash" : "0x1dcc4de8dec75d7aab85b567b6ccd41ad312451b948a7413f0a142fd40d49347"
                },
                "rlp" : "0xf902c8f901fba01287a782b199753d1b261821ac54b85de87ba8cefc50ff8698b2e6677e521e6da01dcc4de8dec75d7aab85b567b6ccd41ad312451b948a7413f0a142fd40d49347942adc25665018aa1fe0e6bc666dac8fc2697ff9baa065bdc49363f749b52832be33d094a499f6d7be9750a3574f7600c5a0a23e5e38a0709e4b671556552f9efcb2a0c71d50614f939e7a4270fbc6ed07a6a8b4ff544aa0fafb88598ceaeb190060a018e8438fa7ead16142f32d65f8d01b003d85f53cd5b9010000000000000000000000000000000000000000000000000000000000000000000000000000000000000000000000000000000000000000000000000000000000000000000000000000000000000000000000000000000000000000000000000000000000000000000000000000000000000000000000000000000000000000000000000000000000000000000000000000000000000000000000000000000000000000000000000000000000000000000000000000000000000000000000000000000000000000000000000000000000000000000000000000000000000000000000000000000000000000000000000000000000000000000000000000000000830200000185174876e800843aac3acd8203e880a00000000000000000000000000000000000000000000000000000000000000000880000000000000000f8c7f8c58001843b9aca0094100000000000000000000000000000000000000080b8630000000000000000000000000000000000000000000000000000000000000001000000000000000000000000000000000000000000000000000000000000000100000000000000000000000000000000000000000000000000000000000f3f140101011ca0139d385c9f2698edb7398456a4b7467f47bcccd045fcab67d40ed96b4a6536fba01e1d4b33bff828b31f4974b678242ceeb9b5704bd1530de87a40c0557d9134a5c0",
                "transactions" : [
                    {
                        "data" : "0x0000000000000000000000000000000000000000000000000000000000000001000000000000000000000000000000000000000000000000000000000000000100000000000000000000000000000000000000000000000000000000000f3f14010101",
                        "gasLimit" : "0x3b9aca00",
                        "gasPrice" : "0x01",
                        "nonce" : "0x00",
                        "r" : "0x139d385c9f2698edb7398456a4b7467f47bcccd045fcab67d40ed96b4a6536fb",
                        "s" : "0x1e1d4b33bff828b31f4974b678242ceeb9b5704bd1530de87a40c0557d9134a5",
                        "to" : "0x1000000000000000000000000000000000000000",
                        "v" : "0x1c",
                        "value" : "0x00"
                    }
                ],
                "uncleHeaders" : [
                ]
            }
        ],
        "genesisBlockHeader" : {
            "bloom" : "0x00000000000000000000000000000000000000000000000000000000000000000000000000000000000000000000000000000000000000000000000000000000000000000000000000000000000000000000000000000000000000000000000000000000000000000000000000000000000000000000000000000000000000000000000000000000000000000000000000000000000000000000000000000000000000000000000000000000000000000000000000000000000000000000000000000000000000000000000000000000000000000000000000000000000000000000000000000000000000000000000000000000000000000000000000000000",
            "coinbase" : "0x2adc25665018aa1fe0e6bc666dac8fc2697ff9ba",
            "difficulty" : "0x020000",
            "extraData" : "0x42",
            "gasLimit" : "0x174876e800",
            "gasUsed" : "0x00",
            "hash" : "0x1287a782b199753d1b261821ac54b85de87ba8cefc50ff8698b2e6677e521e6d",
            "mixHash" : "0x56e81f171bcc55a6ff8345e692c0f86e5b48e01b996cadc001622fb5e363b421",
            "nonce" : "0x0102030405060708",
            "number" : "0x00",
            "parentHash" : "0x0000000000000000000000000000000000000000000000000000000000000000",
            "receiptTrie" : "0x56e81f171bcc55a6ff8345e692c0f86e5b48e01b996cadc001622fb5e363b421",
            "stateRoot" : "0xa8c4b490471ee119287a6f1956c35355aa08605ff7e9b12af5c0a6feb51d1963",
            "timestamp" : "0x03b6",
            "transactionsTrie" : "0x56e81f171bcc55a6ff8345e692c0f86e5b48e01b996cadc001622fb5e363b421",
            "uncleHash" : "0x1dcc4de8dec75d7aab85b567b6ccd41ad312451b948a7413f0a142fd40d49347"
        },
        "genesisRLP" : "0xf901fcf901f7a00000000000000000000000000000000000000000000000000000000000000000a01dcc4de8dec75d7aab85b567b6ccd41ad312451b948a7413f0a142fd40d49347942adc25665018aa1fe0e6bc666dac8fc2697ff9baa0a8c4b490471ee119287a6f1956c35355aa08605ff7e9b12af5c0a6feb51d1963a056e81f171bcc55a6ff8345e692c0f86e5b48e01b996cadc001622fb5e363b421a056e81f171bcc55a6ff8345e692c0f86e5b48e01b996cadc001622fb5e363b421b9010000000000000000000000000000000000000000000000000000000000000000000000000000000000000000000000000000000000000000000000000000000000000000000000000000000000000000000000000000000000000000000000000000000000000000000000000000000000000000000000000000000000000000000000000000000000000000000000000000000000000000000000000000000000000000000000000000000000000000000000000000000000000000000000000000000000000000000000000000000000000000000000000000000000000000000000000000000000000000000000000000000000000000000000000000000000830200008085174876e800808203b642a056e81f171bcc55a6ff8345e692c0f86e5b48e01b996cadc001622fb5e363b421880102030405060708c0c0",
        "lastblockhash" : "0x96ff1473e147d61ca5a4020889a174ceb66899ae5d9af4a2903f08e90536ba5e",
        "network" : "Constantinople",
        "postState" : {
            "0x1000000000000000000000000000000000000000" : {
                "balance" : "0x00",
                "code" : "0x36600060003760206103e8366000600060055af26001556103e8516002553d600355",
                "nonce" : "0x00",
                "storage" : {
                }
            },
            "0x2adc25665018aa1fe0e6bc666dac8fc2697ff9ba" : {
                "balance" : "0x1bc16d6789743acd",
                "code" : "0x",
                "nonce" : "0x00",
                "storage" : {
                }
            },
            "0xa94f5374fce5edbc8e2a8697c15331677e6ebf0b" : {
                "balance" : "0x3635c9adc5a3f3c533",
                "code" : "0x",
                "nonce" : "0x01",
                "storage" : {
                }
            }
        },
        "pre" : {
            "0x1000000000000000000000000000000000000000" : {
                "balance" : "0x00",
                "code" : "0x36600060003760206103e8366000600060055af26001556103e8516002553d600355",
                "nonce" : "0x00",
                "storage" : {
                    "0x03" : "0xffffffff"
                }
            },
            "0xa94f5374fce5edbc8e2a8697c15331677e6ebf0b" : {
                "balance" : "0x3635c9adc5dea00000",
                "code" : "0x",
                "nonce" : "0x00",
                "storage" : {
                }
            }
        },
        "sealEngine" : "NoProof"
    },
    "modexp_modsize0_returndatasize_d4g0v0_ConstantinopleFix" : {
        "_info" : {
            "comment" : "",
            "filledwith" : "testeth 1.7.0-alpha.1-20+commit.782a7283",
            "lllcversion" : "Version: 0.5.0-develop.2018.11.9+commit.9709dfe0.Linux.g++",
            "source" : "src/BlockchainTestsFiller/GeneralStateTests/stReturnDataTest/modexp_modsize0_returndatasize_d4g0v0Filler.json",
            "sourceHash" : "19c1e42ea2847d3a1f0416cc25deb17172bb083ae6aa5d2e6a0dcb7ff7381fda"
        },
        "blocks" : [
            {
                "blockHeader" : {
                    "bloom" : "0x00000000000000000000000000000000000000000000000000000000000000000000000000000000000000000000000000000000000000000000000000000000000000000000000000000000000000000000000000000000000000000000000000000000000000000000000000000000000000000000000000000000000000000000000000000000000000000000000000000000000000000000000000000000000000000000000000000000000000000000000000000000000000000000000000000000000000000000000000000000000000000000000000000000000000000000000000000000000000000000000000000000000000000000000000000000",
                    "coinbase" : "0x2adc25665018aa1fe0e6bc666dac8fc2697ff9ba",
                    "difficulty" : "0x020000",
                    "extraData" : "0x",
                    "gasLimit" : "0x174876e800",
                    "gasUsed" : "0x3aac604d",
                    "hash" : "0xea36502a580eddfe5a65deb171f5533550e47fb2d00af3e2542674bc2b85bb46",
                    "mixHash" : "0x0000000000000000000000000000000000000000000000000000000000000000",
                    "nonce" : "0x0000000000000000",
                    "number" : "0x01",
                    "parentHash" : "0x1287a782b199753d1b261821ac54b85de87ba8cefc50ff8698b2e6677e521e6d",
                    "receiptTrie" : "0xcbbe348679970e399a4e01341633a131bcc7733c5031bb94b09d2490caa0e056",
                    "stateRoot" : "0x46dc3ade8285e9c73d1a4e3ffd46efe6ca5ecb8bafc97726f86fe76e33c7eb3a",
                    "timestamp" : "0x03e8",
                    "transactionsTrie" : "0x709e4b671556552f9efcb2a0c71d50614f939e7a4270fbc6ed07a6a8b4ff544a",
                    "uncleHash" : "0x1dcc4de8dec75d7aab85b567b6ccd41ad312451b948a7413f0a142fd40d49347"
                },
                "rlp" : "0xf902c8f901fba01287a782b199753d1b261821ac54b85de87ba8cefc50ff8698b2e6677e521e6da01dcc4de8dec75d7aab85b567b6ccd41ad312451b948a7413f0a142fd40d49347942adc25665018aa1fe0e6bc666dac8fc2697ff9baa046dc3ade8285e9c73d1a4e3ffd46efe6ca5ecb8bafc97726f86fe76e33c7eb3aa0709e4b671556552f9efcb2a0c71d50614f939e7a4270fbc6ed07a6a8b4ff544aa0cbbe348679970e399a4e01341633a131bcc7733c5031bb94b09d2490caa0e056b9010000000000000000000000000000000000000000000000000000000000000000000000000000000000000000000000000000000000000000000000000000000000000000000000000000000000000000000000000000000000000000000000000000000000000000000000000000000000000000000000000000000000000000000000000000000000000000000000000000000000000000000000000000000000000000000000000000000000000000000000000000000000000000000000000000000000000000000000000000000000000000000000000000000000000000000000000000000000000000000000000000000000000000000000000000000000830200000185174876e800843aac604d8203e880a00000000000000000000000000000000000000000000000000000000000000000880000000000000000f8c7f8c58001843b9aca0094100000000000000000000000000000000000000080b8630000000000000000000000000000000000000000000000000000000000000001000000000000000000000000000000000000000000000000000000000000000100000000000000000000000000000000000000000000000000000000000f3f140101011ca0139d385c9f2698edb7398456a4b7467f47bcccd045fcab67d40ed96b4a6536fba01e1d4b33bff828b31f4974b678242ceeb9b5704bd1530de87a40c0557d9134a5c0",
                "transactions" : [
                    {
                        "data" : "0x0000000000000000000000000000000000000000000000000000000000000001000000000000000000000000000000000000000000000000000000000000000100000000000000000000000000000000000000000000000000000000000f3f14010101",
                        "gasLimit" : "0x3b9aca00",
                        "gasPrice" : "0x01",
                        "nonce" : "0x00",
                        "r" : "0x139d385c9f2698edb7398456a4b7467f47bcccd045fcab67d40ed96b4a6536fb",
                        "s" : "0x1e1d4b33bff828b31f4974b678242ceeb9b5704bd1530de87a40c0557d9134a5",
                        "to" : "0x1000000000000000000000000000000000000000",
                        "v" : "0x1c",
                        "value" : "0x00"
                    }
                ],
                "uncleHeaders" : [
                ]
            }
        ],
        "genesisBlockHeader" : {
            "bloom" : "0x00000000000000000000000000000000000000000000000000000000000000000000000000000000000000000000000000000000000000000000000000000000000000000000000000000000000000000000000000000000000000000000000000000000000000000000000000000000000000000000000000000000000000000000000000000000000000000000000000000000000000000000000000000000000000000000000000000000000000000000000000000000000000000000000000000000000000000000000000000000000000000000000000000000000000000000000000000000000000000000000000000000000000000000000000000000",
            "coinbase" : "0x2adc25665018aa1fe0e6bc666dac8fc2697ff9ba",
            "difficulty" : "0x020000",
            "extraData" : "0x42",
            "gasLimit" : "0x174876e800",
            "gasUsed" : "0x00",
            "hash" : "0x1287a782b199753d1b261821ac54b85de87ba8cefc50ff8698b2e6677e521e6d",
            "mixHash" : "0x56e81f171bcc55a6ff8345e692c0f86e5b48e01b996cadc001622fb5e363b421",
            "nonce" : "0x0102030405060708",
            "number" : "0x00",
            "parentHash" : "0x0000000000000000000000000000000000000000000000000000000000000000",
            "receiptTrie" : "0x56e81f171bcc55a6ff8345e692c0f86e5b48e01b996cadc001622fb5e363b421",
            "stateRoot" : "0xa8c4b490471ee119287a6f1956c35355aa08605ff7e9b12af5c0a6feb51d1963",
            "timestamp" : "0x03b6",
            "transactionsTrie" : "0x56e81f171bcc55a6ff8345e692c0f86e5b48e01b996cadc001622fb5e363b421",
            "uncleHash" : "0x1dcc4de8dec75d7aab85b567b6ccd41ad312451b948a7413f0a142fd40d49347"
        },
        "genesisRLP" : "0xf901fcf901f7a00000000000000000000000000000000000000000000000000000000000000000a01dcc4de8dec75d7aab85b567b6ccd41ad312451b948a7413f0a142fd40d49347942adc25665018aa1fe0e6bc666dac8fc2697ff9baa0a8c4b490471ee119287a6f1956c35355aa08605ff7e9b12af5c0a6feb51d1963a056e81f171bcc55a6ff8345e692c0f86e5b48e01b996cadc001622fb5e363b421a056e81f171bcc55a6ff8345e692c0f86e5b48e01b996cadc001622fb5e363b421b9010000000000000000000000000000000000000000000000000000000000000000000000000000000000000000000000000000000000000000000000000000000000000000000000000000000000000000000000000000000000000000000000000000000000000000000000000000000000000000000000000000000000000000000000000000000000000000000000000000000000000000000000000000000000000000000000000000000000000000000000000000000000000000000000000000000000000000000000000000000000000000000000000000000000000000000000000000000000000000000000000000000000000000000000000000000000830200008085174876e800808203b642a056e81f171bcc55a6ff8345e692c0f86e5b48e01b996cadc001622fb5e363b421880102030405060708c0c0",
        "lastblockhash" : "0xea36502a580eddfe5a65deb171f5533550e47fb2d00af3e2542674bc2b85bb46",
        "network" : "ConstantinopleFix",
        "postState" : {
            "0x1000000000000000000000000000000000000000" : {
                "balance" : "0x00",
                "code" : "0x36600060003760206103e8366000600060055af26001556103e8516002553d600355",
                "nonce" : "0x00",
                "storage" : {
                }
            },
            "0x2adc25665018aa1fe0e6bc666dac8fc2697ff9ba" : {
                "balance" : "0x1bc16d678974604d",
                "code" : "0x",
                "nonce" : "0x00",
                "storage" : {
                }
            },
            "0xa94f5374fce5edbc8e2a8697c15331677e6ebf0b" : {
                "balance" : "0x3635c9adc5a3f39fb3",
                "code" : "0x",
                "nonce" : "0x01",
                "storage" : {
                }
            }
        },
        "pre" : {
            "0x1000000000000000000000000000000000000000" : {
                "balance" : "0x00",
                "code" : "0x36600060003760206103e8366000600060055af26001556103e8516002553d600355",
                "nonce" : "0x00",
                "storage" : {
                    "0x03" : "0xffffffff"
                }
            },
            "0xa94f5374fce5edbc8e2a8697c15331677e6ebf0b" : {
                "balance" : "0x3635c9adc5dea00000",
                "code" : "0x",
                "nonce" : "0x00",
                "storage" : {
                }
            }
        },
        "sealEngine" : "NoProof"
    },
    "modexp_modsize0_returndatasize_d4g0v0_EIP150" : {
        "_info" : {
            "comment" : "",
            "filledwith" : "testeth 1.7.0-alpha.1-20+commit.782a7283",
            "lllcversion" : "Version: 0.5.0-develop.2018.11.9+commit.9709dfe0.Linux.g++",
            "source" : "src/BlockchainTestsFiller/GeneralStateTests/stReturnDataTest/modexp_modsize0_returndatasize_d4g0v0Filler.json",
            "sourceHash" : "19c1e42ea2847d3a1f0416cc25deb17172bb083ae6aa5d2e6a0dcb7ff7381fda"
        },
        "blocks" : [
            {
                "blockHeader" : {
                    "bloom" : "0x00000000000000000000000000000000000000000000000000000000000000000000000000000000000000000000000000000000000000000000000000000000000000000000000000000000000000000000000000000000000000000000000000000000000000000000000000000000000000000000000000000000000000000000000000000000000000000000000000000000000000000000000000000000000000000000000000000000000000000000000000000000000000000000000000000000000000000000000000000000000000000000000000000000000000000000000000000000000000000000000000000000000000000000000000000000",
                    "coinbase" : "0x2adc25665018aa1fe0e6bc666dac8fc2697ff9ba",
                    "difficulty" : "0x020000",
                    "extraData" : "0x",
                    "gasLimit" : "0x174876e800",
                    "gasUsed" : "0x3b9aca00",
                    "hash" : "0x055fd8da8c8c6b14468d76996981d4632e6091882b95a7c68ffe294ad7dff232",
                    "mixHash" : "0x0000000000000000000000000000000000000000000000000000000000000000",
                    "nonce" : "0x0000000000000000",
                    "number" : "0x01",
                    "parentHash" : "0x1287a782b199753d1b261821ac54b85de87ba8cefc50ff8698b2e6677e521e6d",
                    "receiptTrie" : "0x77399b0e3eb766298741907f62605621b6626e9dc7ca6a02e6396ce29ea86d8e",
                    "stateRoot" : "0x77e3245a9e67863377a0d343f49afbe03b70bc3e3432fbdd075cce97417ac016",
                    "timestamp" : "0x03e8",
                    "transactionsTrie" : "0x709e4b671556552f9efcb2a0c71d50614f939e7a4270fbc6ed07a6a8b4ff544a",
                    "uncleHash" : "0x1dcc4de8dec75d7aab85b567b6ccd41ad312451b948a7413f0a142fd40d49347"
                },
                "rlp" : "0xf902c8f901fba01287a782b199753d1b261821ac54b85de87ba8cefc50ff8698b2e6677e521e6da01dcc4de8dec75d7aab85b567b6ccd41ad312451b948a7413f0a142fd40d49347942adc25665018aa1fe0e6bc666dac8fc2697ff9baa077e3245a9e67863377a0d343f49afbe03b70bc3e3432fbdd075cce97417ac016a0709e4b671556552f9efcb2a0c71d50614f939e7a4270fbc6ed07a6a8b4ff544aa077399b0e3eb766298741907f62605621b6626e9dc7ca6a02e6396ce29ea86d8eb9010000000000000000000000000000000000000000000000000000000000000000000000000000000000000000000000000000000000000000000000000000000000000000000000000000000000000000000000000000000000000000000000000000000000000000000000000000000000000000000000000000000000000000000000000000000000000000000000000000000000000000000000000000000000000000000000000000000000000000000000000000000000000000000000000000000000000000000000000000000000000000000000000000000000000000000000000000000000000000000000000000000000000000000000000000000000830200000185174876e800843b9aca008203e880a00000000000000000000000000000000000000000000000000000000000000000880000000000000000f8c7f8c58001843b9aca0094100000000000000000000000000000000000000080b8630000000000000000000000000000000000000000000000000000000000000001000000000000000000000000000000000000000000000000000000000000000100000000000000000000000000000000000000000000000000000000000f3f140101011ca0139d385c9f2698edb7398456a4b7467f47bcccd045fcab67d40ed96b4a6536fba01e1d4b33bff828b31f4974b678242ceeb9b5704bd1530de87a40c0557d9134a5c0",
                "transactions" : [
                    {
                        "data" : "0x0000000000000000000000000000000000000000000000000000000000000001000000000000000000000000000000000000000000000000000000000000000100000000000000000000000000000000000000000000000000000000000f3f14010101",
                        "gasLimit" : "0x3b9aca00",
                        "gasPrice" : "0x01",
                        "nonce" : "0x00",
                        "r" : "0x139d385c9f2698edb7398456a4b7467f47bcccd045fcab67d40ed96b4a6536fb",
                        "s" : "0x1e1d4b33bff828b31f4974b678242ceeb9b5704bd1530de87a40c0557d9134a5",
                        "to" : "0x1000000000000000000000000000000000000000",
                        "v" : "0x1c",
                        "value" : "0x00"
                    }
                ],
                "uncleHeaders" : [
                ]
            }
        ],
        "genesisBlockHeader" : {
            "bloom" : "0x00000000000000000000000000000000000000000000000000000000000000000000000000000000000000000000000000000000000000000000000000000000000000000000000000000000000000000000000000000000000000000000000000000000000000000000000000000000000000000000000000000000000000000000000000000000000000000000000000000000000000000000000000000000000000000000000000000000000000000000000000000000000000000000000000000000000000000000000000000000000000000000000000000000000000000000000000000000000000000000000000000000000000000000000000000000",
            "coinbase" : "0x2adc25665018aa1fe0e6bc666dac8fc2697ff9ba",
            "difficulty" : "0x020000",
            "extraData" : "0x42",
            "gasLimit" : "0x174876e800",
            "gasUsed" : "0x00",
            "hash" : "0x1287a782b199753d1b261821ac54b85de87ba8cefc50ff8698b2e6677e521e6d",
            "mixHash" : "0x56e81f171bcc55a6ff8345e692c0f86e5b48e01b996cadc001622fb5e363b421",
            "nonce" : "0x0102030405060708",
            "number" : "0x00",
            "parentHash" : "0x0000000000000000000000000000000000000000000000000000000000000000",
            "receiptTrie" : "0x56e81f171bcc55a6ff8345e692c0f86e5b48e01b996cadc001622fb5e363b421",
            "stateRoot" : "0xa8c4b490471ee119287a6f1956c35355aa08605ff7e9b12af5c0a6feb51d1963",
            "timestamp" : "0x03b6",
            "transactionsTrie" : "0x56e81f171bcc55a6ff8345e692c0f86e5b48e01b996cadc001622fb5e363b421",
            "uncleHash" : "0x1dcc4de8dec75d7aab85b567b6ccd41ad312451b948a7413f0a142fd40d49347"
        },
        "genesisRLP" : "0xf901fcf901f7a00000000000000000000000000000000000000000000000000000000000000000a01dcc4de8dec75d7aab85b567b6ccd41ad312451b948a7413f0a142fd40d49347942adc25665018aa1fe0e6bc666dac8fc2697ff9baa0a8c4b490471ee119287a6f1956c35355aa08605ff7e9b12af5c0a6feb51d1963a056e81f171bcc55a6ff8345e692c0f86e5b48e01b996cadc001622fb5e363b421a056e81f171bcc55a6ff8345e692c0f86e5b48e01b996cadc001622fb5e363b421b9010000000000000000000000000000000000000000000000000000000000000000000000000000000000000000000000000000000000000000000000000000000000000000000000000000000000000000000000000000000000000000000000000000000000000000000000000000000000000000000000000000000000000000000000000000000000000000000000000000000000000000000000000000000000000000000000000000000000000000000000000000000000000000000000000000000000000000000000000000000000000000000000000000000000000000000000000000000000000000000000000000000000000000000000000000000000830200008085174876e800808203b642a056e81f171bcc55a6ff8345e692c0f86e5b48e01b996cadc001622fb5e363b421880102030405060708c0c0",
        "lastblockhash" : "0x055fd8da8c8c6b14468d76996981d4632e6091882b95a7c68ffe294ad7dff232",
        "network" : "EIP150",
        "postState" : {
            "0x1000000000000000000000000000000000000000" : {
                "balance" : "0x00",
                "code" : "0x36600060003760206103e8366000600060055af26001556103e8516002553d600355",
                "nonce" : "0x00",
                "storage" : {
                    "0x03" : "0xffffffff"
                }
            },
            "0x2adc25665018aa1fe0e6bc666dac8fc2697ff9ba" : {
                "balance" : "0x45639182808eca00",
                "code" : "0x",
                "nonce" : "0x00",
                "storage" : {
                }
            },
            "0xa94f5374fce5edbc8e2a8697c15331677e6ebf0b" : {
                "balance" : "0x3635c9adc5a3053600",
                "code" : "0x",
                "nonce" : "0x01",
                "storage" : {
                }
            }
        },
        "pre" : {
            "0x1000000000000000000000000000000000000000" : {
                "balance" : "0x00",
                "code" : "0x36600060003760206103e8366000600060055af26001556103e8516002553d600355",
                "nonce" : "0x00",
                "storage" : {
                    "0x03" : "0xffffffff"
                }
            },
            "0xa94f5374fce5edbc8e2a8697c15331677e6ebf0b" : {
                "balance" : "0x3635c9adc5dea00000",
                "code" : "0x",
                "nonce" : "0x00",
                "storage" : {
                }
            }
        },
        "sealEngine" : "NoProof"
    },
    "modexp_modsize0_returndatasize_d4g0v0_EIP158" : {
        "_info" : {
            "comment" : "",
            "filledwith" : "testeth 1.7.0-alpha.1-20+commit.782a7283",
            "lllcversion" : "Version: 0.5.0-develop.2018.11.9+commit.9709dfe0.Linux.g++",
            "source" : "src/BlockchainTestsFiller/GeneralStateTests/stReturnDataTest/modexp_modsize0_returndatasize_d4g0v0Filler.json",
            "sourceHash" : "19c1e42ea2847d3a1f0416cc25deb17172bb083ae6aa5d2e6a0dcb7ff7381fda"
        },
        "blocks" : [
            {
                "blockHeader" : {
                    "bloom" : "0x00000000000000000000000000000000000000000000000000000000000000000000000000000000000000000000000000000000000000000000000000000000000000000000000000000000000000000000000000000000000000000000000000000000000000000000000000000000000000000000000000000000000000000000000000000000000000000000000000000000000000000000000000000000000000000000000000000000000000000000000000000000000000000000000000000000000000000000000000000000000000000000000000000000000000000000000000000000000000000000000000000000000000000000000000000000",
                    "coinbase" : "0x2adc25665018aa1fe0e6bc666dac8fc2697ff9ba",
                    "difficulty" : "0x020000",
                    "extraData" : "0x",
                    "gasLimit" : "0x174876e800",
                    "gasUsed" : "0x3b9aca00",
                    "hash" : "0x055fd8da8c8c6b14468d76996981d4632e6091882b95a7c68ffe294ad7dff232",
                    "mixHash" : "0x0000000000000000000000000000000000000000000000000000000000000000",
                    "nonce" : "0x0000000000000000",
                    "number" : "0x01",
                    "parentHash" : "0x1287a782b199753d1b261821ac54b85de87ba8cefc50ff8698b2e6677e521e6d",
                    "receiptTrie" : "0x77399b0e3eb766298741907f62605621b6626e9dc7ca6a02e6396ce29ea86d8e",
                    "stateRoot" : "0x77e3245a9e67863377a0d343f49afbe03b70bc3e3432fbdd075cce97417ac016",
                    "timestamp" : "0x03e8",
                    "transactionsTrie" : "0x709e4b671556552f9efcb2a0c71d50614f939e7a4270fbc6ed07a6a8b4ff544a",
                    "uncleHash" : "0x1dcc4de8dec75d7aab85b567b6ccd41ad312451b948a7413f0a142fd40d49347"
                },
                "rlp" : "0xf902c8f901fba01287a782b199753d1b261821ac54b85de87ba8cefc50ff8698b2e6677e521e6da01dcc4de8dec75d7aab85b567b6ccd41ad312451b948a7413f0a142fd40d49347942adc25665018aa1fe0e6bc666dac8fc2697ff9baa077e3245a9e67863377a0d343f49afbe03b70bc3e3432fbdd075cce97417ac016a0709e4b671556552f9efcb2a0c71d50614f939e7a4270fbc6ed07a6a8b4ff544aa077399b0e3eb766298741907f62605621b6626e9dc7ca6a02e6396ce29ea86d8eb9010000000000000000000000000000000000000000000000000000000000000000000000000000000000000000000000000000000000000000000000000000000000000000000000000000000000000000000000000000000000000000000000000000000000000000000000000000000000000000000000000000000000000000000000000000000000000000000000000000000000000000000000000000000000000000000000000000000000000000000000000000000000000000000000000000000000000000000000000000000000000000000000000000000000000000000000000000000000000000000000000000000000000000000000000000000000830200000185174876e800843b9aca008203e880a00000000000000000000000000000000000000000000000000000000000000000880000000000000000f8c7f8c58001843b9aca0094100000000000000000000000000000000000000080b8630000000000000000000000000000000000000000000000000000000000000001000000000000000000000000000000000000000000000000000000000000000100000000000000000000000000000000000000000000000000000000000f3f140101011ca0139d385c9f2698edb7398456a4b7467f47bcccd045fcab67d40ed96b4a6536fba01e1d4b33bff828b31f4974b678242ceeb9b5704bd1530de87a40c0557d9134a5c0",
                "transactions" : [
                    {
                        "data" : "0x0000000000000000000000000000000000000000000000000000000000000001000000000000000000000000000000000000000000000000000000000000000100000000000000000000000000000000000000000000000000000000000f3f14010101",
                        "gasLimit" : "0x3b9aca00",
                        "gasPrice" : "0x01",
                        "nonce" : "0x00",
                        "r" : "0x139d385c9f2698edb7398456a4b7467f47bcccd045fcab67d40ed96b4a6536fb",
                        "s" : "0x1e1d4b33bff828b31f4974b678242ceeb9b5704bd1530de87a40c0557d9134a5",
                        "to" : "0x1000000000000000000000000000000000000000",
                        "v" : "0x1c",
                        "value" : "0x00"
                    }
                ],
                "uncleHeaders" : [
                ]
            }
        ],
        "genesisBlockHeader" : {
            "bloom" : "0x00000000000000000000000000000000000000000000000000000000000000000000000000000000000000000000000000000000000000000000000000000000000000000000000000000000000000000000000000000000000000000000000000000000000000000000000000000000000000000000000000000000000000000000000000000000000000000000000000000000000000000000000000000000000000000000000000000000000000000000000000000000000000000000000000000000000000000000000000000000000000000000000000000000000000000000000000000000000000000000000000000000000000000000000000000000",
            "coinbase" : "0x2adc25665018aa1fe0e6bc666dac8fc2697ff9ba",
            "difficulty" : "0x020000",
            "extraData" : "0x42",
            "gasLimit" : "0x174876e800",
            "gasUsed" : "0x00",
            "hash" : "0x1287a782b199753d1b261821ac54b85de87ba8cefc50ff8698b2e6677e521e6d",
            "mixHash" : "0x56e81f171bcc55a6ff8345e692c0f86e5b48e01b996cadc001622fb5e363b421",
            "nonce" : "0x0102030405060708",
            "number" : "0x00",
            "parentHash" : "0x0000000000000000000000000000000000000000000000000000000000000000",
            "receiptTrie" : "0x56e81f171bcc55a6ff8345e692c0f86e5b48e01b996cadc001622fb5e363b421",
            "stateRoot" : "0xa8c4b490471ee119287a6f1956c35355aa08605ff7e9b12af5c0a6feb51d1963",
            "timestamp" : "0x03b6",
            "transactionsTrie" : "0x56e81f171bcc55a6ff8345e692c0f86e5b48e01b996cadc001622fb5e363b421",
            "uncleHash" : "0x1dcc4de8dec75d7aab85b567b6ccd41ad312451b948a7413f0a142fd40d49347"
        },
        "genesisRLP" : "0xf901fcf901f7a00000000000000000000000000000000000000000000000000000000000000000a01dcc4de8dec75d7aab85b567b6ccd41ad312451b948a7413f0a142fd40d49347942adc25665018aa1fe0e6bc666dac8fc2697ff9baa0a8c4b490471ee119287a6f1956c35355aa08605ff7e9b12af5c0a6feb51d1963a056e81f171bcc55a6ff8345e692c0f86e5b48e01b996cadc001622fb5e363b421a056e81f171bcc55a6ff8345e692c0f86e5b48e01b996cadc001622fb5e363b421b9010000000000000000000000000000000000000000000000000000000000000000000000000000000000000000000000000000000000000000000000000000000000000000000000000000000000000000000000000000000000000000000000000000000000000000000000000000000000000000000000000000000000000000000000000000000000000000000000000000000000000000000000000000000000000000000000000000000000000000000000000000000000000000000000000000000000000000000000000000000000000000000000000000000000000000000000000000000000000000000000000000000000000000000000000000000000830200008085174876e800808203b642a056e81f171bcc55a6ff8345e692c0f86e5b48e01b996cadc001622fb5e363b421880102030405060708c0c0",
        "lastblockhash" : "0x055fd8da8c8c6b14468d76996981d4632e6091882b95a7c68ffe294ad7dff232",
        "network" : "EIP158",
        "postState" : {
            "0x1000000000000000000000000000000000000000" : {
                "balance" : "0x00",
                "code" : "0x36600060003760206103e8366000600060055af26001556103e8516002553d600355",
                "nonce" : "0x00",
                "storage" : {
                    "0x03" : "0xffffffff"
                }
            },
            "0x2adc25665018aa1fe0e6bc666dac8fc2697ff9ba" : {
                "balance" : "0x45639182808eca00",
                "code" : "0x",
                "nonce" : "0x00",
                "storage" : {
                }
            },
            "0xa94f5374fce5edbc8e2a8697c15331677e6ebf0b" : {
                "balance" : "0x3635c9adc5a3053600",
                "code" : "0x",
                "nonce" : "0x01",
                "storage" : {
                }
            }
        },
        "pre" : {
            "0x1000000000000000000000000000000000000000" : {
                "balance" : "0x00",
                "code" : "0x36600060003760206103e8366000600060055af26001556103e8516002553d600355",
                "nonce" : "0x00",
                "storage" : {
                    "0x03" : "0xffffffff"
                }
            },
            "0xa94f5374fce5edbc8e2a8697c15331677e6ebf0b" : {
                "balance" : "0x3635c9adc5dea00000",
                "code" : "0x",
                "nonce" : "0x00",
                "storage" : {
                }
            }
        },
        "sealEngine" : "NoProof"
    }
}