{
    "randomStatetestDEFAULT-Tue_07_58_41-15153-575192_d0g0v0_Constantinople" : {
        "_info" : {
            "comment" : "This is a canon example of a test found by fuzzing with EVMlab, demoing how a suicide-created-but-empty account has a non-zero codehash in geth",
            "filledwith" : "testeth 1.7.0-alpha.1-20+commit.782a7283",
            "lllcversion" : "Version: 0.5.0-develop.2018.11.9+commit.9709dfe0.Linux.g++",
            "source" : "src/BlockchainTestsFiller/GeneralStateTests/stBugs/randomStatetestDEFAULT-Tue_07_58_41-15153-575192_d0g0v0Filler.json",
            "sourceHash" : "0d6154ca77d52c7c5db450675425cf2b85fe79c901f800bf4c8028596509417c"
        },
        "blocks" : [
            {
                "blockHeader" : {
                    "bloom" : "0x00000000000000000000000000000000000000000000000000000000000000000000000000000000000000000000000000000000000000000000000000000000000000000000000000000000000000000000000000000000000000000000000000000000000000000000000000000000000000000000000000000000000000000000000000000000000000000000000000000000000000000000000000000000000000000000000000000000000000000000000000000000000000000000000000000000000000000000000000000000000000000000000000000000000000000000000000000000000000000000000000000000000000000000000000000000",
                    "coinbase" : "0x1000000000000000000000000000000000000000",
                    "difficulty" : "0x020000",
                    "extraData" : "0x",
                    "gasLimit" : "0x01312d00",
                    "gasUsed" : "0x3562",
                    "hash" : "0x4471e68cbce2ee8f2dfaa9204df19f6c7886616d7b91290a2c87b32c66c4540a",
                    "mixHash" : "0x0000000000000000000000000000000000000000000000000000000000000000",
                    "nonce" : "0x0000000000000000",
                    "number" : "0x01",
                    "parentHash" : "0xdeae54186ad2778f4c26773e0916e3ebaeae6870e730d543005ed3a7c90effd5",
                    "receiptTrie" : "0x83d1362ed1992a10c64ed61aa9feb09b6d146ac27f1fd2ce9d9434e25ad0bcf2",
                    "stateRoot" : "0xd2356900a1c66b2a820a5230eacac6027df677d4fcfeddf7d04e450f5e6b0146",
                    "timestamp" : "0x03e8",
                    "transactionsTrie" : "0xfd816f84a53cf2b83709ffc904562c43fa9bae550ca37afd84a05e266496e057",
                    "uncleHash" : "0x1dcc4de8dec75d7aab85b567b6ccd41ad312451b948a7413f0a142fd40d49347"
                },
                "rlp" : "0xf90260f901f8a0deae54186ad2778f4c26773e0916e3ebaeae6870e730d543005ed3a7c90effd5a01dcc4de8dec75d7aab85b567b6ccd41ad312451b948a7413f0a142fd40d49347941000000000000000000000000000000000000000a0d2356900a1c66b2a820a5230eacac6027df677d4fcfeddf7d04e450f5e6b0146a0fd816f84a53cf2b83709ffc904562c43fa9bae550ca37afd84a05e266496e057a083d1362ed1992a10c64ed61aa9feb09b6d146ac27f1fd2ce9d9434e25ad0bcf2b901000000000000000000000000000000000000000000000000000000000000000000000000000000000000000000000000000000000000000000000000000000000000000000000000000000000000000000000000000000000000000000000000000000000000000000000000000000000000000000000000000000000000000000000000000000000000000000000000000000000000000000000000000000000000000000000000000000000000000000000000000000000000000000000000000000000000000000000000000000000000000000000000000000000000000000000000000000000000000000000000000000000000000000000000000000000083020000018401312d008235628203e880a00000000000000000000000000000000000000000000000000000000000000000880000000000000000f862f8601c01835fde0794100000000000000000000000000000000000000080801ca06297856afd23b21a97bbf1303fc513a4d42ede403df0892cf23e9de10e6eaecea03d3915c240cdc4f6f28eb19e2cf0c6e6190b8be8233fdff16d384f44b72c4340c0",
                "transactions" : [
                    {
                        "data" : "0x",
                        "gasLimit" : "0x5fde07",
                        "gasPrice" : "0x01",
                        "nonce" : "0x1c",
                        "r" : "0x6297856afd23b21a97bbf1303fc513a4d42ede403df0892cf23e9de10e6eaece",
                        "s" : "0x3d3915c240cdc4f6f28eb19e2cf0c6e6190b8be8233fdff16d384f44b72c4340",
                        "to" : "0x1000000000000000000000000000000000000000",
                        "v" : "0x1c",
                        "value" : "0x00"
                    }
                ],
                "uncleHeaders" : [
                ]
            }
        ],
        "genesisBlockHeader" : {
            "bloom" : "0x00000000000000000000000000000000000000000000000000000000000000000000000000000000000000000000000000000000000000000000000000000000000000000000000000000000000000000000000000000000000000000000000000000000000000000000000000000000000000000000000000000000000000000000000000000000000000000000000000000000000000000000000000000000000000000000000000000000000000000000000000000000000000000000000000000000000000000000000000000000000000000000000000000000000000000000000000000000000000000000000000000000000000000000000000000000",
            "coinbase" : "0x1000000000000000000000000000000000000000",
            "difficulty" : "0x020000",
            "extraData" : "0x42",
            "gasLimit" : "0x01312d00",
            "gasUsed" : "0x00",
            "hash" : "0xdeae54186ad2778f4c26773e0916e3ebaeae6870e730d543005ed3a7c90effd5",
            "mixHash" : "0x56e81f171bcc55a6ff8345e692c0f86e5b48e01b996cadc001622fb5e363b421",
            "nonce" : "0x0102030405060708",
            "number" : "0x00",
            "parentHash" : "0x0000000000000000000000000000000000000000000000000000000000000000",
            "receiptTrie" : "0x56e81f171bcc55a6ff8345e692c0f86e5b48e01b996cadc001622fb5e363b421",
            "stateRoot" : "0x96372c6c19a7cc6a207efe7dbdc9a7d3a72c2dcb452f24b6f78b1dbfe73ee1f6",
            "timestamp" : "0x03b6",
            "transactionsTrie" : "0x56e81f171bcc55a6ff8345e692c0f86e5b48e01b996cadc001622fb5e363b421",
            "uncleHash" : "0x1dcc4de8dec75d7aab85b567b6ccd41ad312451b948a7413f0a142fd40d49347"
        },
        "genesisRLP" : "0xf901fbf901f6a00000000000000000000000000000000000000000000000000000000000000000a01dcc4de8dec75d7aab85b567b6ccd41ad312451b948a7413f0a142fd40d49347941000000000000000000000000000000000000000a096372c6c19a7cc6a207efe7dbdc9a7d3a72c2dcb452f24b6f78b1dbfe73ee1f6a056e81f171bcc55a6ff8345e692c0f86e5b48e01b996cadc001622fb5e363b421a056e81f171bcc55a6ff8345e692c0f86e5b48e01b996cadc001622fb5e363b421b901000000000000000000000000000000000000000000000000000000000000000000000000000000000000000000000000000000000000000000000000000000000000000000000000000000000000000000000000000000000000000000000000000000000000000000000000000000000000000000000000000000000000000000000000000000000000000000000000000000000000000000000000000000000000000000000000000000000000000000000000000000000000000000000000000000000000000000000000000000000000000000000000000000000000000000000000000000000000000000000000000000000000000000000000000000000083020000808401312d00808203b642a056e81f171bcc55a6ff8345e692c0f86e5b48e01b996cadc001622fb5e363b421880102030405060708c0c0",
        "lastblockhash" : "0x4471e68cbce2ee8f2dfaa9204df19f6c7886616d7b91290a2c87b32c66c4540a",
        "network" : "Constantinople",
        "postState" : {
            "0x1000000000000000000000000000000000000000" : {
                "balance" : "0x1bc16d674ec83562",
                "code" : "0x61dead6000600060006000600061dead5af162abcdef3f600155",
                "nonce" : "0x1c",
                "storage" : {
                }
            },
            "0xa94f5374fce5edbc8e2a8697c15331677e6ebf0b" : {
                "balance" : "0x5d8fdd3ff5426352",
                "code" : "0x",
                "nonce" : "0x1d",
                "storage" : {
                }
            }
        },
        "pre" : {
            "0x000000000000000000000000000000000000dead" : {
                "balance" : "0x00",
                "code" : "0x62abcdefff",
                "nonce" : "0x1c",
                "storage" : {
                }
            },
            "0x1000000000000000000000000000000000000000" : {
                "balance" : "0x00",
                "code" : "0x61dead6000600060006000600061dead5af162abcdef3f600155",
                "nonce" : "0x1c",
                "storage" : {
                }
            },
            "0xa94f5374fce5edbc8e2a8697c15331677e6ebf0b" : {
                "balance" : "0x5d8fdd3ff54298b4",
                "code" : "0x",
                "nonce" : "0x1c",
                "storage" : {
                }
            }
        },
        "sealEngine" : "NoProof"
    },
    "randomStatetestDEFAULT-Tue_07_58_41-15153-575192_d0g0v0_ConstantinopleFix" : {
        "_info" : {
            "comment" : "This is a canon example of a test found by fuzzing with EVMlab, demoing how a suicide-created-but-empty account has a non-zero codehash in geth",
            "filledwith" : "testeth 1.7.0-alpha.1-20+commit.782a7283",
            "lllcversion" : "Version: 0.5.0-develop.2018.11.9+commit.9709dfe0.Linux.g++",
            "source" : "src/BlockchainTestsFiller/GeneralStateTests/stBugs/randomStatetestDEFAULT-Tue_07_58_41-15153-575192_d0g0v0Filler.json",
            "sourceHash" : "0d6154ca77d52c7c5db450675425cf2b85fe79c901f800bf4c8028596509417c"
        },
        "blocks" : [
            {
                "blockHeader" : {
                    "bloom" : "0x00000000000000000000000000000000000000000000000000000000000000000000000000000000000000000000000000000000000000000000000000000000000000000000000000000000000000000000000000000000000000000000000000000000000000000000000000000000000000000000000000000000000000000000000000000000000000000000000000000000000000000000000000000000000000000000000000000000000000000000000000000000000000000000000000000000000000000000000000000000000000000000000000000000000000000000000000000000000000000000000000000000000000000000000000000000",
                    "coinbase" : "0x1000000000000000000000000000000000000000",
                    "difficulty" : "0x020000",
                    "extraData" : "0x",
                    "gasLimit" : "0x01312d00",
                    "gasUsed" : "0x3ec2",
                    "hash" : "0x9e050af36a51ac686dd4c9e837817da03a2bd5b7052253a014f4fbb1c3e0b362",
                    "mixHash" : "0x0000000000000000000000000000000000000000000000000000000000000000",
                    "nonce" : "0x0000000000000000",
                    "number" : "0x01",
                    "parentHash" : "0xdeae54186ad2778f4c26773e0916e3ebaeae6870e730d543005ed3a7c90effd5",
                    "receiptTrie" : "0x1395fd12a75e9bb561d7a3763121acad830d8014c04afe2b729cbfd3569af0d9",
                    "stateRoot" : "0x0c6df624cde47ee5c9549c8ab6e2826d27889d32d06c90905e72761076b218a2",
                    "timestamp" : "0x03e8",
                    "transactionsTrie" : "0xfd816f84a53cf2b83709ffc904562c43fa9bae550ca37afd84a05e266496e057",
                    "uncleHash" : "0x1dcc4de8dec75d7aab85b567b6ccd41ad312451b948a7413f0a142fd40d49347"
                },
                "rlp" : "0xf90260f901f8a0deae54186ad2778f4c26773e0916e3ebaeae6870e730d543005ed3a7c90effd5a01dcc4de8dec75d7aab85b567b6ccd41ad312451b948a7413f0a142fd40d49347941000000000000000000000000000000000000000a00c6df624cde47ee5c9549c8ab6e2826d27889d32d06c90905e72761076b218a2a0fd816f84a53cf2b83709ffc904562c43fa9bae550ca37afd84a05e266496e057a01395fd12a75e9bb561d7a3763121acad830d8014c04afe2b729cbfd3569af0d9b901000000000000000000000000000000000000000000000000000000000000000000000000000000000000000000000000000000000000000000000000000000000000000000000000000000000000000000000000000000000000000000000000000000000000000000000000000000000000000000000000000000000000000000000000000000000000000000000000000000000000000000000000000000000000000000000000000000000000000000000000000000000000000000000000000000000000000000000000000000000000000000000000000000000000000000000000000000000000000000000000000000000000000000000000000000000083020000018401312d00823ec28203e880a00000000000000000000000000000000000000000000000000000000000000000880000000000000000f862f8601c01835fde0794100000000000000000000000000000000000000080801ca06297856afd23b21a97bbf1303fc513a4d42ede403df0892cf23e9de10e6eaecea03d3915c240cdc4f6f28eb19e2cf0c6e6190b8be8233fdff16d384f44b72c4340c0",
                "transactions" : [
                    {
                        "data" : "0x",
                        "gasLimit" : "0x5fde07",
                        "gasPrice" : "0x01",
                        "nonce" : "0x1c",
                        "r" : "0x6297856afd23b21a97bbf1303fc513a4d42ede403df0892cf23e9de10e6eaece",
                        "s" : "0x3d3915c240cdc4f6f28eb19e2cf0c6e6190b8be8233fdff16d384f44b72c4340",
                        "to" : "0x1000000000000000000000000000000000000000",
                        "v" : "0x1c",
                        "value" : "0x00"
                    }
                ],
                "uncleHeaders" : [
                ]
            }
        ],
        "genesisBlockHeader" : {
            "bloom" : "0x00000000000000000000000000000000000000000000000000000000000000000000000000000000000000000000000000000000000000000000000000000000000000000000000000000000000000000000000000000000000000000000000000000000000000000000000000000000000000000000000000000000000000000000000000000000000000000000000000000000000000000000000000000000000000000000000000000000000000000000000000000000000000000000000000000000000000000000000000000000000000000000000000000000000000000000000000000000000000000000000000000000000000000000000000000000",
            "coinbase" : "0x1000000000000000000000000000000000000000",
            "difficulty" : "0x020000",
            "extraData" : "0x42",
            "gasLimit" : "0x01312d00",
            "gasUsed" : "0x00",
            "hash" : "0xdeae54186ad2778f4c26773e0916e3ebaeae6870e730d543005ed3a7c90effd5",
            "mixHash" : "0x56e81f171bcc55a6ff8345e692c0f86e5b48e01b996cadc001622fb5e363b421",
            "nonce" : "0x0102030405060708",
            "number" : "0x00",
            "parentHash" : "0x0000000000000000000000000000000000000000000000000000000000000000",
            "receiptTrie" : "0x56e81f171bcc55a6ff8345e692c0f86e5b48e01b996cadc001622fb5e363b421",
            "stateRoot" : "0x96372c6c19a7cc6a207efe7dbdc9a7d3a72c2dcb452f24b6f78b1dbfe73ee1f6",
            "timestamp" : "0x03b6",
            "transactionsTrie" : "0x56e81f171bcc55a6ff8345e692c0f86e5b48e01b996cadc001622fb5e363b421",
            "uncleHash" : "0x1dcc4de8dec75d7aab85b567b6ccd41ad312451b948a7413f0a142fd40d49347"
        },
        "genesisRLP" : "0xf901fbf901f6a00000000000000000000000000000000000000000000000000000000000000000a01dcc4de8dec75d7aab85b567b6ccd41ad312451b948a7413f0a142fd40d49347941000000000000000000000000000000000000000a096372c6c19a7cc6a207efe7dbdc9a7d3a72c2dcb452f24b6f78b1dbfe73ee1f6a056e81f171bcc55a6ff8345e692c0f86e5b48e01b996cadc001622fb5e363b421a056e81f171bcc55a6ff8345e692c0f86e5b48e01b996cadc001622fb5e363b421b901000000000000000000000000000000000000000000000000000000000000000000000000000000000000000000000000000000000000000000000000000000000000000000000000000000000000000000000000000000000000000000000000000000000000000000000000000000000000000000000000000000000000000000000000000000000000000000000000000000000000000000000000000000000000000000000000000000000000000000000000000000000000000000000000000000000000000000000000000000000000000000000000000000000000000000000000000000000000000000000000000000000000000000000000000000000083020000808401312d00808203b642a056e81f171bcc55a6ff8345e692c0f86e5b48e01b996cadc001622fb5e363b421880102030405060708c0c0",
        "lastblockhash" : "0x9e050af36a51ac686dd4c9e837817da03a2bd5b7052253a014f4fbb1c3e0b362",
        "network" : "ConstantinopleFix",
        "postState" : {
            "0x1000000000000000000000000000000000000000" : {
                "balance" : "0x1bc16d674ec83ec2",
                "code" : "0x61dead6000600060006000600061dead5af162abcdef3f600155",
                "nonce" : "0x1c",
                "storage" : {
                }
            },
            "0xa94f5374fce5edbc8e2a8697c15331677e6ebf0b" : {
                "balance" : "0x5d8fdd3ff54259f2",
                "code" : "0x",
                "nonce" : "0x1d",
                "storage" : {
                }
            }
        },
        "pre" : {
            "0x000000000000000000000000000000000000dead" : {
                "balance" : "0x00",
                "code" : "0x62abcdefff",
                "nonce" : "0x1c",
                "storage" : {
                }
            },
            "0x1000000000000000000000000000000000000000" : {
                "balance" : "0x00",
                "code" : "0x61dead6000600060006000600061dead5af162abcdef3f600155",
                "nonce" : "0x1c",
                "storage" : {
                }
            },
            "0xa94f5374fce5edbc8e2a8697c15331677e6ebf0b" : {
                "balance" : "0x5d8fdd3ff54298b4",
                "code" : "0x",
                "nonce" : "0x1c",
                "storage" : {
                }
            }
        },
        "sealEngine" : "NoProof"
    }
}