{
    "static_callcodecallcallcode_101_OOGMAfter_3_d0g0v0_Byzantium" : {
        "_info" : {
            "comment" : "",
            "filledwith" : "testeth 1.7.0-alpha.1-20+commit.782a7283",
            "lllcversion" : "Version: 0.5.0-develop.2018.11.9+commit.9709dfe0.Linux.g++",
            "source" : "src/BlockchainTestsFiller/GeneralStateTests/stStaticCall/static_callcodecallcallcode_101_OOGMAfter_3_d0g0v0Filler.json",
            "sourceHash" : "c1bd17f4929b6dfdff2a2ec0a42efa0b73423106113ad015c2c8ae533fee0366"
        },
        "blocks" : [
            {
                "blockHeader" : {
                    "bloom" : "0x00000000000000000000000000000000000000000000000000000000000000000000000000000000000000000000000000000000000000000000000000000000000000000000000000000000000000000000000000000000000000000000000000000000000000000000000000000000000000000000000000000000000000000000000000000000000000000000000000000000000000000000000000000000000000000000000000000000000000000000000000000000000000000000000000000000000000000000000000000000000000000000000000000000000000000000000000000000000000000000000000000000000000000000000000000000",
                    "coinbase" : "0x2adc25665018aa1fe0e6bc666dac8fc2697ff9ba",
                    "difficulty" : "0x020000",
                    "extraData" : "0x",
                    "gasLimit" : "0x989680",
                    "gasUsed" : "0x0206c5",
                    "hash" : "0xa4ca4dc26782c073a4ea5f8392822dc053f94f44d4fc6b7b28d713052d0f9086",
                    "mixHash" : "0x0000000000000000000000000000000000000000000000000000000000000000",
                    "nonce" : "0x0000000000000000",
                    "number" : "0x01",
                    "parentHash" : "0x89bf72222601061986cdf054def826ebbc28068999472ee89382d768794aa0a3",
                    "receiptTrie" : "0x89778f0c0c41e6501a70246ecea85ea8149f1965ac389d6b58f2069ee1b30a17",
                    "stateRoot" : "0xa97a6c0b44dcab0f5e64c6356e791ccdbe1c4083df38f9cb46285e93bc23a227",
                    "timestamp" : "0x03e8",
                    "transactionsTrie" : "0x53cd08a657471597e6fd5f9e9e48e81c5d4fa1778d04c4b3a3e60566d94af057",
                    "uncleHash" : "0x1dcc4de8dec75d7aab85b567b6ccd41ad312451b948a7413f0a142fd40d49347"
                },
                "rlp" : "0xf90280f901f8a089bf72222601061986cdf054def826ebbc28068999472ee89382d768794aa0a3a01dcc4de8dec75d7aab85b567b6ccd41ad312451b948a7413f0a142fd40d49347942adc25665018aa1fe0e6bc666dac8fc2697ff9baa0a97a6c0b44dcab0f5e64c6356e791ccdbe1c4083df38f9cb46285e93bc23a227a053cd08a657471597e6fd5f9e9e48e81c5d4fa1778d04c4b3a3e60566d94af057a089778f0c0c41e6501a70246ecea85ea8149f1965ac389d6b58f2069ee1b30a17b9010000000000000000000000000000000000000000000000000000000000000000000000000000000000000000000000000000000000000000000000000000000000000000000000000000000000000000000000000000000000000000000000000000000000000000000000000000000000000000000000000000000000000000000000000000000000000000000000000000000000000000000000000000000000000000000000000000000000000000000000000000000000000000000000000000000000000000000000000000000000000000000000000000000000000000000000000000000000000000000000000000000000000000000000000000000000830200000183989680830206c58203e880a00000000000000000000000000000000000000000000000000000000000000000880000000000000000f882f880800183029fe094a00000000000000000000000000000000000000080a000000000000000000000000010000000000000000000000000000000000000001ca04546c36e9739d7293db8d180899712f70157434a4a1e1cea008f1242edec92daa0388ee661930f78fb552e5e84e1c08f7060b3aa1d03c3c6f373484a94e039767dc0",
                "transactions" : [
                    {
                        "data" : "0x0000000000000000000000001000000000000000000000000000000000000000",
                        "gasLimit" : "0x029fe0",
                        "gasPrice" : "0x01",
                        "nonce" : "0x00",
                        "r" : "0x4546c36e9739d7293db8d180899712f70157434a4a1e1cea008f1242edec92da",
                        "s" : "0x388ee661930f78fb552e5e84e1c08f7060b3aa1d03c3c6f373484a94e039767d",
                        "to" : "0xa000000000000000000000000000000000000000",
                        "v" : "0x1c",
                        "value" : "0x00"
                    }
                ],
                "uncleHeaders" : [
                ]
            }
        ],
        "genesisBlockHeader" : {
            "bloom" : "0x00000000000000000000000000000000000000000000000000000000000000000000000000000000000000000000000000000000000000000000000000000000000000000000000000000000000000000000000000000000000000000000000000000000000000000000000000000000000000000000000000000000000000000000000000000000000000000000000000000000000000000000000000000000000000000000000000000000000000000000000000000000000000000000000000000000000000000000000000000000000000000000000000000000000000000000000000000000000000000000000000000000000000000000000000000000",
            "coinbase" : "0x2adc25665018aa1fe0e6bc666dac8fc2697ff9ba",
            "difficulty" : "0x020000",
            "extraData" : "0x42",
            "gasLimit" : "0x989680",
            "gasUsed" : "0x00",
            "hash" : "0x89bf72222601061986cdf054def826ebbc28068999472ee89382d768794aa0a3",
            "mixHash" : "0x56e81f171bcc55a6ff8345e692c0f86e5b48e01b996cadc001622fb5e363b421",
            "nonce" : "0x0102030405060708",
            "number" : "0x00",
            "parentHash" : "0x0000000000000000000000000000000000000000000000000000000000000000",
            "receiptTrie" : "0x56e81f171bcc55a6ff8345e692c0f86e5b48e01b996cadc001622fb5e363b421",
            "stateRoot" : "0xe38023fb34ce8bf58e80a8b650d1b755d541bcd5186db4445b6ffa05865c261f",
            "timestamp" : "0x03b6",
            "transactionsTrie" : "0x56e81f171bcc55a6ff8345e692c0f86e5b48e01b996cadc001622fb5e363b421",
            "uncleHash" : "0x1dcc4de8dec75d7aab85b567b6ccd41ad312451b948a7413f0a142fd40d49347"
        },
        "genesisRLP" : "0xf901faf901f5a00000000000000000000000000000000000000000000000000000000000000000a01dcc4de8dec75d7aab85b567b6ccd41ad312451b948a7413f0a142fd40d49347942adc25665018aa1fe0e6bc666dac8fc2697ff9baa0e38023fb34ce8bf58e80a8b650d1b755d541bcd5186db4445b6ffa05865c261fa056e81f171bcc55a6ff8345e692c0f86e5b48e01b996cadc001622fb5e363b421a056e81f171bcc55a6ff8345e692c0f86e5b48e01b996cadc001622fb5e363b421b9010000000000000000000000000000000000000000000000000000000000000000000000000000000000000000000000000000000000000000000000000000000000000000000000000000000000000000000000000000000000000000000000000000000000000000000000000000000000000000000000000000000000000000000000000000000000000000000000000000000000000000000000000000000000000000000000000000000000000000000000000000000000000000000000000000000000000000000000000000000000000000000000000000000000000000000000000000000000000000000000000000000000000000000000000000000000830200008083989680808203b642a056e81f171bcc55a6ff8345e692c0f86e5b48e01b996cadc001622fb5e363b421880102030405060708c0c0",
        "lastblockhash" : "0xa4ca4dc26782c073a4ea5f8392822dc053f94f44d4fc6b7b28d713052d0f9086",
        "network" : "Byzantium",
        "postState" : {
            "0x1000000000000000000000000000000000000000" : {
                "balance" : "0x0de0b6b3a7640000",
                "code" : "0x604060006040600073100000000000000000000000000000000000000161eaf6f46000555a600155",
                "nonce" : "0x00",
                "storage" : {
                }
            },
            "0x1000000000000000000000000000000000000001" : {
                "balance" : "0x00",
                "code" : "0x6040600060406000731000000000000000000000000000000000000002619c90fa505b61c3506080511015603e5760013b506001608051016080526022565b",
                "nonce" : "0x00",
                "storage" : {
                }
            },
            "0x1000000000000000000000000000000000000002" : {
                "balance" : "0x00",
                "code" : "0x6040600060406000731000000000000000000000000000000000000003614e34f4506001600352",
                "nonce" : "0x00",
                "storage" : {
                }
            },
            "0x1000000000000000000000000000000000000003" : {
                "balance" : "0x00",
                "code" : "0x6001600352",
                "nonce" : "0x00",
                "storage" : {
                }
            },
            "0x2000000000000000000000000000000000000000" : {
                "balance" : "0x0de0b6b3a7640000",
                "code" : "0x604060006040600073200000000000000000000000000000000000000161eaf6f46000555a600155",
                "nonce" : "0x00",
                "storage" : {
                }
            },
            "0x2000000000000000000000000000000000000001" : {
                "balance" : "0x00",
                "code" : "0x6040600060406000732000000000000000000000000000000000000002619c90fa",
                "nonce" : "0x00",
                "storage" : {
                }
            },
            "0x2000000000000000000000000000000000000002" : {
                "balance" : "0x00",
                "code" : "0x6040600060406000732000000000000000000000000000000000000003614e34f4506001600352",
                "nonce" : "0x00",
                "storage" : {
                }
            },
            "0x2000000000000000000000000000000000000003" : {
                "balance" : "0x00",
                "code" : "0x6001600355",
                "nonce" : "0x00",
                "storage" : {
                }
            },
            "0x2adc25665018aa1fe0e6bc666dac8fc2697ff9ba" : {
                "balance" : "0x29a2241af62e06c5",
                "code" : "0x",
                "nonce" : "0x00",
                "storage" : {
                }
            },
            "0xa000000000000000000000000000000000000000" : {
                "balance" : "0x0de0b6b3a7640000",
                "code" : "0x600060006000600060006000355af26000555a600155",
                "nonce" : "0x00",
                "storage" : {
                    "0x00" : "0x01",
                    "0x01" : "0xaca6"
                }
            },
            "0xa94f5374fce5edbc8e2a8697c15331677e6ebf0b" : {
                "balance" : "0x0de0b6b3a761f93b",
                "code" : "0x",
                "nonce" : "0x01",
                "storage" : {
                }
            }
        },
        "pre" : {
            "0x1000000000000000000000000000000000000000" : {
                "balance" : "0x0de0b6b3a7640000",
                "code" : "0x604060006040600073100000000000000000000000000000000000000161eaf6f46000555a600155",
                "nonce" : "0x00",
                "storage" : {
                }
            },
            "0x1000000000000000000000000000000000000001" : {
                "balance" : "0x00",
                "code" : "0x6040600060406000731000000000000000000000000000000000000002619c90fa505b61c3506080511015603e5760013b506001608051016080526022565b",
                "nonce" : "0x00",
                "storage" : {
                }
            },
            "0x1000000000000000000000000000000000000002" : {
                "balance" : "0x00",
                "code" : "0x6040600060406000731000000000000000000000000000000000000003614e34f4506001600352",
                "nonce" : "0x00",
                "storage" : {
                }
            },
            "0x1000000000000000000000000000000000000003" : {
                "balance" : "0x00",
                "code" : "0x6001600352",
                "nonce" : "0x00",
                "storage" : {
                }
            },
            "0x2000000000000000000000000000000000000000" : {
                "balance" : "0x0de0b6b3a7640000",
                "code" : "0x604060006040600073200000000000000000000000000000000000000161eaf6f46000555a600155",
                "nonce" : "0x00",
                "storage" : {
                }
            },
            "0x2000000000000000000000000000000000000001" : {
                "balance" : "0x00",
                "code" : "0x6040600060406000732000000000000000000000000000000000000002619c90fa",
                "nonce" : "0x00",
                "storage" : {
                }
            },
            "0x2000000000000000000000000000000000000002" : {
                "balance" : "0x00",
                "code" : "0x6040600060406000732000000000000000000000000000000000000003614e34f4506001600352",
                "nonce" : "0x00",
                "storage" : {
                }
            },
            "0x2000000000000000000000000000000000000003" : {
                "balance" : "0x00",
                "code" : "0x6001600355",
                "nonce" : "0x00",
                "storage" : {
                }
            },
            "0xa000000000000000000000000000000000000000" : {
                "balance" : "0x0de0b6b3a7640000",
                "code" : "0x600060006000600060006000355af26000555a600155",
                "nonce" : "0x00",
                "storage" : {
                }
            },
            "0xa94f5374fce5edbc8e2a8697c15331677e6ebf0b" : {
                "balance" : "0x0de0b6b3a7640000",
                "code" : "0x",
                "nonce" : "0x00",
                "storage" : {
                }
            }
        },
        "sealEngine" : "NoProof"
    },
    "static_callcodecallcallcode_101_OOGMAfter_3_d0g0v0_Constantinople" : {
        "_info" : {
            "comment" : "",
            "filledwith" : "testeth 1.7.0-alpha.1-20+commit.782a7283",
            "lllcversion" : "Version: 0.5.0-develop.2018.11.9+commit.9709dfe0.Linux.g++",
            "source" : "src/BlockchainTestsFiller/GeneralStateTests/stStaticCall/static_callcodecallcallcode_101_OOGMAfter_3_d0g0v0Filler.json",
            "sourceHash" : "c1bd17f4929b6dfdff2a2ec0a42efa0b73423106113ad015c2c8ae533fee0366"
        },
        "blocks" : [
            {
                "blockHeader" : {
                    "bloom" : "0x00000000000000000000000000000000000000000000000000000000000000000000000000000000000000000000000000000000000000000000000000000000000000000000000000000000000000000000000000000000000000000000000000000000000000000000000000000000000000000000000000000000000000000000000000000000000000000000000000000000000000000000000000000000000000000000000000000000000000000000000000000000000000000000000000000000000000000000000000000000000000000000000000000000000000000000000000000000000000000000000000000000000000000000000000000000",
                    "coinbase" : "0x2adc25665018aa1fe0e6bc666dac8fc2697ff9ba",
                    "difficulty" : "0x020000",
                    "extraData" : "0x",
                    "gasLimit" : "0x989680",
                    "gasUsed" : "0x01e145",
                    "hash" : "0xa5bdb502944fd68efb4a7efd29eeceb87eaf41e657e3d6d40f705cc85f35693a",
                    "mixHash" : "0x0000000000000000000000000000000000000000000000000000000000000000",
                    "nonce" : "0x0000000000000000",
                    "number" : "0x01",
                    "parentHash" : "0x89bf72222601061986cdf054def826ebbc28068999472ee89382d768794aa0a3",
                    "receiptTrie" : "0x1bf37bdcf549d7f6ae4c95851b65b5eb3f6ae6044f195ad1d109460132013e46",
                    "stateRoot" : "0x400d0df65bc204402c805493dc12a74c81b5039bd32aeecab2948b4ae73f77e3",
                    "timestamp" : "0x03e8",
                    "transactionsTrie" : "0x53cd08a657471597e6fd5f9e9e48e81c5d4fa1778d04c4b3a3e60566d94af057",
                    "uncleHash" : "0x1dcc4de8dec75d7aab85b567b6ccd41ad312451b948a7413f0a142fd40d49347"
                },
                "rlp" : "0xf90280f901f8a089bf72222601061986cdf054def826ebbc28068999472ee89382d768794aa0a3a01dcc4de8dec75d7aab85b567b6ccd41ad312451b948a7413f0a142fd40d49347942adc25665018aa1fe0e6bc666dac8fc2697ff9baa0400d0df65bc204402c805493dc12a74c81b5039bd32aeecab2948b4ae73f77e3a053cd08a657471597e6fd5f9e9e48e81c5d4fa1778d04c4b3a3e60566d94af057a01bf37bdcf549d7f6ae4c95851b65b5eb3f6ae6044f195ad1d109460132013e46b90100000000000000000000000000000000000000000000000000000000000000000000000000000000000000000000000000000000000000000000000000000000000000000000000000000000000000000000000000000000000000000000000000000000000000000000000000000000000000000000000000000000000000000000000000000000000000000000000000000000000000000000000000000000000000000000000000000000000000000000000000000000000000000000000000000000000000000000000000000000000000000000000000000000000000000000000000000000000000000000000000000000000000000000000000000000008302000001839896808301e1458203e880a00000000000000000000000000000000000000000000000000000000000000000880000000000000000f882f880800183029fe094a00000000000000000000000000000000000000080a000000000000000000000000010000000000000000000000000000000000000001ca04546c36e9739d7293db8d180899712f70157434a4a1e1cea008f1242edec92daa0388ee661930f78fb552e5e84e1c08f7060b3aa1d03c3c6f373484a94e039767dc0",
                "transactions" : [
                    {
                        "data" : "0x0000000000000000000000001000000000000000000000000000000000000000",
                        "gasLimit" : "0x029fe0",
                        "gasPrice" : "0x01",
                        "nonce" : "0x00",
                        "r" : "0x4546c36e9739d7293db8d180899712f70157434a4a1e1cea008f1242edec92da",
                        "s" : "0x388ee661930f78fb552e5e84e1c08f7060b3aa1d03c3c6f373484a94e039767d",
                        "to" : "0xa000000000000000000000000000000000000000",
                        "v" : "0x1c",
                        "value" : "0x00"
                    }
                ],
                "uncleHeaders" : [
                ]
            }
        ],
        "genesisBlockHeader" : {
            "bloom" : "0x00000000000000000000000000000000000000000000000000000000000000000000000000000000000000000000000000000000000000000000000000000000000000000000000000000000000000000000000000000000000000000000000000000000000000000000000000000000000000000000000000000000000000000000000000000000000000000000000000000000000000000000000000000000000000000000000000000000000000000000000000000000000000000000000000000000000000000000000000000000000000000000000000000000000000000000000000000000000000000000000000000000000000000000000000000000",
            "coinbase" : "0x2adc25665018aa1fe0e6bc666dac8fc2697ff9ba",
            "difficulty" : "0x020000",
            "extraData" : "0x42",
            "gasLimit" : "0x989680",
            "gasUsed" : "0x00",
            "hash" : "0x89bf72222601061986cdf054def826ebbc28068999472ee89382d768794aa0a3",
            "mixHash" : "0x56e81f171bcc55a6ff8345e692c0f86e5b48e01b996cadc001622fb5e363b421",
            "nonce" : "0x0102030405060708",
            "number" : "0x00",
            "parentHash" : "0x0000000000000000000000000000000000000000000000000000000000000000",
            "receiptTrie" : "0x56e81f171bcc55a6ff8345e692c0f86e5b48e01b996cadc001622fb5e363b421",
            "stateRoot" : "0xe38023fb34ce8bf58e80a8b650d1b755d541bcd5186db4445b6ffa05865c261f",
            "timestamp" : "0x03b6",
            "transactionsTrie" : "0x56e81f171bcc55a6ff8345e692c0f86e5b48e01b996cadc001622fb5e363b421",
            "uncleHash" : "0x1dcc4de8dec75d7aab85b567b6ccd41ad312451b948a7413f0a142fd40d49347"
        },
        "genesisRLP" : "0xf901faf901f5a00000000000000000000000000000000000000000000000000000000000000000a01dcc4de8dec75d7aab85b567b6ccd41ad312451b948a7413f0a142fd40d49347942adc25665018aa1fe0e6bc666dac8fc2697ff9baa0e38023fb34ce8bf58e80a8b650d1b755d541bcd5186db4445b6ffa05865c261fa056e81f171bcc55a6ff8345e692c0f86e5b48e01b996cadc001622fb5e363b421a056e81f171bcc55a6ff8345e692c0f86e5b48e01b996cadc001622fb5e363b421b9010000000000000000000000000000000000000000000000000000000000000000000000000000000000000000000000000000000000000000000000000000000000000000000000000000000000000000000000000000000000000000000000000000000000000000000000000000000000000000000000000000000000000000000000000000000000000000000000000000000000000000000000000000000000000000000000000000000000000000000000000000000000000000000000000000000000000000000000000000000000000000000000000000000000000000000000000000000000000000000000000000000000000000000000000000000000830200008083989680808203b642a056e81f171bcc55a6ff8345e692c0f86e5b48e01b996cadc001622fb5e363b421880102030405060708c0c0",
        "lastblockhash" : "0xa5bdb502944fd68efb4a7efd29eeceb87eaf41e657e3d6d40f705cc85f35693a",
        "network" : "Constantinople",
        "postState" : {
            "0x1000000000000000000000000000000000000000" : {
                "balance" : "0x0de0b6b3a7640000",
                "code" : "0x604060006040600073100000000000000000000000000000000000000161eaf6f46000555a600155",
                "nonce" : "0x00",
                "storage" : {
                }
            },
            "0x1000000000000000000000000000000000000001" : {
                "balance" : "0x00",
                "code" : "0x6040600060406000731000000000000000000000000000000000000002619c90fa505b61c3506080511015603e5760013b506001608051016080526022565b",
                "nonce" : "0x00",
                "storage" : {
                }
            },
            "0x1000000000000000000000000000000000000002" : {
                "balance" : "0x00",
                "code" : "0x6040600060406000731000000000000000000000000000000000000003614e34f4506001600352",
                "nonce" : "0x00",
                "storage" : {
                }
            },
            "0x1000000000000000000000000000000000000003" : {
                "balance" : "0x00",
                "code" : "0x6001600352",
                "nonce" : "0x00",
                "storage" : {
                }
            },
            "0x2000000000000000000000000000000000000000" : {
                "balance" : "0x0de0b6b3a7640000",
                "code" : "0x604060006040600073200000000000000000000000000000000000000161eaf6f46000555a600155",
                "nonce" : "0x00",
                "storage" : {
                }
            },
            "0x2000000000000000000000000000000000000001" : {
                "balance" : "0x00",
                "code" : "0x6040600060406000732000000000000000000000000000000000000002619c90fa",
                "nonce" : "0x00",
                "storage" : {
                }
            },
            "0x2000000000000000000000000000000000000002" : {
                "balance" : "0x00",
                "code" : "0x6040600060406000732000000000000000000000000000000000000003614e34f4506001600352",
                "nonce" : "0x00",
                "storage" : {
                }
            },
            "0x2000000000000000000000000000000000000003" : {
                "balance" : "0x00",
                "code" : "0x6001600355",
                "nonce" : "0x00",
                "storage" : {
                }
            },
            "0x2adc25665018aa1fe0e6bc666dac8fc2697ff9ba" : {
                "balance" : "0x1bc16d674ec9e145",
                "code" : "0x",
                "nonce" : "0x00",
                "storage" : {
                }
            },
            "0xa000000000000000000000000000000000000000" : {
                "balance" : "0x0de0b6b3a7640000",
                "code" : "0x600060006000600060006000355af26000555a600155",
                "nonce" : "0x00",
                "storage" : {
                    "0x00" : "0x01",
                    "0x01" : "0xbf66"
                }
            },
            "0xa94f5374fce5edbc8e2a8697c15331677e6ebf0b" : {
                "balance" : "0x0de0b6b3a7621ebb",
                "code" : "0x",
                "nonce" : "0x01",
                "storage" : {
                }
            }
        },
        "pre" : {
            "0x1000000000000000000000000000000000000000" : {
                "balance" : "0x0de0b6b3a7640000",
                "code" : "0x604060006040600073100000000000000000000000000000000000000161eaf6f46000555a600155",
                "nonce" : "0x00",
                "storage" : {
                }
            },
            "0x1000000000000000000000000000000000000001" : {
                "balance" : "0x00",
                "code" : "0x6040600060406000731000000000000000000000000000000000000002619c90fa505b61c3506080511015603e5760013b506001608051016080526022565b",
                "nonce" : "0x00",
                "storage" : {
                }
            },
            "0x1000000000000000000000000000000000000002" : {
                "balance" : "0x00",
                "code" : "0x6040600060406000731000000000000000000000000000000000000003614e34f4506001600352",
                "nonce" : "0x00",
                "storage" : {
                }
            },
            "0x1000000000000000000000000000000000000003" : {
                "balance" : "0x00",
                "code" : "0x6001600352",
                "nonce" : "0x00",
                "storage" : {
                }
            },
            "0x2000000000000000000000000000000000000000" : {
                "balance" : "0x0de0b6b3a7640000",
                "code" : "0x604060006040600073200000000000000000000000000000000000000161eaf6f46000555a600155",
                "nonce" : "0x00",
                "storage" : {
                }
            },
            "0x2000000000000000000000000000000000000001" : {
                "balance" : "0x00",
                "code" : "0x6040600060406000732000000000000000000000000000000000000002619c90fa",
                "nonce" : "0x00",
                "storage" : {
                }
            },
            "0x2000000000000000000000000000000000000002" : {
                "balance" : "0x00",
                "code" : "0x6040600060406000732000000000000000000000000000000000000003614e34f4506001600352",
                "nonce" : "0x00",
                "storage" : {
                }
            },
            "0x2000000000000000000000000000000000000003" : {
                "balance" : "0x00",
                "code" : "0x6001600355",
                "nonce" : "0x00",
                "storage" : {
                }
            },
            "0xa000000000000000000000000000000000000000" : {
                "balance" : "0x0de0b6b3a7640000",
                "code" : "0x600060006000600060006000355af26000555a600155",
                "nonce" : "0x00",
                "storage" : {
                }
            },
            "0xa94f5374fce5edbc8e2a8697c15331677e6ebf0b" : {
                "balance" : "0x0de0b6b3a7640000",
                "code" : "0x",
                "nonce" : "0x00",
                "storage" : {
                }
            }
        },
        "sealEngine" : "NoProof"
    },
    "static_callcodecallcallcode_101_OOGMAfter_3_d0g0v0_ConstantinopleFix" : {
        "_info" : {
            "comment" : "",
            "filledwith" : "testeth 1.7.0-alpha.1-20+commit.782a7283",
            "lllcversion" : "Version: 0.5.0-develop.2018.11.9+commit.9709dfe0.Linux.g++",
            "source" : "src/BlockchainTestsFiller/GeneralStateTests/stStaticCall/static_callcodecallcallcode_101_OOGMAfter_3_d0g0v0Filler.json",
            "sourceHash" : "c1bd17f4929b6dfdff2a2ec0a42efa0b73423106113ad015c2c8ae533fee0366"
        },
        "blocks" : [
            {
                "blockHeader" : {
                    "bloom" : "0x00000000000000000000000000000000000000000000000000000000000000000000000000000000000000000000000000000000000000000000000000000000000000000000000000000000000000000000000000000000000000000000000000000000000000000000000000000000000000000000000000000000000000000000000000000000000000000000000000000000000000000000000000000000000000000000000000000000000000000000000000000000000000000000000000000000000000000000000000000000000000000000000000000000000000000000000000000000000000000000000000000000000000000000000000000000",
                    "coinbase" : "0x2adc25665018aa1fe0e6bc666dac8fc2697ff9ba",
                    "difficulty" : "0x020000",
                    "extraData" : "0x",
                    "gasLimit" : "0x989680",
                    "gasUsed" : "0x0206c5",
                    "hash" : "0x7c7a09cee02207d5524ad631aabdb29f5b5ac2b558f3a5e89967c32f4d1ed801",
                    "mixHash" : "0x0000000000000000000000000000000000000000000000000000000000000000",
                    "nonce" : "0x0000000000000000",
                    "number" : "0x01",
                    "parentHash" : "0x89bf72222601061986cdf054def826ebbc28068999472ee89382d768794aa0a3",
                    "receiptTrie" : "0x89778f0c0c41e6501a70246ecea85ea8149f1965ac389d6b58f2069ee1b30a17",
                    "stateRoot" : "0xfe1a6d66c28e6334de2db7ab4f69c6335c9df6a08bab3b57d4fb21eb4bd1edaf",
                    "timestamp" : "0x03e8",
                    "transactionsTrie" : "0x53cd08a657471597e6fd5f9e9e48e81c5d4fa1778d04c4b3a3e60566d94af057",
                    "uncleHash" : "0x1dcc4de8dec75d7aab85b567b6ccd41ad312451b948a7413f0a142fd40d49347"
                },
                "rlp" : "0xf90280f901f8a089bf72222601061986cdf054def826ebbc28068999472ee89382d768794aa0a3a01dcc4de8dec75d7aab85b567b6ccd41ad312451b948a7413f0a142fd40d49347942adc25665018aa1fe0e6bc666dac8fc2697ff9baa0fe1a6d66c28e6334de2db7ab4f69c6335c9df6a08bab3b57d4fb21eb4bd1edafa053cd08a657471597e6fd5f9e9e48e81c5d4fa1778d04c4b3a3e60566d94af057a089778f0c0c41e6501a70246ecea85ea8149f1965ac389d6b58f2069ee1b30a17b9010000000000000000000000000000000000000000000000000000000000000000000000000000000000000000000000000000000000000000000000000000000000000000000000000000000000000000000000000000000000000000000000000000000000000000000000000000000000000000000000000000000000000000000000000000000000000000000000000000000000000000000000000000000000000000000000000000000000000000000000000000000000000000000000000000000000000000000000000000000000000000000000000000000000000000000000000000000000000000000000000000000000000000000000000000000000830200000183989680830206c58203e880a00000000000000000000000000000000000000000000000000000000000000000880000000000000000f882f880800183029fe094a00000000000000000000000000000000000000080a000000000000000000000000010000000000000000000000000000000000000001ca04546c36e9739d7293db8d180899712f70157434a4a1e1cea008f1242edec92daa0388ee661930f78fb552e5e84e1c08f7060b3aa1d03c3c6f373484a94e039767dc0",
                "transactions" : [
                    {
                        "data" : "0x0000000000000000000000001000000000000000000000000000000000000000",
                        "gasLimit" : "0x029fe0",
                        "gasPrice" : "0x01",
                        "nonce" : "0x00",
                        "r" : "0x4546c36e9739d7293db8d180899712f70157434a4a1e1cea008f1242edec92da",
                        "s" : "0x388ee661930f78fb552e5e84e1c08f7060b3aa1d03c3c6f373484a94e039767d",
                        "to" : "0xa000000000000000000000000000000000000000",
                        "v" : "0x1c",
                        "value" : "0x00"
                    }
                ],
                "uncleHeaders" : [
                ]
            }
        ],
        "genesisBlockHeader" : {
            "bloom" : "0x00000000000000000000000000000000000000000000000000000000000000000000000000000000000000000000000000000000000000000000000000000000000000000000000000000000000000000000000000000000000000000000000000000000000000000000000000000000000000000000000000000000000000000000000000000000000000000000000000000000000000000000000000000000000000000000000000000000000000000000000000000000000000000000000000000000000000000000000000000000000000000000000000000000000000000000000000000000000000000000000000000000000000000000000000000000",
            "coinbase" : "0x2adc25665018aa1fe0e6bc666dac8fc2697ff9ba",
            "difficulty" : "0x020000",
            "extraData" : "0x42",
            "gasLimit" : "0x989680",
            "gasUsed" : "0x00",
            "hash" : "0x89bf72222601061986cdf054def826ebbc28068999472ee89382d768794aa0a3",
            "mixHash" : "0x56e81f171bcc55a6ff8345e692c0f86e5b48e01b996cadc001622fb5e363b421",
            "nonce" : "0x0102030405060708",
            "number" : "0x00",
            "parentHash" : "0x0000000000000000000000000000000000000000000000000000000000000000",
            "receiptTrie" : "0x56e81f171bcc55a6ff8345e692c0f86e5b48e01b996cadc001622fb5e363b421",
            "stateRoot" : "0xe38023fb34ce8bf58e80a8b650d1b755d541bcd5186db4445b6ffa05865c261f",
            "timestamp" : "0x03b6",
            "transactionsTrie" : "0x56e81f171bcc55a6ff8345e692c0f86e5b48e01b996cadc001622fb5e363b421",
            "uncleHash" : "0x1dcc4de8dec75d7aab85b567b6ccd41ad312451b948a7413f0a142fd40d49347"
        },
        "genesisRLP" : "0xf901faf901f5a00000000000000000000000000000000000000000000000000000000000000000a01dcc4de8dec75d7aab85b567b6ccd41ad312451b948a7413f0a142fd40d49347942adc25665018aa1fe0e6bc666dac8fc2697ff9baa0e38023fb34ce8bf58e80a8b650d1b755d541bcd5186db4445b6ffa05865c261fa056e81f171bcc55a6ff8345e692c0f86e5b48e01b996cadc001622fb5e363b421a056e81f171bcc55a6ff8345e692c0f86e5b48e01b996cadc001622fb5e363b421b9010000000000000000000000000000000000000000000000000000000000000000000000000000000000000000000000000000000000000000000000000000000000000000000000000000000000000000000000000000000000000000000000000000000000000000000000000000000000000000000000000000000000000000000000000000000000000000000000000000000000000000000000000000000000000000000000000000000000000000000000000000000000000000000000000000000000000000000000000000000000000000000000000000000000000000000000000000000000000000000000000000000000000000000000000000000000830200008083989680808203b642a056e81f171bcc55a6ff8345e692c0f86e5b48e01b996cadc001622fb5e363b421880102030405060708c0c0",
        "lastblockhash" : "0x7c7a09cee02207d5524ad631aabdb29f5b5ac2b558f3a5e89967c32f4d1ed801",
        "network" : "ConstantinopleFix",
        "postState" : {
            "0x1000000000000000000000000000000000000000" : {
                "balance" : "0x0de0b6b3a7640000",
                "code" : "0x604060006040600073100000000000000000000000000000000000000161eaf6f46000555a600155",
                "nonce" : "0x00",
                "storage" : {
                }
            },
            "0x1000000000000000000000000000000000000001" : {
                "balance" : "0x00",
                "code" : "0x6040600060406000731000000000000000000000000000000000000002619c90fa505b61c3506080511015603e5760013b506001608051016080526022565b",
                "nonce" : "0x00",
                "storage" : {
                }
            },
            "0x1000000000000000000000000000000000000002" : {
                "balance" : "0x00",
                "code" : "0x6040600060406000731000000000000000000000000000000000000003614e34f4506001600352",
                "nonce" : "0x00",
                "storage" : {
                }
            },
            "0x1000000000000000000000000000000000000003" : {
                "balance" : "0x00",
                "code" : "0x6001600352",
                "nonce" : "0x00",
                "storage" : {
                }
            },
            "0x2000000000000000000000000000000000000000" : {
                "balance" : "0x0de0b6b3a7640000",
                "code" : "0x604060006040600073200000000000000000000000000000000000000161eaf6f46000555a600155",
                "nonce" : "0x00",
                "storage" : {
                }
            },
            "0x2000000000000000000000000000000000000001" : {
                "balance" : "0x00",
                "code" : "0x6040600060406000732000000000000000000000000000000000000002619c90fa",
                "nonce" : "0x00",
                "storage" : {
                }
            },
            "0x2000000000000000000000000000000000000002" : {
                "balance" : "0x00",
                "code" : "0x6040600060406000732000000000000000000000000000000000000003614e34f4506001600352",
                "nonce" : "0x00",
                "storage" : {
                }
            },
            "0x2000000000000000000000000000000000000003" : {
                "balance" : "0x00",
                "code" : "0x6001600355",
                "nonce" : "0x00",
                "storage" : {
                }
            },
            "0x2adc25665018aa1fe0e6bc666dac8fc2697ff9ba" : {
                "balance" : "0x1bc16d674eca06c5",
                "code" : "0x",
                "nonce" : "0x00",
                "storage" : {
                }
            },
            "0xa000000000000000000000000000000000000000" : {
                "balance" : "0x0de0b6b3a7640000",
                "code" : "0x600060006000600060006000355af26000555a600155",
                "nonce" : "0x00",
                "storage" : {
                    "0x00" : "0x01",
                    "0x01" : "0xaca6"
                }
            },
            "0xa94f5374fce5edbc8e2a8697c15331677e6ebf0b" : {
                "balance" : "0x0de0b6b3a761f93b",
                "code" : "0x",
                "nonce" : "0x01",
                "storage" : {
                }
            }
        },
        "pre" : {
            "0x1000000000000000000000000000000000000000" : {
                "balance" : "0x0de0b6b3a7640000",
                "code" : "0x604060006040600073100000000000000000000000000000000000000161eaf6f46000555a600155",
                "nonce" : "0x00",
                "storage" : {
                }
            },
            "0x1000000000000000000000000000000000000001" : {
                "balance" : "0x00",
                "code" : "0x6040600060406000731000000000000000000000000000000000000002619c90fa505b61c3506080511015603e5760013b506001608051016080526022565b",
                "nonce" : "0x00",
                "storage" : {
                }
            },
            "0x1000000000000000000000000000000000000002" : {
                "balance" : "0x00",
                "code" : "0x6040600060406000731000000000000000000000000000000000000003614e34f4506001600352",
                "nonce" : "0x00",
                "storage" : {
                }
            },
            "0x1000000000000000000000000000000000000003" : {
                "balance" : "0x00",
                "code" : "0x6001600352",
                "nonce" : "0x00",
                "storage" : {
                }
            },
            "0x2000000000000000000000000000000000000000" : {
                "balance" : "0x0de0b6b3a7640000",
                "code" : "0x604060006040600073200000000000000000000000000000000000000161eaf6f46000555a600155",
                "nonce" : "0x00",
                "storage" : {
                }
            },
            "0x2000000000000000000000000000000000000001" : {
                "balance" : "0x00",
                "code" : "0x6040600060406000732000000000000000000000000000000000000002619c90fa",
                "nonce" : "0x00",
                "storage" : {
                }
            },
            "0x2000000000000000000000000000000000000002" : {
                "balance" : "0x00",
                "code" : "0x6040600060406000732000000000000000000000000000000000000003614e34f4506001600352",
                "nonce" : "0x00",
                "storage" : {
                }
            },
            "0x2000000000000000000000000000000000000003" : {
                "balance" : "0x00",
                "code" : "0x6001600355",
                "nonce" : "0x00",
                "storage" : {
                }
            },
            "0xa000000000000000000000000000000000000000" : {
                "balance" : "0x0de0b6b3a7640000",
                "code" : "0x600060006000600060006000355af26000555a600155",
                "nonce" : "0x00",
                "storage" : {
                }
            },
            "0xa94f5374fce5edbc8e2a8697c15331677e6ebf0b" : {
                "balance" : "0x0de0b6b3a7640000",
                "code" : "0x",
                "nonce" : "0x00",
                "storage" : {
                }
            }
        },
        "sealEngine" : "NoProof"
    }
}