{
    "static_CallEcrecover0_0input_d1g0v0_Byzantium" : {
        "_info" : {
            "comment" : "",
            "filledwith" : "testeth 1.7.0-alpha.1-20+commit.782a7283",
            "lllcversion" : "Version: 0.5.0-develop.2018.11.9+commit.9709dfe0.Linux.g++",
            "source" : "src/BlockchainTestsFiller/GeneralStateTests/stStaticCall/static_CallEcrecover0_0input_d1g0v0Filler.json",
            "sourceHash" : "a07a6364ebfae782c2d9fbbec87803450ab7a4cfb40172b76fce6beeae0b63e6"
        },
        "blocks" : [
            {
                "blockHeader" : {
                    "bloom" : "0x00000000000000000000000000000000000000000000000000000000000000000000000000000000000000000000000000000000000000000000000000000000000000000000000000000000000000000000000000000000000000000000000000000000000000000000000000000000000000000000000000000000000000000000000000000000000000000000000000000000000000000000000000000000000000000000000000000000000000000000000000000000000000000000000000000000000000000000000000000000000000000000000000000000000000000000000000000000000000000000000000000000000000000000000000000000",
                    "coinbase" : "0x2adc25665018aa1fe0e6bc666dac8fc2697ff9ba",
                    "difficulty" : "0x020000",
                    "extraData" : "0x",
                    "gasLimit" : "0x989680",
                    "gasUsed" : "0xc35b",
                    "hash" : "0x6442ed6faaf7629de3239be1619feb8a68fe5aac90bb94dfcc67adf11160254f",
                    "mixHash" : "0x0000000000000000000000000000000000000000000000000000000000000000",
                    "nonce" : "0x0000000000000000",
                    "number" : "0x01",
                    "parentHash" : "0x39f75ce6c87dbc69cfcfc45ef4cc8f5b24fe9d6ca9576b615a96a8b139284f4f",
                    "receiptTrie" : "0xd086fcbd3b2407dc60840e5ac67874e9ef3a3f855de5db7502949dd91474f7a0",
                    "stateRoot" : "0x0ba2c5f99261480d3d57a1655bc391c32588df2e2ff0d85e0e84d8995fa7edab",
                    "timestamp" : "0x03e8",
                    "transactionsTrie" : "0xf4efaf72a45f4cc4a61bcec22bb4a66a3e56ea94f7b77c35b5ee35fd89359b5a",
                    "uncleHash" : "0x1dcc4de8dec75d7aab85b567b6ccd41ad312451b948a7413f0a142fd40d49347"
                },
                "rlp" : "0xf90282f901f7a039f75ce6c87dbc69cfcfc45ef4cc8f5b24fe9d6ca9576b615a96a8b139284f4fa01dcc4de8dec75d7aab85b567b6ccd41ad312451b948a7413f0a142fd40d49347942adc25665018aa1fe0e6bc666dac8fc2697ff9baa00ba2c5f99261480d3d57a1655bc391c32588df2e2ff0d85e0e84d8995fa7edaba0f4efaf72a45f4cc4a61bcec22bb4a66a3e56ea94f7b77c35b5ee35fd89359b5aa0d086fcbd3b2407dc60840e5ac67874e9ef3a3f855de5db7502949dd91474f7a0b901000000000000000000000000000000000000000000000000000000000000000000000000000000000000000000000000000000000000000000000000000000000000000000000000000000000000000000000000000000000000000000000000000000000000000000000000000000000000000000000000000000000000000000000000000000000000000000000000000000000000000000000000000000000000000000000000000000000000000000000000000000000000000000000000000000000000000000000000000000000000000000000000000000000000000000000000000000000000000000000000000000000000000000000000000000000083020000018398968082c35b8203e880a00000000000000000000000000000000000000000000000000000000000000000880000000000000000f885f88380018337ba9094095e7baea6a6c7c4c2dfeb977efac326af552d87830186a0a000000000000000000000000000000000000000000000000000000000000000011ba05dfb9d6ea76119b2c1bffee31d6e68f376417d7340c927fee4907324f2cb67e6a0193e6b6484f1d6a03f47d7a9b27a1f70914a2ca34d70c148f8e5e6d51216d4b0c0",
                "transactions" : [
                    {
                        "data" : "0x0000000000000000000000000000000000000000000000000000000000000001",
                        "gasLimit" : "0x37ba90",
                        "gasPrice" : "0x01",
                        "nonce" : "0x00",
                        "r" : "0x5dfb9d6ea76119b2c1bffee31d6e68f376417d7340c927fee4907324f2cb67e6",
                        "s" : "0x193e6b6484f1d6a03f47d7a9b27a1f70914a2ca34d70c148f8e5e6d51216d4b0",
                        "to" : "0x095e7baea6a6c7c4c2dfeb977efac326af552d87",
                        "v" : "0x1b",
                        "value" : "0x0186a0"
                    }
                ],
                "uncleHeaders" : [
                ]
            }
        ],
        "genesisBlockHeader" : {
            "bloom" : "0x00000000000000000000000000000000000000000000000000000000000000000000000000000000000000000000000000000000000000000000000000000000000000000000000000000000000000000000000000000000000000000000000000000000000000000000000000000000000000000000000000000000000000000000000000000000000000000000000000000000000000000000000000000000000000000000000000000000000000000000000000000000000000000000000000000000000000000000000000000000000000000000000000000000000000000000000000000000000000000000000000000000000000000000000000000000",
            "coinbase" : "0x2adc25665018aa1fe0e6bc666dac8fc2697ff9ba",
            "difficulty" : "0x020000",
            "extraData" : "0x42",
            "gasLimit" : "0x989680",
            "gasUsed" : "0x00",
            "hash" : "0x39f75ce6c87dbc69cfcfc45ef4cc8f5b24fe9d6ca9576b615a96a8b139284f4f",
            "mixHash" : "0x56e81f171bcc55a6ff8345e692c0f86e5b48e01b996cadc001622fb5e363b421",
            "nonce" : "0x0102030405060708",
            "number" : "0x00",
            "parentHash" : "0x0000000000000000000000000000000000000000000000000000000000000000",
            "receiptTrie" : "0x56e81f171bcc55a6ff8345e692c0f86e5b48e01b996cadc001622fb5e363b421",
            "stateRoot" : "0x7d2adfe6fd70ac0b9fc60b7aedd088a80fea9cdbd3c54f0503f0715e95b3768e",
            "timestamp" : "0x03b6",
            "transactionsTrie" : "0x56e81f171bcc55a6ff8345e692c0f86e5b48e01b996cadc001622fb5e363b421",
            "uncleHash" : "0x1dcc4de8dec75d7aab85b567b6ccd41ad312451b948a7413f0a142fd40d49347"
        },
        "genesisRLP" : "0xf901faf901f5a00000000000000000000000000000000000000000000000000000000000000000a01dcc4de8dec75d7aab85b567b6ccd41ad312451b948a7413f0a142fd40d49347942adc25665018aa1fe0e6bc666dac8fc2697ff9baa07d2adfe6fd70ac0b9fc60b7aedd088a80fea9cdbd3c54f0503f0715e95b3768ea056e81f171bcc55a6ff8345e692c0f86e5b48e01b996cadc001622fb5e363b421a056e81f171bcc55a6ff8345e692c0f86e5b48e01b996cadc001622fb5e363b421b9010000000000000000000000000000000000000000000000000000000000000000000000000000000000000000000000000000000000000000000000000000000000000000000000000000000000000000000000000000000000000000000000000000000000000000000000000000000000000000000000000000000000000000000000000000000000000000000000000000000000000000000000000000000000000000000000000000000000000000000000000000000000000000000000000000000000000000000000000000000000000000000000000000000000000000000000000000000000000000000000000000000000000000000000000000000000830200008083989680808203b642a056e81f171bcc55a6ff8345e692c0f86e5b48e01b996cadc001622fb5e363b421880102030405060708c0c0",
        "lastblockhash" : "0x6442ed6faaf7629de3239be1619feb8a68fe5aac90bb94dfcc67adf11160254f",
        "network" : "Byzantium",
        "postState" : {
            "0x095e7baea6a6c7c4c2dfeb977efac326af552d87" : {
                "balance" : "0x0132b3a0",
                "code" : "0x6020608060806000600035620493e0fa60025560a060020a60805106600055",
                "nonce" : "0x00",
                "storage" : {
                    "0x02" : "0x01"
                }
            },
            "0x2adc25665018aa1fe0e6bc666dac8fc2697ff9ba" : {
                "balance" : "0x29a2241af62cc35b",
                "code" : "0x",
                "nonce" : "0x00",
                "storage" : {
                }
            },
            "0xa94f5374fce5edbc8e2a8697c15331677e6ebf0b" : {
                "balance" : "0x0de0b6b3a761b605",
                "code" : "0x",
                "nonce" : "0x01",
                "storage" : {
                }
            }
        },
        "pre" : {
            "0x095e7baea6a6c7c4c2dfeb977efac326af552d87" : {
                "balance" : "0x01312d00",
                "code" : "0x6020608060806000600035620493e0fa60025560a060020a60805106600055",
                "nonce" : "0x00",
                "storage" : {
                }
            },
            "0xa94f5374fce5edbc8e2a8697c15331677e6ebf0b" : {
                "balance" : "0x0de0b6b3a7640000",
                "code" : "0x",
                "nonce" : "0x00",
                "storage" : {
                }
            }
        },
        "sealEngine" : "NoProof"
    },
    "static_CallEcrecover0_0input_d1g0v0_Constantinople" : {
        "_info" : {
            "comment" : "",
            "filledwith" : "testeth 1.7.0-alpha.1-20+commit.782a7283",
            "lllcversion" : "Version: 0.5.0-develop.2018.11.9+commit.9709dfe0.Linux.g++",
            "source" : "src/BlockchainTestsFiller/GeneralStateTests/stStaticCall/static_CallEcrecover0_0input_d1g0v0Filler.json",
            "sourceHash" : "a07a6364ebfae782c2d9fbbec87803450ab7a4cfb40172b76fce6beeae0b63e6"
        },
        "blocks" : [
            {
                "blockHeader" : {
                    "bloom" : "0x00000000000000000000000000000000000000000000000000000000000000000000000000000000000000000000000000000000000000000000000000000000000000000000000000000000000000000000000000000000000000000000000000000000000000000000000000000000000000000000000000000000000000000000000000000000000000000000000000000000000000000000000000000000000000000000000000000000000000000000000000000000000000000000000000000000000000000000000000000000000000000000000000000000000000000000000000000000000000000000000000000000000000000000000000000000",
                    "coinbase" : "0x2adc25665018aa1fe0e6bc666dac8fc2697ff9ba",
                    "difficulty" : "0x020000",
                    "extraData" : "0x",
                    "gasLimit" : "0x989680",
                    "gasUsed" : "0xb09b",
                    "hash" : "0x2177879c8609476e280857d97b53966de7a6dbecc9e7cf3cf15400cec94c4fc9",
                    "mixHash" : "0x0000000000000000000000000000000000000000000000000000000000000000",
                    "nonce" : "0x0000000000000000",
                    "number" : "0x01",
                    "parentHash" : "0x39f75ce6c87dbc69cfcfc45ef4cc8f5b24fe9d6ca9576b615a96a8b139284f4f",
                    "receiptTrie" : "0x3c18fa20f2184417aacab01dfd46800a76b13b59903282086d48e33870322fd1",
                    "stateRoot" : "0x5b4469cacd034e29cbe5ea8b8d7f5e4ee8820d90c1d156c117faa75c3bfd6fc9",
                    "timestamp" : "0x03e8",
                    "transactionsTrie" : "0xf4efaf72a45f4cc4a61bcec22bb4a66a3e56ea94f7b77c35b5ee35fd89359b5a",
                    "uncleHash" : "0x1dcc4de8dec75d7aab85b567b6ccd41ad312451b948a7413f0a142fd40d49347"
                },
                "rlp" : "0xf90282f901f7a039f75ce6c87dbc69cfcfc45ef4cc8f5b24fe9d6ca9576b615a96a8b139284f4fa01dcc4de8dec75d7aab85b567b6ccd41ad312451b948a7413f0a142fd40d49347942adc25665018aa1fe0e6bc666dac8fc2697ff9baa05b4469cacd034e29cbe5ea8b8d7f5e4ee8820d90c1d156c117faa75c3bfd6fc9a0f4efaf72a45f4cc4a61bcec22bb4a66a3e56ea94f7b77c35b5ee35fd89359b5aa03c18fa20f2184417aacab01dfd46800a76b13b59903282086d48e33870322fd1b901000000000000000000000000000000000000000000000000000000000000000000000000000000000000000000000000000000000000000000000000000000000000000000000000000000000000000000000000000000000000000000000000000000000000000000000000000000000000000000000000000000000000000000000000000000000000000000000000000000000000000000000000000000000000000000000000000000000000000000000000000000000000000000000000000000000000000000000000000000000000000000000000000000000000000000000000000000000000000000000000000000000000000000000000000000000083020000018398968082b09b8203e880a00000000000000000000000000000000000000000000000000000000000000000880000000000000000f885f88380018337ba9094095e7baea6a6c7c4c2dfeb977efac326af552d87830186a0a000000000000000000000000000000000000000000000000000000000000000011ba05dfb9d6ea76119b2c1bffee31d6e68f376417d7340c927fee4907324f2cb67e6a0193e6b6484f1d6a03f47d7a9b27a1f70914a2ca34d70c148f8e5e6d51216d4b0c0",
                "transactions" : [
                    {
                        "data" : "0x0000000000000000000000000000000000000000000000000000000000000001",
                        "gasLimit" : "0x37ba90",
                        "gasPrice" : "0x01",
                        "nonce" : "0x00",
                        "r" : "0x5dfb9d6ea76119b2c1bffee31d6e68f376417d7340c927fee4907324f2cb67e6",
                        "s" : "0x193e6b6484f1d6a03f47d7a9b27a1f70914a2ca34d70c148f8e5e6d51216d4b0",
                        "to" : "0x095e7baea6a6c7c4c2dfeb977efac326af552d87",
                        "v" : "0x1b",
                        "value" : "0x0186a0"
                    }
                ],
                "uncleHeaders" : [
                ]
            }
        ],
        "genesisBlockHeader" : {
            "bloom" : "0x00000000000000000000000000000000000000000000000000000000000000000000000000000000000000000000000000000000000000000000000000000000000000000000000000000000000000000000000000000000000000000000000000000000000000000000000000000000000000000000000000000000000000000000000000000000000000000000000000000000000000000000000000000000000000000000000000000000000000000000000000000000000000000000000000000000000000000000000000000000000000000000000000000000000000000000000000000000000000000000000000000000000000000000000000000000",
            "coinbase" : "0x2adc25665018aa1fe0e6bc666dac8fc2697ff9ba",
            "difficulty" : "0x020000",
            "extraData" : "0x42",
            "gasLimit" : "0x989680",
            "gasUsed" : "0x00",
            "hash" : "0x39f75ce6c87dbc69cfcfc45ef4cc8f5b24fe9d6ca9576b615a96a8b139284f4f",
            "mixHash" : "0x56e81f171bcc55a6ff8345e692c0f86e5b48e01b996cadc001622fb5e363b421",
            "nonce" : "0x0102030405060708",
            "number" : "0x00",
            "parentHash" : "0x0000000000000000000000000000000000000000000000000000000000000000",
            "receiptTrie" : "0x56e81f171bcc55a6ff8345e692c0f86e5b48e01b996cadc001622fb5e363b421",
            "stateRoot" : "0x7d2adfe6fd70ac0b9fc60b7aedd088a80fea9cdbd3c54f0503f0715e95b3768e",
            "timestamp" : "0x03b6",
            "transactionsTrie" : "0x56e81f171bcc55a6ff8345e692c0f86e5b48e01b996cadc001622fb5e363b421",
            "uncleHash" : "0x1dcc4de8dec75d7aab85b567b6ccd41ad312451b948a7413f0a142fd40d49347"
        },
        "genesisRLP" : "0xf901faf901f5a00000000000000000000000000000000000000000000000000000000000000000a01dcc4de8dec75d7aab85b567b6ccd41ad312451b948a7413f0a142fd40d49347942adc25665018aa1fe0e6bc666dac8fc2697ff9baa07d2adfe6fd70ac0b9fc60b7aedd088a80fea9cdbd3c54f0503f0715e95b3768ea056e81f171bcc55a6ff8345e692c0f86e5b48e01b996cadc001622fb5e363b421a056e81f171bcc55a6ff8345e692c0f86e5b48e01b996cadc001622fb5e363b421b9010000000000000000000000000000000000000000000000000000000000000000000000000000000000000000000000000000000000000000000000000000000000000000000000000000000000000000000000000000000000000000000000000000000000000000000000000000000000000000000000000000000000000000000000000000000000000000000000000000000000000000000000000000000000000000000000000000000000000000000000000000000000000000000000000000000000000000000000000000000000000000000000000000000000000000000000000000000000000000000000000000000000000000000000000000000000830200008083989680808203b642a056e81f171bcc55a6ff8345e692c0f86e5b48e01b996cadc001622fb5e363b421880102030405060708c0c0",
        "lastblockhash" : "0x2177879c8609476e280857d97b53966de7a6dbecc9e7cf3cf15400cec94c4fc9",
        "network" : "Constantinople",
        "postState" : {
            "0x095e7baea6a6c7c4c2dfeb977efac326af552d87" : {
                "balance" : "0x0132b3a0",
                "code" : "0x6020608060806000600035620493e0fa60025560a060020a60805106600055",
                "nonce" : "0x00",
                "storage" : {
                    "0x02" : "0x01"
                }
            },
            "0x2adc25665018aa1fe0e6bc666dac8fc2697ff9ba" : {
                "balance" : "0x1bc16d674ec8b09b",
                "code" : "0x",
                "nonce" : "0x00",
                "storage" : {
                }
            },
            "0xa94f5374fce5edbc8e2a8697c15331677e6ebf0b" : {
                "balance" : "0x0de0b6b3a761c8c5",
                "code" : "0x",
                "nonce" : "0x01",
                "storage" : {
                }
            }
        },
        "pre" : {
            "0x095e7baea6a6c7c4c2dfeb977efac326af552d87" : {
                "balance" : "0x01312d00",
                "code" : "0x6020608060806000600035620493e0fa60025560a060020a60805106600055",
                "nonce" : "0x00",
                "storage" : {
                }
            },
            "0xa94f5374fce5edbc8e2a8697c15331677e6ebf0b" : {
                "balance" : "0x0de0b6b3a7640000",
                "code" : "0x",
                "nonce" : "0x00",
                "storage" : {
                }
            }
        },
        "sealEngine" : "NoProof"
    },
    "static_CallEcrecover0_0input_d1g0v0_ConstantinopleFix" : {
        "_info" : {
            "comment" : "",
            "filledwith" : "testeth 1.7.0-alpha.1-20+commit.782a7283",
            "lllcversion" : "Version: 0.5.0-develop.2018.11.9+commit.9709dfe0.Linux.g++",
            "source" : "src/BlockchainTestsFiller/GeneralStateTests/stStaticCall/static_CallEcrecover0_0input_d1g0v0Filler.json",
            "sourceHash" : "a07a6364ebfae782c2d9fbbec87803450ab7a4cfb40172b76fce6beeae0b63e6"
        },
        "blocks" : [
            {
                "blockHeader" : {
                    "bloom" : "0x00000000000000000000000000000000000000000000000000000000000000000000000000000000000000000000000000000000000000000000000000000000000000000000000000000000000000000000000000000000000000000000000000000000000000000000000000000000000000000000000000000000000000000000000000000000000000000000000000000000000000000000000000000000000000000000000000000000000000000000000000000000000000000000000000000000000000000000000000000000000000000000000000000000000000000000000000000000000000000000000000000000000000000000000000000000",
                    "coinbase" : "0x2adc25665018aa1fe0e6bc666dac8fc2697ff9ba",
                    "difficulty" : "0x020000",
                    "extraData" : "0x",
                    "gasLimit" : "0x989680",
                    "gasUsed" : "0xc35b",
                    "hash" : "0x2f196beca8aae733834f648144af965bda64317f0592643d8585342ade0a904c",
                    "mixHash" : "0x0000000000000000000000000000000000000000000000000000000000000000",
                    "nonce" : "0x0000000000000000",
                    "number" : "0x01",
                    "parentHash" : "0x39f75ce6c87dbc69cfcfc45ef4cc8f5b24fe9d6ca9576b615a96a8b139284f4f",
                    "receiptTrie" : "0xd086fcbd3b2407dc60840e5ac67874e9ef3a3f855de5db7502949dd91474f7a0",
                    "stateRoot" : "0xb2010492a8e3f0c680a9483ed4e99628f1e2827c116598eb9db7b12511272a38",
                    "timestamp" : "0x03e8",
                    "transactionsTrie" : "0xf4efaf72a45f4cc4a61bcec22bb4a66a3e56ea94f7b77c35b5ee35fd89359b5a",
                    "uncleHash" : "0x1dcc4de8dec75d7aab85b567b6ccd41ad312451b948a7413f0a142fd40d49347"
                },
                "rlp" : "0xf90282f901f7a039f75ce6c87dbc69cfcfc45ef4cc8f5b24fe9d6ca9576b615a96a8b139284f4fa01dcc4de8dec75d7aab85b567b6ccd41ad312451b948a7413f0a142fd40d49347942adc25665018aa1fe0e6bc666dac8fc2697ff9baa0b2010492a8e3f0c680a9483ed4e99628f1e2827c116598eb9db7b12511272a38a0f4efaf72a45f4cc4a61bcec22bb4a66a3e56ea94f7b77c35b5ee35fd89359b5aa0d086fcbd3b2407dc60840e5ac67874e9ef3a3f855de5db7502949dd91474f7a0b901000000000000000000000000000000000000000000000000000000000000000000000000000000000000000000000000000000000000000000000000000000000000000000000000000000000000000000000000000000000000000000000000000000000000000000000000000000000000000000000000000000000000000000000000000000000000000000000000000000000000000000000000000000000000000000000000000000000000000000000000000000000000000000000000000000000000000000000000000000000000000000000000000000000000000000000000000000000000000000000000000000000000000000000000000000000083020000018398968082c35b8203e880a00000000000000000000000000000000000000000000000000000000000000000880000000000000000f885f88380018337ba9094095e7baea6a6c7c4c2dfeb977efac326af552d87830186a0a000000000000000000000000000000000000000000000000000000000000000011ba05dfb9d6ea76119b2c1bffee31d6e68f376417d7340c927fee4907324f2cb67e6a0193e6b6484f1d6a03f47d7a9b27a1f70914a2ca34d70c148f8e5e6d51216d4b0c0",
                "transactions" : [
                    {
                        "data" : "0x0000000000000000000000000000000000000000000000000000000000000001",
                        "gasLimit" : "0x37ba90",
                        "gasPrice" : "0x01",
                        "nonce" : "0x00",
                        "r" : "0x5dfb9d6ea76119b2c1bffee31d6e68f376417d7340c927fee4907324f2cb67e6",
                        "s" : "0x193e6b6484f1d6a03f47d7a9b27a1f70914a2ca34d70c148f8e5e6d51216d4b0",
                        "to" : "0x095e7baea6a6c7c4c2dfeb977efac326af552d87",
                        "v" : "0x1b",
                        "value" : "0x0186a0"
                    }
                ],
                "uncleHeaders" : [
                ]
            }
        ],
        "genesisBlockHeader" : {
            "bloom" : "0x00000000000000000000000000000000000000000000000000000000000000000000000000000000000000000000000000000000000000000000000000000000000000000000000000000000000000000000000000000000000000000000000000000000000000000000000000000000000000000000000000000000000000000000000000000000000000000000000000000000000000000000000000000000000000000000000000000000000000000000000000000000000000000000000000000000000000000000000000000000000000000000000000000000000000000000000000000000000000000000000000000000000000000000000000000000",
            "coinbase" : "0x2adc25665018aa1fe0e6bc666dac8fc2697ff9ba",
            "difficulty" : "0x020000",
            "extraData" : "0x42",
            "gasLimit" : "0x989680",
            "gasUsed" : "0x00",
            "hash" : "0x39f75ce6c87dbc69cfcfc45ef4cc8f5b24fe9d6ca9576b615a96a8b139284f4f",
            "mixHash" : "0x56e81f171bcc55a6ff8345e692c0f86e5b48e01b996cadc001622fb5e363b421",
            "nonce" : "0x0102030405060708",
            "number" : "0x00",
            "parentHash" : "0x0000000000000000000000000000000000000000000000000000000000000000",
            "receiptTrie" : "0x56e81f171bcc55a6ff8345e692c0f86e5b48e01b996cadc001622fb5e363b421",
            "stateRoot" : "0x7d2adfe6fd70ac0b9fc60b7aedd088a80fea9cdbd3c54f0503f0715e95b3768e",
            "timestamp" : "0x03b6",
            "transactionsTrie" : "0x56e81f171bcc55a6ff8345e692c0f86e5b48e01b996cadc001622fb5e363b421",
            "uncleHash" : "0x1dcc4de8dec75d7aab85b567b6ccd41ad312451b948a7413f0a142fd40d49347"
        },
        "genesisRLP" : "0xf901faf901f5a00000000000000000000000000000000000000000000000000000000000000000a01dcc4de8dec75d7aab85b567b6ccd41ad312451b948a7413f0a142fd40d49347942adc25665018aa1fe0e6bc666dac8fc2697ff9baa07d2adfe6fd70ac0b9fc60b7aedd088a80fea9cdbd3c54f0503f0715e95b3768ea056e81f171bcc55a6ff8345e692c0f86e5b48e01b996cadc001622fb5e363b421a056e81f171bcc55a6ff8345e692c0f86e5b48e01b996cadc001622fb5e363b421b9010000000000000000000000000000000000000000000000000000000000000000000000000000000000000000000000000000000000000000000000000000000000000000000000000000000000000000000000000000000000000000000000000000000000000000000000000000000000000000000000000000000000000000000000000000000000000000000000000000000000000000000000000000000000000000000000000000000000000000000000000000000000000000000000000000000000000000000000000000000000000000000000000000000000000000000000000000000000000000000000000000000000000000000000000000000000830200008083989680808203b642a056e81f171bcc55a6ff8345e692c0f86e5b48e01b996cadc001622fb5e363b421880102030405060708c0c0",
        "lastblockhash" : "0x2f196beca8aae733834f648144af965bda64317f0592643d8585342ade0a904c",
        "network" : "ConstantinopleFix",
        "postState" : {
            "0x095e7baea6a6c7c4c2dfeb977efac326af552d87" : {
                "balance" : "0x0132b3a0",
                "code" : "0x6020608060806000600035620493e0fa60025560a060020a60805106600055",
                "nonce" : "0x00",
                "storage" : {
                    "0x02" : "0x01"
                }
            },
            "0x2adc25665018aa1fe0e6bc666dac8fc2697ff9ba" : {
                "balance" : "0x1bc16d674ec8c35b",
                "code" : "0x",
                "nonce" : "0x00",
                "storage" : {
                }
            },
            "0xa94f5374fce5edbc8e2a8697c15331677e6ebf0b" : {
                "balance" : "0x0de0b6b3a761b605",
                "code" : "0x",
                "nonce" : "0x01",
                "storage" : {
                }
            }
        },
        "pre" : {
            "0x095e7baea6a6c7c4c2dfeb977efac326af552d87" : {
                "balance" : "0x01312d00",
                "code" : "0x6020608060806000600035620493e0fa60025560a060020a60805106600055",
                "nonce" : "0x00",
                "storage" : {
                }
            },
            "0xa94f5374fce5edbc8e2a8697c15331677e6ebf0b" : {
                "balance" : "0x0de0b6b3a7640000",
                "code" : "0x",
                "nonce" : "0x00",
                "storage" : {
                }
            }
        },
        "sealEngine" : "NoProof"
    }
}