{
    "static_callcodecallcallcode_ABCB_RECURSIVE2_d0g0v1_Byzantium" : {
        "_info" : {
            "comment" : "",
            "filledwith" : "testeth 1.7.0-alpha.1-20+commit.782a7283",
            "lllcversion" : "Version: 0.5.0-develop.2018.11.9+commit.9709dfe0.Linux.g++",
            "source" : "src/BlockchainTestsFiller/GeneralStateTests/stStaticCall/static_callcodecallcallcode_ABCB_RECURSIVE2_d0g0v1Filler.json",
            "sourceHash" : "1814d393698725d72e9692a8d42f036c69f3d485a0387ab651bc6c9fa231dbcb"
        },
        "blocks" : [
            {
                "blockHeader" : {
                    "bloom" : "0x00000000000000000000000000000000000000000000000000000000000000000000000000000000000000000000000000000000000000000000000000000000000000000000000000000000000000000000000000000000000000000000000000000000000000000000000000000000000000000000000000000000000000000000000000000000000000000000000000000000000000000000000000000000000000000000000000000000000000000000000000000000000000000000000000000000000000000000000000000000000000000000000000000000000000000000000000000000000000000000000000000000000000000000000000000000",
                    "coinbase" : "0x2adc25665018aa1fe0e6bc666dac8fc2697ff9ba",
                    "difficulty" : "0x020000",
                    "extraData" : "0x",
                    "gasLimit" : "0xb2d05e00",
                    "gasUsed" : "0x02d05c",
                    "hash" : "0xe5cec5e169a4d920372235e6dbd2da78642db5b0c7955bdced008550b35d81fc",
                    "mixHash" : "0x0000000000000000000000000000000000000000000000000000000000000000",
                    "nonce" : "0x0000000000000000",
                    "number" : "0x01",
                    "parentHash" : "0xef45c6e265756498e78a48a0efc0e0142d4e543c668aa6dd81b0549e718ce317",
                    "receiptTrie" : "0xa964a98b0e6c1e46281c796a65bd8a4a496e3d48b0f3e1c747c053acc688595e",
                    "stateRoot" : "0x6d027dfb92d5a117488ea4291fa93eab5d2b31cf2c88be63f8255f4d00a4168a",
                    "timestamp" : "0x03e8",
                    "transactionsTrie" : "0x6e9b47bd318d48b29605ddca6011bd2bf41d73889477887d3e763018fb163484",
                    "uncleHash" : "0x1dcc4de8dec75d7aab85b567b6ccd41ad312451b948a7413f0a142fd40d49347"
                },
                "rlp" : "0xf90282f901f9a0ef45c6e265756498e78a48a0efc0e0142d4e543c668aa6dd81b0549e718ce317a01dcc4de8dec75d7aab85b567b6ccd41ad312451b948a7413f0a142fd40d49347942adc25665018aa1fe0e6bc666dac8fc2697ff9baa06d027dfb92d5a117488ea4291fa93eab5d2b31cf2c88be63f8255f4d00a4168aa06e9b47bd318d48b29605ddca6011bd2bf41d73889477887d3e763018fb163484a0a964a98b0e6c1e46281c796a65bd8a4a496e3d48b0f3e1c747c053acc688595eb9010000000000000000000000000000000000000000000000000000000000000000000000000000000000000000000000000000000000000000000000000000000000000000000000000000000000000000000000000000000000000000000000000000000000000000000000000000000000000000000000000000000000000000000000000000000000000000000000000000000000000000000000000000000000000000000000000000000000000000000000000000000000000000000000000000000000000000000000000000000000000000000000000000000000000000000000000000000000000000000000000000000000000000000000000000000000830200000184b2d05e008302d05c8203e880a00000000000000000000000000000000000000000000000000000000000000000880000000000000000f883f88180018401c9c38094100000000000000000000000000000000000000001a000000000000000000000000010000000000000000000000000000000000000011ba00f45c819cb0833e204b02f63479c52f1c70e1e6ddb001776636578c2a1d51a2aa01961906cead85c91e386a62616095958e82e85293ca30f2dd08834924e6a9a07c0",
                "transactions" : [
                    {
                        "data" : "0x0000000000000000000000001000000000000000000000000000000000000001",
                        "gasLimit" : "0x01c9c380",
                        "gasPrice" : "0x01",
                        "nonce" : "0x00",
                        "r" : "0x0f45c819cb0833e204b02f63479c52f1c70e1e6ddb001776636578c2a1d51a2a",
                        "s" : "0x1961906cead85c91e386a62616095958e82e85293ca30f2dd08834924e6a9a07",
                        "to" : "0x1000000000000000000000000000000000000000",
                        "v" : "0x1b",
                        "value" : "0x01"
                    }
                ],
                "uncleHeaders" : [
                ]
            }
        ],
        "genesisBlockHeader" : {
            "bloom" : "0x00000000000000000000000000000000000000000000000000000000000000000000000000000000000000000000000000000000000000000000000000000000000000000000000000000000000000000000000000000000000000000000000000000000000000000000000000000000000000000000000000000000000000000000000000000000000000000000000000000000000000000000000000000000000000000000000000000000000000000000000000000000000000000000000000000000000000000000000000000000000000000000000000000000000000000000000000000000000000000000000000000000000000000000000000000000",
            "coinbase" : "0x2adc25665018aa1fe0e6bc666dac8fc2697ff9ba",
            "difficulty" : "0x020000",
            "extraData" : "0x42",
            "gasLimit" : "0xb2d05e00",
            "gasUsed" : "0x00",
            "hash" : "0xef45c6e265756498e78a48a0efc0e0142d4e543c668aa6dd81b0549e718ce317",
            "mixHash" : "0x56e81f171bcc55a6ff8345e692c0f86e5b48e01b996cadc001622fb5e363b421",
            "nonce" : "0x0102030405060708",
            "number" : "0x00",
            "parentHash" : "0x0000000000000000000000000000000000000000000000000000000000000000",
            "receiptTrie" : "0x56e81f171bcc55a6ff8345e692c0f86e5b48e01b996cadc001622fb5e363b421",
            "stateRoot" : "0x20945a29fa82e696c437cbe438c988867b41418e4710d8d432daf44369ccb2ba",
            "timestamp" : "0x03b6",
            "transactionsTrie" : "0x56e81f171bcc55a6ff8345e692c0f86e5b48e01b996cadc001622fb5e363b421",
            "uncleHash" : "0x1dcc4de8dec75d7aab85b567b6ccd41ad312451b948a7413f0a142fd40d49347"
        },
        "genesisRLP" : "0xf901fbf901f6a00000000000000000000000000000000000000000000000000000000000000000a01dcc4de8dec75d7aab85b567b6ccd41ad312451b948a7413f0a142fd40d49347942adc25665018aa1fe0e6bc666dac8fc2697ff9baa020945a29fa82e696c437cbe438c988867b41418e4710d8d432daf44369ccb2baa056e81f171bcc55a6ff8345e692c0f86e5b48e01b996cadc001622fb5e363b421a056e81f171bcc55a6ff8345e692c0f86e5b48e01b996cadc001622fb5e363b421b9010000000000000000000000000000000000000000000000000000000000000000000000000000000000000000000000000000000000000000000000000000000000000000000000000000000000000000000000000000000000000000000000000000000000000000000000000000000000000000000000000000000000000000000000000000000000000000000000000000000000000000000000000000000000000000000000000000000000000000000000000000000000000000000000000000000000000000000000000000000000000000000000000000000000000000000000000000000000000000000000000000000000000000000000000000000000830200008084b2d05e00808203b642a056e81f171bcc55a6ff8345e692c0f86e5b48e01b996cadc001622fb5e363b421880102030405060708c0c0",
        "lastblockhash" : "0xe5cec5e169a4d920372235e6dbd2da78642db5b0c7955bdced008550b35d81fc",
        "network" : "Byzantium",
        "postState" : {
            "0x1000000000000000000000000000000000000000" : {
                "balance" : "0x0de0b6b3a7640001",
                "code" : "0x60406000604060003460003563017d7840f26000555a600155",
                "nonce" : "0x00",
                "storage" : {
                    "0x00" : "0x01",
                    "0x01" : "0x01c74147"
                }
            },
            "0x1000000000000000000000000000000000000001" : {
                "balance" : "0x02540be400",
                "code" : "0x6040600060406000731000000000000000000000000000000000000002620f4240fa",
                "nonce" : "0x00",
                "storage" : {
                }
            },
            "0x1000000000000000000000000000000000000002" : {
                "balance" : "0x02540be400",
                "code" : "0x604060006040600060007310000000000000000000000000000000000000016207a120f2",
                "nonce" : "0x00",
                "storage" : {
                }
            },
            "0x2000000000000000000000000000000000000001" : {
                "balance" : "0x02540be400",
                "code" : "0x6040600060406000732000000000000000000000000000000000000002620f4240fa",
                "nonce" : "0x00",
                "storage" : {
                }
            },
            "0x2000000000000000000000000000000000000002" : {
                "balance" : "0x02540be400",
                "code" : "0x604060006040600060017320000000000000000000000000000000000000016207a120f2",
                "nonce" : "0x00",
                "storage" : {
                }
            },
            "0x2adc25665018aa1fe0e6bc666dac8fc2697ff9ba" : {
                "balance" : "0x29a2241af62ed05c",
                "code" : "0x",
                "nonce" : "0x00",
                "storage" : {
                }
            },
            "0xa94f5374fce5edbc8e2a8697c15331677e6ebf0b" : {
                "balance" : "0x0de0b6b3a7612fa3",
                "code" : "0x",
                "nonce" : "0x01",
                "storage" : {
                }
            }
        },
        "pre" : {
            "0x1000000000000000000000000000000000000000" : {
                "balance" : "0x0de0b6b3a7640000",
                "code" : "0x60406000604060003460003563017d7840f26000555a600155",
                "nonce" : "0x00",
                "storage" : {
                }
            },
            "0x1000000000000000000000000000000000000001" : {
                "balance" : "0x02540be400",
                "code" : "0x6040600060406000731000000000000000000000000000000000000002620f4240fa",
                "nonce" : "0x00",
                "storage" : {
                }
            },
            "0x1000000000000000000000000000000000000002" : {
                "balance" : "0x02540be400",
                "code" : "0x604060006040600060007310000000000000000000000000000000000000016207a120f2",
                "nonce" : "0x00",
                "storage" : {
                }
            },
            "0x2000000000000000000000000000000000000001" : {
                "balance" : "0x02540be400",
                "code" : "0x6040600060406000732000000000000000000000000000000000000002620f4240fa",
                "nonce" : "0x00",
                "storage" : {
                }
            },
            "0x2000000000000000000000000000000000000002" : {
                "balance" : "0x02540be400",
                "code" : "0x604060006040600060017320000000000000000000000000000000000000016207a120f2",
                "nonce" : "0x00",
                "storage" : {
                }
            },
            "0xa94f5374fce5edbc8e2a8697c15331677e6ebf0b" : {
                "balance" : "0x0de0b6b3a7640000",
                "code" : "0x",
                "nonce" : "0x00",
                "storage" : {
                }
            }
        },
        "sealEngine" : "NoProof"
    },
    "static_callcodecallcallcode_ABCB_RECURSIVE2_d0g0v1_Constantinople" : {
        "_info" : {
            "comment" : "",
            "filledwith" : "testeth 1.7.0-alpha.1-20+commit.782a7283",
            "lllcversion" : "Version: 0.5.0-develop.2018.11.9+commit.9709dfe0.Linux.g++",
            "source" : "src/BlockchainTestsFiller/GeneralStateTests/stStaticCall/static_callcodecallcallcode_ABCB_RECURSIVE2_d0g0v1Filler.json",
            "sourceHash" : "1814d393698725d72e9692a8d42f036c69f3d485a0387ab651bc6c9fa231dbcb"
        },
        "blocks" : [
            {
                "blockHeader" : {
                    "bloom" : "0x00000000000000000000000000000000000000000000000000000000000000000000000000000000000000000000000000000000000000000000000000000000000000000000000000000000000000000000000000000000000000000000000000000000000000000000000000000000000000000000000000000000000000000000000000000000000000000000000000000000000000000000000000000000000000000000000000000000000000000000000000000000000000000000000000000000000000000000000000000000000000000000000000000000000000000000000000000000000000000000000000000000000000000000000000000000",
                    "coinbase" : "0x2adc25665018aa1fe0e6bc666dac8fc2697ff9ba",
                    "difficulty" : "0x020000",
                    "extraData" : "0x",
                    "gasLimit" : "0xb2d05e00",
                    "gasUsed" : "0x02d05c",
                    "hash" : "0x70d9b03e258a519a4f55de523fb19ce281b796f42f174290066b424359e5ef21",
                    "mixHash" : "0x0000000000000000000000000000000000000000000000000000000000000000",
                    "nonce" : "0x0000000000000000",
                    "number" : "0x01",
                    "parentHash" : "0xef45c6e265756498e78a48a0efc0e0142d4e543c668aa6dd81b0549e718ce317",
                    "receiptTrie" : "0xa964a98b0e6c1e46281c796a65bd8a4a496e3d48b0f3e1c747c053acc688595e",
                    "stateRoot" : "0x7435bd15b698366d06bed577d4f548636b033fded747bba744146b8f7a9dca40",
                    "timestamp" : "0x03e8",
                    "transactionsTrie" : "0x6e9b47bd318d48b29605ddca6011bd2bf41d73889477887d3e763018fb163484",
                    "uncleHash" : "0x1dcc4de8dec75d7aab85b567b6ccd41ad312451b948a7413f0a142fd40d49347"
                },
                "rlp" : "0xf90282f901f9a0ef45c6e265756498e78a48a0efc0e0142d4e543c668aa6dd81b0549e718ce317a01dcc4de8dec75d7aab85b567b6ccd41ad312451b948a7413f0a142fd40d49347942adc25665018aa1fe0e6bc666dac8fc2697ff9baa07435bd15b698366d06bed577d4f548636b033fded747bba744146b8f7a9dca40a06e9b47bd318d48b29605ddca6011bd2bf41d73889477887d3e763018fb163484a0a964a98b0e6c1e46281c796a65bd8a4a496e3d48b0f3e1c747c053acc688595eb9010000000000000000000000000000000000000000000000000000000000000000000000000000000000000000000000000000000000000000000000000000000000000000000000000000000000000000000000000000000000000000000000000000000000000000000000000000000000000000000000000000000000000000000000000000000000000000000000000000000000000000000000000000000000000000000000000000000000000000000000000000000000000000000000000000000000000000000000000000000000000000000000000000000000000000000000000000000000000000000000000000000000000000000000000000000000830200000184b2d05e008302d05c8203e880a00000000000000000000000000000000000000000000000000000000000000000880000000000000000f883f88180018401c9c38094100000000000000000000000000000000000000001a000000000000000000000000010000000000000000000000000000000000000011ba00f45c819cb0833e204b02f63479c52f1c70e1e6ddb001776636578c2a1d51a2aa01961906cead85c91e386a62616095958e82e85293ca30f2dd08834924e6a9a07c0",
                "transactions" : [
                    {
                        "data" : "0x0000000000000000000000001000000000000000000000000000000000000001",
                        "gasLimit" : "0x01c9c380",
                        "gasPrice" : "0x01",
                        "nonce" : "0x00",
                        "r" : "0x0f45c819cb0833e204b02f63479c52f1c70e1e6ddb001776636578c2a1d51a2a",
                        "s" : "0x1961906cead85c91e386a62616095958e82e85293ca30f2dd08834924e6a9a07",
                        "to" : "0x1000000000000000000000000000000000000000",
                        "v" : "0x1b",
                        "value" : "0x01"
                    }
                ],
                "uncleHeaders" : [
                ]
            }
        ],
        "genesisBlockHeader" : {
            "bloom" : "0x00000000000000000000000000000000000000000000000000000000000000000000000000000000000000000000000000000000000000000000000000000000000000000000000000000000000000000000000000000000000000000000000000000000000000000000000000000000000000000000000000000000000000000000000000000000000000000000000000000000000000000000000000000000000000000000000000000000000000000000000000000000000000000000000000000000000000000000000000000000000000000000000000000000000000000000000000000000000000000000000000000000000000000000000000000000",
            "coinbase" : "0x2adc25665018aa1fe0e6bc666dac8fc2697ff9ba",
            "difficulty" : "0x020000",
            "extraData" : "0x42",
            "gasLimit" : "0xb2d05e00",
            "gasUsed" : "0x00",
            "hash" : "0xef45c6e265756498e78a48a0efc0e0142d4e543c668aa6dd81b0549e718ce317",
            "mixHash" : "0x56e81f171bcc55a6ff8345e692c0f86e5b48e01b996cadc001622fb5e363b421",
            "nonce" : "0x0102030405060708",
            "number" : "0x00",
            "parentHash" : "0x0000000000000000000000000000000000000000000000000000000000000000",
            "receiptTrie" : "0x56e81f171bcc55a6ff8345e692c0f86e5b48e01b996cadc001622fb5e363b421",
            "stateRoot" : "0x20945a29fa82e696c437cbe438c988867b41418e4710d8d432daf44369ccb2ba",
            "timestamp" : "0x03b6",
            "transactionsTrie" : "0x56e81f171bcc55a6ff8345e692c0f86e5b48e01b996cadc001622fb5e363b421",
            "uncleHash" : "0x1dcc4de8dec75d7aab85b567b6ccd41ad312451b948a7413f0a142fd40d49347"
        },
        "genesisRLP" : "0xf901fbf901f6a00000000000000000000000000000000000000000000000000000000000000000a01dcc4de8dec75d7aab85b567b6ccd41ad312451b948a7413f0a142fd40d49347942adc25665018aa1fe0e6bc666dac8fc2697ff9baa020945a29fa82e696c437cbe438c988867b41418e4710d8d432daf44369ccb2baa056e81f171bcc55a6ff8345e692c0f86e5b48e01b996cadc001622fb5e363b421a056e81f171bcc55a6ff8345e692c0f86e5b48e01b996cadc001622fb5e363b421b9010000000000000000000000000000000000000000000000000000000000000000000000000000000000000000000000000000000000000000000000000000000000000000000000000000000000000000000000000000000000000000000000000000000000000000000000000000000000000000000000000000000000000000000000000000000000000000000000000000000000000000000000000000000000000000000000000000000000000000000000000000000000000000000000000000000000000000000000000000000000000000000000000000000000000000000000000000000000000000000000000000000000000000000000000000000000830200008084b2d05e00808203b642a056e81f171bcc55a6ff8345e692c0f86e5b48e01b996cadc001622fb5e363b421880102030405060708c0c0",
        "lastblockhash" : "0x70d9b03e258a519a4f55de523fb19ce281b796f42f174290066b424359e5ef21",
        "network" : "Constantinople",
        "postState" : {
            "0x1000000000000000000000000000000000000000" : {
                "balance" : "0x0de0b6b3a7640001",
                "code" : "0x60406000604060003460003563017d7840f26000555a600155",
                "nonce" : "0x00",
                "storage" : {
                    "0x00" : "0x01",
                    "0x01" : "0x01c74147"
                }
            },
            "0x1000000000000000000000000000000000000001" : {
                "balance" : "0x02540be400",
                "code" : "0x6040600060406000731000000000000000000000000000000000000002620f4240fa",
                "nonce" : "0x00",
                "storage" : {
                }
            },
            "0x1000000000000000000000000000000000000002" : {
                "balance" : "0x02540be400",
                "code" : "0x604060006040600060007310000000000000000000000000000000000000016207a120f2",
                "nonce" : "0x00",
                "storage" : {
                }
            },
            "0x2000000000000000000000000000000000000001" : {
                "balance" : "0x02540be400",
                "code" : "0x6040600060406000732000000000000000000000000000000000000002620f4240fa",
                "nonce" : "0x00",
                "storage" : {
                }
            },
            "0x2000000000000000000000000000000000000002" : {
                "balance" : "0x02540be400",
                "code" : "0x604060006040600060017320000000000000000000000000000000000000016207a120f2",
                "nonce" : "0x00",
                "storage" : {
                }
            },
            "0x2adc25665018aa1fe0e6bc666dac8fc2697ff9ba" : {
                "balance" : "0x1bc16d674ecad05c",
                "code" : "0x",
                "nonce" : "0x00",
                "storage" : {
                }
            },
            "0xa94f5374fce5edbc8e2a8697c15331677e6ebf0b" : {
                "balance" : "0x0de0b6b3a7612fa3",
                "code" : "0x",
                "nonce" : "0x01",
                "storage" : {
                }
            }
        },
        "pre" : {
            "0x1000000000000000000000000000000000000000" : {
                "balance" : "0x0de0b6b3a7640000",
                "code" : "0x60406000604060003460003563017d7840f26000555a600155",
                "nonce" : "0x00",
                "storage" : {
                }
            },
            "0x1000000000000000000000000000000000000001" : {
                "balance" : "0x02540be400",
                "code" : "0x6040600060406000731000000000000000000000000000000000000002620f4240fa",
                "nonce" : "0x00",
                "storage" : {
                }
            },
            "0x1000000000000000000000000000000000000002" : {
                "balance" : "0x02540be400",
                "code" : "0x604060006040600060007310000000000000000000000000000000000000016207a120f2",
                "nonce" : "0x00",
                "storage" : {
                }
            },
            "0x2000000000000000000000000000000000000001" : {
                "balance" : "0x02540be400",
                "code" : "0x6040600060406000732000000000000000000000000000000000000002620f4240fa",
                "nonce" : "0x00",
                "storage" : {
                }
            },
            "0x2000000000000000000000000000000000000002" : {
                "balance" : "0x02540be400",
                "code" : "0x604060006040600060017320000000000000000000000000000000000000016207a120f2",
                "nonce" : "0x00",
                "storage" : {
                }
            },
            "0xa94f5374fce5edbc8e2a8697c15331677e6ebf0b" : {
                "balance" : "0x0de0b6b3a7640000",
                "code" : "0x",
                "nonce" : "0x00",
                "storage" : {
                }
            }
        },
        "sealEngine" : "NoProof"
    },
    "static_callcodecallcallcode_ABCB_RECURSIVE2_d0g0v1_ConstantinopleFix" : {
        "_info" : {
            "comment" : "",
            "filledwith" : "testeth 1.7.0-alpha.1-20+commit.782a7283",
            "lllcversion" : "Version: 0.5.0-develop.2018.11.9+commit.9709dfe0.Linux.g++",
            "source" : "src/BlockchainTestsFiller/GeneralStateTests/stStaticCall/static_callcodecallcallcode_ABCB_RECURSIVE2_d0g0v1Filler.json",
            "sourceHash" : "1814d393698725d72e9692a8d42f036c69f3d485a0387ab651bc6c9fa231dbcb"
        },
        "blocks" : [
            {
                "blockHeader" : {
                    "bloom" : "0x00000000000000000000000000000000000000000000000000000000000000000000000000000000000000000000000000000000000000000000000000000000000000000000000000000000000000000000000000000000000000000000000000000000000000000000000000000000000000000000000000000000000000000000000000000000000000000000000000000000000000000000000000000000000000000000000000000000000000000000000000000000000000000000000000000000000000000000000000000000000000000000000000000000000000000000000000000000000000000000000000000000000000000000000000000000",
                    "coinbase" : "0x2adc25665018aa1fe0e6bc666dac8fc2697ff9ba",
                    "difficulty" : "0x020000",
                    "extraData" : "0x",
                    "gasLimit" : "0xb2d05e00",
                    "gasUsed" : "0x02d05c",
                    "hash" : "0x70d9b03e258a519a4f55de523fb19ce281b796f42f174290066b424359e5ef21",
                    "mixHash" : "0x0000000000000000000000000000000000000000000000000000000000000000",
                    "nonce" : "0x0000000000000000",
                    "number" : "0x01",
                    "parentHash" : "0xef45c6e265756498e78a48a0efc0e0142d4e543c668aa6dd81b0549e718ce317",
                    "receiptTrie" : "0xa964a98b0e6c1e46281c796a65bd8a4a496e3d48b0f3e1c747c053acc688595e",
                    "stateRoot" : "0x7435bd15b698366d06bed577d4f548636b033fded747bba744146b8f7a9dca40",
                    "timestamp" : "0x03e8",
                    "transactionsTrie" : "0x6e9b47bd318d48b29605ddca6011bd2bf41d73889477887d3e763018fb163484",
                    "uncleHash" : "0x1dcc4de8dec75d7aab85b567b6ccd41ad312451b948a7413f0a142fd40d49347"
                },
                "rlp" : "0xf90282f901f9a0ef45c6e265756498e78a48a0efc0e0142d4e543c668aa6dd81b0549e718ce317a01dcc4de8dec75d7aab85b567b6ccd41ad312451b948a7413f0a142fd40d49347942adc25665018aa1fe0e6bc666dac8fc2697ff9baa07435bd15b698366d06bed577d4f548636b033fded747bba744146b8f7a9dca40a06e9b47bd318d48b29605ddca6011bd2bf41d73889477887d3e763018fb163484a0a964a98b0e6c1e46281c796a65bd8a4a496e3d48b0f3e1c747c053acc688595eb9010000000000000000000000000000000000000000000000000000000000000000000000000000000000000000000000000000000000000000000000000000000000000000000000000000000000000000000000000000000000000000000000000000000000000000000000000000000000000000000000000000000000000000000000000000000000000000000000000000000000000000000000000000000000000000000000000000000000000000000000000000000000000000000000000000000000000000000000000000000000000000000000000000000000000000000000000000000000000000000000000000000000000000000000000000000000830200000184b2d05e008302d05c8203e880a00000000000000000000000000000000000000000000000000000000000000000880000000000000000f883f88180018401c9c38094100000000000000000000000000000000000000001a000000000000000000000000010000000000000000000000000000000000000011ba00f45c819cb0833e204b02f63479c52f1c70e1e6ddb001776636578c2a1d51a2aa01961906cead85c91e386a62616095958e82e85293ca30f2dd08834924e6a9a07c0",
                "transactions" : [
                    {
                        "data" : "0x0000000000000000000000001000000000000000000000000000000000000001",
                        "gasLimit" : "0x01c9c380",
                        "gasPrice" : "0x01",
                        "nonce" : "0x00",
                        "r" : "0x0f45c819cb0833e204b02f63479c52f1c70e1e6ddb001776636578c2a1d51a2a",
                        "s" : "0x1961906cead85c91e386a62616095958e82e85293ca30f2dd08834924e6a9a07",
                        "to" : "0x1000000000000000000000000000000000000000",
                        "v" : "0x1b",
                        "value" : "0x01"
                    }
                ],
                "uncleHeaders" : [
                ]
            }
        ],
        "genesisBlockHeader" : {
            "bloom" : "0x00000000000000000000000000000000000000000000000000000000000000000000000000000000000000000000000000000000000000000000000000000000000000000000000000000000000000000000000000000000000000000000000000000000000000000000000000000000000000000000000000000000000000000000000000000000000000000000000000000000000000000000000000000000000000000000000000000000000000000000000000000000000000000000000000000000000000000000000000000000000000000000000000000000000000000000000000000000000000000000000000000000000000000000000000000000",
            "coinbase" : "0x2adc25665018aa1fe0e6bc666dac8fc2697ff9ba",
            "difficulty" : "0x020000",
            "extraData" : "0x42",
            "gasLimit" : "0xb2d05e00",
            "gasUsed" : "0x00",
            "hash" : "0xef45c6e265756498e78a48a0efc0e0142d4e543c668aa6dd81b0549e718ce317",
            "mixHash" : "0x56e81f171bcc55a6ff8345e692c0f86e5b48e01b996cadc001622fb5e363b421",
            "nonce" : "0x0102030405060708",
            "number" : "0x00",
            "parentHash" : "0x0000000000000000000000000000000000000000000000000000000000000000",
            "receiptTrie" : "0x56e81f171bcc55a6ff8345e692c0f86e5b48e01b996cadc001622fb5e363b421",
            "stateRoot" : "0x20945a29fa82e696c437cbe438c988867b41418e4710d8d432daf44369ccb2ba",
            "timestamp" : "0x03b6",
            "transactionsTrie" : "0x56e81f171bcc55a6ff8345e692c0f86e5b48e01b996cadc001622fb5e363b421",
            "uncleHash" : "0x1dcc4de8dec75d7aab85b567b6ccd41ad312451b948a7413f0a142fd40d49347"
        },
        "genesisRLP" : "0xf901fbf901f6a00000000000000000000000000000000000000000000000000000000000000000a01dcc4de8dec75d7aab85b567b6ccd41ad312451b948a7413f0a142fd40d49347942adc25665018aa1fe0e6bc666dac8fc2697ff9baa020945a29fa82e696c437cbe438c988867b41418e4710d8d432daf44369ccb2baa056e81f171bcc55a6ff8345e692c0f86e5b48e01b996cadc001622fb5e363b421a056e81f171bcc55a6ff8345e692c0f86e5b48e01b996cadc001622fb5e363b421b9010000000000000000000000000000000000000000000000000000000000000000000000000000000000000000000000000000000000000000000000000000000000000000000000000000000000000000000000000000000000000000000000000000000000000000000000000000000000000000000000000000000000000000000000000000000000000000000000000000000000000000000000000000000000000000000000000000000000000000000000000000000000000000000000000000000000000000000000000000000000000000000000000000000000000000000000000000000000000000000000000000000000000000000000000000000000830200008084b2d05e00808203b642a056e81f171bcc55a6ff8345e692c0f86e5b48e01b996cadc001622fb5e363b421880102030405060708c0c0",
        "lastblockhash" : "0x70d9b03e258a519a4f55de523fb19ce281b796f42f174290066b424359e5ef21",
        "network" : "ConstantinopleFix",
        "postState" : {
            "0x1000000000000000000000000000000000000000" : {
                "balance" : "0x0de0b6b3a7640001",
                "code" : "0x60406000604060003460003563017d7840f26000555a600155",
                "nonce" : "0x00",
                "storage" : {
                    "0x00" : "0x01",
                    "0x01" : "0x01c74147"
                }
            },
            "0x1000000000000000000000000000000000000001" : {
                "balance" : "0x02540be400",
                "code" : "0x6040600060406000731000000000000000000000000000000000000002620f4240fa",
                "nonce" : "0x00",
                "storage" : {
                }
            },
            "0x1000000000000000000000000000000000000002" : {
                "balance" : "0x02540be400",
                "code" : "0x604060006040600060007310000000000000000000000000000000000000016207a120f2",
                "nonce" : "0x00",
                "storage" : {
                }
            },
            "0x2000000000000000000000000000000000000001" : {
                "balance" : "0x02540be400",
                "code" : "0x6040600060406000732000000000000000000000000000000000000002620f4240fa",
                "nonce" : "0x00",
                "storage" : {
                }
            },
            "0x2000000000000000000000000000000000000002" : {
                "balance" : "0x02540be400",
                "code" : "0x604060006040600060017320000000000000000000000000000000000000016207a120f2",
                "nonce" : "0x00",
                "storage" : {
                }
            },
            "0x2adc25665018aa1fe0e6bc666dac8fc2697ff9ba" : {
                "balance" : "0x1bc16d674ecad05c",
                "code" : "0x",
                "nonce" : "0x00",
                "storage" : {
                }
            },
            "0xa94f5374fce5edbc8e2a8697c15331677e6ebf0b" : {
                "balance" : "0x0de0b6b3a7612fa3",
                "code" : "0x",
                "nonce" : "0x01",
                "storage" : {
                }
            }
        },
        "pre" : {
            "0x1000000000000000000000000000000000000000" : {
                "balance" : "0x0de0b6b3a7640000",
                "code" : "0x60406000604060003460003563017d7840f26000555a600155",
                "nonce" : "0x00",
                "storage" : {
                }
            },
            "0x1000000000000000000000000000000000000001" : {
                "balance" : "0x02540be400",
                "code" : "0x6040600060406000731000000000000000000000000000000000000002620f4240fa",
                "nonce" : "0x00",
                "storage" : {
                }
            },
            "0x1000000000000000000000000000000000000002" : {
                "balance" : "0x02540be400",
                "code" : "0x604060006040600060007310000000000000000000000000000000000000016207a120f2",
                "nonce" : "0x00",
                "storage" : {
                }
            },
            "0x2000000000000000000000000000000000000001" : {
                "balance" : "0x02540be400",
                "code" : "0x6040600060406000732000000000000000000000000000000000000002620f4240fa",
                "nonce" : "0x00",
                "storage" : {
                }
            },
            "0x2000000000000000000000000000000000000002" : {
                "balance" : "0x02540be400",
                "code" : "0x604060006040600060017320000000000000000000000000000000000000016207a120f2",
                "nonce" : "0x00",
                "storage" : {
                }
            },
            "0xa94f5374fce5edbc8e2a8697c15331677e6ebf0b" : {
                "balance" : "0x0de0b6b3a7640000",
                "code" : "0x",
                "nonce" : "0x00",
                "storage" : {
                }
            }
        },
        "sealEngine" : "NoProof"
    }
}