{
    "static_Call50000_ecrec_d1g0v0_Byzantium" : {
        "_info" : {
            "comment" : "",
            "filledwith" : "testeth 1.7.0-alpha.1-20+commit.782a7283",
            "lllcversion" : "Version: 0.5.0-develop.2018.11.9+commit.9709dfe0.Linux.g++",
            "source" : "src/BlockchainTestsFiller/GeneralStateTests/stStaticCall/static_Call50000_ecrec_d1g0v0Filler.json",
            "sourceHash" : "78ec8cb7e5c24f6c6024ed7535eb1866fa8a062efb28c0235cbdf1bb8beeedb1"
        },
        "blocks" : [
            {
                "blockHeader" : {
                    "bloom" : "0x00000000000000000000000000000000000000000000000000000000000000000000000000000000000000000000000000000000000000000000000000000000000000000000000000000000000000000000000000000000000000000000000000000000000000000000000000000000000000000000000000000000000000000000000000000000000000000000000000000000000000000000000000000000000000000000000000000000000000000000000000000000000000000000000000000000000000000000000000000000000000000000000000000000000000000000000000000000000000000000000000000000000000000000000000000000",
                    "coinbase" : "0xb94f5374fce5edbc8e2a8697c15331677e6ebf0b",
                    "difficulty" : "0x020000",
                    "extraData" : "0x",
                    "gasLimit" : "0x05a995c0",
                    "gasUsed" : "0x03d34c8c",
                    "hash" : "0x49a19df96142f13b66f671c020829747541f04ff0475b1401d99fe429bd827e0",
                    "mixHash" : "0x0000000000000000000000000000000000000000000000000000000000000000",
                    "nonce" : "0x0000000000000000",
                    "number" : "0x01",
                    "parentHash" : "0x066fa0cee20462724cf9d689b30866203ed55ceba53159a84610ff7827b6040f",
                    "receiptTrie" : "0xb0f7911e1064afa2e9081da8cd263424aee6a96d996211ebfd304759fef5bce5",
                    "stateRoot" : "0x3824444b30cc22954ac5e3f8537a185719882ded4767ab797fefbfd99e45f5e7",
                    "timestamp" : "0x03e8",
                    "transactionsTrie" : "0xe89a685efc845f5b4f0cde26ecdcf64efb883e0536f562e2d6f2eae8e2720960",
                    "uncleHash" : "0x1dcc4de8dec75d7aab85b567b6ccd41ad312451b948a7413f0a142fd40d49347"
                },
                "rlp" : "0xf90283f901faa0066fa0cee20462724cf9d689b30866203ed55ceba53159a84610ff7827b6040fa01dcc4de8dec75d7aab85b567b6ccd41ad312451b948a7413f0a142fd40d4934794b94f5374fce5edbc8e2a8697c15331677e6ebf0ba03824444b30cc22954ac5e3f8537a185719882ded4767ab797fefbfd99e45f5e7a0e89a685efc845f5b4f0cde26ecdcf64efb883e0536f562e2d6f2eae8e2720960a0b0f7911e1064afa2e9081da8cd263424aee6a96d996211ebfd304759fef5bce5b901000000000000000000000000000000000000000000000000000000000000000000000000000000000000000000000000000000000000000000000000000000000000000000000000000000000000000000000000000000000000000000000000000000000000000000000000000000000000000000000000000000000000000000000000000000000000000000000000000000000000000000000000000000000000000000000000000000000000000000000000000000000000000000000000000000000000000000000000000000000000000000000000000000000000000000000000000000000000000000000000000000000000000000000000000000000083020000018405a995c08403d34c8c8203e880a00000000000000000000000000000000000000000000000000000000000000000880000000000000000f883f88180018405a1f4a09410000000000000000000000000000000000000000aa0000000000000000000000000cccf5374fce5edbc8e2a8697c15331677e6ebf0b1ca0bd0b091091065c41dc1ecca59ac63d5d86c30c8e3939971541b2319c4b29fce9a061d3478f16c32cfbd917641ff8794abe69b1b37089ddb12441809a27d55725bdc0",
                "transactions" : [
                    {
                        "data" : "0x000000000000000000000000cccf5374fce5edbc8e2a8697c15331677e6ebf0b",
                        "gasLimit" : "0x05a1f4a0",
                        "gasPrice" : "0x01",
                        "nonce" : "0x00",
                        "r" : "0xbd0b091091065c41dc1ecca59ac63d5d86c30c8e3939971541b2319c4b29fce9",
                        "s" : "0x61d3478f16c32cfbd917641ff8794abe69b1b37089ddb12441809a27d55725bd",
                        "to" : "0x1000000000000000000000000000000000000000",
                        "v" : "0x1c",
                        "value" : "0x0a"
                    }
                ],
                "uncleHeaders" : [
                ]
            }
        ],
        "genesisBlockHeader" : {
            "bloom" : "0x00000000000000000000000000000000000000000000000000000000000000000000000000000000000000000000000000000000000000000000000000000000000000000000000000000000000000000000000000000000000000000000000000000000000000000000000000000000000000000000000000000000000000000000000000000000000000000000000000000000000000000000000000000000000000000000000000000000000000000000000000000000000000000000000000000000000000000000000000000000000000000000000000000000000000000000000000000000000000000000000000000000000000000000000000000000",
            "coinbase" : "0xb94f5374fce5edbc8e2a8697c15331677e6ebf0b",
            "difficulty" : "0x020000",
            "extraData" : "0x42",
            "gasLimit" : "0x05a995c0",
            "gasUsed" : "0x00",
            "hash" : "0x066fa0cee20462724cf9d689b30866203ed55ceba53159a84610ff7827b6040f",
            "mixHash" : "0x56e81f171bcc55a6ff8345e692c0f86e5b48e01b996cadc001622fb5e363b421",
            "nonce" : "0x0102030405060708",
            "number" : "0x00",
            "parentHash" : "0x0000000000000000000000000000000000000000000000000000000000000000",
            "receiptTrie" : "0x56e81f171bcc55a6ff8345e692c0f86e5b48e01b996cadc001622fb5e363b421",
            "stateRoot" : "0x51afecf5efef23141e7e22fcb30d724b596c82b12d5c814cbf61e98818ecc88f",
            "timestamp" : "0x03b6",
            "transactionsTrie" : "0x56e81f171bcc55a6ff8345e692c0f86e5b48e01b996cadc001622fb5e363b421",
            "uncleHash" : "0x1dcc4de8dec75d7aab85b567b6ccd41ad312451b948a7413f0a142fd40d49347"
        },
        "genesisRLP" : "0xf901fbf901f6a00000000000000000000000000000000000000000000000000000000000000000a01dcc4de8dec75d7aab85b567b6ccd41ad312451b948a7413f0a142fd40d4934794b94f5374fce5edbc8e2a8697c15331677e6ebf0ba051afecf5efef23141e7e22fcb30d724b596c82b12d5c814cbf61e98818ecc88fa056e81f171bcc55a6ff8345e692c0f86e5b48e01b996cadc001622fb5e363b421a056e81f171bcc55a6ff8345e692c0f86e5b48e01b996cadc001622fb5e363b421b901000000000000000000000000000000000000000000000000000000000000000000000000000000000000000000000000000000000000000000000000000000000000000000000000000000000000000000000000000000000000000000000000000000000000000000000000000000000000000000000000000000000000000000000000000000000000000000000000000000000000000000000000000000000000000000000000000000000000000000000000000000000000000000000000000000000000000000000000000000000000000000000000000000000000000000000000000000000000000000000000000000000000000000000000000000000083020000808405a995c0808203b642a056e81f171bcc55a6ff8345e692c0f86e5b48e01b996cadc001622fb5e363b421880102030405060708c0c0",
        "lastblockhash" : "0x49a19df96142f13b66f671c020829747541f04ff0475b1401d99fe429bd827e0",
        "network" : "Byzantium",
        "postState" : {
            "0x1000000000000000000000000000000000000000" : {
                "balance" : "0x00",
                "code" : "0x6000600060006000346000355af16000555a600155",
                "nonce" : "0x00",
                "storage" : {
                    "0x00" : "0x01",
                    "0x01" : "0x01cef637"
                }
            },
            "0xa94f5374fce5edbc8e2a8697c15331677e6ebf0b" : {
                "balance" : "0xfffffffffffffffffffffffffc2cb369",
                "code" : "0x",
                "nonce" : "0x01",
                "storage" : {
                }
            },
            "0xb94f5374fce5edbc8e2a8697c15331677e6ebf0b" : {
                "balance" : "0x29a2241af9ff4c8c",
                "code" : "0x",
                "nonce" : "0x00",
                "storage" : {
                }
            },
            "0xbbbf5374fce5edbc8e2a8697c15331677e6ebf0b" : {
                "balance" : "0xffffffffffffffffffffffffffffffff",
                "code" : "0x5b61c3506080511015602a576000600061c350600060016101f4fa6000556001608051016080526000565b608051600155",
                "nonce" : "0x00",
                "storage" : {
                }
            },
            "0xcccf5374fce5edbc8e2a8697c15331677e6ebf0b" : {
                "balance" : "0x0100000000000000000000000000000009",
                "code" : "0x5b61c3506080511015602a576000600061c350600060016101f4fa6000526001608051016080526000565b608051602052",
                "nonce" : "0x00",
                "storage" : {
                }
            }
        },
        "pre" : {
            "0x1000000000000000000000000000000000000000" : {
                "balance" : "0x00",
                "code" : "0x6000600060006000346000355af16000555a600155",
                "nonce" : "0x00",
                "storage" : {
                }
            },
            "0xa94f5374fce5edbc8e2a8697c15331677e6ebf0b" : {
                "balance" : "0xffffffffffffffffffffffffffffffff",
                "code" : "0x",
                "nonce" : "0x00",
                "storage" : {
                }
            },
            "0xbbbf5374fce5edbc8e2a8697c15331677e6ebf0b" : {
                "balance" : "0xffffffffffffffffffffffffffffffff",
                "code" : "0x5b61c3506080511015602a576000600061c350600060016101f4fa6000556001608051016080526000565b608051600155",
                "nonce" : "0x00",
                "storage" : {
                }
            },
            "0xcccf5374fce5edbc8e2a8697c15331677e6ebf0b" : {
                "balance" : "0xffffffffffffffffffffffffffffffff",
                "code" : "0x5b61c3506080511015602a576000600061c350600060016101f4fa6000526001608051016080526000565b608051602052",
                "nonce" : "0x00",
                "storage" : {
                }
            }
        },
        "sealEngine" : "NoProof"
    },
    "static_Call50000_ecrec_d1g0v0_Constantinople" : {
        "_info" : {
            "comment" : "",
            "filledwith" : "testeth 1.7.0-alpha.1-20+commit.782a7283",
            "lllcversion" : "Version: 0.5.0-develop.2018.11.9+commit.9709dfe0.Linux.g++",
            "source" : "src/BlockchainTestsFiller/GeneralStateTests/stStaticCall/static_Call50000_ecrec_d1g0v0Filler.json",
            "sourceHash" : "78ec8cb7e5c24f6c6024ed7535eb1866fa8a062efb28c0235cbdf1bb8beeedb1"
        },
        "blocks" : [
            {
                "blockHeader" : {
                    "bloom" : "0x00000000000000000000000000000000000000000000000000000000000000000000000000000000000000000000000000000000000000000000000000000000000000000000000000000000000000000000000000000000000000000000000000000000000000000000000000000000000000000000000000000000000000000000000000000000000000000000000000000000000000000000000000000000000000000000000000000000000000000000000000000000000000000000000000000000000000000000000000000000000000000000000000000000000000000000000000000000000000000000000000000000000000000000000000000000",
                    "coinbase" : "0xb94f5374fce5edbc8e2a8697c15331677e6ebf0b",
                    "difficulty" : "0x020000",
                    "extraData" : "0x",
                    "gasLimit" : "0x05a995c0",
                    "gasUsed" : "0x03d34c8c",
                    "hash" : "0x5625ba995eb852f0fdf3256d1eb4ed5bf1358e8e823cbf5e39c670e3cf96e3ee",
                    "mixHash" : "0x0000000000000000000000000000000000000000000000000000000000000000",
                    "nonce" : "0x0000000000000000",
                    "number" : "0x01",
                    "parentHash" : "0x066fa0cee20462724cf9d689b30866203ed55ceba53159a84610ff7827b6040f",
                    "receiptTrie" : "0xb0f7911e1064afa2e9081da8cd263424aee6a96d996211ebfd304759fef5bce5",
                    "stateRoot" : "0x612ec65a8b3f824e9d152c9a0e1fa8adc143d8c0b51139a211d3ecc148e26986",
                    "timestamp" : "0x03e8",
                    "transactionsTrie" : "0xe89a685efc845f5b4f0cde26ecdcf64efb883e0536f562e2d6f2eae8e2720960",
                    "uncleHash" : "0x1dcc4de8dec75d7aab85b567b6ccd41ad312451b948a7413f0a142fd40d49347"
                },
                "rlp" : "0xf90283f901faa0066fa0cee20462724cf9d689b30866203ed55ceba53159a84610ff7827b6040fa01dcc4de8dec75d7aab85b567b6ccd41ad312451b948a7413f0a142fd40d4934794b94f5374fce5edbc8e2a8697c15331677e6ebf0ba0612ec65a8b3f824e9d152c9a0e1fa8adc143d8c0b51139a211d3ecc148e26986a0e89a685efc845f5b4f0cde26ecdcf64efb883e0536f562e2d6f2eae8e2720960a0b0f7911e1064afa2e9081da8cd263424aee6a96d996211ebfd304759fef5bce5b901000000000000000000000000000000000000000000000000000000000000000000000000000000000000000000000000000000000000000000000000000000000000000000000000000000000000000000000000000000000000000000000000000000000000000000000000000000000000000000000000000000000000000000000000000000000000000000000000000000000000000000000000000000000000000000000000000000000000000000000000000000000000000000000000000000000000000000000000000000000000000000000000000000000000000000000000000000000000000000000000000000000000000000000000000000000083020000018405a995c08403d34c8c8203e880a00000000000000000000000000000000000000000000000000000000000000000880000000000000000f883f88180018405a1f4a09410000000000000000000000000000000000000000aa0000000000000000000000000cccf5374fce5edbc8e2a8697c15331677e6ebf0b1ca0bd0b091091065c41dc1ecca59ac63d5d86c30c8e3939971541b2319c4b29fce9a061d3478f16c32cfbd917641ff8794abe69b1b37089ddb12441809a27d55725bdc0",
                "transactions" : [
                    {
                        "data" : "0x000000000000000000000000cccf5374fce5edbc8e2a8697c15331677e6ebf0b",
                        "gasLimit" : "0x05a1f4a0",
                        "gasPrice" : "0x01",
                        "nonce" : "0x00",
                        "r" : "0xbd0b091091065c41dc1ecca59ac63d5d86c30c8e3939971541b2319c4b29fce9",
                        "s" : "0x61d3478f16c32cfbd917641ff8794abe69b1b37089ddb12441809a27d55725bd",
                        "to" : "0x1000000000000000000000000000000000000000",
                        "v" : "0x1c",
                        "value" : "0x0a"
                    }
                ],
                "uncleHeaders" : [
                ]
            }
        ],
        "genesisBlockHeader" : {
            "bloom" : "0x00000000000000000000000000000000000000000000000000000000000000000000000000000000000000000000000000000000000000000000000000000000000000000000000000000000000000000000000000000000000000000000000000000000000000000000000000000000000000000000000000000000000000000000000000000000000000000000000000000000000000000000000000000000000000000000000000000000000000000000000000000000000000000000000000000000000000000000000000000000000000000000000000000000000000000000000000000000000000000000000000000000000000000000000000000000",
            "coinbase" : "0xb94f5374fce5edbc8e2a8697c15331677e6ebf0b",
            "difficulty" : "0x020000",
            "extraData" : "0x42",
            "gasLimit" : "0x05a995c0",
            "gasUsed" : "0x00",
            "hash" : "0x066fa0cee20462724cf9d689b30866203ed55ceba53159a84610ff7827b6040f",
            "mixHash" : "0x56e81f171bcc55a6ff8345e692c0f86e5b48e01b996cadc001622fb5e363b421",
            "nonce" : "0x0102030405060708",
            "number" : "0x00",
            "parentHash" : "0x0000000000000000000000000000000000000000000000000000000000000000",
            "receiptTrie" : "0x56e81f171bcc55a6ff8345e692c0f86e5b48e01b996cadc001622fb5e363b421",
            "stateRoot" : "0x51afecf5efef23141e7e22fcb30d724b596c82b12d5c814cbf61e98818ecc88f",
            "timestamp" : "0x03b6",
            "transactionsTrie" : "0x56e81f171bcc55a6ff8345e692c0f86e5b48e01b996cadc001622fb5e363b421",
            "uncleHash" : "0x1dcc4de8dec75d7aab85b567b6ccd41ad312451b948a7413f0a142fd40d49347"
        },
        "genesisRLP" : "0xf901fbf901f6a00000000000000000000000000000000000000000000000000000000000000000a01dcc4de8dec75d7aab85b567b6ccd41ad312451b948a7413f0a142fd40d4934794b94f5374fce5edbc8e2a8697c15331677e6ebf0ba051afecf5efef23141e7e22fcb30d724b596c82b12d5c814cbf61e98818ecc88fa056e81f171bcc55a6ff8345e692c0f86e5b48e01b996cadc001622fb5e363b421a056e81f171bcc55a6ff8345e692c0f86e5b48e01b996cadc001622fb5e363b421b901000000000000000000000000000000000000000000000000000000000000000000000000000000000000000000000000000000000000000000000000000000000000000000000000000000000000000000000000000000000000000000000000000000000000000000000000000000000000000000000000000000000000000000000000000000000000000000000000000000000000000000000000000000000000000000000000000000000000000000000000000000000000000000000000000000000000000000000000000000000000000000000000000000000000000000000000000000000000000000000000000000000000000000000000000000000083020000808405a995c0808203b642a056e81f171bcc55a6ff8345e692c0f86e5b48e01b996cadc001622fb5e363b421880102030405060708c0c0",
        "lastblockhash" : "0x5625ba995eb852f0fdf3256d1eb4ed5bf1358e8e823cbf5e39c670e3cf96e3ee",
        "network" : "Constantinople",
        "postState" : {
            "0x1000000000000000000000000000000000000000" : {
                "balance" : "0x00",
                "code" : "0x6000600060006000346000355af16000555a600155",
                "nonce" : "0x00",
                "storage" : {
                    "0x00" : "0x01",
                    "0x01" : "0x01cef637"
                }
            },
            "0xa94f5374fce5edbc8e2a8697c15331677e6ebf0b" : {
                "balance" : "0xfffffffffffffffffffffffffc2cb369",
                "code" : "0x",
                "nonce" : "0x01",
                "storage" : {
                }
            },
            "0xb94f5374fce5edbc8e2a8697c15331677e6ebf0b" : {
                "balance" : "0x1bc16d67529b4c8c",
                "code" : "0x",
                "nonce" : "0x00",
                "storage" : {
                }
            },
            "0xbbbf5374fce5edbc8e2a8697c15331677e6ebf0b" : {
                "balance" : "0xffffffffffffffffffffffffffffffff",
                "code" : "0x5b61c3506080511015602a576000600061c350600060016101f4fa6000556001608051016080526000565b608051600155",
                "nonce" : "0x00",
                "storage" : {
                }
            },
            "0xcccf5374fce5edbc8e2a8697c15331677e6ebf0b" : {
                "balance" : "0x0100000000000000000000000000000009",
                "code" : "0x5b61c3506080511015602a576000600061c350600060016101f4fa6000526001608051016080526000565b608051602052",
                "nonce" : "0x00",
                "storage" : {
                }
            }
        },
        "pre" : {
            "0x1000000000000000000000000000000000000000" : {
                "balance" : "0x00",
                "code" : "0x6000600060006000346000355af16000555a600155",
                "nonce" : "0x00",
                "storage" : {
                }
            },
            "0xa94f5374fce5edbc8e2a8697c15331677e6ebf0b" : {
                "balance" : "0xffffffffffffffffffffffffffffffff",
                "code" : "0x",
                "nonce" : "0x00",
                "storage" : {
                }
            },
            "0xbbbf5374fce5edbc8e2a8697c15331677e6ebf0b" : {
                "balance" : "0xffffffffffffffffffffffffffffffff",
                "code" : "0x5b61c3506080511015602a576000600061c350600060016101f4fa6000556001608051016080526000565b608051600155",
                "nonce" : "0x00",
                "storage" : {
                }
            },
            "0xcccf5374fce5edbc8e2a8697c15331677e6ebf0b" : {
                "balance" : "0xffffffffffffffffffffffffffffffff",
                "code" : "0x5b61c3506080511015602a576000600061c350600060016101f4fa6000526001608051016080526000565b608051602052",
                "nonce" : "0x00",
                "storage" : {
                }
            }
        },
        "sealEngine" : "NoProof"
    },
    "static_Call50000_ecrec_d1g0v0_ConstantinopleFix" : {
        "_info" : {
            "comment" : "",
            "filledwith" : "testeth 1.7.0-alpha.1-20+commit.782a7283",
            "lllcversion" : "Version: 0.5.0-develop.2018.11.9+commit.9709dfe0.Linux.g++",
            "source" : "src/BlockchainTestsFiller/GeneralStateTests/stStaticCall/static_Call50000_ecrec_d1g0v0Filler.json",
            "sourceHash" : "78ec8cb7e5c24f6c6024ed7535eb1866fa8a062efb28c0235cbdf1bb8beeedb1"
        },
        "blocks" : [
            {
                "blockHeader" : {
                    "bloom" : "0x00000000000000000000000000000000000000000000000000000000000000000000000000000000000000000000000000000000000000000000000000000000000000000000000000000000000000000000000000000000000000000000000000000000000000000000000000000000000000000000000000000000000000000000000000000000000000000000000000000000000000000000000000000000000000000000000000000000000000000000000000000000000000000000000000000000000000000000000000000000000000000000000000000000000000000000000000000000000000000000000000000000000000000000000000000000",
                    "coinbase" : "0xb94f5374fce5edbc8e2a8697c15331677e6ebf0b",
                    "difficulty" : "0x020000",
                    "extraData" : "0x",
                    "gasLimit" : "0x05a995c0",
                    "gasUsed" : "0x03d34c8c",
                    "hash" : "0x5625ba995eb852f0fdf3256d1eb4ed5bf1358e8e823cbf5e39c670e3cf96e3ee",
                    "mixHash" : "0x0000000000000000000000000000000000000000000000000000000000000000",
                    "nonce" : "0x0000000000000000",
                    "number" : "0x01",
                    "parentHash" : "0x066fa0cee20462724cf9d689b30866203ed55ceba53159a84610ff7827b6040f",
                    "receiptTrie" : "0xb0f7911e1064afa2e9081da8cd263424aee6a96d996211ebfd304759fef5bce5",
                    "stateRoot" : "0x612ec65a8b3f824e9d152c9a0e1fa8adc143d8c0b51139a211d3ecc148e26986",
                    "timestamp" : "0x03e8",
                    "transactionsTrie" : "0xe89a685efc845f5b4f0cde26ecdcf64efb883e0536f562e2d6f2eae8e2720960",
                    "uncleHash" : "0x1dcc4de8dec75d7aab85b567b6ccd41ad312451b948a7413f0a142fd40d49347"
                },
                "rlp" : "0xf90283f901faa0066fa0cee20462724cf9d689b30866203ed55ceba53159a84610ff7827b6040fa01dcc4de8dec75d7aab85b567b6ccd41ad312451b948a7413f0a142fd40d4934794b94f5374fce5edbc8e2a8697c15331677e6ebf0ba0612ec65a8b3f824e9d152c9a0e1fa8adc143d8c0b51139a211d3ecc148e26986a0e89a685efc845f5b4f0cde26ecdcf64efb883e0536f562e2d6f2eae8e2720960a0b0f7911e1064afa2e9081da8cd263424aee6a96d996211ebfd304759fef5bce5b901000000000000000000000000000000000000000000000000000000000000000000000000000000000000000000000000000000000000000000000000000000000000000000000000000000000000000000000000000000000000000000000000000000000000000000000000000000000000000000000000000000000000000000000000000000000000000000000000000000000000000000000000000000000000000000000000000000000000000000000000000000000000000000000000000000000000000000000000000000000000000000000000000000000000000000000000000000000000000000000000000000000000000000000000000000000083020000018405a995c08403d34c8c8203e880a00000000000000000000000000000000000000000000000000000000000000000880000000000000000f883f88180018405a1f4a09410000000000000000000000000000000000000000aa0000000000000000000000000cccf5374fce5edbc8e2a8697c15331677e6ebf0b1ca0bd0b091091065c41dc1ecca59ac63d5d86c30c8e3939971541b2319c4b29fce9a061d3478f16c32cfbd917641ff8794abe69b1b37089ddb12441809a27d55725bdc0",
                "transactions" : [
                    {
                        "data" : "0x000000000000000000000000cccf5374fce5edbc8e2a8697c15331677e6ebf0b",
                        "gasLimit" : "0x05a1f4a0",
                        "gasPrice" : "0x01",
                        "nonce" : "0x00",
                        "r" : "0xbd0b091091065c41dc1ecca59ac63d5d86c30c8e3939971541b2319c4b29fce9",
                        "s" : "0x61d3478f16c32cfbd917641ff8794abe69b1b37089ddb12441809a27d55725bd",
                        "to" : "0x1000000000000000000000000000000000000000",
                        "v" : "0x1c",
                        "value" : "0x0a"
                    }
                ],
                "uncleHeaders" : [
                ]
            }
        ],
        "genesisBlockHeader" : {
            "bloom" : "0x00000000000000000000000000000000000000000000000000000000000000000000000000000000000000000000000000000000000000000000000000000000000000000000000000000000000000000000000000000000000000000000000000000000000000000000000000000000000000000000000000000000000000000000000000000000000000000000000000000000000000000000000000000000000000000000000000000000000000000000000000000000000000000000000000000000000000000000000000000000000000000000000000000000000000000000000000000000000000000000000000000000000000000000000000000000",
            "coinbase" : "0xb94f5374fce5edbc8e2a8697c15331677e6ebf0b",
            "difficulty" : "0x020000",
            "extraData" : "0x42",
            "gasLimit" : "0x05a995c0",
            "gasUsed" : "0x00",
            "hash" : "0x066fa0cee20462724cf9d689b30866203ed55ceba53159a84610ff7827b6040f",
            "mixHash" : "0x56e81f171bcc55a6ff8345e692c0f86e5b48e01b996cadc001622fb5e363b421",
            "nonce" : "0x0102030405060708",
            "number" : "0x00",
            "parentHash" : "0x0000000000000000000000000000000000000000000000000000000000000000",
            "receiptTrie" : "0x56e81f171bcc55a6ff8345e692c0f86e5b48e01b996cadc001622fb5e363b421",
            "stateRoot" : "0x51afecf5efef23141e7e22fcb30d724b596c82b12d5c814cbf61e98818ecc88f",
            "timestamp" : "0x03b6",
            "transactionsTrie" : "0x56e81f171bcc55a6ff8345e692c0f86e5b48e01b996cadc001622fb5e363b421",
            "uncleHash" : "0x1dcc4de8dec75d7aab85b567b6ccd41ad312451b948a7413f0a142fd40d49347"
        },
        "genesisRLP" : "0xf901fbf901f6a00000000000000000000000000000000000000000000000000000000000000000a01dcc4de8dec75d7aab85b567b6ccd41ad312451b948a7413f0a142fd40d4934794b94f5374fce5edbc8e2a8697c15331677e6ebf0ba051afecf5efef23141e7e22fcb30d724b596c82b12d5c814cbf61e98818ecc88fa056e81f171bcc55a6ff8345e692c0f86e5b48e01b996cadc001622fb5e363b421a056e81f171bcc55a6ff8345e692c0f86e5b48e01b996cadc001622fb5e363b421b901000000000000000000000000000000000000000000000000000000000000000000000000000000000000000000000000000000000000000000000000000000000000000000000000000000000000000000000000000000000000000000000000000000000000000000000000000000000000000000000000000000000000000000000000000000000000000000000000000000000000000000000000000000000000000000000000000000000000000000000000000000000000000000000000000000000000000000000000000000000000000000000000000000000000000000000000000000000000000000000000000000000000000000000000000000000083020000808405a995c0808203b642a056e81f171bcc55a6ff8345e692c0f86e5b48e01b996cadc001622fb5e363b421880102030405060708c0c0",
        "lastblockhash" : "0x5625ba995eb852f0fdf3256d1eb4ed5bf1358e8e823cbf5e39c670e3cf96e3ee",
        "network" : "ConstantinopleFix",
        "postState" : {
            "0x1000000000000000000000000000000000000000" : {
                "balance" : "0x00",
                "code" : "0x6000600060006000346000355af16000555a600155",
                "nonce" : "0x00",
                "storage" : {
                    "0x00" : "0x01",
                    "0x01" : "0x01cef637"
                }
            },
            "0xa94f5374fce5edbc8e2a8697c15331677e6ebf0b" : {
                "balance" : "0xfffffffffffffffffffffffffc2cb369",
                "code" : "0x",
                "nonce" : "0x01",
                "storage" : {
                }
            },
            "0xb94f5374fce5edbc8e2a8697c15331677e6ebf0b" : {
                "balance" : "0x1bc16d67529b4c8c",
                "code" : "0x",
                "nonce" : "0x00",
                "storage" : {
                }
            },
            "0xbbbf5374fce5edbc8e2a8697c15331677e6ebf0b" : {
                "balance" : "0xffffffffffffffffffffffffffffffff",
                "code" : "0x5b61c3506080511015602a576000600061c350600060016101f4fa6000556001608051016080526000565b608051600155",
                "nonce" : "0x00",
                "storage" : {
                }
            },
            "0xcccf5374fce5edbc8e2a8697c15331677e6ebf0b" : {
                "balance" : "0x0100000000000000000000000000000009",
                "code" : "0x5b61c3506080511015602a576000600061c350600060016101f4fa6000526001608051016080526000565b608051602052",
                "nonce" : "0x00",
                "storage" : {
                }
            }
        },
        "pre" : {
            "0x1000000000000000000000000000000000000000" : {
                "balance" : "0x00",
                "code" : "0x6000600060006000346000355af16000555a600155",
                "nonce" : "0x00",
                "storage" : {
                }
            },
            "0xa94f5374fce5edbc8e2a8697c15331677e6ebf0b" : {
                "balance" : "0xffffffffffffffffffffffffffffffff",
                "code" : "0x",
                "nonce" : "0x00",
                "storage" : {
                }
            },
            "0xbbbf5374fce5edbc8e2a8697c15331677e6ebf0b" : {
                "balance" : "0xffffffffffffffffffffffffffffffff",
                "code" : "0x5b61c3506080511015602a576000600061c350600060016101f4fa6000556001608051016080526000565b608051600155",
                "nonce" : "0x00",
                "storage" : {
                }
            },
            "0xcccf5374fce5edbc8e2a8697c15331677e6ebf0b" : {
                "balance" : "0xffffffffffffffffffffffffffffffff",
                "code" : "0x5b61c3506080511015602a576000600061c350600060016101f4fa6000526001608051016080526000565b608051602052",
                "nonce" : "0x00",
                "storage" : {
                }
            }
        },
        "sealEngine" : "NoProof"
    }
}