{
    "static_callOutput3partial_d0g0v0_Byzantium" : {
        "_info" : {
            "comment" : "",
            "filledwith" : "testeth 1.7.0-alpha.1-20+commit.782a7283",
            "lllcversion" : "Version: 0.5.0-develop.2018.11.9+commit.9709dfe0.Linux.g++",
            "source" : "src/BlockchainTestsFiller/GeneralStateTests/stStaticCall/static_callOutput3partial_d0g0v0Filler.json",
            "sourceHash" : "642ad5197fd10f259c3e4db0ce9a880f4e65e789942ab6617d6f37c88e554306"
        },
        "blocks" : [
            {
                "blockHeader" : {
                    "bloom" : "0x00000000000000000000000000000000000000000000000000000000000000000000000000000000000000000000000000000000000000000000000000000000000000000000000000000000000000000000000000000000000000000000000000000000000000000000000000000000000000000000000000000000000000000000000000000000000000000000000000000000000000000000000000000000000000000000000000000000000000000000000000000000000000000000000000000000000000000000000000000000000000000000000000000000000000000000000000000000000000000000000000000000000000000000000000000000",
                    "coinbase" : "0x2adc25665018aa1fe0e6bc666dac8fc2697ff9ba",
                    "difficulty" : "0x020000",
                    "extraData" : "0x",
                    "gasLimit" : "0x0f4240",
                    "gasUsed" : "0x01665d",
                    "hash" : "0xd1d55c1bed2c96bf21e7e4a6402747692153d929873ac31a491d0dc1e19e98f2",
                    "mixHash" : "0x0000000000000000000000000000000000000000000000000000000000000000",
                    "nonce" : "0x0000000000000000",
                    "number" : "0x01",
                    "parentHash" : "0xcafc263eb93da04e7281361ca45d38497e8fbc79c2880d86f444a6aeadf80672",
                    "receiptTrie" : "0x835e171b6c8add0df6184b14ee2e55bba46f28763729bfcdf37e6119e584a834",
                    "stateRoot" : "0xa58aeb23df7e98e0fc2eee0b36bc48a43295bd37450a827c3c4a232d260af38e",
                    "timestamp" : "0x03e8",
                    "transactionsTrie" : "0x7f85854b8b30dcca56f94318c7332e05eafa1635dafc57e2abe1fac35c7efa8d",
                    "uncleHash" : "0x1dcc4de8dec75d7aab85b567b6ccd41ad312451b948a7413f0a142fd40d49347"
                },
                "rlp" : "0xf90263f901f8a0cafc263eb93da04e7281361ca45d38497e8fbc79c2880d86f444a6aeadf80672a01dcc4de8dec75d7aab85b567b6ccd41ad312451b948a7413f0a142fd40d49347942adc25665018aa1fe0e6bc666dac8fc2697ff9baa0a58aeb23df7e98e0fc2eee0b36bc48a43295bd37450a827c3c4a232d260af38ea07f85854b8b30dcca56f94318c7332e05eafa1635dafc57e2abe1fac35c7efa8da0835e171b6c8add0df6184b14ee2e55bba46f28763729bfcdf37e6119e584a834b90100000000000000000000000000000000000000000000000000000000000000000000000000000000000000000000000000000000000000000000000000000000000000000000000000000000000000000000000000000000000000000000000000000000000000000000000000000000000000000000000000000000000000000000000000000000000000000000000000000000000000000000000000000000000000000000000000000000000000000000000000000000000000000000000000000000000000000000000000000000000000000000000000000000000000000000000000000000000000000000000000000000000000000000000000000000008302000001830f42408301665d8203e880a00000000000000000000000000000000000000000000000000000000000000000880000000000000000f865f8638080830f424094095e7baea6a6c7c4c2dfeb977efac326af552d87830186a0801ba0c15d34d194f0b39f15741df45c99593bf0cb642d4ca50088d1f8a289c430c9d4a005478f3b062fccb0c87482a930aa211a8dcfdcc00cafbfbb5b60995fe7b15e7bc0",
                "transactions" : [
                    {
                        "data" : "0x",
                        "gasLimit" : "0x0f4240",
                        "gasPrice" : "0x00",
                        "nonce" : "0x00",
                        "r" : "0xc15d34d194f0b39f15741df45c99593bf0cb642d4ca50088d1f8a289c430c9d4",
                        "s" : "0x05478f3b062fccb0c87482a930aa211a8dcfdcc00cafbfbb5b60995fe7b15e7b",
                        "to" : "0x095e7baea6a6c7c4c2dfeb977efac326af552d87",
                        "v" : "0x1b",
                        "value" : "0x0186a0"
                    }
                ],
                "uncleHeaders" : [
                ]
            }
        ],
        "genesisBlockHeader" : {
            "bloom" : "0x00000000000000000000000000000000000000000000000000000000000000000000000000000000000000000000000000000000000000000000000000000000000000000000000000000000000000000000000000000000000000000000000000000000000000000000000000000000000000000000000000000000000000000000000000000000000000000000000000000000000000000000000000000000000000000000000000000000000000000000000000000000000000000000000000000000000000000000000000000000000000000000000000000000000000000000000000000000000000000000000000000000000000000000000000000000",
            "coinbase" : "0x2adc25665018aa1fe0e6bc666dac8fc2697ff9ba",
            "difficulty" : "0x020000",
            "extraData" : "0x42",
            "gasLimit" : "0x0f4240",
            "gasUsed" : "0x00",
            "hash" : "0xcafc263eb93da04e7281361ca45d38497e8fbc79c2880d86f444a6aeadf80672",
            "mixHash" : "0x56e81f171bcc55a6ff8345e692c0f86e5b48e01b996cadc001622fb5e363b421",
            "nonce" : "0x0102030405060708",
            "number" : "0x00",
            "parentHash" : "0x0000000000000000000000000000000000000000000000000000000000000000",
            "receiptTrie" : "0x56e81f171bcc55a6ff8345e692c0f86e5b48e01b996cadc001622fb5e363b421",
            "stateRoot" : "0x9ac18d07f5b481dbb8224ac100ede1a682166a5b6a4428876163dc9d3e612533",
            "timestamp" : "0x03b6",
            "transactionsTrie" : "0x56e81f171bcc55a6ff8345e692c0f86e5b48e01b996cadc001622fb5e363b421",
            "uncleHash" : "0x1dcc4de8dec75d7aab85b567b6ccd41ad312451b948a7413f0a142fd40d49347"
        },
        "genesisRLP" : "0xf901faf901f5a00000000000000000000000000000000000000000000000000000000000000000a01dcc4de8dec75d7aab85b567b6ccd41ad312451b948a7413f0a142fd40d49347942adc25665018aa1fe0e6bc666dac8fc2697ff9baa09ac18d07f5b481dbb8224ac100ede1a682166a5b6a4428876163dc9d3e612533a056e81f171bcc55a6ff8345e692c0f86e5b48e01b996cadc001622fb5e363b421a056e81f171bcc55a6ff8345e692c0f86e5b48e01b996cadc001622fb5e363b421b90100000000000000000000000000000000000000000000000000000000000000000000000000000000000000000000000000000000000000000000000000000000000000000000000000000000000000000000000000000000000000000000000000000000000000000000000000000000000000000000000000000000000000000000000000000000000000000000000000000000000000000000000000000000000000000000000000000000000000000000000000000000000000000000000000000000000000000000000000000000000000000000000000000000000000000000000000000000000000000000000000000000000000000000000000000000008302000080830f4240808203b642a056e81f171bcc55a6ff8345e692c0f86e5b48e01b996cadc001622fb5e363b421880102030405060708c0c0",
        "lastblockhash" : "0xd1d55c1bed2c96bf21e7e4a6402747692153d929873ac31a491d0dc1e19e98f2",
        "network" : "Byzantium",
        "postState" : {
            "0x095e7baea6a6c7c4c2dfeb977efac326af552d87" : {
                "balance" : "0x0de0b6b3a76586a0",
                "code" : "0x7f5e20a0453cecd065ea59c37ac63e079ee08998b6045136a8ce6635c7912ec0b6600052600a60006000600073aaae7baea6a6c7c4c2dfeb977efac326af552d8761c350fa50600051600055",
                "nonce" : "0x00",
                "storage" : {
                    "0x00" : "0x5e20a0453cecd065ea59c37ac63e079ee08998b6045136a8ce6635c7912ec0b6"
                }
            },
            "0x2adc25665018aa1fe0e6bc666dac8fc2697ff9ba" : {
                "balance" : "0x29a2241af62c0000",
                "code" : "0x",
                "nonce" : "0x00",
                "storage" : {
                }
            },
            "0xa94f5374fce5edbc8e2a8697c15331677e6ebf0b" : {
                "balance" : "0x0de0b6b3a7627960",
                "code" : "0x",
                "nonce" : "0x01",
                "storage" : {
                }
            },
            "0xaaae7baea6a6c7c4c2dfeb977efac326af552d87" : {
                "balance" : "0x0de0b6b3a7640000",
                "code" : "0x6001600101600055",
                "nonce" : "0x00",
                "storage" : {
                }
            }
        },
        "pre" : {
            "0x095e7baea6a6c7c4c2dfeb977efac326af552d87" : {
                "balance" : "0x0de0b6b3a7640000",
                "code" : "0x7f5e20a0453cecd065ea59c37ac63e079ee08998b6045136a8ce6635c7912ec0b6600052600a60006000600073aaae7baea6a6c7c4c2dfeb977efac326af552d8761c350fa50600051600055",
                "nonce" : "0x00",
                "storage" : {
                }
            },
            "0xa94f5374fce5edbc8e2a8697c15331677e6ebf0b" : {
                "balance" : "0x0de0b6b3a7640000",
                "code" : "0x",
                "nonce" : "0x00",
                "storage" : {
                }
            },
            "0xaaae7baea6a6c7c4c2dfeb977efac326af552d87" : {
                "balance" : "0x0de0b6b3a7640000",
                "code" : "0x6001600101600055",
                "nonce" : "0x00",
                "storage" : {
                }
            }
        },
        "sealEngine" : "NoProof"
    },
    "static_callOutput3partial_d0g0v0_Constantinople" : {
        "_info" : {
            "comment" : "",
            "filledwith" : "testeth 1.7.0-alpha.1-20+commit.782a7283",
            "lllcversion" : "Version: 0.5.0-develop.2018.11.9+commit.9709dfe0.Linux.g++",
            "source" : "src/BlockchainTestsFiller/GeneralStateTests/stStaticCall/static_callOutput3partial_d0g0v0Filler.json",
            "sourceHash" : "642ad5197fd10f259c3e4db0ce9a880f4e65e789942ab6617d6f37c88e554306"
        },
        "blocks" : [
            {
                "blockHeader" : {
                    "bloom" : "0x00000000000000000000000000000000000000000000000000000000000000000000000000000000000000000000000000000000000000000000000000000000000000000000000000000000000000000000000000000000000000000000000000000000000000000000000000000000000000000000000000000000000000000000000000000000000000000000000000000000000000000000000000000000000000000000000000000000000000000000000000000000000000000000000000000000000000000000000000000000000000000000000000000000000000000000000000000000000000000000000000000000000000000000000000000000",
                    "coinbase" : "0x2adc25665018aa1fe0e6bc666dac8fc2697ff9ba",
                    "difficulty" : "0x020000",
                    "extraData" : "0x",
                    "gasLimit" : "0x0f4240",
                    "gasUsed" : "0x01665d",
                    "hash" : "0x8f5c139a216ae665e8b1a7054040acd6abe1d4eb6d3f08f7b2a8990d2ea042d5",
                    "mixHash" : "0x0000000000000000000000000000000000000000000000000000000000000000",
                    "nonce" : "0x0000000000000000",
                    "number" : "0x01",
                    "parentHash" : "0xcafc263eb93da04e7281361ca45d38497e8fbc79c2880d86f444a6aeadf80672",
                    "receiptTrie" : "0x835e171b6c8add0df6184b14ee2e55bba46f28763729bfcdf37e6119e584a834",
                    "stateRoot" : "0xbb46bbfca97c7a4b71deff14aab148d5412b5fe21c38b013ed9752d1ad51b6ef",
                    "timestamp" : "0x03e8",
                    "transactionsTrie" : "0x7f85854b8b30dcca56f94318c7332e05eafa1635dafc57e2abe1fac35c7efa8d",
                    "uncleHash" : "0x1dcc4de8dec75d7aab85b567b6ccd41ad312451b948a7413f0a142fd40d49347"
                },
                "rlp" : "0xf90263f901f8a0cafc263eb93da04e7281361ca45d38497e8fbc79c2880d86f444a6aeadf80672a01dcc4de8dec75d7aab85b567b6ccd41ad312451b948a7413f0a142fd40d49347942adc25665018aa1fe0e6bc666dac8fc2697ff9baa0bb46bbfca97c7a4b71deff14aab148d5412b5fe21c38b013ed9752d1ad51b6efa07f85854b8b30dcca56f94318c7332e05eafa1635dafc57e2abe1fac35c7efa8da0835e171b6c8add0df6184b14ee2e55bba46f28763729bfcdf37e6119e584a834b90100000000000000000000000000000000000000000000000000000000000000000000000000000000000000000000000000000000000000000000000000000000000000000000000000000000000000000000000000000000000000000000000000000000000000000000000000000000000000000000000000000000000000000000000000000000000000000000000000000000000000000000000000000000000000000000000000000000000000000000000000000000000000000000000000000000000000000000000000000000000000000000000000000000000000000000000000000000000000000000000000000000000000000000000000000000008302000001830f42408301665d8203e880a00000000000000000000000000000000000000000000000000000000000000000880000000000000000f865f8638080830f424094095e7baea6a6c7c4c2dfeb977efac326af552d87830186a0801ba0c15d34d194f0b39f15741df45c99593bf0cb642d4ca50088d1f8a289c430c9d4a005478f3b062fccb0c87482a930aa211a8dcfdcc00cafbfbb5b60995fe7b15e7bc0",
                "transactions" : [
                    {
                        "data" : "0x",
                        "gasLimit" : "0x0f4240",
                        "gasPrice" : "0x00",
                        "nonce" : "0x00",
                        "r" : "0xc15d34d194f0b39f15741df45c99593bf0cb642d4ca50088d1f8a289c430c9d4",
                        "s" : "0x05478f3b062fccb0c87482a930aa211a8dcfdcc00cafbfbb5b60995fe7b15e7b",
                        "to" : "0x095e7baea6a6c7c4c2dfeb977efac326af552d87",
                        "v" : "0x1b",
                        "value" : "0x0186a0"
                    }
                ],
                "uncleHeaders" : [
                ]
            }
        ],
        "genesisBlockHeader" : {
            "bloom" : "0x00000000000000000000000000000000000000000000000000000000000000000000000000000000000000000000000000000000000000000000000000000000000000000000000000000000000000000000000000000000000000000000000000000000000000000000000000000000000000000000000000000000000000000000000000000000000000000000000000000000000000000000000000000000000000000000000000000000000000000000000000000000000000000000000000000000000000000000000000000000000000000000000000000000000000000000000000000000000000000000000000000000000000000000000000000000",
            "coinbase" : "0x2adc25665018aa1fe0e6bc666dac8fc2697ff9ba",
            "difficulty" : "0x020000",
            "extraData" : "0x42",
            "gasLimit" : "0x0f4240",
            "gasUsed" : "0x00",
            "hash" : "0xcafc263eb93da04e7281361ca45d38497e8fbc79c2880d86f444a6aeadf80672",
            "mixHash" : "0x56e81f171bcc55a6ff8345e692c0f86e5b48e01b996cadc001622fb5e363b421",
            "nonce" : "0x0102030405060708",
            "number" : "0x00",
            "parentHash" : "0x0000000000000000000000000000000000000000000000000000000000000000",
            "receiptTrie" : "0x56e81f171bcc55a6ff8345e692c0f86e5b48e01b996cadc001622fb5e363b421",
            "stateRoot" : "0x9ac18d07f5b481dbb8224ac100ede1a682166a5b6a4428876163dc9d3e612533",
            "timestamp" : "0x03b6",
            "transactionsTrie" : "0x56e81f171bcc55a6ff8345e692c0f86e5b48e01b996cadc001622fb5e363b421",
            "uncleHash" : "0x1dcc4de8dec75d7aab85b567b6ccd41ad312451b948a7413f0a142fd40d49347"
        },
        "genesisRLP" : "0xf901faf901f5a00000000000000000000000000000000000000000000000000000000000000000a01dcc4de8dec75d7aab85b567b6ccd41ad312451b948a7413f0a142fd40d49347942adc25665018aa1fe0e6bc666dac8fc2697ff9baa09ac18d07f5b481dbb8224ac100ede1a682166a5b6a4428876163dc9d3e612533a056e81f171bcc55a6ff8345e692c0f86e5b48e01b996cadc001622fb5e363b421a056e81f171bcc55a6ff8345e692c0f86e5b48e01b996cadc001622fb5e363b421b90100000000000000000000000000000000000000000000000000000000000000000000000000000000000000000000000000000000000000000000000000000000000000000000000000000000000000000000000000000000000000000000000000000000000000000000000000000000000000000000000000000000000000000000000000000000000000000000000000000000000000000000000000000000000000000000000000000000000000000000000000000000000000000000000000000000000000000000000000000000000000000000000000000000000000000000000000000000000000000000000000000000000000000000000000000000008302000080830f4240808203b642a056e81f171bcc55a6ff8345e692c0f86e5b48e01b996cadc001622fb5e363b421880102030405060708c0c0",
        "lastblockhash" : "0x8f5c139a216ae665e8b1a7054040acd6abe1d4eb6d3f08f7b2a8990d2ea042d5",
        "network" : "Constantinople",
        "postState" : {
            "0x095e7baea6a6c7c4c2dfeb977efac326af552d87" : {
                "balance" : "0x0de0b6b3a76586a0",
                "code" : "0x7f5e20a0453cecd065ea59c37ac63e079ee08998b6045136a8ce6635c7912ec0b6600052600a60006000600073aaae7baea6a6c7c4c2dfeb977efac326af552d8761c350fa50600051600055",
                "nonce" : "0x00",
                "storage" : {
                    "0x00" : "0x5e20a0453cecd065ea59c37ac63e079ee08998b6045136a8ce6635c7912ec0b6"
                }
            },
            "0x2adc25665018aa1fe0e6bc666dac8fc2697ff9ba" : {
                "balance" : "0x1bc16d674ec80000",
                "code" : "0x",
                "nonce" : "0x00",
                "storage" : {
                }
            },
            "0xa94f5374fce5edbc8e2a8697c15331677e6ebf0b" : {
                "balance" : "0x0de0b6b3a7627960",
                "code" : "0x",
                "nonce" : "0x01",
                "storage" : {
                }
            },
            "0xaaae7baea6a6c7c4c2dfeb977efac326af552d87" : {
                "balance" : "0x0de0b6b3a7640000",
                "code" : "0x6001600101600055",
                "nonce" : "0x00",
                "storage" : {
                }
            }
        },
        "pre" : {
            "0x095e7baea6a6c7c4c2dfeb977efac326af552d87" : {
                "balance" : "0x0de0b6b3a7640000",
                "code" : "0x7f5e20a0453cecd065ea59c37ac63e079ee08998b6045136a8ce6635c7912ec0b6600052600a60006000600073aaae7baea6a6c7c4c2dfeb977efac326af552d8761c350fa50600051600055",
                "nonce" : "0x00",
                "storage" : {
                }
            },
            "0xa94f5374fce5edbc8e2a8697c15331677e6ebf0b" : {
                "balance" : "0x0de0b6b3a7640000",
                "code" : "0x",
                "nonce" : "0x00",
                "storage" : {
                }
            },
            "0xaaae7baea6a6c7c4c2dfeb977efac326af552d87" : {
                "balance" : "0x0de0b6b3a7640000",
                "code" : "0x6001600101600055",
                "nonce" : "0x00",
                "storage" : {
                }
            }
        },
        "sealEngine" : "NoProof"
    },
    "static_callOutput3partial_d0g0v0_ConstantinopleFix" : {
        "_info" : {
            "comment" : "",
            "filledwith" : "testeth 1.7.0-alpha.1-20+commit.782a7283",
            "lllcversion" : "Version: 0.5.0-develop.2018.11.9+commit.9709dfe0.Linux.g++",
            "source" : "src/BlockchainTestsFiller/GeneralStateTests/stStaticCall/static_callOutput3partial_d0g0v0Filler.json",
            "sourceHash" : "642ad5197fd10f259c3e4db0ce9a880f4e65e789942ab6617d6f37c88e554306"
        },
        "blocks" : [
            {
                "blockHeader" : {
                    "bloom" : "0x00000000000000000000000000000000000000000000000000000000000000000000000000000000000000000000000000000000000000000000000000000000000000000000000000000000000000000000000000000000000000000000000000000000000000000000000000000000000000000000000000000000000000000000000000000000000000000000000000000000000000000000000000000000000000000000000000000000000000000000000000000000000000000000000000000000000000000000000000000000000000000000000000000000000000000000000000000000000000000000000000000000000000000000000000000000",
                    "coinbase" : "0x2adc25665018aa1fe0e6bc666dac8fc2697ff9ba",
                    "difficulty" : "0x020000",
                    "extraData" : "0x",
                    "gasLimit" : "0x0f4240",
                    "gasUsed" : "0x01665d",
                    "hash" : "0x8f5c139a216ae665e8b1a7054040acd6abe1d4eb6d3f08f7b2a8990d2ea042d5",
                    "mixHash" : "0x0000000000000000000000000000000000000000000000000000000000000000",
                    "nonce" : "0x0000000000000000",
                    "number" : "0x01",
                    "parentHash" : "0xcafc263eb93da04e7281361ca45d38497e8fbc79c2880d86f444a6aeadf80672",
                    "receiptTrie" : "0x835e171b6c8add0df6184b14ee2e55bba46f28763729bfcdf37e6119e584a834",
                    "stateRoot" : "0xbb46bbfca97c7a4b71deff14aab148d5412b5fe21c38b013ed9752d1ad51b6ef",
                    "timestamp" : "0x03e8",
                    "transactionsTrie" : "0x7f85854b8b30dcca56f94318c7332e05eafa1635dafc57e2abe1fac35c7efa8d",
                    "uncleHash" : "0x1dcc4de8dec75d7aab85b567b6ccd41ad312451b948a7413f0a142fd40d49347"
                },
                "rlp" : "0xf90263f901f8a0cafc263eb93da04e7281361ca45d38497e8fbc79c2880d86f444a6aeadf80672a01dcc4de8dec75d7aab85b567b6ccd41ad312451b948a7413f0a142fd40d49347942adc25665018aa1fe0e6bc666dac8fc2697ff9baa0bb46bbfca97c7a4b71deff14aab148d5412b5fe21c38b013ed9752d1ad51b6efa07f85854b8b30dcca56f94318c7332e05eafa1635dafc57e2abe1fac35c7efa8da0835e171b6c8add0df6184b14ee2e55bba46f28763729bfcdf37e6119e584a834b90100000000000000000000000000000000000000000000000000000000000000000000000000000000000000000000000000000000000000000000000000000000000000000000000000000000000000000000000000000000000000000000000000000000000000000000000000000000000000000000000000000000000000000000000000000000000000000000000000000000000000000000000000000000000000000000000000000000000000000000000000000000000000000000000000000000000000000000000000000000000000000000000000000000000000000000000000000000000000000000000000000000000000000000000000000000008302000001830f42408301665d8203e880a00000000000000000000000000000000000000000000000000000000000000000880000000000000000f865f8638080830f424094095e7baea6a6c7c4c2dfeb977efac326af552d87830186a0801ba0c15d34d194f0b39f15741df45c99593bf0cb642d4ca50088d1f8a289c430c9d4a005478f3b062fccb0c87482a930aa211a8dcfdcc00cafbfbb5b60995fe7b15e7bc0",
                "transactions" : [
                    {
                        "data" : "0x",
                        "gasLimit" : "0x0f4240",
                        "gasPrice" : "0x00",
                        "nonce" : "0x00",
                        "r" : "0xc15d34d194f0b39f15741df45c99593bf0cb642d4ca50088d1f8a289c430c9d4",
                        "s" : "0x05478f3b062fccb0c87482a930aa211a8dcfdcc00cafbfbb5b60995fe7b15e7b",
                        "to" : "0x095e7baea6a6c7c4c2dfeb977efac326af552d87",
                        "v" : "0x1b",
                        "value" : "0x0186a0"
                    }
                ],
                "uncleHeaders" : [
                ]
            }
        ],
        "genesisBlockHeader" : {
            "bloom" : "0x00000000000000000000000000000000000000000000000000000000000000000000000000000000000000000000000000000000000000000000000000000000000000000000000000000000000000000000000000000000000000000000000000000000000000000000000000000000000000000000000000000000000000000000000000000000000000000000000000000000000000000000000000000000000000000000000000000000000000000000000000000000000000000000000000000000000000000000000000000000000000000000000000000000000000000000000000000000000000000000000000000000000000000000000000000000",
            "coinbase" : "0x2adc25665018aa1fe0e6bc666dac8fc2697ff9ba",
            "difficulty" : "0x020000",
            "extraData" : "0x42",
            "gasLimit" : "0x0f4240",
            "gasUsed" : "0x00",
            "hash" : "0xcafc263eb93da04e7281361ca45d38497e8fbc79c2880d86f444a6aeadf80672",
            "mixHash" : "0x56e81f171bcc55a6ff8345e692c0f86e5b48e01b996cadc001622fb5e363b421",
            "nonce" : "0x0102030405060708",
            "number" : "0x00",
            "parentHash" : "0x0000000000000000000000000000000000000000000000000000000000000000",
            "receiptTrie" : "0x56e81f171bcc55a6ff8345e692c0f86e5b48e01b996cadc001622fb5e363b421",
            "stateRoot" : "0x9ac18d07f5b481dbb8224ac100ede1a682166a5b6a4428876163dc9d3e612533",
            "timestamp" : "0x03b6",
            "transactionsTrie" : "0x56e81f171bcc55a6ff8345e692c0f86e5b48e01b996cadc001622fb5e363b421",
            "uncleHash" : "0x1dcc4de8dec75d7aab85b567b6ccd41ad312451b948a7413f0a142fd40d49347"
        },
        "genesisRLP" : "0xf901faf901f5a00000000000000000000000000000000000000000000000000000000000000000a01dcc4de8dec75d7aab85b567b6ccd41ad312451b948a7413f0a142fd40d49347942adc25665018aa1fe0e6bc666dac8fc2697ff9baa09ac18d07f5b481dbb8224ac100ede1a682166a5b6a4428876163dc9d3e612533a056e81f171bcc55a6ff8345e692c0f86e5b48e01b996cadc001622fb5e363b421a056e81f171bcc55a6ff8345e692c0f86e5b48e01b996cadc001622fb5e363b421b90100000000000000000000000000000000000000000000000000000000000000000000000000000000000000000000000000000000000000000000000000000000000000000000000000000000000000000000000000000000000000000000000000000000000000000000000000000000000000000000000000000000000000000000000000000000000000000000000000000000000000000000000000000000000000000000000000000000000000000000000000000000000000000000000000000000000000000000000000000000000000000000000000000000000000000000000000000000000000000000000000000000000000000000000000000000008302000080830f4240808203b642a056e81f171bcc55a6ff8345e692c0f86e5b48e01b996cadc001622fb5e363b421880102030405060708c0c0",
        "lastblockhash" : "0x8f5c139a216ae665e8b1a7054040acd6abe1d4eb6d3f08f7b2a8990d2ea042d5",
        "network" : "ConstantinopleFix",
        "postState" : {
            "0x095e7baea6a6c7c4c2dfeb977efac326af552d87" : {
                "balance" : "0x0de0b6b3a76586a0",
                "code" : "0x7f5e20a0453cecd065ea59c37ac63e079ee08998b6045136a8ce6635c7912ec0b6600052600a60006000600073aaae7baea6a6c7c4c2dfeb977efac326af552d8761c350fa50600051600055",
                "nonce" : "0x00",
                "storage" : {
                    "0x00" : "0x5e20a0453cecd065ea59c37ac63e079ee08998b6045136a8ce6635c7912ec0b6"
                }
            },
            "0x2adc25665018aa1fe0e6bc666dac8fc2697ff9ba" : {
                "balance" : "0x1bc16d674ec80000",
                "code" : "0x",
                "nonce" : "0x00",
                "storage" : {
                }
            },
            "0xa94f5374fce5edbc8e2a8697c15331677e6ebf0b" : {
                "balance" : "0x0de0b6b3a7627960",
                "code" : "0x",
                "nonce" : "0x01",
                "storage" : {
                }
            },
            "0xaaae7baea6a6c7c4c2dfeb977efac326af552d87" : {
                "balance" : "0x0de0b6b3a7640000",
                "code" : "0x6001600101600055",
                "nonce" : "0x00",
                "storage" : {
                }
            }
        },
        "pre" : {
            "0x095e7baea6a6c7c4c2dfeb977efac326af552d87" : {
                "balance" : "0x0de0b6b3a7640000",
                "code" : "0x7f5e20a0453cecd065ea59c37ac63e079ee08998b6045136a8ce6635c7912ec0b6600052600a60006000600073aaae7baea6a6c7c4c2dfeb977efac326af552d8761c350fa50600051600055",
                "nonce" : "0x00",
                "storage" : {
                }
            },
            "0xa94f5374fce5edbc8e2a8697c15331677e6ebf0b" : {
                "balance" : "0x0de0b6b3a7640000",
                "code" : "0x",
                "nonce" : "0x00",
                "storage" : {
                }
            },
            "0xaaae7baea6a6c7c4c2dfeb977efac326af552d87" : {
                "balance" : "0x0de0b6b3a7640000",
                "code" : "0x6001600101600055",
                "nonce" : "0x00",
                "storage" : {
                }
            }
        },
        "sealEngine" : "NoProof"
    }
}