{
    "static_CheckOpcodes5_d2g0v0_Byzantium" : {
        "_info" : {
            "comment" : "",
            "filledwith" : "testeth 1.7.0-alpha.1-20+commit.782a7283",
            "lllcversion" : "Version: 0.5.0-develop.2018.11.9+commit.9709dfe0.Linux.g++",
            "source" : "src/BlockchainTestsFiller/GeneralStateTests/stStaticCall/static_CheckOpcodes5_d2g0v0Filler.json",
            "sourceHash" : "d1f0d70eda76c7d844472685bfa0390162b4017f0bcba1af50c41d6b0af84a15"
        },
        "blocks" : [
            {
                "blockHeader" : {
                    "bloom" : "0x00000000000000000000000000000000000000000000000000000000000000000000000000000000000000000000000000000000000000000000000000000000000000000000000000000000000000000000000000000000000000000000000000000000000000000000000000000000000000000000000000000000000000000000000000000000000000000000000000000000000000000000000000000000000000000000000000000000000000000000000000000000000000000000000000000000000000000000000000000000000000000000000000000000000000000000000000000000000000000000000000000000000000000000000000000000",
                    "coinbase" : "0x2adc25665018aa1fe0e6bc666dac8fc2697ff9ba",
                    "difficulty" : "0x020000",
                    "extraData" : "0x",
                    "gasLimit" : "0x989680",
                    "gasUsed" : "0xc350",
                    "hash" : "0x9189400646567afc7d649d524604ed27b6b7ab9d828768895920218dfbfd88e8",
                    "mixHash" : "0x0000000000000000000000000000000000000000000000000000000000000000",
                    "nonce" : "0x0000000000000000",
                    "number" : "0x01",
                    "parentHash" : "0x900073cc62adaf884784ad0a17a947e6854082ece3c13dc9252853f81cb35e03",
                    "receiptTrie" : "0xda0b41af4a22c1b5f9367dfc140949e53c819bbb2c6e8299d4f2b44f25670bb0",
                    "stateRoot" : "0x0d0d7dbf0a6b57264cdc1f3e213be32f92e83d39e3cc36b08eef6b6660a4e8c3",
                    "timestamp" : "0x03e8",
                    "transactionsTrie" : "0x09de9898f5aa45f956a70953922b3cc52e45e209f163466d29ceb773d2f7cf74",
                    "uncleHash" : "0x1dcc4de8dec75d7aab85b567b6ccd41ad312451b948a7413f0a142fd40d49347"
                },
                "rlp" : "0xf9027ef901f7a0900073cc62adaf884784ad0a17a947e6854082ece3c13dc9252853f81cb35e03a01dcc4de8dec75d7aab85b567b6ccd41ad312451b948a7413f0a142fd40d49347942adc25665018aa1fe0e6bc666dac8fc2697ff9baa00d0d7dbf0a6b57264cdc1f3e213be32f92e83d39e3cc36b08eef6b6660a4e8c3a009de9898f5aa45f956a70953922b3cc52e45e209f163466d29ceb773d2f7cf74a0da0b41af4a22c1b5f9367dfc140949e53c819bbb2c6e8299d4f2b44f25670bb0b901000000000000000000000000000000000000000000000000000000000000000000000000000000000000000000000000000000000000000000000000000000000000000000000000000000000000000000000000000000000000000000000000000000000000000000000000000000000000000000000000000000000000000000000000000000000000000000000000000000000000000000000000000000000000000000000000000000000000000000000000000000000000000000000000000000000000000000000000000000000000000000000000000000000000000000000000000000000000000000000000000000000000000000000000000000000083020000018398968082c3508203e880a00000000000000000000000000000000000000000000000000000000000000000880000000000000000f881f87f800182c35094100000000000000000000000000000000000000080a000000000000000000000000030000000000000000000000000000000000000011ba0602a3344da3427823dba8b8ff85b0dfc5a31136a5668456030bef024ac706480a017dfc6d6065b81670e66983c8665a7f84e3712829eba7afc690cc48cb3b0cee8c0",
                "transactions" : [
                    {
                        "data" : "0x0000000000000000000000003000000000000000000000000000000000000001",
                        "gasLimit" : "0xc350",
                        "gasPrice" : "0x01",
                        "nonce" : "0x00",
                        "r" : "0x602a3344da3427823dba8b8ff85b0dfc5a31136a5668456030bef024ac706480",
                        "s" : "0x17dfc6d6065b81670e66983c8665a7f84e3712829eba7afc690cc48cb3b0cee8",
                        "to" : "0x1000000000000000000000000000000000000000",
                        "v" : "0x1b",
                        "value" : "0x00"
                    }
                ],
                "uncleHeaders" : [
                ]
            }
        ],
        "genesisBlockHeader" : {
            "bloom" : "0x00000000000000000000000000000000000000000000000000000000000000000000000000000000000000000000000000000000000000000000000000000000000000000000000000000000000000000000000000000000000000000000000000000000000000000000000000000000000000000000000000000000000000000000000000000000000000000000000000000000000000000000000000000000000000000000000000000000000000000000000000000000000000000000000000000000000000000000000000000000000000000000000000000000000000000000000000000000000000000000000000000000000000000000000000000000",
            "coinbase" : "0x2adc25665018aa1fe0e6bc666dac8fc2697ff9ba",
            "difficulty" : "0x020000",
            "extraData" : "0x42",
            "gasLimit" : "0x989680",
            "gasUsed" : "0x00",
            "hash" : "0x900073cc62adaf884784ad0a17a947e6854082ece3c13dc9252853f81cb35e03",
            "mixHash" : "0x56e81f171bcc55a6ff8345e692c0f86e5b48e01b996cadc001622fb5e363b421",
            "nonce" : "0x0102030405060708",
            "number" : "0x00",
            "parentHash" : "0x0000000000000000000000000000000000000000000000000000000000000000",
            "receiptTrie" : "0x56e81f171bcc55a6ff8345e692c0f86e5b48e01b996cadc001622fb5e363b421",
            "stateRoot" : "0x739118fbd836a83e090c5f4a7b6ba1c767a2761db7c467657b1a3660adbe574f",
            "timestamp" : "0x03b6",
            "transactionsTrie" : "0x56e81f171bcc55a6ff8345e692c0f86e5b48e01b996cadc001622fb5e363b421",
            "uncleHash" : "0x1dcc4de8dec75d7aab85b567b6ccd41ad312451b948a7413f0a142fd40d49347"
        },
        "genesisRLP" : "0xf901faf901f5a00000000000000000000000000000000000000000000000000000000000000000a01dcc4de8dec75d7aab85b567b6ccd41ad312451b948a7413f0a142fd40d49347942adc25665018aa1fe0e6bc666dac8fc2697ff9baa0739118fbd836a83e090c5f4a7b6ba1c767a2761db7c467657b1a3660adbe574fa056e81f171bcc55a6ff8345e692c0f86e5b48e01b996cadc001622fb5e363b421a056e81f171bcc55a6ff8345e692c0f86e5b48e01b996cadc001622fb5e363b421b9010000000000000000000000000000000000000000000000000000000000000000000000000000000000000000000000000000000000000000000000000000000000000000000000000000000000000000000000000000000000000000000000000000000000000000000000000000000000000000000000000000000000000000000000000000000000000000000000000000000000000000000000000000000000000000000000000000000000000000000000000000000000000000000000000000000000000000000000000000000000000000000000000000000000000000000000000000000000000000000000000000000000000000000000000000000000830200008083989680808203b642a056e81f171bcc55a6ff8345e692c0f86e5b48e01b996cadc001622fb5e363b421880102030405060708c0c0",
        "lastblockhash" : "0x9189400646567afc7d649d524604ed27b6b7ab9d828768895920218dfbfd88e8",
        "network" : "Byzantium",
        "postState" : {
            "0x1000000000000000000000000000000000000000" : {
                "balance" : "0x00",
                "code" : "0x600060006000600060006000356203d090f1600155",
                "nonce" : "0x00",
                "storage" : {
                }
            },
            "0x1000000000000000000000000000000000000001" : {
                "balance" : "0x00",
                "code" : "0x73b0000000000000000000000000000000000000026000526000600060206000600073a000000000000000000000000000000000000002620186a0f1",
                "nonce" : "0x00",
                "storage" : {
                }
            },
            "0x2000000000000000000000000000000000000001" : {
                "balance" : "0x0a",
                "code" : "0x73b0000000000000000000000000000000000000026000526000600060206000600a73a000000000000000000000000000000000000002620186a0f1",
                "nonce" : "0x00",
                "storage" : {
                }
            },
            "0x2adc25665018aa1fe0e6bc666dac8fc2697ff9ba" : {
                "balance" : "0x29a2241af62cc350",
                "code" : "0x",
                "nonce" : "0x00",
                "storage" : {
                }
            },
            "0x3000000000000000000000000000000000000001" : {
                "balance" : "0x0a",
                "code" : "0x73c3000000000000000000000000000000000000026000526000600060206000600073a000000000000000000000000000000000000002620186a0f2",
                "nonce" : "0x00",
                "storage" : {
                }
            },
            "0x4000000000000000000000000000000000000001" : {
                "balance" : "0x0a",
                "code" : "0x73c4000000000000000000000000000000000000026000526000600060206000600173a000000000000000000000000000000000000002620186a0f2",
                "nonce" : "0x00",
                "storage" : {
                }
            },
            "0x5000000000000000000000000000000000000001" : {
                "balance" : "0x0a",
                "code" : "0x73c500000000000000000000000000000000000002600052600060006020600073a000000000000000000000000000000000000002620186a0f4",
                "nonce" : "0x00",
                "storage" : {
                }
            },
            "0xa000000000000000000000000000000000000002" : {
                "balance" : "0x00",
                "code" : "0x600060006000600060003561c350fa600055",
                "nonce" : "0x00",
                "storage" : {
                }
            },
            "0xa94f5374fce5edbc8e2a8697c15331677e6ebf0b" : {
                "balance" : "0xe8d4a44cb0",
                "code" : "0x",
                "nonce" : "0x01",
                "storage" : {
                }
            },
            "0xb000000000000000000000000000000000000002" : {
                "balance" : "0x00",
                "code" : "0x3273a94f5374fce5edbc8e2a8697c15331677e6ebf0b1460225760026001556028565b60016001525b3373a00000000000000000000000000000000000000214604b5760026001556051565b60016001525b3073b000000000000000000000000000000000000002146074576002600155607a565b60016001525b34600014608a5760026001556090565b60016001525b",
                "nonce" : "0x00",
                "storage" : {
                }
            },
            "0xc300000000000000000000000000000000000002" : {
                "balance" : "0x00",
                "code" : "0x3273a94f5374fce5edbc8e2a8697c15331677e6ebf0b1460225760026001556028565b60016001525b3373300000000000000000000000000000000000000114604b5760026001556051565b60016001525b3073c300000000000000000000000000000000000002146074576002600155607a565b60016001525b34600014608a5760026001556090565b60016001525b",
                "nonce" : "0x00",
                "storage" : {
                }
            },
            "0xc400000000000000000000000000000000000002" : {
                "balance" : "0x00",
                "code" : "0x3273a94f5374fce5edbc8e2a8697c15331677e6ebf0b1460225760026001556028565b60016001525b3373400000000000000000000000000000000000000114604b5760026001556051565b60016001525b3073c400000000000000000000000000000000000002146074576002600155607a565b60016001525b34600014608a5760026001556090565b60016001525b",
                "nonce" : "0x00",
                "storage" : {
                }
            },
            "0xc500000000000000000000000000000000000002" : {
                "balance" : "0x00",
                "code" : "0x3273a94f5374fce5edbc8e2a8697c15331677e6ebf0b1460225760026001556028565b60016001525b3373500000000000000000000000000000000000000114604b5760026001556051565b60016001525b3073c500000000000000000000000000000000000002146074576002600155607a565b60016001525b34600014608a5760026001556090565b60016001525b",
                "nonce" : "0x00",
                "storage" : {
                }
            }
        },
        "pre" : {
            "0x1000000000000000000000000000000000000000" : {
                "balance" : "0x00",
                "code" : "0x600060006000600060006000356203d090f1600155",
                "nonce" : "0x00",
                "storage" : {
                }
            },
            "0x1000000000000000000000000000000000000001" : {
                "balance" : "0x00",
                "code" : "0x73b0000000000000000000000000000000000000026000526000600060206000600073a000000000000000000000000000000000000002620186a0f1",
                "nonce" : "0x00",
                "storage" : {
                }
            },
            "0x2000000000000000000000000000000000000001" : {
                "balance" : "0x0a",
                "code" : "0x73b0000000000000000000000000000000000000026000526000600060206000600a73a000000000000000000000000000000000000002620186a0f1",
                "nonce" : "0x00",
                "storage" : {
                }
            },
            "0x3000000000000000000000000000000000000001" : {
                "balance" : "0x0a",
                "code" : "0x73c3000000000000000000000000000000000000026000526000600060206000600073a000000000000000000000000000000000000002620186a0f2",
                "nonce" : "0x00",
                "storage" : {
                }
            },
            "0x4000000000000000000000000000000000000001" : {
                "balance" : "0x0a",
                "code" : "0x73c4000000000000000000000000000000000000026000526000600060206000600173a000000000000000000000000000000000000002620186a0f2",
                "nonce" : "0x00",
                "storage" : {
                }
            },
            "0x5000000000000000000000000000000000000001" : {
                "balance" : "0x0a",
                "code" : "0x73c500000000000000000000000000000000000002600052600060006020600073a000000000000000000000000000000000000002620186a0f4",
                "nonce" : "0x00",
                "storage" : {
                }
            },
            "0xa000000000000000000000000000000000000002" : {
                "balance" : "0x00",
                "code" : "0x600060006000600060003561c350fa600055",
                "nonce" : "0x00",
                "storage" : {
                }
            },
            "0xa94f5374fce5edbc8e2a8697c15331677e6ebf0b" : {
                "balance" : "0xe8d4a51000",
                "code" : "0x",
                "nonce" : "0x00",
                "storage" : {
                }
            },
            "0xb000000000000000000000000000000000000002" : {
                "balance" : "0x00",
                "code" : "0x3273a94f5374fce5edbc8e2a8697c15331677e6ebf0b1460225760026001556028565b60016001525b3373a00000000000000000000000000000000000000214604b5760026001556051565b60016001525b3073b000000000000000000000000000000000000002146074576002600155607a565b60016001525b34600014608a5760026001556090565b60016001525b",
                "nonce" : "0x00",
                "storage" : {
                }
            },
            "0xc300000000000000000000000000000000000002" : {
                "balance" : "0x00",
                "code" : "0x3273a94f5374fce5edbc8e2a8697c15331677e6ebf0b1460225760026001556028565b60016001525b3373300000000000000000000000000000000000000114604b5760026001556051565b60016001525b3073c300000000000000000000000000000000000002146074576002600155607a565b60016001525b34600014608a5760026001556090565b60016001525b",
                "nonce" : "0x00",
                "storage" : {
                }
            },
            "0xc400000000000000000000000000000000000002" : {
                "balance" : "0x00",
                "code" : "0x3273a94f5374fce5edbc8e2a8697c15331677e6ebf0b1460225760026001556028565b60016001525b3373400000000000000000000000000000000000000114604b5760026001556051565b60016001525b3073c400000000000000000000000000000000000002146074576002600155607a565b60016001525b34600014608a5760026001556090565b60016001525b",
                "nonce" : "0x00",
                "storage" : {
                }
            },
            "0xc500000000000000000000000000000000000002" : {
                "balance" : "0x00",
                "code" : "0x3273a94f5374fce5edbc8e2a8697c15331677e6ebf0b1460225760026001556028565b60016001525b3373500000000000000000000000000000000000000114604b5760026001556051565b60016001525b3073c500000000000000000000000000000000000002146074576002600155607a565b60016001525b34600014608a5760026001556090565b60016001525b",
                "nonce" : "0x00",
                "storage" : {
                }
            }
        },
        "sealEngine" : "NoProof"
    },
    "static_CheckOpcodes5_d2g0v0_Constantinople" : {
        "_info" : {
            "comment" : "",
            "filledwith" : "testeth 1.7.0-alpha.1-20+commit.782a7283",
            "lllcversion" : "Version: 0.5.0-develop.2018.11.9+commit.9709dfe0.Linux.g++",
            "source" : "src/BlockchainTestsFiller/GeneralStateTests/stStaticCall/static_CheckOpcodes5_d2g0v0Filler.json",
            "sourceHash" : "d1f0d70eda76c7d844472685bfa0390162b4017f0bcba1af50c41d6b0af84a15"
        },
        "blocks" : [
            {
                "blockHeader" : {
                    "bloom" : "0x00000000000000000000000000000000000000000000000000000000000000000000000000000000000000000000000000000000000000000000000000000000000000000000000000000000000000000000000000000000000000000000000000000000000000000000000000000000000000000000000000000000000000000000000000000000000000000000000000000000000000000000000000000000000000000000000000000000000000000000000000000000000000000000000000000000000000000000000000000000000000000000000000000000000000000000000000000000000000000000000000000000000000000000000000000000",
                    "coinbase" : "0x2adc25665018aa1fe0e6bc666dac8fc2697ff9ba",
                    "difficulty" : "0x020000",
                    "extraData" : "0x",
                    "gasLimit" : "0x989680",
                    "gasUsed" : "0xc350",
                    "hash" : "0xff9b7b507fc0d3fd000baa663d94d2727209767b93707412b06fa2656a903839",
                    "mixHash" : "0x0000000000000000000000000000000000000000000000000000000000000000",
                    "nonce" : "0x0000000000000000",
                    "number" : "0x01",
                    "parentHash" : "0x900073cc62adaf884784ad0a17a947e6854082ece3c13dc9252853f81cb35e03",
                    "receiptTrie" : "0xda0b41af4a22c1b5f9367dfc140949e53c819bbb2c6e8299d4f2b44f25670bb0",
                    "stateRoot" : "0x1d1f84179d31476c0ed1787a69c1f68e4a5a93f3f23e3461df4744f469d54c0f",
                    "timestamp" : "0x03e8",
                    "transactionsTrie" : "0x09de9898f5aa45f956a70953922b3cc52e45e209f163466d29ceb773d2f7cf74",
                    "uncleHash" : "0x1dcc4de8dec75d7aab85b567b6ccd41ad312451b948a7413f0a142fd40d49347"
                },
                "rlp" : "0xf9027ef901f7a0900073cc62adaf884784ad0a17a947e6854082ece3c13dc9252853f81cb35e03a01dcc4de8dec75d7aab85b567b6ccd41ad312451b948a7413f0a142fd40d49347942adc25665018aa1fe0e6bc666dac8fc2697ff9baa01d1f84179d31476c0ed1787a69c1f68e4a5a93f3f23e3461df4744f469d54c0fa009de9898f5aa45f956a70953922b3cc52e45e209f163466d29ceb773d2f7cf74a0da0b41af4a22c1b5f9367dfc140949e53c819bbb2c6e8299d4f2b44f25670bb0b901000000000000000000000000000000000000000000000000000000000000000000000000000000000000000000000000000000000000000000000000000000000000000000000000000000000000000000000000000000000000000000000000000000000000000000000000000000000000000000000000000000000000000000000000000000000000000000000000000000000000000000000000000000000000000000000000000000000000000000000000000000000000000000000000000000000000000000000000000000000000000000000000000000000000000000000000000000000000000000000000000000000000000000000000000000000083020000018398968082c3508203e880a00000000000000000000000000000000000000000000000000000000000000000880000000000000000f881f87f800182c35094100000000000000000000000000000000000000080a000000000000000000000000030000000000000000000000000000000000000011ba0602a3344da3427823dba8b8ff85b0dfc5a31136a5668456030bef024ac706480a017dfc6d6065b81670e66983c8665a7f84e3712829eba7afc690cc48cb3b0cee8c0",
                "transactions" : [
                    {
                        "data" : "0x0000000000000000000000003000000000000000000000000000000000000001",
                        "gasLimit" : "0xc350",
                        "gasPrice" : "0x01",
                        "nonce" : "0x00",
                        "r" : "0x602a3344da3427823dba8b8ff85b0dfc5a31136a5668456030bef024ac706480",
                        "s" : "0x17dfc6d6065b81670e66983c8665a7f84e3712829eba7afc690cc48cb3b0cee8",
                        "to" : "0x1000000000000000000000000000000000000000",
                        "v" : "0x1b",
                        "value" : "0x00"
                    }
                ],
                "uncleHeaders" : [
                ]
            }
        ],
        "genesisBlockHeader" : {
            "bloom" : "0x00000000000000000000000000000000000000000000000000000000000000000000000000000000000000000000000000000000000000000000000000000000000000000000000000000000000000000000000000000000000000000000000000000000000000000000000000000000000000000000000000000000000000000000000000000000000000000000000000000000000000000000000000000000000000000000000000000000000000000000000000000000000000000000000000000000000000000000000000000000000000000000000000000000000000000000000000000000000000000000000000000000000000000000000000000000",
            "coinbase" : "0x2adc25665018aa1fe0e6bc666dac8fc2697ff9ba",
            "difficulty" : "0x020000",
            "extraData" : "0x42",
            "gasLimit" : "0x989680",
            "gasUsed" : "0x00",
            "hash" : "0x900073cc62adaf884784ad0a17a947e6854082ece3c13dc9252853f81cb35e03",
            "mixHash" : "0x56e81f171bcc55a6ff8345e692c0f86e5b48e01b996cadc001622fb5e363b421",
            "nonce" : "0x0102030405060708",
            "number" : "0x00",
            "parentHash" : "0x0000000000000000000000000000000000000000000000000000000000000000",
            "receiptTrie" : "0x56e81f171bcc55a6ff8345e692c0f86e5b48e01b996cadc001622fb5e363b421",
            "stateRoot" : "0x739118fbd836a83e090c5f4a7b6ba1c767a2761db7c467657b1a3660adbe574f",
            "timestamp" : "0x03b6",
            "transactionsTrie" : "0x56e81f171bcc55a6ff8345e692c0f86e5b48e01b996cadc001622fb5e363b421",
            "uncleHash" : "0x1dcc4de8dec75d7aab85b567b6ccd41ad312451b948a7413f0a142fd40d49347"
        },
        "genesisRLP" : "0xf901faf901f5a00000000000000000000000000000000000000000000000000000000000000000a01dcc4de8dec75d7aab85b567b6ccd41ad312451b948a7413f0a142fd40d49347942adc25665018aa1fe0e6bc666dac8fc2697ff9baa0739118fbd836a83e090c5f4a7b6ba1c767a2761db7c467657b1a3660adbe574fa056e81f171bcc55a6ff8345e692c0f86e5b48e01b996cadc001622fb5e363b421a056e81f171bcc55a6ff8345e692c0f86e5b48e01b996cadc001622fb5e363b421b9010000000000000000000000000000000000000000000000000000000000000000000000000000000000000000000000000000000000000000000000000000000000000000000000000000000000000000000000000000000000000000000000000000000000000000000000000000000000000000000000000000000000000000000000000000000000000000000000000000000000000000000000000000000000000000000000000000000000000000000000000000000000000000000000000000000000000000000000000000000000000000000000000000000000000000000000000000000000000000000000000000000000000000000000000000000000830200008083989680808203b642a056e81f171bcc55a6ff8345e692c0f86e5b48e01b996cadc001622fb5e363b421880102030405060708c0c0",
        "lastblockhash" : "0xff9b7b507fc0d3fd000baa663d94d2727209767b93707412b06fa2656a903839",
        "network" : "Constantinople",
        "postState" : {
            "0x1000000000000000000000000000000000000000" : {
                "balance" : "0x00",
                "code" : "0x600060006000600060006000356203d090f1600155",
                "nonce" : "0x00",
                "storage" : {
                }
            },
            "0x1000000000000000000000000000000000000001" : {
                "balance" : "0x00",
                "code" : "0x73b0000000000000000000000000000000000000026000526000600060206000600073a000000000000000000000000000000000000002620186a0f1",
                "nonce" : "0x00",
                "storage" : {
                }
            },
            "0x2000000000000000000000000000000000000001" : {
                "balance" : "0x0a",
                "code" : "0x73b0000000000000000000000000000000000000026000526000600060206000600a73a000000000000000000000000000000000000002620186a0f1",
                "nonce" : "0x00",
                "storage" : {
                }
            },
            "0x2adc25665018aa1fe0e6bc666dac8fc2697ff9ba" : {
                "balance" : "0x1bc16d674ec8c350",
                "code" : "0x",
                "nonce" : "0x00",
                "storage" : {
                }
            },
            "0x3000000000000000000000000000000000000001" : {
                "balance" : "0x0a",
                "code" : "0x73c3000000000000000000000000000000000000026000526000600060206000600073a000000000000000000000000000000000000002620186a0f2",
                "nonce" : "0x00",
                "storage" : {
                }
            },
            "0x4000000000000000000000000000000000000001" : {
                "balance" : "0x0a",
                "code" : "0x73c4000000000000000000000000000000000000026000526000600060206000600173a000000000000000000000000000000000000002620186a0f2",
                "nonce" : "0x00",
                "storage" : {
                }
            },
            "0x5000000000000000000000000000000000000001" : {
                "balance" : "0x0a",
                "code" : "0x73c500000000000000000000000000000000000002600052600060006020600073a000000000000000000000000000000000000002620186a0f4",
                "nonce" : "0x00",
                "storage" : {
                }
            },
            "0xa000000000000000000000000000000000000002" : {
                "balance" : "0x00",
                "code" : "0x600060006000600060003561c350fa600055",
                "nonce" : "0x00",
                "storage" : {
                }
            },
            "0xa94f5374fce5edbc8e2a8697c15331677e6ebf0b" : {
                "balance" : "0xe8d4a44cb0",
                "code" : "0x",
                "nonce" : "0x01",
                "storage" : {
                }
            },
            "0xb000000000000000000000000000000000000002" : {
                "balance" : "0x00",
                "code" : "0x3273a94f5374fce5edbc8e2a8697c15331677e6ebf0b1460225760026001556028565b60016001525b3373a00000000000000000000000000000000000000214604b5760026001556051565b60016001525b3073b000000000000000000000000000000000000002146074576002600155607a565b60016001525b34600014608a5760026001556090565b60016001525b",
                "nonce" : "0x00",
                "storage" : {
                }
            },
            "0xc300000000000000000000000000000000000002" : {
                "balance" : "0x00",
                "code" : "0x3273a94f5374fce5edbc8e2a8697c15331677e6ebf0b1460225760026001556028565b60016001525b3373300000000000000000000000000000000000000114604b5760026001556051565b60016001525b3073c300000000000000000000000000000000000002146074576002600155607a565b60016001525b34600014608a5760026001556090565b60016001525b",
                "nonce" : "0x00",
                "storage" : {
                }
            },
            "0xc400000000000000000000000000000000000002" : {
                "balance" : "0x00",
                "code" : "0x3273a94f5374fce5edbc8e2a8697c15331677e6ebf0b1460225760026001556028565b60016001525b3373400000000000000000000000000000000000000114604b5760026001556051565b60016001525b3073c400000000000000000000000000000000000002146074576002600155607a565b60016001525b34600014608a5760026001556090565b60016001525b",
                "nonce" : "0x00",
                "storage" : {
                }
            },
            "0xc500000000000000000000000000000000000002" : {
                "balance" : "0x00",
                "code" : "0x3273a94f5374fce5edbc8e2a8697c15331677e6ebf0b1460225760026001556028565b60016001525b3373500000000000000000000000000000000000000114604b5760026001556051565b60016001525b3073c500000000000000000000000000000000000002146074576002600155607a565b60016001525b34600014608a5760026001556090565b60016001525b",
                "nonce" : "0x00",
                "storage" : {
                }
            }
        },
        "pre" : {
            "0x1000000000000000000000000000000000000000" : {
                "balance" : "0x00",
                "code" : "0x600060006000600060006000356203d090f1600155",
                "nonce" : "0x00",
                "storage" : {
                }
            },
            "0x1000000000000000000000000000000000000001" : {
                "balance" : "0x00",
                "code" : "0x73b0000000000000000000000000000000000000026000526000600060206000600073a000000000000000000000000000000000000002620186a0f1",
                "nonce" : "0x00",
                "storage" : {
                }
            },
            "0x2000000000000000000000000000000000000001" : {
                "balance" : "0x0a",
                "code" : "0x73b0000000000000000000000000000000000000026000526000600060206000600a73a000000000000000000000000000000000000002620186a0f1",
                "nonce" : "0x00",
                "storage" : {
                }
            },
            "0x3000000000000000000000000000000000000001" : {
                "balance" : "0x0a",
                "code" : "0x73c3000000000000000000000000000000000000026000526000600060206000600073a000000000000000000000000000000000000002620186a0f2",
                "nonce" : "0x00",
                "storage" : {
                }
            },
            "0x4000000000000000000000000000000000000001" : {
                "balance" : "0x0a",
                "code" : "0x73c4000000000000000000000000000000000000026000526000600060206000600173a000000000000000000000000000000000000002620186a0f2",
                "nonce" : "0x00",
                "storage" : {
                }
            },
            "0x5000000000000000000000000000000000000001" : {
                "balance" : "0x0a",
                "code" : "0x73c500000000000000000000000000000000000002600052600060006020600073a000000000000000000000000000000000000002620186a0f4",
                "nonce" : "0x00",
                "storage" : {
                }
            },
            "0xa000000000000000000000000000000000000002" : {
                "balance" : "0x00",
                "code" : "0x600060006000600060003561c350fa600055",
                "nonce" : "0x00",
                "storage" : {
                }
            },
            "0xa94f5374fce5edbc8e2a8697c15331677e6ebf0b" : {
                "balance" : "0xe8d4a51000",
                "code" : "0x",
                "nonce" : "0x00",
                "storage" : {
                }
            },
            "0xb000000000000000000000000000000000000002" : {
                "balance" : "0x00",
                "code" : "0x3273a94f5374fce5edbc8e2a8697c15331677e6ebf0b1460225760026001556028565b60016001525b3373a00000000000000000000000000000000000000214604b5760026001556051565b60016001525b3073b000000000000000000000000000000000000002146074576002600155607a565b60016001525b34600014608a5760026001556090565b60016001525b",
                "nonce" : "0x00",
                "storage" : {
                }
            },
            "0xc300000000000000000000000000000000000002" : {
                "balance" : "0x00",
                "code" : "0x3273a94f5374fce5edbc8e2a8697c15331677e6ebf0b1460225760026001556028565b60016001525b3373300000000000000000000000000000000000000114604b5760026001556051565b60016001525b3073c300000000000000000000000000000000000002146074576002600155607a565b60016001525b34600014608a5760026001556090565b60016001525b",
                "nonce" : "0x00",
                "storage" : {
                }
            },
            "0xc400000000000000000000000000000000000002" : {
                "balance" : "0x00",
                "code" : "0x3273a94f5374fce5edbc8e2a8697c15331677e6ebf0b1460225760026001556028565b60016001525b3373400000000000000000000000000000000000000114604b5760026001556051565b60016001525b3073c400000000000000000000000000000000000002146074576002600155607a565b60016001525b34600014608a5760026001556090565b60016001525b",
                "nonce" : "0x00",
                "storage" : {
                }
            },
            "0xc500000000000000000000000000000000000002" : {
                "balance" : "0x00",
                "code" : "0x3273a94f5374fce5edbc8e2a8697c15331677e6ebf0b1460225760026001556028565b60016001525b3373500000000000000000000000000000000000000114604b5760026001556051565b60016001525b3073c500000000000000000000000000000000000002146074576002600155607a565b60016001525b34600014608a5760026001556090565b60016001525b",
                "nonce" : "0x00",
                "storage" : {
                }
            }
        },
        "sealEngine" : "NoProof"
    },
    "static_CheckOpcodes5_d2g0v0_ConstantinopleFix" : {
        "_info" : {
            "comment" : "",
            "filledwith" : "testeth 1.7.0-alpha.1-20+commit.782a7283",
            "lllcversion" : "Version: 0.5.0-develop.2018.11.9+commit.9709dfe0.Linux.g++",
            "source" : "src/BlockchainTestsFiller/GeneralStateTests/stStaticCall/static_CheckOpcodes5_d2g0v0Filler.json",
            "sourceHash" : "d1f0d70eda76c7d844472685bfa0390162b4017f0bcba1af50c41d6b0af84a15"
        },
        "blocks" : [
            {
                "blockHeader" : {
                    "bloom" : "0x00000000000000000000000000000000000000000000000000000000000000000000000000000000000000000000000000000000000000000000000000000000000000000000000000000000000000000000000000000000000000000000000000000000000000000000000000000000000000000000000000000000000000000000000000000000000000000000000000000000000000000000000000000000000000000000000000000000000000000000000000000000000000000000000000000000000000000000000000000000000000000000000000000000000000000000000000000000000000000000000000000000000000000000000000000000",
                    "coinbase" : "0x2adc25665018aa1fe0e6bc666dac8fc2697ff9ba",
                    "difficulty" : "0x020000",
                    "extraData" : "0x",
                    "gasLimit" : "0x989680",
                    "gasUsed" : "0xc350",
                    "hash" : "0xff9b7b507fc0d3fd000baa663d94d2727209767b93707412b06fa2656a903839",
                    "mixHash" : "0x0000000000000000000000000000000000000000000000000000000000000000",
                    "nonce" : "0x0000000000000000",
                    "number" : "0x01",
                    "parentHash" : "0x900073cc62adaf884784ad0a17a947e6854082ece3c13dc9252853f81cb35e03",
                    "receiptTrie" : "0xda0b41af4a22c1b5f9367dfc140949e53c819bbb2c6e8299d4f2b44f25670bb0",
                    "stateRoot" : "0x1d1f84179d31476c0ed1787a69c1f68e4a5a93f3f23e3461df4744f469d54c0f",
                    "timestamp" : "0x03e8",
                    "transactionsTrie" : "0x09de9898f5aa45f956a70953922b3cc52e45e209f163466d29ceb773d2f7cf74",
                    "uncleHash" : "0x1dcc4de8dec75d7aab85b567b6ccd41ad312451b948a7413f0a142fd40d49347"
                },
                "rlp" : "0xf9027ef901f7a0900073cc62adaf884784ad0a17a947e6854082ece3c13dc9252853f81cb35e03a01dcc4de8dec75d7aab85b567b6ccd41ad312451b948a7413f0a142fd40d49347942adc25665018aa1fe0e6bc666dac8fc2697ff9baa01d1f84179d31476c0ed1787a69c1f68e4a5a93f3f23e3461df4744f469d54c0fa009de9898f5aa45f956a70953922b3cc52e45e209f163466d29ceb773d2f7cf74a0da0b41af4a22c1b5f9367dfc140949e53c819bbb2c6e8299d4f2b44f25670bb0b901000000000000000000000000000000000000000000000000000000000000000000000000000000000000000000000000000000000000000000000000000000000000000000000000000000000000000000000000000000000000000000000000000000000000000000000000000000000000000000000000000000000000000000000000000000000000000000000000000000000000000000000000000000000000000000000000000000000000000000000000000000000000000000000000000000000000000000000000000000000000000000000000000000000000000000000000000000000000000000000000000000000000000000000000000000000083020000018398968082c3508203e880a00000000000000000000000000000000000000000000000000000000000000000880000000000000000f881f87f800182c35094100000000000000000000000000000000000000080a000000000000000000000000030000000000000000000000000000000000000011ba0602a3344da3427823dba8b8ff85b0dfc5a31136a5668456030bef024ac706480a017dfc6d6065b81670e66983c8665a7f84e3712829eba7afc690cc48cb3b0cee8c0",
                "transactions" : [
                    {
                        "data" : "0x0000000000000000000000003000000000000000000000000000000000000001",
                        "gasLimit" : "0xc350",
                        "gasPrice" : "0x01",
                        "nonce" : "0x00",
                        "r" : "0x602a3344da3427823dba8b8ff85b0dfc5a31136a5668456030bef024ac706480",
                        "s" : "0x17dfc6d6065b81670e66983c8665a7f84e3712829eba7afc690cc48cb3b0cee8",
                        "to" : "0x1000000000000000000000000000000000000000",
                        "v" : "0x1b",
                        "value" : "0x00"
                    }
                ],
                "uncleHeaders" : [
                ]
            }
        ],
        "genesisBlockHeader" : {
            "bloom" : "0x00000000000000000000000000000000000000000000000000000000000000000000000000000000000000000000000000000000000000000000000000000000000000000000000000000000000000000000000000000000000000000000000000000000000000000000000000000000000000000000000000000000000000000000000000000000000000000000000000000000000000000000000000000000000000000000000000000000000000000000000000000000000000000000000000000000000000000000000000000000000000000000000000000000000000000000000000000000000000000000000000000000000000000000000000000000",
            "coinbase" : "0x2adc25665018aa1fe0e6bc666dac8fc2697ff9ba",
            "difficulty" : "0x020000",
            "extraData" : "0x42",
            "gasLimit" : "0x989680",
            "gasUsed" : "0x00",
            "hash" : "0x900073cc62adaf884784ad0a17a947e6854082ece3c13dc9252853f81cb35e03",
            "mixHash" : "0x56e81f171bcc55a6ff8345e692c0f86e5b48e01b996cadc001622fb5e363b421",
            "nonce" : "0x0102030405060708",
            "number" : "0x00",
            "parentHash" : "0x0000000000000000000000000000000000000000000000000000000000000000",
            "receiptTrie" : "0x56e81f171bcc55a6ff8345e692c0f86e5b48e01b996cadc001622fb5e363b421",
            "stateRoot" : "0x739118fbd836a83e090c5f4a7b6ba1c767a2761db7c467657b1a3660adbe574f",
            "timestamp" : "0x03b6",
            "transactionsTrie" : "0x56e81f171bcc55a6ff8345e692c0f86e5b48e01b996cadc001622fb5e363b421",
            "uncleHash" : "0x1dcc4de8dec75d7aab85b567b6ccd41ad312451b948a7413f0a142fd40d49347"
        },
        "genesisRLP" : "0xf901faf901f5a00000000000000000000000000000000000000000000000000000000000000000a01dcc4de8dec75d7aab85b567b6ccd41ad312451b948a7413f0a142fd40d49347942adc25665018aa1fe0e6bc666dac8fc2697ff9baa0739118fbd836a83e090c5f4a7b6ba1c767a2761db7c467657b1a3660adbe574fa056e81f171bcc55a6ff8345e692c0f86e5b48e01b996cadc001622fb5e363b421a056e81f171bcc55a6ff8345e692c0f86e5b48e01b996cadc001622fb5e363b421b9010000000000000000000000000000000000000000000000000000000000000000000000000000000000000000000000000000000000000000000000000000000000000000000000000000000000000000000000000000000000000000000000000000000000000000000000000000000000000000000000000000000000000000000000000000000000000000000000000000000000000000000000000000000000000000000000000000000000000000000000000000000000000000000000000000000000000000000000000000000000000000000000000000000000000000000000000000000000000000000000000000000000000000000000000000000000830200008083989680808203b642a056e81f171bcc55a6ff8345e692c0f86e5b48e01b996cadc001622fb5e363b421880102030405060708c0c0",
        "lastblockhash" : "0xff9b7b507fc0d3fd000baa663d94d2727209767b93707412b06fa2656a903839",
        "network" : "ConstantinopleFix",
        "postState" : {
            "0x1000000000000000000000000000000000000000" : {
                "balance" : "0x00",
                "code" : "0x600060006000600060006000356203d090f1600155",
                "nonce" : "0x00",
                "storage" : {
                }
            },
            "0x1000000000000000000000000000000000000001" : {
                "balance" : "0x00",
                "code" : "0x73b0000000000000000000000000000000000000026000526000600060206000600073a000000000000000000000000000000000000002620186a0f1",
                "nonce" : "0x00",
                "storage" : {
                }
            },
            "0x2000000000000000000000000000000000000001" : {
                "balance" : "0x0a",
                "code" : "0x73b0000000000000000000000000000000000000026000526000600060206000600a73a000000000000000000000000000000000000002620186a0f1",
                "nonce" : "0x00",
                "storage" : {
                }
            },
            "0x2adc25665018aa1fe0e6bc666dac8fc2697ff9ba" : {
                "balance" : "0x1bc16d674ec8c350",
                "code" : "0x",
                "nonce" : "0x00",
                "storage" : {
                }
            },
            "0x3000000000000000000000000000000000000001" : {
                "balance" : "0x0a",
                "code" : "0x73c3000000000000000000000000000000000000026000526000600060206000600073a000000000000000000000000000000000000002620186a0f2",
                "nonce" : "0x00",
                "storage" : {
                }
            },
            "0x4000000000000000000000000000000000000001" : {
                "balance" : "0x0a",
                "code" : "0x73c4000000000000000000000000000000000000026000526000600060206000600173a000000000000000000000000000000000000002620186a0f2",
                "nonce" : "0x00",
                "storage" : {
                }
            },
            "0x5000000000000000000000000000000000000001" : {
                "balance" : "0x0a",
                "code" : "0x73c500000000000000000000000000000000000002600052600060006020600073a000000000000000000000000000000000000002620186a0f4",
                "nonce" : "0x00",
                "storage" : {
                }
            },
            "0xa000000000000000000000000000000000000002" : {
                "balance" : "0x00",
                "code" : "0x600060006000600060003561c350fa600055",
                "nonce" : "0x00",
                "storage" : {
                }
            },
            "0xa94f5374fce5edbc8e2a8697c15331677e6ebf0b" : {
                "balance" : "0xe8d4a44cb0",
                "code" : "0x",
                "nonce" : "0x01",
                "storage" : {
                }
            },
            "0xb000000000000000000000000000000000000002" : {
                "balance" : "0x00",
                "code" : "0x3273a94f5374fce5edbc8e2a8697c15331677e6ebf0b1460225760026001556028565b60016001525b3373a00000000000000000000000000000000000000214604b5760026001556051565b60016001525b3073b000000000000000000000000000000000000002146074576002600155607a565b60016001525b34600014608a5760026001556090565b60016001525b",
                "nonce" : "0x00",
                "storage" : {
                }
            },
            "0xc300000000000000000000000000000000000002" : {
                "balance" : "0x00",
                "code" : "0x3273a94f5374fce5edbc8e2a8697c15331677e6ebf0b1460225760026001556028565b60016001525b3373300000000000000000000000000000000000000114604b5760026001556051565b60016001525b3073c300000000000000000000000000000000000002146074576002600155607a565b60016001525b34600014608a5760026001556090565b60016001525b",
                "nonce" : "0x00",
                "storage" : {
                }
            },
            "0xc400000000000000000000000000000000000002" : {
                "balance" : "0x00",
                "code" : "0x3273a94f5374fce5edbc8e2a8697c15331677e6ebf0b1460225760026001556028565b60016001525b3373400000000000000000000000000000000000000114604b5760026001556051565b60016001525b3073c400000000000000000000000000000000000002146074576002600155607a565b60016001525b34600014608a5760026001556090565b60016001525b",
                "nonce" : "0x00",
                "storage" : {
                }
            },
            "0xc500000000000000000000000000000000000002" : {
                "balance" : "0x00",
                "code" : "0x3273a94f5374fce5edbc8e2a8697c15331677e6ebf0b1460225760026001556028565b60016001525b3373500000000000000000000000000000000000000114604b5760026001556051565b60016001525b3073c500000000000000000000000000000000000002146074576002600155607a565b60016001525b34600014608a5760026001556090565b60016001525b",
                "nonce" : "0x00",
                "storage" : {
                }
            }
        },
        "pre" : {
            "0x1000000000000000000000000000000000000000" : {
                "balance" : "0x00",
                "code" : "0x600060006000600060006000356203d090f1600155",
                "nonce" : "0x00",
                "storage" : {
                }
            },
            "0x1000000000000000000000000000000000000001" : {
                "balance" : "0x00",
                "code" : "0x73b0000000000000000000000000000000000000026000526000600060206000600073a000000000000000000000000000000000000002620186a0f1",
                "nonce" : "0x00",
                "storage" : {
                }
            },
            "0x2000000000000000000000000000000000000001" : {
                "balance" : "0x0a",
                "code" : "0x73b0000000000000000000000000000000000000026000526000600060206000600a73a000000000000000000000000000000000000002620186a0f1",
                "nonce" : "0x00",
                "storage" : {
                }
            },
            "0x3000000000000000000000000000000000000001" : {
                "balance" : "0x0a",
                "code" : "0x73c3000000000000000000000000000000000000026000526000600060206000600073a000000000000000000000000000000000000002620186a0f2",
                "nonce" : "0x00",
                "storage" : {
                }
            },
            "0x4000000000000000000000000000000000000001" : {
                "balance" : "0x0a",
                "code" : "0x73c4000000000000000000000000000000000000026000526000600060206000600173a000000000000000000000000000000000000002620186a0f2",
                "nonce" : "0x00",
                "storage" : {
                }
            },
            "0x5000000000000000000000000000000000000001" : {
                "balance" : "0x0a",
                "code" : "0x73c500000000000000000000000000000000000002600052600060006020600073a000000000000000000000000000000000000002620186a0f4",
                "nonce" : "0x00",
                "storage" : {
                }
            },
            "0xa000000000000000000000000000000000000002" : {
                "balance" : "0x00",
                "code" : "0x600060006000600060003561c350fa600055",
                "nonce" : "0x00",
                "storage" : {
                }
            },
            "0xa94f5374fce5edbc8e2a8697c15331677e6ebf0b" : {
                "balance" : "0xe8d4a51000",
                "code" : "0x",
                "nonce" : "0x00",
                "storage" : {
                }
            },
            "0xb000000000000000000000000000000000000002" : {
                "balance" : "0x00",
                "code" : "0x3273a94f5374fce5edbc8e2a8697c15331677e6ebf0b1460225760026001556028565b60016001525b3373a00000000000000000000000000000000000000214604b5760026001556051565b60016001525b3073b000000000000000000000000000000000000002146074576002600155607a565b60016001525b34600014608a5760026001556090565b60016001525b",
                "nonce" : "0x00",
                "storage" : {
                }
            },
            "0xc300000000000000000000000000000000000002" : {
                "balance" : "0x00",
                "code" : "0x3273a94f5374fce5edbc8e2a8697c15331677e6ebf0b1460225760026001556028565b60016001525b3373300000000000000000000000000000000000000114604b5760026001556051565b60016001525b3073c300000000000000000000000000000000000002146074576002600155607a565b60016001525b34600014608a5760026001556090565b60016001525b",
                "nonce" : "0x00",
                "storage" : {
                }
            },
            "0xc400000000000000000000000000000000000002" : {
                "balance" : "0x00",
                "code" : "0x3273a94f5374fce5edbc8e2a8697c15331677e6ebf0b1460225760026001556028565b60016001525b3373400000000000000000000000000000000000000114604b5760026001556051565b60016001525b3073c400000000000000000000000000000000000002146074576002600155607a565b60016001525b34600014608a5760026001556090565b60016001525b",
                "nonce" : "0x00",
                "storage" : {
                }
            },
            "0xc500000000000000000000000000000000000002" : {
                "balance" : "0x00",
                "code" : "0x3273a94f5374fce5edbc8e2a8697c15331677e6ebf0b1460225760026001556028565b60016001525b3373500000000000000000000000000000000000000114604b5760026001556051565b60016001525b3073c500000000000000000000000000000000000002146074576002600155607a565b60016001525b34600014608a5760026001556090565b60016001525b",
                "nonce" : "0x00",
                "storage" : {
                }
            }
        },
        "sealEngine" : "NoProof"
    }
}