{
    "static_CallRecursiveBomb0_OOG_atMaxCallDepth_d0g0v0_Byzantium" : {
        "_info" : {
            "comment" : "",
            "filledwith" : "testeth 1.7.0-alpha.1-20+commit.782a7283",
            "lllcversion" : "Version: 0.5.0-develop.2018.11.9+commit.9709dfe0.Linux.g++",
            "source" : "src/BlockchainTestsFiller/GeneralStateTests/stStaticCall/static_CallRecursiveBomb0_OOG_atMaxCallDepth_d0g0v0Filler.json",
            "sourceHash" : "1f74ec059e13333399c62ee8418d01ecb84a4069f857953061b82168c5c18e02"
        },
        "blocks" : [
            {
                "blockHeader" : {
                    "bloom" : "0x00000000000000000000000000000000000000000000000000000000000000000000000000000000000000000000000000000000000000000000000000000000000000000000000000000000000000000000000000000000000000000000000000000000000000000000000000000000000000000000000000000000000000000000000000000000000000000000000000000000000000000000000000000000000000000000000000000000000000000000000000000000000000000000000000000000000000000000000000000000000000000000000000000000000000000000000000000000000000000000000000000000000000000000000000000000",
                    "coinbase" : "0x2adc25665018aa1fe0e6bc666dac8fc2697ff9ba",
                    "difficulty" : "0x020000",
                    "extraData" : "0x",
                    "gasLimit" : "0x199c82cc00",
                    "gasUsed" : "0x168fa80908",
                    "hash" : "0x84599cfbc126e37954edf925ac92f00e4ac91deb9135007a151ebe9646eab2fa",
                    "mixHash" : "0x0000000000000000000000000000000000000000000000000000000000000000",
                    "nonce" : "0x0000000000000000",
                    "number" : "0x01",
                    "parentHash" : "0xadd9927f32fd4c19ab7f2cbae97f6e79d1dc5e7fd7f86300add689888dd82834",
                    "receiptTrie" : "0x7512d0ef4a6d02d63eccd8301b7df2e1891fa54cae9a182ebe1f642bc224af53",
                    "stateRoot" : "0x8c339e6619b8753937bfd88dd50a6c8d1728842f8f68db2ca76d492b3d410d40",
                    "timestamp" : "0x03e8",
                    "transactionsTrie" : "0xb013404fe3d35feb3b26bc47b5b57955a03e16c7db2ea31f3814f9463efa73f1",
                    "uncleHash" : "0x1dcc4de8dec75d7aab85b567b6ccd41ad312451b948a7413f0a142fd40d49347"
                },
                "rlp" : "0xf90269f901fca0add9927f32fd4c19ab7f2cbae97f6e79d1dc5e7fd7f86300add689888dd82834a01dcc4de8dec75d7aab85b567b6ccd41ad312451b948a7413f0a142fd40d49347942adc25665018aa1fe0e6bc666dac8fc2697ff9baa08c339e6619b8753937bfd88dd50a6c8d1728842f8f68db2ca76d492b3d410d40a0b013404fe3d35feb3b26bc47b5b57955a03e16c7db2ea31f3814f9463efa73f1a07512d0ef4a6d02d63eccd8301b7df2e1891fa54cae9a182ebe1f642bc224af53b9010000000000000000000000000000000000000000000000000000000000000000000000000000000000000000000000000000000000000000000000000000000000000000000000000000000000000000000000000000000000000000000000000000000000000000000000000000000000000000000000000000000000000000000000000000000000000000000000000000000000000000000000000000000000000000000000000000000000000000000000000000000000000000000000000000000000000000000000000000000000000000000000000000000000000000000000000000000000000000000000000000000000000000000000000000000000830200000185199c82cc0085168fa809088203e880a00000000000000000000000000000000000000000000000000000000000000000880000000000000000f867f865800185174876e80094195e7baea6a6c7c4c2dfeb977efac326af552d87830186a0801ca0fec65843b157b6079b5e445a46af9cf684352cfa2a1dfbacfc05fdc03ce7951ca02b47a2842469d54078fb3835ed35ac1aa387057a25db3b36b5afcb56bed7201cc0",
                "transactions" : [
                    {
                        "data" : "0x",
                        "gasLimit" : "0x174876e800",
                        "gasPrice" : "0x01",
                        "nonce" : "0x00",
                        "r" : "0xfec65843b157b6079b5e445a46af9cf684352cfa2a1dfbacfc05fdc03ce7951c",
                        "s" : "0x2b47a2842469d54078fb3835ed35ac1aa387057a25db3b36b5afcb56bed7201c",
                        "to" : "0x195e7baea6a6c7c4c2dfeb977efac326af552d87",
                        "v" : "0x1c",
                        "value" : "0x0186a0"
                    }
                ],
                "uncleHeaders" : [
                ]
            }
        ],
        "genesisBlockHeader" : {
            "bloom" : "0x00000000000000000000000000000000000000000000000000000000000000000000000000000000000000000000000000000000000000000000000000000000000000000000000000000000000000000000000000000000000000000000000000000000000000000000000000000000000000000000000000000000000000000000000000000000000000000000000000000000000000000000000000000000000000000000000000000000000000000000000000000000000000000000000000000000000000000000000000000000000000000000000000000000000000000000000000000000000000000000000000000000000000000000000000000000",
            "coinbase" : "0x2adc25665018aa1fe0e6bc666dac8fc2697ff9ba",
            "difficulty" : "0x020000",
            "extraData" : "0x42",
            "gasLimit" : "0x199c82cc00",
            "gasUsed" : "0x00",
            "hash" : "0xadd9927f32fd4c19ab7f2cbae97f6e79d1dc5e7fd7f86300add689888dd82834",
            "mixHash" : "0x56e81f171bcc55a6ff8345e692c0f86e5b48e01b996cadc001622fb5e363b421",
            "nonce" : "0x0102030405060708",
            "number" : "0x00",
            "parentHash" : "0x0000000000000000000000000000000000000000000000000000000000000000",
            "receiptTrie" : "0x56e81f171bcc55a6ff8345e692c0f86e5b48e01b996cadc001622fb5e363b421",
            "stateRoot" : "0xaca3b0d97475f3400000399972e3434bd0cb46758f12c32f3be43d72909a53d1",
            "timestamp" : "0x03b6",
            "transactionsTrie" : "0x56e81f171bcc55a6ff8345e692c0f86e5b48e01b996cadc001622fb5e363b421",
            "uncleHash" : "0x1dcc4de8dec75d7aab85b567b6ccd41ad312451b948a7413f0a142fd40d49347"
        },
        "genesisRLP" : "0xf901fcf901f7a00000000000000000000000000000000000000000000000000000000000000000a01dcc4de8dec75d7aab85b567b6ccd41ad312451b948a7413f0a142fd40d49347942adc25665018aa1fe0e6bc666dac8fc2697ff9baa0aca3b0d97475f3400000399972e3434bd0cb46758f12c32f3be43d72909a53d1a056e81f171bcc55a6ff8345e692c0f86e5b48e01b996cadc001622fb5e363b421a056e81f171bcc55a6ff8345e692c0f86e5b48e01b996cadc001622fb5e363b421b9010000000000000000000000000000000000000000000000000000000000000000000000000000000000000000000000000000000000000000000000000000000000000000000000000000000000000000000000000000000000000000000000000000000000000000000000000000000000000000000000000000000000000000000000000000000000000000000000000000000000000000000000000000000000000000000000000000000000000000000000000000000000000000000000000000000000000000000000000000000000000000000000000000000000000000000000000000000000000000000000000000000000000000000000000000000000830200008085199c82cc00808203b642a056e81f171bcc55a6ff8345e692c0f86e5b48e01b996cadc001622fb5e363b421880102030405060708c0c0",
        "lastblockhash" : "0x84599cfbc126e37954edf925ac92f00e4ac91deb9135007a151ebe9646eab2fa",
        "network" : "Byzantium",
        "postState" : {
            "0x095e7baea6a6c7c4c2dfeb977efac326af552d87" : {
                "balance" : "0x01312d00",
                "code" : "0x600160005401600052690fffffffffffffffffff610402600051040260025260006000690fffffffffffffffffff61040260005104026000306104005a03fa",
                "nonce" : "0x00",
                "storage" : {
                }
            },
            "0x195e7baea6a6c7c4c2dfeb977efac326af552d87" : {
                "balance" : "0x0132b3a0",
                "code" : "0x6000600060006000600073095e7baea6a6c7c4c2dfeb977efac326af552d875af2505a600155",
                "nonce" : "0x00",
                "storage" : {
                    "0x01" : "0xb8cf2d1b"
                }
            },
            "0x2adc25665018aa1fe0e6bc666dac8fc2697ff9ba" : {
                "balance" : "0x29a2243185d40908",
                "code" : "0x",
                "nonce" : "0x00",
                "storage" : {
                }
            },
            "0xa94f5374fce5edbc8e2a8697c15331677e6ebf0b" : {
                "balance" : "0x0de0b69d17ba7058",
                "code" : "0x",
                "nonce" : "0x01",
                "storage" : {
                }
            }
        },
        "pre" : {
            "0x095e7baea6a6c7c4c2dfeb977efac326af552d87" : {
                "balance" : "0x01312d00",
                "code" : "0x600160005401600052690fffffffffffffffffff610402600051040260025260006000690fffffffffffffffffff61040260005104026000306104005a03fa",
                "nonce" : "0x00",
                "storage" : {
                }
            },
            "0x195e7baea6a6c7c4c2dfeb977efac326af552d87" : {
                "balance" : "0x01312d00",
                "code" : "0x6000600060006000600073095e7baea6a6c7c4c2dfeb977efac326af552d875af2505a600155",
                "nonce" : "0x00",
                "storage" : {
                }
            },
            "0xa94f5374fce5edbc8e2a8697c15331677e6ebf0b" : {
                "balance" : "0x0de0b6b3a7640000",
                "code" : "0x",
                "nonce" : "0x00",
                "storage" : {
                }
            }
        },
        "sealEngine" : "NoProof"
    },
    "static_CallRecursiveBomb0_OOG_atMaxCallDepth_d0g0v0_Constantinople" : {
        "_info" : {
            "comment" : "",
            "filledwith" : "testeth 1.7.0-alpha.1-20+commit.782a7283",
            "lllcversion" : "Version: 0.5.0-develop.2018.11.9+commit.9709dfe0.Linux.g++",
            "source" : "src/BlockchainTestsFiller/GeneralStateTests/stStaticCall/static_CallRecursiveBomb0_OOG_atMaxCallDepth_d0g0v0Filler.json",
            "sourceHash" : "1f74ec059e13333399c62ee8418d01ecb84a4069f857953061b82168c5c18e02"
        },
        "blocks" : [
            {
                "blockHeader" : {
                    "bloom" : "0x00000000000000000000000000000000000000000000000000000000000000000000000000000000000000000000000000000000000000000000000000000000000000000000000000000000000000000000000000000000000000000000000000000000000000000000000000000000000000000000000000000000000000000000000000000000000000000000000000000000000000000000000000000000000000000000000000000000000000000000000000000000000000000000000000000000000000000000000000000000000000000000000000000000000000000000000000000000000000000000000000000000000000000000000000000000",
                    "coinbase" : "0x2adc25665018aa1fe0e6bc666dac8fc2697ff9ba",
                    "difficulty" : "0x020000",
                    "extraData" : "0x",
                    "gasLimit" : "0x199c82cc00",
                    "gasUsed" : "0x168fa80908",
                    "hash" : "0x554a4de48ebee861a71e271bb1eb7d1209cd8f62b060d8213050e6291656a209",
                    "mixHash" : "0x0000000000000000000000000000000000000000000000000000000000000000",
                    "nonce" : "0x0000000000000000",
                    "number" : "0x01",
                    "parentHash" : "0xadd9927f32fd4c19ab7f2cbae97f6e79d1dc5e7fd7f86300add689888dd82834",
                    "receiptTrie" : "0x7512d0ef4a6d02d63eccd8301b7df2e1891fa54cae9a182ebe1f642bc224af53",
                    "stateRoot" : "0x8f23b4207cc56365fad0d6582e64fb891ce68f3cee7f39f25e4fc562f5c9bdf8",
                    "timestamp" : "0x03e8",
                    "transactionsTrie" : "0xb013404fe3d35feb3b26bc47b5b57955a03e16c7db2ea31f3814f9463efa73f1",
                    "uncleHash" : "0x1dcc4de8dec75d7aab85b567b6ccd41ad312451b948a7413f0a142fd40d49347"
                },
                "rlp" : "0xf90269f901fca0add9927f32fd4c19ab7f2cbae97f6e79d1dc5e7fd7f86300add689888dd82834a01dcc4de8dec75d7aab85b567b6ccd41ad312451b948a7413f0a142fd40d49347942adc25665018aa1fe0e6bc666dac8fc2697ff9baa08f23b4207cc56365fad0d6582e64fb891ce68f3cee7f39f25e4fc562f5c9bdf8a0b013404fe3d35feb3b26bc47b5b57955a03e16c7db2ea31f3814f9463efa73f1a07512d0ef4a6d02d63eccd8301b7df2e1891fa54cae9a182ebe1f642bc224af53b9010000000000000000000000000000000000000000000000000000000000000000000000000000000000000000000000000000000000000000000000000000000000000000000000000000000000000000000000000000000000000000000000000000000000000000000000000000000000000000000000000000000000000000000000000000000000000000000000000000000000000000000000000000000000000000000000000000000000000000000000000000000000000000000000000000000000000000000000000000000000000000000000000000000000000000000000000000000000000000000000000000000000000000000000000000000000830200000185199c82cc0085168fa809088203e880a00000000000000000000000000000000000000000000000000000000000000000880000000000000000f867f865800185174876e80094195e7baea6a6c7c4c2dfeb977efac326af552d87830186a0801ca0fec65843b157b6079b5e445a46af9cf684352cfa2a1dfbacfc05fdc03ce7951ca02b47a2842469d54078fb3835ed35ac1aa387057a25db3b36b5afcb56bed7201cc0",
                "transactions" : [
                    {
                        "data" : "0x",
                        "gasLimit" : "0x174876e800",
                        "gasPrice" : "0x01",
                        "nonce" : "0x00",
                        "r" : "0xfec65843b157b6079b5e445a46af9cf684352cfa2a1dfbacfc05fdc03ce7951c",
                        "s" : "0x2b47a2842469d54078fb3835ed35ac1aa387057a25db3b36b5afcb56bed7201c",
                        "to" : "0x195e7baea6a6c7c4c2dfeb977efac326af552d87",
                        "v" : "0x1c",
                        "value" : "0x0186a0"
                    }
                ],
                "uncleHeaders" : [
                ]
            }
        ],
        "genesisBlockHeader" : {
            "bloom" : "0x00000000000000000000000000000000000000000000000000000000000000000000000000000000000000000000000000000000000000000000000000000000000000000000000000000000000000000000000000000000000000000000000000000000000000000000000000000000000000000000000000000000000000000000000000000000000000000000000000000000000000000000000000000000000000000000000000000000000000000000000000000000000000000000000000000000000000000000000000000000000000000000000000000000000000000000000000000000000000000000000000000000000000000000000000000000",
            "coinbase" : "0x2adc25665018aa1fe0e6bc666dac8fc2697ff9ba",
            "difficulty" : "0x020000",
            "extraData" : "0x42",
            "gasLimit" : "0x199c82cc00",
            "gasUsed" : "0x00",
            "hash" : "0xadd9927f32fd4c19ab7f2cbae97f6e79d1dc5e7fd7f86300add689888dd82834",
            "mixHash" : "0x56e81f171bcc55a6ff8345e692c0f86e5b48e01b996cadc001622fb5e363b421",
            "nonce" : "0x0102030405060708",
            "number" : "0x00",
            "parentHash" : "0x0000000000000000000000000000000000000000000000000000000000000000",
            "receiptTrie" : "0x56e81f171bcc55a6ff8345e692c0f86e5b48e01b996cadc001622fb5e363b421",
            "stateRoot" : "0xaca3b0d97475f3400000399972e3434bd0cb46758f12c32f3be43d72909a53d1",
            "timestamp" : "0x03b6",
            "transactionsTrie" : "0x56e81f171bcc55a6ff8345e692c0f86e5b48e01b996cadc001622fb5e363b421",
            "uncleHash" : "0x1dcc4de8dec75d7aab85b567b6ccd41ad312451b948a7413f0a142fd40d49347"
        },
        "genesisRLP" : "0xf901fcf901f7a00000000000000000000000000000000000000000000000000000000000000000a01dcc4de8dec75d7aab85b567b6ccd41ad312451b948a7413f0a142fd40d49347942adc25665018aa1fe0e6bc666dac8fc2697ff9baa0aca3b0d97475f3400000399972e3434bd0cb46758f12c32f3be43d72909a53d1a056e81f171bcc55a6ff8345e692c0f86e5b48e01b996cadc001622fb5e363b421a056e81f171bcc55a6ff8345e692c0f86e5b48e01b996cadc001622fb5e363b421b9010000000000000000000000000000000000000000000000000000000000000000000000000000000000000000000000000000000000000000000000000000000000000000000000000000000000000000000000000000000000000000000000000000000000000000000000000000000000000000000000000000000000000000000000000000000000000000000000000000000000000000000000000000000000000000000000000000000000000000000000000000000000000000000000000000000000000000000000000000000000000000000000000000000000000000000000000000000000000000000000000000000000000000000000000000000000830200008085199c82cc00808203b642a056e81f171bcc55a6ff8345e692c0f86e5b48e01b996cadc001622fb5e363b421880102030405060708c0c0",
        "lastblockhash" : "0x554a4de48ebee861a71e271bb1eb7d1209cd8f62b060d8213050e6291656a209",
        "network" : "Constantinople",
        "postState" : {
            "0x095e7baea6a6c7c4c2dfeb977efac326af552d87" : {
                "balance" : "0x01312d00",
                "code" : "0x600160005401600052690fffffffffffffffffff610402600051040260025260006000690fffffffffffffffffff61040260005104026000306104005a03fa",
                "nonce" : "0x00",
                "storage" : {
                }
            },
            "0x195e7baea6a6c7c4c2dfeb977efac326af552d87" : {
                "balance" : "0x0132b3a0",
                "code" : "0x6000600060006000600073095e7baea6a6c7c4c2dfeb977efac326af552d875af2505a600155",
                "nonce" : "0x00",
                "storage" : {
                    "0x01" : "0xb8cf2d1b"
                }
            },
            "0x2adc25665018aa1fe0e6bc666dac8fc2697ff9ba" : {
                "balance" : "0x1bc16d7dde700908",
                "code" : "0x",
                "nonce" : "0x00",
                "storage" : {
                }
            },
            "0xa94f5374fce5edbc8e2a8697c15331677e6ebf0b" : {
                "balance" : "0x0de0b69d17ba7058",
                "code" : "0x",
                "nonce" : "0x01",
                "storage" : {
                }
            }
        },
        "pre" : {
            "0x095e7baea6a6c7c4c2dfeb977efac326af552d87" : {
                "balance" : "0x01312d00",
                "code" : "0x600160005401600052690fffffffffffffffffff610402600051040260025260006000690fffffffffffffffffff61040260005104026000306104005a03fa",
                "nonce" : "0x00",
                "storage" : {
                }
            },
            "0x195e7baea6a6c7c4c2dfeb977efac326af552d87" : {
                "balance" : "0x01312d00",
                "code" : "0x6000600060006000600073095e7baea6a6c7c4c2dfeb977efac326af552d875af2505a600155",
                "nonce" : "0x00",
                "storage" : {
                }
            },
            "0xa94f5374fce5edbc8e2a8697c15331677e6ebf0b" : {
                "balance" : "0x0de0b6b3a7640000",
                "code" : "0x",
                "nonce" : "0x00",
                "storage" : {
                }
            }
        },
        "sealEngine" : "NoProof"
    },
    "static_CallRecursiveBomb0_OOG_atMaxCallDepth_d0g0v0_ConstantinopleFix" : {
        "_info" : {
            "comment" : "",
            "filledwith" : "testeth 1.7.0-alpha.1-20+commit.782a7283",
            "lllcversion" : "Version: 0.5.0-develop.2018.11.9+commit.9709dfe0.Linux.g++",
            "source" : "src/BlockchainTestsFiller/GeneralStateTests/stStaticCall/static_CallRecursiveBomb0_OOG_atMaxCallDepth_d0g0v0Filler.json",
            "sourceHash" : "1f74ec059e13333399c62ee8418d01ecb84a4069f857953061b82168c5c18e02"
        },
        "blocks" : [
            {
                "blockHeader" : {
                    "bloom" : "0x00000000000000000000000000000000000000000000000000000000000000000000000000000000000000000000000000000000000000000000000000000000000000000000000000000000000000000000000000000000000000000000000000000000000000000000000000000000000000000000000000000000000000000000000000000000000000000000000000000000000000000000000000000000000000000000000000000000000000000000000000000000000000000000000000000000000000000000000000000000000000000000000000000000000000000000000000000000000000000000000000000000000000000000000000000000",
                    "coinbase" : "0x2adc25665018aa1fe0e6bc666dac8fc2697ff9ba",
                    "difficulty" : "0x020000",
                    "extraData" : "0x",
                    "gasLimit" : "0x199c82cc00",
                    "gasUsed" : "0x168fa80908",
                    "hash" : "0x554a4de48ebee861a71e271bb1eb7d1209cd8f62b060d8213050e6291656a209",
                    "mixHash" : "0x0000000000000000000000000000000000000000000000000000000000000000",
                    "nonce" : "0x0000000000000000",
                    "number" : "0x01",
                    "parentHash" : "0xadd9927f32fd4c19ab7f2cbae97f6e79d1dc5e7fd7f86300add689888dd82834",
                    "receiptTrie" : "0x7512d0ef4a6d02d63eccd8301b7df2e1891fa54cae9a182ebe1f642bc224af53",
                    "stateRoot" : "0x8f23b4207cc56365fad0d6582e64fb891ce68f3cee7f39f25e4fc562f5c9bdf8",
                    "timestamp" : "0x03e8",
                    "transactionsTrie" : "0xb013404fe3d35feb3b26bc47b5b57955a03e16c7db2ea31f3814f9463efa73f1",
                    "uncleHash" : "0x1dcc4de8dec75d7aab85b567b6ccd41ad312451b948a7413f0a142fd40d49347"
                },
                "rlp" : "0xf90269f901fca0add9927f32fd4c19ab7f2cbae97f6e79d1dc5e7fd7f86300add689888dd82834a01dcc4de8dec75d7aab85b567b6ccd41ad312451b948a7413f0a142fd40d49347942adc25665018aa1fe0e6bc666dac8fc2697ff9baa08f23b4207cc56365fad0d6582e64fb891ce68f3cee7f39f25e4fc562f5c9bdf8a0b013404fe3d35feb3b26bc47b5b57955a03e16c7db2ea31f3814f9463efa73f1a07512d0ef4a6d02d63eccd8301b7df2e1891fa54cae9a182ebe1f642bc224af53b9010000000000000000000000000000000000000000000000000000000000000000000000000000000000000000000000000000000000000000000000000000000000000000000000000000000000000000000000000000000000000000000000000000000000000000000000000000000000000000000000000000000000000000000000000000000000000000000000000000000000000000000000000000000000000000000000000000000000000000000000000000000000000000000000000000000000000000000000000000000000000000000000000000000000000000000000000000000000000000000000000000000000000000000000000000000000830200000185199c82cc0085168fa809088203e880a00000000000000000000000000000000000000000000000000000000000000000880000000000000000f867f865800185174876e80094195e7baea6a6c7c4c2dfeb977efac326af552d87830186a0801ca0fec65843b157b6079b5e445a46af9cf684352cfa2a1dfbacfc05fdc03ce7951ca02b47a2842469d54078fb3835ed35ac1aa387057a25db3b36b5afcb56bed7201cc0",
                "transactions" : [
                    {
                        "data" : "0x",
                        "gasLimit" : "0x174876e800",
                        "gasPrice" : "0x01",
                        "nonce" : "0x00",
                        "r" : "0xfec65843b157b6079b5e445a46af9cf684352cfa2a1dfbacfc05fdc03ce7951c",
                        "s" : "0x2b47a2842469d54078fb3835ed35ac1aa387057a25db3b36b5afcb56bed7201c",
                        "to" : "0x195e7baea6a6c7c4c2dfeb977efac326af552d87",
                        "v" : "0x1c",
                        "value" : "0x0186a0"
                    }
                ],
                "uncleHeaders" : [
                ]
            }
        ],
        "genesisBlockHeader" : {
            "bloom" : "0x00000000000000000000000000000000000000000000000000000000000000000000000000000000000000000000000000000000000000000000000000000000000000000000000000000000000000000000000000000000000000000000000000000000000000000000000000000000000000000000000000000000000000000000000000000000000000000000000000000000000000000000000000000000000000000000000000000000000000000000000000000000000000000000000000000000000000000000000000000000000000000000000000000000000000000000000000000000000000000000000000000000000000000000000000000000",
            "coinbase" : "0x2adc25665018aa1fe0e6bc666dac8fc2697ff9ba",
            "difficulty" : "0x020000",
            "extraData" : "0x42",
            "gasLimit" : "0x199c82cc00",
            "gasUsed" : "0x00",
            "hash" : "0xadd9927f32fd4c19ab7f2cbae97f6e79d1dc5e7fd7f86300add689888dd82834",
            "mixHash" : "0x56e81f171bcc55a6ff8345e692c0f86e5b48e01b996cadc001622fb5e363b421",
            "nonce" : "0x0102030405060708",
            "number" : "0x00",
            "parentHash" : "0x0000000000000000000000000000000000000000000000000000000000000000",
            "receiptTrie" : "0x56e81f171bcc55a6ff8345e692c0f86e5b48e01b996cadc001622fb5e363b421",
            "stateRoot" : "0xaca3b0d97475f3400000399972e3434bd0cb46758f12c32f3be43d72909a53d1",
            "timestamp" : "0x03b6",
            "transactionsTrie" : "0x56e81f171bcc55a6ff8345e692c0f86e5b48e01b996cadc001622fb5e363b421",
            "uncleHash" : "0x1dcc4de8dec75d7aab85b567b6ccd41ad312451b948a7413f0a142fd40d49347"
        },
        "genesisRLP" : "0xf901fcf901f7a00000000000000000000000000000000000000000000000000000000000000000a01dcc4de8dec75d7aab85b567b6ccd41ad312451b948a7413f0a142fd40d49347942adc25665018aa1fe0e6bc666dac8fc2697ff9baa0aca3b0d97475f3400000399972e3434bd0cb46758f12c32f3be43d72909a53d1a056e81f171bcc55a6ff8345e692c0f86e5b48e01b996cadc001622fb5e363b421a056e81f171bcc55a6ff8345e692c0f86e5b48e01b996cadc001622fb5e363b421b9010000000000000000000000000000000000000000000000000000000000000000000000000000000000000000000000000000000000000000000000000000000000000000000000000000000000000000000000000000000000000000000000000000000000000000000000000000000000000000000000000000000000000000000000000000000000000000000000000000000000000000000000000000000000000000000000000000000000000000000000000000000000000000000000000000000000000000000000000000000000000000000000000000000000000000000000000000000000000000000000000000000000000000000000000000000000830200008085199c82cc00808203b642a056e81f171bcc55a6ff8345e692c0f86e5b48e01b996cadc001622fb5e363b421880102030405060708c0c0",
        "lastblockhash" : "0x554a4de48ebee861a71e271bb1eb7d1209cd8f62b060d8213050e6291656a209",
        "network" : "ConstantinopleFix",
        "postState" : {
            "0x095e7baea6a6c7c4c2dfeb977efac326af552d87" : {
                "balance" : "0x01312d00",
                "code" : "0x600160005401600052690fffffffffffffffffff610402600051040260025260006000690fffffffffffffffffff61040260005104026000306104005a03fa",
                "nonce" : "0x00",
                "storage" : {
                }
            },
            "0x195e7baea6a6c7c4c2dfeb977efac326af552d87" : {
                "balance" : "0x0132b3a0",
                "code" : "0x6000600060006000600073095e7baea6a6c7c4c2dfeb977efac326af552d875af2505a600155",
                "nonce" : "0x00",
                "storage" : {
                    "0x01" : "0xb8cf2d1b"
                }
            },
            "0x2adc25665018aa1fe0e6bc666dac8fc2697ff9ba" : {
                "balance" : "0x1bc16d7dde700908",
                "code" : "0x",
                "nonce" : "0x00",
                "storage" : {
                }
            },
            "0xa94f5374fce5edbc8e2a8697c15331677e6ebf0b" : {
                "balance" : "0x0de0b69d17ba7058",
                "code" : "0x",
                "nonce" : "0x01",
                "storage" : {
                }
            }
        },
        "pre" : {
            "0x095e7baea6a6c7c4c2dfeb977efac326af552d87" : {
                "balance" : "0x01312d00",
                "code" : "0x600160005401600052690fffffffffffffffffff610402600051040260025260006000690fffffffffffffffffff61040260005104026000306104005a03fa",
                "nonce" : "0x00",
                "storage" : {
                }
            },
            "0x195e7baea6a6c7c4c2dfeb977efac326af552d87" : {
                "balance" : "0x01312d00",
                "code" : "0x6000600060006000600073095e7baea6a6c7c4c2dfeb977efac326af552d875af2505a600155",
                "nonce" : "0x00",
                "storage" : {
                }
            },
            "0xa94f5374fce5edbc8e2a8697c15331677e6ebf0b" : {
                "balance" : "0x0de0b6b3a7640000",
                "code" : "0x",
                "nonce" : "0x00",
                "storage" : {
                }
            }
        },
        "sealEngine" : "NoProof"
    }
}