{
    "static_CheckOpcodes4_d0g0v0_Byzantium" : {
        "_info" : {
            "comment" : "",
            "filledwith" : "testeth 1.7.0-alpha.1-20+commit.782a7283",
            "lllcversion" : "Version: 0.5.0-develop.2018.11.9+commit.9709dfe0.Linux.g++",
            "source" : "src/BlockchainTestsFiller/GeneralStateTests/stStaticCall/static_CheckOpcodes4_d0g0v0Filler.json",
            "sourceHash" : "094284e2cc2a4b835d98fe088f7fe17e7c9f5f79e6f04b7a5be1d017661c5247"
        },
        "blocks" : [
            {
                "blockHeader" : {
                    "bloom" : "0x00000000000000000000000000000000000000000000000000000000000000000000000000000000000000000000000000000000000000000000000000000000000000000000000000000000000000000000000000000000000000000000000000000000000000000000000000000000000000000000000000000000000000000000000000000000000000000000000000000000000000000000000000000000000000000000000000000000000000000000000000000000000000000000000000000000000000000000000000000000000000000000000000000000000000000000000000000000000000000000000000000000000000000000000000000000",
                    "coinbase" : "0x2adc25665018aa1fe0e6bc666dac8fc2697ff9ba",
                    "difficulty" : "0x020000",
                    "extraData" : "0x",
                    "gasLimit" : "0x989680",
                    "gasUsed" : "0xc350",
                    "hash" : "0x30f7a5c0f1281ad9861b9f66d1d050b633260aca4d7d6b0b6d07b7f76f4cdb71",
                    "mixHash" : "0x0000000000000000000000000000000000000000000000000000000000000000",
                    "nonce" : "0x0000000000000000",
                    "number" : "0x01",
                    "parentHash" : "0xce316b88eb2908b49f42073120e4c0ce434bed7da49f143c9fc3096c66c4eb74",
                    "receiptTrie" : "0xda0b41af4a22c1b5f9367dfc140949e53c819bbb2c6e8299d4f2b44f25670bb0",
                    "stateRoot" : "0x43a20a789efde794edf1e2625685565bc77eac9848ed2e66f801e1660fe4b51f",
                    "timestamp" : "0x03e8",
                    "transactionsTrie" : "0xb9e2709647ba0e896e1f16210afaa722e3dd4971a67a37298c8038991202b0dd",
                    "uncleHash" : "0x1dcc4de8dec75d7aab85b567b6ccd41ad312451b948a7413f0a142fd40d49347"
                },
                "rlp" : "0xf9025ef901f7a0ce316b88eb2908b49f42073120e4c0ce434bed7da49f143c9fc3096c66c4eb74a01dcc4de8dec75d7aab85b567b6ccd41ad312451b948a7413f0a142fd40d49347942adc25665018aa1fe0e6bc666dac8fc2697ff9baa043a20a789efde794edf1e2625685565bc77eac9848ed2e66f801e1660fe4b51fa0b9e2709647ba0e896e1f16210afaa722e3dd4971a67a37298c8038991202b0dda0da0b41af4a22c1b5f9367dfc140949e53c819bbb2c6e8299d4f2b44f25670bb0b901000000000000000000000000000000000000000000000000000000000000000000000000000000000000000000000000000000000000000000000000000000000000000000000000000000000000000000000000000000000000000000000000000000000000000000000000000000000000000000000000000000000000000000000000000000000000000000000000000000000000000000000000000000000000000000000000000000000000000000000000000000000000000000000000000000000000000000000000000000000000000000000000000000000000000000000000000000000000000000000000000000000000000000000000000000000083020000018398968082c3508203e880a00000000000000000000000000000000000000000000000000000000000000000880000000000000000f861f85f800182c35094100000000000000000000000000000000000000080801ba089f74111f6bfb2622ba11a5d9b62cfa1613f8442e4e9a9627b500f9c79c9a8d0a04ed360e1ea27a14f21ae066d9c1533c2275aacdaf4f4e88b0d98f6c223765564c0",
                "transactions" : [
                    {
                        "data" : "0x",
                        "gasLimit" : "0xc350",
                        "gasPrice" : "0x01",
                        "nonce" : "0x00",
                        "r" : "0x89f74111f6bfb2622ba11a5d9b62cfa1613f8442e4e9a9627b500f9c79c9a8d0",
                        "s" : "0x4ed360e1ea27a14f21ae066d9c1533c2275aacdaf4f4e88b0d98f6c223765564",
                        "to" : "0x1000000000000000000000000000000000000000",
                        "v" : "0x1b",
                        "value" : "0x00"
                    }
                ],
                "uncleHeaders" : [
                ]
            }
        ],
        "genesisBlockHeader" : {
            "bloom" : "0x00000000000000000000000000000000000000000000000000000000000000000000000000000000000000000000000000000000000000000000000000000000000000000000000000000000000000000000000000000000000000000000000000000000000000000000000000000000000000000000000000000000000000000000000000000000000000000000000000000000000000000000000000000000000000000000000000000000000000000000000000000000000000000000000000000000000000000000000000000000000000000000000000000000000000000000000000000000000000000000000000000000000000000000000000000000",
            "coinbase" : "0x2adc25665018aa1fe0e6bc666dac8fc2697ff9ba",
            "difficulty" : "0x020000",
            "extraData" : "0x42",
            "gasLimit" : "0x989680",
            "gasUsed" : "0x00",
            "hash" : "0xce316b88eb2908b49f42073120e4c0ce434bed7da49f143c9fc3096c66c4eb74",
            "mixHash" : "0x56e81f171bcc55a6ff8345e692c0f86e5b48e01b996cadc001622fb5e363b421",
            "nonce" : "0x0102030405060708",
            "number" : "0x00",
            "parentHash" : "0x0000000000000000000000000000000000000000000000000000000000000000",
            "receiptTrie" : "0x56e81f171bcc55a6ff8345e692c0f86e5b48e01b996cadc001622fb5e363b421",
            "stateRoot" : "0xbdc2c2a302fa9523441dfcad8fe6a824e25dd895898632fc4c1f2a365124ec7d",
            "timestamp" : "0x03b6",
            "transactionsTrie" : "0x56e81f171bcc55a6ff8345e692c0f86e5b48e01b996cadc001622fb5e363b421",
            "uncleHash" : "0x1dcc4de8dec75d7aab85b567b6ccd41ad312451b948a7413f0a142fd40d49347"
        },
        "genesisRLP" : "0xf901faf901f5a00000000000000000000000000000000000000000000000000000000000000000a01dcc4de8dec75d7aab85b567b6ccd41ad312451b948a7413f0a142fd40d49347942adc25665018aa1fe0e6bc666dac8fc2697ff9baa0bdc2c2a302fa9523441dfcad8fe6a824e25dd895898632fc4c1f2a365124ec7da056e81f171bcc55a6ff8345e692c0f86e5b48e01b996cadc001622fb5e363b421a056e81f171bcc55a6ff8345e692c0f86e5b48e01b996cadc001622fb5e363b421b9010000000000000000000000000000000000000000000000000000000000000000000000000000000000000000000000000000000000000000000000000000000000000000000000000000000000000000000000000000000000000000000000000000000000000000000000000000000000000000000000000000000000000000000000000000000000000000000000000000000000000000000000000000000000000000000000000000000000000000000000000000000000000000000000000000000000000000000000000000000000000000000000000000000000000000000000000000000000000000000000000000000000000000000000000000000000830200008083989680808203b642a056e81f171bcc55a6ff8345e692c0f86e5b48e01b996cadc001622fb5e363b421880102030405060708c0c0",
        "lastblockhash" : "0x30f7a5c0f1281ad9861b9f66d1d050b633260aca4d7d6b0b6d07b7f76f4cdb71",
        "network" : "Byzantium",
        "postState" : {
            "0x1000000000000000000000000000000000000000" : {
                "balance" : "0x00",
                "code" : "0x6000600060006000731000000000000000000000000000000000000001620186a0fa6001556000600060006000731000000000000000000000000000000000000002620186a0fa60025533600355346004553260055530600655",
                "nonce" : "0x00",
                "storage" : {
                }
            },
            "0x1000000000000000000000000000000000000001" : {
                "balance" : "0x00",
                "code" : "0x3273a94f5374fce5edbc8e2a8697c15331677e6ebf0b1460225760026001556028565b60016001525b3373100000000000000000000000000000000000000014604b5760026001556051565b60016001525b30731000000000000000000000000000000000000001146074576002600155607a565b60016001525b34600014608a5760026001556090565b60016001525b",
                "nonce" : "0x00",
                "storage" : {
                }
            },
            "0x1000000000000000000000000000000000000002" : {
                "balance" : "0x00",
                "code" : "0x3273a94f5374fce5edbc8e2a8697c15331677e6ebf0b1460225760026001556028565b60016001525b3373100000000000000000000000000000000000000014604b5760026001556051565b60016001525b30731000000000000000000000000000000000000002146074576002600155607a565b60016001525b34600014608a5760026001556090565b60016001525b",
                "nonce" : "0x00",
                "storage" : {
                }
            },
            "0x2adc25665018aa1fe0e6bc666dac8fc2697ff9ba" : {
                "balance" : "0x29a2241af62cc350",
                "code" : "0x",
                "nonce" : "0x00",
                "storage" : {
                }
            },
            "0xa94f5374fce5edbc8e2a8697c15331677e6ebf0b" : {
                "balance" : "0xe8d4a44cb0",
                "code" : "0x",
                "nonce" : "0x01",
                "storage" : {
                }
            }
        },
        "pre" : {
            "0x1000000000000000000000000000000000000000" : {
                "balance" : "0x00",
                "code" : "0x6000600060006000731000000000000000000000000000000000000001620186a0fa6001556000600060006000731000000000000000000000000000000000000002620186a0fa60025533600355346004553260055530600655",
                "nonce" : "0x00",
                "storage" : {
                }
            },
            "0x1000000000000000000000000000000000000001" : {
                "balance" : "0x00",
                "code" : "0x3273a94f5374fce5edbc8e2a8697c15331677e6ebf0b1460225760026001556028565b60016001525b3373100000000000000000000000000000000000000014604b5760026001556051565b60016001525b30731000000000000000000000000000000000000001146074576002600155607a565b60016001525b34600014608a5760026001556090565b60016001525b",
                "nonce" : "0x00",
                "storage" : {
                }
            },
            "0x1000000000000000000000000000000000000002" : {
                "balance" : "0x00",
                "code" : "0x3273a94f5374fce5edbc8e2a8697c15331677e6ebf0b1460225760026001556028565b60016001525b3373100000000000000000000000000000000000000014604b5760026001556051565b60016001525b30731000000000000000000000000000000000000002146074576002600155607a565b60016001525b34600014608a5760026001556090565b60016001525b",
                "nonce" : "0x00",
                "storage" : {
                }
            },
            "0xa94f5374fce5edbc8e2a8697c15331677e6ebf0b" : {
                "balance" : "0xe8d4a51000",
                "code" : "0x",
                "nonce" : "0x00",
                "storage" : {
                }
            }
        },
        "sealEngine" : "NoProof"
    },
    "static_CheckOpcodes4_d0g0v0_Constantinople" : {
        "_info" : {
            "comment" : "",
            "filledwith" : "testeth 1.7.0-alpha.1-20+commit.782a7283",
            "lllcversion" : "Version: 0.5.0-develop.2018.11.9+commit.9709dfe0.Linux.g++",
            "source" : "src/BlockchainTestsFiller/GeneralStateTests/stStaticCall/static_CheckOpcodes4_d0g0v0Filler.json",
            "sourceHash" : "094284e2cc2a4b835d98fe088f7fe17e7c9f5f79e6f04b7a5be1d017661c5247"
        },
        "blocks" : [
            {
                "blockHeader" : {
                    "bloom" : "0x00000000000000000000000000000000000000000000000000000000000000000000000000000000000000000000000000000000000000000000000000000000000000000000000000000000000000000000000000000000000000000000000000000000000000000000000000000000000000000000000000000000000000000000000000000000000000000000000000000000000000000000000000000000000000000000000000000000000000000000000000000000000000000000000000000000000000000000000000000000000000000000000000000000000000000000000000000000000000000000000000000000000000000000000000000000",
                    "coinbase" : "0x2adc25665018aa1fe0e6bc666dac8fc2697ff9ba",
                    "difficulty" : "0x020000",
                    "extraData" : "0x",
                    "gasLimit" : "0x989680",
                    "gasUsed" : "0xc350",
                    "hash" : "0x98a8a1049717c2eeb8954c4c41f2aa0a6d46f5d19d62ae0c2b68d7dde64126a3",
                    "mixHash" : "0x0000000000000000000000000000000000000000000000000000000000000000",
                    "nonce" : "0x0000000000000000",
                    "number" : "0x01",
                    "parentHash" : "0xce316b88eb2908b49f42073120e4c0ce434bed7da49f143c9fc3096c66c4eb74",
                    "receiptTrie" : "0xda0b41af4a22c1b5f9367dfc140949e53c819bbb2c6e8299d4f2b44f25670bb0",
                    "stateRoot" : "0x18a3bc55b247778736cd51eeedae462a4a3015abe8db2c92d4d53ab5fe8bf0fd",
                    "timestamp" : "0x03e8",
                    "transactionsTrie" : "0xb9e2709647ba0e896e1f16210afaa722e3dd4971a67a37298c8038991202b0dd",
                    "uncleHash" : "0x1dcc4de8dec75d7aab85b567b6ccd41ad312451b948a7413f0a142fd40d49347"
                },
                "rlp" : "0xf9025ef901f7a0ce316b88eb2908b49f42073120e4c0ce434bed7da49f143c9fc3096c66c4eb74a01dcc4de8dec75d7aab85b567b6ccd41ad312451b948a7413f0a142fd40d49347942adc25665018aa1fe0e6bc666dac8fc2697ff9baa018a3bc55b247778736cd51eeedae462a4a3015abe8db2c92d4d53ab5fe8bf0fda0b9e2709647ba0e896e1f16210afaa722e3dd4971a67a37298c8038991202b0dda0da0b41af4a22c1b5f9367dfc140949e53c819bbb2c6e8299d4f2b44f25670bb0b901000000000000000000000000000000000000000000000000000000000000000000000000000000000000000000000000000000000000000000000000000000000000000000000000000000000000000000000000000000000000000000000000000000000000000000000000000000000000000000000000000000000000000000000000000000000000000000000000000000000000000000000000000000000000000000000000000000000000000000000000000000000000000000000000000000000000000000000000000000000000000000000000000000000000000000000000000000000000000000000000000000000000000000000000000000000083020000018398968082c3508203e880a00000000000000000000000000000000000000000000000000000000000000000880000000000000000f861f85f800182c35094100000000000000000000000000000000000000080801ba089f74111f6bfb2622ba11a5d9b62cfa1613f8442e4e9a9627b500f9c79c9a8d0a04ed360e1ea27a14f21ae066d9c1533c2275aacdaf4f4e88b0d98f6c223765564c0",
                "transactions" : [
                    {
                        "data" : "0x",
                        "gasLimit" : "0xc350",
                        "gasPrice" : "0x01",
                        "nonce" : "0x00",
                        "r" : "0x89f74111f6bfb2622ba11a5d9b62cfa1613f8442e4e9a9627b500f9c79c9a8d0",
                        "s" : "0x4ed360e1ea27a14f21ae066d9c1533c2275aacdaf4f4e88b0d98f6c223765564",
                        "to" : "0x1000000000000000000000000000000000000000",
                        "v" : "0x1b",
                        "value" : "0x00"
                    }
                ],
                "uncleHeaders" : [
                ]
            }
        ],
        "genesisBlockHeader" : {
            "bloom" : "0x00000000000000000000000000000000000000000000000000000000000000000000000000000000000000000000000000000000000000000000000000000000000000000000000000000000000000000000000000000000000000000000000000000000000000000000000000000000000000000000000000000000000000000000000000000000000000000000000000000000000000000000000000000000000000000000000000000000000000000000000000000000000000000000000000000000000000000000000000000000000000000000000000000000000000000000000000000000000000000000000000000000000000000000000000000000",
            "coinbase" : "0x2adc25665018aa1fe0e6bc666dac8fc2697ff9ba",
            "difficulty" : "0x020000",
            "extraData" : "0x42",
            "gasLimit" : "0x989680",
            "gasUsed" : "0x00",
            "hash" : "0xce316b88eb2908b49f42073120e4c0ce434bed7da49f143c9fc3096c66c4eb74",
            "mixHash" : "0x56e81f171bcc55a6ff8345e692c0f86e5b48e01b996cadc001622fb5e363b421",
            "nonce" : "0x0102030405060708",
            "number" : "0x00",
            "parentHash" : "0x0000000000000000000000000000000000000000000000000000000000000000",
            "receiptTrie" : "0x56e81f171bcc55a6ff8345e692c0f86e5b48e01b996cadc001622fb5e363b421",
            "stateRoot" : "0xbdc2c2a302fa9523441dfcad8fe6a824e25dd895898632fc4c1f2a365124ec7d",
            "timestamp" : "0x03b6",
            "transactionsTrie" : "0x56e81f171bcc55a6ff8345e692c0f86e5b48e01b996cadc001622fb5e363b421",
            "uncleHash" : "0x1dcc4de8dec75d7aab85b567b6ccd41ad312451b948a7413f0a142fd40d49347"
        },
        "genesisRLP" : "0xf901faf901f5a00000000000000000000000000000000000000000000000000000000000000000a01dcc4de8dec75d7aab85b567b6ccd41ad312451b948a7413f0a142fd40d49347942adc25665018aa1fe0e6bc666dac8fc2697ff9baa0bdc2c2a302fa9523441dfcad8fe6a824e25dd895898632fc4c1f2a365124ec7da056e81f171bcc55a6ff8345e692c0f86e5b48e01b996cadc001622fb5e363b421a056e81f171bcc55a6ff8345e692c0f86e5b48e01b996cadc001622fb5e363b421b9010000000000000000000000000000000000000000000000000000000000000000000000000000000000000000000000000000000000000000000000000000000000000000000000000000000000000000000000000000000000000000000000000000000000000000000000000000000000000000000000000000000000000000000000000000000000000000000000000000000000000000000000000000000000000000000000000000000000000000000000000000000000000000000000000000000000000000000000000000000000000000000000000000000000000000000000000000000000000000000000000000000000000000000000000000000000830200008083989680808203b642a056e81f171bcc55a6ff8345e692c0f86e5b48e01b996cadc001622fb5e363b421880102030405060708c0c0",
        "lastblockhash" : "0x98a8a1049717c2eeb8954c4c41f2aa0a6d46f5d19d62ae0c2b68d7dde64126a3",
        "network" : "Constantinople",
        "postState" : {
            "0x1000000000000000000000000000000000000000" : {
                "balance" : "0x00",
                "code" : "0x6000600060006000731000000000000000000000000000000000000001620186a0fa6001556000600060006000731000000000000000000000000000000000000002620186a0fa60025533600355346004553260055530600655",
                "nonce" : "0x00",
                "storage" : {
                }
            },
            "0x1000000000000000000000000000000000000001" : {
                "balance" : "0x00",
                "code" : "0x3273a94f5374fce5edbc8e2a8697c15331677e6ebf0b1460225760026001556028565b60016001525b3373100000000000000000000000000000000000000014604b5760026001556051565b60016001525b30731000000000000000000000000000000000000001146074576002600155607a565b60016001525b34600014608a5760026001556090565b60016001525b",
                "nonce" : "0x00",
                "storage" : {
                }
            },
            "0x1000000000000000000000000000000000000002" : {
                "balance" : "0x00",
                "code" : "0x3273a94f5374fce5edbc8e2a8697c15331677e6ebf0b1460225760026001556028565b60016001525b3373100000000000000000000000000000000000000014604b5760026001556051565b60016001525b30731000000000000000000000000000000000000002146074576002600155607a565b60016001525b34600014608a5760026001556090565b60016001525b",
                "nonce" : "0x00",
                "storage" : {
                }
            },
            "0x2adc25665018aa1fe0e6bc666dac8fc2697ff9ba" : {
                "balance" : "0x1bc16d674ec8c350",
                "code" : "0x",
                "nonce" : "0x00",
                "storage" : {
                }
            },
            "0xa94f5374fce5edbc8e2a8697c15331677e6ebf0b" : {
                "balance" : "0xe8d4a44cb0",
                "code" : "0x",
                "nonce" : "0x01",
                "storage" : {
                }
            }
        },
        "pre" : {
            "0x1000000000000000000000000000000000000000" : {
                "balance" : "0x00",
                "code" : "0x6000600060006000731000000000000000000000000000000000000001620186a0fa6001556000600060006000731000000000000000000000000000000000000002620186a0fa60025533600355346004553260055530600655",
                "nonce" : "0x00",
                "storage" : {
                }
            },
            "0x1000000000000000000000000000000000000001" : {
                "balance" : "0x00",
                "code" : "0x3273a94f5374fce5edbc8e2a8697c15331677e6ebf0b1460225760026001556028565b60016001525b3373100000000000000000000000000000000000000014604b5760026001556051565b60016001525b30731000000000000000000000000000000000000001146074576002600155607a565b60016001525b34600014608a5760026001556090565b60016001525b",
                "nonce" : "0x00",
                "storage" : {
                }
            },
            "0x1000000000000000000000000000000000000002" : {
                "balance" : "0x00",
                "code" : "0x3273a94f5374fce5edbc8e2a8697c15331677e6ebf0b1460225760026001556028565b60016001525b3373100000000000000000000000000000000000000014604b5760026001556051565b60016001525b30731000000000000000000000000000000000000002146074576002600155607a565b60016001525b34600014608a5760026001556090565b60016001525b",
                "nonce" : "0x00",
                "storage" : {
                }
            },
            "0xa94f5374fce5edbc8e2a8697c15331677e6ebf0b" : {
                "balance" : "0xe8d4a51000",
                "code" : "0x",
                "nonce" : "0x00",
                "storage" : {
                }
            }
        },
        "sealEngine" : "NoProof"
    },
    "static_CheckOpcodes4_d0g0v0_ConstantinopleFix" : {
        "_info" : {
            "comment" : "",
            "filledwith" : "testeth 1.7.0-alpha.1-20+commit.782a7283",
            "lllcversion" : "Version: 0.5.0-develop.2018.11.9+commit.9709dfe0.Linux.g++",
            "source" : "src/BlockchainTestsFiller/GeneralStateTests/stStaticCall/static_CheckOpcodes4_d0g0v0Filler.json",
            "sourceHash" : "094284e2cc2a4b835d98fe088f7fe17e7c9f5f79e6f04b7a5be1d017661c5247"
        },
        "blocks" : [
            {
                "blockHeader" : {
                    "bloom" : "0x00000000000000000000000000000000000000000000000000000000000000000000000000000000000000000000000000000000000000000000000000000000000000000000000000000000000000000000000000000000000000000000000000000000000000000000000000000000000000000000000000000000000000000000000000000000000000000000000000000000000000000000000000000000000000000000000000000000000000000000000000000000000000000000000000000000000000000000000000000000000000000000000000000000000000000000000000000000000000000000000000000000000000000000000000000000",
                    "coinbase" : "0x2adc25665018aa1fe0e6bc666dac8fc2697ff9ba",
                    "difficulty" : "0x020000",
                    "extraData" : "0x",
                    "gasLimit" : "0x989680",
                    "gasUsed" : "0xc350",
                    "hash" : "0x98a8a1049717c2eeb8954c4c41f2aa0a6d46f5d19d62ae0c2b68d7dde64126a3",
                    "mixHash" : "0x0000000000000000000000000000000000000000000000000000000000000000",
                    "nonce" : "0x0000000000000000",
                    "number" : "0x01",
                    "parentHash" : "0xce316b88eb2908b49f42073120e4c0ce434bed7da49f143c9fc3096c66c4eb74",
                    "receiptTrie" : "0xda0b41af4a22c1b5f9367dfc140949e53c819bbb2c6e8299d4f2b44f25670bb0",
                    "stateRoot" : "0x18a3bc55b247778736cd51eeedae462a4a3015abe8db2c92d4d53ab5fe8bf0fd",
                    "timestamp" : "0x03e8",
                    "transactionsTrie" : "0xb9e2709647ba0e896e1f16210afaa722e3dd4971a67a37298c8038991202b0dd",
                    "uncleHash" : "0x1dcc4de8dec75d7aab85b567b6ccd41ad312451b948a7413f0a142fd40d49347"
                },
                "rlp" : "0xf9025ef901f7a0ce316b88eb2908b49f42073120e4c0ce434bed7da49f143c9fc3096c66c4eb74a01dcc4de8dec75d7aab85b567b6ccd41ad312451b948a7413f0a142fd40d49347942adc25665018aa1fe0e6bc666dac8fc2697ff9baa018a3bc55b247778736cd51eeedae462a4a3015abe8db2c92d4d53ab5fe8bf0fda0b9e2709647ba0e896e1f16210afaa722e3dd4971a67a37298c8038991202b0dda0da0b41af4a22c1b5f9367dfc140949e53c819bbb2c6e8299d4f2b44f25670bb0b901000000000000000000000000000000000000000000000000000000000000000000000000000000000000000000000000000000000000000000000000000000000000000000000000000000000000000000000000000000000000000000000000000000000000000000000000000000000000000000000000000000000000000000000000000000000000000000000000000000000000000000000000000000000000000000000000000000000000000000000000000000000000000000000000000000000000000000000000000000000000000000000000000000000000000000000000000000000000000000000000000000000000000000000000000000000083020000018398968082c3508203e880a00000000000000000000000000000000000000000000000000000000000000000880000000000000000f861f85f800182c35094100000000000000000000000000000000000000080801ba089f74111f6bfb2622ba11a5d9b62cfa1613f8442e4e9a9627b500f9c79c9a8d0a04ed360e1ea27a14f21ae066d9c1533c2275aacdaf4f4e88b0d98f6c223765564c0",
                "transactions" : [
                    {
                        "data" : "0x",
                        "gasLimit" : "0xc350",
                        "gasPrice" : "0x01",
                        "nonce" : "0x00",
                        "r" : "0x89f74111f6bfb2622ba11a5d9b62cfa1613f8442e4e9a9627b500f9c79c9a8d0",
                        "s" : "0x4ed360e1ea27a14f21ae066d9c1533c2275aacdaf4f4e88b0d98f6c223765564",
                        "to" : "0x1000000000000000000000000000000000000000",
                        "v" : "0x1b",
                        "value" : "0x00"
                    }
                ],
                "uncleHeaders" : [
                ]
            }
        ],
        "genesisBlockHeader" : {
            "bloom" : "0x00000000000000000000000000000000000000000000000000000000000000000000000000000000000000000000000000000000000000000000000000000000000000000000000000000000000000000000000000000000000000000000000000000000000000000000000000000000000000000000000000000000000000000000000000000000000000000000000000000000000000000000000000000000000000000000000000000000000000000000000000000000000000000000000000000000000000000000000000000000000000000000000000000000000000000000000000000000000000000000000000000000000000000000000000000000",
            "coinbase" : "0x2adc25665018aa1fe0e6bc666dac8fc2697ff9ba",
            "difficulty" : "0x020000",
            "extraData" : "0x42",
            "gasLimit" : "0x989680",
            "gasUsed" : "0x00",
            "hash" : "0xce316b88eb2908b49f42073120e4c0ce434bed7da49f143c9fc3096c66c4eb74",
            "mixHash" : "0x56e81f171bcc55a6ff8345e692c0f86e5b48e01b996cadc001622fb5e363b421",
            "nonce" : "0x0102030405060708",
            "number" : "0x00",
            "parentHash" : "0x0000000000000000000000000000000000000000000000000000000000000000",
            "receiptTrie" : "0x56e81f171bcc55a6ff8345e692c0f86e5b48e01b996cadc001622fb5e363b421",
            "stateRoot" : "0xbdc2c2a302fa9523441dfcad8fe6a824e25dd895898632fc4c1f2a365124ec7d",
            "timestamp" : "0x03b6",
            "transactionsTrie" : "0x56e81f171bcc55a6ff8345e692c0f86e5b48e01b996cadc001622fb5e363b421",
            "uncleHash" : "0x1dcc4de8dec75d7aab85b567b6ccd41ad312451b948a7413f0a142fd40d49347"
        },
        "genesisRLP" : "0xf901faf901f5a00000000000000000000000000000000000000000000000000000000000000000a01dcc4de8dec75d7aab85b567b6ccd41ad312451b948a7413f0a142fd40d49347942adc25665018aa1fe0e6bc666dac8fc2697ff9baa0bdc2c2a302fa9523441dfcad8fe6a824e25dd895898632fc4c1f2a365124ec7da056e81f171bcc55a6ff8345e692c0f86e5b48e01b996cadc001622fb5e363b421a056e81f171bcc55a6ff8345e692c0f86e5b48e01b996cadc001622fb5e363b421b9010000000000000000000000000000000000000000000000000000000000000000000000000000000000000000000000000000000000000000000000000000000000000000000000000000000000000000000000000000000000000000000000000000000000000000000000000000000000000000000000000000000000000000000000000000000000000000000000000000000000000000000000000000000000000000000000000000000000000000000000000000000000000000000000000000000000000000000000000000000000000000000000000000000000000000000000000000000000000000000000000000000000000000000000000000000000830200008083989680808203b642a056e81f171bcc55a6ff8345e692c0f86e5b48e01b996cadc001622fb5e363b421880102030405060708c0c0",
        "lastblockhash" : "0x98a8a1049717c2eeb8954c4c41f2aa0a6d46f5d19d62ae0c2b68d7dde64126a3",
        "network" : "ConstantinopleFix",
        "postState" : {
            "0x1000000000000000000000000000000000000000" : {
                "balance" : "0x00",
                "code" : "0x6000600060006000731000000000000000000000000000000000000001620186a0fa6001556000600060006000731000000000000000000000000000000000000002620186a0fa60025533600355346004553260055530600655",
                "nonce" : "0x00",
                "storage" : {
                }
            },
            "0x1000000000000000000000000000000000000001" : {
                "balance" : "0x00",
                "code" : "0x3273a94f5374fce5edbc8e2a8697c15331677e6ebf0b1460225760026001556028565b60016001525b3373100000000000000000000000000000000000000014604b5760026001556051565b60016001525b30731000000000000000000000000000000000000001146074576002600155607a565b60016001525b34600014608a5760026001556090565b60016001525b",
                "nonce" : "0x00",
                "storage" : {
                }
            },
            "0x1000000000000000000000000000000000000002" : {
                "balance" : "0x00",
                "code" : "0x3273a94f5374fce5edbc8e2a8697c15331677e6ebf0b1460225760026001556028565b60016001525b3373100000000000000000000000000000000000000014604b5760026001556051565b60016001525b30731000000000000000000000000000000000000002146074576002600155607a565b60016001525b34600014608a5760026001556090565b60016001525b",
                "nonce" : "0x00",
                "storage" : {
                }
            },
            "0x2adc25665018aa1fe0e6bc666dac8fc2697ff9ba" : {
                "balance" : "0x1bc16d674ec8c350",
                "code" : "0x",
                "nonce" : "0x00",
                "storage" : {
                }
            },
            "0xa94f5374fce5edbc8e2a8697c15331677e6ebf0b" : {
                "balance" : "0xe8d4a44cb0",
                "code" : "0x",
                "nonce" : "0x01",
                "storage" : {
                }
            }
        },
        "pre" : {
            "0x1000000000000000000000000000000000000000" : {
                "balance" : "0x00",
                "code" : "0x6000600060006000731000000000000000000000000000000000000001620186a0fa6001556000600060006000731000000000000000000000000000000000000002620186a0fa60025533600355346004553260055530600655",
                "nonce" : "0x00",
                "storage" : {
                }
            },
            "0x1000000000000000000000000000000000000001" : {
                "balance" : "0x00",
                "code" : "0x3273a94f5374fce5edbc8e2a8697c15331677e6ebf0b1460225760026001556028565b60016001525b3373100000000000000000000000000000000000000014604b5760026001556051565b60016001525b30731000000000000000000000000000000000000001146074576002600155607a565b60016001525b34600014608a5760026001556090565b60016001525b",
                "nonce" : "0x00",
                "storage" : {
                }
            },
            "0x1000000000000000000000000000000000000002" : {
                "balance" : "0x00",
                "code" : "0x3273a94f5374fce5edbc8e2a8697c15331677e6ebf0b1460225760026001556028565b60016001525b3373100000000000000000000000000000000000000014604b5760026001556051565b60016001525b30731000000000000000000000000000000000000002146074576002600155607a565b60016001525b34600014608a5760026001556090565b60016001525b",
                "nonce" : "0x00",
                "storage" : {
                }
            },
            "0xa94f5374fce5edbc8e2a8697c15331677e6ebf0b" : {
                "balance" : "0xe8d4a51000",
                "code" : "0x",
                "nonce" : "0x00",
                "storage" : {
                }
            }
        },
        "sealEngine" : "NoProof"
    }
}