{
    "static_RevertOpcodeCalls_d0g1v0_Byzantium" : {
        "_info" : {
            "comment" : "",
            "filledwith" : "testeth 1.7.0-alpha.1-20+commit.782a7283",
            "lllcversion" : "Version: 0.5.0-develop.2018.11.9+commit.9709dfe0.Linux.g++",
            "source" : "src/BlockchainTestsFiller/GeneralStateTests/stStaticCall/static_RevertOpcodeCalls_d0g1v0Filler.json",
            "sourceHash" : "8120985f0799aac2ed32900678b5e44ea8f26d1c7928b82f6d6f83bc1243b404"
        },
        "blocks" : [
            {
                "blockHeader" : {
                    "bloom" : "0x00000000000000000000000000000000000000000000000000000000000000000000000000000000000000000000000000000000000000000000000000000000000000000000000000000000000000000000000000000000000000000000000000000000000000000000000000000000000000000000000000000000000000000000000000000000000000000000000000000000000000000000000000000000000000000000000000000000000000000000000000000000000000000000000000000000000000000000000000000000000000000000000000000000000000000000000000000000000000000000000000000000000000000000000000000000",
                    "coinbase" : "0x2adc25665018aa1fe0e6bc666dac8fc2697ff9ba",
                    "difficulty" : "0x020000",
                    "extraData" : "0x",
                    "gasLimit" : "0x989680",
                    "gasUsed" : "0xb68f",
                    "hash" : "0xc40752e837c15b69351971dce2f0b066b79bb9d114d84f7556cc42f4275f64ff",
                    "mixHash" : "0x0000000000000000000000000000000000000000000000000000000000000000",
                    "nonce" : "0x0000000000000000",
                    "number" : "0x01",
                    "parentHash" : "0x94bdf6ca64f3ea76a94753551aa5ab57202bb2f0fd32d1fb6874131a5cf3d795",
                    "receiptTrie" : "0xe611cf6b8fd9410e5c7fbd5efdb3e8223442734bba4bacab4dbc4b906f5d2bcc",
                    "stateRoot" : "0xb99dae1db05a6f5ab8ae0f29536d3974ed08841617b3c4679c91d4058c9d2586",
                    "timestamp" : "0x03e8",
                    "transactionsTrie" : "0x21e59924d5df086eff808c951bba8ad92d5f640e7dfb80032e3c02ca98af7c10",
                    "uncleHash" : "0x1dcc4de8dec75d7aab85b567b6ccd41ad312451b948a7413f0a142fd40d49347"
                },
                "rlp" : "0xf9025ff901f7a094bdf6ca64f3ea76a94753551aa5ab57202bb2f0fd32d1fb6874131a5cf3d795a01dcc4de8dec75d7aab85b567b6ccd41ad312451b948a7413f0a142fd40d49347942adc25665018aa1fe0e6bc666dac8fc2697ff9baa0b99dae1db05a6f5ab8ae0f29536d3974ed08841617b3c4679c91d4058c9d2586a021e59924d5df086eff808c951bba8ad92d5f640e7dfb80032e3c02ca98af7c10a0e611cf6b8fd9410e5c7fbd5efdb3e8223442734bba4bacab4dbc4b906f5d2bccb901000000000000000000000000000000000000000000000000000000000000000000000000000000000000000000000000000000000000000000000000000000000000000000000000000000000000000000000000000000000000000000000000000000000000000000000000000000000000000000000000000000000000000000000000000000000000000000000000000000000000000000000000000000000000000000000000000000000000000000000000000000000000000000000000000000000000000000000000000000000000000000000000000000000000000000000000000000000000000000000000000000000000000000000000000000000083020000018398968082b68f8203e880a00000000000000000000000000000000000000000000000000000000000000000880000000000000000f862f8608001830157c094094f5374fce5edbc8e2a8697c15331677e6ebf0b80801ba0625d61fcc2e32c652af682c239223f0495b0e1a9f45cba363ef3563d8c4d8bcba02e8cf731173f1efdc2851e8027e0a21f0b0a2f38633d4565e1668a15e37e18dbc0",
                "transactions" : [
                    {
                        "data" : "0x",
                        "gasLimit" : "0x0157c0",
                        "gasPrice" : "0x01",
                        "nonce" : "0x00",
                        "r" : "0x625d61fcc2e32c652af682c239223f0495b0e1a9f45cba363ef3563d8c4d8bcb",
                        "s" : "0x2e8cf731173f1efdc2851e8027e0a21f0b0a2f38633d4565e1668a15e37e18db",
                        "to" : "0x094f5374fce5edbc8e2a8697c15331677e6ebf0b",
                        "v" : "0x1b",
                        "value" : "0x00"
                    }
                ],
                "uncleHeaders" : [
                ]
            }
        ],
        "genesisBlockHeader" : {
            "bloom" : "0x00000000000000000000000000000000000000000000000000000000000000000000000000000000000000000000000000000000000000000000000000000000000000000000000000000000000000000000000000000000000000000000000000000000000000000000000000000000000000000000000000000000000000000000000000000000000000000000000000000000000000000000000000000000000000000000000000000000000000000000000000000000000000000000000000000000000000000000000000000000000000000000000000000000000000000000000000000000000000000000000000000000000000000000000000000000",
            "coinbase" : "0x2adc25665018aa1fe0e6bc666dac8fc2697ff9ba",
            "difficulty" : "0x020000",
            "extraData" : "0x42",
            "gasLimit" : "0x989680",
            "gasUsed" : "0x00",
            "hash" : "0x94bdf6ca64f3ea76a94753551aa5ab57202bb2f0fd32d1fb6874131a5cf3d795",
            "mixHash" : "0x56e81f171bcc55a6ff8345e692c0f86e5b48e01b996cadc001622fb5e363b421",
            "nonce" : "0x0102030405060708",
            "number" : "0x00",
            "parentHash" : "0x0000000000000000000000000000000000000000000000000000000000000000",
            "receiptTrie" : "0x56e81f171bcc55a6ff8345e692c0f86e5b48e01b996cadc001622fb5e363b421",
            "stateRoot" : "0x77031ff69d4336964af83a422bd0b16401841641f7ef468bd879a8fabf476acc",
            "timestamp" : "0x03b6",
            "transactionsTrie" : "0x56e81f171bcc55a6ff8345e692c0f86e5b48e01b996cadc001622fb5e363b421",
            "uncleHash" : "0x1dcc4de8dec75d7aab85b567b6ccd41ad312451b948a7413f0a142fd40d49347"
        },
        "genesisRLP" : "0xf901faf901f5a00000000000000000000000000000000000000000000000000000000000000000a01dcc4de8dec75d7aab85b567b6ccd41ad312451b948a7413f0a142fd40d49347942adc25665018aa1fe0e6bc666dac8fc2697ff9baa077031ff69d4336964af83a422bd0b16401841641f7ef468bd879a8fabf476acca056e81f171bcc55a6ff8345e692c0f86e5b48e01b996cadc001622fb5e363b421a056e81f171bcc55a6ff8345e692c0f86e5b48e01b996cadc001622fb5e363b421b9010000000000000000000000000000000000000000000000000000000000000000000000000000000000000000000000000000000000000000000000000000000000000000000000000000000000000000000000000000000000000000000000000000000000000000000000000000000000000000000000000000000000000000000000000000000000000000000000000000000000000000000000000000000000000000000000000000000000000000000000000000000000000000000000000000000000000000000000000000000000000000000000000000000000000000000000000000000000000000000000000000000000000000000000000000000000830200008083989680808203b642a056e81f171bcc55a6ff8345e692c0f86e5b48e01b996cadc001622fb5e363b421880102030405060708c0c0",
        "lastblockhash" : "0xc40752e837c15b69351971dce2f0b066b79bb9d114d84f7556cc42f4275f64ff",
        "network" : "Byzantium",
        "postState" : {
            "0x094f5374fce5edbc8e2a8697c15331677e6ebf0b" : {
                "balance" : "0x01",
                "code" : "0x600060006000600073c94f5374fce5edbc8e2a8697c15331677e6ebf0b61c350fa6000553d600155",
                "nonce" : "0x00",
                "storage" : {
                    "0x01" : "0x01"
                }
            },
            "0x2adc25665018aa1fe0e6bc666dac8fc2697ff9ba" : {
                "balance" : "0x29a2241af62cb68f",
                "code" : "0x",
                "nonce" : "0x00",
                "storage" : {
                }
            },
            "0xa94f5374fce5edbc8e2a8697c15331677e6ebf0b" : {
                "balance" : "0xe8d4a45971",
                "code" : "0x",
                "nonce" : "0x01",
                "storage" : {
                }
            },
            "0xc94f5374fce5edbc8e2a8697c15331677e6ebf0b" : {
                "balance" : "0x01",
                "code" : "0x60016000fd",
                "nonce" : "0x00",
                "storage" : {
                }
            }
        },
        "pre" : {
            "0x094f5374fce5edbc8e2a8697c15331677e6ebf0b" : {
                "balance" : "0x01",
                "code" : "0x600060006000600073c94f5374fce5edbc8e2a8697c15331677e6ebf0b61c350fa6000553d600155",
                "nonce" : "0x00",
                "storage" : {
                }
            },
            "0xa94f5374fce5edbc8e2a8697c15331677e6ebf0b" : {
                "balance" : "0xe8d4a51000",
                "code" : "0x",
                "nonce" : "0x00",
                "storage" : {
                }
            },
            "0xc94f5374fce5edbc8e2a8697c15331677e6ebf0b" : {
                "balance" : "0x01",
                "code" : "0x60016000fd",
                "nonce" : "0x00",
                "storage" : {
                }
            }
        },
        "sealEngine" : "NoProof"
    },
    "static_RevertOpcodeCalls_d0g1v0_Constantinople" : {
        "_info" : {
            "comment" : "",
            "filledwith" : "testeth 1.7.0-alpha.1-20+commit.782a7283",
            "lllcversion" : "Version: 0.5.0-develop.2018.11.9+commit.9709dfe0.Linux.g++",
            "source" : "src/BlockchainTestsFiller/GeneralStateTests/stStaticCall/static_RevertOpcodeCalls_d0g1v0Filler.json",
            "sourceHash" : "8120985f0799aac2ed32900678b5e44ea8f26d1c7928b82f6d6f83bc1243b404"
        },
        "blocks" : [
            {
                "blockHeader" : {
                    "bloom" : "0x00000000000000000000000000000000000000000000000000000000000000000000000000000000000000000000000000000000000000000000000000000000000000000000000000000000000000000000000000000000000000000000000000000000000000000000000000000000000000000000000000000000000000000000000000000000000000000000000000000000000000000000000000000000000000000000000000000000000000000000000000000000000000000000000000000000000000000000000000000000000000000000000000000000000000000000000000000000000000000000000000000000000000000000000000000000",
                    "coinbase" : "0x2adc25665018aa1fe0e6bc666dac8fc2697ff9ba",
                    "difficulty" : "0x020000",
                    "extraData" : "0x",
                    "gasLimit" : "0x989680",
                    "gasUsed" : "0xa3cf",
                    "hash" : "0xa6aef3c84a54141067b34cc4ee344218ba2ec25f1090604c859afcd4701ead5f",
                    "mixHash" : "0x0000000000000000000000000000000000000000000000000000000000000000",
                    "nonce" : "0x0000000000000000",
                    "number" : "0x01",
                    "parentHash" : "0x94bdf6ca64f3ea76a94753551aa5ab57202bb2f0fd32d1fb6874131a5cf3d795",
                    "receiptTrie" : "0x67cd5da4778cdd8d8cea72ede4544e4dc5da603e5f065cce5506bf2429df2a4e",
                    "stateRoot" : "0x6eda9ddebd64e823cbe566591c8b160ace6d9b933cd25b7f76a7c37a7ec2df08",
                    "timestamp" : "0x03e8",
                    "transactionsTrie" : "0x21e59924d5df086eff808c951bba8ad92d5f640e7dfb80032e3c02ca98af7c10",
                    "uncleHash" : "0x1dcc4de8dec75d7aab85b567b6ccd41ad312451b948a7413f0a142fd40d49347"
                },
                "rlp" : "0xf9025ff901f7a094bdf6ca64f3ea76a94753551aa5ab57202bb2f0fd32d1fb6874131a5cf3d795a01dcc4de8dec75d7aab85b567b6ccd41ad312451b948a7413f0a142fd40d49347942adc25665018aa1fe0e6bc666dac8fc2697ff9baa06eda9ddebd64e823cbe566591c8b160ace6d9b933cd25b7f76a7c37a7ec2df08a021e59924d5df086eff808c951bba8ad92d5f640e7dfb80032e3c02ca98af7c10a067cd5da4778cdd8d8cea72ede4544e4dc5da603e5f065cce5506bf2429df2a4eb901000000000000000000000000000000000000000000000000000000000000000000000000000000000000000000000000000000000000000000000000000000000000000000000000000000000000000000000000000000000000000000000000000000000000000000000000000000000000000000000000000000000000000000000000000000000000000000000000000000000000000000000000000000000000000000000000000000000000000000000000000000000000000000000000000000000000000000000000000000000000000000000000000000000000000000000000000000000000000000000000000000000000000000000000000000000083020000018398968082a3cf8203e880a00000000000000000000000000000000000000000000000000000000000000000880000000000000000f862f8608001830157c094094f5374fce5edbc8e2a8697c15331677e6ebf0b80801ba0625d61fcc2e32c652af682c239223f0495b0e1a9f45cba363ef3563d8c4d8bcba02e8cf731173f1efdc2851e8027e0a21f0b0a2f38633d4565e1668a15e37e18dbc0",
                "transactions" : [
                    {
                        "data" : "0x",
                        "gasLimit" : "0x0157c0",
                        "gasPrice" : "0x01",
                        "nonce" : "0x00",
                        "r" : "0x625d61fcc2e32c652af682c239223f0495b0e1a9f45cba363ef3563d8c4d8bcb",
                        "s" : "0x2e8cf731173f1efdc2851e8027e0a21f0b0a2f38633d4565e1668a15e37e18db",
                        "to" : "0x094f5374fce5edbc8e2a8697c15331677e6ebf0b",
                        "v" : "0x1b",
                        "value" : "0x00"
                    }
                ],
                "uncleHeaders" : [
                ]
            }
        ],
        "genesisBlockHeader" : {
            "bloom" : "0x00000000000000000000000000000000000000000000000000000000000000000000000000000000000000000000000000000000000000000000000000000000000000000000000000000000000000000000000000000000000000000000000000000000000000000000000000000000000000000000000000000000000000000000000000000000000000000000000000000000000000000000000000000000000000000000000000000000000000000000000000000000000000000000000000000000000000000000000000000000000000000000000000000000000000000000000000000000000000000000000000000000000000000000000000000000",
            "coinbase" : "0x2adc25665018aa1fe0e6bc666dac8fc2697ff9ba",
            "difficulty" : "0x020000",
            "extraData" : "0x42",
            "gasLimit" : "0x989680",
            "gasUsed" : "0x00",
            "hash" : "0x94bdf6ca64f3ea76a94753551aa5ab57202bb2f0fd32d1fb6874131a5cf3d795",
            "mixHash" : "0x56e81f171bcc55a6ff8345e692c0f86e5b48e01b996cadc001622fb5e363b421",
            "nonce" : "0x0102030405060708",
            "number" : "0x00",
            "parentHash" : "0x0000000000000000000000000000000000000000000000000000000000000000",
            "receiptTrie" : "0x56e81f171bcc55a6ff8345e692c0f86e5b48e01b996cadc001622fb5e363b421",
            "stateRoot" : "0x77031ff69d4336964af83a422bd0b16401841641f7ef468bd879a8fabf476acc",
            "timestamp" : "0x03b6",
            "transactionsTrie" : "0x56e81f171bcc55a6ff8345e692c0f86e5b48e01b996cadc001622fb5e363b421",
            "uncleHash" : "0x1dcc4de8dec75d7aab85b567b6ccd41ad312451b948a7413f0a142fd40d49347"
        },
        "genesisRLP" : "0xf901faf901f5a00000000000000000000000000000000000000000000000000000000000000000a01dcc4de8dec75d7aab85b567b6ccd41ad312451b948a7413f0a142fd40d49347942adc25665018aa1fe0e6bc666dac8fc2697ff9baa077031ff69d4336964af83a422bd0b16401841641f7ef468bd879a8fabf476acca056e81f171bcc55a6ff8345e692c0f86e5b48e01b996cadc001622fb5e363b421a056e81f171bcc55a6ff8345e692c0f86e5b48e01b996cadc001622fb5e363b421b9010000000000000000000000000000000000000000000000000000000000000000000000000000000000000000000000000000000000000000000000000000000000000000000000000000000000000000000000000000000000000000000000000000000000000000000000000000000000000000000000000000000000000000000000000000000000000000000000000000000000000000000000000000000000000000000000000000000000000000000000000000000000000000000000000000000000000000000000000000000000000000000000000000000000000000000000000000000000000000000000000000000000000000000000000000000000830200008083989680808203b642a056e81f171bcc55a6ff8345e692c0f86e5b48e01b996cadc001622fb5e363b421880102030405060708c0c0",
        "lastblockhash" : "0xa6aef3c84a54141067b34cc4ee344218ba2ec25f1090604c859afcd4701ead5f",
        "network" : "Constantinople",
        "postState" : {
            "0x094f5374fce5edbc8e2a8697c15331677e6ebf0b" : {
                "balance" : "0x01",
                "code" : "0x600060006000600073c94f5374fce5edbc8e2a8697c15331677e6ebf0b61c350fa6000553d600155",
                "nonce" : "0x00",
                "storage" : {
                    "0x01" : "0x01"
                }
            },
            "0x2adc25665018aa1fe0e6bc666dac8fc2697ff9ba" : {
                "balance" : "0x1bc16d674ec8a3cf",
                "code" : "0x",
                "nonce" : "0x00",
                "storage" : {
                }
            },
            "0xa94f5374fce5edbc8e2a8697c15331677e6ebf0b" : {
                "balance" : "0xe8d4a46c31",
                "code" : "0x",
                "nonce" : "0x01",
                "storage" : {
                }
            },
            "0xc94f5374fce5edbc8e2a8697c15331677e6ebf0b" : {
                "balance" : "0x01",
                "code" : "0x60016000fd",
                "nonce" : "0x00",
                "storage" : {
                }
            }
        },
        "pre" : {
            "0x094f5374fce5edbc8e2a8697c15331677e6ebf0b" : {
                "balance" : "0x01",
                "code" : "0x600060006000600073c94f5374fce5edbc8e2a8697c15331677e6ebf0b61c350fa6000553d600155",
                "nonce" : "0x00",
                "storage" : {
                }
            },
            "0xa94f5374fce5edbc8e2a8697c15331677e6ebf0b" : {
                "balance" : "0xe8d4a51000",
                "code" : "0x",
                "nonce" : "0x00",
                "storage" : {
                }
            },
            "0xc94f5374fce5edbc8e2a8697c15331677e6ebf0b" : {
                "balance" : "0x01",
                "code" : "0x60016000fd",
                "nonce" : "0x00",
                "storage" : {
                }
            }
        },
        "sealEngine" : "NoProof"
    },
    "static_RevertOpcodeCalls_d0g1v0_ConstantinopleFix" : {
        "_info" : {
            "comment" : "",
            "filledwith" : "testeth 1.7.0-alpha.1-20+commit.782a7283",
            "lllcversion" : "Version: 0.5.0-develop.2018.11.9+commit.9709dfe0.Linux.g++",
            "source" : "src/BlockchainTestsFiller/GeneralStateTests/stStaticCall/static_RevertOpcodeCalls_d0g1v0Filler.json",
            "sourceHash" : "8120985f0799aac2ed32900678b5e44ea8f26d1c7928b82f6d6f83bc1243b404"
        },
        "blocks" : [
            {
                "blockHeader" : {
                    "bloom" : "0x00000000000000000000000000000000000000000000000000000000000000000000000000000000000000000000000000000000000000000000000000000000000000000000000000000000000000000000000000000000000000000000000000000000000000000000000000000000000000000000000000000000000000000000000000000000000000000000000000000000000000000000000000000000000000000000000000000000000000000000000000000000000000000000000000000000000000000000000000000000000000000000000000000000000000000000000000000000000000000000000000000000000000000000000000000000",
                    "coinbase" : "0x2adc25665018aa1fe0e6bc666dac8fc2697ff9ba",
                    "difficulty" : "0x020000",
                    "extraData" : "0x",
                    "gasLimit" : "0x989680",
                    "gasUsed" : "0xb68f",
                    "hash" : "0xce350eb958893153ae94979008c243b02fe969fb42c94ecc92790166b1ee95ba",
                    "mixHash" : "0x0000000000000000000000000000000000000000000000000000000000000000",
                    "nonce" : "0x0000000000000000",
                    "number" : "0x01",
                    "parentHash" : "0x94bdf6ca64f3ea76a94753551aa5ab57202bb2f0fd32d1fb6874131a5cf3d795",
                    "receiptTrie" : "0xe611cf6b8fd9410e5c7fbd5efdb3e8223442734bba4bacab4dbc4b906f5d2bcc",
                    "stateRoot" : "0xafcbd7cd61eb40fc56245bbfb46fc45df66e294e10ce9290ce87af1142cbc3e1",
                    "timestamp" : "0x03e8",
                    "transactionsTrie" : "0x21e59924d5df086eff808c951bba8ad92d5f640e7dfb80032e3c02ca98af7c10",
                    "uncleHash" : "0x1dcc4de8dec75d7aab85b567b6ccd41ad312451b948a7413f0a142fd40d49347"
                },
                "rlp" : "0xf9025ff901f7a094bdf6ca64f3ea76a94753551aa5ab57202bb2f0fd32d1fb6874131a5cf3d795a01dcc4de8dec75d7aab85b567b6ccd41ad312451b948a7413f0a142fd40d49347942adc25665018aa1fe0e6bc666dac8fc2697ff9baa0afcbd7cd61eb40fc56245bbfb46fc45df66e294e10ce9290ce87af1142cbc3e1a021e59924d5df086eff808c951bba8ad92d5f640e7dfb80032e3c02ca98af7c10a0e611cf6b8fd9410e5c7fbd5efdb3e8223442734bba4bacab4dbc4b906f5d2bccb901000000000000000000000000000000000000000000000000000000000000000000000000000000000000000000000000000000000000000000000000000000000000000000000000000000000000000000000000000000000000000000000000000000000000000000000000000000000000000000000000000000000000000000000000000000000000000000000000000000000000000000000000000000000000000000000000000000000000000000000000000000000000000000000000000000000000000000000000000000000000000000000000000000000000000000000000000000000000000000000000000000000000000000000000000000000083020000018398968082b68f8203e880a00000000000000000000000000000000000000000000000000000000000000000880000000000000000f862f8608001830157c094094f5374fce5edbc8e2a8697c15331677e6ebf0b80801ba0625d61fcc2e32c652af682c239223f0495b0e1a9f45cba363ef3563d8c4d8bcba02e8cf731173f1efdc2851e8027e0a21f0b0a2f38633d4565e1668a15e37e18dbc0",
                "transactions" : [
                    {
                        "data" : "0x",
                        "gasLimit" : "0x0157c0",
                        "gasPrice" : "0x01",
                        "nonce" : "0x00",
                        "r" : "0x625d61fcc2e32c652af682c239223f0495b0e1a9f45cba363ef3563d8c4d8bcb",
                        "s" : "0x2e8cf731173f1efdc2851e8027e0a21f0b0a2f38633d4565e1668a15e37e18db",
                        "to" : "0x094f5374fce5edbc8e2a8697c15331677e6ebf0b",
                        "v" : "0x1b",
                        "value" : "0x00"
                    }
                ],
                "uncleHeaders" : [
                ]
            }
        ],
        "genesisBlockHeader" : {
            "bloom" : "0x00000000000000000000000000000000000000000000000000000000000000000000000000000000000000000000000000000000000000000000000000000000000000000000000000000000000000000000000000000000000000000000000000000000000000000000000000000000000000000000000000000000000000000000000000000000000000000000000000000000000000000000000000000000000000000000000000000000000000000000000000000000000000000000000000000000000000000000000000000000000000000000000000000000000000000000000000000000000000000000000000000000000000000000000000000000",
            "coinbase" : "0x2adc25665018aa1fe0e6bc666dac8fc2697ff9ba",
            "difficulty" : "0x020000",
            "extraData" : "0x42",
            "gasLimit" : "0x989680",
            "gasUsed" : "0x00",
            "hash" : "0x94bdf6ca64f3ea76a94753551aa5ab57202bb2f0fd32d1fb6874131a5cf3d795",
            "mixHash" : "0x56e81f171bcc55a6ff8345e692c0f86e5b48e01b996cadc001622fb5e363b421",
            "nonce" : "0x0102030405060708",
            "number" : "0x00",
            "parentHash" : "0x0000000000000000000000000000000000000000000000000000000000000000",
            "receiptTrie" : "0x56e81f171bcc55a6ff8345e692c0f86e5b48e01b996cadc001622fb5e363b421",
            "stateRoot" : "0x77031ff69d4336964af83a422bd0b16401841641f7ef468bd879a8fabf476acc",
            "timestamp" : "0x03b6",
            "transactionsTrie" : "0x56e81f171bcc55a6ff8345e692c0f86e5b48e01b996cadc001622fb5e363b421",
            "uncleHash" : "0x1dcc4de8dec75d7aab85b567b6ccd41ad312451b948a7413f0a142fd40d49347"
        },
        "genesisRLP" : "0xf901faf901f5a00000000000000000000000000000000000000000000000000000000000000000a01dcc4de8dec75d7aab85b567b6ccd41ad312451b948a7413f0a142fd40d49347942adc25665018aa1fe0e6bc666dac8fc2697ff9baa077031ff69d4336964af83a422bd0b16401841641f7ef468bd879a8fabf476acca056e81f171bcc55a6ff8345e692c0f86e5b48e01b996cadc001622fb5e363b421a056e81f171bcc55a6ff8345e692c0f86e5b48e01b996cadc001622fb5e363b421b9010000000000000000000000000000000000000000000000000000000000000000000000000000000000000000000000000000000000000000000000000000000000000000000000000000000000000000000000000000000000000000000000000000000000000000000000000000000000000000000000000000000000000000000000000000000000000000000000000000000000000000000000000000000000000000000000000000000000000000000000000000000000000000000000000000000000000000000000000000000000000000000000000000000000000000000000000000000000000000000000000000000000000000000000000000000000830200008083989680808203b642a056e81f171bcc55a6ff8345e692c0f86e5b48e01b996cadc001622fb5e363b421880102030405060708c0c0",
        "lastblockhash" : "0xce350eb958893153ae94979008c243b02fe969fb42c94ecc92790166b1ee95ba",
        "network" : "ConstantinopleFix",
        "postState" : {
            "0x094f5374fce5edbc8e2a8697c15331677e6ebf0b" : {
                "balance" : "0x01",
                "code" : "0x600060006000600073c94f5374fce5edbc8e2a8697c15331677e6ebf0b61c350fa6000553d600155",
                "nonce" : "0x00",
                "storage" : {
                    "0x01" : "0x01"
                }
            },
            "0x2adc25665018aa1fe0e6bc666dac8fc2697ff9ba" : {
                "balance" : "0x1bc16d674ec8b68f",
                "code" : "0x",
                "nonce" : "0x00",
                "storage" : {
                }
            },
            "0xa94f5374fce5edbc8e2a8697c15331677e6ebf0b" : {
                "balance" : "0xe8d4a45971",
                "code" : "0x",
                "nonce" : "0x01",
                "storage" : {
                }
            },
            "0xc94f5374fce5edbc8e2a8697c15331677e6ebf0b" : {
                "balance" : "0x01",
                "code" : "0x60016000fd",
                "nonce" : "0x00",
                "storage" : {
                }
            }
        },
        "pre" : {
            "0x094f5374fce5edbc8e2a8697c15331677e6ebf0b" : {
                "balance" : "0x01",
                "code" : "0x600060006000600073c94f5374fce5edbc8e2a8697c15331677e6ebf0b61c350fa6000553d600155",
                "nonce" : "0x00",
                "storage" : {
                }
            },
            "0xa94f5374fce5edbc8e2a8697c15331677e6ebf0b" : {
                "balance" : "0xe8d4a51000",
                "code" : "0x",
                "nonce" : "0x00",
                "storage" : {
                }
            },
            "0xc94f5374fce5edbc8e2a8697c15331677e6ebf0b" : {
                "balance" : "0x01",
                "code" : "0x60016000fd",
                "nonce" : "0x00",
                "storage" : {
                }
            }
        },
        "sealEngine" : "NoProof"
    }
}