{
    "static_InternalCallHittingGasLimit_d0g0v0_Byzantium" : {
        "_info" : {
            "comment" : "",
            "filledwith" : "testeth 1.7.0-alpha.1-20+commit.782a7283",
            "lllcversion" : "Version: 0.5.0-develop.2018.11.9+commit.9709dfe0.Linux.g++",
            "source" : "src/BlockchainTestsFiller/GeneralStateTests/stStaticCall/static_InternalCallHittingGasLimit_d0g0v0Filler.json",
            "sourceHash" : "2a5ae8e45ab68e269378d7f294bf2b16c337168967e2e0249f81b30e3e786028"
        },
        "blocks" : [
            {
                "blockHeader" : {
                    "bloom" : "0x00000000000000000000000000000000000000000000000000000000000000000000000000000000000000000000000000000000000000000000000000000000000000000000000000000000000000000000000000000000000000000000000000000000000000000000000000000000000000000000000000000000000000000000000000000000000000000000000000000000000000000000000000000000000000000000000000000000000000000000000000000000000000000000000000000000000000000000000000000000000000000000000000000000000000000000000000000000000000000000000000000000000000000000000000000000",
                    "coinbase" : "0x2adf5374fce5edbc8e2a8697c15331677e6ebf0b",
                    "difficulty" : "0x020000",
                    "extraData" : "0x",
                    "gasLimit" : "0x55f0",
                    "gasUsed" : "0x526c",
                    "hash" : "0xe656686c9f902aad42f30d2260c48189aa1258bacf0b33b8964ed5478fc0bb4b",
                    "mixHash" : "0x0000000000000000000000000000000000000000000000000000000000000000",
                    "nonce" : "0x0000000000000000",
                    "number" : "0x01",
                    "parentHash" : "0x2e37b55927d8c50825bcf0b338416cb9604e36a50c285ec982481c592b815e39",
                    "receiptTrie" : "0x3d0bf19e482f7528e667d0e9bd8d178722bb1b9d612e6154c2c8eaa4f9ca6a8c",
                    "stateRoot" : "0xd3dfdb736d4c5d23b113e81638caa89affc7975824685c6e8cf6f738c704e9c8",
                    "timestamp" : "0x03e8",
                    "transactionsTrie" : "0xfe11b8b36691a34a1ca6844713be88074554ed88106930da079cfdeaaca473e9",
                    "uncleHash" : "0x1dcc4de8dec75d7aab85b567b6ccd41ad312451b948a7413f0a142fd40d49347"
                },
                "rlp" : "0xf9025df901f6a02e37b55927d8c50825bcf0b338416cb9604e36a50c285ec982481c592b815e39a01dcc4de8dec75d7aab85b567b6ccd41ad312451b948a7413f0a142fd40d49347942adf5374fce5edbc8e2a8697c15331677e6ebf0ba0d3dfdb736d4c5d23b113e81638caa89affc7975824685c6e8cf6f738c704e9c8a0fe11b8b36691a34a1ca6844713be88074554ed88106930da079cfdeaaca473e9a03d0bf19e482f7528e667d0e9bd8d178722bb1b9d612e6154c2c8eaa4f9ca6a8cb901000000000000000000000000000000000000000000000000000000000000000000000000000000000000000000000000000000000000000000000000000000000000000000000000000000000000000000000000000000000000000000000000000000000000000000000000000000000000000000000000000000000000000000000000000000000000000000000000000000000000000000000000000000000000000000000000000000000000000000000000000000000000000000000000000000000000000000000000000000000000000000000000000000000000000000000000000000000000000000000000000000000000000000000000000000000083020000018255f082526c8203e880a00000000000000000000000000000000000000000000000000000000000000000880000000000000000f861f85f800182526c94b94f5374fce5edbc8e2a8697c15331677e6ebf0b0a801ca0d0a36ee7886198bffc893565132cebd57edfe047b057d9515102cb86556caf77a033a772d662cc91f3508ab2a98950186bfdee4620241ca226d1308f4eacc1fe5cc0",
                "transactions" : [
                    {
                        "data" : "0x",
                        "gasLimit" : "0x526c",
                        "gasPrice" : "0x01",
                        "nonce" : "0x00",
                        "r" : "0xd0a36ee7886198bffc893565132cebd57edfe047b057d9515102cb86556caf77",
                        "s" : "0x33a772d662cc91f3508ab2a98950186bfdee4620241ca226d1308f4eacc1fe5c",
                        "to" : "0xb94f5374fce5edbc8e2a8697c15331677e6ebf0b",
                        "v" : "0x1c",
                        "value" : "0x0a"
                    }
                ],
                "uncleHeaders" : [
                ]
            }
        ],
        "genesisBlockHeader" : {
            "bloom" : "0x00000000000000000000000000000000000000000000000000000000000000000000000000000000000000000000000000000000000000000000000000000000000000000000000000000000000000000000000000000000000000000000000000000000000000000000000000000000000000000000000000000000000000000000000000000000000000000000000000000000000000000000000000000000000000000000000000000000000000000000000000000000000000000000000000000000000000000000000000000000000000000000000000000000000000000000000000000000000000000000000000000000000000000000000000000000",
            "coinbase" : "0x2adf5374fce5edbc8e2a8697c15331677e6ebf0b",
            "difficulty" : "0x020000",
            "extraData" : "0x42",
            "gasLimit" : "0x55f0",
            "gasUsed" : "0x00",
            "hash" : "0x2e37b55927d8c50825bcf0b338416cb9604e36a50c285ec982481c592b815e39",
            "mixHash" : "0x56e81f171bcc55a6ff8345e692c0f86e5b48e01b996cadc001622fb5e363b421",
            "nonce" : "0x0102030405060708",
            "number" : "0x00",
            "parentHash" : "0x0000000000000000000000000000000000000000000000000000000000000000",
            "receiptTrie" : "0x56e81f171bcc55a6ff8345e692c0f86e5b48e01b996cadc001622fb5e363b421",
            "stateRoot" : "0xd10901768602a1a492caefdeceef785ef1135e61c343f7c8bc405f0487d10137",
            "timestamp" : "0x03b6",
            "transactionsTrie" : "0x56e81f171bcc55a6ff8345e692c0f86e5b48e01b996cadc001622fb5e363b421",
            "uncleHash" : "0x1dcc4de8dec75d7aab85b567b6ccd41ad312451b948a7413f0a142fd40d49347"
        },
        "genesisRLP" : "0xf901f9f901f4a00000000000000000000000000000000000000000000000000000000000000000a01dcc4de8dec75d7aab85b567b6ccd41ad312451b948a7413f0a142fd40d49347942adf5374fce5edbc8e2a8697c15331677e6ebf0ba0d10901768602a1a492caefdeceef785ef1135e61c343f7c8bc405f0487d10137a056e81f171bcc55a6ff8345e692c0f86e5b48e01b996cadc001622fb5e363b421a056e81f171bcc55a6ff8345e692c0f86e5b48e01b996cadc001622fb5e363b421b901000000000000000000000000000000000000000000000000000000000000000000000000000000000000000000000000000000000000000000000000000000000000000000000000000000000000000000000000000000000000000000000000000000000000000000000000000000000000000000000000000000000000000000000000000000000000000000000000000000000000000000000000000000000000000000000000000000000000000000000000000000000000000000000000000000000000000000000000000000000000000000000000000000000000000000000000000000000000000000000000000000000000000000000000000000000083020000808255f0808203b642a056e81f171bcc55a6ff8345e692c0f86e5b48e01b996cadc001622fb5e363b421880102030405060708c0c0",
        "lastblockhash" : "0xe656686c9f902aad42f30d2260c48189aa1258bacf0b33b8964ed5478fc0bb4b",
        "network" : "Byzantium",
        "postState" : {
            "0x2adf5374fce5edbc8e2a8697c15331677e6ebf0b" : {
                "balance" : "0x29a2241af62c526c",
                "code" : "0x",
                "nonce" : "0x00",
                "storage" : {
                }
            },
            "0xa94f5374fce5edbc8e2a8697c15331677e6ebf0b" : {
                "balance" : "0x0eefd4",
                "code" : "0x",
                "nonce" : "0x01",
                "storage" : {
                }
            },
            "0xb94f5374fce5edbc8e2a8697c15331677e6ebf0b" : {
                "balance" : "0x0f4240",
                "code" : "0x600060006000600073c94f5374fce5edbc8e2a8697c15331677e6ebf0b611388fa",
                "nonce" : "0x00",
                "storage" : {
                }
            },
            "0xc94f5374fce5edbc8e2a8697c15331677e6ebf0b" : {
                "balance" : "0x00",
                "code" : "0x5b61c3506080511015601c5760013b506001608051016080526000565b",
                "nonce" : "0x00",
                "storage" : {
                }
            }
        },
        "pre" : {
            "0xa94f5374fce5edbc8e2a8697c15331677e6ebf0b" : {
                "balance" : "0x0f4240",
                "code" : "0x",
                "nonce" : "0x00",
                "storage" : {
                }
            },
            "0xb94f5374fce5edbc8e2a8697c15331677e6ebf0b" : {
                "balance" : "0x0f4240",
                "code" : "0x600060006000600073c94f5374fce5edbc8e2a8697c15331677e6ebf0b611388fa",
                "nonce" : "0x00",
                "storage" : {
                }
            },
            "0xc94f5374fce5edbc8e2a8697c15331677e6ebf0b" : {
                "balance" : "0x00",
                "code" : "0x5b61c3506080511015601c5760013b506001608051016080526000565b",
                "nonce" : "0x00",
                "storage" : {
                }
            }
        },
        "sealEngine" : "NoProof"
    },
    "static_InternalCallHittingGasLimit_d0g0v0_Constantinople" : {
        "_info" : {
            "comment" : "",
            "filledwith" : "testeth 1.7.0-alpha.1-20+commit.782a7283",
            "lllcversion" : "Version: 0.5.0-develop.2018.11.9+commit.9709dfe0.Linux.g++",
            "source" : "src/BlockchainTestsFiller/GeneralStateTests/stStaticCall/static_InternalCallHittingGasLimit_d0g0v0Filler.json",
            "sourceHash" : "2a5ae8e45ab68e269378d7f294bf2b16c337168967e2e0249f81b30e3e786028"
        },
        "blocks" : [
            {
                "blockHeader" : {
                    "bloom" : "0x00000000000000000000000000000000000000000000000000000000000000000000000000000000000000000000000000000000000000000000000000000000000000000000000000000000000000000000000000000000000000000000000000000000000000000000000000000000000000000000000000000000000000000000000000000000000000000000000000000000000000000000000000000000000000000000000000000000000000000000000000000000000000000000000000000000000000000000000000000000000000000000000000000000000000000000000000000000000000000000000000000000000000000000000000000000",
                    "coinbase" : "0x2adf5374fce5edbc8e2a8697c15331677e6ebf0b",
                    "difficulty" : "0x020000",
                    "extraData" : "0x",
                    "gasLimit" : "0x55f0",
                    "gasUsed" : "0x526c",
                    "hash" : "0x1f2fa1b8e03c6a9484db2546abf6e9347060a7844c3c96a3c1ed52f7e68ca713",
                    "mixHash" : "0x0000000000000000000000000000000000000000000000000000000000000000",
                    "nonce" : "0x0000000000000000",
                    "number" : "0x01",
                    "parentHash" : "0x2e37b55927d8c50825bcf0b338416cb9604e36a50c285ec982481c592b815e39",
                    "receiptTrie" : "0x3d0bf19e482f7528e667d0e9bd8d178722bb1b9d612e6154c2c8eaa4f9ca6a8c",
                    "stateRoot" : "0xcbe73d1e8212473d9f990640919d25a8c5e59ac44e1a68ee03875193b9b82c27",
                    "timestamp" : "0x03e8",
                    "transactionsTrie" : "0xfe11b8b36691a34a1ca6844713be88074554ed88106930da079cfdeaaca473e9",
                    "uncleHash" : "0x1dcc4de8dec75d7aab85b567b6ccd41ad312451b948a7413f0a142fd40d49347"
                },
                "rlp" : "0xf9025df901f6a02e37b55927d8c50825bcf0b338416cb9604e36a50c285ec982481c592b815e39a01dcc4de8dec75d7aab85b567b6ccd41ad312451b948a7413f0a142fd40d49347942adf5374fce5edbc8e2a8697c15331677e6ebf0ba0cbe73d1e8212473d9f990640919d25a8c5e59ac44e1a68ee03875193b9b82c27a0fe11b8b36691a34a1ca6844713be88074554ed88106930da079cfdeaaca473e9a03d0bf19e482f7528e667d0e9bd8d178722bb1b9d612e6154c2c8eaa4f9ca6a8cb901000000000000000000000000000000000000000000000000000000000000000000000000000000000000000000000000000000000000000000000000000000000000000000000000000000000000000000000000000000000000000000000000000000000000000000000000000000000000000000000000000000000000000000000000000000000000000000000000000000000000000000000000000000000000000000000000000000000000000000000000000000000000000000000000000000000000000000000000000000000000000000000000000000000000000000000000000000000000000000000000000000000000000000000000000000000083020000018255f082526c8203e880a00000000000000000000000000000000000000000000000000000000000000000880000000000000000f861f85f800182526c94b94f5374fce5edbc8e2a8697c15331677e6ebf0b0a801ca0d0a36ee7886198bffc893565132cebd57edfe047b057d9515102cb86556caf77a033a772d662cc91f3508ab2a98950186bfdee4620241ca226d1308f4eacc1fe5cc0",
                "transactions" : [
                    {
                        "data" : "0x",
                        "gasLimit" : "0x526c",
                        "gasPrice" : "0x01",
                        "nonce" : "0x00",
                        "r" : "0xd0a36ee7886198bffc893565132cebd57edfe047b057d9515102cb86556caf77",
                        "s" : "0x33a772d662cc91f3508ab2a98950186bfdee4620241ca226d1308f4eacc1fe5c",
                        "to" : "0xb94f5374fce5edbc8e2a8697c15331677e6ebf0b",
                        "v" : "0x1c",
                        "value" : "0x0a"
                    }
                ],
                "uncleHeaders" : [
                ]
            }
        ],
        "genesisBlockHeader" : {
            "bloom" : "0x00000000000000000000000000000000000000000000000000000000000000000000000000000000000000000000000000000000000000000000000000000000000000000000000000000000000000000000000000000000000000000000000000000000000000000000000000000000000000000000000000000000000000000000000000000000000000000000000000000000000000000000000000000000000000000000000000000000000000000000000000000000000000000000000000000000000000000000000000000000000000000000000000000000000000000000000000000000000000000000000000000000000000000000000000000000",
            "coinbase" : "0x2adf5374fce5edbc8e2a8697c15331677e6ebf0b",
            "difficulty" : "0x020000",
            "extraData" : "0x42",
            "gasLimit" : "0x55f0",
            "gasUsed" : "0x00",
            "hash" : "0x2e37b55927d8c50825bcf0b338416cb9604e36a50c285ec982481c592b815e39",
            "mixHash" : "0x56e81f171bcc55a6ff8345e692c0f86e5b48e01b996cadc001622fb5e363b421",
            "nonce" : "0x0102030405060708",
            "number" : "0x00",
            "parentHash" : "0x0000000000000000000000000000000000000000000000000000000000000000",
            "receiptTrie" : "0x56e81f171bcc55a6ff8345e692c0f86e5b48e01b996cadc001622fb5e363b421",
            "stateRoot" : "0xd10901768602a1a492caefdeceef785ef1135e61c343f7c8bc405f0487d10137",
            "timestamp" : "0x03b6",
            "transactionsTrie" : "0x56e81f171bcc55a6ff8345e692c0f86e5b48e01b996cadc001622fb5e363b421",
            "uncleHash" : "0x1dcc4de8dec75d7aab85b567b6ccd41ad312451b948a7413f0a142fd40d49347"
        },
        "genesisRLP" : "0xf901f9f901f4a00000000000000000000000000000000000000000000000000000000000000000a01dcc4de8dec75d7aab85b567b6ccd41ad312451b948a7413f0a142fd40d49347942adf5374fce5edbc8e2a8697c15331677e6ebf0ba0d10901768602a1a492caefdeceef785ef1135e61c343f7c8bc405f0487d10137a056e81f171bcc55a6ff8345e692c0f86e5b48e01b996cadc001622fb5e363b421a056e81f171bcc55a6ff8345e692c0f86e5b48e01b996cadc001622fb5e363b421b901000000000000000000000000000000000000000000000000000000000000000000000000000000000000000000000000000000000000000000000000000000000000000000000000000000000000000000000000000000000000000000000000000000000000000000000000000000000000000000000000000000000000000000000000000000000000000000000000000000000000000000000000000000000000000000000000000000000000000000000000000000000000000000000000000000000000000000000000000000000000000000000000000000000000000000000000000000000000000000000000000000000000000000000000000000000083020000808255f0808203b642a056e81f171bcc55a6ff8345e692c0f86e5b48e01b996cadc001622fb5e363b421880102030405060708c0c0",
        "lastblockhash" : "0x1f2fa1b8e03c6a9484db2546abf6e9347060a7844c3c96a3c1ed52f7e68ca713",
        "network" : "Constantinople",
        "postState" : {
            "0x2adf5374fce5edbc8e2a8697c15331677e6ebf0b" : {
                "balance" : "0x1bc16d674ec8526c",
                "code" : "0x",
                "nonce" : "0x00",
                "storage" : {
                }
            },
            "0xa94f5374fce5edbc8e2a8697c15331677e6ebf0b" : {
                "balance" : "0x0eefd4",
                "code" : "0x",
                "nonce" : "0x01",
                "storage" : {
                }
            },
            "0xb94f5374fce5edbc8e2a8697c15331677e6ebf0b" : {
                "balance" : "0x0f4240",
                "code" : "0x600060006000600073c94f5374fce5edbc8e2a8697c15331677e6ebf0b611388fa",
                "nonce" : "0x00",
                "storage" : {
                }
            },
            "0xc94f5374fce5edbc8e2a8697c15331677e6ebf0b" : {
                "balance" : "0x00",
                "code" : "0x5b61c3506080511015601c5760013b506001608051016080526000565b",
                "nonce" : "0x00",
                "storage" : {
                }
            }
        },
        "pre" : {
            "0xa94f5374fce5edbc8e2a8697c15331677e6ebf0b" : {
                "balance" : "0x0f4240",
                "code" : "0x",
                "nonce" : "0x00",
                "storage" : {
                }
            },
            "0xb94f5374fce5edbc8e2a8697c15331677e6ebf0b" : {
                "balance" : "0x0f4240",
                "code" : "0x600060006000600073c94f5374fce5edbc8e2a8697c15331677e6ebf0b611388fa",
                "nonce" : "0x00",
                "storage" : {
                }
            },
            "0xc94f5374fce5edbc8e2a8697c15331677e6ebf0b" : {
                "balance" : "0x00",
                "code" : "0x5b61c3506080511015601c5760013b506001608051016080526000565b",
                "nonce" : "0x00",
                "storage" : {
                }
            }
        },
        "sealEngine" : "NoProof"
    },
    "static_InternalCallHittingGasLimit_d0g0v0_ConstantinopleFix" : {
        "_info" : {
            "comment" : "",
            "filledwith" : "testeth 1.7.0-alpha.1-20+commit.782a7283",
            "lllcversion" : "Version: 0.5.0-develop.2018.11.9+commit.9709dfe0.Linux.g++",
            "source" : "src/BlockchainTestsFiller/GeneralStateTests/stStaticCall/static_InternalCallHittingGasLimit_d0g0v0Filler.json",
            "sourceHash" : "2a5ae8e45ab68e269378d7f294bf2b16c337168967e2e0249f81b30e3e786028"
        },
        "blocks" : [
            {
                "blockHeader" : {
                    "bloom" : "0x00000000000000000000000000000000000000000000000000000000000000000000000000000000000000000000000000000000000000000000000000000000000000000000000000000000000000000000000000000000000000000000000000000000000000000000000000000000000000000000000000000000000000000000000000000000000000000000000000000000000000000000000000000000000000000000000000000000000000000000000000000000000000000000000000000000000000000000000000000000000000000000000000000000000000000000000000000000000000000000000000000000000000000000000000000000",
                    "coinbase" : "0x2adf5374fce5edbc8e2a8697c15331677e6ebf0b",
                    "difficulty" : "0x020000",
                    "extraData" : "0x",
                    "gasLimit" : "0x55f0",
                    "gasUsed" : "0x526c",
                    "hash" : "0x1f2fa1b8e03c6a9484db2546abf6e9347060a7844c3c96a3c1ed52f7e68ca713",
                    "mixHash" : "0x0000000000000000000000000000000000000000000000000000000000000000",
                    "nonce" : "0x0000000000000000",
                    "number" : "0x01",
                    "parentHash" : "0x2e37b55927d8c50825bcf0b338416cb9604e36a50c285ec982481c592b815e39",
                    "receiptTrie" : "0x3d0bf19e482f7528e667d0e9bd8d178722bb1b9d612e6154c2c8eaa4f9ca6a8c",
                    "stateRoot" : "0xcbe73d1e8212473d9f990640919d25a8c5e59ac44e1a68ee03875193b9b82c27",
                    "timestamp" : "0x03e8",
                    "transactionsTrie" : "0xfe11b8b36691a34a1ca6844713be88074554ed88106930da079cfdeaaca473e9",
                    "uncleHash" : "0x1dcc4de8dec75d7aab85b567b6ccd41ad312451b948a7413f0a142fd40d49347"
                },
                "rlp" : "0xf9025df901f6a02e37b55927d8c50825bcf0b338416cb9604e36a50c285ec982481c592b815e39a01dcc4de8dec75d7aab85b567b6ccd41ad312451b948a7413f0a142fd40d49347942adf5374fce5edbc8e2a8697c15331677e6ebf0ba0cbe73d1e8212473d9f990640919d25a8c5e59ac44e1a68ee03875193b9b82c27a0fe11b8b36691a34a1ca6844713be88074554ed88106930da079cfdeaaca473e9a03d0bf19e482f7528e667d0e9bd8d178722bb1b9d612e6154c2c8eaa4f9ca6a8cb901000000000000000000000000000000000000000000000000000000000000000000000000000000000000000000000000000000000000000000000000000000000000000000000000000000000000000000000000000000000000000000000000000000000000000000000000000000000000000000000000000000000000000000000000000000000000000000000000000000000000000000000000000000000000000000000000000000000000000000000000000000000000000000000000000000000000000000000000000000000000000000000000000000000000000000000000000000000000000000000000000000000000000000000000000000000083020000018255f082526c8203e880a00000000000000000000000000000000000000000000000000000000000000000880000000000000000f861f85f800182526c94b94f5374fce5edbc8e2a8697c15331677e6ebf0b0a801ca0d0a36ee7886198bffc893565132cebd57edfe047b057d9515102cb86556caf77a033a772d662cc91f3508ab2a98950186bfdee4620241ca226d1308f4eacc1fe5cc0",
                "transactions" : [
                    {
                        "data" : "0x",
                        "gasLimit" : "0x526c",
                        "gasPrice" : "0x01",
                        "nonce" : "0x00",
                        "r" : "0xd0a36ee7886198bffc893565132cebd57edfe047b057d9515102cb86556caf77",
                        "s" : "0x33a772d662cc91f3508ab2a98950186bfdee4620241ca226d1308f4eacc1fe5c",
                        "to" : "0xb94f5374fce5edbc8e2a8697c15331677e6ebf0b",
                        "v" : "0x1c",
                        "value" : "0x0a"
                    }
                ],
                "uncleHeaders" : [
                ]
            }
        ],
        "genesisBlockHeader" : {
            "bloom" : "0x00000000000000000000000000000000000000000000000000000000000000000000000000000000000000000000000000000000000000000000000000000000000000000000000000000000000000000000000000000000000000000000000000000000000000000000000000000000000000000000000000000000000000000000000000000000000000000000000000000000000000000000000000000000000000000000000000000000000000000000000000000000000000000000000000000000000000000000000000000000000000000000000000000000000000000000000000000000000000000000000000000000000000000000000000000000",
            "coinbase" : "0x2adf5374fce5edbc8e2a8697c15331677e6ebf0b",
            "difficulty" : "0x020000",
            "extraData" : "0x42",
            "gasLimit" : "0x55f0",
            "gasUsed" : "0x00",
            "hash" : "0x2e37b55927d8c50825bcf0b338416cb9604e36a50c285ec982481c592b815e39",
            "mixHash" : "0x56e81f171bcc55a6ff8345e692c0f86e5b48e01b996cadc001622fb5e363b421",
            "nonce" : "0x0102030405060708",
            "number" : "0x00",
            "parentHash" : "0x0000000000000000000000000000000000000000000000000000000000000000",
            "receiptTrie" : "0x56e81f171bcc55a6ff8345e692c0f86e5b48e01b996cadc001622fb5e363b421",
            "stateRoot" : "0xd10901768602a1a492caefdeceef785ef1135e61c343f7c8bc405f0487d10137",
            "timestamp" : "0x03b6",
            "transactionsTrie" : "0x56e81f171bcc55a6ff8345e692c0f86e5b48e01b996cadc001622fb5e363b421",
            "uncleHash" : "0x1dcc4de8dec75d7aab85b567b6ccd41ad312451b948a7413f0a142fd40d49347"
        },
        "genesisRLP" : "0xf901f9f901f4a00000000000000000000000000000000000000000000000000000000000000000a01dcc4de8dec75d7aab85b567b6ccd41ad312451b948a7413f0a142fd40d49347942adf5374fce5edbc8e2a8697c15331677e6ebf0ba0d10901768602a1a492caefdeceef785ef1135e61c343f7c8bc405f0487d10137a056e81f171bcc55a6ff8345e692c0f86e5b48e01b996cadc001622fb5e363b421a056e81f171bcc55a6ff8345e692c0f86e5b48e01b996cadc001622fb5e363b421b901000000000000000000000000000000000000000000000000000000000000000000000000000000000000000000000000000000000000000000000000000000000000000000000000000000000000000000000000000000000000000000000000000000000000000000000000000000000000000000000000000000000000000000000000000000000000000000000000000000000000000000000000000000000000000000000000000000000000000000000000000000000000000000000000000000000000000000000000000000000000000000000000000000000000000000000000000000000000000000000000000000000000000000000000000000000083020000808255f0808203b642a056e81f171bcc55a6ff8345e692c0f86e5b48e01b996cadc001622fb5e363b421880102030405060708c0c0",
        "lastblockhash" : "0x1f2fa1b8e03c6a9484db2546abf6e9347060a7844c3c96a3c1ed52f7e68ca713",
        "network" : "ConstantinopleFix",
        "postState" : {
            "0x2adf5374fce5edbc8e2a8697c15331677e6ebf0b" : {
                "balance" : "0x1bc16d674ec8526c",
                "code" : "0x",
                "nonce" : "0x00",
                "storage" : {
                }
            },
            "0xa94f5374fce5edbc8e2a8697c15331677e6ebf0b" : {
                "balance" : "0x0eefd4",
                "code" : "0x",
                "nonce" : "0x01",
                "storage" : {
                }
            },
            "0xb94f5374fce5edbc8e2a8697c15331677e6ebf0b" : {
                "balance" : "0x0f4240",
                "code" : "0x600060006000600073c94f5374fce5edbc8e2a8697c15331677e6ebf0b611388fa",
                "nonce" : "0x00",
                "storage" : {
                }
            },
            "0xc94f5374fce5edbc8e2a8697c15331677e6ebf0b" : {
                "balance" : "0x00",
                "code" : "0x5b61c3506080511015601c5760013b506001608051016080526000565b",
                "nonce" : "0x00",
                "storage" : {
                }
            }
        },
        "pre" : {
            "0xa94f5374fce5edbc8e2a8697c15331677e6ebf0b" : {
                "balance" : "0x0f4240",
                "code" : "0x",
                "nonce" : "0x00",
                "storage" : {
                }
            },
            "0xb94f5374fce5edbc8e2a8697c15331677e6ebf0b" : {
                "balance" : "0x0f4240",
                "code" : "0x600060006000600073c94f5374fce5edbc8e2a8697c15331677e6ebf0b611388fa",
                "nonce" : "0x00",
                "storage" : {
                }
            },
            "0xc94f5374fce5edbc8e2a8697c15331677e6ebf0b" : {
                "balance" : "0x00",
                "code" : "0x5b61c3506080511015601c5760013b506001608051016080526000565b",
                "nonce" : "0x00",
                "storage" : {
                }
            }
        },
        "sealEngine" : "NoProof"
    }
}