{
    "static_callcodecallcodecall_110_OOGMAfter_2_d0g0v0_Byzantium" : {
        "_info" : {
            "comment" : "",
            "filledwith" : "testeth 1.7.0-alpha.1-20+commit.782a7283",
            "lllcversion" : "Version: 0.5.0-develop.2018.11.9+commit.9709dfe0.Linux.g++",
            "source" : "src/BlockchainTestsFiller/GeneralStateTests/stStaticCall/static_callcodecallcodecall_110_OOGMAfter_2_d0g0v0Filler.json",
            "sourceHash" : "aeb994c6f3decded15e070bd3424e7b2daff83e639cc72d65e1613f7e42cff6f"
        },
        "blocks" : [
            {
                "blockHeader" : {
                    "bloom" : "0x00000000000000000000000000000000000000000000000000000000000000000000000000000000000000000000000000000000000000000000000000000000000000000000000000000000000000000000000000000000000000000000000000000000000000000000000000000000000000000000000000000000000000000000000000000000000000000000000000000000000000000000000000000000000000000000000000000000000000000000000000000000000000000000000000000000000000000000000000000000000000000000000000000000000000000000000000000000000000000000000000000000000000000000000000000000",
                    "coinbase" : "0x2adc25665018aa1fe0e6bc666dac8fc2697ff9ba",
                    "difficulty" : "0x020000",
                    "extraData" : "0x",
                    "gasLimit" : "0x989680",
                    "gasUsed" : "0x01a182",
                    "hash" : "0xa55121a4c4b8dc109c35f7c3d2f4aaa5db579623cfd91c4feacc636dba8a36d3",
                    "mixHash" : "0x0000000000000000000000000000000000000000000000000000000000000000",
                    "nonce" : "0x0000000000000000",
                    "number" : "0x01",
                    "parentHash" : "0x0a7e2b8a4aa7775ef54a4f52912179dce2f358c63ce1d83b8d5c727383c87b97",
                    "receiptTrie" : "0x993daa0d1aa166aeb2a97f5e76f060900b886275a482549346d5f5c6540e8534",
                    "stateRoot" : "0xb0cfe94047cb81299ce49bae362d3097c76722f11e9b5b97307abe0eefa40a41",
                    "timestamp" : "0x03e8",
                    "transactionsTrie" : "0xa9196e82a3a9d85d7bcc420dbac78c908768ad2d33a3655ba2e493e2d6dc055e",
                    "uncleHash" : "0x1dcc4de8dec75d7aab85b567b6ccd41ad312451b948a7413f0a142fd40d49347"
                },
                "rlp" : "0xf90260f901f8a00a7e2b8a4aa7775ef54a4f52912179dce2f358c63ce1d83b8d5c727383c87b97a01dcc4de8dec75d7aab85b567b6ccd41ad312451b948a7413f0a142fd40d49347942adc25665018aa1fe0e6bc666dac8fc2697ff9baa0b0cfe94047cb81299ce49bae362d3097c76722f11e9b5b97307abe0eefa40a41a0a9196e82a3a9d85d7bcc420dbac78c908768ad2d33a3655ba2e493e2d6dc055ea0993daa0d1aa166aeb2a97f5e76f060900b886275a482549346d5f5c6540e8534b90100000000000000000000000000000000000000000000000000000000000000000000000000000000000000000000000000000000000000000000000000000000000000000000000000000000000000000000000000000000000000000000000000000000000000000000000000000000000000000000000000000000000000000000000000000000000000000000000000000000000000000000000000000000000000000000000000000000000000000000000000000000000000000000000000000000000000000000000000000000000000000000000000000000000000000000000000000000000000000000000000000000000000000000000000000000008302000001839896808301a1828203e880a00000000000000000000000000000000000000000000000000000000000000000880000000000000000f862f860800183029fe094100000000000000000000000000000000000000080801ba0baf8a8f59325064cb79441e4e78350cedcb7f76317c4f8d9ed321025db52916ba04cc988db9cec57eda456bb242201bb41c723f2427ff750123f11af6b759547e2c0",
                "transactions" : [
                    {
                        "data" : "0x",
                        "gasLimit" : "0x029fe0",
                        "gasPrice" : "0x01",
                        "nonce" : "0x00",
                        "r" : "0xbaf8a8f59325064cb79441e4e78350cedcb7f76317c4f8d9ed321025db52916b",
                        "s" : "0x4cc988db9cec57eda456bb242201bb41c723f2427ff750123f11af6b759547e2",
                        "to" : "0x1000000000000000000000000000000000000000",
                        "v" : "0x1b",
                        "value" : "0x00"
                    }
                ],
                "uncleHeaders" : [
                ]
            }
        ],
        "genesisBlockHeader" : {
            "bloom" : "0x00000000000000000000000000000000000000000000000000000000000000000000000000000000000000000000000000000000000000000000000000000000000000000000000000000000000000000000000000000000000000000000000000000000000000000000000000000000000000000000000000000000000000000000000000000000000000000000000000000000000000000000000000000000000000000000000000000000000000000000000000000000000000000000000000000000000000000000000000000000000000000000000000000000000000000000000000000000000000000000000000000000000000000000000000000000",
            "coinbase" : "0x2adc25665018aa1fe0e6bc666dac8fc2697ff9ba",
            "difficulty" : "0x020000",
            "extraData" : "0x42",
            "gasLimit" : "0x989680",
            "gasUsed" : "0x00",
            "hash" : "0x0a7e2b8a4aa7775ef54a4f52912179dce2f358c63ce1d83b8d5c727383c87b97",
            "mixHash" : "0x56e81f171bcc55a6ff8345e692c0f86e5b48e01b996cadc001622fb5e363b421",
            "nonce" : "0x0102030405060708",
            "number" : "0x00",
            "parentHash" : "0x0000000000000000000000000000000000000000000000000000000000000000",
            "receiptTrie" : "0x56e81f171bcc55a6ff8345e692c0f86e5b48e01b996cadc001622fb5e363b421",
            "stateRoot" : "0xc88416a824e0fab43548e2b3650663c6d3559644f5eb3cfec3a36e2683f28c3c",
            "timestamp" : "0x03b6",
            "transactionsTrie" : "0x56e81f171bcc55a6ff8345e692c0f86e5b48e01b996cadc001622fb5e363b421",
            "uncleHash" : "0x1dcc4de8dec75d7aab85b567b6ccd41ad312451b948a7413f0a142fd40d49347"
        },
        "genesisRLP" : "0xf901faf901f5a00000000000000000000000000000000000000000000000000000000000000000a01dcc4de8dec75d7aab85b567b6ccd41ad312451b948a7413f0a142fd40d49347942adc25665018aa1fe0e6bc666dac8fc2697ff9baa0c88416a824e0fab43548e2b3650663c6d3559644f5eb3cfec3a36e2683f28c3ca056e81f171bcc55a6ff8345e692c0f86e5b48e01b996cadc001622fb5e363b421a056e81f171bcc55a6ff8345e692c0f86e5b48e01b996cadc001622fb5e363b421b9010000000000000000000000000000000000000000000000000000000000000000000000000000000000000000000000000000000000000000000000000000000000000000000000000000000000000000000000000000000000000000000000000000000000000000000000000000000000000000000000000000000000000000000000000000000000000000000000000000000000000000000000000000000000000000000000000000000000000000000000000000000000000000000000000000000000000000000000000000000000000000000000000000000000000000000000000000000000000000000000000000000000000000000000000000000000830200008083989680808203b642a056e81f171bcc55a6ff8345e692c0f86e5b48e01b996cadc001622fb5e363b421880102030405060708c0c0",
        "lastblockhash" : "0xa55121a4c4b8dc109c35f7c3d2f4aaa5db579623cfd91c4feacc636dba8a36d3",
        "network" : "Byzantium",
        "postState" : {
            "0x1000000000000000000000000000000000000000" : {
                "balance" : "0x0de0b6b3a7640000",
                "code" : "0x604060006040600073100000000000000000000000000000000000000161eaf6f46000555a600155",
                "nonce" : "0x00",
                "storage" : {
                    "0x01" : "0x014c81"
                }
            },
            "0x1000000000000000000000000000000000000001" : {
                "balance" : "0x00",
                "code" : "0x6040600060406000731000000000000000000000000000000000000002619c90f4505b61c3506080511015603e5760013b506001608051016080526022565b",
                "nonce" : "0x00",
                "storage" : {
                }
            },
            "0x1000000000000000000000000000000000000002" : {
                "balance" : "0x00",
                "code" : "0x6040600060406000731000000000000000000000000000000000000003614e34fa",
                "nonce" : "0x00",
                "storage" : {
                }
            },
            "0x1000000000000000000000000000000000000003" : {
                "balance" : "0x00",
                "code" : "0x6001600352",
                "nonce" : "0x00",
                "storage" : {
                }
            },
            "0x2adc25665018aa1fe0e6bc666dac8fc2697ff9ba" : {
                "balance" : "0x29a2241af62da182",
                "code" : "0x",
                "nonce" : "0x00",
                "storage" : {
                }
            },
            "0xa94f5374fce5edbc8e2a8697c15331677e6ebf0b" : {
                "balance" : "0x0de0b6b3a7625e7e",
                "code" : "0x",
                "nonce" : "0x01",
                "storage" : {
                }
            }
        },
        "pre" : {
            "0x1000000000000000000000000000000000000000" : {
                "balance" : "0x0de0b6b3a7640000",
                "code" : "0x604060006040600073100000000000000000000000000000000000000161eaf6f46000555a600155",
                "nonce" : "0x00",
                "storage" : {
                }
            },
            "0x1000000000000000000000000000000000000001" : {
                "balance" : "0x00",
                "code" : "0x6040600060406000731000000000000000000000000000000000000002619c90f4505b61c3506080511015603e5760013b506001608051016080526022565b",
                "nonce" : "0x00",
                "storage" : {
                }
            },
            "0x1000000000000000000000000000000000000002" : {
                "balance" : "0x00",
                "code" : "0x6040600060406000731000000000000000000000000000000000000003614e34fa",
                "nonce" : "0x00",
                "storage" : {
                }
            },
            "0x1000000000000000000000000000000000000003" : {
                "balance" : "0x00",
                "code" : "0x6001600352",
                "nonce" : "0x00",
                "storage" : {
                }
            },
            "0xa94f5374fce5edbc8e2a8697c15331677e6ebf0b" : {
                "balance" : "0x0de0b6b3a7640000",
                "code" : "0x",
                "nonce" : "0x00",
                "storage" : {
                }
            }
        },
        "sealEngine" : "NoProof"
    },
    "static_callcodecallcodecall_110_OOGMAfter_2_d0g0v0_Constantinople" : {
        "_info" : {
            "comment" : "",
            "filledwith" : "testeth 1.7.0-alpha.1-20+commit.782a7283",
            "lllcversion" : "Version: 0.5.0-develop.2018.11.9+commit.9709dfe0.Linux.g++",
            "source" : "src/BlockchainTestsFiller/GeneralStateTests/stStaticCall/static_callcodecallcodecall_110_OOGMAfter_2_d0g0v0Filler.json",
            "sourceHash" : "aeb994c6f3decded15e070bd3424e7b2daff83e639cc72d65e1613f7e42cff6f"
        },
        "blocks" : [
            {
                "blockHeader" : {
                    "bloom" : "0x00000000000000000000000000000000000000000000000000000000000000000000000000000000000000000000000000000000000000000000000000000000000000000000000000000000000000000000000000000000000000000000000000000000000000000000000000000000000000000000000000000000000000000000000000000000000000000000000000000000000000000000000000000000000000000000000000000000000000000000000000000000000000000000000000000000000000000000000000000000000000000000000000000000000000000000000000000000000000000000000000000000000000000000000000000000",
                    "coinbase" : "0x2adc25665018aa1fe0e6bc666dac8fc2697ff9ba",
                    "difficulty" : "0x020000",
                    "extraData" : "0x",
                    "gasLimit" : "0x989680",
                    "gasUsed" : "0x018ec2",
                    "hash" : "0x6943088792db6d0d1619f7858dc537169f728ece5623a43930580990591748d9",
                    "mixHash" : "0x0000000000000000000000000000000000000000000000000000000000000000",
                    "nonce" : "0x0000000000000000",
                    "number" : "0x01",
                    "parentHash" : "0x0a7e2b8a4aa7775ef54a4f52912179dce2f358c63ce1d83b8d5c727383c87b97",
                    "receiptTrie" : "0x911b33354dec6907e7901e62080522b4c22a435693a4e1bf5824462e011d7c1c",
                    "stateRoot" : "0x4ce9a3ebd00fa3c3de8514f0aca439f8ca698cc7939a03c3f03f099cd811eee5",
                    "timestamp" : "0x03e8",
                    "transactionsTrie" : "0xa9196e82a3a9d85d7bcc420dbac78c908768ad2d33a3655ba2e493e2d6dc055e",
                    "uncleHash" : "0x1dcc4de8dec75d7aab85b567b6ccd41ad312451b948a7413f0a142fd40d49347"
                },
                "rlp" : "0xf90260f901f8a00a7e2b8a4aa7775ef54a4f52912179dce2f358c63ce1d83b8d5c727383c87b97a01dcc4de8dec75d7aab85b567b6ccd41ad312451b948a7413f0a142fd40d49347942adc25665018aa1fe0e6bc666dac8fc2697ff9baa04ce9a3ebd00fa3c3de8514f0aca439f8ca698cc7939a03c3f03f099cd811eee5a0a9196e82a3a9d85d7bcc420dbac78c908768ad2d33a3655ba2e493e2d6dc055ea0911b33354dec6907e7901e62080522b4c22a435693a4e1bf5824462e011d7c1cb901000000000000000000000000000000000000000000000000000000000000000000000000000000000000000000000000000000000000000000000000000000000000000000000000000000000000000000000000000000000000000000000000000000000000000000000000000000000000000000000000000000000000000000000000000000000000000000000000000000000000000000000000000000000000000000000000000000000000000000000000000000000000000000000000000000000000000000000000000000000000000000000000000000000000000000000000000000000000000000000000000000000000000000000000000000000083020000018398968083018ec28203e880a00000000000000000000000000000000000000000000000000000000000000000880000000000000000f862f860800183029fe094100000000000000000000000000000000000000080801ba0baf8a8f59325064cb79441e4e78350cedcb7f76317c4f8d9ed321025db52916ba04cc988db9cec57eda456bb242201bb41c723f2427ff750123f11af6b759547e2c0",
                "transactions" : [
                    {
                        "data" : "0x",
                        "gasLimit" : "0x029fe0",
                        "gasPrice" : "0x01",
                        "nonce" : "0x00",
                        "r" : "0xbaf8a8f59325064cb79441e4e78350cedcb7f76317c4f8d9ed321025db52916b",
                        "s" : "0x4cc988db9cec57eda456bb242201bb41c723f2427ff750123f11af6b759547e2",
                        "to" : "0x1000000000000000000000000000000000000000",
                        "v" : "0x1b",
                        "value" : "0x00"
                    }
                ],
                "uncleHeaders" : [
                ]
            }
        ],
        "genesisBlockHeader" : {
            "bloom" : "0x00000000000000000000000000000000000000000000000000000000000000000000000000000000000000000000000000000000000000000000000000000000000000000000000000000000000000000000000000000000000000000000000000000000000000000000000000000000000000000000000000000000000000000000000000000000000000000000000000000000000000000000000000000000000000000000000000000000000000000000000000000000000000000000000000000000000000000000000000000000000000000000000000000000000000000000000000000000000000000000000000000000000000000000000000000000",
            "coinbase" : "0x2adc25665018aa1fe0e6bc666dac8fc2697ff9ba",
            "difficulty" : "0x020000",
            "extraData" : "0x42",
            "gasLimit" : "0x989680",
            "gasUsed" : "0x00",
            "hash" : "0x0a7e2b8a4aa7775ef54a4f52912179dce2f358c63ce1d83b8d5c727383c87b97",
            "mixHash" : "0x56e81f171bcc55a6ff8345e692c0f86e5b48e01b996cadc001622fb5e363b421",
            "nonce" : "0x0102030405060708",
            "number" : "0x00",
            "parentHash" : "0x0000000000000000000000000000000000000000000000000000000000000000",
            "receiptTrie" : "0x56e81f171bcc55a6ff8345e692c0f86e5b48e01b996cadc001622fb5e363b421",
            "stateRoot" : "0xc88416a824e0fab43548e2b3650663c6d3559644f5eb3cfec3a36e2683f28c3c",
            "timestamp" : "0x03b6",
            "transactionsTrie" : "0x56e81f171bcc55a6ff8345e692c0f86e5b48e01b996cadc001622fb5e363b421",
            "uncleHash" : "0x1dcc4de8dec75d7aab85b567b6ccd41ad312451b948a7413f0a142fd40d49347"
        },
        "genesisRLP" : "0xf901faf901f5a00000000000000000000000000000000000000000000000000000000000000000a01dcc4de8dec75d7aab85b567b6ccd41ad312451b948a7413f0a142fd40d49347942adc25665018aa1fe0e6bc666dac8fc2697ff9baa0c88416a824e0fab43548e2b3650663c6d3559644f5eb3cfec3a36e2683f28c3ca056e81f171bcc55a6ff8345e692c0f86e5b48e01b996cadc001622fb5e363b421a056e81f171bcc55a6ff8345e692c0f86e5b48e01b996cadc001622fb5e363b421b9010000000000000000000000000000000000000000000000000000000000000000000000000000000000000000000000000000000000000000000000000000000000000000000000000000000000000000000000000000000000000000000000000000000000000000000000000000000000000000000000000000000000000000000000000000000000000000000000000000000000000000000000000000000000000000000000000000000000000000000000000000000000000000000000000000000000000000000000000000000000000000000000000000000000000000000000000000000000000000000000000000000000000000000000000000000000830200008083989680808203b642a056e81f171bcc55a6ff8345e692c0f86e5b48e01b996cadc001622fb5e363b421880102030405060708c0c0",
        "lastblockhash" : "0x6943088792db6d0d1619f7858dc537169f728ece5623a43930580990591748d9",
        "network" : "Constantinople",
        "postState" : {
            "0x1000000000000000000000000000000000000000" : {
                "balance" : "0x0de0b6b3a7640000",
                "code" : "0x604060006040600073100000000000000000000000000000000000000161eaf6f46000555a600155",
                "nonce" : "0x00",
                "storage" : {
                    "0x01" : "0x015f41"
                }
            },
            "0x1000000000000000000000000000000000000001" : {
                "balance" : "0x00",
                "code" : "0x6040600060406000731000000000000000000000000000000000000002619c90f4505b61c3506080511015603e5760013b506001608051016080526022565b",
                "nonce" : "0x00",
                "storage" : {
                }
            },
            "0x1000000000000000000000000000000000000002" : {
                "balance" : "0x00",
                "code" : "0x6040600060406000731000000000000000000000000000000000000003614e34fa",
                "nonce" : "0x00",
                "storage" : {
                }
            },
            "0x1000000000000000000000000000000000000003" : {
                "balance" : "0x00",
                "code" : "0x6001600352",
                "nonce" : "0x00",
                "storage" : {
                }
            },
            "0x2adc25665018aa1fe0e6bc666dac8fc2697ff9ba" : {
                "balance" : "0x1bc16d674ec98ec2",
                "code" : "0x",
                "nonce" : "0x00",
                "storage" : {
                }
            },
            "0xa94f5374fce5edbc8e2a8697c15331677e6ebf0b" : {
                "balance" : "0x0de0b6b3a762713e",
                "code" : "0x",
                "nonce" : "0x01",
                "storage" : {
                }
            }
        },
        "pre" : {
            "0x1000000000000000000000000000000000000000" : {
                "balance" : "0x0de0b6b3a7640000",
                "code" : "0x604060006040600073100000000000000000000000000000000000000161eaf6f46000555a600155",
                "nonce" : "0x00",
                "storage" : {
                }
            },
            "0x1000000000000000000000000000000000000001" : {
                "balance" : "0x00",
                "code" : "0x6040600060406000731000000000000000000000000000000000000002619c90f4505b61c3506080511015603e5760013b506001608051016080526022565b",
                "nonce" : "0x00",
                "storage" : {
                }
            },
            "0x1000000000000000000000000000000000000002" : {
                "balance" : "0x00",
                "code" : "0x6040600060406000731000000000000000000000000000000000000003614e34fa",
                "nonce" : "0x00",
                "storage" : {
                }
            },
            "0x1000000000000000000000000000000000000003" : {
                "balance" : "0x00",
                "code" : "0x6001600352",
                "nonce" : "0x00",
                "storage" : {
                }
            },
            "0xa94f5374fce5edbc8e2a8697c15331677e6ebf0b" : {
                "balance" : "0x0de0b6b3a7640000",
                "code" : "0x",
                "nonce" : "0x00",
                "storage" : {
                }
            }
        },
        "sealEngine" : "NoProof"
    },
    "static_callcodecallcodecall_110_OOGMAfter_2_d0g0v0_ConstantinopleFix" : {
        "_info" : {
            "comment" : "",
            "filledwith" : "testeth 1.7.0-alpha.1-20+commit.782a7283",
            "lllcversion" : "Version: 0.5.0-develop.2018.11.9+commit.9709dfe0.Linux.g++",
            "source" : "src/BlockchainTestsFiller/GeneralStateTests/stStaticCall/static_callcodecallcodecall_110_OOGMAfter_2_d0g0v0Filler.json",
            "sourceHash" : "aeb994c6f3decded15e070bd3424e7b2daff83e639cc72d65e1613f7e42cff6f"
        },
        "blocks" : [
            {
                "blockHeader" : {
                    "bloom" : "0x00000000000000000000000000000000000000000000000000000000000000000000000000000000000000000000000000000000000000000000000000000000000000000000000000000000000000000000000000000000000000000000000000000000000000000000000000000000000000000000000000000000000000000000000000000000000000000000000000000000000000000000000000000000000000000000000000000000000000000000000000000000000000000000000000000000000000000000000000000000000000000000000000000000000000000000000000000000000000000000000000000000000000000000000000000000",
                    "coinbase" : "0x2adc25665018aa1fe0e6bc666dac8fc2697ff9ba",
                    "difficulty" : "0x020000",
                    "extraData" : "0x",
                    "gasLimit" : "0x989680",
                    "gasUsed" : "0x01a182",
                    "hash" : "0x30a701530513f6a2894bf9007dc8aa3c5767ba683d342b7d525952108ee1459f",
                    "mixHash" : "0x0000000000000000000000000000000000000000000000000000000000000000",
                    "nonce" : "0x0000000000000000",
                    "number" : "0x01",
                    "parentHash" : "0x0a7e2b8a4aa7775ef54a4f52912179dce2f358c63ce1d83b8d5c727383c87b97",
                    "receiptTrie" : "0x993daa0d1aa166aeb2a97f5e76f060900b886275a482549346d5f5c6540e8534",
                    "stateRoot" : "0x9f9dfe3c9ae110ae62dcb3851f3bfaa93a2bf6225c2fc2ce8b33d4e5aa186d90",
                    "timestamp" : "0x03e8",
                    "transactionsTrie" : "0xa9196e82a3a9d85d7bcc420dbac78c908768ad2d33a3655ba2e493e2d6dc055e",
                    "uncleHash" : "0x1dcc4de8dec75d7aab85b567b6ccd41ad312451b948a7413f0a142fd40d49347"
                },
                "rlp" : "0xf90260f901f8a00a7e2b8a4aa7775ef54a4f52912179dce2f358c63ce1d83b8d5c727383c87b97a01dcc4de8dec75d7aab85b567b6ccd41ad312451b948a7413f0a142fd40d49347942adc25665018aa1fe0e6bc666dac8fc2697ff9baa09f9dfe3c9ae110ae62dcb3851f3bfaa93a2bf6225c2fc2ce8b33d4e5aa186d90a0a9196e82a3a9d85d7bcc420dbac78c908768ad2d33a3655ba2e493e2d6dc055ea0993daa0d1aa166aeb2a97f5e76f060900b886275a482549346d5f5c6540e8534b90100000000000000000000000000000000000000000000000000000000000000000000000000000000000000000000000000000000000000000000000000000000000000000000000000000000000000000000000000000000000000000000000000000000000000000000000000000000000000000000000000000000000000000000000000000000000000000000000000000000000000000000000000000000000000000000000000000000000000000000000000000000000000000000000000000000000000000000000000000000000000000000000000000000000000000000000000000000000000000000000000000000000000000000000000000000008302000001839896808301a1828203e880a00000000000000000000000000000000000000000000000000000000000000000880000000000000000f862f860800183029fe094100000000000000000000000000000000000000080801ba0baf8a8f59325064cb79441e4e78350cedcb7f76317c4f8d9ed321025db52916ba04cc988db9cec57eda456bb242201bb41c723f2427ff750123f11af6b759547e2c0",
                "transactions" : [
                    {
                        "data" : "0x",
                        "gasLimit" : "0x029fe0",
                        "gasPrice" : "0x01",
                        "nonce" : "0x00",
                        "r" : "0xbaf8a8f59325064cb79441e4e78350cedcb7f76317c4f8d9ed321025db52916b",
                        "s" : "0x4cc988db9cec57eda456bb242201bb41c723f2427ff750123f11af6b759547e2",
                        "to" : "0x1000000000000000000000000000000000000000",
                        "v" : "0x1b",
                        "value" : "0x00"
                    }
                ],
                "uncleHeaders" : [
                ]
            }
        ],
        "genesisBlockHeader" : {
            "bloom" : "0x00000000000000000000000000000000000000000000000000000000000000000000000000000000000000000000000000000000000000000000000000000000000000000000000000000000000000000000000000000000000000000000000000000000000000000000000000000000000000000000000000000000000000000000000000000000000000000000000000000000000000000000000000000000000000000000000000000000000000000000000000000000000000000000000000000000000000000000000000000000000000000000000000000000000000000000000000000000000000000000000000000000000000000000000000000000",
            "coinbase" : "0x2adc25665018aa1fe0e6bc666dac8fc2697ff9ba",
            "difficulty" : "0x020000",
            "extraData" : "0x42",
            "gasLimit" : "0x989680",
            "gasUsed" : "0x00",
            "hash" : "0x0a7e2b8a4aa7775ef54a4f52912179dce2f358c63ce1d83b8d5c727383c87b97",
            "mixHash" : "0x56e81f171bcc55a6ff8345e692c0f86e5b48e01b996cadc001622fb5e363b421",
            "nonce" : "0x0102030405060708",
            "number" : "0x00",
            "parentHash" : "0x0000000000000000000000000000000000000000000000000000000000000000",
            "receiptTrie" : "0x56e81f171bcc55a6ff8345e692c0f86e5b48e01b996cadc001622fb5e363b421",
            "stateRoot" : "0xc88416a824e0fab43548e2b3650663c6d3559644f5eb3cfec3a36e2683f28c3c",
            "timestamp" : "0x03b6",
            "transactionsTrie" : "0x56e81f171bcc55a6ff8345e692c0f86e5b48e01b996cadc001622fb5e363b421",
            "uncleHash" : "0x1dcc4de8dec75d7aab85b567b6ccd41ad312451b948a7413f0a142fd40d49347"
        },
        "genesisRLP" : "0xf901faf901f5a00000000000000000000000000000000000000000000000000000000000000000a01dcc4de8dec75d7aab85b567b6ccd41ad312451b948a7413f0a142fd40d49347942adc25665018aa1fe0e6bc666dac8fc2697ff9baa0c88416a824e0fab43548e2b3650663c6d3559644f5eb3cfec3a36e2683f28c3ca056e81f171bcc55a6ff8345e692c0f86e5b48e01b996cadc001622fb5e363b421a056e81f171bcc55a6ff8345e692c0f86e5b48e01b996cadc001622fb5e363b421b9010000000000000000000000000000000000000000000000000000000000000000000000000000000000000000000000000000000000000000000000000000000000000000000000000000000000000000000000000000000000000000000000000000000000000000000000000000000000000000000000000000000000000000000000000000000000000000000000000000000000000000000000000000000000000000000000000000000000000000000000000000000000000000000000000000000000000000000000000000000000000000000000000000000000000000000000000000000000000000000000000000000000000000000000000000000000830200008083989680808203b642a056e81f171bcc55a6ff8345e692c0f86e5b48e01b996cadc001622fb5e363b421880102030405060708c0c0",
        "lastblockhash" : "0x30a701530513f6a2894bf9007dc8aa3c5767ba683d342b7d525952108ee1459f",
        "network" : "ConstantinopleFix",
        "postState" : {
            "0x1000000000000000000000000000000000000000" : {
                "balance" : "0x0de0b6b3a7640000",
                "code" : "0x604060006040600073100000000000000000000000000000000000000161eaf6f46000555a600155",
                "nonce" : "0x00",
                "storage" : {
                    "0x01" : "0x014c81"
                }
            },
            "0x1000000000000000000000000000000000000001" : {
                "balance" : "0x00",
                "code" : "0x6040600060406000731000000000000000000000000000000000000002619c90f4505b61c3506080511015603e5760013b506001608051016080526022565b",
                "nonce" : "0x00",
                "storage" : {
                }
            },
            "0x1000000000000000000000000000000000000002" : {
                "balance" : "0x00",
                "code" : "0x6040600060406000731000000000000000000000000000000000000003614e34fa",
                "nonce" : "0x00",
                "storage" : {
                }
            },
            "0x1000000000000000000000000000000000000003" : {
                "balance" : "0x00",
                "code" : "0x6001600352",
                "nonce" : "0x00",
                "storage" : {
                }
            },
            "0x2adc25665018aa1fe0e6bc666dac8fc2697ff9ba" : {
                "balance" : "0x1bc16d674ec9a182",
                "code" : "0x",
                "nonce" : "0x00",
                "storage" : {
                }
            },
            "0xa94f5374fce5edbc8e2a8697c15331677e6ebf0b" : {
                "balance" : "0x0de0b6b3a7625e7e",
                "code" : "0x",
                "nonce" : "0x01",
                "storage" : {
                }
            }
        },
        "pre" : {
            "0x1000000000000000000000000000000000000000" : {
                "balance" : "0x0de0b6b3a7640000",
                "code" : "0x604060006040600073100000000000000000000000000000000000000161eaf6f46000555a600155",
                "nonce" : "0x00",
                "storage" : {
                }
            },
            "0x1000000000000000000000000000000000000001" : {
                "balance" : "0x00",
                "code" : "0x6040600060406000731000000000000000000000000000000000000002619c90f4505b61c3506080511015603e5760013b506001608051016080526022565b",
                "nonce" : "0x00",
                "storage" : {
                }
            },
            "0x1000000000000000000000000000000000000002" : {
                "balance" : "0x00",
                "code" : "0x6040600060406000731000000000000000000000000000000000000003614e34fa",
                "nonce" : "0x00",
                "storage" : {
                }
            },
            "0x1000000000000000000000000000000000000003" : {
                "balance" : "0x00",
                "code" : "0x6001600352",
                "nonce" : "0x00",
                "storage" : {
                }
            },
            "0xa94f5374fce5edbc8e2a8697c15331677e6ebf0b" : {
                "balance" : "0x0de0b6b3a7640000",
                "code" : "0x",
                "nonce" : "0x00",
                "storage" : {
                }
            }
        },
        "sealEngine" : "NoProof"
    }
}