{
    "static_Call50000_identity_d1g0v0_Byzantium" : {
        "_info" : {
            "comment" : "",
            "filledwith" : "testeth 1.7.0-alpha.1-20+commit.782a7283",
            "lllcversion" : "Version: 0.5.0-develop.2018.11.9+commit.9709dfe0.Linux.g++",
            "source" : "src/BlockchainTestsFiller/GeneralStateTests/stStaticCall/static_Call50000_identity_d1g0v0Filler.json",
            "sourceHash" : "c475e8e80eb90306e4c44209797b54a2860a85df8a6b4ef0fdf0f050aaf26fed"
        },
        "blocks" : [
            {
                "blockHeader" : {
                    "bloom" : "0x00000000000000000000000000000000000000000000000000000000000000000000000000000000000000000000000000000000000000000000000000000000000000000000000000000000000000000000000000000000000000000000000000000000000000000000000000000000000000000000000000000000000000000000000000000000000000000000000000000000000000000000000000000000000000000000000000000000000000000000000000000000000000000000000000000000000000000000000000000000000000000000000000000000000000000000000000000000000000000000000000000000000000000000000000000000",
                    "coinbase" : "0xb94f5374fce5edbc8e2a8697c15331677e6ebf0b",
                    "difficulty" : "0x020000",
                    "extraData" : "0x",
                    "gasLimit" : "0x0551d8d0",
                    "gasUsed" : "0x052defdc",
                    "hash" : "0x7b84b4cfd557aaf254f6e275e98dadb9090cb5826bd377cfd59f2e0028dcb698",
                    "mixHash" : "0x0000000000000000000000000000000000000000000000000000000000000000",
                    "nonce" : "0x0000000000000000",
                    "number" : "0x01",
                    "parentHash" : "0xd2c6e4217b12b796c9706b93d650cdc2eccd374e26a6031905ede2a72c961f3c",
                    "receiptTrie" : "0xd664774a577a0c88fded991aa9db984caf6ad25c67f35d4aa0691dafc280788d",
                    "stateRoot" : "0x39666a63e4e4eb121fd20edd5f7a65247bf23da694b0475858b971427516d6ef",
                    "timestamp" : "0x03e8",
                    "transactionsTrie" : "0xb2c3c1cc2aacf35e1ebc467a6a6fa0adf855c8295e5284970bd57696b5d8dbc6",
                    "uncleHash" : "0x1dcc4de8dec75d7aab85b567b6ccd41ad312451b948a7413f0a142fd40d49347"
                },
                "rlp" : "0xf90283f901faa0d2c6e4217b12b796c9706b93d650cdc2eccd374e26a6031905ede2a72c961f3ca01dcc4de8dec75d7aab85b567b6ccd41ad312451b948a7413f0a142fd40d4934794b94f5374fce5edbc8e2a8697c15331677e6ebf0ba039666a63e4e4eb121fd20edd5f7a65247bf23da694b0475858b971427516d6efa0b2c3c1cc2aacf35e1ebc467a6a6fa0adf855c8295e5284970bd57696b5d8dbc6a0d664774a577a0c88fded991aa9db984caf6ad25c67f35d4aa0691dafc280788db90100000000000000000000000000000000000000000000000000000000000000000000000000000000000000000000000000000000000000000000000000000000000000000000000000000000000000000000000000000000000000000000000000000000000000000000000000000000000000000000000000000000000000000000000000000000000000000000000000000000000000000000000000000000000000000000000000000000000000000000000000000000000000000000000000000000000000000000000000000000000000000000000000000000000000000000000000000000000000000000000000000000000000000000000000000000008302000001840551d8d084052defdc8203e880a00000000000000000000000000000000000000000000000000000000000000000880000000000000000f883f881800184054296909410000000000000000000000000000000000000000aa0000000000000000000000000cccf5374fce5edbc8e2a8697c15331677e6ebf0b1ca0a9757096176435a7352f933abaa26e37d61982497d54bf3b0847681f686eb137a01c7ff37492235a50e207a3f641e2184401f35124266a7813d2ec227f851801c5c0",
                "transactions" : [
                    {
                        "data" : "0x000000000000000000000000cccf5374fce5edbc8e2a8697c15331677e6ebf0b",
                        "gasLimit" : "0x05429690",
                        "gasPrice" : "0x01",
                        "nonce" : "0x00",
                        "r" : "0xa9757096176435a7352f933abaa26e37d61982497d54bf3b0847681f686eb137",
                        "s" : "0x1c7ff37492235a50e207a3f641e2184401f35124266a7813d2ec227f851801c5",
                        "to" : "0x1000000000000000000000000000000000000000",
                        "v" : "0x1c",
                        "value" : "0x0a"
                    }
                ],
                "uncleHeaders" : [
                ]
            }
        ],
        "genesisBlockHeader" : {
            "bloom" : "0x00000000000000000000000000000000000000000000000000000000000000000000000000000000000000000000000000000000000000000000000000000000000000000000000000000000000000000000000000000000000000000000000000000000000000000000000000000000000000000000000000000000000000000000000000000000000000000000000000000000000000000000000000000000000000000000000000000000000000000000000000000000000000000000000000000000000000000000000000000000000000000000000000000000000000000000000000000000000000000000000000000000000000000000000000000000",
            "coinbase" : "0xb94f5374fce5edbc8e2a8697c15331677e6ebf0b",
            "difficulty" : "0x020000",
            "extraData" : "0x42",
            "gasLimit" : "0x0551d8d0",
            "gasUsed" : "0x00",
            "hash" : "0xd2c6e4217b12b796c9706b93d650cdc2eccd374e26a6031905ede2a72c961f3c",
            "mixHash" : "0x56e81f171bcc55a6ff8345e692c0f86e5b48e01b996cadc001622fb5e363b421",
            "nonce" : "0x0102030405060708",
            "number" : "0x00",
            "parentHash" : "0x0000000000000000000000000000000000000000000000000000000000000000",
            "receiptTrie" : "0x56e81f171bcc55a6ff8345e692c0f86e5b48e01b996cadc001622fb5e363b421",
            "stateRoot" : "0x11cbd45bdb123bd786b774bfcac45e1d3d430c3380bcfc971641e5402c5c2dd9",
            "timestamp" : "0x03b6",
            "transactionsTrie" : "0x56e81f171bcc55a6ff8345e692c0f86e5b48e01b996cadc001622fb5e363b421",
            "uncleHash" : "0x1dcc4de8dec75d7aab85b567b6ccd41ad312451b948a7413f0a142fd40d49347"
        },
        "genesisRLP" : "0xf901fbf901f6a00000000000000000000000000000000000000000000000000000000000000000a01dcc4de8dec75d7aab85b567b6ccd41ad312451b948a7413f0a142fd40d4934794b94f5374fce5edbc8e2a8697c15331677e6ebf0ba011cbd45bdb123bd786b774bfcac45e1d3d430c3380bcfc971641e5402c5c2dd9a056e81f171bcc55a6ff8345e692c0f86e5b48e01b996cadc001622fb5e363b421a056e81f171bcc55a6ff8345e692c0f86e5b48e01b996cadc001622fb5e363b421b90100000000000000000000000000000000000000000000000000000000000000000000000000000000000000000000000000000000000000000000000000000000000000000000000000000000000000000000000000000000000000000000000000000000000000000000000000000000000000000000000000000000000000000000000000000000000000000000000000000000000000000000000000000000000000000000000000000000000000000000000000000000000000000000000000000000000000000000000000000000000000000000000000000000000000000000000000000000000000000000000000000000000000000000000000000000008302000080840551d8d0808203b642a056e81f171bcc55a6ff8345e692c0f86e5b48e01b996cadc001622fb5e363b421880102030405060708c0c0",
        "lastblockhash" : "0x7b84b4cfd557aaf254f6e275e98dadb9090cb5826bd377cfd59f2e0028dcb698",
        "network" : "Byzantium",
        "postState" : {
            "0x1000000000000000000000000000000000000000" : {
                "balance" : "0x0a",
                "code" : "0x6000600060006000346000355af16000555a600155",
                "nonce" : "0x00",
                "storage" : {
                    "0x01" : "0x14f4d7"
                }
            },
            "0xa94f5374fce5edbc8e2a8697c15331677e6ebf0b" : {
                "balance" : "0xfffffffffffffffffffffffffad21019",
                "code" : "0x",
                "nonce" : "0x01",
                "storage" : {
                }
            },
            "0xb94f5374fce5edbc8e2a8697c15331677e6ebf0b" : {
                "balance" : "0x29a2241afb59efdc",
                "code" : "0x",
                "nonce" : "0x00",
                "storage" : {
                }
            },
            "0xbbbf5374fce5edbc8e2a8697c15331677e6ebf0b" : {
                "balance" : "0x0fffffffffffff",
                "code" : "0x5b61c3506080511015602a576000600061c3506000600461061cfa6000556001608051016080526000565b608051600155",
                "nonce" : "0x00",
                "storage" : {
                }
            },
            "0xcccf5374fce5edbc8e2a8697c15331677e6ebf0b" : {
                "balance" : "0x0fffffffffffff",
                "code" : "0x5b61c3506080511015602a576000600061c3506000600461061cfa6000526001608051016080526000565b608051602052",
                "nonce" : "0x00",
                "storage" : {
                }
            }
        },
        "pre" : {
            "0x1000000000000000000000000000000000000000" : {
                "balance" : "0x00",
                "code" : "0x6000600060006000346000355af16000555a600155",
                "nonce" : "0x00",
                "storage" : {
                }
            },
            "0xa94f5374fce5edbc8e2a8697c15331677e6ebf0b" : {
                "balance" : "0xffffffffffffffffffffffffffffffff",
                "code" : "0x",
                "nonce" : "0x00",
                "storage" : {
                }
            },
            "0xbbbf5374fce5edbc8e2a8697c15331677e6ebf0b" : {
                "balance" : "0x0fffffffffffff",
                "code" : "0x5b61c3506080511015602a576000600061c3506000600461061cfa6000556001608051016080526000565b608051600155",
                "nonce" : "0x00",
                "storage" : {
                }
            },
            "0xcccf5374fce5edbc8e2a8697c15331677e6ebf0b" : {
                "balance" : "0x0fffffffffffff",
                "code" : "0x5b61c3506080511015602a576000600061c3506000600461061cfa6000526001608051016080526000565b608051602052",
                "nonce" : "0x00",
                "storage" : {
                }
            }
        },
        "sealEngine" : "NoProof"
    },
    "static_Call50000_identity_d1g0v0_Constantinople" : {
        "_info" : {
            "comment" : "",
            "filledwith" : "testeth 1.7.0-alpha.1-20+commit.782a7283",
            "lllcversion" : "Version: 0.5.0-develop.2018.11.9+commit.9709dfe0.Linux.g++",
            "source" : "src/BlockchainTestsFiller/GeneralStateTests/stStaticCall/static_Call50000_identity_d1g0v0Filler.json",
            "sourceHash" : "c475e8e80eb90306e4c44209797b54a2860a85df8a6b4ef0fdf0f050aaf26fed"
        },
        "blocks" : [
            {
                "blockHeader" : {
                    "bloom" : "0x00000000000000000000000000000000000000000000000000000000000000000000000000000000000000000000000000000000000000000000000000000000000000000000000000000000000000000000000000000000000000000000000000000000000000000000000000000000000000000000000000000000000000000000000000000000000000000000000000000000000000000000000000000000000000000000000000000000000000000000000000000000000000000000000000000000000000000000000000000000000000000000000000000000000000000000000000000000000000000000000000000000000000000000000000000000",
                    "coinbase" : "0xb94f5374fce5edbc8e2a8697c15331677e6ebf0b",
                    "difficulty" : "0x020000",
                    "extraData" : "0x",
                    "gasLimit" : "0x0551d8d0",
                    "gasUsed" : "0x052ddd1c",
                    "hash" : "0x3e272ecfc075cab4b3ea276da0c0a9d9e40b780e45308a0af339344bdd5c0287",
                    "mixHash" : "0x0000000000000000000000000000000000000000000000000000000000000000",
                    "nonce" : "0x0000000000000000",
                    "number" : "0x01",
                    "parentHash" : "0xd2c6e4217b12b796c9706b93d650cdc2eccd374e26a6031905ede2a72c961f3c",
                    "receiptTrie" : "0x028b32d3a7f625eff8c3344eb236f2903c1a8674646561f092c0d5755fd1303a",
                    "stateRoot" : "0xbdd056d68b7093850e60b91643a6ce6a5aa384f566708c93e52ac4cf2d6ed0c3",
                    "timestamp" : "0x03e8",
                    "transactionsTrie" : "0xb2c3c1cc2aacf35e1ebc467a6a6fa0adf855c8295e5284970bd57696b5d8dbc6",
                    "uncleHash" : "0x1dcc4de8dec75d7aab85b567b6ccd41ad312451b948a7413f0a142fd40d49347"
                },
                "rlp" : "0xf90283f901faa0d2c6e4217b12b796c9706b93d650cdc2eccd374e26a6031905ede2a72c961f3ca01dcc4de8dec75d7aab85b567b6ccd41ad312451b948a7413f0a142fd40d4934794b94f5374fce5edbc8e2a8697c15331677e6ebf0ba0bdd056d68b7093850e60b91643a6ce6a5aa384f566708c93e52ac4cf2d6ed0c3a0b2c3c1cc2aacf35e1ebc467a6a6fa0adf855c8295e5284970bd57696b5d8dbc6a0028b32d3a7f625eff8c3344eb236f2903c1a8674646561f092c0d5755fd1303ab90100000000000000000000000000000000000000000000000000000000000000000000000000000000000000000000000000000000000000000000000000000000000000000000000000000000000000000000000000000000000000000000000000000000000000000000000000000000000000000000000000000000000000000000000000000000000000000000000000000000000000000000000000000000000000000000000000000000000000000000000000000000000000000000000000000000000000000000000000000000000000000000000000000000000000000000000000000000000000000000000000000000000000000000000000000000008302000001840551d8d084052ddd1c8203e880a00000000000000000000000000000000000000000000000000000000000000000880000000000000000f883f881800184054296909410000000000000000000000000000000000000000aa0000000000000000000000000cccf5374fce5edbc8e2a8697c15331677e6ebf0b1ca0a9757096176435a7352f933abaa26e37d61982497d54bf3b0847681f686eb137a01c7ff37492235a50e207a3f641e2184401f35124266a7813d2ec227f851801c5c0",
                "transactions" : [
                    {
                        "data" : "0x000000000000000000000000cccf5374fce5edbc8e2a8697c15331677e6ebf0b",
                        "gasLimit" : "0x05429690",
                        "gasPrice" : "0x01",
                        "nonce" : "0x00",
                        "r" : "0xa9757096176435a7352f933abaa26e37d61982497d54bf3b0847681f686eb137",
                        "s" : "0x1c7ff37492235a50e207a3f641e2184401f35124266a7813d2ec227f851801c5",
                        "to" : "0x1000000000000000000000000000000000000000",
                        "v" : "0x1c",
                        "value" : "0x0a"
                    }
                ],
                "uncleHeaders" : [
                ]
            }
        ],
        "genesisBlockHeader" : {
            "bloom" : "0x00000000000000000000000000000000000000000000000000000000000000000000000000000000000000000000000000000000000000000000000000000000000000000000000000000000000000000000000000000000000000000000000000000000000000000000000000000000000000000000000000000000000000000000000000000000000000000000000000000000000000000000000000000000000000000000000000000000000000000000000000000000000000000000000000000000000000000000000000000000000000000000000000000000000000000000000000000000000000000000000000000000000000000000000000000000",
            "coinbase" : "0xb94f5374fce5edbc8e2a8697c15331677e6ebf0b",
            "difficulty" : "0x020000",
            "extraData" : "0x42",
            "gasLimit" : "0x0551d8d0",
            "gasUsed" : "0x00",
            "hash" : "0xd2c6e4217b12b796c9706b93d650cdc2eccd374e26a6031905ede2a72c961f3c",
            "mixHash" : "0x56e81f171bcc55a6ff8345e692c0f86e5b48e01b996cadc001622fb5e363b421",
            "nonce" : "0x0102030405060708",
            "number" : "0x00",
            "parentHash" : "0x0000000000000000000000000000000000000000000000000000000000000000",
            "receiptTrie" : "0x56e81f171bcc55a6ff8345e692c0f86e5b48e01b996cadc001622fb5e363b421",
            "stateRoot" : "0x11cbd45bdb123bd786b774bfcac45e1d3d430c3380bcfc971641e5402c5c2dd9",
            "timestamp" : "0x03b6",
            "transactionsTrie" : "0x56e81f171bcc55a6ff8345e692c0f86e5b48e01b996cadc001622fb5e363b421",
            "uncleHash" : "0x1dcc4de8dec75d7aab85b567b6ccd41ad312451b948a7413f0a142fd40d49347"
        },
        "genesisRLP" : "0xf901fbf901f6a00000000000000000000000000000000000000000000000000000000000000000a01dcc4de8dec75d7aab85b567b6ccd41ad312451b948a7413f0a142fd40d4934794b94f5374fce5edbc8e2a8697c15331677e6ebf0ba011cbd45bdb123bd786b774bfcac45e1d3d430c3380bcfc971641e5402c5c2dd9a056e81f171bcc55a6ff8345e692c0f86e5b48e01b996cadc001622fb5e363b421a056e81f171bcc55a6ff8345e692c0f86e5b48e01b996cadc001622fb5e363b421b90100000000000000000000000000000000000000000000000000000000000000000000000000000000000000000000000000000000000000000000000000000000000000000000000000000000000000000000000000000000000000000000000000000000000000000000000000000000000000000000000000000000000000000000000000000000000000000000000000000000000000000000000000000000000000000000000000000000000000000000000000000000000000000000000000000000000000000000000000000000000000000000000000000000000000000000000000000000000000000000000000000000000000000000000000000000008302000080840551d8d0808203b642a056e81f171bcc55a6ff8345e692c0f86e5b48e01b996cadc001622fb5e363b421880102030405060708c0c0",
        "lastblockhash" : "0x3e272ecfc075cab4b3ea276da0c0a9d9e40b780e45308a0af339344bdd5c0287",
        "network" : "Constantinople",
        "postState" : {
            "0x1000000000000000000000000000000000000000" : {
                "balance" : "0x0a",
                "code" : "0x6000600060006000346000355af16000555a600155",
                "nonce" : "0x00",
                "storage" : {
                    "0x01" : "0x150797"
                }
            },
            "0xa94f5374fce5edbc8e2a8697c15331677e6ebf0b" : {
                "balance" : "0xfffffffffffffffffffffffffad222d9",
                "code" : "0x",
                "nonce" : "0x01",
                "storage" : {
                }
            },
            "0xb94f5374fce5edbc8e2a8697c15331677e6ebf0b" : {
                "balance" : "0x1bc16d6753f5dd1c",
                "code" : "0x",
                "nonce" : "0x00",
                "storage" : {
                }
            },
            "0xbbbf5374fce5edbc8e2a8697c15331677e6ebf0b" : {
                "balance" : "0x0fffffffffffff",
                "code" : "0x5b61c3506080511015602a576000600061c3506000600461061cfa6000556001608051016080526000565b608051600155",
                "nonce" : "0x00",
                "storage" : {
                }
            },
            "0xcccf5374fce5edbc8e2a8697c15331677e6ebf0b" : {
                "balance" : "0x0fffffffffffff",
                "code" : "0x5b61c3506080511015602a576000600061c3506000600461061cfa6000526001608051016080526000565b608051602052",
                "nonce" : "0x00",
                "storage" : {
                }
            }
        },
        "pre" : {
            "0x1000000000000000000000000000000000000000" : {
                "balance" : "0x00",
                "code" : "0x6000600060006000346000355af16000555a600155",
                "nonce" : "0x00",
                "storage" : {
                }
            },
            "0xa94f5374fce5edbc8e2a8697c15331677e6ebf0b" : {
                "balance" : "0xffffffffffffffffffffffffffffffff",
                "code" : "0x",
                "nonce" : "0x00",
                "storage" : {
                }
            },
            "0xbbbf5374fce5edbc8e2a8697c15331677e6ebf0b" : {
                "balance" : "0x0fffffffffffff",
                "code" : "0x5b61c3506080511015602a576000600061c3506000600461061cfa6000556001608051016080526000565b608051600155",
                "nonce" : "0x00",
                "storage" : {
                }
            },
            "0xcccf5374fce5edbc8e2a8697c15331677e6ebf0b" : {
                "balance" : "0x0fffffffffffff",
                "code" : "0x5b61c3506080511015602a576000600061c3506000600461061cfa6000526001608051016080526000565b608051602052",
                "nonce" : "0x00",
                "storage" : {
                }
            }
        },
        "sealEngine" : "NoProof"
    },
    "static_Call50000_identity_d1g0v0_ConstantinopleFix" : {
        "_info" : {
            "comment" : "",
            "filledwith" : "testeth 1.7.0-alpha.1-20+commit.782a7283",
            "lllcversion" : "Version: 0.5.0-develop.2018.11.9+commit.9709dfe0.Linux.g++",
            "source" : "src/BlockchainTestsFiller/GeneralStateTests/stStaticCall/static_Call50000_identity_d1g0v0Filler.json",
            "sourceHash" : "c475e8e80eb90306e4c44209797b54a2860a85df8a6b4ef0fdf0f050aaf26fed"
        },
        "blocks" : [
            {
                "blockHeader" : {
                    "bloom" : "0x00000000000000000000000000000000000000000000000000000000000000000000000000000000000000000000000000000000000000000000000000000000000000000000000000000000000000000000000000000000000000000000000000000000000000000000000000000000000000000000000000000000000000000000000000000000000000000000000000000000000000000000000000000000000000000000000000000000000000000000000000000000000000000000000000000000000000000000000000000000000000000000000000000000000000000000000000000000000000000000000000000000000000000000000000000000",
                    "coinbase" : "0xb94f5374fce5edbc8e2a8697c15331677e6ebf0b",
                    "difficulty" : "0x020000",
                    "extraData" : "0x",
                    "gasLimit" : "0x0551d8d0",
                    "gasUsed" : "0x052defdc",
                    "hash" : "0xdbada46351393bdba0bb65b93cb12d1a8abc291084c553b9dfcd8ee2a8087e9d",
                    "mixHash" : "0x0000000000000000000000000000000000000000000000000000000000000000",
                    "nonce" : "0x0000000000000000",
                    "number" : "0x01",
                    "parentHash" : "0xd2c6e4217b12b796c9706b93d650cdc2eccd374e26a6031905ede2a72c961f3c",
                    "receiptTrie" : "0xd664774a577a0c88fded991aa9db984caf6ad25c67f35d4aa0691dafc280788d",
                    "stateRoot" : "0x7297d4d04fc8ab9be7ef772def8473f23862839eaa9937e1fb947de4c6246ed9",
                    "timestamp" : "0x03e8",
                    "transactionsTrie" : "0xb2c3c1cc2aacf35e1ebc467a6a6fa0adf855c8295e5284970bd57696b5d8dbc6",
                    "uncleHash" : "0x1dcc4de8dec75d7aab85b567b6ccd41ad312451b948a7413f0a142fd40d49347"
                },
                "rlp" : "0xf90283f901faa0d2c6e4217b12b796c9706b93d650cdc2eccd374e26a6031905ede2a72c961f3ca01dcc4de8dec75d7aab85b567b6ccd41ad312451b948a7413f0a142fd40d4934794b94f5374fce5edbc8e2a8697c15331677e6ebf0ba07297d4d04fc8ab9be7ef772def8473f23862839eaa9937e1fb947de4c6246ed9a0b2c3c1cc2aacf35e1ebc467a6a6fa0adf855c8295e5284970bd57696b5d8dbc6a0d664774a577a0c88fded991aa9db984caf6ad25c67f35d4aa0691dafc280788db90100000000000000000000000000000000000000000000000000000000000000000000000000000000000000000000000000000000000000000000000000000000000000000000000000000000000000000000000000000000000000000000000000000000000000000000000000000000000000000000000000000000000000000000000000000000000000000000000000000000000000000000000000000000000000000000000000000000000000000000000000000000000000000000000000000000000000000000000000000000000000000000000000000000000000000000000000000000000000000000000000000000000000000000000000000000008302000001840551d8d084052defdc8203e880a00000000000000000000000000000000000000000000000000000000000000000880000000000000000f883f881800184054296909410000000000000000000000000000000000000000aa0000000000000000000000000cccf5374fce5edbc8e2a8697c15331677e6ebf0b1ca0a9757096176435a7352f933abaa26e37d61982497d54bf3b0847681f686eb137a01c7ff37492235a50e207a3f641e2184401f35124266a7813d2ec227f851801c5c0",
                "transactions" : [
                    {
                        "data" : "0x000000000000000000000000cccf5374fce5edbc8e2a8697c15331677e6ebf0b",
                        "gasLimit" : "0x05429690",
                        "gasPrice" : "0x01",
                        "nonce" : "0x00",
                        "r" : "0xa9757096176435a7352f933abaa26e37d61982497d54bf3b0847681f686eb137",
                        "s" : "0x1c7ff37492235a50e207a3f641e2184401f35124266a7813d2ec227f851801c5",
                        "to" : "0x1000000000000000000000000000000000000000",
                        "v" : "0x1c",
                        "value" : "0x0a"
                    }
                ],
                "uncleHeaders" : [
                ]
            }
        ],
        "genesisBlockHeader" : {
            "bloom" : "0x00000000000000000000000000000000000000000000000000000000000000000000000000000000000000000000000000000000000000000000000000000000000000000000000000000000000000000000000000000000000000000000000000000000000000000000000000000000000000000000000000000000000000000000000000000000000000000000000000000000000000000000000000000000000000000000000000000000000000000000000000000000000000000000000000000000000000000000000000000000000000000000000000000000000000000000000000000000000000000000000000000000000000000000000000000000",
            "coinbase" : "0xb94f5374fce5edbc8e2a8697c15331677e6ebf0b",
            "difficulty" : "0x020000",
            "extraData" : "0x42",
            "gasLimit" : "0x0551d8d0",
            "gasUsed" : "0x00",
            "hash" : "0xd2c6e4217b12b796c9706b93d650cdc2eccd374e26a6031905ede2a72c961f3c",
            "mixHash" : "0x56e81f171bcc55a6ff8345e692c0f86e5b48e01b996cadc001622fb5e363b421",
            "nonce" : "0x0102030405060708",
            "number" : "0x00",
            "parentHash" : "0x0000000000000000000000000000000000000000000000000000000000000000",
            "receiptTrie" : "0x56e81f171bcc55a6ff8345e692c0f86e5b48e01b996cadc001622fb5e363b421",
            "stateRoot" : "0x11cbd45bdb123bd786b774bfcac45e1d3d430c3380bcfc971641e5402c5c2dd9",
            "timestamp" : "0x03b6",
            "transactionsTrie" : "0x56e81f171bcc55a6ff8345e692c0f86e5b48e01b996cadc001622fb5e363b421",
            "uncleHash" : "0x1dcc4de8dec75d7aab85b567b6ccd41ad312451b948a7413f0a142fd40d49347"
        },
        "genesisRLP" : "0xf901fbf901f6a00000000000000000000000000000000000000000000000000000000000000000a01dcc4de8dec75d7aab85b567b6ccd41ad312451b948a7413f0a142fd40d4934794b94f5374fce5edbc8e2a8697c15331677e6ebf0ba011cbd45bdb123bd786b774bfcac45e1d3d430c3380bcfc971641e5402c5c2dd9a056e81f171bcc55a6ff8345e692c0f86e5b48e01b996cadc001622fb5e363b421a056e81f171bcc55a6ff8345e692c0f86e5b48e01b996cadc001622fb5e363b421b90100000000000000000000000000000000000000000000000000000000000000000000000000000000000000000000000000000000000000000000000000000000000000000000000000000000000000000000000000000000000000000000000000000000000000000000000000000000000000000000000000000000000000000000000000000000000000000000000000000000000000000000000000000000000000000000000000000000000000000000000000000000000000000000000000000000000000000000000000000000000000000000000000000000000000000000000000000000000000000000000000000000000000000000000000000000008302000080840551d8d0808203b642a056e81f171bcc55a6ff8345e692c0f86e5b48e01b996cadc001622fb5e363b421880102030405060708c0c0",
        "lastblockhash" : "0xdbada46351393bdba0bb65b93cb12d1a8abc291084c553b9dfcd8ee2a8087e9d",
        "network" : "ConstantinopleFix",
        "postState" : {
            "0x1000000000000000000000000000000000000000" : {
                "balance" : "0x0a",
                "code" : "0x6000600060006000346000355af16000555a600155",
                "nonce" : "0x00",
                "storage" : {
                    "0x01" : "0x14f4d7"
                }
            },
            "0xa94f5374fce5edbc8e2a8697c15331677e6ebf0b" : {
                "balance" : "0xfffffffffffffffffffffffffad21019",
                "code" : "0x",
                "nonce" : "0x01",
                "storage" : {
                }
            },
            "0xb94f5374fce5edbc8e2a8697c15331677e6ebf0b" : {
                "balance" : "0x1bc16d6753f5efdc",
                "code" : "0x",
                "nonce" : "0x00",
                "storage" : {
                }
            },
            "0xbbbf5374fce5edbc8e2a8697c15331677e6ebf0b" : {
                "balance" : "0x0fffffffffffff",
                "code" : "0x5b61c3506080511015602a576000600061c3506000600461061cfa6000556001608051016080526000565b608051600155",
                "nonce" : "0x00",
                "storage" : {
                }
            },
            "0xcccf5374fce5edbc8e2a8697c15331677e6ebf0b" : {
                "balance" : "0x0fffffffffffff",
                "code" : "0x5b61c3506080511015602a576000600061c3506000600461061cfa6000526001608051016080526000565b608051602052",
                "nonce" : "0x00",
                "storage" : {
                }
            }
        },
        "pre" : {
            "0x1000000000000000000000000000000000000000" : {
                "balance" : "0x00",
                "code" : "0x6000600060006000346000355af16000555a600155",
                "nonce" : "0x00",
                "storage" : {
                }
            },
            "0xa94f5374fce5edbc8e2a8697c15331677e6ebf0b" : {
                "balance" : "0xffffffffffffffffffffffffffffffff",
                "code" : "0x",
                "nonce" : "0x00",
                "storage" : {
                }
            },
            "0xbbbf5374fce5edbc8e2a8697c15331677e6ebf0b" : {
                "balance" : "0x0fffffffffffff",
                "code" : "0x5b61c3506080511015602a576000600061c3506000600461061cfa6000556001608051016080526000565b608051600155",
                "nonce" : "0x00",
                "storage" : {
                }
            },
            "0xcccf5374fce5edbc8e2a8697c15331677e6ebf0b" : {
                "balance" : "0x0fffffffffffff",
                "code" : "0x5b61c3506080511015602a576000600061c3506000600461061cfa6000526001608051016080526000565b608051602052",
                "nonce" : "0x00",
                "storage" : {
                }
            }
        },
        "sealEngine" : "NoProof"
    }
}