{
    "push32withoutByte_d0g0v0_Berlin" : {
        "_info" : {
            "comment" : "push expect 32 bytes. but we have only 10 byte",
            "filling-rpc-server" : "evm version 1.10.4-unstable-966ee3ae-20210528",
            "filling-tool-version" : "retesteth-0.1.1-eip1559+commit.658fc3a8.Linux.g++",
            "lllcversion" : "Version: 0.5.14-develop.2021.5.18+commit.14c9d5de.mod.Linux.g++",
            "source" : "src/GeneralStateTestsFiller/stSpecialTest/push32withoutByteFiller.json",
            "sourceHash" : "376f0cda83a57da026382b3ed21d4da4d0078d3a57ca58126cacf9a9b0a9b7e7"
        },
        "genesisBlockHeader" : {
            "bloom" : "0x00000000000000000000000000000000000000000000000000000000000000000000000000000000000000000000000000000000000000000000000000000000000000000000000000000000000000000000000000000000000000000000000000000000000000000000000000000000000000000000000000000000000000000000000000000000000000000000000000000000000000000000000000000000000000000000000000000000000000000000000000000000000000000000000000000000000000000000000000000000000000000000000000000000000000000000000000000000000000000000000000000000000000000000000000000000",
            "coinbase" : "0x68795c4aa09d6f4ed3e5deddf8c2ad3049a601da",
            "difficulty" : "0x020000",
            "extraData" : "0x00",
            "gasLimit" : "0x2fefd8",
            "gasUsed" : "0x00",
            "hash" : "0xc6761a1d81e8b8c3bb829f84a7814e6528b11b076fb7881a4fb637e7d050c9a9",
            "mixHash" : "0x0000000000000000000000000000000000000000000000000000000000000000",
            "nonce" : "0x0000000000000000",
            "number" : "0x00",
            "parentHash" : "0x0000000000000000000000000000000000000000000000000000000000000000",
            "receiptTrie" : "0x56e81f171bcc55a6ff8345e692c0f86e5b48e01b996cadc001622fb5e363b421",
            "stateRoot" : "0x5a830fc58e0fccf6aa87dbb9d6e4fba012daee3c26435fe50dde7ceb57672bc7",
            "timestamp" : "0x00",
            "transactionsTrie" : "0x56e81f171bcc55a6ff8345e692c0f86e5b48e01b996cadc001622fb5e363b421",
            "uncleHash" : "0x1dcc4de8dec75d7aab85b567b6ccd41ad312451b948a7413f0a142fd40d49347"
        },
        "pre" : {
            "0x0dc02922f33e45537411b9f92a1dcc9750ba9932" : {
                "balance" : "0x00",
                "code" : "0x7f11223344556677889910",
                "nonce" : "0x00",
                "storage" : {
                }
            },
            "0xa94f5374fce5edbc8e2a8697c15331677e6ebf0b" : {
                "balance" : "0x8ac7230489e80000",
                "code" : "0x",
                "nonce" : "0x01",
                "storage" : {
                }
            }
        },
        "postState" : {
            "0x0dc02922f33e45537411b9f92a1dcc9750ba9932" : {
                "code" : "0x7f11223344556677889910",
                "nonce" : "0x00",
                "balance" : "0x00",
                "storage" : {
                }
            },
            "0x68795c4aa09d6f4ed3e5deddf8c2ad3049a601da" : {
                "code" : "0x",
                "nonce" : "0x00",
                "balance" : "0x1bc16d674ecb346e",
                "storage" : {
                }
            },
            "0xa94f5374fce5edbc8e2a8697c15331677e6ebf0b" : {
                "code" : "0x",
                "nonce" : "0x02",
                "balance" : "0x8ac7230489e4cb92",
                "storage" : {
                }
            }
        },
        "network" : "Berlin",
        "sealEngine" : "NoProof",
        "lastblockhash" : "0xb963ce4341bd1f9c5a3a1497e50712450fffe4d912951ad516fa76031e04ce56",
        "genesisRLP" : "0xf901f8f901f3a00000000000000000000000000000000000000000000000000000000000000000a01dcc4de8dec75d7aab85b567b6ccd41ad312451b948a7413f0a142fd40d493479468795c4aa09d6f4ed3e5deddf8c2ad3049a601daa05a830fc58e0fccf6aa87dbb9d6e4fba012daee3c26435fe50dde7ceb57672bc7a056e81f171bcc55a6ff8345e692c0f86e5b48e01b996cadc001622fb5e363b421a056e81f171bcc55a6ff8345e692c0f86e5b48e01b996cadc001622fb5e363b421b90100000000000000000000000000000000000000000000000000000000000000000000000000000000000000000000000000000000000000000000000000000000000000000000000000000000000000000000000000000000000000000000000000000000000000000000000000000000000000000000000000000000000000000000000000000000000000000000000000000000000000000000000000000000000000000000000000000000000000000000000000000000000000000000000000000000000000000000000000000000000000000000000000000000000000000000000000000000000000000000000000000000000000000000000000000000008302000080832fefd8808000a00000000000000000000000000000000000000000000000000000000000000000880000000000000000c0c0",
        "blocks" : [
            {
                "rlp" : "0xf9025ff901f7a0c6761a1d81e8b8c3bb829f84a7814e6528b11b076fb7881a4fb637e7d050c9a9a01dcc4de8dec75d7aab85b567b6ccd41ad312451b948a7413f0a142fd40d493479468795c4aa09d6f4ed3e5deddf8c2ad3049a601daa0414efc2ab2bbeae8672dce3a1dce5ca10b194c306d1faf3fce000e0a3b82fa1ba01627242b18d2d31fe385fbc8cdb55259c52581bb42d57e654f5d2abad87ca19ca0f951f9396af203499cc7d379715a9110323de73967c5700e2f424725446a3c76b90100000000000000000000000000000000000000000000000000000000000000000000000000000000000000000000000000000000000000000000000000000000000000000000000000000000000000000000000000000000000000000000000000000000000000000000000000000000000000000000000000000000000000000000000000000000000000000000000000000000000000000000000000000000000000000000000000000000000000000000000000000000000000000000000000000000000000000000000000000000000000000000000000000000000000000000000000000000000000000000000000000000000000000000000000000000008302000001832fefd882520b8203e800a00000000000000000000000000000000000000000000000000000000000000000880000000000000000f862f860010a8307a120940dc02922f33e45537411b9f92a1dcc9750ba993280801ca0251f31bd60aed600d24bc0c50af7a7041657e37c465b82c1004d9978213edb03a01a16bd43b6aebb640a6868291b69d2a39b69950f556a454e34c3e19a10949f6cc0",
                "blockHeader" : {
                    "bloom" : "0x00000000000000000000000000000000000000000000000000000000000000000000000000000000000000000000000000000000000000000000000000000000000000000000000000000000000000000000000000000000000000000000000000000000000000000000000000000000000000000000000000000000000000000000000000000000000000000000000000000000000000000000000000000000000000000000000000000000000000000000000000000000000000000000000000000000000000000000000000000000000000000000000000000000000000000000000000000000000000000000000000000000000000000000000000000000",
                    "coinbase" : "0x68795c4aa09d6f4ed3e5deddf8c2ad3049a601da",
                    "difficulty" : "0x020000",
                    "extraData" : "0x00",
                    "gasLimit" : "0x2fefd8",
                    "gasUsed" : "0x520b",
                    "hash" : "0xb963ce4341bd1f9c5a3a1497e50712450fffe4d912951ad516fa76031e04ce56",
                    "mixHash" : "0x0000000000000000000000000000000000000000000000000000000000000000",
                    "nonce" : "0x0000000000000000",
                    "number" : "0x01",
                    "parentHash" : "0xc6761a1d81e8b8c3bb829f84a7814e6528b11b076fb7881a4fb637e7d050c9a9",
                    "receiptTrie" : "0xf951f9396af203499cc7d379715a9110323de73967c5700e2f424725446a3c76",
                    "stateRoot" : "0x414efc2ab2bbeae8672dce3a1dce5ca10b194c306d1faf3fce000e0a3b82fa1b",
                    "timestamp" : "0x03e8",
                    "transactionsTrie" : "0x1627242b18d2d31fe385fbc8cdb55259c52581bb42d57e654f5d2abad87ca19c",
                    "uncleHash" : "0x1dcc4de8dec75d7aab85b567b6ccd41ad312451b948a7413f0a142fd40d49347"
                },
                "transactions" : [
                    {
                        "data" : "0x",
                        "gasLimit" : "0x07a120",
                        "gasPrice" : "0x0a",
                        "nonce" : "0x01",
                        "to" : "0x0dc02922f33e45537411b9f92a1dcc9750ba9932",
                        "value" : "0x00",
                        "v" : "0x1c",
                        "r" : "0x251f31bd60aed600d24bc0c50af7a7041657e37c465b82c1004d9978213edb03",
                        "s" : "0x1a16bd43b6aebb640a6868291b69d2a39b69950f556a454e34c3e19a10949f6c"
                    }
                ],
                "uncleHeaders" : [
                ]
            }
        ]
    },
    "push32withoutByte_d0g0v0_Istanbul" : {
        "_info" : {
            "comment" : "push expect 32 bytes. but we have only 10 byte",
            "filling-rpc-server" : "evm version 1.10.4-unstable-966ee3ae-20210528",
            "filling-tool-version" : "retesteth-0.1.1-eip1559+commit.658fc3a8.Linux.g++",
            "lllcversion" : "Version: 0.5.14-develop.2021.5.18+commit.14c9d5de.mod.Linux.g++",
            "source" : "src/GeneralStateTestsFiller/stSpecialTest/push32withoutByteFiller.json",
            "sourceHash" : "376f0cda83a57da026382b3ed21d4da4d0078d3a57ca58126cacf9a9b0a9b7e7"
        },
        "genesisBlockHeader" : {
            "bloom" : "0x00000000000000000000000000000000000000000000000000000000000000000000000000000000000000000000000000000000000000000000000000000000000000000000000000000000000000000000000000000000000000000000000000000000000000000000000000000000000000000000000000000000000000000000000000000000000000000000000000000000000000000000000000000000000000000000000000000000000000000000000000000000000000000000000000000000000000000000000000000000000000000000000000000000000000000000000000000000000000000000000000000000000000000000000000000000",
            "coinbase" : "0x68795c4aa09d6f4ed3e5deddf8c2ad3049a601da",
            "difficulty" : "0x020000",
            "extraData" : "0x00",
            "gasLimit" : "0x2fefd8",
            "gasUsed" : "0x00",
            "hash" : "0xc6761a1d81e8b8c3bb829f84a7814e6528b11b076fb7881a4fb637e7d050c9a9",
            "mixHash" : "0x0000000000000000000000000000000000000000000000000000000000000000",
            "nonce" : "0x0000000000000000",
            "number" : "0x00",
            "parentHash" : "0x0000000000000000000000000000000000000000000000000000000000000000",
            "receiptTrie" : "0x56e81f171bcc55a6ff8345e692c0f86e5b48e01b996cadc001622fb5e363b421",
            "stateRoot" : "0x5a830fc58e0fccf6aa87dbb9d6e4fba012daee3c26435fe50dde7ceb57672bc7",
            "timestamp" : "0x00",
            "transactionsTrie" : "0x56e81f171bcc55a6ff8345e692c0f86e5b48e01b996cadc001622fb5e363b421",
            "uncleHash" : "0x1dcc4de8dec75d7aab85b567b6ccd41ad312451b948a7413f0a142fd40d49347"
        },
        "pre" : {
            "0x0dc02922f33e45537411b9f92a1dcc9750ba9932" : {
                "balance" : "0x00",
                "code" : "0x7f11223344556677889910",
                "nonce" : "0x00",
                "storage" : {
                }
            },
            "0xa94f5374fce5edbc8e2a8697c15331677e6ebf0b" : {
                "balance" : "0x8ac7230489e80000",
                "code" : "0x",
                "nonce" : "0x01",
                "storage" : {
                }
            }
        },
        "postState" : {
            "0x0dc02922f33e45537411b9f92a1dcc9750ba9932" : {
                "code" : "0x7f11223344556677889910",
                "nonce" : "0x00",
                "balance" : "0x00",
                "storage" : {
                }
            },
            "0x68795c4aa09d6f4ed3e5deddf8c2ad3049a601da" : {
                "code" : "0x",
                "nonce" : "0x00",
                "balance" : "0x1bc16d674ecb346e",
                "storage" : {
                }
            },
            "0xa94f5374fce5edbc8e2a8697c15331677e6ebf0b" : {
                "code" : "0x",
                "nonce" : "0x02",
                "balance" : "0x8ac7230489e4cb92",
                "storage" : {
                }
            }
        },
        "network" : "Istanbul",
        "sealEngine" : "NoProof",
        "lastblockhash" : "0xb963ce4341bd1f9c5a3a1497e50712450fffe4d912951ad516fa76031e04ce56",
        "genesisRLP" : "0xf901f8f901f3a00000000000000000000000000000000000000000000000000000000000000000a01dcc4de8dec75d7aab85b567b6ccd41ad312451b948a7413f0a142fd40d493479468795c4aa09d6f4ed3e5deddf8c2ad3049a601daa05a830fc58e0fccf6aa87dbb9d6e4fba012daee3c26435fe50dde7ceb57672bc7a056e81f171bcc55a6ff8345e692c0f86e5b48e01b996cadc001622fb5e363b421a056e81f171bcc55a6ff8345e692c0f86e5b48e01b996cadc001622fb5e363b421b90100000000000000000000000000000000000000000000000000000000000000000000000000000000000000000000000000000000000000000000000000000000000000000000000000000000000000000000000000000000000000000000000000000000000000000000000000000000000000000000000000000000000000000000000000000000000000000000000000000000000000000000000000000000000000000000000000000000000000000000000000000000000000000000000000000000000000000000000000000000000000000000000000000000000000000000000000000000000000000000000000000000000000000000000000000000008302000080832fefd8808000a00000000000000000000000000000000000000000000000000000000000000000880000000000000000c0c0",
        "blocks" : [
            {
                "rlp" : "0xf9025ff901f7a0c6761a1d81e8b8c3bb829f84a7814e6528b11b076fb7881a4fb637e7d050c9a9a01dcc4de8dec75d7aab85b567b6ccd41ad312451b948a7413f0a142fd40d493479468795c4aa09d6f4ed3e5deddf8c2ad3049a601daa0414efc2ab2bbeae8672dce3a1dce5ca10b194c306d1faf3fce000e0a3b82fa1ba01627242b18d2d31fe385fbc8cdb55259c52581bb42d57e654f5d2abad87ca19ca0f951f9396af203499cc7d379715a9110323de73967c5700e2f424725446a3c76b90100000000000000000000000000000000000000000000000000000000000000000000000000000000000000000000000000000000000000000000000000000000000000000000000000000000000000000000000000000000000000000000000000000000000000000000000000000000000000000000000000000000000000000000000000000000000000000000000000000000000000000000000000000000000000000000000000000000000000000000000000000000000000000000000000000000000000000000000000000000000000000000000000000000000000000000000000000000000000000000000000000000000000000000000000000000008302000001832fefd882520b8203e800a00000000000000000000000000000000000000000000000000000000000000000880000000000000000f862f860010a8307a120940dc02922f33e45537411b9f92a1dcc9750ba993280801ca0251f31bd60aed600d24bc0c50af7a7041657e37c465b82c1004d9978213edb03a01a16bd43b6aebb640a6868291b69d2a39b69950f556a454e34c3e19a10949f6cc0",
                "blockHeader" : {
                    "bloom" : "0x00000000000000000000000000000000000000000000000000000000000000000000000000000000000000000000000000000000000000000000000000000000000000000000000000000000000000000000000000000000000000000000000000000000000000000000000000000000000000000000000000000000000000000000000000000000000000000000000000000000000000000000000000000000000000000000000000000000000000000000000000000000000000000000000000000000000000000000000000000000000000000000000000000000000000000000000000000000000000000000000000000000000000000000000000000000",
                    "coinbase" : "0x68795c4aa09d6f4ed3e5deddf8c2ad3049a601da",
                    "difficulty" : "0x020000",
                    "extraData" : "0x00",
                    "gasLimit" : "0x2fefd8",
                    "gasUsed" : "0x520b",
                    "hash" : "0xb963ce4341bd1f9c5a3a1497e50712450fffe4d912951ad516fa76031e04ce56",
                    "mixHash" : "0x0000000000000000000000000000000000000000000000000000000000000000",
                    "nonce" : "0x0000000000000000",
                    "number" : "0x01",
                    "parentHash" : "0xc6761a1d81e8b8c3bb829f84a7814e6528b11b076fb7881a4fb637e7d050c9a9",
                    "receiptTrie" : "0xf951f9396af203499cc7d379715a9110323de73967c5700e2f424725446a3c76",
                    "stateRoot" : "0x414efc2ab2bbeae8672dce3a1dce5ca10b194c306d1faf3fce000e0a3b82fa1b",
                    "timestamp" : "0x03e8",
                    "transactionsTrie" : "0x1627242b18d2d31fe385fbc8cdb55259c52581bb42d57e654f5d2abad87ca19c",
                    "uncleHash" : "0x1dcc4de8dec75d7aab85b567b6ccd41ad312451b948a7413f0a142fd40d49347"
                },
                "transactions" : [
                    {
                        "data" : "0x",
                        "gasLimit" : "0x07a120",
                        "gasPrice" : "0x0a",
                        "nonce" : "0x01",
                        "to" : "0x0dc02922f33e45537411b9f92a1dcc9750ba9932",
                        "value" : "0x00",
                        "v" : "0x1c",
                        "r" : "0x251f31bd60aed600d24bc0c50af7a7041657e37c465b82c1004d9978213edb03",
                        "s" : "0x1a16bd43b6aebb640a6868291b69d2a39b69950f556a454e34c3e19a10949f6c"
                    }
                ],
                "uncleHeaders" : [
                ]
            }
        ]
    },
    "push32withoutByte_d0g0v0_London" : {
        "_info" : {
            "comment" : "push expect 32 bytes. but we have only 10 byte",
            "filling-rpc-server" : "evm version 1.10.4-unstable-966ee3ae-20210528",
            "filling-tool-version" : "retesteth-0.1.1-eip1559+commit.658fc3a8.Linux.g++",
            "lllcversion" : "Version: 0.5.14-develop.2021.5.18+commit.14c9d5de.mod.Linux.g++",
            "source" : "src/GeneralStateTestsFiller/stSpecialTest/push32withoutByteFiller.json",
            "sourceHash" : "376f0cda83a57da026382b3ed21d4da4d0078d3a57ca58126cacf9a9b0a9b7e7"
        },
        "genesisBlockHeader" : {
            "bloom" : "0x00000000000000000000000000000000000000000000000000000000000000000000000000000000000000000000000000000000000000000000000000000000000000000000000000000000000000000000000000000000000000000000000000000000000000000000000000000000000000000000000000000000000000000000000000000000000000000000000000000000000000000000000000000000000000000000000000000000000000000000000000000000000000000000000000000000000000000000000000000000000000000000000000000000000000000000000000000000000000000000000000000000000000000000000000000000",
            "coinbase" : "0x68795c4aa09d6f4ed3e5deddf8c2ad3049a601da",
            "difficulty" : "0x020000",
            "extraData" : "0x00",
            "gasLimit" : "0x2fefd8",
            "gasUsed" : "0x00",
            "hash" : "0xf38c798179fd38807532f09b41676a2ad5e2e15178e0cfebdb634979bf43ed80",
            "mixHash" : "0x0000000000000000000000000000000000000000000000000000000000000000",
            "nonce" : "0x0000000000000000",
            "number" : "0x00",
            "parentHash" : "0x0000000000000000000000000000000000000000000000000000000000000000",
            "receiptTrie" : "0x56e81f171bcc55a6ff8345e692c0f86e5b48e01b996cadc001622fb5e363b421",
            "stateRoot" : "0x5a830fc58e0fccf6aa87dbb9d6e4fba012daee3c26435fe50dde7ceb57672bc7",
            "timestamp" : "0x00",
            "transactionsTrie" : "0x56e81f171bcc55a6ff8345e692c0f86e5b48e01b996cadc001622fb5e363b421",
            "uncleHash" : "0x1dcc4de8dec75d7aab85b567b6ccd41ad312451b948a7413f0a142fd40d49347",
            "baseFee" : "0x0b"
        },
        "pre" : {
            "0x0dc02922f33e45537411b9f92a1dcc9750ba9932" : {
                "balance" : "0x00",
                "code" : "0x7f11223344556677889910",
                "nonce" : "0x00",
                "storage" : {
                }
            },
            "0xa94f5374fce5edbc8e2a8697c15331677e6ebf0b" : {
                "balance" : "0x8ac7230489e80000",
                "code" : "0x",
                "nonce" : "0x01",
                "storage" : {
                }
            }
        },
        "postState" : {
            "0x0dc02922f33e45537411b9f92a1dcc9750ba9932" : {
                "code" : "0x7f11223344556677889910",
                "nonce" : "0x00",
                "balance" : "0x00",
                "storage" : {
                }
            },
            "0x68795c4aa09d6f4ed3e5deddf8c2ad3049a601da" : {
                "code" : "0x",
                "nonce" : "0x00",
                "balance" : "0x1bc16d674ec80000",
                "storage" : {
                }
            },
            "0xa94f5374fce5edbc8e2a8697c15331677e6ebf0b" : {
                "code" : "0x",
                "nonce" : "0x02",
                "balance" : "0x8ac7230489e4cb92",
                "storage" : {
                }
            }
        },
        "network" : "London",
        "sealEngine" : "NoProof",
        "lastblockhash" : "0x8315499bcdb2d2134fc0ccb3c47223fce2fff1e700f66b497c3d0f93d55d8e48",
        "genesisRLP" : "0xf901f9f901f4a00000000000000000000000000000000000000000000000000000000000000000a01dcc4de8dec75d7aab85b567b6ccd41ad312451b948a7413f0a142fd40d493479468795c4aa09d6f4ed3e5deddf8c2ad3049a601daa05a830fc58e0fccf6aa87dbb9d6e4fba012daee3c26435fe50dde7ceb57672bc7a056e81f171bcc55a6ff8345e692c0f86e5b48e01b996cadc001622fb5e363b421a056e81f171bcc55a6ff8345e692c0f86e5b48e01b996cadc001622fb5e363b421b90100000000000000000000000000000000000000000000000000000000000000000000000000000000000000000000000000000000000000000000000000000000000000000000000000000000000000000000000000000000000000000000000000000000000000000000000000000000000000000000000000000000000000000000000000000000000000000000000000000000000000000000000000000000000000000000000000000000000000000000000000000000000000000000000000000000000000000000000000000000000000000000000000000000000000000000000000000000000000000000000000000000000000000000000000000000008302000080832fefd8808000a000000000000000000000000000000000000000000000000000000000000000008800000000000000000bc0c0",
        "blocks" : [
            {
                "rlp" : "0xf90260f901f8a0f38c798179fd38807532f09b41676a2ad5e2e15178e0cfebdb634979bf43ed80a01dcc4de8dec75d7aab85b567b6ccd41ad312451b948a7413f0a142fd40d493479468795c4aa09d6f4ed3e5deddf8c2ad3049a601daa03ef36a26ed4e2991a3ad756e06c56698148ed16c21c81d6566c76839e89605f4a01627242b18d2d31fe385fbc8cdb55259c52581bb42d57e654f5d2abad87ca19ca0f951f9396af203499cc7d379715a9110323de73967c5700e2f424725446a3c76b90100000000000000000000000000000000000000000000000000000000000000000000000000000000000000000000000000000000000000000000000000000000000000000000000000000000000000000000000000000000000000000000000000000000000000000000000000000000000000000000000000000000000000000000000000000000000000000000000000000000000000000000000000000000000000000000000000000000000000000000000000000000000000000000000000000000000000000000000000000000000000000000000000000000000000000000000000000000000000000000000000000000000000000000000000000000008302000001832fefd882520b8203e800a000000000000000000000000000000000000000000000000000000000000000008800000000000000000af862f860010a8307a120940dc02922f33e45537411b9f92a1dcc9750ba993280801ca0251f31bd60aed600d24bc0c50af7a7041657e37c465b82c1004d9978213edb03a01a16bd43b6aebb640a6868291b69d2a39b69950f556a454e34c3e19a10949f6cc0",
                "blockHeader" : {
                    "bloom" : "0x00000000000000000000000000000000000000000000000000000000000000000000000000000000000000000000000000000000000000000000000000000000000000000000000000000000000000000000000000000000000000000000000000000000000000000000000000000000000000000000000000000000000000000000000000000000000000000000000000000000000000000000000000000000000000000000000000000000000000000000000000000000000000000000000000000000000000000000000000000000000000000000000000000000000000000000000000000000000000000000000000000000000000000000000000000000",
                    "coinbase" : "0x68795c4aa09d6f4ed3e5deddf8c2ad3049a601da",
                    "difficulty" : "0x020000",
                    "extraData" : "0x00",
                    "gasLimit" : "0x2fefd8",
                    "gasUsed" : "0x520b",
                    "hash" : "0x8315499bcdb2d2134fc0ccb3c47223fce2fff1e700f66b497c3d0f93d55d8e48",
                    "mixHash" : "0x0000000000000000000000000000000000000000000000000000000000000000",
                    "nonce" : "0x0000000000000000",
                    "number" : "0x01",
                    "parentHash" : "0xf38c798179fd38807532f09b41676a2ad5e2e15178e0cfebdb634979bf43ed80",
                    "receiptTrie" : "0xf951f9396af203499cc7d379715a9110323de73967c5700e2f424725446a3c76",
                    "stateRoot" : "0x3ef36a26ed4e2991a3ad756e06c56698148ed16c21c81d6566c76839e89605f4",
                    "timestamp" : "0x03e8",
                    "transactionsTrie" : "0x1627242b18d2d31fe385fbc8cdb55259c52581bb42d57e654f5d2abad87ca19c",
                    "uncleHash" : "0x1dcc4de8dec75d7aab85b567b6ccd41ad312451b948a7413f0a142fd40d49347",
                    "baseFee" : "0x0a"
                },
                "transactions" : [
                    {
                        "data" : "0x",
                        "gasLimit" : "0x07a120",
                        "gasPrice" : "0x0a",
                        "nonce" : "0x01",
                        "to" : "0x0dc02922f33e45537411b9f92a1dcc9750ba9932",
                        "value" : "0x00",
                        "v" : "0x1c",
                        "r" : "0x251f31bd60aed600d24bc0c50af7a7041657e37c465b82c1004d9978213edb03",
                        "s" : "0x1a16bd43b6aebb640a6868291b69d2a39b69950f556a454e34c3e19a10949f6c"
                    }
                ],
                "uncleHeaders" : [
                ]
            }
        ]
    }
}