{
    "Create2Recursive_d0g0v0_Berlin" : {
        "_info" : {
            "comment" : "Create2 inside Create2 inside Create2....",
            "filling-rpc-server" : "evm version 1.10.4-unstable-966ee3ae-20210528",
            "filling-tool-version" : "retesteth-0.1.1-eip1559+commit.658fc3a8.Linux.g++",
            "lllcversion" : "Version: 0.5.14-develop.2021.5.18+commit.14c9d5de.mod.Linux.g++",
            "source" : "src/GeneralStateTestsFiller/stCreate2/Create2RecursiveFiller.json",
            "sourceHash" : "975e03d62d68e1cab296bb84dcc51af356db609ffebce3dfe0420e0cf9549ff2"
        },
        "genesisBlockHeader" : {
            "bloom" : "0x00000000000000000000000000000000000000000000000000000000000000000000000000000000000000000000000000000000000000000000000000000000000000000000000000000000000000000000000000000000000000000000000000000000000000000000000000000000000000000000000000000000000000000000000000000000000000000000000000000000000000000000000000000000000000000000000000000000000000000000000000000000000000000000000000000000000000000000000000000000000000000000000000000000000000000000000000000000000000000000000000000000000000000000000000000000",
            "coinbase" : "0x2adc25665018aa1fe0e6bc666dac8fc2697ff9ba",
            "difficulty" : "0x020000",
            "extraData" : "0x00",
            "gasLimit" : "0x7fffffffffffffff",
            "gasUsed" : "0x00",
            "hash" : "0xeb116dbe6c7fe1e9bc5c9d7a9e88e94b9906c94093fd9c926f37ffdf16c8df29",
            "mixHash" : "0x0000000000000000000000000000000000000000000000000000000000000000",
            "nonce" : "0x0000000000000000",
            "number" : "0x00",
            "parentHash" : "0x0000000000000000000000000000000000000000000000000000000000000000",
            "receiptTrie" : "0x56e81f171bcc55a6ff8345e692c0f86e5b48e01b996cadc001622fb5e363b421",
            "stateRoot" : "0xb91ee15180ab62e804963423c0db5e6e9a8d7f69f4570611800c216a5ed127a8",
            "timestamp" : "0x00",
            "transactionsTrie" : "0x56e81f171bcc55a6ff8345e692c0f86e5b48e01b996cadc001622fb5e363b421",
            "uncleHash" : "0x1dcc4de8dec75d7aab85b567b6ccd41ad312451b948a7413f0a142fd40d49347"
        },
        "pre" : {
            "0xa94f5374fce5edbc8e2a8697c15331677e6ebf0b" : {
                "balance" : "0xffffffffffffffffffffffffffffffffffffffffffffffffffffffffffffff",
                "code" : "0x",
                "nonce" : "0x00",
                "storage" : {
                }
            },
            "0xb94f5374fce5edbc8e2a8697c15331677e6ebf0b" : {
                "balance" : "0x00",
                "code" : "0x7d606460006000396103e85a10601b576000606460006000f5601d565b5a5b6000526000601e60026000f500",
                "nonce" : "0x00",
                "storage" : {
                }
            }
        },
        "postStateHash" : "0x22ca1b162f5805540c8054bd44978701e9598f45250b444abe05fd44d0ada03c",
        "network" : "Berlin",
        "sealEngine" : "NoProof",
        "lastblockhash" : "0x24e9ce9bdcf46b5a282c894c9db4ac89cdf26ab6ff0a6e7239f012caa6e82400",
        "genesisRLP" : "0xf901fdf901f8a00000000000000000000000000000000000000000000000000000000000000000a01dcc4de8dec75d7aab85b567b6ccd41ad312451b948a7413f0a142fd40d49347942adc25665018aa1fe0e6bc666dac8fc2697ff9baa0b91ee15180ab62e804963423c0db5e6e9a8d7f69f4570611800c216a5ed127a8a056e81f171bcc55a6ff8345e692c0f86e5b48e01b996cadc001622fb5e363b421a056e81f171bcc55a6ff8345e692c0f86e5b48e01b996cadc001622fb5e363b421b90100000000000000000000000000000000000000000000000000000000000000000000000000000000000000000000000000000000000000000000000000000000000000000000000000000000000000000000000000000000000000000000000000000000000000000000000000000000000000000000000000000000000000000000000000000000000000000000000000000000000000000000000000000000000000000000000000000000000000000000000000000000000000000000000000000000000000000000000000000000000000000000000000000000000000000000000000000000000000000000000000000000000000000000000000000000008302000080887fffffffffffffff808000a00000000000000000000000000000000000000000000000000000000000000000880000000000000000c0c0",
        "blocks" : [
            {
                "rlp" : "0xf9026bf901fea0eb116dbe6c7fe1e9bc5c9d7a9e88e94b9906c94093fd9c926f37ffdf16c8df29a01dcc4de8dec75d7aab85b567b6ccd41ad312451b948a7413f0a142fd40d49347942adc25665018aa1fe0e6bc666dac8fc2697ff9baa022ca1b162f5805540c8054bd44978701e9598f45250b444abe05fd44d0ada03ca0da976e1237e33b6fe0cb53fd9ebe93dd9af29e052c3a4abe4b1159332021289da044dadb3564915d387a1d7a319546b3e090cad395237d262814a206933274a69db90100000000000000000000000000000000000000000000000000000000000000000000000000000000000000000000000000000000000000000000000000000000000000000000000000000000000000000000000000000000000000000000000000000000000000000000000000000000000000000000000000000000000000000000000000000000000000000000000000000000000000000000000000000000000000000000000000000000000000000000000000000000000000000000000000000000000000000000000000000000000000000000000000000000000000000000000000000000000000000000000000000000000000000000000000000000008302000001887fffffffffffffff8401f673268203e800a00000000000000000000000000000000000000000000000000000000000000000880000000000000000f867f865800a887effffffffffffff94b94f5374fce5edbc8e2a8697c15331677e6ebf0b80801ca01b3723e67ea5f55055160a3e79141aec6f26c742cd9811b91f791f258427510ea0453d5c97c4ed49afd959cd0773650ca8e252e5376abeceed2b0645174e6bae54c0",
                "blockHeader" : {
                    "bloom" : "0x00000000000000000000000000000000000000000000000000000000000000000000000000000000000000000000000000000000000000000000000000000000000000000000000000000000000000000000000000000000000000000000000000000000000000000000000000000000000000000000000000000000000000000000000000000000000000000000000000000000000000000000000000000000000000000000000000000000000000000000000000000000000000000000000000000000000000000000000000000000000000000000000000000000000000000000000000000000000000000000000000000000000000000000000000000000",
                    "coinbase" : "0x2adc25665018aa1fe0e6bc666dac8fc2697ff9ba",
                    "difficulty" : "0x020000",
                    "extraData" : "0x00",
                    "gasLimit" : "0x7fffffffffffffff",
                    "gasUsed" : "0x01f67326",
                    "hash" : "0x24e9ce9bdcf46b5a282c894c9db4ac89cdf26ab6ff0a6e7239f012caa6e82400",
                    "mixHash" : "0x0000000000000000000000000000000000000000000000000000000000000000",
                    "nonce" : "0x0000000000000000",
                    "number" : "0x01",
                    "parentHash" : "0xeb116dbe6c7fe1e9bc5c9d7a9e88e94b9906c94093fd9c926f37ffdf16c8df29",
                    "receiptTrie" : "0x44dadb3564915d387a1d7a319546b3e090cad395237d262814a206933274a69d",
                    "stateRoot" : "0x22ca1b162f5805540c8054bd44978701e9598f45250b444abe05fd44d0ada03c",
                    "timestamp" : "0x03e8",
                    "transactionsTrie" : "0xda976e1237e33b6fe0cb53fd9ebe93dd9af29e052c3a4abe4b1159332021289d",
                    "uncleHash" : "0x1dcc4de8dec75d7aab85b567b6ccd41ad312451b948a7413f0a142fd40d49347"
                },
                "transactions" : [
                    {
                        "data" : "0x",
                        "gasLimit" : "0x7effffffffffffff",
                        "gasPrice" : "0x0a",
                        "nonce" : "0x00",
                        "to" : "0xb94f5374fce5edbc8e2a8697c15331677e6ebf0b",
                        "value" : "0x00",
                        "v" : "0x1c",
                        "r" : "0x1b3723e67ea5f55055160a3e79141aec6f26c742cd9811b91f791f258427510e",
                        "s" : "0x453d5c97c4ed49afd959cd0773650ca8e252e5376abeceed2b0645174e6bae54"
                    }
                ],
                "uncleHeaders" : [
                ]
            }
        ]
    },
    "Create2Recursive_d0g1v0_Berlin" : {
        "_info" : {
            "comment" : "Create2 inside Create2 inside Create2....",
            "filling-rpc-server" : "evm version 1.10.4-unstable-966ee3ae-20210528",
            "filling-tool-version" : "retesteth-0.1.1-eip1559+commit.658fc3a8.Linux.g++",
            "lllcversion" : "Version: 0.5.14-develop.2021.5.18+commit.14c9d5de.mod.Linux.g++",
            "source" : "src/GeneralStateTestsFiller/stCreate2/Create2RecursiveFiller.json",
            "sourceHash" : "975e03d62d68e1cab296bb84dcc51af356db609ffebce3dfe0420e0cf9549ff2"
        },
        "genesisBlockHeader" : {
            "bloom" : "0x00000000000000000000000000000000000000000000000000000000000000000000000000000000000000000000000000000000000000000000000000000000000000000000000000000000000000000000000000000000000000000000000000000000000000000000000000000000000000000000000000000000000000000000000000000000000000000000000000000000000000000000000000000000000000000000000000000000000000000000000000000000000000000000000000000000000000000000000000000000000000000000000000000000000000000000000000000000000000000000000000000000000000000000000000000000",
            "coinbase" : "0x2adc25665018aa1fe0e6bc666dac8fc2697ff9ba",
            "difficulty" : "0x020000",
            "extraData" : "0x00",
            "gasLimit" : "0x7fffffffffffffff",
            "gasUsed" : "0x00",
            "hash" : "0xeb116dbe6c7fe1e9bc5c9d7a9e88e94b9906c94093fd9c926f37ffdf16c8df29",
            "mixHash" : "0x0000000000000000000000000000000000000000000000000000000000000000",
            "nonce" : "0x0000000000000000",
            "number" : "0x00",
            "parentHash" : "0x0000000000000000000000000000000000000000000000000000000000000000",
            "receiptTrie" : "0x56e81f171bcc55a6ff8345e692c0f86e5b48e01b996cadc001622fb5e363b421",
            "stateRoot" : "0xb91ee15180ab62e804963423c0db5e6e9a8d7f69f4570611800c216a5ed127a8",
            "timestamp" : "0x00",
            "transactionsTrie" : "0x56e81f171bcc55a6ff8345e692c0f86e5b48e01b996cadc001622fb5e363b421",
            "uncleHash" : "0x1dcc4de8dec75d7aab85b567b6ccd41ad312451b948a7413f0a142fd40d49347"
        },
        "pre" : {
            "0xa94f5374fce5edbc8e2a8697c15331677e6ebf0b" : {
                "balance" : "0xffffffffffffffffffffffffffffffffffffffffffffffffffffffffffffff",
                "code" : "0x",
                "nonce" : "0x00",
                "storage" : {
                }
            },
            "0xb94f5374fce5edbc8e2a8697c15331677e6ebf0b" : {
                "balance" : "0x00",
                "code" : "0x7d606460006000396103e85a10601b576000606460006000f5601d565b5a5b6000526000601e60026000f500",
                "nonce" : "0x00",
                "storage" : {
                }
            }
        },
        "postStateHash" : "0x692f5ddb2444047ebc64bb40394f471cdaa51ff026450be790ea5338baacd162",
        "network" : "Berlin",
        "sealEngine" : "NoProof",
        "lastblockhash" : "0x1f9eac93bdee5a20d51584d18aa06373f52b2eaa9b3cb4e6743d3cc20dd5c2c1",
        "genesisRLP" : "0xf901fdf901f8a00000000000000000000000000000000000000000000000000000000000000000a01dcc4de8dec75d7aab85b567b6ccd41ad312451b948a7413f0a142fd40d49347942adc25665018aa1fe0e6bc666dac8fc2697ff9baa0b91ee15180ab62e804963423c0db5e6e9a8d7f69f4570611800c216a5ed127a8a056e81f171bcc55a6ff8345e692c0f86e5b48e01b996cadc001622fb5e363b421a056e81f171bcc55a6ff8345e692c0f86e5b48e01b996cadc001622fb5e363b421b90100000000000000000000000000000000000000000000000000000000000000000000000000000000000000000000000000000000000000000000000000000000000000000000000000000000000000000000000000000000000000000000000000000000000000000000000000000000000000000000000000000000000000000000000000000000000000000000000000000000000000000000000000000000000000000000000000000000000000000000000000000000000000000000000000000000000000000000000000000000000000000000000000000000000000000000000000000000000000000000000000000000000000000000000000000000008302000080887fffffffffffffff808000a00000000000000000000000000000000000000000000000000000000000000000880000000000000000c0c0",
        "blocks" : [
            {
                "rlp" : "0xf90269f901fea0eb116dbe6c7fe1e9bc5c9d7a9e88e94b9906c94093fd9c926f37ffdf16c8df29a01dcc4de8dec75d7aab85b567b6ccd41ad312451b948a7413f0a142fd40d49347942adc25665018aa1fe0e6bc666dac8fc2697ff9baa0692f5ddb2444047ebc64bb40394f471cdaa51ff026450be790ea5338baacd162a0d4b7f2d8d6773a9a909d2f5e767edd05efe823ac6f6fc28448341ae51c2d0934a08b03df82e73004aa85f23a11f8eb65ea46b889e3ec25606dc9e7051a8353e53db90100000000000000000000000000000000000000000000000000000000000000000000000000000000000000000000000000000000000000000000000000000000000000000000000000000000000000000000000000000000000000000000000000000000000000000000000000000000000000000000000000000000000000000000000000000000000000000000000000000000000000000000000000000000000000000000000000000000000000000000000000000000000000000000000000000000000000000000000000000000000000000000000000000000000000000000000000000000000000000000000000000000000000000000000000000000008302000001887fffffffffffffff8401f578918203e800a00000000000000000000000000000000000000000000000000000000000000000880000000000000000f865f863800a861240e9387c0094b94f5374fce5edbc8e2a8697c15331677e6ebf0b80801ca0fe4bf9834be661357a7a524f0f71b153f6fcd08ae530430bb80705d09f359c00a003de6668f8181ff230fcc1005c7e245a794dc575068d63c9e17f1f8c7cce56bec0",
                "blockHeader" : {
                    "bloom" : "0x00000000000000000000000000000000000000000000000000000000000000000000000000000000000000000000000000000000000000000000000000000000000000000000000000000000000000000000000000000000000000000000000000000000000000000000000000000000000000000000000000000000000000000000000000000000000000000000000000000000000000000000000000000000000000000000000000000000000000000000000000000000000000000000000000000000000000000000000000000000000000000000000000000000000000000000000000000000000000000000000000000000000000000000000000000000",
                    "coinbase" : "0x2adc25665018aa1fe0e6bc666dac8fc2697ff9ba",
                    "difficulty" : "0x020000",
                    "extraData" : "0x00",
                    "gasLimit" : "0x7fffffffffffffff",
                    "gasUsed" : "0x01f57891",
                    "hash" : "0x1f9eac93bdee5a20d51584d18aa06373f52b2eaa9b3cb4e6743d3cc20dd5c2c1",
                    "mixHash" : "0x0000000000000000000000000000000000000000000000000000000000000000",
                    "nonce" : "0x0000000000000000",
                    "number" : "0x01",
                    "parentHash" : "0xeb116dbe6c7fe1e9bc5c9d7a9e88e94b9906c94093fd9c926f37ffdf16c8df29",
                    "receiptTrie" : "0x8b03df82e73004aa85f23a11f8eb65ea46b889e3ec25606dc9e7051a8353e53d",
                    "stateRoot" : "0x692f5ddb2444047ebc64bb40394f471cdaa51ff026450be790ea5338baacd162",
                    "timestamp" : "0x03e8",
                    "transactionsTrie" : "0xd4b7f2d8d6773a9a909d2f5e767edd05efe823ac6f6fc28448341ae51c2d0934",
                    "uncleHash" : "0x1dcc4de8dec75d7aab85b567b6ccd41ad312451b948a7413f0a142fd40d49347"
                },
                "transactions" : [
                    {
                        "data" : "0x",
                        "gasLimit" : "0x1240e9387c00",
                        "gasPrice" : "0x0a",
                        "nonce" : "0x00",
                        "to" : "0xb94f5374fce5edbc8e2a8697c15331677e6ebf0b",
                        "value" : "0x00",
                        "v" : "0x1c",
                        "r" : "0xfe4bf9834be661357a7a524f0f71b153f6fcd08ae530430bb80705d09f359c00",
                        "s" : "0x03de6668f8181ff230fcc1005c7e245a794dc575068d63c9e17f1f8c7cce56be"
                    }
                ],
                "uncleHeaders" : [
                ]
            }
        ]
    },
    "Create2Recursive_d0g0v0_Istanbul" : {
        "_info" : {
            "comment" : "Create2 inside Create2 inside Create2....",
            "filling-rpc-server" : "evm version 1.10.4-unstable-966ee3ae-20210528",
            "filling-tool-version" : "retesteth-0.1.1-eip1559+commit.658fc3a8.Linux.g++",
            "lllcversion" : "Version: 0.5.14-develop.2021.5.18+commit.14c9d5de.mod.Linux.g++",
            "source" : "src/GeneralStateTestsFiller/stCreate2/Create2RecursiveFiller.json",
            "sourceHash" : "975e03d62d68e1cab296bb84dcc51af356db609ffebce3dfe0420e0cf9549ff2"
        },
        "genesisBlockHeader" : {
            "bloom" : "0x00000000000000000000000000000000000000000000000000000000000000000000000000000000000000000000000000000000000000000000000000000000000000000000000000000000000000000000000000000000000000000000000000000000000000000000000000000000000000000000000000000000000000000000000000000000000000000000000000000000000000000000000000000000000000000000000000000000000000000000000000000000000000000000000000000000000000000000000000000000000000000000000000000000000000000000000000000000000000000000000000000000000000000000000000000000",
            "coinbase" : "0x2adc25665018aa1fe0e6bc666dac8fc2697ff9ba",
            "difficulty" : "0x020000",
            "extraData" : "0x00",
            "gasLimit" : "0x7fffffffffffffff",
            "gasUsed" : "0x00",
            "hash" : "0xeb116dbe6c7fe1e9bc5c9d7a9e88e94b9906c94093fd9c926f37ffdf16c8df29",
            "mixHash" : "0x0000000000000000000000000000000000000000000000000000000000000000",
            "nonce" : "0x0000000000000000",
            "number" : "0x00",
            "parentHash" : "0x0000000000000000000000000000000000000000000000000000000000000000",
            "receiptTrie" : "0x56e81f171bcc55a6ff8345e692c0f86e5b48e01b996cadc001622fb5e363b421",
            "stateRoot" : "0xb91ee15180ab62e804963423c0db5e6e9a8d7f69f4570611800c216a5ed127a8",
            "timestamp" : "0x00",
            "transactionsTrie" : "0x56e81f171bcc55a6ff8345e692c0f86e5b48e01b996cadc001622fb5e363b421",
            "uncleHash" : "0x1dcc4de8dec75d7aab85b567b6ccd41ad312451b948a7413f0a142fd40d49347"
        },
        "pre" : {
            "0xa94f5374fce5edbc8e2a8697c15331677e6ebf0b" : {
                "balance" : "0xffffffffffffffffffffffffffffffffffffffffffffffffffffffffffffff",
                "code" : "0x",
                "nonce" : "0x00",
                "storage" : {
                }
            },
            "0xb94f5374fce5edbc8e2a8697c15331677e6ebf0b" : {
                "balance" : "0x00",
                "code" : "0x7d606460006000396103e85a10601b576000606460006000f5601d565b5a5b6000526000601e60026000f500",
                "nonce" : "0x00",
                "storage" : {
                }
            }
        },
        "postStateHash" : "0x22ca1b162f5805540c8054bd44978701e9598f45250b444abe05fd44d0ada03c",
        "network" : "Istanbul",
        "sealEngine" : "NoProof",
        "lastblockhash" : "0x24e9ce9bdcf46b5a282c894c9db4ac89cdf26ab6ff0a6e7239f012caa6e82400",
        "genesisRLP" : "0xf901fdf901f8a00000000000000000000000000000000000000000000000000000000000000000a01dcc4de8dec75d7aab85b567b6ccd41ad312451b948a7413f0a142fd40d49347942adc25665018aa1fe0e6bc666dac8fc2697ff9baa0b91ee15180ab62e804963423c0db5e6e9a8d7f69f4570611800c216a5ed127a8a056e81f171bcc55a6ff8345e692c0f86e5b48e01b996cadc001622fb5e363b421a056e81f171bcc55a6ff8345e692c0f86e5b48e01b996cadc001622fb5e363b421b90100000000000000000000000000000000000000000000000000000000000000000000000000000000000000000000000000000000000000000000000000000000000000000000000000000000000000000000000000000000000000000000000000000000000000000000000000000000000000000000000000000000000000000000000000000000000000000000000000000000000000000000000000000000000000000000000000000000000000000000000000000000000000000000000000000000000000000000000000000000000000000000000000000000000000000000000000000000000000000000000000000000000000000000000000000000008302000080887fffffffffffffff808000a00000000000000000000000000000000000000000000000000000000000000000880000000000000000c0c0",
        "blocks" : [
            {
                "rlp" : "0xf9026bf901fea0eb116dbe6c7fe1e9bc5c9d7a9e88e94b9906c94093fd9c926f37ffdf16c8df29a01dcc4de8dec75d7aab85b567b6ccd41ad312451b948a7413f0a142fd40d49347942adc25665018aa1fe0e6bc666dac8fc2697ff9baa022ca1b162f5805540c8054bd44978701e9598f45250b444abe05fd44d0ada03ca0da976e1237e33b6fe0cb53fd9ebe93dd9af29e052c3a4abe4b1159332021289da044dadb3564915d387a1d7a319546b3e090cad395237d262814a206933274a69db90100000000000000000000000000000000000000000000000000000000000000000000000000000000000000000000000000000000000000000000000000000000000000000000000000000000000000000000000000000000000000000000000000000000000000000000000000000000000000000000000000000000000000000000000000000000000000000000000000000000000000000000000000000000000000000000000000000000000000000000000000000000000000000000000000000000000000000000000000000000000000000000000000000000000000000000000000000000000000000000000000000000000000000000000000000000008302000001887fffffffffffffff8401f673268203e800a00000000000000000000000000000000000000000000000000000000000000000880000000000000000f867f865800a887effffffffffffff94b94f5374fce5edbc8e2a8697c15331677e6ebf0b80801ca01b3723e67ea5f55055160a3e79141aec6f26c742cd9811b91f791f258427510ea0453d5c97c4ed49afd959cd0773650ca8e252e5376abeceed2b0645174e6bae54c0",
                "blockHeader" : {
                    "bloom" : "0x00000000000000000000000000000000000000000000000000000000000000000000000000000000000000000000000000000000000000000000000000000000000000000000000000000000000000000000000000000000000000000000000000000000000000000000000000000000000000000000000000000000000000000000000000000000000000000000000000000000000000000000000000000000000000000000000000000000000000000000000000000000000000000000000000000000000000000000000000000000000000000000000000000000000000000000000000000000000000000000000000000000000000000000000000000000",
                    "coinbase" : "0x2adc25665018aa1fe0e6bc666dac8fc2697ff9ba",
                    "difficulty" : "0x020000",
                    "extraData" : "0x00",
                    "gasLimit" : "0x7fffffffffffffff",
                    "gasUsed" : "0x01f67326",
                    "hash" : "0x24e9ce9bdcf46b5a282c894c9db4ac89cdf26ab6ff0a6e7239f012caa6e82400",
                    "mixHash" : "0x0000000000000000000000000000000000000000000000000000000000000000",
                    "nonce" : "0x0000000000000000",
                    "number" : "0x01",
                    "parentHash" : "0xeb116dbe6c7fe1e9bc5c9d7a9e88e94b9906c94093fd9c926f37ffdf16c8df29",
                    "receiptTrie" : "0x44dadb3564915d387a1d7a319546b3e090cad395237d262814a206933274a69d",
                    "stateRoot" : "0x22ca1b162f5805540c8054bd44978701e9598f45250b444abe05fd44d0ada03c",
                    "timestamp" : "0x03e8",
                    "transactionsTrie" : "0xda976e1237e33b6fe0cb53fd9ebe93dd9af29e052c3a4abe4b1159332021289d",
                    "uncleHash" : "0x1dcc4de8dec75d7aab85b567b6ccd41ad312451b948a7413f0a142fd40d49347"
                },
                "transactions" : [
                    {
                        "data" : "0x",
                        "gasLimit" : "0x7effffffffffffff",
                        "gasPrice" : "0x0a",
                        "nonce" : "0x00",
                        "to" : "0xb94f5374fce5edbc8e2a8697c15331677e6ebf0b",
                        "value" : "0x00",
                        "v" : "0x1c",
                        "r" : "0x1b3723e67ea5f55055160a3e79141aec6f26c742cd9811b91f791f258427510e",
                        "s" : "0x453d5c97c4ed49afd959cd0773650ca8e252e5376abeceed2b0645174e6bae54"
                    }
                ],
                "uncleHeaders" : [
                ]
            }
        ]
    },
    "Create2Recursive_d0g1v0_Istanbul" : {
        "_info" : {
            "comment" : "Create2 inside Create2 inside Create2....",
            "filling-rpc-server" : "evm version 1.10.4-unstable-966ee3ae-20210528",
            "filling-tool-version" : "retesteth-0.1.1-eip1559+commit.658fc3a8.Linux.g++",
            "lllcversion" : "Version: 0.5.14-develop.2021.5.18+commit.14c9d5de.mod.Linux.g++",
            "source" : "src/GeneralStateTestsFiller/stCreate2/Create2RecursiveFiller.json",
            "sourceHash" : "975e03d62d68e1cab296bb84dcc51af356db609ffebce3dfe0420e0cf9549ff2"
        },
        "genesisBlockHeader" : {
            "bloom" : "0x00000000000000000000000000000000000000000000000000000000000000000000000000000000000000000000000000000000000000000000000000000000000000000000000000000000000000000000000000000000000000000000000000000000000000000000000000000000000000000000000000000000000000000000000000000000000000000000000000000000000000000000000000000000000000000000000000000000000000000000000000000000000000000000000000000000000000000000000000000000000000000000000000000000000000000000000000000000000000000000000000000000000000000000000000000000",
            "coinbase" : "0x2adc25665018aa1fe0e6bc666dac8fc2697ff9ba",
            "difficulty" : "0x020000",
            "extraData" : "0x00",
            "gasLimit" : "0x7fffffffffffffff",
            "gasUsed" : "0x00",
            "hash" : "0xeb116dbe6c7fe1e9bc5c9d7a9e88e94b9906c94093fd9c926f37ffdf16c8df29",
            "mixHash" : "0x0000000000000000000000000000000000000000000000000000000000000000",
            "nonce" : "0x0000000000000000",
            "number" : "0x00",
            "parentHash" : "0x0000000000000000000000000000000000000000000000000000000000000000",
            "receiptTrie" : "0x56e81f171bcc55a6ff8345e692c0f86e5b48e01b996cadc001622fb5e363b421",
            "stateRoot" : "0xb91ee15180ab62e804963423c0db5e6e9a8d7f69f4570611800c216a5ed127a8",
            "timestamp" : "0x00",
            "transactionsTrie" : "0x56e81f171bcc55a6ff8345e692c0f86e5b48e01b996cadc001622fb5e363b421",
            "uncleHash" : "0x1dcc4de8dec75d7aab85b567b6ccd41ad312451b948a7413f0a142fd40d49347"
        },
        "pre" : {
            "0xa94f5374fce5edbc8e2a8697c15331677e6ebf0b" : {
                "balance" : "0xffffffffffffffffffffffffffffffffffffffffffffffffffffffffffffff",
                "code" : "0x",
                "nonce" : "0x00",
                "storage" : {
                }
            },
            "0xb94f5374fce5edbc8e2a8697c15331677e6ebf0b" : {
                "balance" : "0x00",
                "code" : "0x7d606460006000396103e85a10601b576000606460006000f5601d565b5a5b6000526000601e60026000f500",
                "nonce" : "0x00",
                "storage" : {
                }
            }
        },
        "postStateHash" : "0x692f5ddb2444047ebc64bb40394f471cdaa51ff026450be790ea5338baacd162",
        "network" : "Istanbul",
        "sealEngine" : "NoProof",
        "lastblockhash" : "0x1f9eac93bdee5a20d51584d18aa06373f52b2eaa9b3cb4e6743d3cc20dd5c2c1",
        "genesisRLP" : "0xf901fdf901f8a00000000000000000000000000000000000000000000000000000000000000000a01dcc4de8dec75d7aab85b567b6ccd41ad312451b948a7413f0a142fd40d49347942adc25665018aa1fe0e6bc666dac8fc2697ff9baa0b91ee15180ab62e804963423c0db5e6e9a8d7f69f4570611800c216a5ed127a8a056e81f171bcc55a6ff8345e692c0f86e5b48e01b996cadc001622fb5e363b421a056e81f171bcc55a6ff8345e692c0f86e5b48e01b996cadc001622fb5e363b421b90100000000000000000000000000000000000000000000000000000000000000000000000000000000000000000000000000000000000000000000000000000000000000000000000000000000000000000000000000000000000000000000000000000000000000000000000000000000000000000000000000000000000000000000000000000000000000000000000000000000000000000000000000000000000000000000000000000000000000000000000000000000000000000000000000000000000000000000000000000000000000000000000000000000000000000000000000000000000000000000000000000000000000000000000000000000008302000080887fffffffffffffff808000a00000000000000000000000000000000000000000000000000000000000000000880000000000000000c0c0",
        "blocks" : [
            {
                "rlp" : "0xf90269f901fea0eb116dbe6c7fe1e9bc5c9d7a9e88e94b9906c94093fd9c926f37ffdf16c8df29a01dcc4de8dec75d7aab85b567b6ccd41ad312451b948a7413f0a142fd40d49347942adc25665018aa1fe0e6bc666dac8fc2697ff9baa0692f5ddb2444047ebc64bb40394f471cdaa51ff026450be790ea5338baacd162a0d4b7f2d8d6773a9a909d2f5e767edd05efe823ac6f6fc28448341ae51c2d0934a08b03df82e73004aa85f23a11f8eb65ea46b889e3ec25606dc9e7051a8353e53db90100000000000000000000000000000000000000000000000000000000000000000000000000000000000000000000000000000000000000000000000000000000000000000000000000000000000000000000000000000000000000000000000000000000000000000000000000000000000000000000000000000000000000000000000000000000000000000000000000000000000000000000000000000000000000000000000000000000000000000000000000000000000000000000000000000000000000000000000000000000000000000000000000000000000000000000000000000000000000000000000000000000000000000000000000000000008302000001887fffffffffffffff8401f578918203e800a00000000000000000000000000000000000000000000000000000000000000000880000000000000000f865f863800a861240e9387c0094b94f5374fce5edbc8e2a8697c15331677e6ebf0b80801ca0fe4bf9834be661357a7a524f0f71b153f6fcd08ae530430bb80705d09f359c00a003de6668f8181ff230fcc1005c7e245a794dc575068d63c9e17f1f8c7cce56bec0",
                "blockHeader" : {
                    "bloom" : "0x00000000000000000000000000000000000000000000000000000000000000000000000000000000000000000000000000000000000000000000000000000000000000000000000000000000000000000000000000000000000000000000000000000000000000000000000000000000000000000000000000000000000000000000000000000000000000000000000000000000000000000000000000000000000000000000000000000000000000000000000000000000000000000000000000000000000000000000000000000000000000000000000000000000000000000000000000000000000000000000000000000000000000000000000000000000",
                    "coinbase" : "0x2adc25665018aa1fe0e6bc666dac8fc2697ff9ba",
                    "difficulty" : "0x020000",
                    "extraData" : "0x00",
                    "gasLimit" : "0x7fffffffffffffff",
                    "gasUsed" : "0x01f57891",
                    "hash" : "0x1f9eac93bdee5a20d51584d18aa06373f52b2eaa9b3cb4e6743d3cc20dd5c2c1",
                    "mixHash" : "0x0000000000000000000000000000000000000000000000000000000000000000",
                    "nonce" : "0x0000000000000000",
                    "number" : "0x01",
                    "parentHash" : "0xeb116dbe6c7fe1e9bc5c9d7a9e88e94b9906c94093fd9c926f37ffdf16c8df29",
                    "receiptTrie" : "0x8b03df82e73004aa85f23a11f8eb65ea46b889e3ec25606dc9e7051a8353e53d",
                    "stateRoot" : "0x692f5ddb2444047ebc64bb40394f471cdaa51ff026450be790ea5338baacd162",
                    "timestamp" : "0x03e8",
                    "transactionsTrie" : "0xd4b7f2d8d6773a9a909d2f5e767edd05efe823ac6f6fc28448341ae51c2d0934",
                    "uncleHash" : "0x1dcc4de8dec75d7aab85b567b6ccd41ad312451b948a7413f0a142fd40d49347"
                },
                "transactions" : [
                    {
                        "data" : "0x",
                        "gasLimit" : "0x1240e9387c00",
                        "gasPrice" : "0x0a",
                        "nonce" : "0x00",
                        "to" : "0xb94f5374fce5edbc8e2a8697c15331677e6ebf0b",
                        "value" : "0x00",
                        "v" : "0x1c",
                        "r" : "0xfe4bf9834be661357a7a524f0f71b153f6fcd08ae530430bb80705d09f359c00",
                        "s" : "0x03de6668f8181ff230fcc1005c7e245a794dc575068d63c9e17f1f8c7cce56be"
                    }
                ],
                "uncleHeaders" : [
                ]
            }
        ]
    },
    "Create2Recursive_d0g0v0_London" : {
        "_info" : {
            "comment" : "Create2 inside Create2 inside Create2....",
            "filling-rpc-server" : "evm version 1.10.4-unstable-966ee3ae-20210528",
            "filling-tool-version" : "retesteth-0.1.1-eip1559+commit.658fc3a8.Linux.g++",
            "lllcversion" : "Version: 0.5.14-develop.2021.5.18+commit.14c9d5de.mod.Linux.g++",
            "source" : "src/GeneralStateTestsFiller/stCreate2/Create2RecursiveFiller.json",
            "sourceHash" : "975e03d62d68e1cab296bb84dcc51af356db609ffebce3dfe0420e0cf9549ff2"
        },
        "genesisBlockHeader" : {
            "bloom" : "0x00000000000000000000000000000000000000000000000000000000000000000000000000000000000000000000000000000000000000000000000000000000000000000000000000000000000000000000000000000000000000000000000000000000000000000000000000000000000000000000000000000000000000000000000000000000000000000000000000000000000000000000000000000000000000000000000000000000000000000000000000000000000000000000000000000000000000000000000000000000000000000000000000000000000000000000000000000000000000000000000000000000000000000000000000000000",
            "coinbase" : "0x2adc25665018aa1fe0e6bc666dac8fc2697ff9ba",
            "difficulty" : "0x020000",
            "extraData" : "0x00",
            "gasLimit" : "0x7fffffffffffffff",
            "gasUsed" : "0x00",
            "hash" : "0x1258ce394d609f90e0bc0001c70d4bd3634cb3680f4346a837f928c66fb02854",
            "mixHash" : "0x0000000000000000000000000000000000000000000000000000000000000000",
            "nonce" : "0x0000000000000000",
            "number" : "0x00",
            "parentHash" : "0x0000000000000000000000000000000000000000000000000000000000000000",
            "receiptTrie" : "0x56e81f171bcc55a6ff8345e692c0f86e5b48e01b996cadc001622fb5e363b421",
            "stateRoot" : "0xb91ee15180ab62e804963423c0db5e6e9a8d7f69f4570611800c216a5ed127a8",
            "timestamp" : "0x00",
            "transactionsTrie" : "0x56e81f171bcc55a6ff8345e692c0f86e5b48e01b996cadc001622fb5e363b421",
            "uncleHash" : "0x1dcc4de8dec75d7aab85b567b6ccd41ad312451b948a7413f0a142fd40d49347",
            "baseFee" : "0x0b"
        },
        "pre" : {
            "0xa94f5374fce5edbc8e2a8697c15331677e6ebf0b" : {
                "balance" : "0xffffffffffffffffffffffffffffffffffffffffffffffffffffffffffffff",
                "code" : "0x",
                "nonce" : "0x00",
                "storage" : {
                }
            },
            "0xb94f5374fce5edbc8e2a8697c15331677e6ebf0b" : {
                "balance" : "0x00",
                "code" : "0x7d606460006000396103e85a10601b576000606460006000f5601d565b5a5b6000526000601e60026000f500",
                "nonce" : "0x00",
                "storage" : {
                }
            }
        },
        "postStateHash" : "0xf641a6f7eeef2dbec7af01b1e51e955bc7da4ea25dc4b9bda38df0a64bca03a6",
        "network" : "London",
        "sealEngine" : "NoProof",
        "lastblockhash" : "0x49aab78947066034498c460c81842c4ea6597013da5d3fbe9c85706a5655f69f",
        "genesisRLP" : "0xf901fef901f9a00000000000000000000000000000000000000000000000000000000000000000a01dcc4de8dec75d7aab85b567b6ccd41ad312451b948a7413f0a142fd40d49347942adc25665018aa1fe0e6bc666dac8fc2697ff9baa0b91ee15180ab62e804963423c0db5e6e9a8d7f69f4570611800c216a5ed127a8a056e81f171bcc55a6ff8345e692c0f86e5b48e01b996cadc001622fb5e363b421a056e81f171bcc55a6ff8345e692c0f86e5b48e01b996cadc001622fb5e363b421b90100000000000000000000000000000000000000000000000000000000000000000000000000000000000000000000000000000000000000000000000000000000000000000000000000000000000000000000000000000000000000000000000000000000000000000000000000000000000000000000000000000000000000000000000000000000000000000000000000000000000000000000000000000000000000000000000000000000000000000000000000000000000000000000000000000000000000000000000000000000000000000000000000000000000000000000000000000000000000000000000000000000000000000000000000000000008302000080887fffffffffffffff808000a000000000000000000000000000000000000000000000000000000000000000008800000000000000000bc0c0",
        "blocks" : [
            {
                "rlp" : "0xf9026cf901ffa01258ce394d609f90e0bc0001c70d4bd3634cb3680f4346a837f928c66fb02854a01dcc4de8dec75d7aab85b567b6ccd41ad312451b948a7413f0a142fd40d49347942adc25665018aa1fe0e6bc666dac8fc2697ff9baa0f641a6f7eeef2dbec7af01b1e51e955bc7da4ea25dc4b9bda38df0a64bca03a6a0da976e1237e33b6fe0cb53fd9ebe93dd9af29e052c3a4abe4b1159332021289da044dadb3564915d387a1d7a319546b3e090cad395237d262814a206933274a69db90100000000000000000000000000000000000000000000000000000000000000000000000000000000000000000000000000000000000000000000000000000000000000000000000000000000000000000000000000000000000000000000000000000000000000000000000000000000000000000000000000000000000000000000000000000000000000000000000000000000000000000000000000000000000000000000000000000000000000000000000000000000000000000000000000000000000000000000000000000000000000000000000000000000000000000000000000000000000000000000000000000000000000000000000000000000008302000001887fffffffffffffff8401f673268203e800a000000000000000000000000000000000000000000000000000000000000000008800000000000000000af867f865800a887effffffffffffff94b94f5374fce5edbc8e2a8697c15331677e6ebf0b80801ca01b3723e67ea5f55055160a3e79141aec6f26c742cd9811b91f791f258427510ea0453d5c97c4ed49afd959cd0773650ca8e252e5376abeceed2b0645174e6bae54c0",
                "blockHeader" : {
                    "bloom" : "0x00000000000000000000000000000000000000000000000000000000000000000000000000000000000000000000000000000000000000000000000000000000000000000000000000000000000000000000000000000000000000000000000000000000000000000000000000000000000000000000000000000000000000000000000000000000000000000000000000000000000000000000000000000000000000000000000000000000000000000000000000000000000000000000000000000000000000000000000000000000000000000000000000000000000000000000000000000000000000000000000000000000000000000000000000000000",
                    "coinbase" : "0x2adc25665018aa1fe0e6bc666dac8fc2697ff9ba",
                    "difficulty" : "0x020000",
                    "extraData" : "0x00",
                    "gasLimit" : "0x7fffffffffffffff",
                    "gasUsed" : "0x01f67326",
                    "hash" : "0x49aab78947066034498c460c81842c4ea6597013da5d3fbe9c85706a5655f69f",
                    "mixHash" : "0x0000000000000000000000000000000000000000000000000000000000000000",
                    "nonce" : "0x0000000000000000",
                    "number" : "0x01",
                    "parentHash" : "0x1258ce394d609f90e0bc0001c70d4bd3634cb3680f4346a837f928c66fb02854",
                    "receiptTrie" : "0x44dadb3564915d387a1d7a319546b3e090cad395237d262814a206933274a69d",
                    "stateRoot" : "0xf641a6f7eeef2dbec7af01b1e51e955bc7da4ea25dc4b9bda38df0a64bca03a6",
                    "timestamp" : "0x03e8",
                    "transactionsTrie" : "0xda976e1237e33b6fe0cb53fd9ebe93dd9af29e052c3a4abe4b1159332021289d",
                    "uncleHash" : "0x1dcc4de8dec75d7aab85b567b6ccd41ad312451b948a7413f0a142fd40d49347",
                    "baseFee" : "0x0a"
                },
                "transactions" : [
                    {
                        "data" : "0x",
                        "gasLimit" : "0x7effffffffffffff",
                        "gasPrice" : "0x0a",
                        "nonce" : "0x00",
                        "to" : "0xb94f5374fce5edbc8e2a8697c15331677e6ebf0b",
                        "value" : "0x00",
                        "v" : "0x1c",
                        "r" : "0x1b3723e67ea5f55055160a3e79141aec6f26c742cd9811b91f791f258427510e",
                        "s" : "0x453d5c97c4ed49afd959cd0773650ca8e252e5376abeceed2b0645174e6bae54"
                    }
                ],
                "uncleHeaders" : [
                ]
            }
        ]
    },
    "Create2Recursive_d0g1v0_London" : {
        "_info" : {
            "comment" : "Create2 inside Create2 inside Create2....",
            "filling-rpc-server" : "evm version 1.10.4-unstable-966ee3ae-20210528",
            "filling-tool-version" : "retesteth-0.1.1-eip1559+commit.658fc3a8.Linux.g++",
            "lllcversion" : "Version: 0.5.14-develop.2021.5.18+commit.14c9d5de.mod.Linux.g++",
            "source" : "src/GeneralStateTestsFiller/stCreate2/Create2RecursiveFiller.json",
            "sourceHash" : "975e03d62d68e1cab296bb84dcc51af356db609ffebce3dfe0420e0cf9549ff2"
        },
        "genesisBlockHeader" : {
            "bloom" : "0x00000000000000000000000000000000000000000000000000000000000000000000000000000000000000000000000000000000000000000000000000000000000000000000000000000000000000000000000000000000000000000000000000000000000000000000000000000000000000000000000000000000000000000000000000000000000000000000000000000000000000000000000000000000000000000000000000000000000000000000000000000000000000000000000000000000000000000000000000000000000000000000000000000000000000000000000000000000000000000000000000000000000000000000000000000000",
            "coinbase" : "0x2adc25665018aa1fe0e6bc666dac8fc2697ff9ba",
            "difficulty" : "0x020000",
            "extraData" : "0x00",
            "gasLimit" : "0x7fffffffffffffff",
            "gasUsed" : "0x00",
            "hash" : "0x1258ce394d609f90e0bc0001c70d4bd3634cb3680f4346a837f928c66fb02854",
            "mixHash" : "0x0000000000000000000000000000000000000000000000000000000000000000",
            "nonce" : "0x0000000000000000",
            "number" : "0x00",
            "parentHash" : "0x0000000000000000000000000000000000000000000000000000000000000000",
            "receiptTrie" : "0x56e81f171bcc55a6ff8345e692c0f86e5b48e01b996cadc001622fb5e363b421",
            "stateRoot" : "0xb91ee15180ab62e804963423c0db5e6e9a8d7f69f4570611800c216a5ed127a8",
            "timestamp" : "0x00",
            "transactionsTrie" : "0x56e81f171bcc55a6ff8345e692c0f86e5b48e01b996cadc001622fb5e363b421",
            "uncleHash" : "0x1dcc4de8dec75d7aab85b567b6ccd41ad312451b948a7413f0a142fd40d49347",
            "baseFee" : "0x0b"
        },
        "pre" : {
            "0xa94f5374fce5edbc8e2a8697c15331677e6ebf0b" : {
                "balance" : "0xffffffffffffffffffffffffffffffffffffffffffffffffffffffffffffff",
                "code" : "0x",
                "nonce" : "0x00",
                "storage" : {
                }
            },
            "0xb94f5374fce5edbc8e2a8697c15331677e6ebf0b" : {
                "balance" : "0x00",
                "code" : "0x7d606460006000396103e85a10601b576000606460006000f5601d565b5a5b6000526000601e60026000f500",
                "nonce" : "0x00",
                "storage" : {
                }
            }
        },
        "postStateHash" : "0xc3908dc77927a43e4516860e3ffd75ff780ea167d05edaeebd8d6588af251194",
        "network" : "London",
        "sealEngine" : "NoProof",
        "lastblockhash" : "0x4322c7f75d5bd356853cde0f11e7b3bad4d51f62200c3321e0939630851d16ff",
        "genesisRLP" : "0xf901fef901f9a00000000000000000000000000000000000000000000000000000000000000000a01dcc4de8dec75d7aab85b567b6ccd41ad312451b948a7413f0a142fd40d49347942adc25665018aa1fe0e6bc666dac8fc2697ff9baa0b91ee15180ab62e804963423c0db5e6e9a8d7f69f4570611800c216a5ed127a8a056e81f171bcc55a6ff8345e692c0f86e5b48e01b996cadc001622fb5e363b421a056e81f171bcc55a6ff8345e692c0f86e5b48e01b996cadc001622fb5e363b421b90100000000000000000000000000000000000000000000000000000000000000000000000000000000000000000000000000000000000000000000000000000000000000000000000000000000000000000000000000000000000000000000000000000000000000000000000000000000000000000000000000000000000000000000000000000000000000000000000000000000000000000000000000000000000000000000000000000000000000000000000000000000000000000000000000000000000000000000000000000000000000000000000000000000000000000000000000000000000000000000000000000000000000000000000000000000008302000080887fffffffffffffff808000a000000000000000000000000000000000000000000000000000000000000000008800000000000000000bc0c0",
        "blocks" : [
            {
                "rlp" : "0xf9026af901ffa01258ce394d609f90e0bc0001c70d4bd3634cb3680f4346a837f928c66fb02854a01dcc4de8dec75d7aab85b567b6ccd41ad312451b948a7413f0a142fd40d49347942adc25665018aa1fe0e6bc666dac8fc2697ff9baa0c3908dc77927a43e4516860e3ffd75ff780ea167d05edaeebd8d6588af251194a0d4b7f2d8d6773a9a909d2f5e767edd05efe823ac6f6fc28448341ae51c2d0934a08b03df82e73004aa85f23a11f8eb65ea46b889e3ec25606dc9e7051a8353e53db90100000000000000000000000000000000000000000000000000000000000000000000000000000000000000000000000000000000000000000000000000000000000000000000000000000000000000000000000000000000000000000000000000000000000000000000000000000000000000000000000000000000000000000000000000000000000000000000000000000000000000000000000000000000000000000000000000000000000000000000000000000000000000000000000000000000000000000000000000000000000000000000000000000000000000000000000000000000000000000000000000000000000000000000000000000000008302000001887fffffffffffffff8401f578918203e800a000000000000000000000000000000000000000000000000000000000000000008800000000000000000af865f863800a861240e9387c0094b94f5374fce5edbc8e2a8697c15331677e6ebf0b80801ca0fe4bf9834be661357a7a524f0f71b153f6fcd08ae530430bb80705d09f359c00a003de6668f8181ff230fcc1005c7e245a794dc575068d63c9e17f1f8c7cce56bec0",
                "blockHeader" : {
                    "bloom" : "0x00000000000000000000000000000000000000000000000000000000000000000000000000000000000000000000000000000000000000000000000000000000000000000000000000000000000000000000000000000000000000000000000000000000000000000000000000000000000000000000000000000000000000000000000000000000000000000000000000000000000000000000000000000000000000000000000000000000000000000000000000000000000000000000000000000000000000000000000000000000000000000000000000000000000000000000000000000000000000000000000000000000000000000000000000000000",
                    "coinbase" : "0x2adc25665018aa1fe0e6bc666dac8fc2697ff9ba",
                    "difficulty" : "0x020000",
                    "extraData" : "0x00",
                    "gasLimit" : "0x7fffffffffffffff",
                    "gasUsed" : "0x01f57891",
                    "hash" : "0x4322c7f75d5bd356853cde0f11e7b3bad4d51f62200c3321e0939630851d16ff",
                    "mixHash" : "0x0000000000000000000000000000000000000000000000000000000000000000",
                    "nonce" : "0x0000000000000000",
                    "number" : "0x01",
                    "parentHash" : "0x1258ce394d609f90e0bc0001c70d4bd3634cb3680f4346a837f928c66fb02854",
                    "receiptTrie" : "0x8b03df82e73004aa85f23a11f8eb65ea46b889e3ec25606dc9e7051a8353e53d",
                    "stateRoot" : "0xc3908dc77927a43e4516860e3ffd75ff780ea167d05edaeebd8d6588af251194",
                    "timestamp" : "0x03e8",
                    "transactionsTrie" : "0xd4b7f2d8d6773a9a909d2f5e767edd05efe823ac6f6fc28448341ae51c2d0934",
                    "uncleHash" : "0x1dcc4de8dec75d7aab85b567b6ccd41ad312451b948a7413f0a142fd40d49347",
                    "baseFee" : "0x0a"
                },
                "transactions" : [
                    {
                        "data" : "0x",
                        "gasLimit" : "0x1240e9387c00",
                        "gasPrice" : "0x0a",
                        "nonce" : "0x00",
                        "to" : "0xb94f5374fce5edbc8e2a8697c15331677e6ebf0b",
                        "value" : "0x00",
                        "v" : "0x1c",
                        "r" : "0xfe4bf9834be661357a7a524f0f71b153f6fcd08ae530430bb80705d09f359c00",
                        "s" : "0x03de6668f8181ff230fcc1005c7e245a794dc575068d63c9e17f1f8c7cce56be"
                    }
                ],
                "uncleHeaders" : [
                ]
            }
        ]
    }
}