{
    "randomStatetestDEFAULT-Tue_07_58_41-15153-575192_d0g0v0_Berlin" : {
        "_info" : {
            "comment" : "This is a canon example of a test found by fuzzing with EVMlab, demoing how a suicide-created-but-empty account has a non-zero codehash in geth",
            "filling-rpc-server" : "evm version 1.10.4-unstable-966ee3ae-20210528",
            "filling-tool-version" : "retesteth-0.1.1-eip1559+commit.658fc3a8.Linux.g++",
            "lllcversion" : "Version: 0.5.14-develop.2021.5.18+commit.14c9d5de.mod.Linux.g++",
            "source" : "src/GeneralStateTestsFiller/stBugs/randomStatetestDEFAULT-Tue_07_58_41-15153-575192Filler.json",
            "sourceHash" : "73f0f1aa8be76c01fc4403ce08ce7ac23feacbb8519ea661d0d76a427e4f757c"
        },
        "genesisBlockHeader" : {
            "bloom" : "0x00000000000000000000000000000000000000000000000000000000000000000000000000000000000000000000000000000000000000000000000000000000000000000000000000000000000000000000000000000000000000000000000000000000000000000000000000000000000000000000000000000000000000000000000000000000000000000000000000000000000000000000000000000000000000000000000000000000000000000000000000000000000000000000000000000000000000000000000000000000000000000000000000000000000000000000000000000000000000000000000000000000000000000000000000000000",
            "coinbase" : "0x1000000000000000000000000000000000000000",
            "difficulty" : "0x020000",
            "extraData" : "0x00",
            "gasLimit" : "0x01312d00",
            "gasUsed" : "0x00",
            "hash" : "0x6c4d0e14d7f2d8bddc7d25dbcaf1a9c0e513963baaebdb318eed17465efccdd5",
            "mixHash" : "0x0000000000000000000000000000000000000000000000000000000000000000",
            "nonce" : "0x0000000000000000",
            "number" : "0x00",
            "parentHash" : "0x0000000000000000000000000000000000000000000000000000000000000000",
            "receiptTrie" : "0x56e81f171bcc55a6ff8345e692c0f86e5b48e01b996cadc001622fb5e363b421",
            "stateRoot" : "0x96372c6c19a7cc6a207efe7dbdc9a7d3a72c2dcb452f24b6f78b1dbfe73ee1f6",
            "timestamp" : "0x00",
            "transactionsTrie" : "0x56e81f171bcc55a6ff8345e692c0f86e5b48e01b996cadc001622fb5e363b421",
            "uncleHash" : "0x1dcc4de8dec75d7aab85b567b6ccd41ad312451b948a7413f0a142fd40d49347"
        },
        "pre" : {
            "0x000000000000000000000000000000000000dead" : {
                "balance" : "0x00",
                "code" : "0x62abcdefff",
                "nonce" : "0x1c",
                "storage" : {
                }
            },
            "0x1000000000000000000000000000000000000000" : {
                "balance" : "0x00",
                "code" : "0x61dead6000600060006000600061dead5af162abcdef3f600155",
                "nonce" : "0x1c",
                "storage" : {
                }
            },
            "0xa94f5374fce5edbc8e2a8697c15331677e6ebf0b" : {
                "balance" : "0x5d8fdd3ff54298b4",
                "code" : "0x",
                "nonce" : "0x1c",
                "storage" : {
                }
            }
        },
        "postState" : {
            "0x1000000000000000000000000000000000000000" : {
                "code" : "0x61dead6000600060006000600061dead5af162abcdef3f600155",
                "nonce" : "0x1c",
                "balance" : "0x1bc16d674ecad06a",
                "storage" : {
                }
            },
            "0xa94f5374fce5edbc8e2a8697c15331677e6ebf0b" : {
                "code" : "0x",
                "nonce" : "0x1d",
                "balance" : "0x5d8fdd3ff53fc84a",
                "storage" : {
                }
            }
        },
        "network" : "Berlin",
        "sealEngine" : "NoProof",
        "lastblockhash" : "0x57f82f274e0148fe802adb96ab32422e5586c5f174b5db6c294fe30788c82f95",
        "genesisRLP" : "0xf901f9f901f4a00000000000000000000000000000000000000000000000000000000000000000a01dcc4de8dec75d7aab85b567b6ccd41ad312451b948a7413f0a142fd40d49347941000000000000000000000000000000000000000a096372c6c19a7cc6a207efe7dbdc9a7d3a72c2dcb452f24b6f78b1dbfe73ee1f6a056e81f171bcc55a6ff8345e692c0f86e5b48e01b996cadc001622fb5e363b421a056e81f171bcc55a6ff8345e692c0f86e5b48e01b996cadc001622fb5e363b421b901000000000000000000000000000000000000000000000000000000000000000000000000000000000000000000000000000000000000000000000000000000000000000000000000000000000000000000000000000000000000000000000000000000000000000000000000000000000000000000000000000000000000000000000000000000000000000000000000000000000000000000000000000000000000000000000000000000000000000000000000000000000000000000000000000000000000000000000000000000000000000000000000000000000000000000000000000000000000000000000000000000000000000000000000000000000083020000808401312d00808000a00000000000000000000000000000000000000000000000000000000000000000880000000000000000c0c0",
        "blocks" : [
            {
                "rlp" : "0xf90260f901f8a06c4d0e14d7f2d8bddc7d25dbcaf1a9c0e513963baaebdb318eed17465efccdd5a01dcc4de8dec75d7aab85b567b6ccd41ad312451b948a7413f0a142fd40d49347941000000000000000000000000000000000000000a0adc608f8a1608dbda982e727e74610e0a8a76ede4ae58d4d23f6892969f53fb5a016d1db4b305df64bfe8b157131ebade6a6aacbdc4be3219f94315ebfbfb3be4aa0ef033a696b57eb102f856e8f2228d5c03c9a4a18b4013475ba587ea509f9e6c3b901000000000000000000000000000000000000000000000000000000000000000000000000000000000000000000000000000000000000000000000000000000000000000000000000000000000000000000000000000000000000000000000000000000000000000000000000000000000000000000000000000000000000000000000000000000000000000000000000000000000000000000000000000000000000000000000000000000000000000000000000000000000000000000000000000000000000000000000000000000000000000000000000000000000000000000000000000000000000000000000000000000000000000000000000000000000083020000018401312d0082417e8203e800a00000000000000000000000000000000000000000000000000000000000000000880000000000000000f862f8601c0b835fde0794100000000000000000000000000000000000000080801ba05bcf308f6e13f1d310f7bf7c07d23668bfa84384314330c375849619d8bca497a07f8b3303b6d5daf687b482dec689a32d1829d573854757e3dd2e6f101ab36b4ac0",
                "blockHeader" : {
                    "bloom" : "0x00000000000000000000000000000000000000000000000000000000000000000000000000000000000000000000000000000000000000000000000000000000000000000000000000000000000000000000000000000000000000000000000000000000000000000000000000000000000000000000000000000000000000000000000000000000000000000000000000000000000000000000000000000000000000000000000000000000000000000000000000000000000000000000000000000000000000000000000000000000000000000000000000000000000000000000000000000000000000000000000000000000000000000000000000000000",
                    "coinbase" : "0x1000000000000000000000000000000000000000",
                    "difficulty" : "0x020000",
                    "extraData" : "0x00",
                    "gasLimit" : "0x01312d00",
                    "gasUsed" : "0x417e",
                    "hash" : "0x57f82f274e0148fe802adb96ab32422e5586c5f174b5db6c294fe30788c82f95",
                    "mixHash" : "0x0000000000000000000000000000000000000000000000000000000000000000",
                    "nonce" : "0x0000000000000000",
                    "number" : "0x01",
                    "parentHash" : "0x6c4d0e14d7f2d8bddc7d25dbcaf1a9c0e513963baaebdb318eed17465efccdd5",
                    "receiptTrie" : "0xef033a696b57eb102f856e8f2228d5c03c9a4a18b4013475ba587ea509f9e6c3",
                    "stateRoot" : "0xadc608f8a1608dbda982e727e74610e0a8a76ede4ae58d4d23f6892969f53fb5",
                    "timestamp" : "0x03e8",
                    "transactionsTrie" : "0x16d1db4b305df64bfe8b157131ebade6a6aacbdc4be3219f94315ebfbfb3be4a",
                    "uncleHash" : "0x1dcc4de8dec75d7aab85b567b6ccd41ad312451b948a7413f0a142fd40d49347"
                },
                "transactions" : [
                    {
                        "data" : "0x",
                        "gasLimit" : "0x5fde07",
                        "gasPrice" : "0x0b",
                        "nonce" : "0x1c",
                        "to" : "0x1000000000000000000000000000000000000000",
                        "value" : "0x00",
                        "v" : "0x1b",
                        "r" : "0x5bcf308f6e13f1d310f7bf7c07d23668bfa84384314330c375849619d8bca497",
                        "s" : "0x7f8b3303b6d5daf687b482dec689a32d1829d573854757e3dd2e6f101ab36b4a"
                    }
                ],
                "uncleHeaders" : [
                ]
            }
        ]
    },
    "randomStatetestDEFAULT-Tue_07_58_41-15153-575192_d0g0v0_Istanbul" : {
        "_info" : {
            "comment" : "This is a canon example of a test found by fuzzing with EVMlab, demoing how a suicide-created-but-empty account has a non-zero codehash in geth",
            "filling-rpc-server" : "evm version 1.10.4-unstable-966ee3ae-20210528",
            "filling-tool-version" : "retesteth-0.1.1-eip1559+commit.658fc3a8.Linux.g++",
            "lllcversion" : "Version: 0.5.14-develop.2021.5.18+commit.14c9d5de.mod.Linux.g++",
            "source" : "src/GeneralStateTestsFiller/stBugs/randomStatetestDEFAULT-Tue_07_58_41-15153-575192Filler.json",
            "sourceHash" : "73f0f1aa8be76c01fc4403ce08ce7ac23feacbb8519ea661d0d76a427e4f757c"
        },
        "genesisBlockHeader" : {
            "bloom" : "0x00000000000000000000000000000000000000000000000000000000000000000000000000000000000000000000000000000000000000000000000000000000000000000000000000000000000000000000000000000000000000000000000000000000000000000000000000000000000000000000000000000000000000000000000000000000000000000000000000000000000000000000000000000000000000000000000000000000000000000000000000000000000000000000000000000000000000000000000000000000000000000000000000000000000000000000000000000000000000000000000000000000000000000000000000000000",
            "coinbase" : "0x1000000000000000000000000000000000000000",
            "difficulty" : "0x020000",
            "extraData" : "0x00",
            "gasLimit" : "0x01312d00",
            "gasUsed" : "0x00",
            "hash" : "0x6c4d0e14d7f2d8bddc7d25dbcaf1a9c0e513963baaebdb318eed17465efccdd5",
            "mixHash" : "0x0000000000000000000000000000000000000000000000000000000000000000",
            "nonce" : "0x0000000000000000",
            "number" : "0x00",
            "parentHash" : "0x0000000000000000000000000000000000000000000000000000000000000000",
            "receiptTrie" : "0x56e81f171bcc55a6ff8345e692c0f86e5b48e01b996cadc001622fb5e363b421",
            "stateRoot" : "0x96372c6c19a7cc6a207efe7dbdc9a7d3a72c2dcb452f24b6f78b1dbfe73ee1f6",
            "timestamp" : "0x00",
            "transactionsTrie" : "0x56e81f171bcc55a6ff8345e692c0f86e5b48e01b996cadc001622fb5e363b421",
            "uncleHash" : "0x1dcc4de8dec75d7aab85b567b6ccd41ad312451b948a7413f0a142fd40d49347"
        },
        "pre" : {
            "0x000000000000000000000000000000000000dead" : {
                "balance" : "0x00",
                "code" : "0x62abcdefff",
                "nonce" : "0x1c",
                "storage" : {
                }
            },
            "0x1000000000000000000000000000000000000000" : {
                "balance" : "0x00",
                "code" : "0x61dead6000600060006000600061dead5af162abcdef3f600155",
                "nonce" : "0x1c",
                "storage" : {
                }
            },
            "0xa94f5374fce5edbc8e2a8697c15331677e6ebf0b" : {
                "balance" : "0x5d8fdd3ff54298b4",
                "code" : "0x",
                "nonce" : "0x1c",
                "storage" : {
                }
            }
        },
        "postState" : {
            "0x1000000000000000000000000000000000000000" : {
                "code" : "0x61dead6000600060006000600061dead5af162abcdef3f600155",
                "nonce" : "0x1c",
                "balance" : "0x1bc16d674eca5e8c",
                "storage" : {
                }
            },
            "0xa94f5374fce5edbc8e2a8697c15331677e6ebf0b" : {
                "code" : "0x",
                "nonce" : "0x1d",
                "balance" : "0x5d8fdd3ff5403a28",
                "storage" : {
                }
            }
        },
        "network" : "Istanbul",
        "sealEngine" : "NoProof",
        "lastblockhash" : "0x48cabcabc4d64e8283acab6a7352c78c8990cabba9e483e19996abcdb62f86b4",
        "genesisRLP" : "0xf901f9f901f4a00000000000000000000000000000000000000000000000000000000000000000a01dcc4de8dec75d7aab85b567b6ccd41ad312451b948a7413f0a142fd40d49347941000000000000000000000000000000000000000a096372c6c19a7cc6a207efe7dbdc9a7d3a72c2dcb452f24b6f78b1dbfe73ee1f6a056e81f171bcc55a6ff8345e692c0f86e5b48e01b996cadc001622fb5e363b421a056e81f171bcc55a6ff8345e692c0f86e5b48e01b996cadc001622fb5e363b421b901000000000000000000000000000000000000000000000000000000000000000000000000000000000000000000000000000000000000000000000000000000000000000000000000000000000000000000000000000000000000000000000000000000000000000000000000000000000000000000000000000000000000000000000000000000000000000000000000000000000000000000000000000000000000000000000000000000000000000000000000000000000000000000000000000000000000000000000000000000000000000000000000000000000000000000000000000000000000000000000000000000000000000000000000000000000083020000808401312d00808000a00000000000000000000000000000000000000000000000000000000000000000880000000000000000c0c0",
        "blocks" : [
            {
                "rlp" : "0xf90260f901f8a06c4d0e14d7f2d8bddc7d25dbcaf1a9c0e513963baaebdb318eed17465efccdd5a01dcc4de8dec75d7aab85b567b6ccd41ad312451b948a7413f0a142fd40d49347941000000000000000000000000000000000000000a0ffb68974d95220a2dcc97771b1d99241172118f4725ea89563d834f21e6dd075a016d1db4b305df64bfe8b157131ebade6a6aacbdc4be3219f94315ebfbfb3be4aa0771d411570ef6efabc3aa0685d076ce8ebaf332953937c89381c4f7835c8a47eb901000000000000000000000000000000000000000000000000000000000000000000000000000000000000000000000000000000000000000000000000000000000000000000000000000000000000000000000000000000000000000000000000000000000000000000000000000000000000000000000000000000000000000000000000000000000000000000000000000000000000000000000000000000000000000000000000000000000000000000000000000000000000000000000000000000000000000000000000000000000000000000000000000000000000000000000000000000000000000000000000000000000000000000000000000000000083020000018401312d008237248203e800a00000000000000000000000000000000000000000000000000000000000000000880000000000000000f862f8601c0b835fde0794100000000000000000000000000000000000000080801ba05bcf308f6e13f1d310f7bf7c07d23668bfa84384314330c375849619d8bca497a07f8b3303b6d5daf687b482dec689a32d1829d573854757e3dd2e6f101ab36b4ac0",
                "blockHeader" : {
                    "bloom" : "0x00000000000000000000000000000000000000000000000000000000000000000000000000000000000000000000000000000000000000000000000000000000000000000000000000000000000000000000000000000000000000000000000000000000000000000000000000000000000000000000000000000000000000000000000000000000000000000000000000000000000000000000000000000000000000000000000000000000000000000000000000000000000000000000000000000000000000000000000000000000000000000000000000000000000000000000000000000000000000000000000000000000000000000000000000000000",
                    "coinbase" : "0x1000000000000000000000000000000000000000",
                    "difficulty" : "0x020000",
                    "extraData" : "0x00",
                    "gasLimit" : "0x01312d00",
                    "gasUsed" : "0x3724",
                    "hash" : "0x48cabcabc4d64e8283acab6a7352c78c8990cabba9e483e19996abcdb62f86b4",
                    "mixHash" : "0x0000000000000000000000000000000000000000000000000000000000000000",
                    "nonce" : "0x0000000000000000",
                    "number" : "0x01",
                    "parentHash" : "0x6c4d0e14d7f2d8bddc7d25dbcaf1a9c0e513963baaebdb318eed17465efccdd5",
                    "receiptTrie" : "0x771d411570ef6efabc3aa0685d076ce8ebaf332953937c89381c4f7835c8a47e",
                    "stateRoot" : "0xffb68974d95220a2dcc97771b1d99241172118f4725ea89563d834f21e6dd075",
                    "timestamp" : "0x03e8",
                    "transactionsTrie" : "0x16d1db4b305df64bfe8b157131ebade6a6aacbdc4be3219f94315ebfbfb3be4a",
                    "uncleHash" : "0x1dcc4de8dec75d7aab85b567b6ccd41ad312451b948a7413f0a142fd40d49347"
                },
                "transactions" : [
                    {
                        "data" : "0x",
                        "gasLimit" : "0x5fde07",
                        "gasPrice" : "0x0b",
                        "nonce" : "0x1c",
                        "to" : "0x1000000000000000000000000000000000000000",
                        "value" : "0x00",
                        "v" : "0x1b",
                        "r" : "0x5bcf308f6e13f1d310f7bf7c07d23668bfa84384314330c375849619d8bca497",
                        "s" : "0x7f8b3303b6d5daf687b482dec689a32d1829d573854757e3dd2e6f101ab36b4a"
                    }
                ],
                "uncleHeaders" : [
                ]
            }
        ]
    },
    "randomStatetestDEFAULT-Tue_07_58_41-15153-575192_d0g0v0_London" : {
        "_info" : {
            "comment" : "This is a canon example of a test found by fuzzing with EVMlab, demoing how a suicide-created-but-empty account has a non-zero codehash in geth",
            "filling-rpc-server" : "evm version 1.10.4-unstable-966ee3ae-20210528",
            "filling-tool-version" : "retesteth-0.1.1-eip1559+commit.658fc3a8.Linux.g++",
            "lllcversion" : "Version: 0.5.14-develop.2021.5.18+commit.14c9d5de.mod.Linux.g++",
            "source" : "src/GeneralStateTestsFiller/stBugs/randomStatetestDEFAULT-Tue_07_58_41-15153-575192Filler.json",
            "sourceHash" : "73f0f1aa8be76c01fc4403ce08ce7ac23feacbb8519ea661d0d76a427e4f757c"
        },
        "genesisBlockHeader" : {
            "bloom" : "0x00000000000000000000000000000000000000000000000000000000000000000000000000000000000000000000000000000000000000000000000000000000000000000000000000000000000000000000000000000000000000000000000000000000000000000000000000000000000000000000000000000000000000000000000000000000000000000000000000000000000000000000000000000000000000000000000000000000000000000000000000000000000000000000000000000000000000000000000000000000000000000000000000000000000000000000000000000000000000000000000000000000000000000000000000000000",
            "coinbase" : "0x1000000000000000000000000000000000000000",
            "difficulty" : "0x020000",
            "extraData" : "0x00",
            "gasLimit" : "0x01312d00",
            "gasUsed" : "0x00",
            "hash" : "0x2d6ea95a64b136cb469dfc5c09e4fa1675d073fa71ebebeaef0bd82509f66dac",
            "mixHash" : "0x0000000000000000000000000000000000000000000000000000000000000000",
            "nonce" : "0x0000000000000000",
            "number" : "0x00",
            "parentHash" : "0x0000000000000000000000000000000000000000000000000000000000000000",
            "receiptTrie" : "0x56e81f171bcc55a6ff8345e692c0f86e5b48e01b996cadc001622fb5e363b421",
            "stateRoot" : "0x96372c6c19a7cc6a207efe7dbdc9a7d3a72c2dcb452f24b6f78b1dbfe73ee1f6",
            "timestamp" : "0x00",
            "transactionsTrie" : "0x56e81f171bcc55a6ff8345e692c0f86e5b48e01b996cadc001622fb5e363b421",
            "uncleHash" : "0x1dcc4de8dec75d7aab85b567b6ccd41ad312451b948a7413f0a142fd40d49347",
            "baseFee" : "0x0b"
        },
        "pre" : {
            "0x000000000000000000000000000000000000dead" : {
                "balance" : "0x00",
                "code" : "0x62abcdefff",
                "nonce" : "0x1c",
                "storage" : {
                }
            },
            "0x1000000000000000000000000000000000000000" : {
                "balance" : "0x00",
                "code" : "0x61dead6000600060006000600061dead5af162abcdef3f600155",
                "nonce" : "0x1c",
                "storage" : {
                }
            },
            "0xa94f5374fce5edbc8e2a8697c15331677e6ebf0b" : {
                "balance" : "0x5d8fdd3ff54298b4",
                "code" : "0x",
                "nonce" : "0x1c",
                "storage" : {
                }
            }
        },
        "postState" : {
            "0x1000000000000000000000000000000000000000" : {
                "code" : "0x61dead6000600060006000600061dead5af162abcdef3f600155",
                "nonce" : "0x1c",
                "balance" : "0x1bc16d674ec882fc",
                "storage" : {
                }
            },
            "0xa94f5374fce5edbc8e2a8697c15331677e6ebf0b" : {
                "code" : "0x",
                "nonce" : "0x1d",
                "balance" : "0x5d8fdd3ff53cf7e0",
                "storage" : {
                }
            }
        },
        "network" : "London",
        "sealEngine" : "NoProof",
        "lastblockhash" : "0x7b92adfeb25f9e3bb128e9952b733a17f5acb2895b06eb651db88767c6ee9c13",
        "genesisRLP" : "0xf901faf901f5a00000000000000000000000000000000000000000000000000000000000000000a01dcc4de8dec75d7aab85b567b6ccd41ad312451b948a7413f0a142fd40d49347941000000000000000000000000000000000000000a096372c6c19a7cc6a207efe7dbdc9a7d3a72c2dcb452f24b6f78b1dbfe73ee1f6a056e81f171bcc55a6ff8345e692c0f86e5b48e01b996cadc001622fb5e363b421a056e81f171bcc55a6ff8345e692c0f86e5b48e01b996cadc001622fb5e363b421b901000000000000000000000000000000000000000000000000000000000000000000000000000000000000000000000000000000000000000000000000000000000000000000000000000000000000000000000000000000000000000000000000000000000000000000000000000000000000000000000000000000000000000000000000000000000000000000000000000000000000000000000000000000000000000000000000000000000000000000000000000000000000000000000000000000000000000000000000000000000000000000000000000000000000000000000000000000000000000000000000000000000000000000000000000000000083020000808401312d00808000a000000000000000000000000000000000000000000000000000000000000000008800000000000000000bc0c0",
        "blocks" : [
            {
                "rlp" : "0xf90261f901f9a02d6ea95a64b136cb469dfc5c09e4fa1675d073fa71ebebeaef0bd82509f66daca01dcc4de8dec75d7aab85b567b6ccd41ad312451b948a7413f0a142fd40d49347941000000000000000000000000000000000000000a0c93b791664d1aba6b11d5f197cc067c70b921304abfbc3d3d9280421f65fad24a016d1db4b305df64bfe8b157131ebade6a6aacbdc4be3219f94315ebfbfb3be4aa00a45fba26693a9264ffd0e1259cd68f0bb79a52fa286c3317676bd76265b76ebb901000000000000000000000000000000000000000000000000000000000000000000000000000000000000000000000000000000000000000000000000000000000000000000000000000000000000000000000000000000000000000000000000000000000000000000000000000000000000000000000000000000000000000000000000000000000000000000000000000000000000000000000000000000000000000000000000000000000000000000000000000000000000000000000000000000000000000000000000000000000000000000000000000000000000000000000000000000000000000000000000000000000000000000000000000000000083020000018401312d008282fc8203e800a000000000000000000000000000000000000000000000000000000000000000008800000000000000000af862f8601c0b835fde0794100000000000000000000000000000000000000080801ba05bcf308f6e13f1d310f7bf7c07d23668bfa84384314330c375849619d8bca497a07f8b3303b6d5daf687b482dec689a32d1829d573854757e3dd2e6f101ab36b4ac0",
                "blockHeader" : {
                    "bloom" : "0x00000000000000000000000000000000000000000000000000000000000000000000000000000000000000000000000000000000000000000000000000000000000000000000000000000000000000000000000000000000000000000000000000000000000000000000000000000000000000000000000000000000000000000000000000000000000000000000000000000000000000000000000000000000000000000000000000000000000000000000000000000000000000000000000000000000000000000000000000000000000000000000000000000000000000000000000000000000000000000000000000000000000000000000000000000000",
                    "coinbase" : "0x1000000000000000000000000000000000000000",
                    "difficulty" : "0x020000",
                    "extraData" : "0x00",
                    "gasLimit" : "0x01312d00",
                    "gasUsed" : "0x82fc",
                    "hash" : "0x7b92adfeb25f9e3bb128e9952b733a17f5acb2895b06eb651db88767c6ee9c13",
                    "mixHash" : "0x0000000000000000000000000000000000000000000000000000000000000000",
                    "nonce" : "0x0000000000000000",
                    "number" : "0x01",
                    "parentHash" : "0x2d6ea95a64b136cb469dfc5c09e4fa1675d073fa71ebebeaef0bd82509f66dac",
                    "receiptTrie" : "0x0a45fba26693a9264ffd0e1259cd68f0bb79a52fa286c3317676bd76265b76eb",
                    "stateRoot" : "0xc93b791664d1aba6b11d5f197cc067c70b921304abfbc3d3d9280421f65fad24",
                    "timestamp" : "0x03e8",
                    "transactionsTrie" : "0x16d1db4b305df64bfe8b157131ebade6a6aacbdc4be3219f94315ebfbfb3be4a",
                    "uncleHash" : "0x1dcc4de8dec75d7aab85b567b6ccd41ad312451b948a7413f0a142fd40d49347",
                    "baseFee" : "0x0a"
                },
                "transactions" : [
                    {
                        "data" : "0x",
                        "gasLimit" : "0x5fde07",
                        "gasPrice" : "0x0b",
                        "nonce" : "0x1c",
                        "to" : "0x1000000000000000000000000000000000000000",
                        "value" : "0x00",
                        "v" : "0x1b",
                        "r" : "0x5bcf308f6e13f1d310f7bf7c07d23668bfa84384314330c375849619d8bca497",
                        "s" : "0x7f8b3303b6d5daf687b482dec689a32d1829d573854757e3dd2e6f101ab36b4a"
                    }
                ],
                "uncleHeaders" : [
                ]
            }
        ]
    }
}