{
    "CALLCODEEcrecover0_completeReturnValue_d0g0v0_Berlin" : {
        "_info" : {
            "comment" : "",
            "filling-rpc-server" : "evm version 1.10.4-unstable-966ee3ae-20210528",
            "filling-tool-version" : "retesteth-0.1.1-eip1559+commit.658fc3a8.Linux.g++",
            "lllcversion" : "Version: 0.5.14-develop.2021.5.18+commit.14c9d5de.mod.Linux.g++",
            "source" : "src/GeneralStateTestsFiller/stPreCompiledContracts2/CALLCODEEcrecover0_completeReturnValueFiller.json",
            "sourceHash" : "c9c272bc3d221c28154764b150c174a7298bb51cd572726b2132abc8a2c995ab"
        },
        "genesisBlockHeader" : {
            "bloom" : "0x00000000000000000000000000000000000000000000000000000000000000000000000000000000000000000000000000000000000000000000000000000000000000000000000000000000000000000000000000000000000000000000000000000000000000000000000000000000000000000000000000000000000000000000000000000000000000000000000000000000000000000000000000000000000000000000000000000000000000000000000000000000000000000000000000000000000000000000000000000000000000000000000000000000000000000000000000000000000000000000000000000000000000000000000000000000",
            "coinbase" : "0x2adc25665018aa1fe0e6bc666dac8fc2697ff9ba",
            "difficulty" : "0x020000",
            "extraData" : "0x00",
            "gasLimit" : "0x989680",
            "gasUsed" : "0x00",
            "hash" : "0x60a41399efec4bde0ea9f5e226357e9093e60096557c1ae70c375a223216c370",
            "mixHash" : "0x0000000000000000000000000000000000000000000000000000000000000000",
            "nonce" : "0x0000000000000000",
            "number" : "0x00",
            "parentHash" : "0x0000000000000000000000000000000000000000000000000000000000000000",
            "receiptTrie" : "0x56e81f171bcc55a6ff8345e692c0f86e5b48e01b996cadc001622fb5e363b421",
            "stateRoot" : "0xb5d85b8d03224167d85f4edfca8f7d56c49639e482392d26b5b55fc0eac552ed",
            "timestamp" : "0x00",
            "transactionsTrie" : "0x56e81f171bcc55a6ff8345e692c0f86e5b48e01b996cadc001622fb5e363b421",
            "uncleHash" : "0x1dcc4de8dec75d7aab85b567b6ccd41ad312451b948a7413f0a142fd40d49347"
        },
        "pre" : {
            "0x095e7baea6a6c7c4c2dfeb977efac326af552d87" : {
                "balance" : "0x01312d00",
                "code" : "0x7f18c547e4f7b0f325ad1e56f57e26c745b09a3e503d86e00e5255ff7f715d3d1c600052601c6020527f73b1693892219d736caba55bdb67216e485557ea6b6af75f37096c9aa6a5a75f6040527feeb940b1d03b21e36b0e47e79769f095fe2ab855bd91e3a38756b7d75a9c4549606052602060806080600060006001610bb8f260025560805160005500",
                "nonce" : "0x00",
                "storage" : {
                }
            },
            "0xa94f5374fce5edbc8e2a8697c15331677e6ebf0b" : {
                "balance" : "0x0de0b6b3a7640000",
                "code" : "0x",
                "nonce" : "0x00",
                "storage" : {
                }
            }
        },
        "postState" : {
            "0x095e7baea6a6c7c4c2dfeb977efac326af552d87" : {
                "code" : "0x7f18c547e4f7b0f325ad1e56f57e26c745b09a3e503d86e00e5255ff7f715d3d1c600052601c6020527f73b1693892219d736caba55bdb67216e485557ea6b6af75f37096c9aa6a5a75f6040527feeb940b1d03b21e36b0e47e79769f095fe2ab855bd91e3a38756b7d75a9c4549606052602060806080600060006001610bb8f260025560805160005500",
                "nonce" : "0x00",
                "balance" : "0x0132b3a0",
                "storage" : {
                    "0x00" : "0xa94f5374fce5edbc8e2a8697c15331677e6ebf0b",
                    "0x02" : "0x01"
                }
            },
            "0x2adc25665018aa1fe0e6bc666dac8fc2697ff9ba" : {
                "code" : "0x",
                "nonce" : "0x00",
                "balance" : "0x1bc16d674ed26f40",
                "storage" : {
                }
            },
            "0xa94f5374fce5edbc8e2a8697c15331677e6ebf0b" : {
                "code" : "0x",
                "nonce" : "0x01",
                "balance" : "0x0de0b6b3a7580a20",
                "storage" : {
                }
            }
        },
        "network" : "Berlin",
        "sealEngine" : "NoProof",
        "lastblockhash" : "0xb93e4320410398595c3eceeca70d767ca2063eeb9f91c781b477071075f80aff",
        "genesisRLP" : "0xf901f8f901f3a00000000000000000000000000000000000000000000000000000000000000000a01dcc4de8dec75d7aab85b567b6ccd41ad312451b948a7413f0a142fd40d49347942adc25665018aa1fe0e6bc666dac8fc2697ff9baa0b5d85b8d03224167d85f4edfca8f7d56c49639e482392d26b5b55fc0eac552eda056e81f171bcc55a6ff8345e692c0f86e5b48e01b996cadc001622fb5e363b421a056e81f171bcc55a6ff8345e692c0f86e5b48e01b996cadc001622fb5e363b421b9010000000000000000000000000000000000000000000000000000000000000000000000000000000000000000000000000000000000000000000000000000000000000000000000000000000000000000000000000000000000000000000000000000000000000000000000000000000000000000000000000000000000000000000000000000000000000000000000000000000000000000000000000000000000000000000000000000000000000000000000000000000000000000000000000000000000000000000000000000000000000000000000000000000000000000000000000000000000000000000000000000000000000000000000000000000000830200008083989680808000a00000000000000000000000000000000000000000000000000000000000000000880000000000000000c0c0",
        "blocks" : [
            {
                "rlp" : "0xf90263f901f8a060a41399efec4bde0ea9f5e226357e9093e60096557c1ae70c375a223216c370a01dcc4de8dec75d7aab85b567b6ccd41ad312451b948a7413f0a142fd40d49347942adc25665018aa1fe0e6bc666dac8fc2697ff9baa0769e6b88676df7b98cff577b4bf4a2e59603a6af25537dced6c72dad8f135afaa0cf20950fa1d8c3b86e28e835b6f46e696f9f89679f4f11cbd59f43a745f190a1a09457de01531222811a6d89f99912b0722eae72997bd0fb406fe3351be51e4f8bb901000000000000000000000000000000000000000000000000000000000000000000000000000000000000000000000000000000000000000000000000000000000000000000000000000000000000000000000000000000000000000000000000000000000000000000000000000000000000000000000000000000000000000000000000000000000000000000000000000000000000000000000000000000000000000000000000000000000000000000000000000000000000000000000000000000000000000000000000000000000000000000000000000000000000000000000000000000000000000000000000000000000000000000000000000000000083020000018398968083010b208203e800a00000000000000000000000000000000000000000000000000000000000000000880000000000000000f865f863800a830592a894095e7baea6a6c7c4c2dfeb977efac326af552d87830186a0801ca082a671a227220f2b04a9aa780da80015d702902cb314f4900b727ae835a6e613a02a8d1cd19b7388c9b4211156827537f3c9792e3dda07ed0343d0d16c1ffdc497c0",
                "blockHeader" : {
                    "bloom" : "0x00000000000000000000000000000000000000000000000000000000000000000000000000000000000000000000000000000000000000000000000000000000000000000000000000000000000000000000000000000000000000000000000000000000000000000000000000000000000000000000000000000000000000000000000000000000000000000000000000000000000000000000000000000000000000000000000000000000000000000000000000000000000000000000000000000000000000000000000000000000000000000000000000000000000000000000000000000000000000000000000000000000000000000000000000000000",
                    "coinbase" : "0x2adc25665018aa1fe0e6bc666dac8fc2697ff9ba",
                    "difficulty" : "0x020000",
                    "extraData" : "0x00",
                    "gasLimit" : "0x989680",
                    "gasUsed" : "0x010b20",
                    "hash" : "0xb93e4320410398595c3eceeca70d767ca2063eeb9f91c781b477071075f80aff",
                    "mixHash" : "0x0000000000000000000000000000000000000000000000000000000000000000",
                    "nonce" : "0x0000000000000000",
                    "number" : "0x01",
                    "parentHash" : "0x60a41399efec4bde0ea9f5e226357e9093e60096557c1ae70c375a223216c370",
                    "receiptTrie" : "0x9457de01531222811a6d89f99912b0722eae72997bd0fb406fe3351be51e4f8b",
                    "stateRoot" : "0x769e6b88676df7b98cff577b4bf4a2e59603a6af25537dced6c72dad8f135afa",
                    "timestamp" : "0x03e8",
                    "transactionsTrie" : "0xcf20950fa1d8c3b86e28e835b6f46e696f9f89679f4f11cbd59f43a745f190a1",
                    "uncleHash" : "0x1dcc4de8dec75d7aab85b567b6ccd41ad312451b948a7413f0a142fd40d49347"
                },
                "transactions" : [
                    {
                        "data" : "0x",
                        "gasLimit" : "0x0592a8",
                        "gasPrice" : "0x0a",
                        "nonce" : "0x00",
                        "to" : "0x095e7baea6a6c7c4c2dfeb977efac326af552d87",
                        "value" : "0x0186a0",
                        "v" : "0x1c",
                        "r" : "0x82a671a227220f2b04a9aa780da80015d702902cb314f4900b727ae835a6e613",
                        "s" : "0x2a8d1cd19b7388c9b4211156827537f3c9792e3dda07ed0343d0d16c1ffdc497"
                    }
                ],
                "uncleHeaders" : [
                ]
            }
        ]
    },
    "CALLCODEEcrecover0_completeReturnValue_d0g0v0_Istanbul" : {
        "_info" : {
            "comment" : "",
            "filling-rpc-server" : "evm version 1.10.4-unstable-966ee3ae-20210528",
            "filling-tool-version" : "retesteth-0.1.1-eip1559+commit.658fc3a8.Linux.g++",
            "lllcversion" : "Version: 0.5.14-develop.2021.5.18+commit.14c9d5de.mod.Linux.g++",
            "source" : "src/GeneralStateTestsFiller/stPreCompiledContracts2/CALLCODEEcrecover0_completeReturnValueFiller.json",
            "sourceHash" : "c9c272bc3d221c28154764b150c174a7298bb51cd572726b2132abc8a2c995ab"
        },
        "genesisBlockHeader" : {
            "bloom" : "0x00000000000000000000000000000000000000000000000000000000000000000000000000000000000000000000000000000000000000000000000000000000000000000000000000000000000000000000000000000000000000000000000000000000000000000000000000000000000000000000000000000000000000000000000000000000000000000000000000000000000000000000000000000000000000000000000000000000000000000000000000000000000000000000000000000000000000000000000000000000000000000000000000000000000000000000000000000000000000000000000000000000000000000000000000000000",
            "coinbase" : "0x2adc25665018aa1fe0e6bc666dac8fc2697ff9ba",
            "difficulty" : "0x020000",
            "extraData" : "0x00",
            "gasLimit" : "0x989680",
            "gasUsed" : "0x00",
            "hash" : "0x60a41399efec4bde0ea9f5e226357e9093e60096557c1ae70c375a223216c370",
            "mixHash" : "0x0000000000000000000000000000000000000000000000000000000000000000",
            "nonce" : "0x0000000000000000",
            "number" : "0x00",
            "parentHash" : "0x0000000000000000000000000000000000000000000000000000000000000000",
            "receiptTrie" : "0x56e81f171bcc55a6ff8345e692c0f86e5b48e01b996cadc001622fb5e363b421",
            "stateRoot" : "0xb5d85b8d03224167d85f4edfca8f7d56c49639e482392d26b5b55fc0eac552ed",
            "timestamp" : "0x00",
            "transactionsTrie" : "0x56e81f171bcc55a6ff8345e692c0f86e5b48e01b996cadc001622fb5e363b421",
            "uncleHash" : "0x1dcc4de8dec75d7aab85b567b6ccd41ad312451b948a7413f0a142fd40d49347"
        },
        "pre" : {
            "0x095e7baea6a6c7c4c2dfeb977efac326af552d87" : {
                "balance" : "0x01312d00",
                "code" : "0x7f18c547e4f7b0f325ad1e56f57e26c745b09a3e503d86e00e5255ff7f715d3d1c600052601c6020527f73b1693892219d736caba55bdb67216e485557ea6b6af75f37096c9aa6a5a75f6040527feeb940b1d03b21e36b0e47e79769f095fe2ab855bd91e3a38756b7d75a9c4549606052602060806080600060006001610bb8f260025560805160005500",
                "nonce" : "0x00",
                "storage" : {
                }
            },
            "0xa94f5374fce5edbc8e2a8697c15331677e6ebf0b" : {
                "balance" : "0x0de0b6b3a7640000",
                "code" : "0x",
                "nonce" : "0x00",
                "storage" : {
                }
            }
        },
        "postState" : {
            "0x095e7baea6a6c7c4c2dfeb977efac326af552d87" : {
                "code" : "0x7f18c547e4f7b0f325ad1e56f57e26c745b09a3e503d86e00e5255ff7f715d3d1c600052601c6020527f73b1693892219d736caba55bdb67216e485557ea6b6af75f37096c9aa6a5a75f6040527feeb940b1d03b21e36b0e47e79769f095fe2ab855bd91e3a38756b7d75a9c4549606052602060806080600060006001610bb8f260025560805160005500",
                "nonce" : "0x00",
                "balance" : "0x0132b3a0",
                "storage" : {
                    "0x00" : "0xa94f5374fce5edbc8e2a8697c15331677e6ebf0b",
                    "0x02" : "0x01"
                }
            },
            "0x2adc25665018aa1fe0e6bc666dac8fc2697ff9ba" : {
                "code" : "0x",
                "nonce" : "0x00",
                "balance" : "0x1bc16d674ed1e2a0",
                "storage" : {
                }
            },
            "0xa94f5374fce5edbc8e2a8697c15331677e6ebf0b" : {
                "code" : "0x",
                "nonce" : "0x01",
                "balance" : "0x0de0b6b3a75896c0",
                "storage" : {
                }
            }
        },
        "network" : "Istanbul",
        "sealEngine" : "NoProof",
        "lastblockhash" : "0xca172bc805b6263db7ced20c8a6f0a0746db7dbe5ce4af8acd7fda1cba22da91",
        "genesisRLP" : "0xf901f8f901f3a00000000000000000000000000000000000000000000000000000000000000000a01dcc4de8dec75d7aab85b567b6ccd41ad312451b948a7413f0a142fd40d49347942adc25665018aa1fe0e6bc666dac8fc2697ff9baa0b5d85b8d03224167d85f4edfca8f7d56c49639e482392d26b5b55fc0eac552eda056e81f171bcc55a6ff8345e692c0f86e5b48e01b996cadc001622fb5e363b421a056e81f171bcc55a6ff8345e692c0f86e5b48e01b996cadc001622fb5e363b421b9010000000000000000000000000000000000000000000000000000000000000000000000000000000000000000000000000000000000000000000000000000000000000000000000000000000000000000000000000000000000000000000000000000000000000000000000000000000000000000000000000000000000000000000000000000000000000000000000000000000000000000000000000000000000000000000000000000000000000000000000000000000000000000000000000000000000000000000000000000000000000000000000000000000000000000000000000000000000000000000000000000000000000000000000000000000000830200008083989680808000a00000000000000000000000000000000000000000000000000000000000000000880000000000000000c0c0",
        "blocks" : [
            {
                "rlp" : "0xf90262f901f7a060a41399efec4bde0ea9f5e226357e9093e60096557c1ae70c375a223216c370a01dcc4de8dec75d7aab85b567b6ccd41ad312451b948a7413f0a142fd40d49347942adc25665018aa1fe0e6bc666dac8fc2697ff9baa0b8bea4c332ebaaefb9a1378c642f005ab3bb1bbdb3a55cbf9cfd0bf693a35081a0cf20950fa1d8c3b86e28e835b6f46e696f9f89679f4f11cbd59f43a745f190a1a0e764903735305454f8d69d7f882dbdf7a89fb93d2bcfea783b908cdc842562f7b901000000000000000000000000000000000000000000000000000000000000000000000000000000000000000000000000000000000000000000000000000000000000000000000000000000000000000000000000000000000000000000000000000000000000000000000000000000000000000000000000000000000000000000000000000000000000000000000000000000000000000000000000000000000000000000000000000000000000000000000000000000000000000000000000000000000000000000000000000000000000000000000000000000000000000000000000000000000000000000000000000000000000000000000000000000000083020000018398968082fd108203e800a00000000000000000000000000000000000000000000000000000000000000000880000000000000000f865f863800a830592a894095e7baea6a6c7c4c2dfeb977efac326af552d87830186a0801ca082a671a227220f2b04a9aa780da80015d702902cb314f4900b727ae835a6e613a02a8d1cd19b7388c9b4211156827537f3c9792e3dda07ed0343d0d16c1ffdc497c0",
                "blockHeader" : {
                    "bloom" : "0x00000000000000000000000000000000000000000000000000000000000000000000000000000000000000000000000000000000000000000000000000000000000000000000000000000000000000000000000000000000000000000000000000000000000000000000000000000000000000000000000000000000000000000000000000000000000000000000000000000000000000000000000000000000000000000000000000000000000000000000000000000000000000000000000000000000000000000000000000000000000000000000000000000000000000000000000000000000000000000000000000000000000000000000000000000000",
                    "coinbase" : "0x2adc25665018aa1fe0e6bc666dac8fc2697ff9ba",
                    "difficulty" : "0x020000",
                    "extraData" : "0x00",
                    "gasLimit" : "0x989680",
                    "gasUsed" : "0xfd10",
                    "hash" : "0xca172bc805b6263db7ced20c8a6f0a0746db7dbe5ce4af8acd7fda1cba22da91",
                    "mixHash" : "0x0000000000000000000000000000000000000000000000000000000000000000",
                    "nonce" : "0x0000000000000000",
                    "number" : "0x01",
                    "parentHash" : "0x60a41399efec4bde0ea9f5e226357e9093e60096557c1ae70c375a223216c370",
                    "receiptTrie" : "0xe764903735305454f8d69d7f882dbdf7a89fb93d2bcfea783b908cdc842562f7",
                    "stateRoot" : "0xb8bea4c332ebaaefb9a1378c642f005ab3bb1bbdb3a55cbf9cfd0bf693a35081",
                    "timestamp" : "0x03e8",
                    "transactionsTrie" : "0xcf20950fa1d8c3b86e28e835b6f46e696f9f89679f4f11cbd59f43a745f190a1",
                    "uncleHash" : "0x1dcc4de8dec75d7aab85b567b6ccd41ad312451b948a7413f0a142fd40d49347"
                },
                "transactions" : [
                    {
                        "data" : "0x",
                        "gasLimit" : "0x0592a8",
                        "gasPrice" : "0x0a",
                        "nonce" : "0x00",
                        "to" : "0x095e7baea6a6c7c4c2dfeb977efac326af552d87",
                        "value" : "0x0186a0",
                        "v" : "0x1c",
                        "r" : "0x82a671a227220f2b04a9aa780da80015d702902cb314f4900b727ae835a6e613",
                        "s" : "0x2a8d1cd19b7388c9b4211156827537f3c9792e3dda07ed0343d0d16c1ffdc497"
                    }
                ],
                "uncleHeaders" : [
                ]
            }
        ]
    },
    "CALLCODEEcrecover0_completeReturnValue_d0g0v0_London" : {
        "_info" : {
            "comment" : "",
            "filling-rpc-server" : "evm version 1.10.4-unstable-966ee3ae-20210528",
            "filling-tool-version" : "retesteth-0.1.1-eip1559+commit.658fc3a8.Linux.g++",
            "lllcversion" : "Version: 0.5.14-develop.2021.5.18+commit.14c9d5de.mod.Linux.g++",
            "source" : "src/GeneralStateTestsFiller/stPreCompiledContracts2/CALLCODEEcrecover0_completeReturnValueFiller.json",
            "sourceHash" : "c9c272bc3d221c28154764b150c174a7298bb51cd572726b2132abc8a2c995ab"
        },
        "genesisBlockHeader" : {
            "bloom" : "0x00000000000000000000000000000000000000000000000000000000000000000000000000000000000000000000000000000000000000000000000000000000000000000000000000000000000000000000000000000000000000000000000000000000000000000000000000000000000000000000000000000000000000000000000000000000000000000000000000000000000000000000000000000000000000000000000000000000000000000000000000000000000000000000000000000000000000000000000000000000000000000000000000000000000000000000000000000000000000000000000000000000000000000000000000000000",
            "coinbase" : "0x2adc25665018aa1fe0e6bc666dac8fc2697ff9ba",
            "difficulty" : "0x020000",
            "extraData" : "0x00",
            "gasLimit" : "0x989680",
            "gasUsed" : "0x00",
            "hash" : "0x14e177bcb66acf0f9a93271510e2cf166116b98d9ae846ee5c05f896eb5215b8",
            "mixHash" : "0x0000000000000000000000000000000000000000000000000000000000000000",
            "nonce" : "0x0000000000000000",
            "number" : "0x00",
            "parentHash" : "0x0000000000000000000000000000000000000000000000000000000000000000",
            "receiptTrie" : "0x56e81f171bcc55a6ff8345e692c0f86e5b48e01b996cadc001622fb5e363b421",
            "stateRoot" : "0xb5d85b8d03224167d85f4edfca8f7d56c49639e482392d26b5b55fc0eac552ed",
            "timestamp" : "0x00",
            "transactionsTrie" : "0x56e81f171bcc55a6ff8345e692c0f86e5b48e01b996cadc001622fb5e363b421",
            "uncleHash" : "0x1dcc4de8dec75d7aab85b567b6ccd41ad312451b948a7413f0a142fd40d49347",
            "baseFee" : "0x0b"
        },
        "pre" : {
            "0x095e7baea6a6c7c4c2dfeb977efac326af552d87" : {
                "balance" : "0x01312d00",
                "code" : "0x7f18c547e4f7b0f325ad1e56f57e26c745b09a3e503d86e00e5255ff7f715d3d1c600052601c6020527f73b1693892219d736caba55bdb67216e485557ea6b6af75f37096c9aa6a5a75f6040527feeb940b1d03b21e36b0e47e79769f095fe2ab855bd91e3a38756b7d75a9c4549606052602060806080600060006001610bb8f260025560805160005500",
                "nonce" : "0x00",
                "storage" : {
                }
            },
            "0xa94f5374fce5edbc8e2a8697c15331677e6ebf0b" : {
                "balance" : "0x0de0b6b3a7640000",
                "code" : "0x",
                "nonce" : "0x00",
                "storage" : {
                }
            }
        },
        "postState" : {
            "0x095e7baea6a6c7c4c2dfeb977efac326af552d87" : {
                "code" : "0x7f18c547e4f7b0f325ad1e56f57e26c745b09a3e503d86e00e5255ff7f715d3d1c600052601c6020527f73b1693892219d736caba55bdb67216e485557ea6b6af75f37096c9aa6a5a75f6040527feeb940b1d03b21e36b0e47e79769f095fe2ab855bd91e3a38756b7d75a9c4549606052602060806080600060006001610bb8f260025560805160005500",
                "nonce" : "0x00",
                "balance" : "0x0132b3a0",
                "storage" : {
                    "0x00" : "0xa94f5374fce5edbc8e2a8697c15331677e6ebf0b",
                    "0x02" : "0x01"
                }
            },
            "0x2adc25665018aa1fe0e6bc666dac8fc2697ff9ba" : {
                "code" : "0x",
                "nonce" : "0x00",
                "balance" : "0x1bc16d674ec80000",
                "storage" : {
                }
            },
            "0xa94f5374fce5edbc8e2a8697c15331677e6ebf0b" : {
                "code" : "0x",
                "nonce" : "0x01",
                "balance" : "0x0de0b6b3a7580a20",
                "storage" : {
                }
            }
        },
        "network" : "London",
        "sealEngine" : "NoProof",
        "lastblockhash" : "0xc73854c56dc13c0d443f6d3bbd687629c4ef02f02de38dbe285dc214bedca947",
        "genesisRLP" : "0xf901f9f901f4a00000000000000000000000000000000000000000000000000000000000000000a01dcc4de8dec75d7aab85b567b6ccd41ad312451b948a7413f0a142fd40d49347942adc25665018aa1fe0e6bc666dac8fc2697ff9baa0b5d85b8d03224167d85f4edfca8f7d56c49639e482392d26b5b55fc0eac552eda056e81f171bcc55a6ff8345e692c0f86e5b48e01b996cadc001622fb5e363b421a056e81f171bcc55a6ff8345e692c0f86e5b48e01b996cadc001622fb5e363b421b9010000000000000000000000000000000000000000000000000000000000000000000000000000000000000000000000000000000000000000000000000000000000000000000000000000000000000000000000000000000000000000000000000000000000000000000000000000000000000000000000000000000000000000000000000000000000000000000000000000000000000000000000000000000000000000000000000000000000000000000000000000000000000000000000000000000000000000000000000000000000000000000000000000000000000000000000000000000000000000000000000000000000000000000000000000000000830200008083989680808000a000000000000000000000000000000000000000000000000000000000000000008800000000000000000bc0c0",
        "blocks" : [
            {
                "rlp" : "0xf90264f901f9a014e177bcb66acf0f9a93271510e2cf166116b98d9ae846ee5c05f896eb5215b8a01dcc4de8dec75d7aab85b567b6ccd41ad312451b948a7413f0a142fd40d49347942adc25665018aa1fe0e6bc666dac8fc2697ff9baa05bed0100a0f51cc90d3e2661c2b3f4dbdb8603ca44269d1f0451d2a7511917c6a0cf20950fa1d8c3b86e28e835b6f46e696f9f89679f4f11cbd59f43a745f190a1a09457de01531222811a6d89f99912b0722eae72997bd0fb406fe3351be51e4f8bb901000000000000000000000000000000000000000000000000000000000000000000000000000000000000000000000000000000000000000000000000000000000000000000000000000000000000000000000000000000000000000000000000000000000000000000000000000000000000000000000000000000000000000000000000000000000000000000000000000000000000000000000000000000000000000000000000000000000000000000000000000000000000000000000000000000000000000000000000000000000000000000000000000000000000000000000000000000000000000000000000000000000000000000000000000000000083020000018398968083010b208203e800a000000000000000000000000000000000000000000000000000000000000000008800000000000000000af865f863800a830592a894095e7baea6a6c7c4c2dfeb977efac326af552d87830186a0801ca082a671a227220f2b04a9aa780da80015d702902cb314f4900b727ae835a6e613a02a8d1cd19b7388c9b4211156827537f3c9792e3dda07ed0343d0d16c1ffdc497c0",
                "blockHeader" : {
                    "bloom" : "0x00000000000000000000000000000000000000000000000000000000000000000000000000000000000000000000000000000000000000000000000000000000000000000000000000000000000000000000000000000000000000000000000000000000000000000000000000000000000000000000000000000000000000000000000000000000000000000000000000000000000000000000000000000000000000000000000000000000000000000000000000000000000000000000000000000000000000000000000000000000000000000000000000000000000000000000000000000000000000000000000000000000000000000000000000000000",
                    "coinbase" : "0x2adc25665018aa1fe0e6bc666dac8fc2697ff9ba",
                    "difficulty" : "0x020000",
                    "extraData" : "0x00",
                    "gasLimit" : "0x989680",
                    "gasUsed" : "0x010b20",
                    "hash" : "0xc73854c56dc13c0d443f6d3bbd687629c4ef02f02de38dbe285dc214bedca947",
                    "mixHash" : "0x0000000000000000000000000000000000000000000000000000000000000000",
                    "nonce" : "0x0000000000000000",
                    "number" : "0x01",
                    "parentHash" : "0x14e177bcb66acf0f9a93271510e2cf166116b98d9ae846ee5c05f896eb5215b8",
                    "receiptTrie" : "0x9457de01531222811a6d89f99912b0722eae72997bd0fb406fe3351be51e4f8b",
                    "stateRoot" : "0x5bed0100a0f51cc90d3e2661c2b3f4dbdb8603ca44269d1f0451d2a7511917c6",
                    "timestamp" : "0x03e8",
                    "transactionsTrie" : "0xcf20950fa1d8c3b86e28e835b6f46e696f9f89679f4f11cbd59f43a745f190a1",
                    "uncleHash" : "0x1dcc4de8dec75d7aab85b567b6ccd41ad312451b948a7413f0a142fd40d49347",
                    "baseFee" : "0x0a"
                },
                "transactions" : [
                    {
                        "data" : "0x",
                        "gasLimit" : "0x0592a8",
                        "gasPrice" : "0x0a",
                        "nonce" : "0x00",
                        "to" : "0x095e7baea6a6c7c4c2dfeb977efac326af552d87",
                        "value" : "0x0186a0",
                        "v" : "0x1c",
                        "r" : "0x82a671a227220f2b04a9aa780da80015d702902cb314f4900b727ae835a6e613",
                        "s" : "0x2a8d1cd19b7388c9b4211156827537f3c9792e3dda07ed0343d0d16c1ffdc497"
                    }
                ],
                "uncleHeaders" : [
                ]
            }
        ]
    }
}