{
    "CallSha256_5_d0g0v0_Berlin" : {
        "_info" : {
            "comment" : "",
            "filling-rpc-server" : "evm version 1.10.4-unstable-966ee3ae-20210528",
            "filling-tool-version" : "retesteth-0.1.1-eip1559+commit.658fc3a8.Linux.g++",
            "lllcversion" : "Version: 0.5.14-develop.2021.5.18+commit.14c9d5de.mod.Linux.g++",
            "source" : "src/GeneralStateTestsFiller/stPreCompiledContracts2/CallSha256_5Filler.json",
            "sourceHash" : "7eade9bf79ef658185454f9cf22c17ff1444a052d17071f1ea4925b467a53ffc"
        },
        "genesisBlockHeader" : {
            "bloom" : "0x00000000000000000000000000000000000000000000000000000000000000000000000000000000000000000000000000000000000000000000000000000000000000000000000000000000000000000000000000000000000000000000000000000000000000000000000000000000000000000000000000000000000000000000000000000000000000000000000000000000000000000000000000000000000000000000000000000000000000000000000000000000000000000000000000000000000000000000000000000000000000000000000000000000000000000000000000000000000000000000000000000000000000000000000000000000",
            "coinbase" : "0x2adc25665018aa1fe0e6bc666dac8fc2697ff9ba",
            "difficulty" : "0x020000",
            "extraData" : "0x00",
            "gasLimit" : "0x05f5e100",
            "gasUsed" : "0x00",
            "hash" : "0x19bd3bfe9f33da8d98c3cffce29446d9983aee498fd508caefae2a276968cc5b",
            "mixHash" : "0x0000000000000000000000000000000000000000000000000000000000000000",
            "nonce" : "0x0000000000000000",
            "number" : "0x00",
            "parentHash" : "0x0000000000000000000000000000000000000000000000000000000000000000",
            "receiptTrie" : "0x56e81f171bcc55a6ff8345e692c0f86e5b48e01b996cadc001622fb5e363b421",
            "stateRoot" : "0x684640c2d4a98fb35e11b87239e0acead93cb19ff61236ba521875a7d0264cb7",
            "timestamp" : "0x00",
            "transactionsTrie" : "0x56e81f171bcc55a6ff8345e692c0f86e5b48e01b996cadc001622fb5e363b421",
            "uncleHash" : "0x1dcc4de8dec75d7aab85b567b6ccd41ad312451b948a7413f0a142fd40d49347"
        },
        "pre" : {
            "0x095e7baea6a6c7c4c2dfeb977efac326af552d87" : {
                "balance" : "0x01312d00",
                "code" : "0x7fffffffffffffffffffffffffffffffffffffffffffffffffffffffffffffffff60005260206000620f4240600060006002610258f160025560005160005500",
                "nonce" : "0x00",
                "storage" : {
                }
            },
            "0xa94f5374fce5edbc8e2a8697c15331677e6ebf0b" : {
                "balance" : "0x0de0b6b3a7640000",
                "code" : "0x",
                "nonce" : "0x00",
                "storage" : {
                }
            }
        },
        "postState" : {
            "0x095e7baea6a6c7c4c2dfeb977efac326af552d87" : {
                "code" : "0x7fffffffffffffffffffffffffffffffffffffffffffffffffffffffffffffffff60005260206000620f4240600060006002610258f160025560005160005500",
                "nonce" : "0x00",
                "balance" : "0x0132b3a0",
                "storage" : {
                    "0x00" : "0xffffffffffffffffffffffffffffffffffffffffffffffffffffffffffffffff"
                }
            },
            "0x2adc25665018aa1fe0e6bc666dac8fc2697ff9ba" : {
                "code" : "0x",
                "nonce" : "0x00",
                "balance" : "0x1bc16d6750005e68",
                "storage" : {
                }
            },
            "0xa94f5374fce5edbc8e2a8697c15331677e6ebf0b" : {
                "code" : "0x",
                "nonce" : "0x01",
                "balance" : "0x0de0b6b3a62a1af8",
                "storage" : {
                }
            }
        },
        "network" : "Berlin",
        "sealEngine" : "NoProof",
        "lastblockhash" : "0xe67a08d5f82ad36edbea7a50f29e9c02d8c85f69da308da404578f715af4a27f",
        "genesisRLP" : "0xf901f9f901f4a00000000000000000000000000000000000000000000000000000000000000000a01dcc4de8dec75d7aab85b567b6ccd41ad312451b948a7413f0a142fd40d49347942adc25665018aa1fe0e6bc666dac8fc2697ff9baa0684640c2d4a98fb35e11b87239e0acead93cb19ff61236ba521875a7d0264cb7a056e81f171bcc55a6ff8345e692c0f86e5b48e01b996cadc001622fb5e363b421a056e81f171bcc55a6ff8345e692c0f86e5b48e01b996cadc001622fb5e363b421b901000000000000000000000000000000000000000000000000000000000000000000000000000000000000000000000000000000000000000000000000000000000000000000000000000000000000000000000000000000000000000000000000000000000000000000000000000000000000000000000000000000000000000000000000000000000000000000000000000000000000000000000000000000000000000000000000000000000000000000000000000000000000000000000000000000000000000000000000000000000000000000000000000000000000000000000000000000000000000000000000000000000000000000000000000000000083020000808405f5e100808000a00000000000000000000000000000000000000000000000000000000000000000880000000000000000c0c0",
        "blocks" : [
            {
                "rlp" : "0xf90264f901f9a019bd3bfe9f33da8d98c3cffce29446d9983aee498fd508caefae2a276968cc5ba01dcc4de8dec75d7aab85b567b6ccd41ad312451b948a7413f0a142fd40d49347942adc25665018aa1fe0e6bc666dac8fc2697ff9baa01d873f1776b1d8c42763363ab1eafd6d88b6218df7f7f7f6ec55c5d40fca7608a046e9f30cc5abf21aad78da8edc5bb7a13b446211bcca2bd0e1779e7a152a925da094ba4173bc573a4c7cddc47b8445b5132074103c7c28e158ebf464c7d5f91577b901000000000000000000000000000000000000000000000000000000000000000000000000000000000000000000000000000000000000000000000000000000000000000000000000000000000000000000000000000000000000000000000000000000000000000000000000000000000000000000000000000000000000000000000000000000000000000000000000000000000000000000000000000000000000000000000000000000000000000000000000000000000000000000000000000000000000000000000000000000000000000000000000000000000000000000000000000000000000000000000000000000000000000000000000000000000083020000018405f5e100831f3ca48203e800a00000000000000000000000000000000000000000000000000000000000000000880000000000000000f865f863800a8398968094095e7baea6a6c7c4c2dfeb977efac326af552d87830186a0801ca0cd6a25a21d686e596c26423ec16cd165f89b4a68ccba98478c740b0db7ce8773a069934f81a17f0b0f3c468c6bdb27ae93876ee94810875d9de367b1f5ae784c04c0",
                "blockHeader" : {
                    "bloom" : "0x00000000000000000000000000000000000000000000000000000000000000000000000000000000000000000000000000000000000000000000000000000000000000000000000000000000000000000000000000000000000000000000000000000000000000000000000000000000000000000000000000000000000000000000000000000000000000000000000000000000000000000000000000000000000000000000000000000000000000000000000000000000000000000000000000000000000000000000000000000000000000000000000000000000000000000000000000000000000000000000000000000000000000000000000000000000",
                    "coinbase" : "0x2adc25665018aa1fe0e6bc666dac8fc2697ff9ba",
                    "difficulty" : "0x020000",
                    "extraData" : "0x00",
                    "gasLimit" : "0x05f5e100",
                    "gasUsed" : "0x1f3ca4",
                    "hash" : "0xe67a08d5f82ad36edbea7a50f29e9c02d8c85f69da308da404578f715af4a27f",
                    "mixHash" : "0x0000000000000000000000000000000000000000000000000000000000000000",
                    "nonce" : "0x0000000000000000",
                    "number" : "0x01",
                    "parentHash" : "0x19bd3bfe9f33da8d98c3cffce29446d9983aee498fd508caefae2a276968cc5b",
                    "receiptTrie" : "0x94ba4173bc573a4c7cddc47b8445b5132074103c7c28e158ebf464c7d5f91577",
                    "stateRoot" : "0x1d873f1776b1d8c42763363ab1eafd6d88b6218df7f7f7f6ec55c5d40fca7608",
                    "timestamp" : "0x03e8",
                    "transactionsTrie" : "0x46e9f30cc5abf21aad78da8edc5bb7a13b446211bcca2bd0e1779e7a152a925d",
                    "uncleHash" : "0x1dcc4de8dec75d7aab85b567b6ccd41ad312451b948a7413f0a142fd40d49347"
                },
                "transactions" : [
                    {
                        "data" : "0x",
                        "gasLimit" : "0x989680",
                        "gasPrice" : "0x0a",
                        "nonce" : "0x00",
                        "to" : "0x095e7baea6a6c7c4c2dfeb977efac326af552d87",
                        "value" : "0x0186a0",
                        "v" : "0x1c",
                        "r" : "0xcd6a25a21d686e596c26423ec16cd165f89b4a68ccba98478c740b0db7ce8773",
                        "s" : "0x69934f81a17f0b0f3c468c6bdb27ae93876ee94810875d9de367b1f5ae784c04"
                    }
                ],
                "uncleHeaders" : [
                ]
            }
        ]
    },
    "CallSha256_5_d0g0v0_Istanbul" : {
        "_info" : {
            "comment" : "",
            "filling-rpc-server" : "evm version 1.10.4-unstable-966ee3ae-20210528",
            "filling-tool-version" : "retesteth-0.1.1-eip1559+commit.658fc3a8.Linux.g++",
            "lllcversion" : "Version: 0.5.14-develop.2021.5.18+commit.14c9d5de.mod.Linux.g++",
            "source" : "src/GeneralStateTestsFiller/stPreCompiledContracts2/CallSha256_5Filler.json",
            "sourceHash" : "7eade9bf79ef658185454f9cf22c17ff1444a052d17071f1ea4925b467a53ffc"
        },
        "genesisBlockHeader" : {
            "bloom" : "0x00000000000000000000000000000000000000000000000000000000000000000000000000000000000000000000000000000000000000000000000000000000000000000000000000000000000000000000000000000000000000000000000000000000000000000000000000000000000000000000000000000000000000000000000000000000000000000000000000000000000000000000000000000000000000000000000000000000000000000000000000000000000000000000000000000000000000000000000000000000000000000000000000000000000000000000000000000000000000000000000000000000000000000000000000000000",
            "coinbase" : "0x2adc25665018aa1fe0e6bc666dac8fc2697ff9ba",
            "difficulty" : "0x020000",
            "extraData" : "0x00",
            "gasLimit" : "0x05f5e100",
            "gasUsed" : "0x00",
            "hash" : "0x19bd3bfe9f33da8d98c3cffce29446d9983aee498fd508caefae2a276968cc5b",
            "mixHash" : "0x0000000000000000000000000000000000000000000000000000000000000000",
            "nonce" : "0x0000000000000000",
            "number" : "0x00",
            "parentHash" : "0x0000000000000000000000000000000000000000000000000000000000000000",
            "receiptTrie" : "0x56e81f171bcc55a6ff8345e692c0f86e5b48e01b996cadc001622fb5e363b421",
            "stateRoot" : "0x684640c2d4a98fb35e11b87239e0acead93cb19ff61236ba521875a7d0264cb7",
            "timestamp" : "0x00",
            "transactionsTrie" : "0x56e81f171bcc55a6ff8345e692c0f86e5b48e01b996cadc001622fb5e363b421",
            "uncleHash" : "0x1dcc4de8dec75d7aab85b567b6ccd41ad312451b948a7413f0a142fd40d49347"
        },
        "pre" : {
            "0x095e7baea6a6c7c4c2dfeb977efac326af552d87" : {
                "balance" : "0x01312d00",
                "code" : "0x7fffffffffffffffffffffffffffffffffffffffffffffffffffffffffffffffff60005260206000620f4240600060006002610258f160025560005160005500",
                "nonce" : "0x00",
                "storage" : {
                }
            },
            "0xa94f5374fce5edbc8e2a8697c15331677e6ebf0b" : {
                "balance" : "0x0de0b6b3a7640000",
                "code" : "0x",
                "nonce" : "0x00",
                "storage" : {
                }
            }
        },
        "postState" : {
            "0x095e7baea6a6c7c4c2dfeb977efac326af552d87" : {
                "code" : "0x7fffffffffffffffffffffffffffffffffffffffffffffffffffffffffffffffff60005260206000620f4240600060006002610258f160025560005160005500",
                "nonce" : "0x00",
                "balance" : "0x0132b3a0",
                "storage" : {
                    "0x00" : "0xffffffffffffffffffffffffffffffffffffffffffffffffffffffffffffffff"
                }
            },
            "0x2adc25665018aa1fe0e6bc666dac8fc2697ff9ba" : {
                "code" : "0x",
                "nonce" : "0x00",
                "balance" : "0x1bc16d674fffed20",
                "storage" : {
                }
            },
            "0xa94f5374fce5edbc8e2a8697c15331677e6ebf0b" : {
                "code" : "0x",
                "nonce" : "0x01",
                "balance" : "0x0de0b6b3a62a8c40",
                "storage" : {
                }
            }
        },
        "network" : "Istanbul",
        "sealEngine" : "NoProof",
        "lastblockhash" : "0x058728f5c28ab88d2355c338b044cb38676af8846e2f5e9e93954018be485524",
        "genesisRLP" : "0xf901f9f901f4a00000000000000000000000000000000000000000000000000000000000000000a01dcc4de8dec75d7aab85b567b6ccd41ad312451b948a7413f0a142fd40d49347942adc25665018aa1fe0e6bc666dac8fc2697ff9baa0684640c2d4a98fb35e11b87239e0acead93cb19ff61236ba521875a7d0264cb7a056e81f171bcc55a6ff8345e692c0f86e5b48e01b996cadc001622fb5e363b421a056e81f171bcc55a6ff8345e692c0f86e5b48e01b996cadc001622fb5e363b421b901000000000000000000000000000000000000000000000000000000000000000000000000000000000000000000000000000000000000000000000000000000000000000000000000000000000000000000000000000000000000000000000000000000000000000000000000000000000000000000000000000000000000000000000000000000000000000000000000000000000000000000000000000000000000000000000000000000000000000000000000000000000000000000000000000000000000000000000000000000000000000000000000000000000000000000000000000000000000000000000000000000000000000000000000000000000083020000808405f5e100808000a00000000000000000000000000000000000000000000000000000000000000000880000000000000000c0c0",
        "blocks" : [
            {
                "rlp" : "0xf90264f901f9a019bd3bfe9f33da8d98c3cffce29446d9983aee498fd508caefae2a276968cc5ba01dcc4de8dec75d7aab85b567b6ccd41ad312451b948a7413f0a142fd40d49347942adc25665018aa1fe0e6bc666dac8fc2697ff9baa02faba6277247f240b02431192219df8293ac441ba1fc38c9db5f1ac60270b278a046e9f30cc5abf21aad78da8edc5bb7a13b446211bcca2bd0e1779e7a152a925da0c65c84199fa54c5d1ddea3f62a20f48372c213c6994ae46a3f40f686379d02bfb901000000000000000000000000000000000000000000000000000000000000000000000000000000000000000000000000000000000000000000000000000000000000000000000000000000000000000000000000000000000000000000000000000000000000000000000000000000000000000000000000000000000000000000000000000000000000000000000000000000000000000000000000000000000000000000000000000000000000000000000000000000000000000000000000000000000000000000000000000000000000000000000000000000000000000000000000000000000000000000000000000000000000000000000000000000000083020000018405f5e100831f31508203e800a00000000000000000000000000000000000000000000000000000000000000000880000000000000000f865f863800a8398968094095e7baea6a6c7c4c2dfeb977efac326af552d87830186a0801ca0cd6a25a21d686e596c26423ec16cd165f89b4a68ccba98478c740b0db7ce8773a069934f81a17f0b0f3c468c6bdb27ae93876ee94810875d9de367b1f5ae784c04c0",
                "blockHeader" : {
                    "bloom" : "0x00000000000000000000000000000000000000000000000000000000000000000000000000000000000000000000000000000000000000000000000000000000000000000000000000000000000000000000000000000000000000000000000000000000000000000000000000000000000000000000000000000000000000000000000000000000000000000000000000000000000000000000000000000000000000000000000000000000000000000000000000000000000000000000000000000000000000000000000000000000000000000000000000000000000000000000000000000000000000000000000000000000000000000000000000000000",
                    "coinbase" : "0x2adc25665018aa1fe0e6bc666dac8fc2697ff9ba",
                    "difficulty" : "0x020000",
                    "extraData" : "0x00",
                    "gasLimit" : "0x05f5e100",
                    "gasUsed" : "0x1f3150",
                    "hash" : "0x058728f5c28ab88d2355c338b044cb38676af8846e2f5e9e93954018be485524",
                    "mixHash" : "0x0000000000000000000000000000000000000000000000000000000000000000",
                    "nonce" : "0x0000000000000000",
                    "number" : "0x01",
                    "parentHash" : "0x19bd3bfe9f33da8d98c3cffce29446d9983aee498fd508caefae2a276968cc5b",
                    "receiptTrie" : "0xc65c84199fa54c5d1ddea3f62a20f48372c213c6994ae46a3f40f686379d02bf",
                    "stateRoot" : "0x2faba6277247f240b02431192219df8293ac441ba1fc38c9db5f1ac60270b278",
                    "timestamp" : "0x03e8",
                    "transactionsTrie" : "0x46e9f30cc5abf21aad78da8edc5bb7a13b446211bcca2bd0e1779e7a152a925d",
                    "uncleHash" : "0x1dcc4de8dec75d7aab85b567b6ccd41ad312451b948a7413f0a142fd40d49347"
                },
                "transactions" : [
                    {
                        "data" : "0x",
                        "gasLimit" : "0x989680",
                        "gasPrice" : "0x0a",
                        "nonce" : "0x00",
                        "to" : "0x095e7baea6a6c7c4c2dfeb977efac326af552d87",
                        "value" : "0x0186a0",
                        "v" : "0x1c",
                        "r" : "0xcd6a25a21d686e596c26423ec16cd165f89b4a68ccba98478c740b0db7ce8773",
                        "s" : "0x69934f81a17f0b0f3c468c6bdb27ae93876ee94810875d9de367b1f5ae784c04"
                    }
                ],
                "uncleHeaders" : [
                ]
            }
        ]
    },
    "CallSha256_5_d0g0v0_London" : {
        "_info" : {
            "comment" : "",
            "filling-rpc-server" : "evm version 1.10.4-unstable-966ee3ae-20210528",
            "filling-tool-version" : "retesteth-0.1.1-eip1559+commit.658fc3a8.Linux.g++",
            "lllcversion" : "Version: 0.5.14-develop.2021.5.18+commit.14c9d5de.mod.Linux.g++",
            "source" : "src/GeneralStateTestsFiller/stPreCompiledContracts2/CallSha256_5Filler.json",
            "sourceHash" : "7eade9bf79ef658185454f9cf22c17ff1444a052d17071f1ea4925b467a53ffc"
        },
        "genesisBlockHeader" : {
            "bloom" : "0x00000000000000000000000000000000000000000000000000000000000000000000000000000000000000000000000000000000000000000000000000000000000000000000000000000000000000000000000000000000000000000000000000000000000000000000000000000000000000000000000000000000000000000000000000000000000000000000000000000000000000000000000000000000000000000000000000000000000000000000000000000000000000000000000000000000000000000000000000000000000000000000000000000000000000000000000000000000000000000000000000000000000000000000000000000000",
            "coinbase" : "0x2adc25665018aa1fe0e6bc666dac8fc2697ff9ba",
            "difficulty" : "0x020000",
            "extraData" : "0x00",
            "gasLimit" : "0x05f5e100",
            "gasUsed" : "0x00",
            "hash" : "0x06ed86c0ca5d828bdcc598ad807cf1248948748eb70c9b7c45823086d0543dbc",
            "mixHash" : "0x0000000000000000000000000000000000000000000000000000000000000000",
            "nonce" : "0x0000000000000000",
            "number" : "0x00",
            "parentHash" : "0x0000000000000000000000000000000000000000000000000000000000000000",
            "receiptTrie" : "0x56e81f171bcc55a6ff8345e692c0f86e5b48e01b996cadc001622fb5e363b421",
            "stateRoot" : "0x684640c2d4a98fb35e11b87239e0acead93cb19ff61236ba521875a7d0264cb7",
            "timestamp" : "0x00",
            "transactionsTrie" : "0x56e81f171bcc55a6ff8345e692c0f86e5b48e01b996cadc001622fb5e363b421",
            "uncleHash" : "0x1dcc4de8dec75d7aab85b567b6ccd41ad312451b948a7413f0a142fd40d49347",
            "baseFee" : "0x0b"
        },
        "pre" : {
            "0x095e7baea6a6c7c4c2dfeb977efac326af552d87" : {
                "balance" : "0x01312d00",
                "code" : "0x7fffffffffffffffffffffffffffffffffffffffffffffffffffffffffffffffff60005260206000620f4240600060006002610258f160025560005160005500",
                "nonce" : "0x00",
                "storage" : {
                }
            },
            "0xa94f5374fce5edbc8e2a8697c15331677e6ebf0b" : {
                "balance" : "0x0de0b6b3a7640000",
                "code" : "0x",
                "nonce" : "0x00",
                "storage" : {
                }
            }
        },
        "postState" : {
            "0x095e7baea6a6c7c4c2dfeb977efac326af552d87" : {
                "code" : "0x7fffffffffffffffffffffffffffffffffffffffffffffffffffffffffffffffff60005260206000620f4240600060006002610258f160025560005160005500",
                "nonce" : "0x00",
                "balance" : "0x0132b3a0",
                "storage" : {
                    "0x00" : "0xffffffffffffffffffffffffffffffffffffffffffffffffffffffffffffffff"
                }
            },
            "0x2adc25665018aa1fe0e6bc666dac8fc2697ff9ba" : {
                "code" : "0x",
                "nonce" : "0x00",
                "balance" : "0x1bc16d674ec80000",
                "storage" : {
                }
            },
            "0xa94f5374fce5edbc8e2a8697c15331677e6ebf0b" : {
                "code" : "0x",
                "nonce" : "0x01",
                "balance" : "0x0de0b6b3a62a1af8",
                "storage" : {
                }
            }
        },
        "network" : "London",
        "sealEngine" : "NoProof",
        "lastblockhash" : "0x4c98116189a303e0d3ef69e6e68bb97696b9d385dfd981b1e56bca01e290ed39",
        "genesisRLP" : "0xf901faf901f5a00000000000000000000000000000000000000000000000000000000000000000a01dcc4de8dec75d7aab85b567b6ccd41ad312451b948a7413f0a142fd40d49347942adc25665018aa1fe0e6bc666dac8fc2697ff9baa0684640c2d4a98fb35e11b87239e0acead93cb19ff61236ba521875a7d0264cb7a056e81f171bcc55a6ff8345e692c0f86e5b48e01b996cadc001622fb5e363b421a056e81f171bcc55a6ff8345e692c0f86e5b48e01b996cadc001622fb5e363b421b901000000000000000000000000000000000000000000000000000000000000000000000000000000000000000000000000000000000000000000000000000000000000000000000000000000000000000000000000000000000000000000000000000000000000000000000000000000000000000000000000000000000000000000000000000000000000000000000000000000000000000000000000000000000000000000000000000000000000000000000000000000000000000000000000000000000000000000000000000000000000000000000000000000000000000000000000000000000000000000000000000000000000000000000000000000000083020000808405f5e100808000a000000000000000000000000000000000000000000000000000000000000000008800000000000000000bc0c0",
        "blocks" : [
            {
                "rlp" : "0xf90265f901faa006ed86c0ca5d828bdcc598ad807cf1248948748eb70c9b7c45823086d0543dbca01dcc4de8dec75d7aab85b567b6ccd41ad312451b948a7413f0a142fd40d49347942adc25665018aa1fe0e6bc666dac8fc2697ff9baa05d69122b1ce187f82ca60fc667e9751d23db40be4e52e7b7ae3f49f73ea771f7a046e9f30cc5abf21aad78da8edc5bb7a13b446211bcca2bd0e1779e7a152a925da094ba4173bc573a4c7cddc47b8445b5132074103c7c28e158ebf464c7d5f91577b901000000000000000000000000000000000000000000000000000000000000000000000000000000000000000000000000000000000000000000000000000000000000000000000000000000000000000000000000000000000000000000000000000000000000000000000000000000000000000000000000000000000000000000000000000000000000000000000000000000000000000000000000000000000000000000000000000000000000000000000000000000000000000000000000000000000000000000000000000000000000000000000000000000000000000000000000000000000000000000000000000000000000000000000000000000000083020000018405f5e100831f3ca48203e800a000000000000000000000000000000000000000000000000000000000000000008800000000000000000af865f863800a8398968094095e7baea6a6c7c4c2dfeb977efac326af552d87830186a0801ca0cd6a25a21d686e596c26423ec16cd165f89b4a68ccba98478c740b0db7ce8773a069934f81a17f0b0f3c468c6bdb27ae93876ee94810875d9de367b1f5ae784c04c0",
                "blockHeader" : {
                    "bloom" : "0x00000000000000000000000000000000000000000000000000000000000000000000000000000000000000000000000000000000000000000000000000000000000000000000000000000000000000000000000000000000000000000000000000000000000000000000000000000000000000000000000000000000000000000000000000000000000000000000000000000000000000000000000000000000000000000000000000000000000000000000000000000000000000000000000000000000000000000000000000000000000000000000000000000000000000000000000000000000000000000000000000000000000000000000000000000000",
                    "coinbase" : "0x2adc25665018aa1fe0e6bc666dac8fc2697ff9ba",
                    "difficulty" : "0x020000",
                    "extraData" : "0x00",
                    "gasLimit" : "0x05f5e100",
                    "gasUsed" : "0x1f3ca4",
                    "hash" : "0x4c98116189a303e0d3ef69e6e68bb97696b9d385dfd981b1e56bca01e290ed39",
                    "mixHash" : "0x0000000000000000000000000000000000000000000000000000000000000000",
                    "nonce" : "0x0000000000000000",
                    "number" : "0x01",
                    "parentHash" : "0x06ed86c0ca5d828bdcc598ad807cf1248948748eb70c9b7c45823086d0543dbc",
                    "receiptTrie" : "0x94ba4173bc573a4c7cddc47b8445b5132074103c7c28e158ebf464c7d5f91577",
                    "stateRoot" : "0x5d69122b1ce187f82ca60fc667e9751d23db40be4e52e7b7ae3f49f73ea771f7",
                    "timestamp" : "0x03e8",
                    "transactionsTrie" : "0x46e9f30cc5abf21aad78da8edc5bb7a13b446211bcca2bd0e1779e7a152a925d",
                    "uncleHash" : "0x1dcc4de8dec75d7aab85b567b6ccd41ad312451b948a7413f0a142fd40d49347",
                    "baseFee" : "0x0a"
                },
                "transactions" : [
                    {
                        "data" : "0x",
                        "gasLimit" : "0x989680",
                        "gasPrice" : "0x0a",
                        "nonce" : "0x00",
                        "to" : "0x095e7baea6a6c7c4c2dfeb977efac326af552d87",
                        "value" : "0x0186a0",
                        "v" : "0x1c",
                        "r" : "0xcd6a25a21d686e596c26423ec16cd165f89b4a68ccba98478c740b0db7ce8773",
                        "s" : "0x69934f81a17f0b0f3c468c6bdb27ae93876ee94810875d9de367b1f5ae784c04"
                    }
                ],
                "uncleHeaders" : [
                ]
            }
        ]
    }
}