{
    "callcodeDynamicCode" : {
        "_info" : {
            "comment" : "callcode to a contract that is being created in the same transaction",
            "filling-rpc-server" : "evm version 1.10.4-unstable-966ee3ae-20210528",
            "filling-tool-version" : "retesteth-0.1.1-eip1559+commit.658fc3a8.Linux.g++",
            "lllcversion" : "Version: 0.5.14-develop.2021.5.18+commit.14c9d5de.mod.Linux.g++",
            "source" : "src/GeneralStateTestsFiller/stCallCodes/callcodeDynamicCodeFiller.json",
            "sourceHash" : "9f8865b2689cdd320ba257083fb6aa9a2a00e43a56982cf74d631df956fe9a7b"
        },
        "env" : {
            "currentCoinbase" : "0x2adc25665018aa1fe0e6bc666dac8fc2697ff9ba",
            "currentDifficulty" : "0x020000",
            "currentNumber" : "0x01",
            "currentTimestamp" : "0x03e8",
            "previousHash" : "0x5e20a0453cecd065ea59c37ac63e079ee08998b6045136a8ce6635c7912ec0b6",
            "currentGasLimit" : "0x0f4240"
        },
        "post" : {
            "Berlin" : [
                {
                    "indexes" : {
                        "data" : 0,
                        "gas" : 0,
                        "value" : 0
                    },
                    "hash" : "0x858dc9a9c3b60b4dfcedf2938223ab830885fa2937798b34b5d46c1940d33ea9",
                    "txbytes" : "0xf880800a830f424094110000000000000000000000000000000000000080a000000000000000000000000010000000000000000000000000000000000000001ca0ca78c6aeceba1c80b3c5904c35b296f162da6e954108ed3b0850dbbd1eba4349a06691b8ca833ecef464101a63e9710d881bc488dd2aebd813eb32c54900b02bfc",
                    "logs" : "0x1dcc4de8dec75d7aab85b567b6ccd41ad312451b948a7413f0a142fd40d49347"
                },
                {
                    "indexes" : {
                        "data" : 1,
                        "gas" : 0,
                        "value" : 0
                    },
                    "hash" : "0x4c3deddfdb91835f90e4473c72d006810da3aa4c579011275499e87c4ae4b199",
                    "txbytes" : "0xf880800a830f424094110000000000000000000000000000000000000080a000000000000000000000000020000000000000000000000000000000000000001ba0f7974705a787c5f412c26b5774972b33e1e9eebe96f758308a0bf87d00530341a04adf51bcbf3ae243e677603067518d772153750ce235d25d149cd6b035b8b1b0",
                    "logs" : "0x1dcc4de8dec75d7aab85b567b6ccd41ad312451b948a7413f0a142fd40d49347"
                },
                {
                    "indexes" : {
                        "data" : 2,
                        "gas" : 0,
                        "value" : 0
                    },
                    "hash" : "0x94377342635b59ee522ff318a74dd7c2c200dee095e729d366a5ebdc75ff642b",
                    "txbytes" : "0xf880800a830f424094110000000000000000000000000000000000000080a000000000000000000000000030000000000000000000000000000000000000001ba0e61980e65c6074e6924988df3a1d6a1ec807f44b5e00ca76a3f36be3af84cf4fa0319ceca19c2d7fa691c8272c09a791493485c0d535cf4cef97e0f528768e4b62",
                    "logs" : "0x1dcc4de8dec75d7aab85b567b6ccd41ad312451b948a7413f0a142fd40d49347"
                },
                {
                    "indexes" : {
                        "data" : 3,
                        "gas" : 0,
                        "value" : 0
                    },
                    "hash" : "0x8aa5c744d4c9c104e8164641916fa783968ddeee6e182014b4b72e207616283e",
                    "txbytes" : "0xf880800a830f424094110000000000000000000000000000000000000080a000000000000000000000000040000000000000000000000000000000000000001ca02e93caef46930ef045b9fdc33c740f81b8a89b5785c404ad06f5da88d3dcd7eda01b2f38a179816fbb83c8ffab82e333edebd634e1d646304f93497c266c231eff",
                    "logs" : "0x1dcc4de8dec75d7aab85b567b6ccd41ad312451b948a7413f0a142fd40d49347"
                }
            ],
            "Istanbul" : [
                {
                    "indexes" : {
                        "data" : 0,
                        "gas" : 0,
                        "value" : 0
                    },
                    "hash" : "0x6158d5bdf7eba8a456dc05d7febf7de11ab8c94b0b4f0faedf69f50d3ee2502e",
                    "txbytes" : "0xf880800a830f424094110000000000000000000000000000000000000080a000000000000000000000000010000000000000000000000000000000000000001ca0ca78c6aeceba1c80b3c5904c35b296f162da6e954108ed3b0850dbbd1eba4349a06691b8ca833ecef464101a63e9710d881bc488dd2aebd813eb32c54900b02bfc",
                    "logs" : "0x1dcc4de8dec75d7aab85b567b6ccd41ad312451b948a7413f0a142fd40d49347"
                },
                {
                    "indexes" : {
                        "data" : 1,
                        "gas" : 0,
                        "value" : 0
                    },
                    "hash" : "0x24618dcfb2ad2cc2d42523486dab845185064e666f82e6d294601d3b26305ec7",
                    "txbytes" : "0xf880800a830f424094110000000000000000000000000000000000000080a000000000000000000000000020000000000000000000000000000000000000001ba0f7974705a787c5f412c26b5774972b33e1e9eebe96f758308a0bf87d00530341a04adf51bcbf3ae243e677603067518d772153750ce235d25d149cd6b035b8b1b0",
                    "logs" : "0x1dcc4de8dec75d7aab85b567b6ccd41ad312451b948a7413f0a142fd40d49347"
                },
                {
                    "indexes" : {
                        "data" : 2,
                        "gas" : 0,
                        "value" : 0
                    },
                    "hash" : "0x991b2f81cd0512aca671efb32a287e54b043dbbe8841400071b28502c96e22d7",
                    "txbytes" : "0xf880800a830f424094110000000000000000000000000000000000000080a000000000000000000000000030000000000000000000000000000000000000001ba0e61980e65c6074e6924988df3a1d6a1ec807f44b5e00ca76a3f36be3af84cf4fa0319ceca19c2d7fa691c8272c09a791493485c0d535cf4cef97e0f528768e4b62",
                    "logs" : "0x1dcc4de8dec75d7aab85b567b6ccd41ad312451b948a7413f0a142fd40d49347"
                },
                {
                    "indexes" : {
                        "data" : 3,
                        "gas" : 0,
                        "value" : 0
                    },
                    "hash" : "0xec1ebb6e7ae14f66232d94555a70ef63dd090271ad022a7ba9740e8fc3ef9249",
                    "txbytes" : "0xf880800a830f424094110000000000000000000000000000000000000080a000000000000000000000000040000000000000000000000000000000000000001ca02e93caef46930ef045b9fdc33c740f81b8a89b5785c404ad06f5da88d3dcd7eda01b2f38a179816fbb83c8ffab82e333edebd634e1d646304f93497c266c231eff",
                    "logs" : "0x1dcc4de8dec75d7aab85b567b6ccd41ad312451b948a7413f0a142fd40d49347"
                }
            ],
            "London" : [
                {
                    "indexes" : {
                        "data" : 0,
                        "gas" : 0,
                        "value" : 0
                    },
                    "hash" : "0x9756eb1458121dfb5d155aaf4d266aff193591b750e06e9557b345da1b479620",
                    "txbytes" : "0xf880800a830f424094110000000000000000000000000000000000000080a000000000000000000000000010000000000000000000000000000000000000001ca0ca78c6aeceba1c80b3c5904c35b296f162da6e954108ed3b0850dbbd1eba4349a06691b8ca833ecef464101a63e9710d881bc488dd2aebd813eb32c54900b02bfc",
                    "logs" : "0x1dcc4de8dec75d7aab85b567b6ccd41ad312451b948a7413f0a142fd40d49347"
                },
                {
                    "indexes" : {
                        "data" : 1,
                        "gas" : 0,
                        "value" : 0
                    },
                    "hash" : "0x799b42f220dcbd8adfe773cbc8dcdea19d776f201111d97b6bbb03be85b555c9",
                    "txbytes" : "0xf880800a830f424094110000000000000000000000000000000000000080a000000000000000000000000020000000000000000000000000000000000000001ba0f7974705a787c5f412c26b5774972b33e1e9eebe96f758308a0bf87d00530341a04adf51bcbf3ae243e677603067518d772153750ce235d25d149cd6b035b8b1b0",
                    "logs" : "0x1dcc4de8dec75d7aab85b567b6ccd41ad312451b948a7413f0a142fd40d49347"
                },
                {
                    "indexes" : {
                        "data" : 2,
                        "gas" : 0,
                        "value" : 0
                    },
                    "hash" : "0xcbf22e9e766b6a32af9587a6602e81ff25ca4aac838e1b55635cdb06257b8fad",
                    "txbytes" : "0xf880800a830f424094110000000000000000000000000000000000000080a000000000000000000000000030000000000000000000000000000000000000001ba0e61980e65c6074e6924988df3a1d6a1ec807f44b5e00ca76a3f36be3af84cf4fa0319ceca19c2d7fa691c8272c09a791493485c0d535cf4cef97e0f528768e4b62",
                    "logs" : "0x1dcc4de8dec75d7aab85b567b6ccd41ad312451b948a7413f0a142fd40d49347"
                },
                {
                    "indexes" : {
                        "data" : 3,
                        "gas" : 0,
                        "value" : 0
                    },
                    "hash" : "0xca36ba52fa1e91370bd176d10e0f688dd27f7b05becbbf103a5ba42706893eef",
                    "txbytes" : "0xf880800a830f424094110000000000000000000000000000000000000080a000000000000000000000000040000000000000000000000000000000000000001ca02e93caef46930ef045b9fdc33c740f81b8a89b5785c404ad06f5da88d3dcd7eda01b2f38a179816fbb83c8ffab82e333edebd634e1d646304f93497c266c231eff",
                    "logs" : "0x1dcc4de8dec75d7aab85b567b6ccd41ad312451b948a7413f0a142fd40d49347"
                }
            ]
        },
        "pre" : {
            "0x1000000000000000000000000000000000000000" : {
                "balance" : "0x2710",
                "code" : "0x601f80602760003960006000f0600a5560406000604060006000600a54620186a0f2600b5500fe601280600d6000396000f300fe600160005530601455326015553360165500",
                "nonce" : "0x00",
                "storage" : {
                }
            },
            "0x1100000000000000000000000000000000000000" : {
                "balance" : "0x00",
                "code" : "0x60006000600060006000600035620c3500f100",
                "nonce" : "0x00",
                "storage" : {
                }
            },
            "0x2000000000000000000000000000000000000000" : {
                "balance" : "0x03e8",
                "code" : "0x6000601f80602960003960006000f5600a5560406000604060006000600a54620186a0f2600b5500fe601280600d6000396000f300fe600160005530601455326015553360165500",
                "nonce" : "0x00",
                "storage" : {
                }
            },
            "0x3000000000000000000000000000000000000000" : {
                "balance" : "0x2710",
                "code" : "0x604680600f60003960006000f000fe601f80602760003960006000f0600a5560406000604060006000600a54620186a0f2600b5500fe601280600d6000396000f300fe600160005530601455326015553360165500",
                "nonce" : "0x00",
                "storage" : {
                }
            },
            "0x4000000000000000000000000000000000000000" : {
                "balance" : "0x2710",
                "code" : "0x604880600f60003960006000f000fe6000601f80602960003960006000f5600a5560406000604060006000600a54620186a0f2600b5500fe601280600d6000396000f300fe600160005530601455326015553360165500",
                "nonce" : "0x00",
                "storage" : {
                }
            },
            "0xa94f5374fce5edbc8e2a8697c15331677e6ebf0b" : {
                "balance" : "0x2386f26fc10000",
                "code" : "0x",
                "nonce" : "0x00",
                "storage" : {
                }
            }
        },
        "transaction" : {
            "data" : [
                "0x0000000000000000000000001000000000000000000000000000000000000000",
                "0x0000000000000000000000002000000000000000000000000000000000000000",
                "0x0000000000000000000000003000000000000000000000000000000000000000",
                "0x0000000000000000000000004000000000000000000000000000000000000000"
            ],
            "gasPrice" : "0x0a",
            "gasLimit" : [
                "0x0f4240"
            ],
            "nonce" : "0x00",
            "secretKey" : "0x45a915e4d060149eb4365960e6a7a45f334393093061116b197e3240065ff2d8",
            "to" : "0x1100000000000000000000000000000000000000",
            "value" : [
                "0x00"
            ]
        }
    }
}