{
    "callcodeEmptycontract" : {
        "_info" : {
            "comment" : "",
            "filling-rpc-server" : "evm version 1.10.4-unstable-966ee3ae-20210528",
            "filling-tool-version" : "retesteth-0.1.1-eip1559+commit.658fc3a8.Linux.g++",
            "lllcversion" : "Version: 0.5.14-develop.2021.5.18+commit.14c9d5de.mod.Linux.g++",
            "source" : "src/GeneralStateTestsFiller/stCallCodes/callcodeEmptycontractFiller.json",
            "sourceHash" : "16bf8b6555133add8388cfd3343e2ddc417eda53a1c28bd8df5236631d586b2b"
        },
        "env" : {
            "currentCoinbase" : "0x2adc25665018aa1fe0e6bc666dac8fc2697ff9ba",
            "currentDifficulty" : "0x020000",
            "currentNumber" : "0x01",
            "currentTimestamp" : "0x03e8",
            "previousHash" : "0x5e20a0453cecd065ea59c37ac63e079ee08998b6045136a8ce6635c7912ec0b6",
            "currentGasLimit" : "0x989680"
        },
        "post" : {
            "Berlin" : [
                {
                    "indexes" : {
                        "data" : 0,
                        "gas" : 0,
                        "value" : 0
                    },
                    "hash" : "0x53e23d5718e16abd741936cadfb2680b3cfc22e682a90846dc79921e309c316e",
                    "txbytes" : "0xf860800a8310074894100000000000000000000000000000000000000080801ca007cbbe409147df9be7005ca95f2caef2b64b8b7945a7f25b8aaff8c8847e8751a0195fc2725e62cdac1fc79a78d4769c5b3782d2ac2780d3443fd9c58ccacda7b2",
                    "logs" : "0x1dcc4de8dec75d7aab85b567b6ccd41ad312451b948a7413f0a142fd40d49347"
                }
            ],
            "Istanbul" : [
                {
                    "indexes" : {
                        "data" : 0,
                        "gas" : 0,
                        "value" : 0
                    },
                    "hash" : "0x3c2ff3a9ba38a8f8caeba533cb1387558354f107270f4d9b0b9ae368cb82f812",
                    "txbytes" : "0xf860800a8310074894100000000000000000000000000000000000000080801ca007cbbe409147df9be7005ca95f2caef2b64b8b7945a7f25b8aaff8c8847e8751a0195fc2725e62cdac1fc79a78d4769c5b3782d2ac2780d3443fd9c58ccacda7b2",
                    "logs" : "0x1dcc4de8dec75d7aab85b567b6ccd41ad312451b948a7413f0a142fd40d49347"
                }
            ],
            "London" : [
                {
                    "indexes" : {
                        "data" : 0,
                        "gas" : 0,
                        "value" : 0
                    },
                    "hash" : "0xa4143a2e32ab2411eea2fb3a6be3932deb33178c833a483cb636ea0f5bb7323d",
                    "txbytes" : "0xf860800a8310074894100000000000000000000000000000000000000080801ca007cbbe409147df9be7005ca95f2caef2b64b8b7945a7f25b8aaff8c8847e8751a0195fc2725e62cdac1fc79a78d4769c5b3782d2ac2780d3443fd9c58ccacda7b2",
                    "logs" : "0x1dcc4de8dec75d7aab85b567b6ccd41ad312451b948a7413f0a142fd40d49347"
                }
            ]
        },
        "pre" : {
            "0x1000000000000000000000000000000000000000" : {
                "balance" : "0x03e8",
                "code" : "0x60406000604060006103e873945304eb96065b2a98b57a48a06ae28d285a71b561c350f260005500",
                "nonce" : "0x00",
                "storage" : {
                }
            },
            "0xa94f5374fce5edbc8e2a8697c15331677e6ebf0b" : {
                "balance" : "0x05f5e100",
                "code" : "0x",
                "nonce" : "0x00",
                "storage" : {
                }
            }
        },
        "transaction" : {
            "data" : [
                "0x"
            ],
            "gasPrice" : "0x0a",
            "gasLimit" : [
                "0x100748"
            ],
            "nonce" : "0x00",
            "secretKey" : "0x45a915e4d060149eb4365960e6a7a45f334393093061116b197e3240065ff2d8",
            "to" : "0x1000000000000000000000000000000000000000",
            "value" : [
                "0x00"
            ]
        }
    }
}