{
    "randomStatetest434BC_Berlin" : {
        "_info" : {
            "comment" : "",
            "filling-rpc-server" : "evm version 1.10.4-unstable-966ee3ae-20210528",
            "filling-tool-version" : "retesteth-0.1.1-eip1559+commit.658fc3a8.Linux.g++",
            "lllcversion" : "Version: 0.5.14-develop.2021.5.18+commit.14c9d5de.mod.Linux.g++",
            "source" : "src/BlockchainTestsFiller/ValidBlocks/bcRandomBlockhashTest/randomStatetest434BCFiller.json",
            "sourceHash" : "480ec3a93fa1eb8d7de57d8965e844dfe6a833c572a1a1ea6c89d4d44d3c3970"
        },
        "sealEngine" : "NoProof",
        "network" : "Berlin",
        "pre" : {
            "0x095e7baea6a6c7c4c2dfeb977efac326af552d87" : {
                "balance" : "0x00",
                "code" : "0x7f00000000000000000000000000000000000000000000000000000000000000017f000000000000000000000000ffffffffffffffffffffffffffffffffffffffff7f000000000000000000000000000000000000000000000000000000000000c350407ffffffffffffffffffffffffffffffffffffffffffffffffffffffffffffffffe7f00000000000000000000000100000000000000000000000000000000000000007e7f000000000000000000000000945304eb96065b2a98b57a48a06ae28d285a71b5f30264613617a2975a6857606f5560005155",
                "nonce" : "0x00",
                "storage" : {
                }
            },
            "0x945304eb96065b2a98b57a48a06ae28d285a71b5" : {
                "balance" : "0x2e",
                "code" : "0x6000355415600957005b60203560003555",
                "nonce" : "0x00",
                "storage" : {
                }
            },
            "0xa94f5374fce5edbc8e2a8697c15331677e6ebf0b" : {
                "balance" : "0x0de0b6b3a7640000",
                "code" : "0x",
                "nonce" : "0x00",
                "storage" : {
                }
            }
        },
        "genesisBlockHeader" : {
            "bloom" : "0x00000000000000000000000000000000000000000000000000000000000000000000000000000000000000000000000000000000000000000000000000000000000000000000000000000000000000000000000000000000000000000000000000000000000000000000000000000000000000000000000000000000000000000000000000000000000000000000000000000000000000000000000000000000000000000000000000000000000000000000000000000000000000000000000000000000000000000000000000000000000000000000000000000000000000000000000000000000000000000000000000000000000000000000000000000000",
            "coinbase" : "0x945304eb96065b2a98b57a48a06ae28d285a71b5",
            "difficulty" : "0x020000",
            "extraData" : "0x42",
            "gasLimit" : "0x7fffffffffffffff",
            "gasUsed" : "0x00",
            "hash" : "0xb6acaa19b766055664b03486ec1cf298fb2a9ae0b0040c63ea9b73331c721c7f",
            "mixHash" : "0x0000000000000000000000000000000000000000000000000000000000000000",
            "nonce" : "0x0000000000000000",
            "number" : "0x00",
            "parentHash" : "0x0000000000000000000000000000000000000000000000000000000000000000",
            "receiptTrie" : "0x56e81f171bcc55a6ff8345e692c0f86e5b48e01b996cadc001622fb5e363b421",
            "stateRoot" : "0x7f172197846bc31d838420b2216439233ffba142cd6d1233981e106036b5fcef",
            "timestamp" : "0x03b6",
            "transactionsTrie" : "0x56e81f171bcc55a6ff8345e692c0f86e5b48e01b996cadc001622fb5e363b421",
            "uncleHash" : "0x1dcc4de8dec75d7aab85b567b6ccd41ad312451b948a7413f0a142fd40d49347"
        },
        "genesisRLP" : "0xf901fff901faa00000000000000000000000000000000000000000000000000000000000000000a01dcc4de8dec75d7aab85b567b6ccd41ad312451b948a7413f0a142fd40d4934794945304eb96065b2a98b57a48a06ae28d285a71b5a07f172197846bc31d838420b2216439233ffba142cd6d1233981e106036b5fcefa056e81f171bcc55a6ff8345e692c0f86e5b48e01b996cadc001622fb5e363b421a056e81f171bcc55a6ff8345e692c0f86e5b48e01b996cadc001622fb5e363b421b90100000000000000000000000000000000000000000000000000000000000000000000000000000000000000000000000000000000000000000000000000000000000000000000000000000000000000000000000000000000000000000000000000000000000000000000000000000000000000000000000000000000000000000000000000000000000000000000000000000000000000000000000000000000000000000000000000000000000000000000000000000000000000000000000000000000000000000000000000000000000000000000000000000000000000000000000000000000000000000000000000000000000000000000000000000000008302000080887fffffffffffffff808203b642a00000000000000000000000000000000000000000000000000000000000000000880000000000000000c0c0",
        "blocks" : [
            {
                "chainname" : "default",
                "blocknumber" : "1",
                "uncleHeaders" : [
                ],
                "blockHeader" : {
                    "bloom" : "0x00000000000000000000000000000000000000000000000000000000000000000000000000000000000000000000000000000000000000000000000000000000000000000000000000000000000000000000000000000000000000000000000000000000000000000000000000000000000000000000000000000000000000000000000000000000000000000000000000000000000000000000000000000000000000000000000000000000000000000000000000000000000000000000000000000000000000000000000000000000000000000000000000000000000000000000000000000000000000000000000000000000000000000000000000000000",
                    "coinbase" : "0x945304eb96065b2a98b57a48a06ae28d285a71b5",
                    "difficulty" : "0x020000",
                    "extraData" : "0x42",
                    "gasLimit" : "0x7fffffffffffffff",
                    "gasUsed" : "0xb075",
                    "hash" : "0x45e0923bd8a88293b87ade4db0085da40628d751e384862f5b3d2513f2c9889b",
                    "mixHash" : "0x0000000000000000000000000000000000000000000000000000000000000000",
                    "nonce" : "0x0000000000000000",
                    "number" : "0x01",
                    "parentHash" : "0xb6acaa19b766055664b03486ec1cf298fb2a9ae0b0040c63ea9b73331c721c7f",
                    "receiptTrie" : "0x7dc2af26a26bb54f3165d124ea0c3c73595ef1aaa98f815fac28382298724a20",
                    "stateRoot" : "0x96aa4a941bdf6eb1d583801df42e3be086e83b2c5652d83749fe11f88c9f54c1",
                    "timestamp" : "0x03e8",
                    "transactionsTrie" : "0x10cd4cc11e396e9939ed4c46f6a91d5d048ade35335eb7baba7012f3175db0ac",
                    "uncleHash" : "0x1dcc4de8dec75d7aab85b567b6ccd41ad312451b948a7413f0a142fd40d49347"
                },
                "transactions" : [
                    {
                        "data" : "0x7f00000000000000000000000000000000000000000000000000000000000000017f000000000000000000000000ffffffffffffffffffffffffffffffffffffffff7f000000000000000000000000000000000000000000000000000000000000c350407ffffffffffffffffffffffffffffffffffffffffffffffffffffffffffffffffe7f00000000000000000000000100000000000000000000000000000000000000007e7f000000000000000000000000945304eb96065b2a98b57a48a06ae28d285a71b5f30264613617a2975a6857606f55",
                        "gasLimit" : "0x7178c094",
                        "gasPrice" : "0x03e8",
                        "nonce" : "0x00",
                        "r" : "0xe4e26027f12aea54d8fe6d90a499869c4e869ea698a5e412c7bfb37d5fb96666",
                        "s" : "0x334c0de78dab716cd105ed32bdd9cbfca9390663a0c9c18708a0c41519cfbfe0",
                        "to" : "0x095e7baea6a6c7c4c2dfeb977efac326af552d87",
                        "v" : "0x1c",
                        "value" : "0x3684af3d"
                    }
                ],
                "rlp" : "0xf90344f901fca0b6acaa19b766055664b03486ec1cf298fb2a9ae0b0040c63ea9b73331c721c7fa01dcc4de8dec75d7aab85b567b6ccd41ad312451b948a7413f0a142fd40d4934794945304eb96065b2a98b57a48a06ae28d285a71b5a096aa4a941bdf6eb1d583801df42e3be086e83b2c5652d83749fe11f88c9f54c1a010cd4cc11e396e9939ed4c46f6a91d5d048ade35335eb7baba7012f3175db0aca07dc2af26a26bb54f3165d124ea0c3c73595ef1aaa98f815fac28382298724a20b90100000000000000000000000000000000000000000000000000000000000000000000000000000000000000000000000000000000000000000000000000000000000000000000000000000000000000000000000000000000000000000000000000000000000000000000000000000000000000000000000000000000000000000000000000000000000000000000000000000000000000000000000000000000000000000000000000000000000000000000000000000000000000000000000000000000000000000000000000000000000000000000000000000000000000000000000000000000000000000000000000000000000000000000000000000000008302000001887fffffffffffffff82b0758203e842a00000000000000000000000000000000000000000000000000000000000000000880000000000000000f90141f9013e808203e8847178c09494095e7baea6a6c7c4c2dfeb977efac326af552d87843684af3db8d67f00000000000000000000000000000000000000000000000000000000000000017f000000000000000000000000ffffffffffffffffffffffffffffffffffffffff7f000000000000000000000000000000000000000000000000000000000000c350407ffffffffffffffffffffffffffffffffffffffffffffffffffffffffffffffffe7f00000000000000000000000100000000000000000000000000000000000000007e7f000000000000000000000000945304eb96065b2a98b57a48a06ae28d285a71b5f30264613617a2975a6857606f551ca0e4e26027f12aea54d8fe6d90a499869c4e869ea698a5e412c7bfb37d5fb96666a0334c0de78dab716cd105ed32bdd9cbfca9390663a0c9c18708a0c41519cfbfe0c0"
            }
        ],
        "postState" : {
            "0x095e7baea6a6c7c4c2dfeb977efac326af552d87" : {
                "code" : "0x7f00000000000000000000000000000000000000000000000000000000000000017f000000000000000000000000ffffffffffffffffffffffffffffffffffffffff7f000000000000000000000000000000000000000000000000000000000000c350407ffffffffffffffffffffffffffffffffffffffffffffffffffffffffffffffffe7f00000000000000000000000100000000000000000000000000000000000000007e7f000000000000000000000000945304eb96065b2a98b57a48a06ae28d285a71b5f30264613617a2975a6857606f5560005155",
                "nonce" : "0x00",
                "balance" : "0x3684af3d",
                "storage" : {
                    "0xb5f30264613617a2975a6857606f55600051" : "0x7f000000000000000000000000945304eb96065b2a98b57a48a06ae28d285a"
                }
            },
            "0x945304eb96065b2a98b57a48a06ae28d285a71b5" : {
                "code" : "0x6000355415600957005b60203560003555",
                "nonce" : "0x00",
                "balance" : "0x1bc16d6751794936",
                "storage" : {
                }
            },
            "0xa94f5374fce5edbc8e2a8697c15331677e6ebf0b" : {
                "code" : "0x",
                "nonce" : "0x01",
                "balance" : "0x0de0b6b36e2e07bb",
                "storage" : {
                }
            }
        },
        "lastblockhash" : "0x45e0923bd8a88293b87ade4db0085da40628d751e384862f5b3d2513f2c9889b"
    },
    "randomStatetest434BC_Istanbul" : {
        "_info" : {
            "comment" : "",
            "filling-rpc-server" : "evm version 1.10.4-unstable-966ee3ae-20210528",
            "filling-tool-version" : "retesteth-0.1.1-eip1559+commit.658fc3a8.Linux.g++",
            "lllcversion" : "Version: 0.5.14-develop.2021.5.18+commit.14c9d5de.mod.Linux.g++",
            "source" : "src/BlockchainTestsFiller/ValidBlocks/bcRandomBlockhashTest/randomStatetest434BCFiller.json",
            "sourceHash" : "480ec3a93fa1eb8d7de57d8965e844dfe6a833c572a1a1ea6c89d4d44d3c3970"
        },
        "sealEngine" : "NoProof",
        "network" : "Istanbul",
        "pre" : {
            "0x095e7baea6a6c7c4c2dfeb977efac326af552d87" : {
                "balance" : "0x00",
                "code" : "0x7f00000000000000000000000000000000000000000000000000000000000000017f000000000000000000000000ffffffffffffffffffffffffffffffffffffffff7f000000000000000000000000000000000000000000000000000000000000c350407ffffffffffffffffffffffffffffffffffffffffffffffffffffffffffffffffe7f00000000000000000000000100000000000000000000000000000000000000007e7f000000000000000000000000945304eb96065b2a98b57a48a06ae28d285a71b5f30264613617a2975a6857606f5560005155",
                "nonce" : "0x00",
                "storage" : {
                }
            },
            "0x945304eb96065b2a98b57a48a06ae28d285a71b5" : {
                "balance" : "0x2e",
                "code" : "0x6000355415600957005b60203560003555",
                "nonce" : "0x00",
                "storage" : {
                }
            },
            "0xa94f5374fce5edbc8e2a8697c15331677e6ebf0b" : {
                "balance" : "0x0de0b6b3a7640000",
                "code" : "0x",
                "nonce" : "0x00",
                "storage" : {
                }
            }
        },
        "genesisBlockHeader" : {
            "bloom" : "0x00000000000000000000000000000000000000000000000000000000000000000000000000000000000000000000000000000000000000000000000000000000000000000000000000000000000000000000000000000000000000000000000000000000000000000000000000000000000000000000000000000000000000000000000000000000000000000000000000000000000000000000000000000000000000000000000000000000000000000000000000000000000000000000000000000000000000000000000000000000000000000000000000000000000000000000000000000000000000000000000000000000000000000000000000000000",
            "coinbase" : "0x945304eb96065b2a98b57a48a06ae28d285a71b5",
            "difficulty" : "0x020000",
            "extraData" : "0x42",
            "gasLimit" : "0x7fffffffffffffff",
            "gasUsed" : "0x00",
            "hash" : "0xb6acaa19b766055664b03486ec1cf298fb2a9ae0b0040c63ea9b73331c721c7f",
            "mixHash" : "0x0000000000000000000000000000000000000000000000000000000000000000",
            "nonce" : "0x0000000000000000",
            "number" : "0x00",
            "parentHash" : "0x0000000000000000000000000000000000000000000000000000000000000000",
            "receiptTrie" : "0x56e81f171bcc55a6ff8345e692c0f86e5b48e01b996cadc001622fb5e363b421",
            "stateRoot" : "0x7f172197846bc31d838420b2216439233ffba142cd6d1233981e106036b5fcef",
            "timestamp" : "0x03b6",
            "transactionsTrie" : "0x56e81f171bcc55a6ff8345e692c0f86e5b48e01b996cadc001622fb5e363b421",
            "uncleHash" : "0x1dcc4de8dec75d7aab85b567b6ccd41ad312451b948a7413f0a142fd40d49347"
        },
        "genesisRLP" : "0xf901fff901faa00000000000000000000000000000000000000000000000000000000000000000a01dcc4de8dec75d7aab85b567b6ccd41ad312451b948a7413f0a142fd40d4934794945304eb96065b2a98b57a48a06ae28d285a71b5a07f172197846bc31d838420b2216439233ffba142cd6d1233981e106036b5fcefa056e81f171bcc55a6ff8345e692c0f86e5b48e01b996cadc001622fb5e363b421a056e81f171bcc55a6ff8345e692c0f86e5b48e01b996cadc001622fb5e363b421b90100000000000000000000000000000000000000000000000000000000000000000000000000000000000000000000000000000000000000000000000000000000000000000000000000000000000000000000000000000000000000000000000000000000000000000000000000000000000000000000000000000000000000000000000000000000000000000000000000000000000000000000000000000000000000000000000000000000000000000000000000000000000000000000000000000000000000000000000000000000000000000000000000000000000000000000000000000000000000000000000000000000000000000000000000000000008302000080887fffffffffffffff808203b642a00000000000000000000000000000000000000000000000000000000000000000880000000000000000c0c0",
        "blocks" : [
            {
                "chainname" : "default",
                "blocknumber" : "1",
                "uncleHeaders" : [
                ],
                "blockHeader" : {
                    "bloom" : "0x00000000000000000000000000000000000000000000000000000000000000000000000000000000000000000000000000000000000000000000000000000000000000000000000000000000000000000000000000000000000000000000000000000000000000000000000000000000000000000000000000000000000000000000000000000000000000000000000000000000000000000000000000000000000000000000000000000000000000000000000000000000000000000000000000000000000000000000000000000000000000000000000000000000000000000000000000000000000000000000000000000000000000000000000000000000",
                    "coinbase" : "0x945304eb96065b2a98b57a48a06ae28d285a71b5",
                    "difficulty" : "0x020000",
                    "extraData" : "0x42",
                    "gasLimit" : "0x7fffffffffffffff",
                    "gasUsed" : "0xa841",
                    "hash" : "0x7de33992179c57d0af4d432de712a88b11b05b3838ad915cc69c1464f1384f34",
                    "mixHash" : "0x0000000000000000000000000000000000000000000000000000000000000000",
                    "nonce" : "0x0000000000000000",
                    "number" : "0x01",
                    "parentHash" : "0xb6acaa19b766055664b03486ec1cf298fb2a9ae0b0040c63ea9b73331c721c7f",
                    "receiptTrie" : "0x60e839eda158061f045101f52bd529beae726db3ac38cfa984d02afa7b70d6f7",
                    "stateRoot" : "0x238a2669d34fbf133ddfd8d1d944f978a3d3e40a08ae53308cd6d4152e2df95b",
                    "timestamp" : "0x03e8",
                    "transactionsTrie" : "0x10cd4cc11e396e9939ed4c46f6a91d5d048ade35335eb7baba7012f3175db0ac",
                    "uncleHash" : "0x1dcc4de8dec75d7aab85b567b6ccd41ad312451b948a7413f0a142fd40d49347"
                },
                "transactions" : [
                    {
                        "data" : "0x7f00000000000000000000000000000000000000000000000000000000000000017f000000000000000000000000ffffffffffffffffffffffffffffffffffffffff7f000000000000000000000000000000000000000000000000000000000000c350407ffffffffffffffffffffffffffffffffffffffffffffffffffffffffffffffffe7f00000000000000000000000100000000000000000000000000000000000000007e7f000000000000000000000000945304eb96065b2a98b57a48a06ae28d285a71b5f30264613617a2975a6857606f55",
                        "gasLimit" : "0x7178c094",
                        "gasPrice" : "0x03e8",
                        "nonce" : "0x00",
                        "r" : "0xe4e26027f12aea54d8fe6d90a499869c4e869ea698a5e412c7bfb37d5fb96666",
                        "s" : "0x334c0de78dab716cd105ed32bdd9cbfca9390663a0c9c18708a0c41519cfbfe0",
                        "to" : "0x095e7baea6a6c7c4c2dfeb977efac326af552d87",
                        "v" : "0x1c",
                        "value" : "0x3684af3d"
                    }
                ],
                "rlp" : "0xf90344f901fca0b6acaa19b766055664b03486ec1cf298fb2a9ae0b0040c63ea9b73331c721c7fa01dcc4de8dec75d7aab85b567b6ccd41ad312451b948a7413f0a142fd40d4934794945304eb96065b2a98b57a48a06ae28d285a71b5a0238a2669d34fbf133ddfd8d1d944f978a3d3e40a08ae53308cd6d4152e2df95ba010cd4cc11e396e9939ed4c46f6a91d5d048ade35335eb7baba7012f3175db0aca060e839eda158061f045101f52bd529beae726db3ac38cfa984d02afa7b70d6f7b90100000000000000000000000000000000000000000000000000000000000000000000000000000000000000000000000000000000000000000000000000000000000000000000000000000000000000000000000000000000000000000000000000000000000000000000000000000000000000000000000000000000000000000000000000000000000000000000000000000000000000000000000000000000000000000000000000000000000000000000000000000000000000000000000000000000000000000000000000000000000000000000000000000000000000000000000000000000000000000000000000000000000000000000000000000000008302000001887fffffffffffffff82a8418203e842a00000000000000000000000000000000000000000000000000000000000000000880000000000000000f90141f9013e808203e8847178c09494095e7baea6a6c7c4c2dfeb977efac326af552d87843684af3db8d67f00000000000000000000000000000000000000000000000000000000000000017f000000000000000000000000ffffffffffffffffffffffffffffffffffffffff7f000000000000000000000000000000000000000000000000000000000000c350407ffffffffffffffffffffffffffffffffffffffffffffffffffffffffffffffffe7f00000000000000000000000100000000000000000000000000000000000000007e7f000000000000000000000000945304eb96065b2a98b57a48a06ae28d285a71b5f30264613617a2975a6857606f551ca0e4e26027f12aea54d8fe6d90a499869c4e869ea698a5e412c7bfb37d5fb96666a0334c0de78dab716cd105ed32bdd9cbfca9390663a0c9c18708a0c41519cfbfe0c0"
            }
        ],
        "postState" : {
            "0x095e7baea6a6c7c4c2dfeb977efac326af552d87" : {
                "code" : "0x7f00000000000000000000000000000000000000000000000000000000000000017f000000000000000000000000ffffffffffffffffffffffffffffffffffffffff7f000000000000000000000000000000000000000000000000000000000000c350407ffffffffffffffffffffffffffffffffffffffffffffffffffffffffffffffffe7f00000000000000000000000100000000000000000000000000000000000000007e7f000000000000000000000000945304eb96065b2a98b57a48a06ae28d285a71b5f30264613617a2975a6857606f5560005155",
                "nonce" : "0x00",
                "balance" : "0x3684af3d",
                "storage" : {
                    "0xb5f30264613617a2975a6857606f55600051" : "0x7f000000000000000000000000945304eb96065b2a98b57a48a06ae28d285a"
                }
            },
            "0x945304eb96065b2a98b57a48a06ae28d285a71b5" : {
                "code" : "0x6000355415600957005b60203560003555",
                "nonce" : "0x00",
                "balance" : "0x1bc16d6751593e16",
                "storage" : {
                }
            },
            "0xa94f5374fce5edbc8e2a8697c15331677e6ebf0b" : {
                "code" : "0x",
                "nonce" : "0x01",
                "balance" : "0x0de0b6b36e4e12db",
                "storage" : {
                }
            }
        },
        "lastblockhash" : "0x7de33992179c57d0af4d432de712a88b11b05b3838ad915cc69c1464f1384f34"
    },
    "randomStatetest434BC_London" : {
        "_info" : {
            "comment" : "",
            "filling-rpc-server" : "evm version 1.10.4-unstable-966ee3ae-20210528",
            "filling-tool-version" : "retesteth-0.1.1-eip1559+commit.658fc3a8.Linux.g++",
            "lllcversion" : "Version: 0.5.14-develop.2021.5.18+commit.14c9d5de.mod.Linux.g++",
            "source" : "src/BlockchainTestsFiller/ValidBlocks/bcRandomBlockhashTest/randomStatetest434BCFiller.json",
            "sourceHash" : "480ec3a93fa1eb8d7de57d8965e844dfe6a833c572a1a1ea6c89d4d44d3c3970"
        },
        "sealEngine" : "NoProof",
        "network" : "London",
        "pre" : {
            "0x095e7baea6a6c7c4c2dfeb977efac326af552d87" : {
                "balance" : "0x00",
                "code" : "0x7f00000000000000000000000000000000000000000000000000000000000000017f000000000000000000000000ffffffffffffffffffffffffffffffffffffffff7f000000000000000000000000000000000000000000000000000000000000c350407ffffffffffffffffffffffffffffffffffffffffffffffffffffffffffffffffe7f00000000000000000000000100000000000000000000000000000000000000007e7f000000000000000000000000945304eb96065b2a98b57a48a06ae28d285a71b5f30264613617a2975a6857606f5560005155",
                "nonce" : "0x00",
                "storage" : {
                }
            },
            "0x945304eb96065b2a98b57a48a06ae28d285a71b5" : {
                "balance" : "0x2e",
                "code" : "0x6000355415600957005b60203560003555",
                "nonce" : "0x00",
                "storage" : {
                }
            },
            "0xa94f5374fce5edbc8e2a8697c15331677e6ebf0b" : {
                "balance" : "0x0de0b6b3a7640000",
                "code" : "0x",
                "nonce" : "0x00",
                "storage" : {
                }
            }
        },
        "genesisBlockHeader" : {
            "bloom" : "0x00000000000000000000000000000000000000000000000000000000000000000000000000000000000000000000000000000000000000000000000000000000000000000000000000000000000000000000000000000000000000000000000000000000000000000000000000000000000000000000000000000000000000000000000000000000000000000000000000000000000000000000000000000000000000000000000000000000000000000000000000000000000000000000000000000000000000000000000000000000000000000000000000000000000000000000000000000000000000000000000000000000000000000000000000000000",
            "coinbase" : "0x945304eb96065b2a98b57a48a06ae28d285a71b5",
            "difficulty" : "0x020000",
            "extraData" : "0x42",
            "gasLimit" : "0x7fffffffffffffff",
            "gasUsed" : "0x00",
            "hash" : "0xc6514f9c512357404a8f936b2f82a0a4e2ab3c68bd06928b3bd0f5a4ac9234ed",
            "mixHash" : "0x0000000000000000000000000000000000000000000000000000000000000000",
            "nonce" : "0x0000000000000000",
            "number" : "0x00",
            "parentHash" : "0x0000000000000000000000000000000000000000000000000000000000000000",
            "receiptTrie" : "0x56e81f171bcc55a6ff8345e692c0f86e5b48e01b996cadc001622fb5e363b421",
            "stateRoot" : "0x7f172197846bc31d838420b2216439233ffba142cd6d1233981e106036b5fcef",
            "timestamp" : "0x03b6",
            "transactionsTrie" : "0x56e81f171bcc55a6ff8345e692c0f86e5b48e01b996cadc001622fb5e363b421",
            "uncleHash" : "0x1dcc4de8dec75d7aab85b567b6ccd41ad312451b948a7413f0a142fd40d49347",
            "baseFee" : "0x10"
        },
        "genesisRLP" : "0xf90200f901fba00000000000000000000000000000000000000000000000000000000000000000a01dcc4de8dec75d7aab85b567b6ccd41ad312451b948a7413f0a142fd40d4934794945304eb96065b2a98b57a48a06ae28d285a71b5a07f172197846bc31d838420b2216439233ffba142cd6d1233981e106036b5fcefa056e81f171bcc55a6ff8345e692c0f86e5b48e01b996cadc001622fb5e363b421a056e81f171bcc55a6ff8345e692c0f86e5b48e01b996cadc001622fb5e363b421b90100000000000000000000000000000000000000000000000000000000000000000000000000000000000000000000000000000000000000000000000000000000000000000000000000000000000000000000000000000000000000000000000000000000000000000000000000000000000000000000000000000000000000000000000000000000000000000000000000000000000000000000000000000000000000000000000000000000000000000000000000000000000000000000000000000000000000000000000000000000000000000000000000000000000000000000000000000000000000000000000000000000000000000000000000000000008302000080887fffffffffffffff808203b642a0000000000000000000000000000000000000000000000000000000000000000088000000000000000010c0c0",
        "blocks" : [
            {
                "chainname" : "default",
                "blocknumber" : "1",
                "uncleHeaders" : [
                ],
                "blockHeader" : {
                    "bloom" : "0x00000000000000000000000000000000000000000000000000000000000000000000000000000000000000000000000000000000000000000000000000000000000000000000000000000000000000000000000000000000000000000000000000000000000000000000000000000000000000000000000000000000000000000000000000000000000000000000000000000000000000000000000000000000000000000000000000000000000000000000000000000000000000000000000000000000000000000000000000000000000000000000000000000000000000000000000000000000000000000000000000000000000000000000000000000000",
                    "coinbase" : "0x945304eb96065b2a98b57a48a06ae28d285a71b5",
                    "difficulty" : "0x020000",
                    "extraData" : "0x42",
                    "gasLimit" : "0x7fffffffffffffff",
                    "gasUsed" : "0xb075",
                    "hash" : "0x572c90c04d58c5286586f9523a2eb6d03359204f3d91cc134503cecfbba312fa",
                    "mixHash" : "0x0000000000000000000000000000000000000000000000000000000000000000",
                    "nonce" : "0x0000000000000000",
                    "number" : "0x01",
                    "parentHash" : "0xc6514f9c512357404a8f936b2f82a0a4e2ab3c68bd06928b3bd0f5a4ac9234ed",
                    "receiptTrie" : "0x7dc2af26a26bb54f3165d124ea0c3c73595ef1aaa98f815fac28382298724a20",
                    "stateRoot" : "0x4e72dcb2e05269c92362949fb9e32f0dda0b1ee77f32bd4b90ea58b9b37d4376",
                    "timestamp" : "0x03e8",
                    "transactionsTrie" : "0x10cd4cc11e396e9939ed4c46f6a91d5d048ade35335eb7baba7012f3175db0ac",
                    "uncleHash" : "0x1dcc4de8dec75d7aab85b567b6ccd41ad312451b948a7413f0a142fd40d49347",
                    "baseFee" : "0x0e"
                },
                "transactions" : [
                    {
                        "data" : "0x7f00000000000000000000000000000000000000000000000000000000000000017f000000000000000000000000ffffffffffffffffffffffffffffffffffffffff7f000000000000000000000000000000000000000000000000000000000000c350407ffffffffffffffffffffffffffffffffffffffffffffffffffffffffffffffffe7f00000000000000000000000100000000000000000000000000000000000000007e7f000000000000000000000000945304eb96065b2a98b57a48a06ae28d285a71b5f30264613617a2975a6857606f55",
                        "gasLimit" : "0x7178c094",
                        "gasPrice" : "0x03e8",
                        "nonce" : "0x00",
                        "r" : "0xe4e26027f12aea54d8fe6d90a499869c4e869ea698a5e412c7bfb37d5fb96666",
                        "s" : "0x334c0de78dab716cd105ed32bdd9cbfca9390663a0c9c18708a0c41519cfbfe0",
                        "to" : "0x095e7baea6a6c7c4c2dfeb977efac326af552d87",
                        "v" : "0x1c",
                        "value" : "0x3684af3d"
                    }
                ],
                "rlp" : "0xf90345f901fda0c6514f9c512357404a8f936b2f82a0a4e2ab3c68bd06928b3bd0f5a4ac9234eda01dcc4de8dec75d7aab85b567b6ccd41ad312451b948a7413f0a142fd40d4934794945304eb96065b2a98b57a48a06ae28d285a71b5a04e72dcb2e05269c92362949fb9e32f0dda0b1ee77f32bd4b90ea58b9b37d4376a010cd4cc11e396e9939ed4c46f6a91d5d048ade35335eb7baba7012f3175db0aca07dc2af26a26bb54f3165d124ea0c3c73595ef1aaa98f815fac28382298724a20b90100000000000000000000000000000000000000000000000000000000000000000000000000000000000000000000000000000000000000000000000000000000000000000000000000000000000000000000000000000000000000000000000000000000000000000000000000000000000000000000000000000000000000000000000000000000000000000000000000000000000000000000000000000000000000000000000000000000000000000000000000000000000000000000000000000000000000000000000000000000000000000000000000000000000000000000000000000000000000000000000000000000000000000000000000000000008302000001887fffffffffffffff82b0758203e842a000000000000000000000000000000000000000000000000000000000000000008800000000000000000ef90141f9013e808203e8847178c09494095e7baea6a6c7c4c2dfeb977efac326af552d87843684af3db8d67f00000000000000000000000000000000000000000000000000000000000000017f000000000000000000000000ffffffffffffffffffffffffffffffffffffffff7f000000000000000000000000000000000000000000000000000000000000c350407ffffffffffffffffffffffffffffffffffffffffffffffffffffffffffffffffe7f00000000000000000000000100000000000000000000000000000000000000007e7f000000000000000000000000945304eb96065b2a98b57a48a06ae28d285a71b5f30264613617a2975a6857606f551ca0e4e26027f12aea54d8fe6d90a499869c4e869ea698a5e412c7bfb37d5fb96666a0334c0de78dab716cd105ed32bdd9cbfca9390663a0c9c18708a0c41519cfbfe0c0"
            }
        ],
        "postState" : {
            "0x095e7baea6a6c7c4c2dfeb977efac326af552d87" : {
                "code" : "0x7f00000000000000000000000000000000000000000000000000000000000000017f000000000000000000000000ffffffffffffffffffffffffffffffffffffffff7f000000000000000000000000000000000000000000000000000000000000c350407ffffffffffffffffffffffffffffffffffffffffffffffffffffffffffffffffe7f00000000000000000000000100000000000000000000000000000000000000007e7f000000000000000000000000945304eb96065b2a98b57a48a06ae28d285a71b5f30264613617a2975a6857606f5560005155",
                "nonce" : "0x00",
                "balance" : "0x3684af3d",
                "storage" : {
                    "0xb5f30264613617a2975a6857606f55600051" : "0x7f000000000000000000000000945304eb96065b2a98b57a48a06ae28d285a"
                }
            },
            "0x945304eb96065b2a98b57a48a06ae28d285a71b5" : {
                "code" : "0x6000355415600957005b60203560003555",
                "nonce" : "0x00",
                "balance" : "0x1bc16d67516fa2d0",
                "storage" : {
                }
            },
            "0xa94f5374fce5edbc8e2a8697c15331677e6ebf0b" : {
                "code" : "0x",
                "nonce" : "0x01",
                "balance" : "0x0de0b6b36e2e07bb",
                "storage" : {
                }
            }
        },
        "lastblockhash" : "0x572c90c04d58c5286586f9523a2eb6d03359204f3d91cc134503cecfbba312fa"
    }
}