{
    "callcodecallcall_ABCB_RECURSIVE_d0g0v0_Berlin" : {
        "_info" : {
            "comment" : "DELEGATECALL -> CALL1 -> CALL2 -> CALL1 -> ...",
            "filling-rpc-server" : "evm version 1.10.4-unstable-966ee3ae-20210528",
            "filling-tool-version" : "retesteth-0.1.1-eip1559+commit.658fc3a8.Linux.g++",
            "lllcversion" : "Version: 0.5.14-develop.2021.5.18+commit.14c9d5de.mod.Linux.g++",
            "source" : "src/GeneralStateTestsFiller/stCallDelegateCodesHomestead/callcodecallcall_ABCB_RECURSIVEFiller.json",
            "sourceHash" : "aaac101229e41f04df38522aa777620e9464cebabcf84f315c7e1ec95c9c7c1b"
        },
        "genesisBlockHeader" : {
            "bloom" : "0x00000000000000000000000000000000000000000000000000000000000000000000000000000000000000000000000000000000000000000000000000000000000000000000000000000000000000000000000000000000000000000000000000000000000000000000000000000000000000000000000000000000000000000000000000000000000000000000000000000000000000000000000000000000000000000000000000000000000000000000000000000000000000000000000000000000000000000000000000000000000000000000000000000000000000000000000000000000000000000000000000000000000000000000000000000000",
            "coinbase" : "0x2adc25665018aa1fe0e6bc666dac8fc2697ff9ba",
            "difficulty" : "0x020000",
            "extraData" : "0x00",
            "gasLimit" : "0xb2d05e00",
            "gasUsed" : "0x00",
            "hash" : "0x2825b2a0ac961087c56f7d538c6a234be20e217cf7d226d637443310faa69a92",
            "mixHash" : "0x0000000000000000000000000000000000000000000000000000000000000000",
            "nonce" : "0x0000000000000000",
            "number" : "0x00",
            "parentHash" : "0x0000000000000000000000000000000000000000000000000000000000000000",
            "receiptTrie" : "0x56e81f171bcc55a6ff8345e692c0f86e5b48e01b996cadc001622fb5e363b421",
            "stateRoot" : "0x3ef39fe2e2ceccbe7a79600d9c9067235cffe2b3c3abe69793a7a46e81ab16fd",
            "timestamp" : "0x00",
            "transactionsTrie" : "0x56e81f171bcc55a6ff8345e692c0f86e5b48e01b996cadc001622fb5e363b421",
            "uncleHash" : "0x1dcc4de8dec75d7aab85b567b6ccd41ad312451b948a7413f0a142fd40d49347"
        },
        "pre" : {
            "0x1000000000000000000000000000000000000000" : {
                "balance" : "0x0de0b6b3a7640000",
                "code" : "0x604060006040600073100000000000000000000000000000000000000163017d7840f460005500",
                "nonce" : "0x00",
                "storage" : {
                }
            },
            "0x1000000000000000000000000000000000000001" : {
                "balance" : "0x02540be400",
                "code" : "0x60406000604060006000731000000000000000000000000000000000000002620f4240f160015500",
                "nonce" : "0x00",
                "storage" : {
                }
            },
            "0x1000000000000000000000000000000000000002" : {
                "balance" : "0x02540be400",
                "code" : "0x604060006040600060007310000000000000000000000000000000000000016207a120f160025500",
                "nonce" : "0x00",
                "storage" : {
                }
            },
            "0xa94f5374fce5edbc8e2a8697c15331677e6ebf0b" : {
                "balance" : "0x0de0b6b3a7640000",
                "code" : "0x",
                "nonce" : "0x00",
                "storage" : {
                }
            }
        },
        "postState" : {
            "0x1000000000000000000000000000000000000000" : {
                "code" : "0x604060006040600073100000000000000000000000000000000000000163017d7840f460005500",
                "nonce" : "0x00",
                "balance" : "0x0de0b6b3a7640000",
                "storage" : {
                    "0x00" : "0x01",
                    "0x01" : "0x01"
                }
            },
            "0x1000000000000000000000000000000000000001" : {
                "code" : "0x60406000604060006000731000000000000000000000000000000000000002620f4240f160015500",
                "nonce" : "0x00",
                "balance" : "0x02540be400",
                "storage" : {
                }
            },
            "0x1000000000000000000000000000000000000002" : {
                "code" : "0x604060006040600060007310000000000000000000000000000000000000016207a120f160025500",
                "nonce" : "0x00",
                "balance" : "0x02540be400",
                "storage" : {
                }
            },
            "0x2adc25665018aa1fe0e6bc666dac8fc2697ff9ba" : {
                "code" : "0x",
                "nonce" : "0x00",
                "balance" : "0x1bc16d674f1f667e",
                "storage" : {
                }
            },
            "0xa94f5374fce5edbc8e2a8697c15331677e6ebf0b" : {
                "code" : "0x",
                "nonce" : "0x01",
                "balance" : "0x0de0b6b3a70c9982",
                "storage" : {
                }
            }
        },
        "network" : "Berlin",
        "sealEngine" : "NoProof",
        "lastblockhash" : "0xf352f1a9b548b00948a40b232af5bc8644eaabc7783c101669c8563d9a7029d2",
        "genesisRLP" : "0xf901f9f901f4a00000000000000000000000000000000000000000000000000000000000000000a01dcc4de8dec75d7aab85b567b6ccd41ad312451b948a7413f0a142fd40d49347942adc25665018aa1fe0e6bc666dac8fc2697ff9baa03ef39fe2e2ceccbe7a79600d9c9067235cffe2b3c3abe69793a7a46e81ab16fda056e81f171bcc55a6ff8345e692c0f86e5b48e01b996cadc001622fb5e363b421a056e81f171bcc55a6ff8345e692c0f86e5b48e01b996cadc001622fb5e363b421b9010000000000000000000000000000000000000000000000000000000000000000000000000000000000000000000000000000000000000000000000000000000000000000000000000000000000000000000000000000000000000000000000000000000000000000000000000000000000000000000000000000000000000000000000000000000000000000000000000000000000000000000000000000000000000000000000000000000000000000000000000000000000000000000000000000000000000000000000000000000000000000000000000000000000000000000000000000000000000000000000000000000000000000000000000000000000830200008084b2d05e00808000a00000000000000000000000000000000000000000000000000000000000000000880000000000000000c0c0",
        "blocks" : [
            {
                "rlp" : "0xf90262f901f9a02825b2a0ac961087c56f7d538c6a234be20e217cf7d226d637443310faa69a92a01dcc4de8dec75d7aab85b567b6ccd41ad312451b948a7413f0a142fd40d49347942adc25665018aa1fe0e6bc666dac8fc2697ff9baa0852f7e477414a4332a451e00e1c120ba8665a7da70ff2d0ca82821b83c40d67ea063f8389aa64430102b9c0f91cfef91208f3f7c803e1c7aea5f2cacec677fb11da04a99ab751d70eb26bc98259a078eb0b4033ce1c4df69c3e5f978468b8ad950ecb9010000000000000000000000000000000000000000000000000000000000000000000000000000000000000000000000000000000000000000000000000000000000000000000000000000000000000000000000000000000000000000000000000000000000000000000000000000000000000000000000000000000000000000000000000000000000000000000000000000000000000000000000000000000000000000000000000000000000000000000000000000000000000000000000000000000000000000000000000000000000000000000000000000000000000000000000000000000000000000000000000000000000000000000000000000000000830200000184b2d05e008308bd738203e800a00000000000000000000000000000000000000000000000000000000000000000880000000000000000f863f861800a8401c9c38094100000000000000000000000000000000000000080801ba0e8d1cea1a04c8b4da190371aa4937f7756d5c55d54af29cc22a1f457ca1a213aa0517b7f1455b270f21c5e3b5ebf42dd7234a8b7dcbcd0d96e910182f8ccd55629c0",
                "blockHeader" : {
                    "bloom" : "0x00000000000000000000000000000000000000000000000000000000000000000000000000000000000000000000000000000000000000000000000000000000000000000000000000000000000000000000000000000000000000000000000000000000000000000000000000000000000000000000000000000000000000000000000000000000000000000000000000000000000000000000000000000000000000000000000000000000000000000000000000000000000000000000000000000000000000000000000000000000000000000000000000000000000000000000000000000000000000000000000000000000000000000000000000000000",
                    "coinbase" : "0x2adc25665018aa1fe0e6bc666dac8fc2697ff9ba",
                    "difficulty" : "0x020000",
                    "extraData" : "0x00",
                    "gasLimit" : "0xb2d05e00",
                    "gasUsed" : "0x08bd73",
                    "hash" : "0xf352f1a9b548b00948a40b232af5bc8644eaabc7783c101669c8563d9a7029d2",
                    "mixHash" : "0x0000000000000000000000000000000000000000000000000000000000000000",
                    "nonce" : "0x0000000000000000",
                    "number" : "0x01",
                    "parentHash" : "0x2825b2a0ac961087c56f7d538c6a234be20e217cf7d226d637443310faa69a92",
                    "receiptTrie" : "0x4a99ab751d70eb26bc98259a078eb0b4033ce1c4df69c3e5f978468b8ad950ec",
                    "stateRoot" : "0x852f7e477414a4332a451e00e1c120ba8665a7da70ff2d0ca82821b83c40d67e",
                    "timestamp" : "0x03e8",
                    "transactionsTrie" : "0x63f8389aa64430102b9c0f91cfef91208f3f7c803e1c7aea5f2cacec677fb11d",
                    "uncleHash" : "0x1dcc4de8dec75d7aab85b567b6ccd41ad312451b948a7413f0a142fd40d49347"
                },
                "transactions" : [
                    {
                        "data" : "0x",
                        "gasLimit" : "0x01c9c380",
                        "gasPrice" : "0x0a",
                        "nonce" : "0x00",
                        "to" : "0x1000000000000000000000000000000000000000",
                        "value" : "0x00",
                        "v" : "0x1b",
                        "r" : "0xe8d1cea1a04c8b4da190371aa4937f7756d5c55d54af29cc22a1f457ca1a213a",
                        "s" : "0x517b7f1455b270f21c5e3b5ebf42dd7234a8b7dcbcd0d96e910182f8ccd55629"
                    }
                ],
                "uncleHeaders" : [
                ]
            }
        ]
    },
    "callcodecallcall_ABCB_RECURSIVE_d0g0v0_Istanbul" : {
        "_info" : {
            "comment" : "DELEGATECALL -> CALL1 -> CALL2 -> CALL1 -> ...",
            "filling-rpc-server" : "evm version 1.10.4-unstable-966ee3ae-20210528",
            "filling-tool-version" : "retesteth-0.1.1-eip1559+commit.658fc3a8.Linux.g++",
            "lllcversion" : "Version: 0.5.14-develop.2021.5.18+commit.14c9d5de.mod.Linux.g++",
            "source" : "src/GeneralStateTestsFiller/stCallDelegateCodesHomestead/callcodecallcall_ABCB_RECURSIVEFiller.json",
            "sourceHash" : "aaac101229e41f04df38522aa777620e9464cebabcf84f315c7e1ec95c9c7c1b"
        },
        "genesisBlockHeader" : {
            "bloom" : "0x00000000000000000000000000000000000000000000000000000000000000000000000000000000000000000000000000000000000000000000000000000000000000000000000000000000000000000000000000000000000000000000000000000000000000000000000000000000000000000000000000000000000000000000000000000000000000000000000000000000000000000000000000000000000000000000000000000000000000000000000000000000000000000000000000000000000000000000000000000000000000000000000000000000000000000000000000000000000000000000000000000000000000000000000000000000",
            "coinbase" : "0x2adc25665018aa1fe0e6bc666dac8fc2697ff9ba",
            "difficulty" : "0x020000",
            "extraData" : "0x00",
            "gasLimit" : "0xb2d05e00",
            "gasUsed" : "0x00",
            "hash" : "0x2825b2a0ac961087c56f7d538c6a234be20e217cf7d226d637443310faa69a92",
            "mixHash" : "0x0000000000000000000000000000000000000000000000000000000000000000",
            "nonce" : "0x0000000000000000",
            "number" : "0x00",
            "parentHash" : "0x0000000000000000000000000000000000000000000000000000000000000000",
            "receiptTrie" : "0x56e81f171bcc55a6ff8345e692c0f86e5b48e01b996cadc001622fb5e363b421",
            "stateRoot" : "0x3ef39fe2e2ceccbe7a79600d9c9067235cffe2b3c3abe69793a7a46e81ab16fd",
            "timestamp" : "0x00",
            "transactionsTrie" : "0x56e81f171bcc55a6ff8345e692c0f86e5b48e01b996cadc001622fb5e363b421",
            "uncleHash" : "0x1dcc4de8dec75d7aab85b567b6ccd41ad312451b948a7413f0a142fd40d49347"
        },
        "pre" : {
            "0x1000000000000000000000000000000000000000" : {
                "balance" : "0x0de0b6b3a7640000",
                "code" : "0x604060006040600073100000000000000000000000000000000000000163017d7840f460005500",
                "nonce" : "0x00",
                "storage" : {
                }
            },
            "0x1000000000000000000000000000000000000001" : {
                "balance" : "0x02540be400",
                "code" : "0x60406000604060006000731000000000000000000000000000000000000002620f4240f160015500",
                "nonce" : "0x00",
                "storage" : {
                }
            },
            "0x1000000000000000000000000000000000000002" : {
                "balance" : "0x02540be400",
                "code" : "0x604060006040600060007310000000000000000000000000000000000000016207a120f160025500",
                "nonce" : "0x00",
                "storage" : {
                }
            },
            "0xa94f5374fce5edbc8e2a8697c15331677e6ebf0b" : {
                "balance" : "0x0de0b6b3a7640000",
                "code" : "0x",
                "nonce" : "0x00",
                "storage" : {
                }
            }
        },
        "postState" : {
            "0x1000000000000000000000000000000000000000" : {
                "code" : "0x604060006040600073100000000000000000000000000000000000000163017d7840f460005500",
                "nonce" : "0x00",
                "balance" : "0x0de0b6b3a7640000",
                "storage" : {
                    "0x00" : "0x01",
                    "0x01" : "0x01"
                }
            },
            "0x1000000000000000000000000000000000000001" : {
                "code" : "0x60406000604060006000731000000000000000000000000000000000000002620f4240f160015500",
                "nonce" : "0x00",
                "balance" : "0x02540be400",
                "storage" : {
                }
            },
            "0x1000000000000000000000000000000000000002" : {
                "code" : "0x604060006040600060007310000000000000000000000000000000000000016207a120f160025500",
                "nonce" : "0x00",
                "balance" : "0x02540be400",
                "storage" : {
                }
            },
            "0x2adc25665018aa1fe0e6bc666dac8fc2697ff9ba" : {
                "code" : "0x",
                "nonce" : "0x00",
                "balance" : "0x1bc16d674f1e0ebe",
                "storage" : {
                }
            },
            "0xa94f5374fce5edbc8e2a8697c15331677e6ebf0b" : {
                "code" : "0x",
                "nonce" : "0x01",
                "balance" : "0x0de0b6b3a70df142",
                "storage" : {
                }
            }
        },
        "network" : "Istanbul",
        "sealEngine" : "NoProof",
        "lastblockhash" : "0xdcc2f6745ef22736854519b184510afea96a38c7ae61234b6b751ccdd7836d8c",
        "genesisRLP" : "0xf901f9f901f4a00000000000000000000000000000000000000000000000000000000000000000a01dcc4de8dec75d7aab85b567b6ccd41ad312451b948a7413f0a142fd40d49347942adc25665018aa1fe0e6bc666dac8fc2697ff9baa03ef39fe2e2ceccbe7a79600d9c9067235cffe2b3c3abe69793a7a46e81ab16fda056e81f171bcc55a6ff8345e692c0f86e5b48e01b996cadc001622fb5e363b421a056e81f171bcc55a6ff8345e692c0f86e5b48e01b996cadc001622fb5e363b421b9010000000000000000000000000000000000000000000000000000000000000000000000000000000000000000000000000000000000000000000000000000000000000000000000000000000000000000000000000000000000000000000000000000000000000000000000000000000000000000000000000000000000000000000000000000000000000000000000000000000000000000000000000000000000000000000000000000000000000000000000000000000000000000000000000000000000000000000000000000000000000000000000000000000000000000000000000000000000000000000000000000000000000000000000000000000000830200008084b2d05e00808000a00000000000000000000000000000000000000000000000000000000000000000880000000000000000c0c0",
        "blocks" : [
            {
                "rlp" : "0xf90262f901f9a02825b2a0ac961087c56f7d538c6a234be20e217cf7d226d637443310faa69a92a01dcc4de8dec75d7aab85b567b6ccd41ad312451b948a7413f0a142fd40d49347942adc25665018aa1fe0e6bc666dac8fc2697ff9baa02c943c156f598f99dc7eb5596653a7faaf35294300712c636d9b5ccf11a4329fa063f8389aa64430102b9c0f91cfef91208f3f7c803e1c7aea5f2cacec677fb11da0f7225d870c8b9eb223e4cd04e5523df8273eeb699f754914c9518cfcf54be83eb9010000000000000000000000000000000000000000000000000000000000000000000000000000000000000000000000000000000000000000000000000000000000000000000000000000000000000000000000000000000000000000000000000000000000000000000000000000000000000000000000000000000000000000000000000000000000000000000000000000000000000000000000000000000000000000000000000000000000000000000000000000000000000000000000000000000000000000000000000000000000000000000000000000000000000000000000000000000000000000000000000000000000000000000000000000000000830200000184b2d05e0083089b138203e800a00000000000000000000000000000000000000000000000000000000000000000880000000000000000f863f861800a8401c9c38094100000000000000000000000000000000000000080801ba0e8d1cea1a04c8b4da190371aa4937f7756d5c55d54af29cc22a1f457ca1a213aa0517b7f1455b270f21c5e3b5ebf42dd7234a8b7dcbcd0d96e910182f8ccd55629c0",
                "blockHeader" : {
                    "bloom" : "0x00000000000000000000000000000000000000000000000000000000000000000000000000000000000000000000000000000000000000000000000000000000000000000000000000000000000000000000000000000000000000000000000000000000000000000000000000000000000000000000000000000000000000000000000000000000000000000000000000000000000000000000000000000000000000000000000000000000000000000000000000000000000000000000000000000000000000000000000000000000000000000000000000000000000000000000000000000000000000000000000000000000000000000000000000000000",
                    "coinbase" : "0x2adc25665018aa1fe0e6bc666dac8fc2697ff9ba",
                    "difficulty" : "0x020000",
                    "extraData" : "0x00",
                    "gasLimit" : "0xb2d05e00",
                    "gasUsed" : "0x089b13",
                    "hash" : "0xdcc2f6745ef22736854519b184510afea96a38c7ae61234b6b751ccdd7836d8c",
                    "mixHash" : "0x0000000000000000000000000000000000000000000000000000000000000000",
                    "nonce" : "0x0000000000000000",
                    "number" : "0x01",
                    "parentHash" : "0x2825b2a0ac961087c56f7d538c6a234be20e217cf7d226d637443310faa69a92",
                    "receiptTrie" : "0xf7225d870c8b9eb223e4cd04e5523df8273eeb699f754914c9518cfcf54be83e",
                    "stateRoot" : "0x2c943c156f598f99dc7eb5596653a7faaf35294300712c636d9b5ccf11a4329f",
                    "timestamp" : "0x03e8",
                    "transactionsTrie" : "0x63f8389aa64430102b9c0f91cfef91208f3f7c803e1c7aea5f2cacec677fb11d",
                    "uncleHash" : "0x1dcc4de8dec75d7aab85b567b6ccd41ad312451b948a7413f0a142fd40d49347"
                },
                "transactions" : [
                    {
                        "data" : "0x",
                        "gasLimit" : "0x01c9c380",
                        "gasPrice" : "0x0a",
                        "nonce" : "0x00",
                        "to" : "0x1000000000000000000000000000000000000000",
                        "value" : "0x00",
                        "v" : "0x1b",
                        "r" : "0xe8d1cea1a04c8b4da190371aa4937f7756d5c55d54af29cc22a1f457ca1a213a",
                        "s" : "0x517b7f1455b270f21c5e3b5ebf42dd7234a8b7dcbcd0d96e910182f8ccd55629"
                    }
                ],
                "uncleHeaders" : [
                ]
            }
        ]
    },
    "callcodecallcall_ABCB_RECURSIVE_d0g0v0_London" : {
        "_info" : {
            "comment" : "DELEGATECALL -> CALL1 -> CALL2 -> CALL1 -> ...",
            "filling-rpc-server" : "evm version 1.10.4-unstable-966ee3ae-20210528",
            "filling-tool-version" : "retesteth-0.1.1-eip1559+commit.658fc3a8.Linux.g++",
            "lllcversion" : "Version: 0.5.14-develop.2021.5.18+commit.14c9d5de.mod.Linux.g++",
            "source" : "src/GeneralStateTestsFiller/stCallDelegateCodesHomestead/callcodecallcall_ABCB_RECURSIVEFiller.json",
            "sourceHash" : "aaac101229e41f04df38522aa777620e9464cebabcf84f315c7e1ec95c9c7c1b"
        },
        "genesisBlockHeader" : {
            "bloom" : "0x00000000000000000000000000000000000000000000000000000000000000000000000000000000000000000000000000000000000000000000000000000000000000000000000000000000000000000000000000000000000000000000000000000000000000000000000000000000000000000000000000000000000000000000000000000000000000000000000000000000000000000000000000000000000000000000000000000000000000000000000000000000000000000000000000000000000000000000000000000000000000000000000000000000000000000000000000000000000000000000000000000000000000000000000000000000",
            "coinbase" : "0x2adc25665018aa1fe0e6bc666dac8fc2697ff9ba",
            "difficulty" : "0x020000",
            "extraData" : "0x00",
            "gasLimit" : "0xb2d05e00",
            "gasUsed" : "0x00",
            "hash" : "0xafb8ca9f8ab3a2637dad37bfebd4fb06ba116b2b856d424eb9b505ff533c11a7",
            "mixHash" : "0x0000000000000000000000000000000000000000000000000000000000000000",
            "nonce" : "0x0000000000000000",
            "number" : "0x00",
            "parentHash" : "0x0000000000000000000000000000000000000000000000000000000000000000",
            "receiptTrie" : "0x56e81f171bcc55a6ff8345e692c0f86e5b48e01b996cadc001622fb5e363b421",
            "stateRoot" : "0x3ef39fe2e2ceccbe7a79600d9c9067235cffe2b3c3abe69793a7a46e81ab16fd",
            "timestamp" : "0x00",
            "transactionsTrie" : "0x56e81f171bcc55a6ff8345e692c0f86e5b48e01b996cadc001622fb5e363b421",
            "uncleHash" : "0x1dcc4de8dec75d7aab85b567b6ccd41ad312451b948a7413f0a142fd40d49347",
            "baseFee" : "0x0b"
        },
        "pre" : {
            "0x1000000000000000000000000000000000000000" : {
                "balance" : "0x0de0b6b3a7640000",
                "code" : "0x604060006040600073100000000000000000000000000000000000000163017d7840f460005500",
                "nonce" : "0x00",
                "storage" : {
                }
            },
            "0x1000000000000000000000000000000000000001" : {
                "balance" : "0x02540be400",
                "code" : "0x60406000604060006000731000000000000000000000000000000000000002620f4240f160015500",
                "nonce" : "0x00",
                "storage" : {
                }
            },
            "0x1000000000000000000000000000000000000002" : {
                "balance" : "0x02540be400",
                "code" : "0x604060006040600060007310000000000000000000000000000000000000016207a120f160025500",
                "nonce" : "0x00",
                "storage" : {
                }
            },
            "0xa94f5374fce5edbc8e2a8697c15331677e6ebf0b" : {
                "balance" : "0x0de0b6b3a7640000",
                "code" : "0x",
                "nonce" : "0x00",
                "storage" : {
                }
            }
        },
        "postState" : {
            "0x1000000000000000000000000000000000000000" : {
                "code" : "0x604060006040600073100000000000000000000000000000000000000163017d7840f460005500",
                "nonce" : "0x00",
                "balance" : "0x0de0b6b3a7640000",
                "storage" : {
                    "0x00" : "0x01",
                    "0x01" : "0x01"
                }
            },
            "0x1000000000000000000000000000000000000001" : {
                "code" : "0x60406000604060006000731000000000000000000000000000000000000002620f4240f160015500",
                "nonce" : "0x00",
                "balance" : "0x02540be400",
                "storage" : {
                }
            },
            "0x1000000000000000000000000000000000000002" : {
                "code" : "0x604060006040600060007310000000000000000000000000000000000000016207a120f160025500",
                "nonce" : "0x00",
                "balance" : "0x02540be400",
                "storage" : {
                }
            },
            "0x2adc25665018aa1fe0e6bc666dac8fc2697ff9ba" : {
                "code" : "0x",
                "nonce" : "0x00",
                "balance" : "0x1bc16d674ec80000",
                "storage" : {
                }
            },
            "0xa94f5374fce5edbc8e2a8697c15331677e6ebf0b" : {
                "code" : "0x",
                "nonce" : "0x01",
                "balance" : "0x0de0b6b3a70c9982",
                "storage" : {
                }
            }
        },
        "network" : "London",
        "sealEngine" : "NoProof",
        "lastblockhash" : "0x666a4e331d9e3b4ca2a3add9cec9f4a995beb07b6600c4576890e637bf723bc0",
        "genesisRLP" : "0xf901faf901f5a00000000000000000000000000000000000000000000000000000000000000000a01dcc4de8dec75d7aab85b567b6ccd41ad312451b948a7413f0a142fd40d49347942adc25665018aa1fe0e6bc666dac8fc2697ff9baa03ef39fe2e2ceccbe7a79600d9c9067235cffe2b3c3abe69793a7a46e81ab16fda056e81f171bcc55a6ff8345e692c0f86e5b48e01b996cadc001622fb5e363b421a056e81f171bcc55a6ff8345e692c0f86e5b48e01b996cadc001622fb5e363b421b9010000000000000000000000000000000000000000000000000000000000000000000000000000000000000000000000000000000000000000000000000000000000000000000000000000000000000000000000000000000000000000000000000000000000000000000000000000000000000000000000000000000000000000000000000000000000000000000000000000000000000000000000000000000000000000000000000000000000000000000000000000000000000000000000000000000000000000000000000000000000000000000000000000000000000000000000000000000000000000000000000000000000000000000000000000000000830200008084b2d05e00808000a000000000000000000000000000000000000000000000000000000000000000008800000000000000000bc0c0",
        "blocks" : [
            {
                "rlp" : "0xf90263f901faa0afb8ca9f8ab3a2637dad37bfebd4fb06ba116b2b856d424eb9b505ff533c11a7a01dcc4de8dec75d7aab85b567b6ccd41ad312451b948a7413f0a142fd40d49347942adc25665018aa1fe0e6bc666dac8fc2697ff9baa018de633713578b2b32ba99ff251a0e5915bcd41a0b79aea3520f9786a04e7f9ea063f8389aa64430102b9c0f91cfef91208f3f7c803e1c7aea5f2cacec677fb11da04a99ab751d70eb26bc98259a078eb0b4033ce1c4df69c3e5f978468b8ad950ecb9010000000000000000000000000000000000000000000000000000000000000000000000000000000000000000000000000000000000000000000000000000000000000000000000000000000000000000000000000000000000000000000000000000000000000000000000000000000000000000000000000000000000000000000000000000000000000000000000000000000000000000000000000000000000000000000000000000000000000000000000000000000000000000000000000000000000000000000000000000000000000000000000000000000000000000000000000000000000000000000000000000000000000000000000000000000000830200000184b2d05e008308bd738203e800a000000000000000000000000000000000000000000000000000000000000000008800000000000000000af863f861800a8401c9c38094100000000000000000000000000000000000000080801ba0e8d1cea1a04c8b4da190371aa4937f7756d5c55d54af29cc22a1f457ca1a213aa0517b7f1455b270f21c5e3b5ebf42dd7234a8b7dcbcd0d96e910182f8ccd55629c0",
                "blockHeader" : {
                    "bloom" : "0x00000000000000000000000000000000000000000000000000000000000000000000000000000000000000000000000000000000000000000000000000000000000000000000000000000000000000000000000000000000000000000000000000000000000000000000000000000000000000000000000000000000000000000000000000000000000000000000000000000000000000000000000000000000000000000000000000000000000000000000000000000000000000000000000000000000000000000000000000000000000000000000000000000000000000000000000000000000000000000000000000000000000000000000000000000000",
                    "coinbase" : "0x2adc25665018aa1fe0e6bc666dac8fc2697ff9ba",
                    "difficulty" : "0x020000",
                    "extraData" : "0x00",
                    "gasLimit" : "0xb2d05e00",
                    "gasUsed" : "0x08bd73",
                    "hash" : "0x666a4e331d9e3b4ca2a3add9cec9f4a995beb07b6600c4576890e637bf723bc0",
                    "mixHash" : "0x0000000000000000000000000000000000000000000000000000000000000000",
                    "nonce" : "0x0000000000000000",
                    "number" : "0x01",
                    "parentHash" : "0xafb8ca9f8ab3a2637dad37bfebd4fb06ba116b2b856d424eb9b505ff533c11a7",
                    "receiptTrie" : "0x4a99ab751d70eb26bc98259a078eb0b4033ce1c4df69c3e5f978468b8ad950ec",
                    "stateRoot" : "0x18de633713578b2b32ba99ff251a0e5915bcd41a0b79aea3520f9786a04e7f9e",
                    "timestamp" : "0x03e8",
                    "transactionsTrie" : "0x63f8389aa64430102b9c0f91cfef91208f3f7c803e1c7aea5f2cacec677fb11d",
                    "uncleHash" : "0x1dcc4de8dec75d7aab85b567b6ccd41ad312451b948a7413f0a142fd40d49347",
                    "baseFee" : "0x0a"
                },
                "transactions" : [
                    {
                        "data" : "0x",
                        "gasLimit" : "0x01c9c380",
                        "gasPrice" : "0x0a",
                        "nonce" : "0x00",
                        "to" : "0x1000000000000000000000000000000000000000",
                        "value" : "0x00",
                        "v" : "0x1b",
                        "r" : "0xe8d1cea1a04c8b4da190371aa4937f7756d5c55d54af29cc22a1f457ca1a213a",
                        "s" : "0x517b7f1455b270f21c5e3b5ebf42dd7234a8b7dcbcd0d96e910182f8ccd55629"
                    }
                ],
                "uncleHeaders" : [
                ]
            }
        ]
    }
}