{
    "callcodecallcallcode_101_OOGE_d0g0v0_Berlin" : {
        "_info" : {
            "comment" : "DELEGATE -> CALL -> DELEGATE -> CODE OOG",
            "filling-rpc-server" : "evm version 1.10.4-unstable-966ee3ae-20210528",
            "filling-tool-version" : "retesteth-0.1.1-eip1559+commit.658fc3a8.Linux.g++",
            "lllcversion" : "Version: 0.5.14-develop.2021.5.18+commit.14c9d5de.mod.Linux.g++",
            "source" : "src/GeneralStateTestsFiller/stCallDelegateCodesHomestead/callcodecallcallcode_101_OOGEFiller.json",
            "sourceHash" : "da158d3aeb0f66006959419a88f08063241ac2a032eae17b8735ea647d7781f1"
        },
        "genesisBlockHeader" : {
            "bloom" : "0x00000000000000000000000000000000000000000000000000000000000000000000000000000000000000000000000000000000000000000000000000000000000000000000000000000000000000000000000000000000000000000000000000000000000000000000000000000000000000000000000000000000000000000000000000000000000000000000000000000000000000000000000000000000000000000000000000000000000000000000000000000000000000000000000000000000000000000000000000000000000000000000000000000000000000000000000000000000000000000000000000000000000000000000000000000000",
            "coinbase" : "0x2adc25665018aa1fe0e6bc666dac8fc2697ff9ba",
            "difficulty" : "0x020000",
            "extraData" : "0x00",
            "gasLimit" : "0x01c9c380",
            "gasUsed" : "0x00",
            "hash" : "0x45d1fb8a29d87057fe2f886208b369b65a890c74bc6124496d7a51d5e22fd4d9",
            "mixHash" : "0x0000000000000000000000000000000000000000000000000000000000000000",
            "nonce" : "0x0000000000000000",
            "number" : "0x00",
            "parentHash" : "0x0000000000000000000000000000000000000000000000000000000000000000",
            "receiptTrie" : "0x56e81f171bcc55a6ff8345e692c0f86e5b48e01b996cadc001622fb5e363b421",
            "stateRoot" : "0x4df86502487c030ae442f7249c4a1f0f1e35e1a0f0f8f0ca96f3333e96233e25",
            "timestamp" : "0x00",
            "transactionsTrie" : "0x56e81f171bcc55a6ff8345e692c0f86e5b48e01b996cadc001622fb5e363b421",
            "uncleHash" : "0x1dcc4de8dec75d7aab85b567b6ccd41ad312451b948a7413f0a142fd40d49347"
        },
        "pre" : {
            "0x1000000000000000000000000000000000000000" : {
                "balance" : "0x0de0b6b3a7640000",
                "code" : "0x6040600060406000731000000000000000000000000000000000000001620c3500f460005500",
                "nonce" : "0x00",
                "storage" : {
                }
            },
            "0x1000000000000000000000000000000000000001" : {
                "balance" : "0x00",
                "code" : "0x60406000604060006000731000000000000000000000000000000000000002620927c0f160015500",
                "nonce" : "0x00",
                "storage" : {
                }
            },
            "0x1000000000000000000000000000000000000002" : {
                "balance" : "0x00",
                "code" : "0x604060006040600073100000000000000000000000000000000000000362061a80f46002556001600b5500",
                "nonce" : "0x00",
                "storage" : {
                }
            },
            "0x1000000000000000000000000000000000000003" : {
                "balance" : "0x00",
                "code" : "0x6001600355622fffff60002000",
                "nonce" : "0x00",
                "storage" : {
                }
            },
            "0xa94f5374fce5edbc8e2a8697c15331677e6ebf0b" : {
                "balance" : "0x0de0b6b3a7640000",
                "code" : "0x",
                "nonce" : "0x00",
                "storage" : {
                }
            }
        },
        "postState" : {
            "0x1000000000000000000000000000000000000000" : {
                "code" : "0x6040600060406000731000000000000000000000000000000000000001620c3500f460005500",
                "nonce" : "0x00",
                "balance" : "0x0de0b6b3a7640000",
                "storage" : {
                    "0x00" : "0x01",
                    "0x01" : "0x01"
                }
            },
            "0x1000000000000000000000000000000000000001" : {
                "code" : "0x60406000604060006000731000000000000000000000000000000000000002620927c0f160015500",
                "nonce" : "0x00",
                "balance" : "0x00",
                "storage" : {
                }
            },
            "0x1000000000000000000000000000000000000002" : {
                "code" : "0x604060006040600073100000000000000000000000000000000000000362061a80f46002556001600b5500",
                "nonce" : "0x00",
                "balance" : "0x00",
                "storage" : {
                    "0x0b" : "0x01"
                }
            },
            "0x1000000000000000000000000000000000000003" : {
                "code" : "0x6001600355622fffff60002000",
                "nonce" : "0x00",
                "balance" : "0x00",
                "storage" : {
                }
            },
            "0x2adc25665018aa1fe0e6bc666dac8fc2697ff9ba" : {
                "code" : "0x",
                "nonce" : "0x00",
                "balance" : "0x1bc16d674f13e54c",
                "storage" : {
                }
            },
            "0xa94f5374fce5edbc8e2a8697c15331677e6ebf0b" : {
                "code" : "0x",
                "nonce" : "0x01",
                "balance" : "0x0de0b6b3a7181ab4",
                "storage" : {
                }
            }
        },
        "network" : "Berlin",
        "sealEngine" : "NoProof",
        "lastblockhash" : "0x68c992772bdecdf5cc08abc2dcfcc3800ec561136952eb653d2fcb0eade03bd1",
        "genesisRLP" : "0xf901f9f901f4a00000000000000000000000000000000000000000000000000000000000000000a01dcc4de8dec75d7aab85b567b6ccd41ad312451b948a7413f0a142fd40d49347942adc25665018aa1fe0e6bc666dac8fc2697ff9baa04df86502487c030ae442f7249c4a1f0f1e35e1a0f0f8f0ca96f3333e96233e25a056e81f171bcc55a6ff8345e692c0f86e5b48e01b996cadc001622fb5e363b421a056e81f171bcc55a6ff8345e692c0f86e5b48e01b996cadc001622fb5e363b421b901000000000000000000000000000000000000000000000000000000000000000000000000000000000000000000000000000000000000000000000000000000000000000000000000000000000000000000000000000000000000000000000000000000000000000000000000000000000000000000000000000000000000000000000000000000000000000000000000000000000000000000000000000000000000000000000000000000000000000000000000000000000000000000000000000000000000000000000000000000000000000000000000000000000000000000000000000000000000000000000000000000000000000000000000000000000083020000808401c9c380808000a00000000000000000000000000000000000000000000000000000000000000000880000000000000000c0c0",
        "blocks" : [
            {
                "rlp" : "0xf90261f901f9a045d1fb8a29d87057fe2f886208b369b65a890c74bc6124496d7a51d5e22fd4d9a01dcc4de8dec75d7aab85b567b6ccd41ad312451b948a7413f0a142fd40d49347942adc25665018aa1fe0e6bc666dac8fc2697ff9baa00d2458f97360317a8a19a2f71d9c8d445f8b33d9963190b8be6b608033207808a0c8dd60985c2897fe775f0c88b53a0cef6fafa1e2295cee6e65cd8df4b9df6930a0cced286cc3d9d76bc32f2b2d91376ad1d3b5caa9069b89c3fda44e409d663f04b901000000000000000000000000000000000000000000000000000000000000000000000000000000000000000000000000000000000000000000000000000000000000000000000000000000000000000000000000000000000000000000000000000000000000000000000000000000000000000000000000000000000000000000000000000000000000000000000000000000000000000000000000000000000000000000000000000000000000000000000000000000000000000000000000000000000000000000000000000000000000000000000000000000000000000000000000000000000000000000000000000000000000000000000000000000000083020000018401c9c380830796ee8203e800a00000000000000000000000000000000000000000000000000000000000000000880000000000000000f862f860800a830f424094100000000000000000000000000000000000000080801ba0878fccf1801724b1bfb5b0a67d68454b9c56fe9e3753200bc36cd66eed5636eca00dc53455b0e859433799ddbe3c16f98e70c52b6bf684992d9907dc9d1ccb03f1c0",
                "blockHeader" : {
                    "bloom" : "0x00000000000000000000000000000000000000000000000000000000000000000000000000000000000000000000000000000000000000000000000000000000000000000000000000000000000000000000000000000000000000000000000000000000000000000000000000000000000000000000000000000000000000000000000000000000000000000000000000000000000000000000000000000000000000000000000000000000000000000000000000000000000000000000000000000000000000000000000000000000000000000000000000000000000000000000000000000000000000000000000000000000000000000000000000000000",
                    "coinbase" : "0x2adc25665018aa1fe0e6bc666dac8fc2697ff9ba",
                    "difficulty" : "0x020000",
                    "extraData" : "0x00",
                    "gasLimit" : "0x01c9c380",
                    "gasUsed" : "0x0796ee",
                    "hash" : "0x68c992772bdecdf5cc08abc2dcfcc3800ec561136952eb653d2fcb0eade03bd1",
                    "mixHash" : "0x0000000000000000000000000000000000000000000000000000000000000000",
                    "nonce" : "0x0000000000000000",
                    "number" : "0x01",
                    "parentHash" : "0x45d1fb8a29d87057fe2f886208b369b65a890c74bc6124496d7a51d5e22fd4d9",
                    "receiptTrie" : "0xcced286cc3d9d76bc32f2b2d91376ad1d3b5caa9069b89c3fda44e409d663f04",
                    "stateRoot" : "0x0d2458f97360317a8a19a2f71d9c8d445f8b33d9963190b8be6b608033207808",
                    "timestamp" : "0x03e8",
                    "transactionsTrie" : "0xc8dd60985c2897fe775f0c88b53a0cef6fafa1e2295cee6e65cd8df4b9df6930",
                    "uncleHash" : "0x1dcc4de8dec75d7aab85b567b6ccd41ad312451b948a7413f0a142fd40d49347"
                },
                "transactions" : [
                    {
                        "data" : "0x",
                        "gasLimit" : "0x0f4240",
                        "gasPrice" : "0x0a",
                        "nonce" : "0x00",
                        "to" : "0x1000000000000000000000000000000000000000",
                        "value" : "0x00",
                        "v" : "0x1b",
                        "r" : "0x878fccf1801724b1bfb5b0a67d68454b9c56fe9e3753200bc36cd66eed5636ec",
                        "s" : "0x0dc53455b0e859433799ddbe3c16f98e70c52b6bf684992d9907dc9d1ccb03f1"
                    }
                ],
                "uncleHeaders" : [
                ]
            }
        ]
    },
    "callcodecallcallcode_101_OOGE_d0g0v0_Istanbul" : {
        "_info" : {
            "comment" : "DELEGATE -> CALL -> DELEGATE -> CODE OOG",
            "filling-rpc-server" : "evm version 1.10.4-unstable-966ee3ae-20210528",
            "filling-tool-version" : "retesteth-0.1.1-eip1559+commit.658fc3a8.Linux.g++",
            "lllcversion" : "Version: 0.5.14-develop.2021.5.18+commit.14c9d5de.mod.Linux.g++",
            "source" : "src/GeneralStateTestsFiller/stCallDelegateCodesHomestead/callcodecallcallcode_101_OOGEFiller.json",
            "sourceHash" : "da158d3aeb0f66006959419a88f08063241ac2a032eae17b8735ea647d7781f1"
        },
        "genesisBlockHeader" : {
            "bloom" : "0x00000000000000000000000000000000000000000000000000000000000000000000000000000000000000000000000000000000000000000000000000000000000000000000000000000000000000000000000000000000000000000000000000000000000000000000000000000000000000000000000000000000000000000000000000000000000000000000000000000000000000000000000000000000000000000000000000000000000000000000000000000000000000000000000000000000000000000000000000000000000000000000000000000000000000000000000000000000000000000000000000000000000000000000000000000000",
            "coinbase" : "0x2adc25665018aa1fe0e6bc666dac8fc2697ff9ba",
            "difficulty" : "0x020000",
            "extraData" : "0x00",
            "gasLimit" : "0x01c9c380",
            "gasUsed" : "0x00",
            "hash" : "0x45d1fb8a29d87057fe2f886208b369b65a890c74bc6124496d7a51d5e22fd4d9",
            "mixHash" : "0x0000000000000000000000000000000000000000000000000000000000000000",
            "nonce" : "0x0000000000000000",
            "number" : "0x00",
            "parentHash" : "0x0000000000000000000000000000000000000000000000000000000000000000",
            "receiptTrie" : "0x56e81f171bcc55a6ff8345e692c0f86e5b48e01b996cadc001622fb5e363b421",
            "stateRoot" : "0x4df86502487c030ae442f7249c4a1f0f1e35e1a0f0f8f0ca96f3333e96233e25",
            "timestamp" : "0x00",
            "transactionsTrie" : "0x56e81f171bcc55a6ff8345e692c0f86e5b48e01b996cadc001622fb5e363b421",
            "uncleHash" : "0x1dcc4de8dec75d7aab85b567b6ccd41ad312451b948a7413f0a142fd40d49347"
        },
        "pre" : {
            "0x1000000000000000000000000000000000000000" : {
                "balance" : "0x0de0b6b3a7640000",
                "code" : "0x6040600060406000731000000000000000000000000000000000000001620c3500f460005500",
                "nonce" : "0x00",
                "storage" : {
                }
            },
            "0x1000000000000000000000000000000000000001" : {
                "balance" : "0x00",
                "code" : "0x60406000604060006000731000000000000000000000000000000000000002620927c0f160015500",
                "nonce" : "0x00",
                "storage" : {
                }
            },
            "0x1000000000000000000000000000000000000002" : {
                "balance" : "0x00",
                "code" : "0x604060006040600073100000000000000000000000000000000000000362061a80f46002556001600b5500",
                "nonce" : "0x00",
                "storage" : {
                }
            },
            "0x1000000000000000000000000000000000000003" : {
                "balance" : "0x00",
                "code" : "0x6001600355622fffff60002000",
                "nonce" : "0x00",
                "storage" : {
                }
            },
            "0xa94f5374fce5edbc8e2a8697c15331677e6ebf0b" : {
                "balance" : "0x0de0b6b3a7640000",
                "code" : "0x",
                "nonce" : "0x00",
                "storage" : {
                }
            }
        },
        "postState" : {
            "0x1000000000000000000000000000000000000000" : {
                "code" : "0x6040600060406000731000000000000000000000000000000000000001620c3500f460005500",
                "nonce" : "0x00",
                "balance" : "0x0de0b6b3a7640000",
                "storage" : {
                    "0x00" : "0x01",
                    "0x01" : "0x01"
                }
            },
            "0x1000000000000000000000000000000000000001" : {
                "code" : "0x60406000604060006000731000000000000000000000000000000000000002620927c0f160015500",
                "nonce" : "0x00",
                "balance" : "0x00",
                "storage" : {
                }
            },
            "0x1000000000000000000000000000000000000002" : {
                "code" : "0x604060006040600073100000000000000000000000000000000000000362061a80f46002556001600b5500",
                "nonce" : "0x00",
                "balance" : "0x00",
                "storage" : {
                    "0x0b" : "0x01"
                }
            },
            "0x1000000000000000000000000000000000000003" : {
                "code" : "0x6001600355622fffff60002000",
                "nonce" : "0x00",
                "balance" : "0x00",
                "storage" : {
                }
            },
            "0x2adc25665018aa1fe0e6bc666dac8fc2697ff9ba" : {
                "code" : "0x",
                "nonce" : "0x00",
                "balance" : "0x1bc16d674f11d9dc",
                "storage" : {
                }
            },
            "0xa94f5374fce5edbc8e2a8697c15331677e6ebf0b" : {
                "code" : "0x",
                "nonce" : "0x01",
                "balance" : "0x0de0b6b3a71a2624",
                "storage" : {
                }
            }
        },
        "network" : "Istanbul",
        "sealEngine" : "NoProof",
        "lastblockhash" : "0xe653390e10c8c7aa2c5b2696c3a7f0ed30372996b9ffe6f9dcc2d2a7388f5fd8",
        "genesisRLP" : "0xf901f9f901f4a00000000000000000000000000000000000000000000000000000000000000000a01dcc4de8dec75d7aab85b567b6ccd41ad312451b948a7413f0a142fd40d49347942adc25665018aa1fe0e6bc666dac8fc2697ff9baa04df86502487c030ae442f7249c4a1f0f1e35e1a0f0f8f0ca96f3333e96233e25a056e81f171bcc55a6ff8345e692c0f86e5b48e01b996cadc001622fb5e363b421a056e81f171bcc55a6ff8345e692c0f86e5b48e01b996cadc001622fb5e363b421b901000000000000000000000000000000000000000000000000000000000000000000000000000000000000000000000000000000000000000000000000000000000000000000000000000000000000000000000000000000000000000000000000000000000000000000000000000000000000000000000000000000000000000000000000000000000000000000000000000000000000000000000000000000000000000000000000000000000000000000000000000000000000000000000000000000000000000000000000000000000000000000000000000000000000000000000000000000000000000000000000000000000000000000000000000000000083020000808401c9c380808000a00000000000000000000000000000000000000000000000000000000000000000880000000000000000c0c0",
        "blocks" : [
            {
                "rlp" : "0xf90261f901f9a045d1fb8a29d87057fe2f886208b369b65a890c74bc6124496d7a51d5e22fd4d9a01dcc4de8dec75d7aab85b567b6ccd41ad312451b948a7413f0a142fd40d49347942adc25665018aa1fe0e6bc666dac8fc2697ff9baa041f1e11c746412264a55911e8f7654556553c15a0a214d6a7ce71ab964c5180fa0c8dd60985c2897fe775f0c88b53a0cef6fafa1e2295cee6e65cd8df4b9df6930a0fb1fd9313c4cdfb029bdcff18b18b0a31da8d8273c0e8ac96dccccd9865c414cb901000000000000000000000000000000000000000000000000000000000000000000000000000000000000000000000000000000000000000000000000000000000000000000000000000000000000000000000000000000000000000000000000000000000000000000000000000000000000000000000000000000000000000000000000000000000000000000000000000000000000000000000000000000000000000000000000000000000000000000000000000000000000000000000000000000000000000000000000000000000000000000000000000000000000000000000000000000000000000000000000000000000000000000000000000000000083020000018401c9c380830762968203e800a00000000000000000000000000000000000000000000000000000000000000000880000000000000000f862f860800a830f424094100000000000000000000000000000000000000080801ba0878fccf1801724b1bfb5b0a67d68454b9c56fe9e3753200bc36cd66eed5636eca00dc53455b0e859433799ddbe3c16f98e70c52b6bf684992d9907dc9d1ccb03f1c0",
                "blockHeader" : {
                    "bloom" : "0x00000000000000000000000000000000000000000000000000000000000000000000000000000000000000000000000000000000000000000000000000000000000000000000000000000000000000000000000000000000000000000000000000000000000000000000000000000000000000000000000000000000000000000000000000000000000000000000000000000000000000000000000000000000000000000000000000000000000000000000000000000000000000000000000000000000000000000000000000000000000000000000000000000000000000000000000000000000000000000000000000000000000000000000000000000000",
                    "coinbase" : "0x2adc25665018aa1fe0e6bc666dac8fc2697ff9ba",
                    "difficulty" : "0x020000",
                    "extraData" : "0x00",
                    "gasLimit" : "0x01c9c380",
                    "gasUsed" : "0x076296",
                    "hash" : "0xe653390e10c8c7aa2c5b2696c3a7f0ed30372996b9ffe6f9dcc2d2a7388f5fd8",
                    "mixHash" : "0x0000000000000000000000000000000000000000000000000000000000000000",
                    "nonce" : "0x0000000000000000",
                    "number" : "0x01",
                    "parentHash" : "0x45d1fb8a29d87057fe2f886208b369b65a890c74bc6124496d7a51d5e22fd4d9",
                    "receiptTrie" : "0xfb1fd9313c4cdfb029bdcff18b18b0a31da8d8273c0e8ac96dccccd9865c414c",
                    "stateRoot" : "0x41f1e11c746412264a55911e8f7654556553c15a0a214d6a7ce71ab964c5180f",
                    "timestamp" : "0x03e8",
                    "transactionsTrie" : "0xc8dd60985c2897fe775f0c88b53a0cef6fafa1e2295cee6e65cd8df4b9df6930",
                    "uncleHash" : "0x1dcc4de8dec75d7aab85b567b6ccd41ad312451b948a7413f0a142fd40d49347"
                },
                "transactions" : [
                    {
                        "data" : "0x",
                        "gasLimit" : "0x0f4240",
                        "gasPrice" : "0x0a",
                        "nonce" : "0x00",
                        "to" : "0x1000000000000000000000000000000000000000",
                        "value" : "0x00",
                        "v" : "0x1b",
                        "r" : "0x878fccf1801724b1bfb5b0a67d68454b9c56fe9e3753200bc36cd66eed5636ec",
                        "s" : "0x0dc53455b0e859433799ddbe3c16f98e70c52b6bf684992d9907dc9d1ccb03f1"
                    }
                ],
                "uncleHeaders" : [
                ]
            }
        ]
    },
    "callcodecallcallcode_101_OOGE_d0g0v0_London" : {
        "_info" : {
            "comment" : "DELEGATE -> CALL -> DELEGATE -> CODE OOG",
            "filling-rpc-server" : "evm version 1.10.4-unstable-966ee3ae-20210528",
            "filling-tool-version" : "retesteth-0.1.1-eip1559+commit.658fc3a8.Linux.g++",
            "lllcversion" : "Version: 0.5.14-develop.2021.5.18+commit.14c9d5de.mod.Linux.g++",
            "source" : "src/GeneralStateTestsFiller/stCallDelegateCodesHomestead/callcodecallcallcode_101_OOGEFiller.json",
            "sourceHash" : "da158d3aeb0f66006959419a88f08063241ac2a032eae17b8735ea647d7781f1"
        },
        "genesisBlockHeader" : {
            "bloom" : "0x00000000000000000000000000000000000000000000000000000000000000000000000000000000000000000000000000000000000000000000000000000000000000000000000000000000000000000000000000000000000000000000000000000000000000000000000000000000000000000000000000000000000000000000000000000000000000000000000000000000000000000000000000000000000000000000000000000000000000000000000000000000000000000000000000000000000000000000000000000000000000000000000000000000000000000000000000000000000000000000000000000000000000000000000000000000",
            "coinbase" : "0x2adc25665018aa1fe0e6bc666dac8fc2697ff9ba",
            "difficulty" : "0x020000",
            "extraData" : "0x00",
            "gasLimit" : "0x01c9c380",
            "gasUsed" : "0x00",
            "hash" : "0x76929b3b2327cf654142851e8acfe801135031c786a5e879167c3181bb7fde2c",
            "mixHash" : "0x0000000000000000000000000000000000000000000000000000000000000000",
            "nonce" : "0x0000000000000000",
            "number" : "0x00",
            "parentHash" : "0x0000000000000000000000000000000000000000000000000000000000000000",
            "receiptTrie" : "0x56e81f171bcc55a6ff8345e692c0f86e5b48e01b996cadc001622fb5e363b421",
            "stateRoot" : "0x4df86502487c030ae442f7249c4a1f0f1e35e1a0f0f8f0ca96f3333e96233e25",
            "timestamp" : "0x00",
            "transactionsTrie" : "0x56e81f171bcc55a6ff8345e692c0f86e5b48e01b996cadc001622fb5e363b421",
            "uncleHash" : "0x1dcc4de8dec75d7aab85b567b6ccd41ad312451b948a7413f0a142fd40d49347",
            "baseFee" : "0x0b"
        },
        "pre" : {
            "0x1000000000000000000000000000000000000000" : {
                "balance" : "0x0de0b6b3a7640000",
                "code" : "0x6040600060406000731000000000000000000000000000000000000001620c3500f460005500",
                "nonce" : "0x00",
                "storage" : {
                }
            },
            "0x1000000000000000000000000000000000000001" : {
                "balance" : "0x00",
                "code" : "0x60406000604060006000731000000000000000000000000000000000000002620927c0f160015500",
                "nonce" : "0x00",
                "storage" : {
                }
            },
            "0x1000000000000000000000000000000000000002" : {
                "balance" : "0x00",
                "code" : "0x604060006040600073100000000000000000000000000000000000000362061a80f46002556001600b5500",
                "nonce" : "0x00",
                "storage" : {
                }
            },
            "0x1000000000000000000000000000000000000003" : {
                "balance" : "0x00",
                "code" : "0x6001600355622fffff60002000",
                "nonce" : "0x00",
                "storage" : {
                }
            },
            "0xa94f5374fce5edbc8e2a8697c15331677e6ebf0b" : {
                "balance" : "0x0de0b6b3a7640000",
                "code" : "0x",
                "nonce" : "0x00",
                "storage" : {
                }
            }
        },
        "postState" : {
            "0x1000000000000000000000000000000000000000" : {
                "code" : "0x6040600060406000731000000000000000000000000000000000000001620c3500f460005500",
                "nonce" : "0x00",
                "balance" : "0x0de0b6b3a7640000",
                "storage" : {
                    "0x00" : "0x01",
                    "0x01" : "0x01"
                }
            },
            "0x1000000000000000000000000000000000000001" : {
                "code" : "0x60406000604060006000731000000000000000000000000000000000000002620927c0f160015500",
                "nonce" : "0x00",
                "balance" : "0x00",
                "storage" : {
                }
            },
            "0x1000000000000000000000000000000000000002" : {
                "code" : "0x604060006040600073100000000000000000000000000000000000000362061a80f46002556001600b5500",
                "nonce" : "0x00",
                "balance" : "0x00",
                "storage" : {
                    "0x0b" : "0x01"
                }
            },
            "0x1000000000000000000000000000000000000003" : {
                "code" : "0x6001600355622fffff60002000",
                "nonce" : "0x00",
                "balance" : "0x00",
                "storage" : {
                }
            },
            "0x2adc25665018aa1fe0e6bc666dac8fc2697ff9ba" : {
                "code" : "0x",
                "nonce" : "0x00",
                "balance" : "0x1bc16d674ec80000",
                "storage" : {
                }
            },
            "0xa94f5374fce5edbc8e2a8697c15331677e6ebf0b" : {
                "code" : "0x",
                "nonce" : "0x01",
                "balance" : "0x0de0b6b3a7181ab4",
                "storage" : {
                }
            }
        },
        "network" : "London",
        "sealEngine" : "NoProof",
        "lastblockhash" : "0x7915f09b8c6c9654f77af006c80e86677b32fdb6eab927814f2da1c3278fff4e",
        "genesisRLP" : "0xf901faf901f5a00000000000000000000000000000000000000000000000000000000000000000a01dcc4de8dec75d7aab85b567b6ccd41ad312451b948a7413f0a142fd40d49347942adc25665018aa1fe0e6bc666dac8fc2697ff9baa04df86502487c030ae442f7249c4a1f0f1e35e1a0f0f8f0ca96f3333e96233e25a056e81f171bcc55a6ff8345e692c0f86e5b48e01b996cadc001622fb5e363b421a056e81f171bcc55a6ff8345e692c0f86e5b48e01b996cadc001622fb5e363b421b901000000000000000000000000000000000000000000000000000000000000000000000000000000000000000000000000000000000000000000000000000000000000000000000000000000000000000000000000000000000000000000000000000000000000000000000000000000000000000000000000000000000000000000000000000000000000000000000000000000000000000000000000000000000000000000000000000000000000000000000000000000000000000000000000000000000000000000000000000000000000000000000000000000000000000000000000000000000000000000000000000000000000000000000000000000000083020000808401c9c380808000a000000000000000000000000000000000000000000000000000000000000000008800000000000000000bc0c0",
        "blocks" : [
            {
                "rlp" : "0xf90262f901faa076929b3b2327cf654142851e8acfe801135031c786a5e879167c3181bb7fde2ca01dcc4de8dec75d7aab85b567b6ccd41ad312451b948a7413f0a142fd40d49347942adc25665018aa1fe0e6bc666dac8fc2697ff9baa0afcc8e4768fac7f6c21d60e22ce9bd9cf44b2b80203482329154cd5e711dc442a0c8dd60985c2897fe775f0c88b53a0cef6fafa1e2295cee6e65cd8df4b9df6930a0cced286cc3d9d76bc32f2b2d91376ad1d3b5caa9069b89c3fda44e409d663f04b901000000000000000000000000000000000000000000000000000000000000000000000000000000000000000000000000000000000000000000000000000000000000000000000000000000000000000000000000000000000000000000000000000000000000000000000000000000000000000000000000000000000000000000000000000000000000000000000000000000000000000000000000000000000000000000000000000000000000000000000000000000000000000000000000000000000000000000000000000000000000000000000000000000000000000000000000000000000000000000000000000000000000000000000000000000000083020000018401c9c380830796ee8203e800a000000000000000000000000000000000000000000000000000000000000000008800000000000000000af862f860800a830f424094100000000000000000000000000000000000000080801ba0878fccf1801724b1bfb5b0a67d68454b9c56fe9e3753200bc36cd66eed5636eca00dc53455b0e859433799ddbe3c16f98e70c52b6bf684992d9907dc9d1ccb03f1c0",
                "blockHeader" : {
                    "bloom" : "0x00000000000000000000000000000000000000000000000000000000000000000000000000000000000000000000000000000000000000000000000000000000000000000000000000000000000000000000000000000000000000000000000000000000000000000000000000000000000000000000000000000000000000000000000000000000000000000000000000000000000000000000000000000000000000000000000000000000000000000000000000000000000000000000000000000000000000000000000000000000000000000000000000000000000000000000000000000000000000000000000000000000000000000000000000000000",
                    "coinbase" : "0x2adc25665018aa1fe0e6bc666dac8fc2697ff9ba",
                    "difficulty" : "0x020000",
                    "extraData" : "0x00",
                    "gasLimit" : "0x01c9c380",
                    "gasUsed" : "0x0796ee",
                    "hash" : "0x7915f09b8c6c9654f77af006c80e86677b32fdb6eab927814f2da1c3278fff4e",
                    "mixHash" : "0x0000000000000000000000000000000000000000000000000000000000000000",
                    "nonce" : "0x0000000000000000",
                    "number" : "0x01",
                    "parentHash" : "0x76929b3b2327cf654142851e8acfe801135031c786a5e879167c3181bb7fde2c",
                    "receiptTrie" : "0xcced286cc3d9d76bc32f2b2d91376ad1d3b5caa9069b89c3fda44e409d663f04",
                    "stateRoot" : "0xafcc8e4768fac7f6c21d60e22ce9bd9cf44b2b80203482329154cd5e711dc442",
                    "timestamp" : "0x03e8",
                    "transactionsTrie" : "0xc8dd60985c2897fe775f0c88b53a0cef6fafa1e2295cee6e65cd8df4b9df6930",
                    "uncleHash" : "0x1dcc4de8dec75d7aab85b567b6ccd41ad312451b948a7413f0a142fd40d49347",
                    "baseFee" : "0x0a"
                },
                "transactions" : [
                    {
                        "data" : "0x",
                        "gasLimit" : "0x0f4240",
                        "gasPrice" : "0x0a",
                        "nonce" : "0x00",
                        "to" : "0x1000000000000000000000000000000000000000",
                        "value" : "0x00",
                        "v" : "0x1b",
                        "r" : "0x878fccf1801724b1bfb5b0a67d68454b9c56fe9e3753200bc36cd66eed5636ec",
                        "s" : "0x0dc53455b0e859433799ddbe3c16f98e70c52b6bf684992d9907dc9d1ccb03f1"
                    }
                ],
                "uncleHeaders" : [
                ]
            }
        ]
    }
}