{
    "failed_tx_xcf416c53_d0g0v0_Byzantium" : {
        "_info" : {
            "comment" : "",
            "filledwith" : "testeth 1.7.0-alpha.1-20+commit.782a7283",
            "lllcversion" : "Version: 0.5.0-develop.2018.11.9+commit.9709dfe0.Linux.g++",
            "source" : "src/BlockchainTestsFiller/GeneralStateTests/stSpecialTest/failed_tx_xcf416c53_d0g0v0Filler.json",
            "sourceHash" : "ddd83dfb1bf0fbd73d24be61f564696fa35035e7885ddd5ca6732977f8f3867d"
        },
        "blocks" : [
            {
                "blockHeader" : {
                    "bloom" : "0x00000000000000000000000000000000000000000000000000000000000000000000000000000000000000000000000000000000000000000000000000000000000000000000000000000000000000000000000000000000000000000000000000000000000000000000000000000000000000000000000000000000000000000000000000000000000000000000000000000000000000000000000000000000000000000000000000000000000000000000000000000000000000000000000000000000000000000000000000000000000000000000000000000000000000000000000000000000000000000000000000000000000000000000000000000000",
                    "coinbase" : "0x68795c4aa09d6f4ed3e5deddf8c2ad3049a601da",
                    "difficulty" : "0x020000",
                    "extraData" : "0x",
                    "gasLimit" : "0x1e8480",
                    "gasUsed" : "0x089979",
                    "hash" : "0x594dd9e8434a50aafb0d011471ddf42f4d68ae0e733e6e62b0ef6d548cb495f3",
                    "mixHash" : "0x0000000000000000000000000000000000000000000000000000000000000000",
                    "nonce" : "0x0000000000000000",
                    "number" : "0x01",
                    "parentHash" : "0x54da4c8127438d4372ae2f02c5300bf1b8bfb809b9fffe5f9a9fd752b9ec9c38",
                    "receiptTrie" : "0x134250d71c70bc9a306e622ea1fcaaf1da6c97942dfbc015866e5f5db7457dc4",
                    "stateRoot" : "0x27d231171cb978ccf09734ca7eb193ca43a0095558909550e9826ead8eaa5aca",
                    "timestamp" : "0x03e8",
                    "transactionsTrie" : "0xa89e4908dab3b9c1bd296492981e2531591f34f001e85d14444905667c0db09e",
                    "uncleHash" : "0x1dcc4de8dec75d7aab85b567b6ccd41ad312451b948a7413f0a142fd40d49347"
                },
                "rlp" : "0xf902a5f901f8a054da4c8127438d4372ae2f02c5300bf1b8bfb809b9fffe5f9a9fd752b9ec9c38a01dcc4de8dec75d7aab85b567b6ccd41ad312451b948a7413f0a142fd40d493479468795c4aa09d6f4ed3e5deddf8c2ad3049a601daa027d231171cb978ccf09734ca7eb193ca43a0095558909550e9826ead8eaa5acaa0a89e4908dab3b9c1bd296492981e2531591f34f001e85d14444905667c0db09ea0134250d71c70bc9a306e622ea1fcaaf1da6c97942dfbc015866e5f5db7457dc4b90100000000000000000000000000000000000000000000000000000000000000000000000000000000000000000000000000000000000000000000000000000000000000000000000000000000000000000000000000000000000000000000000000000000000000000000000000000000000000000000000000000000000000000000000000000000000000000000000000000000000000000000000000000000000000000000000000000000000000000000000000000000000000000000000000000000000000000000000000000000000000000000000000000000000000000000000000000000000000000000000000000000000000000000000000000000008302000001831e8480830899798203e880a00000000000000000000000000000000000000000000000000000000000000000880000000000000000f8a7f8a5010183099cf0940e879ae28cdddeb31a405a9db354505a5560b0bd80b84497dd3054000000000000000000000000000000000000000000000000000000000000000000000000000000000000000000000000000000000000000000000000000002bc1ba0a7a1fd1df0db2196f0b3d46632897d2173ec9b24810dc89273ad922ecdd7dde9a06e4b3ffe2e9d049f2460bb1659d3b04a56499c5a8b19809928d13d969de15454c0",
                "transactions" : [
                    {
                        "data" : "0x97dd3054000000000000000000000000000000000000000000000000000000000000000000000000000000000000000000000000000000000000000000000000000002bc",
                        "gasLimit" : "0x099cf0",
                        "gasPrice" : "0x01",
                        "nonce" : "0x01",
                        "r" : "0xa7a1fd1df0db2196f0b3d46632897d2173ec9b24810dc89273ad922ecdd7dde9",
                        "s" : "0x6e4b3ffe2e9d049f2460bb1659d3b04a56499c5a8b19809928d13d969de15454",
                        "to" : "0x0e879ae28cdddeb31a405a9db354505a5560b0bd",
                        "v" : "0x1b",
                        "value" : "0x00"
                    }
                ],
                "uncleHeaders" : [
                ]
            }
        ],
        "genesisBlockHeader" : {
            "bloom" : "0x00000000000000000000000000000000000000000000000000000000000000000000000000000000000000000000000000000000000000000000000000000000000000000000000000000000000000000000000000000000000000000000000000000000000000000000000000000000000000000000000000000000000000000000000000000000000000000000000000000000000000000000000000000000000000000000000000000000000000000000000000000000000000000000000000000000000000000000000000000000000000000000000000000000000000000000000000000000000000000000000000000000000000000000000000000000",
            "coinbase" : "0x68795c4aa09d6f4ed3e5deddf8c2ad3049a601da",
            "difficulty" : "0x020000",
            "extraData" : "0x42",
            "gasLimit" : "0x1e8480",
            "gasUsed" : "0x00",
            "hash" : "0x54da4c8127438d4372ae2f02c5300bf1b8bfb809b9fffe5f9a9fd752b9ec9c38",
            "mixHash" : "0x56e81f171bcc55a6ff8345e692c0f86e5b48e01b996cadc001622fb5e363b421",
            "nonce" : "0x0102030405060708",
            "number" : "0x00",
            "parentHash" : "0x0000000000000000000000000000000000000000000000000000000000000000",
            "receiptTrie" : "0x56e81f171bcc55a6ff8345e692c0f86e5b48e01b996cadc001622fb5e363b421",
            "stateRoot" : "0x071f5dbe08f2a3b33b8c4a046998e5e5d7131356f95c13da91a2062236b92642",
            "timestamp" : "0x03b6",
            "transactionsTrie" : "0x56e81f171bcc55a6ff8345e692c0f86e5b48e01b996cadc001622fb5e363b421",
            "uncleHash" : "0x1dcc4de8dec75d7aab85b567b6ccd41ad312451b948a7413f0a142fd40d49347"
        },
        "genesisRLP" : "0xf901faf901f5a00000000000000000000000000000000000000000000000000000000000000000a01dcc4de8dec75d7aab85b567b6ccd41ad312451b948a7413f0a142fd40d493479468795c4aa09d6f4ed3e5deddf8c2ad3049a601daa0071f5dbe08f2a3b33b8c4a046998e5e5d7131356f95c13da91a2062236b92642a056e81f171bcc55a6ff8345e692c0f86e5b48e01b996cadc001622fb5e363b421a056e81f171bcc55a6ff8345e692c0f86e5b48e01b996cadc001622fb5e363b421b90100000000000000000000000000000000000000000000000000000000000000000000000000000000000000000000000000000000000000000000000000000000000000000000000000000000000000000000000000000000000000000000000000000000000000000000000000000000000000000000000000000000000000000000000000000000000000000000000000000000000000000000000000000000000000000000000000000000000000000000000000000000000000000000000000000000000000000000000000000000000000000000000000000000000000000000000000000000000000000000000000000000000000000000000000000000008302000080831e8480808203b642a056e81f171bcc55a6ff8345e692c0f86e5b48e01b996cadc001622fb5e363b421880102030405060708c0c0",
        "lastblockhash" : "0x594dd9e8434a50aafb0d011471ddf42f4d68ae0e733e6e62b0ef6d548cb495f3",
        "network" : "Byzantium",
        "postState" : {
            "0x0e879ae28cdddeb31a405a9db354505a5560b0bd" : {
                "balance" : "0x00",
                "code" : "0x7c0100000000000000000000000000000000000000000000000000000000600035046397dd3054811415610065576004356040526024356060526040516060515b808212156100625760006000600060006000866000f150600182019150610040565b50505b50",
                "nonce" : "0x00",
                "storage" : {
                }
            },
            "0x68795c4aa09d6f4ed3e5deddf8c2ad3049a601da" : {
                "balance" : "0x29a2241af6349979",
                "code" : "0x",
                "nonce" : "0x00",
                "storage" : {
                }
            },
            "0xa94f5374fce5edbc8e2a8697c15331677e6ebf0b" : {
                "balance" : "0x0de0b6b3a75b6687",
                "code" : "0x",
                "nonce" : "0x02",
                "storage" : {
                }
            }
        },
        "pre" : {
            "0x0000000000000000000000000000000000000003" : {
                "balance" : "0x00",
                "code" : "0x",
                "nonce" : "0x00",
                "storage" : {
                }
            },
            "0x0e879ae28cdddeb31a405a9db354505a5560b0bd" : {
                "balance" : "0x00",
                "code" : "0x7c0100000000000000000000000000000000000000000000000000000000600035046397dd3054811415610065576004356040526024356060526040516060515b808212156100625760006000600060006000866000f150600182019150610040565b50505b50",
                "nonce" : "0x00",
                "storage" : {
                }
            },
            "0xa94f5374fce5edbc8e2a8697c15331677e6ebf0b" : {
                "balance" : "0x0de0b6b3a7640000",
                "code" : "0x",
                "nonce" : "0x01",
                "storage" : {
                }
            }
        },
        "sealEngine" : "NoProof"
    },
    "failed_tx_xcf416c53_d0g0v0_Constantinople" : {
        "_info" : {
            "comment" : "",
            "filledwith" : "testeth 1.7.0-alpha.1-20+commit.782a7283",
            "lllcversion" : "Version: 0.5.0-develop.2018.11.9+commit.9709dfe0.Linux.g++",
            "source" : "src/BlockchainTestsFiller/GeneralStateTests/stSpecialTest/failed_tx_xcf416c53_d0g0v0Filler.json",
            "sourceHash" : "ddd83dfb1bf0fbd73d24be61f564696fa35035e7885ddd5ca6732977f8f3867d"
        },
        "blocks" : [
            {
                "blockHeader" : {
                    "bloom" : "0x00000000000000000000000000000000000000000000000000000000000000000000000000000000000000000000000000000000000000000000000000000000000000000000000000000000000000000000000000000000000000000000000000000000000000000000000000000000000000000000000000000000000000000000000000000000000000000000000000000000000000000000000000000000000000000000000000000000000000000000000000000000000000000000000000000000000000000000000000000000000000000000000000000000000000000000000000000000000000000000000000000000000000000000000000000000",
                    "coinbase" : "0x68795c4aa09d6f4ed3e5deddf8c2ad3049a601da",
                    "difficulty" : "0x020000",
                    "extraData" : "0x",
                    "gasLimit" : "0x1e8480",
                    "gasUsed" : "0x089979",
                    "hash" : "0x79dee482ca6114655b218e16e1164f6c9b42d399a42149a4d8a8344acf35ddcb",
                    "mixHash" : "0x0000000000000000000000000000000000000000000000000000000000000000",
                    "nonce" : "0x0000000000000000",
                    "number" : "0x01",
                    "parentHash" : "0x54da4c8127438d4372ae2f02c5300bf1b8bfb809b9fffe5f9a9fd752b9ec9c38",
                    "receiptTrie" : "0x134250d71c70bc9a306e622ea1fcaaf1da6c97942dfbc015866e5f5db7457dc4",
                    "stateRoot" : "0x4970ee6ace70fdbc61a3bac3734ab124d5fed57f3ca7c5a232378be855b68ec3",
                    "timestamp" : "0x03e8",
                    "transactionsTrie" : "0xa89e4908dab3b9c1bd296492981e2531591f34f001e85d14444905667c0db09e",
                    "uncleHash" : "0x1dcc4de8dec75d7aab85b567b6ccd41ad312451b948a7413f0a142fd40d49347"
                },
                "rlp" : "0xf902a5f901f8a054da4c8127438d4372ae2f02c5300bf1b8bfb809b9fffe5f9a9fd752b9ec9c38a01dcc4de8dec75d7aab85b567b6ccd41ad312451b948a7413f0a142fd40d493479468795c4aa09d6f4ed3e5deddf8c2ad3049a601daa04970ee6ace70fdbc61a3bac3734ab124d5fed57f3ca7c5a232378be855b68ec3a0a89e4908dab3b9c1bd296492981e2531591f34f001e85d14444905667c0db09ea0134250d71c70bc9a306e622ea1fcaaf1da6c97942dfbc015866e5f5db7457dc4b90100000000000000000000000000000000000000000000000000000000000000000000000000000000000000000000000000000000000000000000000000000000000000000000000000000000000000000000000000000000000000000000000000000000000000000000000000000000000000000000000000000000000000000000000000000000000000000000000000000000000000000000000000000000000000000000000000000000000000000000000000000000000000000000000000000000000000000000000000000000000000000000000000000000000000000000000000000000000000000000000000000000000000000000000000000000008302000001831e8480830899798203e880a00000000000000000000000000000000000000000000000000000000000000000880000000000000000f8a7f8a5010183099cf0940e879ae28cdddeb31a405a9db354505a5560b0bd80b84497dd3054000000000000000000000000000000000000000000000000000000000000000000000000000000000000000000000000000000000000000000000000000002bc1ba0a7a1fd1df0db2196f0b3d46632897d2173ec9b24810dc89273ad922ecdd7dde9a06e4b3ffe2e9d049f2460bb1659d3b04a56499c5a8b19809928d13d969de15454c0",
                "transactions" : [
                    {
                        "data" : "0x97dd3054000000000000000000000000000000000000000000000000000000000000000000000000000000000000000000000000000000000000000000000000000002bc",
                        "gasLimit" : "0x099cf0",
                        "gasPrice" : "0x01",
                        "nonce" : "0x01",
                        "r" : "0xa7a1fd1df0db2196f0b3d46632897d2173ec9b24810dc89273ad922ecdd7dde9",
                        "s" : "0x6e4b3ffe2e9d049f2460bb1659d3b04a56499c5a8b19809928d13d969de15454",
                        "to" : "0x0e879ae28cdddeb31a405a9db354505a5560b0bd",
                        "v" : "0x1b",
                        "value" : "0x00"
                    }
                ],
                "uncleHeaders" : [
                ]
            }
        ],
        "genesisBlockHeader" : {
            "bloom" : "0x00000000000000000000000000000000000000000000000000000000000000000000000000000000000000000000000000000000000000000000000000000000000000000000000000000000000000000000000000000000000000000000000000000000000000000000000000000000000000000000000000000000000000000000000000000000000000000000000000000000000000000000000000000000000000000000000000000000000000000000000000000000000000000000000000000000000000000000000000000000000000000000000000000000000000000000000000000000000000000000000000000000000000000000000000000000",
            "coinbase" : "0x68795c4aa09d6f4ed3e5deddf8c2ad3049a601da",
            "difficulty" : "0x020000",
            "extraData" : "0x42",
            "gasLimit" : "0x1e8480",
            "gasUsed" : "0x00",
            "hash" : "0x54da4c8127438d4372ae2f02c5300bf1b8bfb809b9fffe5f9a9fd752b9ec9c38",
            "mixHash" : "0x56e81f171bcc55a6ff8345e692c0f86e5b48e01b996cadc001622fb5e363b421",
            "nonce" : "0x0102030405060708",
            "number" : "0x00",
            "parentHash" : "0x0000000000000000000000000000000000000000000000000000000000000000",
            "receiptTrie" : "0x56e81f171bcc55a6ff8345e692c0f86e5b48e01b996cadc001622fb5e363b421",
            "stateRoot" : "0x071f5dbe08f2a3b33b8c4a046998e5e5d7131356f95c13da91a2062236b92642",
            "timestamp" : "0x03b6",
            "transactionsTrie" : "0x56e81f171bcc55a6ff8345e692c0f86e5b48e01b996cadc001622fb5e363b421",
            "uncleHash" : "0x1dcc4de8dec75d7aab85b567b6ccd41ad312451b948a7413f0a142fd40d49347"
        },
        "genesisRLP" : "0xf901faf901f5a00000000000000000000000000000000000000000000000000000000000000000a01dcc4de8dec75d7aab85b567b6ccd41ad312451b948a7413f0a142fd40d493479468795c4aa09d6f4ed3e5deddf8c2ad3049a601daa0071f5dbe08f2a3b33b8c4a046998e5e5d7131356f95c13da91a2062236b92642a056e81f171bcc55a6ff8345e692c0f86e5b48e01b996cadc001622fb5e363b421a056e81f171bcc55a6ff8345e692c0f86e5b48e01b996cadc001622fb5e363b421b90100000000000000000000000000000000000000000000000000000000000000000000000000000000000000000000000000000000000000000000000000000000000000000000000000000000000000000000000000000000000000000000000000000000000000000000000000000000000000000000000000000000000000000000000000000000000000000000000000000000000000000000000000000000000000000000000000000000000000000000000000000000000000000000000000000000000000000000000000000000000000000000000000000000000000000000000000000000000000000000000000000000000000000000000000000000008302000080831e8480808203b642a056e81f171bcc55a6ff8345e692c0f86e5b48e01b996cadc001622fb5e363b421880102030405060708c0c0",
        "lastblockhash" : "0x79dee482ca6114655b218e16e1164f6c9b42d399a42149a4d8a8344acf35ddcb",
        "network" : "Constantinople",
        "postState" : {
            "0x0e879ae28cdddeb31a405a9db354505a5560b0bd" : {
                "balance" : "0x00",
                "code" : "0x7c0100000000000000000000000000000000000000000000000000000000600035046397dd3054811415610065576004356040526024356060526040516060515b808212156100625760006000600060006000866000f150600182019150610040565b50505b50",
                "nonce" : "0x00",
                "storage" : {
                }
            },
            "0x68795c4aa09d6f4ed3e5deddf8c2ad3049a601da" : {
                "balance" : "0x1bc16d674ed09979",
                "code" : "0x",
                "nonce" : "0x00",
                "storage" : {
                }
            },
            "0xa94f5374fce5edbc8e2a8697c15331677e6ebf0b" : {
                "balance" : "0x0de0b6b3a75b6687",
                "code" : "0x",
                "nonce" : "0x02",
                "storage" : {
                }
            }
        },
        "pre" : {
            "0x0000000000000000000000000000000000000003" : {
                "balance" : "0x00",
                "code" : "0x",
                "nonce" : "0x00",
                "storage" : {
                }
            },
            "0x0e879ae28cdddeb31a405a9db354505a5560b0bd" : {
                "balance" : "0x00",
                "code" : "0x7c0100000000000000000000000000000000000000000000000000000000600035046397dd3054811415610065576004356040526024356060526040516060515b808212156100625760006000600060006000866000f150600182019150610040565b50505b50",
                "nonce" : "0x00",
                "storage" : {
                }
            },
            "0xa94f5374fce5edbc8e2a8697c15331677e6ebf0b" : {
                "balance" : "0x0de0b6b3a7640000",
                "code" : "0x",
                "nonce" : "0x01",
                "storage" : {
                }
            }
        },
        "sealEngine" : "NoProof"
    },
    "failed_tx_xcf416c53_d0g0v0_ConstantinopleFix" : {
        "_info" : {
            "comment" : "",
            "filledwith" : "testeth 1.7.0-alpha.1-20+commit.782a7283",
            "lllcversion" : "Version: 0.5.0-develop.2018.11.9+commit.9709dfe0.Linux.g++",
            "source" : "src/BlockchainTestsFiller/GeneralStateTests/stSpecialTest/failed_tx_xcf416c53_d0g0v0Filler.json",
            "sourceHash" : "ddd83dfb1bf0fbd73d24be61f564696fa35035e7885ddd5ca6732977f8f3867d"
        },
        "blocks" : [
            {
                "blockHeader" : {
                    "bloom" : "0x00000000000000000000000000000000000000000000000000000000000000000000000000000000000000000000000000000000000000000000000000000000000000000000000000000000000000000000000000000000000000000000000000000000000000000000000000000000000000000000000000000000000000000000000000000000000000000000000000000000000000000000000000000000000000000000000000000000000000000000000000000000000000000000000000000000000000000000000000000000000000000000000000000000000000000000000000000000000000000000000000000000000000000000000000000000",
                    "coinbase" : "0x68795c4aa09d6f4ed3e5deddf8c2ad3049a601da",
                    "difficulty" : "0x020000",
                    "extraData" : "0x",
                    "gasLimit" : "0x1e8480",
                    "gasUsed" : "0x089979",
                    "hash" : "0x79dee482ca6114655b218e16e1164f6c9b42d399a42149a4d8a8344acf35ddcb",
                    "mixHash" : "0x0000000000000000000000000000000000000000000000000000000000000000",
                    "nonce" : "0x0000000000000000",
                    "number" : "0x01",
                    "parentHash" : "0x54da4c8127438d4372ae2f02c5300bf1b8bfb809b9fffe5f9a9fd752b9ec9c38",
                    "receiptTrie" : "0x134250d71c70bc9a306e622ea1fcaaf1da6c97942dfbc015866e5f5db7457dc4",
                    "stateRoot" : "0x4970ee6ace70fdbc61a3bac3734ab124d5fed57f3ca7c5a232378be855b68ec3",
                    "timestamp" : "0x03e8",
                    "transactionsTrie" : "0xa89e4908dab3b9c1bd296492981e2531591f34f001e85d14444905667c0db09e",
                    "uncleHash" : "0x1dcc4de8dec75d7aab85b567b6ccd41ad312451b948a7413f0a142fd40d49347"
                },
                "rlp" : "0xf902a5f901f8a054da4c8127438d4372ae2f02c5300bf1b8bfb809b9fffe5f9a9fd752b9ec9c38a01dcc4de8dec75d7aab85b567b6ccd41ad312451b948a7413f0a142fd40d493479468795c4aa09d6f4ed3e5deddf8c2ad3049a601daa04970ee6ace70fdbc61a3bac3734ab124d5fed57f3ca7c5a232378be855b68ec3a0a89e4908dab3b9c1bd296492981e2531591f34f001e85d14444905667c0db09ea0134250d71c70bc9a306e622ea1fcaaf1da6c97942dfbc015866e5f5db7457dc4b90100000000000000000000000000000000000000000000000000000000000000000000000000000000000000000000000000000000000000000000000000000000000000000000000000000000000000000000000000000000000000000000000000000000000000000000000000000000000000000000000000000000000000000000000000000000000000000000000000000000000000000000000000000000000000000000000000000000000000000000000000000000000000000000000000000000000000000000000000000000000000000000000000000000000000000000000000000000000000000000000000000000000000000000000000000000008302000001831e8480830899798203e880a00000000000000000000000000000000000000000000000000000000000000000880000000000000000f8a7f8a5010183099cf0940e879ae28cdddeb31a405a9db354505a5560b0bd80b84497dd3054000000000000000000000000000000000000000000000000000000000000000000000000000000000000000000000000000000000000000000000000000002bc1ba0a7a1fd1df0db2196f0b3d46632897d2173ec9b24810dc89273ad922ecdd7dde9a06e4b3ffe2e9d049f2460bb1659d3b04a56499c5a8b19809928d13d969de15454c0",
                "transactions" : [
                    {
                        "data" : "0x97dd3054000000000000000000000000000000000000000000000000000000000000000000000000000000000000000000000000000000000000000000000000000002bc",
                        "gasLimit" : "0x099cf0",
                        "gasPrice" : "0x01",
                        "nonce" : "0x01",
                        "r" : "0xa7a1fd1df0db2196f0b3d46632897d2173ec9b24810dc89273ad922ecdd7dde9",
                        "s" : "0x6e4b3ffe2e9d049f2460bb1659d3b04a56499c5a8b19809928d13d969de15454",
                        "to" : "0x0e879ae28cdddeb31a405a9db354505a5560b0bd",
                        "v" : "0x1b",
                        "value" : "0x00"
                    }
                ],
                "uncleHeaders" : [
                ]
            }
        ],
        "genesisBlockHeader" : {
            "bloom" : "0x00000000000000000000000000000000000000000000000000000000000000000000000000000000000000000000000000000000000000000000000000000000000000000000000000000000000000000000000000000000000000000000000000000000000000000000000000000000000000000000000000000000000000000000000000000000000000000000000000000000000000000000000000000000000000000000000000000000000000000000000000000000000000000000000000000000000000000000000000000000000000000000000000000000000000000000000000000000000000000000000000000000000000000000000000000000",
            "coinbase" : "0x68795c4aa09d6f4ed3e5deddf8c2ad3049a601da",
            "difficulty" : "0x020000",
            "extraData" : "0x42",
            "gasLimit" : "0x1e8480",
            "gasUsed" : "0x00",
            "hash" : "0x54da4c8127438d4372ae2f02c5300bf1b8bfb809b9fffe5f9a9fd752b9ec9c38",
            "mixHash" : "0x56e81f171bcc55a6ff8345e692c0f86e5b48e01b996cadc001622fb5e363b421",
            "nonce" : "0x0102030405060708",
            "number" : "0x00",
            "parentHash" : "0x0000000000000000000000000000000000000000000000000000000000000000",
            "receiptTrie" : "0x56e81f171bcc55a6ff8345e692c0f86e5b48e01b996cadc001622fb5e363b421",
            "stateRoot" : "0x071f5dbe08f2a3b33b8c4a046998e5e5d7131356f95c13da91a2062236b92642",
            "timestamp" : "0x03b6",
            "transactionsTrie" : "0x56e81f171bcc55a6ff8345e692c0f86e5b48e01b996cadc001622fb5e363b421",
            "uncleHash" : "0x1dcc4de8dec75d7aab85b567b6ccd41ad312451b948a7413f0a142fd40d49347"
        },
        "genesisRLP" : "0xf901faf901f5a00000000000000000000000000000000000000000000000000000000000000000a01dcc4de8dec75d7aab85b567b6ccd41ad312451b948a7413f0a142fd40d493479468795c4aa09d6f4ed3e5deddf8c2ad3049a601daa0071f5dbe08f2a3b33b8c4a046998e5e5d7131356f95c13da91a2062236b92642a056e81f171bcc55a6ff8345e692c0f86e5b48e01b996cadc001622fb5e363b421a056e81f171bcc55a6ff8345e692c0f86e5b48e01b996cadc001622fb5e363b421b90100000000000000000000000000000000000000000000000000000000000000000000000000000000000000000000000000000000000000000000000000000000000000000000000000000000000000000000000000000000000000000000000000000000000000000000000000000000000000000000000000000000000000000000000000000000000000000000000000000000000000000000000000000000000000000000000000000000000000000000000000000000000000000000000000000000000000000000000000000000000000000000000000000000000000000000000000000000000000000000000000000000000000000000000000000000008302000080831e8480808203b642a056e81f171bcc55a6ff8345e692c0f86e5b48e01b996cadc001622fb5e363b421880102030405060708c0c0",
        "lastblockhash" : "0x79dee482ca6114655b218e16e1164f6c9b42d399a42149a4d8a8344acf35ddcb",
        "network" : "ConstantinopleFix",
        "postState" : {
            "0x0e879ae28cdddeb31a405a9db354505a5560b0bd" : {
                "balance" : "0x00",
                "code" : "0x7c0100000000000000000000000000000000000000000000000000000000600035046397dd3054811415610065576004356040526024356060526040516060515b808212156100625760006000600060006000866000f150600182019150610040565b50505b50",
                "nonce" : "0x00",
                "storage" : {
                }
            },
            "0x68795c4aa09d6f4ed3e5deddf8c2ad3049a601da" : {
                "balance" : "0x1bc16d674ed09979",
                "code" : "0x",
                "nonce" : "0x00",
                "storage" : {
                }
            },
            "0xa94f5374fce5edbc8e2a8697c15331677e6ebf0b" : {
                "balance" : "0x0de0b6b3a75b6687",
                "code" : "0x",
                "nonce" : "0x02",
                "storage" : {
                }
            }
        },
        "pre" : {
            "0x0000000000000000000000000000000000000003" : {
                "balance" : "0x00",
                "code" : "0x",
                "nonce" : "0x00",
                "storage" : {
                }
            },
            "0x0e879ae28cdddeb31a405a9db354505a5560b0bd" : {
                "balance" : "0x00",
                "code" : "0x7c0100000000000000000000000000000000000000000000000000000000600035046397dd3054811415610065576004356040526024356060526040516060515b808212156100625760006000600060006000866000f150600182019150610040565b50505b50",
                "nonce" : "0x00",
                "storage" : {
                }
            },
            "0xa94f5374fce5edbc8e2a8697c15331677e6ebf0b" : {
                "balance" : "0x0de0b6b3a7640000",
                "code" : "0x",
                "nonce" : "0x01",
                "storage" : {
                }
            }
        },
        "sealEngine" : "NoProof"
    },
    "failed_tx_xcf416c53_d0g0v0_EIP158" : {
        "_info" : {
            "comment" : "",
            "filledwith" : "testeth 1.7.0-alpha.1-20+commit.782a7283",
            "lllcversion" : "Version: 0.5.0-develop.2018.11.9+commit.9709dfe0.Linux.g++",
            "source" : "src/BlockchainTestsFiller/GeneralStateTests/stSpecialTest/failed_tx_xcf416c53_d0g0v0Filler.json",
            "sourceHash" : "ddd83dfb1bf0fbd73d24be61f564696fa35035e7885ddd5ca6732977f8f3867d"
        },
        "blocks" : [
            {
                "blockHeader" : {
                    "bloom" : "0x00000000000000000000000000000000000000000000000000000000000000000000000000000000000000000000000000000000000000000000000000000000000000000000000000000000000000000000000000000000000000000000000000000000000000000000000000000000000000000000000000000000000000000000000000000000000000000000000000000000000000000000000000000000000000000000000000000000000000000000000000000000000000000000000000000000000000000000000000000000000000000000000000000000000000000000000000000000000000000000000000000000000000000000000000000000",
                    "coinbase" : "0x68795c4aa09d6f4ed3e5deddf8c2ad3049a601da",
                    "difficulty" : "0x020000",
                    "extraData" : "0x",
                    "gasLimit" : "0x1e8480",
                    "gasUsed" : "0x089979",
                    "hash" : "0xcd2dea4f5f72458abaa1c746519994e446562066abc969aefc0b4156f1c10e36",
                    "mixHash" : "0x0000000000000000000000000000000000000000000000000000000000000000",
                    "nonce" : "0x0000000000000000",
                    "number" : "0x01",
                    "parentHash" : "0x54da4c8127438d4372ae2f02c5300bf1b8bfb809b9fffe5f9a9fd752b9ec9c38",
                    "receiptTrie" : "0xb93717033b1f6bc01047c6d64119e42bd76eb45fdd9d0d669dc363cfbd609774",
                    "stateRoot" : "0xd76a2864769982ea69f2897a7f8888980ca4e970e19bbb0c12ded7a815f1ce7b",
                    "timestamp" : "0x03e8",
                    "transactionsTrie" : "0xa89e4908dab3b9c1bd296492981e2531591f34f001e85d14444905667c0db09e",
                    "uncleHash" : "0x1dcc4de8dec75d7aab85b567b6ccd41ad312451b948a7413f0a142fd40d49347"
                },
                "rlp" : "0xf902a5f901f8a054da4c8127438d4372ae2f02c5300bf1b8bfb809b9fffe5f9a9fd752b9ec9c38a01dcc4de8dec75d7aab85b567b6ccd41ad312451b948a7413f0a142fd40d493479468795c4aa09d6f4ed3e5deddf8c2ad3049a601daa0d76a2864769982ea69f2897a7f8888980ca4e970e19bbb0c12ded7a815f1ce7ba0a89e4908dab3b9c1bd296492981e2531591f34f001e85d14444905667c0db09ea0b93717033b1f6bc01047c6d64119e42bd76eb45fdd9d0d669dc363cfbd609774b90100000000000000000000000000000000000000000000000000000000000000000000000000000000000000000000000000000000000000000000000000000000000000000000000000000000000000000000000000000000000000000000000000000000000000000000000000000000000000000000000000000000000000000000000000000000000000000000000000000000000000000000000000000000000000000000000000000000000000000000000000000000000000000000000000000000000000000000000000000000000000000000000000000000000000000000000000000000000000000000000000000000000000000000000000000000008302000001831e8480830899798203e880a00000000000000000000000000000000000000000000000000000000000000000880000000000000000f8a7f8a5010183099cf0940e879ae28cdddeb31a405a9db354505a5560b0bd80b84497dd3054000000000000000000000000000000000000000000000000000000000000000000000000000000000000000000000000000000000000000000000000000002bc1ba0a7a1fd1df0db2196f0b3d46632897d2173ec9b24810dc89273ad922ecdd7dde9a06e4b3ffe2e9d049f2460bb1659d3b04a56499c5a8b19809928d13d969de15454c0",
                "transactions" : [
                    {
                        "data" : "0x97dd3054000000000000000000000000000000000000000000000000000000000000000000000000000000000000000000000000000000000000000000000000000002bc",
                        "gasLimit" : "0x099cf0",
                        "gasPrice" : "0x01",
                        "nonce" : "0x01",
                        "r" : "0xa7a1fd1df0db2196f0b3d46632897d2173ec9b24810dc89273ad922ecdd7dde9",
                        "s" : "0x6e4b3ffe2e9d049f2460bb1659d3b04a56499c5a8b19809928d13d969de15454",
                        "to" : "0x0e879ae28cdddeb31a405a9db354505a5560b0bd",
                        "v" : "0x1b",
                        "value" : "0x00"
                    }
                ],
                "uncleHeaders" : [
                ]
            }
        ],
        "genesisBlockHeader" : {
            "bloom" : "0x00000000000000000000000000000000000000000000000000000000000000000000000000000000000000000000000000000000000000000000000000000000000000000000000000000000000000000000000000000000000000000000000000000000000000000000000000000000000000000000000000000000000000000000000000000000000000000000000000000000000000000000000000000000000000000000000000000000000000000000000000000000000000000000000000000000000000000000000000000000000000000000000000000000000000000000000000000000000000000000000000000000000000000000000000000000",
            "coinbase" : "0x68795c4aa09d6f4ed3e5deddf8c2ad3049a601da",
            "difficulty" : "0x020000",
            "extraData" : "0x42",
            "gasLimit" : "0x1e8480",
            "gasUsed" : "0x00",
            "hash" : "0x54da4c8127438d4372ae2f02c5300bf1b8bfb809b9fffe5f9a9fd752b9ec9c38",
            "mixHash" : "0x56e81f171bcc55a6ff8345e692c0f86e5b48e01b996cadc001622fb5e363b421",
            "nonce" : "0x0102030405060708",
            "number" : "0x00",
            "parentHash" : "0x0000000000000000000000000000000000000000000000000000000000000000",
            "receiptTrie" : "0x56e81f171bcc55a6ff8345e692c0f86e5b48e01b996cadc001622fb5e363b421",
            "stateRoot" : "0x071f5dbe08f2a3b33b8c4a046998e5e5d7131356f95c13da91a2062236b92642",
            "timestamp" : "0x03b6",
            "transactionsTrie" : "0x56e81f171bcc55a6ff8345e692c0f86e5b48e01b996cadc001622fb5e363b421",
            "uncleHash" : "0x1dcc4de8dec75d7aab85b567b6ccd41ad312451b948a7413f0a142fd40d49347"
        },
        "genesisRLP" : "0xf901faf901f5a00000000000000000000000000000000000000000000000000000000000000000a01dcc4de8dec75d7aab85b567b6ccd41ad312451b948a7413f0a142fd40d493479468795c4aa09d6f4ed3e5deddf8c2ad3049a601daa0071f5dbe08f2a3b33b8c4a046998e5e5d7131356f95c13da91a2062236b92642a056e81f171bcc55a6ff8345e692c0f86e5b48e01b996cadc001622fb5e363b421a056e81f171bcc55a6ff8345e692c0f86e5b48e01b996cadc001622fb5e363b421b90100000000000000000000000000000000000000000000000000000000000000000000000000000000000000000000000000000000000000000000000000000000000000000000000000000000000000000000000000000000000000000000000000000000000000000000000000000000000000000000000000000000000000000000000000000000000000000000000000000000000000000000000000000000000000000000000000000000000000000000000000000000000000000000000000000000000000000000000000000000000000000000000000000000000000000000000000000000000000000000000000000000000000000000000000000000008302000080831e8480808203b642a056e81f171bcc55a6ff8345e692c0f86e5b48e01b996cadc001622fb5e363b421880102030405060708c0c0",
        "lastblockhash" : "0xcd2dea4f5f72458abaa1c746519994e446562066abc969aefc0b4156f1c10e36",
        "network" : "EIP158",
        "postState" : {
            "0x0e879ae28cdddeb31a405a9db354505a5560b0bd" : {
                "balance" : "0x00",
                "code" : "0x7c0100000000000000000000000000000000000000000000000000000000600035046397dd3054811415610065576004356040526024356060526040516060515b808212156100625760006000600060006000866000f150600182019150610040565b50505b50",
                "nonce" : "0x00",
                "storage" : {
                }
            },
            "0x68795c4aa09d6f4ed3e5deddf8c2ad3049a601da" : {
                "balance" : "0x4563918244fc9979",
                "code" : "0x",
                "nonce" : "0x00",
                "storage" : {
                }
            },
            "0xa94f5374fce5edbc8e2a8697c15331677e6ebf0b" : {
                "balance" : "0x0de0b6b3a75b6687",
                "code" : "0x",
                "nonce" : "0x02",
                "storage" : {
                }
            }
        },
        "pre" : {
            "0x0000000000000000000000000000000000000003" : {
                "balance" : "0x00",
                "code" : "0x",
                "nonce" : "0x00",
                "storage" : {
                }
            },
            "0x0e879ae28cdddeb31a405a9db354505a5560b0bd" : {
                "balance" : "0x00",
                "code" : "0x7c0100000000000000000000000000000000000000000000000000000000600035046397dd3054811415610065576004356040526024356060526040516060515b808212156100625760006000600060006000866000f150600182019150610040565b50505b50",
                "nonce" : "0x00",
                "storage" : {
                }
            },
            "0xa94f5374fce5edbc8e2a8697c15331677e6ebf0b" : {
                "balance" : "0x0de0b6b3a7640000",
                "code" : "0x",
                "nonce" : "0x01",
                "storage" : {
                }
            }
        },
        "sealEngine" : "NoProof"
    }
}