{
    "CALLCODESha256_0" : {
        "_info" : {
            "comment" : "",
            "filling-rpc-server" : "evm version 1.10.4-unstable-966ee3ae-20210528",
            "filling-tool-version" : "retesteth-0.1.1-eip1559+commit.658fc3a8.Linux.g++",
            "lllcversion" : "Version: 0.5.14-develop.2021.5.18+commit.14c9d5de.mod.Linux.g++",
            "source" : "src/GeneralStateTestsFiller/stPreCompiledContracts2/CALLCODESha256_0Filler.json",
            "sourceHash" : "6057e847ae4d9ec65a88a0f8ff8715e6e6857b9b3cb0faf75978a3a7fec6cca4"
        },
        "env" : {
            "currentCoinbase" : "0x2adc25665018aa1fe0e6bc666dac8fc2697ff9ba",
            "currentDifficulty" : "0x020000",
            "currentNumber" : "0x01",
            "currentTimestamp" : "0x03e8",
            "previousHash" : "0x5e20a0453cecd065ea59c37ac63e079ee08998b6045136a8ce6635c7912ec0b6",
            "currentGasLimit" : "0x989680"
        },
        "post" : {
            "Berlin" : [
                {
                    "indexes" : {
                        "data" : 0,
                        "gas" : 0,
                        "value" : 0
                    },
                    "hash" : "0x453a7f5792e2c9420a91d16313e51418db76348b567ad628c24c57225aac0f81",
                    "txbytes" : "0xf863800a830592a894095e7baea6a6c7c4c2dfeb977efac326af552d87830186a0801ca082a671a227220f2b04a9aa780da80015d702902cb314f4900b727ae835a6e613a02a8d1cd19b7388c9b4211156827537f3c9792e3dda07ed0343d0d16c1ffdc497",
                    "logs" : "0x1dcc4de8dec75d7aab85b567b6ccd41ad312451b948a7413f0a142fd40d49347"
                }
            ],
            "Istanbul" : [
                {
                    "indexes" : {
                        "data" : 0,
                        "gas" : 0,
                        "value" : 0
                    },
                    "hash" : "0x0f8e0779fd63e34eba5dccd0b9924119b06a5f76fb84563ad280f5413ee97782",
                    "txbytes" : "0xf863800a830592a894095e7baea6a6c7c4c2dfeb977efac326af552d87830186a0801ca082a671a227220f2b04a9aa780da80015d702902cb314f4900b727ae835a6e613a02a8d1cd19b7388c9b4211156827537f3c9792e3dda07ed0343d0d16c1ffdc497",
                    "logs" : "0x1dcc4de8dec75d7aab85b567b6ccd41ad312451b948a7413f0a142fd40d49347"
                }
            ],
            "London" : [
                {
                    "indexes" : {
                        "data" : 0,
                        "gas" : 0,
                        "value" : 0
                    },
                    "hash" : "0x337171cc8015b71fc5d9045486e622635f6a649b02b7a4222c5097c4939ec2aa",
                    "txbytes" : "0xf863800a830592a894095e7baea6a6c7c4c2dfeb977efac326af552d87830186a0801ca082a671a227220f2b04a9aa780da80015d702902cb314f4900b727ae835a6e613a02a8d1cd19b7388c9b4211156827537f3c9792e3dda07ed0343d0d16c1ffdc497",
                    "logs" : "0x1dcc4de8dec75d7aab85b567b6ccd41ad312451b948a7413f0a142fd40d49347"
                }
            ]
        },
        "pre" : {
            "0x095e7baea6a6c7c4c2dfeb977efac326af552d87" : {
                "balance" : "0x01312d00",
                "code" : "0x600160005260206000602060006000600260fff2600051600055",
                "nonce" : "0x00",
                "storage" : {
                }
            },
            "0xa94f5374fce5edbc8e2a8697c15331677e6ebf0b" : {
                "balance" : "0x0de0b6b3a7640000",
                "code" : "0x",
                "nonce" : "0x00",
                "storage" : {
                }
            }
        },
        "transaction" : {
            "data" : [
                "0x"
            ],
            "gasPrice" : "0x0a",
            "gasLimit" : [
                "0x0592a8"
            ],
            "nonce" : "0x00",
            "secretKey" : "0x45a915e4d060149eb4365960e6a7a45f334393093061116b197e3240065ff2d8",
            "to" : "0x095e7baea6a6c7c4c2dfeb977efac326af552d87",
            "value" : [
                "0x0186a0"
            ]
        }
    }
}