{
    "CallcodeLoseGasOOG_d0g1v0_Constantinople" : {
        "_info" : {
            "comment" : "",
            "filledwith" : "testeth 1.7.0-alpha.1-20+commit.782a7283",
            "lllcversion" : "Version: 0.5.0-develop.2018.11.9+commit.9709dfe0.Linux.g++",
            "source" : "src/BlockchainTestsFiller/GeneralStateTests/stDelegatecallTestHomestead/CallcodeLoseGasOOG_d0g1v0Filler.json",
            "sourceHash" : "7479fd69da7b058d729adbbe9bf9b2bf7bb10fcf92418e39b86685cabca211ac"
        },
        "blocks" : [
            {
                "blockHeader" : {
                    "bloom" : "0x00000000000000000000000000000000000000000000000000000000000000000000000000000000000000000000000000000000000000000000000000000000000000000000000000000000000000000000000000000000000000000000000000000000000000000000000000000000000000000000000000000000000000000000000000000000000000000000000000000000000000000000000000000000000000000000000000000000000000000000000000000000000000000000000000000000000000000000000000000000000000000000000000000000000000000000000000000000000000000000000000000000000000000000000000000000",
                    "coinbase" : "0xb94f5374fce5edbc8e2a8697c15331677e6ebf0b",
                    "difficulty" : "0x020000",
                    "extraData" : "0x",
                    "gasLimit" : "0x7fffffffffffffff",
                    "gasUsed" : "0x026266",
                    "hash" : "0x88cc19eed958ff62943b1da71b41711157d25b97327dee8e2125dba2a72e8af5",
                    "mixHash" : "0x0000000000000000000000000000000000000000000000000000000000000000",
                    "nonce" : "0x0000000000000000",
                    "number" : "0x01",
                    "parentHash" : "0x291344a889111a114e7b95c072b4d01e0d5dc97ca34f1799f1b76a2428915134",
                    "receiptTrie" : "0x331fa886375d7e2de8d8346ad3a53f6b3e9dea00b25034c213655392db378fe2",
                    "stateRoot" : "0xd9b7227fead13e3666771419b61896d7c0a76722322e7084280d96b8c24515e8",
                    "timestamp" : "0x03e8",
                    "transactionsTrie" : "0xe53e0ef744a21709aa23b0f0a29c81a13fae91036b93c1356e982cfdbe8f90fb",
                    "uncleHash" : "0x1dcc4de8dec75d7aab85b567b6ccd41ad312451b948a7413f0a142fd40d49347"
                },
                "rlp" : "0xf90265f901fda0291344a889111a114e7b95c072b4d01e0d5dc97ca34f1799f1b76a2428915134a01dcc4de8dec75d7aab85b567b6ccd41ad312451b948a7413f0a142fd40d4934794b94f5374fce5edbc8e2a8697c15331677e6ebf0ba0d9b7227fead13e3666771419b61896d7c0a76722322e7084280d96b8c24515e8a0e53e0ef744a21709aa23b0f0a29c81a13fae91036b93c1356e982cfdbe8f90fba0331fa886375d7e2de8d8346ad3a53f6b3e9dea00b25034c213655392db378fe2b90100000000000000000000000000000000000000000000000000000000000000000000000000000000000000000000000000000000000000000000000000000000000000000000000000000000000000000000000000000000000000000000000000000000000000000000000000000000000000000000000000000000000000000000000000000000000000000000000000000000000000000000000000000000000000000000000000000000000000000000000000000000000000000000000000000000000000000000000000000000000000000000000000000000000000000000000000000000000000000000000000000000000000000000000000000000008302000001887fffffffffffffff830262668203e880a00000000000000000000000000000000000000000000000000000000000000000880000000000000000f862f86080018302626694bbbf5374fce5edbc8e2a8697c15331677e6ebf0b0a801ba034d506e7cca6d89bc8eb7d56fa20fab7ef9288c8b35fcff4a5d253fabda7f189a0446175239e7c9e9c1d6e00574779756e003f1111c36bd27f1ceeec7cde7d03cbc0",
                "transactions" : [
                    {
                        "data" : "0x",
                        "gasLimit" : "0x026266",
                        "gasPrice" : "0x01",
                        "nonce" : "0x00",
                        "r" : "0x34d506e7cca6d89bc8eb7d56fa20fab7ef9288c8b35fcff4a5d253fabda7f189",
                        "s" : "0x446175239e7c9e9c1d6e00574779756e003f1111c36bd27f1ceeec7cde7d03cb",
                        "to" : "0xbbbf5374fce5edbc8e2a8697c15331677e6ebf0b",
                        "v" : "0x1b",
                        "value" : "0x0a"
                    }
                ],
                "uncleHeaders" : [
                ]
            }
        ],
        "genesisBlockHeader" : {
            "bloom" : "0x00000000000000000000000000000000000000000000000000000000000000000000000000000000000000000000000000000000000000000000000000000000000000000000000000000000000000000000000000000000000000000000000000000000000000000000000000000000000000000000000000000000000000000000000000000000000000000000000000000000000000000000000000000000000000000000000000000000000000000000000000000000000000000000000000000000000000000000000000000000000000000000000000000000000000000000000000000000000000000000000000000000000000000000000000000000",
            "coinbase" : "0xb94f5374fce5edbc8e2a8697c15331677e6ebf0b",
            "difficulty" : "0x020000",
            "extraData" : "0x42",
            "gasLimit" : "0x7fffffffffffffff",
            "gasUsed" : "0x00",
            "hash" : "0x291344a889111a114e7b95c072b4d01e0d5dc97ca34f1799f1b76a2428915134",
            "mixHash" : "0x56e81f171bcc55a6ff8345e692c0f86e5b48e01b996cadc001622fb5e363b421",
            "nonce" : "0x0102030405060708",
            "number" : "0x00",
            "parentHash" : "0x0000000000000000000000000000000000000000000000000000000000000000",
            "receiptTrie" : "0x56e81f171bcc55a6ff8345e692c0f86e5b48e01b996cadc001622fb5e363b421",
            "stateRoot" : "0x433bc29f28e2e14afe21908debf417812fe2d4a2708e644c651b3c0ce7f5c06c",
            "timestamp" : "0x03b6",
            "transactionsTrie" : "0x56e81f171bcc55a6ff8345e692c0f86e5b48e01b996cadc001622fb5e363b421",
            "uncleHash" : "0x1dcc4de8dec75d7aab85b567b6ccd41ad312451b948a7413f0a142fd40d49347"
        },
        "genesisRLP" : "0xf901fff901faa00000000000000000000000000000000000000000000000000000000000000000a01dcc4de8dec75d7aab85b567b6ccd41ad312451b948a7413f0a142fd40d4934794b94f5374fce5edbc8e2a8697c15331677e6ebf0ba0433bc29f28e2e14afe21908debf417812fe2d4a2708e644c651b3c0ce7f5c06ca056e81f171bcc55a6ff8345e692c0f86e5b48e01b996cadc001622fb5e363b421a056e81f171bcc55a6ff8345e692c0f86e5b48e01b996cadc001622fb5e363b421b90100000000000000000000000000000000000000000000000000000000000000000000000000000000000000000000000000000000000000000000000000000000000000000000000000000000000000000000000000000000000000000000000000000000000000000000000000000000000000000000000000000000000000000000000000000000000000000000000000000000000000000000000000000000000000000000000000000000000000000000000000000000000000000000000000000000000000000000000000000000000000000000000000000000000000000000000000000000000000000000000000000000000000000000000000000000008302000080887fffffffffffffff808203b642a056e81f171bcc55a6ff8345e692c0f86e5b48e01b996cadc001622fb5e363b421880102030405060708c0c0",
        "lastblockhash" : "0x88cc19eed958ff62943b1da71b41711157d25b97327dee8e2125dba2a72e8af5",
        "network" : "Constantinople",
        "postState" : {
            "0xa94f5374fce5edbc8e2a8697c15331677e6ebf0b" : {
                "balance" : "0xfffffffffffffffffffffffffffd9d99",
                "code" : "0x",
                "nonce" : "0x01",
                "storage" : {
                }
            },
            "0xaaaf5374fce5edbc8e2a8697c15331677e6ebf0b" : {
                "balance" : "0x1b58",
                "code" : "0x",
                "nonce" : "0x00",
                "storage" : {
                }
            },
            "0xb94f5374fce5edbc8e2a8697c15331677e6ebf0b" : {
                "balance" : "0x1bc16d674eca6266",
                "code" : "0x",
                "nonce" : "0x00",
                "storage" : {
                }
            },
            "0xbbbf5374fce5edbc8e2a8697c15331677e6ebf0b" : {
                "balance" : "0x0400",
                "code" : "0x600160005401600055600060006000600073bbbf5374fce5edbc8e2a8697c15331677e6ebf0b620186a060005402600101f46001556103e860005402600101600255",
                "nonce" : "0x00",
                "storage" : {
                }
            }
        },
        "pre" : {
            "0xa94f5374fce5edbc8e2a8697c15331677e6ebf0b" : {
                "balance" : "0xffffffffffffffffffffffffffffffff",
                "code" : "0x",
                "nonce" : "0x00",
                "storage" : {
                }
            },
            "0xaaaf5374fce5edbc8e2a8697c15331677e6ebf0b" : {
                "balance" : "0x1b58",
                "code" : "0x",
                "nonce" : "0x00",
                "storage" : {
                }
            },
            "0xbbbf5374fce5edbc8e2a8697c15331677e6ebf0b" : {
                "balance" : "0x0400",
                "code" : "0x600160005401600055600060006000600073bbbf5374fce5edbc8e2a8697c15331677e6ebf0b620186a060005402600101f46001556103e860005402600101600255",
                "nonce" : "0x00",
                "storage" : {
                }
            }
        },
        "sealEngine" : "NoProof"
    },
    "CallcodeLoseGasOOG_d0g1v0_ConstantinopleFix" : {
        "_info" : {
            "comment" : "",
            "filledwith" : "testeth 1.7.0-alpha.1-20+commit.782a7283",
            "lllcversion" : "Version: 0.5.0-develop.2018.11.9+commit.9709dfe0.Linux.g++",
            "source" : "src/BlockchainTestsFiller/GeneralStateTests/stDelegatecallTestHomestead/CallcodeLoseGasOOG_d0g1v0Filler.json",
            "sourceHash" : "7479fd69da7b058d729adbbe9bf9b2bf7bb10fcf92418e39b86685cabca211ac"
        },
        "blocks" : [
            {
                "blockHeader" : {
                    "bloom" : "0x00000000000000000000000000000000000000000000000000000000000000000000000000000000000000000000000000000000000000000000000000000000000000000000000000000000000000000000000000000000000000000000000000000000000000000000000000000000000000000000000000000000000000000000000000000000000000000000000000000000000000000000000000000000000000000000000000000000000000000000000000000000000000000000000000000000000000000000000000000000000000000000000000000000000000000000000000000000000000000000000000000000000000000000000000000000",
                    "coinbase" : "0xb94f5374fce5edbc8e2a8697c15331677e6ebf0b",
                    "difficulty" : "0x020000",
                    "extraData" : "0x",
                    "gasLimit" : "0x7fffffffffffffff",
                    "gasUsed" : "0x026266",
                    "hash" : "0x88cc19eed958ff62943b1da71b41711157d25b97327dee8e2125dba2a72e8af5",
                    "mixHash" : "0x0000000000000000000000000000000000000000000000000000000000000000",
                    "nonce" : "0x0000000000000000",
                    "number" : "0x01",
                    "parentHash" : "0x291344a889111a114e7b95c072b4d01e0d5dc97ca34f1799f1b76a2428915134",
                    "receiptTrie" : "0x331fa886375d7e2de8d8346ad3a53f6b3e9dea00b25034c213655392db378fe2",
                    "stateRoot" : "0xd9b7227fead13e3666771419b61896d7c0a76722322e7084280d96b8c24515e8",
                    "timestamp" : "0x03e8",
                    "transactionsTrie" : "0xe53e0ef744a21709aa23b0f0a29c81a13fae91036b93c1356e982cfdbe8f90fb",
                    "uncleHash" : "0x1dcc4de8dec75d7aab85b567b6ccd41ad312451b948a7413f0a142fd40d49347"
                },
                "rlp" : "0xf90265f901fda0291344a889111a114e7b95c072b4d01e0d5dc97ca34f1799f1b76a2428915134a01dcc4de8dec75d7aab85b567b6ccd41ad312451b948a7413f0a142fd40d4934794b94f5374fce5edbc8e2a8697c15331677e6ebf0ba0d9b7227fead13e3666771419b61896d7c0a76722322e7084280d96b8c24515e8a0e53e0ef744a21709aa23b0f0a29c81a13fae91036b93c1356e982cfdbe8f90fba0331fa886375d7e2de8d8346ad3a53f6b3e9dea00b25034c213655392db378fe2b90100000000000000000000000000000000000000000000000000000000000000000000000000000000000000000000000000000000000000000000000000000000000000000000000000000000000000000000000000000000000000000000000000000000000000000000000000000000000000000000000000000000000000000000000000000000000000000000000000000000000000000000000000000000000000000000000000000000000000000000000000000000000000000000000000000000000000000000000000000000000000000000000000000000000000000000000000000000000000000000000000000000000000000000000000000000008302000001887fffffffffffffff830262668203e880a00000000000000000000000000000000000000000000000000000000000000000880000000000000000f862f86080018302626694bbbf5374fce5edbc8e2a8697c15331677e6ebf0b0a801ba034d506e7cca6d89bc8eb7d56fa20fab7ef9288c8b35fcff4a5d253fabda7f189a0446175239e7c9e9c1d6e00574779756e003f1111c36bd27f1ceeec7cde7d03cbc0",
                "transactions" : [
                    {
                        "data" : "0x",
                        "gasLimit" : "0x026266",
                        "gasPrice" : "0x01",
                        "nonce" : "0x00",
                        "r" : "0x34d506e7cca6d89bc8eb7d56fa20fab7ef9288c8b35fcff4a5d253fabda7f189",
                        "s" : "0x446175239e7c9e9c1d6e00574779756e003f1111c36bd27f1ceeec7cde7d03cb",
                        "to" : "0xbbbf5374fce5edbc8e2a8697c15331677e6ebf0b",
                        "v" : "0x1b",
                        "value" : "0x0a"
                    }
                ],
                "uncleHeaders" : [
                ]
            }
        ],
        "genesisBlockHeader" : {
            "bloom" : "0x00000000000000000000000000000000000000000000000000000000000000000000000000000000000000000000000000000000000000000000000000000000000000000000000000000000000000000000000000000000000000000000000000000000000000000000000000000000000000000000000000000000000000000000000000000000000000000000000000000000000000000000000000000000000000000000000000000000000000000000000000000000000000000000000000000000000000000000000000000000000000000000000000000000000000000000000000000000000000000000000000000000000000000000000000000000",
            "coinbase" : "0xb94f5374fce5edbc8e2a8697c15331677e6ebf0b",
            "difficulty" : "0x020000",
            "extraData" : "0x42",
            "gasLimit" : "0x7fffffffffffffff",
            "gasUsed" : "0x00",
            "hash" : "0x291344a889111a114e7b95c072b4d01e0d5dc97ca34f1799f1b76a2428915134",
            "mixHash" : "0x56e81f171bcc55a6ff8345e692c0f86e5b48e01b996cadc001622fb5e363b421",
            "nonce" : "0x0102030405060708",
            "number" : "0x00",
            "parentHash" : "0x0000000000000000000000000000000000000000000000000000000000000000",
            "receiptTrie" : "0x56e81f171bcc55a6ff8345e692c0f86e5b48e01b996cadc001622fb5e363b421",
            "stateRoot" : "0x433bc29f28e2e14afe21908debf417812fe2d4a2708e644c651b3c0ce7f5c06c",
            "timestamp" : "0x03b6",
            "transactionsTrie" : "0x56e81f171bcc55a6ff8345e692c0f86e5b48e01b996cadc001622fb5e363b421",
            "uncleHash" : "0x1dcc4de8dec75d7aab85b567b6ccd41ad312451b948a7413f0a142fd40d49347"
        },
        "genesisRLP" : "0xf901fff901faa00000000000000000000000000000000000000000000000000000000000000000a01dcc4de8dec75d7aab85b567b6ccd41ad312451b948a7413f0a142fd40d4934794b94f5374fce5edbc8e2a8697c15331677e6ebf0ba0433bc29f28e2e14afe21908debf417812fe2d4a2708e644c651b3c0ce7f5c06ca056e81f171bcc55a6ff8345e692c0f86e5b48e01b996cadc001622fb5e363b421a056e81f171bcc55a6ff8345e692c0f86e5b48e01b996cadc001622fb5e363b421b90100000000000000000000000000000000000000000000000000000000000000000000000000000000000000000000000000000000000000000000000000000000000000000000000000000000000000000000000000000000000000000000000000000000000000000000000000000000000000000000000000000000000000000000000000000000000000000000000000000000000000000000000000000000000000000000000000000000000000000000000000000000000000000000000000000000000000000000000000000000000000000000000000000000000000000000000000000000000000000000000000000000000000000000000000000000008302000080887fffffffffffffff808203b642a056e81f171bcc55a6ff8345e692c0f86e5b48e01b996cadc001622fb5e363b421880102030405060708c0c0",
        "lastblockhash" : "0x88cc19eed958ff62943b1da71b41711157d25b97327dee8e2125dba2a72e8af5",
        "network" : "ConstantinopleFix",
        "postState" : {
            "0xa94f5374fce5edbc8e2a8697c15331677e6ebf0b" : {
                "balance" : "0xfffffffffffffffffffffffffffd9d99",
                "code" : "0x",
                "nonce" : "0x01",
                "storage" : {
                }
            },
            "0xaaaf5374fce5edbc8e2a8697c15331677e6ebf0b" : {
                "balance" : "0x1b58",
                "code" : "0x",
                "nonce" : "0x00",
                "storage" : {
                }
            },
            "0xb94f5374fce5edbc8e2a8697c15331677e6ebf0b" : {
                "balance" : "0x1bc16d674eca6266",
                "code" : "0x",
                "nonce" : "0x00",
                "storage" : {
                }
            },
            "0xbbbf5374fce5edbc8e2a8697c15331677e6ebf0b" : {
                "balance" : "0x0400",
                "code" : "0x600160005401600055600060006000600073bbbf5374fce5edbc8e2a8697c15331677e6ebf0b620186a060005402600101f46001556103e860005402600101600255",
                "nonce" : "0x00",
                "storage" : {
                }
            }
        },
        "pre" : {
            "0xa94f5374fce5edbc8e2a8697c15331677e6ebf0b" : {
                "balance" : "0xffffffffffffffffffffffffffffffff",
                "code" : "0x",
                "nonce" : "0x00",
                "storage" : {
                }
            },
            "0xaaaf5374fce5edbc8e2a8697c15331677e6ebf0b" : {
                "balance" : "0x1b58",
                "code" : "0x",
                "nonce" : "0x00",
                "storage" : {
                }
            },
            "0xbbbf5374fce5edbc8e2a8697c15331677e6ebf0b" : {
                "balance" : "0x0400",
                "code" : "0x600160005401600055600060006000600073bbbf5374fce5edbc8e2a8697c15331677e6ebf0b620186a060005402600101f46001556103e860005402600101600255",
                "nonce" : "0x00",
                "storage" : {
                }
            }
        },
        "sealEngine" : "NoProof"
    }
}