{
    "deleagateCallAfterValueTransfer_d0g0v0_Byzantium" : {
        "_info" : {
            "comment" : "",
            "filledwith" : "testeth 1.7.0-alpha.1-20+commit.782a7283",
            "lllcversion" : "Version: 0.5.0-develop.2018.11.9+commit.9709dfe0.Linux.g++",
            "source" : "src/BlockchainTestsFiller/GeneralStateTests/stDelegatecallTestHomestead/deleagateCallAfterValueTransfer_d0g0v0Filler.json",
            "sourceHash" : "07b7624cddb57f04fa00f08f7142286e517885982047cf63a257cc3b2008c55e"
        },
        "blocks" : [
            {
                "blockHeader" : {
                    "bloom" : "0x00000000000000000000000000000000000000000000000000000000000000000000000000000000000000000000000000000000000000000000000000000000000000000000000000000000000000000000000000000000000000000000000000000000000000000000000000000000000000000000000000000000000000000000000000000000000000000000000000000000000000000000000000000000000000000000000000000000000000000000000000000000000000000000000000000000000000000000000000000000000000000000000000000000000000000000000000000000000000000000000000000000000000000000000000000000",
                    "coinbase" : "0x2adc25665018aa1fe0e6bc666dac8fc2697ff9ba",
                    "difficulty" : "0x020000",
                    "extraData" : "0x",
                    "gasLimit" : "0x0f4240",
                    "gasUsed" : "0x0104c0",
                    "hash" : "0x812675d6f9cce9ed05ea1e14940046d4cf24afe8aa3d2fd0c908e9c12d979f60",
                    "mixHash" : "0x0000000000000000000000000000000000000000000000000000000000000000",
                    "nonce" : "0x0000000000000000",
                    "number" : "0x01",
                    "parentHash" : "0x4c1f25211358ecd99837696adee8ab699342494bf6c2aa3b44f3666bd16904fb",
                    "receiptTrie" : "0x656e4b60fbeeb7b68b928dd4383be36c74c3d5506f4235124fd0c7c3ec8798c7",
                    "stateRoot" : "0x2b299540b7c4dadaa2ca384533aa20b49acb91f2c4360feb6bd50880c0fc6bd1",
                    "timestamp" : "0x03e8",
                    "transactionsTrie" : "0x74b39e73f0c67b78fff4eb82226142222765b09c97c66d83d2aa030ec81c4f68",
                    "uncleHash" : "0x1dcc4de8dec75d7aab85b567b6ccd41ad312451b948a7413f0a142fd40d49347"
                },
                "rlp" : "0xf90260f901f8a04c1f25211358ecd99837696adee8ab699342494bf6c2aa3b44f3666bd16904fba01dcc4de8dec75d7aab85b567b6ccd41ad312451b948a7413f0a142fd40d49347942adc25665018aa1fe0e6bc666dac8fc2697ff9baa02b299540b7c4dadaa2ca384533aa20b49acb91f2c4360feb6bd50880c0fc6bd1a074b39e73f0c67b78fff4eb82226142222765b09c97c66d83d2aa030ec81c4f68a0656e4b60fbeeb7b68b928dd4383be36c74c3d5506f4235124fd0c7c3ec8798c7b90100000000000000000000000000000000000000000000000000000000000000000000000000000000000000000000000000000000000000000000000000000000000000000000000000000000000000000000000000000000000000000000000000000000000000000000000000000000000000000000000000000000000000000000000000000000000000000000000000000000000000000000000000000000000000000000000000000000000000000000000000000000000000000000000000000000000000000000000000000000000000000000000000000000000000000000000000000000000000000000000000000000000000000000000000000000008302000001830f4240830104c08203e880a00000000000000000000000000000000000000000000000000000000000000000880000000000000000f862f86080018306e9d994100000000000000000000000000000000000000080801ba0f3800914fa5a27a13dc5a4119f11c1ae1c6874ad1e299f13e9f43e96c8bdaa0ea0332b1e65d433906232fbb38ec187498f66c29f6127864d94788d7de5bc1d4d32c0",
                "transactions" : [
                    {
                        "data" : "0x",
                        "gasLimit" : "0x06e9d9",
                        "gasPrice" : "0x01",
                        "nonce" : "0x00",
                        "r" : "0xf3800914fa5a27a13dc5a4119f11c1ae1c6874ad1e299f13e9f43e96c8bdaa0e",
                        "s" : "0x332b1e65d433906232fbb38ec187498f66c29f6127864d94788d7de5bc1d4d32",
                        "to" : "0x1000000000000000000000000000000000000000",
                        "v" : "0x1b",
                        "value" : "0x00"
                    }
                ],
                "uncleHeaders" : [
                ]
            }
        ],
        "genesisBlockHeader" : {
            "bloom" : "0x00000000000000000000000000000000000000000000000000000000000000000000000000000000000000000000000000000000000000000000000000000000000000000000000000000000000000000000000000000000000000000000000000000000000000000000000000000000000000000000000000000000000000000000000000000000000000000000000000000000000000000000000000000000000000000000000000000000000000000000000000000000000000000000000000000000000000000000000000000000000000000000000000000000000000000000000000000000000000000000000000000000000000000000000000000000",
            "coinbase" : "0x2adc25665018aa1fe0e6bc666dac8fc2697ff9ba",
            "difficulty" : "0x020000",
            "extraData" : "0x42",
            "gasLimit" : "0x0f4240",
            "gasUsed" : "0x00",
            "hash" : "0x4c1f25211358ecd99837696adee8ab699342494bf6c2aa3b44f3666bd16904fb",
            "mixHash" : "0x56e81f171bcc55a6ff8345e692c0f86e5b48e01b996cadc001622fb5e363b421",
            "nonce" : "0x0102030405060708",
            "number" : "0x00",
            "parentHash" : "0x0000000000000000000000000000000000000000000000000000000000000000",
            "receiptTrie" : "0x56e81f171bcc55a6ff8345e692c0f86e5b48e01b996cadc001622fb5e363b421",
            "stateRoot" : "0x29cc72b9ba7577ddd0ae414e612e5a783b40042bf0b4fa195bf05f77d3f7220a",
            "timestamp" : "0x03b6",
            "transactionsTrie" : "0x56e81f171bcc55a6ff8345e692c0f86e5b48e01b996cadc001622fb5e363b421",
            "uncleHash" : "0x1dcc4de8dec75d7aab85b567b6ccd41ad312451b948a7413f0a142fd40d49347"
        },
        "genesisRLP" : "0xf901faf901f5a00000000000000000000000000000000000000000000000000000000000000000a01dcc4de8dec75d7aab85b567b6ccd41ad312451b948a7413f0a142fd40d49347942adc25665018aa1fe0e6bc666dac8fc2697ff9baa029cc72b9ba7577ddd0ae414e612e5a783b40042bf0b4fa195bf05f77d3f7220aa056e81f171bcc55a6ff8345e692c0f86e5b48e01b996cadc001622fb5e363b421a056e81f171bcc55a6ff8345e692c0f86e5b48e01b996cadc001622fb5e363b421b90100000000000000000000000000000000000000000000000000000000000000000000000000000000000000000000000000000000000000000000000000000000000000000000000000000000000000000000000000000000000000000000000000000000000000000000000000000000000000000000000000000000000000000000000000000000000000000000000000000000000000000000000000000000000000000000000000000000000000000000000000000000000000000000000000000000000000000000000000000000000000000000000000000000000000000000000000000000000000000000000000000000000000000000000000000000008302000080830f4240808203b642a056e81f171bcc55a6ff8345e692c0f86e5b48e01b996cadc001622fb5e363b421880102030405060708c0c0",
        "lastblockhash" : "0x812675d6f9cce9ed05ea1e14940046d4cf24afe8aa3d2fd0c908e9c12d979f60",
        "network" : "Byzantium",
        "postState" : {
            "0x1000000000000000000000000000000000000000" : {
                "balance" : "0x10c8e0",
                "code" : "0x60016000526040600060406000731000000000000000000000000000000000000001620186a0f4",
                "nonce" : "0x00",
                "storage" : {
                    "0x01" : "0xa94f5374fce5edbc8e2a8697c15331677e6ebf0b",
                    "0x02" : "0x01"
                }
            },
            "0x1000000000000000000000000000000000000001" : {
                "balance" : "0x00",
                "code" : "0x3460005533600155600035600255",
                "nonce" : "0x00",
                "storage" : {
                }
            },
            "0x2adc25665018aa1fe0e6bc666dac8fc2697ff9ba" : {
                "balance" : "0x29a2241af62d04c0",
                "code" : "0x",
                "nonce" : "0x00",
                "storage" : {
                }
            },
            "0xa94f5374fce5edbc8e2a8697c15331677e6ebf0b" : {
                "balance" : "0x2386f26fbffb40",
                "code" : "0x",
                "nonce" : "0x01",
                "storage" : {
                }
            }
        },
        "pre" : {
            "0x1000000000000000000000000000000000000000" : {
                "balance" : "0x10c8e0",
                "code" : "0x60016000526040600060406000731000000000000000000000000000000000000001620186a0f4",
                "nonce" : "0x00",
                "storage" : {
                }
            },
            "0x1000000000000000000000000000000000000001" : {
                "balance" : "0x00",
                "code" : "0x3460005533600155600035600255",
                "nonce" : "0x00",
                "storage" : {
                }
            },
            "0xa94f5374fce5edbc8e2a8697c15331677e6ebf0b" : {
                "balance" : "0x2386f26fc10000",
                "code" : "0x",
                "nonce" : "0x00",
                "storage" : {
                }
            }
        },
        "sealEngine" : "NoProof"
    },
    "deleagateCallAfterValueTransfer_d0g0v0_Constantinople" : {
        "_info" : {
            "comment" : "",
            "filledwith" : "testeth 1.7.0-alpha.1-20+commit.782a7283",
            "lllcversion" : "Version: 0.5.0-develop.2018.11.9+commit.9709dfe0.Linux.g++",
            "source" : "src/BlockchainTestsFiller/GeneralStateTests/stDelegatecallTestHomestead/deleagateCallAfterValueTransfer_d0g0v0Filler.json",
            "sourceHash" : "07b7624cddb57f04fa00f08f7142286e517885982047cf63a257cc3b2008c55e"
        },
        "blocks" : [
            {
                "blockHeader" : {
                    "bloom" : "0x00000000000000000000000000000000000000000000000000000000000000000000000000000000000000000000000000000000000000000000000000000000000000000000000000000000000000000000000000000000000000000000000000000000000000000000000000000000000000000000000000000000000000000000000000000000000000000000000000000000000000000000000000000000000000000000000000000000000000000000000000000000000000000000000000000000000000000000000000000000000000000000000000000000000000000000000000000000000000000000000000000000000000000000000000000000",
                    "coinbase" : "0x2adc25665018aa1fe0e6bc666dac8fc2697ff9ba",
                    "difficulty" : "0x020000",
                    "extraData" : "0x",
                    "gasLimit" : "0x0f4240",
                    "gasUsed" : "0xf200",
                    "hash" : "0x881854642941af6f4da5289f985ad807d6a308cef474ab5f009a9787570008cb",
                    "mixHash" : "0x0000000000000000000000000000000000000000000000000000000000000000",
                    "nonce" : "0x0000000000000000",
                    "number" : "0x01",
                    "parentHash" : "0x4c1f25211358ecd99837696adee8ab699342494bf6c2aa3b44f3666bd16904fb",
                    "receiptTrie" : "0xe798dfff49ed5c02dd1a2284d29b58365b670650f4e8e1e05b9564a10dc38e28",
                    "stateRoot" : "0xaf342af0c782ba8c6f6884e0f26543d73ad18c2b15ec3201f8cb0645cf4642cf",
                    "timestamp" : "0x03e8",
                    "transactionsTrie" : "0x74b39e73f0c67b78fff4eb82226142222765b09c97c66d83d2aa030ec81c4f68",
                    "uncleHash" : "0x1dcc4de8dec75d7aab85b567b6ccd41ad312451b948a7413f0a142fd40d49347"
                },
                "rlp" : "0xf9025ff901f7a04c1f25211358ecd99837696adee8ab699342494bf6c2aa3b44f3666bd16904fba01dcc4de8dec75d7aab85b567b6ccd41ad312451b948a7413f0a142fd40d49347942adc25665018aa1fe0e6bc666dac8fc2697ff9baa0af342af0c782ba8c6f6884e0f26543d73ad18c2b15ec3201f8cb0645cf4642cfa074b39e73f0c67b78fff4eb82226142222765b09c97c66d83d2aa030ec81c4f68a0e798dfff49ed5c02dd1a2284d29b58365b670650f4e8e1e05b9564a10dc38e28b90100000000000000000000000000000000000000000000000000000000000000000000000000000000000000000000000000000000000000000000000000000000000000000000000000000000000000000000000000000000000000000000000000000000000000000000000000000000000000000000000000000000000000000000000000000000000000000000000000000000000000000000000000000000000000000000000000000000000000000000000000000000000000000000000000000000000000000000000000000000000000000000000000000000000000000000000000000000000000000000000000000000000000000000000000000000008302000001830f424082f2008203e880a00000000000000000000000000000000000000000000000000000000000000000880000000000000000f862f86080018306e9d994100000000000000000000000000000000000000080801ba0f3800914fa5a27a13dc5a4119f11c1ae1c6874ad1e299f13e9f43e96c8bdaa0ea0332b1e65d433906232fbb38ec187498f66c29f6127864d94788d7de5bc1d4d32c0",
                "transactions" : [
                    {
                        "data" : "0x",
                        "gasLimit" : "0x06e9d9",
                        "gasPrice" : "0x01",
                        "nonce" : "0x00",
                        "r" : "0xf3800914fa5a27a13dc5a4119f11c1ae1c6874ad1e299f13e9f43e96c8bdaa0e",
                        "s" : "0x332b1e65d433906232fbb38ec187498f66c29f6127864d94788d7de5bc1d4d32",
                        "to" : "0x1000000000000000000000000000000000000000",
                        "v" : "0x1b",
                        "value" : "0x00"
                    }
                ],
                "uncleHeaders" : [
                ]
            }
        ],
        "genesisBlockHeader" : {
            "bloom" : "0x00000000000000000000000000000000000000000000000000000000000000000000000000000000000000000000000000000000000000000000000000000000000000000000000000000000000000000000000000000000000000000000000000000000000000000000000000000000000000000000000000000000000000000000000000000000000000000000000000000000000000000000000000000000000000000000000000000000000000000000000000000000000000000000000000000000000000000000000000000000000000000000000000000000000000000000000000000000000000000000000000000000000000000000000000000000",
            "coinbase" : "0x2adc25665018aa1fe0e6bc666dac8fc2697ff9ba",
            "difficulty" : "0x020000",
            "extraData" : "0x42",
            "gasLimit" : "0x0f4240",
            "gasUsed" : "0x00",
            "hash" : "0x4c1f25211358ecd99837696adee8ab699342494bf6c2aa3b44f3666bd16904fb",
            "mixHash" : "0x56e81f171bcc55a6ff8345e692c0f86e5b48e01b996cadc001622fb5e363b421",
            "nonce" : "0x0102030405060708",
            "number" : "0x00",
            "parentHash" : "0x0000000000000000000000000000000000000000000000000000000000000000",
            "receiptTrie" : "0x56e81f171bcc55a6ff8345e692c0f86e5b48e01b996cadc001622fb5e363b421",
            "stateRoot" : "0x29cc72b9ba7577ddd0ae414e612e5a783b40042bf0b4fa195bf05f77d3f7220a",
            "timestamp" : "0x03b6",
            "transactionsTrie" : "0x56e81f171bcc55a6ff8345e692c0f86e5b48e01b996cadc001622fb5e363b421",
            "uncleHash" : "0x1dcc4de8dec75d7aab85b567b6ccd41ad312451b948a7413f0a142fd40d49347"
        },
        "genesisRLP" : "0xf901faf901f5a00000000000000000000000000000000000000000000000000000000000000000a01dcc4de8dec75d7aab85b567b6ccd41ad312451b948a7413f0a142fd40d49347942adc25665018aa1fe0e6bc666dac8fc2697ff9baa029cc72b9ba7577ddd0ae414e612e5a783b40042bf0b4fa195bf05f77d3f7220aa056e81f171bcc55a6ff8345e692c0f86e5b48e01b996cadc001622fb5e363b421a056e81f171bcc55a6ff8345e692c0f86e5b48e01b996cadc001622fb5e363b421b90100000000000000000000000000000000000000000000000000000000000000000000000000000000000000000000000000000000000000000000000000000000000000000000000000000000000000000000000000000000000000000000000000000000000000000000000000000000000000000000000000000000000000000000000000000000000000000000000000000000000000000000000000000000000000000000000000000000000000000000000000000000000000000000000000000000000000000000000000000000000000000000000000000000000000000000000000000000000000000000000000000000000000000000000000000000008302000080830f4240808203b642a056e81f171bcc55a6ff8345e692c0f86e5b48e01b996cadc001622fb5e363b421880102030405060708c0c0",
        "lastblockhash" : "0x881854642941af6f4da5289f985ad807d6a308cef474ab5f009a9787570008cb",
        "network" : "Constantinople",
        "postState" : {
            "0x1000000000000000000000000000000000000000" : {
                "balance" : "0x10c8e0",
                "code" : "0x60016000526040600060406000731000000000000000000000000000000000000001620186a0f4",
                "nonce" : "0x00",
                "storage" : {
                    "0x01" : "0xa94f5374fce5edbc8e2a8697c15331677e6ebf0b",
                    "0x02" : "0x01"
                }
            },
            "0x1000000000000000000000000000000000000001" : {
                "balance" : "0x00",
                "code" : "0x3460005533600155600035600255",
                "nonce" : "0x00",
                "storage" : {
                }
            },
            "0x2adc25665018aa1fe0e6bc666dac8fc2697ff9ba" : {
                "balance" : "0x1bc16d674ec8f200",
                "code" : "0x",
                "nonce" : "0x00",
                "storage" : {
                }
            },
            "0xa94f5374fce5edbc8e2a8697c15331677e6ebf0b" : {
                "balance" : "0x2386f26fc00e00",
                "code" : "0x",
                "nonce" : "0x01",
                "storage" : {
                }
            }
        },
        "pre" : {
            "0x1000000000000000000000000000000000000000" : {
                "balance" : "0x10c8e0",
                "code" : "0x60016000526040600060406000731000000000000000000000000000000000000001620186a0f4",
                "nonce" : "0x00",
                "storage" : {
                }
            },
            "0x1000000000000000000000000000000000000001" : {
                "balance" : "0x00",
                "code" : "0x3460005533600155600035600255",
                "nonce" : "0x00",
                "storage" : {
                }
            },
            "0xa94f5374fce5edbc8e2a8697c15331677e6ebf0b" : {
                "balance" : "0x2386f26fc10000",
                "code" : "0x",
                "nonce" : "0x00",
                "storage" : {
                }
            }
        },
        "sealEngine" : "NoProof"
    },
    "deleagateCallAfterValueTransfer_d0g0v0_ConstantinopleFix" : {
        "_info" : {
            "comment" : "",
            "filledwith" : "testeth 1.7.0-alpha.1-20+commit.782a7283",
            "lllcversion" : "Version: 0.5.0-develop.2018.11.9+commit.9709dfe0.Linux.g++",
            "source" : "src/BlockchainTestsFiller/GeneralStateTests/stDelegatecallTestHomestead/deleagateCallAfterValueTransfer_d0g0v0Filler.json",
            "sourceHash" : "07b7624cddb57f04fa00f08f7142286e517885982047cf63a257cc3b2008c55e"
        },
        "blocks" : [
            {
                "blockHeader" : {
                    "bloom" : "0x00000000000000000000000000000000000000000000000000000000000000000000000000000000000000000000000000000000000000000000000000000000000000000000000000000000000000000000000000000000000000000000000000000000000000000000000000000000000000000000000000000000000000000000000000000000000000000000000000000000000000000000000000000000000000000000000000000000000000000000000000000000000000000000000000000000000000000000000000000000000000000000000000000000000000000000000000000000000000000000000000000000000000000000000000000000",
                    "coinbase" : "0x2adc25665018aa1fe0e6bc666dac8fc2697ff9ba",
                    "difficulty" : "0x020000",
                    "extraData" : "0x",
                    "gasLimit" : "0x0f4240",
                    "gasUsed" : "0x0104c0",
                    "hash" : "0x5a5c0144162d0e892da33c0fadd67109c1119967c806e761f9987be6700fe19a",
                    "mixHash" : "0x0000000000000000000000000000000000000000000000000000000000000000",
                    "nonce" : "0x0000000000000000",
                    "number" : "0x01",
                    "parentHash" : "0x4c1f25211358ecd99837696adee8ab699342494bf6c2aa3b44f3666bd16904fb",
                    "receiptTrie" : "0x656e4b60fbeeb7b68b928dd4383be36c74c3d5506f4235124fd0c7c3ec8798c7",
                    "stateRoot" : "0xc9d2e88bceaec547fc4fd8712a6886025833d919c81e0f38f6bcfcfdcc9ec022",
                    "timestamp" : "0x03e8",
                    "transactionsTrie" : "0x74b39e73f0c67b78fff4eb82226142222765b09c97c66d83d2aa030ec81c4f68",
                    "uncleHash" : "0x1dcc4de8dec75d7aab85b567b6ccd41ad312451b948a7413f0a142fd40d49347"
                },
                "rlp" : "0xf90260f901f8a04c1f25211358ecd99837696adee8ab699342494bf6c2aa3b44f3666bd16904fba01dcc4de8dec75d7aab85b567b6ccd41ad312451b948a7413f0a142fd40d49347942adc25665018aa1fe0e6bc666dac8fc2697ff9baa0c9d2e88bceaec547fc4fd8712a6886025833d919c81e0f38f6bcfcfdcc9ec022a074b39e73f0c67b78fff4eb82226142222765b09c97c66d83d2aa030ec81c4f68a0656e4b60fbeeb7b68b928dd4383be36c74c3d5506f4235124fd0c7c3ec8798c7b90100000000000000000000000000000000000000000000000000000000000000000000000000000000000000000000000000000000000000000000000000000000000000000000000000000000000000000000000000000000000000000000000000000000000000000000000000000000000000000000000000000000000000000000000000000000000000000000000000000000000000000000000000000000000000000000000000000000000000000000000000000000000000000000000000000000000000000000000000000000000000000000000000000000000000000000000000000000000000000000000000000000000000000000000000000000008302000001830f4240830104c08203e880a00000000000000000000000000000000000000000000000000000000000000000880000000000000000f862f86080018306e9d994100000000000000000000000000000000000000080801ba0f3800914fa5a27a13dc5a4119f11c1ae1c6874ad1e299f13e9f43e96c8bdaa0ea0332b1e65d433906232fbb38ec187498f66c29f6127864d94788d7de5bc1d4d32c0",
                "transactions" : [
                    {
                        "data" : "0x",
                        "gasLimit" : "0x06e9d9",
                        "gasPrice" : "0x01",
                        "nonce" : "0x00",
                        "r" : "0xf3800914fa5a27a13dc5a4119f11c1ae1c6874ad1e299f13e9f43e96c8bdaa0e",
                        "s" : "0x332b1e65d433906232fbb38ec187498f66c29f6127864d94788d7de5bc1d4d32",
                        "to" : "0x1000000000000000000000000000000000000000",
                        "v" : "0x1b",
                        "value" : "0x00"
                    }
                ],
                "uncleHeaders" : [
                ]
            }
        ],
        "genesisBlockHeader" : {
            "bloom" : "0x00000000000000000000000000000000000000000000000000000000000000000000000000000000000000000000000000000000000000000000000000000000000000000000000000000000000000000000000000000000000000000000000000000000000000000000000000000000000000000000000000000000000000000000000000000000000000000000000000000000000000000000000000000000000000000000000000000000000000000000000000000000000000000000000000000000000000000000000000000000000000000000000000000000000000000000000000000000000000000000000000000000000000000000000000000000",
            "coinbase" : "0x2adc25665018aa1fe0e6bc666dac8fc2697ff9ba",
            "difficulty" : "0x020000",
            "extraData" : "0x42",
            "gasLimit" : "0x0f4240",
            "gasUsed" : "0x00",
            "hash" : "0x4c1f25211358ecd99837696adee8ab699342494bf6c2aa3b44f3666bd16904fb",
            "mixHash" : "0x56e81f171bcc55a6ff8345e692c0f86e5b48e01b996cadc001622fb5e363b421",
            "nonce" : "0x0102030405060708",
            "number" : "0x00",
            "parentHash" : "0x0000000000000000000000000000000000000000000000000000000000000000",
            "receiptTrie" : "0x56e81f171bcc55a6ff8345e692c0f86e5b48e01b996cadc001622fb5e363b421",
            "stateRoot" : "0x29cc72b9ba7577ddd0ae414e612e5a783b40042bf0b4fa195bf05f77d3f7220a",
            "timestamp" : "0x03b6",
            "transactionsTrie" : "0x56e81f171bcc55a6ff8345e692c0f86e5b48e01b996cadc001622fb5e363b421",
            "uncleHash" : "0x1dcc4de8dec75d7aab85b567b6ccd41ad312451b948a7413f0a142fd40d49347"
        },
        "genesisRLP" : "0xf901faf901f5a00000000000000000000000000000000000000000000000000000000000000000a01dcc4de8dec75d7aab85b567b6ccd41ad312451b948a7413f0a142fd40d49347942adc25665018aa1fe0e6bc666dac8fc2697ff9baa029cc72b9ba7577ddd0ae414e612e5a783b40042bf0b4fa195bf05f77d3f7220aa056e81f171bcc55a6ff8345e692c0f86e5b48e01b996cadc001622fb5e363b421a056e81f171bcc55a6ff8345e692c0f86e5b48e01b996cadc001622fb5e363b421b90100000000000000000000000000000000000000000000000000000000000000000000000000000000000000000000000000000000000000000000000000000000000000000000000000000000000000000000000000000000000000000000000000000000000000000000000000000000000000000000000000000000000000000000000000000000000000000000000000000000000000000000000000000000000000000000000000000000000000000000000000000000000000000000000000000000000000000000000000000000000000000000000000000000000000000000000000000000000000000000000000000000000000000000000000000000008302000080830f4240808203b642a056e81f171bcc55a6ff8345e692c0f86e5b48e01b996cadc001622fb5e363b421880102030405060708c0c0",
        "lastblockhash" : "0x5a5c0144162d0e892da33c0fadd67109c1119967c806e761f9987be6700fe19a",
        "network" : "ConstantinopleFix",
        "postState" : {
            "0x1000000000000000000000000000000000000000" : {
                "balance" : "0x10c8e0",
                "code" : "0x60016000526040600060406000731000000000000000000000000000000000000001620186a0f4",
                "nonce" : "0x00",
                "storage" : {
                    "0x01" : "0xa94f5374fce5edbc8e2a8697c15331677e6ebf0b",
                    "0x02" : "0x01"
                }
            },
            "0x1000000000000000000000000000000000000001" : {
                "balance" : "0x00",
                "code" : "0x3460005533600155600035600255",
                "nonce" : "0x00",
                "storage" : {
                }
            },
            "0x2adc25665018aa1fe0e6bc666dac8fc2697ff9ba" : {
                "balance" : "0x1bc16d674ec904c0",
                "code" : "0x",
                "nonce" : "0x00",
                "storage" : {
                }
            },
            "0xa94f5374fce5edbc8e2a8697c15331677e6ebf0b" : {
                "balance" : "0x2386f26fbffb40",
                "code" : "0x",
                "nonce" : "0x01",
                "storage" : {
                }
            }
        },
        "pre" : {
            "0x1000000000000000000000000000000000000000" : {
                "balance" : "0x10c8e0",
                "code" : "0x60016000526040600060406000731000000000000000000000000000000000000001620186a0f4",
                "nonce" : "0x00",
                "storage" : {
                }
            },
            "0x1000000000000000000000000000000000000001" : {
                "balance" : "0x00",
                "code" : "0x3460005533600155600035600255",
                "nonce" : "0x00",
                "storage" : {
                }
            },
            "0xa94f5374fce5edbc8e2a8697c15331677e6ebf0b" : {
                "balance" : "0x2386f26fc10000",
                "code" : "0x",
                "nonce" : "0x00",
                "storage" : {
                }
            }
        },
        "sealEngine" : "NoProof"
    },
    "deleagateCallAfterValueTransfer_d0g0v0_Homestead" : {
        "_info" : {
            "comment" : "",
            "filledwith" : "testeth 1.7.0-alpha.1-20+commit.782a7283",
            "lllcversion" : "Version: 0.5.0-develop.2018.11.9+commit.9709dfe0.Linux.g++",
            "source" : "src/BlockchainTestsFiller/GeneralStateTests/stDelegatecallTestHomestead/deleagateCallAfterValueTransfer_d0g0v0Filler.json",
            "sourceHash" : "07b7624cddb57f04fa00f08f7142286e517885982047cf63a257cc3b2008c55e"
        },
        "blocks" : [
            {
                "blockHeader" : {
                    "bloom" : "0x00000000000000000000000000000000000000000000000000000000000000000000000000000000000000000000000000000000000000000000000000000000000000000000000000000000000000000000000000000000000000000000000000000000000000000000000000000000000000000000000000000000000000000000000000000000000000000000000000000000000000000000000000000000000000000000000000000000000000000000000000000000000000000000000000000000000000000000000000000000000000000000000000000000000000000000000000000000000000000000000000000000000000000000000000000000",
                    "coinbase" : "0x2adc25665018aa1fe0e6bc666dac8fc2697ff9ba",
                    "difficulty" : "0x020000",
                    "extraData" : "0x",
                    "gasLimit" : "0x0f4240",
                    "gasUsed" : "0x01022c",
                    "hash" : "0x3f7b64358097de51f4473be72635c78f26f1f42ee2e822451053ab000966b536",
                    "mixHash" : "0x0000000000000000000000000000000000000000000000000000000000000000",
                    "nonce" : "0x0000000000000000",
                    "number" : "0x01",
                    "parentHash" : "0x4c1f25211358ecd99837696adee8ab699342494bf6c2aa3b44f3666bd16904fb",
                    "receiptTrie" : "0xb39fe4870d771cbfa3593996dc7391df9f352a8a43a5117e61d1f719c7be3e60",
                    "stateRoot" : "0x5d3c91f78f93d0be75765d10345387cd501fd8faf246d0f7a2b800d11dea0ac1",
                    "timestamp" : "0x03e8",
                    "transactionsTrie" : "0x74b39e73f0c67b78fff4eb82226142222765b09c97c66d83d2aa030ec81c4f68",
                    "uncleHash" : "0x1dcc4de8dec75d7aab85b567b6ccd41ad312451b948a7413f0a142fd40d49347"
                },
                "rlp" : "0xf90260f901f8a04c1f25211358ecd99837696adee8ab699342494bf6c2aa3b44f3666bd16904fba01dcc4de8dec75d7aab85b567b6ccd41ad312451b948a7413f0a142fd40d49347942adc25665018aa1fe0e6bc666dac8fc2697ff9baa05d3c91f78f93d0be75765d10345387cd501fd8faf246d0f7a2b800d11dea0ac1a074b39e73f0c67b78fff4eb82226142222765b09c97c66d83d2aa030ec81c4f68a0b39fe4870d771cbfa3593996dc7391df9f352a8a43a5117e61d1f719c7be3e60b90100000000000000000000000000000000000000000000000000000000000000000000000000000000000000000000000000000000000000000000000000000000000000000000000000000000000000000000000000000000000000000000000000000000000000000000000000000000000000000000000000000000000000000000000000000000000000000000000000000000000000000000000000000000000000000000000000000000000000000000000000000000000000000000000000000000000000000000000000000000000000000000000000000000000000000000000000000000000000000000000000000000000000000000000000000000008302000001830f42408301022c8203e880a00000000000000000000000000000000000000000000000000000000000000000880000000000000000f862f86080018306e9d994100000000000000000000000000000000000000080801ba0f3800914fa5a27a13dc5a4119f11c1ae1c6874ad1e299f13e9f43e96c8bdaa0ea0332b1e65d433906232fbb38ec187498f66c29f6127864d94788d7de5bc1d4d32c0",
                "transactions" : [
                    {
                        "data" : "0x",
                        "gasLimit" : "0x06e9d9",
                        "gasPrice" : "0x01",
                        "nonce" : "0x00",
                        "r" : "0xf3800914fa5a27a13dc5a4119f11c1ae1c6874ad1e299f13e9f43e96c8bdaa0e",
                        "s" : "0x332b1e65d433906232fbb38ec187498f66c29f6127864d94788d7de5bc1d4d32",
                        "to" : "0x1000000000000000000000000000000000000000",
                        "v" : "0x1b",
                        "value" : "0x00"
                    }
                ],
                "uncleHeaders" : [
                ]
            }
        ],
        "genesisBlockHeader" : {
            "bloom" : "0x00000000000000000000000000000000000000000000000000000000000000000000000000000000000000000000000000000000000000000000000000000000000000000000000000000000000000000000000000000000000000000000000000000000000000000000000000000000000000000000000000000000000000000000000000000000000000000000000000000000000000000000000000000000000000000000000000000000000000000000000000000000000000000000000000000000000000000000000000000000000000000000000000000000000000000000000000000000000000000000000000000000000000000000000000000000",
            "coinbase" : "0x2adc25665018aa1fe0e6bc666dac8fc2697ff9ba",
            "difficulty" : "0x020000",
            "extraData" : "0x42",
            "gasLimit" : "0x0f4240",
            "gasUsed" : "0x00",
            "hash" : "0x4c1f25211358ecd99837696adee8ab699342494bf6c2aa3b44f3666bd16904fb",
            "mixHash" : "0x56e81f171bcc55a6ff8345e692c0f86e5b48e01b996cadc001622fb5e363b421",
            "nonce" : "0x0102030405060708",
            "number" : "0x00",
            "parentHash" : "0x0000000000000000000000000000000000000000000000000000000000000000",
            "receiptTrie" : "0x56e81f171bcc55a6ff8345e692c0f86e5b48e01b996cadc001622fb5e363b421",
            "stateRoot" : "0x29cc72b9ba7577ddd0ae414e612e5a783b40042bf0b4fa195bf05f77d3f7220a",
            "timestamp" : "0x03b6",
            "transactionsTrie" : "0x56e81f171bcc55a6ff8345e692c0f86e5b48e01b996cadc001622fb5e363b421",
            "uncleHash" : "0x1dcc4de8dec75d7aab85b567b6ccd41ad312451b948a7413f0a142fd40d49347"
        },
        "genesisRLP" : "0xf901faf901f5a00000000000000000000000000000000000000000000000000000000000000000a01dcc4de8dec75d7aab85b567b6ccd41ad312451b948a7413f0a142fd40d49347942adc25665018aa1fe0e6bc666dac8fc2697ff9baa029cc72b9ba7577ddd0ae414e612e5a783b40042bf0b4fa195bf05f77d3f7220aa056e81f171bcc55a6ff8345e692c0f86e5b48e01b996cadc001622fb5e363b421a056e81f171bcc55a6ff8345e692c0f86e5b48e01b996cadc001622fb5e363b421b90100000000000000000000000000000000000000000000000000000000000000000000000000000000000000000000000000000000000000000000000000000000000000000000000000000000000000000000000000000000000000000000000000000000000000000000000000000000000000000000000000000000000000000000000000000000000000000000000000000000000000000000000000000000000000000000000000000000000000000000000000000000000000000000000000000000000000000000000000000000000000000000000000000000000000000000000000000000000000000000000000000000000000000000000000000000008302000080830f4240808203b642a056e81f171bcc55a6ff8345e692c0f86e5b48e01b996cadc001622fb5e363b421880102030405060708c0c0",
        "lastblockhash" : "0x3f7b64358097de51f4473be72635c78f26f1f42ee2e822451053ab000966b536",
        "network" : "Homestead",
        "postState" : {
            "0x1000000000000000000000000000000000000000" : {
                "balance" : "0x10c8e0",
                "code" : "0x60016000526040600060406000731000000000000000000000000000000000000001620186a0f4",
                "nonce" : "0x00",
                "storage" : {
                    "0x01" : "0xa94f5374fce5edbc8e2a8697c15331677e6ebf0b",
                    "0x02" : "0x01"
                }
            },
            "0x1000000000000000000000000000000000000001" : {
                "balance" : "0x00",
                "code" : "0x3460005533600155600035600255",
                "nonce" : "0x00",
                "storage" : {
                }
            },
            "0x2adc25665018aa1fe0e6bc666dac8fc2697ff9ba" : {
                "balance" : "0x4563918244f5022c",
                "code" : "0x",
                "nonce" : "0x00",
                "storage" : {
                }
            },
            "0xa94f5374fce5edbc8e2a8697c15331677e6ebf0b" : {
                "balance" : "0x2386f26fbffdd4",
                "code" : "0x",
                "nonce" : "0x01",
                "storage" : {
                }
            }
        },
        "pre" : {
            "0x1000000000000000000000000000000000000000" : {
                "balance" : "0x10c8e0",
                "code" : "0x60016000526040600060406000731000000000000000000000000000000000000001620186a0f4",
                "nonce" : "0x00",
                "storage" : {
                }
            },
            "0x1000000000000000000000000000000000000001" : {
                "balance" : "0x00",
                "code" : "0x3460005533600155600035600255",
                "nonce" : "0x00",
                "storage" : {
                }
            },
            "0xa94f5374fce5edbc8e2a8697c15331677e6ebf0b" : {
                "balance" : "0x2386f26fc10000",
                "code" : "0x",
                "nonce" : "0x00",
                "storage" : {
                }
            }
        },
        "sealEngine" : "NoProof"
    }
}