{
    "ByzantiumTransition_EIP158ToByzantiumAt5" : {
        "_info" : {
            "comment" : "",
            "filling-rpc-server" : "evm version 1.10.4-unstable-966ee3ae-20210528",
            "filling-tool-version" : "retesteth-0.1.1-eip1559+commit.658fc3a8.Linux.g++",
            "lllcversion" : "Version: 0.5.14-develop.2021.5.18+commit.14c9d5de.mod.Linux.g++",
            "source" : "src/BlockchainTestsFiller/TransitionTests/bcEIP158ToByzantium/ByzantiumTransitionFiller.json",
            "sourceHash" : "6a3fe67613369c707c5bea262b5d0ed5f2af99550274c568d90e80c1a17af359"
        },
        "sealEngine" : "NoProof",
        "network" : "EIP158ToByzantiumAt5",
        "pre" : {
            "0x1000000000000000000000000000000000000001" : {
                "balance" : "0x00",
                "code" : "0x600040600055600140600155600240600255600340600355600440600455600540600555600640600655600740600755600840600855600940600955600a40600a5500",
                "nonce" : "0x00",
                "storage" : {
                }
            },
            "0x1000000000000000000000000000000000000002" : {
                "balance" : "0x00",
                "code" : "0x600040600055600140600155600240600255600340600355600440600455600540600555600640600655600740600755600840600855600940600955600a40600a5500",
                "nonce" : "0x00",
                "storage" : {
                }
            },
            "0xa94f5374fce5edbc8e2a8697c15331677e6ebf0b" : {
                "balance" : "0x02540be400",
                "code" : "0x",
                "nonce" : "0x00",
                "storage" : {
                }
            }
        },
        "genesisBlockHeader" : {
            "bloom" : "0x00000000000000000000000000000000000000000000000000000000000000000000000000000000000000000000000000000000000000000000000000000000000000000000000000000000000000000000000000000000000000000000000000000000000000000000000000000000000000000000000000000000000000000000000000000000000000000000000000000000000000000000000000000000000000000000000000000000000000000000000000000000000000000000000000000000000000000000000000000000000000000000000000000000000000000000000000000000000000000000000000000000000000000000000000000000",
            "coinbase" : "0x8888f1f195afa192cfee860698584c030f4c9db1",
            "difficulty" : "0x020000",
            "extraData" : "0x42",
            "gasLimit" : "0x2fefd8",
            "gasUsed" : "0x00",
            "hash" : "0xa16e1d2c3e2f5dce4c3dadfa107ed94c3bb255fc51da6194b5a14e2b6311d28c",
            "mixHash" : "0x0000000000000000000000000000000000000000000000000000000000000000",
            "nonce" : "0x0000000000000000",
            "number" : "0x00",
            "parentHash" : "0x0000000000000000000000000000000000000000000000000000000000000000",
            "receiptTrie" : "0x56e81f171bcc55a6ff8345e692c0f86e5b48e01b996cadc001622fb5e363b421",
            "stateRoot" : "0xd6ce1208cd644fbc75e53e6ddd1378dbf0e0ada38d2b5f5f34bea31474d042a4",
            "timestamp" : "0x54c98c81",
            "transactionsTrie" : "0x56e81f171bcc55a6ff8345e692c0f86e5b48e01b996cadc001622fb5e363b421",
            "uncleHash" : "0x1dcc4de8dec75d7aab85b567b6ccd41ad312451b948a7413f0a142fd40d49347"
        },
        "genesisRLP" : "0xf901fcf901f7a00000000000000000000000000000000000000000000000000000000000000000a01dcc4de8dec75d7aab85b567b6ccd41ad312451b948a7413f0a142fd40d49347948888f1f195afa192cfee860698584c030f4c9db1a0d6ce1208cd644fbc75e53e6ddd1378dbf0e0ada38d2b5f5f34bea31474d042a4a056e81f171bcc55a6ff8345e692c0f86e5b48e01b996cadc001622fb5e363b421a056e81f171bcc55a6ff8345e692c0f86e5b48e01b996cadc001622fb5e363b421b90100000000000000000000000000000000000000000000000000000000000000000000000000000000000000000000000000000000000000000000000000000000000000000000000000000000000000000000000000000000000000000000000000000000000000000000000000000000000000000000000000000000000000000000000000000000000000000000000000000000000000000000000000000000000000000000000000000000000000000000000000000000000000000000000000000000000000000000000000000000000000000000000000000000000000000000000000000000000000000000000000000000000000000000000000000000008302000080832fefd8808454c98c8142a00000000000000000000000000000000000000000000000000000000000000000880000000000000000c0c0",
        "blocks" : [
            {
                "chainname" : "default",
                "blocknumber" : "1",
                "uncleHeaders" : [
                ],
                "blockHeader" : {
                    "bloom" : "0x00000000000000000000000000000000000000000000000000000000000000000000000000000000000000000000000000000000000000000000000000000000000000000000000000000000000000000000000000000000000000000000000000000000000000000000000000000000000000000000000000000000000000000000000000000000000000000000000000000000000000000000000000000000000000000000000000000000000000000000000000000000000000000000000000000000000000000000000000000000000000000000000000000000000000000000000000000000000000000000000000000000000000000000000000000000",
                    "coinbase" : "0x8888f1f195afa192cfee860698584c030f4c9db1",
                    "difficulty" : "0x020000",
                    "extraData" : "0x42",
                    "gasLimit" : "0x2fefd8",
                    "gasUsed" : "0x00",
                    "hash" : "0x2b689b457967f2807679098227324878c8666df2327050e541b765436bfe92fc",
                    "mixHash" : "0x0000000000000000000000000000000000000000000000000000000000000000",
                    "nonce" : "0x0000000000000000",
                    "number" : "0x01",
                    "parentHash" : "0xa16e1d2c3e2f5dce4c3dadfa107ed94c3bb255fc51da6194b5a14e2b6311d28c",
                    "receiptTrie" : "0x56e81f171bcc55a6ff8345e692c0f86e5b48e01b996cadc001622fb5e363b421",
                    "stateRoot" : "0x81b0d38d327204e0a288d95973ffe09fe30a12b0436a94da8cc2ecc61f59ed79",
                    "timestamp" : "0x54c99069",
                    "transactionsTrie" : "0x56e81f171bcc55a6ff8345e692c0f86e5b48e01b996cadc001622fb5e363b421",
                    "uncleHash" : "0x1dcc4de8dec75d7aab85b567b6ccd41ad312451b948a7413f0a142fd40d49347"
                },
                "transactions" : [
                ],
                "rlp" : "0xf901fcf901f7a0a16e1d2c3e2f5dce4c3dadfa107ed94c3bb255fc51da6194b5a14e2b6311d28ca01dcc4de8dec75d7aab85b567b6ccd41ad312451b948a7413f0a142fd40d49347948888f1f195afa192cfee860698584c030f4c9db1a081b0d38d327204e0a288d95973ffe09fe30a12b0436a94da8cc2ecc61f59ed79a056e81f171bcc55a6ff8345e692c0f86e5b48e01b996cadc001622fb5e363b421a056e81f171bcc55a6ff8345e692c0f86e5b48e01b996cadc001622fb5e363b421b90100000000000000000000000000000000000000000000000000000000000000000000000000000000000000000000000000000000000000000000000000000000000000000000000000000000000000000000000000000000000000000000000000000000000000000000000000000000000000000000000000000000000000000000000000000000000000000000000000000000000000000000000000000000000000000000000000000000000000000000000000000000000000000000000000000000000000000000000000000000000000000000000000000000000000000000000000000000000000000000000000000000000000000000000000000000008302000001832fefd8808454c9906942a00000000000000000000000000000000000000000000000000000000000000000880000000000000000c0c0"
            },
            {
                "chainname" : "default",
                "blocknumber" : "2",
                "uncleHeaders" : [
                ],
                "blockHeader" : {
                    "bloom" : "0x00000000000000000000000000000000000000000000000000000000000000000000000000000000000000000000000000000000000000000000000000000000000000000000000000000000000000000000000000000000000000000000000000000000000000000000000000000000000000000000000000000000000000000000000000000000000000000000000000000000000000000000000000000000000000000000000000000000000000000000000000000000000000000000000000000000000000000000000000000000000000000000000000000000000000000000000000000000000000000000000000000000000000000000000000000000",
                    "coinbase" : "0x8888f1f195afa192cfee860698584c030f4c9db1",
                    "difficulty" : "0x020000",
                    "extraData" : "0x42",
                    "gasLimit" : "0x2fefd8",
                    "gasUsed" : "0x00",
                    "hash" : "0xbc08768f042dbb64adab7ba3c783d5975ce2bf9eef4dd14f302485bf015893fc",
                    "mixHash" : "0x0000000000000000000000000000000000000000000000000000000000000000",
                    "nonce" : "0x0000000000000000",
                    "number" : "0x02",
                    "parentHash" : "0x2b689b457967f2807679098227324878c8666df2327050e541b765436bfe92fc",
                    "receiptTrie" : "0x56e81f171bcc55a6ff8345e692c0f86e5b48e01b996cadc001622fb5e363b421",
                    "stateRoot" : "0xdd8153b3b667304212575f3c79ce4f795c8d2abfa1b8061842cc9a3bfdd0dfef",
                    "timestamp" : "0x54c99451",
                    "transactionsTrie" : "0x56e81f171bcc55a6ff8345e692c0f86e5b48e01b996cadc001622fb5e363b421",
                    "uncleHash" : "0x1dcc4de8dec75d7aab85b567b6ccd41ad312451b948a7413f0a142fd40d49347"
                },
                "transactions" : [
                ],
                "rlp" : "0xf901fcf901f7a02b689b457967f2807679098227324878c8666df2327050e541b765436bfe92fca01dcc4de8dec75d7aab85b567b6ccd41ad312451b948a7413f0a142fd40d49347948888f1f195afa192cfee860698584c030f4c9db1a0dd8153b3b667304212575f3c79ce4f795c8d2abfa1b8061842cc9a3bfdd0dfefa056e81f171bcc55a6ff8345e692c0f86e5b48e01b996cadc001622fb5e363b421a056e81f171bcc55a6ff8345e692c0f86e5b48e01b996cadc001622fb5e363b421b90100000000000000000000000000000000000000000000000000000000000000000000000000000000000000000000000000000000000000000000000000000000000000000000000000000000000000000000000000000000000000000000000000000000000000000000000000000000000000000000000000000000000000000000000000000000000000000000000000000000000000000000000000000000000000000000000000000000000000000000000000000000000000000000000000000000000000000000000000000000000000000000000000000000000000000000000000000000000000000000000000000000000000000000000000000000008302000002832fefd8808454c9945142a00000000000000000000000000000000000000000000000000000000000000000880000000000000000c0c0"
            },
            {
                "chainname" : "default",
                "blocknumber" : "3",
                "uncleHeaders" : [
                ],
                "blockHeader" : {
                    "bloom" : "0x00000000000000000000000000000000000000000000000000000000000000000000000000000000000000000000000000000000000000000000000000000000000000000000000000000000000000000000000000000000000000000000000000000000000000000000000000000000000000000000000000000000000000000000000000000000000000000000000000000000000000000000000000000000000000000000000000000000000000000000000000000000000000000000000000000000000000000000000000000000000000000000000000000000000000000000000000000000000000000000000000000000000000000000000000000000",
                    "coinbase" : "0x8888f1f195afa192cfee860698584c030f4c9db1",
                    "difficulty" : "0x020000",
                    "extraData" : "0x42",
                    "gasLimit" : "0x2fefd8",
                    "gasUsed" : "0x00",
                    "hash" : "0x070b95ffe8a13b3a74f2a6f799da411a1120a2d6e981ad5d28fcd896f63abea7",
                    "mixHash" : "0x0000000000000000000000000000000000000000000000000000000000000000",
                    "nonce" : "0x0000000000000000",
                    "number" : "0x03",
                    "parentHash" : "0xbc08768f042dbb64adab7ba3c783d5975ce2bf9eef4dd14f302485bf015893fc",
                    "receiptTrie" : "0x56e81f171bcc55a6ff8345e692c0f86e5b48e01b996cadc001622fb5e363b421",
                    "stateRoot" : "0xce6209c8d0257602a16c68ff602ad863fbb64ca6a8679e597da7dad33acadf59",
                    "timestamp" : "0x54c99839",
                    "transactionsTrie" : "0x56e81f171bcc55a6ff8345e692c0f86e5b48e01b996cadc001622fb5e363b421",
                    "uncleHash" : "0x1dcc4de8dec75d7aab85b567b6ccd41ad312451b948a7413f0a142fd40d49347"
                },
                "transactions" : [
                ],
                "rlp" : "0xf901fcf901f7a0bc08768f042dbb64adab7ba3c783d5975ce2bf9eef4dd14f302485bf015893fca01dcc4de8dec75d7aab85b567b6ccd41ad312451b948a7413f0a142fd40d49347948888f1f195afa192cfee860698584c030f4c9db1a0ce6209c8d0257602a16c68ff602ad863fbb64ca6a8679e597da7dad33acadf59a056e81f171bcc55a6ff8345e692c0f86e5b48e01b996cadc001622fb5e363b421a056e81f171bcc55a6ff8345e692c0f86e5b48e01b996cadc001622fb5e363b421b90100000000000000000000000000000000000000000000000000000000000000000000000000000000000000000000000000000000000000000000000000000000000000000000000000000000000000000000000000000000000000000000000000000000000000000000000000000000000000000000000000000000000000000000000000000000000000000000000000000000000000000000000000000000000000000000000000000000000000000000000000000000000000000000000000000000000000000000000000000000000000000000000000000000000000000000000000000000000000000000000000000000000000000000000000000000008302000003832fefd8808454c9983942a00000000000000000000000000000000000000000000000000000000000000000880000000000000000c0c0"
            },
            {
                "chainname" : "default",
                "blocknumber" : "4",
                "uncleHeaders" : [
                ],
                "blockHeader" : {
                    "bloom" : "0x00000000000000000000000000000000000000000000000000000000000000000000000000000000000000000000000000000000000000000000000000000000000000000000000000000000000000000000000000000000000000000000000000000000000000000000000000000000000000000000000000000000000000000000000000000000000000000000000000000000000000000000000000000000000000000000000000000000000000000000000000000000000000000000000000000000000000000000000000000000000000000000000000000000000000000000000000000000000000000000000000000000000000000000000000000000",
                    "coinbase" : "0x8888f1f195afa192cfee860698584c030f4c9db1",
                    "difficulty" : "0x020000",
                    "extraData" : "0x42",
                    "gasLimit" : "0x2fefd8",
                    "gasUsed" : "0x00",
                    "hash" : "0x0db1150650aa428a90c18c18c81e70bd5756f087997533922bb679fad4c59958",
                    "mixHash" : "0x0000000000000000000000000000000000000000000000000000000000000000",
                    "nonce" : "0x0000000000000000",
                    "number" : "0x04",
                    "parentHash" : "0x070b95ffe8a13b3a74f2a6f799da411a1120a2d6e981ad5d28fcd896f63abea7",
                    "receiptTrie" : "0x56e81f171bcc55a6ff8345e692c0f86e5b48e01b996cadc001622fb5e363b421",
                    "stateRoot" : "0x0dfc4ec36d66ceb577e2d55e14c509d8052e232d602722af040cc4ebece843cc",
                    "timestamp" : "0x54c99c21",
                    "transactionsTrie" : "0x56e81f171bcc55a6ff8345e692c0f86e5b48e01b996cadc001622fb5e363b421",
                    "uncleHash" : "0x1dcc4de8dec75d7aab85b567b6ccd41ad312451b948a7413f0a142fd40d49347"
                },
                "transactions" : [
                ],
                "rlp" : "0xf901fcf901f7a0070b95ffe8a13b3a74f2a6f799da411a1120a2d6e981ad5d28fcd896f63abea7a01dcc4de8dec75d7aab85b567b6ccd41ad312451b948a7413f0a142fd40d49347948888f1f195afa192cfee860698584c030f4c9db1a00dfc4ec36d66ceb577e2d55e14c509d8052e232d602722af040cc4ebece843cca056e81f171bcc55a6ff8345e692c0f86e5b48e01b996cadc001622fb5e363b421a056e81f171bcc55a6ff8345e692c0f86e5b48e01b996cadc001622fb5e363b421b90100000000000000000000000000000000000000000000000000000000000000000000000000000000000000000000000000000000000000000000000000000000000000000000000000000000000000000000000000000000000000000000000000000000000000000000000000000000000000000000000000000000000000000000000000000000000000000000000000000000000000000000000000000000000000000000000000000000000000000000000000000000000000000000000000000000000000000000000000000000000000000000000000000000000000000000000000000000000000000000000000000000000000000000000000000000008302000004832fefd8808454c99c2142a00000000000000000000000000000000000000000000000000000000000000000880000000000000000c0c0"
            },
            {
                "chainname" : "default",
                "blocknumber" : "5",
                "uncleHeaders" : [
                ],
                "blockHeader" : {
                    "bloom" : "0x00000000000000000000000000000000000000000000000000000000000000000000000000000000000000000000000000000000000000000000000000000000000000000000000000000000000000000000000000000000000000000000000000000000000000000000000000000000000000000000000000000000000000000000000000000000000000000000000000000000000000000000000000000000000000000000000000000000000000000000000000000000000000000000000000000000000000000000000000000000000000000000000000000000000000000000000000000000000000000000000000000000000000000000000000000000",
                    "coinbase" : "0x8888f1f195afa192cfee860698584c030f4c9db1",
                    "difficulty" : "0x020000",
                    "extraData" : "0x42",
                    "gasLimit" : "0x2fefd8",
                    "gasUsed" : "0x00",
                    "hash" : "0xb0c62a019eea3f419ebef16f865ff54a0a2fce252ba928f2150768ea43902fc0",
                    "mixHash" : "0x0000000000000000000000000000000000000000000000000000000000000000",
                    "nonce" : "0x0000000000000000",
                    "number" : "0x05",
                    "parentHash" : "0x0db1150650aa428a90c18c18c81e70bd5756f087997533922bb679fad4c59958",
                    "receiptTrie" : "0x56e81f171bcc55a6ff8345e692c0f86e5b48e01b996cadc001622fb5e363b421",
                    "stateRoot" : "0x66593440f67b0983d8cd194ba75c34191d0ecdea2738ac2ddc2e04ff475387ee",
                    "timestamp" : "0x54c9a009",
                    "transactionsTrie" : "0x56e81f171bcc55a6ff8345e692c0f86e5b48e01b996cadc001622fb5e363b421",
                    "uncleHash" : "0x1dcc4de8dec75d7aab85b567b6ccd41ad312451b948a7413f0a142fd40d49347"
                },
                "transactions" : [
                ],
                "rlp" : "0xf901fcf901f7a00db1150650aa428a90c18c18c81e70bd5756f087997533922bb679fad4c59958a01dcc4de8dec75d7aab85b567b6ccd41ad312451b948a7413f0a142fd40d49347948888f1f195afa192cfee860698584c030f4c9db1a066593440f67b0983d8cd194ba75c34191d0ecdea2738ac2ddc2e04ff475387eea056e81f171bcc55a6ff8345e692c0f86e5b48e01b996cadc001622fb5e363b421a056e81f171bcc55a6ff8345e692c0f86e5b48e01b996cadc001622fb5e363b421b90100000000000000000000000000000000000000000000000000000000000000000000000000000000000000000000000000000000000000000000000000000000000000000000000000000000000000000000000000000000000000000000000000000000000000000000000000000000000000000000000000000000000000000000000000000000000000000000000000000000000000000000000000000000000000000000000000000000000000000000000000000000000000000000000000000000000000000000000000000000000000000000000000000000000000000000000000000000000000000000000000000000000000000000000000000000008302000005832fefd8808454c9a00942a00000000000000000000000000000000000000000000000000000000000000000880000000000000000c0c0"
            },
            {
                "chainname" : "default",
                "blocknumber" : "6",
                "uncleHeaders" : [
                ],
                "blockHeader" : {
                    "bloom" : "0x00000000000000000000000000000000000000000000000000000000000000000000000000000000000000000000000000000000000000000000000000000000000000000000000000000000000000000000000000000000000000000000000000000000000000000000000000000000000000000000000000000000000000000000000000000000000000000000000000000000000000000000000000000000000000000000000000000000000000000000000000000000000000000000000000000000000000000000000000000000000000000000000000000000000000000000000000000000000000000000000000000000000000000000000000000000",
                    "coinbase" : "0x8888f1f195afa192cfee860698584c030f4c9db1",
                    "difficulty" : "0x020000",
                    "extraData" : "0x42",
                    "gasLimit" : "0x2fefd8",
                    "gasUsed" : "0x00",
                    "hash" : "0xa0a24f5db405729523a91af6a99a1528a158fdc117a1d6f8343125e3c8fe80d6",
                    "mixHash" : "0x0000000000000000000000000000000000000000000000000000000000000000",
                    "nonce" : "0x0000000000000000",
                    "number" : "0x06",
                    "parentHash" : "0xb0c62a019eea3f419ebef16f865ff54a0a2fce252ba928f2150768ea43902fc0",
                    "receiptTrie" : "0x56e81f171bcc55a6ff8345e692c0f86e5b48e01b996cadc001622fb5e363b421",
                    "stateRoot" : "0x68de9ae66d6734eed329271989dfb09e5d345928599bae4ba1bdc37a354b5889",
                    "timestamp" : "0x54c9a3f1",
                    "transactionsTrie" : "0x56e81f171bcc55a6ff8345e692c0f86e5b48e01b996cadc001622fb5e363b421",
                    "uncleHash" : "0x1dcc4de8dec75d7aab85b567b6ccd41ad312451b948a7413f0a142fd40d49347"
                },
                "transactions" : [
                ],
                "rlp" : "0xf901fcf901f7a0b0c62a019eea3f419ebef16f865ff54a0a2fce252ba928f2150768ea43902fc0a01dcc4de8dec75d7aab85b567b6ccd41ad312451b948a7413f0a142fd40d49347948888f1f195afa192cfee860698584c030f4c9db1a068de9ae66d6734eed329271989dfb09e5d345928599bae4ba1bdc37a354b5889a056e81f171bcc55a6ff8345e692c0f86e5b48e01b996cadc001622fb5e363b421a056e81f171bcc55a6ff8345e692c0f86e5b48e01b996cadc001622fb5e363b421b90100000000000000000000000000000000000000000000000000000000000000000000000000000000000000000000000000000000000000000000000000000000000000000000000000000000000000000000000000000000000000000000000000000000000000000000000000000000000000000000000000000000000000000000000000000000000000000000000000000000000000000000000000000000000000000000000000000000000000000000000000000000000000000000000000000000000000000000000000000000000000000000000000000000000000000000000000000000000000000000000000000000000000000000000000000000008302000006832fefd8808454c9a3f142a00000000000000000000000000000000000000000000000000000000000000000880000000000000000c0c0"
            },
            {
                "chainname" : "default",
                "blocknumber" : "7",
                "uncleHeaders" : [
                ],
                "blockHeader" : {
                    "bloom" : "0x00000000000000000000000000000000000000000000000000000000000000000000000000000000000000000000000000000000000000000000000000000000000000000000000000000000000000000000000000000000000000000000000000000000000000000000000000000000000000000000000000000000000000000000000000000000000000000000000000000000000000000000000000000000000000000000000000000000000000000000000000000000000000000000000000000000000000000000000000000000000000000000000000000000000000000000000000000000000000000000000000000000000000000000000000000000",
                    "coinbase" : "0x8888f1f195afa192cfee860698584c030f4c9db1",
                    "difficulty" : "0x020000",
                    "extraData" : "0x42",
                    "gasLimit" : "0x2fefd8",
                    "gasUsed" : "0x00",
                    "hash" : "0x827e7e84a1825129f1773e288486b7349324d2bc39b7f139c19565469fc94175",
                    "mixHash" : "0x0000000000000000000000000000000000000000000000000000000000000000",
                    "nonce" : "0x0000000000000000",
                    "number" : "0x07",
                    "parentHash" : "0xa0a24f5db405729523a91af6a99a1528a158fdc117a1d6f8343125e3c8fe80d6",
                    "receiptTrie" : "0x56e81f171bcc55a6ff8345e692c0f86e5b48e01b996cadc001622fb5e363b421",
                    "stateRoot" : "0x0a3e306ee96d5763f035d82d175cacd151adbb7a3ef197cdc58bb9b5c0b94233",
                    "timestamp" : "0x54c9a7d9",
                    "transactionsTrie" : "0x56e81f171bcc55a6ff8345e692c0f86e5b48e01b996cadc001622fb5e363b421",
                    "uncleHash" : "0x1dcc4de8dec75d7aab85b567b6ccd41ad312451b948a7413f0a142fd40d49347"
                },
                "transactions" : [
                ],
                "rlp" : "0xf901fcf901f7a0a0a24f5db405729523a91af6a99a1528a158fdc117a1d6f8343125e3c8fe80d6a01dcc4de8dec75d7aab85b567b6ccd41ad312451b948a7413f0a142fd40d49347948888f1f195afa192cfee860698584c030f4c9db1a00a3e306ee96d5763f035d82d175cacd151adbb7a3ef197cdc58bb9b5c0b94233a056e81f171bcc55a6ff8345e692c0f86e5b48e01b996cadc001622fb5e363b421a056e81f171bcc55a6ff8345e692c0f86e5b48e01b996cadc001622fb5e363b421b90100000000000000000000000000000000000000000000000000000000000000000000000000000000000000000000000000000000000000000000000000000000000000000000000000000000000000000000000000000000000000000000000000000000000000000000000000000000000000000000000000000000000000000000000000000000000000000000000000000000000000000000000000000000000000000000000000000000000000000000000000000000000000000000000000000000000000000000000000000000000000000000000000000000000000000000000000000000000000000000000000000000000000000000000000000000008302000007832fefd8808454c9a7d942a00000000000000000000000000000000000000000000000000000000000000000880000000000000000c0c0"
            },
            {
                "chainname" : "default",
                "blocknumber" : "8",
                "uncleHeaders" : [
                ],
                "blockHeader" : {
                    "bloom" : "0x00000000000000000000000000000000000000000000000000000000000000000000000000000000000000000000000000000000000000000000000000000000000000000000000000000000000000000000000000000000000000000000000000000000000000000000000000000000000000000000000000000000000000000000000000000000000000000000000000000000000000000000000000000000000000000000000000000000000000000000000000000000000000000000000000000000000000000000000000000000000000000000000000000000000000000000000000000000000000000000000000000000000000000000000000000000",
                    "coinbase" : "0x8888f1f195afa192cfee860698584c030f4c9db1",
                    "difficulty" : "0x020000",
                    "extraData" : "0x42",
                    "gasLimit" : "0x2fefd8",
                    "gasUsed" : "0x02febe",
                    "hash" : "0xdc0fa8f1a4c12b979ee6947ca42063d0f3584d09d2f6053d854d90f9aba97832",
                    "mixHash" : "0x0000000000000000000000000000000000000000000000000000000000000000",
                    "nonce" : "0x0000000000000000",
                    "number" : "0x08",
                    "parentHash" : "0x827e7e84a1825129f1773e288486b7349324d2bc39b7f139c19565469fc94175",
                    "receiptTrie" : "0x95111ac1a116d4c27ec540135ac60d81f52d04dbcea60587afc0ff018a14396a",
                    "stateRoot" : "0x545bea42f61075178458fd02828a8109f3d539a95053fc8ec889e2cc9fa70a2c",
                    "timestamp" : "0x54c9abc1",
                    "transactionsTrie" : "0x0025e7a76a330ca2f7c7f8354b88d2b3c591855915d87cc38aa59da967fa36ed",
                    "uncleHash" : "0x1dcc4de8dec75d7aab85b567b6ccd41ad312451b948a7413f0a142fd40d49347"
                },
                "transactions" : [
                    {
                        "data" : "0x",
                        "gasLimit" : "0x0927c0",
                        "gasPrice" : "0x01",
                        "nonce" : "0x00",
                        "r" : "0x1e5d7d77889a01b8ed4026fb1a2a9e47bd79c81ac7b27cec0688ebc783c2ab95",
                        "s" : "0x6fc2bedf69176eb9d86ded92a109e29805adabcb44e08746962aaa9266083c17",
                        "to" : "0x1000000000000000000000000000000000000001",
                        "v" : "0x1c",
                        "value" : "0x01"
                    }
                ],
                "rlp" : "0xf90262f901faa0827e7e84a1825129f1773e288486b7349324d2bc39b7f139c19565469fc94175a01dcc4de8dec75d7aab85b567b6ccd41ad312451b948a7413f0a142fd40d49347948888f1f195afa192cfee860698584c030f4c9db1a0545bea42f61075178458fd02828a8109f3d539a95053fc8ec889e2cc9fa70a2ca00025e7a76a330ca2f7c7f8354b88d2b3c591855915d87cc38aa59da967fa36eda095111ac1a116d4c27ec540135ac60d81f52d04dbcea60587afc0ff018a14396ab90100000000000000000000000000000000000000000000000000000000000000000000000000000000000000000000000000000000000000000000000000000000000000000000000000000000000000000000000000000000000000000000000000000000000000000000000000000000000000000000000000000000000000000000000000000000000000000000000000000000000000000000000000000000000000000000000000000000000000000000000000000000000000000000000000000000000000000000000000000000000000000000000000000000000000000000000000000000000000000000000000000000000000000000000000000000008302000008832fefd88302febe8454c9abc142a00000000000000000000000000000000000000000000000000000000000000000880000000000000000f862f8608001830927c094100000000000000000000000000000000000000101801ca01e5d7d77889a01b8ed4026fb1a2a9e47bd79c81ac7b27cec0688ebc783c2ab95a06fc2bedf69176eb9d86ded92a109e29805adabcb44e08746962aaa9266083c17c0"
            },
            {
                "chainname" : "default",
                "blocknumber" : "9",
                "uncleHeaders" : [
                ],
                "blockHeader" : {
                    "bloom" : "0x00000000000000000000000000000000000000000000000000000000000000000000000000000000000000000000000000000000000000000000000000000000000000000000000000000000000000000000000000000000000000000000000000000000000000000000000000000000000000000000000000000000000000000000000000000000000000000000000000000000000000000000000000000000000000000000000000000000000000000000000000000000000000000000000000000000000000000000000000000000000000000000000000000000000000000000000000000000000000000000000000000000000000000000000000000000",
                    "coinbase" : "0x8888f1f195afa192cfee860698584c030f4c9db1",
                    "difficulty" : "0x020000",
                    "extraData" : "0x42",
                    "gasLimit" : "0x2fefd8",
                    "gasUsed" : "0x033956",
                    "hash" : "0x805637cc82d7fc5fb618c76a98bc8d89bc1c6b6bf93a50eafe37772ed9042ac5",
                    "mixHash" : "0x0000000000000000000000000000000000000000000000000000000000000000",
                    "nonce" : "0x0000000000000000",
                    "number" : "0x09",
                    "parentHash" : "0xdc0fa8f1a4c12b979ee6947ca42063d0f3584d09d2f6053d854d90f9aba97832",
                    "receiptTrie" : "0xef5ce2f12c40410fa054dcf5be652ade8e3e7cd61efceb2bbc7fd2645bdc5c1b",
                    "stateRoot" : "0x852defeddd8269e196c7d8b3f71a8a5f6fbbf90bb7e4bbfd2b8a72faf2eff7b4",
                    "timestamp" : "0x54c9afa9",
                    "transactionsTrie" : "0x731f6307eb9fd1dc73c5dc5c8420d0bc8104e16de8c2a908f4184f9c9e568ca3",
                    "uncleHash" : "0x1dcc4de8dec75d7aab85b567b6ccd41ad312451b948a7413f0a142fd40d49347"
                },
                "transactions" : [
                    {
                        "data" : "0x",
                        "gasLimit" : "0x0927c0",
                        "gasPrice" : "0x01",
                        "nonce" : "0x01",
                        "r" : "0x287ddddee5d48ad0a5d63185f195ea7be555fe7d99c632bd5881c94a935e34e8",
                        "s" : "0x21dcf284222e75e491d08b6a580c905fe26f5fa9e4e54121da52da434dc28ade",
                        "to" : "0x1000000000000000000000000000000000000002",
                        "v" : "0x1c",
                        "value" : "0x01"
                    }
                ],
                "rlp" : "0xf90262f901faa0dc0fa8f1a4c12b979ee6947ca42063d0f3584d09d2f6053d854d90f9aba97832a01dcc4de8dec75d7aab85b567b6ccd41ad312451b948a7413f0a142fd40d49347948888f1f195afa192cfee860698584c030f4c9db1a0852defeddd8269e196c7d8b3f71a8a5f6fbbf90bb7e4bbfd2b8a72faf2eff7b4a0731f6307eb9fd1dc73c5dc5c8420d0bc8104e16de8c2a908f4184f9c9e568ca3a0ef5ce2f12c40410fa054dcf5be652ade8e3e7cd61efceb2bbc7fd2645bdc5c1bb90100000000000000000000000000000000000000000000000000000000000000000000000000000000000000000000000000000000000000000000000000000000000000000000000000000000000000000000000000000000000000000000000000000000000000000000000000000000000000000000000000000000000000000000000000000000000000000000000000000000000000000000000000000000000000000000000000000000000000000000000000000000000000000000000000000000000000000000000000000000000000000000000000000000000000000000000000000000000000000000000000000000000000000000000000000000008302000009832fefd8830339568454c9afa942a00000000000000000000000000000000000000000000000000000000000000000880000000000000000f862f8600101830927c094100000000000000000000000000000000000000201801ca0287ddddee5d48ad0a5d63185f195ea7be555fe7d99c632bd5881c94a935e34e8a021dcf284222e75e491d08b6a580c905fe26f5fa9e4e54121da52da434dc28adec0"
            }
        ],
        "postState" : {
            "0x1000000000000000000000000000000000000001" : {
                "code" : "0x600040600055600140600155600240600255600340600355600440600455600540600555600640600655600740600755600840600855600940600955600a40600a5500",
                "nonce" : "0x00",
                "balance" : "0x01",
                "storage" : {
                    "0x00" : "0xa16e1d2c3e2f5dce4c3dadfa107ed94c3bb255fc51da6194b5a14e2b6311d28c",
                    "0x01" : "0x2b689b457967f2807679098227324878c8666df2327050e541b765436bfe92fc",
                    "0x02" : "0xbc08768f042dbb64adab7ba3c783d5975ce2bf9eef4dd14f302485bf015893fc",
                    "0x03" : "0x070b95ffe8a13b3a74f2a6f799da411a1120a2d6e981ad5d28fcd896f63abea7",
                    "0x04" : "0x0db1150650aa428a90c18c18c81e70bd5756f087997533922bb679fad4c59958",
                    "0x05" : "0xb0c62a019eea3f419ebef16f865ff54a0a2fce252ba928f2150768ea43902fc0",
                    "0x06" : "0xa0a24f5db405729523a91af6a99a1528a158fdc117a1d6f8343125e3c8fe80d6",
                    "0x07" : "0x827e7e84a1825129f1773e288486b7349324d2bc39b7f139c19565469fc94175"
                }
            },
            "0x1000000000000000000000000000000000000002" : {
                "code" : "0x600040600055600140600155600240600255600340600355600440600455600540600555600640600655600740600755600840600855600940600955600a40600a5500",
                "nonce" : "0x00",
                "balance" : "0x01",
                "storage" : {
                    "0x00" : "0xa16e1d2c3e2f5dce4c3dadfa107ed94c3bb255fc51da6194b5a14e2b6311d28c",
                    "0x01" : "0x2b689b457967f2807679098227324878c8666df2327050e541b765436bfe92fc",
                    "0x02" : "0xbc08768f042dbb64adab7ba3c783d5975ce2bf9eef4dd14f302485bf015893fc",
                    "0x03" : "0x070b95ffe8a13b3a74f2a6f799da411a1120a2d6e981ad5d28fcd896f63abea7",
                    "0x04" : "0x0db1150650aa428a90c18c18c81e70bd5756f087997533922bb679fad4c59958",
                    "0x05" : "0xb0c62a019eea3f419ebef16f865ff54a0a2fce252ba928f2150768ea43902fc0",
                    "0x06" : "0xa0a24f5db405729523a91af6a99a1528a158fdc117a1d6f8343125e3c8fe80d6",
                    "0x07" : "0x827e7e84a1825129f1773e288486b7349324d2bc39b7f139c19565469fc94175",
                    "0x08" : "0xdc0fa8f1a4c12b979ee6947ca42063d0f3584d09d2f6053d854d90f9aba97832"
                }
            },
            "0x8888f1f195afa192cfee860698584c030f4c9db1" : {
                "code" : "0x",
                "nonce" : "0x00",
                "balance" : "0x01e5b8fa8fe2b23814",
                "storage" : {
                }
            },
            "0xa94f5374fce5edbc8e2a8697c15331677e6ebf0b" : {
                "code" : "0x",
                "nonce" : "0x02",
                "balance" : "0x025405abea",
                "storage" : {
                }
            }
        },
        "lastblockhash" : "0x805637cc82d7fc5fb618c76a98bc8d89bc1c6b6bf93a50eafe37772ed9042ac5"
    }
}