{
    "ExecuteCallThatAskForeGasThenTrabsactionHas_d0g0v0_Berlin" : {
        "_info" : {
            "comment" : "",
            "filling-rpc-server" : "evm version 1.10.4-unstable-966ee3ae-20210528",
            "filling-tool-version" : "retesteth-0.1.1-eip1559+commit.658fc3a8.Linux.g++",
            "lllcversion" : "Version: 0.5.14-develop.2021.5.18+commit.14c9d5de.mod.Linux.g++",
            "source" : "src/GeneralStateTestsFiller/stEIP150Specific/ExecuteCallThatAskForeGasThenTrabsactionHasFiller.json",
            "sourceHash" : "9547da03db7abe679ccb3a6ed463753c6685026ca393cada4cbf7fbe37003959"
        },
        "genesisBlockHeader" : {
            "bloom" : "0x00000000000000000000000000000000000000000000000000000000000000000000000000000000000000000000000000000000000000000000000000000000000000000000000000000000000000000000000000000000000000000000000000000000000000000000000000000000000000000000000000000000000000000000000000000000000000000000000000000000000000000000000000000000000000000000000000000000000000000000000000000000000000000000000000000000000000000000000000000000000000000000000000000000000000000000000000000000000000000000000000000000000000000000000000000000",
            "coinbase" : "0x2adc25665018aa1fe0e6bc666dac8fc2697ff9ba",
            "difficulty" : "0x020000",
            "extraData" : "0x00",
            "gasLimit" : "0x989680",
            "gasUsed" : "0x00",
            "hash" : "0x52dfa6a4f6c39f25b650340199eab5d03b71df8f3c7119d6d3a927ab8b494c1c",
            "mixHash" : "0x0000000000000000000000000000000000000000000000000000000000000000",
            "nonce" : "0x0000000000000000",
            "number" : "0x00",
            "parentHash" : "0x0000000000000000000000000000000000000000000000000000000000000000",
            "receiptTrie" : "0x56e81f171bcc55a6ff8345e692c0f86e5b48e01b996cadc001622fb5e363b421",
            "stateRoot" : "0xc92ec736b297be3bc471ab8cc7d709ac09626a3e39ed486a984316a27c905886",
            "timestamp" : "0x00",
            "transactionsTrie" : "0x56e81f171bcc55a6ff8345e692c0f86e5b48e01b996cadc001622fb5e363b421",
            "uncleHash" : "0x1dcc4de8dec75d7aab85b567b6ccd41ad312451b948a7413f0a142fd40d49347"
        },
        "pre" : {
            "0x1000000000000000000000000000000000000001" : {
                "balance" : "0x0186a0",
                "code" : "0x600c60015500",
                "nonce" : "0x00",
                "storage" : {
                }
            },
            "0xa94f5374fce5edbc8e2a8697c15331677e6ebf0b" : {
                "balance" : "0x05f5e100",
                "code" : "0x",
                "nonce" : "0x00",
                "storage" : {
                }
            },
            "0xb94f5374fce5edbc8e2a8697c15331677e6ebf0b" : {
                "balance" : "0x00",
                "code" : "0x60006000600060006000731000000000000000000000000000000000000001620927c0f160015500",
                "nonce" : "0x00",
                "storage" : {
                }
            }
        },
        "postState" : {
            "0x1000000000000000000000000000000000000001" : {
                "code" : "0x600c60015500",
                "nonce" : "0x00",
                "balance" : "0x0186a0",
                "storage" : {
                    "0x01" : "0x0c"
                }
            },
            "0x2adc25665018aa1fe0e6bc666dac8fc2697ff9ba" : {
                "code" : "0x",
                "nonce" : "0x00",
                "balance" : "0x1bc16d674ed2599c",
                "storage" : {
                }
            },
            "0xa94f5374fce5edbc8e2a8697c15331677e6ebf0b" : {
                "code" : "0x",
                "nonce" : "0x01",
                "balance" : "0x05eb8764",
                "storage" : {
                }
            },
            "0xb94f5374fce5edbc8e2a8697c15331677e6ebf0b" : {
                "code" : "0x60006000600060006000731000000000000000000000000000000000000001620927c0f160015500",
                "nonce" : "0x00",
                "balance" : "0x00",
                "storage" : {
                    "0x01" : "0x01"
                }
            }
        },
        "network" : "Berlin",
        "sealEngine" : "NoProof",
        "lastblockhash" : "0xd2b779577cfbbcf80448d1bf820c90c2c9ee69b6297b6b5ed91d5e503f78e207",
        "genesisRLP" : "0xf901f8f901f3a00000000000000000000000000000000000000000000000000000000000000000a01dcc4de8dec75d7aab85b567b6ccd41ad312451b948a7413f0a142fd40d49347942adc25665018aa1fe0e6bc666dac8fc2697ff9baa0c92ec736b297be3bc471ab8cc7d709ac09626a3e39ed486a984316a27c905886a056e81f171bcc55a6ff8345e692c0f86e5b48e01b996cadc001622fb5e363b421a056e81f171bcc55a6ff8345e692c0f86e5b48e01b996cadc001622fb5e363b421b9010000000000000000000000000000000000000000000000000000000000000000000000000000000000000000000000000000000000000000000000000000000000000000000000000000000000000000000000000000000000000000000000000000000000000000000000000000000000000000000000000000000000000000000000000000000000000000000000000000000000000000000000000000000000000000000000000000000000000000000000000000000000000000000000000000000000000000000000000000000000000000000000000000000000000000000000000000000000000000000000000000000000000000000000000000000000830200008083989680808000a00000000000000000000000000000000000000000000000000000000000000000880000000000000000c0c0",
        "blocks" : [
            {
                "rlp" : "0xf90260f901f8a052dfa6a4f6c39f25b650340199eab5d03b71df8f3c7119d6d3a927ab8b494c1ca01dcc4de8dec75d7aab85b567b6ccd41ad312451b948a7413f0a142fd40d49347942adc25665018aa1fe0e6bc666dac8fc2697ff9baa0add0c5399bd02ac4c5b5637d382c23e7ce465a974271706d161875d3572e3fafa0a09d9e7f3a2dd295edff6e3b3b18ed222917a5d08fa0860fa3955c708040bcffa015dd49ba9e04929c8de71a8987839d7b32190df3b4fb26927e4b8621e40fc9e7b9010000000000000000000000000000000000000000000000000000000000000000000000000000000000000000000000000000000000000000000000000000000000000000000000000000000000000000000000000000000000000000000000000000000000000000000000000000000000000000000000000000000000000000000000000000000000000000000000000000000000000000000000000000000000000000000000000000000000000000000000000000000000000000000000000000000000000000000000000000000000000000000000000000000000000000000000000000000000000000000000000000000000000000000000000000000000830200000183989680830108f68203e800a00000000000000000000000000000000000000000000000000000000000000000880000000000000000f862f860800a830186a094b94f5374fce5edbc8e2a8697c15331677e6ebf0b80801ca013e72da04d3a74fdc16979fdea1a319c45fcdcb22aed63dc8f7fc1851dde3640a05bc995d025196b6ef2ffc6777e831d18a86226f8759c5adb8dda36e4cc19d238c0",
                "blockHeader" : {
                    "bloom" : "0x00000000000000000000000000000000000000000000000000000000000000000000000000000000000000000000000000000000000000000000000000000000000000000000000000000000000000000000000000000000000000000000000000000000000000000000000000000000000000000000000000000000000000000000000000000000000000000000000000000000000000000000000000000000000000000000000000000000000000000000000000000000000000000000000000000000000000000000000000000000000000000000000000000000000000000000000000000000000000000000000000000000000000000000000000000000",
                    "coinbase" : "0x2adc25665018aa1fe0e6bc666dac8fc2697ff9ba",
                    "difficulty" : "0x020000",
                    "extraData" : "0x00",
                    "gasLimit" : "0x989680",
                    "gasUsed" : "0x0108f6",
                    "hash" : "0xd2b779577cfbbcf80448d1bf820c90c2c9ee69b6297b6b5ed91d5e503f78e207",
                    "mixHash" : "0x0000000000000000000000000000000000000000000000000000000000000000",
                    "nonce" : "0x0000000000000000",
                    "number" : "0x01",
                    "parentHash" : "0x52dfa6a4f6c39f25b650340199eab5d03b71df8f3c7119d6d3a927ab8b494c1c",
                    "receiptTrie" : "0x15dd49ba9e04929c8de71a8987839d7b32190df3b4fb26927e4b8621e40fc9e7",
                    "stateRoot" : "0xadd0c5399bd02ac4c5b5637d382c23e7ce465a974271706d161875d3572e3faf",
                    "timestamp" : "0x03e8",
                    "transactionsTrie" : "0xa09d9e7f3a2dd295edff6e3b3b18ed222917a5d08fa0860fa3955c708040bcff",
                    "uncleHash" : "0x1dcc4de8dec75d7aab85b567b6ccd41ad312451b948a7413f0a142fd40d49347"
                },
                "transactions" : [
                    {
                        "data" : "0x",
                        "gasLimit" : "0x0186a0",
                        "gasPrice" : "0x0a",
                        "nonce" : "0x00",
                        "to" : "0xb94f5374fce5edbc8e2a8697c15331677e6ebf0b",
                        "value" : "0x00",
                        "v" : "0x1c",
                        "r" : "0x13e72da04d3a74fdc16979fdea1a319c45fcdcb22aed63dc8f7fc1851dde3640",
                        "s" : "0x5bc995d025196b6ef2ffc6777e831d18a86226f8759c5adb8dda36e4cc19d238"
                    }
                ],
                "uncleHeaders" : [
                ]
            }
        ]
    },
    "ExecuteCallThatAskForeGasThenTrabsactionHas_d0g0v0_Istanbul" : {
        "_info" : {
            "comment" : "",
            "filling-rpc-server" : "evm version 1.10.4-unstable-966ee3ae-20210528",
            "filling-tool-version" : "retesteth-0.1.1-eip1559+commit.658fc3a8.Linux.g++",
            "lllcversion" : "Version: 0.5.14-develop.2021.5.18+commit.14c9d5de.mod.Linux.g++",
            "source" : "src/GeneralStateTestsFiller/stEIP150Specific/ExecuteCallThatAskForeGasThenTrabsactionHasFiller.json",
            "sourceHash" : "9547da03db7abe679ccb3a6ed463753c6685026ca393cada4cbf7fbe37003959"
        },
        "genesisBlockHeader" : {
            "bloom" : "0x00000000000000000000000000000000000000000000000000000000000000000000000000000000000000000000000000000000000000000000000000000000000000000000000000000000000000000000000000000000000000000000000000000000000000000000000000000000000000000000000000000000000000000000000000000000000000000000000000000000000000000000000000000000000000000000000000000000000000000000000000000000000000000000000000000000000000000000000000000000000000000000000000000000000000000000000000000000000000000000000000000000000000000000000000000000",
            "coinbase" : "0x2adc25665018aa1fe0e6bc666dac8fc2697ff9ba",
            "difficulty" : "0x020000",
            "extraData" : "0x00",
            "gasLimit" : "0x989680",
            "gasUsed" : "0x00",
            "hash" : "0x52dfa6a4f6c39f25b650340199eab5d03b71df8f3c7119d6d3a927ab8b494c1c",
            "mixHash" : "0x0000000000000000000000000000000000000000000000000000000000000000",
            "nonce" : "0x0000000000000000",
            "number" : "0x00",
            "parentHash" : "0x0000000000000000000000000000000000000000000000000000000000000000",
            "receiptTrie" : "0x56e81f171bcc55a6ff8345e692c0f86e5b48e01b996cadc001622fb5e363b421",
            "stateRoot" : "0xc92ec736b297be3bc471ab8cc7d709ac09626a3e39ed486a984316a27c905886",
            "timestamp" : "0x00",
            "transactionsTrie" : "0x56e81f171bcc55a6ff8345e692c0f86e5b48e01b996cadc001622fb5e363b421",
            "uncleHash" : "0x1dcc4de8dec75d7aab85b567b6ccd41ad312451b948a7413f0a142fd40d49347"
        },
        "pre" : {
            "0x1000000000000000000000000000000000000001" : {
                "balance" : "0x0186a0",
                "code" : "0x600c60015500",
                "nonce" : "0x00",
                "storage" : {
                }
            },
            "0xa94f5374fce5edbc8e2a8697c15331677e6ebf0b" : {
                "balance" : "0x05f5e100",
                "code" : "0x",
                "nonce" : "0x00",
                "storage" : {
                }
            },
            "0xb94f5374fce5edbc8e2a8697c15331677e6ebf0b" : {
                "balance" : "0x00",
                "code" : "0x60006000600060006000731000000000000000000000000000000000000001620927c0f160015500",
                "nonce" : "0x00",
                "storage" : {
                }
            }
        },
        "postState" : {
            "0x1000000000000000000000000000000000000001" : {
                "code" : "0x600c60015500",
                "nonce" : "0x00",
                "balance" : "0x0186a0",
                "storage" : {
                    "0x01" : "0x0c"
                }
            },
            "0x2adc25665018aa1fe0e6bc666dac8fc2697ff9ba" : {
                "code" : "0x",
                "nonce" : "0x00",
                "balance" : "0x1bc16d674ed16b54",
                "storage" : {
                }
            },
            "0xa94f5374fce5edbc8e2a8697c15331677e6ebf0b" : {
                "code" : "0x",
                "nonce" : "0x01",
                "balance" : "0x05ec75ac",
                "storage" : {
                }
            },
            "0xb94f5374fce5edbc8e2a8697c15331677e6ebf0b" : {
                "code" : "0x60006000600060006000731000000000000000000000000000000000000001620927c0f160015500",
                "nonce" : "0x00",
                "balance" : "0x00",
                "storage" : {
                    "0x01" : "0x01"
                }
            }
        },
        "network" : "Istanbul",
        "sealEngine" : "NoProof",
        "lastblockhash" : "0xd0b6c5321e3eaccbeee970c432cd2e64412001457a8a4d1c168fda0facfc55fd",
        "genesisRLP" : "0xf901f8f901f3a00000000000000000000000000000000000000000000000000000000000000000a01dcc4de8dec75d7aab85b567b6ccd41ad312451b948a7413f0a142fd40d49347942adc25665018aa1fe0e6bc666dac8fc2697ff9baa0c92ec736b297be3bc471ab8cc7d709ac09626a3e39ed486a984316a27c905886a056e81f171bcc55a6ff8345e692c0f86e5b48e01b996cadc001622fb5e363b421a056e81f171bcc55a6ff8345e692c0f86e5b48e01b996cadc001622fb5e363b421b9010000000000000000000000000000000000000000000000000000000000000000000000000000000000000000000000000000000000000000000000000000000000000000000000000000000000000000000000000000000000000000000000000000000000000000000000000000000000000000000000000000000000000000000000000000000000000000000000000000000000000000000000000000000000000000000000000000000000000000000000000000000000000000000000000000000000000000000000000000000000000000000000000000000000000000000000000000000000000000000000000000000000000000000000000000000000830200008083989680808000a00000000000000000000000000000000000000000000000000000000000000000880000000000000000c0c0",
        "blocks" : [
            {
                "rlp" : "0xf9025ff901f7a052dfa6a4f6c39f25b650340199eab5d03b71df8f3c7119d6d3a927ab8b494c1ca01dcc4de8dec75d7aab85b567b6ccd41ad312451b948a7413f0a142fd40d49347942adc25665018aa1fe0e6bc666dac8fc2697ff9baa08d85ff8f10db42bf800d59832263a5672d40d2b4fe65c3bcba7f78cf7d751ca0a0a09d9e7f3a2dd295edff6e3b3b18ed222917a5d08fa0860fa3955c708040bcffa0efdc208e6d214f3e9e67147a489286b5c37c945374eab7412d0302ff6f06c3d1b901000000000000000000000000000000000000000000000000000000000000000000000000000000000000000000000000000000000000000000000000000000000000000000000000000000000000000000000000000000000000000000000000000000000000000000000000000000000000000000000000000000000000000000000000000000000000000000000000000000000000000000000000000000000000000000000000000000000000000000000000000000000000000000000000000000000000000000000000000000000000000000000000000000000000000000000000000000000000000000000000000000000000000000000000000000000083020000018398968082f1228203e800a00000000000000000000000000000000000000000000000000000000000000000880000000000000000f862f860800a830186a094b94f5374fce5edbc8e2a8697c15331677e6ebf0b80801ca013e72da04d3a74fdc16979fdea1a319c45fcdcb22aed63dc8f7fc1851dde3640a05bc995d025196b6ef2ffc6777e831d18a86226f8759c5adb8dda36e4cc19d238c0",
                "blockHeader" : {
                    "bloom" : "0x00000000000000000000000000000000000000000000000000000000000000000000000000000000000000000000000000000000000000000000000000000000000000000000000000000000000000000000000000000000000000000000000000000000000000000000000000000000000000000000000000000000000000000000000000000000000000000000000000000000000000000000000000000000000000000000000000000000000000000000000000000000000000000000000000000000000000000000000000000000000000000000000000000000000000000000000000000000000000000000000000000000000000000000000000000000",
                    "coinbase" : "0x2adc25665018aa1fe0e6bc666dac8fc2697ff9ba",
                    "difficulty" : "0x020000",
                    "extraData" : "0x00",
                    "gasLimit" : "0x989680",
                    "gasUsed" : "0xf122",
                    "hash" : "0xd0b6c5321e3eaccbeee970c432cd2e64412001457a8a4d1c168fda0facfc55fd",
                    "mixHash" : "0x0000000000000000000000000000000000000000000000000000000000000000",
                    "nonce" : "0x0000000000000000",
                    "number" : "0x01",
                    "parentHash" : "0x52dfa6a4f6c39f25b650340199eab5d03b71df8f3c7119d6d3a927ab8b494c1c",
                    "receiptTrie" : "0xefdc208e6d214f3e9e67147a489286b5c37c945374eab7412d0302ff6f06c3d1",
                    "stateRoot" : "0x8d85ff8f10db42bf800d59832263a5672d40d2b4fe65c3bcba7f78cf7d751ca0",
                    "timestamp" : "0x03e8",
                    "transactionsTrie" : "0xa09d9e7f3a2dd295edff6e3b3b18ed222917a5d08fa0860fa3955c708040bcff",
                    "uncleHash" : "0x1dcc4de8dec75d7aab85b567b6ccd41ad312451b948a7413f0a142fd40d49347"
                },
                "transactions" : [
                    {
                        "data" : "0x",
                        "gasLimit" : "0x0186a0",
                        "gasPrice" : "0x0a",
                        "nonce" : "0x00",
                        "to" : "0xb94f5374fce5edbc8e2a8697c15331677e6ebf0b",
                        "value" : "0x00",
                        "v" : "0x1c",
                        "r" : "0x13e72da04d3a74fdc16979fdea1a319c45fcdcb22aed63dc8f7fc1851dde3640",
                        "s" : "0x5bc995d025196b6ef2ffc6777e831d18a86226f8759c5adb8dda36e4cc19d238"
                    }
                ],
                "uncleHeaders" : [
                ]
            }
        ]
    },
    "ExecuteCallThatAskForeGasThenTrabsactionHas_d0g0v0_London" : {
        "_info" : {
            "comment" : "",
            "filling-rpc-server" : "evm version 1.10.4-unstable-966ee3ae-20210528",
            "filling-tool-version" : "retesteth-0.1.1-eip1559+commit.658fc3a8.Linux.g++",
            "lllcversion" : "Version: 0.5.14-develop.2021.5.18+commit.14c9d5de.mod.Linux.g++",
            "source" : "src/GeneralStateTestsFiller/stEIP150Specific/ExecuteCallThatAskForeGasThenTrabsactionHasFiller.json",
            "sourceHash" : "9547da03db7abe679ccb3a6ed463753c6685026ca393cada4cbf7fbe37003959"
        },
        "genesisBlockHeader" : {
            "bloom" : "0x00000000000000000000000000000000000000000000000000000000000000000000000000000000000000000000000000000000000000000000000000000000000000000000000000000000000000000000000000000000000000000000000000000000000000000000000000000000000000000000000000000000000000000000000000000000000000000000000000000000000000000000000000000000000000000000000000000000000000000000000000000000000000000000000000000000000000000000000000000000000000000000000000000000000000000000000000000000000000000000000000000000000000000000000000000000",
            "coinbase" : "0x2adc25665018aa1fe0e6bc666dac8fc2697ff9ba",
            "difficulty" : "0x020000",
            "extraData" : "0x00",
            "gasLimit" : "0x989680",
            "gasUsed" : "0x00",
            "hash" : "0xe1ced4465a340796981dc7255655e577877183c284d9d99b048f861283fdc002",
            "mixHash" : "0x0000000000000000000000000000000000000000000000000000000000000000",
            "nonce" : "0x0000000000000000",
            "number" : "0x00",
            "parentHash" : "0x0000000000000000000000000000000000000000000000000000000000000000",
            "receiptTrie" : "0x56e81f171bcc55a6ff8345e692c0f86e5b48e01b996cadc001622fb5e363b421",
            "stateRoot" : "0xc92ec736b297be3bc471ab8cc7d709ac09626a3e39ed486a984316a27c905886",
            "timestamp" : "0x00",
            "transactionsTrie" : "0x56e81f171bcc55a6ff8345e692c0f86e5b48e01b996cadc001622fb5e363b421",
            "uncleHash" : "0x1dcc4de8dec75d7aab85b567b6ccd41ad312451b948a7413f0a142fd40d49347",
            "baseFee" : "0x0b"
        },
        "pre" : {
            "0x1000000000000000000000000000000000000001" : {
                "balance" : "0x0186a0",
                "code" : "0x600c60015500",
                "nonce" : "0x00",
                "storage" : {
                }
            },
            "0xa94f5374fce5edbc8e2a8697c15331677e6ebf0b" : {
                "balance" : "0x05f5e100",
                "code" : "0x",
                "nonce" : "0x00",
                "storage" : {
                }
            },
            "0xb94f5374fce5edbc8e2a8697c15331677e6ebf0b" : {
                "balance" : "0x00",
                "code" : "0x60006000600060006000731000000000000000000000000000000000000001620927c0f160015500",
                "nonce" : "0x00",
                "storage" : {
                }
            }
        },
        "postState" : {
            "0x1000000000000000000000000000000000000001" : {
                "code" : "0x600c60015500",
                "nonce" : "0x00",
                "balance" : "0x0186a0",
                "storage" : {
                    "0x01" : "0x0c"
                }
            },
            "0x2adc25665018aa1fe0e6bc666dac8fc2697ff9ba" : {
                "code" : "0x",
                "nonce" : "0x00",
                "balance" : "0x1bc16d674ec80000",
                "storage" : {
                }
            },
            "0xa94f5374fce5edbc8e2a8697c15331677e6ebf0b" : {
                "code" : "0x",
                "nonce" : "0x01",
                "balance" : "0x05eb8764",
                "storage" : {
                }
            },
            "0xb94f5374fce5edbc8e2a8697c15331677e6ebf0b" : {
                "code" : "0x60006000600060006000731000000000000000000000000000000000000001620927c0f160015500",
                "nonce" : "0x00",
                "balance" : "0x00",
                "storage" : {
                    "0x01" : "0x01"
                }
            }
        },
        "network" : "London",
        "sealEngine" : "NoProof",
        "lastblockhash" : "0x4398b2222b875eb9759ed696acf3f128843e7503395d5a819a605a5e91b02f7a",
        "genesisRLP" : "0xf901f9f901f4a00000000000000000000000000000000000000000000000000000000000000000a01dcc4de8dec75d7aab85b567b6ccd41ad312451b948a7413f0a142fd40d49347942adc25665018aa1fe0e6bc666dac8fc2697ff9baa0c92ec736b297be3bc471ab8cc7d709ac09626a3e39ed486a984316a27c905886a056e81f171bcc55a6ff8345e692c0f86e5b48e01b996cadc001622fb5e363b421a056e81f171bcc55a6ff8345e692c0f86e5b48e01b996cadc001622fb5e363b421b9010000000000000000000000000000000000000000000000000000000000000000000000000000000000000000000000000000000000000000000000000000000000000000000000000000000000000000000000000000000000000000000000000000000000000000000000000000000000000000000000000000000000000000000000000000000000000000000000000000000000000000000000000000000000000000000000000000000000000000000000000000000000000000000000000000000000000000000000000000000000000000000000000000000000000000000000000000000000000000000000000000000000000000000000000000000000830200008083989680808000a000000000000000000000000000000000000000000000000000000000000000008800000000000000000bc0c0",
        "blocks" : [
            {
                "rlp" : "0xf90261f901f9a0e1ced4465a340796981dc7255655e577877183c284d9d99b048f861283fdc002a01dcc4de8dec75d7aab85b567b6ccd41ad312451b948a7413f0a142fd40d49347942adc25665018aa1fe0e6bc666dac8fc2697ff9baa0bdd293c0c9337045accb70fee889525f33d90decbb4f33078a0e8928db6406b2a0a09d9e7f3a2dd295edff6e3b3b18ed222917a5d08fa0860fa3955c708040bcffa015dd49ba9e04929c8de71a8987839d7b32190df3b4fb26927e4b8621e40fc9e7b9010000000000000000000000000000000000000000000000000000000000000000000000000000000000000000000000000000000000000000000000000000000000000000000000000000000000000000000000000000000000000000000000000000000000000000000000000000000000000000000000000000000000000000000000000000000000000000000000000000000000000000000000000000000000000000000000000000000000000000000000000000000000000000000000000000000000000000000000000000000000000000000000000000000000000000000000000000000000000000000000000000000000000000000000000000000000830200000183989680830108f68203e800a000000000000000000000000000000000000000000000000000000000000000008800000000000000000af862f860800a830186a094b94f5374fce5edbc8e2a8697c15331677e6ebf0b80801ca013e72da04d3a74fdc16979fdea1a319c45fcdcb22aed63dc8f7fc1851dde3640a05bc995d025196b6ef2ffc6777e831d18a86226f8759c5adb8dda36e4cc19d238c0",
                "blockHeader" : {
                    "bloom" : "0x00000000000000000000000000000000000000000000000000000000000000000000000000000000000000000000000000000000000000000000000000000000000000000000000000000000000000000000000000000000000000000000000000000000000000000000000000000000000000000000000000000000000000000000000000000000000000000000000000000000000000000000000000000000000000000000000000000000000000000000000000000000000000000000000000000000000000000000000000000000000000000000000000000000000000000000000000000000000000000000000000000000000000000000000000000000",
                    "coinbase" : "0x2adc25665018aa1fe0e6bc666dac8fc2697ff9ba",
                    "difficulty" : "0x020000",
                    "extraData" : "0x00",
                    "gasLimit" : "0x989680",
                    "gasUsed" : "0x0108f6",
                    "hash" : "0x4398b2222b875eb9759ed696acf3f128843e7503395d5a819a605a5e91b02f7a",
                    "mixHash" : "0x0000000000000000000000000000000000000000000000000000000000000000",
                    "nonce" : "0x0000000000000000",
                    "number" : "0x01",
                    "parentHash" : "0xe1ced4465a340796981dc7255655e577877183c284d9d99b048f861283fdc002",
                    "receiptTrie" : "0x15dd49ba9e04929c8de71a8987839d7b32190df3b4fb26927e4b8621e40fc9e7",
                    "stateRoot" : "0xbdd293c0c9337045accb70fee889525f33d90decbb4f33078a0e8928db6406b2",
                    "timestamp" : "0x03e8",
                    "transactionsTrie" : "0xa09d9e7f3a2dd295edff6e3b3b18ed222917a5d08fa0860fa3955c708040bcff",
                    "uncleHash" : "0x1dcc4de8dec75d7aab85b567b6ccd41ad312451b948a7413f0a142fd40d49347",
                    "baseFee" : "0x0a"
                },
                "transactions" : [
                    {
                        "data" : "0x",
                        "gasLimit" : "0x0186a0",
                        "gasPrice" : "0x0a",
                        "nonce" : "0x00",
                        "to" : "0xb94f5374fce5edbc8e2a8697c15331677e6ebf0b",
                        "value" : "0x00",
                        "v" : "0x1c",
                        "r" : "0x13e72da04d3a74fdc16979fdea1a319c45fcdcb22aed63dc8f7fc1851dde3640",
                        "s" : "0x5bc995d025196b6ef2ffc6777e831d18a86226f8759c5adb8dda36e4cc19d238"
                    }
                ],
                "uncleHeaders" : [
                ]
            }
        ]
    }
}