{
    "CreateOOGafterInitCodeReturndata" : {
        "_info" : {
            "comment" : "Call RETURNDATASIZE and RETURNDATACOPY after CREATE deploy a contract",
            "filling-rpc-server" : "evm version 1.10.4-unstable-966ee3ae-20210528",
            "filling-tool-version" : "retesteth-0.1.1-eip1559+commit.658fc3a8.Linux.g++",
            "lllcversion" : "Version: 0.5.14-develop.2021.5.18+commit.14c9d5de.mod.Linux.g++",
            "source" : "src/GeneralStateTestsFiller/stCreateTest/CreateOOGafterInitCodeReturndataFiller.json",
            "sourceHash" : "0be45cf043dabed0d5675323a2f7cd9794b4a418d5ca699dd8f02a3392f9d417"
        },
        "env" : {
            "currentCoinbase" : "0x2adc25665018aa1fe0e6bc666dac8fc2697ff9ba",
            "currentDifficulty" : "0x020000",
            "currentNumber" : "0x01",
            "currentTimestamp" : "0x03e8",
            "previousHash" : "0x5e20a0453cecd065ea59c37ac63e079ee08998b6045136a8ce6635c7912ec0b6",
            "currentGasLimit" : "0x989680"
        },
        "post" : {
            "Berlin" : [
                {
                    "indexes" : {
                        "data" : 0,
                        "gas" : 0,
                        "value" : 0
                    },
                    "hash" : "0x02ad49ef190c5d47efa41c68072ecae3b6364e0f0f49838a80fb0b2280287eca",
                    "txbytes" : "0xf85f800a82d2f094b94f5374fce5edbc8e2a8697c15331677e6ebf0b80801ca04110d91c8d222752e43bb98f811ccf151dfd7ef10cf8dd5888369fece4112983a00752c4ac643358117ead0ac6abdeed2c936ebe3d64524ab6dc41e19aba7e2d21",
                    "logs" : "0x1dcc4de8dec75d7aab85b567b6ccd41ad312451b948a7413f0a142fd40d49347"
                },
                {
                    "indexes" : {
                        "data" : 0,
                        "gas" : 1,
                        "value" : 0
                    },
                    "hash" : "0x6404bad6bbee9cbc2311ebac5853e9a16e5ebf62e85b308425aeccc800ac895b",
                    "txbytes" : "0xf860800a8301731894b94f5374fce5edbc8e2a8697c15331677e6ebf0b80801ca0378412b32fcd3ef4b3bd343dcd3e8c9f9538abc129f1b90803372440bbbb6057a06186c4dd19e0b3969dd87dddc244e87a27621cafcfeb2ca66c73dd64e3264aa6",
                    "logs" : "0x1dcc4de8dec75d7aab85b567b6ccd41ad312451b948a7413f0a142fd40d49347"
                }
            ],
            "Istanbul" : [
                {
                    "indexes" : {
                        "data" : 0,
                        "gas" : 0,
                        "value" : 0
                    },
                    "hash" : "0x02ad49ef190c5d47efa41c68072ecae3b6364e0f0f49838a80fb0b2280287eca",
                    "txbytes" : "0xf85f800a82d2f094b94f5374fce5edbc8e2a8697c15331677e6ebf0b80801ca04110d91c8d222752e43bb98f811ccf151dfd7ef10cf8dd5888369fece4112983a00752c4ac643358117ead0ac6abdeed2c936ebe3d64524ab6dc41e19aba7e2d21",
                    "logs" : "0x1dcc4de8dec75d7aab85b567b6ccd41ad312451b948a7413f0a142fd40d49347"
                },
                {
                    "indexes" : {
                        "data" : 0,
                        "gas" : 1,
                        "value" : 0
                    },
                    "hash" : "0x6404bad6bbee9cbc2311ebac5853e9a16e5ebf62e85b308425aeccc800ac895b",
                    "txbytes" : "0xf860800a8301731894b94f5374fce5edbc8e2a8697c15331677e6ebf0b80801ca0378412b32fcd3ef4b3bd343dcd3e8c9f9538abc129f1b90803372440bbbb6057a06186c4dd19e0b3969dd87dddc244e87a27621cafcfeb2ca66c73dd64e3264aa6",
                    "logs" : "0x1dcc4de8dec75d7aab85b567b6ccd41ad312451b948a7413f0a142fd40d49347"
                }
            ],
            "London" : [
                {
                    "indexes" : {
                        "data" : 0,
                        "gas" : 0,
                        "value" : 0
                    },
                    "hash" : "0x4d54e483c1e71bb5401928db4d463a162c0c6cde776db80b2365b1b1d4b702db",
                    "txbytes" : "0xf85f800a82d2f094b94f5374fce5edbc8e2a8697c15331677e6ebf0b80801ca04110d91c8d222752e43bb98f811ccf151dfd7ef10cf8dd5888369fece4112983a00752c4ac643358117ead0ac6abdeed2c936ebe3d64524ab6dc41e19aba7e2d21",
                    "logs" : "0x1dcc4de8dec75d7aab85b567b6ccd41ad312451b948a7413f0a142fd40d49347"
                },
                {
                    "indexes" : {
                        "data" : 0,
                        "gas" : 1,
                        "value" : 0
                    },
                    "hash" : "0xd7a3ea87f623e15c44f028faf30e9aea32253bfc574b72fc1b54715c713ec02e",
                    "txbytes" : "0xf860800a8301731894b94f5374fce5edbc8e2a8697c15331677e6ebf0b80801ca0378412b32fcd3ef4b3bd343dcd3e8c9f9538abc129f1b90803372440bbbb6057a06186c4dd19e0b3969dd87dddc244e87a27621cafcfeb2ca66c73dd64e3264aa6",
                    "logs" : "0x1dcc4de8dec75d7aab85b567b6ccd41ad312451b948a7413f0a142fd40d49347"
                }
            ]
        },
        "pre" : {
            "0xa94f5374fce5edbc8e2a8697c15331677e6ebf0b" : {
                "balance" : "0xe8d4a51000",
                "code" : "0x",
                "nonce" : "0x00",
                "storage" : {
                }
            },
            "0xb94f5374fce5edbc8e2a8697c15331677e6ebf0b" : {
                "balance" : "0x00",
                "code" : "0x6d6460016001556000526005601bf3600052600e60126000f0503d6001556020600060003e60005160025500",
                "nonce" : "0x00",
                "storage" : {
                }
            }
        },
        "transaction" : {
            "data" : [
                "0x"
            ],
            "gasPrice" : "0x0a",
            "gasLimit" : [
                "0xd2f0",
                "0x017318"
            ],
            "nonce" : "0x00",
            "secretKey" : "0x45a915e4d060149eb4365960e6a7a45f334393093061116b197e3240065ff2d8",
            "to" : "0xb94f5374fce5edbc8e2a8697c15331677e6ebf0b",
            "value" : [
                "0x00"
            ]
        }
    }
}