{
    "static_CallGoesOOGOnSecondLevel2" : {
        "_info" : {
            "comment" : "",
            "filling-rpc-server" : "evm version 1.10.4-unstable-966ee3ae-20210528",
            "filling-tool-version" : "retesteth-0.1.1-eip1559+commit.658fc3a8.Linux.g++",
            "lllcversion" : "Version: 0.5.14-develop.2021.5.18+commit.14c9d5de.mod.Linux.g++",
            "source" : "src/GeneralStateTestsFiller/stStaticCall/static_CallGoesOOGOnSecondLevel2Filler.json",
            "sourceHash" : "fbbef5d212e4a4ff5accc845976bf9c7d2981ab5a3c4a915562a716b1853dc99"
        },
        "env" : {
            "currentCoinbase" : "0x2adc25665018aa1fe0e6bc666dac8fc2697ff9ba",
            "currentDifficulty" : "0x020000",
            "currentNumber" : "0x01",
            "currentTimestamp" : "0x03e8",
            "previousHash" : "0x5e20a0453cecd065ea59c37ac63e079ee08998b6045136a8ce6635c7912ec0b6",
            "currentGasLimit" : "0x989680"
        },
        "post" : {
            "Berlin" : [
                {
                    "indexes" : {
                        "data" : 0,
                        "gas" : 0,
                        "value" : 0
                    },
                    "hash" : "0x5f5a88b2ce4144d5a936dd537138c89745f85bac1eaa6f4107cc6dba6c758928",
                    "txbytes" : "0xf880800a8302710094b94f5374fce5edbc8e2a8697c15331677e6ebf0b80a000000000000000000000000010000000000000000000000000000000000001141ba09e0ccc5168e8ba993637a51d58ec6c9113354ced34db875ed9c41a9ae9cc0620a0446a35e42730e3d8bc2c4ef8a032de07e852decce8d6f6733b1da65c5c508737",
                    "logs" : "0x1dcc4de8dec75d7aab85b567b6ccd41ad312451b948a7413f0a142fd40d49347"
                },
                {
                    "indexes" : {
                        "data" : 1,
                        "gas" : 0,
                        "value" : 0
                    },
                    "hash" : "0x5f5a88b2ce4144d5a936dd537138c89745f85bac1eaa6f4107cc6dba6c758928",
                    "txbytes" : "0xf880800a8302710094b94f5374fce5edbc8e2a8697c15331677e6ebf0b80a000000000000000000000000020000000000000000000000000000000000001141ba0981b2dea86a50c1832975b9bde9c2089568db844dba31c9e7a8dd236bbc20a84a0725ae70fff697a216e580ac032e8381167c1df3fb98fe683461c9d58b3a9d097",
                    "logs" : "0x1dcc4de8dec75d7aab85b567b6ccd41ad312451b948a7413f0a142fd40d49347"
                }
            ],
            "Istanbul" : [
                {
                    "indexes" : {
                        "data" : 0,
                        "gas" : 0,
                        "value" : 0
                    },
                    "hash" : "0x5f5a88b2ce4144d5a936dd537138c89745f85bac1eaa6f4107cc6dba6c758928",
                    "txbytes" : "0xf880800a8302710094b94f5374fce5edbc8e2a8697c15331677e6ebf0b80a000000000000000000000000010000000000000000000000000000000000001141ba09e0ccc5168e8ba993637a51d58ec6c9113354ced34db875ed9c41a9ae9cc0620a0446a35e42730e3d8bc2c4ef8a032de07e852decce8d6f6733b1da65c5c508737",
                    "logs" : "0x1dcc4de8dec75d7aab85b567b6ccd41ad312451b948a7413f0a142fd40d49347"
                },
                {
                    "indexes" : {
                        "data" : 1,
                        "gas" : 0,
                        "value" : 0
                    },
                    "hash" : "0x5f5a88b2ce4144d5a936dd537138c89745f85bac1eaa6f4107cc6dba6c758928",
                    "txbytes" : "0xf880800a8302710094b94f5374fce5edbc8e2a8697c15331677e6ebf0b80a000000000000000000000000020000000000000000000000000000000000001141ba0981b2dea86a50c1832975b9bde9c2089568db844dba31c9e7a8dd236bbc20a84a0725ae70fff697a216e580ac032e8381167c1df3fb98fe683461c9d58b3a9d097",
                    "logs" : "0x1dcc4de8dec75d7aab85b567b6ccd41ad312451b948a7413f0a142fd40d49347"
                }
            ],
            "London" : [
                {
                    "indexes" : {
                        "data" : 0,
                        "gas" : 0,
                        "value" : 0
                    },
                    "hash" : "0x1d793ef2f998ef5e0814a27d808c07a4162ac59d0b4012748237229753bf894c",
                    "txbytes" : "0xf880800a8302710094b94f5374fce5edbc8e2a8697c15331677e6ebf0b80a000000000000000000000000010000000000000000000000000000000000001141ba09e0ccc5168e8ba993637a51d58ec6c9113354ced34db875ed9c41a9ae9cc0620a0446a35e42730e3d8bc2c4ef8a032de07e852decce8d6f6733b1da65c5c508737",
                    "logs" : "0x1dcc4de8dec75d7aab85b567b6ccd41ad312451b948a7413f0a142fd40d49347"
                },
                {
                    "indexes" : {
                        "data" : 1,
                        "gas" : 0,
                        "value" : 0
                    },
                    "hash" : "0x1d793ef2f998ef5e0814a27d808c07a4162ac59d0b4012748237229753bf894c",
                    "txbytes" : "0xf880800a8302710094b94f5374fce5edbc8e2a8697c15331677e6ebf0b80a000000000000000000000000020000000000000000000000000000000000001141ba0981b2dea86a50c1832975b9bde9c2089568db844dba31c9e7a8dd236bbc20a84a0725ae70fff697a216e580ac032e8381167c1df3fb98fe683461c9d58b3a9d097",
                    "logs" : "0x1dcc4de8dec75d7aab85b567b6ccd41ad312451b948a7413f0a142fd40d49347"
                }
            ]
        },
        "pre" : {
            "0x1000000000000000000000000000000000000113" : {
                "balance" : "0x00",
                "code" : "0x5a6008526000600060006000600035620927c0fa60095200",
                "nonce" : "0x00",
                "storage" : {
                }
            },
            "0x1000000000000000000000000000000000000114" : {
                "balance" : "0x00",
                "code" : "0x600160015500",
                "nonce" : "0x00",
                "storage" : {
                }
            },
            "0x2000000000000000000000000000000000000114" : {
                "balance" : "0x00",
                "code" : "0x5b61c3506080511015601c5760013b506001608051016080526000565b00",
                "nonce" : "0x00",
                "storage" : {
                }
            },
            "0xa94f5374fce5edbc8e2a8697c15331677e6ebf0b" : {
                "balance" : "0xe8d4a51000",
                "code" : "0x",
                "nonce" : "0x00",
                "storage" : {
                }
            },
            "0xb94f5374fce5edbc8e2a8697c15331677e6ebf0b" : {
                "balance" : "0x00",
                "code" : "0x6000356000526000600060206000731000000000000000000000000000000000000113620927c0fa600055600160015500",
                "nonce" : "0x00",
                "storage" : {
                }
            }
        },
        "transaction" : {
            "data" : [
                "0x0000000000000000000000001000000000000000000000000000000000000114",
                "0x0000000000000000000000002000000000000000000000000000000000000114"
            ],
            "gasPrice" : "0x0a",
            "gasLimit" : [
                "0x027100"
            ],
            "nonce" : "0x00",
            "secretKey" : "0x45a915e4d060149eb4365960e6a7a45f334393093061116b197e3240065ff2d8",
            "to" : "0xb94f5374fce5edbc8e2a8697c15331677e6ebf0b",
            "value" : [
                "0x00"
            ]
        }
    }
}