{
    "static_CallRecursiveBomb2" : {
        "_info" : {
            "comment" : "",
            "filling-rpc-server" : "evm version 1.10.4-unstable-966ee3ae-20210528",
            "filling-tool-version" : "retesteth-0.1.1-eip1559+commit.658fc3a8.Linux.g++",
            "lllcversion" : "Version: 0.5.14-develop.2021.5.18+commit.14c9d5de.mod.Linux.g++",
            "source" : "src/GeneralStateTestsFiller/stStaticCall/static_CallRecursiveBomb2Filler.json",
            "sourceHash" : "2520665bc463e7f1176c35d628a6e22dc3b324586b0584438738ddbbf99f5fc0"
        },
        "env" : {
            "currentCoinbase" : "0x2adc25665018aa1fe0e6bc666dac8fc2697ff9ba",
            "currentDifficulty" : "0x020000",
            "currentNumber" : "0x01",
            "currentTimestamp" : "0x03e8",
            "previousHash" : "0x5e20a0453cecd065ea59c37ac63e079ee08998b6045136a8ce6635c7912ec0b6",
            "currentGasLimit" : "0x05f5e100"
        },
        "post" : {
            "Berlin" : [
                {
                    "indexes" : {
                        "data" : 0,
                        "gas" : 0,
                        "value" : 0
                    },
                    "hash" : "0x7b6c76d8ef7270ba28f65a0215d8a0aed5d9e5f2b6217806dcb430b3ca9ea3f6",
                    "txbytes" : "0xf864800a84013aab1394195e7baea6a6c7c4c2dfeb977efac326af552d87830186a0801ca0141f0a6761925248564c7b093aefbf28badbc43c9e222949785ccc48c4a78bb0a03e05dfe4a8166a1eb658e8f98c326b8c5ce796e3e23561c180e0b276c6384c28",
                    "logs" : "0x1dcc4de8dec75d7aab85b567b6ccd41ad312451b948a7413f0a142fd40d49347"
                }
            ],
            "Istanbul" : [
                {
                    "indexes" : {
                        "data" : 0,
                        "gas" : 0,
                        "value" : 0
                    },
                    "hash" : "0x50e612f78765626b447e79200ba1e8a6dfcacc63b2efb58373961d970472a89e",
                    "txbytes" : "0xf864800a84013aab1394195e7baea6a6c7c4c2dfeb977efac326af552d87830186a0801ca0141f0a6761925248564c7b093aefbf28badbc43c9e222949785ccc48c4a78bb0a03e05dfe4a8166a1eb658e8f98c326b8c5ce796e3e23561c180e0b276c6384c28",
                    "logs" : "0x1dcc4de8dec75d7aab85b567b6ccd41ad312451b948a7413f0a142fd40d49347"
                }
            ],
            "London" : [
                {
                    "indexes" : {
                        "data" : 0,
                        "gas" : 0,
                        "value" : 0
                    },
                    "hash" : "0x6afd12bde954fab2763b0d34a7527fb486b53f418369f0c5369faecc9525eb9d",
                    "txbytes" : "0xf864800a84013aab1394195e7baea6a6c7c4c2dfeb977efac326af552d87830186a0801ca0141f0a6761925248564c7b093aefbf28badbc43c9e222949785ccc48c4a78bb0a03e05dfe4a8166a1eb658e8f98c326b8c5ce796e3e23561c180e0b276c6384c28",
                    "logs" : "0x1dcc4de8dec75d7aab85b567b6ccd41ad312451b948a7413f0a142fd40d49347"
                }
            ]
        },
        "pre" : {
            "0x095e7baea6a6c7c4c2dfeb977efac326af552d87" : {
                "balance" : "0x01312d00",
                "code" : "0x600160005101600052600060006000600030613a985a03fa00",
                "nonce" : "0x00",
                "storage" : {
                }
            },
            "0x195e7baea6a6c7c4c2dfeb977efac326af552d87" : {
                "balance" : "0x01312d00",
                "code" : "0x6000600060006000600073095e7baea6a6c7c4c2dfeb977efac326af552d875af2600055600160015500",
                "nonce" : "0x00",
                "storage" : {
                }
            },
            "0xa94f5374fce5edbc8e2a8697c15331677e6ebf0b" : {
                "balance" : "0x0de0b6b3a7640000",
                "code" : "0x",
                "nonce" : "0x00",
                "storage" : {
                }
            }
        },
        "transaction" : {
            "data" : [
                "0x"
            ],
            "gasPrice" : "0x0a",
            "gasLimit" : [
                "0x013aab13"
            ],
            "nonce" : "0x00",
            "secretKey" : "0x45a915e4d060149eb4365960e6a7a45f334393093061116b197e3240065ff2d8",
            "to" : "0x195e7baea6a6c7c4c2dfeb977efac326af552d87",
            "value" : [
                "0x0186a0"
            ]
        }
    }
}