{
    "static_callcodecallcallcode_101_OOGMAfter_3" : {
        "_info" : {
            "comment" : "",
            "filling-rpc-server" : "evm version 1.10.4-unstable-966ee3ae-20210528",
            "filling-tool-version" : "retesteth-0.1.1-eip1559+commit.658fc3a8.Linux.g++",
            "lllcversion" : "Version: 0.5.14-develop.2021.5.18+commit.14c9d5de.mod.Linux.g++",
            "source" : "src/GeneralStateTestsFiller/stStaticCall/static_callcodecallcallcode_101_OOGMAfter_3Filler.json",
            "sourceHash" : "18887d7578535133fcaa7f5d1fb24d5431c55adce35907d2e20973d740324859"
        },
        "env" : {
            "currentCoinbase" : "0x2adc25665018aa1fe0e6bc666dac8fc2697ff9ba",
            "currentDifficulty" : "0x020000",
            "currentNumber" : "0x01",
            "currentTimestamp" : "0x03e8",
            "previousHash" : "0x5e20a0453cecd065ea59c37ac63e079ee08998b6045136a8ce6635c7912ec0b6",
            "currentGasLimit" : "0x989680"
        },
        "post" : {
            "Berlin" : [
                {
                    "indexes" : {
                        "data" : 0,
                        "gas" : 0,
                        "value" : 0
                    },
                    "hash" : "0x542fefa7ef55855356a06dea4aef53294093e06292140436fd76de11c6f0dc7d",
                    "txbytes" : "0xf880800a83029fe094a00000000000000000000000000000000000000080a000000000000000000000000010000000000000000000000000000000000000001ca04298ce19bbf9492fc8105c4c93971712a55a433fd4d2dc08c3e671a6c964ff8ea002eec48779609b6a1cb54d79138468c82d2ea571785f0bf7b0481862ccdd8137",
                    "logs" : "0x1dcc4de8dec75d7aab85b567b6ccd41ad312451b948a7413f0a142fd40d49347"
                },
                {
                    "indexes" : {
                        "data" : 1,
                        "gas" : 0,
                        "value" : 0
                    },
                    "hash" : "0xd7f86fcf1425650cdd8072d8f3dfe88ae8f390225712c3b22b1eba09a60c552a",
                    "txbytes" : "0xf880800a83029fe094a00000000000000000000000000000000000000080a000000000000000000000000020000000000000000000000000000000000000001ba06ed9176ea26f3b6369874884ee20c71b75263ca0201d8d4718ccbe0587a47938a05dcdf0f74f9d42c868ef4a3a0d5c358886b6ae3535e92398c460f61c6e48548a",
                    "logs" : "0x1dcc4de8dec75d7aab85b567b6ccd41ad312451b948a7413f0a142fd40d49347"
                }
            ],
            "Istanbul" : [
                {
                    "indexes" : {
                        "data" : 0,
                        "gas" : 0,
                        "value" : 0
                    },
                    "hash" : "0x34799d8ca2905d4e1f2f5edb88e3239e5d5d68921b9f4c4867b2dc6f04cf08e9",
                    "txbytes" : "0xf880800a83029fe094a00000000000000000000000000000000000000080a000000000000000000000000010000000000000000000000000000000000000001ca04298ce19bbf9492fc8105c4c93971712a55a433fd4d2dc08c3e671a6c964ff8ea002eec48779609b6a1cb54d79138468c82d2ea571785f0bf7b0481862ccdd8137",
                    "logs" : "0x1dcc4de8dec75d7aab85b567b6ccd41ad312451b948a7413f0a142fd40d49347"
                },
                {
                    "indexes" : {
                        "data" : 1,
                        "gas" : 0,
                        "value" : 0
                    },
                    "hash" : "0x3056848fe595a438edd69eae513a9e44044a37dbc6c7b5406acdb56078ddcd06",
                    "txbytes" : "0xf880800a83029fe094a00000000000000000000000000000000000000080a000000000000000000000000020000000000000000000000000000000000000001ba06ed9176ea26f3b6369874884ee20c71b75263ca0201d8d4718ccbe0587a47938a05dcdf0f74f9d42c868ef4a3a0d5c358886b6ae3535e92398c460f61c6e48548a",
                    "logs" : "0x1dcc4de8dec75d7aab85b567b6ccd41ad312451b948a7413f0a142fd40d49347"
                }
            ],
            "London" : [
                {
                    "indexes" : {
                        "data" : 0,
                        "gas" : 0,
                        "value" : 0
                    },
                    "hash" : "0x67f65a07993dad1e7c79fa153c5ed5d635aa498ff0eba094703719d28f6a4131",
                    "txbytes" : "0xf880800a83029fe094a00000000000000000000000000000000000000080a000000000000000000000000010000000000000000000000000000000000000001ca04298ce19bbf9492fc8105c4c93971712a55a433fd4d2dc08c3e671a6c964ff8ea002eec48779609b6a1cb54d79138468c82d2ea571785f0bf7b0481862ccdd8137",
                    "logs" : "0x1dcc4de8dec75d7aab85b567b6ccd41ad312451b948a7413f0a142fd40d49347"
                },
                {
                    "indexes" : {
                        "data" : 1,
                        "gas" : 0,
                        "value" : 0
                    },
                    "hash" : "0x148f01be6cec9d449e2ad5a97a5e812ed5dc801aedbe42bb054986e5d1b3ebec",
                    "txbytes" : "0xf880800a83029fe094a00000000000000000000000000000000000000080a000000000000000000000000020000000000000000000000000000000000000001ba06ed9176ea26f3b6369874884ee20c71b75263ca0201d8d4718ccbe0587a47938a05dcdf0f74f9d42c868ef4a3a0d5c358886b6ae3535e92398c460f61c6e48548a",
                    "logs" : "0x1dcc4de8dec75d7aab85b567b6ccd41ad312451b948a7413f0a142fd40d49347"
                }
            ]
        },
        "pre" : {
            "0x1000000000000000000000000000000000000000" : {
                "balance" : "0x0de0b6b3a7640000",
                "code" : "0x604060006040600073100000000000000000000000000000000000000161eaf6f46000555a60015500",
                "nonce" : "0x00",
                "storage" : {
                }
            },
            "0x1000000000000000000000000000000000000001" : {
                "balance" : "0x00",
                "code" : "0x6040600060406000731000000000000000000000000000000000000002619c90fa505b61c3506080511015603e5760013b506001608051016080526022565b00",
                "nonce" : "0x00",
                "storage" : {
                }
            },
            "0x1000000000000000000000000000000000000002" : {
                "balance" : "0x00",
                "code" : "0x6040600060406000731000000000000000000000000000000000000003614e34f450600160035200",
                "nonce" : "0x00",
                "storage" : {
                }
            },
            "0x1000000000000000000000000000000000000003" : {
                "balance" : "0x00",
                "code" : "0x600160035200",
                "nonce" : "0x00",
                "storage" : {
                }
            },
            "0x2000000000000000000000000000000000000000" : {
                "balance" : "0x0de0b6b3a7640000",
                "code" : "0x604060006040600073200000000000000000000000000000000000000161eaf6f4600055600160015500",
                "nonce" : "0x00",
                "storage" : {
                }
            },
            "0x2000000000000000000000000000000000000001" : {
                "balance" : "0x00",
                "code" : "0x6040600060406000732000000000000000000000000000000000000002619c90fa00",
                "nonce" : "0x00",
                "storage" : {
                }
            },
            "0x2000000000000000000000000000000000000002" : {
                "balance" : "0x00",
                "code" : "0x6040600060406000732000000000000000000000000000000000000003614e34f450600160035200",
                "nonce" : "0x00",
                "storage" : {
                }
            },
            "0x2000000000000000000000000000000000000003" : {
                "balance" : "0x00",
                "code" : "0x600160035500",
                "nonce" : "0x00",
                "storage" : {
                }
            },
            "0xa000000000000000000000000000000000000000" : {
                "balance" : "0x0de0b6b3a7640000",
                "code" : "0x600060006000600060006000355af2600055600160015500",
                "nonce" : "0x00",
                "storage" : {
                }
            },
            "0xa94f5374fce5edbc8e2a8697c15331677e6ebf0b" : {
                "balance" : "0x0de0b6b3a7640000",
                "code" : "0x",
                "nonce" : "0x00",
                "storage" : {
                }
            }
        },
        "transaction" : {
            "data" : [
                "0x0000000000000000000000001000000000000000000000000000000000000000",
                "0x0000000000000000000000002000000000000000000000000000000000000000"
            ],
            "gasPrice" : "0x0a",
            "gasLimit" : [
                "0x029fe0"
            ],
            "nonce" : "0x00",
            "secretKey" : "0x45a915e4d060149eb4365960e6a7a45f334393093061116b197e3240065ff2d8",
            "to" : "0xa000000000000000000000000000000000000000",
            "value" : [
                "0x00"
            ]
        }
    }
}