{
    "static_Call1MB1024Calldepth" : {
        "_info" : {
            "comment" : "",
            "filling-rpc-server" : "evm version 1.10.4-unstable-966ee3ae-20210528",
            "filling-tool-version" : "retesteth-0.1.1-eip1559+commit.658fc3a8.Linux.g++",
            "lllcversion" : "Version: 0.5.14-develop.2021.5.18+commit.14c9d5de.mod.Linux.g++",
            "source" : "src/GeneralStateTestsFiller/stStaticCall/static_Call1MB1024CalldepthFiller.json",
            "sourceHash" : "c2da6a7fea65c69f703b614616464b7f87899abe1a72d09f08c93eb00e19a690"
        },
        "env" : {
            "currentCoinbase" : "0xb94f5374fce5edbc8e2a8697c15331677e6ebf0b",
            "currentDifficulty" : "0x020000",
            "currentNumber" : "0x01",
            "currentTimestamp" : "0x03e8",
            "previousHash" : "0x5e20a0453cecd065ea59c37ac63e079ee08998b6045136a8ce6635c7912ec0b6",
            "currentGasLimit" : "0xcfcd253d00"
        },
        "post" : {
            "Berlin" : [
                {
                    "indexes" : {
                        "data" : 0,
                        "gas" : 0,
                        "value" : 0
                    },
                    "hash" : "0x77843cae24fd7c2c44c417c76d7755f42d56e10385aa1710815e798d1d0558df",
                    "txbytes" : "0xf882800a85cd791959009410000000000000000000000000000000000000000aa0000000000000000000000000bbbf5374fce5edbc8e2a8697c15331677e6ebf0b1ca066f5c9838e0179e7d5a2fe1ed760a0928304c841d20f7b8765e28aedfd0cd90ea053557e22eff072c73c6e833331e4962884b10bf903ab5d6a33be4f104a712586",
                    "logs" : "0x1dcc4de8dec75d7aab85b567b6ccd41ad312451b948a7413f0a142fd40d49347"
                },
                {
                    "indexes" : {
                        "data" : 1,
                        "gas" : 0,
                        "value" : 0
                    },
                    "hash" : "0x52404b05da1592b403f6736ebf87104835e78cf1b012b20d82f046617693f712",
                    "txbytes" : "0xf882800a85cd791959009410000000000000000000000000000000000000000aa0000000000000000000000000cbbf5374fce5edbc8e2a8697c15331677e6ebf0b1ca0a915f73261519716c643ea4e8e0dc127bc046ca1b29ca9173a6dc2c4f4d4d16aa0407e33cff670a9c378f684dc52d5199e63b3d40d09ab5b47eb430625a881ac82",
                    "logs" : "0x1dcc4de8dec75d7aab85b567b6ccd41ad312451b948a7413f0a142fd40d49347"
                }
            ],
            "Istanbul" : [
                {
                    "indexes" : {
                        "data" : 0,
                        "gas" : 0,
                        "value" : 0
                    },
                    "hash" : "0x8f0f91c072761ca9dcd7d07a9bfc34cd5c45d72a3308c94df34ae02981e1ada3",
                    "txbytes" : "0xf882800a85cd791959009410000000000000000000000000000000000000000aa0000000000000000000000000bbbf5374fce5edbc8e2a8697c15331677e6ebf0b1ca066f5c9838e0179e7d5a2fe1ed760a0928304c841d20f7b8765e28aedfd0cd90ea053557e22eff072c73c6e833331e4962884b10bf903ab5d6a33be4f104a712586",
                    "logs" : "0x1dcc4de8dec75d7aab85b567b6ccd41ad312451b948a7413f0a142fd40d49347"
                },
                {
                    "indexes" : {
                        "data" : 1,
                        "gas" : 0,
                        "value" : 0
                    },
                    "hash" : "0x0102bea92554c9bf0a1a683dc75f5bb170904119225444b874b42bc2f267fb4f",
                    "txbytes" : "0xf882800a85cd791959009410000000000000000000000000000000000000000aa0000000000000000000000000cbbf5374fce5edbc8e2a8697c15331677e6ebf0b1ca0a915f73261519716c643ea4e8e0dc127bc046ca1b29ca9173a6dc2c4f4d4d16aa0407e33cff670a9c378f684dc52d5199e63b3d40d09ab5b47eb430625a881ac82",
                    "logs" : "0x1dcc4de8dec75d7aab85b567b6ccd41ad312451b948a7413f0a142fd40d49347"
                }
            ],
            "London" : [
                {
                    "indexes" : {
                        "data" : 0,
                        "gas" : 0,
                        "value" : 0
                    },
                    "hash" : "0x43aa169ba68e1dfc1057617f3038498d21fc07ddc6f785caab06446f5682d329",
                    "txbytes" : "0xf882800a85cd791959009410000000000000000000000000000000000000000aa0000000000000000000000000bbbf5374fce5edbc8e2a8697c15331677e6ebf0b1ca066f5c9838e0179e7d5a2fe1ed760a0928304c841d20f7b8765e28aedfd0cd90ea053557e22eff072c73c6e833331e4962884b10bf903ab5d6a33be4f104a712586",
                    "logs" : "0x1dcc4de8dec75d7aab85b567b6ccd41ad312451b948a7413f0a142fd40d49347"
                },
                {
                    "indexes" : {
                        "data" : 1,
                        "gas" : 0,
                        "value" : 0
                    },
                    "hash" : "0x49b2be6bd4601d280c9d6c5d0207f8132f5048602566cf69909e7b169f204532",
                    "txbytes" : "0xf882800a85cd791959009410000000000000000000000000000000000000000aa0000000000000000000000000cbbf5374fce5edbc8e2a8697c15331677e6ebf0b1ca0a915f73261519716c643ea4e8e0dc127bc046ca1b29ca9173a6dc2c4f4d4d16aa0407e33cff670a9c378f684dc52d5199e63b3d40d09ab5b47eb430625a881ac82",
                    "logs" : "0x1dcc4de8dec75d7aab85b567b6ccd41ad312451b948a7413f0a142fd40d49347"
                }
            ]
        },
        "pre" : {
            "0x1000000000000000000000000000000000000000" : {
                "balance" : "0x0fffffffffffff",
                "code" : "0x600060006000600060006000355af160005500",
                "nonce" : "0x00",
                "storage" : {
                }
            },
            "0xa94f5374fce5edbc8e2a8697c15331677e6ebf0b" : {
                "balance" : "0xffffffffffffffffffffffffffffffff",
                "code" : "0x",
                "nonce" : "0x00",
                "storage" : {
                }
            },
            "0xaaa50000fce5edbc8e2a8697c15331677e6ebf0b" : {
                "balance" : "0x0fffffffffffff",
                "code" : "0x",
                "nonce" : "0x00",
                "storage" : {
                }
            },
            "0xbbbf5374fce5edbc8e2a8697c15331677e6ebf0b" : {
                "balance" : "0x0fffffffffffff",
                "code" : "0x60016000540160005561040060005410601b5760016002556045565b60006000620f4240600073bbbf5374fce5edbc8e2a8697c15331677e6ebf0b620f55c85a03fa6001555b00",
                "nonce" : "0x00",
                "storage" : {
                }
            },
            "0xcbbf5374fce5edbc8e2a8697c15331677e6ebf0b" : {
                "balance" : "0x0fffffffffffff",
                "code" : "0x60016000510160005261040060005110601b5760016040526045565b60006000620f4240600073cbbf5374fce5edbc8e2a8697c15331677e6ebf0b620f55c85a03fa6020525b00",
                "nonce" : "0x00",
                "storage" : {
                }
            }
        },
        "transaction" : {
            "data" : [
                "0x000000000000000000000000bbbf5374fce5edbc8e2a8697c15331677e6ebf0b",
                "0x000000000000000000000000cbbf5374fce5edbc8e2a8697c15331677e6ebf0b"
            ],
            "gasPrice" : "0x0a",
            "gasLimit" : [
                "0xcd79195900"
            ],
            "nonce" : "0x00",
            "secretKey" : "0x45a915e4d060149eb4365960e6a7a45f334393093061116b197e3240065ff2d8",
            "to" : "0x1000000000000000000000000000000000000000",
            "value" : [
                "0x0a"
            ]
        }
    }
}