{
    "static_Call1024PreCalls2" : {
        "_info" : {
            "comment" : "",
            "filling-rpc-server" : "evm version 1.10.4-unstable-966ee3ae-20210528",
            "filling-tool-version" : "retesteth-0.1.1-eip1559+commit.658fc3a8.Linux.g++",
            "lllcversion" : "Version: 0.5.14-develop.2021.5.18+commit.14c9d5de.mod.Linux.g++",
            "source" : "src/GeneralStateTestsFiller/stStaticCall/static_Call1024PreCalls2Filler.json",
            "sourceHash" : "b91016baf25d255734f8fae013eb60bb55457fdf0ed34e9a36c2dab8e3468bb7"
        },
        "env" : {
            "currentCoinbase" : "0xb94f5374fce5edbc8e2a8697c15331677e6ebf0b",
            "currentDifficulty" : "0x020000",
            "currentNumber" : "0x01",
            "currentTimestamp" : "0x03e8",
            "previousHash" : "0x5e20a0453cecd065ea59c37ac63e079ee08998b6045136a8ce6635c7912ec0b6",
            "currentGasLimit" : "0x7fffffffffffffff"
        },
        "post" : {
            "Berlin" : [
                {
                    "indexes" : {
                        "data" : 0,
                        "gas" : 0,
                        "value" : 0
                    },
                    "hash" : "0x4c09f3d8728e0499d49a6e2906894065c3cc4d107379a1351f98a39898afeeeb",
                    "txbytes" : "0xf885800a887fe00000000000019410000000000000000000000000000000000000000aa0000000000000000000000000bbbf5374fce5edbc8e2a8697c15331677e6ebf0b1ca0d8158dbd8f9abeb3077ab3f8a58b5686602d668b4f3789066206f97929650ab8a07e7d73b80175cab7b58928a10a83c3887df251c1ec21dd0fe8847c2e3423e6b4",
                    "logs" : "0x1dcc4de8dec75d7aab85b567b6ccd41ad312451b948a7413f0a142fd40d49347"
                },
                {
                    "indexes" : {
                        "data" : 1,
                        "gas" : 0,
                        "value" : 0
                    },
                    "hash" : "0xcf7947dd9f49a32c73b17f7113927f7cde6ce2d260166a1769cb8c794bfbccb7",
                    "txbytes" : "0xf885800a887fe00000000000019410000000000000000000000000000000000000000aa0000000000000000000000000cbbf5374fce5edbc8e2a8697c15331677e6ebf0b1ca0d66f04968eb32841eaafc54eb514fc54c6a290da44c377e74332f09eb0253a07a00c780941396de0d81e0bd44dc4b3fa31268be355dabb3ebe678a8ae1c3cfde44",
                    "logs" : "0x1dcc4de8dec75d7aab85b567b6ccd41ad312451b948a7413f0a142fd40d49347"
                }
            ],
            "Istanbul" : [
                {
                    "indexes" : {
                        "data" : 0,
                        "gas" : 0,
                        "value" : 0
                    },
                    "hash" : "0xb983f096c2da595dfc862d0b935c1a09ae28b20d1afff2669908fe47f1b9b707",
                    "txbytes" : "0xf885800a887fe00000000000019410000000000000000000000000000000000000000aa0000000000000000000000000bbbf5374fce5edbc8e2a8697c15331677e6ebf0b1ca0d8158dbd8f9abeb3077ab3f8a58b5686602d668b4f3789066206f97929650ab8a07e7d73b80175cab7b58928a10a83c3887df251c1ec21dd0fe8847c2e3423e6b4",
                    "logs" : "0x1dcc4de8dec75d7aab85b567b6ccd41ad312451b948a7413f0a142fd40d49347"
                },
                {
                    "indexes" : {
                        "data" : 1,
                        "gas" : 0,
                        "value" : 0
                    },
                    "hash" : "0x124cccaec9a93fc8cc5e445fb374d87b53a51d5201ccce52b52c94107c4a43c8",
                    "txbytes" : "0xf885800a887fe00000000000019410000000000000000000000000000000000000000aa0000000000000000000000000cbbf5374fce5edbc8e2a8697c15331677e6ebf0b1ca0d66f04968eb32841eaafc54eb514fc54c6a290da44c377e74332f09eb0253a07a00c780941396de0d81e0bd44dc4b3fa31268be355dabb3ebe678a8ae1c3cfde44",
                    "logs" : "0x1dcc4de8dec75d7aab85b567b6ccd41ad312451b948a7413f0a142fd40d49347"
                }
            ],
            "London" : [
                {
                    "indexes" : {
                        "data" : 0,
                        "gas" : 0,
                        "value" : 0
                    },
                    "hash" : "0x545546ef399e0748e8636185d61d7af6434c329fc71178b619a48bddd4f2ec61",
                    "txbytes" : "0xf885800a887fe00000000000019410000000000000000000000000000000000000000aa0000000000000000000000000bbbf5374fce5edbc8e2a8697c15331677e6ebf0b1ca0d8158dbd8f9abeb3077ab3f8a58b5686602d668b4f3789066206f97929650ab8a07e7d73b80175cab7b58928a10a83c3887df251c1ec21dd0fe8847c2e3423e6b4",
                    "logs" : "0x1dcc4de8dec75d7aab85b567b6ccd41ad312451b948a7413f0a142fd40d49347"
                },
                {
                    "indexes" : {
                        "data" : 1,
                        "gas" : 0,
                        "value" : 0
                    },
                    "hash" : "0x70001f2101da71ee206422cc120e085445409f86306a44e8ce9b7fb8c1a03fac",
                    "txbytes" : "0xf885800a887fe00000000000019410000000000000000000000000000000000000000aa0000000000000000000000000cbbf5374fce5edbc8e2a8697c15331677e6ebf0b1ca0d66f04968eb32841eaafc54eb514fc54c6a290da44c377e74332f09eb0253a07a00c780941396de0d81e0bd44dc4b3fa31268be355dabb3ebe678a8ae1c3cfde44",
                    "logs" : "0x1dcc4de8dec75d7aab85b567b6ccd41ad312451b948a7413f0a142fd40d49347"
                }
            ]
        },
        "pre" : {
            "0x1000000000000000000000000000000000000000" : {
                "balance" : "0x00",
                "code" : "0x6000600060006000346000355af1600055600160015500",
                "nonce" : "0x00",
                "storage" : {
                }
            },
            "0xa94f5374fce5edbc8e2a8697c15331677e6ebf0b" : {
                "balance" : "0x0fffffffffffffffffffffffffffffffff",
                "code" : "0x",
                "nonce" : "0x00",
                "storage" : {
                }
            },
            "0xaaaf5374fce5edbc8e2a8697c15331677e6ebf0b" : {
                "balance" : "0x1b58",
                "code" : "0x600160005200",
                "nonce" : "0x00",
                "storage" : {
                }
            },
            "0xbbbf5374fce5edbc8e2a8697c15331677e6ebf0b" : {
                "balance" : "0x07e8",
                "code" : "0x600060006000600073aaaf5374fce5edbc8e2a8697c15331677e6ebf0b61fffffa600255600060006000600073aaaf5374fce5edbc8e2a8697c15331677e6ebf0b61fffffa600355600160005401600055600060006000600073bbbf5374fce5edbc8e2a8697c15331677e6ebf0b650ffffffffffff460015500",
                "nonce" : "0x00",
                "storage" : {
                }
            },
            "0xcbbf5374fce5edbc8e2a8697c15331677e6ebf0b" : {
                "balance" : "0x07e8",
                "code" : "0x600060006000600073aaaf5374fce5edbc8e2a8697c15331677e6ebf0b61fffffa50600060006000600073aaaf5374fce5edbc8e2a8697c15331677e6ebf0b61fffffa50600160005101600052600060006000600073cbbf5374fce5edbc8e2a8697c15331677e6ebf0b650ffffffffffff400",
                "nonce" : "0x00",
                "storage" : {
                }
            }
        },
        "transaction" : {
            "data" : [
                "0x000000000000000000000000bbbf5374fce5edbc8e2a8697c15331677e6ebf0b",
                "0x000000000000000000000000cbbf5374fce5edbc8e2a8697c15331677e6ebf0b"
            ],
            "gasPrice" : "0x0a",
            "gasLimit" : [
                "0x7fe0000000000001"
            ],
            "nonce" : "0x00",
            "secretKey" : "0x45a915e4d060149eb4365960e6a7a45f334393093061116b197e3240065ff2d8",
            "to" : "0x1000000000000000000000000000000000000000",
            "value" : [
                "0x0a"
            ]
        }
    }
}