{
    "static_callcall_00" : {
        "_info" : {
            "comment" : "",
            "filling-rpc-server" : "evm version 1.10.4-unstable-966ee3ae-20210528",
            "filling-tool-version" : "retesteth-0.1.1-eip1559+commit.658fc3a8.Linux.g++",
            "lllcversion" : "Version: 0.5.14-develop.2021.5.18+commit.14c9d5de.mod.Linux.g++",
            "source" : "src/GeneralStateTestsFiller/stStaticCall/static_callcall_00Filler.json",
            "sourceHash" : "9aaa9a6b7eba2f831eb8ad92f88185a1c596c1461bd7feb800f19098df689f2d"
        },
        "env" : {
            "currentCoinbase" : "0x2adc25665018aa1fe0e6bc666dac8fc2697ff9ba",
            "currentDifficulty" : "0x020000",
            "currentNumber" : "0x01",
            "currentTimestamp" : "0x03e8",
            "previousHash" : "0x5e20a0453cecd065ea59c37ac63e079ee08998b6045136a8ce6635c7912ec0b6",
            "currentGasLimit" : "0x01c9c380"
        },
        "post" : {
            "Berlin" : [
                {
                    "indexes" : {
                        "data" : 0,
                        "gas" : 0,
                        "value" : 0
                    },
                    "hash" : "0xdca6205f10dc4c2efee14864f2a0ad895a223d3bcb3bcebd3674da645ec19b63",
                    "txbytes" : "0xf880800a832dc6c094a00000000000000000000000000000000000000080a000000000000000000000000010000000000000000000000000000000000000001ba0fc76c53941910cc75d6b1e3b6e9828079eddb5bc36e2c93227cf1bab02459d9fa034c9bbd4849b1e31e3295cc756143c7f50d62538804e3c6454c1f7863eae231b",
                    "logs" : "0x1dcc4de8dec75d7aab85b567b6ccd41ad312451b948a7413f0a142fd40d49347"
                },
                {
                    "indexes" : {
                        "data" : 1,
                        "gas" : 0,
                        "value" : 0
                    },
                    "hash" : "0x8ccee075405f4d0bb3ed696a99fe7fa3751681e43873e006453fde7c7593e867",
                    "txbytes" : "0xf880800a832dc6c094a00000000000000000000000000000000000000080a000000000000000000000000020000000000000000000000000000000000000001ba0a2c8404e47dad6bc51c70e20f899eac8d519c681d9cb38b6889e81043ccb4e0ca00e02dfe8720c12f9a5bd2b689534ee298755ef9e16f2c08eec3b371ad038519a",
                    "logs" : "0x1dcc4de8dec75d7aab85b567b6ccd41ad312451b948a7413f0a142fd40d49347"
                }
            ],
            "Istanbul" : [
                {
                    "indexes" : {
                        "data" : 0,
                        "gas" : 0,
                        "value" : 0
                    },
                    "hash" : "0x399315bc3e716d6ccb7987e7ad503508c560dc58bc71f44921d9fa4b84f959cd",
                    "txbytes" : "0xf880800a832dc6c094a00000000000000000000000000000000000000080a000000000000000000000000010000000000000000000000000000000000000001ba0fc76c53941910cc75d6b1e3b6e9828079eddb5bc36e2c93227cf1bab02459d9fa034c9bbd4849b1e31e3295cc756143c7f50d62538804e3c6454c1f7863eae231b",
                    "logs" : "0x1dcc4de8dec75d7aab85b567b6ccd41ad312451b948a7413f0a142fd40d49347"
                },
                {
                    "indexes" : {
                        "data" : 1,
                        "gas" : 0,
                        "value" : 0
                    },
                    "hash" : "0x7380086323b3cad4eb161e51675b196d6e11ce02cffc59ac378c1f8b5c77d121",
                    "txbytes" : "0xf880800a832dc6c094a00000000000000000000000000000000000000080a000000000000000000000000020000000000000000000000000000000000000001ba0a2c8404e47dad6bc51c70e20f899eac8d519c681d9cb38b6889e81043ccb4e0ca00e02dfe8720c12f9a5bd2b689534ee298755ef9e16f2c08eec3b371ad038519a",
                    "logs" : "0x1dcc4de8dec75d7aab85b567b6ccd41ad312451b948a7413f0a142fd40d49347"
                }
            ],
            "London" : [
                {
                    "indexes" : {
                        "data" : 0,
                        "gas" : 0,
                        "value" : 0
                    },
                    "hash" : "0x57b27e3edcfc35688b44d8ac88172b7ca85d33e5b02d662437d90f662c0e17e6",
                    "txbytes" : "0xf880800a832dc6c094a00000000000000000000000000000000000000080a000000000000000000000000010000000000000000000000000000000000000001ba0fc76c53941910cc75d6b1e3b6e9828079eddb5bc36e2c93227cf1bab02459d9fa034c9bbd4849b1e31e3295cc756143c7f50d62538804e3c6454c1f7863eae231b",
                    "logs" : "0x1dcc4de8dec75d7aab85b567b6ccd41ad312451b948a7413f0a142fd40d49347"
                },
                {
                    "indexes" : {
                        "data" : 1,
                        "gas" : 0,
                        "value" : 0
                    },
                    "hash" : "0x33d130527d29cd76dfbfa99355e2d1bec88f2397c4e042ac278c37ead9d92bdb",
                    "txbytes" : "0xf880800a832dc6c094a00000000000000000000000000000000000000080a000000000000000000000000020000000000000000000000000000000000000001ba0a2c8404e47dad6bc51c70e20f899eac8d519c681d9cb38b6889e81043ccb4e0ca00e02dfe8720c12f9a5bd2b689534ee298755ef9e16f2c08eec3b371ad038519a",
                    "logs" : "0x1dcc4de8dec75d7aab85b567b6ccd41ad312451b948a7413f0a142fd40d49347"
                }
            ]
        },
        "pre" : {
            "0x1000000000000000000000000000000000000000" : {
                "balance" : "0x0de0b6b3a7640000",
                "code" : "0x604060006040600073100000000000000000000000000000000000000162055730fa60005500",
                "nonce" : "0x00",
                "storage" : {
                }
            },
            "0x1000000000000000000000000000000000000001" : {
                "balance" : "0x0de0b6b3a7640000",
                "code" : "0x60406000604060007310000000000000000000000000000000000000026203d090fa00",
                "nonce" : "0x00",
                "storage" : {
                }
            },
            "0x1000000000000000000000000000000000000002" : {
                "balance" : "0x00",
                "code" : "0x600160025533600455346007553060e6553260e8553660ec553860ee553a60f05500",
                "nonce" : "0x00",
                "storage" : {
                }
            },
            "0x2000000000000000000000000000000000000000" : {
                "balance" : "0x0de0b6b3a7640000",
                "code" : "0x604060006040600073200000000000000000000000000000000000000162055730fa60005500",
                "nonce" : "0x00",
                "storage" : {
                }
            },
            "0x2000000000000000000000000000000000000001" : {
                "balance" : "0x0de0b6b3a7640000",
                "code" : "0x60406000604060007320000000000000000000000000000000000000026203d090fa00",
                "nonce" : "0x00",
                "storage" : {
                }
            },
            "0x2000000000000000000000000000000000000002" : {
                "balance" : "0x00",
                "code" : "0x6001600052336020523460405230606052326080523660a0523860c0523a60e05200",
                "nonce" : "0x00",
                "storage" : {
                }
            },
            "0xa000000000000000000000000000000000000000" : {
                "balance" : "0x00",
                "code" : "0x6000600060006000346000355af1600055600160015500",
                "nonce" : "0x00",
                "storage" : {
                }
            },
            "0xa94f5374fce5edbc8e2a8697c15331677e6ebf0b" : {
                "balance" : "0x0de0b6b3a7640000",
                "code" : "0x",
                "nonce" : "0x00",
                "storage" : {
                }
            }
        },
        "transaction" : {
            "data" : [
                "0x0000000000000000000000001000000000000000000000000000000000000000",
                "0x0000000000000000000000002000000000000000000000000000000000000000"
            ],
            "gasPrice" : "0x0a",
            "gasLimit" : [
                "0x2dc6c0"
            ],
            "nonce" : "0x00",
            "secretKey" : "0x45a915e4d060149eb4365960e6a7a45f334393093061116b197e3240065ff2d8",
            "to" : "0xa000000000000000000000000000000000000000",
            "value" : [
                "0x00"
            ]
        }
    }
}