{
    "static_callcallcode_01_2" : {
        "_info" : {
            "comment" : "",
            "filling-rpc-server" : "evm version 1.10.4-unstable-966ee3ae-20210528",
            "filling-tool-version" : "retesteth-0.1.1-eip1559+commit.658fc3a8.Linux.g++",
            "lllcversion" : "Version: 0.5.14-develop.2021.5.18+commit.14c9d5de.mod.Linux.g++",
            "source" : "src/GeneralStateTestsFiller/stStaticCall/static_callcallcode_01_2Filler.json",
            "sourceHash" : "ede61c55072d2adf291492e17e33e21c006339bb298dba3132f602f000730e16"
        },
        "env" : {
            "currentCoinbase" : "0x2adc25665018aa1fe0e6bc666dac8fc2697ff9ba",
            "currentDifficulty" : "0x020000",
            "currentNumber" : "0x01",
            "currentTimestamp" : "0x03e8",
            "previousHash" : "0x5e20a0453cecd065ea59c37ac63e079ee08998b6045136a8ce6635c7912ec0b6",
            "currentGasLimit" : "0x01c9c380"
        },
        "post" : {
            "Berlin" : [
                {
                    "indexes" : {
                        "data" : 0,
                        "gas" : 0,
                        "value" : 0
                    },
                    "hash" : "0x8b731e227dedff068e8c25eb80531c54a0c5374e90ca37e1ace9407e33328831",
                    "txbytes" : "0xf880800a832dc6c094a00000000000000000000000000000000000000080a000000000000000000000000010000000000000000000000000000000000000001ba0fc76c53941910cc75d6b1e3b6e9828079eddb5bc36e2c93227cf1bab02459d9fa034c9bbd4849b1e31e3295cc756143c7f50d62538804e3c6454c1f7863eae231b",
                    "logs" : "0x1dcc4de8dec75d7aab85b567b6ccd41ad312451b948a7413f0a142fd40d49347"
                },
                {
                    "indexes" : {
                        "data" : 1,
                        "gas" : 0,
                        "value" : 0
                    },
                    "hash" : "0xc2b2bde3dc0071ca7d39e386d44264864dac21851d20c31d6dadcb6d44bdf00e",
                    "txbytes" : "0xf880800a832dc6c094a00000000000000000000000000000000000000080a000000000000000000000000020000000000000000000000000000000000000001ba0a2c8404e47dad6bc51c70e20f899eac8d519c681d9cb38b6889e81043ccb4e0ca00e02dfe8720c12f9a5bd2b689534ee298755ef9e16f2c08eec3b371ad038519a",
                    "logs" : "0x1dcc4de8dec75d7aab85b567b6ccd41ad312451b948a7413f0a142fd40d49347"
                }
            ],
            "Istanbul" : [
                {
                    "indexes" : {
                        "data" : 0,
                        "gas" : 0,
                        "value" : 0
                    },
                    "hash" : "0x1a041b6a8b61ca69085d003a0cedc2de5045c8fcf7128811427c24440f9afcde",
                    "txbytes" : "0xf880800a832dc6c094a00000000000000000000000000000000000000080a000000000000000000000000010000000000000000000000000000000000000001ba0fc76c53941910cc75d6b1e3b6e9828079eddb5bc36e2c93227cf1bab02459d9fa034c9bbd4849b1e31e3295cc756143c7f50d62538804e3c6454c1f7863eae231b",
                    "logs" : "0x1dcc4de8dec75d7aab85b567b6ccd41ad312451b948a7413f0a142fd40d49347"
                },
                {
                    "indexes" : {
                        "data" : 1,
                        "gas" : 0,
                        "value" : 0
                    },
                    "hash" : "0xd4c2a58e9ca1563adf6b52419c9da00b42b4788ab1ebb072656d5a42d40baa9d",
                    "txbytes" : "0xf880800a832dc6c094a00000000000000000000000000000000000000080a000000000000000000000000020000000000000000000000000000000000000001ba0a2c8404e47dad6bc51c70e20f899eac8d519c681d9cb38b6889e81043ccb4e0ca00e02dfe8720c12f9a5bd2b689534ee298755ef9e16f2c08eec3b371ad038519a",
                    "logs" : "0x1dcc4de8dec75d7aab85b567b6ccd41ad312451b948a7413f0a142fd40d49347"
                }
            ],
            "London" : [
                {
                    "indexes" : {
                        "data" : 0,
                        "gas" : 0,
                        "value" : 0
                    },
                    "hash" : "0x636bc1d89f46ae54985701f03a89e5b1f11cb277f7976942ec9d42ce64e73a1e",
                    "txbytes" : "0xf880800a832dc6c094a00000000000000000000000000000000000000080a000000000000000000000000010000000000000000000000000000000000000001ba0fc76c53941910cc75d6b1e3b6e9828079eddb5bc36e2c93227cf1bab02459d9fa034c9bbd4849b1e31e3295cc756143c7f50d62538804e3c6454c1f7863eae231b",
                    "logs" : "0x1dcc4de8dec75d7aab85b567b6ccd41ad312451b948a7413f0a142fd40d49347"
                },
                {
                    "indexes" : {
                        "data" : 1,
                        "gas" : 0,
                        "value" : 0
                    },
                    "hash" : "0x5726fffa414292aa1edad17548a28d741063ef6acecd27b53f36e0fdfca382c3",
                    "txbytes" : "0xf880800a832dc6c094a00000000000000000000000000000000000000080a000000000000000000000000020000000000000000000000000000000000000001ba0a2c8404e47dad6bc51c70e20f899eac8d519c681d9cb38b6889e81043ccb4e0ca00e02dfe8720c12f9a5bd2b689534ee298755ef9e16f2c08eec3b371ad038519a",
                    "logs" : "0x1dcc4de8dec75d7aab85b567b6ccd41ad312451b948a7413f0a142fd40d49347"
                }
            ]
        },
        "pre" : {
            "0x1000000000000000000000000000000000000000" : {
                "balance" : "0x0de0b6b3a7640000",
                "code" : "0x604060006020600073100000000000000000000000000000000000000162055730fa00",
                "nonce" : "0x00",
                "storage" : {
                }
            },
            "0x1000000000000000000000000000000000000001" : {
                "balance" : "0x0de0b6b3a7640000",
                "code" : "0x604060006020600060027310000000000000000000000000000000000000026203d090f200",
                "nonce" : "0x00",
                "storage" : {
                }
            },
            "0x1000000000000000000000000000000000000002" : {
                "balance" : "0x00",
                "code" : "0x631122334460005200",
                "nonce" : "0x00",
                "storage" : {
                }
            },
            "0x2000000000000000000000000000000000000000" : {
                "balance" : "0x0de0b6b3a7640000",
                "code" : "0x604060006020600073200000000000000000000000000000000000000162055730fa00",
                "nonce" : "0x00",
                "storage" : {
                }
            },
            "0x2000000000000000000000000000000000000001" : {
                "balance" : "0x0de0b6b3a7640000",
                "code" : "0x600035600052604060006020600060007320000000000000000000000000000000000000026203d090f200",
                "nonce" : "0x00",
                "storage" : {
                }
            },
            "0x2000000000000000000000000000000000000002" : {
                "balance" : "0x00",
                "code" : "0x631122334460005200",
                "nonce" : "0x00",
                "storage" : {
                }
            },
            "0xa000000000000000000000000000000000000000" : {
                "balance" : "0x0de0b6b3a7640000",
                "code" : "0x600060006000600060006000355af2600055600160015500",
                "nonce" : "0x00",
                "storage" : {
                }
            },
            "0xa94f5374fce5edbc8e2a8697c15331677e6ebf0b" : {
                "balance" : "0x0de0b6b3a7640000",
                "code" : "0x",
                "nonce" : "0x00",
                "storage" : {
                }
            }
        },
        "transaction" : {
            "data" : [
                "0x0000000000000000000000001000000000000000000000000000000000000000",
                "0x0000000000000000000000002000000000000000000000000000000000000000"
            ],
            "gasPrice" : "0x0a",
            "gasLimit" : [
                "0x2dc6c0"
            ],
            "nonce" : "0x00",
            "secretKey" : "0x45a915e4d060149eb4365960e6a7a45f334393093061116b197e3240065ff2d8",
            "to" : "0xa000000000000000000000000000000000000000",
            "value" : [
                "0x00"
            ]
        }
    }
}