{
    "static_CallRecursiveBomb0_OOG_atMaxCallDepth" : {
        "_info" : {
            "comment" : "",
            "filling-rpc-server" : "evm version 1.10.4-unstable-966ee3ae-20210528",
            "filling-tool-version" : "retesteth-0.1.1-eip1559+commit.658fc3a8.Linux.g++",
            "lllcversion" : "Version: 0.5.14-develop.2021.5.18+commit.14c9d5de.mod.Linux.g++",
            "source" : "src/GeneralStateTestsFiller/stStaticCall/static_CallRecursiveBomb0_OOG_atMaxCallDepthFiller.json",
            "sourceHash" : "4c5eb74b5ceee368912986a432be68d0d32dbc01a880acf503a87950a6f7c4d0"
        },
        "env" : {
            "currentCoinbase" : "0x2adc25665018aa1fe0e6bc666dac8fc2697ff9ba",
            "currentDifficulty" : "0x020000",
            "currentNumber" : "0x01",
            "currentTimestamp" : "0x03e8",
            "previousHash" : "0x5e20a0453cecd065ea59c37ac63e079ee08998b6045136a8ce6635c7912ec0b6",
            "currentGasLimit" : "0x199c82cc00"
        },
        "post" : {
            "Berlin" : [
                {
                    "indexes" : {
                        "data" : 0,
                        "gas" : 0,
                        "value" : 0
                    },
                    "hash" : "0xff1a946d76bd1ff748a9a3925fa05be2a25d69297f96c28e3d4aff470e11dd53",
                    "txbytes" : "0xf865800a85174876e80094195e7baea6a6c7c4c2dfeb977efac326af552d87830186a0801ca00a0141c4681cc4bec2ed04c6662d942b2b94cf391c422e976bf531493d4766b9a02fdcde4616a8f08e6562b39bafbcaf0c5ccefac91289e6409e44e3dfd9726e8b",
                    "logs" : "0x1dcc4de8dec75d7aab85b567b6ccd41ad312451b948a7413f0a142fd40d49347"
                }
            ],
            "Istanbul" : [
                {
                    "indexes" : {
                        "data" : 0,
                        "gas" : 0,
                        "value" : 0
                    },
                    "hash" : "0x02e4105dd5a88a326debe4e6bdb04ddb1fd63a2f1c5902d60e3a3e07eeae1cfb",
                    "txbytes" : "0xf865800a85174876e80094195e7baea6a6c7c4c2dfeb977efac326af552d87830186a0801ca00a0141c4681cc4bec2ed04c6662d942b2b94cf391c422e976bf531493d4766b9a02fdcde4616a8f08e6562b39bafbcaf0c5ccefac91289e6409e44e3dfd9726e8b",
                    "logs" : "0x1dcc4de8dec75d7aab85b567b6ccd41ad312451b948a7413f0a142fd40d49347"
                }
            ],
            "London" : [
                {
                    "indexes" : {
                        "data" : 0,
                        "gas" : 0,
                        "value" : 0
                    },
                    "hash" : "0xd37d0ff2bd835edbe012048b448f6dd9dbe252b9922fdd23182ed6acfb12db73",
                    "txbytes" : "0xf865800a85174876e80094195e7baea6a6c7c4c2dfeb977efac326af552d87830186a0801ca00a0141c4681cc4bec2ed04c6662d942b2b94cf391c422e976bf531493d4766b9a02fdcde4616a8f08e6562b39bafbcaf0c5ccefac91289e6409e44e3dfd9726e8b",
                    "logs" : "0x1dcc4de8dec75d7aab85b567b6ccd41ad312451b948a7413f0a142fd40d49347"
                }
            ]
        },
        "pre" : {
            "0x095e7baea6a6c7c4c2dfeb977efac326af552d87" : {
                "balance" : "0x01312d00",
                "code" : "0x600160005401600052690fffffffffffffffffff610402600051040260025260006000690fffffffffffffffffff61040260005104026000306104005a03fa00",
                "nonce" : "0x00",
                "storage" : {
                }
            },
            "0x195e7baea6a6c7c4c2dfeb977efac326af552d87" : {
                "balance" : "0x01312d00",
                "code" : "0x6000600060006000600073095e7baea6a6c7c4c2dfeb977efac326af552d875af250600160015500",
                "nonce" : "0x00",
                "storage" : {
                }
            },
            "0xa94f5374fce5edbc8e2a8697c15331677e6ebf0b" : {
                "balance" : "0x0de0b6b3a7640000",
                "code" : "0x",
                "nonce" : "0x00",
                "storage" : {
                }
            }
        },
        "transaction" : {
            "data" : [
                "0x"
            ],
            "gasPrice" : "0x0a",
            "gasLimit" : [
                "0x174876e800"
            ],
            "nonce" : "0x00",
            "secretKey" : "0x45a915e4d060149eb4365960e6a7a45f334393093061116b197e3240065ff2d8",
            "to" : "0x195e7baea6a6c7c4c2dfeb977efac326af552d87",
            "value" : [
                "0x0186a0"
            ]
        }
    }
}