{
    "static_RETURN_Bounds" : {
        "_info" : {
            "comment" : "",
            "filling-rpc-server" : "evm version 1.10.4-unstable-966ee3ae-20210528",
            "filling-tool-version" : "retesteth-0.1.1-eip1559+commit.658fc3a8.Linux.g++",
            "lllcversion" : "Version: 0.5.14-develop.2021.5.18+commit.14c9d5de.mod.Linux.g++",
            "source" : "src/GeneralStateTestsFiller/stStaticCall/static_RETURN_BoundsFiller.json",
            "sourceHash" : "4c1c939f625e0aacf145aee212ae2881c76391782627932a7c1dca0bde00dff4"
        },
        "env" : {
            "currentCoinbase" : "0x2adc25665018aa1fe0e6bc666dac8fc2697ff9ba",
            "currentDifficulty" : "0x020000",
            "currentNumber" : "0x01",
            "currentTimestamp" : "0x03e8",
            "previousHash" : "0x5e20a0453cecd065ea59c37ac63e079ee08998b6045136a8ce6635c7912ec0b6",
            "currentGasLimit" : "0x7fffffffffffffff"
        },
        "post" : {
            "Berlin" : [
                {
                    "indexes" : {
                        "data" : 0,
                        "gas" : 0,
                        "value" : 0
                    },
                    "hash" : "0xbe0b5e14abea0e2c774747240451b9a108efa9242f83e8d17c0ba50d7d237bec",
                    "txbytes" : "0xf860800a83e4e1c094100000000000000000000000000000000000000001801ca02e11c64679a2e918f62444a04a0ce6c97966543d24d6567a2ec61019821d00bda0576332402517902aacbb6871851a4e85bb970996109a78e10db30582decd03a8",
                    "logs" : "0x1dcc4de8dec75d7aab85b567b6ccd41ad312451b948a7413f0a142fd40d49347"
                }
            ],
            "Istanbul" : [
                {
                    "indexes" : {
                        "data" : 0,
                        "gas" : 0,
                        "value" : 0
                    },
                    "hash" : "0xb126310d9b4d7bc693ef682f50e7781472f972a0fbc33bff9d3e69424d120dbb",
                    "txbytes" : "0xf860800a83e4e1c094100000000000000000000000000000000000000001801ca02e11c64679a2e918f62444a04a0ce6c97966543d24d6567a2ec61019821d00bda0576332402517902aacbb6871851a4e85bb970996109a78e10db30582decd03a8",
                    "logs" : "0x1dcc4de8dec75d7aab85b567b6ccd41ad312451b948a7413f0a142fd40d49347"
                }
            ],
            "London" : [
                {
                    "indexes" : {
                        "data" : 0,
                        "gas" : 0,
                        "value" : 0
                    },
                    "hash" : "0x032f11360e0a68833fad06afcfdfd9fb34ea89365ac4cf16e540ba8d93178f5d",
                    "txbytes" : "0xf860800a83e4e1c094100000000000000000000000000000000000000001801ca02e11c64679a2e918f62444a04a0ce6c97966543d24d6567a2ec61019821d00bda0576332402517902aacbb6871851a4e85bb970996109a78e10db30582decd03a8",
                    "logs" : "0x1dcc4de8dec75d7aab85b567b6ccd41ad312451b948a7413f0a142fd40d49347"
                }
            ]
        },
        "pre" : {
            "0x1000000000000000000000000000000000000000" : {
                "balance" : "0x00",
                "code" : "0x60006000600060007310000000000000000000000000000000000000016707fffffffffffffffa60015560006000600060007310000000000000000000000000000000000000026707fffffffffffffffa60025560006000600060007310000000000000000000000000000000000000036707fffffffffffffffa60035560006000600060007310000000000000000000000000000000000000046707fffffffffffffffa60045560006000600060007310000000000000000000000000000000000000056707fffffffffffffffa60055560006000600060007310000000000000000000000000000000000000066707fffffffffffffffa60065560006000600060007310000000000000000000000000000000000000066707fffffffffffffffa60075560006000600060007310000000000000000000000000000000000000066707fffffffffffffffa60085560006000600060007310000000000000000000000000000000000000066707fffffffffffffffa60095560006000600060007310000000000000000000000000000000000000066707fffffffffffffffa600a5560006000600060007310000000000000000000000000000000000000066707fffffffffffffffa600b5560006000600060007310000000000000000000000000000000000000066707fffffffffffffffa600c5560006000600060007310000000000000000000000000000000000000066707fffffffffffffffa600d5560006000600060007310000000000000000000000000000000000000066707fffffffffffffffa600e5560006000600060007310000000000000000000000000000000000000066707fffffffffffffffa600f5560006000600060007310000000000000000000000000000000000000066707fffffffffffffffa60105500",
                "nonce" : "0x00",
                "storage" : {
                }
            },
            "0x1000000000000000000000000000000000000001" : {
                "balance" : "0x00",
                "code" : "0x60006000f300",
                "nonce" : "0x00",
                "storage" : {
                }
            },
            "0x1000000000000000000000000000000000000002" : {
                "balance" : "0x00",
                "code" : "0x6000630ffffffff300",
                "nonce" : "0x00",
                "storage" : {
                }
            },
            "0x1000000000000000000000000000000000000003" : {
                "balance" : "0x00",
                "code" : "0x600063fffffffff300",
                "nonce" : "0x00",
                "storage" : {
                }
            },
            "0x1000000000000000000000000000000000000004" : {
                "balance" : "0x00",
                "code" : "0x600067fffffffffffffffff300",
                "nonce" : "0x00",
                "storage" : {
                }
            },
            "0x1000000000000000000000000000000000000005" : {
                "balance" : "0x00",
                "code" : "0x60006d0ffffffffffffffffffffffffffff300",
                "nonce" : "0x00",
                "storage" : {
                }
            },
            "0x1000000000000000000000000000000000000006" : {
                "balance" : "0x00",
                "code" : "0x60007ffffffffffffffffffffffffffffffffffffffffffffffffffffffffffffffffff300",
                "nonce" : "0x00",
                "storage" : {
                }
            },
            "0x1000000000000000000000000000000000000007" : {
                "balance" : "0x00",
                "code" : "0x630fffffff6000f300",
                "nonce" : "0x00",
                "storage" : {
                }
            },
            "0x1000000000000000000000000000000000000008" : {
                "balance" : "0x00",
                "code" : "0x63ffffffff6000f300",
                "nonce" : "0x00",
                "storage" : {
                }
            },
            "0x1000000000000000000000000000000000000009" : {
                "balance" : "0x00",
                "code" : "0x67ffffffffffffffff6000f300",
                "nonce" : "0x00",
                "storage" : {
                }
            },
            "0x1000000000000000000000000000000000000010" : {
                "balance" : "0x00",
                "code" : "0x6d0fffffffffffffffffffffffffff6000f300",
                "nonce" : "0x00",
                "storage" : {
                }
            },
            "0x1000000000000000000000000000000000000011" : {
                "balance" : "0x00",
                "code" : "0x7fffffffffffffffffffffffffffffffffffffffffffffffffffffffffffffffff6000f300",
                "nonce" : "0x00",
                "storage" : {
                }
            },
            "0x1000000000000000000000000000000000000012" : {
                "balance" : "0x00",
                "code" : "0x630fffffff630ffffffff300",
                "nonce" : "0x00",
                "storage" : {
                }
            },
            "0x1000000000000000000000000000000000000013" : {
                "balance" : "0x00",
                "code" : "0x63ffffffff63fffffffff300",
                "nonce" : "0x00",
                "storage" : {
                }
            },
            "0x1000000000000000000000000000000000000014" : {
                "balance" : "0x00",
                "code" : "0x67ffffffffffffffff67fffffffffffffffff300",
                "nonce" : "0x00",
                "storage" : {
                }
            },
            "0x1000000000000000000000000000000000000015" : {
                "balance" : "0x00",
                "code" : "0x6d0fffffffffffffffffffffffffff6d0ffffffffffffffffffffffffffff300",
                "nonce" : "0x00",
                "storage" : {
                }
            },
            "0x1000000000000000000000000000000000000016" : {
                "balance" : "0x00",
                "code" : "0x7fffffffffffffffffffffffffffffffffffffffffffffffffffffffffffffffff7ffffffffffffffffffffffffffffffffffffffffffffffffffffffffffffffffff300",
                "nonce" : "0x00",
                "storage" : {
                }
            },
            "0xa94f5374fce5edbc8e2a8697c15331677e6ebf0b" : {
                "balance" : "0xffffffffffffffffffffffffffffffffffffffffffffffffffffffffffffffff",
                "code" : "0x",
                "nonce" : "0x00",
                "storage" : {
                }
            }
        },
        "transaction" : {
            "data" : [
                "0x"
            ],
            "gasPrice" : "0x0a",
            "gasLimit" : [
                "0xe4e1c0"
            ],
            "nonce" : "0x00",
            "secretKey" : "0x45a915e4d060149eb4365960e6a7a45f334393093061116b197e3240065ff2d8",
            "to" : "0x1000000000000000000000000000000000000000",
            "value" : [
                "0x01"
            ]
        }
    }
}