{
    "static_CheckOpcodes3" : {
        "_info" : {
            "comment" : "",
            "filling-rpc-server" : "evm version 1.10.4-unstable-966ee3ae-20210528",
            "filling-tool-version" : "retesteth-0.1.1-eip1559+commit.658fc3a8.Linux.g++",
            "lllcversion" : "Version: 0.5.14-develop.2021.5.18+commit.14c9d5de.mod.Linux.g++",
            "source" : "src/GeneralStateTestsFiller/stStaticCall/static_CheckOpcodes3Filler.json",
            "sourceHash" : "db3df51a8e12ad5889cb12a9ab2af12a44eb07b9b93e220b744d74dbe48665e8"
        },
        "env" : {
            "currentCoinbase" : "0x2adc25665018aa1fe0e6bc666dac8fc2697ff9ba",
            "currentDifficulty" : "0x020000",
            "currentNumber" : "0x01",
            "currentTimestamp" : "0x03e8",
            "previousHash" : "0x5e20a0453cecd065ea59c37ac63e079ee08998b6045136a8ce6635c7912ec0b6",
            "currentGasLimit" : "0x989680"
        },
        "post" : {
            "Berlin" : [
                {
                    "indexes" : {
                        "data" : 0,
                        "gas" : 0,
                        "value" : 0
                    },
                    "hash" : "0x01076d63de99a1d72bed8c0031fededd56e9c28316947424794c3c08a3db1e81",
                    "txbytes" : "0xf880800a83051c9894100000000000000000000000000000000000000080a000000000000000000000000010000000000000000000000000000000000000011ca04a3f429fcd0277a0f1ef5c4931ec78c08c652bed01d2f35852f8ee017308131fa042345097a1d3131559e4f4c2f533826f44b03ae8328ea46790867a3e1bc72c55",
                    "logs" : "0x1dcc4de8dec75d7aab85b567b6ccd41ad312451b948a7413f0a142fd40d49347"
                },
                {
                    "indexes" : {
                        "data" : 0,
                        "gas" : 0,
                        "value" : 1
                    },
                    "hash" : "0x7d89d2f9fb3d4afaf9122c3bf257fcc673ba3dc8f31215365827cfa4bfa80648",
                    "txbytes" : "0xf880800a83051c9894100000000000000000000000000000000000000064a000000000000000000000000010000000000000000000000000000000000000011ba0861bbbf3944ba5d6363326fa71e9f2a9a18642011d2826a5b62e0aeb2073ac1ba00cf5ad0ec7bbf0779203bfd2703d254432fac642f2aedab16958a3f46b2a781a",
                    "logs" : "0x1dcc4de8dec75d7aab85b567b6ccd41ad312451b948a7413f0a142fd40d49347"
                },
                {
                    "indexes" : {
                        "data" : 2,
                        "gas" : 0,
                        "value" : 0
                    },
                    "hash" : "0xed016e423e2b6d5e66cbec31cd6a2ab956aead1ed885d2392447e6b1583394bc",
                    "txbytes" : "0xf880800a83051c9894100000000000000000000000000000000000000080a000000000000000000000000030000000000000000000000000000000000000011ba01f08cfd670f24de23648a701c8c8279a01afba9ce0dcba460b2c44ad0341d48da06df490de0634cb39d61337b507656f843620d96db7adf145d4bc6e3c3aedd906",
                    "logs" : "0x1dcc4de8dec75d7aab85b567b6ccd41ad312451b948a7413f0a142fd40d49347"
                },
                {
                    "indexes" : {
                        "data" : 2,
                        "gas" : 0,
                        "value" : 1
                    },
                    "hash" : "0xf596ecbf1b96203f61d93a1de40ca21a3baf4684868e07eaf57c596364f9b620",
                    "txbytes" : "0xf880800a83051c9894100000000000000000000000000000000000000064a000000000000000000000000030000000000000000000000000000000000000011ba04a0fa3a5308cf43770f27151e77f84d282694bb8f7e7f891bb46aae4dcad2dfda06bb069a54b0cd0979e7b25241b6b8b3bae9b0fd9353b8200ed4fbd8c0c2258d6",
                    "logs" : "0x1dcc4de8dec75d7aab85b567b6ccd41ad312451b948a7413f0a142fd40d49347"
                },
                {
                    "indexes" : {
                        "data" : 3,
                        "gas" : 0,
                        "value" : 0
                    },
                    "hash" : "0x342adc06b1128d2514564b059f3d591f1988788d8da9cb718827bf5f90b65565",
                    "txbytes" : "0xf880800a83051c9894100000000000000000000000000000000000000080a000000000000000000000000040000000000000000000000000000000000000011ba0142345b4b42112def12fe6c6048f5d1c10c2ea6ac886e80b390a4c837c893839a01d618ca015abd09841542496e6443465ed926645c2e3d8e9727c2018cf5190a7",
                    "logs" : "0x1dcc4de8dec75d7aab85b567b6ccd41ad312451b948a7413f0a142fd40d49347"
                },
                {
                    "indexes" : {
                        "data" : 3,
                        "gas" : 0,
                        "value" : 1
                    },
                    "hash" : "0xfb9babe517794529493e92d21fe4e12b28de8b1f7174c3e5558ab2433a2577dd",
                    "txbytes" : "0xf880800a83051c9894100000000000000000000000000000000000000064a000000000000000000000000040000000000000000000000000000000000000011ca0a1678aeb2fd208b0f6a014ca3b9878ea61dd790ca712eae0e62936aaea24ae81a0483da10f2fa1266b2b160eb39d9f5169abd1171630b248df1b76d2f6e951d508",
                    "logs" : "0x1dcc4de8dec75d7aab85b567b6ccd41ad312451b948a7413f0a142fd40d49347"
                },
                {
                    "indexes" : {
                        "data" : 4,
                        "gas" : 0,
                        "value" : 0
                    },
                    "hash" : "0xa6ff9f082efea30bfb11c2f3458b16ee93aeb35e742c4000d1695a4794314be0",
                    "txbytes" : "0xf880800a83051c9894100000000000000000000000000000000000000080a000000000000000000000000050000000000000000000000000000000000000011ba02416ec592644e6b766e889be391dc08d4673a76b35448fa1f8fd222372dc5a4ea01ff3272ca0aed9e8a9968cae53c4900ba598f264e5d7d0c8b27b406cee5860c7",
                    "logs" : "0x1dcc4de8dec75d7aab85b567b6ccd41ad312451b948a7413f0a142fd40d49347"
                },
                {
                    "indexes" : {
                        "data" : 4,
                        "gas" : 0,
                        "value" : 1
                    },
                    "hash" : "0x21fb9fd499d093f8d0bbbe767bcb9dcea36c04c2f45bb6dcc2f4448335f49feb",
                    "txbytes" : "0xf880800a83051c9894100000000000000000000000000000000000000064a000000000000000000000000050000000000000000000000000000000000000011ca0756b93cbbaeed76072f6d01eb844882cb2acca947784a6c2b3e24710a636bb9da03987bd279210b9179692f1c28cf971801de3ebf59b5043aa3fa8beb103d19647",
                    "logs" : "0x1dcc4de8dec75d7aab85b567b6ccd41ad312451b948a7413f0a142fd40d49347"
                },
                {
                    "indexes" : {
                        "data" : 1,
                        "gas" : 0,
                        "value" : 0
                    },
                    "hash" : "0x929099d8778ac47822ab446a2f11044b70d4c30bed4227c3bfadec219caabbaa",
                    "txbytes" : "0xf880800a83051c9894100000000000000000000000000000000000000080a000000000000000000000000020000000000000000000000000000000000000011ca04e2e63a9929b38875b448be8e2a475781cc67e554ee4578a28df0895c46c8bb0a04a7c671d0e8f0ac6195d59390a679a6b87f2cf1f687d08bb2f71a5027e5cf20c",
                    "logs" : "0x1dcc4de8dec75d7aab85b567b6ccd41ad312451b948a7413f0a142fd40d49347"
                },
                {
                    "indexes" : {
                        "data" : 1,
                        "gas" : 0,
                        "value" : 1
                    },
                    "hash" : "0xb4e6bea4c58ed228d9234d07cef2a173163aeccebec4b1628ee79f318cd53878",
                    "txbytes" : "0xf880800a83051c9894100000000000000000000000000000000000000064a000000000000000000000000020000000000000000000000000000000000000011ca04087076b3a23a6b523381e41e9aebc4ccf47c08151ad9c25325e1b2346af8b5ba0475b98aa14ef2157a1e5c5e9290476ac1a3e559da5b04b829dc2f0106f00a0a8",
                    "logs" : "0x1dcc4de8dec75d7aab85b567b6ccd41ad312451b948a7413f0a142fd40d49347"
                }
            ],
            "Istanbul" : [
                {
                    "indexes" : {
                        "data" : 0,
                        "gas" : 0,
                        "value" : 0
                    },
                    "hash" : "0x9fcc380d33eea87e4befa28136a14d902e2de1e1bb41061e0c4547365116e3c0",
                    "txbytes" : "0xf880800a83051c9894100000000000000000000000000000000000000080a000000000000000000000000010000000000000000000000000000000000000011ca04a3f429fcd0277a0f1ef5c4931ec78c08c652bed01d2f35852f8ee017308131fa042345097a1d3131559e4f4c2f533826f44b03ae8328ea46790867a3e1bc72c55",
                    "logs" : "0x1dcc4de8dec75d7aab85b567b6ccd41ad312451b948a7413f0a142fd40d49347"
                },
                {
                    "indexes" : {
                        "data" : 0,
                        "gas" : 0,
                        "value" : 1
                    },
                    "hash" : "0x0ecb94930a7a71e75c75233b93c6876d1e28de532bdf24dc840a0f573f7c91bf",
                    "txbytes" : "0xf880800a83051c9894100000000000000000000000000000000000000064a000000000000000000000000010000000000000000000000000000000000000011ba0861bbbf3944ba5d6363326fa71e9f2a9a18642011d2826a5b62e0aeb2073ac1ba00cf5ad0ec7bbf0779203bfd2703d254432fac642f2aedab16958a3f46b2a781a",
                    "logs" : "0x1dcc4de8dec75d7aab85b567b6ccd41ad312451b948a7413f0a142fd40d49347"
                },
                {
                    "indexes" : {
                        "data" : 2,
                        "gas" : 0,
                        "value" : 0
                    },
                    "hash" : "0x2ce13ef4b29600333a14799239e59c270f636836c80ec5d36c607d59d8756a96",
                    "txbytes" : "0xf880800a83051c9894100000000000000000000000000000000000000080a000000000000000000000000030000000000000000000000000000000000000011ba01f08cfd670f24de23648a701c8c8279a01afba9ce0dcba460b2c44ad0341d48da06df490de0634cb39d61337b507656f843620d96db7adf145d4bc6e3c3aedd906",
                    "logs" : "0x1dcc4de8dec75d7aab85b567b6ccd41ad312451b948a7413f0a142fd40d49347"
                },
                {
                    "indexes" : {
                        "data" : 2,
                        "gas" : 0,
                        "value" : 1
                    },
                    "hash" : "0x3d02a287e91ab1753e792d007fbb6687186b10794ec17dfc70ddb406a345a659",
                    "txbytes" : "0xf880800a83051c9894100000000000000000000000000000000000000064a000000000000000000000000030000000000000000000000000000000000000011ba04a0fa3a5308cf43770f27151e77f84d282694bb8f7e7f891bb46aae4dcad2dfda06bb069a54b0cd0979e7b25241b6b8b3bae9b0fd9353b8200ed4fbd8c0c2258d6",
                    "logs" : "0x1dcc4de8dec75d7aab85b567b6ccd41ad312451b948a7413f0a142fd40d49347"
                },
                {
                    "indexes" : {
                        "data" : 3,
                        "gas" : 0,
                        "value" : 0
                    },
                    "hash" : "0xf60b5e3375cd087dbc2f4a644cddcecc8397afd990b6d9b2bab8ab6aa5fe5d7d",
                    "txbytes" : "0xf880800a83051c9894100000000000000000000000000000000000000080a000000000000000000000000040000000000000000000000000000000000000011ba0142345b4b42112def12fe6c6048f5d1c10c2ea6ac886e80b390a4c837c893839a01d618ca015abd09841542496e6443465ed926645c2e3d8e9727c2018cf5190a7",
                    "logs" : "0x1dcc4de8dec75d7aab85b567b6ccd41ad312451b948a7413f0a142fd40d49347"
                },
                {
                    "indexes" : {
                        "data" : 3,
                        "gas" : 0,
                        "value" : 1
                    },
                    "hash" : "0x189a381dc6268c82fc644bc60652fd3e8088c9f7988d0c8c0b1684d73d90269e",
                    "txbytes" : "0xf880800a83051c9894100000000000000000000000000000000000000064a000000000000000000000000040000000000000000000000000000000000000011ca0a1678aeb2fd208b0f6a014ca3b9878ea61dd790ca712eae0e62936aaea24ae81a0483da10f2fa1266b2b160eb39d9f5169abd1171630b248df1b76d2f6e951d508",
                    "logs" : "0x1dcc4de8dec75d7aab85b567b6ccd41ad312451b948a7413f0a142fd40d49347"
                },
                {
                    "indexes" : {
                        "data" : 4,
                        "gas" : 0,
                        "value" : 0
                    },
                    "hash" : "0xe79dafd2ae66d0e5eaf4c512a83783188973cc56fda06e5bf023d38a2e775dca",
                    "txbytes" : "0xf880800a83051c9894100000000000000000000000000000000000000080a000000000000000000000000050000000000000000000000000000000000000011ba02416ec592644e6b766e889be391dc08d4673a76b35448fa1f8fd222372dc5a4ea01ff3272ca0aed9e8a9968cae53c4900ba598f264e5d7d0c8b27b406cee5860c7",
                    "logs" : "0x1dcc4de8dec75d7aab85b567b6ccd41ad312451b948a7413f0a142fd40d49347"
                },
                {
                    "indexes" : {
                        "data" : 4,
                        "gas" : 0,
                        "value" : 1
                    },
                    "hash" : "0x010cb82fe1143d9674e79fa138ad39a210e8b43a87185896596bcff4e6131a7c",
                    "txbytes" : "0xf880800a83051c9894100000000000000000000000000000000000000064a000000000000000000000000050000000000000000000000000000000000000011ca0756b93cbbaeed76072f6d01eb844882cb2acca947784a6c2b3e24710a636bb9da03987bd279210b9179692f1c28cf971801de3ebf59b5043aa3fa8beb103d19647",
                    "logs" : "0x1dcc4de8dec75d7aab85b567b6ccd41ad312451b948a7413f0a142fd40d49347"
                },
                {
                    "indexes" : {
                        "data" : 1,
                        "gas" : 0,
                        "value" : 0
                    },
                    "hash" : "0x95330c8da178ed1510a83c9fb7c152de9169d9eeba903b3680e8ddbd9b94f89c",
                    "txbytes" : "0xf880800a83051c9894100000000000000000000000000000000000000080a000000000000000000000000020000000000000000000000000000000000000011ca04e2e63a9929b38875b448be8e2a475781cc67e554ee4578a28df0895c46c8bb0a04a7c671d0e8f0ac6195d59390a679a6b87f2cf1f687d08bb2f71a5027e5cf20c",
                    "logs" : "0x1dcc4de8dec75d7aab85b567b6ccd41ad312451b948a7413f0a142fd40d49347"
                },
                {
                    "indexes" : {
                        "data" : 1,
                        "gas" : 0,
                        "value" : 1
                    },
                    "hash" : "0xa803510ba5a9f8201ca8dd2e00fcc9709fc0b586154d1522e568e19cfc9231f7",
                    "txbytes" : "0xf880800a83051c9894100000000000000000000000000000000000000064a000000000000000000000000020000000000000000000000000000000000000011ca04087076b3a23a6b523381e41e9aebc4ccf47c08151ad9c25325e1b2346af8b5ba0475b98aa14ef2157a1e5c5e9290476ac1a3e559da5b04b829dc2f0106f00a0a8",
                    "logs" : "0x1dcc4de8dec75d7aab85b567b6ccd41ad312451b948a7413f0a142fd40d49347"
                }
            ],
            "London" : [
                {
                    "indexes" : {
                        "data" : 0,
                        "gas" : 0,
                        "value" : 0
                    },
                    "hash" : "0x8c94edda09dc3a22f3315c379ff0fb97be7abd6a71162334a41575a97e7403c4",
                    "txbytes" : "0xf880800a83051c9894100000000000000000000000000000000000000080a000000000000000000000000010000000000000000000000000000000000000011ca04a3f429fcd0277a0f1ef5c4931ec78c08c652bed01d2f35852f8ee017308131fa042345097a1d3131559e4f4c2f533826f44b03ae8328ea46790867a3e1bc72c55",
                    "logs" : "0x1dcc4de8dec75d7aab85b567b6ccd41ad312451b948a7413f0a142fd40d49347"
                },
                {
                    "indexes" : {
                        "data" : 0,
                        "gas" : 0,
                        "value" : 1
                    },
                    "hash" : "0xafa3c2b2e7a230c25b5db1a33edbebb485c39508934f6d6c6bd7f37c28ef31db",
                    "txbytes" : "0xf880800a83051c9894100000000000000000000000000000000000000064a000000000000000000000000010000000000000000000000000000000000000011ba0861bbbf3944ba5d6363326fa71e9f2a9a18642011d2826a5b62e0aeb2073ac1ba00cf5ad0ec7bbf0779203bfd2703d254432fac642f2aedab16958a3f46b2a781a",
                    "logs" : "0x1dcc4de8dec75d7aab85b567b6ccd41ad312451b948a7413f0a142fd40d49347"
                },
                {
                    "indexes" : {
                        "data" : 2,
                        "gas" : 0,
                        "value" : 0
                    },
                    "hash" : "0x52976a9d82f65a29ce53091fefd8668ba37a3d655040c3124e2fa05de0a555bf",
                    "txbytes" : "0xf880800a83051c9894100000000000000000000000000000000000000080a000000000000000000000000030000000000000000000000000000000000000011ba01f08cfd670f24de23648a701c8c8279a01afba9ce0dcba460b2c44ad0341d48da06df490de0634cb39d61337b507656f843620d96db7adf145d4bc6e3c3aedd906",
                    "logs" : "0x1dcc4de8dec75d7aab85b567b6ccd41ad312451b948a7413f0a142fd40d49347"
                },
                {
                    "indexes" : {
                        "data" : 2,
                        "gas" : 0,
                        "value" : 1
                    },
                    "hash" : "0xe585a1e5a1cffb5dae4f5ad6a54c1a639e68aa7c96b00638224c7669383b0d72",
                    "txbytes" : "0xf880800a83051c9894100000000000000000000000000000000000000064a000000000000000000000000030000000000000000000000000000000000000011ba04a0fa3a5308cf43770f27151e77f84d282694bb8f7e7f891bb46aae4dcad2dfda06bb069a54b0cd0979e7b25241b6b8b3bae9b0fd9353b8200ed4fbd8c0c2258d6",
                    "logs" : "0x1dcc4de8dec75d7aab85b567b6ccd41ad312451b948a7413f0a142fd40d49347"
                },
                {
                    "indexes" : {
                        "data" : 3,
                        "gas" : 0,
                        "value" : 0
                    },
                    "hash" : "0x7cb5a5946a7d1b957719300f58906acc515cf7c584bb061f34fc940a68e20925",
                    "txbytes" : "0xf880800a83051c9894100000000000000000000000000000000000000080a000000000000000000000000040000000000000000000000000000000000000011ba0142345b4b42112def12fe6c6048f5d1c10c2ea6ac886e80b390a4c837c893839a01d618ca015abd09841542496e6443465ed926645c2e3d8e9727c2018cf5190a7",
                    "logs" : "0x1dcc4de8dec75d7aab85b567b6ccd41ad312451b948a7413f0a142fd40d49347"
                },
                {
                    "indexes" : {
                        "data" : 3,
                        "gas" : 0,
                        "value" : 1
                    },
                    "hash" : "0x756e0a4550867b29f3dabee6cfb2b35a9bd33eb77050ec38c27d55d3a50401c9",
                    "txbytes" : "0xf880800a83051c9894100000000000000000000000000000000000000064a000000000000000000000000040000000000000000000000000000000000000011ca0a1678aeb2fd208b0f6a014ca3b9878ea61dd790ca712eae0e62936aaea24ae81a0483da10f2fa1266b2b160eb39d9f5169abd1171630b248df1b76d2f6e951d508",
                    "logs" : "0x1dcc4de8dec75d7aab85b567b6ccd41ad312451b948a7413f0a142fd40d49347"
                },
                {
                    "indexes" : {
                        "data" : 4,
                        "gas" : 0,
                        "value" : 0
                    },
                    "hash" : "0xa834075eed32db7a46e1ec435d515e4e87ad829e0c9d846e96d866ef4c522fc8",
                    "txbytes" : "0xf880800a83051c9894100000000000000000000000000000000000000080a000000000000000000000000050000000000000000000000000000000000000011ba02416ec592644e6b766e889be391dc08d4673a76b35448fa1f8fd222372dc5a4ea01ff3272ca0aed9e8a9968cae53c4900ba598f264e5d7d0c8b27b406cee5860c7",
                    "logs" : "0x1dcc4de8dec75d7aab85b567b6ccd41ad312451b948a7413f0a142fd40d49347"
                },
                {
                    "indexes" : {
                        "data" : 4,
                        "gas" : 0,
                        "value" : 1
                    },
                    "hash" : "0x110dba22ce002e67ac2b9cabcdea5b25ff892b923951bb51038c7f1ad34f2bc8",
                    "txbytes" : "0xf880800a83051c9894100000000000000000000000000000000000000064a000000000000000000000000050000000000000000000000000000000000000011ca0756b93cbbaeed76072f6d01eb844882cb2acca947784a6c2b3e24710a636bb9da03987bd279210b9179692f1c28cf971801de3ebf59b5043aa3fa8beb103d19647",
                    "logs" : "0x1dcc4de8dec75d7aab85b567b6ccd41ad312451b948a7413f0a142fd40d49347"
                },
                {
                    "indexes" : {
                        "data" : 1,
                        "gas" : 0,
                        "value" : 0
                    },
                    "hash" : "0x49b14be5d6313da66a195fc59ba7dd14866582343bb7a9fa4e88c72155af4731",
                    "txbytes" : "0xf880800a83051c9894100000000000000000000000000000000000000080a000000000000000000000000020000000000000000000000000000000000000011ca04e2e63a9929b38875b448be8e2a475781cc67e554ee4578a28df0895c46c8bb0a04a7c671d0e8f0ac6195d59390a679a6b87f2cf1f687d08bb2f71a5027e5cf20c",
                    "logs" : "0x1dcc4de8dec75d7aab85b567b6ccd41ad312451b948a7413f0a142fd40d49347"
                },
                {
                    "indexes" : {
                        "data" : 1,
                        "gas" : 0,
                        "value" : 1
                    },
                    "hash" : "0x39690e8b43ddcbe9f4a3644f1c8e26ee0bd94dc3a105e685fbfb0b24fa8d18cb",
                    "txbytes" : "0xf880800a83051c9894100000000000000000000000000000000000000064a000000000000000000000000020000000000000000000000000000000000000011ca04087076b3a23a6b523381e41e9aebc4ccf47c08151ad9c25325e1b2346af8b5ba0475b98aa14ef2157a1e5c5e9290476ac1a3e559da5b04b829dc2f0106f00a0a8",
                    "logs" : "0x1dcc4de8dec75d7aab85b567b6ccd41ad312451b948a7413f0a142fd40d49347"
                }
            ]
        },
        "pre" : {
            "0x1000000000000000000000000000000000000000" : {
                "balance" : "0x00",
                "code" : "0x6000600060006000600035620186a0fa60015500",
                "nonce" : "0x00",
                "storage" : {
                }
            },
            "0x1000000000000000000000000000000000000001" : {
                "balance" : "0x0a",
                "code" : "0x73a1000000000000000000000000000000000000016000526000600060206000600073b000000000000000000000000000000000000001620186a0f160005260005160011460505760026001556056565b60016001525b00",
                "nonce" : "0x00",
                "storage" : {
                }
            },
            "0x2000000000000000000000000000000000000001" : {
                "balance" : "0x0a",
                "code" : "0x73a1000000000000000000000000000000000000016000526000600060206000600173b000000000000000000000000000000000000001620186a0f16000526001600152600160025200",
                "nonce" : "0x00",
                "storage" : {
                }
            },
            "0x3000000000000000000000000000000000000001" : {
                "balance" : "0x0a",
                "code" : "0x73a3000000000000000000000000000000000000016020526000600060406020600073b000000000000000000000000000000000000001620186a0f260005260005160011460505760026001556056565b60016001525b00",
                "nonce" : "0x00",
                "storage" : {
                }
            },
            "0x4000000000000000000000000000000000000001" : {
                "balance" : "0x0a",
                "code" : "0x73a4000000000000000000000000000000000000016000526000600060206000600173b000000000000000000000000000000000000001620186a0f260005260005160011460505760026001556056565b60016001525b00",
                "nonce" : "0x00",
                "storage" : {
                }
            },
            "0x5000000000000000000000000000000000000001" : {
                "balance" : "0x0a",
                "code" : "0x73a500000000000000000000000000000000000001600052600060006020600073b000000000000000000000000000000000000001620186a0f4600052600051600114604e5760026001556054565b60016001525b00",
                "nonce" : "0x00",
                "storage" : {
                }
            },
            "0xa100000000000000000000000000000000000001" : {
                "balance" : "0x00",
                "code" : "0x3273a94f5374fce5edbc8e2a8697c15331677e6ebf0b1460225760026001556028565b60016001525b3373b00000000000000000000000000000000000000114604b5760026001556051565b60016001525b3073a100000000000000000000000000000000000001146074576002600155607a565b60016001525b34600014608a5760026001556090565b60016001525b00",
                "nonce" : "0x00",
                "storage" : {
                }
            },
            "0xa200000000000000000000000000000000000001" : {
                "balance" : "0x00",
                "code" : "0x3273a94f5374fce5edbc8e2a8697c15331677e6ebf0b1460225760026001556028565b60016001525b3373200000000000000000000000000000000000000114604b5760026001556051565b60016001525b3073a200000000000000000000000000000000000001146074576002600155607a565b60016001525b34600114608a5760026001556090565b60016001525b00",
                "nonce" : "0x00",
                "storage" : {
                }
            },
            "0xa300000000000000000000000000000000000001" : {
                "balance" : "0x00",
                "code" : "0x3273a94f5374fce5edbc8e2a8697c15331677e6ebf0b1460225760026001556028565b60016001525b3373300000000000000000000000000000000000000114604b5760026001556051565b60016001525b3073a300000000000000000000000000000000000001146074576002600155607a565b60016001525b34600014608a5760026001556090565b60016001525b00",
                "nonce" : "0x00",
                "storage" : {
                }
            },
            "0xa400000000000000000000000000000000000001" : {
                "balance" : "0x00",
                "code" : "0x3273a94f5374fce5edbc8e2a8697c15331677e6ebf0b1460225760026001556028565b60016001525b3373400000000000000000000000000000000000000114604b5760026001556051565b60016001525b3073a400000000000000000000000000000000000001146074576002600155607a565b60016001525b34600014608a5760026001556090565b60016001525b00",
                "nonce" : "0x00",
                "storage" : {
                }
            },
            "0xa500000000000000000000000000000000000001" : {
                "balance" : "0x00",
                "code" : "0x3273a94f5374fce5edbc8e2a8697c15331677e6ebf0b1460225760026001556028565b60016001525b3373500000000000000000000000000000000000000114604b5760026001556051565b60016001525b3073a500000000000000000000000000000000000001146074576002600155607a565b60016001525b34600014608a5760026001556090565b60016001525b00",
                "nonce" : "0x00",
                "storage" : {
                }
            },
            "0xa94f5374fce5edbc8e2a8697c15331677e6ebf0b" : {
                "balance" : "0xe8d4a51000",
                "code" : "0x",
                "nonce" : "0x00",
                "storage" : {
                }
            },
            "0xb000000000000000000000000000000000000001" : {
                "balance" : "0x00",
                "code" : "0x6000600060006000600035620186a0fa6000526000516001146024576002600155602a565b60016001525b00",
                "nonce" : "0x00",
                "storage" : {
                }
            }
        },
        "transaction" : {
            "data" : [
                "0x0000000000000000000000001000000000000000000000000000000000000001",
                "0x0000000000000000000000002000000000000000000000000000000000000001",
                "0x0000000000000000000000003000000000000000000000000000000000000001",
                "0x0000000000000000000000004000000000000000000000000000000000000001",
                "0x0000000000000000000000005000000000000000000000000000000000000001"
            ],
            "gasPrice" : "0x0a",
            "gasLimit" : [
                "0x051c98"
            ],
            "nonce" : "0x00",
            "secretKey" : "0x45a915e4d060149eb4365960e6a7a45f334393093061116b197e3240065ff2d8",
            "to" : "0x1000000000000000000000000000000000000000",
            "value" : [
                "0x00",
                "0x64"
            ]
        }
    }
}