{
    "static_ZeroValue_CALL_OOGRevert" : {
        "_info" : {
            "comment" : "",
            "filling-rpc-server" : "evm version 1.10.4-unstable-966ee3ae-20210528",
            "filling-tool-version" : "retesteth-0.1.1-eip1559+commit.658fc3a8.Linux.g++",
            "lllcversion" : "Version: 0.5.14-develop.2021.5.18+commit.14c9d5de.mod.Linux.g++",
            "source" : "src/GeneralStateTestsFiller/stStaticCall/static_ZeroValue_CALL_OOGRevertFiller.json",
            "sourceHash" : "cbc3b32f0f469d009ab352afecbeed9941b2496a8060e10c78098a018f7f3625"
        },
        "env" : {
            "currentCoinbase" : "0x2adc25665018aa1fe0e6bc666dac8fc2697ff9ba",
            "currentDifficulty" : "0x020000",
            "currentNumber" : "0x01",
            "currentTimestamp" : "0x03e8",
            "previousHash" : "0x5e20a0453cecd065ea59c37ac63e079ee08998b6045136a8ce6635c7912ec0b6",
            "currentGasLimit" : "0x989680"
        },
        "post" : {
            "Berlin" : [
                {
                    "indexes" : {
                        "data" : 0,
                        "gas" : 0,
                        "value" : 0
                    },
                    "hash" : "0x8651f227a3562f84726d42f3f9f5fd47fbc1588f7a2dd40627bbf6de76766cab",
                    "txbytes" : "0xf860800a8314997094b94f5374fce5edbc8e2a8697c15331677e6ebf0b80801ba04f2915c3577ba8a96ce7dc3bee3c6e43cc9804eb3b6a4ce452ba8486853fd13aa02a0a61c56004d161d692a9ae7f021d4b33c5db235c90b8cecbd0dfba98b5954c",
                    "logs" : "0x1dcc4de8dec75d7aab85b567b6ccd41ad312451b948a7413f0a142fd40d49347"
                }
            ],
            "Istanbul" : [
                {
                    "indexes" : {
                        "data" : 0,
                        "gas" : 0,
                        "value" : 0
                    },
                    "hash" : "0x8651f227a3562f84726d42f3f9f5fd47fbc1588f7a2dd40627bbf6de76766cab",
                    "txbytes" : "0xf860800a8314997094b94f5374fce5edbc8e2a8697c15331677e6ebf0b80801ba04f2915c3577ba8a96ce7dc3bee3c6e43cc9804eb3b6a4ce452ba8486853fd13aa02a0a61c56004d161d692a9ae7f021d4b33c5db235c90b8cecbd0dfba98b5954c",
                    "logs" : "0x1dcc4de8dec75d7aab85b567b6ccd41ad312451b948a7413f0a142fd40d49347"
                }
            ],
            "London" : [
                {
                    "indexes" : {
                        "data" : 0,
                        "gas" : 0,
                        "value" : 0
                    },
                    "hash" : "0x1196805c4700fc1e0625f0d5e1e6b42b1ff2d39e69b1de9449a994964aabc817",
                    "txbytes" : "0xf860800a8314997094b94f5374fce5edbc8e2a8697c15331677e6ebf0b80801ba04f2915c3577ba8a96ce7dc3bee3c6e43cc9804eb3b6a4ce452ba8486853fd13aa02a0a61c56004d161d692a9ae7f021d4b33c5db235c90b8cecbd0dfba98b5954c",
                    "logs" : "0x1dcc4de8dec75d7aab85b567b6ccd41ad312451b948a7413f0a142fd40d49347"
                }
            ]
        },
        "pre" : {
            "0xa94f5374fce5edbc8e2a8697c15331677e6ebf0b" : {
                "balance" : "0xe8d4a51000",
                "code" : "0x",
                "nonce" : "0x00",
                "storage" : {
                }
            },
            "0xb94f5374fce5edbc8e2a8697c15331677e6ebf0b" : {
                "balance" : "0x00",
                "code" : "0x5a600055600060006000600073c94f5374fce5edbc8e2a8697c15331677e6ebf0b61ea60fa600155622fffff600020505a60645500",
                "nonce" : "0x00",
                "storage" : {
                }
            }
        },
        "transaction" : {
            "data" : [
                "0x"
            ],
            "gasPrice" : "0x0a",
            "gasLimit" : [
                "0x149970"
            ],
            "nonce" : "0x00",
            "secretKey" : "0x45a915e4d060149eb4365960e6a7a45f334393093061116b197e3240065ff2d8",
            "to" : "0xb94f5374fce5edbc8e2a8697c15331677e6ebf0b",
            "value" : [
                "0x00"
            ]
        }
    }
}