{
    "static_CallRecursiveBombPreCall2" : {
        "_info" : {
            "comment" : "",
            "filling-rpc-server" : "evm version 1.10.4-unstable-966ee3ae-20210528",
            "filling-tool-version" : "retesteth-0.1.1-eip1559+commit.658fc3a8.Linux.g++",
            "lllcversion" : "Version: 0.5.14-develop.2021.5.18+commit.14c9d5de.mod.Linux.g++",
            "source" : "src/GeneralStateTestsFiller/stStaticCall/static_CallRecursiveBombPreCall2Filler.json",
            "sourceHash" : "0a6222bf1fbe2a66755fd2445bfde6cd6b4426be1c53503f9cd81d7e4fefb6ef"
        },
        "env" : {
            "currentCoinbase" : "0x2adc25665018aa1fe0e6bc666dac8fc2697ff9ba",
            "currentDifficulty" : "0x020000",
            "currentNumber" : "0x01",
            "currentTimestamp" : "0x03e8",
            "previousHash" : "0x5e20a0453cecd065ea59c37ac63e079ee08998b6045136a8ce6635c7912ec0b6",
            "currentGasLimit" : "0x7fffffffffffffff"
        },
        "post" : {
            "Berlin" : [
                {
                    "indexes" : {
                        "data" : 0,
                        "gas" : 0,
                        "value" : 0
                    },
                    "hash" : "0x3d4729ffa8ba3d5ab30d9538f84421493f7472cc0d2ef1dbce83a7d5bd68c23f",
                    "txbytes" : "0xf865800a887fe000000000000194095e7baea6a6c7c4c2dfeb977efac326af552d8780801ca0364f82f35c1de49c8240f79a50728a2c6205b7b7fc8e479276023b5e2c759ff6a07cf0e565dd02a05bf2a5aafd5b9bd1089de60d06e54c46c1b8d8169dcc513b60",
                    "logs" : "0x1dcc4de8dec75d7aab85b567b6ccd41ad312451b948a7413f0a142fd40d49347"
                }
            ],
            "Istanbul" : [
                {
                    "indexes" : {
                        "data" : 0,
                        "gas" : 0,
                        "value" : 0
                    },
                    "hash" : "0xd810a94fe55fe088f4ea7dd1e4f8ca8e7c02af92c3af0e9737fd126ee9b7abd1",
                    "txbytes" : "0xf865800a887fe000000000000194095e7baea6a6c7c4c2dfeb977efac326af552d8780801ca0364f82f35c1de49c8240f79a50728a2c6205b7b7fc8e479276023b5e2c759ff6a07cf0e565dd02a05bf2a5aafd5b9bd1089de60d06e54c46c1b8d8169dcc513b60",
                    "logs" : "0x1dcc4de8dec75d7aab85b567b6ccd41ad312451b948a7413f0a142fd40d49347"
                }
            ],
            "London" : [
                {
                    "indexes" : {
                        "data" : 0,
                        "gas" : 0,
                        "value" : 0
                    },
                    "hash" : "0x69f780ad32855c1e6159b4c55883f9be4d241a010da45a50681a6c348dee7298",
                    "txbytes" : "0xf865800a887fe000000000000194095e7baea6a6c7c4c2dfeb977efac326af552d8780801ca0364f82f35c1de49c8240f79a50728a2c6205b7b7fc8e479276023b5e2c759ff6a07cf0e565dd02a05bf2a5aafd5b9bd1089de60d06e54c46c1b8d8169dcc513b60",
                    "logs" : "0x1dcc4de8dec75d7aab85b567b6ccd41ad312451b948a7413f0a142fd40d49347"
                }
            ]
        },
        "pre" : {
            "0x095e7baea6a6c7c4c2dfeb977efac326af552d87" : {
                "balance" : "0x0fffffffffffffffffffffffffffffff",
                "code" : "0x600060006000600073bad304eb96065b2a98b57a48a06ae28d285a71b5620186a0fa50600060006000600073945304eb96065b2a98b57a48a06ae28d285a71b56707fffffffffffffffa600055600160015500",
                "nonce" : "0x00",
                "storage" : {
                }
            },
            "0x945304eb96065b2a98b57a48a06ae28d285a71b5" : {
                "balance" : "0x0de0b6b3a7640000",
                "code" : "0x60016000510160005260006000600060003062036b005a03fa00",
                "nonce" : "0x00",
                "storage" : {
                }
            },
            "0xa94f5374fce5edbc8e2a8697c15331677e6ebf0b" : {
                "balance" : "0x0fffffffffffffffffffffffffffffff",
                "code" : "0x",
                "nonce" : "0x00",
                "storage" : {
                }
            }
        },
        "transaction" : {
            "data" : [
                "0x"
            ],
            "gasPrice" : "0x0a",
            "gasLimit" : [
                "0x7fe0000000000001"
            ],
            "nonce" : "0x00",
            "secretKey" : "0x45a915e4d060149eb4365960e6a7a45f334393093061116b197e3240065ff2d8",
            "to" : "0x095e7baea6a6c7c4c2dfeb977efac326af552d87",
            "value" : [
                "0x00"
            ]
        }
    }
}