{
    "static_callCreate" : {
        "_info" : {
            "comment" : "",
            "filling-rpc-server" : "evm version 1.10.4-unstable-966ee3ae-20210528",
            "filling-tool-version" : "retesteth-0.1.1-eip1559+commit.658fc3a8.Linux.g++",
            "lllcversion" : "Version: 0.5.14-develop.2021.5.18+commit.14c9d5de.mod.Linux.g++",
            "source" : "src/GeneralStateTestsFiller/stStaticCall/static_callCreateFiller.json",
            "sourceHash" : "09c66894832f78834b4fd1af9aa4a720ca6126e5e2c00f37297174b81bf7828b"
        },
        "env" : {
            "currentCoinbase" : "0x2adc25665018aa1fe0e6bc666dac8fc2697ff9ba",
            "currentDifficulty" : "0x020000",
            "currentNumber" : "0x01",
            "currentTimestamp" : "0x03e8",
            "previousHash" : "0x5e20a0453cecd065ea59c37ac63e079ee08998b6045136a8ce6635c7912ec0b6",
            "currentGasLimit" : "0x989680"
        },
        "post" : {
            "Berlin" : [
                {
                    "indexes" : {
                        "data" : 0,
                        "gas" : 0,
                        "value" : 0
                    },
                    "hash" : "0x67f665faa04224f920cce3fdbc519ffb5007c29c3b7496b69454a37f740d45e7",
                    "txbytes" : "0xf882800a830f4240941000000000000000000000000000000000000000830186a0a000000000000000000000000010000000000000000000000000000000000000011ca0514e6d57b27c36a1adf5890b29f2022eb31ca22c9caf7ec23173cce0e205b1fa9f2b4089c9e9eb460c07d87a38b69fb5ee99cc7fdf6b3a4da9b485c0ba654a5b",
                    "logs" : "0x1dcc4de8dec75d7aab85b567b6ccd41ad312451b948a7413f0a142fd40d49347"
                },
                {
                    "indexes" : {
                        "data" : 2,
                        "gas" : 0,
                        "value" : 0
                    },
                    "hash" : "0xffa6f78eeee91cda755f9538c15f4883573850af394fd798fd8db442eeedeff8",
                    "txbytes" : "0xf883800a830f4240941000000000000000000000000000000000000000830186a0a000000000000000000000000010000000000000000000000000000000000000031ba06bdd77330496339693751e9305ae7695fe274e72ad2450532f7f60a8c45ebeb4a0541cfd67e180492a0ca5f8272bdde9a239db8950be5954b90822be7b362f2637",
                    "logs" : "0x1dcc4de8dec75d7aab85b567b6ccd41ad312451b948a7413f0a142fd40d49347"
                },
                {
                    "indexes" : {
                        "data" : 3,
                        "gas" : 0,
                        "value" : 0
                    },
                    "hash" : "0xffa6f78eeee91cda755f9538c15f4883573850af394fd798fd8db442eeedeff8",
                    "txbytes" : "0xf883800a830f4240941000000000000000000000000000000000000000830186a0a000000000000000000000000010000000000000000000000000000000000000041ba0856611cf5e52fb801e04e673f3f74d36ac5a30f2a79e0e6daaf0bfdcb85b5ffba051732305ba41bc2ebabdaba4ec509d27b2939a5c8f8141a65d26be9c37e6d666",
                    "logs" : "0x1dcc4de8dec75d7aab85b567b6ccd41ad312451b948a7413f0a142fd40d49347"
                },
                {
                    "indexes" : {
                        "data" : 1,
                        "gas" : 0,
                        "value" : 0
                    },
                    "hash" : "0x191b57def28544393827858fd29127c3fc5eb1870f5cdc488066470870b03467",
                    "txbytes" : "0xf883800a830f4240941000000000000000000000000000000000000000830186a0a000000000000000000000000010000000000000000000000000000000000000021ca03b37c5591fddac206a7ccce34908e7ef2d67216140a5dc4d14bd86419ed443daa06e94719c8b134c3ad4350a8f16b086be08c4071bc3b4dbe46276cde10b1d510e",
                    "logs" : "0x1dcc4de8dec75d7aab85b567b6ccd41ad312451b948a7413f0a142fd40d49347"
                }
            ],
            "Istanbul" : [
                {
                    "indexes" : {
                        "data" : 0,
                        "gas" : 0,
                        "value" : 0
                    },
                    "hash" : "0x870f355fa3039e91e43830333c6377d14ffd221bb696d4ee5a616eea8ec3e69f",
                    "txbytes" : "0xf882800a830f4240941000000000000000000000000000000000000000830186a0a000000000000000000000000010000000000000000000000000000000000000011ca0514e6d57b27c36a1adf5890b29f2022eb31ca22c9caf7ec23173cce0e205b1fa9f2b4089c9e9eb460c07d87a38b69fb5ee99cc7fdf6b3a4da9b485c0ba654a5b",
                    "logs" : "0x1dcc4de8dec75d7aab85b567b6ccd41ad312451b948a7413f0a142fd40d49347"
                },
                {
                    "indexes" : {
                        "data" : 2,
                        "gas" : 0,
                        "value" : 0
                    },
                    "hash" : "0x34ee0e057af2b21af871d5ca6d31bdbcffc63ed2511e6fd3ca0d84a42a79ea9e",
                    "txbytes" : "0xf883800a830f4240941000000000000000000000000000000000000000830186a0a000000000000000000000000010000000000000000000000000000000000000031ba06bdd77330496339693751e9305ae7695fe274e72ad2450532f7f60a8c45ebeb4a0541cfd67e180492a0ca5f8272bdde9a239db8950be5954b90822be7b362f2637",
                    "logs" : "0x1dcc4de8dec75d7aab85b567b6ccd41ad312451b948a7413f0a142fd40d49347"
                },
                {
                    "indexes" : {
                        "data" : 3,
                        "gas" : 0,
                        "value" : 0
                    },
                    "hash" : "0x34ee0e057af2b21af871d5ca6d31bdbcffc63ed2511e6fd3ca0d84a42a79ea9e",
                    "txbytes" : "0xf883800a830f4240941000000000000000000000000000000000000000830186a0a000000000000000000000000010000000000000000000000000000000000000041ba0856611cf5e52fb801e04e673f3f74d36ac5a30f2a79e0e6daaf0bfdcb85b5ffba051732305ba41bc2ebabdaba4ec509d27b2939a5c8f8141a65d26be9c37e6d666",
                    "logs" : "0x1dcc4de8dec75d7aab85b567b6ccd41ad312451b948a7413f0a142fd40d49347"
                },
                {
                    "indexes" : {
                        "data" : 1,
                        "gas" : 0,
                        "value" : 0
                    },
                    "hash" : "0x8daecc12432364165c223c4c052c7a59df653523c081c10a7ac1387d9ec7d629",
                    "txbytes" : "0xf883800a830f4240941000000000000000000000000000000000000000830186a0a000000000000000000000000010000000000000000000000000000000000000021ca03b37c5591fddac206a7ccce34908e7ef2d67216140a5dc4d14bd86419ed443daa06e94719c8b134c3ad4350a8f16b086be08c4071bc3b4dbe46276cde10b1d510e",
                    "logs" : "0x1dcc4de8dec75d7aab85b567b6ccd41ad312451b948a7413f0a142fd40d49347"
                }
            ],
            "London" : [
                {
                    "indexes" : {
                        "data" : 0,
                        "gas" : 0,
                        "value" : 0
                    },
                    "hash" : "0x8d097ce9eadfba7320100e7396b890d451af7e3dad4fa0e15fbdda56a3063484",
                    "txbytes" : "0xf882800a830f4240941000000000000000000000000000000000000000830186a0a000000000000000000000000010000000000000000000000000000000000000011ca0514e6d57b27c36a1adf5890b29f2022eb31ca22c9caf7ec23173cce0e205b1fa9f2b4089c9e9eb460c07d87a38b69fb5ee99cc7fdf6b3a4da9b485c0ba654a5b",
                    "logs" : "0x1dcc4de8dec75d7aab85b567b6ccd41ad312451b948a7413f0a142fd40d49347"
                },
                {
                    "indexes" : {
                        "data" : 2,
                        "gas" : 0,
                        "value" : 0
                    },
                    "hash" : "0x6470bc3c3f229337615086c9843376897466c7c62284e658dbcdd0c2db50e1fe",
                    "txbytes" : "0xf883800a830f4240941000000000000000000000000000000000000000830186a0a000000000000000000000000010000000000000000000000000000000000000031ba06bdd77330496339693751e9305ae7695fe274e72ad2450532f7f60a8c45ebeb4a0541cfd67e180492a0ca5f8272bdde9a239db8950be5954b90822be7b362f2637",
                    "logs" : "0x1dcc4de8dec75d7aab85b567b6ccd41ad312451b948a7413f0a142fd40d49347"
                },
                {
                    "indexes" : {
                        "data" : 3,
                        "gas" : 0,
                        "value" : 0
                    },
                    "hash" : "0x6470bc3c3f229337615086c9843376897466c7c62284e658dbcdd0c2db50e1fe",
                    "txbytes" : "0xf883800a830f4240941000000000000000000000000000000000000000830186a0a000000000000000000000000010000000000000000000000000000000000000041ba0856611cf5e52fb801e04e673f3f74d36ac5a30f2a79e0e6daaf0bfdcb85b5ffba051732305ba41bc2ebabdaba4ec509d27b2939a5c8f8141a65d26be9c37e6d666",
                    "logs" : "0x1dcc4de8dec75d7aab85b567b6ccd41ad312451b948a7413f0a142fd40d49347"
                },
                {
                    "indexes" : {
                        "data" : 1,
                        "gas" : 0,
                        "value" : 0
                    },
                    "hash" : "0xf9a22bd15bc1c715963c0eac7f3a9505cf142f7ccb11a762f81301008c8b6959",
                    "txbytes" : "0xf883800a830f4240941000000000000000000000000000000000000000830186a0a000000000000000000000000010000000000000000000000000000000000000021ca03b37c5591fddac206a7ccce34908e7ef2d67216140a5dc4d14bd86419ed443daa06e94719c8b134c3ad4350a8f16b086be08c4071bc3b4dbe46276cde10b1d510e",
                    "logs" : "0x1dcc4de8dec75d7aab85b567b6ccd41ad312451b948a7413f0a142fd40d49347"
                }
            ]
        },
        "pre" : {
            "0x1000000000000000000000000000000000000000" : {
                "balance" : "0x0de0b6b3a7640000",
                "code" : "0x6000600060006000600035620493e0fa60005500",
                "nonce" : "0x00",
                "storage" : {
                }
            },
            "0x1000000000000000000000000000000000000001" : {
                "balance" : "0x0de0b6b3a7640000",
                "code" : "0x60006000600060006000731000000000000000000000000000000000000002620249f0f100",
                "nonce" : "0x00",
                "storage" : {
                }
            },
            "0x1000000000000000000000000000000000000002" : {
                "balance" : "0x0de0b6b3a7640000",
                "code" : "0x600160016000f000",
                "nonce" : "0x00",
                "storage" : {
                }
            },
            "0x1000000000000000000000000000000000000003" : {
                "balance" : "0x0de0b6b3a7640000",
                "code" : "0x6000600060006000731000000000000000000000000000000000000002620249f0f400",
                "nonce" : "0x00",
                "storage" : {
                }
            },
            "0x1000000000000000000000000000000000000004" : {
                "balance" : "0x0de0b6b3a7640000",
                "code" : "0x6000600060006000731000000000000000000000000000000000000002620249f0fa00",
                "nonce" : "0x00",
                "storage" : {
                }
            },
            "0xa94f5374fce5edbc8e2a8697c15331677e6ebf0b" : {
                "balance" : "0x0de0b6b3a7640000",
                "code" : "0x",
                "nonce" : "0x00",
                "storage" : {
                }
            }
        },
        "transaction" : {
            "data" : [
                "0x0000000000000000000000001000000000000000000000000000000000000001",
                "0x0000000000000000000000001000000000000000000000000000000000000002",
                "0x0000000000000000000000001000000000000000000000000000000000000003",
                "0x0000000000000000000000001000000000000000000000000000000000000004"
            ],
            "gasPrice" : "0x0a",
            "gasLimit" : [
                "0x0f4240"
            ],
            "nonce" : "0x00",
            "secretKey" : "0x45a915e4d060149eb4365960e6a7a45f334393093061116b197e3240065ff2d8",
            "to" : "0x1000000000000000000000000000000000000000",
            "value" : [
                "0x0186a0"
            ]
        }
    }
}