{
    "static_callcallcodecallcode_011_OOGMBefore2" : {
        "_info" : {
            "comment" : "",
            "filling-rpc-server" : "evm version 1.10.4-unstable-966ee3ae-20210528",
            "filling-tool-version" : "retesteth-0.1.1-eip1559+commit.658fc3a8.Linux.g++",
            "lllcversion" : "Version: 0.5.14-develop.2021.5.18+commit.14c9d5de.mod.Linux.g++",
            "source" : "src/GeneralStateTestsFiller/stStaticCall/static_callcallcodecallcode_011_OOGMBefore2Filler.json",
            "sourceHash" : "8e5b0f5993e0395150230b788ba7178537812fcd1841e3991478fa198290f7df"
        },
        "env" : {
            "currentCoinbase" : "0x2adc25665018aa1fe0e6bc666dac8fc2697ff9ba",
            "currentDifficulty" : "0x020000",
            "currentNumber" : "0x01",
            "currentTimestamp" : "0x03e8",
            "previousHash" : "0x5e20a0453cecd065ea59c37ac63e079ee08998b6045136a8ce6635c7912ec0b6",
            "currentGasLimit" : "0x01c9c380"
        },
        "post" : {
            "Berlin" : [
                {
                    "indexes" : {
                        "data" : 0,
                        "gas" : 0,
                        "value" : 0
                    },
                    "hash" : "0x0cceb116d92f1dd4ffbebcc39f0e56e08a29a15a5a86ffe006f903c7f8c48db0",
                    "txbytes" : "0xf880800a83029fe094100000000000000000000000000000000000000080a000000000000000000000000010000000000000000000000000000000000000021ba07030b0e0fb12abba541b31aaa9fa9f48d8916465fc459270b1b2a6463fd78a54a061849f602af25d6d1e45fde31a174040aeeabd4abb09b80bb922a5a2348bcd26",
                    "logs" : "0x1dcc4de8dec75d7aab85b567b6ccd41ad312451b948a7413f0a142fd40d49347"
                },
                {
                    "indexes" : {
                        "data" : 1,
                        "gas" : 0,
                        "value" : 0
                    },
                    "hash" : "0x0cceb116d92f1dd4ffbebcc39f0e56e08a29a15a5a86ffe006f903c7f8c48db0",
                    "txbytes" : "0xf880800a83029fe094100000000000000000000000000000000000000080a000000000000000000000000020000000000000000000000000000000000000021ba0351d0163a3385c0578103bdc19adb1351a8a626a7cedd4ba39d3340e7fce0411a02406896d81fbf345e9c35c0d78742244eaf647b79e866078c8123df762208984",
                    "logs" : "0x1dcc4de8dec75d7aab85b567b6ccd41ad312451b948a7413f0a142fd40d49347"
                },
                {
                    "indexes" : {
                        "data" : 2,
                        "gas" : 0,
                        "value" : 0
                    },
                    "hash" : "0x1797bd3cb06a7a185159f4023fa799f7c287ebf30d032c1d13ea276d7c5ec7d8",
                    "txbytes" : "0xf880800a83029fe094100000000000000000000000000000000000000080a000000000000000000000000030000000000000000000000000000000000000021ca025e90a0d60df2ea212950262a818fa7f29f5ad45c3c54b183fe4aec50978f627a00e762f2c0f59ebfc60242e5b275bbc136e575a93f5e66ad7050aaaa9910a5bc4",
                    "logs" : "0x1dcc4de8dec75d7aab85b567b6ccd41ad312451b948a7413f0a142fd40d49347"
                }
            ],
            "Istanbul" : [
                {
                    "indexes" : {
                        "data" : 0,
                        "gas" : 0,
                        "value" : 0
                    },
                    "hash" : "0x818332c5f4489b5aee15cc02d63be7bfe4a2c623ea265d1f816fd8c97fc19e4b",
                    "txbytes" : "0xf880800a83029fe094100000000000000000000000000000000000000080a000000000000000000000000010000000000000000000000000000000000000021ba07030b0e0fb12abba541b31aaa9fa9f48d8916465fc459270b1b2a6463fd78a54a061849f602af25d6d1e45fde31a174040aeeabd4abb09b80bb922a5a2348bcd26",
                    "logs" : "0x1dcc4de8dec75d7aab85b567b6ccd41ad312451b948a7413f0a142fd40d49347"
                },
                {
                    "indexes" : {
                        "data" : 1,
                        "gas" : 0,
                        "value" : 0
                    },
                    "hash" : "0x818332c5f4489b5aee15cc02d63be7bfe4a2c623ea265d1f816fd8c97fc19e4b",
                    "txbytes" : "0xf880800a83029fe094100000000000000000000000000000000000000080a000000000000000000000000020000000000000000000000000000000000000021ba0351d0163a3385c0578103bdc19adb1351a8a626a7cedd4ba39d3340e7fce0411a02406896d81fbf345e9c35c0d78742244eaf647b79e866078c8123df762208984",
                    "logs" : "0x1dcc4de8dec75d7aab85b567b6ccd41ad312451b948a7413f0a142fd40d49347"
                },
                {
                    "indexes" : {
                        "data" : 2,
                        "gas" : 0,
                        "value" : 0
                    },
                    "hash" : "0xa7ba6f7417f3ae430a1d27ecf7aabf4f0c544c651332586459a9a5459e7f5bd0",
                    "txbytes" : "0xf880800a83029fe094100000000000000000000000000000000000000080a000000000000000000000000030000000000000000000000000000000000000021ca025e90a0d60df2ea212950262a818fa7f29f5ad45c3c54b183fe4aec50978f627a00e762f2c0f59ebfc60242e5b275bbc136e575a93f5e66ad7050aaaa9910a5bc4",
                    "logs" : "0x1dcc4de8dec75d7aab85b567b6ccd41ad312451b948a7413f0a142fd40d49347"
                }
            ],
            "London" : [
                {
                    "indexes" : {
                        "data" : 0,
                        "gas" : 0,
                        "value" : 0
                    },
                    "hash" : "0x26e1d40975b5d59bd3cca67d10e3aa659978c82fb556cc8d0904364f90e0803f",
                    "txbytes" : "0xf880800a83029fe094100000000000000000000000000000000000000080a000000000000000000000000010000000000000000000000000000000000000021ba07030b0e0fb12abba541b31aaa9fa9f48d8916465fc459270b1b2a6463fd78a54a061849f602af25d6d1e45fde31a174040aeeabd4abb09b80bb922a5a2348bcd26",
                    "logs" : "0x1dcc4de8dec75d7aab85b567b6ccd41ad312451b948a7413f0a142fd40d49347"
                },
                {
                    "indexes" : {
                        "data" : 1,
                        "gas" : 0,
                        "value" : 0
                    },
                    "hash" : "0x26e1d40975b5d59bd3cca67d10e3aa659978c82fb556cc8d0904364f90e0803f",
                    "txbytes" : "0xf880800a83029fe094100000000000000000000000000000000000000080a000000000000000000000000020000000000000000000000000000000000000021ba0351d0163a3385c0578103bdc19adb1351a8a626a7cedd4ba39d3340e7fce0411a02406896d81fbf345e9c35c0d78742244eaf647b79e866078c8123df762208984",
                    "logs" : "0x1dcc4de8dec75d7aab85b567b6ccd41ad312451b948a7413f0a142fd40d49347"
                },
                {
                    "indexes" : {
                        "data" : 2,
                        "gas" : 0,
                        "value" : 0
                    },
                    "hash" : "0x0dc0688eb1e9f63277571319497ee1efc801079b27210c77f390d04b786e6b90",
                    "txbytes" : "0xf880800a83029fe094100000000000000000000000000000000000000080a000000000000000000000000030000000000000000000000000000000000000021ca025e90a0d60df2ea212950262a818fa7f29f5ad45c3c54b183fe4aec50978f627a00e762f2c0f59ebfc60242e5b275bbc136e575a93f5e66ad7050aaaa9910a5bc4",
                    "logs" : "0x1dcc4de8dec75d7aab85b567b6ccd41ad312451b948a7413f0a142fd40d49347"
                }
            ]
        },
        "pre" : {
            "0x1000000000000000000000000000000000000000" : {
                "balance" : "0x0de0b6b3a7640000",
                "code" : "0x6000356000526040600060406000731000000000000000000000000000000000000001620249f0fa600055600160015500",
                "nonce" : "0x00",
                "storage" : {
                }
            },
            "0x1000000000000000000000000000000000000001" : {
                "balance" : "0x00",
                "code" : "0x600160205260406000604060006000600035619c90f250600160205200",
                "nonce" : "0x00",
                "storage" : {
                }
            },
            "0x1000000000000000000000000000000000000002" : {
                "balance" : "0x00",
                "code" : "0x600160035560406000604060006000731000000000000000000000000000000000000003614e34f250600160205200",
                "nonce" : "0x00",
                "storage" : {
                }
            },
            "0x1000000000000000000000000000000000000003" : {
                "balance" : "0x00",
                "code" : "0x600160205200",
                "nonce" : "0x00",
                "storage" : {
                }
            },
            "0x2000000000000000000000000000000000000002" : {
                "balance" : "0x00",
                "code" : "0x5b61c3506080511015601c5760013b506001608051016080526000565b60406000604060006000731000000000000000000000000000000000000003614e34f250600160205200",
                "nonce" : "0x00",
                "storage" : {
                }
            },
            "0x3000000000000000000000000000000000000002" : {
                "balance" : "0x0a",
                "code" : "0x60406000604060006001731000000000000000000000000000000000000003614e34f250600160205200",
                "nonce" : "0x00",
                "storage" : {
                }
            },
            "0xa94f5374fce5edbc8e2a8697c15331677e6ebf0b" : {
                "balance" : "0x0de0b6b3a7640000",
                "code" : "0x",
                "nonce" : "0x00",
                "storage" : {
                }
            }
        },
        "transaction" : {
            "data" : [
                "0x0000000000000000000000001000000000000000000000000000000000000002",
                "0x0000000000000000000000002000000000000000000000000000000000000002",
                "0x0000000000000000000000003000000000000000000000000000000000000002"
            ],
            "gasPrice" : "0x0a",
            "gasLimit" : [
                "0x029fe0"
            ],
            "nonce" : "0x00",
            "secretKey" : "0x45a915e4d060149eb4365960e6a7a45f334393093061116b197e3240065ff2d8",
            "to" : "0x1000000000000000000000000000000000000000",
            "value" : [
                "0x00"
            ]
        }
    }
}