{
    "static_CallToReturn1" : {
        "_info" : {
            "comment" : "",
            "filling-rpc-server" : "evm version 1.10.4-unstable-966ee3ae-20210528",
            "filling-tool-version" : "retesteth-0.1.1-eip1559+commit.658fc3a8.Linux.g++",
            "lllcversion" : "Version: 0.5.14-develop.2021.5.18+commit.14c9d5de.mod.Linux.g++",
            "source" : "src/GeneralStateTestsFiller/stStaticCall/static_CallToReturn1Filler.json",
            "sourceHash" : "35d01cfa407659f5f5b82bbb02613dfe9ecd6a7a967fa22e4e0cb9d07c72bc29"
        },
        "env" : {
            "currentCoinbase" : "0x2adc25665018aa1fe0e6bc666dac8fc2697ff9ba",
            "currentDifficulty" : "0x020000",
            "currentNumber" : "0x01",
            "currentTimestamp" : "0x03e8",
            "previousHash" : "0x5e20a0453cecd065ea59c37ac63e079ee08998b6045136a8ce6635c7912ec0b6",
            "currentGasLimit" : "0x989680"
        },
        "post" : {
            "Berlin" : [
                {
                    "indexes" : {
                        "data" : 0,
                        "gas" : 0,
                        "value" : 0
                    },
                    "hash" : "0xc907884aea8256120740fbf6b6147924b9ec618f3f615220651ae2caf5120ba1",
                    "txbytes" : "0xf863800a830493e094095e7baea6a6c7c4c2dfeb977efac326af552d87830186a0801ca0eaba2c4380d98d9c50136f125ed97e3c2dd0b36c4d4492108be1b0e885dbad68a027594bc48dc0ceb398bd05f0bfb8b6c5dee2f476d270a4e9a7030bff805bd71e",
                    "logs" : "0x1dcc4de8dec75d7aab85b567b6ccd41ad312451b948a7413f0a142fd40d49347"
                }
            ],
            "Istanbul" : [
                {
                    "indexes" : {
                        "data" : 0,
                        "gas" : 0,
                        "value" : 0
                    },
                    "hash" : "0x2b545dcfd25951349ba8c1dca6a2c851830b423e43d65009752e5b1b09a24179",
                    "txbytes" : "0xf863800a830493e094095e7baea6a6c7c4c2dfeb977efac326af552d87830186a0801ca0eaba2c4380d98d9c50136f125ed97e3c2dd0b36c4d4492108be1b0e885dbad68a027594bc48dc0ceb398bd05f0bfb8b6c5dee2f476d270a4e9a7030bff805bd71e",
                    "logs" : "0x1dcc4de8dec75d7aab85b567b6ccd41ad312451b948a7413f0a142fd40d49347"
                }
            ],
            "London" : [
                {
                    "indexes" : {
                        "data" : 0,
                        "gas" : 0,
                        "value" : 0
                    },
                    "hash" : "0xf36c4acc793bf2a1a4c6d3812d4276da8f34a08934d3b98b63cab62600a4fb8e",
                    "txbytes" : "0xf863800a830493e094095e7baea6a6c7c4c2dfeb977efac326af552d87830186a0801ca0eaba2c4380d98d9c50136f125ed97e3c2dd0b36c4d4492108be1b0e885dbad68a027594bc48dc0ceb398bd05f0bfb8b6c5dee2f476d270a4e9a7030bff805bd71e",
                    "logs" : "0x1dcc4de8dec75d7aab85b567b6ccd41ad312451b948a7413f0a142fd40d49347"
                }
            ]
        },
        "pre" : {
            "0x095e7baea6a6c7c4c2dfeb977efac326af552d87" : {
                "balance" : "0x0de0b6b3a7640000",
                "code" : "0x6001601f6000600073945304eb96065b2a98b57a48a06ae28d285a71b56103e8fa60005560005160015500",
                "nonce" : "0x00",
                "storage" : {
                }
            },
            "0x945304eb96065b2a98b57a48a06ae28d285a71b5" : {
                "balance" : "0x17",
                "code" : "0x602a601f536001601ff3",
                "nonce" : "0x00",
                "storage" : {
                }
            },
            "0xa94f5374fce5edbc8e2a8697c15331677e6ebf0b" : {
                "balance" : "0x0de0b6b3a7640000",
                "code" : "0x",
                "nonce" : "0x00",
                "storage" : {
                }
            }
        },
        "transaction" : {
            "data" : [
                "0x"
            ],
            "gasPrice" : "0x0a",
            "gasLimit" : [
                "0x0493e0"
            ],
            "nonce" : "0x00",
            "secretKey" : "0x45a915e4d060149eb4365960e6a7a45f334393093061116b197e3240065ff2d8",
            "to" : "0x095e7baea6a6c7c4c2dfeb977efac326af552d87",
            "value" : [
                "0x0186a0"
            ]
        }
    }
}