{
    "static_callToCallCodeOpCodeCheck" : {
        "_info" : {
            "comment" : "",
            "filling-rpc-server" : "evm version 1.10.4-unstable-966ee3ae-20210528",
            "filling-tool-version" : "retesteth-0.1.1-eip1559+commit.658fc3a8.Linux.g++",
            "lllcversion" : "Version: 0.5.14-develop.2021.5.18+commit.14c9d5de.mod.Linux.g++",
            "source" : "src/GeneralStateTestsFiller/stStaticCall/static_callToCallCodeOpCodeCheckFiller.json",
            "sourceHash" : "e520d986cd3ff6411c103d604f440a006484d03a3b829db6e6e401ac865dacfe"
        },
        "env" : {
            "currentCoinbase" : "0x2adc25665018aa1fe0e6bc666dac8fc2697ff9ba",
            "currentDifficulty" : "0x020000",
            "currentNumber" : "0x01",
            "currentTimestamp" : "0x03e8",
            "previousHash" : "0x5e20a0453cecd065ea59c37ac63e079ee08998b6045136a8ce6635c7912ec0b6",
            "currentGasLimit" : "0x989680"
        },
        "post" : {
            "Berlin" : [
                {
                    "indexes" : {
                        "data" : 0,
                        "gas" : 0,
                        "value" : 0
                    },
                    "hash" : "0x8c4dd912f6848d1dfe65a34da73c462874e47542bc715f0ea864fce9eb5f4848",
                    "txbytes" : "0xf882800a830f4240941000000000000000000000000000000000000000830186a0a000000000000000000000000010000000000000000000000000000000000000011ca0514e6d57b27c36a1adf5890b29f2022eb31ca22c9caf7ec23173cce0e205b1fa9f2b4089c9e9eb460c07d87a38b69fb5ee99cc7fdf6b3a4da9b485c0ba654a5b",
                    "logs" : "0x1dcc4de8dec75d7aab85b567b6ccd41ad312451b948a7413f0a142fd40d49347"
                }
            ],
            "Istanbul" : [
                {
                    "indexes" : {
                        "data" : 0,
                        "gas" : 0,
                        "value" : 0
                    },
                    "hash" : "0x26082348e986a806bf18296002126c4e9b03f9aeb453cad1e919d30a716060c8",
                    "txbytes" : "0xf882800a830f4240941000000000000000000000000000000000000000830186a0a000000000000000000000000010000000000000000000000000000000000000011ca0514e6d57b27c36a1adf5890b29f2022eb31ca22c9caf7ec23173cce0e205b1fa9f2b4089c9e9eb460c07d87a38b69fb5ee99cc7fdf6b3a4da9b485c0ba654a5b",
                    "logs" : "0x1dcc4de8dec75d7aab85b567b6ccd41ad312451b948a7413f0a142fd40d49347"
                }
            ],
            "London" : [
                {
                    "indexes" : {
                        "data" : 0,
                        "gas" : 0,
                        "value" : 0
                    },
                    "hash" : "0xce6c9792de79a49f6daf7e151185a468a60080215710b9dc4c9c51fbe6f5dd02",
                    "txbytes" : "0xf882800a830f4240941000000000000000000000000000000000000000830186a0a000000000000000000000000010000000000000000000000000000000000000011ca0514e6d57b27c36a1adf5890b29f2022eb31ca22c9caf7ec23173cce0e205b1fa9f2b4089c9e9eb460c07d87a38b69fb5ee99cc7fdf6b3a4da9b485c0ba654a5b",
                    "logs" : "0x1dcc4de8dec75d7aab85b567b6ccd41ad312451b948a7413f0a142fd40d49347"
                }
            ]
        },
        "pre" : {
            "0x1000000000000000000000000000000000000000" : {
                "balance" : "0x0de0b6b3a7640000",
                "code" : "0x6000600060006000600035620186a0fa60005500",
                "nonce" : "0x00",
                "storage" : {
                }
            },
            "0x1000000000000000000000000000000000000001" : {
                "balance" : "0x0de0b6b3a7640000",
                "code" : "0x60006000600060006000731000000000000000000000000000000000000002620186a0f26000526000516001146038576001600155603e565b60016001525b00",
                "nonce" : "0x00",
                "storage" : {
                }
            },
            "0x1000000000000000000000000000000000000002" : {
                "balance" : "0x0de0b6b3a7640000",
                "code" : "0x3273a94f5374fce5edbc8e2a8697c15331677e6ebf0b1460225760026001556028565b60016001525b3373100000000000000000000000000000000000000114604b5760026001556051565b60016001525b30731000000000000000000000000000000000000001146074576002600155607a565b60016001525b34600014608a5760026001556090565b60016001525b00",
                "nonce" : "0x00",
                "storage" : {
                }
            },
            "0xa94f5374fce5edbc8e2a8697c15331677e6ebf0b" : {
                "balance" : "0x0de0b6b3a7640000",
                "code" : "0x",
                "nonce" : "0x00",
                "storage" : {
                }
            }
        },
        "transaction" : {
            "data" : [
                "0x0000000000000000000000001000000000000000000000000000000000000001"
            ],
            "gasPrice" : "0x0a",
            "gasLimit" : [
                "0x0f4240"
            ],
            "nonce" : "0x00",
            "secretKey" : "0x45a915e4d060149eb4365960e6a7a45f334393093061116b197e3240065ff2d8",
            "to" : "0x1000000000000000000000000000000000000000",
            "value" : [
                "0x0186a0"
            ]
        }
    }
}