{
    "BLOCKHASH_Bounds_Berlin" : {
        "_info" : {
            "comment" : "",
            "filling-rpc-server" : "evm version 1.10.4-unstable-966ee3ae-20210528",
            "filling-tool-version" : "retesteth-0.1.1-eip1559+commit.658fc3a8.Linux.g++",
            "lllcversion" : "Version: 0.5.14-develop.2021.5.18+commit.14c9d5de.mod.Linux.g++",
            "source" : "src/BlockchainTestsFiller/ValidBlocks/bcStateTests/BLOCKHASH_BoundsFiller.json",
            "sourceHash" : "d664ba6edc32807d517219403a076910673523c60f3d24818ae7a75a373d4e07"
        },
        "sealEngine" : "NoProof",
        "network" : "Berlin",
        "pre" : {
            "0x1000000000000000000000000000000000000000" : {
                "balance" : "0x00",
                "code" : "0x60004060005563ffffffff4060015567ffffffffffffffff406002556fffffffffffffffffffffffffffffffff406003557fffffffffffffffffffffffffffffffffffffffffffffffffffffffffffffffff40600455",
                "nonce" : "0x00",
                "storage" : {
                }
            },
            "0x1000000000000000000000000000000000000001" : {
                "balance" : "0x00",
                "code" : "0x60004060005563ffffffff4060015567ffffffffffffffff406002556fffffffffffffffffffffffffffffffff406003557fffffffffffffffffffffffffffffffffffffffffffffffffffffffffffffffff40600455",
                "nonce" : "0x00",
                "storage" : {
                }
            },
            "0x37c5d39d78433a054b0a470ade8ac1998abfcc06" : {
                "balance" : "0x7fffffffffffffff",
                "code" : "0x",
                "nonce" : "0x00",
                "storage" : {
                }
            },
            "0x55d786df68385b59b919e0bfee2a8ada2d23ecf8" : {
                "balance" : "0x7fffffffffffffff",
                "code" : "0x",
                "nonce" : "0x00",
                "storage" : {
                }
            },
            "0xa94f5374fce5edbc8e2a8697c15331677e6ebf0b" : {
                "balance" : "0x7fffffffffffffff",
                "code" : "0x",
                "nonce" : "0x00",
                "storage" : {
                }
            }
        },
        "genesisBlockHeader" : {
            "bloom" : "0x00000000000000000000000000000000000000000000000000000000000000000000000000000000000000000000000000000000000000000000000000000000000000000000000000000000000000000000000000000000000000000000000000000000000000000000000000000000000000000000000000000000000000000000000000000000000000000000000000000000000000000000000000000000000000000000000000000000000000000000000000000000000000000000000000000000000000000000000000000000000000000000000000000000000000000000000000000000000000000000000000000000000000000000000000000000",
            "coinbase" : "0x2adc25665018aa1fe0e6bc666dac8fc2697ff9ba",
            "difficulty" : "0x020000",
            "extraData" : "0x42",
            "gasLimit" : "0x7fffffffffffffff",
            "gasUsed" : "0x00",
            "hash" : "0x1a2d72fae575f4c3290d192f6f65ce1018583c01eae4323bfb8eb0bf21655169",
            "mixHash" : "0x0000000000000000000000000000000000000000000000000000000000000000",
            "nonce" : "0x0000000000000000",
            "number" : "0x00",
            "parentHash" : "0x0000000000000000000000000000000000000000000000000000000000000000",
            "receiptTrie" : "0x56e81f171bcc55a6ff8345e692c0f86e5b48e01b996cadc001622fb5e363b421",
            "stateRoot" : "0x8d1fc301a8e59996554755b967f32086fefa26af0eb2494b27c2b7ce600a7eb4",
            "timestamp" : "0x03b6",
            "transactionsTrie" : "0x56e81f171bcc55a6ff8345e692c0f86e5b48e01b996cadc001622fb5e363b421",
            "uncleHash" : "0x1dcc4de8dec75d7aab85b567b6ccd41ad312451b948a7413f0a142fd40d49347"
        },
        "genesisRLP" : "0xf901fff901faa00000000000000000000000000000000000000000000000000000000000000000a01dcc4de8dec75d7aab85b567b6ccd41ad312451b948a7413f0a142fd40d49347942adc25665018aa1fe0e6bc666dac8fc2697ff9baa08d1fc301a8e59996554755b967f32086fefa26af0eb2494b27c2b7ce600a7eb4a056e81f171bcc55a6ff8345e692c0f86e5b48e01b996cadc001622fb5e363b421a056e81f171bcc55a6ff8345e692c0f86e5b48e01b996cadc001622fb5e363b421b90100000000000000000000000000000000000000000000000000000000000000000000000000000000000000000000000000000000000000000000000000000000000000000000000000000000000000000000000000000000000000000000000000000000000000000000000000000000000000000000000000000000000000000000000000000000000000000000000000000000000000000000000000000000000000000000000000000000000000000000000000000000000000000000000000000000000000000000000000000000000000000000000000000000000000000000000000000000000000000000000000000000000000000000000000000000008302000080887fffffffffffffff808203b642a00000000000000000000000000000000000000000000000000000000000000000880000000000000000c0c0",
        "blocks" : [
            {
                "chainname" : "default",
                "blocknumber" : "1",
                "uncleHeaders" : [
                ],
                "blockHeader" : {
                    "bloom" : "0x00000000000000000000000000000000000000000000000000000000000000000000000000000000000000000000000000000000000000000000000000000000000000000000000000000000000000000000000000000000000000000000000000000000000000000000000000000000000000000000000000000000000000000000000000000000000000000000000000000000000000000000000000000000000000000000000000000000000000000000000000000000000000000000000000000000000000000000000000000000000000000000000000000000000000000000000000000000000000000000000000000000000000000000000000000000",
                    "coinbase" : "0x2adc25665018aa1fe0e6bc666dac8fc2697ff9ba",
                    "difficulty" : "0x020000",
                    "extraData" : "0x42",
                    "gasLimit" : "0x7fffffffffffffff",
                    "gasUsed" : "0x01e884",
                    "hash" : "0x092b5804c4bcbb6ef070ca73d2e41afdd3e168595d104a8a827a9be761d0a603",
                    "mixHash" : "0x0000000000000000000000000000000000000000000000000000000000000000",
                    "nonce" : "0x0000000000000000",
                    "number" : "0x01",
                    "parentHash" : "0x1a2d72fae575f4c3290d192f6f65ce1018583c01eae4323bfb8eb0bf21655169",
                    "receiptTrie" : "0xdabfd8655b94abbfee33cb3881810d01163119e66d476a1079a6bbe11e4fc276",
                    "stateRoot" : "0xd68ced8de913797eda5834d87f3b23b89f3b5fd13c80a87441c768e1866620bd",
                    "timestamp" : "0x079e",
                    "transactionsTrie" : "0x7f06626288d8c93e0a9a35928d4a2ceaae325b35df73a21203555bc4e6803f4e",
                    "uncleHash" : "0x1dcc4de8dec75d7aab85b567b6ccd41ad312451b948a7413f0a142fd40d49347"
                },
                "transactions" : [
                    {
                        "data" : "0x",
                        "gasLimit" : "0x0249f0",
                        "gasPrice" : "0x03e8",
                        "nonce" : "0x00",
                        "r" : "0x36fd4f85802471f3ca398acbc42cd94eb622f8e84a29b2aed321c9a1a08c70a2",
                        "s" : "0x727f67e64d733d1b6fd6e875ff4640104187cdc0107b35e47a034f719e1cffe7",
                        "to" : "0x1000000000000000000000000000000000000000",
                        "v" : "0x1c",
                        "value" : "0x01"
                    },
                    {
                        "data" : "0x",
                        "gasLimit" : "0x0f4240",
                        "gasPrice" : "0x03e8",
                        "nonce" : "0x00",
                        "r" : "0x8a21ae3da32ba93164b7ffc41c19fcb3eca5e13966b6ccfe1eb67665e1d683d3",
                        "s" : "0x44ba0667ad0e394d97058ee335ecac2c536c8b30b3696428055bdad5cd2c050e",
                        "to" : "0x1000000000000000000000000000000000000001",
                        "v" : "0x1c",
                        "value" : "0x01"
                    },
                    {
                        "data" : "0x",
                        "gasLimit" : "0x0ee6b280",
                        "gasPrice" : "0x03e8",
                        "nonce" : "0x00",
                        "r" : "0xb3a72d78cad07bfcee68190e2133266daf3c91dc558e73a78c80cac2d92a908d",
                        "s" : "0x5a70e7b9b7757564d7a562eaa8487692785dc9cfaf821a48fcac7bd18d9ed53b",
                        "to" : "0x1000000000000000000000000000000000000002",
                        "v" : "0x1c",
                        "value" : "0x01"
                    }
                ],
                "rlp" : "0xf90331f901fda01a2d72fae575f4c3290d192f6f65ce1018583c01eae4323bfb8eb0bf21655169a01dcc4de8dec75d7aab85b567b6ccd41ad312451b948a7413f0a142fd40d49347942adc25665018aa1fe0e6bc666dac8fc2697ff9baa0d68ced8de913797eda5834d87f3b23b89f3b5fd13c80a87441c768e1866620bda07f06626288d8c93e0a9a35928d4a2ceaae325b35df73a21203555bc4e6803f4ea0dabfd8655b94abbfee33cb3881810d01163119e66d476a1079a6bbe11e4fc276b90100000000000000000000000000000000000000000000000000000000000000000000000000000000000000000000000000000000000000000000000000000000000000000000000000000000000000000000000000000000000000000000000000000000000000000000000000000000000000000000000000000000000000000000000000000000000000000000000000000000000000000000000000000000000000000000000000000000000000000000000000000000000000000000000000000000000000000000000000000000000000000000000000000000000000000000000000000000000000000000000000000000000000000000000000000000008302000001887fffffffffffffff8301e88482079e42a00000000000000000000000000000000000000000000000000000000000000000880000000000000000f9012df862808203e8830249f094100000000000000000000000000000000000000001801ca036fd4f85802471f3ca398acbc42cd94eb622f8e84a29b2aed321c9a1a08c70a2a0727f67e64d733d1b6fd6e875ff4640104187cdc0107b35e47a034f719e1cffe7f862808203e8830f424094100000000000000000000000000000000000000101801ca08a21ae3da32ba93164b7ffc41c19fcb3eca5e13966b6ccfe1eb67665e1d683d3a044ba0667ad0e394d97058ee335ecac2c536c8b30b3696428055bdad5cd2c050ef863808203e8840ee6b28094100000000000000000000000000000000000000201801ca0b3a72d78cad07bfcee68190e2133266daf3c91dc558e73a78c80cac2d92a908da05a70e7b9b7757564d7a562eaa8487692785dc9cfaf821a48fcac7bd18d9ed53bc0"
            }
        ],
        "postState" : {
            "0x1000000000000000000000000000000000000000" : {
                "code" : "0x60004060005563ffffffff4060015567ffffffffffffffff406002556fffffffffffffffffffffffffffffffff406003557fffffffffffffffffffffffffffffffffffffffffffffffffffffffffffffffff40600455",
                "nonce" : "0x00",
                "balance" : "0x01",
                "storage" : {
                    "0x00" : "0x1a2d72fae575f4c3290d192f6f65ce1018583c01eae4323bfb8eb0bf21655169"
                }
            },
            "0x1000000000000000000000000000000000000001" : {
                "code" : "0x60004060005563ffffffff4060015567ffffffffffffffff406002556fffffffffffffffffffffffffffffffff406003557fffffffffffffffffffffffffffffffffffffffffffffffffffffffffffffffff40600455",
                "nonce" : "0x00",
                "balance" : "0x01",
                "storage" : {
                    "0x00" : "0x1a2d72fae575f4c3290d192f6f65ce1018583c01eae4323bfb8eb0bf21655169"
                }
            },
            "0x1000000000000000000000000000000000000002" : {
                "code" : "0x",
                "nonce" : "0x00",
                "balance" : "0x01",
                "storage" : {
                }
            },
            "0x2adc25665018aa1fe0e6bc666dac8fc2697ff9ba" : {
                "code" : "0x",
                "nonce" : "0x00",
                "balance" : "0x1bc16d67563c43a0",
                "storage" : {
                }
            },
            "0x37c5d39d78433a054b0a470ade8ac1998abfcc06" : {
                "code" : "0x",
                "nonce" : "0x01",
                "balance" : "0x7ffffffffebf90be",
                "storage" : {
                }
            },
            "0x55d786df68385b59b919e0bfee2a8ada2d23ecf8" : {
                "code" : "0x",
                "nonce" : "0x01",
                "balance" : "0x7ffffffffce615ce",
                "storage" : {
                }
            },
            "0xa94f5374fce5edbc8e2a8697c15331677e6ebf0b" : {
                "code" : "0x",
                "nonce" : "0x01",
                "balance" : "0x7ffffffffce615ce",
                "storage" : {
                }
            }
        },
        "lastblockhash" : "0x092b5804c4bcbb6ef070ca73d2e41afdd3e168595d104a8a827a9be761d0a603"
    },
    "BLOCKHASH_Bounds_Istanbul" : {
        "_info" : {
            "comment" : "",
            "filling-rpc-server" : "evm version 1.10.4-unstable-966ee3ae-20210528",
            "filling-tool-version" : "retesteth-0.1.1-eip1559+commit.658fc3a8.Linux.g++",
            "lllcversion" : "Version: 0.5.14-develop.2021.5.18+commit.14c9d5de.mod.Linux.g++",
            "source" : "src/BlockchainTestsFiller/ValidBlocks/bcStateTests/BLOCKHASH_BoundsFiller.json",
            "sourceHash" : "d664ba6edc32807d517219403a076910673523c60f3d24818ae7a75a373d4e07"
        },
        "sealEngine" : "NoProof",
        "network" : "Istanbul",
        "pre" : {
            "0x1000000000000000000000000000000000000000" : {
                "balance" : "0x00",
                "code" : "0x60004060005563ffffffff4060015567ffffffffffffffff406002556fffffffffffffffffffffffffffffffff406003557fffffffffffffffffffffffffffffffffffffffffffffffffffffffffffffffff40600455",
                "nonce" : "0x00",
                "storage" : {
                }
            },
            "0x1000000000000000000000000000000000000001" : {
                "balance" : "0x00",
                "code" : "0x60004060005563ffffffff4060015567ffffffffffffffff406002556fffffffffffffffffffffffffffffffff406003557fffffffffffffffffffffffffffffffffffffffffffffffffffffffffffffffff40600455",
                "nonce" : "0x00",
                "storage" : {
                }
            },
            "0x37c5d39d78433a054b0a470ade8ac1998abfcc06" : {
                "balance" : "0x7fffffffffffffff",
                "code" : "0x",
                "nonce" : "0x00",
                "storage" : {
                }
            },
            "0x55d786df68385b59b919e0bfee2a8ada2d23ecf8" : {
                "balance" : "0x7fffffffffffffff",
                "code" : "0x",
                "nonce" : "0x00",
                "storage" : {
                }
            },
            "0xa94f5374fce5edbc8e2a8697c15331677e6ebf0b" : {
                "balance" : "0x7fffffffffffffff",
                "code" : "0x",
                "nonce" : "0x00",
                "storage" : {
                }
            }
        },
        "genesisBlockHeader" : {
            "bloom" : "0x00000000000000000000000000000000000000000000000000000000000000000000000000000000000000000000000000000000000000000000000000000000000000000000000000000000000000000000000000000000000000000000000000000000000000000000000000000000000000000000000000000000000000000000000000000000000000000000000000000000000000000000000000000000000000000000000000000000000000000000000000000000000000000000000000000000000000000000000000000000000000000000000000000000000000000000000000000000000000000000000000000000000000000000000000000000",
            "coinbase" : "0x2adc25665018aa1fe0e6bc666dac8fc2697ff9ba",
            "difficulty" : "0x020000",
            "extraData" : "0x42",
            "gasLimit" : "0x7fffffffffffffff",
            "gasUsed" : "0x00",
            "hash" : "0x1a2d72fae575f4c3290d192f6f65ce1018583c01eae4323bfb8eb0bf21655169",
            "mixHash" : "0x0000000000000000000000000000000000000000000000000000000000000000",
            "nonce" : "0x0000000000000000",
            "number" : "0x00",
            "parentHash" : "0x0000000000000000000000000000000000000000000000000000000000000000",
            "receiptTrie" : "0x56e81f171bcc55a6ff8345e692c0f86e5b48e01b996cadc001622fb5e363b421",
            "stateRoot" : "0x8d1fc301a8e59996554755b967f32086fefa26af0eb2494b27c2b7ce600a7eb4",
            "timestamp" : "0x03b6",
            "transactionsTrie" : "0x56e81f171bcc55a6ff8345e692c0f86e5b48e01b996cadc001622fb5e363b421",
            "uncleHash" : "0x1dcc4de8dec75d7aab85b567b6ccd41ad312451b948a7413f0a142fd40d49347"
        },
        "genesisRLP" : "0xf901fff901faa00000000000000000000000000000000000000000000000000000000000000000a01dcc4de8dec75d7aab85b567b6ccd41ad312451b948a7413f0a142fd40d49347942adc25665018aa1fe0e6bc666dac8fc2697ff9baa08d1fc301a8e59996554755b967f32086fefa26af0eb2494b27c2b7ce600a7eb4a056e81f171bcc55a6ff8345e692c0f86e5b48e01b996cadc001622fb5e363b421a056e81f171bcc55a6ff8345e692c0f86e5b48e01b996cadc001622fb5e363b421b90100000000000000000000000000000000000000000000000000000000000000000000000000000000000000000000000000000000000000000000000000000000000000000000000000000000000000000000000000000000000000000000000000000000000000000000000000000000000000000000000000000000000000000000000000000000000000000000000000000000000000000000000000000000000000000000000000000000000000000000000000000000000000000000000000000000000000000000000000000000000000000000000000000000000000000000000000000000000000000000000000000000000000000000000000000000008302000080887fffffffffffffff808203b642a00000000000000000000000000000000000000000000000000000000000000000880000000000000000c0c0",
        "blocks" : [
            {
                "chainname" : "default",
                "blocknumber" : "1",
                "uncleHeaders" : [
                ],
                "blockHeader" : {
                    "bloom" : "0x00000000000000000000000000000000000000000000000000000000000000000000000000000000000000000000000000000000000000000000000000000000000000000000000000000000000000000000000000000000000000000000000000000000000000000000000000000000000000000000000000000000000000000000000000000000000000000000000000000000000000000000000000000000000000000000000000000000000000000000000000000000000000000000000000000000000000000000000000000000000000000000000000000000000000000000000000000000000000000000000000000000000000000000000000000000",
                    "coinbase" : "0x2adc25665018aa1fe0e6bc666dac8fc2697ff9ba",
                    "difficulty" : "0x020000",
                    "extraData" : "0x42",
                    "gasLimit" : "0x7fffffffffffffff",
                    "gasUsed" : "0x01ac5c",
                    "hash" : "0x2af3d77c68007df59a4ff4bc06690f91f631d17806c25003213821ecd62fa13e",
                    "mixHash" : "0x0000000000000000000000000000000000000000000000000000000000000000",
                    "nonce" : "0x0000000000000000",
                    "number" : "0x01",
                    "parentHash" : "0x1a2d72fae575f4c3290d192f6f65ce1018583c01eae4323bfb8eb0bf21655169",
                    "receiptTrie" : "0xab13282da5ad532c1de4c6f3f11f4d9090644a6e609225d74c9a2c2979276523",
                    "stateRoot" : "0x78506a26964f23233ba4ffd01154703dcc48b1451fcf6a393cd0aef456d1f1f1",
                    "timestamp" : "0x079e",
                    "transactionsTrie" : "0x7f06626288d8c93e0a9a35928d4a2ceaae325b35df73a21203555bc4e6803f4e",
                    "uncleHash" : "0x1dcc4de8dec75d7aab85b567b6ccd41ad312451b948a7413f0a142fd40d49347"
                },
                "transactions" : [
                    {
                        "data" : "0x",
                        "gasLimit" : "0x0249f0",
                        "gasPrice" : "0x03e8",
                        "nonce" : "0x00",
                        "r" : "0x36fd4f85802471f3ca398acbc42cd94eb622f8e84a29b2aed321c9a1a08c70a2",
                        "s" : "0x727f67e64d733d1b6fd6e875ff4640104187cdc0107b35e47a034f719e1cffe7",
                        "to" : "0x1000000000000000000000000000000000000000",
                        "v" : "0x1c",
                        "value" : "0x01"
                    },
                    {
                        "data" : "0x",
                        "gasLimit" : "0x0f4240",
                        "gasPrice" : "0x03e8",
                        "nonce" : "0x00",
                        "r" : "0x8a21ae3da32ba93164b7ffc41c19fcb3eca5e13966b6ccfe1eb67665e1d683d3",
                        "s" : "0x44ba0667ad0e394d97058ee335ecac2c536c8b30b3696428055bdad5cd2c050e",
                        "to" : "0x1000000000000000000000000000000000000001",
                        "v" : "0x1c",
                        "value" : "0x01"
                    },
                    {
                        "data" : "0x",
                        "gasLimit" : "0x0ee6b280",
                        "gasPrice" : "0x03e8",
                        "nonce" : "0x00",
                        "r" : "0xb3a72d78cad07bfcee68190e2133266daf3c91dc558e73a78c80cac2d92a908d",
                        "s" : "0x5a70e7b9b7757564d7a562eaa8487692785dc9cfaf821a48fcac7bd18d9ed53b",
                        "to" : "0x1000000000000000000000000000000000000002",
                        "v" : "0x1c",
                        "value" : "0x01"
                    }
                ],
                "rlp" : "0xf90331f901fda01a2d72fae575f4c3290d192f6f65ce1018583c01eae4323bfb8eb0bf21655169a01dcc4de8dec75d7aab85b567b6ccd41ad312451b948a7413f0a142fd40d49347942adc25665018aa1fe0e6bc666dac8fc2697ff9baa078506a26964f23233ba4ffd01154703dcc48b1451fcf6a393cd0aef456d1f1f1a07f06626288d8c93e0a9a35928d4a2ceaae325b35df73a21203555bc4e6803f4ea0ab13282da5ad532c1de4c6f3f11f4d9090644a6e609225d74c9a2c2979276523b90100000000000000000000000000000000000000000000000000000000000000000000000000000000000000000000000000000000000000000000000000000000000000000000000000000000000000000000000000000000000000000000000000000000000000000000000000000000000000000000000000000000000000000000000000000000000000000000000000000000000000000000000000000000000000000000000000000000000000000000000000000000000000000000000000000000000000000000000000000000000000000000000000000000000000000000000000000000000000000000000000000000000000000000000000000000008302000001887fffffffffffffff8301ac5c82079e42a00000000000000000000000000000000000000000000000000000000000000000880000000000000000f9012df862808203e8830249f094100000000000000000000000000000000000000001801ca036fd4f85802471f3ca398acbc42cd94eb622f8e84a29b2aed321c9a1a08c70a2a0727f67e64d733d1b6fd6e875ff4640104187cdc0107b35e47a034f719e1cffe7f862808203e8830f424094100000000000000000000000000000000000000101801ca08a21ae3da32ba93164b7ffc41c19fcb3eca5e13966b6ccfe1eb67665e1d683d3a044ba0667ad0e394d97058ee335ecac2c536c8b30b3696428055bdad5cd2c050ef863808203e8840ee6b28094100000000000000000000000000000000000000201801ca0b3a72d78cad07bfcee68190e2133266daf3c91dc558e73a78c80cac2d92a908da05a70e7b9b7757564d7a562eaa8487692785dc9cfaf821a48fcac7bd18d9ed53bc0"
            }
        ],
        "postState" : {
            "0x1000000000000000000000000000000000000000" : {
                "code" : "0x60004060005563ffffffff4060015567ffffffffffffffff406002556fffffffffffffffffffffffffffffffff406003557fffffffffffffffffffffffffffffffffffffffffffffffffffffffffffffffff40600455",
                "nonce" : "0x00",
                "balance" : "0x01",
                "storage" : {
                    "0x00" : "0x1a2d72fae575f4c3290d192f6f65ce1018583c01eae4323bfb8eb0bf21655169"
                }
            },
            "0x1000000000000000000000000000000000000001" : {
                "code" : "0x60004060005563ffffffff4060015567ffffffffffffffff406002556fffffffffffffffffffffffffffffffff406003557fffffffffffffffffffffffffffffffffffffffffffffffffffffffffffffffff40600455",
                "nonce" : "0x00",
                "balance" : "0x01",
                "storage" : {
                    "0x00" : "0x1a2d72fae575f4c3290d192f6f65ce1018583c01eae4323bfb8eb0bf21655169"
                }
            },
            "0x1000000000000000000000000000000000000002" : {
                "code" : "0x",
                "nonce" : "0x00",
                "balance" : "0x01",
                "storage" : {
                }
            },
            "0x2adc25665018aa1fe0e6bc666dac8fc2697ff9ba" : {
                "code" : "0x",
                "nonce" : "0x00",
                "balance" : "0x1bc16d6755514760",
                "storage" : {
                }
            },
            "0x37c5d39d78433a054b0a470ade8ac1998abfcc06" : {
                "code" : "0x",
                "nonce" : "0x01",
                "balance" : "0x7ffffffffebf90be",
                "storage" : {
                }
            },
            "0x55d786df68385b59b919e0bfee2a8ada2d23ecf8" : {
                "code" : "0x",
                "nonce" : "0x01",
                "balance" : "0x7ffffffffd5b93ee",
                "storage" : {
                }
            },
            "0xa94f5374fce5edbc8e2a8697c15331677e6ebf0b" : {
                "code" : "0x",
                "nonce" : "0x01",
                "balance" : "0x7ffffffffd5b93ee",
                "storage" : {
                }
            }
        },
        "lastblockhash" : "0x2af3d77c68007df59a4ff4bc06690f91f631d17806c25003213821ecd62fa13e"
    },
    "BLOCKHASH_Bounds_London" : {
        "_info" : {
            "comment" : "",
            "filling-rpc-server" : "evm version 1.10.4-unstable-966ee3ae-20210528",
            "filling-tool-version" : "retesteth-0.1.1-eip1559+commit.658fc3a8.Linux.g++",
            "lllcversion" : "Version: 0.5.14-develop.2021.5.18+commit.14c9d5de.mod.Linux.g++",
            "source" : "src/BlockchainTestsFiller/ValidBlocks/bcStateTests/BLOCKHASH_BoundsFiller.json",
            "sourceHash" : "d664ba6edc32807d517219403a076910673523c60f3d24818ae7a75a373d4e07"
        },
        "sealEngine" : "NoProof",
        "network" : "London",
        "pre" : {
            "0x1000000000000000000000000000000000000000" : {
                "balance" : "0x00",
                "code" : "0x60004060005563ffffffff4060015567ffffffffffffffff406002556fffffffffffffffffffffffffffffffff406003557fffffffffffffffffffffffffffffffffffffffffffffffffffffffffffffffff40600455",
                "nonce" : "0x00",
                "storage" : {
                }
            },
            "0x1000000000000000000000000000000000000001" : {
                "balance" : "0x00",
                "code" : "0x60004060005563ffffffff4060015567ffffffffffffffff406002556fffffffffffffffffffffffffffffffff406003557fffffffffffffffffffffffffffffffffffffffffffffffffffffffffffffffff40600455",
                "nonce" : "0x00",
                "storage" : {
                }
            },
            "0x37c5d39d78433a054b0a470ade8ac1998abfcc06" : {
                "balance" : "0x7fffffffffffffff",
                "code" : "0x",
                "nonce" : "0x00",
                "storage" : {
                }
            },
            "0x55d786df68385b59b919e0bfee2a8ada2d23ecf8" : {
                "balance" : "0x7fffffffffffffff",
                "code" : "0x",
                "nonce" : "0x00",
                "storage" : {
                }
            },
            "0xa94f5374fce5edbc8e2a8697c15331677e6ebf0b" : {
                "balance" : "0x7fffffffffffffff",
                "code" : "0x",
                "nonce" : "0x00",
                "storage" : {
                }
            }
        },
        "genesisBlockHeader" : {
            "bloom" : "0x00000000000000000000000000000000000000000000000000000000000000000000000000000000000000000000000000000000000000000000000000000000000000000000000000000000000000000000000000000000000000000000000000000000000000000000000000000000000000000000000000000000000000000000000000000000000000000000000000000000000000000000000000000000000000000000000000000000000000000000000000000000000000000000000000000000000000000000000000000000000000000000000000000000000000000000000000000000000000000000000000000000000000000000000000000000",
            "coinbase" : "0x2adc25665018aa1fe0e6bc666dac8fc2697ff9ba",
            "difficulty" : "0x020000",
            "extraData" : "0x42",
            "gasLimit" : "0x7fffffffffffffff",
            "gasUsed" : "0x00",
            "hash" : "0xae9de4e543f316e4f33e4771f033cbf18f03e26ff6f550c0e7e93a16b5dccdae",
            "mixHash" : "0x0000000000000000000000000000000000000000000000000000000000000000",
            "nonce" : "0x0000000000000000",
            "number" : "0x00",
            "parentHash" : "0x0000000000000000000000000000000000000000000000000000000000000000",
            "receiptTrie" : "0x56e81f171bcc55a6ff8345e692c0f86e5b48e01b996cadc001622fb5e363b421",
            "stateRoot" : "0x8d1fc301a8e59996554755b967f32086fefa26af0eb2494b27c2b7ce600a7eb4",
            "timestamp" : "0x03b6",
            "transactionsTrie" : "0x56e81f171bcc55a6ff8345e692c0f86e5b48e01b996cadc001622fb5e363b421",
            "uncleHash" : "0x1dcc4de8dec75d7aab85b567b6ccd41ad312451b948a7413f0a142fd40d49347",
            "baseFee" : "0x10"
        },
        "genesisRLP" : "0xf90200f901fba00000000000000000000000000000000000000000000000000000000000000000a01dcc4de8dec75d7aab85b567b6ccd41ad312451b948a7413f0a142fd40d49347942adc25665018aa1fe0e6bc666dac8fc2697ff9baa08d1fc301a8e59996554755b967f32086fefa26af0eb2494b27c2b7ce600a7eb4a056e81f171bcc55a6ff8345e692c0f86e5b48e01b996cadc001622fb5e363b421a056e81f171bcc55a6ff8345e692c0f86e5b48e01b996cadc001622fb5e363b421b90100000000000000000000000000000000000000000000000000000000000000000000000000000000000000000000000000000000000000000000000000000000000000000000000000000000000000000000000000000000000000000000000000000000000000000000000000000000000000000000000000000000000000000000000000000000000000000000000000000000000000000000000000000000000000000000000000000000000000000000000000000000000000000000000000000000000000000000000000000000000000000000000000000000000000000000000000000000000000000000000000000000000000000000000000000000008302000080887fffffffffffffff808203b642a0000000000000000000000000000000000000000000000000000000000000000088000000000000000010c0c0",
        "blocks" : [
            {
                "chainname" : "default",
                "blocknumber" : "1",
                "uncleHeaders" : [
                ],
                "blockHeader" : {
                    "bloom" : "0x00000000000000000000000000000000000000000000000000000000000000000000000000000000000000000000000000000000000000000000000000000000000000000000000000000000000000000000000000000000000000000000000000000000000000000000000000000000000000000000000000000000000000000000000000000000000000000000000000000000000000000000000000000000000000000000000000000000000000000000000000000000000000000000000000000000000000000000000000000000000000000000000000000000000000000000000000000000000000000000000000000000000000000000000000000000",
                    "coinbase" : "0x2adc25665018aa1fe0e6bc666dac8fc2697ff9ba",
                    "difficulty" : "0x020000",
                    "extraData" : "0x42",
                    "gasLimit" : "0x7fffffffffffffff",
                    "gasUsed" : "0x01e884",
                    "hash" : "0x7e024b26285452ccb5e02c3dfe8a9e42bf5d597559a3043ff5960f865146a9fa",
                    "mixHash" : "0x0000000000000000000000000000000000000000000000000000000000000000",
                    "nonce" : "0x0000000000000000",
                    "number" : "0x01",
                    "parentHash" : "0xae9de4e543f316e4f33e4771f033cbf18f03e26ff6f550c0e7e93a16b5dccdae",
                    "receiptTrie" : "0xdabfd8655b94abbfee33cb3881810d01163119e66d476a1079a6bbe11e4fc276",
                    "stateRoot" : "0xb08c66bf9eb7debd1932a87ae439f5988db33d80807bd8fa69b6ab4b58f44bb3",
                    "timestamp" : "0x079e",
                    "transactionsTrie" : "0x7f06626288d8c93e0a9a35928d4a2ceaae325b35df73a21203555bc4e6803f4e",
                    "uncleHash" : "0x1dcc4de8dec75d7aab85b567b6ccd41ad312451b948a7413f0a142fd40d49347",
                    "baseFee" : "0x0e"
                },
                "transactions" : [
                    {
                        "data" : "0x",
                        "gasLimit" : "0x0249f0",
                        "gasPrice" : "0x03e8",
                        "nonce" : "0x00",
                        "r" : "0x36fd4f85802471f3ca398acbc42cd94eb622f8e84a29b2aed321c9a1a08c70a2",
                        "s" : "0x727f67e64d733d1b6fd6e875ff4640104187cdc0107b35e47a034f719e1cffe7",
                        "to" : "0x1000000000000000000000000000000000000000",
                        "v" : "0x1c",
                        "value" : "0x01"
                    },
                    {
                        "data" : "0x",
                        "gasLimit" : "0x0f4240",
                        "gasPrice" : "0x03e8",
                        "nonce" : "0x00",
                        "r" : "0x8a21ae3da32ba93164b7ffc41c19fcb3eca5e13966b6ccfe1eb67665e1d683d3",
                        "s" : "0x44ba0667ad0e394d97058ee335ecac2c536c8b30b3696428055bdad5cd2c050e",
                        "to" : "0x1000000000000000000000000000000000000001",
                        "v" : "0x1c",
                        "value" : "0x01"
                    },
                    {
                        "data" : "0x",
                        "gasLimit" : "0x0ee6b280",
                        "gasPrice" : "0x03e8",
                        "nonce" : "0x00",
                        "r" : "0xb3a72d78cad07bfcee68190e2133266daf3c91dc558e73a78c80cac2d92a908d",
                        "s" : "0x5a70e7b9b7757564d7a562eaa8487692785dc9cfaf821a48fcac7bd18d9ed53b",
                        "to" : "0x1000000000000000000000000000000000000002",
                        "v" : "0x1c",
                        "value" : "0x01"
                    }
                ],
                "rlp" : "0xf90332f901fea0ae9de4e543f316e4f33e4771f033cbf18f03e26ff6f550c0e7e93a16b5dccdaea01dcc4de8dec75d7aab85b567b6ccd41ad312451b948a7413f0a142fd40d49347942adc25665018aa1fe0e6bc666dac8fc2697ff9baa0b08c66bf9eb7debd1932a87ae439f5988db33d80807bd8fa69b6ab4b58f44bb3a07f06626288d8c93e0a9a35928d4a2ceaae325b35df73a21203555bc4e6803f4ea0dabfd8655b94abbfee33cb3881810d01163119e66d476a1079a6bbe11e4fc276b90100000000000000000000000000000000000000000000000000000000000000000000000000000000000000000000000000000000000000000000000000000000000000000000000000000000000000000000000000000000000000000000000000000000000000000000000000000000000000000000000000000000000000000000000000000000000000000000000000000000000000000000000000000000000000000000000000000000000000000000000000000000000000000000000000000000000000000000000000000000000000000000000000000000000000000000000000000000000000000000000000000000000000000000000000000000008302000001887fffffffffffffff8301e88482079e42a000000000000000000000000000000000000000000000000000000000000000008800000000000000000ef9012df862808203e8830249f094100000000000000000000000000000000000000001801ca036fd4f85802471f3ca398acbc42cd94eb622f8e84a29b2aed321c9a1a08c70a2a0727f67e64d733d1b6fd6e875ff4640104187cdc0107b35e47a034f719e1cffe7f862808203e8830f424094100000000000000000000000000000000000000101801ca08a21ae3da32ba93164b7ffc41c19fcb3eca5e13966b6ccfe1eb67665e1d683d3a044ba0667ad0e394d97058ee335ecac2c536c8b30b3696428055bdad5cd2c050ef863808203e8840ee6b28094100000000000000000000000000000000000000201801ca0b3a72d78cad07bfcee68190e2133266daf3c91dc558e73a78c80cac2d92a908da05a70e7b9b7757564d7a562eaa8487692785dc9cfaf821a48fcac7bd18d9ed53bc0"
            }
        ],
        "postState" : {
            "0x1000000000000000000000000000000000000000" : {
                "code" : "0x60004060005563ffffffff4060015567ffffffffffffffff406002556fffffffffffffffffffffffffffffffff406003557fffffffffffffffffffffffffffffffffffffffffffffffffffffffffffffffff40600455",
                "nonce" : "0x00",
                "balance" : "0x01",
                "storage" : {
                    "0x00" : "0xae9de4e543f316e4f33e4771f033cbf18f03e26ff6f550c0e7e93a16b5dccdae"
                }
            },
            "0x1000000000000000000000000000000000000001" : {
                "code" : "0x60004060005563ffffffff4060015567ffffffffffffffff406002556fffffffffffffffffffffffffffffffff406003557fffffffffffffffffffffffffffffffffffffffffffffffffffffffffffffffff40600455",
                "nonce" : "0x00",
                "balance" : "0x01",
                "storage" : {
                    "0x00" : "0xae9de4e543f316e4f33e4771f033cbf18f03e26ff6f550c0e7e93a16b5dccdae"
                }
            },
            "0x1000000000000000000000000000000000000002" : {
                "code" : "0x",
                "nonce" : "0x00",
                "balance" : "0x01",
                "storage" : {
                }
            },
            "0x2adc25665018aa1fe0e6bc666dac8fc2697ff9ba" : {
                "code" : "0x",
                "nonce" : "0x00",
                "balance" : "0x1bc16d6756218c68",
                "storage" : {
                }
            },
            "0x37c5d39d78433a054b0a470ade8ac1998abfcc06" : {
                "code" : "0x",
                "nonce" : "0x01",
                "balance" : "0x7ffffffffebf90be",
                "storage" : {
                }
            },
            "0x55d786df68385b59b919e0bfee2a8ada2d23ecf8" : {
                "code" : "0x",
                "nonce" : "0x01",
                "balance" : "0x7ffffffffce615ce",
                "storage" : {
                }
            },
            "0xa94f5374fce5edbc8e2a8697c15331677e6ebf0b" : {
                "code" : "0x",
                "nonce" : "0x01",
                "balance" : "0x7ffffffffce615ce",
                "storage" : {
                }
            }
        },
        "lastblockhash" : "0x7e024b26285452ccb5e02c3dfe8a9e42bf5d597559a3043ff5960f865146a9fa"
    }
}