{
    "OverflowGasRequire_Berlin" : {
        "_info" : {
            "comment" : "check a case where gaslimit overflow happens. transaction must be rejected. must be a blockchain test.",
            "filling-rpc-server" : "evm version 1.10.4-unstable-950d99c2-20210602",
            "filling-tool-version" : "retesteth-0.1.1-eip1559+commit.f73cc4a0.Linux.g++",
            "lllcversion" : "Version: 0.5.14-develop.2021.5.18+commit.14c9d5de.mod.Linux.g++",
            "source" : "src/BlockchainTestsFiller/ValidBlocks/bcStateTests/OverflowGasRequireFiller.json",
            "sourceHash" : "c51aed63cdd5ce16dab8a871423640c0143e729c238734921a13ff9e83ee31d0"
        },
        "sealEngine" : "NoProof",
        "network" : "Berlin",
        "pre" : {
            "0xa94f5374fce5edbc8e2a8697c15331677e6ebf0b" : {
                "balance" : "0xffffffffffffffffffffffffffffffffffffffffffffffffffffffffffffffff",
                "code" : "0x",
                "nonce" : "0x00",
                "storage" : {
                }
            }
        },
        "genesisBlockHeader" : {
            "bloom" : "0x00000000000000000000000000000000000000000000000000000000000000000000000000000000000000000000000000000000000000000000000000000000000000000000000000000000000000000000000000000000000000000000000000000000000000000000000000000000000000000000000000000000000000000000000000000000000000000000000000000000000000000000000000000000000000000000000000000000000000000000000000000000000000000000000000000000000000000000000000000000000000000000000000000000000000000000000000000000000000000000000000000000000000000000000000000000",
            "coinbase" : "0x2adc25665018aa1fe0e6bc666dac8fc2697ff9ba",
            "difficulty" : "0x020000",
            "extraData" : "0x42",
            "gasLimit" : "0x7fffffffffffffff",
            "gasUsed" : "0x00",
            "hash" : "0xd932f1d3e0742f296b6d79889c00d2916b4f27716babc9759293d1c94148d234",
            "mixHash" : "0x0000000000000000000000000000000000000000000000000000000000000000",
            "nonce" : "0x0000000000000000",
            "number" : "0x00",
            "parentHash" : "0x0000000000000000000000000000000000000000000000000000000000000000",
            "receiptTrie" : "0x56e81f171bcc55a6ff8345e692c0f86e5b48e01b996cadc001622fb5e363b421",
            "stateRoot" : "0x21e74bd5b4b29e241d402d6d7483d050bbdfcf2ae943522c2875c3f293e1ce70",
            "timestamp" : "0x03e8",
            "transactionsTrie" : "0x56e81f171bcc55a6ff8345e692c0f86e5b48e01b996cadc001622fb5e363b421",
            "uncleHash" : "0x1dcc4de8dec75d7aab85b567b6ccd41ad312451b948a7413f0a142fd40d49347"
        },
        "genesisRLP" : "0xf901fff901faa00000000000000000000000000000000000000000000000000000000000000000a01dcc4de8dec75d7aab85b567b6ccd41ad312451b948a7413f0a142fd40d49347942adc25665018aa1fe0e6bc666dac8fc2697ff9baa021e74bd5b4b29e241d402d6d7483d050bbdfcf2ae943522c2875c3f293e1ce70a056e81f171bcc55a6ff8345e692c0f86e5b48e01b996cadc001622fb5e363b421a056e81f171bcc55a6ff8345e692c0f86e5b48e01b996cadc001622fb5e363b421b90100000000000000000000000000000000000000000000000000000000000000000000000000000000000000000000000000000000000000000000000000000000000000000000000000000000000000000000000000000000000000000000000000000000000000000000000000000000000000000000000000000000000000000000000000000000000000000000000000000000000000000000000000000000000000000000000000000000000000000000000000000000000000000000000000000000000000000000000000000000000000000000000000000000000000000000000000000000000000000000000000000000000000000000000000000000008302000080887fffffffffffffff808203e842a00000000000000000000000000000000000000000000000000000000000000000880000000000000000c0c0",
        "blocks" : [
            {
                "chainname" : "default",
                "blocknumber" : "1",
                "uncleHeaders" : [
                ],
                "blockHeader" : {
                    "bloom" : "0x00000000000000000000000000000000000000000000000000000000000000000000000000000000000000000000000000000000000000000000000000000000000000000000000000000000000000000000000000000000000000000000000000000000000000000000000000000000000000000000000000000000000000000000000000000000000000000000000000000000000000000000000000000000000000000000000000000000000000000000000000000000000000000000000000000000000000000000000000000000000000000000000000000000000000000000000000000000000000000000000000000000000000000000000000000000",
                    "coinbase" : "0x2adc25665018aa1fe0e6bc666dac8fc2697ff9ba",
                    "difficulty" : "0x020000",
                    "extraData" : "0x42",
                    "gasLimit" : "0x7fffffffffffffff",
                    "gasUsed" : "0x5288",
                    "hash" : "0xb62d79bfd0f032fdb175ce3cbbe1883420e1f4f370e8033d454852ca7bf0d5a9",
                    "mixHash" : "0x0000000000000000000000000000000000000000000000000000000000000000",
                    "nonce" : "0x0000000000000000",
                    "number" : "0x01",
                    "parentHash" : "0xd932f1d3e0742f296b6d79889c00d2916b4f27716babc9759293d1c94148d234",
                    "receiptTrie" : "0x26b8f9256c4c32d39bc89cb0d1abf07f52355e8648fba5ef69b7fb0e3707513e",
                    "stateRoot" : "0xe83a2dadfb6b49f80cda092cb4350eabb82a2fd36cad01d3669578b315204307",
                    "timestamp" : "0x07d0",
                    "transactionsTrie" : "0xdd430bd56648885223e6450d864e1853811947c8a577a9eac10bdf2839306031",
                    "uncleHash" : "0x1dcc4de8dec75d7aab85b567b6ccd41ad312451b948a7413f0a142fd40d49347"
                },
                "transactions" : [
                    {
                        "data" : "0x3240349548983454",
                        "gasLimit" : "0x7ffffffffffffff0",
                        "gasPrice" : "0x7fffffffffffffff",
                        "nonce" : "0x00",
                        "r" : "0xe44e9c34263c63d78c52cf03d912b808b9cda48075bc46611e679e954a97c535",
                        "s" : "0x3f5e83ab038566962412fb481ad1c5e6808a7ec983e0c84149bbf97b5216575c",
                        "to" : "0xb94f5374fce5edbc8e2a8697c15331677e6ebf0b",
                        "v" : "0x1c",
                        "value" : "0x00"
                    }
                ],
                "rlp" : "0xf90279f901fca0d932f1d3e0742f296b6d79889c00d2916b4f27716babc9759293d1c94148d234a01dcc4de8dec75d7aab85b567b6ccd41ad312451b948a7413f0a142fd40d49347942adc25665018aa1fe0e6bc666dac8fc2697ff9baa0e83a2dadfb6b49f80cda092cb4350eabb82a2fd36cad01d3669578b315204307a0dd430bd56648885223e6450d864e1853811947c8a577a9eac10bdf2839306031a026b8f9256c4c32d39bc89cb0d1abf07f52355e8648fba5ef69b7fb0e3707513eb90100000000000000000000000000000000000000000000000000000000000000000000000000000000000000000000000000000000000000000000000000000000000000000000000000000000000000000000000000000000000000000000000000000000000000000000000000000000000000000000000000000000000000000000000000000000000000000000000000000000000000000000000000000000000000000000000000000000000000000000000000000000000000000000000000000000000000000000000000000000000000000000000000000000000000000000000000000000000000000000000000000000000000000000000000000000008302000001887fffffffffffffff8252888207d042a00000000000000000000000000000000000000000000000000000000000000000880000000000000000f877f87580887fffffffffffffff887ffffffffffffff094b94f5374fce5edbc8e2a8697c15331677e6ebf0b808832403495489834541ca0e44e9c34263c63d78c52cf03d912b808b9cda48075bc46611e679e954a97c535a03f5e83ab038566962412fb481ad1c5e6808a7ec983e0c84149bbf97b5216575cc0"
            }
        ],
        "postState" : {
            "0x2adc25665018aa1fe0e6bc666dac8fc2697ff9ba" : {
                "code" : "0x",
                "nonce" : "0x00",
                "balance" : "0x29441bc16d674ec7ad78",
                "storage" : {
                }
            },
            "0xa94f5374fce5edbc8e2a8697c15331677e6ebf0b" : {
                "code" : "0x",
                "nonce" : "0x01",
                "balance" : "0xffffffffffffffffffffffffffffffffffffffffffffd6bc0000000000005287",
                "storage" : {
                }
            }
        },
        "lastblockhash" : "0xb62d79bfd0f032fdb175ce3cbbe1883420e1f4f370e8033d454852ca7bf0d5a9"
    },
    "OverflowGasRequire_Istanbul" : {
        "_info" : {
            "comment" : "check a case where gaslimit overflow happens. transaction must be rejected. must be a blockchain test.",
            "filling-rpc-server" : "evm version 1.10.4-unstable-950d99c2-20210602",
            "filling-tool-version" : "retesteth-0.1.1-eip1559+commit.f73cc4a0.Linux.g++",
            "lllcversion" : "Version: 0.5.14-develop.2021.5.18+commit.14c9d5de.mod.Linux.g++",
            "source" : "src/BlockchainTestsFiller/ValidBlocks/bcStateTests/OverflowGasRequireFiller.json",
            "sourceHash" : "c51aed63cdd5ce16dab8a871423640c0143e729c238734921a13ff9e83ee31d0"
        },
        "sealEngine" : "NoProof",
        "network" : "Istanbul",
        "pre" : {
            "0xa94f5374fce5edbc8e2a8697c15331677e6ebf0b" : {
                "balance" : "0xffffffffffffffffffffffffffffffffffffffffffffffffffffffffffffffff",
                "code" : "0x",
                "nonce" : "0x00",
                "storage" : {
                }
            }
        },
        "genesisBlockHeader" : {
            "bloom" : "0x00000000000000000000000000000000000000000000000000000000000000000000000000000000000000000000000000000000000000000000000000000000000000000000000000000000000000000000000000000000000000000000000000000000000000000000000000000000000000000000000000000000000000000000000000000000000000000000000000000000000000000000000000000000000000000000000000000000000000000000000000000000000000000000000000000000000000000000000000000000000000000000000000000000000000000000000000000000000000000000000000000000000000000000000000000000",
            "coinbase" : "0x2adc25665018aa1fe0e6bc666dac8fc2697ff9ba",
            "difficulty" : "0x020000",
            "extraData" : "0x42",
            "gasLimit" : "0x7fffffffffffffff",
            "gasUsed" : "0x00",
            "hash" : "0xd932f1d3e0742f296b6d79889c00d2916b4f27716babc9759293d1c94148d234",
            "mixHash" : "0x0000000000000000000000000000000000000000000000000000000000000000",
            "nonce" : "0x0000000000000000",
            "number" : "0x00",
            "parentHash" : "0x0000000000000000000000000000000000000000000000000000000000000000",
            "receiptTrie" : "0x56e81f171bcc55a6ff8345e692c0f86e5b48e01b996cadc001622fb5e363b421",
            "stateRoot" : "0x21e74bd5b4b29e241d402d6d7483d050bbdfcf2ae943522c2875c3f293e1ce70",
            "timestamp" : "0x03e8",
            "transactionsTrie" : "0x56e81f171bcc55a6ff8345e692c0f86e5b48e01b996cadc001622fb5e363b421",
            "uncleHash" : "0x1dcc4de8dec75d7aab85b567b6ccd41ad312451b948a7413f0a142fd40d49347"
        },
        "genesisRLP" : "0xf901fff901faa00000000000000000000000000000000000000000000000000000000000000000a01dcc4de8dec75d7aab85b567b6ccd41ad312451b948a7413f0a142fd40d49347942adc25665018aa1fe0e6bc666dac8fc2697ff9baa021e74bd5b4b29e241d402d6d7483d050bbdfcf2ae943522c2875c3f293e1ce70a056e81f171bcc55a6ff8345e692c0f86e5b48e01b996cadc001622fb5e363b421a056e81f171bcc55a6ff8345e692c0f86e5b48e01b996cadc001622fb5e363b421b90100000000000000000000000000000000000000000000000000000000000000000000000000000000000000000000000000000000000000000000000000000000000000000000000000000000000000000000000000000000000000000000000000000000000000000000000000000000000000000000000000000000000000000000000000000000000000000000000000000000000000000000000000000000000000000000000000000000000000000000000000000000000000000000000000000000000000000000000000000000000000000000000000000000000000000000000000000000000000000000000000000000000000000000000000000000008302000080887fffffffffffffff808203e842a00000000000000000000000000000000000000000000000000000000000000000880000000000000000c0c0",
        "blocks" : [
            {
                "chainname" : "default",
                "blocknumber" : "1",
                "uncleHeaders" : [
                ],
                "blockHeader" : {
                    "bloom" : "0x00000000000000000000000000000000000000000000000000000000000000000000000000000000000000000000000000000000000000000000000000000000000000000000000000000000000000000000000000000000000000000000000000000000000000000000000000000000000000000000000000000000000000000000000000000000000000000000000000000000000000000000000000000000000000000000000000000000000000000000000000000000000000000000000000000000000000000000000000000000000000000000000000000000000000000000000000000000000000000000000000000000000000000000000000000000",
                    "coinbase" : "0x2adc25665018aa1fe0e6bc666dac8fc2697ff9ba",
                    "difficulty" : "0x020000",
                    "extraData" : "0x42",
                    "gasLimit" : "0x7fffffffffffffff",
                    "gasUsed" : "0x5288",
                    "hash" : "0xb62d79bfd0f032fdb175ce3cbbe1883420e1f4f370e8033d454852ca7bf0d5a9",
                    "mixHash" : "0x0000000000000000000000000000000000000000000000000000000000000000",
                    "nonce" : "0x0000000000000000",
                    "number" : "0x01",
                    "parentHash" : "0xd932f1d3e0742f296b6d79889c00d2916b4f27716babc9759293d1c94148d234",
                    "receiptTrie" : "0x26b8f9256c4c32d39bc89cb0d1abf07f52355e8648fba5ef69b7fb0e3707513e",
                    "stateRoot" : "0xe83a2dadfb6b49f80cda092cb4350eabb82a2fd36cad01d3669578b315204307",
                    "timestamp" : "0x07d0",
                    "transactionsTrie" : "0xdd430bd56648885223e6450d864e1853811947c8a577a9eac10bdf2839306031",
                    "uncleHash" : "0x1dcc4de8dec75d7aab85b567b6ccd41ad312451b948a7413f0a142fd40d49347"
                },
                "transactions" : [
                    {
                        "data" : "0x3240349548983454",
                        "gasLimit" : "0x7ffffffffffffff0",
                        "gasPrice" : "0x7fffffffffffffff",
                        "nonce" : "0x00",
                        "r" : "0xe44e9c34263c63d78c52cf03d912b808b9cda48075bc46611e679e954a97c535",
                        "s" : "0x3f5e83ab038566962412fb481ad1c5e6808a7ec983e0c84149bbf97b5216575c",
                        "to" : "0xb94f5374fce5edbc8e2a8697c15331677e6ebf0b",
                        "v" : "0x1c",
                        "value" : "0x00"
                    }
                ],
                "rlp" : "0xf90279f901fca0d932f1d3e0742f296b6d79889c00d2916b4f27716babc9759293d1c94148d234a01dcc4de8dec75d7aab85b567b6ccd41ad312451b948a7413f0a142fd40d49347942adc25665018aa1fe0e6bc666dac8fc2697ff9baa0e83a2dadfb6b49f80cda092cb4350eabb82a2fd36cad01d3669578b315204307a0dd430bd56648885223e6450d864e1853811947c8a577a9eac10bdf2839306031a026b8f9256c4c32d39bc89cb0d1abf07f52355e8648fba5ef69b7fb0e3707513eb90100000000000000000000000000000000000000000000000000000000000000000000000000000000000000000000000000000000000000000000000000000000000000000000000000000000000000000000000000000000000000000000000000000000000000000000000000000000000000000000000000000000000000000000000000000000000000000000000000000000000000000000000000000000000000000000000000000000000000000000000000000000000000000000000000000000000000000000000000000000000000000000000000000000000000000000000000000000000000000000000000000000000000000000000000000000008302000001887fffffffffffffff8252888207d042a00000000000000000000000000000000000000000000000000000000000000000880000000000000000f877f87580887fffffffffffffff887ffffffffffffff094b94f5374fce5edbc8e2a8697c15331677e6ebf0b808832403495489834541ca0e44e9c34263c63d78c52cf03d912b808b9cda48075bc46611e679e954a97c535a03f5e83ab038566962412fb481ad1c5e6808a7ec983e0c84149bbf97b5216575cc0"
            }
        ],
        "postState" : {
            "0x2adc25665018aa1fe0e6bc666dac8fc2697ff9ba" : {
                "code" : "0x",
                "nonce" : "0x00",
                "balance" : "0x29441bc16d674ec7ad78",
                "storage" : {
                }
            },
            "0xa94f5374fce5edbc8e2a8697c15331677e6ebf0b" : {
                "code" : "0x",
                "nonce" : "0x01",
                "balance" : "0xffffffffffffffffffffffffffffffffffffffffffffd6bc0000000000005287",
                "storage" : {
                }
            }
        },
        "lastblockhash" : "0xb62d79bfd0f032fdb175ce3cbbe1883420e1f4f370e8033d454852ca7bf0d5a9"
    },
    "OverflowGasRequire_London" : {
        "_info" : {
            "comment" : "check a case where gaslimit overflow happens. transaction must be rejected. must be a blockchain test.",
            "filling-rpc-server" : "evm version 1.10.4-unstable-950d99c2-20210602",
            "filling-tool-version" : "retesteth-0.1.1-eip1559+commit.f73cc4a0.Linux.g++",
            "lllcversion" : "Version: 0.5.14-develop.2021.5.18+commit.14c9d5de.mod.Linux.g++",
            "source" : "src/BlockchainTestsFiller/ValidBlocks/bcStateTests/OverflowGasRequireFiller.json",
            "sourceHash" : "c51aed63cdd5ce16dab8a871423640c0143e729c238734921a13ff9e83ee31d0"
        },
        "sealEngine" : "NoProof",
        "network" : "London",
        "pre" : {
            "0xa94f5374fce5edbc8e2a8697c15331677e6ebf0b" : {
                "balance" : "0xffffffffffffffffffffffffffffffffffffffffffffffffffffffffffffffff",
                "code" : "0x",
                "nonce" : "0x00",
                "storage" : {
                }
            }
        },
        "genesisBlockHeader" : {
            "bloom" : "0x00000000000000000000000000000000000000000000000000000000000000000000000000000000000000000000000000000000000000000000000000000000000000000000000000000000000000000000000000000000000000000000000000000000000000000000000000000000000000000000000000000000000000000000000000000000000000000000000000000000000000000000000000000000000000000000000000000000000000000000000000000000000000000000000000000000000000000000000000000000000000000000000000000000000000000000000000000000000000000000000000000000000000000000000000000000",
            "coinbase" : "0x2adc25665018aa1fe0e6bc666dac8fc2697ff9ba",
            "difficulty" : "0x020000",
            "extraData" : "0x42",
            "gasLimit" : "0x7fffffffffffffff",
            "gasUsed" : "0x00",
            "hash" : "0xcb3db2f2cf97e2d0d39dae167f6523a742a6383a27bcda02578da47928b2b4e8",
            "mixHash" : "0x0000000000000000000000000000000000000000000000000000000000000000",
            "nonce" : "0x0000000000000000",
            "number" : "0x00",
            "parentHash" : "0x0000000000000000000000000000000000000000000000000000000000000000",
            "receiptTrie" : "0x56e81f171bcc55a6ff8345e692c0f86e5b48e01b996cadc001622fb5e363b421",
            "stateRoot" : "0x21e74bd5b4b29e241d402d6d7483d050bbdfcf2ae943522c2875c3f293e1ce70",
            "timestamp" : "0x03e8",
            "transactionsTrie" : "0x56e81f171bcc55a6ff8345e692c0f86e5b48e01b996cadc001622fb5e363b421",
            "uncleHash" : "0x1dcc4de8dec75d7aab85b567b6ccd41ad312451b948a7413f0a142fd40d49347",
            "baseFee" : "0x10"
        },
        "genesisRLP" : "0xf90200f901fba00000000000000000000000000000000000000000000000000000000000000000a01dcc4de8dec75d7aab85b567b6ccd41ad312451b948a7413f0a142fd40d49347942adc25665018aa1fe0e6bc666dac8fc2697ff9baa021e74bd5b4b29e241d402d6d7483d050bbdfcf2ae943522c2875c3f293e1ce70a056e81f171bcc55a6ff8345e692c0f86e5b48e01b996cadc001622fb5e363b421a056e81f171bcc55a6ff8345e692c0f86e5b48e01b996cadc001622fb5e363b421b90100000000000000000000000000000000000000000000000000000000000000000000000000000000000000000000000000000000000000000000000000000000000000000000000000000000000000000000000000000000000000000000000000000000000000000000000000000000000000000000000000000000000000000000000000000000000000000000000000000000000000000000000000000000000000000000000000000000000000000000000000000000000000000000000000000000000000000000000000000000000000000000000000000000000000000000000000000000000000000000000000000000000000000000000000000000008302000080887fffffffffffffff808203e842a0000000000000000000000000000000000000000000000000000000000000000088000000000000000010c0c0",
        "blocks" : [
            {
                "chainname" : "default",
                "blocknumber" : "1",
                "uncleHeaders" : [
                ],
                "blockHeader" : {
                    "bloom" : "0x00000000000000000000000000000000000000000000000000000000000000000000000000000000000000000000000000000000000000000000000000000000000000000000000000000000000000000000000000000000000000000000000000000000000000000000000000000000000000000000000000000000000000000000000000000000000000000000000000000000000000000000000000000000000000000000000000000000000000000000000000000000000000000000000000000000000000000000000000000000000000000000000000000000000000000000000000000000000000000000000000000000000000000000000000000000",
                    "coinbase" : "0x2adc25665018aa1fe0e6bc666dac8fc2697ff9ba",
                    "difficulty" : "0x020000",
                    "extraData" : "0x42",
                    "gasLimit" : "0x7fffffffffffffff",
                    "gasUsed" : "0x5288",
                    "hash" : "0x408813160c2fe00cb51a58b0ec3ba7c724358a8701001d41152b9d56110aecec",
                    "mixHash" : "0x0000000000000000000000000000000000000000000000000000000000000000",
                    "nonce" : "0x0000000000000000",
                    "number" : "0x01",
                    "parentHash" : "0xcb3db2f2cf97e2d0d39dae167f6523a742a6383a27bcda02578da47928b2b4e8",
                    "receiptTrie" : "0x26b8f9256c4c32d39bc89cb0d1abf07f52355e8648fba5ef69b7fb0e3707513e",
                    "stateRoot" : "0x435dc15d452a9c1d95cb6d2b3049a3e086a61d8b6086a43580d7c8f4b1b09eaa",
                    "timestamp" : "0x07d0",
                    "transactionsTrie" : "0xdd430bd56648885223e6450d864e1853811947c8a577a9eac10bdf2839306031",
                    "uncleHash" : "0x1dcc4de8dec75d7aab85b567b6ccd41ad312451b948a7413f0a142fd40d49347",
                    "baseFee" : "0x0e"
                },
                "transactions" : [
                    {
                        "data" : "0x3240349548983454",
                        "gasLimit" : "0x7ffffffffffffff0",
                        "gasPrice" : "0x7fffffffffffffff",
                        "nonce" : "0x00",
                        "r" : "0xe44e9c34263c63d78c52cf03d912b808b9cda48075bc46611e679e954a97c535",
                        "s" : "0x3f5e83ab038566962412fb481ad1c5e6808a7ec983e0c84149bbf97b5216575c",
                        "to" : "0xb94f5374fce5edbc8e2a8697c15331677e6ebf0b",
                        "v" : "0x1c",
                        "value" : "0x00"
                    }
                ],
                "rlp" : "0xf9027af901fda0cb3db2f2cf97e2d0d39dae167f6523a742a6383a27bcda02578da47928b2b4e8a01dcc4de8dec75d7aab85b567b6ccd41ad312451b948a7413f0a142fd40d49347942adc25665018aa1fe0e6bc666dac8fc2697ff9baa0435dc15d452a9c1d95cb6d2b3049a3e086a61d8b6086a43580d7c8f4b1b09eaaa0dd430bd56648885223e6450d864e1853811947c8a577a9eac10bdf2839306031a026b8f9256c4c32d39bc89cb0d1abf07f52355e8648fba5ef69b7fb0e3707513eb90100000000000000000000000000000000000000000000000000000000000000000000000000000000000000000000000000000000000000000000000000000000000000000000000000000000000000000000000000000000000000000000000000000000000000000000000000000000000000000000000000000000000000000000000000000000000000000000000000000000000000000000000000000000000000000000000000000000000000000000000000000000000000000000000000000000000000000000000000000000000000000000000000000000000000000000000000000000000000000000000000000000000000000000000000000000008302000001887fffffffffffffff8252888207d042a000000000000000000000000000000000000000000000000000000000000000008800000000000000000ef877f87580887fffffffffffffff887ffffffffffffff094b94f5374fce5edbc8e2a8697c15331677e6ebf0b808832403495489834541ca0e44e9c34263c63d78c52cf03d912b808b9cda48075bc46611e679e954a97c535a03f5e83ab038566962412fb481ad1c5e6808a7ec983e0c84149bbf97b5216575cc0"
            }
        ],
        "postState" : {
            "0x2adc25665018aa1fe0e6bc666dac8fc2697ff9ba" : {
                "code" : "0x",
                "nonce" : "0x00",
                "balance" : "0x29441bc16d674ec32a08",
                "storage" : {
                }
            },
            "0xa94f5374fce5edbc8e2a8697c15331677e6ebf0b" : {
                "code" : "0x",
                "nonce" : "0x01",
                "balance" : "0xffffffffffffffffffffffffffffffffffffffffffffd6bc0000000000005287",
                "storage" : {
                }
            }
        },
        "lastblockhash" : "0x408813160c2fe00cb51a58b0ec3ba7c724358a8701001d41152b9d56110aecec"
    }
}