{
    "randomStatetest324_Berlin" : {
        "_info" : {
            "comment" : "",
            "filling-rpc-server" : "evm version 1.10.4-unstable-966ee3ae-20210528",
            "filling-tool-version" : "retesteth-0.1.1-eip1559+commit.658fc3a8.Linux.g++",
            "lllcversion" : "Version: 0.5.14-develop.2021.5.18+commit.14c9d5de.mod.Linux.g++",
            "source" : "src/BlockchainTestsFiller/ValidBlocks/bcStateTests/randomStatetest324Filler.json",
            "sourceHash" : "30f194d509829205ed0ec3f32d53fcbc631b240898802341a41bd88cefb8518f"
        },
        "sealEngine" : "NoProof",
        "network" : "Berlin",
        "pre" : {
            "0x095e7baea6a6c7c4c2dfeb977efac326af552d87" : {
                "balance" : "0x00",
                "code" : "0x7f00000000000000000000000000000000000000000000000000000000000000007f000000000000000000000000000000000000000000000000000000000000c3507f000000000000000000000000ffffffffffffffffffffffffffffffffffffffff827ffffffffffffffffffffffffffffffffffffffffffffffffffffffffffffffffe7f0000000000000000000000000000000000000000000000000000000000000001457fffffffffffffffffffffffffffffffffffffffffffffffffffffffffffffffff620a445643a20543a055",
                "nonce" : "0x00",
                "storage" : {
                }
            },
            "0x945304eb96065b2a98b57a48a06ae28d285a71b5" : {
                "balance" : "0x2e",
                "code" : "0x6000355415600957005b60203560003555",
                "nonce" : "0x00",
                "storage" : {
                }
            },
            "0xa94f5374fce5edbc8e2a8697c15331677e6ebf0b" : {
                "balance" : "0x0de0b6b3a7640000",
                "code" : "0x",
                "nonce" : "0x00",
                "storage" : {
                }
            }
        },
        "genesisBlockHeader" : {
            "bloom" : "0x00000000000000000000000000000000000000000000000000000000000000000000000000000000000000000000000000000000000000000000000000000000000000000000000000000000000000000000000000000000000000000000000000000000000000000000000000000000000000000000000000000000000000000000000000000000000000000000000000000000000000000000000000000000000000000000000000000000000000000000000000000000000000000000000000000000000000000000000000000000000000000000000000000000000000000000000000000000000000000000000000000000000000000000000000000000",
            "coinbase" : "0x945304eb96065b2a98b57a48a06ae28d285a71b5",
            "difficulty" : "0x020000",
            "extraData" : "0x42",
            "gasLimit" : "0x7fffffffffffffff",
            "gasUsed" : "0x00",
            "hash" : "0xab0903cc32ba6d484a2915861dbdb437edcb208b894c874ce469898c59e06ebf",
            "mixHash" : "0x0000000000000000000000000000000000000000000000000000000000000000",
            "nonce" : "0x0000000000000000",
            "number" : "0x00",
            "parentHash" : "0x0000000000000000000000000000000000000000000000000000000000000000",
            "receiptTrie" : "0x56e81f171bcc55a6ff8345e692c0f86e5b48e01b996cadc001622fb5e363b421",
            "stateRoot" : "0x682d96eaa167fb589dc964e43c276b9971b7a0e1cac8b877395d4e1b5bcff04b",
            "timestamp" : "0x03e8",
            "transactionsTrie" : "0x56e81f171bcc55a6ff8345e692c0f86e5b48e01b996cadc001622fb5e363b421",
            "uncleHash" : "0x1dcc4de8dec75d7aab85b567b6ccd41ad312451b948a7413f0a142fd40d49347"
        },
        "genesisRLP" : "0xf901fff901faa00000000000000000000000000000000000000000000000000000000000000000a01dcc4de8dec75d7aab85b567b6ccd41ad312451b948a7413f0a142fd40d4934794945304eb96065b2a98b57a48a06ae28d285a71b5a0682d96eaa167fb589dc964e43c276b9971b7a0e1cac8b877395d4e1b5bcff04ba056e81f171bcc55a6ff8345e692c0f86e5b48e01b996cadc001622fb5e363b421a056e81f171bcc55a6ff8345e692c0f86e5b48e01b996cadc001622fb5e363b421b90100000000000000000000000000000000000000000000000000000000000000000000000000000000000000000000000000000000000000000000000000000000000000000000000000000000000000000000000000000000000000000000000000000000000000000000000000000000000000000000000000000000000000000000000000000000000000000000000000000000000000000000000000000000000000000000000000000000000000000000000000000000000000000000000000000000000000000000000000000000000000000000000000000000000000000000000000000000000000000000000000000000000000000000000000000000008302000080887fffffffffffffff808203e842a00000000000000000000000000000000000000000000000000000000000000000880000000000000000c0c0",
        "blocks" : [
            {
                "chainname" : "default",
                "blocknumber" : "1",
                "uncleHeaders" : [
                ],
                "blockHeader" : {
                    "bloom" : "0x00000000000000001000000000000000000000000000000000000000000000000000000000000000000000000000000000000000000000000000000000000000000000000000000000000000000000000000000000000000000000000000000000000000000000000000000000000000000000000000000000000000000000200002000000000000000000000000000000000000000000000000000000000000000000000000000004000000000000000000000000000000000000000000000000000000000000200010000000000000000000000000000000000000000000000000000040000000000000000000000000000010000000400000000000000000",
                    "coinbase" : "0x945304eb96065b2a98b57a48a06ae28d285a71b5",
                    "difficulty" : "0x020000",
                    "extraData" : "0x42",
                    "gasLimit" : "0x7fffffffffffffff",
                    "gasUsed" : "0x60fcd0",
                    "hash" : "0x269c0263e7ab6cc9c9c23faa347a3dd802611f1d2b91d0f7dc98815f3d46efce",
                    "mixHash" : "0x0000000000000000000000000000000000000000000000000000000000000000",
                    "nonce" : "0x0000000000000000",
                    "number" : "0x01",
                    "parentHash" : "0xab0903cc32ba6d484a2915861dbdb437edcb208b894c874ce469898c59e06ebf",
                    "receiptTrie" : "0x073564d12141986a0f788b8342c8d046a80dbd00ed1af98b340a40d7fa1f0b75",
                    "stateRoot" : "0x50fde71db201022496a6e69442e7786ad5c307a2acc59b3489c6fd286d7d5fbd",
                    "timestamp" : "0x07d0",
                    "transactionsTrie" : "0xc5f68a3f62f28477c4511e88104f4416839620efbf2ec4436d4cf0da7e631d8d",
                    "uncleHash" : "0x1dcc4de8dec75d7aab85b567b6ccd41ad312451b948a7413f0a142fd40d49347"
                },
                "transactions" : [
                    {
                        "data" : "0x7f00000000000000000000000000000000000000000000000000000000000000007f000000000000000000000000000000000000000000000000000000000000c3507f000000000000000000000000ffffffffffffffffffffffffffffffffffffffff827ffffffffffffffffffffffffffffffffffffffffffffffffffffffffffffffffe7f0000000000000000000000000000000000000000000000000000000000000001457fffffffffffffffffffffffffffffffffffffffffffffffffffffffffffffffff620a445643a20543a0",
                        "gasLimit" : "0x7c24b3d2",
                        "gasPrice" : "0x03e8",
                        "nonce" : "0x00",
                        "r" : "0x0bc1e11f07e43bb277cdf791ab4a60a3231ca9e8548ffef45639e3b74dace267",
                        "s" : "0x570fcef35953307a6665ae45f14c41021f232c5d6641d02957f2297c11d5bad4",
                        "to" : "0x095e7baea6a6c7c4c2dfeb977efac326af552d87",
                        "v" : "0x1c",
                        "value" : "0x48353323"
                    }
                ],
                "rlp" : "0xf90340f901fda0ab0903cc32ba6d484a2915861dbdb437edcb208b894c874ce469898c59e06ebfa01dcc4de8dec75d7aab85b567b6ccd41ad312451b948a7413f0a142fd40d4934794945304eb96065b2a98b57a48a06ae28d285a71b5a050fde71db201022496a6e69442e7786ad5c307a2acc59b3489c6fd286d7d5fbda0c5f68a3f62f28477c4511e88104f4416839620efbf2ec4436d4cf0da7e631d8da0073564d12141986a0f788b8342c8d046a80dbd00ed1af98b340a40d7fa1f0b75b90100000000000000000010000000000000000000000000000000000000000000000000000000000000000000000000000000000000000000000000000000000000000000000000000000000000000000000000000000000000000000000000000000000000000000000000000000000000000000000000000000000000000000002000020000000000000000000000000000000000000000000000000000000000000000000000000000040000000000000000000000000000000000000000000000000000000000002000100000000000000000000000000000000000000000000000000000400000000000000000000000000000100000004000000000000000008302000001887fffffffffffffff8360fcd08207d042a00000000000000000000000000000000000000000000000000000000000000000880000000000000000f9013cf90139808203e8847c24b3d294095e7baea6a6c7c4c2dfeb977efac326af552d878448353323b8d17f00000000000000000000000000000000000000000000000000000000000000007f000000000000000000000000000000000000000000000000000000000000c3507f000000000000000000000000ffffffffffffffffffffffffffffffffffffffff827ffffffffffffffffffffffffffffffffffffffffffffffffffffffffffffffffe7f0000000000000000000000000000000000000000000000000000000000000001457fffffffffffffffffffffffffffffffffffffffffffffffffffffffffffffffff620a445643a20543a01ca00bc1e11f07e43bb277cdf791ab4a60a3231ca9e8548ffef45639e3b74dace267a0570fcef35953307a6665ae45f14c41021f232c5d6641d02957f2297c11d5bad4c0"
            }
        ],
        "postState" : {
            "0x095e7baea6a6c7c4c2dfeb977efac326af552d87" : {
                "code" : "0x7f00000000000000000000000000000000000000000000000000000000000000007f000000000000000000000000000000000000000000000000000000000000c3507f000000000000000000000000ffffffffffffffffffffffffffffffffffffffff827ffffffffffffffffffffffffffffffffffffffffffffffffffffffffffffffffe7f0000000000000000000000000000000000000000000000000000000000000001457fffffffffffffffffffffffffffffffffffffffffffffffffffffffffffffffff620a445643a20543a055",
                "nonce" : "0x00",
                "balance" : "0x48353323",
                "storage" : {
                    "0x00" : "0xffffffffffffffffffffffffffffffffffffffff"
                }
            },
            "0x945304eb96065b2a98b57a48a06ae28d285a71b5" : {
                "code" : "0x6000355415600957005b60203560003555",
                "nonce" : "0x00",
                "balance" : "0x1bc16d68c9a38cae",
                "storage" : {
                }
            },
            "0xa94f5374fce5edbc8e2a8697c15331677e6ebf0b" : {
                "code" : "0x",
                "nonce" : "0x01",
                "balance" : "0x0de0b6b1e453405d",
                "storage" : {
                }
            }
        },
        "lastblockhash" : "0x269c0263e7ab6cc9c9c23faa347a3dd802611f1d2b91d0f7dc98815f3d46efce"
    },
    "randomStatetest324_Istanbul" : {
        "_info" : {
            "comment" : "",
            "filling-rpc-server" : "evm version 1.10.4-unstable-966ee3ae-20210528",
            "filling-tool-version" : "retesteth-0.1.1-eip1559+commit.658fc3a8.Linux.g++",
            "lllcversion" : "Version: 0.5.14-develop.2021.5.18+commit.14c9d5de.mod.Linux.g++",
            "source" : "src/BlockchainTestsFiller/ValidBlocks/bcStateTests/randomStatetest324Filler.json",
            "sourceHash" : "30f194d509829205ed0ec3f32d53fcbc631b240898802341a41bd88cefb8518f"
        },
        "sealEngine" : "NoProof",
        "network" : "Istanbul",
        "pre" : {
            "0x095e7baea6a6c7c4c2dfeb977efac326af552d87" : {
                "balance" : "0x00",
                "code" : "0x7f00000000000000000000000000000000000000000000000000000000000000007f000000000000000000000000000000000000000000000000000000000000c3507f000000000000000000000000ffffffffffffffffffffffffffffffffffffffff827ffffffffffffffffffffffffffffffffffffffffffffffffffffffffffffffffe7f0000000000000000000000000000000000000000000000000000000000000001457fffffffffffffffffffffffffffffffffffffffffffffffffffffffffffffffff620a445643a20543a055",
                "nonce" : "0x00",
                "storage" : {
                }
            },
            "0x945304eb96065b2a98b57a48a06ae28d285a71b5" : {
                "balance" : "0x2e",
                "code" : "0x6000355415600957005b60203560003555",
                "nonce" : "0x00",
                "storage" : {
                }
            },
            "0xa94f5374fce5edbc8e2a8697c15331677e6ebf0b" : {
                "balance" : "0x0de0b6b3a7640000",
                "code" : "0x",
                "nonce" : "0x00",
                "storage" : {
                }
            }
        },
        "genesisBlockHeader" : {
            "bloom" : "0x00000000000000000000000000000000000000000000000000000000000000000000000000000000000000000000000000000000000000000000000000000000000000000000000000000000000000000000000000000000000000000000000000000000000000000000000000000000000000000000000000000000000000000000000000000000000000000000000000000000000000000000000000000000000000000000000000000000000000000000000000000000000000000000000000000000000000000000000000000000000000000000000000000000000000000000000000000000000000000000000000000000000000000000000000000000",
            "coinbase" : "0x945304eb96065b2a98b57a48a06ae28d285a71b5",
            "difficulty" : "0x020000",
            "extraData" : "0x42",
            "gasLimit" : "0x7fffffffffffffff",
            "gasUsed" : "0x00",
            "hash" : "0xab0903cc32ba6d484a2915861dbdb437edcb208b894c874ce469898c59e06ebf",
            "mixHash" : "0x0000000000000000000000000000000000000000000000000000000000000000",
            "nonce" : "0x0000000000000000",
            "number" : "0x00",
            "parentHash" : "0x0000000000000000000000000000000000000000000000000000000000000000",
            "receiptTrie" : "0x56e81f171bcc55a6ff8345e692c0f86e5b48e01b996cadc001622fb5e363b421",
            "stateRoot" : "0x682d96eaa167fb589dc964e43c276b9971b7a0e1cac8b877395d4e1b5bcff04b",
            "timestamp" : "0x03e8",
            "transactionsTrie" : "0x56e81f171bcc55a6ff8345e692c0f86e5b48e01b996cadc001622fb5e363b421",
            "uncleHash" : "0x1dcc4de8dec75d7aab85b567b6ccd41ad312451b948a7413f0a142fd40d49347"
        },
        "genesisRLP" : "0xf901fff901faa00000000000000000000000000000000000000000000000000000000000000000a01dcc4de8dec75d7aab85b567b6ccd41ad312451b948a7413f0a142fd40d4934794945304eb96065b2a98b57a48a06ae28d285a71b5a0682d96eaa167fb589dc964e43c276b9971b7a0e1cac8b877395d4e1b5bcff04ba056e81f171bcc55a6ff8345e692c0f86e5b48e01b996cadc001622fb5e363b421a056e81f171bcc55a6ff8345e692c0f86e5b48e01b996cadc001622fb5e363b421b90100000000000000000000000000000000000000000000000000000000000000000000000000000000000000000000000000000000000000000000000000000000000000000000000000000000000000000000000000000000000000000000000000000000000000000000000000000000000000000000000000000000000000000000000000000000000000000000000000000000000000000000000000000000000000000000000000000000000000000000000000000000000000000000000000000000000000000000000000000000000000000000000000000000000000000000000000000000000000000000000000000000000000000000000000000000008302000080887fffffffffffffff808203e842a00000000000000000000000000000000000000000000000000000000000000000880000000000000000c0c0",
        "blocks" : [
            {
                "chainname" : "default",
                "blocknumber" : "1",
                "uncleHeaders" : [
                ],
                "blockHeader" : {
                    "bloom" : "0x00000000000000001000000000000000000000000000000000000000000000000000000000000000000000000000000000000000000000000000000000000000000000000000000000000000000000000000000000000000000000000000000000000000000000000000000000000000000000000000000000000000000000200002000000000000000000000000000000000000000000000000000000000000000000000000000004000000000000000000000000000000000000000000000000000000000000200010000000000000000000000000000000000000000000000000000040000000000000000000000000000010000000400000000000000000",
                    "coinbase" : "0x945304eb96065b2a98b57a48a06ae28d285a71b5",
                    "difficulty" : "0x020000",
                    "extraData" : "0x42",
                    "gasLimit" : "0x7fffffffffffffff",
                    "gasUsed" : "0x60f49c",
                    "hash" : "0x09b81e1207fd5f81bd0fd05f06345cb54fbd4fca98634152a7e31c858e182d2a",
                    "mixHash" : "0x0000000000000000000000000000000000000000000000000000000000000000",
                    "nonce" : "0x0000000000000000",
                    "number" : "0x01",
                    "parentHash" : "0xab0903cc32ba6d484a2915861dbdb437edcb208b894c874ce469898c59e06ebf",
                    "receiptTrie" : "0x6c8928b322d57fb3956f77041b40e720288394474f71c3e95fb4b2ac3100bb34",
                    "stateRoot" : "0xc462ed38d63210197edceca02bf51f8a88bd42c4304d2b33c637fa952a83dd01",
                    "timestamp" : "0x07d0",
                    "transactionsTrie" : "0xc5f68a3f62f28477c4511e88104f4416839620efbf2ec4436d4cf0da7e631d8d",
                    "uncleHash" : "0x1dcc4de8dec75d7aab85b567b6ccd41ad312451b948a7413f0a142fd40d49347"
                },
                "transactions" : [
                    {
                        "data" : "0x7f00000000000000000000000000000000000000000000000000000000000000007f000000000000000000000000000000000000000000000000000000000000c3507f000000000000000000000000ffffffffffffffffffffffffffffffffffffffff827ffffffffffffffffffffffffffffffffffffffffffffffffffffffffffffffffe7f0000000000000000000000000000000000000000000000000000000000000001457fffffffffffffffffffffffffffffffffffffffffffffffffffffffffffffffff620a445643a20543a0",
                        "gasLimit" : "0x7c24b3d2",
                        "gasPrice" : "0x03e8",
                        "nonce" : "0x00",
                        "r" : "0x0bc1e11f07e43bb277cdf791ab4a60a3231ca9e8548ffef45639e3b74dace267",
                        "s" : "0x570fcef35953307a6665ae45f14c41021f232c5d6641d02957f2297c11d5bad4",
                        "to" : "0x095e7baea6a6c7c4c2dfeb977efac326af552d87",
                        "v" : "0x1c",
                        "value" : "0x48353323"
                    }
                ],
                "rlp" : "0xf90340f901fda0ab0903cc32ba6d484a2915861dbdb437edcb208b894c874ce469898c59e06ebfa01dcc4de8dec75d7aab85b567b6ccd41ad312451b948a7413f0a142fd40d4934794945304eb96065b2a98b57a48a06ae28d285a71b5a0c462ed38d63210197edceca02bf51f8a88bd42c4304d2b33c637fa952a83dd01a0c5f68a3f62f28477c4511e88104f4416839620efbf2ec4436d4cf0da7e631d8da06c8928b322d57fb3956f77041b40e720288394474f71c3e95fb4b2ac3100bb34b90100000000000000000010000000000000000000000000000000000000000000000000000000000000000000000000000000000000000000000000000000000000000000000000000000000000000000000000000000000000000000000000000000000000000000000000000000000000000000000000000000000000000000002000020000000000000000000000000000000000000000000000000000000000000000000000000000040000000000000000000000000000000000000000000000000000000000002000100000000000000000000000000000000000000000000000000000400000000000000000000000000000100000004000000000000000008302000001887fffffffffffffff8360f49c8207d042a00000000000000000000000000000000000000000000000000000000000000000880000000000000000f9013cf90139808203e8847c24b3d294095e7baea6a6c7c4c2dfeb977efac326af552d878448353323b8d17f00000000000000000000000000000000000000000000000000000000000000007f000000000000000000000000000000000000000000000000000000000000c3507f000000000000000000000000ffffffffffffffffffffffffffffffffffffffff827ffffffffffffffffffffffffffffffffffffffffffffffffffffffffffffffffe7f0000000000000000000000000000000000000000000000000000000000000001457fffffffffffffffffffffffffffffffffffffffffffffffffffffffffffffffff620a445643a20543a01ca00bc1e11f07e43bb277cdf791ab4a60a3231ca9e8548ffef45639e3b74dace267a0570fcef35953307a6665ae45f14c41021f232c5d6641d02957f2297c11d5bad4c0"
            }
        ],
        "postState" : {
            "0x095e7baea6a6c7c4c2dfeb977efac326af552d87" : {
                "code" : "0x7f00000000000000000000000000000000000000000000000000000000000000007f000000000000000000000000000000000000000000000000000000000000c3507f000000000000000000000000ffffffffffffffffffffffffffffffffffffffff827ffffffffffffffffffffffffffffffffffffffffffffffffffffffffffffffffe7f0000000000000000000000000000000000000000000000000000000000000001457fffffffffffffffffffffffffffffffffffffffffffffffffffffffffffffffff620a445643a20543a055",
                "nonce" : "0x00",
                "balance" : "0x48353323",
                "storage" : {
                    "0x00" : "0xffffffffffffffffffffffffffffffffffffffff"
                }
            },
            "0x945304eb96065b2a98b57a48a06ae28d285a71b5" : {
                "code" : "0x6000355415600957005b60203560003555",
                "nonce" : "0x00",
                "balance" : "0x1bc16d68c983818e",
                "storage" : {
                }
            },
            "0xa94f5374fce5edbc8e2a8697c15331677e6ebf0b" : {
                "code" : "0x",
                "nonce" : "0x01",
                "balance" : "0x0de0b6b1e4734b7d",
                "storage" : {
                }
            }
        },
        "lastblockhash" : "0x09b81e1207fd5f81bd0fd05f06345cb54fbd4fca98634152a7e31c858e182d2a"
    },
    "randomStatetest324_London" : {
        "_info" : {
            "comment" : "",
            "filling-rpc-server" : "evm version 1.10.4-unstable-966ee3ae-20210528",
            "filling-tool-version" : "retesteth-0.1.1-eip1559+commit.658fc3a8.Linux.g++",
            "lllcversion" : "Version: 0.5.14-develop.2021.5.18+commit.14c9d5de.mod.Linux.g++",
            "source" : "src/BlockchainTestsFiller/ValidBlocks/bcStateTests/randomStatetest324Filler.json",
            "sourceHash" : "30f194d509829205ed0ec3f32d53fcbc631b240898802341a41bd88cefb8518f"
        },
        "sealEngine" : "NoProof",
        "network" : "London",
        "pre" : {
            "0x095e7baea6a6c7c4c2dfeb977efac326af552d87" : {
                "balance" : "0x00",
                "code" : "0x7f00000000000000000000000000000000000000000000000000000000000000007f000000000000000000000000000000000000000000000000000000000000c3507f000000000000000000000000ffffffffffffffffffffffffffffffffffffffff827ffffffffffffffffffffffffffffffffffffffffffffffffffffffffffffffffe7f0000000000000000000000000000000000000000000000000000000000000001457fffffffffffffffffffffffffffffffffffffffffffffffffffffffffffffffff620a445643a20543a055",
                "nonce" : "0x00",
                "storage" : {
                }
            },
            "0x945304eb96065b2a98b57a48a06ae28d285a71b5" : {
                "balance" : "0x2e",
                "code" : "0x6000355415600957005b60203560003555",
                "nonce" : "0x00",
                "storage" : {
                }
            },
            "0xa94f5374fce5edbc8e2a8697c15331677e6ebf0b" : {
                "balance" : "0x0de0b6b3a7640000",
                "code" : "0x",
                "nonce" : "0x00",
                "storage" : {
                }
            }
        },
        "genesisBlockHeader" : {
            "bloom" : "0x00000000000000000000000000000000000000000000000000000000000000000000000000000000000000000000000000000000000000000000000000000000000000000000000000000000000000000000000000000000000000000000000000000000000000000000000000000000000000000000000000000000000000000000000000000000000000000000000000000000000000000000000000000000000000000000000000000000000000000000000000000000000000000000000000000000000000000000000000000000000000000000000000000000000000000000000000000000000000000000000000000000000000000000000000000000",
            "coinbase" : "0x945304eb96065b2a98b57a48a06ae28d285a71b5",
            "difficulty" : "0x020000",
            "extraData" : "0x42",
            "gasLimit" : "0x7fffffffffffffff",
            "gasUsed" : "0x00",
            "hash" : "0x7352d3416e17dc4ec82df9b8ff412fcc69011ef0e7fbaf20988118aef3ce560d",
            "mixHash" : "0x0000000000000000000000000000000000000000000000000000000000000000",
            "nonce" : "0x0000000000000000",
            "number" : "0x00",
            "parentHash" : "0x0000000000000000000000000000000000000000000000000000000000000000",
            "receiptTrie" : "0x56e81f171bcc55a6ff8345e692c0f86e5b48e01b996cadc001622fb5e363b421",
            "stateRoot" : "0x682d96eaa167fb589dc964e43c276b9971b7a0e1cac8b877395d4e1b5bcff04b",
            "timestamp" : "0x03e8",
            "transactionsTrie" : "0x56e81f171bcc55a6ff8345e692c0f86e5b48e01b996cadc001622fb5e363b421",
            "uncleHash" : "0x1dcc4de8dec75d7aab85b567b6ccd41ad312451b948a7413f0a142fd40d49347",
            "baseFee" : "0x10"
        },
        "genesisRLP" : "0xf90200f901fba00000000000000000000000000000000000000000000000000000000000000000a01dcc4de8dec75d7aab85b567b6ccd41ad312451b948a7413f0a142fd40d4934794945304eb96065b2a98b57a48a06ae28d285a71b5a0682d96eaa167fb589dc964e43c276b9971b7a0e1cac8b877395d4e1b5bcff04ba056e81f171bcc55a6ff8345e692c0f86e5b48e01b996cadc001622fb5e363b421a056e81f171bcc55a6ff8345e692c0f86e5b48e01b996cadc001622fb5e363b421b90100000000000000000000000000000000000000000000000000000000000000000000000000000000000000000000000000000000000000000000000000000000000000000000000000000000000000000000000000000000000000000000000000000000000000000000000000000000000000000000000000000000000000000000000000000000000000000000000000000000000000000000000000000000000000000000000000000000000000000000000000000000000000000000000000000000000000000000000000000000000000000000000000000000000000000000000000000000000000000000000000000000000000000000000000000000008302000080887fffffffffffffff808203e842a0000000000000000000000000000000000000000000000000000000000000000088000000000000000010c0c0",
        "blocks" : [
            {
                "chainname" : "default",
                "blocknumber" : "1",
                "uncleHeaders" : [
                ],
                "blockHeader" : {
                    "bloom" : "0x00000000000000001000000000000000000000000000000000000000000000000000000000000000000000000000000000000000000000000000000000000000000000000000000000000000000000000000000000000000000000000000000000000000000000000000000000000000000000000000000000000000000000200002000000000000000000000000000000000000000000000000000000000000000000000000000004000000000000000000000000000000000000000000000000000000000000200010000000000000000000000000000000000000000000000000000040000000000000000000000000000010000000400000000000000000",
                    "coinbase" : "0x945304eb96065b2a98b57a48a06ae28d285a71b5",
                    "difficulty" : "0x020000",
                    "extraData" : "0x42",
                    "gasLimit" : "0x7fffffffffffffff",
                    "gasUsed" : "0x60fcd0",
                    "hash" : "0x2d84c51e739e7efca038c53171b5ca4e59b34f53cb2b4654f8a3bc78fab0842f",
                    "mixHash" : "0x0000000000000000000000000000000000000000000000000000000000000000",
                    "nonce" : "0x0000000000000000",
                    "number" : "0x01",
                    "parentHash" : "0x7352d3416e17dc4ec82df9b8ff412fcc69011ef0e7fbaf20988118aef3ce560d",
                    "receiptTrie" : "0x073564d12141986a0f788b8342c8d046a80dbd00ed1af98b340a40d7fa1f0b75",
                    "stateRoot" : "0xc0d8ab3ecc184c71a100cedd01bdee460eacdd3d3f49d9e52c24e8742fbe1eb8",
                    "timestamp" : "0x07d0",
                    "transactionsTrie" : "0xc5f68a3f62f28477c4511e88104f4416839620efbf2ec4436d4cf0da7e631d8d",
                    "uncleHash" : "0x1dcc4de8dec75d7aab85b567b6ccd41ad312451b948a7413f0a142fd40d49347",
                    "baseFee" : "0x0e"
                },
                "transactions" : [
                    {
                        "data" : "0x7f00000000000000000000000000000000000000000000000000000000000000007f000000000000000000000000000000000000000000000000000000000000c3507f000000000000000000000000ffffffffffffffffffffffffffffffffffffffff827ffffffffffffffffffffffffffffffffffffffffffffffffffffffffffffffffe7f0000000000000000000000000000000000000000000000000000000000000001457fffffffffffffffffffffffffffffffffffffffffffffffffffffffffffffffff620a445643a20543a0",
                        "gasLimit" : "0x7c24b3d2",
                        "gasPrice" : "0x03e8",
                        "nonce" : "0x00",
                        "r" : "0x0bc1e11f07e43bb277cdf791ab4a60a3231ca9e8548ffef45639e3b74dace267",
                        "s" : "0x570fcef35953307a6665ae45f14c41021f232c5d6641d02957f2297c11d5bad4",
                        "to" : "0x095e7baea6a6c7c4c2dfeb977efac326af552d87",
                        "v" : "0x1c",
                        "value" : "0x48353323"
                    }
                ],
                "rlp" : "0xf90341f901fea07352d3416e17dc4ec82df9b8ff412fcc69011ef0e7fbaf20988118aef3ce560da01dcc4de8dec75d7aab85b567b6ccd41ad312451b948a7413f0a142fd40d4934794945304eb96065b2a98b57a48a06ae28d285a71b5a0c0d8ab3ecc184c71a100cedd01bdee460eacdd3d3f49d9e52c24e8742fbe1eb8a0c5f68a3f62f28477c4511e88104f4416839620efbf2ec4436d4cf0da7e631d8da0073564d12141986a0f788b8342c8d046a80dbd00ed1af98b340a40d7fa1f0b75b90100000000000000000010000000000000000000000000000000000000000000000000000000000000000000000000000000000000000000000000000000000000000000000000000000000000000000000000000000000000000000000000000000000000000000000000000000000000000000000000000000000000000000002000020000000000000000000000000000000000000000000000000000000000000000000000000000040000000000000000000000000000000000000000000000000000000000002000100000000000000000000000000000000000000000000000000000400000000000000000000000000000100000004000000000000000008302000001887fffffffffffffff8360fcd08207d042a000000000000000000000000000000000000000000000000000000000000000008800000000000000000ef9013cf90139808203e8847c24b3d294095e7baea6a6c7c4c2dfeb977efac326af552d878448353323b8d17f00000000000000000000000000000000000000000000000000000000000000007f000000000000000000000000000000000000000000000000000000000000c3507f000000000000000000000000ffffffffffffffffffffffffffffffffffffffff827ffffffffffffffffffffffffffffffffffffffffffffffffffffffffffffffffe7f0000000000000000000000000000000000000000000000000000000000000001457fffffffffffffffffffffffffffffffffffffffffffffffffffffffffffffffff620a445643a20543a01ca00bc1e11f07e43bb277cdf791ab4a60a3231ca9e8548ffef45639e3b74dace267a0570fcef35953307a6665ae45f14c41021f232c5d6641d02957f2297c11d5bad4c0"
            }
        ],
        "postState" : {
            "0x095e7baea6a6c7c4c2dfeb977efac326af552d87" : {
                "code" : "0x7f00000000000000000000000000000000000000000000000000000000000000007f000000000000000000000000000000000000000000000000000000000000c3507f000000000000000000000000ffffffffffffffffffffffffffffffffffffffff827ffffffffffffffffffffffffffffffffffffffffffffffffffffffffffffffffe7f0000000000000000000000000000000000000000000000000000000000000001457fffffffffffffffffffffffffffffffffffffffffffffffffffffffffffffffff620a445643a20543a055",
                "nonce" : "0x00",
                "balance" : "0x48353323",
                "storage" : {
                    "0x00" : "0xffffffffffffffffffffffffffffffffffffffff"
                }
            },
            "0x945304eb96065b2a98b57a48a06ae28d285a71b5" : {
                "code" : "0x6000355415600957005b60203560003555",
                "nonce" : "0x00",
                "balance" : "0x1bc16d68c455b94e",
                "storage" : {
                }
            },
            "0xa94f5374fce5edbc8e2a8697c15331677e6ebf0b" : {
                "code" : "0x",
                "nonce" : "0x01",
                "balance" : "0x0de0b6b1e453405d",
                "storage" : {
                }
            }
        },
        "lastblockhash" : "0x2d84c51e739e7efca038c53171b5ca4e59b34f53cb2b4654f8a3bc78fab0842f"
    }
}