{
    "SuicidesMixingCoinbase_Berlin" : {
        "_info" : {
            "comment" : "",
            "filling-rpc-server" : "evm version 1.10.4-unstable-966ee3ae-20210528",
            "filling-tool-version" : "retesteth-0.1.1-eip1559+commit.658fc3a8.Linux.g++",
            "lllcversion" : "Version: 0.5.14-develop.2021.5.18+commit.14c9d5de.mod.Linux.g++",
            "source" : "src/BlockchainTestsFiller/ValidBlocks/bcStateTests/SuicidesMixingCoinbaseFiller.json",
            "sourceHash" : "cc4df23fabed084b6aa7c8c26492451a85efff45dbd2fd90e09aef3ab4a0c763"
        },
        "sealEngine" : "NoProof",
        "network" : "Berlin",
        "pre" : {
            "0xa94f5374fce5edbc8e2a8697c15331677e6ebf0b" : {
                "balance" : "0x83215600",
                "code" : "0x",
                "nonce" : "0x00",
                "storage" : {
                }
            },
            "0xb24f5374fce5edbc8e2a8697c15331677e6ebf0b" : {
                "balance" : "0x03e8",
                "code" : "0x73c24f5374fce5edbc8e2a8697c15331677e6ebf0bff00",
                "nonce" : "0x00",
                "storage" : {
                }
            },
            "0xb94f5374fce5edbc8e2a8697c15331677e6ebf0b" : {
                "balance" : "0x03e8",
                "code" : "0x73c94f5374fce5edbc8e2a8697c15331677e6ebf0bff00",
                "nonce" : "0x00",
                "storage" : {
                }
            }
        },
        "genesisBlockHeader" : {
            "bloom" : "0x00000000000000000000000000000000000000000000000000000000000000000000000000000000000000000000000000000000000000000000000000000000000000000000000000000000000000000000000000000000000000000000000000000000000000000000000000000000000000000000000000000000000000000000000000000000000000000000000000000000000000000000000000000000000000000000000000000000000000000000000000000000000000000000000000000000000000000000000000000000000000000000000000000000000000000000000000000000000000000000000000000000000000000000000000000000",
            "coinbase" : "0xb94f5374fce5edbc8e2a8697c15331677e6ebf0b",
            "difficulty" : "0x020000",
            "extraData" : "0x42",
            "gasLimit" : "0x0f4240",
            "gasUsed" : "0x00",
            "hash" : "0x56b0faf462f74249338808482c40e5ca1e465b2cb1a6ac8e494c4b8dafbf51fe",
            "mixHash" : "0x0000000000000000000000000000000000000000000000000000000000000000",
            "nonce" : "0x0000000000000000",
            "number" : "0x00",
            "parentHash" : "0x0000000000000000000000000000000000000000000000000000000000000000",
            "receiptTrie" : "0x56e81f171bcc55a6ff8345e692c0f86e5b48e01b996cadc001622fb5e363b421",
            "stateRoot" : "0x0fbecfc15d791488d359dacd24955ae86a58f8d50d69cd3974e0bdcc26e0d8e7",
            "timestamp" : "0x03e8",
            "transactionsTrie" : "0x56e81f171bcc55a6ff8345e692c0f86e5b48e01b996cadc001622fb5e363b421",
            "uncleHash" : "0x1dcc4de8dec75d7aab85b567b6ccd41ad312451b948a7413f0a142fd40d49347"
        },
        "genesisRLP" : "0xf901faf901f5a00000000000000000000000000000000000000000000000000000000000000000a01dcc4de8dec75d7aab85b567b6ccd41ad312451b948a7413f0a142fd40d4934794b94f5374fce5edbc8e2a8697c15331677e6ebf0ba00fbecfc15d791488d359dacd24955ae86a58f8d50d69cd3974e0bdcc26e0d8e7a056e81f171bcc55a6ff8345e692c0f86e5b48e01b996cadc001622fb5e363b421a056e81f171bcc55a6ff8345e692c0f86e5b48e01b996cadc001622fb5e363b421b90100000000000000000000000000000000000000000000000000000000000000000000000000000000000000000000000000000000000000000000000000000000000000000000000000000000000000000000000000000000000000000000000000000000000000000000000000000000000000000000000000000000000000000000000000000000000000000000000000000000000000000000000000000000000000000000000000000000000000000000000000000000000000000000000000000000000000000000000000000000000000000000000000000000000000000000000000000000000000000000000000000000000000000000000000000000008302000080830f4240808203e842a00000000000000000000000000000000000000000000000000000000000000000880000000000000000c0c0",
        "blocks" : [
            {
                "chainname" : "default",
                "blocknumber" : "1",
                "uncleHeaders" : [
                ],
                "blockHeader" : {
                    "bloom" : "0x00000000000000000000000000000000000000000000000000000000000000000000000000000000000000000000000000000000000000000000000000000000000000000000000000000000000000000000000000000000000000000000000000000000000000000000000000000000000000000000000000000000000000000000000000000000000000000000000000000000000000000000000000000000000000000000000000000000000000000000000000000000000000000000000000000000000000000000000000000000000000000000000000000000000000000000000000000000000000000000000000000000000000000000000000000000",
                    "coinbase" : "0xb94f5374fce5edbc8e2a8697c15331677e6ebf0b",
                    "difficulty" : "0x020000",
                    "extraData" : "0x42",
                    "gasLimit" : "0x0f4240",
                    "gasUsed" : "0x54c4",
                    "hash" : "0x8d137c53a0bc7ea9e03286a5248106a69051877f947073f6ae5fdc0dd79899d0",
                    "mixHash" : "0x0000000000000000000000000000000000000000000000000000000000000000",
                    "nonce" : "0x0000000000000000",
                    "number" : "0x01",
                    "parentHash" : "0x56b0faf462f74249338808482c40e5ca1e465b2cb1a6ac8e494c4b8dafbf51fe",
                    "receiptTrie" : "0xcc622cd09860dbcba5e111e2491e3c10a6a007266fe0036aefc4dc772e9e8e7c",
                    "stateRoot" : "0xf86760564d34fc2621ebbd78035c20ce257a0b779bbadb900271a547bb7e3d31",
                    "timestamp" : "0x07d0",
                    "transactionsTrie" : "0xab9fe4ac341cf97677aad514961f3c825ad0c9af82a2f6d736163c9a054ed2b8",
                    "uncleHash" : "0x1dcc4de8dec75d7aab85b567b6ccd41ad312451b948a7413f0a142fd40d49347"
                },
                "transactions" : [
                    {
                        "data" : "0x",
                        "gasLimit" : "0x54c4",
                        "gasPrice" : "0x03e8",
                        "nonce" : "0x00",
                        "r" : "0xdb062bab4faa88d3331be03149455ab2e089aca6f3efcc2bfe7f02db1e89b718",
                        "s" : "0x3cc779b1576ca9bd7d8bb1f615bc746551a53aba93be569e5a585a6eaaea26e1",
                        "to" : "0xb94f5374fce5edbc8e2a8697c15331677e6ebf0b",
                        "v" : "0x1c",
                        "value" : "0x0a"
                    }
                ],
                "rlp" : "0xf90260f901f7a056b0faf462f74249338808482c40e5ca1e465b2cb1a6ac8e494c4b8dafbf51fea01dcc4de8dec75d7aab85b567b6ccd41ad312451b948a7413f0a142fd40d4934794b94f5374fce5edbc8e2a8697c15331677e6ebf0ba0f86760564d34fc2621ebbd78035c20ce257a0b779bbadb900271a547bb7e3d31a0ab9fe4ac341cf97677aad514961f3c825ad0c9af82a2f6d736163c9a054ed2b8a0cc622cd09860dbcba5e111e2491e3c10a6a007266fe0036aefc4dc772e9e8e7cb90100000000000000000000000000000000000000000000000000000000000000000000000000000000000000000000000000000000000000000000000000000000000000000000000000000000000000000000000000000000000000000000000000000000000000000000000000000000000000000000000000000000000000000000000000000000000000000000000000000000000000000000000000000000000000000000000000000000000000000000000000000000000000000000000000000000000000000000000000000000000000000000000000000000000000000000000000000000000000000000000000000000000000000000000000000000008302000001830f42408254c48207d042a00000000000000000000000000000000000000000000000000000000000000000880000000000000000f863f861808203e88254c494b94f5374fce5edbc8e2a8697c15331677e6ebf0b0a801ca0db062bab4faa88d3331be03149455ab2e089aca6f3efcc2bfe7f02db1e89b718a03cc779b1576ca9bd7d8bb1f615bc746551a53aba93be569e5a585a6eaaea26e1c0"
            },
            {
                "chainname" : "default",
                "blocknumber" : "2",
                "uncleHeaders" : [
                ],
                "blockHeader" : {
                    "bloom" : "0x00000000000000000000000000000000000000000000000000000000000000000000000000000000000000000000000000000000000000000000000000000000000000000000000000000000000000000000000000000000000000000000000000000000000000000000000000000000000000000000000000000000000000000000000000000000000000000000000000000000000000000000000000000000000000000000000000000000000000000000000000000000000000000000000000000000000000000000000000000000000000000000000000000000000000000000000000000000000000000000000000000000000000000000000000000000",
                    "coinbase" : "0xb24f5374fce5edbc8e2a8697c15331677e6ebf0b",
                    "difficulty" : "0x020000",
                    "extraData" : "0x42",
                    "gasLimit" : "0x0f4240",
                    "gasUsed" : "0x73a3",
                    "hash" : "0x08c589518dc84139599557734f62e68bf65b7b12f29d6d094003940643bc9ff9",
                    "mixHash" : "0x0000000000000000000000000000000000000000000000000000000000000000",
                    "nonce" : "0x0000000000000000",
                    "number" : "0x02",
                    "parentHash" : "0x8d137c53a0bc7ea9e03286a5248106a69051877f947073f6ae5fdc0dd79899d0",
                    "receiptTrie" : "0xe41cddfc69909821d2edfbb837cb09171335d3ede5c242fe84d5bda91259aa1c",
                    "stateRoot" : "0x6438b33033d165c601bf8af48f26efdc1152ba14ef4b5f1fba245ddad3c6cd4d",
                    "timestamp" : "0x0bb8",
                    "transactionsTrie" : "0xe5d9d104a39ad50255f8280a0b2d6eb9b5ff9213065e9fb5eae9b2b0e31f44e0",
                    "uncleHash" : "0x1dcc4de8dec75d7aab85b567b6ccd41ad312451b948a7413f0a142fd40d49347"
                },
                "transactions" : [
                    {
                        "data" : "0x",
                        "gasLimit" : "0xea60",
                        "gasPrice" : "0x03e8",
                        "nonce" : "0x01",
                        "r" : "0xd2e54e989b91bd0b9e3ff0d67ea5ff8b1c9f5e031d6166bcf7019198616c63b4",
                        "s" : "0x350bf6ea8761dadb683ff1cfcf34e008c4c82ff9e3e7a836245f54ec62514a94",
                        "to" : "0xb24f5374fce5edbc8e2a8697c15331677e6ebf0b",
                        "v" : "0x1b",
                        "value" : "0x0a"
                    }
                ],
                "rlp" : "0xf90260f901f7a08d137c53a0bc7ea9e03286a5248106a69051877f947073f6ae5fdc0dd79899d0a01dcc4de8dec75d7aab85b567b6ccd41ad312451b948a7413f0a142fd40d4934794b24f5374fce5edbc8e2a8697c15331677e6ebf0ba06438b33033d165c601bf8af48f26efdc1152ba14ef4b5f1fba245ddad3c6cd4da0e5d9d104a39ad50255f8280a0b2d6eb9b5ff9213065e9fb5eae9b2b0e31f44e0a0e41cddfc69909821d2edfbb837cb09171335d3ede5c242fe84d5bda91259aa1cb90100000000000000000000000000000000000000000000000000000000000000000000000000000000000000000000000000000000000000000000000000000000000000000000000000000000000000000000000000000000000000000000000000000000000000000000000000000000000000000000000000000000000000000000000000000000000000000000000000000000000000000000000000000000000000000000000000000000000000000000000000000000000000000000000000000000000000000000000000000000000000000000000000000000000000000000000000000000000000000000000000000000000000000000000000000000008302000002830f42408273a3820bb842a00000000000000000000000000000000000000000000000000000000000000000880000000000000000f863f861018203e882ea6094b24f5374fce5edbc8e2a8697c15331677e6ebf0b0a801ba0d2e54e989b91bd0b9e3ff0d67ea5ff8b1c9f5e031d6166bcf7019198616c63b4a0350bf6ea8761dadb683ff1cfcf34e008c4c82ff9e3e7a836245f54ec62514a94c0"
            }
        ],
        "postState" : {
            "0xa94f5374fce5edbc8e2a8697c15331677e6ebf0b" : {
                "code" : "0x",
                "nonce" : "0x02",
                "balance" : "0x8012839e",
                "storage" : {
                }
            },
            "0xb24f5374fce5edbc8e2a8697c15331677e6ebf0b" : {
                "code" : "0x",
                "nonce" : "0x00",
                "balance" : "0x1bc16d674ec80000",
                "storage" : {
                }
            },
            "0xb94f5374fce5edbc8e2a8697c15331677e6ebf0b" : {
                "code" : "0x73c94f5374fce5edbc8e2a8697c15331677e6ebf0bff00",
                "nonce" : "0x00",
                "balance" : "0x1bc16d6750132188",
                "storage" : {
                }
            },
            "0xc24f5374fce5edbc8e2a8697c15331677e6ebf0b" : {
                "code" : "0x",
                "nonce" : "0x00",
                "balance" : "0x03f2",
                "storage" : {
                }
            }
        },
        "lastblockhash" : "0x08c589518dc84139599557734f62e68bf65b7b12f29d6d094003940643bc9ff9"
    },
    "SuicidesMixingCoinbase_Istanbul" : {
        "_info" : {
            "comment" : "",
            "filling-rpc-server" : "evm version 1.10.4-unstable-966ee3ae-20210528",
            "filling-tool-version" : "retesteth-0.1.1-eip1559+commit.658fc3a8.Linux.g++",
            "lllcversion" : "Version: 0.5.14-develop.2021.5.18+commit.14c9d5de.mod.Linux.g++",
            "source" : "src/BlockchainTestsFiller/ValidBlocks/bcStateTests/SuicidesMixingCoinbaseFiller.json",
            "sourceHash" : "cc4df23fabed084b6aa7c8c26492451a85efff45dbd2fd90e09aef3ab4a0c763"
        },
        "sealEngine" : "NoProof",
        "network" : "Istanbul",
        "pre" : {
            "0xa94f5374fce5edbc8e2a8697c15331677e6ebf0b" : {
                "balance" : "0x83215600",
                "code" : "0x",
                "nonce" : "0x00",
                "storage" : {
                }
            },
            "0xb24f5374fce5edbc8e2a8697c15331677e6ebf0b" : {
                "balance" : "0x03e8",
                "code" : "0x73c24f5374fce5edbc8e2a8697c15331677e6ebf0bff00",
                "nonce" : "0x00",
                "storage" : {
                }
            },
            "0xb94f5374fce5edbc8e2a8697c15331677e6ebf0b" : {
                "balance" : "0x03e8",
                "code" : "0x73c94f5374fce5edbc8e2a8697c15331677e6ebf0bff00",
                "nonce" : "0x00",
                "storage" : {
                }
            }
        },
        "genesisBlockHeader" : {
            "bloom" : "0x00000000000000000000000000000000000000000000000000000000000000000000000000000000000000000000000000000000000000000000000000000000000000000000000000000000000000000000000000000000000000000000000000000000000000000000000000000000000000000000000000000000000000000000000000000000000000000000000000000000000000000000000000000000000000000000000000000000000000000000000000000000000000000000000000000000000000000000000000000000000000000000000000000000000000000000000000000000000000000000000000000000000000000000000000000000",
            "coinbase" : "0xb94f5374fce5edbc8e2a8697c15331677e6ebf0b",
            "difficulty" : "0x020000",
            "extraData" : "0x42",
            "gasLimit" : "0x0f4240",
            "gasUsed" : "0x00",
            "hash" : "0x56b0faf462f74249338808482c40e5ca1e465b2cb1a6ac8e494c4b8dafbf51fe",
            "mixHash" : "0x0000000000000000000000000000000000000000000000000000000000000000",
            "nonce" : "0x0000000000000000",
            "number" : "0x00",
            "parentHash" : "0x0000000000000000000000000000000000000000000000000000000000000000",
            "receiptTrie" : "0x56e81f171bcc55a6ff8345e692c0f86e5b48e01b996cadc001622fb5e363b421",
            "stateRoot" : "0x0fbecfc15d791488d359dacd24955ae86a58f8d50d69cd3974e0bdcc26e0d8e7",
            "timestamp" : "0x03e8",
            "transactionsTrie" : "0x56e81f171bcc55a6ff8345e692c0f86e5b48e01b996cadc001622fb5e363b421",
            "uncleHash" : "0x1dcc4de8dec75d7aab85b567b6ccd41ad312451b948a7413f0a142fd40d49347"
        },
        "genesisRLP" : "0xf901faf901f5a00000000000000000000000000000000000000000000000000000000000000000a01dcc4de8dec75d7aab85b567b6ccd41ad312451b948a7413f0a142fd40d4934794b94f5374fce5edbc8e2a8697c15331677e6ebf0ba00fbecfc15d791488d359dacd24955ae86a58f8d50d69cd3974e0bdcc26e0d8e7a056e81f171bcc55a6ff8345e692c0f86e5b48e01b996cadc001622fb5e363b421a056e81f171bcc55a6ff8345e692c0f86e5b48e01b996cadc001622fb5e363b421b90100000000000000000000000000000000000000000000000000000000000000000000000000000000000000000000000000000000000000000000000000000000000000000000000000000000000000000000000000000000000000000000000000000000000000000000000000000000000000000000000000000000000000000000000000000000000000000000000000000000000000000000000000000000000000000000000000000000000000000000000000000000000000000000000000000000000000000000000000000000000000000000000000000000000000000000000000000000000000000000000000000000000000000000000000000000008302000080830f4240808203e842a00000000000000000000000000000000000000000000000000000000000000000880000000000000000c0c0",
        "blocks" : [
            {
                "chainname" : "default",
                "blocknumber" : "1",
                "uncleHeaders" : [
                ],
                "blockHeader" : {
                    "bloom" : "0x00000000000000000000000000000000000000000000000000000000000000000000000000000000000000000000000000000000000000000000000000000000000000000000000000000000000000000000000000000000000000000000000000000000000000000000000000000000000000000000000000000000000000000000000000000000000000000000000000000000000000000000000000000000000000000000000000000000000000000000000000000000000000000000000000000000000000000000000000000000000000000000000000000000000000000000000000000000000000000000000000000000000000000000000000000000",
                    "coinbase" : "0xb94f5374fce5edbc8e2a8697c15331677e6ebf0b",
                    "difficulty" : "0x020000",
                    "extraData" : "0x42",
                    "gasLimit" : "0x0f4240",
                    "gasUsed" : "0x54c4",
                    "hash" : "0x8d137c53a0bc7ea9e03286a5248106a69051877f947073f6ae5fdc0dd79899d0",
                    "mixHash" : "0x0000000000000000000000000000000000000000000000000000000000000000",
                    "nonce" : "0x0000000000000000",
                    "number" : "0x01",
                    "parentHash" : "0x56b0faf462f74249338808482c40e5ca1e465b2cb1a6ac8e494c4b8dafbf51fe",
                    "receiptTrie" : "0xcc622cd09860dbcba5e111e2491e3c10a6a007266fe0036aefc4dc772e9e8e7c",
                    "stateRoot" : "0xf86760564d34fc2621ebbd78035c20ce257a0b779bbadb900271a547bb7e3d31",
                    "timestamp" : "0x07d0",
                    "transactionsTrie" : "0xab9fe4ac341cf97677aad514961f3c825ad0c9af82a2f6d736163c9a054ed2b8",
                    "uncleHash" : "0x1dcc4de8dec75d7aab85b567b6ccd41ad312451b948a7413f0a142fd40d49347"
                },
                "transactions" : [
                    {
                        "data" : "0x",
                        "gasLimit" : "0x54c4",
                        "gasPrice" : "0x03e8",
                        "nonce" : "0x00",
                        "r" : "0xdb062bab4faa88d3331be03149455ab2e089aca6f3efcc2bfe7f02db1e89b718",
                        "s" : "0x3cc779b1576ca9bd7d8bb1f615bc746551a53aba93be569e5a585a6eaaea26e1",
                        "to" : "0xb94f5374fce5edbc8e2a8697c15331677e6ebf0b",
                        "v" : "0x1c",
                        "value" : "0x0a"
                    }
                ],
                "rlp" : "0xf90260f901f7a056b0faf462f74249338808482c40e5ca1e465b2cb1a6ac8e494c4b8dafbf51fea01dcc4de8dec75d7aab85b567b6ccd41ad312451b948a7413f0a142fd40d4934794b94f5374fce5edbc8e2a8697c15331677e6ebf0ba0f86760564d34fc2621ebbd78035c20ce257a0b779bbadb900271a547bb7e3d31a0ab9fe4ac341cf97677aad514961f3c825ad0c9af82a2f6d736163c9a054ed2b8a0cc622cd09860dbcba5e111e2491e3c10a6a007266fe0036aefc4dc772e9e8e7cb90100000000000000000000000000000000000000000000000000000000000000000000000000000000000000000000000000000000000000000000000000000000000000000000000000000000000000000000000000000000000000000000000000000000000000000000000000000000000000000000000000000000000000000000000000000000000000000000000000000000000000000000000000000000000000000000000000000000000000000000000000000000000000000000000000000000000000000000000000000000000000000000000000000000000000000000000000000000000000000000000000000000000000000000000000000000008302000001830f42408254c48207d042a00000000000000000000000000000000000000000000000000000000000000000880000000000000000f863f861808203e88254c494b94f5374fce5edbc8e2a8697c15331677e6ebf0b0a801ca0db062bab4faa88d3331be03149455ab2e089aca6f3efcc2bfe7f02db1e89b718a03cc779b1576ca9bd7d8bb1f615bc746551a53aba93be569e5a585a6eaaea26e1c0"
            },
            {
                "chainname" : "default",
                "blocknumber" : "2",
                "uncleHeaders" : [
                ],
                "blockHeader" : {
                    "bloom" : "0x00000000000000000000000000000000000000000000000000000000000000000000000000000000000000000000000000000000000000000000000000000000000000000000000000000000000000000000000000000000000000000000000000000000000000000000000000000000000000000000000000000000000000000000000000000000000000000000000000000000000000000000000000000000000000000000000000000000000000000000000000000000000000000000000000000000000000000000000000000000000000000000000000000000000000000000000000000000000000000000000000000000000000000000000000000000",
                    "coinbase" : "0xb24f5374fce5edbc8e2a8697c15331677e6ebf0b",
                    "difficulty" : "0x020000",
                    "extraData" : "0x42",
                    "gasLimit" : "0x0f4240",
                    "gasUsed" : "0x697b",
                    "hash" : "0x7a4234b674da2f2bbfd07cb168ee86df12ef1c7253018fec006ec0584efeac05",
                    "mixHash" : "0x0000000000000000000000000000000000000000000000000000000000000000",
                    "nonce" : "0x0000000000000000",
                    "number" : "0x02",
                    "parentHash" : "0x8d137c53a0bc7ea9e03286a5248106a69051877f947073f6ae5fdc0dd79899d0",
                    "receiptTrie" : "0x11b9a3af527495821ab161c2237f35f6a032d0dc5e9ee404f60ba12f9b7c26a9",
                    "stateRoot" : "0xac9493741ce4ef1867a901bc5d121b6fa7ef1258f7cd509ccd14129904483c23",
                    "timestamp" : "0x0bb8",
                    "transactionsTrie" : "0xe5d9d104a39ad50255f8280a0b2d6eb9b5ff9213065e9fb5eae9b2b0e31f44e0",
                    "uncleHash" : "0x1dcc4de8dec75d7aab85b567b6ccd41ad312451b948a7413f0a142fd40d49347"
                },
                "transactions" : [
                    {
                        "data" : "0x",
                        "gasLimit" : "0xea60",
                        "gasPrice" : "0x03e8",
                        "nonce" : "0x01",
                        "r" : "0xd2e54e989b91bd0b9e3ff0d67ea5ff8b1c9f5e031d6166bcf7019198616c63b4",
                        "s" : "0x350bf6ea8761dadb683ff1cfcf34e008c4c82ff9e3e7a836245f54ec62514a94",
                        "to" : "0xb24f5374fce5edbc8e2a8697c15331677e6ebf0b",
                        "v" : "0x1b",
                        "value" : "0x0a"
                    }
                ],
                "rlp" : "0xf90260f901f7a08d137c53a0bc7ea9e03286a5248106a69051877f947073f6ae5fdc0dd79899d0a01dcc4de8dec75d7aab85b567b6ccd41ad312451b948a7413f0a142fd40d4934794b24f5374fce5edbc8e2a8697c15331677e6ebf0ba0ac9493741ce4ef1867a901bc5d121b6fa7ef1258f7cd509ccd14129904483c23a0e5d9d104a39ad50255f8280a0b2d6eb9b5ff9213065e9fb5eae9b2b0e31f44e0a011b9a3af527495821ab161c2237f35f6a032d0dc5e9ee404f60ba12f9b7c26a9b90100000000000000000000000000000000000000000000000000000000000000000000000000000000000000000000000000000000000000000000000000000000000000000000000000000000000000000000000000000000000000000000000000000000000000000000000000000000000000000000000000000000000000000000000000000000000000000000000000000000000000000000000000000000000000000000000000000000000000000000000000000000000000000000000000000000000000000000000000000000000000000000000000000000000000000000000000000000000000000000000000000000000000000000000000000000008302000002830f424082697b820bb842a00000000000000000000000000000000000000000000000000000000000000000880000000000000000f863f861018203e882ea6094b24f5374fce5edbc8e2a8697c15331677e6ebf0b0a801ba0d2e54e989b91bd0b9e3ff0d67ea5ff8b1c9f5e031d6166bcf7019198616c63b4a0350bf6ea8761dadb683ff1cfcf34e008c4c82ff9e3e7a836245f54ec62514a94c0"
            }
        ],
        "postState" : {
            "0xa94f5374fce5edbc8e2a8697c15331677e6ebf0b" : {
                "code" : "0x",
                "nonce" : "0x02",
                "balance" : "0x803a2fde",
                "storage" : {
                }
            },
            "0xb24f5374fce5edbc8e2a8697c15331677e6ebf0b" : {
                "code" : "0x",
                "nonce" : "0x00",
                "balance" : "0x1bc16d674ec80000",
                "storage" : {
                }
            },
            "0xb94f5374fce5edbc8e2a8697c15331677e6ebf0b" : {
                "code" : "0x73c94f5374fce5edbc8e2a8697c15331677e6ebf0bff00",
                "nonce" : "0x00",
                "balance" : "0x1bc16d6750132188",
                "storage" : {
                }
            },
            "0xc24f5374fce5edbc8e2a8697c15331677e6ebf0b" : {
                "code" : "0x",
                "nonce" : "0x00",
                "balance" : "0x03f2",
                "storage" : {
                }
            }
        },
        "lastblockhash" : "0x7a4234b674da2f2bbfd07cb168ee86df12ef1c7253018fec006ec0584efeac05"
    },
    "SuicidesMixingCoinbase_London" : {
        "_info" : {
            "comment" : "",
            "filling-rpc-server" : "evm version 1.10.4-unstable-966ee3ae-20210528",
            "filling-tool-version" : "retesteth-0.1.1-eip1559+commit.658fc3a8.Linux.g++",
            "lllcversion" : "Version: 0.5.14-develop.2021.5.18+commit.14c9d5de.mod.Linux.g++",
            "source" : "src/BlockchainTestsFiller/ValidBlocks/bcStateTests/SuicidesMixingCoinbaseFiller.json",
            "sourceHash" : "cc4df23fabed084b6aa7c8c26492451a85efff45dbd2fd90e09aef3ab4a0c763"
        },
        "sealEngine" : "NoProof",
        "network" : "London",
        "pre" : {
            "0xa94f5374fce5edbc8e2a8697c15331677e6ebf0b" : {
                "balance" : "0x83215600",
                "code" : "0x",
                "nonce" : "0x00",
                "storage" : {
                }
            },
            "0xb24f5374fce5edbc8e2a8697c15331677e6ebf0b" : {
                "balance" : "0x03e8",
                "code" : "0x73c24f5374fce5edbc8e2a8697c15331677e6ebf0bff00",
                "nonce" : "0x00",
                "storage" : {
                }
            },
            "0xb94f5374fce5edbc8e2a8697c15331677e6ebf0b" : {
                "balance" : "0x03e8",
                "code" : "0x73c94f5374fce5edbc8e2a8697c15331677e6ebf0bff00",
                "nonce" : "0x00",
                "storage" : {
                }
            }
        },
        "genesisBlockHeader" : {
            "bloom" : "0x00000000000000000000000000000000000000000000000000000000000000000000000000000000000000000000000000000000000000000000000000000000000000000000000000000000000000000000000000000000000000000000000000000000000000000000000000000000000000000000000000000000000000000000000000000000000000000000000000000000000000000000000000000000000000000000000000000000000000000000000000000000000000000000000000000000000000000000000000000000000000000000000000000000000000000000000000000000000000000000000000000000000000000000000000000000",
            "coinbase" : "0xb94f5374fce5edbc8e2a8697c15331677e6ebf0b",
            "difficulty" : "0x020000",
            "extraData" : "0x42",
            "gasLimit" : "0x0f4240",
            "gasUsed" : "0x00",
            "hash" : "0x8e9243dc281b340efd87865e61aa0a7ba7d1ca9b9c95d53544d76136b97987fc",
            "mixHash" : "0x0000000000000000000000000000000000000000000000000000000000000000",
            "nonce" : "0x0000000000000000",
            "number" : "0x00",
            "parentHash" : "0x0000000000000000000000000000000000000000000000000000000000000000",
            "receiptTrie" : "0x56e81f171bcc55a6ff8345e692c0f86e5b48e01b996cadc001622fb5e363b421",
            "stateRoot" : "0x0fbecfc15d791488d359dacd24955ae86a58f8d50d69cd3974e0bdcc26e0d8e7",
            "timestamp" : "0x03e8",
            "transactionsTrie" : "0x56e81f171bcc55a6ff8345e692c0f86e5b48e01b996cadc001622fb5e363b421",
            "uncleHash" : "0x1dcc4de8dec75d7aab85b567b6ccd41ad312451b948a7413f0a142fd40d49347",
            "baseFee" : "0x10"
        },
        "genesisRLP" : "0xf901fbf901f6a00000000000000000000000000000000000000000000000000000000000000000a01dcc4de8dec75d7aab85b567b6ccd41ad312451b948a7413f0a142fd40d4934794b94f5374fce5edbc8e2a8697c15331677e6ebf0ba00fbecfc15d791488d359dacd24955ae86a58f8d50d69cd3974e0bdcc26e0d8e7a056e81f171bcc55a6ff8345e692c0f86e5b48e01b996cadc001622fb5e363b421a056e81f171bcc55a6ff8345e692c0f86e5b48e01b996cadc001622fb5e363b421b90100000000000000000000000000000000000000000000000000000000000000000000000000000000000000000000000000000000000000000000000000000000000000000000000000000000000000000000000000000000000000000000000000000000000000000000000000000000000000000000000000000000000000000000000000000000000000000000000000000000000000000000000000000000000000000000000000000000000000000000000000000000000000000000000000000000000000000000000000000000000000000000000000000000000000000000000000000000000000000000000000000000000000000000000000000000008302000080830f4240808203e842a0000000000000000000000000000000000000000000000000000000000000000088000000000000000010c0c0",
        "blocks" : [
            {
                "chainname" : "default",
                "blocknumber" : "1",
                "uncleHeaders" : [
                ],
                "blockHeader" : {
                    "bloom" : "0x00000000000000000000000000000000000000000000000000000000000000000000000000000000000000000000000000000000000000000000000000000000000000000000000000000000000000000000000000000000000000000000000000000000000000000000000000000000000000000000000000000000000000000000000000000000000000000000000000000000000000000000000000000000000000000000000000000000000000000000000000000000000000000000000000000000000000000000000000000000000000000000000000000000000000000000000000000000000000000000000000000000000000000000000000000000",
                    "coinbase" : "0xb94f5374fce5edbc8e2a8697c15331677e6ebf0b",
                    "difficulty" : "0x020000",
                    "extraData" : "0x42",
                    "gasLimit" : "0x0f4240",
                    "gasUsed" : "0x54c4",
                    "hash" : "0x43aaf038babd6d5d90fd8ee8e2900bd5269169d77ed98ad638d64b3b6a22104f",
                    "mixHash" : "0x0000000000000000000000000000000000000000000000000000000000000000",
                    "nonce" : "0x0000000000000000",
                    "number" : "0x01",
                    "parentHash" : "0x8e9243dc281b340efd87865e61aa0a7ba7d1ca9b9c95d53544d76136b97987fc",
                    "receiptTrie" : "0xcc622cd09860dbcba5e111e2491e3c10a6a007266fe0036aefc4dc772e9e8e7c",
                    "stateRoot" : "0xf4c22b13d43d4d838037cc73e472c9d66cd72c5dce6f3d477383d1c0913528c0",
                    "timestamp" : "0x07d0",
                    "transactionsTrie" : "0xab9fe4ac341cf97677aad514961f3c825ad0c9af82a2f6d736163c9a054ed2b8",
                    "uncleHash" : "0x1dcc4de8dec75d7aab85b567b6ccd41ad312451b948a7413f0a142fd40d49347",
                    "baseFee" : "0x0e"
                },
                "transactions" : [
                    {
                        "data" : "0x",
                        "gasLimit" : "0x54c4",
                        "gasPrice" : "0x03e8",
                        "nonce" : "0x00",
                        "r" : "0xdb062bab4faa88d3331be03149455ab2e089aca6f3efcc2bfe7f02db1e89b718",
                        "s" : "0x3cc779b1576ca9bd7d8bb1f615bc746551a53aba93be569e5a585a6eaaea26e1",
                        "to" : "0xb94f5374fce5edbc8e2a8697c15331677e6ebf0b",
                        "v" : "0x1c",
                        "value" : "0x0a"
                    }
                ],
                "rlp" : "0xf90261f901f8a08e9243dc281b340efd87865e61aa0a7ba7d1ca9b9c95d53544d76136b97987fca01dcc4de8dec75d7aab85b567b6ccd41ad312451b948a7413f0a142fd40d4934794b94f5374fce5edbc8e2a8697c15331677e6ebf0ba0f4c22b13d43d4d838037cc73e472c9d66cd72c5dce6f3d477383d1c0913528c0a0ab9fe4ac341cf97677aad514961f3c825ad0c9af82a2f6d736163c9a054ed2b8a0cc622cd09860dbcba5e111e2491e3c10a6a007266fe0036aefc4dc772e9e8e7cb90100000000000000000000000000000000000000000000000000000000000000000000000000000000000000000000000000000000000000000000000000000000000000000000000000000000000000000000000000000000000000000000000000000000000000000000000000000000000000000000000000000000000000000000000000000000000000000000000000000000000000000000000000000000000000000000000000000000000000000000000000000000000000000000000000000000000000000000000000000000000000000000000000000000000000000000000000000000000000000000000000000000000000000000000000000000008302000001830f42408254c48207d042a000000000000000000000000000000000000000000000000000000000000000008800000000000000000ef863f861808203e88254c494b94f5374fce5edbc8e2a8697c15331677e6ebf0b0a801ca0db062bab4faa88d3331be03149455ab2e089aca6f3efcc2bfe7f02db1e89b718a03cc779b1576ca9bd7d8bb1f615bc746551a53aba93be569e5a585a6eaaea26e1c0"
            },
            {
                "chainname" : "default",
                "blocknumber" : "2",
                "uncleHeaders" : [
                ],
                "blockHeader" : {
                    "bloom" : "0x00000000000000000000000000000000000000000000000000000000000000000000000000000000000000000000000000000000000000000000000000000000000000000000000000000000000000000000000000000000000000000000000000000000000000000000000000000000000000000000000000000000000000000000000000000000000000000000000000000000000000000000000000000000000000000000000000000000000000000000000000000000000000000000000000000000000000000000000000000000000000000000000000000000000000000000000000000000000000000000000000000000000000000000000000000000",
                    "coinbase" : "0xb24f5374fce5edbc8e2a8697c15331677e6ebf0b",
                    "difficulty" : "0x020000",
                    "extraData" : "0x42",
                    "gasLimit" : "0x0f4240",
                    "gasUsed" : "0xd163",
                    "hash" : "0x4d5177154747ad0e779aea6056bd9f273d02aa6202a2648e18616699e99fa056",
                    "mixHash" : "0x0000000000000000000000000000000000000000000000000000000000000000",
                    "nonce" : "0x0000000000000000",
                    "number" : "0x02",
                    "parentHash" : "0x43aaf038babd6d5d90fd8ee8e2900bd5269169d77ed98ad638d64b3b6a22104f",
                    "receiptTrie" : "0x9bca0bb15596da57d190bd52836f542e44286c22cb1c22f4efe2c54946e53f8a",
                    "stateRoot" : "0x53a5f1f4ae11e46b728bdc5d1fed6fbb674f824551bb5027e230b7d236f18c47",
                    "timestamp" : "0x0bb8",
                    "transactionsTrie" : "0xe5d9d104a39ad50255f8280a0b2d6eb9b5ff9213065e9fb5eae9b2b0e31f44e0",
                    "uncleHash" : "0x1dcc4de8dec75d7aab85b567b6ccd41ad312451b948a7413f0a142fd40d49347",
                    "baseFee" : "0x0d"
                },
                "transactions" : [
                    {
                        "data" : "0x",
                        "gasLimit" : "0xea60",
                        "gasPrice" : "0x03e8",
                        "nonce" : "0x01",
                        "r" : "0xd2e54e989b91bd0b9e3ff0d67ea5ff8b1c9f5e031d6166bcf7019198616c63b4",
                        "s" : "0x350bf6ea8761dadb683ff1cfcf34e008c4c82ff9e3e7a836245f54ec62514a94",
                        "to" : "0xb24f5374fce5edbc8e2a8697c15331677e6ebf0b",
                        "v" : "0x1b",
                        "value" : "0x0a"
                    }
                ],
                "rlp" : "0xf90261f901f8a043aaf038babd6d5d90fd8ee8e2900bd5269169d77ed98ad638d64b3b6a22104fa01dcc4de8dec75d7aab85b567b6ccd41ad312451b948a7413f0a142fd40d4934794b24f5374fce5edbc8e2a8697c15331677e6ebf0ba053a5f1f4ae11e46b728bdc5d1fed6fbb674f824551bb5027e230b7d236f18c47a0e5d9d104a39ad50255f8280a0b2d6eb9b5ff9213065e9fb5eae9b2b0e31f44e0a09bca0bb15596da57d190bd52836f542e44286c22cb1c22f4efe2c54946e53f8ab90100000000000000000000000000000000000000000000000000000000000000000000000000000000000000000000000000000000000000000000000000000000000000000000000000000000000000000000000000000000000000000000000000000000000000000000000000000000000000000000000000000000000000000000000000000000000000000000000000000000000000000000000000000000000000000000000000000000000000000000000000000000000000000000000000000000000000000000000000000000000000000000000000000000000000000000000000000000000000000000000000000000000000000000000000000000008302000002830f424082d163820bb842a000000000000000000000000000000000000000000000000000000000000000008800000000000000000df863f861018203e882ea6094b24f5374fce5edbc8e2a8697c15331677e6ebf0b0a801ba0d2e54e989b91bd0b9e3ff0d67ea5ff8b1c9f5e031d6166bcf7019198616c63b4a0350bf6ea8761dadb683ff1cfcf34e008c4c82ff9e3e7a836245f54ec62514a94c0"
            }
        ],
        "postState" : {
            "0xa94f5374fce5edbc8e2a8697c15331677e6ebf0b" : {
                "code" : "0x",
                "nonce" : "0x02",
                "balance" : "0x7ea44d9e",
                "storage" : {
                }
            },
            "0xb24f5374fce5edbc8e2a8697c15331677e6ebf0b" : {
                "code" : "0x",
                "nonce" : "0x00",
                "balance" : "0x1bc16d674ec80000",
                "storage" : {
                }
            },
            "0xb94f5374fce5edbc8e2a8697c15331677e6ebf0b" : {
                "code" : "0x73c94f5374fce5edbc8e2a8697c15331677e6ebf0bff00",
                "nonce" : "0x00",
                "balance" : "0x1bc16d67500e7ed0",
                "storage" : {
                }
            },
            "0xc24f5374fce5edbc8e2a8697c15331677e6ebf0b" : {
                "code" : "0x",
                "nonce" : "0x00",
                "balance" : "0x03f2",
                "storage" : {
                }
            }
        },
        "lastblockhash" : "0x4d5177154747ad0e779aea6056bd9f273d02aa6202a2648e18616699e99fa056"
    }
}