{
    "suicideThenCheckBalance_Berlin" : {
        "_info" : {
            "comment" : "[2:22:42] Vitalik Buterin: another one is: (i) self-destruct contract C, (ii) in the next transaction, send 1 wei to C, (iii) verify that C's balance is 1 wei. [2:23:01] Vitalik Buterin: the reason this is important now is that with EIP98, clients will be switching to not 'committing' their caches to the trie at the end of every tx. [2:23:18] Vitalik Buterin: and this means that selfdestruct has to be handled more carefully than before. [2:23:49] Vitalik Buterin: pyethereum screwed it up and it had to get fixed, though pyethereum's bug had to do with pre-spurious dragon 'existence' so it may not be relevant now.",
            "filling-rpc-server" : "evm version 1.10.4-unstable-966ee3ae-20210528",
            "filling-tool-version" : "retesteth-0.1.1-eip1559+commit.658fc3a8.Linux.g++",
            "lllcversion" : "Version: 0.5.14-develop.2021.5.18+commit.14c9d5de.mod.Linux.g++",
            "source" : "src/BlockchainTestsFiller/ValidBlocks/bcStateTests/suicideThenCheckBalanceFiller.json",
            "sourceHash" : "30f98825ca08ca7b0c770bde21b8876fc2761d0cf3d7a5f34efabd8ebef553d5"
        },
        "sealEngine" : "NoProof",
        "network" : "Berlin",
        "pre" : {
            "0xa3476106159f87477ad639e3ddcbb6b240efe459" : {
                "balance" : "0x03e8",
                "code" : "0x6000600060006000600173e3476106159f87477ad639e3ddcbb6b240efe4596101f4f15073e3476106159f87477ad639e3ddcbb6b240efe4593160015500",
                "nonce" : "0x00",
                "storage" : {
                }
            },
            "0xa94f5374fce5edbc8e2a8697c15331677e6ebf0b" : {
                "balance" : "0x02540be400",
                "code" : "0x",
                "nonce" : "0x00",
                "storage" : {
                }
            },
            "0xe3476106159f87477ad639e3ddcbb6b240efe459" : {
                "balance" : "0x03e8",
                "code" : "0x60036001556001ff00",
                "nonce" : "0x00",
                "storage" : {
                }
            }
        },
        "genesisBlockHeader" : {
            "bloom" : "0x00000000000000000000000000000000000000000000000000000000000000000000000000000000000000000000000000000000000000000000000000000000000000000000000000000000000000000000000000000000000000000000000000000000000000000000000000000000000000000000000000000000000000000000000000000000000000000000000000000000000000000000000000000000000000000000000000000000000000000000000000000000000000000000000000000000000000000000000000000000000000000000000000000000000000000000000000000000000000000000000000000000000000000000000000000000",
            "coinbase" : "0x8888f1f195afa192cfee860698584c030f4c9db1",
            "difficulty" : "0x020000",
            "extraData" : "0x42",
            "gasLimit" : "0x2fefd8",
            "gasUsed" : "0x00",
            "hash" : "0xba7007e83718cc190baba6f363e3bb30c52dfc4603251c0e1d82a1788d41a8f0",
            "mixHash" : "0x0000000000000000000000000000000000000000000000000000000000000000",
            "nonce" : "0x0000000000000000",
            "number" : "0x00",
            "parentHash" : "0x0000000000000000000000000000000000000000000000000000000000000000",
            "receiptTrie" : "0x56e81f171bcc55a6ff8345e692c0f86e5b48e01b996cadc001622fb5e363b421",
            "stateRoot" : "0x18d124a3c56b6e32c3dd97a8a53a1aff3549052d0cdbd8b9b7c590f2ddbd2b45",
            "timestamp" : "0x54c98c81",
            "transactionsTrie" : "0x56e81f171bcc55a6ff8345e692c0f86e5b48e01b996cadc001622fb5e363b421",
            "uncleHash" : "0x1dcc4de8dec75d7aab85b567b6ccd41ad312451b948a7413f0a142fd40d49347"
        },
        "genesisRLP" : "0xf901fcf901f7a00000000000000000000000000000000000000000000000000000000000000000a01dcc4de8dec75d7aab85b567b6ccd41ad312451b948a7413f0a142fd40d49347948888f1f195afa192cfee860698584c030f4c9db1a018d124a3c56b6e32c3dd97a8a53a1aff3549052d0cdbd8b9b7c590f2ddbd2b45a056e81f171bcc55a6ff8345e692c0f86e5b48e01b996cadc001622fb5e363b421a056e81f171bcc55a6ff8345e692c0f86e5b48e01b996cadc001622fb5e363b421b90100000000000000000000000000000000000000000000000000000000000000000000000000000000000000000000000000000000000000000000000000000000000000000000000000000000000000000000000000000000000000000000000000000000000000000000000000000000000000000000000000000000000000000000000000000000000000000000000000000000000000000000000000000000000000000000000000000000000000000000000000000000000000000000000000000000000000000000000000000000000000000000000000000000000000000000000000000000000000000000000000000000000000000000000000000000008302000080832fefd8808454c98c8142a00000000000000000000000000000000000000000000000000000000000000000880000000000000000c0c0",
        "blocks" : [
            {
                "chainname" : "default",
                "blocknumber" : "1",
                "uncleHeaders" : [
                ],
                "blockHeader" : {
                    "bloom" : "0x00000000000000000000000000000000000000000000000000000000000000000000000000000000000000000000000000000000000000000000000000000000000000000000000000000000000000000000000000000000000000000000000000000000000000000000000000000000000000000000000000000000000000000000000000000000000000000000000000000000000000000000000000000000000000000000000000000000000000000000000000000000000000000000000000000000000000000000000000000000000000000000000000000000000000000000000000000000000000000000000000000000000000000000000000000000",
                    "coinbase" : "0x8888f1f195afa192cfee860698584c030f4c9db1",
                    "difficulty" : "0x020000",
                    "extraData" : "0x42",
                    "gasLimit" : "0x2fefd8",
                    "gasUsed" : "0x01eeae",
                    "hash" : "0xd60071a907cc38f9dc7603979fa67bc85d212b31d22761db916d55a016393797",
                    "mixHash" : "0x0000000000000000000000000000000000000000000000000000000000000000",
                    "nonce" : "0x0000000000000000",
                    "number" : "0x01",
                    "parentHash" : "0xba7007e83718cc190baba6f363e3bb30c52dfc4603251c0e1d82a1788d41a8f0",
                    "receiptTrie" : "0x8959d64aba01ff95424b76e5e1d1984edc9afdbd10978f4d0b102de27d8f0186",
                    "stateRoot" : "0xc353eb3696e60d3ade589a7e9df48ce1eebe69a420dd2c5f174825e56d1e60cb",
                    "timestamp" : "0x54c99069",
                    "transactionsTrie" : "0xb4797c60213da3acc3d7e2cf3cdd88e8ee2a7c1ef00de8339322a112c95a1b40",
                    "uncleHash" : "0x1dcc4de8dec75d7aab85b567b6ccd41ad312451b948a7413f0a142fd40d49347"
                },
                "transactions" : [
                    {
                        "data" : "0x",
                        "gasLimit" : "0x061a80",
                        "gasPrice" : "0x03e8",
                        "nonce" : "0x00",
                        "r" : "0x22d3acd62b67fefc11ef114c07f8dd4f771e2656e2bf909ea99102596239c67d",
                        "s" : "0x11e12211e374cb3f17c7bb824af94de5ebf4eed2152dac112e4ae189add8ada2",
                        "to" : "0xe3476106159f87477ad639e3ddcbb6b240efe459",
                        "v" : "0x1b",
                        "value" : "0x00"
                    },
                    {
                        "data" : "0x",
                        "gasLimit" : "0x061a80",
                        "gasPrice" : "0x03e8",
                        "nonce" : "0x01",
                        "r" : "0x7f2a8eee7f055a4286e5d436e4cdb9fae9adf71879b5bf75bd954d296b720a21",
                        "s" : "0x0571f8943bcc1b7ccdd4ca9c04b11ec4c4e87408506623bbd1160f427674f09a",
                        "to" : "0xa3476106159f87477ad639e3ddcbb6b240efe459",
                        "v" : "0x1c",
                        "value" : "0x00"
                    }
                ],
                "rlp" : "0xf902c8f901faa0ba7007e83718cc190baba6f363e3bb30c52dfc4603251c0e1d82a1788d41a8f0a01dcc4de8dec75d7aab85b567b6ccd41ad312451b948a7413f0a142fd40d49347948888f1f195afa192cfee860698584c030f4c9db1a0c353eb3696e60d3ade589a7e9df48ce1eebe69a420dd2c5f174825e56d1e60cba0b4797c60213da3acc3d7e2cf3cdd88e8ee2a7c1ef00de8339322a112c95a1b40a08959d64aba01ff95424b76e5e1d1984edc9afdbd10978f4d0b102de27d8f0186b90100000000000000000000000000000000000000000000000000000000000000000000000000000000000000000000000000000000000000000000000000000000000000000000000000000000000000000000000000000000000000000000000000000000000000000000000000000000000000000000000000000000000000000000000000000000000000000000000000000000000000000000000000000000000000000000000000000000000000000000000000000000000000000000000000000000000000000000000000000000000000000000000000000000000000000000000000000000000000000000000000000000000000000000000000000000008302000001832fefd88301eeae8454c9906942a00000000000000000000000000000000000000000000000000000000000000000880000000000000000f8c8f862808203e883061a8094e3476106159f87477ad639e3ddcbb6b240efe45980801ba022d3acd62b67fefc11ef114c07f8dd4f771e2656e2bf909ea99102596239c67da011e12211e374cb3f17c7bb824af94de5ebf4eed2152dac112e4ae189add8ada2f862018203e883061a8094a3476106159f87477ad639e3ddcbb6b240efe45980801ca07f2a8eee7f055a4286e5d436e4cdb9fae9adf71879b5bf75bd954d296b720a21a00571f8943bcc1b7ccdd4ca9c04b11ec4c4e87408506623bbd1160f427674f09ac0"
            }
        ],
        "postState" : {
            "0x0000000000000000000000000000000000000001" : {
                "code" : "0x",
                "nonce" : "0x00",
                "balance" : "0x03e8",
                "storage" : {
                }
            },
            "0x8888f1f195afa192cfee860698584c030f4c9db1" : {
                "code" : "0x",
                "nonce" : "0x00",
                "balance" : "0x1bc16d67565457b0",
                "storage" : {
                }
            },
            "0xa3476106159f87477ad639e3ddcbb6b240efe459" : {
                "code" : "0x6000600060006000600173e3476106159f87477ad639e3ddcbb6b240efe4596101f4f15073e3476106159f87477ad639e3ddcbb6b240efe4593160015500",
                "nonce" : "0x00",
                "balance" : "0x03e7",
                "storage" : {
                    "0x01" : "0x01"
                }
            },
            "0xa94f5374fce5edbc8e2a8697c15331677e6ebf0b" : {
                "code" : "0x",
                "nonce" : "0x02",
                "balance" : "0x024c7f8c50",
                "storage" : {
                }
            },
            "0xe3476106159f87477ad639e3ddcbb6b240efe459" : {
                "code" : "0x",
                "nonce" : "0x00",
                "balance" : "0x01",
                "storage" : {
                }
            }
        },
        "lastblockhash" : "0xd60071a907cc38f9dc7603979fa67bc85d212b31d22761db916d55a016393797"
    },
    "suicideThenCheckBalance_Istanbul" : {
        "_info" : {
            "comment" : "[2:22:42] Vitalik Buterin: another one is: (i) self-destruct contract C, (ii) in the next transaction, send 1 wei to C, (iii) verify that C's balance is 1 wei. [2:23:01] Vitalik Buterin: the reason this is important now is that with EIP98, clients will be switching to not 'committing' their caches to the trie at the end of every tx. [2:23:18] Vitalik Buterin: and this means that selfdestruct has to be handled more carefully than before. [2:23:49] Vitalik Buterin: pyethereum screwed it up and it had to get fixed, though pyethereum's bug had to do with pre-spurious dragon 'existence' so it may not be relevant now.",
            "filling-rpc-server" : "evm version 1.10.4-unstable-966ee3ae-20210528",
            "filling-tool-version" : "retesteth-0.1.1-eip1559+commit.658fc3a8.Linux.g++",
            "lllcversion" : "Version: 0.5.14-develop.2021.5.18+commit.14c9d5de.mod.Linux.g++",
            "source" : "src/BlockchainTestsFiller/ValidBlocks/bcStateTests/suicideThenCheckBalanceFiller.json",
            "sourceHash" : "30f98825ca08ca7b0c770bde21b8876fc2761d0cf3d7a5f34efabd8ebef553d5"
        },
        "sealEngine" : "NoProof",
        "network" : "Istanbul",
        "pre" : {
            "0xa3476106159f87477ad639e3ddcbb6b240efe459" : {
                "balance" : "0x03e8",
                "code" : "0x6000600060006000600173e3476106159f87477ad639e3ddcbb6b240efe4596101f4f15073e3476106159f87477ad639e3ddcbb6b240efe4593160015500",
                "nonce" : "0x00",
                "storage" : {
                }
            },
            "0xa94f5374fce5edbc8e2a8697c15331677e6ebf0b" : {
                "balance" : "0x02540be400",
                "code" : "0x",
                "nonce" : "0x00",
                "storage" : {
                }
            },
            "0xe3476106159f87477ad639e3ddcbb6b240efe459" : {
                "balance" : "0x03e8",
                "code" : "0x60036001556001ff00",
                "nonce" : "0x00",
                "storage" : {
                }
            }
        },
        "genesisBlockHeader" : {
            "bloom" : "0x00000000000000000000000000000000000000000000000000000000000000000000000000000000000000000000000000000000000000000000000000000000000000000000000000000000000000000000000000000000000000000000000000000000000000000000000000000000000000000000000000000000000000000000000000000000000000000000000000000000000000000000000000000000000000000000000000000000000000000000000000000000000000000000000000000000000000000000000000000000000000000000000000000000000000000000000000000000000000000000000000000000000000000000000000000000",
            "coinbase" : "0x8888f1f195afa192cfee860698584c030f4c9db1",
            "difficulty" : "0x020000",
            "extraData" : "0x42",
            "gasLimit" : "0x2fefd8",
            "gasUsed" : "0x00",
            "hash" : "0xba7007e83718cc190baba6f363e3bb30c52dfc4603251c0e1d82a1788d41a8f0",
            "mixHash" : "0x0000000000000000000000000000000000000000000000000000000000000000",
            "nonce" : "0x0000000000000000",
            "number" : "0x00",
            "parentHash" : "0x0000000000000000000000000000000000000000000000000000000000000000",
            "receiptTrie" : "0x56e81f171bcc55a6ff8345e692c0f86e5b48e01b996cadc001622fb5e363b421",
            "stateRoot" : "0x18d124a3c56b6e32c3dd97a8a53a1aff3549052d0cdbd8b9b7c590f2ddbd2b45",
            "timestamp" : "0x54c98c81",
            "transactionsTrie" : "0x56e81f171bcc55a6ff8345e692c0f86e5b48e01b996cadc001622fb5e363b421",
            "uncleHash" : "0x1dcc4de8dec75d7aab85b567b6ccd41ad312451b948a7413f0a142fd40d49347"
        },
        "genesisRLP" : "0xf901fcf901f7a00000000000000000000000000000000000000000000000000000000000000000a01dcc4de8dec75d7aab85b567b6ccd41ad312451b948a7413f0a142fd40d49347948888f1f195afa192cfee860698584c030f4c9db1a018d124a3c56b6e32c3dd97a8a53a1aff3549052d0cdbd8b9b7c590f2ddbd2b45a056e81f171bcc55a6ff8345e692c0f86e5b48e01b996cadc001622fb5e363b421a056e81f171bcc55a6ff8345e692c0f86e5b48e01b996cadc001622fb5e363b421b90100000000000000000000000000000000000000000000000000000000000000000000000000000000000000000000000000000000000000000000000000000000000000000000000000000000000000000000000000000000000000000000000000000000000000000000000000000000000000000000000000000000000000000000000000000000000000000000000000000000000000000000000000000000000000000000000000000000000000000000000000000000000000000000000000000000000000000000000000000000000000000000000000000000000000000000000000000000000000000000000000000000000000000000000000000000008302000080832fefd8808454c98c8142a00000000000000000000000000000000000000000000000000000000000000000880000000000000000c0c0",
        "blocks" : [
            {
                "chainname" : "default",
                "blocknumber" : "1",
                "uncleHeaders" : [
                ],
                "blockHeader" : {
                    "bloom" : "0x00000000000000000000000000000000000000000000000000000000000000000000000000000000000000000000000000000000000000000000000000000000000000000000000000000000000000000000000000000000000000000000000000000000000000000000000000000000000000000000000000000000000000000000000000000000000000000000000000000000000000000000000000000000000000000000000000000000000000000000000000000000000000000000000000000000000000000000000000000000000000000000000000000000000000000000000000000000000000000000000000000000000000000000000000000000",
                    "coinbase" : "0x8888f1f195afa192cfee860698584c030f4c9db1",
                    "difficulty" : "0x020000",
                    "extraData" : "0x42",
                    "gasLimit" : "0x2fefd8",
                    "gasUsed" : "0x01d932",
                    "hash" : "0x359cdfb083860742481a38682d4bda5dd24f826c85725647737fe3bbc1619325",
                    "mixHash" : "0x0000000000000000000000000000000000000000000000000000000000000000",
                    "nonce" : "0x0000000000000000",
                    "number" : "0x01",
                    "parentHash" : "0xba7007e83718cc190baba6f363e3bb30c52dfc4603251c0e1d82a1788d41a8f0",
                    "receiptTrie" : "0x7523cb1003a53616f591a73795af8271cf65bc9f53b05007fd3767707878577f",
                    "stateRoot" : "0x17198b2124f5ed139bc02a619621a74675d87bdd8a66af166d6c532c32b90952",
                    "timestamp" : "0x54c99069",
                    "transactionsTrie" : "0xb4797c60213da3acc3d7e2cf3cdd88e8ee2a7c1ef00de8339322a112c95a1b40",
                    "uncleHash" : "0x1dcc4de8dec75d7aab85b567b6ccd41ad312451b948a7413f0a142fd40d49347"
                },
                "transactions" : [
                    {
                        "data" : "0x",
                        "gasLimit" : "0x061a80",
                        "gasPrice" : "0x03e8",
                        "nonce" : "0x00",
                        "r" : "0x22d3acd62b67fefc11ef114c07f8dd4f771e2656e2bf909ea99102596239c67d",
                        "s" : "0x11e12211e374cb3f17c7bb824af94de5ebf4eed2152dac112e4ae189add8ada2",
                        "to" : "0xe3476106159f87477ad639e3ddcbb6b240efe459",
                        "v" : "0x1b",
                        "value" : "0x00"
                    },
                    {
                        "data" : "0x",
                        "gasLimit" : "0x061a80",
                        "gasPrice" : "0x03e8",
                        "nonce" : "0x01",
                        "r" : "0x7f2a8eee7f055a4286e5d436e4cdb9fae9adf71879b5bf75bd954d296b720a21",
                        "s" : "0x0571f8943bcc1b7ccdd4ca9c04b11ec4c4e87408506623bbd1160f427674f09a",
                        "to" : "0xa3476106159f87477ad639e3ddcbb6b240efe459",
                        "v" : "0x1c",
                        "value" : "0x00"
                    }
                ],
                "rlp" : "0xf902c8f901faa0ba7007e83718cc190baba6f363e3bb30c52dfc4603251c0e1d82a1788d41a8f0a01dcc4de8dec75d7aab85b567b6ccd41ad312451b948a7413f0a142fd40d49347948888f1f195afa192cfee860698584c030f4c9db1a017198b2124f5ed139bc02a619621a74675d87bdd8a66af166d6c532c32b90952a0b4797c60213da3acc3d7e2cf3cdd88e8ee2a7c1ef00de8339322a112c95a1b40a07523cb1003a53616f591a73795af8271cf65bc9f53b05007fd3767707878577fb90100000000000000000000000000000000000000000000000000000000000000000000000000000000000000000000000000000000000000000000000000000000000000000000000000000000000000000000000000000000000000000000000000000000000000000000000000000000000000000000000000000000000000000000000000000000000000000000000000000000000000000000000000000000000000000000000000000000000000000000000000000000000000000000000000000000000000000000000000000000000000000000000000000000000000000000000000000000000000000000000000000000000000000000000000000000008302000001832fefd88301d9328454c9906942a00000000000000000000000000000000000000000000000000000000000000000880000000000000000f8c8f862808203e883061a8094e3476106159f87477ad639e3ddcbb6b240efe45980801ba022d3acd62b67fefc11ef114c07f8dd4f771e2656e2bf909ea99102596239c67da011e12211e374cb3f17c7bb824af94de5ebf4eed2152dac112e4ae189add8ada2f862018203e883061a8094a3476106159f87477ad639e3ddcbb6b240efe45980801ca07f2a8eee7f055a4286e5d436e4cdb9fae9adf71879b5bf75bd954d296b720a21a00571f8943bcc1b7ccdd4ca9c04b11ec4c4e87408506623bbd1160f427674f09ac0"
            }
        ],
        "postState" : {
            "0x0000000000000000000000000000000000000001" : {
                "code" : "0x",
                "nonce" : "0x00",
                "balance" : "0x03e8",
                "storage" : {
                }
            },
            "0x8888f1f195afa192cfee860698584c030f4c9db1" : {
                "code" : "0x",
                "nonce" : "0x00",
                "balance" : "0x1bc16d6756006b50",
                "storage" : {
                }
            },
            "0xa3476106159f87477ad639e3ddcbb6b240efe459" : {
                "code" : "0x6000600060006000600173e3476106159f87477ad639e3ddcbb6b240efe4596101f4f15073e3476106159f87477ad639e3ddcbb6b240efe4593160015500",
                "nonce" : "0x00",
                "balance" : "0x03e7",
                "storage" : {
                    "0x01" : "0x01"
                }
            },
            "0xa94f5374fce5edbc8e2a8697c15331677e6ebf0b" : {
                "code" : "0x",
                "nonce" : "0x02",
                "balance" : "0x024cd378b0",
                "storage" : {
                }
            },
            "0xe3476106159f87477ad639e3ddcbb6b240efe459" : {
                "code" : "0x",
                "nonce" : "0x00",
                "balance" : "0x01",
                "storage" : {
                }
            }
        },
        "lastblockhash" : "0x359cdfb083860742481a38682d4bda5dd24f826c85725647737fe3bbc1619325"
    },
    "suicideThenCheckBalance_London" : {
        "_info" : {
            "comment" : "[2:22:42] Vitalik Buterin: another one is: (i) self-destruct contract C, (ii) in the next transaction, send 1 wei to C, (iii) verify that C's balance is 1 wei. [2:23:01] Vitalik Buterin: the reason this is important now is that with EIP98, clients will be switching to not 'committing' their caches to the trie at the end of every tx. [2:23:18] Vitalik Buterin: and this means that selfdestruct has to be handled more carefully than before. [2:23:49] Vitalik Buterin: pyethereum screwed it up and it had to get fixed, though pyethereum's bug had to do with pre-spurious dragon 'existence' so it may not be relevant now.",
            "filling-rpc-server" : "evm version 1.10.4-unstable-966ee3ae-20210528",
            "filling-tool-version" : "retesteth-0.1.1-eip1559+commit.658fc3a8.Linux.g++",
            "lllcversion" : "Version: 0.5.14-develop.2021.5.18+commit.14c9d5de.mod.Linux.g++",
            "source" : "src/BlockchainTestsFiller/ValidBlocks/bcStateTests/suicideThenCheckBalanceFiller.json",
            "sourceHash" : "30f98825ca08ca7b0c770bde21b8876fc2761d0cf3d7a5f34efabd8ebef553d5"
        },
        "sealEngine" : "NoProof",
        "network" : "London",
        "pre" : {
            "0xa3476106159f87477ad639e3ddcbb6b240efe459" : {
                "balance" : "0x03e8",
                "code" : "0x6000600060006000600173e3476106159f87477ad639e3ddcbb6b240efe4596101f4f15073e3476106159f87477ad639e3ddcbb6b240efe4593160015500",
                "nonce" : "0x00",
                "storage" : {
                }
            },
            "0xa94f5374fce5edbc8e2a8697c15331677e6ebf0b" : {
                "balance" : "0x02540be400",
                "code" : "0x",
                "nonce" : "0x00",
                "storage" : {
                }
            },
            "0xe3476106159f87477ad639e3ddcbb6b240efe459" : {
                "balance" : "0x03e8",
                "code" : "0x60036001556001ff00",
                "nonce" : "0x00",
                "storage" : {
                }
            }
        },
        "genesisBlockHeader" : {
            "bloom" : "0x00000000000000000000000000000000000000000000000000000000000000000000000000000000000000000000000000000000000000000000000000000000000000000000000000000000000000000000000000000000000000000000000000000000000000000000000000000000000000000000000000000000000000000000000000000000000000000000000000000000000000000000000000000000000000000000000000000000000000000000000000000000000000000000000000000000000000000000000000000000000000000000000000000000000000000000000000000000000000000000000000000000000000000000000000000000",
            "coinbase" : "0x8888f1f195afa192cfee860698584c030f4c9db1",
            "difficulty" : "0x020000",
            "extraData" : "0x42",
            "gasLimit" : "0x2fefd8",
            "gasUsed" : "0x00",
            "hash" : "0xbe5b90ab5738011b450452734de7419fd643e65bbb9701a6bc125f6ec2960536",
            "mixHash" : "0x0000000000000000000000000000000000000000000000000000000000000000",
            "nonce" : "0x0000000000000000",
            "number" : "0x00",
            "parentHash" : "0x0000000000000000000000000000000000000000000000000000000000000000",
            "receiptTrie" : "0x56e81f171bcc55a6ff8345e692c0f86e5b48e01b996cadc001622fb5e363b421",
            "stateRoot" : "0x18d124a3c56b6e32c3dd97a8a53a1aff3549052d0cdbd8b9b7c590f2ddbd2b45",
            "timestamp" : "0x54c98c81",
            "transactionsTrie" : "0x56e81f171bcc55a6ff8345e692c0f86e5b48e01b996cadc001622fb5e363b421",
            "uncleHash" : "0x1dcc4de8dec75d7aab85b567b6ccd41ad312451b948a7413f0a142fd40d49347",
            "baseFee" : "0x10"
        },
        "genesisRLP" : "0xf901fdf901f8a00000000000000000000000000000000000000000000000000000000000000000a01dcc4de8dec75d7aab85b567b6ccd41ad312451b948a7413f0a142fd40d49347948888f1f195afa192cfee860698584c030f4c9db1a018d124a3c56b6e32c3dd97a8a53a1aff3549052d0cdbd8b9b7c590f2ddbd2b45a056e81f171bcc55a6ff8345e692c0f86e5b48e01b996cadc001622fb5e363b421a056e81f171bcc55a6ff8345e692c0f86e5b48e01b996cadc001622fb5e363b421b90100000000000000000000000000000000000000000000000000000000000000000000000000000000000000000000000000000000000000000000000000000000000000000000000000000000000000000000000000000000000000000000000000000000000000000000000000000000000000000000000000000000000000000000000000000000000000000000000000000000000000000000000000000000000000000000000000000000000000000000000000000000000000000000000000000000000000000000000000000000000000000000000000000000000000000000000000000000000000000000000000000000000000000000000000000000008302000080832fefd8808454c98c8142a0000000000000000000000000000000000000000000000000000000000000000088000000000000000010c0c0",
        "blocks" : [
            {
                "chainname" : "default",
                "blocknumber" : "1",
                "uncleHeaders" : [
                ],
                "blockHeader" : {
                    "bloom" : "0x00000000000000000000000000000000000000000000000000000000000000000000000000000000000000000000000000000000000000000000000000000000000000000000000000000000000000000000000000000000000000000000000000000000000000000000000000000000000000000000000000000000000000000000000000000000000000000000000000000000000000000000000000000000000000000000000000000000000000000000000000000000000000000000000000000000000000000000000000000000000000000000000000000000000000000000000000000000000000000000000000000000000000000000000000000000",
                    "coinbase" : "0x8888f1f195afa192cfee860698584c030f4c9db1",
                    "difficulty" : "0x020000",
                    "extraData" : "0x42",
                    "gasLimit" : "0x2fefd8",
                    "gasUsed" : "0x024c6e",
                    "hash" : "0x0f65770052321fe8cf622dad54d61eb66d2c3e74f6bd4d84d0f20a1e1147a24b",
                    "mixHash" : "0x0000000000000000000000000000000000000000000000000000000000000000",
                    "nonce" : "0x0000000000000000",
                    "number" : "0x01",
                    "parentHash" : "0xbe5b90ab5738011b450452734de7419fd643e65bbb9701a6bc125f6ec2960536",
                    "receiptTrie" : "0x9102ca9caeab7e8e4660720a7c4407a0a90eeb85830152706e2516eb72ff0a68",
                    "stateRoot" : "0x47ce56a927ddfab7c510032be8e0897caf96447417aac587afeb6f9468758084",
                    "timestamp" : "0x54c99069",
                    "transactionsTrie" : "0xb4797c60213da3acc3d7e2cf3cdd88e8ee2a7c1ef00de8339322a112c95a1b40",
                    "uncleHash" : "0x1dcc4de8dec75d7aab85b567b6ccd41ad312451b948a7413f0a142fd40d49347",
                    "baseFee" : "0x0e"
                },
                "transactions" : [
                    {
                        "data" : "0x",
                        "gasLimit" : "0x061a80",
                        "gasPrice" : "0x03e8",
                        "nonce" : "0x00",
                        "r" : "0x22d3acd62b67fefc11ef114c07f8dd4f771e2656e2bf909ea99102596239c67d",
                        "s" : "0x11e12211e374cb3f17c7bb824af94de5ebf4eed2152dac112e4ae189add8ada2",
                        "to" : "0xe3476106159f87477ad639e3ddcbb6b240efe459",
                        "v" : "0x1b",
                        "value" : "0x00"
                    },
                    {
                        "data" : "0x",
                        "gasLimit" : "0x061a80",
                        "gasPrice" : "0x03e8",
                        "nonce" : "0x01",
                        "r" : "0x7f2a8eee7f055a4286e5d436e4cdb9fae9adf71879b5bf75bd954d296b720a21",
                        "s" : "0x0571f8943bcc1b7ccdd4ca9c04b11ec4c4e87408506623bbd1160f427674f09a",
                        "to" : "0xa3476106159f87477ad639e3ddcbb6b240efe459",
                        "v" : "0x1c",
                        "value" : "0x00"
                    }
                ],
                "rlp" : "0xf902c9f901fba0be5b90ab5738011b450452734de7419fd643e65bbb9701a6bc125f6ec2960536a01dcc4de8dec75d7aab85b567b6ccd41ad312451b948a7413f0a142fd40d49347948888f1f195afa192cfee860698584c030f4c9db1a047ce56a927ddfab7c510032be8e0897caf96447417aac587afeb6f9468758084a0b4797c60213da3acc3d7e2cf3cdd88e8ee2a7c1ef00de8339322a112c95a1b40a09102ca9caeab7e8e4660720a7c4407a0a90eeb85830152706e2516eb72ff0a68b90100000000000000000000000000000000000000000000000000000000000000000000000000000000000000000000000000000000000000000000000000000000000000000000000000000000000000000000000000000000000000000000000000000000000000000000000000000000000000000000000000000000000000000000000000000000000000000000000000000000000000000000000000000000000000000000000000000000000000000000000000000000000000000000000000000000000000000000000000000000000000000000000000000000000000000000000000000000000000000000000000000000000000000000000000000000008302000001832fefd883024c6e8454c9906942a000000000000000000000000000000000000000000000000000000000000000008800000000000000000ef8c8f862808203e883061a8094e3476106159f87477ad639e3ddcbb6b240efe45980801ba022d3acd62b67fefc11ef114c07f8dd4f771e2656e2bf909ea99102596239c67da011e12211e374cb3f17c7bb824af94de5ebf4eed2152dac112e4ae189add8ada2f862018203e883061a8094a3476106159f87477ad639e3ddcbb6b240efe45980801ca07f2a8eee7f055a4286e5d436e4cdb9fae9adf71879b5bf75bd954d296b720a21a00571f8943bcc1b7ccdd4ca9c04b11ec4c4e87408506623bbd1160f427674f09ac0"
            }
        ],
        "postState" : {
            "0x0000000000000000000000000000000000000001" : {
                "code" : "0x",
                "nonce" : "0x00",
                "balance" : "0x03e8",
                "storage" : {
                }
            },
            "0x8888f1f195afa192cfee860698584c030f4c9db1" : {
                "code" : "0x",
                "nonce" : "0x00",
                "balance" : "0x1bc16d6757a25fac",
                "storage" : {
                }
            },
            "0xa3476106159f87477ad639e3ddcbb6b240efe459" : {
                "code" : "0x6000600060006000600173e3476106159f87477ad639e3ddcbb6b240efe4596101f4f15073e3476106159f87477ad639e3ddcbb6b240efe4593160015500",
                "nonce" : "0x00",
                "balance" : "0x03e7",
                "storage" : {
                    "0x01" : "0x01"
                }
            },
            "0xa94f5374fce5edbc8e2a8697c15331677e6ebf0b" : {
                "code" : "0x",
                "nonce" : "0x02",
                "balance" : "0x024b115650",
                "storage" : {
                }
            },
            "0xe3476106159f87477ad639e3ddcbb6b240efe459" : {
                "code" : "0x",
                "nonce" : "0x00",
                "balance" : "0x01",
                "storage" : {
                }
            }
        },
        "lastblockhash" : "0x0f65770052321fe8cf622dad54d61eb66d2c3e74f6bd4d84d0f20a1e1147a24b"
    }
}