{
    "suicideCoinbase_Berlin" : {
        "_info" : {
            "comment" : "",
            "filling-rpc-server" : "evm version 1.10.4-unstable-966ee3ae-20210528",
            "filling-tool-version" : "retesteth-0.1.1-eip1559+commit.658fc3a8.Linux.g++",
            "lllcversion" : "Version: 0.5.14-develop.2021.5.18+commit.14c9d5de.mod.Linux.g++",
            "source" : "src/BlockchainTestsFiller/ValidBlocks/bcStateTests/suicideCoinbaseFiller.json",
            "sourceHash" : "a24e3b977703a40b439e7c0014d715b908222061c713eacdf7257ce2daca69dc"
        },
        "sealEngine" : "NoProof",
        "network" : "Berlin",
        "pre" : {
            "0x8888f1f195afa192cfee860698584c030f4c9db1" : {
                "balance" : "0x03e8",
                "code" : "0x60606040526000357c0100000000000000000000000000000000000000000000000000000000900480630c55699c146037576035565b005b60406004506042565b005b3373ffffffffffffffffffffffffffffffffffffffff16ff5b56",
                "nonce" : "0x00",
                "storage" : {
                }
            },
            "0xa94f5374fce5edbc8e2a8697c15331677e6ebf0b" : {
                "balance" : "0x2386f26fc10000",
                "code" : "0x",
                "nonce" : "0x00",
                "storage" : {
                }
            }
        },
        "genesisBlockHeader" : {
            "bloom" : "0x00000000000000000000000000000000000000000000000000000000000000000000000000000000000000000000000000000000000000000000000000000000000000000000000000000000000000000000000000000000000000000000000000000000000000000000000000000000000000000000000000000000000000000000000000000000000000000000000000000000000000000000000000000000000000000000000000000000000000000000000000000000000000000000000000000000000000000000000000000000000000000000000000000000000000000000000000000000000000000000000000000000000000000000000000000000",
            "coinbase" : "0x8888f1f195afa192cfee860698584c030f4c9db1",
            "difficulty" : "0x020000",
            "extraData" : "0x42",
            "gasLimit" : "0x2fefd8",
            "gasUsed" : "0x00",
            "hash" : "0x371a5cf73c226640223eaa7af4c425d343582c5d47dd60b495f0b4e8456925ab",
            "mixHash" : "0x0000000000000000000000000000000000000000000000000000000000000000",
            "nonce" : "0x0000000000000000",
            "number" : "0x00",
            "parentHash" : "0x0000000000000000000000000000000000000000000000000000000000000000",
            "receiptTrie" : "0x56e81f171bcc55a6ff8345e692c0f86e5b48e01b996cadc001622fb5e363b421",
            "stateRoot" : "0xba2a32d53a8df30ed0c74120d2d22f11ca44bdf5375a237d1d8c5ce08629af11",
            "timestamp" : "0x54c98c81",
            "transactionsTrie" : "0x56e81f171bcc55a6ff8345e692c0f86e5b48e01b996cadc001622fb5e363b421",
            "uncleHash" : "0x1dcc4de8dec75d7aab85b567b6ccd41ad312451b948a7413f0a142fd40d49347"
        },
        "genesisRLP" : "0xf901fcf901f7a00000000000000000000000000000000000000000000000000000000000000000a01dcc4de8dec75d7aab85b567b6ccd41ad312451b948a7413f0a142fd40d49347948888f1f195afa192cfee860698584c030f4c9db1a0ba2a32d53a8df30ed0c74120d2d22f11ca44bdf5375a237d1d8c5ce08629af11a056e81f171bcc55a6ff8345e692c0f86e5b48e01b996cadc001622fb5e363b421a056e81f171bcc55a6ff8345e692c0f86e5b48e01b996cadc001622fb5e363b421b90100000000000000000000000000000000000000000000000000000000000000000000000000000000000000000000000000000000000000000000000000000000000000000000000000000000000000000000000000000000000000000000000000000000000000000000000000000000000000000000000000000000000000000000000000000000000000000000000000000000000000000000000000000000000000000000000000000000000000000000000000000000000000000000000000000000000000000000000000000000000000000000000000000000000000000000000000000000000000000000000000000000000000000000000000000000008302000080832fefd8808454c98c8142a00000000000000000000000000000000000000000000000000000000000000000880000000000000000c0c0",
        "blocks" : [
            {
                "chainname" : "default",
                "blocknumber" : "1",
                "uncleHeaders" : [
                ],
                "blockHeader" : {
                    "bloom" : "0x00000000000000000000000000000000000000000000000000000000000000000000000000000000000000000000000000000000000000000000000000000000000000000000000000000000000000000000000000000000000000000000000000000000000000000000000000000000000000000000000000000000000000000000000000000000000000000000000000000000000000000000000000000000000000000000000000000000000000000000000000000000000000000000000000000000000000000000000000000000000000000000000000000000000000000000000000000000000000000000000000000000000000000000000000000000",
                    "coinbase" : "0x8888f1f195afa192cfee860698584c030f4c9db1",
                    "difficulty" : "0x020000",
                    "extraData" : "0x42",
                    "gasLimit" : "0x2fefd8",
                    "gasUsed" : "0xd723",
                    "hash" : "0x2dd652110e741da2a2a7d73fed07ecea99435923f93b302bbf8847e4944a1ec8",
                    "mixHash" : "0x0000000000000000000000000000000000000000000000000000000000000000",
                    "nonce" : "0x0000000000000000",
                    "number" : "0x01",
                    "parentHash" : "0x371a5cf73c226640223eaa7af4c425d343582c5d47dd60b495f0b4e8456925ab",
                    "receiptTrie" : "0x4154ea35f24da65e1a041fcecfdff49e102c06d57b09482f98f400d026ef6333",
                    "stateRoot" : "0xc85914f274936cada23f8194e779c6cf0203aece8c5f8714f5c1bec750589768",
                    "timestamp" : "0x54c99069",
                    "transactionsTrie" : "0x766957c406ac9b02a9fce018462fee725bc00137cfb3e0c0c0aa4d94506d38e0",
                    "uncleHash" : "0x1dcc4de8dec75d7aab85b567b6ccd41ad312451b948a7413f0a142fd40d49347"
                },
                "transactions" : [
                    {
                        "data" : "0x0c55699c",
                        "gasLimit" : "0x07a120",
                        "gasPrice" : "0x03e8",
                        "nonce" : "0x00",
                        "r" : "0xe8fe44f3e3d67cf1b6fd78edca1a0bd6c94290e2f4f5cf6870cd0de64801c926",
                        "s" : "0x625a7d8ffbb00b732c39c4e1bb4a57e894ac868a05b60a946cb6e3f1351b5854",
                        "to" : "0x8888f1f195afa192cfee860698584c030f4c9db1",
                        "v" : "0x1c",
                        "value" : "0x03e9"
                    },
                    {
                        "data" : "0x",
                        "gasLimit" : "0xc350",
                        "gasPrice" : "0x03e8",
                        "nonce" : "0x01",
                        "r" : "0xf968ac22a8b9efbb650a5819485904a2a4e0102c1c2ea06c3d3fedac0d7509f7",
                        "s" : "0x7741473664d35300d4e37b5552c8353b7c5d6fe93a4f7a413374e216dc4b411b",
                        "to" : "0x0000000000000000000000000000000000000000",
                        "v" : "0x1c",
                        "value" : "0x03e8"
                    },
                    {
                        "data" : "0x",
                        "gasLimit" : "0xc350",
                        "gasPrice" : "0x03e8",
                        "nonce" : "0x02",
                        "r" : "0x5e73352c4aac874c2aa259e1734add191ca807a5f829d009c1f196ed0933ba1e",
                        "s" : "0x48c99071118f02fc518c95b519511a1e650762c811a83bb9828ae5a578beb817",
                        "to" : "0x0000000000000000000000000000000000000000",
                        "v" : "0x1c",
                        "value" : "0x03ea"
                    }
                ],
                "rlp" : "0xf90334f901f9a0371a5cf73c226640223eaa7af4c425d343582c5d47dd60b495f0b4e8456925aba01dcc4de8dec75d7aab85b567b6ccd41ad312451b948a7413f0a142fd40d49347948888f1f195afa192cfee860698584c030f4c9db1a0c85914f274936cada23f8194e779c6cf0203aece8c5f8714f5c1bec750589768a0766957c406ac9b02a9fce018462fee725bc00137cfb3e0c0c0aa4d94506d38e0a04154ea35f24da65e1a041fcecfdff49e102c06d57b09482f98f400d026ef6333b90100000000000000000000000000000000000000000000000000000000000000000000000000000000000000000000000000000000000000000000000000000000000000000000000000000000000000000000000000000000000000000000000000000000000000000000000000000000000000000000000000000000000000000000000000000000000000000000000000000000000000000000000000000000000000000000000000000000000000000000000000000000000000000000000000000000000000000000000000000000000000000000000000000000000000000000000000000000000000000000000000000000000000000000000000000000008302000001832fefd882d7238454c9906942a00000000000000000000000000000000000000000000000000000000000000000880000000000000000f90134f868808203e88307a120948888f1f195afa192cfee860698584c030f4c9db18203e9840c55699c1ca0e8fe44f3e3d67cf1b6fd78edca1a0bd6c94290e2f4f5cf6870cd0de64801c926a0625a7d8ffbb00b732c39c4e1bb4a57e894ac868a05b60a946cb6e3f1351b5854f863018203e882c3509400000000000000000000000000000000000000008203e8801ca0f968ac22a8b9efbb650a5819485904a2a4e0102c1c2ea06c3d3fedac0d7509f7a07741473664d35300d4e37b5552c8353b7c5d6fe93a4f7a413374e216dc4b411bf863028203e882c3509400000000000000000000000000000000000000008203ea801ca05e73352c4aac874c2aa259e1734add191ca807a5f829d009c1f196ed0933ba1ea048c99071118f02fc518c95b519511a1e650762c811a83bb9828ae5a578beb817c0"
            }
        ],
        "postState" : {
            "0x0000000000000000000000000000000000000000" : {
                "code" : "0x",
                "nonce" : "0x00",
                "balance" : "0x07d2",
                "storage" : {
                }
            },
            "0x8888f1f195afa192cfee860698584c030f4c9db1" : {
                "code" : "0x",
                "nonce" : "0x00",
                "balance" : "0x1bc16d675148de80",
                "storage" : {
                }
            },
            "0xa94f5374fce5edbc8e2a8697c15331677e6ebf0b" : {
                "code" : "0x",
                "nonce" : "0x03",
                "balance" : "0x2386f26c789b5e",
                "storage" : {
                }
            }
        },
        "lastblockhash" : "0x2dd652110e741da2a2a7d73fed07ecea99435923f93b302bbf8847e4944a1ec8"
    },
    "suicideCoinbase_Istanbul" : {
        "_info" : {
            "comment" : "",
            "filling-rpc-server" : "evm version 1.10.4-unstable-966ee3ae-20210528",
            "filling-tool-version" : "retesteth-0.1.1-eip1559+commit.658fc3a8.Linux.g++",
            "lllcversion" : "Version: 0.5.14-develop.2021.5.18+commit.14c9d5de.mod.Linux.g++",
            "source" : "src/BlockchainTestsFiller/ValidBlocks/bcStateTests/suicideCoinbaseFiller.json",
            "sourceHash" : "a24e3b977703a40b439e7c0014d715b908222061c713eacdf7257ce2daca69dc"
        },
        "sealEngine" : "NoProof",
        "network" : "Istanbul",
        "pre" : {
            "0x8888f1f195afa192cfee860698584c030f4c9db1" : {
                "balance" : "0x03e8",
                "code" : "0x60606040526000357c0100000000000000000000000000000000000000000000000000000000900480630c55699c146037576035565b005b60406004506042565b005b3373ffffffffffffffffffffffffffffffffffffffff16ff5b56",
                "nonce" : "0x00",
                "storage" : {
                }
            },
            "0xa94f5374fce5edbc8e2a8697c15331677e6ebf0b" : {
                "balance" : "0x2386f26fc10000",
                "code" : "0x",
                "nonce" : "0x00",
                "storage" : {
                }
            }
        },
        "genesisBlockHeader" : {
            "bloom" : "0x00000000000000000000000000000000000000000000000000000000000000000000000000000000000000000000000000000000000000000000000000000000000000000000000000000000000000000000000000000000000000000000000000000000000000000000000000000000000000000000000000000000000000000000000000000000000000000000000000000000000000000000000000000000000000000000000000000000000000000000000000000000000000000000000000000000000000000000000000000000000000000000000000000000000000000000000000000000000000000000000000000000000000000000000000000000",
            "coinbase" : "0x8888f1f195afa192cfee860698584c030f4c9db1",
            "difficulty" : "0x020000",
            "extraData" : "0x42",
            "gasLimit" : "0x2fefd8",
            "gasUsed" : "0x00",
            "hash" : "0x371a5cf73c226640223eaa7af4c425d343582c5d47dd60b495f0b4e8456925ab",
            "mixHash" : "0x0000000000000000000000000000000000000000000000000000000000000000",
            "nonce" : "0x0000000000000000",
            "number" : "0x00",
            "parentHash" : "0x0000000000000000000000000000000000000000000000000000000000000000",
            "receiptTrie" : "0x56e81f171bcc55a6ff8345e692c0f86e5b48e01b996cadc001622fb5e363b421",
            "stateRoot" : "0xba2a32d53a8df30ed0c74120d2d22f11ca44bdf5375a237d1d8c5ce08629af11",
            "timestamp" : "0x54c98c81",
            "transactionsTrie" : "0x56e81f171bcc55a6ff8345e692c0f86e5b48e01b996cadc001622fb5e363b421",
            "uncleHash" : "0x1dcc4de8dec75d7aab85b567b6ccd41ad312451b948a7413f0a142fd40d49347"
        },
        "genesisRLP" : "0xf901fcf901f7a00000000000000000000000000000000000000000000000000000000000000000a01dcc4de8dec75d7aab85b567b6ccd41ad312451b948a7413f0a142fd40d49347948888f1f195afa192cfee860698584c030f4c9db1a0ba2a32d53a8df30ed0c74120d2d22f11ca44bdf5375a237d1d8c5ce08629af11a056e81f171bcc55a6ff8345e692c0f86e5b48e01b996cadc001622fb5e363b421a056e81f171bcc55a6ff8345e692c0f86e5b48e01b996cadc001622fb5e363b421b90100000000000000000000000000000000000000000000000000000000000000000000000000000000000000000000000000000000000000000000000000000000000000000000000000000000000000000000000000000000000000000000000000000000000000000000000000000000000000000000000000000000000000000000000000000000000000000000000000000000000000000000000000000000000000000000000000000000000000000000000000000000000000000000000000000000000000000000000000000000000000000000000000000000000000000000000000000000000000000000000000000000000000000000000000000000008302000080832fefd8808454c98c8142a00000000000000000000000000000000000000000000000000000000000000000880000000000000000c0c0",
        "blocks" : [
            {
                "chainname" : "default",
                "blocknumber" : "1",
                "uncleHeaders" : [
                ],
                "blockHeader" : {
                    "bloom" : "0x00000000000000000000000000000000000000000000000000000000000000000000000000000000000000000000000000000000000000000000000000000000000000000000000000000000000000000000000000000000000000000000000000000000000000000000000000000000000000000000000000000000000000000000000000000000000000000000000000000000000000000000000000000000000000000000000000000000000000000000000000000000000000000000000000000000000000000000000000000000000000000000000000000000000000000000000000000000000000000000000000000000000000000000000000000000",
                    "coinbase" : "0x8888f1f195afa192cfee860698584c030f4c9db1",
                    "difficulty" : "0x020000",
                    "extraData" : "0x42",
                    "gasLimit" : "0x2fefd8",
                    "gasUsed" : "0xd723",
                    "hash" : "0x2dd652110e741da2a2a7d73fed07ecea99435923f93b302bbf8847e4944a1ec8",
                    "mixHash" : "0x0000000000000000000000000000000000000000000000000000000000000000",
                    "nonce" : "0x0000000000000000",
                    "number" : "0x01",
                    "parentHash" : "0x371a5cf73c226640223eaa7af4c425d343582c5d47dd60b495f0b4e8456925ab",
                    "receiptTrie" : "0x4154ea35f24da65e1a041fcecfdff49e102c06d57b09482f98f400d026ef6333",
                    "stateRoot" : "0xc85914f274936cada23f8194e779c6cf0203aece8c5f8714f5c1bec750589768",
                    "timestamp" : "0x54c99069",
                    "transactionsTrie" : "0x766957c406ac9b02a9fce018462fee725bc00137cfb3e0c0c0aa4d94506d38e0",
                    "uncleHash" : "0x1dcc4de8dec75d7aab85b567b6ccd41ad312451b948a7413f0a142fd40d49347"
                },
                "transactions" : [
                    {
                        "data" : "0x0c55699c",
                        "gasLimit" : "0x07a120",
                        "gasPrice" : "0x03e8",
                        "nonce" : "0x00",
                        "r" : "0xe8fe44f3e3d67cf1b6fd78edca1a0bd6c94290e2f4f5cf6870cd0de64801c926",
                        "s" : "0x625a7d8ffbb00b732c39c4e1bb4a57e894ac868a05b60a946cb6e3f1351b5854",
                        "to" : "0x8888f1f195afa192cfee860698584c030f4c9db1",
                        "v" : "0x1c",
                        "value" : "0x03e9"
                    },
                    {
                        "data" : "0x",
                        "gasLimit" : "0xc350",
                        "gasPrice" : "0x03e8",
                        "nonce" : "0x01",
                        "r" : "0xf968ac22a8b9efbb650a5819485904a2a4e0102c1c2ea06c3d3fedac0d7509f7",
                        "s" : "0x7741473664d35300d4e37b5552c8353b7c5d6fe93a4f7a413374e216dc4b411b",
                        "to" : "0x0000000000000000000000000000000000000000",
                        "v" : "0x1c",
                        "value" : "0x03e8"
                    },
                    {
                        "data" : "0x",
                        "gasLimit" : "0xc350",
                        "gasPrice" : "0x03e8",
                        "nonce" : "0x02",
                        "r" : "0x5e73352c4aac874c2aa259e1734add191ca807a5f829d009c1f196ed0933ba1e",
                        "s" : "0x48c99071118f02fc518c95b519511a1e650762c811a83bb9828ae5a578beb817",
                        "to" : "0x0000000000000000000000000000000000000000",
                        "v" : "0x1c",
                        "value" : "0x03ea"
                    }
                ],
                "rlp" : "0xf90334f901f9a0371a5cf73c226640223eaa7af4c425d343582c5d47dd60b495f0b4e8456925aba01dcc4de8dec75d7aab85b567b6ccd41ad312451b948a7413f0a142fd40d49347948888f1f195afa192cfee860698584c030f4c9db1a0c85914f274936cada23f8194e779c6cf0203aece8c5f8714f5c1bec750589768a0766957c406ac9b02a9fce018462fee725bc00137cfb3e0c0c0aa4d94506d38e0a04154ea35f24da65e1a041fcecfdff49e102c06d57b09482f98f400d026ef6333b90100000000000000000000000000000000000000000000000000000000000000000000000000000000000000000000000000000000000000000000000000000000000000000000000000000000000000000000000000000000000000000000000000000000000000000000000000000000000000000000000000000000000000000000000000000000000000000000000000000000000000000000000000000000000000000000000000000000000000000000000000000000000000000000000000000000000000000000000000000000000000000000000000000000000000000000000000000000000000000000000000000000000000000000000000000000008302000001832fefd882d7238454c9906942a00000000000000000000000000000000000000000000000000000000000000000880000000000000000f90134f868808203e88307a120948888f1f195afa192cfee860698584c030f4c9db18203e9840c55699c1ca0e8fe44f3e3d67cf1b6fd78edca1a0bd6c94290e2f4f5cf6870cd0de64801c926a0625a7d8ffbb00b732c39c4e1bb4a57e894ac868a05b60a946cb6e3f1351b5854f863018203e882c3509400000000000000000000000000000000000000008203e8801ca0f968ac22a8b9efbb650a5819485904a2a4e0102c1c2ea06c3d3fedac0d7509f7a07741473664d35300d4e37b5552c8353b7c5d6fe93a4f7a413374e216dc4b411bf863028203e882c3509400000000000000000000000000000000000000008203ea801ca05e73352c4aac874c2aa259e1734add191ca807a5f829d009c1f196ed0933ba1ea048c99071118f02fc518c95b519511a1e650762c811a83bb9828ae5a578beb817c0"
            }
        ],
        "postState" : {
            "0x0000000000000000000000000000000000000000" : {
                "code" : "0x",
                "nonce" : "0x00",
                "balance" : "0x07d2",
                "storage" : {
                }
            },
            "0x8888f1f195afa192cfee860698584c030f4c9db1" : {
                "code" : "0x",
                "nonce" : "0x00",
                "balance" : "0x1bc16d675148de80",
                "storage" : {
                }
            },
            "0xa94f5374fce5edbc8e2a8697c15331677e6ebf0b" : {
                "code" : "0x",
                "nonce" : "0x03",
                "balance" : "0x2386f26c789b5e",
                "storage" : {
                }
            }
        },
        "lastblockhash" : "0x2dd652110e741da2a2a7d73fed07ecea99435923f93b302bbf8847e4944a1ec8"
    },
    "suicideCoinbase_London" : {
        "_info" : {
            "comment" : "",
            "filling-rpc-server" : "evm version 1.10.4-unstable-966ee3ae-20210528",
            "filling-tool-version" : "retesteth-0.1.1-eip1559+commit.658fc3a8.Linux.g++",
            "lllcversion" : "Version: 0.5.14-develop.2021.5.18+commit.14c9d5de.mod.Linux.g++",
            "source" : "src/BlockchainTestsFiller/ValidBlocks/bcStateTests/suicideCoinbaseFiller.json",
            "sourceHash" : "a24e3b977703a40b439e7c0014d715b908222061c713eacdf7257ce2daca69dc"
        },
        "sealEngine" : "NoProof",
        "network" : "London",
        "pre" : {
            "0x8888f1f195afa192cfee860698584c030f4c9db1" : {
                "balance" : "0x03e8",
                "code" : "0x60606040526000357c0100000000000000000000000000000000000000000000000000000000900480630c55699c146037576035565b005b60406004506042565b005b3373ffffffffffffffffffffffffffffffffffffffff16ff5b56",
                "nonce" : "0x00",
                "storage" : {
                }
            },
            "0xa94f5374fce5edbc8e2a8697c15331677e6ebf0b" : {
                "balance" : "0x2386f26fc10000",
                "code" : "0x",
                "nonce" : "0x00",
                "storage" : {
                }
            }
        },
        "genesisBlockHeader" : {
            "bloom" : "0x00000000000000000000000000000000000000000000000000000000000000000000000000000000000000000000000000000000000000000000000000000000000000000000000000000000000000000000000000000000000000000000000000000000000000000000000000000000000000000000000000000000000000000000000000000000000000000000000000000000000000000000000000000000000000000000000000000000000000000000000000000000000000000000000000000000000000000000000000000000000000000000000000000000000000000000000000000000000000000000000000000000000000000000000000000000",
            "coinbase" : "0x8888f1f195afa192cfee860698584c030f4c9db1",
            "difficulty" : "0x020000",
            "extraData" : "0x42",
            "gasLimit" : "0x2fefd8",
            "gasUsed" : "0x00",
            "hash" : "0xc2991562c986910d2ad69b5517c7a48e4e086dd7098e2bfe959341937ff55246",
            "mixHash" : "0x0000000000000000000000000000000000000000000000000000000000000000",
            "nonce" : "0x0000000000000000",
            "number" : "0x00",
            "parentHash" : "0x0000000000000000000000000000000000000000000000000000000000000000",
            "receiptTrie" : "0x56e81f171bcc55a6ff8345e692c0f86e5b48e01b996cadc001622fb5e363b421",
            "stateRoot" : "0xba2a32d53a8df30ed0c74120d2d22f11ca44bdf5375a237d1d8c5ce08629af11",
            "timestamp" : "0x54c98c81",
            "transactionsTrie" : "0x56e81f171bcc55a6ff8345e692c0f86e5b48e01b996cadc001622fb5e363b421",
            "uncleHash" : "0x1dcc4de8dec75d7aab85b567b6ccd41ad312451b948a7413f0a142fd40d49347",
            "baseFee" : "0x10"
        },
        "genesisRLP" : "0xf901fdf901f8a00000000000000000000000000000000000000000000000000000000000000000a01dcc4de8dec75d7aab85b567b6ccd41ad312451b948a7413f0a142fd40d49347948888f1f195afa192cfee860698584c030f4c9db1a0ba2a32d53a8df30ed0c74120d2d22f11ca44bdf5375a237d1d8c5ce08629af11a056e81f171bcc55a6ff8345e692c0f86e5b48e01b996cadc001622fb5e363b421a056e81f171bcc55a6ff8345e692c0f86e5b48e01b996cadc001622fb5e363b421b90100000000000000000000000000000000000000000000000000000000000000000000000000000000000000000000000000000000000000000000000000000000000000000000000000000000000000000000000000000000000000000000000000000000000000000000000000000000000000000000000000000000000000000000000000000000000000000000000000000000000000000000000000000000000000000000000000000000000000000000000000000000000000000000000000000000000000000000000000000000000000000000000000000000000000000000000000000000000000000000000000000000000000000000000000000000008302000080832fefd8808454c98c8142a0000000000000000000000000000000000000000000000000000000000000000088000000000000000010c0c0",
        "blocks" : [
            {
                "chainname" : "default",
                "blocknumber" : "1",
                "uncleHeaders" : [
                ],
                "blockHeader" : {
                    "bloom" : "0x00000000000000000000000000000000000000000000000000000000000000000000000000000000000000000000000000000000000000000000000000000000000000000000000000000000000000000000000000000000000000000000000000000000000000000000000000000000000000000000000000000000000000000000000000000000000000000000000000000000000000000000000000000000000000000000000000000000000000000000000000000000000000000000000000000000000000000000000000000000000000000000000000000000000000000000000000000000000000000000000000000000000000000000000000000000",
                    "coinbase" : "0x8888f1f195afa192cfee860698584c030f4c9db1",
                    "difficulty" : "0x020000",
                    "extraData" : "0x42",
                    "gasLimit" : "0x2fefd8",
                    "gasUsed" : "0x010a36",
                    "hash" : "0xd69452bc7b9a155a4a29c77fef73f07d2aaaa4679c523cc1578f42d6258ea1bc",
                    "mixHash" : "0x0000000000000000000000000000000000000000000000000000000000000000",
                    "nonce" : "0x0000000000000000",
                    "number" : "0x01",
                    "parentHash" : "0xc2991562c986910d2ad69b5517c7a48e4e086dd7098e2bfe959341937ff55246",
                    "receiptTrie" : "0xb7036e54999f172d767e00c84614ecb000a834a82db5dc073e11c2e8680cc543",
                    "stateRoot" : "0xe520079f65846c1965de77b1c4f52164e690c768bdafec6f3341a12f6f63439b",
                    "timestamp" : "0x54c99069",
                    "transactionsTrie" : "0x766957c406ac9b02a9fce018462fee725bc00137cfb3e0c0c0aa4d94506d38e0",
                    "uncleHash" : "0x1dcc4de8dec75d7aab85b567b6ccd41ad312451b948a7413f0a142fd40d49347",
                    "baseFee" : "0x0e"
                },
                "transactions" : [
                    {
                        "data" : "0x0c55699c",
                        "gasLimit" : "0x07a120",
                        "gasPrice" : "0x03e8",
                        "nonce" : "0x00",
                        "r" : "0xe8fe44f3e3d67cf1b6fd78edca1a0bd6c94290e2f4f5cf6870cd0de64801c926",
                        "s" : "0x625a7d8ffbb00b732c39c4e1bb4a57e894ac868a05b60a946cb6e3f1351b5854",
                        "to" : "0x8888f1f195afa192cfee860698584c030f4c9db1",
                        "v" : "0x1c",
                        "value" : "0x03e9"
                    },
                    {
                        "data" : "0x",
                        "gasLimit" : "0xc350",
                        "gasPrice" : "0x03e8",
                        "nonce" : "0x01",
                        "r" : "0xf968ac22a8b9efbb650a5819485904a2a4e0102c1c2ea06c3d3fedac0d7509f7",
                        "s" : "0x7741473664d35300d4e37b5552c8353b7c5d6fe93a4f7a413374e216dc4b411b",
                        "to" : "0x0000000000000000000000000000000000000000",
                        "v" : "0x1c",
                        "value" : "0x03e8"
                    },
                    {
                        "data" : "0x",
                        "gasLimit" : "0xc350",
                        "gasPrice" : "0x03e8",
                        "nonce" : "0x02",
                        "r" : "0x5e73352c4aac874c2aa259e1734add191ca807a5f829d009c1f196ed0933ba1e",
                        "s" : "0x48c99071118f02fc518c95b519511a1e650762c811a83bb9828ae5a578beb817",
                        "to" : "0x0000000000000000000000000000000000000000",
                        "v" : "0x1c",
                        "value" : "0x03ea"
                    }
                ],
                "rlp" : "0xf90336f901fba0c2991562c986910d2ad69b5517c7a48e4e086dd7098e2bfe959341937ff55246a01dcc4de8dec75d7aab85b567b6ccd41ad312451b948a7413f0a142fd40d49347948888f1f195afa192cfee860698584c030f4c9db1a0e520079f65846c1965de77b1c4f52164e690c768bdafec6f3341a12f6f63439ba0766957c406ac9b02a9fce018462fee725bc00137cfb3e0c0c0aa4d94506d38e0a0b7036e54999f172d767e00c84614ecb000a834a82db5dc073e11c2e8680cc543b90100000000000000000000000000000000000000000000000000000000000000000000000000000000000000000000000000000000000000000000000000000000000000000000000000000000000000000000000000000000000000000000000000000000000000000000000000000000000000000000000000000000000000000000000000000000000000000000000000000000000000000000000000000000000000000000000000000000000000000000000000000000000000000000000000000000000000000000000000000000000000000000000000000000000000000000000000000000000000000000000000000000000000000000000000000000008302000001832fefd883010a368454c9906942a000000000000000000000000000000000000000000000000000000000000000008800000000000000000ef90134f868808203e88307a120948888f1f195afa192cfee860698584c030f4c9db18203e9840c55699c1ca0e8fe44f3e3d67cf1b6fd78edca1a0bd6c94290e2f4f5cf6870cd0de64801c926a0625a7d8ffbb00b732c39c4e1bb4a57e894ac868a05b60a946cb6e3f1351b5854f863018203e882c3509400000000000000000000000000000000000000008203e8801ca0f968ac22a8b9efbb650a5819485904a2a4e0102c1c2ea06c3d3fedac0d7509f7a07741473664d35300d4e37b5552c8353b7c5d6fe93a4f7a413374e216dc4b411bf863028203e882c3509400000000000000000000000000000000000000008203ea801ca05e73352c4aac874c2aa259e1734add191ca807a5f829d009c1f196ed0933ba1ea048c99071118f02fc518c95b519511a1e650762c811a83bb9828ae5a578beb817c0"
            }
        ],
        "postState" : {
            "0x0000000000000000000000000000000000000000" : {
                "code" : "0x",
                "nonce" : "0x00",
                "balance" : "0x07d2",
                "storage" : {
                }
            },
            "0x8888f1f195afa192cfee860698584c030f4c9db1" : {
                "code" : "0x",
                "nonce" : "0x00",
                "balance" : "0x1bc16d67513fe5a0",
                "storage" : {
                }
            },
            "0xa94f5374fce5edbc8e2a8697c15331677e6ebf0b" : {
                "code" : "0x",
                "nonce" : "0x03",
                "balance" : "0x2386f26bb11926",
                "storage" : {
                }
            }
        },
        "lastblockhash" : "0xd69452bc7b9a155a4a29c77fef73f07d2aaaa4679c523cc1578f42d6258ea1bc"
    }
}