{
    "callcall_00_OOGE_1_d0g0v0_Byzantium" : {
        "_info" : {
            "comment" : "",
            "filledwith" : "testeth 1.7.0-alpha.1-20+commit.782a7283",
            "lllcversion" : "Version: 0.5.0-develop.2018.11.9+commit.9709dfe0.Linux.g++",
            "source" : "src/BlockchainTestsFiller/GeneralStateTests/stChangedEIP150/callcall_00_OOGE_1_d0g0v0Filler.json",
            "sourceHash" : "557db2bc70b2a02bc3c804e5ba1e77df2eb5f24b792366c6faae461a018a2181"
        },
        "blocks" : [
            {
                "blockHeader" : {
                    "bloom" : "0x00000000000000000000000000000000000000000000000000000000000000000000000000000000000000000000000000000000000000000000000000000000000000000000000000000000000000000000000000000000000000000000000000000000000000000000000000000000000000000000000000000000000000000000000000000000000000000000000000000000000000000000000000000000000000000000000000000000000000000000000000000000000000000000000000000000000000000000000000000000000000000000000000000000000000000000000000000000000000000000000000000000000000000000000000000000",
                    "coinbase" : "0x2adc25665018aa1fe0e6bc666dac8fc2697ff9ba",
                    "difficulty" : "0x020000",
                    "extraData" : "0x",
                    "gasLimit" : "0x01c9c380",
                    "gasUsed" : "0x01c49f",
                    "hash" : "0x3335fdf1c7d527da954d8cc2b15ac4035ce32d0bd1ca64f033551a306b5c4f7a",
                    "mixHash" : "0x0000000000000000000000000000000000000000000000000000000000000000",
                    "nonce" : "0x0000000000000000",
                    "number" : "0x01",
                    "parentHash" : "0xec033b933bb242708ac8e81a50179afdcf9953496b3250208f5f1c1cd554fd7c",
                    "receiptTrie" : "0xaf0bacc9c88f7f366e10dc24b62a5e4188212ac033c9dfba47c66dd08aad3dcc",
                    "stateRoot" : "0x486f5bd5a1340f11066eb76821de4dd7900f62d08779ba00d4da29c0528e6704",
                    "timestamp" : "0x03e8",
                    "transactionsTrie" : "0x31ebf0c647947ef6259774d4201abfaf7c7473fbb365f6925d3c6c038fdea0e0",
                    "uncleHash" : "0x1dcc4de8dec75d7aab85b567b6ccd41ad312451b948a7413f0a142fd40d49347"
                },
                "rlp" : "0xf90261f901f9a0ec033b933bb242708ac8e81a50179afdcf9953496b3250208f5f1c1cd554fd7ca01dcc4de8dec75d7aab85b567b6ccd41ad312451b948a7413f0a142fd40d49347942adc25665018aa1fe0e6bc666dac8fc2697ff9baa0486f5bd5a1340f11066eb76821de4dd7900f62d08779ba00d4da29c0528e6704a031ebf0c647947ef6259774d4201abfaf7c7473fbb365f6925d3c6c038fdea0e0a0af0bacc9c88f7f366e10dc24b62a5e4188212ac033c9dfba47c66dd08aad3dccb901000000000000000000000000000000000000000000000000000000000000000000000000000000000000000000000000000000000000000000000000000000000000000000000000000000000000000000000000000000000000000000000000000000000000000000000000000000000000000000000000000000000000000000000000000000000000000000000000000000000000000000000000000000000000000000000000000000000000000000000000000000000000000000000000000000000000000000000000000000000000000000000000000000000000000000000000000000000000000000000000000000000000000000000000000000000083020000018401c9c3808301c49f8203e880a00000000000000000000000000000000000000000000000000000000000000000880000000000000000f862f86080018302bf6294100000000000000000000000000000000000000080801ba0f2904491d7d84ada0d1d94ee35aac71a0cb52ea2f8c16545f7493c14737ba15ca002f2ee18f95a17f1ba5ed106d78ae430d1fc3c5f88eb86cfbce90c9bc09b20c4c0",
                "transactions" : [
                    {
                        "data" : "0x",
                        "gasLimit" : "0x02bf62",
                        "gasPrice" : "0x01",
                        "nonce" : "0x00",
                        "r" : "0xf2904491d7d84ada0d1d94ee35aac71a0cb52ea2f8c16545f7493c14737ba15c",
                        "s" : "0x02f2ee18f95a17f1ba5ed106d78ae430d1fc3c5f88eb86cfbce90c9bc09b20c4",
                        "to" : "0x1000000000000000000000000000000000000000",
                        "v" : "0x1b",
                        "value" : "0x00"
                    }
                ],
                "uncleHeaders" : [
                ]
            }
        ],
        "genesisBlockHeader" : {
            "bloom" : "0x00000000000000000000000000000000000000000000000000000000000000000000000000000000000000000000000000000000000000000000000000000000000000000000000000000000000000000000000000000000000000000000000000000000000000000000000000000000000000000000000000000000000000000000000000000000000000000000000000000000000000000000000000000000000000000000000000000000000000000000000000000000000000000000000000000000000000000000000000000000000000000000000000000000000000000000000000000000000000000000000000000000000000000000000000000000",
            "coinbase" : "0x2adc25665018aa1fe0e6bc666dac8fc2697ff9ba",
            "difficulty" : "0x020000",
            "extraData" : "0x42",
            "gasLimit" : "0x01c9c380",
            "gasUsed" : "0x00",
            "hash" : "0xec033b933bb242708ac8e81a50179afdcf9953496b3250208f5f1c1cd554fd7c",
            "mixHash" : "0x56e81f171bcc55a6ff8345e692c0f86e5b48e01b996cadc001622fb5e363b421",
            "nonce" : "0x0102030405060708",
            "number" : "0x00",
            "parentHash" : "0x0000000000000000000000000000000000000000000000000000000000000000",
            "receiptTrie" : "0x56e81f171bcc55a6ff8345e692c0f86e5b48e01b996cadc001622fb5e363b421",
            "stateRoot" : "0xdf714130209209838b82705a7b5d9cf7c716009b5f305f7eda4922384b481102",
            "timestamp" : "0x03b6",
            "transactionsTrie" : "0x56e81f171bcc55a6ff8345e692c0f86e5b48e01b996cadc001622fb5e363b421",
            "uncleHash" : "0x1dcc4de8dec75d7aab85b567b6ccd41ad312451b948a7413f0a142fd40d49347"
        },
        "genesisRLP" : "0xf901fbf901f6a00000000000000000000000000000000000000000000000000000000000000000a01dcc4de8dec75d7aab85b567b6ccd41ad312451b948a7413f0a142fd40d49347942adc25665018aa1fe0e6bc666dac8fc2697ff9baa0df714130209209838b82705a7b5d9cf7c716009b5f305f7eda4922384b481102a056e81f171bcc55a6ff8345e692c0f86e5b48e01b996cadc001622fb5e363b421a056e81f171bcc55a6ff8345e692c0f86e5b48e01b996cadc001622fb5e363b421b901000000000000000000000000000000000000000000000000000000000000000000000000000000000000000000000000000000000000000000000000000000000000000000000000000000000000000000000000000000000000000000000000000000000000000000000000000000000000000000000000000000000000000000000000000000000000000000000000000000000000000000000000000000000000000000000000000000000000000000000000000000000000000000000000000000000000000000000000000000000000000000000000000000000000000000000000000000000000000000000000000000000000000000000000000000000083020000808401c9c380808203b642a056e81f171bcc55a6ff8345e692c0f86e5b48e01b996cadc001622fb5e363b421880102030405060708c0c0",
        "lastblockhash" : "0x3335fdf1c7d527da954d8cc2b15ac4035ce32d0bd1ca64f033551a306b5c4f7a",
        "network" : "Byzantium",
        "postState" : {
            "0x1000000000000000000000000000000000000000" : {
                "balance" : "0x0de0b6b3a763ffff",
                "code" : "0x60406000604060006001731000000000000000000000000000000000000001620249f0f1600055",
                "nonce" : "0x00",
                "storage" : {
                    "0x00" : "0x01"
                }
            },
            "0x1000000000000000000000000000000000000001" : {
                "balance" : "0x0de0b6b3a763ffff",
                "code" : "0x60406000604060006002731000000000000000000000000000000000000002620186a0f1600155",
                "nonce" : "0x00",
                "storage" : {
                    "0x01" : "0x01"
                }
            },
            "0x1000000000000000000000000000000000000002" : {
                "balance" : "0x02",
                "code" : "0x600160025534600555",
                "nonce" : "0x00",
                "storage" : {
                    "0x02" : "0x01",
                    "0x05" : "0x02"
                }
            },
            "0x2adc25665018aa1fe0e6bc666dac8fc2697ff9ba" : {
                "balance" : "0x29a2241af62dc49f",
                "code" : "0x",
                "nonce" : "0x00",
                "storage" : {
                }
            },
            "0xa94f5374fce5edbc8e2a8697c15331677e6ebf0b" : {
                "balance" : "0x0de0b6b3a7623b61",
                "code" : "0x",
                "nonce" : "0x01",
                "storage" : {
                }
            }
        },
        "pre" : {
            "0x1000000000000000000000000000000000000000" : {
                "balance" : "0x0de0b6b3a7640000",
                "code" : "0x60406000604060006001731000000000000000000000000000000000000001620249f0f1600055",
                "nonce" : "0x00",
                "storage" : {
                }
            },
            "0x1000000000000000000000000000000000000001" : {
                "balance" : "0x0de0b6b3a7640000",
                "code" : "0x60406000604060006002731000000000000000000000000000000000000002620186a0f1600155",
                "nonce" : "0x00",
                "storage" : {
                }
            },
            "0x1000000000000000000000000000000000000002" : {
                "balance" : "0x00",
                "code" : "0x600160025534600555",
                "nonce" : "0x00",
                "storage" : {
                }
            },
            "0xa94f5374fce5edbc8e2a8697c15331677e6ebf0b" : {
                "balance" : "0x0de0b6b3a7640000",
                "code" : "0x",
                "nonce" : "0x00",
                "storage" : {
                }
            }
        },
        "sealEngine" : "NoProof"
    },
    "callcall_00_OOGE_1_d0g0v0_Constantinople" : {
        "_info" : {
            "comment" : "",
            "filledwith" : "testeth 1.7.0-alpha.1-20+commit.782a7283",
            "lllcversion" : "Version: 0.5.0-develop.2018.11.9+commit.9709dfe0.Linux.g++",
            "source" : "src/BlockchainTestsFiller/GeneralStateTests/stChangedEIP150/callcall_00_OOGE_1_d0g0v0Filler.json",
            "sourceHash" : "557db2bc70b2a02bc3c804e5ba1e77df2eb5f24b792366c6faae461a018a2181"
        },
        "blocks" : [
            {
                "blockHeader" : {
                    "bloom" : "0x00000000000000000000000000000000000000000000000000000000000000000000000000000000000000000000000000000000000000000000000000000000000000000000000000000000000000000000000000000000000000000000000000000000000000000000000000000000000000000000000000000000000000000000000000000000000000000000000000000000000000000000000000000000000000000000000000000000000000000000000000000000000000000000000000000000000000000000000000000000000000000000000000000000000000000000000000000000000000000000000000000000000000000000000000000000",
                    "coinbase" : "0x2adc25665018aa1fe0e6bc666dac8fc2697ff9ba",
                    "difficulty" : "0x020000",
                    "extraData" : "0x",
                    "gasLimit" : "0x01c9c380",
                    "gasUsed" : "0x01c49f",
                    "hash" : "0x6a99e952e5640ac868b0d7a85beba3efbd004b4b6b51e6e3775296cbc59b532f",
                    "mixHash" : "0x0000000000000000000000000000000000000000000000000000000000000000",
                    "nonce" : "0x0000000000000000",
                    "number" : "0x01",
                    "parentHash" : "0xec033b933bb242708ac8e81a50179afdcf9953496b3250208f5f1c1cd554fd7c",
                    "receiptTrie" : "0xaf0bacc9c88f7f366e10dc24b62a5e4188212ac033c9dfba47c66dd08aad3dcc",
                    "stateRoot" : "0xc36b3335be220e14b728b95b7c99d46da26c57f0fa4eda7a2c65390a20ce14f0",
                    "timestamp" : "0x03e8",
                    "transactionsTrie" : "0x31ebf0c647947ef6259774d4201abfaf7c7473fbb365f6925d3c6c038fdea0e0",
                    "uncleHash" : "0x1dcc4de8dec75d7aab85b567b6ccd41ad312451b948a7413f0a142fd40d49347"
                },
                "rlp" : "0xf90261f901f9a0ec033b933bb242708ac8e81a50179afdcf9953496b3250208f5f1c1cd554fd7ca01dcc4de8dec75d7aab85b567b6ccd41ad312451b948a7413f0a142fd40d49347942adc25665018aa1fe0e6bc666dac8fc2697ff9baa0c36b3335be220e14b728b95b7c99d46da26c57f0fa4eda7a2c65390a20ce14f0a031ebf0c647947ef6259774d4201abfaf7c7473fbb365f6925d3c6c038fdea0e0a0af0bacc9c88f7f366e10dc24b62a5e4188212ac033c9dfba47c66dd08aad3dccb901000000000000000000000000000000000000000000000000000000000000000000000000000000000000000000000000000000000000000000000000000000000000000000000000000000000000000000000000000000000000000000000000000000000000000000000000000000000000000000000000000000000000000000000000000000000000000000000000000000000000000000000000000000000000000000000000000000000000000000000000000000000000000000000000000000000000000000000000000000000000000000000000000000000000000000000000000000000000000000000000000000000000000000000000000000000083020000018401c9c3808301c49f8203e880a00000000000000000000000000000000000000000000000000000000000000000880000000000000000f862f86080018302bf6294100000000000000000000000000000000000000080801ba0f2904491d7d84ada0d1d94ee35aac71a0cb52ea2f8c16545f7493c14737ba15ca002f2ee18f95a17f1ba5ed106d78ae430d1fc3c5f88eb86cfbce90c9bc09b20c4c0",
                "transactions" : [
                    {
                        "data" : "0x",
                        "gasLimit" : "0x02bf62",
                        "gasPrice" : "0x01",
                        "nonce" : "0x00",
                        "r" : "0xf2904491d7d84ada0d1d94ee35aac71a0cb52ea2f8c16545f7493c14737ba15c",
                        "s" : "0x02f2ee18f95a17f1ba5ed106d78ae430d1fc3c5f88eb86cfbce90c9bc09b20c4",
                        "to" : "0x1000000000000000000000000000000000000000",
                        "v" : "0x1b",
                        "value" : "0x00"
                    }
                ],
                "uncleHeaders" : [
                ]
            }
        ],
        "genesisBlockHeader" : {
            "bloom" : "0x00000000000000000000000000000000000000000000000000000000000000000000000000000000000000000000000000000000000000000000000000000000000000000000000000000000000000000000000000000000000000000000000000000000000000000000000000000000000000000000000000000000000000000000000000000000000000000000000000000000000000000000000000000000000000000000000000000000000000000000000000000000000000000000000000000000000000000000000000000000000000000000000000000000000000000000000000000000000000000000000000000000000000000000000000000000",
            "coinbase" : "0x2adc25665018aa1fe0e6bc666dac8fc2697ff9ba",
            "difficulty" : "0x020000",
            "extraData" : "0x42",
            "gasLimit" : "0x01c9c380",
            "gasUsed" : "0x00",
            "hash" : "0xec033b933bb242708ac8e81a50179afdcf9953496b3250208f5f1c1cd554fd7c",
            "mixHash" : "0x56e81f171bcc55a6ff8345e692c0f86e5b48e01b996cadc001622fb5e363b421",
            "nonce" : "0x0102030405060708",
            "number" : "0x00",
            "parentHash" : "0x0000000000000000000000000000000000000000000000000000000000000000",
            "receiptTrie" : "0x56e81f171bcc55a6ff8345e692c0f86e5b48e01b996cadc001622fb5e363b421",
            "stateRoot" : "0xdf714130209209838b82705a7b5d9cf7c716009b5f305f7eda4922384b481102",
            "timestamp" : "0x03b6",
            "transactionsTrie" : "0x56e81f171bcc55a6ff8345e692c0f86e5b48e01b996cadc001622fb5e363b421",
            "uncleHash" : "0x1dcc4de8dec75d7aab85b567b6ccd41ad312451b948a7413f0a142fd40d49347"
        },
        "genesisRLP" : "0xf901fbf901f6a00000000000000000000000000000000000000000000000000000000000000000a01dcc4de8dec75d7aab85b567b6ccd41ad312451b948a7413f0a142fd40d49347942adc25665018aa1fe0e6bc666dac8fc2697ff9baa0df714130209209838b82705a7b5d9cf7c716009b5f305f7eda4922384b481102a056e81f171bcc55a6ff8345e692c0f86e5b48e01b996cadc001622fb5e363b421a056e81f171bcc55a6ff8345e692c0f86e5b48e01b996cadc001622fb5e363b421b901000000000000000000000000000000000000000000000000000000000000000000000000000000000000000000000000000000000000000000000000000000000000000000000000000000000000000000000000000000000000000000000000000000000000000000000000000000000000000000000000000000000000000000000000000000000000000000000000000000000000000000000000000000000000000000000000000000000000000000000000000000000000000000000000000000000000000000000000000000000000000000000000000000000000000000000000000000000000000000000000000000000000000000000000000000000083020000808401c9c380808203b642a056e81f171bcc55a6ff8345e692c0f86e5b48e01b996cadc001622fb5e363b421880102030405060708c0c0",
        "lastblockhash" : "0x6a99e952e5640ac868b0d7a85beba3efbd004b4b6b51e6e3775296cbc59b532f",
        "network" : "Constantinople",
        "postState" : {
            "0x1000000000000000000000000000000000000000" : {
                "balance" : "0x0de0b6b3a763ffff",
                "code" : "0x60406000604060006001731000000000000000000000000000000000000001620249f0f1600055",
                "nonce" : "0x00",
                "storage" : {
                    "0x00" : "0x01"
                }
            },
            "0x1000000000000000000000000000000000000001" : {
                "balance" : "0x0de0b6b3a763ffff",
                "code" : "0x60406000604060006002731000000000000000000000000000000000000002620186a0f1600155",
                "nonce" : "0x00",
                "storage" : {
                    "0x01" : "0x01"
                }
            },
            "0x1000000000000000000000000000000000000002" : {
                "balance" : "0x02",
                "code" : "0x600160025534600555",
                "nonce" : "0x00",
                "storage" : {
                    "0x02" : "0x01",
                    "0x05" : "0x02"
                }
            },
            "0x2adc25665018aa1fe0e6bc666dac8fc2697ff9ba" : {
                "balance" : "0x1bc16d674ec9c49f",
                "code" : "0x",
                "nonce" : "0x00",
                "storage" : {
                }
            },
            "0xa94f5374fce5edbc8e2a8697c15331677e6ebf0b" : {
                "balance" : "0x0de0b6b3a7623b61",
                "code" : "0x",
                "nonce" : "0x01",
                "storage" : {
                }
            }
        },
        "pre" : {
            "0x1000000000000000000000000000000000000000" : {
                "balance" : "0x0de0b6b3a7640000",
                "code" : "0x60406000604060006001731000000000000000000000000000000000000001620249f0f1600055",
                "nonce" : "0x00",
                "storage" : {
                }
            },
            "0x1000000000000000000000000000000000000001" : {
                "balance" : "0x0de0b6b3a7640000",
                "code" : "0x60406000604060006002731000000000000000000000000000000000000002620186a0f1600155",
                "nonce" : "0x00",
                "storage" : {
                }
            },
            "0x1000000000000000000000000000000000000002" : {
                "balance" : "0x00",
                "code" : "0x600160025534600555",
                "nonce" : "0x00",
                "storage" : {
                }
            },
            "0xa94f5374fce5edbc8e2a8697c15331677e6ebf0b" : {
                "balance" : "0x0de0b6b3a7640000",
                "code" : "0x",
                "nonce" : "0x00",
                "storage" : {
                }
            }
        },
        "sealEngine" : "NoProof"
    },
    "callcall_00_OOGE_1_d0g0v0_ConstantinopleFix" : {
        "_info" : {
            "comment" : "",
            "filledwith" : "testeth 1.7.0-alpha.1-20+commit.782a7283",
            "lllcversion" : "Version: 0.5.0-develop.2018.11.9+commit.9709dfe0.Linux.g++",
            "source" : "src/BlockchainTestsFiller/GeneralStateTests/stChangedEIP150/callcall_00_OOGE_1_d0g0v0Filler.json",
            "sourceHash" : "557db2bc70b2a02bc3c804e5ba1e77df2eb5f24b792366c6faae461a018a2181"
        },
        "blocks" : [
            {
                "blockHeader" : {
                    "bloom" : "0x00000000000000000000000000000000000000000000000000000000000000000000000000000000000000000000000000000000000000000000000000000000000000000000000000000000000000000000000000000000000000000000000000000000000000000000000000000000000000000000000000000000000000000000000000000000000000000000000000000000000000000000000000000000000000000000000000000000000000000000000000000000000000000000000000000000000000000000000000000000000000000000000000000000000000000000000000000000000000000000000000000000000000000000000000000000",
                    "coinbase" : "0x2adc25665018aa1fe0e6bc666dac8fc2697ff9ba",
                    "difficulty" : "0x020000",
                    "extraData" : "0x",
                    "gasLimit" : "0x01c9c380",
                    "gasUsed" : "0x01c49f",
                    "hash" : "0x6a99e952e5640ac868b0d7a85beba3efbd004b4b6b51e6e3775296cbc59b532f",
                    "mixHash" : "0x0000000000000000000000000000000000000000000000000000000000000000",
                    "nonce" : "0x0000000000000000",
                    "number" : "0x01",
                    "parentHash" : "0xec033b933bb242708ac8e81a50179afdcf9953496b3250208f5f1c1cd554fd7c",
                    "receiptTrie" : "0xaf0bacc9c88f7f366e10dc24b62a5e4188212ac033c9dfba47c66dd08aad3dcc",
                    "stateRoot" : "0xc36b3335be220e14b728b95b7c99d46da26c57f0fa4eda7a2c65390a20ce14f0",
                    "timestamp" : "0x03e8",
                    "transactionsTrie" : "0x31ebf0c647947ef6259774d4201abfaf7c7473fbb365f6925d3c6c038fdea0e0",
                    "uncleHash" : "0x1dcc4de8dec75d7aab85b567b6ccd41ad312451b948a7413f0a142fd40d49347"
                },
                "rlp" : "0xf90261f901f9a0ec033b933bb242708ac8e81a50179afdcf9953496b3250208f5f1c1cd554fd7ca01dcc4de8dec75d7aab85b567b6ccd41ad312451b948a7413f0a142fd40d49347942adc25665018aa1fe0e6bc666dac8fc2697ff9baa0c36b3335be220e14b728b95b7c99d46da26c57f0fa4eda7a2c65390a20ce14f0a031ebf0c647947ef6259774d4201abfaf7c7473fbb365f6925d3c6c038fdea0e0a0af0bacc9c88f7f366e10dc24b62a5e4188212ac033c9dfba47c66dd08aad3dccb901000000000000000000000000000000000000000000000000000000000000000000000000000000000000000000000000000000000000000000000000000000000000000000000000000000000000000000000000000000000000000000000000000000000000000000000000000000000000000000000000000000000000000000000000000000000000000000000000000000000000000000000000000000000000000000000000000000000000000000000000000000000000000000000000000000000000000000000000000000000000000000000000000000000000000000000000000000000000000000000000000000000000000000000000000000000083020000018401c9c3808301c49f8203e880a00000000000000000000000000000000000000000000000000000000000000000880000000000000000f862f86080018302bf6294100000000000000000000000000000000000000080801ba0f2904491d7d84ada0d1d94ee35aac71a0cb52ea2f8c16545f7493c14737ba15ca002f2ee18f95a17f1ba5ed106d78ae430d1fc3c5f88eb86cfbce90c9bc09b20c4c0",
                "transactions" : [
                    {
                        "data" : "0x",
                        "gasLimit" : "0x02bf62",
                        "gasPrice" : "0x01",
                        "nonce" : "0x00",
                        "r" : "0xf2904491d7d84ada0d1d94ee35aac71a0cb52ea2f8c16545f7493c14737ba15c",
                        "s" : "0x02f2ee18f95a17f1ba5ed106d78ae430d1fc3c5f88eb86cfbce90c9bc09b20c4",
                        "to" : "0x1000000000000000000000000000000000000000",
                        "v" : "0x1b",
                        "value" : "0x00"
                    }
                ],
                "uncleHeaders" : [
                ]
            }
        ],
        "genesisBlockHeader" : {
            "bloom" : "0x00000000000000000000000000000000000000000000000000000000000000000000000000000000000000000000000000000000000000000000000000000000000000000000000000000000000000000000000000000000000000000000000000000000000000000000000000000000000000000000000000000000000000000000000000000000000000000000000000000000000000000000000000000000000000000000000000000000000000000000000000000000000000000000000000000000000000000000000000000000000000000000000000000000000000000000000000000000000000000000000000000000000000000000000000000000",
            "coinbase" : "0x2adc25665018aa1fe0e6bc666dac8fc2697ff9ba",
            "difficulty" : "0x020000",
            "extraData" : "0x42",
            "gasLimit" : "0x01c9c380",
            "gasUsed" : "0x00",
            "hash" : "0xec033b933bb242708ac8e81a50179afdcf9953496b3250208f5f1c1cd554fd7c",
            "mixHash" : "0x56e81f171bcc55a6ff8345e692c0f86e5b48e01b996cadc001622fb5e363b421",
            "nonce" : "0x0102030405060708",
            "number" : "0x00",
            "parentHash" : "0x0000000000000000000000000000000000000000000000000000000000000000",
            "receiptTrie" : "0x56e81f171bcc55a6ff8345e692c0f86e5b48e01b996cadc001622fb5e363b421",
            "stateRoot" : "0xdf714130209209838b82705a7b5d9cf7c716009b5f305f7eda4922384b481102",
            "timestamp" : "0x03b6",
            "transactionsTrie" : "0x56e81f171bcc55a6ff8345e692c0f86e5b48e01b996cadc001622fb5e363b421",
            "uncleHash" : "0x1dcc4de8dec75d7aab85b567b6ccd41ad312451b948a7413f0a142fd40d49347"
        },
        "genesisRLP" : "0xf901fbf901f6a00000000000000000000000000000000000000000000000000000000000000000a01dcc4de8dec75d7aab85b567b6ccd41ad312451b948a7413f0a142fd40d49347942adc25665018aa1fe0e6bc666dac8fc2697ff9baa0df714130209209838b82705a7b5d9cf7c716009b5f305f7eda4922384b481102a056e81f171bcc55a6ff8345e692c0f86e5b48e01b996cadc001622fb5e363b421a056e81f171bcc55a6ff8345e692c0f86e5b48e01b996cadc001622fb5e363b421b901000000000000000000000000000000000000000000000000000000000000000000000000000000000000000000000000000000000000000000000000000000000000000000000000000000000000000000000000000000000000000000000000000000000000000000000000000000000000000000000000000000000000000000000000000000000000000000000000000000000000000000000000000000000000000000000000000000000000000000000000000000000000000000000000000000000000000000000000000000000000000000000000000000000000000000000000000000000000000000000000000000000000000000000000000000000083020000808401c9c380808203b642a056e81f171bcc55a6ff8345e692c0f86e5b48e01b996cadc001622fb5e363b421880102030405060708c0c0",
        "lastblockhash" : "0x6a99e952e5640ac868b0d7a85beba3efbd004b4b6b51e6e3775296cbc59b532f",
        "network" : "ConstantinopleFix",
        "postState" : {
            "0x1000000000000000000000000000000000000000" : {
                "balance" : "0x0de0b6b3a763ffff",
                "code" : "0x60406000604060006001731000000000000000000000000000000000000001620249f0f1600055",
                "nonce" : "0x00",
                "storage" : {
                    "0x00" : "0x01"
                }
            },
            "0x1000000000000000000000000000000000000001" : {
                "balance" : "0x0de0b6b3a763ffff",
                "code" : "0x60406000604060006002731000000000000000000000000000000000000002620186a0f1600155",
                "nonce" : "0x00",
                "storage" : {
                    "0x01" : "0x01"
                }
            },
            "0x1000000000000000000000000000000000000002" : {
                "balance" : "0x02",
                "code" : "0x600160025534600555",
                "nonce" : "0x00",
                "storage" : {
                    "0x02" : "0x01",
                    "0x05" : "0x02"
                }
            },
            "0x2adc25665018aa1fe0e6bc666dac8fc2697ff9ba" : {
                "balance" : "0x1bc16d674ec9c49f",
                "code" : "0x",
                "nonce" : "0x00",
                "storage" : {
                }
            },
            "0xa94f5374fce5edbc8e2a8697c15331677e6ebf0b" : {
                "balance" : "0x0de0b6b3a7623b61",
                "code" : "0x",
                "nonce" : "0x01",
                "storage" : {
                }
            }
        },
        "pre" : {
            "0x1000000000000000000000000000000000000000" : {
                "balance" : "0x0de0b6b3a7640000",
                "code" : "0x60406000604060006001731000000000000000000000000000000000000001620249f0f1600055",
                "nonce" : "0x00",
                "storage" : {
                }
            },
            "0x1000000000000000000000000000000000000001" : {
                "balance" : "0x0de0b6b3a7640000",
                "code" : "0x60406000604060006002731000000000000000000000000000000000000002620186a0f1600155",
                "nonce" : "0x00",
                "storage" : {
                }
            },
            "0x1000000000000000000000000000000000000002" : {
                "balance" : "0x00",
                "code" : "0x600160025534600555",
                "nonce" : "0x00",
                "storage" : {
                }
            },
            "0xa94f5374fce5edbc8e2a8697c15331677e6ebf0b" : {
                "balance" : "0x0de0b6b3a7640000",
                "code" : "0x",
                "nonce" : "0x00",
                "storage" : {
                }
            }
        },
        "sealEngine" : "NoProof"
    },
    "callcall_00_OOGE_1_d0g0v0_EIP150" : {
        "_info" : {
            "comment" : "",
            "filledwith" : "testeth 1.7.0-alpha.1-20+commit.782a7283",
            "lllcversion" : "Version: 0.5.0-develop.2018.11.9+commit.9709dfe0.Linux.g++",
            "source" : "src/BlockchainTestsFiller/GeneralStateTests/stChangedEIP150/callcall_00_OOGE_1_d0g0v0Filler.json",
            "sourceHash" : "557db2bc70b2a02bc3c804e5ba1e77df2eb5f24b792366c6faae461a018a2181"
        },
        "blocks" : [
            {
                "blockHeader" : {
                    "bloom" : "0x00000000000000000000000000000000000000000000000000000000000000000000000000000000000000000000000000000000000000000000000000000000000000000000000000000000000000000000000000000000000000000000000000000000000000000000000000000000000000000000000000000000000000000000000000000000000000000000000000000000000000000000000000000000000000000000000000000000000000000000000000000000000000000000000000000000000000000000000000000000000000000000000000000000000000000000000000000000000000000000000000000000000000000000000000000000",
                    "coinbase" : "0x2adc25665018aa1fe0e6bc666dac8fc2697ff9ba",
                    "difficulty" : "0x020000",
                    "extraData" : "0x",
                    "gasLimit" : "0x01c9c380",
                    "gasUsed" : "0x01c49f",
                    "hash" : "0x751e18132fe6eca38bb630e827d21024f48199b324f68cc7d65ad93abee3ebb9",
                    "mixHash" : "0x0000000000000000000000000000000000000000000000000000000000000000",
                    "nonce" : "0x0000000000000000",
                    "number" : "0x01",
                    "parentHash" : "0xec033b933bb242708ac8e81a50179afdcf9953496b3250208f5f1c1cd554fd7c",
                    "receiptTrie" : "0xe6aff110a7903b6979be95fb1a2bf7b209d4bf82f3b8ef9e87d7487f449e5f02",
                    "stateRoot" : "0x9a2c583fb9edd66fc38f8bbef9ad68ab7aec0abd25906b550361dc296fd71162",
                    "timestamp" : "0x03e8",
                    "transactionsTrie" : "0x31ebf0c647947ef6259774d4201abfaf7c7473fbb365f6925d3c6c038fdea0e0",
                    "uncleHash" : "0x1dcc4de8dec75d7aab85b567b6ccd41ad312451b948a7413f0a142fd40d49347"
                },
                "rlp" : "0xf90261f901f9a0ec033b933bb242708ac8e81a50179afdcf9953496b3250208f5f1c1cd554fd7ca01dcc4de8dec75d7aab85b567b6ccd41ad312451b948a7413f0a142fd40d49347942adc25665018aa1fe0e6bc666dac8fc2697ff9baa09a2c583fb9edd66fc38f8bbef9ad68ab7aec0abd25906b550361dc296fd71162a031ebf0c647947ef6259774d4201abfaf7c7473fbb365f6925d3c6c038fdea0e0a0e6aff110a7903b6979be95fb1a2bf7b209d4bf82f3b8ef9e87d7487f449e5f02b901000000000000000000000000000000000000000000000000000000000000000000000000000000000000000000000000000000000000000000000000000000000000000000000000000000000000000000000000000000000000000000000000000000000000000000000000000000000000000000000000000000000000000000000000000000000000000000000000000000000000000000000000000000000000000000000000000000000000000000000000000000000000000000000000000000000000000000000000000000000000000000000000000000000000000000000000000000000000000000000000000000000000000000000000000000000083020000018401c9c3808301c49f8203e880a00000000000000000000000000000000000000000000000000000000000000000880000000000000000f862f86080018302bf6294100000000000000000000000000000000000000080801ba0f2904491d7d84ada0d1d94ee35aac71a0cb52ea2f8c16545f7493c14737ba15ca002f2ee18f95a17f1ba5ed106d78ae430d1fc3c5f88eb86cfbce90c9bc09b20c4c0",
                "transactions" : [
                    {
                        "data" : "0x",
                        "gasLimit" : "0x02bf62",
                        "gasPrice" : "0x01",
                        "nonce" : "0x00",
                        "r" : "0xf2904491d7d84ada0d1d94ee35aac71a0cb52ea2f8c16545f7493c14737ba15c",
                        "s" : "0x02f2ee18f95a17f1ba5ed106d78ae430d1fc3c5f88eb86cfbce90c9bc09b20c4",
                        "to" : "0x1000000000000000000000000000000000000000",
                        "v" : "0x1b",
                        "value" : "0x00"
                    }
                ],
                "uncleHeaders" : [
                ]
            }
        ],
        "genesisBlockHeader" : {
            "bloom" : "0x00000000000000000000000000000000000000000000000000000000000000000000000000000000000000000000000000000000000000000000000000000000000000000000000000000000000000000000000000000000000000000000000000000000000000000000000000000000000000000000000000000000000000000000000000000000000000000000000000000000000000000000000000000000000000000000000000000000000000000000000000000000000000000000000000000000000000000000000000000000000000000000000000000000000000000000000000000000000000000000000000000000000000000000000000000000",
            "coinbase" : "0x2adc25665018aa1fe0e6bc666dac8fc2697ff9ba",
            "difficulty" : "0x020000",
            "extraData" : "0x42",
            "gasLimit" : "0x01c9c380",
            "gasUsed" : "0x00",
            "hash" : "0xec033b933bb242708ac8e81a50179afdcf9953496b3250208f5f1c1cd554fd7c",
            "mixHash" : "0x56e81f171bcc55a6ff8345e692c0f86e5b48e01b996cadc001622fb5e363b421",
            "nonce" : "0x0102030405060708",
            "number" : "0x00",
            "parentHash" : "0x0000000000000000000000000000000000000000000000000000000000000000",
            "receiptTrie" : "0x56e81f171bcc55a6ff8345e692c0f86e5b48e01b996cadc001622fb5e363b421",
            "stateRoot" : "0xdf714130209209838b82705a7b5d9cf7c716009b5f305f7eda4922384b481102",
            "timestamp" : "0x03b6",
            "transactionsTrie" : "0x56e81f171bcc55a6ff8345e692c0f86e5b48e01b996cadc001622fb5e363b421",
            "uncleHash" : "0x1dcc4de8dec75d7aab85b567b6ccd41ad312451b948a7413f0a142fd40d49347"
        },
        "genesisRLP" : "0xf901fbf901f6a00000000000000000000000000000000000000000000000000000000000000000a01dcc4de8dec75d7aab85b567b6ccd41ad312451b948a7413f0a142fd40d49347942adc25665018aa1fe0e6bc666dac8fc2697ff9baa0df714130209209838b82705a7b5d9cf7c716009b5f305f7eda4922384b481102a056e81f171bcc55a6ff8345e692c0f86e5b48e01b996cadc001622fb5e363b421a056e81f171bcc55a6ff8345e692c0f86e5b48e01b996cadc001622fb5e363b421b901000000000000000000000000000000000000000000000000000000000000000000000000000000000000000000000000000000000000000000000000000000000000000000000000000000000000000000000000000000000000000000000000000000000000000000000000000000000000000000000000000000000000000000000000000000000000000000000000000000000000000000000000000000000000000000000000000000000000000000000000000000000000000000000000000000000000000000000000000000000000000000000000000000000000000000000000000000000000000000000000000000000000000000000000000000000083020000808401c9c380808203b642a056e81f171bcc55a6ff8345e692c0f86e5b48e01b996cadc001622fb5e363b421880102030405060708c0c0",
        "lastblockhash" : "0x751e18132fe6eca38bb630e827d21024f48199b324f68cc7d65ad93abee3ebb9",
        "network" : "EIP150",
        "postState" : {
            "0x1000000000000000000000000000000000000000" : {
                "balance" : "0x0de0b6b3a763ffff",
                "code" : "0x60406000604060006001731000000000000000000000000000000000000001620249f0f1600055",
                "nonce" : "0x00",
                "storage" : {
                    "0x00" : "0x01"
                }
            },
            "0x1000000000000000000000000000000000000001" : {
                "balance" : "0x0de0b6b3a763ffff",
                "code" : "0x60406000604060006002731000000000000000000000000000000000000002620186a0f1600155",
                "nonce" : "0x00",
                "storage" : {
                    "0x01" : "0x01"
                }
            },
            "0x1000000000000000000000000000000000000002" : {
                "balance" : "0x02",
                "code" : "0x600160025534600555",
                "nonce" : "0x00",
                "storage" : {
                    "0x02" : "0x01",
                    "0x05" : "0x02"
                }
            },
            "0x2adc25665018aa1fe0e6bc666dac8fc2697ff9ba" : {
                "balance" : "0x4563918244f5c49f",
                "code" : "0x",
                "nonce" : "0x00",
                "storage" : {
                }
            },
            "0xa94f5374fce5edbc8e2a8697c15331677e6ebf0b" : {
                "balance" : "0x0de0b6b3a7623b61",
                "code" : "0x",
                "nonce" : "0x01",
                "storage" : {
                }
            }
        },
        "pre" : {
            "0x1000000000000000000000000000000000000000" : {
                "balance" : "0x0de0b6b3a7640000",
                "code" : "0x60406000604060006001731000000000000000000000000000000000000001620249f0f1600055",
                "nonce" : "0x00",
                "storage" : {
                }
            },
            "0x1000000000000000000000000000000000000001" : {
                "balance" : "0x0de0b6b3a7640000",
                "code" : "0x60406000604060006002731000000000000000000000000000000000000002620186a0f1600155",
                "nonce" : "0x00",
                "storage" : {
                }
            },
            "0x1000000000000000000000000000000000000002" : {
                "balance" : "0x00",
                "code" : "0x600160025534600555",
                "nonce" : "0x00",
                "storage" : {
                }
            },
            "0xa94f5374fce5edbc8e2a8697c15331677e6ebf0b" : {
                "balance" : "0x0de0b6b3a7640000",
                "code" : "0x",
                "nonce" : "0x00",
                "storage" : {
                }
            }
        },
        "sealEngine" : "NoProof"
    },
    "callcall_00_OOGE_1_d0g0v0_Homestead" : {
        "_info" : {
            "comment" : "",
            "filledwith" : "testeth 1.7.0-alpha.1-20+commit.782a7283",
            "lllcversion" : "Version: 0.5.0-develop.2018.11.9+commit.9709dfe0.Linux.g++",
            "source" : "src/BlockchainTestsFiller/GeneralStateTests/stChangedEIP150/callcall_00_OOGE_1_d0g0v0Filler.json",
            "sourceHash" : "557db2bc70b2a02bc3c804e5ba1e77df2eb5f24b792366c6faae461a018a2181"
        },
        "blocks" : [
            {
                "blockHeader" : {
                    "bloom" : "0x00000000000000000000000000000000000000000000000000000000000000000000000000000000000000000000000000000000000000000000000000000000000000000000000000000000000000000000000000000000000000000000000000000000000000000000000000000000000000000000000000000000000000000000000000000000000000000000000000000000000000000000000000000000000000000000000000000000000000000000000000000000000000000000000000000000000000000000000000000000000000000000000000000000000000000000000000000000000000000000000000000000000000000000000000000000",
                    "coinbase" : "0x2adc25665018aa1fe0e6bc666dac8fc2697ff9ba",
                    "difficulty" : "0x020000",
                    "extraData" : "0x",
                    "gasLimit" : "0x01c9c380",
                    "gasUsed" : "0x02bf62",
                    "hash" : "0xd3e37a26065117ea183579540f6890c0ba293165b540285e7c2a28609ea163f5",
                    "mixHash" : "0x0000000000000000000000000000000000000000000000000000000000000000",
                    "nonce" : "0x0000000000000000",
                    "number" : "0x01",
                    "parentHash" : "0xec033b933bb242708ac8e81a50179afdcf9953496b3250208f5f1c1cd554fd7c",
                    "receiptTrie" : "0x0bad4ccdf70a9d6d6c3ce257166ba55c860fc9c9538ec27d6e5357a05f8e8ae8",
                    "stateRoot" : "0x645ed78df4efc384798ed3e62e832fd787884fb7e1e8321074b41ea6df2e1802",
                    "timestamp" : "0x03e8",
                    "transactionsTrie" : "0x31ebf0c647947ef6259774d4201abfaf7c7473fbb365f6925d3c6c038fdea0e0",
                    "uncleHash" : "0x1dcc4de8dec75d7aab85b567b6ccd41ad312451b948a7413f0a142fd40d49347"
                },
                "rlp" : "0xf90261f901f9a0ec033b933bb242708ac8e81a50179afdcf9953496b3250208f5f1c1cd554fd7ca01dcc4de8dec75d7aab85b567b6ccd41ad312451b948a7413f0a142fd40d49347942adc25665018aa1fe0e6bc666dac8fc2697ff9baa0645ed78df4efc384798ed3e62e832fd787884fb7e1e8321074b41ea6df2e1802a031ebf0c647947ef6259774d4201abfaf7c7473fbb365f6925d3c6c038fdea0e0a00bad4ccdf70a9d6d6c3ce257166ba55c860fc9c9538ec27d6e5357a05f8e8ae8b901000000000000000000000000000000000000000000000000000000000000000000000000000000000000000000000000000000000000000000000000000000000000000000000000000000000000000000000000000000000000000000000000000000000000000000000000000000000000000000000000000000000000000000000000000000000000000000000000000000000000000000000000000000000000000000000000000000000000000000000000000000000000000000000000000000000000000000000000000000000000000000000000000000000000000000000000000000000000000000000000000000000000000000000000000000000083020000018401c9c3808302bf628203e880a00000000000000000000000000000000000000000000000000000000000000000880000000000000000f862f86080018302bf6294100000000000000000000000000000000000000080801ba0f2904491d7d84ada0d1d94ee35aac71a0cb52ea2f8c16545f7493c14737ba15ca002f2ee18f95a17f1ba5ed106d78ae430d1fc3c5f88eb86cfbce90c9bc09b20c4c0",
                "transactions" : [
                    {
                        "data" : "0x",
                        "gasLimit" : "0x02bf62",
                        "gasPrice" : "0x01",
                        "nonce" : "0x00",
                        "r" : "0xf2904491d7d84ada0d1d94ee35aac71a0cb52ea2f8c16545f7493c14737ba15c",
                        "s" : "0x02f2ee18f95a17f1ba5ed106d78ae430d1fc3c5f88eb86cfbce90c9bc09b20c4",
                        "to" : "0x1000000000000000000000000000000000000000",
                        "v" : "0x1b",
                        "value" : "0x00"
                    }
                ],
                "uncleHeaders" : [
                ]
            }
        ],
        "genesisBlockHeader" : {
            "bloom" : "0x00000000000000000000000000000000000000000000000000000000000000000000000000000000000000000000000000000000000000000000000000000000000000000000000000000000000000000000000000000000000000000000000000000000000000000000000000000000000000000000000000000000000000000000000000000000000000000000000000000000000000000000000000000000000000000000000000000000000000000000000000000000000000000000000000000000000000000000000000000000000000000000000000000000000000000000000000000000000000000000000000000000000000000000000000000000",
            "coinbase" : "0x2adc25665018aa1fe0e6bc666dac8fc2697ff9ba",
            "difficulty" : "0x020000",
            "extraData" : "0x42",
            "gasLimit" : "0x01c9c380",
            "gasUsed" : "0x00",
            "hash" : "0xec033b933bb242708ac8e81a50179afdcf9953496b3250208f5f1c1cd554fd7c",
            "mixHash" : "0x56e81f171bcc55a6ff8345e692c0f86e5b48e01b996cadc001622fb5e363b421",
            "nonce" : "0x0102030405060708",
            "number" : "0x00",
            "parentHash" : "0x0000000000000000000000000000000000000000000000000000000000000000",
            "receiptTrie" : "0x56e81f171bcc55a6ff8345e692c0f86e5b48e01b996cadc001622fb5e363b421",
            "stateRoot" : "0xdf714130209209838b82705a7b5d9cf7c716009b5f305f7eda4922384b481102",
            "timestamp" : "0x03b6",
            "transactionsTrie" : "0x56e81f171bcc55a6ff8345e692c0f86e5b48e01b996cadc001622fb5e363b421",
            "uncleHash" : "0x1dcc4de8dec75d7aab85b567b6ccd41ad312451b948a7413f0a142fd40d49347"
        },
        "genesisRLP" : "0xf901fbf901f6a00000000000000000000000000000000000000000000000000000000000000000a01dcc4de8dec75d7aab85b567b6ccd41ad312451b948a7413f0a142fd40d49347942adc25665018aa1fe0e6bc666dac8fc2697ff9baa0df714130209209838b82705a7b5d9cf7c716009b5f305f7eda4922384b481102a056e81f171bcc55a6ff8345e692c0f86e5b48e01b996cadc001622fb5e363b421a056e81f171bcc55a6ff8345e692c0f86e5b48e01b996cadc001622fb5e363b421b901000000000000000000000000000000000000000000000000000000000000000000000000000000000000000000000000000000000000000000000000000000000000000000000000000000000000000000000000000000000000000000000000000000000000000000000000000000000000000000000000000000000000000000000000000000000000000000000000000000000000000000000000000000000000000000000000000000000000000000000000000000000000000000000000000000000000000000000000000000000000000000000000000000000000000000000000000000000000000000000000000000000000000000000000000000000083020000808401c9c380808203b642a056e81f171bcc55a6ff8345e692c0f86e5b48e01b996cadc001622fb5e363b421880102030405060708c0c0",
        "lastblockhash" : "0xd3e37a26065117ea183579540f6890c0ba293165b540285e7c2a28609ea163f5",
        "network" : "Homestead",
        "postState" : {
            "0x1000000000000000000000000000000000000000" : {
                "balance" : "0x0de0b6b3a7640000",
                "code" : "0x60406000604060006001731000000000000000000000000000000000000001620249f0f1600055",
                "nonce" : "0x00",
                "storage" : {
                }
            },
            "0x1000000000000000000000000000000000000001" : {
                "balance" : "0x0de0b6b3a7640000",
                "code" : "0x60406000604060006002731000000000000000000000000000000000000002620186a0f1600155",
                "nonce" : "0x00",
                "storage" : {
                }
            },
            "0x1000000000000000000000000000000000000002" : {
                "balance" : "0x00",
                "code" : "0x600160025534600555",
                "nonce" : "0x00",
                "storage" : {
                }
            },
            "0x2adc25665018aa1fe0e6bc666dac8fc2697ff9ba" : {
                "balance" : "0x4563918244f6bf62",
                "code" : "0x",
                "nonce" : "0x00",
                "storage" : {
                }
            },
            "0xa94f5374fce5edbc8e2a8697c15331677e6ebf0b" : {
                "balance" : "0x0de0b6b3a761409e",
                "code" : "0x",
                "nonce" : "0x01",
                "storage" : {
                }
            }
        },
        "pre" : {
            "0x1000000000000000000000000000000000000000" : {
                "balance" : "0x0de0b6b3a7640000",
                "code" : "0x60406000604060006001731000000000000000000000000000000000000001620249f0f1600055",
                "nonce" : "0x00",
                "storage" : {
                }
            },
            "0x1000000000000000000000000000000000000001" : {
                "balance" : "0x0de0b6b3a7640000",
                "code" : "0x60406000604060006002731000000000000000000000000000000000000002620186a0f1600155",
                "nonce" : "0x00",
                "storage" : {
                }
            },
            "0x1000000000000000000000000000000000000002" : {
                "balance" : "0x00",
                "code" : "0x600160025534600555",
                "nonce" : "0x00",
                "storage" : {
                }
            },
            "0xa94f5374fce5edbc8e2a8697c15331677e6ebf0b" : {
                "balance" : "0x0de0b6b3a7640000",
                "code" : "0x",
                "nonce" : "0x00",
                "storage" : {
                }
            }
        },
        "sealEngine" : "NoProof"
    }
}