{
    "blockChainFrontierWithLargerTDvsHomesteadBlockchain2_FrontierToHomesteadAt5" : {
        "_info" : {
            "comment" : "",
            "filling-rpc-server" : "evm version 1.10.4-unstable-966ee3ae-20210528",
            "filling-tool-version" : "retesteth-0.1.1-eip1559+commit.658fc3a8.Linux.g++",
            "lllcversion" : "Version: 0.5.14-develop.2021.5.18+commit.14c9d5de.mod.Linux.g++",
            "source" : "src/BlockchainTestsFiller/TransitionTests/bcFrontierToHomestead/blockChainFrontierWithLargerTDvsHomesteadBlockchain2Filler.json",
            "sourceHash" : "154407b40f93b4d207c7f067119f4de0417ce5593cd24f3d2dd76f4b326e3caf"
        },
        "sealEngine" : "NoProof",
        "network" : "FrontierToHomesteadAt5",
        "pre" : {
            "0xa94f5374fce5edbc8e2a8697c15331677e6ebf0b" : {
                "balance" : "0x02540be400",
                "code" : "0x",
                "nonce" : "0x00",
                "storage" : {
                }
            }
        },
        "genesisBlockHeader" : {
            "bloom" : "0x00000000000000000000000000000000000000000000000000000000000000000000000000000000000000000000000000000000000000000000000000000000000000000000000000000000000000000000000000000000000000000000000000000000000000000000000000000000000000000000000000000000000000000000000000000000000000000000000000000000000000000000000000000000000000000000000000000000000000000000000000000000000000000000000000000000000000000000000000000000000000000000000000000000000000000000000000000000000000000000000000000000000000000000000000000000",
            "coinbase" : "0x8888f1f195afa192cfee860698584c030f4c9db1",
            "difficulty" : "0x020000",
            "extraData" : "0x42",
            "gasLimit" : "0x2fefd8",
            "gasUsed" : "0x00",
            "hash" : "0x68a61c4a05db4913009de5666753258eb9306157680dc5da0d93656550c9257e",
            "mixHash" : "0x0000000000000000000000000000000000000000000000000000000000000000",
            "nonce" : "0x0000000000000000",
            "number" : "0x00",
            "parentHash" : "0x0000000000000000000000000000000000000000000000000000000000000000",
            "receiptTrie" : "0x56e81f171bcc55a6ff8345e692c0f86e5b48e01b996cadc001622fb5e363b421",
            "stateRoot" : "0xcafd881ab193703b83816c49ff6c2bf6ba6f464a1be560c42106128c8dbc35e7",
            "timestamp" : "0x54c98c81",
            "transactionsTrie" : "0x56e81f171bcc55a6ff8345e692c0f86e5b48e01b996cadc001622fb5e363b421",
            "uncleHash" : "0x1dcc4de8dec75d7aab85b567b6ccd41ad312451b948a7413f0a142fd40d49347"
        },
        "genesisRLP" : "0xf901fcf901f7a00000000000000000000000000000000000000000000000000000000000000000a01dcc4de8dec75d7aab85b567b6ccd41ad312451b948a7413f0a142fd40d49347948888f1f195afa192cfee860698584c030f4c9db1a0cafd881ab193703b83816c49ff6c2bf6ba6f464a1be560c42106128c8dbc35e7a056e81f171bcc55a6ff8345e692c0f86e5b48e01b996cadc001622fb5e363b421a056e81f171bcc55a6ff8345e692c0f86e5b48e01b996cadc001622fb5e363b421b90100000000000000000000000000000000000000000000000000000000000000000000000000000000000000000000000000000000000000000000000000000000000000000000000000000000000000000000000000000000000000000000000000000000000000000000000000000000000000000000000000000000000000000000000000000000000000000000000000000000000000000000000000000000000000000000000000000000000000000000000000000000000000000000000000000000000000000000000000000000000000000000000000000000000000000000000000000000000000000000000000000000000000000000000000000000008302000080832fefd8808454c98c8142a00000000000000000000000000000000000000000000000000000000000000000880000000000000000c0c0",
        "blocks" : [
            {
                "chainname" : "A",
                "blocknumber" : "1",
                "uncleHeaders" : [
                ],
                "blockHeader" : {
                    "bloom" : "0x00000000000000000000000000000000000000000000000000000000000000000000000000000000000000000000000000000000000000000000000000000000000000000000000000000000000000000000000000000000000000000000000000000000000000000000000000000000000000000000000000000000000000000000000000000000000000000000000000000000000000000000000000000000000000000000000000000000000000000000000000000000000000000000000000000000000000000000000000000000000000000000000000000000000000000000000000000000000000000000000000000000000000000000000000000000",
                    "coinbase" : "0x8888f1f195afa192cfee860698584c030f4c9db1",
                    "difficulty" : "0x020000",
                    "extraData" : "0x42",
                    "gasLimit" : "0x2fefd8",
                    "gasUsed" : "0x00",
                    "hash" : "0xf2952693e92d37a3d17825174863427f7aa4e382a30de6d803ce04b0293a25c4",
                    "mixHash" : "0x0000000000000000000000000000000000000000000000000000000000000000",
                    "nonce" : "0x0000000000000000",
                    "number" : "0x01",
                    "parentHash" : "0x68a61c4a05db4913009de5666753258eb9306157680dc5da0d93656550c9257e",
                    "receiptTrie" : "0x56e81f171bcc55a6ff8345e692c0f86e5b48e01b996cadc001622fb5e363b421",
                    "stateRoot" : "0x8503769bb14067be7c5e438c353094e5a9a6c72f375fad4a76878a8882ceb496",
                    "timestamp" : "0x54c98c99",
                    "transactionsTrie" : "0x56e81f171bcc55a6ff8345e692c0f86e5b48e01b996cadc001622fb5e363b421",
                    "uncleHash" : "0x1dcc4de8dec75d7aab85b567b6ccd41ad312451b948a7413f0a142fd40d49347"
                },
                "transactions" : [
                ],
                "rlp" : "0xf901fcf901f7a068a61c4a05db4913009de5666753258eb9306157680dc5da0d93656550c9257ea01dcc4de8dec75d7aab85b567b6ccd41ad312451b948a7413f0a142fd40d49347948888f1f195afa192cfee860698584c030f4c9db1a08503769bb14067be7c5e438c353094e5a9a6c72f375fad4a76878a8882ceb496a056e81f171bcc55a6ff8345e692c0f86e5b48e01b996cadc001622fb5e363b421a056e81f171bcc55a6ff8345e692c0f86e5b48e01b996cadc001622fb5e363b421b90100000000000000000000000000000000000000000000000000000000000000000000000000000000000000000000000000000000000000000000000000000000000000000000000000000000000000000000000000000000000000000000000000000000000000000000000000000000000000000000000000000000000000000000000000000000000000000000000000000000000000000000000000000000000000000000000000000000000000000000000000000000000000000000000000000000000000000000000000000000000000000000000000000000000000000000000000000000000000000000000000000000000000000000000000000000008302000001832fefd8808454c98c9942a00000000000000000000000000000000000000000000000000000000000000000880000000000000000c0c0"
            },
            {
                "chainname" : "A",
                "blocknumber" : "2",
                "uncleHeaders" : [
                ],
                "blockHeader" : {
                    "bloom" : "0x00000000000000000000000000000000000000000000000000000000000000000000000000000000000000000000000000000000000000000000000000000000000000000000000000000000000000000000000000000000000000000000000000000000000000000000000000000000000000000000000000000000000000000000000000000000000000000000000000000000000000000000000000000000000000000000000000000000000000000000000000000000000000000000000000000000000000000000000000000000000000000000000000000000000000000000000000000000000000000000000000000000000000000000000000000000",
                    "coinbase" : "0x8888f1f195afa192cfee860698584c030f4c9db1",
                    "difficulty" : "0x020000",
                    "extraData" : "0x42",
                    "gasLimit" : "0x2fefd8",
                    "gasUsed" : "0x00",
                    "hash" : "0xb77fd02ded7889eeac1caa39212b08c335c7d693cd04df15394ad9c771e5734d",
                    "mixHash" : "0x0000000000000000000000000000000000000000000000000000000000000000",
                    "nonce" : "0x0000000000000000",
                    "number" : "0x02",
                    "parentHash" : "0xf2952693e92d37a3d17825174863427f7aa4e382a30de6d803ce04b0293a25c4",
                    "receiptTrie" : "0x56e81f171bcc55a6ff8345e692c0f86e5b48e01b996cadc001622fb5e363b421",
                    "stateRoot" : "0x326587c5310ecdbd0c8d36c471eef6595a6046ad46ee90bf0db88e691223ee38",
                    "timestamp" : "0x54c99081",
                    "transactionsTrie" : "0x56e81f171bcc55a6ff8345e692c0f86e5b48e01b996cadc001622fb5e363b421",
                    "uncleHash" : "0x1dcc4de8dec75d7aab85b567b6ccd41ad312451b948a7413f0a142fd40d49347"
                },
                "transactions" : [
                ],
                "rlp" : "0xf901fcf901f7a0f2952693e92d37a3d17825174863427f7aa4e382a30de6d803ce04b0293a25c4a01dcc4de8dec75d7aab85b567b6ccd41ad312451b948a7413f0a142fd40d49347948888f1f195afa192cfee860698584c030f4c9db1a0326587c5310ecdbd0c8d36c471eef6595a6046ad46ee90bf0db88e691223ee38a056e81f171bcc55a6ff8345e692c0f86e5b48e01b996cadc001622fb5e363b421a056e81f171bcc55a6ff8345e692c0f86e5b48e01b996cadc001622fb5e363b421b90100000000000000000000000000000000000000000000000000000000000000000000000000000000000000000000000000000000000000000000000000000000000000000000000000000000000000000000000000000000000000000000000000000000000000000000000000000000000000000000000000000000000000000000000000000000000000000000000000000000000000000000000000000000000000000000000000000000000000000000000000000000000000000000000000000000000000000000000000000000000000000000000000000000000000000000000000000000000000000000000000000000000000000000000000000000008302000002832fefd8808454c9908142a00000000000000000000000000000000000000000000000000000000000000000880000000000000000c0c0"
            },
            {
                "chainname" : "A",
                "blocknumber" : "3",
                "uncleHeaders" : [
                ],
                "blockHeader" : {
                    "bloom" : "0x00000000000000000000000000000000000000000000000000000000000000000000000000000000000000000000000000000000000000000000000000000000000000000000000000000000000000000000000000000000000000000000000000000000000000000000000000000000000000000000000000000000000000000000000000000000000000000000000000000000000000000000000000000000000000000000000000000000000000000000000000000000000000000000000000000000000000000000000000000000000000000000000000000000000000000000000000000000000000000000000000000000000000000000000000000000",
                    "coinbase" : "0x8888f1f195afa192cfee860698584c030f4c9db1",
                    "difficulty" : "0x020000",
                    "extraData" : "0x42",
                    "gasLimit" : "0x2fefd8",
                    "gasUsed" : "0x00",
                    "hash" : "0xc4b5a837182c09844810fda3197c535d9f6f53d38cf3065299d55253a2678a93",
                    "mixHash" : "0x0000000000000000000000000000000000000000000000000000000000000000",
                    "nonce" : "0x0000000000000000",
                    "number" : "0x03",
                    "parentHash" : "0xb77fd02ded7889eeac1caa39212b08c335c7d693cd04df15394ad9c771e5734d",
                    "receiptTrie" : "0x56e81f171bcc55a6ff8345e692c0f86e5b48e01b996cadc001622fb5e363b421",
                    "stateRoot" : "0xc662553363b8624b50cd8f83a2a28ec38b6cf0c029db61cb21e06d7df87fb256",
                    "timestamp" : "0x54c99469",
                    "transactionsTrie" : "0x56e81f171bcc55a6ff8345e692c0f86e5b48e01b996cadc001622fb5e363b421",
                    "uncleHash" : "0x1dcc4de8dec75d7aab85b567b6ccd41ad312451b948a7413f0a142fd40d49347"
                },
                "transactions" : [
                ],
                "rlp" : "0xf901fcf901f7a0b77fd02ded7889eeac1caa39212b08c335c7d693cd04df15394ad9c771e5734da01dcc4de8dec75d7aab85b567b6ccd41ad312451b948a7413f0a142fd40d49347948888f1f195afa192cfee860698584c030f4c9db1a0c662553363b8624b50cd8f83a2a28ec38b6cf0c029db61cb21e06d7df87fb256a056e81f171bcc55a6ff8345e692c0f86e5b48e01b996cadc001622fb5e363b421a056e81f171bcc55a6ff8345e692c0f86e5b48e01b996cadc001622fb5e363b421b90100000000000000000000000000000000000000000000000000000000000000000000000000000000000000000000000000000000000000000000000000000000000000000000000000000000000000000000000000000000000000000000000000000000000000000000000000000000000000000000000000000000000000000000000000000000000000000000000000000000000000000000000000000000000000000000000000000000000000000000000000000000000000000000000000000000000000000000000000000000000000000000000000000000000000000000000000000000000000000000000000000000000000000000000000000000008302000003832fefd8808454c9946942a00000000000000000000000000000000000000000000000000000000000000000880000000000000000c0c0"
            },
            {
                "chainname" : "A",
                "blocknumber" : "4",
                "uncleHeaders" : [
                ],
                "blockHeader" : {
                    "bloom" : "0x00000000000000000000000000000000000000000000000000000000000000000000000000000000000000000000000000000000000000000000000000000000000000000000000000000000000000000000000000000000000000000000000000000000000000000000000000000000000000000000000000000000000000000000000000000000000000000000000000000000000000000000000000000000000000000000000000000000000000000000000000000000000000000000000000000000000000000000000000000000000000000000000000000000000000000000000000000000000000000000000000000000000000000000000000000000",
                    "coinbase" : "0x8888f1f195afa192cfee860698584c030f4c9db1",
                    "difficulty" : "0x020000",
                    "extraData" : "0x42",
                    "gasLimit" : "0x2fefd8",
                    "gasUsed" : "0x00",
                    "hash" : "0x2ecdd8a1197eaf84ce5f9e7dfffb7fc8da417aa42f1620623d30eb77a0a4d39e",
                    "mixHash" : "0x0000000000000000000000000000000000000000000000000000000000000000",
                    "nonce" : "0x0000000000000000",
                    "number" : "0x04",
                    "parentHash" : "0xc4b5a837182c09844810fda3197c535d9f6f53d38cf3065299d55253a2678a93",
                    "receiptTrie" : "0x56e81f171bcc55a6ff8345e692c0f86e5b48e01b996cadc001622fb5e363b421",
                    "stateRoot" : "0x6b6c82551219d30f4168674006e3e1ece38eb055d9575f63e6dcce05f4a610af",
                    "timestamp" : "0x54c99851",
                    "transactionsTrie" : "0x56e81f171bcc55a6ff8345e692c0f86e5b48e01b996cadc001622fb5e363b421",
                    "uncleHash" : "0x1dcc4de8dec75d7aab85b567b6ccd41ad312451b948a7413f0a142fd40d49347"
                },
                "transactions" : [
                ],
                "rlp" : "0xf901fcf901f7a0c4b5a837182c09844810fda3197c535d9f6f53d38cf3065299d55253a2678a93a01dcc4de8dec75d7aab85b567b6ccd41ad312451b948a7413f0a142fd40d49347948888f1f195afa192cfee860698584c030f4c9db1a06b6c82551219d30f4168674006e3e1ece38eb055d9575f63e6dcce05f4a610afa056e81f171bcc55a6ff8345e692c0f86e5b48e01b996cadc001622fb5e363b421a056e81f171bcc55a6ff8345e692c0f86e5b48e01b996cadc001622fb5e363b421b90100000000000000000000000000000000000000000000000000000000000000000000000000000000000000000000000000000000000000000000000000000000000000000000000000000000000000000000000000000000000000000000000000000000000000000000000000000000000000000000000000000000000000000000000000000000000000000000000000000000000000000000000000000000000000000000000000000000000000000000000000000000000000000000000000000000000000000000000000000000000000000000000000000000000000000000000000000000000000000000000000000000000000000000000000000000008302000004832fefd8808454c9985142a00000000000000000000000000000000000000000000000000000000000000000880000000000000000c0c0"
            },
            {
                "chainname" : "A",
                "blocknumber" : "5",
                "uncleHeaders" : [
                ],
                "blockHeader" : {
                    "bloom" : "0x00000000000000000000000000000000000000000000000000000000000000000000000000000000000000000000000000000000000000000000000000000000000000000000000000000000000000000000000000000000000000000000000000000000000000000000000000000000000000000000000000000000000000000000000000000000000000000000000000000000000000000000000000000000000000000000000000000000000000000000000000000000000000000000000000000000000000000000000000000000000000000000000000000000000000000000000000000000000000000000000000000000000000000000000000000000",
                    "coinbase" : "0x8888f1f195afa192cfee860698584c030f4c9db1",
                    "difficulty" : "0x020000",
                    "extraData" : "0x42",
                    "gasLimit" : "0x2fefd8",
                    "gasUsed" : "0xcf08",
                    "hash" : "0xd33f296b42ec9c1d8f1e8893f95db029bebf65d82c6c88fd9137252070feb8d9",
                    "mixHash" : "0x0000000000000000000000000000000000000000000000000000000000000000",
                    "nonce" : "0x0000000000000000",
                    "number" : "0x05",
                    "parentHash" : "0x2ecdd8a1197eaf84ce5f9e7dfffb7fc8da417aa42f1620623d30eb77a0a4d39e",
                    "receiptTrie" : "0x00475fb23ca0b5383fdfb9883751d99e122a22045b9ed63d679539d1210d4fa4",
                    "stateRoot" : "0x1c7db77f4ff5521af1ff2404f66ef21905a664a30d1610ea3f5aaa505180f523",
                    "timestamp" : "0x54c99c39",
                    "transactionsTrie" : "0xa2d45411c8c2e1bec5d0f91610a83a52ad0c76626feedfbb91be31d6bb1086a2",
                    "uncleHash" : "0x1dcc4de8dec75d7aab85b567b6ccd41ad312451b948a7413f0a142fd40d49347"
                },
                "transactions" : [
                    {
                        "data" : "0x",
                        "gasLimit" : "0x015f90",
                        "gasPrice" : "0x01",
                        "nonce" : "0x00",
                        "r" : "0xfa718660038a507552c69cc3795fd944a3111df4bc9ad2ab4d2c2a3a200d8dbf",
                        "s" : "0x176fe3cef5a5792077bc3c6c5166e51dadf87edad4255eba663d72c0d3c6c67e",
                        "to" : "",
                        "v" : "0x1b",
                        "value" : "0x0a"
                    }
                ],
                "rlp" : "0xf9024df901f9a02ecdd8a1197eaf84ce5f9e7dfffb7fc8da417aa42f1620623d30eb77a0a4d39ea01dcc4de8dec75d7aab85b567b6ccd41ad312451b948a7413f0a142fd40d49347948888f1f195afa192cfee860698584c030f4c9db1a01c7db77f4ff5521af1ff2404f66ef21905a664a30d1610ea3f5aaa505180f523a0a2d45411c8c2e1bec5d0f91610a83a52ad0c76626feedfbb91be31d6bb1086a2a000475fb23ca0b5383fdfb9883751d99e122a22045b9ed63d679539d1210d4fa4b90100000000000000000000000000000000000000000000000000000000000000000000000000000000000000000000000000000000000000000000000000000000000000000000000000000000000000000000000000000000000000000000000000000000000000000000000000000000000000000000000000000000000000000000000000000000000000000000000000000000000000000000000000000000000000000000000000000000000000000000000000000000000000000000000000000000000000000000000000000000000000000000000000000000000000000000000000000000000000000000000000000000000000000000000000000000008302000005832fefd882cf088454c99c3942a00000000000000000000000000000000000000000000000000000000000000000880000000000000000f84ef84c800183015f90800a801ba0fa718660038a507552c69cc3795fd944a3111df4bc9ad2ab4d2c2a3a200d8dbfa0176fe3cef5a5792077bc3c6c5166e51dadf87edad4255eba663d72c0d3c6c67ec0"
            },
            {
                "chainname" : "F",
                "blocknumber" : "1",
                "uncleHeaders" : [
                ],
                "blockHeader" : {
                    "bloom" : "0x00000000000000000000000000000000000000000000000000000000000000000000000000000000000000000000000000000000000000000000000000000000000000000000000000000000000000000000000000000000000000000000000000000000000000000000000000000000000000000000000000000000000000000000000000000000000000000000000000000000000000000000000000000000000000000000000000000000000000000000000000000000000000000000000000000000000000000000000000000000000000000000000000000000000000000000000000000000000000000000000000000000000000000000000000000000",
                    "coinbase" : "0x8888f1f195afa192cfee860698584c030f4c9db1",
                    "difficulty" : "0x020000",
                    "extraData" : "0x42",
                    "gasLimit" : "0x2fefd8",
                    "gasUsed" : "0x00",
                    "hash" : "0xa333c01f76cc649016e7238dcedde15c59d32cd0423e4c1d54a6bb38eafeedb3",
                    "mixHash" : "0x0000000000000000000000000000000000000000000000000000000000000000",
                    "nonce" : "0x0000000000000000",
                    "number" : "0x01",
                    "parentHash" : "0x68a61c4a05db4913009de5666753258eb9306157680dc5da0d93656550c9257e",
                    "receiptTrie" : "0x56e81f171bcc55a6ff8345e692c0f86e5b48e01b996cadc001622fb5e363b421",
                    "stateRoot" : "0x8503769bb14067be7c5e438c353094e5a9a6c72f375fad4a76878a8882ceb496",
                    "timestamp" : "0x54c99069",
                    "transactionsTrie" : "0x56e81f171bcc55a6ff8345e692c0f86e5b48e01b996cadc001622fb5e363b421",
                    "uncleHash" : "0x1dcc4de8dec75d7aab85b567b6ccd41ad312451b948a7413f0a142fd40d49347"
                },
                "transactions" : [
                ],
                "rlp" : "0xf901fcf901f7a068a61c4a05db4913009de5666753258eb9306157680dc5da0d93656550c9257ea01dcc4de8dec75d7aab85b567b6ccd41ad312451b948a7413f0a142fd40d49347948888f1f195afa192cfee860698584c030f4c9db1a08503769bb14067be7c5e438c353094e5a9a6c72f375fad4a76878a8882ceb496a056e81f171bcc55a6ff8345e692c0f86e5b48e01b996cadc001622fb5e363b421a056e81f171bcc55a6ff8345e692c0f86e5b48e01b996cadc001622fb5e363b421b90100000000000000000000000000000000000000000000000000000000000000000000000000000000000000000000000000000000000000000000000000000000000000000000000000000000000000000000000000000000000000000000000000000000000000000000000000000000000000000000000000000000000000000000000000000000000000000000000000000000000000000000000000000000000000000000000000000000000000000000000000000000000000000000000000000000000000000000000000000000000000000000000000000000000000000000000000000000000000000000000000000000000000000000000000000000008302000001832fefd8808454c9906942a00000000000000000000000000000000000000000000000000000000000000000880000000000000000c0c0"
            },
            {
                "chainname" : "F",
                "blocknumber" : "2",
                "uncleHeaders" : [
                ],
                "blockHeader" : {
                    "bloom" : "0x00000000000000000000000000000000000000000000000000000000000000000000000000000000000000000000000000000000000000000000000000000000000000000000000000000000000000000000000000000000000000000000000000000000000000000000000000000000000000000000000000000000000000000000000000000000000000000000000000000000000000000000000000000000000000000000000000000000000000000000000000000000000000000000000000000000000000000000000000000000000000000000000000000000000000000000000000000000000000000000000000000000000000000000000000000000",
                    "coinbase" : "0x8888f1f195afa192cfee860698584c030f4c9db1",
                    "difficulty" : "0x020000",
                    "extraData" : "0x42",
                    "gasLimit" : "0x2fefd8",
                    "gasUsed" : "0x00",
                    "hash" : "0xe0bdbaec4fe1c225a2b34451ef649c68520fe3205f7d3d583b74c416ab8b968d",
                    "mixHash" : "0x0000000000000000000000000000000000000000000000000000000000000000",
                    "nonce" : "0x0000000000000000",
                    "number" : "0x02",
                    "parentHash" : "0xa333c01f76cc649016e7238dcedde15c59d32cd0423e4c1d54a6bb38eafeedb3",
                    "receiptTrie" : "0x56e81f171bcc55a6ff8345e692c0f86e5b48e01b996cadc001622fb5e363b421",
                    "stateRoot" : "0x326587c5310ecdbd0c8d36c471eef6595a6046ad46ee90bf0db88e691223ee38",
                    "timestamp" : "0x54c99451",
                    "transactionsTrie" : "0x56e81f171bcc55a6ff8345e692c0f86e5b48e01b996cadc001622fb5e363b421",
                    "uncleHash" : "0x1dcc4de8dec75d7aab85b567b6ccd41ad312451b948a7413f0a142fd40d49347"
                },
                "transactions" : [
                ],
                "rlp" : "0xf901fcf901f7a0a333c01f76cc649016e7238dcedde15c59d32cd0423e4c1d54a6bb38eafeedb3a01dcc4de8dec75d7aab85b567b6ccd41ad312451b948a7413f0a142fd40d49347948888f1f195afa192cfee860698584c030f4c9db1a0326587c5310ecdbd0c8d36c471eef6595a6046ad46ee90bf0db88e691223ee38a056e81f171bcc55a6ff8345e692c0f86e5b48e01b996cadc001622fb5e363b421a056e81f171bcc55a6ff8345e692c0f86e5b48e01b996cadc001622fb5e363b421b90100000000000000000000000000000000000000000000000000000000000000000000000000000000000000000000000000000000000000000000000000000000000000000000000000000000000000000000000000000000000000000000000000000000000000000000000000000000000000000000000000000000000000000000000000000000000000000000000000000000000000000000000000000000000000000000000000000000000000000000000000000000000000000000000000000000000000000000000000000000000000000000000000000000000000000000000000000000000000000000000000000000000000000000000000000000008302000002832fefd8808454c9945142a00000000000000000000000000000000000000000000000000000000000000000880000000000000000c0c0"
            },
            {
                "chainname" : "F",
                "blocknumber" : "3",
                "uncleHeaders" : [
                ],
                "blockHeader" : {
                    "bloom" : "0x00000000000000000000000000000000000000000000000000000000000000000000000000000000000000000000000000000000000000000000000000000000000000000000000000000000000000000000000000000000000000000000000000000000000000000000000000000000000000000000000000000000000000000000000000000000000000000000000000000000000000000000000000000000000000000000000000000000000000000000000000000000000000000000000000000000000000000000000000000000000000000000000000000000000000000000000000000000000000000000000000000000000000000000000000000000",
                    "coinbase" : "0x8888f1f195afa192cfee860698584c030f4c9db1",
                    "difficulty" : "0x020000",
                    "extraData" : "0x42",
                    "gasLimit" : "0x2fefd8",
                    "gasUsed" : "0x00",
                    "hash" : "0x5538633273a153bf266365d76e7d7a9278d495b53b8b2f274625cf843c09c93d",
                    "mixHash" : "0x0000000000000000000000000000000000000000000000000000000000000000",
                    "nonce" : "0x0000000000000000",
                    "number" : "0x03",
                    "parentHash" : "0xe0bdbaec4fe1c225a2b34451ef649c68520fe3205f7d3d583b74c416ab8b968d",
                    "receiptTrie" : "0x56e81f171bcc55a6ff8345e692c0f86e5b48e01b996cadc001622fb5e363b421",
                    "stateRoot" : "0xc662553363b8624b50cd8f83a2a28ec38b6cf0c029db61cb21e06d7df87fb256",
                    "timestamp" : "0x54c99839",
                    "transactionsTrie" : "0x56e81f171bcc55a6ff8345e692c0f86e5b48e01b996cadc001622fb5e363b421",
                    "uncleHash" : "0x1dcc4de8dec75d7aab85b567b6ccd41ad312451b948a7413f0a142fd40d49347"
                },
                "transactions" : [
                ],
                "rlp" : "0xf901fcf901f7a0e0bdbaec4fe1c225a2b34451ef649c68520fe3205f7d3d583b74c416ab8b968da01dcc4de8dec75d7aab85b567b6ccd41ad312451b948a7413f0a142fd40d49347948888f1f195afa192cfee860698584c030f4c9db1a0c662553363b8624b50cd8f83a2a28ec38b6cf0c029db61cb21e06d7df87fb256a056e81f171bcc55a6ff8345e692c0f86e5b48e01b996cadc001622fb5e363b421a056e81f171bcc55a6ff8345e692c0f86e5b48e01b996cadc001622fb5e363b421b90100000000000000000000000000000000000000000000000000000000000000000000000000000000000000000000000000000000000000000000000000000000000000000000000000000000000000000000000000000000000000000000000000000000000000000000000000000000000000000000000000000000000000000000000000000000000000000000000000000000000000000000000000000000000000000000000000000000000000000000000000000000000000000000000000000000000000000000000000000000000000000000000000000000000000000000000000000000000000000000000000000000000000000000000000000000008302000003832fefd8808454c9983942a00000000000000000000000000000000000000000000000000000000000000000880000000000000000c0c0"
            },
            {
                "chainname" : "F",
                "blocknumber" : "4",
                "uncleHeaders" : [
                ],
                "blockHeader" : {
                    "bloom" : "0x00000000000000000000000000000000000000000000000000000000000000000000000000000000000000000000000000000000000000000000000000000000000000000000000000000000000000000000000000000000000000000000000000000000000000000000000000000000000000000000000000000000000000000000000000000000000000000000000000000000000000000000000000000000000000000000000000000000000000000000000000000000000000000000000000000000000000000000000000000000000000000000000000000000000000000000000000000000000000000000000000000000000000000000000000000000",
                    "coinbase" : "0x8888f1f195afa192cfee860698584c030f4c9db1",
                    "difficulty" : "0x020000",
                    "extraData" : "0x42",
                    "gasLimit" : "0x2fefd8",
                    "gasUsed" : "0x00",
                    "hash" : "0x9eabdd60201a45a51bdda33d8f8a30257c11499cc75e051541bd702c5328184a",
                    "mixHash" : "0x0000000000000000000000000000000000000000000000000000000000000000",
                    "nonce" : "0x0000000000000000",
                    "number" : "0x04",
                    "parentHash" : "0x5538633273a153bf266365d76e7d7a9278d495b53b8b2f274625cf843c09c93d",
                    "receiptTrie" : "0x56e81f171bcc55a6ff8345e692c0f86e5b48e01b996cadc001622fb5e363b421",
                    "stateRoot" : "0x6b6c82551219d30f4168674006e3e1ece38eb055d9575f63e6dcce05f4a610af",
                    "timestamp" : "0x54c99c21",
                    "transactionsTrie" : "0x56e81f171bcc55a6ff8345e692c0f86e5b48e01b996cadc001622fb5e363b421",
                    "uncleHash" : "0x1dcc4de8dec75d7aab85b567b6ccd41ad312451b948a7413f0a142fd40d49347"
                },
                "transactions" : [
                ],
                "rlp" : "0xf901fcf901f7a05538633273a153bf266365d76e7d7a9278d495b53b8b2f274625cf843c09c93da01dcc4de8dec75d7aab85b567b6ccd41ad312451b948a7413f0a142fd40d49347948888f1f195afa192cfee860698584c030f4c9db1a06b6c82551219d30f4168674006e3e1ece38eb055d9575f63e6dcce05f4a610afa056e81f171bcc55a6ff8345e692c0f86e5b48e01b996cadc001622fb5e363b421a056e81f171bcc55a6ff8345e692c0f86e5b48e01b996cadc001622fb5e363b421b90100000000000000000000000000000000000000000000000000000000000000000000000000000000000000000000000000000000000000000000000000000000000000000000000000000000000000000000000000000000000000000000000000000000000000000000000000000000000000000000000000000000000000000000000000000000000000000000000000000000000000000000000000000000000000000000000000000000000000000000000000000000000000000000000000000000000000000000000000000000000000000000000000000000000000000000000000000000000000000000000000000000000000000000000000000000008302000004832fefd8808454c99c2142a00000000000000000000000000000000000000000000000000000000000000000880000000000000000c0c0"
            },
            {
                "chainname" : "F",
                "blocknumber" : "5",
                "rlp" : "0xf9024df901f9a09eabdd60201a45a51bdda33d8f8a30257c11499cc75e051541bd702c5328184aa01dcc4de8dec75d7aab85b567b6ccd41ad312451b948a7413f0a142fd40d49347948888f1f195afa192cfee860698584c030f4c9db1a002db017096828dd43ee3a8f3223d576fc157b31f25cd87d8828d6933d1f28beca0383a2d58b1a4e5d71fe682ba96e606bd61328cde005ba1b9ad9bdedf9cd69862a0a57133179a00ced1416b54dc60b5fa42e5ab17281da09c2af7eb208b88045a92b90100000000000000000000000000000000000000000000000000000000000000000000000000000000000000000000000000000000000000000000000000000000000000000000000000000000000000000000000000000000000000000000000000000000000000000000000000000000000000000000000000000000000000000000000000000000000000000000000000000000000000000000000000000000000000000000000000000000000000000000000000000000000000000000000000000000000000000000000000000000000000000000000000000000000000000000000000000000000000000000000000000000000000000000000000000000008302000005832fefd88252088454c9a00942a00000000000000000000000000000000000000000000000000000000000000000880000000000000000f84ef84c800183015f90801e801ba029e0bf459bb15e1b4acb94ffd55b17f0ee9361d5d346e380fce6d1cc621b1a96a06551b629e6f3f5fe2725445b678ec6c9c6c1efa31d85aae92e12399b0f4e7038c0",
                "expectException" : "InvalidGasUsed"
            }
        ],
        "postState" : {
            "0x6295ee1b4f6dd65047762f924ecd367c17eabf8f" : {
                "code" : "0x",
                "nonce" : "0x00",
                "balance" : "0x0a",
                "storage" : {
                }
            },
            "0x8888f1f195afa192cfee860698584c030f4c9db1" : {
                "code" : "0x",
                "nonce" : "0x00",
                "balance" : "0x015af1d78b58c4cf08",
                "storage" : {
                }
            },
            "0xa94f5374fce5edbc8e2a8697c15331677e6ebf0b" : {
                "code" : "0x",
                "nonce" : "0x01",
                "balance" : "0x02540b14ee",
                "storage" : {
                }
            }
        },
        "lastblockhash" : "0xd33f296b42ec9c1d8f1e8893f95db029bebf65d82c6c88fd9137252070feb8d9"
    }
}