{
    "TestStructuresAndVariabless_d0g0v0_Byzantium" : {
        "_info" : {
            "comment" : "",
            "filledwith" : "testeth 1.7.0-alpha.1-20+commit.782a7283",
            "lllcversion" : "Version: 0.5.0-develop.2018.11.9+commit.9709dfe0.Linux.g++",
            "source" : "src/BlockchainTestsFiller/GeneralStateTests/stSolidityTest/TestStructuresAndVariabless_d0g0v0Filler.json",
            "sourceHash" : "a32964defff3f1af8328fef1809daee6ab5d69ed975d147525ddfabd4018d70a"
        },
        "blocks" : [
            {
                "blockHeader" : {
                    "bloom" : "0x00000000000000000000000000000000000000000000000000000000000000000000000000000000000000000000000000000000000000000000000000000000000000000000000000000000000000000000000000000000000000000000000000000000000000000000000000000000000000000000000000000000000000000000000000000000000000000000000000000000000000000000000000000000000000000000000000000000000000000000000000000000000000000000000000000000000000000000000000000000000000000000000000000000000000000000000000000000000000000000000000000000000000000000000000000000",
                    "coinbase" : "0x2adc25665018aa1fe0e6bc666dac8fc2697ff9ba",
                    "difficulty" : "0x020000",
                    "extraData" : "0x",
                    "gasLimit" : "0x7fffffffffffffff",
                    "gasUsed" : "0x02328d",
                    "hash" : "0x02f7b0f4a4d5b43df69a13635c8c5d22ceaa32b0b9f014a67d1bcaa835f27ba2",
                    "mixHash" : "0x0000000000000000000000000000000000000000000000000000000000000000",
                    "nonce" : "0x0000000000000000",
                    "number" : "0x01",
                    "parentHash" : "0x277020daf0b2986de0b53b7af6278659c3460dcd8cd1190e467ee4313afaaf00",
                    "receiptTrie" : "0xc043cee109033a937fd793c0c4ec439fa29ecdfd8e315252399c51a0dfa5bb7c",
                    "stateRoot" : "0x225c80271121fb8d366cd7c98319fdd4247713864fd42f9c8e5e7c573ac27b2c",
                    "timestamp" : "0x03e8",
                    "transactionsTrie" : "0x840d8d9c81fbde94d0f1e08263bb5d0d6092fb753f24f2072dcf3dc4b0f198f4",
                    "uncleHash" : "0x1dcc4de8dec75d7aab85b567b6ccd41ad312451b948a7413f0a142fd40d49347"
                },
                "rlp" : "0xf90269f901fda0277020daf0b2986de0b53b7af6278659c3460dcd8cd1190e467ee4313afaaf00a01dcc4de8dec75d7aab85b567b6ccd41ad312451b948a7413f0a142fd40d49347942adc25665018aa1fe0e6bc666dac8fc2697ff9baa0225c80271121fb8d366cd7c98319fdd4247713864fd42f9c8e5e7c573ac27b2ca0840d8d9c81fbde94d0f1e08263bb5d0d6092fb753f24f2072dcf3dc4b0f198f4a0c043cee109033a937fd793c0c4ec439fa29ecdfd8e315252399c51a0dfa5bb7cb90100000000000000000000000000000000000000000000000000000000000000000000000000000000000000000000000000000000000000000000000000000000000000000000000000000000000000000000000000000000000000000000000000000000000000000000000000000000000000000000000000000000000000000000000000000000000000000000000000000000000000000000000000000000000000000000000000000000000000000000000000000000000000000000000000000000000000000000000000000000000000000000000000000000000000000000000000000000000000000000000000000000000000000000000000000000008302000001887fffffffffffffff8302328d8203e880a00000000000000000000000000000000000000000000000000000000000000000880000000000000000f866f86480018305573094095e7baea6a6c7c4c2dfeb977efac326af552d876484c04062261ba04b5305634acd08c1bdb367bf5e3f44499a16f4157f62241ad9780b31da94af42a057e2df90dc63621d959c8f2d19d15b70b7722d5fb4825348dd710da861e80dafc0",
                "transactions" : [
                    {
                        "data" : "0xc0406226",
                        "gasLimit" : "0x055730",
                        "gasPrice" : "0x01",
                        "nonce" : "0x00",
                        "r" : "0x4b5305634acd08c1bdb367bf5e3f44499a16f4157f62241ad9780b31da94af42",
                        "s" : "0x57e2df90dc63621d959c8f2d19d15b70b7722d5fb4825348dd710da861e80daf",
                        "to" : "0x095e7baea6a6c7c4c2dfeb977efac326af552d87",
                        "v" : "0x1b",
                        "value" : "0x64"
                    }
                ],
                "uncleHeaders" : [
                ]
            }
        ],
        "genesisBlockHeader" : {
            "bloom" : "0x00000000000000000000000000000000000000000000000000000000000000000000000000000000000000000000000000000000000000000000000000000000000000000000000000000000000000000000000000000000000000000000000000000000000000000000000000000000000000000000000000000000000000000000000000000000000000000000000000000000000000000000000000000000000000000000000000000000000000000000000000000000000000000000000000000000000000000000000000000000000000000000000000000000000000000000000000000000000000000000000000000000000000000000000000000000",
            "coinbase" : "0x2adc25665018aa1fe0e6bc666dac8fc2697ff9ba",
            "difficulty" : "0x020000",
            "extraData" : "0x42",
            "gasLimit" : "0x7fffffffffffffff",
            "gasUsed" : "0x00",
            "hash" : "0x277020daf0b2986de0b53b7af6278659c3460dcd8cd1190e467ee4313afaaf00",
            "mixHash" : "0x56e81f171bcc55a6ff8345e692c0f86e5b48e01b996cadc001622fb5e363b421",
            "nonce" : "0x0102030405060708",
            "number" : "0x00",
            "parentHash" : "0x0000000000000000000000000000000000000000000000000000000000000000",
            "receiptTrie" : "0x56e81f171bcc55a6ff8345e692c0f86e5b48e01b996cadc001622fb5e363b421",
            "stateRoot" : "0x17e091d8ced26108637c9e9bb797ad52373f24cbdca74f276c02d3b99c845727",
            "timestamp" : "0x03b6",
            "transactionsTrie" : "0x56e81f171bcc55a6ff8345e692c0f86e5b48e01b996cadc001622fb5e363b421",
            "uncleHash" : "0x1dcc4de8dec75d7aab85b567b6ccd41ad312451b948a7413f0a142fd40d49347"
        },
        "genesisRLP" : "0xf901fff901faa00000000000000000000000000000000000000000000000000000000000000000a01dcc4de8dec75d7aab85b567b6ccd41ad312451b948a7413f0a142fd40d49347942adc25665018aa1fe0e6bc666dac8fc2697ff9baa017e091d8ced26108637c9e9bb797ad52373f24cbdca74f276c02d3b99c845727a056e81f171bcc55a6ff8345e692c0f86e5b48e01b996cadc001622fb5e363b421a056e81f171bcc55a6ff8345e692c0f86e5b48e01b996cadc001622fb5e363b421b90100000000000000000000000000000000000000000000000000000000000000000000000000000000000000000000000000000000000000000000000000000000000000000000000000000000000000000000000000000000000000000000000000000000000000000000000000000000000000000000000000000000000000000000000000000000000000000000000000000000000000000000000000000000000000000000000000000000000000000000000000000000000000000000000000000000000000000000000000000000000000000000000000000000000000000000000000000000000000000000000000000000000000000000000000000000008302000080887fffffffffffffff808203b642a056e81f171bcc55a6ff8345e692c0f86e5b48e01b996cadc001622fb5e363b421880102030405060708c0c0",
        "lastblockhash" : "0x02f7b0f4a4d5b43df69a13635c8c5d22ceaa32b0b9f014a67d1bcaa835f27ba2",
        "network" : "Byzantium",
        "postState" : {
            "0x095e7baea6a6c7c4c2dfeb977efac326af552d87" : {
                "balance" : "0x018704",
                "code" : "0x7c010000000000000000000000000000000000000000000000000000000060003504632a9afb838114610039578063c04062261461004b57005b61004161005d565b8060005260206000f35b61005361016c565b8060005260206000f35b600160ff8154141561006e57610076565b506000610169565b60015460035414156100875761008f565b506000610169565b73a94f5374fce5edbc8e2a8697c15331677e6ebf0b73ffffffffffffffffffffffffffffffffffffffff60016002540481161614156100cd576100d5565b506000610169565b7f676c6f62616c2064617461203332206c656e67746820737472696e670000000060045414156101045761010c565b506000610169565b6005600080815260200190815260200160002060009054906101000a900473ffffffffffffffffffffffffffffffffffffffff1673a94f5374fce5edbc8e2a8697c15331677e6ebf0b141561016057610168565b506000610169565b5b90565b600060ff806001555073a94f5374fce5edbc8e2a8697c15331677e6ebf0b6002805473ffffffffffffffffffffffffffffffffffffffff1916821790555060ff80600355507f676c6f62616c2064617461203332206c656e67746820737472696e6700000000806004555073a94f5374fce5edbc8e2a8697c15331677e6ebf0b6005600080815260200190815260200160002060006101000a81548173ffffffffffffffffffffffffffffffffffffffff0219169083021790555061022f61005d565b600060006101000a81548160ff0219169083021790555060ff6001600054041690509056",
                "nonce" : "0x00",
                "storage" : {
                    "0x00" : "0x01",
                    "0x01" : "0xff",
                    "0x02" : "0xa94f5374fce5edbc8e2a8697c15331677e6ebf0b",
                    "0x03" : "0xff",
                    "0x04" : "0x676c6f62616c2064617461203332206c656e67746820737472696e6700000000",
                    "0x05b8ccbb9d4d8fb16ea74ce3c29a41f1b461fbdaff4714a0d9a8eb05499746bc" : "0xa94f5374fce5edbc8e2a8697c15331677e6ebf0b"
                }
            },
            "0x2adc25665018aa1fe0e6bc666dac8fc2697ff9ba" : {
                "balance" : "0x29a2241af62e328d",
                "code" : "0x",
                "nonce" : "0x00",
                "storage" : {
                }
            },
            "0xa94f5374fce5edbc8e2a8697c15331677e6ebf0b" : {
                "balance" : "0x0d0f4f",
                "code" : "0x",
                "nonce" : "0x01",
                "storage" : {
                }
            }
        },
        "pre" : {
            "0x095e7baea6a6c7c4c2dfeb977efac326af552d87" : {
                "balance" : "0x0186a0",
                "code" : "0x7c010000000000000000000000000000000000000000000000000000000060003504632a9afb838114610039578063c04062261461004b57005b61004161005d565b8060005260206000f35b61005361016c565b8060005260206000f35b600160ff8154141561006e57610076565b506000610169565b60015460035414156100875761008f565b506000610169565b73a94f5374fce5edbc8e2a8697c15331677e6ebf0b73ffffffffffffffffffffffffffffffffffffffff60016002540481161614156100cd576100d5565b506000610169565b7f676c6f62616c2064617461203332206c656e67746820737472696e670000000060045414156101045761010c565b506000610169565b6005600080815260200190815260200160002060009054906101000a900473ffffffffffffffffffffffffffffffffffffffff1673a94f5374fce5edbc8e2a8697c15331677e6ebf0b141561016057610168565b506000610169565b5b90565b600060ff806001555073a94f5374fce5edbc8e2a8697c15331677e6ebf0b6002805473ffffffffffffffffffffffffffffffffffffffff1916821790555060ff80600355507f676c6f62616c2064617461203332206c656e67746820737472696e6700000000806004555073a94f5374fce5edbc8e2a8697c15331677e6ebf0b6005600080815260200190815260200160002060006101000a81548173ffffffffffffffffffffffffffffffffffffffff0219169083021790555061022f61005d565b600060006101000a81548160ff0219169083021790555060ff6001600054041690509056",
                "nonce" : "0x00",
                "storage" : {
                }
            },
            "0xa94f5374fce5edbc8e2a8697c15331677e6ebf0b" : {
                "balance" : "0x0f4240",
                "code" : "0x",
                "nonce" : "0x00",
                "storage" : {
                }
            }
        },
        "sealEngine" : "NoProof"
    },
    "TestStructuresAndVariabless_d0g0v0_Homestead" : {
        "_info" : {
            "comment" : "",
            "filledwith" : "testeth 1.7.0-alpha.1-20+commit.782a7283",
            "lllcversion" : "Version: 0.5.0-develop.2018.11.9+commit.9709dfe0.Linux.g++",
            "source" : "src/BlockchainTestsFiller/GeneralStateTests/stSolidityTest/TestStructuresAndVariabless_d0g0v0Filler.json",
            "sourceHash" : "a32964defff3f1af8328fef1809daee6ab5d69ed975d147525ddfabd4018d70a"
        },
        "blocks" : [
            {
                "blockHeader" : {
                    "bloom" : "0x00000000000000000000000000000000000000000000000000000000000000000000000000000000000000000000000000000000000000000000000000000000000000000000000000000000000000000000000000000000000000000000000000000000000000000000000000000000000000000000000000000000000000000000000000000000000000000000000000000000000000000000000000000000000000000000000000000000000000000000000000000000000000000000000000000000000000000000000000000000000000000000000000000000000000000000000000000000000000000000000000000000000000000000000000000000",
                    "coinbase" : "0x2adc25665018aa1fe0e6bc666dac8fc2697ff9ba",
                    "difficulty" : "0x020000",
                    "extraData" : "0x",
                    "gasLimit" : "0x7fffffffffffffff",
                    "gasUsed" : "0x022cb1",
                    "hash" : "0x82807f6026f90f8b71a13dbed2e91755928e1b9226381699058a47633c0e23e5",
                    "mixHash" : "0x0000000000000000000000000000000000000000000000000000000000000000",
                    "nonce" : "0x0000000000000000",
                    "number" : "0x01",
                    "parentHash" : "0x277020daf0b2986de0b53b7af6278659c3460dcd8cd1190e467ee4313afaaf00",
                    "receiptTrie" : "0x300dd79c4cd80c5a9bc39b861b83ac727d9fa025d21f715c0f211a7669db47fd",
                    "stateRoot" : "0x71d9d927722831676211f0d5e7047dd780fafc8d32d67807f93de7b16c3eee4d",
                    "timestamp" : "0x03e8",
                    "transactionsTrie" : "0x840d8d9c81fbde94d0f1e08263bb5d0d6092fb753f24f2072dcf3dc4b0f198f4",
                    "uncleHash" : "0x1dcc4de8dec75d7aab85b567b6ccd41ad312451b948a7413f0a142fd40d49347"
                },
                "rlp" : "0xf90269f901fda0277020daf0b2986de0b53b7af6278659c3460dcd8cd1190e467ee4313afaaf00a01dcc4de8dec75d7aab85b567b6ccd41ad312451b948a7413f0a142fd40d49347942adc25665018aa1fe0e6bc666dac8fc2697ff9baa071d9d927722831676211f0d5e7047dd780fafc8d32d67807f93de7b16c3eee4da0840d8d9c81fbde94d0f1e08263bb5d0d6092fb753f24f2072dcf3dc4b0f198f4a0300dd79c4cd80c5a9bc39b861b83ac727d9fa025d21f715c0f211a7669db47fdb90100000000000000000000000000000000000000000000000000000000000000000000000000000000000000000000000000000000000000000000000000000000000000000000000000000000000000000000000000000000000000000000000000000000000000000000000000000000000000000000000000000000000000000000000000000000000000000000000000000000000000000000000000000000000000000000000000000000000000000000000000000000000000000000000000000000000000000000000000000000000000000000000000000000000000000000000000000000000000000000000000000000000000000000000000000000008302000001887fffffffffffffff83022cb18203e880a00000000000000000000000000000000000000000000000000000000000000000880000000000000000f866f86480018305573094095e7baea6a6c7c4c2dfeb977efac326af552d876484c04062261ba04b5305634acd08c1bdb367bf5e3f44499a16f4157f62241ad9780b31da94af42a057e2df90dc63621d959c8f2d19d15b70b7722d5fb4825348dd710da861e80dafc0",
                "transactions" : [
                    {
                        "data" : "0xc0406226",
                        "gasLimit" : "0x055730",
                        "gasPrice" : "0x01",
                        "nonce" : "0x00",
                        "r" : "0x4b5305634acd08c1bdb367bf5e3f44499a16f4157f62241ad9780b31da94af42",
                        "s" : "0x57e2df90dc63621d959c8f2d19d15b70b7722d5fb4825348dd710da861e80daf",
                        "to" : "0x095e7baea6a6c7c4c2dfeb977efac326af552d87",
                        "v" : "0x1b",
                        "value" : "0x64"
                    }
                ],
                "uncleHeaders" : [
                ]
            }
        ],
        "genesisBlockHeader" : {
            "bloom" : "0x00000000000000000000000000000000000000000000000000000000000000000000000000000000000000000000000000000000000000000000000000000000000000000000000000000000000000000000000000000000000000000000000000000000000000000000000000000000000000000000000000000000000000000000000000000000000000000000000000000000000000000000000000000000000000000000000000000000000000000000000000000000000000000000000000000000000000000000000000000000000000000000000000000000000000000000000000000000000000000000000000000000000000000000000000000000",
            "coinbase" : "0x2adc25665018aa1fe0e6bc666dac8fc2697ff9ba",
            "difficulty" : "0x020000",
            "extraData" : "0x42",
            "gasLimit" : "0x7fffffffffffffff",
            "gasUsed" : "0x00",
            "hash" : "0x277020daf0b2986de0b53b7af6278659c3460dcd8cd1190e467ee4313afaaf00",
            "mixHash" : "0x56e81f171bcc55a6ff8345e692c0f86e5b48e01b996cadc001622fb5e363b421",
            "nonce" : "0x0102030405060708",
            "number" : "0x00",
            "parentHash" : "0x0000000000000000000000000000000000000000000000000000000000000000",
            "receiptTrie" : "0x56e81f171bcc55a6ff8345e692c0f86e5b48e01b996cadc001622fb5e363b421",
            "stateRoot" : "0x17e091d8ced26108637c9e9bb797ad52373f24cbdca74f276c02d3b99c845727",
            "timestamp" : "0x03b6",
            "transactionsTrie" : "0x56e81f171bcc55a6ff8345e692c0f86e5b48e01b996cadc001622fb5e363b421",
            "uncleHash" : "0x1dcc4de8dec75d7aab85b567b6ccd41ad312451b948a7413f0a142fd40d49347"
        },
        "genesisRLP" : "0xf901fff901faa00000000000000000000000000000000000000000000000000000000000000000a01dcc4de8dec75d7aab85b567b6ccd41ad312451b948a7413f0a142fd40d49347942adc25665018aa1fe0e6bc666dac8fc2697ff9baa017e091d8ced26108637c9e9bb797ad52373f24cbdca74f276c02d3b99c845727a056e81f171bcc55a6ff8345e692c0f86e5b48e01b996cadc001622fb5e363b421a056e81f171bcc55a6ff8345e692c0f86e5b48e01b996cadc001622fb5e363b421b90100000000000000000000000000000000000000000000000000000000000000000000000000000000000000000000000000000000000000000000000000000000000000000000000000000000000000000000000000000000000000000000000000000000000000000000000000000000000000000000000000000000000000000000000000000000000000000000000000000000000000000000000000000000000000000000000000000000000000000000000000000000000000000000000000000000000000000000000000000000000000000000000000000000000000000000000000000000000000000000000000000000000000000000000000000000008302000080887fffffffffffffff808203b642a056e81f171bcc55a6ff8345e692c0f86e5b48e01b996cadc001622fb5e363b421880102030405060708c0c0",
        "lastblockhash" : "0x82807f6026f90f8b71a13dbed2e91755928e1b9226381699058a47633c0e23e5",
        "network" : "Homestead",
        "postState" : {
            "0x095e7baea6a6c7c4c2dfeb977efac326af552d87" : {
                "balance" : "0x018704",
                "code" : "0x7c010000000000000000000000000000000000000000000000000000000060003504632a9afb838114610039578063c04062261461004b57005b61004161005d565b8060005260206000f35b61005361016c565b8060005260206000f35b600160ff8154141561006e57610076565b506000610169565b60015460035414156100875761008f565b506000610169565b73a94f5374fce5edbc8e2a8697c15331677e6ebf0b73ffffffffffffffffffffffffffffffffffffffff60016002540481161614156100cd576100d5565b506000610169565b7f676c6f62616c2064617461203332206c656e67746820737472696e670000000060045414156101045761010c565b506000610169565b6005600080815260200190815260200160002060009054906101000a900473ffffffffffffffffffffffffffffffffffffffff1673a94f5374fce5edbc8e2a8697c15331677e6ebf0b141561016057610168565b506000610169565b5b90565b600060ff806001555073a94f5374fce5edbc8e2a8697c15331677e6ebf0b6002805473ffffffffffffffffffffffffffffffffffffffff1916821790555060ff80600355507f676c6f62616c2064617461203332206c656e67746820737472696e6700000000806004555073a94f5374fce5edbc8e2a8697c15331677e6ebf0b6005600080815260200190815260200160002060006101000a81548173ffffffffffffffffffffffffffffffffffffffff0219169083021790555061022f61005d565b600060006101000a81548160ff0219169083021790555060ff6001600054041690509056",
                "nonce" : "0x00",
                "storage" : {
                    "0x00" : "0x01",
                    "0x01" : "0xff",
                    "0x02" : "0xa94f5374fce5edbc8e2a8697c15331677e6ebf0b",
                    "0x03" : "0xff",
                    "0x04" : "0x676c6f62616c2064617461203332206c656e67746820737472696e6700000000",
                    "0x05b8ccbb9d4d8fb16ea74ce3c29a41f1b461fbdaff4714a0d9a8eb05499746bc" : "0xa94f5374fce5edbc8e2a8697c15331677e6ebf0b"
                }
            },
            "0x2adc25665018aa1fe0e6bc666dac8fc2697ff9ba" : {
                "balance" : "0x4563918244f62cb1",
                "code" : "0x",
                "nonce" : "0x00",
                "storage" : {
                }
            },
            "0xa94f5374fce5edbc8e2a8697c15331677e6ebf0b" : {
                "balance" : "0x0d152b",
                "code" : "0x",
                "nonce" : "0x01",
                "storage" : {
                }
            }
        },
        "pre" : {
            "0x095e7baea6a6c7c4c2dfeb977efac326af552d87" : {
                "balance" : "0x0186a0",
                "code" : "0x7c010000000000000000000000000000000000000000000000000000000060003504632a9afb838114610039578063c04062261461004b57005b61004161005d565b8060005260206000f35b61005361016c565b8060005260206000f35b600160ff8154141561006e57610076565b506000610169565b60015460035414156100875761008f565b506000610169565b73a94f5374fce5edbc8e2a8697c15331677e6ebf0b73ffffffffffffffffffffffffffffffffffffffff60016002540481161614156100cd576100d5565b506000610169565b7f676c6f62616c2064617461203332206c656e67746820737472696e670000000060045414156101045761010c565b506000610169565b6005600080815260200190815260200160002060009054906101000a900473ffffffffffffffffffffffffffffffffffffffff1673a94f5374fce5edbc8e2a8697c15331677e6ebf0b141561016057610168565b506000610169565b5b90565b600060ff806001555073a94f5374fce5edbc8e2a8697c15331677e6ebf0b6002805473ffffffffffffffffffffffffffffffffffffffff1916821790555060ff80600355507f676c6f62616c2064617461203332206c656e67746820737472696e6700000000806004555073a94f5374fce5edbc8e2a8697c15331677e6ebf0b6005600080815260200190815260200160002060006101000a81548173ffffffffffffffffffffffffffffffffffffffff0219169083021790555061022f61005d565b600060006101000a81548160ff0219169083021790555060ff6001600054041690509056",
                "nonce" : "0x00",
                "storage" : {
                }
            },
            "0xa94f5374fce5edbc8e2a8697c15331677e6ebf0b" : {
                "balance" : "0x0f4240",
                "code" : "0x",
                "nonce" : "0x00",
                "storage" : {
                }
            }
        },
        "sealEngine" : "NoProof"
    }
}