{
    "TestCryptographicFunctions_d0g0v0_Byzantium" : {
        "_info" : {
            "comment" : "",
            "filledwith" : "testeth 1.7.0-alpha.1-20+commit.782a7283",
            "lllcversion" : "Version: 0.5.0-develop.2018.11.9+commit.9709dfe0.Linux.g++",
            "source" : "src/BlockchainTestsFiller/GeneralStateTests/stSolidityTest/TestCryptographicFunctions_d0g0v0Filler.json",
            "sourceHash" : "adc1c7403946ff51eb618f554676fccfbcd0985a81955be79b89a23cb458c51c"
        },
        "blocks" : [
            {
                "blockHeader" : {
                    "bloom" : "0x00000000000000000000000000000000000000000000000000000000000000000000000000000000000000000000000000000000000000000000000000000000000000000000000000000000000000000000000000000000000000000000000000000000000000000000000000000000000000000000000000000000000000000000000000000000000000000000000000000000000000000000000000000000000000000000000000000000000000000000000000000000000000000000000000000000000000000000000000000000000000000000000000000000000000000000000000000000000000000000000000000000000000000000000000000000",
                    "coinbase" : "0x2adc25665018aa1fe0e6bc666dac8fc2697ff9ba",
                    "difficulty" : "0x020000",
                    "extraData" : "0x",
                    "gasLimit" : "0x7fffffffffffffff",
                    "gasUsed" : "0xbcc6",
                    "hash" : "0xf858a806469e0da6fc9006d34e320de6f9bfda5b4c83e0539ea0958fefc884b4",
                    "mixHash" : "0x0000000000000000000000000000000000000000000000000000000000000000",
                    "nonce" : "0x0000000000000000",
                    "number" : "0x01",
                    "parentHash" : "0xdf31f26e5dcb7e53609af62d501fdbab0b9eb2028bf9032eb0ac6ca23931102b",
                    "receiptTrie" : "0x039ed60098a818a86bcb28efb76238766651e106559da0a6d1c5e29aa5e61621",
                    "stateRoot" : "0x8c5f9bf95e2a279f767f5b5e8e68680a9b4b12e2b16e90a1baf21e9b6411343c",
                    "timestamp" : "0x03e8",
                    "transactionsTrie" : "0x8434166e881be58d6b74fb77ff3332a435208864dfc1bb330b4ea7d6c526997f",
                    "uncleHash" : "0x1dcc4de8dec75d7aab85b567b6ccd41ad312451b948a7413f0a142fd40d49347"
                },
                "rlp" : "0xf90269f901fca0df31f26e5dcb7e53609af62d501fdbab0b9eb2028bf9032eb0ac6ca23931102ba01dcc4de8dec75d7aab85b567b6ccd41ad312451b948a7413f0a142fd40d49347942adc25665018aa1fe0e6bc666dac8fc2697ff9baa08c5f9bf95e2a279f767f5b5e8e68680a9b4b12e2b16e90a1baf21e9b6411343ca08434166e881be58d6b74fb77ff3332a435208864dfc1bb330b4ea7d6c526997fa0039ed60098a818a86bcb28efb76238766651e106559da0a6d1c5e29aa5e61621b90100000000000000000000000000000000000000000000000000000000000000000000000000000000000000000000000000000000000000000000000000000000000000000000000000000000000000000000000000000000000000000000000000000000000000000000000000000000000000000000000000000000000000000000000000000000000000000000000000000000000000000000000000000000000000000000000000000000000000000000000000000000000000000000000000000000000000000000000000000000000000000000000000000000000000000000000000000000000000000000000000000000000000000000000000000000008302000001887fffffffffffffff82bcc68203e880a00000000000000000000000000000000000000000000000000000000000000000880000000000000000f867f86580018402160ec094095e7baea6a6c7c4c2dfeb977efac326af552d876484c04062261ba034e6c6b7a2fcc20a447bcdef520b713a01c8f74084738aa93e72b466eba8c24da06ad238d471308dfcc7eef68b089a9866d611825f5bedeea7952dbf69afb8c18fc0",
                "transactions" : [
                    {
                        "data" : "0xc0406226",
                        "gasLimit" : "0x02160ec0",
                        "gasPrice" : "0x01",
                        "nonce" : "0x00",
                        "r" : "0x34e6c6b7a2fcc20a447bcdef520b713a01c8f74084738aa93e72b466eba8c24d",
                        "s" : "0x6ad238d471308dfcc7eef68b089a9866d611825f5bedeea7952dbf69afb8c18f",
                        "to" : "0x095e7baea6a6c7c4c2dfeb977efac326af552d87",
                        "v" : "0x1b",
                        "value" : "0x64"
                    }
                ],
                "uncleHeaders" : [
                ]
            }
        ],
        "genesisBlockHeader" : {
            "bloom" : "0x00000000000000000000000000000000000000000000000000000000000000000000000000000000000000000000000000000000000000000000000000000000000000000000000000000000000000000000000000000000000000000000000000000000000000000000000000000000000000000000000000000000000000000000000000000000000000000000000000000000000000000000000000000000000000000000000000000000000000000000000000000000000000000000000000000000000000000000000000000000000000000000000000000000000000000000000000000000000000000000000000000000000000000000000000000000",
            "coinbase" : "0x2adc25665018aa1fe0e6bc666dac8fc2697ff9ba",
            "difficulty" : "0x020000",
            "extraData" : "0x42",
            "gasLimit" : "0x7fffffffffffffff",
            "gasUsed" : "0x00",
            "hash" : "0xdf31f26e5dcb7e53609af62d501fdbab0b9eb2028bf9032eb0ac6ca23931102b",
            "mixHash" : "0x56e81f171bcc55a6ff8345e692c0f86e5b48e01b996cadc001622fb5e363b421",
            "nonce" : "0x0102030405060708",
            "number" : "0x00",
            "parentHash" : "0x0000000000000000000000000000000000000000000000000000000000000000",
            "receiptTrie" : "0x56e81f171bcc55a6ff8345e692c0f86e5b48e01b996cadc001622fb5e363b421",
            "stateRoot" : "0xf2e3a9a359399f54acfe449ed11bae9cd52926dcdf6729f2c57aadbe3a0aa04e",
            "timestamp" : "0x03b6",
            "transactionsTrie" : "0x56e81f171bcc55a6ff8345e692c0f86e5b48e01b996cadc001622fb5e363b421",
            "uncleHash" : "0x1dcc4de8dec75d7aab85b567b6ccd41ad312451b948a7413f0a142fd40d49347"
        },
        "genesisRLP" : "0xf901fff901faa00000000000000000000000000000000000000000000000000000000000000000a01dcc4de8dec75d7aab85b567b6ccd41ad312451b948a7413f0a142fd40d49347942adc25665018aa1fe0e6bc666dac8fc2697ff9baa0f2e3a9a359399f54acfe449ed11bae9cd52926dcdf6729f2c57aadbe3a0aa04ea056e81f171bcc55a6ff8345e692c0f86e5b48e01b996cadc001622fb5e363b421a056e81f171bcc55a6ff8345e692c0f86e5b48e01b996cadc001622fb5e363b421b90100000000000000000000000000000000000000000000000000000000000000000000000000000000000000000000000000000000000000000000000000000000000000000000000000000000000000000000000000000000000000000000000000000000000000000000000000000000000000000000000000000000000000000000000000000000000000000000000000000000000000000000000000000000000000000000000000000000000000000000000000000000000000000000000000000000000000000000000000000000000000000000000000000000000000000000000000000000000000000000000000000000000000000000000000000000008302000080887fffffffffffffff808203b642a056e81f171bcc55a6ff8345e692c0f86e5b48e01b996cadc001622fb5e363b421880102030405060708c0c0",
        "lastblockhash" : "0xf858a806469e0da6fc9006d34e320de6f9bfda5b4c83e0539ea0958fefc884b4",
        "network" : "Byzantium",
        "postState" : {
            "0x095e7baea6a6c7c4c2dfeb977efac326af552d87" : {
                "balance" : "0x018704",
                "code" : "0x6000357c010000000000000000000000000000000000000000000000000000000090048063c04062261461003a578063e0a9fd281461004c57005b61004261005e565b8060005260206000f35b610054610099565b8060005260206000f35b6000610068610099565b600060006101000a81548160ff02191690830217905550600060009054906101000a900460ff169050610096565b90565b60006001905080507f43c4b4524adb81e4e9a5c4648a98e9d320e3908ac5b6c889144b642cd08ae16d60010260407f74657374737472696e67000000000000000000000000000000000000000000008152600a016040900360402014156100ff57610108565b600090506102ec565b7f3c8727e019a42b444667a587b6001251becadabbb36bfed8087a92c18882d11160010260026020600060007f74657374737472696e67000000000000000000000000000000000000000000008152600a0160006000856161da5a03f161016b57005b50600051141561017a57610183565b600090506102ec565b73cd566972b5e50104011a92b59fa8e0b1234851ae6c010000000000000000000000000260036020600060007f74657374737472696e67000000000000000000000000000000000000000000008152600a0160006000856161da5a03f16101e657005b506000516c010000000000000000000000000214156102045761020d565b600090506102ec565b73a94f5374fce5edbc8e2a8697c15331677e6ebf0b60016020600060007f18c547e4f7b0f325ad1e56f57e26c745b09a3e503d86e00e5255ff7f715d3d1c6001028152602001601c81526020017f73b1693892219d736caba55bdb67216e485557ea6b6af75f37096c9aa6a5a75f60010281526020017feeb940b1d03b21e36b0e47e79769f095fe2ab855bd91e3a38756b7d75a9c4549600102815260200160006000856161da5a03f16102bd57005b5060005173ffffffffffffffffffffffffffffffffffffffff1614156102e2576102eb565b600090506102ec565b5b9056",
                "nonce" : "0x00",
                "storage" : {
                    "0x00" : "0x01"
                }
            },
            "0x2adc25665018aa1fe0e6bc666dac8fc2697ff9ba" : {
                "balance" : "0x29a2241af62cbcc6",
                "code" : "0x",
                "nonce" : "0x00",
                "storage" : {
                }
            },
            "0xa94f5374fce5edbc8e2a8697c15331677e6ebf0b" : {
                "balance" : "0x02fa3356",
                "code" : "0x",
                "nonce" : "0x01",
                "storage" : {
                }
            }
        },
        "pre" : {
            "0x095e7baea6a6c7c4c2dfeb977efac326af552d87" : {
                "balance" : "0x0186a0",
                "code" : "0x6000357c010000000000000000000000000000000000000000000000000000000090048063c04062261461003a578063e0a9fd281461004c57005b61004261005e565b8060005260206000f35b610054610099565b8060005260206000f35b6000610068610099565b600060006101000a81548160ff02191690830217905550600060009054906101000a900460ff169050610096565b90565b60006001905080507f43c4b4524adb81e4e9a5c4648a98e9d320e3908ac5b6c889144b642cd08ae16d60010260407f74657374737472696e67000000000000000000000000000000000000000000008152600a016040900360402014156100ff57610108565b600090506102ec565b7f3c8727e019a42b444667a587b6001251becadabbb36bfed8087a92c18882d11160010260026020600060007f74657374737472696e67000000000000000000000000000000000000000000008152600a0160006000856161da5a03f161016b57005b50600051141561017a57610183565b600090506102ec565b73cd566972b5e50104011a92b59fa8e0b1234851ae6c010000000000000000000000000260036020600060007f74657374737472696e67000000000000000000000000000000000000000000008152600a0160006000856161da5a03f16101e657005b506000516c010000000000000000000000000214156102045761020d565b600090506102ec565b73a94f5374fce5edbc8e2a8697c15331677e6ebf0b60016020600060007f18c547e4f7b0f325ad1e56f57e26c745b09a3e503d86e00e5255ff7f715d3d1c6001028152602001601c81526020017f73b1693892219d736caba55bdb67216e485557ea6b6af75f37096c9aa6a5a75f60010281526020017feeb940b1d03b21e36b0e47e79769f095fe2ab855bd91e3a38756b7d75a9c4549600102815260200160006000856161da5a03f16102bd57005b5060005173ffffffffffffffffffffffffffffffffffffffff1614156102e2576102eb565b600090506102ec565b5b9056",
                "nonce" : "0x00",
                "storage" : {
                }
            },
            "0xa94f5374fce5edbc8e2a8697c15331677e6ebf0b" : {
                "balance" : "0x02faf080",
                "code" : "0x",
                "nonce" : "0x00",
                "storage" : {
                }
            }
        },
        "sealEngine" : "NoProof"
    },
    "TestCryptographicFunctions_d0g0v0_Homestead" : {
        "_info" : {
            "comment" : "",
            "filledwith" : "testeth 1.7.0-alpha.1-20+commit.782a7283",
            "lllcversion" : "Version: 0.5.0-develop.2018.11.9+commit.9709dfe0.Linux.g++",
            "source" : "src/BlockchainTestsFiller/GeneralStateTests/stSolidityTest/TestCryptographicFunctions_d0g0v0Filler.json",
            "sourceHash" : "adc1c7403946ff51eb618f554676fccfbcd0985a81955be79b89a23cb458c51c"
        },
        "blocks" : [
            {
                "blockHeader" : {
                    "bloom" : "0x00000000000000000000000000000000000000000000000000000000000000000000000000000000000000000000000000000000000000000000000000000000000000000000000000000000000000000000000000000000000000000000000000000000000000000000000000000000000000000000000000000000000000000000000000000000000000000000000000000000000000000000000000000000000000000000000000000000000000000000000000000000000000000000000000000000000000000000000000000000000000000000000000000000000000000000000000000000000000000000000000000000000000000000000000000000",
                    "coinbase" : "0x2adc25665018aa1fe0e6bc666dac8fc2697ff9ba",
                    "difficulty" : "0x020000",
                    "extraData" : "0x",
                    "gasLimit" : "0x7fffffffffffffff",
                    "gasUsed" : "0x01d8d6",
                    "hash" : "0x9771876e2e575d2bf42986b73242b3a427b3212be173151f0f75c9cd6f26a76f",
                    "mixHash" : "0x0000000000000000000000000000000000000000000000000000000000000000",
                    "nonce" : "0x0000000000000000",
                    "number" : "0x01",
                    "parentHash" : "0xdf31f26e5dcb7e53609af62d501fdbab0b9eb2028bf9032eb0ac6ca23931102b",
                    "receiptTrie" : "0x42a3ad15c2bb475714cf0bccaedccba6c0ba46171e3566b0040312fc8847cc02",
                    "stateRoot" : "0x2549960d70951c66bdf38805b38b187f53c9f7cefdba83a93bfb745fe10298d9",
                    "timestamp" : "0x03e8",
                    "transactionsTrie" : "0x8434166e881be58d6b74fb77ff3332a435208864dfc1bb330b4ea7d6c526997f",
                    "uncleHash" : "0x1dcc4de8dec75d7aab85b567b6ccd41ad312451b948a7413f0a142fd40d49347"
                },
                "rlp" : "0xf9026af901fda0df31f26e5dcb7e53609af62d501fdbab0b9eb2028bf9032eb0ac6ca23931102ba01dcc4de8dec75d7aab85b567b6ccd41ad312451b948a7413f0a142fd40d49347942adc25665018aa1fe0e6bc666dac8fc2697ff9baa02549960d70951c66bdf38805b38b187f53c9f7cefdba83a93bfb745fe10298d9a08434166e881be58d6b74fb77ff3332a435208864dfc1bb330b4ea7d6c526997fa042a3ad15c2bb475714cf0bccaedccba6c0ba46171e3566b0040312fc8847cc02b90100000000000000000000000000000000000000000000000000000000000000000000000000000000000000000000000000000000000000000000000000000000000000000000000000000000000000000000000000000000000000000000000000000000000000000000000000000000000000000000000000000000000000000000000000000000000000000000000000000000000000000000000000000000000000000000000000000000000000000000000000000000000000000000000000000000000000000000000000000000000000000000000000000000000000000000000000000000000000000000000000000000000000000000000000000000008302000001887fffffffffffffff8301d8d68203e880a00000000000000000000000000000000000000000000000000000000000000000880000000000000000f867f86580018402160ec094095e7baea6a6c7c4c2dfeb977efac326af552d876484c04062261ba034e6c6b7a2fcc20a447bcdef520b713a01c8f74084738aa93e72b466eba8c24da06ad238d471308dfcc7eef68b089a9866d611825f5bedeea7952dbf69afb8c18fc0",
                "transactions" : [
                    {
                        "data" : "0xc0406226",
                        "gasLimit" : "0x02160ec0",
                        "gasPrice" : "0x01",
                        "nonce" : "0x00",
                        "r" : "0x34e6c6b7a2fcc20a447bcdef520b713a01c8f74084738aa93e72b466eba8c24d",
                        "s" : "0x6ad238d471308dfcc7eef68b089a9866d611825f5bedeea7952dbf69afb8c18f",
                        "to" : "0x095e7baea6a6c7c4c2dfeb977efac326af552d87",
                        "v" : "0x1b",
                        "value" : "0x64"
                    }
                ],
                "uncleHeaders" : [
                ]
            }
        ],
        "genesisBlockHeader" : {
            "bloom" : "0x00000000000000000000000000000000000000000000000000000000000000000000000000000000000000000000000000000000000000000000000000000000000000000000000000000000000000000000000000000000000000000000000000000000000000000000000000000000000000000000000000000000000000000000000000000000000000000000000000000000000000000000000000000000000000000000000000000000000000000000000000000000000000000000000000000000000000000000000000000000000000000000000000000000000000000000000000000000000000000000000000000000000000000000000000000000",
            "coinbase" : "0x2adc25665018aa1fe0e6bc666dac8fc2697ff9ba",
            "difficulty" : "0x020000",
            "extraData" : "0x42",
            "gasLimit" : "0x7fffffffffffffff",
            "gasUsed" : "0x00",
            "hash" : "0xdf31f26e5dcb7e53609af62d501fdbab0b9eb2028bf9032eb0ac6ca23931102b",
            "mixHash" : "0x56e81f171bcc55a6ff8345e692c0f86e5b48e01b996cadc001622fb5e363b421",
            "nonce" : "0x0102030405060708",
            "number" : "0x00",
            "parentHash" : "0x0000000000000000000000000000000000000000000000000000000000000000",
            "receiptTrie" : "0x56e81f171bcc55a6ff8345e692c0f86e5b48e01b996cadc001622fb5e363b421",
            "stateRoot" : "0xf2e3a9a359399f54acfe449ed11bae9cd52926dcdf6729f2c57aadbe3a0aa04e",
            "timestamp" : "0x03b6",
            "transactionsTrie" : "0x56e81f171bcc55a6ff8345e692c0f86e5b48e01b996cadc001622fb5e363b421",
            "uncleHash" : "0x1dcc4de8dec75d7aab85b567b6ccd41ad312451b948a7413f0a142fd40d49347"
        },
        "genesisRLP" : "0xf901fff901faa00000000000000000000000000000000000000000000000000000000000000000a01dcc4de8dec75d7aab85b567b6ccd41ad312451b948a7413f0a142fd40d49347942adc25665018aa1fe0e6bc666dac8fc2697ff9baa0f2e3a9a359399f54acfe449ed11bae9cd52926dcdf6729f2c57aadbe3a0aa04ea056e81f171bcc55a6ff8345e692c0f86e5b48e01b996cadc001622fb5e363b421a056e81f171bcc55a6ff8345e692c0f86e5b48e01b996cadc001622fb5e363b421b90100000000000000000000000000000000000000000000000000000000000000000000000000000000000000000000000000000000000000000000000000000000000000000000000000000000000000000000000000000000000000000000000000000000000000000000000000000000000000000000000000000000000000000000000000000000000000000000000000000000000000000000000000000000000000000000000000000000000000000000000000000000000000000000000000000000000000000000000000000000000000000000000000000000000000000000000000000000000000000000000000000000000000000000000000000000008302000080887fffffffffffffff808203b642a056e81f171bcc55a6ff8345e692c0f86e5b48e01b996cadc001622fb5e363b421880102030405060708c0c0",
        "lastblockhash" : "0x9771876e2e575d2bf42986b73242b3a427b3212be173151f0f75c9cd6f26a76f",
        "network" : "Homestead",
        "postState" : {
            "0x0000000000000000000000000000000000000001" : {
                "balance" : "0x00",
                "code" : "0x",
                "nonce" : "0x00",
                "storage" : {
                }
            },
            "0x0000000000000000000000000000000000000002" : {
                "balance" : "0x00",
                "code" : "0x",
                "nonce" : "0x00",
                "storage" : {
                }
            },
            "0x0000000000000000000000000000000000000003" : {
                "balance" : "0x00",
                "code" : "0x",
                "nonce" : "0x00",
                "storage" : {
                }
            },
            "0x095e7baea6a6c7c4c2dfeb977efac326af552d87" : {
                "balance" : "0x018704",
                "code" : "0x6000357c010000000000000000000000000000000000000000000000000000000090048063c04062261461003a578063e0a9fd281461004c57005b61004261005e565b8060005260206000f35b610054610099565b8060005260206000f35b6000610068610099565b600060006101000a81548160ff02191690830217905550600060009054906101000a900460ff169050610096565b90565b60006001905080507f43c4b4524adb81e4e9a5c4648a98e9d320e3908ac5b6c889144b642cd08ae16d60010260407f74657374737472696e67000000000000000000000000000000000000000000008152600a016040900360402014156100ff57610108565b600090506102ec565b7f3c8727e019a42b444667a587b6001251becadabbb36bfed8087a92c18882d11160010260026020600060007f74657374737472696e67000000000000000000000000000000000000000000008152600a0160006000856161da5a03f161016b57005b50600051141561017a57610183565b600090506102ec565b73cd566972b5e50104011a92b59fa8e0b1234851ae6c010000000000000000000000000260036020600060007f74657374737472696e67000000000000000000000000000000000000000000008152600a0160006000856161da5a03f16101e657005b506000516c010000000000000000000000000214156102045761020d565b600090506102ec565b73a94f5374fce5edbc8e2a8697c15331677e6ebf0b60016020600060007f18c547e4f7b0f325ad1e56f57e26c745b09a3e503d86e00e5255ff7f715d3d1c6001028152602001601c81526020017f73b1693892219d736caba55bdb67216e485557ea6b6af75f37096c9aa6a5a75f60010281526020017feeb940b1d03b21e36b0e47e79769f095fe2ab855bd91e3a38756b7d75a9c4549600102815260200160006000856161da5a03f16102bd57005b5060005173ffffffffffffffffffffffffffffffffffffffff1614156102e2576102eb565b600090506102ec565b5b9056",
                "nonce" : "0x00",
                "storage" : {
                    "0x00" : "0x01"
                }
            },
            "0x2adc25665018aa1fe0e6bc666dac8fc2697ff9ba" : {
                "balance" : "0x4563918244f5d8d6",
                "code" : "0x",
                "nonce" : "0x00",
                "storage" : {
                }
            },
            "0xa94f5374fce5edbc8e2a8697c15331677e6ebf0b" : {
                "balance" : "0x02f91746",
                "code" : "0x",
                "nonce" : "0x01",
                "storage" : {
                }
            }
        },
        "pre" : {
            "0x095e7baea6a6c7c4c2dfeb977efac326af552d87" : {
                "balance" : "0x0186a0",
                "code" : "0x6000357c010000000000000000000000000000000000000000000000000000000090048063c04062261461003a578063e0a9fd281461004c57005b61004261005e565b8060005260206000f35b610054610099565b8060005260206000f35b6000610068610099565b600060006101000a81548160ff02191690830217905550600060009054906101000a900460ff169050610096565b90565b60006001905080507f43c4b4524adb81e4e9a5c4648a98e9d320e3908ac5b6c889144b642cd08ae16d60010260407f74657374737472696e67000000000000000000000000000000000000000000008152600a016040900360402014156100ff57610108565b600090506102ec565b7f3c8727e019a42b444667a587b6001251becadabbb36bfed8087a92c18882d11160010260026020600060007f74657374737472696e67000000000000000000000000000000000000000000008152600a0160006000856161da5a03f161016b57005b50600051141561017a57610183565b600090506102ec565b73cd566972b5e50104011a92b59fa8e0b1234851ae6c010000000000000000000000000260036020600060007f74657374737472696e67000000000000000000000000000000000000000000008152600a0160006000856161da5a03f16101e657005b506000516c010000000000000000000000000214156102045761020d565b600090506102ec565b73a94f5374fce5edbc8e2a8697c15331677e6ebf0b60016020600060007f18c547e4f7b0f325ad1e56f57e26c745b09a3e503d86e00e5255ff7f715d3d1c6001028152602001601c81526020017f73b1693892219d736caba55bdb67216e485557ea6b6af75f37096c9aa6a5a75f60010281526020017feeb940b1d03b21e36b0e47e79769f095fe2ab855bd91e3a38756b7d75a9c4549600102815260200160006000856161da5a03f16102bd57005b5060005173ffffffffffffffffffffffffffffffffffffffff1614156102e2576102eb565b600090506102ec565b5b9056",
                "nonce" : "0x00",
                "storage" : {
                }
            },
            "0xa94f5374fce5edbc8e2a8697c15331677e6ebf0b" : {
                "balance" : "0x02faf080",
                "code" : "0x",
                "nonce" : "0x00",
                "storage" : {
                }
            }
        },
        "sealEngine" : "NoProof"
    }
}