{
    "callcodecallcall_100_OOGE_d0g0v0_Berlin" : {
        "_info" : {
            "comment" : "DELEGATE -> CALLCODE -> CALLCODE -> CODE OOG",
            "filling-rpc-server" : "evm version 1.10.4-unstable-966ee3ae-20210528",
            "filling-tool-version" : "retesteth-0.1.1-eip1559+commit.658fc3a8.Linux.g++",
            "lllcversion" : "Version: 0.5.14-develop.2021.5.18+commit.14c9d5de.mod.Linux.g++",
            "source" : "src/GeneralStateTestsFiller/stCallDelegateCodesCallCodeHomestead/callcodecallcall_100_OOGEFiller.json",
            "sourceHash" : "3f72ab3405d7de5097a7a7426ec46fb900e4305aa481f924144bed3b6fb097ed"
        },
        "genesisBlockHeader" : {
            "bloom" : "0x00000000000000000000000000000000000000000000000000000000000000000000000000000000000000000000000000000000000000000000000000000000000000000000000000000000000000000000000000000000000000000000000000000000000000000000000000000000000000000000000000000000000000000000000000000000000000000000000000000000000000000000000000000000000000000000000000000000000000000000000000000000000000000000000000000000000000000000000000000000000000000000000000000000000000000000000000000000000000000000000000000000000000000000000000000000",
            "coinbase" : "0x2adc25665018aa1fe0e6bc666dac8fc2697ff9ba",
            "difficulty" : "0x020000",
            "extraData" : "0x00",
            "gasLimit" : "0x01c9c380",
            "gasUsed" : "0x00",
            "hash" : "0x764625023ac6b3e088641cd047a6db95e4b12d7990b7cc154a4eca3de5c21a68",
            "mixHash" : "0x0000000000000000000000000000000000000000000000000000000000000000",
            "nonce" : "0x0000000000000000",
            "number" : "0x00",
            "parentHash" : "0x0000000000000000000000000000000000000000000000000000000000000000",
            "receiptTrie" : "0x56e81f171bcc55a6ff8345e692c0f86e5b48e01b996cadc001622fb5e363b421",
            "stateRoot" : "0xf21b2c65de11b3636c9dd9602edd65470fe326037b64240f827863bf1753d7ee",
            "timestamp" : "0x00",
            "transactionsTrie" : "0x56e81f171bcc55a6ff8345e692c0f86e5b48e01b996cadc001622fb5e363b421",
            "uncleHash" : "0x1dcc4de8dec75d7aab85b567b6ccd41ad312451b948a7413f0a142fd40d49347"
        },
        "pre" : {
            "0x1000000000000000000000000000000000000000" : {
                "balance" : "0x0de0b6b3a7640000",
                "code" : "0x6040600060406000731000000000000000000000000000000000000001620c3500f460005500",
                "nonce" : "0x00",
                "storage" : {
                }
            },
            "0x1000000000000000000000000000000000000001" : {
                "balance" : "0x00",
                "code" : "0x60406000604060006000731000000000000000000000000000000000000002620927c0f260015500",
                "nonce" : "0x00",
                "storage" : {
                }
            },
            "0x1000000000000000000000000000000000000002" : {
                "balance" : "0x00",
                "code" : "0x6040600060406000600073100000000000000000000000000000000000000362061a80f26002556001600b5500",
                "nonce" : "0x00",
                "storage" : {
                }
            },
            "0x1000000000000000000000000000000000000003" : {
                "balance" : "0x00",
                "code" : "0x6001600355622fffff60002000",
                "nonce" : "0x00",
                "storage" : {
                }
            },
            "0xa94f5374fce5edbc8e2a8697c15331677e6ebf0b" : {
                "balance" : "0x0de0b6b3a7640000",
                "code" : "0x",
                "nonce" : "0x00",
                "storage" : {
                }
            }
        },
        "postState" : {
            "0x1000000000000000000000000000000000000000" : {
                "code" : "0x6040600060406000731000000000000000000000000000000000000001620c3500f460005500",
                "nonce" : "0x00",
                "balance" : "0x0de0b6b3a7640000",
                "storage" : {
                    "0x00" : "0x01",
                    "0x01" : "0x01",
                    "0x0b" : "0x01"
                }
            },
            "0x1000000000000000000000000000000000000001" : {
                "code" : "0x60406000604060006000731000000000000000000000000000000000000002620927c0f260015500",
                "nonce" : "0x00",
                "balance" : "0x00",
                "storage" : {
                }
            },
            "0x1000000000000000000000000000000000000002" : {
                "code" : "0x6040600060406000600073100000000000000000000000000000000000000362061a80f26002556001600b5500",
                "nonce" : "0x00",
                "balance" : "0x00",
                "storage" : {
                }
            },
            "0x1000000000000000000000000000000000000003" : {
                "code" : "0x6001600355622fffff60002000",
                "nonce" : "0x00",
                "balance" : "0x00",
                "storage" : {
                }
            },
            "0x2adc25665018aa1fe0e6bc666dac8fc2697ff9ba" : {
                "code" : "0x",
                "nonce" : "0x00",
                "balance" : "0x1bc16d674f13e56a",
                "storage" : {
                }
            },
            "0xa94f5374fce5edbc8e2a8697c15331677e6ebf0b" : {
                "code" : "0x",
                "nonce" : "0x01",
                "balance" : "0x0de0b6b3a7181a96",
                "storage" : {
                }
            }
        },
        "network" : "Berlin",
        "sealEngine" : "NoProof",
        "lastblockhash" : "0x38e7c62cb2dbcb1afe23c52671cc12dc8bd63a2e2ba043993d0992de73e07a15",
        "genesisRLP" : "0xf901f9f901f4a00000000000000000000000000000000000000000000000000000000000000000a01dcc4de8dec75d7aab85b567b6ccd41ad312451b948a7413f0a142fd40d49347942adc25665018aa1fe0e6bc666dac8fc2697ff9baa0f21b2c65de11b3636c9dd9602edd65470fe326037b64240f827863bf1753d7eea056e81f171bcc55a6ff8345e692c0f86e5b48e01b996cadc001622fb5e363b421a056e81f171bcc55a6ff8345e692c0f86e5b48e01b996cadc001622fb5e363b421b901000000000000000000000000000000000000000000000000000000000000000000000000000000000000000000000000000000000000000000000000000000000000000000000000000000000000000000000000000000000000000000000000000000000000000000000000000000000000000000000000000000000000000000000000000000000000000000000000000000000000000000000000000000000000000000000000000000000000000000000000000000000000000000000000000000000000000000000000000000000000000000000000000000000000000000000000000000000000000000000000000000000000000000000000000000000083020000808401c9c380808000a00000000000000000000000000000000000000000000000000000000000000000880000000000000000c0c0",
        "blocks" : [
            {
                "rlp" : "0xf90261f901f9a0764625023ac6b3e088641cd047a6db95e4b12d7990b7cc154a4eca3de5c21a68a01dcc4de8dec75d7aab85b567b6ccd41ad312451b948a7413f0a142fd40d49347942adc25665018aa1fe0e6bc666dac8fc2697ff9baa027db9a3ea426744d65422c7a125e44a41395a20dff502de910dec4d558b3b991a0c8dd60985c2897fe775f0c88b53a0cef6fafa1e2295cee6e65cd8df4b9df6930a07feebdf729ab2ac9ff2578b0a5ebe4907431b7f50ff333be31419f1c6cb698d2b901000000000000000000000000000000000000000000000000000000000000000000000000000000000000000000000000000000000000000000000000000000000000000000000000000000000000000000000000000000000000000000000000000000000000000000000000000000000000000000000000000000000000000000000000000000000000000000000000000000000000000000000000000000000000000000000000000000000000000000000000000000000000000000000000000000000000000000000000000000000000000000000000000000000000000000000000000000000000000000000000000000000000000000000000000000000083020000018401c9c380830796f18203e800a00000000000000000000000000000000000000000000000000000000000000000880000000000000000f862f860800a830f424094100000000000000000000000000000000000000080801ba0878fccf1801724b1bfb5b0a67d68454b9c56fe9e3753200bc36cd66eed5636eca00dc53455b0e859433799ddbe3c16f98e70c52b6bf684992d9907dc9d1ccb03f1c0",
                "blockHeader" : {
                    "bloom" : "0x00000000000000000000000000000000000000000000000000000000000000000000000000000000000000000000000000000000000000000000000000000000000000000000000000000000000000000000000000000000000000000000000000000000000000000000000000000000000000000000000000000000000000000000000000000000000000000000000000000000000000000000000000000000000000000000000000000000000000000000000000000000000000000000000000000000000000000000000000000000000000000000000000000000000000000000000000000000000000000000000000000000000000000000000000000000",
                    "coinbase" : "0x2adc25665018aa1fe0e6bc666dac8fc2697ff9ba",
                    "difficulty" : "0x020000",
                    "extraData" : "0x00",
                    "gasLimit" : "0x01c9c380",
                    "gasUsed" : "0x0796f1",
                    "hash" : "0x38e7c62cb2dbcb1afe23c52671cc12dc8bd63a2e2ba043993d0992de73e07a15",
                    "mixHash" : "0x0000000000000000000000000000000000000000000000000000000000000000",
                    "nonce" : "0x0000000000000000",
                    "number" : "0x01",
                    "parentHash" : "0x764625023ac6b3e088641cd047a6db95e4b12d7990b7cc154a4eca3de5c21a68",
                    "receiptTrie" : "0x7feebdf729ab2ac9ff2578b0a5ebe4907431b7f50ff333be31419f1c6cb698d2",
                    "stateRoot" : "0x27db9a3ea426744d65422c7a125e44a41395a20dff502de910dec4d558b3b991",
                    "timestamp" : "0x03e8",
                    "transactionsTrie" : "0xc8dd60985c2897fe775f0c88b53a0cef6fafa1e2295cee6e65cd8df4b9df6930",
                    "uncleHash" : "0x1dcc4de8dec75d7aab85b567b6ccd41ad312451b948a7413f0a142fd40d49347"
                },
                "transactions" : [
                    {
                        "data" : "0x",
                        "gasLimit" : "0x0f4240",
                        "gasPrice" : "0x0a",
                        "nonce" : "0x00",
                        "to" : "0x1000000000000000000000000000000000000000",
                        "value" : "0x00",
                        "v" : "0x1b",
                        "r" : "0x878fccf1801724b1bfb5b0a67d68454b9c56fe9e3753200bc36cd66eed5636ec",
                        "s" : "0x0dc53455b0e859433799ddbe3c16f98e70c52b6bf684992d9907dc9d1ccb03f1"
                    }
                ],
                "uncleHeaders" : [
                ]
            }
        ]
    },
    "callcodecallcall_100_OOGE_d0g0v0_Istanbul" : {
        "_info" : {
            "comment" : "DELEGATE -> CALLCODE -> CALLCODE -> CODE OOG",
            "filling-rpc-server" : "evm version 1.10.4-unstable-966ee3ae-20210528",
            "filling-tool-version" : "retesteth-0.1.1-eip1559+commit.658fc3a8.Linux.g++",
            "lllcversion" : "Version: 0.5.14-develop.2021.5.18+commit.14c9d5de.mod.Linux.g++",
            "source" : "src/GeneralStateTestsFiller/stCallDelegateCodesCallCodeHomestead/callcodecallcall_100_OOGEFiller.json",
            "sourceHash" : "3f72ab3405d7de5097a7a7426ec46fb900e4305aa481f924144bed3b6fb097ed"
        },
        "genesisBlockHeader" : {
            "bloom" : "0x00000000000000000000000000000000000000000000000000000000000000000000000000000000000000000000000000000000000000000000000000000000000000000000000000000000000000000000000000000000000000000000000000000000000000000000000000000000000000000000000000000000000000000000000000000000000000000000000000000000000000000000000000000000000000000000000000000000000000000000000000000000000000000000000000000000000000000000000000000000000000000000000000000000000000000000000000000000000000000000000000000000000000000000000000000000",
            "coinbase" : "0x2adc25665018aa1fe0e6bc666dac8fc2697ff9ba",
            "difficulty" : "0x020000",
            "extraData" : "0x00",
            "gasLimit" : "0x01c9c380",
            "gasUsed" : "0x00",
            "hash" : "0x764625023ac6b3e088641cd047a6db95e4b12d7990b7cc154a4eca3de5c21a68",
            "mixHash" : "0x0000000000000000000000000000000000000000000000000000000000000000",
            "nonce" : "0x0000000000000000",
            "number" : "0x00",
            "parentHash" : "0x0000000000000000000000000000000000000000000000000000000000000000",
            "receiptTrie" : "0x56e81f171bcc55a6ff8345e692c0f86e5b48e01b996cadc001622fb5e363b421",
            "stateRoot" : "0xf21b2c65de11b3636c9dd9602edd65470fe326037b64240f827863bf1753d7ee",
            "timestamp" : "0x00",
            "transactionsTrie" : "0x56e81f171bcc55a6ff8345e692c0f86e5b48e01b996cadc001622fb5e363b421",
            "uncleHash" : "0x1dcc4de8dec75d7aab85b567b6ccd41ad312451b948a7413f0a142fd40d49347"
        },
        "pre" : {
            "0x1000000000000000000000000000000000000000" : {
                "balance" : "0x0de0b6b3a7640000",
                "code" : "0x6040600060406000731000000000000000000000000000000000000001620c3500f460005500",
                "nonce" : "0x00",
                "storage" : {
                }
            },
            "0x1000000000000000000000000000000000000001" : {
                "balance" : "0x00",
                "code" : "0x60406000604060006000731000000000000000000000000000000000000002620927c0f260015500",
                "nonce" : "0x00",
                "storage" : {
                }
            },
            "0x1000000000000000000000000000000000000002" : {
                "balance" : "0x00",
                "code" : "0x6040600060406000600073100000000000000000000000000000000000000362061a80f26002556001600b5500",
                "nonce" : "0x00",
                "storage" : {
                }
            },
            "0x1000000000000000000000000000000000000003" : {
                "balance" : "0x00",
                "code" : "0x6001600355622fffff60002000",
                "nonce" : "0x00",
                "storage" : {
                }
            },
            "0xa94f5374fce5edbc8e2a8697c15331677e6ebf0b" : {
                "balance" : "0x0de0b6b3a7640000",
                "code" : "0x",
                "nonce" : "0x00",
                "storage" : {
                }
            }
        },
        "postState" : {
            "0x1000000000000000000000000000000000000000" : {
                "code" : "0x6040600060406000731000000000000000000000000000000000000001620c3500f460005500",
                "nonce" : "0x00",
                "balance" : "0x0de0b6b3a7640000",
                "storage" : {
                    "0x00" : "0x01",
                    "0x01" : "0x01",
                    "0x0b" : "0x01"
                }
            },
            "0x1000000000000000000000000000000000000001" : {
                "code" : "0x60406000604060006000731000000000000000000000000000000000000002620927c0f260015500",
                "nonce" : "0x00",
                "balance" : "0x00",
                "storage" : {
                }
            },
            "0x1000000000000000000000000000000000000002" : {
                "code" : "0x6040600060406000600073100000000000000000000000000000000000000362061a80f26002556001600b5500",
                "nonce" : "0x00",
                "balance" : "0x00",
                "storage" : {
                }
            },
            "0x1000000000000000000000000000000000000003" : {
                "code" : "0x6001600355622fffff60002000",
                "nonce" : "0x00",
                "balance" : "0x00",
                "storage" : {
                }
            },
            "0x2adc25665018aa1fe0e6bc666dac8fc2697ff9ba" : {
                "code" : "0x",
                "nonce" : "0x00",
                "balance" : "0x1bc16d674f11d9fa",
                "storage" : {
                }
            },
            "0xa94f5374fce5edbc8e2a8697c15331677e6ebf0b" : {
                "code" : "0x",
                "nonce" : "0x01",
                "balance" : "0x0de0b6b3a71a2606",
                "storage" : {
                }
            }
        },
        "network" : "Istanbul",
        "sealEngine" : "NoProof",
        "lastblockhash" : "0x3d4fdb336d7bcc5566fbc78e0a5fdb85ee1db2097e02b2513b1081e29c37d854",
        "genesisRLP" : "0xf901f9f901f4a00000000000000000000000000000000000000000000000000000000000000000a01dcc4de8dec75d7aab85b567b6ccd41ad312451b948a7413f0a142fd40d49347942adc25665018aa1fe0e6bc666dac8fc2697ff9baa0f21b2c65de11b3636c9dd9602edd65470fe326037b64240f827863bf1753d7eea056e81f171bcc55a6ff8345e692c0f86e5b48e01b996cadc001622fb5e363b421a056e81f171bcc55a6ff8345e692c0f86e5b48e01b996cadc001622fb5e363b421b901000000000000000000000000000000000000000000000000000000000000000000000000000000000000000000000000000000000000000000000000000000000000000000000000000000000000000000000000000000000000000000000000000000000000000000000000000000000000000000000000000000000000000000000000000000000000000000000000000000000000000000000000000000000000000000000000000000000000000000000000000000000000000000000000000000000000000000000000000000000000000000000000000000000000000000000000000000000000000000000000000000000000000000000000000000000083020000808401c9c380808000a00000000000000000000000000000000000000000000000000000000000000000880000000000000000c0c0",
        "blocks" : [
            {
                "rlp" : "0xf90261f901f9a0764625023ac6b3e088641cd047a6db95e4b12d7990b7cc154a4eca3de5c21a68a01dcc4de8dec75d7aab85b567b6ccd41ad312451b948a7413f0a142fd40d49347942adc25665018aa1fe0e6bc666dac8fc2697ff9baa063f49a9a13722453eac519b76f021d50535003b2c581a6e6d247a641b34ce36fa0c8dd60985c2897fe775f0c88b53a0cef6fafa1e2295cee6e65cd8df4b9df6930a0a73e5b2c59405761b194ef08db995bff120d9e920bc0decbcc74c65091584b98b901000000000000000000000000000000000000000000000000000000000000000000000000000000000000000000000000000000000000000000000000000000000000000000000000000000000000000000000000000000000000000000000000000000000000000000000000000000000000000000000000000000000000000000000000000000000000000000000000000000000000000000000000000000000000000000000000000000000000000000000000000000000000000000000000000000000000000000000000000000000000000000000000000000000000000000000000000000000000000000000000000000000000000000000000000000000083020000018401c9c380830762998203e800a00000000000000000000000000000000000000000000000000000000000000000880000000000000000f862f860800a830f424094100000000000000000000000000000000000000080801ba0878fccf1801724b1bfb5b0a67d68454b9c56fe9e3753200bc36cd66eed5636eca00dc53455b0e859433799ddbe3c16f98e70c52b6bf684992d9907dc9d1ccb03f1c0",
                "blockHeader" : {
                    "bloom" : "0x00000000000000000000000000000000000000000000000000000000000000000000000000000000000000000000000000000000000000000000000000000000000000000000000000000000000000000000000000000000000000000000000000000000000000000000000000000000000000000000000000000000000000000000000000000000000000000000000000000000000000000000000000000000000000000000000000000000000000000000000000000000000000000000000000000000000000000000000000000000000000000000000000000000000000000000000000000000000000000000000000000000000000000000000000000000",
                    "coinbase" : "0x2adc25665018aa1fe0e6bc666dac8fc2697ff9ba",
                    "difficulty" : "0x020000",
                    "extraData" : "0x00",
                    "gasLimit" : "0x01c9c380",
                    "gasUsed" : "0x076299",
                    "hash" : "0x3d4fdb336d7bcc5566fbc78e0a5fdb85ee1db2097e02b2513b1081e29c37d854",
                    "mixHash" : "0x0000000000000000000000000000000000000000000000000000000000000000",
                    "nonce" : "0x0000000000000000",
                    "number" : "0x01",
                    "parentHash" : "0x764625023ac6b3e088641cd047a6db95e4b12d7990b7cc154a4eca3de5c21a68",
                    "receiptTrie" : "0xa73e5b2c59405761b194ef08db995bff120d9e920bc0decbcc74c65091584b98",
                    "stateRoot" : "0x63f49a9a13722453eac519b76f021d50535003b2c581a6e6d247a641b34ce36f",
                    "timestamp" : "0x03e8",
                    "transactionsTrie" : "0xc8dd60985c2897fe775f0c88b53a0cef6fafa1e2295cee6e65cd8df4b9df6930",
                    "uncleHash" : "0x1dcc4de8dec75d7aab85b567b6ccd41ad312451b948a7413f0a142fd40d49347"
                },
                "transactions" : [
                    {
                        "data" : "0x",
                        "gasLimit" : "0x0f4240",
                        "gasPrice" : "0x0a",
                        "nonce" : "0x00",
                        "to" : "0x1000000000000000000000000000000000000000",
                        "value" : "0x00",
                        "v" : "0x1b",
                        "r" : "0x878fccf1801724b1bfb5b0a67d68454b9c56fe9e3753200bc36cd66eed5636ec",
                        "s" : "0x0dc53455b0e859433799ddbe3c16f98e70c52b6bf684992d9907dc9d1ccb03f1"
                    }
                ],
                "uncleHeaders" : [
                ]
            }
        ]
    },
    "callcodecallcall_100_OOGE_d0g0v0_London" : {
        "_info" : {
            "comment" : "DELEGATE -> CALLCODE -> CALLCODE -> CODE OOG",
            "filling-rpc-server" : "evm version 1.10.4-unstable-966ee3ae-20210528",
            "filling-tool-version" : "retesteth-0.1.1-eip1559+commit.658fc3a8.Linux.g++",
            "lllcversion" : "Version: 0.5.14-develop.2021.5.18+commit.14c9d5de.mod.Linux.g++",
            "source" : "src/GeneralStateTestsFiller/stCallDelegateCodesCallCodeHomestead/callcodecallcall_100_OOGEFiller.json",
            "sourceHash" : "3f72ab3405d7de5097a7a7426ec46fb900e4305aa481f924144bed3b6fb097ed"
        },
        "genesisBlockHeader" : {
            "bloom" : "0x00000000000000000000000000000000000000000000000000000000000000000000000000000000000000000000000000000000000000000000000000000000000000000000000000000000000000000000000000000000000000000000000000000000000000000000000000000000000000000000000000000000000000000000000000000000000000000000000000000000000000000000000000000000000000000000000000000000000000000000000000000000000000000000000000000000000000000000000000000000000000000000000000000000000000000000000000000000000000000000000000000000000000000000000000000000",
            "coinbase" : "0x2adc25665018aa1fe0e6bc666dac8fc2697ff9ba",
            "difficulty" : "0x020000",
            "extraData" : "0x00",
            "gasLimit" : "0x01c9c380",
            "gasUsed" : "0x00",
            "hash" : "0x115d053d422d190cdad240a74e67ada35b7d7fa3da055854c07dda7286c46f06",
            "mixHash" : "0x0000000000000000000000000000000000000000000000000000000000000000",
            "nonce" : "0x0000000000000000",
            "number" : "0x00",
            "parentHash" : "0x0000000000000000000000000000000000000000000000000000000000000000",
            "receiptTrie" : "0x56e81f171bcc55a6ff8345e692c0f86e5b48e01b996cadc001622fb5e363b421",
            "stateRoot" : "0xf21b2c65de11b3636c9dd9602edd65470fe326037b64240f827863bf1753d7ee",
            "timestamp" : "0x00",
            "transactionsTrie" : "0x56e81f171bcc55a6ff8345e692c0f86e5b48e01b996cadc001622fb5e363b421",
            "uncleHash" : "0x1dcc4de8dec75d7aab85b567b6ccd41ad312451b948a7413f0a142fd40d49347",
            "baseFee" : "0x0b"
        },
        "pre" : {
            "0x1000000000000000000000000000000000000000" : {
                "balance" : "0x0de0b6b3a7640000",
                "code" : "0x6040600060406000731000000000000000000000000000000000000001620c3500f460005500",
                "nonce" : "0x00",
                "storage" : {
                }
            },
            "0x1000000000000000000000000000000000000001" : {
                "balance" : "0x00",
                "code" : "0x60406000604060006000731000000000000000000000000000000000000002620927c0f260015500",
                "nonce" : "0x00",
                "storage" : {
                }
            },
            "0x1000000000000000000000000000000000000002" : {
                "balance" : "0x00",
                "code" : "0x6040600060406000600073100000000000000000000000000000000000000362061a80f26002556001600b5500",
                "nonce" : "0x00",
                "storage" : {
                }
            },
            "0x1000000000000000000000000000000000000003" : {
                "balance" : "0x00",
                "code" : "0x6001600355622fffff60002000",
                "nonce" : "0x00",
                "storage" : {
                }
            },
            "0xa94f5374fce5edbc8e2a8697c15331677e6ebf0b" : {
                "balance" : "0x0de0b6b3a7640000",
                "code" : "0x",
                "nonce" : "0x00",
                "storage" : {
                }
            }
        },
        "postState" : {
            "0x1000000000000000000000000000000000000000" : {
                "code" : "0x6040600060406000731000000000000000000000000000000000000001620c3500f460005500",
                "nonce" : "0x00",
                "balance" : "0x0de0b6b3a7640000",
                "storage" : {
                    "0x00" : "0x01",
                    "0x01" : "0x01",
                    "0x0b" : "0x01"
                }
            },
            "0x1000000000000000000000000000000000000001" : {
                "code" : "0x60406000604060006000731000000000000000000000000000000000000002620927c0f260015500",
                "nonce" : "0x00",
                "balance" : "0x00",
                "storage" : {
                }
            },
            "0x1000000000000000000000000000000000000002" : {
                "code" : "0x6040600060406000600073100000000000000000000000000000000000000362061a80f26002556001600b5500",
                "nonce" : "0x00",
                "balance" : "0x00",
                "storage" : {
                }
            },
            "0x1000000000000000000000000000000000000003" : {
                "code" : "0x6001600355622fffff60002000",
                "nonce" : "0x00",
                "balance" : "0x00",
                "storage" : {
                }
            },
            "0x2adc25665018aa1fe0e6bc666dac8fc2697ff9ba" : {
                "code" : "0x",
                "nonce" : "0x00",
                "balance" : "0x1bc16d674ec80000",
                "storage" : {
                }
            },
            "0xa94f5374fce5edbc8e2a8697c15331677e6ebf0b" : {
                "code" : "0x",
                "nonce" : "0x01",
                "balance" : "0x0de0b6b3a7181a96",
                "storage" : {
                }
            }
        },
        "network" : "London",
        "sealEngine" : "NoProof",
        "lastblockhash" : "0xdb13f44950a1b9e0357e2833ceca029975b77d775864849a18e1ef1a8155a2d8",
        "genesisRLP" : "0xf901faf901f5a00000000000000000000000000000000000000000000000000000000000000000a01dcc4de8dec75d7aab85b567b6ccd41ad312451b948a7413f0a142fd40d49347942adc25665018aa1fe0e6bc666dac8fc2697ff9baa0f21b2c65de11b3636c9dd9602edd65470fe326037b64240f827863bf1753d7eea056e81f171bcc55a6ff8345e692c0f86e5b48e01b996cadc001622fb5e363b421a056e81f171bcc55a6ff8345e692c0f86e5b48e01b996cadc001622fb5e363b421b901000000000000000000000000000000000000000000000000000000000000000000000000000000000000000000000000000000000000000000000000000000000000000000000000000000000000000000000000000000000000000000000000000000000000000000000000000000000000000000000000000000000000000000000000000000000000000000000000000000000000000000000000000000000000000000000000000000000000000000000000000000000000000000000000000000000000000000000000000000000000000000000000000000000000000000000000000000000000000000000000000000000000000000000000000000000083020000808401c9c380808000a000000000000000000000000000000000000000000000000000000000000000008800000000000000000bc0c0",
        "blocks" : [
            {
                "rlp" : "0xf90262f901faa0115d053d422d190cdad240a74e67ada35b7d7fa3da055854c07dda7286c46f06a01dcc4de8dec75d7aab85b567b6ccd41ad312451b948a7413f0a142fd40d49347942adc25665018aa1fe0e6bc666dac8fc2697ff9baa0afff810990d22ec93b85d76b69f5036fa1b3be46d102d31a16cff1a035a068aaa0c8dd60985c2897fe775f0c88b53a0cef6fafa1e2295cee6e65cd8df4b9df6930a07feebdf729ab2ac9ff2578b0a5ebe4907431b7f50ff333be31419f1c6cb698d2b901000000000000000000000000000000000000000000000000000000000000000000000000000000000000000000000000000000000000000000000000000000000000000000000000000000000000000000000000000000000000000000000000000000000000000000000000000000000000000000000000000000000000000000000000000000000000000000000000000000000000000000000000000000000000000000000000000000000000000000000000000000000000000000000000000000000000000000000000000000000000000000000000000000000000000000000000000000000000000000000000000000000000000000000000000000000083020000018401c9c380830796f18203e800a000000000000000000000000000000000000000000000000000000000000000008800000000000000000af862f860800a830f424094100000000000000000000000000000000000000080801ba0878fccf1801724b1bfb5b0a67d68454b9c56fe9e3753200bc36cd66eed5636eca00dc53455b0e859433799ddbe3c16f98e70c52b6bf684992d9907dc9d1ccb03f1c0",
                "blockHeader" : {
                    "bloom" : "0x00000000000000000000000000000000000000000000000000000000000000000000000000000000000000000000000000000000000000000000000000000000000000000000000000000000000000000000000000000000000000000000000000000000000000000000000000000000000000000000000000000000000000000000000000000000000000000000000000000000000000000000000000000000000000000000000000000000000000000000000000000000000000000000000000000000000000000000000000000000000000000000000000000000000000000000000000000000000000000000000000000000000000000000000000000000",
                    "coinbase" : "0x2adc25665018aa1fe0e6bc666dac8fc2697ff9ba",
                    "difficulty" : "0x020000",
                    "extraData" : "0x00",
                    "gasLimit" : "0x01c9c380",
                    "gasUsed" : "0x0796f1",
                    "hash" : "0xdb13f44950a1b9e0357e2833ceca029975b77d775864849a18e1ef1a8155a2d8",
                    "mixHash" : "0x0000000000000000000000000000000000000000000000000000000000000000",
                    "nonce" : "0x0000000000000000",
                    "number" : "0x01",
                    "parentHash" : "0x115d053d422d190cdad240a74e67ada35b7d7fa3da055854c07dda7286c46f06",
                    "receiptTrie" : "0x7feebdf729ab2ac9ff2578b0a5ebe4907431b7f50ff333be31419f1c6cb698d2",
                    "stateRoot" : "0xafff810990d22ec93b85d76b69f5036fa1b3be46d102d31a16cff1a035a068aa",
                    "timestamp" : "0x03e8",
                    "transactionsTrie" : "0xc8dd60985c2897fe775f0c88b53a0cef6fafa1e2295cee6e65cd8df4b9df6930",
                    "uncleHash" : "0x1dcc4de8dec75d7aab85b567b6ccd41ad312451b948a7413f0a142fd40d49347",
                    "baseFee" : "0x0a"
                },
                "transactions" : [
                    {
                        "data" : "0x",
                        "gasLimit" : "0x0f4240",
                        "gasPrice" : "0x0a",
                        "nonce" : "0x00",
                        "to" : "0x1000000000000000000000000000000000000000",
                        "value" : "0x00",
                        "v" : "0x1b",
                        "r" : "0x878fccf1801724b1bfb5b0a67d68454b9c56fe9e3753200bc36cd66eed5636ec",
                        "s" : "0x0dc53455b0e859433799ddbe3c16f98e70c52b6bf684992d9907dc9d1ccb03f1"
                    }
                ],
                "uncleHeaders" : [
                ]
            }
        ]
    }
}