{
    "randomStatetest23" : {
        "_info" : {
            "comment" : "",
            "filling-rpc-server" : "evm version 1.10.4-unstable-966ee3ae-20210528",
            "filling-tool-version" : "retesteth-0.1.1-eip1559+commit.658fc3a8.Linux.g++",
            "lllcversion" : "Version: 0.5.14-develop.2021.5.18+commit.14c9d5de.mod.Linux.g++",
            "source" : "src/GeneralStateTestsFiller/stRandom/randomStatetest23Filler.json",
            "sourceHash" : "9ec38a403035309cfcd5e239c65faafbbe8ac88fd4b7eb39767b01face21bc54"
        },
        "env" : {
            "currentCoinbase" : "0x945304eb96065b2a98b57a48a06ae28d285a71b5",
            "currentDifficulty" : "0x020000",
            "currentNumber" : "0x01",
            "currentTimestamp" : "0x03e8",
            "previousHash" : "0x5e20a0453cecd065ea59c37ac63e079ee08998b6045136a8ce6635c7912ec0b6",
            "currentGasLimit" : "0x7fffffffffffffff"
        },
        "post" : {
            "Berlin" : [
                {
                    "indexes" : {
                        "data" : 0,
                        "gas" : 0,
                        "value" : 0
                    },
                    "hash" : "0x3a7b93a9f39790d7d8bbcda67d78acc2b60aa4ad9209c7aa7af00959a31b2268",
                    "txbytes" : "0xf8fb800a840430d0b294095e7baea6a6c7c4c2dfeb977efac326af552d878427cd2e4bb8957f0000000000000000000000000000000000000000000000000000000000000001427f000000000000000000000000945304eb96065b2a98b57a48a06ae28d285a71b57fffffffffffffffffffffffffffffffffffffffffffffffffffffffffffffffff7fffffffffffffffffffffffffffffffffffffffffffffffffffffffffffffffff6f89418c1076f1544315601489386c911ca0d8ff653c2308a65e09f1312d6eec48a176df24887f662a2ef466a3d3082e21afa02b60bc7ebad437209cfe764c415a7e8824c851e34ebc9bf59a7ca43fd22c1740",
                    "logs" : "0x1dcc4de8dec75d7aab85b567b6ccd41ad312451b948a7413f0a142fd40d49347"
                }
            ],
            "Istanbul" : [
                {
                    "indexes" : {
                        "data" : 0,
                        "gas" : 0,
                        "value" : 0
                    },
                    "hash" : "0x7aca00b11bf6f23bbecdcaf91b706289b01be19a611b9b408714ec70d5fbdf82",
                    "txbytes" : "0xf8fb800a840430d0b294095e7baea6a6c7c4c2dfeb977efac326af552d878427cd2e4bb8957f0000000000000000000000000000000000000000000000000000000000000001427f000000000000000000000000945304eb96065b2a98b57a48a06ae28d285a71b57fffffffffffffffffffffffffffffffffffffffffffffffffffffffffffffffff7fffffffffffffffffffffffffffffffffffffffffffffffffffffffffffffffff6f89418c1076f1544315601489386c911ca0d8ff653c2308a65e09f1312d6eec48a176df24887f662a2ef466a3d3082e21afa02b60bc7ebad437209cfe764c415a7e8824c851e34ebc9bf59a7ca43fd22c1740",
                    "logs" : "0x1dcc4de8dec75d7aab85b567b6ccd41ad312451b948a7413f0a142fd40d49347"
                }
            ],
            "London" : [
                {
                    "indexes" : {
                        "data" : 0,
                        "gas" : 0,
                        "value" : 0
                    },
                    "hash" : "0x720e5841e16286c3311ef4fd333aefdd0bd73809be8229b68f6df29f96813dc0",
                    "txbytes" : "0xf8fb800a840430d0b294095e7baea6a6c7c4c2dfeb977efac326af552d878427cd2e4bb8957f0000000000000000000000000000000000000000000000000000000000000001427f000000000000000000000000945304eb96065b2a98b57a48a06ae28d285a71b57fffffffffffffffffffffffffffffffffffffffffffffffffffffffffffffffff7fffffffffffffffffffffffffffffffffffffffffffffffffffffffffffffffff6f89418c1076f1544315601489386c911ca0d8ff653c2308a65e09f1312d6eec48a176df24887f662a2ef466a3d3082e21afa02b60bc7ebad437209cfe764c415a7e8824c851e34ebc9bf59a7ca43fd22c1740",
                    "logs" : "0x1dcc4de8dec75d7aab85b567b6ccd41ad312451b948a7413f0a142fd40d49347"
                }
            ]
        },
        "pre" : {
            "0x095e7baea6a6c7c4c2dfeb977efac326af552d87" : {
                "balance" : "0x00",
                "code" : "0x7f0000000000000000000000000000000000000000000000000000000000000001427f000000000000000000000000945304eb96065b2a98b57a48a06ae28d285a71b57fffffffffffffffffffffffffffffffffffffffffffffffffffffffffffffffff7fffffffffffffffffffffffffffffffffffffffffffffffffffffffffffffffff6f89418c1076f1544315601489386c915560005155",
                "nonce" : "0x00",
                "storage" : {
                }
            },
            "0x945304eb96065b2a98b57a48a06ae28d285a71b5" : {
                "balance" : "0x2e",
                "code" : "0x6000355415600957005b60203560003555",
                "nonce" : "0x00",
                "storage" : {
                }
            },
            "0xa94f5374fce5edbc8e2a8697c15331677e6ebf0b" : {
                "balance" : "0x0de0b6b3a7640000",
                "code" : "0x",
                "nonce" : "0x00",
                "storage" : {
                }
            }
        },
        "transaction" : {
            "data" : [
                "0x7f0000000000000000000000000000000000000000000000000000000000000001427f000000000000000000000000945304eb96065b2a98b57a48a06ae28d285a71b57fffffffffffffffffffffffffffffffffffffffffffffffffffffffffffffffff7fffffffffffffffffffffffffffffffffffffffffffffffffffffffffffffffff6f89418c1076f1544315601489386c91"
            ],
            "gasPrice" : "0x0a",
            "gasLimit" : [
                "0x0430d0b2"
            ],
            "nonce" : "0x00",
            "secretKey" : "0x45a915e4d060149eb4365960e6a7a45f334393093061116b197e3240065ff2d8",
            "to" : "0x095e7baea6a6c7c4c2dfeb977efac326af552d87",
            "value" : [
                "0x27cd2e4b"
            ]
        }
    }
}