{
    "randomStatetest154" : {
        "_info" : {
            "comment" : "",
            "filling-rpc-server" : "evm version 1.10.4-unstable-966ee3ae-20210528",
            "filling-tool-version" : "retesteth-0.1.1-eip1559+commit.658fc3a8.Linux.g++",
            "lllcversion" : "Version: 0.5.14-develop.2021.5.18+commit.14c9d5de.mod.Linux.g++",
            "source" : "src/GeneralStateTestsFiller/stRandom/randomStatetest154Filler.json",
            "sourceHash" : "0c92c91f89f98c825ff8c70c31b7d407392dd2079beaafdbcecf4478fb58875f"
        },
        "env" : {
            "currentCoinbase" : "0x945304eb96065b2a98b57a48a06ae28d285a71b5",
            "currentDifficulty" : "0x020000",
            "currentNumber" : "0x01",
            "currentTimestamp" : "0x03e8",
            "previousHash" : "0x5e20a0453cecd065ea59c37ac63e079ee08998b6045136a8ce6635c7912ec0b6",
            "currentGasLimit" : "0x7fffffffffffffff"
        },
        "post" : {
            "Berlin" : [
                {
                    "indexes" : {
                        "data" : 0,
                        "gas" : 0,
                        "value" : 0
                    },
                    "hash" : "0xa5a5a66be044fe56cd2603d47f7e941c0faba3da8ec881c165e5c450e4c8a9bd",
                    "txbytes" : "0xf9021d800a846065bf3a94095e7baea6a6c7c4c2dfeb977efac326af552d8784651c295bb901b67767cc78eeac8d9db5297bde12b635c487b138a0dd4601a9236656945997db45a668500a3ba6eac5489fca6a1a60998fdd14d1f8b6df2f71d56852c0f085c7c3ba826a746e9dce4335b97488b092df3db7c8097366963ffc1f51e7f4740935567fc404dab22917cbb1e5cf6252d6e99952a889ec687e6bcdb9b3358f2b287d5d38793a6e6105063e96947760c35c317e5798e9a5f3cfef9030ea32917ec50268953856b1eae69744b4815f4808e2bcceaa482030b32689f51807af6e6840942dae7592985e688975e0ee12dbdc39eedbf43aabc2563df850d6781ed002fe78bd48083bb42742ee243eea1ecd201eef18f00f330fee8836df1234700f5824b76290232dd1863a69ca84d2786e74eed98d42b740cc037b156dd261441220cfaf15857c6e8b6f5e1eb9aee8d63ad473477df11660ac765fa5eebfccfed05bacf2809818d01db511686cde018f146e78fee9bff3ffe90a1b54cdc57ec52b6fda22f7f81fc1d9724b375ce206d29176797f9e42c2ec1ef6b468f7f8fbdb5011c4ddcddd72a6adde7d3d077cf96f9d13893a46aaaf5acc241eabd8712b6a2deea63f6f91cf162e2d6d65579257a17d7c66e07570d11280dc991ba0128d11ade94a99802fd217d1c4eeb58d7ebe4b6361da09670c455cc3ed6a03e3a01709e6c90fe1fb4998d4feff2b392daed739e76100063dcf4c3c97d176bfcf68",
                    "logs" : "0x0bf11eee6e4cedebfd03c9c47101b46a638f7e0e3499b3b4fdfc991220d9b67c"
                }
            ],
            "Istanbul" : [
                {
                    "indexes" : {
                        "data" : 0,
                        "gas" : 0,
                        "value" : 0
                    },
                    "hash" : "0xa19e7512b8d37986fc5d62d3c5728e068bd2b84e21c524c21c60a6304626c7b4",
                    "txbytes" : "0xf9021d800a846065bf3a94095e7baea6a6c7c4c2dfeb977efac326af552d8784651c295bb901b67767cc78eeac8d9db5297bde12b635c487b138a0dd4601a9236656945997db45a668500a3ba6eac5489fca6a1a60998fdd14d1f8b6df2f71d56852c0f085c7c3ba826a746e9dce4335b97488b092df3db7c8097366963ffc1f51e7f4740935567fc404dab22917cbb1e5cf6252d6e99952a889ec687e6bcdb9b3358f2b287d5d38793a6e6105063e96947760c35c317e5798e9a5f3cfef9030ea32917ec50268953856b1eae69744b4815f4808e2bcceaa482030b32689f51807af6e6840942dae7592985e688975e0ee12dbdc39eedbf43aabc2563df850d6781ed002fe78bd48083bb42742ee243eea1ecd201eef18f00f330fee8836df1234700f5824b76290232dd1863a69ca84d2786e74eed98d42b740cc037b156dd261441220cfaf15857c6e8b6f5e1eb9aee8d63ad473477df11660ac765fa5eebfccfed05bacf2809818d01db511686cde018f146e78fee9bff3ffe90a1b54cdc57ec52b6fda22f7f81fc1d9724b375ce206d29176797f9e42c2ec1ef6b468f7f8fbdb5011c4ddcddd72a6adde7d3d077cf96f9d13893a46aaaf5acc241eabd8712b6a2deea63f6f91cf162e2d6d65579257a17d7c66e07570d11280dc991ba0128d11ade94a99802fd217d1c4eeb58d7ebe4b6361da09670c455cc3ed6a03e3a01709e6c90fe1fb4998d4feff2b392daed739e76100063dcf4c3c97d176bfcf68",
                    "logs" : "0x08ad2e3363364c68a755bcce8e7c5088a2112b9ea2b0251a639a0a286f4fb46f"
                }
            ],
            "London" : [
                {
                    "indexes" : {
                        "data" : 0,
                        "gas" : 0,
                        "value" : 0
                    },
                    "hash" : "0x1bd6ec913d6546b1ef53d3500b2688fe6653db71abbd7456f95554136e80af90",
                    "txbytes" : "0xf9021d800a846065bf3a94095e7baea6a6c7c4c2dfeb977efac326af552d8784651c295bb901b67767cc78eeac8d9db5297bde12b635c487b138a0dd4601a9236656945997db45a668500a3ba6eac5489fca6a1a60998fdd14d1f8b6df2f71d56852c0f085c7c3ba826a746e9dce4335b97488b092df3db7c8097366963ffc1f51e7f4740935567fc404dab22917cbb1e5cf6252d6e99952a889ec687e6bcdb9b3358f2b287d5d38793a6e6105063e96947760c35c317e5798e9a5f3cfef9030ea32917ec50268953856b1eae69744b4815f4808e2bcceaa482030b32689f51807af6e6840942dae7592985e688975e0ee12dbdc39eedbf43aabc2563df850d6781ed002fe78bd48083bb42742ee243eea1ecd201eef18f00f330fee8836df1234700f5824b76290232dd1863a69ca84d2786e74eed98d42b740cc037b156dd261441220cfaf15857c6e8b6f5e1eb9aee8d63ad473477df11660ac765fa5eebfccfed05bacf2809818d01db511686cde018f146e78fee9bff3ffe90a1b54cdc57ec52b6fda22f7f81fc1d9724b375ce206d29176797f9e42c2ec1ef6b468f7f8fbdb5011c4ddcddd72a6adde7d3d077cf96f9d13893a46aaaf5acc241eabd8712b6a2deea63f6f91cf162e2d6d65579257a17d7c66e07570d11280dc991ba0128d11ade94a99802fd217d1c4eeb58d7ebe4b6361da09670c455cc3ed6a03e3a01709e6c90fe1fb4998d4feff2b392daed739e76100063dcf4c3c97d176bfcf68",
                    "logs" : "0x0bf11eee6e4cedebfd03c9c47101b46a638f7e0e3499b3b4fdfc991220d9b67c"
                }
            ]
        },
        "pre" : {
            "0x095e7baea6a6c7c4c2dfeb977efac326af552d87" : {
                "balance" : "0x00",
                "code" : "0x7db1267c8bba268d1408f7b3e269afee3fea86c5bc8aec8108fd6aaa954f5173b7d0e2328333e94698e0d570db9b316cba0adbae609d611ba1a2326004600d6005600f632de40a2773095e7baea6a6c7c4c2dfeb977efac326af552d87635c2491eef1",
                "nonce" : "0x00",
                "storage" : {
                }
            },
            "0x945304eb96065b2a98b57a48a06ae28d285a71b5" : {
                "balance" : "0x2e",
                "code" : "0x6000355415600957005b60203560003555",
                "nonce" : "0x00",
                "storage" : {
                }
            },
            "0xa94f5374fce5edbc8e2a8697c15331677e6ebf0b" : {
                "balance" : "0x0de0b6b3a7640000",
                "code" : "0x",
                "nonce" : "0x00",
                "storage" : {
                }
            }
        },
        "transaction" : {
            "data" : [
                "0x7767cc78eeac8d9db5297bde12b635c487b138a0dd4601a9236656945997db45a668500a3ba6eac5489fca6a1a60998fdd14d1f8b6df2f71d56852c0f085c7c3ba826a746e9dce4335b97488b092df3db7c8097366963ffc1f51e7f4740935567fc404dab22917cbb1e5cf6252d6e99952a889ec687e6bcdb9b3358f2b287d5d38793a6e6105063e96947760c35c317e5798e9a5f3cfef9030ea32917ec50268953856b1eae69744b4815f4808e2bcceaa482030b32689f51807af6e6840942dae7592985e688975e0ee12dbdc39eedbf43aabc2563df850d6781ed002fe78bd48083bb42742ee243eea1ecd201eef18f00f330fee8836df1234700f5824b76290232dd1863a69ca84d2786e74eed98d42b740cc037b156dd261441220cfaf15857c6e8b6f5e1eb9aee8d63ad473477df11660ac765fa5eebfccfed05bacf2809818d01db511686cde018f146e78fee9bff3ffe90a1b54cdc57ec52b6fda22f7f81fc1d9724b375ce206d29176797f9e42c2ec1ef6b468f7f8fbdb5011c4ddcddd72a6adde7d3d077cf96f9d13893a46aaaf5acc241eabd8712b6a2deea63f6f91cf162e2d6d65579257a17d7c66e07570d11280dc99"
            ],
            "gasPrice" : "0x0a",
            "gasLimit" : [
                "0x6065bf3a"
            ],
            "nonce" : "0x00",
            "secretKey" : "0x45a915e4d060149eb4365960e6a7a45f334393093061116b197e3240065ff2d8",
            "to" : "0x095e7baea6a6c7c4c2dfeb977efac326af552d87",
            "value" : [
                "0x651c295b"
            ]
        }
    }
}