{
    "randomStatetest117" : {
        "_info" : {
            "comment" : "",
            "filling-rpc-server" : "evm version 1.10.4-unstable-966ee3ae-20210528",
            "filling-tool-version" : "retesteth-0.1.1-eip1559+commit.658fc3a8.Linux.g++",
            "lllcversion" : "Version: 0.5.14-develop.2021.5.18+commit.14c9d5de.mod.Linux.g++",
            "source" : "src/GeneralStateTestsFiller/stRandom/randomStatetest117Filler.json",
            "sourceHash" : "37b4b69f9d140cc641e1e6d318a7529424ec291885e44b0a208754f71e57c25a"
        },
        "env" : {
            "currentCoinbase" : "0x945304eb96065b2a98b57a48a06ae28d285a71b5",
            "currentDifficulty" : "0x020000",
            "currentNumber" : "0x01",
            "currentTimestamp" : "0x03e8",
            "previousHash" : "0x5e20a0453cecd065ea59c37ac63e079ee08998b6045136a8ce6635c7912ec0b6",
            "currentGasLimit" : "0x7fffffffffffffff"
        },
        "post" : {
            "Berlin" : [
                {
                    "indexes" : {
                        "data" : 0,
                        "gas" : 0,
                        "value" : 0
                    },
                    "hash" : "0x16c1d1afc734e8cc2a90beea791bf4831d5ad9df2c0d83ac9935f147bac4b47b",
                    "txbytes" : "0xf8fc800a84195dc83994095e7baea6a6c7c4c2dfeb977efac326af552d8784691ac7a4b896447f00000000000000000000000000000000000000000000000000000000000000017f000000000000000000000000945304eb96065b2a98b57a48a06ae28d285a71b5427f000000000000000000000000ffffffffffffffffffffffffffffffffffffffff7f00000000000000000000000100000000000000000000000000000000000000006f8aa4a4980274f18c6158368d4157141ca0077f41f3ea87ef2df9105c950a0e47305d332fc0424a449cc2f81e113c7d10a8a041da13d612a1809ba8696bc92ac329c1a03bdb10a20df4695a7ff0847314c17f",
                    "logs" : "0x1dcc4de8dec75d7aab85b567b6ccd41ad312451b948a7413f0a142fd40d49347"
                }
            ],
            "Istanbul" : [
                {
                    "indexes" : {
                        "data" : 0,
                        "gas" : 0,
                        "value" : 0
                    },
                    "hash" : "0x1509e351903adcf08cf403570eae11a9e4f993a8231d37f0d13acb9753ac05c2",
                    "txbytes" : "0xf8fc800a84195dc83994095e7baea6a6c7c4c2dfeb977efac326af552d8784691ac7a4b896447f00000000000000000000000000000000000000000000000000000000000000017f000000000000000000000000945304eb96065b2a98b57a48a06ae28d285a71b5427f000000000000000000000000ffffffffffffffffffffffffffffffffffffffff7f00000000000000000000000100000000000000000000000000000000000000006f8aa4a4980274f18c6158368d4157141ca0077f41f3ea87ef2df9105c950a0e47305d332fc0424a449cc2f81e113c7d10a8a041da13d612a1809ba8696bc92ac329c1a03bdb10a20df4695a7ff0847314c17f",
                    "logs" : "0x1dcc4de8dec75d7aab85b567b6ccd41ad312451b948a7413f0a142fd40d49347"
                }
            ],
            "London" : [
                {
                    "indexes" : {
                        "data" : 0,
                        "gas" : 0,
                        "value" : 0
                    },
                    "hash" : "0xf913987c4475bec2244991303a40bdca112747f4a06d7e923757411e47f9b7c8",
                    "txbytes" : "0xf8fc800a84195dc83994095e7baea6a6c7c4c2dfeb977efac326af552d8784691ac7a4b896447f00000000000000000000000000000000000000000000000000000000000000017f000000000000000000000000945304eb96065b2a98b57a48a06ae28d285a71b5427f000000000000000000000000ffffffffffffffffffffffffffffffffffffffff7f00000000000000000000000100000000000000000000000000000000000000006f8aa4a4980274f18c6158368d4157141ca0077f41f3ea87ef2df9105c950a0e47305d332fc0424a449cc2f81e113c7d10a8a041da13d612a1809ba8696bc92ac329c1a03bdb10a20df4695a7ff0847314c17f",
                    "logs" : "0x1dcc4de8dec75d7aab85b567b6ccd41ad312451b948a7413f0a142fd40d49347"
                }
            ]
        },
        "pre" : {
            "0x095e7baea6a6c7c4c2dfeb977efac326af552d87" : {
                "balance" : "0x00",
                "code" : "0x447f00000000000000000000000000000000000000000000000000000000000000017f000000000000000000000000945304eb96065b2a98b57a48a06ae28d285a71b5427f000000000000000000000000ffffffffffffffffffffffffffffffffffffffff7f00000000000000000000000100000000000000000000000000000000000000006f8aa4a4980274f18c6158368d4157145560005155",
                "nonce" : "0x00",
                "storage" : {
                }
            },
            "0x945304eb96065b2a98b57a48a06ae28d285a71b5" : {
                "balance" : "0x2e",
                "code" : "0x6000355415600957005b60203560003555",
                "nonce" : "0x00",
                "storage" : {
                }
            },
            "0xa94f5374fce5edbc8e2a8697c15331677e6ebf0b" : {
                "balance" : "0x0de0b6b3a7640000",
                "code" : "0x",
                "nonce" : "0x00",
                "storage" : {
                }
            }
        },
        "transaction" : {
            "data" : [
                "0x447f00000000000000000000000000000000000000000000000000000000000000017f000000000000000000000000945304eb96065b2a98b57a48a06ae28d285a71b5427f000000000000000000000000ffffffffffffffffffffffffffffffffffffffff7f00000000000000000000000100000000000000000000000000000000000000006f8aa4a4980274f18c6158368d415714"
            ],
            "gasPrice" : "0x0a",
            "gasLimit" : [
                "0x195dc839"
            ],
            "nonce" : "0x00",
            "secretKey" : "0x45a915e4d060149eb4365960e6a7a45f334393093061116b197e3240065ff2d8",
            "to" : "0x095e7baea6a6c7c4c2dfeb977efac326af552d87",
            "value" : [
                "0x691ac7a4"
            ]
        }
    }
}