{
    "randomStatetest60" : {
        "_info" : {
            "comment" : "",
            "filling-rpc-server" : "evm version 1.10.4-unstable-966ee3ae-20210528",
            "filling-tool-version" : "retesteth-0.1.1-eip1559+commit.658fc3a8.Linux.g++",
            "lllcversion" : "Version: 0.5.14-develop.2021.5.18+commit.14c9d5de.mod.Linux.g++",
            "source" : "src/GeneralStateTestsFiller/stRandom/randomStatetest60Filler.json",
            "sourceHash" : "3ea1e8baef9d5f5723204c7ece602a91148f3880e77bee58be51f62c54e7f592"
        },
        "env" : {
            "currentCoinbase" : "0x945304eb96065b2a98b57a48a06ae28d285a71b5",
            "currentDifficulty" : "0x020000",
            "currentNumber" : "0x01",
            "currentTimestamp" : "0x03e8",
            "previousHash" : "0x5e20a0453cecd065ea59c37ac63e079ee08998b6045136a8ce6635c7912ec0b6",
            "currentGasLimit" : "0x7fffffffffffffff"
        },
        "post" : {
            "Berlin" : [
                {
                    "indexes" : {
                        "data" : 0,
                        "gas" : 0,
                        "value" : 0
                    },
                    "hash" : "0xc2a937cccb4613eb5217f24860a1bc38bb9a1a07ebf2707543bbb60c1709f83a",
                    "txbytes" : "0xf8fd800a8446dc0e0794095e7baea6a6c7c4c2dfeb977efac326af552d878454de1eafb897427f0000000000000000000000000000000000000000000000000000000000000000427f000000000000000000000000ffffffffffffffffffffffffffffffffffffffff437f000000000000000000000000000000000000000000000000000000000000c3507ffffffffffffffffffffffffffffffffffffffffffffffffffffffffffffffffe6f969001091aa15b8b9b75459d015a041ba0c4f4ebcd5e3864fa52eeb5063ef8622f3acc79a94da0e276e0d8415bc73ca658a07ee2b2d3cad3358f6ddf796482bbae41d78e38f7067b9fa3fdcae9fb1e7c4927",
                    "logs" : "0x1dcc4de8dec75d7aab85b567b6ccd41ad312451b948a7413f0a142fd40d49347"
                }
            ],
            "Istanbul" : [
                {
                    "indexes" : {
                        "data" : 0,
                        "gas" : 0,
                        "value" : 0
                    },
                    "hash" : "0xdba2d2899e787b1574bd336c1fd5f20a643ea31a1087f821d7a19aff17e81dbe",
                    "txbytes" : "0xf8fd800a8446dc0e0794095e7baea6a6c7c4c2dfeb977efac326af552d878454de1eafb897427f0000000000000000000000000000000000000000000000000000000000000000427f000000000000000000000000ffffffffffffffffffffffffffffffffffffffff437f000000000000000000000000000000000000000000000000000000000000c3507ffffffffffffffffffffffffffffffffffffffffffffffffffffffffffffffffe6f969001091aa15b8b9b75459d015a041ba0c4f4ebcd5e3864fa52eeb5063ef8622f3acc79a94da0e276e0d8415bc73ca658a07ee2b2d3cad3358f6ddf796482bbae41d78e38f7067b9fa3fdcae9fb1e7c4927",
                    "logs" : "0x1dcc4de8dec75d7aab85b567b6ccd41ad312451b948a7413f0a142fd40d49347"
                }
            ],
            "London" : [
                {
                    "indexes" : {
                        "data" : 0,
                        "gas" : 0,
                        "value" : 0
                    },
                    "hash" : "0x6fb836c281d4f61a04c5c83f626a7a27a9dd07bfb33ae2bab7f2ea6415c057b5",
                    "txbytes" : "0xf8fd800a8446dc0e0794095e7baea6a6c7c4c2dfeb977efac326af552d878454de1eafb897427f0000000000000000000000000000000000000000000000000000000000000000427f000000000000000000000000ffffffffffffffffffffffffffffffffffffffff437f000000000000000000000000000000000000000000000000000000000000c3507ffffffffffffffffffffffffffffffffffffffffffffffffffffffffffffffffe6f969001091aa15b8b9b75459d015a041ba0c4f4ebcd5e3864fa52eeb5063ef8622f3acc79a94da0e276e0d8415bc73ca658a07ee2b2d3cad3358f6ddf796482bbae41d78e38f7067b9fa3fdcae9fb1e7c4927",
                    "logs" : "0x1dcc4de8dec75d7aab85b567b6ccd41ad312451b948a7413f0a142fd40d49347"
                }
            ]
        },
        "pre" : {
            "0x095e7baea6a6c7c4c2dfeb977efac326af552d87" : {
                "balance" : "0x00",
                "code" : "0x427f0000000000000000000000000000000000000000000000000000000000000000427f000000000000000000000000ffffffffffffffffffffffffffffffffffffffff437f000000000000000000000000000000000000000000000000000000000000c3507ffffffffffffffffffffffffffffffffffffffffffffffffffffffffffffffffe6f969001091aa15b8b9b75459d015a045560005155",
                "nonce" : "0x00",
                "storage" : {
                }
            },
            "0x945304eb96065b2a98b57a48a06ae28d285a71b5" : {
                "balance" : "0x2e",
                "code" : "0x6000355415600957005b60203560003555",
                "nonce" : "0x00",
                "storage" : {
                }
            },
            "0xa94f5374fce5edbc8e2a8697c15331677e6ebf0b" : {
                "balance" : "0x0de0b6b3a7640000",
                "code" : "0x",
                "nonce" : "0x00",
                "storage" : {
                }
            }
        },
        "transaction" : {
            "data" : [
                "0x427f0000000000000000000000000000000000000000000000000000000000000000427f000000000000000000000000ffffffffffffffffffffffffffffffffffffffff437f000000000000000000000000000000000000000000000000000000000000c3507ffffffffffffffffffffffffffffffffffffffffffffffffffffffffffffffffe6f969001091aa15b8b9b75459d015a04"
            ],
            "gasPrice" : "0x0a",
            "gasLimit" : [
                "0x46dc0e07"
            ],
            "nonce" : "0x00",
            "secretKey" : "0x45a915e4d060149eb4365960e6a7a45f334393093061116b197e3240065ff2d8",
            "to" : "0x095e7baea6a6c7c4c2dfeb977efac326af552d87",
            "value" : [
                "0x54de1eaf"
            ]
        }
    }
}