{
    "randomStatetest135" : {
        "_info" : {
            "comment" : "",
            "filling-rpc-server" : "evm version 1.10.4-unstable-966ee3ae-20210528",
            "filling-tool-version" : "retesteth-0.1.1-eip1559+commit.658fc3a8.Linux.g++",
            "lllcversion" : "Version: 0.5.14-develop.2021.5.18+commit.14c9d5de.mod.Linux.g++",
            "source" : "src/GeneralStateTestsFiller/stRandom/randomStatetest135Filler.json",
            "sourceHash" : "9f71c1baa6df82245e8faf04e2bdf0862b1e573ee0d0e781dca7771d27f24aa6"
        },
        "env" : {
            "currentCoinbase" : "0x945304eb96065b2a98b57a48a06ae28d285a71b5",
            "currentDifficulty" : "0x020000",
            "currentNumber" : "0x01",
            "currentTimestamp" : "0x03e8",
            "previousHash" : "0x5e20a0453cecd065ea59c37ac63e079ee08998b6045136a8ce6635c7912ec0b6",
            "currentGasLimit" : "0x7fffffffffffffff"
        },
        "post" : {
            "Berlin" : [
                {
                    "indexes" : {
                        "data" : 0,
                        "gas" : 0,
                        "value" : 0
                    },
                    "hash" : "0xfa17186a271b84c9633f76c431e690da8e96d4d51020a402be25dcee556dd47a",
                    "txbytes" : "0xf9015b800a8443b3081d94095e7baea6a6c7c4c2dfeb977efac326af552d8784625b8cefb8f57f000000000000000000000000000000000000000000000000000000000000c3507f0000000000000000000000010000000000000000000000000000000000000000417f00000000000000000000000000000000000000000000000000000000000000007f000000000000000000000000945304eb96065b2a98b57a48a06ae28d285a71b57f00000000000000000000000000000000000000000000000000000000000000007f000000000000000000000000ffffffffffffffffffffffffffffffffffffffff7ffffffffffffffffffffffffffffffffffffffffffffffffffffffffffffffffff0075a0b6431921866301687041ba0b1a0629b9eb35ad5ec7bba948820a37278d5d2375dc6c4438d33b64b2a6804dba06f43ff327006e2572a14db48d70bb6d5456444e008d1a6898236e0b34449b253",
                    "logs" : "0x1dcc4de8dec75d7aab85b567b6ccd41ad312451b948a7413f0a142fd40d49347"
                }
            ],
            "Istanbul" : [
                {
                    "indexes" : {
                        "data" : 0,
                        "gas" : 0,
                        "value" : 0
                    },
                    "hash" : "0xfa17186a271b84c9633f76c431e690da8e96d4d51020a402be25dcee556dd47a",
                    "txbytes" : "0xf9015b800a8443b3081d94095e7baea6a6c7c4c2dfeb977efac326af552d8784625b8cefb8f57f000000000000000000000000000000000000000000000000000000000000c3507f0000000000000000000000010000000000000000000000000000000000000000417f00000000000000000000000000000000000000000000000000000000000000007f000000000000000000000000945304eb96065b2a98b57a48a06ae28d285a71b57f00000000000000000000000000000000000000000000000000000000000000007f000000000000000000000000ffffffffffffffffffffffffffffffffffffffff7ffffffffffffffffffffffffffffffffffffffffffffffffffffffffffffffffff0075a0b6431921866301687041ba0b1a0629b9eb35ad5ec7bba948820a37278d5d2375dc6c4438d33b64b2a6804dba06f43ff327006e2572a14db48d70bb6d5456444e008d1a6898236e0b34449b253",
                    "logs" : "0x1dcc4de8dec75d7aab85b567b6ccd41ad312451b948a7413f0a142fd40d49347"
                }
            ],
            "London" : [
                {
                    "indexes" : {
                        "data" : 0,
                        "gas" : 0,
                        "value" : 0
                    },
                    "hash" : "0x993c5361048a078e04c6a11b5de2b96bcf903f4443d30dff6874d7470f2fbffb",
                    "txbytes" : "0xf9015b800a8443b3081d94095e7baea6a6c7c4c2dfeb977efac326af552d8784625b8cefb8f57f000000000000000000000000000000000000000000000000000000000000c3507f0000000000000000000000010000000000000000000000000000000000000000417f00000000000000000000000000000000000000000000000000000000000000007f000000000000000000000000945304eb96065b2a98b57a48a06ae28d285a71b57f00000000000000000000000000000000000000000000000000000000000000007f000000000000000000000000ffffffffffffffffffffffffffffffffffffffff7ffffffffffffffffffffffffffffffffffffffffffffffffffffffffffffffffff0075a0b6431921866301687041ba0b1a0629b9eb35ad5ec7bba948820a37278d5d2375dc6c4438d33b64b2a6804dba06f43ff327006e2572a14db48d70bb6d5456444e008d1a6898236e0b34449b253",
                    "logs" : "0x1dcc4de8dec75d7aab85b567b6ccd41ad312451b948a7413f0a142fd40d49347"
                }
            ]
        },
        "pre" : {
            "0x095e7baea6a6c7c4c2dfeb977efac326af552d87" : {
                "balance" : "0x00",
                "code" : "0x7f000000000000000000000000000000000000000000000000000000000000c3507f0000000000000000000000010000000000000000000000000000000000000000417f00000000000000000000000000000000000000000000000000000000000000007f000000000000000000000000945304eb96065b2a98b57a48a06ae28d285a71b57f00000000000000000000000000000000000000000000000000000000000000007f000000000000000000000000ffffffffffffffffffffffffffffffffffffffff7ffffffffffffffffffffffffffffffffffffffffffffffffffffffffffffffffff0075a0b64319218663016870455",
                "nonce" : "0x00",
                "storage" : {
                }
            },
            "0x945304eb96065b2a98b57a48a06ae28d285a71b5" : {
                "balance" : "0x2e",
                "code" : "0x6000355415600957005b60203560003555",
                "nonce" : "0x00",
                "storage" : {
                }
            },
            "0xa94f5374fce5edbc8e2a8697c15331677e6ebf0b" : {
                "balance" : "0x0de0b6b3a7640000",
                "code" : "0x",
                "nonce" : "0x00",
                "storage" : {
                }
            }
        },
        "transaction" : {
            "data" : [
                "0x7f000000000000000000000000000000000000000000000000000000000000c3507f0000000000000000000000010000000000000000000000000000000000000000417f00000000000000000000000000000000000000000000000000000000000000007f000000000000000000000000945304eb96065b2a98b57a48a06ae28d285a71b57f00000000000000000000000000000000000000000000000000000000000000007f000000000000000000000000ffffffffffffffffffffffffffffffffffffffff7ffffffffffffffffffffffffffffffffffffffffffffffffffffffffffffffffff0075a0b643192186630168704"
            ],
            "gasPrice" : "0x0a",
            "gasLimit" : [
                "0x43b3081d"
            ],
            "nonce" : "0x00",
            "secretKey" : "0x45a915e4d060149eb4365960e6a7a45f334393093061116b197e3240065ff2d8",
            "to" : "0x095e7baea6a6c7c4c2dfeb977efac326af552d87",
            "value" : [
                "0x625b8cef"
            ]
        }
    }
}