{
    "randomStatetest41" : {
        "_info" : {
            "comment" : "",
            "filling-rpc-server" : "evm version 1.10.4-unstable-966ee3ae-20210528",
            "filling-tool-version" : "retesteth-0.1.1-eip1559+commit.658fc3a8.Linux.g++",
            "lllcversion" : "Version: 0.5.14-develop.2021.5.18+commit.14c9d5de.mod.Linux.g++",
            "source" : "src/GeneralStateTestsFiller/stRandom/randomStatetest41Filler.json",
            "sourceHash" : "d5b5d3b93edc56244cfd5cda60b9a029b3b267ae69395be25b0a30448960a14a"
        },
        "env" : {
            "currentCoinbase" : "0x945304eb96065b2a98b57a48a06ae28d285a71b5",
            "currentDifficulty" : "0x020000",
            "currentNumber" : "0x01",
            "currentTimestamp" : "0x03e8",
            "previousHash" : "0x5e20a0453cecd065ea59c37ac63e079ee08998b6045136a8ce6635c7912ec0b6",
            "currentGasLimit" : "0x7fffffffffffffff"
        },
        "post" : {
            "Berlin" : [
                {
                    "indexes" : {
                        "data" : 0,
                        "gas" : 0,
                        "value" : 0
                    },
                    "hash" : "0x19e21280bde584532bce964b5754edd466bee7088cd22023295f419379693d0a",
                    "txbytes" : "0xf9013c800a843cd14fc194095e7baea6a6c7c4c2dfeb977efac326af552d878404ade804b8d67f000000000000000000000000945304eb96065b2a98b57a48a06ae28d285a71b57f000000000000000000000000945304eb96065b2a98b57a48a06ae28d285a71b57f000000000000000000000000ffffffffffffffffffffffffffffffffffffffff7f000000000000000000000000000000000000000000000000000000000000c350517f0000000000000000000000010000000000000000000000000000000000000000417f000000000000000000000000945304eb96065b2a98b57a48a06ae28d285a71b56a84a10719a1786a6510349b02821ba08ab1c63d4422ee53730f899c3999783b445265232e5679f2acc53d8e21282224a05c176397e01b1a2b2352460a49c3abf21baee4f725e7de6e579ba258bd774c85",
                    "logs" : "0x1dcc4de8dec75d7aab85b567b6ccd41ad312451b948a7413f0a142fd40d49347"
                }
            ],
            "Istanbul" : [
                {
                    "indexes" : {
                        "data" : 0,
                        "gas" : 0,
                        "value" : 0
                    },
                    "hash" : "0xc9ce76748f990008bb52aac139f53f5dc7eb70f5a4c3945dba155a36afccb700",
                    "txbytes" : "0xf9013c800a843cd14fc194095e7baea6a6c7c4c2dfeb977efac326af552d878404ade804b8d67f000000000000000000000000945304eb96065b2a98b57a48a06ae28d285a71b57f000000000000000000000000945304eb96065b2a98b57a48a06ae28d285a71b57f000000000000000000000000ffffffffffffffffffffffffffffffffffffffff7f000000000000000000000000000000000000000000000000000000000000c350517f0000000000000000000000010000000000000000000000000000000000000000417f000000000000000000000000945304eb96065b2a98b57a48a06ae28d285a71b56a84a10719a1786a6510349b02821ba08ab1c63d4422ee53730f899c3999783b445265232e5679f2acc53d8e21282224a05c176397e01b1a2b2352460a49c3abf21baee4f725e7de6e579ba258bd774c85",
                    "logs" : "0x1dcc4de8dec75d7aab85b567b6ccd41ad312451b948a7413f0a142fd40d49347"
                }
            ],
            "London" : [
                {
                    "indexes" : {
                        "data" : 0,
                        "gas" : 0,
                        "value" : 0
                    },
                    "hash" : "0xe4aefef3b7dd112158e1d5bd107251fb8b5a78463216d06de53cb95262d19175",
                    "txbytes" : "0xf9013c800a843cd14fc194095e7baea6a6c7c4c2dfeb977efac326af552d878404ade804b8d67f000000000000000000000000945304eb96065b2a98b57a48a06ae28d285a71b57f000000000000000000000000945304eb96065b2a98b57a48a06ae28d285a71b57f000000000000000000000000ffffffffffffffffffffffffffffffffffffffff7f000000000000000000000000000000000000000000000000000000000000c350517f0000000000000000000000010000000000000000000000000000000000000000417f000000000000000000000000945304eb96065b2a98b57a48a06ae28d285a71b56a84a10719a1786a6510349b02821ba08ab1c63d4422ee53730f899c3999783b445265232e5679f2acc53d8e21282224a05c176397e01b1a2b2352460a49c3abf21baee4f725e7de6e579ba258bd774c85",
                    "logs" : "0x1dcc4de8dec75d7aab85b567b6ccd41ad312451b948a7413f0a142fd40d49347"
                }
            ]
        },
        "pre" : {
            "0x095e7baea6a6c7c4c2dfeb977efac326af552d87" : {
                "balance" : "0x00",
                "code" : "0x7f000000000000000000000000945304eb96065b2a98b57a48a06ae28d285a71b57f000000000000000000000000945304eb96065b2a98b57a48a06ae28d285a71b57f000000000000000000000000ffffffffffffffffffffffffffffffffffffffff7f000000000000000000000000000000000000000000000000000000000000c350517f0000000000000000000000010000000000000000000000000000000000000000417f000000000000000000000000945304eb96065b2a98b57a48a06ae28d285a71b56a84a10719a1786a6510349b028255",
                "nonce" : "0x00",
                "storage" : {
                }
            },
            "0x945304eb96065b2a98b57a48a06ae28d285a71b5" : {
                "balance" : "0x2e",
                "code" : "0x6000355415600957005b60203560003555",
                "nonce" : "0x00",
                "storage" : {
                }
            },
            "0xa94f5374fce5edbc8e2a8697c15331677e6ebf0b" : {
                "balance" : "0x0de0b6b3a7640000",
                "code" : "0x",
                "nonce" : "0x00",
                "storage" : {
                }
            }
        },
        "transaction" : {
            "data" : [
                "0x7f000000000000000000000000945304eb96065b2a98b57a48a06ae28d285a71b57f000000000000000000000000945304eb96065b2a98b57a48a06ae28d285a71b57f000000000000000000000000ffffffffffffffffffffffffffffffffffffffff7f000000000000000000000000000000000000000000000000000000000000c350517f0000000000000000000000010000000000000000000000000000000000000000417f000000000000000000000000945304eb96065b2a98b57a48a06ae28d285a71b56a84a10719a1786a6510349b0282"
            ],
            "gasPrice" : "0x0a",
            "gasLimit" : [
                "0x3cd14fc1"
            ],
            "nonce" : "0x00",
            "secretKey" : "0x45a915e4d060149eb4365960e6a7a45f334393093061116b197e3240065ff2d8",
            "to" : "0x095e7baea6a6c7c4c2dfeb977efac326af552d87",
            "value" : [
                "0x04ade804"
            ]
        }
    }
}