{
    "randomStatetest281" : {
        "_info" : {
            "comment" : "",
            "filling-rpc-server" : "evm version 1.10.4-unstable-966ee3ae-20210528",
            "filling-tool-version" : "retesteth-0.1.1-eip1559+commit.658fc3a8.Linux.g++",
            "lllcversion" : "Version: 0.5.14-develop.2021.5.18+commit.14c9d5de.mod.Linux.g++",
            "source" : "src/GeneralStateTestsFiller/stRandom/randomStatetest281Filler.json",
            "sourceHash" : "37d87d6094fb0ff241702d229cf17cca4bd4d3f8687df8b3c54f633b984a7905"
        },
        "env" : {
            "currentCoinbase" : "0x945304eb96065b2a98b57a48a06ae28d285a71b5",
            "currentDifficulty" : "0x020000",
            "currentNumber" : "0x01",
            "currentTimestamp" : "0x03e8",
            "previousHash" : "0x5e20a0453cecd065ea59c37ac63e079ee08998b6045136a8ce6635c7912ec0b6",
            "currentGasLimit" : "0x7fffffffffffffff"
        },
        "post" : {
            "Berlin" : [
                {
                    "indexes" : {
                        "data" : 0,
                        "gas" : 0,
                        "value" : 0
                    },
                    "hash" : "0x7fdcfcfd0f8df858fa693263b78502690d3f19bab3f30830aee0866e3c800b15",
                    "txbytes" : "0xf8fd800a840f3fa3a994095e7baea6a6c7c4c2dfeb977efac326af552d8784662e647cb8977f000000000000000000000000945304eb96065b2a98b57a48a06ae28d285a71b57f000000000000000000000000945304eb96065b2a98b57a48a06ae28d285a71b5457f000000000000000000000000000000000000000000000000000000000000c350417f00000000000000000000000000000000000000000000000000000000000000016f649a7a3457645670a27fa170639718a21ca0bd52cf19d3424664b2aaa1628a4935c86012761fc33586483990215749dec0a3a07c09ff0a3e0ace3f1307990a0c6603ee79c270fa94478d0be2b6d8ff7afda6fa",
                    "logs" : "0x1dcc4de8dec75d7aab85b567b6ccd41ad312451b948a7413f0a142fd40d49347"
                }
            ],
            "Istanbul" : [
                {
                    "indexes" : {
                        "data" : 0,
                        "gas" : 0,
                        "value" : 0
                    },
                    "hash" : "0x8e15aa30ee0264307d35d8e1809c9e21c81b5dabee18ba2c97899088f2213467",
                    "txbytes" : "0xf8fd800a840f3fa3a994095e7baea6a6c7c4c2dfeb977efac326af552d8784662e647cb8977f000000000000000000000000945304eb96065b2a98b57a48a06ae28d285a71b57f000000000000000000000000945304eb96065b2a98b57a48a06ae28d285a71b5457f000000000000000000000000000000000000000000000000000000000000c350417f00000000000000000000000000000000000000000000000000000000000000016f649a7a3457645670a27fa170639718a21ca0bd52cf19d3424664b2aaa1628a4935c86012761fc33586483990215749dec0a3a07c09ff0a3e0ace3f1307990a0c6603ee79c270fa94478d0be2b6d8ff7afda6fa",
                    "logs" : "0x1dcc4de8dec75d7aab85b567b6ccd41ad312451b948a7413f0a142fd40d49347"
                }
            ],
            "London" : [
                {
                    "indexes" : {
                        "data" : 0,
                        "gas" : 0,
                        "value" : 0
                    },
                    "hash" : "0x9c2ff3c3c278752a068882c057fdf6767e6da2ad6386ece508a7cf206a5e0dd5",
                    "txbytes" : "0xf8fd800a840f3fa3a994095e7baea6a6c7c4c2dfeb977efac326af552d8784662e647cb8977f000000000000000000000000945304eb96065b2a98b57a48a06ae28d285a71b57f000000000000000000000000945304eb96065b2a98b57a48a06ae28d285a71b5457f000000000000000000000000000000000000000000000000000000000000c350417f00000000000000000000000000000000000000000000000000000000000000016f649a7a3457645670a27fa170639718a21ca0bd52cf19d3424664b2aaa1628a4935c86012761fc33586483990215749dec0a3a07c09ff0a3e0ace3f1307990a0c6603ee79c270fa94478d0be2b6d8ff7afda6fa",
                    "logs" : "0x1dcc4de8dec75d7aab85b567b6ccd41ad312451b948a7413f0a142fd40d49347"
                }
            ]
        },
        "pre" : {
            "0x095e7baea6a6c7c4c2dfeb977efac326af552d87" : {
                "balance" : "0x00",
                "code" : "0x7f000000000000000000000000945304eb96065b2a98b57a48a06ae28d285a71b57f000000000000000000000000945304eb96065b2a98b57a48a06ae28d285a71b5457f000000000000000000000000000000000000000000000000000000000000c350417f00000000000000000000000000000000000000000000000000000000000000016f649a7a3457645670a27fa170639718a260005155",
                "nonce" : "0x00",
                "storage" : {
                }
            },
            "0x945304eb96065b2a98b57a48a06ae28d285a71b5" : {
                "balance" : "0x2e",
                "code" : "0x6000355415600957005b60203560003555",
                "nonce" : "0x00",
                "storage" : {
                }
            },
            "0xa94f5374fce5edbc8e2a8697c15331677e6ebf0b" : {
                "balance" : "0x0de0b6b3a7640000",
                "code" : "0x",
                "nonce" : "0x00",
                "storage" : {
                }
            }
        },
        "transaction" : {
            "data" : [
                "0x7f000000000000000000000000945304eb96065b2a98b57a48a06ae28d285a71b57f000000000000000000000000945304eb96065b2a98b57a48a06ae28d285a71b5457f000000000000000000000000000000000000000000000000000000000000c350417f00000000000000000000000000000000000000000000000000000000000000016f649a7a3457645670a27fa170639718a2"
            ],
            "gasPrice" : "0x0a",
            "gasLimit" : [
                "0x0f3fa3a9"
            ],
            "nonce" : "0x00",
            "secretKey" : "0x45a915e4d060149eb4365960e6a7a45f334393093061116b197e3240065ff2d8",
            "to" : "0x095e7baea6a6c7c4c2dfeb977efac326af552d87",
            "value" : [
                "0x662e647c"
            ]
        }
    }
}