{
    "randomStatetest254" : {
        "_info" : {
            "comment" : "",
            "filling-rpc-server" : "evm version 1.10.4-unstable-966ee3ae-20210528",
            "filling-tool-version" : "retesteth-0.1.1-eip1559+commit.658fc3a8.Linux.g++",
            "lllcversion" : "Version: 0.5.14-develop.2021.5.18+commit.14c9d5de.mod.Linux.g++",
            "source" : "src/GeneralStateTestsFiller/stRandom/randomStatetest254Filler.json",
            "sourceHash" : "2975d82df93708242a05bf8b5350745387e24ad2043af8db5171f304df09e40f"
        },
        "env" : {
            "currentCoinbase" : "0x945304eb96065b2a98b57a48a06ae28d285a71b5",
            "currentDifficulty" : "0x020000",
            "currentNumber" : "0x01",
            "currentTimestamp" : "0x03e8",
            "previousHash" : "0x5e20a0453cecd065ea59c37ac63e079ee08998b6045136a8ce6635c7912ec0b6",
            "currentGasLimit" : "0x7fffffffffffffff"
        },
        "post" : {
            "Berlin" : [
                {
                    "indexes" : {
                        "data" : 0,
                        "gas" : 0,
                        "value" : 0
                    },
                    "hash" : "0x2380c25be02f107428e004e488ca4e0c3fb9f6e1605a7aa4519916cc26ebad95",
                    "txbytes" : "0xf9011e800a846118b30294095e7baea6a6c7c4c2dfeb977efac326af552d87845c13c2ffb8b87f000000000000000000000001000000000000000000000000000000000000000041417f0000000000000000000000000000000000000000000000000000000000000001447fffffffffffffffffffffffffffffffffffffffffffffffffffffffffffffffff7ffffffffffffffffffffffffffffffffffffffffffffffffffffffffffffffffe7f000000000000000000000000000000000000000000000000000000000000c3506f059b6b83f294740688598c52195a921ba0e40135289358a66524ec6243cf55aba245d08e96dbac7ffa888705c0d345d3e0a04071011dd90544b1c8735cdf44c5975ac622387b97a6a01e5a487cd52a13d636",
                    "logs" : "0x1dcc4de8dec75d7aab85b567b6ccd41ad312451b948a7413f0a142fd40d49347"
                }
            ],
            "Istanbul" : [
                {
                    "indexes" : {
                        "data" : 0,
                        "gas" : 0,
                        "value" : 0
                    },
                    "hash" : "0xb5c7e2ce4546085be91187c263d2723c537eb8d463ba37c1b02b8d4c91bf3fb5",
                    "txbytes" : "0xf9011e800a846118b30294095e7baea6a6c7c4c2dfeb977efac326af552d87845c13c2ffb8b87f000000000000000000000001000000000000000000000000000000000000000041417f0000000000000000000000000000000000000000000000000000000000000001447fffffffffffffffffffffffffffffffffffffffffffffffffffffffffffffffff7ffffffffffffffffffffffffffffffffffffffffffffffffffffffffffffffffe7f000000000000000000000000000000000000000000000000000000000000c3506f059b6b83f294740688598c52195a921ba0e40135289358a66524ec6243cf55aba245d08e96dbac7ffa888705c0d345d3e0a04071011dd90544b1c8735cdf44c5975ac622387b97a6a01e5a487cd52a13d636",
                    "logs" : "0x1dcc4de8dec75d7aab85b567b6ccd41ad312451b948a7413f0a142fd40d49347"
                }
            ],
            "London" : [
                {
                    "indexes" : {
                        "data" : 0,
                        "gas" : 0,
                        "value" : 0
                    },
                    "hash" : "0x7911d718e629b7edf10557bf7c724bdf21d346365797f3833251127344959b5e",
                    "txbytes" : "0xf9011e800a846118b30294095e7baea6a6c7c4c2dfeb977efac326af552d87845c13c2ffb8b87f000000000000000000000001000000000000000000000000000000000000000041417f0000000000000000000000000000000000000000000000000000000000000001447fffffffffffffffffffffffffffffffffffffffffffffffffffffffffffffffff7ffffffffffffffffffffffffffffffffffffffffffffffffffffffffffffffffe7f000000000000000000000000000000000000000000000000000000000000c3506f059b6b83f294740688598c52195a921ba0e40135289358a66524ec6243cf55aba245d08e96dbac7ffa888705c0d345d3e0a04071011dd90544b1c8735cdf44c5975ac622387b97a6a01e5a487cd52a13d636",
                    "logs" : "0x1dcc4de8dec75d7aab85b567b6ccd41ad312451b948a7413f0a142fd40d49347"
                }
            ]
        },
        "pre" : {
            "0x095e7baea6a6c7c4c2dfeb977efac326af552d87" : {
                "balance" : "0x00",
                "code" : "0x7f000000000000000000000001000000000000000000000000000000000000000041417f0000000000000000000000000000000000000000000000000000000000000001447fffffffffffffffffffffffffffffffffffffffffffffffffffffffffffffffff7ffffffffffffffffffffffffffffffffffffffffffffffffffffffffffffffffe7f000000000000000000000000000000000000000000000000000000000000c3506f059b6b83f294740688598c52195a925560005155",
                "nonce" : "0x00",
                "storage" : {
                }
            },
            "0x945304eb96065b2a98b57a48a06ae28d285a71b5" : {
                "balance" : "0x2e",
                "code" : "0x6000355415600957005b60203560003555",
                "nonce" : "0x00",
                "storage" : {
                }
            },
            "0xa94f5374fce5edbc8e2a8697c15331677e6ebf0b" : {
                "balance" : "0x0de0b6b3a7640000",
                "code" : "0x",
                "nonce" : "0x00",
                "storage" : {
                }
            }
        },
        "transaction" : {
            "data" : [
                "0x7f000000000000000000000001000000000000000000000000000000000000000041417f0000000000000000000000000000000000000000000000000000000000000001447fffffffffffffffffffffffffffffffffffffffffffffffffffffffffffffffff7ffffffffffffffffffffffffffffffffffffffffffffffffffffffffffffffffe7f000000000000000000000000000000000000000000000000000000000000c3506f059b6b83f294740688598c52195a92"
            ],
            "gasPrice" : "0x0a",
            "gasLimit" : [
                "0x6118b302"
            ],
            "nonce" : "0x00",
            "secretKey" : "0x45a915e4d060149eb4365960e6a7a45f334393093061116b197e3240065ff2d8",
            "to" : "0x095e7baea6a6c7c4c2dfeb977efac326af552d87",
            "value" : [
                "0x5c13c2ff"
            ]
        }
    }
}