{
    "randomStatetest88" : {
        "_info" : {
            "comment" : "",
            "filling-rpc-server" : "evm version 1.10.4-unstable-966ee3ae-20210528",
            "filling-tool-version" : "retesteth-0.1.1-eip1559+commit.658fc3a8.Linux.g++",
            "lllcversion" : "Version: 0.5.14-develop.2021.5.18+commit.14c9d5de.mod.Linux.g++",
            "source" : "src/GeneralStateTestsFiller/stRandom/randomStatetest88Filler.json",
            "sourceHash" : "dfc9f7ffdc59158141f49c896406d31df1c9963c0f40ed7f400e088489b271f1"
        },
        "env" : {
            "currentCoinbase" : "0x945304eb96065b2a98b57a48a06ae28d285a71b5",
            "currentDifficulty" : "0x020000",
            "currentNumber" : "0x01",
            "currentTimestamp" : "0x03e8",
            "previousHash" : "0x5e20a0453cecd065ea59c37ac63e079ee08998b6045136a8ce6635c7912ec0b6",
            "currentGasLimit" : "0x7fffffffffffffff"
        },
        "post" : {
            "Berlin" : [
                {
                    "indexes" : {
                        "data" : 0,
                        "gas" : 0,
                        "value" : 0
                    },
                    "hash" : "0x8e48ff3e31558cf54e438ad052bf5b08d7fd450e4d4cdea9c4200df2de7f532c",
                    "txbytes" : "0xf8fe800a843274418994095e7baea6a6c7c4c2dfeb977efac326af552d87843e996cb5b8987f000000000000000000000000945304eb96065b2a98b57a48a06ae28d285a71b54343537f000000000000000000000000000000000000000000000000000000000000c350117fffffffffffffffffffffffffffffffffffffffffffffffffffffffffffffffff7f00000000000000000000000000000000000000000000000000000000000000016f34f06a7014541167033909103620f31ba0ac0dd6746d508f119c8d4e48ed31962c3e4c0ac5a9763fc79128cc955c7f8dd4a058d5c3195bcd2200f1842531bbd4a3baf472ed4e8f69f95932ba04995423eaa7",
                    "logs" : "0x1dcc4de8dec75d7aab85b567b6ccd41ad312451b948a7413f0a142fd40d49347"
                }
            ],
            "Istanbul" : [
                {
                    "indexes" : {
                        "data" : 0,
                        "gas" : 0,
                        "value" : 0
                    },
                    "hash" : "0x3efad072d6b187f9655e7454672fb11fffc3502e68f678850b35675af55e3e12",
                    "txbytes" : "0xf8fe800a843274418994095e7baea6a6c7c4c2dfeb977efac326af552d87843e996cb5b8987f000000000000000000000000945304eb96065b2a98b57a48a06ae28d285a71b54343537f000000000000000000000000000000000000000000000000000000000000c350117fffffffffffffffffffffffffffffffffffffffffffffffffffffffffffffffff7f00000000000000000000000000000000000000000000000000000000000000016f34f06a7014541167033909103620f31ba0ac0dd6746d508f119c8d4e48ed31962c3e4c0ac5a9763fc79128cc955c7f8dd4a058d5c3195bcd2200f1842531bbd4a3baf472ed4e8f69f95932ba04995423eaa7",
                    "logs" : "0x1dcc4de8dec75d7aab85b567b6ccd41ad312451b948a7413f0a142fd40d49347"
                }
            ],
            "London" : [
                {
                    "indexes" : {
                        "data" : 0,
                        "gas" : 0,
                        "value" : 0
                    },
                    "hash" : "0x29d0cfbe0fb20baf3b1b5f816984facf1cf4de1c6c8e0756730202a9ecbae327",
                    "txbytes" : "0xf8fe800a843274418994095e7baea6a6c7c4c2dfeb977efac326af552d87843e996cb5b8987f000000000000000000000000945304eb96065b2a98b57a48a06ae28d285a71b54343537f000000000000000000000000000000000000000000000000000000000000c350117fffffffffffffffffffffffffffffffffffffffffffffffffffffffffffffffff7f00000000000000000000000000000000000000000000000000000000000000016f34f06a7014541167033909103620f31ba0ac0dd6746d508f119c8d4e48ed31962c3e4c0ac5a9763fc79128cc955c7f8dd4a058d5c3195bcd2200f1842531bbd4a3baf472ed4e8f69f95932ba04995423eaa7",
                    "logs" : "0x1dcc4de8dec75d7aab85b567b6ccd41ad312451b948a7413f0a142fd40d49347"
                }
            ]
        },
        "pre" : {
            "0x095e7baea6a6c7c4c2dfeb977efac326af552d87" : {
                "balance" : "0x00",
                "code" : "0x7f000000000000000000000000945304eb96065b2a98b57a48a06ae28d285a71b54343537f000000000000000000000000000000000000000000000000000000000000c350117fffffffffffffffffffffffffffffffffffffffffffffffffffffffffffffffff7f00000000000000000000000000000000000000000000000000000000000000016f34f06a7014541167033909103620f35560005155",
                "nonce" : "0x00",
                "storage" : {
                }
            },
            "0x945304eb96065b2a98b57a48a06ae28d285a71b5" : {
                "balance" : "0x2e",
                "code" : "0x6000355415600957005b60203560003555",
                "nonce" : "0x00",
                "storage" : {
                }
            },
            "0xa94f5374fce5edbc8e2a8697c15331677e6ebf0b" : {
                "balance" : "0x0de0b6b3a7640000",
                "code" : "0x",
                "nonce" : "0x00",
                "storage" : {
                }
            }
        },
        "transaction" : {
            "data" : [
                "0x7f000000000000000000000000945304eb96065b2a98b57a48a06ae28d285a71b54343537f000000000000000000000000000000000000000000000000000000000000c350117fffffffffffffffffffffffffffffffffffffffffffffffffffffffffffffffff7f00000000000000000000000000000000000000000000000000000000000000016f34f06a7014541167033909103620f3"
            ],
            "gasPrice" : "0x0a",
            "gasLimit" : [
                "0x32744189"
            ],
            "nonce" : "0x00",
            "secretKey" : "0x45a915e4d060149eb4365960e6a7a45f334393093061116b197e3240065ff2d8",
            "to" : "0x095e7baea6a6c7c4c2dfeb977efac326af552d87",
            "value" : [
                "0x3e996cb5"
            ]
        }
    }
}