{
    "randomStatetest294" : {
        "_info" : {
            "comment" : "",
            "filling-rpc-server" : "evm version 1.10.4-unstable-966ee3ae-20210528",
            "filling-tool-version" : "retesteth-0.1.1-eip1559+commit.658fc3a8.Linux.g++",
            "lllcversion" : "Version: 0.5.14-develop.2021.5.18+commit.14c9d5de.mod.Linux.g++",
            "source" : "src/GeneralStateTestsFiller/stRandom/randomStatetest294Filler.json",
            "sourceHash" : "1bafb52dcca3f269a0ff91e35ef6a9b25eaf561d0dceedb1ac7be1d0a77f154f"
        },
        "env" : {
            "currentCoinbase" : "0x945304eb96065b2a98b57a48a06ae28d285a71b5",
            "currentDifficulty" : "0x020000",
            "currentNumber" : "0x01",
            "currentTimestamp" : "0x03e8",
            "previousHash" : "0x5e20a0453cecd065ea59c37ac63e079ee08998b6045136a8ce6635c7912ec0b6",
            "currentGasLimit" : "0x7fffffffffffffff"
        },
        "post" : {
            "Berlin" : [
                {
                    "indexes" : {
                        "data" : 0,
                        "gas" : 0,
                        "value" : 0
                    },
                    "hash" : "0x85472230f9fe8d8ffcd3cf7df06a2141c5b2daf953155ab371360f72d378ab8b",
                    "txbytes" : "0xf9013d800a8454175ae594095e7baea6a6c7c4c2dfeb977efac326af552d878467cba665b8d7057fffffffffffffffffffffffffffffffffffffffffffffffffffffffffffffffff7f000000000000000000000000ffffffffffffffffffffffffffffffffffffffff7fffffffffffffffffffffffffffffffffffffffffffffffffffffffffffffffff7f00000000000000000000000100000000000000000000000000000000000000007ffffffffffffffffffffffffffffffffffffffffffffffffffffffffffffffffe3c7fffffffffffffffffffffffffffffffffffffffffffffffffffffffffffffffff9d0718f377825843028dfa021588781ba083392f466c9140a8bb68f12683da9f08c0ff4945f1b5f53e203723d9bdb38eb5a04a8fd8756a7c588e8656ed877a8e38d0da43084241ba351f2c82fdeabf808b06",
                    "logs" : "0x1dcc4de8dec75d7aab85b567b6ccd41ad312451b948a7413f0a142fd40d49347"
                }
            ],
            "Istanbul" : [
                {
                    "indexes" : {
                        "data" : 0,
                        "gas" : 0,
                        "value" : 0
                    },
                    "hash" : "0x85472230f9fe8d8ffcd3cf7df06a2141c5b2daf953155ab371360f72d378ab8b",
                    "txbytes" : "0xf9013d800a8454175ae594095e7baea6a6c7c4c2dfeb977efac326af552d878467cba665b8d7057fffffffffffffffffffffffffffffffffffffffffffffffffffffffffffffffff7f000000000000000000000000ffffffffffffffffffffffffffffffffffffffff7fffffffffffffffffffffffffffffffffffffffffffffffffffffffffffffffff7f00000000000000000000000100000000000000000000000000000000000000007ffffffffffffffffffffffffffffffffffffffffffffffffffffffffffffffffe3c7fffffffffffffffffffffffffffffffffffffffffffffffffffffffffffffffff9d0718f377825843028dfa021588781ba083392f466c9140a8bb68f12683da9f08c0ff4945f1b5f53e203723d9bdb38eb5a04a8fd8756a7c588e8656ed877a8e38d0da43084241ba351f2c82fdeabf808b06",
                    "logs" : "0x1dcc4de8dec75d7aab85b567b6ccd41ad312451b948a7413f0a142fd40d49347"
                }
            ],
            "London" : [
                {
                    "indexes" : {
                        "data" : 0,
                        "gas" : 0,
                        "value" : 0
                    },
                    "hash" : "0x41abc51c668d5b9698ad0f0cc26ed36cf43ceedc29a46eb24df40a3130395d78",
                    "txbytes" : "0xf9013d800a8454175ae594095e7baea6a6c7c4c2dfeb977efac326af552d878467cba665b8d7057fffffffffffffffffffffffffffffffffffffffffffffffffffffffffffffffff7f000000000000000000000000ffffffffffffffffffffffffffffffffffffffff7fffffffffffffffffffffffffffffffffffffffffffffffffffffffffffffffff7f00000000000000000000000100000000000000000000000000000000000000007ffffffffffffffffffffffffffffffffffffffffffffffffffffffffffffffffe3c7fffffffffffffffffffffffffffffffffffffffffffffffffffffffffffffffff9d0718f377825843028dfa021588781ba083392f466c9140a8bb68f12683da9f08c0ff4945f1b5f53e203723d9bdb38eb5a04a8fd8756a7c588e8656ed877a8e38d0da43084241ba351f2c82fdeabf808b06",
                    "logs" : "0x1dcc4de8dec75d7aab85b567b6ccd41ad312451b948a7413f0a142fd40d49347"
                }
            ]
        },
        "pre" : {
            "0x095e7baea6a6c7c4c2dfeb977efac326af552d87" : {
                "balance" : "0x00",
                "code" : "0x057fffffffffffffffffffffffffffffffffffffffffffffffffffffffffffffffff7f000000000000000000000000ffffffffffffffffffffffffffffffffffffffff7fffffffffffffffffffffffffffffffffffffffffffffffffffffffffffffffff7f00000000000000000000000100000000000000000000000000000000000000007ffffffffffffffffffffffffffffffffffffffffffffffffffffffffffffffffe3c7fffffffffffffffffffffffffffffffffffffffffffffffffffffffffffffffff9d0718f377825843028dfa02158878",
                "nonce" : "0x00",
                "storage" : {
                }
            },
            "0x945304eb96065b2a98b57a48a06ae28d285a71b5" : {
                "balance" : "0x2e",
                "code" : "0x6000355415600957005b60203560003555",
                "nonce" : "0x00",
                "storage" : {
                }
            },
            "0xa94f5374fce5edbc8e2a8697c15331677e6ebf0b" : {
                "balance" : "0x0de0b6b3a7640000",
                "code" : "0x",
                "nonce" : "0x00",
                "storage" : {
                }
            }
        },
        "transaction" : {
            "data" : [
                "0x057fffffffffffffffffffffffffffffffffffffffffffffffffffffffffffffffff7f000000000000000000000000ffffffffffffffffffffffffffffffffffffffff7fffffffffffffffffffffffffffffffffffffffffffffffffffffffffffffffff7f00000000000000000000000100000000000000000000000000000000000000007ffffffffffffffffffffffffffffffffffffffffffffffffffffffffffffffffe3c7fffffffffffffffffffffffffffffffffffffffffffffffffffffffffffffffff9d0718f377825843028dfa02158878"
            ],
            "gasPrice" : "0x0a",
            "gasLimit" : [
                "0x54175ae5"
            ],
            "nonce" : "0x00",
            "secretKey" : "0x45a915e4d060149eb4365960e6a7a45f334393093061116b197e3240065ff2d8",
            "to" : "0x095e7baea6a6c7c4c2dfeb977efac326af552d87",
            "value" : [
                "0x67cba665"
            ]
        }
    }
}