{
    "randomStatetest51_d0g0v0_Byzantium" : {
        "_info" : {
            "comment" : "",
            "filledwith" : "testeth 1.7.0-alpha.1-20+commit.782a7283",
            "lllcversion" : "Version: 0.5.0-develop.2018.11.9+commit.9709dfe0.Linux.g++",
            "source" : "src/BlockchainTestsFiller/GeneralStateTests/stRandom/randomStatetest51_d0g0v0Filler.json",
            "sourceHash" : "6e85db9d0a602c306cebb1500dd7f9649d40a1df3a8023637aff3ebdd3a0f490"
        },
        "blocks" : [
            {
                "blockHeader" : {
                    "bloom" : "0x00000000000000000000000000000000000000000000000000000000000000000000000000000000000000000000000000000000000000000000000000000000000000000000000000000000000000000000000000000000000000000000000000000000000000000000000000000000000000000000000000000000000000000000000000000000000000000000000000000000000000000000000000000000000000000000000000000000000000000000000000000000000000000000000000000000000000000000000000000000000000000000000000000000000000000000000000000000000000000000000000000000000000000000000000000000",
                    "coinbase" : "0x945304eb96065b2a98b57a48a06ae28d285a71b5",
                    "difficulty" : "0x020000",
                    "extraData" : "0x",
                    "gasLimit" : "0x7fffffffffffffff",
                    "gasUsed" : "0x6ef38b01",
                    "hash" : "0x0eb09003db5f64083211fea4abf79b24bce6592497103d56d598214d31a329b1",
                    "mixHash" : "0x0000000000000000000000000000000000000000000000000000000000000000",
                    "nonce" : "0x0000000000000000",
                    "number" : "0x01",
                    "parentHash" : "0x49ab8834c2972a6294a512bab8a6b7f4150def1262dcda67a67750a03e7d6e2e",
                    "receiptTrie" : "0x1b6f302efd18951e93dbc786bd99b4467ad6dd5e29718ce7b46ace815ab06eca",
                    "stateRoot" : "0x9ca51e53e44011245e48244a3cc1d508e969bcc04a98bdabd59633d645d3706a",
                    "timestamp" : "0x03e8",
                    "transactionsTrie" : "0xb944eb65a6b1160fe5ad7ffc5eb319f9259ca2cbd8c823d4c3e481992d442bfe",
                    "uncleHash" : "0x1dcc4de8dec75d7aab85b567b6ccd41ad312451b948a7413f0a142fd40d49347"
                },
                "rlp" : "0xf90319f901fea049ab8834c2972a6294a512bab8a6b7f4150def1262dcda67a67750a03e7d6e2ea01dcc4de8dec75d7aab85b567b6ccd41ad312451b948a7413f0a142fd40d4934794945304eb96065b2a98b57a48a06ae28d285a71b5a09ca51e53e44011245e48244a3cc1d508e969bcc04a98bdabd59633d645d3706aa0b944eb65a6b1160fe5ad7ffc5eb319f9259ca2cbd8c823d4c3e481992d442bfea01b6f302efd18951e93dbc786bd99b4467ad6dd5e29718ce7b46ace815ab06ecab90100000000000000000000000000000000000000000000000000000000000000000000000000000000000000000000000000000000000000000000000000000000000000000000000000000000000000000000000000000000000000000000000000000000000000000000000000000000000000000000000000000000000000000000000000000000000000000000000000000000000000000000000000000000000000000000000000000000000000000000000000000000000000000000000000000000000000000000000000000000000000000000000000000000000000000000000000000000000000000000000000000000000000000000000000000000008302000001887fffffffffffffff846ef38b018203e880a00000000000000000000000000000000000000000000000000000000000000000880000000000000000f90114f901118001846ef38b0194095e7baea6a6c7c4c2dfeb977efac326af552d87843f4d7811b8ab7f0000000000000000000000000000000000000000000000000000000000000001757f000000000000000000000000945304eb96065b2a98b57a48a06ae28d285a71b57a7f000000000000000000000000945304eb96065b2a98b57a48a06ae28d285a71b57f000000000000000000000000945304eb96065b2a98b57a48a06ae28d285a71b5447ffffffffffffffffffffffffffffffffffffffffffffffffffffffffffffffffe83189b1ba0e917929967d4c63b7723c29c8fcfb12ef66f2c18aafb660064ae5d62490a0d69a0325386a7659ee74ac19c8db4f5aef96a98586f2e43c9e88c2a1ca84ac65a2c83c0",
                "transactions" : [
                    {
                        "data" : "0x7f0000000000000000000000000000000000000000000000000000000000000001757f000000000000000000000000945304eb96065b2a98b57a48a06ae28d285a71b57a7f000000000000000000000000945304eb96065b2a98b57a48a06ae28d285a71b57f000000000000000000000000945304eb96065b2a98b57a48a06ae28d285a71b5447ffffffffffffffffffffffffffffffffffffffffffffffffffffffffffffffffe83189b",
                        "gasLimit" : "0x6ef38b01",
                        "gasPrice" : "0x01",
                        "nonce" : "0x00",
                        "r" : "0xe917929967d4c63b7723c29c8fcfb12ef66f2c18aafb660064ae5d62490a0d69",
                        "s" : "0x325386a7659ee74ac19c8db4f5aef96a98586f2e43c9e88c2a1ca84ac65a2c83",
                        "to" : "0x095e7baea6a6c7c4c2dfeb977efac326af552d87",
                        "v" : "0x1b",
                        "value" : "0x3f4d7811"
                    }
                ],
                "uncleHeaders" : [
                ]
            }
        ],
        "genesisBlockHeader" : {
            "bloom" : "0x00000000000000000000000000000000000000000000000000000000000000000000000000000000000000000000000000000000000000000000000000000000000000000000000000000000000000000000000000000000000000000000000000000000000000000000000000000000000000000000000000000000000000000000000000000000000000000000000000000000000000000000000000000000000000000000000000000000000000000000000000000000000000000000000000000000000000000000000000000000000000000000000000000000000000000000000000000000000000000000000000000000000000000000000000000000",
            "coinbase" : "0x945304eb96065b2a98b57a48a06ae28d285a71b5",
            "difficulty" : "0x020000",
            "extraData" : "0x42",
            "gasLimit" : "0x7fffffffffffffff",
            "gasUsed" : "0x00",
            "hash" : "0x49ab8834c2972a6294a512bab8a6b7f4150def1262dcda67a67750a03e7d6e2e",
            "mixHash" : "0x56e81f171bcc55a6ff8345e692c0f86e5b48e01b996cadc001622fb5e363b421",
            "nonce" : "0x0102030405060708",
            "number" : "0x00",
            "parentHash" : "0x0000000000000000000000000000000000000000000000000000000000000000",
            "receiptTrie" : "0x56e81f171bcc55a6ff8345e692c0f86e5b48e01b996cadc001622fb5e363b421",
            "stateRoot" : "0x097d7acac811c1955ae383fd7dae6bb2275612b93dc2103ff8cbdd6c3bb51fdd",
            "timestamp" : "0x03b6",
            "transactionsTrie" : "0x56e81f171bcc55a6ff8345e692c0f86e5b48e01b996cadc001622fb5e363b421",
            "uncleHash" : "0x1dcc4de8dec75d7aab85b567b6ccd41ad312451b948a7413f0a142fd40d49347"
        },
        "genesisRLP" : "0xf901fff901faa00000000000000000000000000000000000000000000000000000000000000000a01dcc4de8dec75d7aab85b567b6ccd41ad312451b948a7413f0a142fd40d4934794945304eb96065b2a98b57a48a06ae28d285a71b5a0097d7acac811c1955ae383fd7dae6bb2275612b93dc2103ff8cbdd6c3bb51fdda056e81f171bcc55a6ff8345e692c0f86e5b48e01b996cadc001622fb5e363b421a056e81f171bcc55a6ff8345e692c0f86e5b48e01b996cadc001622fb5e363b421b90100000000000000000000000000000000000000000000000000000000000000000000000000000000000000000000000000000000000000000000000000000000000000000000000000000000000000000000000000000000000000000000000000000000000000000000000000000000000000000000000000000000000000000000000000000000000000000000000000000000000000000000000000000000000000000000000000000000000000000000000000000000000000000000000000000000000000000000000000000000000000000000000000000000000000000000000000000000000000000000000000000000000000000000000000000000008302000080887fffffffffffffff808203b642a056e81f171bcc55a6ff8345e692c0f86e5b48e01b996cadc001622fb5e363b421880102030405060708c0c0",
        "lastblockhash" : "0x0eb09003db5f64083211fea4abf79b24bce6592497103d56d598214d31a329b1",
        "network" : "Byzantium",
        "postState" : {
            "0x095e7baea6a6c7c4c2dfeb977efac326af552d87" : {
                "balance" : "0x00",
                "code" : "0x7f0000000000000000000000000000000000000000000000000000000000000001757f000000000000000000000000945304eb96065b2a98b57a48a06ae28d285a71b57a7f000000000000000000000000945304eb96065b2a98b57a48a06ae28d285a71b57f000000000000000000000000945304eb96065b2a98b57a48a06ae28d285a71b5447ffffffffffffffffffffffffffffffffffffffffffffffffffffffffffffffffe83189b60005155",
                "nonce" : "0x00",
                "storage" : {
                }
            },
            "0x945304eb96065b2a98b57a48a06ae28d285a71b5" : {
                "balance" : "0x29a2241b651f8b2f",
                "code" : "0x6000355415600957005b60203560003555",
                "nonce" : "0x00",
                "storage" : {
                }
            },
            "0xa94f5374fce5edbc8e2a8697c15331677e6ebf0b" : {
                "balance" : "0x0de0b6b3387074ff",
                "code" : "0x",
                "nonce" : "0x01",
                "storage" : {
                }
            }
        },
        "pre" : {
            "0x095e7baea6a6c7c4c2dfeb977efac326af552d87" : {
                "balance" : "0x00",
                "code" : "0x7f0000000000000000000000000000000000000000000000000000000000000001757f000000000000000000000000945304eb96065b2a98b57a48a06ae28d285a71b57a7f000000000000000000000000945304eb96065b2a98b57a48a06ae28d285a71b57f000000000000000000000000945304eb96065b2a98b57a48a06ae28d285a71b5447ffffffffffffffffffffffffffffffffffffffffffffffffffffffffffffffffe83189b60005155",
                "nonce" : "0x00",
                "storage" : {
                }
            },
            "0x945304eb96065b2a98b57a48a06ae28d285a71b5" : {
                "balance" : "0x2e",
                "code" : "0x6000355415600957005b60203560003555",
                "nonce" : "0x00",
                "storage" : {
                }
            },
            "0xa94f5374fce5edbc8e2a8697c15331677e6ebf0b" : {
                "balance" : "0x0de0b6b3a7640000",
                "code" : "0x",
                "nonce" : "0x00",
                "storage" : {
                }
            }
        },
        "sealEngine" : "NoProof"
    },
    "randomStatetest51_d0g0v0_Constantinople" : {
        "_info" : {
            "comment" : "",
            "filledwith" : "testeth 1.7.0-alpha.1-20+commit.782a7283",
            "lllcversion" : "Version: 0.5.0-develop.2018.11.9+commit.9709dfe0.Linux.g++",
            "source" : "src/BlockchainTestsFiller/GeneralStateTests/stRandom/randomStatetest51_d0g0v0Filler.json",
            "sourceHash" : "6e85db9d0a602c306cebb1500dd7f9649d40a1df3a8023637aff3ebdd3a0f490"
        },
        "blocks" : [
            {
                "blockHeader" : {
                    "bloom" : "0x00000000000000000000000000000000000000000000000000000000000000000000000000000000000000000000000000000000000000000000000000000000000000000000000000000000000000000000000000000000000000000000000000000000000000000000000000000000000000000000000000000000000000000000000000000000000000000000000000000000000000000000000000000000000000000000000000000000000000000000000000000000000000000000000000000000000000000000000000000000000000000000000000000000000000000000000000000000000000000000000000000000000000000000000000000000",
                    "coinbase" : "0x945304eb96065b2a98b57a48a06ae28d285a71b5",
                    "difficulty" : "0x020000",
                    "extraData" : "0x",
                    "gasLimit" : "0x7fffffffffffffff",
                    "gasUsed" : "0x6ef38b01",
                    "hash" : "0x0f0a8d1807cf492bfb4659a54d33ba40dbec1264617715c5f455c16b490a8f34",
                    "mixHash" : "0x0000000000000000000000000000000000000000000000000000000000000000",
                    "nonce" : "0x0000000000000000",
                    "number" : "0x01",
                    "parentHash" : "0x49ab8834c2972a6294a512bab8a6b7f4150def1262dcda67a67750a03e7d6e2e",
                    "receiptTrie" : "0x1b6f302efd18951e93dbc786bd99b4467ad6dd5e29718ce7b46ace815ab06eca",
                    "stateRoot" : "0x26f1efd3cab667dadd94f0c00779a47d833996d9c5047f01997be8aff567b8ab",
                    "timestamp" : "0x03e8",
                    "transactionsTrie" : "0xb944eb65a6b1160fe5ad7ffc5eb319f9259ca2cbd8c823d4c3e481992d442bfe",
                    "uncleHash" : "0x1dcc4de8dec75d7aab85b567b6ccd41ad312451b948a7413f0a142fd40d49347"
                },
                "rlp" : "0xf90319f901fea049ab8834c2972a6294a512bab8a6b7f4150def1262dcda67a67750a03e7d6e2ea01dcc4de8dec75d7aab85b567b6ccd41ad312451b948a7413f0a142fd40d4934794945304eb96065b2a98b57a48a06ae28d285a71b5a026f1efd3cab667dadd94f0c00779a47d833996d9c5047f01997be8aff567b8aba0b944eb65a6b1160fe5ad7ffc5eb319f9259ca2cbd8c823d4c3e481992d442bfea01b6f302efd18951e93dbc786bd99b4467ad6dd5e29718ce7b46ace815ab06ecab90100000000000000000000000000000000000000000000000000000000000000000000000000000000000000000000000000000000000000000000000000000000000000000000000000000000000000000000000000000000000000000000000000000000000000000000000000000000000000000000000000000000000000000000000000000000000000000000000000000000000000000000000000000000000000000000000000000000000000000000000000000000000000000000000000000000000000000000000000000000000000000000000000000000000000000000000000000000000000000000000000000000000000000000000000000000008302000001887fffffffffffffff846ef38b018203e880a00000000000000000000000000000000000000000000000000000000000000000880000000000000000f90114f901118001846ef38b0194095e7baea6a6c7c4c2dfeb977efac326af552d87843f4d7811b8ab7f0000000000000000000000000000000000000000000000000000000000000001757f000000000000000000000000945304eb96065b2a98b57a48a06ae28d285a71b57a7f000000000000000000000000945304eb96065b2a98b57a48a06ae28d285a71b57f000000000000000000000000945304eb96065b2a98b57a48a06ae28d285a71b5447ffffffffffffffffffffffffffffffffffffffffffffffffffffffffffffffffe83189b1ba0e917929967d4c63b7723c29c8fcfb12ef66f2c18aafb660064ae5d62490a0d69a0325386a7659ee74ac19c8db4f5aef96a98586f2e43c9e88c2a1ca84ac65a2c83c0",
                "transactions" : [
                    {
                        "data" : "0x7f0000000000000000000000000000000000000000000000000000000000000001757f000000000000000000000000945304eb96065b2a98b57a48a06ae28d285a71b57a7f000000000000000000000000945304eb96065b2a98b57a48a06ae28d285a71b57f000000000000000000000000945304eb96065b2a98b57a48a06ae28d285a71b5447ffffffffffffffffffffffffffffffffffffffffffffffffffffffffffffffffe83189b",
                        "gasLimit" : "0x6ef38b01",
                        "gasPrice" : "0x01",
                        "nonce" : "0x00",
                        "r" : "0xe917929967d4c63b7723c29c8fcfb12ef66f2c18aafb660064ae5d62490a0d69",
                        "s" : "0x325386a7659ee74ac19c8db4f5aef96a98586f2e43c9e88c2a1ca84ac65a2c83",
                        "to" : "0x095e7baea6a6c7c4c2dfeb977efac326af552d87",
                        "v" : "0x1b",
                        "value" : "0x3f4d7811"
                    }
                ],
                "uncleHeaders" : [
                ]
            }
        ],
        "genesisBlockHeader" : {
            "bloom" : "0x00000000000000000000000000000000000000000000000000000000000000000000000000000000000000000000000000000000000000000000000000000000000000000000000000000000000000000000000000000000000000000000000000000000000000000000000000000000000000000000000000000000000000000000000000000000000000000000000000000000000000000000000000000000000000000000000000000000000000000000000000000000000000000000000000000000000000000000000000000000000000000000000000000000000000000000000000000000000000000000000000000000000000000000000000000000",
            "coinbase" : "0x945304eb96065b2a98b57a48a06ae28d285a71b5",
            "difficulty" : "0x020000",
            "extraData" : "0x42",
            "gasLimit" : "0x7fffffffffffffff",
            "gasUsed" : "0x00",
            "hash" : "0x49ab8834c2972a6294a512bab8a6b7f4150def1262dcda67a67750a03e7d6e2e",
            "mixHash" : "0x56e81f171bcc55a6ff8345e692c0f86e5b48e01b996cadc001622fb5e363b421",
            "nonce" : "0x0102030405060708",
            "number" : "0x00",
            "parentHash" : "0x0000000000000000000000000000000000000000000000000000000000000000",
            "receiptTrie" : "0x56e81f171bcc55a6ff8345e692c0f86e5b48e01b996cadc001622fb5e363b421",
            "stateRoot" : "0x097d7acac811c1955ae383fd7dae6bb2275612b93dc2103ff8cbdd6c3bb51fdd",
            "timestamp" : "0x03b6",
            "transactionsTrie" : "0x56e81f171bcc55a6ff8345e692c0f86e5b48e01b996cadc001622fb5e363b421",
            "uncleHash" : "0x1dcc4de8dec75d7aab85b567b6ccd41ad312451b948a7413f0a142fd40d49347"
        },
        "genesisRLP" : "0xf901fff901faa00000000000000000000000000000000000000000000000000000000000000000a01dcc4de8dec75d7aab85b567b6ccd41ad312451b948a7413f0a142fd40d4934794945304eb96065b2a98b57a48a06ae28d285a71b5a0097d7acac811c1955ae383fd7dae6bb2275612b93dc2103ff8cbdd6c3bb51fdda056e81f171bcc55a6ff8345e692c0f86e5b48e01b996cadc001622fb5e363b421a056e81f171bcc55a6ff8345e692c0f86e5b48e01b996cadc001622fb5e363b421b90100000000000000000000000000000000000000000000000000000000000000000000000000000000000000000000000000000000000000000000000000000000000000000000000000000000000000000000000000000000000000000000000000000000000000000000000000000000000000000000000000000000000000000000000000000000000000000000000000000000000000000000000000000000000000000000000000000000000000000000000000000000000000000000000000000000000000000000000000000000000000000000000000000000000000000000000000000000000000000000000000000000000000000000000000000000008302000080887fffffffffffffff808203b642a056e81f171bcc55a6ff8345e692c0f86e5b48e01b996cadc001622fb5e363b421880102030405060708c0c0",
        "lastblockhash" : "0x0f0a8d1807cf492bfb4659a54d33ba40dbec1264617715c5f455c16b490a8f34",
        "network" : "Constantinople",
        "postState" : {
            "0x095e7baea6a6c7c4c2dfeb977efac326af552d87" : {
                "balance" : "0x00",
                "code" : "0x7f0000000000000000000000000000000000000000000000000000000000000001757f000000000000000000000000945304eb96065b2a98b57a48a06ae28d285a71b57a7f000000000000000000000000945304eb96065b2a98b57a48a06ae28d285a71b57f000000000000000000000000945304eb96065b2a98b57a48a06ae28d285a71b5447ffffffffffffffffffffffffffffffffffffffffffffffffffffffffffffffffe83189b60005155",
                "nonce" : "0x00",
                "storage" : {
                }
            },
            "0x945304eb96065b2a98b57a48a06ae28d285a71b5" : {
                "balance" : "0x1bc16d67bdbb8b2f",
                "code" : "0x6000355415600957005b60203560003555",
                "nonce" : "0x00",
                "storage" : {
                }
            },
            "0xa94f5374fce5edbc8e2a8697c15331677e6ebf0b" : {
                "balance" : "0x0de0b6b3387074ff",
                "code" : "0x",
                "nonce" : "0x01",
                "storage" : {
                }
            }
        },
        "pre" : {
            "0x095e7baea6a6c7c4c2dfeb977efac326af552d87" : {
                "balance" : "0x00",
                "code" : "0x7f0000000000000000000000000000000000000000000000000000000000000001757f000000000000000000000000945304eb96065b2a98b57a48a06ae28d285a71b57a7f000000000000000000000000945304eb96065b2a98b57a48a06ae28d285a71b57f000000000000000000000000945304eb96065b2a98b57a48a06ae28d285a71b5447ffffffffffffffffffffffffffffffffffffffffffffffffffffffffffffffffe83189b60005155",
                "nonce" : "0x00",
                "storage" : {
                }
            },
            "0x945304eb96065b2a98b57a48a06ae28d285a71b5" : {
                "balance" : "0x2e",
                "code" : "0x6000355415600957005b60203560003555",
                "nonce" : "0x00",
                "storage" : {
                }
            },
            "0xa94f5374fce5edbc8e2a8697c15331677e6ebf0b" : {
                "balance" : "0x0de0b6b3a7640000",
                "code" : "0x",
                "nonce" : "0x00",
                "storage" : {
                }
            }
        },
        "sealEngine" : "NoProof"
    },
    "randomStatetest51_d0g0v0_ConstantinopleFix" : {
        "_info" : {
            "comment" : "",
            "filledwith" : "testeth 1.7.0-alpha.1-20+commit.782a7283",
            "lllcversion" : "Version: 0.5.0-develop.2018.11.9+commit.9709dfe0.Linux.g++",
            "source" : "src/BlockchainTestsFiller/GeneralStateTests/stRandom/randomStatetest51_d0g0v0Filler.json",
            "sourceHash" : "6e85db9d0a602c306cebb1500dd7f9649d40a1df3a8023637aff3ebdd3a0f490"
        },
        "blocks" : [
            {
                "blockHeader" : {
                    "bloom" : "0x00000000000000000000000000000000000000000000000000000000000000000000000000000000000000000000000000000000000000000000000000000000000000000000000000000000000000000000000000000000000000000000000000000000000000000000000000000000000000000000000000000000000000000000000000000000000000000000000000000000000000000000000000000000000000000000000000000000000000000000000000000000000000000000000000000000000000000000000000000000000000000000000000000000000000000000000000000000000000000000000000000000000000000000000000000000",
                    "coinbase" : "0x945304eb96065b2a98b57a48a06ae28d285a71b5",
                    "difficulty" : "0x020000",
                    "extraData" : "0x",
                    "gasLimit" : "0x7fffffffffffffff",
                    "gasUsed" : "0x6ef38b01",
                    "hash" : "0x0f0a8d1807cf492bfb4659a54d33ba40dbec1264617715c5f455c16b490a8f34",
                    "mixHash" : "0x0000000000000000000000000000000000000000000000000000000000000000",
                    "nonce" : "0x0000000000000000",
                    "number" : "0x01",
                    "parentHash" : "0x49ab8834c2972a6294a512bab8a6b7f4150def1262dcda67a67750a03e7d6e2e",
                    "receiptTrie" : "0x1b6f302efd18951e93dbc786bd99b4467ad6dd5e29718ce7b46ace815ab06eca",
                    "stateRoot" : "0x26f1efd3cab667dadd94f0c00779a47d833996d9c5047f01997be8aff567b8ab",
                    "timestamp" : "0x03e8",
                    "transactionsTrie" : "0xb944eb65a6b1160fe5ad7ffc5eb319f9259ca2cbd8c823d4c3e481992d442bfe",
                    "uncleHash" : "0x1dcc4de8dec75d7aab85b567b6ccd41ad312451b948a7413f0a142fd40d49347"
                },
                "rlp" : "0xf90319f901fea049ab8834c2972a6294a512bab8a6b7f4150def1262dcda67a67750a03e7d6e2ea01dcc4de8dec75d7aab85b567b6ccd41ad312451b948a7413f0a142fd40d4934794945304eb96065b2a98b57a48a06ae28d285a71b5a026f1efd3cab667dadd94f0c00779a47d833996d9c5047f01997be8aff567b8aba0b944eb65a6b1160fe5ad7ffc5eb319f9259ca2cbd8c823d4c3e481992d442bfea01b6f302efd18951e93dbc786bd99b4467ad6dd5e29718ce7b46ace815ab06ecab90100000000000000000000000000000000000000000000000000000000000000000000000000000000000000000000000000000000000000000000000000000000000000000000000000000000000000000000000000000000000000000000000000000000000000000000000000000000000000000000000000000000000000000000000000000000000000000000000000000000000000000000000000000000000000000000000000000000000000000000000000000000000000000000000000000000000000000000000000000000000000000000000000000000000000000000000000000000000000000000000000000000000000000000000000000000008302000001887fffffffffffffff846ef38b018203e880a00000000000000000000000000000000000000000000000000000000000000000880000000000000000f90114f901118001846ef38b0194095e7baea6a6c7c4c2dfeb977efac326af552d87843f4d7811b8ab7f0000000000000000000000000000000000000000000000000000000000000001757f000000000000000000000000945304eb96065b2a98b57a48a06ae28d285a71b57a7f000000000000000000000000945304eb96065b2a98b57a48a06ae28d285a71b57f000000000000000000000000945304eb96065b2a98b57a48a06ae28d285a71b5447ffffffffffffffffffffffffffffffffffffffffffffffffffffffffffffffffe83189b1ba0e917929967d4c63b7723c29c8fcfb12ef66f2c18aafb660064ae5d62490a0d69a0325386a7659ee74ac19c8db4f5aef96a98586f2e43c9e88c2a1ca84ac65a2c83c0",
                "transactions" : [
                    {
                        "data" : "0x7f0000000000000000000000000000000000000000000000000000000000000001757f000000000000000000000000945304eb96065b2a98b57a48a06ae28d285a71b57a7f000000000000000000000000945304eb96065b2a98b57a48a06ae28d285a71b57f000000000000000000000000945304eb96065b2a98b57a48a06ae28d285a71b5447ffffffffffffffffffffffffffffffffffffffffffffffffffffffffffffffffe83189b",
                        "gasLimit" : "0x6ef38b01",
                        "gasPrice" : "0x01",
                        "nonce" : "0x00",
                        "r" : "0xe917929967d4c63b7723c29c8fcfb12ef66f2c18aafb660064ae5d62490a0d69",
                        "s" : "0x325386a7659ee74ac19c8db4f5aef96a98586f2e43c9e88c2a1ca84ac65a2c83",
                        "to" : "0x095e7baea6a6c7c4c2dfeb977efac326af552d87",
                        "v" : "0x1b",
                        "value" : "0x3f4d7811"
                    }
                ],
                "uncleHeaders" : [
                ]
            }
        ],
        "genesisBlockHeader" : {
            "bloom" : "0x00000000000000000000000000000000000000000000000000000000000000000000000000000000000000000000000000000000000000000000000000000000000000000000000000000000000000000000000000000000000000000000000000000000000000000000000000000000000000000000000000000000000000000000000000000000000000000000000000000000000000000000000000000000000000000000000000000000000000000000000000000000000000000000000000000000000000000000000000000000000000000000000000000000000000000000000000000000000000000000000000000000000000000000000000000000",
            "coinbase" : "0x945304eb96065b2a98b57a48a06ae28d285a71b5",
            "difficulty" : "0x020000",
            "extraData" : "0x42",
            "gasLimit" : "0x7fffffffffffffff",
            "gasUsed" : "0x00",
            "hash" : "0x49ab8834c2972a6294a512bab8a6b7f4150def1262dcda67a67750a03e7d6e2e",
            "mixHash" : "0x56e81f171bcc55a6ff8345e692c0f86e5b48e01b996cadc001622fb5e363b421",
            "nonce" : "0x0102030405060708",
            "number" : "0x00",
            "parentHash" : "0x0000000000000000000000000000000000000000000000000000000000000000",
            "receiptTrie" : "0x56e81f171bcc55a6ff8345e692c0f86e5b48e01b996cadc001622fb5e363b421",
            "stateRoot" : "0x097d7acac811c1955ae383fd7dae6bb2275612b93dc2103ff8cbdd6c3bb51fdd",
            "timestamp" : "0x03b6",
            "transactionsTrie" : "0x56e81f171bcc55a6ff8345e692c0f86e5b48e01b996cadc001622fb5e363b421",
            "uncleHash" : "0x1dcc4de8dec75d7aab85b567b6ccd41ad312451b948a7413f0a142fd40d49347"
        },
        "genesisRLP" : "0xf901fff901faa00000000000000000000000000000000000000000000000000000000000000000a01dcc4de8dec75d7aab85b567b6ccd41ad312451b948a7413f0a142fd40d4934794945304eb96065b2a98b57a48a06ae28d285a71b5a0097d7acac811c1955ae383fd7dae6bb2275612b93dc2103ff8cbdd6c3bb51fdda056e81f171bcc55a6ff8345e692c0f86e5b48e01b996cadc001622fb5e363b421a056e81f171bcc55a6ff8345e692c0f86e5b48e01b996cadc001622fb5e363b421b90100000000000000000000000000000000000000000000000000000000000000000000000000000000000000000000000000000000000000000000000000000000000000000000000000000000000000000000000000000000000000000000000000000000000000000000000000000000000000000000000000000000000000000000000000000000000000000000000000000000000000000000000000000000000000000000000000000000000000000000000000000000000000000000000000000000000000000000000000000000000000000000000000000000000000000000000000000000000000000000000000000000000000000000000000000000008302000080887fffffffffffffff808203b642a056e81f171bcc55a6ff8345e692c0f86e5b48e01b996cadc001622fb5e363b421880102030405060708c0c0",
        "lastblockhash" : "0x0f0a8d1807cf492bfb4659a54d33ba40dbec1264617715c5f455c16b490a8f34",
        "network" : "ConstantinopleFix",
        "postState" : {
            "0x095e7baea6a6c7c4c2dfeb977efac326af552d87" : {
                "balance" : "0x00",
                "code" : "0x7f0000000000000000000000000000000000000000000000000000000000000001757f000000000000000000000000945304eb96065b2a98b57a48a06ae28d285a71b57a7f000000000000000000000000945304eb96065b2a98b57a48a06ae28d285a71b57f000000000000000000000000945304eb96065b2a98b57a48a06ae28d285a71b5447ffffffffffffffffffffffffffffffffffffffffffffffffffffffffffffffffe83189b60005155",
                "nonce" : "0x00",
                "storage" : {
                }
            },
            "0x945304eb96065b2a98b57a48a06ae28d285a71b5" : {
                "balance" : "0x1bc16d67bdbb8b2f",
                "code" : "0x6000355415600957005b60203560003555",
                "nonce" : "0x00",
                "storage" : {
                }
            },
            "0xa94f5374fce5edbc8e2a8697c15331677e6ebf0b" : {
                "balance" : "0x0de0b6b3387074ff",
                "code" : "0x",
                "nonce" : "0x01",
                "storage" : {
                }
            }
        },
        "pre" : {
            "0x095e7baea6a6c7c4c2dfeb977efac326af552d87" : {
                "balance" : "0x00",
                "code" : "0x7f0000000000000000000000000000000000000000000000000000000000000001757f000000000000000000000000945304eb96065b2a98b57a48a06ae28d285a71b57a7f000000000000000000000000945304eb96065b2a98b57a48a06ae28d285a71b57f000000000000000000000000945304eb96065b2a98b57a48a06ae28d285a71b5447ffffffffffffffffffffffffffffffffffffffffffffffffffffffffffffffffe83189b60005155",
                "nonce" : "0x00",
                "storage" : {
                }
            },
            "0x945304eb96065b2a98b57a48a06ae28d285a71b5" : {
                "balance" : "0x2e",
                "code" : "0x6000355415600957005b60203560003555",
                "nonce" : "0x00",
                "storage" : {
                }
            },
            "0xa94f5374fce5edbc8e2a8697c15331677e6ebf0b" : {
                "balance" : "0x0de0b6b3a7640000",
                "code" : "0x",
                "nonce" : "0x00",
                "storage" : {
                }
            }
        },
        "sealEngine" : "NoProof"
    },
    "randomStatetest51_d0g0v0_Homestead" : {
        "_info" : {
            "comment" : "",
            "filledwith" : "testeth 1.7.0-alpha.1-20+commit.782a7283",
            "lllcversion" : "Version: 0.5.0-develop.2018.11.9+commit.9709dfe0.Linux.g++",
            "source" : "src/BlockchainTestsFiller/GeneralStateTests/stRandom/randomStatetest51_d0g0v0Filler.json",
            "sourceHash" : "6e85db9d0a602c306cebb1500dd7f9649d40a1df3a8023637aff3ebdd3a0f490"
        },
        "blocks" : [
            {
                "blockHeader" : {
                    "bloom" : "0x00000000000000000000000000000000000000000000000000000000000000000000000000000000000000000000000000000000000000000000000000000000000000000000000000000000000000000000000000000000000000000000000000000000000000000000000000000000000000000000000000000000000000000000000000000000000000000000000000000000000000000000000000000000000000000000000000000000000000000000000000000000000000000000000000000000000000000000000000000000000000000000000000000000000000000000000000000000000000000000000000000000000000000000000000000000",
                    "coinbase" : "0x945304eb96065b2a98b57a48a06ae28d285a71b5",
                    "difficulty" : "0x020000",
                    "extraData" : "0x",
                    "gasLimit" : "0x7fffffffffffffff",
                    "gasUsed" : "0x6ef38b01",
                    "hash" : "0x6f676f55cd13ae284c0a19b10fb3d0db163552b8e4b419f9ee7c73b19ac92425",
                    "mixHash" : "0x0000000000000000000000000000000000000000000000000000000000000000",
                    "nonce" : "0x0000000000000000",
                    "number" : "0x01",
                    "parentHash" : "0x49ab8834c2972a6294a512bab8a6b7f4150def1262dcda67a67750a03e7d6e2e",
                    "receiptTrie" : "0xe88bba0cecc0959e4f8ae26501e2dc87a06fa44e98148e3e048ea0cb0888eeeb",
                    "stateRoot" : "0x9a411ac5a1f6bd57b891397d57b38d0e869469c7d934f2202828d4070e1a88eb",
                    "timestamp" : "0x03e8",
                    "transactionsTrie" : "0xb944eb65a6b1160fe5ad7ffc5eb319f9259ca2cbd8c823d4c3e481992d442bfe",
                    "uncleHash" : "0x1dcc4de8dec75d7aab85b567b6ccd41ad312451b948a7413f0a142fd40d49347"
                },
                "rlp" : "0xf90319f901fea049ab8834c2972a6294a512bab8a6b7f4150def1262dcda67a67750a03e7d6e2ea01dcc4de8dec75d7aab85b567b6ccd41ad312451b948a7413f0a142fd40d4934794945304eb96065b2a98b57a48a06ae28d285a71b5a09a411ac5a1f6bd57b891397d57b38d0e869469c7d934f2202828d4070e1a88eba0b944eb65a6b1160fe5ad7ffc5eb319f9259ca2cbd8c823d4c3e481992d442bfea0e88bba0cecc0959e4f8ae26501e2dc87a06fa44e98148e3e048ea0cb0888eeebb90100000000000000000000000000000000000000000000000000000000000000000000000000000000000000000000000000000000000000000000000000000000000000000000000000000000000000000000000000000000000000000000000000000000000000000000000000000000000000000000000000000000000000000000000000000000000000000000000000000000000000000000000000000000000000000000000000000000000000000000000000000000000000000000000000000000000000000000000000000000000000000000000000000000000000000000000000000000000000000000000000000000000000000000000000000000008302000001887fffffffffffffff846ef38b018203e880a00000000000000000000000000000000000000000000000000000000000000000880000000000000000f90114f901118001846ef38b0194095e7baea6a6c7c4c2dfeb977efac326af552d87843f4d7811b8ab7f0000000000000000000000000000000000000000000000000000000000000001757f000000000000000000000000945304eb96065b2a98b57a48a06ae28d285a71b57a7f000000000000000000000000945304eb96065b2a98b57a48a06ae28d285a71b57f000000000000000000000000945304eb96065b2a98b57a48a06ae28d285a71b5447ffffffffffffffffffffffffffffffffffffffffffffffffffffffffffffffffe83189b1ba0e917929967d4c63b7723c29c8fcfb12ef66f2c18aafb660064ae5d62490a0d69a0325386a7659ee74ac19c8db4f5aef96a98586f2e43c9e88c2a1ca84ac65a2c83c0",
                "transactions" : [
                    {
                        "data" : "0x7f0000000000000000000000000000000000000000000000000000000000000001757f000000000000000000000000945304eb96065b2a98b57a48a06ae28d285a71b57a7f000000000000000000000000945304eb96065b2a98b57a48a06ae28d285a71b57f000000000000000000000000945304eb96065b2a98b57a48a06ae28d285a71b5447ffffffffffffffffffffffffffffffffffffffffffffffffffffffffffffffffe83189b",
                        "gasLimit" : "0x6ef38b01",
                        "gasPrice" : "0x01",
                        "nonce" : "0x00",
                        "r" : "0xe917929967d4c63b7723c29c8fcfb12ef66f2c18aafb660064ae5d62490a0d69",
                        "s" : "0x325386a7659ee74ac19c8db4f5aef96a98586f2e43c9e88c2a1ca84ac65a2c83",
                        "to" : "0x095e7baea6a6c7c4c2dfeb977efac326af552d87",
                        "v" : "0x1b",
                        "value" : "0x3f4d7811"
                    }
                ],
                "uncleHeaders" : [
                ]
            }
        ],
        "genesisBlockHeader" : {
            "bloom" : "0x00000000000000000000000000000000000000000000000000000000000000000000000000000000000000000000000000000000000000000000000000000000000000000000000000000000000000000000000000000000000000000000000000000000000000000000000000000000000000000000000000000000000000000000000000000000000000000000000000000000000000000000000000000000000000000000000000000000000000000000000000000000000000000000000000000000000000000000000000000000000000000000000000000000000000000000000000000000000000000000000000000000000000000000000000000000",
            "coinbase" : "0x945304eb96065b2a98b57a48a06ae28d285a71b5",
            "difficulty" : "0x020000",
            "extraData" : "0x42",
            "gasLimit" : "0x7fffffffffffffff",
            "gasUsed" : "0x00",
            "hash" : "0x49ab8834c2972a6294a512bab8a6b7f4150def1262dcda67a67750a03e7d6e2e",
            "mixHash" : "0x56e81f171bcc55a6ff8345e692c0f86e5b48e01b996cadc001622fb5e363b421",
            "nonce" : "0x0102030405060708",
            "number" : "0x00",
            "parentHash" : "0x0000000000000000000000000000000000000000000000000000000000000000",
            "receiptTrie" : "0x56e81f171bcc55a6ff8345e692c0f86e5b48e01b996cadc001622fb5e363b421",
            "stateRoot" : "0x097d7acac811c1955ae383fd7dae6bb2275612b93dc2103ff8cbdd6c3bb51fdd",
            "timestamp" : "0x03b6",
            "transactionsTrie" : "0x56e81f171bcc55a6ff8345e692c0f86e5b48e01b996cadc001622fb5e363b421",
            "uncleHash" : "0x1dcc4de8dec75d7aab85b567b6ccd41ad312451b948a7413f0a142fd40d49347"
        },
        "genesisRLP" : "0xf901fff901faa00000000000000000000000000000000000000000000000000000000000000000a01dcc4de8dec75d7aab85b567b6ccd41ad312451b948a7413f0a142fd40d4934794945304eb96065b2a98b57a48a06ae28d285a71b5a0097d7acac811c1955ae383fd7dae6bb2275612b93dc2103ff8cbdd6c3bb51fdda056e81f171bcc55a6ff8345e692c0f86e5b48e01b996cadc001622fb5e363b421a056e81f171bcc55a6ff8345e692c0f86e5b48e01b996cadc001622fb5e363b421b90100000000000000000000000000000000000000000000000000000000000000000000000000000000000000000000000000000000000000000000000000000000000000000000000000000000000000000000000000000000000000000000000000000000000000000000000000000000000000000000000000000000000000000000000000000000000000000000000000000000000000000000000000000000000000000000000000000000000000000000000000000000000000000000000000000000000000000000000000000000000000000000000000000000000000000000000000000000000000000000000000000000000000000000000000000000008302000080887fffffffffffffff808203b642a056e81f171bcc55a6ff8345e692c0f86e5b48e01b996cadc001622fb5e363b421880102030405060708c0c0",
        "lastblockhash" : "0x6f676f55cd13ae284c0a19b10fb3d0db163552b8e4b419f9ee7c73b19ac92425",
        "network" : "Homestead",
        "postState" : {
            "0x095e7baea6a6c7c4c2dfeb977efac326af552d87" : {
                "balance" : "0x00",
                "code" : "0x7f0000000000000000000000000000000000000000000000000000000000000001757f000000000000000000000000945304eb96065b2a98b57a48a06ae28d285a71b57a7f000000000000000000000000945304eb96065b2a98b57a48a06ae28d285a71b57f000000000000000000000000945304eb96065b2a98b57a48a06ae28d285a71b5447ffffffffffffffffffffffffffffffffffffffffffffffffffffffffffffffffe83189b60005155",
                "nonce" : "0x00",
                "storage" : {
                }
            },
            "0x945304eb96065b2a98b57a48a06ae28d285a71b5" : {
                "balance" : "0x45639182b3e78b2f",
                "code" : "0x6000355415600957005b60203560003555",
                "nonce" : "0x00",
                "storage" : {
                }
            },
            "0xa94f5374fce5edbc8e2a8697c15331677e6ebf0b" : {
                "balance" : "0x0de0b6b3387074ff",
                "code" : "0x",
                "nonce" : "0x01",
                "storage" : {
                }
            }
        },
        "pre" : {
            "0x095e7baea6a6c7c4c2dfeb977efac326af552d87" : {
                "balance" : "0x00",
                "code" : "0x7f0000000000000000000000000000000000000000000000000000000000000001757f000000000000000000000000945304eb96065b2a98b57a48a06ae28d285a71b57a7f000000000000000000000000945304eb96065b2a98b57a48a06ae28d285a71b57f000000000000000000000000945304eb96065b2a98b57a48a06ae28d285a71b5447ffffffffffffffffffffffffffffffffffffffffffffffffffffffffffffffffe83189b60005155",
                "nonce" : "0x00",
                "storage" : {
                }
            },
            "0x945304eb96065b2a98b57a48a06ae28d285a71b5" : {
                "balance" : "0x2e",
                "code" : "0x6000355415600957005b60203560003555",
                "nonce" : "0x00",
                "storage" : {
                }
            },
            "0xa94f5374fce5edbc8e2a8697c15331677e6ebf0b" : {
                "balance" : "0x0de0b6b3a7640000",
                "code" : "0x",
                "nonce" : "0x00",
                "storage" : {
                }
            }
        },
        "sealEngine" : "NoProof"
    }
}