{
    "randomStatetest204_d0g0v0_Byzantium" : {
        "_info" : {
            "comment" : "",
            "filledwith" : "testeth 1.7.0-alpha.1-20+commit.782a7283",
            "lllcversion" : "Version: 0.5.0-develop.2018.11.9+commit.9709dfe0.Linux.g++",
            "source" : "src/BlockchainTestsFiller/GeneralStateTests/stRandom/randomStatetest204_d0g0v0Filler.json",
            "sourceHash" : "a70e931a6ea435181178ac7cc96765ab85df35fb6bff92187e547b280d2c90a0"
        },
        "blocks" : [
            {
                "blockHeader" : {
                    "bloom" : "0x00000000000000000000000000000000000000000000000000000000000000000000000000000000000000000000000000000000000000000000000000000000000000000000000000000000000000000000000000000000000000000000000000000000000000000000000000000000000000000000000000000000000000000000000000000000000000000000000000000000000000000000000000000000000000000000000000000000000000000000000000000000000000000000000000000000000000000000000000000000000000000000000000000000000000000000000000000000000000000000000000000000000000000000000000000000",
                    "coinbase" : "0x945304eb96065b2a98b57a48a06ae28d285a71b5",
                    "difficulty" : "0x020000",
                    "extraData" : "0x",
                    "gasLimit" : "0x7fffffffffffffff",
                    "gasUsed" : "0xba33",
                    "hash" : "0x0447b980f7c6a82b19e7bd92c988332ab42c5aa9707d612a95c1b53d3cf25173",
                    "mixHash" : "0x0000000000000000000000000000000000000000000000000000000000000000",
                    "nonce" : "0x0000000000000000",
                    "number" : "0x01",
                    "parentHash" : "0x2f48b790c17fb43a73e884b3752bb7b8e78f71a9297306c0ddd3d3730ee812dc",
                    "receiptTrie" : "0x6efaf119a520a128a61413a86c9ada82369021ab073ed51752d531f02d4ccad1",
                    "stateRoot" : "0x527fa99e37972a80fb675477b7274c5b397e399a0f91f042301cc7a4410a10f1",
                    "timestamp" : "0x03e8",
                    "transactionsTrie" : "0xbb98f5d1cf180736da25f3116b117b030c19292fbd2c6cc3d41379259da316d4",
                    "uncleHash" : "0x1dcc4de8dec75d7aab85b567b6ccd41ad312451b948a7413f0a142fd40d49347"
                },
                "rlp" : "0xf90377f901fca02f48b790c17fb43a73e884b3752bb7b8e78f71a9297306c0ddd3d3730ee812dca01dcc4de8dec75d7aab85b567b6ccd41ad312451b948a7413f0a142fd40d4934794945304eb96065b2a98b57a48a06ae28d285a71b5a0527fa99e37972a80fb675477b7274c5b397e399a0f91f042301cc7a4410a10f1a0bb98f5d1cf180736da25f3116b117b030c19292fbd2c6cc3d41379259da316d4a06efaf119a520a128a61413a86c9ada82369021ab073ed51752d531f02d4ccad1b90100000000000000000000000000000000000000000000000000000000000000000000000000000000000000000000000000000000000000000000000000000000000000000000000000000000000000000000000000000000000000000000000000000000000000000000000000000000000000000000000000000000000000000000000000000000000000000000000000000000000000000000000000000000000000000000000000000000000000000000000000000000000000000000000000000000000000000000000000000000000000000000000000000000000000000000000000000000000000000000000000000000000000000000000000000000008302000001887fffffffffffffff82ba338203e880a00000000000000000000000000000000000000000000000000000000000000000880000000000000000f90174f901718001844d39e43794095e7baea6a6c7c4c2dfeb977efac326af552d8784763f0c95b9010a7f000000000000000000000000000000000000000000000000000000000000c3507f00000000000000000000000000000000000000000000000000000000000000017f000000000000000000000000945304eb96065b2a98b57a48a06ae28d285a71b57f00000000000000000000000000000000000000000000000000000000000000007f00000000000000000000000000000000000000000000000000000000000000017fffffffffffffffffffffffffffffffffffffffffffffffffffffffffffffffff7f00000000000000000000000100000000000000000000000000000000000000007f000000000000000000000000ffffffffffffffffffffffffffffffffffffffff09821ba0446a3b3e62cfa66f2ef6b95ebcff500d71078a94f5eab612f256e435c6bfc664a03cbd3398a451c95ca441c7b26ca4b84162415027c59040b5d9df610ce145a7eec0",
                "transactions" : [
                    {
                        "data" : "0x7f000000000000000000000000000000000000000000000000000000000000c3507f00000000000000000000000000000000000000000000000000000000000000017f000000000000000000000000945304eb96065b2a98b57a48a06ae28d285a71b57f00000000000000000000000000000000000000000000000000000000000000007f00000000000000000000000000000000000000000000000000000000000000017fffffffffffffffffffffffffffffffffffffffffffffffffffffffffffffffff7f00000000000000000000000100000000000000000000000000000000000000007f000000000000000000000000ffffffffffffffffffffffffffffffffffffffff0982",
                        "gasLimit" : "0x4d39e437",
                        "gasPrice" : "0x01",
                        "nonce" : "0x00",
                        "r" : "0x446a3b3e62cfa66f2ef6b95ebcff500d71078a94f5eab612f256e435c6bfc664",
                        "s" : "0x3cbd3398a451c95ca441c7b26ca4b84162415027c59040b5d9df610ce145a7ee",
                        "to" : "0x095e7baea6a6c7c4c2dfeb977efac326af552d87",
                        "v" : "0x1b",
                        "value" : "0x763f0c95"
                    }
                ],
                "uncleHeaders" : [
                ]
            }
        ],
        "genesisBlockHeader" : {
            "bloom" : "0x00000000000000000000000000000000000000000000000000000000000000000000000000000000000000000000000000000000000000000000000000000000000000000000000000000000000000000000000000000000000000000000000000000000000000000000000000000000000000000000000000000000000000000000000000000000000000000000000000000000000000000000000000000000000000000000000000000000000000000000000000000000000000000000000000000000000000000000000000000000000000000000000000000000000000000000000000000000000000000000000000000000000000000000000000000000",
            "coinbase" : "0x945304eb96065b2a98b57a48a06ae28d285a71b5",
            "difficulty" : "0x020000",
            "extraData" : "0x42",
            "gasLimit" : "0x7fffffffffffffff",
            "gasUsed" : "0x00",
            "hash" : "0x2f48b790c17fb43a73e884b3752bb7b8e78f71a9297306c0ddd3d3730ee812dc",
            "mixHash" : "0x56e81f171bcc55a6ff8345e692c0f86e5b48e01b996cadc001622fb5e363b421",
            "nonce" : "0x0102030405060708",
            "number" : "0x00",
            "parentHash" : "0x0000000000000000000000000000000000000000000000000000000000000000",
            "receiptTrie" : "0x56e81f171bcc55a6ff8345e692c0f86e5b48e01b996cadc001622fb5e363b421",
            "stateRoot" : "0x29251fefc29ceefca21e673d2458b2f909447a7824dc8b06dfa4bbcb99225285",
            "timestamp" : "0x03b6",
            "transactionsTrie" : "0x56e81f171bcc55a6ff8345e692c0f86e5b48e01b996cadc001622fb5e363b421",
            "uncleHash" : "0x1dcc4de8dec75d7aab85b567b6ccd41ad312451b948a7413f0a142fd40d49347"
        },
        "genesisRLP" : "0xf901fff901faa00000000000000000000000000000000000000000000000000000000000000000a01dcc4de8dec75d7aab85b567b6ccd41ad312451b948a7413f0a142fd40d4934794945304eb96065b2a98b57a48a06ae28d285a71b5a029251fefc29ceefca21e673d2458b2f909447a7824dc8b06dfa4bbcb99225285a056e81f171bcc55a6ff8345e692c0f86e5b48e01b996cadc001622fb5e363b421a056e81f171bcc55a6ff8345e692c0f86e5b48e01b996cadc001622fb5e363b421b90100000000000000000000000000000000000000000000000000000000000000000000000000000000000000000000000000000000000000000000000000000000000000000000000000000000000000000000000000000000000000000000000000000000000000000000000000000000000000000000000000000000000000000000000000000000000000000000000000000000000000000000000000000000000000000000000000000000000000000000000000000000000000000000000000000000000000000000000000000000000000000000000000000000000000000000000000000000000000000000000000000000000000000000000000000000008302000080887fffffffffffffff808203b642a056e81f171bcc55a6ff8345e692c0f86e5b48e01b996cadc001622fb5e363b421880102030405060708c0c0",
        "lastblockhash" : "0x0447b980f7c6a82b19e7bd92c988332ab42c5aa9707d612a95c1b53d3cf25173",
        "network" : "Byzantium",
        "postState" : {
            "0x095e7baea6a6c7c4c2dfeb977efac326af552d87" : {
                "balance" : "0x763f0c95",
                "code" : "0x7f000000000000000000000000000000000000000000000000000000000000c3507f00000000000000000000000000000000000000000000000000000000000000017f000000000000000000000000945304eb96065b2a98b57a48a06ae28d285a71b57f00000000000000000000000000000000000000000000000000000000000000007f00000000000000000000000000000000000000000000000000000000000000017fffffffffffffffffffffffffffffffffffffffffffffffffffffffffffffffff7f00000000000000000000000100000000000000000000000000000000000000007f000000000000000000000000ffffffffffffffffffffffffffffffffffffffff098255",
                "nonce" : "0x00",
                "storage" : {
                    "0x00" : "0xffffffffffffffffffffffff000000000000000000000000ffffffffffffffff"
                }
            },
            "0x945304eb96065b2a98b57a48a06ae28d285a71b5" : {
                "balance" : "0x29a2241af62cba61",
                "code" : "0x6000355415600957005b60203560003555",
                "nonce" : "0x00",
                "storage" : {
                }
            },
            "0xa94f5374fce5edbc8e2a8697c15331677e6ebf0b" : {
                "balance" : "0x0de0b6b331243938",
                "code" : "0x",
                "nonce" : "0x01",
                "storage" : {
                }
            }
        },
        "pre" : {
            "0x095e7baea6a6c7c4c2dfeb977efac326af552d87" : {
                "balance" : "0x00",
                "code" : "0x7f000000000000000000000000000000000000000000000000000000000000c3507f00000000000000000000000000000000000000000000000000000000000000017f000000000000000000000000945304eb96065b2a98b57a48a06ae28d285a71b57f00000000000000000000000000000000000000000000000000000000000000007f00000000000000000000000000000000000000000000000000000000000000017fffffffffffffffffffffffffffffffffffffffffffffffffffffffffffffffff7f00000000000000000000000100000000000000000000000000000000000000007f000000000000000000000000ffffffffffffffffffffffffffffffffffffffff098255",
                "nonce" : "0x00",
                "storage" : {
                }
            },
            "0x945304eb96065b2a98b57a48a06ae28d285a71b5" : {
                "balance" : "0x2e",
                "code" : "0x6000355415600957005b60203560003555",
                "nonce" : "0x00",
                "storage" : {
                }
            },
            "0xa94f5374fce5edbc8e2a8697c15331677e6ebf0b" : {
                "balance" : "0x0de0b6b3a7640000",
                "code" : "0x",
                "nonce" : "0x00",
                "storage" : {
                }
            }
        },
        "sealEngine" : "NoProof"
    },
    "randomStatetest204_d0g0v0_Constantinople" : {
        "_info" : {
            "comment" : "",
            "filledwith" : "testeth 1.7.0-alpha.1-20+commit.782a7283",
            "lllcversion" : "Version: 0.5.0-develop.2018.11.9+commit.9709dfe0.Linux.g++",
            "source" : "src/BlockchainTestsFiller/GeneralStateTests/stRandom/randomStatetest204_d0g0v0Filler.json",
            "sourceHash" : "a70e931a6ea435181178ac7cc96765ab85df35fb6bff92187e547b280d2c90a0"
        },
        "blocks" : [
            {
                "blockHeader" : {
                    "bloom" : "0x00000000000000000000000000000000000000000000000000000000000000000000000000000000000000000000000000000000000000000000000000000000000000000000000000000000000000000000000000000000000000000000000000000000000000000000000000000000000000000000000000000000000000000000000000000000000000000000000000000000000000000000000000000000000000000000000000000000000000000000000000000000000000000000000000000000000000000000000000000000000000000000000000000000000000000000000000000000000000000000000000000000000000000000000000000000",
                    "coinbase" : "0x945304eb96065b2a98b57a48a06ae28d285a71b5",
                    "difficulty" : "0x020000",
                    "extraData" : "0x",
                    "gasLimit" : "0x7fffffffffffffff",
                    "gasUsed" : "0xba33",
                    "hash" : "0xb7585c04ff9568b575e07a5697acdc5bd25d95593c96df16b3f6bf9388adc573",
                    "mixHash" : "0x0000000000000000000000000000000000000000000000000000000000000000",
                    "nonce" : "0x0000000000000000",
                    "number" : "0x01",
                    "parentHash" : "0x2f48b790c17fb43a73e884b3752bb7b8e78f71a9297306c0ddd3d3730ee812dc",
                    "receiptTrie" : "0x6efaf119a520a128a61413a86c9ada82369021ab073ed51752d531f02d4ccad1",
                    "stateRoot" : "0xb1c48369b38ea612efc8a103a908d2ec10f2b8b9e93807618e442984b52643c1",
                    "timestamp" : "0x03e8",
                    "transactionsTrie" : "0xbb98f5d1cf180736da25f3116b117b030c19292fbd2c6cc3d41379259da316d4",
                    "uncleHash" : "0x1dcc4de8dec75d7aab85b567b6ccd41ad312451b948a7413f0a142fd40d49347"
                },
                "rlp" : "0xf90377f901fca02f48b790c17fb43a73e884b3752bb7b8e78f71a9297306c0ddd3d3730ee812dca01dcc4de8dec75d7aab85b567b6ccd41ad312451b948a7413f0a142fd40d4934794945304eb96065b2a98b57a48a06ae28d285a71b5a0b1c48369b38ea612efc8a103a908d2ec10f2b8b9e93807618e442984b52643c1a0bb98f5d1cf180736da25f3116b117b030c19292fbd2c6cc3d41379259da316d4a06efaf119a520a128a61413a86c9ada82369021ab073ed51752d531f02d4ccad1b90100000000000000000000000000000000000000000000000000000000000000000000000000000000000000000000000000000000000000000000000000000000000000000000000000000000000000000000000000000000000000000000000000000000000000000000000000000000000000000000000000000000000000000000000000000000000000000000000000000000000000000000000000000000000000000000000000000000000000000000000000000000000000000000000000000000000000000000000000000000000000000000000000000000000000000000000000000000000000000000000000000000000000000000000000000000008302000001887fffffffffffffff82ba338203e880a00000000000000000000000000000000000000000000000000000000000000000880000000000000000f90174f901718001844d39e43794095e7baea6a6c7c4c2dfeb977efac326af552d8784763f0c95b9010a7f000000000000000000000000000000000000000000000000000000000000c3507f00000000000000000000000000000000000000000000000000000000000000017f000000000000000000000000945304eb96065b2a98b57a48a06ae28d285a71b57f00000000000000000000000000000000000000000000000000000000000000007f00000000000000000000000000000000000000000000000000000000000000017fffffffffffffffffffffffffffffffffffffffffffffffffffffffffffffffff7f00000000000000000000000100000000000000000000000000000000000000007f000000000000000000000000ffffffffffffffffffffffffffffffffffffffff09821ba0446a3b3e62cfa66f2ef6b95ebcff500d71078a94f5eab612f256e435c6bfc664a03cbd3398a451c95ca441c7b26ca4b84162415027c59040b5d9df610ce145a7eec0",
                "transactions" : [
                    {
                        "data" : "0x7f000000000000000000000000000000000000000000000000000000000000c3507f00000000000000000000000000000000000000000000000000000000000000017f000000000000000000000000945304eb96065b2a98b57a48a06ae28d285a71b57f00000000000000000000000000000000000000000000000000000000000000007f00000000000000000000000000000000000000000000000000000000000000017fffffffffffffffffffffffffffffffffffffffffffffffffffffffffffffffff7f00000000000000000000000100000000000000000000000000000000000000007f000000000000000000000000ffffffffffffffffffffffffffffffffffffffff0982",
                        "gasLimit" : "0x4d39e437",
                        "gasPrice" : "0x01",
                        "nonce" : "0x00",
                        "r" : "0x446a3b3e62cfa66f2ef6b95ebcff500d71078a94f5eab612f256e435c6bfc664",
                        "s" : "0x3cbd3398a451c95ca441c7b26ca4b84162415027c59040b5d9df610ce145a7ee",
                        "to" : "0x095e7baea6a6c7c4c2dfeb977efac326af552d87",
                        "v" : "0x1b",
                        "value" : "0x763f0c95"
                    }
                ],
                "uncleHeaders" : [
                ]
            }
        ],
        "genesisBlockHeader" : {
            "bloom" : "0x00000000000000000000000000000000000000000000000000000000000000000000000000000000000000000000000000000000000000000000000000000000000000000000000000000000000000000000000000000000000000000000000000000000000000000000000000000000000000000000000000000000000000000000000000000000000000000000000000000000000000000000000000000000000000000000000000000000000000000000000000000000000000000000000000000000000000000000000000000000000000000000000000000000000000000000000000000000000000000000000000000000000000000000000000000000",
            "coinbase" : "0x945304eb96065b2a98b57a48a06ae28d285a71b5",
            "difficulty" : "0x020000",
            "extraData" : "0x42",
            "gasLimit" : "0x7fffffffffffffff",
            "gasUsed" : "0x00",
            "hash" : "0x2f48b790c17fb43a73e884b3752bb7b8e78f71a9297306c0ddd3d3730ee812dc",
            "mixHash" : "0x56e81f171bcc55a6ff8345e692c0f86e5b48e01b996cadc001622fb5e363b421",
            "nonce" : "0x0102030405060708",
            "number" : "0x00",
            "parentHash" : "0x0000000000000000000000000000000000000000000000000000000000000000",
            "receiptTrie" : "0x56e81f171bcc55a6ff8345e692c0f86e5b48e01b996cadc001622fb5e363b421",
            "stateRoot" : "0x29251fefc29ceefca21e673d2458b2f909447a7824dc8b06dfa4bbcb99225285",
            "timestamp" : "0x03b6",
            "transactionsTrie" : "0x56e81f171bcc55a6ff8345e692c0f86e5b48e01b996cadc001622fb5e363b421",
            "uncleHash" : "0x1dcc4de8dec75d7aab85b567b6ccd41ad312451b948a7413f0a142fd40d49347"
        },
        "genesisRLP" : "0xf901fff901faa00000000000000000000000000000000000000000000000000000000000000000a01dcc4de8dec75d7aab85b567b6ccd41ad312451b948a7413f0a142fd40d4934794945304eb96065b2a98b57a48a06ae28d285a71b5a029251fefc29ceefca21e673d2458b2f909447a7824dc8b06dfa4bbcb99225285a056e81f171bcc55a6ff8345e692c0f86e5b48e01b996cadc001622fb5e363b421a056e81f171bcc55a6ff8345e692c0f86e5b48e01b996cadc001622fb5e363b421b90100000000000000000000000000000000000000000000000000000000000000000000000000000000000000000000000000000000000000000000000000000000000000000000000000000000000000000000000000000000000000000000000000000000000000000000000000000000000000000000000000000000000000000000000000000000000000000000000000000000000000000000000000000000000000000000000000000000000000000000000000000000000000000000000000000000000000000000000000000000000000000000000000000000000000000000000000000000000000000000000000000000000000000000000000000000008302000080887fffffffffffffff808203b642a056e81f171bcc55a6ff8345e692c0f86e5b48e01b996cadc001622fb5e363b421880102030405060708c0c0",
        "lastblockhash" : "0xb7585c04ff9568b575e07a5697acdc5bd25d95593c96df16b3f6bf9388adc573",
        "network" : "Constantinople",
        "postState" : {
            "0x095e7baea6a6c7c4c2dfeb977efac326af552d87" : {
                "balance" : "0x763f0c95",
                "code" : "0x7f000000000000000000000000000000000000000000000000000000000000c3507f00000000000000000000000000000000000000000000000000000000000000017f000000000000000000000000945304eb96065b2a98b57a48a06ae28d285a71b57f00000000000000000000000000000000000000000000000000000000000000007f00000000000000000000000000000000000000000000000000000000000000017fffffffffffffffffffffffffffffffffffffffffffffffffffffffffffffffff7f00000000000000000000000100000000000000000000000000000000000000007f000000000000000000000000ffffffffffffffffffffffffffffffffffffffff098255",
                "nonce" : "0x00",
                "storage" : {
                    "0x00" : "0xffffffffffffffffffffffff000000000000000000000000ffffffffffffffff"
                }
            },
            "0x945304eb96065b2a98b57a48a06ae28d285a71b5" : {
                "balance" : "0x1bc16d674ec8ba61",
                "code" : "0x6000355415600957005b60203560003555",
                "nonce" : "0x00",
                "storage" : {
                }
            },
            "0xa94f5374fce5edbc8e2a8697c15331677e6ebf0b" : {
                "balance" : "0x0de0b6b331243938",
                "code" : "0x",
                "nonce" : "0x01",
                "storage" : {
                }
            }
        },
        "pre" : {
            "0x095e7baea6a6c7c4c2dfeb977efac326af552d87" : {
                "balance" : "0x00",
                "code" : "0x7f000000000000000000000000000000000000000000000000000000000000c3507f00000000000000000000000000000000000000000000000000000000000000017f000000000000000000000000945304eb96065b2a98b57a48a06ae28d285a71b57f00000000000000000000000000000000000000000000000000000000000000007f00000000000000000000000000000000000000000000000000000000000000017fffffffffffffffffffffffffffffffffffffffffffffffffffffffffffffffff7f00000000000000000000000100000000000000000000000000000000000000007f000000000000000000000000ffffffffffffffffffffffffffffffffffffffff098255",
                "nonce" : "0x00",
                "storage" : {
                }
            },
            "0x945304eb96065b2a98b57a48a06ae28d285a71b5" : {
                "balance" : "0x2e",
                "code" : "0x6000355415600957005b60203560003555",
                "nonce" : "0x00",
                "storage" : {
                }
            },
            "0xa94f5374fce5edbc8e2a8697c15331677e6ebf0b" : {
                "balance" : "0x0de0b6b3a7640000",
                "code" : "0x",
                "nonce" : "0x00",
                "storage" : {
                }
            }
        },
        "sealEngine" : "NoProof"
    },
    "randomStatetest204_d0g0v0_ConstantinopleFix" : {
        "_info" : {
            "comment" : "",
            "filledwith" : "testeth 1.7.0-alpha.1-20+commit.782a7283",
            "lllcversion" : "Version: 0.5.0-develop.2018.11.9+commit.9709dfe0.Linux.g++",
            "source" : "src/BlockchainTestsFiller/GeneralStateTests/stRandom/randomStatetest204_d0g0v0Filler.json",
            "sourceHash" : "a70e931a6ea435181178ac7cc96765ab85df35fb6bff92187e547b280d2c90a0"
        },
        "blocks" : [
            {
                "blockHeader" : {
                    "bloom" : "0x00000000000000000000000000000000000000000000000000000000000000000000000000000000000000000000000000000000000000000000000000000000000000000000000000000000000000000000000000000000000000000000000000000000000000000000000000000000000000000000000000000000000000000000000000000000000000000000000000000000000000000000000000000000000000000000000000000000000000000000000000000000000000000000000000000000000000000000000000000000000000000000000000000000000000000000000000000000000000000000000000000000000000000000000000000000",
                    "coinbase" : "0x945304eb96065b2a98b57a48a06ae28d285a71b5",
                    "difficulty" : "0x020000",
                    "extraData" : "0x",
                    "gasLimit" : "0x7fffffffffffffff",
                    "gasUsed" : "0xba33",
                    "hash" : "0xb7585c04ff9568b575e07a5697acdc5bd25d95593c96df16b3f6bf9388adc573",
                    "mixHash" : "0x0000000000000000000000000000000000000000000000000000000000000000",
                    "nonce" : "0x0000000000000000",
                    "number" : "0x01",
                    "parentHash" : "0x2f48b790c17fb43a73e884b3752bb7b8e78f71a9297306c0ddd3d3730ee812dc",
                    "receiptTrie" : "0x6efaf119a520a128a61413a86c9ada82369021ab073ed51752d531f02d4ccad1",
                    "stateRoot" : "0xb1c48369b38ea612efc8a103a908d2ec10f2b8b9e93807618e442984b52643c1",
                    "timestamp" : "0x03e8",
                    "transactionsTrie" : "0xbb98f5d1cf180736da25f3116b117b030c19292fbd2c6cc3d41379259da316d4",
                    "uncleHash" : "0x1dcc4de8dec75d7aab85b567b6ccd41ad312451b948a7413f0a142fd40d49347"
                },
                "rlp" : "0xf90377f901fca02f48b790c17fb43a73e884b3752bb7b8e78f71a9297306c0ddd3d3730ee812dca01dcc4de8dec75d7aab85b567b6ccd41ad312451b948a7413f0a142fd40d4934794945304eb96065b2a98b57a48a06ae28d285a71b5a0b1c48369b38ea612efc8a103a908d2ec10f2b8b9e93807618e442984b52643c1a0bb98f5d1cf180736da25f3116b117b030c19292fbd2c6cc3d41379259da316d4a06efaf119a520a128a61413a86c9ada82369021ab073ed51752d531f02d4ccad1b90100000000000000000000000000000000000000000000000000000000000000000000000000000000000000000000000000000000000000000000000000000000000000000000000000000000000000000000000000000000000000000000000000000000000000000000000000000000000000000000000000000000000000000000000000000000000000000000000000000000000000000000000000000000000000000000000000000000000000000000000000000000000000000000000000000000000000000000000000000000000000000000000000000000000000000000000000000000000000000000000000000000000000000000000000000000008302000001887fffffffffffffff82ba338203e880a00000000000000000000000000000000000000000000000000000000000000000880000000000000000f90174f901718001844d39e43794095e7baea6a6c7c4c2dfeb977efac326af552d8784763f0c95b9010a7f000000000000000000000000000000000000000000000000000000000000c3507f00000000000000000000000000000000000000000000000000000000000000017f000000000000000000000000945304eb96065b2a98b57a48a06ae28d285a71b57f00000000000000000000000000000000000000000000000000000000000000007f00000000000000000000000000000000000000000000000000000000000000017fffffffffffffffffffffffffffffffffffffffffffffffffffffffffffffffff7f00000000000000000000000100000000000000000000000000000000000000007f000000000000000000000000ffffffffffffffffffffffffffffffffffffffff09821ba0446a3b3e62cfa66f2ef6b95ebcff500d71078a94f5eab612f256e435c6bfc664a03cbd3398a451c95ca441c7b26ca4b84162415027c59040b5d9df610ce145a7eec0",
                "transactions" : [
                    {
                        "data" : "0x7f000000000000000000000000000000000000000000000000000000000000c3507f00000000000000000000000000000000000000000000000000000000000000017f000000000000000000000000945304eb96065b2a98b57a48a06ae28d285a71b57f00000000000000000000000000000000000000000000000000000000000000007f00000000000000000000000000000000000000000000000000000000000000017fffffffffffffffffffffffffffffffffffffffffffffffffffffffffffffffff7f00000000000000000000000100000000000000000000000000000000000000007f000000000000000000000000ffffffffffffffffffffffffffffffffffffffff0982",
                        "gasLimit" : "0x4d39e437",
                        "gasPrice" : "0x01",
                        "nonce" : "0x00",
                        "r" : "0x446a3b3e62cfa66f2ef6b95ebcff500d71078a94f5eab612f256e435c6bfc664",
                        "s" : "0x3cbd3398a451c95ca441c7b26ca4b84162415027c59040b5d9df610ce145a7ee",
                        "to" : "0x095e7baea6a6c7c4c2dfeb977efac326af552d87",
                        "v" : "0x1b",
                        "value" : "0x763f0c95"
                    }
                ],
                "uncleHeaders" : [
                ]
            }
        ],
        "genesisBlockHeader" : {
            "bloom" : "0x00000000000000000000000000000000000000000000000000000000000000000000000000000000000000000000000000000000000000000000000000000000000000000000000000000000000000000000000000000000000000000000000000000000000000000000000000000000000000000000000000000000000000000000000000000000000000000000000000000000000000000000000000000000000000000000000000000000000000000000000000000000000000000000000000000000000000000000000000000000000000000000000000000000000000000000000000000000000000000000000000000000000000000000000000000000",
            "coinbase" : "0x945304eb96065b2a98b57a48a06ae28d285a71b5",
            "difficulty" : "0x020000",
            "extraData" : "0x42",
            "gasLimit" : "0x7fffffffffffffff",
            "gasUsed" : "0x00",
            "hash" : "0x2f48b790c17fb43a73e884b3752bb7b8e78f71a9297306c0ddd3d3730ee812dc",
            "mixHash" : "0x56e81f171bcc55a6ff8345e692c0f86e5b48e01b996cadc001622fb5e363b421",
            "nonce" : "0x0102030405060708",
            "number" : "0x00",
            "parentHash" : "0x0000000000000000000000000000000000000000000000000000000000000000",
            "receiptTrie" : "0x56e81f171bcc55a6ff8345e692c0f86e5b48e01b996cadc001622fb5e363b421",
            "stateRoot" : "0x29251fefc29ceefca21e673d2458b2f909447a7824dc8b06dfa4bbcb99225285",
            "timestamp" : "0x03b6",
            "transactionsTrie" : "0x56e81f171bcc55a6ff8345e692c0f86e5b48e01b996cadc001622fb5e363b421",
            "uncleHash" : "0x1dcc4de8dec75d7aab85b567b6ccd41ad312451b948a7413f0a142fd40d49347"
        },
        "genesisRLP" : "0xf901fff901faa00000000000000000000000000000000000000000000000000000000000000000a01dcc4de8dec75d7aab85b567b6ccd41ad312451b948a7413f0a142fd40d4934794945304eb96065b2a98b57a48a06ae28d285a71b5a029251fefc29ceefca21e673d2458b2f909447a7824dc8b06dfa4bbcb99225285a056e81f171bcc55a6ff8345e692c0f86e5b48e01b996cadc001622fb5e363b421a056e81f171bcc55a6ff8345e692c0f86e5b48e01b996cadc001622fb5e363b421b90100000000000000000000000000000000000000000000000000000000000000000000000000000000000000000000000000000000000000000000000000000000000000000000000000000000000000000000000000000000000000000000000000000000000000000000000000000000000000000000000000000000000000000000000000000000000000000000000000000000000000000000000000000000000000000000000000000000000000000000000000000000000000000000000000000000000000000000000000000000000000000000000000000000000000000000000000000000000000000000000000000000000000000000000000000000008302000080887fffffffffffffff808203b642a056e81f171bcc55a6ff8345e692c0f86e5b48e01b996cadc001622fb5e363b421880102030405060708c0c0",
        "lastblockhash" : "0xb7585c04ff9568b575e07a5697acdc5bd25d95593c96df16b3f6bf9388adc573",
        "network" : "ConstantinopleFix",
        "postState" : {
            "0x095e7baea6a6c7c4c2dfeb977efac326af552d87" : {
                "balance" : "0x763f0c95",
                "code" : "0x7f000000000000000000000000000000000000000000000000000000000000c3507f00000000000000000000000000000000000000000000000000000000000000017f000000000000000000000000945304eb96065b2a98b57a48a06ae28d285a71b57f00000000000000000000000000000000000000000000000000000000000000007f00000000000000000000000000000000000000000000000000000000000000017fffffffffffffffffffffffffffffffffffffffffffffffffffffffffffffffff7f00000000000000000000000100000000000000000000000000000000000000007f000000000000000000000000ffffffffffffffffffffffffffffffffffffffff098255",
                "nonce" : "0x00",
                "storage" : {
                    "0x00" : "0xffffffffffffffffffffffff000000000000000000000000ffffffffffffffff"
                }
            },
            "0x945304eb96065b2a98b57a48a06ae28d285a71b5" : {
                "balance" : "0x1bc16d674ec8ba61",
                "code" : "0x6000355415600957005b60203560003555",
                "nonce" : "0x00",
                "storage" : {
                }
            },
            "0xa94f5374fce5edbc8e2a8697c15331677e6ebf0b" : {
                "balance" : "0x0de0b6b331243938",
                "code" : "0x",
                "nonce" : "0x01",
                "storage" : {
                }
            }
        },
        "pre" : {
            "0x095e7baea6a6c7c4c2dfeb977efac326af552d87" : {
                "balance" : "0x00",
                "code" : "0x7f000000000000000000000000000000000000000000000000000000000000c3507f00000000000000000000000000000000000000000000000000000000000000017f000000000000000000000000945304eb96065b2a98b57a48a06ae28d285a71b57f00000000000000000000000000000000000000000000000000000000000000007f00000000000000000000000000000000000000000000000000000000000000017fffffffffffffffffffffffffffffffffffffffffffffffffffffffffffffffff7f00000000000000000000000100000000000000000000000000000000000000007f000000000000000000000000ffffffffffffffffffffffffffffffffffffffff098255",
                "nonce" : "0x00",
                "storage" : {
                }
            },
            "0x945304eb96065b2a98b57a48a06ae28d285a71b5" : {
                "balance" : "0x2e",
                "code" : "0x6000355415600957005b60203560003555",
                "nonce" : "0x00",
                "storage" : {
                }
            },
            "0xa94f5374fce5edbc8e2a8697c15331677e6ebf0b" : {
                "balance" : "0x0de0b6b3a7640000",
                "code" : "0x",
                "nonce" : "0x00",
                "storage" : {
                }
            }
        },
        "sealEngine" : "NoProof"
    },
    "randomStatetest204_d0g0v0_Homestead" : {
        "_info" : {
            "comment" : "",
            "filledwith" : "testeth 1.7.0-alpha.1-20+commit.782a7283",
            "lllcversion" : "Version: 0.5.0-develop.2018.11.9+commit.9709dfe0.Linux.g++",
            "source" : "src/BlockchainTestsFiller/GeneralStateTests/stRandom/randomStatetest204_d0g0v0Filler.json",
            "sourceHash" : "a70e931a6ea435181178ac7cc96765ab85df35fb6bff92187e547b280d2c90a0"
        },
        "blocks" : [
            {
                "blockHeader" : {
                    "bloom" : "0x00000000000000000000000000000000000000000000000000000000000000000000000000000000000000000000000000000000000000000000000000000000000000000000000000000000000000000000000000000000000000000000000000000000000000000000000000000000000000000000000000000000000000000000000000000000000000000000000000000000000000000000000000000000000000000000000000000000000000000000000000000000000000000000000000000000000000000000000000000000000000000000000000000000000000000000000000000000000000000000000000000000000000000000000000000000",
                    "coinbase" : "0x945304eb96065b2a98b57a48a06ae28d285a71b5",
                    "difficulty" : "0x020000",
                    "extraData" : "0x",
                    "gasLimit" : "0x7fffffffffffffff",
                    "gasUsed" : "0xba33",
                    "hash" : "0xc11cad026781f0e5edefe8e0579ec928eb0c0b56ed610c82218613e85318a810",
                    "mixHash" : "0x0000000000000000000000000000000000000000000000000000000000000000",
                    "nonce" : "0x0000000000000000",
                    "number" : "0x01",
                    "parentHash" : "0x2f48b790c17fb43a73e884b3752bb7b8e78f71a9297306c0ddd3d3730ee812dc",
                    "receiptTrie" : "0xe32f8c6ea30535709bef929273aaa85349f595ac4f39e13ccb4626592af472c9",
                    "stateRoot" : "0x3c131abc8910fccc9130a2068596b41c9b0aab44757f3304d4c16fe1de8660e3",
                    "timestamp" : "0x03e8",
                    "transactionsTrie" : "0xbb98f5d1cf180736da25f3116b117b030c19292fbd2c6cc3d41379259da316d4",
                    "uncleHash" : "0x1dcc4de8dec75d7aab85b567b6ccd41ad312451b948a7413f0a142fd40d49347"
                },
                "rlp" : "0xf90377f901fca02f48b790c17fb43a73e884b3752bb7b8e78f71a9297306c0ddd3d3730ee812dca01dcc4de8dec75d7aab85b567b6ccd41ad312451b948a7413f0a142fd40d4934794945304eb96065b2a98b57a48a06ae28d285a71b5a03c131abc8910fccc9130a2068596b41c9b0aab44757f3304d4c16fe1de8660e3a0bb98f5d1cf180736da25f3116b117b030c19292fbd2c6cc3d41379259da316d4a0e32f8c6ea30535709bef929273aaa85349f595ac4f39e13ccb4626592af472c9b90100000000000000000000000000000000000000000000000000000000000000000000000000000000000000000000000000000000000000000000000000000000000000000000000000000000000000000000000000000000000000000000000000000000000000000000000000000000000000000000000000000000000000000000000000000000000000000000000000000000000000000000000000000000000000000000000000000000000000000000000000000000000000000000000000000000000000000000000000000000000000000000000000000000000000000000000000000000000000000000000000000000000000000000000000000000008302000001887fffffffffffffff82ba338203e880a00000000000000000000000000000000000000000000000000000000000000000880000000000000000f90174f901718001844d39e43794095e7baea6a6c7c4c2dfeb977efac326af552d8784763f0c95b9010a7f000000000000000000000000000000000000000000000000000000000000c3507f00000000000000000000000000000000000000000000000000000000000000017f000000000000000000000000945304eb96065b2a98b57a48a06ae28d285a71b57f00000000000000000000000000000000000000000000000000000000000000007f00000000000000000000000000000000000000000000000000000000000000017fffffffffffffffffffffffffffffffffffffffffffffffffffffffffffffffff7f00000000000000000000000100000000000000000000000000000000000000007f000000000000000000000000ffffffffffffffffffffffffffffffffffffffff09821ba0446a3b3e62cfa66f2ef6b95ebcff500d71078a94f5eab612f256e435c6bfc664a03cbd3398a451c95ca441c7b26ca4b84162415027c59040b5d9df610ce145a7eec0",
                "transactions" : [
                    {
                        "data" : "0x7f000000000000000000000000000000000000000000000000000000000000c3507f00000000000000000000000000000000000000000000000000000000000000017f000000000000000000000000945304eb96065b2a98b57a48a06ae28d285a71b57f00000000000000000000000000000000000000000000000000000000000000007f00000000000000000000000000000000000000000000000000000000000000017fffffffffffffffffffffffffffffffffffffffffffffffffffffffffffffffff7f00000000000000000000000100000000000000000000000000000000000000007f000000000000000000000000ffffffffffffffffffffffffffffffffffffffff0982",
                        "gasLimit" : "0x4d39e437",
                        "gasPrice" : "0x01",
                        "nonce" : "0x00",
                        "r" : "0x446a3b3e62cfa66f2ef6b95ebcff500d71078a94f5eab612f256e435c6bfc664",
                        "s" : "0x3cbd3398a451c95ca441c7b26ca4b84162415027c59040b5d9df610ce145a7ee",
                        "to" : "0x095e7baea6a6c7c4c2dfeb977efac326af552d87",
                        "v" : "0x1b",
                        "value" : "0x763f0c95"
                    }
                ],
                "uncleHeaders" : [
                ]
            }
        ],
        "genesisBlockHeader" : {
            "bloom" : "0x00000000000000000000000000000000000000000000000000000000000000000000000000000000000000000000000000000000000000000000000000000000000000000000000000000000000000000000000000000000000000000000000000000000000000000000000000000000000000000000000000000000000000000000000000000000000000000000000000000000000000000000000000000000000000000000000000000000000000000000000000000000000000000000000000000000000000000000000000000000000000000000000000000000000000000000000000000000000000000000000000000000000000000000000000000000",
            "coinbase" : "0x945304eb96065b2a98b57a48a06ae28d285a71b5",
            "difficulty" : "0x020000",
            "extraData" : "0x42",
            "gasLimit" : "0x7fffffffffffffff",
            "gasUsed" : "0x00",
            "hash" : "0x2f48b790c17fb43a73e884b3752bb7b8e78f71a9297306c0ddd3d3730ee812dc",
            "mixHash" : "0x56e81f171bcc55a6ff8345e692c0f86e5b48e01b996cadc001622fb5e363b421",
            "nonce" : "0x0102030405060708",
            "number" : "0x00",
            "parentHash" : "0x0000000000000000000000000000000000000000000000000000000000000000",
            "receiptTrie" : "0x56e81f171bcc55a6ff8345e692c0f86e5b48e01b996cadc001622fb5e363b421",
            "stateRoot" : "0x29251fefc29ceefca21e673d2458b2f909447a7824dc8b06dfa4bbcb99225285",
            "timestamp" : "0x03b6",
            "transactionsTrie" : "0x56e81f171bcc55a6ff8345e692c0f86e5b48e01b996cadc001622fb5e363b421",
            "uncleHash" : "0x1dcc4de8dec75d7aab85b567b6ccd41ad312451b948a7413f0a142fd40d49347"
        },
        "genesisRLP" : "0xf901fff901faa00000000000000000000000000000000000000000000000000000000000000000a01dcc4de8dec75d7aab85b567b6ccd41ad312451b948a7413f0a142fd40d4934794945304eb96065b2a98b57a48a06ae28d285a71b5a029251fefc29ceefca21e673d2458b2f909447a7824dc8b06dfa4bbcb99225285a056e81f171bcc55a6ff8345e692c0f86e5b48e01b996cadc001622fb5e363b421a056e81f171bcc55a6ff8345e692c0f86e5b48e01b996cadc001622fb5e363b421b90100000000000000000000000000000000000000000000000000000000000000000000000000000000000000000000000000000000000000000000000000000000000000000000000000000000000000000000000000000000000000000000000000000000000000000000000000000000000000000000000000000000000000000000000000000000000000000000000000000000000000000000000000000000000000000000000000000000000000000000000000000000000000000000000000000000000000000000000000000000000000000000000000000000000000000000000000000000000000000000000000000000000000000000000000000000008302000080887fffffffffffffff808203b642a056e81f171bcc55a6ff8345e692c0f86e5b48e01b996cadc001622fb5e363b421880102030405060708c0c0",
        "lastblockhash" : "0xc11cad026781f0e5edefe8e0579ec928eb0c0b56ed610c82218613e85318a810",
        "network" : "Homestead",
        "postState" : {
            "0x095e7baea6a6c7c4c2dfeb977efac326af552d87" : {
                "balance" : "0x763f0c95",
                "code" : "0x7f000000000000000000000000000000000000000000000000000000000000c3507f00000000000000000000000000000000000000000000000000000000000000017f000000000000000000000000945304eb96065b2a98b57a48a06ae28d285a71b57f00000000000000000000000000000000000000000000000000000000000000007f00000000000000000000000000000000000000000000000000000000000000017fffffffffffffffffffffffffffffffffffffffffffffffffffffffffffffffff7f00000000000000000000000100000000000000000000000000000000000000007f000000000000000000000000ffffffffffffffffffffffffffffffffffffffff098255",
                "nonce" : "0x00",
                "storage" : {
                    "0x00" : "0xffffffffffffffffffffffff000000000000000000000000ffffffffffffffff"
                }
            },
            "0x945304eb96065b2a98b57a48a06ae28d285a71b5" : {
                "balance" : "0x4563918244f4ba61",
                "code" : "0x6000355415600957005b60203560003555",
                "nonce" : "0x00",
                "storage" : {
                }
            },
            "0xa94f5374fce5edbc8e2a8697c15331677e6ebf0b" : {
                "balance" : "0x0de0b6b331243938",
                "code" : "0x",
                "nonce" : "0x01",
                "storage" : {
                }
            }
        },
        "pre" : {
            "0x095e7baea6a6c7c4c2dfeb977efac326af552d87" : {
                "balance" : "0x00",
                "code" : "0x7f000000000000000000000000000000000000000000000000000000000000c3507f00000000000000000000000000000000000000000000000000000000000000017f000000000000000000000000945304eb96065b2a98b57a48a06ae28d285a71b57f00000000000000000000000000000000000000000000000000000000000000007f00000000000000000000000000000000000000000000000000000000000000017fffffffffffffffffffffffffffffffffffffffffffffffffffffffffffffffff7f00000000000000000000000100000000000000000000000000000000000000007f000000000000000000000000ffffffffffffffffffffffffffffffffffffffff098255",
                "nonce" : "0x00",
                "storage" : {
                }
            },
            "0x945304eb96065b2a98b57a48a06ae28d285a71b5" : {
                "balance" : "0x2e",
                "code" : "0x6000355415600957005b60203560003555",
                "nonce" : "0x00",
                "storage" : {
                }
            },
            "0xa94f5374fce5edbc8e2a8697c15331677e6ebf0b" : {
                "balance" : "0x0de0b6b3a7640000",
                "code" : "0x",
                "nonce" : "0x00",
                "storage" : {
                }
            }
        },
        "sealEngine" : "NoProof"
    }
}