{
    "shallowStack_d30g0v0_Byzantium" : {
        "_info" : {
            "comment" : "",
            "filledwith" : "testeth 1.7.0-alpha.1-20+commit.782a7283",
            "lllcversion" : "Version: 0.5.0-develop.2018.11.9+commit.9709dfe0.Linux.g++",
            "source" : "src/BlockchainTestsFiller/GeneralStateTests/stStackTests/shallowStack_d30g0v0Filler.json",
            "sourceHash" : "ce4af35995e534fdf2d26bc12225076afe5ca32bc59b6f5e6126bfa9b7f02093"
        },
        "blocks" : [
            {
                "blockHeader" : {
                    "bloom" : "0x00000000000000000000000000000000000000000000000000000000000000000000000000000000000000000000000000000000000000000000000000000000000000000000000000000000000000000000000000000000000000000000000000000000000000000000000000000000000000000000000000000000000000000000000000000000000000000000000000000000000000000000000000000000000000000000000000000000000000000000000000000000000000000000000000000000000000000000000000000000000000000000000000000000000000000000000000000000000000000000000000000000000000000000000000000000",
                    "coinbase" : "0x2adc25665018aa1fe0e6bc666dac8fc2697ff9ba",
                    "difficulty" : "0x020000",
                    "extraData" : "0x",
                    "gasLimit" : "0x0a00000000",
                    "gasUsed" : "0x0493e0",
                    "hash" : "0xd8ed94e91a48624403da9ff5ea429dfb1e127217cd8021fd9ef627a257c7c86a",
                    "mixHash" : "0x0000000000000000000000000000000000000000000000000000000000000000",
                    "nonce" : "0x0000000000000000",
                    "number" : "0x01",
                    "parentHash" : "0xbf82cec88667ba7112d825fdde9b12f69a584c0d88a818f72cf533860eef9d12",
                    "receiptTrie" : "0xe2a8b0fa171b989aab37eee4a349917e9c93607fc5c7b07513cf8997ec83e8bf",
                    "stateRoot" : "0x6e6a1754fef6fb7a69dc5973eb616dc6b7a2e6ccef04a3bc3e9f3a0f37a65d30",
                    "timestamp" : "0x03e8",
                    "transactionsTrie" : "0xe6514a49cc0a80f2915dd1ee1ecf4eb36c33f1ce34efe007ada77cf594af4ee0",
                    "uncleHash" : "0x1dcc4de8dec75d7aab85b567b6ccd41ad312451b948a7413f0a142fd40d49347"
                },
                "rlp" : "0xf90252f901faa0bf82cec88667ba7112d825fdde9b12f69a584c0d88a818f72cf533860eef9d12a01dcc4de8dec75d7aab85b567b6ccd41ad312451b948a7413f0a142fd40d49347942adc25665018aa1fe0e6bc666dac8fc2697ff9baa06e6a1754fef6fb7a69dc5973eb616dc6b7a2e6ccef04a3bc3e9f3a0f37a65d30a0e6514a49cc0a80f2915dd1ee1ecf4eb36c33f1ce34efe007ada77cf594af4ee0a0e2a8b0fa171b989aab37eee4a349917e9c93607fc5c7b07513cf8997ec83e8bfb90100000000000000000000000000000000000000000000000000000000000000000000000000000000000000000000000000000000000000000000000000000000000000000000000000000000000000000000000000000000000000000000000000000000000000000000000000000000000000000000000000000000000000000000000000000000000000000000000000000000000000000000000000000000000000000000000000000000000000000000000000000000000000000000000000000000000000000000000000000000000000000000000000000000000000000000000000000000000000000000000000000000000000000000000000000000008302000001850a00000000830493e08203e880a00000000000000000000000000000000000000000000000000000000000000000880000000000000000f852f8508001830493e0808084506000551ba02e0ca203dd7a5e58bf9bffb3ea6f5fd2e8d988a72037e9ccf65651f20ed710c6a066e4e5529772fe3ca5988872818ad7d6833dff5a4f8ac54103b82af5832dc747c0",
                "transactions" : [
                    {
                        "data" : "0x50600055",
                        "gasLimit" : "0x0493e0",
                        "gasPrice" : "0x01",
                        "nonce" : "0x00",
                        "r" : "0x2e0ca203dd7a5e58bf9bffb3ea6f5fd2e8d988a72037e9ccf65651f20ed710c6",
                        "s" : "0x66e4e5529772fe3ca5988872818ad7d6833dff5a4f8ac54103b82af5832dc747",
                        "to" : "",
                        "v" : "0x1b",
                        "value" : "0x00"
                    }
                ],
                "uncleHeaders" : [
                ]
            }
        ],
        "genesisBlockHeader" : {
            "bloom" : "0x00000000000000000000000000000000000000000000000000000000000000000000000000000000000000000000000000000000000000000000000000000000000000000000000000000000000000000000000000000000000000000000000000000000000000000000000000000000000000000000000000000000000000000000000000000000000000000000000000000000000000000000000000000000000000000000000000000000000000000000000000000000000000000000000000000000000000000000000000000000000000000000000000000000000000000000000000000000000000000000000000000000000000000000000000000000",
            "coinbase" : "0x2adc25665018aa1fe0e6bc666dac8fc2697ff9ba",
            "difficulty" : "0x020000",
            "extraData" : "0x42",
            "gasLimit" : "0x0a00000000",
            "gasUsed" : "0x00",
            "hash" : "0xbf82cec88667ba7112d825fdde9b12f69a584c0d88a818f72cf533860eef9d12",
            "mixHash" : "0x56e81f171bcc55a6ff8345e692c0f86e5b48e01b996cadc001622fb5e363b421",
            "nonce" : "0x0102030405060708",
            "number" : "0x00",
            "parentHash" : "0x0000000000000000000000000000000000000000000000000000000000000000",
            "receiptTrie" : "0x56e81f171bcc55a6ff8345e692c0f86e5b48e01b996cadc001622fb5e363b421",
            "stateRoot" : "0x008ee04e394b2d73709f97316aceb055e1ef425cf2cc18511254b3b024842b89",
            "timestamp" : "0x03b6",
            "transactionsTrie" : "0x56e81f171bcc55a6ff8345e692c0f86e5b48e01b996cadc001622fb5e363b421",
            "uncleHash" : "0x1dcc4de8dec75d7aab85b567b6ccd41ad312451b948a7413f0a142fd40d49347"
        },
        "genesisRLP" : "0xf901fcf901f7a00000000000000000000000000000000000000000000000000000000000000000a01dcc4de8dec75d7aab85b567b6ccd41ad312451b948a7413f0a142fd40d49347942adc25665018aa1fe0e6bc666dac8fc2697ff9baa0008ee04e394b2d73709f97316aceb055e1ef425cf2cc18511254b3b024842b89a056e81f171bcc55a6ff8345e692c0f86e5b48e01b996cadc001622fb5e363b421a056e81f171bcc55a6ff8345e692c0f86e5b48e01b996cadc001622fb5e363b421b90100000000000000000000000000000000000000000000000000000000000000000000000000000000000000000000000000000000000000000000000000000000000000000000000000000000000000000000000000000000000000000000000000000000000000000000000000000000000000000000000000000000000000000000000000000000000000000000000000000000000000000000000000000000000000000000000000000000000000000000000000000000000000000000000000000000000000000000000000000000000000000000000000000000000000000000000000000000000000000000000000000000000000000000000000000000008302000080850a00000000808203b642a056e81f171bcc55a6ff8345e692c0f86e5b48e01b996cadc001622fb5e363b421880102030405060708c0c0",
        "lastblockhash" : "0xd8ed94e91a48624403da9ff5ea429dfb1e127217cd8021fd9ef627a257c7c86a",
        "network" : "Byzantium",
        "postState" : {
            "0x2adc25665018aa1fe0e6bc666dac8fc2697ff9ba" : {
                "balance" : "0x29a2241af63093e0",
                "code" : "0x",
                "nonce" : "0x00",
                "storage" : {
                }
            },
            "0xa94f5374fce5edbc8e2a8697c15331677e6ebf0b" : {
                "balance" : "0x270ffffb6c20",
                "code" : "0x",
                "nonce" : "0x01",
                "storage" : {
                }
            }
        },
        "pre" : {
            "0xa94f5374fce5edbc8e2a8697c15331677e6ebf0b" : {
                "balance" : "0x271000000000",
                "code" : "0x",
                "nonce" : "0x00",
                "storage" : {
                }
            }
        },
        "sealEngine" : "NoProof"
    },
    "shallowStack_d30g0v0_Constantinople" : {
        "_info" : {
            "comment" : "",
            "filledwith" : "testeth 1.7.0-alpha.1-20+commit.782a7283",
            "lllcversion" : "Version: 0.5.0-develop.2018.11.9+commit.9709dfe0.Linux.g++",
            "source" : "src/BlockchainTestsFiller/GeneralStateTests/stStackTests/shallowStack_d30g0v0Filler.json",
            "sourceHash" : "ce4af35995e534fdf2d26bc12225076afe5ca32bc59b6f5e6126bfa9b7f02093"
        },
        "blocks" : [
            {
                "blockHeader" : {
                    "bloom" : "0x00000000000000000000000000000000000000000000000000000000000000000000000000000000000000000000000000000000000000000000000000000000000000000000000000000000000000000000000000000000000000000000000000000000000000000000000000000000000000000000000000000000000000000000000000000000000000000000000000000000000000000000000000000000000000000000000000000000000000000000000000000000000000000000000000000000000000000000000000000000000000000000000000000000000000000000000000000000000000000000000000000000000000000000000000000000",
                    "coinbase" : "0x2adc25665018aa1fe0e6bc666dac8fc2697ff9ba",
                    "difficulty" : "0x020000",
                    "extraData" : "0x",
                    "gasLimit" : "0x0a00000000",
                    "gasUsed" : "0x0493e0",
                    "hash" : "0x14071b37fca70beb3635eb2ca5206903c9735c6923efe1f01a81f7418dfe4a9b",
                    "mixHash" : "0x0000000000000000000000000000000000000000000000000000000000000000",
                    "nonce" : "0x0000000000000000",
                    "number" : "0x01",
                    "parentHash" : "0xbf82cec88667ba7112d825fdde9b12f69a584c0d88a818f72cf533860eef9d12",
                    "receiptTrie" : "0xe2a8b0fa171b989aab37eee4a349917e9c93607fc5c7b07513cf8997ec83e8bf",
                    "stateRoot" : "0x0ef73b3dfb81d61a1a34c9a4ee8f385dc9ea92ed536281cccea1a8b42c5d013f",
                    "timestamp" : "0x03e8",
                    "transactionsTrie" : "0xe6514a49cc0a80f2915dd1ee1ecf4eb36c33f1ce34efe007ada77cf594af4ee0",
                    "uncleHash" : "0x1dcc4de8dec75d7aab85b567b6ccd41ad312451b948a7413f0a142fd40d49347"
                },
                "rlp" : "0xf90252f901faa0bf82cec88667ba7112d825fdde9b12f69a584c0d88a818f72cf533860eef9d12a01dcc4de8dec75d7aab85b567b6ccd41ad312451b948a7413f0a142fd40d49347942adc25665018aa1fe0e6bc666dac8fc2697ff9baa00ef73b3dfb81d61a1a34c9a4ee8f385dc9ea92ed536281cccea1a8b42c5d013fa0e6514a49cc0a80f2915dd1ee1ecf4eb36c33f1ce34efe007ada77cf594af4ee0a0e2a8b0fa171b989aab37eee4a349917e9c93607fc5c7b07513cf8997ec83e8bfb90100000000000000000000000000000000000000000000000000000000000000000000000000000000000000000000000000000000000000000000000000000000000000000000000000000000000000000000000000000000000000000000000000000000000000000000000000000000000000000000000000000000000000000000000000000000000000000000000000000000000000000000000000000000000000000000000000000000000000000000000000000000000000000000000000000000000000000000000000000000000000000000000000000000000000000000000000000000000000000000000000000000000000000000000000000000008302000001850a00000000830493e08203e880a00000000000000000000000000000000000000000000000000000000000000000880000000000000000f852f8508001830493e0808084506000551ba02e0ca203dd7a5e58bf9bffb3ea6f5fd2e8d988a72037e9ccf65651f20ed710c6a066e4e5529772fe3ca5988872818ad7d6833dff5a4f8ac54103b82af5832dc747c0",
                "transactions" : [
                    {
                        "data" : "0x50600055",
                        "gasLimit" : "0x0493e0",
                        "gasPrice" : "0x01",
                        "nonce" : "0x00",
                        "r" : "0x2e0ca203dd7a5e58bf9bffb3ea6f5fd2e8d988a72037e9ccf65651f20ed710c6",
                        "s" : "0x66e4e5529772fe3ca5988872818ad7d6833dff5a4f8ac54103b82af5832dc747",
                        "to" : "",
                        "v" : "0x1b",
                        "value" : "0x00"
                    }
                ],
                "uncleHeaders" : [
                ]
            }
        ],
        "genesisBlockHeader" : {
            "bloom" : "0x00000000000000000000000000000000000000000000000000000000000000000000000000000000000000000000000000000000000000000000000000000000000000000000000000000000000000000000000000000000000000000000000000000000000000000000000000000000000000000000000000000000000000000000000000000000000000000000000000000000000000000000000000000000000000000000000000000000000000000000000000000000000000000000000000000000000000000000000000000000000000000000000000000000000000000000000000000000000000000000000000000000000000000000000000000000",
            "coinbase" : "0x2adc25665018aa1fe0e6bc666dac8fc2697ff9ba",
            "difficulty" : "0x020000",
            "extraData" : "0x42",
            "gasLimit" : "0x0a00000000",
            "gasUsed" : "0x00",
            "hash" : "0xbf82cec88667ba7112d825fdde9b12f69a584c0d88a818f72cf533860eef9d12",
            "mixHash" : "0x56e81f171bcc55a6ff8345e692c0f86e5b48e01b996cadc001622fb5e363b421",
            "nonce" : "0x0102030405060708",
            "number" : "0x00",
            "parentHash" : "0x0000000000000000000000000000000000000000000000000000000000000000",
            "receiptTrie" : "0x56e81f171bcc55a6ff8345e692c0f86e5b48e01b996cadc001622fb5e363b421",
            "stateRoot" : "0x008ee04e394b2d73709f97316aceb055e1ef425cf2cc18511254b3b024842b89",
            "timestamp" : "0x03b6",
            "transactionsTrie" : "0x56e81f171bcc55a6ff8345e692c0f86e5b48e01b996cadc001622fb5e363b421",
            "uncleHash" : "0x1dcc4de8dec75d7aab85b567b6ccd41ad312451b948a7413f0a142fd40d49347"
        },
        "genesisRLP" : "0xf901fcf901f7a00000000000000000000000000000000000000000000000000000000000000000a01dcc4de8dec75d7aab85b567b6ccd41ad312451b948a7413f0a142fd40d49347942adc25665018aa1fe0e6bc666dac8fc2697ff9baa0008ee04e394b2d73709f97316aceb055e1ef425cf2cc18511254b3b024842b89a056e81f171bcc55a6ff8345e692c0f86e5b48e01b996cadc001622fb5e363b421a056e81f171bcc55a6ff8345e692c0f86e5b48e01b996cadc001622fb5e363b421b90100000000000000000000000000000000000000000000000000000000000000000000000000000000000000000000000000000000000000000000000000000000000000000000000000000000000000000000000000000000000000000000000000000000000000000000000000000000000000000000000000000000000000000000000000000000000000000000000000000000000000000000000000000000000000000000000000000000000000000000000000000000000000000000000000000000000000000000000000000000000000000000000000000000000000000000000000000000000000000000000000000000000000000000000000000000008302000080850a00000000808203b642a056e81f171bcc55a6ff8345e692c0f86e5b48e01b996cadc001622fb5e363b421880102030405060708c0c0",
        "lastblockhash" : "0x14071b37fca70beb3635eb2ca5206903c9735c6923efe1f01a81f7418dfe4a9b",
        "network" : "Constantinople",
        "postState" : {
            "0x2adc25665018aa1fe0e6bc666dac8fc2697ff9ba" : {
                "balance" : "0x1bc16d674ecc93e0",
                "code" : "0x",
                "nonce" : "0x00",
                "storage" : {
                }
            },
            "0xa94f5374fce5edbc8e2a8697c15331677e6ebf0b" : {
                "balance" : "0x270ffffb6c20",
                "code" : "0x",
                "nonce" : "0x01",
                "storage" : {
                }
            }
        },
        "pre" : {
            "0xa94f5374fce5edbc8e2a8697c15331677e6ebf0b" : {
                "balance" : "0x271000000000",
                "code" : "0x",
                "nonce" : "0x00",
                "storage" : {
                }
            }
        },
        "sealEngine" : "NoProof"
    },
    "shallowStack_d30g0v0_ConstantinopleFix" : {
        "_info" : {
            "comment" : "",
            "filledwith" : "testeth 1.7.0-alpha.1-20+commit.782a7283",
            "lllcversion" : "Version: 0.5.0-develop.2018.11.9+commit.9709dfe0.Linux.g++",
            "source" : "src/BlockchainTestsFiller/GeneralStateTests/stStackTests/shallowStack_d30g0v0Filler.json",
            "sourceHash" : "ce4af35995e534fdf2d26bc12225076afe5ca32bc59b6f5e6126bfa9b7f02093"
        },
        "blocks" : [
            {
                "blockHeader" : {
                    "bloom" : "0x00000000000000000000000000000000000000000000000000000000000000000000000000000000000000000000000000000000000000000000000000000000000000000000000000000000000000000000000000000000000000000000000000000000000000000000000000000000000000000000000000000000000000000000000000000000000000000000000000000000000000000000000000000000000000000000000000000000000000000000000000000000000000000000000000000000000000000000000000000000000000000000000000000000000000000000000000000000000000000000000000000000000000000000000000000000",
                    "coinbase" : "0x2adc25665018aa1fe0e6bc666dac8fc2697ff9ba",
                    "difficulty" : "0x020000",
                    "extraData" : "0x",
                    "gasLimit" : "0x0a00000000",
                    "gasUsed" : "0x0493e0",
                    "hash" : "0x14071b37fca70beb3635eb2ca5206903c9735c6923efe1f01a81f7418dfe4a9b",
                    "mixHash" : "0x0000000000000000000000000000000000000000000000000000000000000000",
                    "nonce" : "0x0000000000000000",
                    "number" : "0x01",
                    "parentHash" : "0xbf82cec88667ba7112d825fdde9b12f69a584c0d88a818f72cf533860eef9d12",
                    "receiptTrie" : "0xe2a8b0fa171b989aab37eee4a349917e9c93607fc5c7b07513cf8997ec83e8bf",
                    "stateRoot" : "0x0ef73b3dfb81d61a1a34c9a4ee8f385dc9ea92ed536281cccea1a8b42c5d013f",
                    "timestamp" : "0x03e8",
                    "transactionsTrie" : "0xe6514a49cc0a80f2915dd1ee1ecf4eb36c33f1ce34efe007ada77cf594af4ee0",
                    "uncleHash" : "0x1dcc4de8dec75d7aab85b567b6ccd41ad312451b948a7413f0a142fd40d49347"
                },
                "rlp" : "0xf90252f901faa0bf82cec88667ba7112d825fdde9b12f69a584c0d88a818f72cf533860eef9d12a01dcc4de8dec75d7aab85b567b6ccd41ad312451b948a7413f0a142fd40d49347942adc25665018aa1fe0e6bc666dac8fc2697ff9baa00ef73b3dfb81d61a1a34c9a4ee8f385dc9ea92ed536281cccea1a8b42c5d013fa0e6514a49cc0a80f2915dd1ee1ecf4eb36c33f1ce34efe007ada77cf594af4ee0a0e2a8b0fa171b989aab37eee4a349917e9c93607fc5c7b07513cf8997ec83e8bfb90100000000000000000000000000000000000000000000000000000000000000000000000000000000000000000000000000000000000000000000000000000000000000000000000000000000000000000000000000000000000000000000000000000000000000000000000000000000000000000000000000000000000000000000000000000000000000000000000000000000000000000000000000000000000000000000000000000000000000000000000000000000000000000000000000000000000000000000000000000000000000000000000000000000000000000000000000000000000000000000000000000000000000000000000000000000008302000001850a00000000830493e08203e880a00000000000000000000000000000000000000000000000000000000000000000880000000000000000f852f8508001830493e0808084506000551ba02e0ca203dd7a5e58bf9bffb3ea6f5fd2e8d988a72037e9ccf65651f20ed710c6a066e4e5529772fe3ca5988872818ad7d6833dff5a4f8ac54103b82af5832dc747c0",
                "transactions" : [
                    {
                        "data" : "0x50600055",
                        "gasLimit" : "0x0493e0",
                        "gasPrice" : "0x01",
                        "nonce" : "0x00",
                        "r" : "0x2e0ca203dd7a5e58bf9bffb3ea6f5fd2e8d988a72037e9ccf65651f20ed710c6",
                        "s" : "0x66e4e5529772fe3ca5988872818ad7d6833dff5a4f8ac54103b82af5832dc747",
                        "to" : "",
                        "v" : "0x1b",
                        "value" : "0x00"
                    }
                ],
                "uncleHeaders" : [
                ]
            }
        ],
        "genesisBlockHeader" : {
            "bloom" : "0x00000000000000000000000000000000000000000000000000000000000000000000000000000000000000000000000000000000000000000000000000000000000000000000000000000000000000000000000000000000000000000000000000000000000000000000000000000000000000000000000000000000000000000000000000000000000000000000000000000000000000000000000000000000000000000000000000000000000000000000000000000000000000000000000000000000000000000000000000000000000000000000000000000000000000000000000000000000000000000000000000000000000000000000000000000000",
            "coinbase" : "0x2adc25665018aa1fe0e6bc666dac8fc2697ff9ba",
            "difficulty" : "0x020000",
            "extraData" : "0x42",
            "gasLimit" : "0x0a00000000",
            "gasUsed" : "0x00",
            "hash" : "0xbf82cec88667ba7112d825fdde9b12f69a584c0d88a818f72cf533860eef9d12",
            "mixHash" : "0x56e81f171bcc55a6ff8345e692c0f86e5b48e01b996cadc001622fb5e363b421",
            "nonce" : "0x0102030405060708",
            "number" : "0x00",
            "parentHash" : "0x0000000000000000000000000000000000000000000000000000000000000000",
            "receiptTrie" : "0x56e81f171bcc55a6ff8345e692c0f86e5b48e01b996cadc001622fb5e363b421",
            "stateRoot" : "0x008ee04e394b2d73709f97316aceb055e1ef425cf2cc18511254b3b024842b89",
            "timestamp" : "0x03b6",
            "transactionsTrie" : "0x56e81f171bcc55a6ff8345e692c0f86e5b48e01b996cadc001622fb5e363b421",
            "uncleHash" : "0x1dcc4de8dec75d7aab85b567b6ccd41ad312451b948a7413f0a142fd40d49347"
        },
        "genesisRLP" : "0xf901fcf901f7a00000000000000000000000000000000000000000000000000000000000000000a01dcc4de8dec75d7aab85b567b6ccd41ad312451b948a7413f0a142fd40d49347942adc25665018aa1fe0e6bc666dac8fc2697ff9baa0008ee04e394b2d73709f97316aceb055e1ef425cf2cc18511254b3b024842b89a056e81f171bcc55a6ff8345e692c0f86e5b48e01b996cadc001622fb5e363b421a056e81f171bcc55a6ff8345e692c0f86e5b48e01b996cadc001622fb5e363b421b90100000000000000000000000000000000000000000000000000000000000000000000000000000000000000000000000000000000000000000000000000000000000000000000000000000000000000000000000000000000000000000000000000000000000000000000000000000000000000000000000000000000000000000000000000000000000000000000000000000000000000000000000000000000000000000000000000000000000000000000000000000000000000000000000000000000000000000000000000000000000000000000000000000000000000000000000000000000000000000000000000000000000000000000000000000000008302000080850a00000000808203b642a056e81f171bcc55a6ff8345e692c0f86e5b48e01b996cadc001622fb5e363b421880102030405060708c0c0",
        "lastblockhash" : "0x14071b37fca70beb3635eb2ca5206903c9735c6923efe1f01a81f7418dfe4a9b",
        "network" : "ConstantinopleFix",
        "postState" : {
            "0x2adc25665018aa1fe0e6bc666dac8fc2697ff9ba" : {
                "balance" : "0x1bc16d674ecc93e0",
                "code" : "0x",
                "nonce" : "0x00",
                "storage" : {
                }
            },
            "0xa94f5374fce5edbc8e2a8697c15331677e6ebf0b" : {
                "balance" : "0x270ffffb6c20",
                "code" : "0x",
                "nonce" : "0x01",
                "storage" : {
                }
            }
        },
        "pre" : {
            "0xa94f5374fce5edbc8e2a8697c15331677e6ebf0b" : {
                "balance" : "0x271000000000",
                "code" : "0x",
                "nonce" : "0x00",
                "storage" : {
                }
            }
        },
        "sealEngine" : "NoProof"
    }
}