{
    "stackOverflowM1_d12g0v0_Byzantium" : {
        "_info" : {
            "comment" : "",
            "filledwith" : "testeth 1.7.0-alpha.1-20+commit.782a7283",
            "lllcversion" : "Version: 0.5.0-develop.2018.11.9+commit.9709dfe0.Linux.g++",
            "source" : "src/BlockchainTestsFiller/GeneralStateTests/stStackTests/stackOverflowM1_d12g0v0Filler.json",
            "sourceHash" : "d132a64b98c8c666b4bde955b11b0663e99349cef8a4088fa5c59beb8c566861"
        },
        "blocks" : [
            {
                "blockHeader" : {
                    "bloom" : "0x00000000000000000000000000000000000000000000000000000000000000000000000000000000000000000000000000000000000000000000000000000000000000000000000000000000000000000000000000000000000000000000000000000000000000000000000000000000000000000000000000000000000000000000000000000000000000000000000000000000000000000000000000000000000000000000000000000000000000000000000000000000000000000000000000000000000000000000000000000000000000000000000000000000000000000000000000000000000000000000000000000000000000000000000000000000",
                    "coinbase" : "0x2adc25665018aa1fe0e6bc666dac8fc2697ff9ba",
                    "difficulty" : "0x020000",
                    "extraData" : "0x",
                    "gasLimit" : "0x0a00000000",
                    "gasUsed" : "0x01e708",
                    "hash" : "0x0a50c21bf5b6bfff439bf87908fdeb6bea7baf7235d25c2f6bbcdd00baf4f47a",
                    "mixHash" : "0x0000000000000000000000000000000000000000000000000000000000000000",
                    "nonce" : "0x0000000000000000",
                    "number" : "0x01",
                    "parentHash" : "0xb7d1d85e1c06f99c2e3a8d93a15824f88df6c1d2643284871aca54964223455b",
                    "receiptTrie" : "0x4f466d4fc7da65d38caced76b7f7d4196ea7a568c96039b78800d68595cd5989",
                    "stateRoot" : "0x7865878ece618c9810110913ac6de44e955d723f6d67372f1b698ac96ae81b3f",
                    "timestamp" : "0x03e8",
                    "transactionsTrie" : "0x2e7a6b0d37d9a0e68d16def6db9b1a73150059b8a3c8d3e76d68b9b5f2d3e8a0",
                    "uncleHash" : "0x1dcc4de8dec75d7aab85b567b6ccd41ad312451b948a7413f0a142fd40d49347"
                },
                "rlp" : "0xf90652f901faa0b7d1d85e1c06f99c2e3a8d93a15824f88df6c1d2643284871aca54964223455ba01dcc4de8dec75d7aab85b567b6ccd41ad312451b948a7413f0a142fd40d49347942adc25665018aa1fe0e6bc666dac8fc2697ff9baa07865878ece618c9810110913ac6de44e955d723f6d67372f1b698ac96ae81b3fa02e7a6b0d37d9a0e68d16def6db9b1a73150059b8a3c8d3e76d68b9b5f2d3e8a0a04f466d4fc7da65d38caced76b7f7d4196ea7a568c96039b78800d68595cd5989b90100000000000000000000000000000000000000000000000000000000000000000000000000000000000000000000000000000000000000000000000000000000000000000000000000000000000000000000000000000000000000000000000000000000000000000000000000000000000000000000000000000000000000000000000000000000000000000000000000000000000000000000000000000000000000000000000000000000000000000000000000000000000000000000000000000000000000000000000000000000000000000000000000000000000000000000000000000000000000000000000000000000000000000000000000000000008302000001850a000000008301e7088203e880a00000000000000000000000000000000000000000000000000000000000000000880000000000000000f90451f9044e8001835b8d808001b90400585858585858585858585858585858585858585858585858585858585858585858585858585858585858585858585858585858585858585858585858585858585858585858585858585858585858585858585858585858585858585858585858585858585858585858585858585858585858585858585858585858585858585858585858585858585858585858585858585858585858585858585858585858585858585858585858585858585858585858585858585858585858585858585858585858585858585858585858585858585858585858585858585858585858585858585858585858585858585858585858585858585858585858585858585858585858585858585858585858585858585858585858585858585858585858585858585858585858585858585858585858585858585858585858585858585858585858585858585858585858585858585858585858585858585858585858585858585858585858585858585858585858585858585858585858585858585858585858585858585858585858585858585858585858585858585858585858585858585858585858585858585858585858585858585858585858585858585858585858585858585858585858585858585858585858585858585858585858585858585858585858585858585858585858585858585858585858585858585858585858585858585858585858585858585858585858585858585858585858585858585858585858585858585858585858585858585858585858585858585858585858585858585858585858585858585858585858585858585858585858585858585858585858585858585858585858585858585858585858585858585858585858585858585858585858585858585858585858585858585858585858585858585858585858585858585858585858585858585858585858585858585858585858585858585858585858585858585858585858585858585858585858585858585858585858585858585858585858585858585858585858585858585858585858585858585858585858585858585858585858585858585858585858585858585858585858585858585858585858585858585858585858585858585858585858585858585858585858585858585858585858585858585858585858585858585858585858585858585858585858585858585858585858585858585858585858585858585858585858585858585858585858585858585858585858585858585858585858585858585858585858585858585858585858585858585858585858585858585858585858585858585858585858585858585858585858585858585858585858585858585858585858585858585858585858585858585858585858585858585858585858581ba0b33c8099988656f13423b88db2847ba1fbdd5ac342c4214875276dc67f392b9aa041bbb8eb07714ecf8844c04327c07c22addd6fcc72db52b5d394d8f21b6bc90fc0",
                "transactions" : [
                    {
                        "data" : "0x58585858585858585858585858585858585858585858585858585858585858585858585858585858585858585858585858585858585858585858585858585858585858585858585858585858585858585858585858585858585858585858585858585858585858585858585858585858585858585858585858585858585858585858585858585858585858585858585858585858585858585858585858585858585858585858585858585858585858585858585858585858585858585858585858585858585858585858585858585858585858585858585858585858585858585858585858585858585858585858585858585858585858585858585858585858585858585858585858585858585858585858585858585858585858585858585858585858585858585858585858585858585858585858585858585858585858585858585858585858585858585858585858585858585858585858585858585858585858585858585858585858585858585858585858585858585858585858585858585858585858585858585858585858585858585858585858585858585858585858585858585858585858585858585858585858585858585858585858585858585858585858585858585858585858585858585858585858585858585858585858585858585858585858585858585858585858585858585858585858585858585858585858585858585858585858585858585858585858585858585858585858585858585858585858585858585858585858585858585858585858585858585858585858585858585858585858585858585858585858585858585858585858585858585858585858585858585858585858585858585858585858585858585858585858585858585858585858585858585858585858585858585858585858585858585858585858585858585858585858585858585858585858585858585858585858585858585858585858585858585858585858585858585858585858585858585858585858585858585858585858585858585858585858585858585858585858585858585858585858585858585858585858585858585858585858585858585858585858585858585858585858585858585858585858585858585858585858585858585858585858585858585858585858585858585858585858585858585858585858585858585858585858585858585858585858585858585858585858585858585858585858585858585858585858585858585858585858585858585858585858585858585858585858585858585858585858585858585858585858585858585858585858585858585858585858585858585858585858585858585858585858585858585858585858585858585858585858585858585858585858585858",
                        "gasLimit" : "0x5b8d80",
                        "gasPrice" : "0x01",
                        "nonce" : "0x00",
                        "r" : "0xb33c8099988656f13423b88db2847ba1fbdd5ac342c4214875276dc67f392b9a",
                        "s" : "0x41bbb8eb07714ecf8844c04327c07c22addd6fcc72db52b5d394d8f21b6bc90f",
                        "to" : "",
                        "v" : "0x1b",
                        "value" : "0x01"
                    }
                ],
                "uncleHeaders" : [
                ]
            }
        ],
        "genesisBlockHeader" : {
            "bloom" : "0x00000000000000000000000000000000000000000000000000000000000000000000000000000000000000000000000000000000000000000000000000000000000000000000000000000000000000000000000000000000000000000000000000000000000000000000000000000000000000000000000000000000000000000000000000000000000000000000000000000000000000000000000000000000000000000000000000000000000000000000000000000000000000000000000000000000000000000000000000000000000000000000000000000000000000000000000000000000000000000000000000000000000000000000000000000000",
            "coinbase" : "0x2adc25665018aa1fe0e6bc666dac8fc2697ff9ba",
            "difficulty" : "0x020000",
            "extraData" : "0x42",
            "gasLimit" : "0x0a00000000",
            "gasUsed" : "0x00",
            "hash" : "0xb7d1d85e1c06f99c2e3a8d93a15824f88df6c1d2643284871aca54964223455b",
            "mixHash" : "0x56e81f171bcc55a6ff8345e692c0f86e5b48e01b996cadc001622fb5e363b421",
            "nonce" : "0x0102030405060708",
            "number" : "0x00",
            "parentHash" : "0x0000000000000000000000000000000000000000000000000000000000000000",
            "receiptTrie" : "0x56e81f171bcc55a6ff8345e692c0f86e5b48e01b996cadc001622fb5e363b421",
            "stateRoot" : "0xf88012c07d4f4c3463fad1a106542c15693af39cb215f195035f63ab2497aa01",
            "timestamp" : "0x03b6",
            "transactionsTrie" : "0x56e81f171bcc55a6ff8345e692c0f86e5b48e01b996cadc001622fb5e363b421",
            "uncleHash" : "0x1dcc4de8dec75d7aab85b567b6ccd41ad312451b948a7413f0a142fd40d49347"
        },
        "genesisRLP" : "0xf901fcf901f7a00000000000000000000000000000000000000000000000000000000000000000a01dcc4de8dec75d7aab85b567b6ccd41ad312451b948a7413f0a142fd40d49347942adc25665018aa1fe0e6bc666dac8fc2697ff9baa0f88012c07d4f4c3463fad1a106542c15693af39cb215f195035f63ab2497aa01a056e81f171bcc55a6ff8345e692c0f86e5b48e01b996cadc001622fb5e363b421a056e81f171bcc55a6ff8345e692c0f86e5b48e01b996cadc001622fb5e363b421b90100000000000000000000000000000000000000000000000000000000000000000000000000000000000000000000000000000000000000000000000000000000000000000000000000000000000000000000000000000000000000000000000000000000000000000000000000000000000000000000000000000000000000000000000000000000000000000000000000000000000000000000000000000000000000000000000000000000000000000000000000000000000000000000000000000000000000000000000000000000000000000000000000000000000000000000000000000000000000000000000000000000000000000000000000000000008302000080850a00000000808203b642a056e81f171bcc55a6ff8345e692c0f86e5b48e01b996cadc001622fb5e363b421880102030405060708c0c0",
        "lastblockhash" : "0x0a50c21bf5b6bfff439bf87908fdeb6bea7baf7235d25c2f6bbcdd00baf4f47a",
        "network" : "Byzantium",
        "postState" : {
            "0x2adc25665018aa1fe0e6bc666dac8fc2697ff9ba" : {
                "balance" : "0x29a2241af62de708",
                "code" : "0x",
                "nonce" : "0x00",
                "storage" : {
                }
            },
            "0x6295ee1b4f6dd65047762f924ecd367c17eabf8f" : {
                "balance" : "0x01",
                "code" : "0x",
                "nonce" : "0x01",
                "storage" : {
                }
            },
            "0xa94f5374fce5edbc8e2a8697c15331677e6ebf0b" : {
                "balance" : "0xe8d4a50ffffffe18f7",
                "code" : "0x",
                "nonce" : "0x01",
                "storage" : {
                }
            },
            "0xb94f5374fce5edbc8e2a8697c15331677e6ebf0b" : {
                "balance" : "0xe8d4a5100000000000",
                "code" : "0x",
                "nonce" : "0x00",
                "storage" : {
                }
            }
        },
        "pre" : {
            "0xa94f5374fce5edbc8e2a8697c15331677e6ebf0b" : {
                "balance" : "0xe8d4a5100000000000",
                "code" : "0x",
                "nonce" : "0x00",
                "storage" : {
                }
            },
            "0xb94f5374fce5edbc8e2a8697c15331677e6ebf0b" : {
                "balance" : "0xe8d4a5100000000000",
                "code" : "0x",
                "nonce" : "0x00",
                "storage" : {
                }
            }
        },
        "sealEngine" : "NoProof"
    },
    "stackOverflowM1_d12g0v0_Constantinople" : {
        "_info" : {
            "comment" : "",
            "filledwith" : "testeth 1.7.0-alpha.1-20+commit.782a7283",
            "lllcversion" : "Version: 0.5.0-develop.2018.11.9+commit.9709dfe0.Linux.g++",
            "source" : "src/BlockchainTestsFiller/GeneralStateTests/stStackTests/stackOverflowM1_d12g0v0Filler.json",
            "sourceHash" : "d132a64b98c8c666b4bde955b11b0663e99349cef8a4088fa5c59beb8c566861"
        },
        "blocks" : [
            {
                "blockHeader" : {
                    "bloom" : "0x00000000000000000000000000000000000000000000000000000000000000000000000000000000000000000000000000000000000000000000000000000000000000000000000000000000000000000000000000000000000000000000000000000000000000000000000000000000000000000000000000000000000000000000000000000000000000000000000000000000000000000000000000000000000000000000000000000000000000000000000000000000000000000000000000000000000000000000000000000000000000000000000000000000000000000000000000000000000000000000000000000000000000000000000000000000",
                    "coinbase" : "0x2adc25665018aa1fe0e6bc666dac8fc2697ff9ba",
                    "difficulty" : "0x020000",
                    "extraData" : "0x",
                    "gasLimit" : "0x0a00000000",
                    "gasUsed" : "0x01e708",
                    "hash" : "0x81c152e73f8fb2a8faa16cd489be93713a8de25f32605e8c6006fd7385226c61",
                    "mixHash" : "0x0000000000000000000000000000000000000000000000000000000000000000",
                    "nonce" : "0x0000000000000000",
                    "number" : "0x01",
                    "parentHash" : "0xb7d1d85e1c06f99c2e3a8d93a15824f88df6c1d2643284871aca54964223455b",
                    "receiptTrie" : "0x4f466d4fc7da65d38caced76b7f7d4196ea7a568c96039b78800d68595cd5989",
                    "stateRoot" : "0x81c52d5db992fbe8a73ecb9bff8b8b0d290d63f6ee3e63f214e438d7fe17d278",
                    "timestamp" : "0x03e8",
                    "transactionsTrie" : "0x2e7a6b0d37d9a0e68d16def6db9b1a73150059b8a3c8d3e76d68b9b5f2d3e8a0",
                    "uncleHash" : "0x1dcc4de8dec75d7aab85b567b6ccd41ad312451b948a7413f0a142fd40d49347"
                },
                "rlp" : "0xf90652f901faa0b7d1d85e1c06f99c2e3a8d93a15824f88df6c1d2643284871aca54964223455ba01dcc4de8dec75d7aab85b567b6ccd41ad312451b948a7413f0a142fd40d49347942adc25665018aa1fe0e6bc666dac8fc2697ff9baa081c52d5db992fbe8a73ecb9bff8b8b0d290d63f6ee3e63f214e438d7fe17d278a02e7a6b0d37d9a0e68d16def6db9b1a73150059b8a3c8d3e76d68b9b5f2d3e8a0a04f466d4fc7da65d38caced76b7f7d4196ea7a568c96039b78800d68595cd5989b90100000000000000000000000000000000000000000000000000000000000000000000000000000000000000000000000000000000000000000000000000000000000000000000000000000000000000000000000000000000000000000000000000000000000000000000000000000000000000000000000000000000000000000000000000000000000000000000000000000000000000000000000000000000000000000000000000000000000000000000000000000000000000000000000000000000000000000000000000000000000000000000000000000000000000000000000000000000000000000000000000000000000000000000000000000000008302000001850a000000008301e7088203e880a00000000000000000000000000000000000000000000000000000000000000000880000000000000000f90451f9044e8001835b8d808001b90400585858585858585858585858585858585858585858585858585858585858585858585858585858585858585858585858585858585858585858585858585858585858585858585858585858585858585858585858585858585858585858585858585858585858585858585858585858585858585858585858585858585858585858585858585858585858585858585858585858585858585858585858585858585858585858585858585858585858585858585858585858585858585858585858585858585858585858585858585858585858585858585858585858585858585858585858585858585858585858585858585858585858585858585858585858585858585858585858585858585858585858585858585858585858585858585858585858585858585858585858585858585858585858585858585858585858585858585858585858585858585858585858585858585858585858585858585858585858585858585858585858585858585858585858585858585858585858585858585858585858585858585858585858585858585858585858585858585858585858585858585858585858585858585858585858585858585858585858585858585858585858585858585858585858585858585858585858585858585858585858585858585858585858585858585858585858585858585858585858585858585858585858585858585858585858585858585858585858585858585858585858585858585858585858585858585858585858585858585858585858585858585858585858585858585858585858585858585858585858585858585858585858585858585858585858585858585858585858585858585858585858585858585858585858585858585858585858585858585858585858585858585858585858585858585858585858585858585858585858585858585858585858585858585858585858585858585858585858585858585858585858585858585858585858585858585858585858585858585858585858585858585858585858585858585858585858585858585858585858585858585858585858585858585858585858585858585858585858585858585858585858585858585858585858585858585858585858585858585858585858585858585858585858585858585858585858585858585858585858585858585858585858585858585858585858585858585858585858585858585858585858585858585858585858585858585858585858585858585858585858585858585858585858585858585858585858585858585858585858585858585858585858585858585858585858585858585858585858585858585858585858585858585858585858585858585858585858585858585858585858585858581ba0b33c8099988656f13423b88db2847ba1fbdd5ac342c4214875276dc67f392b9aa041bbb8eb07714ecf8844c04327c07c22addd6fcc72db52b5d394d8f21b6bc90fc0",
                "transactions" : [
                    {
                        "data" : "0x58585858585858585858585858585858585858585858585858585858585858585858585858585858585858585858585858585858585858585858585858585858585858585858585858585858585858585858585858585858585858585858585858585858585858585858585858585858585858585858585858585858585858585858585858585858585858585858585858585858585858585858585858585858585858585858585858585858585858585858585858585858585858585858585858585858585858585858585858585858585858585858585858585858585858585858585858585858585858585858585858585858585858585858585858585858585858585858585858585858585858585858585858585858585858585858585858585858585858585858585858585858585858585858585858585858585858585858585858585858585858585858585858585858585858585858585858585858585858585858585858585858585858585858585858585858585858585858585858585858585858585858585858585858585858585858585858585858585858585858585858585858585858585858585858585858585858585858585858585858585858585858585858585858585858585858585858585858585858585858585858585858585858585858585858585858585858585858585858585858585858585858585858585858585858585858585858585858585858585858585858585858585858585858585858585858585858585858585858585858585858585858585858585858585858585858585858585858585858585858585858585858585858585858585858585858585858585858585858585858585858585858585858585858585858585858585858585858585858585858585858585858585858585858585858585858585858585858585858585858585858585858585858585858585858585858585858585858585858585858585858585858585858585858585858585858585858585858585858585858585858585858585858585858585858585858585858585858585858585858585858585858585858585858585858585858585858585858585858585858585858585858585858585858585858585858585858585858585858585858585858585858585858585858585858585858585858585858585858585858585858585858585858585858585858585858585858585858585858585858585858585858585858585858585858585858585858585858585858585858585858585858585858585858585858585858585858585858585858585858585858585858585858585858585858585858585858585858585858585858585858585858585858585858585858585858585858585858585858585858585858585858",
                        "gasLimit" : "0x5b8d80",
                        "gasPrice" : "0x01",
                        "nonce" : "0x00",
                        "r" : "0xb33c8099988656f13423b88db2847ba1fbdd5ac342c4214875276dc67f392b9a",
                        "s" : "0x41bbb8eb07714ecf8844c04327c07c22addd6fcc72db52b5d394d8f21b6bc90f",
                        "to" : "",
                        "v" : "0x1b",
                        "value" : "0x01"
                    }
                ],
                "uncleHeaders" : [
                ]
            }
        ],
        "genesisBlockHeader" : {
            "bloom" : "0x00000000000000000000000000000000000000000000000000000000000000000000000000000000000000000000000000000000000000000000000000000000000000000000000000000000000000000000000000000000000000000000000000000000000000000000000000000000000000000000000000000000000000000000000000000000000000000000000000000000000000000000000000000000000000000000000000000000000000000000000000000000000000000000000000000000000000000000000000000000000000000000000000000000000000000000000000000000000000000000000000000000000000000000000000000000",
            "coinbase" : "0x2adc25665018aa1fe0e6bc666dac8fc2697ff9ba",
            "difficulty" : "0x020000",
            "extraData" : "0x42",
            "gasLimit" : "0x0a00000000",
            "gasUsed" : "0x00",
            "hash" : "0xb7d1d85e1c06f99c2e3a8d93a15824f88df6c1d2643284871aca54964223455b",
            "mixHash" : "0x56e81f171bcc55a6ff8345e692c0f86e5b48e01b996cadc001622fb5e363b421",
            "nonce" : "0x0102030405060708",
            "number" : "0x00",
            "parentHash" : "0x0000000000000000000000000000000000000000000000000000000000000000",
            "receiptTrie" : "0x56e81f171bcc55a6ff8345e692c0f86e5b48e01b996cadc001622fb5e363b421",
            "stateRoot" : "0xf88012c07d4f4c3463fad1a106542c15693af39cb215f195035f63ab2497aa01",
            "timestamp" : "0x03b6",
            "transactionsTrie" : "0x56e81f171bcc55a6ff8345e692c0f86e5b48e01b996cadc001622fb5e363b421",
            "uncleHash" : "0x1dcc4de8dec75d7aab85b567b6ccd41ad312451b948a7413f0a142fd40d49347"
        },
        "genesisRLP" : "0xf901fcf901f7a00000000000000000000000000000000000000000000000000000000000000000a01dcc4de8dec75d7aab85b567b6ccd41ad312451b948a7413f0a142fd40d49347942adc25665018aa1fe0e6bc666dac8fc2697ff9baa0f88012c07d4f4c3463fad1a106542c15693af39cb215f195035f63ab2497aa01a056e81f171bcc55a6ff8345e692c0f86e5b48e01b996cadc001622fb5e363b421a056e81f171bcc55a6ff8345e692c0f86e5b48e01b996cadc001622fb5e363b421b90100000000000000000000000000000000000000000000000000000000000000000000000000000000000000000000000000000000000000000000000000000000000000000000000000000000000000000000000000000000000000000000000000000000000000000000000000000000000000000000000000000000000000000000000000000000000000000000000000000000000000000000000000000000000000000000000000000000000000000000000000000000000000000000000000000000000000000000000000000000000000000000000000000000000000000000000000000000000000000000000000000000000000000000000000000000008302000080850a00000000808203b642a056e81f171bcc55a6ff8345e692c0f86e5b48e01b996cadc001622fb5e363b421880102030405060708c0c0",
        "lastblockhash" : "0x81c152e73f8fb2a8faa16cd489be93713a8de25f32605e8c6006fd7385226c61",
        "network" : "Constantinople",
        "postState" : {
            "0x2adc25665018aa1fe0e6bc666dac8fc2697ff9ba" : {
                "balance" : "0x1bc16d674ec9e708",
                "code" : "0x",
                "nonce" : "0x00",
                "storage" : {
                }
            },
            "0x6295ee1b4f6dd65047762f924ecd367c17eabf8f" : {
                "balance" : "0x01",
                "code" : "0x",
                "nonce" : "0x01",
                "storage" : {
                }
            },
            "0xa94f5374fce5edbc8e2a8697c15331677e6ebf0b" : {
                "balance" : "0xe8d4a50ffffffe18f7",
                "code" : "0x",
                "nonce" : "0x01",
                "storage" : {
                }
            },
            "0xb94f5374fce5edbc8e2a8697c15331677e6ebf0b" : {
                "balance" : "0xe8d4a5100000000000",
                "code" : "0x",
                "nonce" : "0x00",
                "storage" : {
                }
            }
        },
        "pre" : {
            "0xa94f5374fce5edbc8e2a8697c15331677e6ebf0b" : {
                "balance" : "0xe8d4a5100000000000",
                "code" : "0x",
                "nonce" : "0x00",
                "storage" : {
                }
            },
            "0xb94f5374fce5edbc8e2a8697c15331677e6ebf0b" : {
                "balance" : "0xe8d4a5100000000000",
                "code" : "0x",
                "nonce" : "0x00",
                "storage" : {
                }
            }
        },
        "sealEngine" : "NoProof"
    },
    "stackOverflowM1_d12g0v0_ConstantinopleFix" : {
        "_info" : {
            "comment" : "",
            "filledwith" : "testeth 1.7.0-alpha.1-20+commit.782a7283",
            "lllcversion" : "Version: 0.5.0-develop.2018.11.9+commit.9709dfe0.Linux.g++",
            "source" : "src/BlockchainTestsFiller/GeneralStateTests/stStackTests/stackOverflowM1_d12g0v0Filler.json",
            "sourceHash" : "d132a64b98c8c666b4bde955b11b0663e99349cef8a4088fa5c59beb8c566861"
        },
        "blocks" : [
            {
                "blockHeader" : {
                    "bloom" : "0x00000000000000000000000000000000000000000000000000000000000000000000000000000000000000000000000000000000000000000000000000000000000000000000000000000000000000000000000000000000000000000000000000000000000000000000000000000000000000000000000000000000000000000000000000000000000000000000000000000000000000000000000000000000000000000000000000000000000000000000000000000000000000000000000000000000000000000000000000000000000000000000000000000000000000000000000000000000000000000000000000000000000000000000000000000000",
                    "coinbase" : "0x2adc25665018aa1fe0e6bc666dac8fc2697ff9ba",
                    "difficulty" : "0x020000",
                    "extraData" : "0x",
                    "gasLimit" : "0x0a00000000",
                    "gasUsed" : "0x01e708",
                    "hash" : "0x81c152e73f8fb2a8faa16cd489be93713a8de25f32605e8c6006fd7385226c61",
                    "mixHash" : "0x0000000000000000000000000000000000000000000000000000000000000000",
                    "nonce" : "0x0000000000000000",
                    "number" : "0x01",
                    "parentHash" : "0xb7d1d85e1c06f99c2e3a8d93a15824f88df6c1d2643284871aca54964223455b",
                    "receiptTrie" : "0x4f466d4fc7da65d38caced76b7f7d4196ea7a568c96039b78800d68595cd5989",
                    "stateRoot" : "0x81c52d5db992fbe8a73ecb9bff8b8b0d290d63f6ee3e63f214e438d7fe17d278",
                    "timestamp" : "0x03e8",
                    "transactionsTrie" : "0x2e7a6b0d37d9a0e68d16def6db9b1a73150059b8a3c8d3e76d68b9b5f2d3e8a0",
                    "uncleHash" : "0x1dcc4de8dec75d7aab85b567b6ccd41ad312451b948a7413f0a142fd40d49347"
                },
                "rlp" : "0xf90652f901faa0b7d1d85e1c06f99c2e3a8d93a15824f88df6c1d2643284871aca54964223455ba01dcc4de8dec75d7aab85b567b6ccd41ad312451b948a7413f0a142fd40d49347942adc25665018aa1fe0e6bc666dac8fc2697ff9baa081c52d5db992fbe8a73ecb9bff8b8b0d290d63f6ee3e63f214e438d7fe17d278a02e7a6b0d37d9a0e68d16def6db9b1a73150059b8a3c8d3e76d68b9b5f2d3e8a0a04f466d4fc7da65d38caced76b7f7d4196ea7a568c96039b78800d68595cd5989b90100000000000000000000000000000000000000000000000000000000000000000000000000000000000000000000000000000000000000000000000000000000000000000000000000000000000000000000000000000000000000000000000000000000000000000000000000000000000000000000000000000000000000000000000000000000000000000000000000000000000000000000000000000000000000000000000000000000000000000000000000000000000000000000000000000000000000000000000000000000000000000000000000000000000000000000000000000000000000000000000000000000000000000000000000000000008302000001850a000000008301e7088203e880a00000000000000000000000000000000000000000000000000000000000000000880000000000000000f90451f9044e8001835b8d808001b90400585858585858585858585858585858585858585858585858585858585858585858585858585858585858585858585858585858585858585858585858585858585858585858585858585858585858585858585858585858585858585858585858585858585858585858585858585858585858585858585858585858585858585858585858585858585858585858585858585858585858585858585858585858585858585858585858585858585858585858585858585858585858585858585858585858585858585858585858585858585858585858585858585858585858585858585858585858585858585858585858585858585858585858585858585858585858585858585858585858585858585858585858585858585858585858585858585858585858585858585858585858585858585858585858585858585858585858585858585858585858585858585858585858585858585858585858585858585858585858585858585858585858585858585858585858585858585858585858585858585858585858585858585858585858585858585858585858585858585858585858585858585858585858585858585858585858585858585858585858585858585858585858585858585858585858585858585858585858585858585858585858585858585858585858585858585858585858585858585858585858585858585858585858585858585858585858585858585858585858585858585858585858585858585858585858585858585858585858585858585858585858585858585858585858585858585858585858585858585858585858585858585858585858585858585858585858585858585858585858585858585858585858585858585858585858585858585858585858585858585858585858585858585858585858585858585858585858585858585858585858585858585858585858585858585858585858585858585858585858585858585858585858585858585858585858585858585858585858585858585858585858585858585858585858585858585858585858585858585858585858585858585858585858585858585858585858585858585858585858585858585858585858585858585858585858585858585858585858585858585858585858585858585858585858585858585858585858585858585858585858585858585858585858585858585858585858585858585858585858585858585858585858585858585858585858585858585858585858585858585858585858585858585858585858585858585858585858585858585858585858585858585858585858585858585858585858585858585858585858585858585858585858585858585858585858585858585858585858585858585858585858581ba0b33c8099988656f13423b88db2847ba1fbdd5ac342c4214875276dc67f392b9aa041bbb8eb07714ecf8844c04327c07c22addd6fcc72db52b5d394d8f21b6bc90fc0",
                "transactions" : [
                    {
                        "data" : "0x58585858585858585858585858585858585858585858585858585858585858585858585858585858585858585858585858585858585858585858585858585858585858585858585858585858585858585858585858585858585858585858585858585858585858585858585858585858585858585858585858585858585858585858585858585858585858585858585858585858585858585858585858585858585858585858585858585858585858585858585858585858585858585858585858585858585858585858585858585858585858585858585858585858585858585858585858585858585858585858585858585858585858585858585858585858585858585858585858585858585858585858585858585858585858585858585858585858585858585858585858585858585858585858585858585858585858585858585858585858585858585858585858585858585858585858585858585858585858585858585858585858585858585858585858585858585858585858585858585858585858585858585858585858585858585858585858585858585858585858585858585858585858585858585858585858585858585858585858585858585858585858585858585858585858585858585858585858585858585858585858585858585858585858585858585858585858585858585858585858585858585858585858585858585858585858585858585858585858585858585858585858585858585858585858585858585858585858585858585858585858585858585858585858585858585858585858585858585858585858585858585858585858585858585858585858585858585858585858585858585858585858585858585858585858585858585858585858585858585858585858585858585858585858585858585858585858585858585858585858585858585858585858585858585858585858585858585858585858585858585858585858585858585858585858585858585858585858585858585858585858585858585858585858585858585858585858585858585858585858585858585858585858585858585858585858585858585858585858585858585858585858585858585858585858585858585858585858585858585858585858585858585858585858585858585858585858585858585858585858585858585858585858585858585858585858585858585858585858585858585858585858585858585858585858585858585858585858585858585858585858585858585858585858585858585858585858585858585858585858585858585858585858585858585858585858585858585858585858585858585858585858585858585858585858585858585858585858585858585858585858585858",
                        "gasLimit" : "0x5b8d80",
                        "gasPrice" : "0x01",
                        "nonce" : "0x00",
                        "r" : "0xb33c8099988656f13423b88db2847ba1fbdd5ac342c4214875276dc67f392b9a",
                        "s" : "0x41bbb8eb07714ecf8844c04327c07c22addd6fcc72db52b5d394d8f21b6bc90f",
                        "to" : "",
                        "v" : "0x1b",
                        "value" : "0x01"
                    }
                ],
                "uncleHeaders" : [
                ]
            }
        ],
        "genesisBlockHeader" : {
            "bloom" : "0x00000000000000000000000000000000000000000000000000000000000000000000000000000000000000000000000000000000000000000000000000000000000000000000000000000000000000000000000000000000000000000000000000000000000000000000000000000000000000000000000000000000000000000000000000000000000000000000000000000000000000000000000000000000000000000000000000000000000000000000000000000000000000000000000000000000000000000000000000000000000000000000000000000000000000000000000000000000000000000000000000000000000000000000000000000000",
            "coinbase" : "0x2adc25665018aa1fe0e6bc666dac8fc2697ff9ba",
            "difficulty" : "0x020000",
            "extraData" : "0x42",
            "gasLimit" : "0x0a00000000",
            "gasUsed" : "0x00",
            "hash" : "0xb7d1d85e1c06f99c2e3a8d93a15824f88df6c1d2643284871aca54964223455b",
            "mixHash" : "0x56e81f171bcc55a6ff8345e692c0f86e5b48e01b996cadc001622fb5e363b421",
            "nonce" : "0x0102030405060708",
            "number" : "0x00",
            "parentHash" : "0x0000000000000000000000000000000000000000000000000000000000000000",
            "receiptTrie" : "0x56e81f171bcc55a6ff8345e692c0f86e5b48e01b996cadc001622fb5e363b421",
            "stateRoot" : "0xf88012c07d4f4c3463fad1a106542c15693af39cb215f195035f63ab2497aa01",
            "timestamp" : "0x03b6",
            "transactionsTrie" : "0x56e81f171bcc55a6ff8345e692c0f86e5b48e01b996cadc001622fb5e363b421",
            "uncleHash" : "0x1dcc4de8dec75d7aab85b567b6ccd41ad312451b948a7413f0a142fd40d49347"
        },
        "genesisRLP" : "0xf901fcf901f7a00000000000000000000000000000000000000000000000000000000000000000a01dcc4de8dec75d7aab85b567b6ccd41ad312451b948a7413f0a142fd40d49347942adc25665018aa1fe0e6bc666dac8fc2697ff9baa0f88012c07d4f4c3463fad1a106542c15693af39cb215f195035f63ab2497aa01a056e81f171bcc55a6ff8345e692c0f86e5b48e01b996cadc001622fb5e363b421a056e81f171bcc55a6ff8345e692c0f86e5b48e01b996cadc001622fb5e363b421b90100000000000000000000000000000000000000000000000000000000000000000000000000000000000000000000000000000000000000000000000000000000000000000000000000000000000000000000000000000000000000000000000000000000000000000000000000000000000000000000000000000000000000000000000000000000000000000000000000000000000000000000000000000000000000000000000000000000000000000000000000000000000000000000000000000000000000000000000000000000000000000000000000000000000000000000000000000000000000000000000000000000000000000000000000000000008302000080850a00000000808203b642a056e81f171bcc55a6ff8345e692c0f86e5b48e01b996cadc001622fb5e363b421880102030405060708c0c0",
        "lastblockhash" : "0x81c152e73f8fb2a8faa16cd489be93713a8de25f32605e8c6006fd7385226c61",
        "network" : "ConstantinopleFix",
        "postState" : {
            "0x2adc25665018aa1fe0e6bc666dac8fc2697ff9ba" : {
                "balance" : "0x1bc16d674ec9e708",
                "code" : "0x",
                "nonce" : "0x00",
                "storage" : {
                }
            },
            "0x6295ee1b4f6dd65047762f924ecd367c17eabf8f" : {
                "balance" : "0x01",
                "code" : "0x",
                "nonce" : "0x01",
                "storage" : {
                }
            },
            "0xa94f5374fce5edbc8e2a8697c15331677e6ebf0b" : {
                "balance" : "0xe8d4a50ffffffe18f7",
                "code" : "0x",
                "nonce" : "0x01",
                "storage" : {
                }
            },
            "0xb94f5374fce5edbc8e2a8697c15331677e6ebf0b" : {
                "balance" : "0xe8d4a5100000000000",
                "code" : "0x",
                "nonce" : "0x00",
                "storage" : {
                }
            }
        },
        "pre" : {
            "0xa94f5374fce5edbc8e2a8697c15331677e6ebf0b" : {
                "balance" : "0xe8d4a5100000000000",
                "code" : "0x",
                "nonce" : "0x00",
                "storage" : {
                }
            },
            "0xb94f5374fce5edbc8e2a8697c15331677e6ebf0b" : {
                "balance" : "0xe8d4a5100000000000",
                "code" : "0x",
                "nonce" : "0x00",
                "storage" : {
                }
            }
        },
        "sealEngine" : "NoProof"
    }
}