{
    "SuicidesAndInternlCallSuicidesOOG_d0g0v0_Berlin" : {
        "_info" : {
            "comment" : "",
            "filling-rpc-server" : "evm version 1.10.4-unstable-966ee3ae-20210528",
            "filling-tool-version" : "retesteth-0.1.1-eip1559+commit.658fc3a8.Linux.g++",
            "lllcversion" : "Version: 0.5.14-develop.2021.5.18+commit.14c9d5de.mod.Linux.g++",
            "source" : "src/GeneralStateTestsFiller/stTransactionTest/SuicidesAndInternlCallSuicidesOOGFiller.json",
            "sourceHash" : "37871559b72d0c682be0b40762d87c0731779669264575fb81fc9c2d2229dbe5"
        },
        "genesisBlockHeader" : {
            "bloom" : "0x00000000000000000000000000000000000000000000000000000000000000000000000000000000000000000000000000000000000000000000000000000000000000000000000000000000000000000000000000000000000000000000000000000000000000000000000000000000000000000000000000000000000000000000000000000000000000000000000000000000000000000000000000000000000000000000000000000000000000000000000000000000000000000000000000000000000000000000000000000000000000000000000000000000000000000000000000000000000000000000000000000000000000000000000000000000",
            "coinbase" : "0xb94f5374fce5edbc8e2a8697c15331677e6ebf0b",
            "difficulty" : "0x020000",
            "extraData" : "0x00",
            "gasLimit" : "0x0f4240",
            "gasUsed" : "0x00",
            "hash" : "0x78b52add68a1b56705cc79f3a841c0d9d80c02a40aef63582dac3b4d9b0608b4",
            "mixHash" : "0x0000000000000000000000000000000000000000000000000000000000000000",
            "nonce" : "0x0000000000000000",
            "number" : "0x00",
            "parentHash" : "0x0000000000000000000000000000000000000000000000000000000000000000",
            "receiptTrie" : "0x56e81f171bcc55a6ff8345e692c0f86e5b48e01b996cadc001622fb5e363b421",
            "stateRoot" : "0x5d0ff5899de0b67dfd3a07f750a734c9c5f0ce2aed8d7f9245948ba5222dcf4d",
            "timestamp" : "0x00",
            "transactionsTrie" : "0x56e81f171bcc55a6ff8345e692c0f86e5b48e01b996cadc001622fb5e363b421",
            "uncleHash" : "0x1dcc4de8dec75d7aab85b567b6ccd41ad312451b948a7413f0a142fd40d49347"
        },
        "pre" : {
            "0x0000000000000000000000000000000000000000" : {
                "balance" : "0x00",
                "code" : "0x6001ff00",
                "nonce" : "0x00",
                "storage" : {
                }
            },
            "0xa94f5374fce5edbc8e2a8697c15331677e6ebf0b" : {
                "balance" : "0x05f5e100",
                "code" : "0x",
                "nonce" : "0x00",
                "storage" : {
                }
            },
            "0xc94f5374fce5edbc8e2a8697c15331677e6ebf0b" : {
                "balance" : "0x0a",
                "code" : "0x6000600060006000600160006155f0f1506000ff00",
                "nonce" : "0x00",
                "storage" : {
                }
            }
        },
        "postState" : {
            "0x0000000000000000000000000000000000000000" : {
                "code" : "0x6001ff00",
                "nonce" : "0x00",
                "balance" : "0x00",
                "storage" : {
                }
            },
            "0xa94f5374fce5edbc8e2a8697c15331677e6ebf0b" : {
                "code" : "0x",
                "nonce" : "0x01",
                "balance" : "0x05ee3fe0",
                "storage" : {
                }
            },
            "0xb94f5374fce5edbc8e2a8697c15331677e6ebf0b" : {
                "code" : "0x",
                "nonce" : "0x00",
                "balance" : "0x1bc16d674ecfa120",
                "storage" : {
                }
            },
            "0xc94f5374fce5edbc8e2a8697c15331677e6ebf0b" : {
                "code" : "0x6000600060006000600160006155f0f1506000ff00",
                "nonce" : "0x00",
                "balance" : "0x0a",
                "storage" : {
                }
            }
        },
        "network" : "Berlin",
        "sealEngine" : "NoProof",
        "lastblockhash" : "0x9168abfa3dbbc163f73aedc7299501baf33d951ef86ec2c5127a100b33424955",
        "genesisRLP" : "0xf901f8f901f3a00000000000000000000000000000000000000000000000000000000000000000a01dcc4de8dec75d7aab85b567b6ccd41ad312451b948a7413f0a142fd40d4934794b94f5374fce5edbc8e2a8697c15331677e6ebf0ba05d0ff5899de0b67dfd3a07f750a734c9c5f0ce2aed8d7f9245948ba5222dcf4da056e81f171bcc55a6ff8345e692c0f86e5b48e01b996cadc001622fb5e363b421a056e81f171bcc55a6ff8345e692c0f86e5b48e01b996cadc001622fb5e363b421b90100000000000000000000000000000000000000000000000000000000000000000000000000000000000000000000000000000000000000000000000000000000000000000000000000000000000000000000000000000000000000000000000000000000000000000000000000000000000000000000000000000000000000000000000000000000000000000000000000000000000000000000000000000000000000000000000000000000000000000000000000000000000000000000000000000000000000000000000000000000000000000000000000000000000000000000000000000000000000000000000000000000000000000000000000000000008302000080830f4240808000a00000000000000000000000000000000000000000000000000000000000000000880000000000000000c0c0",
        "blocks" : [
            {
                "rlp" : "0xf9025ef901f7a078b52add68a1b56705cc79f3a841c0d9d80c02a40aef63582dac3b4d9b0608b4a01dcc4de8dec75d7aab85b567b6ccd41ad312451b948a7413f0a142fd40d4934794b94f5374fce5edbc8e2a8697c15331677e6ebf0ba0a959d59cef0e62b86c763a2739c64b4e300b16ff50f9d85ae10b2f657f04bf53a00ed1e9ed0829286b670bdc7805bc85f8340943b143195904f90bdca86c2407f6a0da0b41af4a22c1b5f9367dfc140949e53c819bbb2c6e8299d4f2b44f25670bb0b90100000000000000000000000000000000000000000000000000000000000000000000000000000000000000000000000000000000000000000000000000000000000000000000000000000000000000000000000000000000000000000000000000000000000000000000000000000000000000000000000000000000000000000000000000000000000000000000000000000000000000000000000000000000000000000000000000000000000000000000000000000000000000000000000000000000000000000000000000000000000000000000000000000000000000000000000000000000000000000000000000000000000000000000000000000000008302000001830f424082c3508203e800a00000000000000000000000000000000000000000000000000000000000000000880000000000000000f861f85f800a82c35094c94f5374fce5edbc8e2a8697c15331677e6ebf0b0a801ca04bec1be9ee435b6007f1c0836637b02553a853728a7a826c45dd033e66aa7f73a03f0169232ad638e31802b935fca13510dfa18db05e69a953023b96ec2460a769c0",
                "blockHeader" : {
                    "bloom" : "0x00000000000000000000000000000000000000000000000000000000000000000000000000000000000000000000000000000000000000000000000000000000000000000000000000000000000000000000000000000000000000000000000000000000000000000000000000000000000000000000000000000000000000000000000000000000000000000000000000000000000000000000000000000000000000000000000000000000000000000000000000000000000000000000000000000000000000000000000000000000000000000000000000000000000000000000000000000000000000000000000000000000000000000000000000000000",
                    "coinbase" : "0xb94f5374fce5edbc8e2a8697c15331677e6ebf0b",
                    "difficulty" : "0x020000",
                    "extraData" : "0x00",
                    "gasLimit" : "0x0f4240",
                    "gasUsed" : "0xc350",
                    "hash" : "0x9168abfa3dbbc163f73aedc7299501baf33d951ef86ec2c5127a100b33424955",
                    "mixHash" : "0x0000000000000000000000000000000000000000000000000000000000000000",
                    "nonce" : "0x0000000000000000",
                    "number" : "0x01",
                    "parentHash" : "0x78b52add68a1b56705cc79f3a841c0d9d80c02a40aef63582dac3b4d9b0608b4",
                    "receiptTrie" : "0xda0b41af4a22c1b5f9367dfc140949e53c819bbb2c6e8299d4f2b44f25670bb0",
                    "stateRoot" : "0xa959d59cef0e62b86c763a2739c64b4e300b16ff50f9d85ae10b2f657f04bf53",
                    "timestamp" : "0x03e8",
                    "transactionsTrie" : "0x0ed1e9ed0829286b670bdc7805bc85f8340943b143195904f90bdca86c2407f6",
                    "uncleHash" : "0x1dcc4de8dec75d7aab85b567b6ccd41ad312451b948a7413f0a142fd40d49347"
                },
                "transactions" : [
                    {
                        "data" : "0x",
                        "gasLimit" : "0xc350",
                        "gasPrice" : "0x0a",
                        "nonce" : "0x00",
                        "to" : "0xc94f5374fce5edbc8e2a8697c15331677e6ebf0b",
                        "value" : "0x0a",
                        "v" : "0x1c",
                        "r" : "0x4bec1be9ee435b6007f1c0836637b02553a853728a7a826c45dd033e66aa7f73",
                        "s" : "0x3f0169232ad638e31802b935fca13510dfa18db05e69a953023b96ec2460a769"
                    }
                ],
                "uncleHeaders" : [
                ]
            }
        ]
    },
    "SuicidesAndInternlCallSuicidesOOG_d0g0v0_Istanbul" : {
        "_info" : {
            "comment" : "",
            "filling-rpc-server" : "evm version 1.10.4-unstable-966ee3ae-20210528",
            "filling-tool-version" : "retesteth-0.1.1-eip1559+commit.658fc3a8.Linux.g++",
            "lllcversion" : "Version: 0.5.14-develop.2021.5.18+commit.14c9d5de.mod.Linux.g++",
            "source" : "src/GeneralStateTestsFiller/stTransactionTest/SuicidesAndInternlCallSuicidesOOGFiller.json",
            "sourceHash" : "37871559b72d0c682be0b40762d87c0731779669264575fb81fc9c2d2229dbe5"
        },
        "genesisBlockHeader" : {
            "bloom" : "0x00000000000000000000000000000000000000000000000000000000000000000000000000000000000000000000000000000000000000000000000000000000000000000000000000000000000000000000000000000000000000000000000000000000000000000000000000000000000000000000000000000000000000000000000000000000000000000000000000000000000000000000000000000000000000000000000000000000000000000000000000000000000000000000000000000000000000000000000000000000000000000000000000000000000000000000000000000000000000000000000000000000000000000000000000000000",
            "coinbase" : "0xb94f5374fce5edbc8e2a8697c15331677e6ebf0b",
            "difficulty" : "0x020000",
            "extraData" : "0x00",
            "gasLimit" : "0x0f4240",
            "gasUsed" : "0x00",
            "hash" : "0x78b52add68a1b56705cc79f3a841c0d9d80c02a40aef63582dac3b4d9b0608b4",
            "mixHash" : "0x0000000000000000000000000000000000000000000000000000000000000000",
            "nonce" : "0x0000000000000000",
            "number" : "0x00",
            "parentHash" : "0x0000000000000000000000000000000000000000000000000000000000000000",
            "receiptTrie" : "0x56e81f171bcc55a6ff8345e692c0f86e5b48e01b996cadc001622fb5e363b421",
            "stateRoot" : "0x5d0ff5899de0b67dfd3a07f750a734c9c5f0ce2aed8d7f9245948ba5222dcf4d",
            "timestamp" : "0x00",
            "transactionsTrie" : "0x56e81f171bcc55a6ff8345e692c0f86e5b48e01b996cadc001622fb5e363b421",
            "uncleHash" : "0x1dcc4de8dec75d7aab85b567b6ccd41ad312451b948a7413f0a142fd40d49347"
        },
        "pre" : {
            "0x0000000000000000000000000000000000000000" : {
                "balance" : "0x00",
                "code" : "0x6001ff00",
                "nonce" : "0x00",
                "storage" : {
                }
            },
            "0xa94f5374fce5edbc8e2a8697c15331677e6ebf0b" : {
                "balance" : "0x05f5e100",
                "code" : "0x",
                "nonce" : "0x00",
                "storage" : {
                }
            },
            "0xc94f5374fce5edbc8e2a8697c15331677e6ebf0b" : {
                "balance" : "0x0a",
                "code" : "0x6000600060006000600160006155f0f1506000ff00",
                "nonce" : "0x00",
                "storage" : {
                }
            }
        },
        "postState" : {
            "0x0000000000000000000000000000000000000000" : {
                "code" : "0x6001ff00",
                "nonce" : "0x00",
                "balance" : "0x00",
                "storage" : {
                }
            },
            "0xa94f5374fce5edbc8e2a8697c15331677e6ebf0b" : {
                "code" : "0x",
                "nonce" : "0x01",
                "balance" : "0x05ee3fe0",
                "storage" : {
                }
            },
            "0xb94f5374fce5edbc8e2a8697c15331677e6ebf0b" : {
                "code" : "0x",
                "nonce" : "0x00",
                "balance" : "0x1bc16d674ecfa120",
                "storage" : {
                }
            },
            "0xc94f5374fce5edbc8e2a8697c15331677e6ebf0b" : {
                "code" : "0x6000600060006000600160006155f0f1506000ff00",
                "nonce" : "0x00",
                "balance" : "0x0a",
                "storage" : {
                }
            }
        },
        "network" : "Istanbul",
        "sealEngine" : "NoProof",
        "lastblockhash" : "0x9168abfa3dbbc163f73aedc7299501baf33d951ef86ec2c5127a100b33424955",
        "genesisRLP" : "0xf901f8f901f3a00000000000000000000000000000000000000000000000000000000000000000a01dcc4de8dec75d7aab85b567b6ccd41ad312451b948a7413f0a142fd40d4934794b94f5374fce5edbc8e2a8697c15331677e6ebf0ba05d0ff5899de0b67dfd3a07f750a734c9c5f0ce2aed8d7f9245948ba5222dcf4da056e81f171bcc55a6ff8345e692c0f86e5b48e01b996cadc001622fb5e363b421a056e81f171bcc55a6ff8345e692c0f86e5b48e01b996cadc001622fb5e363b421b90100000000000000000000000000000000000000000000000000000000000000000000000000000000000000000000000000000000000000000000000000000000000000000000000000000000000000000000000000000000000000000000000000000000000000000000000000000000000000000000000000000000000000000000000000000000000000000000000000000000000000000000000000000000000000000000000000000000000000000000000000000000000000000000000000000000000000000000000000000000000000000000000000000000000000000000000000000000000000000000000000000000000000000000000000000000008302000080830f4240808000a00000000000000000000000000000000000000000000000000000000000000000880000000000000000c0c0",
        "blocks" : [
            {
                "rlp" : "0xf9025ef901f7a078b52add68a1b56705cc79f3a841c0d9d80c02a40aef63582dac3b4d9b0608b4a01dcc4de8dec75d7aab85b567b6ccd41ad312451b948a7413f0a142fd40d4934794b94f5374fce5edbc8e2a8697c15331677e6ebf0ba0a959d59cef0e62b86c763a2739c64b4e300b16ff50f9d85ae10b2f657f04bf53a00ed1e9ed0829286b670bdc7805bc85f8340943b143195904f90bdca86c2407f6a0da0b41af4a22c1b5f9367dfc140949e53c819bbb2c6e8299d4f2b44f25670bb0b90100000000000000000000000000000000000000000000000000000000000000000000000000000000000000000000000000000000000000000000000000000000000000000000000000000000000000000000000000000000000000000000000000000000000000000000000000000000000000000000000000000000000000000000000000000000000000000000000000000000000000000000000000000000000000000000000000000000000000000000000000000000000000000000000000000000000000000000000000000000000000000000000000000000000000000000000000000000000000000000000000000000000000000000000000000000008302000001830f424082c3508203e800a00000000000000000000000000000000000000000000000000000000000000000880000000000000000f861f85f800a82c35094c94f5374fce5edbc8e2a8697c15331677e6ebf0b0a801ca04bec1be9ee435b6007f1c0836637b02553a853728a7a826c45dd033e66aa7f73a03f0169232ad638e31802b935fca13510dfa18db05e69a953023b96ec2460a769c0",
                "blockHeader" : {
                    "bloom" : "0x00000000000000000000000000000000000000000000000000000000000000000000000000000000000000000000000000000000000000000000000000000000000000000000000000000000000000000000000000000000000000000000000000000000000000000000000000000000000000000000000000000000000000000000000000000000000000000000000000000000000000000000000000000000000000000000000000000000000000000000000000000000000000000000000000000000000000000000000000000000000000000000000000000000000000000000000000000000000000000000000000000000000000000000000000000000",
                    "coinbase" : "0xb94f5374fce5edbc8e2a8697c15331677e6ebf0b",
                    "difficulty" : "0x020000",
                    "extraData" : "0x00",
                    "gasLimit" : "0x0f4240",
                    "gasUsed" : "0xc350",
                    "hash" : "0x9168abfa3dbbc163f73aedc7299501baf33d951ef86ec2c5127a100b33424955",
                    "mixHash" : "0x0000000000000000000000000000000000000000000000000000000000000000",
                    "nonce" : "0x0000000000000000",
                    "number" : "0x01",
                    "parentHash" : "0x78b52add68a1b56705cc79f3a841c0d9d80c02a40aef63582dac3b4d9b0608b4",
                    "receiptTrie" : "0xda0b41af4a22c1b5f9367dfc140949e53c819bbb2c6e8299d4f2b44f25670bb0",
                    "stateRoot" : "0xa959d59cef0e62b86c763a2739c64b4e300b16ff50f9d85ae10b2f657f04bf53",
                    "timestamp" : "0x03e8",
                    "transactionsTrie" : "0x0ed1e9ed0829286b670bdc7805bc85f8340943b143195904f90bdca86c2407f6",
                    "uncleHash" : "0x1dcc4de8dec75d7aab85b567b6ccd41ad312451b948a7413f0a142fd40d49347"
                },
                "transactions" : [
                    {
                        "data" : "0x",
                        "gasLimit" : "0xc350",
                        "gasPrice" : "0x0a",
                        "nonce" : "0x00",
                        "to" : "0xc94f5374fce5edbc8e2a8697c15331677e6ebf0b",
                        "value" : "0x0a",
                        "v" : "0x1c",
                        "r" : "0x4bec1be9ee435b6007f1c0836637b02553a853728a7a826c45dd033e66aa7f73",
                        "s" : "0x3f0169232ad638e31802b935fca13510dfa18db05e69a953023b96ec2460a769"
                    }
                ],
                "uncleHeaders" : [
                ]
            }
        ]
    },
    "SuicidesAndInternlCallSuicidesOOG_d0g0v0_London" : {
        "_info" : {
            "comment" : "",
            "filling-rpc-server" : "evm version 1.10.4-unstable-966ee3ae-20210528",
            "filling-tool-version" : "retesteth-0.1.1-eip1559+commit.658fc3a8.Linux.g++",
            "lllcversion" : "Version: 0.5.14-develop.2021.5.18+commit.14c9d5de.mod.Linux.g++",
            "source" : "src/GeneralStateTestsFiller/stTransactionTest/SuicidesAndInternlCallSuicidesOOGFiller.json",
            "sourceHash" : "37871559b72d0c682be0b40762d87c0731779669264575fb81fc9c2d2229dbe5"
        },
        "genesisBlockHeader" : {
            "bloom" : "0x00000000000000000000000000000000000000000000000000000000000000000000000000000000000000000000000000000000000000000000000000000000000000000000000000000000000000000000000000000000000000000000000000000000000000000000000000000000000000000000000000000000000000000000000000000000000000000000000000000000000000000000000000000000000000000000000000000000000000000000000000000000000000000000000000000000000000000000000000000000000000000000000000000000000000000000000000000000000000000000000000000000000000000000000000000000",
            "coinbase" : "0xb94f5374fce5edbc8e2a8697c15331677e6ebf0b",
            "difficulty" : "0x020000",
            "extraData" : "0x00",
            "gasLimit" : "0x0f4240",
            "gasUsed" : "0x00",
            "hash" : "0xa6a31341b3419de794e054cfc3900323016eb5e5bcef0e98252ca9591fa67c66",
            "mixHash" : "0x0000000000000000000000000000000000000000000000000000000000000000",
            "nonce" : "0x0000000000000000",
            "number" : "0x00",
            "parentHash" : "0x0000000000000000000000000000000000000000000000000000000000000000",
            "receiptTrie" : "0x56e81f171bcc55a6ff8345e692c0f86e5b48e01b996cadc001622fb5e363b421",
            "stateRoot" : "0x5d0ff5899de0b67dfd3a07f750a734c9c5f0ce2aed8d7f9245948ba5222dcf4d",
            "timestamp" : "0x00",
            "transactionsTrie" : "0x56e81f171bcc55a6ff8345e692c0f86e5b48e01b996cadc001622fb5e363b421",
            "uncleHash" : "0x1dcc4de8dec75d7aab85b567b6ccd41ad312451b948a7413f0a142fd40d49347",
            "baseFee" : "0x0b"
        },
        "pre" : {
            "0x0000000000000000000000000000000000000000" : {
                "balance" : "0x00",
                "code" : "0x6001ff00",
                "nonce" : "0x00",
                "storage" : {
                }
            },
            "0xa94f5374fce5edbc8e2a8697c15331677e6ebf0b" : {
                "balance" : "0x05f5e100",
                "code" : "0x",
                "nonce" : "0x00",
                "storage" : {
                }
            },
            "0xc94f5374fce5edbc8e2a8697c15331677e6ebf0b" : {
                "balance" : "0x0a",
                "code" : "0x6000600060006000600160006155f0f1506000ff00",
                "nonce" : "0x00",
                "storage" : {
                }
            }
        },
        "postState" : {
            "0x0000000000000000000000000000000000000000" : {
                "code" : "0x6001ff00",
                "nonce" : "0x00",
                "balance" : "0x00",
                "storage" : {
                }
            },
            "0xa94f5374fce5edbc8e2a8697c15331677e6ebf0b" : {
                "code" : "0x",
                "nonce" : "0x01",
                "balance" : "0x05ee3fe0",
                "storage" : {
                }
            },
            "0xb94f5374fce5edbc8e2a8697c15331677e6ebf0b" : {
                "code" : "0x",
                "nonce" : "0x00",
                "balance" : "0x1bc16d674ec80000",
                "storage" : {
                }
            },
            "0xc94f5374fce5edbc8e2a8697c15331677e6ebf0b" : {
                "code" : "0x6000600060006000600160006155f0f1506000ff00",
                "nonce" : "0x00",
                "balance" : "0x0a",
                "storage" : {
                }
            }
        },
        "network" : "London",
        "sealEngine" : "NoProof",
        "lastblockhash" : "0xadc12fa892350a2f98b28a6b0016cbce0e69e4b3806c1fb1310e7d976b71ae72",
        "genesisRLP" : "0xf901f9f901f4a00000000000000000000000000000000000000000000000000000000000000000a01dcc4de8dec75d7aab85b567b6ccd41ad312451b948a7413f0a142fd40d4934794b94f5374fce5edbc8e2a8697c15331677e6ebf0ba05d0ff5899de0b67dfd3a07f750a734c9c5f0ce2aed8d7f9245948ba5222dcf4da056e81f171bcc55a6ff8345e692c0f86e5b48e01b996cadc001622fb5e363b421a056e81f171bcc55a6ff8345e692c0f86e5b48e01b996cadc001622fb5e363b421b90100000000000000000000000000000000000000000000000000000000000000000000000000000000000000000000000000000000000000000000000000000000000000000000000000000000000000000000000000000000000000000000000000000000000000000000000000000000000000000000000000000000000000000000000000000000000000000000000000000000000000000000000000000000000000000000000000000000000000000000000000000000000000000000000000000000000000000000000000000000000000000000000000000000000000000000000000000000000000000000000000000000000000000000000000000000008302000080830f4240808000a000000000000000000000000000000000000000000000000000000000000000008800000000000000000bc0c0",
        "blocks" : [
            {
                "rlp" : "0xf9025ff901f8a0a6a31341b3419de794e054cfc3900323016eb5e5bcef0e98252ca9591fa67c66a01dcc4de8dec75d7aab85b567b6ccd41ad312451b948a7413f0a142fd40d4934794b94f5374fce5edbc8e2a8697c15331677e6ebf0ba06661dc624bf66e6319dac7dcf68dc777ad15858bf98fdee099240255f2cb485da00ed1e9ed0829286b670bdc7805bc85f8340943b143195904f90bdca86c2407f6a0da0b41af4a22c1b5f9367dfc140949e53c819bbb2c6e8299d4f2b44f25670bb0b90100000000000000000000000000000000000000000000000000000000000000000000000000000000000000000000000000000000000000000000000000000000000000000000000000000000000000000000000000000000000000000000000000000000000000000000000000000000000000000000000000000000000000000000000000000000000000000000000000000000000000000000000000000000000000000000000000000000000000000000000000000000000000000000000000000000000000000000000000000000000000000000000000000000000000000000000000000000000000000000000000000000000000000000000000000000008302000001830f424082c3508203e800a000000000000000000000000000000000000000000000000000000000000000008800000000000000000af861f85f800a82c35094c94f5374fce5edbc8e2a8697c15331677e6ebf0b0a801ca04bec1be9ee435b6007f1c0836637b02553a853728a7a826c45dd033e66aa7f73a03f0169232ad638e31802b935fca13510dfa18db05e69a953023b96ec2460a769c0",
                "blockHeader" : {
                    "bloom" : "0x00000000000000000000000000000000000000000000000000000000000000000000000000000000000000000000000000000000000000000000000000000000000000000000000000000000000000000000000000000000000000000000000000000000000000000000000000000000000000000000000000000000000000000000000000000000000000000000000000000000000000000000000000000000000000000000000000000000000000000000000000000000000000000000000000000000000000000000000000000000000000000000000000000000000000000000000000000000000000000000000000000000000000000000000000000000",
                    "coinbase" : "0xb94f5374fce5edbc8e2a8697c15331677e6ebf0b",
                    "difficulty" : "0x020000",
                    "extraData" : "0x00",
                    "gasLimit" : "0x0f4240",
                    "gasUsed" : "0xc350",
                    "hash" : "0xadc12fa892350a2f98b28a6b0016cbce0e69e4b3806c1fb1310e7d976b71ae72",
                    "mixHash" : "0x0000000000000000000000000000000000000000000000000000000000000000",
                    "nonce" : "0x0000000000000000",
                    "number" : "0x01",
                    "parentHash" : "0xa6a31341b3419de794e054cfc3900323016eb5e5bcef0e98252ca9591fa67c66",
                    "receiptTrie" : "0xda0b41af4a22c1b5f9367dfc140949e53c819bbb2c6e8299d4f2b44f25670bb0",
                    "stateRoot" : "0x6661dc624bf66e6319dac7dcf68dc777ad15858bf98fdee099240255f2cb485d",
                    "timestamp" : "0x03e8",
                    "transactionsTrie" : "0x0ed1e9ed0829286b670bdc7805bc85f8340943b143195904f90bdca86c2407f6",
                    "uncleHash" : "0x1dcc4de8dec75d7aab85b567b6ccd41ad312451b948a7413f0a142fd40d49347",
                    "baseFee" : "0x0a"
                },
                "transactions" : [
                    {
                        "data" : "0x",
                        "gasLimit" : "0xc350",
                        "gasPrice" : "0x0a",
                        "nonce" : "0x00",
                        "to" : "0xc94f5374fce5edbc8e2a8697c15331677e6ebf0b",
                        "value" : "0x0a",
                        "v" : "0x1c",
                        "r" : "0x4bec1be9ee435b6007f1c0836637b02553a853728a7a826c45dd033e66aa7f73",
                        "s" : "0x3f0169232ad638e31802b935fca13510dfa18db05e69a953023b96ec2460a769"
                    }
                ],
                "uncleHeaders" : [
                ]
            }
        ]
    }
}