{
    "RecallSuicidedContractInOneBlock_Berlin" : {
        "_info" : {
            "comment" : "",
            "filling-rpc-server" : "evm version 1.10.4-unstable-966ee3ae-20210528",
            "filling-tool-version" : "retesteth-0.1.1-eip1559+commit.658fc3a8.Linux.g++",
            "lllcversion" : "Version: 0.5.14-develop.2021.5.18+commit.14c9d5de.mod.Linux.g++",
            "source" : "src/BlockchainTestsFiller/ValidBlocks/bcValidBlockTest/RecallSuicidedContractInOneBlockFiller.json",
            "sourceHash" : "3c87d50dd4f5f8bdaa329eafaabc64be88c7682ae7cd1efb873c3427d6949f13"
        },
        "sealEngine" : "NoProof",
        "network" : "Berlin",
        "pre" : {
            "0xa94f5374fce5edbc8e2a8697c15331677e6ebf0b" : {
                "balance" : "0x09184e72a000",
                "code" : "0x",
                "nonce" : "0x00",
                "storage" : {
                }
            }
        },
        "genesisBlockHeader" : {
            "bloom" : "0x00000000000000000000000000000000000000000000000000000000000000000000000000000000000000000000000000000000000000000000000000000000000000000000000000000000000000000000000000000000000000000000000000000000000000000000000000000000000000000000000000000000000000000000000000000000000000000000000000000000000000000000000000000000000000000000000000000000000000000000000000000000000000000000000000000000000000000000000000000000000000000000000000000000000000000000000000000000000000000000000000000000000000000000000000000000",
            "coinbase" : "0x8888f1f195afa192cfee860698584c030f4c9db1",
            "difficulty" : "0x020000",
            "extraData" : "0x42",
            "gasLimit" : "0x2fefd8",
            "gasUsed" : "0x00",
            "hash" : "0x2b253498ad5e63a16978753398bad1fde371a3e513438297b52d65dc98e1db29",
            "mixHash" : "0x0000000000000000000000000000000000000000000000000000000000000000",
            "nonce" : "0x0000000000000000",
            "number" : "0x00",
            "parentHash" : "0x0000000000000000000000000000000000000000000000000000000000000000",
            "receiptTrie" : "0x56e81f171bcc55a6ff8345e692c0f86e5b48e01b996cadc001622fb5e363b421",
            "stateRoot" : "0x7dba07d6b448a186e9612e5f737d1c909dce473e53199901a302c00646d523c1",
            "timestamp" : "0x54c98c81",
            "transactionsTrie" : "0x56e81f171bcc55a6ff8345e692c0f86e5b48e01b996cadc001622fb5e363b421",
            "uncleHash" : "0x1dcc4de8dec75d7aab85b567b6ccd41ad312451b948a7413f0a142fd40d49347"
        },
        "genesisRLP" : "0xf901fcf901f7a00000000000000000000000000000000000000000000000000000000000000000a01dcc4de8dec75d7aab85b567b6ccd41ad312451b948a7413f0a142fd40d49347948888f1f195afa192cfee860698584c030f4c9db1a07dba07d6b448a186e9612e5f737d1c909dce473e53199901a302c00646d523c1a056e81f171bcc55a6ff8345e692c0f86e5b48e01b996cadc001622fb5e363b421a056e81f171bcc55a6ff8345e692c0f86e5b48e01b996cadc001622fb5e363b421b90100000000000000000000000000000000000000000000000000000000000000000000000000000000000000000000000000000000000000000000000000000000000000000000000000000000000000000000000000000000000000000000000000000000000000000000000000000000000000000000000000000000000000000000000000000000000000000000000000000000000000000000000000000000000000000000000000000000000000000000000000000000000000000000000000000000000000000000000000000000000000000000000000000000000000000000000000000000000000000000000000000000000000000000000000000000008302000080832fefd8808454c98c8142a00000000000000000000000000000000000000000000000000000000000000000880000000000000000c0c0",
        "blocks" : [
            {
                "chainname" : "default",
                "blocknumber" : "1",
                "uncleHeaders" : [
                ],
                "blockHeader" : {
                    "bloom" : "0x00000000000000000000000000000000000000000000000000000000000000000000000000000000000000000000000000000000000000000000000000000000000000000000000000000000000000000000000000000000000000000000000000000000000000000000000000000000000000000000000000000000000000000000000000000000000000000000000000000000000000000000000000000000000000000000000000000000000000000000000000000000000000000000000000000000000000000000000000000000000000000000000000000000000000000000000000000000000000000000000000000000000000000000000000000000",
                    "coinbase" : "0x8888f1f195afa192cfee860698584c030f4c9db1",
                    "difficulty" : "0x020000",
                    "extraData" : "0x42",
                    "gasLimit" : "0x2fefd8",
                    "gasUsed" : "0x010d9c",
                    "hash" : "0x1c212d7e7f8c5f68bf382e1da868f431bd8abcc4296dcfc72ed0b980964481f3",
                    "mixHash" : "0x0000000000000000000000000000000000000000000000000000000000000000",
                    "nonce" : "0x0000000000000000",
                    "number" : "0x01",
                    "parentHash" : "0x2b253498ad5e63a16978753398bad1fde371a3e513438297b52d65dc98e1db29",
                    "receiptTrie" : "0x9e1d33e32131a988cc76e7e1856e4774c47715c8b3204ce9510cf436bc38e971",
                    "stateRoot" : "0xb3a9d9edfcb87c924f36a6aa86957e373b6385584f15fc3f3191a9273514e127",
                    "timestamp" : "0x54c99069",
                    "transactionsTrie" : "0x41e378dcd010cb50a8f02946c9b6e66e4c5b26265f386730360063c7b58697dc",
                    "uncleHash" : "0x1dcc4de8dec75d7aab85b567b6ccd41ad312451b948a7413f0a142fd40d49347"
                },
                "transactions" : [
                    {
                        "data" : "0x604b80600c6000396000f3007c01000000000000000000000000000000000000000000000000000000006000350463cbf0b0c08114602d57005b60006004358073ffffffffffffffffffffffffffffffffffffffff16ff",
                        "gasLimit" : "0x07a120",
                        "gasPrice" : "0x03e8",
                        "nonce" : "0x00",
                        "r" : "0x2ed88b3c3201c87385a284f73e2753f5b3d4634af79315d7ac7a2c8cb1dfe68b",
                        "s" : "0x58f710b6894d19b4fd839de0c0836bdfee6ef1be979078690e9fcff685dda1f6",
                        "to" : "",
                        "v" : "0x1c",
                        "value" : "0xff"
                    }
                ],
                "rlp" : "0xf902a9f901faa02b253498ad5e63a16978753398bad1fde371a3e513438297b52d65dc98e1db29a01dcc4de8dec75d7aab85b567b6ccd41ad312451b948a7413f0a142fd40d49347948888f1f195afa192cfee860698584c030f4c9db1a0b3a9d9edfcb87c924f36a6aa86957e373b6385584f15fc3f3191a9273514e127a041e378dcd010cb50a8f02946c9b6e66e4c5b26265f386730360063c7b58697dca09e1d33e32131a988cc76e7e1856e4774c47715c8b3204ce9510cf436bc38e971b90100000000000000000000000000000000000000000000000000000000000000000000000000000000000000000000000000000000000000000000000000000000000000000000000000000000000000000000000000000000000000000000000000000000000000000000000000000000000000000000000000000000000000000000000000000000000000000000000000000000000000000000000000000000000000000000000000000000000000000000000000000000000000000000000000000000000000000000000000000000000000000000000000000000000000000000000000000000000000000000000000000000000000000000000000000000008302000001832fefd883010d9c8454c9906942a00000000000000000000000000000000000000000000000000000000000000000880000000000000000f8a9f8a7808203e88307a1208081ffb857604b80600c6000396000f3007c01000000000000000000000000000000000000000000000000000000006000350463cbf0b0c08114602d57005b60006004358073ffffffffffffffffffffffffffffffffffffffff16ff1ca02ed88b3c3201c87385a284f73e2753f5b3d4634af79315d7ac7a2c8cb1dfe68ba058f710b6894d19b4fd839de0c0836bdfee6ef1be979078690e9fcff685dda1f6c0"
            },
            {
                "chainname" : "default",
                "blocknumber" : "2",
                "uncleHeaders" : [
                ],
                "blockHeader" : {
                    "bloom" : "0x00000000000000000000000000000000000000000000000000000000000000000000000000000000000000000000000000000000000000000000000000000000000000000000000000000000000000000000000000000000000000000000000000000000000000000000000000000000000000000000000000000000000000000000000000000000000000000000000000000000000000000000000000000000000000000000000000000000000000000000000000000000000000000000000000000000000000000000000000000000000000000000000000000000000000000000000000000000000000000000000000000000000000000000000000000000",
                    "coinbase" : "0x8888f1f195afa192cfee860698584c030f4c9db1",
                    "difficulty" : "0x020000",
                    "extraData" : "0x42",
                    "gasLimit" : "0x2fefd8",
                    "gasUsed" : "0xc7b3",
                    "hash" : "0xa234a82df4313d169d9a0b3323c1919defab0d24ce2df79c053fbc2744a375fc",
                    "mixHash" : "0x0000000000000000000000000000000000000000000000000000000000000000",
                    "nonce" : "0x0000000000000000",
                    "number" : "0x02",
                    "parentHash" : "0x1c212d7e7f8c5f68bf382e1da868f431bd8abcc4296dcfc72ed0b980964481f3",
                    "receiptTrie" : "0xa95ba40836166fcf20774cc25ceaa9369ba5ddf0b700c79246d2dc20eab476fb",
                    "stateRoot" : "0x77f418ba34698765426846d51089951635fdeb249a3687e07e15271f769c3237",
                    "timestamp" : "0x54c99451",
                    "transactionsTrie" : "0xb5103a2344b9a25e1da69094cec1896b9ec63267df8f8fb8bd331795e61bc15f",
                    "uncleHash" : "0x1dcc4de8dec75d7aab85b567b6ccd41ad312451b948a7413f0a142fd40d49347"
                },
                "transactions" : [
                    {
                        "data" : "0xcbf0b0c00000000000000000000000000000000000000000000000000000000000000000",
                        "gasLimit" : "0x07a120",
                        "gasPrice" : "0x03e8",
                        "nonce" : "0x01",
                        "r" : "0x35628acd3651867bccf68ae2c121f3864327f20b2f193b5e0ea44bf2a730e102",
                        "s" : "0x09624760f1d2055d44e7ca402c3a0cd377e93041e364d093e11172277f827e2c",
                        "to" : "0x6295ee1b4f6dd65047762f924ecd367c17eabf8f",
                        "v" : "0x1b",
                        "value" : "0x01"
                    },
                    {
                        "data" : "0xcbf0b0c00110000000000011000000000000011000000000000011000000000000000011",
                        "gasLimit" : "0x07a120",
                        "gasPrice" : "0x03e8",
                        "nonce" : "0x02",
                        "r" : "0x6a0b7a21626658fd3d3d9bf411f7e2c1eb56086755f0df7aa0d7ed3b9a2ad681",
                        "s" : "0x40878bf30a0b2243d61765cd7531c884fa87a90a38d43eb51b02f9459786fd8b",
                        "to" : "0x6295ee1b4f6dd65047762f924ecd367c17eabf8f",
                        "v" : "0x1c",
                        "value" : "0x01"
                    }
                ],
                "rlp" : "0xf90310f901f9a01c212d7e7f8c5f68bf382e1da868f431bd8abcc4296dcfc72ed0b980964481f3a01dcc4de8dec75d7aab85b567b6ccd41ad312451b948a7413f0a142fd40d49347948888f1f195afa192cfee860698584c030f4c9db1a077f418ba34698765426846d51089951635fdeb249a3687e07e15271f769c3237a0b5103a2344b9a25e1da69094cec1896b9ec63267df8f8fb8bd331795e61bc15fa0a95ba40836166fcf20774cc25ceaa9369ba5ddf0b700c79246d2dc20eab476fbb90100000000000000000000000000000000000000000000000000000000000000000000000000000000000000000000000000000000000000000000000000000000000000000000000000000000000000000000000000000000000000000000000000000000000000000000000000000000000000000000000000000000000000000000000000000000000000000000000000000000000000000000000000000000000000000000000000000000000000000000000000000000000000000000000000000000000000000000000000000000000000000000000000000000000000000000000000000000000000000000000000000000000000000000000000000000008302000002832fefd882c7b38454c9945142a00000000000000000000000000000000000000000000000000000000000000000880000000000000000f90110f886018203e88307a120946295ee1b4f6dd65047762f924ecd367c17eabf8f01a4cbf0b0c000000000000000000000000000000000000000000000000000000000000000001ba035628acd3651867bccf68ae2c121f3864327f20b2f193b5e0ea44bf2a730e102a009624760f1d2055d44e7ca402c3a0cd377e93041e364d093e11172277f827e2cf886028203e88307a120946295ee1b4f6dd65047762f924ecd367c17eabf8f01a4cbf0b0c001100000000000110000000000000110000000000000110000000000000000111ca06a0b7a21626658fd3d3d9bf411f7e2c1eb56086755f0df7aa0d7ed3b9a2ad681a040878bf30a0b2243d61765cd7531c884fa87a90a38d43eb51b02f9459786fd8bc0"
            }
        ],
        "postState" : {
            "0x0000000000000000000000000000000000000000" : {
                "code" : "0x",
                "nonce" : "0x00",
                "balance" : "0x0100",
                "storage" : {
                }
            },
            "0x6295ee1b4f6dd65047762f924ecd367c17eabf8f" : {
                "code" : "0x",
                "nonce" : "0x00",
                "balance" : "0x01",
                "storage" : {
                }
            },
            "0x8888f1f195afa192cfee860698584c030f4c9db1" : {
                "code" : "0x",
                "nonce" : "0x00",
                "balance" : "0x3782dacea4b93c98",
                "storage" : {
                }
            },
            "0xa94f5374fce5edbc8e2a8697c15331677e6ebf0b" : {
                "code" : "0x",
                "nonce" : "0x03",
                "balance" : "0x091847496267",
                "storage" : {
                }
            }
        },
        "lastblockhash" : "0xa234a82df4313d169d9a0b3323c1919defab0d24ce2df79c053fbc2744a375fc"
    },
    "RecallSuicidedContractInOneBlock_Istanbul" : {
        "_info" : {
            "comment" : "",
            "filling-rpc-server" : "evm version 1.10.4-unstable-966ee3ae-20210528",
            "filling-tool-version" : "retesteth-0.1.1-eip1559+commit.658fc3a8.Linux.g++",
            "lllcversion" : "Version: 0.5.14-develop.2021.5.18+commit.14c9d5de.mod.Linux.g++",
            "source" : "src/BlockchainTestsFiller/ValidBlocks/bcValidBlockTest/RecallSuicidedContractInOneBlockFiller.json",
            "sourceHash" : "3c87d50dd4f5f8bdaa329eafaabc64be88c7682ae7cd1efb873c3427d6949f13"
        },
        "sealEngine" : "NoProof",
        "network" : "Istanbul",
        "pre" : {
            "0xa94f5374fce5edbc8e2a8697c15331677e6ebf0b" : {
                "balance" : "0x09184e72a000",
                "code" : "0x",
                "nonce" : "0x00",
                "storage" : {
                }
            }
        },
        "genesisBlockHeader" : {
            "bloom" : "0x00000000000000000000000000000000000000000000000000000000000000000000000000000000000000000000000000000000000000000000000000000000000000000000000000000000000000000000000000000000000000000000000000000000000000000000000000000000000000000000000000000000000000000000000000000000000000000000000000000000000000000000000000000000000000000000000000000000000000000000000000000000000000000000000000000000000000000000000000000000000000000000000000000000000000000000000000000000000000000000000000000000000000000000000000000000",
            "coinbase" : "0x8888f1f195afa192cfee860698584c030f4c9db1",
            "difficulty" : "0x020000",
            "extraData" : "0x42",
            "gasLimit" : "0x2fefd8",
            "gasUsed" : "0x00",
            "hash" : "0x2b253498ad5e63a16978753398bad1fde371a3e513438297b52d65dc98e1db29",
            "mixHash" : "0x0000000000000000000000000000000000000000000000000000000000000000",
            "nonce" : "0x0000000000000000",
            "number" : "0x00",
            "parentHash" : "0x0000000000000000000000000000000000000000000000000000000000000000",
            "receiptTrie" : "0x56e81f171bcc55a6ff8345e692c0f86e5b48e01b996cadc001622fb5e363b421",
            "stateRoot" : "0x7dba07d6b448a186e9612e5f737d1c909dce473e53199901a302c00646d523c1",
            "timestamp" : "0x54c98c81",
            "transactionsTrie" : "0x56e81f171bcc55a6ff8345e692c0f86e5b48e01b996cadc001622fb5e363b421",
            "uncleHash" : "0x1dcc4de8dec75d7aab85b567b6ccd41ad312451b948a7413f0a142fd40d49347"
        },
        "genesisRLP" : "0xf901fcf901f7a00000000000000000000000000000000000000000000000000000000000000000a01dcc4de8dec75d7aab85b567b6ccd41ad312451b948a7413f0a142fd40d49347948888f1f195afa192cfee860698584c030f4c9db1a07dba07d6b448a186e9612e5f737d1c909dce473e53199901a302c00646d523c1a056e81f171bcc55a6ff8345e692c0f86e5b48e01b996cadc001622fb5e363b421a056e81f171bcc55a6ff8345e692c0f86e5b48e01b996cadc001622fb5e363b421b90100000000000000000000000000000000000000000000000000000000000000000000000000000000000000000000000000000000000000000000000000000000000000000000000000000000000000000000000000000000000000000000000000000000000000000000000000000000000000000000000000000000000000000000000000000000000000000000000000000000000000000000000000000000000000000000000000000000000000000000000000000000000000000000000000000000000000000000000000000000000000000000000000000000000000000000000000000000000000000000000000000000000000000000000000000000008302000080832fefd8808454c98c8142a00000000000000000000000000000000000000000000000000000000000000000880000000000000000c0c0",
        "blocks" : [
            {
                "chainname" : "default",
                "blocknumber" : "1",
                "uncleHeaders" : [
                ],
                "blockHeader" : {
                    "bloom" : "0x00000000000000000000000000000000000000000000000000000000000000000000000000000000000000000000000000000000000000000000000000000000000000000000000000000000000000000000000000000000000000000000000000000000000000000000000000000000000000000000000000000000000000000000000000000000000000000000000000000000000000000000000000000000000000000000000000000000000000000000000000000000000000000000000000000000000000000000000000000000000000000000000000000000000000000000000000000000000000000000000000000000000000000000000000000000",
                    "coinbase" : "0x8888f1f195afa192cfee860698584c030f4c9db1",
                    "difficulty" : "0x020000",
                    "extraData" : "0x42",
                    "gasLimit" : "0x2fefd8",
                    "gasUsed" : "0x010d9c",
                    "hash" : "0x1c212d7e7f8c5f68bf382e1da868f431bd8abcc4296dcfc72ed0b980964481f3",
                    "mixHash" : "0x0000000000000000000000000000000000000000000000000000000000000000",
                    "nonce" : "0x0000000000000000",
                    "number" : "0x01",
                    "parentHash" : "0x2b253498ad5e63a16978753398bad1fde371a3e513438297b52d65dc98e1db29",
                    "receiptTrie" : "0x9e1d33e32131a988cc76e7e1856e4774c47715c8b3204ce9510cf436bc38e971",
                    "stateRoot" : "0xb3a9d9edfcb87c924f36a6aa86957e373b6385584f15fc3f3191a9273514e127",
                    "timestamp" : "0x54c99069",
                    "transactionsTrie" : "0x41e378dcd010cb50a8f02946c9b6e66e4c5b26265f386730360063c7b58697dc",
                    "uncleHash" : "0x1dcc4de8dec75d7aab85b567b6ccd41ad312451b948a7413f0a142fd40d49347"
                },
                "transactions" : [
                    {
                        "data" : "0x604b80600c6000396000f3007c01000000000000000000000000000000000000000000000000000000006000350463cbf0b0c08114602d57005b60006004358073ffffffffffffffffffffffffffffffffffffffff16ff",
                        "gasLimit" : "0x07a120",
                        "gasPrice" : "0x03e8",
                        "nonce" : "0x00",
                        "r" : "0x2ed88b3c3201c87385a284f73e2753f5b3d4634af79315d7ac7a2c8cb1dfe68b",
                        "s" : "0x58f710b6894d19b4fd839de0c0836bdfee6ef1be979078690e9fcff685dda1f6",
                        "to" : "",
                        "v" : "0x1c",
                        "value" : "0xff"
                    }
                ],
                "rlp" : "0xf902a9f901faa02b253498ad5e63a16978753398bad1fde371a3e513438297b52d65dc98e1db29a01dcc4de8dec75d7aab85b567b6ccd41ad312451b948a7413f0a142fd40d49347948888f1f195afa192cfee860698584c030f4c9db1a0b3a9d9edfcb87c924f36a6aa86957e373b6385584f15fc3f3191a9273514e127a041e378dcd010cb50a8f02946c9b6e66e4c5b26265f386730360063c7b58697dca09e1d33e32131a988cc76e7e1856e4774c47715c8b3204ce9510cf436bc38e971b90100000000000000000000000000000000000000000000000000000000000000000000000000000000000000000000000000000000000000000000000000000000000000000000000000000000000000000000000000000000000000000000000000000000000000000000000000000000000000000000000000000000000000000000000000000000000000000000000000000000000000000000000000000000000000000000000000000000000000000000000000000000000000000000000000000000000000000000000000000000000000000000000000000000000000000000000000000000000000000000000000000000000000000000000000000000008302000001832fefd883010d9c8454c9906942a00000000000000000000000000000000000000000000000000000000000000000880000000000000000f8a9f8a7808203e88307a1208081ffb857604b80600c6000396000f3007c01000000000000000000000000000000000000000000000000000000006000350463cbf0b0c08114602d57005b60006004358073ffffffffffffffffffffffffffffffffffffffff16ff1ca02ed88b3c3201c87385a284f73e2753f5b3d4634af79315d7ac7a2c8cb1dfe68ba058f710b6894d19b4fd839de0c0836bdfee6ef1be979078690e9fcff685dda1f6c0"
            },
            {
                "chainname" : "default",
                "blocknumber" : "2",
                "uncleHeaders" : [
                ],
                "blockHeader" : {
                    "bloom" : "0x00000000000000000000000000000000000000000000000000000000000000000000000000000000000000000000000000000000000000000000000000000000000000000000000000000000000000000000000000000000000000000000000000000000000000000000000000000000000000000000000000000000000000000000000000000000000000000000000000000000000000000000000000000000000000000000000000000000000000000000000000000000000000000000000000000000000000000000000000000000000000000000000000000000000000000000000000000000000000000000000000000000000000000000000000000000",
                    "coinbase" : "0x8888f1f195afa192cfee860698584c030f4c9db1",
                    "difficulty" : "0x020000",
                    "extraData" : "0x42",
                    "gasLimit" : "0x2fefd8",
                    "gasUsed" : "0xbd8b",
                    "hash" : "0xb7927bdd249928e5efa4587143b0ec19cac52639dfdb691e4b4cfcfb1aeb18bf",
                    "mixHash" : "0x0000000000000000000000000000000000000000000000000000000000000000",
                    "nonce" : "0x0000000000000000",
                    "number" : "0x02",
                    "parentHash" : "0x1c212d7e7f8c5f68bf382e1da868f431bd8abcc4296dcfc72ed0b980964481f3",
                    "receiptTrie" : "0xbbeb4f587e39862f7d826cdeb590ec36b4233c37530edf0b2cc509e43f8458c5",
                    "stateRoot" : "0x4295fff89bb5cbc9379df6b53c317db1a5cd2c9b305ff42161b6ffcf2b797a35",
                    "timestamp" : "0x54c99451",
                    "transactionsTrie" : "0xb5103a2344b9a25e1da69094cec1896b9ec63267df8f8fb8bd331795e61bc15f",
                    "uncleHash" : "0x1dcc4de8dec75d7aab85b567b6ccd41ad312451b948a7413f0a142fd40d49347"
                },
                "transactions" : [
                    {
                        "data" : "0xcbf0b0c00000000000000000000000000000000000000000000000000000000000000000",
                        "gasLimit" : "0x07a120",
                        "gasPrice" : "0x03e8",
                        "nonce" : "0x01",
                        "r" : "0x35628acd3651867bccf68ae2c121f3864327f20b2f193b5e0ea44bf2a730e102",
                        "s" : "0x09624760f1d2055d44e7ca402c3a0cd377e93041e364d093e11172277f827e2c",
                        "to" : "0x6295ee1b4f6dd65047762f924ecd367c17eabf8f",
                        "v" : "0x1b",
                        "value" : "0x01"
                    },
                    {
                        "data" : "0xcbf0b0c00110000000000011000000000000011000000000000011000000000000000011",
                        "gasLimit" : "0x07a120",
                        "gasPrice" : "0x03e8",
                        "nonce" : "0x02",
                        "r" : "0x6a0b7a21626658fd3d3d9bf411f7e2c1eb56086755f0df7aa0d7ed3b9a2ad681",
                        "s" : "0x40878bf30a0b2243d61765cd7531c884fa87a90a38d43eb51b02f9459786fd8b",
                        "to" : "0x6295ee1b4f6dd65047762f924ecd367c17eabf8f",
                        "v" : "0x1c",
                        "value" : "0x01"
                    }
                ],
                "rlp" : "0xf90310f901f9a01c212d7e7f8c5f68bf382e1da868f431bd8abcc4296dcfc72ed0b980964481f3a01dcc4de8dec75d7aab85b567b6ccd41ad312451b948a7413f0a142fd40d49347948888f1f195afa192cfee860698584c030f4c9db1a04295fff89bb5cbc9379df6b53c317db1a5cd2c9b305ff42161b6ffcf2b797a35a0b5103a2344b9a25e1da69094cec1896b9ec63267df8f8fb8bd331795e61bc15fa0bbeb4f587e39862f7d826cdeb590ec36b4233c37530edf0b2cc509e43f8458c5b90100000000000000000000000000000000000000000000000000000000000000000000000000000000000000000000000000000000000000000000000000000000000000000000000000000000000000000000000000000000000000000000000000000000000000000000000000000000000000000000000000000000000000000000000000000000000000000000000000000000000000000000000000000000000000000000000000000000000000000000000000000000000000000000000000000000000000000000000000000000000000000000000000000000000000000000000000000000000000000000000000000000000000000000000000000000008302000002832fefd882bd8b8454c9945142a00000000000000000000000000000000000000000000000000000000000000000880000000000000000f90110f886018203e88307a120946295ee1b4f6dd65047762f924ecd367c17eabf8f01a4cbf0b0c000000000000000000000000000000000000000000000000000000000000000001ba035628acd3651867bccf68ae2c121f3864327f20b2f193b5e0ea44bf2a730e102a009624760f1d2055d44e7ca402c3a0cd377e93041e364d093e11172277f827e2cf886028203e88307a120946295ee1b4f6dd65047762f924ecd367c17eabf8f01a4cbf0b0c001100000000000110000000000000110000000000000110000000000000000111ca06a0b7a21626658fd3d3d9bf411f7e2c1eb56086755f0df7aa0d7ed3b9a2ad681a040878bf30a0b2243d61765cd7531c884fa87a90a38d43eb51b02f9459786fd8bc0"
            }
        ],
        "postState" : {
            "0x0000000000000000000000000000000000000000" : {
                "code" : "0x",
                "nonce" : "0x00",
                "balance" : "0x0100",
                "storage" : {
                }
            },
            "0x6295ee1b4f6dd65047762f924ecd367c17eabf8f" : {
                "code" : "0x",
                "nonce" : "0x00",
                "balance" : "0x01",
                "storage" : {
                }
            },
            "0x8888f1f195afa192cfee860698584c030f4c9db1" : {
                "code" : "0x",
                "nonce" : "0x00",
                "balance" : "0x3782dacea4919058",
                "storage" : {
                }
            },
            "0xa94f5374fce5edbc8e2a8697c15331677e6ebf0b" : {
                "code" : "0x",
                "nonce" : "0x03",
                "balance" : "0x091847710ea7",
                "storage" : {
                }
            }
        },
        "lastblockhash" : "0xb7927bdd249928e5efa4587143b0ec19cac52639dfdb691e4b4cfcfb1aeb18bf"
    },
    "RecallSuicidedContractInOneBlock_London" : {
        "_info" : {
            "comment" : "",
            "filling-rpc-server" : "evm version 1.10.4-unstable-966ee3ae-20210528",
            "filling-tool-version" : "retesteth-0.1.1-eip1559+commit.658fc3a8.Linux.g++",
            "lllcversion" : "Version: 0.5.14-develop.2021.5.18+commit.14c9d5de.mod.Linux.g++",
            "source" : "src/BlockchainTestsFiller/ValidBlocks/bcValidBlockTest/RecallSuicidedContractInOneBlockFiller.json",
            "sourceHash" : "3c87d50dd4f5f8bdaa329eafaabc64be88c7682ae7cd1efb873c3427d6949f13"
        },
        "sealEngine" : "NoProof",
        "network" : "London",
        "pre" : {
            "0xa94f5374fce5edbc8e2a8697c15331677e6ebf0b" : {
                "balance" : "0x09184e72a000",
                "code" : "0x",
                "nonce" : "0x00",
                "storage" : {
                }
            }
        },
        "genesisBlockHeader" : {
            "bloom" : "0x00000000000000000000000000000000000000000000000000000000000000000000000000000000000000000000000000000000000000000000000000000000000000000000000000000000000000000000000000000000000000000000000000000000000000000000000000000000000000000000000000000000000000000000000000000000000000000000000000000000000000000000000000000000000000000000000000000000000000000000000000000000000000000000000000000000000000000000000000000000000000000000000000000000000000000000000000000000000000000000000000000000000000000000000000000000",
            "coinbase" : "0x8888f1f195afa192cfee860698584c030f4c9db1",
            "difficulty" : "0x020000",
            "extraData" : "0x42",
            "gasLimit" : "0x2fefd8",
            "gasUsed" : "0x00",
            "hash" : "0x2925832c36ea90666e939e72e094f7d67ed61573ce8e2aeda171f243b3ba7ac8",
            "mixHash" : "0x0000000000000000000000000000000000000000000000000000000000000000",
            "nonce" : "0x0000000000000000",
            "number" : "0x00",
            "parentHash" : "0x0000000000000000000000000000000000000000000000000000000000000000",
            "receiptTrie" : "0x56e81f171bcc55a6ff8345e692c0f86e5b48e01b996cadc001622fb5e363b421",
            "stateRoot" : "0x7dba07d6b448a186e9612e5f737d1c909dce473e53199901a302c00646d523c1",
            "timestamp" : "0x54c98c81",
            "transactionsTrie" : "0x56e81f171bcc55a6ff8345e692c0f86e5b48e01b996cadc001622fb5e363b421",
            "uncleHash" : "0x1dcc4de8dec75d7aab85b567b6ccd41ad312451b948a7413f0a142fd40d49347",
            "baseFee" : "0x10"
        },
        "genesisRLP" : "0xf901fdf901f8a00000000000000000000000000000000000000000000000000000000000000000a01dcc4de8dec75d7aab85b567b6ccd41ad312451b948a7413f0a142fd40d49347948888f1f195afa192cfee860698584c030f4c9db1a07dba07d6b448a186e9612e5f737d1c909dce473e53199901a302c00646d523c1a056e81f171bcc55a6ff8345e692c0f86e5b48e01b996cadc001622fb5e363b421a056e81f171bcc55a6ff8345e692c0f86e5b48e01b996cadc001622fb5e363b421b90100000000000000000000000000000000000000000000000000000000000000000000000000000000000000000000000000000000000000000000000000000000000000000000000000000000000000000000000000000000000000000000000000000000000000000000000000000000000000000000000000000000000000000000000000000000000000000000000000000000000000000000000000000000000000000000000000000000000000000000000000000000000000000000000000000000000000000000000000000000000000000000000000000000000000000000000000000000000000000000000000000000000000000000000000000000008302000080832fefd8808454c98c8142a0000000000000000000000000000000000000000000000000000000000000000088000000000000000010c0c0",
        "blocks" : [
            {
                "chainname" : "default",
                "blocknumber" : "1",
                "uncleHeaders" : [
                ],
                "blockHeader" : {
                    "bloom" : "0x00000000000000000000000000000000000000000000000000000000000000000000000000000000000000000000000000000000000000000000000000000000000000000000000000000000000000000000000000000000000000000000000000000000000000000000000000000000000000000000000000000000000000000000000000000000000000000000000000000000000000000000000000000000000000000000000000000000000000000000000000000000000000000000000000000000000000000000000000000000000000000000000000000000000000000000000000000000000000000000000000000000000000000000000000000000",
                    "coinbase" : "0x8888f1f195afa192cfee860698584c030f4c9db1",
                    "difficulty" : "0x020000",
                    "extraData" : "0x42",
                    "gasLimit" : "0x2fefd8",
                    "gasUsed" : "0x010d9c",
                    "hash" : "0x0ed703a51b85bc42ca609d3ae86370f53c6b01f64f31033d0ce339a9207d8daf",
                    "mixHash" : "0x0000000000000000000000000000000000000000000000000000000000000000",
                    "nonce" : "0x0000000000000000",
                    "number" : "0x01",
                    "parentHash" : "0x2925832c36ea90666e939e72e094f7d67ed61573ce8e2aeda171f243b3ba7ac8",
                    "receiptTrie" : "0x9e1d33e32131a988cc76e7e1856e4774c47715c8b3204ce9510cf436bc38e971",
                    "stateRoot" : "0x2e06af6953af0a1978c8a9b6cd2d640ad0dc464dd929e785b88b282b5e382fbf",
                    "timestamp" : "0x54c99069",
                    "transactionsTrie" : "0x41e378dcd010cb50a8f02946c9b6e66e4c5b26265f386730360063c7b58697dc",
                    "uncleHash" : "0x1dcc4de8dec75d7aab85b567b6ccd41ad312451b948a7413f0a142fd40d49347",
                    "baseFee" : "0x0e"
                },
                "transactions" : [
                    {
                        "data" : "0x604b80600c6000396000f3007c01000000000000000000000000000000000000000000000000000000006000350463cbf0b0c08114602d57005b60006004358073ffffffffffffffffffffffffffffffffffffffff16ff",
                        "gasLimit" : "0x07a120",
                        "gasPrice" : "0x03e8",
                        "nonce" : "0x00",
                        "r" : "0x2ed88b3c3201c87385a284f73e2753f5b3d4634af79315d7ac7a2c8cb1dfe68b",
                        "s" : "0x58f710b6894d19b4fd839de0c0836bdfee6ef1be979078690e9fcff685dda1f6",
                        "to" : "",
                        "v" : "0x1c",
                        "value" : "0xff"
                    }
                ],
                "rlp" : "0xf902aaf901fba02925832c36ea90666e939e72e094f7d67ed61573ce8e2aeda171f243b3ba7ac8a01dcc4de8dec75d7aab85b567b6ccd41ad312451b948a7413f0a142fd40d49347948888f1f195afa192cfee860698584c030f4c9db1a02e06af6953af0a1978c8a9b6cd2d640ad0dc464dd929e785b88b282b5e382fbfa041e378dcd010cb50a8f02946c9b6e66e4c5b26265f386730360063c7b58697dca09e1d33e32131a988cc76e7e1856e4774c47715c8b3204ce9510cf436bc38e971b90100000000000000000000000000000000000000000000000000000000000000000000000000000000000000000000000000000000000000000000000000000000000000000000000000000000000000000000000000000000000000000000000000000000000000000000000000000000000000000000000000000000000000000000000000000000000000000000000000000000000000000000000000000000000000000000000000000000000000000000000000000000000000000000000000000000000000000000000000000000000000000000000000000000000000000000000000000000000000000000000000000000000000000000000000000000008302000001832fefd883010d9c8454c9906942a000000000000000000000000000000000000000000000000000000000000000008800000000000000000ef8a9f8a7808203e88307a1208081ffb857604b80600c6000396000f3007c01000000000000000000000000000000000000000000000000000000006000350463cbf0b0c08114602d57005b60006004358073ffffffffffffffffffffffffffffffffffffffff16ff1ca02ed88b3c3201c87385a284f73e2753f5b3d4634af79315d7ac7a2c8cb1dfe68ba058f710b6894d19b4fd839de0c0836bdfee6ef1be979078690e9fcff685dda1f6c0"
            },
            {
                "chainname" : "default",
                "blocknumber" : "2",
                "uncleHeaders" : [
                ],
                "blockHeader" : {
                    "bloom" : "0x00000000000000000000000000000000000000000000000000000000000000000000000000000000000000000000000000000000000000000000000000000000000000000000000000000000000000000000000000000000000000000000000000000000000000000000000000000000000000000000000000000000000000000000000000000000000000000000000000000000000000000000000000000000000000000000000000000000000000000000000000000000000000000000000000000000000000000000000000000000000000000000000000000000000000000000000000000000000000000000000000000000000000000000000000000000",
                    "coinbase" : "0x8888f1f195afa192cfee860698584c030f4c9db1",
                    "difficulty" : "0x020000",
                    "extraData" : "0x42",
                    "gasLimit" : "0x2fefd8",
                    "gasUsed" : "0x012573",
                    "hash" : "0x97bfe8465794ea900cc139f7e324dd43968d6da1958a73a0448da198246f98f6",
                    "mixHash" : "0x0000000000000000000000000000000000000000000000000000000000000000",
                    "nonce" : "0x0000000000000000",
                    "number" : "0x02",
                    "parentHash" : "0x0ed703a51b85bc42ca609d3ae86370f53c6b01f64f31033d0ce339a9207d8daf",
                    "receiptTrie" : "0x548826f49f875ffddc673638ed46add03d109531af55571adf903ccec6314755",
                    "stateRoot" : "0x8518ba31b3626fa319b6472175bcb3bd2a7785658577bbf8d48b684393ef811e",
                    "timestamp" : "0x54c99451",
                    "transactionsTrie" : "0xb5103a2344b9a25e1da69094cec1896b9ec63267df8f8fb8bd331795e61bc15f",
                    "uncleHash" : "0x1dcc4de8dec75d7aab85b567b6ccd41ad312451b948a7413f0a142fd40d49347",
                    "baseFee" : "0x0d"
                },
                "transactions" : [
                    {
                        "data" : "0xcbf0b0c00000000000000000000000000000000000000000000000000000000000000000",
                        "gasLimit" : "0x07a120",
                        "gasPrice" : "0x03e8",
                        "nonce" : "0x01",
                        "r" : "0x35628acd3651867bccf68ae2c121f3864327f20b2f193b5e0ea44bf2a730e102",
                        "s" : "0x09624760f1d2055d44e7ca402c3a0cd377e93041e364d093e11172277f827e2c",
                        "to" : "0x6295ee1b4f6dd65047762f924ecd367c17eabf8f",
                        "v" : "0x1b",
                        "value" : "0x01"
                    },
                    {
                        "data" : "0xcbf0b0c00110000000000011000000000000011000000000000011000000000000000011",
                        "gasLimit" : "0x07a120",
                        "gasPrice" : "0x03e8",
                        "nonce" : "0x02",
                        "r" : "0x6a0b7a21626658fd3d3d9bf411f7e2c1eb56086755f0df7aa0d7ed3b9a2ad681",
                        "s" : "0x40878bf30a0b2243d61765cd7531c884fa87a90a38d43eb51b02f9459786fd8b",
                        "to" : "0x6295ee1b4f6dd65047762f924ecd367c17eabf8f",
                        "v" : "0x1c",
                        "value" : "0x01"
                    }
                ],
                "rlp" : "0xf90312f901fba00ed703a51b85bc42ca609d3ae86370f53c6b01f64f31033d0ce339a9207d8dafa01dcc4de8dec75d7aab85b567b6ccd41ad312451b948a7413f0a142fd40d49347948888f1f195afa192cfee860698584c030f4c9db1a08518ba31b3626fa319b6472175bcb3bd2a7785658577bbf8d48b684393ef811ea0b5103a2344b9a25e1da69094cec1896b9ec63267df8f8fb8bd331795e61bc15fa0548826f49f875ffddc673638ed46add03d109531af55571adf903ccec6314755b90100000000000000000000000000000000000000000000000000000000000000000000000000000000000000000000000000000000000000000000000000000000000000000000000000000000000000000000000000000000000000000000000000000000000000000000000000000000000000000000000000000000000000000000000000000000000000000000000000000000000000000000000000000000000000000000000000000000000000000000000000000000000000000000000000000000000000000000000000000000000000000000000000000000000000000000000000000000000000000000000000000000000000000000000000000000008302000002832fefd8830125738454c9945142a000000000000000000000000000000000000000000000000000000000000000008800000000000000000df90110f886018203e88307a120946295ee1b4f6dd65047762f924ecd367c17eabf8f01a4cbf0b0c000000000000000000000000000000000000000000000000000000000000000001ba035628acd3651867bccf68ae2c121f3864327f20b2f193b5e0ea44bf2a730e102a009624760f1d2055d44e7ca402c3a0cd377e93041e364d093e11172277f827e2cf886028203e88307a120946295ee1b4f6dd65047762f924ecd367c17eabf8f01a4cbf0b0c001100000000000110000000000000110000000000000110000000000000000111ca06a0b7a21626658fd3d3d9bf411f7e2c1eb56086755f0df7aa0d7ed3b9a2ad681a040878bf30a0b2243d61765cd7531c884fa87a90a38d43eb51b02f9459786fd8bc0"
            }
        ],
        "postState" : {
            "0x0000000000000000000000000000000000000000" : {
                "code" : "0x",
                "nonce" : "0x00",
                "balance" : "0x0100",
                "storage" : {
                }
            },
            "0x6295ee1b4f6dd65047762f924ecd367c17eabf8f" : {
                "code" : "0x",
                "nonce" : "0x00",
                "balance" : "0x01",
                "storage" : {
                }
            },
            "0x8888f1f195afa192cfee860698584c030f4c9db1" : {
                "code" : "0x",
                "nonce" : "0x00",
                "balance" : "0x3782dacea609cd39",
                "storage" : {
                }
            },
            "0xa94f5374fce5edbc8e2a8697c15331677e6ebf0b" : {
                "code" : "0x",
                "nonce" : "0x03",
                "balance" : "0x091845db2c67",
                "storage" : {
                }
            }
        },
        "lastblockhash" : "0x97bfe8465794ea900cc139f7e324dd43968d6da1958a73a0448da198246f98f6"
    }
}