{
    "SimpleTx_Berlin" : {
        "_info" : {
            "comment" : "",
            "filling-rpc-server" : "evm version 1.10.4-unstable-966ee3ae-20210528",
            "filling-tool-version" : "retesteth-0.1.1-eip1559+commit.658fc3a8.Linux.g++",
            "lllcversion" : "Version: 0.5.14-develop.2021.5.18+commit.14c9d5de.mod.Linux.g++",
            "source" : "src/BlockchainTestsFiller/ValidBlocks/bcValidBlockTest/SimpleTxFiller.json",
            "sourceHash" : "b4d9e0904a51c18e4626482db9fa50742bdad156c9f8b0f0a09c947479bcddd3"
        },
        "sealEngine" : "NoProof",
        "network" : "Berlin",
        "pre" : {
            "0xa94f5374fce5edbc8e2a8697c15331677e6ebf0b" : {
                "balance" : "0x02540be400",
                "code" : "0x",
                "nonce" : "0x00",
                "storage" : {
                }
            }
        },
        "genesisBlockHeader" : {
            "bloom" : "0x00000000000000000000000000000000000000000000000000000000000000000000000000000000000000000000000000000000000000000000000000000000000000000000000000000000000000000000000000000000000000000000000000000000000000000000000000000000000000000000000000000000000000000000000000000000000000000000000000000000000000000000000000000000000000000000000000000000000000000000000000000000000000000000000000000000000000000000000000000000000000000000000000000000000000000000000000000000000000000000000000000000000000000000000000000000",
            "coinbase" : "0x8888f1f195afa192cfee860698584c030f4c9db1",
            "difficulty" : "0x020000",
            "extraData" : "0x42",
            "gasLimit" : "0x2fefd8",
            "gasUsed" : "0x00",
            "hash" : "0x68a61c4a05db4913009de5666753258eb9306157680dc5da0d93656550c9257e",
            "mixHash" : "0x0000000000000000000000000000000000000000000000000000000000000000",
            "nonce" : "0x0000000000000000",
            "number" : "0x00",
            "parentHash" : "0x0000000000000000000000000000000000000000000000000000000000000000",
            "receiptTrie" : "0x56e81f171bcc55a6ff8345e692c0f86e5b48e01b996cadc001622fb5e363b421",
            "stateRoot" : "0xcafd881ab193703b83816c49ff6c2bf6ba6f464a1be560c42106128c8dbc35e7",
            "timestamp" : "0x54c98c81",
            "transactionsTrie" : "0x56e81f171bcc55a6ff8345e692c0f86e5b48e01b996cadc001622fb5e363b421",
            "uncleHash" : "0x1dcc4de8dec75d7aab85b567b6ccd41ad312451b948a7413f0a142fd40d49347"
        },
        "genesisRLP" : "0xf901fcf901f7a00000000000000000000000000000000000000000000000000000000000000000a01dcc4de8dec75d7aab85b567b6ccd41ad312451b948a7413f0a142fd40d49347948888f1f195afa192cfee860698584c030f4c9db1a0cafd881ab193703b83816c49ff6c2bf6ba6f464a1be560c42106128c8dbc35e7a056e81f171bcc55a6ff8345e692c0f86e5b48e01b996cadc001622fb5e363b421a056e81f171bcc55a6ff8345e692c0f86e5b48e01b996cadc001622fb5e363b421b90100000000000000000000000000000000000000000000000000000000000000000000000000000000000000000000000000000000000000000000000000000000000000000000000000000000000000000000000000000000000000000000000000000000000000000000000000000000000000000000000000000000000000000000000000000000000000000000000000000000000000000000000000000000000000000000000000000000000000000000000000000000000000000000000000000000000000000000000000000000000000000000000000000000000000000000000000000000000000000000000000000000000000000000000000000000008302000080832fefd8808454c98c8142a00000000000000000000000000000000000000000000000000000000000000000880000000000000000c0c0",
        "blocks" : [
            {
                "chainname" : "default",
                "blocknumber" : "1",
                "uncleHeaders" : [
                ],
                "blockHeader" : {
                    "bloom" : "0x00000000000000000000000000000000000000000000000000000000000000000000000000000000000000000000000000000000000000000000000000000000000000000000000000000000000000000000000000000000000000000000000000000000000000000000000000000000000000000000000000000000000000000000000000000000000000000000000000000000000000000000000000000000000000000000000000000000000000000000000000000000000000000000000000000000000000000000000000000000000000000000000000000000000000000000000000000000000000000000000000000000000000000000000000000000",
                    "coinbase" : "0x8888f1f195afa192cfee860698584c030f4c9db1",
                    "difficulty" : "0x020000",
                    "extraData" : "0x42",
                    "gasLimit" : "0x2fefd8",
                    "gasUsed" : "0x5208",
                    "hash" : "0x6f4bd25c9c513610867f4ebc9cf5c771d8fcc25d17873abb9d89625b5d1c274f",
                    "mixHash" : "0x0000000000000000000000000000000000000000000000000000000000000000",
                    "nonce" : "0x0000000000000000",
                    "number" : "0x01",
                    "parentHash" : "0x68a61c4a05db4913009de5666753258eb9306157680dc5da0d93656550c9257e",
                    "receiptTrie" : "0x056b23fbba480696b65fe5a59b8f2148a1299103c4f57df839233af2cf4ca2d2",
                    "stateRoot" : "0x68a95fbd2eab6f9c89a0ec17ead36cc1520415634fff17cf7ce935e767a9fa14",
                    "timestamp" : "0x54c99069",
                    "transactionsTrie" : "0x2b2fa1d2e13bdd645394906fd2737efa1f8f5e007a73e601e6db2ce4e1817d06",
                    "uncleHash" : "0x1dcc4de8dec75d7aab85b567b6ccd41ad312451b948a7413f0a142fd40d49347"
                },
                "transactions" : [
                    {
                        "data" : "0x",
                        "gasLimit" : "0xc350",
                        "gasPrice" : "0x03e8",
                        "nonce" : "0x00",
                        "r" : "0x446eb869f0f7f365d5fa3e649c42eba5f9b3f66092c0841e74bd6092ea08342d",
                        "s" : "0x626c0c7cb722f7b8aed94db18bed4f14fe2300bf7f68ce8f40e285914db6d273",
                        "to" : "0x095e7baea6a6c7c4c2dfeb977efac326af552d87",
                        "v" : "0x1c",
                        "value" : "0x0a"
                    }
                ],
                "rlp" : "0xf90262f901f9a068a61c4a05db4913009de5666753258eb9306157680dc5da0d93656550c9257ea01dcc4de8dec75d7aab85b567b6ccd41ad312451b948a7413f0a142fd40d49347948888f1f195afa192cfee860698584c030f4c9db1a068a95fbd2eab6f9c89a0ec17ead36cc1520415634fff17cf7ce935e767a9fa14a02b2fa1d2e13bdd645394906fd2737efa1f8f5e007a73e601e6db2ce4e1817d06a0056b23fbba480696b65fe5a59b8f2148a1299103c4f57df839233af2cf4ca2d2b90100000000000000000000000000000000000000000000000000000000000000000000000000000000000000000000000000000000000000000000000000000000000000000000000000000000000000000000000000000000000000000000000000000000000000000000000000000000000000000000000000000000000000000000000000000000000000000000000000000000000000000000000000000000000000000000000000000000000000000000000000000000000000000000000000000000000000000000000000000000000000000000000000000000000000000000000000000000000000000000000000000000000000000000000000000000008302000001832fefd88252088454c9906942a00000000000000000000000000000000000000000000000000000000000000000880000000000000000f863f861808203e882c35094095e7baea6a6c7c4c2dfeb977efac326af552d870a801ca0446eb869f0f7f365d5fa3e649c42eba5f9b3f66092c0841e74bd6092ea08342da0626c0c7cb722f7b8aed94db18bed4f14fe2300bf7f68ce8f40e285914db6d273c0"
            }
        ],
        "postState" : {
            "0x095e7baea6a6c7c4c2dfeb977efac326af552d87" : {
                "code" : "0x",
                "nonce" : "0x00",
                "balance" : "0x0a",
                "storage" : {
                }
            },
            "0x8888f1f195afa192cfee860698584c030f4c9db1" : {
                "code" : "0x",
                "nonce" : "0x00",
                "balance" : "0x1bc16d6750086f40",
                "storage" : {
                }
            },
            "0xa94f5374fce5edbc8e2a8697c15331677e6ebf0b" : {
                "code" : "0x",
                "nonce" : "0x01",
                "balance" : "0x0252cb74b6",
                "storage" : {
                }
            }
        },
        "lastblockhash" : "0x6f4bd25c9c513610867f4ebc9cf5c771d8fcc25d17873abb9d89625b5d1c274f"
    },
    "SimpleTx_Istanbul" : {
        "_info" : {
            "comment" : "",
            "filling-rpc-server" : "evm version 1.10.4-unstable-966ee3ae-20210528",
            "filling-tool-version" : "retesteth-0.1.1-eip1559+commit.658fc3a8.Linux.g++",
            "lllcversion" : "Version: 0.5.14-develop.2021.5.18+commit.14c9d5de.mod.Linux.g++",
            "source" : "src/BlockchainTestsFiller/ValidBlocks/bcValidBlockTest/SimpleTxFiller.json",
            "sourceHash" : "b4d9e0904a51c18e4626482db9fa50742bdad156c9f8b0f0a09c947479bcddd3"
        },
        "sealEngine" : "NoProof",
        "network" : "Istanbul",
        "pre" : {
            "0xa94f5374fce5edbc8e2a8697c15331677e6ebf0b" : {
                "balance" : "0x02540be400",
                "code" : "0x",
                "nonce" : "0x00",
                "storage" : {
                }
            }
        },
        "genesisBlockHeader" : {
            "bloom" : "0x00000000000000000000000000000000000000000000000000000000000000000000000000000000000000000000000000000000000000000000000000000000000000000000000000000000000000000000000000000000000000000000000000000000000000000000000000000000000000000000000000000000000000000000000000000000000000000000000000000000000000000000000000000000000000000000000000000000000000000000000000000000000000000000000000000000000000000000000000000000000000000000000000000000000000000000000000000000000000000000000000000000000000000000000000000000",
            "coinbase" : "0x8888f1f195afa192cfee860698584c030f4c9db1",
            "difficulty" : "0x020000",
            "extraData" : "0x42",
            "gasLimit" : "0x2fefd8",
            "gasUsed" : "0x00",
            "hash" : "0x68a61c4a05db4913009de5666753258eb9306157680dc5da0d93656550c9257e",
            "mixHash" : "0x0000000000000000000000000000000000000000000000000000000000000000",
            "nonce" : "0x0000000000000000",
            "number" : "0x00",
            "parentHash" : "0x0000000000000000000000000000000000000000000000000000000000000000",
            "receiptTrie" : "0x56e81f171bcc55a6ff8345e692c0f86e5b48e01b996cadc001622fb5e363b421",
            "stateRoot" : "0xcafd881ab193703b83816c49ff6c2bf6ba6f464a1be560c42106128c8dbc35e7",
            "timestamp" : "0x54c98c81",
            "transactionsTrie" : "0x56e81f171bcc55a6ff8345e692c0f86e5b48e01b996cadc001622fb5e363b421",
            "uncleHash" : "0x1dcc4de8dec75d7aab85b567b6ccd41ad312451b948a7413f0a142fd40d49347"
        },
        "genesisRLP" : "0xf901fcf901f7a00000000000000000000000000000000000000000000000000000000000000000a01dcc4de8dec75d7aab85b567b6ccd41ad312451b948a7413f0a142fd40d49347948888f1f195afa192cfee860698584c030f4c9db1a0cafd881ab193703b83816c49ff6c2bf6ba6f464a1be560c42106128c8dbc35e7a056e81f171bcc55a6ff8345e692c0f86e5b48e01b996cadc001622fb5e363b421a056e81f171bcc55a6ff8345e692c0f86e5b48e01b996cadc001622fb5e363b421b90100000000000000000000000000000000000000000000000000000000000000000000000000000000000000000000000000000000000000000000000000000000000000000000000000000000000000000000000000000000000000000000000000000000000000000000000000000000000000000000000000000000000000000000000000000000000000000000000000000000000000000000000000000000000000000000000000000000000000000000000000000000000000000000000000000000000000000000000000000000000000000000000000000000000000000000000000000000000000000000000000000000000000000000000000000000008302000080832fefd8808454c98c8142a00000000000000000000000000000000000000000000000000000000000000000880000000000000000c0c0",
        "blocks" : [
            {
                "chainname" : "default",
                "blocknumber" : "1",
                "uncleHeaders" : [
                ],
                "blockHeader" : {
                    "bloom" : "0x00000000000000000000000000000000000000000000000000000000000000000000000000000000000000000000000000000000000000000000000000000000000000000000000000000000000000000000000000000000000000000000000000000000000000000000000000000000000000000000000000000000000000000000000000000000000000000000000000000000000000000000000000000000000000000000000000000000000000000000000000000000000000000000000000000000000000000000000000000000000000000000000000000000000000000000000000000000000000000000000000000000000000000000000000000000",
                    "coinbase" : "0x8888f1f195afa192cfee860698584c030f4c9db1",
                    "difficulty" : "0x020000",
                    "extraData" : "0x42",
                    "gasLimit" : "0x2fefd8",
                    "gasUsed" : "0x5208",
                    "hash" : "0x6f4bd25c9c513610867f4ebc9cf5c771d8fcc25d17873abb9d89625b5d1c274f",
                    "mixHash" : "0x0000000000000000000000000000000000000000000000000000000000000000",
                    "nonce" : "0x0000000000000000",
                    "number" : "0x01",
                    "parentHash" : "0x68a61c4a05db4913009de5666753258eb9306157680dc5da0d93656550c9257e",
                    "receiptTrie" : "0x056b23fbba480696b65fe5a59b8f2148a1299103c4f57df839233af2cf4ca2d2",
                    "stateRoot" : "0x68a95fbd2eab6f9c89a0ec17ead36cc1520415634fff17cf7ce935e767a9fa14",
                    "timestamp" : "0x54c99069",
                    "transactionsTrie" : "0x2b2fa1d2e13bdd645394906fd2737efa1f8f5e007a73e601e6db2ce4e1817d06",
                    "uncleHash" : "0x1dcc4de8dec75d7aab85b567b6ccd41ad312451b948a7413f0a142fd40d49347"
                },
                "transactions" : [
                    {
                        "data" : "0x",
                        "gasLimit" : "0xc350",
                        "gasPrice" : "0x03e8",
                        "nonce" : "0x00",
                        "r" : "0x446eb869f0f7f365d5fa3e649c42eba5f9b3f66092c0841e74bd6092ea08342d",
                        "s" : "0x626c0c7cb722f7b8aed94db18bed4f14fe2300bf7f68ce8f40e285914db6d273",
                        "to" : "0x095e7baea6a6c7c4c2dfeb977efac326af552d87",
                        "v" : "0x1c",
                        "value" : "0x0a"
                    }
                ],
                "rlp" : "0xf90262f901f9a068a61c4a05db4913009de5666753258eb9306157680dc5da0d93656550c9257ea01dcc4de8dec75d7aab85b567b6ccd41ad312451b948a7413f0a142fd40d49347948888f1f195afa192cfee860698584c030f4c9db1a068a95fbd2eab6f9c89a0ec17ead36cc1520415634fff17cf7ce935e767a9fa14a02b2fa1d2e13bdd645394906fd2737efa1f8f5e007a73e601e6db2ce4e1817d06a0056b23fbba480696b65fe5a59b8f2148a1299103c4f57df839233af2cf4ca2d2b90100000000000000000000000000000000000000000000000000000000000000000000000000000000000000000000000000000000000000000000000000000000000000000000000000000000000000000000000000000000000000000000000000000000000000000000000000000000000000000000000000000000000000000000000000000000000000000000000000000000000000000000000000000000000000000000000000000000000000000000000000000000000000000000000000000000000000000000000000000000000000000000000000000000000000000000000000000000000000000000000000000000000000000000000000000000008302000001832fefd88252088454c9906942a00000000000000000000000000000000000000000000000000000000000000000880000000000000000f863f861808203e882c35094095e7baea6a6c7c4c2dfeb977efac326af552d870a801ca0446eb869f0f7f365d5fa3e649c42eba5f9b3f66092c0841e74bd6092ea08342da0626c0c7cb722f7b8aed94db18bed4f14fe2300bf7f68ce8f40e285914db6d273c0"
            }
        ],
        "postState" : {
            "0x095e7baea6a6c7c4c2dfeb977efac326af552d87" : {
                "code" : "0x",
                "nonce" : "0x00",
                "balance" : "0x0a",
                "storage" : {
                }
            },
            "0x8888f1f195afa192cfee860698584c030f4c9db1" : {
                "code" : "0x",
                "nonce" : "0x00",
                "balance" : "0x1bc16d6750086f40",
                "storage" : {
                }
            },
            "0xa94f5374fce5edbc8e2a8697c15331677e6ebf0b" : {
                "code" : "0x",
                "nonce" : "0x01",
                "balance" : "0x0252cb74b6",
                "storage" : {
                }
            }
        },
        "lastblockhash" : "0x6f4bd25c9c513610867f4ebc9cf5c771d8fcc25d17873abb9d89625b5d1c274f"
    },
    "SimpleTx_London" : {
        "_info" : {
            "comment" : "",
            "filling-rpc-server" : "evm version 1.10.4-unstable-966ee3ae-20210528",
            "filling-tool-version" : "retesteth-0.1.1-eip1559+commit.658fc3a8.Linux.g++",
            "lllcversion" : "Version: 0.5.14-develop.2021.5.18+commit.14c9d5de.mod.Linux.g++",
            "source" : "src/BlockchainTestsFiller/ValidBlocks/bcValidBlockTest/SimpleTxFiller.json",
            "sourceHash" : "b4d9e0904a51c18e4626482db9fa50742bdad156c9f8b0f0a09c947479bcddd3"
        },
        "sealEngine" : "NoProof",
        "network" : "London",
        "pre" : {
            "0xa94f5374fce5edbc8e2a8697c15331677e6ebf0b" : {
                "balance" : "0x02540be400",
                "code" : "0x",
                "nonce" : "0x00",
                "storage" : {
                }
            }
        },
        "genesisBlockHeader" : {
            "bloom" : "0x00000000000000000000000000000000000000000000000000000000000000000000000000000000000000000000000000000000000000000000000000000000000000000000000000000000000000000000000000000000000000000000000000000000000000000000000000000000000000000000000000000000000000000000000000000000000000000000000000000000000000000000000000000000000000000000000000000000000000000000000000000000000000000000000000000000000000000000000000000000000000000000000000000000000000000000000000000000000000000000000000000000000000000000000000000000",
            "coinbase" : "0x8888f1f195afa192cfee860698584c030f4c9db1",
            "difficulty" : "0x020000",
            "extraData" : "0x42",
            "gasLimit" : "0x2fefd8",
            "gasUsed" : "0x00",
            "hash" : "0x543278f34ba6185af611e888394c9317c36db5674d406fac82472b788bf19284",
            "mixHash" : "0x0000000000000000000000000000000000000000000000000000000000000000",
            "nonce" : "0x0000000000000000",
            "number" : "0x00",
            "parentHash" : "0x0000000000000000000000000000000000000000000000000000000000000000",
            "receiptTrie" : "0x56e81f171bcc55a6ff8345e692c0f86e5b48e01b996cadc001622fb5e363b421",
            "stateRoot" : "0xcafd881ab193703b83816c49ff6c2bf6ba6f464a1be560c42106128c8dbc35e7",
            "timestamp" : "0x54c98c81",
            "transactionsTrie" : "0x56e81f171bcc55a6ff8345e692c0f86e5b48e01b996cadc001622fb5e363b421",
            "uncleHash" : "0x1dcc4de8dec75d7aab85b567b6ccd41ad312451b948a7413f0a142fd40d49347",
            "baseFee" : "0x10"
        },
        "genesisRLP" : "0xf901fdf901f8a00000000000000000000000000000000000000000000000000000000000000000a01dcc4de8dec75d7aab85b567b6ccd41ad312451b948a7413f0a142fd40d49347948888f1f195afa192cfee860698584c030f4c9db1a0cafd881ab193703b83816c49ff6c2bf6ba6f464a1be560c42106128c8dbc35e7a056e81f171bcc55a6ff8345e692c0f86e5b48e01b996cadc001622fb5e363b421a056e81f171bcc55a6ff8345e692c0f86e5b48e01b996cadc001622fb5e363b421b90100000000000000000000000000000000000000000000000000000000000000000000000000000000000000000000000000000000000000000000000000000000000000000000000000000000000000000000000000000000000000000000000000000000000000000000000000000000000000000000000000000000000000000000000000000000000000000000000000000000000000000000000000000000000000000000000000000000000000000000000000000000000000000000000000000000000000000000000000000000000000000000000000000000000000000000000000000000000000000000000000000000000000000000000000000000008302000080832fefd8808454c98c8142a0000000000000000000000000000000000000000000000000000000000000000088000000000000000010c0c0",
        "blocks" : [
            {
                "chainname" : "default",
                "blocknumber" : "1",
                "uncleHeaders" : [
                ],
                "blockHeader" : {
                    "bloom" : "0x00000000000000000000000000000000000000000000000000000000000000000000000000000000000000000000000000000000000000000000000000000000000000000000000000000000000000000000000000000000000000000000000000000000000000000000000000000000000000000000000000000000000000000000000000000000000000000000000000000000000000000000000000000000000000000000000000000000000000000000000000000000000000000000000000000000000000000000000000000000000000000000000000000000000000000000000000000000000000000000000000000000000000000000000000000000",
                    "coinbase" : "0x8888f1f195afa192cfee860698584c030f4c9db1",
                    "difficulty" : "0x020000",
                    "extraData" : "0x42",
                    "gasLimit" : "0x2fefd8",
                    "gasUsed" : "0x5208",
                    "hash" : "0x9917e32d9973244240bb8dc71d52350a731ca2a4ca9957572e2b6be6c6fe9fbe",
                    "mixHash" : "0x0000000000000000000000000000000000000000000000000000000000000000",
                    "nonce" : "0x0000000000000000",
                    "number" : "0x01",
                    "parentHash" : "0x543278f34ba6185af611e888394c9317c36db5674d406fac82472b788bf19284",
                    "receiptTrie" : "0x056b23fbba480696b65fe5a59b8f2148a1299103c4f57df839233af2cf4ca2d2",
                    "stateRoot" : "0x9e1dd6fe48b7fff7298173b047367ff48946dde25c9b6227dfc4a015b7c8e2ed",
                    "timestamp" : "0x54c99069",
                    "transactionsTrie" : "0x2b2fa1d2e13bdd645394906fd2737efa1f8f5e007a73e601e6db2ce4e1817d06",
                    "uncleHash" : "0x1dcc4de8dec75d7aab85b567b6ccd41ad312451b948a7413f0a142fd40d49347",
                    "baseFee" : "0x0e"
                },
                "transactions" : [
                    {
                        "data" : "0x",
                        "gasLimit" : "0xc350",
                        "gasPrice" : "0x03e8",
                        "nonce" : "0x00",
                        "r" : "0x446eb869f0f7f365d5fa3e649c42eba5f9b3f66092c0841e74bd6092ea08342d",
                        "s" : "0x626c0c7cb722f7b8aed94db18bed4f14fe2300bf7f68ce8f40e285914db6d273",
                        "to" : "0x095e7baea6a6c7c4c2dfeb977efac326af552d87",
                        "v" : "0x1c",
                        "value" : "0x0a"
                    }
                ],
                "rlp" : "0xf90263f901faa0543278f34ba6185af611e888394c9317c36db5674d406fac82472b788bf19284a01dcc4de8dec75d7aab85b567b6ccd41ad312451b948a7413f0a142fd40d49347948888f1f195afa192cfee860698584c030f4c9db1a09e1dd6fe48b7fff7298173b047367ff48946dde25c9b6227dfc4a015b7c8e2eda02b2fa1d2e13bdd645394906fd2737efa1f8f5e007a73e601e6db2ce4e1817d06a0056b23fbba480696b65fe5a59b8f2148a1299103c4f57df839233af2cf4ca2d2b90100000000000000000000000000000000000000000000000000000000000000000000000000000000000000000000000000000000000000000000000000000000000000000000000000000000000000000000000000000000000000000000000000000000000000000000000000000000000000000000000000000000000000000000000000000000000000000000000000000000000000000000000000000000000000000000000000000000000000000000000000000000000000000000000000000000000000000000000000000000000000000000000000000000000000000000000000000000000000000000000000000000000000000000000000000000008302000001832fefd88252088454c9906942a000000000000000000000000000000000000000000000000000000000000000008800000000000000000ef863f861808203e882c35094095e7baea6a6c7c4c2dfeb977efac326af552d870a801ca0446eb869f0f7f365d5fa3e649c42eba5f9b3f66092c0841e74bd6092ea08342da0626c0c7cb722f7b8aed94db18bed4f14fe2300bf7f68ce8f40e285914db6d273c0"
            }
        ],
        "postState" : {
            "0x095e7baea6a6c7c4c2dfeb977efac326af552d87" : {
                "code" : "0x",
                "nonce" : "0x00",
                "balance" : "0x0a",
                "storage" : {
                }
            },
            "0x8888f1f195afa192cfee860698584c030f4c9db1" : {
                "code" : "0x",
                "nonce" : "0x00",
                "balance" : "0x1bc16d675003f2d0",
                "storage" : {
                }
            },
            "0xa94f5374fce5edbc8e2a8697c15331677e6ebf0b" : {
                "code" : "0x",
                "nonce" : "0x01",
                "balance" : "0x0252cb74b6",
                "storage" : {
                }
            }
        },
        "lastblockhash" : "0x9917e32d9973244240bb8dc71d52350a731ca2a4ca9957572e2b6be6c6fe9fbe"
    }
}