{
    "callcodecallcodecall_ABCB_RECURSIVE" : {
        "_info" : {
            "comment" : "DELEGATECALL -> DELEGATECALL2 -> CALL -> DELEGATECALL2 -> ...",
            "filling-rpc-server" : "evm version 1.10.4-unstable-966ee3ae-20210528",
            "filling-tool-version" : "retesteth-0.1.1-eip1559+commit.658fc3a8.Linux.g++",
            "lllcversion" : "Version: 0.5.14-develop.2021.5.18+commit.14c9d5de.mod.Linux.g++",
            "source" : "src/GeneralStateTestsFiller/stCallDelegateCodesHomestead/callcodecallcodecall_ABCB_RECURSIVEFiller.json",
            "sourceHash" : "df318c4bbbded661ef07754a89450a0dceb52b8069e27fefb8ca59203b660a10"
        },
        "env" : {
            "currentCoinbase" : "0x2adc25665018aa1fe0e6bc666dac8fc2697ff9ba",
            "currentDifficulty" : "0x020000",
            "currentNumber" : "0x01",
            "currentTimestamp" : "0x03e8",
            "previousHash" : "0x5e20a0453cecd065ea59c37ac63e079ee08998b6045136a8ce6635c7912ec0b6",
            "currentGasLimit" : "0xb2d05e00"
        },
        "post" : {
            "Berlin" : [
                {
                    "indexes" : {
                        "data" : 0,
                        "gas" : 0,
                        "value" : 0
                    },
                    "hash" : "0xd8cf1c5157cb8e0e0765d820837005c5f3b5ed2274e1388d84e1a8d9a7c4527c",
                    "txbytes" : "0xf861800a8401c9c38094100000000000000000000000000000000000000080801ba0e8d1cea1a04c8b4da190371aa4937f7756d5c55d54af29cc22a1f457ca1a213aa0517b7f1455b270f21c5e3b5ebf42dd7234a8b7dcbcd0d96e910182f8ccd55629",
                    "logs" : "0x1dcc4de8dec75d7aab85b567b6ccd41ad312451b948a7413f0a142fd40d49347"
                }
            ],
            "Istanbul" : [
                {
                    "indexes" : {
                        "data" : 0,
                        "gas" : 0,
                        "value" : 0
                    },
                    "hash" : "0x5cc9c21c5cadfde06a495c98d76cd53060ad60eb9963bcf46b5a2b104638550f",
                    "txbytes" : "0xf861800a8401c9c38094100000000000000000000000000000000000000080801ba0e8d1cea1a04c8b4da190371aa4937f7756d5c55d54af29cc22a1f457ca1a213aa0517b7f1455b270f21c5e3b5ebf42dd7234a8b7dcbcd0d96e910182f8ccd55629",
                    "logs" : "0x1dcc4de8dec75d7aab85b567b6ccd41ad312451b948a7413f0a142fd40d49347"
                }
            ],
            "London" : [
                {
                    "indexes" : {
                        "data" : 0,
                        "gas" : 0,
                        "value" : 0
                    },
                    "hash" : "0x405a6da8811ff7b2d213a54fe68a572cbee898d9acb814e0febe22e1c2df4a2d",
                    "txbytes" : "0xf861800a8401c9c38094100000000000000000000000000000000000000080801ba0e8d1cea1a04c8b4da190371aa4937f7756d5c55d54af29cc22a1f457ca1a213aa0517b7f1455b270f21c5e3b5ebf42dd7234a8b7dcbcd0d96e910182f8ccd55629",
                    "logs" : "0x1dcc4de8dec75d7aab85b567b6ccd41ad312451b948a7413f0a142fd40d49347"
                }
            ]
        },
        "pre" : {
            "0x1000000000000000000000000000000000000000" : {
                "balance" : "0x0de0b6b3a7640000",
                "code" : "0x604060006040600073100000000000000000000000000000000000000163017d7840f460005500",
                "nonce" : "0x00",
                "storage" : {
                }
            },
            "0x1000000000000000000000000000000000000001" : {
                "balance" : "0x02540be400",
                "code" : "0x6040600060406000731000000000000000000000000000000000000002620f4240f460015500",
                "nonce" : "0x00",
                "storage" : {
                }
            },
            "0x1000000000000000000000000000000000000002" : {
                "balance" : "0x02540be400",
                "code" : "0x604060006040600060007310000000000000000000000000000000000000016207a120f160025500",
                "nonce" : "0x00",
                "storage" : {
                }
            },
            "0xa94f5374fce5edbc8e2a8697c15331677e6ebf0b" : {
                "balance" : "0x0de0b6b3a7640000",
                "code" : "0x",
                "nonce" : "0x00",
                "storage" : {
                }
            }
        },
        "transaction" : {
            "data" : [
                "0x"
            ],
            "gasPrice" : "0x0a",
            "gasLimit" : [
                "0x01c9c380"
            ],
            "nonce" : "0x00",
            "secretKey" : "0x45a915e4d060149eb4365960e6a7a45f334393093061116b197e3240065ff2d8",
            "to" : "0x1000000000000000000000000000000000000000",
            "value" : [
                "0x00"
            ]
        }
    }
}