{
    "refundSuicide50procentCap" : {
        "_info" : {
            "comment" : "",
            "filling-rpc-server" : "evm version 1.10.4-unstable-966ee3ae-20210528",
            "filling-tool-version" : "retesteth-0.1.1-eip1559+commit.658fc3a8.Linux.g++",
            "lllcversion" : "Version: 0.5.14-develop.2021.5.18+commit.14c9d5de.mod.Linux.g++",
            "source" : "src/GeneralStateTestsFiller/stRefundTest/refundSuicide50procentCapFiller.json",
            "sourceHash" : "c40fb05899df0d7cb9820329d91626a9e379f30afd0c2ff7b2ddcdc65b030bd1"
        },
        "env" : {
            "currentCoinbase" : "0x2adc25665018aa1fe0e6bc666dac8fc2697ff9ba",
            "currentDifficulty" : "0x020000",
            "currentNumber" : "0x01",
            "currentTimestamp" : "0x03e8",
            "previousHash" : "0x5e20a0453cecd065ea59c37ac63e079ee08998b6045136a8ce6635c7912ec0b6",
            "currentGasLimit" : "0x05f5e100"
        },
        "post" : {
            "Berlin" : [
                {
                    "indexes" : {
                        "data" : 0,
                        "gas" : 0,
                        "value" : 0
                    },
                    "hash" : "0x5088a085bd6345d48ca35af070dec751ca7ead04cdbe21d29e63053e9c9681d2",
                    "txbytes" : "0xf880800a8398968094095e7baea6a6c7c4c2dfeb977efac326af552d8780a000000000000000000000000000000000000000000000000000000000000001f41ba0dadbb495e7268ba23dbc3206f34623abdff31684e608b529a832e3b08ad06cd1a044481694f8ba79011cc56bb248187b481067d07085b20c03142a50aa226da1f6",
                    "logs" : "0x1dcc4de8dec75d7aab85b567b6ccd41ad312451b948a7413f0a142fd40d49347"
                },
                {
                    "indexes" : {
                        "data" : 1,
                        "gas" : 0,
                        "value" : 0
                    },
                    "hash" : "0x45923c683da31dd1274bfe6c7cfefff418ee2575c17ef6841ab7c5fbe9e26647",
                    "txbytes" : "0xf880800a8398968094095e7baea6a6c7c4c2dfeb977efac326af552d8780a000000000000000000000000000000000000000000000000000000000000100001ca02e7bddca2f91baee67bfb51d6f8b655bcaf4d4df3da91cf2acd488d67e53dd92a043e3eb8768701a7e91b880a4a75b2dbcbd53df142e926b1eb33815c70a18faef",
                    "logs" : "0x1dcc4de8dec75d7aab85b567b6ccd41ad312451b948a7413f0a142fd40d49347"
                }
            ],
            "Istanbul" : [
                {
                    "indexes" : {
                        "data" : 0,
                        "gas" : 0,
                        "value" : 0
                    },
                    "hash" : "0xeddfdda21ba37fd7a778c06ef8d28598287cc3fb5196aed0d420dd2816075c4b",
                    "txbytes" : "0xf880800a8398968094095e7baea6a6c7c4c2dfeb977efac326af552d8780a000000000000000000000000000000000000000000000000000000000000001f41ba0dadbb495e7268ba23dbc3206f34623abdff31684e608b529a832e3b08ad06cd1a044481694f8ba79011cc56bb248187b481067d07085b20c03142a50aa226da1f6",
                    "logs" : "0x1dcc4de8dec75d7aab85b567b6ccd41ad312451b948a7413f0a142fd40d49347"
                },
                {
                    "indexes" : {
                        "data" : 1,
                        "gas" : 0,
                        "value" : 0
                    },
                    "hash" : "0x6a8140e50a8418cf20a220fb053b05c629eaeaa722c4ebd25c9eeb1556099e83",
                    "txbytes" : "0xf880800a8398968094095e7baea6a6c7c4c2dfeb977efac326af552d8780a000000000000000000000000000000000000000000000000000000000000100001ca02e7bddca2f91baee67bfb51d6f8b655bcaf4d4df3da91cf2acd488d67e53dd92a043e3eb8768701a7e91b880a4a75b2dbcbd53df142e926b1eb33815c70a18faef",
                    "logs" : "0x1dcc4de8dec75d7aab85b567b6ccd41ad312451b948a7413f0a142fd40d49347"
                }
            ],
            "London" : [
                {
                    "indexes" : {
                        "data" : 0,
                        "gas" : 0,
                        "value" : 0
                    },
                    "hash" : "0x7fec9a80c2629b54eb270c6a667a1509b914b15b75c13e10df76fb8b00e7156d",
                    "txbytes" : "0xf880800a8398968094095e7baea6a6c7c4c2dfeb977efac326af552d8780a000000000000000000000000000000000000000000000000000000000000001f41ba0dadbb495e7268ba23dbc3206f34623abdff31684e608b529a832e3b08ad06cd1a044481694f8ba79011cc56bb248187b481067d07085b20c03142a50aa226da1f6",
                    "logs" : "0x1dcc4de8dec75d7aab85b567b6ccd41ad312451b948a7413f0a142fd40d49347"
                },
                {
                    "indexes" : {
                        "data" : 1,
                        "gas" : 0,
                        "value" : 0
                    },
                    "hash" : "0xb0e829c7b4216d985ad6d46e1d1545876d4de4e1931fd588c27dcf4fcc06f71d",
                    "txbytes" : "0xf880800a8398968094095e7baea6a6c7c4c2dfeb977efac326af552d8780a000000000000000000000000000000000000000000000000000000000000100001ca02e7bddca2f91baee67bfb51d6f8b655bcaf4d4df3da91cf2acd488d67e53dd92a043e3eb8768701a7e91b880a4a75b2dbcbd53df142e926b1eb33815c70a18faef",
                    "logs" : "0x1dcc4de8dec75d7aab85b567b6ccd41ad312451b948a7413f0a142fd40d49347"
                }
            ]
        },
        "pre" : {
            "0x095e7baea6a6c7c4c2dfeb977efac326af552d87" : {
                "balance" : "0x0de0b6b3a7640000",
                "code" : "0x5a6016526001600a556000600060006000600073aaae7baea6a6c7c4c2dfeb977efac326af552aaa600035f1600b55600060015560006002556000600355600060045560006005556000600655600060075560006008555a6016510360175500",
                "nonce" : "0x00",
                "storage" : {
                    "0x01" : "0x01",
                    "0x02" : "0x01",
                    "0x03" : "0x01",
                    "0x04" : "0x01",
                    "0x05" : "0x01",
                    "0x06" : "0x01",
                    "0x07" : "0x01",
                    "0x08" : "0x01"
                }
            },
            "0x2adc25665018aa1fe0e6bc666dac8fc2697ff9ba" : {
                "balance" : "0x00",
                "code" : "0x",
                "nonce" : "0x01",
                "storage" : {
                }
            },
            "0xa94f5374fce5edbc8e2a8697c15331677e6ebf0b" : {
                "balance" : "0x3b9aca00",
                "code" : "0x",
                "nonce" : "0x00",
                "storage" : {
                }
            },
            "0xaaae7baea6a6c7c4c2dfeb977efac326af552aaa" : {
                "balance" : "0x0de0b6b3a7640000",
                "code" : "0x73095e7baea6a6c7c4c2dfeb977efac326af552d87ff00",
                "nonce" : "0x00",
                "storage" : {
                }
            }
        },
        "transaction" : {
            "data" : [
                "0x00000000000000000000000000000000000000000000000000000000000001f4",
                "0x0000000000000000000000000000000000000000000000000000000000010000"
            ],
            "gasPrice" : "0x0a",
            "gasLimit" : [
                "0x989680"
            ],
            "nonce" : "0x00",
            "secretKey" : "0x45a915e4d060149eb4365960e6a7a45f334393093061116b197e3240065ff2d8",
            "to" : "0x095e7baea6a6c7c4c2dfeb977efac326af552d87",
            "value" : [
                "0x00"
            ]
        }
    }
}