{
    "create2callPrecompiles_d5g0v0_Constantinople" : {
        "_info" : {
            "comment" : "CALL precompiles during init code of CREATE2 contract ",
            "filledwith" : "testeth 1.7.0-alpha.1-20+commit.782a7283",
            "lllcversion" : "Version: 0.5.0-develop.2018.11.9+commit.9709dfe0.Linux.g++",
            "source" : "src/BlockchainTestsFiller/GeneralStateTests/stCreate2/create2callPrecompiles_d5g0v0Filler.json",
            "sourceHash" : "4bf0dd184bc2efd0362d8ea82877d57165a413dd191dce76f7623eaa8048667c"
        },
        "blocks" : [
            {
                "blockHeader" : {
                    "bloom" : "0x00000000000000000000000000000000000000000000000000000000000000000000000000000000000000000000000000000000000000000000000000000000000000000000000000000000000000000000000000000000000000000000000000000000000000000000000000000000000000000000000000000000000000000000000000000000000000000000000000000000000000000000000000000000000000000000000000000000000000000000000000000000000000000000000000000000000000000000000000000000000000000000000000000000000000000000000000000000000000000000000000000000000000000000000000000000",
                    "coinbase" : "0x2adc25665018aa1fe0e6bc666dac8fc2697ff9ba",
                    "difficulty" : "0x020000",
                    "extraData" : "0x",
                    "gasLimit" : "0xe8d4a51000",
                    "gasUsed" : "0x0ad02c",
                    "hash" : "0xd3920d90342c0f09ae7824662f9634d78d8dfbf935df4b0f040a81a50ca26795",
                    "mixHash" : "0x0000000000000000000000000000000000000000000000000000000000000000",
                    "nonce" : "0x0000000000000000",
                    "number" : "0x01",
                    "parentHash" : "0x8a27153c40df6440e0894704e6a5913e3b582e10ab4d2ab098e7117501ce8952",
                    "receiptTrie" : "0xfbbacd5229f6dfa144c7162c6630cfd77e77948624422e71164c34e92b8d73d3",
                    "stateRoot" : "0xddd95ba4f1d5ea41f7cda6ae1880396f96a5c85780c0a0a59648b9beea756caa",
                    "timestamp" : "0x03e8",
                    "transactionsTrie" : "0x18871b1a39c09648d9942ed1385e48bf253a03b5c870833942d69a34126fff71",
                    "uncleHash" : "0x1dcc4de8dec75d7aab85b567b6ccd41ad312451b948a7413f0a142fd40d49347"
                },
                "rlp" : "0xf90281f901faa08a27153c40df6440e0894704e6a5913e3b582e10ab4d2ab098e7117501ce8952a01dcc4de8dec75d7aab85b567b6ccd41ad312451b948a7413f0a142fd40d49347942adc25665018aa1fe0e6bc666dac8fc2697ff9baa0ddd95ba4f1d5ea41f7cda6ae1880396f96a5c85780c0a0a59648b9beea756caaa018871b1a39c09648d9942ed1385e48bf253a03b5c870833942d69a34126fff71a0fbbacd5229f6dfa144c7162c6630cfd77e77948624422e71164c34e92b8d73d3b9010000000000000000000000000000000000000000000000000000000000000000000000000000000000000000000000000000000000000000000000000000000000000000000000000000000000000000000000000000000000000000000000000000000000000000000000000000000000000000000000000000000000000000000000000000000000000000000000000000000000000000000000000000000000000000000000000000000000000000000000000000000000000000000000000000000000000000000000000000000000000000000000000000000000000000000000000000000000000000000000000000000000000000000000000000000000830200000185e8d4a51000830ad02c8203e880a00000000000000000000000000000000000000000000000000000000000000000880000000000000000f881f87f800183e4e1c08001b36000602180601260003960006000f55000fe600160005260206000610100600060006006620927c0f1600255600051600055001ca0594b1ab5f10b9829255d5a5baaddf0f54edf1c11f877b2805d2d1b4c3d1cafd4a044b97de00d58cf1dbbd75b4ebf886bee5894a9061e24330648c71e6a87263a84c0",
                "transactions" : [
                    {
                        "data" : "0x6000602180601260003960006000f55000fe600160005260206000610100600060006006620927c0f160025560005160005500",
                        "gasLimit" : "0xe4e1c0",
                        "gasPrice" : "0x01",
                        "nonce" : "0x00",
                        "r" : "0x594b1ab5f10b9829255d5a5baaddf0f54edf1c11f877b2805d2d1b4c3d1cafd4",
                        "s" : "0x44b97de00d58cf1dbbd75b4ebf886bee5894a9061e24330648c71e6a87263a84",
                        "to" : "",
                        "v" : "0x1c",
                        "value" : "0x01"
                    }
                ],
                "uncleHeaders" : [
                ]
            }
        ],
        "genesisBlockHeader" : {
            "bloom" : "0x00000000000000000000000000000000000000000000000000000000000000000000000000000000000000000000000000000000000000000000000000000000000000000000000000000000000000000000000000000000000000000000000000000000000000000000000000000000000000000000000000000000000000000000000000000000000000000000000000000000000000000000000000000000000000000000000000000000000000000000000000000000000000000000000000000000000000000000000000000000000000000000000000000000000000000000000000000000000000000000000000000000000000000000000000000000",
            "coinbase" : "0x2adc25665018aa1fe0e6bc666dac8fc2697ff9ba",
            "difficulty" : "0x020000",
            "extraData" : "0x42",
            "gasLimit" : "0xe8d4a51000",
            "gasUsed" : "0x00",
            "hash" : "0x8a27153c40df6440e0894704e6a5913e3b582e10ab4d2ab098e7117501ce8952",
            "mixHash" : "0x56e81f171bcc55a6ff8345e692c0f86e5b48e01b996cadc001622fb5e363b421",
            "nonce" : "0x0102030405060708",
            "number" : "0x00",
            "parentHash" : "0x0000000000000000000000000000000000000000000000000000000000000000",
            "receiptTrie" : "0x56e81f171bcc55a6ff8345e692c0f86e5b48e01b996cadc001622fb5e363b421",
            "stateRoot" : "0xebe19d9ffdbcc310e3955bf97df6e366a47e5e5c8ac8697fcaf0719b3d55a701",
            "timestamp" : "0x03b6",
            "transactionsTrie" : "0x56e81f171bcc55a6ff8345e692c0f86e5b48e01b996cadc001622fb5e363b421",
            "uncleHash" : "0x1dcc4de8dec75d7aab85b567b6ccd41ad312451b948a7413f0a142fd40d49347"
        },
        "genesisRLP" : "0xf901fcf901f7a00000000000000000000000000000000000000000000000000000000000000000a01dcc4de8dec75d7aab85b567b6ccd41ad312451b948a7413f0a142fd40d49347942adc25665018aa1fe0e6bc666dac8fc2697ff9baa0ebe19d9ffdbcc310e3955bf97df6e366a47e5e5c8ac8697fcaf0719b3d55a701a056e81f171bcc55a6ff8345e692c0f86e5b48e01b996cadc001622fb5e363b421a056e81f171bcc55a6ff8345e692c0f86e5b48e01b996cadc001622fb5e363b421b9010000000000000000000000000000000000000000000000000000000000000000000000000000000000000000000000000000000000000000000000000000000000000000000000000000000000000000000000000000000000000000000000000000000000000000000000000000000000000000000000000000000000000000000000000000000000000000000000000000000000000000000000000000000000000000000000000000000000000000000000000000000000000000000000000000000000000000000000000000000000000000000000000000000000000000000000000000000000000000000000000000000000000000000000000000000000830200008085e8d4a51000808203b642a056e81f171bcc55a6ff8345e692c0f86e5b48e01b996cadc001622fb5e363b421880102030405060708c0c0",
        "lastblockhash" : "0xd3920d90342c0f09ae7824662f9634d78d8dfbf935df4b0f040a81a50ca26795",
        "network" : "Constantinople",
        "postState" : {
            "0x2adc25665018aa1fe0e6bc666dac8fc2697ff9ba" : {
                "balance" : "0x1bc16d674ed2d02c",
                "code" : "0x",
                "nonce" : "0x00",
                "storage" : {
                }
            },
            "0x4485e4bc412b3cbbf5d9750b8a3bac4e4e6b5c9b" : {
                "balance" : "0x00",
                "code" : "0x",
                "nonce" : "0x01",
                "storage" : {
                    "0x00" : "0x01"
                }
            },
            "0x6295ee1b4f6dd65047762f924ecd367c17eabf8f" : {
                "balance" : "0x01",
                "code" : "0x",
                "nonce" : "0x02",
                "storage" : {
                }
            },
            "0xa94f5374fce5edbc8e2a8697c15331677e6ebf0b" : {
                "balance" : "0x0de0b6b3a7592fd3",
                "code" : "0x",
                "nonce" : "0x01",
                "storage" : {
                }
            },
            "0xaddf5374fce5edbc8e2a8697c15331677e6ebf0b" : {
                "balance" : "0x00",
                "code" : "0x600035600052602035602052604035604052606035606052604060c860806000600060066207a120f260005560c85160015560e851600255",
                "nonce" : "0x00",
                "storage" : {
                }
            },
            "0xb94f5374fce5edbc8e2a8697c15331677e6ebf0b" : {
                "balance" : "0x00",
                "code" : "0x60003560005260203560205260403560405260603560605260803560805260a03560a05260c03560c052604061012c60806000600060066207a120f2600055604061019060606080600060076207a120f260015561012c51600a5561014c51600b55610190516014556101b051601555601454600a5414600255601554600b5414600355",
                "nonce" : "0x00",
                "storage" : {
                }
            }
        },
        "pre" : {
            "0xa94f5374fce5edbc8e2a8697c15331677e6ebf0b" : {
                "balance" : "0x0de0b6b3a7640000",
                "code" : "0x",
                "nonce" : "0x00",
                "storage" : {
                }
            },
            "0xaddf5374fce5edbc8e2a8697c15331677e6ebf0b" : {
                "balance" : "0x00",
                "code" : "0x600035600052602035602052604035604052606035606052604060c860806000600060066207a120f260005560c85160015560e851600255",
                "nonce" : "0x00",
                "storage" : {
                }
            },
            "0xb94f5374fce5edbc8e2a8697c15331677e6ebf0b" : {
                "balance" : "0x00",
                "code" : "0x60003560005260203560205260403560405260603560605260803560805260a03560a05260c03560c052604061012c60806000600060066207a120f2600055604061019060606080600060076207a120f260015561012c51600a5561014c51600b55610190516014556101b051601555601454600a5414600255601554600b5414600355",
                "nonce" : "0x00",
                "storage" : {
                }
            }
        },
        "sealEngine" : "NoProof"
    },
    "create2callPrecompiles_d5g0v0_ConstantinopleFix" : {
        "_info" : {
            "comment" : "CALL precompiles during init code of CREATE2 contract ",
            "filledwith" : "testeth 1.7.0-alpha.1-20+commit.782a7283",
            "lllcversion" : "Version: 0.5.0-develop.2018.11.9+commit.9709dfe0.Linux.g++",
            "source" : "src/BlockchainTestsFiller/GeneralStateTests/stCreate2/create2callPrecompiles_d5g0v0Filler.json",
            "sourceHash" : "4bf0dd184bc2efd0362d8ea82877d57165a413dd191dce76f7623eaa8048667c"
        },
        "blocks" : [
            {
                "blockHeader" : {
                    "bloom" : "0x00000000000000000000000000000000000000000000000000000000000000000000000000000000000000000000000000000000000000000000000000000000000000000000000000000000000000000000000000000000000000000000000000000000000000000000000000000000000000000000000000000000000000000000000000000000000000000000000000000000000000000000000000000000000000000000000000000000000000000000000000000000000000000000000000000000000000000000000000000000000000000000000000000000000000000000000000000000000000000000000000000000000000000000000000000000",
                    "coinbase" : "0x2adc25665018aa1fe0e6bc666dac8fc2697ff9ba",
                    "difficulty" : "0x020000",
                    "extraData" : "0x",
                    "gasLimit" : "0xe8d4a51000",
                    "gasUsed" : "0x0ae2ec",
                    "hash" : "0x400f5a842eb5a5efb2c505338aba40183d0f39e69929999f6fd4506355ca6694",
                    "mixHash" : "0x0000000000000000000000000000000000000000000000000000000000000000",
                    "nonce" : "0x0000000000000000",
                    "number" : "0x01",
                    "parentHash" : "0x8a27153c40df6440e0894704e6a5913e3b582e10ab4d2ab098e7117501ce8952",
                    "receiptTrie" : "0xfcabfa79108677d0365e06886d7f70e2bf55e30fb9dad05f97af5e0d7238a60d",
                    "stateRoot" : "0x74aaf74ef0edfca494d37d24cc9ee5640b2991ad7f0eb1d0bdac63c0f4134de3",
                    "timestamp" : "0x03e8",
                    "transactionsTrie" : "0x18871b1a39c09648d9942ed1385e48bf253a03b5c870833942d69a34126fff71",
                    "uncleHash" : "0x1dcc4de8dec75d7aab85b567b6ccd41ad312451b948a7413f0a142fd40d49347"
                },
                "rlp" : "0xf90281f901faa08a27153c40df6440e0894704e6a5913e3b582e10ab4d2ab098e7117501ce8952a01dcc4de8dec75d7aab85b567b6ccd41ad312451b948a7413f0a142fd40d49347942adc25665018aa1fe0e6bc666dac8fc2697ff9baa074aaf74ef0edfca494d37d24cc9ee5640b2991ad7f0eb1d0bdac63c0f4134de3a018871b1a39c09648d9942ed1385e48bf253a03b5c870833942d69a34126fff71a0fcabfa79108677d0365e06886d7f70e2bf55e30fb9dad05f97af5e0d7238a60db9010000000000000000000000000000000000000000000000000000000000000000000000000000000000000000000000000000000000000000000000000000000000000000000000000000000000000000000000000000000000000000000000000000000000000000000000000000000000000000000000000000000000000000000000000000000000000000000000000000000000000000000000000000000000000000000000000000000000000000000000000000000000000000000000000000000000000000000000000000000000000000000000000000000000000000000000000000000000000000000000000000000000000000000000000000000000830200000185e8d4a51000830ae2ec8203e880a00000000000000000000000000000000000000000000000000000000000000000880000000000000000f881f87f800183e4e1c08001b36000602180601260003960006000f55000fe600160005260206000610100600060006006620927c0f1600255600051600055001ca0594b1ab5f10b9829255d5a5baaddf0f54edf1c11f877b2805d2d1b4c3d1cafd4a044b97de00d58cf1dbbd75b4ebf886bee5894a9061e24330648c71e6a87263a84c0",
                "transactions" : [
                    {
                        "data" : "0x6000602180601260003960006000f55000fe600160005260206000610100600060006006620927c0f160025560005160005500",
                        "gasLimit" : "0xe4e1c0",
                        "gasPrice" : "0x01",
                        "nonce" : "0x00",
                        "r" : "0x594b1ab5f10b9829255d5a5baaddf0f54edf1c11f877b2805d2d1b4c3d1cafd4",
                        "s" : "0x44b97de00d58cf1dbbd75b4ebf886bee5894a9061e24330648c71e6a87263a84",
                        "to" : "",
                        "v" : "0x1c",
                        "value" : "0x01"
                    }
                ],
                "uncleHeaders" : [
                ]
            }
        ],
        "genesisBlockHeader" : {
            "bloom" : "0x00000000000000000000000000000000000000000000000000000000000000000000000000000000000000000000000000000000000000000000000000000000000000000000000000000000000000000000000000000000000000000000000000000000000000000000000000000000000000000000000000000000000000000000000000000000000000000000000000000000000000000000000000000000000000000000000000000000000000000000000000000000000000000000000000000000000000000000000000000000000000000000000000000000000000000000000000000000000000000000000000000000000000000000000000000000",
            "coinbase" : "0x2adc25665018aa1fe0e6bc666dac8fc2697ff9ba",
            "difficulty" : "0x020000",
            "extraData" : "0x42",
            "gasLimit" : "0xe8d4a51000",
            "gasUsed" : "0x00",
            "hash" : "0x8a27153c40df6440e0894704e6a5913e3b582e10ab4d2ab098e7117501ce8952",
            "mixHash" : "0x56e81f171bcc55a6ff8345e692c0f86e5b48e01b996cadc001622fb5e363b421",
            "nonce" : "0x0102030405060708",
            "number" : "0x00",
            "parentHash" : "0x0000000000000000000000000000000000000000000000000000000000000000",
            "receiptTrie" : "0x56e81f171bcc55a6ff8345e692c0f86e5b48e01b996cadc001622fb5e363b421",
            "stateRoot" : "0xebe19d9ffdbcc310e3955bf97df6e366a47e5e5c8ac8697fcaf0719b3d55a701",
            "timestamp" : "0x03b6",
            "transactionsTrie" : "0x56e81f171bcc55a6ff8345e692c0f86e5b48e01b996cadc001622fb5e363b421",
            "uncleHash" : "0x1dcc4de8dec75d7aab85b567b6ccd41ad312451b948a7413f0a142fd40d49347"
        },
        "genesisRLP" : "0xf901fcf901f7a00000000000000000000000000000000000000000000000000000000000000000a01dcc4de8dec75d7aab85b567b6ccd41ad312451b948a7413f0a142fd40d49347942adc25665018aa1fe0e6bc666dac8fc2697ff9baa0ebe19d9ffdbcc310e3955bf97df6e366a47e5e5c8ac8697fcaf0719b3d55a701a056e81f171bcc55a6ff8345e692c0f86e5b48e01b996cadc001622fb5e363b421a056e81f171bcc55a6ff8345e692c0f86e5b48e01b996cadc001622fb5e363b421b9010000000000000000000000000000000000000000000000000000000000000000000000000000000000000000000000000000000000000000000000000000000000000000000000000000000000000000000000000000000000000000000000000000000000000000000000000000000000000000000000000000000000000000000000000000000000000000000000000000000000000000000000000000000000000000000000000000000000000000000000000000000000000000000000000000000000000000000000000000000000000000000000000000000000000000000000000000000000000000000000000000000000000000000000000000000000830200008085e8d4a51000808203b642a056e81f171bcc55a6ff8345e692c0f86e5b48e01b996cadc001622fb5e363b421880102030405060708c0c0",
        "lastblockhash" : "0x400f5a842eb5a5efb2c505338aba40183d0f39e69929999f6fd4506355ca6694",
        "network" : "ConstantinopleFix",
        "postState" : {
            "0x2adc25665018aa1fe0e6bc666dac8fc2697ff9ba" : {
                "balance" : "0x1bc16d674ed2e2ec",
                "code" : "0x",
                "nonce" : "0x00",
                "storage" : {
                }
            },
            "0x4485e4bc412b3cbbf5d9750b8a3bac4e4e6b5c9b" : {
                "balance" : "0x00",
                "code" : "0x",
                "nonce" : "0x01",
                "storage" : {
                    "0x00" : "0x01"
                }
            },
            "0x6295ee1b4f6dd65047762f924ecd367c17eabf8f" : {
                "balance" : "0x01",
                "code" : "0x",
                "nonce" : "0x02",
                "storage" : {
                }
            },
            "0xa94f5374fce5edbc8e2a8697c15331677e6ebf0b" : {
                "balance" : "0x0de0b6b3a7591d13",
                "code" : "0x",
                "nonce" : "0x01",
                "storage" : {
                }
            },
            "0xaddf5374fce5edbc8e2a8697c15331677e6ebf0b" : {
                "balance" : "0x00",
                "code" : "0x600035600052602035602052604035604052606035606052604060c860806000600060066207a120f260005560c85160015560e851600255",
                "nonce" : "0x00",
                "storage" : {
                }
            },
            "0xb94f5374fce5edbc8e2a8697c15331677e6ebf0b" : {
                "balance" : "0x00",
                "code" : "0x60003560005260203560205260403560405260603560605260803560805260a03560a05260c03560c052604061012c60806000600060066207a120f2600055604061019060606080600060076207a120f260015561012c51600a5561014c51600b55610190516014556101b051601555601454600a5414600255601554600b5414600355",
                "nonce" : "0x00",
                "storage" : {
                }
            }
        },
        "pre" : {
            "0xa94f5374fce5edbc8e2a8697c15331677e6ebf0b" : {
                "balance" : "0x0de0b6b3a7640000",
                "code" : "0x",
                "nonce" : "0x00",
                "storage" : {
                }
            },
            "0xaddf5374fce5edbc8e2a8697c15331677e6ebf0b" : {
                "balance" : "0x00",
                "code" : "0x600035600052602035602052604035604052606035606052604060c860806000600060066207a120f260005560c85160015560e851600255",
                "nonce" : "0x00",
                "storage" : {
                }
            },
            "0xb94f5374fce5edbc8e2a8697c15331677e6ebf0b" : {
                "balance" : "0x00",
                "code" : "0x60003560005260203560205260403560405260603560605260803560805260a03560a05260c03560c052604061012c60806000600060066207a120f2600055604061019060606080600060076207a120f260015561012c51600a5561014c51600b55610190516014556101b051601555601454600a5414600255601554600b5414600355",
                "nonce" : "0x00",
                "storage" : {
                }
            }
        },
        "sealEngine" : "NoProof"
    }
}