{
    "Create2OOGafterInitCodeRevert2_d0g0v0_Constantinople" : {
        "_info" : {
            "comment" : "Calls a contract that runs CREATE2 which deploy a code. then after deployment and exiting from CREATE a REVERT is called. check the REVERT data in this case equal to RETURN value of CREATE2. CREATE2 fails due to the deployment cost.",
            "filledwith" : "testeth 1.7.0-alpha.1-20+commit.782a7283",
            "lllcversion" : "Version: 0.5.0-develop.2018.11.9+commit.9709dfe0.Linux.g++",
            "source" : "src/BlockchainTestsFiller/GeneralStateTests/stCreate2/Create2OOGafterInitCodeRevert2_d0g0v0Filler.json",
            "sourceHash" : "c3a0328b0bda230509b5cc5e3f27b49b709b0d9f2cfabe50e375267aa72393e0"
        },
        "blocks" : [
            {
                "blockHeader" : {
                    "bloom" : "0x00000000000000000000000000000000000000000000000000000000000000000000000000000000000000000000000000000000000000000000000000000000000000000000000000000000000000000000000000000000000000000000000000000000000000000000000000000000000000000000000000000000000000000000000000000000000000000000000000000000000000000000000000000000000000000000000000000000000000000000000000000000000000000000000000000000000000000000000000000000000000000000000000000000000000000000000000000000000000000000000000000000000000000000000000000000",
                    "coinbase" : "0x2adc25665018aa1fe0e6bc666dac8fc2697ff9ba",
                    "difficulty" : "0x020000",
                    "extraData" : "0x",
                    "gasLimit" : "0x989680",
                    "gasUsed" : "0xe950",
                    "hash" : "0xf856fa2fcc946195a25fa1ecfc4b2b0e659762690188ea80c1186cce56c72878",
                    "mixHash" : "0x0000000000000000000000000000000000000000000000000000000000000000",
                    "nonce" : "0x0000000000000000",
                    "number" : "0x01",
                    "parentHash" : "0x63f62b336d425afe94288a9eac99affeee2cffa92b8559bca7147b68799e4d31",
                    "receiptTrie" : "0x97e0a291745986aac8d93f48554a9be7453ec98677e344d255d013922f6c997b",
                    "stateRoot" : "0x9fa9c06fe5e21f0c4e66cf706f7ace6182e5ef322cfdfed137de2568996988ac",
                    "timestamp" : "0x03e8",
                    "transactionsTrie" : "0x89ff2c528ea36a7d98b3b8689c69e5f33b60d27295c6e60e6a53e56219deba5f",
                    "uncleHash" : "0x1dcc4de8dec75d7aab85b567b6ccd41ad312451b948a7413f0a142fd40d49347"
                },
                "rlp" : "0xf9025ff901f7a063f62b336d425afe94288a9eac99affeee2cffa92b8559bca7147b68799e4d31a01dcc4de8dec75d7aab85b567b6ccd41ad312451b948a7413f0a142fd40d49347942adc25665018aa1fe0e6bc666dac8fc2697ff9baa09fa9c06fe5e21f0c4e66cf706f7ace6182e5ef322cfdfed137de2568996988aca089ff2c528ea36a7d98b3b8689c69e5f33b60d27295c6e60e6a53e56219deba5fa097e0a291745986aac8d93f48554a9be7453ec98677e344d255d013922f6c997bb901000000000000000000000000000000000000000000000000000000000000000000000000000000000000000000000000000000000000000000000000000000000000000000000000000000000000000000000000000000000000000000000000000000000000000000000000000000000000000000000000000000000000000000000000000000000000000000000000000000000000000000000000000000000000000000000000000000000000000000000000000000000000000000000000000000000000000000000000000000000000000000000000000000000000000000000000000000000000000000000000000000000000000000000000000000000083020000018398968082e9508203e880a00000000000000000000000000000000000000000000000000000000000000000880000000000000000f862f8608001830124f894c94f5374fce5edbc8e2a8697c15331677e6ebf0b80801ca0b524b286a1aaf2902aeec847abc1351ee6c3c1fa27d5405086807bdc855c85b0a0264d638cdeb8512a3cc8fc1261d3f292ebb19c727a08a6630ba6f570915dae33c0",
                "transactions" : [
                    {
                        "data" : "0x",
                        "gasLimit" : "0x0124f8",
                        "gasPrice" : "0x01",
                        "nonce" : "0x00",
                        "r" : "0xb524b286a1aaf2902aeec847abc1351ee6c3c1fa27d5405086807bdc855c85b0",
                        "s" : "0x264d638cdeb8512a3cc8fc1261d3f292ebb19c727a08a6630ba6f570915dae33",
                        "to" : "0xc94f5374fce5edbc8e2a8697c15331677e6ebf0b",
                        "v" : "0x1c",
                        "value" : "0x00"
                    }
                ],
                "uncleHeaders" : [
                ]
            }
        ],
        "genesisBlockHeader" : {
            "bloom" : "0x00000000000000000000000000000000000000000000000000000000000000000000000000000000000000000000000000000000000000000000000000000000000000000000000000000000000000000000000000000000000000000000000000000000000000000000000000000000000000000000000000000000000000000000000000000000000000000000000000000000000000000000000000000000000000000000000000000000000000000000000000000000000000000000000000000000000000000000000000000000000000000000000000000000000000000000000000000000000000000000000000000000000000000000000000000000",
            "coinbase" : "0x2adc25665018aa1fe0e6bc666dac8fc2697ff9ba",
            "difficulty" : "0x020000",
            "extraData" : "0x42",
            "gasLimit" : "0x989680",
            "gasUsed" : "0x00",
            "hash" : "0x63f62b336d425afe94288a9eac99affeee2cffa92b8559bca7147b68799e4d31",
            "mixHash" : "0x56e81f171bcc55a6ff8345e692c0f86e5b48e01b996cadc001622fb5e363b421",
            "nonce" : "0x0102030405060708",
            "number" : "0x00",
            "parentHash" : "0x0000000000000000000000000000000000000000000000000000000000000000",
            "receiptTrie" : "0x56e81f171bcc55a6ff8345e692c0f86e5b48e01b996cadc001622fb5e363b421",
            "stateRoot" : "0x1c91775af33734b5a79cdf6357d5558bb2a17331eca37e2691d79bd6a06ce140",
            "timestamp" : "0x03b6",
            "transactionsTrie" : "0x56e81f171bcc55a6ff8345e692c0f86e5b48e01b996cadc001622fb5e363b421",
            "uncleHash" : "0x1dcc4de8dec75d7aab85b567b6ccd41ad312451b948a7413f0a142fd40d49347"
        },
        "genesisRLP" : "0xf901faf901f5a00000000000000000000000000000000000000000000000000000000000000000a01dcc4de8dec75d7aab85b567b6ccd41ad312451b948a7413f0a142fd40d49347942adc25665018aa1fe0e6bc666dac8fc2697ff9baa01c91775af33734b5a79cdf6357d5558bb2a17331eca37e2691d79bd6a06ce140a056e81f171bcc55a6ff8345e692c0f86e5b48e01b996cadc001622fb5e363b421a056e81f171bcc55a6ff8345e692c0f86e5b48e01b996cadc001622fb5e363b421b9010000000000000000000000000000000000000000000000000000000000000000000000000000000000000000000000000000000000000000000000000000000000000000000000000000000000000000000000000000000000000000000000000000000000000000000000000000000000000000000000000000000000000000000000000000000000000000000000000000000000000000000000000000000000000000000000000000000000000000000000000000000000000000000000000000000000000000000000000000000000000000000000000000000000000000000000000000000000000000000000000000000000000000000000000000000000830200008083989680808203b642a056e81f171bcc55a6ff8345e692c0f86e5b48e01b996cadc001622fb5e363b421880102030405060708c0c0",
        "lastblockhash" : "0xf856fa2fcc946195a25fa1ecfc4b2b0e659762690188ea80c1186cce56c72878",
        "network" : "Constantinople",
        "postState" : {
            "0x2adc25665018aa1fe0e6bc666dac8fc2697ff9ba" : {
                "balance" : "0x1bc16d674ec8e950",
                "code" : "0x",
                "nonce" : "0x00",
                "storage" : {
                }
            },
            "0xa94f5374fce5edbc8e2a8697c15331677e6ebf0b" : {
                "balance" : "0xe8d4a426b0",
                "code" : "0x",
                "nonce" : "0x01",
                "storage" : {
                }
            },
            "0xb94f5374fce5edbc8e2a8697c15331677e6ebf0b" : {
                "balance" : "0x00",
                "code" : "0x6d6460016001556000526005601bf36000526000600e60126000f55060206000fd",
                "nonce" : "0x00",
                "storage" : {
                }
            },
            "0xc94f5374fce5edbc8e2a8697c15331677e6ebf0b" : {
                "balance" : "0x00",
                "code" : "0x6020600060006000600073b94f5374fce5edbc8e2a8697c15331677e6ebf0b6180e8f150600051600155",
                "nonce" : "0x00",
                "storage" : {
                    "0x01" : "0x6460016001556000526005601bf3"
                }
            }
        },
        "pre" : {
            "0xa94f5374fce5edbc8e2a8697c15331677e6ebf0b" : {
                "balance" : "0xe8d4a51000",
                "code" : "0x",
                "nonce" : "0x00",
                "storage" : {
                }
            },
            "0xb94f5374fce5edbc8e2a8697c15331677e6ebf0b" : {
                "balance" : "0x00",
                "code" : "0x6d6460016001556000526005601bf36000526000600e60126000f55060206000fd",
                "nonce" : "0x00",
                "storage" : {
                }
            },
            "0xc94f5374fce5edbc8e2a8697c15331677e6ebf0b" : {
                "balance" : "0x00",
                "code" : "0x6020600060006000600073b94f5374fce5edbc8e2a8697c15331677e6ebf0b6180e8f150600051600155",
                "nonce" : "0x00",
                "storage" : {
                    "0x01" : "0x01"
                }
            }
        },
        "sealEngine" : "NoProof"
    },
    "Create2OOGafterInitCodeRevert2_d0g0v0_ConstantinopleFix" : {
        "_info" : {
            "comment" : "Calls a contract that runs CREATE2 which deploy a code. then after deployment and exiting from CREATE a REVERT is called. check the REVERT data in this case equal to RETURN value of CREATE2. CREATE2 fails due to the deployment cost.",
            "filledwith" : "testeth 1.7.0-alpha.1-20+commit.782a7283",
            "lllcversion" : "Version: 0.5.0-develop.2018.11.9+commit.9709dfe0.Linux.g++",
            "source" : "src/BlockchainTestsFiller/GeneralStateTests/stCreate2/Create2OOGafterInitCodeRevert2_d0g0v0Filler.json",
            "sourceHash" : "c3a0328b0bda230509b5cc5e3f27b49b709b0d9f2cfabe50e375267aa72393e0"
        },
        "blocks" : [
            {
                "blockHeader" : {
                    "bloom" : "0x00000000000000000000000000000000000000000000000000000000000000000000000000000000000000000000000000000000000000000000000000000000000000000000000000000000000000000000000000000000000000000000000000000000000000000000000000000000000000000000000000000000000000000000000000000000000000000000000000000000000000000000000000000000000000000000000000000000000000000000000000000000000000000000000000000000000000000000000000000000000000000000000000000000000000000000000000000000000000000000000000000000000000000000000000000000",
                    "coinbase" : "0x2adc25665018aa1fe0e6bc666dac8fc2697ff9ba",
                    "difficulty" : "0x020000",
                    "extraData" : "0x",
                    "gasLimit" : "0x989680",
                    "gasUsed" : "0xe950",
                    "hash" : "0xf856fa2fcc946195a25fa1ecfc4b2b0e659762690188ea80c1186cce56c72878",
                    "mixHash" : "0x0000000000000000000000000000000000000000000000000000000000000000",
                    "nonce" : "0x0000000000000000",
                    "number" : "0x01",
                    "parentHash" : "0x63f62b336d425afe94288a9eac99affeee2cffa92b8559bca7147b68799e4d31",
                    "receiptTrie" : "0x97e0a291745986aac8d93f48554a9be7453ec98677e344d255d013922f6c997b",
                    "stateRoot" : "0x9fa9c06fe5e21f0c4e66cf706f7ace6182e5ef322cfdfed137de2568996988ac",
                    "timestamp" : "0x03e8",
                    "transactionsTrie" : "0x89ff2c528ea36a7d98b3b8689c69e5f33b60d27295c6e60e6a53e56219deba5f",
                    "uncleHash" : "0x1dcc4de8dec75d7aab85b567b6ccd41ad312451b948a7413f0a142fd40d49347"
                },
                "rlp" : "0xf9025ff901f7a063f62b336d425afe94288a9eac99affeee2cffa92b8559bca7147b68799e4d31a01dcc4de8dec75d7aab85b567b6ccd41ad312451b948a7413f0a142fd40d49347942adc25665018aa1fe0e6bc666dac8fc2697ff9baa09fa9c06fe5e21f0c4e66cf706f7ace6182e5ef322cfdfed137de2568996988aca089ff2c528ea36a7d98b3b8689c69e5f33b60d27295c6e60e6a53e56219deba5fa097e0a291745986aac8d93f48554a9be7453ec98677e344d255d013922f6c997bb901000000000000000000000000000000000000000000000000000000000000000000000000000000000000000000000000000000000000000000000000000000000000000000000000000000000000000000000000000000000000000000000000000000000000000000000000000000000000000000000000000000000000000000000000000000000000000000000000000000000000000000000000000000000000000000000000000000000000000000000000000000000000000000000000000000000000000000000000000000000000000000000000000000000000000000000000000000000000000000000000000000000000000000000000000000000083020000018398968082e9508203e880a00000000000000000000000000000000000000000000000000000000000000000880000000000000000f862f8608001830124f894c94f5374fce5edbc8e2a8697c15331677e6ebf0b80801ca0b524b286a1aaf2902aeec847abc1351ee6c3c1fa27d5405086807bdc855c85b0a0264d638cdeb8512a3cc8fc1261d3f292ebb19c727a08a6630ba6f570915dae33c0",
                "transactions" : [
                    {
                        "data" : "0x",
                        "gasLimit" : "0x0124f8",
                        "gasPrice" : "0x01",
                        "nonce" : "0x00",
                        "r" : "0xb524b286a1aaf2902aeec847abc1351ee6c3c1fa27d5405086807bdc855c85b0",
                        "s" : "0x264d638cdeb8512a3cc8fc1261d3f292ebb19c727a08a6630ba6f570915dae33",
                        "to" : "0xc94f5374fce5edbc8e2a8697c15331677e6ebf0b",
                        "v" : "0x1c",
                        "value" : "0x00"
                    }
                ],
                "uncleHeaders" : [
                ]
            }
        ],
        "genesisBlockHeader" : {
            "bloom" : "0x00000000000000000000000000000000000000000000000000000000000000000000000000000000000000000000000000000000000000000000000000000000000000000000000000000000000000000000000000000000000000000000000000000000000000000000000000000000000000000000000000000000000000000000000000000000000000000000000000000000000000000000000000000000000000000000000000000000000000000000000000000000000000000000000000000000000000000000000000000000000000000000000000000000000000000000000000000000000000000000000000000000000000000000000000000000",
            "coinbase" : "0x2adc25665018aa1fe0e6bc666dac8fc2697ff9ba",
            "difficulty" : "0x020000",
            "extraData" : "0x42",
            "gasLimit" : "0x989680",
            "gasUsed" : "0x00",
            "hash" : "0x63f62b336d425afe94288a9eac99affeee2cffa92b8559bca7147b68799e4d31",
            "mixHash" : "0x56e81f171bcc55a6ff8345e692c0f86e5b48e01b996cadc001622fb5e363b421",
            "nonce" : "0x0102030405060708",
            "number" : "0x00",
            "parentHash" : "0x0000000000000000000000000000000000000000000000000000000000000000",
            "receiptTrie" : "0x56e81f171bcc55a6ff8345e692c0f86e5b48e01b996cadc001622fb5e363b421",
            "stateRoot" : "0x1c91775af33734b5a79cdf6357d5558bb2a17331eca37e2691d79bd6a06ce140",
            "timestamp" : "0x03b6",
            "transactionsTrie" : "0x56e81f171bcc55a6ff8345e692c0f86e5b48e01b996cadc001622fb5e363b421",
            "uncleHash" : "0x1dcc4de8dec75d7aab85b567b6ccd41ad312451b948a7413f0a142fd40d49347"
        },
        "genesisRLP" : "0xf901faf901f5a00000000000000000000000000000000000000000000000000000000000000000a01dcc4de8dec75d7aab85b567b6ccd41ad312451b948a7413f0a142fd40d49347942adc25665018aa1fe0e6bc666dac8fc2697ff9baa01c91775af33734b5a79cdf6357d5558bb2a17331eca37e2691d79bd6a06ce140a056e81f171bcc55a6ff8345e692c0f86e5b48e01b996cadc001622fb5e363b421a056e81f171bcc55a6ff8345e692c0f86e5b48e01b996cadc001622fb5e363b421b9010000000000000000000000000000000000000000000000000000000000000000000000000000000000000000000000000000000000000000000000000000000000000000000000000000000000000000000000000000000000000000000000000000000000000000000000000000000000000000000000000000000000000000000000000000000000000000000000000000000000000000000000000000000000000000000000000000000000000000000000000000000000000000000000000000000000000000000000000000000000000000000000000000000000000000000000000000000000000000000000000000000000000000000000000000000000830200008083989680808203b642a056e81f171bcc55a6ff8345e692c0f86e5b48e01b996cadc001622fb5e363b421880102030405060708c0c0",
        "lastblockhash" : "0xf856fa2fcc946195a25fa1ecfc4b2b0e659762690188ea80c1186cce56c72878",
        "network" : "ConstantinopleFix",
        "postState" : {
            "0x2adc25665018aa1fe0e6bc666dac8fc2697ff9ba" : {
                "balance" : "0x1bc16d674ec8e950",
                "code" : "0x",
                "nonce" : "0x00",
                "storage" : {
                }
            },
            "0xa94f5374fce5edbc8e2a8697c15331677e6ebf0b" : {
                "balance" : "0xe8d4a426b0",
                "code" : "0x",
                "nonce" : "0x01",
                "storage" : {
                }
            },
            "0xb94f5374fce5edbc8e2a8697c15331677e6ebf0b" : {
                "balance" : "0x00",
                "code" : "0x6d6460016001556000526005601bf36000526000600e60126000f55060206000fd",
                "nonce" : "0x00",
                "storage" : {
                }
            },
            "0xc94f5374fce5edbc8e2a8697c15331677e6ebf0b" : {
                "balance" : "0x00",
                "code" : "0x6020600060006000600073b94f5374fce5edbc8e2a8697c15331677e6ebf0b6180e8f150600051600155",
                "nonce" : "0x00",
                "storage" : {
                    "0x01" : "0x6460016001556000526005601bf3"
                }
            }
        },
        "pre" : {
            "0xa94f5374fce5edbc8e2a8697c15331677e6ebf0b" : {
                "balance" : "0xe8d4a51000",
                "code" : "0x",
                "nonce" : "0x00",
                "storage" : {
                }
            },
            "0xb94f5374fce5edbc8e2a8697c15331677e6ebf0b" : {
                "balance" : "0x00",
                "code" : "0x6d6460016001556000526005601bf36000526000600e60126000f55060206000fd",
                "nonce" : "0x00",
                "storage" : {
                }
            },
            "0xc94f5374fce5edbc8e2a8697c15331677e6ebf0b" : {
                "balance" : "0x00",
                "code" : "0x6020600060006000600073b94f5374fce5edbc8e2a8697c15331677e6ebf0b6180e8f150600051600155",
                "nonce" : "0x00",
                "storage" : {
                    "0x01" : "0x01"
                }
            }
        },
        "sealEngine" : "NoProof"
    }
}