{
    "CREATE2_Suicide_d5g0v0_Constantinople" : {
        "_info" : {
            "comment" : "CREATE2 suicide with/without value, CREATE2 sucide to itself   +  this cases during init of the CREATE2",
            "filledwith" : "testeth 1.7.0-alpha.1-20+commit.782a7283",
            "lllcversion" : "Version: 0.5.0-develop.2018.11.9+commit.9709dfe0.Linux.g++",
            "source" : "src/BlockchainTestsFiller/GeneralStateTests/stCreate2/CREATE2_Suicide_d5g0v0Filler.json",
            "sourceHash" : "db449b22348393e63a4d6d3363f9e2ed5dfc0c2c0ca055e85ed709c32ed7de44"
        },
        "blocks" : [
            {
                "blockHeader" : {
                    "bloom" : "0x00000000000000000000000000000000000000000000000000000000000000000000000000000000000000000000000000000000000000000000000000000000000000000000000000000000000000000000000000000000000000000000000000000000000000000000000000000000000000000000000000000000000000000000000000000000000000000000000000000000000000000000000000000000000000000000000000000000000000000000000000000000000000000000000000000000000000000000000000000000000000000000000000000000000000000000000000000000000000000000000000000000000000000000000000000000",
                    "coinbase" : "0x2adc25665018aa1fe0e6bc666dac8fc2697ff9ba",
                    "difficulty" : "0x020000",
                    "extraData" : "0x",
                    "gasLimit" : "0x989680",
                    "gasUsed" : "0x011459",
                    "hash" : "0x446737de4783f6007d8ef34d9b12ef9e48eb20e76b0912532979392efee38fa5",
                    "mixHash" : "0x0000000000000000000000000000000000000000000000000000000000000000",
                    "nonce" : "0x0000000000000000",
                    "number" : "0x01",
                    "parentHash" : "0x997b30dda6b49dfb83a6a96c084c3dc16dfb26c87112fedc6f6782d31f2f9c7b",
                    "receiptTrie" : "0xd43406e9cd4638476131d1ec1ed9da3a6ef0aab7eef15d3b743022c7d4e8bf4f",
                    "stateRoot" : "0x3e18d91a9c47b16d60e99e93b889df7275f5efa6abb17cec9554e0c5974ef367",
                    "timestamp" : "0x03e8",
                    "transactionsTrie" : "0xf8de26309f40d9004f2727398f0c36798d571ba90ead62583a8981874423069a",
                    "uncleHash" : "0x1dcc4de8dec75d7aab85b567b6ccd41ad312451b948a7413f0a142fd40d49347"
                },
                "rlp" : "0xf9028af901f8a0997b30dda6b49dfb83a6a96c084c3dc16dfb26c87112fedc6f6782d31f2f9c7ba01dcc4de8dec75d7aab85b567b6ccd41ad312451b948a7413f0a142fd40d49347942adc25665018aa1fe0e6bc666dac8fc2697ff9baa03e18d91a9c47b16d60e99e93b889df7275f5efa6abb17cec9554e0c5974ef367a0f8de26309f40d9004f2727398f0c36798d571ba90ead62583a8981874423069aa0d43406e9cd4638476131d1ec1ed9da3a6ef0aab7eef15d3b743022c7d4e8bf4fb9010000000000000000000000000000000000000000000000000000000000000000000000000000000000000000000000000000000000000000000000000000000000000000000000000000000000000000000000000000000000000000000000000000000000000000000000000000000000000000000000000000000000000000000000000000000000000000000000000000000000000000000000000000000000000000000000000000000000000000000000000000000000000000000000000000000000000000000000000000000000000000000000000000000000000000000000000000000000000000000000000000000000000000000000000000000000830200000183989680830114598203e880a00000000000000000000000000000000000000000000000000000000000000000880000000000000000f88cf88a8001830927c0800ab83d6a6130ff6000526002601ef36000526000600b60156000f55060006000600060006000736cd0e5133771823da00d4cb545ec8cdab0e38203620249f0f11ca0b9bed22bf9796100706cd74a1be2cd6981467a833f007a533e8760fa8942caa1a04050a2b924e233d8576ac77e6d3c38b808225895fbebf9752a9a4996f0553df8c0",
                "transactions" : [
                    {
                        "data" : "0x6a6130ff6000526002601ef36000526000600b60156000f55060006000600060006000736cd0e5133771823da00d4cb545ec8cdab0e38203620249f0f1",
                        "gasLimit" : "0x0927c0",
                        "gasPrice" : "0x01",
                        "nonce" : "0x00",
                        "r" : "0xb9bed22bf9796100706cd74a1be2cd6981467a833f007a533e8760fa8942caa1",
                        "s" : "0x4050a2b924e233d8576ac77e6d3c38b808225895fbebf9752a9a4996f0553df8",
                        "to" : "",
                        "v" : "0x1c",
                        "value" : "0x0a"
                    }
                ],
                "uncleHeaders" : [
                ]
            }
        ],
        "genesisBlockHeader" : {
            "bloom" : "0x00000000000000000000000000000000000000000000000000000000000000000000000000000000000000000000000000000000000000000000000000000000000000000000000000000000000000000000000000000000000000000000000000000000000000000000000000000000000000000000000000000000000000000000000000000000000000000000000000000000000000000000000000000000000000000000000000000000000000000000000000000000000000000000000000000000000000000000000000000000000000000000000000000000000000000000000000000000000000000000000000000000000000000000000000000000",
            "coinbase" : "0x2adc25665018aa1fe0e6bc666dac8fc2697ff9ba",
            "difficulty" : "0x020000",
            "extraData" : "0x42",
            "gasLimit" : "0x989680",
            "gasUsed" : "0x00",
            "hash" : "0x997b30dda6b49dfb83a6a96c084c3dc16dfb26c87112fedc6f6782d31f2f9c7b",
            "mixHash" : "0x56e81f171bcc55a6ff8345e692c0f86e5b48e01b996cadc001622fb5e363b421",
            "nonce" : "0x0102030405060708",
            "number" : "0x00",
            "parentHash" : "0x0000000000000000000000000000000000000000000000000000000000000000",
            "receiptTrie" : "0x56e81f171bcc55a6ff8345e692c0f86e5b48e01b996cadc001622fb5e363b421",
            "stateRoot" : "0xf01530719e567a2bfd10ea8dac83b1fb1dc4017e2ec9eb4e646339708a3ca96d",
            "timestamp" : "0x03b6",
            "transactionsTrie" : "0x56e81f171bcc55a6ff8345e692c0f86e5b48e01b996cadc001622fb5e363b421",
            "uncleHash" : "0x1dcc4de8dec75d7aab85b567b6ccd41ad312451b948a7413f0a142fd40d49347"
        },
        "genesisRLP" : "0xf901faf901f5a00000000000000000000000000000000000000000000000000000000000000000a01dcc4de8dec75d7aab85b567b6ccd41ad312451b948a7413f0a142fd40d49347942adc25665018aa1fe0e6bc666dac8fc2697ff9baa0f01530719e567a2bfd10ea8dac83b1fb1dc4017e2ec9eb4e646339708a3ca96da056e81f171bcc55a6ff8345e692c0f86e5b48e01b996cadc001622fb5e363b421a056e81f171bcc55a6ff8345e692c0f86e5b48e01b996cadc001622fb5e363b421b9010000000000000000000000000000000000000000000000000000000000000000000000000000000000000000000000000000000000000000000000000000000000000000000000000000000000000000000000000000000000000000000000000000000000000000000000000000000000000000000000000000000000000000000000000000000000000000000000000000000000000000000000000000000000000000000000000000000000000000000000000000000000000000000000000000000000000000000000000000000000000000000000000000000000000000000000000000000000000000000000000000000000000000000000000000000000830200008083989680808203b642a056e81f171bcc55a6ff8345e692c0f86e5b48e01b996cadc001622fb5e363b421880102030405060708c0c0",
        "lastblockhash" : "0x446737de4783f6007d8ef34d9b12ef9e48eb20e76b0912532979392efee38fa5",
        "network" : "Constantinople",
        "postState" : {
            "0x2adc25665018aa1fe0e6bc666dac8fc2697ff9ba" : {
                "balance" : "0x1bc16d674ec91459",
                "code" : "0x",
                "nonce" : "0x00",
                "storage" : {
                }
            },
            "0x6295ee1b4f6dd65047762f924ecd367c17eabf8f" : {
                "balance" : "0x0a",
                "code" : "0x",
                "nonce" : "0x02",
                "storage" : {
                }
            },
            "0xa94f5374fce5edbc8e2a8697c15331677e6ebf0b" : {
                "balance" : "0xe8d4a3fb9d",
                "code" : "0x6130ff6000526002601ef3",
                "nonce" : "0x01",
                "storage" : {
                }
            }
        },
        "pre" : {
            "0xa94f5374fce5edbc8e2a8697c15331677e6ebf0b" : {
                "balance" : "0xe8d4a51000",
                "code" : "0x6130ff6000526002601ef3",
                "nonce" : "0x00",
                "storage" : {
                }
            }
        },
        "sealEngine" : "NoProof"
    },
    "CREATE2_Suicide_d5g0v0_ConstantinopleFix" : {
        "_info" : {
            "comment" : "CREATE2 suicide with/without value, CREATE2 sucide to itself   +  this cases during init of the CREATE2",
            "filledwith" : "testeth 1.7.0-alpha.1-20+commit.782a7283",
            "lllcversion" : "Version: 0.5.0-develop.2018.11.9+commit.9709dfe0.Linux.g++",
            "source" : "src/BlockchainTestsFiller/GeneralStateTests/stCreate2/CREATE2_Suicide_d5g0v0Filler.json",
            "sourceHash" : "db449b22348393e63a4d6d3363f9e2ed5dfc0c2c0ca055e85ed709c32ed7de44"
        },
        "blocks" : [
            {
                "blockHeader" : {
                    "bloom" : "0x00000000000000000000000000000000000000000000000000000000000000000000000000000000000000000000000000000000000000000000000000000000000000000000000000000000000000000000000000000000000000000000000000000000000000000000000000000000000000000000000000000000000000000000000000000000000000000000000000000000000000000000000000000000000000000000000000000000000000000000000000000000000000000000000000000000000000000000000000000000000000000000000000000000000000000000000000000000000000000000000000000000000000000000000000000000",
                    "coinbase" : "0x2adc25665018aa1fe0e6bc666dac8fc2697ff9ba",
                    "difficulty" : "0x020000",
                    "extraData" : "0x",
                    "gasLimit" : "0x989680",
                    "gasUsed" : "0x011459",
                    "hash" : "0x446737de4783f6007d8ef34d9b12ef9e48eb20e76b0912532979392efee38fa5",
                    "mixHash" : "0x0000000000000000000000000000000000000000000000000000000000000000",
                    "nonce" : "0x0000000000000000",
                    "number" : "0x01",
                    "parentHash" : "0x997b30dda6b49dfb83a6a96c084c3dc16dfb26c87112fedc6f6782d31f2f9c7b",
                    "receiptTrie" : "0xd43406e9cd4638476131d1ec1ed9da3a6ef0aab7eef15d3b743022c7d4e8bf4f",
                    "stateRoot" : "0x3e18d91a9c47b16d60e99e93b889df7275f5efa6abb17cec9554e0c5974ef367",
                    "timestamp" : "0x03e8",
                    "transactionsTrie" : "0xf8de26309f40d9004f2727398f0c36798d571ba90ead62583a8981874423069a",
                    "uncleHash" : "0x1dcc4de8dec75d7aab85b567b6ccd41ad312451b948a7413f0a142fd40d49347"
                },
                "rlp" : "0xf9028af901f8a0997b30dda6b49dfb83a6a96c084c3dc16dfb26c87112fedc6f6782d31f2f9c7ba01dcc4de8dec75d7aab85b567b6ccd41ad312451b948a7413f0a142fd40d49347942adc25665018aa1fe0e6bc666dac8fc2697ff9baa03e18d91a9c47b16d60e99e93b889df7275f5efa6abb17cec9554e0c5974ef367a0f8de26309f40d9004f2727398f0c36798d571ba90ead62583a8981874423069aa0d43406e9cd4638476131d1ec1ed9da3a6ef0aab7eef15d3b743022c7d4e8bf4fb9010000000000000000000000000000000000000000000000000000000000000000000000000000000000000000000000000000000000000000000000000000000000000000000000000000000000000000000000000000000000000000000000000000000000000000000000000000000000000000000000000000000000000000000000000000000000000000000000000000000000000000000000000000000000000000000000000000000000000000000000000000000000000000000000000000000000000000000000000000000000000000000000000000000000000000000000000000000000000000000000000000000000000000000000000000000000830200000183989680830114598203e880a00000000000000000000000000000000000000000000000000000000000000000880000000000000000f88cf88a8001830927c0800ab83d6a6130ff6000526002601ef36000526000600b60156000f55060006000600060006000736cd0e5133771823da00d4cb545ec8cdab0e38203620249f0f11ca0b9bed22bf9796100706cd74a1be2cd6981467a833f007a533e8760fa8942caa1a04050a2b924e233d8576ac77e6d3c38b808225895fbebf9752a9a4996f0553df8c0",
                "transactions" : [
                    {
                        "data" : "0x6a6130ff6000526002601ef36000526000600b60156000f55060006000600060006000736cd0e5133771823da00d4cb545ec8cdab0e38203620249f0f1",
                        "gasLimit" : "0x0927c0",
                        "gasPrice" : "0x01",
                        "nonce" : "0x00",
                        "r" : "0xb9bed22bf9796100706cd74a1be2cd6981467a833f007a533e8760fa8942caa1",
                        "s" : "0x4050a2b924e233d8576ac77e6d3c38b808225895fbebf9752a9a4996f0553df8",
                        "to" : "",
                        "v" : "0x1c",
                        "value" : "0x0a"
                    }
                ],
                "uncleHeaders" : [
                ]
            }
        ],
        "genesisBlockHeader" : {
            "bloom" : "0x00000000000000000000000000000000000000000000000000000000000000000000000000000000000000000000000000000000000000000000000000000000000000000000000000000000000000000000000000000000000000000000000000000000000000000000000000000000000000000000000000000000000000000000000000000000000000000000000000000000000000000000000000000000000000000000000000000000000000000000000000000000000000000000000000000000000000000000000000000000000000000000000000000000000000000000000000000000000000000000000000000000000000000000000000000000",
            "coinbase" : "0x2adc25665018aa1fe0e6bc666dac8fc2697ff9ba",
            "difficulty" : "0x020000",
            "extraData" : "0x42",
            "gasLimit" : "0x989680",
            "gasUsed" : "0x00",
            "hash" : "0x997b30dda6b49dfb83a6a96c084c3dc16dfb26c87112fedc6f6782d31f2f9c7b",
            "mixHash" : "0x56e81f171bcc55a6ff8345e692c0f86e5b48e01b996cadc001622fb5e363b421",
            "nonce" : "0x0102030405060708",
            "number" : "0x00",
            "parentHash" : "0x0000000000000000000000000000000000000000000000000000000000000000",
            "receiptTrie" : "0x56e81f171bcc55a6ff8345e692c0f86e5b48e01b996cadc001622fb5e363b421",
            "stateRoot" : "0xf01530719e567a2bfd10ea8dac83b1fb1dc4017e2ec9eb4e646339708a3ca96d",
            "timestamp" : "0x03b6",
            "transactionsTrie" : "0x56e81f171bcc55a6ff8345e692c0f86e5b48e01b996cadc001622fb5e363b421",
            "uncleHash" : "0x1dcc4de8dec75d7aab85b567b6ccd41ad312451b948a7413f0a142fd40d49347"
        },
        "genesisRLP" : "0xf901faf901f5a00000000000000000000000000000000000000000000000000000000000000000a01dcc4de8dec75d7aab85b567b6ccd41ad312451b948a7413f0a142fd40d49347942adc25665018aa1fe0e6bc666dac8fc2697ff9baa0f01530719e567a2bfd10ea8dac83b1fb1dc4017e2ec9eb4e646339708a3ca96da056e81f171bcc55a6ff8345e692c0f86e5b48e01b996cadc001622fb5e363b421a056e81f171bcc55a6ff8345e692c0f86e5b48e01b996cadc001622fb5e363b421b9010000000000000000000000000000000000000000000000000000000000000000000000000000000000000000000000000000000000000000000000000000000000000000000000000000000000000000000000000000000000000000000000000000000000000000000000000000000000000000000000000000000000000000000000000000000000000000000000000000000000000000000000000000000000000000000000000000000000000000000000000000000000000000000000000000000000000000000000000000000000000000000000000000000000000000000000000000000000000000000000000000000000000000000000000000000000830200008083989680808203b642a056e81f171bcc55a6ff8345e692c0f86e5b48e01b996cadc001622fb5e363b421880102030405060708c0c0",
        "lastblockhash" : "0x446737de4783f6007d8ef34d9b12ef9e48eb20e76b0912532979392efee38fa5",
        "network" : "ConstantinopleFix",
        "postState" : {
            "0x2adc25665018aa1fe0e6bc666dac8fc2697ff9ba" : {
                "balance" : "0x1bc16d674ec91459",
                "code" : "0x",
                "nonce" : "0x00",
                "storage" : {
                }
            },
            "0x6295ee1b4f6dd65047762f924ecd367c17eabf8f" : {
                "balance" : "0x0a",
                "code" : "0x",
                "nonce" : "0x02",
                "storage" : {
                }
            },
            "0xa94f5374fce5edbc8e2a8697c15331677e6ebf0b" : {
                "balance" : "0xe8d4a3fb9d",
                "code" : "0x6130ff6000526002601ef3",
                "nonce" : "0x01",
                "storage" : {
                }
            }
        },
        "pre" : {
            "0xa94f5374fce5edbc8e2a8697c15331677e6ebf0b" : {
                "balance" : "0xe8d4a51000",
                "code" : "0x6130ff6000526002601ef3",
                "nonce" : "0x00",
                "storage" : {
                }
            }
        },
        "sealEngine" : "NoProof"
    }
}