{
    "Create2OOGafterInitCodeReturndata3_d0g0v0_Constantinople" : {
        "_info" : {
            "comment" : "Calls a contract that runs CREATE2 which deploy a code. then OOG happens upon deployment of the actual code. check the RETURN data buffer in initial contract",
            "filledwith" : "testeth 1.7.0-alpha.1-20+commit.782a7283",
            "lllcversion" : "Version: 0.5.0-develop.2018.11.9+commit.9709dfe0.Linux.g++",
            "source" : "src/BlockchainTestsFiller/GeneralStateTests/stCreate2/Create2OOGafterInitCodeReturndata3_d0g0v0Filler.json",
            "sourceHash" : "ec82e5e3ecac6b4c8a3f5a55ebdd8b03d1df123e0111e0fe5db1a426be696fa8"
        },
        "blocks" : [
            {
                "blockHeader" : {
                    "bloom" : "0x00000000000000000000000000000000000000000000000000000000000000000000000000000000000000000000000000000000000000000000000000000000000000000000000000000000000000000000000000000000000000000000000000000000000000000000000000000000000000000000000000000000000000000000000000000000000000000000000000000000000000000000000000000000000000000000000000000000000000000000000000000000000000000000000000000000000000000000000000000000000000000000000000000000000000000000000000000000000000000000000000000000000000000000000000000000",
                    "coinbase" : "0x2adc25665018aa1fe0e6bc666dac8fc2697ff9ba",
                    "difficulty" : "0x020000",
                    "extraData" : "0x",
                    "gasLimit" : "0x989680",
                    "gasUsed" : "0xd6d8",
                    "hash" : "0xdd85dc4665a84068f71ccc92b7dba5887f1e9dc21a962311713aec53e268008d",
                    "mixHash" : "0x0000000000000000000000000000000000000000000000000000000000000000",
                    "nonce" : "0x0000000000000000",
                    "number" : "0x01",
                    "parentHash" : "0x7e7918478e8430657b4cd3a63176ba816b1f0ac2637b07929e9372b383c37340",
                    "receiptTrie" : "0xb243137394e58a80308b9d4a47f7c6186dc2bb5619f108404e51a55f6e15cfd3",
                    "stateRoot" : "0x642b5751e25243ee0f40bac95de09d202df763fa429bb47992a59606d81ba51b",
                    "timestamp" : "0x03e8",
                    "transactionsTrie" : "0x14d1cdc2285a6a3617bb02e1925a02cd387fca88aba3bde3fce0be7b5f9f7a9a",
                    "uncleHash" : "0x1dcc4de8dec75d7aab85b567b6ccd41ad312451b948a7413f0a142fd40d49347"
                },
                "rlp" : "0xf9025ef901f7a07e7918478e8430657b4cd3a63176ba816b1f0ac2637b07929e9372b383c37340a01dcc4de8dec75d7aab85b567b6ccd41ad312451b948a7413f0a142fd40d49347942adc25665018aa1fe0e6bc666dac8fc2697ff9baa0642b5751e25243ee0f40bac95de09d202df763fa429bb47992a59606d81ba51ba014d1cdc2285a6a3617bb02e1925a02cd387fca88aba3bde3fce0be7b5f9f7a9aa0b243137394e58a80308b9d4a47f7c6186dc2bb5619f108404e51a55f6e15cfd3b901000000000000000000000000000000000000000000000000000000000000000000000000000000000000000000000000000000000000000000000000000000000000000000000000000000000000000000000000000000000000000000000000000000000000000000000000000000000000000000000000000000000000000000000000000000000000000000000000000000000000000000000000000000000000000000000000000000000000000000000000000000000000000000000000000000000000000000000000000000000000000000000000000000000000000000000000000000000000000000000000000000000000000000000000000000000083020000018398968082d6d88203e880a00000000000000000000000000000000000000000000000000000000000000000880000000000000000f861f85f800182d6d894c94f5374fce5edbc8e2a8697c15331677e6ebf0b80801ca01d6efce2f712996f1a4ebb5315dbb02a98ccecf4b0110d1dab7e12f5b44dc1c1a06b42d9ac73e294a17d3d3b7189bbac673674c1bb27c934f4d8fff368eb8dfc39c0",
                "transactions" : [
                    {
                        "data" : "0x",
                        "gasLimit" : "0xd6d8",
                        "gasPrice" : "0x01",
                        "nonce" : "0x00",
                        "r" : "0x1d6efce2f712996f1a4ebb5315dbb02a98ccecf4b0110d1dab7e12f5b44dc1c1",
                        "s" : "0x6b42d9ac73e294a17d3d3b7189bbac673674c1bb27c934f4d8fff368eb8dfc39",
                        "to" : "0xc94f5374fce5edbc8e2a8697c15331677e6ebf0b",
                        "v" : "0x1c",
                        "value" : "0x00"
                    }
                ],
                "uncleHeaders" : [
                ]
            }
        ],
        "genesisBlockHeader" : {
            "bloom" : "0x00000000000000000000000000000000000000000000000000000000000000000000000000000000000000000000000000000000000000000000000000000000000000000000000000000000000000000000000000000000000000000000000000000000000000000000000000000000000000000000000000000000000000000000000000000000000000000000000000000000000000000000000000000000000000000000000000000000000000000000000000000000000000000000000000000000000000000000000000000000000000000000000000000000000000000000000000000000000000000000000000000000000000000000000000000000",
            "coinbase" : "0x2adc25665018aa1fe0e6bc666dac8fc2697ff9ba",
            "difficulty" : "0x020000",
            "extraData" : "0x42",
            "gasLimit" : "0x989680",
            "gasUsed" : "0x00",
            "hash" : "0x7e7918478e8430657b4cd3a63176ba816b1f0ac2637b07929e9372b383c37340",
            "mixHash" : "0x56e81f171bcc55a6ff8345e692c0f86e5b48e01b996cadc001622fb5e363b421",
            "nonce" : "0x0102030405060708",
            "number" : "0x00",
            "parentHash" : "0x0000000000000000000000000000000000000000000000000000000000000000",
            "receiptTrie" : "0x56e81f171bcc55a6ff8345e692c0f86e5b48e01b996cadc001622fb5e363b421",
            "stateRoot" : "0x7d15c55a27ca505b6bc837b35925aa54785e41f2959519c116f79e9070931577",
            "timestamp" : "0x03b6",
            "transactionsTrie" : "0x56e81f171bcc55a6ff8345e692c0f86e5b48e01b996cadc001622fb5e363b421",
            "uncleHash" : "0x1dcc4de8dec75d7aab85b567b6ccd41ad312451b948a7413f0a142fd40d49347"
        },
        "genesisRLP" : "0xf901faf901f5a00000000000000000000000000000000000000000000000000000000000000000a01dcc4de8dec75d7aab85b567b6ccd41ad312451b948a7413f0a142fd40d49347942adc25665018aa1fe0e6bc666dac8fc2697ff9baa07d15c55a27ca505b6bc837b35925aa54785e41f2959519c116f79e9070931577a056e81f171bcc55a6ff8345e692c0f86e5b48e01b996cadc001622fb5e363b421a056e81f171bcc55a6ff8345e692c0f86e5b48e01b996cadc001622fb5e363b421b9010000000000000000000000000000000000000000000000000000000000000000000000000000000000000000000000000000000000000000000000000000000000000000000000000000000000000000000000000000000000000000000000000000000000000000000000000000000000000000000000000000000000000000000000000000000000000000000000000000000000000000000000000000000000000000000000000000000000000000000000000000000000000000000000000000000000000000000000000000000000000000000000000000000000000000000000000000000000000000000000000000000000000000000000000000000000830200008083989680808203b642a056e81f171bcc55a6ff8345e692c0f86e5b48e01b996cadc001622fb5e363b421880102030405060708c0c0",
        "lastblockhash" : "0xdd85dc4665a84068f71ccc92b7dba5887f1e9dc21a962311713aec53e268008d",
        "network" : "Constantinople",
        "postState" : {
            "0x2adc25665018aa1fe0e6bc666dac8fc2697ff9ba" : {
                "balance" : "0x1bc16d674ec8d6d8",
                "code" : "0x",
                "nonce" : "0x00",
                "storage" : {
                }
            },
            "0xa94f5374fce5edbc8e2a8697c15331677e6ebf0b" : {
                "balance" : "0xe8d4a43928",
                "code" : "0x",
                "nonce" : "0x01",
                "storage" : {
                }
            },
            "0xb94f5374fce5edbc8e2a8697c15331677e6ebf0b" : {
                "balance" : "0x00",
                "code" : "0x6d6460016001556000526005601bf36000526000600e60126000f5",
                "nonce" : "0x00",
                "storage" : {
                }
            },
            "0xc94f5374fce5edbc8e2a8697c15331677e6ebf0b" : {
                "balance" : "0x00",
                "code" : "0x6020600060006000600073b94f5374fce5edbc8e2a8697c15331677e6ebf0b5af2506020600060003e600051600155",
                "nonce" : "0x00",
                "storage" : {
                    "0x01" : "0x01"
                }
            }
        },
        "pre" : {
            "0xa94f5374fce5edbc8e2a8697c15331677e6ebf0b" : {
                "balance" : "0xe8d4a51000",
                "code" : "0x",
                "nonce" : "0x00",
                "storage" : {
                }
            },
            "0xb94f5374fce5edbc8e2a8697c15331677e6ebf0b" : {
                "balance" : "0x00",
                "code" : "0x6d6460016001556000526005601bf36000526000600e60126000f5",
                "nonce" : "0x00",
                "storage" : {
                }
            },
            "0xc94f5374fce5edbc8e2a8697c15331677e6ebf0b" : {
                "balance" : "0x00",
                "code" : "0x6020600060006000600073b94f5374fce5edbc8e2a8697c15331677e6ebf0b5af2506020600060003e600051600155",
                "nonce" : "0x00",
                "storage" : {
                    "0x01" : "0x01"
                }
            }
        },
        "sealEngine" : "NoProof"
    },
    "Create2OOGafterInitCodeReturndata3_d0g0v0_ConstantinopleFix" : {
        "_info" : {
            "comment" : "Calls a contract that runs CREATE2 which deploy a code. then OOG happens upon deployment of the actual code. check the RETURN data buffer in initial contract",
            "filledwith" : "testeth 1.7.0-alpha.1-20+commit.782a7283",
            "lllcversion" : "Version: 0.5.0-develop.2018.11.9+commit.9709dfe0.Linux.g++",
            "source" : "src/BlockchainTestsFiller/GeneralStateTests/stCreate2/Create2OOGafterInitCodeReturndata3_d0g0v0Filler.json",
            "sourceHash" : "ec82e5e3ecac6b4c8a3f5a55ebdd8b03d1df123e0111e0fe5db1a426be696fa8"
        },
        "blocks" : [
            {
                "blockHeader" : {
                    "bloom" : "0x00000000000000000000000000000000000000000000000000000000000000000000000000000000000000000000000000000000000000000000000000000000000000000000000000000000000000000000000000000000000000000000000000000000000000000000000000000000000000000000000000000000000000000000000000000000000000000000000000000000000000000000000000000000000000000000000000000000000000000000000000000000000000000000000000000000000000000000000000000000000000000000000000000000000000000000000000000000000000000000000000000000000000000000000000000000",
                    "coinbase" : "0x2adc25665018aa1fe0e6bc666dac8fc2697ff9ba",
                    "difficulty" : "0x020000",
                    "extraData" : "0x",
                    "gasLimit" : "0x989680",
                    "gasUsed" : "0xd6d8",
                    "hash" : "0xdd85dc4665a84068f71ccc92b7dba5887f1e9dc21a962311713aec53e268008d",
                    "mixHash" : "0x0000000000000000000000000000000000000000000000000000000000000000",
                    "nonce" : "0x0000000000000000",
                    "number" : "0x01",
                    "parentHash" : "0x7e7918478e8430657b4cd3a63176ba816b1f0ac2637b07929e9372b383c37340",
                    "receiptTrie" : "0xb243137394e58a80308b9d4a47f7c6186dc2bb5619f108404e51a55f6e15cfd3",
                    "stateRoot" : "0x642b5751e25243ee0f40bac95de09d202df763fa429bb47992a59606d81ba51b",
                    "timestamp" : "0x03e8",
                    "transactionsTrie" : "0x14d1cdc2285a6a3617bb02e1925a02cd387fca88aba3bde3fce0be7b5f9f7a9a",
                    "uncleHash" : "0x1dcc4de8dec75d7aab85b567b6ccd41ad312451b948a7413f0a142fd40d49347"
                },
                "rlp" : "0xf9025ef901f7a07e7918478e8430657b4cd3a63176ba816b1f0ac2637b07929e9372b383c37340a01dcc4de8dec75d7aab85b567b6ccd41ad312451b948a7413f0a142fd40d49347942adc25665018aa1fe0e6bc666dac8fc2697ff9baa0642b5751e25243ee0f40bac95de09d202df763fa429bb47992a59606d81ba51ba014d1cdc2285a6a3617bb02e1925a02cd387fca88aba3bde3fce0be7b5f9f7a9aa0b243137394e58a80308b9d4a47f7c6186dc2bb5619f108404e51a55f6e15cfd3b901000000000000000000000000000000000000000000000000000000000000000000000000000000000000000000000000000000000000000000000000000000000000000000000000000000000000000000000000000000000000000000000000000000000000000000000000000000000000000000000000000000000000000000000000000000000000000000000000000000000000000000000000000000000000000000000000000000000000000000000000000000000000000000000000000000000000000000000000000000000000000000000000000000000000000000000000000000000000000000000000000000000000000000000000000000000083020000018398968082d6d88203e880a00000000000000000000000000000000000000000000000000000000000000000880000000000000000f861f85f800182d6d894c94f5374fce5edbc8e2a8697c15331677e6ebf0b80801ca01d6efce2f712996f1a4ebb5315dbb02a98ccecf4b0110d1dab7e12f5b44dc1c1a06b42d9ac73e294a17d3d3b7189bbac673674c1bb27c934f4d8fff368eb8dfc39c0",
                "transactions" : [
                    {
                        "data" : "0x",
                        "gasLimit" : "0xd6d8",
                        "gasPrice" : "0x01",
                        "nonce" : "0x00",
                        "r" : "0x1d6efce2f712996f1a4ebb5315dbb02a98ccecf4b0110d1dab7e12f5b44dc1c1",
                        "s" : "0x6b42d9ac73e294a17d3d3b7189bbac673674c1bb27c934f4d8fff368eb8dfc39",
                        "to" : "0xc94f5374fce5edbc8e2a8697c15331677e6ebf0b",
                        "v" : "0x1c",
                        "value" : "0x00"
                    }
                ],
                "uncleHeaders" : [
                ]
            }
        ],
        "genesisBlockHeader" : {
            "bloom" : "0x00000000000000000000000000000000000000000000000000000000000000000000000000000000000000000000000000000000000000000000000000000000000000000000000000000000000000000000000000000000000000000000000000000000000000000000000000000000000000000000000000000000000000000000000000000000000000000000000000000000000000000000000000000000000000000000000000000000000000000000000000000000000000000000000000000000000000000000000000000000000000000000000000000000000000000000000000000000000000000000000000000000000000000000000000000000",
            "coinbase" : "0x2adc25665018aa1fe0e6bc666dac8fc2697ff9ba",
            "difficulty" : "0x020000",
            "extraData" : "0x42",
            "gasLimit" : "0x989680",
            "gasUsed" : "0x00",
            "hash" : "0x7e7918478e8430657b4cd3a63176ba816b1f0ac2637b07929e9372b383c37340",
            "mixHash" : "0x56e81f171bcc55a6ff8345e692c0f86e5b48e01b996cadc001622fb5e363b421",
            "nonce" : "0x0102030405060708",
            "number" : "0x00",
            "parentHash" : "0x0000000000000000000000000000000000000000000000000000000000000000",
            "receiptTrie" : "0x56e81f171bcc55a6ff8345e692c0f86e5b48e01b996cadc001622fb5e363b421",
            "stateRoot" : "0x7d15c55a27ca505b6bc837b35925aa54785e41f2959519c116f79e9070931577",
            "timestamp" : "0x03b6",
            "transactionsTrie" : "0x56e81f171bcc55a6ff8345e692c0f86e5b48e01b996cadc001622fb5e363b421",
            "uncleHash" : "0x1dcc4de8dec75d7aab85b567b6ccd41ad312451b948a7413f0a142fd40d49347"
        },
        "genesisRLP" : "0xf901faf901f5a00000000000000000000000000000000000000000000000000000000000000000a01dcc4de8dec75d7aab85b567b6ccd41ad312451b948a7413f0a142fd40d49347942adc25665018aa1fe0e6bc666dac8fc2697ff9baa07d15c55a27ca505b6bc837b35925aa54785e41f2959519c116f79e9070931577a056e81f171bcc55a6ff8345e692c0f86e5b48e01b996cadc001622fb5e363b421a056e81f171bcc55a6ff8345e692c0f86e5b48e01b996cadc001622fb5e363b421b9010000000000000000000000000000000000000000000000000000000000000000000000000000000000000000000000000000000000000000000000000000000000000000000000000000000000000000000000000000000000000000000000000000000000000000000000000000000000000000000000000000000000000000000000000000000000000000000000000000000000000000000000000000000000000000000000000000000000000000000000000000000000000000000000000000000000000000000000000000000000000000000000000000000000000000000000000000000000000000000000000000000000000000000000000000000000830200008083989680808203b642a056e81f171bcc55a6ff8345e692c0f86e5b48e01b996cadc001622fb5e363b421880102030405060708c0c0",
        "lastblockhash" : "0xdd85dc4665a84068f71ccc92b7dba5887f1e9dc21a962311713aec53e268008d",
        "network" : "ConstantinopleFix",
        "postState" : {
            "0x2adc25665018aa1fe0e6bc666dac8fc2697ff9ba" : {
                "balance" : "0x1bc16d674ec8d6d8",
                "code" : "0x",
                "nonce" : "0x00",
                "storage" : {
                }
            },
            "0xa94f5374fce5edbc8e2a8697c15331677e6ebf0b" : {
                "balance" : "0xe8d4a43928",
                "code" : "0x",
                "nonce" : "0x01",
                "storage" : {
                }
            },
            "0xb94f5374fce5edbc8e2a8697c15331677e6ebf0b" : {
                "balance" : "0x00",
                "code" : "0x6d6460016001556000526005601bf36000526000600e60126000f5",
                "nonce" : "0x00",
                "storage" : {
                }
            },
            "0xc94f5374fce5edbc8e2a8697c15331677e6ebf0b" : {
                "balance" : "0x00",
                "code" : "0x6020600060006000600073b94f5374fce5edbc8e2a8697c15331677e6ebf0b5af2506020600060003e600051600155",
                "nonce" : "0x00",
                "storage" : {
                    "0x01" : "0x01"
                }
            }
        },
        "pre" : {
            "0xa94f5374fce5edbc8e2a8697c15331677e6ebf0b" : {
                "balance" : "0xe8d4a51000",
                "code" : "0x",
                "nonce" : "0x00",
                "storage" : {
                }
            },
            "0xb94f5374fce5edbc8e2a8697c15331677e6ebf0b" : {
                "balance" : "0x00",
                "code" : "0x6d6460016001556000526005601bf36000526000600e60126000f5",
                "nonce" : "0x00",
                "storage" : {
                }
            },
            "0xc94f5374fce5edbc8e2a8697c15331677e6ebf0b" : {
                "balance" : "0x00",
                "code" : "0x6020600060006000600073b94f5374fce5edbc8e2a8697c15331677e6ebf0b5af2506020600060003e600051600155",
                "nonce" : "0x00",
                "storage" : {
                    "0x01" : "0x01"
                }
            }
        },
        "sealEngine" : "NoProof"
    }
}