{
    "create2collisionSelfdestructed2_d1g0v0_Constantinople" : {
        "_info" : {
            "comment" : "A contract which performs SUICIDE, and is then attempted to be recreated (different code, same init-code) during the same transaction. This ought to fail, since the code is not cleaned out until after the transaction is ended.",
            "filledwith" : "testeth 1.7.0-alpha.1-20+commit.782a7283",
            "lllcversion" : "Version: 0.5.0-develop.2018.11.9+commit.9709dfe0.Linux.g++",
            "source" : "src/BlockchainTestsFiller/GeneralStateTests/stCreate2/create2collisionSelfdestructed2_d1g0v0Filler.json",
            "sourceHash" : "127236a8aba23fe7d209771e071cf5f20fad6079a2587f87d639f93eae13f709"
        },
        "blocks" : [
            {
                "blockHeader" : {
                    "bloom" : "0x00000000000000000000000000000000000000000000000000000000000000000000000000000000000000000000000000000000000000000000000000000000000000000000000000000000000000000000000000000000000000000000000000000000000000000000000000000000000000000000000000000000000000000000000000000000000000000000000000000000000000000000000000000000000000000000000000000000000000000000000000000000000000000000000000000000000000000000000000000000000000000000000000000000000000000000000000000000000000000000000000000000000000000000000000000000",
                    "coinbase" : "0x2adc25665018aa1fe0e6bc666dac8fc2697ff9ba",
                    "difficulty" : "0x020000",
                    "extraData" : "0x",
                    "gasLimit" : "0x0f4240",
                    "gasUsed" : "0x05ab9f",
                    "hash" : "0x167f748bd0f7465d9d1f7225074e07fae4847add03650956089d64877afc3133",
                    "mixHash" : "0x0000000000000000000000000000000000000000000000000000000000000000",
                    "nonce" : "0x0000000000000000",
                    "number" : "0x01",
                    "parentHash" : "0xd3e83488ac557d22fd39e9fbd61b0727ed72297823875e5127a6864c57268376",
                    "receiptTrie" : "0xdecb79f43c466db7e890c6fdc33f0839c579d9cb1cf216d9c32fb75b57156a92",
                    "stateRoot" : "0x6dfec006956e426b028dce2d996c2bb683427c04f2907c1e6438b2312890cfc0",
                    "timestamp" : "0x03e8",
                    "transactionsTrie" : "0x2e0dbd769d03994dee583c601ce0ca0274ea34200724bf89a8970fa0caacf81e",
                    "uncleHash" : "0x1dcc4de8dec75d7aab85b567b6ccd41ad312451b948a7413f0a142fd40d49347"
                },
                "rlp" : "0xf9028af901f8a0d3e83488ac557d22fd39e9fbd61b0727ed72297823875e5127a6864c57268376a01dcc4de8dec75d7aab85b567b6ccd41ad312451b948a7413f0a142fd40d49347942adc25665018aa1fe0e6bc666dac8fc2697ff9baa06dfec006956e426b028dce2d996c2bb683427c04f2907c1e6438b2312890cfc0a02e0dbd769d03994dee583c601ce0ca0274ea34200724bf89a8970fa0caacf81ea0decb79f43c466db7e890c6fdc33f0839c579d9cb1cf216d9c32fb75b57156a92b90100000000000000000000000000000000000000000000000000000000000000000000000000000000000000000000000000000000000000000000000000000000000000000000000000000000000000000000000000000000000000000000000000000000000000000000000000000000000000000000000000000000000000000000000000000000000000000000000000000000000000000000000000000000000000000000000000000000000000000000000000000000000000000000000000000000000000000000000000000000000000000000000000000000000000000000000000000000000000000000000000000000000000000000000000000000008302000001830f42408305ab9f8203e880a00000000000000000000000000000000000000000000000000000000000000000880000000000000000f88cf88a800183061a808080b83d6000600060006000600073cff64f4c5df8f436c4f2c1af4b2e3f9e3004c77961c350f1506b626010ff6000526003601df36000526000600c60146000f51ba02f5cc10fe04d67301b8f039cdebb279b51578ce54c711c0eb7170852f4893d9ea00b5dcf40e42ea7afb5ac8282eef23eead4eb197e939169786b2ede913d3476bdc0",
                "transactions" : [
                    {
                        "data" : "0x6000600060006000600073cff64f4c5df8f436c4f2c1af4b2e3f9e3004c77961c350f1506b626010ff6000526003601df36000526000600c60146000f5",
                        "gasLimit" : "0x061a80",
                        "gasPrice" : "0x01",
                        "nonce" : "0x00",
                        "r" : "0x2f5cc10fe04d67301b8f039cdebb279b51578ce54c711c0eb7170852f4893d9e",
                        "s" : "0x0b5dcf40e42ea7afb5ac8282eef23eead4eb197e939169786b2ede913d3476bd",
                        "to" : "",
                        "v" : "0x1b",
                        "value" : "0x00"
                    }
                ],
                "uncleHeaders" : [
                ]
            }
        ],
        "genesisBlockHeader" : {
            "bloom" : "0x00000000000000000000000000000000000000000000000000000000000000000000000000000000000000000000000000000000000000000000000000000000000000000000000000000000000000000000000000000000000000000000000000000000000000000000000000000000000000000000000000000000000000000000000000000000000000000000000000000000000000000000000000000000000000000000000000000000000000000000000000000000000000000000000000000000000000000000000000000000000000000000000000000000000000000000000000000000000000000000000000000000000000000000000000000000",
            "coinbase" : "0x2adc25665018aa1fe0e6bc666dac8fc2697ff9ba",
            "difficulty" : "0x020000",
            "extraData" : "0x42",
            "gasLimit" : "0x0f4240",
            "gasUsed" : "0x00",
            "hash" : "0xd3e83488ac557d22fd39e9fbd61b0727ed72297823875e5127a6864c57268376",
            "mixHash" : "0x56e81f171bcc55a6ff8345e692c0f86e5b48e01b996cadc001622fb5e363b421",
            "nonce" : "0x0102030405060708",
            "number" : "0x00",
            "parentHash" : "0x0000000000000000000000000000000000000000000000000000000000000000",
            "receiptTrie" : "0x56e81f171bcc55a6ff8345e692c0f86e5b48e01b996cadc001622fb5e363b421",
            "stateRoot" : "0xaef3dcca3f19ab2104a76ab47d8fa62691ce35e3934e5598ed6f2315adcd66d5",
            "timestamp" : "0x03b6",
            "transactionsTrie" : "0x56e81f171bcc55a6ff8345e692c0f86e5b48e01b996cadc001622fb5e363b421",
            "uncleHash" : "0x1dcc4de8dec75d7aab85b567b6ccd41ad312451b948a7413f0a142fd40d49347"
        },
        "genesisRLP" : "0xf901faf901f5a00000000000000000000000000000000000000000000000000000000000000000a01dcc4de8dec75d7aab85b567b6ccd41ad312451b948a7413f0a142fd40d49347942adc25665018aa1fe0e6bc666dac8fc2697ff9baa0aef3dcca3f19ab2104a76ab47d8fa62691ce35e3934e5598ed6f2315adcd66d5a056e81f171bcc55a6ff8345e692c0f86e5b48e01b996cadc001622fb5e363b421a056e81f171bcc55a6ff8345e692c0f86e5b48e01b996cadc001622fb5e363b421b90100000000000000000000000000000000000000000000000000000000000000000000000000000000000000000000000000000000000000000000000000000000000000000000000000000000000000000000000000000000000000000000000000000000000000000000000000000000000000000000000000000000000000000000000000000000000000000000000000000000000000000000000000000000000000000000000000000000000000000000000000000000000000000000000000000000000000000000000000000000000000000000000000000000000000000000000000000000000000000000000000000000000000000000000000000000008302000080830f4240808203b642a056e81f171bcc55a6ff8345e692c0f86e5b48e01b996cadc001622fb5e363b421880102030405060708c0c0",
        "lastblockhash" : "0x167f748bd0f7465d9d1f7225074e07fae4847add03650956089d64877afc3133",
        "network" : "Constantinople",
        "postState" : {
            "0x0000000000000000000000000000000000000010" : {
                "balance" : "0x01",
                "code" : "0x",
                "nonce" : "0x00",
                "storage" : {
                }
            },
            "0x2adc25665018aa1fe0e6bc666dac8fc2697ff9ba" : {
                "balance" : "0x1bc16d674ecdab9f",
                "code" : "0x",
                "nonce" : "0x00",
                "storage" : {
                }
            },
            "0x6295ee1b4f6dd65047762f924ecd367c17eabf8f" : {
                "balance" : "0x00",
                "code" : "0x",
                "nonce" : "0x02",
                "storage" : {
                }
            },
            "0xa94f5374fce5edbc8e2a8697c15331677e6ebf0b" : {
                "balance" : "0x0de0b6b3a75e5461",
                "code" : "0x626010ff6000526003601df3",
                "nonce" : "0x01",
                "storage" : {
                }
            },
            "0xfce41d047b4a1d4450382dcc29ec7e5fedc5f9a3" : {
                "balance" : "0x01",
                "code" : "0x6010ff",
                "nonce" : "0x00",
                "storage" : {
                }
            }
        },
        "pre" : {
            "0xa94f5374fce5edbc8e2a8697c15331677e6ebf0b" : {
                "balance" : "0x0de0b6b3a7640000",
                "code" : "0x626010ff6000526003601df3",
                "nonce" : "0x00",
                "storage" : {
                }
            },
            "0xcff64f4c5df8f436c4f2c1af4b2e3f9e3004c779" : {
                "balance" : "0x01",
                "code" : "0x6010ff",
                "nonce" : "0x01",
                "storage" : {
                }
            },
            "0xfce41d047b4a1d4450382dcc29ec7e5fedc5f9a3" : {
                "balance" : "0x01",
                "code" : "0x6010ff",
                "nonce" : "0x00",
                "storage" : {
                }
            }
        },
        "sealEngine" : "NoProof"
    },
    "create2collisionSelfdestructed2_d1g0v0_ConstantinopleFix" : {
        "_info" : {
            "comment" : "A contract which performs SUICIDE, and is then attempted to be recreated (different code, same init-code) during the same transaction. This ought to fail, since the code is not cleaned out until after the transaction is ended.",
            "filledwith" : "testeth 1.7.0-alpha.1-20+commit.782a7283",
            "lllcversion" : "Version: 0.5.0-develop.2018.11.9+commit.9709dfe0.Linux.g++",
            "source" : "src/BlockchainTestsFiller/GeneralStateTests/stCreate2/create2collisionSelfdestructed2_d1g0v0Filler.json",
            "sourceHash" : "127236a8aba23fe7d209771e071cf5f20fad6079a2587f87d639f93eae13f709"
        },
        "blocks" : [
            {
                "blockHeader" : {
                    "bloom" : "0x00000000000000000000000000000000000000000000000000000000000000000000000000000000000000000000000000000000000000000000000000000000000000000000000000000000000000000000000000000000000000000000000000000000000000000000000000000000000000000000000000000000000000000000000000000000000000000000000000000000000000000000000000000000000000000000000000000000000000000000000000000000000000000000000000000000000000000000000000000000000000000000000000000000000000000000000000000000000000000000000000000000000000000000000000000000",
                    "coinbase" : "0x2adc25665018aa1fe0e6bc666dac8fc2697ff9ba",
                    "difficulty" : "0x020000",
                    "extraData" : "0x",
                    "gasLimit" : "0x0f4240",
                    "gasUsed" : "0x05ab9f",
                    "hash" : "0x167f748bd0f7465d9d1f7225074e07fae4847add03650956089d64877afc3133",
                    "mixHash" : "0x0000000000000000000000000000000000000000000000000000000000000000",
                    "nonce" : "0x0000000000000000",
                    "number" : "0x01",
                    "parentHash" : "0xd3e83488ac557d22fd39e9fbd61b0727ed72297823875e5127a6864c57268376",
                    "receiptTrie" : "0xdecb79f43c466db7e890c6fdc33f0839c579d9cb1cf216d9c32fb75b57156a92",
                    "stateRoot" : "0x6dfec006956e426b028dce2d996c2bb683427c04f2907c1e6438b2312890cfc0",
                    "timestamp" : "0x03e8",
                    "transactionsTrie" : "0x2e0dbd769d03994dee583c601ce0ca0274ea34200724bf89a8970fa0caacf81e",
                    "uncleHash" : "0x1dcc4de8dec75d7aab85b567b6ccd41ad312451b948a7413f0a142fd40d49347"
                },
                "rlp" : "0xf9028af901f8a0d3e83488ac557d22fd39e9fbd61b0727ed72297823875e5127a6864c57268376a01dcc4de8dec75d7aab85b567b6ccd41ad312451b948a7413f0a142fd40d49347942adc25665018aa1fe0e6bc666dac8fc2697ff9baa06dfec006956e426b028dce2d996c2bb683427c04f2907c1e6438b2312890cfc0a02e0dbd769d03994dee583c601ce0ca0274ea34200724bf89a8970fa0caacf81ea0decb79f43c466db7e890c6fdc33f0839c579d9cb1cf216d9c32fb75b57156a92b90100000000000000000000000000000000000000000000000000000000000000000000000000000000000000000000000000000000000000000000000000000000000000000000000000000000000000000000000000000000000000000000000000000000000000000000000000000000000000000000000000000000000000000000000000000000000000000000000000000000000000000000000000000000000000000000000000000000000000000000000000000000000000000000000000000000000000000000000000000000000000000000000000000000000000000000000000000000000000000000000000000000000000000000000000000000008302000001830f42408305ab9f8203e880a00000000000000000000000000000000000000000000000000000000000000000880000000000000000f88cf88a800183061a808080b83d6000600060006000600073cff64f4c5df8f436c4f2c1af4b2e3f9e3004c77961c350f1506b626010ff6000526003601df36000526000600c60146000f51ba02f5cc10fe04d67301b8f039cdebb279b51578ce54c711c0eb7170852f4893d9ea00b5dcf40e42ea7afb5ac8282eef23eead4eb197e939169786b2ede913d3476bdc0",
                "transactions" : [
                    {
                        "data" : "0x6000600060006000600073cff64f4c5df8f436c4f2c1af4b2e3f9e3004c77961c350f1506b626010ff6000526003601df36000526000600c60146000f5",
                        "gasLimit" : "0x061a80",
                        "gasPrice" : "0x01",
                        "nonce" : "0x00",
                        "r" : "0x2f5cc10fe04d67301b8f039cdebb279b51578ce54c711c0eb7170852f4893d9e",
                        "s" : "0x0b5dcf40e42ea7afb5ac8282eef23eead4eb197e939169786b2ede913d3476bd",
                        "to" : "",
                        "v" : "0x1b",
                        "value" : "0x00"
                    }
                ],
                "uncleHeaders" : [
                ]
            }
        ],
        "genesisBlockHeader" : {
            "bloom" : "0x00000000000000000000000000000000000000000000000000000000000000000000000000000000000000000000000000000000000000000000000000000000000000000000000000000000000000000000000000000000000000000000000000000000000000000000000000000000000000000000000000000000000000000000000000000000000000000000000000000000000000000000000000000000000000000000000000000000000000000000000000000000000000000000000000000000000000000000000000000000000000000000000000000000000000000000000000000000000000000000000000000000000000000000000000000000",
            "coinbase" : "0x2adc25665018aa1fe0e6bc666dac8fc2697ff9ba",
            "difficulty" : "0x020000",
            "extraData" : "0x42",
            "gasLimit" : "0x0f4240",
            "gasUsed" : "0x00",
            "hash" : "0xd3e83488ac557d22fd39e9fbd61b0727ed72297823875e5127a6864c57268376",
            "mixHash" : "0x56e81f171bcc55a6ff8345e692c0f86e5b48e01b996cadc001622fb5e363b421",
            "nonce" : "0x0102030405060708",
            "number" : "0x00",
            "parentHash" : "0x0000000000000000000000000000000000000000000000000000000000000000",
            "receiptTrie" : "0x56e81f171bcc55a6ff8345e692c0f86e5b48e01b996cadc001622fb5e363b421",
            "stateRoot" : "0xaef3dcca3f19ab2104a76ab47d8fa62691ce35e3934e5598ed6f2315adcd66d5",
            "timestamp" : "0x03b6",
            "transactionsTrie" : "0x56e81f171bcc55a6ff8345e692c0f86e5b48e01b996cadc001622fb5e363b421",
            "uncleHash" : "0x1dcc4de8dec75d7aab85b567b6ccd41ad312451b948a7413f0a142fd40d49347"
        },
        "genesisRLP" : "0xf901faf901f5a00000000000000000000000000000000000000000000000000000000000000000a01dcc4de8dec75d7aab85b567b6ccd41ad312451b948a7413f0a142fd40d49347942adc25665018aa1fe0e6bc666dac8fc2697ff9baa0aef3dcca3f19ab2104a76ab47d8fa62691ce35e3934e5598ed6f2315adcd66d5a056e81f171bcc55a6ff8345e692c0f86e5b48e01b996cadc001622fb5e363b421a056e81f171bcc55a6ff8345e692c0f86e5b48e01b996cadc001622fb5e363b421b90100000000000000000000000000000000000000000000000000000000000000000000000000000000000000000000000000000000000000000000000000000000000000000000000000000000000000000000000000000000000000000000000000000000000000000000000000000000000000000000000000000000000000000000000000000000000000000000000000000000000000000000000000000000000000000000000000000000000000000000000000000000000000000000000000000000000000000000000000000000000000000000000000000000000000000000000000000000000000000000000000000000000000000000000000000000008302000080830f4240808203b642a056e81f171bcc55a6ff8345e692c0f86e5b48e01b996cadc001622fb5e363b421880102030405060708c0c0",
        "lastblockhash" : "0x167f748bd0f7465d9d1f7225074e07fae4847add03650956089d64877afc3133",
        "network" : "ConstantinopleFix",
        "postState" : {
            "0x0000000000000000000000000000000000000010" : {
                "balance" : "0x01",
                "code" : "0x",
                "nonce" : "0x00",
                "storage" : {
                }
            },
            "0x2adc25665018aa1fe0e6bc666dac8fc2697ff9ba" : {
                "balance" : "0x1bc16d674ecdab9f",
                "code" : "0x",
                "nonce" : "0x00",
                "storage" : {
                }
            },
            "0x6295ee1b4f6dd65047762f924ecd367c17eabf8f" : {
                "balance" : "0x00",
                "code" : "0x",
                "nonce" : "0x02",
                "storage" : {
                }
            },
            "0xa94f5374fce5edbc8e2a8697c15331677e6ebf0b" : {
                "balance" : "0x0de0b6b3a75e5461",
                "code" : "0x626010ff6000526003601df3",
                "nonce" : "0x01",
                "storage" : {
                }
            },
            "0xfce41d047b4a1d4450382dcc29ec7e5fedc5f9a3" : {
                "balance" : "0x01",
                "code" : "0x6010ff",
                "nonce" : "0x00",
                "storage" : {
                }
            }
        },
        "pre" : {
            "0xa94f5374fce5edbc8e2a8697c15331677e6ebf0b" : {
                "balance" : "0x0de0b6b3a7640000",
                "code" : "0x626010ff6000526003601df3",
                "nonce" : "0x00",
                "storage" : {
                }
            },
            "0xcff64f4c5df8f436c4f2c1af4b2e3f9e3004c779" : {
                "balance" : "0x01",
                "code" : "0x6010ff",
                "nonce" : "0x01",
                "storage" : {
                }
            },
            "0xfce41d047b4a1d4450382dcc29ec7e5fedc5f9a3" : {
                "balance" : "0x01",
                "code" : "0x6010ff",
                "nonce" : "0x00",
                "storage" : {
                }
            }
        },
        "sealEngine" : "NoProof"
    }
}