{
    "CREATE2_Suicide_d0g0v0_Constantinople" : {
        "_info" : {
            "comment" : "CREATE2 suicide with/without value, CREATE2 sucide to itself   +  this cases during init of the CREATE2",
            "filledwith" : "testeth 1.7.0-alpha.1-20+commit.782a7283",
            "lllcversion" : "Version: 0.5.0-develop.2018.11.9+commit.9709dfe0.Linux.g++",
            "source" : "src/BlockchainTestsFiller/GeneralStateTests/stCreate2/CREATE2_Suicide_d0g0v0Filler.json",
            "sourceHash" : "1a810dcef5abbbedb37157f4845c95fbae38d16b0815c5d1dc796dd8db85777e"
        },
        "blocks" : [
            {
                "blockHeader" : {
                    "bloom" : "0x00000000000000000000000000000000000000000000000000000000000000000000000000000000000000000000000000000000000000000000000000000000000000000000000000000000000000000000000000000000000000000000000000000000000000000000000000000000000000000000000000000000000000000000000000000000000000000000000000000000000000000000000000000000000000000000000000000000000000000000000000000000000000000000000000000000000000000000000000000000000000000000000000000000000000000000000000000000000000000000000000000000000000000000000000000000",
                    "coinbase" : "0x2adc25665018aa1fe0e6bc666dac8fc2697ff9ba",
                    "difficulty" : "0x020000",
                    "extraData" : "0x",
                    "gasLimit" : "0x989680",
                    "gasUsed" : "0x010571",
                    "hash" : "0x7d4fbe242188e89ea1fb3b2a2152da54f6a771288f84c0ebe761313814fd91b8",
                    "mixHash" : "0x0000000000000000000000000000000000000000000000000000000000000000",
                    "nonce" : "0x0000000000000000",
                    "number" : "0x01",
                    "parentHash" : "0x997b30dda6b49dfb83a6a96c084c3dc16dfb26c87112fedc6f6782d31f2f9c7b",
                    "receiptTrie" : "0x6568bfa6228416e26e9036277442c884d4a7819ba732b0a1bcac672b245d9750",
                    "stateRoot" : "0xaff42aac51bcac1bfe4ba473f0968eda9877020da94b56422969492e625c1695",
                    "timestamp" : "0x03e8",
                    "transactionsTrie" : "0x9626899c2560eb0e4591f23d1ddc261bb9adf382ec9039da05febf891526f45b",
                    "uncleHash" : "0x1dcc4de8dec75d7aab85b567b6ccd41ad312451b948a7413f0a142fd40d49347"
                },
                "rlp" : "0xf9025cf901f8a0997b30dda6b49dfb83a6a96c084c3dc16dfb26c87112fedc6f6782d31f2f9c7ba01dcc4de8dec75d7aab85b567b6ccd41ad312451b948a7413f0a142fd40d49347942adc25665018aa1fe0e6bc666dac8fc2697ff9baa0aff42aac51bcac1bfe4ba473f0968eda9877020da94b56422969492e625c1695a09626899c2560eb0e4591f23d1ddc261bb9adf382ec9039da05febf891526f45ba06568bfa6228416e26e9036277442c884d4a7819ba732b0a1bcac672b245d9750b9010000000000000000000000000000000000000000000000000000000000000000000000000000000000000000000000000000000000000000000000000000000000000000000000000000000000000000000000000000000000000000000000000000000000000000000000000000000000000000000000000000000000000000000000000000000000000000000000000000000000000000000000000000000000000000000000000000000000000000000000000000000000000000000000000000000000000000000000000000000000000000000000000000000000000000000000000000000000000000000000000000000000000000000000000000000000830200000183989680830105718203e880a00000000000000000000000000000000000000000000000000000000000000000880000000000000000f85ef85c8001830927c0800a90626001ff60005260006003601d6000f51ca0a87377d2cdda282871fbb57f8fb861e23f56410909903ed2cf9bb8c024fc12c6a00ce7716805db68511a1ef0962c3296cc0f0408b24c1e0769462bdbef9948dc9bc0",
                "transactions" : [
                    {
                        "data" : "0x626001ff60005260006003601d6000f5",
                        "gasLimit" : "0x0927c0",
                        "gasPrice" : "0x01",
                        "nonce" : "0x00",
                        "r" : "0xa87377d2cdda282871fbb57f8fb861e23f56410909903ed2cf9bb8c024fc12c6",
                        "s" : "0x0ce7716805db68511a1ef0962c3296cc0f0408b24c1e0769462bdbef9948dc9b",
                        "to" : "",
                        "v" : "0x1c",
                        "value" : "0x0a"
                    }
                ],
                "uncleHeaders" : [
                ]
            }
        ],
        "genesisBlockHeader" : {
            "bloom" : "0x00000000000000000000000000000000000000000000000000000000000000000000000000000000000000000000000000000000000000000000000000000000000000000000000000000000000000000000000000000000000000000000000000000000000000000000000000000000000000000000000000000000000000000000000000000000000000000000000000000000000000000000000000000000000000000000000000000000000000000000000000000000000000000000000000000000000000000000000000000000000000000000000000000000000000000000000000000000000000000000000000000000000000000000000000000000",
            "coinbase" : "0x2adc25665018aa1fe0e6bc666dac8fc2697ff9ba",
            "difficulty" : "0x020000",
            "extraData" : "0x42",
            "gasLimit" : "0x989680",
            "gasUsed" : "0x00",
            "hash" : "0x997b30dda6b49dfb83a6a96c084c3dc16dfb26c87112fedc6f6782d31f2f9c7b",
            "mixHash" : "0x56e81f171bcc55a6ff8345e692c0f86e5b48e01b996cadc001622fb5e363b421",
            "nonce" : "0x0102030405060708",
            "number" : "0x00",
            "parentHash" : "0x0000000000000000000000000000000000000000000000000000000000000000",
            "receiptTrie" : "0x56e81f171bcc55a6ff8345e692c0f86e5b48e01b996cadc001622fb5e363b421",
            "stateRoot" : "0xf01530719e567a2bfd10ea8dac83b1fb1dc4017e2ec9eb4e646339708a3ca96d",
            "timestamp" : "0x03b6",
            "transactionsTrie" : "0x56e81f171bcc55a6ff8345e692c0f86e5b48e01b996cadc001622fb5e363b421",
            "uncleHash" : "0x1dcc4de8dec75d7aab85b567b6ccd41ad312451b948a7413f0a142fd40d49347"
        },
        "genesisRLP" : "0xf901faf901f5a00000000000000000000000000000000000000000000000000000000000000000a01dcc4de8dec75d7aab85b567b6ccd41ad312451b948a7413f0a142fd40d49347942adc25665018aa1fe0e6bc666dac8fc2697ff9baa0f01530719e567a2bfd10ea8dac83b1fb1dc4017e2ec9eb4e646339708a3ca96da056e81f171bcc55a6ff8345e692c0f86e5b48e01b996cadc001622fb5e363b421a056e81f171bcc55a6ff8345e692c0f86e5b48e01b996cadc001622fb5e363b421b9010000000000000000000000000000000000000000000000000000000000000000000000000000000000000000000000000000000000000000000000000000000000000000000000000000000000000000000000000000000000000000000000000000000000000000000000000000000000000000000000000000000000000000000000000000000000000000000000000000000000000000000000000000000000000000000000000000000000000000000000000000000000000000000000000000000000000000000000000000000000000000000000000000000000000000000000000000000000000000000000000000000000000000000000000000000000830200008083989680808203b642a056e81f171bcc55a6ff8345e692c0f86e5b48e01b996cadc001622fb5e363b421880102030405060708c0c0",
        "lastblockhash" : "0x7d4fbe242188e89ea1fb3b2a2152da54f6a771288f84c0ebe761313814fd91b8",
        "network" : "Constantinople",
        "postState" : {
            "0x2adc25665018aa1fe0e6bc666dac8fc2697ff9ba" : {
                "balance" : "0x1bc16d674ec90571",
                "code" : "0x",
                "nonce" : "0x00",
                "storage" : {
                }
            },
            "0x6295ee1b4f6dd65047762f924ecd367c17eabf8f" : {
                "balance" : "0x0a",
                "code" : "0x",
                "nonce" : "0x02",
                "storage" : {
                }
            },
            "0xa94f5374fce5edbc8e2a8697c15331677e6ebf0b" : {
                "balance" : "0xe8d4a40a85",
                "code" : "0x6130ff6000526002601ef3",
                "nonce" : "0x01",
                "storage" : {
                }
            }
        },
        "pre" : {
            "0xa94f5374fce5edbc8e2a8697c15331677e6ebf0b" : {
                "balance" : "0xe8d4a51000",
                "code" : "0x6130ff6000526002601ef3",
                "nonce" : "0x00",
                "storage" : {
                }
            }
        },
        "sealEngine" : "NoProof"
    },
    "CREATE2_Suicide_d0g0v0_ConstantinopleFix" : {
        "_info" : {
            "comment" : "CREATE2 suicide with/without value, CREATE2 sucide to itself   +  this cases during init of the CREATE2",
            "filledwith" : "testeth 1.7.0-alpha.1-20+commit.782a7283",
            "lllcversion" : "Version: 0.5.0-develop.2018.11.9+commit.9709dfe0.Linux.g++",
            "source" : "src/BlockchainTestsFiller/GeneralStateTests/stCreate2/CREATE2_Suicide_d0g0v0Filler.json",
            "sourceHash" : "1a810dcef5abbbedb37157f4845c95fbae38d16b0815c5d1dc796dd8db85777e"
        },
        "blocks" : [
            {
                "blockHeader" : {
                    "bloom" : "0x00000000000000000000000000000000000000000000000000000000000000000000000000000000000000000000000000000000000000000000000000000000000000000000000000000000000000000000000000000000000000000000000000000000000000000000000000000000000000000000000000000000000000000000000000000000000000000000000000000000000000000000000000000000000000000000000000000000000000000000000000000000000000000000000000000000000000000000000000000000000000000000000000000000000000000000000000000000000000000000000000000000000000000000000000000000",
                    "coinbase" : "0x2adc25665018aa1fe0e6bc666dac8fc2697ff9ba",
                    "difficulty" : "0x020000",
                    "extraData" : "0x",
                    "gasLimit" : "0x989680",
                    "gasUsed" : "0x010571",
                    "hash" : "0x7d4fbe242188e89ea1fb3b2a2152da54f6a771288f84c0ebe761313814fd91b8",
                    "mixHash" : "0x0000000000000000000000000000000000000000000000000000000000000000",
                    "nonce" : "0x0000000000000000",
                    "number" : "0x01",
                    "parentHash" : "0x997b30dda6b49dfb83a6a96c084c3dc16dfb26c87112fedc6f6782d31f2f9c7b",
                    "receiptTrie" : "0x6568bfa6228416e26e9036277442c884d4a7819ba732b0a1bcac672b245d9750",
                    "stateRoot" : "0xaff42aac51bcac1bfe4ba473f0968eda9877020da94b56422969492e625c1695",
                    "timestamp" : "0x03e8",
                    "transactionsTrie" : "0x9626899c2560eb0e4591f23d1ddc261bb9adf382ec9039da05febf891526f45b",
                    "uncleHash" : "0x1dcc4de8dec75d7aab85b567b6ccd41ad312451b948a7413f0a142fd40d49347"
                },
                "rlp" : "0xf9025cf901f8a0997b30dda6b49dfb83a6a96c084c3dc16dfb26c87112fedc6f6782d31f2f9c7ba01dcc4de8dec75d7aab85b567b6ccd41ad312451b948a7413f0a142fd40d49347942adc25665018aa1fe0e6bc666dac8fc2697ff9baa0aff42aac51bcac1bfe4ba473f0968eda9877020da94b56422969492e625c1695a09626899c2560eb0e4591f23d1ddc261bb9adf382ec9039da05febf891526f45ba06568bfa6228416e26e9036277442c884d4a7819ba732b0a1bcac672b245d9750b9010000000000000000000000000000000000000000000000000000000000000000000000000000000000000000000000000000000000000000000000000000000000000000000000000000000000000000000000000000000000000000000000000000000000000000000000000000000000000000000000000000000000000000000000000000000000000000000000000000000000000000000000000000000000000000000000000000000000000000000000000000000000000000000000000000000000000000000000000000000000000000000000000000000000000000000000000000000000000000000000000000000000000000000000000000000000830200000183989680830105718203e880a00000000000000000000000000000000000000000000000000000000000000000880000000000000000f85ef85c8001830927c0800a90626001ff60005260006003601d6000f51ca0a87377d2cdda282871fbb57f8fb861e23f56410909903ed2cf9bb8c024fc12c6a00ce7716805db68511a1ef0962c3296cc0f0408b24c1e0769462bdbef9948dc9bc0",
                "transactions" : [
                    {
                        "data" : "0x626001ff60005260006003601d6000f5",
                        "gasLimit" : "0x0927c0",
                        "gasPrice" : "0x01",
                        "nonce" : "0x00",
                        "r" : "0xa87377d2cdda282871fbb57f8fb861e23f56410909903ed2cf9bb8c024fc12c6",
                        "s" : "0x0ce7716805db68511a1ef0962c3296cc0f0408b24c1e0769462bdbef9948dc9b",
                        "to" : "",
                        "v" : "0x1c",
                        "value" : "0x0a"
                    }
                ],
                "uncleHeaders" : [
                ]
            }
        ],
        "genesisBlockHeader" : {
            "bloom" : "0x00000000000000000000000000000000000000000000000000000000000000000000000000000000000000000000000000000000000000000000000000000000000000000000000000000000000000000000000000000000000000000000000000000000000000000000000000000000000000000000000000000000000000000000000000000000000000000000000000000000000000000000000000000000000000000000000000000000000000000000000000000000000000000000000000000000000000000000000000000000000000000000000000000000000000000000000000000000000000000000000000000000000000000000000000000000",
            "coinbase" : "0x2adc25665018aa1fe0e6bc666dac8fc2697ff9ba",
            "difficulty" : "0x020000",
            "extraData" : "0x42",
            "gasLimit" : "0x989680",
            "gasUsed" : "0x00",
            "hash" : "0x997b30dda6b49dfb83a6a96c084c3dc16dfb26c87112fedc6f6782d31f2f9c7b",
            "mixHash" : "0x56e81f171bcc55a6ff8345e692c0f86e5b48e01b996cadc001622fb5e363b421",
            "nonce" : "0x0102030405060708",
            "number" : "0x00",
            "parentHash" : "0x0000000000000000000000000000000000000000000000000000000000000000",
            "receiptTrie" : "0x56e81f171bcc55a6ff8345e692c0f86e5b48e01b996cadc001622fb5e363b421",
            "stateRoot" : "0xf01530719e567a2bfd10ea8dac83b1fb1dc4017e2ec9eb4e646339708a3ca96d",
            "timestamp" : "0x03b6",
            "transactionsTrie" : "0x56e81f171bcc55a6ff8345e692c0f86e5b48e01b996cadc001622fb5e363b421",
            "uncleHash" : "0x1dcc4de8dec75d7aab85b567b6ccd41ad312451b948a7413f0a142fd40d49347"
        },
        "genesisRLP" : "0xf901faf901f5a00000000000000000000000000000000000000000000000000000000000000000a01dcc4de8dec75d7aab85b567b6ccd41ad312451b948a7413f0a142fd40d49347942adc25665018aa1fe0e6bc666dac8fc2697ff9baa0f01530719e567a2bfd10ea8dac83b1fb1dc4017e2ec9eb4e646339708a3ca96da056e81f171bcc55a6ff8345e692c0f86e5b48e01b996cadc001622fb5e363b421a056e81f171bcc55a6ff8345e692c0f86e5b48e01b996cadc001622fb5e363b421b9010000000000000000000000000000000000000000000000000000000000000000000000000000000000000000000000000000000000000000000000000000000000000000000000000000000000000000000000000000000000000000000000000000000000000000000000000000000000000000000000000000000000000000000000000000000000000000000000000000000000000000000000000000000000000000000000000000000000000000000000000000000000000000000000000000000000000000000000000000000000000000000000000000000000000000000000000000000000000000000000000000000000000000000000000000000000830200008083989680808203b642a056e81f171bcc55a6ff8345e692c0f86e5b48e01b996cadc001622fb5e363b421880102030405060708c0c0",
        "lastblockhash" : "0x7d4fbe242188e89ea1fb3b2a2152da54f6a771288f84c0ebe761313814fd91b8",
        "network" : "ConstantinopleFix",
        "postState" : {
            "0x2adc25665018aa1fe0e6bc666dac8fc2697ff9ba" : {
                "balance" : "0x1bc16d674ec90571",
                "code" : "0x",
                "nonce" : "0x00",
                "storage" : {
                }
            },
            "0x6295ee1b4f6dd65047762f924ecd367c17eabf8f" : {
                "balance" : "0x0a",
                "code" : "0x",
                "nonce" : "0x02",
                "storage" : {
                }
            },
            "0xa94f5374fce5edbc8e2a8697c15331677e6ebf0b" : {
                "balance" : "0xe8d4a40a85",
                "code" : "0x6130ff6000526002601ef3",
                "nonce" : "0x01",
                "storage" : {
                }
            }
        },
        "pre" : {
            "0xa94f5374fce5edbc8e2a8697c15331677e6ebf0b" : {
                "balance" : "0xe8d4a51000",
                "code" : "0x6130ff6000526002601ef3",
                "nonce" : "0x00",
                "storage" : {
                }
            }
        },
        "sealEngine" : "NoProof"
    }
}