{
    "CREATE2_Suicide_d6g0v0_Constantinople" : {
        "_info" : {
            "comment" : "CREATE2 suicide with/without value, CREATE2 sucide to itself   +  this cases during init of the CREATE2",
            "filledwith" : "testeth 1.7.0-alpha.1-20+commit.782a7283",
            "lllcversion" : "Version: 0.5.0-develop.2018.11.9+commit.9709dfe0.Linux.g++",
            "source" : "src/BlockchainTestsFiller/GeneralStateTests/stCreate2/CREATE2_Suicide_d6g0v0Filler.json",
            "sourceHash" : "498619607ffe8595c54665caf8c1831f696d090e8a871962eb42db1635eedd8b"
        },
        "blocks" : [
            {
                "blockHeader" : {
                    "bloom" : "0x00000000000000000000000000000000000000000000000000000000000000000000000000000000000000000000000000000000000000000000000000000000000000000000000000000000000000000000000000000000000000000000000000000000000000000000000000000000000000000000000000000000000000000000000000000000000000000000000000000000000000000000000000000000000000000000000000000000000000000000000000000000000000000000000000000000000000000000000000000000000000000000000000000000000000000000000000000000000000000000000000000000000000000000000000000000",
                    "coinbase" : "0x2adc25665018aa1fe0e6bc666dac8fc2697ff9ba",
                    "difficulty" : "0x020000",
                    "extraData" : "0x",
                    "gasLimit" : "0x989680",
                    "gasUsed" : "0x01056c",
                    "hash" : "0xdd59ebf53870de33c884daf161ec1b3104245e9185dbe55c9344ee5dee6b35cc",
                    "mixHash" : "0x0000000000000000000000000000000000000000000000000000000000000000",
                    "nonce" : "0x0000000000000000",
                    "number" : "0x01",
                    "parentHash" : "0x997b30dda6b49dfb83a6a96c084c3dc16dfb26c87112fedc6f6782d31f2f9c7b",
                    "receiptTrie" : "0x5d4c4ca9314b5b4fc8a306e2ee937a2a060e8d469ea7410a2c2c71ee76eb3c82",
                    "stateRoot" : "0xe5a520e0a5d54c2a4d4031c068543c277e486c03faf8b7894240505b7d15ea26",
                    "timestamp" : "0x03e8",
                    "transactionsTrie" : "0x3fd46fa159bdf8427667164c0130fdbdd54ba1d41017ec41e268202f84d5be7d",
                    "uncleHash" : "0x1dcc4de8dec75d7aab85b567b6ccd41ad312451b948a7413f0a142fd40d49347"
                },
                "rlp" : "0xf9025bf901f8a0997b30dda6b49dfb83a6a96c084c3dc16dfb26c87112fedc6f6782d31f2f9c7ba01dcc4de8dec75d7aab85b567b6ccd41ad312451b948a7413f0a142fd40d49347942adc25665018aa1fe0e6bc666dac8fc2697ff9baa0e5a520e0a5d54c2a4d4031c068543c277e486c03faf8b7894240505b7d15ea26a03fd46fa159bdf8427667164c0130fdbdd54ba1d41017ec41e268202f84d5be7da05d4c4ca9314b5b4fc8a306e2ee937a2a060e8d469ea7410a2c2c71ee76eb3c82b90100000000000000000000000000000000000000000000000000000000000000000000000000000000000000000000000000000000000000000000000000000000000000000000000000000000000000000000000000000000000000000000000000000000000000000000000000000000000000000000000000000000000000000000000000000000000000000000000000000000000000000000000000000000000000000000000000000000000000000000000000000000000000000000000000000000000000000000000000000000000000000000000000000000000000000000000000000000000000000000000000000000000000000000000000000000008302000001839896808301056c8203e880a00000000000000000000000000000000000000000000000000000000000000000880000000000000000f85df85b8001830927c0800a8f6130ff60005260006002601e6001f51ba0bb014c091ce75ce76142ddd763c1745a2ff62c221a1e151f54714338037d3091a04fa4a77fa1eee4557a6f953c17517f03209b209fa11e6f4959d2b13830afdff0c0",
                "transactions" : [
                    {
                        "data" : "0x6130ff60005260006002601e6001f5",
                        "gasLimit" : "0x0927c0",
                        "gasPrice" : "0x01",
                        "nonce" : "0x00",
                        "r" : "0xbb014c091ce75ce76142ddd763c1745a2ff62c221a1e151f54714338037d3091",
                        "s" : "0x4fa4a77fa1eee4557a6f953c17517f03209b209fa11e6f4959d2b13830afdff0",
                        "to" : "",
                        "v" : "0x1b",
                        "value" : "0x0a"
                    }
                ],
                "uncleHeaders" : [
                ]
            }
        ],
        "genesisBlockHeader" : {
            "bloom" : "0x00000000000000000000000000000000000000000000000000000000000000000000000000000000000000000000000000000000000000000000000000000000000000000000000000000000000000000000000000000000000000000000000000000000000000000000000000000000000000000000000000000000000000000000000000000000000000000000000000000000000000000000000000000000000000000000000000000000000000000000000000000000000000000000000000000000000000000000000000000000000000000000000000000000000000000000000000000000000000000000000000000000000000000000000000000000",
            "coinbase" : "0x2adc25665018aa1fe0e6bc666dac8fc2697ff9ba",
            "difficulty" : "0x020000",
            "extraData" : "0x42",
            "gasLimit" : "0x989680",
            "gasUsed" : "0x00",
            "hash" : "0x997b30dda6b49dfb83a6a96c084c3dc16dfb26c87112fedc6f6782d31f2f9c7b",
            "mixHash" : "0x56e81f171bcc55a6ff8345e692c0f86e5b48e01b996cadc001622fb5e363b421",
            "nonce" : "0x0102030405060708",
            "number" : "0x00",
            "parentHash" : "0x0000000000000000000000000000000000000000000000000000000000000000",
            "receiptTrie" : "0x56e81f171bcc55a6ff8345e692c0f86e5b48e01b996cadc001622fb5e363b421",
            "stateRoot" : "0xf01530719e567a2bfd10ea8dac83b1fb1dc4017e2ec9eb4e646339708a3ca96d",
            "timestamp" : "0x03b6",
            "transactionsTrie" : "0x56e81f171bcc55a6ff8345e692c0f86e5b48e01b996cadc001622fb5e363b421",
            "uncleHash" : "0x1dcc4de8dec75d7aab85b567b6ccd41ad312451b948a7413f0a142fd40d49347"
        },
        "genesisRLP" : "0xf901faf901f5a00000000000000000000000000000000000000000000000000000000000000000a01dcc4de8dec75d7aab85b567b6ccd41ad312451b948a7413f0a142fd40d49347942adc25665018aa1fe0e6bc666dac8fc2697ff9baa0f01530719e567a2bfd10ea8dac83b1fb1dc4017e2ec9eb4e646339708a3ca96da056e81f171bcc55a6ff8345e692c0f86e5b48e01b996cadc001622fb5e363b421a056e81f171bcc55a6ff8345e692c0f86e5b48e01b996cadc001622fb5e363b421b9010000000000000000000000000000000000000000000000000000000000000000000000000000000000000000000000000000000000000000000000000000000000000000000000000000000000000000000000000000000000000000000000000000000000000000000000000000000000000000000000000000000000000000000000000000000000000000000000000000000000000000000000000000000000000000000000000000000000000000000000000000000000000000000000000000000000000000000000000000000000000000000000000000000000000000000000000000000000000000000000000000000000000000000000000000000000830200008083989680808203b642a056e81f171bcc55a6ff8345e692c0f86e5b48e01b996cadc001622fb5e363b421880102030405060708c0c0",
        "lastblockhash" : "0xdd59ebf53870de33c884daf161ec1b3104245e9185dbe55c9344ee5dee6b35cc",
        "network" : "Constantinople",
        "postState" : {
            "0x2adc25665018aa1fe0e6bc666dac8fc2697ff9ba" : {
                "balance" : "0x1bc16d674ec9056c",
                "code" : "0x",
                "nonce" : "0x00",
                "storage" : {
                }
            },
            "0x6295ee1b4f6dd65047762f924ecd367c17eabf8f" : {
                "balance" : "0x09",
                "code" : "0x",
                "nonce" : "0x02",
                "storage" : {
                }
            },
            "0xa94f5374fce5edbc8e2a8697c15331677e6ebf0b" : {
                "balance" : "0xe8d4a40a8a",
                "code" : "0x6130ff6000526002601ef3",
                "nonce" : "0x01",
                "storage" : {
                }
            }
        },
        "pre" : {
            "0xa94f5374fce5edbc8e2a8697c15331677e6ebf0b" : {
                "balance" : "0xe8d4a51000",
                "code" : "0x6130ff6000526002601ef3",
                "nonce" : "0x00",
                "storage" : {
                }
            }
        },
        "sealEngine" : "NoProof"
    },
    "CREATE2_Suicide_d6g0v0_ConstantinopleFix" : {
        "_info" : {
            "comment" : "CREATE2 suicide with/without value, CREATE2 sucide to itself   +  this cases during init of the CREATE2",
            "filledwith" : "testeth 1.7.0-alpha.1-20+commit.782a7283",
            "lllcversion" : "Version: 0.5.0-develop.2018.11.9+commit.9709dfe0.Linux.g++",
            "source" : "src/BlockchainTestsFiller/GeneralStateTests/stCreate2/CREATE2_Suicide_d6g0v0Filler.json",
            "sourceHash" : "498619607ffe8595c54665caf8c1831f696d090e8a871962eb42db1635eedd8b"
        },
        "blocks" : [
            {
                "blockHeader" : {
                    "bloom" : "0x00000000000000000000000000000000000000000000000000000000000000000000000000000000000000000000000000000000000000000000000000000000000000000000000000000000000000000000000000000000000000000000000000000000000000000000000000000000000000000000000000000000000000000000000000000000000000000000000000000000000000000000000000000000000000000000000000000000000000000000000000000000000000000000000000000000000000000000000000000000000000000000000000000000000000000000000000000000000000000000000000000000000000000000000000000000",
                    "coinbase" : "0x2adc25665018aa1fe0e6bc666dac8fc2697ff9ba",
                    "difficulty" : "0x020000",
                    "extraData" : "0x",
                    "gasLimit" : "0x989680",
                    "gasUsed" : "0x01056c",
                    "hash" : "0xdd59ebf53870de33c884daf161ec1b3104245e9185dbe55c9344ee5dee6b35cc",
                    "mixHash" : "0x0000000000000000000000000000000000000000000000000000000000000000",
                    "nonce" : "0x0000000000000000",
                    "number" : "0x01",
                    "parentHash" : "0x997b30dda6b49dfb83a6a96c084c3dc16dfb26c87112fedc6f6782d31f2f9c7b",
                    "receiptTrie" : "0x5d4c4ca9314b5b4fc8a306e2ee937a2a060e8d469ea7410a2c2c71ee76eb3c82",
                    "stateRoot" : "0xe5a520e0a5d54c2a4d4031c068543c277e486c03faf8b7894240505b7d15ea26",
                    "timestamp" : "0x03e8",
                    "transactionsTrie" : "0x3fd46fa159bdf8427667164c0130fdbdd54ba1d41017ec41e268202f84d5be7d",
                    "uncleHash" : "0x1dcc4de8dec75d7aab85b567b6ccd41ad312451b948a7413f0a142fd40d49347"
                },
                "rlp" : "0xf9025bf901f8a0997b30dda6b49dfb83a6a96c084c3dc16dfb26c87112fedc6f6782d31f2f9c7ba01dcc4de8dec75d7aab85b567b6ccd41ad312451b948a7413f0a142fd40d49347942adc25665018aa1fe0e6bc666dac8fc2697ff9baa0e5a520e0a5d54c2a4d4031c068543c277e486c03faf8b7894240505b7d15ea26a03fd46fa159bdf8427667164c0130fdbdd54ba1d41017ec41e268202f84d5be7da05d4c4ca9314b5b4fc8a306e2ee937a2a060e8d469ea7410a2c2c71ee76eb3c82b90100000000000000000000000000000000000000000000000000000000000000000000000000000000000000000000000000000000000000000000000000000000000000000000000000000000000000000000000000000000000000000000000000000000000000000000000000000000000000000000000000000000000000000000000000000000000000000000000000000000000000000000000000000000000000000000000000000000000000000000000000000000000000000000000000000000000000000000000000000000000000000000000000000000000000000000000000000000000000000000000000000000000000000000000000000000008302000001839896808301056c8203e880a00000000000000000000000000000000000000000000000000000000000000000880000000000000000f85df85b8001830927c0800a8f6130ff60005260006002601e6001f51ba0bb014c091ce75ce76142ddd763c1745a2ff62c221a1e151f54714338037d3091a04fa4a77fa1eee4557a6f953c17517f03209b209fa11e6f4959d2b13830afdff0c0",
                "transactions" : [
                    {
                        "data" : "0x6130ff60005260006002601e6001f5",
                        "gasLimit" : "0x0927c0",
                        "gasPrice" : "0x01",
                        "nonce" : "0x00",
                        "r" : "0xbb014c091ce75ce76142ddd763c1745a2ff62c221a1e151f54714338037d3091",
                        "s" : "0x4fa4a77fa1eee4557a6f953c17517f03209b209fa11e6f4959d2b13830afdff0",
                        "to" : "",
                        "v" : "0x1b",
                        "value" : "0x0a"
                    }
                ],
                "uncleHeaders" : [
                ]
            }
        ],
        "genesisBlockHeader" : {
            "bloom" : "0x00000000000000000000000000000000000000000000000000000000000000000000000000000000000000000000000000000000000000000000000000000000000000000000000000000000000000000000000000000000000000000000000000000000000000000000000000000000000000000000000000000000000000000000000000000000000000000000000000000000000000000000000000000000000000000000000000000000000000000000000000000000000000000000000000000000000000000000000000000000000000000000000000000000000000000000000000000000000000000000000000000000000000000000000000000000",
            "coinbase" : "0x2adc25665018aa1fe0e6bc666dac8fc2697ff9ba",
            "difficulty" : "0x020000",
            "extraData" : "0x42",
            "gasLimit" : "0x989680",
            "gasUsed" : "0x00",
            "hash" : "0x997b30dda6b49dfb83a6a96c084c3dc16dfb26c87112fedc6f6782d31f2f9c7b",
            "mixHash" : "0x56e81f171bcc55a6ff8345e692c0f86e5b48e01b996cadc001622fb5e363b421",
            "nonce" : "0x0102030405060708",
            "number" : "0x00",
            "parentHash" : "0x0000000000000000000000000000000000000000000000000000000000000000",
            "receiptTrie" : "0x56e81f171bcc55a6ff8345e692c0f86e5b48e01b996cadc001622fb5e363b421",
            "stateRoot" : "0xf01530719e567a2bfd10ea8dac83b1fb1dc4017e2ec9eb4e646339708a3ca96d",
            "timestamp" : "0x03b6",
            "transactionsTrie" : "0x56e81f171bcc55a6ff8345e692c0f86e5b48e01b996cadc001622fb5e363b421",
            "uncleHash" : "0x1dcc4de8dec75d7aab85b567b6ccd41ad312451b948a7413f0a142fd40d49347"
        },
        "genesisRLP" : "0xf901faf901f5a00000000000000000000000000000000000000000000000000000000000000000a01dcc4de8dec75d7aab85b567b6ccd41ad312451b948a7413f0a142fd40d49347942adc25665018aa1fe0e6bc666dac8fc2697ff9baa0f01530719e567a2bfd10ea8dac83b1fb1dc4017e2ec9eb4e646339708a3ca96da056e81f171bcc55a6ff8345e692c0f86e5b48e01b996cadc001622fb5e363b421a056e81f171bcc55a6ff8345e692c0f86e5b48e01b996cadc001622fb5e363b421b9010000000000000000000000000000000000000000000000000000000000000000000000000000000000000000000000000000000000000000000000000000000000000000000000000000000000000000000000000000000000000000000000000000000000000000000000000000000000000000000000000000000000000000000000000000000000000000000000000000000000000000000000000000000000000000000000000000000000000000000000000000000000000000000000000000000000000000000000000000000000000000000000000000000000000000000000000000000000000000000000000000000000000000000000000000000000830200008083989680808203b642a056e81f171bcc55a6ff8345e692c0f86e5b48e01b996cadc001622fb5e363b421880102030405060708c0c0",
        "lastblockhash" : "0xdd59ebf53870de33c884daf161ec1b3104245e9185dbe55c9344ee5dee6b35cc",
        "network" : "ConstantinopleFix",
        "postState" : {
            "0x2adc25665018aa1fe0e6bc666dac8fc2697ff9ba" : {
                "balance" : "0x1bc16d674ec9056c",
                "code" : "0x",
                "nonce" : "0x00",
                "storage" : {
                }
            },
            "0x6295ee1b4f6dd65047762f924ecd367c17eabf8f" : {
                "balance" : "0x09",
                "code" : "0x",
                "nonce" : "0x02",
                "storage" : {
                }
            },
            "0xa94f5374fce5edbc8e2a8697c15331677e6ebf0b" : {
                "balance" : "0xe8d4a40a8a",
                "code" : "0x6130ff6000526002601ef3",
                "nonce" : "0x01",
                "storage" : {
                }
            }
        },
        "pre" : {
            "0xa94f5374fce5edbc8e2a8697c15331677e6ebf0b" : {
                "balance" : "0xe8d4a51000",
                "code" : "0x6130ff6000526002601ef3",
                "nonce" : "0x00",
                "storage" : {
                }
            }
        },
        "sealEngine" : "NoProof"
    }
}