{
    "CreateMessageReverted_d0g1v0_Constantinople" : {
        "_info" : {
            "comment" : "CreateMessageReverted for CREATE2",
            "filledwith" : "testeth 1.7.0-alpha.1-20+commit.782a7283",
            "lllcversion" : "Version: 0.5.0-develop.2018.11.9+commit.9709dfe0.Linux.g++",
            "source" : "src/BlockchainTestsFiller/GeneralStateTests/stCreate2/CreateMessageReverted_d0g1v0Filler.json",
            "sourceHash" : "9e5dc3594e2e22b89e8f0ff6f724600bfb79ed71e18393664deaab1aa32e76e8"
        },
        "blocks" : [
            {
                "blockHeader" : {
                    "bloom" : "0x00000000000000000000000000000000000000000000000000000000000000000000000000000000000000000000000000000000000000000000000000000000000000000000000000000000000000000000000000000000000000000000000000000000000000000000000000000000000000000000000000000000000000000000000000000000000000000000000000000000000000000000000000000000000000000000000000000000000000000000000000000000000000000000000000000000000000000000000000000000000000000000000000000000000000000000000000000000000000000000000000000000000000000000000000000000",
                    "coinbase" : "0x2adc25665018aa1fe0e6bc666dac8fc2697ff9ba",
                    "difficulty" : "0x020000",
                    "extraData" : "0x",
                    "gasLimit" : "0xe8d4a51000",
                    "gasUsed" : "0x016b72",
                    "hash" : "0x8c32002913770558c2460e95ac9687d6da4dc2d85983ceecdd439d474eeab1ee",
                    "mixHash" : "0x0000000000000000000000000000000000000000000000000000000000000000",
                    "nonce" : "0x0000000000000000",
                    "number" : "0x01",
                    "parentHash" : "0x5ffbfe1df7eb04e0045cca373c622524436e74f26de4809633e81b1649f53e37",
                    "receiptTrie" : "0x495b065de594f5c3a3106dba110d1cbda109e87923b3d31b847daf41ea7c8d2a",
                    "stateRoot" : "0x09f8d91b7ef89c362e3cd720325f8f1c9a7161f2474aad6ecf22cc8def33af5b",
                    "timestamp" : "0x03e8",
                    "transactionsTrie" : "0xa9a9853a298b16e642b5e3c5b2754c546d33d3b601b5d45f3f4192b2c94c5ac3",
                    "uncleHash" : "0x1dcc4de8dec75d7aab85b567b6ccd41ad312451b948a7413f0a142fd40d49347"
                },
                "rlp" : "0xf90262f901faa05ffbfe1df7eb04e0045cca373c622524436e74f26de4809633e81b1649f53e37a01dcc4de8dec75d7aab85b567b6ccd41ad312451b948a7413f0a142fd40d49347942adc25665018aa1fe0e6bc666dac8fc2697ff9baa009f8d91b7ef89c362e3cd720325f8f1c9a7161f2474aad6ecf22cc8def33af5ba0a9a9853a298b16e642b5e3c5b2754c546d33d3b601b5d45f3f4192b2c94c5ac3a0495b065de594f5c3a3106dba110d1cbda109e87923b3d31b847daf41ea7c8d2ab9010000000000000000000000000000000000000000000000000000000000000000000000000000000000000000000000000000000000000000000000000000000000000000000000000000000000000000000000000000000000000000000000000000000000000000000000000000000000000000000000000000000000000000000000000000000000000000000000000000000000000000000000000000000000000000000000000000000000000000000000000000000000000000000000000000000000000000000000000000000000000000000000000000000000000000000000000000000000000000000000000000000000000000000000000000000000830200000185e8d4a5100083016b728203e880a00000000000000000000000000000000000000000000000000000000000000000880000000000000000f862f8608001830249f094b94f5374fce5edbc8e2a8697c15331677e6ebf0b64801ba096ce5e9ce5c3ce45b5012bca58ad99cf985c78a039a3ca3a560365824f16ae95a02ccb4e955b0e7c73cfe82787b0c4295109e131840c43a664b363b3caff619a6ec0",
                "transactions" : [
                    {
                        "data" : "0x",
                        "gasLimit" : "0x0249f0",
                        "gasPrice" : "0x01",
                        "nonce" : "0x00",
                        "r" : "0x96ce5e9ce5c3ce45b5012bca58ad99cf985c78a039a3ca3a560365824f16ae95",
                        "s" : "0x2ccb4e955b0e7c73cfe82787b0c4295109e131840c43a664b363b3caff619a6e",
                        "to" : "0xb94f5374fce5edbc8e2a8697c15331677e6ebf0b",
                        "v" : "0x1b",
                        "value" : "0x64"
                    }
                ],
                "uncleHeaders" : [
                ]
            }
        ],
        "genesisBlockHeader" : {
            "bloom" : "0x00000000000000000000000000000000000000000000000000000000000000000000000000000000000000000000000000000000000000000000000000000000000000000000000000000000000000000000000000000000000000000000000000000000000000000000000000000000000000000000000000000000000000000000000000000000000000000000000000000000000000000000000000000000000000000000000000000000000000000000000000000000000000000000000000000000000000000000000000000000000000000000000000000000000000000000000000000000000000000000000000000000000000000000000000000000",
            "coinbase" : "0x2adc25665018aa1fe0e6bc666dac8fc2697ff9ba",
            "difficulty" : "0x020000",
            "extraData" : "0x42",
            "gasLimit" : "0xe8d4a51000",
            "gasUsed" : "0x00",
            "hash" : "0x5ffbfe1df7eb04e0045cca373c622524436e74f26de4809633e81b1649f53e37",
            "mixHash" : "0x56e81f171bcc55a6ff8345e692c0f86e5b48e01b996cadc001622fb5e363b421",
            "nonce" : "0x0102030405060708",
            "number" : "0x00",
            "parentHash" : "0x0000000000000000000000000000000000000000000000000000000000000000",
            "receiptTrie" : "0x56e81f171bcc55a6ff8345e692c0f86e5b48e01b996cadc001622fb5e363b421",
            "stateRoot" : "0x1755e3996a9841a4f65d7dbf24195eb8ad1764907fccfd6b894284ecdffd1f26",
            "timestamp" : "0x03b6",
            "transactionsTrie" : "0x56e81f171bcc55a6ff8345e692c0f86e5b48e01b996cadc001622fb5e363b421",
            "uncleHash" : "0x1dcc4de8dec75d7aab85b567b6ccd41ad312451b948a7413f0a142fd40d49347"
        },
        "genesisRLP" : "0xf901fcf901f7a00000000000000000000000000000000000000000000000000000000000000000a01dcc4de8dec75d7aab85b567b6ccd41ad312451b948a7413f0a142fd40d49347942adc25665018aa1fe0e6bc666dac8fc2697ff9baa01755e3996a9841a4f65d7dbf24195eb8ad1764907fccfd6b894284ecdffd1f26a056e81f171bcc55a6ff8345e692c0f86e5b48e01b996cadc001622fb5e363b421a056e81f171bcc55a6ff8345e692c0f86e5b48e01b996cadc001622fb5e363b421b9010000000000000000000000000000000000000000000000000000000000000000000000000000000000000000000000000000000000000000000000000000000000000000000000000000000000000000000000000000000000000000000000000000000000000000000000000000000000000000000000000000000000000000000000000000000000000000000000000000000000000000000000000000000000000000000000000000000000000000000000000000000000000000000000000000000000000000000000000000000000000000000000000000000000000000000000000000000000000000000000000000000000000000000000000000000000830200008085e8d4a51000808203b642a056e81f171bcc55a6ff8345e692c0f86e5b48e01b996cadc001622fb5e363b421880102030405060708c0c0",
        "lastblockhash" : "0x8c32002913770558c2460e95ac9687d6da4dc2d85983ceecdd439d474eeab1ee",
        "network" : "Constantinople",
        "postState" : {
            "0x244fe9a7867edcc140245e775071fbfe6ebedbae" : {
                "balance" : "0x00",
                "code" : "0x",
                "nonce" : "0x01",
                "storage" : {
                    "0x00" : "0x0c",
                    "0x01" : "0x0d"
                }
            },
            "0x2adc25665018aa1fe0e6bc666dac8fc2697ff9ba" : {
                "balance" : "0x1bc16d674ec96b72",
                "code" : "0x",
                "nonce" : "0x00",
                "storage" : {
                }
            },
            "0xa94f5374fce5edbc8e2a8697c15331677e6ebf0b" : {
                "balance" : "0x03280a",
                "code" : "0x",
                "nonce" : "0x01",
                "storage" : {
                }
            },
            "0xb94f5374fce5edbc8e2a8697c15331677e6ebf0b" : {
                "balance" : "0x64",
                "code" : "0x69600c600055600d6001556000526000600a60166000f5",
                "nonce" : "0x01",
                "storage" : {
                }
            }
        },
        "pre" : {
            "0xa94f5374fce5edbc8e2a8697c15331677e6ebf0b" : {
                "balance" : "0x0493e0",
                "code" : "0x",
                "nonce" : "0x00",
                "storage" : {
                }
            },
            "0xb94f5374fce5edbc8e2a8697c15331677e6ebf0b" : {
                "balance" : "0x00",
                "code" : "0x69600c600055600d6001556000526000600a60166000f5",
                "nonce" : "0x00",
                "storage" : {
                }
            }
        },
        "sealEngine" : "NoProof"
    },
    "CreateMessageReverted_d0g1v0_ConstantinopleFix" : {
        "_info" : {
            "comment" : "CreateMessageReverted for CREATE2",
            "filledwith" : "testeth 1.7.0-alpha.1-20+commit.782a7283",
            "lllcversion" : "Version: 0.5.0-develop.2018.11.9+commit.9709dfe0.Linux.g++",
            "source" : "src/BlockchainTestsFiller/GeneralStateTests/stCreate2/CreateMessageReverted_d0g1v0Filler.json",
            "sourceHash" : "9e5dc3594e2e22b89e8f0ff6f724600bfb79ed71e18393664deaab1aa32e76e8"
        },
        "blocks" : [
            {
                "blockHeader" : {
                    "bloom" : "0x00000000000000000000000000000000000000000000000000000000000000000000000000000000000000000000000000000000000000000000000000000000000000000000000000000000000000000000000000000000000000000000000000000000000000000000000000000000000000000000000000000000000000000000000000000000000000000000000000000000000000000000000000000000000000000000000000000000000000000000000000000000000000000000000000000000000000000000000000000000000000000000000000000000000000000000000000000000000000000000000000000000000000000000000000000000",
                    "coinbase" : "0x2adc25665018aa1fe0e6bc666dac8fc2697ff9ba",
                    "difficulty" : "0x020000",
                    "extraData" : "0x",
                    "gasLimit" : "0xe8d4a51000",
                    "gasUsed" : "0x016b72",
                    "hash" : "0x8c32002913770558c2460e95ac9687d6da4dc2d85983ceecdd439d474eeab1ee",
                    "mixHash" : "0x0000000000000000000000000000000000000000000000000000000000000000",
                    "nonce" : "0x0000000000000000",
                    "number" : "0x01",
                    "parentHash" : "0x5ffbfe1df7eb04e0045cca373c622524436e74f26de4809633e81b1649f53e37",
                    "receiptTrie" : "0x495b065de594f5c3a3106dba110d1cbda109e87923b3d31b847daf41ea7c8d2a",
                    "stateRoot" : "0x09f8d91b7ef89c362e3cd720325f8f1c9a7161f2474aad6ecf22cc8def33af5b",
                    "timestamp" : "0x03e8",
                    "transactionsTrie" : "0xa9a9853a298b16e642b5e3c5b2754c546d33d3b601b5d45f3f4192b2c94c5ac3",
                    "uncleHash" : "0x1dcc4de8dec75d7aab85b567b6ccd41ad312451b948a7413f0a142fd40d49347"
                },
                "rlp" : "0xf90262f901faa05ffbfe1df7eb04e0045cca373c622524436e74f26de4809633e81b1649f53e37a01dcc4de8dec75d7aab85b567b6ccd41ad312451b948a7413f0a142fd40d49347942adc25665018aa1fe0e6bc666dac8fc2697ff9baa009f8d91b7ef89c362e3cd720325f8f1c9a7161f2474aad6ecf22cc8def33af5ba0a9a9853a298b16e642b5e3c5b2754c546d33d3b601b5d45f3f4192b2c94c5ac3a0495b065de594f5c3a3106dba110d1cbda109e87923b3d31b847daf41ea7c8d2ab9010000000000000000000000000000000000000000000000000000000000000000000000000000000000000000000000000000000000000000000000000000000000000000000000000000000000000000000000000000000000000000000000000000000000000000000000000000000000000000000000000000000000000000000000000000000000000000000000000000000000000000000000000000000000000000000000000000000000000000000000000000000000000000000000000000000000000000000000000000000000000000000000000000000000000000000000000000000000000000000000000000000000000000000000000000000000830200000185e8d4a5100083016b728203e880a00000000000000000000000000000000000000000000000000000000000000000880000000000000000f862f8608001830249f094b94f5374fce5edbc8e2a8697c15331677e6ebf0b64801ba096ce5e9ce5c3ce45b5012bca58ad99cf985c78a039a3ca3a560365824f16ae95a02ccb4e955b0e7c73cfe82787b0c4295109e131840c43a664b363b3caff619a6ec0",
                "transactions" : [
                    {
                        "data" : "0x",
                        "gasLimit" : "0x0249f0",
                        "gasPrice" : "0x01",
                        "nonce" : "0x00",
                        "r" : "0x96ce5e9ce5c3ce45b5012bca58ad99cf985c78a039a3ca3a560365824f16ae95",
                        "s" : "0x2ccb4e955b0e7c73cfe82787b0c4295109e131840c43a664b363b3caff619a6e",
                        "to" : "0xb94f5374fce5edbc8e2a8697c15331677e6ebf0b",
                        "v" : "0x1b",
                        "value" : "0x64"
                    }
                ],
                "uncleHeaders" : [
                ]
            }
        ],
        "genesisBlockHeader" : {
            "bloom" : "0x00000000000000000000000000000000000000000000000000000000000000000000000000000000000000000000000000000000000000000000000000000000000000000000000000000000000000000000000000000000000000000000000000000000000000000000000000000000000000000000000000000000000000000000000000000000000000000000000000000000000000000000000000000000000000000000000000000000000000000000000000000000000000000000000000000000000000000000000000000000000000000000000000000000000000000000000000000000000000000000000000000000000000000000000000000000",
            "coinbase" : "0x2adc25665018aa1fe0e6bc666dac8fc2697ff9ba",
            "difficulty" : "0x020000",
            "extraData" : "0x42",
            "gasLimit" : "0xe8d4a51000",
            "gasUsed" : "0x00",
            "hash" : "0x5ffbfe1df7eb04e0045cca373c622524436e74f26de4809633e81b1649f53e37",
            "mixHash" : "0x56e81f171bcc55a6ff8345e692c0f86e5b48e01b996cadc001622fb5e363b421",
            "nonce" : "0x0102030405060708",
            "number" : "0x00",
            "parentHash" : "0x0000000000000000000000000000000000000000000000000000000000000000",
            "receiptTrie" : "0x56e81f171bcc55a6ff8345e692c0f86e5b48e01b996cadc001622fb5e363b421",
            "stateRoot" : "0x1755e3996a9841a4f65d7dbf24195eb8ad1764907fccfd6b894284ecdffd1f26",
            "timestamp" : "0x03b6",
            "transactionsTrie" : "0x56e81f171bcc55a6ff8345e692c0f86e5b48e01b996cadc001622fb5e363b421",
            "uncleHash" : "0x1dcc4de8dec75d7aab85b567b6ccd41ad312451b948a7413f0a142fd40d49347"
        },
        "genesisRLP" : "0xf901fcf901f7a00000000000000000000000000000000000000000000000000000000000000000a01dcc4de8dec75d7aab85b567b6ccd41ad312451b948a7413f0a142fd40d49347942adc25665018aa1fe0e6bc666dac8fc2697ff9baa01755e3996a9841a4f65d7dbf24195eb8ad1764907fccfd6b894284ecdffd1f26a056e81f171bcc55a6ff8345e692c0f86e5b48e01b996cadc001622fb5e363b421a056e81f171bcc55a6ff8345e692c0f86e5b48e01b996cadc001622fb5e363b421b9010000000000000000000000000000000000000000000000000000000000000000000000000000000000000000000000000000000000000000000000000000000000000000000000000000000000000000000000000000000000000000000000000000000000000000000000000000000000000000000000000000000000000000000000000000000000000000000000000000000000000000000000000000000000000000000000000000000000000000000000000000000000000000000000000000000000000000000000000000000000000000000000000000000000000000000000000000000000000000000000000000000000000000000000000000000000830200008085e8d4a51000808203b642a056e81f171bcc55a6ff8345e692c0f86e5b48e01b996cadc001622fb5e363b421880102030405060708c0c0",
        "lastblockhash" : "0x8c32002913770558c2460e95ac9687d6da4dc2d85983ceecdd439d474eeab1ee",
        "network" : "ConstantinopleFix",
        "postState" : {
            "0x244fe9a7867edcc140245e775071fbfe6ebedbae" : {
                "balance" : "0x00",
                "code" : "0x",
                "nonce" : "0x01",
                "storage" : {
                    "0x00" : "0x0c",
                    "0x01" : "0x0d"
                }
            },
            "0x2adc25665018aa1fe0e6bc666dac8fc2697ff9ba" : {
                "balance" : "0x1bc16d674ec96b72",
                "code" : "0x",
                "nonce" : "0x00",
                "storage" : {
                }
            },
            "0xa94f5374fce5edbc8e2a8697c15331677e6ebf0b" : {
                "balance" : "0x03280a",
                "code" : "0x",
                "nonce" : "0x01",
                "storage" : {
                }
            },
            "0xb94f5374fce5edbc8e2a8697c15331677e6ebf0b" : {
                "balance" : "0x64",
                "code" : "0x69600c600055600d6001556000526000600a60166000f5",
                "nonce" : "0x01",
                "storage" : {
                }
            }
        },
        "pre" : {
            "0xa94f5374fce5edbc8e2a8697c15331677e6ebf0b" : {
                "balance" : "0x0493e0",
                "code" : "0x",
                "nonce" : "0x00",
                "storage" : {
                }
            },
            "0xb94f5374fce5edbc8e2a8697c15331677e6ebf0b" : {
                "balance" : "0x00",
                "code" : "0x69600c600055600d6001556000526000600a60166000f5",
                "nonce" : "0x00",
                "storage" : {
                }
            }
        },
        "sealEngine" : "NoProof"
    }
}