{
    "create2checkFieldsInInitcode_d0g0v0_Constantinople" : {
        "_info" : {
            "comment" : "Check opcode values in create2 init code. Create2 called with different call types. CREATE2 inside CRETE2 inside CALL, CALLCODE, DELEGATECALL, STATICCALL << test values of  SENDER,address and so on.",
            "filledwith" : "testeth 1.7.0-alpha.1-20+commit.782a7283",
            "lllcversion" : "Version: 0.5.0-develop.2018.11.9+commit.9709dfe0.Linux.g++",
            "source" : "src/BlockchainTestsFiller/GeneralStateTests/stCreate2/create2checkFieldsInInitcode_d0g0v0Filler.json",
            "sourceHash" : "67e007388b5ed19d48edfe8327551a3f0c61a590e39464b8dda238d20dc48222"
        },
        "blocks" : [
            {
                "blockHeader" : {
                    "bloom" : "0x00000000000000000000000000000000000000000000000000000000000000000000000000000000000000000000000000000000000000000000000000000000000000000000000000000000000000000000000000000000000000000000000000000000000000000000000000000000000000000000000000000000000000000000000000000000000000000000000000000000000000000000000000000000000000000000000000000000000000000000000000000000000000000000000000000000000000000000000000000000000000000000000000000000000000000000000000000000000000000000000000000000000000000000000000000000",
                    "coinbase" : "0x2adc25665018aa1fe0e6bc666dac8fc2697ff9ba",
                    "difficulty" : "0x020000",
                    "extraData" : "0x",
                    "gasLimit" : "0x0f4240",
                    "gasUsed" : "0x02604d",
                    "hash" : "0x7789691fd0c478d405c14fce5917e37f2c7a3e449b6ea7026d6ea86b0e96f975",
                    "mixHash" : "0x0000000000000000000000000000000000000000000000000000000000000000",
                    "nonce" : "0x0000000000000000",
                    "number" : "0x01",
                    "parentHash" : "0x17212d9de624b54d6e0826672874f9bbd27be9013b1d1a7f7daafefbf7673617",
                    "receiptTrie" : "0xc5ece0f0bfd796003018dd370670525a341265cb81a901aa5acb21f67be46154",
                    "stateRoot" : "0x9281424fc088b22e61b7ae9b0f018fea2f1b5d172984a2e7a22c52f731ef0647",
                    "timestamp" : "0x03e8",
                    "transactionsTrie" : "0x7b12792a2f809d9e636fbe563416323618715309c378d624539d3087c54b487e",
                    "uncleHash" : "0x1dcc4de8dec75d7aab85b567b6ccd41ad312451b948a7413f0a142fd40d49347"
                },
                "rlp" : "0xf90280f901f8a017212d9de624b54d6e0826672874f9bbd27be9013b1d1a7f7daafefbf7673617a01dcc4de8dec75d7aab85b567b6ccd41ad312451b948a7413f0a142fd40d49347942adc25665018aa1fe0e6bc666dac8fc2697ff9baa09281424fc088b22e61b7ae9b0f018fea2f1b5d172984a2e7a22c52f731ef0647a07b12792a2f809d9e636fbe563416323618715309c378d624539d3087c54b487ea0c5ece0f0bfd796003018dd370670525a341265cb81a901aa5acb21f67be46154b90100000000000000000000000000000000000000000000000000000000000000000000000000000000000000000000000000000000000000000000000000000000000000000000000000000000000000000000000000000000000000000000000000000000000000000000000000000000000000000000000000000000000000000000000000000000000000000000000000000000000000000000000000000000000000000000000000000000000000000000000000000000000000000000000000000000000000000000000000000000000000000000000000000000000000000000000000000000000000000000000000000000000000000000000000000000008302000001830f42408302604d8203e880a00000000000000000000000000000000000000000000000000000000000000000880000000000000000f882f8808001830927c094b94f5374fce5edbc8e2a8697c15331677e6ebf0b80a000000000000000000000000010000000000000000000000000000000000000001ca037e42dd8ada31ad5a1ec9c74ce7d6fcdb35fa12051d7487ba79fa7deb6da0183a04e217f713a8b8738d5b7e2f4718508d9b31488a1b258f2cb211929ee2f579101c0",
                "transactions" : [
                    {
                        "data" : "0x0000000000000000000000001000000000000000000000000000000000000000",
                        "gasLimit" : "0x0927c0",
                        "gasPrice" : "0x01",
                        "nonce" : "0x00",
                        "r" : "0x37e42dd8ada31ad5a1ec9c74ce7d6fcdb35fa12051d7487ba79fa7deb6da0183",
                        "s" : "0x4e217f713a8b8738d5b7e2f4718508d9b31488a1b258f2cb211929ee2f579101",
                        "to" : "0xb94f5374fce5edbc8e2a8697c15331677e6ebf0b",
                        "v" : "0x1c",
                        "value" : "0x00"
                    }
                ],
                "uncleHeaders" : [
                ]
            }
        ],
        "genesisBlockHeader" : {
            "bloom" : "0x00000000000000000000000000000000000000000000000000000000000000000000000000000000000000000000000000000000000000000000000000000000000000000000000000000000000000000000000000000000000000000000000000000000000000000000000000000000000000000000000000000000000000000000000000000000000000000000000000000000000000000000000000000000000000000000000000000000000000000000000000000000000000000000000000000000000000000000000000000000000000000000000000000000000000000000000000000000000000000000000000000000000000000000000000000000",
            "coinbase" : "0x2adc25665018aa1fe0e6bc666dac8fc2697ff9ba",
            "difficulty" : "0x020000",
            "extraData" : "0x42",
            "gasLimit" : "0x0f4240",
            "gasUsed" : "0x00",
            "hash" : "0x17212d9de624b54d6e0826672874f9bbd27be9013b1d1a7f7daafefbf7673617",
            "mixHash" : "0x56e81f171bcc55a6ff8345e692c0f86e5b48e01b996cadc001622fb5e363b421",
            "nonce" : "0x0102030405060708",
            "number" : "0x00",
            "parentHash" : "0x0000000000000000000000000000000000000000000000000000000000000000",
            "receiptTrie" : "0x56e81f171bcc55a6ff8345e692c0f86e5b48e01b996cadc001622fb5e363b421",
            "stateRoot" : "0xefc0786cfbaedc4bed3d33f2a435e587a9fd7d91dfada91f07bc20fbe3e37753",
            "timestamp" : "0x03b6",
            "transactionsTrie" : "0x56e81f171bcc55a6ff8345e692c0f86e5b48e01b996cadc001622fb5e363b421",
            "uncleHash" : "0x1dcc4de8dec75d7aab85b567b6ccd41ad312451b948a7413f0a142fd40d49347"
        },
        "genesisRLP" : "0xf901faf901f5a00000000000000000000000000000000000000000000000000000000000000000a01dcc4de8dec75d7aab85b567b6ccd41ad312451b948a7413f0a142fd40d49347942adc25665018aa1fe0e6bc666dac8fc2697ff9baa0efc0786cfbaedc4bed3d33f2a435e587a9fd7d91dfada91f07bc20fbe3e37753a056e81f171bcc55a6ff8345e692c0f86e5b48e01b996cadc001622fb5e363b421a056e81f171bcc55a6ff8345e692c0f86e5b48e01b996cadc001622fb5e363b421b90100000000000000000000000000000000000000000000000000000000000000000000000000000000000000000000000000000000000000000000000000000000000000000000000000000000000000000000000000000000000000000000000000000000000000000000000000000000000000000000000000000000000000000000000000000000000000000000000000000000000000000000000000000000000000000000000000000000000000000000000000000000000000000000000000000000000000000000000000000000000000000000000000000000000000000000000000000000000000000000000000000000000000000000000000000000008302000080830f4240808203b642a056e81f171bcc55a6ff8345e692c0f86e5b48e01b996cadc001622fb5e363b421880102030405060708c0c0",
        "lastblockhash" : "0x7789691fd0c478d405c14fce5917e37f2c7a3e449b6ea7026d6ea86b0e96f975",
        "network" : "Constantinople",
        "postState" : {
            "0x1000000000000000000000000000000000000000" : {
                "balance" : "0x00",
                "code" : "0x6000600060006000600073f0000000000000000000000000000000000000005af1",
                "nonce" : "0x00",
                "storage" : {
                }
            },
            "0x1100000000000000000000000000000000000000" : {
                "balance" : "0x00",
                "code" : "0x6000602380601260003960006000f55000fe6000600060006000600073f0000000000000000000000000000000000000005af15000",
                "nonce" : "0x00",
                "storage" : {
                }
            },
            "0x2000000000000000000000000000000000000000" : {
                "balance" : "0x00",
                "code" : "0x6000600060006000600073f0000000000000000000000000000000000000005af2",
                "nonce" : "0x00",
                "storage" : {
                }
            },
            "0x2200000000000000000000000000000000000000" : {
                "balance" : "0x00",
                "code" : "0x6000602380601260003960006000f55000fe6000600060006000600073f0000000000000000000000000000000000000005af25000",
                "nonce" : "0x00",
                "storage" : {
                }
            },
            "0x2adc25665018aa1fe0e6bc666dac8fc2697ff9ba" : {
                "balance" : "0x1bc16d674eca604d",
                "code" : "0x",
                "nonce" : "0x00",
                "storage" : {
                }
            },
            "0x3000000000000000000000000000000000000000" : {
                "balance" : "0x00",
                "code" : "0x600060006000600073f0000000000000000000000000000000000000005af45000",
                "nonce" : "0x00",
                "storage" : {
                }
            },
            "0x3300000000000000000000000000000000000000" : {
                "balance" : "0x00",
                "code" : "0x6000602180601260003960006000f55000fe600060006000600073f0000000000000000000000000000000000000005af45000",
                "nonce" : "0x00",
                "storage" : {
                }
            },
            "0x4000000000000000000000000000000000000000" : {
                "balance" : "0x00",
                "code" : "0x61010060006000600073f2000000000000000000000000000000000000005afa50600051600a55",
                "nonce" : "0x00",
                "storage" : {
                }
            },
            "0x4400000000000000000000000000000000000000" : {
                "balance" : "0x00",
                "code" : "0x6000602880601060003960006000f5fe61010060006000600073f2000000000000000000000000000000000000005afa50600051600a5500",
                "nonce" : "0x00",
                "storage" : {
                }
            },
            "0x4d714d3c738b11337521200e35d1c452a087976f" : {
                "balance" : "0x00",
                "code" : "0x",
                "nonce" : "0x01",
                "storage" : {
                    "0x00" : "0x4d714d3c738b11337521200e35d1c452a087976f",
                    "0x02" : "0xa94f5374fce5edbc8e2a8697c15331677e6ebf0b",
                    "0x03" : "0xf000000000000000000000000000000000000000",
                    "0x06" : "0x22",
                    "0x07" : "0x01"
                }
            },
            "0xa94f5374fce5edbc8e2a8697c15331677e6ebf0b" : {
                "balance" : "0x0de0b6b3a7619fb3",
                "code" : "0x",
                "nonce" : "0x01",
                "storage" : {
                }
            },
            "0xb94f5374fce5edbc8e2a8697c15331677e6ebf0b" : {
                "balance" : "0x00",
                "code" : "0x600060006000600060006000355af1",
                "nonce" : "0x00",
                "storage" : {
                }
            },
            "0xf000000000000000000000000000000000000000" : {
                "balance" : "0x00",
                "code" : "0x6000602280601260003960006000f55000fe30600055303160015532600255336003553460045536600555386006553a60075500",
                "nonce" : "0x01",
                "storage" : {
                }
            },
            "0xf200000000000000000000000000000000000000" : {
                "balance" : "0x00",
                "code" : "0x6000602880601060003960006000f5fe3060005230316020523260405233606052346080523660a0523860c0523a60e0526101006000f300",
                "nonce" : "0x00",
                "storage" : {
                }
            }
        },
        "pre" : {
            "0x1000000000000000000000000000000000000000" : {
                "balance" : "0x00",
                "code" : "0x6000600060006000600073f0000000000000000000000000000000000000005af1",
                "nonce" : "0x00",
                "storage" : {
                }
            },
            "0x1100000000000000000000000000000000000000" : {
                "balance" : "0x00",
                "code" : "0x6000602380601260003960006000f55000fe6000600060006000600073f0000000000000000000000000000000000000005af15000",
                "nonce" : "0x00",
                "storage" : {
                }
            },
            "0x2000000000000000000000000000000000000000" : {
                "balance" : "0x00",
                "code" : "0x6000600060006000600073f0000000000000000000000000000000000000005af2",
                "nonce" : "0x00",
                "storage" : {
                }
            },
            "0x2200000000000000000000000000000000000000" : {
                "balance" : "0x00",
                "code" : "0x6000602380601260003960006000f55000fe6000600060006000600073f0000000000000000000000000000000000000005af25000",
                "nonce" : "0x00",
                "storage" : {
                }
            },
            "0x3000000000000000000000000000000000000000" : {
                "balance" : "0x00",
                "code" : "0x600060006000600073f0000000000000000000000000000000000000005af45000",
                "nonce" : "0x00",
                "storage" : {
                }
            },
            "0x3300000000000000000000000000000000000000" : {
                "balance" : "0x00",
                "code" : "0x6000602180601260003960006000f55000fe600060006000600073f0000000000000000000000000000000000000005af45000",
                "nonce" : "0x00",
                "storage" : {
                }
            },
            "0x4000000000000000000000000000000000000000" : {
                "balance" : "0x00",
                "code" : "0x61010060006000600073f2000000000000000000000000000000000000005afa50600051600a55",
                "nonce" : "0x00",
                "storage" : {
                }
            },
            "0x4400000000000000000000000000000000000000" : {
                "balance" : "0x00",
                "code" : "0x6000602880601060003960006000f5fe61010060006000600073f2000000000000000000000000000000000000005afa50600051600a5500",
                "nonce" : "0x00",
                "storage" : {
                }
            },
            "0xa94f5374fce5edbc8e2a8697c15331677e6ebf0b" : {
                "balance" : "0x0de0b6b3a7640000",
                "code" : "0x",
                "nonce" : "0x00",
                "storage" : {
                }
            },
            "0xb94f5374fce5edbc8e2a8697c15331677e6ebf0b" : {
                "balance" : "0x00",
                "code" : "0x600060006000600060006000355af1",
                "nonce" : "0x00",
                "storage" : {
                }
            },
            "0xf000000000000000000000000000000000000000" : {
                "balance" : "0x00",
                "code" : "0x6000602280601260003960006000f55000fe30600055303160015532600255336003553460045536600555386006553a60075500",
                "nonce" : "0x00",
                "storage" : {
                }
            },
            "0xf200000000000000000000000000000000000000" : {
                "balance" : "0x00",
                "code" : "0x6000602880601060003960006000f5fe3060005230316020523260405233606052346080523660a0523860c0523a60e0526101006000f300",
                "nonce" : "0x00",
                "storage" : {
                }
            }
        },
        "sealEngine" : "NoProof"
    },
    "create2checkFieldsInInitcode_d0g0v0_ConstantinopleFix" : {
        "_info" : {
            "comment" : "Check opcode values in create2 init code. Create2 called with different call types. CREATE2 inside CRETE2 inside CALL, CALLCODE, DELEGATECALL, STATICCALL << test values of  SENDER,address and so on.",
            "filledwith" : "testeth 1.7.0-alpha.1-20+commit.782a7283",
            "lllcversion" : "Version: 0.5.0-develop.2018.11.9+commit.9709dfe0.Linux.g++",
            "source" : "src/BlockchainTestsFiller/GeneralStateTests/stCreate2/create2checkFieldsInInitcode_d0g0v0Filler.json",
            "sourceHash" : "67e007388b5ed19d48edfe8327551a3f0c61a590e39464b8dda238d20dc48222"
        },
        "blocks" : [
            {
                "blockHeader" : {
                    "bloom" : "0x00000000000000000000000000000000000000000000000000000000000000000000000000000000000000000000000000000000000000000000000000000000000000000000000000000000000000000000000000000000000000000000000000000000000000000000000000000000000000000000000000000000000000000000000000000000000000000000000000000000000000000000000000000000000000000000000000000000000000000000000000000000000000000000000000000000000000000000000000000000000000000000000000000000000000000000000000000000000000000000000000000000000000000000000000000000",
                    "coinbase" : "0x2adc25665018aa1fe0e6bc666dac8fc2697ff9ba",
                    "difficulty" : "0x020000",
                    "extraData" : "0x",
                    "gasLimit" : "0x0f4240",
                    "gasUsed" : "0x02988d",
                    "hash" : "0x00073c98b3b0682368b09a5b350a946d3081459c810c2f01c9d7164758eb1903",
                    "mixHash" : "0x0000000000000000000000000000000000000000000000000000000000000000",
                    "nonce" : "0x0000000000000000",
                    "number" : "0x01",
                    "parentHash" : "0x17212d9de624b54d6e0826672874f9bbd27be9013b1d1a7f7daafefbf7673617",
                    "receiptTrie" : "0x9ab704a689f0505752558d682d1917e21af48c2b5cb89aababbb868e438ee2bd",
                    "stateRoot" : "0x82c11946731fc41cffcdc919391f4bfdd9429aa71c28744484832a76e3fae843",
                    "timestamp" : "0x03e8",
                    "transactionsTrie" : "0x7b12792a2f809d9e636fbe563416323618715309c378d624539d3087c54b487e",
                    "uncleHash" : "0x1dcc4de8dec75d7aab85b567b6ccd41ad312451b948a7413f0a142fd40d49347"
                },
                "rlp" : "0xf90280f901f8a017212d9de624b54d6e0826672874f9bbd27be9013b1d1a7f7daafefbf7673617a01dcc4de8dec75d7aab85b567b6ccd41ad312451b948a7413f0a142fd40d49347942adc25665018aa1fe0e6bc666dac8fc2697ff9baa082c11946731fc41cffcdc919391f4bfdd9429aa71c28744484832a76e3fae843a07b12792a2f809d9e636fbe563416323618715309c378d624539d3087c54b487ea09ab704a689f0505752558d682d1917e21af48c2b5cb89aababbb868e438ee2bdb90100000000000000000000000000000000000000000000000000000000000000000000000000000000000000000000000000000000000000000000000000000000000000000000000000000000000000000000000000000000000000000000000000000000000000000000000000000000000000000000000000000000000000000000000000000000000000000000000000000000000000000000000000000000000000000000000000000000000000000000000000000000000000000000000000000000000000000000000000000000000000000000000000000000000000000000000000000000000000000000000000000000000000000000000000000000008302000001830f42408302988d8203e880a00000000000000000000000000000000000000000000000000000000000000000880000000000000000f882f8808001830927c094b94f5374fce5edbc8e2a8697c15331677e6ebf0b80a000000000000000000000000010000000000000000000000000000000000000001ca037e42dd8ada31ad5a1ec9c74ce7d6fcdb35fa12051d7487ba79fa7deb6da0183a04e217f713a8b8738d5b7e2f4718508d9b31488a1b258f2cb211929ee2f579101c0",
                "transactions" : [
                    {
                        "data" : "0x0000000000000000000000001000000000000000000000000000000000000000",
                        "gasLimit" : "0x0927c0",
                        "gasPrice" : "0x01",
                        "nonce" : "0x00",
                        "r" : "0x37e42dd8ada31ad5a1ec9c74ce7d6fcdb35fa12051d7487ba79fa7deb6da0183",
                        "s" : "0x4e217f713a8b8738d5b7e2f4718508d9b31488a1b258f2cb211929ee2f579101",
                        "to" : "0xb94f5374fce5edbc8e2a8697c15331677e6ebf0b",
                        "v" : "0x1c",
                        "value" : "0x00"
                    }
                ],
                "uncleHeaders" : [
                ]
            }
        ],
        "genesisBlockHeader" : {
            "bloom" : "0x00000000000000000000000000000000000000000000000000000000000000000000000000000000000000000000000000000000000000000000000000000000000000000000000000000000000000000000000000000000000000000000000000000000000000000000000000000000000000000000000000000000000000000000000000000000000000000000000000000000000000000000000000000000000000000000000000000000000000000000000000000000000000000000000000000000000000000000000000000000000000000000000000000000000000000000000000000000000000000000000000000000000000000000000000000000",
            "coinbase" : "0x2adc25665018aa1fe0e6bc666dac8fc2697ff9ba",
            "difficulty" : "0x020000",
            "extraData" : "0x42",
            "gasLimit" : "0x0f4240",
            "gasUsed" : "0x00",
            "hash" : "0x17212d9de624b54d6e0826672874f9bbd27be9013b1d1a7f7daafefbf7673617",
            "mixHash" : "0x56e81f171bcc55a6ff8345e692c0f86e5b48e01b996cadc001622fb5e363b421",
            "nonce" : "0x0102030405060708",
            "number" : "0x00",
            "parentHash" : "0x0000000000000000000000000000000000000000000000000000000000000000",
            "receiptTrie" : "0x56e81f171bcc55a6ff8345e692c0f86e5b48e01b996cadc001622fb5e363b421",
            "stateRoot" : "0xefc0786cfbaedc4bed3d33f2a435e587a9fd7d91dfada91f07bc20fbe3e37753",
            "timestamp" : "0x03b6",
            "transactionsTrie" : "0x56e81f171bcc55a6ff8345e692c0f86e5b48e01b996cadc001622fb5e363b421",
            "uncleHash" : "0x1dcc4de8dec75d7aab85b567b6ccd41ad312451b948a7413f0a142fd40d49347"
        },
        "genesisRLP" : "0xf901faf901f5a00000000000000000000000000000000000000000000000000000000000000000a01dcc4de8dec75d7aab85b567b6ccd41ad312451b948a7413f0a142fd40d49347942adc25665018aa1fe0e6bc666dac8fc2697ff9baa0efc0786cfbaedc4bed3d33f2a435e587a9fd7d91dfada91f07bc20fbe3e37753a056e81f171bcc55a6ff8345e692c0f86e5b48e01b996cadc001622fb5e363b421a056e81f171bcc55a6ff8345e692c0f86e5b48e01b996cadc001622fb5e363b421b90100000000000000000000000000000000000000000000000000000000000000000000000000000000000000000000000000000000000000000000000000000000000000000000000000000000000000000000000000000000000000000000000000000000000000000000000000000000000000000000000000000000000000000000000000000000000000000000000000000000000000000000000000000000000000000000000000000000000000000000000000000000000000000000000000000000000000000000000000000000000000000000000000000000000000000000000000000000000000000000000000000000000000000000000000000000008302000080830f4240808203b642a056e81f171bcc55a6ff8345e692c0f86e5b48e01b996cadc001622fb5e363b421880102030405060708c0c0",
        "lastblockhash" : "0x00073c98b3b0682368b09a5b350a946d3081459c810c2f01c9d7164758eb1903",
        "network" : "ConstantinopleFix",
        "postState" : {
            "0x1000000000000000000000000000000000000000" : {
                "balance" : "0x00",
                "code" : "0x6000600060006000600073f0000000000000000000000000000000000000005af1",
                "nonce" : "0x00",
                "storage" : {
                }
            },
            "0x1100000000000000000000000000000000000000" : {
                "balance" : "0x00",
                "code" : "0x6000602380601260003960006000f55000fe6000600060006000600073f0000000000000000000000000000000000000005af15000",
                "nonce" : "0x00",
                "storage" : {
                }
            },
            "0x2000000000000000000000000000000000000000" : {
                "balance" : "0x00",
                "code" : "0x6000600060006000600073f0000000000000000000000000000000000000005af2",
                "nonce" : "0x00",
                "storage" : {
                }
            },
            "0x2200000000000000000000000000000000000000" : {
                "balance" : "0x00",
                "code" : "0x6000602380601260003960006000f55000fe6000600060006000600073f0000000000000000000000000000000000000005af25000",
                "nonce" : "0x00",
                "storage" : {
                }
            },
            "0x2adc25665018aa1fe0e6bc666dac8fc2697ff9ba" : {
                "balance" : "0x1bc16d674eca988d",
                "code" : "0x",
                "nonce" : "0x00",
                "storage" : {
                }
            },
            "0x3000000000000000000000000000000000000000" : {
                "balance" : "0x00",
                "code" : "0x600060006000600073f0000000000000000000000000000000000000005af45000",
                "nonce" : "0x00",
                "storage" : {
                }
            },
            "0x3300000000000000000000000000000000000000" : {
                "balance" : "0x00",
                "code" : "0x6000602180601260003960006000f55000fe600060006000600073f0000000000000000000000000000000000000005af45000",
                "nonce" : "0x00",
                "storage" : {
                }
            },
            "0x4000000000000000000000000000000000000000" : {
                "balance" : "0x00",
                "code" : "0x61010060006000600073f2000000000000000000000000000000000000005afa50600051600a55",
                "nonce" : "0x00",
                "storage" : {
                }
            },
            "0x4400000000000000000000000000000000000000" : {
                "balance" : "0x00",
                "code" : "0x6000602880601060003960006000f5fe61010060006000600073f2000000000000000000000000000000000000005afa50600051600a5500",
                "nonce" : "0x00",
                "storage" : {
                }
            },
            "0x4d714d3c738b11337521200e35d1c452a087976f" : {
                "balance" : "0x00",
                "code" : "0x",
                "nonce" : "0x01",
                "storage" : {
                    "0x00" : "0x4d714d3c738b11337521200e35d1c452a087976f",
                    "0x02" : "0xa94f5374fce5edbc8e2a8697c15331677e6ebf0b",
                    "0x03" : "0xf000000000000000000000000000000000000000",
                    "0x06" : "0x22",
                    "0x07" : "0x01"
                }
            },
            "0xa94f5374fce5edbc8e2a8697c15331677e6ebf0b" : {
                "balance" : "0x0de0b6b3a7616773",
                "code" : "0x",
                "nonce" : "0x01",
                "storage" : {
                }
            },
            "0xb94f5374fce5edbc8e2a8697c15331677e6ebf0b" : {
                "balance" : "0x00",
                "code" : "0x600060006000600060006000355af1",
                "nonce" : "0x00",
                "storage" : {
                }
            },
            "0xf000000000000000000000000000000000000000" : {
                "balance" : "0x00",
                "code" : "0x6000602280601260003960006000f55000fe30600055303160015532600255336003553460045536600555386006553a60075500",
                "nonce" : "0x01",
                "storage" : {
                }
            },
            "0xf200000000000000000000000000000000000000" : {
                "balance" : "0x00",
                "code" : "0x6000602880601060003960006000f5fe3060005230316020523260405233606052346080523660a0523860c0523a60e0526101006000f300",
                "nonce" : "0x00",
                "storage" : {
                }
            }
        },
        "pre" : {
            "0x1000000000000000000000000000000000000000" : {
                "balance" : "0x00",
                "code" : "0x6000600060006000600073f0000000000000000000000000000000000000005af1",
                "nonce" : "0x00",
                "storage" : {
                }
            },
            "0x1100000000000000000000000000000000000000" : {
                "balance" : "0x00",
                "code" : "0x6000602380601260003960006000f55000fe6000600060006000600073f0000000000000000000000000000000000000005af15000",
                "nonce" : "0x00",
                "storage" : {
                }
            },
            "0x2000000000000000000000000000000000000000" : {
                "balance" : "0x00",
                "code" : "0x6000600060006000600073f0000000000000000000000000000000000000005af2",
                "nonce" : "0x00",
                "storage" : {
                }
            },
            "0x2200000000000000000000000000000000000000" : {
                "balance" : "0x00",
                "code" : "0x6000602380601260003960006000f55000fe6000600060006000600073f0000000000000000000000000000000000000005af25000",
                "nonce" : "0x00",
                "storage" : {
                }
            },
            "0x3000000000000000000000000000000000000000" : {
                "balance" : "0x00",
                "code" : "0x600060006000600073f0000000000000000000000000000000000000005af45000",
                "nonce" : "0x00",
                "storage" : {
                }
            },
            "0x3300000000000000000000000000000000000000" : {
                "balance" : "0x00",
                "code" : "0x6000602180601260003960006000f55000fe600060006000600073f0000000000000000000000000000000000000005af45000",
                "nonce" : "0x00",
                "storage" : {
                }
            },
            "0x4000000000000000000000000000000000000000" : {
                "balance" : "0x00",
                "code" : "0x61010060006000600073f2000000000000000000000000000000000000005afa50600051600a55",
                "nonce" : "0x00",
                "storage" : {
                }
            },
            "0x4400000000000000000000000000000000000000" : {
                "balance" : "0x00",
                "code" : "0x6000602880601060003960006000f5fe61010060006000600073f2000000000000000000000000000000000000005afa50600051600a5500",
                "nonce" : "0x00",
                "storage" : {
                }
            },
            "0xa94f5374fce5edbc8e2a8697c15331677e6ebf0b" : {
                "balance" : "0x0de0b6b3a7640000",
                "code" : "0x",
                "nonce" : "0x00",
                "storage" : {
                }
            },
            "0xb94f5374fce5edbc8e2a8697c15331677e6ebf0b" : {
                "balance" : "0x00",
                "code" : "0x600060006000600060006000355af1",
                "nonce" : "0x00",
                "storage" : {
                }
            },
            "0xf000000000000000000000000000000000000000" : {
                "balance" : "0x00",
                "code" : "0x6000602280601260003960006000f55000fe30600055303160015532600255336003553460045536600555386006553a60075500",
                "nonce" : "0x00",
                "storage" : {
                }
            },
            "0xf200000000000000000000000000000000000000" : {
                "balance" : "0x00",
                "code" : "0x6000602880601060003960006000f5fe3060005230316020523260405233606052346080523660a0523860c0523a60e0526101006000f300",
                "nonce" : "0x00",
                "storage" : {
                }
            }
        },
        "sealEngine" : "NoProof"
    }
}