{
    "create2checkFieldsInInitcode_d4g0v0_Constantinople" : {
        "_info" : {
            "comment" : "Check opcode values in create2 init code. Create2 called with different call types. CREATE2 inside CRETE2 inside CALL, CALLCODE, DELEGATECALL, STATICCALL << test values of  SENDER,address and so on.",
            "filledwith" : "testeth 1.7.0-alpha.1-20+commit.782a7283",
            "lllcversion" : "Version: 0.5.0-develop.2018.11.9+commit.9709dfe0.Linux.g++",
            "source" : "src/BlockchainTestsFiller/GeneralStateTests/stCreate2/create2checkFieldsInInitcode_d4g0v0Filler.json",
            "sourceHash" : "3dfc183ff43d6e59c9f2e2c15b046feb155618dd43780cd8fe121420d28bb1bc"
        },
        "blocks" : [
            {
                "blockHeader" : {
                    "bloom" : "0x00000000000000000000000000000000000000000000000000000000000000000000000000000000000000000000000000000000000000000000000000000000000000000000000000000000000000000000000000000000000000000000000000000000000000000000000000000000000000000000000000000000000000000000000000000000000000000000000000000000000000000000000000000000000000000000000000000000000000000000000000000000000000000000000000000000000000000000000000000000000000000000000000000000000000000000000000000000000000000000000000000000000000000000000000000000",
                    "coinbase" : "0x2adc25665018aa1fe0e6bc666dac8fc2697ff9ba",
                    "difficulty" : "0x020000",
                    "extraData" : "0x",
                    "gasLimit" : "0x0f4240",
                    "gasUsed" : "0x02dd81",
                    "hash" : "0x07028a6c1498119f7091de5eb6ee2b9f97d67c1e12d36119b680344a60b272ae",
                    "mixHash" : "0x0000000000000000000000000000000000000000000000000000000000000000",
                    "nonce" : "0x0000000000000000",
                    "number" : "0x01",
                    "parentHash" : "0x17212d9de624b54d6e0826672874f9bbd27be9013b1d1a7f7daafefbf7673617",
                    "receiptTrie" : "0xe699c541e61768dafc466c3f659c1676e274fbbfb553d128394dbb3d4bc711a5",
                    "stateRoot" : "0xef57132624fa23f1ef31cf7399a200f49dacbf7940795f1b44a82cc4edc6fc1b",
                    "timestamp" : "0x03e8",
                    "transactionsTrie" : "0x9620044ae8e946568eee3a76861bcbc73e0ab6519b4ec5923f626246300d358f",
                    "uncleHash" : "0x1dcc4de8dec75d7aab85b567b6ccd41ad312451b948a7413f0a142fd40d49347"
                },
                "rlp" : "0xf90280f901f8a017212d9de624b54d6e0826672874f9bbd27be9013b1d1a7f7daafefbf7673617a01dcc4de8dec75d7aab85b567b6ccd41ad312451b948a7413f0a142fd40d49347942adc25665018aa1fe0e6bc666dac8fc2697ff9baa0ef57132624fa23f1ef31cf7399a200f49dacbf7940795f1b44a82cc4edc6fc1ba09620044ae8e946568eee3a76861bcbc73e0ab6519b4ec5923f626246300d358fa0e699c541e61768dafc466c3f659c1676e274fbbfb553d128394dbb3d4bc711a5b90100000000000000000000000000000000000000000000000000000000000000000000000000000000000000000000000000000000000000000000000000000000000000000000000000000000000000000000000000000000000000000000000000000000000000000000000000000000000000000000000000000000000000000000000000000000000000000000000000000000000000000000000000000000000000000000000000000000000000000000000000000000000000000000000000000000000000000000000000000000000000000000000000000000000000000000000000000000000000000000000000000000000000000000000000000000008302000001830f42408302dd818203e880a00000000000000000000000000000000000000000000000000000000000000000880000000000000000f882f8808001830927c094b94f5374fce5edbc8e2a8697c15331677e6ebf0b80a000000000000000000000000011000000000000000000000000000000000000001ba0161a06fa26bcfa269a465d970d4d6b37c5a4e1726ece669c37b86f3aa2332422a03f5116226c20e0b0f69c8487e57cb8fcb001cee47ff940a804f58914104569bdc0",
                "transactions" : [
                    {
                        "data" : "0x0000000000000000000000001100000000000000000000000000000000000000",
                        "gasLimit" : "0x0927c0",
                        "gasPrice" : "0x01",
                        "nonce" : "0x00",
                        "r" : "0x161a06fa26bcfa269a465d970d4d6b37c5a4e1726ece669c37b86f3aa2332422",
                        "s" : "0x3f5116226c20e0b0f69c8487e57cb8fcb001cee47ff940a804f58914104569bd",
                        "to" : "0xb94f5374fce5edbc8e2a8697c15331677e6ebf0b",
                        "v" : "0x1b",
                        "value" : "0x00"
                    }
                ],
                "uncleHeaders" : [
                ]
            }
        ],
        "genesisBlockHeader" : {
            "bloom" : "0x00000000000000000000000000000000000000000000000000000000000000000000000000000000000000000000000000000000000000000000000000000000000000000000000000000000000000000000000000000000000000000000000000000000000000000000000000000000000000000000000000000000000000000000000000000000000000000000000000000000000000000000000000000000000000000000000000000000000000000000000000000000000000000000000000000000000000000000000000000000000000000000000000000000000000000000000000000000000000000000000000000000000000000000000000000000",
            "coinbase" : "0x2adc25665018aa1fe0e6bc666dac8fc2697ff9ba",
            "difficulty" : "0x020000",
            "extraData" : "0x42",
            "gasLimit" : "0x0f4240",
            "gasUsed" : "0x00",
            "hash" : "0x17212d9de624b54d6e0826672874f9bbd27be9013b1d1a7f7daafefbf7673617",
            "mixHash" : "0x56e81f171bcc55a6ff8345e692c0f86e5b48e01b996cadc001622fb5e363b421",
            "nonce" : "0x0102030405060708",
            "number" : "0x00",
            "parentHash" : "0x0000000000000000000000000000000000000000000000000000000000000000",
            "receiptTrie" : "0x56e81f171bcc55a6ff8345e692c0f86e5b48e01b996cadc001622fb5e363b421",
            "stateRoot" : "0xefc0786cfbaedc4bed3d33f2a435e587a9fd7d91dfada91f07bc20fbe3e37753",
            "timestamp" : "0x03b6",
            "transactionsTrie" : "0x56e81f171bcc55a6ff8345e692c0f86e5b48e01b996cadc001622fb5e363b421",
            "uncleHash" : "0x1dcc4de8dec75d7aab85b567b6ccd41ad312451b948a7413f0a142fd40d49347"
        },
        "genesisRLP" : "0xf901faf901f5a00000000000000000000000000000000000000000000000000000000000000000a01dcc4de8dec75d7aab85b567b6ccd41ad312451b948a7413f0a142fd40d49347942adc25665018aa1fe0e6bc666dac8fc2697ff9baa0efc0786cfbaedc4bed3d33f2a435e587a9fd7d91dfada91f07bc20fbe3e37753a056e81f171bcc55a6ff8345e692c0f86e5b48e01b996cadc001622fb5e363b421a056e81f171bcc55a6ff8345e692c0f86e5b48e01b996cadc001622fb5e363b421b90100000000000000000000000000000000000000000000000000000000000000000000000000000000000000000000000000000000000000000000000000000000000000000000000000000000000000000000000000000000000000000000000000000000000000000000000000000000000000000000000000000000000000000000000000000000000000000000000000000000000000000000000000000000000000000000000000000000000000000000000000000000000000000000000000000000000000000000000000000000000000000000000000000000000000000000000000000000000000000000000000000000000000000000000000000000008302000080830f4240808203b642a056e81f171bcc55a6ff8345e692c0f86e5b48e01b996cadc001622fb5e363b421880102030405060708c0c0",
        "lastblockhash" : "0x07028a6c1498119f7091de5eb6ee2b9f97d67c1e12d36119b680344a60b272ae",
        "network" : "Constantinople",
        "postState" : {
            "0x1000000000000000000000000000000000000000" : {
                "balance" : "0x00",
                "code" : "0x6000600060006000600073f0000000000000000000000000000000000000005af1",
                "nonce" : "0x00",
                "storage" : {
                }
            },
            "0x1100000000000000000000000000000000000000" : {
                "balance" : "0x00",
                "code" : "0x6000602380601260003960006000f55000fe6000600060006000600073f0000000000000000000000000000000000000005af15000",
                "nonce" : "0x01",
                "storage" : {
                }
            },
            "0x2000000000000000000000000000000000000000" : {
                "balance" : "0x00",
                "code" : "0x6000600060006000600073f0000000000000000000000000000000000000005af2",
                "nonce" : "0x00",
                "storage" : {
                }
            },
            "0x2200000000000000000000000000000000000000" : {
                "balance" : "0x00",
                "code" : "0x6000602380601260003960006000f55000fe6000600060006000600073f0000000000000000000000000000000000000005af25000",
                "nonce" : "0x00",
                "storage" : {
                }
            },
            "0x2adc25665018aa1fe0e6bc666dac8fc2697ff9ba" : {
                "balance" : "0x1bc16d674ecadd81",
                "code" : "0x",
                "nonce" : "0x00",
                "storage" : {
                }
            },
            "0x3000000000000000000000000000000000000000" : {
                "balance" : "0x00",
                "code" : "0x600060006000600073f0000000000000000000000000000000000000005af45000",
                "nonce" : "0x00",
                "storage" : {
                }
            },
            "0x3300000000000000000000000000000000000000" : {
                "balance" : "0x00",
                "code" : "0x6000602180601260003960006000f55000fe600060006000600073f0000000000000000000000000000000000000005af45000",
                "nonce" : "0x00",
                "storage" : {
                }
            },
            "0x4000000000000000000000000000000000000000" : {
                "balance" : "0x00",
                "code" : "0x61010060006000600073f2000000000000000000000000000000000000005afa50600051600a55",
                "nonce" : "0x00",
                "storage" : {
                }
            },
            "0x404fec0713e9231324736352df72924fa2b48317" : {
                "balance" : "0x00",
                "code" : "0x",
                "nonce" : "0x01",
                "storage" : {
                }
            },
            "0x4400000000000000000000000000000000000000" : {
                "balance" : "0x00",
                "code" : "0x6000602880601060003960006000f5fe61010060006000600073f2000000000000000000000000000000000000005afa50600051600a5500",
                "nonce" : "0x00",
                "storage" : {
                }
            },
            "0x4d714d3c738b11337521200e35d1c452a087976f" : {
                "balance" : "0x00",
                "code" : "0x",
                "nonce" : "0x01",
                "storage" : {
                    "0x00" : "0x4d714d3c738b11337521200e35d1c452a087976f",
                    "0x02" : "0xa94f5374fce5edbc8e2a8697c15331677e6ebf0b",
                    "0x03" : "0xf000000000000000000000000000000000000000",
                    "0x06" : "0x22",
                    "0x07" : "0x01"
                }
            },
            "0xa94f5374fce5edbc8e2a8697c15331677e6ebf0b" : {
                "balance" : "0x0de0b6b3a761227f",
                "code" : "0x",
                "nonce" : "0x01",
                "storage" : {
                }
            },
            "0xb94f5374fce5edbc8e2a8697c15331677e6ebf0b" : {
                "balance" : "0x00",
                "code" : "0x600060006000600060006000355af1",
                "nonce" : "0x00",
                "storage" : {
                }
            },
            "0xf000000000000000000000000000000000000000" : {
                "balance" : "0x00",
                "code" : "0x6000602280601260003960006000f55000fe30600055303160015532600255336003553460045536600555386006553a60075500",
                "nonce" : "0x01",
                "storage" : {
                }
            },
            "0xf200000000000000000000000000000000000000" : {
                "balance" : "0x00",
                "code" : "0x6000602880601060003960006000f5fe3060005230316020523260405233606052346080523660a0523860c0523a60e0526101006000f300",
                "nonce" : "0x00",
                "storage" : {
                }
            }
        },
        "pre" : {
            "0x1000000000000000000000000000000000000000" : {
                "balance" : "0x00",
                "code" : "0x6000600060006000600073f0000000000000000000000000000000000000005af1",
                "nonce" : "0x00",
                "storage" : {
                }
            },
            "0x1100000000000000000000000000000000000000" : {
                "balance" : "0x00",
                "code" : "0x6000602380601260003960006000f55000fe6000600060006000600073f0000000000000000000000000000000000000005af15000",
                "nonce" : "0x00",
                "storage" : {
                }
            },
            "0x2000000000000000000000000000000000000000" : {
                "balance" : "0x00",
                "code" : "0x6000600060006000600073f0000000000000000000000000000000000000005af2",
                "nonce" : "0x00",
                "storage" : {
                }
            },
            "0x2200000000000000000000000000000000000000" : {
                "balance" : "0x00",
                "code" : "0x6000602380601260003960006000f55000fe6000600060006000600073f0000000000000000000000000000000000000005af25000",
                "nonce" : "0x00",
                "storage" : {
                }
            },
            "0x3000000000000000000000000000000000000000" : {
                "balance" : "0x00",
                "code" : "0x600060006000600073f0000000000000000000000000000000000000005af45000",
                "nonce" : "0x00",
                "storage" : {
                }
            },
            "0x3300000000000000000000000000000000000000" : {
                "balance" : "0x00",
                "code" : "0x6000602180601260003960006000f55000fe600060006000600073f0000000000000000000000000000000000000005af45000",
                "nonce" : "0x00",
                "storage" : {
                }
            },
            "0x4000000000000000000000000000000000000000" : {
                "balance" : "0x00",
                "code" : "0x61010060006000600073f2000000000000000000000000000000000000005afa50600051600a55",
                "nonce" : "0x00",
                "storage" : {
                }
            },
            "0x4400000000000000000000000000000000000000" : {
                "balance" : "0x00",
                "code" : "0x6000602880601060003960006000f5fe61010060006000600073f2000000000000000000000000000000000000005afa50600051600a5500",
                "nonce" : "0x00",
                "storage" : {
                }
            },
            "0xa94f5374fce5edbc8e2a8697c15331677e6ebf0b" : {
                "balance" : "0x0de0b6b3a7640000",
                "code" : "0x",
                "nonce" : "0x00",
                "storage" : {
                }
            },
            "0xb94f5374fce5edbc8e2a8697c15331677e6ebf0b" : {
                "balance" : "0x00",
                "code" : "0x600060006000600060006000355af1",
                "nonce" : "0x00",
                "storage" : {
                }
            },
            "0xf000000000000000000000000000000000000000" : {
                "balance" : "0x00",
                "code" : "0x6000602280601260003960006000f55000fe30600055303160015532600255336003553460045536600555386006553a60075500",
                "nonce" : "0x00",
                "storage" : {
                }
            },
            "0xf200000000000000000000000000000000000000" : {
                "balance" : "0x00",
                "code" : "0x6000602880601060003960006000f5fe3060005230316020523260405233606052346080523660a0523860c0523a60e0526101006000f300",
                "nonce" : "0x00",
                "storage" : {
                }
            }
        },
        "sealEngine" : "NoProof"
    },
    "create2checkFieldsInInitcode_d4g0v0_ConstantinopleFix" : {
        "_info" : {
            "comment" : "Check opcode values in create2 init code. Create2 called with different call types. CREATE2 inside CRETE2 inside CALL, CALLCODE, DELEGATECALL, STATICCALL << test values of  SENDER,address and so on.",
            "filledwith" : "testeth 1.7.0-alpha.1-20+commit.782a7283",
            "lllcversion" : "Version: 0.5.0-develop.2018.11.9+commit.9709dfe0.Linux.g++",
            "source" : "src/BlockchainTestsFiller/GeneralStateTests/stCreate2/create2checkFieldsInInitcode_d4g0v0Filler.json",
            "sourceHash" : "3dfc183ff43d6e59c9f2e2c15b046feb155618dd43780cd8fe121420d28bb1bc"
        },
        "blocks" : [
            {
                "blockHeader" : {
                    "bloom" : "0x00000000000000000000000000000000000000000000000000000000000000000000000000000000000000000000000000000000000000000000000000000000000000000000000000000000000000000000000000000000000000000000000000000000000000000000000000000000000000000000000000000000000000000000000000000000000000000000000000000000000000000000000000000000000000000000000000000000000000000000000000000000000000000000000000000000000000000000000000000000000000000000000000000000000000000000000000000000000000000000000000000000000000000000000000000000",
                    "coinbase" : "0x2adc25665018aa1fe0e6bc666dac8fc2697ff9ba",
                    "difficulty" : "0x020000",
                    "extraData" : "0x",
                    "gasLimit" : "0x0f4240",
                    "gasUsed" : "0x0315c1",
                    "hash" : "0x647c285d0e4525214e6db7a1147014e67065aebaee31234defc71eefb50b0505",
                    "mixHash" : "0x0000000000000000000000000000000000000000000000000000000000000000",
                    "nonce" : "0x0000000000000000",
                    "number" : "0x01",
                    "parentHash" : "0x17212d9de624b54d6e0826672874f9bbd27be9013b1d1a7f7daafefbf7673617",
                    "receiptTrie" : "0x6bf8e83293fe9a9012f18c133bd06efd115a9912bf8ea4d3281ea0f5916b4f9d",
                    "stateRoot" : "0x7c00147b91abd72436a07dd4c76569c0997601de39d5b48f6bc0beaeb067ec82",
                    "timestamp" : "0x03e8",
                    "transactionsTrie" : "0x9620044ae8e946568eee3a76861bcbc73e0ab6519b4ec5923f626246300d358f",
                    "uncleHash" : "0x1dcc4de8dec75d7aab85b567b6ccd41ad312451b948a7413f0a142fd40d49347"
                },
                "rlp" : "0xf90280f901f8a017212d9de624b54d6e0826672874f9bbd27be9013b1d1a7f7daafefbf7673617a01dcc4de8dec75d7aab85b567b6ccd41ad312451b948a7413f0a142fd40d49347942adc25665018aa1fe0e6bc666dac8fc2697ff9baa07c00147b91abd72436a07dd4c76569c0997601de39d5b48f6bc0beaeb067ec82a09620044ae8e946568eee3a76861bcbc73e0ab6519b4ec5923f626246300d358fa06bf8e83293fe9a9012f18c133bd06efd115a9912bf8ea4d3281ea0f5916b4f9db90100000000000000000000000000000000000000000000000000000000000000000000000000000000000000000000000000000000000000000000000000000000000000000000000000000000000000000000000000000000000000000000000000000000000000000000000000000000000000000000000000000000000000000000000000000000000000000000000000000000000000000000000000000000000000000000000000000000000000000000000000000000000000000000000000000000000000000000000000000000000000000000000000000000000000000000000000000000000000000000000000000000000000000000000000000000008302000001830f4240830315c18203e880a00000000000000000000000000000000000000000000000000000000000000000880000000000000000f882f8808001830927c094b94f5374fce5edbc8e2a8697c15331677e6ebf0b80a000000000000000000000000011000000000000000000000000000000000000001ba0161a06fa26bcfa269a465d970d4d6b37c5a4e1726ece669c37b86f3aa2332422a03f5116226c20e0b0f69c8487e57cb8fcb001cee47ff940a804f58914104569bdc0",
                "transactions" : [
                    {
                        "data" : "0x0000000000000000000000001100000000000000000000000000000000000000",
                        "gasLimit" : "0x0927c0",
                        "gasPrice" : "0x01",
                        "nonce" : "0x00",
                        "r" : "0x161a06fa26bcfa269a465d970d4d6b37c5a4e1726ece669c37b86f3aa2332422",
                        "s" : "0x3f5116226c20e0b0f69c8487e57cb8fcb001cee47ff940a804f58914104569bd",
                        "to" : "0xb94f5374fce5edbc8e2a8697c15331677e6ebf0b",
                        "v" : "0x1b",
                        "value" : "0x00"
                    }
                ],
                "uncleHeaders" : [
                ]
            }
        ],
        "genesisBlockHeader" : {
            "bloom" : "0x00000000000000000000000000000000000000000000000000000000000000000000000000000000000000000000000000000000000000000000000000000000000000000000000000000000000000000000000000000000000000000000000000000000000000000000000000000000000000000000000000000000000000000000000000000000000000000000000000000000000000000000000000000000000000000000000000000000000000000000000000000000000000000000000000000000000000000000000000000000000000000000000000000000000000000000000000000000000000000000000000000000000000000000000000000000",
            "coinbase" : "0x2adc25665018aa1fe0e6bc666dac8fc2697ff9ba",
            "difficulty" : "0x020000",
            "extraData" : "0x42",
            "gasLimit" : "0x0f4240",
            "gasUsed" : "0x00",
            "hash" : "0x17212d9de624b54d6e0826672874f9bbd27be9013b1d1a7f7daafefbf7673617",
            "mixHash" : "0x56e81f171bcc55a6ff8345e692c0f86e5b48e01b996cadc001622fb5e363b421",
            "nonce" : "0x0102030405060708",
            "number" : "0x00",
            "parentHash" : "0x0000000000000000000000000000000000000000000000000000000000000000",
            "receiptTrie" : "0x56e81f171bcc55a6ff8345e692c0f86e5b48e01b996cadc001622fb5e363b421",
            "stateRoot" : "0xefc0786cfbaedc4bed3d33f2a435e587a9fd7d91dfada91f07bc20fbe3e37753",
            "timestamp" : "0x03b6",
            "transactionsTrie" : "0x56e81f171bcc55a6ff8345e692c0f86e5b48e01b996cadc001622fb5e363b421",
            "uncleHash" : "0x1dcc4de8dec75d7aab85b567b6ccd41ad312451b948a7413f0a142fd40d49347"
        },
        "genesisRLP" : "0xf901faf901f5a00000000000000000000000000000000000000000000000000000000000000000a01dcc4de8dec75d7aab85b567b6ccd41ad312451b948a7413f0a142fd40d49347942adc25665018aa1fe0e6bc666dac8fc2697ff9baa0efc0786cfbaedc4bed3d33f2a435e587a9fd7d91dfada91f07bc20fbe3e37753a056e81f171bcc55a6ff8345e692c0f86e5b48e01b996cadc001622fb5e363b421a056e81f171bcc55a6ff8345e692c0f86e5b48e01b996cadc001622fb5e363b421b90100000000000000000000000000000000000000000000000000000000000000000000000000000000000000000000000000000000000000000000000000000000000000000000000000000000000000000000000000000000000000000000000000000000000000000000000000000000000000000000000000000000000000000000000000000000000000000000000000000000000000000000000000000000000000000000000000000000000000000000000000000000000000000000000000000000000000000000000000000000000000000000000000000000000000000000000000000000000000000000000000000000000000000000000000000000008302000080830f4240808203b642a056e81f171bcc55a6ff8345e692c0f86e5b48e01b996cadc001622fb5e363b421880102030405060708c0c0",
        "lastblockhash" : "0x647c285d0e4525214e6db7a1147014e67065aebaee31234defc71eefb50b0505",
        "network" : "ConstantinopleFix",
        "postState" : {
            "0x1000000000000000000000000000000000000000" : {
                "balance" : "0x00",
                "code" : "0x6000600060006000600073f0000000000000000000000000000000000000005af1",
                "nonce" : "0x00",
                "storage" : {
                }
            },
            "0x1100000000000000000000000000000000000000" : {
                "balance" : "0x00",
                "code" : "0x6000602380601260003960006000f55000fe6000600060006000600073f0000000000000000000000000000000000000005af15000",
                "nonce" : "0x01",
                "storage" : {
                }
            },
            "0x2000000000000000000000000000000000000000" : {
                "balance" : "0x00",
                "code" : "0x6000600060006000600073f0000000000000000000000000000000000000005af2",
                "nonce" : "0x00",
                "storage" : {
                }
            },
            "0x2200000000000000000000000000000000000000" : {
                "balance" : "0x00",
                "code" : "0x6000602380601260003960006000f55000fe6000600060006000600073f0000000000000000000000000000000000000005af25000",
                "nonce" : "0x00",
                "storage" : {
                }
            },
            "0x2adc25665018aa1fe0e6bc666dac8fc2697ff9ba" : {
                "balance" : "0x1bc16d674ecb15c1",
                "code" : "0x",
                "nonce" : "0x00",
                "storage" : {
                }
            },
            "0x3000000000000000000000000000000000000000" : {
                "balance" : "0x00",
                "code" : "0x600060006000600073f0000000000000000000000000000000000000005af45000",
                "nonce" : "0x00",
                "storage" : {
                }
            },
            "0x3300000000000000000000000000000000000000" : {
                "balance" : "0x00",
                "code" : "0x6000602180601260003960006000f55000fe600060006000600073f0000000000000000000000000000000000000005af45000",
                "nonce" : "0x00",
                "storage" : {
                }
            },
            "0x4000000000000000000000000000000000000000" : {
                "balance" : "0x00",
                "code" : "0x61010060006000600073f2000000000000000000000000000000000000005afa50600051600a55",
                "nonce" : "0x00",
                "storage" : {
                }
            },
            "0x404fec0713e9231324736352df72924fa2b48317" : {
                "balance" : "0x00",
                "code" : "0x",
                "nonce" : "0x01",
                "storage" : {
                }
            },
            "0x4400000000000000000000000000000000000000" : {
                "balance" : "0x00",
                "code" : "0x6000602880601060003960006000f5fe61010060006000600073f2000000000000000000000000000000000000005afa50600051600a5500",
                "nonce" : "0x00",
                "storage" : {
                }
            },
            "0x4d714d3c738b11337521200e35d1c452a087976f" : {
                "balance" : "0x00",
                "code" : "0x",
                "nonce" : "0x01",
                "storage" : {
                    "0x00" : "0x4d714d3c738b11337521200e35d1c452a087976f",
                    "0x02" : "0xa94f5374fce5edbc8e2a8697c15331677e6ebf0b",
                    "0x03" : "0xf000000000000000000000000000000000000000",
                    "0x06" : "0x22",
                    "0x07" : "0x01"
                }
            },
            "0xa94f5374fce5edbc8e2a8697c15331677e6ebf0b" : {
                "balance" : "0x0de0b6b3a760ea3f",
                "code" : "0x",
                "nonce" : "0x01",
                "storage" : {
                }
            },
            "0xb94f5374fce5edbc8e2a8697c15331677e6ebf0b" : {
                "balance" : "0x00",
                "code" : "0x600060006000600060006000355af1",
                "nonce" : "0x00",
                "storage" : {
                }
            },
            "0xf000000000000000000000000000000000000000" : {
                "balance" : "0x00",
                "code" : "0x6000602280601260003960006000f55000fe30600055303160015532600255336003553460045536600555386006553a60075500",
                "nonce" : "0x01",
                "storage" : {
                }
            },
            "0xf200000000000000000000000000000000000000" : {
                "balance" : "0x00",
                "code" : "0x6000602880601060003960006000f5fe3060005230316020523260405233606052346080523660a0523860c0523a60e0526101006000f300",
                "nonce" : "0x00",
                "storage" : {
                }
            }
        },
        "pre" : {
            "0x1000000000000000000000000000000000000000" : {
                "balance" : "0x00",
                "code" : "0x6000600060006000600073f0000000000000000000000000000000000000005af1",
                "nonce" : "0x00",
                "storage" : {
                }
            },
            "0x1100000000000000000000000000000000000000" : {
                "balance" : "0x00",
                "code" : "0x6000602380601260003960006000f55000fe6000600060006000600073f0000000000000000000000000000000000000005af15000",
                "nonce" : "0x00",
                "storage" : {
                }
            },
            "0x2000000000000000000000000000000000000000" : {
                "balance" : "0x00",
                "code" : "0x6000600060006000600073f0000000000000000000000000000000000000005af2",
                "nonce" : "0x00",
                "storage" : {
                }
            },
            "0x2200000000000000000000000000000000000000" : {
                "balance" : "0x00",
                "code" : "0x6000602380601260003960006000f55000fe6000600060006000600073f0000000000000000000000000000000000000005af25000",
                "nonce" : "0x00",
                "storage" : {
                }
            },
            "0x3000000000000000000000000000000000000000" : {
                "balance" : "0x00",
                "code" : "0x600060006000600073f0000000000000000000000000000000000000005af45000",
                "nonce" : "0x00",
                "storage" : {
                }
            },
            "0x3300000000000000000000000000000000000000" : {
                "balance" : "0x00",
                "code" : "0x6000602180601260003960006000f55000fe600060006000600073f0000000000000000000000000000000000000005af45000",
                "nonce" : "0x00",
                "storage" : {
                }
            },
            "0x4000000000000000000000000000000000000000" : {
                "balance" : "0x00",
                "code" : "0x61010060006000600073f2000000000000000000000000000000000000005afa50600051600a55",
                "nonce" : "0x00",
                "storage" : {
                }
            },
            "0x4400000000000000000000000000000000000000" : {
                "balance" : "0x00",
                "code" : "0x6000602880601060003960006000f5fe61010060006000600073f2000000000000000000000000000000000000005afa50600051600a5500",
                "nonce" : "0x00",
                "storage" : {
                }
            },
            "0xa94f5374fce5edbc8e2a8697c15331677e6ebf0b" : {
                "balance" : "0x0de0b6b3a7640000",
                "code" : "0x",
                "nonce" : "0x00",
                "storage" : {
                }
            },
            "0xb94f5374fce5edbc8e2a8697c15331677e6ebf0b" : {
                "balance" : "0x00",
                "code" : "0x600060006000600060006000355af1",
                "nonce" : "0x00",
                "storage" : {
                }
            },
            "0xf000000000000000000000000000000000000000" : {
                "balance" : "0x00",
                "code" : "0x6000602280601260003960006000f55000fe30600055303160015532600255336003553460045536600555386006553a60075500",
                "nonce" : "0x00",
                "storage" : {
                }
            },
            "0xf200000000000000000000000000000000000000" : {
                "balance" : "0x00",
                "code" : "0x6000602880601060003960006000f5fe3060005230316020523260405233606052346080523660a0523860c0523a60e0526101006000f300",
                "nonce" : "0x00",
                "storage" : {
                }
            }
        },
        "sealEngine" : "NoProof"
    }
}