{
    "create2checkFieldsInInitcode_d1g0v0_Constantinople" : {
        "_info" : {
            "comment" : "Check opcode values in create2 init code. Create2 called with different call types. CREATE2 inside CRETE2 inside CALL, CALLCODE, DELEGATECALL, STATICCALL << test values of  SENDER,address and so on.",
            "filledwith" : "testeth 1.7.0-alpha.1-20+commit.782a7283",
            "lllcversion" : "Version: 0.5.0-develop.2018.11.9+commit.9709dfe0.Linux.g++",
            "source" : "src/BlockchainTestsFiller/GeneralStateTests/stCreate2/create2checkFieldsInInitcode_d1g0v0Filler.json",
            "sourceHash" : "0bbe4d61a93fca08c1a972901b537d3e9acd3202a8a51a9cf634930415efae0f"
        },
        "blocks" : [
            {
                "blockHeader" : {
                    "bloom" : "0x00000000000000000000000000000000000000000000000000000000000000000000000000000000000000000000000000000000000000000000000000000000000000000000000000000000000000000000000000000000000000000000000000000000000000000000000000000000000000000000000000000000000000000000000000000000000000000000000000000000000000000000000000000000000000000000000000000000000000000000000000000000000000000000000000000000000000000000000000000000000000000000000000000000000000000000000000000000000000000000000000000000000000000000000000000000",
                    "coinbase" : "0x2adc25665018aa1fe0e6bc666dac8fc2697ff9ba",
                    "difficulty" : "0x020000",
                    "extraData" : "0x",
                    "gasLimit" : "0x0f4240",
                    "gasUsed" : "0x02604d",
                    "hash" : "0xa07a6dfc33721523456c53367fb158579d7f90a3862bcc8b07e74c14b01ccb8d",
                    "mixHash" : "0x0000000000000000000000000000000000000000000000000000000000000000",
                    "nonce" : "0x0000000000000000",
                    "number" : "0x01",
                    "parentHash" : "0x17212d9de624b54d6e0826672874f9bbd27be9013b1d1a7f7daafefbf7673617",
                    "receiptTrie" : "0xc5ece0f0bfd796003018dd370670525a341265cb81a901aa5acb21f67be46154",
                    "stateRoot" : "0xd8b3c1a76d339585a7a8b4317cd2a9500958966d9142408b1ded73f174ecdd84",
                    "timestamp" : "0x03e8",
                    "transactionsTrie" : "0x080df95cebd6ddf3ee5a8780cafc6ef6118437ae91979966334dfd2e02522446",
                    "uncleHash" : "0x1dcc4de8dec75d7aab85b567b6ccd41ad312451b948a7413f0a142fd40d49347"
                },
                "rlp" : "0xf90280f901f8a017212d9de624b54d6e0826672874f9bbd27be9013b1d1a7f7daafefbf7673617a01dcc4de8dec75d7aab85b567b6ccd41ad312451b948a7413f0a142fd40d49347942adc25665018aa1fe0e6bc666dac8fc2697ff9baa0d8b3c1a76d339585a7a8b4317cd2a9500958966d9142408b1ded73f174ecdd84a0080df95cebd6ddf3ee5a8780cafc6ef6118437ae91979966334dfd2e02522446a0c5ece0f0bfd796003018dd370670525a341265cb81a901aa5acb21f67be46154b90100000000000000000000000000000000000000000000000000000000000000000000000000000000000000000000000000000000000000000000000000000000000000000000000000000000000000000000000000000000000000000000000000000000000000000000000000000000000000000000000000000000000000000000000000000000000000000000000000000000000000000000000000000000000000000000000000000000000000000000000000000000000000000000000000000000000000000000000000000000000000000000000000000000000000000000000000000000000000000000000000000000000000000000000000000000008302000001830f42408302604d8203e880a00000000000000000000000000000000000000000000000000000000000000000880000000000000000f882f8808001830927c094b94f5374fce5edbc8e2a8697c15331677e6ebf0b80a000000000000000000000000020000000000000000000000000000000000000001ba0369f64558f261bfb89a1b99b6461aed890fc3abf3e700dd19cbe51e26865474ca01ecaeda5ba03383347c84076ac3f108992809bf9488e0d1ca688dca201409635c0",
                "transactions" : [
                    {
                        "data" : "0x0000000000000000000000002000000000000000000000000000000000000000",
                        "gasLimit" : "0x0927c0",
                        "gasPrice" : "0x01",
                        "nonce" : "0x00",
                        "r" : "0x369f64558f261bfb89a1b99b6461aed890fc3abf3e700dd19cbe51e26865474c",
                        "s" : "0x1ecaeda5ba03383347c84076ac3f108992809bf9488e0d1ca688dca201409635",
                        "to" : "0xb94f5374fce5edbc8e2a8697c15331677e6ebf0b",
                        "v" : "0x1b",
                        "value" : "0x00"
                    }
                ],
                "uncleHeaders" : [
                ]
            }
        ],
        "genesisBlockHeader" : {
            "bloom" : "0x00000000000000000000000000000000000000000000000000000000000000000000000000000000000000000000000000000000000000000000000000000000000000000000000000000000000000000000000000000000000000000000000000000000000000000000000000000000000000000000000000000000000000000000000000000000000000000000000000000000000000000000000000000000000000000000000000000000000000000000000000000000000000000000000000000000000000000000000000000000000000000000000000000000000000000000000000000000000000000000000000000000000000000000000000000000",
            "coinbase" : "0x2adc25665018aa1fe0e6bc666dac8fc2697ff9ba",
            "difficulty" : "0x020000",
            "extraData" : "0x42",
            "gasLimit" : "0x0f4240",
            "gasUsed" : "0x00",
            "hash" : "0x17212d9de624b54d6e0826672874f9bbd27be9013b1d1a7f7daafefbf7673617",
            "mixHash" : "0x56e81f171bcc55a6ff8345e692c0f86e5b48e01b996cadc001622fb5e363b421",
            "nonce" : "0x0102030405060708",
            "number" : "0x00",
            "parentHash" : "0x0000000000000000000000000000000000000000000000000000000000000000",
            "receiptTrie" : "0x56e81f171bcc55a6ff8345e692c0f86e5b48e01b996cadc001622fb5e363b421",
            "stateRoot" : "0xefc0786cfbaedc4bed3d33f2a435e587a9fd7d91dfada91f07bc20fbe3e37753",
            "timestamp" : "0x03b6",
            "transactionsTrie" : "0x56e81f171bcc55a6ff8345e692c0f86e5b48e01b996cadc001622fb5e363b421",
            "uncleHash" : "0x1dcc4de8dec75d7aab85b567b6ccd41ad312451b948a7413f0a142fd40d49347"
        },
        "genesisRLP" : "0xf901faf901f5a00000000000000000000000000000000000000000000000000000000000000000a01dcc4de8dec75d7aab85b567b6ccd41ad312451b948a7413f0a142fd40d49347942adc25665018aa1fe0e6bc666dac8fc2697ff9baa0efc0786cfbaedc4bed3d33f2a435e587a9fd7d91dfada91f07bc20fbe3e37753a056e81f171bcc55a6ff8345e692c0f86e5b48e01b996cadc001622fb5e363b421a056e81f171bcc55a6ff8345e692c0f86e5b48e01b996cadc001622fb5e363b421b90100000000000000000000000000000000000000000000000000000000000000000000000000000000000000000000000000000000000000000000000000000000000000000000000000000000000000000000000000000000000000000000000000000000000000000000000000000000000000000000000000000000000000000000000000000000000000000000000000000000000000000000000000000000000000000000000000000000000000000000000000000000000000000000000000000000000000000000000000000000000000000000000000000000000000000000000000000000000000000000000000000000000000000000000000000000008302000080830f4240808203b642a056e81f171bcc55a6ff8345e692c0f86e5b48e01b996cadc001622fb5e363b421880102030405060708c0c0",
        "lastblockhash" : "0xa07a6dfc33721523456c53367fb158579d7f90a3862bcc8b07e74c14b01ccb8d",
        "network" : "Constantinople",
        "postState" : {
            "0x1000000000000000000000000000000000000000" : {
                "balance" : "0x00",
                "code" : "0x6000600060006000600073f0000000000000000000000000000000000000005af1",
                "nonce" : "0x00",
                "storage" : {
                }
            },
            "0x1100000000000000000000000000000000000000" : {
                "balance" : "0x00",
                "code" : "0x6000602380601260003960006000f55000fe6000600060006000600073f0000000000000000000000000000000000000005af15000",
                "nonce" : "0x00",
                "storage" : {
                }
            },
            "0x2000000000000000000000000000000000000000" : {
                "balance" : "0x00",
                "code" : "0x6000600060006000600073f0000000000000000000000000000000000000005af2",
                "nonce" : "0x01",
                "storage" : {
                }
            },
            "0x2200000000000000000000000000000000000000" : {
                "balance" : "0x00",
                "code" : "0x6000602380601260003960006000f55000fe6000600060006000600073f0000000000000000000000000000000000000005af25000",
                "nonce" : "0x00",
                "storage" : {
                }
            },
            "0x2adc25665018aa1fe0e6bc666dac8fc2697ff9ba" : {
                "balance" : "0x1bc16d674eca604d",
                "code" : "0x",
                "nonce" : "0x00",
                "storage" : {
                }
            },
            "0x3000000000000000000000000000000000000000" : {
                "balance" : "0x00",
                "code" : "0x600060006000600073f0000000000000000000000000000000000000005af45000",
                "nonce" : "0x00",
                "storage" : {
                }
            },
            "0x3300000000000000000000000000000000000000" : {
                "balance" : "0x00",
                "code" : "0x6000602180601260003960006000f55000fe600060006000600073f0000000000000000000000000000000000000005af45000",
                "nonce" : "0x00",
                "storage" : {
                }
            },
            "0x4000000000000000000000000000000000000000" : {
                "balance" : "0x00",
                "code" : "0x61010060006000600073f2000000000000000000000000000000000000005afa50600051600a55",
                "nonce" : "0x00",
                "storage" : {
                }
            },
            "0x4400000000000000000000000000000000000000" : {
                "balance" : "0x00",
                "code" : "0x6000602880601060003960006000f5fe61010060006000600073f2000000000000000000000000000000000000005afa50600051600a5500",
                "nonce" : "0x00",
                "storage" : {
                }
            },
            "0x5a0015b27943d576fce2a4e604787235d79fa372" : {
                "balance" : "0x00",
                "code" : "0x",
                "nonce" : "0x01",
                "storage" : {
                    "0x00" : "0x5a0015b27943d576fce2a4e604787235d79fa372",
                    "0x02" : "0xa94f5374fce5edbc8e2a8697c15331677e6ebf0b",
                    "0x03" : "0x2000000000000000000000000000000000000000",
                    "0x06" : "0x22",
                    "0x07" : "0x01"
                }
            },
            "0xa94f5374fce5edbc8e2a8697c15331677e6ebf0b" : {
                "balance" : "0x0de0b6b3a7619fb3",
                "code" : "0x",
                "nonce" : "0x01",
                "storage" : {
                }
            },
            "0xb94f5374fce5edbc8e2a8697c15331677e6ebf0b" : {
                "balance" : "0x00",
                "code" : "0x600060006000600060006000355af1",
                "nonce" : "0x00",
                "storage" : {
                }
            },
            "0xf000000000000000000000000000000000000000" : {
                "balance" : "0x00",
                "code" : "0x6000602280601260003960006000f55000fe30600055303160015532600255336003553460045536600555386006553a60075500",
                "nonce" : "0x00",
                "storage" : {
                }
            },
            "0xf200000000000000000000000000000000000000" : {
                "balance" : "0x00",
                "code" : "0x6000602880601060003960006000f5fe3060005230316020523260405233606052346080523660a0523860c0523a60e0526101006000f300",
                "nonce" : "0x00",
                "storage" : {
                }
            }
        },
        "pre" : {
            "0x1000000000000000000000000000000000000000" : {
                "balance" : "0x00",
                "code" : "0x6000600060006000600073f0000000000000000000000000000000000000005af1",
                "nonce" : "0x00",
                "storage" : {
                }
            },
            "0x1100000000000000000000000000000000000000" : {
                "balance" : "0x00",
                "code" : "0x6000602380601260003960006000f55000fe6000600060006000600073f0000000000000000000000000000000000000005af15000",
                "nonce" : "0x00",
                "storage" : {
                }
            },
            "0x2000000000000000000000000000000000000000" : {
                "balance" : "0x00",
                "code" : "0x6000600060006000600073f0000000000000000000000000000000000000005af2",
                "nonce" : "0x00",
                "storage" : {
                }
            },
            "0x2200000000000000000000000000000000000000" : {
                "balance" : "0x00",
                "code" : "0x6000602380601260003960006000f55000fe6000600060006000600073f0000000000000000000000000000000000000005af25000",
                "nonce" : "0x00",
                "storage" : {
                }
            },
            "0x3000000000000000000000000000000000000000" : {
                "balance" : "0x00",
                "code" : "0x600060006000600073f0000000000000000000000000000000000000005af45000",
                "nonce" : "0x00",
                "storage" : {
                }
            },
            "0x3300000000000000000000000000000000000000" : {
                "balance" : "0x00",
                "code" : "0x6000602180601260003960006000f55000fe600060006000600073f0000000000000000000000000000000000000005af45000",
                "nonce" : "0x00",
                "storage" : {
                }
            },
            "0x4000000000000000000000000000000000000000" : {
                "balance" : "0x00",
                "code" : "0x61010060006000600073f2000000000000000000000000000000000000005afa50600051600a55",
                "nonce" : "0x00",
                "storage" : {
                }
            },
            "0x4400000000000000000000000000000000000000" : {
                "balance" : "0x00",
                "code" : "0x6000602880601060003960006000f5fe61010060006000600073f2000000000000000000000000000000000000005afa50600051600a5500",
                "nonce" : "0x00",
                "storage" : {
                }
            },
            "0xa94f5374fce5edbc8e2a8697c15331677e6ebf0b" : {
                "balance" : "0x0de0b6b3a7640000",
                "code" : "0x",
                "nonce" : "0x00",
                "storage" : {
                }
            },
            "0xb94f5374fce5edbc8e2a8697c15331677e6ebf0b" : {
                "balance" : "0x00",
                "code" : "0x600060006000600060006000355af1",
                "nonce" : "0x00",
                "storage" : {
                }
            },
            "0xf000000000000000000000000000000000000000" : {
                "balance" : "0x00",
                "code" : "0x6000602280601260003960006000f55000fe30600055303160015532600255336003553460045536600555386006553a60075500",
                "nonce" : "0x00",
                "storage" : {
                }
            },
            "0xf200000000000000000000000000000000000000" : {
                "balance" : "0x00",
                "code" : "0x6000602880601060003960006000f5fe3060005230316020523260405233606052346080523660a0523860c0523a60e0526101006000f300",
                "nonce" : "0x00",
                "storage" : {
                }
            }
        },
        "sealEngine" : "NoProof"
    },
    "create2checkFieldsInInitcode_d1g0v0_ConstantinopleFix" : {
        "_info" : {
            "comment" : "Check opcode values in create2 init code. Create2 called with different call types. CREATE2 inside CRETE2 inside CALL, CALLCODE, DELEGATECALL, STATICCALL << test values of  SENDER,address and so on.",
            "filledwith" : "testeth 1.7.0-alpha.1-20+commit.782a7283",
            "lllcversion" : "Version: 0.5.0-develop.2018.11.9+commit.9709dfe0.Linux.g++",
            "source" : "src/BlockchainTestsFiller/GeneralStateTests/stCreate2/create2checkFieldsInInitcode_d1g0v0Filler.json",
            "sourceHash" : "0bbe4d61a93fca08c1a972901b537d3e9acd3202a8a51a9cf634930415efae0f"
        },
        "blocks" : [
            {
                "blockHeader" : {
                    "bloom" : "0x00000000000000000000000000000000000000000000000000000000000000000000000000000000000000000000000000000000000000000000000000000000000000000000000000000000000000000000000000000000000000000000000000000000000000000000000000000000000000000000000000000000000000000000000000000000000000000000000000000000000000000000000000000000000000000000000000000000000000000000000000000000000000000000000000000000000000000000000000000000000000000000000000000000000000000000000000000000000000000000000000000000000000000000000000000000",
                    "coinbase" : "0x2adc25665018aa1fe0e6bc666dac8fc2697ff9ba",
                    "difficulty" : "0x020000",
                    "extraData" : "0x",
                    "gasLimit" : "0x0f4240",
                    "gasUsed" : "0x02988d",
                    "hash" : "0x3bf8ec87ee18755c56f2721310d834dfc09814c2bb88c150d92cb21fc0346015",
                    "mixHash" : "0x0000000000000000000000000000000000000000000000000000000000000000",
                    "nonce" : "0x0000000000000000",
                    "number" : "0x01",
                    "parentHash" : "0x17212d9de624b54d6e0826672874f9bbd27be9013b1d1a7f7daafefbf7673617",
                    "receiptTrie" : "0x9ab704a689f0505752558d682d1917e21af48c2b5cb89aababbb868e438ee2bd",
                    "stateRoot" : "0x716aeccadf8af01db5502b35fa2ce6ec4093abd25183c5aea973742914770983",
                    "timestamp" : "0x03e8",
                    "transactionsTrie" : "0x080df95cebd6ddf3ee5a8780cafc6ef6118437ae91979966334dfd2e02522446",
                    "uncleHash" : "0x1dcc4de8dec75d7aab85b567b6ccd41ad312451b948a7413f0a142fd40d49347"
                },
                "rlp" : "0xf90280f901f8a017212d9de624b54d6e0826672874f9bbd27be9013b1d1a7f7daafefbf7673617a01dcc4de8dec75d7aab85b567b6ccd41ad312451b948a7413f0a142fd40d49347942adc25665018aa1fe0e6bc666dac8fc2697ff9baa0716aeccadf8af01db5502b35fa2ce6ec4093abd25183c5aea973742914770983a0080df95cebd6ddf3ee5a8780cafc6ef6118437ae91979966334dfd2e02522446a09ab704a689f0505752558d682d1917e21af48c2b5cb89aababbb868e438ee2bdb90100000000000000000000000000000000000000000000000000000000000000000000000000000000000000000000000000000000000000000000000000000000000000000000000000000000000000000000000000000000000000000000000000000000000000000000000000000000000000000000000000000000000000000000000000000000000000000000000000000000000000000000000000000000000000000000000000000000000000000000000000000000000000000000000000000000000000000000000000000000000000000000000000000000000000000000000000000000000000000000000000000000000000000000000000000000008302000001830f42408302988d8203e880a00000000000000000000000000000000000000000000000000000000000000000880000000000000000f882f8808001830927c094b94f5374fce5edbc8e2a8697c15331677e6ebf0b80a000000000000000000000000020000000000000000000000000000000000000001ba0369f64558f261bfb89a1b99b6461aed890fc3abf3e700dd19cbe51e26865474ca01ecaeda5ba03383347c84076ac3f108992809bf9488e0d1ca688dca201409635c0",
                "transactions" : [
                    {
                        "data" : "0x0000000000000000000000002000000000000000000000000000000000000000",
                        "gasLimit" : "0x0927c0",
                        "gasPrice" : "0x01",
                        "nonce" : "0x00",
                        "r" : "0x369f64558f261bfb89a1b99b6461aed890fc3abf3e700dd19cbe51e26865474c",
                        "s" : "0x1ecaeda5ba03383347c84076ac3f108992809bf9488e0d1ca688dca201409635",
                        "to" : "0xb94f5374fce5edbc8e2a8697c15331677e6ebf0b",
                        "v" : "0x1b",
                        "value" : "0x00"
                    }
                ],
                "uncleHeaders" : [
                ]
            }
        ],
        "genesisBlockHeader" : {
            "bloom" : "0x00000000000000000000000000000000000000000000000000000000000000000000000000000000000000000000000000000000000000000000000000000000000000000000000000000000000000000000000000000000000000000000000000000000000000000000000000000000000000000000000000000000000000000000000000000000000000000000000000000000000000000000000000000000000000000000000000000000000000000000000000000000000000000000000000000000000000000000000000000000000000000000000000000000000000000000000000000000000000000000000000000000000000000000000000000000",
            "coinbase" : "0x2adc25665018aa1fe0e6bc666dac8fc2697ff9ba",
            "difficulty" : "0x020000",
            "extraData" : "0x42",
            "gasLimit" : "0x0f4240",
            "gasUsed" : "0x00",
            "hash" : "0x17212d9de624b54d6e0826672874f9bbd27be9013b1d1a7f7daafefbf7673617",
            "mixHash" : "0x56e81f171bcc55a6ff8345e692c0f86e5b48e01b996cadc001622fb5e363b421",
            "nonce" : "0x0102030405060708",
            "number" : "0x00",
            "parentHash" : "0x0000000000000000000000000000000000000000000000000000000000000000",
            "receiptTrie" : "0x56e81f171bcc55a6ff8345e692c0f86e5b48e01b996cadc001622fb5e363b421",
            "stateRoot" : "0xefc0786cfbaedc4bed3d33f2a435e587a9fd7d91dfada91f07bc20fbe3e37753",
            "timestamp" : "0x03b6",
            "transactionsTrie" : "0x56e81f171bcc55a6ff8345e692c0f86e5b48e01b996cadc001622fb5e363b421",
            "uncleHash" : "0x1dcc4de8dec75d7aab85b567b6ccd41ad312451b948a7413f0a142fd40d49347"
        },
        "genesisRLP" : "0xf901faf901f5a00000000000000000000000000000000000000000000000000000000000000000a01dcc4de8dec75d7aab85b567b6ccd41ad312451b948a7413f0a142fd40d49347942adc25665018aa1fe0e6bc666dac8fc2697ff9baa0efc0786cfbaedc4bed3d33f2a435e587a9fd7d91dfada91f07bc20fbe3e37753a056e81f171bcc55a6ff8345e692c0f86e5b48e01b996cadc001622fb5e363b421a056e81f171bcc55a6ff8345e692c0f86e5b48e01b996cadc001622fb5e363b421b90100000000000000000000000000000000000000000000000000000000000000000000000000000000000000000000000000000000000000000000000000000000000000000000000000000000000000000000000000000000000000000000000000000000000000000000000000000000000000000000000000000000000000000000000000000000000000000000000000000000000000000000000000000000000000000000000000000000000000000000000000000000000000000000000000000000000000000000000000000000000000000000000000000000000000000000000000000000000000000000000000000000000000000000000000000000008302000080830f4240808203b642a056e81f171bcc55a6ff8345e692c0f86e5b48e01b996cadc001622fb5e363b421880102030405060708c0c0",
        "lastblockhash" : "0x3bf8ec87ee18755c56f2721310d834dfc09814c2bb88c150d92cb21fc0346015",
        "network" : "ConstantinopleFix",
        "postState" : {
            "0x1000000000000000000000000000000000000000" : {
                "balance" : "0x00",
                "code" : "0x6000600060006000600073f0000000000000000000000000000000000000005af1",
                "nonce" : "0x00",
                "storage" : {
                }
            },
            "0x1100000000000000000000000000000000000000" : {
                "balance" : "0x00",
                "code" : "0x6000602380601260003960006000f55000fe6000600060006000600073f0000000000000000000000000000000000000005af15000",
                "nonce" : "0x00",
                "storage" : {
                }
            },
            "0x2000000000000000000000000000000000000000" : {
                "balance" : "0x00",
                "code" : "0x6000600060006000600073f0000000000000000000000000000000000000005af2",
                "nonce" : "0x01",
                "storage" : {
                }
            },
            "0x2200000000000000000000000000000000000000" : {
                "balance" : "0x00",
                "code" : "0x6000602380601260003960006000f55000fe6000600060006000600073f0000000000000000000000000000000000000005af25000",
                "nonce" : "0x00",
                "storage" : {
                }
            },
            "0x2adc25665018aa1fe0e6bc666dac8fc2697ff9ba" : {
                "balance" : "0x1bc16d674eca988d",
                "code" : "0x",
                "nonce" : "0x00",
                "storage" : {
                }
            },
            "0x3000000000000000000000000000000000000000" : {
                "balance" : "0x00",
                "code" : "0x600060006000600073f0000000000000000000000000000000000000005af45000",
                "nonce" : "0x00",
                "storage" : {
                }
            },
            "0x3300000000000000000000000000000000000000" : {
                "balance" : "0x00",
                "code" : "0x6000602180601260003960006000f55000fe600060006000600073f0000000000000000000000000000000000000005af45000",
                "nonce" : "0x00",
                "storage" : {
                }
            },
            "0x4000000000000000000000000000000000000000" : {
                "balance" : "0x00",
                "code" : "0x61010060006000600073f2000000000000000000000000000000000000005afa50600051600a55",
                "nonce" : "0x00",
                "storage" : {
                }
            },
            "0x4400000000000000000000000000000000000000" : {
                "balance" : "0x00",
                "code" : "0x6000602880601060003960006000f5fe61010060006000600073f2000000000000000000000000000000000000005afa50600051600a5500",
                "nonce" : "0x00",
                "storage" : {
                }
            },
            "0x5a0015b27943d576fce2a4e604787235d79fa372" : {
                "balance" : "0x00",
                "code" : "0x",
                "nonce" : "0x01",
                "storage" : {
                    "0x00" : "0x5a0015b27943d576fce2a4e604787235d79fa372",
                    "0x02" : "0xa94f5374fce5edbc8e2a8697c15331677e6ebf0b",
                    "0x03" : "0x2000000000000000000000000000000000000000",
                    "0x06" : "0x22",
                    "0x07" : "0x01"
                }
            },
            "0xa94f5374fce5edbc8e2a8697c15331677e6ebf0b" : {
                "balance" : "0x0de0b6b3a7616773",
                "code" : "0x",
                "nonce" : "0x01",
                "storage" : {
                }
            },
            "0xb94f5374fce5edbc8e2a8697c15331677e6ebf0b" : {
                "balance" : "0x00",
                "code" : "0x600060006000600060006000355af1",
                "nonce" : "0x00",
                "storage" : {
                }
            },
            "0xf000000000000000000000000000000000000000" : {
                "balance" : "0x00",
                "code" : "0x6000602280601260003960006000f55000fe30600055303160015532600255336003553460045536600555386006553a60075500",
                "nonce" : "0x00",
                "storage" : {
                }
            },
            "0xf200000000000000000000000000000000000000" : {
                "balance" : "0x00",
                "code" : "0x6000602880601060003960006000f5fe3060005230316020523260405233606052346080523660a0523860c0523a60e0526101006000f300",
                "nonce" : "0x00",
                "storage" : {
                }
            }
        },
        "pre" : {
            "0x1000000000000000000000000000000000000000" : {
                "balance" : "0x00",
                "code" : "0x6000600060006000600073f0000000000000000000000000000000000000005af1",
                "nonce" : "0x00",
                "storage" : {
                }
            },
            "0x1100000000000000000000000000000000000000" : {
                "balance" : "0x00",
                "code" : "0x6000602380601260003960006000f55000fe6000600060006000600073f0000000000000000000000000000000000000005af15000",
                "nonce" : "0x00",
                "storage" : {
                }
            },
            "0x2000000000000000000000000000000000000000" : {
                "balance" : "0x00",
                "code" : "0x6000600060006000600073f0000000000000000000000000000000000000005af2",
                "nonce" : "0x00",
                "storage" : {
                }
            },
            "0x2200000000000000000000000000000000000000" : {
                "balance" : "0x00",
                "code" : "0x6000602380601260003960006000f55000fe6000600060006000600073f0000000000000000000000000000000000000005af25000",
                "nonce" : "0x00",
                "storage" : {
                }
            },
            "0x3000000000000000000000000000000000000000" : {
                "balance" : "0x00",
                "code" : "0x600060006000600073f0000000000000000000000000000000000000005af45000",
                "nonce" : "0x00",
                "storage" : {
                }
            },
            "0x3300000000000000000000000000000000000000" : {
                "balance" : "0x00",
                "code" : "0x6000602180601260003960006000f55000fe600060006000600073f0000000000000000000000000000000000000005af45000",
                "nonce" : "0x00",
                "storage" : {
                }
            },
            "0x4000000000000000000000000000000000000000" : {
                "balance" : "0x00",
                "code" : "0x61010060006000600073f2000000000000000000000000000000000000005afa50600051600a55",
                "nonce" : "0x00",
                "storage" : {
                }
            },
            "0x4400000000000000000000000000000000000000" : {
                "balance" : "0x00",
                "code" : "0x6000602880601060003960006000f5fe61010060006000600073f2000000000000000000000000000000000000005afa50600051600a5500",
                "nonce" : "0x00",
                "storage" : {
                }
            },
            "0xa94f5374fce5edbc8e2a8697c15331677e6ebf0b" : {
                "balance" : "0x0de0b6b3a7640000",
                "code" : "0x",
                "nonce" : "0x00",
                "storage" : {
                }
            },
            "0xb94f5374fce5edbc8e2a8697c15331677e6ebf0b" : {
                "balance" : "0x00",
                "code" : "0x600060006000600060006000355af1",
                "nonce" : "0x00",
                "storage" : {
                }
            },
            "0xf000000000000000000000000000000000000000" : {
                "balance" : "0x00",
                "code" : "0x6000602280601260003960006000f55000fe30600055303160015532600255336003553460045536600555386006553a60075500",
                "nonce" : "0x00",
                "storage" : {
                }
            },
            "0xf200000000000000000000000000000000000000" : {
                "balance" : "0x00",
                "code" : "0x6000602880601060003960006000f5fe3060005230316020523260405233606052346080523660a0523860c0523a60e0526101006000f300",
                "nonce" : "0x00",
                "storage" : {
                }
            }
        },
        "sealEngine" : "NoProof"
    }
}