{
    "create2collisionSelfdestructed_d0g0v0_Byzantium" : {
        "_info" : {
            "comment" : "collision with address that has been selfdestructed in the same transaction",
            "filledwith" : "testeth 1.7.0-alpha.1-20+commit.782a7283",
            "lllcversion" : "Version: 0.5.0-develop.2018.11.9+commit.9709dfe0.Linux.g++",
            "source" : "src/BlockchainTestsFiller/GeneralStateTests/stCreate2/create2collisionSelfdestructed_d0g0v0Filler.json",
            "sourceHash" : "869abce9cb10777c0df4c39d70bfa2a7cca9a8108b30ce2939e677e86e4b66f3"
        },
        "blocks" : [
            {
                "blockHeader" : {
                    "bloom" : "0x00000000000000000000000000000000000000000000000000000000000000000000000000000000000000000000000000000000000000000000000000000000000000000000000000000000000000000000000000000000000000000000000000000000000000000000000000000000000000000000000000000000000000000000000000000000000000000000000000000000000000000000000000000000000000000000000000000000000000000000000000000000000000000000000000000000000000000000000000000000000000000000000000000000000000000000000000000000000000000000000000000000000000000000000000000000",
                    "coinbase" : "0x2adc25665018aa1fe0e6bc666dac8fc2697ff9ba",
                    "difficulty" : "0x020000",
                    "extraData" : "0x",
                    "gasLimit" : "0x0f4240",
                    "gasUsed" : "0x061a80",
                    "hash" : "0xf4506629f36ff59dfc363382fa6b2282d974f98bba8b4147613aefe7327b8f80",
                    "mixHash" : "0x0000000000000000000000000000000000000000000000000000000000000000",
                    "nonce" : "0x0000000000000000",
                    "number" : "0x01",
                    "parentHash" : "0x9e403072017b50f3e1bf4af66a01ace806703dc9e22f9edb5041a2f0a197771e",
                    "receiptTrie" : "0xba9991e573821b0c234e361e68d2fe4b0fc940f8380d61fc18ee6ceb963b7094",
                    "stateRoot" : "0x43ecc522a3fc260cb9bf3ad88eebdd082a81c5859441419825ac49c594131b56",
                    "timestamp" : "0x03e8",
                    "transactionsTrie" : "0x2134cdbcdb539627c5697089823ee175ecb1ac50e650dd09b7a30620cba43929",
                    "uncleHash" : "0x1dcc4de8dec75d7aab85b567b6ccd41ad312451b948a7413f0a142fd40d49347"
                },
                "rlp" : "0xf90279f901f8a09e403072017b50f3e1bf4af66a01ace806703dc9e22f9edb5041a2f0a197771ea01dcc4de8dec75d7aab85b567b6ccd41ad312451b948a7413f0a142fd40d49347942adc25665018aa1fe0e6bc666dac8fc2697ff9baa043ecc522a3fc260cb9bf3ad88eebdd082a81c5859441419825ac49c594131b56a02134cdbcdb539627c5697089823ee175ecb1ac50e650dd09b7a30620cba43929a0ba9991e573821b0c234e361e68d2fe4b0fc940f8380d61fc18ee6ceb963b7094b90100000000000000000000000000000000000000000000000000000000000000000000000000000000000000000000000000000000000000000000000000000000000000000000000000000000000000000000000000000000000000000000000000000000000000000000000000000000000000000000000000000000000000000000000000000000000000000000000000000000000000000000000000000000000000000000000000000000000000000000000000000000000000000000000000000000000000000000000000000000000000000000000000000000000000000000000000000000000000000000000000000000000000000000000000000000008302000001830f424083061a808203e880a00000000000000000000000000000000000000000000000000000000000000000880000000000000000f87bf879800183061a808001ad6000600060006000600073e2b35478fdd26477cc576dd906e6277761246a3c61c350f1506000600060006000f51ca0e2d75d08fb681b15b09a794468c0f20f87807fdf00989e528ac753792fe7ab96a032326b6cc043975a6e4a8a02c1a5477fbf3f26e49c3a6287913d155979284368c0",
                "transactions" : [
                    {
                        "data" : "0x6000600060006000600073e2b35478fdd26477cc576dd906e6277761246a3c61c350f1506000600060006000f5",
                        "gasLimit" : "0x061a80",
                        "gasPrice" : "0x01",
                        "nonce" : "0x00",
                        "r" : "0xe2d75d08fb681b15b09a794468c0f20f87807fdf00989e528ac753792fe7ab96",
                        "s" : "0x32326b6cc043975a6e4a8a02c1a5477fbf3f26e49c3a6287913d155979284368",
                        "to" : "",
                        "v" : "0x1c",
                        "value" : "0x01"
                    }
                ],
                "uncleHeaders" : [
                ]
            }
        ],
        "genesisBlockHeader" : {
            "bloom" : "0x00000000000000000000000000000000000000000000000000000000000000000000000000000000000000000000000000000000000000000000000000000000000000000000000000000000000000000000000000000000000000000000000000000000000000000000000000000000000000000000000000000000000000000000000000000000000000000000000000000000000000000000000000000000000000000000000000000000000000000000000000000000000000000000000000000000000000000000000000000000000000000000000000000000000000000000000000000000000000000000000000000000000000000000000000000000",
            "coinbase" : "0x2adc25665018aa1fe0e6bc666dac8fc2697ff9ba",
            "difficulty" : "0x020000",
            "extraData" : "0x42",
            "gasLimit" : "0x0f4240",
            "gasUsed" : "0x00",
            "hash" : "0x9e403072017b50f3e1bf4af66a01ace806703dc9e22f9edb5041a2f0a197771e",
            "mixHash" : "0x56e81f171bcc55a6ff8345e692c0f86e5b48e01b996cadc001622fb5e363b421",
            "nonce" : "0x0102030405060708",
            "number" : "0x00",
            "parentHash" : "0x0000000000000000000000000000000000000000000000000000000000000000",
            "receiptTrie" : "0x56e81f171bcc55a6ff8345e692c0f86e5b48e01b996cadc001622fb5e363b421",
            "stateRoot" : "0x0edf4ab8df4ed5fbf6225445f8a37a4176d466fe14a0b485c6ddcd1a7968494e",
            "timestamp" : "0x03b6",
            "transactionsTrie" : "0x56e81f171bcc55a6ff8345e692c0f86e5b48e01b996cadc001622fb5e363b421",
            "uncleHash" : "0x1dcc4de8dec75d7aab85b567b6ccd41ad312451b948a7413f0a142fd40d49347"
        },
        "genesisRLP" : "0xf901faf901f5a00000000000000000000000000000000000000000000000000000000000000000a01dcc4de8dec75d7aab85b567b6ccd41ad312451b948a7413f0a142fd40d49347942adc25665018aa1fe0e6bc666dac8fc2697ff9baa00edf4ab8df4ed5fbf6225445f8a37a4176d466fe14a0b485c6ddcd1a7968494ea056e81f171bcc55a6ff8345e692c0f86e5b48e01b996cadc001622fb5e363b421a056e81f171bcc55a6ff8345e692c0f86e5b48e01b996cadc001622fb5e363b421b90100000000000000000000000000000000000000000000000000000000000000000000000000000000000000000000000000000000000000000000000000000000000000000000000000000000000000000000000000000000000000000000000000000000000000000000000000000000000000000000000000000000000000000000000000000000000000000000000000000000000000000000000000000000000000000000000000000000000000000000000000000000000000000000000000000000000000000000000000000000000000000000000000000000000000000000000000000000000000000000000000000000000000000000000000000000008302000080830f4240808203b642a056e81f171bcc55a6ff8345e692c0f86e5b48e01b996cadc001622fb5e363b421880102030405060708c0c0",
        "lastblockhash" : "0xf4506629f36ff59dfc363382fa6b2282d974f98bba8b4147613aefe7327b8f80",
        "network" : "Byzantium",
        "postState" : {
            "0x2adc25665018aa1fe0e6bc666dac8fc2697ff9ba" : {
                "balance" : "0x29a2241af6321a80",
                "code" : "0x",
                "nonce" : "0x00",
                "storage" : {
                }
            },
            "0xa94f5374fce5edbc8e2a8697c15331677e6ebf0b" : {
                "balance" : "0x0de0b6b3a75de580",
                "code" : "0x",
                "nonce" : "0x01",
                "storage" : {
                }
            },
            "0xaf3ecba2fe09a4f6c19f16a9d119e44e08c2da01" : {
                "balance" : "0x01",
                "code" : "0x6010ff",
                "nonce" : "0x00",
                "storage" : {
                }
            },
            "0xe2b35478fdd26477cc576dd906e6277761246a3c" : {
                "balance" : "0x01",
                "code" : "0x6010ff",
                "nonce" : "0x00",
                "storage" : {
                }
            },
            "0xec2c6832d00680ece8ff9254f81fdab0a5a2ac50" : {
                "balance" : "0x01",
                "code" : "0x6010ff",
                "nonce" : "0x00",
                "storage" : {
                }
            }
        },
        "pre" : {
            "0xa94f5374fce5edbc8e2a8697c15331677e6ebf0b" : {
                "balance" : "0x0de0b6b3a7640000",
                "code" : "0x",
                "nonce" : "0x00",
                "storage" : {
                }
            },
            "0xaf3ecba2fe09a4f6c19f16a9d119e44e08c2da01" : {
                "balance" : "0x01",
                "code" : "0x6010ff",
                "nonce" : "0x00",
                "storage" : {
                }
            },
            "0xe2b35478fdd26477cc576dd906e6277761246a3c" : {
                "balance" : "0x01",
                "code" : "0x6010ff",
                "nonce" : "0x00",
                "storage" : {
                }
            },
            "0xec2c6832d00680ece8ff9254f81fdab0a5a2ac50" : {
                "balance" : "0x01",
                "code" : "0x6010ff",
                "nonce" : "0x00",
                "storage" : {
                }
            }
        },
        "sealEngine" : "NoProof"
    },
    "create2collisionSelfdestructed_d0g0v0_Constantinople" : {
        "_info" : {
            "comment" : "collision with address that has been selfdestructed in the same transaction",
            "filledwith" : "testeth 1.7.0-alpha.1-20+commit.782a7283",
            "lllcversion" : "Version: 0.5.0-develop.2018.11.9+commit.9709dfe0.Linux.g++",
            "source" : "src/BlockchainTestsFiller/GeneralStateTests/stCreate2/create2collisionSelfdestructed_d0g0v0Filler.json",
            "sourceHash" : "869abce9cb10777c0df4c39d70bfa2a7cca9a8108b30ce2939e677e86e4b66f3"
        },
        "blocks" : [
            {
                "blockHeader" : {
                    "bloom" : "0x00000000000000000000000000000000000000000000000000000000000000000000000000000000000000000000000000000000000000000000000000000000000000000000000000000000000000000000000000000000000000000000000000000000000000000000000000000000000000000000000000000000000000000000000000000000000000000000000000000000000000000000000000000000000000000000000000000000000000000000000000000000000000000000000000000000000000000000000000000000000000000000000000000000000000000000000000000000000000000000000000000000000000000000000000000000",
                    "coinbase" : "0x2adc25665018aa1fe0e6bc666dac8fc2697ff9ba",
                    "difficulty" : "0x020000",
                    "extraData" : "0x",
                    "gasLimit" : "0x0f4240",
                    "gasUsed" : "0x05ab8e",
                    "hash" : "0x8b9dd4cdd4375e940300060a32ff24406d6311ce3185dbaf17c8a7108bfe1e29",
                    "mixHash" : "0x0000000000000000000000000000000000000000000000000000000000000000",
                    "nonce" : "0x0000000000000000",
                    "number" : "0x01",
                    "parentHash" : "0x9e403072017b50f3e1bf4af66a01ace806703dc9e22f9edb5041a2f0a197771e",
                    "receiptTrie" : "0xa9b782ef61e26fa58def53065af531544dfafc2b722b766783c58ed00bff0910",
                    "stateRoot" : "0x4ed975240a981065e73f10ff7e563207abf210ca7de9e200905e8e61eb423c13",
                    "timestamp" : "0x03e8",
                    "transactionsTrie" : "0x2134cdbcdb539627c5697089823ee175ecb1ac50e650dd09b7a30620cba43929",
                    "uncleHash" : "0x1dcc4de8dec75d7aab85b567b6ccd41ad312451b948a7413f0a142fd40d49347"
                },
                "rlp" : "0xf90279f901f8a09e403072017b50f3e1bf4af66a01ace806703dc9e22f9edb5041a2f0a197771ea01dcc4de8dec75d7aab85b567b6ccd41ad312451b948a7413f0a142fd40d49347942adc25665018aa1fe0e6bc666dac8fc2697ff9baa04ed975240a981065e73f10ff7e563207abf210ca7de9e200905e8e61eb423c13a02134cdbcdb539627c5697089823ee175ecb1ac50e650dd09b7a30620cba43929a0a9b782ef61e26fa58def53065af531544dfafc2b722b766783c58ed00bff0910b90100000000000000000000000000000000000000000000000000000000000000000000000000000000000000000000000000000000000000000000000000000000000000000000000000000000000000000000000000000000000000000000000000000000000000000000000000000000000000000000000000000000000000000000000000000000000000000000000000000000000000000000000000000000000000000000000000000000000000000000000000000000000000000000000000000000000000000000000000000000000000000000000000000000000000000000000000000000000000000000000000000000000000000000000000000000008302000001830f42408305ab8e8203e880a00000000000000000000000000000000000000000000000000000000000000000880000000000000000f87bf879800183061a808001ad6000600060006000600073e2b35478fdd26477cc576dd906e6277761246a3c61c350f1506000600060006000f51ca0e2d75d08fb681b15b09a794468c0f20f87807fdf00989e528ac753792fe7ab96a032326b6cc043975a6e4a8a02c1a5477fbf3f26e49c3a6287913d155979284368c0",
                "transactions" : [
                    {
                        "data" : "0x6000600060006000600073e2b35478fdd26477cc576dd906e6277761246a3c61c350f1506000600060006000f5",
                        "gasLimit" : "0x061a80",
                        "gasPrice" : "0x01",
                        "nonce" : "0x00",
                        "r" : "0xe2d75d08fb681b15b09a794468c0f20f87807fdf00989e528ac753792fe7ab96",
                        "s" : "0x32326b6cc043975a6e4a8a02c1a5477fbf3f26e49c3a6287913d155979284368",
                        "to" : "",
                        "v" : "0x1c",
                        "value" : "0x01"
                    }
                ],
                "uncleHeaders" : [
                ]
            }
        ],
        "genesisBlockHeader" : {
            "bloom" : "0x00000000000000000000000000000000000000000000000000000000000000000000000000000000000000000000000000000000000000000000000000000000000000000000000000000000000000000000000000000000000000000000000000000000000000000000000000000000000000000000000000000000000000000000000000000000000000000000000000000000000000000000000000000000000000000000000000000000000000000000000000000000000000000000000000000000000000000000000000000000000000000000000000000000000000000000000000000000000000000000000000000000000000000000000000000000",
            "coinbase" : "0x2adc25665018aa1fe0e6bc666dac8fc2697ff9ba",
            "difficulty" : "0x020000",
            "extraData" : "0x42",
            "gasLimit" : "0x0f4240",
            "gasUsed" : "0x00",
            "hash" : "0x9e403072017b50f3e1bf4af66a01ace806703dc9e22f9edb5041a2f0a197771e",
            "mixHash" : "0x56e81f171bcc55a6ff8345e692c0f86e5b48e01b996cadc001622fb5e363b421",
            "nonce" : "0x0102030405060708",
            "number" : "0x00",
            "parentHash" : "0x0000000000000000000000000000000000000000000000000000000000000000",
            "receiptTrie" : "0x56e81f171bcc55a6ff8345e692c0f86e5b48e01b996cadc001622fb5e363b421",
            "stateRoot" : "0x0edf4ab8df4ed5fbf6225445f8a37a4176d466fe14a0b485c6ddcd1a7968494e",
            "timestamp" : "0x03b6",
            "transactionsTrie" : "0x56e81f171bcc55a6ff8345e692c0f86e5b48e01b996cadc001622fb5e363b421",
            "uncleHash" : "0x1dcc4de8dec75d7aab85b567b6ccd41ad312451b948a7413f0a142fd40d49347"
        },
        "genesisRLP" : "0xf901faf901f5a00000000000000000000000000000000000000000000000000000000000000000a01dcc4de8dec75d7aab85b567b6ccd41ad312451b948a7413f0a142fd40d49347942adc25665018aa1fe0e6bc666dac8fc2697ff9baa00edf4ab8df4ed5fbf6225445f8a37a4176d466fe14a0b485c6ddcd1a7968494ea056e81f171bcc55a6ff8345e692c0f86e5b48e01b996cadc001622fb5e363b421a056e81f171bcc55a6ff8345e692c0f86e5b48e01b996cadc001622fb5e363b421b90100000000000000000000000000000000000000000000000000000000000000000000000000000000000000000000000000000000000000000000000000000000000000000000000000000000000000000000000000000000000000000000000000000000000000000000000000000000000000000000000000000000000000000000000000000000000000000000000000000000000000000000000000000000000000000000000000000000000000000000000000000000000000000000000000000000000000000000000000000000000000000000000000000000000000000000000000000000000000000000000000000000000000000000000000000000008302000080830f4240808203b642a056e81f171bcc55a6ff8345e692c0f86e5b48e01b996cadc001622fb5e363b421880102030405060708c0c0",
        "lastblockhash" : "0x8b9dd4cdd4375e940300060a32ff24406d6311ce3185dbaf17c8a7108bfe1e29",
        "network" : "Constantinople",
        "postState" : {
            "0x0000000000000000000000000000000000000010" : {
                "balance" : "0x01",
                "code" : "0x",
                "nonce" : "0x00",
                "storage" : {
                }
            },
            "0x2adc25665018aa1fe0e6bc666dac8fc2697ff9ba" : {
                "balance" : "0x1bc16d674ecdab8e",
                "code" : "0x",
                "nonce" : "0x00",
                "storage" : {
                }
            },
            "0x6295ee1b4f6dd65047762f924ecd367c17eabf8f" : {
                "balance" : "0x01",
                "code" : "0x",
                "nonce" : "0x02",
                "storage" : {
                }
            },
            "0xa94f5374fce5edbc8e2a8697c15331677e6ebf0b" : {
                "balance" : "0x0de0b6b3a75e5471",
                "code" : "0x",
                "nonce" : "0x01",
                "storage" : {
                }
            },
            "0xaf3ecba2fe09a4f6c19f16a9d119e44e08c2da01" : {
                "balance" : "0x01",
                "code" : "0x6010ff",
                "nonce" : "0x00",
                "storage" : {
                }
            },
            "0xec2c6832d00680ece8ff9254f81fdab0a5a2ac50" : {
                "balance" : "0x01",
                "code" : "0x6010ff",
                "nonce" : "0x00",
                "storage" : {
                }
            }
        },
        "pre" : {
            "0xa94f5374fce5edbc8e2a8697c15331677e6ebf0b" : {
                "balance" : "0x0de0b6b3a7640000",
                "code" : "0x",
                "nonce" : "0x00",
                "storage" : {
                }
            },
            "0xaf3ecba2fe09a4f6c19f16a9d119e44e08c2da01" : {
                "balance" : "0x01",
                "code" : "0x6010ff",
                "nonce" : "0x00",
                "storage" : {
                }
            },
            "0xe2b35478fdd26477cc576dd906e6277761246a3c" : {
                "balance" : "0x01",
                "code" : "0x6010ff",
                "nonce" : "0x00",
                "storage" : {
                }
            },
            "0xec2c6832d00680ece8ff9254f81fdab0a5a2ac50" : {
                "balance" : "0x01",
                "code" : "0x6010ff",
                "nonce" : "0x00",
                "storage" : {
                }
            }
        },
        "sealEngine" : "NoProof"
    },
    "create2collisionSelfdestructed_d0g0v0_ConstantinopleFix" : {
        "_info" : {
            "comment" : "collision with address that has been selfdestructed in the same transaction",
            "filledwith" : "testeth 1.7.0-alpha.1-20+commit.782a7283",
            "lllcversion" : "Version: 0.5.0-develop.2018.11.9+commit.9709dfe0.Linux.g++",
            "source" : "src/BlockchainTestsFiller/GeneralStateTests/stCreate2/create2collisionSelfdestructed_d0g0v0Filler.json",
            "sourceHash" : "869abce9cb10777c0df4c39d70bfa2a7cca9a8108b30ce2939e677e86e4b66f3"
        },
        "blocks" : [
            {
                "blockHeader" : {
                    "bloom" : "0x00000000000000000000000000000000000000000000000000000000000000000000000000000000000000000000000000000000000000000000000000000000000000000000000000000000000000000000000000000000000000000000000000000000000000000000000000000000000000000000000000000000000000000000000000000000000000000000000000000000000000000000000000000000000000000000000000000000000000000000000000000000000000000000000000000000000000000000000000000000000000000000000000000000000000000000000000000000000000000000000000000000000000000000000000000000",
                    "coinbase" : "0x2adc25665018aa1fe0e6bc666dac8fc2697ff9ba",
                    "difficulty" : "0x020000",
                    "extraData" : "0x",
                    "gasLimit" : "0x0f4240",
                    "gasUsed" : "0x05ab8e",
                    "hash" : "0x8b9dd4cdd4375e940300060a32ff24406d6311ce3185dbaf17c8a7108bfe1e29",
                    "mixHash" : "0x0000000000000000000000000000000000000000000000000000000000000000",
                    "nonce" : "0x0000000000000000",
                    "number" : "0x01",
                    "parentHash" : "0x9e403072017b50f3e1bf4af66a01ace806703dc9e22f9edb5041a2f0a197771e",
                    "receiptTrie" : "0xa9b782ef61e26fa58def53065af531544dfafc2b722b766783c58ed00bff0910",
                    "stateRoot" : "0x4ed975240a981065e73f10ff7e563207abf210ca7de9e200905e8e61eb423c13",
                    "timestamp" : "0x03e8",
                    "transactionsTrie" : "0x2134cdbcdb539627c5697089823ee175ecb1ac50e650dd09b7a30620cba43929",
                    "uncleHash" : "0x1dcc4de8dec75d7aab85b567b6ccd41ad312451b948a7413f0a142fd40d49347"
                },
                "rlp" : "0xf90279f901f8a09e403072017b50f3e1bf4af66a01ace806703dc9e22f9edb5041a2f0a197771ea01dcc4de8dec75d7aab85b567b6ccd41ad312451b948a7413f0a142fd40d49347942adc25665018aa1fe0e6bc666dac8fc2697ff9baa04ed975240a981065e73f10ff7e563207abf210ca7de9e200905e8e61eb423c13a02134cdbcdb539627c5697089823ee175ecb1ac50e650dd09b7a30620cba43929a0a9b782ef61e26fa58def53065af531544dfafc2b722b766783c58ed00bff0910b90100000000000000000000000000000000000000000000000000000000000000000000000000000000000000000000000000000000000000000000000000000000000000000000000000000000000000000000000000000000000000000000000000000000000000000000000000000000000000000000000000000000000000000000000000000000000000000000000000000000000000000000000000000000000000000000000000000000000000000000000000000000000000000000000000000000000000000000000000000000000000000000000000000000000000000000000000000000000000000000000000000000000000000000000000000000008302000001830f42408305ab8e8203e880a00000000000000000000000000000000000000000000000000000000000000000880000000000000000f87bf879800183061a808001ad6000600060006000600073e2b35478fdd26477cc576dd906e6277761246a3c61c350f1506000600060006000f51ca0e2d75d08fb681b15b09a794468c0f20f87807fdf00989e528ac753792fe7ab96a032326b6cc043975a6e4a8a02c1a5477fbf3f26e49c3a6287913d155979284368c0",
                "transactions" : [
                    {
                        "data" : "0x6000600060006000600073e2b35478fdd26477cc576dd906e6277761246a3c61c350f1506000600060006000f5",
                        "gasLimit" : "0x061a80",
                        "gasPrice" : "0x01",
                        "nonce" : "0x00",
                        "r" : "0xe2d75d08fb681b15b09a794468c0f20f87807fdf00989e528ac753792fe7ab96",
                        "s" : "0x32326b6cc043975a6e4a8a02c1a5477fbf3f26e49c3a6287913d155979284368",
                        "to" : "",
                        "v" : "0x1c",
                        "value" : "0x01"
                    }
                ],
                "uncleHeaders" : [
                ]
            }
        ],
        "genesisBlockHeader" : {
            "bloom" : "0x00000000000000000000000000000000000000000000000000000000000000000000000000000000000000000000000000000000000000000000000000000000000000000000000000000000000000000000000000000000000000000000000000000000000000000000000000000000000000000000000000000000000000000000000000000000000000000000000000000000000000000000000000000000000000000000000000000000000000000000000000000000000000000000000000000000000000000000000000000000000000000000000000000000000000000000000000000000000000000000000000000000000000000000000000000000",
            "coinbase" : "0x2adc25665018aa1fe0e6bc666dac8fc2697ff9ba",
            "difficulty" : "0x020000",
            "extraData" : "0x42",
            "gasLimit" : "0x0f4240",
            "gasUsed" : "0x00",
            "hash" : "0x9e403072017b50f3e1bf4af66a01ace806703dc9e22f9edb5041a2f0a197771e",
            "mixHash" : "0x56e81f171bcc55a6ff8345e692c0f86e5b48e01b996cadc001622fb5e363b421",
            "nonce" : "0x0102030405060708",
            "number" : "0x00",
            "parentHash" : "0x0000000000000000000000000000000000000000000000000000000000000000",
            "receiptTrie" : "0x56e81f171bcc55a6ff8345e692c0f86e5b48e01b996cadc001622fb5e363b421",
            "stateRoot" : "0x0edf4ab8df4ed5fbf6225445f8a37a4176d466fe14a0b485c6ddcd1a7968494e",
            "timestamp" : "0x03b6",
            "transactionsTrie" : "0x56e81f171bcc55a6ff8345e692c0f86e5b48e01b996cadc001622fb5e363b421",
            "uncleHash" : "0x1dcc4de8dec75d7aab85b567b6ccd41ad312451b948a7413f0a142fd40d49347"
        },
        "genesisRLP" : "0xf901faf901f5a00000000000000000000000000000000000000000000000000000000000000000a01dcc4de8dec75d7aab85b567b6ccd41ad312451b948a7413f0a142fd40d49347942adc25665018aa1fe0e6bc666dac8fc2697ff9baa00edf4ab8df4ed5fbf6225445f8a37a4176d466fe14a0b485c6ddcd1a7968494ea056e81f171bcc55a6ff8345e692c0f86e5b48e01b996cadc001622fb5e363b421a056e81f171bcc55a6ff8345e692c0f86e5b48e01b996cadc001622fb5e363b421b90100000000000000000000000000000000000000000000000000000000000000000000000000000000000000000000000000000000000000000000000000000000000000000000000000000000000000000000000000000000000000000000000000000000000000000000000000000000000000000000000000000000000000000000000000000000000000000000000000000000000000000000000000000000000000000000000000000000000000000000000000000000000000000000000000000000000000000000000000000000000000000000000000000000000000000000000000000000000000000000000000000000000000000000000000000000008302000080830f4240808203b642a056e81f171bcc55a6ff8345e692c0f86e5b48e01b996cadc001622fb5e363b421880102030405060708c0c0",
        "lastblockhash" : "0x8b9dd4cdd4375e940300060a32ff24406d6311ce3185dbaf17c8a7108bfe1e29",
        "network" : "ConstantinopleFix",
        "postState" : {
            "0x0000000000000000000000000000000000000010" : {
                "balance" : "0x01",
                "code" : "0x",
                "nonce" : "0x00",
                "storage" : {
                }
            },
            "0x2adc25665018aa1fe0e6bc666dac8fc2697ff9ba" : {
                "balance" : "0x1bc16d674ecdab8e",
                "code" : "0x",
                "nonce" : "0x00",
                "storage" : {
                }
            },
            "0x6295ee1b4f6dd65047762f924ecd367c17eabf8f" : {
                "balance" : "0x01",
                "code" : "0x",
                "nonce" : "0x02",
                "storage" : {
                }
            },
            "0xa94f5374fce5edbc8e2a8697c15331677e6ebf0b" : {
                "balance" : "0x0de0b6b3a75e5471",
                "code" : "0x",
                "nonce" : "0x01",
                "storage" : {
                }
            },
            "0xaf3ecba2fe09a4f6c19f16a9d119e44e08c2da01" : {
                "balance" : "0x01",
                "code" : "0x6010ff",
                "nonce" : "0x00",
                "storage" : {
                }
            },
            "0xec2c6832d00680ece8ff9254f81fdab0a5a2ac50" : {
                "balance" : "0x01",
                "code" : "0x6010ff",
                "nonce" : "0x00",
                "storage" : {
                }
            }
        },
        "pre" : {
            "0xa94f5374fce5edbc8e2a8697c15331677e6ebf0b" : {
                "balance" : "0x0de0b6b3a7640000",
                "code" : "0x",
                "nonce" : "0x00",
                "storage" : {
                }
            },
            "0xaf3ecba2fe09a4f6c19f16a9d119e44e08c2da01" : {
                "balance" : "0x01",
                "code" : "0x6010ff",
                "nonce" : "0x00",
                "storage" : {
                }
            },
            "0xe2b35478fdd26477cc576dd906e6277761246a3c" : {
                "balance" : "0x01",
                "code" : "0x6010ff",
                "nonce" : "0x00",
                "storage" : {
                }
            },
            "0xec2c6832d00680ece8ff9254f81fdab0a5a2ac50" : {
                "balance" : "0x01",
                "code" : "0x6010ff",
                "nonce" : "0x00",
                "storage" : {
                }
            }
        },
        "sealEngine" : "NoProof"
    }
}