{
    "create2InitCodes_d8g0v0_Constantinople" : {
        "_info" : {
            "comment" : "testing different byte opcodes inside create2 init code",
            "filledwith" : "testeth 1.7.0-alpha.1-20+commit.782a7283",
            "lllcversion" : "Version: 0.5.0-develop.2018.11.9+commit.9709dfe0.Linux.g++",
            "source" : "src/BlockchainTestsFiller/GeneralStateTests/stCreate2/create2InitCodes_d8g0v0Filler.json",
            "sourceHash" : "821921a17a1602faf97d9cb870b76184c3e0215d3248f88ae4d03ccb048514a1"
        },
        "blocks" : [
            {
                "blockHeader" : {
                    "bloom" : "0x00000000000000000000000000000000000000000000000000000000000000000000000000000000000000000000000000000000000000000000000000000000000000000000000000000000000000000000000000000000000000000000000000000000000000000000000000000000000000000000000000000000000000000000000000000000000000000000000000000000000000000000000000000000000000000000000000000000000000000000000000000000000000000000000000000000000000000000000000000000000000000000000000000000000000000000000000000000000000000000000000000000000000000000000000000000",
                    "coinbase" : "0x2adc25665018aa1fe0e6bc666dac8fc2697ff9ba",
                    "difficulty" : "0x020000",
                    "extraData" : "0x",
                    "gasLimit" : "0x0f4240",
                    "gasUsed" : "0x019e54",
                    "hash" : "0x6f5cc525e016360df7310ba4014348c902bb51c3f0a8abd98736617da728250f",
                    "mixHash" : "0x0000000000000000000000000000000000000000000000000000000000000000",
                    "nonce" : "0x0000000000000000",
                    "number" : "0x01",
                    "parentHash" : "0x813a03e58564185e9a635f602e5f8da3ab602ac12b45b34e03aadbae561a9020",
                    "receiptTrie" : "0x525bababf542c443c2d9152222771e3bb8f889f6912e102b39be6132e21243a1",
                    "stateRoot" : "0x7da394e8155cea54d01fbe1b514d23e160c40858db524be6a44b0b259f9820fb",
                    "timestamp" : "0x03e8",
                    "transactionsTrie" : "0xc910b532a00420426c6dbebe1a7005e5f59c832c9aa5a0c0231c627232e0e756",
                    "uncleHash" : "0x1dcc4de8dec75d7aab85b567b6ccd41ad312451b948a7413f0a142fd40d49347"
                },
                "rlp" : "0xf9025ef901f8a0813a03e58564185e9a635f602e5f8da3ab602ac12b45b34e03aadbae561a9020a01dcc4de8dec75d7aab85b567b6ccd41ad312451b948a7413f0a142fd40d49347942adc25665018aa1fe0e6bc666dac8fc2697ff9baa07da394e8155cea54d01fbe1b514d23e160c40858db524be6a44b0b259f9820fba0c910b532a00420426c6dbebe1a7005e5f59c832c9aa5a0c0231c627232e0e756a0525bababf542c443c2d9152222771e3bb8f889f6912e102b39be6132e21243a1b90100000000000000000000000000000000000000000000000000000000000000000000000000000000000000000000000000000000000000000000000000000000000000000000000000000000000000000000000000000000000000000000000000000000000000000000000000000000000000000000000000000000000000000000000000000000000000000000000000000000000000000000000000000000000000000000000000000000000000000000000000000000000000000000000000000000000000000000000000000000000000000000000000000000000000000000000000000000000000000000000000000000000000000000000000000000008302000001830f424083019e548203e880a00000000000000000000000000000000000000000000000000000000000000000880000000000000000f860f85e8001830c35008001926160a960005260006002601e6001f56000551ba03ec10be40a19bfbbd4f38292b779d39b7a34de2e37b2e7b16055831a611d2aa3a062ad263abd7945e7f355c82bf385e176f2ee4ab46e9a0bfb2e4c7ffbb1b8c082c0",
                "transactions" : [
                    {
                        "data" : "0x6160a960005260006002601e6001f5600055",
                        "gasLimit" : "0x0c3500",
                        "gasPrice" : "0x01",
                        "nonce" : "0x00",
                        "r" : "0x3ec10be40a19bfbbd4f38292b779d39b7a34de2e37b2e7b16055831a611d2aa3",
                        "s" : "0x62ad263abd7945e7f355c82bf385e176f2ee4ab46e9a0bfb2e4c7ffbb1b8c082",
                        "to" : "",
                        "v" : "0x1b",
                        "value" : "0x01"
                    }
                ],
                "uncleHeaders" : [
                ]
            }
        ],
        "genesisBlockHeader" : {
            "bloom" : "0x00000000000000000000000000000000000000000000000000000000000000000000000000000000000000000000000000000000000000000000000000000000000000000000000000000000000000000000000000000000000000000000000000000000000000000000000000000000000000000000000000000000000000000000000000000000000000000000000000000000000000000000000000000000000000000000000000000000000000000000000000000000000000000000000000000000000000000000000000000000000000000000000000000000000000000000000000000000000000000000000000000000000000000000000000000000",
            "coinbase" : "0x2adc25665018aa1fe0e6bc666dac8fc2697ff9ba",
            "difficulty" : "0x020000",
            "extraData" : "0x42",
            "gasLimit" : "0x0f4240",
            "gasUsed" : "0x00",
            "hash" : "0x813a03e58564185e9a635f602e5f8da3ab602ac12b45b34e03aadbae561a9020",
            "mixHash" : "0x56e81f171bcc55a6ff8345e692c0f86e5b48e01b996cadc001622fb5e363b421",
            "nonce" : "0x0102030405060708",
            "number" : "0x00",
            "parentHash" : "0x0000000000000000000000000000000000000000000000000000000000000000",
            "receiptTrie" : "0x56e81f171bcc55a6ff8345e692c0f86e5b48e01b996cadc001622fb5e363b421",
            "stateRoot" : "0x517f2cdf6adb1a644878c390ffab4e130f1bed4b498ef7ce58c5addd98d61018",
            "timestamp" : "0x03b6",
            "transactionsTrie" : "0x56e81f171bcc55a6ff8345e692c0f86e5b48e01b996cadc001622fb5e363b421",
            "uncleHash" : "0x1dcc4de8dec75d7aab85b567b6ccd41ad312451b948a7413f0a142fd40d49347"
        },
        "genesisRLP" : "0xf901faf901f5a00000000000000000000000000000000000000000000000000000000000000000a01dcc4de8dec75d7aab85b567b6ccd41ad312451b948a7413f0a142fd40d49347942adc25665018aa1fe0e6bc666dac8fc2697ff9baa0517f2cdf6adb1a644878c390ffab4e130f1bed4b498ef7ce58c5addd98d61018a056e81f171bcc55a6ff8345e692c0f86e5b48e01b996cadc001622fb5e363b421a056e81f171bcc55a6ff8345e692c0f86e5b48e01b996cadc001622fb5e363b421b90100000000000000000000000000000000000000000000000000000000000000000000000000000000000000000000000000000000000000000000000000000000000000000000000000000000000000000000000000000000000000000000000000000000000000000000000000000000000000000000000000000000000000000000000000000000000000000000000000000000000000000000000000000000000000000000000000000000000000000000000000000000000000000000000000000000000000000000000000000000000000000000000000000000000000000000000000000000000000000000000000000000000000000000000000000000008302000080830f4240808203b642a056e81f171bcc55a6ff8345e692c0f86e5b48e01b996cadc001622fb5e363b421880102030405060708c0c0",
        "lastblockhash" : "0x6f5cc525e016360df7310ba4014348c902bb51c3f0a8abd98736617da728250f",
        "network" : "Constantinople",
        "postState" : {
            "0x2adc25665018aa1fe0e6bc666dac8fc2697ff9ba" : {
                "balance" : "0x1bc16d674ec99e54",
                "code" : "0x",
                "nonce" : "0x00",
                "storage" : {
                }
            },
            "0x5210981ae8161a02a1b7e37452ae142aedc66ea3" : {
                "balance" : "0x01",
                "code" : "0x",
                "nonce" : "0x01",
                "storage" : {
                }
            },
            "0x6295ee1b4f6dd65047762f924ecd367c17eabf8f" : {
                "balance" : "0x00",
                "code" : "0x",
                "nonce" : "0x02",
                "storage" : {
                    "0x00" : "0x5210981ae8161a02a1b7e37452ae142aedc66ea3"
                }
            },
            "0xa94f5374fce5edbc8e2a8697c15331677e6ebf0b" : {
                "balance" : "0x0de0b6b3a76261ab",
                "code" : "0x",
                "nonce" : "0x01",
                "storage" : {
                }
            }
        },
        "pre" : {
            "0xa94f5374fce5edbc8e2a8697c15331677e6ebf0b" : {
                "balance" : "0x0de0b6b3a7640000",
                "code" : "0x",
                "nonce" : "0x00",
                "storage" : {
                }
            }
        },
        "sealEngine" : "NoProof"
    },
    "create2InitCodes_d8g0v0_ConstantinopleFix" : {
        "_info" : {
            "comment" : "testing different byte opcodes inside create2 init code",
            "filledwith" : "testeth 1.7.0-alpha.1-20+commit.782a7283",
            "lllcversion" : "Version: 0.5.0-develop.2018.11.9+commit.9709dfe0.Linux.g++",
            "source" : "src/BlockchainTestsFiller/GeneralStateTests/stCreate2/create2InitCodes_d8g0v0Filler.json",
            "sourceHash" : "821921a17a1602faf97d9cb870b76184c3e0215d3248f88ae4d03ccb048514a1"
        },
        "blocks" : [
            {
                "blockHeader" : {
                    "bloom" : "0x00000000000000000000000000000000000000000000000000000000000000000000000000000000000000000000000000000000000000000000000000000000000000000000000000000000000000000000000000000000000000000000000000000000000000000000000000000000000000000000000000000000000000000000000000000000000000000000000000000000000000000000000000000000000000000000000000000000000000000000000000000000000000000000000000000000000000000000000000000000000000000000000000000000000000000000000000000000000000000000000000000000000000000000000000000000",
                    "coinbase" : "0x2adc25665018aa1fe0e6bc666dac8fc2697ff9ba",
                    "difficulty" : "0x020000",
                    "extraData" : "0x",
                    "gasLimit" : "0x0f4240",
                    "gasUsed" : "0x019e54",
                    "hash" : "0x6f5cc525e016360df7310ba4014348c902bb51c3f0a8abd98736617da728250f",
                    "mixHash" : "0x0000000000000000000000000000000000000000000000000000000000000000",
                    "nonce" : "0x0000000000000000",
                    "number" : "0x01",
                    "parentHash" : "0x813a03e58564185e9a635f602e5f8da3ab602ac12b45b34e03aadbae561a9020",
                    "receiptTrie" : "0x525bababf542c443c2d9152222771e3bb8f889f6912e102b39be6132e21243a1",
                    "stateRoot" : "0x7da394e8155cea54d01fbe1b514d23e160c40858db524be6a44b0b259f9820fb",
                    "timestamp" : "0x03e8",
                    "transactionsTrie" : "0xc910b532a00420426c6dbebe1a7005e5f59c832c9aa5a0c0231c627232e0e756",
                    "uncleHash" : "0x1dcc4de8dec75d7aab85b567b6ccd41ad312451b948a7413f0a142fd40d49347"
                },
                "rlp" : "0xf9025ef901f8a0813a03e58564185e9a635f602e5f8da3ab602ac12b45b34e03aadbae561a9020a01dcc4de8dec75d7aab85b567b6ccd41ad312451b948a7413f0a142fd40d49347942adc25665018aa1fe0e6bc666dac8fc2697ff9baa07da394e8155cea54d01fbe1b514d23e160c40858db524be6a44b0b259f9820fba0c910b532a00420426c6dbebe1a7005e5f59c832c9aa5a0c0231c627232e0e756a0525bababf542c443c2d9152222771e3bb8f889f6912e102b39be6132e21243a1b90100000000000000000000000000000000000000000000000000000000000000000000000000000000000000000000000000000000000000000000000000000000000000000000000000000000000000000000000000000000000000000000000000000000000000000000000000000000000000000000000000000000000000000000000000000000000000000000000000000000000000000000000000000000000000000000000000000000000000000000000000000000000000000000000000000000000000000000000000000000000000000000000000000000000000000000000000000000000000000000000000000000000000000000000000000000008302000001830f424083019e548203e880a00000000000000000000000000000000000000000000000000000000000000000880000000000000000f860f85e8001830c35008001926160a960005260006002601e6001f56000551ba03ec10be40a19bfbbd4f38292b779d39b7a34de2e37b2e7b16055831a611d2aa3a062ad263abd7945e7f355c82bf385e176f2ee4ab46e9a0bfb2e4c7ffbb1b8c082c0",
                "transactions" : [
                    {
                        "data" : "0x6160a960005260006002601e6001f5600055",
                        "gasLimit" : "0x0c3500",
                        "gasPrice" : "0x01",
                        "nonce" : "0x00",
                        "r" : "0x3ec10be40a19bfbbd4f38292b779d39b7a34de2e37b2e7b16055831a611d2aa3",
                        "s" : "0x62ad263abd7945e7f355c82bf385e176f2ee4ab46e9a0bfb2e4c7ffbb1b8c082",
                        "to" : "",
                        "v" : "0x1b",
                        "value" : "0x01"
                    }
                ],
                "uncleHeaders" : [
                ]
            }
        ],
        "genesisBlockHeader" : {
            "bloom" : "0x00000000000000000000000000000000000000000000000000000000000000000000000000000000000000000000000000000000000000000000000000000000000000000000000000000000000000000000000000000000000000000000000000000000000000000000000000000000000000000000000000000000000000000000000000000000000000000000000000000000000000000000000000000000000000000000000000000000000000000000000000000000000000000000000000000000000000000000000000000000000000000000000000000000000000000000000000000000000000000000000000000000000000000000000000000000",
            "coinbase" : "0x2adc25665018aa1fe0e6bc666dac8fc2697ff9ba",
            "difficulty" : "0x020000",
            "extraData" : "0x42",
            "gasLimit" : "0x0f4240",
            "gasUsed" : "0x00",
            "hash" : "0x813a03e58564185e9a635f602e5f8da3ab602ac12b45b34e03aadbae561a9020",
            "mixHash" : "0x56e81f171bcc55a6ff8345e692c0f86e5b48e01b996cadc001622fb5e363b421",
            "nonce" : "0x0102030405060708",
            "number" : "0x00",
            "parentHash" : "0x0000000000000000000000000000000000000000000000000000000000000000",
            "receiptTrie" : "0x56e81f171bcc55a6ff8345e692c0f86e5b48e01b996cadc001622fb5e363b421",
            "stateRoot" : "0x517f2cdf6adb1a644878c390ffab4e130f1bed4b498ef7ce58c5addd98d61018",
            "timestamp" : "0x03b6",
            "transactionsTrie" : "0x56e81f171bcc55a6ff8345e692c0f86e5b48e01b996cadc001622fb5e363b421",
            "uncleHash" : "0x1dcc4de8dec75d7aab85b567b6ccd41ad312451b948a7413f0a142fd40d49347"
        },
        "genesisRLP" : "0xf901faf901f5a00000000000000000000000000000000000000000000000000000000000000000a01dcc4de8dec75d7aab85b567b6ccd41ad312451b948a7413f0a142fd40d49347942adc25665018aa1fe0e6bc666dac8fc2697ff9baa0517f2cdf6adb1a644878c390ffab4e130f1bed4b498ef7ce58c5addd98d61018a056e81f171bcc55a6ff8345e692c0f86e5b48e01b996cadc001622fb5e363b421a056e81f171bcc55a6ff8345e692c0f86e5b48e01b996cadc001622fb5e363b421b90100000000000000000000000000000000000000000000000000000000000000000000000000000000000000000000000000000000000000000000000000000000000000000000000000000000000000000000000000000000000000000000000000000000000000000000000000000000000000000000000000000000000000000000000000000000000000000000000000000000000000000000000000000000000000000000000000000000000000000000000000000000000000000000000000000000000000000000000000000000000000000000000000000000000000000000000000000000000000000000000000000000000000000000000000000000008302000080830f4240808203b642a056e81f171bcc55a6ff8345e692c0f86e5b48e01b996cadc001622fb5e363b421880102030405060708c0c0",
        "lastblockhash" : "0x6f5cc525e016360df7310ba4014348c902bb51c3f0a8abd98736617da728250f",
        "network" : "ConstantinopleFix",
        "postState" : {
            "0x2adc25665018aa1fe0e6bc666dac8fc2697ff9ba" : {
                "balance" : "0x1bc16d674ec99e54",
                "code" : "0x",
                "nonce" : "0x00",
                "storage" : {
                }
            },
            "0x5210981ae8161a02a1b7e37452ae142aedc66ea3" : {
                "balance" : "0x01",
                "code" : "0x",
                "nonce" : "0x01",
                "storage" : {
                }
            },
            "0x6295ee1b4f6dd65047762f924ecd367c17eabf8f" : {
                "balance" : "0x00",
                "code" : "0x",
                "nonce" : "0x02",
                "storage" : {
                    "0x00" : "0x5210981ae8161a02a1b7e37452ae142aedc66ea3"
                }
            },
            "0xa94f5374fce5edbc8e2a8697c15331677e6ebf0b" : {
                "balance" : "0x0de0b6b3a76261ab",
                "code" : "0x",
                "nonce" : "0x01",
                "storage" : {
                }
            }
        },
        "pre" : {
            "0xa94f5374fce5edbc8e2a8697c15331677e6ebf0b" : {
                "balance" : "0x0de0b6b3a7640000",
                "code" : "0x",
                "nonce" : "0x00",
                "storage" : {
                }
            }
        },
        "sealEngine" : "NoProof"
    }
}