{
    "recursiveCreateReturnValue_d0g0v0_Byzantium" : {
        "_info" : {
            "comment" : "",
            "filledwith" : "testeth 1.7.0-alpha.1-20+commit.782a7283",
            "lllcversion" : "Version: 0.5.0-develop.2018.11.9+commit.9709dfe0.Linux.g++",
            "source" : "src/BlockchainTestsFiller/GeneralStateTests/stRecursiveCreate/recursiveCreateReturnValue_d0g0v0Filler.json",
            "sourceHash" : "152225f37ed998331584b6d587e315781323b7618dd69c792483b2abc1ddd057"
        },
        "blocks" : [
            {
                "blockHeader" : {
                    "bloom" : "0x00000000000000000000000000000000000000000000000000000000000000000000000000000000000000000000000000000000000000000000000000000000000000000000000000000000000000000000000000000000000000000000000000000000000000000000000000000000000000000000000000000000000000000000000000000000000000000000000000000000000000000000000000000000000000000000000000000000000000000000000000000000000000000000000000000000000000000000000000000000000000000000000000000000000000000000000000000000000000000000000000000000000000000000000000000000",
                    "coinbase" : "0x2adc25665018aa1fe0e6bc666dac8fc2697ff9ba",
                    "difficulty" : "0x020000",
                    "extraData" : "0x",
                    "gasLimit" : "0x02540be400",
                    "gasUsed" : "0x0134112c",
                    "hash" : "0x9dac91436c8d07c8d610b9cf6e882ce60238989405729e3b9c0ddeb8921a58d8",
                    "mixHash" : "0x0000000000000000000000000000000000000000000000000000000000000000",
                    "nonce" : "0x0000000000000000",
                    "number" : "0x01",
                    "parentHash" : "0x11194f5f68b49f1f88323fcd219077836a9bd79b2eb7c3e75df04bfd62d4c347",
                    "receiptTrie" : "0x8860726da2a424e857e2a136fe9baa94a7c06ba440925773bcfaf1ce667aa349",
                    "stateRoot" : "0xf0113508c12239ec88c1bad572e1eb7d1cc789f4aeea6f987776dba20d271f29",
                    "timestamp" : "0x03e8",
                    "transactionsTrie" : "0xb14d4e511cd1cd050a993566dc733305ccdfc7318d7ea754af53906f3af56461",
                    "uncleHash" : "0x1dcc4de8dec75d7aab85b567b6ccd41ad312451b948a7413f0a142fd40d49347"
                },
                "rlp" : "0xf90267f901fba011194f5f68b49f1f88323fcd219077836a9bd79b2eb7c3e75df04bfd62d4c347a01dcc4de8dec75d7aab85b567b6ccd41ad312451b948a7413f0a142fd40d49347942adc25665018aa1fe0e6bc666dac8fc2697ff9baa0f0113508c12239ec88c1bad572e1eb7d1cc789f4aeea6f987776dba20d271f29a0b14d4e511cd1cd050a993566dc733305ccdfc7318d7ea754af53906f3af56461a08860726da2a424e857e2a136fe9baa94a7c06ba440925773bcfaf1ce667aa349b901000000000000000000000000000000000000000000000000000000000000000000000000000000000000000000000000000000000000000000000000000000000000000000000000000000000000000000000000000000000000000000000000000000000000000000000000000000000000000000000000000000000000000000000000000000000000000000000000000000000000000000000000000000000000000000000000000000000000000000000000000000000000000000000000000000000000000000000000000000000000000000000000000000000000000000000000000000000000000000000000000000000000000000000000000000000083020000018502540be400840134112c8203e880a00000000000000000000000000000000000000000000000000000000000000000880000000000000000f866f8648001843b9aca0094095e7baea6a6c7c4c2dfeb977efac326af552d87830186a0801ba0f887f2ca3ec36a75a448f79d918a98c1325f546833bb1fc2b380297227dda065a04b041227709c35276540c843d255d62194a7fc216157add44479854321f031d1c0",
                "transactions" : [
                    {
                        "data" : "0x",
                        "gasLimit" : "0x3b9aca00",
                        "gasPrice" : "0x01",
                        "nonce" : "0x00",
                        "r" : "0xf887f2ca3ec36a75a448f79d918a98c1325f546833bb1fc2b380297227dda065",
                        "s" : "0x4b041227709c35276540c843d255d62194a7fc216157add44479854321f031d1",
                        "to" : "0x095e7baea6a6c7c4c2dfeb977efac326af552d87",
                        "v" : "0x1b",
                        "value" : "0x0186a0"
                    }
                ],
                "uncleHeaders" : [
                ]
            }
        ],
        "genesisBlockHeader" : {
            "bloom" : "0x00000000000000000000000000000000000000000000000000000000000000000000000000000000000000000000000000000000000000000000000000000000000000000000000000000000000000000000000000000000000000000000000000000000000000000000000000000000000000000000000000000000000000000000000000000000000000000000000000000000000000000000000000000000000000000000000000000000000000000000000000000000000000000000000000000000000000000000000000000000000000000000000000000000000000000000000000000000000000000000000000000000000000000000000000000000",
            "coinbase" : "0x2adc25665018aa1fe0e6bc666dac8fc2697ff9ba",
            "difficulty" : "0x020000",
            "extraData" : "0x42",
            "gasLimit" : "0x02540be400",
            "gasUsed" : "0x00",
            "hash" : "0x11194f5f68b49f1f88323fcd219077836a9bd79b2eb7c3e75df04bfd62d4c347",
            "mixHash" : "0x56e81f171bcc55a6ff8345e692c0f86e5b48e01b996cadc001622fb5e363b421",
            "nonce" : "0x0102030405060708",
            "number" : "0x00",
            "parentHash" : "0x0000000000000000000000000000000000000000000000000000000000000000",
            "receiptTrie" : "0x56e81f171bcc55a6ff8345e692c0f86e5b48e01b996cadc001622fb5e363b421",
            "stateRoot" : "0x118ceaf658dd9cfa520d1a998346979437ecfee1e243e9d5dd3e41f0f68d6951",
            "timestamp" : "0x03b6",
            "transactionsTrie" : "0x56e81f171bcc55a6ff8345e692c0f86e5b48e01b996cadc001622fb5e363b421",
            "uncleHash" : "0x1dcc4de8dec75d7aab85b567b6ccd41ad312451b948a7413f0a142fd40d49347"
        },
        "genesisRLP" : "0xf901fcf901f7a00000000000000000000000000000000000000000000000000000000000000000a01dcc4de8dec75d7aab85b567b6ccd41ad312451b948a7413f0a142fd40d49347942adc25665018aa1fe0e6bc666dac8fc2697ff9baa0118ceaf658dd9cfa520d1a998346979437ecfee1e243e9d5dd3e41f0f68d6951a056e81f171bcc55a6ff8345e692c0f86e5b48e01b996cadc001622fb5e363b421a056e81f171bcc55a6ff8345e692c0f86e5b48e01b996cadc001622fb5e363b421b901000000000000000000000000000000000000000000000000000000000000000000000000000000000000000000000000000000000000000000000000000000000000000000000000000000000000000000000000000000000000000000000000000000000000000000000000000000000000000000000000000000000000000000000000000000000000000000000000000000000000000000000000000000000000000000000000000000000000000000000000000000000000000000000000000000000000000000000000000000000000000000000000000000000000000000000000000000000000000000000000000000000000000000000000000000000083020000808502540be400808203b642a056e81f171bcc55a6ff8345e692c0f86e5b48e01b996cadc001622fb5e363b421880102030405060708c0c0",
        "lastblockhash" : "0x9dac91436c8d07c8d610b9cf6e882ce60238989405729e3b9c0ddeb8921a58d8",
        "network" : "Byzantium",
        "postStateHash" : "0xf0113508c12239ec88c1bad572e1eb7d1cc789f4aeea6f987776dba20d271f29",
        "pre" : {
            "0x095e7baea6a6c7c4c2dfeb977efac326af552d87" : {
                "balance" : "0x01312d00",
                "code" : "0x602060006000396001602060006000f001600055",
                "nonce" : "0x00",
                "storage" : {
                }
            },
            "0xa94f5374fce5edbc8e2a8697c15331677e6ebf0b" : {
                "balance" : "0x0de0b6b3a7640000",
                "code" : "0x",
                "nonce" : "0x00",
                "storage" : {
                }
            }
        },
        "sealEngine" : "NoProof"
    },
    "recursiveCreateReturnValue_d0g0v0_Constantinople" : {
        "_info" : {
            "comment" : "",
            "filledwith" : "testeth 1.7.0-alpha.1-20+commit.782a7283",
            "lllcversion" : "Version: 0.5.0-develop.2018.11.9+commit.9709dfe0.Linux.g++",
            "source" : "src/BlockchainTestsFiller/GeneralStateTests/stRecursiveCreate/recursiveCreateReturnValue_d0g0v0Filler.json",
            "sourceHash" : "152225f37ed998331584b6d587e315781323b7618dd69c792483b2abc1ddd057"
        },
        "blocks" : [
            {
                "blockHeader" : {
                    "bloom" : "0x00000000000000000000000000000000000000000000000000000000000000000000000000000000000000000000000000000000000000000000000000000000000000000000000000000000000000000000000000000000000000000000000000000000000000000000000000000000000000000000000000000000000000000000000000000000000000000000000000000000000000000000000000000000000000000000000000000000000000000000000000000000000000000000000000000000000000000000000000000000000000000000000000000000000000000000000000000000000000000000000000000000000000000000000000000000",
                    "coinbase" : "0x2adc25665018aa1fe0e6bc666dac8fc2697ff9ba",
                    "difficulty" : "0x020000",
                    "extraData" : "0x",
                    "gasLimit" : "0x02540be400",
                    "gasUsed" : "0x0134112c",
                    "hash" : "0x0b361e9595da134ef317dcaf6ce76d2e30f2788f1ab285c45cf27dbfb4a502c0",
                    "mixHash" : "0x0000000000000000000000000000000000000000000000000000000000000000",
                    "nonce" : "0x0000000000000000",
                    "number" : "0x01",
                    "parentHash" : "0x11194f5f68b49f1f88323fcd219077836a9bd79b2eb7c3e75df04bfd62d4c347",
                    "receiptTrie" : "0x8860726da2a424e857e2a136fe9baa94a7c06ba440925773bcfaf1ce667aa349",
                    "stateRoot" : "0xd6fef701f6ca86d54a6756a69d5f69ab4ad53fd6c75b4d3134e5d0500d9ef6c2",
                    "timestamp" : "0x03e8",
                    "transactionsTrie" : "0xb14d4e511cd1cd050a993566dc733305ccdfc7318d7ea754af53906f3af56461",
                    "uncleHash" : "0x1dcc4de8dec75d7aab85b567b6ccd41ad312451b948a7413f0a142fd40d49347"
                },
                "rlp" : "0xf90267f901fba011194f5f68b49f1f88323fcd219077836a9bd79b2eb7c3e75df04bfd62d4c347a01dcc4de8dec75d7aab85b567b6ccd41ad312451b948a7413f0a142fd40d49347942adc25665018aa1fe0e6bc666dac8fc2697ff9baa0d6fef701f6ca86d54a6756a69d5f69ab4ad53fd6c75b4d3134e5d0500d9ef6c2a0b14d4e511cd1cd050a993566dc733305ccdfc7318d7ea754af53906f3af56461a08860726da2a424e857e2a136fe9baa94a7c06ba440925773bcfaf1ce667aa349b901000000000000000000000000000000000000000000000000000000000000000000000000000000000000000000000000000000000000000000000000000000000000000000000000000000000000000000000000000000000000000000000000000000000000000000000000000000000000000000000000000000000000000000000000000000000000000000000000000000000000000000000000000000000000000000000000000000000000000000000000000000000000000000000000000000000000000000000000000000000000000000000000000000000000000000000000000000000000000000000000000000000000000000000000000000000083020000018502540be400840134112c8203e880a00000000000000000000000000000000000000000000000000000000000000000880000000000000000f866f8648001843b9aca0094095e7baea6a6c7c4c2dfeb977efac326af552d87830186a0801ba0f887f2ca3ec36a75a448f79d918a98c1325f546833bb1fc2b380297227dda065a04b041227709c35276540c843d255d62194a7fc216157add44479854321f031d1c0",
                "transactions" : [
                    {
                        "data" : "0x",
                        "gasLimit" : "0x3b9aca00",
                        "gasPrice" : "0x01",
                        "nonce" : "0x00",
                        "r" : "0xf887f2ca3ec36a75a448f79d918a98c1325f546833bb1fc2b380297227dda065",
                        "s" : "0x4b041227709c35276540c843d255d62194a7fc216157add44479854321f031d1",
                        "to" : "0x095e7baea6a6c7c4c2dfeb977efac326af552d87",
                        "v" : "0x1b",
                        "value" : "0x0186a0"
                    }
                ],
                "uncleHeaders" : [
                ]
            }
        ],
        "genesisBlockHeader" : {
            "bloom" : "0x00000000000000000000000000000000000000000000000000000000000000000000000000000000000000000000000000000000000000000000000000000000000000000000000000000000000000000000000000000000000000000000000000000000000000000000000000000000000000000000000000000000000000000000000000000000000000000000000000000000000000000000000000000000000000000000000000000000000000000000000000000000000000000000000000000000000000000000000000000000000000000000000000000000000000000000000000000000000000000000000000000000000000000000000000000000",
            "coinbase" : "0x2adc25665018aa1fe0e6bc666dac8fc2697ff9ba",
            "difficulty" : "0x020000",
            "extraData" : "0x42",
            "gasLimit" : "0x02540be400",
            "gasUsed" : "0x00",
            "hash" : "0x11194f5f68b49f1f88323fcd219077836a9bd79b2eb7c3e75df04bfd62d4c347",
            "mixHash" : "0x56e81f171bcc55a6ff8345e692c0f86e5b48e01b996cadc001622fb5e363b421",
            "nonce" : "0x0102030405060708",
            "number" : "0x00",
            "parentHash" : "0x0000000000000000000000000000000000000000000000000000000000000000",
            "receiptTrie" : "0x56e81f171bcc55a6ff8345e692c0f86e5b48e01b996cadc001622fb5e363b421",
            "stateRoot" : "0x118ceaf658dd9cfa520d1a998346979437ecfee1e243e9d5dd3e41f0f68d6951",
            "timestamp" : "0x03b6",
            "transactionsTrie" : "0x56e81f171bcc55a6ff8345e692c0f86e5b48e01b996cadc001622fb5e363b421",
            "uncleHash" : "0x1dcc4de8dec75d7aab85b567b6ccd41ad312451b948a7413f0a142fd40d49347"
        },
        "genesisRLP" : "0xf901fcf901f7a00000000000000000000000000000000000000000000000000000000000000000a01dcc4de8dec75d7aab85b567b6ccd41ad312451b948a7413f0a142fd40d49347942adc25665018aa1fe0e6bc666dac8fc2697ff9baa0118ceaf658dd9cfa520d1a998346979437ecfee1e243e9d5dd3e41f0f68d6951a056e81f171bcc55a6ff8345e692c0f86e5b48e01b996cadc001622fb5e363b421a056e81f171bcc55a6ff8345e692c0f86e5b48e01b996cadc001622fb5e363b421b901000000000000000000000000000000000000000000000000000000000000000000000000000000000000000000000000000000000000000000000000000000000000000000000000000000000000000000000000000000000000000000000000000000000000000000000000000000000000000000000000000000000000000000000000000000000000000000000000000000000000000000000000000000000000000000000000000000000000000000000000000000000000000000000000000000000000000000000000000000000000000000000000000000000000000000000000000000000000000000000000000000000000000000000000000000000083020000808502540be400808203b642a056e81f171bcc55a6ff8345e692c0f86e5b48e01b996cadc001622fb5e363b421880102030405060708c0c0",
        "lastblockhash" : "0x0b361e9595da134ef317dcaf6ce76d2e30f2788f1ab285c45cf27dbfb4a502c0",
        "network" : "Constantinople",
        "postStateHash" : "0xd6fef701f6ca86d54a6756a69d5f69ab4ad53fd6c75b4d3134e5d0500d9ef6c2",
        "pre" : {
            "0x095e7baea6a6c7c4c2dfeb977efac326af552d87" : {
                "balance" : "0x01312d00",
                "code" : "0x602060006000396001602060006000f001600055",
                "nonce" : "0x00",
                "storage" : {
                }
            },
            "0xa94f5374fce5edbc8e2a8697c15331677e6ebf0b" : {
                "balance" : "0x0de0b6b3a7640000",
                "code" : "0x",
                "nonce" : "0x00",
                "storage" : {
                }
            }
        },
        "sealEngine" : "NoProof"
    },
    "recursiveCreateReturnValue_d0g0v0_ConstantinopleFix" : {
        "_info" : {
            "comment" : "",
            "filledwith" : "testeth 1.7.0-alpha.1-20+commit.782a7283",
            "lllcversion" : "Version: 0.5.0-develop.2018.11.9+commit.9709dfe0.Linux.g++",
            "source" : "src/BlockchainTestsFiller/GeneralStateTests/stRecursiveCreate/recursiveCreateReturnValue_d0g0v0Filler.json",
            "sourceHash" : "152225f37ed998331584b6d587e315781323b7618dd69c792483b2abc1ddd057"
        },
        "blocks" : [
            {
                "blockHeader" : {
                    "bloom" : "0x00000000000000000000000000000000000000000000000000000000000000000000000000000000000000000000000000000000000000000000000000000000000000000000000000000000000000000000000000000000000000000000000000000000000000000000000000000000000000000000000000000000000000000000000000000000000000000000000000000000000000000000000000000000000000000000000000000000000000000000000000000000000000000000000000000000000000000000000000000000000000000000000000000000000000000000000000000000000000000000000000000000000000000000000000000000",
                    "coinbase" : "0x2adc25665018aa1fe0e6bc666dac8fc2697ff9ba",
                    "difficulty" : "0x020000",
                    "extraData" : "0x",
                    "gasLimit" : "0x02540be400",
                    "gasUsed" : "0x0134112c",
                    "hash" : "0x0b361e9595da134ef317dcaf6ce76d2e30f2788f1ab285c45cf27dbfb4a502c0",
                    "mixHash" : "0x0000000000000000000000000000000000000000000000000000000000000000",
                    "nonce" : "0x0000000000000000",
                    "number" : "0x01",
                    "parentHash" : "0x11194f5f68b49f1f88323fcd219077836a9bd79b2eb7c3e75df04bfd62d4c347",
                    "receiptTrie" : "0x8860726da2a424e857e2a136fe9baa94a7c06ba440925773bcfaf1ce667aa349",
                    "stateRoot" : "0xd6fef701f6ca86d54a6756a69d5f69ab4ad53fd6c75b4d3134e5d0500d9ef6c2",
                    "timestamp" : "0x03e8",
                    "transactionsTrie" : "0xb14d4e511cd1cd050a993566dc733305ccdfc7318d7ea754af53906f3af56461",
                    "uncleHash" : "0x1dcc4de8dec75d7aab85b567b6ccd41ad312451b948a7413f0a142fd40d49347"
                },
                "rlp" : "0xf90267f901fba011194f5f68b49f1f88323fcd219077836a9bd79b2eb7c3e75df04bfd62d4c347a01dcc4de8dec75d7aab85b567b6ccd41ad312451b948a7413f0a142fd40d49347942adc25665018aa1fe0e6bc666dac8fc2697ff9baa0d6fef701f6ca86d54a6756a69d5f69ab4ad53fd6c75b4d3134e5d0500d9ef6c2a0b14d4e511cd1cd050a993566dc733305ccdfc7318d7ea754af53906f3af56461a08860726da2a424e857e2a136fe9baa94a7c06ba440925773bcfaf1ce667aa349b901000000000000000000000000000000000000000000000000000000000000000000000000000000000000000000000000000000000000000000000000000000000000000000000000000000000000000000000000000000000000000000000000000000000000000000000000000000000000000000000000000000000000000000000000000000000000000000000000000000000000000000000000000000000000000000000000000000000000000000000000000000000000000000000000000000000000000000000000000000000000000000000000000000000000000000000000000000000000000000000000000000000000000000000000000000000083020000018502540be400840134112c8203e880a00000000000000000000000000000000000000000000000000000000000000000880000000000000000f866f8648001843b9aca0094095e7baea6a6c7c4c2dfeb977efac326af552d87830186a0801ba0f887f2ca3ec36a75a448f79d918a98c1325f546833bb1fc2b380297227dda065a04b041227709c35276540c843d255d62194a7fc216157add44479854321f031d1c0",
                "transactions" : [
                    {
                        "data" : "0x",
                        "gasLimit" : "0x3b9aca00",
                        "gasPrice" : "0x01",
                        "nonce" : "0x00",
                        "r" : "0xf887f2ca3ec36a75a448f79d918a98c1325f546833bb1fc2b380297227dda065",
                        "s" : "0x4b041227709c35276540c843d255d62194a7fc216157add44479854321f031d1",
                        "to" : "0x095e7baea6a6c7c4c2dfeb977efac326af552d87",
                        "v" : "0x1b",
                        "value" : "0x0186a0"
                    }
                ],
                "uncleHeaders" : [
                ]
            }
        ],
        "genesisBlockHeader" : {
            "bloom" : "0x00000000000000000000000000000000000000000000000000000000000000000000000000000000000000000000000000000000000000000000000000000000000000000000000000000000000000000000000000000000000000000000000000000000000000000000000000000000000000000000000000000000000000000000000000000000000000000000000000000000000000000000000000000000000000000000000000000000000000000000000000000000000000000000000000000000000000000000000000000000000000000000000000000000000000000000000000000000000000000000000000000000000000000000000000000000",
            "coinbase" : "0x2adc25665018aa1fe0e6bc666dac8fc2697ff9ba",
            "difficulty" : "0x020000",
            "extraData" : "0x42",
            "gasLimit" : "0x02540be400",
            "gasUsed" : "0x00",
            "hash" : "0x11194f5f68b49f1f88323fcd219077836a9bd79b2eb7c3e75df04bfd62d4c347",
            "mixHash" : "0x56e81f171bcc55a6ff8345e692c0f86e5b48e01b996cadc001622fb5e363b421",
            "nonce" : "0x0102030405060708",
            "number" : "0x00",
            "parentHash" : "0x0000000000000000000000000000000000000000000000000000000000000000",
            "receiptTrie" : "0x56e81f171bcc55a6ff8345e692c0f86e5b48e01b996cadc001622fb5e363b421",
            "stateRoot" : "0x118ceaf658dd9cfa520d1a998346979437ecfee1e243e9d5dd3e41f0f68d6951",
            "timestamp" : "0x03b6",
            "transactionsTrie" : "0x56e81f171bcc55a6ff8345e692c0f86e5b48e01b996cadc001622fb5e363b421",
            "uncleHash" : "0x1dcc4de8dec75d7aab85b567b6ccd41ad312451b948a7413f0a142fd40d49347"
        },
        "genesisRLP" : "0xf901fcf901f7a00000000000000000000000000000000000000000000000000000000000000000a01dcc4de8dec75d7aab85b567b6ccd41ad312451b948a7413f0a142fd40d49347942adc25665018aa1fe0e6bc666dac8fc2697ff9baa0118ceaf658dd9cfa520d1a998346979437ecfee1e243e9d5dd3e41f0f68d6951a056e81f171bcc55a6ff8345e692c0f86e5b48e01b996cadc001622fb5e363b421a056e81f171bcc55a6ff8345e692c0f86e5b48e01b996cadc001622fb5e363b421b901000000000000000000000000000000000000000000000000000000000000000000000000000000000000000000000000000000000000000000000000000000000000000000000000000000000000000000000000000000000000000000000000000000000000000000000000000000000000000000000000000000000000000000000000000000000000000000000000000000000000000000000000000000000000000000000000000000000000000000000000000000000000000000000000000000000000000000000000000000000000000000000000000000000000000000000000000000000000000000000000000000000000000000000000000000000083020000808502540be400808203b642a056e81f171bcc55a6ff8345e692c0f86e5b48e01b996cadc001622fb5e363b421880102030405060708c0c0",
        "lastblockhash" : "0x0b361e9595da134ef317dcaf6ce76d2e30f2788f1ab285c45cf27dbfb4a502c0",
        "network" : "ConstantinopleFix",
        "postStateHash" : "0xd6fef701f6ca86d54a6756a69d5f69ab4ad53fd6c75b4d3134e5d0500d9ef6c2",
        "pre" : {
            "0x095e7baea6a6c7c4c2dfeb977efac326af552d87" : {
                "balance" : "0x01312d00",
                "code" : "0x602060006000396001602060006000f001600055",
                "nonce" : "0x00",
                "storage" : {
                }
            },
            "0xa94f5374fce5edbc8e2a8697c15331677e6ebf0b" : {
                "balance" : "0x0de0b6b3a7640000",
                "code" : "0x",
                "nonce" : "0x00",
                "storage" : {
                }
            }
        },
        "sealEngine" : "NoProof"
    },
    "recursiveCreateReturnValue_d0g0v0_EIP150" : {
        "_info" : {
            "comment" : "",
            "filledwith" : "testeth 1.7.0-alpha.1-20+commit.782a7283",
            "lllcversion" : "Version: 0.5.0-develop.2018.11.9+commit.9709dfe0.Linux.g++",
            "source" : "src/BlockchainTestsFiller/GeneralStateTests/stRecursiveCreate/recursiveCreateReturnValue_d0g0v0Filler.json",
            "sourceHash" : "152225f37ed998331584b6d587e315781323b7618dd69c792483b2abc1ddd057"
        },
        "blocks" : [
            {
                "blockHeader" : {
                    "bloom" : "0x00000000000000000000000000000000000000000000000000000000000000000000000000000000000000000000000000000000000000000000000000000000000000000000000000000000000000000000000000000000000000000000000000000000000000000000000000000000000000000000000000000000000000000000000000000000000000000000000000000000000000000000000000000000000000000000000000000000000000000000000000000000000000000000000000000000000000000000000000000000000000000000000000000000000000000000000000000000000000000000000000000000000000000000000000000000",
                    "coinbase" : "0x2adc25665018aa1fe0e6bc666dac8fc2697ff9ba",
                    "difficulty" : "0x020000",
                    "extraData" : "0x",
                    "gasLimit" : "0x02540be400",
                    "gasUsed" : "0x0134112c",
                    "hash" : "0xc7e95b64a5adf67ddcdab1e0bba7e6cc07713965fa7326c81eb12e2599cdfe28",
                    "mixHash" : "0x0000000000000000000000000000000000000000000000000000000000000000",
                    "nonce" : "0x0000000000000000",
                    "number" : "0x01",
                    "parentHash" : "0x11194f5f68b49f1f88323fcd219077836a9bd79b2eb7c3e75df04bfd62d4c347",
                    "receiptTrie" : "0x0ab87d099b903740f049c3e057fb472b8e890fdd125937f22b4ee6d21f23ecf0",
                    "stateRoot" : "0x20f56c1890c24d898ce7c18f8b63dd99461e6bd5b974bd1a7fdb2f7e14472cb2",
                    "timestamp" : "0x03e8",
                    "transactionsTrie" : "0xb14d4e511cd1cd050a993566dc733305ccdfc7318d7ea754af53906f3af56461",
                    "uncleHash" : "0x1dcc4de8dec75d7aab85b567b6ccd41ad312451b948a7413f0a142fd40d49347"
                },
                "rlp" : "0xf90267f901fba011194f5f68b49f1f88323fcd219077836a9bd79b2eb7c3e75df04bfd62d4c347a01dcc4de8dec75d7aab85b567b6ccd41ad312451b948a7413f0a142fd40d49347942adc25665018aa1fe0e6bc666dac8fc2697ff9baa020f56c1890c24d898ce7c18f8b63dd99461e6bd5b974bd1a7fdb2f7e14472cb2a0b14d4e511cd1cd050a993566dc733305ccdfc7318d7ea754af53906f3af56461a00ab87d099b903740f049c3e057fb472b8e890fdd125937f22b4ee6d21f23ecf0b901000000000000000000000000000000000000000000000000000000000000000000000000000000000000000000000000000000000000000000000000000000000000000000000000000000000000000000000000000000000000000000000000000000000000000000000000000000000000000000000000000000000000000000000000000000000000000000000000000000000000000000000000000000000000000000000000000000000000000000000000000000000000000000000000000000000000000000000000000000000000000000000000000000000000000000000000000000000000000000000000000000000000000000000000000000000083020000018502540be400840134112c8203e880a00000000000000000000000000000000000000000000000000000000000000000880000000000000000f866f8648001843b9aca0094095e7baea6a6c7c4c2dfeb977efac326af552d87830186a0801ba0f887f2ca3ec36a75a448f79d918a98c1325f546833bb1fc2b380297227dda065a04b041227709c35276540c843d255d62194a7fc216157add44479854321f031d1c0",
                "transactions" : [
                    {
                        "data" : "0x",
                        "gasLimit" : "0x3b9aca00",
                        "gasPrice" : "0x01",
                        "nonce" : "0x00",
                        "r" : "0xf887f2ca3ec36a75a448f79d918a98c1325f546833bb1fc2b380297227dda065",
                        "s" : "0x4b041227709c35276540c843d255d62194a7fc216157add44479854321f031d1",
                        "to" : "0x095e7baea6a6c7c4c2dfeb977efac326af552d87",
                        "v" : "0x1b",
                        "value" : "0x0186a0"
                    }
                ],
                "uncleHeaders" : [
                ]
            }
        ],
        "genesisBlockHeader" : {
            "bloom" : "0x00000000000000000000000000000000000000000000000000000000000000000000000000000000000000000000000000000000000000000000000000000000000000000000000000000000000000000000000000000000000000000000000000000000000000000000000000000000000000000000000000000000000000000000000000000000000000000000000000000000000000000000000000000000000000000000000000000000000000000000000000000000000000000000000000000000000000000000000000000000000000000000000000000000000000000000000000000000000000000000000000000000000000000000000000000000",
            "coinbase" : "0x2adc25665018aa1fe0e6bc666dac8fc2697ff9ba",
            "difficulty" : "0x020000",
            "extraData" : "0x42",
            "gasLimit" : "0x02540be400",
            "gasUsed" : "0x00",
            "hash" : "0x11194f5f68b49f1f88323fcd219077836a9bd79b2eb7c3e75df04bfd62d4c347",
            "mixHash" : "0x56e81f171bcc55a6ff8345e692c0f86e5b48e01b996cadc001622fb5e363b421",
            "nonce" : "0x0102030405060708",
            "number" : "0x00",
            "parentHash" : "0x0000000000000000000000000000000000000000000000000000000000000000",
            "receiptTrie" : "0x56e81f171bcc55a6ff8345e692c0f86e5b48e01b996cadc001622fb5e363b421",
            "stateRoot" : "0x118ceaf658dd9cfa520d1a998346979437ecfee1e243e9d5dd3e41f0f68d6951",
            "timestamp" : "0x03b6",
            "transactionsTrie" : "0x56e81f171bcc55a6ff8345e692c0f86e5b48e01b996cadc001622fb5e363b421",
            "uncleHash" : "0x1dcc4de8dec75d7aab85b567b6ccd41ad312451b948a7413f0a142fd40d49347"
        },
        "genesisRLP" : "0xf901fcf901f7a00000000000000000000000000000000000000000000000000000000000000000a01dcc4de8dec75d7aab85b567b6ccd41ad312451b948a7413f0a142fd40d49347942adc25665018aa1fe0e6bc666dac8fc2697ff9baa0118ceaf658dd9cfa520d1a998346979437ecfee1e243e9d5dd3e41f0f68d6951a056e81f171bcc55a6ff8345e692c0f86e5b48e01b996cadc001622fb5e363b421a056e81f171bcc55a6ff8345e692c0f86e5b48e01b996cadc001622fb5e363b421b901000000000000000000000000000000000000000000000000000000000000000000000000000000000000000000000000000000000000000000000000000000000000000000000000000000000000000000000000000000000000000000000000000000000000000000000000000000000000000000000000000000000000000000000000000000000000000000000000000000000000000000000000000000000000000000000000000000000000000000000000000000000000000000000000000000000000000000000000000000000000000000000000000000000000000000000000000000000000000000000000000000000000000000000000000000000083020000808502540be400808203b642a056e81f171bcc55a6ff8345e692c0f86e5b48e01b996cadc001622fb5e363b421880102030405060708c0c0",
        "lastblockhash" : "0xc7e95b64a5adf67ddcdab1e0bba7e6cc07713965fa7326c81eb12e2599cdfe28",
        "network" : "EIP150",
        "postStateHash" : "0x20f56c1890c24d898ce7c18f8b63dd99461e6bd5b974bd1a7fdb2f7e14472cb2",
        "pre" : {
            "0x095e7baea6a6c7c4c2dfeb977efac326af552d87" : {
                "balance" : "0x01312d00",
                "code" : "0x602060006000396001602060006000f001600055",
                "nonce" : "0x00",
                "storage" : {
                }
            },
            "0xa94f5374fce5edbc8e2a8697c15331677e6ebf0b" : {
                "balance" : "0x0de0b6b3a7640000",
                "code" : "0x",
                "nonce" : "0x00",
                "storage" : {
                }
            }
        },
        "sealEngine" : "NoProof"
    },
    "recursiveCreateReturnValue_d0g0v0_EIP158" : {
        "_info" : {
            "comment" : "",
            "filledwith" : "testeth 1.7.0-alpha.1-20+commit.782a7283",
            "lllcversion" : "Version: 0.5.0-develop.2018.11.9+commit.9709dfe0.Linux.g++",
            "source" : "src/BlockchainTestsFiller/GeneralStateTests/stRecursiveCreate/recursiveCreateReturnValue_d0g0v0Filler.json",
            "sourceHash" : "152225f37ed998331584b6d587e315781323b7618dd69c792483b2abc1ddd057"
        },
        "blocks" : [
            {
                "blockHeader" : {
                    "bloom" : "0x00000000000000000000000000000000000000000000000000000000000000000000000000000000000000000000000000000000000000000000000000000000000000000000000000000000000000000000000000000000000000000000000000000000000000000000000000000000000000000000000000000000000000000000000000000000000000000000000000000000000000000000000000000000000000000000000000000000000000000000000000000000000000000000000000000000000000000000000000000000000000000000000000000000000000000000000000000000000000000000000000000000000000000000000000000000",
                    "coinbase" : "0x2adc25665018aa1fe0e6bc666dac8fc2697ff9ba",
                    "difficulty" : "0x020000",
                    "extraData" : "0x",
                    "gasLimit" : "0x02540be400",
                    "gasUsed" : "0x0134112c",
                    "hash" : "0xfc8ab71ec7f60b2c1b8b8785e4bbdda158bebb300e12df2932fbdc4d2cc031c6",
                    "mixHash" : "0x0000000000000000000000000000000000000000000000000000000000000000",
                    "nonce" : "0x0000000000000000",
                    "number" : "0x01",
                    "parentHash" : "0x11194f5f68b49f1f88323fcd219077836a9bd79b2eb7c3e75df04bfd62d4c347",
                    "receiptTrie" : "0x576a99a57bfc7b3223166de733aff9de7107225a9399910cded08e7af7554a15",
                    "stateRoot" : "0x7af37976bf3b50b2abfd1ad9cdf64732b92809294d1ecf3e3e07cda000d3d8df",
                    "timestamp" : "0x03e8",
                    "transactionsTrie" : "0xb14d4e511cd1cd050a993566dc733305ccdfc7318d7ea754af53906f3af56461",
                    "uncleHash" : "0x1dcc4de8dec75d7aab85b567b6ccd41ad312451b948a7413f0a142fd40d49347"
                },
                "rlp" : "0xf90267f901fba011194f5f68b49f1f88323fcd219077836a9bd79b2eb7c3e75df04bfd62d4c347a01dcc4de8dec75d7aab85b567b6ccd41ad312451b948a7413f0a142fd40d49347942adc25665018aa1fe0e6bc666dac8fc2697ff9baa07af37976bf3b50b2abfd1ad9cdf64732b92809294d1ecf3e3e07cda000d3d8dfa0b14d4e511cd1cd050a993566dc733305ccdfc7318d7ea754af53906f3af56461a0576a99a57bfc7b3223166de733aff9de7107225a9399910cded08e7af7554a15b901000000000000000000000000000000000000000000000000000000000000000000000000000000000000000000000000000000000000000000000000000000000000000000000000000000000000000000000000000000000000000000000000000000000000000000000000000000000000000000000000000000000000000000000000000000000000000000000000000000000000000000000000000000000000000000000000000000000000000000000000000000000000000000000000000000000000000000000000000000000000000000000000000000000000000000000000000000000000000000000000000000000000000000000000000000000083020000018502540be400840134112c8203e880a00000000000000000000000000000000000000000000000000000000000000000880000000000000000f866f8648001843b9aca0094095e7baea6a6c7c4c2dfeb977efac326af552d87830186a0801ba0f887f2ca3ec36a75a448f79d918a98c1325f546833bb1fc2b380297227dda065a04b041227709c35276540c843d255d62194a7fc216157add44479854321f031d1c0",
                "transactions" : [
                    {
                        "data" : "0x",
                        "gasLimit" : "0x3b9aca00",
                        "gasPrice" : "0x01",
                        "nonce" : "0x00",
                        "r" : "0xf887f2ca3ec36a75a448f79d918a98c1325f546833bb1fc2b380297227dda065",
                        "s" : "0x4b041227709c35276540c843d255d62194a7fc216157add44479854321f031d1",
                        "to" : "0x095e7baea6a6c7c4c2dfeb977efac326af552d87",
                        "v" : "0x1b",
                        "value" : "0x0186a0"
                    }
                ],
                "uncleHeaders" : [
                ]
            }
        ],
        "genesisBlockHeader" : {
            "bloom" : "0x00000000000000000000000000000000000000000000000000000000000000000000000000000000000000000000000000000000000000000000000000000000000000000000000000000000000000000000000000000000000000000000000000000000000000000000000000000000000000000000000000000000000000000000000000000000000000000000000000000000000000000000000000000000000000000000000000000000000000000000000000000000000000000000000000000000000000000000000000000000000000000000000000000000000000000000000000000000000000000000000000000000000000000000000000000000",
            "coinbase" : "0x2adc25665018aa1fe0e6bc666dac8fc2697ff9ba",
            "difficulty" : "0x020000",
            "extraData" : "0x42",
            "gasLimit" : "0x02540be400",
            "gasUsed" : "0x00",
            "hash" : "0x11194f5f68b49f1f88323fcd219077836a9bd79b2eb7c3e75df04bfd62d4c347",
            "mixHash" : "0x56e81f171bcc55a6ff8345e692c0f86e5b48e01b996cadc001622fb5e363b421",
            "nonce" : "0x0102030405060708",
            "number" : "0x00",
            "parentHash" : "0x0000000000000000000000000000000000000000000000000000000000000000",
            "receiptTrie" : "0x56e81f171bcc55a6ff8345e692c0f86e5b48e01b996cadc001622fb5e363b421",
            "stateRoot" : "0x118ceaf658dd9cfa520d1a998346979437ecfee1e243e9d5dd3e41f0f68d6951",
            "timestamp" : "0x03b6",
            "transactionsTrie" : "0x56e81f171bcc55a6ff8345e692c0f86e5b48e01b996cadc001622fb5e363b421",
            "uncleHash" : "0x1dcc4de8dec75d7aab85b567b6ccd41ad312451b948a7413f0a142fd40d49347"
        },
        "genesisRLP" : "0xf901fcf901f7a00000000000000000000000000000000000000000000000000000000000000000a01dcc4de8dec75d7aab85b567b6ccd41ad312451b948a7413f0a142fd40d49347942adc25665018aa1fe0e6bc666dac8fc2697ff9baa0118ceaf658dd9cfa520d1a998346979437ecfee1e243e9d5dd3e41f0f68d6951a056e81f171bcc55a6ff8345e692c0f86e5b48e01b996cadc001622fb5e363b421a056e81f171bcc55a6ff8345e692c0f86e5b48e01b996cadc001622fb5e363b421b901000000000000000000000000000000000000000000000000000000000000000000000000000000000000000000000000000000000000000000000000000000000000000000000000000000000000000000000000000000000000000000000000000000000000000000000000000000000000000000000000000000000000000000000000000000000000000000000000000000000000000000000000000000000000000000000000000000000000000000000000000000000000000000000000000000000000000000000000000000000000000000000000000000000000000000000000000000000000000000000000000000000000000000000000000000000083020000808502540be400808203b642a056e81f171bcc55a6ff8345e692c0f86e5b48e01b996cadc001622fb5e363b421880102030405060708c0c0",
        "lastblockhash" : "0xfc8ab71ec7f60b2c1b8b8785e4bbdda158bebb300e12df2932fbdc4d2cc031c6",
        "network" : "EIP158",
        "postStateHash" : "0x7af37976bf3b50b2abfd1ad9cdf64732b92809294d1ecf3e3e07cda000d3d8df",
        "pre" : {
            "0x095e7baea6a6c7c4c2dfeb977efac326af552d87" : {
                "balance" : "0x01312d00",
                "code" : "0x602060006000396001602060006000f001600055",
                "nonce" : "0x00",
                "storage" : {
                }
            },
            "0xa94f5374fce5edbc8e2a8697c15331677e6ebf0b" : {
                "balance" : "0x0de0b6b3a7640000",
                "code" : "0x",
                "nonce" : "0x00",
                "storage" : {
                }
            }
        },
        "sealEngine" : "NoProof"
    },
    "recursiveCreateReturnValue_d0g0v0_Homestead" : {
        "_info" : {
            "comment" : "",
            "filledwith" : "testeth 1.7.0-alpha.1-20+commit.782a7283",
            "lllcversion" : "Version: 0.5.0-develop.2018.11.9+commit.9709dfe0.Linux.g++",
            "source" : "src/BlockchainTestsFiller/GeneralStateTests/stRecursiveCreate/recursiveCreateReturnValue_d0g0v0Filler.json",
            "sourceHash" : "152225f37ed998331584b6d587e315781323b7618dd69c792483b2abc1ddd057"
        },
        "blocks" : [
            {
                "blockHeader" : {
                    "bloom" : "0x00000000000000000000000000000000000000000000000000000000000000000000000000000000000000000000000000000000000000000000000000000000000000000000000000000000000000000000000000000000000000000000000000000000000000000000000000000000000000000000000000000000000000000000000000000000000000000000000000000000000000000000000000000000000000000000000000000000000000000000000000000000000000000000000000000000000000000000000000000000000000000000000000000000000000000000000000000000000000000000000000000000000000000000000000000000",
                    "coinbase" : "0x2adc25665018aa1fe0e6bc666dac8fc2697ff9ba",
                    "difficulty" : "0x020000",
                    "extraData" : "0x",
                    "gasLimit" : "0x02540be400",
                    "gasUsed" : "0x032e2d4c",
                    "hash" : "0xe2bdbf52b3115cef90e61e8700833f29e10f6dfd80a3cc94e2d86c9faced8bd6",
                    "mixHash" : "0x0000000000000000000000000000000000000000000000000000000000000000",
                    "nonce" : "0x0000000000000000",
                    "number" : "0x01",
                    "parentHash" : "0x11194f5f68b49f1f88323fcd219077836a9bd79b2eb7c3e75df04bfd62d4c347",
                    "receiptTrie" : "0x3ee5aba199d30c48c52ada707998d241b7f1699b946c211d6e91678ebc9f9f64",
                    "stateRoot" : "0x354cbd0814617c6178c7010b898f2a53c160bb13370eeb6cd90b0fefc7408fed",
                    "timestamp" : "0x03e8",
                    "transactionsTrie" : "0xb14d4e511cd1cd050a993566dc733305ccdfc7318d7ea754af53906f3af56461",
                    "uncleHash" : "0x1dcc4de8dec75d7aab85b567b6ccd41ad312451b948a7413f0a142fd40d49347"
                },
                "rlp" : "0xf90267f901fba011194f5f68b49f1f88323fcd219077836a9bd79b2eb7c3e75df04bfd62d4c347a01dcc4de8dec75d7aab85b567b6ccd41ad312451b948a7413f0a142fd40d49347942adc25665018aa1fe0e6bc666dac8fc2697ff9baa0354cbd0814617c6178c7010b898f2a53c160bb13370eeb6cd90b0fefc7408feda0b14d4e511cd1cd050a993566dc733305ccdfc7318d7ea754af53906f3af56461a03ee5aba199d30c48c52ada707998d241b7f1699b946c211d6e91678ebc9f9f64b901000000000000000000000000000000000000000000000000000000000000000000000000000000000000000000000000000000000000000000000000000000000000000000000000000000000000000000000000000000000000000000000000000000000000000000000000000000000000000000000000000000000000000000000000000000000000000000000000000000000000000000000000000000000000000000000000000000000000000000000000000000000000000000000000000000000000000000000000000000000000000000000000000000000000000000000000000000000000000000000000000000000000000000000000000000000083020000018502540be40084032e2d4c8203e880a00000000000000000000000000000000000000000000000000000000000000000880000000000000000f866f8648001843b9aca0094095e7baea6a6c7c4c2dfeb977efac326af552d87830186a0801ba0f887f2ca3ec36a75a448f79d918a98c1325f546833bb1fc2b380297227dda065a04b041227709c35276540c843d255d62194a7fc216157add44479854321f031d1c0",
                "transactions" : [
                    {
                        "data" : "0x",
                        "gasLimit" : "0x3b9aca00",
                        "gasPrice" : "0x01",
                        "nonce" : "0x00",
                        "r" : "0xf887f2ca3ec36a75a448f79d918a98c1325f546833bb1fc2b380297227dda065",
                        "s" : "0x4b041227709c35276540c843d255d62194a7fc216157add44479854321f031d1",
                        "to" : "0x095e7baea6a6c7c4c2dfeb977efac326af552d87",
                        "v" : "0x1b",
                        "value" : "0x0186a0"
                    }
                ],
                "uncleHeaders" : [
                ]
            }
        ],
        "genesisBlockHeader" : {
            "bloom" : "0x00000000000000000000000000000000000000000000000000000000000000000000000000000000000000000000000000000000000000000000000000000000000000000000000000000000000000000000000000000000000000000000000000000000000000000000000000000000000000000000000000000000000000000000000000000000000000000000000000000000000000000000000000000000000000000000000000000000000000000000000000000000000000000000000000000000000000000000000000000000000000000000000000000000000000000000000000000000000000000000000000000000000000000000000000000000",
            "coinbase" : "0x2adc25665018aa1fe0e6bc666dac8fc2697ff9ba",
            "difficulty" : "0x020000",
            "extraData" : "0x42",
            "gasLimit" : "0x02540be400",
            "gasUsed" : "0x00",
            "hash" : "0x11194f5f68b49f1f88323fcd219077836a9bd79b2eb7c3e75df04bfd62d4c347",
            "mixHash" : "0x56e81f171bcc55a6ff8345e692c0f86e5b48e01b996cadc001622fb5e363b421",
            "nonce" : "0x0102030405060708",
            "number" : "0x00",
            "parentHash" : "0x0000000000000000000000000000000000000000000000000000000000000000",
            "receiptTrie" : "0x56e81f171bcc55a6ff8345e692c0f86e5b48e01b996cadc001622fb5e363b421",
            "stateRoot" : "0x118ceaf658dd9cfa520d1a998346979437ecfee1e243e9d5dd3e41f0f68d6951",
            "timestamp" : "0x03b6",
            "transactionsTrie" : "0x56e81f171bcc55a6ff8345e692c0f86e5b48e01b996cadc001622fb5e363b421",
            "uncleHash" : "0x1dcc4de8dec75d7aab85b567b6ccd41ad312451b948a7413f0a142fd40d49347"
        },
        "genesisRLP" : "0xf901fcf901f7a00000000000000000000000000000000000000000000000000000000000000000a01dcc4de8dec75d7aab85b567b6ccd41ad312451b948a7413f0a142fd40d49347942adc25665018aa1fe0e6bc666dac8fc2697ff9baa0118ceaf658dd9cfa520d1a998346979437ecfee1e243e9d5dd3e41f0f68d6951a056e81f171bcc55a6ff8345e692c0f86e5b48e01b996cadc001622fb5e363b421a056e81f171bcc55a6ff8345e692c0f86e5b48e01b996cadc001622fb5e363b421b901000000000000000000000000000000000000000000000000000000000000000000000000000000000000000000000000000000000000000000000000000000000000000000000000000000000000000000000000000000000000000000000000000000000000000000000000000000000000000000000000000000000000000000000000000000000000000000000000000000000000000000000000000000000000000000000000000000000000000000000000000000000000000000000000000000000000000000000000000000000000000000000000000000000000000000000000000000000000000000000000000000000000000000000000000000000083020000808502540be400808203b642a056e81f171bcc55a6ff8345e692c0f86e5b48e01b996cadc001622fb5e363b421880102030405060708c0c0",
        "lastblockhash" : "0xe2bdbf52b3115cef90e61e8700833f29e10f6dfd80a3cc94e2d86c9faced8bd6",
        "network" : "Homestead",
        "postStateHash" : "0x354cbd0814617c6178c7010b898f2a53c160bb13370eeb6cd90b0fefc7408fed",
        "pre" : {
            "0x095e7baea6a6c7c4c2dfeb977efac326af552d87" : {
                "balance" : "0x01312d00",
                "code" : "0x602060006000396001602060006000f001600055",
                "nonce" : "0x00",
                "storage" : {
                }
            },
            "0xa94f5374fce5edbc8e2a8697c15331677e6ebf0b" : {
                "balance" : "0x0de0b6b3a7640000",
                "code" : "0x",
                "nonce" : "0x00",
                "storage" : {
                }
            }
        },
        "sealEngine" : "NoProof"
    }
}
