{
    "randomStatetest324_Byzantium" : {
        "_info" : {
            "comment" : "",
            "filledwith" : "testeth 1.8.0-alpha.0-12+commit.b120a12c",
            "lllcversion" : "Version: 0.5.12-develop.2019.9.13+commit.2d601a4f.Linux.g++",
            "source" : "src/BlockchainTestsFiller/ValidBlocks/bcStateTests/randomStatetest324Filler.json",
            "sourceHash" : "b71ec97bf363fbf0b9788d3a6353eca63d76f0b2a3e8e772cc4bc04cc362cfb6"
        },
        "blocks" : [
            {
                "blockHeader" : {
                    "bloom" : "0x00000000000000001000000000000000000000000000000000000000000000000000000000000000000000000000000000000000000000000000000000000000000000000000000000000000000000000000000000000000000000000000000000020000000000000200000000000000000000000000000000000000000000200000000000000000000000000000000000000000000400000000000000000000000000000000000004000000000000000000000000000000000000000000000000000000000000200000000000000000000000000000000000000000000000000000000040000000000000000000000000000010000000000000000000000000",
                    "coinbase" : "0x945304eb96065b2a98b57a48a06ae28d285a71b5",
                    "difficulty" : "0x020000",
                    "extraData" : "0x",
                    "gasLimit" : "0x7fe0000000000001",
                    "gasUsed" : "0x6109bc",
                    "hash" : "0x7cc24c06473ee327017e38b2f7a96156a5c0ef846f08d43a03eb9214172241c1",
                    "mixHash" : "0x0000000000000000000000000000000000000000000000000000000000000000",
                    "nonce" : "0x0000000000000000",
                    "number" : "0x01",
                    "parentHash" : "0x428a314855682f835a26abce3b518054c93dbdccfcda01f3f06380253a56f793",
                    "receiptTrie" : "0xf4f8028cf023e34dc1f33860dd0c741c07c6c16d8435fe89d9a460d962121768",
                    "stateRoot" : "0xd700570a35c6141e771c8dc94eb70bd1cb93ff003d122a3897fcc79368f1b0da",
                    "timestamp" : "0x5db6f80e",
                    "transactionsTrie" : "0xf8fdea333eba118c177f364e2e369f0660eb0a046a7a29b8adff4c1e06d63c48",
                    "uncleHash" : "0x1dcc4de8dec75d7aab85b567b6ccd41ad312451b948a7413f0a142fd40d49347"
                },
                "rlp" : "0xf90340f901ffa0428a314855682f835a26abce3b518054c93dbdccfcda01f3f06380253a56f793a01dcc4de8dec75d7aab85b567b6ccd41ad312451b948a7413f0a142fd40d4934794945304eb96065b2a98b57a48a06ae28d285a71b5a0d700570a35c6141e771c8dc94eb70bd1cb93ff003d122a3897fcc79368f1b0daa0f8fdea333eba118c177f364e2e369f0660eb0a046a7a29b8adff4c1e06d63c48a0f4f8028cf023e34dc1f33860dd0c741c07c6c16d8435fe89d9a460d962121768b90100000000000000000010000000000000000000000000000000000000000000000000000000000000000000000000000000000000000000000000000000000000000000000000000000000000000000000000000000000000000000000000000000000200000000000002000000000000000000000000000000000000000000002000000000000000000000000000000000000000000004000000000000000000000000000000000000040000000000000000000000000000000000000000000000000000000000002000000000000000000000000000000000000000000000000000000000400000000000000000000000000000100000000000000000000000008302000001887fe0000000000001836109bc845db6f80e80a00000000000000000000000000000000000000000000000000000000000000000880000000000000000f9013af901378001847c24b3d294095e7baea6a6c7c4c2dfeb977efac326af552d878448353323b8d17f00000000000000000000000000000000000000000000000000000000000000007f000000000000000000000000000000000000000000000000000000000000c3507f000000000000000000000000ffffffffffffffffffffffffffffffffffffffff827ffffffffffffffffffffffffffffffffffffffffffffffffffffffffffffffffe7f0000000000000000000000000000000000000000000000000000000000000001457fffffffffffffffffffffffffffffffffffffffffffffffffffffffffffffffff620a445643a20543a01ca003d06fd1ff9f18f1b0340dac2b29eae7f5498352f37ac49ffebc9dbb0be831f2a076208eb4f03100e6205ce4ad3f364d239cb93b91031c7c9a89e4aa5b15ff3340c0",
                "transactions" : [
                    {
                        "data" : "0x7f00000000000000000000000000000000000000000000000000000000000000007f000000000000000000000000000000000000000000000000000000000000c3507f000000000000000000000000ffffffffffffffffffffffffffffffffffffffff827ffffffffffffffffffffffffffffffffffffffffffffffffffffffffffffffffe7f0000000000000000000000000000000000000000000000000000000000000001457fffffffffffffffffffffffffffffffffffffffffffffffffffffffffffffffff620a445643a20543a0",
                        "gasLimit" : "0x7c24b3d2",
                        "gasPrice" : "0x01",
                        "nonce" : "0x00",
                        "r" : "0x03d06fd1ff9f18f1b0340dac2b29eae7f5498352f37ac49ffebc9dbb0be831f2",
                        "s" : "0x76208eb4f03100e6205ce4ad3f364d239cb93b91031c7c9a89e4aa5b15ff3340",
                        "to" : "0x095e7baea6a6c7c4c2dfeb977efac326af552d87",
                        "v" : "0x1c",
                        "value" : "0x48353323"
                    }
                ],
                "uncleHeaders" : [
                ]
            }
        ],
        "genesisBlockHeader" : {
            "bloom" : "0x00000000000000000000000000000000000000000000000000000000000000000000000000000000000000000000000000000000000000000000000000000000000000000000000000000000000000000000000000000000000000000000000000000000000000000000000000000000000000000000000000000000000000000000000000000000000000000000000000000000000000000000000000000000000000000000000000000000000000000000000000000000000000000000000000000000000000000000000000000000000000000000000000000000000000000000000000000000000000000000000000000000000000000000000000000000",
            "coinbase" : "0x945304eb96065b2a98b57a48a06ae28d285a71b5",
            "difficulty" : "0x020000",
            "extraData" : "0x42",
            "gasLimit" : "0x7fffffffffffffff",
            "gasUsed" : "0x00",
            "hash" : "0x428a314855682f835a26abce3b518054c93dbdccfcda01f3f06380253a56f793",
            "mixHash" : "0x56e81f171bcc55a6ff8345e692c0f86e5b48e01b996cadc001622fb5e363b421",
            "nonce" : "0x0102030405060708",
            "number" : "0x00",
            "parentHash" : "0x0000000000000000000000000000000000000000000000000000000000000000",
            "receiptTrie" : "0x56e81f171bcc55a6ff8345e692c0f86e5b48e01b996cadc001622fb5e363b421",
            "stateRoot" : "0x682d96eaa167fb589dc964e43c276b9971b7a0e1cac8b877395d4e1b5bcff04b",
            "timestamp" : "0x03e8",
            "transactionsTrie" : "0x56e81f171bcc55a6ff8345e692c0f86e5b48e01b996cadc001622fb5e363b421",
            "uncleHash" : "0x1dcc4de8dec75d7aab85b567b6ccd41ad312451b948a7413f0a142fd40d49347"
        },
        "genesisRLP" : "0xf901fff901faa00000000000000000000000000000000000000000000000000000000000000000a01dcc4de8dec75d7aab85b567b6ccd41ad312451b948a7413f0a142fd40d4934794945304eb96065b2a98b57a48a06ae28d285a71b5a0682d96eaa167fb589dc964e43c276b9971b7a0e1cac8b877395d4e1b5bcff04ba056e81f171bcc55a6ff8345e692c0f86e5b48e01b996cadc001622fb5e363b421a056e81f171bcc55a6ff8345e692c0f86e5b48e01b996cadc001622fb5e363b421b90100000000000000000000000000000000000000000000000000000000000000000000000000000000000000000000000000000000000000000000000000000000000000000000000000000000000000000000000000000000000000000000000000000000000000000000000000000000000000000000000000000000000000000000000000000000000000000000000000000000000000000000000000000000000000000000000000000000000000000000000000000000000000000000000000000000000000000000000000000000000000000000000000000000000000000000000000000000000000000000000000000000000000000000000000000000008302000080887fffffffffffffff808203e842a056e81f171bcc55a6ff8345e692c0f86e5b48e01b996cadc001622fb5e363b421880102030405060708c0c0",
        "lastblockhash" : "0x7cc24c06473ee327017e38b2f7a96156a5c0ef846f08d43a03eb9214172241c1",
        "network" : "Byzantium",
        "postState" : {
            "0x095e7baea6a6c7c4c2dfeb977efac326af552d87" : {
                "balance" : "0x48353323",
                "code" : "0x7f00000000000000000000000000000000000000000000000000000000000000007f000000000000000000000000000000000000000000000000000000000000c3507f000000000000000000000000ffffffffffffffffffffffffffffffffffffffff827ffffffffffffffffffffffffffffffffffffffffffffffffffffffffffffffffe7f0000000000000000000000000000000000000000000000000000000000000001457fffffffffffffffffffffffffffffffffffffffffffffffffffffffffffffffff620a445643a20543a055",
                "nonce" : "0x00",
                "storage" : {
                    "0x00" : "0xffffffffffffffffffffffffffffffffffffffff"
                }
            },
            "0x945304eb96065b2a98b57a48a06ae28d285a71b5" : {
                "balance" : "0x29a2241af68d09ea",
                "code" : "0x6000355415600957005b60203560003555",
                "nonce" : "0x00",
                "storage" : {
                }
            },
            "0xa94f5374fce5edbc8e2a8697c15331677e6ebf0b" : {
                "balance" : "0x0de0b6b35ecdc321",
                "code" : "0x",
                "nonce" : "0x01",
                "storage" : {
                }
            }
        },
        "pre" : {
            "0x095e7baea6a6c7c4c2dfeb977efac326af552d87" : {
                "balance" : "0x00",
                "code" : "0x7f00000000000000000000000000000000000000000000000000000000000000007f000000000000000000000000000000000000000000000000000000000000c3507f000000000000000000000000ffffffffffffffffffffffffffffffffffffffff827ffffffffffffffffffffffffffffffffffffffffffffffffffffffffffffffffe7f0000000000000000000000000000000000000000000000000000000000000001457fffffffffffffffffffffffffffffffffffffffffffffffffffffffffffffffff620a445643a20543a055",
                "nonce" : "0x00",
                "storage" : {
                }
            },
            "0x945304eb96065b2a98b57a48a06ae28d285a71b5" : {
                "balance" : "0x2e",
                "code" : "0x6000355415600957005b60203560003555",
                "nonce" : "0x00",
                "storage" : {
                }
            },
            "0xa94f5374fce5edbc8e2a8697c15331677e6ebf0b" : {
                "balance" : "0x0de0b6b3a7640000",
                "code" : "0x",
                "nonce" : "0x00",
                "storage" : {
                }
            }
        },
        "sealEngine" : "NoProof"
    },
    "randomStatetest324_Constantinople" : {
        "_info" : {
            "comment" : "",
            "filledwith" : "testeth 1.8.0-alpha.0-12+commit.b120a12c",
            "lllcversion" : "Version: 0.5.12-develop.2019.9.13+commit.2d601a4f.Linux.g++",
            "source" : "src/BlockchainTestsFiller/ValidBlocks/bcStateTests/randomStatetest324Filler.json",
            "sourceHash" : "b71ec97bf363fbf0b9788d3a6353eca63d76f0b2a3e8e772cc4bc04cc362cfb6"
        },
        "blocks" : [
            {
                "blockHeader" : {
                    "bloom" : "0x00000000000000001000000000000000000000000000000000000000000000000000000000000000000000000000000000000000000000000000000000000000000000000000000000000000000000000000000000000000000000000000000000020000000000000200000000000000000000000000000000000000000000200000000000000000000000000000000000000000000400000000000000000000000000000000000004000000000000000000000000000000000000000000000000000000000000200000000000000000000000000000000000000000000000000000000040000000000000000000000000000010000000000000000000000000",
                    "coinbase" : "0x945304eb96065b2a98b57a48a06ae28d285a71b5",
                    "difficulty" : "0x020000",
                    "extraData" : "0x",
                    "gasLimit" : "0x7fe0000000000001",
                    "gasUsed" : "0x6109bc",
                    "hash" : "0xa363071862b04a582bd0ae3711388f673f55320ec9923358cee8de78484f980a",
                    "mixHash" : "0x0000000000000000000000000000000000000000000000000000000000000000",
                    "nonce" : "0x0000000000000000",
                    "number" : "0x01",
                    "parentHash" : "0x428a314855682f835a26abce3b518054c93dbdccfcda01f3f06380253a56f793",
                    "receiptTrie" : "0xf4f8028cf023e34dc1f33860dd0c741c07c6c16d8435fe89d9a460d962121768",
                    "stateRoot" : "0x0522cd17412d2a5b16fa158cec085fafa4b60590e3ef0845be94d205038a4328",
                    "timestamp" : "0x5db6f80e",
                    "transactionsTrie" : "0xf8fdea333eba118c177f364e2e369f0660eb0a046a7a29b8adff4c1e06d63c48",
                    "uncleHash" : "0x1dcc4de8dec75d7aab85b567b6ccd41ad312451b948a7413f0a142fd40d49347"
                },
                "rlp" : "0xf90340f901ffa0428a314855682f835a26abce3b518054c93dbdccfcda01f3f06380253a56f793a01dcc4de8dec75d7aab85b567b6ccd41ad312451b948a7413f0a142fd40d4934794945304eb96065b2a98b57a48a06ae28d285a71b5a00522cd17412d2a5b16fa158cec085fafa4b60590e3ef0845be94d205038a4328a0f8fdea333eba118c177f364e2e369f0660eb0a046a7a29b8adff4c1e06d63c48a0f4f8028cf023e34dc1f33860dd0c741c07c6c16d8435fe89d9a460d962121768b90100000000000000000010000000000000000000000000000000000000000000000000000000000000000000000000000000000000000000000000000000000000000000000000000000000000000000000000000000000000000000000000000000000200000000000002000000000000000000000000000000000000000000002000000000000000000000000000000000000000000004000000000000000000000000000000000000040000000000000000000000000000000000000000000000000000000000002000000000000000000000000000000000000000000000000000000000400000000000000000000000000000100000000000000000000000008302000001887fe0000000000001836109bc845db6f80e80a00000000000000000000000000000000000000000000000000000000000000000880000000000000000f9013af901378001847c24b3d294095e7baea6a6c7c4c2dfeb977efac326af552d878448353323b8d17f00000000000000000000000000000000000000000000000000000000000000007f000000000000000000000000000000000000000000000000000000000000c3507f000000000000000000000000ffffffffffffffffffffffffffffffffffffffff827ffffffffffffffffffffffffffffffffffffffffffffffffffffffffffffffffe7f0000000000000000000000000000000000000000000000000000000000000001457fffffffffffffffffffffffffffffffffffffffffffffffffffffffffffffffff620a445643a20543a01ca003d06fd1ff9f18f1b0340dac2b29eae7f5498352f37ac49ffebc9dbb0be831f2a076208eb4f03100e6205ce4ad3f364d239cb93b91031c7c9a89e4aa5b15ff3340c0",
                "transactions" : [
                    {
                        "data" : "0x7f00000000000000000000000000000000000000000000000000000000000000007f000000000000000000000000000000000000000000000000000000000000c3507f000000000000000000000000ffffffffffffffffffffffffffffffffffffffff827ffffffffffffffffffffffffffffffffffffffffffffffffffffffffffffffffe7f0000000000000000000000000000000000000000000000000000000000000001457fffffffffffffffffffffffffffffffffffffffffffffffffffffffffffffffff620a445643a20543a0",
                        "gasLimit" : "0x7c24b3d2",
                        "gasPrice" : "0x01",
                        "nonce" : "0x00",
                        "r" : "0x03d06fd1ff9f18f1b0340dac2b29eae7f5498352f37ac49ffebc9dbb0be831f2",
                        "s" : "0x76208eb4f03100e6205ce4ad3f364d239cb93b91031c7c9a89e4aa5b15ff3340",
                        "to" : "0x095e7baea6a6c7c4c2dfeb977efac326af552d87",
                        "v" : "0x1c",
                        "value" : "0x48353323"
                    }
                ],
                "uncleHeaders" : [
                ]
            }
        ],
        "genesisBlockHeader" : {
            "bloom" : "0x00000000000000000000000000000000000000000000000000000000000000000000000000000000000000000000000000000000000000000000000000000000000000000000000000000000000000000000000000000000000000000000000000000000000000000000000000000000000000000000000000000000000000000000000000000000000000000000000000000000000000000000000000000000000000000000000000000000000000000000000000000000000000000000000000000000000000000000000000000000000000000000000000000000000000000000000000000000000000000000000000000000000000000000000000000000",
            "coinbase" : "0x945304eb96065b2a98b57a48a06ae28d285a71b5",
            "difficulty" : "0x020000",
            "extraData" : "0x42",
            "gasLimit" : "0x7fffffffffffffff",
            "gasUsed" : "0x00",
            "hash" : "0x428a314855682f835a26abce3b518054c93dbdccfcda01f3f06380253a56f793",
            "mixHash" : "0x56e81f171bcc55a6ff8345e692c0f86e5b48e01b996cadc001622fb5e363b421",
            "nonce" : "0x0102030405060708",
            "number" : "0x00",
            "parentHash" : "0x0000000000000000000000000000000000000000000000000000000000000000",
            "receiptTrie" : "0x56e81f171bcc55a6ff8345e692c0f86e5b48e01b996cadc001622fb5e363b421",
            "stateRoot" : "0x682d96eaa167fb589dc964e43c276b9971b7a0e1cac8b877395d4e1b5bcff04b",
            "timestamp" : "0x03e8",
            "transactionsTrie" : "0x56e81f171bcc55a6ff8345e692c0f86e5b48e01b996cadc001622fb5e363b421",
            "uncleHash" : "0x1dcc4de8dec75d7aab85b567b6ccd41ad312451b948a7413f0a142fd40d49347"
        },
        "genesisRLP" : "0xf901fff901faa00000000000000000000000000000000000000000000000000000000000000000a01dcc4de8dec75d7aab85b567b6ccd41ad312451b948a7413f0a142fd40d4934794945304eb96065b2a98b57a48a06ae28d285a71b5a0682d96eaa167fb589dc964e43c276b9971b7a0e1cac8b877395d4e1b5bcff04ba056e81f171bcc55a6ff8345e692c0f86e5b48e01b996cadc001622fb5e363b421a056e81f171bcc55a6ff8345e692c0f86e5b48e01b996cadc001622fb5e363b421b90100000000000000000000000000000000000000000000000000000000000000000000000000000000000000000000000000000000000000000000000000000000000000000000000000000000000000000000000000000000000000000000000000000000000000000000000000000000000000000000000000000000000000000000000000000000000000000000000000000000000000000000000000000000000000000000000000000000000000000000000000000000000000000000000000000000000000000000000000000000000000000000000000000000000000000000000000000000000000000000000000000000000000000000000000000000008302000080887fffffffffffffff808203e842a056e81f171bcc55a6ff8345e692c0f86e5b48e01b996cadc001622fb5e363b421880102030405060708c0c0",
        "lastblockhash" : "0xa363071862b04a582bd0ae3711388f673f55320ec9923358cee8de78484f980a",
        "network" : "Constantinople",
        "postState" : {
            "0x095e7baea6a6c7c4c2dfeb977efac326af552d87" : {
                "balance" : "0x48353323",
                "code" : "0x7f00000000000000000000000000000000000000000000000000000000000000007f000000000000000000000000000000000000000000000000000000000000c3507f000000000000000000000000ffffffffffffffffffffffffffffffffffffffff827ffffffffffffffffffffffffffffffffffffffffffffffffffffffffffffffffe7f0000000000000000000000000000000000000000000000000000000000000001457fffffffffffffffffffffffffffffffffffffffffffffffffffffffffffffffff620a445643a20543a055",
                "nonce" : "0x00",
                "storage" : {
                    "0x00" : "0xffffffffffffffffffffffffffffffffffffffff"
                }
            },
            "0x945304eb96065b2a98b57a48a06ae28d285a71b5" : {
                "balance" : "0x1bc16d674f2909ea",
                "code" : "0x6000355415600957005b60203560003555",
                "nonce" : "0x00",
                "storage" : {
                }
            },
            "0xa94f5374fce5edbc8e2a8697c15331677e6ebf0b" : {
                "balance" : "0x0de0b6b35ecdc321",
                "code" : "0x",
                "nonce" : "0x01",
                "storage" : {
                }
            }
        },
        "pre" : {
            "0x095e7baea6a6c7c4c2dfeb977efac326af552d87" : {
                "balance" : "0x00",
                "code" : "0x7f00000000000000000000000000000000000000000000000000000000000000007f000000000000000000000000000000000000000000000000000000000000c3507f000000000000000000000000ffffffffffffffffffffffffffffffffffffffff827ffffffffffffffffffffffffffffffffffffffffffffffffffffffffffffffffe7f0000000000000000000000000000000000000000000000000000000000000001457fffffffffffffffffffffffffffffffffffffffffffffffffffffffffffffffff620a445643a20543a055",
                "nonce" : "0x00",
                "storage" : {
                }
            },
            "0x945304eb96065b2a98b57a48a06ae28d285a71b5" : {
                "balance" : "0x2e",
                "code" : "0x6000355415600957005b60203560003555",
                "nonce" : "0x00",
                "storage" : {
                }
            },
            "0xa94f5374fce5edbc8e2a8697c15331677e6ebf0b" : {
                "balance" : "0x0de0b6b3a7640000",
                "code" : "0x",
                "nonce" : "0x00",
                "storage" : {
                }
            }
        },
        "sealEngine" : "NoProof"
    },
    "randomStatetest324_ConstantinopleFix" : {
        "_info" : {
            "comment" : "",
            "filledwith" : "testeth 1.8.0-alpha.0-12+commit.b120a12c",
            "lllcversion" : "Version: 0.5.12-develop.2019.9.13+commit.2d601a4f.Linux.g++",
            "source" : "src/BlockchainTestsFiller/ValidBlocks/bcStateTests/randomStatetest324Filler.json",
            "sourceHash" : "b71ec97bf363fbf0b9788d3a6353eca63d76f0b2a3e8e772cc4bc04cc362cfb6"
        },
        "blocks" : [
            {
                "blockHeader" : {
                    "bloom" : "0x00000000000000001000000000000000000000000000000000000000000000000000000000000000000000000000000000000000000000000000000000000000000000000000000000000000000000000000000000000000000000000000000000020000000000000200000000000000000000000000000000000000000000200000000000000000000000000000000000000000000400000000000000000000000000000000000004000000000000000000000000000000000000000000000000000000000000200000000000000000000000000000000000000000000000000000000040000000000000000000000000000010000000000000000000000000",
                    "coinbase" : "0x945304eb96065b2a98b57a48a06ae28d285a71b5",
                    "difficulty" : "0x020000",
                    "extraData" : "0x",
                    "gasLimit" : "0x7fe0000000000001",
                    "gasUsed" : "0x6109bc",
                    "hash" : "0xa363071862b04a582bd0ae3711388f673f55320ec9923358cee8de78484f980a",
                    "mixHash" : "0x0000000000000000000000000000000000000000000000000000000000000000",
                    "nonce" : "0x0000000000000000",
                    "number" : "0x01",
                    "parentHash" : "0x428a314855682f835a26abce3b518054c93dbdccfcda01f3f06380253a56f793",
                    "receiptTrie" : "0xf4f8028cf023e34dc1f33860dd0c741c07c6c16d8435fe89d9a460d962121768",
                    "stateRoot" : "0x0522cd17412d2a5b16fa158cec085fafa4b60590e3ef0845be94d205038a4328",
                    "timestamp" : "0x5db6f80e",
                    "transactionsTrie" : "0xf8fdea333eba118c177f364e2e369f0660eb0a046a7a29b8adff4c1e06d63c48",
                    "uncleHash" : "0x1dcc4de8dec75d7aab85b567b6ccd41ad312451b948a7413f0a142fd40d49347"
                },
                "rlp" : "0xf90340f901ffa0428a314855682f835a26abce3b518054c93dbdccfcda01f3f06380253a56f793a01dcc4de8dec75d7aab85b567b6ccd41ad312451b948a7413f0a142fd40d4934794945304eb96065b2a98b57a48a06ae28d285a71b5a00522cd17412d2a5b16fa158cec085fafa4b60590e3ef0845be94d205038a4328a0f8fdea333eba118c177f364e2e369f0660eb0a046a7a29b8adff4c1e06d63c48a0f4f8028cf023e34dc1f33860dd0c741c07c6c16d8435fe89d9a460d962121768b90100000000000000000010000000000000000000000000000000000000000000000000000000000000000000000000000000000000000000000000000000000000000000000000000000000000000000000000000000000000000000000000000000000200000000000002000000000000000000000000000000000000000000002000000000000000000000000000000000000000000004000000000000000000000000000000000000040000000000000000000000000000000000000000000000000000000000002000000000000000000000000000000000000000000000000000000000400000000000000000000000000000100000000000000000000000008302000001887fe0000000000001836109bc845db6f80e80a00000000000000000000000000000000000000000000000000000000000000000880000000000000000f9013af901378001847c24b3d294095e7baea6a6c7c4c2dfeb977efac326af552d878448353323b8d17f00000000000000000000000000000000000000000000000000000000000000007f000000000000000000000000000000000000000000000000000000000000c3507f000000000000000000000000ffffffffffffffffffffffffffffffffffffffff827ffffffffffffffffffffffffffffffffffffffffffffffffffffffffffffffffe7f0000000000000000000000000000000000000000000000000000000000000001457fffffffffffffffffffffffffffffffffffffffffffffffffffffffffffffffff620a445643a20543a01ca003d06fd1ff9f18f1b0340dac2b29eae7f5498352f37ac49ffebc9dbb0be831f2a076208eb4f03100e6205ce4ad3f364d239cb93b91031c7c9a89e4aa5b15ff3340c0",
                "transactions" : [
                    {
                        "data" : "0x7f00000000000000000000000000000000000000000000000000000000000000007f000000000000000000000000000000000000000000000000000000000000c3507f000000000000000000000000ffffffffffffffffffffffffffffffffffffffff827ffffffffffffffffffffffffffffffffffffffffffffffffffffffffffffffffe7f0000000000000000000000000000000000000000000000000000000000000001457fffffffffffffffffffffffffffffffffffffffffffffffffffffffffffffffff620a445643a20543a0",
                        "gasLimit" : "0x7c24b3d2",
                        "gasPrice" : "0x01",
                        "nonce" : "0x00",
                        "r" : "0x03d06fd1ff9f18f1b0340dac2b29eae7f5498352f37ac49ffebc9dbb0be831f2",
                        "s" : "0x76208eb4f03100e6205ce4ad3f364d239cb93b91031c7c9a89e4aa5b15ff3340",
                        "to" : "0x095e7baea6a6c7c4c2dfeb977efac326af552d87",
                        "v" : "0x1c",
                        "value" : "0x48353323"
                    }
                ],
                "uncleHeaders" : [
                ]
            }
        ],
        "genesisBlockHeader" : {
            "bloom" : "0x00000000000000000000000000000000000000000000000000000000000000000000000000000000000000000000000000000000000000000000000000000000000000000000000000000000000000000000000000000000000000000000000000000000000000000000000000000000000000000000000000000000000000000000000000000000000000000000000000000000000000000000000000000000000000000000000000000000000000000000000000000000000000000000000000000000000000000000000000000000000000000000000000000000000000000000000000000000000000000000000000000000000000000000000000000000",
            "coinbase" : "0x945304eb96065b2a98b57a48a06ae28d285a71b5",
            "difficulty" : "0x020000",
            "extraData" : "0x42",
            "gasLimit" : "0x7fffffffffffffff",
            "gasUsed" : "0x00",
            "hash" : "0x428a314855682f835a26abce3b518054c93dbdccfcda01f3f06380253a56f793",
            "mixHash" : "0x56e81f171bcc55a6ff8345e692c0f86e5b48e01b996cadc001622fb5e363b421",
            "nonce" : "0x0102030405060708",
            "number" : "0x00",
            "parentHash" : "0x0000000000000000000000000000000000000000000000000000000000000000",
            "receiptTrie" : "0x56e81f171bcc55a6ff8345e692c0f86e5b48e01b996cadc001622fb5e363b421",
            "stateRoot" : "0x682d96eaa167fb589dc964e43c276b9971b7a0e1cac8b877395d4e1b5bcff04b",
            "timestamp" : "0x03e8",
            "transactionsTrie" : "0x56e81f171bcc55a6ff8345e692c0f86e5b48e01b996cadc001622fb5e363b421",
            "uncleHash" : "0x1dcc4de8dec75d7aab85b567b6ccd41ad312451b948a7413f0a142fd40d49347"
        },
        "genesisRLP" : "0xf901fff901faa00000000000000000000000000000000000000000000000000000000000000000a01dcc4de8dec75d7aab85b567b6ccd41ad312451b948a7413f0a142fd40d4934794945304eb96065b2a98b57a48a06ae28d285a71b5a0682d96eaa167fb589dc964e43c276b9971b7a0e1cac8b877395d4e1b5bcff04ba056e81f171bcc55a6ff8345e692c0f86e5b48e01b996cadc001622fb5e363b421a056e81f171bcc55a6ff8345e692c0f86e5b48e01b996cadc001622fb5e363b421b90100000000000000000000000000000000000000000000000000000000000000000000000000000000000000000000000000000000000000000000000000000000000000000000000000000000000000000000000000000000000000000000000000000000000000000000000000000000000000000000000000000000000000000000000000000000000000000000000000000000000000000000000000000000000000000000000000000000000000000000000000000000000000000000000000000000000000000000000000000000000000000000000000000000000000000000000000000000000000000000000000000000000000000000000000000000008302000080887fffffffffffffff808203e842a056e81f171bcc55a6ff8345e692c0f86e5b48e01b996cadc001622fb5e363b421880102030405060708c0c0",
        "lastblockhash" : "0xa363071862b04a582bd0ae3711388f673f55320ec9923358cee8de78484f980a",
        "network" : "ConstantinopleFix",
        "postState" : {
            "0x095e7baea6a6c7c4c2dfeb977efac326af552d87" : {
                "balance" : "0x48353323",
                "code" : "0x7f00000000000000000000000000000000000000000000000000000000000000007f000000000000000000000000000000000000000000000000000000000000c3507f000000000000000000000000ffffffffffffffffffffffffffffffffffffffff827ffffffffffffffffffffffffffffffffffffffffffffffffffffffffffffffffe7f0000000000000000000000000000000000000000000000000000000000000001457fffffffffffffffffffffffffffffffffffffffffffffffffffffffffffffffff620a445643a20543a055",
                "nonce" : "0x00",
                "storage" : {
                    "0x00" : "0xffffffffffffffffffffffffffffffffffffffff"
                }
            },
            "0x945304eb96065b2a98b57a48a06ae28d285a71b5" : {
                "balance" : "0x1bc16d674f2909ea",
                "code" : "0x6000355415600957005b60203560003555",
                "nonce" : "0x00",
                "storage" : {
                }
            },
            "0xa94f5374fce5edbc8e2a8697c15331677e6ebf0b" : {
                "balance" : "0x0de0b6b35ecdc321",
                "code" : "0x",
                "nonce" : "0x01",
                "storage" : {
                }
            }
        },
        "pre" : {
            "0x095e7baea6a6c7c4c2dfeb977efac326af552d87" : {
                "balance" : "0x00",
                "code" : "0x7f00000000000000000000000000000000000000000000000000000000000000007f000000000000000000000000000000000000000000000000000000000000c3507f000000000000000000000000ffffffffffffffffffffffffffffffffffffffff827ffffffffffffffffffffffffffffffffffffffffffffffffffffffffffffffffe7f0000000000000000000000000000000000000000000000000000000000000001457fffffffffffffffffffffffffffffffffffffffffffffffffffffffffffffffff620a445643a20543a055",
                "nonce" : "0x00",
                "storage" : {
                }
            },
            "0x945304eb96065b2a98b57a48a06ae28d285a71b5" : {
                "balance" : "0x2e",
                "code" : "0x6000355415600957005b60203560003555",
                "nonce" : "0x00",
                "storage" : {
                }
            },
            "0xa94f5374fce5edbc8e2a8697c15331677e6ebf0b" : {
                "balance" : "0x0de0b6b3a7640000",
                "code" : "0x",
                "nonce" : "0x00",
                "storage" : {
                }
            }
        },
        "sealEngine" : "NoProof"
    },
    "randomStatetest324_Homestead" : {
        "_info" : {
            "comment" : "",
            "filledwith" : "testeth 1.8.0-alpha.0-12+commit.b120a12c",
            "lllcversion" : "Version: 0.5.12-develop.2019.9.13+commit.2d601a4f.Linux.g++",
            "source" : "src/BlockchainTestsFiller/ValidBlocks/bcStateTests/randomStatetest324Filler.json",
            "sourceHash" : "b71ec97bf363fbf0b9788d3a6353eca63d76f0b2a3e8e772cc4bc04cc362cfb6"
        },
        "blocks" : [
            {
                "blockHeader" : {
                    "bloom" : "0x00000000000000001000000000000000000000000000000000000000000000000000000000000000000000000000000000000000000000000000000000000000000000000000000000000000000000000000000000000000000000000000000000020000000000000200000000000000000000000000000000000000000000200000000000000000000000000000000000000000000400000000000000000000000000000000000004000000000000000000000000000000000000000000000000000000000000200000000000000000000000000000000000000000000000000000000040000000000000000000000000000010000000000000000000000000",
                    "coinbase" : "0x945304eb96065b2a98b57a48a06ae28d285a71b5",
                    "difficulty" : "0x020000",
                    "extraData" : "0x",
                    "gasLimit" : "0x7fe0000000000001",
                    "gasUsed" : "0x6109bc",
                    "hash" : "0x552622faad6f58305dc5289c55314cec8c64a18e47592d53da74225fdb985c5f",
                    "mixHash" : "0x0000000000000000000000000000000000000000000000000000000000000000",
                    "nonce" : "0x0000000000000000",
                    "number" : "0x01",
                    "parentHash" : "0x428a314855682f835a26abce3b518054c93dbdccfcda01f3f06380253a56f793",
                    "receiptTrie" : "0xef1bbe0bc45e11c226a36b4f57ab86775358c2b053f0b69fff26880f6914e418",
                    "stateRoot" : "0x4c3343f44062c958803e93d680bffade50c9851af82dc971f5cfcd9448290cf0",
                    "timestamp" : "0x5db6f80e",
                    "transactionsTrie" : "0xf8fdea333eba118c177f364e2e369f0660eb0a046a7a29b8adff4c1e06d63c48",
                    "uncleHash" : "0x1dcc4de8dec75d7aab85b567b6ccd41ad312451b948a7413f0a142fd40d49347"
                },
                "rlp" : "0xf90340f901ffa0428a314855682f835a26abce3b518054c93dbdccfcda01f3f06380253a56f793a01dcc4de8dec75d7aab85b567b6ccd41ad312451b948a7413f0a142fd40d4934794945304eb96065b2a98b57a48a06ae28d285a71b5a04c3343f44062c958803e93d680bffade50c9851af82dc971f5cfcd9448290cf0a0f8fdea333eba118c177f364e2e369f0660eb0a046a7a29b8adff4c1e06d63c48a0ef1bbe0bc45e11c226a36b4f57ab86775358c2b053f0b69fff26880f6914e418b90100000000000000000010000000000000000000000000000000000000000000000000000000000000000000000000000000000000000000000000000000000000000000000000000000000000000000000000000000000000000000000000000000000200000000000002000000000000000000000000000000000000000000002000000000000000000000000000000000000000000004000000000000000000000000000000000000040000000000000000000000000000000000000000000000000000000000002000000000000000000000000000000000000000000000000000000000400000000000000000000000000000100000000000000000000000008302000001887fe0000000000001836109bc845db6f80e80a00000000000000000000000000000000000000000000000000000000000000000880000000000000000f9013af901378001847c24b3d294095e7baea6a6c7c4c2dfeb977efac326af552d878448353323b8d17f00000000000000000000000000000000000000000000000000000000000000007f000000000000000000000000000000000000000000000000000000000000c3507f000000000000000000000000ffffffffffffffffffffffffffffffffffffffff827ffffffffffffffffffffffffffffffffffffffffffffffffffffffffffffffffe7f0000000000000000000000000000000000000000000000000000000000000001457fffffffffffffffffffffffffffffffffffffffffffffffffffffffffffffffff620a445643a20543a01ca003d06fd1ff9f18f1b0340dac2b29eae7f5498352f37ac49ffebc9dbb0be831f2a076208eb4f03100e6205ce4ad3f364d239cb93b91031c7c9a89e4aa5b15ff3340c0",
                "transactions" : [
                    {
                        "data" : "0x7f00000000000000000000000000000000000000000000000000000000000000007f000000000000000000000000000000000000000000000000000000000000c3507f000000000000000000000000ffffffffffffffffffffffffffffffffffffffff827ffffffffffffffffffffffffffffffffffffffffffffffffffffffffffffffffe7f0000000000000000000000000000000000000000000000000000000000000001457fffffffffffffffffffffffffffffffffffffffffffffffffffffffffffffffff620a445643a20543a0",
                        "gasLimit" : "0x7c24b3d2",
                        "gasPrice" : "0x01",
                        "nonce" : "0x00",
                        "r" : "0x03d06fd1ff9f18f1b0340dac2b29eae7f5498352f37ac49ffebc9dbb0be831f2",
                        "s" : "0x76208eb4f03100e6205ce4ad3f364d239cb93b91031c7c9a89e4aa5b15ff3340",
                        "to" : "0x095e7baea6a6c7c4c2dfeb977efac326af552d87",
                        "v" : "0x1c",
                        "value" : "0x48353323"
                    }
                ],
                "uncleHeaders" : [
                ]
            }
        ],
        "genesisBlockHeader" : {
            "bloom" : "0x00000000000000000000000000000000000000000000000000000000000000000000000000000000000000000000000000000000000000000000000000000000000000000000000000000000000000000000000000000000000000000000000000000000000000000000000000000000000000000000000000000000000000000000000000000000000000000000000000000000000000000000000000000000000000000000000000000000000000000000000000000000000000000000000000000000000000000000000000000000000000000000000000000000000000000000000000000000000000000000000000000000000000000000000000000000",
            "coinbase" : "0x945304eb96065b2a98b57a48a06ae28d285a71b5",
            "difficulty" : "0x020000",
            "extraData" : "0x42",
            "gasLimit" : "0x7fffffffffffffff",
            "gasUsed" : "0x00",
            "hash" : "0x428a314855682f835a26abce3b518054c93dbdccfcda01f3f06380253a56f793",
            "mixHash" : "0x56e81f171bcc55a6ff8345e692c0f86e5b48e01b996cadc001622fb5e363b421",
            "nonce" : "0x0102030405060708",
            "number" : "0x00",
            "parentHash" : "0x0000000000000000000000000000000000000000000000000000000000000000",
            "receiptTrie" : "0x56e81f171bcc55a6ff8345e692c0f86e5b48e01b996cadc001622fb5e363b421",
            "stateRoot" : "0x682d96eaa167fb589dc964e43c276b9971b7a0e1cac8b877395d4e1b5bcff04b",
            "timestamp" : "0x03e8",
            "transactionsTrie" : "0x56e81f171bcc55a6ff8345e692c0f86e5b48e01b996cadc001622fb5e363b421",
            "uncleHash" : "0x1dcc4de8dec75d7aab85b567b6ccd41ad312451b948a7413f0a142fd40d49347"
        },
        "genesisRLP" : "0xf901fff901faa00000000000000000000000000000000000000000000000000000000000000000a01dcc4de8dec75d7aab85b567b6ccd41ad312451b948a7413f0a142fd40d4934794945304eb96065b2a98b57a48a06ae28d285a71b5a0682d96eaa167fb589dc964e43c276b9971b7a0e1cac8b877395d4e1b5bcff04ba056e81f171bcc55a6ff8345e692c0f86e5b48e01b996cadc001622fb5e363b421a056e81f171bcc55a6ff8345e692c0f86e5b48e01b996cadc001622fb5e363b421b90100000000000000000000000000000000000000000000000000000000000000000000000000000000000000000000000000000000000000000000000000000000000000000000000000000000000000000000000000000000000000000000000000000000000000000000000000000000000000000000000000000000000000000000000000000000000000000000000000000000000000000000000000000000000000000000000000000000000000000000000000000000000000000000000000000000000000000000000000000000000000000000000000000000000000000000000000000000000000000000000000000000000000000000000000000000008302000080887fffffffffffffff808203e842a056e81f171bcc55a6ff8345e692c0f86e5b48e01b996cadc001622fb5e363b421880102030405060708c0c0",
        "lastblockhash" : "0x552622faad6f58305dc5289c55314cec8c64a18e47592d53da74225fdb985c5f",
        "network" : "Homestead",
        "postState" : {
            "0x095e7baea6a6c7c4c2dfeb977efac326af552d87" : {
                "balance" : "0x48353323",
                "code" : "0x7f00000000000000000000000000000000000000000000000000000000000000007f000000000000000000000000000000000000000000000000000000000000c3507f000000000000000000000000ffffffffffffffffffffffffffffffffffffffff827ffffffffffffffffffffffffffffffffffffffffffffffffffffffffffffffffe7f0000000000000000000000000000000000000000000000000000000000000001457fffffffffffffffffffffffffffffffffffffffffffffffffffffffffffffffff620a445643a20543a055",
                "nonce" : "0x00",
                "storage" : {
                    "0x00" : "0xffffffffffffffffffffffffffffffffffffffff"
                }
            },
            "0x945304eb96065b2a98b57a48a06ae28d285a71b5" : {
                "balance" : "0x45639182455509ea",
                "code" : "0x6000355415600957005b60203560003555",
                "nonce" : "0x00",
                "storage" : {
                }
            },
            "0xa94f5374fce5edbc8e2a8697c15331677e6ebf0b" : {
                "balance" : "0x0de0b6b35ecdc321",
                "code" : "0x",
                "nonce" : "0x01",
                "storage" : {
                }
            }
        },
        "pre" : {
            "0x095e7baea6a6c7c4c2dfeb977efac326af552d87" : {
                "balance" : "0x00",
                "code" : "0x7f00000000000000000000000000000000000000000000000000000000000000007f000000000000000000000000000000000000000000000000000000000000c3507f000000000000000000000000ffffffffffffffffffffffffffffffffffffffff827ffffffffffffffffffffffffffffffffffffffffffffffffffffffffffffffffe7f0000000000000000000000000000000000000000000000000000000000000001457fffffffffffffffffffffffffffffffffffffffffffffffffffffffffffffffff620a445643a20543a055",
                "nonce" : "0x00",
                "storage" : {
                }
            },
            "0x945304eb96065b2a98b57a48a06ae28d285a71b5" : {
                "balance" : "0x2e",
                "code" : "0x6000355415600957005b60203560003555",
                "nonce" : "0x00",
                "storage" : {
                }
            },
            "0xa94f5374fce5edbc8e2a8697c15331677e6ebf0b" : {
                "balance" : "0x0de0b6b3a7640000",
                "code" : "0x",
                "nonce" : "0x00",
                "storage" : {
                }
            }
        },
        "sealEngine" : "NoProof"
    }
}