{
    "suicideStorageCheckVCreate2_Byzantium" : {
        "_info" : {
            "comment" : "[2:21:10] Vitalik Buterin: (i) set storage key 1 of contract C to 3. (ii) self-destruct contract C. (iii) in the next transaction create contract C, and read its storage key.  I - via old create2",
            "filledwith" : "testeth 1.8.0-alpha.0-12+commit.b120a12c",
            "lllcversion" : "Version: 0.5.12-develop.2019.9.13+commit.2d601a4f.Linux.g++",
            "source" : "src/BlockchainTestsFiller/ValidBlocks/bcStateTests/suicideStorageCheckVCreate2Filler.json",
            "sourceHash" : "dbbee369de468ea6ed5caa0f4e23e5d8832a4c7d20ffc15216d9770ec5fb5b34"
        },
        "blocks" : [
            {
                "blockHeader" : {
                    "bloom" : "0x00000000000000000000000000000000000000000000000000000000000000000000000000000000000000000000000000000000000000000000000000000000000000000000000000000000000000000000000000000000000000000000000000000000000000000000000000000000000000000000000000000000000000000000000000000000000000000000000000000000000000000000000000000000000000000000000000000000000000000000000000000000000000000000000000000000000000000000000000000000000000000000000000000000000000000000000000000000000000000000000000000000000000000000000000000000",
                    "coinbase" : "0x8888f1f195afa192cfee860698584c030f4c9db1",
                    "difficulty" : "0x020000",
                    "extraData" : "0x",
                    "gasLimit" : "0x2fefba",
                    "gasUsed" : "0x06d221",
                    "hash" : "0xa96ab80e2134f79d2c7cb060accfc7da35ecb610b3cfce9d29978ea2835d5613",
                    "mixHash" : "0x0000000000000000000000000000000000000000000000000000000000000000",
                    "nonce" : "0x0000000000000000",
                    "number" : "0x01",
                    "parentHash" : "0xe9ae9ea68acab7685657f1f6c9cb9fa6a5c113f5f1dea1b9474c59a71fca277c",
                    "receiptTrie" : "0x5c76c28fbfd74b7601db1b63589e7bf12840d83d0d0ca54a873654b131d0640b",
                    "stateRoot" : "0xd05914e07e6aafab35a4bea91ec7b337745d9d8b8a482fdfd0bdf4b136e7891e",
                    "timestamp" : "0x5db6f7f4",
                    "transactionsTrie" : "0x2884cfde215cb432725e96eb27b1844435c1889553f354a5a9de5e1726c811a0",
                    "uncleHash" : "0x1dcc4de8dec75d7aab85b567b6ccd41ad312451b948a7413f0a142fd40d49347"
                },
                "rlp" : "0xf902c9f901faa0e9ae9ea68acab7685657f1f6c9cb9fa6a5c113f5f1dea1b9474c59a71fca277ca01dcc4de8dec75d7aab85b567b6ccd41ad312451b948a7413f0a142fd40d49347948888f1f195afa192cfee860698584c030f4c9db1a0d05914e07e6aafab35a4bea91ec7b337745d9d8b8a482fdfd0bdf4b136e7891ea02884cfde215cb432725e96eb27b1844435c1889553f354a5a9de5e1726c811a0a05c76c28fbfd74b7601db1b63589e7bf12840d83d0d0ca54a873654b131d0640bb90100000000000000000000000000000000000000000000000000000000000000000000000000000000000000000000000000000000000000000000000000000000000000000000000000000000000000000000000000000000000000000000000000000000000000000000000000000000000000000000000000000000000000000000000000000000000000000000000000000000000000000000000000000000000000000000000000000000000000000000000000000000000000000000000000000000000000000000000000000000000000000000000000000000000000000000000000000000000000000000000000000000000000000000000000000000008302000001832fefba8306d221845db6f7f480a00000000000000000000000000000000000000000000000000000000000000000880000000000000000f8c9f860800183061a809403855fc81ba27fb87117ab961e6bef17f7e8425080801ba0c72b7ef409567591b7a1a23e6e3e7d1f26f9fb92a5b3ae48148cd3a5a71a48eca031e806a13be8afc352f8eef62f73c952a5db94f800e985719d88fed91d26b3dff865010183061a808080996a60015460035560026002556000526000600b60156000f5001ca0596eaf9530d73cceed8662ead15c4890f58b2b209c60a55e51d788ec6a69b51fa046acd78a360c75bced43fac6ceaf97997dc2caa3058ecb96ef6743d1b7941593c0",
                "transactions" : [
                    {
                        "data" : "0x",
                        "gasLimit" : "0x061a80",
                        "gasPrice" : "0x01",
                        "nonce" : "0x00",
                        "r" : "0xc72b7ef409567591b7a1a23e6e3e7d1f26f9fb92a5b3ae48148cd3a5a71a48ec",
                        "s" : "0x31e806a13be8afc352f8eef62f73c952a5db94f800e985719d88fed91d26b3df",
                        "to" : "0x03855fc81ba27fb87117ab961e6bef17f7e84250",
                        "v" : "0x1b",
                        "value" : "0x00"
                    },
                    {
                        "data" : "0x6a60015460035560026002556000526000600b60156000f500",
                        "gasLimit" : "0x061a80",
                        "gasPrice" : "0x01",
                        "nonce" : "0x01",
                        "r" : "0x596eaf9530d73cceed8662ead15c4890f58b2b209c60a55e51d788ec6a69b51f",
                        "s" : "0x46acd78a360c75bced43fac6ceaf97997dc2caa3058ecb96ef6743d1b7941593",
                        "to" : "",
                        "v" : "0x1c",
                        "value" : "0x00"
                    }
                ],
                "uncleHeaders" : [
                ]
            }
        ],
        "genesisBlockHeader" : {
            "bloom" : "0x00000000000000000000000000000000000000000000000000000000000000000000000000000000000000000000000000000000000000000000000000000000000000000000000000000000000000000000000000000000000000000000000000000000000000000000000000000000000000000000000000000000000000000000000000000000000000000000000000000000000000000000000000000000000000000000000000000000000000000000000000000000000000000000000000000000000000000000000000000000000000000000000000000000000000000000000000000000000000000000000000000000000000000000000000000000",
            "coinbase" : "0x8888f1f195afa192cfee860698584c030f4c9db1",
            "difficulty" : "0x020000",
            "extraData" : "0x42",
            "gasLimit" : "0x2fefd8",
            "gasUsed" : "0x00",
            "hash" : "0xe9ae9ea68acab7685657f1f6c9cb9fa6a5c113f5f1dea1b9474c59a71fca277c",
            "mixHash" : "0x56e81f171bcc55a6ff8345e692c0f86e5b48e01b996cadc001622fb5e363b421",
            "nonce" : "0x0102030405060708",
            "number" : "0x00",
            "parentHash" : "0x0000000000000000000000000000000000000000000000000000000000000000",
            "receiptTrie" : "0x56e81f171bcc55a6ff8345e692c0f86e5b48e01b996cadc001622fb5e363b421",
            "stateRoot" : "0x1c636c081661da525864e846aa81ce58e38d43a2b1986d4e3db4fbe819b2b1e9",
            "timestamp" : "0x54c98c81",
            "transactionsTrie" : "0x56e81f171bcc55a6ff8345e692c0f86e5b48e01b996cadc001622fb5e363b421",
            "uncleHash" : "0x1dcc4de8dec75d7aab85b567b6ccd41ad312451b948a7413f0a142fd40d49347"
        },
        "genesisRLP" : "0xf901fcf901f7a00000000000000000000000000000000000000000000000000000000000000000a01dcc4de8dec75d7aab85b567b6ccd41ad312451b948a7413f0a142fd40d49347948888f1f195afa192cfee860698584c030f4c9db1a01c636c081661da525864e846aa81ce58e38d43a2b1986d4e3db4fbe819b2b1e9a056e81f171bcc55a6ff8345e692c0f86e5b48e01b996cadc001622fb5e363b421a056e81f171bcc55a6ff8345e692c0f86e5b48e01b996cadc001622fb5e363b421b90100000000000000000000000000000000000000000000000000000000000000000000000000000000000000000000000000000000000000000000000000000000000000000000000000000000000000000000000000000000000000000000000000000000000000000000000000000000000000000000000000000000000000000000000000000000000000000000000000000000000000000000000000000000000000000000000000000000000000000000000000000000000000000000000000000000000000000000000000000000000000000000000000000000000000000000000000000000000000000000000000000000000000000000000000000000008302000080832fefd8808454c98c8142a056e81f171bcc55a6ff8345e692c0f86e5b48e01b996cadc001622fb5e363b421880102030405060708c0c0",
        "lastblockhash" : "0xa96ab80e2134f79d2c7cb060accfc7da35ecb610b3cfce9d29978ea2835d5613",
        "network" : "Byzantium",
        "postState" : {
            "0x0000000000000000000000000000000000000001" : {
                "balance" : "0x03e8",
                "code" : "0x",
                "nonce" : "0x00",
                "storage" : {
                }
            },
            "0x8888f1f195afa192cfee860698584c030f4c9db1" : {
                "balance" : "0x29a2241af632d221",
                "code" : "0x",
                "nonce" : "0x00",
                "storage" : {
                }
            },
            "0xa94f5374fce5edbc8e2a8697c15331677e6ebf0b" : {
                "balance" : "0x02540511df",
                "code" : "0x",
                "nonce" : "0x02",
                "storage" : {
                }
            }
        },
        "pre" : {
            "0x03855fc81ba27fb87117ab961e6bef17f7e84250" : {
                "balance" : "0x03e8",
                "code" : "0x60036001556001ff00",
                "nonce" : "0x00",
                "storage" : {
                }
            },
            "0xa94f5374fce5edbc8e2a8697c15331677e6ebf0b" : {
                "balance" : "0x02540be400",
                "code" : "0x",
                "nonce" : "0x00",
                "storage" : {
                }
            }
        },
        "sealEngine" : "NoProof"
    },
    "suicideStorageCheckVCreate2_Constantinople" : {
        "_info" : {
            "comment" : "[2:21:10] Vitalik Buterin: (i) set storage key 1 of contract C to 3. (ii) self-destruct contract C. (iii) in the next transaction create contract C, and read its storage key.  I - via old create2",
            "filledwith" : "testeth 1.8.0-alpha.0-12+commit.b120a12c",
            "lllcversion" : "Version: 0.5.12-develop.2019.9.13+commit.2d601a4f.Linux.g++",
            "source" : "src/BlockchainTestsFiller/ValidBlocks/bcStateTests/suicideStorageCheckVCreate2Filler.json",
            "sourceHash" : "dbbee369de468ea6ed5caa0f4e23e5d8832a4c7d20ffc15216d9770ec5fb5b34"
        },
        "blocks" : [
            {
                "blockHeader" : {
                    "bloom" : "0x00000000000000000000000000000000000000000000000000000000000000000000000000000000000000000000000000000000000000000000000000000000000000000000000000000000000000000000000000000000000000000000000000000000000000000000000000000000000000000000000000000000000000000000000000000000000000000000000000000000000000000000000000000000000000000000000000000000000000000000000000000000000000000000000000000000000000000000000000000000000000000000000000000000000000000000000000000000000000000000000000000000000000000000000000000000",
                    "coinbase" : "0x8888f1f195afa192cfee860698584c030f4c9db1",
                    "difficulty" : "0x020000",
                    "extraData" : "0x",
                    "gasLimit" : "0x2fefba",
                    "gasUsed" : "0x025927",
                    "hash" : "0x8d4c53013f884d1748d566749831d682b000a9648aac145f19b41b04efd12689",
                    "mixHash" : "0x0000000000000000000000000000000000000000000000000000000000000000",
                    "nonce" : "0x0000000000000000",
                    "number" : "0x01",
                    "parentHash" : "0xe9ae9ea68acab7685657f1f6c9cb9fa6a5c113f5f1dea1b9474c59a71fca277c",
                    "receiptTrie" : "0x3a1949d1f693313cca6c5de0738ada134e02f4ad42cc786795da80cff91c0f7d",
                    "stateRoot" : "0xc818ecc5aeef91e0c86352cf66e0c1c32e5c4fde3fe61f17900091253e3c2fcc",
                    "timestamp" : "0x5db6f7f4",
                    "transactionsTrie" : "0x2884cfde215cb432725e96eb27b1844435c1889553f354a5a9de5e1726c811a0",
                    "uncleHash" : "0x1dcc4de8dec75d7aab85b567b6ccd41ad312451b948a7413f0a142fd40d49347"
                },
                "rlp" : "0xf902c9f901faa0e9ae9ea68acab7685657f1f6c9cb9fa6a5c113f5f1dea1b9474c59a71fca277ca01dcc4de8dec75d7aab85b567b6ccd41ad312451b948a7413f0a142fd40d49347948888f1f195afa192cfee860698584c030f4c9db1a0c818ecc5aeef91e0c86352cf66e0c1c32e5c4fde3fe61f17900091253e3c2fcca02884cfde215cb432725e96eb27b1844435c1889553f354a5a9de5e1726c811a0a03a1949d1f693313cca6c5de0738ada134e02f4ad42cc786795da80cff91c0f7db90100000000000000000000000000000000000000000000000000000000000000000000000000000000000000000000000000000000000000000000000000000000000000000000000000000000000000000000000000000000000000000000000000000000000000000000000000000000000000000000000000000000000000000000000000000000000000000000000000000000000000000000000000000000000000000000000000000000000000000000000000000000000000000000000000000000000000000000000000000000000000000000000000000000000000000000000000000000000000000000000000000000000000000000000000000000008302000001832fefba83025927845db6f7f480a00000000000000000000000000000000000000000000000000000000000000000880000000000000000f8c9f860800183061a809403855fc81ba27fb87117ab961e6bef17f7e8425080801ba0c72b7ef409567591b7a1a23e6e3e7d1f26f9fb92a5b3ae48148cd3a5a71a48eca031e806a13be8afc352f8eef62f73c952a5db94f800e985719d88fed91d26b3dff865010183061a808080996a60015460035560026002556000526000600b60156000f5001ca0596eaf9530d73cceed8662ead15c4890f58b2b209c60a55e51d788ec6a69b51fa046acd78a360c75bced43fac6ceaf97997dc2caa3058ecb96ef6743d1b7941593c0",
                "transactions" : [
                    {
                        "data" : "0x",
                        "gasLimit" : "0x061a80",
                        "gasPrice" : "0x01",
                        "nonce" : "0x00",
                        "r" : "0xc72b7ef409567591b7a1a23e6e3e7d1f26f9fb92a5b3ae48148cd3a5a71a48ec",
                        "s" : "0x31e806a13be8afc352f8eef62f73c952a5db94f800e985719d88fed91d26b3df",
                        "to" : "0x03855fc81ba27fb87117ab961e6bef17f7e84250",
                        "v" : "0x1b",
                        "value" : "0x00"
                    },
                    {
                        "data" : "0x6a60015460035560026002556000526000600b60156000f500",
                        "gasLimit" : "0x061a80",
                        "gasPrice" : "0x01",
                        "nonce" : "0x01",
                        "r" : "0x596eaf9530d73cceed8662ead15c4890f58b2b209c60a55e51d788ec6a69b51f",
                        "s" : "0x46acd78a360c75bced43fac6ceaf97997dc2caa3058ecb96ef6743d1b7941593",
                        "to" : "",
                        "v" : "0x1c",
                        "value" : "0x00"
                    }
                ],
                "uncleHeaders" : [
                ]
            }
        ],
        "genesisBlockHeader" : {
            "bloom" : "0x00000000000000000000000000000000000000000000000000000000000000000000000000000000000000000000000000000000000000000000000000000000000000000000000000000000000000000000000000000000000000000000000000000000000000000000000000000000000000000000000000000000000000000000000000000000000000000000000000000000000000000000000000000000000000000000000000000000000000000000000000000000000000000000000000000000000000000000000000000000000000000000000000000000000000000000000000000000000000000000000000000000000000000000000000000000",
            "coinbase" : "0x8888f1f195afa192cfee860698584c030f4c9db1",
            "difficulty" : "0x020000",
            "extraData" : "0x42",
            "gasLimit" : "0x2fefd8",
            "gasUsed" : "0x00",
            "hash" : "0xe9ae9ea68acab7685657f1f6c9cb9fa6a5c113f5f1dea1b9474c59a71fca277c",
            "mixHash" : "0x56e81f171bcc55a6ff8345e692c0f86e5b48e01b996cadc001622fb5e363b421",
            "nonce" : "0x0102030405060708",
            "number" : "0x00",
            "parentHash" : "0x0000000000000000000000000000000000000000000000000000000000000000",
            "receiptTrie" : "0x56e81f171bcc55a6ff8345e692c0f86e5b48e01b996cadc001622fb5e363b421",
            "stateRoot" : "0x1c636c081661da525864e846aa81ce58e38d43a2b1986d4e3db4fbe819b2b1e9",
            "timestamp" : "0x54c98c81",
            "transactionsTrie" : "0x56e81f171bcc55a6ff8345e692c0f86e5b48e01b996cadc001622fb5e363b421",
            "uncleHash" : "0x1dcc4de8dec75d7aab85b567b6ccd41ad312451b948a7413f0a142fd40d49347"
        },
        "genesisRLP" : "0xf901fcf901f7a00000000000000000000000000000000000000000000000000000000000000000a01dcc4de8dec75d7aab85b567b6ccd41ad312451b948a7413f0a142fd40d49347948888f1f195afa192cfee860698584c030f4c9db1a01c636c081661da525864e846aa81ce58e38d43a2b1986d4e3db4fbe819b2b1e9a056e81f171bcc55a6ff8345e692c0f86e5b48e01b996cadc001622fb5e363b421a056e81f171bcc55a6ff8345e692c0f86e5b48e01b996cadc001622fb5e363b421b90100000000000000000000000000000000000000000000000000000000000000000000000000000000000000000000000000000000000000000000000000000000000000000000000000000000000000000000000000000000000000000000000000000000000000000000000000000000000000000000000000000000000000000000000000000000000000000000000000000000000000000000000000000000000000000000000000000000000000000000000000000000000000000000000000000000000000000000000000000000000000000000000000000000000000000000000000000000000000000000000000000000000000000000000000000000008302000080832fefd8808454c98c8142a056e81f171bcc55a6ff8345e692c0f86e5b48e01b996cadc001622fb5e363b421880102030405060708c0c0",
        "lastblockhash" : "0x8d4c53013f884d1748d566749831d682b000a9648aac145f19b41b04efd12689",
        "network" : "Constantinople",
        "postState" : {
            "0x0000000000000000000000000000000000000001" : {
                "balance" : "0x03e8",
                "code" : "0x",
                "nonce" : "0x00",
                "storage" : {
                }
            },
            "0x03855fc81ba27fb87117ab961e6bef17f7e84250" : {
                "balance" : "0x00",
                "code" : "0x",
                "nonce" : "0x01",
                "storage" : {
                    "0x02" : "0x02"
                }
            },
            "0x8888f1f195afa192cfee860698584c030f4c9db1" : {
                "balance" : "0x1bc16d674eca5927",
                "code" : "0x",
                "nonce" : "0x00",
                "storage" : {
                }
            },
            "0xa94f5374fce5edbc8e2a8697c15331677e6ebf0b" : {
                "balance" : "0x0254098ad9",
                "code" : "0x",
                "nonce" : "0x02",
                "storage" : {
                }
            },
            "0xec0e71ad0a90ffe1909d27dac207f7680abba42d" : {
                "balance" : "0x00",
                "code" : "0x",
                "nonce" : "0x02",
                "storage" : {
                }
            }
        },
        "pre" : {
            "0x03855fc81ba27fb87117ab961e6bef17f7e84250" : {
                "balance" : "0x03e8",
                "code" : "0x60036001556001ff00",
                "nonce" : "0x00",
                "storage" : {
                }
            },
            "0xa94f5374fce5edbc8e2a8697c15331677e6ebf0b" : {
                "balance" : "0x02540be400",
                "code" : "0x",
                "nonce" : "0x00",
                "storage" : {
                }
            }
        },
        "sealEngine" : "NoProof"
    },
    "suicideStorageCheckVCreate2_ConstantinopleFix" : {
        "_info" : {
            "comment" : "[2:21:10] Vitalik Buterin: (i) set storage key 1 of contract C to 3. (ii) self-destruct contract C. (iii) in the next transaction create contract C, and read its storage key.  I - via old create2",
            "filledwith" : "testeth 1.8.0-alpha.0-12+commit.b120a12c",
            "lllcversion" : "Version: 0.5.12-develop.2019.9.13+commit.2d601a4f.Linux.g++",
            "source" : "src/BlockchainTestsFiller/ValidBlocks/bcStateTests/suicideStorageCheckVCreate2Filler.json",
            "sourceHash" : "dbbee369de468ea6ed5caa0f4e23e5d8832a4c7d20ffc15216d9770ec5fb5b34"
        },
        "blocks" : [
            {
                "blockHeader" : {
                    "bloom" : "0x00000000000000000000000000000000000000000000000000000000000000000000000000000000000000000000000000000000000000000000000000000000000000000000000000000000000000000000000000000000000000000000000000000000000000000000000000000000000000000000000000000000000000000000000000000000000000000000000000000000000000000000000000000000000000000000000000000000000000000000000000000000000000000000000000000000000000000000000000000000000000000000000000000000000000000000000000000000000000000000000000000000000000000000000000000000",
                    "coinbase" : "0x8888f1f195afa192cfee860698584c030f4c9db1",
                    "difficulty" : "0x020000",
                    "extraData" : "0x",
                    "gasLimit" : "0x2fefba",
                    "gasUsed" : "0x026be7",
                    "hash" : "0x4443e6dc716d55ea2172ec01b5a117d76ac860f4be047c7389972293a9353c88",
                    "mixHash" : "0x0000000000000000000000000000000000000000000000000000000000000000",
                    "nonce" : "0x0000000000000000",
                    "number" : "0x01",
                    "parentHash" : "0xe9ae9ea68acab7685657f1f6c9cb9fa6a5c113f5f1dea1b9474c59a71fca277c",
                    "receiptTrie" : "0x1cc69b81ae599e33b0f619336e4b1cab78a0a425f1504042f92546ed19f39122",
                    "stateRoot" : "0x5722833ed66a8eb42d516fe63980ad324ec2751ef2f9465cd4e87f759d445884",
                    "timestamp" : "0x5db6f7f4",
                    "transactionsTrie" : "0x2884cfde215cb432725e96eb27b1844435c1889553f354a5a9de5e1726c811a0",
                    "uncleHash" : "0x1dcc4de8dec75d7aab85b567b6ccd41ad312451b948a7413f0a142fd40d49347"
                },
                "rlp" : "0xf902c9f901faa0e9ae9ea68acab7685657f1f6c9cb9fa6a5c113f5f1dea1b9474c59a71fca277ca01dcc4de8dec75d7aab85b567b6ccd41ad312451b948a7413f0a142fd40d49347948888f1f195afa192cfee860698584c030f4c9db1a05722833ed66a8eb42d516fe63980ad324ec2751ef2f9465cd4e87f759d445884a02884cfde215cb432725e96eb27b1844435c1889553f354a5a9de5e1726c811a0a01cc69b81ae599e33b0f619336e4b1cab78a0a425f1504042f92546ed19f39122b90100000000000000000000000000000000000000000000000000000000000000000000000000000000000000000000000000000000000000000000000000000000000000000000000000000000000000000000000000000000000000000000000000000000000000000000000000000000000000000000000000000000000000000000000000000000000000000000000000000000000000000000000000000000000000000000000000000000000000000000000000000000000000000000000000000000000000000000000000000000000000000000000000000000000000000000000000000000000000000000000000000000000000000000000000000000008302000001832fefba83026be7845db6f7f480a00000000000000000000000000000000000000000000000000000000000000000880000000000000000f8c9f860800183061a809403855fc81ba27fb87117ab961e6bef17f7e8425080801ba0c72b7ef409567591b7a1a23e6e3e7d1f26f9fb92a5b3ae48148cd3a5a71a48eca031e806a13be8afc352f8eef62f73c952a5db94f800e985719d88fed91d26b3dff865010183061a808080996a60015460035560026002556000526000600b60156000f5001ca0596eaf9530d73cceed8662ead15c4890f58b2b209c60a55e51d788ec6a69b51fa046acd78a360c75bced43fac6ceaf97997dc2caa3058ecb96ef6743d1b7941593c0",
                "transactions" : [
                    {
                        "data" : "0x",
                        "gasLimit" : "0x061a80",
                        "gasPrice" : "0x01",
                        "nonce" : "0x00",
                        "r" : "0xc72b7ef409567591b7a1a23e6e3e7d1f26f9fb92a5b3ae48148cd3a5a71a48ec",
                        "s" : "0x31e806a13be8afc352f8eef62f73c952a5db94f800e985719d88fed91d26b3df",
                        "to" : "0x03855fc81ba27fb87117ab961e6bef17f7e84250",
                        "v" : "0x1b",
                        "value" : "0x00"
                    },
                    {
                        "data" : "0x6a60015460035560026002556000526000600b60156000f500",
                        "gasLimit" : "0x061a80",
                        "gasPrice" : "0x01",
                        "nonce" : "0x01",
                        "r" : "0x596eaf9530d73cceed8662ead15c4890f58b2b209c60a55e51d788ec6a69b51f",
                        "s" : "0x46acd78a360c75bced43fac6ceaf97997dc2caa3058ecb96ef6743d1b7941593",
                        "to" : "",
                        "v" : "0x1c",
                        "value" : "0x00"
                    }
                ],
                "uncleHeaders" : [
                ]
            }
        ],
        "genesisBlockHeader" : {
            "bloom" : "0x00000000000000000000000000000000000000000000000000000000000000000000000000000000000000000000000000000000000000000000000000000000000000000000000000000000000000000000000000000000000000000000000000000000000000000000000000000000000000000000000000000000000000000000000000000000000000000000000000000000000000000000000000000000000000000000000000000000000000000000000000000000000000000000000000000000000000000000000000000000000000000000000000000000000000000000000000000000000000000000000000000000000000000000000000000000",
            "coinbase" : "0x8888f1f195afa192cfee860698584c030f4c9db1",
            "difficulty" : "0x020000",
            "extraData" : "0x42",
            "gasLimit" : "0x2fefd8",
            "gasUsed" : "0x00",
            "hash" : "0xe9ae9ea68acab7685657f1f6c9cb9fa6a5c113f5f1dea1b9474c59a71fca277c",
            "mixHash" : "0x56e81f171bcc55a6ff8345e692c0f86e5b48e01b996cadc001622fb5e363b421",
            "nonce" : "0x0102030405060708",
            "number" : "0x00",
            "parentHash" : "0x0000000000000000000000000000000000000000000000000000000000000000",
            "receiptTrie" : "0x56e81f171bcc55a6ff8345e692c0f86e5b48e01b996cadc001622fb5e363b421",
            "stateRoot" : "0x1c636c081661da525864e846aa81ce58e38d43a2b1986d4e3db4fbe819b2b1e9",
            "timestamp" : "0x54c98c81",
            "transactionsTrie" : "0x56e81f171bcc55a6ff8345e692c0f86e5b48e01b996cadc001622fb5e363b421",
            "uncleHash" : "0x1dcc4de8dec75d7aab85b567b6ccd41ad312451b948a7413f0a142fd40d49347"
        },
        "genesisRLP" : "0xf901fcf901f7a00000000000000000000000000000000000000000000000000000000000000000a01dcc4de8dec75d7aab85b567b6ccd41ad312451b948a7413f0a142fd40d49347948888f1f195afa192cfee860698584c030f4c9db1a01c636c081661da525864e846aa81ce58e38d43a2b1986d4e3db4fbe819b2b1e9a056e81f171bcc55a6ff8345e692c0f86e5b48e01b996cadc001622fb5e363b421a056e81f171bcc55a6ff8345e692c0f86e5b48e01b996cadc001622fb5e363b421b90100000000000000000000000000000000000000000000000000000000000000000000000000000000000000000000000000000000000000000000000000000000000000000000000000000000000000000000000000000000000000000000000000000000000000000000000000000000000000000000000000000000000000000000000000000000000000000000000000000000000000000000000000000000000000000000000000000000000000000000000000000000000000000000000000000000000000000000000000000000000000000000000000000000000000000000000000000000000000000000000000000000000000000000000000000000008302000080832fefd8808454c98c8142a056e81f171bcc55a6ff8345e692c0f86e5b48e01b996cadc001622fb5e363b421880102030405060708c0c0",
        "lastblockhash" : "0x4443e6dc716d55ea2172ec01b5a117d76ac860f4be047c7389972293a9353c88",
        "network" : "ConstantinopleFix",
        "postState" : {
            "0x0000000000000000000000000000000000000001" : {
                "balance" : "0x03e8",
                "code" : "0x",
                "nonce" : "0x00",
                "storage" : {
                }
            },
            "0x03855fc81ba27fb87117ab961e6bef17f7e84250" : {
                "balance" : "0x00",
                "code" : "0x",
                "nonce" : "0x01",
                "storage" : {
                    "0x02" : "0x02"
                }
            },
            "0x8888f1f195afa192cfee860698584c030f4c9db1" : {
                "balance" : "0x1bc16d674eca6be7",
                "code" : "0x",
                "nonce" : "0x00",
                "storage" : {
                }
            },
            "0xa94f5374fce5edbc8e2a8697c15331677e6ebf0b" : {
                "balance" : "0x0254097819",
                "code" : "0x",
                "nonce" : "0x02",
                "storage" : {
                }
            },
            "0xec0e71ad0a90ffe1909d27dac207f7680abba42d" : {
                "balance" : "0x00",
                "code" : "0x",
                "nonce" : "0x02",
                "storage" : {
                }
            }
        },
        "pre" : {
            "0x03855fc81ba27fb87117ab961e6bef17f7e84250" : {
                "balance" : "0x03e8",
                "code" : "0x60036001556001ff00",
                "nonce" : "0x00",
                "storage" : {
                }
            },
            "0xa94f5374fce5edbc8e2a8697c15331677e6ebf0b" : {
                "balance" : "0x02540be400",
                "code" : "0x",
                "nonce" : "0x00",
                "storage" : {
                }
            }
        },
        "sealEngine" : "NoProof"
    }
}