{
    "sstore_combinations_initial1_d262g0v0_Constantinople" : {
        "_info" : {
            "comment" : "sstore 1 -> {calltype} -> change to {0, 1, 2} |-> {calltype} -> {non, oog, revert} |-> {calltype} -> change to {0, 1, 2} |-> {non, oog, revert}",
            "filledwith" : "testeth 1.7.0-alpha.1-20+commit.782a7283",
            "lllcversion" : "Version: 0.5.0-develop.2018.11.9+commit.9709dfe0.Linux.g++",
            "source" : "src/BlockchainTestsFiller/GeneralStateTests/stTimeConsuming/sstore_combinations_initial1_d262g0v0Filler.json",
            "sourceHash" : "bae640f46c77a6045b5d5eb178e075a7852bf0bd09be35624d601882edc51bb2"
        },
        "blocks" : [
            {
                "blockHeader" : {
                    "bloom" : "0x00000000000000000000000000000000000000000000000000000000000000000000000000000000000000000000000000000000000000000000000000000000000000000000000000000000000000000000000000000000000000000000000000000000000000000000000000000000000000000000000000000000000000000000000000000000000000000000000000000000000000000000000000000000000000000000000000000000000000000000000000000000000000000000000000000000000000000000000000000000000000000000000000000000000000000000000000000000000000000000000000000000000000000000000000000000",
                    "coinbase" : "0x2adc25665018aa1fe0e6bc666dac8fc2697ff9ba",
                    "difficulty" : "0x020000",
                    "extraData" : "0x",
                    "gasLimit" : "0x989680",
                    "gasUsed" : "0x032cd7",
                    "hash" : "0x64d2b56b4dc8c60dc3fbeb86316497ff6ed3db79ffac8a766175d4a9b8903843",
                    "mixHash" : "0x0000000000000000000000000000000000000000000000000000000000000000",
                    "nonce" : "0x0000000000000000",
                    "number" : "0x01",
                    "parentHash" : "0x4839a5e717589a5ebffcd7f90acd431250a2eb137626c2effb10e6d49036cf7c",
                    "receiptTrie" : "0x12c51649eab852d9e37528bec0cefb78b19eeb001b7dc03217b1bbcbc5da4d1d",
                    "stateRoot" : "0xa8b0e4b46a8f90e41cbd2868a51e8355626b62b491b0b1d0f4104c3522eac21d",
                    "timestamp" : "0x03e8",
                    "transactionsTrie" : "0xe394f9941bf2e5a3f8543a1c9c5a77e889fc21a894a7a916e9d849b5be2a4148",
                    "uncleHash" : "0x1dcc4de8dec75d7aab85b567b6ccd41ad312451b948a7413f0a142fd40d49347"
                },
                "rlp" : "0xf9030bf901f8a04839a5e717589a5ebffcd7f90acd431250a2eb137626c2effb10e6d49036cf7ca01dcc4de8dec75d7aab85b567b6ccd41ad312451b948a7413f0a142fd40d49347942adc25665018aa1fe0e6bc666dac8fc2697ff9baa0a8b0e4b46a8f90e41cbd2868a51e8355626b62b491b0b1d0f4104c3522eac21da0e394f9941bf2e5a3f8543a1c9c5a77e889fc21a894a7a916e9d849b5be2a4148a012c51649eab852d9e37528bec0cefb78b19eeb001b7dc03217b1bbcbc5da4d1db901000000000000000000000000000000000000000000000000000000000000000000000000000000000000000000000000000000000000000000000000000000000000000000000000000000000000000000000000000000000000000000000000000000000000000000000000000000000000000000000000000000000000000000000000000000000000000000000000000000000000000000000000000000000000000000000000000000000000000000000000000000000000000000000000000000000000000000000000000000000000000000000000000000000000000000000000000000000000000000000000000000000000000000000000000000000083020000018398968083032cd78203e880a00000000000000000000000000000000000000000000000000000000000000000880000000000000000f9010cf901098001831e84808001b8bc6101066064526000600060206000600073b100000000000000000000000000000000000000620493e0f15060006000600060006000733000000000000000000000000000000000000000620493e0f2506000600060206000600073b100000000000000000000000000000000000000620493e0f1506000600060006000731000000000000000000000000000000000000000620493e0fa5060006000600060006000732000000000000000000000000000000000000000620927c0f11ca033921d7eea7c654bb945a8c60536f6aed7cfe530fe0971ba68be89d67a849e25a0690e7558652d25530c21652bf3cdb9ca89fd2a48a93d90381ad794512f002644c0",
                "transactions" : [
                    {
                        "data" : "0x6101066064526000600060206000600073b100000000000000000000000000000000000000620493e0f15060006000600060006000733000000000000000000000000000000000000000620493e0f2506000600060206000600073b100000000000000000000000000000000000000620493e0f1506000600060006000731000000000000000000000000000000000000000620493e0fa5060006000600060006000732000000000000000000000000000000000000000620927c0f1",
                        "gasLimit" : "0x1e8480",
                        "gasPrice" : "0x01",
                        "nonce" : "0x00",
                        "r" : "0x33921d7eea7c654bb945a8c60536f6aed7cfe530fe0971ba68be89d67a849e25",
                        "s" : "0x690e7558652d25530c21652bf3cdb9ca89fd2a48a93d90381ad794512f002644",
                        "to" : "",
                        "v" : "0x1c",
                        "value" : "0x01"
                    }
                ],
                "uncleHeaders" : [
                ]
            }
        ],
        "genesisBlockHeader" : {
            "bloom" : "0x00000000000000000000000000000000000000000000000000000000000000000000000000000000000000000000000000000000000000000000000000000000000000000000000000000000000000000000000000000000000000000000000000000000000000000000000000000000000000000000000000000000000000000000000000000000000000000000000000000000000000000000000000000000000000000000000000000000000000000000000000000000000000000000000000000000000000000000000000000000000000000000000000000000000000000000000000000000000000000000000000000000000000000000000000000000",
            "coinbase" : "0x2adc25665018aa1fe0e6bc666dac8fc2697ff9ba",
            "difficulty" : "0x020000",
            "extraData" : "0x42",
            "gasLimit" : "0x989680",
            "gasUsed" : "0x00",
            "hash" : "0x4839a5e717589a5ebffcd7f90acd431250a2eb137626c2effb10e6d49036cf7c",
            "mixHash" : "0x56e81f171bcc55a6ff8345e692c0f86e5b48e01b996cadc001622fb5e363b421",
            "nonce" : "0x0102030405060708",
            "number" : "0x00",
            "parentHash" : "0x0000000000000000000000000000000000000000000000000000000000000000",
            "receiptTrie" : "0x56e81f171bcc55a6ff8345e692c0f86e5b48e01b996cadc001622fb5e363b421",
            "stateRoot" : "0xbdcd29a9b9a3cafaf457a6e3ac249cf4c0295219e01aa2097c03325c896ccf96",
            "timestamp" : "0x03b6",
            "transactionsTrie" : "0x56e81f171bcc55a6ff8345e692c0f86e5b48e01b996cadc001622fb5e363b421",
            "uncleHash" : "0x1dcc4de8dec75d7aab85b567b6ccd41ad312451b948a7413f0a142fd40d49347"
        },
        "genesisRLP" : "0xf901faf901f5a00000000000000000000000000000000000000000000000000000000000000000a01dcc4de8dec75d7aab85b567b6ccd41ad312451b948a7413f0a142fd40d49347942adc25665018aa1fe0e6bc666dac8fc2697ff9baa0bdcd29a9b9a3cafaf457a6e3ac249cf4c0295219e01aa2097c03325c896ccf96a056e81f171bcc55a6ff8345e692c0f86e5b48e01b996cadc001622fb5e363b421a056e81f171bcc55a6ff8345e692c0f86e5b48e01b996cadc001622fb5e363b421b9010000000000000000000000000000000000000000000000000000000000000000000000000000000000000000000000000000000000000000000000000000000000000000000000000000000000000000000000000000000000000000000000000000000000000000000000000000000000000000000000000000000000000000000000000000000000000000000000000000000000000000000000000000000000000000000000000000000000000000000000000000000000000000000000000000000000000000000000000000000000000000000000000000000000000000000000000000000000000000000000000000000000000000000000000000000000830200008083989680808203b642a056e81f171bcc55a6ff8345e692c0f86e5b48e01b996cadc001622fb5e363b421880102030405060708c0c0",
        "lastblockhash" : "0x64d2b56b4dc8c60dc3fbeb86316497ff6ed3db79ffac8a766175d4a9b8903843",
        "network" : "Constantinople",
        "postState" : {
            "0x2000000000000000000000000000000000000000" : {
                "balance" : "0x00",
                "code" : "0x6001600155600060015560016002556000600255600160035560006003556001600455600060045560016005556000600555600160065560006006556001600755600060075560016008556000600855600160095560006009556001600a556000600a556001600b556000600b556001600c556000600c556001600d556000600d556001600e556000600e556001600f556000600f55600160105560006010556001600155",
                "nonce" : "0x00",
                "storage" : {
                    "0x01" : "0x01"
                }
            },
            "0x2adc25665018aa1fe0e6bc666dac8fc2697ff9ba" : {
                "balance" : "0x1bc16d674ecb2cd7",
                "code" : "0x",
                "nonce" : "0x00",
                "storage" : {
                }
            },
            "0x3000000000000000000000000000000000000000" : {
                "balance" : "0x00",
                "code" : "0x60206000fd",
                "nonce" : "0x00",
                "storage" : {
                    "0x00" : "0x02",
                    "0x01" : "0x02",
                    "0x02" : "0x02"
                }
            },
            "0x6295ee1b4f6dd65047762f924ecd367c17eabf8f" : {
                "balance" : "0x01",
                "code" : "0x",
                "nonce" : "0x01",
                "storage" : {
                }
            },
            "0xa94f5374fce5edbc8e2a8697c15331677e6ebf0b" : {
                "balance" : "0xe8d4a1e328",
                "code" : "0x",
                "nonce" : "0x01",
                "storage" : {
                }
            },
            "0xb000000000000000000000000000000000000000" : {
                "balance" : "0x00",
                "code" : "0x600060005560016001556002600255",
                "nonce" : "0x00",
                "storage" : {
                }
            },
            "0xb100000000000000000000000000000000000000" : {
                "balance" : "0x00",
                "code" : "0x600060005560016001556002600255",
                "nonce" : "0x00",
                "storage" : {
                    "0x01" : "0x01",
                    "0x02" : "0x02"
                }
            },
            "0xb200000000000000000000000000000000000000" : {
                "balance" : "0x00",
                "code" : "0x600060005560016001556002600255",
                "nonce" : "0x00",
                "storage" : {
                    "0x00" : "0x02",
                    "0x01" : "0x02",
                    "0x02" : "0x02"
                }
            }
        },
        "pre" : {
            "0x1000000000000000000000000000000000000000" : {
                "balance" : "0x00",
                "code" : "0x",
                "nonce" : "0x00",
                "storage" : {
                    "0x00" : "0x01",
                    "0x01" : "0x01",
                    "0x02" : "0x01"
                }
            },
            "0x2000000000000000000000000000000000000000" : {
                "balance" : "0x00",
                "code" : "0x6001600155600060015560016002556000600255600160035560006003556001600455600060045560016005556000600555600160065560006006556001600755600060075560016008556000600855600160095560006009556001600a556000600a556001600b556000600b556001600c556000600c556001600d556000600d556001600e556000600e556001600f556000600f55600160105560006010556001600155",
                "nonce" : "0x00",
                "storage" : {
                }
            },
            "0x3000000000000000000000000000000000000000" : {
                "balance" : "0x00",
                "code" : "0x60206000fd",
                "nonce" : "0x00",
                "storage" : {
                    "0x00" : "0x02",
                    "0x01" : "0x02",
                    "0x02" : "0x02"
                }
            },
            "0xa94f5374fce5edbc8e2a8697c15331677e6ebf0b" : {
                "balance" : "0xe8d4a51000",
                "code" : "0x",
                "nonce" : "0x00",
                "storage" : {
                }
            },
            "0xb000000000000000000000000000000000000000" : {
                "balance" : "0x00",
                "code" : "0x600060005560016001556002600255",
                "nonce" : "0x00",
                "storage" : {
                }
            },
            "0xb100000000000000000000000000000000000000" : {
                "balance" : "0x00",
                "code" : "0x600060005560016001556002600255",
                "nonce" : "0x00",
                "storage" : {
                    "0x00" : "0x01",
                    "0x01" : "0x01",
                    "0x02" : "0x01"
                }
            },
            "0xb200000000000000000000000000000000000000" : {
                "balance" : "0x00",
                "code" : "0x600060005560016001556002600255",
                "nonce" : "0x00",
                "storage" : {
                    "0x00" : "0x02",
                    "0x01" : "0x02",
                    "0x02" : "0x02"
                }
            }
        },
        "sealEngine" : "NoProof"
    },
    "sstore_combinations_initial1_d262g0v0_ConstantinopleFix" : {
        "_info" : {
            "comment" : "sstore 1 -> {calltype} -> change to {0, 1, 2} |-> {calltype} -> {non, oog, revert} |-> {calltype} -> change to {0, 1, 2} |-> {non, oog, revert}",
            "filledwith" : "testeth 1.7.0-alpha.1-20+commit.782a7283",
            "lllcversion" : "Version: 0.5.0-develop.2018.11.9+commit.9709dfe0.Linux.g++",
            "source" : "src/BlockchainTestsFiller/GeneralStateTests/stTimeConsuming/sstore_combinations_initial1_d262g0v0Filler.json",
            "sourceHash" : "bae640f46c77a6045b5d5eb178e075a7852bf0bd09be35624d601882edc51bb2"
        },
        "blocks" : [
            {
                "blockHeader" : {
                    "bloom" : "0x00000000000000000000000000000000000000000000000000000000000000000000000000000000000000000000000000000000000000000000000000000000000000000000000000000000000000000000000000000000000000000000000000000000000000000000000000000000000000000000000000000000000000000000000000000000000000000000000000000000000000000000000000000000000000000000000000000000000000000000000000000000000000000000000000000000000000000000000000000000000000000000000000000000000000000000000000000000000000000000000000000000000000000000000000000000",
                    "coinbase" : "0x2adc25665018aa1fe0e6bc666dac8fc2697ff9ba",
                    "difficulty" : "0x020000",
                    "extraData" : "0x",
                    "gasLimit" : "0x989680",
                    "gasUsed" : "0x03ec95",
                    "hash" : "0x0120e9ca23133200f787d78c74c0ee963487169ab88632e340dc56bd1b6ef00e",
                    "mixHash" : "0x0000000000000000000000000000000000000000000000000000000000000000",
                    "nonce" : "0x0000000000000000",
                    "number" : "0x01",
                    "parentHash" : "0x4839a5e717589a5ebffcd7f90acd431250a2eb137626c2effb10e6d49036cf7c",
                    "receiptTrie" : "0x83d51fb023624d205b55b1bbd03a543f5a6ef5c754a08b7f05a07bbd323978fa",
                    "stateRoot" : "0x97440e2157bde4a9b8551c467e611a7c02b3a9fc235ed083fd254bde6e3cf506",
                    "timestamp" : "0x03e8",
                    "transactionsTrie" : "0xe394f9941bf2e5a3f8543a1c9c5a77e889fc21a894a7a916e9d849b5be2a4148",
                    "uncleHash" : "0x1dcc4de8dec75d7aab85b567b6ccd41ad312451b948a7413f0a142fd40d49347"
                },
                "rlp" : "0xf9030bf901f8a04839a5e717589a5ebffcd7f90acd431250a2eb137626c2effb10e6d49036cf7ca01dcc4de8dec75d7aab85b567b6ccd41ad312451b948a7413f0a142fd40d49347942adc25665018aa1fe0e6bc666dac8fc2697ff9baa097440e2157bde4a9b8551c467e611a7c02b3a9fc235ed083fd254bde6e3cf506a0e394f9941bf2e5a3f8543a1c9c5a77e889fc21a894a7a916e9d849b5be2a4148a083d51fb023624d205b55b1bbd03a543f5a6ef5c754a08b7f05a07bbd323978fab90100000000000000000000000000000000000000000000000000000000000000000000000000000000000000000000000000000000000000000000000000000000000000000000000000000000000000000000000000000000000000000000000000000000000000000000000000000000000000000000000000000000000000000000000000000000000000000000000000000000000000000000000000000000000000000000000000000000000000000000000000000000000000000000000000000000000000000000000000000000000000000000000000000000000000000000000000000000000000000000000000000000000000000000000000000000008302000001839896808303ec958203e880a00000000000000000000000000000000000000000000000000000000000000000880000000000000000f9010cf901098001831e84808001b8bc6101066064526000600060206000600073b100000000000000000000000000000000000000620493e0f15060006000600060006000733000000000000000000000000000000000000000620493e0f2506000600060206000600073b100000000000000000000000000000000000000620493e0f1506000600060006000731000000000000000000000000000000000000000620493e0fa5060006000600060006000732000000000000000000000000000000000000000620927c0f11ca033921d7eea7c654bb945a8c60536f6aed7cfe530fe0971ba68be89d67a849e25a0690e7558652d25530c21652bf3cdb9ca89fd2a48a93d90381ad794512f002644c0",
                "transactions" : [
                    {
                        "data" : "0x6101066064526000600060206000600073b100000000000000000000000000000000000000620493e0f15060006000600060006000733000000000000000000000000000000000000000620493e0f2506000600060206000600073b100000000000000000000000000000000000000620493e0f1506000600060006000731000000000000000000000000000000000000000620493e0fa5060006000600060006000732000000000000000000000000000000000000000620927c0f1",
                        "gasLimit" : "0x1e8480",
                        "gasPrice" : "0x01",
                        "nonce" : "0x00",
                        "r" : "0x33921d7eea7c654bb945a8c60536f6aed7cfe530fe0971ba68be89d67a849e25",
                        "s" : "0x690e7558652d25530c21652bf3cdb9ca89fd2a48a93d90381ad794512f002644",
                        "to" : "",
                        "v" : "0x1c",
                        "value" : "0x01"
                    }
                ],
                "uncleHeaders" : [
                ]
            }
        ],
        "genesisBlockHeader" : {
            "bloom" : "0x00000000000000000000000000000000000000000000000000000000000000000000000000000000000000000000000000000000000000000000000000000000000000000000000000000000000000000000000000000000000000000000000000000000000000000000000000000000000000000000000000000000000000000000000000000000000000000000000000000000000000000000000000000000000000000000000000000000000000000000000000000000000000000000000000000000000000000000000000000000000000000000000000000000000000000000000000000000000000000000000000000000000000000000000000000000",
            "coinbase" : "0x2adc25665018aa1fe0e6bc666dac8fc2697ff9ba",
            "difficulty" : "0x020000",
            "extraData" : "0x42",
            "gasLimit" : "0x989680",
            "gasUsed" : "0x00",
            "hash" : "0x4839a5e717589a5ebffcd7f90acd431250a2eb137626c2effb10e6d49036cf7c",
            "mixHash" : "0x56e81f171bcc55a6ff8345e692c0f86e5b48e01b996cadc001622fb5e363b421",
            "nonce" : "0x0102030405060708",
            "number" : "0x00",
            "parentHash" : "0x0000000000000000000000000000000000000000000000000000000000000000",
            "receiptTrie" : "0x56e81f171bcc55a6ff8345e692c0f86e5b48e01b996cadc001622fb5e363b421",
            "stateRoot" : "0xbdcd29a9b9a3cafaf457a6e3ac249cf4c0295219e01aa2097c03325c896ccf96",
            "timestamp" : "0x03b6",
            "transactionsTrie" : "0x56e81f171bcc55a6ff8345e692c0f86e5b48e01b996cadc001622fb5e363b421",
            "uncleHash" : "0x1dcc4de8dec75d7aab85b567b6ccd41ad312451b948a7413f0a142fd40d49347"
        },
        "genesisRLP" : "0xf901faf901f5a00000000000000000000000000000000000000000000000000000000000000000a01dcc4de8dec75d7aab85b567b6ccd41ad312451b948a7413f0a142fd40d49347942adc25665018aa1fe0e6bc666dac8fc2697ff9baa0bdcd29a9b9a3cafaf457a6e3ac249cf4c0295219e01aa2097c03325c896ccf96a056e81f171bcc55a6ff8345e692c0f86e5b48e01b996cadc001622fb5e363b421a056e81f171bcc55a6ff8345e692c0f86e5b48e01b996cadc001622fb5e363b421b9010000000000000000000000000000000000000000000000000000000000000000000000000000000000000000000000000000000000000000000000000000000000000000000000000000000000000000000000000000000000000000000000000000000000000000000000000000000000000000000000000000000000000000000000000000000000000000000000000000000000000000000000000000000000000000000000000000000000000000000000000000000000000000000000000000000000000000000000000000000000000000000000000000000000000000000000000000000000000000000000000000000000000000000000000000000000830200008083989680808203b642a056e81f171bcc55a6ff8345e692c0f86e5b48e01b996cadc001622fb5e363b421880102030405060708c0c0",
        "lastblockhash" : "0x0120e9ca23133200f787d78c74c0ee963487169ab88632e340dc56bd1b6ef00e",
        "network" : "ConstantinopleFix",
        "postState" : {
            "0x2000000000000000000000000000000000000000" : {
                "balance" : "0x00",
                "code" : "0x6001600155600060015560016002556000600255600160035560006003556001600455600060045560016005556000600555600160065560006006556001600755600060075560016008556000600855600160095560006009556001600a556000600a556001600b556000600b556001600c556000600c556001600d556000600d556001600e556000600e556001600f556000600f55600160105560006010556001600155",
                "nonce" : "0x00",
                "storage" : {
                    "0x01" : "0x01"
                }
            },
            "0x2adc25665018aa1fe0e6bc666dac8fc2697ff9ba" : {
                "balance" : "0x1bc16d674ecbec95",
                "code" : "0x",
                "nonce" : "0x00",
                "storage" : {
                }
            },
            "0x3000000000000000000000000000000000000000" : {
                "balance" : "0x00",
                "code" : "0x60206000fd",
                "nonce" : "0x00",
                "storage" : {
                    "0x00" : "0x02",
                    "0x01" : "0x02",
                    "0x02" : "0x02"
                }
            },
            "0x6295ee1b4f6dd65047762f924ecd367c17eabf8f" : {
                "balance" : "0x01",
                "code" : "0x",
                "nonce" : "0x01",
                "storage" : {
                }
            },
            "0xa94f5374fce5edbc8e2a8697c15331677e6ebf0b" : {
                "balance" : "0xe8d4a1236a",
                "code" : "0x",
                "nonce" : "0x01",
                "storage" : {
                }
            },
            "0xb000000000000000000000000000000000000000" : {
                "balance" : "0x00",
                "code" : "0x600060005560016001556002600255",
                "nonce" : "0x00",
                "storage" : {
                }
            },
            "0xb100000000000000000000000000000000000000" : {
                "balance" : "0x00",
                "code" : "0x600060005560016001556002600255",
                "nonce" : "0x00",
                "storage" : {
                    "0x01" : "0x01",
                    "0x02" : "0x02"
                }
            },
            "0xb200000000000000000000000000000000000000" : {
                "balance" : "0x00",
                "code" : "0x600060005560016001556002600255",
                "nonce" : "0x00",
                "storage" : {
                    "0x00" : "0x02",
                    "0x01" : "0x02",
                    "0x02" : "0x02"
                }
            }
        },
        "pre" : {
            "0x1000000000000000000000000000000000000000" : {
                "balance" : "0x00",
                "code" : "0x",
                "nonce" : "0x00",
                "storage" : {
                    "0x00" : "0x01",
                    "0x01" : "0x01",
                    "0x02" : "0x01"
                }
            },
            "0x2000000000000000000000000000000000000000" : {
                "balance" : "0x00",
                "code" : "0x6001600155600060015560016002556000600255600160035560006003556001600455600060045560016005556000600555600160065560006006556001600755600060075560016008556000600855600160095560006009556001600a556000600a556001600b556000600b556001600c556000600c556001600d556000600d556001600e556000600e556001600f556000600f55600160105560006010556001600155",
                "nonce" : "0x00",
                "storage" : {
                }
            },
            "0x3000000000000000000000000000000000000000" : {
                "balance" : "0x00",
                "code" : "0x60206000fd",
                "nonce" : "0x00",
                "storage" : {
                    "0x00" : "0x02",
                    "0x01" : "0x02",
                    "0x02" : "0x02"
                }
            },
            "0xa94f5374fce5edbc8e2a8697c15331677e6ebf0b" : {
                "balance" : "0xe8d4a51000",
                "code" : "0x",
                "nonce" : "0x00",
                "storage" : {
                }
            },
            "0xb000000000000000000000000000000000000000" : {
                "balance" : "0x00",
                "code" : "0x600060005560016001556002600255",
                "nonce" : "0x00",
                "storage" : {
                }
            },
            "0xb100000000000000000000000000000000000000" : {
                "balance" : "0x00",
                "code" : "0x600060005560016001556002600255",
                "nonce" : "0x00",
                "storage" : {
                    "0x00" : "0x01",
                    "0x01" : "0x01",
                    "0x02" : "0x01"
                }
            },
            "0xb200000000000000000000000000000000000000" : {
                "balance" : "0x00",
                "code" : "0x600060005560016001556002600255",
                "nonce" : "0x00",
                "storage" : {
                    "0x00" : "0x02",
                    "0x01" : "0x02",
                    "0x02" : "0x02"
                }
            }
        },
        "sealEngine" : "NoProof"
    }
}