{
    "sstore_combinations_initial2_d875g0v0_Constantinople" : {
        "_info" : {
            "comment" : "sstore 2 -> {calltype} -> change to {0, 1, 2} |-> {calltype} -> {non, oog, revert} |-> {calltype} -> change to {0, 1, 2} |-> {non, oog, revert}",
            "filledwith" : "testeth 1.7.0-alpha.1-20+commit.782a7283",
            "lllcversion" : "Version: 0.5.0-develop.2018.11.9+commit.9709dfe0.Linux.g++",
            "source" : "src/BlockchainTestsFiller/GeneralStateTests/stTimeConsuming/sstore_combinations_initial2_d875g0v0Filler.json",
            "sourceHash" : "f724284ae14fdbf6b71fe67273fc25a719b46cd63b477447044c0b6d9ab7f643"
        },
        "blocks" : [
            {
                "blockHeader" : {
                    "bloom" : "0x00000000000000000000000000000000000000000000000000000000000000000000000000000000000000000000000000000000000000000000000000000000000000000000000000000000000000000000000000000000000000000000000000000000000000000000000000000000000000000000000000000000000000000000000000000000000000000000000000000000000000000000000000000000000000000000000000000000000000000000000000000000000000000000000000000000000000000000000000000000000000000000000000000000000000000000000000000000000000000000000000000000000000000000000000000000",
                    "coinbase" : "0x2adc25665018aa1fe0e6bc666dac8fc2697ff9ba",
                    "difficulty" : "0x020000",
                    "extraData" : "0x",
                    "gasLimit" : "0x989680",
                    "gasUsed" : "0x0b1e14",
                    "hash" : "0xa6a016f8b3127fbf5c3185d1239c698dccfea9a2a44a0dd5b112326f0a7cd818",
                    "mixHash" : "0x0000000000000000000000000000000000000000000000000000000000000000",
                    "nonce" : "0x0000000000000000",
                    "number" : "0x01",
                    "parentHash" : "0x4839a5e717589a5ebffcd7f90acd431250a2eb137626c2effb10e6d49036cf7c",
                    "receiptTrie" : "0xe9cea3dd654e66761fe2f188a5bdea1ebf9d9e2278b231ea873537ec00ae0b26",
                    "stateRoot" : "0xb1068708685a18fbfcf31776a3ceb103e4140824c7bd13382a36c13d3960c80b",
                    "timestamp" : "0x03e8",
                    "transactionsTrie" : "0x23d605b089b7edb700ac68a7fce8d113002255da3fbe81d2227b423ad7d756b6",
                    "uncleHash" : "0x1dcc4de8dec75d7aab85b567b6ccd41ad312451b948a7413f0a142fd40d49347"
                },
                "rlp" : "0xf90307f901f8a04839a5e717589a5ebffcd7f90acd431250a2eb137626c2effb10e6d49036cf7ca01dcc4de8dec75d7aab85b567b6ccd41ad312451b948a7413f0a142fd40d49347942adc25665018aa1fe0e6bc666dac8fc2697ff9baa0b1068708685a18fbfcf31776a3ceb103e4140824c7bd13382a36c13d3960c80ba023d605b089b7edb700ac68a7fce8d113002255da3fbe81d2227b423ad7d756b6a0e9cea3dd654e66761fe2f188a5bdea1ebf9d9e2278b231ea873537ec00ae0b26b9010000000000000000000000000000000000000000000000000000000000000000000000000000000000000000000000000000000000000000000000000000000000000000000000000000000000000000000000000000000000000000000000000000000000000000000000000000000000000000000000000000000000000000000000000000000000000000000000000000000000000000000000000000000000000000000000000000000000000000000000000000000000000000000000000000000000000000000000000000000000000000000000000000000000000000000000000000000000000000000000000000000000000000000000000000000000830200000183989680830b1e148203e880a00000000000000000000000000000000000000000000000000000000000000000880000000000000000f90108f901058001831e84808001b8b861036b6064526000600060206000600073b200000000000000000000000000000000000000620493e0f2506000600060006000731000000000000000000000000000000000000000620493e0f450600060006020600073b200000000000000000000000000000000000000620493e0fa506000600060006000732000000000000000000000000000000000000000620493e0fa5060006000600060006000732000000000000000000000000000000000000000620927c0f11ba0114469561707b9c01cbbdfaf4fa5ee50945c21bf7064527e610adff9677bf66aa039ff09918d59b5d7df09de98cf97e19e98ff9473d48dc29634fdf5f8a0d90284c0",
                "transactions" : [
                    {
                        "data" : "0x61036b6064526000600060206000600073b200000000000000000000000000000000000000620493e0f2506000600060006000731000000000000000000000000000000000000000620493e0f450600060006020600073b200000000000000000000000000000000000000620493e0fa506000600060006000732000000000000000000000000000000000000000620493e0fa5060006000600060006000732000000000000000000000000000000000000000620927c0f1",
                        "gasLimit" : "0x1e8480",
                        "gasPrice" : "0x01",
                        "nonce" : "0x00",
                        "r" : "0x114469561707b9c01cbbdfaf4fa5ee50945c21bf7064527e610adff9677bf66a",
                        "s" : "0x39ff09918d59b5d7df09de98cf97e19e98ff9473d48dc29634fdf5f8a0d90284",
                        "to" : "",
                        "v" : "0x1b",
                        "value" : "0x01"
                    }
                ],
                "uncleHeaders" : [
                ]
            }
        ],
        "genesisBlockHeader" : {
            "bloom" : "0x00000000000000000000000000000000000000000000000000000000000000000000000000000000000000000000000000000000000000000000000000000000000000000000000000000000000000000000000000000000000000000000000000000000000000000000000000000000000000000000000000000000000000000000000000000000000000000000000000000000000000000000000000000000000000000000000000000000000000000000000000000000000000000000000000000000000000000000000000000000000000000000000000000000000000000000000000000000000000000000000000000000000000000000000000000000",
            "coinbase" : "0x2adc25665018aa1fe0e6bc666dac8fc2697ff9ba",
            "difficulty" : "0x020000",
            "extraData" : "0x42",
            "gasLimit" : "0x989680",
            "gasUsed" : "0x00",
            "hash" : "0x4839a5e717589a5ebffcd7f90acd431250a2eb137626c2effb10e6d49036cf7c",
            "mixHash" : "0x56e81f171bcc55a6ff8345e692c0f86e5b48e01b996cadc001622fb5e363b421",
            "nonce" : "0x0102030405060708",
            "number" : "0x00",
            "parentHash" : "0x0000000000000000000000000000000000000000000000000000000000000000",
            "receiptTrie" : "0x56e81f171bcc55a6ff8345e692c0f86e5b48e01b996cadc001622fb5e363b421",
            "stateRoot" : "0xbdcd29a9b9a3cafaf457a6e3ac249cf4c0295219e01aa2097c03325c896ccf96",
            "timestamp" : "0x03b6",
            "transactionsTrie" : "0x56e81f171bcc55a6ff8345e692c0f86e5b48e01b996cadc001622fb5e363b421",
            "uncleHash" : "0x1dcc4de8dec75d7aab85b567b6ccd41ad312451b948a7413f0a142fd40d49347"
        },
        "genesisRLP" : "0xf901faf901f5a00000000000000000000000000000000000000000000000000000000000000000a01dcc4de8dec75d7aab85b567b6ccd41ad312451b948a7413f0a142fd40d49347942adc25665018aa1fe0e6bc666dac8fc2697ff9baa0bdcd29a9b9a3cafaf457a6e3ac249cf4c0295219e01aa2097c03325c896ccf96a056e81f171bcc55a6ff8345e692c0f86e5b48e01b996cadc001622fb5e363b421a056e81f171bcc55a6ff8345e692c0f86e5b48e01b996cadc001622fb5e363b421b9010000000000000000000000000000000000000000000000000000000000000000000000000000000000000000000000000000000000000000000000000000000000000000000000000000000000000000000000000000000000000000000000000000000000000000000000000000000000000000000000000000000000000000000000000000000000000000000000000000000000000000000000000000000000000000000000000000000000000000000000000000000000000000000000000000000000000000000000000000000000000000000000000000000000000000000000000000000000000000000000000000000000000000000000000000000000830200008083989680808203b642a056e81f171bcc55a6ff8345e692c0f86e5b48e01b996cadc001622fb5e363b421880102030405060708c0c0",
        "lastblockhash" : "0xa6a016f8b3127fbf5c3185d1239c698dccfea9a2a44a0dd5b112326f0a7cd818",
        "network" : "Constantinople",
        "postState" : {
            "0x1000000000000000000000000000000000000000" : {
                "balance" : "0x00",
                "code" : "0x",
                "nonce" : "0x00",
                "storage" : {
                    "0x00" : "0x01",
                    "0x01" : "0x01",
                    "0x02" : "0x01"
                }
            },
            "0x2000000000000000000000000000000000000000" : {
                "balance" : "0x00",
                "code" : "0x6001600155600060015560016002556000600255600160035560006003556001600455600060045560016005556000600555600160065560006006556001600755600060075560016008556000600855600160095560006009556001600a556000600a556001600b556000600b556001600c556000600c556001600d556000600d556001600e556000600e556001600f556000600f55600160105560006010556001600155",
                "nonce" : "0x00",
                "storage" : {
                    "0x01" : "0x01"
                }
            },
            "0x2adc25665018aa1fe0e6bc666dac8fc2697ff9ba" : {
                "balance" : "0x1bc16d674ed31e14",
                "code" : "0x",
                "nonce" : "0x00",
                "storage" : {
                }
            },
            "0x3000000000000000000000000000000000000000" : {
                "balance" : "0x00",
                "code" : "0x60206000fd",
                "nonce" : "0x00",
                "storage" : {
                    "0x00" : "0x02",
                    "0x01" : "0x02",
                    "0x02" : "0x02"
                }
            },
            "0x6295ee1b4f6dd65047762f924ecd367c17eabf8f" : {
                "balance" : "0x01",
                "code" : "0x",
                "nonce" : "0x01",
                "storage" : {
                    "0x01" : "0x01",
                    "0x02" : "0x02"
                }
            },
            "0xa94f5374fce5edbc8e2a8697c15331677e6ebf0b" : {
                "balance" : "0xe8d499f1eb",
                "code" : "0x",
                "nonce" : "0x01",
                "storage" : {
                }
            },
            "0xb000000000000000000000000000000000000000" : {
                "balance" : "0x00",
                "code" : "0x600060005560016001556002600255",
                "nonce" : "0x00",
                "storage" : {
                }
            },
            "0xb100000000000000000000000000000000000000" : {
                "balance" : "0x00",
                "code" : "0x600060005560016001556002600255",
                "nonce" : "0x00",
                "storage" : {
                    "0x00" : "0x01",
                    "0x01" : "0x01",
                    "0x02" : "0x01"
                }
            },
            "0xb200000000000000000000000000000000000000" : {
                "balance" : "0x00",
                "code" : "0x600060005560016001556002600255",
                "nonce" : "0x00",
                "storage" : {
                    "0x00" : "0x02",
                    "0x01" : "0x02",
                    "0x02" : "0x02"
                }
            }
        },
        "pre" : {
            "0x1000000000000000000000000000000000000000" : {
                "balance" : "0x00",
                "code" : "0x",
                "nonce" : "0x00",
                "storage" : {
                    "0x00" : "0x01",
                    "0x01" : "0x01",
                    "0x02" : "0x01"
                }
            },
            "0x2000000000000000000000000000000000000000" : {
                "balance" : "0x00",
                "code" : "0x6001600155600060015560016002556000600255600160035560006003556001600455600060045560016005556000600555600160065560006006556001600755600060075560016008556000600855600160095560006009556001600a556000600a556001600b556000600b556001600c556000600c556001600d556000600d556001600e556000600e556001600f556000600f55600160105560006010556001600155",
                "nonce" : "0x00",
                "storage" : {
                }
            },
            "0x3000000000000000000000000000000000000000" : {
                "balance" : "0x00",
                "code" : "0x60206000fd",
                "nonce" : "0x00",
                "storage" : {
                    "0x00" : "0x02",
                    "0x01" : "0x02",
                    "0x02" : "0x02"
                }
            },
            "0xa94f5374fce5edbc8e2a8697c15331677e6ebf0b" : {
                "balance" : "0xe8d4a51000",
                "code" : "0x",
                "nonce" : "0x00",
                "storage" : {
                }
            },
            "0xb000000000000000000000000000000000000000" : {
                "balance" : "0x00",
                "code" : "0x600060005560016001556002600255",
                "nonce" : "0x00",
                "storage" : {
                }
            },
            "0xb100000000000000000000000000000000000000" : {
                "balance" : "0x00",
                "code" : "0x600060005560016001556002600255",
                "nonce" : "0x00",
                "storage" : {
                    "0x00" : "0x01",
                    "0x01" : "0x01",
                    "0x02" : "0x01"
                }
            },
            "0xb200000000000000000000000000000000000000" : {
                "balance" : "0x00",
                "code" : "0x600060005560016001556002600255",
                "nonce" : "0x00",
                "storage" : {
                    "0x00" : "0x02",
                    "0x01" : "0x02",
                    "0x02" : "0x02"
                }
            }
        },
        "sealEngine" : "NoProof"
    },
    "sstore_combinations_initial2_d875g0v0_ConstantinopleFix" : {
        "_info" : {
            "comment" : "sstore 2 -> {calltype} -> change to {0, 1, 2} |-> {calltype} -> {non, oog, revert} |-> {calltype} -> change to {0, 1, 2} |-> {non, oog, revert}",
            "filledwith" : "testeth 1.7.0-alpha.1-20+commit.782a7283",
            "lllcversion" : "Version: 0.5.0-develop.2018.11.9+commit.9709dfe0.Linux.g++",
            "source" : "src/BlockchainTestsFiller/GeneralStateTests/stTimeConsuming/sstore_combinations_initial2_d875g0v0Filler.json",
            "sourceHash" : "f724284ae14fdbf6b71fe67273fc25a719b46cd63b477447044c0b6d9ab7f643"
        },
        "blocks" : [
            {
                "blockHeader" : {
                    "bloom" : "0x00000000000000000000000000000000000000000000000000000000000000000000000000000000000000000000000000000000000000000000000000000000000000000000000000000000000000000000000000000000000000000000000000000000000000000000000000000000000000000000000000000000000000000000000000000000000000000000000000000000000000000000000000000000000000000000000000000000000000000000000000000000000000000000000000000000000000000000000000000000000000000000000000000000000000000000000000000000000000000000000000000000000000000000000000000000",
                    "coinbase" : "0x2adc25665018aa1fe0e6bc666dac8fc2697ff9ba",
                    "difficulty" : "0x020000",
                    "extraData" : "0x",
                    "gasLimit" : "0x989680",
                    "gasUsed" : "0x0d88d4",
                    "hash" : "0xd9f8ec86e21028cae0caa7973b82f33d18c457155c31d2bfa87a03a3b3d889e4",
                    "mixHash" : "0x0000000000000000000000000000000000000000000000000000000000000000",
                    "nonce" : "0x0000000000000000",
                    "number" : "0x01",
                    "parentHash" : "0x4839a5e717589a5ebffcd7f90acd431250a2eb137626c2effb10e6d49036cf7c",
                    "receiptTrie" : "0x0162f4c66e61d059aecedfe52d3cbe3fd217ccdae96f2e67126096d1ef80dbe0",
                    "stateRoot" : "0x69de221759705ae5c656adb3670eb42e6e4f6c2184689b5e70f68f1180ded5f3",
                    "timestamp" : "0x03e8",
                    "transactionsTrie" : "0x23d605b089b7edb700ac68a7fce8d113002255da3fbe81d2227b423ad7d756b6",
                    "uncleHash" : "0x1dcc4de8dec75d7aab85b567b6ccd41ad312451b948a7413f0a142fd40d49347"
                },
                "rlp" : "0xf90307f901f8a04839a5e717589a5ebffcd7f90acd431250a2eb137626c2effb10e6d49036cf7ca01dcc4de8dec75d7aab85b567b6ccd41ad312451b948a7413f0a142fd40d49347942adc25665018aa1fe0e6bc666dac8fc2697ff9baa069de221759705ae5c656adb3670eb42e6e4f6c2184689b5e70f68f1180ded5f3a023d605b089b7edb700ac68a7fce8d113002255da3fbe81d2227b423ad7d756b6a00162f4c66e61d059aecedfe52d3cbe3fd217ccdae96f2e67126096d1ef80dbe0b9010000000000000000000000000000000000000000000000000000000000000000000000000000000000000000000000000000000000000000000000000000000000000000000000000000000000000000000000000000000000000000000000000000000000000000000000000000000000000000000000000000000000000000000000000000000000000000000000000000000000000000000000000000000000000000000000000000000000000000000000000000000000000000000000000000000000000000000000000000000000000000000000000000000000000000000000000000000000000000000000000000000000000000000000000000000000830200000183989680830d88d48203e880a00000000000000000000000000000000000000000000000000000000000000000880000000000000000f90108f901058001831e84808001b8b861036b6064526000600060206000600073b200000000000000000000000000000000000000620493e0f2506000600060006000731000000000000000000000000000000000000000620493e0f450600060006020600073b200000000000000000000000000000000000000620493e0fa506000600060006000732000000000000000000000000000000000000000620493e0fa5060006000600060006000732000000000000000000000000000000000000000620927c0f11ba0114469561707b9c01cbbdfaf4fa5ee50945c21bf7064527e610adff9677bf66aa039ff09918d59b5d7df09de98cf97e19e98ff9473d48dc29634fdf5f8a0d90284c0",
                "transactions" : [
                    {
                        "data" : "0x61036b6064526000600060206000600073b200000000000000000000000000000000000000620493e0f2506000600060006000731000000000000000000000000000000000000000620493e0f450600060006020600073b200000000000000000000000000000000000000620493e0fa506000600060006000732000000000000000000000000000000000000000620493e0fa5060006000600060006000732000000000000000000000000000000000000000620927c0f1",
                        "gasLimit" : "0x1e8480",
                        "gasPrice" : "0x01",
                        "nonce" : "0x00",
                        "r" : "0x114469561707b9c01cbbdfaf4fa5ee50945c21bf7064527e610adff9677bf66a",
                        "s" : "0x39ff09918d59b5d7df09de98cf97e19e98ff9473d48dc29634fdf5f8a0d90284",
                        "to" : "",
                        "v" : "0x1b",
                        "value" : "0x01"
                    }
                ],
                "uncleHeaders" : [
                ]
            }
        ],
        "genesisBlockHeader" : {
            "bloom" : "0x00000000000000000000000000000000000000000000000000000000000000000000000000000000000000000000000000000000000000000000000000000000000000000000000000000000000000000000000000000000000000000000000000000000000000000000000000000000000000000000000000000000000000000000000000000000000000000000000000000000000000000000000000000000000000000000000000000000000000000000000000000000000000000000000000000000000000000000000000000000000000000000000000000000000000000000000000000000000000000000000000000000000000000000000000000000",
            "coinbase" : "0x2adc25665018aa1fe0e6bc666dac8fc2697ff9ba",
            "difficulty" : "0x020000",
            "extraData" : "0x42",
            "gasLimit" : "0x989680",
            "gasUsed" : "0x00",
            "hash" : "0x4839a5e717589a5ebffcd7f90acd431250a2eb137626c2effb10e6d49036cf7c",
            "mixHash" : "0x56e81f171bcc55a6ff8345e692c0f86e5b48e01b996cadc001622fb5e363b421",
            "nonce" : "0x0102030405060708",
            "number" : "0x00",
            "parentHash" : "0x0000000000000000000000000000000000000000000000000000000000000000",
            "receiptTrie" : "0x56e81f171bcc55a6ff8345e692c0f86e5b48e01b996cadc001622fb5e363b421",
            "stateRoot" : "0xbdcd29a9b9a3cafaf457a6e3ac249cf4c0295219e01aa2097c03325c896ccf96",
            "timestamp" : "0x03b6",
            "transactionsTrie" : "0x56e81f171bcc55a6ff8345e692c0f86e5b48e01b996cadc001622fb5e363b421",
            "uncleHash" : "0x1dcc4de8dec75d7aab85b567b6ccd41ad312451b948a7413f0a142fd40d49347"
        },
        "genesisRLP" : "0xf901faf901f5a00000000000000000000000000000000000000000000000000000000000000000a01dcc4de8dec75d7aab85b567b6ccd41ad312451b948a7413f0a142fd40d49347942adc25665018aa1fe0e6bc666dac8fc2697ff9baa0bdcd29a9b9a3cafaf457a6e3ac249cf4c0295219e01aa2097c03325c896ccf96a056e81f171bcc55a6ff8345e692c0f86e5b48e01b996cadc001622fb5e363b421a056e81f171bcc55a6ff8345e692c0f86e5b48e01b996cadc001622fb5e363b421b9010000000000000000000000000000000000000000000000000000000000000000000000000000000000000000000000000000000000000000000000000000000000000000000000000000000000000000000000000000000000000000000000000000000000000000000000000000000000000000000000000000000000000000000000000000000000000000000000000000000000000000000000000000000000000000000000000000000000000000000000000000000000000000000000000000000000000000000000000000000000000000000000000000000000000000000000000000000000000000000000000000000000000000000000000000000000830200008083989680808203b642a056e81f171bcc55a6ff8345e692c0f86e5b48e01b996cadc001622fb5e363b421880102030405060708c0c0",
        "lastblockhash" : "0xd9f8ec86e21028cae0caa7973b82f33d18c457155c31d2bfa87a03a3b3d889e4",
        "network" : "ConstantinopleFix",
        "postState" : {
            "0x1000000000000000000000000000000000000000" : {
                "balance" : "0x00",
                "code" : "0x",
                "nonce" : "0x00",
                "storage" : {
                    "0x00" : "0x01",
                    "0x01" : "0x01",
                    "0x02" : "0x01"
                }
            },
            "0x2000000000000000000000000000000000000000" : {
                "balance" : "0x00",
                "code" : "0x6001600155600060015560016002556000600255600160035560006003556001600455600060045560016005556000600555600160065560006006556001600755600060075560016008556000600855600160095560006009556001600a556000600a556001600b556000600b556001600c556000600c556001600d556000600d556001600e556000600e556001600f556000600f55600160105560006010556001600155",
                "nonce" : "0x00",
                "storage" : {
                    "0x01" : "0x01"
                }
            },
            "0x2adc25665018aa1fe0e6bc666dac8fc2697ff9ba" : {
                "balance" : "0x1bc16d674ed588d4",
                "code" : "0x",
                "nonce" : "0x00",
                "storage" : {
                }
            },
            "0x3000000000000000000000000000000000000000" : {
                "balance" : "0x00",
                "code" : "0x60206000fd",
                "nonce" : "0x00",
                "storage" : {
                    "0x00" : "0x02",
                    "0x01" : "0x02",
                    "0x02" : "0x02"
                }
            },
            "0x6295ee1b4f6dd65047762f924ecd367c17eabf8f" : {
                "balance" : "0x01",
                "code" : "0x",
                "nonce" : "0x01",
                "storage" : {
                    "0x01" : "0x01",
                    "0x02" : "0x02"
                }
            },
            "0xa94f5374fce5edbc8e2a8697c15331677e6ebf0b" : {
                "balance" : "0xe8d497872b",
                "code" : "0x",
                "nonce" : "0x01",
                "storage" : {
                }
            },
            "0xb000000000000000000000000000000000000000" : {
                "balance" : "0x00",
                "code" : "0x600060005560016001556002600255",
                "nonce" : "0x00",
                "storage" : {
                }
            },
            "0xb100000000000000000000000000000000000000" : {
                "balance" : "0x00",
                "code" : "0x600060005560016001556002600255",
                "nonce" : "0x00",
                "storage" : {
                    "0x00" : "0x01",
                    "0x01" : "0x01",
                    "0x02" : "0x01"
                }
            },
            "0xb200000000000000000000000000000000000000" : {
                "balance" : "0x00",
                "code" : "0x600060005560016001556002600255",
                "nonce" : "0x00",
                "storage" : {
                    "0x00" : "0x02",
                    "0x01" : "0x02",
                    "0x02" : "0x02"
                }
            }
        },
        "pre" : {
            "0x1000000000000000000000000000000000000000" : {
                "balance" : "0x00",
                "code" : "0x",
                "nonce" : "0x00",
                "storage" : {
                    "0x00" : "0x01",
                    "0x01" : "0x01",
                    "0x02" : "0x01"
                }
            },
            "0x2000000000000000000000000000000000000000" : {
                "balance" : "0x00",
                "code" : "0x6001600155600060015560016002556000600255600160035560006003556001600455600060045560016005556000600555600160065560006006556001600755600060075560016008556000600855600160095560006009556001600a556000600a556001600b556000600b556001600c556000600c556001600d556000600d556001600e556000600e556001600f556000600f55600160105560006010556001600155",
                "nonce" : "0x00",
                "storage" : {
                }
            },
            "0x3000000000000000000000000000000000000000" : {
                "balance" : "0x00",
                "code" : "0x60206000fd",
                "nonce" : "0x00",
                "storage" : {
                    "0x00" : "0x02",
                    "0x01" : "0x02",
                    "0x02" : "0x02"
                }
            },
            "0xa94f5374fce5edbc8e2a8697c15331677e6ebf0b" : {
                "balance" : "0xe8d4a51000",
                "code" : "0x",
                "nonce" : "0x00",
                "storage" : {
                }
            },
            "0xb000000000000000000000000000000000000000" : {
                "balance" : "0x00",
                "code" : "0x600060005560016001556002600255",
                "nonce" : "0x00",
                "storage" : {
                }
            },
            "0xb100000000000000000000000000000000000000" : {
                "balance" : "0x00",
                "code" : "0x600060005560016001556002600255",
                "nonce" : "0x00",
                "storage" : {
                    "0x00" : "0x01",
                    "0x01" : "0x01",
                    "0x02" : "0x01"
                }
            },
            "0xb200000000000000000000000000000000000000" : {
                "balance" : "0x00",
                "code" : "0x600060005560016001556002600255",
                "nonce" : "0x00",
                "storage" : {
                    "0x00" : "0x02",
                    "0x01" : "0x02",
                    "0x02" : "0x02"
                }
            }
        },
        "sealEngine" : "NoProof"
    }
}