{
    "sstore_combinations_initial1_d1605g0v0_Constantinople" : {
        "_info" : {
            "comment" : "sstore 1 -> {calltype} -> change to {0, 1, 2} |-> {calltype} -> {non, oog, revert} |-> {calltype} -> change to {0, 1, 2} |-> {non, oog, revert}",
            "filledwith" : "testeth 1.7.0-alpha.1-20+commit.782a7283",
            "lllcversion" : "Version: 0.5.0-develop.2018.11.9+commit.9709dfe0.Linux.g++",
            "source" : "src/BlockchainTestsFiller/GeneralStateTests/stTimeConsuming/sstore_combinations_initial1_d1605g0v0Filler.json",
            "sourceHash" : "00cbdf61009c9bd8642c340dc1c30b13233b7b08a1ce0cdfd97933388665d50a"
        },
        "blocks" : [
            {
                "blockHeader" : {
                    "bloom" : "0x00000000000000000000000000000000000000000000000000000000000000000000000000000000000000000000000000000000000000000000000000000000000000000000000000000000000000000000000000000000000000000000000000000000000000000000000000000000000000000000000000000000000000000000000000000000000000000000000000000000000000000000000000000000000000000000000000000000000000000000000000000000000000000000000000000000000000000000000000000000000000000000000000000000000000000000000000000000000000000000000000000000000000000000000000000000",
                    "coinbase" : "0x2adc25665018aa1fe0e6bc666dac8fc2697ff9ba",
                    "difficulty" : "0x020000",
                    "extraData" : "0x",
                    "gasLimit" : "0x989680",
                    "gasUsed" : "0x0379e4",
                    "hash" : "0xee8b016c34308e4792299c1843d1f033d519d7aa3c56ec56f94b5ad9a19990f9",
                    "mixHash" : "0x0000000000000000000000000000000000000000000000000000000000000000",
                    "nonce" : "0x0000000000000000",
                    "number" : "0x01",
                    "parentHash" : "0x4839a5e717589a5ebffcd7f90acd431250a2eb137626c2effb10e6d49036cf7c",
                    "receiptTrie" : "0xee5918cbf52f4de8c34f592784832df8f3bb664cf520c78953a6d26a15cbbfb4",
                    "stateRoot" : "0x2dce702106db19a7adf93d3b63da07306449359c047b7331e1a52781359040a6",
                    "timestamp" : "0x03e8",
                    "transactionsTrie" : "0x351dfe2e77ece60abc245b1e351c40287bf0dae676d6801cbebfc4ffd0c75b6f",
                    "uncleHash" : "0x1dcc4de8dec75d7aab85b567b6ccd41ad312451b948a7413f0a142fd40d49347"
                },
                "rlp" : "0xf90307f901f8a04839a5e717589a5ebffcd7f90acd431250a2eb137626c2effb10e6d49036cf7ca01dcc4de8dec75d7aab85b567b6ccd41ad312451b948a7413f0a142fd40d49347942adc25665018aa1fe0e6bc666dac8fc2697ff9baa02dce702106db19a7adf93d3b63da07306449359c047b7331e1a52781359040a6a0351dfe2e77ece60abc245b1e351c40287bf0dae676d6801cbebfc4ffd0c75b6fa0ee5918cbf52f4de8c34f592784832df8f3bb664cf520c78953a6d26a15cbbfb4b9010000000000000000000000000000000000000000000000000000000000000000000000000000000000000000000000000000000000000000000000000000000000000000000000000000000000000000000000000000000000000000000000000000000000000000000000000000000000000000000000000000000000000000000000000000000000000000000000000000000000000000000000000000000000000000000000000000000000000000000000000000000000000000000000000000000000000000000000000000000000000000000000000000000000000000000000000000000000000000000000000000000000000000000000000000000000830200000183989680830379e48203e880a00000000000000000000000000000000000000000000000000000000000000000880000000000000000f90108f901058001831e84808001b8b8610645606452600060006020600073b100000000000000000000000000000000000000620493e0f4506000600060006000731000000000000000000000000000000000000000620493e0fa506000600060206000600073b100000000000000000000000000000000000000620493e0f1506000600060006000733000000000000000000000000000000000000000620493e0f45060006000600060006000732000000000000000000000000000000000000000620927c0f11ca0f8295a9aa0c4b634095906f32dcc5a844151f88db2db4a56e543d40ab5a43d39a024a6e2879cbd999db2a8144b04f395a2b3e09c67281cbcee6b078c89d47c1680c0",
                "transactions" : [
                    {
                        "data" : "0x610645606452600060006020600073b100000000000000000000000000000000000000620493e0f4506000600060006000731000000000000000000000000000000000000000620493e0fa506000600060206000600073b100000000000000000000000000000000000000620493e0f1506000600060006000733000000000000000000000000000000000000000620493e0f45060006000600060006000732000000000000000000000000000000000000000620927c0f1",
                        "gasLimit" : "0x1e8480",
                        "gasPrice" : "0x01",
                        "nonce" : "0x00",
                        "r" : "0xf8295a9aa0c4b634095906f32dcc5a844151f88db2db4a56e543d40ab5a43d39",
                        "s" : "0x24a6e2879cbd999db2a8144b04f395a2b3e09c67281cbcee6b078c89d47c1680",
                        "to" : "",
                        "v" : "0x1c",
                        "value" : "0x01"
                    }
                ],
                "uncleHeaders" : [
                ]
            }
        ],
        "genesisBlockHeader" : {
            "bloom" : "0x00000000000000000000000000000000000000000000000000000000000000000000000000000000000000000000000000000000000000000000000000000000000000000000000000000000000000000000000000000000000000000000000000000000000000000000000000000000000000000000000000000000000000000000000000000000000000000000000000000000000000000000000000000000000000000000000000000000000000000000000000000000000000000000000000000000000000000000000000000000000000000000000000000000000000000000000000000000000000000000000000000000000000000000000000000000",
            "coinbase" : "0x2adc25665018aa1fe0e6bc666dac8fc2697ff9ba",
            "difficulty" : "0x020000",
            "extraData" : "0x42",
            "gasLimit" : "0x989680",
            "gasUsed" : "0x00",
            "hash" : "0x4839a5e717589a5ebffcd7f90acd431250a2eb137626c2effb10e6d49036cf7c",
            "mixHash" : "0x56e81f171bcc55a6ff8345e692c0f86e5b48e01b996cadc001622fb5e363b421",
            "nonce" : "0x0102030405060708",
            "number" : "0x00",
            "parentHash" : "0x0000000000000000000000000000000000000000000000000000000000000000",
            "receiptTrie" : "0x56e81f171bcc55a6ff8345e692c0f86e5b48e01b996cadc001622fb5e363b421",
            "stateRoot" : "0xbdcd29a9b9a3cafaf457a6e3ac249cf4c0295219e01aa2097c03325c896ccf96",
            "timestamp" : "0x03b6",
            "transactionsTrie" : "0x56e81f171bcc55a6ff8345e692c0f86e5b48e01b996cadc001622fb5e363b421",
            "uncleHash" : "0x1dcc4de8dec75d7aab85b567b6ccd41ad312451b948a7413f0a142fd40d49347"
        },
        "genesisRLP" : "0xf901faf901f5a00000000000000000000000000000000000000000000000000000000000000000a01dcc4de8dec75d7aab85b567b6ccd41ad312451b948a7413f0a142fd40d49347942adc25665018aa1fe0e6bc666dac8fc2697ff9baa0bdcd29a9b9a3cafaf457a6e3ac249cf4c0295219e01aa2097c03325c896ccf96a056e81f171bcc55a6ff8345e692c0f86e5b48e01b996cadc001622fb5e363b421a056e81f171bcc55a6ff8345e692c0f86e5b48e01b996cadc001622fb5e363b421b9010000000000000000000000000000000000000000000000000000000000000000000000000000000000000000000000000000000000000000000000000000000000000000000000000000000000000000000000000000000000000000000000000000000000000000000000000000000000000000000000000000000000000000000000000000000000000000000000000000000000000000000000000000000000000000000000000000000000000000000000000000000000000000000000000000000000000000000000000000000000000000000000000000000000000000000000000000000000000000000000000000000000000000000000000000000000830200008083989680808203b642a056e81f171bcc55a6ff8345e692c0f86e5b48e01b996cadc001622fb5e363b421880102030405060708c0c0",
        "lastblockhash" : "0xee8b016c34308e4792299c1843d1f033d519d7aa3c56ec56f94b5ad9a19990f9",
        "network" : "Constantinople",
        "postState" : {
            "0x2000000000000000000000000000000000000000" : {
                "balance" : "0x00",
                "code" : "0x6001600155600060015560016002556000600255600160035560006003556001600455600060045560016005556000600555600160065560006006556001600755600060075560016008556000600855600160095560006009556001600a556000600a556001600b556000600b556001600c556000600c556001600d556000600d556001600e556000600e556001600f556000600f55600160105560006010556001600155",
                "nonce" : "0x00",
                "storage" : {
                    "0x01" : "0x01"
                }
            },
            "0x2adc25665018aa1fe0e6bc666dac8fc2697ff9ba" : {
                "balance" : "0x1bc16d674ecb79e4",
                "code" : "0x",
                "nonce" : "0x00",
                "storage" : {
                }
            },
            "0x3000000000000000000000000000000000000000" : {
                "balance" : "0x00",
                "code" : "0x60206000fd",
                "nonce" : "0x00",
                "storage" : {
                    "0x00" : "0x02",
                    "0x01" : "0x02",
                    "0x02" : "0x02"
                }
            },
            "0x6295ee1b4f6dd65047762f924ecd367c17eabf8f" : {
                "balance" : "0x01",
                "code" : "0x",
                "nonce" : "0x01",
                "storage" : {
                    "0x01" : "0x01",
                    "0x02" : "0x02"
                }
            },
            "0xa94f5374fce5edbc8e2a8697c15331677e6ebf0b" : {
                "balance" : "0xe8d4a1961b",
                "code" : "0x",
                "nonce" : "0x01",
                "storage" : {
                }
            },
            "0xb000000000000000000000000000000000000000" : {
                "balance" : "0x00",
                "code" : "0x600060005560016001556002600255",
                "nonce" : "0x00",
                "storage" : {
                }
            },
            "0xb100000000000000000000000000000000000000" : {
                "balance" : "0x00",
                "code" : "0x600060005560016001556002600255",
                "nonce" : "0x00",
                "storage" : {
                    "0x01" : "0x01",
                    "0x02" : "0x02"
                }
            },
            "0xb200000000000000000000000000000000000000" : {
                "balance" : "0x00",
                "code" : "0x600060005560016001556002600255",
                "nonce" : "0x00",
                "storage" : {
                    "0x00" : "0x02",
                    "0x01" : "0x02",
                    "0x02" : "0x02"
                }
            }
        },
        "pre" : {
            "0x1000000000000000000000000000000000000000" : {
                "balance" : "0x00",
                "code" : "0x",
                "nonce" : "0x00",
                "storage" : {
                    "0x00" : "0x01",
                    "0x01" : "0x01",
                    "0x02" : "0x01"
                }
            },
            "0x2000000000000000000000000000000000000000" : {
                "balance" : "0x00",
                "code" : "0x6001600155600060015560016002556000600255600160035560006003556001600455600060045560016005556000600555600160065560006006556001600755600060075560016008556000600855600160095560006009556001600a556000600a556001600b556000600b556001600c556000600c556001600d556000600d556001600e556000600e556001600f556000600f55600160105560006010556001600155",
                "nonce" : "0x00",
                "storage" : {
                }
            },
            "0x3000000000000000000000000000000000000000" : {
                "balance" : "0x00",
                "code" : "0x60206000fd",
                "nonce" : "0x00",
                "storage" : {
                    "0x00" : "0x02",
                    "0x01" : "0x02",
                    "0x02" : "0x02"
                }
            },
            "0xa94f5374fce5edbc8e2a8697c15331677e6ebf0b" : {
                "balance" : "0xe8d4a51000",
                "code" : "0x",
                "nonce" : "0x00",
                "storage" : {
                }
            },
            "0xb000000000000000000000000000000000000000" : {
                "balance" : "0x00",
                "code" : "0x600060005560016001556002600255",
                "nonce" : "0x00",
                "storage" : {
                }
            },
            "0xb100000000000000000000000000000000000000" : {
                "balance" : "0x00",
                "code" : "0x600060005560016001556002600255",
                "nonce" : "0x00",
                "storage" : {
                    "0x00" : "0x01",
                    "0x01" : "0x01",
                    "0x02" : "0x01"
                }
            },
            "0xb200000000000000000000000000000000000000" : {
                "balance" : "0x00",
                "code" : "0x600060005560016001556002600255",
                "nonce" : "0x00",
                "storage" : {
                    "0x00" : "0x02",
                    "0x01" : "0x02",
                    "0x02" : "0x02"
                }
            }
        },
        "sealEngine" : "NoProof"
    },
    "sstore_combinations_initial1_d1605g0v0_ConstantinopleFix" : {
        "_info" : {
            "comment" : "sstore 1 -> {calltype} -> change to {0, 1, 2} |-> {calltype} -> {non, oog, revert} |-> {calltype} -> change to {0, 1, 2} |-> {non, oog, revert}",
            "filledwith" : "testeth 1.7.0-alpha.1-20+commit.782a7283",
            "lllcversion" : "Version: 0.5.0-develop.2018.11.9+commit.9709dfe0.Linux.g++",
            "source" : "src/BlockchainTestsFiller/GeneralStateTests/stTimeConsuming/sstore_combinations_initial1_d1605g0v0Filler.json",
            "sourceHash" : "00cbdf61009c9bd8642c340dc1c30b13233b7b08a1ce0cdfd97933388665d50a"
        },
        "blocks" : [
            {
                "blockHeader" : {
                    "bloom" : "0x00000000000000000000000000000000000000000000000000000000000000000000000000000000000000000000000000000000000000000000000000000000000000000000000000000000000000000000000000000000000000000000000000000000000000000000000000000000000000000000000000000000000000000000000000000000000000000000000000000000000000000000000000000000000000000000000000000000000000000000000000000000000000000000000000000000000000000000000000000000000000000000000000000000000000000000000000000000000000000000000000000000000000000000000000000000",
                    "coinbase" : "0x2adc25665018aa1fe0e6bc666dac8fc2697ff9ba",
                    "difficulty" : "0x020000",
                    "extraData" : "0x",
                    "gasLimit" : "0x989680",
                    "gasUsed" : "0x04612f",
                    "hash" : "0xad9169b06d2acbaedbd296acd87ff783cd8d1f7121ad5bef0cb7e61b53d76e69",
                    "mixHash" : "0x0000000000000000000000000000000000000000000000000000000000000000",
                    "nonce" : "0x0000000000000000",
                    "number" : "0x01",
                    "parentHash" : "0x4839a5e717589a5ebffcd7f90acd431250a2eb137626c2effb10e6d49036cf7c",
                    "receiptTrie" : "0x797398370a9c4ceafe3d76a487215a05b012d660dc9d03d824c14386772859f8",
                    "stateRoot" : "0x684541131e06ba0915e485f62862a03341cbb4333cd7ad32d9a240b7762b9d50",
                    "timestamp" : "0x03e8",
                    "transactionsTrie" : "0x351dfe2e77ece60abc245b1e351c40287bf0dae676d6801cbebfc4ffd0c75b6f",
                    "uncleHash" : "0x1dcc4de8dec75d7aab85b567b6ccd41ad312451b948a7413f0a142fd40d49347"
                },
                "rlp" : "0xf90307f901f8a04839a5e717589a5ebffcd7f90acd431250a2eb137626c2effb10e6d49036cf7ca01dcc4de8dec75d7aab85b567b6ccd41ad312451b948a7413f0a142fd40d49347942adc25665018aa1fe0e6bc666dac8fc2697ff9baa0684541131e06ba0915e485f62862a03341cbb4333cd7ad32d9a240b7762b9d50a0351dfe2e77ece60abc245b1e351c40287bf0dae676d6801cbebfc4ffd0c75b6fa0797398370a9c4ceafe3d76a487215a05b012d660dc9d03d824c14386772859f8b90100000000000000000000000000000000000000000000000000000000000000000000000000000000000000000000000000000000000000000000000000000000000000000000000000000000000000000000000000000000000000000000000000000000000000000000000000000000000000000000000000000000000000000000000000000000000000000000000000000000000000000000000000000000000000000000000000000000000000000000000000000000000000000000000000000000000000000000000000000000000000000000000000000000000000000000000000000000000000000000000000000000000000000000000000000000008302000001839896808304612f8203e880a00000000000000000000000000000000000000000000000000000000000000000880000000000000000f90108f901058001831e84808001b8b8610645606452600060006020600073b100000000000000000000000000000000000000620493e0f4506000600060006000731000000000000000000000000000000000000000620493e0fa506000600060206000600073b100000000000000000000000000000000000000620493e0f1506000600060006000733000000000000000000000000000000000000000620493e0f45060006000600060006000732000000000000000000000000000000000000000620927c0f11ca0f8295a9aa0c4b634095906f32dcc5a844151f88db2db4a56e543d40ab5a43d39a024a6e2879cbd999db2a8144b04f395a2b3e09c67281cbcee6b078c89d47c1680c0",
                "transactions" : [
                    {
                        "data" : "0x610645606452600060006020600073b100000000000000000000000000000000000000620493e0f4506000600060006000731000000000000000000000000000000000000000620493e0fa506000600060206000600073b100000000000000000000000000000000000000620493e0f1506000600060006000733000000000000000000000000000000000000000620493e0f45060006000600060006000732000000000000000000000000000000000000000620927c0f1",
                        "gasLimit" : "0x1e8480",
                        "gasPrice" : "0x01",
                        "nonce" : "0x00",
                        "r" : "0xf8295a9aa0c4b634095906f32dcc5a844151f88db2db4a56e543d40ab5a43d39",
                        "s" : "0x24a6e2879cbd999db2a8144b04f395a2b3e09c67281cbcee6b078c89d47c1680",
                        "to" : "",
                        "v" : "0x1c",
                        "value" : "0x01"
                    }
                ],
                "uncleHeaders" : [
                ]
            }
        ],
        "genesisBlockHeader" : {
            "bloom" : "0x00000000000000000000000000000000000000000000000000000000000000000000000000000000000000000000000000000000000000000000000000000000000000000000000000000000000000000000000000000000000000000000000000000000000000000000000000000000000000000000000000000000000000000000000000000000000000000000000000000000000000000000000000000000000000000000000000000000000000000000000000000000000000000000000000000000000000000000000000000000000000000000000000000000000000000000000000000000000000000000000000000000000000000000000000000000",
            "coinbase" : "0x2adc25665018aa1fe0e6bc666dac8fc2697ff9ba",
            "difficulty" : "0x020000",
            "extraData" : "0x42",
            "gasLimit" : "0x989680",
            "gasUsed" : "0x00",
            "hash" : "0x4839a5e717589a5ebffcd7f90acd431250a2eb137626c2effb10e6d49036cf7c",
            "mixHash" : "0x56e81f171bcc55a6ff8345e692c0f86e5b48e01b996cadc001622fb5e363b421",
            "nonce" : "0x0102030405060708",
            "number" : "0x00",
            "parentHash" : "0x0000000000000000000000000000000000000000000000000000000000000000",
            "receiptTrie" : "0x56e81f171bcc55a6ff8345e692c0f86e5b48e01b996cadc001622fb5e363b421",
            "stateRoot" : "0xbdcd29a9b9a3cafaf457a6e3ac249cf4c0295219e01aa2097c03325c896ccf96",
            "timestamp" : "0x03b6",
            "transactionsTrie" : "0x56e81f171bcc55a6ff8345e692c0f86e5b48e01b996cadc001622fb5e363b421",
            "uncleHash" : "0x1dcc4de8dec75d7aab85b567b6ccd41ad312451b948a7413f0a142fd40d49347"
        },
        "genesisRLP" : "0xf901faf901f5a00000000000000000000000000000000000000000000000000000000000000000a01dcc4de8dec75d7aab85b567b6ccd41ad312451b948a7413f0a142fd40d49347942adc25665018aa1fe0e6bc666dac8fc2697ff9baa0bdcd29a9b9a3cafaf457a6e3ac249cf4c0295219e01aa2097c03325c896ccf96a056e81f171bcc55a6ff8345e692c0f86e5b48e01b996cadc001622fb5e363b421a056e81f171bcc55a6ff8345e692c0f86e5b48e01b996cadc001622fb5e363b421b9010000000000000000000000000000000000000000000000000000000000000000000000000000000000000000000000000000000000000000000000000000000000000000000000000000000000000000000000000000000000000000000000000000000000000000000000000000000000000000000000000000000000000000000000000000000000000000000000000000000000000000000000000000000000000000000000000000000000000000000000000000000000000000000000000000000000000000000000000000000000000000000000000000000000000000000000000000000000000000000000000000000000000000000000000000000000830200008083989680808203b642a056e81f171bcc55a6ff8345e692c0f86e5b48e01b996cadc001622fb5e363b421880102030405060708c0c0",
        "lastblockhash" : "0xad9169b06d2acbaedbd296acd87ff783cd8d1f7121ad5bef0cb7e61b53d76e69",
        "network" : "ConstantinopleFix",
        "postState" : {
            "0x2000000000000000000000000000000000000000" : {
                "balance" : "0x00",
                "code" : "0x6001600155600060015560016002556000600255600160035560006003556001600455600060045560016005556000600555600160065560006006556001600755600060075560016008556000600855600160095560006009556001600a556000600a556001600b556000600b556001600c556000600c556001600d556000600d556001600e556000600e556001600f556000600f55600160105560006010556001600155",
                "nonce" : "0x00",
                "storage" : {
                    "0x01" : "0x01"
                }
            },
            "0x2adc25665018aa1fe0e6bc666dac8fc2697ff9ba" : {
                "balance" : "0x1bc16d674ecc612f",
                "code" : "0x",
                "nonce" : "0x00",
                "storage" : {
                }
            },
            "0x3000000000000000000000000000000000000000" : {
                "balance" : "0x00",
                "code" : "0x60206000fd",
                "nonce" : "0x00",
                "storage" : {
                    "0x00" : "0x02",
                    "0x01" : "0x02",
                    "0x02" : "0x02"
                }
            },
            "0x6295ee1b4f6dd65047762f924ecd367c17eabf8f" : {
                "balance" : "0x01",
                "code" : "0x",
                "nonce" : "0x01",
                "storage" : {
                    "0x01" : "0x01",
                    "0x02" : "0x02"
                }
            },
            "0xa94f5374fce5edbc8e2a8697c15331677e6ebf0b" : {
                "balance" : "0xe8d4a0aed0",
                "code" : "0x",
                "nonce" : "0x01",
                "storage" : {
                }
            },
            "0xb000000000000000000000000000000000000000" : {
                "balance" : "0x00",
                "code" : "0x600060005560016001556002600255",
                "nonce" : "0x00",
                "storage" : {
                }
            },
            "0xb100000000000000000000000000000000000000" : {
                "balance" : "0x00",
                "code" : "0x600060005560016001556002600255",
                "nonce" : "0x00",
                "storage" : {
                    "0x01" : "0x01",
                    "0x02" : "0x02"
                }
            },
            "0xb200000000000000000000000000000000000000" : {
                "balance" : "0x00",
                "code" : "0x600060005560016001556002600255",
                "nonce" : "0x00",
                "storage" : {
                    "0x00" : "0x02",
                    "0x01" : "0x02",
                    "0x02" : "0x02"
                }
            }
        },
        "pre" : {
            "0x1000000000000000000000000000000000000000" : {
                "balance" : "0x00",
                "code" : "0x",
                "nonce" : "0x00",
                "storage" : {
                    "0x00" : "0x01",
                    "0x01" : "0x01",
                    "0x02" : "0x01"
                }
            },
            "0x2000000000000000000000000000000000000000" : {
                "balance" : "0x00",
                "code" : "0x6001600155600060015560016002556000600255600160035560006003556001600455600060045560016005556000600555600160065560006006556001600755600060075560016008556000600855600160095560006009556001600a556000600a556001600b556000600b556001600c556000600c556001600d556000600d556001600e556000600e556001600f556000600f55600160105560006010556001600155",
                "nonce" : "0x00",
                "storage" : {
                }
            },
            "0x3000000000000000000000000000000000000000" : {
                "balance" : "0x00",
                "code" : "0x60206000fd",
                "nonce" : "0x00",
                "storage" : {
                    "0x00" : "0x02",
                    "0x01" : "0x02",
                    "0x02" : "0x02"
                }
            },
            "0xa94f5374fce5edbc8e2a8697c15331677e6ebf0b" : {
                "balance" : "0xe8d4a51000",
                "code" : "0x",
                "nonce" : "0x00",
                "storage" : {
                }
            },
            "0xb000000000000000000000000000000000000000" : {
                "balance" : "0x00",
                "code" : "0x600060005560016001556002600255",
                "nonce" : "0x00",
                "storage" : {
                }
            },
            "0xb100000000000000000000000000000000000000" : {
                "balance" : "0x00",
                "code" : "0x600060005560016001556002600255",
                "nonce" : "0x00",
                "storage" : {
                    "0x00" : "0x01",
                    "0x01" : "0x01",
                    "0x02" : "0x01"
                }
            },
            "0xb200000000000000000000000000000000000000" : {
                "balance" : "0x00",
                "code" : "0x600060005560016001556002600255",
                "nonce" : "0x00",
                "storage" : {
                    "0x00" : "0x02",
                    "0x01" : "0x02",
                    "0x02" : "0x02"
                }
            }
        },
        "sealEngine" : "NoProof"
    }
}