{
    "sstore_combinations_initial0_d7g0v0_Constantinople" : {
        "_info" : {
            "comment" : "sstore 0 -> {calltype} -> change to {0, 1, 2} |-> {calltype} -> {non, oog, revert} |-> {calltype} -> change to {0, 1, 2} |-> {non, oog, revert}",
            "filledwith" : "testeth 1.7.0-alpha.1-20+commit.782a7283",
            "lllcversion" : "Version: 0.5.0-develop.2018.11.9+commit.9709dfe0.Linux.g++",
            "source" : "src/BlockchainTestsFiller/GeneralStateTests/stTimeConsuming/sstore_combinations_initial0_d7g0v0Filler.json",
            "sourceHash" : "07613c005dc43e9ef8106b7be727ab05fe96dd410359daf68aa0fff3cab7052d"
        },
        "blocks" : [
            {
                "blockHeader" : {
                    "bloom" : "0x00000000000000000000000000000000000000000000000000000000000000000000000000000000000000000000000000000000000000000000000000000000000000000000000000000000000000000000000000000000000000000000000000000000000000000000000000000000000000000000000000000000000000000000000000000000000000000000000000000000000000000000000000000000000000000000000000000000000000000000000000000000000000000000000000000000000000000000000000000000000000000000000000000000000000000000000000000000000000000000000000000000000000000000000000000000",
                    "coinbase" : "0x2adc25665018aa1fe0e6bc666dac8fc2697ff9ba",
                    "difficulty" : "0x020000",
                    "extraData" : "0x",
                    "gasLimit" : "0x989680",
                    "gasUsed" : "0x068a3b",
                    "hash" : "0x400987099886e6b5a862c3f2f71f16ebf28d1f948896385451e97d74b46cf23d",
                    "mixHash" : "0x0000000000000000000000000000000000000000000000000000000000000000",
                    "nonce" : "0x0000000000000000",
                    "number" : "0x01",
                    "parentHash" : "0x4839a5e717589a5ebffcd7f90acd431250a2eb137626c2effb10e6d49036cf7c",
                    "receiptTrie" : "0x945bf88affaa1293ce6f2beef93337f1a86dbe4863ac4eca63476be0e01625a2",
                    "stateRoot" : "0x5394fa26f2b21de0ab19c6a02fd5f2b80a7b927b77bef22b4f49d00c1b7be480",
                    "timestamp" : "0x03e8",
                    "transactionsTrie" : "0x2d44f84c793134a16462c5a5fcb33982d89360a41d03cf9ab5b006ed28109593",
                    "uncleHash" : "0x1dcc4de8dec75d7aab85b567b6ccd41ad312451b948a7413f0a142fd40d49347"
                },
                "rlp" : "0xf90308f901f8a04839a5e717589a5ebffcd7f90acd431250a2eb137626c2effb10e6d49036cf7ca01dcc4de8dec75d7aab85b567b6ccd41ad312451b948a7413f0a142fd40d49347942adc25665018aa1fe0e6bc666dac8fc2697ff9baa05394fa26f2b21de0ab19c6a02fd5f2b80a7b927b77bef22b4f49d00c1b7be480a02d44f84c793134a16462c5a5fcb33982d89360a41d03cf9ab5b006ed28109593a0945bf88affaa1293ce6f2beef93337f1a86dbe4863ac4eca63476be0e01625a2b901000000000000000000000000000000000000000000000000000000000000000000000000000000000000000000000000000000000000000000000000000000000000000000000000000000000000000000000000000000000000000000000000000000000000000000000000000000000000000000000000000000000000000000000000000000000000000000000000000000000000000000000000000000000000000000000000000000000000000000000000000000000000000000000000000000000000000000000000000000000000000000000000000000000000000000000000000000000000000000000000000000000000000000000000000000000083020000018398968083068a3b8203e880a00000000000000000000000000000000000000000000000000000000000000000880000000000000000f90109f901068001831e84808001b8b960076064526000600060206000600073b000000000000000000000000000000000000000620493e0f15060006000600060006000731000000000000000000000000000000000000000620493e0f150600060006020600073b000000000000000000000000000000000000000620493e0fa506000600060006000731000000000000000000000000000000000000000620493e0f45060006000600060006000732000000000000000000000000000000000000000620927c0f11ba055a4adbf4cd73395ac62ba0198b6a69556bf0fe119da5074808abe88dad3bed2a06c926f24a361ef473994a69262e5cbb8f17df3651f1a1d60cd94f8243983a9e8c0",
                "transactions" : [
                    {
                        "data" : "0x60076064526000600060206000600073b000000000000000000000000000000000000000620493e0f15060006000600060006000731000000000000000000000000000000000000000620493e0f150600060006020600073b000000000000000000000000000000000000000620493e0fa506000600060006000731000000000000000000000000000000000000000620493e0f45060006000600060006000732000000000000000000000000000000000000000620927c0f1",
                        "gasLimit" : "0x1e8480",
                        "gasPrice" : "0x01",
                        "nonce" : "0x00",
                        "r" : "0x55a4adbf4cd73395ac62ba0198b6a69556bf0fe119da5074808abe88dad3bed2",
                        "s" : "0x6c926f24a361ef473994a69262e5cbb8f17df3651f1a1d60cd94f8243983a9e8",
                        "to" : "",
                        "v" : "0x1b",
                        "value" : "0x01"
                    }
                ],
                "uncleHeaders" : [
                ]
            }
        ],
        "genesisBlockHeader" : {
            "bloom" : "0x00000000000000000000000000000000000000000000000000000000000000000000000000000000000000000000000000000000000000000000000000000000000000000000000000000000000000000000000000000000000000000000000000000000000000000000000000000000000000000000000000000000000000000000000000000000000000000000000000000000000000000000000000000000000000000000000000000000000000000000000000000000000000000000000000000000000000000000000000000000000000000000000000000000000000000000000000000000000000000000000000000000000000000000000000000000",
            "coinbase" : "0x2adc25665018aa1fe0e6bc666dac8fc2697ff9ba",
            "difficulty" : "0x020000",
            "extraData" : "0x42",
            "gasLimit" : "0x989680",
            "gasUsed" : "0x00",
            "hash" : "0x4839a5e717589a5ebffcd7f90acd431250a2eb137626c2effb10e6d49036cf7c",
            "mixHash" : "0x56e81f171bcc55a6ff8345e692c0f86e5b48e01b996cadc001622fb5e363b421",
            "nonce" : "0x0102030405060708",
            "number" : "0x00",
            "parentHash" : "0x0000000000000000000000000000000000000000000000000000000000000000",
            "receiptTrie" : "0x56e81f171bcc55a6ff8345e692c0f86e5b48e01b996cadc001622fb5e363b421",
            "stateRoot" : "0xbdcd29a9b9a3cafaf457a6e3ac249cf4c0295219e01aa2097c03325c896ccf96",
            "timestamp" : "0x03b6",
            "transactionsTrie" : "0x56e81f171bcc55a6ff8345e692c0f86e5b48e01b996cadc001622fb5e363b421",
            "uncleHash" : "0x1dcc4de8dec75d7aab85b567b6ccd41ad312451b948a7413f0a142fd40d49347"
        },
        "genesisRLP" : "0xf901faf901f5a00000000000000000000000000000000000000000000000000000000000000000a01dcc4de8dec75d7aab85b567b6ccd41ad312451b948a7413f0a142fd40d49347942adc25665018aa1fe0e6bc666dac8fc2697ff9baa0bdcd29a9b9a3cafaf457a6e3ac249cf4c0295219e01aa2097c03325c896ccf96a056e81f171bcc55a6ff8345e692c0f86e5b48e01b996cadc001622fb5e363b421a056e81f171bcc55a6ff8345e692c0f86e5b48e01b996cadc001622fb5e363b421b9010000000000000000000000000000000000000000000000000000000000000000000000000000000000000000000000000000000000000000000000000000000000000000000000000000000000000000000000000000000000000000000000000000000000000000000000000000000000000000000000000000000000000000000000000000000000000000000000000000000000000000000000000000000000000000000000000000000000000000000000000000000000000000000000000000000000000000000000000000000000000000000000000000000000000000000000000000000000000000000000000000000000000000000000000000000000830200008083989680808203b642a056e81f171bcc55a6ff8345e692c0f86e5b48e01b996cadc001622fb5e363b421880102030405060708c0c0",
        "lastblockhash" : "0x400987099886e6b5a862c3f2f71f16ebf28d1f948896385451e97d74b46cf23d",
        "network" : "Constantinople",
        "postState" : {
            "0x2000000000000000000000000000000000000000" : {
                "balance" : "0x00",
                "code" : "0x6001600155600060015560016002556000600255600160035560006003556001600455600060045560016005556000600555600160065560006006556001600755600060075560016008556000600855600160095560006009556001600a556000600a556001600b556000600b556001600c556000600c556001600d556000600d556001600e556000600e556001600f556000600f55600160105560006010556001600155",
                "nonce" : "0x00",
                "storage" : {
                    "0x01" : "0x01"
                }
            },
            "0x2adc25665018aa1fe0e6bc666dac8fc2697ff9ba" : {
                "balance" : "0x1bc16d674ece8a3b",
                "code" : "0x",
                "nonce" : "0x00",
                "storage" : {
                }
            },
            "0x3000000000000000000000000000000000000000" : {
                "balance" : "0x00",
                "code" : "0x60206000fd",
                "nonce" : "0x00",
                "storage" : {
                    "0x00" : "0x02",
                    "0x01" : "0x02",
                    "0x02" : "0x02"
                }
            },
            "0x6295ee1b4f6dd65047762f924ecd367c17eabf8f" : {
                "balance" : "0x01",
                "code" : "0x",
                "nonce" : "0x01",
                "storage" : {
                }
            },
            "0xa94f5374fce5edbc8e2a8697c15331677e6ebf0b" : {
                "balance" : "0xe8d49e85c4",
                "code" : "0x",
                "nonce" : "0x01",
                "storage" : {
                }
            },
            "0xb000000000000000000000000000000000000000" : {
                "balance" : "0x00",
                "code" : "0x600060005560016001556002600255",
                "nonce" : "0x00",
                "storage" : {
                    "0x01" : "0x01",
                    "0x02" : "0x02"
                }
            },
            "0xb100000000000000000000000000000000000000" : {
                "balance" : "0x00",
                "code" : "0x600060005560016001556002600255",
                "nonce" : "0x00",
                "storage" : {
                    "0x00" : "0x01",
                    "0x01" : "0x01",
                    "0x02" : "0x01"
                }
            },
            "0xb200000000000000000000000000000000000000" : {
                "balance" : "0x00",
                "code" : "0x600060005560016001556002600255",
                "nonce" : "0x00",
                "storage" : {
                    "0x00" : "0x02",
                    "0x01" : "0x02",
                    "0x02" : "0x02"
                }
            }
        },
        "pre" : {
            "0x1000000000000000000000000000000000000000" : {
                "balance" : "0x00",
                "code" : "0x",
                "nonce" : "0x00",
                "storage" : {
                    "0x00" : "0x01",
                    "0x01" : "0x01",
                    "0x02" : "0x01"
                }
            },
            "0x2000000000000000000000000000000000000000" : {
                "balance" : "0x00",
                "code" : "0x6001600155600060015560016002556000600255600160035560006003556001600455600060045560016005556000600555600160065560006006556001600755600060075560016008556000600855600160095560006009556001600a556000600a556001600b556000600b556001600c556000600c556001600d556000600d556001600e556000600e556001600f556000600f55600160105560006010556001600155",
                "nonce" : "0x00",
                "storage" : {
                }
            },
            "0x3000000000000000000000000000000000000000" : {
                "balance" : "0x00",
                "code" : "0x60206000fd",
                "nonce" : "0x00",
                "storage" : {
                    "0x00" : "0x02",
                    "0x01" : "0x02",
                    "0x02" : "0x02"
                }
            },
            "0xa94f5374fce5edbc8e2a8697c15331677e6ebf0b" : {
                "balance" : "0xe8d4a51000",
                "code" : "0x",
                "nonce" : "0x00",
                "storage" : {
                }
            },
            "0xb000000000000000000000000000000000000000" : {
                "balance" : "0x00",
                "code" : "0x600060005560016001556002600255",
                "nonce" : "0x00",
                "storage" : {
                }
            },
            "0xb100000000000000000000000000000000000000" : {
                "balance" : "0x00",
                "code" : "0x600060005560016001556002600255",
                "nonce" : "0x00",
                "storage" : {
                    "0x00" : "0x01",
                    "0x01" : "0x01",
                    "0x02" : "0x01"
                }
            },
            "0xb200000000000000000000000000000000000000" : {
                "balance" : "0x00",
                "code" : "0x600060005560016001556002600255",
                "nonce" : "0x00",
                "storage" : {
                    "0x00" : "0x02",
                    "0x01" : "0x02",
                    "0x02" : "0x02"
                }
            }
        },
        "sealEngine" : "NoProof"
    },
    "sstore_combinations_initial0_d7g0v0_ConstantinopleFix" : {
        "_info" : {
            "comment" : "sstore 0 -> {calltype} -> change to {0, 1, 2} |-> {calltype} -> {non, oog, revert} |-> {calltype} -> change to {0, 1, 2} |-> {non, oog, revert}",
            "filledwith" : "testeth 1.7.0-alpha.1-20+commit.782a7283",
            "lllcversion" : "Version: 0.5.0-develop.2018.11.9+commit.9709dfe0.Linux.g++",
            "source" : "src/BlockchainTestsFiller/GeneralStateTests/stTimeConsuming/sstore_combinations_initial0_d7g0v0Filler.json",
            "sourceHash" : "07613c005dc43e9ef8106b7be727ab05fe96dd410359daf68aa0fff3cab7052d"
        },
        "blocks" : [
            {
                "blockHeader" : {
                    "bloom" : "0x00000000000000000000000000000000000000000000000000000000000000000000000000000000000000000000000000000000000000000000000000000000000000000000000000000000000000000000000000000000000000000000000000000000000000000000000000000000000000000000000000000000000000000000000000000000000000000000000000000000000000000000000000000000000000000000000000000000000000000000000000000000000000000000000000000000000000000000000000000000000000000000000000000000000000000000000000000000000000000000000000000000000000000000000000000000",
                    "coinbase" : "0x2adc25665018aa1fe0e6bc666dac8fc2697ff9ba",
                    "difficulty" : "0x020000",
                    "extraData" : "0x",
                    "gasLimit" : "0x989680",
                    "gasUsed" : "0x08f4fb",
                    "hash" : "0x8e4cfc2d3840a8c7d49217846b6cb330003e8b6de3de96df54fa9ba721a75b4b",
                    "mixHash" : "0x0000000000000000000000000000000000000000000000000000000000000000",
                    "nonce" : "0x0000000000000000",
                    "number" : "0x01",
                    "parentHash" : "0x4839a5e717589a5ebffcd7f90acd431250a2eb137626c2effb10e6d49036cf7c",
                    "receiptTrie" : "0x4b0d443e8a09e143f7e1bca3399f073f79f275350632f6f39cd8f7ed4af85be7",
                    "stateRoot" : "0x3c7a18574f4f0bdf4e06ae09107cc1d33bd99be7880a42fa8bac24bd6b6436b7",
                    "timestamp" : "0x03e8",
                    "transactionsTrie" : "0x2d44f84c793134a16462c5a5fcb33982d89360a41d03cf9ab5b006ed28109593",
                    "uncleHash" : "0x1dcc4de8dec75d7aab85b567b6ccd41ad312451b948a7413f0a142fd40d49347"
                },
                "rlp" : "0xf90308f901f8a04839a5e717589a5ebffcd7f90acd431250a2eb137626c2effb10e6d49036cf7ca01dcc4de8dec75d7aab85b567b6ccd41ad312451b948a7413f0a142fd40d49347942adc25665018aa1fe0e6bc666dac8fc2697ff9baa03c7a18574f4f0bdf4e06ae09107cc1d33bd99be7880a42fa8bac24bd6b6436b7a02d44f84c793134a16462c5a5fcb33982d89360a41d03cf9ab5b006ed28109593a04b0d443e8a09e143f7e1bca3399f073f79f275350632f6f39cd8f7ed4af85be7b90100000000000000000000000000000000000000000000000000000000000000000000000000000000000000000000000000000000000000000000000000000000000000000000000000000000000000000000000000000000000000000000000000000000000000000000000000000000000000000000000000000000000000000000000000000000000000000000000000000000000000000000000000000000000000000000000000000000000000000000000000000000000000000000000000000000000000000000000000000000000000000000000000000000000000000000000000000000000000000000000000000000000000000000000000000000008302000001839896808308f4fb8203e880a00000000000000000000000000000000000000000000000000000000000000000880000000000000000f90109f901068001831e84808001b8b960076064526000600060206000600073b000000000000000000000000000000000000000620493e0f15060006000600060006000731000000000000000000000000000000000000000620493e0f150600060006020600073b000000000000000000000000000000000000000620493e0fa506000600060006000731000000000000000000000000000000000000000620493e0f45060006000600060006000732000000000000000000000000000000000000000620927c0f11ba055a4adbf4cd73395ac62ba0198b6a69556bf0fe119da5074808abe88dad3bed2a06c926f24a361ef473994a69262e5cbb8f17df3651f1a1d60cd94f8243983a9e8c0",
                "transactions" : [
                    {
                        "data" : "0x60076064526000600060206000600073b000000000000000000000000000000000000000620493e0f15060006000600060006000731000000000000000000000000000000000000000620493e0f150600060006020600073b000000000000000000000000000000000000000620493e0fa506000600060006000731000000000000000000000000000000000000000620493e0f45060006000600060006000732000000000000000000000000000000000000000620927c0f1",
                        "gasLimit" : "0x1e8480",
                        "gasPrice" : "0x01",
                        "nonce" : "0x00",
                        "r" : "0x55a4adbf4cd73395ac62ba0198b6a69556bf0fe119da5074808abe88dad3bed2",
                        "s" : "0x6c926f24a361ef473994a69262e5cbb8f17df3651f1a1d60cd94f8243983a9e8",
                        "to" : "",
                        "v" : "0x1b",
                        "value" : "0x01"
                    }
                ],
                "uncleHeaders" : [
                ]
            }
        ],
        "genesisBlockHeader" : {
            "bloom" : "0x00000000000000000000000000000000000000000000000000000000000000000000000000000000000000000000000000000000000000000000000000000000000000000000000000000000000000000000000000000000000000000000000000000000000000000000000000000000000000000000000000000000000000000000000000000000000000000000000000000000000000000000000000000000000000000000000000000000000000000000000000000000000000000000000000000000000000000000000000000000000000000000000000000000000000000000000000000000000000000000000000000000000000000000000000000000",
            "coinbase" : "0x2adc25665018aa1fe0e6bc666dac8fc2697ff9ba",
            "difficulty" : "0x020000",
            "extraData" : "0x42",
            "gasLimit" : "0x989680",
            "gasUsed" : "0x00",
            "hash" : "0x4839a5e717589a5ebffcd7f90acd431250a2eb137626c2effb10e6d49036cf7c",
            "mixHash" : "0x56e81f171bcc55a6ff8345e692c0f86e5b48e01b996cadc001622fb5e363b421",
            "nonce" : "0x0102030405060708",
            "number" : "0x00",
            "parentHash" : "0x0000000000000000000000000000000000000000000000000000000000000000",
            "receiptTrie" : "0x56e81f171bcc55a6ff8345e692c0f86e5b48e01b996cadc001622fb5e363b421",
            "stateRoot" : "0xbdcd29a9b9a3cafaf457a6e3ac249cf4c0295219e01aa2097c03325c896ccf96",
            "timestamp" : "0x03b6",
            "transactionsTrie" : "0x56e81f171bcc55a6ff8345e692c0f86e5b48e01b996cadc001622fb5e363b421",
            "uncleHash" : "0x1dcc4de8dec75d7aab85b567b6ccd41ad312451b948a7413f0a142fd40d49347"
        },
        "genesisRLP" : "0xf901faf901f5a00000000000000000000000000000000000000000000000000000000000000000a01dcc4de8dec75d7aab85b567b6ccd41ad312451b948a7413f0a142fd40d49347942adc25665018aa1fe0e6bc666dac8fc2697ff9baa0bdcd29a9b9a3cafaf457a6e3ac249cf4c0295219e01aa2097c03325c896ccf96a056e81f171bcc55a6ff8345e692c0f86e5b48e01b996cadc001622fb5e363b421a056e81f171bcc55a6ff8345e692c0f86e5b48e01b996cadc001622fb5e363b421b9010000000000000000000000000000000000000000000000000000000000000000000000000000000000000000000000000000000000000000000000000000000000000000000000000000000000000000000000000000000000000000000000000000000000000000000000000000000000000000000000000000000000000000000000000000000000000000000000000000000000000000000000000000000000000000000000000000000000000000000000000000000000000000000000000000000000000000000000000000000000000000000000000000000000000000000000000000000000000000000000000000000000000000000000000000000000830200008083989680808203b642a056e81f171bcc55a6ff8345e692c0f86e5b48e01b996cadc001622fb5e363b421880102030405060708c0c0",
        "lastblockhash" : "0x8e4cfc2d3840a8c7d49217846b6cb330003e8b6de3de96df54fa9ba721a75b4b",
        "network" : "ConstantinopleFix",
        "postState" : {
            "0x2000000000000000000000000000000000000000" : {
                "balance" : "0x00",
                "code" : "0x6001600155600060015560016002556000600255600160035560006003556001600455600060045560016005556000600555600160065560006006556001600755600060075560016008556000600855600160095560006009556001600a556000600a556001600b556000600b556001600c556000600c556001600d556000600d556001600e556000600e556001600f556000600f55600160105560006010556001600155",
                "nonce" : "0x00",
                "storage" : {
                    "0x01" : "0x01"
                }
            },
            "0x2adc25665018aa1fe0e6bc666dac8fc2697ff9ba" : {
                "balance" : "0x1bc16d674ed0f4fb",
                "code" : "0x",
                "nonce" : "0x00",
                "storage" : {
                }
            },
            "0x3000000000000000000000000000000000000000" : {
                "balance" : "0x00",
                "code" : "0x60206000fd",
                "nonce" : "0x00",
                "storage" : {
                    "0x00" : "0x02",
                    "0x01" : "0x02",
                    "0x02" : "0x02"
                }
            },
            "0x6295ee1b4f6dd65047762f924ecd367c17eabf8f" : {
                "balance" : "0x01",
                "code" : "0x",
                "nonce" : "0x01",
                "storage" : {
                }
            },
            "0xa94f5374fce5edbc8e2a8697c15331677e6ebf0b" : {
                "balance" : "0xe8d49c1b04",
                "code" : "0x",
                "nonce" : "0x01",
                "storage" : {
                }
            },
            "0xb000000000000000000000000000000000000000" : {
                "balance" : "0x00",
                "code" : "0x600060005560016001556002600255",
                "nonce" : "0x00",
                "storage" : {
                    "0x01" : "0x01",
                    "0x02" : "0x02"
                }
            },
            "0xb100000000000000000000000000000000000000" : {
                "balance" : "0x00",
                "code" : "0x600060005560016001556002600255",
                "nonce" : "0x00",
                "storage" : {
                    "0x00" : "0x01",
                    "0x01" : "0x01",
                    "0x02" : "0x01"
                }
            },
            "0xb200000000000000000000000000000000000000" : {
                "balance" : "0x00",
                "code" : "0x600060005560016001556002600255",
                "nonce" : "0x00",
                "storage" : {
                    "0x00" : "0x02",
                    "0x01" : "0x02",
                    "0x02" : "0x02"
                }
            }
        },
        "pre" : {
            "0x1000000000000000000000000000000000000000" : {
                "balance" : "0x00",
                "code" : "0x",
                "nonce" : "0x00",
                "storage" : {
                    "0x00" : "0x01",
                    "0x01" : "0x01",
                    "0x02" : "0x01"
                }
            },
            "0x2000000000000000000000000000000000000000" : {
                "balance" : "0x00",
                "code" : "0x6001600155600060015560016002556000600255600160035560006003556001600455600060045560016005556000600555600160065560006006556001600755600060075560016008556000600855600160095560006009556001600a556000600a556001600b556000600b556001600c556000600c556001600d556000600d556001600e556000600e556001600f556000600f55600160105560006010556001600155",
                "nonce" : "0x00",
                "storage" : {
                }
            },
            "0x3000000000000000000000000000000000000000" : {
                "balance" : "0x00",
                "code" : "0x60206000fd",
                "nonce" : "0x00",
                "storage" : {
                    "0x00" : "0x02",
                    "0x01" : "0x02",
                    "0x02" : "0x02"
                }
            },
            "0xa94f5374fce5edbc8e2a8697c15331677e6ebf0b" : {
                "balance" : "0xe8d4a51000",
                "code" : "0x",
                "nonce" : "0x00",
                "storage" : {
                }
            },
            "0xb000000000000000000000000000000000000000" : {
                "balance" : "0x00",
                "code" : "0x600060005560016001556002600255",
                "nonce" : "0x00",
                "storage" : {
                }
            },
            "0xb100000000000000000000000000000000000000" : {
                "balance" : "0x00",
                "code" : "0x600060005560016001556002600255",
                "nonce" : "0x00",
                "storage" : {
                    "0x00" : "0x01",
                    "0x01" : "0x01",
                    "0x02" : "0x01"
                }
            },
            "0xb200000000000000000000000000000000000000" : {
                "balance" : "0x00",
                "code" : "0x600060005560016001556002600255",
                "nonce" : "0x00",
                "storage" : {
                    "0x00" : "0x02",
                    "0x01" : "0x02",
                    "0x02" : "0x02"
                }
            }
        },
        "sealEngine" : "NoProof"
    }
}