{
    "sstore_combinations_initial1_d640g0v0_Constantinople" : {
        "_info" : {
            "comment" : "sstore 1 -> {calltype} -> change to {0, 1, 2} |-> {calltype} -> {non, oog, revert} |-> {calltype} -> change to {0, 1, 2} |-> {non, oog, revert}",
            "filledwith" : "testeth 1.7.0-alpha.1-20+commit.782a7283",
            "lllcversion" : "Version: 0.5.0-develop.2018.11.9+commit.9709dfe0.Linux.g++",
            "source" : "src/BlockchainTestsFiller/GeneralStateTests/stTimeConsuming/sstore_combinations_initial1_d640g0v0Filler.json",
            "sourceHash" : "f8df5d5e40646a0de39754e607b68ad2979a0b68800e0767aace2b6ea4a8d4d4"
        },
        "blocks" : [
            {
                "blockHeader" : {
                    "bloom" : "0x00000000000000000000000000000000000000000000000000000000000000000000000000000000000000000000000000000000000000000000000000000000000000000000000000000000000000000000000000000000000000000000000000000000000000000000000000000000000000000000000000000000000000000000000000000000000000000000000000000000000000000000000000000000000000000000000000000000000000000000000000000000000000000000000000000000000000000000000000000000000000000000000000000000000000000000000000000000000000000000000000000000000000000000000000000000",
                    "coinbase" : "0x2adc25665018aa1fe0e6bc666dac8fc2697ff9ba",
                    "difficulty" : "0x020000",
                    "extraData" : "0x",
                    "gasLimit" : "0x989680",
                    "gasUsed" : "0x067867",
                    "hash" : "0xc65f9502bf25cdfb049c489a0d3a2f7de51b6c407ebf99ff9385639fe9d3a18f",
                    "mixHash" : "0x0000000000000000000000000000000000000000000000000000000000000000",
                    "nonce" : "0x0000000000000000",
                    "number" : "0x01",
                    "parentHash" : "0x4839a5e717589a5ebffcd7f90acd431250a2eb137626c2effb10e6d49036cf7c",
                    "receiptTrie" : "0x01e179d4f56f344de234ff538b26f6ed3f5da222dba1f1b11546912e1fc5ac64",
                    "stateRoot" : "0x26cdd8627d0816dd55df1c24bef1b1822aaa6fefedc81840ae1c70d301fd8b9c",
                    "timestamp" : "0x03e8",
                    "transactionsTrie" : "0xf8c9791aeba70f72fec3cdb36321c1130b39a3251ef27fb5797fe132096453e0",
                    "uncleHash" : "0x1dcc4de8dec75d7aab85b567b6ccd41ad312451b948a7413f0a142fd40d49347"
                },
                "rlp" : "0xf9030df901f8a04839a5e717589a5ebffcd7f90acd431250a2eb137626c2effb10e6d49036cf7ca01dcc4de8dec75d7aab85b567b6ccd41ad312451b948a7413f0a142fd40d49347942adc25665018aa1fe0e6bc666dac8fc2697ff9baa026cdd8627d0816dd55df1c24bef1b1822aaa6fefedc81840ae1c70d301fd8b9ca0f8c9791aeba70f72fec3cdb36321c1130b39a3251ef27fb5797fe132096453e0a001e179d4f56f344de234ff538b26f6ed3f5da222dba1f1b11546912e1fc5ac64b9010000000000000000000000000000000000000000000000000000000000000000000000000000000000000000000000000000000000000000000000000000000000000000000000000000000000000000000000000000000000000000000000000000000000000000000000000000000000000000000000000000000000000000000000000000000000000000000000000000000000000000000000000000000000000000000000000000000000000000000000000000000000000000000000000000000000000000000000000000000000000000000000000000000000000000000000000000000000000000000000000000000000000000000000000000000000830200000183989680830678678203e880a00000000000000000000000000000000000000000000000000000000000000000880000000000000000f9010ef9010b8001831e84808001b8be6102806064526000600060206000600073b100000000000000000000000000000000000000620493e0f25060006000600060006000732000000000000000000000000000000000000000620493e0f1506000600060206000600073b100000000000000000000000000000000000000620493e0f15060006000600060006000731000000000000000000000000000000000000000620493e0f25060006000600060006000732000000000000000000000000000000000000000620927c0f11ca088324b3656a01a397d4c616186cc0e5f09739a0b8c623400916d94401dccaa28a05a8fc2061e79557fb30e3648bae729986cdf16f1607defcbd6691806ac6ecf9ac0",
                "transactions" : [
                    {
                        "data" : "0x6102806064526000600060206000600073b100000000000000000000000000000000000000620493e0f25060006000600060006000732000000000000000000000000000000000000000620493e0f1506000600060206000600073b100000000000000000000000000000000000000620493e0f15060006000600060006000731000000000000000000000000000000000000000620493e0f25060006000600060006000732000000000000000000000000000000000000000620927c0f1",
                        "gasLimit" : "0x1e8480",
                        "gasPrice" : "0x01",
                        "nonce" : "0x00",
                        "r" : "0x88324b3656a01a397d4c616186cc0e5f09739a0b8c623400916d94401dccaa28",
                        "s" : "0x5a8fc2061e79557fb30e3648bae729986cdf16f1607defcbd6691806ac6ecf9a",
                        "to" : "",
                        "v" : "0x1c",
                        "value" : "0x01"
                    }
                ],
                "uncleHeaders" : [
                ]
            }
        ],
        "genesisBlockHeader" : {
            "bloom" : "0x00000000000000000000000000000000000000000000000000000000000000000000000000000000000000000000000000000000000000000000000000000000000000000000000000000000000000000000000000000000000000000000000000000000000000000000000000000000000000000000000000000000000000000000000000000000000000000000000000000000000000000000000000000000000000000000000000000000000000000000000000000000000000000000000000000000000000000000000000000000000000000000000000000000000000000000000000000000000000000000000000000000000000000000000000000000",
            "coinbase" : "0x2adc25665018aa1fe0e6bc666dac8fc2697ff9ba",
            "difficulty" : "0x020000",
            "extraData" : "0x42",
            "gasLimit" : "0x989680",
            "gasUsed" : "0x00",
            "hash" : "0x4839a5e717589a5ebffcd7f90acd431250a2eb137626c2effb10e6d49036cf7c",
            "mixHash" : "0x56e81f171bcc55a6ff8345e692c0f86e5b48e01b996cadc001622fb5e363b421",
            "nonce" : "0x0102030405060708",
            "number" : "0x00",
            "parentHash" : "0x0000000000000000000000000000000000000000000000000000000000000000",
            "receiptTrie" : "0x56e81f171bcc55a6ff8345e692c0f86e5b48e01b996cadc001622fb5e363b421",
            "stateRoot" : "0xbdcd29a9b9a3cafaf457a6e3ac249cf4c0295219e01aa2097c03325c896ccf96",
            "timestamp" : "0x03b6",
            "transactionsTrie" : "0x56e81f171bcc55a6ff8345e692c0f86e5b48e01b996cadc001622fb5e363b421",
            "uncleHash" : "0x1dcc4de8dec75d7aab85b567b6ccd41ad312451b948a7413f0a142fd40d49347"
        },
        "genesisRLP" : "0xf901faf901f5a00000000000000000000000000000000000000000000000000000000000000000a01dcc4de8dec75d7aab85b567b6ccd41ad312451b948a7413f0a142fd40d49347942adc25665018aa1fe0e6bc666dac8fc2697ff9baa0bdcd29a9b9a3cafaf457a6e3ac249cf4c0295219e01aa2097c03325c896ccf96a056e81f171bcc55a6ff8345e692c0f86e5b48e01b996cadc001622fb5e363b421a056e81f171bcc55a6ff8345e692c0f86e5b48e01b996cadc001622fb5e363b421b9010000000000000000000000000000000000000000000000000000000000000000000000000000000000000000000000000000000000000000000000000000000000000000000000000000000000000000000000000000000000000000000000000000000000000000000000000000000000000000000000000000000000000000000000000000000000000000000000000000000000000000000000000000000000000000000000000000000000000000000000000000000000000000000000000000000000000000000000000000000000000000000000000000000000000000000000000000000000000000000000000000000000000000000000000000000000830200008083989680808203b642a056e81f171bcc55a6ff8345e692c0f86e5b48e01b996cadc001622fb5e363b421880102030405060708c0c0",
        "lastblockhash" : "0xc65f9502bf25cdfb049c489a0d3a2f7de51b6c407ebf99ff9385639fe9d3a18f",
        "network" : "Constantinople",
        "postState" : {
            "0x1000000000000000000000000000000000000000" : {
                "balance" : "0x00",
                "code" : "0x",
                "nonce" : "0x00",
                "storage" : {
                    "0x00" : "0x01",
                    "0x01" : "0x01",
                    "0x02" : "0x01"
                }
            },
            "0x2000000000000000000000000000000000000000" : {
                "balance" : "0x00",
                "code" : "0x6001600155600060015560016002556000600255600160035560006003556001600455600060045560016005556000600555600160065560006006556001600755600060075560016008556000600855600160095560006009556001600a556000600a556001600b556000600b556001600c556000600c556001600d556000600d556001600e556000600e556001600f556000600f55600160105560006010556001600155",
                "nonce" : "0x00",
                "storage" : {
                    "0x01" : "0x01"
                }
            },
            "0x2adc25665018aa1fe0e6bc666dac8fc2697ff9ba" : {
                "balance" : "0x1bc16d674ece7867",
                "code" : "0x",
                "nonce" : "0x00",
                "storage" : {
                }
            },
            "0x3000000000000000000000000000000000000000" : {
                "balance" : "0x00",
                "code" : "0x60206000fd",
                "nonce" : "0x00",
                "storage" : {
                    "0x00" : "0x02",
                    "0x01" : "0x02",
                    "0x02" : "0x02"
                }
            },
            "0x6295ee1b4f6dd65047762f924ecd367c17eabf8f" : {
                "balance" : "0x01",
                "code" : "0x",
                "nonce" : "0x01",
                "storage" : {
                    "0x01" : "0x01",
                    "0x02" : "0x02"
                }
            },
            "0xa94f5374fce5edbc8e2a8697c15331677e6ebf0b" : {
                "balance" : "0xe8d49e9798",
                "code" : "0x",
                "nonce" : "0x01",
                "storage" : {
                }
            },
            "0xb000000000000000000000000000000000000000" : {
                "balance" : "0x00",
                "code" : "0x600060005560016001556002600255",
                "nonce" : "0x00",
                "storage" : {
                }
            },
            "0xb100000000000000000000000000000000000000" : {
                "balance" : "0x00",
                "code" : "0x600060005560016001556002600255",
                "nonce" : "0x00",
                "storage" : {
                    "0x01" : "0x01",
                    "0x02" : "0x02"
                }
            },
            "0xb200000000000000000000000000000000000000" : {
                "balance" : "0x00",
                "code" : "0x600060005560016001556002600255",
                "nonce" : "0x00",
                "storage" : {
                    "0x00" : "0x02",
                    "0x01" : "0x02",
                    "0x02" : "0x02"
                }
            }
        },
        "pre" : {
            "0x1000000000000000000000000000000000000000" : {
                "balance" : "0x00",
                "code" : "0x",
                "nonce" : "0x00",
                "storage" : {
                    "0x00" : "0x01",
                    "0x01" : "0x01",
                    "0x02" : "0x01"
                }
            },
            "0x2000000000000000000000000000000000000000" : {
                "balance" : "0x00",
                "code" : "0x6001600155600060015560016002556000600255600160035560006003556001600455600060045560016005556000600555600160065560006006556001600755600060075560016008556000600855600160095560006009556001600a556000600a556001600b556000600b556001600c556000600c556001600d556000600d556001600e556000600e556001600f556000600f55600160105560006010556001600155",
                "nonce" : "0x00",
                "storage" : {
                }
            },
            "0x3000000000000000000000000000000000000000" : {
                "balance" : "0x00",
                "code" : "0x60206000fd",
                "nonce" : "0x00",
                "storage" : {
                    "0x00" : "0x02",
                    "0x01" : "0x02",
                    "0x02" : "0x02"
                }
            },
            "0xa94f5374fce5edbc8e2a8697c15331677e6ebf0b" : {
                "balance" : "0xe8d4a51000",
                "code" : "0x",
                "nonce" : "0x00",
                "storage" : {
                }
            },
            "0xb000000000000000000000000000000000000000" : {
                "balance" : "0x00",
                "code" : "0x600060005560016001556002600255",
                "nonce" : "0x00",
                "storage" : {
                }
            },
            "0xb100000000000000000000000000000000000000" : {
                "balance" : "0x00",
                "code" : "0x600060005560016001556002600255",
                "nonce" : "0x00",
                "storage" : {
                    "0x00" : "0x01",
                    "0x01" : "0x01",
                    "0x02" : "0x01"
                }
            },
            "0xb200000000000000000000000000000000000000" : {
                "balance" : "0x00",
                "code" : "0x600060005560016001556002600255",
                "nonce" : "0x00",
                "storage" : {
                    "0x00" : "0x02",
                    "0x01" : "0x02",
                    "0x02" : "0x02"
                }
            }
        },
        "sealEngine" : "NoProof"
    },
    "sstore_combinations_initial1_d640g0v0_ConstantinopleFix" : {
        "_info" : {
            "comment" : "sstore 1 -> {calltype} -> change to {0, 1, 2} |-> {calltype} -> {non, oog, revert} |-> {calltype} -> change to {0, 1, 2} |-> {non, oog, revert}",
            "filledwith" : "testeth 1.7.0-alpha.1-20+commit.782a7283",
            "lllcversion" : "Version: 0.5.0-develop.2018.11.9+commit.9709dfe0.Linux.g++",
            "source" : "src/BlockchainTestsFiller/GeneralStateTests/stTimeConsuming/sstore_combinations_initial1_d640g0v0Filler.json",
            "sourceHash" : "f8df5d5e40646a0de39754e607b68ad2979a0b68800e0767aace2b6ea4a8d4d4"
        },
        "blocks" : [
            {
                "blockHeader" : {
                    "bloom" : "0x00000000000000000000000000000000000000000000000000000000000000000000000000000000000000000000000000000000000000000000000000000000000000000000000000000000000000000000000000000000000000000000000000000000000000000000000000000000000000000000000000000000000000000000000000000000000000000000000000000000000000000000000000000000000000000000000000000000000000000000000000000000000000000000000000000000000000000000000000000000000000000000000000000000000000000000000000000000000000000000000000000000000000000000000000000000",
                    "coinbase" : "0x2adc25665018aa1fe0e6bc666dac8fc2697ff9ba",
                    "difficulty" : "0x020000",
                    "extraData" : "0x",
                    "gasLimit" : "0x989680",
                    "gasUsed" : "0x08f5e7",
                    "hash" : "0x8ab9d9fa895d78b8fec6c2df4d495f0505170c6ea889ad190193c7d8900ba62c",
                    "mixHash" : "0x0000000000000000000000000000000000000000000000000000000000000000",
                    "nonce" : "0x0000000000000000",
                    "number" : "0x01",
                    "parentHash" : "0x4839a5e717589a5ebffcd7f90acd431250a2eb137626c2effb10e6d49036cf7c",
                    "receiptTrie" : "0x2b63bb4c2a6b37e5221ea6cbd29103ea9c301d3397ab2fd613f7da5d82a299a6",
                    "stateRoot" : "0xe24f40229f57d554905ab2473be73f2b0a49b4f5d1f95728f69da4b78192bfe6",
                    "timestamp" : "0x03e8",
                    "transactionsTrie" : "0xf8c9791aeba70f72fec3cdb36321c1130b39a3251ef27fb5797fe132096453e0",
                    "uncleHash" : "0x1dcc4de8dec75d7aab85b567b6ccd41ad312451b948a7413f0a142fd40d49347"
                },
                "rlp" : "0xf9030df901f8a04839a5e717589a5ebffcd7f90acd431250a2eb137626c2effb10e6d49036cf7ca01dcc4de8dec75d7aab85b567b6ccd41ad312451b948a7413f0a142fd40d49347942adc25665018aa1fe0e6bc666dac8fc2697ff9baa0e24f40229f57d554905ab2473be73f2b0a49b4f5d1f95728f69da4b78192bfe6a0f8c9791aeba70f72fec3cdb36321c1130b39a3251ef27fb5797fe132096453e0a02b63bb4c2a6b37e5221ea6cbd29103ea9c301d3397ab2fd613f7da5d82a299a6b90100000000000000000000000000000000000000000000000000000000000000000000000000000000000000000000000000000000000000000000000000000000000000000000000000000000000000000000000000000000000000000000000000000000000000000000000000000000000000000000000000000000000000000000000000000000000000000000000000000000000000000000000000000000000000000000000000000000000000000000000000000000000000000000000000000000000000000000000000000000000000000000000000000000000000000000000000000000000000000000000000000000000000000000000000000000008302000001839896808308f5e78203e880a00000000000000000000000000000000000000000000000000000000000000000880000000000000000f9010ef9010b8001831e84808001b8be6102806064526000600060206000600073b100000000000000000000000000000000000000620493e0f25060006000600060006000732000000000000000000000000000000000000000620493e0f1506000600060206000600073b100000000000000000000000000000000000000620493e0f15060006000600060006000731000000000000000000000000000000000000000620493e0f25060006000600060006000732000000000000000000000000000000000000000620927c0f11ca088324b3656a01a397d4c616186cc0e5f09739a0b8c623400916d94401dccaa28a05a8fc2061e79557fb30e3648bae729986cdf16f1607defcbd6691806ac6ecf9ac0",
                "transactions" : [
                    {
                        "data" : "0x6102806064526000600060206000600073b100000000000000000000000000000000000000620493e0f25060006000600060006000732000000000000000000000000000000000000000620493e0f1506000600060206000600073b100000000000000000000000000000000000000620493e0f15060006000600060006000731000000000000000000000000000000000000000620493e0f25060006000600060006000732000000000000000000000000000000000000000620927c0f1",
                        "gasLimit" : "0x1e8480",
                        "gasPrice" : "0x01",
                        "nonce" : "0x00",
                        "r" : "0x88324b3656a01a397d4c616186cc0e5f09739a0b8c623400916d94401dccaa28",
                        "s" : "0x5a8fc2061e79557fb30e3648bae729986cdf16f1607defcbd6691806ac6ecf9a",
                        "to" : "",
                        "v" : "0x1c",
                        "value" : "0x01"
                    }
                ],
                "uncleHeaders" : [
                ]
            }
        ],
        "genesisBlockHeader" : {
            "bloom" : "0x00000000000000000000000000000000000000000000000000000000000000000000000000000000000000000000000000000000000000000000000000000000000000000000000000000000000000000000000000000000000000000000000000000000000000000000000000000000000000000000000000000000000000000000000000000000000000000000000000000000000000000000000000000000000000000000000000000000000000000000000000000000000000000000000000000000000000000000000000000000000000000000000000000000000000000000000000000000000000000000000000000000000000000000000000000000",
            "coinbase" : "0x2adc25665018aa1fe0e6bc666dac8fc2697ff9ba",
            "difficulty" : "0x020000",
            "extraData" : "0x42",
            "gasLimit" : "0x989680",
            "gasUsed" : "0x00",
            "hash" : "0x4839a5e717589a5ebffcd7f90acd431250a2eb137626c2effb10e6d49036cf7c",
            "mixHash" : "0x56e81f171bcc55a6ff8345e692c0f86e5b48e01b996cadc001622fb5e363b421",
            "nonce" : "0x0102030405060708",
            "number" : "0x00",
            "parentHash" : "0x0000000000000000000000000000000000000000000000000000000000000000",
            "receiptTrie" : "0x56e81f171bcc55a6ff8345e692c0f86e5b48e01b996cadc001622fb5e363b421",
            "stateRoot" : "0xbdcd29a9b9a3cafaf457a6e3ac249cf4c0295219e01aa2097c03325c896ccf96",
            "timestamp" : "0x03b6",
            "transactionsTrie" : "0x56e81f171bcc55a6ff8345e692c0f86e5b48e01b996cadc001622fb5e363b421",
            "uncleHash" : "0x1dcc4de8dec75d7aab85b567b6ccd41ad312451b948a7413f0a142fd40d49347"
        },
        "genesisRLP" : "0xf901faf901f5a00000000000000000000000000000000000000000000000000000000000000000a01dcc4de8dec75d7aab85b567b6ccd41ad312451b948a7413f0a142fd40d49347942adc25665018aa1fe0e6bc666dac8fc2697ff9baa0bdcd29a9b9a3cafaf457a6e3ac249cf4c0295219e01aa2097c03325c896ccf96a056e81f171bcc55a6ff8345e692c0f86e5b48e01b996cadc001622fb5e363b421a056e81f171bcc55a6ff8345e692c0f86e5b48e01b996cadc001622fb5e363b421b9010000000000000000000000000000000000000000000000000000000000000000000000000000000000000000000000000000000000000000000000000000000000000000000000000000000000000000000000000000000000000000000000000000000000000000000000000000000000000000000000000000000000000000000000000000000000000000000000000000000000000000000000000000000000000000000000000000000000000000000000000000000000000000000000000000000000000000000000000000000000000000000000000000000000000000000000000000000000000000000000000000000000000000000000000000000000830200008083989680808203b642a056e81f171bcc55a6ff8345e692c0f86e5b48e01b996cadc001622fb5e363b421880102030405060708c0c0",
        "lastblockhash" : "0x8ab9d9fa895d78b8fec6c2df4d495f0505170c6ea889ad190193c7d8900ba62c",
        "network" : "ConstantinopleFix",
        "postState" : {
            "0x1000000000000000000000000000000000000000" : {
                "balance" : "0x00",
                "code" : "0x",
                "nonce" : "0x00",
                "storage" : {
                    "0x00" : "0x01",
                    "0x01" : "0x01",
                    "0x02" : "0x01"
                }
            },
            "0x2000000000000000000000000000000000000000" : {
                "balance" : "0x00",
                "code" : "0x6001600155600060015560016002556000600255600160035560006003556001600455600060045560016005556000600555600160065560006006556001600755600060075560016008556000600855600160095560006009556001600a556000600a556001600b556000600b556001600c556000600c556001600d556000600d556001600e556000600e556001600f556000600f55600160105560006010556001600155",
                "nonce" : "0x00",
                "storage" : {
                    "0x01" : "0x01"
                }
            },
            "0x2adc25665018aa1fe0e6bc666dac8fc2697ff9ba" : {
                "balance" : "0x1bc16d674ed0f5e7",
                "code" : "0x",
                "nonce" : "0x00",
                "storage" : {
                }
            },
            "0x3000000000000000000000000000000000000000" : {
                "balance" : "0x00",
                "code" : "0x60206000fd",
                "nonce" : "0x00",
                "storage" : {
                    "0x00" : "0x02",
                    "0x01" : "0x02",
                    "0x02" : "0x02"
                }
            },
            "0x6295ee1b4f6dd65047762f924ecd367c17eabf8f" : {
                "balance" : "0x01",
                "code" : "0x",
                "nonce" : "0x01",
                "storage" : {
                    "0x01" : "0x01",
                    "0x02" : "0x02"
                }
            },
            "0xa94f5374fce5edbc8e2a8697c15331677e6ebf0b" : {
                "balance" : "0xe8d49c1a18",
                "code" : "0x",
                "nonce" : "0x01",
                "storage" : {
                }
            },
            "0xb000000000000000000000000000000000000000" : {
                "balance" : "0x00",
                "code" : "0x600060005560016001556002600255",
                "nonce" : "0x00",
                "storage" : {
                }
            },
            "0xb100000000000000000000000000000000000000" : {
                "balance" : "0x00",
                "code" : "0x600060005560016001556002600255",
                "nonce" : "0x00",
                "storage" : {
                    "0x01" : "0x01",
                    "0x02" : "0x02"
                }
            },
            "0xb200000000000000000000000000000000000000" : {
                "balance" : "0x00",
                "code" : "0x600060005560016001556002600255",
                "nonce" : "0x00",
                "storage" : {
                    "0x00" : "0x02",
                    "0x01" : "0x02",
                    "0x02" : "0x02"
                }
            }
        },
        "pre" : {
            "0x1000000000000000000000000000000000000000" : {
                "balance" : "0x00",
                "code" : "0x",
                "nonce" : "0x00",
                "storage" : {
                    "0x00" : "0x01",
                    "0x01" : "0x01",
                    "0x02" : "0x01"
                }
            },
            "0x2000000000000000000000000000000000000000" : {
                "balance" : "0x00",
                "code" : "0x6001600155600060015560016002556000600255600160035560006003556001600455600060045560016005556000600555600160065560006006556001600755600060075560016008556000600855600160095560006009556001600a556000600a556001600b556000600b556001600c556000600c556001600d556000600d556001600e556000600e556001600f556000600f55600160105560006010556001600155",
                "nonce" : "0x00",
                "storage" : {
                }
            },
            "0x3000000000000000000000000000000000000000" : {
                "balance" : "0x00",
                "code" : "0x60206000fd",
                "nonce" : "0x00",
                "storage" : {
                    "0x00" : "0x02",
                    "0x01" : "0x02",
                    "0x02" : "0x02"
                }
            },
            "0xa94f5374fce5edbc8e2a8697c15331677e6ebf0b" : {
                "balance" : "0xe8d4a51000",
                "code" : "0x",
                "nonce" : "0x00",
                "storage" : {
                }
            },
            "0xb000000000000000000000000000000000000000" : {
                "balance" : "0x00",
                "code" : "0x600060005560016001556002600255",
                "nonce" : "0x00",
                "storage" : {
                }
            },
            "0xb100000000000000000000000000000000000000" : {
                "balance" : "0x00",
                "code" : "0x600060005560016001556002600255",
                "nonce" : "0x00",
                "storage" : {
                    "0x00" : "0x01",
                    "0x01" : "0x01",
                    "0x02" : "0x01"
                }
            },
            "0xb200000000000000000000000000000000000000" : {
                "balance" : "0x00",
                "code" : "0x600060005560016001556002600255",
                "nonce" : "0x00",
                "storage" : {
                    "0x00" : "0x02",
                    "0x01" : "0x02",
                    "0x02" : "0x02"
                }
            }
        },
        "sealEngine" : "NoProof"
    }
}