{
    "modexp_modsize0_returndatasize" : {
        "_info" : {
            "comment" : "",
            "filling-rpc-server" : "evm version 1.10.4-unstable-966ee3ae-20210528",
            "filling-tool-version" : "retesteth-0.1.1-eip1559+commit.658fc3a8.Linux.g++",
            "lllcversion" : "Version: 0.5.14-develop.2021.5.18+commit.14c9d5de.mod.Linux.g++",
            "source" : "src/GeneralStateTestsFiller/stReturnDataTest/modexp_modsize0_returndatasizeFiller.json",
            "sourceHash" : "b558cb008c1c95aabc123b91d753303bafc71a671b4794534aa488e531650db4"
        },
        "env" : {
            "currentCoinbase" : "0x2adc25665018aa1fe0e6bc666dac8fc2697ff9ba",
            "currentDifficulty" : "0x020000",
            "currentNumber" : "0x01",
            "currentTimestamp" : "0x03e8",
            "previousHash" : "0x5e20a0453cecd065ea59c37ac63e079ee08998b6045136a8ce6635c7912ec0b6",
            "currentGasLimit" : "0x174876e800"
        },
        "post" : {
            "Berlin" : [
                {
                    "indexes" : {
                        "data" : 0,
                        "gas" : 0,
                        "value" : 0
                    },
                    "hash" : "0x609a93fb8001f3ec6b9fe5864b267602858f49ef79731e5427c47af3df1fc39b",
                    "txbytes" : "0xf8c4800a843b9aca0094100000000000000000000000000000000000000080b86200000000000000000000000000000000000000000000000000000000000000010000000000000000000000000000000000000000000000000000000000000001000000000000000000000000000000000000000000000000000000000000000001011ca08f73c8f197049e54eca0619bb01b1bb9f96a4b7e9c3bb6a3bec071ee17a09561a03915816caf8c1e50564ade31925e0118f7a006ff68fd4d0b7cfd096ef33acd0d",
                    "logs" : "0x1dcc4de8dec75d7aab85b567b6ccd41ad312451b948a7413f0a142fd40d49347"
                },
                {
                    "indexes" : {
                        "data" : 1,
                        "gas" : 0,
                        "value" : 0
                    },
                    "hash" : "0x194d2d75f0ae18032aaf574e564d054c1442ea7408d61cb9a2098fd204c1755f",
                    "txbytes" : "0xf8c5800a843b9aca0094100000000000000000000000000000000000000080b8630000000000000000000000000000000000000000000000000000000000000001000000000000000000000000000000000000000000000000000000000000000100000000000000000000000000000000000000000000000000000000000000010101011ba012f6ae59ec9c55983fa8ef78d07092ec08c7e28cb5ef28f7bcdfdde83a7aada8a0537ba9cf52abed35ccf26240f6660549078ce9fe7688bc5ee79d6885cbb70d86",
                    "logs" : "0x1dcc4de8dec75d7aab85b567b6ccd41ad312451b948a7413f0a142fd40d49347"
                },
                {
                    "indexes" : {
                        "data" : 2,
                        "gas" : 0,
                        "value" : 0
                    },
                    "hash" : "0x83c33b098a18d48e4052b51d66f707dfb44430a2a58f9a707583b965f4297c1e",
                    "txbytes" : "0xf90158800a843b9aca0094100000000000000000000000000000000000000080b8f60000000000000000000000000000000000000000000000000000000000000064000000000000000000000000000000000000000000000000000000000000006400000000000000000000000000000000000000000000000000000000000000645442ddc2b70f66c1f6d2b296c0a875be7eddd0a80958cbc7425f1899ccf90511a5c318226e48ee23f130b44dc17a691ce66be5da18b85ed7943535b205aa125e9f59294a00f05155c23e97dac6b3a00b0c63c8411bf815fc183b420b4d9dc5f715040d5c60957f52d334b843197adec58c131c907cd96059fc5adce9dda351b5df3d666fcf3eb63c46851c1816e323f2119ebdf5ef351ca00e8660a3a8ae7ccec9ba68e678fe4d056e47e3d4e9bcdc582839216597720e21a0149550a886271ef5628c3bd563faf249439d96163829e483e3f43842d3f05a94",
                    "logs" : "0x1dcc4de8dec75d7aab85b567b6ccd41ad312451b948a7413f0a142fd40d49347"
                },
                {
                    "indexes" : {
                        "data" : 3,
                        "gas" : 0,
                        "value" : 0
                    },
                    "hash" : "0xe3120333c321d7f3c3b1cd14060a31dfa1f52f2a420da1bab57b58e6e0574326",
                    "txbytes" : "0xf90243800a843b9aca0094100000000000000000000000000000000000000080b901e0000000000000000000000000000000000000000000000000000000000000010000000000000000000000000000000000000000000000000000000000000001000000000000000000000000000000000000000000000000000000000000000100f536269e59acdb356459b59f1ea6acc924650f8f05dae101a3b463d33342dcc6265d1ba9465fd0f1106b3f03a4af0a0b553e8b6ba8682584ba19c3835430ff310904a717282064031bcf9185dd172dad65305ee0e61d0c638b0a0ef0f4e51653996020c2723faea116881e25fb3d554dbc51b180052c981fc79ca93567eb6ff0e619deeb2984ae3ca232523aa5bd21ea4f8caa12cb8cd90dbafb9bd6951dcaef0fc4a74d195f5341bc6c3d7217df82597b84c4e1bbef4f2ce8c32aedbd99430f4e1a59b886c4ceb9bf7a00a415c207f3a4ccf95d5483642f95a9b240806c508c29bb48de38c8e1229257d5d807229fb3708ad6ac619b133fd7c1fe3c375f90ce55689018465a8a3d7c08097d415c702e7f57fcd6de6ea55cca75c49b835c6c90172753948fbd5dee5a74a422e3169d0cf5665ffc9198dc7f3fa502da817f1c81af0843ef5bec2ca2e8f3e24a76ac7322dab5a5bda802b247f1cf5282936cd1cb115f40e71db8d62b58c7d6c0ae7c78888987c22ff6afae345ade859a9beb127d1ca0ed5c04cf8321ab3a28035e7a412492f63608663870f2e28c51a8559925f5185da0493f538ff3ada422e3f9389bc1939d09b00f9eaaca6d5d1eb9794ad43fc74e2d",
                    "logs" : "0x1dcc4de8dec75d7aab85b567b6ccd41ad312451b948a7413f0a142fd40d49347"
                },
                {
                    "indexes" : {
                        "data" : 4,
                        "gas" : 0,
                        "value" : 0
                    },
                    "hash" : "0x6d3c757669a84fbe81a7c4d1d6b0b9cb1672a67fd54f1267edb045eba61739b2",
                    "txbytes" : "0xf8c5800a843b9aca0094100000000000000000000000000000000000000080b8630000000000000000000000000000000000000000000000000000000000000001000000000000000000000000000000000000000000000000000000000000000100000000000000000000000000000000000000000000000000000000000f3f140101011ba064123e098d5f41d56c475c004488b8d71792b491998d822c8d624b276b0e06eca007915f33ac21e6bae3263c945490ca6a6ce4a5706a2ebf2b658bf3726e84e301",
                    "logs" : "0x1dcc4de8dec75d7aab85b567b6ccd41ad312451b948a7413f0a142fd40d49347"
                }
            ],
            "Istanbul" : [
                {
                    "indexes" : {
                        "data" : 0,
                        "gas" : 0,
                        "value" : 0
                    },
                    "hash" : "0xfdb841121d442aa6fdc7306e99357ce917307889efac42379f5d8eac10064cf8",
                    "txbytes" : "0xf8c4800a843b9aca0094100000000000000000000000000000000000000080b86200000000000000000000000000000000000000000000000000000000000000010000000000000000000000000000000000000000000000000000000000000001000000000000000000000000000000000000000000000000000000000000000001011ca08f73c8f197049e54eca0619bb01b1bb9f96a4b7e9c3bb6a3bec071ee17a09561a03915816caf8c1e50564ade31925e0118f7a006ff68fd4d0b7cfd096ef33acd0d",
                    "logs" : "0x1dcc4de8dec75d7aab85b567b6ccd41ad312451b948a7413f0a142fd40d49347"
                },
                {
                    "indexes" : {
                        "data" : 1,
                        "gas" : 0,
                        "value" : 0
                    },
                    "hash" : "0x13c07646a29f6ff64f116fbfcf19f942bfdb184abfa172cbe309b07207adfe6e",
                    "txbytes" : "0xf8c5800a843b9aca0094100000000000000000000000000000000000000080b8630000000000000000000000000000000000000000000000000000000000000001000000000000000000000000000000000000000000000000000000000000000100000000000000000000000000000000000000000000000000000000000000010101011ba012f6ae59ec9c55983fa8ef78d07092ec08c7e28cb5ef28f7bcdfdde83a7aada8a0537ba9cf52abed35ccf26240f6660549078ce9fe7688bc5ee79d6885cbb70d86",
                    "logs" : "0x1dcc4de8dec75d7aab85b567b6ccd41ad312451b948a7413f0a142fd40d49347"
                },
                {
                    "indexes" : {
                        "data" : 2,
                        "gas" : 0,
                        "value" : 0
                    },
                    "hash" : "0x73b4016a0305e9e7fa53d7094a701554573ef249c356779b571c3ed9b5840b71",
                    "txbytes" : "0xf90158800a843b9aca0094100000000000000000000000000000000000000080b8f60000000000000000000000000000000000000000000000000000000000000064000000000000000000000000000000000000000000000000000000000000006400000000000000000000000000000000000000000000000000000000000000645442ddc2b70f66c1f6d2b296c0a875be7eddd0a80958cbc7425f1899ccf90511a5c318226e48ee23f130b44dc17a691ce66be5da18b85ed7943535b205aa125e9f59294a00f05155c23e97dac6b3a00b0c63c8411bf815fc183b420b4d9dc5f715040d5c60957f52d334b843197adec58c131c907cd96059fc5adce9dda351b5df3d666fcf3eb63c46851c1816e323f2119ebdf5ef351ca00e8660a3a8ae7ccec9ba68e678fe4d056e47e3d4e9bcdc582839216597720e21a0149550a886271ef5628c3bd563faf249439d96163829e483e3f43842d3f05a94",
                    "logs" : "0x1dcc4de8dec75d7aab85b567b6ccd41ad312451b948a7413f0a142fd40d49347"
                },
                {
                    "indexes" : {
                        "data" : 3,
                        "gas" : 0,
                        "value" : 0
                    },
                    "hash" : "0xf1437383f3f3421a40d8e4eca63ee3645f55bc2b5f3ca6b351c587db638f5181",
                    "txbytes" : "0xf90243800a843b9aca0094100000000000000000000000000000000000000080b901e0000000000000000000000000000000000000000000000000000000000000010000000000000000000000000000000000000000000000000000000000000001000000000000000000000000000000000000000000000000000000000000000100f536269e59acdb356459b59f1ea6acc924650f8f05dae101a3b463d33342dcc6265d1ba9465fd0f1106b3f03a4af0a0b553e8b6ba8682584ba19c3835430ff310904a717282064031bcf9185dd172dad65305ee0e61d0c638b0a0ef0f4e51653996020c2723faea116881e25fb3d554dbc51b180052c981fc79ca93567eb6ff0e619deeb2984ae3ca232523aa5bd21ea4f8caa12cb8cd90dbafb9bd6951dcaef0fc4a74d195f5341bc6c3d7217df82597b84c4e1bbef4f2ce8c32aedbd99430f4e1a59b886c4ceb9bf7a00a415c207f3a4ccf95d5483642f95a9b240806c508c29bb48de38c8e1229257d5d807229fb3708ad6ac619b133fd7c1fe3c375f90ce55689018465a8a3d7c08097d415c702e7f57fcd6de6ea55cca75c49b835c6c90172753948fbd5dee5a74a422e3169d0cf5665ffc9198dc7f3fa502da817f1c81af0843ef5bec2ca2e8f3e24a76ac7322dab5a5bda802b247f1cf5282936cd1cb115f40e71db8d62b58c7d6c0ae7c78888987c22ff6afae345ade859a9beb127d1ca0ed5c04cf8321ab3a28035e7a412492f63608663870f2e28c51a8559925f5185da0493f538ff3ada422e3f9389bc1939d09b00f9eaaca6d5d1eb9794ad43fc74e2d",
                    "logs" : "0x1dcc4de8dec75d7aab85b567b6ccd41ad312451b948a7413f0a142fd40d49347"
                },
                {
                    "indexes" : {
                        "data" : 4,
                        "gas" : 0,
                        "value" : 0
                    },
                    "hash" : "0xa2be2b098e50b5f1f10a9d13bc070ba416e42c96f385394286845da320265eda",
                    "txbytes" : "0xf8c5800a843b9aca0094100000000000000000000000000000000000000080b8630000000000000000000000000000000000000000000000000000000000000001000000000000000000000000000000000000000000000000000000000000000100000000000000000000000000000000000000000000000000000000000f3f140101011ba064123e098d5f41d56c475c004488b8d71792b491998d822c8d624b276b0e06eca007915f33ac21e6bae3263c945490ca6a6ce4a5706a2ebf2b658bf3726e84e301",
                    "logs" : "0x1dcc4de8dec75d7aab85b567b6ccd41ad312451b948a7413f0a142fd40d49347"
                }
            ],
            "London" : [
                {
                    "indexes" : {
                        "data" : 0,
                        "gas" : 0,
                        "value" : 0
                    },
                    "hash" : "0x8bf459d5c87a2f9f08b9886ec64b5af7d3bb5c8ebb3d5d06ac6bce0bb77380e3",
                    "txbytes" : "0xf8c4800a843b9aca0094100000000000000000000000000000000000000080b86200000000000000000000000000000000000000000000000000000000000000010000000000000000000000000000000000000000000000000000000000000001000000000000000000000000000000000000000000000000000000000000000001011ca08f73c8f197049e54eca0619bb01b1bb9f96a4b7e9c3bb6a3bec071ee17a09561a03915816caf8c1e50564ade31925e0118f7a006ff68fd4d0b7cfd096ef33acd0d",
                    "logs" : "0x1dcc4de8dec75d7aab85b567b6ccd41ad312451b948a7413f0a142fd40d49347"
                },
                {
                    "indexes" : {
                        "data" : 1,
                        "gas" : 0,
                        "value" : 0
                    },
                    "hash" : "0x8664c16fda1b9347b5a8867779eeb6b476a1badb10c900efb0be8d85843a51c0",
                    "txbytes" : "0xf8c5800a843b9aca0094100000000000000000000000000000000000000080b8630000000000000000000000000000000000000000000000000000000000000001000000000000000000000000000000000000000000000000000000000000000100000000000000000000000000000000000000000000000000000000000000010101011ba012f6ae59ec9c55983fa8ef78d07092ec08c7e28cb5ef28f7bcdfdde83a7aada8a0537ba9cf52abed35ccf26240f6660549078ce9fe7688bc5ee79d6885cbb70d86",
                    "logs" : "0x1dcc4de8dec75d7aab85b567b6ccd41ad312451b948a7413f0a142fd40d49347"
                },
                {
                    "indexes" : {
                        "data" : 2,
                        "gas" : 0,
                        "value" : 0
                    },
                    "hash" : "0x13535a05d6475bf47f96d5c6c0cc8a0d2f5a7f63db561f5358f3ee6f06c29ded",
                    "txbytes" : "0xf90158800a843b9aca0094100000000000000000000000000000000000000080b8f60000000000000000000000000000000000000000000000000000000000000064000000000000000000000000000000000000000000000000000000000000006400000000000000000000000000000000000000000000000000000000000000645442ddc2b70f66c1f6d2b296c0a875be7eddd0a80958cbc7425f1899ccf90511a5c318226e48ee23f130b44dc17a691ce66be5da18b85ed7943535b205aa125e9f59294a00f05155c23e97dac6b3a00b0c63c8411bf815fc183b420b4d9dc5f715040d5c60957f52d334b843197adec58c131c907cd96059fc5adce9dda351b5df3d666fcf3eb63c46851c1816e323f2119ebdf5ef351ca00e8660a3a8ae7ccec9ba68e678fe4d056e47e3d4e9bcdc582839216597720e21a0149550a886271ef5628c3bd563faf249439d96163829e483e3f43842d3f05a94",
                    "logs" : "0x1dcc4de8dec75d7aab85b567b6ccd41ad312451b948a7413f0a142fd40d49347"
                },
                {
                    "indexes" : {
                        "data" : 3,
                        "gas" : 0,
                        "value" : 0
                    },
                    "hash" : "0x62a7b9546082c01e8c3393b290165fe26d9e5994ee5dd850a9b1613282f53ccb",
                    "txbytes" : "0xf90243800a843b9aca0094100000000000000000000000000000000000000080b901e0000000000000000000000000000000000000000000000000000000000000010000000000000000000000000000000000000000000000000000000000000001000000000000000000000000000000000000000000000000000000000000000100f536269e59acdb356459b59f1ea6acc924650f8f05dae101a3b463d33342dcc6265d1ba9465fd0f1106b3f03a4af0a0b553e8b6ba8682584ba19c3835430ff310904a717282064031bcf9185dd172dad65305ee0e61d0c638b0a0ef0f4e51653996020c2723faea116881e25fb3d554dbc51b180052c981fc79ca93567eb6ff0e619deeb2984ae3ca232523aa5bd21ea4f8caa12cb8cd90dbafb9bd6951dcaef0fc4a74d195f5341bc6c3d7217df82597b84c4e1bbef4f2ce8c32aedbd99430f4e1a59b886c4ceb9bf7a00a415c207f3a4ccf95d5483642f95a9b240806c508c29bb48de38c8e1229257d5d807229fb3708ad6ac619b133fd7c1fe3c375f90ce55689018465a8a3d7c08097d415c702e7f57fcd6de6ea55cca75c49b835c6c90172753948fbd5dee5a74a422e3169d0cf5665ffc9198dc7f3fa502da817f1c81af0843ef5bec2ca2e8f3e24a76ac7322dab5a5bda802b247f1cf5282936cd1cb115f40e71db8d62b58c7d6c0ae7c78888987c22ff6afae345ade859a9beb127d1ca0ed5c04cf8321ab3a28035e7a412492f63608663870f2e28c51a8559925f5185da0493f538ff3ada422e3f9389bc1939d09b00f9eaaca6d5d1eb9794ad43fc74e2d",
                    "logs" : "0x1dcc4de8dec75d7aab85b567b6ccd41ad312451b948a7413f0a142fd40d49347"
                },
                {
                    "indexes" : {
                        "data" : 4,
                        "gas" : 0,
                        "value" : 0
                    },
                    "hash" : "0x96a6d91b0ceb0adb3a82144182e212c896a6fe1e9dd397a4c91953e9812d1700",
                    "txbytes" : "0xf8c5800a843b9aca0094100000000000000000000000000000000000000080b8630000000000000000000000000000000000000000000000000000000000000001000000000000000000000000000000000000000000000000000000000000000100000000000000000000000000000000000000000000000000000000000f3f140101011ba064123e098d5f41d56c475c004488b8d71792b491998d822c8d624b276b0e06eca007915f33ac21e6bae3263c945490ca6a6ce4a5706a2ebf2b658bf3726e84e301",
                    "logs" : "0x1dcc4de8dec75d7aab85b567b6ccd41ad312451b948a7413f0a142fd40d49347"
                }
            ]
        },
        "pre" : {
            "0x1000000000000000000000000000000000000000" : {
                "balance" : "0x00",
                "code" : "0x36600060003760206103e8366000600060055af26001556103e8516002553d60035500",
                "nonce" : "0x00",
                "storage" : {
                    "0x03" : "0xffffffff"
                }
            },
            "0xa94f5374fce5edbc8e2a8697c15331677e6ebf0b" : {
                "balance" : "0x3635c9adc5dea00000",
                "code" : "0x",
                "nonce" : "0x00",
                "storage" : {
                }
            }
        },
        "transaction" : {
            "data" : [
                "0x0000000000000000000000000000000000000000000000000000000000000001000000000000000000000000000000000000000000000000000000000000000100000000000000000000000000000000000000000000000000000000000000000101",
                "0x000000000000000000000000000000000000000000000000000000000000000100000000000000000000000000000000000000000000000000000000000000010000000000000000000000000000000000000000000000000000000000000001010101",
                "0x0000000000000000000000000000000000000000000000000000000000000064000000000000000000000000000000000000000000000000000000000000006400000000000000000000000000000000000000000000000000000000000000645442ddc2b70f66c1f6d2b296c0a875be7eddd0a80958cbc7425f1899ccf90511a5c318226e48ee23f130b44dc17a691ce66be5da18b85ed7943535b205aa125e9f59294a00f05155c23e97dac6b3a00b0c63c8411bf815fc183b420b4d9dc5f715040d5c60957f52d334b843197adec58c131c907cd96059fc5adce9dda351b5df3d666fcf3eb63c46851c1816e323f2119ebdf5ef35",
                "0x000000000000000000000000000000000000000000000000000000000000010000000000000000000000000000000000000000000000000000000000000001000000000000000000000000000000000000000000000000000000000000000100f536269e59acdb356459b59f1ea6acc924650f8f05dae101a3b463d33342dcc6265d1ba9465fd0f1106b3f03a4af0a0b553e8b6ba8682584ba19c3835430ff310904a717282064031bcf9185dd172dad65305ee0e61d0c638b0a0ef0f4e51653996020c2723faea116881e25fb3d554dbc51b180052c981fc79ca93567eb6ff0e619deeb2984ae3ca232523aa5bd21ea4f8caa12cb8cd90dbafb9bd6951dcaef0fc4a74d195f5341bc6c3d7217df82597b84c4e1bbef4f2ce8c32aedbd99430f4e1a59b886c4ceb9bf7a00a415c207f3a4ccf95d5483642f95a9b240806c508c29bb48de38c8e1229257d5d807229fb3708ad6ac619b133fd7c1fe3c375f90ce55689018465a8a3d7c08097d415c702e7f57fcd6de6ea55cca75c49b835c6c90172753948fbd5dee5a74a422e3169d0cf5665ffc9198dc7f3fa502da817f1c81af0843ef5bec2ca2e8f3e24a76ac7322dab5a5bda802b247f1cf5282936cd1cb115f40e71db8d62b58c7d6c0ae7c78888987c22ff6afae345ade859a9beb127d",
                "0x0000000000000000000000000000000000000000000000000000000000000001000000000000000000000000000000000000000000000000000000000000000100000000000000000000000000000000000000000000000000000000000f3f14010101"
            ],
            "gasPrice" : "0x0a",
            "gasLimit" : [
                "0x3b9aca00"
            ],
            "nonce" : "0x00",
            "secretKey" : "0x45a915e4d060149eb4365960e6a7a45f334393093061116b197e3240065ff2d8",
            "to" : "0x1000000000000000000000000000000000000000",
            "value" : [
                "0x00"
            ]
        }
    }
}