{
    "returndatasize_after_failing_delegatecall" : {
        "_info" : {
            "comment" : "",
            "filling-rpc-server" : "evm version 1.10.4-unstable-966ee3ae-20210528",
            "filling-tool-version" : "retesteth-0.1.1-eip1559+commit.658fc3a8.Linux.g++",
            "lllcversion" : "Version: 0.5.14-develop.2021.5.18+commit.14c9d5de.mod.Linux.g++",
            "source" : "src/GeneralStateTestsFiller/stReturnDataTest/returndatasize_after_failing_delegatecallFiller.json",
            "sourceHash" : "5614ec998dd9611eee2fb02cdf66a9addbf67a83f067db21e5290b5c9c0f5490"
        },
        "env" : {
            "currentCoinbase" : "0x2adc25665018aa1fe0e6bc666dac8fc2697ff9ba",
            "currentDifficulty" : "0x020000",
            "currentNumber" : "0x01",
            "currentTimestamp" : "0x03e8",
            "previousHash" : "0x5e20a0453cecd065ea59c37ac63e079ee08998b6045136a8ce6635c7912ec0b6",
            "currentGasLimit" : "0x1a00000000"
        },
        "post" : {
            "Berlin" : [
                {
                    "indexes" : {
                        "data" : 0,
                        "gas" : 0,
                        "value" : 0
                    },
                    "hash" : "0x7a67006791f160f581a15098b3c6a0701f7fbe1229500896fef9a0cf076cdbf0",
                    "txbytes" : "0xf862800a850a0000000094100000000000000000000000000000000000000180801ca08bbb9026ad67292dd79e7029089219cc6c33dae0588d64694163002552fa5c9ea01252d0f551f409215407cd3f18f0064b2a252d50a613d6f41e71fc351439d550",
                    "logs" : "0x1dcc4de8dec75d7aab85b567b6ccd41ad312451b948a7413f0a142fd40d49347"
                }
            ],
            "Istanbul" : [
                {
                    "indexes" : {
                        "data" : 0,
                        "gas" : 0,
                        "value" : 0
                    },
                    "hash" : "0x2f0c00984951fdbdcb548bbba94ceaea5bf84c0afac7822cd160346eda1d16b7",
                    "txbytes" : "0xf862800a850a0000000094100000000000000000000000000000000000000180801ca08bbb9026ad67292dd79e7029089219cc6c33dae0588d64694163002552fa5c9ea01252d0f551f409215407cd3f18f0064b2a252d50a613d6f41e71fc351439d550",
                    "logs" : "0x1dcc4de8dec75d7aab85b567b6ccd41ad312451b948a7413f0a142fd40d49347"
                }
            ],
            "London" : [
                {
                    "indexes" : {
                        "data" : 0,
                        "gas" : 0,
                        "value" : 0
                    },
                    "hash" : "0xf86e1cf9aa5f95f4318c741dc355b0b0ccd2d3a02410d505f59d87fbb0aedd09",
                    "txbytes" : "0xf862800a850a0000000094100000000000000000000000000000000000000180801ca08bbb9026ad67292dd79e7029089219cc6c33dae0588d64694163002552fa5c9ea01252d0f551f409215407cd3f18f0064b2a252d50a613d6f41e71fc351439d550",
                    "logs" : "0x1dcc4de8dec75d7aab85b567b6ccd41ad312451b948a7413f0a142fd40d49347"
                }
            ]
        },
        "pre" : {
            "0x0f572e5295c57f15886f9b263e2f6d2d6c7b5ec6" : {
                "balance" : "0x01000000",
                "code" : "0x",
                "nonce" : "0x00",
                "storage" : {
                }
            },
            "0x1000000000000000000000000000000000000001" : {
                "balance" : "0x00",
                "code" : "0x600060006000600073a94f5374fce5edbc8e2a8697c15331677e6ebf0b612710f4503d60005500",
                "nonce" : "0x00",
                "storage" : {
                    "0x00" : "0xffffffffffffffffffffffffffffffffffffffffffffffffffffffffffffffff"
                }
            },
            "0xa94f5374fce5edbc8e2a8697c15331677e6ebf0b" : {
                "balance" : "0x6400000000",
                "code" : "0xfd",
                "nonce" : "0x00",
                "storage" : {
                }
            }
        },
        "transaction" : {
            "data" : [
                "0x"
            ],
            "gasPrice" : "0x0a",
            "gasLimit" : [
                "0x0a00000000"
            ],
            "nonce" : "0x00",
            "secretKey" : "0x45a915e4d060149eb4365960e6a7a45f334393093061116b197e3240065ff2d8",
            "to" : "0x1000000000000000000000000000000000000001",
            "value" : [
                "0x00"
            ]
        }
    }
}