{
    "mload32bitBound_Msize" : {
        "_info" : {
            "comment" : "",
            "filling-rpc-server" : "evm version 1.10.4-unstable-966ee3ae-20210528",
            "filling-tool-version" : "retesteth-0.1.1-eip1559+commit.658fc3a8.Linux.g++",
            "lllcversion" : "Version: 0.5.14-develop.2021.5.18+commit.14c9d5de.mod.Linux.g++",
            "source" : "src/GeneralStateTestsFiller/stMemoryStressTest/mload32bitBound_MsizeFiller.json",
            "sourceHash" : "81ac37f777620a586060e8703fbc2e8900d1ae6e02b4ee9bdd4cc97ee46736a9"
        },
        "env" : {
            "currentCoinbase" : "0x2adc25665018aa1fe0e6bc666dac8fc2697ff9ba",
            "currentDifficulty" : "0x020000",
            "currentNumber" : "0x01",
            "currentTimestamp" : "0x03e8",
            "previousHash" : "0x5e20a0453cecd065ea59c37ac63e079ee08998b6045136a8ce6635c7912ec0b6",
            "currentGasLimit" : "0x027101391c9c29c0"
        },
        "post" : {
            "Berlin" : [
                {
                    "indexes" : {
                        "data" : 0,
                        "gas" : 1,
                        "value" : 0
                    },
                    "hash" : "0x38f980c6695e0a80c97efc442f711937f8eabf303329391ffd7f9fdc1e9d0e58",
                    "txbytes" : "0xf861800a840ee6b280940f572e5295c57f15886f9b263e2f6d2d6c7b5ec680801ca0db1e04a994b97c865275b8a1e8c17e8b03b1396137cf56a1580e61990bdf965da042055f092cdd3bab8514003c9253a77377a6a43941899ea968d2a23fbcb385f4",
                    "logs" : "0x1dcc4de8dec75d7aab85b567b6ccd41ad312451b948a7413f0a142fd40d49347"
                },
                {
                    "indexes" : {
                        "data" : 0,
                        "gas" : 0,
                        "value" : 0
                    },
                    "hash" : "0x29859ceb5fa3acbeeee253fc7ffc19b8f391dde457173983593e8858040efcbd",
                    "txbytes" : "0xf860800a830249f0940f572e5295c57f15886f9b263e2f6d2d6c7b5ec680801ca0ef47c542954fc3d0229c83c35feaf9b992fbc31fbc75d2846dfd11b631a4ca2aa054216a69ec25ccdde02a6cbb31158d8aadeae133a4f619b174328df63e6a8df3",
                    "logs" : "0x1dcc4de8dec75d7aab85b567b6ccd41ad312451b948a7413f0a142fd40d49347"
                }
            ],
            "Istanbul" : [
                {
                    "indexes" : {
                        "data" : 0,
                        "gas" : 1,
                        "value" : 0
                    },
                    "hash" : "0x38f980c6695e0a80c97efc442f711937f8eabf303329391ffd7f9fdc1e9d0e58",
                    "txbytes" : "0xf861800a840ee6b280940f572e5295c57f15886f9b263e2f6d2d6c7b5ec680801ca0db1e04a994b97c865275b8a1e8c17e8b03b1396137cf56a1580e61990bdf965da042055f092cdd3bab8514003c9253a77377a6a43941899ea968d2a23fbcb385f4",
                    "logs" : "0x1dcc4de8dec75d7aab85b567b6ccd41ad312451b948a7413f0a142fd40d49347"
                },
                {
                    "indexes" : {
                        "data" : 0,
                        "gas" : 0,
                        "value" : 0
                    },
                    "hash" : "0x29859ceb5fa3acbeeee253fc7ffc19b8f391dde457173983593e8858040efcbd",
                    "txbytes" : "0xf860800a830249f0940f572e5295c57f15886f9b263e2f6d2d6c7b5ec680801ca0ef47c542954fc3d0229c83c35feaf9b992fbc31fbc75d2846dfd11b631a4ca2aa054216a69ec25ccdde02a6cbb31158d8aadeae133a4f619b174328df63e6a8df3",
                    "logs" : "0x1dcc4de8dec75d7aab85b567b6ccd41ad312451b948a7413f0a142fd40d49347"
                }
            ],
            "London" : [
                {
                    "indexes" : {
                        "data" : 0,
                        "gas" : 1,
                        "value" : 0
                    },
                    "hash" : "0x34c948e40324c699b2838a857d0866a8c124d81ab627e6ebde21da018dd2fb07",
                    "txbytes" : "0xf861800a840ee6b280940f572e5295c57f15886f9b263e2f6d2d6c7b5ec680801ca0db1e04a994b97c865275b8a1e8c17e8b03b1396137cf56a1580e61990bdf965da042055f092cdd3bab8514003c9253a77377a6a43941899ea968d2a23fbcb385f4",
                    "logs" : "0x1dcc4de8dec75d7aab85b567b6ccd41ad312451b948a7413f0a142fd40d49347"
                },
                {
                    "indexes" : {
                        "data" : 0,
                        "gas" : 0,
                        "value" : 0
                    },
                    "hash" : "0x25a236699b0be3008d65285ad9cb09c5724151a7c83610ed7794dbd0738b260f",
                    "txbytes" : "0xf860800a830249f0940f572e5295c57f15886f9b263e2f6d2d6c7b5ec680801ca0ef47c542954fc3d0229c83c35feaf9b992fbc31fbc75d2846dfd11b631a4ca2aa054216a69ec25ccdde02a6cbb31158d8aadeae133a4f619b174328df63e6a8df3",
                    "logs" : "0x1dcc4de8dec75d7aab85b567b6ccd41ad312451b948a7413f0a142fd40d49347"
                }
            ]
        },
        "pre" : {
            "0x0f572e5295c57f15886f9b263e2f6d2d6c7b5ec6" : {
                "balance" : "0x0de0b6b3a7640000",
                "code" : "0x600163ffffffff525960005500",
                "nonce" : "0x00",
                "storage" : {
                }
            },
            "0xa94f5374fce5edbc8e2a8697c15331677e6ebf0b" : {
                "balance" : "0x186a0c3b1e19a180",
                "code" : "0x",
                "nonce" : "0x00",
                "storage" : {
                }
            }
        },
        "transaction" : {
            "data" : [
                "0x"
            ],
            "gasPrice" : "0x0a",
            "gasLimit" : [
                "0x0249f0",
                "0x0ee6b280"
            ],
            "nonce" : "0x00",
            "secretKey" : "0x45a915e4d060149eb4365960e6a7a45f334393093061116b197e3240065ff2d8",
            "to" : "0x0f572e5295c57f15886f9b263e2f6d2d6c7b5ec6",
            "value" : [
                "0x00"
            ]
        }
    }
}