{
    "RETURN_Bounds" : {
        "_info" : {
            "comment" : "",
            "filling-rpc-server" : "evm version 1.10.4-unstable-966ee3ae-20210528",
            "filling-tool-version" : "retesteth-0.1.1-eip1559+commit.658fc3a8.Linux.g++",
            "lllcversion" : "Version: 0.5.14-develop.2021.5.18+commit.14c9d5de.mod.Linux.g++",
            "source" : "src/GeneralStateTestsFiller/stMemoryStressTest/RETURN_BoundsFiller.json",
            "sourceHash" : "4afd7ae3ed0460ade24f9cbdf675fdf79e6ba5343dd3410e1b5375eb397ff531"
        },
        "env" : {
            "currentCoinbase" : "0x2adc25665018aa1fe0e6bc666dac8fc2697ff9ba",
            "currentDifficulty" : "0x020000",
            "currentNumber" : "0x01",
            "currentTimestamp" : "0x03e8",
            "previousHash" : "0x5e20a0453cecd065ea59c37ac63e079ee08998b6045136a8ce6635c7912ec0b6",
            "currentGasLimit" : "0x7fffffffffffffff"
        },
        "post" : {
            "Berlin" : [
                {
                    "indexes" : {
                        "data" : 0,
                        "gas" : 0,
                        "value" : 0
                    },
                    "hash" : "0xd1ae2494867a0c263a6f7aa6519987062c65762bb82149a02e66d2dda5f0eabc",
                    "txbytes" : "0xf860800a830249f094100000000000000000000000000000000000000001801ba0f56f3b98c5ed3c38d0e4e1e3e499b6ba9bda60fcf0f6a811d7979fb5d81cec53a00be599284605e5223d1fc0a043f56e1a6a9ec2802406f664cbfea850323aeabf",
                    "logs" : "0x1dcc4de8dec75d7aab85b567b6ccd41ad312451b948a7413f0a142fd40d49347"
                },
                {
                    "indexes" : {
                        "data" : 0,
                        "gas" : 1,
                        "value" : 0
                    },
                    "hash" : "0x450373b049a84d93bd0b199b8c5aa2d0fb3ea585d9afe500dddcb53caffa4beb",
                    "txbytes" : "0xf860800a8307a12094100000000000000000000000000000000000000001801ca07d728dcdfad13de98a9792066671ade883b6540d54eabe003faf386f3de4da6ea02cfbc9a4f02bde0bad3892a47da7a43cc3920434c4784f65e999b6a77b5e99f6",
                    "logs" : "0x1dcc4de8dec75d7aab85b567b6ccd41ad312451b948a7413f0a142fd40d49347"
                },
                {
                    "indexes" : {
                        "data" : 0,
                        "gas" : 2,
                        "value" : 0
                    },
                    "hash" : "0x450373b049a84d93bd0b199b8c5aa2d0fb3ea585d9afe500dddcb53caffa4beb",
                    "txbytes" : "0xf860800a83e4e1c094100000000000000000000000000000000000000001801ca02e11c64679a2e918f62444a04a0ce6c97966543d24d6567a2ec61019821d00bda0576332402517902aacbb6871851a4e85bb970996109a78e10db30582decd03a8",
                    "logs" : "0x1dcc4de8dec75d7aab85b567b6ccd41ad312451b948a7413f0a142fd40d49347"
                }
            ],
            "Istanbul" : [
                {
                    "indexes" : {
                        "data" : 0,
                        "gas" : 0,
                        "value" : 0
                    },
                    "hash" : "0xd1ae2494867a0c263a6f7aa6519987062c65762bb82149a02e66d2dda5f0eabc",
                    "txbytes" : "0xf860800a830249f094100000000000000000000000000000000000000001801ba0f56f3b98c5ed3c38d0e4e1e3e499b6ba9bda60fcf0f6a811d7979fb5d81cec53a00be599284605e5223d1fc0a043f56e1a6a9ec2802406f664cbfea850323aeabf",
                    "logs" : "0x1dcc4de8dec75d7aab85b567b6ccd41ad312451b948a7413f0a142fd40d49347"
                },
                {
                    "indexes" : {
                        "data" : 0,
                        "gas" : 1,
                        "value" : 0
                    },
                    "hash" : "0x0dd375fe95e91df0aed2a228cc1b91077bbed4de0e09683decf2949052c9fdff",
                    "txbytes" : "0xf860800a8307a12094100000000000000000000000000000000000000001801ca07d728dcdfad13de98a9792066671ade883b6540d54eabe003faf386f3de4da6ea02cfbc9a4f02bde0bad3892a47da7a43cc3920434c4784f65e999b6a77b5e99f6",
                    "logs" : "0x1dcc4de8dec75d7aab85b567b6ccd41ad312451b948a7413f0a142fd40d49347"
                },
                {
                    "indexes" : {
                        "data" : 0,
                        "gas" : 2,
                        "value" : 0
                    },
                    "hash" : "0x0dd375fe95e91df0aed2a228cc1b91077bbed4de0e09683decf2949052c9fdff",
                    "txbytes" : "0xf860800a83e4e1c094100000000000000000000000000000000000000001801ca02e11c64679a2e918f62444a04a0ce6c97966543d24d6567a2ec61019821d00bda0576332402517902aacbb6871851a4e85bb970996109a78e10db30582decd03a8",
                    "logs" : "0x1dcc4de8dec75d7aab85b567b6ccd41ad312451b948a7413f0a142fd40d49347"
                }
            ],
            "London" : [
                {
                    "indexes" : {
                        "data" : 0,
                        "gas" : 0,
                        "value" : 0
                    },
                    "hash" : "0x51d5dae93246614d65489b41f0b9b93693604da9a89d3e5a13fc2b950a693d14",
                    "txbytes" : "0xf860800a830249f094100000000000000000000000000000000000000001801ba0f56f3b98c5ed3c38d0e4e1e3e499b6ba9bda60fcf0f6a811d7979fb5d81cec53a00be599284605e5223d1fc0a043f56e1a6a9ec2802406f664cbfea850323aeabf",
                    "logs" : "0x1dcc4de8dec75d7aab85b567b6ccd41ad312451b948a7413f0a142fd40d49347"
                },
                {
                    "indexes" : {
                        "data" : 0,
                        "gas" : 1,
                        "value" : 0
                    },
                    "hash" : "0xf5ad64bdb3ffa9e3694301afbb3c46b80b0b5e74e9826f24ed896f4cca9981f1",
                    "txbytes" : "0xf860800a8307a12094100000000000000000000000000000000000000001801ca07d728dcdfad13de98a9792066671ade883b6540d54eabe003faf386f3de4da6ea02cfbc9a4f02bde0bad3892a47da7a43cc3920434c4784f65e999b6a77b5e99f6",
                    "logs" : "0x1dcc4de8dec75d7aab85b567b6ccd41ad312451b948a7413f0a142fd40d49347"
                },
                {
                    "indexes" : {
                        "data" : 0,
                        "gas" : 2,
                        "value" : 0
                    },
                    "hash" : "0xf5ad64bdb3ffa9e3694301afbb3c46b80b0b5e74e9826f24ed896f4cca9981f1",
                    "txbytes" : "0xf860800a83e4e1c094100000000000000000000000000000000000000001801ca02e11c64679a2e918f62444a04a0ce6c97966543d24d6567a2ec61019821d00bda0576332402517902aacbb6871851a4e85bb970996109a78e10db30582decd03a8",
                    "logs" : "0x1dcc4de8dec75d7aab85b567b6ccd41ad312451b948a7413f0a142fd40d49347"
                }
            ]
        },
        "pre" : {
            "0x1000000000000000000000000000000000000000" : {
                "balance" : "0x00",
                "code" : "0x600060006000600060007310000000000000000000000000000000000000016707fffffffffffffff1600155600060006000600060007310000000000000000000000000000000000000026707fffffffffffffff1600255600060006000600060007310000000000000000000000000000000000000036707fffffffffffffff1600355600060006000600060007310000000000000000000000000000000000000046707fffffffffffffff1600455600060006000600060007310000000000000000000000000000000000000056707fffffffffffffff1600555600060006000600060007310000000000000000000000000000000000000066707fffffffffffffff1600655600060006000600060007310000000000000000000000000000000000000066707fffffffffffffff1600755600060006000600060007310000000000000000000000000000000000000066707fffffffffffffff1600855600060006000600060007310000000000000000000000000000000000000066707fffffffffffffff1600955600060006000600060007310000000000000000000000000000000000000066707fffffffffffffff1600a55600060006000600060007310000000000000000000000000000000000000066707fffffffffffffff1600b55600060006000600060007310000000000000000000000000000000000000066707fffffffffffffff1600c55600060006000600060007310000000000000000000000000000000000000066707fffffffffffffff1600d55600060006000600060007310000000000000000000000000000000000000066707fffffffffffffff1600e55600060006000600060007310000000000000000000000000000000000000066707fffffffffffffff1600f55600060006000600060007310000000000000000000000000000000000000066707fffffffffffffff160105500",
                "nonce" : "0x00",
                "storage" : {
                }
            },
            "0x1000000000000000000000000000000000000001" : {
                "balance" : "0x00",
                "code" : "0x60006000f300",
                "nonce" : "0x00",
                "storage" : {
                }
            },
            "0x1000000000000000000000000000000000000002" : {
                "balance" : "0x00",
                "code" : "0x6000630ffffffff300",
                "nonce" : "0x00",
                "storage" : {
                }
            },
            "0x1000000000000000000000000000000000000003" : {
                "balance" : "0x00",
                "code" : "0x600063fffffffff300",
                "nonce" : "0x00",
                "storage" : {
                }
            },
            "0x1000000000000000000000000000000000000004" : {
                "balance" : "0x00",
                "code" : "0x600067fffffffffffffffff300",
                "nonce" : "0x00",
                "storage" : {
                }
            },
            "0x1000000000000000000000000000000000000005" : {
                "balance" : "0x00",
                "code" : "0x60006d0ffffffffffffffffffffffffffff300",
                "nonce" : "0x00",
                "storage" : {
                }
            },
            "0x1000000000000000000000000000000000000006" : {
                "balance" : "0x00",
                "code" : "0x60007ffffffffffffffffffffffffffffffffffffffffffffffffffffffffffffffffff300",
                "nonce" : "0x00",
                "storage" : {
                }
            },
            "0x1000000000000000000000000000000000000007" : {
                "balance" : "0x00",
                "code" : "0x630fffffff6000f300",
                "nonce" : "0x00",
                "storage" : {
                }
            },
            "0x1000000000000000000000000000000000000008" : {
                "balance" : "0x00",
                "code" : "0x63ffffffff6000f300",
                "nonce" : "0x00",
                "storage" : {
                }
            },
            "0x1000000000000000000000000000000000000009" : {
                "balance" : "0x00",
                "code" : "0x67ffffffffffffffff6000f300",
                "nonce" : "0x00",
                "storage" : {
                }
            },
            "0x1000000000000000000000000000000000000010" : {
                "balance" : "0x00",
                "code" : "0x6d0fffffffffffffffffffffffffff6000f300",
                "nonce" : "0x00",
                "storage" : {
                }
            },
            "0x1000000000000000000000000000000000000011" : {
                "balance" : "0x00",
                "code" : "0x7fffffffffffffffffffffffffffffffffffffffffffffffffffffffffffffffff6000f300",
                "nonce" : "0x00",
                "storage" : {
                }
            },
            "0x1000000000000000000000000000000000000012" : {
                "balance" : "0x00",
                "code" : "0x630fffffff630ffffffff300",
                "nonce" : "0x00",
                "storage" : {
                }
            },
            "0x1000000000000000000000000000000000000013" : {
                "balance" : "0x00",
                "code" : "0x63ffffffff63fffffffff300",
                "nonce" : "0x00",
                "storage" : {
                }
            },
            "0x1000000000000000000000000000000000000014" : {
                "balance" : "0x00",
                "code" : "0x67ffffffffffffffff67fffffffffffffffff300",
                "nonce" : "0x00",
                "storage" : {
                }
            },
            "0x1000000000000000000000000000000000000015" : {
                "balance" : "0x00",
                "code" : "0x6d0fffffffffffffffffffffffffff6d0ffffffffffffffffffffffffffff300",
                "nonce" : "0x00",
                "storage" : {
                }
            },
            "0x1000000000000000000000000000000000000016" : {
                "balance" : "0x00",
                "code" : "0x7fffffffffffffffffffffffffffffffffffffffffffffffffffffffffffffffff7ffffffffffffffffffffffffffffffffffffffffffffffffffffffffffffffffff300",
                "nonce" : "0x00",
                "storage" : {
                }
            },
            "0xa94f5374fce5edbc8e2a8697c15331677e6ebf0b" : {
                "balance" : "0xffffffffffffffffffffffffffffffffffffffffffffffffffffffffffffffff",
                "code" : "0x",
                "nonce" : "0x00",
                "storage" : {
                }
            }
        },
        "transaction" : {
            "data" : [
                "0x"
            ],
            "gasPrice" : "0x0a",
            "gasLimit" : [
                "0x0249f0",
                "0x07a120",
                "0xe4e1c0"
            ],
            "nonce" : "0x00",
            "secretKey" : "0x45a915e4d060149eb4365960e6a7a45f334393093061116b197e3240065ff2d8",
            "to" : "0x1000000000000000000000000000000000000000",
            "value" : [
                "0x01"
            ]
        }
    }
}